{
  "_format": "hh-sol-artifact-1",
  "contractName": "StakingV2Upgradeable",
  "sourceName": "contracts/StakingV2Upgradeable.sol",
  "abi": [
    {
      "anonymous": false,
      "inputs": [
        {
          "indexed": false,
          "internalType": "address",
          "name": "previousAdmin",
          "type": "address"
        },
        {
          "indexed": false,
          "internalType": "address",
          "name": "newAdmin",
          "type": "address"
        }
      ],
      "name": "AdminChanged",
      "type": "event"
    },
    {
      "anonymous": false,
      "inputs": [
        {
          "indexed": true,
          "internalType": "address",
          "name": "beacon",
          "type": "address"
        }
      ],
      "name": "BeaconUpgraded",
      "type": "event"
    },
    {
      "anonymous": false,
      "inputs": [
        {
          "indexed": false,
          "internalType": "uint8",
          "name": "version",
          "type": "uint8"
        }
      ],
      "name": "Initialized",
      "type": "event"
    },
    {
      "anonymous": false,
      "inputs": [
        {
          "indexed": true,
          "internalType": "address",
          "name": "previousOwner",
          "type": "address"
        },
        {
          "indexed": true,
          "internalType": "address",
          "name": "newOwner",
          "type": "address"
        }
      ],
      "name": "OwnershipTransferred",
      "type": "event"
    },
    {
      "anonymous": false,
      "inputs": [
        {
          "indexed": false,
          "internalType": "address",
          "name": "account",
          "type": "address"
        }
      ],
      "name": "Paused",
      "type": "event"
    },
    {
      "anonymous": false,
      "inputs": [
        {
          "indexed": true,
          "internalType": "address",
          "name": "userAddress",
          "type": "address"
        },
        {
          "indexed": false,
          "internalType": "uint256",
          "name": "amount",
          "type": "uint256"
        }
      ],
      "name": "PrincipalClaimed",
      "type": "event"
    },
    {
      "anonymous": false,
      "inputs": [
        {
          "indexed": true,
          "internalType": "address",
          "name": "userAddress",
          "type": "address"
        },
        {
          "indexed": true,
          "internalType": "uint256",
          "name": "valueStaked",
          "type": "uint256"
        },
        {
          "indexed": true,
          "internalType": "uint256",
          "name": "duration",
          "type": "uint256"
        },
        {
          "indexed": false,
          "internalType": "uint256",
          "name": "stakingID",
          "type": "uint256"
        }
      ],
      "name": "Stake",
      "type": "event"
    },
    {
      "anonymous": false,
      "inputs": [
        {
          "indexed": true,
          "internalType": "address",
          "name": "userAddress",
          "type": "address"
        },
        {
          "indexed": true,
          "internalType": "uint256",
          "name": "reward",
          "type": "uint256"
        },
        {
          "indexed": true,
          "internalType": "uint256",
          "name": "stakingID",
          "type": "uint256"
        },
        {
          "indexed": false,
          "internalType": "address",
          "name": "tokenAddress",
          "type": "address"
        }
      ],
      "name": "StakingRewardClaimed",
      "type": "event"
    },
    {
      "anonymous": false,
      "inputs": [
        {
          "indexed": false,
          "internalType": "address",
          "name": "account",
          "type": "address"
        }
      ],
      "name": "Unpaused",
      "type": "event"
    },
    {
      "anonymous": false,
      "inputs": [
        {
          "indexed": true,
          "internalType": "address",
          "name": "userAddress",
          "type": "address"
        },
        {
          "indexed": true,
          "internalType": "uint256",
          "name": "valueStaked",
          "type": "uint256"
        },
        {
          "indexed": true,
          "internalType": "uint256",
          "name": "stakingID",
          "type": "uint256"
        }
      ],
      "name": "Unstake",
      "type": "event"
    },
    {
      "anonymous": false,
      "inputs": [
        {
          "indexed": true,
          "internalType": "address",
          "name": "implementation",
          "type": "address"
        }
      ],
      "name": "Upgraded",
      "type": "event"
    },
    {
      "inputs": [],
      "name": "allStakersList",
      "outputs": [
        {
          "internalType": "uint256",
          "name": "stakersCount",
          "type": "uint256"
        },
        {
          "internalType": "address[]",
          "name": "stakersList",
          "type": "address[]"
        }
      ],
      "stateMutability": "view",
      "type": "function"
    },
    {
      "inputs": [
        {
          "internalType": "uint256",
          "name": "_stakingID",
          "type": "uint256"
        }
      ],
      "name": "claimStakingReward",
      "outputs": [],
      "stateMutability": "nonpayable",
      "type": "function"
    },
    {
      "inputs": [
        {
          "internalType": "address[]",
          "name": "_userAddress",
          "type": "address[]"
        }
      ],
      "name": "disableAccounts",
      "outputs": [],
      "stateMutability": "nonpayable",
      "type": "function"
    },
    {
      "inputs": [
        {
          "internalType": "address[]",
          "name": "_userAddress",
          "type": "address[]"
        }
      ],
      "name": "enableAccounts",
      "outputs": [],
      "stateMutability": "nonpayable",
      "type": "function"
    },
    {
      "inputs": [],
      "name": "getDisabledAccountsList",
      "outputs": [
        {
          "internalType": "address[]",
          "name": "",
          "type": "address[]"
        }
      ],
      "stateMutability": "view",
      "type": "function"
    },
    {
      "inputs": [],
      "name": "getStakingCappings",
      "outputs": [
        {
          "internalType": "uint256",
          "name": "minStakingValue",
          "type": "uint256"
        },
        {
          "internalType": "uint256",
          "name": "stakingRewardRate",
          "type": "uint256"
        },
        {
          "internalType": "uint256",
          "name": "stakingDuration",
          "type": "uint256"
        },
        {
          "internalType": "uint256",
          "name": "stakingRewardClaimTimeLimit",
          "type": "uint256"
        }
      ],
      "stateMutability": "view",
      "type": "function"
    },
    {
      "inputs": [],
      "name": "getStakingReleaseRewardRate",
      "outputs": [
        {
          "internalType": "uint8",
          "name": "",
          "type": "uint8"
        }
      ],
      "stateMutability": "view",
      "type": "function"
    },
    {
      "inputs": [
        {
          "internalType": "uint256",
          "name": "_stakingID",
          "type": "uint256"
        }
      ],
      "name": "getStakingReward",
      "outputs": [
        {
          "internalType": "uint256",
          "name": "",
          "type": "uint256"
        }
      ],
      "stateMutability": "view",
      "type": "function"
    },
    {
      "inputs": [],
      "name": "getStakingRewardClaimTimeLimit",
      "outputs": [
        {
          "internalType": "uint256",
          "name": "",
          "type": "uint256"
        }
      ],
      "stateMutability": "view",
      "type": "function"
    },
    {
      "inputs": [
        {
          "internalType": "uint256",
          "name": "_stakingID",
          "type": "uint256"
        }
      ],
      "name": "getStakingRewardClaimTimeRemaining",
      "outputs": [
        {
          "internalType": "uint256",
          "name": "",
          "type": "uint256"
        }
      ],
      "stateMutability": "view",
      "type": "function"
    },
    {
      "inputs": [
        {
          "internalType": "uint256",
          "name": "_stakingID",
          "type": "uint256"
        }
      ],
      "name": "getStakingTimeRemaining",
      "outputs": [
        {
          "internalType": "uint256",
          "name": "",
          "type": "uint256"
        }
      ],
      "stateMutability": "view",
      "type": "function"
    },
    {
      "inputs": [],
      "name": "getTotalStakingRewardDistributed",
      "outputs": [
        {
          "internalType": "uint256",
          "name": "_tokenRewards",
          "type": "uint256"
        },
        {
          "internalType": "uint256",
          "name": "_ansudRewards",
          "type": "uint256"
        }
      ],
      "stateMutability": "view",
      "type": "function"
    },
    {
      "inputs": [],
      "name": "getTotalValueStaked",
      "outputs": [
        {
          "internalType": "uint256",
          "name": "token",
          "type": "uint256"
        },
        {
          "internalType": "uint256",
          "name": "anusd",
          "type": "uint256"
        }
      ],
      "stateMutability": "view",
      "type": "function"
    },
    {
      "inputs": [
        {
          "internalType": "address",
          "name": "_userAddress",
          "type": "address"
        }
      ],
      "name": "getUserAllStakingsRewards",
      "outputs": [
        {
          "internalType": "uint256",
          "name": "",
          "type": "uint256"
        }
      ],
      "stateMutability": "view",
      "type": "function"
    },
    {
      "inputs": [
        {
          "internalType": "address",
          "name": "_userAddress",
          "type": "address"
        }
      ],
      "name": "getUserStakingIDs",
      "outputs": [
        {
          "internalType": "uint256[]",
          "name": "",
          "type": "uint256[]"
        }
      ],
      "stateMutability": "view",
      "type": "function"
    },
    {
      "inputs": [
        {
          "internalType": "address",
          "name": "_userAddress",
          "type": "address"
        }
      ],
      "name": "getUserTotalPrincipalClaimed",
      "outputs": [
        {
          "internalType": "uint256",
          "name": "",
          "type": "uint256"
        }
      ],
      "stateMutability": "view",
      "type": "function"
    },
    {
      "inputs": [
        {
          "internalType": "address",
          "name": "_userAddress",
          "type": "address"
        }
      ],
      "name": "getUserTotalRewardClaimedANUSD",
      "outputs": [
        {
          "internalType": "uint256",
          "name": "totalRewardClaim",
          "type": "uint256"
        }
      ],
      "stateMutability": "view",
      "type": "function"
    },
    {
      "inputs": [
        {
          "internalType": "address",
          "name": "_userAddress",
          "type": "address"
        }
      ],
      "name": "getUserTotalRewardClaimedToken",
      "outputs": [
        {
          "internalType": "uint256",
          "name": "totalRewardClaim",
          "type": "uint256"
        }
      ],
      "stateMutability": "view",
      "type": "function"
    },
    {
      "inputs": [
        {
          "internalType": "address",
          "name": "_userAddress",
          "type": "address"
        }
      ],
      "name": "getUserTotalValueStaked",
      "outputs": [
        {
          "internalType": "uint256",
          "name": "token",
          "type": "uint256"
        },
        {
          "internalType": "uint256",
          "name": "anusd",
          "type": "uint256"
        }
      ],
      "stateMutability": "view",
      "type": "function"
    },
    {
      "inputs": [],
      "name": "initialize",
      "outputs": [],
      "stateMutability": "nonpayable",
      "type": "function"
    },
    {
      "inputs": [
        {
          "internalType": "address",
          "name": "_userAddress",
          "type": "address"
        }
      ],
      "name": "isAccountDisabled",
      "outputs": [
        {
          "internalType": "bool",
          "name": "",
          "type": "bool"
        }
      ],
      "stateMutability": "view",
      "type": "function"
    },
    {
      "inputs": [
        {
          "internalType": "address",
          "name": "_userAddress",
          "type": "address"
        }
      ],
      "name": "isStaked",
      "outputs": [
        {
          "internalType": "bool",
          "name": "",
          "type": "bool"
        }
      ],
      "stateMutability": "view",
      "type": "function"
    },
    {
      "inputs": [],
      "name": "owner",
      "outputs": [
        {
          "internalType": "address",
          "name": "",
          "type": "address"
        }
      ],
      "stateMutability": "view",
      "type": "function"
    },
    {
      "inputs": [],
      "name": "pause",
      "outputs": [],
      "stateMutability": "nonpayable",
      "type": "function"
    },
    {
      "inputs": [],
      "name": "paused",
      "outputs": [
        {
          "internalType": "bool",
          "name": "",
          "type": "bool"
        }
      ],
      "stateMutability": "view",
      "type": "function"
    },
    {
      "inputs": [],
      "name": "proxiableUUID",
      "outputs": [
        {
          "internalType": "bytes32",
          "name": "",
          "type": "bytes32"
        }
      ],
      "stateMutability": "view",
      "type": "function"
    },
    {
      "inputs": [],
      "name": "renounceOwnership",
      "outputs": [],
      "stateMutability": "nonpayable",
      "type": "function"
    },
    {
      "inputs": [
        {
          "internalType": "uint256",
          "name": "_value",
          "type": "uint256"
        }
      ],
      "name": "setMinStakingValue",
      "outputs": [
        {
          "internalType": "uint256",
          "name": "",
          "type": "uint256"
        }
      ],
      "stateMutability": "nonpayable",
      "type": "function"
    },
    {
      "inputs": [
        {
          "internalType": "uint256",
          "name": "_valueInDays",
          "type": "uint256"
        }
      ],
      "name": "setStakingDuration",
      "outputs": [],
      "stateMutability": "nonpayable",
      "type": "function"
    },
    {
      "inputs": [
        {
          "internalType": "uint8",
          "name": "_valueInDecimals",
          "type": "uint8"
        }
      ],
      "name": "setStakingReleaseRewardRate",
      "outputs": [],
      "stateMutability": "nonpayable",
      "type": "function"
    },
    {
      "inputs": [
        {
          "internalType": "uint256",
          "name": "_valueInDays",
          "type": "uint256"
        }
      ],
      "name": "setStakingRewardClaimTimeLimity",
      "outputs": [],
      "stateMutability": "nonpayable",
      "type": "function"
    },
    {
      "inputs": [
        {
          "internalType": "uint256",
          "name": "_valueInPer",
          "type": "uint256"
        }
      ],
      "name": "setStakingRewardRate",
      "outputs": [],
      "stateMutability": "nonpayable",
      "type": "function"
    },
    {
      "inputs": [
        {
          "internalType": "address",
          "name": "_userAddress",
          "type": "address"
        },
        {
          "internalType": "uint256",
          "name": "_valueInToken",
          "type": "uint256"
        },
        {
          "internalType": "uint256",
          "name": "_valueInANUSD",
          "type": "uint256"
        }
      ],
      "name": "stakeByAdmin",
      "outputs": [],
      "stateMutability": "nonpayable",
      "type": "function"
    },
    {
      "inputs": [
        {
          "internalType": "uint256",
          "name": "_stakingID",
          "type": "uint256"
        }
      ],
      "name": "stakeInfoMap",
      "outputs": [
        {
          "components": [
            {
              "internalType": "bool",
              "name": "isStaked",
              "type": "bool"
            },
            {
              "internalType": "address",
              "name": "owner",
              "type": "address"
            },
            {
              "internalType": "uint256",
              "name": "valueInToken",
              "type": "uint256"
            },
            {
              "internalType": "uint256",
              "name": "valueInANUSD",
              "type": "uint256"
            },
            {
              "internalType": "uint256",
              "name": "rewardRate",
              "type": "uint256"
            },
            {
              "internalType": "uint256",
              "name": "startTime",
              "type": "uint256"
            },
            {
              "internalType": "uint256",
              "name": "duration",
              "type": "uint256"
            },
            {
              "internalType": "uint256",
              "name": "rewardClaimedToken",
              "type": "uint256"
            },
            {
              "internalType": "uint256",
              "name": "rewardClaimedANUSD",
              "type": "uint256"
            },
            {
              "internalType": "uint256",
              "name": "principalClaimed",
              "type": "uint256"
            },
            {
              "internalType": "uint256",
              "name": "lastTimeRewardClaimed",
              "type": "uint256"
            }
          ],
          "internalType": "struct StakingV2Upgradeable.StakeInfo",
          "name": "",
          "type": "tuple"
        }
      ],
      "stateMutability": "view",
      "type": "function"
    },
    {
      "inputs": [
        {
          "internalType": "address",
          "name": "newOwner",
          "type": "address"
        }
      ],
      "name": "transferOwnership",
      "outputs": [],
      "stateMutability": "nonpayable",
      "type": "function"
    },
    {
      "inputs": [],
      "name": "unpause",
      "outputs": [],
      "stateMutability": "nonpayable",
      "type": "function"
    },
    {
      "inputs": [
        {
          "internalType": "address",
          "name": "newImplementation",
          "type": "address"
        }
      ],
      "name": "upgradeTo",
      "outputs": [],
      "stateMutability": "nonpayable",
      "type": "function"
    },
    {
      "inputs": [
        {
          "internalType": "address",
          "name": "newImplementation",
          "type": "address"
        },
        {
          "internalType": "bytes",
          "name": "data",
          "type": "bytes"
        }
      ],
      "name": "upgradeToAndCall",
      "outputs": [],
      "stateMutability": "payable",
      "type": "function"
    },
    {
      "inputs": [
        {
          "internalType": "address",
          "name": "_userAddress",
          "type": "address"
        }
      ],
      "name": "userAccountMap",
      "outputs": [
        {
          "components": [
            {
              "internalType": "uint256[]",
              "name": "stakingID",
              "type": "uint256[]"
            },
            {
              "internalType": "bool",
              "name": "isDisabled",
              "type": "bool"
            }
          ],
          "internalType": "struct StakingV2Upgradeable.Account",
          "name": "",
          "type": "tuple"
        }
      ],
      "stateMutability": "view",
      "type": "function"
    },
    {
      "inputs": [
        {
          "internalType": "address",
          "name": "_receiver",
          "type": "address"
        },
        {
          "internalType": "uint256",
          "name": "_value",
          "type": "uint256"
        }
      ],
      "name": "withdrawNativeFunds",
      "outputs": [
        {
          "internalType": "bool",
          "name": "",
          "type": "bool"
        }
      ],
      "stateMutability": "nonpayable",
      "type": "function"
    },
    {
      "inputs": [
        {
          "internalType": "address",
          "name": "_tokenAddress",
          "type": "address"
        },
        {
          "internalType": "address",
          "name": "_receiver",
          "type": "address"
        },
        {
          "internalType": "uint256",
          "name": "_value",
          "type": "uint256"
        }
      ],
      "name": "withdrawTokens",
      "outputs": [
        {
          "internalType": "bool",
          "name": "",
          "type": "bool"
        }
      ],
      "stateMutability": "nonpayable",
      "type": "function"
    },
    {
      "stateMutability": "payable",
      "type": "receive"
    }
  ],
  "bytecode": "0x60a06040523060805234801561001457600080fd5b5060805161323e61004c60003960008181611263015281816112a3015281816113de0152818161141e01526114b1015261323e6000f3fe60806040526004361061024a5760003560e01c806366e5e57011610139578063a40b5891116100b6578063c06a53881161007a578063c06a5388146106e5578063d596fe7f14610708578063d8ba90b714610728578063deede65414610748578063e3a51f5814610760578063f2fde38b1461079d57600080fd5b8063a40b58911461060e578063a7566b751461064b578063abfe35ad14610678578063b7d6851914610698578063ba4f678e146106b857600080fd5b80637ce574bf116100fd5780637ce574bf146105825780638129fc1c1461059c5780638456cb59146105b15780638da5cb5b146105c65780639c3fe28a146105ee57600080fd5b806366e5e570146104e05780636a8ca691146105005780636f51b20b14610520578063715018a61461054d578063736e9b941461056257600080fd5b80633f4ba83a116101c75780635cbfd0211161018b5780635cbfd0211461042b5780635e35359e1461044b5780635f8697141461046b5780636177fd18146104a0578063628b372b146104c057600080fd5b80633f4ba83a146103b65780634f1ef286146103cb57806352d1902d146103de57806353bdadea146103f35780635c975abb1461041357600080fd5b806326792aca1161020e57806326792aca1461030657806328796bbd14610336578063310c9b20146103565780633659cfe6146103765780633b09098f1461039657600080fd5b806308141e4e146102565780631e6f8fe71461028957806322ae497e146102ac578063239cd4a4146102c2578063260cb4e9146102e457600080fd5b3661025157005b600080fd5b34801561026257600080fd5b50610276610271366004612a87565b6107bd565b6040519081526020015b60405180910390f35b34801561029557600080fd5b506101085460405160ff9091168152602001610280565b3480156102b857600080fd5b5061010554610276565b3480156102ce57600080fd5b506102e26102dd366004612a87565b610834565b005b3480156102f057600080fd5b506102f9610e7b565b6040516102809190612ae4565b34801561031257600080fd5b50610326610321366004612b0c565b610ff7565b6040519015158152602001610280565b34801561034257600080fd5b50610276610351366004612b38565b611043565b34801561036257600080fd5b506102e2610371366004612b55565b61111c565b34801561038257600080fd5b506102e2610391366004612b38565b611259565b3480156103a257600080fd5b506102e26103b1366004612b8a565b611338565b3480156103c257600080fd5b506102e26113c2565b6102e26103d9366004612c46565b6113d4565b3480156103ea57600080fd5b506102766114a4565b3480156103ff57600080fd5b506102e261040e366004612b8a565b611557565b34801561041f57600080fd5b5060335460ff16610326565b34801561043757600080fd5b506102e2610446366004612a87565b6115dd565b34801561045757600080fd5b50610326610466366004612cee565b6115f9565b34801561047757600080fd5b5061048b610486366004612b38565b611683565b60408051928352602083019190915201610280565b3480156104ac57600080fd5b506103266104bb366004612b38565b61177f565b3480156104cc57600080fd5b506102766104db366004612b38565b61185c565b3480156104ec57600080fd5b506102766104fb366004612b38565b611939565b34801561050c57600080fd5b506102e261051b366004612a87565b611a09565b34801561052c57600080fd5b5061054061053b366004612b38565b611a25565b6040516102809190612d5f565b34801561055957600080fd5b506102e2611a92565b34801561056e57600080fd5b506102e261057d366004612d72565b611aa4565b34801561058e57600080fd5b50610100546101015461048b565b3480156105a857600080fd5b506102e2611ac3565b3480156105bd57600080fd5b506102e2611c20565b3480156105d257600080fd5b506065546040516001600160a01b039091168152602001610280565b3480156105fa57600080fd5b50610276610609366004612b38565b611c30565b34801561061a57600080fd5b50610326610629366004612b38565b6001600160a01b03166000908152610106602052604090206001015460ff1690565b34801561065757600080fd5b5061066b610666366004612a87565b611d38565b6040516102809190612d95565b34801561068457600080fd5b50610276610693366004612a87565b611e40565b3480156106a457600080fd5b506102e26106b3366004612a87565b611e4b565b3480156106c457600080fd5b506106d86106d3366004612b38565b611e59565b6040516102809190612e21565b3480156106f157600080fd5b506106fa611ef1565b604051610280929190612e55565b34801561071457600080fd5b50610276610723366004612a87565b611f5a565b34801561073457600080fd5b50610276610743366004612a87565b611f6e565b34801561075457600080fd5b5060fd5460fe5461048b565b34801561076c57600080fd5b5061010254610103546101045461010554604080519485526020850193909352918301526060820152608001610280565b3480156107a957600080fd5b506102e26107b8366004612b38565b611fd3565b60008181526101076020526040812060098101544291901561082057816101055482600901546107ed9190612e84565b1061081557816101055482600901546108069190612e84565b6108109190612e97565b610818565b60005b949350505050565b816101055482600401546107ed9190612e84565b61083c612049565b60006108478261208f565b90506000811161089e5760405162461bcd60e51b815260206004820152601d60248201527f596f752068617665206e6f207374616b696e67206f7220656e6465642e00000060448201526064015b60405180910390fd5b60006108ab600283612eaa565b60fb5460008581526101076020908152604080832033808552610106909352922082549495506001600160a01b03938416949193909142916101009091041684146109485760405162461bcd60e51b815260206004820152602760248201527f536f727279207374616b696e6720696420646f656e27742062656c6f6e6773206044820152663a37903cb7ba9760c91b6064820152608401610895565b600182015460ff16156109b55760405162461bcd60e51b815260206004820152602f60248201527f596f7572206163636f756e742069732064697361626c65642e20506c6561736560448201526e1031b7b73a30b1ba1030b236b4b71760891b6064820152608401610895565b426101055484600901546109c99190612e84565b10610a285760405162461bcd60e51b815260206004820152602960248201527f596f752063616e6e6f7420636c61696d20726577617264206265666f7265207460448201526834b6b2b634b6b4ba1760b91b6064820152608401610895565b6000610b59866001600160a01b031663b70cc4c16040518163ffffffff1660e01b8152600401602060405180830381865afa158015610a6b573d6000803e3d6000fd5b505050506040513d601f19601f82011682018060405250810190610a8f9190612ecc565b89886001600160a01b03166355a373d66040518163ffffffff1660e01b8152600401602060405180830381865afa158015610ace573d6000803e3d6000fd5b505050506040513d601f19601f82011682018060405250810190610af29190612ecc565b896001600160a01b0316638290c4a66040518163ffffffff1660e01b8152600401602060405180830381865afa158015610b30573d6000803e3d6000fd5b505050506040513d601f19601f82011682018060405250810190610b549190612ecc565b6120e5565b905086846008016000828254610b6f9190612e84565b925050819055508660ff6000828254610b889190612e84565b9250508190555080600181518110610ba257610ba2612ee9565b6020026020010151846006016000828254610bbd9190612e84565b9250508190555080600081518110610bd757610bd7612ee9565b6020026020010151846007016000828254610bf29190612e84565b909155505060098401829055805181906001908110610c1357610c13612ee9565b60200260200101516101006000828254610c2d9190612e84565b9250508190555080600081518110610c4757610c47612ee9565b60200260200101516101016000828254610c619190612e84565b92505081905550856001600160a01b03166355a373d66040518163ffffffff1660e01b8152600401602060405180830381865afa158015610ca6573d6000803e3d6000fd5b505050506040513d601f19601f82011682018060405250810190610cca9190612ecc565b6001600160a01b031663a9059cbb8683600181518110610cec57610cec612ee9565b60200260200101516040518363ffffffff1660e01b8152600401610d259291906001600160a01b03929092168252602082015260400190565b6020604051808303816000875af1158015610d44573d6000803e3d6000fd5b505050506040513d601f19601f82011682018060405250810190610d689190612eff565b50846001600160a01b03167f2e6100b89b43378c0aeb062f2df0cfaa63e4437abab6844b441f8e47cb31bec388604051610da491815260200190565b60405180910390a28881600181518110610dc057610dc0612ee9565b6020026020010151866001600160a01b03167ffec605188cf64597b9aa9cf424a9bba4a84ffb09f9f66c932d6efa1b96fcc7e4896001600160a01b03166355a373d66040518163ffffffff1660e01b8152600401602060405180830381865afa158015610e31573d6000803e3d6000fd5b505050506040513d601f19601f82011682018060405250810190610e559190612ecc565b6040516001600160a01b03909116815260200160405180910390a4505050505050505050565b6000808052610106602090815260fc80546040805182850281018501909152818152606094937f36b574eb542e18a2932b42c3f7b99e0cccde75c2d7e80ac19800931af8e17fa29385939091830182828015610f0057602002820191906000526020600020905b81546001600160a01b03168152600190910190602001808311610ee2575b5050505050905060008151905060008167ffffffffffffffff811115610f2857610f28612bff565b604051908082528060200260200182016040528015610f51578160200160208202803683370190505b5090506000805b83811015610feb57848181518110610f7257610f72612ee9565b60200260200101519650610f868388612268565b1515600114610fd95760018087015460ff1615159003610fd95786838381518110610fb357610fb3612ee9565b6001600160a01b039092166020928302919091019091015281610fd581612f21565b9250505b80610fe381612f21565b915050610f58565b50909695505050505050565b60006110016122cd565b6040516001600160a01b0384169083156108fc029084906000818181858888f19350505050158015611037573d6000803e3d6000fd5b50600190505b92915050565b6001600160a01b0381166000908152610106602090815260408083208054825181850281018501909352808352909284929184918301828280156110a657602002820191906000526020600020905b815481526020019060010190808311611092575b505083519394506000925050505b8181101561111357600061010760008584815181106110d5576110d5612ee9565b6020026020010151815260200190815260200160002090508060070154866110fd9190612e84565b955050808061110b90612f21565b9150506110b4565b50505050919050565b60fb5433906001600160a01b031661113c6065546001600160a01b031690565b6001600160a01b0316826001600160a01b031614806111cd5750806001600160a01b03166363d9df856040518163ffffffff1660e01b8152600401602060405180830381865afa158015611194573d6000803e3d6000fd5b505050506040513d601f19601f820116820180604052508101906111b89190612ecc565b6001600160a01b0316826001600160a01b0316145b6112245760405162461bcd60e51b815260206004820152602260248201527f4f6e6c79206f776e65722063616e2063616c6c20746869732066756e6374696f604482015261371760f11b6064820152608401610895565b61125185856064610103548761123a9190612f3a565b6112449190612eaa565b6101035461010454612327565b505050505050565b6001600160a01b037f00000000000000000000000000000000000000000000000000000000000000001630036112a15760405162461bcd60e51b815260040161089590612f51565b7f00000000000000000000000000000000000000000000000000000000000000006001600160a01b03166112ea6000805160206131c2833981519152546001600160a01b031690565b6001600160a01b0316146113105760405162461bcd60e51b815260040161089590612f9d565b611319816124bc565b60408051600080825260208201909252611335918391906124c4565b50565b6113406122cd565b60008080526101066020527f36b574eb542e18a2932b42c3f7b99e0cccde75c2d7e80ac19800931af8e17fa282825b818110156112515785858281811061138957611389612ee9565b905060200201602081019061139e9190612b38565b6001848101805460ff191690911790559350806113ba81612f21565b91505061136f565b6113ca6122cd565b6113d2612634565b565b6001600160a01b037f000000000000000000000000000000000000000000000000000000000000000016300361141c5760405162461bcd60e51b815260040161089590612f51565b7f00000000000000000000000000000000000000000000000000000000000000006001600160a01b03166114656000805160206131c2833981519152546001600160a01b031690565b6001600160a01b03161461148b5760405162461bcd60e51b815260040161089590612f9d565b611494826124bc565b6114a0828260016124c4565b5050565b6000306001600160a01b037f000000000000000000000000000000000000000000000000000000000000000016146115445760405162461bcd60e51b815260206004820152603860248201527f555550535570677261646561626c653a206d757374206e6f742062652063616c60448201527f6c6564207468726f7567682064656c656761746563616c6c00000000000000006064820152608401610895565b506000805160206131c283398151915290565b61155f6122cd565b60008080526101066020527f36b574eb542e18a2932b42c3f7b99e0cccde75c2d7e80ac19800931af8e17fa282825b81811015611251578585828181106115a8576115a8612ee9565b90506020020160208101906115bd9190612b38565b60018401805460ff191690559350806115d581612f21565b91505061158e565b6115e56122cd565b6115f28162015180612f3a565b6101055550565b60006116036122cd565b60405163a9059cbb60e01b81526001600160a01b0384811660048301526024820184905285169063a9059cbb906044016020604051808303816000875af1158015611652573d6000803e3d6000fd5b505050506040513d601f19601f820116820180604052508101906116769190612eff565b50600190505b9392505050565b6001600160a01b0381166000908152610106602090815260408083208054825181850281018501909352808352849391928492909184918301828280156116e957602002820191906000526020600020905b8154815260200190600101908083116116d5575b505083519394506000925050505b81811015611776576000610107600085848151811061171857611718612ee9565b6020908102919091018101518252810191909152604001600020805490915060ff161561176357600181015461174e9088612e84565b96508060020154866117609190612e84565b95505b508061176e81612f21565b9150506116f7565b50505050915091565b6001600160a01b0381166000908152610106602090815260408083208054825181850281018501909352808352909284929184918301828280156117e257602002820191906000526020600020905b8154815260200190600101908083116117ce575b505083519394506000925050505b8181101561185057610107600084838151811061180f5761180f612ee9565b60209081029190910181015182528101919091526040016000205460ff161561183e5750600195945050505050565b8061184881612f21565b9150506117f0565b50600095945050505050565b6001600160a01b0381166000908152610106602090815260408083208054825181850281018501909352808352909284929184918301828280156118bf57602002820191906000526020600020905b8154815260200190600101908083116118ab575b505050505090506000815190506000805b8281101561192f57600061010760008684815181106118f1576118f1612ee9565b6020026020010151815260200190815260200160002090508060080154836119199190612e84565b925050808061192790612f21565b9150506118d0565b5095945050505050565b6001600160a01b03811660009081526101066020908152604080832080548251818502810185019093528083529092849291849183018282801561199c57602002820191906000526020600020905b815481526020019060010190808311611988575b505083519394506000925050505b8181101561111357600061010760008584815181106119cb576119cb612ee9565b6020026020010151815260200190815260200160002090508060060154866119f39190612e84565b9550508080611a0190612f21565b9150506119aa565b611a116122cd565b611a1e8162015180612f3a565b6101045550565b6001600160a01b03811660009081526101066020908152604091829020805483518184028101840190945280845260609392830182828015611a8657602002820191906000526020600020905b815481526020019060010190808311611a72575b50505050509050919050565b611a9a6122cd565b6113d26000612686565b611aac6122cd565b610108805460ff191660ff92909216919091179055565b600054610100900460ff1615808015611ae35750600054600160ff909116105b80611afd5750303b158015611afd575060005460ff166001145b611b605760405162461bcd60e51b815260206004820152602e60248201527f496e697469616c697a61626c653a20636f6e747261637420697320616c72656160448201526d191e481a5b9a5d1a585b1a5e995960921b6064820152608401610895565b6000805460ff191660011790558015611b83576000805461ff0019166101001790555b60fb80546001600160a01b0319167377daafc7411c911b869c71bf70fe36cce507845d17905560b4610103556303e9f4006101045562278d0061010555611bc86126d8565b611bd0612707565b611bd8612736565b8015611335576000805461ff0019169055604051600181527f7f26b83ff96e1f2b6a682f133852f6798a09c465da95921460cefb38474024989060200160405180910390a150565b611c286122cd565b6113d261275d565b6001600160a01b03811660009081526101066020908152604080832080548251818502810185019093528083528493830182828015611c8e57602002820191906000526020600020905b815481526020019060010190808311611c7a575b505050505090506000815190506000805b828160ff161015611d2f576101076000858360ff1681518110611cc457611cc4612ee9565b60209081029190910181015182528101919091526040016000205460ff161515600103611d1d57611d10848260ff1681518110611d0357611d03612ee9565b602002602001015161208f565b611d1a9083612e84565b91505b80611d2781612fe9565b915050611c9f565b50949350505050565b611da060405180610160016040528060001515815260200160006001600160a01b031681526020016000815260200160008152602001600081526020016000815260200160008152602001600081526020016000815260200160008152602001600081525090565b5060009081526101076020908152604091829020825161016081018452815460ff8116151582526001600160a01b036101009182900416938201939093526001820154938101939093526002810154606084015260038101546080840152600481015460a0840152600581015460c0840152600681015460e084015260078101549183019190915260088101546101208301526009015461014082015290565b600061103d8261208f565b611e536122cd565b61010355565b6040805180820182526060808252600060208084018290526001600160a01b038616825261010681529084902084518154928302810184018652948501828152939493909284928491840182828015611ed157602002820191906000526020600020905b815481526020019060010190808311611ebd575b50505091835250506001919091015460ff16151560209091015292915050565b6000606060fc805480602002602001604051908101604052809291908181526020018280548015611f4b57602002820191906000526020600020905b81546001600160a01b03168152600190910190602001808311611f2d575b50505050509050805191509091565b6000611f646122cd565b5061010281905590565b600081815261010760205260408120600581015460048201544292918491611f969190612e84565b905080831015611fc8578282600501548360040154611fb59190612e84565b611fbf9190612e97565b95945050505050565b506000949350505050565b611fdb6122cd565b6001600160a01b0381166120405760405162461bcd60e51b815260206004820152602660248201527f4f776e61626c653a206e6577206f776e657220697320746865207a65726f206160448201526564647265737360d01b6064820152608401610895565b61133581612686565b60335460ff16156113d25760405162461bcd60e51b815260206004820152601060248201526f14185d5cd8589b194e881c185d5cd95960821b6044820152606401610895565b600081815261010760205260408120600481015442919083906120b29084612e97565b905081600701546120c782846005015461279a565b836005015484600201546120db9190612eaa565b611fb59190612f3a565b60408051600280825260608083018452926000929190602083019080368337019050509050858160008151811061211e5761211e612ee9565b60200260200101906001600160a01b031690816001600160a01b031681525050838160018151811061215257612152612ee9565b6001600160a01b03928316602091820292909201015260405163095ea7b360e01b81528482166004820152602481018790529087169063095ea7b3906044016020604051808303816000875af11580156121b0573d6000803e3d6000fd5b505050506040513d601f19601f820116820180604052508101906121d49190612eff565b5060006001600160a01b0384166338ed173987600185306121f6426064612e84565b6040518663ffffffff1660e01b8152600401612216959493929190613008565b6000604051808303816000875af1158015612235573d6000803e3d6000fd5b505050506040513d6000823e601f3d908101601f1916820160405261225d9190810190613044565b979650505050505050565b6000805b83518110156122c357826001600160a01b031684828151811061229157612291612ee9565b60200260200101516001600160a01b0316036122b157600191505061103d565b806122bb81612f21565b91505061226c565b5060009392505050565b6065546001600160a01b031633146113d25760405162461bcd60e51b815260206004820181905260248201527f4f776e61626c653a2063616c6c6572206973206e6f7420746865206f776e65726044820152606401610895565b60fc8054600180820183557f371f36870d18f32a11fea0f144b021c8b407bb50f8e0267c711123f454b963c090910180546001600160a01b0319166001600160a01b038916908117909155915460008381526101066020908152604080832084845261010783529083208154808701835582855292842090920184905581546001600160a81b031916610100909602959095178417815542600482018190556005820187905593810189905560028101889055600381018790556009810184905560fd80549295939493928a91908790612402908490612e84565b925050819055508760fe600082825461241b9190612e84565b9250508190555085898b6001600160a01b03167ff556991011e831bcfac4f406d547e5e32cdd98267efab83935230d5f8d02c4468760405161245f91815260200190565b60405180910390a485888b6001600160a01b03167ff556991011e831bcfac4f406d547e5e32cdd98267efab83935230d5f8d02c446876040516124a491815260200190565b60405180910390a45060019998505050505050505050565b6113356122cd565b7f4910fdfa16fed3260ed0e7147f7cc6da11a60208b5b9406d12a635614ffd91435460ff16156124fc576124f7836127b0565b505050565b826001600160a01b03166352d1902d6040518163ffffffff1660e01b8152600401602060405180830381865afa925050508015612556575060408051601f3d908101601f19168201909252612553918101906130ea565b60015b6125b95760405162461bcd60e51b815260206004820152602e60248201527f45524331393637557067726164653a206e657720696d706c656d656e7461746960448201526d6f6e206973206e6f74205555505360901b6064820152608401610895565b6000805160206131c283398151915281146126285760405162461bcd60e51b815260206004820152602960248201527f45524331393637557067726164653a20756e737570706f727465642070726f786044820152681a58589b195555525160ba1b6064820152608401610895565b506124f783838361284c565b61263c612877565b6033805460ff191690557f5db9ee0a495bf2e6ff9c91a7834c1ba4fdd244a5e8aa4e537bd38aeae4b073aa335b6040516001600160a01b03909116815260200160405180910390a1565b606580546001600160a01b038381166001600160a01b0319831681179093556040519116919082907f8be0079c531659141344cd1fd0a4f28419497f9722a3daafe3b4186f6b6457e090600090a35050565b600054610100900460ff166126ff5760405162461bcd60e51b815260040161089590613103565b6113d26128c0565b600054610100900460ff1661272e5760405162461bcd60e51b815260040161089590613103565b6113d26128f3565b600054610100900460ff166113d25760405162461bcd60e51b815260040161089590613103565b612765612049565b6033805460ff191660011790557f62e78cea01bee320cd4e420270b5ea74000d11b0c9f74754ebdbfc544b05a2586126693390565b60008183106127a9578161167c565b5090919050565b6001600160a01b0381163b61281d5760405162461bcd60e51b815260206004820152602d60248201527f455243313936373a206e657720696d706c656d656e746174696f6e206973206e60448201526c1bdd08184818dbdb9d1c9858dd609a1b6064820152608401610895565b6000805160206131c283398151915280546001600160a01b0319166001600160a01b0392909216919091179055565b61285583612923565b6000825111806128625750805b156124f7576128718383612963565b50505050565b60335460ff166113d25760405162461bcd60e51b815260206004820152601460248201527314185d5cd8589b194e881b9bdd081c185d5cd95960621b6044820152606401610895565b600054610100900460ff166128e75760405162461bcd60e51b815260040161089590613103565b6033805460ff19169055565b600054610100900460ff1661291a5760405162461bcd60e51b815260040161089590613103565b6113d233612686565b61292c816127b0565b6040516001600160a01b038216907fbc7cd75a20ee27fd9adebab32041f755214dbc6bffa90cc0225b39da2e5c2d3b90600090a250565b60606001600160a01b0383163b6129cb5760405162461bcd60e51b815260206004820152602660248201527f416464726573733a2064656c65676174652063616c6c20746f206e6f6e2d636f6044820152651b9d1c9858dd60d21b6064820152608401610895565b600080846001600160a01b0316846040516129e69190613172565b600060405180830381855af49150503d8060008114612a21576040519150601f19603f3d011682016040523d82523d6000602084013e612a26565b606091505b5091509150611fbf82826040518060600160405280602781526020016131e26027913960608315612a5857508161167c565b61167c8383815115612a6d5781518083602001fd5b8060405162461bcd60e51b8152600401610895919061318e565b600060208284031215612a9957600080fd5b5035919050565b600081518084526020808501945080840160005b83811015612ad95781516001600160a01b031687529582019590820190600101612ab4565b509495945050505050565b60208152600061167c6020830184612aa0565b6001600160a01b038116811461133557600080fd5b60008060408385031215612b1f57600080fd5b8235612b2a81612af7565b946020939093013593505050565b600060208284031215612b4a57600080fd5b813561167c81612af7565b600080600060608486031215612b6a57600080fd5b8335612b7581612af7565b95602085013595506040909401359392505050565b60008060208385031215612b9d57600080fd5b823567ffffffffffffffff80821115612bb557600080fd5b818501915085601f830112612bc957600080fd5b813581811115612bd857600080fd5b8660208260051b8501011115612bed57600080fd5b60209290920196919550909350505050565b634e487b7160e01b600052604160045260246000fd5b604051601f8201601f1916810167ffffffffffffffff81118282101715612c3e57612c3e612bff565b604052919050565b60008060408385031215612c5957600080fd5b8235612c6481612af7565b915060208381013567ffffffffffffffff80821115612c8257600080fd5b818601915086601f830112612c9657600080fd5b813581811115612ca857612ca8612bff565b612cba601f8201601f19168501612c15565b91508082528784828501011115612cd057600080fd5b80848401858401376000848284010152508093505050509250929050565b600080600060608486031215612d0357600080fd5b8335612d0e81612af7565b92506020840135612d1e81612af7565b929592945050506040919091013590565b600081518084526020808501945080840160005b83811015612ad957815187529582019590820190600101612d43565b60208152600061167c6020830184612d2f565b600060208284031215612d8457600080fd5b813560ff8116811461167c57600080fd5b81511515815261016081016020830151612dba60208401826001600160a01b03169052565b5060408301516040830152606083015160608301526080830151608083015260a083015160a083015260c083015160c083015260e083015160e083015261010080840151818401525061012080840151818401525061014080840151818401525092915050565b602081526000825160406020840152612e3d6060840182612d2f565b90506020840151151560408401528091505092915050565b8281526040602082015260006108186040830184612aa0565b634e487b7160e01b600052601160045260246000fd5b8082018082111561103d5761103d612e6e565b8181038181111561103d5761103d612e6e565b600082612ec757634e487b7160e01b600052601260045260246000fd5b500490565b600060208284031215612ede57600080fd5b815161167c81612af7565b634e487b7160e01b600052603260045260246000fd5b600060208284031215612f1157600080fd5b8151801515811461167c57600080fd5b600060018201612f3357612f33612e6e565b5060010190565b808202811582820484141761103d5761103d612e6e565b6020808252602c908201527f46756e6374696f6e206d7573742062652063616c6c6564207468726f7567682060408201526b19195b1959d85d1958d85b1b60a21b606082015260800190565b6020808252602c908201527f46756e6374696f6e206d7573742062652063616c6c6564207468726f7567682060408201526b6163746976652070726f787960a01b606082015260800190565b600060ff821660ff8103612fff57612fff612e6e565b60010192915050565b85815284602082015260a06040820152600061302760a0830186612aa0565b6001600160a01b0394909416606083015250608001529392505050565b6000602080838503121561305757600080fd5b825167ffffffffffffffff8082111561306f57600080fd5b818501915085601f83011261308357600080fd5b81518181111561309557613095612bff565b8060051b91506130a6848301612c15565b81815291830184019184810190888411156130c057600080fd5b938501935b838510156130de578451825293850193908501906130c5565b98975050505050505050565b6000602082840312156130fc57600080fd5b5051919050565b6020808252602b908201527f496e697469616c697a61626c653a20636f6e7472616374206973206e6f74206960408201526a6e697469616c697a696e6760a81b606082015260800190565b60005b83811015613169578181015183820152602001613151565b50506000910152565b6000825161318481846020870161314e565b9190910192915050565b60208152600082518060208401526131ad81604085016020870161314e565b601f01601f1916919091016040019291505056fe360894a13ba1a3210667c828492db98dca3e2076cc3735a920a3ca505d382bbc416464726573733a206c6f772d6c6576656c2064656c65676174652063616c6c206661696c6564a26469706673582212206ebafdaa43a61a072b2dc50f6bbeac70a61596114ba9870c8472117ed8dd828d64736f6c63430008110033",
  "linkReferences": {},
  "deployedLinkReferences": {}
}