{
  "_format": "hh-sol-artifact-1",
  "contractName": "StakingV2Upgradeable",
  "sourceName": "contracts/StakingV2Upgradeable.sol",
  "abi": [
    {
      "anonymous": false,
      "inputs": [
        {
          "indexed": false,
          "internalType": "address",
          "name": "previousAdmin",
          "type": "address"
        },
        {
          "indexed": false,
          "internalType": "address",
          "name": "newAdmin",
          "type": "address"
        }
      ],
      "name": "AdminChanged",
      "type": "event"
    },
    {
      "anonymous": false,
      "inputs": [
        {
          "indexed": true,
          "internalType": "address",
          "name": "beacon",
          "type": "address"
        }
      ],
      "name": "BeaconUpgraded",
      "type": "event"
    },
    {
      "anonymous": false,
      "inputs": [
        {
          "indexed": false,
          "internalType": "uint8",
          "name": "version",
          "type": "uint8"
        }
      ],
      "name": "Initialized",
      "type": "event"
    },
    {
      "anonymous": false,
      "inputs": [
        {
          "indexed": true,
          "internalType": "address",
          "name": "previousOwner",
          "type": "address"
        },
        {
          "indexed": true,
          "internalType": "address",
          "name": "newOwner",
          "type": "address"
        }
      ],
      "name": "OwnershipTransferred",
      "type": "event"
    },
    {
      "anonymous": false,
      "inputs": [
        {
          "indexed": false,
          "internalType": "address",
          "name": "account",
          "type": "address"
        }
      ],
      "name": "Paused",
      "type": "event"
    },
    {
      "anonymous": false,
      "inputs": [
        {
          "indexed": true,
          "internalType": "address",
          "name": "userAddress",
          "type": "address"
        },
        {
          "indexed": false,
          "internalType": "uint256",
          "name": "amount",
          "type": "uint256"
        }
      ],
      "name": "PrincipalClaimed",
      "type": "event"
    },
    {
      "anonymous": false,
      "inputs": [
        {
          "indexed": true,
          "internalType": "address",
          "name": "userAddress",
          "type": "address"
        },
        {
          "indexed": true,
          "internalType": "uint256",
          "name": "valueStaked",
          "type": "uint256"
        },
        {
          "indexed": true,
          "internalType": "uint256",
          "name": "duration",
          "type": "uint256"
        },
        {
          "indexed": false,
          "internalType": "uint256",
          "name": "stakingID",
          "type": "uint256"
        }
      ],
      "name": "Stake",
      "type": "event"
    },
    {
      "anonymous": false,
      "inputs": [
        {
          "indexed": true,
          "internalType": "address",
          "name": "userAddress",
          "type": "address"
        },
        {
          "indexed": true,
          "internalType": "uint256",
          "name": "reward",
          "type": "uint256"
        },
        {
          "indexed": true,
          "internalType": "uint256",
          "name": "stakingID",
          "type": "uint256"
        },
        {
          "indexed": false,
          "internalType": "address",
          "name": "tokenAddress",
          "type": "address"
        }
      ],
      "name": "StakingRewardClaimed",
      "type": "event"
    },
    {
      "anonymous": false,
      "inputs": [
        {
          "indexed": false,
          "internalType": "address",
          "name": "account",
          "type": "address"
        }
      ],
      "name": "Unpaused",
      "type": "event"
    },
    {
      "anonymous": false,
      "inputs": [
        {
          "indexed": true,
          "internalType": "address",
          "name": "userAddress",
          "type": "address"
        },
        {
          "indexed": true,
          "internalType": "uint256",
          "name": "valueStaked",
          "type": "uint256"
        },
        {
          "indexed": true,
          "internalType": "uint256",
          "name": "stakingID",
          "type": "uint256"
        }
      ],
      "name": "Unstake",
      "type": "event"
    },
    {
      "anonymous": false,
      "inputs": [
        {
          "indexed": true,
          "internalType": "address",
          "name": "implementation",
          "type": "address"
        }
      ],
      "name": "Upgraded",
      "type": "event"
    },
    {
      "inputs": [],
      "name": "allStakersList",
      "outputs": [
        {
          "internalType": "uint256",
          "name": "stakersCount",
          "type": "uint256"
        },
        {
          "internalType": "address[]",
          "name": "stakersList",
          "type": "address[]"
        }
      ],
      "stateMutability": "view",
      "type": "function"
    },
    {
      "inputs": [
        {
          "internalType": "uint256",
          "name": "_stakingID",
          "type": "uint256"
        }
      ],
      "name": "claimStakingReward",
      "outputs": [],
      "stateMutability": "nonpayable",
      "type": "function"
    },
    {
      "inputs": [
        {
          "internalType": "address",
          "name": "_userAddress",
          "type": "address"
        }
      ],
      "name": "deleteAccount",
      "outputs": [],
      "stateMutability": "nonpayable",
      "type": "function"
    },
    {
      "inputs": [
        {
          "internalType": "address[]",
          "name": "_userAddress",
          "type": "address[]"
        }
      ],
      "name": "disableAccounts",
      "outputs": [],
      "stateMutability": "nonpayable",
      "type": "function"
    },
    {
      "inputs": [
        {
          "internalType": "address[]",
          "name": "_userAddress",
          "type": "address[]"
        }
      ],
      "name": "enableAccounts",
      "outputs": [],
      "stateMutability": "nonpayable",
      "type": "function"
    },
    {
      "inputs": [],
      "name": "getDisabledAccountsList",
      "outputs": [
        {
          "internalType": "address[]",
          "name": "",
          "type": "address[]"
        }
      ],
      "stateMutability": "view",
      "type": "function"
    },
    {
      "inputs": [],
      "name": "getStakingCappings",
      "outputs": [
        {
          "internalType": "uint256",
          "name": "minStakingValue",
          "type": "uint256"
        },
        {
          "internalType": "uint256",
          "name": "stakingRewardRate",
          "type": "uint256"
        },
        {
          "internalType": "uint256",
          "name": "stakingDuration",
          "type": "uint256"
        },
        {
          "internalType": "uint256",
          "name": "stakingRewardClaimTimeLimit",
          "type": "uint256"
        }
      ],
      "stateMutability": "view",
      "type": "function"
    },
    {
      "inputs": [],
      "name": "getStakingReleaseRewardRate",
      "outputs": [
        {
          "internalType": "uint8",
          "name": "",
          "type": "uint8"
        }
      ],
      "stateMutability": "view",
      "type": "function"
    },
    {
      "inputs": [
        {
          "internalType": "uint256",
          "name": "_stakingID",
          "type": "uint256"
        }
      ],
      "name": "getStakingReward",
      "outputs": [
        {
          "internalType": "uint256",
          "name": "",
          "type": "uint256"
        }
      ],
      "stateMutability": "view",
      "type": "function"
    },
    {
      "inputs": [],
      "name": "getStakingRewardClaimTimeLimit",
      "outputs": [
        {
          "internalType": "uint256",
          "name": "",
          "type": "uint256"
        }
      ],
      "stateMutability": "view",
      "type": "function"
    },
    {
      "inputs": [
        {
          "internalType": "uint256",
          "name": "_stakingID",
          "type": "uint256"
        }
      ],
      "name": "getStakingRewardClaimTimeRemaining",
      "outputs": [
        {
          "internalType": "uint256",
          "name": "",
          "type": "uint256"
        }
      ],
      "stateMutability": "view",
      "type": "function"
    },
    {
      "inputs": [
        {
          "internalType": "uint256",
          "name": "_stakingID",
          "type": "uint256"
        }
      ],
      "name": "getStakingTimeRemaining",
      "outputs": [
        {
          "internalType": "uint256",
          "name": "",
          "type": "uint256"
        }
      ],
      "stateMutability": "view",
      "type": "function"
    },
    {
      "inputs": [],
      "name": "getTotalStakingRewardDistributed",
      "outputs": [
        {
          "internalType": "uint256",
          "name": "_tokenRewards",
          "type": "uint256"
        },
        {
          "internalType": "uint256",
          "name": "_ansudRewards",
          "type": "uint256"
        }
      ],
      "stateMutability": "view",
      "type": "function"
    },
    {
      "inputs": [],
      "name": "getTotalValueStaked",
      "outputs": [
        {
          "internalType": "uint256",
          "name": "token",
          "type": "uint256"
        },
        {
          "internalType": "uint256",
          "name": "anusd",
          "type": "uint256"
        }
      ],
      "stateMutability": "view",
      "type": "function"
    },
    {
      "inputs": [
        {
          "internalType": "address",
          "name": "_userAddress",
          "type": "address"
        }
      ],
      "name": "getUserAllStakingsRewards",
      "outputs": [
        {
          "internalType": "uint256",
          "name": "",
          "type": "uint256"
        }
      ],
      "stateMutability": "view",
      "type": "function"
    },
    {
      "inputs": [
        {
          "internalType": "address",
          "name": "_userAddress",
          "type": "address"
        }
      ],
      "name": "getUserStakingIDs",
      "outputs": [
        {
          "internalType": "uint256[]",
          "name": "",
          "type": "uint256[]"
        }
      ],
      "stateMutability": "view",
      "type": "function"
    },
    {
      "inputs": [
        {
          "internalType": "address",
          "name": "_userAddress",
          "type": "address"
        }
      ],
      "name": "getUserTotalPrincipalClaimed",
      "outputs": [
        {
          "internalType": "uint256",
          "name": "",
          "type": "uint256"
        }
      ],
      "stateMutability": "view",
      "type": "function"
    },
    {
      "inputs": [
        {
          "internalType": "address",
          "name": "_userAddress",
          "type": "address"
        }
      ],
      "name": "getUserTotalRewardClaimedANUSD",
      "outputs": [
        {
          "internalType": "uint256",
          "name": "totalRewardClaim",
          "type": "uint256"
        }
      ],
      "stateMutability": "view",
      "type": "function"
    },
    {
      "inputs": [
        {
          "internalType": "address",
          "name": "_userAddress",
          "type": "address"
        }
      ],
      "name": "getUserTotalRewardClaimedToken",
      "outputs": [
        {
          "internalType": "uint256",
          "name": "totalRewardClaim",
          "type": "uint256"
        }
      ],
      "stateMutability": "view",
      "type": "function"
    },
    {
      "inputs": [
        {
          "internalType": "address",
          "name": "_userAddress",
          "type": "address"
        }
      ],
      "name": "getUserTotalValueStaked",
      "outputs": [
        {
          "internalType": "uint256",
          "name": "token",
          "type": "uint256"
        },
        {
          "internalType": "uint256",
          "name": "anusd",
          "type": "uint256"
        }
      ],
      "stateMutability": "view",
      "type": "function"
    },
    {
      "inputs": [],
      "name": "initialize",
      "outputs": [],
      "stateMutability": "nonpayable",
      "type": "function"
    },
    {
      "inputs": [
        {
          "internalType": "address",
          "name": "_userAddress",
          "type": "address"
        }
      ],
      "name": "isAccountDisabled",
      "outputs": [
        {
          "internalType": "bool",
          "name": "",
          "type": "bool"
        }
      ],
      "stateMutability": "view",
      "type": "function"
    },
    {
      "inputs": [
        {
          "internalType": "address",
          "name": "_userAddress",
          "type": "address"
        }
      ],
      "name": "isStaked",
      "outputs": [
        {
          "internalType": "bool",
          "name": "",
          "type": "bool"
        }
      ],
      "stateMutability": "view",
      "type": "function"
    },
    {
      "inputs": [],
      "name": "owner",
      "outputs": [
        {
          "internalType": "address",
          "name": "",
          "type": "address"
        }
      ],
      "stateMutability": "view",
      "type": "function"
    },
    {
      "inputs": [],
      "name": "pause",
      "outputs": [],
      "stateMutability": "nonpayable",
      "type": "function"
    },
    {
      "inputs": [],
      "name": "paused",
      "outputs": [
        {
          "internalType": "bool",
          "name": "",
          "type": "bool"
        }
      ],
      "stateMutability": "view",
      "type": "function"
    },
    {
      "inputs": [],
      "name": "proxiableUUID",
      "outputs": [
        {
          "internalType": "bytes32",
          "name": "",
          "type": "bytes32"
        }
      ],
      "stateMutability": "view",
      "type": "function"
    },
    {
      "inputs": [],
      "name": "renounceOwnership",
      "outputs": [],
      "stateMutability": "nonpayable",
      "type": "function"
    },
    {
      "inputs": [
        {
          "internalType": "uint256",
          "name": "_value",
          "type": "uint256"
        }
      ],
      "name": "setMinStakingValue",
      "outputs": [
        {
          "internalType": "uint256",
          "name": "",
          "type": "uint256"
        }
      ],
      "stateMutability": "nonpayable",
      "type": "function"
    },
    {
      "inputs": [
        {
          "internalType": "uint256",
          "name": "_valueInDays",
          "type": "uint256"
        }
      ],
      "name": "setStakingDuration",
      "outputs": [],
      "stateMutability": "nonpayable",
      "type": "function"
    },
    {
      "inputs": [
        {
          "internalType": "uint8",
          "name": "_valueInDecimals",
          "type": "uint8"
        }
      ],
      "name": "setStakingReleaseRewardRate",
      "outputs": [],
      "stateMutability": "nonpayable",
      "type": "function"
    },
    {
      "inputs": [
        {
          "internalType": "uint256",
          "name": "_valueInDays",
          "type": "uint256"
        }
      ],
      "name": "setStakingRewardClaimTimeLimity",
      "outputs": [],
      "stateMutability": "nonpayable",
      "type": "function"
    },
    {
      "inputs": [
        {
          "internalType": "uint256",
          "name": "_valueInPer",
          "type": "uint256"
        }
      ],
      "name": "setStakingRewardRate",
      "outputs": [],
      "stateMutability": "nonpayable",
      "type": "function"
    },
    {
      "inputs": [
        {
          "internalType": "address",
          "name": "_userAddress",
          "type": "address"
        },
        {
          "internalType": "uint256",
          "name": "_valueInToken",
          "type": "uint256"
        },
        {
          "internalType": "uint256",
          "name": "_valueInANUSD",
          "type": "uint256"
        }
      ],
      "name": "stakeByAdmin",
      "outputs": [],
      "stateMutability": "nonpayable",
      "type": "function"
    },
    {
      "inputs": [
        {
          "internalType": "uint256",
          "name": "_stakingID",
          "type": "uint256"
        }
      ],
      "name": "stakeInfoMap",
      "outputs": [
        {
          "components": [
            {
              "internalType": "bool",
              "name": "isStaked",
              "type": "bool"
            },
            {
              "internalType": "address",
              "name": "owner",
              "type": "address"
            },
            {
              "internalType": "uint256",
              "name": "valueInToken",
              "type": "uint256"
            },
            {
              "internalType": "uint256",
              "name": "valueInANUSD",
              "type": "uint256"
            },
            {
              "internalType": "uint256",
              "name": "rewardRate",
              "type": "uint256"
            },
            {
              "internalType": "uint256",
              "name": "startTime",
              "type": "uint256"
            },
            {
              "internalType": "uint256",
              "name": "duration",
              "type": "uint256"
            },
            {
              "internalType": "uint256",
              "name": "rewardClaimedToken",
              "type": "uint256"
            },
            {
              "internalType": "uint256",
              "name": "rewardClaimedANUSD",
              "type": "uint256"
            },
            {
              "internalType": "uint256",
              "name": "principalClaimed",
              "type": "uint256"
            },
            {
              "internalType": "uint256",
              "name": "lastTimeRewardClaimed",
              "type": "uint256"
            }
          ],
          "internalType": "struct StakingV2Upgradeable.StakeInfo",
          "name": "",
          "type": "tuple"
        }
      ],
      "stateMutability": "view",
      "type": "function"
    },
    {
      "inputs": [
        {
          "internalType": "address",
          "name": "newOwner",
          "type": "address"
        }
      ],
      "name": "transferOwnership",
      "outputs": [],
      "stateMutability": "nonpayable",
      "type": "function"
    },
    {
      "inputs": [],
      "name": "unpause",
      "outputs": [],
      "stateMutability": "nonpayable",
      "type": "function"
    },
    {
      "inputs": [
        {
          "internalType": "address",
          "name": "newImplementation",
          "type": "address"
        }
      ],
      "name": "upgradeTo",
      "outputs": [],
      "stateMutability": "nonpayable",
      "type": "function"
    },
    {
      "inputs": [
        {
          "internalType": "address",
          "name": "newImplementation",
          "type": "address"
        },
        {
          "internalType": "bytes",
          "name": "data",
          "type": "bytes"
        }
      ],
      "name": "upgradeToAndCall",
      "outputs": [],
      "stateMutability": "payable",
      "type": "function"
    },
    {
      "inputs": [
        {
          "internalType": "address",
          "name": "_userAddress",
          "type": "address"
        }
      ],
      "name": "userAccountMap",
      "outputs": [
        {
          "components": [
            {
              "internalType": "uint256[]",
              "name": "stakingID",
              "type": "uint256[]"
            },
            {
              "internalType": "bool",
              "name": "isDisabled",
              "type": "bool"
            }
          ],
          "internalType": "struct StakingV2Upgradeable.Account",
          "name": "",
          "type": "tuple"
        }
      ],
      "stateMutability": "view",
      "type": "function"
    },
    {
      "inputs": [
        {
          "internalType": "address",
          "name": "_receiver",
          "type": "address"
        },
        {
          "internalType": "uint256",
          "name": "_value",
          "type": "uint256"
        }
      ],
      "name": "withdrawNativeFunds",
      "outputs": [
        {
          "internalType": "bool",
          "name": "",
          "type": "bool"
        }
      ],
      "stateMutability": "nonpayable",
      "type": "function"
    },
    {
      "inputs": [
        {
          "internalType": "address",
          "name": "_tokenAddress",
          "type": "address"
        },
        {
          "internalType": "address",
          "name": "_receiver",
          "type": "address"
        },
        {
          "internalType": "uint256",
          "name": "_value",
          "type": "uint256"
        }
      ],
      "name": "withdrawTokens",
      "outputs": [
        {
          "internalType": "bool",
          "name": "",
          "type": "bool"
        }
      ],
      "stateMutability": "nonpayable",
      "type": "function"
    },
    {
      "stateMutability": "payable",
      "type": "receive"
    }
  ],
  "bytecode": "0x60a06040523060805234801561001457600080fd5b506080516132d661004c6000396000818161128e015281816112ce0152818161144401528181611484015261151701526132d66000f3fe6080604052600436106102555760003560e01c806366e5e57011610139578063a40b5891116100b6578063c06a53881161007a578063c06a538814610710578063d596fe7f14610733578063d8ba90b714610753578063deede65414610773578063e3a51f581461078b578063f2fde38b146107c857600080fd5b8063a40b589114610639578063a7566b7514610676578063abfe35ad146106a3578063b7d68519146106c3578063ba4f678e146106e357600080fd5b80637ce574bf116100fd5780637ce574bf146105ad5780638129fc1c146105c75780638456cb59146105dc5780638da5cb5b146105f15780639c3fe28a1461061957600080fd5b806366e5e5701461050b5780636a8ca6911461052b5780636f51b20b1461054b578063715018a614610578578063736e9b941461058d57600080fd5b80633f4ba83a116101d25780635c975abb116101965780635c975abb1461043e5780635cbfd021146104565780635e35359e146104765780635f869714146104965780636177fd18146104cb578063628b372b146104eb57600080fd5b80633f4ba83a146103c15780634c1b64cb146103d65780634f1ef286146103f657806352d1902d1461040957806353bdadea1461041e57600080fd5b806326792aca1161021957806326792aca1461031157806328796bbd14610341578063310c9b20146103615780633659cfe6146103815780633b09098f146103a157600080fd5b806308141e4e146102615780631e6f8fe71461029457806322ae497e146102b7578063239cd4a4146102cd578063260cb4e9146102ef57600080fd5b3661025c57005b600080fd5b34801561026d57600080fd5b5061028161027c366004612b1f565b6107e8565b6040519081526020015b60405180910390f35b3480156102a057600080fd5b506101085460405160ff909116815260200161028b565b3480156102c357600080fd5b5061010554610281565b3480156102d957600080fd5b506102ed6102e8366004612b1f565b61085f565b005b3480156102fb57600080fd5b50610304610ea6565b60405161028b9190612b7c565b34801561031d57600080fd5b5061033161032c366004612ba4565b611022565b604051901515815260200161028b565b34801561034d57600080fd5b5061028161035c366004612bd0565b61106e565b34801561036d57600080fd5b506102ed61037c366004612bed565b611147565b34801561038d57600080fd5b506102ed61039c366004612bd0565b611284565b3480156103ad57600080fd5b506102ed6103bc366004612c22565b611363565b3480156103cd57600080fd5b506102ed6113ed565b3480156103e257600080fd5b506102ed6103f1366004612bd0565b6113ff565b6102ed610404366004612cde565b61143a565b34801561041557600080fd5b5061028161150a565b34801561042a57600080fd5b506102ed610439366004612c22565b6115bd565b34801561044a57600080fd5b5060335460ff16610331565b34801561046257600080fd5b506102ed610471366004612b1f565b611643565b34801561048257600080fd5b50610331610491366004612d86565b61165f565b3480156104a257600080fd5b506104b66104b1366004612bd0565b6116e9565b6040805192835260208301919091520161028b565b3480156104d757600080fd5b506103316104e6366004612bd0565b6117e5565b3480156104f757600080fd5b50610281610506366004612bd0565b6118c2565b34801561051757600080fd5b50610281610526366004612bd0565b61199f565b34801561053757600080fd5b506102ed610546366004612b1f565b611a6f565b34801561055757600080fd5b5061056b610566366004612bd0565b611a8b565b60405161028b9190612df7565b34801561058457600080fd5b506102ed611af8565b34801561059957600080fd5b506102ed6105a8366004612e0a565b611b0a565b3480156105b957600080fd5b5061010054610101546104b6565b3480156105d357600080fd5b506102ed611b29565b3480156105e857600080fd5b506102ed611c86565b3480156105fd57600080fd5b506065546040516001600160a01b03909116815260200161028b565b34801561062557600080fd5b50610281610634366004612bd0565b611c96565b34801561064557600080fd5b50610331610654366004612bd0565b6001600160a01b03166000908152610106602052604090206001015460ff1690565b34801561068257600080fd5b50610696610691366004612b1f565b611d9e565b60405161028b9190612e2d565b3480156106af57600080fd5b506102816106be366004612b1f565b611ea6565b3480156106cf57600080fd5b506102ed6106de366004612b1f565b611eb1565b3480156106ef57600080fd5b506107036106fe366004612bd0565b611ebf565b60405161028b9190612eb9565b34801561071c57600080fd5b50610725611f57565b60405161028b929190612eed565b34801561073f57600080fd5b5061028161074e366004612b1f565b611fc0565b34801561075f57600080fd5b5061028161076e366004612b1f565b611fd4565b34801561077f57600080fd5b5060fd5460fe546104b6565b34801561079757600080fd5b506101025461010354610104546101055460408051948552602085019390935291830152606082015260800161028b565b3480156107d457600080fd5b506102ed6107e3366004612bd0565b612039565b60008181526101076020526040812060098101544291901561084b57816101055482600901546108189190612f1c565b1061084057816101055482600901546108319190612f1c565b61083b9190612f2f565b610843565b60005b949350505050565b816101055482600401546108189190612f1c565b6108676120af565b6000610872826120f5565b9050600081116108c95760405162461bcd60e51b815260206004820152601d60248201527f596f752068617665206e6f207374616b696e67206f7220656e6465642e00000060448201526064015b60405180910390fd5b60006108d6600283612f42565b60fb5460008581526101076020908152604080832033808552610106909352922082549495506001600160a01b03938416949193909142916101009091041684146109735760405162461bcd60e51b815260206004820152602760248201527f536f727279207374616b696e6720696420646f656e27742062656c6f6e6773206044820152663a37903cb7ba9760c91b60648201526084016108c0565b600182015460ff16156109e05760405162461bcd60e51b815260206004820152602f60248201527f596f7572206163636f756e742069732064697361626c65642e20506c6561736560448201526e1031b7b73a30b1ba1030b236b4b71760891b60648201526084016108c0565b426101055484600901546109f49190612f1c565b10610a535760405162461bcd60e51b815260206004820152602960248201527f596f752063616e6e6f7420636c61696d20726577617264206265666f7265207460448201526834b6b2b634b6b4ba1760b91b60648201526084016108c0565b6000610b84866001600160a01b031663b70cc4c16040518163ffffffff1660e01b8152600401602060405180830381865afa158015610a96573d6000803e3d6000fd5b505050506040513d601f19601f82011682018060405250810190610aba9190612f64565b89886001600160a01b03166355a373d66040518163ffffffff1660e01b8152600401602060405180830381865afa158015610af9573d6000803e3d6000fd5b505050506040513d601f19601f82011682018060405250810190610b1d9190612f64565b896001600160a01b0316638290c4a66040518163ffffffff1660e01b8152600401602060405180830381865afa158015610b5b573d6000803e3d6000fd5b505050506040513d601f19601f82011682018060405250810190610b7f9190612f64565b61214b565b905086846008016000828254610b9a9190612f1c565b925050819055508660ff6000828254610bb39190612f1c565b9250508190555080600181518110610bcd57610bcd612f81565b6020026020010151846006016000828254610be89190612f1c565b9250508190555080600081518110610c0257610c02612f81565b6020026020010151846007016000828254610c1d9190612f1c565b909155505060098401829055805181906001908110610c3e57610c3e612f81565b60200260200101516101006000828254610c589190612f1c565b9250508190555080600081518110610c7257610c72612f81565b60200260200101516101016000828254610c8c9190612f1c565b92505081905550856001600160a01b03166355a373d66040518163ffffffff1660e01b8152600401602060405180830381865afa158015610cd1573d6000803e3d6000fd5b505050506040513d601f19601f82011682018060405250810190610cf59190612f64565b6001600160a01b031663a9059cbb8683600181518110610d1757610d17612f81565b60200260200101516040518363ffffffff1660e01b8152600401610d509291906001600160a01b03929092168252602082015260400190565b6020604051808303816000875af1158015610d6f573d6000803e3d6000fd5b505050506040513d601f19601f82011682018060405250810190610d939190612f97565b50846001600160a01b03167f2e6100b89b43378c0aeb062f2df0cfaa63e4437abab6844b441f8e47cb31bec388604051610dcf91815260200190565b60405180910390a28881600181518110610deb57610deb612f81565b6020026020010151866001600160a01b03167ffec605188cf64597b9aa9cf424a9bba4a84ffb09f9f66c932d6efa1b96fcc7e4896001600160a01b03166355a373d66040518163ffffffff1660e01b8152600401602060405180830381865afa158015610e5c573d6000803e3d6000fd5b505050506040513d601f19601f82011682018060405250810190610e809190612f64565b6040516001600160a01b03909116815260200160405180910390a4505050505050505050565b6000808052610106602090815260fc80546040805182850281018501909152818152606094937f36b574eb542e18a2932b42c3f7b99e0cccde75c2d7e80ac19800931af8e17fa29385939091830182828015610f2b57602002820191906000526020600020905b81546001600160a01b03168152600190910190602001808311610f0d575b5050505050905060008151905060008167ffffffffffffffff811115610f5357610f53612c97565b604051908082528060200260200182016040528015610f7c578160200160208202803683370190505b5090506000805b8381101561101657848181518110610f9d57610f9d612f81565b60200260200101519650610fb183886122ce565b15156001146110045760018087015460ff16151590036110045786838381518110610fde57610fde612f81565b6001600160a01b03909216602092830291909101909101528161100081612fb9565b9250505b8061100e81612fb9565b915050610f83565b50909695505050505050565b600061102c612333565b6040516001600160a01b0384169083156108fc029084906000818181858888f19350505050158015611062573d6000803e3d6000fd5b50600190505b92915050565b6001600160a01b0381166000908152610106602090815260408083208054825181850281018501909352808352909284929184918301828280156110d157602002820191906000526020600020905b8154815260200190600101908083116110bd575b505083519394506000925050505b8181101561113e576000610107600085848151811061110057611100612f81565b6020026020010151815260200190815260200160002090508060070154866111289190612f1c565b955050808061113690612fb9565b9150506110df565b50505050919050565b60fb5433906001600160a01b03166111676065546001600160a01b031690565b6001600160a01b0316826001600160a01b031614806111f85750806001600160a01b03166363d9df856040518163ffffffff1660e01b8152600401602060405180830381865afa1580156111bf573d6000803e3d6000fd5b505050506040513d601f19601f820116820180604052508101906111e39190612f64565b6001600160a01b0316826001600160a01b0316145b61124f5760405162461bcd60e51b815260206004820152602260248201527f4f6e6c79206f776e65722063616e2063616c6c20746869732066756e6374696f604482015261371760f11b60648201526084016108c0565b61127c8585606461010354876112659190612fd2565b61126f9190612f42565b610103546101045461238d565b505050505050565b6001600160a01b037f00000000000000000000000000000000000000000000000000000000000000001630036112cc5760405162461bcd60e51b81526004016108c090612fe9565b7f00000000000000000000000000000000000000000000000000000000000000006001600160a01b031661131560008051602061325a833981519152546001600160a01b031690565b6001600160a01b03161461133b5760405162461bcd60e51b81526004016108c090613035565b61134481612522565b604080516000808252602082019092526113609183919061252a565b50565b61136b612333565b60008080526101066020527f36b574eb542e18a2932b42c3f7b99e0cccde75c2d7e80ac19800931af8e17fa282825b8181101561127c578585828181106113b4576113b4612f81565b90506020020160208101906113c99190612bd0565b6001848101805460ff191690911790559350806113e581612fb9565b91505061139a565b6113f5612333565b6113fd61269a565b565b611407612333565b6001600160a01b0381166000908152610106602052604081209061142b8282612aed565b50600101805460ff1916905550565b6001600160a01b037f00000000000000000000000000000000000000000000000000000000000000001630036114825760405162461bcd60e51b81526004016108c090612fe9565b7f00000000000000000000000000000000000000000000000000000000000000006001600160a01b03166114cb60008051602061325a833981519152546001600160a01b031690565b6001600160a01b0316146114f15760405162461bcd60e51b81526004016108c090613035565b6114fa82612522565b6115068282600161252a565b5050565b6000306001600160a01b037f000000000000000000000000000000000000000000000000000000000000000016146115aa5760405162461bcd60e51b815260206004820152603860248201527f555550535570677261646561626c653a206d757374206e6f742062652063616c60448201527f6c6564207468726f7567682064656c656761746563616c6c000000000000000060648201526084016108c0565b5060008051602061325a83398151915290565b6115c5612333565b60008080526101066020527f36b574eb542e18a2932b42c3f7b99e0cccde75c2d7e80ac19800931af8e17fa282825b8181101561127c5785858281811061160e5761160e612f81565b90506020020160208101906116239190612bd0565b60018401805460ff1916905593508061163b81612fb9565b9150506115f4565b61164b612333565b6116588162015180612fd2565b6101055550565b6000611669612333565b60405163a9059cbb60e01b81526001600160a01b0384811660048301526024820184905285169063a9059cbb906044016020604051808303816000875af11580156116b8573d6000803e3d6000fd5b505050506040513d601f19601f820116820180604052508101906116dc9190612f97565b50600190505b9392505050565b6001600160a01b03811660009081526101066020908152604080832080548251818502810185019093528083528493919284929091849183018282801561174f57602002820191906000526020600020905b81548152602001906001019080831161173b575b505083519394506000925050505b818110156117dc576000610107600085848151811061177e5761177e612f81565b6020908102919091018101518252810191909152604001600020805490915060ff16156117c95760018101546117b49088612f1c565b96508060020154866117c69190612f1c565b95505b50806117d481612fb9565b91505061175d565b50505050915091565b6001600160a01b03811660009081526101066020908152604080832080548251818502810185019093528083529092849291849183018282801561184857602002820191906000526020600020905b815481526020019060010190808311611834575b505083519394506000925050505b818110156118b657610107600084838151811061187557611875612f81565b60209081029190910181015182528101919091526040016000205460ff16156118a45750600195945050505050565b806118ae81612fb9565b915050611856565b50600095945050505050565b6001600160a01b03811660009081526101066020908152604080832080548251818502810185019093528083529092849291849183018282801561192557602002820191906000526020600020905b815481526020019060010190808311611911575b505050505090506000815190506000805b82811015611995576000610107600086848151811061195757611957612f81565b60200260200101518152602001908152602001600020905080600801548361197f9190612f1c565b925050808061198d90612fb9565b915050611936565b5095945050505050565b6001600160a01b038116600090815261010660209081526040808320805482518185028101850190935280835290928492918491830182828015611a0257602002820191906000526020600020905b8154815260200190600101908083116119ee575b505083519394506000925050505b8181101561113e5760006101076000858481518110611a3157611a31612f81565b602002602001015181526020019081526020016000209050806006015486611a599190612f1c565b9550508080611a6790612fb9565b915050611a10565b611a77612333565b611a848162015180612fd2565b6101045550565b6001600160a01b03811660009081526101066020908152604091829020805483518184028101840190945280845260609392830182828015611aec57602002820191906000526020600020905b815481526020019060010190808311611ad8575b50505050509050919050565b611b00612333565b6113fd60006126ec565b611b12612333565b610108805460ff191660ff92909216919091179055565b600054610100900460ff1615808015611b495750600054600160ff909116105b80611b635750303b158015611b63575060005460ff166001145b611bc65760405162461bcd60e51b815260206004820152602e60248201527f496e697469616c697a61626c653a20636f6e747261637420697320616c72656160448201526d191e481a5b9a5d1a585b1a5e995960921b60648201526084016108c0565b6000805460ff191660011790558015611be9576000805461ff0019166101001790555b60fb80546001600160a01b0319167377daafc7411c911b869c71bf70fe36cce507845d17905560b4610103556303e9f4006101045562278d0061010555611c2e61273e565b611c3661276d565b611c3e61279c565b8015611360576000805461ff0019169055604051600181527f7f26b83ff96e1f2b6a682f133852f6798a09c465da95921460cefb38474024989060200160405180910390a150565b611c8e612333565b6113fd6127c3565b6001600160a01b03811660009081526101066020908152604080832080548251818502810185019093528083528493830182828015611cf457602002820191906000526020600020905b815481526020019060010190808311611ce0575b505050505090506000815190506000805b828160ff161015611d95576101076000858360ff1681518110611d2a57611d2a612f81565b60209081029190910181015182528101919091526040016000205460ff161515600103611d8357611d76848260ff1681518110611d6957611d69612f81565b60200260200101516120f5565b611d809083612f1c565b91505b80611d8d81613081565b915050611d05565b50949350505050565b611e0660405180610160016040528060001515815260200160006001600160a01b031681526020016000815260200160008152602001600081526020016000815260200160008152602001600081526020016000815260200160008152602001600081525090565b5060009081526101076020908152604091829020825161016081018452815460ff8116151582526001600160a01b036101009182900416938201939093526001820154938101939093526002810154606084015260038101546080840152600481015460a0840152600581015460c0840152600681015460e084015260078101549183019190915260088101546101208301526009015461014082015290565b6000611068826120f5565b611eb9612333565b61010355565b6040805180820182526060808252600060208084018290526001600160a01b038616825261010681529084902084518154928302810184018652948501828152939493909284928491840182828015611f3757602002820191906000526020600020905b815481526020019060010190808311611f23575b50505091835250506001919091015460ff16151560209091015292915050565b6000606060fc805480602002602001604051908101604052809291908181526020018280548015611fb157602002820191906000526020600020905b81546001600160a01b03168152600190910190602001808311611f93575b50505050509050805191509091565b6000611fca612333565b5061010281905590565b600081815261010760205260408120600581015460048201544292918491611ffc9190612f1c565b90508083101561202e57828260050154836004015461201b9190612f1c565b6120259190612f2f565b95945050505050565b506000949350505050565b612041612333565b6001600160a01b0381166120a65760405162461bcd60e51b815260206004820152602660248201527f4f776e61626c653a206e6577206f776e657220697320746865207a65726f206160448201526564647265737360d01b60648201526084016108c0565b611360816126ec565b60335460ff16156113fd5760405162461bcd60e51b815260206004820152601060248201526f14185d5cd8589b194e881c185d5cd95960821b60448201526064016108c0565b600081815261010760205260408120600481015442919083906121189084612f2f565b9050816007015461212d828460050154612800565b836005015484600201546121419190612f42565b61201b9190612fd2565b60408051600280825260608083018452926000929190602083019080368337019050509050858160008151811061218457612184612f81565b60200260200101906001600160a01b031690816001600160a01b03168152505083816001815181106121b8576121b8612f81565b6001600160a01b03928316602091820292909201015260405163095ea7b360e01b81528482166004820152602481018790529087169063095ea7b3906044016020604051808303816000875af1158015612216573d6000803e3d6000fd5b505050506040513d601f19601f8201168201806040525081019061223a9190612f97565b5060006001600160a01b0384166338ed1739876001853061225c426064612f1c565b6040518663ffffffff1660e01b815260040161227c9594939291906130a0565b6000604051808303816000875af115801561229b573d6000803e3d6000fd5b505050506040513d6000823e601f3d908101601f191682016040526122c391908101906130dc565b979650505050505050565b6000805b835181101561232957826001600160a01b03168482815181106122f7576122f7612f81565b60200260200101516001600160a01b031603612317576001915050611068565b8061232181612fb9565b9150506122d2565b5060009392505050565b6065546001600160a01b031633146113fd5760405162461bcd60e51b815260206004820181905260248201527f4f776e61626c653a2063616c6c6572206973206e6f7420746865206f776e657260448201526064016108c0565b60fc8054600180820183557f371f36870d18f32a11fea0f144b021c8b407bb50f8e0267c711123f454b963c090910180546001600160a01b0319166001600160a01b038916908117909155915460008381526101066020908152604080832084845261010783529083208154808701835582855292842090920184905581546001600160a81b031916610100909602959095178417815542600482018190556005820187905593810189905560028101889055600381018790556009810184905560fd80549295939493928a91908790612468908490612f1c565b925050819055508760fe60008282546124819190612f1c565b9250508190555085898b6001600160a01b03167ff556991011e831bcfac4f406d547e5e32cdd98267efab83935230d5f8d02c446876040516124c591815260200190565b60405180910390a485888b6001600160a01b03167ff556991011e831bcfac4f406d547e5e32cdd98267efab83935230d5f8d02c4468760405161250a91815260200190565b60405180910390a45060019998505050505050505050565b611360612333565b7f4910fdfa16fed3260ed0e7147f7cc6da11a60208b5b9406d12a635614ffd91435460ff16156125625761255d83612816565b505050565b826001600160a01b03166352d1902d6040518163ffffffff1660e01b8152600401602060405180830381865afa9250505080156125bc575060408051601f3d908101601f191682019092526125b991810190613182565b60015b61261f5760405162461bcd60e51b815260206004820152602e60248201527f45524331393637557067726164653a206e657720696d706c656d656e7461746960448201526d6f6e206973206e6f74205555505360901b60648201526084016108c0565b60008051602061325a833981519152811461268e5760405162461bcd60e51b815260206004820152602960248201527f45524331393637557067726164653a20756e737570706f727465642070726f786044820152681a58589b195555525160ba1b60648201526084016108c0565b5061255d8383836128b2565b6126a26128dd565b6033805460ff191690557f5db9ee0a495bf2e6ff9c91a7834c1ba4fdd244a5e8aa4e537bd38aeae4b073aa335b6040516001600160a01b03909116815260200160405180910390a1565b606580546001600160a01b038381166001600160a01b0319831681179093556040519116919082907f8be0079c531659141344cd1fd0a4f28419497f9722a3daafe3b4186f6b6457e090600090a35050565b600054610100900460ff166127655760405162461bcd60e51b81526004016108c09061319b565b6113fd612926565b600054610100900460ff166127945760405162461bcd60e51b81526004016108c09061319b565b6113fd612959565b600054610100900460ff166113fd5760405162461bcd60e51b81526004016108c09061319b565b6127cb6120af565b6033805460ff191660011790557f62e78cea01bee320cd4e420270b5ea74000d11b0c9f74754ebdbfc544b05a2586126cf3390565b600081831061280f57816116e2565b5090919050565b6001600160a01b0381163b6128835760405162461bcd60e51b815260206004820152602d60248201527f455243313936373a206e657720696d706c656d656e746174696f6e206973206e60448201526c1bdd08184818dbdb9d1c9858dd609a1b60648201526084016108c0565b60008051602061325a83398151915280546001600160a01b0319166001600160a01b0392909216919091179055565b6128bb83612989565b6000825111806128c85750805b1561255d576128d783836129c9565b50505050565b60335460ff166113fd5760405162461bcd60e51b815260206004820152601460248201527314185d5cd8589b194e881b9bdd081c185d5cd95960621b60448201526064016108c0565b600054610100900460ff1661294d5760405162461bcd60e51b81526004016108c09061319b565b6033805460ff19169055565b600054610100900460ff166129805760405162461bcd60e51b81526004016108c09061319b565b6113fd336126ec565b61299281612816565b6040516001600160a01b038216907fbc7cd75a20ee27fd9adebab32041f755214dbc6bffa90cc0225b39da2e5c2d3b90600090a250565b60606001600160a01b0383163b612a315760405162461bcd60e51b815260206004820152602660248201527f416464726573733a2064656c65676174652063616c6c20746f206e6f6e2d636f6044820152651b9d1c9858dd60d21b60648201526084016108c0565b600080846001600160a01b031684604051612a4c919061320a565b600060405180830381855af49150503d8060008114612a87576040519150601f19603f3d011682016040523d82523d6000602084013e612a8c565b606091505b5091509150612025828260405180606001604052806027815260200161327a6027913960608315612abe5750816116e2565b6116e28383815115612ad35781518083602001fd5b8060405162461bcd60e51b81526004016108c09190613226565b508054600082559060005260206000209081019061136091905b80821115612b1b5760008155600101612b07565b5090565b600060208284031215612b3157600080fd5b5035919050565b600081518084526020808501945080840160005b83811015612b715781516001600160a01b031687529582019590820190600101612b4c565b509495945050505050565b6020815260006116e26020830184612b38565b6001600160a01b038116811461136057600080fd5b60008060408385031215612bb757600080fd5b8235612bc281612b8f565b946020939093013593505050565b600060208284031215612be257600080fd5b81356116e281612b8f565b600080600060608486031215612c0257600080fd5b8335612c0d81612b8f565b95602085013595506040909401359392505050565b60008060208385031215612c3557600080fd5b823567ffffffffffffffff80821115612c4d57600080fd5b818501915085601f830112612c6157600080fd5b813581811115612c7057600080fd5b8660208260051b8501011115612c8557600080fd5b60209290920196919550909350505050565b634e487b7160e01b600052604160045260246000fd5b604051601f8201601f1916810167ffffffffffffffff81118282101715612cd657612cd6612c97565b604052919050565b60008060408385031215612cf157600080fd5b8235612cfc81612b8f565b915060208381013567ffffffffffffffff80821115612d1a57600080fd5b818601915086601f830112612d2e57600080fd5b813581811115612d4057612d40612c97565b612d52601f8201601f19168501612cad565b91508082528784828501011115612d6857600080fd5b80848401858401376000848284010152508093505050509250929050565b600080600060608486031215612d9b57600080fd5b8335612da681612b8f565b92506020840135612db681612b8f565b929592945050506040919091013590565b600081518084526020808501945080840160005b83811015612b7157815187529582019590820190600101612ddb565b6020815260006116e26020830184612dc7565b600060208284031215612e1c57600080fd5b813560ff811681146116e257600080fd5b81511515815261016081016020830151612e5260208401826001600160a01b03169052565b5060408301516040830152606083015160608301526080830151608083015260a083015160a083015260c083015160c083015260e083015160e083015261010080840151818401525061012080840151818401525061014080840151818401525092915050565b602081526000825160406020840152612ed56060840182612dc7565b90506020840151151560408401528091505092915050565b8281526040602082015260006108436040830184612b38565b634e487b7160e01b600052601160045260246000fd5b8082018082111561106857611068612f06565b8181038181111561106857611068612f06565b600082612f5f57634e487b7160e01b600052601260045260246000fd5b500490565b600060208284031215612f7657600080fd5b81516116e281612b8f565b634e487b7160e01b600052603260045260246000fd5b600060208284031215612fa957600080fd5b815180151581146116e257600080fd5b600060018201612fcb57612fcb612f06565b5060010190565b808202811582820484141761106857611068612f06565b6020808252602c908201527f46756e6374696f6e206d7573742062652063616c6c6564207468726f7567682060408201526b19195b1959d85d1958d85b1b60a21b606082015260800190565b6020808252602c908201527f46756e6374696f6e206d7573742062652063616c6c6564207468726f7567682060408201526b6163746976652070726f787960a01b606082015260800190565b600060ff821660ff810361309757613097612f06565b60010192915050565b85815284602082015260a0604082015260006130bf60a0830186612b38565b6001600160a01b0394909416606083015250608001529392505050565b600060208083850312156130ef57600080fd5b825167ffffffffffffffff8082111561310757600080fd5b818501915085601f83011261311b57600080fd5b81518181111561312d5761312d612c97565b8060051b915061313e848301612cad565b818152918301840191848101908884111561315857600080fd5b938501935b838510156131765784518252938501939085019061315d565b98975050505050505050565b60006020828403121561319457600080fd5b5051919050565b6020808252602b908201527f496e697469616c697a61626c653a20636f6e7472616374206973206e6f74206960408201526a6e697469616c697a696e6760a81b606082015260800190565b60005b838110156132015781810151838201526020016131e9565b50506000910152565b6000825161321c8184602087016131e6565b9190910192915050565b60208152600082518060208401526132458160408501602087016131e6565b601f01601f1916919091016040019291505056fe360894a13ba1a3210667c828492db98dca3e2076cc3735a920a3ca505d382bbc416464726573733a206c6f772d6c6576656c2064656c65676174652063616c6c206661696c6564a2646970667358221220c75a499371f0bb1dc17bf31c8244998ef88967a401722a222326dcb000b0074664736f6c63430008110033",
  "linkReferences": {},
  "deployedLinkReferences": {}
}