{
  "_format": "hh-sol-artifact-1",
  "contractName": "ANUSDUpgradeable",
  "sourceName": "contracts/anusd_upgradeable.sol",
  "abi": [
    {
      "inputs": [],
      "stateMutability": "nonpayable",
      "type": "constructor"
    },
    {
      "anonymous": false,
      "inputs": [
        {
          "indexed": false,
          "internalType": "address",
          "name": "previousAdmin",
          "type": "address"
        },
        {
          "indexed": false,
          "internalType": "address",
          "name": "newAdmin",
          "type": "address"
        }
      ],
      "name": "AdminChanged",
      "type": "event"
    },
    {
      "anonymous": false,
      "inputs": [
        {
          "indexed": true,
          "internalType": "address",
          "name": "owner",
          "type": "address"
        },
        {
          "indexed": true,
          "internalType": "address",
          "name": "spender",
          "type": "address"
        },
        {
          "indexed": false,
          "internalType": "uint256",
          "name": "value",
          "type": "uint256"
        }
      ],
      "name": "Approval",
      "type": "event"
    },
    {
      "anonymous": false,
      "inputs": [
        {
          "indexed": true,
          "internalType": "address",
          "name": "beacon",
          "type": "address"
        }
      ],
      "name": "BeaconUpgraded",
      "type": "event"
    },
    {
      "anonymous": false,
      "inputs": [
        {
          "indexed": false,
          "internalType": "uint8",
          "name": "version",
          "type": "uint8"
        }
      ],
      "name": "Initialized",
      "type": "event"
    },
    {
      "anonymous": false,
      "inputs": [
        {
          "indexed": true,
          "internalType": "address",
          "name": "previousOwner",
          "type": "address"
        },
        {
          "indexed": true,
          "internalType": "address",
          "name": "newOwner",
          "type": "address"
        }
      ],
      "name": "OwnershipTransferred",
      "type": "event"
    },
    {
      "anonymous": false,
      "inputs": [
        {
          "indexed": false,
          "internalType": "address",
          "name": "account",
          "type": "address"
        }
      ],
      "name": "Paused",
      "type": "event"
    },
    {
      "anonymous": false,
      "inputs": [
        {
          "indexed": true,
          "internalType": "address",
          "name": "from",
          "type": "address"
        },
        {
          "indexed": true,
          "internalType": "address",
          "name": "to",
          "type": "address"
        },
        {
          "indexed": false,
          "internalType": "uint256",
          "name": "value",
          "type": "uint256"
        }
      ],
      "name": "Transfer",
      "type": "event"
    },
    {
      "anonymous": false,
      "inputs": [
        {
          "indexed": false,
          "internalType": "address",
          "name": "account",
          "type": "address"
        }
      ],
      "name": "Unpaused",
      "type": "event"
    },
    {
      "anonymous": false,
      "inputs": [
        {
          "indexed": true,
          "internalType": "address",
          "name": "implementation",
          "type": "address"
        }
      ],
      "name": "Upgraded",
      "type": "event"
    },
    {
      "inputs": [
        {
          "internalType": "address",
          "name": "owner",
          "type": "address"
        },
        {
          "internalType": "address",
          "name": "spender",
          "type": "address"
        }
      ],
      "name": "allowance",
      "outputs": [
        {
          "internalType": "uint256",
          "name": "",
          "type": "uint256"
        }
      ],
      "stateMutability": "view",
      "type": "function"
    },
    {
      "inputs": [
        {
          "internalType": "address",
          "name": "spender",
          "type": "address"
        },
        {
          "internalType": "uint256",
          "name": "amount",
          "type": "uint256"
        }
      ],
      "name": "approve",
      "outputs": [
        {
          "internalType": "bool",
          "name": "",
          "type": "bool"
        }
      ],
      "stateMutability": "nonpayable",
      "type": "function"
    },
    {
      "inputs": [
        {
          "internalType": "address",
          "name": "account",
          "type": "address"
        }
      ],
      "name": "balanceOf",
      "outputs": [
        {
          "internalType": "uint256",
          "name": "",
          "type": "uint256"
        }
      ],
      "stateMutability": "view",
      "type": "function"
    },
    {
      "inputs": [
        {
          "internalType": "uint256",
          "name": "amount",
          "type": "uint256"
        }
      ],
      "name": "burn",
      "outputs": [],
      "stateMutability": "nonpayable",
      "type": "function"
    },
    {
      "inputs": [
        {
          "internalType": "address",
          "name": "account",
          "type": "address"
        },
        {
          "internalType": "uint256",
          "name": "amount",
          "type": "uint256"
        }
      ],
      "name": "burnFrom",
      "outputs": [],
      "stateMutability": "nonpayable",
      "type": "function"
    },
    {
      "inputs": [],
      "name": "decimals",
      "outputs": [
        {
          "internalType": "uint8",
          "name": "",
          "type": "uint8"
        }
      ],
      "stateMutability": "view",
      "type": "function"
    },
    {
      "inputs": [
        {
          "internalType": "address",
          "name": "spender",
          "type": "address"
        },
        {
          "internalType": "uint256",
          "name": "subtractedValue",
          "type": "uint256"
        }
      ],
      "name": "decreaseAllowance",
      "outputs": [
        {
          "internalType": "bool",
          "name": "",
          "type": "bool"
        }
      ],
      "stateMutability": "nonpayable",
      "type": "function"
    },
    {
      "inputs": [
        {
          "internalType": "address",
          "name": "token",
          "type": "address"
        },
        {
          "internalType": "uint256",
          "name": "amount",
          "type": "uint256"
        }
      ],
      "name": "flashFee",
      "outputs": [
        {
          "internalType": "uint256",
          "name": "",
          "type": "uint256"
        }
      ],
      "stateMutability": "view",
      "type": "function"
    },
    {
      "inputs": [
        {
          "internalType": "contract IERC3156FlashBorrowerUpgradeable",
          "name": "receiver",
          "type": "address"
        },
        {
          "internalType": "address",
          "name": "token",
          "type": "address"
        },
        {
          "internalType": "uint256",
          "name": "amount",
          "type": "uint256"
        },
        {
          "internalType": "bytes",
          "name": "data",
          "type": "bytes"
        }
      ],
      "name": "flashLoan",
      "outputs": [
        {
          "internalType": "bool",
          "name": "",
          "type": "bool"
        }
      ],
      "stateMutability": "nonpayable",
      "type": "function"
    },
    {
      "inputs": [
        {
          "internalType": "address",
          "name": "spender",
          "type": "address"
        },
        {
          "internalType": "uint256",
          "name": "addedValue",
          "type": "uint256"
        }
      ],
      "name": "increaseAllowance",
      "outputs": [
        {
          "internalType": "bool",
          "name": "",
          "type": "bool"
        }
      ],
      "stateMutability": "nonpayable",
      "type": "function"
    },
    {
      "inputs": [],
      "name": "initialize",
      "outputs": [],
      "stateMutability": "nonpayable",
      "type": "function"
    },
    {
      "inputs": [
        {
          "internalType": "address",
          "name": "token",
          "type": "address"
        }
      ],
      "name": "maxFlashLoan",
      "outputs": [
        {
          "internalType": "uint256",
          "name": "",
          "type": "uint256"
        }
      ],
      "stateMutability": "view",
      "type": "function"
    },
    {
      "inputs": [
        {
          "internalType": "address",
          "name": "to",
          "type": "address"
        },
        {
          "internalType": "uint256",
          "name": "amount",
          "type": "uint256"
        }
      ],
      "name": "mint",
      "outputs": [],
      "stateMutability": "nonpayable",
      "type": "function"
    },
    {
      "inputs": [],
      "name": "name",
      "outputs": [
        {
          "internalType": "string",
          "name": "",
          "type": "string"
        }
      ],
      "stateMutability": "view",
      "type": "function"
    },
    {
      "inputs": [],
      "name": "owner",
      "outputs": [
        {
          "internalType": "address",
          "name": "",
          "type": "address"
        }
      ],
      "stateMutability": "view",
      "type": "function"
    },
    {
      "inputs": [],
      "name": "pause",
      "outputs": [],
      "stateMutability": "nonpayable",
      "type": "function"
    },
    {
      "inputs": [],
      "name": "paused",
      "outputs": [
        {
          "internalType": "bool",
          "name": "",
          "type": "bool"
        }
      ],
      "stateMutability": "view",
      "type": "function"
    },
    {
      "inputs": [],
      "name": "proxiableUUID",
      "outputs": [
        {
          "internalType": "bytes32",
          "name": "",
          "type": "bytes32"
        }
      ],
      "stateMutability": "view",
      "type": "function"
    },
    {
      "inputs": [],
      "name": "renounceOwnership",
      "outputs": [],
      "stateMutability": "nonpayable",
      "type": "function"
    },
    {
      "inputs": [],
      "name": "symbol",
      "outputs": [
        {
          "internalType": "string",
          "name": "",
          "type": "string"
        }
      ],
      "stateMutability": "view",
      "type": "function"
    },
    {
      "inputs": [],
      "name": "totalSupply",
      "outputs": [
        {
          "internalType": "uint256",
          "name": "",
          "type": "uint256"
        }
      ],
      "stateMutability": "view",
      "type": "function"
    },
    {
      "inputs": [
        {
          "internalType": "address",
          "name": "to",
          "type": "address"
        },
        {
          "internalType": "uint256",
          "name": "amount",
          "type": "uint256"
        }
      ],
      "name": "transfer",
      "outputs": [
        {
          "internalType": "bool",
          "name": "",
          "type": "bool"
        }
      ],
      "stateMutability": "nonpayable",
      "type": "function"
    },
    {
      "inputs": [
        {
          "internalType": "address",
          "name": "from",
          "type": "address"
        },
        {
          "internalType": "address",
          "name": "to",
          "type": "address"
        },
        {
          "internalType": "uint256",
          "name": "amount",
          "type": "uint256"
        }
      ],
      "name": "transferFrom",
      "outputs": [
        {
          "internalType": "bool",
          "name": "",
          "type": "bool"
        }
      ],
      "stateMutability": "nonpayable",
      "type": "function"
    },
    {
      "inputs": [
        {
          "internalType": "address",
          "name": "newOwner",
          "type": "address"
        }
      ],
      "name": "transferOwnership",
      "outputs": [],
      "stateMutability": "nonpayable",
      "type": "function"
    },
    {
      "inputs": [],
      "name": "unpause",
      "outputs": [],
      "stateMutability": "nonpayable",
      "type": "function"
    },
    {
      "inputs": [
        {
          "internalType": "address",
          "name": "newImplementation",
          "type": "address"
        }
      ],
      "name": "upgradeTo",
      "outputs": [],
      "stateMutability": "nonpayable",
      "type": "function"
    },
    {
      "inputs": [
        {
          "internalType": "address",
          "name": "newImplementation",
          "type": "address"
        },
        {
          "internalType": "bytes",
          "name": "data",
          "type": "bytes"
        }
      ],
      "name": "upgradeToAndCall",
      "outputs": [],
      "stateMutability": "payable",
      "type": "function"
    }
  ],
  "bytecode": "0x60a06040523060805234801561001457600080fd5b5061001d610022565b6100e2565b600054610100900460ff161561008e5760405162461bcd60e51b815260206004820152602760248201527f496e697469616c697a61626c653a20636f6e747261637420697320696e697469604482015266616c697a696e6760c81b606482015260840160405180910390fd5b60005460ff90811610156100e0576000805460ff191660ff9081179091556040519081527f7f26b83ff96e1f2b6a682f133852f6798a09c465da95921460cefb38474024989060200160405180910390a15b565b6080516121796200011a600039600081816105bc01528181610605015281816106f80152818161073801526107c701526121796000f3fe60806040526004361061019c5760003560e01c80635cffe9de116100ec5780638da5cb5b1161008a578063a9059cbb11610064578063a9059cbb14610460578063d9d98ce414610480578063dd62ed3e146104a0578063f2fde38b146104c057600080fd5b80638da5cb5b1461040357806395d89b411461042b578063a457c2d71461044057600080fd5b8063715018a6116100c6578063715018a6146103a457806379cc6790146103b95780638129fc1c146103d95780638456cb59146103ee57600080fd5b80635cffe9de1461032e578063613255ab1461034e57806370a082311461036e57600080fd5b8063395093511161015957806342966c681161013357806342966c68146102ce5780634f1ef286146102ee57806352d1902d146103015780635c975abb1461031657600080fd5b806339509351146102795780633f4ba83a1461029957806340c10f19146102ae57600080fd5b806306fdde03146101a1578063095ea7b3146101cc57806318160ddd146101fc57806323b872dd1461021b578063313ce5671461023b5780633659cfe614610257575b600080fd5b3480156101ad57600080fd5b506101b66104e0565b6040516101c39190611a5d565b60405180910390f35b3480156101d857600080fd5b506101ec6101e7366004611aa5565b610572565b60405190151581526020016101c3565b34801561020857600080fd5b506035545b6040519081526020016101c3565b34801561022757600080fd5b506101ec610236366004611ad1565b61058c565b34801561024757600080fd5b50604051601281526020016101c3565b34801561026357600080fd5b50610277610272366004611b12565b6105b2565b005b34801561028557600080fd5b506101ec610294366004611aa5565b61069a565b3480156102a557600080fd5b506102776106bc565b3480156102ba57600080fd5b506102776102c9366004611aa5565b6106ce565b3480156102da57600080fd5b506102776102e9366004611b2f565b6106e4565b6102776102fc366004611b5e565b6106ee565b34801561030d57600080fd5b5061020d6107ba565b34801561032257600080fd5b5060975460ff166101ec565b34801561033a57600080fd5b506101ec610349366004611c22565b61086d565b34801561035a57600080fd5b5061020d610369366004611b12565b610a51565b34801561037a57600080fd5b5061020d610389366004611b12565b6001600160a01b031660009081526033602052604090205490565b3480156103b057600080fd5b50610277610a79565b3480156103c557600080fd5b506102776103d4366004611aa5565b610a8b565b3480156103e557600080fd5b50610277610aa0565b3480156103fa57600080fd5b50610277610c4d565b34801561040f57600080fd5b5060c9546040516001600160a01b0390911681526020016101c3565b34801561043757600080fd5b506101b6610c5d565b34801561044c57600080fd5b506101ec61045b366004611aa5565b610c6c565b34801561046c57600080fd5b506101ec61047b366004611aa5565b610cf2565b34801561048c57600080fd5b5061020d61049b366004611aa5565b610d00565b3480156104ac57600080fd5b5061020d6104bb366004611cc1565b610d61565b3480156104cc57600080fd5b506102776104db366004611b12565b610d8c565b6060603680546104ef90611cfa565b80601f016020809104026020016040519081016040528092919081815260200182805461051b90611cfa565b80156105685780601f1061053d57610100808354040283529160200191610568565b820191906000526020600020905b81548152906001019060200180831161054b57829003601f168201915b5050505050905090565b600033610580818585610e02565b60019150505b92915050565b60003361059a858285610f26565b6105a5858585610fa0565b60019150505b9392505050565b6001600160a01b037f00000000000000000000000000000000000000000000000000000000000000001630036106035760405162461bcd60e51b81526004016105fa90611d34565b60405180910390fd5b7f00000000000000000000000000000000000000000000000000000000000000006001600160a01b031661064c6000805160206120fd833981519152546001600160a01b031690565b6001600160a01b0316146106725760405162461bcd60e51b81526004016105fa90611d80565b61067b81611156565b604080516000808252602082019092526106979183919061115e565b50565b6000336105808185856106ad8383610d61565b6106b79190611de2565b610e02565b6106c46112ce565b6106cc611328565b565b6106d66112ce565b6106e0828261137a565b5050565b6106973382611447565b6001600160a01b037f00000000000000000000000000000000000000000000000000000000000000001630036107365760405162461bcd60e51b81526004016105fa90611d34565b7f00000000000000000000000000000000000000000000000000000000000000006001600160a01b031661077f6000805160206120fd833981519152546001600160a01b031690565b6001600160a01b0316146107a55760405162461bcd60e51b81526004016105fa90611d80565b6107ae82611156565b6106e08282600161115e565b6000306001600160a01b037f0000000000000000000000000000000000000000000000000000000000000000161461085a5760405162461bcd60e51b815260206004820152603860248201527f555550535570677261646561626c653a206d757374206e6f742062652063616c60448201527f6c6564207468726f7567682064656c656761746563616c6c000000000000000060648201526084016105fa565b506000805160206120fd83398151915290565b600061087885610a51565b8411156108db5760405162461bcd60e51b815260206004820152602b60248201527f4552433230466c6173684d696e743a20616d6f756e742065786365656473206d60448201526a30bc233630b9b42637b0b760a91b60648201526084016105fa565b60006108e78686610d00565b90506108f3878661137a565b6040516323e30c8b60e01b81527f439148f0bbc682ca079e46d6e2c2f0c1e3b820f1a291b069d8882abf8cf18dd9906001600160a01b038916906323e30c8b9061094b9033908b908b9088908c908c90600401611df5565b6020604051808303816000875af115801561096a573d6000803e3d6000fd5b505050506040513d601f19601f8201168201806040525081019061098e9190611e51565b146109e75760405162461bcd60e51b8152602060048201526024808201527f4552433230466c6173684d696e743a20696e76616c69642072657475726e2076604482015263616c756560e01b60648201526084016105fa565b60006109fd88306109f8858a611de2565b610f26565b811580610a1157506001600160a01b038116155b15610a2e57610a2988610a248489611de2565b611447565b610a43565b610a388887611447565b610a43888284610fa0565b506001979650505050505050565b60006001600160a01b0382163014610a6a576000610586565b60355461058690600019611e6a565b610a816112ce565b6106cc6000611587565b610a96823383610f26565b6106e08282611447565b600054610100900460ff1615808015610ac05750600054600160ff909116105b80610ada5750303b158015610ada575060005460ff166001145b610b3d5760405162461bcd60e51b815260206004820152602e60248201527f496e697469616c697a61626c653a20636f6e747261637420697320616c72656160448201526d191e481a5b9a5d1a585b1a5e995960921b60648201526084016105fa565b6000805460ff191660011790558015610b60576000805461ff0019166101001790555b610ba660405180604001604052806006815260200165185b8b9d5cd960d21b81525060405180604001604052806006815260200165185b8b9d5cd960d21b8152506115d9565b610bae61160a565b610bb6611631565b610bbe611660565b610bc661160a565b610bce61160a565b610c0573f3ba579d4afd4dad8a8c2d1bcbdd1405688e492f610bf26012600a611f61565b610c0090630c845880611f70565b61137a565b8015610697576000805461ff0019169055604051600181527f7f26b83ff96e1f2b6a682f133852f6798a09c465da95921460cefb38474024989060200160405180910390a150565b610c556112ce565b6106cc61168f565b6060603780546104ef90611cfa565b60003381610c7a8286610d61565b905083811015610cda5760405162461bcd60e51b815260206004820152602560248201527f45524332303a2064656372656173656420616c6c6f77616e63652062656c6f77604482015264207a65726f60d81b60648201526084016105fa565b610ce78286868403610e02565b506001949350505050565b600033610580818585610fa0565b60006001600160a01b0383163014610d5a5760405162461bcd60e51b815260206004820152601b60248201527f4552433230466c6173684d696e743a2077726f6e6720746f6b656e000000000060448201526064016105fa565b60006105ab565b6001600160a01b03918216600090815260346020908152604080832093909416825291909152205490565b610d946112ce565b6001600160a01b038116610df95760405162461bcd60e51b815260206004820152602660248201527f4f776e61626c653a206e6577206f776e657220697320746865207a65726f206160448201526564647265737360d01b60648201526084016105fa565b61069781611587565b6001600160a01b038316610e645760405162461bcd60e51b8152602060048201526024808201527f45524332303a20617070726f76652066726f6d20746865207a65726f206164646044820152637265737360e01b60648201526084016105fa565b6001600160a01b038216610ec55760405162461bcd60e51b815260206004820152602260248201527f45524332303a20617070726f766520746f20746865207a65726f206164647265604482015261737360f01b60648201526084016105fa565b6001600160a01b0383811660008181526034602090815260408083209487168084529482529182902085905590518481527f8c5be1e5ebec7d5bd14f71427d1e84f3dd0314c0f7b2291e5b200ac8c7c3b925910160405180910390a3505050565b6000610f328484610d61565b90506000198114610f9a5781811015610f8d5760405162461bcd60e51b815260206004820152601d60248201527f45524332303a20696e73756666696369656e7420616c6c6f77616e636500000060448201526064016105fa565b610f9a8484848403610e02565b50505050565b6001600160a01b0383166110045760405162461bcd60e51b815260206004820152602560248201527f45524332303a207472616e736665722066726f6d20746865207a65726f206164604482015264647265737360d81b60648201526084016105fa565b6001600160a01b0382166110665760405162461bcd60e51b815260206004820152602360248201527f45524332303a207472616e7366657220746f20746865207a65726f206164647260448201526265737360e81b60648201526084016105fa565b6110718383836116cc565b6001600160a01b038316600090815260336020526040902054818110156110e95760405162461bcd60e51b815260206004820152602660248201527f45524332303a207472616e7366657220616d6f756e7420657863656564732062604482015265616c616e636560d01b60648201526084016105fa565b6001600160a01b0380851660008181526033602052604080822086860390559286168082529083902080548601905591517fddf252ad1be2c89b69c2b068fc378daa952ba7f163c4a11628f55a4df523b3ef906111499086815260200190565b60405180910390a3610f9a565b6106976112ce565b7f4910fdfa16fed3260ed0e7147f7cc6da11a60208b5b9406d12a635614ffd91435460ff161561119657611191836116d4565b505050565b826001600160a01b03166352d1902d6040518163ffffffff1660e01b8152600401602060405180830381865afa9250505080156111f0575060408051601f3d908101601f191682019092526111ed91810190611e51565b60015b6112535760405162461bcd60e51b815260206004820152602e60248201527f45524331393637557067726164653a206e657720696d706c656d656e7461746960448201526d6f6e206973206e6f74205555505360901b60648201526084016105fa565b6000805160206120fd83398151915281146112c25760405162461bcd60e51b815260206004820152602960248201527f45524331393637557067726164653a20756e737570706f727465642070726f786044820152681a58589b195555525160ba1b60648201526084016105fa565b50611191838383611770565b60c9546001600160a01b031633146106cc5760405162461bcd60e51b815260206004820181905260248201527f4f776e61626c653a2063616c6c6572206973206e6f7420746865206f776e657260448201526064016105fa565b611330611795565b6097805460ff191690557f5db9ee0a495bf2e6ff9c91a7834c1ba4fdd244a5e8aa4e537bd38aeae4b073aa335b6040516001600160a01b03909116815260200160405180910390a1565b6001600160a01b0382166113d05760405162461bcd60e51b815260206004820152601f60248201527f45524332303a206d696e7420746f20746865207a65726f20616464726573730060448201526064016105fa565b6113dc600083836116cc565b80603560008282546113ee9190611de2565b90915550506001600160a01b0382166000818152603360209081526040808320805486019055518481527fddf252ad1be2c89b69c2b068fc378daa952ba7f163c4a11628f55a4df523b3ef910160405180910390a35050565b6001600160a01b0382166114a75760405162461bcd60e51b815260206004820152602160248201527f45524332303a206275726e2066726f6d20746865207a65726f206164647265736044820152607360f81b60648201526084016105fa565b6114b3826000836116cc565b6001600160a01b038216600090815260336020526040902054818110156115275760405162461bcd60e51b815260206004820152602260248201527f45524332303a206275726e20616d6f756e7420657863656564732062616c616e604482015261636560f01b60648201526084016105fa565b6001600160a01b03831660008181526033602090815260408083208686039055603580548790039055518581529192917fddf252ad1be2c89b69c2b068fc378daa952ba7f163c4a11628f55a4df523b3ef910160405180910390a3505050565b60c980546001600160a01b038381166001600160a01b0319831681179093556040519116919082907f8be0079c531659141344cd1fd0a4f28419497f9722a3daafe3b4186f6b6457e090600090a35050565b600054610100900460ff166116005760405162461bcd60e51b81526004016105fa90611f87565b6106e082826117de565b600054610100900460ff166106cc5760405162461bcd60e51b81526004016105fa90611f87565b600054610100900460ff166116585760405162461bcd60e51b81526004016105fa90611f87565b6106cc61181e565b600054610100900460ff166116875760405162461bcd60e51b81526004016105fa90611f87565b6106cc611851565b611697611881565b6097805460ff191660011790557f62e78cea01bee320cd4e420270b5ea74000d11b0c9f74754ebdbfc544b05a25861135d3390565b611191611881565b6001600160a01b0381163b6117415760405162461bcd60e51b815260206004820152602d60248201527f455243313936373a206e657720696d706c656d656e746174696f6e206973206e60448201526c1bdd08184818dbdb9d1c9858dd609a1b60648201526084016105fa565b6000805160206120fd83398151915280546001600160a01b0319166001600160a01b0392909216919091179055565b611779836118c7565b6000825111806117865750805b1561119157610f9a8383611907565b60975460ff166106cc5760405162461bcd60e51b815260206004820152601460248201527314185d5cd8589b194e881b9bdd081c185d5cd95960621b60448201526064016105fa565b600054610100900460ff166118055760405162461bcd60e51b81526004016105fa90611f87565b60366118118382612020565b5060376111918282612020565b600054610100900460ff166118455760405162461bcd60e51b81526004016105fa90611f87565b6097805460ff19169055565b600054610100900460ff166118785760405162461bcd60e51b81526004016105fa90611f87565b6106cc33611587565b60975460ff16156106cc5760405162461bcd60e51b815260206004820152601060248201526f14185d5cd8589b194e881c185d5cd95960821b60448201526064016105fa565b6118d0816116d4565b6040516001600160a01b038216907fbc7cd75a20ee27fd9adebab32041f755214dbc6bffa90cc0225b39da2e5c2d3b90600090a250565b60606001600160a01b0383163b61196f5760405162461bcd60e51b815260206004820152602660248201527f416464726573733a2064656c65676174652063616c6c20746f206e6f6e2d636f6044820152651b9d1c9858dd60d21b60648201526084016105fa565b600080846001600160a01b03168460405161198a91906120e0565b600060405180830381855af49150503d80600081146119c5576040519150601f19603f3d011682016040523d82523d6000602084013e6119ca565b606091505b50915091506119f2828260405180606001604052806027815260200161211d602791396119fb565b95945050505050565b60608315611a0a5750816105ab565b6105ab8383815115611a1f5781518083602001fd5b8060405162461bcd60e51b81526004016105fa9190611a5d565b60005b83811015611a54578181015183820152602001611a3c565b50506000910152565b6020815260008251806020840152611a7c816040850160208701611a39565b601f01601f19169190910160400192915050565b6001600160a01b038116811461069757600080fd5b60008060408385031215611ab857600080fd5b8235611ac381611a90565b946020939093013593505050565b600080600060608486031215611ae657600080fd5b8335611af181611a90565b92506020840135611b0181611a90565b929592945050506040919091013590565b600060208284031215611b2457600080fd5b81356105ab81611a90565b600060208284031215611b4157600080fd5b5035919050565b634e487b7160e01b600052604160045260246000fd5b60008060408385031215611b7157600080fd5b8235611b7c81611a90565b9150602083013567ffffffffffffffff80821115611b9957600080fd5b818501915085601f830112611bad57600080fd5b813581811115611bbf57611bbf611b48565b604051601f8201601f19908116603f01168101908382118183101715611be757611be7611b48565b81604052828152886020848701011115611c0057600080fd5b8260208601602083013760006020848301015280955050505050509250929050565b600080600080600060808688031215611c3a57600080fd5b8535611c4581611a90565b94506020860135611c5581611a90565b935060408601359250606086013567ffffffffffffffff80821115611c7957600080fd5b818801915088601f830112611c8d57600080fd5b813581811115611c9c57600080fd5b896020828501011115611cae57600080fd5b9699959850939650602001949392505050565b60008060408385031215611cd457600080fd5b8235611cdf81611a90565b91506020830135611cef81611a90565b809150509250929050565b600181811c90821680611d0e57607f821691505b602082108103611d2e57634e487b7160e01b600052602260045260246000fd5b50919050565b6020808252602c908201527f46756e6374696f6e206d7573742062652063616c6c6564207468726f7567682060408201526b19195b1959d85d1958d85b1b60a21b606082015260800190565b6020808252602c908201527f46756e6374696f6e206d7573742062652063616c6c6564207468726f7567682060408201526b6163746976652070726f787960a01b606082015260800190565b634e487b7160e01b600052601160045260246000fd5b8082018082111561058657610586611dcc565b6001600160a01b03878116825286166020820152604081018590526060810184905260a06080820181905281018290526000828460c0840137600060c0848401015260c0601f19601f8501168301019050979650505050505050565b600060208284031215611e6357600080fd5b5051919050565b8181038181111561058657610586611dcc565b600181815b80851115611eb8578160001904821115611e9e57611e9e611dcc565b80851615611eab57918102915b93841c9390800290611e82565b509250929050565b600082611ecf57506001610586565b81611edc57506000610586565b8160018114611ef25760028114611efc57611f18565b6001915050610586565b60ff841115611f0d57611f0d611dcc565b50506001821b610586565b5060208310610133831016604e8410600b8410161715611f3b575081810a610586565b611f458383611e7d565b8060001904821115611f5957611f59611dcc565b029392505050565b60006105ab60ff841683611ec0565b808202811582820484141761058657610586611dcc565b6020808252602b908201527f496e697469616c697a61626c653a20636f6e7472616374206973206e6f74206960408201526a6e697469616c697a696e6760a81b606082015260800190565b601f82111561119157600081815260208120601f850160051c81016020861015611ff95750805b601f850160051c820191505b8181101561201857828155600101612005565b505050505050565b815167ffffffffffffffff81111561203a5761203a611b48565b61204e816120488454611cfa565b84611fd2565b602080601f831160018114612083576000841561206b5750858301515b600019600386901b1c1916600185901b178555612018565b600085815260208120601f198616915b828110156120b257888601518255948401946001909101908401612093565b50858210156120d05787850151600019600388901b60f8161c191681555b5050505050600190811b01905550565b600082516120f2818460208701611a39565b919091019291505056fe360894a13ba1a3210667c828492db98dca3e2076cc3735a920a3ca505d382bbc416464726573733a206c6f772d6c6576656c2064656c65676174652063616c6c206661696c6564a2646970667358221220d2a59648ea8b01421ab42f5607f6ebc67b1aca10a1eed964837a91ab792d905a64736f6c63430008110033",
  "linkReferences": {},
  "deployedLinkReferences": {}
}