{
  "_format": "hh-sol-artifact-1",
  "contractName": "PresaleUpgradeable",
  "sourceName": "contracts/PresaleUpgradeable.sol",
  "abi": [
    {
      "anonymous": false,
      "inputs": [
        {
          "indexed": false,
          "internalType": "address",
          "name": "previousAdmin",
          "type": "address"
        },
        {
          "indexed": false,
          "internalType": "address",
          "name": "newAdmin",
          "type": "address"
        }
      ],
      "name": "AdminChanged",
      "type": "event"
    },
    {
      "anonymous": false,
      "inputs": [
        {
          "indexed": true,
          "internalType": "address",
          "name": "beacon",
          "type": "address"
        }
      ],
      "name": "BeaconUpgraded",
      "type": "event"
    },
    {
      "anonymous": false,
      "inputs": [
        {
          "indexed": false,
          "internalType": "uint8",
          "name": "version",
          "type": "uint8"
        }
      ],
      "name": "Initialized",
      "type": "event"
    },
    {
      "anonymous": false,
      "inputs": [
        {
          "indexed": true,
          "internalType": "address",
          "name": "previousOwner",
          "type": "address"
        },
        {
          "indexed": true,
          "internalType": "address",
          "name": "newOwner",
          "type": "address"
        }
      ],
      "name": "OwnershipTransferred",
      "type": "event"
    },
    {
      "anonymous": false,
      "inputs": [
        {
          "indexed": false,
          "internalType": "address",
          "name": "account",
          "type": "address"
        }
      ],
      "name": "Paused",
      "type": "event"
    },
    {
      "anonymous": false,
      "inputs": [
        {
          "indexed": false,
          "internalType": "uint256",
          "name": "amount",
          "type": "uint256"
        }
      ],
      "name": "RegistrationFees",
      "type": "event"
    },
    {
      "anonymous": false,
      "inputs": [
        {
          "indexed": true,
          "internalType": "address",
          "name": "to",
          "type": "address"
        },
        {
          "indexed": true,
          "internalType": "uint256",
          "name": "tokenValue",
          "type": "uint256"
        },
        {
          "indexed": true,
          "internalType": "address",
          "name": "rewardTokenContract",
          "type": "address"
        }
      ],
      "name": "RewardTokenDistributed",
      "type": "event"
    },
    {
      "anonymous": false,
      "inputs": [
        {
          "indexed": true,
          "internalType": "address",
          "name": "from",
          "type": "address"
        },
        {
          "indexed": true,
          "internalType": "uint256",
          "name": "tokenValue",
          "type": "uint256"
        },
        {
          "indexed": true,
          "internalType": "uint256",
          "name": "ethValue",
          "type": "uint256"
        },
        {
          "indexed": false,
          "internalType": "string",
          "name": "currency",
          "type": "string"
        }
      ],
      "name": "TokenPurchased",
      "type": "event"
    },
    {
      "anonymous": false,
      "inputs": [
        {
          "indexed": false,
          "internalType": "address",
          "name": "account",
          "type": "address"
        }
      ],
      "name": "Unpaused",
      "type": "event"
    },
    {
      "anonymous": false,
      "inputs": [
        {
          "indexed": true,
          "internalType": "address",
          "name": "implementation",
          "type": "address"
        }
      ],
      "name": "Upgraded",
      "type": "event"
    },
    {
      "inputs": [
        {
          "internalType": "address",
          "name": "_referrerAddress",
          "type": "address"
        },
        {
          "internalType": "uint256",
          "name": "_valueInWei",
          "type": "uint256"
        }
      ],
      "name": "BuyWithANUSD",
      "outputs": [],
      "stateMutability": "nonpayable",
      "type": "function"
    },
    {
      "inputs": [
        {
          "internalType": "address[]",
          "name": "_userAddress",
          "type": "address[]"
        },
        {
          "internalType": "address[]",
          "name": "_referrerAddress",
          "type": "address[]"
        },
        {
          "internalType": "uint256[]",
          "name": "_valueInUSDDecimals",
          "type": "uint256[]"
        }
      ],
      "name": "BuyWithANUSDAdmin",
      "outputs": [],
      "stateMutability": "nonpayable",
      "type": "function"
    },
    {
      "inputs": [
        {
          "internalType": "uint256",
          "name": "",
          "type": "uint256"
        }
      ],
      "name": "admins",
      "outputs": [
        {
          "internalType": "address",
          "name": "",
          "type": "address"
        }
      ],
      "stateMutability": "view",
      "type": "function"
    },
    {
      "inputs": [],
      "name": "getAnalystics",
      "outputs": [
        {
          "internalType": "uint256",
          "name": "tokenSold",
          "type": "uint256"
        },
        {
          "internalType": "uint256",
          "name": "ausdRaised",
          "type": "uint256"
        }
      ],
      "stateMutability": "view",
      "type": "function"
    },
    {
      "inputs": [],
      "name": "getCapping",
      "outputs": [
        {
          "internalType": "uint256",
          "name": "minConUSD",
          "type": "uint256"
        },
        {
          "internalType": "bool",
          "name": "isBuyStakeEnabled",
          "type": "bool"
        },
        {
          "internalType": "bool",
          "name": "isPayReferralEnabled",
          "type": "bool"
        },
        {
          "internalType": "bool",
          "name": "isPayRewardTokenEnabled",
          "type": "bool"
        },
        {
          "internalType": "uint256",
          "name": "maxBuyLimitANUSD",
          "type": "uint256"
        }
      ],
      "stateMutability": "view",
      "type": "function"
    },
    {
      "inputs": [],
      "name": "getVariablesContract",
      "outputs": [
        {
          "internalType": "address",
          "name": "",
          "type": "address"
        }
      ],
      "stateMutability": "view",
      "type": "function"
    },
    {
      "inputs": [],
      "name": "initialize",
      "outputs": [],
      "stateMutability": "nonpayable",
      "type": "function"
    },
    {
      "inputs": [],
      "name": "owner",
      "outputs": [
        {
          "internalType": "address",
          "name": "",
          "type": "address"
        }
      ],
      "stateMutability": "view",
      "type": "function"
    },
    {
      "inputs": [],
      "name": "pauseAdmin",
      "outputs": [],
      "stateMutability": "nonpayable",
      "type": "function"
    },
    {
      "inputs": [],
      "name": "paused",
      "outputs": [
        {
          "internalType": "bool",
          "name": "",
          "type": "bool"
        }
      ],
      "stateMutability": "view",
      "type": "function"
    },
    {
      "inputs": [],
      "name": "proxiableUUID",
      "outputs": [
        {
          "internalType": "bytes32",
          "name": "",
          "type": "bytes32"
        }
      ],
      "stateMutability": "view",
      "type": "function"
    },
    {
      "inputs": [],
      "name": "renounceOwnership",
      "outputs": [],
      "stateMutability": "nonpayable",
      "type": "function"
    },
    {
      "inputs": [
        {
          "internalType": "uint256",
          "name": "minConUSD",
          "type": "uint256"
        },
        {
          "internalType": "bool",
          "name": "isBuyNStake",
          "type": "bool"
        },
        {
          "internalType": "bool",
          "name": "isPayReferral",
          "type": "bool"
        },
        {
          "internalType": "bool",
          "name": "isPayRewardTokens",
          "type": "bool"
        },
        {
          "internalType": "uint256",
          "name": "maxBuyLimitANUSD",
          "type": "uint256"
        }
      ],
      "name": "setCapping",
      "outputs": [],
      "stateMutability": "nonpayable",
      "type": "function"
    },
    {
      "inputs": [
        {
          "internalType": "address",
          "name": "_contractAddress",
          "type": "address"
        }
      ],
      "name": "setVariablesContract",
      "outputs": [],
      "stateMutability": "nonpayable",
      "type": "function"
    },
    {
      "inputs": [
        {
          "internalType": "address",
          "name": "_address",
          "type": "address"
        },
        {
          "internalType": "uint256",
          "name": "_value",
          "type": "uint256"
        }
      ],
      "name": "transferETH",
      "outputs": [],
      "stateMutability": "nonpayable",
      "type": "function"
    },
    {
      "inputs": [
        {
          "internalType": "address",
          "name": "newOwner",
          "type": "address"
        }
      ],
      "name": "transferOwnership",
      "outputs": [],
      "stateMutability": "nonpayable",
      "type": "function"
    },
    {
      "inputs": [],
      "name": "unpauseAdmin",
      "outputs": [],
      "stateMutability": "nonpayable",
      "type": "function"
    },
    {
      "inputs": [
        {
          "internalType": "address",
          "name": "newImplementation",
          "type": "address"
        }
      ],
      "name": "upgradeTo",
      "outputs": [],
      "stateMutability": "nonpayable",
      "type": "function"
    },
    {
      "inputs": [
        {
          "internalType": "address",
          "name": "newImplementation",
          "type": "address"
        },
        {
          "internalType": "bytes",
          "name": "data",
          "type": "bytes"
        }
      ],
      "name": "upgradeToAndCall",
      "outputs": [],
      "stateMutability": "payable",
      "type": "function"
    },
    {
      "inputs": [],
      "name": "withdrawETH",
      "outputs": [],
      "stateMutability": "nonpayable",
      "type": "function"
    },
    {
      "inputs": [
        {
          "internalType": "address",
          "name": "_tokenAddress",
          "type": "address"
        },
        {
          "internalType": "uint256",
          "name": "_value",
          "type": "uint256"
        }
      ],
      "name": "withdrawTokens",
      "outputs": [],
      "stateMutability": "nonpayable",
      "type": "function"
    },
    {
      "stateMutability": "payable",
      "type": "receive"
    }
  ],
  "bytecode": "0x60a06040523060805234801561001457600080fd5b506080516123d561004c60003960008181610a3301528181610a7301528181610b1201528181610b520152610be501526123d56000f3fe60806040526004361061012e5760003560e01c80636740090a116100ab578063b9439d201161006f578063b9439d2014610317578063db5184e614610337578063de863da31461034c578063e086e5ec146103a1578063f13a143f146103b6578063f2fde38b146103d457600080fd5b80636740090a1461028f578063715018a6146102af5780637b1a4909146102c45780638129fc1c146102e45780638da5cb5b146102f957600080fd5b80633659cfe6116100f25780633659cfe6146101ee5780634f0371d71461020e5780634f1ef2861461023657806352d1902d146102495780635c975abb1461026c57600080fd5b806306b091f91461013a5780630ba0dba31461015c57806314bfd6d01461017c578063182feeaa146101b95780632f11d653146101d957600080fd5b3661013557005b600080fd5b34801561014657600080fd5b5061015a610155366004611d76565b6103f4565b005b34801561016857600080fd5b5061015a610177366004611da2565b610472565b34801561018857600080fd5b5061019c610197366004611dbf565b61049c565b6040516001600160a01b0390911681526020015b60405180910390f35b3480156101c557600080fd5b5061015a6101d4366004611e24565b6104c7565b3480156101e557600080fd5b5061015a610a17565b3480156101fa57600080fd5b5061015a610209366004611da2565b610a29565b34801561021a57600080fd5b5060fe5460ff54604080519283526020830191909152016101b0565b61015a610244366004611f05565b610b08565b34801561025557600080fd5b5061025e610bd8565b6040519081526020016101b0565b34801561027857600080fd5b5060655460ff1660405190151581526020016101b0565b34801561029b57600080fd5b5061015a6102aa366004611fbb565b610c8b565b3480156102bb57600080fd5b5061015a610cd2565b3480156102d057600080fd5b5061015a6102df366004611d76565b610ce4565b3480156102f057600080fd5b5061015a610d22565b34801561030557600080fd5b506033546001600160a01b031661019c565b34801561032357600080fd5b5061015a610332366004611d76565b610ea0565b34801561034357600080fd5b5061015a6114b4565b34801561035857600080fd5b5060fd546101008054610101546040805194855260ff8084161515602087015293830484161515908501526201000090910490911615156060830152608082015260a0016101b0565b3480156103ad57600080fd5b5061015a6114c4565b3480156103c257600080fd5b5060fb546001600160a01b031661019c565b3480156103e057600080fd5b5061015a6103ef366004611da2565b6114f8565b6103fc61156e565b60405163a9059cbb60e01b8152336004820152602481018290526001600160a01b0383169063a9059cbb906044016020604051808303816000875af1158015610449573d6000803e3d6000fd5b505050506040513d601f19601f8201168201806040525081019061046d9190612016565b505050565b61047a61156e565b60fb80546001600160a01b0319166001600160a01b0392909216919091179055565b61010281815481106104ad57600080fd5b6000918252602090912001546001600160a01b0316905081565b60fb54604051630935e01b60e21b81523360048201526001600160a01b03909116906324d7806c90602401602060405180830381865afa15801561050f573d6000803e3d6000fd5b505050506040513d601f19601f820116820180604052508101906105339190612016565b6105785760405162461bcd60e51b81526020600482015260116024820152702cb7ba9030b932903737ba1030b236b4b760791b60448201526064015b60405180910390fd5b60fb5485906001600160a01b031660005b82811015610a0c576000826001600160a01b0316634bc92d6c6040518163ffffffff1660e01b8152600401602060405180830381865afa1580156105d1573d6000803e3d6000fd5b505050506040513d601f19601f820116820180604052508101906105f59190612033565b9050600086868481811061060b5761060b61204c565b90506020020135670de0b6b3a76400006106259190612078565b90506000610761856001600160a01b031663b70cc4c16040518163ffffffff1660e01b8152600401602060405180830381865afa15801561066a573d6000803e3d6000fd5b505050506040513d601f19601f8201168201806040525081019061068e919061208f565b61069885856120ac565b876001600160a01b03166355a373d66040518163ffffffff1660e01b8152600401602060405180830381865afa1580156106d6573d6000803e3d6000fd5b505050506040513d601f19601f820116820180604052508101906106fa919061208f565b886001600160a01b0316638290c4a66040518163ffffffff1660e01b8152600401602060405180830381865afa158015610738573d6000803e3d6000fd5b505050506040513d601f19601f8201168201806040525081019061075c919061208f565b6115c8565b6101005490915060ff16156108a757846001600160a01b031663ee99205c6040518163ffffffff1660e01b8152600401602060405180830381865afa1580156107ae573d6000803e3d6000fd5b505050506040513d601f19601f820116820180604052508101906107d2919061208f565b6001600160a01b031663310c9b208d8d878181106107f2576107f261204c565b90506020020160208101906108079190611da2565b8360018151811061081a5761081a61204c565b6020026020010151846000815181106108355761083561204c565b60209081029190910101516040516001600160e01b031960e086901b1681526001600160a01b03909316600484015260248301919091526044820152606401600060405180830381600087803b15801561088e57600080fd5b505af11580156108a2573d6000803e3d6000fd5b505050505b61010080540460ff16156109f657846001600160a01b0316637dad19db6040518163ffffffff1660e01b8152600401602060405180830381865afa1580156108f3573d6000803e3d6000fd5b505050506040513d601f19601f82011682018060405250810190610917919061208f565b6001600160a01b031663228159b4826000815181106109385761093861204c565b60200260200101518e8e888181106109525761095261204c565b90506020020160208101906109679190611da2565b8d8d898181106109795761097961204c565b905060200201602081019061098e9190611da2565b6040516001600160e01b031960e086901b16815260048101939093526001600160a01b039182166024840152166044820152606401600060405180830381600087803b1580156109dd57600080fd5b505af11580156109f1573d6000803e3d6000fd5b505050505b5050508080610a04906120bf565b915050610589565b505050505050505050565b610a1f61156e565b610a2761174b565b565b6001600160a01b037f0000000000000000000000000000000000000000000000000000000000000000163003610a715760405162461bcd60e51b815260040161056f906120d8565b7f00000000000000000000000000000000000000000000000000000000000000006001600160a01b0316610aba600080516020612359833981519152546001600160a01b031690565b6001600160a01b031614610ae05760405162461bcd60e51b815260040161056f90612124565b610ae9816117a5565b60408051600080825260208201909252610b05918391906117ad565b50565b6001600160a01b037f0000000000000000000000000000000000000000000000000000000000000000163003610b505760405162461bcd60e51b815260040161056f906120d8565b7f00000000000000000000000000000000000000000000000000000000000000006001600160a01b0316610b99600080516020612359833981519152546001600160a01b031690565b6001600160a01b031614610bbf5760405162461bcd60e51b815260040161056f90612124565b610bc8826117a5565b610bd4828260016117ad565b5050565b6000306001600160a01b037f00000000000000000000000000000000000000000000000000000000000000001614610c785760405162461bcd60e51b815260206004820152603860248201527f555550535570677261646561626c653a206d757374206e6f742062652063616c60448201527f6c6564207468726f7567682064656c656761746563616c6c0000000000000000606482015260840161056f565b5060008051602061235983398151915290565b610c9361156e565b60fd94909455610100805461ffff191693151561ff0019169390931791151583029190911762ff00001916620100009115159190910217905561010155565b610cda61156e565b610a276000611918565b610cec61156e565b6040516001600160a01b0383169082156108fc029083906000818181858888f1935050505015801561046d573d6000803e3d6000fd5b600054610100900460ff1615808015610d425750600054600160ff909116105b80610d5c5750303b158015610d5c575060005460ff166001145b610dbf5760405162461bcd60e51b815260206004820152602e60248201527f496e697469616c697a61626c653a20636f6e747261637420697320616c72656160448201526d191e481a5b9a5d1a585b1a5e995960921b606482015260840161056f565b6000805460ff191660011790558015610de2576000805461ff0019166101001790555b60fb80546001600160a01b0319167377daafc7411c911b869c71bf70fe36cce507845d17905566038d7ea4c6800060fc556801158e460913d0000060fd55610100805462ffffff1916610101908117909155681ba5abf9e7793800009055610e4861196a565b610e50611999565b610e586119c8565b8015610b05576000805461ff0019169055604051600181527f7f26b83ff96e1f2b6a682f133852f6798a09c465da95921460cefb38474024989060200160405180910390a150565b610ea86119ef565b60fb54604080516312f24b5b60e21b815290516001600160a01b039092169133916000918491634bc92d6c9160048083019260209291908290030181865afa158015610ef8573d6000803e3d6000fd5b505050506040513d601f19601f82011682018060405250810190610f1c9190612033565b60fd549091508490811015610f7f5760405162461bcd60e51b815260206004820152602360248201527f415553442076616c7565206c657373207468656e206d696e206275792076616c6044820152623ab29760e91b606482015260840161056f565b61010154811115610fca5760405162461bcd60e51b815260206004820152601560248201527413585e08189d5e481b1a5b5a5d081c995858da1959605a1b604482015260640161056f565b836001600160a01b031663b70cc4c16040518163ffffffff1660e01b8152600401602060405180830381865afa158015611008573d6000803e3d6000fd5b505050506040513d601f19601f8201168201806040525081019061102c919061208f565b6040516323b872dd60e01b81526001600160a01b0385811660048301523060248301526044820184905291909116906323b872dd906064016020604051808303816000875af1158015611083573d6000803e3d6000fd5b505050506040513d601f19601f820116820180604052508101906110a79190612016565b5060006110eb856001600160a01b031663b70cc4c16040518163ffffffff1660e01b8152600401602060405180830381865afa15801561066a573d6000803e3d6000fd5b6101005490915060ff161561120f57846001600160a01b031663ee99205c6040518163ffffffff1660e01b8152600401602060405180830381865afa158015611138573d6000803e3d6000fd5b505050506040513d601f19601f8201168201806040525081019061115c919061208f565b6001600160a01b031663310c9b20858360018151811061117e5761117e61204c565b6020026020010151846000815181106111995761119961204c565b60209081029190910101516040516001600160e01b031960e086901b1681526001600160a01b03909316600484015260248301919091526044820152606401600060405180830381600087803b1580156111f257600080fd5b505af1158015611206573d6000803e3d6000fd5b50505050611311565b846001600160a01b03166355a373d66040518163ffffffff1660e01b8152600401602060405180830381865afa15801561124d573d6000803e3d6000fd5b505050506040513d601f19601f82011682018060405250810190611271919061208f565b6001600160a01b031663a9059cbb85836001815181106112935761129361204c565b60200260200101516040518363ffffffff1660e01b81526004016112cc9291906001600160a01b03929092168252602082015260400190565b6020604051808303816000875af11580156112eb573d6000803e3d6000fd5b505050506040513d601f19601f8201168201806040525081019061130f9190612016565b505b61010080540460ff161561141757846001600160a01b0316637dad19db6040518163ffffffff1660e01b8152600401602060405180830381865afa15801561135d573d6000803e3d6000fd5b505050506040513d601f19601f82011682018060405250810190611381919061208f565b6001600160a01b031663228159b4826000815181106113a2576113a261204c565b6020026020010151868a6040518463ffffffff1660e01b81526004016113e4939291909283526001600160a01b03918216602084015216604082015260600190565b600060405180830381600087803b1580156113fe57600080fd5b505af1158015611412573d6000803e3d6000fd5b505050505b7f629a485b55f72b3241f1b41ff1864e029996d1cf7d54ef632b907af140f57430856001600160a01b0316634bc92d6c6040518163ffffffff1660e01b8152600401602060405180830381865afa158015611476573d6000803e3d6000fd5b505050506040513d601f19601f8201168201806040525081019061149a9190612033565b60405190815260200160405180910390a150505050505050565b6114bc61156e565b610a27611a35565b6114cc61156e565b60405133904780156108fc02916000818181858888f19350505050158015610b05573d6000803e3d6000fd5b61150061156e565b6001600160a01b0381166115655760405162461bcd60e51b815260206004820152602660248201527f4f776e61626c653a206e6577206f776e657220697320746865207a65726f206160448201526564647265737360d01b606482015260840161056f565b610b0581611918565b6033546001600160a01b03163314610a275760405162461bcd60e51b815260206004820181905260248201527f4f776e61626c653a2063616c6c6572206973206e6f7420746865206f776e6572604482015260640161056f565b6040805160028082526060808301845292600092919060208301908036833701905050905085816000815181106116015761160161204c565b60200260200101906001600160a01b031690816001600160a01b03168152505083816001815181106116355761163561204c565b6001600160a01b03928316602091820292909201015260405163095ea7b360e01b81528482166004820152602481018790529087169063095ea7b3906044016020604051808303816000875af1158015611693573d6000803e3d6000fd5b505050506040513d601f19601f820116820180604052508101906116b79190612016565b5060006001600160a01b0384166338ed173987600185306116d9426064612170565b6040518663ffffffff1660e01b81526004016116f9959493929190612183565b6000604051808303816000875af1158015611718573d6000803e3d6000fd5b505050506040513d6000823e601f3d908101601f1916820160405261174091908101906121f4565b979650505050505050565b6117536119ef565b6065805460ff191660011790557f62e78cea01bee320cd4e420270b5ea74000d11b0c9f74754ebdbfc544b05a2586117883390565b6040516001600160a01b03909116815260200160405180910390a1565b610b0561156e565b7f4910fdfa16fed3260ed0e7147f7cc6da11a60208b5b9406d12a635614ffd91435460ff16156117e05761046d83611a6e565b826001600160a01b03166352d1902d6040518163ffffffff1660e01b8152600401602060405180830381865afa92505050801561183a575060408051601f3d908101601f1916820190925261183791810190612033565b60015b61189d5760405162461bcd60e51b815260206004820152602e60248201527f45524331393637557067726164653a206e657720696d706c656d656e7461746960448201526d6f6e206973206e6f74205555505360901b606482015260840161056f565b600080516020612359833981519152811461190c5760405162461bcd60e51b815260206004820152602960248201527f45524331393637557067726164653a20756e737570706f727465642070726f786044820152681a58589b195555525160ba1b606482015260840161056f565b5061046d838383611b0a565b603380546001600160a01b038381166001600160a01b0319831681179093556040519116919082907f8be0079c531659141344cd1fd0a4f28419497f9722a3daafe3b4186f6b6457e090600090a35050565b600054610100900460ff166119915760405162461bcd60e51b815260040161056f9061229a565b610a27611b35565b600054610100900460ff166119c05760405162461bcd60e51b815260040161056f9061229a565b610a27611b68565b600054610100900460ff16610a275760405162461bcd60e51b815260040161056f9061229a565b60655460ff1615610a275760405162461bcd60e51b815260206004820152601060248201526f14185d5cd8589b194e881c185d5cd95960821b604482015260640161056f565b611a3d611b98565b6065805460ff191690557f5db9ee0a495bf2e6ff9c91a7834c1ba4fdd244a5e8aa4e537bd38aeae4b073aa33611788565b6001600160a01b0381163b611adb5760405162461bcd60e51b815260206004820152602d60248201527f455243313936373a206e657720696d706c656d656e746174696f6e206973206e60448201526c1bdd08184818dbdb9d1c9858dd609a1b606482015260840161056f565b60008051602061235983398151915280546001600160a01b0319166001600160a01b0392909216919091179055565b611b1383611be1565b600082511180611b205750805b1561046d57611b2f8383611c21565b50505050565b600054610100900460ff16611b5c5760405162461bcd60e51b815260040161056f9061229a565b6065805460ff19169055565b600054610100900460ff16611b8f5760405162461bcd60e51b815260040161056f9061229a565b610a2733611918565b60655460ff16610a275760405162461bcd60e51b815260206004820152601460248201527314185d5cd8589b194e881b9bdd081c185d5cd95960621b604482015260640161056f565b611bea81611a6e565b6040516001600160a01b038216907fbc7cd75a20ee27fd9adebab32041f755214dbc6bffa90cc0225b39da2e5c2d3b90600090a250565b60606001600160a01b0383163b611c895760405162461bcd60e51b815260206004820152602660248201527f416464726573733a2064656c65676174652063616c6c20746f206e6f6e2d636f6044820152651b9d1c9858dd60d21b606482015260840161056f565b600080846001600160a01b031684604051611ca49190612309565b600060405180830381855af49150503d8060008114611cdf576040519150601f19603f3d011682016040523d82523d6000602084013e611ce4565b606091505b5091509150611d0c828260405180606001604052806027815260200161237960279139611d17565b925050505b92915050565b60608315611d26575081611d30565b611d308383611d37565b9392505050565b815115611d475781518083602001fd5b8060405162461bcd60e51b815260040161056f9190612325565b6001600160a01b0381168114610b0557600080fd5b60008060408385031215611d8957600080fd5b8235611d9481611d61565b946020939093013593505050565b600060208284031215611db457600080fd5b8135611d3081611d61565b600060208284031215611dd157600080fd5b5035919050565b60008083601f840112611dea57600080fd5b50813567ffffffffffffffff811115611e0257600080fd5b6020830191508360208260051b8501011115611e1d57600080fd5b9250929050565b60008060008060008060608789031215611e3d57600080fd5b863567ffffffffffffffff80821115611e5557600080fd5b611e618a838b01611dd8565b90985096506020890135915080821115611e7a57600080fd5b611e868a838b01611dd8565b90965094506040890135915080821115611e9f57600080fd5b50611eac89828a01611dd8565b979a9699509497509295939492505050565b634e487b7160e01b600052604160045260246000fd5b604051601f8201601f1916810167ffffffffffffffff81118282101715611efd57611efd611ebe565b604052919050565b60008060408385031215611f1857600080fd5b8235611f2381611d61565b915060208381013567ffffffffffffffff80821115611f4157600080fd5b818601915086601f830112611f5557600080fd5b813581811115611f6757611f67611ebe565b611f79601f8201601f19168501611ed4565b91508082528784828501011115611f8f57600080fd5b80848401858401376000848284010152508093505050509250929050565b8015158114610b0557600080fd5b600080600080600060a08688031215611fd357600080fd5b853594506020860135611fe581611fad565b93506040860135611ff581611fad565b9250606086013561200581611fad565b949793965091946080013592915050565b60006020828403121561202857600080fd5b8151611d3081611fad565b60006020828403121561204557600080fd5b5051919050565b634e487b7160e01b600052603260045260246000fd5b634e487b7160e01b600052601160045260246000fd5b8082028115828204841417611d1157611d11612062565b6000602082840312156120a157600080fd5b8151611d3081611d61565b81810381811115611d1157611d11612062565b6000600182016120d1576120d1612062565b5060010190565b6020808252602c908201527f46756e6374696f6e206d7573742062652063616c6c6564207468726f7567682060408201526b19195b1959d85d1958d85b1b60a21b606082015260800190565b6020808252602c908201527f46756e6374696f6e206d7573742062652063616c6c6564207468726f7567682060408201526b6163746976652070726f787960a01b606082015260800190565b80820180821115611d1157611d11612062565b600060a082018783526020878185015260a0604085015281875180845260c086019150828901935060005b818110156121d35784516001600160a01b0316835293830193918301916001016121ae565b50506001600160a01b03969096166060850152505050608001529392505050565b6000602080838503121561220757600080fd5b825167ffffffffffffffff8082111561221f57600080fd5b818501915085601f83011261223357600080fd5b81518181111561224557612245611ebe565b8060051b9150612256848301611ed4565b818152918301840191848101908884111561227057600080fd5b938501935b8385101561228e57845182529385019390850190612275565b98975050505050505050565b6020808252602b908201527f496e697469616c697a61626c653a20636f6e7472616374206973206e6f74206960408201526a6e697469616c697a696e6760a81b606082015260800190565b60005b838110156123005781810151838201526020016122e8565b50506000910152565b6000825161231b8184602087016122e5565b9190910192915050565b60208152600082518060208401526123448160408501602087016122e5565b601f01601f1916919091016040019291505056fe360894a13ba1a3210667c828492db98dca3e2076cc3735a920a3ca505d382bbc416464726573733a206c6f772d6c6576656c2064656c65676174652063616c6c206661696c6564a264697066735822122045c382398d384206bccfe5c52453a31fb6e302b92b2af8f868298b44b547863164736f6c63430008110033",
  "linkReferences": {},
  "deployedLinkReferences": {}
}