{
  "_format": "hh-sol-artifact-1",
  "contractName": "PresaleUpgradeable",
  "sourceName": "contracts/PresaleUpgradeable.sol",
  "abi": [
    {
      "anonymous": false,
      "inputs": [
        {
          "indexed": false,
          "internalType": "address",
          "name": "previousAdmin",
          "type": "address"
        },
        {
          "indexed": false,
          "internalType": "address",
          "name": "newAdmin",
          "type": "address"
        }
      ],
      "name": "AdminChanged",
      "type": "event"
    },
    {
      "anonymous": false,
      "inputs": [
        {
          "indexed": true,
          "internalType": "address",
          "name": "beacon",
          "type": "address"
        }
      ],
      "name": "BeaconUpgraded",
      "type": "event"
    },
    {
      "anonymous": false,
      "inputs": [
        {
          "indexed": false,
          "internalType": "uint8",
          "name": "version",
          "type": "uint8"
        }
      ],
      "name": "Initialized",
      "type": "event"
    },
    {
      "anonymous": false,
      "inputs": [
        {
          "indexed": true,
          "internalType": "address",
          "name": "previousOwner",
          "type": "address"
        },
        {
          "indexed": true,
          "internalType": "address",
          "name": "newOwner",
          "type": "address"
        }
      ],
      "name": "OwnershipTransferred",
      "type": "event"
    },
    {
      "anonymous": false,
      "inputs": [
        {
          "indexed": false,
          "internalType": "address",
          "name": "account",
          "type": "address"
        }
      ],
      "name": "Paused",
      "type": "event"
    },
    {
      "anonymous": false,
      "inputs": [
        {
          "indexed": false,
          "internalType": "uint256",
          "name": "amount",
          "type": "uint256"
        }
      ],
      "name": "RegistrationFees",
      "type": "event"
    },
    {
      "anonymous": false,
      "inputs": [
        {
          "indexed": true,
          "internalType": "address",
          "name": "to",
          "type": "address"
        },
        {
          "indexed": true,
          "internalType": "uint256",
          "name": "tokenValue",
          "type": "uint256"
        },
        {
          "indexed": true,
          "internalType": "address",
          "name": "rewardTokenContract",
          "type": "address"
        }
      ],
      "name": "RewardTokenDistributed",
      "type": "event"
    },
    {
      "anonymous": false,
      "inputs": [
        {
          "indexed": true,
          "internalType": "address",
          "name": "from",
          "type": "address"
        },
        {
          "indexed": true,
          "internalType": "uint256",
          "name": "tokenValue",
          "type": "uint256"
        },
        {
          "indexed": true,
          "internalType": "uint256",
          "name": "ethValue",
          "type": "uint256"
        },
        {
          "indexed": false,
          "internalType": "string",
          "name": "currency",
          "type": "string"
        }
      ],
      "name": "TokenPurchased",
      "type": "event"
    },
    {
      "anonymous": false,
      "inputs": [
        {
          "indexed": false,
          "internalType": "address",
          "name": "account",
          "type": "address"
        }
      ],
      "name": "Unpaused",
      "type": "event"
    },
    {
      "anonymous": false,
      "inputs": [
        {
          "indexed": true,
          "internalType": "address",
          "name": "implementation",
          "type": "address"
        }
      ],
      "name": "Upgraded",
      "type": "event"
    },
    {
      "inputs": [
        {
          "internalType": "address",
          "name": "_referrerAddress",
          "type": "address"
        },
        {
          "internalType": "uint256",
          "name": "_valueInWei",
          "type": "uint256"
        }
      ],
      "name": "BuyWithANUSD",
      "outputs": [],
      "stateMutability": "nonpayable",
      "type": "function"
    },
    {
      "inputs": [
        {
          "internalType": "address[]",
          "name": "_userAddress",
          "type": "address[]"
        },
        {
          "internalType": "address[]",
          "name": "_referrerAddress",
          "type": "address[]"
        },
        {
          "internalType": "uint256[]",
          "name": "_valueInDecimals",
          "type": "uint256[]"
        }
      ],
      "name": "BuyWithANUSDAdmin",
      "outputs": [],
      "stateMutability": "nonpayable",
      "type": "function"
    },
    {
      "inputs": [],
      "name": "getAnalystics",
      "outputs": [
        {
          "internalType": "uint256",
          "name": "tokenSold",
          "type": "uint256"
        },
        {
          "internalType": "uint256",
          "name": "ausdRaised",
          "type": "uint256"
        }
      ],
      "stateMutability": "view",
      "type": "function"
    },
    {
      "inputs": [],
      "name": "getCapping",
      "outputs": [
        {
          "internalType": "uint256",
          "name": "minConUSD",
          "type": "uint256"
        },
        {
          "internalType": "bool",
          "name": "isBuyStakeEnabled",
          "type": "bool"
        },
        {
          "internalType": "bool",
          "name": "isPayReferralEnabled",
          "type": "bool"
        },
        {
          "internalType": "bool",
          "name": "isPayRewardTokenEnabled",
          "type": "bool"
        }
      ],
      "stateMutability": "view",
      "type": "function"
    },
    {
      "inputs": [],
      "name": "getVariablesContract",
      "outputs": [
        {
          "internalType": "address",
          "name": "",
          "type": "address"
        }
      ],
      "stateMutability": "view",
      "type": "function"
    },
    {
      "inputs": [],
      "name": "initialize",
      "outputs": [],
      "stateMutability": "nonpayable",
      "type": "function"
    },
    {
      "inputs": [],
      "name": "owner",
      "outputs": [
        {
          "internalType": "address",
          "name": "",
          "type": "address"
        }
      ],
      "stateMutability": "view",
      "type": "function"
    },
    {
      "inputs": [],
      "name": "pauseAdmin",
      "outputs": [],
      "stateMutability": "nonpayable",
      "type": "function"
    },
    {
      "inputs": [],
      "name": "paused",
      "outputs": [
        {
          "internalType": "bool",
          "name": "",
          "type": "bool"
        }
      ],
      "stateMutability": "view",
      "type": "function"
    },
    {
      "inputs": [],
      "name": "proxiableUUID",
      "outputs": [
        {
          "internalType": "bytes32",
          "name": "",
          "type": "bytes32"
        }
      ],
      "stateMutability": "view",
      "type": "function"
    },
    {
      "inputs": [],
      "name": "renounceOwnership",
      "outputs": [],
      "stateMutability": "nonpayable",
      "type": "function"
    },
    {
      "inputs": [
        {
          "internalType": "uint256",
          "name": "minConUSD",
          "type": "uint256"
        },
        {
          "internalType": "bool",
          "name": "isBuyNStake",
          "type": "bool"
        },
        {
          "internalType": "bool",
          "name": "isPayReferral",
          "type": "bool"
        },
        {
          "internalType": "bool",
          "name": "isPayRewardTokens",
          "type": "bool"
        }
      ],
      "name": "setCapping",
      "outputs": [],
      "stateMutability": "nonpayable",
      "type": "function"
    },
    {
      "inputs": [
        {
          "internalType": "address",
          "name": "_contractAddress",
          "type": "address"
        }
      ],
      "name": "setVariablesContract",
      "outputs": [],
      "stateMutability": "nonpayable",
      "type": "function"
    },
    {
      "inputs": [
        {
          "internalType": "address",
          "name": "_address",
          "type": "address"
        },
        {
          "internalType": "uint256",
          "name": "_value",
          "type": "uint256"
        }
      ],
      "name": "transferETH",
      "outputs": [],
      "stateMutability": "nonpayable",
      "type": "function"
    },
    {
      "inputs": [
        {
          "internalType": "address",
          "name": "newOwner",
          "type": "address"
        }
      ],
      "name": "transferOwnership",
      "outputs": [],
      "stateMutability": "nonpayable",
      "type": "function"
    },
    {
      "inputs": [],
      "name": "unpauseAdmin",
      "outputs": [],
      "stateMutability": "nonpayable",
      "type": "function"
    },
    {
      "inputs": [
        {
          "internalType": "address",
          "name": "newImplementation",
          "type": "address"
        }
      ],
      "name": "upgradeTo",
      "outputs": [],
      "stateMutability": "nonpayable",
      "type": "function"
    },
    {
      "inputs": [
        {
          "internalType": "address",
          "name": "newImplementation",
          "type": "address"
        },
        {
          "internalType": "bytes",
          "name": "data",
          "type": "bytes"
        }
      ],
      "name": "upgradeToAndCall",
      "outputs": [],
      "stateMutability": "payable",
      "type": "function"
    },
    {
      "inputs": [],
      "name": "withdrawETH",
      "outputs": [],
      "stateMutability": "nonpayable",
      "type": "function"
    },
    {
      "inputs": [
        {
          "internalType": "address",
          "name": "_tokenAddress",
          "type": "address"
        },
        {
          "internalType": "uint256",
          "name": "_value",
          "type": "uint256"
        }
      ],
      "name": "withdrawTokens",
      "outputs": [],
      "stateMutability": "nonpayable",
      "type": "function"
    },
    {
      "stateMutability": "payable",
      "type": "receive"
    }
  ],
  "bytecode": "0x60a06040523060805234801561001457600080fd5b5060805161242c61004c60003960008181610a6c01528181610ab501528181610b5401528181610b940152610c27015261242c6000f3fe6080604052600436106101235760003560e01c80637b1a4909116100a0578063de863da311610064578063de863da3146102fd578063e086e5ec14610346578063f13a143f1461035b578063f2fde38b14610379578063fea7b48a1461039957600080fd5b80637b1a4909146102615780638129fc1c146102815780638da5cb5b14610296578063b9439d20146102c8578063db5184e6146102e857600080fd5b80634f0371d7116100e75780634f0371d7146101c65780634f1ef286146101f357806352d1902d146102065780635c975abb14610229578063715018a61461024c57600080fd5b806306b091f91461012f5780630ba0dba314610151578063182feeaa146101715780632f11d653146101915780633659cfe6146101a657600080fd5b3661012a57005b600080fd5b34801561013b57600080fd5b5061014f61014a366004611dee565b6103b9565b005b34801561015d57600080fd5b5061014f61016c366004611e1a565b610437565b34801561017d57600080fd5b5061014f61018c366004611e83565b610461565b34801561019d57600080fd5b5061014f610a50565b3480156101b257600080fd5b5061014f6101c1366004611e1a565b610a62565b3480156101d257600080fd5b5060fe5460ff54604080519283526020830191909152015b60405180910390f35b61014f610201366004611f64565b610b4a565b34801561021257600080fd5b5061021b610c1a565b6040519081526020016101ea565b34801561023557600080fd5b5060655460ff1660405190151581526020016101ea565b34801561025857600080fd5b5061014f610ccd565b34801561026d57600080fd5b5061014f61027c366004611dee565b610cdf565b34801561028d57600080fd5b5061014f610d1d565b3480156102a257600080fd5b506033546001600160a01b03165b6040516001600160a01b0390911681526020016101ea565b3480156102d457600080fd5b5061014f6102e3366004611dee565b610e88565b3480156102f457600080fd5b5061014f6114e9565b34801561030957600080fd5b5060fd5461010080546040805193845260ff80831615156020860152928204831615159084015262010000900416151560608201526080016101ea565b34801561035257600080fd5b5061014f6114f9565b34801561036757600080fd5b5060fb546001600160a01b03166102b0565b34801561038557600080fd5b5061014f610394366004611e1a565b61152d565b3480156103a557600080fd5b5061014f6103b436600461201a565b6115a3565b6103c16115e6565b60405163a9059cbb60e01b8152336004820152602481018290526001600160a01b0383169063a9059cbb906044016020604051808303816000875af115801561040e573d6000803e3d6000fd5b505050506040513d601f19601f82011682018060405250810190610432919061206d565b505050565b61043f6115e6565b60fb80546001600160a01b0319166001600160a01b0392909216919091179055565b6104696115e6565b60fb5485906001600160a01b031660005b82811015610a455760008989838181106104965761049661208a565b90506020020160208101906104ab9190611e1a565b90506000836001600160a01b0316634bc92d6c6040518163ffffffff1660e01b8152600401602060405180830381865afa1580156104ed573d6000803e3d6000fd5b505050506040513d601f19601f8201168201806040525081019061051191906120a0565b905060008787858181106105275761052761208a565b90506020020135670de0b6b3a764000061054191906120cf565b9050600061067d866001600160a01b031663b70cc4c16040518163ffffffff1660e01b8152600401602060405180830381865afa158015610586573d6000803e3d6000fd5b505050506040513d601f19601f820116820180604052508101906105aa91906120e6565b6105b48585612103565b886001600160a01b03166355a373d66040518163ffffffff1660e01b8152600401602060405180830381865afa1580156105f2573d6000803e3d6000fd5b505050506040513d601f19601f8201168201806040525081019061061691906120e6565b896001600160a01b0316638290c4a66040518163ffffffff1660e01b8152600401602060405180830381865afa158015610654573d6000803e3d6000fd5b505050506040513d601f19601f8201168201806040525081019061067891906120e6565b611640565b6101005490915060ff161561078057856001600160a01b031663ee99205c6040518163ffffffff1660e01b8152600401602060405180830381865afa1580156106ca573d6000803e3d6000fd5b505050506040513d601f19601f820116820180604052508101906106ee91906120e6565b6001600160a01b0316636a50eefa85836001815181106107105761071061208a565b60200260200101516040518363ffffffff1660e01b81526004016107499291906001600160a01b03929092168252602082015260400190565b600060405180830381600087803b15801561076357600080fd5b505af1158015610777573d6000803e3d6000fd5b50505050610882565b856001600160a01b03166355a373d66040518163ffffffff1660e01b8152600401602060405180830381865afa1580156107be573d6000803e3d6000fd5b505050506040513d601f19601f820116820180604052508101906107e291906120e6565b6001600160a01b031663a9059cbb85836001815181106108045761080461208a565b60200260200101516040518363ffffffff1660e01b815260040161083d9291906001600160a01b03929092168252602082015260400190565b6020604051808303816000875af115801561085c573d6000803e3d6000fd5b505050506040513d601f19601f82011682018060405250810190610880919061206d565b505b61010080540460ff161561099a57856001600160a01b0316637dad19db6040518163ffffffff1660e01b8152600401602060405180830381865afa1580156108ce573d6000803e3d6000fd5b505050506040513d601f19601f820116820180604052508101906108f291906120e6565b6001600160a01b031663228159b461090a8585612103565b868e8e8a81811061091d5761091d61208a565b90506020020160208101906109329190611e1a565b6040516001600160e01b031960e086901b16815260048101939093526001600160a01b039182166024840152166044820152606401600060405180830381600087803b15801561098157600080fd5b505af1158015610995573d6000803e3d6000fd5b505050505b7f629a485b55f72b3241f1b41ff1864e029996d1cf7d54ef632b907af140f57430866001600160a01b0316634bc92d6c6040518163ffffffff1660e01b8152600401602060405180830381865afa1580156109f9573d6000803e3d6000fd5b505050506040513d601f19601f82011682018060405250810190610a1d91906120a0565b60405190815260200160405180910390a1505050508080610a3d90612116565b91505061047a565b505050505050505050565b610a586115e6565b610a606117c3565b565b6001600160a01b037f0000000000000000000000000000000000000000000000000000000000000000163003610ab35760405162461bcd60e51b8152600401610aaa9061212f565b60405180910390fd5b7f00000000000000000000000000000000000000000000000000000000000000006001600160a01b0316610afc6000805160206123b0833981519152546001600160a01b031690565b6001600160a01b031614610b225760405162461bcd60e51b8152600401610aaa9061217b565b610b2b8161181d565b60408051600080825260208201909252610b4791839190611825565b50565b6001600160a01b037f0000000000000000000000000000000000000000000000000000000000000000163003610b925760405162461bcd60e51b8152600401610aaa9061212f565b7f00000000000000000000000000000000000000000000000000000000000000006001600160a01b0316610bdb6000805160206123b0833981519152546001600160a01b031690565b6001600160a01b031614610c015760405162461bcd60e51b8152600401610aaa9061217b565b610c0a8261181d565b610c1682826001611825565b5050565b6000306001600160a01b037f00000000000000000000000000000000000000000000000000000000000000001614610cba5760405162461bcd60e51b815260206004820152603860248201527f555550535570677261646561626c653a206d757374206e6f742062652063616c60448201527f6c6564207468726f7567682064656c656761746563616c6c00000000000000006064820152608401610aaa565b506000805160206123b083398151915290565b610cd56115e6565b610a606000611990565b610ce76115e6565b6040516001600160a01b0383169082156108fc029083906000818181858888f19350505050158015610432573d6000803e3d6000fd5b600054610100900460ff1615808015610d3d5750600054600160ff909116105b80610d575750303b158015610d57575060005460ff166001145b610dba5760405162461bcd60e51b815260206004820152602e60248201527f496e697469616c697a61626c653a20636f6e747261637420697320616c72656160448201526d191e481a5b9a5d1a585b1a5e995960921b6064820152608401610aaa565b6000805460ff191660011790558015610ddd576000805461ff0019166101001790555b60fb80546001600160a01b03191673be5153baa3756402b08fd830e7b5f00a76e6823117905566038d7ea4c6800060fc556801158e460913d0000060fd55610100805462ffffff19169055610e306119e2565b610e38611a11565b610e40611a40565b8015610b47576000805461ff0019169055604051600181527f7f26b83ff96e1f2b6a682f133852f6798a09c465da95921460cefb38474024989060200160405180910390a150565b610e90611a67565b60fb54604080516312f24b5b60e21b815290516001600160a01b039092169133916000918491634bc92d6c9160048083019260209291908290030181865afa158015610ee0573d6000803e3d6000fd5b505050506040513d601f19601f82011682018060405250810190610f0491906120a0565b60fd549091508490811015610f675760405162461bcd60e51b815260206004820152602360248201527f415553442076616c7565206c657373207468656e206d696e206275792076616c6044820152623ab29760e91b6064820152608401610aaa565b836001600160a01b031663b70cc4c16040518163ffffffff1660e01b8152600401602060405180830381865afa158015610fa5573d6000803e3d6000fd5b505050506040513d601f19601f82011682018060405250810190610fc991906120e6565b6040516323b872dd60e01b81526001600160a01b0385811660048301523060248301526044820184905291909116906323b872dd906064016020604051808303816000875af1158015611020573d6000803e3d6000fd5b505050506040513d601f19601f82011682018060405250810190611044919061206d565b506000611156856001600160a01b031663b70cc4c16040518163ffffffff1660e01b8152600401602060405180830381865afa158015611088573d6000803e3d6000fd5b505050506040513d601f19601f820116820180604052508101906110ac91906120e6565b6110b68585612103565b876001600160a01b03166355a373d66040518163ffffffff1660e01b8152600401602060405180830381865afa1580156110f4573d6000803e3d6000fd5b505050506040513d601f19601f8201168201806040525081019061111891906120e6565b886001600160a01b0316638290c4a66040518163ffffffff1660e01b8152600401602060405180830381865afa158015610654573d6000803e3d6000fd5b6101005490915060ff161561125957846001600160a01b031663ee99205c6040518163ffffffff1660e01b8152600401602060405180830381865afa1580156111a3573d6000803e3d6000fd5b505050506040513d601f19601f820116820180604052508101906111c791906120e6565b6001600160a01b0316636a50eefa85836001815181106111e9576111e961208a565b60200260200101516040518363ffffffff1660e01b81526004016112229291906001600160a01b03929092168252602082015260400190565b600060405180830381600087803b15801561123c57600080fd5b505af1158015611250573d6000803e3d6000fd5b5050505061135b565b846001600160a01b03166355a373d66040518163ffffffff1660e01b8152600401602060405180830381865afa158015611297573d6000803e3d6000fd5b505050506040513d601f19601f820116820180604052508101906112bb91906120e6565b6001600160a01b031663a9059cbb85836001815181106112dd576112dd61208a565b60200260200101516040518363ffffffff1660e01b81526004016113169291906001600160a01b03929092168252602082015260400190565b6020604051808303816000875af1158015611335573d6000803e3d6000fd5b505050506040513d601f19601f82011682018060405250810190611359919061206d565b505b61010080540460ff161561144c57846001600160a01b0316637dad19db6040518163ffffffff1660e01b8152600401602060405180830381865afa1580156113a7573d6000803e3d6000fd5b505050506040513d601f19601f820116820180604052508101906113cb91906120e6565b6001600160a01b031663228159b46113e38585612103565b6040516001600160e01b031960e084901b16815260048101919091526001600160a01b0380881660248301528a166044820152606401600060405180830381600087803b15801561143357600080fd5b505af1158015611447573d6000803e3d6000fd5b505050505b7f629a485b55f72b3241f1b41ff1864e029996d1cf7d54ef632b907af140f57430856001600160a01b0316634bc92d6c6040518163ffffffff1660e01b8152600401602060405180830381865afa1580156114ab573d6000803e3d6000fd5b505050506040513d601f19601f820116820180604052508101906114cf91906120a0565b60405190815260200160405180910390a150505050505050565b6114f16115e6565b610a60611aad565b6115016115e6565b60405133904780156108fc02916000818181858888f19350505050158015610b47573d6000803e3d6000fd5b6115356115e6565b6001600160a01b03811661159a5760405162461bcd60e51b815260206004820152602660248201527f4f776e61626c653a206e6577206f776e657220697320746865207a65726f206160448201526564647265737360d01b6064820152608401610aaa565b610b4781611990565b6115ab6115e6565b60fd93909355610100805461ffff191692151561ff0019169290921790151582021762ff000019166201000092151592909202919091179055565b6033546001600160a01b03163314610a605760405162461bcd60e51b815260206004820181905260248201527f4f776e61626c653a2063616c6c6572206973206e6f7420746865206f776e65726044820152606401610aaa565b6040805160028082526060808301845292600092919060208301908036833701905050905085816000815181106116795761167961208a565b60200260200101906001600160a01b031690816001600160a01b03168152505083816001815181106116ad576116ad61208a565b6001600160a01b03928316602091820292909201015260405163095ea7b360e01b81528482166004820152602481018790529087169063095ea7b3906044016020604051808303816000875af115801561170b573d6000803e3d6000fd5b505050506040513d601f19601f8201168201806040525081019061172f919061206d565b5060006001600160a01b0384166338ed173987600185306117514260646121c7565b6040518663ffffffff1660e01b81526004016117719594939291906121da565b6000604051808303816000875af1158015611790573d6000803e3d6000fd5b505050506040513d6000823e601f3d908101601f191682016040526117b8919081019061224b565b979650505050505050565b6117cb611a67565b6065805460ff191660011790557f62e78cea01bee320cd4e420270b5ea74000d11b0c9f74754ebdbfc544b05a2586118003390565b6040516001600160a01b03909116815260200160405180910390a1565b610b476115e6565b7f4910fdfa16fed3260ed0e7147f7cc6da11a60208b5b9406d12a635614ffd91435460ff16156118585761043283611ae6565b826001600160a01b03166352d1902d6040518163ffffffff1660e01b8152600401602060405180830381865afa9250505080156118b2575060408051601f3d908101601f191682019092526118af918101906120a0565b60015b6119155760405162461bcd60e51b815260206004820152602e60248201527f45524331393637557067726164653a206e657720696d706c656d656e7461746960448201526d6f6e206973206e6f74205555505360901b6064820152608401610aaa565b6000805160206123b083398151915281146119845760405162461bcd60e51b815260206004820152602960248201527f45524331393637557067726164653a20756e737570706f727465642070726f786044820152681a58589b195555525160ba1b6064820152608401610aaa565b50610432838383611b82565b603380546001600160a01b038381166001600160a01b0319831681179093556040519116919082907f8be0079c531659141344cd1fd0a4f28419497f9722a3daafe3b4186f6b6457e090600090a35050565b600054610100900460ff16611a095760405162461bcd60e51b8152600401610aaa906122f1565b610a60611bad565b600054610100900460ff16611a385760405162461bcd60e51b8152600401610aaa906122f1565b610a60611be0565b600054610100900460ff16610a605760405162461bcd60e51b8152600401610aaa906122f1565b60655460ff1615610a605760405162461bcd60e51b815260206004820152601060248201526f14185d5cd8589b194e881c185d5cd95960821b6044820152606401610aaa565b611ab5611c10565b6065805460ff191690557f5db9ee0a495bf2e6ff9c91a7834c1ba4fdd244a5e8aa4e537bd38aeae4b073aa33611800565b6001600160a01b0381163b611b535760405162461bcd60e51b815260206004820152602d60248201527f455243313936373a206e657720696d706c656d656e746174696f6e206973206e60448201526c1bdd08184818dbdb9d1c9858dd609a1b6064820152608401610aaa565b6000805160206123b083398151915280546001600160a01b0319166001600160a01b0392909216919091179055565b611b8b83611c59565b600082511180611b985750805b1561043257611ba78383611c99565b50505050565b600054610100900460ff16611bd45760405162461bcd60e51b8152600401610aaa906122f1565b6065805460ff19169055565b600054610100900460ff16611c075760405162461bcd60e51b8152600401610aaa906122f1565b610a6033611990565b60655460ff16610a605760405162461bcd60e51b815260206004820152601460248201527314185d5cd8589b194e881b9bdd081c185d5cd95960621b6044820152606401610aaa565b611c6281611ae6565b6040516001600160a01b038216907fbc7cd75a20ee27fd9adebab32041f755214dbc6bffa90cc0225b39da2e5c2d3b90600090a250565b60606001600160a01b0383163b611d015760405162461bcd60e51b815260206004820152602660248201527f416464726573733a2064656c65676174652063616c6c20746f206e6f6e2d636f6044820152651b9d1c9858dd60d21b6064820152608401610aaa565b600080846001600160a01b031684604051611d1c9190612360565b600060405180830381855af49150503d8060008114611d57576040519150601f19603f3d011682016040523d82523d6000602084013e611d5c565b606091505b5091509150611d8482826040518060600160405280602781526020016123d060279139611d8f565b925050505b92915050565b60608315611d9e575081611da8565b611da88383611daf565b9392505050565b815115611dbf5781518083602001fd5b8060405162461bcd60e51b8152600401610aaa919061237c565b6001600160a01b0381168114610b4757600080fd5b60008060408385031215611e0157600080fd5b8235611e0c81611dd9565b946020939093013593505050565b600060208284031215611e2c57600080fd5b8135611da881611dd9565b60008083601f840112611e4957600080fd5b50813567ffffffffffffffff811115611e6157600080fd5b6020830191508360208260051b8501011115611e7c57600080fd5b9250929050565b60008060008060008060608789031215611e9c57600080fd5b863567ffffffffffffffff80821115611eb457600080fd5b611ec08a838b01611e37565b90985096506020890135915080821115611ed957600080fd5b611ee58a838b01611e37565b90965094506040890135915080821115611efe57600080fd5b50611f0b89828a01611e37565b979a9699509497509295939492505050565b634e487b7160e01b600052604160045260246000fd5b604051601f8201601f1916810167ffffffffffffffff81118282101715611f5c57611f5c611f1d565b604052919050565b60008060408385031215611f7757600080fd5b8235611f8281611dd9565b915060208381013567ffffffffffffffff80821115611fa057600080fd5b818601915086601f830112611fb457600080fd5b813581811115611fc657611fc6611f1d565b611fd8601f8201601f19168501611f33565b91508082528784828501011115611fee57600080fd5b80848401858401376000848284010152508093505050509250929050565b8015158114610b4757600080fd5b6000806000806080858703121561203057600080fd5b8435935060208501356120428161200c565b925060408501356120528161200c565b915060608501356120628161200c565b939692955090935050565b60006020828403121561207f57600080fd5b8151611da88161200c565b634e487b7160e01b600052603260045260246000fd5b6000602082840312156120b257600080fd5b5051919050565b634e487b7160e01b600052601160045260246000fd5b8082028115828204841417611d8957611d896120b9565b6000602082840312156120f857600080fd5b8151611da881611dd9565b81810381811115611d8957611d896120b9565b600060018201612128576121286120b9565b5060010190565b6020808252602c908201527f46756e6374696f6e206d7573742062652063616c6c6564207468726f7567682060408201526b19195b1959d85d1958d85b1b60a21b606082015260800190565b6020808252602c908201527f46756e6374696f6e206d7573742062652063616c6c6564207468726f7567682060408201526b6163746976652070726f787960a01b606082015260800190565b80820180821115611d8957611d896120b9565b600060a082018783526020878185015260a0604085015281875180845260c086019150828901935060005b8181101561222a5784516001600160a01b031683529383019391830191600101612205565b50506001600160a01b03969096166060850152505050608001529392505050565b6000602080838503121561225e57600080fd5b825167ffffffffffffffff8082111561227657600080fd5b818501915085601f83011261228a57600080fd5b81518181111561229c5761229c611f1d565b8060051b91506122ad848301611f33565b81815291830184019184810190888411156122c757600080fd5b938501935b838510156122e5578451825293850193908501906122cc565b98975050505050505050565b6020808252602b908201527f496e697469616c697a61626c653a20636f6e7472616374206973206e6f74206960408201526a6e697469616c697a696e6760a81b606082015260800190565b60005b8381101561235757818101518382015260200161233f565b50506000910152565b6000825161237281846020870161233c565b9190910192915050565b602081526000825180602084015261239b81604085016020870161233c565b601f01601f1916919091016040019291505056fe360894a13ba1a3210667c828492db98dca3e2076cc3735a920a3ca505d382bbc416464726573733a206c6f772d6c6576656c2064656c65676174652063616c6c206661696c6564a2646970667358221220424d7776953f1c27b0db7ab38d2496d23fcf24ab26211689771927c12cbc003964736f6c63430008110033",
  "linkReferences": {},
  "deployedLinkReferences": {}
}