{
  "_format": "hh-sol-artifact-1",
  "contractName": "PresaleUpgradeable",
  "sourceName": "contracts/PresaleUpgradeable.sol",
  "abi": [
    {
      "anonymous": false,
      "inputs": [
        {
          "indexed": false,
          "internalType": "address",
          "name": "previousAdmin",
          "type": "address"
        },
        {
          "indexed": false,
          "internalType": "address",
          "name": "newAdmin",
          "type": "address"
        }
      ],
      "name": "AdminChanged",
      "type": "event"
    },
    {
      "anonymous": false,
      "inputs": [
        {
          "indexed": true,
          "internalType": "address",
          "name": "beacon",
          "type": "address"
        }
      ],
      "name": "BeaconUpgraded",
      "type": "event"
    },
    {
      "anonymous": false,
      "inputs": [
        {
          "indexed": false,
          "internalType": "uint8",
          "name": "version",
          "type": "uint8"
        }
      ],
      "name": "Initialized",
      "type": "event"
    },
    {
      "anonymous": false,
      "inputs": [
        {
          "indexed": true,
          "internalType": "address",
          "name": "previousOwner",
          "type": "address"
        },
        {
          "indexed": true,
          "internalType": "address",
          "name": "newOwner",
          "type": "address"
        }
      ],
      "name": "OwnershipTransferred",
      "type": "event"
    },
    {
      "anonymous": false,
      "inputs": [
        {
          "indexed": false,
          "internalType": "address",
          "name": "account",
          "type": "address"
        }
      ],
      "name": "Paused",
      "type": "event"
    },
    {
      "anonymous": false,
      "inputs": [
        {
          "indexed": false,
          "internalType": "uint256",
          "name": "amount",
          "type": "uint256"
        }
      ],
      "name": "RegistrationFees",
      "type": "event"
    },
    {
      "anonymous": false,
      "inputs": [
        {
          "indexed": true,
          "internalType": "address",
          "name": "to",
          "type": "address"
        },
        {
          "indexed": true,
          "internalType": "uint256",
          "name": "tokenValue",
          "type": "uint256"
        },
        {
          "indexed": true,
          "internalType": "address",
          "name": "rewardTokenContract",
          "type": "address"
        }
      ],
      "name": "RewardTokenDistributed",
      "type": "event"
    },
    {
      "anonymous": false,
      "inputs": [
        {
          "indexed": true,
          "internalType": "address",
          "name": "from",
          "type": "address"
        },
        {
          "indexed": true,
          "internalType": "uint256",
          "name": "tokenValue",
          "type": "uint256"
        },
        {
          "indexed": true,
          "internalType": "uint256",
          "name": "ethValue",
          "type": "uint256"
        },
        {
          "indexed": false,
          "internalType": "string",
          "name": "currency",
          "type": "string"
        }
      ],
      "name": "TokenPurchased",
      "type": "event"
    },
    {
      "anonymous": false,
      "inputs": [
        {
          "indexed": false,
          "internalType": "address",
          "name": "account",
          "type": "address"
        }
      ],
      "name": "Unpaused",
      "type": "event"
    },
    {
      "anonymous": false,
      "inputs": [
        {
          "indexed": true,
          "internalType": "address",
          "name": "implementation",
          "type": "address"
        }
      ],
      "name": "Upgraded",
      "type": "event"
    },
    {
      "inputs": [
        {
          "internalType": "address",
          "name": "_referrerAddress",
          "type": "address"
        },
        {
          "internalType": "uint256",
          "name": "_valueInWei",
          "type": "uint256"
        }
      ],
      "name": "BuyWithANUSD",
      "outputs": [],
      "stateMutability": "nonpayable",
      "type": "function"
    },
    {
      "inputs": [
        {
          "internalType": "address[]",
          "name": "_userAddress",
          "type": "address[]"
        },
        {
          "internalType": "address[]",
          "name": "_referrerAddress",
          "type": "address[]"
        },
        {
          "internalType": "uint256[]",
          "name": "_valueInUSDDecimals",
          "type": "uint256[]"
        }
      ],
      "name": "BuyWithANUSDAdmin",
      "outputs": [],
      "stateMutability": "nonpayable",
      "type": "function"
    },
    {
      "inputs": [],
      "name": "getAnalystics",
      "outputs": [
        {
          "internalType": "uint256",
          "name": "tokenSold",
          "type": "uint256"
        },
        {
          "internalType": "uint256",
          "name": "ausdRaised",
          "type": "uint256"
        }
      ],
      "stateMutability": "view",
      "type": "function"
    },
    {
      "inputs": [],
      "name": "getCapping",
      "outputs": [
        {
          "internalType": "uint256",
          "name": "minConUSD",
          "type": "uint256"
        },
        {
          "internalType": "bool",
          "name": "isBuyStakeEnabled",
          "type": "bool"
        },
        {
          "internalType": "bool",
          "name": "isPayReferralEnabled",
          "type": "bool"
        },
        {
          "internalType": "bool",
          "name": "isPayRewardTokenEnabled",
          "type": "bool"
        },
        {
          "internalType": "uint256",
          "name": "maxBuyLimitANUSD",
          "type": "uint256"
        }
      ],
      "stateMutability": "view",
      "type": "function"
    },
    {
      "inputs": [],
      "name": "getVariablesContract",
      "outputs": [
        {
          "internalType": "address",
          "name": "",
          "type": "address"
        }
      ],
      "stateMutability": "view",
      "type": "function"
    },
    {
      "inputs": [],
      "name": "initialize",
      "outputs": [],
      "stateMutability": "nonpayable",
      "type": "function"
    },
    {
      "inputs": [],
      "name": "owner",
      "outputs": [
        {
          "internalType": "address",
          "name": "",
          "type": "address"
        }
      ],
      "stateMutability": "view",
      "type": "function"
    },
    {
      "inputs": [],
      "name": "pauseAdmin",
      "outputs": [],
      "stateMutability": "nonpayable",
      "type": "function"
    },
    {
      "inputs": [],
      "name": "paused",
      "outputs": [
        {
          "internalType": "bool",
          "name": "",
          "type": "bool"
        }
      ],
      "stateMutability": "view",
      "type": "function"
    },
    {
      "inputs": [],
      "name": "proxiableUUID",
      "outputs": [
        {
          "internalType": "bytes32",
          "name": "",
          "type": "bytes32"
        }
      ],
      "stateMutability": "view",
      "type": "function"
    },
    {
      "inputs": [],
      "name": "renounceOwnership",
      "outputs": [],
      "stateMutability": "nonpayable",
      "type": "function"
    },
    {
      "inputs": [
        {
          "internalType": "uint256",
          "name": "minConUSD",
          "type": "uint256"
        },
        {
          "internalType": "bool",
          "name": "isBuyNStake",
          "type": "bool"
        },
        {
          "internalType": "bool",
          "name": "isPayReferral",
          "type": "bool"
        },
        {
          "internalType": "bool",
          "name": "isPayRewardTokens",
          "type": "bool"
        },
        {
          "internalType": "uint256",
          "name": "maxBuyLimitANUSD",
          "type": "uint256"
        }
      ],
      "name": "setCapping",
      "outputs": [],
      "stateMutability": "nonpayable",
      "type": "function"
    },
    {
      "inputs": [
        {
          "internalType": "address",
          "name": "_contractAddress",
          "type": "address"
        }
      ],
      "name": "setVariablesContract",
      "outputs": [],
      "stateMutability": "nonpayable",
      "type": "function"
    },
    {
      "inputs": [
        {
          "internalType": "address",
          "name": "_address",
          "type": "address"
        },
        {
          "internalType": "uint256",
          "name": "_value",
          "type": "uint256"
        }
      ],
      "name": "transferETH",
      "outputs": [],
      "stateMutability": "nonpayable",
      "type": "function"
    },
    {
      "inputs": [
        {
          "internalType": "address",
          "name": "newOwner",
          "type": "address"
        }
      ],
      "name": "transferOwnership",
      "outputs": [],
      "stateMutability": "nonpayable",
      "type": "function"
    },
    {
      "inputs": [],
      "name": "unpauseAdmin",
      "outputs": [],
      "stateMutability": "nonpayable",
      "type": "function"
    },
    {
      "inputs": [
        {
          "internalType": "address",
          "name": "newImplementation",
          "type": "address"
        }
      ],
      "name": "upgradeTo",
      "outputs": [],
      "stateMutability": "nonpayable",
      "type": "function"
    },
    {
      "inputs": [
        {
          "internalType": "address",
          "name": "newImplementation",
          "type": "address"
        },
        {
          "internalType": "bytes",
          "name": "data",
          "type": "bytes"
        }
      ],
      "name": "upgradeToAndCall",
      "outputs": [],
      "stateMutability": "payable",
      "type": "function"
    },
    {
      "inputs": [],
      "name": "withdrawETH",
      "outputs": [],
      "stateMutability": "nonpayable",
      "type": "function"
    },
    {
      "inputs": [
        {
          "internalType": "address",
          "name": "_tokenAddress",
          "type": "address"
        },
        {
          "internalType": "uint256",
          "name": "_value",
          "type": "uint256"
        }
      ],
      "name": "withdrawTokens",
      "outputs": [],
      "stateMutability": "nonpayable",
      "type": "function"
    },
    {
      "stateMutability": "payable",
      "type": "receive"
    }
  ],
  "bytecode": "0x60a06040523060805234801561001457600080fd5b506080516122c261004c600039600081816109300152818161097901528181610a1801528181610a580152610aeb01526122c26000f3fe6080604052600436106101235760003560e01c8063715018a6116100a0578063db5184e611610064578063db5184e614610308578063de863da31461031d578063e086e5ec14610372578063f13a143f14610387578063f2fde38b146103a557600080fd5b8063715018a61461026c5780637b1a4909146102815780638129fc1c146102a15780638da5cb5b146102b6578063b9439d20146102e857600080fd5b80634f0371d7116100e75780634f0371d7146101c65780634f1ef286146101f357806352d1902d146102065780635c975abb146102295780636740090a1461024c57600080fd5b806306b091f91461012f5780630ba0dba314610151578063182feeaa146101715780632f11d653146101915780633659cfe6146101a657600080fd5b3661012a57005b600080fd5b34801561013b57600080fd5b5061014f61014a366004611c7c565b6103c5565b005b34801561015d57600080fd5b5061014f61016c366004611ca8565b610443565b34801561017d57600080fd5b5061014f61018c366004611d11565b61046d565b34801561019d57600080fd5b5061014f610914565b3480156101b257600080fd5b5061014f6101c1366004611ca8565b610926565b3480156101d257600080fd5b5060fe5460ff54604080519283526020830191909152015b60405180910390f35b61014f610201366004611df2565b610a0e565b34801561021257600080fd5b5061021b610ade565b6040519081526020016101ea565b34801561023557600080fd5b5060655460ff1660405190151581526020016101ea565b34801561025857600080fd5b5061014f610267366004611ea8565b610b91565b34801561027857600080fd5b5061014f610bd8565b34801561028d57600080fd5b5061014f61029c366004611c7c565b610bea565b3480156102ad57600080fd5b5061014f610c28565b3480156102c257600080fd5b506033546001600160a01b03165b6040516001600160a01b0390911681526020016101ea565b3480156102f457600080fd5b5061014f610303366004611c7c565b610da6565b34801561031457600080fd5b5061014f6113ba565b34801561032957600080fd5b5060fd546101008054610101546040805194855260ff8084161515602087015293830484161515908501526201000090910490911615156060830152608082015260a0016101ea565b34801561037e57600080fd5b5061014f6113ca565b34801561039357600080fd5b5060fb546001600160a01b03166102d0565b3480156103b157600080fd5b5061014f6103c0366004611ca8565b6113fe565b6103cd611474565b60405163a9059cbb60e01b8152336004820152602481018290526001600160a01b0383169063a9059cbb906044016020604051808303816000875af115801561041a573d6000803e3d6000fd5b505050506040513d601f19601f8201168201806040525081019061043e9190611f03565b505050565b61044b611474565b60fb80546001600160a01b0319166001600160a01b0392909216919091179055565b610475611474565b60fb5485906001600160a01b031660005b82811015610909576000826001600160a01b0316634bc92d6c6040518163ffffffff1660e01b8152600401602060405180830381865afa1580156104ce573d6000803e3d6000fd5b505050506040513d601f19601f820116820180604052508101906104f29190611f20565b9050600086868481811061050857610508611f39565b90506020020135670de0b6b3a76400006105229190611f65565b9050600061065e856001600160a01b031663b70cc4c16040518163ffffffff1660e01b8152600401602060405180830381865afa158015610567573d6000803e3d6000fd5b505050506040513d601f19601f8201168201806040525081019061058b9190611f7c565b6105958585611f99565b876001600160a01b03166355a373d66040518163ffffffff1660e01b8152600401602060405180830381865afa1580156105d3573d6000803e3d6000fd5b505050506040513d601f19601f820116820180604052508101906105f79190611f7c565b886001600160a01b0316638290c4a66040518163ffffffff1660e01b8152600401602060405180830381865afa158015610635573d6000803e3d6000fd5b505050506040513d601f19601f820116820180604052508101906106599190611f7c565b6114ce565b6101005490915060ff16156107a457846001600160a01b031663ee99205c6040518163ffffffff1660e01b8152600401602060405180830381865afa1580156106ab573d6000803e3d6000fd5b505050506040513d601f19601f820116820180604052508101906106cf9190611f7c565b6001600160a01b031663310c9b208d8d878181106106ef576106ef611f39565b90506020020160208101906107049190611ca8565b8360018151811061071757610717611f39565b60200260200101518460008151811061073257610732611f39565b60209081029190910101516040516001600160e01b031960e086901b1681526001600160a01b03909316600484015260248301919091526044820152606401600060405180830381600087803b15801561078b57600080fd5b505af115801561079f573d6000803e3d6000fd5b505050505b61010080540460ff16156108f357846001600160a01b0316637dad19db6040518163ffffffff1660e01b8152600401602060405180830381865afa1580156107f0573d6000803e3d6000fd5b505050506040513d601f19601f820116820180604052508101906108149190611f7c565b6001600160a01b031663228159b48260008151811061083557610835611f39565b60200260200101518e8e8881811061084f5761084f611f39565b90506020020160208101906108649190611ca8565b8d8d8981811061087657610876611f39565b905060200201602081019061088b9190611ca8565b6040516001600160e01b031960e086901b16815260048101939093526001600160a01b039182166024840152166044820152606401600060405180830381600087803b1580156108da57600080fd5b505af11580156108ee573d6000803e3d6000fd5b505050505b505050808061090190611fac565b915050610486565b505050505050505050565b61091c611474565b610924611651565b565b6001600160a01b037f00000000000000000000000000000000000000000000000000000000000000001630036109775760405162461bcd60e51b815260040161096e90611fc5565b60405180910390fd5b7f00000000000000000000000000000000000000000000000000000000000000006001600160a01b03166109c0600080516020612246833981519152546001600160a01b031690565b6001600160a01b0316146109e65760405162461bcd60e51b815260040161096e90612011565b6109ef816116ab565b60408051600080825260208201909252610a0b918391906116b3565b50565b6001600160a01b037f0000000000000000000000000000000000000000000000000000000000000000163003610a565760405162461bcd60e51b815260040161096e90611fc5565b7f00000000000000000000000000000000000000000000000000000000000000006001600160a01b0316610a9f600080516020612246833981519152546001600160a01b031690565b6001600160a01b031614610ac55760405162461bcd60e51b815260040161096e90612011565b610ace826116ab565b610ada828260016116b3565b5050565b6000306001600160a01b037f00000000000000000000000000000000000000000000000000000000000000001614610b7e5760405162461bcd60e51b815260206004820152603860248201527f555550535570677261646561626c653a206d757374206e6f742062652063616c60448201527f6c6564207468726f7567682064656c656761746563616c6c0000000000000000606482015260840161096e565b5060008051602061224683398151915290565b610b99611474565b60fd94909455610100805461ffff191693151561ff0019169390931791151583029190911762ff00001916620100009115159190910217905561010155565b610be0611474565b610924600061181e565b610bf2611474565b6040516001600160a01b0383169082156108fc029083906000818181858888f1935050505015801561043e573d6000803e3d6000fd5b600054610100900460ff1615808015610c485750600054600160ff909116105b80610c625750303b158015610c62575060005460ff166001145b610cc55760405162461bcd60e51b815260206004820152602e60248201527f496e697469616c697a61626c653a20636f6e747261637420697320616c72656160448201526d191e481a5b9a5d1a585b1a5e995960921b606482015260840161096e565b6000805460ff191660011790558015610ce8576000805461ff0019166101001790555b60fb80546001600160a01b0319167377daafc7411c911b869c71bf70fe36cce507845d17905566038d7ea4c6800060fc556801158e460913d0000060fd55610100805462ffffff1916610101908117909155681ba5abf9e7793800009055610d4e611870565b610d5661189f565b610d5e6118ce565b8015610a0b576000805461ff0019169055604051600181527f7f26b83ff96e1f2b6a682f133852f6798a09c465da95921460cefb38474024989060200160405180910390a150565b610dae6118f5565b60fb54604080516312f24b5b60e21b815290516001600160a01b039092169133916000918491634bc92d6c9160048083019260209291908290030181865afa158015610dfe573d6000803e3d6000fd5b505050506040513d601f19601f82011682018060405250810190610e229190611f20565b60fd549091508490811015610e855760405162461bcd60e51b815260206004820152602360248201527f415553442076616c7565206c657373207468656e206d696e206275792076616c6044820152623ab29760e91b606482015260840161096e565b61010154811115610ed05760405162461bcd60e51b815260206004820152601560248201527413585e08189d5e481b1a5b5a5d081c995858da1959605a1b604482015260640161096e565b836001600160a01b031663b70cc4c16040518163ffffffff1660e01b8152600401602060405180830381865afa158015610f0e573d6000803e3d6000fd5b505050506040513d601f19601f82011682018060405250810190610f329190611f7c565b6040516323b872dd60e01b81526001600160a01b0385811660048301523060248301526044820184905291909116906323b872dd906064016020604051808303816000875af1158015610f89573d6000803e3d6000fd5b505050506040513d601f19601f82011682018060405250810190610fad9190611f03565b506000610ff1856001600160a01b031663b70cc4c16040518163ffffffff1660e01b8152600401602060405180830381865afa158015610567573d6000803e3d6000fd5b6101005490915060ff161561111557846001600160a01b031663ee99205c6040518163ffffffff1660e01b8152600401602060405180830381865afa15801561103e573d6000803e3d6000fd5b505050506040513d601f19601f820116820180604052508101906110629190611f7c565b6001600160a01b031663310c9b20858360018151811061108457611084611f39565b60200260200101518460008151811061109f5761109f611f39565b60209081029190910101516040516001600160e01b031960e086901b1681526001600160a01b03909316600484015260248301919091526044820152606401600060405180830381600087803b1580156110f857600080fd5b505af115801561110c573d6000803e3d6000fd5b50505050611217565b846001600160a01b03166355a373d66040518163ffffffff1660e01b8152600401602060405180830381865afa158015611153573d6000803e3d6000fd5b505050506040513d601f19601f820116820180604052508101906111779190611f7c565b6001600160a01b031663a9059cbb858360018151811061119957611199611f39565b60200260200101516040518363ffffffff1660e01b81526004016111d29291906001600160a01b03929092168252602082015260400190565b6020604051808303816000875af11580156111f1573d6000803e3d6000fd5b505050506040513d601f19601f820116820180604052508101906112159190611f03565b505b61010080540460ff161561131d57846001600160a01b0316637dad19db6040518163ffffffff1660e01b8152600401602060405180830381865afa158015611263573d6000803e3d6000fd5b505050506040513d601f19601f820116820180604052508101906112879190611f7c565b6001600160a01b031663228159b4826000815181106112a8576112a8611f39565b6020026020010151868a6040518463ffffffff1660e01b81526004016112ea939291909283526001600160a01b03918216602084015216604082015260600190565b600060405180830381600087803b15801561130457600080fd5b505af1158015611318573d6000803e3d6000fd5b505050505b7f629a485b55f72b3241f1b41ff1864e029996d1cf7d54ef632b907af140f57430856001600160a01b0316634bc92d6c6040518163ffffffff1660e01b8152600401602060405180830381865afa15801561137c573d6000803e3d6000fd5b505050506040513d601f19601f820116820180604052508101906113a09190611f20565b60405190815260200160405180910390a150505050505050565b6113c2611474565b61092461193b565b6113d2611474565b60405133904780156108fc02916000818181858888f19350505050158015610a0b573d6000803e3d6000fd5b611406611474565b6001600160a01b03811661146b5760405162461bcd60e51b815260206004820152602660248201527f4f776e61626c653a206e6577206f776e657220697320746865207a65726f206160448201526564647265737360d01b606482015260840161096e565b610a0b8161181e565b6033546001600160a01b031633146109245760405162461bcd60e51b815260206004820181905260248201527f4f776e61626c653a2063616c6c6572206973206e6f7420746865206f776e6572604482015260640161096e565b60408051600280825260608083018452926000929190602083019080368337019050509050858160008151811061150757611507611f39565b60200260200101906001600160a01b031690816001600160a01b031681525050838160018151811061153b5761153b611f39565b6001600160a01b03928316602091820292909201015260405163095ea7b360e01b81528482166004820152602481018790529087169063095ea7b3906044016020604051808303816000875af1158015611599573d6000803e3d6000fd5b505050506040513d601f19601f820116820180604052508101906115bd9190611f03565b5060006001600160a01b0384166338ed173987600185306115df42606461205d565b6040518663ffffffff1660e01b81526004016115ff959493929190612070565b6000604051808303816000875af115801561161e573d6000803e3d6000fd5b505050506040513d6000823e601f3d908101601f1916820160405261164691908101906120e1565b979650505050505050565b6116596118f5565b6065805460ff191660011790557f62e78cea01bee320cd4e420270b5ea74000d11b0c9f74754ebdbfc544b05a25861168e3390565b6040516001600160a01b03909116815260200160405180910390a1565b610a0b611474565b7f4910fdfa16fed3260ed0e7147f7cc6da11a60208b5b9406d12a635614ffd91435460ff16156116e65761043e83611974565b826001600160a01b03166352d1902d6040518163ffffffff1660e01b8152600401602060405180830381865afa925050508015611740575060408051601f3d908101601f1916820190925261173d91810190611f20565b60015b6117a35760405162461bcd60e51b815260206004820152602e60248201527f45524331393637557067726164653a206e657720696d706c656d656e7461746960448201526d6f6e206973206e6f74205555505360901b606482015260840161096e565b60008051602061224683398151915281146118125760405162461bcd60e51b815260206004820152602960248201527f45524331393637557067726164653a20756e737570706f727465642070726f786044820152681a58589b195555525160ba1b606482015260840161096e565b5061043e838383611a10565b603380546001600160a01b038381166001600160a01b0319831681179093556040519116919082907f8be0079c531659141344cd1fd0a4f28419497f9722a3daafe3b4186f6b6457e090600090a35050565b600054610100900460ff166118975760405162461bcd60e51b815260040161096e90612187565b610924611a3b565b600054610100900460ff166118c65760405162461bcd60e51b815260040161096e90612187565b610924611a6e565b600054610100900460ff166109245760405162461bcd60e51b815260040161096e90612187565b60655460ff16156109245760405162461bcd60e51b815260206004820152601060248201526f14185d5cd8589b194e881c185d5cd95960821b604482015260640161096e565b611943611a9e565b6065805460ff191690557f5db9ee0a495bf2e6ff9c91a7834c1ba4fdd244a5e8aa4e537bd38aeae4b073aa3361168e565b6001600160a01b0381163b6119e15760405162461bcd60e51b815260206004820152602d60248201527f455243313936373a206e657720696d706c656d656e746174696f6e206973206e60448201526c1bdd08184818dbdb9d1c9858dd609a1b606482015260840161096e565b60008051602061224683398151915280546001600160a01b0319166001600160a01b0392909216919091179055565b611a1983611ae7565b600082511180611a265750805b1561043e57611a358383611b27565b50505050565b600054610100900460ff16611a625760405162461bcd60e51b815260040161096e90612187565b6065805460ff19169055565b600054610100900460ff16611a955760405162461bcd60e51b815260040161096e90612187565b6109243361181e565b60655460ff166109245760405162461bcd60e51b815260206004820152601460248201527314185d5cd8589b194e881b9bdd081c185d5cd95960621b604482015260640161096e565b611af081611974565b6040516001600160a01b038216907fbc7cd75a20ee27fd9adebab32041f755214dbc6bffa90cc0225b39da2e5c2d3b90600090a250565b60606001600160a01b0383163b611b8f5760405162461bcd60e51b815260206004820152602660248201527f416464726573733a2064656c65676174652063616c6c20746f206e6f6e2d636f6044820152651b9d1c9858dd60d21b606482015260840161096e565b600080846001600160a01b031684604051611baa91906121f6565b600060405180830381855af49150503d8060008114611be5576040519150601f19603f3d011682016040523d82523d6000602084013e611bea565b606091505b5091509150611c12828260405180606001604052806027815260200161226660279139611c1d565b925050505b92915050565b60608315611c2c575081611c36565b611c368383611c3d565b9392505050565b815115611c4d5781518083602001fd5b8060405162461bcd60e51b815260040161096e9190612212565b6001600160a01b0381168114610a0b57600080fd5b60008060408385031215611c8f57600080fd5b8235611c9a81611c67565b946020939093013593505050565b600060208284031215611cba57600080fd5b8135611c3681611c67565b60008083601f840112611cd757600080fd5b50813567ffffffffffffffff811115611cef57600080fd5b6020830191508360208260051b8501011115611d0a57600080fd5b9250929050565b60008060008060008060608789031215611d2a57600080fd5b863567ffffffffffffffff80821115611d4257600080fd5b611d4e8a838b01611cc5565b90985096506020890135915080821115611d6757600080fd5b611d738a838b01611cc5565b90965094506040890135915080821115611d8c57600080fd5b50611d9989828a01611cc5565b979a9699509497509295939492505050565b634e487b7160e01b600052604160045260246000fd5b604051601f8201601f1916810167ffffffffffffffff81118282101715611dea57611dea611dab565b604052919050565b60008060408385031215611e0557600080fd5b8235611e1081611c67565b915060208381013567ffffffffffffffff80821115611e2e57600080fd5b818601915086601f830112611e4257600080fd5b813581811115611e5457611e54611dab565b611e66601f8201601f19168501611dc1565b91508082528784828501011115611e7c57600080fd5b80848401858401376000848284010152508093505050509250929050565b8015158114610a0b57600080fd5b600080600080600060a08688031215611ec057600080fd5b853594506020860135611ed281611e9a565b93506040860135611ee281611e9a565b92506060860135611ef281611e9a565b949793965091946080013592915050565b600060208284031215611f1557600080fd5b8151611c3681611e9a565b600060208284031215611f3257600080fd5b5051919050565b634e487b7160e01b600052603260045260246000fd5b634e487b7160e01b600052601160045260246000fd5b8082028115828204841417611c1757611c17611f4f565b600060208284031215611f8e57600080fd5b8151611c3681611c67565b81810381811115611c1757611c17611f4f565b600060018201611fbe57611fbe611f4f565b5060010190565b6020808252602c908201527f46756e6374696f6e206d7573742062652063616c6c6564207468726f7567682060408201526b19195b1959d85d1958d85b1b60a21b606082015260800190565b6020808252602c908201527f46756e6374696f6e206d7573742062652063616c6c6564207468726f7567682060408201526b6163746976652070726f787960a01b606082015260800190565b80820180821115611c1757611c17611f4f565b600060a082018783526020878185015260a0604085015281875180845260c086019150828901935060005b818110156120c05784516001600160a01b03168352938301939183019160010161209b565b50506001600160a01b03969096166060850152505050608001529392505050565b600060208083850312156120f457600080fd5b825167ffffffffffffffff8082111561210c57600080fd5b818501915085601f83011261212057600080fd5b81518181111561213257612132611dab565b8060051b9150612143848301611dc1565b818152918301840191848101908884111561215d57600080fd5b938501935b8385101561217b57845182529385019390850190612162565b98975050505050505050565b6020808252602b908201527f496e697469616c697a61626c653a20636f6e7472616374206973206e6f74206960408201526a6e697469616c697a696e6760a81b606082015260800190565b60005b838110156121ed5781810151838201526020016121d5565b50506000910152565b600082516122088184602087016121d2565b9190910192915050565b60208152600082518060208401526122318160408501602087016121d2565b601f01601f1916919091016040019291505056fe360894a13ba1a3210667c828492db98dca3e2076cc3735a920a3ca505d382bbc416464726573733a206c6f772d6c6576656c2064656c65676174652063616c6c206661696c6564a2646970667358221220ebe2d1a83d03529e90b42e9e2445d4b8ae6e05be8134a2ee336f746ab84fb54964736f6c63430008110033",
  "linkReferences": {},
  "deployedLinkReferences": {}
}