{
  "_format": "hh-sol-artifact-1",
  "contractName": "PresaleUpgradeable",
  "sourceName": "contracts/PresaleUpgradeable.sol",
  "abi": [
    {
      "anonymous": false,
      "inputs": [
        {
          "indexed": false,
          "internalType": "address",
          "name": "previousAdmin",
          "type": "address"
        },
        {
          "indexed": false,
          "internalType": "address",
          "name": "newAdmin",
          "type": "address"
        }
      ],
      "name": "AdminChanged",
      "type": "event"
    },
    {
      "anonymous": false,
      "inputs": [
        {
          "indexed": true,
          "internalType": "address",
          "name": "beacon",
          "type": "address"
        }
      ],
      "name": "BeaconUpgraded",
      "type": "event"
    },
    {
      "anonymous": false,
      "inputs": [
        {
          "indexed": false,
          "internalType": "uint8",
          "name": "version",
          "type": "uint8"
        }
      ],
      "name": "Initialized",
      "type": "event"
    },
    {
      "anonymous": false,
      "inputs": [
        {
          "indexed": true,
          "internalType": "address",
          "name": "previousOwner",
          "type": "address"
        },
        {
          "indexed": true,
          "internalType": "address",
          "name": "newOwner",
          "type": "address"
        }
      ],
      "name": "OwnershipTransferred",
      "type": "event"
    },
    {
      "anonymous": false,
      "inputs": [
        {
          "indexed": false,
          "internalType": "address",
          "name": "account",
          "type": "address"
        }
      ],
      "name": "Paused",
      "type": "event"
    },
    {
      "anonymous": false,
      "inputs": [
        {
          "indexed": false,
          "internalType": "uint256",
          "name": "amount",
          "type": "uint256"
        }
      ],
      "name": "RegistrationFees",
      "type": "event"
    },
    {
      "anonymous": false,
      "inputs": [
        {
          "indexed": true,
          "internalType": "address",
          "name": "to",
          "type": "address"
        },
        {
          "indexed": true,
          "internalType": "uint256",
          "name": "tokenValue",
          "type": "uint256"
        },
        {
          "indexed": true,
          "internalType": "address",
          "name": "rewardTokenContract",
          "type": "address"
        }
      ],
      "name": "RewardTokenDistributed",
      "type": "event"
    },
    {
      "anonymous": false,
      "inputs": [
        {
          "indexed": true,
          "internalType": "address",
          "name": "from",
          "type": "address"
        },
        {
          "indexed": true,
          "internalType": "uint256",
          "name": "tokenValue",
          "type": "uint256"
        },
        {
          "indexed": true,
          "internalType": "uint256",
          "name": "ethValue",
          "type": "uint256"
        },
        {
          "indexed": false,
          "internalType": "string",
          "name": "currency",
          "type": "string"
        }
      ],
      "name": "TokenPurchased",
      "type": "event"
    },
    {
      "anonymous": false,
      "inputs": [
        {
          "indexed": false,
          "internalType": "address",
          "name": "account",
          "type": "address"
        }
      ],
      "name": "Unpaused",
      "type": "event"
    },
    {
      "anonymous": false,
      "inputs": [
        {
          "indexed": true,
          "internalType": "address",
          "name": "implementation",
          "type": "address"
        }
      ],
      "name": "Upgraded",
      "type": "event"
    },
    {
      "inputs": [
        {
          "internalType": "address",
          "name": "_referrerAddress",
          "type": "address"
        },
        {
          "internalType": "uint256",
          "name": "_valueInWei",
          "type": "uint256"
        }
      ],
      "name": "BuyWithANUSD",
      "outputs": [],
      "stateMutability": "nonpayable",
      "type": "function"
    },
    {
      "inputs": [
        {
          "internalType": "address[]",
          "name": "_userAddress",
          "type": "address[]"
        },
        {
          "internalType": "address[]",
          "name": "_referrerAddress",
          "type": "address[]"
        },
        {
          "internalType": "uint256[]",
          "name": "_valueInUSDDecimals",
          "type": "uint256[]"
        }
      ],
      "name": "BuyWithANUSDAdmin",
      "outputs": [],
      "stateMutability": "nonpayable",
      "type": "function"
    },
    {
      "inputs": [
        {
          "internalType": "uint256",
          "name": "",
          "type": "uint256"
        }
      ],
      "name": "admins",
      "outputs": [
        {
          "internalType": "address",
          "name": "",
          "type": "address"
        }
      ],
      "stateMutability": "view",
      "type": "function"
    },
    {
      "inputs": [],
      "name": "getAnalystics",
      "outputs": [
        {
          "internalType": "uint256",
          "name": "tokenSold",
          "type": "uint256"
        },
        {
          "internalType": "uint256",
          "name": "ausdRaised",
          "type": "uint256"
        }
      ],
      "stateMutability": "view",
      "type": "function"
    },
    {
      "inputs": [],
      "name": "getCapping",
      "outputs": [
        {
          "internalType": "uint256",
          "name": "minConUSD",
          "type": "uint256"
        },
        {
          "internalType": "bool",
          "name": "isBuyStakeEnabled",
          "type": "bool"
        },
        {
          "internalType": "bool",
          "name": "isPayReferralEnabled",
          "type": "bool"
        },
        {
          "internalType": "bool",
          "name": "isPayRewardTokenEnabled",
          "type": "bool"
        },
        {
          "internalType": "uint256",
          "name": "maxBuyLimitANUSD",
          "type": "uint256"
        }
      ],
      "stateMutability": "view",
      "type": "function"
    },
    {
      "inputs": [],
      "name": "getVariablesContract",
      "outputs": [
        {
          "internalType": "address",
          "name": "",
          "type": "address"
        }
      ],
      "stateMutability": "view",
      "type": "function"
    },
    {
      "inputs": [],
      "name": "initialize",
      "outputs": [],
      "stateMutability": "nonpayable",
      "type": "function"
    },
    {
      "inputs": [],
      "name": "owner",
      "outputs": [
        {
          "internalType": "address",
          "name": "",
          "type": "address"
        }
      ],
      "stateMutability": "view",
      "type": "function"
    },
    {
      "inputs": [],
      "name": "pauseAdmin",
      "outputs": [],
      "stateMutability": "nonpayable",
      "type": "function"
    },
    {
      "inputs": [],
      "name": "paused",
      "outputs": [
        {
          "internalType": "bool",
          "name": "",
          "type": "bool"
        }
      ],
      "stateMutability": "view",
      "type": "function"
    },
    {
      "inputs": [],
      "name": "proxiableUUID",
      "outputs": [
        {
          "internalType": "bytes32",
          "name": "",
          "type": "bytes32"
        }
      ],
      "stateMutability": "view",
      "type": "function"
    },
    {
      "inputs": [],
      "name": "renounceOwnership",
      "outputs": [],
      "stateMutability": "nonpayable",
      "type": "function"
    },
    {
      "inputs": [
        {
          "internalType": "address",
          "name": "_adminAddress",
          "type": "address"
        }
      ],
      "name": "setAdmin",
      "outputs": [],
      "stateMutability": "nonpayable",
      "type": "function"
    },
    {
      "inputs": [
        {
          "internalType": "uint256",
          "name": "minConUSD",
          "type": "uint256"
        },
        {
          "internalType": "bool",
          "name": "isBuyNStake",
          "type": "bool"
        },
        {
          "internalType": "bool",
          "name": "isPayReferral",
          "type": "bool"
        },
        {
          "internalType": "bool",
          "name": "isPayRewardTokens",
          "type": "bool"
        },
        {
          "internalType": "uint256",
          "name": "maxBuyLimitANUSD",
          "type": "uint256"
        }
      ],
      "name": "setCapping",
      "outputs": [],
      "stateMutability": "nonpayable",
      "type": "function"
    },
    {
      "inputs": [
        {
          "internalType": "address",
          "name": "_contractAddress",
          "type": "address"
        }
      ],
      "name": "setVariablesContract",
      "outputs": [],
      "stateMutability": "nonpayable",
      "type": "function"
    },
    {
      "inputs": [
        {
          "internalType": "address",
          "name": "_address",
          "type": "address"
        },
        {
          "internalType": "uint256",
          "name": "_value",
          "type": "uint256"
        }
      ],
      "name": "transferETH",
      "outputs": [],
      "stateMutability": "nonpayable",
      "type": "function"
    },
    {
      "inputs": [
        {
          "internalType": "address",
          "name": "newOwner",
          "type": "address"
        }
      ],
      "name": "transferOwnership",
      "outputs": [],
      "stateMutability": "nonpayable",
      "type": "function"
    },
    {
      "inputs": [],
      "name": "unpauseAdmin",
      "outputs": [],
      "stateMutability": "nonpayable",
      "type": "function"
    },
    {
      "inputs": [
        {
          "internalType": "address",
          "name": "newImplementation",
          "type": "address"
        }
      ],
      "name": "upgradeTo",
      "outputs": [],
      "stateMutability": "nonpayable",
      "type": "function"
    },
    {
      "inputs": [
        {
          "internalType": "address",
          "name": "newImplementation",
          "type": "address"
        },
        {
          "internalType": "bytes",
          "name": "data",
          "type": "bytes"
        }
      ],
      "name": "upgradeToAndCall",
      "outputs": [],
      "stateMutability": "payable",
      "type": "function"
    },
    {
      "inputs": [],
      "name": "withdrawETH",
      "outputs": [],
      "stateMutability": "nonpayable",
      "type": "function"
    },
    {
      "inputs": [
        {
          "internalType": "address",
          "name": "_tokenAddress",
          "type": "address"
        },
        {
          "internalType": "uint256",
          "name": "_value",
          "type": "uint256"
        }
      ],
      "name": "withdrawTokens",
      "outputs": [],
      "stateMutability": "nonpayable",
      "type": "function"
    },
    {
      "stateMutability": "payable",
      "type": "receive"
    }
  ],
  "bytecode": "0x60a06040523060805234801561001457600080fd5b506080516124b061004c60003960008181610a9401528181610ad401528181610b7301528181610bb30152610c4601526124b06000f3fe6080604052600436106101395760003560e01c8063704b6c02116100ab578063b9439d201161006f578063b9439d2014610342578063db5184e614610362578063de863da314610377578063e086e5ec146103cc578063f13a143f146103e1578063f2fde38b146103ff57600080fd5b8063704b6c02146102ba578063715018a6146102da5780637b1a4909146102ef5780638129fc1c1461030f5780638da5cb5b1461032457600080fd5b80633659cfe6116100fd5780633659cfe6146101f95780634f0371d7146102195780634f1ef2861461024157806352d1902d146102545780635c975abb146102775780636740090a1461029a57600080fd5b806306b091f9146101455780630ba0dba31461016757806314bfd6d014610187578063182feeaa146101c45780632f11d653146101e457600080fd5b3661014057005b600080fd5b34801561015157600080fd5b50610165610160366004611e32565b61041f565b005b34801561017357600080fd5b50610165610182366004611e5e565b61049d565b34801561019357600080fd5b506101a76101a2366004611e7b565b6104c7565b6040516001600160a01b0390911681526020015b60405180910390f35b3480156101d057600080fd5b506101656101df366004611ee0565b6104f2565b3480156101f057600080fd5b50610165610a78565b34801561020557600080fd5b50610165610214366004611e5e565b610a8a565b34801561022557600080fd5b5060fe5460ff54604080519283526020830191909152016101bb565b61016561024f366004611fc1565b610b69565b34801561026057600080fd5b50610269610c39565b6040519081526020016101bb565b34801561028357600080fd5b5060655460ff1660405190151581526020016101bb565b3480156102a657600080fd5b506101656102b5366004612077565b610cec565b3480156102c657600080fd5b506101656102d5366004611e5e565b610d33565b3480156102e657600080fd5b50610165610d8e565b3480156102fb57600080fd5b5061016561030a366004611e32565b610da0565b34801561031b57600080fd5b50610165610dde565b34801561033057600080fd5b506033546001600160a01b03166101a7565b34801561034e57600080fd5b5061016561035d366004611e32565b610f5c565b34801561036e57600080fd5b50610165611570565b34801561038357600080fd5b5060fd546101008054610101546040805194855260ff8084161515602087015293830484161515908501526201000090910490911615156060830152608082015260a0016101bb565b3480156103d857600080fd5b50610165611580565b3480156103ed57600080fd5b5060fb546001600160a01b03166101a7565b34801561040b57600080fd5b5061016561041a366004611e5e565b6115b4565b61042761162a565b60405163a9059cbb60e01b8152336004820152602481018290526001600160a01b0383169063a9059cbb906044016020604051808303816000875af1158015610474573d6000803e3d6000fd5b505050506040513d601f19601f8201168201806040525081019061049891906120d2565b505050565b6104a561162a565b60fb80546001600160a01b0319166001600160a01b0392909216919091179055565b61010281815481106104d857600080fd5b6000918252602090912001546001600160a01b0316905081565b60005b6101025460ff82161015610a6f576101028160ff168154811061051a5761051a6120ef565b6000918252602090912001546001600160a01b031633036109d15760fb5486906001600160a01b031660005b828110156109c9576000826001600160a01b0316634bc92d6c6040518163ffffffff1660e01b8152600401602060405180830381865afa15801561058e573d6000803e3d6000fd5b505050506040513d601f19601f820116820180604052508101906105b29190612105565b905060008787848181106105c8576105c86120ef565b90506020020135670de0b6b3a76400006105e29190612134565b9050600061071e856001600160a01b031663b70cc4c16040518163ffffffff1660e01b8152600401602060405180830381865afa158015610627573d6000803e3d6000fd5b505050506040513d601f19601f8201168201806040525081019061064b919061214b565b6106558585612168565b876001600160a01b03166355a373d66040518163ffffffff1660e01b8152600401602060405180830381865afa158015610693573d6000803e3d6000fd5b505050506040513d601f19601f820116820180604052508101906106b7919061214b565b886001600160a01b0316638290c4a66040518163ffffffff1660e01b8152600401602060405180830381865afa1580156106f5573d6000803e3d6000fd5b505050506040513d601f19601f82011682018060405250810190610719919061214b565b611684565b6101005490915060ff161561086457846001600160a01b031663ee99205c6040518163ffffffff1660e01b8152600401602060405180830381865afa15801561076b573d6000803e3d6000fd5b505050506040513d601f19601f8201168201806040525081019061078f919061214b565b6001600160a01b031663310c9b208e8e878181106107af576107af6120ef565b90506020020160208101906107c49190611e5e565b836001815181106107d7576107d76120ef565b6020026020010151846000815181106107f2576107f26120ef565b60209081029190910101516040516001600160e01b031960e086901b1681526001600160a01b03909316600484015260248301919091526044820152606401600060405180830381600087803b15801561084b57600080fd5b505af115801561085f573d6000803e3d6000fd5b505050505b61010080540460ff16156109b357846001600160a01b0316637dad19db6040518163ffffffff1660e01b8152600401602060405180830381865afa1580156108b0573d6000803e3d6000fd5b505050506040513d601f19601f820116820180604052508101906108d4919061214b565b6001600160a01b031663228159b4826000815181106108f5576108f56120ef565b60200260200101518f8f8881811061090f5761090f6120ef565b90506020020160208101906109249190611e5e565b8e8e89818110610936576109366120ef565b905060200201602081019061094b9190611e5e565b6040516001600160e01b031960e086901b16815260048101939093526001600160a01b039182166024840152166044820152606401600060405180830381600087803b15801561099a57600080fd5b505af11580156109ae573d6000803e3d6000fd5b505050505b50505080806109c19061217b565b915050610546565b505050610a6f565b610102546109e190600190612168565b8160ff1603610a5d576101028160ff1681548110610a0157610a016120ef565b6000918252602090912001546001600160a01b03163314610a5d5760405162461bcd60e51b81526020600482015260116024820152702cb7ba9030b932903737ba1030b236b4b760791b60448201526064015b60405180910390fd5b80610a6781612194565b9150506104f5565b50505050505050565b610a8061162a565b610a88611807565b565b6001600160a01b037f0000000000000000000000000000000000000000000000000000000000000000163003610ad25760405162461bcd60e51b8152600401610a54906121b3565b7f00000000000000000000000000000000000000000000000000000000000000006001600160a01b0316610b1b600080516020612434833981519152546001600160a01b031690565b6001600160a01b031614610b415760405162461bcd60e51b8152600401610a54906121ff565b610b4a81611861565b60408051600080825260208201909252610b6691839190611869565b50565b6001600160a01b037f0000000000000000000000000000000000000000000000000000000000000000163003610bb15760405162461bcd60e51b8152600401610a54906121b3565b7f00000000000000000000000000000000000000000000000000000000000000006001600160a01b0316610bfa600080516020612434833981519152546001600160a01b031690565b6001600160a01b031614610c205760405162461bcd60e51b8152600401610a54906121ff565b610c2982611861565b610c3582826001611869565b5050565b6000306001600160a01b037f00000000000000000000000000000000000000000000000000000000000000001614610cd95760405162461bcd60e51b815260206004820152603860248201527f555550535570677261646561626c653a206d757374206e6f742062652063616c60448201527f6c6564207468726f7567682064656c656761746563616c6c00000000000000006064820152608401610a54565b5060008051602061243483398151915290565b610cf461162a565b60fd94909455610100805461ffff191693151561ff0019169390931791151583029190911762ff00001916620100009115159190910217905561010155565b610d3b61162a565b61010280546001810182556000919091527f93bdaa6a4190909b7c3fbe8d42169ffe1cab19f51dfc8db24c71abf849eced4a0180546001600160a01b0319166001600160a01b0392909216919091179055565b610d9661162a565b610a8860006119d4565b610da861162a565b6040516001600160a01b0383169082156108fc029083906000818181858888f19350505050158015610498573d6000803e3d6000fd5b600054610100900460ff1615808015610dfe5750600054600160ff909116105b80610e185750303b158015610e18575060005460ff166001145b610e7b5760405162461bcd60e51b815260206004820152602e60248201527f496e697469616c697a61626c653a20636f6e747261637420697320616c72656160448201526d191e481a5b9a5d1a585b1a5e995960921b6064820152608401610a54565b6000805460ff191660011790558015610e9e576000805461ff0019166101001790555b60fb80546001600160a01b0319167377daafc7411c911b869c71bf70fe36cce507845d17905566038d7ea4c6800060fc556801158e460913d0000060fd55610100805462ffffff1916610101908117909155681ba5abf9e7793800009055610f04611a26565b610f0c611a55565b610f14611a84565b8015610b66576000805461ff0019169055604051600181527f7f26b83ff96e1f2b6a682f133852f6798a09c465da95921460cefb38474024989060200160405180910390a150565b610f64611aab565b60fb54604080516312f24b5b60e21b815290516001600160a01b039092169133916000918491634bc92d6c9160048083019260209291908290030181865afa158015610fb4573d6000803e3d6000fd5b505050506040513d601f19601f82011682018060405250810190610fd89190612105565b60fd54909150849081101561103b5760405162461bcd60e51b815260206004820152602360248201527f415553442076616c7565206c657373207468656e206d696e206275792076616c6044820152623ab29760e91b6064820152608401610a54565b610101548111156110865760405162461bcd60e51b815260206004820152601560248201527413585e08189d5e481b1a5b5a5d081c995858da1959605a1b6044820152606401610a54565b836001600160a01b031663b70cc4c16040518163ffffffff1660e01b8152600401602060405180830381865afa1580156110c4573d6000803e3d6000fd5b505050506040513d601f19601f820116820180604052508101906110e8919061214b565b6040516323b872dd60e01b81526001600160a01b0385811660048301523060248301526044820184905291909116906323b872dd906064016020604051808303816000875af115801561113f573d6000803e3d6000fd5b505050506040513d601f19601f8201168201806040525081019061116391906120d2565b5060006111a7856001600160a01b031663b70cc4c16040518163ffffffff1660e01b8152600401602060405180830381865afa158015610627573d6000803e3d6000fd5b6101005490915060ff16156112cb57846001600160a01b031663ee99205c6040518163ffffffff1660e01b8152600401602060405180830381865afa1580156111f4573d6000803e3d6000fd5b505050506040513d601f19601f82011682018060405250810190611218919061214b565b6001600160a01b031663310c9b20858360018151811061123a5761123a6120ef565b602002602001015184600081518110611255576112556120ef565b60209081029190910101516040516001600160e01b031960e086901b1681526001600160a01b03909316600484015260248301919091526044820152606401600060405180830381600087803b1580156112ae57600080fd5b505af11580156112c2573d6000803e3d6000fd5b505050506113cd565b846001600160a01b03166355a373d66040518163ffffffff1660e01b8152600401602060405180830381865afa158015611309573d6000803e3d6000fd5b505050506040513d601f19601f8201168201806040525081019061132d919061214b565b6001600160a01b031663a9059cbb858360018151811061134f5761134f6120ef565b60200260200101516040518363ffffffff1660e01b81526004016113889291906001600160a01b03929092168252602082015260400190565b6020604051808303816000875af11580156113a7573d6000803e3d6000fd5b505050506040513d601f19601f820116820180604052508101906113cb91906120d2565b505b61010080540460ff16156114d357846001600160a01b0316637dad19db6040518163ffffffff1660e01b8152600401602060405180830381865afa158015611419573d6000803e3d6000fd5b505050506040513d601f19601f8201168201806040525081019061143d919061214b565b6001600160a01b031663228159b48260008151811061145e5761145e6120ef565b6020026020010151868a6040518463ffffffff1660e01b81526004016114a0939291909283526001600160a01b03918216602084015216604082015260600190565b600060405180830381600087803b1580156114ba57600080fd5b505af11580156114ce573d6000803e3d6000fd5b505050505b7f629a485b55f72b3241f1b41ff1864e029996d1cf7d54ef632b907af140f57430856001600160a01b0316634bc92d6c6040518163ffffffff1660e01b8152600401602060405180830381865afa158015611532573d6000803e3d6000fd5b505050506040513d601f19601f820116820180604052508101906115569190612105565b60405190815260200160405180910390a150505050505050565b61157861162a565b610a88611af1565b61158861162a565b60405133904780156108fc02916000818181858888f19350505050158015610b66573d6000803e3d6000fd5b6115bc61162a565b6001600160a01b0381166116215760405162461bcd60e51b815260206004820152602660248201527f4f776e61626c653a206e6577206f776e657220697320746865207a65726f206160448201526564647265737360d01b6064820152608401610a54565b610b66816119d4565b6033546001600160a01b03163314610a885760405162461bcd60e51b815260206004820181905260248201527f4f776e61626c653a2063616c6c6572206973206e6f7420746865206f776e65726044820152606401610a54565b6040805160028082526060808301845292600092919060208301908036833701905050905085816000815181106116bd576116bd6120ef565b60200260200101906001600160a01b031690816001600160a01b03168152505083816001815181106116f1576116f16120ef565b6001600160a01b03928316602091820292909201015260405163095ea7b360e01b81528482166004820152602481018790529087169063095ea7b3906044016020604051808303816000875af115801561174f573d6000803e3d6000fd5b505050506040513d601f19601f8201168201806040525081019061177391906120d2565b5060006001600160a01b0384166338ed1739876001853061179542606461224b565b6040518663ffffffff1660e01b81526004016117b595949392919061225e565b6000604051808303816000875af11580156117d4573d6000803e3d6000fd5b505050506040513d6000823e601f3d908101601f191682016040526117fc91908101906122cf565b979650505050505050565b61180f611aab565b6065805460ff191660011790557f62e78cea01bee320cd4e420270b5ea74000d11b0c9f74754ebdbfc544b05a2586118443390565b6040516001600160a01b03909116815260200160405180910390a1565b610b6661162a565b7f4910fdfa16fed3260ed0e7147f7cc6da11a60208b5b9406d12a635614ffd91435460ff161561189c5761049883611b2a565b826001600160a01b03166352d1902d6040518163ffffffff1660e01b8152600401602060405180830381865afa9250505080156118f6575060408051601f3d908101601f191682019092526118f391810190612105565b60015b6119595760405162461bcd60e51b815260206004820152602e60248201527f45524331393637557067726164653a206e657720696d706c656d656e7461746960448201526d6f6e206973206e6f74205555505360901b6064820152608401610a54565b60008051602061243483398151915281146119c85760405162461bcd60e51b815260206004820152602960248201527f45524331393637557067726164653a20756e737570706f727465642070726f786044820152681a58589b195555525160ba1b6064820152608401610a54565b50610498838383611bc6565b603380546001600160a01b038381166001600160a01b0319831681179093556040519116919082907f8be0079c531659141344cd1fd0a4f28419497f9722a3daafe3b4186f6b6457e090600090a35050565b600054610100900460ff16611a4d5760405162461bcd60e51b8152600401610a5490612375565b610a88611bf1565b600054610100900460ff16611a7c5760405162461bcd60e51b8152600401610a5490612375565b610a88611c24565b600054610100900460ff16610a885760405162461bcd60e51b8152600401610a5490612375565b60655460ff1615610a885760405162461bcd60e51b815260206004820152601060248201526f14185d5cd8589b194e881c185d5cd95960821b6044820152606401610a54565b611af9611c54565b6065805460ff191690557f5db9ee0a495bf2e6ff9c91a7834c1ba4fdd244a5e8aa4e537bd38aeae4b073aa33611844565b6001600160a01b0381163b611b975760405162461bcd60e51b815260206004820152602d60248201527f455243313936373a206e657720696d706c656d656e746174696f6e206973206e60448201526c1bdd08184818dbdb9d1c9858dd609a1b6064820152608401610a54565b60008051602061243483398151915280546001600160a01b0319166001600160a01b0392909216919091179055565b611bcf83611c9d565b600082511180611bdc5750805b1561049857611beb8383611cdd565b50505050565b600054610100900460ff16611c185760405162461bcd60e51b8152600401610a5490612375565b6065805460ff19169055565b600054610100900460ff16611c4b5760405162461bcd60e51b8152600401610a5490612375565b610a88336119d4565b60655460ff16610a885760405162461bcd60e51b815260206004820152601460248201527314185d5cd8589b194e881b9bdd081c185d5cd95960621b6044820152606401610a54565b611ca681611b2a565b6040516001600160a01b038216907fbc7cd75a20ee27fd9adebab32041f755214dbc6bffa90cc0225b39da2e5c2d3b90600090a250565b60606001600160a01b0383163b611d455760405162461bcd60e51b815260206004820152602660248201527f416464726573733a2064656c65676174652063616c6c20746f206e6f6e2d636f6044820152651b9d1c9858dd60d21b6064820152608401610a54565b600080846001600160a01b031684604051611d6091906123e4565b600060405180830381855af49150503d8060008114611d9b576040519150601f19603f3d011682016040523d82523d6000602084013e611da0565b606091505b5091509150611dc8828260405180606001604052806027815260200161245460279139611dd3565b925050505b92915050565b60608315611de2575081611dec565b611dec8383611df3565b9392505050565b815115611e035781518083602001fd5b8060405162461bcd60e51b8152600401610a549190612400565b6001600160a01b0381168114610b6657600080fd5b60008060408385031215611e4557600080fd5b8235611e5081611e1d565b946020939093013593505050565b600060208284031215611e7057600080fd5b8135611dec81611e1d565b600060208284031215611e8d57600080fd5b5035919050565b60008083601f840112611ea657600080fd5b50813567ffffffffffffffff811115611ebe57600080fd5b6020830191508360208260051b8501011115611ed957600080fd5b9250929050565b60008060008060008060608789031215611ef957600080fd5b863567ffffffffffffffff80821115611f1157600080fd5b611f1d8a838b01611e94565b90985096506020890135915080821115611f3657600080fd5b611f428a838b01611e94565b90965094506040890135915080821115611f5b57600080fd5b50611f6889828a01611e94565b979a9699509497509295939492505050565b634e487b7160e01b600052604160045260246000fd5b604051601f8201601f1916810167ffffffffffffffff81118282101715611fb957611fb9611f7a565b604052919050565b60008060408385031215611fd457600080fd5b8235611fdf81611e1d565b915060208381013567ffffffffffffffff80821115611ffd57600080fd5b818601915086601f83011261201157600080fd5b81358181111561202357612023611f7a565b612035601f8201601f19168501611f90565b9150808252878482850101111561204b57600080fd5b80848401858401376000848284010152508093505050509250929050565b8015158114610b6657600080fd5b600080600080600060a0868803121561208f57600080fd5b8535945060208601356120a181612069565b935060408601356120b181612069565b925060608601356120c181612069565b949793965091946080013592915050565b6000602082840312156120e457600080fd5b8151611dec81612069565b634e487b7160e01b600052603260045260246000fd5b60006020828403121561211757600080fd5b5051919050565b634e487b7160e01b600052601160045260246000fd5b8082028115828204841417611dcd57611dcd61211e565b60006020828403121561215d57600080fd5b8151611dec81611e1d565b81810381811115611dcd57611dcd61211e565b60006001820161218d5761218d61211e565b5060010190565b600060ff821660ff81036121aa576121aa61211e565b60010192915050565b6020808252602c908201527f46756e6374696f6e206d7573742062652063616c6c6564207468726f7567682060408201526b19195b1959d85d1958d85b1b60a21b606082015260800190565b6020808252602c908201527f46756e6374696f6e206d7573742062652063616c6c6564207468726f7567682060408201526b6163746976652070726f787960a01b606082015260800190565b80820180821115611dcd57611dcd61211e565b600060a082018783526020878185015260a0604085015281875180845260c086019150828901935060005b818110156122ae5784516001600160a01b031683529383019391830191600101612289565b50506001600160a01b03969096166060850152505050608001529392505050565b600060208083850312156122e257600080fd5b825167ffffffffffffffff808211156122fa57600080fd5b818501915085601f83011261230e57600080fd5b81518181111561232057612320611f7a565b8060051b9150612331848301611f90565b818152918301840191848101908884111561234b57600080fd5b938501935b8385101561236957845182529385019390850190612350565b98975050505050505050565b6020808252602b908201527f496e697469616c697a61626c653a20636f6e7472616374206973206e6f74206960408201526a6e697469616c697a696e6760a81b606082015260800190565b60005b838110156123db5781810151838201526020016123c3565b50506000910152565b600082516123f68184602087016123c0565b9190910192915050565b602081526000825180602084015261241f8160408501602087016123c0565b601f01601f1916919091016040019291505056fe360894a13ba1a3210667c828492db98dca3e2076cc3735a920a3ca505d382bbc416464726573733a206c6f772d6c6576656c2064656c65676174652063616c6c206661696c6564a26469706673582212201b407a243235be1e0f8304b115154461994182d6c2dc9c07a14b5d9cda6f8cf964736f6c63430008110033",
  "linkReferences": {},
  "deployedLinkReferences": {}
}