{
  "_format": "hh-sol-artifact-1",
  "contractName": "PresaleUpgradeable",
  "sourceName": "contracts/PresaleUpgradeable.sol",
  "abi": [
    {
      "anonymous": false,
      "inputs": [
        {
          "indexed": false,
          "internalType": "address",
          "name": "previousAdmin",
          "type": "address"
        },
        {
          "indexed": false,
          "internalType": "address",
          "name": "newAdmin",
          "type": "address"
        }
      ],
      "name": "AdminChanged",
      "type": "event"
    },
    {
      "anonymous": false,
      "inputs": [
        {
          "indexed": true,
          "internalType": "address",
          "name": "beacon",
          "type": "address"
        }
      ],
      "name": "BeaconUpgraded",
      "type": "event"
    },
    {
      "anonymous": false,
      "inputs": [
        {
          "indexed": false,
          "internalType": "uint8",
          "name": "version",
          "type": "uint8"
        }
      ],
      "name": "Initialized",
      "type": "event"
    },
    {
      "anonymous": false,
      "inputs": [
        {
          "indexed": true,
          "internalType": "address",
          "name": "previousOwner",
          "type": "address"
        },
        {
          "indexed": true,
          "internalType": "address",
          "name": "newOwner",
          "type": "address"
        }
      ],
      "name": "OwnershipTransferred",
      "type": "event"
    },
    {
      "anonymous": false,
      "inputs": [
        {
          "indexed": false,
          "internalType": "address",
          "name": "account",
          "type": "address"
        }
      ],
      "name": "Paused",
      "type": "event"
    },
    {
      "anonymous": false,
      "inputs": [
        {
          "indexed": true,
          "internalType": "address",
          "name": "to",
          "type": "address"
        },
        {
          "indexed": true,
          "internalType": "uint256",
          "name": "tokenValue",
          "type": "uint256"
        },
        {
          "indexed": true,
          "internalType": "address",
          "name": "rewardTokenContract",
          "type": "address"
        }
      ],
      "name": "RewardTokenDistributed",
      "type": "event"
    },
    {
      "anonymous": false,
      "inputs": [
        {
          "indexed": true,
          "internalType": "address",
          "name": "from",
          "type": "address"
        },
        {
          "indexed": true,
          "internalType": "uint256",
          "name": "tokenValue",
          "type": "uint256"
        },
        {
          "indexed": true,
          "internalType": "uint256",
          "name": "ethValue",
          "type": "uint256"
        },
        {
          "indexed": false,
          "internalType": "string",
          "name": "currency",
          "type": "string"
        }
      ],
      "name": "TokenPurchased",
      "type": "event"
    },
    {
      "anonymous": false,
      "inputs": [
        {
          "indexed": false,
          "internalType": "address",
          "name": "account",
          "type": "address"
        }
      ],
      "name": "Unpaused",
      "type": "event"
    },
    {
      "anonymous": false,
      "inputs": [
        {
          "indexed": true,
          "internalType": "address",
          "name": "implementation",
          "type": "address"
        }
      ],
      "name": "Upgraded",
      "type": "event"
    },
    {
      "inputs": [
        {
          "internalType": "address",
          "name": "_referrer",
          "type": "address"
        },
        {
          "internalType": "uint256",
          "name": "_duration",
          "type": "uint256"
        }
      ],
      "name": "BuyWithETH",
      "outputs": [],
      "stateMutability": "payable",
      "type": "function"
    },
    {
      "inputs": [
        {
          "internalType": "address",
          "name": "_referrer",
          "type": "address"
        },
        {
          "internalType": "uint256",
          "name": "_value",
          "type": "uint256"
        },
        {
          "internalType": "uint256",
          "name": "_duration",
          "type": "uint256"
        }
      ],
      "name": "BuyWithUSD",
      "outputs": [],
      "stateMutability": "nonpayable",
      "type": "function"
    },
    {
      "inputs": [],
      "name": "getETH_USDPrice",
      "outputs": [
        {
          "internalType": "uint256",
          "name": "",
          "type": "uint256"
        }
      ],
      "stateMutability": "view",
      "type": "function"
    },
    {
      "inputs": [],
      "name": "getPresaleAnalystics",
      "outputs": [
        {
          "internalType": "uint256",
          "name": "tokenSold",
          "type": "uint256"
        },
        {
          "internalType": "uint256",
          "name": "ethRaised",
          "type": "uint256"
        },
        {
          "internalType": "uint256",
          "name": "USDRaised",
          "type": "uint256"
        }
      ],
      "stateMutability": "view",
      "type": "function"
    },
    {
      "inputs": [],
      "name": "getPriceFeedOracleAddress",
      "outputs": [
        {
          "internalType": "address",
          "name": "",
          "type": "address"
        }
      ],
      "stateMutability": "view",
      "type": "function"
    },
    {
      "inputs": [],
      "name": "getPricePerUSD",
      "outputs": [
        {
          "internalType": "uint256",
          "name": "",
          "type": "uint256"
        }
      ],
      "stateMutability": "view",
      "type": "function"
    },
    {
      "inputs": [],
      "name": "getReferralContract",
      "outputs": [
        {
          "internalType": "address",
          "name": "",
          "type": "address"
        }
      ],
      "stateMutability": "view",
      "type": "function"
    },
    {
      "inputs": [],
      "name": "getRewardOwners",
      "outputs": [
        {
          "internalType": "address",
          "name": "",
          "type": "address"
        }
      ],
      "stateMutability": "view",
      "type": "function"
    },
    {
      "inputs": [],
      "name": "getRewardPerUSD",
      "outputs": [
        {
          "internalType": "uint256",
          "name": "",
          "type": "uint256"
        }
      ],
      "stateMutability": "view",
      "type": "function"
    },
    {
      "inputs": [],
      "name": "getRewardTokenContract",
      "outputs": [
        {
          "internalType": "address",
          "name": "tokenAddress",
          "type": "address"
        },
        {
          "internalType": "string",
          "name": "name",
          "type": "string"
        },
        {
          "internalType": "uint256",
          "name": "decimals",
          "type": "uint256"
        },
        {
          "internalType": "uint256",
          "name": "totalSupply",
          "type": "uint256"
        }
      ],
      "stateMutability": "view",
      "type": "function"
    },
    {
      "inputs": [],
      "name": "getStakingContract",
      "outputs": [
        {
          "internalType": "address",
          "name": "",
          "type": "address"
        }
      ],
      "stateMutability": "view",
      "type": "function"
    },
    {
      "inputs": [],
      "name": "getTokenContract",
      "outputs": [
        {
          "internalType": "address",
          "name": "tokenAddress",
          "type": "address"
        },
        {
          "internalType": "string",
          "name": "name",
          "type": "string"
        },
        {
          "internalType": "uint256",
          "name": "decimals",
          "type": "uint256"
        },
        {
          "internalType": "uint256",
          "name": "totalSupply",
          "type": "uint256"
        }
      ],
      "stateMutability": "view",
      "type": "function"
    },
    {
      "inputs": [],
      "name": "getTokenSeller",
      "outputs": [
        {
          "internalType": "address",
          "name": "",
          "type": "address"
        }
      ],
      "stateMutability": "view",
      "type": "function"
    },
    {
      "inputs": [],
      "name": "getUSDContract",
      "outputs": [
        {
          "internalType": "address",
          "name": "USDAddress",
          "type": "address"
        },
        {
          "internalType": "string",
          "name": "USDName",
          "type": "string"
        },
        {
          "internalType": "uint256",
          "name": "USDDecimals",
          "type": "uint256"
        },
        {
          "internalType": "uint256",
          "name": "USDSupply",
          "type": "uint256"
        }
      ],
      "stateMutability": "view",
      "type": "function"
    },
    {
      "inputs": [],
      "name": "initialize",
      "outputs": [],
      "stateMutability": "nonpayable",
      "type": "function"
    },
    {
      "inputs": [],
      "name": "isEnabled",
      "outputs": [
        {
          "internalType": "bool",
          "name": "stake",
          "type": "bool"
        },
        {
          "internalType": "bool",
          "name": "referral",
          "type": "bool"
        },
        {
          "internalType": "bool",
          "name": "reward",
          "type": "bool"
        }
      ],
      "stateMutability": "view",
      "type": "function"
    },
    {
      "inputs": [],
      "name": "minContribution",
      "outputs": [
        {
          "internalType": "uint256",
          "name": "minContETH",
          "type": "uint256"
        },
        {
          "internalType": "uint256",
          "name": "minContUSD",
          "type": "uint256"
        }
      ],
      "stateMutability": "view",
      "type": "function"
    },
    {
      "inputs": [],
      "name": "owner",
      "outputs": [
        {
          "internalType": "address",
          "name": "",
          "type": "address"
        }
      ],
      "stateMutability": "view",
      "type": "function"
    },
    {
      "inputs": [],
      "name": "pauseAdmin",
      "outputs": [],
      "stateMutability": "nonpayable",
      "type": "function"
    },
    {
      "inputs": [],
      "name": "paused",
      "outputs": [
        {
          "internalType": "bool",
          "name": "",
          "type": "bool"
        }
      ],
      "stateMutability": "view",
      "type": "function"
    },
    {
      "inputs": [],
      "name": "proxiableUUID",
      "outputs": [
        {
          "internalType": "bytes32",
          "name": "",
          "type": "bytes32"
        }
      ],
      "stateMutability": "view",
      "type": "function"
    },
    {
      "inputs": [],
      "name": "renounceOwnership",
      "outputs": [],
      "stateMutability": "nonpayable",
      "type": "function"
    },
    {
      "inputs": [
        {
          "internalType": "bool",
          "name": "_bool",
          "type": "bool"
        }
      ],
      "name": "setBuyAndStakeAdmin",
      "outputs": [
        {
          "internalType": "bool",
          "name": "",
          "type": "bool"
        }
      ],
      "stateMutability": "nonpayable",
      "type": "function"
    },
    {
      "inputs": [
        {
          "internalType": "uint256",
          "name": "_value",
          "type": "uint256"
        }
      ],
      "name": "setMinContributionUSDAdmin",
      "outputs": [
        {
          "internalType": "bool",
          "name": "",
          "type": "bool"
        }
      ],
      "stateMutability": "nonpayable",
      "type": "function"
    },
    {
      "inputs": [
        {
          "internalType": "bool",
          "name": "_bool",
          "type": "bool"
        }
      ],
      "name": "setPayReferralAdmin",
      "outputs": [
        {
          "internalType": "bool",
          "name": "",
          "type": "bool"
        }
      ],
      "stateMutability": "nonpayable",
      "type": "function"
    },
    {
      "inputs": [
        {
          "internalType": "bool",
          "name": "_bool",
          "type": "bool"
        }
      ],
      "name": "setPayRewardTokensAdmin",
      "outputs": [],
      "stateMutability": "nonpayable",
      "type": "function"
    },
    {
      "inputs": [
        {
          "internalType": "address",
          "name": "_address",
          "type": "address"
        }
      ],
      "name": "setPriceFeedOracleAddressAdmin",
      "outputs": [
        {
          "internalType": "bool",
          "name": "",
          "type": "bool"
        }
      ],
      "stateMutability": "nonpayable",
      "type": "function"
    },
    {
      "inputs": [
        {
          "internalType": "uint256",
          "name": "_value",
          "type": "uint256"
        }
      ],
      "name": "setPricePerUSDAdmin",
      "outputs": [
        {
          "internalType": "bool",
          "name": "",
          "type": "bool"
        }
      ],
      "stateMutability": "nonpayable",
      "type": "function"
    },
    {
      "inputs": [
        {
          "internalType": "address",
          "name": "_address",
          "type": "address"
        }
      ],
      "name": "setReferralContract",
      "outputs": [
        {
          "internalType": "address",
          "name": "",
          "type": "address"
        }
      ],
      "stateMutability": "nonpayable",
      "type": "function"
    },
    {
      "inputs": [
        {
          "internalType": "address",
          "name": "_address",
          "type": "address"
        }
      ],
      "name": "setRewardOwner",
      "outputs": [],
      "stateMutability": "nonpayable",
      "type": "function"
    },
    {
      "inputs": [
        {
          "internalType": "uint256",
          "name": "_value",
          "type": "uint256"
        }
      ],
      "name": "setRewardPerUSDAdmin",
      "outputs": [
        {
          "internalType": "bool",
          "name": "",
          "type": "bool"
        }
      ],
      "stateMutability": "nonpayable",
      "type": "function"
    },
    {
      "inputs": [
        {
          "internalType": "address",
          "name": "_tokenContractAddress",
          "type": "address"
        }
      ],
      "name": "setRewardTokenContract",
      "outputs": [],
      "stateMutability": "nonpayable",
      "type": "function"
    },
    {
      "inputs": [
        {
          "internalType": "address",
          "name": "_address",
          "type": "address"
        }
      ],
      "name": "setStakingContractAdmin",
      "outputs": [
        {
          "internalType": "bool",
          "name": "",
          "type": "bool"
        }
      ],
      "stateMutability": "nonpayable",
      "type": "function"
    },
    {
      "inputs": [
        {
          "internalType": "address",
          "name": "_address",
          "type": "address"
        }
      ],
      "name": "setTokenContractAdmin",
      "outputs": [
        {
          "internalType": "bool",
          "name": "",
          "type": "bool"
        }
      ],
      "stateMutability": "nonpayable",
      "type": "function"
    },
    {
      "inputs": [
        {
          "internalType": "address",
          "name": "_address",
          "type": "address"
        }
      ],
      "name": "setTokenSeller",
      "outputs": [],
      "stateMutability": "nonpayable",
      "type": "function"
    },
    {
      "inputs": [
        {
          "internalType": "address",
          "name": "_address",
          "type": "address"
        }
      ],
      "name": "setUSDContractAdmin",
      "outputs": [
        {
          "internalType": "bool",
          "name": "",
          "type": "bool"
        }
      ],
      "stateMutability": "nonpayable",
      "type": "function"
    },
    {
      "inputs": [
        {
          "internalType": "address",
          "name": "_address",
          "type": "address"
        },
        {
          "internalType": "uint256",
          "name": "_value",
          "type": "uint256"
        }
      ],
      "name": "transferETH",
      "outputs": [],
      "stateMutability": "nonpayable",
      "type": "function"
    },
    {
      "inputs": [
        {
          "internalType": "address",
          "name": "newOwner",
          "type": "address"
        }
      ],
      "name": "transferOwnership",
      "outputs": [],
      "stateMutability": "nonpayable",
      "type": "function"
    },
    {
      "inputs": [],
      "name": "unpauseAdmin",
      "outputs": [],
      "stateMutability": "nonpayable",
      "type": "function"
    },
    {
      "inputs": [
        {
          "internalType": "address",
          "name": "newImplementation",
          "type": "address"
        }
      ],
      "name": "upgradeTo",
      "outputs": [],
      "stateMutability": "nonpayable",
      "type": "function"
    },
    {
      "inputs": [
        {
          "internalType": "address",
          "name": "newImplementation",
          "type": "address"
        },
        {
          "internalType": "bytes",
          "name": "data",
          "type": "bytes"
        }
      ],
      "name": "upgradeToAndCall",
      "outputs": [],
      "stateMutability": "payable",
      "type": "function"
    },
    {
      "inputs": [],
      "name": "withdrawETH",
      "outputs": [],
      "stateMutability": "nonpayable",
      "type": "function"
    },
    {
      "inputs": [
        {
          "internalType": "address",
          "name": "_tokenAddress",
          "type": "address"
        },
        {
          "internalType": "uint256",
          "name": "_value",
          "type": "uint256"
        }
      ],
      "name": "withdrawTokens",
      "outputs": [],
      "stateMutability": "nonpayable",
      "type": "function"
    },
    {
      "stateMutability": "payable",
      "type": "receive"
    }
  ],
  "bytecode": "0x60a06040523060805234801561001457600080fd5b50608051612e4061004c60003960008181610a2301528181610a6c01528181610b5a01528181610b9a0152610c2d0152612e406000f3fe6080604052600436106102605760003560e01c80637a22393b11610144578063ab573d66116100b6578063db5184e61161007a578063db5184e614610708578063dc245e121461071d578063e086e5ec1461073d578063e9bd186d14610752578063f067c19914610772578063f2fde38b1461078857600080fd5b8063ab573d6614610668578063ac6f6a2d14610688578063b68e1e46146106a8578063c94d6b1f146106c8578063d42cedfb146106e857600080fd5b80638da5cb5b116101085780638da5cb5b146105b85780638e68dce4146105d657806394a73f59146105f4578063a5bac94314610609578063a821b0691461061e578063aaffadf31461063e57600080fd5b80637a22393b146105255780637b1a4909146105455780637ce1757d146105655780637e76a70c146105835780638129fc1c146105a357600080fd5b80633958b844116101dd57806357526c33116101a157806357526c331461046d5780635845394b146104805780635c975abb1461049f57806365eb204d146104b75780636aa633b6146104cc578063715018a61461051057600080fd5b80633958b844146103e5578063472d561d146104055780634809b429146104255780634f1ef2861461044557806352d1902d1461045857600080fd5b806323442c601161022457806323442c601461033957806328b7bede146103575780632f11d6531461037c5780633659cfe61461039157806338f992c9146103b157600080fd5b806306ad5a471461026c57806306b091f9146102a957806308fcfbbe146102cb57806310bd7ab5146102eb57806314d09b941461031b57600080fd5b3661026757005b600080fd5b34801561027857600080fd5b5061028c610287366004612719565b6107a8565b6040516001600160a01b0390911681526020015b60405180910390f35b3480156102b557600080fd5b506102c96102c4366004612734565b6107d5565b005b3480156102d757600080fd5b506102c96102e6366004612719565b610853565b3480156102f757600080fd5b5061030b61030636600461275e565b61087e565b60405190151581526020016102a0565b34801561032757600080fd5b5060fb546001600160a01b031661028c565b34801561034557600080fd5b5060ff546001600160a01b031661028c565b34801561036357600080fd5b5061036c610892565b6040516102a094939291906127c7565b34801561038857600080fd5b506102c9610a07565b34801561039d57600080fd5b506102c96103ac366004612719565b610a19565b3480156103bd57600080fd5b50610106546101075461010854604080519384526020840192909252908201526060016102a0565b3480156103f157600080fd5b506102c961040036600461280c565b610b01565b34801561041157600080fd5b50610103545b6040519081526020016102a0565b34801561043157600080fd5b506102c9610440366004612719565b610b26565b6102c9610453366004612898565b610b50565b34801561046457600080fd5b50610417610c20565b6102c961047b366004612734565b610cd3565b34801561048c57600080fd5b50610102546001600160a01b031661028c565b3480156104ab57600080fd5b5060655460ff1661030b565b3480156104c357600080fd5b5061036c610fe2565b3480156104d857600080fd5b50610109546040805160ff808416151582526101008404811615156020830152620100009093049092161515908201526060016102a0565b34801561051c57600080fd5b506102c961112e565b34801561053157600080fd5b506102c9610540366004612719565b611140565b34801561055157600080fd5b506102c9610560366004612734565b61116a565b34801561057157600080fd5b5060fc546001600160a01b031661028c565b34801561058f57600080fd5b5061030b61059e36600461280c565b6111a8565b3480156105af57600080fd5b506102c96111c5565b3480156105c457600080fd5b506033546001600160a01b031661028c565b3480156105e257600080fd5b5060fe546001600160a01b031661028c565b34801561060057600080fd5b506104176113e4565b34801561061557600080fd5b5061036c6113f3565b34801561062a57600080fd5b5061030b610639366004612719565b61153f565b34801561064a57600080fd5b5061065361156e565b604080519283526020830191909152016102a0565b34801561067457600080fd5b5061030b610683366004612719565b611585565b34801561069457600080fd5b5061030b6106a3366004612719565b6115b5565b3480156106b457600080fd5b5061030b6106c3366004612719565b6115e5565b3480156106d457600080fd5b5061030b6106e336600461275e565b611614565b3480156106f457600080fd5b506102c9610703366004612929565b611628565b34801561071457600080fd5b506102c9611ad8565b34801561072957600080fd5b5061030b61073836600461275e565b611ae8565b34801561074957600080fd5b506102c9611afc565b34801561075e57600080fd5b5061030b61076d36600461280c565b611b30565b34801561077e57600080fd5b5061010454610417565b34801561079457600080fd5b506102c96107a3366004612719565b611b58565b60006107b2611bce565b5060ff80546001600160a01b0319166001600160a01b038316179055805b919050565b6107dd611bce565b60405163a9059cbb60e01b8152336004820152602481018290526001600160a01b0383169063a9059cbb906044016020604051808303816000875af115801561082a573d6000803e3d6000fd5b505050506040513d601f19601f8201168201806040525081019061084e919061295c565b505050565b61085b611bce565b61010180546001600160a01b0319166001600160a01b0392909216919091179055565b6000610888611bce565b5061010455600190565b60fd54604080516306fdde0360e01b815290516001600160a01b0390921691606091600091829185916306fdde039160048082019286929091908290030181865afa1580156108e5573d6000803e3d6000fd5b505050506040513d6000823e601f3d908101601f1916820160405261090d9190810190612979565b925060fd60009054906101000a90046001600160a01b03166001600160a01b031663313ce5676040518163ffffffff1660e01b8152600401602060405180830381865afa158015610962573d6000803e3d6000fd5b505050506040513d601f19601f8201168201806040525081019061098691906129e7565b915060fd60009054906101000a90046001600160a01b03166001600160a01b03166318160ddd6040518163ffffffff1660e01b8152600401602060405180830381865afa1580156109db573d6000803e3d6000fd5b505050506040513d601f19601f820116820180604052508101906109ff91906129e7565b905090919293565b610a0f611bce565b610a17611c28565b565b6001600160a01b037f0000000000000000000000000000000000000000000000000000000000000000163003610a6a5760405162461bcd60e51b8152600401610a6190612a00565b60405180910390fd5b7f00000000000000000000000000000000000000000000000000000000000000006001600160a01b0316610ab3600080516020612dc4833981519152546001600160a01b031690565b6001600160a01b031614610ad95760405162461bcd60e51b8152600401610a6190612a4c565b610ae281611c82565b60408051600080825260208201909252610afe91839190611c8a565b50565b610b09611bce565b6101098054911515620100000262ff000019909216919091179055565b610b2e611bce565b60fc80546001600160a01b0319166001600160a01b0392909216919091179055565b6001600160a01b037f0000000000000000000000000000000000000000000000000000000000000000163003610b985760405162461bcd60e51b8152600401610a6190612a00565b7f00000000000000000000000000000000000000000000000000000000000000006001600160a01b0316610be1600080516020612dc4833981519152546001600160a01b031690565b6001600160a01b031614610c075760405162461bcd60e51b8152600401610a6190612a4c565b610c1082611c82565b610c1c82826001611c8a565b5050565b6000306001600160a01b037f00000000000000000000000000000000000000000000000000000000000000001614610cc05760405162461bcd60e51b815260206004820152603860248201527f555550535570677261646561626c653a206d757374206e6f742062652063616c60448201527f6c6564207468726f7567682064656c656761746563616c6c00000000000000006064820152608401610a61565b50600080516020612dc483398151915290565b610cdb611df5565b3334610ce5611e3b565b811015610d475760405162461bcd60e51b815260206004820152602a60248201527f4574682056616c7565206973206c657373207468616e206d696e436f6e747269604482015269313aba34b7b722aa241760b11b6064820152608401610a61565b6000610d568261010354611e82565b90506000610d678361010454611e82565b6101095490915060ff1615610d8757610d81848387611fca565b50610da5565b60fd5460fb54610da5916001600160a01b0390811691168685612053565b61010954610100900460ff1615610f085760ff546040805163e7cca9c760e01b815290516001600160a01b03909216916108fc91610e5e91606491610e5891869163e7cca9c79160048083019260209291908290030181865afa158015610e10573d6000803e3d6000fd5b505050506040513d601f19601f82011682018060405250810190610e3491906129e7565b610e3c6120d5565b610e47906064612aae565b610e519190612ac5565b889061215d565b90612172565b6040518115909202916000818181858888f19350505050158015610e86573d6000803e3d6000fd5b5060ff54604051631eb714b160e31b8152600481018590526001600160a01b03868116602483015288811660448301529091169063f5b8a588906064016020604051808303816000875af1158015610ee2573d6000803e3d6000fd5b505050506040513d601f19601f82011682018060405250810190610f06919061295c565b505b6101095462010000900460ff1615610f79576101015460fc54610f39916001600160a01b0390811691168684612053565b610101546040516001600160a01b03918216918391908716907fdec9451ea7f92de23239ac3b71d0a2c5d5bae68af900a8b74100c866d159f41990600090a45b610fa08483856040518060400160405280600381526020016208aa8960eb1b81525061217e565b60fb546040516001600160a01b03909116904780156108fc02916000818181858888f19350505050158015610fd9573d6000803e3d6000fd5b50505050505050565b61010154604080516306fdde0360e01b815290516001600160a01b0390921691606091600091829185916306fdde039160048082019286929091908290030181865afa158015611036573d6000803e3d6000fd5b505050506040513d6000823e601f3d908101601f1916820160405261105e9190810190612979565b925061010160009054906101000a90046001600160a01b03166001600160a01b031663313ce5676040518163ffffffff1660e01b8152600401602060405180830381865afa1580156110b4573d6000803e3d6000fd5b505050506040513d601f19601f820116820180604052508101906110d891906129e7565b915061010160009054906101000a90046001600160a01b03166001600160a01b03166318160ddd6040518163ffffffff1660e01b8152600401602060405180830381865afa1580156109db573d6000803e3d6000fd5b611136611bce565b610a1760006121fb565b611148611bce565b60fb80546001600160a01b0319166001600160a01b0392909216919091179055565b611172611bce565b6040516001600160a01b0383169082156108fc029083906000818181858888f1935050505015801561084e573d6000803e3d6000fd5b60006111b2611bce565b50610109805460ff191682151517905590565b600054610100900460ff16158080156111e55750600054600160ff909116105b806111ff5750303b1580156111ff575060005460ff166001145b6112625760405162461bcd60e51b815260206004820152602e60248201527f496e697469616c697a61626c653a20636f6e747261637420697320616c72656160448201526d191e481a5b9a5d1a585b1a5e995960921b6064820152608401610a61565b6000805460ff191660011790558015611285576000805461ff0019166101001790555b61010280546001600160a01b031990811673ab594600376ec9fd91f8e885dadf0ce036862de0179091556101008054821673c2132d05d31c914a87c6611c10748aeb04b58e8f17905560fd80548216739c19247bd66f34e07c05bea8895d5d35dd49f25317905561010180548216737f9fd63932babc508fad2f324eb534d09cfe86f017905560fb8054821673b35963e0ab2141cd4ab743e7a35d8772f3cf044717905560fc805490911673f91e1ed00f015c6be3fbc6b0d84fbaef005ec5b51790556775f610f70ed200006101035567012dfb0cb5e880006101045561010980546201010062ffffff199091161790556801158e460913d000006101055561138c61224d565b61139461227c565b61139c6122ab565b8015610afe576000805461ff0019169055604051600181527f7f26b83ff96e1f2b6a682f133852f6798a09c465da95921460cefb38474024989060200160405180910390a150565b60006113ee6122d2565b905090565b61010054604080516306fdde0360e01b815290516001600160a01b0390921691606091600091829185916306fdde039160048082019286929091908290030181865afa158015611447573d6000803e3d6000fd5b505050506040513d6000823e601f3d908101601f1916820160405261146f9190810190612979565b925061010060009054906101000a90046001600160a01b03166001600160a01b031663313ce5676040518163ffffffff1660e01b8152600401602060405180830381865afa1580156114c5573d6000803e3d6000fd5b505050506040513d601f19601f820116820180604052508101906114e991906129e7565b915061010060009054906101000a90046001600160a01b03166001600160a01b03166318160ddd6040518163ffffffff1660e01b8152600401602060405180830381865afa1580156109db573d6000803e3d6000fd5b6000611549611bce565b5060fe80546001600160a01b0383166001600160a01b03199091161790556001919050565b600080611579611e3b565b91506101055490509091565b600061158f611bce565b5061010280546001600160a01b0383166001600160a01b03199091161790556001919050565b60006115bf611bce565b5061010080546001600160a01b0383166001600160a01b03199091161790556001919050565b60006115ef611bce565b5060fd80546001600160a01b0383166001600160a01b03199091161790556001919050565b600061161e611bce565b5061010555600190565b611630611df5565b61010060009054906101000a90046001600160a01b03166001600160a01b031663313ce5676040518163ffffffff1660e01b8152600401602060405180830381865afa158015611684573d6000803e3d6000fd5b505050506040513d601f19601f820116820180604052508101906116a891906129e7565b6116b390600a612bcb565b670de0b6b3a7640000610105546116ca9190612ac5565b6116d49190612aae565b82101561172e5760405162461bcd60e51b815260206004820152602260248201527f5553442076616c7565206c657373207468656e206d696e206275792076616c75604482015261329760f11b6064820152608401610a61565b600033905060006117428461010354612364565b905060006117538561010454612364565b6101005490915061176f906001600160a01b0316843088612053565b6101095460ff161561178c57611786838386611fca565b506117aa565b60fd5460fb546117aa916001600160a01b0390811691168585612053565b61010954610100900460ff1615611956576101005460ff546040805163e7cca9c760e01b815290516001600160a01b039384169363a9059cbb93169161186591606491610e5891859163e7cca9c79160048083019260209291908290030181865afa15801561181d573d6000803e3d6000fd5b505050506040513d601f19601f8201168201806040525081019061184191906129e7565b6118496120d5565b611854906064612aae565b61185e9190612ac5565b8b9061215d565b6040516001600160e01b031960e085901b1681526001600160a01b03909216600483015260248201526044016020604051808303816000875af11580156118b0573d6000803e3d6000fd5b505050506040513d601f19601f820116820180604052508101906118d4919061295c565b5060ff54604051635188f1e160e01b8152600481018790526001600160a01b038581166024830152888116604483015290911690635188f1e1906064016020604051808303816000875af1158015611930573d6000803e3d6000fd5b505050506040513d601f19601f82011682018060405250810190611954919061295c565b505b6101095462010000900460ff16156119c7576101015460fc54611987916001600160a01b0390811691168584612053565b610101546040516001600160a01b03918216918391908616907fdec9451ea7f92de23239ac3b71d0a2c5d5bae68af900a8b74100c866d159f41990600090a45b6119ef838387604051806040016040528060048152602001631554d11560e21b81525061217e565b6101005460fb546040516370a0823160e01b81523060048201526001600160a01b039283169263a9059cbb92169083906370a0823190602401602060405180830381865afa158015611a45573d6000803e3d6000fd5b505050506040513d601f19601f82011682018060405250810190611a6991906129e7565b6040516001600160e01b031960e085901b1681526001600160a01b03909216600483015260248201526044016020604051808303816000875af1158015611ab4573d6000803e3d6000fd5b505050506040513d601f19601f82011682018060405250810190610fd9919061295c565b611ae0611bce565b610a176123f2565b6000611af2611bce565b5061010355600190565b611b04611bce565b60405133904780156108fc02916000818181858888f19350505050158015610afe573d6000803e3d6000fd5b6000611b3a611bce565b5061010980548215156101000261ff00199091161790556001919050565b611b60611bce565b6001600160a01b038116611bc55760405162461bcd60e51b815260206004820152602660248201527f4f776e61626c653a206e6577206f776e657220697320746865207a65726f206160448201526564647265737360d01b6064820152608401610a61565b610afe816121fb565b6033546001600160a01b03163314610a175760405162461bcd60e51b815260206004820181905260248201527f4f776e61626c653a2063616c6c6572206973206e6f7420746865206f776e65726044820152606401610a61565b611c30611df5565b6065805460ff191660011790557f62e78cea01bee320cd4e420270b5ea74000d11b0c9f74754ebdbfc544b05a258611c653390565b6040516001600160a01b03909116815260200160405180910390a1565b610afe611bce565b7f4910fdfa16fed3260ed0e7147f7cc6da11a60208b5b9406d12a635614ffd91435460ff1615611cbd5761084e8361242b565b826001600160a01b03166352d1902d6040518163ffffffff1660e01b8152600401602060405180830381865afa925050508015611d17575060408051601f3d908101601f19168201909252611d14918101906129e7565b60015b611d7a5760405162461bcd60e51b815260206004820152602e60248201527f45524331393637557067726164653a206e657720696d706c656d656e7461746960448201526d6f6e206973206e6f74205555505360901b6064820152608401610a61565b600080516020612dc48339815191528114611de95760405162461bcd60e51b815260206004820152602960248201527f45524331393637557067726164653a20756e737570706f727465642070726f786044820152681a58589b195555525160ba1b6064820152608401610a61565b5061084e8383836124c7565b60655460ff1615610a175760405162461bcd60e51b815260206004820152601060248201526f14185d5cd8589b194e881c185d5cd95960821b6044820152606401610a61565b600061010554600003611e4e5750600090565b6000611e586122d2565b90508061010554670de0b6b3a7640000611e729190612aae565b611e7c9190612ac5565b91505090565b600080611e8d6122d2565b9050600060fd60009054906101000a90046001600160a01b03166001600160a01b031663313ce5676040518163ffffffff1660e01b8152600401602060405180830381865afa158015611ee4573d6000803e3d6000fd5b505050506040513d601f19601f82011682018060405250810190611f0891906129e7565b611f1390600a612bcb565b611f1d8387612aae565b611f279190612ac5565b9050611f338482612aae565b925060fd60009054906101000a90046001600160a01b03166001600160a01b031663313ce5676040518163ffffffff1660e01b8152600401602060405180830381865afa158015611f88573d6000803e3d6000fd5b505050506040513d601f19601f82011682018060405250810190611fac91906129e7565b611fb790600a612bcb565b611fc19084612ac5565b95945050505050565b60fe5460405163018864d960e51b81526001600160a01b0385811660048301526024820185905260448201849052600092169063310c9b20906064016020604051808303816000875af1158015612025573d6000803e3d6000fd5b505050506040513d601f19601f82011682018060405250810190612049919061295c565b90505b9392505050565b6040516323b872dd60e01b81526001600160a01b0384811660048301528381166024830152604482018390528516906323b872dd906064016020604051808303816000875af11580156120aa573d6000803e3d6000fd5b505050506040513d601f19601f820116820180604052508101906120ce919061295c565b5050505050565b60008060ff60009054906101000a90046001600160a01b03166001600160a01b031663918a54db6040518163ffffffff1660e01b8152600401600060405180830381865afa15801561212b573d6000803e3d6000fd5b505050506040513d6000823e601f3d908101601f191682016040526121539190810190612c57565b5090949350505050565b60006121698284612aae565b90505b92915050565b60006121698284612ac5565b8261010660008282546121919190612ccc565b925050819055508161010760008282546121ab9190612ccc565b925050819055508183856001600160a01b03167f4ed8f3d1ed53b91a72ec0150f2643e443830cc7515a0b4111db52c15cd8119e6846040516121ed9190612cdf565b60405180910390a450505050565b603380546001600160a01b038381166001600160a01b0319831681179093556040519116919082907f8be0079c531659141344cd1fd0a4f28419497f9722a3daafe3b4186f6b6457e090600090a35050565b600054610100900460ff166122745760405162461bcd60e51b8152600401610a6190612cf2565b610a176124f2565b600054610100900460ff166122a35760405162461bcd60e51b8152600401610a6190612cf2565b610a17612525565b600054610100900460ff16610a175760405162461bcd60e51b8152600401610a6190612cf2565b60008061010260009054906101000a90046001600160a01b03166001600160a01b031663feaf968c6040518163ffffffff1660e01b815260040160a060405180830381865afa158015612329573d6000803e3d6000fd5b505050506040513d601f19601f8201168201806040525081019061234d9190612d57565b505050915050806402540be400611e7c9190612aae565b610100546040805163313ce56760e01b815290516000926001600160a01b03169163313ce5679160048083019260209291908290030181865afa1580156123af573d6000803e3d6000fd5b505050506040513d601f19601f820116820180604052508101906123d391906129e7565b6123de90600a612bcb565b6123e88385612aae565b6121699190612ac5565b6123fa612555565b6065805460ff191690557f5db9ee0a495bf2e6ff9c91a7834c1ba4fdd244a5e8aa4e537bd38aeae4b073aa33611c65565b6001600160a01b0381163b6124985760405162461bcd60e51b815260206004820152602d60248201527f455243313936373a206e657720696d706c656d656e746174696f6e206973206e60448201526c1bdd08184818dbdb9d1c9858dd609a1b6064820152608401610a61565b600080516020612dc483398151915280546001600160a01b0319166001600160a01b0392909216919091179055565b6124d08361259e565b6000825111806124dd5750805b1561084e576124ec83836125de565b50505050565b600054610100900460ff166125195760405162461bcd60e51b8152600401610a6190612cf2565b6065805460ff19169055565b600054610100900460ff1661254c5760405162461bcd60e51b8152600401610a6190612cf2565b610a17336121fb565b60655460ff16610a175760405162461bcd60e51b815260206004820152601460248201527314185d5cd8589b194e881b9bdd081c185d5cd95960621b6044820152606401610a61565b6125a78161242b565b6040516001600160a01b038216907fbc7cd75a20ee27fd9adebab32041f755214dbc6bffa90cc0225b39da2e5c2d3b90600090a250565b60606001600160a01b0383163b6126465760405162461bcd60e51b815260206004820152602660248201527f416464726573733a2064656c65676174652063616c6c20746f206e6f6e2d636f6044820152651b9d1c9858dd60d21b6064820152608401610a61565b600080846001600160a01b0316846040516126619190612da7565b600060405180830381855af49150503d806000811461269c576040519150601f19603f3d011682016040523d82523d6000602084013e6126a1565b606091505b5091509150611fc18282604051806060016040528060278152602001612de460279139606083156126d357508161204c565b61204c83838151156126e85781518083602001fd5b8060405162461bcd60e51b8152600401610a619190612cdf565b80356001600160a01b03811681146107d057600080fd5b60006020828403121561272b57600080fd5b61216982612702565b6000806040838503121561274757600080fd5b61275083612702565b946020939093013593505050565b60006020828403121561277057600080fd5b5035919050565b60005b8381101561279257818101518382015260200161277a565b50506000910152565b600081518084526127b3816020860160208601612777565b601f01601f19169290920160200192915050565b6001600160a01b03851681526080602082018190526000906127eb9083018661279b565b6040830194909452506060015292915050565b8015158114610afe57600080fd5b60006020828403121561281e57600080fd5b813561204c816127fe565b634e487b7160e01b600052604160045260246000fd5b604051601f8201601f1916810167ffffffffffffffff8111828210171561286857612868612829565b604052919050565b600067ffffffffffffffff82111561288a5761288a612829565b50601f01601f191660200190565b600080604083850312156128ab57600080fd5b6128b483612702565b9150602083013567ffffffffffffffff8111156128d057600080fd5b8301601f810185136128e157600080fd5b80356128f46128ef82612870565b61283f565b81815286602083850101111561290957600080fd5b816020840160208301376000602083830101528093505050509250929050565b60008060006060848603121561293e57600080fd5b61294784612702565b95602085013595506040909401359392505050565b60006020828403121561296e57600080fd5b815161204c816127fe565b60006020828403121561298b57600080fd5b815167ffffffffffffffff8111156129a257600080fd5b8201601f810184136129b357600080fd5b80516129c16128ef82612870565b8181528560208385010111156129d657600080fd5b611fc1826020830160208601612777565b6000602082840312156129f957600080fd5b5051919050565b6020808252602c908201527f46756e6374696f6e206d7573742062652063616c6c6564207468726f7567682060408201526b19195b1959d85d1958d85b1b60a21b606082015260800190565b6020808252602c908201527f46756e6374696f6e206d7573742062652063616c6c6564207468726f7567682060408201526b6163746976652070726f787960a01b606082015260800190565b634e487b7160e01b600052601160045260246000fd5b808202811582820484141761216c5761216c612a98565b600082612ae257634e487b7160e01b600052601260045260246000fd5b500490565b600181815b80851115612b22578160001904821115612b0857612b08612a98565b80851615612b1557918102915b93841c9390800290612aec565b509250929050565b600082612b395750600161216c565b81612b465750600061216c565b8160018114612b5c5760028114612b6657612b82565b600191505061216c565b60ff841115612b7757612b77612a98565b50506001821b61216c565b5060208310610133831016604e8410600b8410161715612ba5575081810a61216c565b612baf8383612ae7565b8060001904821115612bc357612bc3612a98565b029392505050565b60006121698383612b2a565b600082601f830112612be857600080fd5b8151602067ffffffffffffffff821115612c0457612c04612829565b8160051b612c1382820161283f565b9283528481018201928281019087851115612c2d57600080fd5b83870192505b84831015612c4c57825182529183019190830190612c33565b979650505050505050565b60008060008060808587031215612c6d57600080fd5b845167ffffffffffffffff80821115612c8557600080fd5b612c9188838901612bd7565b9550602087015194506040870151915080821115612cae57600080fd5b50612cbb87828801612bd7565b606096909601519497939650505050565b8082018082111561216c5761216c612a98565b602081526000612169602083018461279b565b6020808252602b908201527f496e697469616c697a61626c653a20636f6e7472616374206973206e6f74206960408201526a6e697469616c697a696e6760a81b606082015260800190565b805169ffffffffffffffffffff811681146107d057600080fd5b600080600080600060a08688031215612d6f57600080fd5b612d7886612d3d565b9450602086015193506040860151925060608601519150612d9b60808701612d3d565b90509295509295909350565b60008251612db9818460208701612777565b919091019291505056fe360894a13ba1a3210667c828492db98dca3e2076cc3735a920a3ca505d382bbc416464726573733a206c6f772d6c6576656c2064656c65676174652063616c6c206661696c6564a2646970667358221220a49a50e1ab1a6509e1d7b641dea1068a30f2fa4e00806fc54d8f553662f971ca64736f6c63430008110033",
  "linkReferences": {},
  "deployedLinkReferences": {}
}