{
  "_format": "hh-sol-artifact-1",
  "contractName": "PresaleUpgradeable",
  "sourceName": "contracts/PresaleUpgradeable.sol",
  "abi": [
    {
      "anonymous": false,
      "inputs": [
        {
          "indexed": false,
          "internalType": "address",
          "name": "previousAdmin",
          "type": "address"
        },
        {
          "indexed": false,
          "internalType": "address",
          "name": "newAdmin",
          "type": "address"
        }
      ],
      "name": "AdminChanged",
      "type": "event"
    },
    {
      "anonymous": false,
      "inputs": [
        {
          "indexed": true,
          "internalType": "address",
          "name": "beacon",
          "type": "address"
        }
      ],
      "name": "BeaconUpgraded",
      "type": "event"
    },
    {
      "anonymous": false,
      "inputs": [
        {
          "indexed": false,
          "internalType": "uint8",
          "name": "version",
          "type": "uint8"
        }
      ],
      "name": "Initialized",
      "type": "event"
    },
    {
      "anonymous": false,
      "inputs": [
        {
          "indexed": true,
          "internalType": "address",
          "name": "previousOwner",
          "type": "address"
        },
        {
          "indexed": true,
          "internalType": "address",
          "name": "newOwner",
          "type": "address"
        }
      ],
      "name": "OwnershipTransferred",
      "type": "event"
    },
    {
      "anonymous": false,
      "inputs": [
        {
          "indexed": false,
          "internalType": "address",
          "name": "account",
          "type": "address"
        }
      ],
      "name": "Paused",
      "type": "event"
    },
    {
      "anonymous": false,
      "inputs": [
        {
          "indexed": false,
          "internalType": "uint256",
          "name": "amount",
          "type": "uint256"
        }
      ],
      "name": "RegistrationFees",
      "type": "event"
    },
    {
      "anonymous": false,
      "inputs": [
        {
          "indexed": true,
          "internalType": "address",
          "name": "to",
          "type": "address"
        },
        {
          "indexed": true,
          "internalType": "uint256",
          "name": "tokenValue",
          "type": "uint256"
        },
        {
          "indexed": true,
          "internalType": "address",
          "name": "rewardTokenContract",
          "type": "address"
        }
      ],
      "name": "RewardTokenDistributed",
      "type": "event"
    },
    {
      "anonymous": false,
      "inputs": [
        {
          "indexed": true,
          "internalType": "address",
          "name": "from",
          "type": "address"
        },
        {
          "indexed": true,
          "internalType": "uint256",
          "name": "tokenValue",
          "type": "uint256"
        },
        {
          "indexed": true,
          "internalType": "uint256",
          "name": "ethValue",
          "type": "uint256"
        },
        {
          "indexed": false,
          "internalType": "string",
          "name": "currency",
          "type": "string"
        }
      ],
      "name": "TokenPurchased",
      "type": "event"
    },
    {
      "anonymous": false,
      "inputs": [
        {
          "indexed": false,
          "internalType": "address",
          "name": "account",
          "type": "address"
        }
      ],
      "name": "Unpaused",
      "type": "event"
    },
    {
      "anonymous": false,
      "inputs": [
        {
          "indexed": true,
          "internalType": "address",
          "name": "implementation",
          "type": "address"
        }
      ],
      "name": "Upgraded",
      "type": "event"
    },
    {
      "inputs": [
        {
          "internalType": "address",
          "name": "_referrerAddress",
          "type": "address"
        },
        {
          "internalType": "uint256",
          "name": "_valueInWei",
          "type": "uint256"
        }
      ],
      "name": "BuyWithANUSD",
      "outputs": [],
      "stateMutability": "nonpayable",
      "type": "function"
    },
    {
      "inputs": [
        {
          "internalType": "address[]",
          "name": "_userAddress",
          "type": "address[]"
        },
        {
          "internalType": "address[]",
          "name": "_referrerAddress",
          "type": "address[]"
        },
        {
          "internalType": "uint256[]",
          "name": "_valueInUSDDecimals",
          "type": "uint256[]"
        }
      ],
      "name": "BuyWithANUSDAdmin",
      "outputs": [],
      "stateMutability": "nonpayable",
      "type": "function"
    },
    {
      "inputs": [
        {
          "internalType": "address",
          "name": "_userAddress",
          "type": "address"
        },
        {
          "internalType": "address",
          "name": "_referrerAddress",
          "type": "address"
        },
        {
          "internalType": "uint256",
          "name": "_valueInDecimals",
          "type": "uint256"
        }
      ],
      "name": "BuyWithANUSDManager",
      "outputs": [],
      "stateMutability": "nonpayable",
      "type": "function"
    },
    {
      "inputs": [
        {
          "internalType": "uint256",
          "name": "",
          "type": "uint256"
        }
      ],
      "name": "admins",
      "outputs": [
        {
          "internalType": "address",
          "name": "",
          "type": "address"
        }
      ],
      "stateMutability": "view",
      "type": "function"
    },
    {
      "inputs": [],
      "name": "getAnalystics",
      "outputs": [
        {
          "internalType": "uint256",
          "name": "tokenSold",
          "type": "uint256"
        },
        {
          "internalType": "uint256",
          "name": "ausdRaised",
          "type": "uint256"
        }
      ],
      "stateMutability": "view",
      "type": "function"
    },
    {
      "inputs": [],
      "name": "getCapping",
      "outputs": [
        {
          "internalType": "uint256",
          "name": "minConUSD",
          "type": "uint256"
        },
        {
          "internalType": "bool",
          "name": "isBuyStakeEnabled",
          "type": "bool"
        },
        {
          "internalType": "bool",
          "name": "isPayReferralEnabled",
          "type": "bool"
        },
        {
          "internalType": "bool",
          "name": "isPayRewardTokenEnabled",
          "type": "bool"
        },
        {
          "internalType": "uint256",
          "name": "maxBuyLimitANUSD",
          "type": "uint256"
        }
      ],
      "stateMutability": "view",
      "type": "function"
    },
    {
      "inputs": [],
      "name": "getVariablesContract",
      "outputs": [
        {
          "internalType": "address",
          "name": "",
          "type": "address"
        }
      ],
      "stateMutability": "view",
      "type": "function"
    },
    {
      "inputs": [],
      "name": "initialize",
      "outputs": [],
      "stateMutability": "nonpayable",
      "type": "function"
    },
    {
      "inputs": [],
      "name": "owner",
      "outputs": [
        {
          "internalType": "address",
          "name": "",
          "type": "address"
        }
      ],
      "stateMutability": "view",
      "type": "function"
    },
    {
      "inputs": [],
      "name": "pauseAdmin",
      "outputs": [],
      "stateMutability": "nonpayable",
      "type": "function"
    },
    {
      "inputs": [],
      "name": "paused",
      "outputs": [
        {
          "internalType": "bool",
          "name": "",
          "type": "bool"
        }
      ],
      "stateMutability": "view",
      "type": "function"
    },
    {
      "inputs": [],
      "name": "proxiableUUID",
      "outputs": [
        {
          "internalType": "bytes32",
          "name": "",
          "type": "bytes32"
        }
      ],
      "stateMutability": "view",
      "type": "function"
    },
    {
      "inputs": [],
      "name": "renounceOwnership",
      "outputs": [],
      "stateMutability": "nonpayable",
      "type": "function"
    },
    {
      "inputs": [
        {
          "internalType": "uint256",
          "name": "minConUSD",
          "type": "uint256"
        },
        {
          "internalType": "bool",
          "name": "isBuyNStake",
          "type": "bool"
        },
        {
          "internalType": "bool",
          "name": "isPayReferral",
          "type": "bool"
        },
        {
          "internalType": "bool",
          "name": "isPayRewardTokens",
          "type": "bool"
        },
        {
          "internalType": "uint256",
          "name": "maxBuyLimitANUSD",
          "type": "uint256"
        }
      ],
      "name": "setCapping",
      "outputs": [],
      "stateMutability": "nonpayable",
      "type": "function"
    },
    {
      "inputs": [
        {
          "internalType": "address",
          "name": "_contractAddress",
          "type": "address"
        }
      ],
      "name": "setVariablesContract",
      "outputs": [],
      "stateMutability": "nonpayable",
      "type": "function"
    },
    {
      "inputs": [
        {
          "internalType": "address",
          "name": "_address",
          "type": "address"
        },
        {
          "internalType": "uint256",
          "name": "_value",
          "type": "uint256"
        }
      ],
      "name": "transferETH",
      "outputs": [],
      "stateMutability": "nonpayable",
      "type": "function"
    },
    {
      "inputs": [
        {
          "internalType": "address",
          "name": "newOwner",
          "type": "address"
        }
      ],
      "name": "transferOwnership",
      "outputs": [],
      "stateMutability": "nonpayable",
      "type": "function"
    },
    {
      "inputs": [],
      "name": "unpauseAdmin",
      "outputs": [],
      "stateMutability": "nonpayable",
      "type": "function"
    },
    {
      "inputs": [
        {
          "internalType": "address",
          "name": "newImplementation",
          "type": "address"
        }
      ],
      "name": "upgradeTo",
      "outputs": [],
      "stateMutability": "nonpayable",
      "type": "function"
    },
    {
      "inputs": [
        {
          "internalType": "address",
          "name": "newImplementation",
          "type": "address"
        },
        {
          "internalType": "bytes",
          "name": "data",
          "type": "bytes"
        }
      ],
      "name": "upgradeToAndCall",
      "outputs": [],
      "stateMutability": "payable",
      "type": "function"
    },
    {
      "inputs": [],
      "name": "withdrawETH",
      "outputs": [],
      "stateMutability": "nonpayable",
      "type": "function"
    },
    {
      "inputs": [
        {
          "internalType": "address",
          "name": "_tokenAddress",
          "type": "address"
        },
        {
          "internalType": "uint256",
          "name": "_value",
          "type": "uint256"
        }
      ],
      "name": "withdrawTokens",
      "outputs": [],
      "stateMutability": "nonpayable",
      "type": "function"
    },
    {
      "stateMutability": "payable",
      "type": "receive"
    }
  ],
  "bytecode": "0x60a06040523060805234801561001457600080fd5b50608051612afa61004c6000396000818161111001528181611150015281816111ef0152818161122f01526112c20152612afa6000f3fe6080604052600436106101395760003560e01c80636740090a116100ab578063b9439d201161006f578063b9439d2014610342578063db5184e614610362578063de863da314610377578063e086e5ec146103cc578063f13a143f146103e1578063f2fde38b146103ff57600080fd5b80636740090a146102ba578063715018a6146102da5780637b1a4909146102ef5780638129fc1c1461030f5780638da5cb5b1461032457600080fd5b80632f11d653116100fd5780632f11d653146102045780633659cfe6146102195780634f0371d7146102395780634f1ef2861461026157806352d1902d146102745780635c975abb1461029757600080fd5b806306b091f9146101455780630ba0dba31461016757806314bfd6d01461018757806315fcd116146101c4578063182feeaa146101e457600080fd5b3661014057005b600080fd5b34801561015157600080fd5b50610165610160366004612417565b61041f565b005b34801561017357600080fd5b50610165610182366004612443565b61049d565b34801561019357600080fd5b506101a76101a2366004612460565b6104c7565b6040516001600160a01b0390911681526020015b60405180910390f35b3480156101d057600080fd5b506101656101df366004612479565b6104f2565b3480156101f057600080fd5b506101656101ff366004612506565b610ca0565b34801561021057600080fd5b506101656110f4565b34801561022557600080fd5b50610165610234366004612443565b611106565b34801561024557600080fd5b5060fe5460ff54604080519283526020830191909152016101bb565b61016561026f3660046125e7565b6111e5565b34801561028057600080fd5b506102896112b5565b6040519081526020016101bb565b3480156102a357600080fd5b5060655460ff1660405190151581526020016101bb565b3480156102c657600080fd5b506101656102d536600461269d565b611368565b3480156102e657600080fd5b506101656113af565b3480156102fb57600080fd5b5061016561030a366004612417565b6113c1565b34801561031b57600080fd5b506101656113ff565b34801561033057600080fd5b506033546001600160a01b03166101a7565b34801561034e57600080fd5b5061016561035d366004612417565b61157d565b34801561036e57600080fd5b50610165611b55565b34801561038357600080fd5b5060fd546101008054610101546040805194855260ff8084161515602087015293830484161515908501526201000090910490911615156060830152608082015260a0016101bb565b3480156103d857600080fd5b50610165611b65565b3480156103ed57600080fd5b5060fb546001600160a01b03166101a7565b34801561040b57600080fd5b5061016561041a366004612443565b611b99565b610427611c0f565b60405163a9059cbb60e01b8152336004820152602481018290526001600160a01b0383169063a9059cbb906044016020604051808303816000875af1158015610474573d6000803e3d6000fd5b505050506040513d601f19601f8201168201806040525081019061049891906126f8565b505050565b6104a5611c0f565b60fb80546001600160a01b0319166001600160a01b0392909216919091179055565b61010281815481106104d857600080fd5b6000918252602090912001546001600160a01b0316905081565b6104fa611c69565b60fb5460405163f3ae241560e01b81523360048201526001600160a01b039091169063f3ae241590602401602060405180830381865afa158015610542573d6000803e3d6000fd5b505050506040513d601f19601f8201168201806040525081019061056691906126f8565b6105c55760405162461bcd60e51b815260206004820152602560248201527f4f6e6c79206d616e61676572732063616e2063616c6c20746869732066756e636044820152643a34b7b71760d91b60648201526084015b60405180910390fd5b60fb54604080516312f24b5b60e21b815290516001600160a01b039092169133916000918491634bc92d6c9160048083019260209291908290030181865afa158015610615573d6000803e3d6000fd5b505050506040513d601f19601f820116820180604052508101906106399190612715565b9050600061064f85670de0b6b3a7640000612744565b905060fd548110156106735760405162461bcd60e51b81526004016105bc9061275b565b610101548111156106be5760405162461bcd60e51b815260206004820152601560248201527413585e08189d5e481b1a5b5a5d081c995858da1959605a1b60448201526064016105bc565b836001600160a01b031663b70cc4c16040518163ffffffff1660e01b8152600401602060405180830381865afa1580156106fc573d6000803e3d6000fd5b505050506040513d601f19601f82011682018060405250810190610720919061279e565b6040516323b872dd60e01b81526001600160a01b0385811660048301523060248301526044820184905291909116906323b872dd906064016020604051808303816000875af1158015610777573d6000803e3d6000fd5b505050506040513d601f19601f8201168201806040525081019061079b91906126f8565b5060006108d6856001600160a01b031663b70cc4c16040518163ffffffff1660e01b8152600401602060405180830381865afa1580156107df573d6000803e3d6000fd5b505050506040513d601f19601f82011682018060405250810190610803919061279e565b61080d85856127bb565b876001600160a01b03166355a373d66040518163ffffffff1660e01b8152600401602060405180830381865afa15801561084b573d6000803e3d6000fd5b505050506040513d601f19601f8201168201806040525081019061086f919061279e565b886001600160a01b0316638290c4a66040518163ffffffff1660e01b8152600401602060405180830381865afa1580156108ad573d6000803e3d6000fd5b505050506040513d601f19601f820116820180604052508101906108d1919061279e565b611caf565b6101005490915060ff16156109fa57846001600160a01b031663ee99205c6040518163ffffffff1660e01b8152600401602060405180830381865afa158015610923573d6000803e3d6000fd5b505050506040513d601f19601f82011682018060405250810190610947919061279e565b6001600160a01b031663310c9b208983600181518110610969576109696127ce565b602002602001015184600081518110610984576109846127ce565b60209081029190910101516040516001600160e01b031960e086901b1681526001600160a01b03909316600484015260248301919091526044820152606401600060405180830381600087803b1580156109dd57600080fd5b505af11580156109f1573d6000803e3d6000fd5b50505050610afc565b846001600160a01b03166355a373d66040518163ffffffff1660e01b8152600401602060405180830381865afa158015610a38573d6000803e3d6000fd5b505050506040513d601f19601f82011682018060405250810190610a5c919061279e565b6001600160a01b031663a9059cbb8983600181518110610a7e57610a7e6127ce565b60200260200101516040518363ffffffff1660e01b8152600401610ab79291906001600160a01b03929092168252602082015260400190565b6020604051808303816000875af1158015610ad6573d6000803e3d6000fd5b505050506040513d601f19601f82011682018060405250810190610afa91906126f8565b505b61010080540460ff1615610c0257846001600160a01b0316637dad19db6040518163ffffffff1660e01b8152600401602060405180830381865afa158015610b48573d6000803e3d6000fd5b505050506040513d601f19601f82011682018060405250810190610b6c919061279e565b6001600160a01b031663228159b482600081518110610b8d57610b8d6127ce565b60200260200101518a8a6040518463ffffffff1660e01b8152600401610bcf939291909283526001600160a01b03918216602084015216604082015260600190565b600060405180830381600087803b158015610be957600080fd5b505af1158015610bfd573d6000803e3d6000fd5b505050505b7f629a485b55f72b3241f1b41ff1864e029996d1cf7d54ef632b907af140f57430856001600160a01b0316634bc92d6c6040518163ffffffff1660e01b8152600401602060405180830381865afa158015610c61573d6000803e3d6000fd5b505050506040513d601f19601f82011682018060405250810190610c859190612715565b60405190815260200160405180910390a15050505050505050565b60fb54604051630935e01b60e21b81523360048201526001600160a01b03909116906324d7806c90602401602060405180830381865afa158015610ce8573d6000803e3d6000fd5b505050506040513d601f19601f82011682018060405250810190610d0c91906126f8565b610d4c5760405162461bcd60e51b81526020600482015260116024820152702cb7ba9030b932903737ba1030b236b4b760791b60448201526064016105bc565b60fb5485906001600160a01b031660005b828110156110e9576000826001600160a01b0316634bc92d6c6040518163ffffffff1660e01b8152600401602060405180830381865afa158015610da5573d6000803e3d6000fd5b505050506040513d601f19601f82011682018060405250810190610dc99190612715565b90506000868684818110610ddf57610ddf6127ce565b90506020020135670de0b6b3a7640000610df99190612744565b90506000610e3e856001600160a01b031663b70cc4c16040518163ffffffff1660e01b8152600401602060405180830381865afa1580156107df573d6000803e3d6000fd5b6101005490915060ff1615610f8457846001600160a01b031663ee99205c6040518163ffffffff1660e01b8152600401602060405180830381865afa158015610e8b573d6000803e3d6000fd5b505050506040513d601f19601f82011682018060405250810190610eaf919061279e565b6001600160a01b031663310c9b208d8d87818110610ecf57610ecf6127ce565b9050602002016020810190610ee49190612443565b83600181518110610ef757610ef76127ce565b602002602001015184600081518110610f1257610f126127ce565b60209081029190910101516040516001600160e01b031960e086901b1681526001600160a01b03909316600484015260248301919091526044820152606401600060405180830381600087803b158015610f6b57600080fd5b505af1158015610f7f573d6000803e3d6000fd5b505050505b61010080540460ff16156110d357846001600160a01b0316637dad19db6040518163ffffffff1660e01b8152600401602060405180830381865afa158015610fd0573d6000803e3d6000fd5b505050506040513d601f19601f82011682018060405250810190610ff4919061279e565b6001600160a01b031663228159b482600081518110611015576110156127ce565b60200260200101518e8e8881811061102f5761102f6127ce565b90506020020160208101906110449190612443565b8d8d89818110611056576110566127ce565b905060200201602081019061106b9190612443565b6040516001600160e01b031960e086901b16815260048101939093526001600160a01b039182166024840152166044820152606401600060405180830381600087803b1580156110ba57600080fd5b505af11580156110ce573d6000803e3d6000fd5b505050505b50505080806110e1906127e4565b915050610d5d565b505050505050505050565b6110fc611c0f565b611104611e32565b565b6001600160a01b037f000000000000000000000000000000000000000000000000000000000000000016300361114e5760405162461bcd60e51b81526004016105bc906127fd565b7f00000000000000000000000000000000000000000000000000000000000000006001600160a01b0316611197600080516020612a7e833981519152546001600160a01b031690565b6001600160a01b0316146111bd5760405162461bcd60e51b81526004016105bc90612849565b6111c681611e8c565b604080516000808252602082019092526111e291839190611e94565b50565b6001600160a01b037f000000000000000000000000000000000000000000000000000000000000000016300361122d5760405162461bcd60e51b81526004016105bc906127fd565b7f00000000000000000000000000000000000000000000000000000000000000006001600160a01b0316611276600080516020612a7e833981519152546001600160a01b031690565b6001600160a01b03161461129c5760405162461bcd60e51b81526004016105bc90612849565b6112a582611e8c565b6112b182826001611e94565b5050565b6000306001600160a01b037f000000000000000000000000000000000000000000000000000000000000000016146113555760405162461bcd60e51b815260206004820152603860248201527f555550535570677261646561626c653a206d757374206e6f742062652063616c60448201527f6c6564207468726f7567682064656c656761746563616c6c000000000000000060648201526084016105bc565b50600080516020612a7e83398151915290565b611370611c0f565b60fd94909455610100805461ffff191693151561ff0019169390931791151583029190911762ff00001916620100009115159190910217905561010155565b6113b7611c0f565b6111046000611fff565b6113c9611c0f565b6040516001600160a01b0383169082156108fc029083906000818181858888f19350505050158015610498573d6000803e3d6000fd5b600054610100900460ff161580801561141f5750600054600160ff909116105b806114395750303b158015611439575060005460ff166001145b61149c5760405162461bcd60e51b815260206004820152602e60248201527f496e697469616c697a61626c653a20636f6e747261637420697320616c72656160448201526d191e481a5b9a5d1a585b1a5e995960921b60648201526084016105bc565b6000805460ff1916600117905580156114bf576000805461ff0019166101001790555b60fb80546001600160a01b0319167377daafc7411c911b869c71bf70fe36cce507845d17905566038d7ea4c6800060fc556801158e460913d0000060fd55610100805462ffffff1916610101908117909155681ba5abf9e7793800009055611525612051565b61152d612080565b6115356120af565b80156111e2576000805461ff0019169055604051600181527f7f26b83ff96e1f2b6a682f133852f6798a09c465da95921460cefb38474024989060200160405180910390a150565b611585611c69565b60fb54604080516312f24b5b60e21b815290516001600160a01b039092169133916000918491634bc92d6c9160048083019260209291908290030181865afa1580156115d5573d6000803e3d6000fd5b505050506040513d601f19601f820116820180604052508101906115f99190612715565b60fd5490915084908110156116205760405162461bcd60e51b81526004016105bc9061275b565b6101015481111561166b5760405162461bcd60e51b815260206004820152601560248201527413585e08189d5e481b1a5b5a5d081c995858da1959605a1b60448201526064016105bc565b836001600160a01b031663b70cc4c16040518163ffffffff1660e01b8152600401602060405180830381865afa1580156116a9573d6000803e3d6000fd5b505050506040513d601f19601f820116820180604052508101906116cd919061279e565b6040516323b872dd60e01b81526001600160a01b0385811660048301523060248301526044820184905291909116906323b872dd906064016020604051808303816000875af1158015611724573d6000803e3d6000fd5b505050506040513d601f19601f8201168201806040525081019061174891906126f8565b50600061178c856001600160a01b031663b70cc4c16040518163ffffffff1660e01b8152600401602060405180830381865afa1580156107df573d6000803e3d6000fd5b6101005490915060ff16156118b057846001600160a01b031663ee99205c6040518163ffffffff1660e01b8152600401602060405180830381865afa1580156117d9573d6000803e3d6000fd5b505050506040513d601f19601f820116820180604052508101906117fd919061279e565b6001600160a01b031663310c9b20858360018151811061181f5761181f6127ce565b60200260200101518460008151811061183a5761183a6127ce565b60209081029190910101516040516001600160e01b031960e086901b1681526001600160a01b03909316600484015260248301919091526044820152606401600060405180830381600087803b15801561189357600080fd5b505af11580156118a7573d6000803e3d6000fd5b505050506119b2565b846001600160a01b03166355a373d66040518163ffffffff1660e01b8152600401602060405180830381865afa1580156118ee573d6000803e3d6000fd5b505050506040513d601f19601f82011682018060405250810190611912919061279e565b6001600160a01b031663a9059cbb8583600181518110611934576119346127ce565b60200260200101516040518363ffffffff1660e01b815260040161196d9291906001600160a01b03929092168252602082015260400190565b6020604051808303816000875af115801561198c573d6000803e3d6000fd5b505050506040513d601f19601f820116820180604052508101906119b091906126f8565b505b61010080540460ff1615611ab857846001600160a01b0316637dad19db6040518163ffffffff1660e01b8152600401602060405180830381865afa1580156119fe573d6000803e3d6000fd5b505050506040513d601f19601f82011682018060405250810190611a22919061279e565b6001600160a01b031663228159b482600081518110611a4357611a436127ce565b6020026020010151868a6040518463ffffffff1660e01b8152600401611a85939291909283526001600160a01b03918216602084015216604082015260600190565b600060405180830381600087803b158015611a9f57600080fd5b505af1158015611ab3573d6000803e3d6000fd5b505050505b7f629a485b55f72b3241f1b41ff1864e029996d1cf7d54ef632b907af140f57430856001600160a01b0316634bc92d6c6040518163ffffffff1660e01b8152600401602060405180830381865afa158015611b17573d6000803e3d6000fd5b505050506040513d601f19601f82011682018060405250810190611b3b9190612715565b60405190815260200160405180910390a150505050505050565b611b5d611c0f565b6111046120d6565b611b6d611c0f565b60405133904780156108fc02916000818181858888f193505050501580156111e2573d6000803e3d6000fd5b611ba1611c0f565b6001600160a01b038116611c065760405162461bcd60e51b815260206004820152602660248201527f4f776e61626c653a206e6577206f776e657220697320746865207a65726f206160448201526564647265737360d01b60648201526084016105bc565b6111e281611fff565b6033546001600160a01b031633146111045760405162461bcd60e51b815260206004820181905260248201527f4f776e61626c653a2063616c6c6572206973206e6f7420746865206f776e657260448201526064016105bc565b60655460ff16156111045760405162461bcd60e51b815260206004820152601060248201526f14185d5cd8589b194e881c185d5cd95960821b60448201526064016105bc565b604080516002808252606080830184529260009291906020830190803683370190505090508581600081518110611ce857611ce86127ce565b60200260200101906001600160a01b031690816001600160a01b0316815250508381600181518110611d1c57611d1c6127ce565b6001600160a01b03928316602091820292909201015260405163095ea7b360e01b81528482166004820152602481018790529087169063095ea7b3906044016020604051808303816000875af1158015611d7a573d6000803e3d6000fd5b505050506040513d601f19601f82011682018060405250810190611d9e91906126f8565b5060006001600160a01b0384166338ed17398760018530611dc0426064612895565b6040518663ffffffff1660e01b8152600401611de09594939291906128a8565b6000604051808303816000875af1158015611dff573d6000803e3d6000fd5b505050506040513d6000823e601f3d908101601f19168201604052611e279190810190612919565b979650505050505050565b611e3a611c69565b6065805460ff191660011790557f62e78cea01bee320cd4e420270b5ea74000d11b0c9f74754ebdbfc544b05a258611e6f3390565b6040516001600160a01b03909116815260200160405180910390a1565b6111e2611c0f565b7f4910fdfa16fed3260ed0e7147f7cc6da11a60208b5b9406d12a635614ffd91435460ff1615611ec7576104988361210f565b826001600160a01b03166352d1902d6040518163ffffffff1660e01b8152600401602060405180830381865afa925050508015611f21575060408051601f3d908101601f19168201909252611f1e91810190612715565b60015b611f845760405162461bcd60e51b815260206004820152602e60248201527f45524331393637557067726164653a206e657720696d706c656d656e7461746960448201526d6f6e206973206e6f74205555505360901b60648201526084016105bc565b600080516020612a7e8339815191528114611ff35760405162461bcd60e51b815260206004820152602960248201527f45524331393637557067726164653a20756e737570706f727465642070726f786044820152681a58589b195555525160ba1b60648201526084016105bc565b506104988383836121ab565b603380546001600160a01b038381166001600160a01b0319831681179093556040519116919082907f8be0079c531659141344cd1fd0a4f28419497f9722a3daafe3b4186f6b6457e090600090a35050565b600054610100900460ff166120785760405162461bcd60e51b81526004016105bc906129bf565b6111046121d6565b600054610100900460ff166120a75760405162461bcd60e51b81526004016105bc906129bf565b611104612209565b600054610100900460ff166111045760405162461bcd60e51b81526004016105bc906129bf565b6120de612239565b6065805460ff191690557f5db9ee0a495bf2e6ff9c91a7834c1ba4fdd244a5e8aa4e537bd38aeae4b073aa33611e6f565b6001600160a01b0381163b61217c5760405162461bcd60e51b815260206004820152602d60248201527f455243313936373a206e657720696d706c656d656e746174696f6e206973206e60448201526c1bdd08184818dbdb9d1c9858dd609a1b60648201526084016105bc565b600080516020612a7e83398151915280546001600160a01b0319166001600160a01b0392909216919091179055565b6121b483612282565b6000825111806121c15750805b15610498576121d083836122c2565b50505050565b600054610100900460ff166121fd5760405162461bcd60e51b81526004016105bc906129bf565b6065805460ff19169055565b600054610100900460ff166122305760405162461bcd60e51b81526004016105bc906129bf565b61110433611fff565b60655460ff166111045760405162461bcd60e51b815260206004820152601460248201527314185d5cd8589b194e881b9bdd081c185d5cd95960621b60448201526064016105bc565b61228b8161210f565b6040516001600160a01b038216907fbc7cd75a20ee27fd9adebab32041f755214dbc6bffa90cc0225b39da2e5c2d3b90600090a250565b60606001600160a01b0383163b61232a5760405162461bcd60e51b815260206004820152602660248201527f416464726573733a2064656c65676174652063616c6c20746f206e6f6e2d636f6044820152651b9d1c9858dd60d21b60648201526084016105bc565b600080846001600160a01b0316846040516123459190612a2e565b600060405180830381855af49150503d8060008114612380576040519150601f19603f3d011682016040523d82523d6000602084013e612385565b606091505b50915091506123ad8282604051806060016040528060278152602001612a9e602791396123b8565b925050505b92915050565b606083156123c75750816123d1565b6123d183836123d8565b9392505050565b8151156123e85781518083602001fd5b8060405162461bcd60e51b81526004016105bc9190612a4a565b6001600160a01b03811681146111e257600080fd5b6000806040838503121561242a57600080fd5b823561243581612402565b946020939093013593505050565b60006020828403121561245557600080fd5b81356123d181612402565b60006020828403121561247257600080fd5b5035919050565b60008060006060848603121561248e57600080fd5b833561249981612402565b925060208401356124a981612402565b929592945050506040919091013590565b60008083601f8401126124cc57600080fd5b50813567ffffffffffffffff8111156124e457600080fd5b6020830191508360208260051b85010111156124ff57600080fd5b9250929050565b6000806000806000806060878903121561251f57600080fd5b863567ffffffffffffffff8082111561253757600080fd5b6125438a838b016124ba565b9098509650602089013591508082111561255c57600080fd5b6125688a838b016124ba565b9096509450604089013591508082111561258157600080fd5b5061258e89828a016124ba565b979a9699509497509295939492505050565b634e487b7160e01b600052604160045260246000fd5b604051601f8201601f1916810167ffffffffffffffff811182821017156125df576125df6125a0565b604052919050565b600080604083850312156125fa57600080fd5b823561260581612402565b915060208381013567ffffffffffffffff8082111561262357600080fd5b818601915086601f83011261263757600080fd5b813581811115612649576126496125a0565b61265b601f8201601f191685016125b6565b9150808252878482850101111561267157600080fd5b80848401858401376000848284010152508093505050509250929050565b80151581146111e257600080fd5b600080600080600060a086880312156126b557600080fd5b8535945060208601356126c78161268f565b935060408601356126d78161268f565b925060608601356126e78161268f565b949793965091946080013592915050565b60006020828403121561270a57600080fd5b81516123d18161268f565b60006020828403121561272757600080fd5b5051919050565b634e487b7160e01b600052601160045260246000fd5b80820281158282048414176123b2576123b261272e565b60208082526023908201527f415553442076616c7565206c657373207468656e206d696e206275792076616c6040820152623ab29760e91b606082015260800190565b6000602082840312156127b057600080fd5b81516123d181612402565b818103818111156123b2576123b261272e565b634e487b7160e01b600052603260045260246000fd5b6000600182016127f6576127f661272e565b5060010190565b6020808252602c908201527f46756e6374696f6e206d7573742062652063616c6c6564207468726f7567682060408201526b19195b1959d85d1958d85b1b60a21b606082015260800190565b6020808252602c908201527f46756e6374696f6e206d7573742062652063616c6c6564207468726f7567682060408201526b6163746976652070726f787960a01b606082015260800190565b808201808211156123b2576123b261272e565b600060a082018783526020878185015260a0604085015281875180845260c086019150828901935060005b818110156128f85784516001600160a01b0316835293830193918301916001016128d3565b50506001600160a01b03969096166060850152505050608001529392505050565b6000602080838503121561292c57600080fd5b825167ffffffffffffffff8082111561294457600080fd5b818501915085601f83011261295857600080fd5b81518181111561296a5761296a6125a0565b8060051b915061297b8483016125b6565b818152918301840191848101908884111561299557600080fd5b938501935b838510156129b35784518252938501939085019061299a565b98975050505050505050565b6020808252602b908201527f496e697469616c697a61626c653a20636f6e7472616374206973206e6f74206960408201526a6e697469616c697a696e6760a81b606082015260800190565b60005b83811015612a25578181015183820152602001612a0d565b50506000910152565b60008251612a40818460208701612a0a565b9190910192915050565b6020815260008251806020840152612a69816040850160208701612a0a565b601f01601f1916919091016040019291505056fe360894a13ba1a3210667c828492db98dca3e2076cc3735a920a3ca505d382bbc416464726573733a206c6f772d6c6576656c2064656c65676174652063616c6c206661696c6564a2646970667358221220786d9dece26640d903c2b548ff0aeaa29b532e711f94706bc9ccb2b1fd3188c664736f6c63430008110033",
  "linkReferences": {},
  "deployedLinkReferences": {}
}