{
  "_format": "hh-sol-artifact-1",
  "contractName": "PresaleUpgradeable",
  "sourceName": "contracts/PresaleUpgradeable.sol",
  "abi": [
    {
      "anonymous": false,
      "inputs": [
        {
          "indexed": false,
          "internalType": "address",
          "name": "previousAdmin",
          "type": "address"
        },
        {
          "indexed": false,
          "internalType": "address",
          "name": "newAdmin",
          "type": "address"
        }
      ],
      "name": "AdminChanged",
      "type": "event"
    },
    {
      "anonymous": false,
      "inputs": [
        {
          "indexed": true,
          "internalType": "address",
          "name": "beacon",
          "type": "address"
        }
      ],
      "name": "BeaconUpgraded",
      "type": "event"
    },
    {
      "anonymous": false,
      "inputs": [
        {
          "indexed": false,
          "internalType": "uint8",
          "name": "version",
          "type": "uint8"
        }
      ],
      "name": "Initialized",
      "type": "event"
    },
    {
      "anonymous": false,
      "inputs": [
        {
          "indexed": true,
          "internalType": "address",
          "name": "previousOwner",
          "type": "address"
        },
        {
          "indexed": true,
          "internalType": "address",
          "name": "newOwner",
          "type": "address"
        }
      ],
      "name": "OwnershipTransferred",
      "type": "event"
    },
    {
      "anonymous": false,
      "inputs": [
        {
          "indexed": false,
          "internalType": "address",
          "name": "account",
          "type": "address"
        }
      ],
      "name": "Paused",
      "type": "event"
    },
    {
      "anonymous": false,
      "inputs": [
        {
          "indexed": false,
          "internalType": "uint256",
          "name": "amount",
          "type": "uint256"
        }
      ],
      "name": "RegistrationFees",
      "type": "event"
    },
    {
      "anonymous": false,
      "inputs": [
        {
          "indexed": true,
          "internalType": "address",
          "name": "to",
          "type": "address"
        },
        {
          "indexed": true,
          "internalType": "uint256",
          "name": "tokenValue",
          "type": "uint256"
        },
        {
          "indexed": true,
          "internalType": "address",
          "name": "rewardTokenContract",
          "type": "address"
        }
      ],
      "name": "RewardTokenDistributed",
      "type": "event"
    },
    {
      "anonymous": false,
      "inputs": [
        {
          "indexed": true,
          "internalType": "address",
          "name": "from",
          "type": "address"
        },
        {
          "indexed": true,
          "internalType": "uint256",
          "name": "tokenValue",
          "type": "uint256"
        },
        {
          "indexed": true,
          "internalType": "uint256",
          "name": "ethValue",
          "type": "uint256"
        },
        {
          "indexed": false,
          "internalType": "string",
          "name": "currency",
          "type": "string"
        }
      ],
      "name": "TokenPurchased",
      "type": "event"
    },
    {
      "anonymous": false,
      "inputs": [
        {
          "indexed": false,
          "internalType": "address",
          "name": "account",
          "type": "address"
        }
      ],
      "name": "Unpaused",
      "type": "event"
    },
    {
      "anonymous": false,
      "inputs": [
        {
          "indexed": true,
          "internalType": "address",
          "name": "implementation",
          "type": "address"
        }
      ],
      "name": "Upgraded",
      "type": "event"
    },
    {
      "inputs": [
        {
          "internalType": "address",
          "name": "_referrerAddress",
          "type": "address"
        },
        {
          "internalType": "uint256",
          "name": "_valueInWei",
          "type": "uint256"
        }
      ],
      "name": "BuyWithANUSD",
      "outputs": [],
      "stateMutability": "nonpayable",
      "type": "function"
    },
    {
      "inputs": [],
      "name": "getAnalystics",
      "outputs": [
        {
          "internalType": "uint256",
          "name": "tokenSold",
          "type": "uint256"
        },
        {
          "internalType": "uint256",
          "name": "ausdRaised",
          "type": "uint256"
        }
      ],
      "stateMutability": "view",
      "type": "function"
    },
    {
      "inputs": [],
      "name": "getCapping",
      "outputs": [
        {
          "internalType": "uint256",
          "name": "minConUSD",
          "type": "uint256"
        },
        {
          "internalType": "bool",
          "name": "isBuyStakeEnabled",
          "type": "bool"
        },
        {
          "internalType": "bool",
          "name": "isPayReferralEnabled",
          "type": "bool"
        },
        {
          "internalType": "bool",
          "name": "isPayRewardTokenEnabled",
          "type": "bool"
        }
      ],
      "stateMutability": "view",
      "type": "function"
    },
    {
      "inputs": [],
      "name": "getVariablesContract",
      "outputs": [
        {
          "internalType": "address",
          "name": "",
          "type": "address"
        }
      ],
      "stateMutability": "view",
      "type": "function"
    },
    {
      "inputs": [],
      "name": "initialize",
      "outputs": [],
      "stateMutability": "nonpayable",
      "type": "function"
    },
    {
      "inputs": [],
      "name": "owner",
      "outputs": [
        {
          "internalType": "address",
          "name": "",
          "type": "address"
        }
      ],
      "stateMutability": "view",
      "type": "function"
    },
    {
      "inputs": [],
      "name": "pauseAdmin",
      "outputs": [],
      "stateMutability": "nonpayable",
      "type": "function"
    },
    {
      "inputs": [],
      "name": "paused",
      "outputs": [
        {
          "internalType": "bool",
          "name": "",
          "type": "bool"
        }
      ],
      "stateMutability": "view",
      "type": "function"
    },
    {
      "inputs": [],
      "name": "proxiableUUID",
      "outputs": [
        {
          "internalType": "bytes32",
          "name": "",
          "type": "bytes32"
        }
      ],
      "stateMutability": "view",
      "type": "function"
    },
    {
      "inputs": [],
      "name": "renounceOwnership",
      "outputs": [],
      "stateMutability": "nonpayable",
      "type": "function"
    },
    {
      "inputs": [
        {
          "internalType": "uint256",
          "name": "minConUSD",
          "type": "uint256"
        },
        {
          "internalType": "bool",
          "name": "isBuyNStake",
          "type": "bool"
        },
        {
          "internalType": "bool",
          "name": "isPayReferral",
          "type": "bool"
        },
        {
          "internalType": "bool",
          "name": "isPayRewardTokens",
          "type": "bool"
        }
      ],
      "name": "setCapping",
      "outputs": [],
      "stateMutability": "nonpayable",
      "type": "function"
    },
    {
      "inputs": [
        {
          "internalType": "address",
          "name": "_contractAddress",
          "type": "address"
        }
      ],
      "name": "setVariablesContract",
      "outputs": [],
      "stateMutability": "nonpayable",
      "type": "function"
    },
    {
      "inputs": [
        {
          "internalType": "address",
          "name": "_address",
          "type": "address"
        },
        {
          "internalType": "uint256",
          "name": "_value",
          "type": "uint256"
        }
      ],
      "name": "transferETH",
      "outputs": [],
      "stateMutability": "nonpayable",
      "type": "function"
    },
    {
      "inputs": [
        {
          "internalType": "address",
          "name": "newOwner",
          "type": "address"
        }
      ],
      "name": "transferOwnership",
      "outputs": [],
      "stateMutability": "nonpayable",
      "type": "function"
    },
    {
      "inputs": [],
      "name": "unpauseAdmin",
      "outputs": [],
      "stateMutability": "nonpayable",
      "type": "function"
    },
    {
      "inputs": [
        {
          "internalType": "address",
          "name": "newImplementation",
          "type": "address"
        }
      ],
      "name": "upgradeTo",
      "outputs": [],
      "stateMutability": "nonpayable",
      "type": "function"
    },
    {
      "inputs": [
        {
          "internalType": "address",
          "name": "newImplementation",
          "type": "address"
        },
        {
          "internalType": "bytes",
          "name": "data",
          "type": "bytes"
        }
      ],
      "name": "upgradeToAndCall",
      "outputs": [],
      "stateMutability": "payable",
      "type": "function"
    },
    {
      "inputs": [],
      "name": "withdrawETH",
      "outputs": [],
      "stateMutability": "nonpayable",
      "type": "function"
    },
    {
      "inputs": [
        {
          "internalType": "address",
          "name": "_tokenAddress",
          "type": "address"
        },
        {
          "internalType": "uint256",
          "name": "_value",
          "type": "uint256"
        }
      ],
      "name": "withdrawTokens",
      "outputs": [],
      "stateMutability": "nonpayable",
      "type": "function"
    },
    {
      "stateMutability": "payable",
      "type": "receive"
    }
  ],
  "bytecode": "0x60a06040523060805234801561001457600080fd5b50608051611d0c61004c600039600081816104520152818161049b0152818161053a0152818161057a015261060d0152611d0c6000f3fe6080604052600436106101185760003560e01c80637b1a4909116100a0578063de863da311610064578063de863da3146102d2578063e086e5ec1461031b578063f13a143f14610330578063f2fde38b1461034e578063fea7b48a1461036e57600080fd5b80637b1a4909146102365780638129fc1c146102565780638da5cb5b1461026b578063b9439d201461029d578063db5184e6146102bd57600080fd5b80634f0371d7116100e75780634f0371d71461019b5780634f1ef286146101c857806352d1902d146101db5780635c975abb146101fe578063715018a61461022157600080fd5b806306b091f9146101245780630ba0dba3146101465780632f11d653146101665780633659cfe61461017b57600080fd5b3661011f57005b600080fd5b34801561013057600080fd5b5061014461013f3660046117e4565b61038e565b005b34801561015257600080fd5b50610144610161366004611810565b61040c565b34801561017257600080fd5b50610144610436565b34801561018757600080fd5b50610144610196366004611810565b610448565b3480156101a757600080fd5b5060fe5460ff54604080519283526020830191909152015b60405180910390f35b6101446101d6366004611874565b610530565b3480156101e757600080fd5b506101f0610600565b6040519081526020016101bf565b34801561020a57600080fd5b5060655460ff1660405190151581526020016101bf565b34801561022d57600080fd5b506101446106b3565b34801561024257600080fd5b506101446102513660046117e4565b6106c5565b34801561026257600080fd5b50610144610703565b34801561027757600080fd5b506033546001600160a01b03165b6040516001600160a01b0390911681526020016101bf565b3480156102a957600080fd5b506101446102b83660046117e4565b61086e565b3480156102c957600080fd5b50610144610edf565b3480156102de57600080fd5b5060fd5461010080546040805193845260ff80831615156020860152928204831615159084015262010000900416151560608201526080016101bf565b34801561032757600080fd5b50610144610eef565b34801561033c57600080fd5b5060fb546001600160a01b0316610285565b34801561035a57600080fd5b50610144610369366004611810565b610f23565b34801561037a57600080fd5b5061014461038936600461192a565b610f99565b610396610fdc565b60405163a9059cbb60e01b8152336004820152602481018290526001600160a01b0383169063a9059cbb906044016020604051808303816000875af11580156103e3573d6000803e3d6000fd5b505050506040513d601f19601f82011682018060405250810190610407919061197d565b505050565b610414610fdc565b60fb80546001600160a01b0319166001600160a01b0392909216919091179055565b61043e610fdc565b610446611036565b565b6001600160a01b037f00000000000000000000000000000000000000000000000000000000000000001630036104995760405162461bcd60e51b81526004016104909061199a565b60405180910390fd5b7f00000000000000000000000000000000000000000000000000000000000000006001600160a01b03166104e2600080516020611c90833981519152546001600160a01b031690565b6001600160a01b0316146105085760405162461bcd60e51b8152600401610490906119e6565b61051181611090565b6040805160008082526020820190925261052d91839190611098565b50565b6001600160a01b037f00000000000000000000000000000000000000000000000000000000000000001630036105785760405162461bcd60e51b81526004016104909061199a565b7f00000000000000000000000000000000000000000000000000000000000000006001600160a01b03166105c1600080516020611c90833981519152546001600160a01b031690565b6001600160a01b0316146105e75760405162461bcd60e51b8152600401610490906119e6565b6105f082611090565b6105fc82826001611098565b5050565b6000306001600160a01b037f000000000000000000000000000000000000000000000000000000000000000016146106a05760405162461bcd60e51b815260206004820152603860248201527f555550535570677261646561626c653a206d757374206e6f742062652063616c60448201527f6c6564207468726f7567682064656c656761746563616c6c00000000000000006064820152608401610490565b50600080516020611c9083398151915290565b6106bb610fdc565b6104466000611203565b6106cd610fdc565b6040516001600160a01b0383169082156108fc029083906000818181858888f19350505050158015610407573d6000803e3d6000fd5b600054610100900460ff16158080156107235750600054600160ff909116105b8061073d5750303b15801561073d575060005460ff166001145b6107a05760405162461bcd60e51b815260206004820152602e60248201527f496e697469616c697a61626c653a20636f6e747261637420697320616c72656160448201526d191e481a5b9a5d1a585b1a5e995960921b6064820152608401610490565b6000805460ff1916600117905580156107c3576000805461ff0019166101001790555b60fb80546001600160a01b03191673be5153baa3756402b08fd830e7b5f00a76e6823117905566038d7ea4c6800060fc556801158e460913d0000060fd55610100805462ffffff19169055610816611255565b61081e611284565b6108266112b3565b801561052d576000805461ff0019169055604051600181527f7f26b83ff96e1f2b6a682f133852f6798a09c465da95921460cefb38474024989060200160405180910390a150565b6108766112da565b60fb5460fd54339183916001600160a01b03909116908210156108e75760405162461bcd60e51b815260206004820152602360248201527f415553442076616c7565206c657373207468656e206d696e206275792076616c6044820152623ab29760e91b6064820152608401610490565b806001600160a01b031663b70cc4c16040518163ffffffff1660e01b8152600401602060405180830381865afa158015610925573d6000803e3d6000fd5b505050506040513d601f19601f820116820180604052508101906109499190611a32565b6040516323b872dd60e01b81526001600160a01b0385811660048301523060248301526044820185905291909116906323b872dd906064016020604051808303816000875af11580156109a0573d6000803e3d6000fd5b505050506040513d601f19601f820116820180604052508101906109c4919061197d565b506000610b61826001600160a01b031663b70cc4c16040518163ffffffff1660e01b8152600401602060405180830381865afa158015610a08573d6000803e3d6000fd5b505050506040513d601f19601f82011682018060405250810190610a2c9190611a32565b836001600160a01b0316634bc92d6c6040518163ffffffff1660e01b8152600401602060405180830381865afa158015610a6a573d6000803e3d6000fd5b505050506040513d601f19601f82011682018060405250810190610a8e9190611a4f565b610a989086611a7e565b846001600160a01b03166355a373d66040518163ffffffff1660e01b8152600401602060405180830381865afa158015610ad6573d6000803e3d6000fd5b505050506040513d601f19601f82011682018060405250810190610afa9190611a32565b856001600160a01b0316638290c4a66040518163ffffffff1660e01b8152600401602060405180830381865afa158015610b38573d6000803e3d6000fd5b505050506040513d601f19601f82011682018060405250810190610b5c9190611a32565b611320565b6101005490915060ff1615610c6457816001600160a01b031663ee99205c6040518163ffffffff1660e01b8152600401602060405180830381865afa158015610bae573d6000803e3d6000fd5b505050506040513d601f19601f82011682018060405250810190610bd29190611a32565b6001600160a01b0316636a50eefa8583600181518110610bf457610bf4611a91565b60200260200101516040518363ffffffff1660e01b8152600401610c2d9291906001600160a01b03929092168252602082015260400190565b600060405180830381600087803b158015610c4757600080fd5b505af1158015610c5b573d6000803e3d6000fd5b50505050610d66565b816001600160a01b03166355a373d66040518163ffffffff1660e01b8152600401602060405180830381865afa158015610ca2573d6000803e3d6000fd5b505050506040513d601f19601f82011682018060405250810190610cc69190611a32565b6001600160a01b031663a9059cbb8583600181518110610ce857610ce8611a91565b60200260200101516040518363ffffffff1660e01b8152600401610d219291906001600160a01b03929092168252602082015260400190565b6020604051808303816000875af1158015610d40573d6000803e3d6000fd5b505050506040513d601f19601f82011682018060405250810190610d64919061197d565b505b61010080540460ff1615610e4357816001600160a01b0316637dad19db6040518163ffffffff1660e01b8152600401602060405180830381865afa158015610db2573d6000803e3d6000fd5b505050506040513d601f19601f82011682018060405250810190610dd69190611a32565b6040516308a0566d60e21b8152600481018590526001600160a01b0386811660248301528881166044830152919091169063228159b490606401600060405180830381600087803b158015610e2a57600080fd5b505af1158015610e3e573d6000803e3d6000fd5b505050505b7f629a485b55f72b3241f1b41ff1864e029996d1cf7d54ef632b907af140f57430826001600160a01b0316634bc92d6c6040518163ffffffff1660e01b8152600401602060405180830381865afa158015610ea2573d6000803e3d6000fd5b505050506040513d601f19601f82011682018060405250810190610ec69190611a4f565b60405190815260200160405180910390a1505050505050565b610ee7610fdc565b6104466114a3565b610ef7610fdc565b60405133904780156108fc02916000818181858888f1935050505015801561052d573d6000803e3d6000fd5b610f2b610fdc565b6001600160a01b038116610f905760405162461bcd60e51b815260206004820152602660248201527f4f776e61626c653a206e6577206f776e657220697320746865207a65726f206160448201526564647265737360d01b6064820152608401610490565b61052d81611203565b610fa1610fdc565b60fd93909355610100805461ffff191692151561ff0019169290921790151582021762ff000019166201000092151592909202919091179055565b6033546001600160a01b031633146104465760405162461bcd60e51b815260206004820181905260248201527f4f776e61626c653a2063616c6c6572206973206e6f7420746865206f776e65726044820152606401610490565b61103e6112da565b6065805460ff191660011790557f62e78cea01bee320cd4e420270b5ea74000d11b0c9f74754ebdbfc544b05a2586110733390565b6040516001600160a01b03909116815260200160405180910390a1565b61052d610fdc565b7f4910fdfa16fed3260ed0e7147f7cc6da11a60208b5b9406d12a635614ffd91435460ff16156110cb57610407836114dc565b826001600160a01b03166352d1902d6040518163ffffffff1660e01b8152600401602060405180830381865afa925050508015611125575060408051601f3d908101601f1916820190925261112291810190611a4f565b60015b6111885760405162461bcd60e51b815260206004820152602e60248201527f45524331393637557067726164653a206e657720696d706c656d656e7461746960448201526d6f6e206973206e6f74205555505360901b6064820152608401610490565b600080516020611c9083398151915281146111f75760405162461bcd60e51b815260206004820152602960248201527f45524331393637557067726164653a20756e737570706f727465642070726f786044820152681a58589b195555525160ba1b6064820152608401610490565b50610407838383611578565b603380546001600160a01b038381166001600160a01b0319831681179093556040519116919082907f8be0079c531659141344cd1fd0a4f28419497f9722a3daafe3b4186f6b6457e090600090a35050565b600054610100900460ff1661127c5760405162461bcd60e51b815260040161049090611aa7565b6104466115a3565b600054610100900460ff166112ab5760405162461bcd60e51b815260040161049090611aa7565b6104466115d6565b600054610100900460ff166104465760405162461bcd60e51b815260040161049090611aa7565b60655460ff16156104465760405162461bcd60e51b815260206004820152601060248201526f14185d5cd8589b194e881c185d5cd95960821b6044820152606401610490565b60408051600280825260608083018452926000929190602083019080368337019050509050858160008151811061135957611359611a91565b60200260200101906001600160a01b031690816001600160a01b031681525050838160018151811061138d5761138d611a91565b6001600160a01b03928316602091820292909201015260405163095ea7b360e01b81528482166004820152602481018790529087169063095ea7b3906044016020604051808303816000875af11580156113eb573d6000803e3d6000fd5b505050506040513d601f19601f8201168201806040525081019061140f919061197d565b5060006001600160a01b0384166338ed17398760018530611431426064611af2565b6040518663ffffffff1660e01b8152600401611451959493929190611b05565b6000604051808303816000875af1158015611470573d6000803e3d6000fd5b505050506040513d6000823e601f3d908101601f191682016040526114989190810190611b76565b979650505050505050565b6114ab611606565b6065805460ff191690557f5db9ee0a495bf2e6ff9c91a7834c1ba4fdd244a5e8aa4e537bd38aeae4b073aa33611073565b6001600160a01b0381163b6115495760405162461bcd60e51b815260206004820152602d60248201527f455243313936373a206e657720696d706c656d656e746174696f6e206973206e60448201526c1bdd08184818dbdb9d1c9858dd609a1b6064820152608401610490565b600080516020611c9083398151915280546001600160a01b0319166001600160a01b0392909216919091179055565b6115818361164f565b60008251118061158e5750805b156104075761159d838361168f565b50505050565b600054610100900460ff166115ca5760405162461bcd60e51b815260040161049090611aa7565b6065805460ff19169055565b600054610100900460ff166115fd5760405162461bcd60e51b815260040161049090611aa7565b61044633611203565b60655460ff166104465760405162461bcd60e51b815260206004820152601460248201527314185d5cd8589b194e881b9bdd081c185d5cd95960621b6044820152606401610490565b611658816114dc565b6040516001600160a01b038216907fbc7cd75a20ee27fd9adebab32041f755214dbc6bffa90cc0225b39da2e5c2d3b90600090a250565b60606001600160a01b0383163b6116f75760405162461bcd60e51b815260206004820152602660248201527f416464726573733a2064656c65676174652063616c6c20746f206e6f6e2d636f6044820152651b9d1c9858dd60d21b6064820152608401610490565b600080846001600160a01b0316846040516117129190611c40565b600060405180830381855af49150503d806000811461174d576040519150601f19603f3d011682016040523d82523d6000602084013e611752565b606091505b509150915061177a8282604051806060016040528060278152602001611cb060279139611785565b925050505b92915050565b6060831561179457508161179e565b61179e83836117a5565b9392505050565b8151156117b55781518083602001fd5b8060405162461bcd60e51b81526004016104909190611c5c565b6001600160a01b038116811461052d57600080fd5b600080604083850312156117f757600080fd5b8235611802816117cf565b946020939093013593505050565b60006020828403121561182257600080fd5b813561179e816117cf565b634e487b7160e01b600052604160045260246000fd5b604051601f8201601f1916810167ffffffffffffffff8111828210171561186c5761186c61182d565b604052919050565b6000806040838503121561188757600080fd5b8235611892816117cf565b915060208381013567ffffffffffffffff808211156118b057600080fd5b818601915086601f8301126118c457600080fd5b8135818111156118d6576118d661182d565b6118e8601f8201601f19168501611843565b915080825287848285010111156118fe57600080fd5b80848401858401376000848284010152508093505050509250929050565b801515811461052d57600080fd5b6000806000806080858703121561194057600080fd5b8435935060208501356119528161191c565b925060408501356119628161191c565b915060608501356119728161191c565b939692955090935050565b60006020828403121561198f57600080fd5b815161179e8161191c565b6020808252602c908201527f46756e6374696f6e206d7573742062652063616c6c6564207468726f7567682060408201526b19195b1959d85d1958d85b1b60a21b606082015260800190565b6020808252602c908201527f46756e6374696f6e206d7573742062652063616c6c6564207468726f7567682060408201526b6163746976652070726f787960a01b606082015260800190565b600060208284031215611a4457600080fd5b815161179e816117cf565b600060208284031215611a6157600080fd5b5051919050565b634e487b7160e01b600052601160045260246000fd5b8181038181111561177f5761177f611a68565b634e487b7160e01b600052603260045260246000fd5b6020808252602b908201527f496e697469616c697a61626c653a20636f6e7472616374206973206e6f74206960408201526a6e697469616c697a696e6760a81b606082015260800190565b8082018082111561177f5761177f611a68565b600060a082018783526020878185015260a0604085015281875180845260c086019150828901935060005b81811015611b555784516001600160a01b031683529383019391830191600101611b30565b50506001600160a01b03969096166060850152505050608001529392505050565b60006020808385031215611b8957600080fd5b825167ffffffffffffffff80821115611ba157600080fd5b818501915085601f830112611bb557600080fd5b815181811115611bc757611bc761182d565b8060051b9150611bd8848301611843565b8181529183018401918481019088841115611bf257600080fd5b938501935b83851015611c1057845182529385019390850190611bf7565b98975050505050505050565b60005b83811015611c37578181015183820152602001611c1f565b50506000910152565b60008251611c52818460208701611c1c565b9190910192915050565b6020815260008251806020840152611c7b816040850160208701611c1c565b601f01601f1916919091016040019291505056fe360894a13ba1a3210667c828492db98dca3e2076cc3735a920a3ca505d382bbc416464726573733a206c6f772d6c6576656c2064656c65676174652063616c6c206661696c6564a26469706673582212202854a3673deeb6d11cbbae71aa74d0ea14a8403712e9381deb1d8ba169799fb764736f6c63430008110033",
  "linkReferences": {},
  "deployedLinkReferences": {}
}