{
  "_format": "hh-sol-artifact-1",
  "contractName": "PresaleUpgradeable",
  "sourceName": "contracts/PresaleUpgradeable.sol",
  "abi": [
    {
      "anonymous": false,
      "inputs": [
        {
          "indexed": false,
          "internalType": "address",
          "name": "previousAdmin",
          "type": "address"
        },
        {
          "indexed": false,
          "internalType": "address",
          "name": "newAdmin",
          "type": "address"
        }
      ],
      "name": "AdminChanged",
      "type": "event"
    },
    {
      "anonymous": false,
      "inputs": [
        {
          "indexed": true,
          "internalType": "address",
          "name": "beacon",
          "type": "address"
        }
      ],
      "name": "BeaconUpgraded",
      "type": "event"
    },
    {
      "anonymous": false,
      "inputs": [
        {
          "indexed": false,
          "internalType": "uint8",
          "name": "version",
          "type": "uint8"
        }
      ],
      "name": "Initialized",
      "type": "event"
    },
    {
      "anonymous": false,
      "inputs": [
        {
          "indexed": true,
          "internalType": "address",
          "name": "previousOwner",
          "type": "address"
        },
        {
          "indexed": true,
          "internalType": "address",
          "name": "newOwner",
          "type": "address"
        }
      ],
      "name": "OwnershipTransferred",
      "type": "event"
    },
    {
      "anonymous": false,
      "inputs": [
        {
          "indexed": false,
          "internalType": "address",
          "name": "account",
          "type": "address"
        }
      ],
      "name": "Paused",
      "type": "event"
    },
    {
      "anonymous": false,
      "inputs": [
        {
          "indexed": true,
          "internalType": "address",
          "name": "to",
          "type": "address"
        },
        {
          "indexed": true,
          "internalType": "uint256",
          "name": "tokenValue",
          "type": "uint256"
        },
        {
          "indexed": true,
          "internalType": "address",
          "name": "rewardTokenContract",
          "type": "address"
        }
      ],
      "name": "RewardTokenDistributed",
      "type": "event"
    },
    {
      "anonymous": false,
      "inputs": [
        {
          "indexed": true,
          "internalType": "address",
          "name": "from",
          "type": "address"
        },
        {
          "indexed": true,
          "internalType": "uint256",
          "name": "tokenValue",
          "type": "uint256"
        },
        {
          "indexed": true,
          "internalType": "uint256",
          "name": "ethValue",
          "type": "uint256"
        },
        {
          "indexed": false,
          "internalType": "string",
          "name": "currency",
          "type": "string"
        }
      ],
      "name": "TokenPurchased",
      "type": "event"
    },
    {
      "anonymous": false,
      "inputs": [
        {
          "indexed": false,
          "internalType": "address",
          "name": "account",
          "type": "address"
        }
      ],
      "name": "Unpaused",
      "type": "event"
    },
    {
      "anonymous": false,
      "inputs": [
        {
          "indexed": true,
          "internalType": "address",
          "name": "implementation",
          "type": "address"
        }
      ],
      "name": "Upgraded",
      "type": "event"
    },
    {
      "inputs": [
        {
          "internalType": "uint256",
          "name": "_valueInWei",
          "type": "uint256"
        }
      ],
      "name": "BuyWithANUSD",
      "outputs": [],
      "stateMutability": "nonpayable",
      "type": "function"
    },
    {
      "inputs": [],
      "name": "getAnalystics",
      "outputs": [
        {
          "internalType": "uint256",
          "name": "tokenSold",
          "type": "uint256"
        },
        {
          "internalType": "uint256",
          "name": "ausdRaised",
          "type": "uint256"
        }
      ],
      "stateMutability": "view",
      "type": "function"
    },
    {
      "inputs": [],
      "name": "getCapping",
      "outputs": [
        {
          "internalType": "uint256",
          "name": "minConUSD",
          "type": "uint256"
        },
        {
          "internalType": "uint256",
          "name": "adminFees",
          "type": "uint256"
        },
        {
          "internalType": "bool",
          "name": "isBuyStakeEnabled",
          "type": "bool"
        },
        {
          "internalType": "bool",
          "name": "isPayReferralEnabled",
          "type": "bool"
        },
        {
          "internalType": "bool",
          "name": "isPayRewardTokenEnabled",
          "type": "bool"
        }
      ],
      "stateMutability": "view",
      "type": "function"
    },
    {
      "inputs": [],
      "name": "getVariablesContract",
      "outputs": [
        {
          "internalType": "address",
          "name": "",
          "type": "address"
        }
      ],
      "stateMutability": "view",
      "type": "function"
    },
    {
      "inputs": [],
      "name": "initialize",
      "outputs": [],
      "stateMutability": "nonpayable",
      "type": "function"
    },
    {
      "inputs": [],
      "name": "owner",
      "outputs": [
        {
          "internalType": "address",
          "name": "",
          "type": "address"
        }
      ],
      "stateMutability": "view",
      "type": "function"
    },
    {
      "inputs": [],
      "name": "pauseAdmin",
      "outputs": [],
      "stateMutability": "nonpayable",
      "type": "function"
    },
    {
      "inputs": [],
      "name": "paused",
      "outputs": [
        {
          "internalType": "bool",
          "name": "",
          "type": "bool"
        }
      ],
      "stateMutability": "view",
      "type": "function"
    },
    {
      "inputs": [],
      "name": "proxiableUUID",
      "outputs": [
        {
          "internalType": "bytes32",
          "name": "",
          "type": "bytes32"
        }
      ],
      "stateMutability": "view",
      "type": "function"
    },
    {
      "inputs": [],
      "name": "renounceOwnership",
      "outputs": [],
      "stateMutability": "nonpayable",
      "type": "function"
    },
    {
      "inputs": [
        {
          "internalType": "uint256",
          "name": "minConUSD",
          "type": "uint256"
        },
        {
          "internalType": "uint256",
          "name": "adminFees",
          "type": "uint256"
        },
        {
          "internalType": "bool",
          "name": "isBuyNStake",
          "type": "bool"
        },
        {
          "internalType": "bool",
          "name": "isPayReferral",
          "type": "bool"
        },
        {
          "internalType": "bool",
          "name": "isPayRewardTokens",
          "type": "bool"
        }
      ],
      "name": "setCapping",
      "outputs": [],
      "stateMutability": "nonpayable",
      "type": "function"
    },
    {
      "inputs": [
        {
          "internalType": "address",
          "name": "_contractAddress",
          "type": "address"
        }
      ],
      "name": "setVariablesContract",
      "outputs": [],
      "stateMutability": "nonpayable",
      "type": "function"
    },
    {
      "inputs": [
        {
          "internalType": "address",
          "name": "_address",
          "type": "address"
        },
        {
          "internalType": "uint256",
          "name": "_value",
          "type": "uint256"
        }
      ],
      "name": "transferETH",
      "outputs": [],
      "stateMutability": "nonpayable",
      "type": "function"
    },
    {
      "inputs": [
        {
          "internalType": "address",
          "name": "newOwner",
          "type": "address"
        }
      ],
      "name": "transferOwnership",
      "outputs": [],
      "stateMutability": "nonpayable",
      "type": "function"
    },
    {
      "inputs": [],
      "name": "unpauseAdmin",
      "outputs": [],
      "stateMutability": "nonpayable",
      "type": "function"
    },
    {
      "inputs": [
        {
          "internalType": "address",
          "name": "newImplementation",
          "type": "address"
        }
      ],
      "name": "upgradeTo",
      "outputs": [],
      "stateMutability": "nonpayable",
      "type": "function"
    },
    {
      "inputs": [
        {
          "internalType": "address",
          "name": "newImplementation",
          "type": "address"
        },
        {
          "internalType": "bytes",
          "name": "data",
          "type": "bytes"
        }
      ],
      "name": "upgradeToAndCall",
      "outputs": [],
      "stateMutability": "payable",
      "type": "function"
    },
    {
      "inputs": [],
      "name": "withdrawETH",
      "outputs": [],
      "stateMutability": "nonpayable",
      "type": "function"
    },
    {
      "inputs": [
        {
          "internalType": "address",
          "name": "_tokenAddress",
          "type": "address"
        },
        {
          "internalType": "uint256",
          "name": "_value",
          "type": "uint256"
        }
      ],
      "name": "withdrawTokens",
      "outputs": [],
      "stateMutability": "nonpayable",
      "type": "function"
    },
    {
      "stateMutability": "payable",
      "type": "receive"
    }
  ],
  "bytecode": "0x60a06040523060805234801561001457600080fd5b50608051611a0f61004c60003960008181610462015281816104ab0152818161054a0152818161058a015261061d0152611a0f6000f3fe6080604052600436106101185760003560e01c8063761537bf116100a0578063db5184e611610064578063db5184e6146102dd578063de863da3146102f2578063e086e5ec1461034b578063f13a143f14610360578063f2fde38b1461037e57600080fd5b8063761537bf146102365780637b1a4909146102565780638129fc1c146102765780638da5cb5b1461028b578063d566dc4d146102bd57600080fd5b80634f0371d7116100e75780634f0371d71461019b5780634f1ef286146101c857806352d1902d146101db5780635c975abb146101fe578063715018a61461022157600080fd5b806306b091f9146101245780630ba0dba3146101465780632f11d653146101665780633659cfe61461017b57600080fd5b3661011f57005b600080fd5b34801561013057600080fd5b5061014461013f3660046114c2565b61039e565b005b34801561015257600080fd5b506101446101613660046114ee565b61041c565b34801561017257600080fd5b50610144610446565b34801561018757600080fd5b506101446101963660046114ee565b610458565b3480156101a757600080fd5b5060fe5460ff54604080519283526020830191909152015b60405180910390f35b6101446101d6366004611552565b610540565b3480156101e757600080fd5b506101f0610610565b6040519081526020016101bf565b34801561020a57600080fd5b5060655460ff1660405190151581526020016101bf565b34801561022d57600080fd5b506101446106c3565b34801561024257600080fd5b506101446102513660046115fa565b6106d5565b34801561026257600080fd5b506101446102713660046114c2565b610931565b34801561028257600080fd5b5061014461096f565b34801561029757600080fd5b506033546001600160a01b03165b6040516001600160a01b0390911681526020016101bf565b3480156102c957600080fd5b506101446102d8366004611621565b610ae7565b3480156102e957600080fd5b50610144610b33565b3480156102fe57600080fd5b5060fd5461010080546101015460408051948552602085019290925260ff80821615159285019290925291820481161515606084015262010000909104161515608082015260a0016101bf565b34801561035757600080fd5b50610144610b43565b34801561036c57600080fd5b5060fb546001600160a01b03166102a5565b34801561038a57600080fd5b506101446103993660046114ee565b610b77565b6103a6610bed565b60405163a9059cbb60e01b8152336004820152602481018290526001600160a01b0383169063a9059cbb906044016020604051808303816000875af11580156103f3573d6000803e3d6000fd5b505050506040513d601f19601f820116820180604052508101906104179190611680565b505050565b610424610bed565b60fb80546001600160a01b0319166001600160a01b0392909216919091179055565b61044e610bed565b610456610c47565b565b6001600160a01b037f00000000000000000000000000000000000000000000000000000000000000001630036104a95760405162461bcd60e51b81526004016104a09061169d565b60405180910390fd5b7f00000000000000000000000000000000000000000000000000000000000000006001600160a01b03166104f2600080516020611993833981519152546001600160a01b031690565b6001600160a01b0316146105185760405162461bcd60e51b81526004016104a0906116e9565b61052181610ca1565b6040805160008082526020820190925261053d91839190610ca9565b50565b6001600160a01b037f00000000000000000000000000000000000000000000000000000000000000001630036105885760405162461bcd60e51b81526004016104a09061169d565b7f00000000000000000000000000000000000000000000000000000000000000006001600160a01b03166105d1600080516020611993833981519152546001600160a01b031690565b6001600160a01b0316146105f75760405162461bcd60e51b81526004016104a0906116e9565b61060082610ca1565b61060c82826001610ca9565b5050565b6000306001600160a01b037f000000000000000000000000000000000000000000000000000000000000000016146106b05760405162461bcd60e51b815260206004820152603860248201527f555550535570677261646561626c653a206d757374206e6f742062652063616c60448201527f6c6564207468726f7567682064656c656761746563616c6c000000000000000060648201526084016104a0565b5060008051602061199383398151915290565b6106cb610bed565b6104566000610e14565b6106dd610e66565b60fd543390829081101561073f5760405162461bcd60e51b815260206004820152602360248201527f415553442076616c7565206c657373207468656e206d696e206275792076616c6044820152623ab29760e91b60648201526084016104a0565b60fb60009054906101000a90046001600160a01b03166001600160a01b031663b70cc4c16040518163ffffffff1660e01b8152600401602060405180830381865afa158015610792573d6000803e3d6000fd5b505050506040513d601f19601f820116820180604052508101906107b69190611735565b6040516323b872dd60e01b81526001600160a01b0384811660048301523060248301526044820184905291909116906323b872dd906064016020604051808303816000875af115801561080d573d6000803e3d6000fd5b505050506040513d601f19601f820116820180604052508101906108319190611680565b5060fb546040805163b70cc4c160e01b8152905161092b926001600160a01b03169163b70cc4c19160048083019260209291908290030181865afa15801561087d573d6000803e3d6000fd5b505050506040513d601f19601f820116820180604052508101906108a19190611735565b610100546108af9084611768565b60fb60009054906101000a90046001600160a01b03166001600160a01b03166355a373d66040518163ffffffff1660e01b8152600401602060405180830381865afa158015610902573d6000803e3d6000fd5b505050506040513d601f19601f820116820180604052508101906109269190611735565b610eac565b50505050565b610939610bed565b6040516001600160a01b0383169082156108fc029083906000818181858888f19350505050158015610417573d6000803e3d6000fd5b600054610100900460ff161580801561098f5750600054600160ff909116105b806109a95750303b1580156109a9575060005460ff166001145b610a0c5760405162461bcd60e51b815260206004820152602e60248201527f496e697469616c697a61626c653a20636f6e747261637420697320616c72656160448201526d191e481a5b9a5d1a585b1a5e995960921b60648201526084016104a0565b6000805460ff191660011790558015610a2f576000805461ff0019166101001790555b60fb80546001600160a01b0319167364f0f2fa59a92df28be30876958023a69689d88c17905566038d7ea4c6800060fc556801158e460913d0000060fd55671bc16d674ec8000061010055610101805462ffffff19169055610a8f61110e565b610a9761113d565b610a9f61116c565b801561053d576000805461ff0019169055604051600181527f7f26b83ff96e1f2b6a682f133852f6798a09c465da95921460cefb38474024989060200160405180910390a150565b610aef610bed565b60fd949094556101009283556101018054941515620100000262ff00001992151590940261ff00199315159390931661ffff19909516949094179190911716179055565b610b3b610bed565b610456611193565b610b4b610bed565b60405133904780156108fc02916000818181858888f1935050505015801561053d573d6000803e3d6000fd5b610b7f610bed565b6001600160a01b038116610be45760405162461bcd60e51b815260206004820152602660248201527f4f776e61626c653a206e6577206f776e657220697320746865207a65726f206160448201526564647265737360d01b60648201526084016104a0565b61053d81610e14565b6033546001600160a01b031633146104565760405162461bcd60e51b815260206004820181905260248201527f4f776e61626c653a2063616c6c6572206973206e6f7420746865206f776e657260448201526064016104a0565b610c4f610e66565b6065805460ff191660011790557f62e78cea01bee320cd4e420270b5ea74000d11b0c9f74754ebdbfc544b05a258610c843390565b6040516001600160a01b03909116815260200160405180910390a1565b61053d610bed565b7f4910fdfa16fed3260ed0e7147f7cc6da11a60208b5b9406d12a635614ffd91435460ff1615610cdc57610417836111cc565b826001600160a01b03166352d1902d6040518163ffffffff1660e01b8152600401602060405180830381865afa925050508015610d36575060408051601f3d908101601f19168201909252610d339181019061177b565b60015b610d995760405162461bcd60e51b815260206004820152602e60248201527f45524331393637557067726164653a206e657720696d706c656d656e7461746960448201526d6f6e206973206e6f74205555505360901b60648201526084016104a0565b6000805160206119938339815191528114610e085760405162461bcd60e51b815260206004820152602960248201527f45524331393637557067726164653a20756e737570706f727465642070726f786044820152681a58589b195555525160ba1b60648201526084016104a0565b50610417838383611268565b603380546001600160a01b038381166001600160a01b0319831681179093556040519116919082907f8be0079c531659141344cd1fd0a4f28419497f9722a3daafe3b4186f6b6457e090600090a35050565b60655460ff16156104565760405162461bcd60e51b815260206004820152601060248201526f14185d5cd8589b194e881c185d5cd95960821b60448201526064016104a0565b604080516002808252606080830184529260009291906020830190803683370190505090508481600081518110610ee557610ee5611794565b60200260200101906001600160a01b031690816001600160a01b0316815250508281600181518110610f1957610f19611794565b6001600160a01b0392831660209182029290920181019190915260fb5460408051634148625360e11b815290518985169463095ea7b394931692638290c4a692600480820193918290030181865afa158015610f79573d6000803e3d6000fd5b505050506040513d601f19601f82011682018060405250810190610f9d9190611735565b6040516001600160e01b031960e084901b1681526001600160a01b039091166004820152602481018790526044016020604051808303816000875af1158015610fea573d6000803e3d6000fd5b505050506040513d601f19601f8201168201806040525081019061100e9190611680565b5060fb5460408051634148625360e11b815290516000926001600160a01b031691638290c4a69160048083019260209291908290030181865afa158015611059573d6000803e3d6000fd5b505050506040513d601f19601f8201168201806040525081019061107d9190611735565b6001600160a01b03166338ed1739866001853061109b4260646117aa565b6040518663ffffffff1660e01b81526004016110bb9594939291906117bd565b6000604051808303816000875af11580156110da573d6000803e3d6000fd5b505050506040513d6000823e601f3d908101601f19168201604052611102919081019061182e565b925050505b9392505050565b600054610100900460ff166111355760405162461bcd60e51b81526004016104a0906118d4565b61045661128d565b600054610100900460ff166111645760405162461bcd60e51b81526004016104a0906118d4565b6104566112c0565b600054610100900460ff166104565760405162461bcd60e51b81526004016104a0906118d4565b61119b6112f0565b6065805460ff191690557f5db9ee0a495bf2e6ff9c91a7834c1ba4fdd244a5e8aa4e537bd38aeae4b073aa33610c84565b6001600160a01b0381163b6112395760405162461bcd60e51b815260206004820152602d60248201527f455243313936373a206e657720696d706c656d656e746174696f6e206973206e60448201526c1bdd08184818dbdb9d1c9858dd609a1b60648201526084016104a0565b60008051602061199383398151915280546001600160a01b0319166001600160a01b0392909216919091179055565b61127183611339565b60008251118061127e5750805b156104175761092b8383611379565b600054610100900460ff166112b45760405162461bcd60e51b81526004016104a0906118d4565b6065805460ff19169055565b600054610100900460ff166112e75760405162461bcd60e51b81526004016104a0906118d4565b61045633610e14565b60655460ff166104565760405162461bcd60e51b815260206004820152601460248201527314185d5cd8589b194e881b9bdd081c185d5cd95960621b60448201526064016104a0565b611342816111cc565b6040516001600160a01b038216907fbc7cd75a20ee27fd9adebab32041f755214dbc6bffa90cc0225b39da2e5c2d3b90600090a250565b60606001600160a01b0383163b6113e15760405162461bcd60e51b815260206004820152602660248201527f416464726573733a2064656c65676174652063616c6c20746f206e6f6e2d636f6044820152651b9d1c9858dd60d21b60648201526084016104a0565b600080846001600160a01b0316846040516113fc9190611943565b600060405180830381855af49150503d8060008114611437576040519150601f19603f3d011682016040523d82523d6000602084013e61143c565b606091505b509150915061146482826040518060600160405280602781526020016119b36027913961146f565b925050505b92915050565b6060831561147e575081611107565b61110783838151156114935781518083602001fd5b8060405162461bcd60e51b81526004016104a0919061195f565b6001600160a01b038116811461053d57600080fd5b600080604083850312156114d557600080fd5b82356114e0816114ad565b946020939093013593505050565b60006020828403121561150057600080fd5b8135611107816114ad565b634e487b7160e01b600052604160045260246000fd5b604051601f8201601f1916810167ffffffffffffffff8111828210171561154a5761154a61150b565b604052919050565b6000806040838503121561156557600080fd5b8235611570816114ad565b915060208381013567ffffffffffffffff8082111561158e57600080fd5b818601915086601f8301126115a257600080fd5b8135818111156115b4576115b461150b565b6115c6601f8201601f19168501611521565b915080825287848285010111156115dc57600080fd5b80848401858401376000848284010152508093505050509250929050565b60006020828403121561160c57600080fd5b5035919050565b801515811461053d57600080fd5b600080600080600060a0868803121561163957600080fd5b8535945060208601359350604086013561165281611613565b9250606086013561166281611613565b9150608086013561167281611613565b809150509295509295909350565b60006020828403121561169257600080fd5b815161110781611613565b6020808252602c908201527f46756e6374696f6e206d7573742062652063616c6c6564207468726f7567682060408201526b19195b1959d85d1958d85b1b60a21b606082015260800190565b6020808252602c908201527f46756e6374696f6e206d7573742062652063616c6c6564207468726f7567682060408201526b6163746976652070726f787960a01b606082015260800190565b60006020828403121561174757600080fd5b8151611107816114ad565b634e487b7160e01b600052601160045260246000fd5b8181038181111561146957611469611752565b60006020828403121561178d57600080fd5b5051919050565b634e487b7160e01b600052603260045260246000fd5b8082018082111561146957611469611752565b600060a082018783526020878185015260a0604085015281875180845260c086019150828901935060005b8181101561180d5784516001600160a01b0316835293830193918301916001016117e8565b50506001600160a01b03969096166060850152505050608001529392505050565b6000602080838503121561184157600080fd5b825167ffffffffffffffff8082111561185957600080fd5b818501915085601f83011261186d57600080fd5b81518181111561187f5761187f61150b565b8060051b9150611890848301611521565b81815291830184019184810190888411156118aa57600080fd5b938501935b838510156118c8578451825293850193908501906118af565b98975050505050505050565b6020808252602b908201527f496e697469616c697a61626c653a20636f6e7472616374206973206e6f74206960408201526a6e697469616c697a696e6760a81b606082015260800190565b60005b8381101561193a578181015183820152602001611922565b50506000910152565b6000825161195581846020870161191f565b9190910192915050565b602081526000825180602084015261197e81604085016020870161191f565b601f01601f1916919091016040019291505056fe360894a13ba1a3210667c828492db98dca3e2076cc3735a920a3ca505d382bbc416464726573733a206c6f772d6c6576656c2064656c65676174652063616c6c206661696c6564a2646970667358221220358b9a9fbf78a90674157cc77d4a378cfa77dcf12a5eea614e3bc8a60860b5b064736f6c63430008110033",
  "linkReferences": {},
  "deployedLinkReferences": {}
}