{
  "_format": "hh-sol-artifact-1",
  "contractName": "PresaleUpgradeable",
  "sourceName": "contracts/PresaleUpgradeable.sol",
  "abi": [
    {
      "anonymous": false,
      "inputs": [
        {
          "indexed": false,
          "internalType": "address",
          "name": "previousAdmin",
          "type": "address"
        },
        {
          "indexed": false,
          "internalType": "address",
          "name": "newAdmin",
          "type": "address"
        }
      ],
      "name": "AdminChanged",
      "type": "event"
    },
    {
      "anonymous": false,
      "inputs": [
        {
          "indexed": true,
          "internalType": "address",
          "name": "beacon",
          "type": "address"
        }
      ],
      "name": "BeaconUpgraded",
      "type": "event"
    },
    {
      "anonymous": false,
      "inputs": [
        {
          "indexed": false,
          "internalType": "uint8",
          "name": "version",
          "type": "uint8"
        }
      ],
      "name": "Initialized",
      "type": "event"
    },
    {
      "anonymous": false,
      "inputs": [
        {
          "indexed": true,
          "internalType": "address",
          "name": "previousOwner",
          "type": "address"
        },
        {
          "indexed": true,
          "internalType": "address",
          "name": "newOwner",
          "type": "address"
        }
      ],
      "name": "OwnershipTransferred",
      "type": "event"
    },
    {
      "anonymous": false,
      "inputs": [
        {
          "indexed": false,
          "internalType": "address",
          "name": "account",
          "type": "address"
        }
      ],
      "name": "Paused",
      "type": "event"
    },
    {
      "anonymous": false,
      "inputs": [
        {
          "indexed": false,
          "internalType": "uint256",
          "name": "amount",
          "type": "uint256"
        }
      ],
      "name": "RegistrationFees",
      "type": "event"
    },
    {
      "anonymous": false,
      "inputs": [
        {
          "indexed": true,
          "internalType": "address",
          "name": "to",
          "type": "address"
        },
        {
          "indexed": true,
          "internalType": "uint256",
          "name": "tokenValue",
          "type": "uint256"
        },
        {
          "indexed": true,
          "internalType": "address",
          "name": "rewardTokenContract",
          "type": "address"
        }
      ],
      "name": "RewardTokenDistributed",
      "type": "event"
    },
    {
      "anonymous": false,
      "inputs": [
        {
          "indexed": true,
          "internalType": "address",
          "name": "from",
          "type": "address"
        },
        {
          "indexed": true,
          "internalType": "uint256",
          "name": "tokenValue",
          "type": "uint256"
        },
        {
          "indexed": true,
          "internalType": "uint256",
          "name": "ethValue",
          "type": "uint256"
        },
        {
          "indexed": false,
          "internalType": "string",
          "name": "currency",
          "type": "string"
        }
      ],
      "name": "TokenPurchased",
      "type": "event"
    },
    {
      "anonymous": false,
      "inputs": [
        {
          "indexed": false,
          "internalType": "address",
          "name": "account",
          "type": "address"
        }
      ],
      "name": "Unpaused",
      "type": "event"
    },
    {
      "anonymous": false,
      "inputs": [
        {
          "indexed": true,
          "internalType": "address",
          "name": "implementation",
          "type": "address"
        }
      ],
      "name": "Upgraded",
      "type": "event"
    },
    {
      "inputs": [
        {
          "internalType": "address",
          "name": "_referrerAddress",
          "type": "address"
        },
        {
          "internalType": "address",
          "name": "_userAddress",
          "type": "address"
        },
        {
          "internalType": "uint256",
          "name": "_valueInWei",
          "type": "uint256"
        },
        {
          "internalType": "address",
          "name": "_tokenAddress",
          "type": "address"
        }
      ],
      "name": "BuyWithANUSD",
      "outputs": [],
      "stateMutability": "nonpayable",
      "type": "function"
    },
    {
      "inputs": [
        {
          "internalType": "address[]",
          "name": "_referrerAddress",
          "type": "address[]"
        },
        {
          "internalType": "address[]",
          "name": "_userAddress",
          "type": "address[]"
        },
        {
          "internalType": "uint256[]",
          "name": "_valueInUSDDecimals",
          "type": "uint256[]"
        },
        {
          "internalType": "address",
          "name": "_tokenAddress",
          "type": "address"
        }
      ],
      "name": "BuyWithANUSDAdmin",
      "outputs": [],
      "stateMutability": "nonpayable",
      "type": "function"
    },
    {
      "inputs": [
        {
          "internalType": "address[]",
          "name": "_referrerAddress",
          "type": "address[]"
        },
        {
          "internalType": "address[]",
          "name": "_userAddress",
          "type": "address[]"
        },
        {
          "internalType": "uint256[]",
          "name": "_valueInUSDDecimals",
          "type": "uint256[]"
        }
      ],
      "name": "BuyWithANUSDManager",
      "outputs": [],
      "stateMutability": "nonpayable",
      "type": "function"
    },
    {
      "inputs": [
        {
          "internalType": "uint256",
          "name": "",
          "type": "uint256"
        }
      ],
      "name": "admins",
      "outputs": [
        {
          "internalType": "address",
          "name": "",
          "type": "address"
        }
      ],
      "stateMutability": "view",
      "type": "function"
    },
    {
      "inputs": [],
      "name": "getAnalystics",
      "outputs": [
        {
          "internalType": "uint256",
          "name": "tokenSold",
          "type": "uint256"
        },
        {
          "internalType": "uint256",
          "name": "ausdRaised",
          "type": "uint256"
        }
      ],
      "stateMutability": "view",
      "type": "function"
    },
    {
      "inputs": [],
      "name": "getCapping",
      "outputs": [
        {
          "internalType": "uint256",
          "name": "minConUSD",
          "type": "uint256"
        },
        {
          "internalType": "bool",
          "name": "isBuyStakeEnabled",
          "type": "bool"
        },
        {
          "internalType": "bool",
          "name": "isPayReferralEnabled",
          "type": "bool"
        },
        {
          "internalType": "bool",
          "name": "isPayRewardTokenEnabled",
          "type": "bool"
        },
        {
          "internalType": "uint256",
          "name": "maxBuyLimitANUSD",
          "type": "uint256"
        }
      ],
      "stateMutability": "view",
      "type": "function"
    },
    {
      "inputs": [],
      "name": "getVariablesContract",
      "outputs": [
        {
          "internalType": "address",
          "name": "",
          "type": "address"
        }
      ],
      "stateMutability": "view",
      "type": "function"
    },
    {
      "inputs": [],
      "name": "initialize",
      "outputs": [],
      "stateMutability": "nonpayable",
      "type": "function"
    },
    {
      "inputs": [],
      "name": "owner",
      "outputs": [
        {
          "internalType": "address",
          "name": "",
          "type": "address"
        }
      ],
      "stateMutability": "view",
      "type": "function"
    },
    {
      "inputs": [],
      "name": "pauseAdmin",
      "outputs": [],
      "stateMutability": "nonpayable",
      "type": "function"
    },
    {
      "inputs": [],
      "name": "paused",
      "outputs": [
        {
          "internalType": "bool",
          "name": "",
          "type": "bool"
        }
      ],
      "stateMutability": "view",
      "type": "function"
    },
    {
      "inputs": [],
      "name": "proxiableUUID",
      "outputs": [
        {
          "internalType": "bytes32",
          "name": "",
          "type": "bytes32"
        }
      ],
      "stateMutability": "view",
      "type": "function"
    },
    {
      "inputs": [],
      "name": "renounceOwnership",
      "outputs": [],
      "stateMutability": "nonpayable",
      "type": "function"
    },
    {
      "inputs": [
        {
          "internalType": "uint256",
          "name": "minConUSD",
          "type": "uint256"
        },
        {
          "internalType": "bool",
          "name": "isBuyNStake",
          "type": "bool"
        },
        {
          "internalType": "bool",
          "name": "isPayReferral",
          "type": "bool"
        },
        {
          "internalType": "bool",
          "name": "isPayRewardTokens",
          "type": "bool"
        },
        {
          "internalType": "uint256",
          "name": "maxBuyLimitANUSD",
          "type": "uint256"
        }
      ],
      "name": "setCapping",
      "outputs": [],
      "stateMutability": "nonpayable",
      "type": "function"
    },
    {
      "inputs": [
        {
          "internalType": "address",
          "name": "_contractAddress",
          "type": "address"
        }
      ],
      "name": "setVariablesContract",
      "outputs": [],
      "stateMutability": "nonpayable",
      "type": "function"
    },
    {
      "inputs": [
        {
          "internalType": "address",
          "name": "_address",
          "type": "address"
        },
        {
          "internalType": "uint256",
          "name": "_value",
          "type": "uint256"
        }
      ],
      "name": "transferETH",
      "outputs": [],
      "stateMutability": "nonpayable",
      "type": "function"
    },
    {
      "inputs": [
        {
          "internalType": "address",
          "name": "newOwner",
          "type": "address"
        }
      ],
      "name": "transferOwnership",
      "outputs": [],
      "stateMutability": "nonpayable",
      "type": "function"
    },
    {
      "inputs": [],
      "name": "unpauseAdmin",
      "outputs": [],
      "stateMutability": "nonpayable",
      "type": "function"
    },
    {
      "inputs": [
        {
          "internalType": "address",
          "name": "newImplementation",
          "type": "address"
        }
      ],
      "name": "upgradeTo",
      "outputs": [],
      "stateMutability": "nonpayable",
      "type": "function"
    },
    {
      "inputs": [
        {
          "internalType": "address",
          "name": "newImplementation",
          "type": "address"
        },
        {
          "internalType": "bytes",
          "name": "data",
          "type": "bytes"
        }
      ],
      "name": "upgradeToAndCall",
      "outputs": [],
      "stateMutability": "payable",
      "type": "function"
    },
    {
      "inputs": [],
      "name": "withdrawETH",
      "outputs": [],
      "stateMutability": "nonpayable",
      "type": "function"
    },
    {
      "inputs": [
        {
          "internalType": "address",
          "name": "_tokenAddress",
          "type": "address"
        },
        {
          "internalType": "uint256",
          "name": "_value",
          "type": "uint256"
        }
      ],
      "name": "withdrawTokens",
      "outputs": [],
      "stateMutability": "nonpayable",
      "type": "function"
    },
    {
      "stateMutability": "payable",
      "type": "receive"
    }
  ],
  "bytecode": "0x60a06040523060805234801561001457600080fd5b5060805161275f61004c6000396000818161079d015281816107e601528181610935015281816109750152610a08015261275f6000f3fe6080604052600436106101395760003560e01c80636740090a116100ab578063bb042d8c1161006f578063bb042d8c14610342578063db5184e614610362578063de863da314610377578063e086e5ec146103cc578063f13a143f146103e1578063f2fde38b146103ff57600080fd5b80636740090a146102ba578063715018a6146102da5780637b1a4909146102ef5780638129fc1c1461030f5780638da5cb5b1461032457600080fd5b80633659cfe6116100fd5780633659cfe6146101f9578063497af863146102195780634f0371d7146102395780634f1ef2861461026157806352d1902d146102745780635c975abb1461029757600080fd5b806306b091f9146101455780630ba0dba31461016757806314bfd6d0146101875780632f11d653146101c457806331942cdf146101d957600080fd5b3661014057005b600080fd5b34801561015157600080fd5b50610165610160366004611eed565b61041f565b005b34801561017357600080fd5b50610165610182366004611f19565b61049d565b34801561019357600080fd5b506101a76101a2366004611f36565b6104c7565b6040516001600160a01b0390911681526020015b60405180910390f35b3480156101d057600080fd5b506101656104f2565b3480156101e557600080fd5b506101656101f4366004611f9b565b610504565b34801561020557600080fd5b50610165610214366004611f19565b610793565b34801561022557600080fd5b50610165610234366004612035565b61087b565b34801561024557600080fd5b5060fe5460ff54604080519283526020830191909152016101bb565b61016561026f3660046120cf565b61092b565b34801561028057600080fd5b506102896109fb565b6040519081526020016101bb565b3480156102a357600080fd5b5060655460ff1660405190151581526020016101bb565b3480156102c657600080fd5b506101656102d5366004612185565b610aae565b3480156102e657600080fd5b50610165610af5565b3480156102fb57600080fd5b5061016561030a366004611eed565b610b07565b34801561031b57600080fd5b50610165610b45565b34801561033057600080fd5b506033546001600160a01b03166101a7565b34801561034e57600080fd5b5061016561035d3660046121e0565b610cc3565b34801561036e57600080fd5b50610165610e29565b34801561038357600080fd5b5060fd546101008054610101546040805194855260ff8084161515602087015293830484161515908501526201000090910490911615156060830152608082015260a0016101bb565b3480156103d857600080fd5b50610165610e39565b3480156103ed57600080fd5b5060fb546001600160a01b03166101a7565b34801561040b57600080fd5b5061016561041a366004611f19565b610e6d565b610427610ee3565b60405163a9059cbb60e01b8152336004820152602481018290526001600160a01b0383169063a9059cbb906044016020604051808303816000875af1158015610474573d6000803e3d6000fd5b505050506040513d601f19601f82011682018060405250810190610498919061228e565b505050565b6104a5610ee3565b60fb80546001600160a01b0319166001600160a01b0392909216919091179055565b61010281815481106104d857600080fd5b6000918252602090912001546001600160a01b0316905081565b6104fa610ee3565b610502610f3d565b565b61050c610f97565b60fb5433906001600160a01b0316846000805b8281101561063057600087878381811061053b5761053b6122ab565b90506020020135670de0b6b3a764000061055591906122d7565b90506106108c8c8481811061056c5761056c6122ab565b90506020020160208101906105819190611f19565b8b8b85818110610593576105936122ab565b90506020020160208101906105a89190611f19565b83886001600160a01b031663b70cc4c16040518163ffffffff1660e01b8152600401602060405180830381865afa1580156105e7573d6000803e3d6000fd5b505050506040513d601f19601f8201168201806040525081019061060b91906122ee565b610fdd565b61061a818461230b565b92505080806106289061231e565b91505061051f565b50826001600160a01b031663b70cc4c16040518163ffffffff1660e01b8152600401602060405180830381865afa15801561066f573d6000803e3d6000fd5b505050506040513d601f19601f8201168201806040525081019061069391906122ee565b6001600160a01b03166323b872dd853061070e85886001600160a01b031663b70cc4c16040518163ffffffff1660e01b8152600401602060405180830381865afa1580156106e5573d6000803e3d6000fd5b505050506040513d601f19601f8201168201806040525081019061070991906122ee565b611758565b6040516001600160e01b031960e086901b1681526001600160a01b03938416600482015292909116602483015260448201526064016020604051808303816000875af1158015610762573d6000803e3d6000fd5b505050506040513d601f19601f82011682018060405250810190610786919061228e565b5050505050505050505050565b6001600160a01b037f00000000000000000000000000000000000000000000000000000000000000001630036107e45760405162461bcd60e51b81526004016107db90612337565b60405180910390fd5b7f00000000000000000000000000000000000000000000000000000000000000006001600160a01b031661082d6000805160206126e3833981519152546001600160a01b031690565b6001600160a01b0316146108535760405162461bcd60e51b81526004016107db90612383565b61085c816117eb565b60408051600080825260208201909252610878918391906117f3565b50565b610883610f97565b336001600160a01b0382166323b872dd823061089f8787611758565b6040516001600160e01b031960e086901b1681526001600160a01b03938416600482015292909116602483015260448201526064016020604051808303816000875af11580156108f3573d6000803e3d6000fd5b505050506040513d601f19601f82011682018060405250810190610917919061228e565b5061092485858585610fdd565b5050505050565b6001600160a01b037f00000000000000000000000000000000000000000000000000000000000000001630036109735760405162461bcd60e51b81526004016107db90612337565b7f00000000000000000000000000000000000000000000000000000000000000006001600160a01b03166109bc6000805160206126e3833981519152546001600160a01b031690565b6001600160a01b0316146109e25760405162461bcd60e51b81526004016107db90612383565b6109eb826117eb565b6109f7828260016117f3565b5050565b6000306001600160a01b037f00000000000000000000000000000000000000000000000000000000000000001614610a9b5760405162461bcd60e51b815260206004820152603860248201527f555550535570677261646561626c653a206d757374206e6f742062652063616c60448201527f6c6564207468726f7567682064656c656761746563616c6c000000000000000060648201526084016107db565b506000805160206126e383398151915290565b610ab6610ee3565b60fd94909455610100805461ffff191693151561ff0019169390931791151583029190911762ff00001916620100009115159190910217905561010155565b610afd610ee3565b610502600061195e565b610b0f610ee3565b6040516001600160a01b0383169082156108fc029083906000818181858888f19350505050158015610498573d6000803e3d6000fd5b600054610100900460ff1615808015610b655750600054600160ff909116105b80610b7f5750303b158015610b7f575060005460ff166001145b610be25760405162461bcd60e51b815260206004820152602e60248201527f496e697469616c697a61626c653a20636f6e747261637420697320616c72656160448201526d191e481a5b9a5d1a585b1a5e995960921b60648201526084016107db565b6000805460ff191660011790558015610c05576000805461ff0019166101001790555b60fb80546001600160a01b0319167377daafc7411c911b869c71bf70fe36cce507845d17905566038d7ea4c6800060fc556801158e460913d0000060fd55610100805462ffffff1916610101908117909155681ba5abf9e7793800009055610c6b6119b0565b610c736119df565b610c7b611a0e565b8015610878576000805461ff0019169055604051600181527f7f26b83ff96e1f2b6a682f133852f6798a09c465da95921460cefb38474024989060200160405180910390a150565b610ccb610f97565b60fb54604051630935e01b60e21b81523360048201526001600160a01b03909116906324d7806c90602401602060405180830381865afa158015610d13573d6000803e3d6000fd5b505050506040513d601f19601f82011682018060405250810190610d37919061228e565b610d775760405162461bcd60e51b81526020600482015260116024820152702cb7ba9030b932903737ba1030b236b4b760791b60448201526064016107db565b8360005b81811015610e1e576000858583818110610d9757610d976122ab565b90506020020135670de0b6b3a7640000610db191906122d7565b9050610e0b8a8a84818110610dc857610dc86122ab565b9050602002016020810190610ddd9190611f19565b898985818110610def57610def6122ab565b9050602002016020810190610e049190611f19565b8387610fdd565b5080610e168161231e565b915050610d7b565b505050505050505050565b610e31610ee3565b610502611a35565b610e41610ee3565b60405133904780156108fc02916000818181858888f19350505050158015610878573d6000803e3d6000fd5b610e75610ee3565b6001600160a01b038116610eda5760405162461bcd60e51b815260206004820152602660248201527f4f776e61626c653a206e6577206f776e657220697320746865207a65726f206160448201526564647265737360d01b60648201526084016107db565b6108788161195e565b6033546001600160a01b031633146105025760405162461bcd60e51b815260206004820181905260248201527f4f776e61626c653a2063616c6c6572206973206e6f7420746865206f776e657260448201526064016107db565b610f45610f97565b6065805460ff191660011790557f62e78cea01bee320cd4e420270b5ea74000d11b0c9f74754ebdbfc544b05a258610f7a3390565b6040516001600160a01b03909116815260200160405180910390a1565b60655460ff16156105025760405162461bcd60e51b815260206004820152601060248201526f14185d5cd8589b194e881c185d5cd95960821b60448201526064016107db565b60fb54604080516312f24b5b60e21b815290516001600160a01b039092169133916000918491634bc92d6c9160048083019260209291908290030181865afa15801561102d573d6000803e3d6000fd5b505050506040513d601f19601f8201168201806040525081019061105191906123cf565b60fd5490915085908110156110b45760405162461bcd60e51b815260206004820152602360248201527f415553442076616c7565206c657373207468656e206d696e206275792076616c6044820152623ab29760e91b60648201526084016107db565b610101548111156110ff5760405162461bcd60e51b815260206004820152601560248201527413585e08189d5e481b1a5b5a5d081c995858da1959605a1b60448201526064016107db565b836001600160a01b031663b70cc4c16040518163ffffffff1660e01b8152600401602060405180830381865afa15801561113d573d6000803e3d6000fd5b505050506040513d601f19601f8201168201806040525081019061116191906122ee565b6001600160a01b0316856001600160a01b031614806111f25750836001600160a01b031663611509236040518163ffffffff1660e01b8152600401602060405180830381865afa1580156111b9573d6000803e3d6000fd5b505050506040513d601f19601f820116820180604052508101906111dd91906122ee565b6001600160a01b0316856001600160a01b0316145b6112535760405162461bcd60e51b815260206004820152602c60248201527f42757957697468414e55534428293a20426173652063757272656e6379206e6f60448201526b3a1039bab83837b93a32b21760a11b60648201526084016107db565b600061138d856001600160a01b031663b70cc4c16040518163ffffffff1660e01b8152600401602060405180830381865afa158015611296573d6000803e3d6000fd5b505050506040513d601f19601f820116820180604052508101906112ba91906122ee565b6112c485856123e8565b876001600160a01b03166355a373d66040518163ffffffff1660e01b8152600401602060405180830381865afa158015611302573d6000803e3d6000fd5b505050506040513d601f19601f8201168201806040525081019061132691906122ee565b886001600160a01b0316638290c4a66040518163ffffffff1660e01b8152600401602060405180830381865afa158015611364573d6000803e3d6000fd5b505050506040513d601f19601f8201168201806040525081019061138891906122ee565b611a6e565b6101005490915060ff16156114b157846001600160a01b031663ee99205c6040518163ffffffff1660e01b8152600401602060405180830381865afa1580156113da573d6000803e3d6000fd5b505050506040513d601f19601f820116820180604052508101906113fe91906122ee565b6001600160a01b031663310c9b208983600181518110611420576114206122ab565b60200260200101518460008151811061143b5761143b6122ab565b60209081029190910101516040516001600160e01b031960e086901b1681526001600160a01b03909316600484015260248301919091526044820152606401600060405180830381600087803b15801561149457600080fd5b505af11580156114a8573d6000803e3d6000fd5b505050506115b3565b846001600160a01b03166355a373d66040518163ffffffff1660e01b8152600401602060405180830381865afa1580156114ef573d6000803e3d6000fd5b505050506040513d601f19601f8201168201806040525081019061151391906122ee565b6001600160a01b031663a9059cbb8583600181518110611535576115356122ab565b60200260200101516040518363ffffffff1660e01b815260040161156e9291906001600160a01b03929092168252602082015260400190565b6020604051808303816000875af115801561158d573d6000803e3d6000fd5b505050506040513d601f19601f820116820180604052508101906115b1919061228e565b505b61010080540460ff16156116b957846001600160a01b0316637dad19db6040518163ffffffff1660e01b8152600401602060405180830381865afa1580156115ff573d6000803e3d6000fd5b505050506040513d601f19601f8201168201806040525081019061162391906122ee565b6001600160a01b031663228159b482600081518110611644576116446122ab565b60200260200101518a8c6040518463ffffffff1660e01b8152600401611686939291909283526001600160a01b03918216602084015216604082015260600190565b600060405180830381600087803b1580156116a057600080fd5b505af11580156116b4573d6000803e3d6000fd5b505050505b7f629a485b55f72b3241f1b41ff1864e029996d1cf7d54ef632b907af140f57430856001600160a01b0316634bc92d6c6040518163ffffffff1660e01b8152600401602060405180830381865afa158015611718573d6000803e3d6000fd5b505050506040513d601f19601f8201168201806040525081019061173c91906123cf565b60405190815260200160405180910390a1505050505050505050565b6000670de0b6b3a7640000826001600160a01b031663313ce5676040518163ffffffff1660e01b8152600401602060405180830381865afa1580156117a1573d6000803e3d6000fd5b505050506040513d601f19601f820116820180604052508101906117c591906123cf565b6117d090600a6124df565b6117da90856122d7565b6117e491906124eb565b9392505050565b610878610ee3565b7f4910fdfa16fed3260ed0e7147f7cc6da11a60208b5b9406d12a635614ffd91435460ff16156118265761049883611bf1565b826001600160a01b03166352d1902d6040518163ffffffff1660e01b8152600401602060405180830381865afa925050508015611880575060408051601f3d908101601f1916820190925261187d918101906123cf565b60015b6118e35760405162461bcd60e51b815260206004820152602e60248201527f45524331393637557067726164653a206e657720696d706c656d656e7461746960448201526d6f6e206973206e6f74205555505360901b60648201526084016107db565b6000805160206126e383398151915281146119525760405162461bcd60e51b815260206004820152602960248201527f45524331393637557067726164653a20756e737570706f727465642070726f786044820152681a58589b195555525160ba1b60648201526084016107db565b50610498838383611c8d565b603380546001600160a01b038381166001600160a01b0319831681179093556040519116919082907f8be0079c531659141344cd1fd0a4f28419497f9722a3daafe3b4186f6b6457e090600090a35050565b600054610100900460ff166119d75760405162461bcd60e51b81526004016107db9061250d565b610502611cb8565b600054610100900460ff16611a065760405162461bcd60e51b81526004016107db9061250d565b610502611ceb565b600054610100900460ff166105025760405162461bcd60e51b81526004016107db9061250d565b611a3d611d1b565b6065805460ff191690557f5db9ee0a495bf2e6ff9c91a7834c1ba4fdd244a5e8aa4e537bd38aeae4b073aa33610f7a565b604080516002808252606080830184529260009291906020830190803683370190505090508581600081518110611aa757611aa76122ab565b60200260200101906001600160a01b031690816001600160a01b0316815250508381600181518110611adb57611adb6122ab565b6001600160a01b03928316602091820292909201015260405163095ea7b360e01b81528482166004820152602481018790529087169063095ea7b3906044016020604051808303816000875af1158015611b39573d6000803e3d6000fd5b505050506040513d601f19601f82011682018060405250810190611b5d919061228e565b5060006001600160a01b0384166338ed17398760018530611b7f42606461230b565b6040518663ffffffff1660e01b8152600401611b9f959493929190612558565b6000604051808303816000875af1158015611bbe573d6000803e3d6000fd5b505050506040513d6000823e601f3d908101601f19168201604052611be691908101906125c9565b979650505050505050565b6001600160a01b0381163b611c5e5760405162461bcd60e51b815260206004820152602d60248201527f455243313936373a206e657720696d706c656d656e746174696f6e206973206e60448201526c1bdd08184818dbdb9d1c9858dd609a1b60648201526084016107db565b6000805160206126e383398151915280546001600160a01b0319166001600160a01b0392909216919091179055565b611c9683611d64565b600082511180611ca35750805b1561049857611cb28383611da4565b50505050565b600054610100900460ff16611cdf5760405162461bcd60e51b81526004016107db9061250d565b6065805460ff19169055565b600054610100900460ff16611d125760405162461bcd60e51b81526004016107db9061250d565b6105023361195e565b60655460ff166105025760405162461bcd60e51b815260206004820152601460248201527314185d5cd8589b194e881b9bdd081c185d5cd95960621b60448201526064016107db565b611d6d81611bf1565b6040516001600160a01b038216907fbc7cd75a20ee27fd9adebab32041f755214dbc6bffa90cc0225b39da2e5c2d3b90600090a250565b60606001600160a01b0383163b611e0c5760405162461bcd60e51b815260206004820152602660248201527f416464726573733a2064656c65676174652063616c6c20746f206e6f6e2d636f6044820152651b9d1c9858dd60d21b60648201526084016107db565b600080846001600160a01b031684604051611e279190612693565b600060405180830381855af49150503d8060008114611e62576040519150601f19603f3d011682016040523d82523d6000602084013e611e67565b606091505b5091509150611e8f828260405180606001604052806027815260200161270360279139611e9a565b925050505b92915050565b60608315611ea95750816117e4565b6117e48383815115611ebe5781518083602001fd5b8060405162461bcd60e51b81526004016107db91906126af565b6001600160a01b038116811461087857600080fd5b60008060408385031215611f0057600080fd5b8235611f0b81611ed8565b946020939093013593505050565b600060208284031215611f2b57600080fd5b81356117e481611ed8565b600060208284031215611f4857600080fd5b5035919050565b60008083601f840112611f6157600080fd5b50813567ffffffffffffffff811115611f7957600080fd5b6020830191508360208260051b8501011115611f9457600080fd5b9250929050565b60008060008060008060608789031215611fb457600080fd5b863567ffffffffffffffff80821115611fcc57600080fd5b611fd88a838b01611f4f565b90985096506020890135915080821115611ff157600080fd5b611ffd8a838b01611f4f565b9096509450604089013591508082111561201657600080fd5b5061202389828a01611f4f565b979a9699509497509295939492505050565b6000806000806080858703121561204b57600080fd5b843561205681611ed8565b9350602085013561206681611ed8565b925060408501359150606085013561207d81611ed8565b939692955090935050565b634e487b7160e01b600052604160045260246000fd5b604051601f8201601f1916810167ffffffffffffffff811182821017156120c7576120c7612088565b604052919050565b600080604083850312156120e257600080fd5b82356120ed81611ed8565b915060208381013567ffffffffffffffff8082111561210b57600080fd5b818601915086601f83011261211f57600080fd5b81358181111561213157612131612088565b612143601f8201601f1916850161209e565b9150808252878482850101111561215957600080fd5b80848401858401376000848284010152508093505050509250929050565b801515811461087857600080fd5b600080600080600060a0868803121561219d57600080fd5b8535945060208601356121af81612177565b935060408601356121bf81612177565b925060608601356121cf81612177565b949793965091946080013592915050565b60008060008060008060006080888a0312156121fb57600080fd5b873567ffffffffffffffff8082111561221357600080fd5b61221f8b838c01611f4f565b909950975060208a013591508082111561223857600080fd5b6122448b838c01611f4f565b909750955060408a013591508082111561225d57600080fd5b5061226a8a828b01611f4f565b909450925050606088013561227e81611ed8565b8091505092959891949750929550565b6000602082840312156122a057600080fd5b81516117e481612177565b634e487b7160e01b600052603260045260246000fd5b634e487b7160e01b600052601160045260246000fd5b8082028115828204841417611e9457611e946122c1565b60006020828403121561230057600080fd5b81516117e481611ed8565b80820180821115611e9457611e946122c1565b600060018201612330576123306122c1565b5060010190565b6020808252602c908201527f46756e6374696f6e206d7573742062652063616c6c6564207468726f7567682060408201526b19195b1959d85d1958d85b1b60a21b606082015260800190565b6020808252602c908201527f46756e6374696f6e206d7573742062652063616c6c6564207468726f7567682060408201526b6163746976652070726f787960a01b606082015260800190565b6000602082840312156123e157600080fd5b5051919050565b81810381811115611e9457611e946122c1565b600181815b8085111561243657816000190482111561241c5761241c6122c1565b8085161561242957918102915b93841c9390800290612400565b509250929050565b60008261244d57506001611e94565b8161245a57506000611e94565b8160018114612470576002811461247a57612496565b6001915050611e94565b60ff84111561248b5761248b6122c1565b50506001821b611e94565b5060208310610133831016604e8410600b84101617156124b9575081810a611e94565b6124c383836123fb565b80600019048211156124d7576124d76122c1565b029392505050565b60006117e4838361243e565b60008261250857634e487b7160e01b600052601260045260246000fd5b500490565b6020808252602b908201527f496e697469616c697a61626c653a20636f6e7472616374206973206e6f74206960408201526a6e697469616c697a696e6760a81b606082015260800190565b600060a082018783526020878185015260a0604085015281875180845260c086019150828901935060005b818110156125a85784516001600160a01b031683529383019391830191600101612583565b50506001600160a01b03969096166060850152505050608001529392505050565b600060208083850312156125dc57600080fd5b825167ffffffffffffffff808211156125f457600080fd5b818501915085601f83011261260857600080fd5b81518181111561261a5761261a612088565b8060051b915061262b84830161209e565b818152918301840191848101908884111561264557600080fd5b938501935b838510156126635784518252938501939085019061264a565b98975050505050505050565b60005b8381101561268a578181015183820152602001612672565b50506000910152565b600082516126a581846020870161266f565b9190910192915050565b60208152600082518060208401526126ce81604085016020870161266f565b601f01601f1916919091016040019291505056fe360894a13ba1a3210667c828492db98dca3e2076cc3735a920a3ca505d382bbc416464726573733a206c6f772d6c6576656c2064656c65676174652063616c6c206661696c6564a264697066735822122035bdab2f0963c1ed450eb2a4dac8005c5e560ba06cd6ed4ff2c68c2afac1d15f64736f6c63430008110033",
  "linkReferences": {},
  "deployedLinkReferences": {}
}