{
  "_format": "hh-sol-artifact-1",
  "contractName": "PresaleUpgradeable",
  "sourceName": "contracts/PresaleUpgradeable.sol",
  "abi": [
    {
      "anonymous": false,
      "inputs": [
        {
          "indexed": false,
          "internalType": "address",
          "name": "previousAdmin",
          "type": "address"
        },
        {
          "indexed": false,
          "internalType": "address",
          "name": "newAdmin",
          "type": "address"
        }
      ],
      "name": "AdminChanged",
      "type": "event"
    },
    {
      "anonymous": false,
      "inputs": [
        {
          "indexed": true,
          "internalType": "address",
          "name": "beacon",
          "type": "address"
        }
      ],
      "name": "BeaconUpgraded",
      "type": "event"
    },
    {
      "anonymous": false,
      "inputs": [
        {
          "indexed": false,
          "internalType": "uint8",
          "name": "version",
          "type": "uint8"
        }
      ],
      "name": "Initialized",
      "type": "event"
    },
    {
      "anonymous": false,
      "inputs": [
        {
          "indexed": true,
          "internalType": "address",
          "name": "previousOwner",
          "type": "address"
        },
        {
          "indexed": true,
          "internalType": "address",
          "name": "newOwner",
          "type": "address"
        }
      ],
      "name": "OwnershipTransferred",
      "type": "event"
    },
    {
      "anonymous": false,
      "inputs": [
        {
          "indexed": false,
          "internalType": "address",
          "name": "account",
          "type": "address"
        }
      ],
      "name": "Paused",
      "type": "event"
    },
    {
      "anonymous": false,
      "inputs": [
        {
          "indexed": false,
          "internalType": "uint256",
          "name": "amount",
          "type": "uint256"
        }
      ],
      "name": "RegistrationFees",
      "type": "event"
    },
    {
      "anonymous": false,
      "inputs": [
        {
          "indexed": true,
          "internalType": "address",
          "name": "to",
          "type": "address"
        },
        {
          "indexed": true,
          "internalType": "uint256",
          "name": "tokenValue",
          "type": "uint256"
        },
        {
          "indexed": true,
          "internalType": "address",
          "name": "rewardTokenContract",
          "type": "address"
        }
      ],
      "name": "RewardTokenDistributed",
      "type": "event"
    },
    {
      "anonymous": false,
      "inputs": [
        {
          "indexed": true,
          "internalType": "address",
          "name": "from",
          "type": "address"
        },
        {
          "indexed": true,
          "internalType": "uint256",
          "name": "tokenValue",
          "type": "uint256"
        },
        {
          "indexed": true,
          "internalType": "uint256",
          "name": "ethValue",
          "type": "uint256"
        },
        {
          "indexed": false,
          "internalType": "string",
          "name": "currency",
          "type": "string"
        }
      ],
      "name": "TokenPurchased",
      "type": "event"
    },
    {
      "anonymous": false,
      "inputs": [
        {
          "indexed": false,
          "internalType": "address",
          "name": "account",
          "type": "address"
        }
      ],
      "name": "Unpaused",
      "type": "event"
    },
    {
      "anonymous": false,
      "inputs": [
        {
          "indexed": true,
          "internalType": "address",
          "name": "implementation",
          "type": "address"
        }
      ],
      "name": "Upgraded",
      "type": "event"
    },
    {
      "inputs": [
        {
          "internalType": "address",
          "name": "_referrerAddress",
          "type": "address"
        },
        {
          "internalType": "uint256",
          "name": "_valueInWei",
          "type": "uint256"
        }
      ],
      "name": "BuyWithANUSD",
      "outputs": [],
      "stateMutability": "nonpayable",
      "type": "function"
    },
    {
      "inputs": [
        {
          "internalType": "address[]",
          "name": "_userAddress",
          "type": "address[]"
        },
        {
          "internalType": "address[]",
          "name": "_referrerAddress",
          "type": "address[]"
        },
        {
          "internalType": "uint256[]",
          "name": "_valueInUSDDecimals",
          "type": "uint256[]"
        }
      ],
      "name": "BuyWithANUSDAdmin",
      "outputs": [],
      "stateMutability": "nonpayable",
      "type": "function"
    },
    {
      "inputs": [
        {
          "internalType": "address",
          "name": "_userAddress",
          "type": "address"
        },
        {
          "internalType": "address",
          "name": "_referrerAddress",
          "type": "address"
        },
        {
          "internalType": "uint256",
          "name": "_valueInDecimals",
          "type": "uint256"
        }
      ],
      "name": "BuyWithANUSDManager",
      "outputs": [],
      "stateMutability": "nonpayable",
      "type": "function"
    },
    {
      "inputs": [
        {
          "internalType": "uint256",
          "name": "",
          "type": "uint256"
        }
      ],
      "name": "admins",
      "outputs": [
        {
          "internalType": "address",
          "name": "",
          "type": "address"
        }
      ],
      "stateMutability": "view",
      "type": "function"
    },
    {
      "inputs": [],
      "name": "getAnalystics",
      "outputs": [
        {
          "internalType": "uint256",
          "name": "tokenSold",
          "type": "uint256"
        },
        {
          "internalType": "uint256",
          "name": "ausdRaised",
          "type": "uint256"
        }
      ],
      "stateMutability": "view",
      "type": "function"
    },
    {
      "inputs": [],
      "name": "getCapping",
      "outputs": [
        {
          "internalType": "uint256",
          "name": "minConUSD",
          "type": "uint256"
        },
        {
          "internalType": "bool",
          "name": "isBuyStakeEnabled",
          "type": "bool"
        },
        {
          "internalType": "bool",
          "name": "isPayReferralEnabled",
          "type": "bool"
        },
        {
          "internalType": "bool",
          "name": "isPayRewardTokenEnabled",
          "type": "bool"
        },
        {
          "internalType": "uint256",
          "name": "maxBuyLimitANUSD",
          "type": "uint256"
        }
      ],
      "stateMutability": "view",
      "type": "function"
    },
    {
      "inputs": [],
      "name": "getVariablesContract",
      "outputs": [
        {
          "internalType": "address",
          "name": "",
          "type": "address"
        }
      ],
      "stateMutability": "view",
      "type": "function"
    },
    {
      "inputs": [],
      "name": "initialize",
      "outputs": [],
      "stateMutability": "nonpayable",
      "type": "function"
    },
    {
      "inputs": [],
      "name": "owner",
      "outputs": [
        {
          "internalType": "address",
          "name": "",
          "type": "address"
        }
      ],
      "stateMutability": "view",
      "type": "function"
    },
    {
      "inputs": [],
      "name": "pauseAdmin",
      "outputs": [],
      "stateMutability": "nonpayable",
      "type": "function"
    },
    {
      "inputs": [],
      "name": "paused",
      "outputs": [
        {
          "internalType": "bool",
          "name": "",
          "type": "bool"
        }
      ],
      "stateMutability": "view",
      "type": "function"
    },
    {
      "inputs": [],
      "name": "proxiableUUID",
      "outputs": [
        {
          "internalType": "bytes32",
          "name": "",
          "type": "bytes32"
        }
      ],
      "stateMutability": "view",
      "type": "function"
    },
    {
      "inputs": [],
      "name": "renounceOwnership",
      "outputs": [],
      "stateMutability": "nonpayable",
      "type": "function"
    },
    {
      "inputs": [
        {
          "internalType": "uint256",
          "name": "minConUSD",
          "type": "uint256"
        },
        {
          "internalType": "bool",
          "name": "isBuyNStake",
          "type": "bool"
        },
        {
          "internalType": "bool",
          "name": "isPayReferral",
          "type": "bool"
        },
        {
          "internalType": "bool",
          "name": "isPayRewardTokens",
          "type": "bool"
        },
        {
          "internalType": "uint256",
          "name": "maxBuyLimitANUSD",
          "type": "uint256"
        }
      ],
      "name": "setCapping",
      "outputs": [],
      "stateMutability": "nonpayable",
      "type": "function"
    },
    {
      "inputs": [
        {
          "internalType": "address",
          "name": "_contractAddress",
          "type": "address"
        }
      ],
      "name": "setVariablesContract",
      "outputs": [],
      "stateMutability": "nonpayable",
      "type": "function"
    },
    {
      "inputs": [
        {
          "internalType": "address",
          "name": "_address",
          "type": "address"
        },
        {
          "internalType": "uint256",
          "name": "_value",
          "type": "uint256"
        }
      ],
      "name": "transferETH",
      "outputs": [],
      "stateMutability": "nonpayable",
      "type": "function"
    },
    {
      "inputs": [
        {
          "internalType": "address",
          "name": "newOwner",
          "type": "address"
        }
      ],
      "name": "transferOwnership",
      "outputs": [],
      "stateMutability": "nonpayable",
      "type": "function"
    },
    {
      "inputs": [],
      "name": "unpauseAdmin",
      "outputs": [],
      "stateMutability": "nonpayable",
      "type": "function"
    },
    {
      "inputs": [
        {
          "internalType": "address",
          "name": "newImplementation",
          "type": "address"
        }
      ],
      "name": "upgradeTo",
      "outputs": [],
      "stateMutability": "nonpayable",
      "type": "function"
    },
    {
      "inputs": [
        {
          "internalType": "address",
          "name": "newImplementation",
          "type": "address"
        },
        {
          "internalType": "bytes",
          "name": "data",
          "type": "bytes"
        }
      ],
      "name": "upgradeToAndCall",
      "outputs": [],
      "stateMutability": "payable",
      "type": "function"
    },
    {
      "inputs": [],
      "name": "withdrawETH",
      "outputs": [],
      "stateMutability": "nonpayable",
      "type": "function"
    },
    {
      "inputs": [
        {
          "internalType": "address",
          "name": "_tokenAddress",
          "type": "address"
        },
        {
          "internalType": "uint256",
          "name": "_value",
          "type": "uint256"
        }
      ],
      "name": "withdrawTokens",
      "outputs": [],
      "stateMutability": "nonpayable",
      "type": "function"
    },
    {
      "stateMutability": "payable",
      "type": "receive"
    }
  ],
  "bytecode": "0x60a06040523060805234801561001457600080fd5b50608051612b2f61004c6000396000818161114c0152818161118c0152818161122b0152818161126b01526112fe0152612b2f6000f3fe6080604052600436106101395760003560e01c80636740090a116100ab578063b9439d201161006f578063b9439d2014610342578063db5184e614610362578063de863da314610377578063e086e5ec146103cc578063f13a143f146103e1578063f2fde38b146103ff57600080fd5b80636740090a146102ba578063715018a6146102da5780637b1a4909146102ef5780638129fc1c1461030f5780638da5cb5b1461032457600080fd5b80632f11d653116100fd5780632f11d653146102045780633659cfe6146102195780634f0371d7146102395780634f1ef2861461026157806352d1902d146102745780635c975abb1461029757600080fd5b806306b091f9146101455780630ba0dba31461016757806314bfd6d01461018757806315fcd116146101c4578063182feeaa146101e457600080fd5b3661014057005b600080fd5b34801561015157600080fd5b5061016561016036600461248f565b61041f565b005b34801561017357600080fd5b506101656101823660046124bb565b61049d565b34801561019357600080fd5b506101a76101a23660046124d8565b6104c7565b6040516001600160a01b0390911681526020015b60405180910390f35b3480156101d057600080fd5b506101656101df3660046124f1565b6104f2565b3480156101f057600080fd5b506101656101ff36600461257e565b610cdc565b34801561021057600080fd5b50610165611130565b34801561022557600080fd5b506101656102343660046124bb565b611142565b34801561024557600080fd5b5060fe5460ff54604080519283526020830191909152016101bb565b61016561026f36600461265f565b611221565b34801561028057600080fd5b506102896112f1565b6040519081526020016101bb565b3480156102a357600080fd5b5060655460ff1660405190151581526020016101bb565b3480156102c657600080fd5b506101656102d5366004612715565b6113a4565b3480156102e657600080fd5b506101656113eb565b3480156102fb57600080fd5b5061016561030a36600461248f565b6113fd565b34801561031b57600080fd5b5061016561143b565b34801561033057600080fd5b506033546001600160a01b03166101a7565b34801561034e57600080fd5b5061016561035d36600461248f565b6115b9565b34801561036e57600080fd5b50610165611bcd565b34801561038357600080fd5b5060fd546101008054610101546040805194855260ff8084161515602087015293830484161515908501526201000090910490911615156060830152608082015260a0016101bb565b3480156103d857600080fd5b50610165611bdd565b3480156103ed57600080fd5b5060fb546001600160a01b03166101a7565b34801561040b57600080fd5b5061016561041a3660046124bb565b611c11565b610427611c87565b60405163a9059cbb60e01b8152336004820152602481018290526001600160a01b0383169063a9059cbb906044016020604051808303816000875af1158015610474573d6000803e3d6000fd5b505050506040513d601f19601f820116820180604052508101906104989190612770565b505050565b6104a5611c87565b60fb80546001600160a01b0319166001600160a01b0392909216919091179055565b61010281815481106104d857600080fd5b6000918252602090912001546001600160a01b0316905081565b6104fa611ce1565b60fb54604080516312f24b5b60e21b815290516001600160a01b039092169133916000918491634bc92d6c9160048083019260209291908290030181865afa15801561054a573d6000803e3d6000fd5b505050506040513d601f19601f8201168201806040525081019061056e919061278d565b9050600061058485670de0b6b3a76400006127bc565b60405163f3ae241560e01b81526001600160a01b0385811660048301529192509085169063f3ae241590602401602060405180830381865afa1580156105ce573d6000803e3d6000fd5b505050506040513d601f19601f820116820180604052508101906105f29190612770565b6106515760405162461bcd60e51b815260206004820152602560248201527f4f6e6c79206d616e61676572732063616e2063616c6c20746869732066756e636044820152643a34b7b71760d91b60648201526084015b60405180910390fd5b60fd548110156106af5760405162461bcd60e51b8152602060048201526024808201527f414e5553442076616c7565206c657373207468656e206d696e20627579207661604482015263363ab29760e11b6064820152608401610648565b610101548111156106fa5760405162461bcd60e51b815260206004820152601560248201527413585e08189d5e481b1a5b5a5d081c995858da1959605a1b6044820152606401610648565b836001600160a01b031663b70cc4c16040518163ffffffff1660e01b8152600401602060405180830381865afa158015610738573d6000803e3d6000fd5b505050506040513d601f19601f8201168201806040525081019061075c91906127d3565b6040516323b872dd60e01b81526001600160a01b0385811660048301523060248301526044820184905291909116906323b872dd906064016020604051808303816000875af11580156107b3573d6000803e3d6000fd5b505050506040513d601f19601f820116820180604052508101906107d79190612770565b506000610912856001600160a01b031663b70cc4c16040518163ffffffff1660e01b8152600401602060405180830381865afa15801561081b573d6000803e3d6000fd5b505050506040513d601f19601f8201168201806040525081019061083f91906127d3565b61084985856127f0565b876001600160a01b03166355a373d66040518163ffffffff1660e01b8152600401602060405180830381865afa158015610887573d6000803e3d6000fd5b505050506040513d601f19601f820116820180604052508101906108ab91906127d3565b886001600160a01b0316638290c4a66040518163ffffffff1660e01b8152600401602060405180830381865afa1580156108e9573d6000803e3d6000fd5b505050506040513d601f19601f8201168201806040525081019061090d91906127d3565b611d27565b6101005490915060ff1615610a3657846001600160a01b031663ee99205c6040518163ffffffff1660e01b8152600401602060405180830381865afa15801561095f573d6000803e3d6000fd5b505050506040513d601f19601f8201168201806040525081019061098391906127d3565b6001600160a01b031663310c9b2089836001815181106109a5576109a5612803565b6020026020010151846000815181106109c0576109c0612803565b60209081029190910101516040516001600160e01b031960e086901b1681526001600160a01b03909316600484015260248301919091526044820152606401600060405180830381600087803b158015610a1957600080fd5b505af1158015610a2d573d6000803e3d6000fd5b50505050610b38565b846001600160a01b03166355a373d66040518163ffffffff1660e01b8152600401602060405180830381865afa158015610a74573d6000803e3d6000fd5b505050506040513d601f19601f82011682018060405250810190610a9891906127d3565b6001600160a01b031663a9059cbb8983600181518110610aba57610aba612803565b60200260200101516040518363ffffffff1660e01b8152600401610af39291906001600160a01b03929092168252602082015260400190565b6020604051808303816000875af1158015610b12573d6000803e3d6000fd5b505050506040513d601f19601f82011682018060405250810190610b369190612770565b505b61010080540460ff1615610c3e57846001600160a01b0316637dad19db6040518163ffffffff1660e01b8152600401602060405180830381865afa158015610b84573d6000803e3d6000fd5b505050506040513d601f19601f82011682018060405250810190610ba891906127d3565b6001600160a01b031663228159b482600081518110610bc957610bc9612803565b60200260200101518a8a6040518463ffffffff1660e01b8152600401610c0b939291909283526001600160a01b03918216602084015216604082015260600190565b600060405180830381600087803b158015610c2557600080fd5b505af1158015610c39573d6000803e3d6000fd5b505050505b7f629a485b55f72b3241f1b41ff1864e029996d1cf7d54ef632b907af140f57430856001600160a01b0316634bc92d6c6040518163ffffffff1660e01b8152600401602060405180830381865afa158015610c9d573d6000803e3d6000fd5b505050506040513d601f19601f82011682018060405250810190610cc1919061278d565b60405190815260200160405180910390a15050505050505050565b60fb54604051630935e01b60e21b81523360048201526001600160a01b03909116906324d7806c90602401602060405180830381865afa158015610d24573d6000803e3d6000fd5b505050506040513d601f19601f82011682018060405250810190610d489190612770565b610d885760405162461bcd60e51b81526020600482015260116024820152702cb7ba9030b932903737ba1030b236b4b760791b6044820152606401610648565b60fb5485906001600160a01b031660005b82811015611125576000826001600160a01b0316634bc92d6c6040518163ffffffff1660e01b8152600401602060405180830381865afa158015610de1573d6000803e3d6000fd5b505050506040513d601f19601f82011682018060405250810190610e05919061278d565b90506000868684818110610e1b57610e1b612803565b90506020020135670de0b6b3a7640000610e3591906127bc565b90506000610e7a856001600160a01b031663b70cc4c16040518163ffffffff1660e01b8152600401602060405180830381865afa15801561081b573d6000803e3d6000fd5b6101005490915060ff1615610fc057846001600160a01b031663ee99205c6040518163ffffffff1660e01b8152600401602060405180830381865afa158015610ec7573d6000803e3d6000fd5b505050506040513d601f19601f82011682018060405250810190610eeb91906127d3565b6001600160a01b031663310c9b208d8d87818110610f0b57610f0b612803565b9050602002016020810190610f2091906124bb565b83600181518110610f3357610f33612803565b602002602001015184600081518110610f4e57610f4e612803565b60209081029190910101516040516001600160e01b031960e086901b1681526001600160a01b03909316600484015260248301919091526044820152606401600060405180830381600087803b158015610fa757600080fd5b505af1158015610fbb573d6000803e3d6000fd5b505050505b61010080540460ff161561110f57846001600160a01b0316637dad19db6040518163ffffffff1660e01b8152600401602060405180830381865afa15801561100c573d6000803e3d6000fd5b505050506040513d601f19601f8201168201806040525081019061103091906127d3565b6001600160a01b031663228159b48260008151811061105157611051612803565b60200260200101518e8e8881811061106b5761106b612803565b905060200201602081019061108091906124bb565b8d8d8981811061109257611092612803565b90506020020160208101906110a791906124bb565b6040516001600160e01b031960e086901b16815260048101939093526001600160a01b039182166024840152166044820152606401600060405180830381600087803b1580156110f657600080fd5b505af115801561110a573d6000803e3d6000fd5b505050505b505050808061111d90612819565b915050610d99565b505050505050505050565b611138611c87565b611140611eaa565b565b6001600160a01b037f000000000000000000000000000000000000000000000000000000000000000016300361118a5760405162461bcd60e51b815260040161064890612832565b7f00000000000000000000000000000000000000000000000000000000000000006001600160a01b03166111d3600080516020612ab3833981519152546001600160a01b031690565b6001600160a01b0316146111f95760405162461bcd60e51b81526004016106489061287e565b61120281611f04565b6040805160008082526020820190925261121e91839190611f0c565b50565b6001600160a01b037f00000000000000000000000000000000000000000000000000000000000000001630036112695760405162461bcd60e51b815260040161064890612832565b7f00000000000000000000000000000000000000000000000000000000000000006001600160a01b03166112b2600080516020612ab3833981519152546001600160a01b031690565b6001600160a01b0316146112d85760405162461bcd60e51b81526004016106489061287e565b6112e182611f04565b6112ed82826001611f0c565b5050565b6000306001600160a01b037f000000000000000000000000000000000000000000000000000000000000000016146113915760405162461bcd60e51b815260206004820152603860248201527f555550535570677261646561626c653a206d757374206e6f742062652063616c60448201527f6c6564207468726f7567682064656c656761746563616c6c00000000000000006064820152608401610648565b50600080516020612ab383398151915290565b6113ac611c87565b60fd94909455610100805461ffff191693151561ff0019169390931791151583029190911762ff00001916620100009115159190910217905561010155565b6113f3611c87565b6111406000612077565b611405611c87565b6040516001600160a01b0383169082156108fc029083906000818181858888f19350505050158015610498573d6000803e3d6000fd5b600054610100900460ff161580801561145b5750600054600160ff909116105b806114755750303b158015611475575060005460ff166001145b6114d85760405162461bcd60e51b815260206004820152602e60248201527f496e697469616c697a61626c653a20636f6e747261637420697320616c72656160448201526d191e481a5b9a5d1a585b1a5e995960921b6064820152608401610648565b6000805460ff1916600117905580156114fb576000805461ff0019166101001790555b60fb80546001600160a01b0319167377daafc7411c911b869c71bf70fe36cce507845d17905566038d7ea4c6800060fc556801158e460913d0000060fd55610100805462ffffff1916610101908117909155681ba5abf9e77938000090556115616120c9565b6115696120f8565b611571612127565b801561121e576000805461ff0019169055604051600181527f7f26b83ff96e1f2b6a682f133852f6798a09c465da95921460cefb38474024989060200160405180910390a150565b6115c1611ce1565b60fb54604080516312f24b5b60e21b815290516001600160a01b039092169133916000918491634bc92d6c9160048083019260209291908290030181865afa158015611611573d6000803e3d6000fd5b505050506040513d601f19601f82011682018060405250810190611635919061278d565b60fd5490915084908110156116985760405162461bcd60e51b815260206004820152602360248201527f415553442076616c7565206c657373207468656e206d696e206275792076616c6044820152623ab29760e91b6064820152608401610648565b610101548111156116e35760405162461bcd60e51b815260206004820152601560248201527413585e08189d5e481b1a5b5a5d081c995858da1959605a1b6044820152606401610648565b836001600160a01b03166355a373d66040518163ffffffff1660e01b8152600401602060405180830381865afa158015611721573d6000803e3d6000fd5b505050506040513d601f19601f8201168201806040525081019061174591906127d3565b6040516323b872dd60e01b81526001600160a01b0385811660048301523060248301526044820184905291909116906323b872dd906064016020604051808303816000875af115801561179c573d6000803e3d6000fd5b505050506040513d601f19601f820116820180604052508101906117c09190612770565b506000611804856001600160a01b031663b70cc4c16040518163ffffffff1660e01b8152600401602060405180830381865afa15801561081b573d6000803e3d6000fd5b6101005490915060ff161561192857846001600160a01b031663ee99205c6040518163ffffffff1660e01b8152600401602060405180830381865afa158015611851573d6000803e3d6000fd5b505050506040513d601f19601f8201168201806040525081019061187591906127d3565b6001600160a01b031663310c9b20858360018151811061189757611897612803565b6020026020010151846000815181106118b2576118b2612803565b60209081029190910101516040516001600160e01b031960e086901b1681526001600160a01b03909316600484015260248301919091526044820152606401600060405180830381600087803b15801561190b57600080fd5b505af115801561191f573d6000803e3d6000fd5b50505050611a2a565b846001600160a01b03166355a373d66040518163ffffffff1660e01b8152600401602060405180830381865afa158015611966573d6000803e3d6000fd5b505050506040513d601f19601f8201168201806040525081019061198a91906127d3565b6001600160a01b031663a9059cbb85836001815181106119ac576119ac612803565b60200260200101516040518363ffffffff1660e01b81526004016119e59291906001600160a01b03929092168252602082015260400190565b6020604051808303816000875af1158015611a04573d6000803e3d6000fd5b505050506040513d601f19601f82011682018060405250810190611a289190612770565b505b61010080540460ff1615611b3057846001600160a01b0316637dad19db6040518163ffffffff1660e01b8152600401602060405180830381865afa158015611a76573d6000803e3d6000fd5b505050506040513d601f19601f82011682018060405250810190611a9a91906127d3565b6001600160a01b031663228159b482600081518110611abb57611abb612803565b6020026020010151868a6040518463ffffffff1660e01b8152600401611afd939291909283526001600160a01b03918216602084015216604082015260600190565b600060405180830381600087803b158015611b1757600080fd5b505af1158015611b2b573d6000803e3d6000fd5b505050505b7f629a485b55f72b3241f1b41ff1864e029996d1cf7d54ef632b907af140f57430856001600160a01b0316634bc92d6c6040518163ffffffff1660e01b8152600401602060405180830381865afa158015611b8f573d6000803e3d6000fd5b505050506040513d601f19601f82011682018060405250810190611bb3919061278d565b60405190815260200160405180910390a150505050505050565b611bd5611c87565b61114061214e565b611be5611c87565b60405133904780156108fc02916000818181858888f1935050505015801561121e573d6000803e3d6000fd5b611c19611c87565b6001600160a01b038116611c7e5760405162461bcd60e51b815260206004820152602660248201527f4f776e61626c653a206e6577206f776e657220697320746865207a65726f206160448201526564647265737360d01b6064820152608401610648565b61121e81612077565b6033546001600160a01b031633146111405760405162461bcd60e51b815260206004820181905260248201527f4f776e61626c653a2063616c6c6572206973206e6f7420746865206f776e65726044820152606401610648565b60655460ff16156111405760405162461bcd60e51b815260206004820152601060248201526f14185d5cd8589b194e881c185d5cd95960821b6044820152606401610648565b604080516002808252606080830184529260009291906020830190803683370190505090508581600081518110611d6057611d60612803565b60200260200101906001600160a01b031690816001600160a01b0316815250508381600181518110611d9457611d94612803565b6001600160a01b03928316602091820292909201015260405163095ea7b360e01b81528482166004820152602481018790529087169063095ea7b3906044016020604051808303816000875af1158015611df2573d6000803e3d6000fd5b505050506040513d601f19601f82011682018060405250810190611e169190612770565b5060006001600160a01b0384166338ed17398760018530611e384260646128ca565b6040518663ffffffff1660e01b8152600401611e589594939291906128dd565b6000604051808303816000875af1158015611e77573d6000803e3d6000fd5b505050506040513d6000823e601f3d908101601f19168201604052611e9f919081019061294e565b979650505050505050565b611eb2611ce1565b6065805460ff191660011790557f62e78cea01bee320cd4e420270b5ea74000d11b0c9f74754ebdbfc544b05a258611ee73390565b6040516001600160a01b03909116815260200160405180910390a1565b61121e611c87565b7f4910fdfa16fed3260ed0e7147f7cc6da11a60208b5b9406d12a635614ffd91435460ff1615611f3f5761049883612187565b826001600160a01b03166352d1902d6040518163ffffffff1660e01b8152600401602060405180830381865afa925050508015611f99575060408051601f3d908101601f19168201909252611f969181019061278d565b60015b611ffc5760405162461bcd60e51b815260206004820152602e60248201527f45524331393637557067726164653a206e657720696d706c656d656e7461746960448201526d6f6e206973206e6f74205555505360901b6064820152608401610648565b600080516020612ab3833981519152811461206b5760405162461bcd60e51b815260206004820152602960248201527f45524331393637557067726164653a20756e737570706f727465642070726f786044820152681a58589b195555525160ba1b6064820152608401610648565b50610498838383612223565b603380546001600160a01b038381166001600160a01b0319831681179093556040519116919082907f8be0079c531659141344cd1fd0a4f28419497f9722a3daafe3b4186f6b6457e090600090a35050565b600054610100900460ff166120f05760405162461bcd60e51b8152600401610648906129f4565b61114061224e565b600054610100900460ff1661211f5760405162461bcd60e51b8152600401610648906129f4565b611140612281565b600054610100900460ff166111405760405162461bcd60e51b8152600401610648906129f4565b6121566122b1565b6065805460ff191690557f5db9ee0a495bf2e6ff9c91a7834c1ba4fdd244a5e8aa4e537bd38aeae4b073aa33611ee7565b6001600160a01b0381163b6121f45760405162461bcd60e51b815260206004820152602d60248201527f455243313936373a206e657720696d706c656d656e746174696f6e206973206e60448201526c1bdd08184818dbdb9d1c9858dd609a1b6064820152608401610648565b600080516020612ab383398151915280546001600160a01b0319166001600160a01b0392909216919091179055565b61222c836122fa565b6000825111806122395750805b1561049857612248838361233a565b50505050565b600054610100900460ff166122755760405162461bcd60e51b8152600401610648906129f4565b6065805460ff19169055565b600054610100900460ff166122a85760405162461bcd60e51b8152600401610648906129f4565b61114033612077565b60655460ff166111405760405162461bcd60e51b815260206004820152601460248201527314185d5cd8589b194e881b9bdd081c185d5cd95960621b6044820152606401610648565b61230381612187565b6040516001600160a01b038216907fbc7cd75a20ee27fd9adebab32041f755214dbc6bffa90cc0225b39da2e5c2d3b90600090a250565b60606001600160a01b0383163b6123a25760405162461bcd60e51b815260206004820152602660248201527f416464726573733a2064656c65676174652063616c6c20746f206e6f6e2d636f6044820152651b9d1c9858dd60d21b6064820152608401610648565b600080846001600160a01b0316846040516123bd9190612a63565b600060405180830381855af49150503d80600081146123f8576040519150601f19603f3d011682016040523d82523d6000602084013e6123fd565b606091505b50915091506124258282604051806060016040528060278152602001612ad360279139612430565b925050505b92915050565b6060831561243f575081612449565b6124498383612450565b9392505050565b8151156124605781518083602001fd5b8060405162461bcd60e51b81526004016106489190612a7f565b6001600160a01b038116811461121e57600080fd5b600080604083850312156124a257600080fd5b82356124ad8161247a565b946020939093013593505050565b6000602082840312156124cd57600080fd5b81356124498161247a565b6000602082840312156124ea57600080fd5b5035919050565b60008060006060848603121561250657600080fd5b83356125118161247a565b925060208401356125218161247a565b929592945050506040919091013590565b60008083601f84011261254457600080fd5b50813567ffffffffffffffff81111561255c57600080fd5b6020830191508360208260051b850101111561257757600080fd5b9250929050565b6000806000806000806060878903121561259757600080fd5b863567ffffffffffffffff808211156125af57600080fd5b6125bb8a838b01612532565b909850965060208901359150808211156125d457600080fd5b6125e08a838b01612532565b909650945060408901359150808211156125f957600080fd5b5061260689828a01612532565b979a9699509497509295939492505050565b634e487b7160e01b600052604160045260246000fd5b604051601f8201601f1916810167ffffffffffffffff8111828210171561265757612657612618565b604052919050565b6000806040838503121561267257600080fd5b823561267d8161247a565b915060208381013567ffffffffffffffff8082111561269b57600080fd5b818601915086601f8301126126af57600080fd5b8135818111156126c1576126c1612618565b6126d3601f8201601f1916850161262e565b915080825287848285010111156126e957600080fd5b80848401858401376000848284010152508093505050509250929050565b801515811461121e57600080fd5b600080600080600060a0868803121561272d57600080fd5b85359450602086013561273f81612707565b9350604086013561274f81612707565b9250606086013561275f81612707565b949793965091946080013592915050565b60006020828403121561278257600080fd5b815161244981612707565b60006020828403121561279f57600080fd5b5051919050565b634e487b7160e01b600052601160045260246000fd5b808202811582820484141761242a5761242a6127a6565b6000602082840312156127e557600080fd5b81516124498161247a565b8181038181111561242a5761242a6127a6565b634e487b7160e01b600052603260045260246000fd5b60006001820161282b5761282b6127a6565b5060010190565b6020808252602c908201527f46756e6374696f6e206d7573742062652063616c6c6564207468726f7567682060408201526b19195b1959d85d1958d85b1b60a21b606082015260800190565b6020808252602c908201527f46756e6374696f6e206d7573742062652063616c6c6564207468726f7567682060408201526b6163746976652070726f787960a01b606082015260800190565b8082018082111561242a5761242a6127a6565b600060a082018783526020878185015260a0604085015281875180845260c086019150828901935060005b8181101561292d5784516001600160a01b031683529383019391830191600101612908565b50506001600160a01b03969096166060850152505050608001529392505050565b6000602080838503121561296157600080fd5b825167ffffffffffffffff8082111561297957600080fd5b818501915085601f83011261298d57600080fd5b81518181111561299f5761299f612618565b8060051b91506129b084830161262e565b81815291830184019184810190888411156129ca57600080fd5b938501935b838510156129e8578451825293850193908501906129cf565b98975050505050505050565b6020808252602b908201527f496e697469616c697a61626c653a20636f6e7472616374206973206e6f74206960408201526a6e697469616c697a696e6760a81b606082015260800190565b60005b83811015612a5a578181015183820152602001612a42565b50506000910152565b60008251612a75818460208701612a3f565b9190910192915050565b6020815260008251806020840152612a9e816040850160208701612a3f565b601f01601f1916919091016040019291505056fe360894a13ba1a3210667c828492db98dca3e2076cc3735a920a3ca505d382bbc416464726573733a206c6f772d6c6576656c2064656c65676174652063616c6c206661696c6564a264697066735822122071eb3738068f8065b50fc6b097b5701dbe34e5b8eb0175bd572a40fe6edee1dd64736f6c63430008110033",
  "linkReferences": {},
  "deployedLinkReferences": {}
}