{
  "_format": "hh-sol-artifact-1",
  "contractName": "PresaleUpgradeable",
  "sourceName": "contracts/PresaleUpgradeable.sol",
  "abi": [
    {
      "anonymous": false,
      "inputs": [
        {
          "indexed": false,
          "internalType": "address",
          "name": "previousAdmin",
          "type": "address"
        },
        {
          "indexed": false,
          "internalType": "address",
          "name": "newAdmin",
          "type": "address"
        }
      ],
      "name": "AdminChanged",
      "type": "event"
    },
    {
      "anonymous": false,
      "inputs": [
        {
          "indexed": true,
          "internalType": "address",
          "name": "beacon",
          "type": "address"
        }
      ],
      "name": "BeaconUpgraded",
      "type": "event"
    },
    {
      "anonymous": false,
      "inputs": [
        {
          "indexed": false,
          "internalType": "uint8",
          "name": "version",
          "type": "uint8"
        }
      ],
      "name": "Initialized",
      "type": "event"
    },
    {
      "anonymous": false,
      "inputs": [
        {
          "indexed": true,
          "internalType": "address",
          "name": "previousOwner",
          "type": "address"
        },
        {
          "indexed": true,
          "internalType": "address",
          "name": "newOwner",
          "type": "address"
        }
      ],
      "name": "OwnershipTransferred",
      "type": "event"
    },
    {
      "anonymous": false,
      "inputs": [
        {
          "indexed": false,
          "internalType": "address",
          "name": "account",
          "type": "address"
        }
      ],
      "name": "Paused",
      "type": "event"
    },
    {
      "anonymous": false,
      "inputs": [
        {
          "indexed": false,
          "internalType": "uint256",
          "name": "amount",
          "type": "uint256"
        }
      ],
      "name": "RegistrationFees",
      "type": "event"
    },
    {
      "anonymous": false,
      "inputs": [
        {
          "indexed": true,
          "internalType": "address",
          "name": "to",
          "type": "address"
        },
        {
          "indexed": true,
          "internalType": "uint256",
          "name": "tokenValue",
          "type": "uint256"
        },
        {
          "indexed": true,
          "internalType": "address",
          "name": "rewardTokenContract",
          "type": "address"
        }
      ],
      "name": "RewardTokenDistributed",
      "type": "event"
    },
    {
      "anonymous": false,
      "inputs": [
        {
          "indexed": true,
          "internalType": "address",
          "name": "from",
          "type": "address"
        },
        {
          "indexed": true,
          "internalType": "uint256",
          "name": "tokenValue",
          "type": "uint256"
        },
        {
          "indexed": true,
          "internalType": "uint256",
          "name": "ethValue",
          "type": "uint256"
        },
        {
          "indexed": false,
          "internalType": "string",
          "name": "currency",
          "type": "string"
        }
      ],
      "name": "TokenPurchased",
      "type": "event"
    },
    {
      "anonymous": false,
      "inputs": [
        {
          "indexed": false,
          "internalType": "address",
          "name": "account",
          "type": "address"
        }
      ],
      "name": "Unpaused",
      "type": "event"
    },
    {
      "anonymous": false,
      "inputs": [
        {
          "indexed": true,
          "internalType": "address",
          "name": "implementation",
          "type": "address"
        }
      ],
      "name": "Upgraded",
      "type": "event"
    },
    {
      "inputs": [
        {
          "internalType": "address",
          "name": "_referrerAddress",
          "type": "address"
        },
        {
          "internalType": "uint256",
          "name": "_valueInWei",
          "type": "uint256"
        }
      ],
      "name": "BuyWithANUSD",
      "outputs": [],
      "stateMutability": "nonpayable",
      "type": "function"
    },
    {
      "inputs": [
        {
          "internalType": "address[]",
          "name": "_userAddress",
          "type": "address[]"
        },
        {
          "internalType": "address[]",
          "name": "_referrerAddress",
          "type": "address[]"
        },
        {
          "internalType": "uint256[]",
          "name": "_valueInDecimals",
          "type": "uint256[]"
        }
      ],
      "name": "BuyWithANUSDAdmin",
      "outputs": [],
      "stateMutability": "nonpayable",
      "type": "function"
    },
    {
      "inputs": [],
      "name": "getAnalystics",
      "outputs": [
        {
          "internalType": "uint256",
          "name": "tokenSold",
          "type": "uint256"
        },
        {
          "internalType": "uint256",
          "name": "ausdRaised",
          "type": "uint256"
        }
      ],
      "stateMutability": "view",
      "type": "function"
    },
    {
      "inputs": [],
      "name": "getCapping",
      "outputs": [
        {
          "internalType": "uint256",
          "name": "minConUSD",
          "type": "uint256"
        },
        {
          "internalType": "bool",
          "name": "isBuyStakeEnabled",
          "type": "bool"
        },
        {
          "internalType": "bool",
          "name": "isPayReferralEnabled",
          "type": "bool"
        },
        {
          "internalType": "bool",
          "name": "isPayRewardTokenEnabled",
          "type": "bool"
        },
        {
          "internalType": "uint256",
          "name": "maxBuyLimitANUSD",
          "type": "uint256"
        }
      ],
      "stateMutability": "view",
      "type": "function"
    },
    {
      "inputs": [],
      "name": "getVariablesContract",
      "outputs": [
        {
          "internalType": "address",
          "name": "",
          "type": "address"
        }
      ],
      "stateMutability": "view",
      "type": "function"
    },
    {
      "inputs": [],
      "name": "initialize",
      "outputs": [],
      "stateMutability": "nonpayable",
      "type": "function"
    },
    {
      "inputs": [],
      "name": "owner",
      "outputs": [
        {
          "internalType": "address",
          "name": "",
          "type": "address"
        }
      ],
      "stateMutability": "view",
      "type": "function"
    },
    {
      "inputs": [],
      "name": "pauseAdmin",
      "outputs": [],
      "stateMutability": "nonpayable",
      "type": "function"
    },
    {
      "inputs": [],
      "name": "paused",
      "outputs": [
        {
          "internalType": "bool",
          "name": "",
          "type": "bool"
        }
      ],
      "stateMutability": "view",
      "type": "function"
    },
    {
      "inputs": [],
      "name": "proxiableUUID",
      "outputs": [
        {
          "internalType": "bytes32",
          "name": "",
          "type": "bytes32"
        }
      ],
      "stateMutability": "view",
      "type": "function"
    },
    {
      "inputs": [],
      "name": "renounceOwnership",
      "outputs": [],
      "stateMutability": "nonpayable",
      "type": "function"
    },
    {
      "inputs": [
        {
          "internalType": "uint256",
          "name": "minConUSD",
          "type": "uint256"
        },
        {
          "internalType": "bool",
          "name": "isBuyNStake",
          "type": "bool"
        },
        {
          "internalType": "bool",
          "name": "isPayReferral",
          "type": "bool"
        },
        {
          "internalType": "bool",
          "name": "isPayRewardTokens",
          "type": "bool"
        },
        {
          "internalType": "uint256",
          "name": "maxBuyLimitANUSD",
          "type": "uint256"
        }
      ],
      "name": "setCapping",
      "outputs": [],
      "stateMutability": "nonpayable",
      "type": "function"
    },
    {
      "inputs": [
        {
          "internalType": "address",
          "name": "_contractAddress",
          "type": "address"
        }
      ],
      "name": "setVariablesContract",
      "outputs": [],
      "stateMutability": "nonpayable",
      "type": "function"
    },
    {
      "inputs": [
        {
          "internalType": "address",
          "name": "_address",
          "type": "address"
        },
        {
          "internalType": "uint256",
          "name": "_value",
          "type": "uint256"
        }
      ],
      "name": "transferETH",
      "outputs": [],
      "stateMutability": "nonpayable",
      "type": "function"
    },
    {
      "inputs": [
        {
          "internalType": "address",
          "name": "newOwner",
          "type": "address"
        }
      ],
      "name": "transferOwnership",
      "outputs": [],
      "stateMutability": "nonpayable",
      "type": "function"
    },
    {
      "inputs": [],
      "name": "unpauseAdmin",
      "outputs": [],
      "stateMutability": "nonpayable",
      "type": "function"
    },
    {
      "inputs": [
        {
          "internalType": "address",
          "name": "newImplementation",
          "type": "address"
        }
      ],
      "name": "upgradeTo",
      "outputs": [],
      "stateMutability": "nonpayable",
      "type": "function"
    },
    {
      "inputs": [
        {
          "internalType": "address",
          "name": "newImplementation",
          "type": "address"
        },
        {
          "internalType": "bytes",
          "name": "data",
          "type": "bytes"
        }
      ],
      "name": "upgradeToAndCall",
      "outputs": [],
      "stateMutability": "payable",
      "type": "function"
    },
    {
      "inputs": [],
      "name": "withdrawETH",
      "outputs": [],
      "stateMutability": "nonpayable",
      "type": "function"
    },
    {
      "inputs": [
        {
          "internalType": "address",
          "name": "_tokenAddress",
          "type": "address"
        },
        {
          "internalType": "uint256",
          "name": "_value",
          "type": "uint256"
        }
      ],
      "name": "withdrawTokens",
      "outputs": [],
      "stateMutability": "nonpayable",
      "type": "function"
    },
    {
      "stateMutability": "payable",
      "type": "receive"
    }
  ],
  "bytecode": "0x60a06040523060805234801561001457600080fd5b5060805161250a61004c60003960008181610aaa01528181610af301528181610b9201528181610bd20152610c65015261250a6000f3fe6080604052600436106101235760003560e01c8063715018a6116100a0578063db5184e611610064578063db5184e614610308578063de863da31461031d578063e086e5ec14610372578063f13a143f14610387578063f2fde38b146103a557600080fd5b8063715018a61461026c5780637b1a4909146102815780638129fc1c146102a15780638da5cb5b146102b6578063b9439d20146102e857600080fd5b80634f0371d7116100e75780634f0371d7146101c65780634f1ef286146101f357806352d1902d146102065780635c975abb146102295780636740090a1461024c57600080fd5b806306b091f91461012f5780630ba0dba314610151578063182feeaa146101715780632f11d653146101915780633659cfe6146101a657600080fd5b3661012a57005b600080fd5b34801561013b57600080fd5b5061014f61014a366004611ec4565b6103c5565b005b34801561015d57600080fd5b5061014f61016c366004611ef0565b610443565b34801561017d57600080fd5b5061014f61018c366004611f59565b61046d565b34801561019d57600080fd5b5061014f610a8e565b3480156101b257600080fd5b5061014f6101c1366004611ef0565b610aa0565b3480156101d257600080fd5b5060fe5460ff54604080519283526020830191909152015b60405180910390f35b61014f61020136600461203a565b610b88565b34801561021257600080fd5b5061021b610c58565b6040519081526020016101ea565b34801561023557600080fd5b5060655460ff1660405190151581526020016101ea565b34801561025857600080fd5b5061014f6102673660046120f0565b610d0b565b34801561027857600080fd5b5061014f610d52565b34801561028d57600080fd5b5061014f61029c366004611ec4565b610d64565b3480156102ad57600080fd5b5061014f610da2565b3480156102c257600080fd5b506033546001600160a01b03165b6040516001600160a01b0390911681526020016101ea565b3480156102f457600080fd5b5061014f610303366004611ec4565b610f20565b34801561031457600080fd5b5061014f611602565b34801561032957600080fd5b5060fd546101008054610101546040805194855260ff8084161515602087015293830484161515908501526201000090910490911615156060830152608082015260a0016101ea565b34801561037e57600080fd5b5061014f611612565b34801561039357600080fd5b5060fb546001600160a01b03166102d0565b3480156103b157600080fd5b5061014f6103c0366004611ef0565b611646565b6103cd6116bc565b60405163a9059cbb60e01b8152336004820152602481018290526001600160a01b0383169063a9059cbb906044016020604051808303816000875af115801561041a573d6000803e3d6000fd5b505050506040513d601f19601f8201168201806040525081019061043e919061214b565b505050565b61044b6116bc565b60fb80546001600160a01b0319166001600160a01b0392909216919091179055565b6104756116bc565b60fb5485906001600160a01b031660005b82811015610a835760008989838181106104a2576104a2612168565b90506020020160208101906104b79190611ef0565b90506000836001600160a01b0316634bc92d6c6040518163ffffffff1660e01b8152600401602060405180830381865afa1580156104f9573d6000803e3d6000fd5b505050506040513d601f19601f8201168201806040525081019061051d919061217e565b9050600087878581811061053357610533612168565b90506020020135670de0b6b3a764000061054d91906121ad565b90506000610689866001600160a01b031663b70cc4c16040518163ffffffff1660e01b8152600401602060405180830381865afa158015610592573d6000803e3d6000fd5b505050506040513d601f19601f820116820180604052508101906105b691906121c4565b6105c085856121e1565b886001600160a01b03166355a373d66040518163ffffffff1660e01b8152600401602060405180830381865afa1580156105fe573d6000803e3d6000fd5b505050506040513d601f19601f8201168201806040525081019061062291906121c4565b896001600160a01b0316638290c4a66040518163ffffffff1660e01b8152600401602060405180830381865afa158015610660573d6000803e3d6000fd5b505050506040513d601f19601f8201168201806040525081019061068491906121c4565b611716565b6101005490915060ff16156107ad57856001600160a01b031663ee99205c6040518163ffffffff1660e01b8152600401602060405180830381865afa1580156106d6573d6000803e3d6000fd5b505050506040513d601f19601f820116820180604052508101906106fa91906121c4565b6001600160a01b031663310c9b20858360018151811061071c5761071c612168565b60200260200101518460008151811061073757610737612168565b60209081029190910101516040516001600160e01b031960e086901b1681526001600160a01b03909316600484015260248301919091526044820152606401600060405180830381600087803b15801561079057600080fd5b505af11580156107a4573d6000803e3d6000fd5b505050506108af565b856001600160a01b03166355a373d66040518163ffffffff1660e01b8152600401602060405180830381865afa1580156107eb573d6000803e3d6000fd5b505050506040513d601f19601f8201168201806040525081019061080f91906121c4565b6001600160a01b031663a9059cbb858360018151811061083157610831612168565b60200260200101516040518363ffffffff1660e01b815260040161086a9291906001600160a01b03929092168252602082015260400190565b6020604051808303816000875af1158015610889573d6000803e3d6000fd5b505050506040513d601f19601f820116820180604052508101906108ad919061214b565b505b61010080540460ff16156109d857856001600160a01b0316637dad19db6040518163ffffffff1660e01b8152600401602060405180830381865afa1580156108fb573d6000803e3d6000fd5b505050506040513d601f19601f8201168201806040525081019061091f91906121c4565b6001600160a01b031663228159b48260018151811061094057610940612168565b6020026020010151868e8e8a81811061095b5761095b612168565b90506020020160208101906109709190611ef0565b6040516001600160e01b031960e086901b16815260048101939093526001600160a01b039182166024840152166044820152606401600060405180830381600087803b1580156109bf57600080fd5b505af11580156109d3573d6000803e3d6000fd5b505050505b7f629a485b55f72b3241f1b41ff1864e029996d1cf7d54ef632b907af140f57430866001600160a01b0316634bc92d6c6040518163ffffffff1660e01b8152600401602060405180830381865afa158015610a37573d6000803e3d6000fd5b505050506040513d601f19601f82011682018060405250810190610a5b919061217e565b60405190815260200160405180910390a1505050508080610a7b906121f4565b915050610486565b505050505050505050565b610a966116bc565b610a9e611899565b565b6001600160a01b037f0000000000000000000000000000000000000000000000000000000000000000163003610af15760405162461bcd60e51b8152600401610ae89061220d565b60405180910390fd5b7f00000000000000000000000000000000000000000000000000000000000000006001600160a01b0316610b3a60008051602061248e833981519152546001600160a01b031690565b6001600160a01b031614610b605760405162461bcd60e51b8152600401610ae890612259565b610b69816118f3565b60408051600080825260208201909252610b85918391906118fb565b50565b6001600160a01b037f0000000000000000000000000000000000000000000000000000000000000000163003610bd05760405162461bcd60e51b8152600401610ae89061220d565b7f00000000000000000000000000000000000000000000000000000000000000006001600160a01b0316610c1960008051602061248e833981519152546001600160a01b031690565b6001600160a01b031614610c3f5760405162461bcd60e51b8152600401610ae890612259565b610c48826118f3565b610c54828260016118fb565b5050565b6000306001600160a01b037f00000000000000000000000000000000000000000000000000000000000000001614610cf85760405162461bcd60e51b815260206004820152603860248201527f555550535570677261646561626c653a206d757374206e6f742062652063616c60448201527f6c6564207468726f7567682064656c656761746563616c6c00000000000000006064820152608401610ae8565b5060008051602061248e83398151915290565b610d136116bc565b60fd94909455610100805461ffff191693151561ff0019169390931791151583029190911762ff00001916620100009115159190910217905561010155565b610d5a6116bc565b610a9e6000611a66565b610d6c6116bc565b6040516001600160a01b0383169082156108fc029083906000818181858888f1935050505015801561043e573d6000803e3d6000fd5b600054610100900460ff1615808015610dc25750600054600160ff909116105b80610ddc5750303b158015610ddc575060005460ff166001145b610e3f5760405162461bcd60e51b815260206004820152602e60248201527f496e697469616c697a61626c653a20636f6e747261637420697320616c72656160448201526d191e481a5b9a5d1a585b1a5e995960921b6064820152608401610ae8565b6000805460ff191660011790558015610e62576000805461ff0019166101001790555b60fb80546001600160a01b0319167364f0f2fa59a92df28be30876958023a69689d88c17905566038d7ea4c6800060fc556801158e460913d0000060fd55610100805462ffffff1916610101908117909155681ba5abf9e7793800009055610ec8611ab8565b610ed0611ae7565b610ed8611b16565b8015610b85576000805461ff0019169055604051600181527f7f26b83ff96e1f2b6a682f133852f6798a09c465da95921460cefb38474024989060200160405180910390a150565b610f28611b3d565b60fb54604080516312f24b5b60e21b815290516001600160a01b039092169133916000918491634bc92d6c9160048083019260209291908290030181865afa158015610f78573d6000803e3d6000fd5b505050506040513d601f19601f82011682018060405250810190610f9c919061217e565b60fd549091508490811015610fff5760405162461bcd60e51b815260206004820152602360248201527f415553442076616c7565206c657373207468656e206d696e206275792076616c6044820152623ab29760e91b6064820152608401610ae8565b6101015481111561104a5760405162461bcd60e51b815260206004820152601560248201527413585e08189d5e481b1a5b5a5d081c995858da1959605a1b6044820152606401610ae8565b836001600160a01b031663b70cc4c16040518163ffffffff1660e01b8152600401602060405180830381865afa158015611088573d6000803e3d6000fd5b505050506040513d601f19601f820116820180604052508101906110ac91906121c4565b6040516323b872dd60e01b81526001600160a01b0385811660048301523060248301526044820184905291909116906323b872dd906064016020604051808303816000875af1158015611103573d6000803e3d6000fd5b505050506040513d601f19601f82011682018060405250810190611127919061214b565b506000611239856001600160a01b031663b70cc4c16040518163ffffffff1660e01b8152600401602060405180830381865afa15801561116b573d6000803e3d6000fd5b505050506040513d601f19601f8201168201806040525081019061118f91906121c4565b61119985856121e1565b876001600160a01b03166355a373d66040518163ffffffff1660e01b8152600401602060405180830381865afa1580156111d7573d6000803e3d6000fd5b505050506040513d601f19601f820116820180604052508101906111fb91906121c4565b886001600160a01b0316638290c4a66040518163ffffffff1660e01b8152600401602060405180830381865afa158015610660573d6000803e3d6000fd5b6101005490915060ff161561135d57846001600160a01b031663ee99205c6040518163ffffffff1660e01b8152600401602060405180830381865afa158015611286573d6000803e3d6000fd5b505050506040513d601f19601f820116820180604052508101906112aa91906121c4565b6001600160a01b031663310c9b2085836001815181106112cc576112cc612168565b6020026020010151846000815181106112e7576112e7612168565b60209081029190910101516040516001600160e01b031960e086901b1681526001600160a01b03909316600484015260248301919091526044820152606401600060405180830381600087803b15801561134057600080fd5b505af1158015611354573d6000803e3d6000fd5b5050505061145f565b846001600160a01b03166355a373d66040518163ffffffff1660e01b8152600401602060405180830381865afa15801561139b573d6000803e3d6000fd5b505050506040513d601f19601f820116820180604052508101906113bf91906121c4565b6001600160a01b031663a9059cbb85836001815181106113e1576113e1612168565b60200260200101516040518363ffffffff1660e01b815260040161141a9291906001600160a01b03929092168252602082015260400190565b6020604051808303816000875af1158015611439573d6000803e3d6000fd5b505050506040513d601f19601f8201168201806040525081019061145d919061214b565b505b61010080540460ff161561156557846001600160a01b0316637dad19db6040518163ffffffff1660e01b8152600401602060405180830381865afa1580156114ab573d6000803e3d6000fd5b505050506040513d601f19601f820116820180604052508101906114cf91906121c4565b6001600160a01b031663228159b4826000815181106114f0576114f0612168565b6020026020010151868a6040518463ffffffff1660e01b8152600401611532939291909283526001600160a01b03918216602084015216604082015260600190565b600060405180830381600087803b15801561154c57600080fd5b505af1158015611560573d6000803e3d6000fd5b505050505b7f629a485b55f72b3241f1b41ff1864e029996d1cf7d54ef632b907af140f57430856001600160a01b0316634bc92d6c6040518163ffffffff1660e01b8152600401602060405180830381865afa1580156115c4573d6000803e3d6000fd5b505050506040513d601f19601f820116820180604052508101906115e8919061217e565b60405190815260200160405180910390a150505050505050565b61160a6116bc565b610a9e611b83565b61161a6116bc565b60405133904780156108fc02916000818181858888f19350505050158015610b85573d6000803e3d6000fd5b61164e6116bc565b6001600160a01b0381166116b35760405162461bcd60e51b815260206004820152602660248201527f4f776e61626c653a206e6577206f776e657220697320746865207a65726f206160448201526564647265737360d01b6064820152608401610ae8565b610b8581611a66565b6033546001600160a01b03163314610a9e5760405162461bcd60e51b815260206004820181905260248201527f4f776e61626c653a2063616c6c6572206973206e6f7420746865206f776e65726044820152606401610ae8565b60408051600280825260608083018452926000929190602083019080368337019050509050858160008151811061174f5761174f612168565b60200260200101906001600160a01b031690816001600160a01b031681525050838160018151811061178357611783612168565b6001600160a01b03928316602091820292909201015260405163095ea7b360e01b81528482166004820152602481018790529087169063095ea7b3906044016020604051808303816000875af11580156117e1573d6000803e3d6000fd5b505050506040513d601f19601f82011682018060405250810190611805919061214b565b5060006001600160a01b0384166338ed173987600185306118274260646122a5565b6040518663ffffffff1660e01b81526004016118479594939291906122b8565b6000604051808303816000875af1158015611866573d6000803e3d6000fd5b505050506040513d6000823e601f3d908101601f1916820160405261188e9190810190612329565b979650505050505050565b6118a1611b3d565b6065805460ff191660011790557f62e78cea01bee320cd4e420270b5ea74000d11b0c9f74754ebdbfc544b05a2586118d63390565b6040516001600160a01b03909116815260200160405180910390a1565b610b856116bc565b7f4910fdfa16fed3260ed0e7147f7cc6da11a60208b5b9406d12a635614ffd91435460ff161561192e5761043e83611bbc565b826001600160a01b03166352d1902d6040518163ffffffff1660e01b8152600401602060405180830381865afa925050508015611988575060408051601f3d908101601f191682019092526119859181019061217e565b60015b6119eb5760405162461bcd60e51b815260206004820152602e60248201527f45524331393637557067726164653a206e657720696d706c656d656e7461746960448201526d6f6e206973206e6f74205555505360901b6064820152608401610ae8565b60008051602061248e8339815191528114611a5a5760405162461bcd60e51b815260206004820152602960248201527f45524331393637557067726164653a20756e737570706f727465642070726f786044820152681a58589b195555525160ba1b6064820152608401610ae8565b5061043e838383611c58565b603380546001600160a01b038381166001600160a01b0319831681179093556040519116919082907f8be0079c531659141344cd1fd0a4f28419497f9722a3daafe3b4186f6b6457e090600090a35050565b600054610100900460ff16611adf5760405162461bcd60e51b8152600401610ae8906123cf565b610a9e611c83565b600054610100900460ff16611b0e5760405162461bcd60e51b8152600401610ae8906123cf565b610a9e611cb6565b600054610100900460ff16610a9e5760405162461bcd60e51b8152600401610ae8906123cf565b60655460ff1615610a9e5760405162461bcd60e51b815260206004820152601060248201526f14185d5cd8589b194e881c185d5cd95960821b6044820152606401610ae8565b611b8b611ce6565b6065805460ff191690557f5db9ee0a495bf2e6ff9c91a7834c1ba4fdd244a5e8aa4e537bd38aeae4b073aa336118d6565b6001600160a01b0381163b611c295760405162461bcd60e51b815260206004820152602d60248201527f455243313936373a206e657720696d706c656d656e746174696f6e206973206e60448201526c1bdd08184818dbdb9d1c9858dd609a1b6064820152608401610ae8565b60008051602061248e83398151915280546001600160a01b0319166001600160a01b0392909216919091179055565b611c6183611d2f565b600082511180611c6e5750805b1561043e57611c7d8383611d6f565b50505050565b600054610100900460ff16611caa5760405162461bcd60e51b8152600401610ae8906123cf565b6065805460ff19169055565b600054610100900460ff16611cdd5760405162461bcd60e51b8152600401610ae8906123cf565b610a9e33611a66565b60655460ff16610a9e5760405162461bcd60e51b815260206004820152601460248201527314185d5cd8589b194e881b9bdd081c185d5cd95960621b6044820152606401610ae8565b611d3881611bbc565b6040516001600160a01b038216907fbc7cd75a20ee27fd9adebab32041f755214dbc6bffa90cc0225b39da2e5c2d3b90600090a250565b60606001600160a01b0383163b611dd75760405162461bcd60e51b815260206004820152602660248201527f416464726573733a2064656c65676174652063616c6c20746f206e6f6e2d636f6044820152651b9d1c9858dd60d21b6064820152608401610ae8565b600080846001600160a01b031684604051611df2919061243e565b600060405180830381855af49150503d8060008114611e2d576040519150601f19603f3d011682016040523d82523d6000602084013e611e32565b606091505b5091509150611e5a82826040518060600160405280602781526020016124ae60279139611e65565b925050505b92915050565b60608315611e74575081611e7e565b611e7e8383611e85565b9392505050565b815115611e955781518083602001fd5b8060405162461bcd60e51b8152600401610ae8919061245a565b6001600160a01b0381168114610b8557600080fd5b60008060408385031215611ed757600080fd5b8235611ee281611eaf565b946020939093013593505050565b600060208284031215611f0257600080fd5b8135611e7e81611eaf565b60008083601f840112611f1f57600080fd5b50813567ffffffffffffffff811115611f3757600080fd5b6020830191508360208260051b8501011115611f5257600080fd5b9250929050565b60008060008060008060608789031215611f7257600080fd5b863567ffffffffffffffff80821115611f8a57600080fd5b611f968a838b01611f0d565b90985096506020890135915080821115611faf57600080fd5b611fbb8a838b01611f0d565b90965094506040890135915080821115611fd457600080fd5b50611fe189828a01611f0d565b979a9699509497509295939492505050565b634e487b7160e01b600052604160045260246000fd5b604051601f8201601f1916810167ffffffffffffffff8111828210171561203257612032611ff3565b604052919050565b6000806040838503121561204d57600080fd5b823561205881611eaf565b915060208381013567ffffffffffffffff8082111561207657600080fd5b818601915086601f83011261208a57600080fd5b81358181111561209c5761209c611ff3565b6120ae601f8201601f19168501612009565b915080825287848285010111156120c457600080fd5b80848401858401376000848284010152508093505050509250929050565b8015158114610b8557600080fd5b600080600080600060a0868803121561210857600080fd5b85359450602086013561211a816120e2565b9350604086013561212a816120e2565b9250606086013561213a816120e2565b949793965091946080013592915050565b60006020828403121561215d57600080fd5b8151611e7e816120e2565b634e487b7160e01b600052603260045260246000fd5b60006020828403121561219057600080fd5b5051919050565b634e487b7160e01b600052601160045260246000fd5b8082028115828204841417611e5f57611e5f612197565b6000602082840312156121d657600080fd5b8151611e7e81611eaf565b81810381811115611e5f57611e5f612197565b60006001820161220657612206612197565b5060010190565b6020808252602c908201527f46756e6374696f6e206d7573742062652063616c6c6564207468726f7567682060408201526b19195b1959d85d1958d85b1b60a21b606082015260800190565b6020808252602c908201527f46756e6374696f6e206d7573742062652063616c6c6564207468726f7567682060408201526b6163746976652070726f787960a01b606082015260800190565b80820180821115611e5f57611e5f612197565b600060a082018783526020878185015260a0604085015281875180845260c086019150828901935060005b818110156123085784516001600160a01b0316835293830193918301916001016122e3565b50506001600160a01b03969096166060850152505050608001529392505050565b6000602080838503121561233c57600080fd5b825167ffffffffffffffff8082111561235457600080fd5b818501915085601f83011261236857600080fd5b81518181111561237a5761237a611ff3565b8060051b915061238b848301612009565b81815291830184019184810190888411156123a557600080fd5b938501935b838510156123c3578451825293850193908501906123aa565b98975050505050505050565b6020808252602b908201527f496e697469616c697a61626c653a20636f6e7472616374206973206e6f74206960408201526a6e697469616c697a696e6760a81b606082015260800190565b60005b8381101561243557818101518382015260200161241d565b50506000910152565b6000825161245081846020870161241a565b9190910192915050565b602081526000825180602084015261247981604085016020870161241a565b601f01601f1916919091016040019291505056fe360894a13ba1a3210667c828492db98dca3e2076cc3735a920a3ca505d382bbc416464726573733a206c6f772d6c6576656c2064656c65676174652063616c6c206661696c6564a2646970667358221220028fd53bf7d146d8b12e198a96b73b480ac7b3a6913017ad75c265ee84d8f5f164736f6c63430008110033",
  "linkReferences": {},
  "deployedLinkReferences": {}
}