{
  "_format": "hh-sol-artifact-1",
  "contractName": "PresaleUpgradeable",
  "sourceName": "contracts/PresaleUpgradeable.sol",
  "abi": [
    {
      "anonymous": false,
      "inputs": [
        {
          "indexed": false,
          "internalType": "address",
          "name": "previousAdmin",
          "type": "address"
        },
        {
          "indexed": false,
          "internalType": "address",
          "name": "newAdmin",
          "type": "address"
        }
      ],
      "name": "AdminChanged",
      "type": "event"
    },
    {
      "anonymous": false,
      "inputs": [
        {
          "indexed": true,
          "internalType": "address",
          "name": "beacon",
          "type": "address"
        }
      ],
      "name": "BeaconUpgraded",
      "type": "event"
    },
    {
      "anonymous": false,
      "inputs": [
        {
          "indexed": false,
          "internalType": "uint8",
          "name": "version",
          "type": "uint8"
        }
      ],
      "name": "Initialized",
      "type": "event"
    },
    {
      "anonymous": false,
      "inputs": [
        {
          "indexed": true,
          "internalType": "address",
          "name": "previousOwner",
          "type": "address"
        },
        {
          "indexed": true,
          "internalType": "address",
          "name": "newOwner",
          "type": "address"
        }
      ],
      "name": "OwnershipTransferred",
      "type": "event"
    },
    {
      "anonymous": false,
      "inputs": [
        {
          "indexed": false,
          "internalType": "address",
          "name": "account",
          "type": "address"
        }
      ],
      "name": "Paused",
      "type": "event"
    },
    {
      "anonymous": false,
      "inputs": [
        {
          "indexed": true,
          "internalType": "address",
          "name": "to",
          "type": "address"
        },
        {
          "indexed": true,
          "internalType": "uint256",
          "name": "tokenValue",
          "type": "uint256"
        },
        {
          "indexed": true,
          "internalType": "address",
          "name": "rewardTokenContract",
          "type": "address"
        }
      ],
      "name": "RewardTokenDistributed",
      "type": "event"
    },
    {
      "anonymous": false,
      "inputs": [
        {
          "indexed": true,
          "internalType": "address",
          "name": "from",
          "type": "address"
        },
        {
          "indexed": true,
          "internalType": "uint256",
          "name": "tokenValue",
          "type": "uint256"
        },
        {
          "indexed": true,
          "internalType": "uint256",
          "name": "ethValue",
          "type": "uint256"
        },
        {
          "indexed": false,
          "internalType": "string",
          "name": "currency",
          "type": "string"
        }
      ],
      "name": "TokenPurchased",
      "type": "event"
    },
    {
      "anonymous": false,
      "inputs": [
        {
          "indexed": false,
          "internalType": "address",
          "name": "account",
          "type": "address"
        }
      ],
      "name": "Unpaused",
      "type": "event"
    },
    {
      "anonymous": false,
      "inputs": [
        {
          "indexed": true,
          "internalType": "address",
          "name": "implementation",
          "type": "address"
        }
      ],
      "name": "Upgraded",
      "type": "event"
    },
    {
      "inputs": [
        {
          "internalType": "uint256",
          "name": "_valueInWei",
          "type": "uint256"
        }
      ],
      "name": "BuyWithANUSD",
      "outputs": [],
      "stateMutability": "nonpayable",
      "type": "function"
    },
    {
      "inputs": [],
      "name": "getAnalystics",
      "outputs": [
        {
          "internalType": "uint256",
          "name": "tokenSold",
          "type": "uint256"
        },
        {
          "internalType": "uint256",
          "name": "ausdRaised",
          "type": "uint256"
        }
      ],
      "stateMutability": "view",
      "type": "function"
    },
    {
      "inputs": [],
      "name": "getCapping",
      "outputs": [
        {
          "internalType": "uint256",
          "name": "minConUSD",
          "type": "uint256"
        },
        {
          "internalType": "bool",
          "name": "isBuyStakeEnabled",
          "type": "bool"
        },
        {
          "internalType": "bool",
          "name": "isPayReferralEnabled",
          "type": "bool"
        },
        {
          "internalType": "bool",
          "name": "isPayRewardTokenEnabled",
          "type": "bool"
        }
      ],
      "stateMutability": "view",
      "type": "function"
    },
    {
      "inputs": [],
      "name": "getVariablesContract",
      "outputs": [
        {
          "internalType": "address",
          "name": "",
          "type": "address"
        }
      ],
      "stateMutability": "view",
      "type": "function"
    },
    {
      "inputs": [],
      "name": "initialize",
      "outputs": [],
      "stateMutability": "nonpayable",
      "type": "function"
    },
    {
      "inputs": [],
      "name": "owner",
      "outputs": [
        {
          "internalType": "address",
          "name": "",
          "type": "address"
        }
      ],
      "stateMutability": "view",
      "type": "function"
    },
    {
      "inputs": [],
      "name": "pauseAdmin",
      "outputs": [],
      "stateMutability": "nonpayable",
      "type": "function"
    },
    {
      "inputs": [],
      "name": "paused",
      "outputs": [
        {
          "internalType": "bool",
          "name": "",
          "type": "bool"
        }
      ],
      "stateMutability": "view",
      "type": "function"
    },
    {
      "inputs": [],
      "name": "proxiableUUID",
      "outputs": [
        {
          "internalType": "bytes32",
          "name": "",
          "type": "bytes32"
        }
      ],
      "stateMutability": "view",
      "type": "function"
    },
    {
      "inputs": [],
      "name": "renounceOwnership",
      "outputs": [],
      "stateMutability": "nonpayable",
      "type": "function"
    },
    {
      "inputs": [
        {
          "internalType": "uint256",
          "name": "minConUSD",
          "type": "uint256"
        },
        {
          "internalType": "bool",
          "name": "isBuyNStake",
          "type": "bool"
        },
        {
          "internalType": "bool",
          "name": "isPayReferral",
          "type": "bool"
        },
        {
          "internalType": "bool",
          "name": "isPayRewardTokens",
          "type": "bool"
        }
      ],
      "name": "setCapping",
      "outputs": [],
      "stateMutability": "nonpayable",
      "type": "function"
    },
    {
      "inputs": [
        {
          "internalType": "address",
          "name": "_contractAddress",
          "type": "address"
        }
      ],
      "name": "setVariablesContract",
      "outputs": [],
      "stateMutability": "nonpayable",
      "type": "function"
    },
    {
      "inputs": [
        {
          "internalType": "address",
          "name": "_address",
          "type": "address"
        },
        {
          "internalType": "uint256",
          "name": "_value",
          "type": "uint256"
        }
      ],
      "name": "transferETH",
      "outputs": [],
      "stateMutability": "nonpayable",
      "type": "function"
    },
    {
      "inputs": [
        {
          "internalType": "address",
          "name": "newOwner",
          "type": "address"
        }
      ],
      "name": "transferOwnership",
      "outputs": [],
      "stateMutability": "nonpayable",
      "type": "function"
    },
    {
      "inputs": [],
      "name": "unpauseAdmin",
      "outputs": [],
      "stateMutability": "nonpayable",
      "type": "function"
    },
    {
      "inputs": [
        {
          "internalType": "address",
          "name": "newImplementation",
          "type": "address"
        }
      ],
      "name": "upgradeTo",
      "outputs": [],
      "stateMutability": "nonpayable",
      "type": "function"
    },
    {
      "inputs": [
        {
          "internalType": "address",
          "name": "newImplementation",
          "type": "address"
        },
        {
          "internalType": "bytes",
          "name": "data",
          "type": "bytes"
        }
      ],
      "name": "upgradeToAndCall",
      "outputs": [],
      "stateMutability": "payable",
      "type": "function"
    },
    {
      "inputs": [],
      "name": "withdrawETH",
      "outputs": [],
      "stateMutability": "nonpayable",
      "type": "function"
    },
    {
      "inputs": [
        {
          "internalType": "address",
          "name": "_tokenAddress",
          "type": "address"
        },
        {
          "internalType": "uint256",
          "name": "_value",
          "type": "uint256"
        }
      ],
      "name": "withdrawTokens",
      "outputs": [],
      "stateMutability": "nonpayable",
      "type": "function"
    },
    {
      "stateMutability": "payable",
      "type": "receive"
    }
  ],
  "bytecode": "0x60a06040523060805234801561001457600080fd5b50608051611bb361004c600039600081816104520152818161049b0152818161053a0152818161057a015261060d0152611bb36000f3fe6080604052600436106101185760003560e01c8063761537bf116100a0578063de863da311610064578063de863da3146102d2578063e086e5ec1461031b578063f13a143f14610330578063f2fde38b1461034e578063fea7b48a1461036e57600080fd5b8063761537bf146102365780637b1a4909146102565780638129fc1c146102765780638da5cb5b1461028b578063db5184e6146102bd57600080fd5b80634f0371d7116100e75780634f0371d71461019b5780634f1ef286146101c857806352d1902d146101db5780635c975abb146101fe578063715018a61461022157600080fd5b806306b091f9146101245780630ba0dba3146101465780632f11d653146101665780633659cfe61461017b57600080fd5b3661011f57005b600080fd5b34801561013057600080fd5b5061014461013f366004611672565b61038e565b005b34801561015257600080fd5b5061014461016136600461169e565b61040c565b34801561017257600080fd5b50610144610436565b34801561018757600080fd5b5061014461019636600461169e565b610448565b3480156101a757600080fd5b5060fe5460ff54604080519283526020830191909152015b60405180910390f35b6101446101d6366004611702565b610530565b3480156101e757600080fd5b506101f0610600565b6040519081526020016101bf565b34801561020a57600080fd5b5060655460ff1660405190151581526020016101bf565b34801561022d57600080fd5b506101446106b3565b34801561024257600080fd5b506101446102513660046117aa565b6106c5565b34801561026257600080fd5b50610144610271366004611672565b610bc4565b34801561028257600080fd5b50610144610c02565b34801561029757600080fd5b506033546001600160a01b03165b6040516001600160a01b0390911681526020016101bf565b3480156102c957600080fd5b50610144610d6d565b3480156102de57600080fd5b5060fd5461010080546040805193845260ff80831615156020860152928204831615159084015262010000900416151560608201526080016101bf565b34801561032757600080fd5b50610144610d7d565b34801561033c57600080fd5b5060fb546001600160a01b03166102a5565b34801561035a57600080fd5b5061014461036936600461169e565b610db1565b34801561037a57600080fd5b506101446103893660046117d1565b610e27565b610396610e6a565b60405163a9059cbb60e01b8152336004820152602481018290526001600160a01b0383169063a9059cbb906044016020604051808303816000875af11580156103e3573d6000803e3d6000fd5b505050506040513d601f19601f820116820180604052508101906104079190611824565b505050565b610414610e6a565b60fb80546001600160a01b0319166001600160a01b0392909216919091179055565b61043e610e6a565b610446610ec4565b565b6001600160a01b037f00000000000000000000000000000000000000000000000000000000000000001630036104995760405162461bcd60e51b815260040161049090611841565b60405180910390fd5b7f00000000000000000000000000000000000000000000000000000000000000006001600160a01b03166104e2600080516020611b37833981519152546001600160a01b031690565b6001600160a01b0316146105085760405162461bcd60e51b81526004016104909061188d565b61051181610f1e565b6040805160008082526020820190925261052d91839190610f26565b50565b6001600160a01b037f00000000000000000000000000000000000000000000000000000000000000001630036105785760405162461bcd60e51b815260040161049090611841565b7f00000000000000000000000000000000000000000000000000000000000000006001600160a01b03166105c1600080516020611b37833981519152546001600160a01b031690565b6001600160a01b0316146105e75760405162461bcd60e51b81526004016104909061188d565b6105f082610f1e565b6105fc82826001610f26565b5050565b6000306001600160a01b037f000000000000000000000000000000000000000000000000000000000000000016146106a05760405162461bcd60e51b815260206004820152603860248201527f555550535570677261646561626c653a206d757374206e6f742062652063616c60448201527f6c6564207468726f7567682064656c656761746563616c6c00000000000000006064820152608401610490565b50600080516020611b3783398151915290565b6106bb610e6a565b6104466000611091565b6106cd6110e3565b60fb5460fd54339183916001600160a01b039091169082101561073e5760405162461bcd60e51b815260206004820152602360248201527f415553442076616c7565206c657373207468656e206d696e206275792076616c6044820152623ab29760e91b6064820152608401610490565b806001600160a01b031663b70cc4c16040518163ffffffff1660e01b8152600401602060405180830381865afa15801561077c573d6000803e3d6000fd5b505050506040513d601f19601f820116820180604052508101906107a091906118d9565b6040516323b872dd60e01b81526001600160a01b0385811660048301523060248301526044820185905291909116906323b872dd906064016020604051808303816000875af11580156107f7573d6000803e3d6000fd5b505050506040513d601f19601f8201168201806040525081019061081b9190611824565b5060006109b8826001600160a01b031663b70cc4c16040518163ffffffff1660e01b8152600401602060405180830381865afa15801561085f573d6000803e3d6000fd5b505050506040513d601f19601f8201168201806040525081019061088391906118d9565b836001600160a01b0316634bc92d6c6040518163ffffffff1660e01b8152600401602060405180830381865afa1580156108c1573d6000803e3d6000fd5b505050506040513d601f19601f820116820180604052508101906108e591906118f6565b6108ef9086611925565b846001600160a01b03166355a373d66040518163ffffffff1660e01b8152600401602060405180830381865afa15801561092d573d6000803e3d6000fd5b505050506040513d601f19601f8201168201806040525081019061095191906118d9565b856001600160a01b0316638290c4a66040518163ffffffff1660e01b8152600401602060405180830381865afa15801561098f573d6000803e3d6000fd5b505050506040513d601f19601f820116820180604052508101906109b391906118d9565b611129565b6101005490915060ff1615610abb57816001600160a01b031663ee99205c6040518163ffffffff1660e01b8152600401602060405180830381865afa158015610a05573d6000803e3d6000fd5b505050506040513d601f19601f82011682018060405250810190610a2991906118d9565b6001600160a01b0316636a50eefa8583600181518110610a4b57610a4b611938565b60200260200101516040518363ffffffff1660e01b8152600401610a849291906001600160a01b03929092168252602082015260400190565b600060405180830381600087803b158015610a9e57600080fd5b505af1158015610ab2573d6000803e3d6000fd5b50505050610bbd565b816001600160a01b03166355a373d66040518163ffffffff1660e01b8152600401602060405180830381865afa158015610af9573d6000803e3d6000fd5b505050506040513d601f19601f82011682018060405250810190610b1d91906118d9565b6001600160a01b031663a9059cbb8583600181518110610b3f57610b3f611938565b60200260200101516040518363ffffffff1660e01b8152600401610b789291906001600160a01b03929092168252602082015260400190565b6020604051808303816000875af1158015610b97573d6000803e3d6000fd5b505050506040513d601f19601f82011682018060405250810190610bbb9190611824565b505b5050505050565b610bcc610e6a565b6040516001600160a01b0383169082156108fc029083906000818181858888f19350505050158015610407573d6000803e3d6000fd5b600054610100900460ff1615808015610c225750600054600160ff909116105b80610c3c5750303b158015610c3c575060005460ff166001145b610c9f5760405162461bcd60e51b815260206004820152602e60248201527f496e697469616c697a61626c653a20636f6e747261637420697320616c72656160448201526d191e481a5b9a5d1a585b1a5e995960921b6064820152608401610490565b6000805460ff191660011790558015610cc2576000805461ff0019166101001790555b60fb80546001600160a01b03191673be5153baa3756402b08fd830e7b5f00a76e6823117905566038d7ea4c6800060fc556801158e460913d0000060fd55610100805462ffffff19169055610d156112ac565b610d1d6112db565b610d2561130a565b801561052d576000805461ff0019169055604051600181527f7f26b83ff96e1f2b6a682f133852f6798a09c465da95921460cefb38474024989060200160405180910390a150565b610d75610e6a565b610446611331565b610d85610e6a565b60405133904780156108fc02916000818181858888f1935050505015801561052d573d6000803e3d6000fd5b610db9610e6a565b6001600160a01b038116610e1e5760405162461bcd60e51b815260206004820152602660248201527f4f776e61626c653a206e6577206f776e657220697320746865207a65726f206160448201526564647265737360d01b6064820152608401610490565b61052d81611091565b610e2f610e6a565b60fd93909355610100805461ffff191692151561ff0019169290921790151582021762ff000019166201000092151592909202919091179055565b6033546001600160a01b031633146104465760405162461bcd60e51b815260206004820181905260248201527f4f776e61626c653a2063616c6c6572206973206e6f7420746865206f776e65726044820152606401610490565b610ecc6110e3565b6065805460ff191660011790557f62e78cea01bee320cd4e420270b5ea74000d11b0c9f74754ebdbfc544b05a258610f013390565b6040516001600160a01b03909116815260200160405180910390a1565b61052d610e6a565b7f4910fdfa16fed3260ed0e7147f7cc6da11a60208b5b9406d12a635614ffd91435460ff1615610f59576104078361136a565b826001600160a01b03166352d1902d6040518163ffffffff1660e01b8152600401602060405180830381865afa925050508015610fb3575060408051601f3d908101601f19168201909252610fb0918101906118f6565b60015b6110165760405162461bcd60e51b815260206004820152602e60248201527f45524331393637557067726164653a206e657720696d706c656d656e7461746960448201526d6f6e206973206e6f74205555505360901b6064820152608401610490565b600080516020611b3783398151915281146110855760405162461bcd60e51b815260206004820152602960248201527f45524331393637557067726164653a20756e737570706f727465642070726f786044820152681a58589b195555525160ba1b6064820152608401610490565b50610407838383611406565b603380546001600160a01b038381166001600160a01b0319831681179093556040519116919082907f8be0079c531659141344cd1fd0a4f28419497f9722a3daafe3b4186f6b6457e090600090a35050565b60655460ff16156104465760405162461bcd60e51b815260206004820152601060248201526f14185d5cd8589b194e881c185d5cd95960821b6044820152606401610490565b60408051600280825260608083018452926000929190602083019080368337019050509050858160008151811061116257611162611938565b60200260200101906001600160a01b031690816001600160a01b031681525050838160018151811061119657611196611938565b6001600160a01b03928316602091820292909201015260405163095ea7b360e01b81528482166004820152602481018790529087169063095ea7b3906044016020604051808303816000875af11580156111f4573d6000803e3d6000fd5b505050506040513d601f19601f820116820180604052508101906112189190611824565b5060006001600160a01b0384166338ed1739876001853061123a42606461194e565b6040518663ffffffff1660e01b815260040161125a959493929190611961565b6000604051808303816000875af1158015611279573d6000803e3d6000fd5b505050506040513d6000823e601f3d908101601f191682016040526112a191908101906119d2565b979650505050505050565b600054610100900460ff166112d35760405162461bcd60e51b815260040161049090611a78565b610446611431565b600054610100900460ff166113025760405162461bcd60e51b815260040161049090611a78565b610446611464565b600054610100900460ff166104465760405162461bcd60e51b815260040161049090611a78565b611339611494565b6065805460ff191690557f5db9ee0a495bf2e6ff9c91a7834c1ba4fdd244a5e8aa4e537bd38aeae4b073aa33610f01565b6001600160a01b0381163b6113d75760405162461bcd60e51b815260206004820152602d60248201527f455243313936373a206e657720696d706c656d656e746174696f6e206973206e60448201526c1bdd08184818dbdb9d1c9858dd609a1b6064820152608401610490565b600080516020611b3783398151915280546001600160a01b0319166001600160a01b0392909216919091179055565b61140f836114dd565b60008251118061141c5750805b156104075761142b838361151d565b50505050565b600054610100900460ff166114585760405162461bcd60e51b815260040161049090611a78565b6065805460ff19169055565b600054610100900460ff1661148b5760405162461bcd60e51b815260040161049090611a78565b61044633611091565b60655460ff166104465760405162461bcd60e51b815260206004820152601460248201527314185d5cd8589b194e881b9bdd081c185d5cd95960621b6044820152606401610490565b6114e68161136a565b6040516001600160a01b038216907fbc7cd75a20ee27fd9adebab32041f755214dbc6bffa90cc0225b39da2e5c2d3b90600090a250565b60606001600160a01b0383163b6115855760405162461bcd60e51b815260206004820152602660248201527f416464726573733a2064656c65676174652063616c6c20746f206e6f6e2d636f6044820152651b9d1c9858dd60d21b6064820152608401610490565b600080846001600160a01b0316846040516115a09190611ae7565b600060405180830381855af49150503d80600081146115db576040519150601f19603f3d011682016040523d82523d6000602084013e6115e0565b606091505b50915091506116088282604051806060016040528060278152602001611b5760279139611613565b925050505b92915050565b6060831561162257508161162c565b61162c8383611633565b9392505050565b8151156116435781518083602001fd5b8060405162461bcd60e51b81526004016104909190611b03565b6001600160a01b038116811461052d57600080fd5b6000806040838503121561168557600080fd5b82356116908161165d565b946020939093013593505050565b6000602082840312156116b057600080fd5b813561162c8161165d565b634e487b7160e01b600052604160045260246000fd5b604051601f8201601f1916810167ffffffffffffffff811182821017156116fa576116fa6116bb565b604052919050565b6000806040838503121561171557600080fd5b82356117208161165d565b915060208381013567ffffffffffffffff8082111561173e57600080fd5b818601915086601f83011261175257600080fd5b813581811115611764576117646116bb565b611776601f8201601f191685016116d1565b9150808252878482850101111561178c57600080fd5b80848401858401376000848284010152508093505050509250929050565b6000602082840312156117bc57600080fd5b5035919050565b801515811461052d57600080fd5b600080600080608085870312156117e757600080fd5b8435935060208501356117f9816117c3565b92506040850135611809816117c3565b91506060850135611819816117c3565b939692955090935050565b60006020828403121561183657600080fd5b815161162c816117c3565b6020808252602c908201527f46756e6374696f6e206d7573742062652063616c6c6564207468726f7567682060408201526b19195b1959d85d1958d85b1b60a21b606082015260800190565b6020808252602c908201527f46756e6374696f6e206d7573742062652063616c6c6564207468726f7567682060408201526b6163746976652070726f787960a01b606082015260800190565b6000602082840312156118eb57600080fd5b815161162c8161165d565b60006020828403121561190857600080fd5b5051919050565b634e487b7160e01b600052601160045260246000fd5b8181038181111561160d5761160d61190f565b634e487b7160e01b600052603260045260246000fd5b8082018082111561160d5761160d61190f565b600060a082018783526020878185015260a0604085015281875180845260c086019150828901935060005b818110156119b15784516001600160a01b03168352938301939183019160010161198c565b50506001600160a01b03969096166060850152505050608001529392505050565b600060208083850312156119e557600080fd5b825167ffffffffffffffff808211156119fd57600080fd5b818501915085601f830112611a1157600080fd5b815181811115611a2357611a236116bb565b8060051b9150611a348483016116d1565b8181529183018401918481019088841115611a4e57600080fd5b938501935b83851015611a6c57845182529385019390850190611a53565b98975050505050505050565b6020808252602b908201527f496e697469616c697a61626c653a20636f6e7472616374206973206e6f74206960408201526a6e697469616c697a696e6760a81b606082015260800190565b60005b83811015611ade578181015183820152602001611ac6565b50506000910152565b60008251611af9818460208701611ac3565b9190910192915050565b6020815260008251806020840152611b22816040850160208701611ac3565b601f01601f1916919091016040019291505056fe360894a13ba1a3210667c828492db98dca3e2076cc3735a920a3ca505d382bbc416464726573733a206c6f772d6c6576656c2064656c65676174652063616c6c206661696c6564a264697066735822122057dade6992489d000773ee703961164b752583941285eb8a1c12ad25c33d523c64736f6c63430008110033",
  "linkReferences": {},
  "deployedLinkReferences": {}
}