{
  "_format": "hh-sol-artifact-1",
  "contractName": "PresaleUpgradeable",
  "sourceName": "contracts/PresaleUpgradeable.sol",
  "abi": [
    {
      "anonymous": false,
      "inputs": [
        {
          "indexed": false,
          "internalType": "address",
          "name": "previousAdmin",
          "type": "address"
        },
        {
          "indexed": false,
          "internalType": "address",
          "name": "newAdmin",
          "type": "address"
        }
      ],
      "name": "AdminChanged",
      "type": "event"
    },
    {
      "anonymous": false,
      "inputs": [
        {
          "indexed": true,
          "internalType": "address",
          "name": "beacon",
          "type": "address"
        }
      ],
      "name": "BeaconUpgraded",
      "type": "event"
    },
    {
      "anonymous": false,
      "inputs": [
        {
          "indexed": false,
          "internalType": "uint8",
          "name": "version",
          "type": "uint8"
        }
      ],
      "name": "Initialized",
      "type": "event"
    },
    {
      "anonymous": false,
      "inputs": [
        {
          "indexed": true,
          "internalType": "address",
          "name": "previousOwner",
          "type": "address"
        },
        {
          "indexed": true,
          "internalType": "address",
          "name": "newOwner",
          "type": "address"
        }
      ],
      "name": "OwnershipTransferred",
      "type": "event"
    },
    {
      "anonymous": false,
      "inputs": [
        {
          "indexed": false,
          "internalType": "address",
          "name": "account",
          "type": "address"
        }
      ],
      "name": "Paused",
      "type": "event"
    },
    {
      "anonymous": false,
      "inputs": [
        {
          "indexed": false,
          "internalType": "uint256",
          "name": "amount",
          "type": "uint256"
        }
      ],
      "name": "RegistrationFees",
      "type": "event"
    },
    {
      "anonymous": false,
      "inputs": [
        {
          "indexed": true,
          "internalType": "address",
          "name": "to",
          "type": "address"
        },
        {
          "indexed": true,
          "internalType": "uint256",
          "name": "tokenValue",
          "type": "uint256"
        },
        {
          "indexed": true,
          "internalType": "address",
          "name": "rewardTokenContract",
          "type": "address"
        }
      ],
      "name": "RewardTokenDistributed",
      "type": "event"
    },
    {
      "anonymous": false,
      "inputs": [
        {
          "indexed": true,
          "internalType": "address",
          "name": "from",
          "type": "address"
        },
        {
          "indexed": true,
          "internalType": "uint256",
          "name": "tokenValue",
          "type": "uint256"
        },
        {
          "indexed": true,
          "internalType": "uint256",
          "name": "ethValue",
          "type": "uint256"
        },
        {
          "indexed": false,
          "internalType": "string",
          "name": "currency",
          "type": "string"
        }
      ],
      "name": "TokenPurchased",
      "type": "event"
    },
    {
      "anonymous": false,
      "inputs": [
        {
          "indexed": false,
          "internalType": "address",
          "name": "account",
          "type": "address"
        }
      ],
      "name": "Unpaused",
      "type": "event"
    },
    {
      "anonymous": false,
      "inputs": [
        {
          "indexed": true,
          "internalType": "address",
          "name": "implementation",
          "type": "address"
        }
      ],
      "name": "Upgraded",
      "type": "event"
    },
    {
      "inputs": [
        {
          "internalType": "address",
          "name": "_referrerAddress",
          "type": "address"
        },
        {
          "internalType": "address",
          "name": "_userAddress",
          "type": "address"
        },
        {
          "internalType": "uint256",
          "name": "_valueInWei",
          "type": "uint256"
        },
        {
          "internalType": "address",
          "name": "_tokenAddress",
          "type": "address"
        }
      ],
      "name": "BuyWithANUSD",
      "outputs": [],
      "stateMutability": "nonpayable",
      "type": "function"
    },
    {
      "inputs": [
        {
          "internalType": "address[]",
          "name": "_referrerAddress",
          "type": "address[]"
        },
        {
          "internalType": "address[]",
          "name": "_userAddress",
          "type": "address[]"
        },
        {
          "internalType": "uint256[]",
          "name": "_valueInUSDDecimals",
          "type": "uint256[]"
        },
        {
          "internalType": "address",
          "name": "_tokenAddress",
          "type": "address"
        }
      ],
      "name": "BuyWithANUSDAdmin",
      "outputs": [],
      "stateMutability": "nonpayable",
      "type": "function"
    },
    {
      "inputs": [
        {
          "internalType": "uint256",
          "name": "",
          "type": "uint256"
        }
      ],
      "name": "admins",
      "outputs": [
        {
          "internalType": "address",
          "name": "",
          "type": "address"
        }
      ],
      "stateMutability": "view",
      "type": "function"
    },
    {
      "inputs": [],
      "name": "getAnalystics",
      "outputs": [
        {
          "internalType": "uint256",
          "name": "tokenSold",
          "type": "uint256"
        },
        {
          "internalType": "uint256",
          "name": "ausdRaised",
          "type": "uint256"
        }
      ],
      "stateMutability": "view",
      "type": "function"
    },
    {
      "inputs": [],
      "name": "getCapping",
      "outputs": [
        {
          "internalType": "uint256",
          "name": "minConUSD",
          "type": "uint256"
        },
        {
          "internalType": "bool",
          "name": "isBuyStakeEnabled",
          "type": "bool"
        },
        {
          "internalType": "bool",
          "name": "isPayReferralEnabled",
          "type": "bool"
        },
        {
          "internalType": "bool",
          "name": "isPayRewardTokenEnabled",
          "type": "bool"
        },
        {
          "internalType": "uint256",
          "name": "maxBuyLimitANUSD",
          "type": "uint256"
        }
      ],
      "stateMutability": "view",
      "type": "function"
    },
    {
      "inputs": [],
      "name": "getVariablesContract",
      "outputs": [
        {
          "internalType": "address",
          "name": "",
          "type": "address"
        }
      ],
      "stateMutability": "view",
      "type": "function"
    },
    {
      "inputs": [],
      "name": "initialize",
      "outputs": [],
      "stateMutability": "nonpayable",
      "type": "function"
    },
    {
      "inputs": [],
      "name": "owner",
      "outputs": [
        {
          "internalType": "address",
          "name": "",
          "type": "address"
        }
      ],
      "stateMutability": "view",
      "type": "function"
    },
    {
      "inputs": [],
      "name": "pauseAdmin",
      "outputs": [],
      "stateMutability": "nonpayable",
      "type": "function"
    },
    {
      "inputs": [],
      "name": "paused",
      "outputs": [
        {
          "internalType": "bool",
          "name": "",
          "type": "bool"
        }
      ],
      "stateMutability": "view",
      "type": "function"
    },
    {
      "inputs": [],
      "name": "proxiableUUID",
      "outputs": [
        {
          "internalType": "bytes32",
          "name": "",
          "type": "bytes32"
        }
      ],
      "stateMutability": "view",
      "type": "function"
    },
    {
      "inputs": [],
      "name": "renounceOwnership",
      "outputs": [],
      "stateMutability": "nonpayable",
      "type": "function"
    },
    {
      "inputs": [
        {
          "internalType": "uint256",
          "name": "minConUSD",
          "type": "uint256"
        },
        {
          "internalType": "bool",
          "name": "isBuyNStake",
          "type": "bool"
        },
        {
          "internalType": "bool",
          "name": "isPayReferral",
          "type": "bool"
        },
        {
          "internalType": "bool",
          "name": "isPayRewardTokens",
          "type": "bool"
        },
        {
          "internalType": "uint256",
          "name": "maxBuyLimitANUSD",
          "type": "uint256"
        }
      ],
      "name": "setCapping",
      "outputs": [],
      "stateMutability": "nonpayable",
      "type": "function"
    },
    {
      "inputs": [
        {
          "internalType": "address",
          "name": "_contractAddress",
          "type": "address"
        }
      ],
      "name": "setVariablesContract",
      "outputs": [],
      "stateMutability": "nonpayable",
      "type": "function"
    },
    {
      "inputs": [
        {
          "internalType": "address",
          "name": "_address",
          "type": "address"
        },
        {
          "internalType": "uint256",
          "name": "_value",
          "type": "uint256"
        }
      ],
      "name": "transferETH",
      "outputs": [],
      "stateMutability": "nonpayable",
      "type": "function"
    },
    {
      "inputs": [
        {
          "internalType": "address",
          "name": "newOwner",
          "type": "address"
        }
      ],
      "name": "transferOwnership",
      "outputs": [],
      "stateMutability": "nonpayable",
      "type": "function"
    },
    {
      "inputs": [],
      "name": "unpauseAdmin",
      "outputs": [],
      "stateMutability": "nonpayable",
      "type": "function"
    },
    {
      "inputs": [
        {
          "internalType": "address",
          "name": "newImplementation",
          "type": "address"
        }
      ],
      "name": "upgradeTo",
      "outputs": [],
      "stateMutability": "nonpayable",
      "type": "function"
    },
    {
      "inputs": [
        {
          "internalType": "address",
          "name": "newImplementation",
          "type": "address"
        },
        {
          "internalType": "bytes",
          "name": "data",
          "type": "bytes"
        }
      ],
      "name": "upgradeToAndCall",
      "outputs": [],
      "stateMutability": "payable",
      "type": "function"
    },
    {
      "inputs": [],
      "name": "withdrawETH",
      "outputs": [],
      "stateMutability": "nonpayable",
      "type": "function"
    },
    {
      "inputs": [
        {
          "internalType": "address",
          "name": "_tokenAddress",
          "type": "address"
        },
        {
          "internalType": "uint256",
          "name": "_value",
          "type": "uint256"
        }
      ],
      "name": "withdrawTokens",
      "outputs": [],
      "stateMutability": "nonpayable",
      "type": "function"
    },
    {
      "stateMutability": "payable",
      "type": "receive"
    }
  ],
  "bytecode": "0x60a06040523060805234801561001457600080fd5b5060805161240361004c600039600081816104e30152818161052c0152818161067b015281816106bb015261074e01526124036000f3fe60806040526004361061012e5760003560e01c80636740090a116100ab578063bb042d8c1161006f578063bb042d8c14610317578063db5184e614610337578063de863da31461034c578063e086e5ec146103a1578063f13a143f146103b6578063f2fde38b146103d457600080fd5b80636740090a1461028f578063715018a6146102af5780637b1a4909146102c45780638129fc1c146102e45780638da5cb5b146102f957600080fd5b8063497af863116100f2578063497af863146101ee5780634f0371d71461020e5780634f1ef2861461023657806352d1902d146102495780635c975abb1461026c57600080fd5b806306b091f91461013a5780630ba0dba31461015c57806314bfd6d01461017c5780632f11d653146101b95780633659cfe6146101ce57600080fd5b3661013557005b600080fd5b34801561014657600080fd5b5061015a610155366004611c2b565b6103f4565b005b34801561016857600080fd5b5061015a610177366004611c57565b610472565b34801561018857600080fd5b5061019c610197366004611c74565b61049c565b6040516001600160a01b0390911681526020015b60405180910390f35b3480156101c557600080fd5b5061015a6104c7565b3480156101da57600080fd5b5061015a6101e9366004611c57565b6104d9565b3480156101fa57600080fd5b5061015a610209366004611c8d565b6105c1565b34801561021a57600080fd5b5060fe5460ff54604080519283526020830191909152016101b0565b61015a610244366004611d27565b610671565b34801561025557600080fd5b5061025e610741565b6040519081526020016101b0565b34801561027857600080fd5b5060655460ff1660405190151581526020016101b0565b34801561029b57600080fd5b5061015a6102aa366004611ddd565b6107f4565b3480156102bb57600080fd5b5061015a61083b565b3480156102d057600080fd5b5061015a6102df366004611c2b565b61084d565b3480156102f057600080fd5b5061015a61088b565b34801561030557600080fd5b506033546001600160a01b031661019c565b34801561032357600080fd5b5061015a610332366004611e84565b610a09565b34801561034357600080fd5b5061015a610b67565b34801561035857600080fd5b5060fd546101008054610101546040805194855260ff8084161515602087015293830484161515908501526201000090910490911615156060830152608082015260a0016101b0565b3480156103ad57600080fd5b5061015a610b77565b3480156103c257600080fd5b5060fb546001600160a01b031661019c565b3480156103e057600080fd5b5061015a6103ef366004611c57565b610bab565b6103fc610c21565b60405163a9059cbb60e01b8152336004820152602481018290526001600160a01b0383169063a9059cbb906044016020604051808303816000875af1158015610449573d6000803e3d6000fd5b505050506040513d601f19601f8201168201806040525081019061046d9190611f32565b505050565b61047a610c21565b60fb80546001600160a01b0319166001600160a01b0392909216919091179055565b61010281815481106104ad57600080fd5b6000918252602090912001546001600160a01b0316905081565b6104cf610c21565b6104d7610c7b565b565b6001600160a01b037f000000000000000000000000000000000000000000000000000000000000000016300361052a5760405162461bcd60e51b815260040161052190611f4f565b60405180910390fd5b7f00000000000000000000000000000000000000000000000000000000000000006001600160a01b0316610573600080516020612387833981519152546001600160a01b031690565b6001600160a01b0316146105995760405162461bcd60e51b815260040161052190611f9b565b6105a281610cd5565b604080516000808252602082019092526105be91839190610cdd565b50565b6105c9610e48565b336001600160a01b0382166323b872dd82306105e58787610e8e565b6040516001600160e01b031960e086901b1681526001600160a01b03938416600482015292909116602483015260448201526064016020604051808303816000875af1158015610639573d6000803e3d6000fd5b505050506040513d601f19601f8201168201806040525081019061065d9190611f32565b5061066a85858585610f21565b5050505050565b6001600160a01b037f00000000000000000000000000000000000000000000000000000000000000001630036106b95760405162461bcd60e51b815260040161052190611f4f565b7f00000000000000000000000000000000000000000000000000000000000000006001600160a01b0316610702600080516020612387833981519152546001600160a01b031690565b6001600160a01b0316146107285760405162461bcd60e51b815260040161052190611f9b565b61073182610cd5565b61073d82826001610cdd565b5050565b6000306001600160a01b037f000000000000000000000000000000000000000000000000000000000000000016146107e15760405162461bcd60e51b815260206004820152603860248201527f555550535570677261646561626c653a206d757374206e6f742062652063616c60448201527f6c6564207468726f7567682064656c656761746563616c6c00000000000000006064820152608401610521565b5060008051602061238783398151915290565b6107fc610c21565b60fd94909455610100805461ffff191693151561ff0019169390931791151583029190911762ff00001916620100009115159190910217905561010155565b610843610c21565b6104d7600061169c565b610855610c21565b6040516001600160a01b0383169082156108fc029083906000818181858888f1935050505015801561046d573d6000803e3d6000fd5b600054610100900460ff16158080156108ab5750600054600160ff909116105b806108c55750303b1580156108c5575060005460ff166001145b6109285760405162461bcd60e51b815260206004820152602e60248201527f496e697469616c697a61626c653a20636f6e747261637420697320616c72656160448201526d191e481a5b9a5d1a585b1a5e995960921b6064820152608401610521565b6000805460ff19166001179055801561094b576000805461ff0019166101001790555b60fb80546001600160a01b0319167377daafc7411c911b869c71bf70fe36cce507845d17905566038d7ea4c6800060fc556801158e460913d0000060fd55610100805462ffffff1916610101908117909155681ba5abf9e77938000090556109b16116ee565b6109b961171d565b6109c161174c565b80156105be576000805461ff0019169055604051600181527f7f26b83ff96e1f2b6a682f133852f6798a09c465da95921460cefb38474024989060200160405180910390a150565b60fb54604051630935e01b60e21b81523360048201526001600160a01b03909116906324d7806c90602401602060405180830381865afa158015610a51573d6000803e3d6000fd5b505050506040513d601f19601f82011682018060405250810190610a759190611f32565b610ab55760405162461bcd60e51b81526020600482015260116024820152702cb7ba9030b932903737ba1030b236b4b760791b6044820152606401610521565b8360005b81811015610b5c576000858583818110610ad557610ad5611fe7565b90506020020135670de0b6b3a7640000610aef9190612013565b9050610b498a8a84818110610b0657610b06611fe7565b9050602002016020810190610b1b9190611c57565b898985818110610b2d57610b2d611fe7565b9050602002016020810190610b429190611c57565b8387610f21565b5080610b548161202a565b915050610ab9565b505050505050505050565b610b6f610c21565b6104d7611773565b610b7f610c21565b60405133904780156108fc02916000818181858888f193505050501580156105be573d6000803e3d6000fd5b610bb3610c21565b6001600160a01b038116610c185760405162461bcd60e51b815260206004820152602660248201527f4f776e61626c653a206e6577206f776e657220697320746865207a65726f206160448201526564647265737360d01b6064820152608401610521565b6105be8161169c565b6033546001600160a01b031633146104d75760405162461bcd60e51b815260206004820181905260248201527f4f776e61626c653a2063616c6c6572206973206e6f7420746865206f776e65726044820152606401610521565b610c83610e48565b6065805460ff191660011790557f62e78cea01bee320cd4e420270b5ea74000d11b0c9f74754ebdbfc544b05a258610cb83390565b6040516001600160a01b03909116815260200160405180910390a1565b6105be610c21565b7f4910fdfa16fed3260ed0e7147f7cc6da11a60208b5b9406d12a635614ffd91435460ff1615610d105761046d836117ac565b826001600160a01b03166352d1902d6040518163ffffffff1660e01b8152600401602060405180830381865afa925050508015610d6a575060408051601f3d908101601f19168201909252610d6791810190612043565b60015b610dcd5760405162461bcd60e51b815260206004820152602e60248201527f45524331393637557067726164653a206e657720696d706c656d656e7461746960448201526d6f6e206973206e6f74205555505360901b6064820152608401610521565b6000805160206123878339815191528114610e3c5760405162461bcd60e51b815260206004820152602960248201527f45524331393637557067726164653a20756e737570706f727465642070726f786044820152681a58589b195555525160ba1b6064820152608401610521565b5061046d838383611848565b60655460ff16156104d75760405162461bcd60e51b815260206004820152601060248201526f14185d5cd8589b194e881c185d5cd95960821b6044820152606401610521565b6000670de0b6b3a7640000826001600160a01b031663313ce5676040518163ffffffff1660e01b8152600401602060405180830381865afa158015610ed7573d6000803e3d6000fd5b505050506040513d601f19601f82011682018060405250810190610efb9190612043565b610f0690600a612140565b610f109085612013565b610f1a919061214c565b9392505050565b60fb54604080516312f24b5b60e21b815290516001600160a01b039092169133916000918491634bc92d6c9160048083019260209291908290030181865afa158015610f71573d6000803e3d6000fd5b505050506040513d601f19601f82011682018060405250810190610f959190612043565b60fd549091508590811015610ff85760405162461bcd60e51b815260206004820152602360248201527f415553442076616c7565206c657373207468656e206d696e206275792076616c6044820152623ab29760e91b6064820152608401610521565b610101548111156110435760405162461bcd60e51b815260206004820152601560248201527413585e08189d5e481b1a5b5a5d081c995858da1959605a1b6044820152606401610521565b836001600160a01b031663b70cc4c16040518163ffffffff1660e01b8152600401602060405180830381865afa158015611081573d6000803e3d6000fd5b505050506040513d601f19601f820116820180604052508101906110a5919061216e565b6001600160a01b0316856001600160a01b031614806111365750836001600160a01b031663611509236040518163ffffffff1660e01b8152600401602060405180830381865afa1580156110fd573d6000803e3d6000fd5b505050506040513d601f19601f82011682018060405250810190611121919061216e565b6001600160a01b0316856001600160a01b0316145b6111975760405162461bcd60e51b815260206004820152602c60248201527f42757957697468414e55534428293a20426173652063757272656e6379206e6f60448201526b3a1039bab83837b93a32b21760a11b6064820152608401610521565b60006112d1856001600160a01b031663b70cc4c16040518163ffffffff1660e01b8152600401602060405180830381865afa1580156111da573d6000803e3d6000fd5b505050506040513d601f19601f820116820180604052508101906111fe919061216e565b611208858561218b565b876001600160a01b03166355a373d66040518163ffffffff1660e01b8152600401602060405180830381865afa158015611246573d6000803e3d6000fd5b505050506040513d601f19601f8201168201806040525081019061126a919061216e565b886001600160a01b0316638290c4a66040518163ffffffff1660e01b8152600401602060405180830381865afa1580156112a8573d6000803e3d6000fd5b505050506040513d601f19601f820116820180604052508101906112cc919061216e565b611873565b6101005490915060ff16156113f557846001600160a01b031663ee99205c6040518163ffffffff1660e01b8152600401602060405180830381865afa15801561131e573d6000803e3d6000fd5b505050506040513d601f19601f82011682018060405250810190611342919061216e565b6001600160a01b031663310c9b20898360018151811061136457611364611fe7565b60200260200101518460008151811061137f5761137f611fe7565b60209081029190910101516040516001600160e01b031960e086901b1681526001600160a01b03909316600484015260248301919091526044820152606401600060405180830381600087803b1580156113d857600080fd5b505af11580156113ec573d6000803e3d6000fd5b505050506114f7565b846001600160a01b03166355a373d66040518163ffffffff1660e01b8152600401602060405180830381865afa158015611433573d6000803e3d6000fd5b505050506040513d601f19601f82011682018060405250810190611457919061216e565b6001600160a01b031663a9059cbb858360018151811061147957611479611fe7565b60200260200101516040518363ffffffff1660e01b81526004016114b29291906001600160a01b03929092168252602082015260400190565b6020604051808303816000875af11580156114d1573d6000803e3d6000fd5b505050506040513d601f19601f820116820180604052508101906114f59190611f32565b505b61010080540460ff16156115fd57846001600160a01b0316637dad19db6040518163ffffffff1660e01b8152600401602060405180830381865afa158015611543573d6000803e3d6000fd5b505050506040513d601f19601f82011682018060405250810190611567919061216e565b6001600160a01b031663228159b48260008151811061158857611588611fe7565b60200260200101518a8c6040518463ffffffff1660e01b81526004016115ca939291909283526001600160a01b03918216602084015216604082015260600190565b600060405180830381600087803b1580156115e457600080fd5b505af11580156115f8573d6000803e3d6000fd5b505050505b7f629a485b55f72b3241f1b41ff1864e029996d1cf7d54ef632b907af140f57430856001600160a01b0316634bc92d6c6040518163ffffffff1660e01b8152600401602060405180830381865afa15801561165c573d6000803e3d6000fd5b505050506040513d601f19601f820116820180604052508101906116809190612043565b60405190815260200160405180910390a1505050505050505050565b603380546001600160a01b038381166001600160a01b0319831681179093556040519116919082907f8be0079c531659141344cd1fd0a4f28419497f9722a3daafe3b4186f6b6457e090600090a35050565b600054610100900460ff166117155760405162461bcd60e51b81526004016105219061219e565b6104d76119f6565b600054610100900460ff166117445760405162461bcd60e51b81526004016105219061219e565b6104d7611a29565b600054610100900460ff166104d75760405162461bcd60e51b81526004016105219061219e565b61177b611a59565b6065805460ff191690557f5db9ee0a495bf2e6ff9c91a7834c1ba4fdd244a5e8aa4e537bd38aeae4b073aa33610cb8565b6001600160a01b0381163b6118195760405162461bcd60e51b815260206004820152602d60248201527f455243313936373a206e657720696d706c656d656e746174696f6e206973206e60448201526c1bdd08184818dbdb9d1c9858dd609a1b6064820152608401610521565b60008051602061238783398151915280546001600160a01b0319166001600160a01b0392909216919091179055565b61185183611aa2565b60008251118061185e5750805b1561046d5761186d8383611ae2565b50505050565b6040805160028082526060808301845292600092919060208301908036833701905050905085816000815181106118ac576118ac611fe7565b60200260200101906001600160a01b031690816001600160a01b03168152505083816001815181106118e0576118e0611fe7565b6001600160a01b03928316602091820292909201015260405163095ea7b360e01b81528482166004820152602481018790529087169063095ea7b3906044016020604051808303816000875af115801561193e573d6000803e3d6000fd5b505050506040513d601f19601f820116820180604052508101906119629190611f32565b5060006001600160a01b0384166338ed173987600185306119844260646121e9565b6040518663ffffffff1660e01b81526004016119a49594939291906121fc565b6000604051808303816000875af11580156119c3573d6000803e3d6000fd5b505050506040513d6000823e601f3d908101601f191682016040526119eb919081019061226d565b979650505050505050565b600054610100900460ff16611a1d5760405162461bcd60e51b81526004016105219061219e565b6065805460ff19169055565b600054610100900460ff16611a505760405162461bcd60e51b81526004016105219061219e565b6104d73361169c565b60655460ff166104d75760405162461bcd60e51b815260206004820152601460248201527314185d5cd8589b194e881b9bdd081c185d5cd95960621b6044820152606401610521565b611aab816117ac565b6040516001600160a01b038216907fbc7cd75a20ee27fd9adebab32041f755214dbc6bffa90cc0225b39da2e5c2d3b90600090a250565b60606001600160a01b0383163b611b4a5760405162461bcd60e51b815260206004820152602660248201527f416464726573733a2064656c65676174652063616c6c20746f206e6f6e2d636f6044820152651b9d1c9858dd60d21b6064820152608401610521565b600080846001600160a01b031684604051611b659190612337565b600060405180830381855af49150503d8060008114611ba0576040519150601f19603f3d011682016040523d82523d6000602084013e611ba5565b606091505b5091509150611bcd82826040518060600160405280602781526020016123a760279139611bd8565b925050505b92915050565b60608315611be7575081610f1a565b610f1a8383815115611bfc5781518083602001fd5b8060405162461bcd60e51b81526004016105219190612353565b6001600160a01b03811681146105be57600080fd5b60008060408385031215611c3e57600080fd5b8235611c4981611c16565b946020939093013593505050565b600060208284031215611c6957600080fd5b8135610f1a81611c16565b600060208284031215611c8657600080fd5b5035919050565b60008060008060808587031215611ca357600080fd5b8435611cae81611c16565b93506020850135611cbe81611c16565b9250604085013591506060850135611cd581611c16565b939692955090935050565b634e487b7160e01b600052604160045260246000fd5b604051601f8201601f1916810167ffffffffffffffff81118282101715611d1f57611d1f611ce0565b604052919050565b60008060408385031215611d3a57600080fd5b8235611d4581611c16565b915060208381013567ffffffffffffffff80821115611d6357600080fd5b818601915086601f830112611d7757600080fd5b813581811115611d8957611d89611ce0565b611d9b601f8201601f19168501611cf6565b91508082528784828501011115611db157600080fd5b80848401858401376000848284010152508093505050509250929050565b80151581146105be57600080fd5b600080600080600060a08688031215611df557600080fd5b853594506020860135611e0781611dcf565b93506040860135611e1781611dcf565b92506060860135611e2781611dcf565b949793965091946080013592915050565b60008083601f840112611e4a57600080fd5b50813567ffffffffffffffff811115611e6257600080fd5b6020830191508360208260051b8501011115611e7d57600080fd5b9250929050565b60008060008060008060006080888a031215611e9f57600080fd5b873567ffffffffffffffff80821115611eb757600080fd5b611ec38b838c01611e38565b909950975060208a0135915080821115611edc57600080fd5b611ee88b838c01611e38565b909750955060408a0135915080821115611f0157600080fd5b50611f0e8a828b01611e38565b9094509250506060880135611f2281611c16565b8091505092959891949750929550565b600060208284031215611f4457600080fd5b8151610f1a81611dcf565b6020808252602c908201527f46756e6374696f6e206d7573742062652063616c6c6564207468726f7567682060408201526b19195b1959d85d1958d85b1b60a21b606082015260800190565b6020808252602c908201527f46756e6374696f6e206d7573742062652063616c6c6564207468726f7567682060408201526b6163746976652070726f787960a01b606082015260800190565b634e487b7160e01b600052603260045260246000fd5b634e487b7160e01b600052601160045260246000fd5b8082028115828204841417611bd257611bd2611ffd565b60006001820161203c5761203c611ffd565b5060010190565b60006020828403121561205557600080fd5b5051919050565b600181815b8085111561209757816000190482111561207d5761207d611ffd565b8085161561208a57918102915b93841c9390800290612061565b509250929050565b6000826120ae57506001611bd2565b816120bb57506000611bd2565b81600181146120d157600281146120db576120f7565b6001915050611bd2565b60ff8411156120ec576120ec611ffd565b50506001821b611bd2565b5060208310610133831016604e8410600b841016171561211a575081810a611bd2565b612124838361205c565b806000190482111561213857612138611ffd565b029392505050565b6000610f1a838361209f565b60008261216957634e487b7160e01b600052601260045260246000fd5b500490565b60006020828403121561218057600080fd5b8151610f1a81611c16565b81810381811115611bd257611bd2611ffd565b6020808252602b908201527f496e697469616c697a61626c653a20636f6e7472616374206973206e6f74206960408201526a6e697469616c697a696e6760a81b606082015260800190565b80820180821115611bd257611bd2611ffd565b600060a082018783526020878185015260a0604085015281875180845260c086019150828901935060005b8181101561224c5784516001600160a01b031683529383019391830191600101612227565b50506001600160a01b03969096166060850152505050608001529392505050565b6000602080838503121561228057600080fd5b825167ffffffffffffffff8082111561229857600080fd5b818501915085601f8301126122ac57600080fd5b8151818111156122be576122be611ce0565b8060051b91506122cf848301611cf6565b81815291830184019184810190888411156122e957600080fd5b938501935b83851015612307578451825293850193908501906122ee565b98975050505050505050565b60005b8381101561232e578181015183820152602001612316565b50506000910152565b60008251612349818460208701612313565b9190910192915050565b6020815260008251806020840152612372816040850160208701612313565b601f01601f1916919091016040019291505056fe360894a13ba1a3210667c828492db98dca3e2076cc3735a920a3ca505d382bbc416464726573733a206c6f772d6c6576656c2064656c65676174652063616c6c206661696c6564a264697066735822122076c4b9ef02eb45ab3e3c0ccc10e75ffed8956e3d70959894fcdac5f0e1e9956f64736f6c63430008110033",
  "linkReferences": {},
  "deployedLinkReferences": {}
}