{
  "_format": "hh-sol-artifact-1",
  "contractName": "ReferralUpgradeable",
  "sourceName": "contracts/ReferralUpgradeable.sol",
  "abi": [
    {
      "anonymous": false,
      "inputs": [
        {
          "indexed": false,
          "internalType": "address",
          "name": "previousAdmin",
          "type": "address"
        },
        {
          "indexed": false,
          "internalType": "address",
          "name": "newAdmin",
          "type": "address"
        }
      ],
      "name": "AdminChanged",
      "type": "event"
    },
    {
      "anonymous": false,
      "inputs": [
        {
          "indexed": true,
          "internalType": "address",
          "name": "beacon",
          "type": "address"
        }
      ],
      "name": "BeaconUpgraded",
      "type": "event"
    },
    {
      "anonymous": false,
      "inputs": [
        {
          "indexed": true,
          "internalType": "address",
          "name": "userAddressaddress",
          "type": "address"
        }
      ],
      "name": "CoreMemberAdded",
      "type": "event"
    },
    {
      "anonymous": false,
      "inputs": [
        {
          "indexed": false,
          "internalType": "address",
          "name": "userAddress",
          "type": "address"
        }
      ],
      "name": "CoreMemberRemoved",
      "type": "event"
    },
    {
      "anonymous": false,
      "inputs": [
        {
          "indexed": true,
          "internalType": "uint256",
          "name": "value",
          "type": "uint256"
        },
        {
          "indexed": true,
          "internalType": "address",
          "name": "userAddress",
          "type": "address"
        }
      ],
      "name": "CoreMemberRewardPaid",
      "type": "event"
    },
    {
      "anonymous": false,
      "inputs": [
        {
          "indexed": false,
          "internalType": "address",
          "name": "userAddress",
          "type": "address"
        }
      ],
      "name": "GlobalAddressAdded",
      "type": "event"
    },
    {
      "anonymous": false,
      "inputs": [
        {
          "indexed": false,
          "internalType": "address",
          "name": "userAddress",
          "type": "address"
        }
      ],
      "name": "GlobalAddressRemoved",
      "type": "event"
    },
    {
      "anonymous": false,
      "inputs": [
        {
          "indexed": false,
          "internalType": "uint256",
          "name": "value",
          "type": "uint256"
        },
        {
          "indexed": false,
          "internalType": "address",
          "name": "userAddress",
          "type": "address"
        }
      ],
      "name": "GlobalRewardPaid",
      "type": "event"
    },
    {
      "anonymous": false,
      "inputs": [
        {
          "indexed": false,
          "internalType": "uint8",
          "name": "version",
          "type": "uint8"
        }
      ],
      "name": "Initialized",
      "type": "event"
    },
    {
      "anonymous": false,
      "inputs": [
        {
          "indexed": true,
          "internalType": "address",
          "name": "previousOwner",
          "type": "address"
        },
        {
          "indexed": true,
          "internalType": "address",
          "name": "newOwner",
          "type": "address"
        }
      ],
      "name": "OwnershipTransferred",
      "type": "event"
    },
    {
      "anonymous": false,
      "inputs": [
        {
          "indexed": true,
          "internalType": "uint256",
          "name": "value",
          "type": "uint256"
        },
        {
          "indexed": true,
          "internalType": "address",
          "name": "userAddress",
          "type": "address"
        }
      ],
      "name": "PassiveRewardPaid",
      "type": "event"
    },
    {
      "anonymous": false,
      "inputs": [
        {
          "indexed": false,
          "internalType": "address",
          "name": "account",
          "type": "address"
        }
      ],
      "name": "Paused",
      "type": "event"
    },
    {
      "anonymous": false,
      "inputs": [
        {
          "indexed": true,
          "internalType": "address",
          "name": "referee",
          "type": "address"
        },
        {
          "indexed": true,
          "internalType": "address",
          "name": "referrer",
          "type": "address"
        },
        {
          "indexed": true,
          "internalType": "uint256",
          "name": "amount",
          "type": "uint256"
        },
        {
          "indexed": false,
          "internalType": "uint256",
          "name": "level",
          "type": "uint256"
        },
        {
          "indexed": false,
          "internalType": "string",
          "name": "currency",
          "type": "string"
        }
      ],
      "name": "ReferralRewardPaid",
      "type": "event"
    },
    {
      "anonymous": false,
      "inputs": [
        {
          "indexed": true,
          "internalType": "address",
          "name": "referee",
          "type": "address"
        },
        {
          "indexed": true,
          "internalType": "address",
          "name": "referrer",
          "type": "address"
        },
        {
          "indexed": true,
          "internalType": "string",
          "name": "reason",
          "type": "string"
        }
      ],
      "name": "RegisterRefererFailed",
      "type": "event"
    },
    {
      "anonymous": false,
      "inputs": [
        {
          "indexed": true,
          "internalType": "address",
          "name": "referee",
          "type": "address"
        },
        {
          "indexed": true,
          "internalType": "address",
          "name": "referrer",
          "type": "address"
        }
      ],
      "name": "RegisteredReferer",
      "type": "event"
    },
    {
      "anonymous": false,
      "inputs": [
        {
          "indexed": true,
          "internalType": "address",
          "name": "parent",
          "type": "address"
        },
        {
          "indexed": true,
          "internalType": "address",
          "name": "referrer",
          "type": "address"
        },
        {
          "indexed": true,
          "internalType": "address",
          "name": "referee",
          "type": "address"
        }
      ],
      "name": "RegisteredTeamAddress",
      "type": "event"
    },
    {
      "anonymous": false,
      "inputs": [
        {
          "indexed": false,
          "internalType": "address",
          "name": "userAddress",
          "type": "address"
        },
        {
          "indexed": false,
          "internalType": "uint8",
          "name": "rewardId",
          "type": "uint8"
        }
      ],
      "name": "RewardAccountAdded",
      "type": "event"
    },
    {
      "anonymous": false,
      "inputs": [
        {
          "indexed": false,
          "internalType": "address",
          "name": "userAddress",
          "type": "address"
        },
        {
          "indexed": false,
          "internalType": "uint8",
          "name": "rewardId",
          "type": "uint8"
        }
      ],
      "name": "RewardAccountPaid",
      "type": "event"
    },
    {
      "anonymous": false,
      "inputs": [
        {
          "indexed": false,
          "internalType": "uint8",
          "name": "id",
          "type": "uint8"
        },
        {
          "indexed": false,
          "internalType": "uint256",
          "name": "selfBusinessLimit",
          "type": "uint256"
        },
        {
          "indexed": false,
          "internalType": "uint256",
          "name": "directBusinessLimit",
          "type": "uint256"
        },
        {
          "indexed": false,
          "internalType": "uint256",
          "name": "teamBusinessLimit",
          "type": "uint256"
        },
        {
          "indexed": false,
          "internalType": "string",
          "name": "rankName",
          "type": "string"
        },
        {
          "indexed": false,
          "internalType": "string",
          "name": "rewardName",
          "type": "string"
        },
        {
          "indexed": false,
          "internalType": "uint256",
          "name": "appraisal",
          "type": "uint256"
        }
      ],
      "name": "RewardAdded",
      "type": "event"
    },
    {
      "anonymous": false,
      "inputs": [
        {
          "indexed": false,
          "internalType": "address",
          "name": "account",
          "type": "address"
        }
      ],
      "name": "Unpaused",
      "type": "event"
    },
    {
      "anonymous": false,
      "inputs": [
        {
          "indexed": true,
          "internalType": "address",
          "name": "implementation",
          "type": "address"
        }
      ],
      "name": "Upgraded",
      "type": "event"
    },
    {
      "inputs": [
        {
          "internalType": "address",
          "name": "",
          "type": "address"
        }
      ],
      "name": "addressToId",
      "outputs": [
        {
          "internalType": "uint16",
          "name": "",
          "type": "uint16"
        }
      ],
      "stateMutability": "view",
      "type": "function"
    },
    {
      "inputs": [],
      "name": "contractDefaults",
      "outputs": [
        {
          "internalType": "uint256",
          "name": "levelDecimals",
          "type": "uint256"
        },
        {
          "internalType": "uint256[]",
          "name": "levelRates",
          "type": "uint256[]"
        },
        {
          "internalType": "uint256",
          "name": "totalLevelRate",
          "type": "uint256"
        },
        {
          "internalType": "address",
          "name": "defaultReferrer",
          "type": "address"
        }
      ],
      "stateMutability": "view",
      "type": "function"
    },
    {
      "inputs": [],
      "name": "getGlobalRefereeLimit",
      "outputs": [
        {
          "internalType": "uint8",
          "name": "",
          "type": "uint8"
        }
      ],
      "stateMutability": "view",
      "type": "function"
    },
    {
      "inputs": [
        {
          "internalType": "uint8",
          "name": "_rewardId",
          "type": "uint8"
        },
        {
          "internalType": "uint16",
          "name": "_from",
          "type": "uint16"
        },
        {
          "internalType": "uint16",
          "name": "_to",
          "type": "uint16"
        }
      ],
      "name": "getRewardQualifiedUsers",
      "outputs": [
        {
          "internalType": "address[]",
          "name": "_userAddress",
          "type": "address[]"
        },
        {
          "internalType": "uint16",
          "name": "_achieversListCount",
          "type": "uint16"
        }
      ],
      "stateMutability": "view",
      "type": "function"
    },
    {
      "inputs": [],
      "name": "getSelfIncomePoolRefereeLimit",
      "outputs": [
        {
          "internalType": "uint8",
          "name": "",
          "type": "uint8"
        }
      ],
      "stateMutability": "view",
      "type": "function"
    },
    {
      "inputs": [
        {
          "internalType": "address",
          "name": "_userAddress",
          "type": "address"
        }
      ],
      "name": "getTeamBusinessToQualifyRewards",
      "outputs": [
        {
          "internalType": "uint256",
          "name": "mainBusiness",
          "type": "uint256"
        },
        {
          "internalType": "uint256",
          "name": "otherBusiness",
          "type": "uint256"
        }
      ],
      "stateMutability": "view",
      "type": "function"
    },
    {
      "inputs": [
        {
          "internalType": "address",
          "name": "_address",
          "type": "address"
        }
      ],
      "name": "getUserAccount",
      "outputs": [
        {
          "components": [
            {
              "internalType": "address",
              "name": "referrer",
              "type": "address"
            },
            {
              "internalType": "address[]",
              "name": "referee",
              "type": "address[]"
            },
            {
              "internalType": "address[]",
              "name": "team",
              "type": "address[]"
            },
            {
              "internalType": "uint256[]",
              "name": "topUp",
              "type": "uint256[]"
            },
            {
              "internalType": "uint256",
              "name": "selfBusiness",
              "type": "uint256"
            },
            {
              "internalType": "uint256",
              "name": "directBusiness",
              "type": "uint256"
            },
            {
              "internalType": "uint256",
              "name": "totalBusiness",
              "type": "uint256"
            },
            {
              "internalType": "uint256[]",
              "name": "rewardsPaidReferral",
              "type": "uint256[]"
            },
            {
              "internalType": "uint256[]",
              "name": "rewardsPaidGlobal",
              "type": "uint256[]"
            },
            {
              "internalType": "uint256[]",
              "name": "rewardPaidPassive",
              "type": "uint256[]"
            },
            {
              "internalType": "bool",
              "name": "isInGlobalID",
              "type": "bool"
            }
          ],
          "internalType": "struct ReferralUpgradeable.Account",
          "name": "userAccount",
          "type": "tuple"
        }
      ],
      "stateMutability": "view",
      "type": "function"
    },
    {
      "inputs": [
        {
          "internalType": "address",
          "name": "_address",
          "type": "address"
        }
      ],
      "name": "getUserReferrerAddress",
      "outputs": [
        {
          "internalType": "address",
          "name": "referrer",
          "type": "address"
        }
      ],
      "stateMutability": "view",
      "type": "function"
    },
    {
      "inputs": [
        {
          "internalType": "address",
          "name": "_userAddress",
          "type": "address"
        }
      ],
      "name": "getUserRewardAccount",
      "outputs": [
        {
          "components": [
            {
              "internalType": "address",
              "name": "userAdddress",
              "type": "address"
            },
            {
              "internalType": "uint8[]",
              "name": "rewardId",
              "type": "uint8[]"
            },
            {
              "internalType": "uint8",
              "name": "lastRewardId",
              "type": "uint8"
            }
          ],
          "internalType": "struct ReferralUpgradeable.RewardsAccount",
          "name": "",
          "type": "tuple"
        }
      ],
      "stateMutability": "view",
      "type": "function"
    },
    {
      "inputs": [
        {
          "internalType": "address",
          "name": "_userAddress",
          "type": "address"
        }
      ],
      "name": "getUserRewardQualified",
      "outputs": [
        {
          "internalType": "uint8",
          "name": "rewardId",
          "type": "uint8"
        }
      ],
      "stateMutability": "view",
      "type": "function"
    },
    {
      "inputs": [
        {
          "internalType": "address",
          "name": "_address",
          "type": "address"
        }
      ],
      "name": "getUserTeam",
      "outputs": [
        {
          "internalType": "address[]",
          "name": "userReferee",
          "type": "address[]"
        },
        {
          "internalType": "uint256",
          "name": "userRefereeCount",
          "type": "uint256"
        },
        {
          "internalType": "address[]",
          "name": "userTeamAddress",
          "type": "address[]"
        },
        {
          "internalType": "uint256",
          "name": "userTeamCount",
          "type": "uint256"
        }
      ],
      "stateMutability": "view",
      "type": "function"
    },
    {
      "inputs": [
        {
          "internalType": "address",
          "name": "_userAddress",
          "type": "address"
        }
      ],
      "name": "getUserTopUpForRewards",
      "outputs": [
        {
          "internalType": "uint256",
          "name": "",
          "type": "uint256"
        }
      ],
      "stateMutability": "view",
      "type": "function"
    },
    {
      "inputs": [
        {
          "internalType": "address",
          "name": "_address",
          "type": "address"
        }
      ],
      "name": "getUserTotalBusiness",
      "outputs": [
        {
          "internalType": "uint256",
          "name": "selfBusiness",
          "type": "uint256"
        },
        {
          "internalType": "uint256",
          "name": "directBusiness",
          "type": "uint256"
        },
        {
          "internalType": "uint256",
          "name": "refereeTeamBusiness",
          "type": "uint256"
        },
        {
          "internalType": "uint256",
          "name": "totalBusiness",
          "type": "uint256"
        }
      ],
      "stateMutability": "view",
      "type": "function"
    },
    {
      "inputs": [
        {
          "internalType": "address",
          "name": "_address",
          "type": "address"
        }
      ],
      "name": "getUserTotalRewardPaid",
      "outputs": [
        {
          "internalType": "uint256",
          "name": "rewardsAUSD",
          "type": "uint256"
        },
        {
          "internalType": "uint256",
          "name": "rewardsGlobal",
          "type": "uint256"
        },
        {
          "internalType": "uint256",
          "name": "rewardsPassive",
          "type": "uint256"
        }
      ],
      "stateMutability": "view",
      "type": "function"
    },
    {
      "inputs": [],
      "name": "getVariablesContract",
      "outputs": [
        {
          "internalType": "address",
          "name": "",
          "type": "address"
        }
      ],
      "stateMutability": "view",
      "type": "function"
    },
    {
      "inputs": [
        {
          "internalType": "address",
          "name": "_address",
          "type": "address"
        }
      ],
      "name": "hasReferrer",
      "outputs": [
        {
          "internalType": "bool",
          "name": "",
          "type": "bool"
        }
      ],
      "stateMutability": "view",
      "type": "function"
    },
    {
      "inputs": [
        {
          "internalType": "uint16",
          "name": "",
          "type": "uint16"
        }
      ],
      "name": "idToAddress",
      "outputs": [
        {
          "internalType": "address",
          "name": "",
          "type": "address"
        }
      ],
      "stateMutability": "view",
      "type": "function"
    },
    {
      "inputs": [
        {
          "internalType": "address[]",
          "name": "_userAddress",
          "type": "address[]"
        }
      ],
      "name": "includeUsersInList",
      "outputs": [],
      "stateMutability": "nonpayable",
      "type": "function"
    },
    {
      "inputs": [],
      "name": "initialize",
      "outputs": [],
      "stateMutability": "nonpayable",
      "type": "function"
    },
    {
      "inputs": [],
      "name": "owner",
      "outputs": [
        {
          "internalType": "address",
          "name": "",
          "type": "address"
        }
      ],
      "stateMutability": "view",
      "type": "function"
    },
    {
      "inputs": [],
      "name": "paused",
      "outputs": [
        {
          "internalType": "bool",
          "name": "",
          "type": "bool"
        }
      ],
      "stateMutability": "view",
      "type": "function"
    },
    {
      "inputs": [
        {
          "internalType": "uint256",
          "name": "_valueInUSD",
          "type": "uint256"
        },
        {
          "internalType": "address",
          "name": "_userAddress",
          "type": "address"
        },
        {
          "internalType": "address",
          "name": "_referrerAddress",
          "type": "address"
        }
      ],
      "name": "payReferralANUSDAdmin",
      "outputs": [],
      "stateMutability": "nonpayable",
      "type": "function"
    },
    {
      "inputs": [],
      "name": "proxiableUUID",
      "outputs": [
        {
          "internalType": "bytes32",
          "name": "",
          "type": "bytes32"
        }
      ],
      "stateMutability": "view",
      "type": "function"
    },
    {
      "inputs": [],
      "name": "renounceOwnership",
      "outputs": [],
      "stateMutability": "nonpayable",
      "type": "function"
    },
    {
      "inputs": [
        {
          "internalType": "address",
          "name": "",
          "type": "address"
        }
      ],
      "name": "rewardAccount",
      "outputs": [
        {
          "internalType": "address",
          "name": "userAdddress",
          "type": "address"
        },
        {
          "internalType": "uint8",
          "name": "lastRewardId",
          "type": "uint8"
        }
      ],
      "stateMutability": "view",
      "type": "function"
    },
    {
      "inputs": [
        {
          "internalType": "uint8",
          "name": "",
          "type": "uint8"
        }
      ],
      "name": "rewards",
      "outputs": [
        {
          "internalType": "uint8",
          "name": "id",
          "type": "uint8"
        },
        {
          "internalType": "uint256",
          "name": "selfBusinessLimit",
          "type": "uint256"
        },
        {
          "internalType": "uint256",
          "name": "directBusinessLimit",
          "type": "uint256"
        },
        {
          "internalType": "uint256",
          "name": "teamBusinessLimit",
          "type": "uint256"
        },
        {
          "internalType": "string",
          "name": "rankName",
          "type": "string"
        },
        {
          "internalType": "string",
          "name": "rewardName",
          "type": "string"
        },
        {
          "internalType": "uint256",
          "name": "appraisal",
          "type": "uint256"
        }
      ],
      "stateMutability": "view",
      "type": "function"
    },
    {
      "inputs": [
        {
          "internalType": "uint8[]",
          "name": "_id",
          "type": "uint8[]"
        },
        {
          "internalType": "uint256[]",
          "name": "_selfBusinessLimit",
          "type": "uint256[]"
        },
        {
          "internalType": "uint256[]",
          "name": "_directBusinessLimit",
          "type": "uint256[]"
        },
        {
          "internalType": "uint256[]",
          "name": "_teamBusinessLimit",
          "type": "uint256[]"
        },
        {
          "internalType": "string[]",
          "name": "_rankName",
          "type": "string[]"
        },
        {
          "internalType": "string[]",
          "name": "_rewardName",
          "type": "string[]"
        },
        {
          "internalType": "uint256[]",
          "name": "_appraisal",
          "type": "uint256[]"
        }
      ],
      "name": "setRewards",
      "outputs": [],
      "stateMutability": "nonpayable",
      "type": "function"
    },
    {
      "inputs": [],
      "name": "totalUsers",
      "outputs": [
        {
          "internalType": "uint16",
          "name": "",
          "type": "uint16"
        }
      ],
      "stateMutability": "view",
      "type": "function"
    },
    {
      "inputs": [
        {
          "internalType": "address",
          "name": "_address",
          "type": "address"
        },
        {
          "internalType": "uint256",
          "name": "_value",
          "type": "uint256"
        }
      ],
      "name": "transferNative",
      "outputs": [],
      "stateMutability": "nonpayable",
      "type": "function"
    },
    {
      "inputs": [
        {
          "internalType": "address",
          "name": "newOwner",
          "type": "address"
        }
      ],
      "name": "transferOwnership",
      "outputs": [],
      "stateMutability": "nonpayable",
      "type": "function"
    },
    {
      "inputs": [
        {
          "internalType": "address",
          "name": "_userAddress",
          "type": "address"
        },
        {
          "internalType": "uint8",
          "name": "_rewardId",
          "type": "uint8"
        }
      ],
      "name": "updateIfRewardPaidAdmin",
      "outputs": [],
      "stateMutability": "nonpayable",
      "type": "function"
    },
    {
      "inputs": [
        {
          "internalType": "address",
          "name": "newImplementation",
          "type": "address"
        }
      ],
      "name": "upgradeTo",
      "outputs": [],
      "stateMutability": "nonpayable",
      "type": "function"
    },
    {
      "inputs": [
        {
          "internalType": "address",
          "name": "newImplementation",
          "type": "address"
        },
        {
          "internalType": "bytes",
          "name": "data",
          "type": "bytes"
        }
      ],
      "name": "upgradeToAndCall",
      "outputs": [],
      "stateMutability": "payable",
      "type": "function"
    },
    {
      "inputs": [
        {
          "internalType": "uint256",
          "name": "",
          "type": "uint256"
        }
      ],
      "name": "usersList",
      "outputs": [
        {
          "internalType": "address",
          "name": "",
          "type": "address"
        }
      ],
      "stateMutability": "view",
      "type": "function"
    },
    {
      "inputs": [
        {
          "internalType": "address",
          "name": "_tokenAddress",
          "type": "address"
        },
        {
          "internalType": "address",
          "name": "_userAddress",
          "type": "address"
        },
        {
          "internalType": "uint256",
          "name": "_value",
          "type": "uint256"
        }
      ],
      "name": "withdrawtokens",
      "outputs": [],
      "stateMutability": "nonpayable",
      "type": "function"
    },
    {
      "stateMutability": "payable",
      "type": "receive"
    }
  ],
  "bytecode": "0x60a06040523060805234801561001457600080fd5b50608051615de76200004d600039600081816115e501528181611625015281816116c40152818161170401526117c20152615de76000f3fe6080604052600436106102085760003560e01c8063771aa21611610118578063cb0e0d7d116100a0578063f13a143f1161006f578063f13a143f146106fb578063f2fde38b14610719578063faeda7e514610739578063fb47e01614610769578063fb5d45261461079657600080fd5b8063cb0e0d7d14610640578063dd1ca71614610672578063e5ffb5df146106a0578063ef519dc0146106c057600080fd5b80638a93f7b9116100e75780638a93f7b91461056b5780638da5cb5b1461058b5780639b317cc4146105a9578063a0760aff146105dc578063bff1f9e11461061157600080fd5b8063771aa216146104e95780637d2e90c2146105095780638129fc1c1461052957806386f6630d1461053e57600080fd5b806335166fef1161019b578063502aa3b51161016a578063502aa3b51461046857806352d1902d146104885780635c975abb1461049d578063715018a6146104b557806371e13ead146104ca57600080fd5b806335166fef146103db5780633659cfe6146103fb57806343b4ebf41461041b5780634f1ef2861461045557600080fd5b8063228159b4116101d7578063228159b4146102e85780632405091c1461030857806325f1c91e146103485780632bb5112d1461037657600080fd5b8063025313ff146102145780630898adc7146102685780630a783ea51461028a57806318452cd8146102b857600080fd5b3661020f57005b600080fd5b34801561022057600080fd5b5061024b61022f36600461504a565b61010c602052600090815260409020546001600160a01b031681565b6040516001600160a01b0390911681526020015b60405180910390f35b34801561027457600080fd5b5061028861028336600461507a565b6107bb565b005b34801561029657600080fd5b5061010f546301000000900460ff165b60405160ff909116815260200161025f565b3480156102c457600080fd5b506102d86102d33660046150bb565b61083c565b604051901515815260200161025f565b3480156102f457600080fd5b506102886103033660046150d8565b610863565b34801561031457600080fd5b506103286103233660046150bb565b610a34565b60408051948552602085019390935291830152606082015260800161025f565b34801561035457600080fd5b506103686103633660046150bb565b611023565b60405190815260200161025f565b34801561038257600080fd5b506103ba6103913660046150bb565b61010a60205260009081526040902080546002909101546001600160a01b039091169060ff1682565b604080516001600160a01b03909316835260ff90911660208301520161025f565b3480156103e757600080fd5b506102886103f6366004615350565b6112ba565b34801561040757600080fd5b506102886104163660046150bb565b6115db565b34801561042757600080fd5b5061024b6104363660046150bb565b6001600160a01b03908116600090815261010960205260409020541690565b61028861046336600461546b565b6116ba565b34801561047457600080fd5b5061024b6104833660046154cf565b61178a565b34801561049457600080fd5b506103686117b5565b3480156104a957600080fd5b5060335460ff166102d8565b3480156104c157600080fd5b50610288611868565b3480156104d657600080fd5b5061010f5462010000900460ff166102a6565b3480156104f557600080fd5b506102886105043660046154e8565b61187c565b34801561051557600080fd5b5061028861052436600461551d565b611980565b34801561053557600080fd5b506102886119c3565b34801561054a57600080fd5b5061055e6105593660046150bb565b611ba9565b60405161025f9190615549565b34801561057757600080fd5b506102886105863660046155be565b611c8f565b34801561059757600080fd5b506065546001600160a01b031661024b565b3480156105b557600080fd5b506105c96105c4366004615633565b611d63565b60405161025f979695949392919061569e565b3480156105e857600080fd5b506105fc6105f73660046150bb565b611eb5565b6040805192835260208301919091520161025f565b34801561061d57600080fd5b5061010f5461062d9061ffff1681565b60405161ffff909116815260200161025f565b34801561064c57600080fd5b5061062d61065b3660046150bb565b61010d6020526000908152604090205461ffff1681565b34801561067e57600080fd5b5061069261068d3660046156f3565b61245b565b60405161025f92919061577a565b3480156106ac57600080fd5b506102a66106bb3660046150bb565b612539565b3480156106cc57600080fd5b506106e06106db3660046150bb565b6129c8565b6040805193845260208401929092529082015260600161025f565b34801561070757600080fd5b5060fb546001600160a01b031661024b565b34801561072557600080fd5b506102886107343660046150bb565b612ae3565b34801561074557600080fd5b506107596107543660046150bb565b612b59565b60405161025f94939291906157a0565b34801561077557600080fd5b506107896107843660046150bb565b612c46565b60405161025f919061580d565b3480156107a257600080fd5b506107ab612f33565b60405161025f949392919061591c565b6107c3612ffa565b60405163a9059cbb60e01b81526001600160a01b0383811660048301526024820183905284169063a9059cbb906044016020604051808303816000875af1158015610812573d6000803e3d6000fd5b505050506040513d601f19601f820116820180604052508101906108369190615956565b50505050565b6001600160a01b038082166000908152610109602052604081205490911615155b92915050565b336108766065546001600160a01b031690565b6001600160a01b0316816001600160a01b0316148061091c575060fb60009054906101000a90046001600160a01b03166001600160a01b03166363d9df856040518163ffffffff1660e01b8152600401602060405180830381865afa1580156108e3573d6000803e3d6000fd5b505050506040513d601f19601f820116820180604052508101906109079190615978565b6001600160a01b0316816001600160a01b0316145b6109785760405162461bcd60e51b815260206004820152602260248201527f4f6e6c79206f776e65722063616e2063616c6c20746869732066756e6374696f604482015261371760f11b60648201526084015b60405180910390fd5b6001600160a01b0383811660009081526101096020526040902054161580156109a957506001600160a01b03821615155b156109b8576109b88383613054565b6001600160a01b0382811660009081526101096020526040902054161580156109e957506001600160a01b03821615155b8015610a045750610100546001600160a01b03838116911614155b15610a215761010054610a219083906001600160a01b0316613054565b610a2b84846133df565b6108368361414a565b6001600160a01b0381166000908152610109602052604081206001810154600482015492918291829190825b81811015610d375760006101096000856001018481548110610a8457610a84615995565b60009182526020808320909101546001600160a01b03908116845283820194909452604092830190912082516101608101845281549094168452600181018054845181850281018501909552808552919385840193909290830182828015610b1557602002820191906000526020600020905b81546001600160a01b03168152600190910190602001808311610af7575b5050505050815260200160028201805480602002602001604051908101604052809291908181526020018280548015610b7757602002820191906000526020600020905b81546001600160a01b03168152600190910190602001808311610b59575b5050505050815260200160038201805480602002602001604051908101604052809291908181526020018280548015610bcf57602002820191906000526020600020905b815481526020019060010190808311610bbb575b5050505050815260200160048201548152602001600582015481526020016006820154815260200160078201805480602002602001604051908101604052809291908181526020018280548015610c4557602002820191906000526020600020905b815481526020019060010190808311610c31575b5050505050815260200160088201805480602002602001604051908101604052809291908181526020018280548015610c9d57602002820191906000526020600020905b815481526020019060010190808311610c89575b5050505050815260200160098201805480602002602001604051908101604052809291908181526020018280548015610cf557602002820191906000526020600020905b815481526020019060010190808311610ce1575b5050509183525050600a919091015460ff1615156020909101526080810151909150610d2190886159c1565b9650508080610d2f906159d4565b915050610a60565b5060005b818110156110125760006101096000856001018481548110610d5f57610d5f615995565b60009182526020808320909101546001600160a01b03908116845283820194909452604092830190912082516101608101845281549094168452600181018054845181850281018501909552808552919385840193909290830182828015610df057602002820191906000526020600020905b81546001600160a01b03168152600190910190602001808311610dd2575b5050505050815260200160028201805480602002602001604051908101604052809291908181526020018280548015610e5257602002820191906000526020600020905b81546001600160a01b03168152600190910190602001808311610e34575b5050505050815260200160038201805480602002602001604051908101604052809291908181526020018280548015610eaa57602002820191906000526020600020905b815481526020019060010190808311610e96575b5050505050815260200160048201548152602001600582015481526020016006820154815260200160078201805480602002602001604051908101604052809291908181526020018280548015610f2057602002820191906000526020600020905b815481526020019060010190808311610f0c575b5050505050815260200160088201805480602002602001604051908101604052809291908181526020018280548015610f7857602002820191906000526020600020905b815481526020019060010190808311610f64575b5050505050815260200160098201805480602002602001604051908101604052809291908181526020018280548015610fd057602002820191906000526020600020905b815481526020019060010190808311610fbc575b5050509183525050600a919091015460ff16151560209091015260c0810151909150610ffc90876159c1565b955050808061100a906159d4565b915050610d3b565b508160060154925050509193509193565b6001600160a01b0380821660009081526101096020908152604080832081516101608101835281549095168552600181018054835181860281018601909452808452949586959094929385840193909291908301828280156110ae57602002820191906000526020600020905b81546001600160a01b03168152600190910190602001808311611090575b505050505081526020016002820180548060200260200160405190810160405280929190818152602001828054801561111057602002820191906000526020600020905b81546001600160a01b031681526001909101906020018083116110f2575b505050505081526020016003820180548060200260200160405190810160405280929190818152602001828054801561116857602002820191906000526020600020905b815481526020019060010190808311611154575b50505050508152602001600482015481526020016005820154815260200160068201548152602001600782018054806020026020016040519081016040528092919081815260200182805480156111de57602002820191906000526020600020905b8154815260200190600101908083116111ca575b505050505081526020016008820180548060200260200160405190810160405280929190818152602001828054801561123657602002820191906000526020600020905b815481526020019060010190808311611222575b505050505081526020016009820180548060200260200160405190810160405280929190818152602001828054801561128e57602002820191906000526020600020905b81548152602001906001019080831161127a575b5050509183525050600a919091015460ff16151560209091015290506112b381614241565b9392505050565b60fb54604051630935e01b60e21b81523360048201526001600160a01b03909116906324d7806c90602401602060405180830381865afa158015611302573d6000803e3d6000fd5b505050506040513d601f19601f820116820180604052508101906113269190615956565b6113425760405162461bcd60e51b815260040161096f906159ed565b60005b87518110156115d1576040518060e0016040528089838151811061136b5761136b615995565b602002602001015160ff16815260200188838151811061138d5761138d615995565b602002602001015181526020018783815181106113ac576113ac615995565b602002602001015181526020018683815181106113cb576113cb615995565b602002602001015181526020018583815181106113ea576113ea615995565b6020026020010151815260200184838151811061140957611409615995565b6020026020010151815260200183838151811061142857611428615995565b602002602001015181525061010b60008a848151811061144a5761144a615995565b60209081029190910181015160ff90811683528282019390935260409182016000208451815460ff191694169390931783558301516001830155820151600282015560608201516003820155608082015160048201906114aa9082615a9a565b5060a082015160058201906114bf9082615a9a565b5060c082015181600601559050507fb9f30bf0ab6748f3fcfbc9d280ed1feedea51276343f55f8342b8c453b876e9a88828151811061150057611500615995565b602002602001015188838151811061151a5761151a615995565b602002602001015188848151811061153457611534615995565b602002602001015188858151811061154e5761154e615995565b602002602001015188868151811061156857611568615995565b602002602001015188878151811061158257611582615995565b602002602001015188888151811061159c5761159c615995565b60200260200101516040516115b7979695949392919061569e565b60405180910390a1806115c9816159d4565b915050611345565b5050505050505050565b6001600160a01b037f00000000000000000000000000000000000000000000000000000000000000001630036116235760405162461bcd60e51b815260040161096f90615b5a565b7f00000000000000000000000000000000000000000000000000000000000000006001600160a01b031661166c600080516020615d6b833981519152546001600160a01b031690565b6001600160a01b0316146116925760405162461bcd60e51b815260040161096f90615ba6565b61169b816142ab565b604080516000808252602082019092526116b7918391906142b3565b50565b6001600160a01b037f00000000000000000000000000000000000000000000000000000000000000001630036117025760405162461bcd60e51b815260040161096f90615b5a565b7f00000000000000000000000000000000000000000000000000000000000000006001600160a01b031661174b600080516020615d6b833981519152546001600160a01b031690565b6001600160a01b0316146117715760405162461bcd60e51b815260040161096f90615ba6565b61177a826142ab565b611786828260016142b3565b5050565b61010e818154811061179b57600080fd5b6000918252602090912001546001600160a01b0316905081565b6000306001600160a01b037f000000000000000000000000000000000000000000000000000000000000000016146118555760405162461bcd60e51b815260206004820152603860248201527f555550535570677261646561626c653a206d757374206e6f742062652063616c60448201527f6c6564207468726f7567682064656c656761746563616c6c0000000000000000606482015260840161096f565b50600080516020615d6b83398151915290565b611870612ffa565b61187a600061441e565b565b60fb54604051630935e01b60e21b81523360048201526001600160a01b03909116906324d7806c90602401602060405180830381865afa1580156118c4573d6000803e3d6000fd5b505050506040513d601f19601f820116820180604052508101906118e89190615956565b6119045760405162461bcd60e51b815260040161096f906159ed565b6001600160a01b03808316600090815261010a6020526040902080549091166119415780546001600160a01b0319166001600160a01b0384161781555b600190810180549182018155600090815260209081902090820401805460ff938416601f9093166101000a928302939092021990911691909117905550565b611988612ffa565b6040516001600160a01b0383169082156108fc029083906000818181858888f193505050501580156119be573d6000803e3d6000fd5b505050565b600054610100900460ff16158080156119e35750600054600160ff909116105b806119fd5750303b1580156119fd575060005460ff166001145b611a605760405162461bcd60e51b815260206004820152602e60248201527f496e697469616c697a61626c653a20636f6e747261637420697320616c72656160448201526d191e481a5b9a5d1a585b1a5e995960921b606482015260840161096f565b6000805460ff191660011790558015611a83576000805461ff0019166101001790555b60fb80546001600160a01b03199081167377daafc7411c911b869c71bf70fe36cce507845d17909155610100805490911673f3ba579d4afd4dad8a8c2d1bcbdd1405688e492f1790556040805160e0810182526007808252600460208301526003928201929092526002606082015260016080820181905260a0820181905260c0820152611b149160fc9190614fd3565b50606460fd5560146101065569011478b7c30abc3000006101035560046101015560056101045568a80d24677efef0000061010555611b51614470565b611b5961449f565b611b616144ce565b80156116b7576000805461ff0019169055604051600181527f7f26b83ff96e1f2b6a682f133852f6798a09c465da95921460cefb38474024989060200160405180910390a150565b611bd9604051806060016040528060006001600160a01b0316815260200160608152602001600060ff1681525090565b6001600160a01b03808316600090815261010a6020908152604091829020825160608101845281549094168452600181018054845181850281018501909552808552919385840193909290830182828015611c7157602002820191906000526020600020906000905b825461010083900a900460ff16815260206001928301818104948501949093039092029101808411611c425790505b50505091835250506002919091015460ff1660209091015292915050565b60fb54604051630935e01b60e21b81523360048201526001600160a01b03909116906324d7806c90602401602060405180830381865afa158015611cd7573d6000803e3d6000fd5b505050506040513d601f19601f82011682018060405250810190611cfb9190615956565b611d175760405162461bcd60e51b815260040161096f906159ed565b60005b818110156119be57611d51838383818110611d3757611d37615995565b9050602002016020810190611d4c91906150bb565b61414a565b80611d5b816159d4565b915050611d1a565b61010b602052600090815260409020805460018201546002830154600384015460048501805460ff90951695939492939192611d9e90615a18565b80601f0160208091040260200160405190810160405280929190818152602001828054611dca90615a18565b8015611e175780601f10611dec57610100808354040283529160200191611e17565b820191906000526020600020905b815481529060010190602001808311611dfa57829003601f168201915b505050505090806005018054611e2c90615a18565b80601f0160208091040260200160405190810160405280929190818152602001828054611e5890615a18565b8015611ea55780601f10611e7a57610100808354040283529160200191611ea5565b820191906000526020600020905b815481529060010190602001808311611e8857829003601f168201915b5050505050908060060154905087565b6001600160a01b03808216600090815261010960209081526040808320815161016081018352815490951685526001810180548351818602810186019094528084529495869586959194858301939092909190830182828015611f4157602002820191906000526020600020905b81546001600160a01b03168152600190910190602001808311611f23575b5050505050815260200160028201805480602002602001604051908101604052809291908181526020018280548015611fa357602002820191906000526020600020905b81546001600160a01b03168152600190910190602001808311611f85575b5050505050815260200160038201805480602002602001604051908101604052809291908181526020018280548015611ffb57602002820191906000526020600020905b815481526020019060010190808311611fe7575b505050505081526020016004820154815260200160058201548152602001600682015481526020016007820180548060200260200160405190810160405280929190818152602001828054801561207157602002820191906000526020600020905b81548152602001906001019080831161205d575b50505050508152602001600882018054806020026020016040519081016040528092919081815260200182805480156120c957602002820191906000526020600020905b8154815260200190600101908083116120b5575b505050505081526020016009820180548060200260200160405190810160405280929190818152602001828054801561212157602002820191906000526020600020905b81548152602001906001019080831161210d575b5050509183525050600a919091015460ff161515602091820152810151519091506000906002116124545760005b8260200151518161ffff161015612446576000610109600085602001518461ffff168151811061218157612181615995565b6020908102919091018101516001600160a01b0390811683528282019390935260409182016000208251610160810184528154909416845260018101805484518185028101850190955280855291938584019390929083018282801561221057602002820191906000526020600020905b81546001600160a01b031681526001909101906020018083116121f2575b505050505081526020016002820180548060200260200160405190810160405280929190818152602001828054801561227257602002820191906000526020600020905b81546001600160a01b03168152600190910190602001808311612254575b50505050508152602001600382018054806020026020016040519081016040528092919081815260200182805480156122ca57602002820191906000526020600020905b8154815260200190600101908083116122b6575b505050505081526020016004820154815260200160058201548152602001600682015481526020016007820180548060200260200160405190810160405280929190818152602001828054801561234057602002820191906000526020600020905b81548152602001906001019080831161232c575b505050505081526020016008820180548060200260200160405190810160405280929190818152602001828054801561239857602002820191906000526020600020905b815481526020019060010190808311612384575b50505050508152602001600982018054806020026020016040519081016040528092919081815260200182805480156123f057602002820191906000526020600020905b8154815260200190600101908083116123dc575b5050509183525050600a919091015460ff16151560209091015260c0810151909150861015612421578060c0015195505b60c081015161243090846159c1565b925050808061243e90615bf2565b91505061214f565b506124518482615c13565b92505b5050915091565b6060600080600061246d8787876144f5565b915091508092508061ffff1667ffffffffffffffff8111156124915761249161511a565b6040519080825280602002602001820160405280156124ba578160200160208202803683370190505b50935060005b8161ffff168161ffff16101561252e57828161ffff16815181106124e6576124e6615995565b6020026020010151858261ffff168151811061250457612504615995565b6001600160a01b03909216602092830291909101909101528061252681615bf2565b9150506124c0565b505050935093915050565b6001600160a01b0380821660009081526101096020908152604080832081516101608101835281549095168552600181018054835181860281018601909452808452949586959094929385840193909291908301828280156125c457602002820191906000526020600020905b81546001600160a01b031681526001909101906020018083116125a6575b505050505081526020016002820180548060200260200160405190810160405280929190818152602001828054801561262657602002820191906000526020600020905b81546001600160a01b03168152600190910190602001808311612608575b505050505081526020016003820180548060200260200160405190810160405280929190818152602001828054801561267e57602002820191906000526020600020905b81548152602001906001019080831161266a575b50505050508152602001600482015481526020016005820154815260200160068201548152602001600782018054806020026020016040519081016040528092919081815260200182805480156126f457602002820191906000526020600020905b8154815260200190600101908083116126e0575b505050505081526020016008820180548060200260200160405190810160405280929190818152602001828054801561274c57602002820191906000526020600020905b815481526020019060010190808311612738575b50505050508152602001600982018054806020026020016040519081016040528092919081815260200182805480156127a457602002820191906000526020600020905b815481526020019060010190808311612790575b5050509183525050600a919091015460ff161515602090910152905060005b60148160ff1610156129c15760ff808216600090815261010b60209081526040808320815160e081018352815490951685526001810154928501929092526002820154908401526003810154606084015260048101805492939260808401919061282c90615a18565b80601f016020809104026020016040519081016040528092919081815260200182805461285890615a18565b80156128a55780601f1061287a576101008083540402835291602001916128a5565b820191906000526020600020905b81548152906001019060200180831161288857829003601f168201915b505050505081526020016005820180546128be90615a18565b80601f01602080910402602001604051908101604052809291908181526020018280546128ea90615a18565b80156129375780601f1061290c57610100808354040283529160200191612937565b820191906000526020600020905b81548152906001019060200180831161291a57829003601f168201915b50505050508152602001600682015481525050905060028260ff1611801561296157506020810151155b1561296c57506129c1565b806020015161297a84614241565b10158015612990575080604001518360a0015110155b80156129a557506129a5838260600151614a05565b156129ae578193505b50806129b981615c26565b9150506127c3565b5050919050565b6001600160a01b0381166000908152610109602052604081206007810154600882015460098301548493849390929091845b83811015612a4157846007018181548110612a1757612a17615995565b906000526020600020015488612a2d91906159c1565b975080612a39816159d4565b9150506129fa565b5060005b82811015612a8c57846008018181548110612a6257612a62615995565b906000526020600020015487612a7891906159c1565b965080612a84816159d4565b915050612a45565b5060005b81811015612ad757846009018181548110612aad57612aad615995565b906000526020600020015486612ac391906159c1565b955080612acf816159d4565b915050612a90565b50505050509193909250565b612aeb612ffa565b6001600160a01b038116612b505760405162461bcd60e51b815260206004820152602660248201527f4f776e61626c653a206e6577206f776e657220697320746865207a65726f206160448201526564647265737360d01b606482015260840161096f565b6116b78161441e565b6001600160a01b03811660009081526101096020908152604080832060018101805483518186028101860190945280845260609594869486949390929091830182828015612bd057602002820191906000526020600020905b81546001600160a01b03168152600190910190602001808311612bb2575b505050505094508451935080600201805480602002602001604051908101604052809291908181526020018280548015612c3357602002820191906000526020600020905b81546001600160a01b03168152600190910190602001808311612c15575b5050505050925082519150509193509193565b612cae60405180610160016040528060006001600160a01b031681526020016060815260200160608152602001606081526020016000815260200160008152602001600081526020016060815260200160608152602001606081526020016000151581525090565b6001600160a01b038083166000908152610109602090815260409182902082516101608101845281549094168452600181018054845181850281018501909552808552919385840193909290830182828015612d3357602002820191906000526020600020905b81546001600160a01b03168152600190910190602001808311612d15575b5050505050815260200160028201805480602002602001604051908101604052809291908181526020018280548015612d9557602002820191906000526020600020905b81546001600160a01b03168152600190910190602001808311612d77575b5050505050815260200160038201805480602002602001604051908101604052809291908181526020018280548015612ded57602002820191906000526020600020905b815481526020019060010190808311612dd9575b5050505050815260200160048201548152602001600582015481526020016006820154815260200160078201805480602002602001604051908101604052809291908181526020018280548015612e6357602002820191906000526020600020905b815481526020019060010190808311612e4f575b5050505050815260200160088201805480602002602001604051908101604052809291908181526020018280548015612ebb57602002820191906000526020600020905b815481526020019060010190808311612ea7575b5050505050815260200160098201805480602002602001604051908101604052809291908181526020018280548015612f1357602002820191906000526020600020905b815481526020019060010190808311612eff575b5050509183525050600a919091015460ff16151560209091015292915050565b60fd5460fc8054604080516020808402820181019092528281526060936000938493830182828015612f8457602002820191906000526020600020905b815481526020019060010190808311612f70575b505060fc549396506000925050505b818160ff161015612fde5760fc8160ff1681548110612fb457612fb4615995565b906000526020600020015484612fca91906159c1565b935080612fd681615c26565b915050612f93565b5050610100549394929391926001600160a01b03909216919050565b6065546001600160a01b0316331461187a5760405162461bcd60e51b815260206004820181905260248201527f4f776e61626c653a2063616c6c6572206973206e6f7420746865206f776e6572604482015260640161096f565b60fb546040805163b264bbab60e01b815290516001600160a01b0390921691600091839163b264bbab916004808201926020929091908290030181865afa1580156130a3573d6000803e3d6000fd5b505050506040513d601f19601f820116820180604052508101906130c79190615978565b6001600160a01b038581166000818152610109602052604080822080546001600160a01b03191694891694851781559051949550937ffaf63637882ff2d63ca76881cf92fb857130e36f350c926f9cc884b499b42b779190a360fc5460005b818110156133d65782546001600160a01b03166000908152610109602052604081209082900361324e57600181810180549182018155600090815260209081902090910180546001600160a01b0319166001600160a01b038b8116919091179091556040805163f1cd4e0360e01b815290519188169263f1cd4e03926004808401938290030181865afa1580156131c1573d6000803e3d6000fd5b505050506040513d601f19601f820116820180604052508101906131e59190615956565b1561324e57604051633804d63d60e21b81526001600160a01b038881166004830152898116602483015286169063e01358f490604401600060405180830381600087803b15801561323557600080fd5b505af1158015613249573d6000803e3d6000fd5b505050505b83546001600160a01b031661326357506133d6565b60028101805460018101825560009182526020918290200180546001600160a01b0319166001600160a01b038b8116919091179091556040805163f1cd4e0360e01b815290519188169263f1cd4e03926004808401938290030181865afa1580156132d2573d6000803e3d6000fd5b505050506040513d601f19601f820116820180604052508101906132f69190615956565b156133845783546001600160a01b0380871691636407a08691168a61331c8660016159c1565b6040516001600160e01b031960e086901b1681526001600160a01b0393841660048201529290911660248301526044820152606401600060405180830381600087803b15801561336b57600080fd5b505af115801561337f573d6000803e3d6000fd5b505050505b83546040516001600160a01b03808b16928a8216929116907fb766b19465b3277b0b275adf79d715cac93166bf6e6a39f26e4ccfdec76ad47e90600090a49250806133ce816159d4565b915050613126565b50505050505050565b60fb546040805163b264bbab60e01b815290516001600160a01b0390921691600091839163b264bbab916004808201926020929091908290030181865afa15801561342e573d6000803e3d6000fd5b505050506040513d601f19601f820116820180604052508101906134529190615978565b9050600060fc8054806020026020016040519081016040528092919081815260200182805480156134a257602002820191906000526020600020905b81548152602001906001019080831161348e575b5050506001600160a01b03871660009081526101096020908152604082206003810180546001810182559084529183209091018a905560048101805495965090948a94509092506134f49084906159c1565b92505081905550826001600160a01b031663f1cd4e036040518163ffffffff1660e01b8152600401602060405180830381865afa158015613539573d6000803e3d6000fd5b505050506040513d601f19601f8201168201806040525081019061355d9190615956565b156135c55760405163a9415f5d60e01b81526001600160a01b0386811660048301526024820188905284169063a9415f5d90604401600060405180830381600087803b1580156135ac57600080fd5b505af11580156135c0573d6000803e3d6000fd5b505050505b60006101065467ffffffffffffffff8111156135e3576135e361511a565b60405190808252806020026020018201604052801561360c578160200160208202803683370190505b50905060008061010780548060200260200160405190810160405280929190818152602001828054801561366957602002820191906000526020600020905b81546001600160a01b0316815260019091019060200180831161364b575b505083519394506000925050505b61010654811015613b6e5785546001600160a01b0316600081815261010960205260409020906136a75750613b6e565b8751821015613ae557600060648984815181106136c6576136c6615995565b60200260200101518e6136d99190615c45565b6136e39190615c72565b9050826000036137d5578c82600501600082825461370191906159c1565b92505081905550896001600160a01b031663f1cd4e036040518163ffffffff1660e01b8152600401602060405180830381865afa158015613746573d6000803e3d6000fd5b505050506040513d601f19601f8201168201806040525081019061376a9190615956565b156137d557875460405163169529b960e01b81526001600160a01b039182166004820152602481018f9052908b169063169529b990604401600060405180830381600087803b1580156137bc57600080fd5b505af11580156137d0573d6000803e3d6000fd5b505050505b8c8260060160008282546137e991906159c1565b92505081905550896001600160a01b031663f1cd4e036040518163ffffffff1660e01b8152600401602060405180830381865afa15801561382e573d6000803e3d6000fd5b505050506040513d601f19601f820116820180604052508101906138529190615956565b156138bd578754604051637ad141e760e11b81526001600160a01b039182166004820152602481018f9052908b169063f5a283ce90604401600060405180830381600087803b1580156138a457600080fd5b505af11580156138b8573d6000803e3d6000fd5b505050505b6007820180546001810182556000918252602082200182905560ff80548392906138e89084906159c1565b925050819055508a6001600160a01b031663b70cc4c16040518163ffffffff1660e01b8152600401602060405180830381865afa15801561392d573d6000803e3d6000fd5b505050506040513d601f19601f820116820180604052508101906139519190615978565b885460405163a9059cbb60e01b81526001600160a01b0391821660048201526024810184905291169063a9059cbb906044016020604051808303816000875af11580156139a2573d6000803e3d6000fd5b505050506040513d601f19601f820116820180604052508101906139c69190615956565b50875481906001600160a01b03908116908e167f197a0a2b0fbff3fc4f7f4d32597585aa8415fcc4c5dd6634336ec65904529c83613a058760016159c1565b60408051918252602082018190526005908201526410539554d160da1b606082015260800160405180910390a4600a82015460ff16613ae3576101035482600501541115613ae35787546101028054600180820183556000929092527f93bdaa6a4190909b7c3fbe8d42169ffe1cab19f51dfc8db24c71abf849eced4a0180546001600160a01b0319166001600160a01b03938416179055600a8401805460ff191690911790558854604051911681527facc63915cb028aeaee9996abc0f864fc0559a2f955750aa97d6ef9f51014acfb9060200160405180910390a15b505b610105548160050154118015613b0d575061010f546001820154630100000090910460ff1611155b15613b5a57865486516001600160a01b0390911690879087908110613b3457613b34615995565b6001600160a01b039092166020928302919091019091015284613b56816159d4565b9550505b955080613b66816159d4565b915050613677565b508215613d9f576000836064610104548d613b899190615c45565b613b939190615c72565b613b9d9190615c72565b905060005b84811015613d9c5760006001600160a01b0316868281518110613bc757613bc7615995565b60200260200101516001600160a01b03160315613d9c5760006101096000888481518110613bf757613bf7615995565b60200260200101516001600160a01b03166001600160a01b0316815260200190815260200160002090508a6001600160a01b031663b70cc4c16040518163ffffffff1660e01b8152600401602060405180830381865afa158015613c5f573d6000803e3d6000fd5b505050506040513d601f19601f82011682018060405250810190613c839190615978565b6001600160a01b031663a9059cbb888481518110613ca357613ca3615995565b6020026020010151856040518363ffffffff1660e01b8152600401613cdd9291906001600160a01b03929092168252602082015260400190565b6020604051808303816000875af1158015613cfc573d6000803e3d6000fd5b505050506040513d601f19601f82011682018060405250810190613d209190615956565b50868281518110613d3357613d33615995565b60200260200101516001600160a01b0316837f62f12b06523c734cca73aa1502a5f967c8e09d0a2f084fd36acbac47f54b0d4e60405160405180910390a36009018054600181018255600091825260209091200182905580613d94816159d4565b915050613ba2565b50505b6101025415613f9e5760006064610101548c613dbb9190615c45565b613dc59190615c72565b610102546040805142602082015244918101919091529192506000916060016040516020818303038152906040528051906020012060001c613e079190615c86565b905060006101028281548110613e1f57613e1f615995565b6000918252602080832091909101546001600160a01b0316808352610109909152604090912061010f54600182015492935090916201000090910460ff1611613f99578b6001600160a01b031663b70cc4c16040518163ffffffff1660e01b8152600401602060405180830381865afa158015613ea0573d6000803e3d6000fd5b505050506040513d601f19601f82011682018060405250810190613ec49190615978565b60405163a9059cbb60e01b81526001600160a01b03848116600483015260248201879052919091169063a9059cbb906044016020604051808303816000875af1158015613f15573d6000803e3d6000fd5b505050506040513d601f19601f82011682018060405250810190613f399190615956565b50600881018054600181018255600091825260209182902001859055604080518681526001600160a01b038516928101929092527f51e673ac98f0ea063ce27eb5af807d22b97cd11cd79380cf1f711ad80948046c910160405180910390a15b505050505b801561413e576000816064610108548d613fb89190615c45565b613fc29190615c72565b613fcc9190615c72565b905060005b8281101561413b57896001600160a01b031663b70cc4c16040518163ffffffff1660e01b8152600401602060405180830381865afa158015614017573d6000803e3d6000fd5b505050506040513d601f19601f8201168201806040525081019061403b9190615978565b6001600160a01b031663a9059cbb85838151811061405b5761405b615995565b6020026020010151846040518363ffffffff1660e01b81526004016140959291906001600160a01b03929092168252602082015260400190565b6020604051808303816000875af11580156140b4573d6000803e3d6000fd5b505050506040513d601f19601f820116820180604052508101906140d89190615956565b508381815181106140eb576140eb615995565b60200260200101516001600160a01b0316827f6d550262135215fe2f5ef9b6fad45db8cf51267248f8b95e069f8025f6f9049a60405160405180910390a380614133816159d4565b915050613fd1565b50505b50505050505050505050565b6001600160a01b038116600090815261010d602052604081205461ffff1690036116b75761010f546000906141849061ffff166001615c9a565b6001600160a01b038316600081815261010d60209081526040808320805461ffff191661ffff878116918217909255845261010c909252822080546001600160a01b0319908116851790915561010e80546001810182559084527f44731785622d53a842eeb261a70df6f2b61b9624656157b6168597f0656f480501805490911690931790925561010f805493945092909116919061422283615bf2565b91906101000a81548161ffff021916908361ffff160217905550505050565b606081015151600090156142a65760015b8260600151518161ffff1610156142a45782606001518161ffff168151811061427d5761427d615995565b60200260200101518261429091906159c1565b91508061429c81615bf2565b915050614252565b505b919050565b6116b7612ffa565b7f4910fdfa16fed3260ed0e7147f7cc6da11a60208b5b9406d12a635614ffd91435460ff16156142e6576119be83614d3d565b826001600160a01b03166352d1902d6040518163ffffffff1660e01b8152600401602060405180830381865afa925050508015614340575060408051601f3d908101601f1916820190925261433d91810190615cbc565b60015b6143a35760405162461bcd60e51b815260206004820152602e60248201527f45524331393637557067726164653a206e657720696d706c656d656e7461746960448201526d6f6e206973206e6f74205555505360901b606482015260840161096f565b600080516020615d6b83398151915281146144125760405162461bcd60e51b815260206004820152602960248201527f45524331393637557067726164653a20756e737570706f727465642070726f786044820152681a58589b195555525160ba1b606482015260840161096f565b506119be838383614dd9565b606580546001600160a01b038381166001600160a01b0319831681179093556040519116919082907f8be0079c531659141344cd1fd0a4f28419497f9722a3daafe3b4186f6b6457e090600090a35050565b600054610100900460ff166144975760405162461bcd60e51b815260040161096f90615cd5565b61187a614dfe565b600054610100900460ff166144c65760405162461bcd60e51b815260040161096f90615cd5565b61187a614e31565b600054610100900460ff1661187a5760405162461bcd60e51b815260040161096f90615cd5565b606060006145038484615d20565b61ffff1667ffffffffffffffff81111561451f5761451f61511a565b604051908082528060200260200182016040528015614548578160200160208202803683370190505b5091505b8261ffff168461ffff16116149fd5761ffff8416600090815261010c60209081526040808320546001600160a01b039081168085526101098452828520835161016081018552815490931683526001810180548551818802810188019096528086529296959394919385810193908301828280156145f357602002820191906000526020600020905b81546001600160a01b031681526001909101906020018083116145d5575b505050505081526020016002820180548060200260200160405190810160405280929190818152602001828054801561465557602002820191906000526020600020905b81546001600160a01b03168152600190910190602001808311614637575b50505050508152602001600382018054806020026020016040519081016040528092919081815260200182805480156146ad57602002820191906000526020600020905b815481526020019060010190808311614699575b505050505081526020016004820154815260200160058201548152602001600682015481526020016007820180548060200260200160405190810160405280929190818152602001828054801561472357602002820191906000526020600020905b81548152602001906001019080831161470f575b505050505081526020016008820180548060200260200160405190810160405280929190818152602001828054801561477b57602002820191906000526020600020905b815481526020019060010190808311614767575b50505050508152602001600982018054806020026020016040519081016040528092919081815260200182805480156147d357602002820191906000526020600020905b8154815260200190600101908083116147bf575b5050509183525050600a919091015460ff9081161515602092830152898116600090815261010b83526040808220815160e0810183528154909416845260018101549484019490945260028401549083015260038301546060830152600483018054949550909391929160808401919061484c90615a18565b80601f016020809104026020016040519081016040528092919081815260200182805461487890615a18565b80156148c55780601f1061489a576101008083540402835291602001916148c5565b820191906000526020600020905b8154815290600101906020018083116148a857829003601f168201915b505050505081526020016005820180546148de90615a18565b80601f016020809104026020016040519081016040528092919081815260200182805461490a90615a18565b80156149575780601f1061492c57610100808354040283529160200191614957565b820191906000526020600020905b81548152906001019060200180831161493a57829003601f168201915b505050505081526020016006820154815250509050806020015161497a83614241565b10158015614990575080604001518260a0015110155b80156149a557506149a5828260600151614a05565b156149e75782858561ffff16815181106149c1576149c1615995565b6001600160a01b0390921660209283029190910190910152836149e381615bf2565b9450505b50505083806149f590615bf2565b94505061454c565b935093915050565b6000806000600285602001515110614d355760005b8560200151518161ffff161015614d11576000610109600088602001518461ffff1681518110614a4c57614a4c615995565b6020908102919091018101516001600160a01b03908116835282820193909352604091820160002082516101608101845281549094168452600181018054845181850281018501909552808552919385840193909290830182828015614adb57602002820191906000526020600020905b81546001600160a01b03168152600190910190602001808311614abd575b5050505050815260200160028201805480602002602001604051908101604052809291908181526020018280548015614b3d57602002820191906000526020600020905b81546001600160a01b03168152600190910190602001808311614b1f575b5050505050815260200160038201805480602002602001604051908101604052809291908181526020018280548015614b9557602002820191906000526020600020905b815481526020019060010190808311614b81575b5050505050815260200160048201548152602001600582015481526020016006820154815260200160078201805480602002602001604051908101604052809291908181526020018280548015614c0b57602002820191906000526020600020905b815481526020019060010190808311614bf7575b5050505050815260200160088201805480602002602001604051908101604052809291908181526020018280548015614c6357602002820191906000526020600020905b815481526020019060010190808311614c4f575b5050505050815260200160098201805480602002602001604051908101604052809291908181526020018280548015614cbb57602002820191906000526020600020905b815481526020019060010190808311614ca7575b5050509183525050600a919091015460ff16151560209091015260c0810151909150841015614cec578060c0015193505b60c0810151614cfb90846159c1565b9250508080614d0990615bf2565b915050614a1a565b50838210158015614d2b575083614d288383615c13565b10155b15614d3557600192505b505092915050565b6001600160a01b0381163b614daa5760405162461bcd60e51b815260206004820152602d60248201527f455243313936373a206e657720696d706c656d656e746174696f6e206973206e60448201526c1bdd08184818dbdb9d1c9858dd609a1b606482015260840161096f565b600080516020615d6b83398151915280546001600160a01b0319166001600160a01b0392909216919091179055565b614de283614e61565b600082511180614def5750805b156119be576108368383614ea1565b600054610100900460ff16614e255760405162461bcd60e51b815260040161096f90615cd5565b6033805460ff19169055565b600054610100900460ff16614e585760405162461bcd60e51b815260040161096f90615cd5565b61187a3361441e565b614e6a81614d3d565b6040516001600160a01b038216907fbc7cd75a20ee27fd9adebab32041f755214dbc6bffa90cc0225b39da2e5c2d3b90600090a250565b60606001600160a01b0383163b614f095760405162461bcd60e51b815260206004820152602660248201527f416464726573733a2064656c65676174652063616c6c20746f206e6f6e2d636f6044820152651b9d1c9858dd60d21b606482015260840161096f565b600080846001600160a01b031684604051614f249190615d3b565b600060405180830381855af49150503d8060008114614f5f576040519150601f19603f3d011682016040523d82523d6000602084013e614f64565b606091505b5091509150614f8c8282604051806060016040528060278152602001615d8b60279139614f95565b95945050505050565b60608315614fa45750816112b3565b6112b38383815115614fb95781518083602001fd5b8060405162461bcd60e51b815260040161096f9190615d57565b828054828255906000526020600020908101928215615013579160200282015b82811115615013578251829060ff16905591602001919060010190614ff3565b5061501f929150615023565b5090565b5b8082111561501f5760008155600101615024565b803561ffff811681146142a657600080fd5b60006020828403121561505c57600080fd5b6112b382615038565b6001600160a01b03811681146116b757600080fd5b60008060006060848603121561508f57600080fd5b833561509a81615065565b925060208401356150aa81615065565b929592945050506040919091013590565b6000602082840312156150cd57600080fd5b81356112b381615065565b6000806000606084860312156150ed57600080fd5b8335925060208401356150ff81615065565b9150604084013561510f81615065565b809150509250925092565b634e487b7160e01b600052604160045260246000fd5b604051601f8201601f1916810167ffffffffffffffff811182821017156151595761515961511a565b604052919050565b600067ffffffffffffffff82111561517b5761517b61511a565b5060051b60200190565b803560ff811681146142a657600080fd5b600082601f8301126151a757600080fd5b813560206151bc6151b783615161565b615130565b82815260059290921b840181019181810190868411156151db57600080fd5b8286015b848110156151fd576151f081615185565b83529183019183016151df565b509695505050505050565b600082601f83011261521957600080fd5b813560206152296151b783615161565b82815260059290921b8401810191818101908684111561524857600080fd5b8286015b848110156151fd578035835291830191830161524c565b600067ffffffffffffffff83111561527d5761527d61511a565b615290601f8401601f1916602001615130565b90508281528383830111156152a457600080fd5b828260208301376000602084830101529392505050565b600082601f8301126152cc57600080fd5b813560206152dc6151b783615161565b82815260059290921b840181019181810190868411156152fb57600080fd5b8286015b848110156151fd57803567ffffffffffffffff81111561531f5760008081fd5b8701603f810189136153315760008081fd5b615342898683013560408401615263565b8452509183019183016152ff565b600080600080600080600060e0888a03121561536b57600080fd5b873567ffffffffffffffff8082111561538357600080fd5b61538f8b838c01615196565b985060208a01359150808211156153a557600080fd5b6153b18b838c01615208565b975060408a01359150808211156153c757600080fd5b6153d38b838c01615208565b965060608a01359150808211156153e957600080fd5b6153f58b838c01615208565b955060808a013591508082111561540b57600080fd5b6154178b838c016152bb565b945060a08a013591508082111561542d57600080fd5b6154398b838c016152bb565b935060c08a013591508082111561544f57600080fd5b5061545c8a828b01615208565b91505092959891949750929550565b6000806040838503121561547e57600080fd5b823561548981615065565b9150602083013567ffffffffffffffff8111156154a557600080fd5b8301601f810185136154b657600080fd5b6154c585823560208401615263565b9150509250929050565b6000602082840312156154e157600080fd5b5035919050565b600080604083850312156154fb57600080fd5b823561550681615065565b915061551460208401615185565b90509250929050565b6000806040838503121561553057600080fd5b823561553b81615065565b946020939093013593505050565b602080825282516001600160a01b031682820152828101516060604084015280516080840181905260009291820190839060a08601905b808310156155a357835160ff168252928401926001929092019190840190615580565b5060ff60408801511660608701528094505050505092915050565b600080602083850312156155d157600080fd5b823567ffffffffffffffff808211156155e957600080fd5b818501915085601f8301126155fd57600080fd5b81358181111561560c57600080fd5b8660208260051b850101111561562157600080fd5b60209290920196919550909350505050565b60006020828403121561564557600080fd5b6112b382615185565b60005b83811015615669578181015183820152602001615651565b50506000910152565b6000815180845261568a81602086016020860161564e565b601f01601f19169290920160200192915050565b60ff8816815286602082015285604082015284606082015260e0608082015260006156cc60e0830186615672565b82810360a08401526156de8186615672565b9150508260c083015298975050505050505050565b60008060006060848603121561570857600080fd5b61571184615185565b925061571f60208501615038565b915061572d60408501615038565b90509250925092565b600081518084526020808501945080840160005b8381101561576f5781516001600160a01b03168752958201959082019060010161574a565b509495945050505050565b60408152600061578d6040830185615736565b905061ffff831660208301529392505050565b6080815260006157b36080830187615736565b85602084015282810360408401526157cb8186615736565b91505082606083015295945050505050565b600081518084526020808501945080840160005b8381101561576f578151875295820195908201906001016157f1565b602081526158276020820183516001600160a01b03169052565b60006020830151610160806040850152615845610180850183615736565b91506040850151601f19808685030160608701526158638483615736565b9350606087015191508086850301608087015261588084836157dd565b9350608087015160a087015260a087015160c087015260c087015160e087015260e087015191506101008187860301818801526158bd85846157dd565b9450808801519250506101208187860301818801526158dc85846157dd565b9450808801519250506101408187860301818801526158fb85846157dd565b945080880151925050506159128286018215159052565b5090949350505050565b84815260806020820152600061593560808301866157dd565b6040830194909452506001600160a01b039190911660609091015292915050565b60006020828403121561596857600080fd5b815180151581146112b357600080fd5b60006020828403121561598a57600080fd5b81516112b381615065565b634e487b7160e01b600052603260045260246000fd5b634e487b7160e01b600052601160045260246000fd5b8082018082111561085d5761085d6159ab565b6000600182016159e6576159e66159ab565b5060010190565b6020808252601190820152702cb7ba9030b932903737ba1030b236b4b760791b604082015260600190565b600181811c90821680615a2c57607f821691505b6020821081036142a457634e487b7160e01b600052602260045260246000fd5b601f8211156119be57600081815260208120601f850160051c81016020861015615a735750805b601f850160051c820191505b81811015615a9257828155600101615a7f565b505050505050565b815167ffffffffffffffff811115615ab457615ab461511a565b615ac881615ac28454615a18565b84615a4c565b602080601f831160018114615afd5760008415615ae55750858301515b600019600386901b1c1916600185901b178555615a92565b600085815260208120601f198616915b82811015615b2c57888601518255948401946001909101908401615b0d565b5085821015615b4a5787850151600019600388901b60f8161c191681555b5050505050600190811b01905550565b6020808252602c908201527f46756e6374696f6e206d7573742062652063616c6c6564207468726f7567682060408201526b19195b1959d85d1958d85b1b60a21b606082015260800190565b6020808252602c908201527f46756e6374696f6e206d7573742062652063616c6c6564207468726f7567682060408201526b6163746976652070726f787960a01b606082015260800190565b600061ffff808316818103615c0957615c096159ab565b6001019392505050565b8181038181111561085d5761085d6159ab565b600060ff821660ff8103615c3c57615c3c6159ab565b60010192915050565b808202811582820484141761085d5761085d6159ab565b634e487b7160e01b600052601260045260246000fd5b600082615c8157615c81615c5c565b500490565b600082615c9557615c95615c5c565b500690565b61ffff818116838216019080821115615cb557615cb56159ab565b5092915050565b600060208284031215615cce57600080fd5b5051919050565b6020808252602b908201527f496e697469616c697a61626c653a20636f6e7472616374206973206e6f74206960408201526a6e697469616c697a696e6760a81b606082015260800190565b61ffff828116828216039080821115615cb557615cb56159ab565b60008251615d4d81846020870161564e565b9190910192915050565b6020815260006112b3602083018461567256fe360894a13ba1a3210667c828492db98dca3e2076cc3735a920a3ca505d382bbc416464726573733a206c6f772d6c6576656c2064656c65676174652063616c6c206661696c6564a2646970667358221220d448ff8a8a56ef85e63f663d9d30049d7dbcc6c416270adc71c8feb9a6b0fe8664736f6c63430008110033",
  "linkReferences": {},
  "deployedLinkReferences": {}
}