{
  "_format": "hh-sol-artifact-1",
  "contractName": "ReferralUpgradeable",
  "sourceName": "contracts/ReferralUpgradeable.sol",
  "abi": [
    {
      "anonymous": false,
      "inputs": [
        {
          "indexed": false,
          "internalType": "address",
          "name": "previousAdmin",
          "type": "address"
        },
        {
          "indexed": false,
          "internalType": "address",
          "name": "newAdmin",
          "type": "address"
        }
      ],
      "name": "AdminChanged",
      "type": "event"
    },
    {
      "anonymous": false,
      "inputs": [
        {
          "indexed": true,
          "internalType": "address",
          "name": "beacon",
          "type": "address"
        }
      ],
      "name": "BeaconUpgraded",
      "type": "event"
    },
    {
      "anonymous": false,
      "inputs": [
        {
          "indexed": true,
          "internalType": "address",
          "name": "userAddressaddress",
          "type": "address"
        }
      ],
      "name": "CoreMemberAdded",
      "type": "event"
    },
    {
      "anonymous": false,
      "inputs": [
        {
          "indexed": false,
          "internalType": "address",
          "name": "userAddress",
          "type": "address"
        }
      ],
      "name": "CoreMemberRemoved",
      "type": "event"
    },
    {
      "anonymous": false,
      "inputs": [
        {
          "indexed": true,
          "internalType": "uint256",
          "name": "value",
          "type": "uint256"
        },
        {
          "indexed": true,
          "internalType": "address",
          "name": "userAddress",
          "type": "address"
        }
      ],
      "name": "CoreMemberRewardPaid",
      "type": "event"
    },
    {
      "anonymous": false,
      "inputs": [
        {
          "indexed": false,
          "internalType": "address",
          "name": "userAddress",
          "type": "address"
        }
      ],
      "name": "GlobalAddressAdded",
      "type": "event"
    },
    {
      "anonymous": false,
      "inputs": [
        {
          "indexed": false,
          "internalType": "address",
          "name": "userAddress",
          "type": "address"
        }
      ],
      "name": "GlobalAddressRemoved",
      "type": "event"
    },
    {
      "anonymous": false,
      "inputs": [
        {
          "indexed": false,
          "internalType": "uint256",
          "name": "value",
          "type": "uint256"
        },
        {
          "indexed": false,
          "internalType": "address",
          "name": "userAddress",
          "type": "address"
        }
      ],
      "name": "GlobalRewardPaid",
      "type": "event"
    },
    {
      "anonymous": false,
      "inputs": [
        {
          "indexed": false,
          "internalType": "uint8",
          "name": "version",
          "type": "uint8"
        }
      ],
      "name": "Initialized",
      "type": "event"
    },
    {
      "anonymous": false,
      "inputs": [
        {
          "indexed": true,
          "internalType": "address",
          "name": "previousOwner",
          "type": "address"
        },
        {
          "indexed": true,
          "internalType": "address",
          "name": "newOwner",
          "type": "address"
        }
      ],
      "name": "OwnershipTransferred",
      "type": "event"
    },
    {
      "anonymous": false,
      "inputs": [
        {
          "indexed": true,
          "internalType": "uint256",
          "name": "value",
          "type": "uint256"
        },
        {
          "indexed": true,
          "internalType": "address",
          "name": "userAddress",
          "type": "address"
        }
      ],
      "name": "PassiveRewardPaid",
      "type": "event"
    },
    {
      "anonymous": false,
      "inputs": [
        {
          "indexed": false,
          "internalType": "address",
          "name": "account",
          "type": "address"
        }
      ],
      "name": "Paused",
      "type": "event"
    },
    {
      "anonymous": false,
      "inputs": [
        {
          "indexed": true,
          "internalType": "address",
          "name": "referee",
          "type": "address"
        },
        {
          "indexed": true,
          "internalType": "address",
          "name": "referrer",
          "type": "address"
        },
        {
          "indexed": true,
          "internalType": "uint256",
          "name": "amount",
          "type": "uint256"
        },
        {
          "indexed": false,
          "internalType": "uint256",
          "name": "level",
          "type": "uint256"
        },
        {
          "indexed": false,
          "internalType": "string",
          "name": "currency",
          "type": "string"
        }
      ],
      "name": "ReferralRewardPaid",
      "type": "event"
    },
    {
      "anonymous": false,
      "inputs": [
        {
          "indexed": true,
          "internalType": "address",
          "name": "referee",
          "type": "address"
        },
        {
          "indexed": true,
          "internalType": "address",
          "name": "referrer",
          "type": "address"
        },
        {
          "indexed": true,
          "internalType": "string",
          "name": "reason",
          "type": "string"
        }
      ],
      "name": "RegisterRefererFailed",
      "type": "event"
    },
    {
      "anonymous": false,
      "inputs": [
        {
          "indexed": true,
          "internalType": "address",
          "name": "referee",
          "type": "address"
        },
        {
          "indexed": true,
          "internalType": "address",
          "name": "referrer",
          "type": "address"
        }
      ],
      "name": "RegisteredReferer",
      "type": "event"
    },
    {
      "anonymous": false,
      "inputs": [
        {
          "indexed": true,
          "internalType": "address",
          "name": "parent",
          "type": "address"
        },
        {
          "indexed": true,
          "internalType": "address",
          "name": "referrer",
          "type": "address"
        },
        {
          "indexed": true,
          "internalType": "address",
          "name": "referee",
          "type": "address"
        }
      ],
      "name": "RegisteredTeamAddress",
      "type": "event"
    },
    {
      "anonymous": false,
      "inputs": [
        {
          "indexed": false,
          "internalType": "address",
          "name": "userAddress",
          "type": "address"
        },
        {
          "indexed": false,
          "internalType": "uint8",
          "name": "rewardId",
          "type": "uint8"
        }
      ],
      "name": "RewardAccountAdded",
      "type": "event"
    },
    {
      "anonymous": false,
      "inputs": [
        {
          "indexed": false,
          "internalType": "address",
          "name": "userAddress",
          "type": "address"
        },
        {
          "indexed": false,
          "internalType": "uint8",
          "name": "rewardId",
          "type": "uint8"
        }
      ],
      "name": "RewardAccountPaid",
      "type": "event"
    },
    {
      "anonymous": false,
      "inputs": [
        {
          "indexed": false,
          "internalType": "uint8",
          "name": "id",
          "type": "uint8"
        },
        {
          "indexed": false,
          "internalType": "uint256",
          "name": "selfBusinessLimit",
          "type": "uint256"
        },
        {
          "indexed": false,
          "internalType": "uint256",
          "name": "directBusinessLimit",
          "type": "uint256"
        },
        {
          "indexed": false,
          "internalType": "uint256",
          "name": "teamBusinessLimit",
          "type": "uint256"
        },
        {
          "indexed": false,
          "internalType": "string",
          "name": "rankName",
          "type": "string"
        },
        {
          "indexed": false,
          "internalType": "string",
          "name": "rewardName",
          "type": "string"
        },
        {
          "indexed": false,
          "internalType": "uint256",
          "name": "appraisal",
          "type": "uint256"
        }
      ],
      "name": "RewardAdded",
      "type": "event"
    },
    {
      "anonymous": false,
      "inputs": [
        {
          "indexed": false,
          "internalType": "address",
          "name": "account",
          "type": "address"
        }
      ],
      "name": "Unpaused",
      "type": "event"
    },
    {
      "anonymous": false,
      "inputs": [
        {
          "indexed": true,
          "internalType": "address",
          "name": "implementation",
          "type": "address"
        }
      ],
      "name": "Upgraded",
      "type": "event"
    },
    {
      "inputs": [
        {
          "internalType": "address[]",
          "name": "_userAddress",
          "type": "address[]"
        },
        {
          "internalType": "address[]",
          "name": "_referrerAddress",
          "type": "address[]"
        }
      ],
      "name": "addReferrerAdmin",
      "outputs": [],
      "stateMutability": "nonpayable",
      "type": "function"
    },
    {
      "inputs": [
        {
          "internalType": "address",
          "name": "",
          "type": "address"
        }
      ],
      "name": "addressToId",
      "outputs": [
        {
          "internalType": "uint16",
          "name": "",
          "type": "uint16"
        }
      ],
      "stateMutability": "view",
      "type": "function"
    },
    {
      "inputs": [],
      "name": "contractDefaults",
      "outputs": [
        {
          "internalType": "uint256",
          "name": "levelDecimals",
          "type": "uint256"
        },
        {
          "internalType": "uint256[]",
          "name": "levelRates",
          "type": "uint256[]"
        },
        {
          "internalType": "uint256",
          "name": "totalLevelRate",
          "type": "uint256"
        },
        {
          "internalType": "address",
          "name": "defaultReferrer",
          "type": "address"
        }
      ],
      "stateMutability": "view",
      "type": "function"
    },
    {
      "inputs": [
        {
          "internalType": "uint8",
          "name": "_rewardId",
          "type": "uint8"
        },
        {
          "internalType": "uint16",
          "name": "_from",
          "type": "uint16"
        },
        {
          "internalType": "uint16",
          "name": "_to",
          "type": "uint16"
        }
      ],
      "name": "getRewardQualifiedUsers",
      "outputs": [
        {
          "internalType": "address[]",
          "name": "_userAddress",
          "type": "address[]"
        },
        {
          "internalType": "uint16",
          "name": "_achieversListCount",
          "type": "uint16"
        }
      ],
      "stateMutability": "view",
      "type": "function"
    },
    {
      "inputs": [
        {
          "internalType": "address",
          "name": "_userAddress",
          "type": "address"
        }
      ],
      "name": "getTeamBusinessToQualifyRewards",
      "outputs": [
        {
          "internalType": "uint256",
          "name": "mainBusiness",
          "type": "uint256"
        },
        {
          "internalType": "uint256",
          "name": "otherBusiness",
          "type": "uint256"
        }
      ],
      "stateMutability": "view",
      "type": "function"
    },
    {
      "inputs": [
        {
          "internalType": "address",
          "name": "_address",
          "type": "address"
        }
      ],
      "name": "getUserAccount",
      "outputs": [
        {
          "components": [
            {
              "internalType": "address",
              "name": "referrer",
              "type": "address"
            },
            {
              "internalType": "address[]",
              "name": "referee",
              "type": "address[]"
            },
            {
              "internalType": "address[]",
              "name": "team",
              "type": "address[]"
            },
            {
              "internalType": "uint256[]",
              "name": "topUp",
              "type": "uint256[]"
            },
            {
              "internalType": "uint256",
              "name": "selfBusiness",
              "type": "uint256"
            },
            {
              "internalType": "uint256",
              "name": "directBusiness",
              "type": "uint256"
            },
            {
              "internalType": "uint256",
              "name": "totalBusiness",
              "type": "uint256"
            },
            {
              "internalType": "uint256[]",
              "name": "rewardsPaidReferral",
              "type": "uint256[]"
            },
            {
              "internalType": "uint256[]",
              "name": "rewardsPaidGlobal",
              "type": "uint256[]"
            },
            {
              "internalType": "uint256[]",
              "name": "rewardPaidPassive",
              "type": "uint256[]"
            },
            {
              "internalType": "bool",
              "name": "isInGlobalID",
              "type": "bool"
            }
          ],
          "internalType": "struct ReferralUpgradeable.Account",
          "name": "userAccount",
          "type": "tuple"
        }
      ],
      "stateMutability": "view",
      "type": "function"
    },
    {
      "inputs": [
        {
          "internalType": "address",
          "name": "_address",
          "type": "address"
        }
      ],
      "name": "getUserReferrerAddress",
      "outputs": [
        {
          "internalType": "address",
          "name": "referrer",
          "type": "address"
        }
      ],
      "stateMutability": "view",
      "type": "function"
    },
    {
      "inputs": [
        {
          "internalType": "address",
          "name": "_userAddress",
          "type": "address"
        }
      ],
      "name": "getUserRewardAccount",
      "outputs": [
        {
          "components": [
            {
              "internalType": "address",
              "name": "userAdddress",
              "type": "address"
            },
            {
              "internalType": "uint8[]",
              "name": "rewardId",
              "type": "uint8[]"
            },
            {
              "internalType": "uint8",
              "name": "lastRewardId",
              "type": "uint8"
            }
          ],
          "internalType": "struct ReferralUpgradeable.RewardsAccount",
          "name": "",
          "type": "tuple"
        }
      ],
      "stateMutability": "view",
      "type": "function"
    },
    {
      "inputs": [
        {
          "internalType": "address",
          "name": "_userAddress",
          "type": "address"
        }
      ],
      "name": "getUserRewardQualified",
      "outputs": [
        {
          "internalType": "uint8",
          "name": "rewardId",
          "type": "uint8"
        }
      ],
      "stateMutability": "view",
      "type": "function"
    },
    {
      "inputs": [
        {
          "internalType": "address",
          "name": "_address",
          "type": "address"
        }
      ],
      "name": "getUserTeam",
      "outputs": [
        {
          "internalType": "address[]",
          "name": "userReferee",
          "type": "address[]"
        },
        {
          "internalType": "uint256",
          "name": "userRefereeCount",
          "type": "uint256"
        },
        {
          "internalType": "address[]",
          "name": "userTeamAddress",
          "type": "address[]"
        },
        {
          "internalType": "uint256",
          "name": "userTeamCount",
          "type": "uint256"
        }
      ],
      "stateMutability": "view",
      "type": "function"
    },
    {
      "inputs": [
        {
          "internalType": "address",
          "name": "_userAddress",
          "type": "address"
        }
      ],
      "name": "getUserTopUpForRewards",
      "outputs": [
        {
          "internalType": "uint256",
          "name": "",
          "type": "uint256"
        }
      ],
      "stateMutability": "view",
      "type": "function"
    },
    {
      "inputs": [
        {
          "internalType": "address",
          "name": "_address",
          "type": "address"
        }
      ],
      "name": "getUserTotalBusiness",
      "outputs": [
        {
          "internalType": "uint256",
          "name": "selfBusiness",
          "type": "uint256"
        },
        {
          "internalType": "uint256",
          "name": "directBusiness",
          "type": "uint256"
        },
        {
          "internalType": "uint256",
          "name": "refereeTeamBusiness",
          "type": "uint256"
        },
        {
          "internalType": "uint256",
          "name": "totalBusiness",
          "type": "uint256"
        }
      ],
      "stateMutability": "view",
      "type": "function"
    },
    {
      "inputs": [
        {
          "internalType": "address",
          "name": "_address",
          "type": "address"
        }
      ],
      "name": "getUserTotalRewardPaid",
      "outputs": [
        {
          "internalType": "uint256",
          "name": "rewardsAUSD",
          "type": "uint256"
        },
        {
          "internalType": "uint256",
          "name": "rewardsGlobal",
          "type": "uint256"
        },
        {
          "internalType": "uint256",
          "name": "rewardsPassive",
          "type": "uint256"
        }
      ],
      "stateMutability": "view",
      "type": "function"
    },
    {
      "inputs": [],
      "name": "getVariablesContract",
      "outputs": [
        {
          "internalType": "address",
          "name": "",
          "type": "address"
        }
      ],
      "stateMutability": "view",
      "type": "function"
    },
    {
      "inputs": [
        {
          "internalType": "address",
          "name": "_address",
          "type": "address"
        }
      ],
      "name": "hasReferrer",
      "outputs": [
        {
          "internalType": "bool",
          "name": "",
          "type": "bool"
        }
      ],
      "stateMutability": "view",
      "type": "function"
    },
    {
      "inputs": [
        {
          "internalType": "uint16",
          "name": "",
          "type": "uint16"
        }
      ],
      "name": "idToAddress",
      "outputs": [
        {
          "internalType": "address",
          "name": "",
          "type": "address"
        }
      ],
      "stateMutability": "view",
      "type": "function"
    },
    {
      "inputs": [
        {
          "internalType": "address[]",
          "name": "_userAddress",
          "type": "address[]"
        }
      ],
      "name": "includeUsersInList",
      "outputs": [],
      "stateMutability": "nonpayable",
      "type": "function"
    },
    {
      "inputs": [],
      "name": "initialize",
      "outputs": [],
      "stateMutability": "nonpayable",
      "type": "function"
    },
    {
      "inputs": [],
      "name": "owner",
      "outputs": [
        {
          "internalType": "address",
          "name": "",
          "type": "address"
        }
      ],
      "stateMutability": "view",
      "type": "function"
    },
    {
      "inputs": [],
      "name": "paused",
      "outputs": [
        {
          "internalType": "bool",
          "name": "",
          "type": "bool"
        }
      ],
      "stateMutability": "view",
      "type": "function"
    },
    {
      "inputs": [
        {
          "internalType": "uint256",
          "name": "_valueInUSD",
          "type": "uint256"
        },
        {
          "internalType": "address",
          "name": "_userAddress",
          "type": "address"
        },
        {
          "internalType": "address",
          "name": "_referrerAddress",
          "type": "address"
        }
      ],
      "name": "payReferralANUSDAdmin",
      "outputs": [],
      "stateMutability": "nonpayable",
      "type": "function"
    },
    {
      "inputs": [],
      "name": "proxiableUUID",
      "outputs": [
        {
          "internalType": "bytes32",
          "name": "",
          "type": "bytes32"
        }
      ],
      "stateMutability": "view",
      "type": "function"
    },
    {
      "inputs": [],
      "name": "renounceOwnership",
      "outputs": [],
      "stateMutability": "nonpayable",
      "type": "function"
    },
    {
      "inputs": [
        {
          "internalType": "address",
          "name": "",
          "type": "address"
        }
      ],
      "name": "rewardAccount",
      "outputs": [
        {
          "internalType": "address",
          "name": "userAdddress",
          "type": "address"
        },
        {
          "internalType": "uint8",
          "name": "lastRewardId",
          "type": "uint8"
        }
      ],
      "stateMutability": "view",
      "type": "function"
    },
    {
      "inputs": [
        {
          "internalType": "uint8",
          "name": "",
          "type": "uint8"
        }
      ],
      "name": "rewards",
      "outputs": [
        {
          "internalType": "uint8",
          "name": "id",
          "type": "uint8"
        },
        {
          "internalType": "uint256",
          "name": "selfBusinessLimit",
          "type": "uint256"
        },
        {
          "internalType": "uint256",
          "name": "directBusinessLimit",
          "type": "uint256"
        },
        {
          "internalType": "uint256",
          "name": "teamBusinessLimit",
          "type": "uint256"
        },
        {
          "internalType": "string",
          "name": "rankName",
          "type": "string"
        },
        {
          "internalType": "string",
          "name": "rewardName",
          "type": "string"
        },
        {
          "internalType": "uint256",
          "name": "appraisal",
          "type": "uint256"
        }
      ],
      "stateMutability": "view",
      "type": "function"
    },
    {
      "inputs": [
        {
          "internalType": "address payable",
          "name": "_address",
          "type": "address"
        }
      ],
      "name": "setDefaultReferrer",
      "outputs": [],
      "stateMutability": "nonpayable",
      "type": "function"
    },
    {
      "inputs": [
        {
          "internalType": "uint256",
          "name": "_value",
          "type": "uint256"
        }
      ],
      "name": "setLevelDecimals",
      "outputs": [
        {
          "internalType": "bool",
          "name": "",
          "type": "bool"
        }
      ],
      "stateMutability": "nonpayable",
      "type": "function"
    },
    {
      "inputs": [
        {
          "internalType": "uint256[]",
          "name": "_valueInArray",
          "type": "uint256[]"
        }
      ],
      "name": "setLevelRates",
      "outputs": [],
      "stateMutability": "nonpayable",
      "type": "function"
    },
    {
      "inputs": [
        {
          "internalType": "uint8[]",
          "name": "_id",
          "type": "uint8[]"
        },
        {
          "internalType": "uint256[]",
          "name": "_selfBusinessLimit",
          "type": "uint256[]"
        },
        {
          "internalType": "uint256[]",
          "name": "_directBusinessLimit",
          "type": "uint256[]"
        },
        {
          "internalType": "uint256[]",
          "name": "_teamBusinessLimit",
          "type": "uint256[]"
        },
        {
          "internalType": "string[]",
          "name": "_rankName",
          "type": "string[]"
        },
        {
          "internalType": "string[]",
          "name": "_rewardName",
          "type": "string[]"
        },
        {
          "internalType": "uint256[]",
          "name": "_appraisal",
          "type": "uint256[]"
        }
      ],
      "name": "setRewards",
      "outputs": [],
      "stateMutability": "nonpayable",
      "type": "function"
    },
    {
      "inputs": [],
      "name": "totalUsers",
      "outputs": [
        {
          "internalType": "uint16",
          "name": "",
          "type": "uint16"
        }
      ],
      "stateMutability": "view",
      "type": "function"
    },
    {
      "inputs": [
        {
          "internalType": "address",
          "name": "_address",
          "type": "address"
        },
        {
          "internalType": "uint256",
          "name": "_value",
          "type": "uint256"
        }
      ],
      "name": "transferNative",
      "outputs": [],
      "stateMutability": "nonpayable",
      "type": "function"
    },
    {
      "inputs": [
        {
          "internalType": "address",
          "name": "newOwner",
          "type": "address"
        }
      ],
      "name": "transferOwnership",
      "outputs": [],
      "stateMutability": "nonpayable",
      "type": "function"
    },
    {
      "inputs": [
        {
          "internalType": "address",
          "name": "_userAddress",
          "type": "address"
        },
        {
          "internalType": "uint8",
          "name": "_rewardId",
          "type": "uint8"
        }
      ],
      "name": "updateIfRewardPaidAdmin",
      "outputs": [],
      "stateMutability": "nonpayable",
      "type": "function"
    },
    {
      "inputs": [
        {
          "internalType": "address",
          "name": "newImplementation",
          "type": "address"
        }
      ],
      "name": "upgradeTo",
      "outputs": [],
      "stateMutability": "nonpayable",
      "type": "function"
    },
    {
      "inputs": [
        {
          "internalType": "address",
          "name": "newImplementation",
          "type": "address"
        },
        {
          "internalType": "bytes",
          "name": "data",
          "type": "bytes"
        }
      ],
      "name": "upgradeToAndCall",
      "outputs": [],
      "stateMutability": "payable",
      "type": "function"
    },
    {
      "inputs": [
        {
          "internalType": "uint256",
          "name": "",
          "type": "uint256"
        }
      ],
      "name": "usersList",
      "outputs": [
        {
          "internalType": "address",
          "name": "",
          "type": "address"
        }
      ],
      "stateMutability": "view",
      "type": "function"
    },
    {
      "stateMutability": "payable",
      "type": "receive"
    }
  ],
  "bytecode": "0x60a06040523060805234801561001457600080fd5b50608051615e9a6200004d60003960008181611750015281816117900152818161182f0152818161186f015261192d0152615e9a6000f3fe6080604052600436106102135760003560e01c806386f6630d11610118578063dcf6e819116100a0578063f13a143f1161006f578063f13a143f1461072b578063f2fde38b14610749578063faeda7e514610769578063fb47e01614610799578063fb5d4526146107c657600080fd5b8063dcf6e81914610670578063dd1ca71614610690578063e5ffb5df146106be578063ef519dc0146106f057600080fd5b80639b317cc4116100e75780639b317cc414610587578063a0760aff146105ba578063bff1f9e1146105ef578063cb0e0d7d1461061e578063cfbdb8591461065057600080fd5b806386f6630d146104fc5780638a93f7b9146105295780638da5cb5b146105495780638f3ddc9f1461056757600080fd5b806343b4ebf41161019b5780635c975abb1161016a5780635c975abb1461047a578063715018a614610492578063771aa216146104a75780637d2e90c2146104c75780638129fc1c146104e757600080fd5b806343b4ebf4146103f85780634f1ef28614610432578063502aa3b51461044557806352d1902d1461046557600080fd5b806325f1c91e116101e257806325f1c91e146103055780632bb5112d14610333578063345b5b851461039857806335166fef146103b85780633659cfe6146103d857600080fd5b8063025313ff1461021f57806318452cd814610273578063228159b4146102a35780632405091c146102c557600080fd5b3661021a57005b600080fd5b34801561022b57600080fd5b5061025661023a3660046150c3565b61010c602052600090815260409020546001600160a01b031681565b6040516001600160a01b0390911681526020015b60405180910390f35b34801561027f57600080fd5b5061029361028e3660046150f3565b6107eb565b604051901515815260200161026a565b3480156102af57600080fd5b506102c36102be366004615110565b610812565b005b3480156102d157600080fd5b506102e56102e03660046150f3565b610b06565b60408051948552602085019390935291830152606082015260800161026a565b34801561031157600080fd5b506103256103203660046150f3565b6110f5565b60405190815260200161026a565b34801561033f57600080fd5b5061037761034e3660046150f3565b61010a60205260009081526040902080546002909101546001600160a01b039091169060ff1682565b604080516001600160a01b03909316835260ff90911660208301520161026a565b3480156103a457600080fd5b506102c36103b336600461519d565b61138c565b3480156103c457600080fd5b506102c36103d3366004615410565b611425565b3480156103e457600080fd5b506102c36103f33660046150f3565b611746565b34801561040457600080fd5b506102566104133660046150f3565b6001600160a01b03908116600090815261010960205260409020541690565b6102c361044036600461552a565b611825565b34801561045157600080fd5b5061025661046036600461558d565b6118f5565b34801561047157600080fd5b50610325611920565b34801561048657600080fd5b5060335460ff16610293565b34801561049e57600080fd5b506102c36119d3565b3480156104b357600080fd5b506102c36104c23660046155a6565b6119e7565b3480156104d357600080fd5b506102c36104e23660046155db565b611aeb565b3480156104f357600080fd5b506102c3611b29565b34801561050857600080fd5b5061051c6105173660046150f3565b611d0f565b60405161026a9190615607565b34801561053557600080fd5b506102c361054436600461519d565b611df5565b34801561055557600080fd5b506065546001600160a01b0316610256565b34801561057357600080fd5b506102c361058236600461567c565b611ec9565b34801561059357600080fd5b506105a76105a23660046156e7565b612024565b60405161026a9796959493929190615752565b3480156105c657600080fd5b506105da6105d53660046150f3565b612176565b6040805192835260208301919091520161026a565b3480156105fb57600080fd5b5061010f5461060b9061ffff1681565b60405161ffff909116815260200161026a565b34801561062a57600080fd5b5061060b6106393660046150f3565b61010d6020526000908152604090205461ffff1681565b34801561065c57600080fd5b5061029361066b36600461558d565b61271c565b34801561067c57600080fd5b506102c361068b3660046150f3565b6127ae565b34801561069c57600080fd5b506106b06106ab3660046157a7565b612859565b60405161026a92919061582e565b3480156106ca57600080fd5b506106de6106d93660046150f3565b612936565b60405160ff909116815260200161026a565b3480156106fc57600080fd5b5061071061070b3660046150f3565b612dc5565b6040805193845260208401929092529082015260600161026a565b34801561073757600080fd5b5060fb546001600160a01b0316610256565b34801561075557600080fd5b506102c36107643660046150f3565b612ee0565b34801561077557600080fd5b506107896107843660046150f3565b612f56565b60405161026a9493929190615854565b3480156107a557600080fd5b506107b96107b43660046150f3565b613043565b60405161026a91906158c1565b3480156107d257600080fd5b506107db613330565b60405161026a94939291906159d0565b6001600160a01b038082166000908152610109602052604081205490911615155b92915050565b336108256065546001600160a01b031690565b6001600160a01b0316816001600160a01b031614806108cb575060fb60009054906101000a90046001600160a01b03166001600160a01b03166363d9df856040518163ffffffff1660e01b8152600401602060405180830381865afa158015610892573d6000803e3d6000fd5b505050506040513d601f19601f820116820180604052508101906108b69190615a0a565b6001600160a01b0316816001600160a01b0316145b6109275760405162461bcd60e51b815260206004820152602260248201527f4f6e6c79206f776e65722063616e2063616c6c20746869732066756e6374696f604482015261371760f11b60648201526084015b60405180910390fd5b6001600160a01b03838116600090815261010960205260409020541615801561095857506001600160a01b03821615155b156109675761096783836133f7565b6001600160a01b03828116600090815261010960205260409020541615801561099857506001600160a01b03821615155b80156109b35750610100546001600160a01b03838116911614155b156109d057610100546109d09083906001600160a01b03166133f7565b6109da848461353f565b6109e66103e885615a53565b6040516370a0823160e01b8152306004820152737f9fd63932babc508fad2f324eb534d09cfe86f0906370a0823190602401602060405180830381865afa158015610a35573d6000803e3d6000fd5b505050506040513d601f19601f82011682018060405250810190610a599190615a67565b1115610af757737f9fd63932babc508fad2f324eb534d09cfe86f063a9059cbb84610a866103e888615a53565b6040516001600160e01b031960e085901b1681526001600160a01b03909216600483015260248201526044016020604051808303816000875af1158015610ad1573d6000803e3d6000fd5b505050506040513d601f19601f82011682018060405250810190610af59190615a80565b505b610b008361412f565b50505050565b6001600160a01b0381166000908152610109602052604081206001810154600482015492918291829190825b81811015610e095760006101096000856001018481548110610b5657610b56615aa2565b60009182526020808320909101546001600160a01b03908116845283820194909452604092830190912082516101608101845281549094168452600181018054845181850281018501909552808552919385840193909290830182828015610be757602002820191906000526020600020905b81546001600160a01b03168152600190910190602001808311610bc9575b5050505050815260200160028201805480602002602001604051908101604052809291908181526020018280548015610c4957602002820191906000526020600020905b81546001600160a01b03168152600190910190602001808311610c2b575b5050505050815260200160038201805480602002602001604051908101604052809291908181526020018280548015610ca157602002820191906000526020600020905b815481526020019060010190808311610c8d575b5050505050815260200160048201548152602001600582015481526020016006820154815260200160078201805480602002602001604051908101604052809291908181526020018280548015610d1757602002820191906000526020600020905b815481526020019060010190808311610d03575b5050505050815260200160088201805480602002602001604051908101604052809291908181526020018280548015610d6f57602002820191906000526020600020905b815481526020019060010190808311610d5b575b5050505050815260200160098201805480602002602001604051908101604052809291908181526020018280548015610dc757602002820191906000526020600020905b815481526020019060010190808311610db3575b5050509183525050600a919091015460ff1615156020909101526080810151909150610df39088615ab8565b9650508080610e0190615acb565b915050610b32565b5060005b818110156110e45760006101096000856001018481548110610e3157610e31615aa2565b60009182526020808320909101546001600160a01b03908116845283820194909452604092830190912082516101608101845281549094168452600181018054845181850281018501909552808552919385840193909290830182828015610ec257602002820191906000526020600020905b81546001600160a01b03168152600190910190602001808311610ea4575b5050505050815260200160028201805480602002602001604051908101604052809291908181526020018280548015610f2457602002820191906000526020600020905b81546001600160a01b03168152600190910190602001808311610f06575b5050505050815260200160038201805480602002602001604051908101604052809291908181526020018280548015610f7c57602002820191906000526020600020905b815481526020019060010190808311610f68575b5050505050815260200160048201548152602001600582015481526020016006820154815260200160078201805480602002602001604051908101604052809291908181526020018280548015610ff257602002820191906000526020600020905b815481526020019060010190808311610fde575b505050505081526020016008820180548060200260200160405190810160405280929190818152602001828054801561104a57602002820191906000526020600020905b815481526020019060010190808311611036575b50505050508152602001600982018054806020026020016040519081016040528092919081815260200182805480156110a257602002820191906000526020600020905b81548152602001906001019080831161108e575b5050509183525050600a919091015460ff16151560209091015260c08101519091506110ce9087615ab8565b95505080806110dc90615acb565b915050610e0d565b508160060154925050509193509193565b6001600160a01b03808216600090815261010960209081526040808320815161016081018352815490951685526001810180548351818602810186019094528084529495869590949293858401939092919083018282801561118057602002820191906000526020600020905b81546001600160a01b03168152600190910190602001808311611162575b50505050508152602001600282018054806020026020016040519081016040528092919081815260200182805480156111e257602002820191906000526020600020905b81546001600160a01b031681526001909101906020018083116111c4575b505050505081526020016003820180548060200260200160405190810160405280929190818152602001828054801561123a57602002820191906000526020600020905b815481526020019060010190808311611226575b50505050508152602001600482015481526020016005820154815260200160068201548152602001600782018054806020026020016040519081016040528092919081815260200182805480156112b057602002820191906000526020600020905b81548152602001906001019080831161129c575b505050505081526020016008820180548060200260200160405190810160405280929190818152602001828054801561130857602002820191906000526020600020905b8154815260200190600101908083116112f4575b505050505081526020016009820180548060200260200160405190810160405280929190818152602001828054801561136057602002820191906000526020600020905b81548152602001906001019080831161134c575b5050509183525050600a919091015460ff161515602090910152905061138581614226565b9392505050565b60fb54604051630935e01b60e21b81523360048201526001600160a01b03909116906324d7806c90602401602060405180830381865afa1580156113d4573d6000803e3d6000fd5b505050506040513d601f19601f820116820180604052508101906113f89190615a80565b6114145760405162461bcd60e51b815260040161091e90615ae4565b61142060fc8383615011565b505050565b60fb54604051630935e01b60e21b81523360048201526001600160a01b03909116906324d7806c90602401602060405180830381865afa15801561146d573d6000803e3d6000fd5b505050506040513d601f19601f820116820180604052508101906114919190615a80565b6114ad5760405162461bcd60e51b815260040161091e90615ae4565b60005b875181101561173c576040518060e001604052808983815181106114d6576114d6615aa2565b602002602001015160ff1681526020018883815181106114f8576114f8615aa2565b6020026020010151815260200187838151811061151757611517615aa2565b6020026020010151815260200186838151811061153657611536615aa2565b6020026020010151815260200185838151811061155557611555615aa2565b6020026020010151815260200184838151811061157457611574615aa2565b6020026020010151815260200183838151811061159357611593615aa2565b602002602001015181525061010b60008a84815181106115b5576115b5615aa2565b60209081029190910181015160ff90811683528282019390935260409182016000208451815460ff191694169390931783558301516001830155820151600282015560608201516003820155608082015160048201906116159082615b91565b5060a0820151600582019061162a9082615b91565b5060c082015181600601559050507fb9f30bf0ab6748f3fcfbc9d280ed1feedea51276343f55f8342b8c453b876e9a88828151811061166b5761166b615aa2565b602002602001015188838151811061168557611685615aa2565b602002602001015188848151811061169f5761169f615aa2565b60200260200101518885815181106116b9576116b9615aa2565b60200260200101518886815181106116d3576116d3615aa2565b60200260200101518887815181106116ed576116ed615aa2565b602002602001015188888151811061170757611707615aa2565b60200260200101516040516117229796959493929190615752565b60405180910390a18061173481615acb565b9150506114b0565b5050505050505050565b6001600160a01b037f000000000000000000000000000000000000000000000000000000000000000016300361178e5760405162461bcd60e51b815260040161091e90615c50565b7f00000000000000000000000000000000000000000000000000000000000000006001600160a01b03166117d7600080516020615e1e833981519152546001600160a01b031690565b6001600160a01b0316146117fd5760405162461bcd60e51b815260040161091e90615c9c565b61180681614290565b6040805160008082526020820190925261182291839190614298565b50565b6001600160a01b037f000000000000000000000000000000000000000000000000000000000000000016300361186d5760405162461bcd60e51b815260040161091e90615c50565b7f00000000000000000000000000000000000000000000000000000000000000006001600160a01b03166118b6600080516020615e1e833981519152546001600160a01b031690565b6001600160a01b0316146118dc5760405162461bcd60e51b815260040161091e90615c9c565b6118e582614290565b6118f182826001614298565b5050565b61010e818154811061190657600080fd5b6000918252602090912001546001600160a01b0316905081565b6000306001600160a01b037f000000000000000000000000000000000000000000000000000000000000000016146119c05760405162461bcd60e51b815260206004820152603860248201527f555550535570677261646561626c653a206d757374206e6f742062652063616c60448201527f6c6564207468726f7567682064656c656761746563616c6c0000000000000000606482015260840161091e565b50600080516020615e1e83398151915290565b6119db614403565b6119e5600061445d565b565b60fb54604051630935e01b60e21b81523360048201526001600160a01b03909116906324d7806c90602401602060405180830381865afa158015611a2f573d6000803e3d6000fd5b505050506040513d601f19601f82011682018060405250810190611a539190615a80565b611a6f5760405162461bcd60e51b815260040161091e90615ae4565b6001600160a01b03808316600090815261010a602052604090208054909116611aac5780546001600160a01b0319166001600160a01b0384161781555b600190810180549182018155600090815260209081902090820401805460ff938416601f9093166101000a928302939092021990911691909117905550565b611af3614403565b6040516001600160a01b0383169082156108fc029083906000818181858888f19350505050158015611420573d6000803e3d6000fd5b600054610100900460ff1615808015611b495750600054600160ff909116105b80611b635750303b158015611b63575060005460ff166001145b611bc65760405162461bcd60e51b815260206004820152602e60248201527f496e697469616c697a61626c653a20636f6e747261637420697320616c72656160448201526d191e481a5b9a5d1a585b1a5e995960921b606482015260840161091e565b6000805460ff191660011790558015611be9576000805461ff0019166101001790555b60fb80546001600160a01b03199081167377daafc7411c911b869c71bf70fe36cce507845d17909155610100805490911673f3ba579d4afd4dad8a8c2d1bcbdd1405688e492f1790556040805160e0810182526007808252600460208301526003928201929092526002606082015260016080820181905260a0820181905260c0820152611c7a9160fc919061505c565b50606460fd5560146101065569011478b7c30abc3000006101035560046101015560056101045568a80d24677efef0000061010555611cb76144af565b611cbf6144de565b611cc761450d565b8015611822576000805461ff0019169055604051600181527f7f26b83ff96e1f2b6a682f133852f6798a09c465da95921460cefb38474024989060200160405180910390a150565b611d3f604051806060016040528060006001600160a01b0316815260200160608152602001600060ff1681525090565b6001600160a01b03808316600090815261010a6020908152604091829020825160608101845281549094168452600181018054845181850281018501909552808552919385840193909290830182828015611dd757602002820191906000526020600020906000905b825461010083900a900460ff16815260206001928301818104948501949093039092029101808411611da85790505b50505091835250506002919091015460ff1660209091015292915050565b60fb54604051630935e01b60e21b81523360048201526001600160a01b03909116906324d7806c90602401602060405180830381865afa158015611e3d573d6000803e3d6000fd5b505050506040513d601f19601f82011682018060405250810190611e619190615a80565b611e7d5760405162461bcd60e51b815260040161091e90615ae4565b60005b8181101561142057611eb7838383818110611e9d57611e9d615aa2565b9050602002016020810190611eb291906150f3565b61412f565b80611ec181615acb565b915050611e80565b60fb54604051630935e01b60e21b81523360048201526001600160a01b03909116906324d7806c90602401602060405180830381865afa158015611f11573d6000803e3d6000fd5b505050506040513d601f19601f82011682018060405250810190611f359190615a80565b611f515760405162461bcd60e51b815260040161091e90615ae4565b828114611faa5760405162461bcd60e51b815260206004820152602160248201527f4c656e677468206973206e6f7420657175616c20706c6561736520636865636b6044820152601760f91b606482015260840161091e565b60005b8381101561201d5761200b858583818110611fca57611fca615aa2565b9050602002016020810190611fdf91906150f3565b848484818110611ff157611ff1615aa2565b905060200201602081019061200691906150f3565b6133f7565b8061201581615acb565b915050611fad565b5050505050565b61010b602052600090815260409020805460018201546002830154600384015460048501805460ff9095169593949293919261205f90615b0f565b80601f016020809104026020016040519081016040528092919081815260200182805461208b90615b0f565b80156120d85780601f106120ad576101008083540402835291602001916120d8565b820191906000526020600020905b8154815290600101906020018083116120bb57829003601f168201915b5050505050908060050180546120ed90615b0f565b80601f016020809104026020016040519081016040528092919081815260200182805461211990615b0f565b80156121665780601f1061213b57610100808354040283529160200191612166565b820191906000526020600020905b81548152906001019060200180831161214957829003601f168201915b5050505050908060060154905087565b6001600160a01b0380821660009081526101096020908152604080832081516101608101835281549095168552600181018054835181860281018601909452808452949586958695919485830193909290919083018282801561220257602002820191906000526020600020905b81546001600160a01b031681526001909101906020018083116121e4575b505050505081526020016002820180548060200260200160405190810160405280929190818152602001828054801561226457602002820191906000526020600020905b81546001600160a01b03168152600190910190602001808311612246575b50505050508152602001600382018054806020026020016040519081016040528092919081815260200182805480156122bc57602002820191906000526020600020905b8154815260200190600101908083116122a8575b505050505081526020016004820154815260200160058201548152602001600682015481526020016007820180548060200260200160405190810160405280929190818152602001828054801561233257602002820191906000526020600020905b81548152602001906001019080831161231e575b505050505081526020016008820180548060200260200160405190810160405280929190818152602001828054801561238a57602002820191906000526020600020905b815481526020019060010190808311612376575b50505050508152602001600982018054806020026020016040519081016040528092919081815260200182805480156123e257602002820191906000526020600020905b8154815260200190600101908083116123ce575b5050509183525050600a919091015460ff161515602091820152810151519091506000906002116127155760005b8260200151518161ffff161015612707576000610109600085602001518461ffff168151811061244257612442615aa2565b6020908102919091018101516001600160a01b039081168352828201939093526040918201600020825161016081018452815490941684526001810180548451818502810185019095528085529193858401939092908301828280156124d157602002820191906000526020600020905b81546001600160a01b031681526001909101906020018083116124b3575b505050505081526020016002820180548060200260200160405190810160405280929190818152602001828054801561253357602002820191906000526020600020905b81546001600160a01b03168152600190910190602001808311612515575b505050505081526020016003820180548060200260200160405190810160405280929190818152602001828054801561258b57602002820191906000526020600020905b815481526020019060010190808311612577575b505050505081526020016004820154815260200160058201548152602001600682015481526020016007820180548060200260200160405190810160405280929190818152602001828054801561260157602002820191906000526020600020905b8154815260200190600101908083116125ed575b505050505081526020016008820180548060200260200160405190810160405280929190818152602001828054801561265957602002820191906000526020600020905b815481526020019060010190808311612645575b50505050508152602001600982018054806020026020016040519081016040528092919081815260200182805480156126b157602002820191906000526020600020905b81548152602001906001019080831161269d575b5050509183525050600a919091015460ff16151560209091015260c08101519091508610156126e2578060c0015195505b60c08101516126f19084615ab8565b92505080806126ff90615ce8565b915050612410565b506127128482615d09565b92505b5050915091565b60fb54604051630935e01b60e21b81523360048201526000916001600160a01b0316906324d7806c90602401602060405180830381865afa158015612765573d6000803e3d6000fd5b505050506040513d601f19601f820116820180604052508101906127899190615a80565b6127a55760405162461bcd60e51b815260040161091e90615ae4565b5060fd55600190565b60fb54604051630935e01b60e21b81523360048201526001600160a01b03909116906324d7806c90602401602060405180830381865afa1580156127f6573d6000803e3d6000fd5b505050506040513d601f19601f8201168201806040525081019061281a9190615a80565b6128365760405162461bcd60e51b815260040161091e90615ae4565b61010080546001600160a01b0319166001600160a01b0392909216919091179055565b6060600080600061286b878787614534565b915091508092508061ffff166001600160401b0381111561288e5761288e6151de565b6040519080825280602002602001820160405280156128b7578160200160208202803683370190505b50935060005b8161ffff168161ffff16101561292b57828161ffff16815181106128e3576128e3615aa2565b6020026020010151858261ffff168151811061290157612901615aa2565b6001600160a01b03909216602092830291909101909101528061292381615ce8565b9150506128bd565b505050935093915050565b6001600160a01b0380821660009081526101096020908152604080832081516101608101835281549095168552600181018054835181860281018601909452808452949586959094929385840193909291908301828280156129c157602002820191906000526020600020905b81546001600160a01b031681526001909101906020018083116129a3575b5050505050815260200160028201805480602002602001604051908101604052809291908181526020018280548015612a2357602002820191906000526020600020905b81546001600160a01b03168152600190910190602001808311612a05575b5050505050815260200160038201805480602002602001604051908101604052809291908181526020018280548015612a7b57602002820191906000526020600020905b815481526020019060010190808311612a67575b5050505050815260200160048201548152602001600582015481526020016006820154815260200160078201805480602002602001604051908101604052809291908181526020018280548015612af157602002820191906000526020600020905b815481526020019060010190808311612add575b5050505050815260200160088201805480602002602001604051908101604052809291908181526020018280548015612b4957602002820191906000526020600020905b815481526020019060010190808311612b35575b5050505050815260200160098201805480602002602001604051908101604052809291908181526020018280548015612ba157602002820191906000526020600020905b815481526020019060010190808311612b8d575b5050509183525050600a919091015460ff161515602090910152905060005b60148160ff161015612dbe5760ff808216600090815261010b60209081526040808320815160e0810183528154909516855260018101549285019290925260028201549084015260038101546060840152600481018054929392608084019190612c2990615b0f565b80601f0160208091040260200160405190810160405280929190818152602001828054612c5590615b0f565b8015612ca25780601f10612c7757610100808354040283529160200191612ca2565b820191906000526020600020905b815481529060010190602001808311612c8557829003601f168201915b50505050508152602001600582018054612cbb90615b0f565b80601f0160208091040260200160405190810160405280929190818152602001828054612ce790615b0f565b8015612d345780601f10612d0957610100808354040283529160200191612d34565b820191906000526020600020905b815481529060010190602001808311612d1757829003601f168201915b50505050508152602001600682015481525050905060028260ff16118015612d5e57506020810151155b15612d695750612dbe565b8060200151612d7784614226565b10158015612d8d575080604001518360a0015110155b8015612da25750612da2838260600151614a43565b15612dab578193505b5080612db681615d1c565b915050612bc0565b5050919050565b6001600160a01b0381166000908152610109602052604081206007810154600882015460098301548493849390929091845b83811015612e3e57846007018181548110612e1457612e14615aa2565b906000526020600020015488612e2a9190615ab8565b975080612e3681615acb565b915050612df7565b5060005b82811015612e8957846008018181548110612e5f57612e5f615aa2565b906000526020600020015487612e759190615ab8565b965080612e8181615acb565b915050612e42565b5060005b81811015612ed457846009018181548110612eaa57612eaa615aa2565b906000526020600020015486612ec09190615ab8565b955080612ecc81615acb565b915050612e8d565b50505050509193909250565b612ee8614403565b6001600160a01b038116612f4d5760405162461bcd60e51b815260206004820152602660248201527f4f776e61626c653a206e6577206f776e657220697320746865207a65726f206160448201526564647265737360d01b606482015260840161091e565b6118228161445d565b6001600160a01b03811660009081526101096020908152604080832060018101805483518186028101860190945280845260609594869486949390929091830182828015612fcd57602002820191906000526020600020905b81546001600160a01b03168152600190910190602001808311612faf575b50505050509450845193508060020180548060200260200160405190810160405280929190818152602001828054801561303057602002820191906000526020600020905b81546001600160a01b03168152600190910190602001808311613012575b5050505050925082519150509193509193565b6130ab60405180610160016040528060006001600160a01b031681526020016060815260200160608152602001606081526020016000815260200160008152602001600081526020016060815260200160608152602001606081526020016000151581525090565b6001600160a01b03808316600090815261010960209081526040918290208251610160810184528154909416845260018101805484518185028101850190955280855291938584019390929083018282801561313057602002820191906000526020600020905b81546001600160a01b03168152600190910190602001808311613112575b505050505081526020016002820180548060200260200160405190810160405280929190818152602001828054801561319257602002820191906000526020600020905b81546001600160a01b03168152600190910190602001808311613174575b50505050508152602001600382018054806020026020016040519081016040528092919081815260200182805480156131ea57602002820191906000526020600020905b8154815260200190600101908083116131d6575b505050505081526020016004820154815260200160058201548152602001600682015481526020016007820180548060200260200160405190810160405280929190818152602001828054801561326057602002820191906000526020600020905b81548152602001906001019080831161324c575b50505050508152602001600882018054806020026020016040519081016040528092919081815260200182805480156132b857602002820191906000526020600020905b8154815260200190600101908083116132a4575b505050505081526020016009820180548060200260200160405190810160405280929190818152602001828054801561331057602002820191906000526020600020905b8154815260200190600101908083116132fc575b5050509183525050600a919091015460ff16151560209091015292915050565b60fd5460fc805460408051602080840282018101909252828152606093600093849383018282801561338157602002820191906000526020600020905b81548152602001906001019080831161336d575b505060fc549396506000925050505b818160ff1610156133db5760fc8160ff16815481106133b1576133b1615aa2565b9060005260206000200154846133c79190615ab8565b9350806133d381615d1c565b915050613390565b5050610100549394929391926001600160a01b03909216919050565b6001600160a01b038281166000818152610109602052604080822080546001600160a01b03191694861694851781559051909392917ffaf63637882ff2d63ca76881cf92fb857130e36f350c926f9cc884b499b42b7791a360fc5460005b8181101561201d5782546001600160a01b0316600090815261010960205260408120908290036134af576001818101805491820181556000908152602090200180546001600160a01b0319166001600160a01b0388161790555b83546001600160a01b03166134c4575061201d565b6002810180546001810182556000918252602082200180546001600160a01b0319166001600160a01b03898116918217909255865460405191938984169391909116917fb766b19465b3277b0b275adf79d715cac93166bf6e6a39f26e4ccfdec76ad47e9190a492508061353781615acb565b915050613455565b60fb546040805163b264bbab60e01b815290516001600160a01b0390921691600091839163b264bbab916004808201926020929091908290030181865afa15801561358e573d6000803e3d6000fd5b505050506040513d601f19601f820116820180604052508101906135b29190615a0a565b9050600060fc80548060200260200160405190810160405280929190818152602001828054801561360257602002820191906000526020600020905b8154815260200190600101908083116135ee575b5050506001600160a01b03871660009081526101096020908152604082206003810180546001810182559084529183209091018a905560048101805495965090948a9450909250613654908490615ab8565b909155505060405163a9415f5d60e01b81526001600160a01b0386811660048301526024820188905284169063a9415f5d90604401600060405180830381600087803b1580156136a357600080fd5b505af11580156136b7573d6000803e3d6000fd5b505050506000610106546001600160401b038111156136d8576136d86151de565b604051908082528060200260200182016040528015613701578160200160208202803683370190505b50905060008061010780548060200260200160405190810160405280929190818152602001828054801561375e57602002820191906000526020600020905b81546001600160a01b03168152600190910190602001808311613740575b505083519394506000925050505b61010654811015613b725785546001600160a01b03166000818152610109602052604090209061379c5750613b72565b8751821015613b0757600060648984815181106137bb576137bb615aa2565b60200260200101518e6137ce9190615d3b565b6137d89190615a53565b905082600003613861578c8260050160008282546137f69190615ab8565b9091555050875460405163169529b960e01b81526001600160a01b039182166004820152602481018f9052908b169063169529b990604401600060405180830381600087803b15801561384857600080fd5b505af115801561385c573d6000803e3d6000fd5b505050505b8c8260060160008282546138759190615ab8565b90915550508754604051637ad141e760e11b81526001600160a01b039182166004820152602481018f9052908b169063f5a283ce90604401600060405180830381600087803b1580156138c757600080fd5b505af11580156138db573d6000803e3d6000fd5b505050506007820180546001810182556000918252602082200182905560ff805483929061390a908490615ab8565b925050819055508a6001600160a01b031663b70cc4c16040518163ffffffff1660e01b8152600401602060405180830381865afa15801561394f573d6000803e3d6000fd5b505050506040513d601f19601f820116820180604052508101906139739190615a0a565b885460405163a9059cbb60e01b81526001600160a01b0391821660048201526024810184905291169063a9059cbb906044016020604051808303816000875af11580156139c4573d6000803e3d6000fd5b505050506040513d601f19601f820116820180604052508101906139e89190615a80565b50875481906001600160a01b03908116908e167f197a0a2b0fbff3fc4f7f4d32597585aa8415fcc4c5dd6634336ec65904529c83613a27876001615ab8565b60408051918252602082018190526005908201526410539554d160da1b606082015260800160405180910390a4600a82015460ff16613b05576101035482600501541115613b055787546101028054600180820183556000929092527f93bdaa6a4190909b7c3fbe8d42169ffe1cab19f51dfc8db24c71abf849eced4a0180546001600160a01b0319166001600160a01b03938416179055600a8401805460ff191690911790558854604051911681527facc63915cb028aeaee9996abc0f864fc0559a2f955750aa97d6ef9f51014acfb9060200160405180910390a15b505b6101055481600501541115613b5e57865486516001600160a01b0390911690879087908110613b3857613b38615aa2565b6001600160a01b039092166020928302919091019091015284613b5a81615acb565b9550505b955080613b6a81615acb565b91505061376c565b508215613da3576000836064610104548d613b8d9190615d3b565b613b979190615a53565b613ba19190615a53565b905060005b84811015613da05760006001600160a01b0316868281518110613bcb57613bcb615aa2565b60200260200101516001600160a01b03160315613da05760006101096000888481518110613bfb57613bfb615aa2565b60200260200101516001600160a01b03166001600160a01b0316815260200190815260200160002090508a6001600160a01b031663b70cc4c16040518163ffffffff1660e01b8152600401602060405180830381865afa158015613c63573d6000803e3d6000fd5b505050506040513d601f19601f82011682018060405250810190613c879190615a0a565b6001600160a01b031663a9059cbb888481518110613ca757613ca7615aa2565b6020026020010151856040518363ffffffff1660e01b8152600401613ce19291906001600160a01b03929092168252602082015260400190565b6020604051808303816000875af1158015613d00573d6000803e3d6000fd5b505050506040513d601f19601f82011682018060405250810190613d249190615a80565b50868281518110613d3757613d37615aa2565b60200260200101516001600160a01b0316837f62f12b06523c734cca73aa1502a5f967c8e09d0a2f084fd36acbac47f54b0d4e60405160405180910390a36009018054600181018255600091825260209091200182905580613d9881615acb565b915050613ba6565b50505b6101025415613f835760006064610101548c613dbf9190615d3b565b613dc99190615a53565b610102546040805142602082015244918101919091529192506000916060016040516020818303038152906040528051906020012060001c613e0b9190615d52565b905060006101028281548110613e2357613e23615aa2565b60009182526020808320909101546001600160a01b039081168084526101098352604093849020845163b70cc4c160e01b8152945191955093918f169263b70cc4c192600480820193918290030181865afa158015613e86573d6000803e3d6000fd5b505050506040513d601f19601f82011682018060405250810190613eaa9190615a0a565b60405163a9059cbb60e01b81526001600160a01b03848116600483015260248201879052919091169063a9059cbb906044016020604051808303816000875af1158015613efb573d6000803e3d6000fd5b505050506040513d601f19601f82011682018060405250810190613f1f9190615a80565b50600881018054600181018255600091825260209182902001859055604080518681526001600160a01b038516928101929092527f51e673ac98f0ea063ce27eb5af807d22b97cd11cd79380cf1f711ad80948046c910160405180910390a1505050505b8015614123576000816064610108548d613f9d9190615d3b565b613fa79190615a53565b613fb19190615a53565b905060005b8281101561412057896001600160a01b031663b70cc4c16040518163ffffffff1660e01b8152600401602060405180830381865afa158015613ffc573d6000803e3d6000fd5b505050506040513d601f19601f820116820180604052508101906140209190615a0a565b6001600160a01b031663a9059cbb85838151811061404057614040615aa2565b6020026020010151846040518363ffffffff1660e01b815260040161407a9291906001600160a01b03929092168252602082015260400190565b6020604051808303816000875af1158015614099573d6000803e3d6000fd5b505050506040513d601f19601f820116820180604052508101906140bd9190615a80565b508381815181106140d0576140d0615aa2565b60200260200101516001600160a01b0316827f6d550262135215fe2f5ef9b6fad45db8cf51267248f8b95e069f8025f6f9049a60405160405180910390a38061411881615acb565b915050613fb6565b50505b50505050505050505050565b6001600160a01b038116600090815261010d602052604081205461ffff1690036118225761010f546000906141699061ffff166001615d66565b6001600160a01b038316600081815261010d60209081526040808320805461ffff191661ffff878116918217909255845261010c909252822080546001600160a01b0319908116851790915561010e80546001810182559084527f44731785622d53a842eeb261a70df6f2b61b9624656157b6168597f0656f480501805490911690931790925561010f805493945092909116919061420783615ce8565b91906101000a81548161ffff021916908361ffff160217905550505050565b6060810151516000901561428b5760015b8260600151518161ffff1610156142895782606001518161ffff168151811061426257614262615aa2565b6020026020010151826142759190615ab8565b91508061428181615ce8565b915050614237565b505b919050565b611822614403565b7f4910fdfa16fed3260ed0e7147f7cc6da11a60208b5b9406d12a635614ffd91435460ff16156142cb5761142083614d7b565b826001600160a01b03166352d1902d6040518163ffffffff1660e01b8152600401602060405180830381865afa925050508015614325575060408051601f3d908101601f1916820190925261432291810190615a67565b60015b6143885760405162461bcd60e51b815260206004820152602e60248201527f45524331393637557067726164653a206e657720696d706c656d656e7461746960448201526d6f6e206973206e6f74205555505360901b606482015260840161091e565b600080516020615e1e83398151915281146143f75760405162461bcd60e51b815260206004820152602960248201527f45524331393637557067726164653a20756e737570706f727465642070726f786044820152681a58589b195555525160ba1b606482015260840161091e565b50611420838383614e17565b6065546001600160a01b031633146119e55760405162461bcd60e51b815260206004820181905260248201527f4f776e61626c653a2063616c6c6572206973206e6f7420746865206f776e6572604482015260640161091e565b606580546001600160a01b038381166001600160a01b0319831681179093556040519116919082907f8be0079c531659141344cd1fd0a4f28419497f9722a3daafe3b4186f6b6457e090600090a35050565b600054610100900460ff166144d65760405162461bcd60e51b815260040161091e90615d88565b6119e5614e3c565b600054610100900460ff166145055760405162461bcd60e51b815260040161091e90615d88565b6119e5614e6f565b600054610100900460ff166119e55760405162461bcd60e51b815260040161091e90615d88565b606060006145428484615dd3565b61ffff166001600160401b0381111561455d5761455d6151de565b604051908082528060200260200182016040528015614586578160200160208202803683370190505b5091505b8261ffff168461ffff1611614a3b5761ffff8416600090815261010c60209081526040808320546001600160a01b0390811680855261010984528285208351610160810185528154909316835260018101805485518188028101880190965280865292969593949193858101939083018282801561463157602002820191906000526020600020905b81546001600160a01b03168152600190910190602001808311614613575b505050505081526020016002820180548060200260200160405190810160405280929190818152602001828054801561469357602002820191906000526020600020905b81546001600160a01b03168152600190910190602001808311614675575b50505050508152602001600382018054806020026020016040519081016040528092919081815260200182805480156146eb57602002820191906000526020600020905b8154815260200190600101908083116146d7575b505050505081526020016004820154815260200160058201548152602001600682015481526020016007820180548060200260200160405190810160405280929190818152602001828054801561476157602002820191906000526020600020905b81548152602001906001019080831161474d575b50505050508152602001600882018054806020026020016040519081016040528092919081815260200182805480156147b957602002820191906000526020600020905b8154815260200190600101908083116147a5575b505050505081526020016009820180548060200260200160405190810160405280929190818152602001828054801561481157602002820191906000526020600020905b8154815260200190600101908083116147fd575b5050509183525050600a919091015460ff9081161515602092830152898116600090815261010b83526040808220815160e0810183528154909416845260018101549484019490945260028401549083015260038301546060830152600483018054949550909391929160808401919061488a90615b0f565b80601f01602080910402602001604051908101604052809291908181526020018280546148b690615b0f565b80156149035780601f106148d857610100808354040283529160200191614903565b820191906000526020600020905b8154815290600101906020018083116148e657829003601f168201915b5050505050815260200160058201805461491c90615b0f565b80601f016020809104026020016040519081016040528092919081815260200182805461494890615b0f565b80156149955780601f1061496a57610100808354040283529160200191614995565b820191906000526020600020905b81548152906001019060200180831161497857829003601f168201915b50505050508152602001600682015481525050905080602001516149b883614226565b101580156149ce575080604001518260a0015110155b80156149e357506149e3828260600151614a43565b15614a255782858561ffff16815181106149ff576149ff615aa2565b6001600160a01b039092166020928302919091019091015283614a2181615ce8565b9450505b5050508380614a3390615ce8565b94505061458a565b935093915050565b6000806000600285602001515110614d735760005b8560200151518161ffff161015614d4f576000610109600088602001518461ffff1681518110614a8a57614a8a615aa2565b6020908102919091018101516001600160a01b03908116835282820193909352604091820160002082516101608101845281549094168452600181018054845181850281018501909552808552919385840193909290830182828015614b1957602002820191906000526020600020905b81546001600160a01b03168152600190910190602001808311614afb575b5050505050815260200160028201805480602002602001604051908101604052809291908181526020018280548015614b7b57602002820191906000526020600020905b81546001600160a01b03168152600190910190602001808311614b5d575b5050505050815260200160038201805480602002602001604051908101604052809291908181526020018280548015614bd357602002820191906000526020600020905b815481526020019060010190808311614bbf575b5050505050815260200160048201548152602001600582015481526020016006820154815260200160078201805480602002602001604051908101604052809291908181526020018280548015614c4957602002820191906000526020600020905b815481526020019060010190808311614c35575b5050505050815260200160088201805480602002602001604051908101604052809291908181526020018280548015614ca157602002820191906000526020600020905b815481526020019060010190808311614c8d575b5050505050815260200160098201805480602002602001604051908101604052809291908181526020018280548015614cf957602002820191906000526020600020905b815481526020019060010190808311614ce5575b5050509183525050600a919091015460ff16151560209091015260c0810151909150841015614d2a578060c0015193505b60c0810151614d399084615ab8565b9250508080614d4790615ce8565b915050614a58565b50838210158015614d69575083614d668383615d09565b10155b15614d7357600192505b505092915050565b6001600160a01b0381163b614de85760405162461bcd60e51b815260206004820152602d60248201527f455243313936373a206e657720696d706c656d656e746174696f6e206973206e60448201526c1bdd08184818dbdb9d1c9858dd609a1b606482015260840161091e565b600080516020615e1e83398151915280546001600160a01b0319166001600160a01b0392909216919091179055565b614e2083614e9f565b600082511180614e2d5750805b1561142057610b008383614edf565b600054610100900460ff16614e635760405162461bcd60e51b815260040161091e90615d88565b6033805460ff19169055565b600054610100900460ff16614e965760405162461bcd60e51b815260040161091e90615d88565b6119e53361445d565b614ea881614d7b565b6040516001600160a01b038216907fbc7cd75a20ee27fd9adebab32041f755214dbc6bffa90cc0225b39da2e5c2d3b90600090a250565b60606001600160a01b0383163b614f475760405162461bcd60e51b815260206004820152602660248201527f416464726573733a2064656c65676174652063616c6c20746f206e6f6e2d636f6044820152651b9d1c9858dd60d21b606482015260840161091e565b600080846001600160a01b031684604051614f629190615dee565b600060405180830381855af49150503d8060008114614f9d576040519150601f19603f3d011682016040523d82523d6000602084013e614fa2565b606091505b5091509150614fca8282604051806060016040528060278152602001615e3e60279139614fd3565b95945050505050565b60608315614fe2575081611385565b6113858383815115614ff75781518083602001fd5b8060405162461bcd60e51b815260040161091e9190615e0a565b82805482825590600052602060002090810192821561504c579160200282015b8281111561504c578235825591602001919060010190615031565b5061505892915061509c565b5090565b82805482825590600052602060002090810192821561504c579160200282015b8281111561504c578251829060ff1690559160200191906001019061507c565b5b80821115615058576000815560010161509d565b803561ffff8116811461428b57600080fd5b6000602082840312156150d557600080fd5b611385826150b1565b6001600160a01b038116811461182257600080fd5b60006020828403121561510557600080fd5b8135611385816150de565b60008060006060848603121561512557600080fd5b833592506020840135615137816150de565b91506040840135615147816150de565b809150509250925092565b60008083601f84011261516457600080fd5b5081356001600160401b0381111561517b57600080fd5b6020830191508360208260051b850101111561519657600080fd5b9250929050565b600080602083850312156151b057600080fd5b82356001600160401b038111156151c657600080fd5b6151d285828601615152565b90969095509350505050565b634e487b7160e01b600052604160045260246000fd5b604051601f8201601f191681016001600160401b038111828210171561521c5761521c6151de565b604052919050565b60006001600160401b0382111561523d5761523d6151de565b5060051b60200190565b803560ff8116811461428b57600080fd5b600082601f83011261526957600080fd5b8135602061527e61527983615224565b6151f4565b82815260059290921b8401810191818101908684111561529d57600080fd5b8286015b848110156152bf576152b281615247565b83529183019183016152a1565b509695505050505050565b600082601f8301126152db57600080fd5b813560206152eb61527983615224565b82815260059290921b8401810191818101908684111561530a57600080fd5b8286015b848110156152bf578035835291830191830161530e565b60006001600160401b0383111561533e5761533e6151de565b615351601f8401601f19166020016151f4565b905082815283838301111561536557600080fd5b828260208301376000602084830101529392505050565b600082601f83011261538d57600080fd5b8135602061539d61527983615224565b82815260059290921b840181019181810190868411156153bc57600080fd5b8286015b848110156152bf5780356001600160401b038111156153df5760008081fd5b8701603f810189136153f15760008081fd5b615402898683013560408401615325565b8452509183019183016153c0565b600080600080600080600060e0888a03121561542b57600080fd5b87356001600160401b038082111561544257600080fd5b61544e8b838c01615258565b985060208a013591508082111561546457600080fd5b6154708b838c016152ca565b975060408a013591508082111561548657600080fd5b6154928b838c016152ca565b965060608a01359150808211156154a857600080fd5b6154b48b838c016152ca565b955060808a01359150808211156154ca57600080fd5b6154d68b838c0161537c565b945060a08a01359150808211156154ec57600080fd5b6154f88b838c0161537c565b935060c08a013591508082111561550e57600080fd5b5061551b8a828b016152ca565b91505092959891949750929550565b6000806040838503121561553d57600080fd5b8235615548816150de565b915060208301356001600160401b0381111561556357600080fd5b8301601f8101851361557457600080fd5b61558385823560208401615325565b9150509250929050565b60006020828403121561559f57600080fd5b5035919050565b600080604083850312156155b957600080fd5b82356155c4816150de565b91506155d260208401615247565b90509250929050565b600080604083850312156155ee57600080fd5b82356155f9816150de565b946020939093013593505050565b602080825282516001600160a01b031682820152828101516060604084015280516080840181905260009291820190839060a08601905b8083101561566157835160ff16825292840192600192909201919084019061563e565b5060ff60408801511660608701528094505050505092915050565b6000806000806040858703121561569257600080fd5b84356001600160401b03808211156156a957600080fd5b6156b588838901615152565b909650945060208701359150808211156156ce57600080fd5b506156db87828801615152565b95989497509550505050565b6000602082840312156156f957600080fd5b61138582615247565b60005b8381101561571d578181015183820152602001615705565b50506000910152565b6000815180845261573e816020860160208601615702565b601f01601f19169290920160200192915050565b60ff8816815286602082015285604082015284606082015260e06080820152600061578060e0830186615726565b82810360a08401526157928186615726565b9150508260c083015298975050505050505050565b6000806000606084860312156157bc57600080fd5b6157c584615247565b92506157d3602085016150b1565b91506157e1604085016150b1565b90509250925092565b600081518084526020808501945080840160005b838110156158235781516001600160a01b0316875295820195908201906001016157fe565b509495945050505050565b60408152600061584160408301856157ea565b905061ffff831660208301529392505050565b60808152600061586760808301876157ea565b856020840152828103604084015261587f81866157ea565b91505082606083015295945050505050565b600081518084526020808501945080840160005b83811015615823578151875295820195908201906001016158a5565b602081526158db6020820183516001600160a01b03169052565b600060208301516101608060408501526158f96101808501836157ea565b91506040850151601f198086850301606087015261591784836157ea565b935060608701519150808685030160808701526159348483615891565b9350608087015160a087015260a087015160c087015260c087015160e087015260e087015191506101008187860301818801526159718584615891565b9450808801519250506101208187860301818801526159908584615891565b9450808801519250506101408187860301818801526159af8584615891565b945080880151925050506159c68286018215159052565b5090949350505050565b8481526080602082015260006159e96080830186615891565b6040830194909452506001600160a01b039190911660609091015292915050565b600060208284031215615a1c57600080fd5b8151611385816150de565b634e487b7160e01b600052601260045260246000fd5b634e487b7160e01b600052601160045260246000fd5b600082615a6257615a62615a27565b500490565b600060208284031215615a7957600080fd5b5051919050565b600060208284031215615a9257600080fd5b8151801515811461138557600080fd5b634e487b7160e01b600052603260045260246000fd5b8082018082111561080c5761080c615a3d565b600060018201615add57615add615a3d565b5060010190565b6020808252601190820152702cb7ba9030b932903737ba1030b236b4b760791b604082015260600190565b600181811c90821680615b2357607f821691505b60208210810361428957634e487b7160e01b600052602260045260246000fd5b601f82111561142057600081815260208120601f850160051c81016020861015615b6a5750805b601f850160051c820191505b81811015615b8957828155600101615b76565b505050505050565b81516001600160401b03811115615baa57615baa6151de565b615bbe81615bb88454615b0f565b84615b43565b602080601f831160018114615bf35760008415615bdb5750858301515b600019600386901b1c1916600185901b178555615b89565b600085815260208120601f198616915b82811015615c2257888601518255948401946001909101908401615c03565b5085821015615c405787850151600019600388901b60f8161c191681555b5050505050600190811b01905550565b6020808252602c908201527f46756e6374696f6e206d7573742062652063616c6c6564207468726f7567682060408201526b19195b1959d85d1958d85b1b60a21b606082015260800190565b6020808252602c908201527f46756e6374696f6e206d7573742062652063616c6c6564207468726f7567682060408201526b6163746976652070726f787960a01b606082015260800190565b600061ffff808316818103615cff57615cff615a3d565b6001019392505050565b8181038181111561080c5761080c615a3d565b600060ff821660ff8103615d3257615d32615a3d565b60010192915050565b808202811582820484141761080c5761080c615a3d565b600082615d6157615d61615a27565b500690565b61ffff818116838216019080821115615d8157615d81615a3d565b5092915050565b6020808252602b908201527f496e697469616c697a61626c653a20636f6e7472616374206973206e6f74206960408201526a6e697469616c697a696e6760a81b606082015260800190565b61ffff828116828216039080821115615d8157615d81615a3d565b60008251615e00818460208701615702565b9190910192915050565b602081526000611385602083018461572656fe360894a13ba1a3210667c828492db98dca3e2076cc3735a920a3ca505d382bbc416464726573733a206c6f772d6c6576656c2064656c65676174652063616c6c206661696c6564a2646970667358221220fdf3a9fd6b3bcda99441f08b6b033431920658b0c91abccadee91842a4b7a24564736f6c63430008110033",
  "linkReferences": {},
  "deployedLinkReferences": {}
}