{
  "_format": "hh-sol-artifact-1",
  "contractName": "ReferralUpgradeable",
  "sourceName": "contracts/ReferralUpgradeable.sol",
  "abi": [
    {
      "anonymous": false,
      "inputs": [
        {
          "indexed": false,
          "internalType": "address",
          "name": "previousAdmin",
          "type": "address"
        },
        {
          "indexed": false,
          "internalType": "address",
          "name": "newAdmin",
          "type": "address"
        }
      ],
      "name": "AdminChanged",
      "type": "event"
    },
    {
      "anonymous": false,
      "inputs": [
        {
          "indexed": true,
          "internalType": "address",
          "name": "beacon",
          "type": "address"
        }
      ],
      "name": "BeaconUpgraded",
      "type": "event"
    },
    {
      "anonymous": false,
      "inputs": [
        {
          "indexed": true,
          "internalType": "address",
          "name": "userAddressaddress",
          "type": "address"
        }
      ],
      "name": "CoreMemberAdded",
      "type": "event"
    },
    {
      "anonymous": false,
      "inputs": [
        {
          "indexed": false,
          "internalType": "address",
          "name": "userAddress",
          "type": "address"
        }
      ],
      "name": "CoreMemberRemoved",
      "type": "event"
    },
    {
      "anonymous": false,
      "inputs": [
        {
          "indexed": true,
          "internalType": "uint256",
          "name": "value",
          "type": "uint256"
        },
        {
          "indexed": true,
          "internalType": "address",
          "name": "userAddress",
          "type": "address"
        }
      ],
      "name": "CoreMemberRewardPaid",
      "type": "event"
    },
    {
      "anonymous": false,
      "inputs": [
        {
          "indexed": false,
          "internalType": "address",
          "name": "userAddress",
          "type": "address"
        }
      ],
      "name": "GlobalAddressAdded",
      "type": "event"
    },
    {
      "anonymous": false,
      "inputs": [
        {
          "indexed": false,
          "internalType": "address",
          "name": "userAddress",
          "type": "address"
        }
      ],
      "name": "GlobalAddressRemoved",
      "type": "event"
    },
    {
      "anonymous": false,
      "inputs": [
        {
          "indexed": false,
          "internalType": "uint256",
          "name": "value",
          "type": "uint256"
        },
        {
          "indexed": false,
          "internalType": "address",
          "name": "userAddress",
          "type": "address"
        }
      ],
      "name": "GlobalRewardPaid",
      "type": "event"
    },
    {
      "anonymous": false,
      "inputs": [
        {
          "indexed": false,
          "internalType": "uint8",
          "name": "version",
          "type": "uint8"
        }
      ],
      "name": "Initialized",
      "type": "event"
    },
    {
      "anonymous": false,
      "inputs": [
        {
          "indexed": true,
          "internalType": "address",
          "name": "previousOwner",
          "type": "address"
        },
        {
          "indexed": true,
          "internalType": "address",
          "name": "newOwner",
          "type": "address"
        }
      ],
      "name": "OwnershipTransferred",
      "type": "event"
    },
    {
      "anonymous": false,
      "inputs": [
        {
          "indexed": true,
          "internalType": "uint256",
          "name": "value",
          "type": "uint256"
        },
        {
          "indexed": true,
          "internalType": "address",
          "name": "userAddress",
          "type": "address"
        }
      ],
      "name": "PassiveRewardPaid",
      "type": "event"
    },
    {
      "anonymous": false,
      "inputs": [
        {
          "indexed": false,
          "internalType": "address",
          "name": "account",
          "type": "address"
        }
      ],
      "name": "Paused",
      "type": "event"
    },
    {
      "anonymous": false,
      "inputs": [
        {
          "indexed": true,
          "internalType": "address",
          "name": "referee",
          "type": "address"
        },
        {
          "indexed": true,
          "internalType": "address",
          "name": "referrer",
          "type": "address"
        },
        {
          "indexed": true,
          "internalType": "uint256",
          "name": "amount",
          "type": "uint256"
        },
        {
          "indexed": false,
          "internalType": "uint256",
          "name": "level",
          "type": "uint256"
        },
        {
          "indexed": false,
          "internalType": "string",
          "name": "currency",
          "type": "string"
        }
      ],
      "name": "ReferralRewardPaid",
      "type": "event"
    },
    {
      "anonymous": false,
      "inputs": [
        {
          "indexed": true,
          "internalType": "address",
          "name": "referee",
          "type": "address"
        },
        {
          "indexed": true,
          "internalType": "address",
          "name": "referrer",
          "type": "address"
        },
        {
          "indexed": true,
          "internalType": "string",
          "name": "reason",
          "type": "string"
        }
      ],
      "name": "RegisterRefererFailed",
      "type": "event"
    },
    {
      "anonymous": false,
      "inputs": [
        {
          "indexed": true,
          "internalType": "address",
          "name": "referrer",
          "type": "address"
        },
        {
          "indexed": true,
          "internalType": "address",
          "name": "referee",
          "type": "address"
        }
      ],
      "name": "RegisteredReferer",
      "type": "event"
    },
    {
      "anonymous": false,
      "inputs": [
        {
          "indexed": true,
          "internalType": "address",
          "name": "parent",
          "type": "address"
        },
        {
          "indexed": true,
          "internalType": "address",
          "name": "referrer",
          "type": "address"
        },
        {
          "indexed": true,
          "internalType": "address",
          "name": "referee",
          "type": "address"
        }
      ],
      "name": "RegisteredTeamAddress",
      "type": "event"
    },
    {
      "anonymous": false,
      "inputs": [
        {
          "indexed": false,
          "internalType": "address",
          "name": "account",
          "type": "address"
        }
      ],
      "name": "Unpaused",
      "type": "event"
    },
    {
      "anonymous": false,
      "inputs": [
        {
          "indexed": true,
          "internalType": "address",
          "name": "implementation",
          "type": "address"
        }
      ],
      "name": "Upgraded",
      "type": "event"
    },
    {
      "inputs": [
        {
          "internalType": "address[]",
          "name": "_userAddress",
          "type": "address[]"
        },
        {
          "internalType": "address[]",
          "name": "_referrerAddress",
          "type": "address[]"
        }
      ],
      "name": "addReferrerAdmin",
      "outputs": [],
      "stateMutability": "nonpayable",
      "type": "function"
    },
    {
      "inputs": [],
      "name": "contractDefaults",
      "outputs": [
        {
          "internalType": "uint256",
          "name": "levelDecimals",
          "type": "uint256"
        },
        {
          "internalType": "uint256[]",
          "name": "levelRates",
          "type": "uint256[]"
        },
        {
          "internalType": "uint256",
          "name": "totalLevelRate",
          "type": "uint256"
        },
        {
          "internalType": "address",
          "name": "defaultReferrer",
          "type": "address"
        }
      ],
      "stateMutability": "view",
      "type": "function"
    },
    {
      "inputs": [
        {
          "internalType": "address",
          "name": "_address",
          "type": "address"
        }
      ],
      "name": "getUserAccount",
      "outputs": [
        {
          "components": [
            {
              "internalType": "address",
              "name": "referrer",
              "type": "address"
            },
            {
              "internalType": "address[]",
              "name": "referee",
              "type": "address[]"
            },
            {
              "internalType": "address[]",
              "name": "team",
              "type": "address[]"
            },
            {
              "internalType": "uint256[]",
              "name": "topUp",
              "type": "uint256[]"
            },
            {
              "internalType": "uint256",
              "name": "selfBusiness",
              "type": "uint256"
            },
            {
              "internalType": "uint256",
              "name": "directBusiness",
              "type": "uint256"
            },
            {
              "internalType": "uint256",
              "name": "totalBusiness",
              "type": "uint256"
            },
            {
              "internalType": "uint256[]",
              "name": "rewardsPaidReferral",
              "type": "uint256[]"
            },
            {
              "internalType": "uint256[]",
              "name": "rewardsPaidGlobal",
              "type": "uint256[]"
            },
            {
              "internalType": "uint256[]",
              "name": "rewardPaidPassive",
              "type": "uint256[]"
            },
            {
              "internalType": "bool",
              "name": "isInGlobalID",
              "type": "bool"
            }
          ],
          "internalType": "struct ReferralUpgradeable.Account",
          "name": "userAccount",
          "type": "tuple"
        }
      ],
      "stateMutability": "view",
      "type": "function"
    },
    {
      "inputs": [
        {
          "internalType": "address",
          "name": "_address",
          "type": "address"
        }
      ],
      "name": "getUserReferrerAddress",
      "outputs": [
        {
          "internalType": "address",
          "name": "referrer",
          "type": "address"
        }
      ],
      "stateMutability": "view",
      "type": "function"
    },
    {
      "inputs": [
        {
          "internalType": "address",
          "name": "_address",
          "type": "address"
        }
      ],
      "name": "getUserTeam",
      "outputs": [
        {
          "internalType": "address[]",
          "name": "userReferee",
          "type": "address[]"
        },
        {
          "internalType": "uint256",
          "name": "userRefereeCount",
          "type": "uint256"
        },
        {
          "internalType": "address[]",
          "name": "userTeamAddress",
          "type": "address[]"
        },
        {
          "internalType": "uint256",
          "name": "userTeamCount",
          "type": "uint256"
        }
      ],
      "stateMutability": "view",
      "type": "function"
    },
    {
      "inputs": [
        {
          "internalType": "address",
          "name": "_address",
          "type": "address"
        }
      ],
      "name": "getUserTotalBusiness",
      "outputs": [
        {
          "internalType": "uint256",
          "name": "selfBusiness",
          "type": "uint256"
        },
        {
          "internalType": "uint256",
          "name": "directBusiness",
          "type": "uint256"
        },
        {
          "internalType": "uint256",
          "name": "refereeTeamBusiness",
          "type": "uint256"
        },
        {
          "internalType": "uint256",
          "name": "totalBusiness",
          "type": "uint256"
        }
      ],
      "stateMutability": "view",
      "type": "function"
    },
    {
      "inputs": [
        {
          "internalType": "address",
          "name": "_address",
          "type": "address"
        }
      ],
      "name": "getUserTotalRewardPaid",
      "outputs": [
        {
          "internalType": "uint256",
          "name": "rewardsAUSD",
          "type": "uint256"
        },
        {
          "internalType": "uint256",
          "name": "rewardsGlobal",
          "type": "uint256"
        },
        {
          "internalType": "uint256",
          "name": "rewardsPassive",
          "type": "uint256"
        }
      ],
      "stateMutability": "view",
      "type": "function"
    },
    {
      "inputs": [
        {
          "internalType": "address",
          "name": "_address",
          "type": "address"
        }
      ],
      "name": "hasReferrer",
      "outputs": [
        {
          "internalType": "bool",
          "name": "",
          "type": "bool"
        }
      ],
      "stateMutability": "view",
      "type": "function"
    },
    {
      "inputs": [],
      "name": "initialize",
      "outputs": [],
      "stateMutability": "nonpayable",
      "type": "function"
    },
    {
      "inputs": [],
      "name": "owner",
      "outputs": [
        {
          "internalType": "address",
          "name": "",
          "type": "address"
        }
      ],
      "stateMutability": "view",
      "type": "function"
    },
    {
      "inputs": [],
      "name": "pause",
      "outputs": [],
      "stateMutability": "nonpayable",
      "type": "function"
    },
    {
      "inputs": [],
      "name": "paused",
      "outputs": [
        {
          "internalType": "bool",
          "name": "",
          "type": "bool"
        }
      ],
      "stateMutability": "view",
      "type": "function"
    },
    {
      "inputs": [
        {
          "internalType": "uint256",
          "name": "_value",
          "type": "uint256"
        },
        {
          "internalType": "address",
          "name": "_userAddress",
          "type": "address"
        },
        {
          "internalType": "address",
          "name": "_referrerAddress",
          "type": "address"
        }
      ],
      "name": "payReferralANUSDAdmin",
      "outputs": [],
      "stateMutability": "nonpayable",
      "type": "function"
    },
    {
      "inputs": [],
      "name": "proxiableUUID",
      "outputs": [
        {
          "internalType": "bytes32",
          "name": "",
          "type": "bytes32"
        }
      ],
      "stateMutability": "view",
      "type": "function"
    },
    {
      "inputs": [],
      "name": "renounceOwnership",
      "outputs": [],
      "stateMutability": "nonpayable",
      "type": "function"
    },
    {
      "inputs": [
        {
          "internalType": "address payable",
          "name": "_address",
          "type": "address"
        }
      ],
      "name": "setDefaultReferrer",
      "outputs": [],
      "stateMutability": "nonpayable",
      "type": "function"
    },
    {
      "inputs": [
        {
          "internalType": "uint256",
          "name": "_value",
          "type": "uint256"
        }
      ],
      "name": "setLevelDecimals",
      "outputs": [
        {
          "internalType": "bool",
          "name": "",
          "type": "bool"
        }
      ],
      "stateMutability": "nonpayable",
      "type": "function"
    },
    {
      "inputs": [
        {
          "internalType": "uint256[]",
          "name": "_valueInArray",
          "type": "uint256[]"
        }
      ],
      "name": "setLevelRates",
      "outputs": [],
      "stateMutability": "nonpayable",
      "type": "function"
    },
    {
      "inputs": [
        {
          "internalType": "address",
          "name": "_address",
          "type": "address"
        },
        {
          "internalType": "uint256",
          "name": "_value",
          "type": "uint256"
        }
      ],
      "name": "transferNative",
      "outputs": [],
      "stateMutability": "nonpayable",
      "type": "function"
    },
    {
      "inputs": [
        {
          "internalType": "address",
          "name": "newOwner",
          "type": "address"
        }
      ],
      "name": "transferOwnership",
      "outputs": [],
      "stateMutability": "nonpayable",
      "type": "function"
    },
    {
      "inputs": [],
      "name": "unpause",
      "outputs": [],
      "stateMutability": "nonpayable",
      "type": "function"
    },
    {
      "inputs": [
        {
          "internalType": "address",
          "name": "newImplementation",
          "type": "address"
        }
      ],
      "name": "upgradeTo",
      "outputs": [],
      "stateMutability": "nonpayable",
      "type": "function"
    },
    {
      "inputs": [
        {
          "internalType": "address",
          "name": "newImplementation",
          "type": "address"
        },
        {
          "internalType": "bytes",
          "name": "data",
          "type": "bytes"
        }
      ],
      "name": "upgradeToAndCall",
      "outputs": [],
      "stateMutability": "payable",
      "type": "function"
    },
    {
      "inputs": [],
      "name": "withdrawNative",
      "outputs": [],
      "stateMutability": "nonpayable",
      "type": "function"
    },
    {
      "inputs": [
        {
          "internalType": "address",
          "name": "_tokenAddress",
          "type": "address"
        },
        {
          "internalType": "uint256",
          "name": "_value",
          "type": "uint256"
        }
      ],
      "name": "withdrawtokens",
      "outputs": [],
      "stateMutability": "nonpayable",
      "type": "function"
    },
    {
      "stateMutability": "payable",
      "type": "receive"
    }
  ],
  "bytecode": "0x60a06040523060805234801561001457600080fd5b5060805161347461004c60003960008181610d7801528181610db801528181610e6901528181610ea90152610f7001526134746000f3fe60806040526004361061016a5760003560e01c8063715018a6116100d1578063cfbdb8591161008a578063f2fde38b11610064578063f2fde38b1461044f578063faeda7e51461046f578063fb47e0161461049f578063fb5d4526146104cc57600080fd5b8063cfbdb859146103d4578063dcf6e819146103f4578063ef519dc01461041457600080fd5b8063715018a6146103375780637d2e90c21461034c5780638129fc1c1461036c5780638456cb59146103815780638da5cb5b146103965780638f3ddc9f146103b457600080fd5b80633f4ba83a116101235780633f4ba83a1461026d57806343b4ebf4146102825780634f1ef286146102d457806350431ce4146102e757806352d1902d146102fc5780635c975abb1461031f57600080fd5b806318452cd814610176578063228159b4146101ab5780632405091c146101cd578063277bb9001461020d578063345b5b851461022d5780633659cfe61461024d57600080fd5b3661017157005b600080fd5b34801561018257600080fd5b50610196610191366004612d0b565b6104f1565b60405190151581526020015b60405180910390f35b3480156101b757600080fd5b506101cb6101c6366004612d28565b610518565b005b3480156101d957600080fd5b506101ed6101e8366004612d0b565b6106ed565b6040805194855260208501939093529183015260608201526080016101a2565b34801561021957600080fd5b506101cb610228366004612d6a565b610cdc565b34801561023957600080fd5b506101cb610248366004612de2565b610d5a565b34801561025957600080fd5b506101cb610268366004612d0b565b610d6e565b34801561027957600080fd5b506101cb610e4d565b34801561028e57600080fd5b506102bc61029d366004612d0b565b6001600160a01b03908116600090815261010960205260409020541690565b6040516001600160a01b0390911681526020016101a2565b6101cb6102e2366004612e3a565b610e5f565b3480156102f357600080fd5b506101cb610f2f565b34801561030857600080fd5b50610311610f63565b6040519081526020016101a2565b34801561032b57600080fd5b5060335460ff16610196565b34801561034357600080fd5b506101cb611016565b34801561035857600080fd5b506101cb610367366004612d6a565b611028565b34801561037857600080fd5b506101cb611066565b34801561038d57600080fd5b506101cb61124c565b3480156103a257600080fd5b506065546001600160a01b03166102bc565b3480156103c057600080fd5b506101cb6103cf366004612efe565b61125c565b3480156103e057600080fd5b506101966103ef366004612f6a565b61138d565b34801561040057600080fd5b506101cb61040f366004612d0b565b6113a0565b34801561042057600080fd5b5061043461042f366004612d0b565b6113cb565b604080519384526020840192909252908201526060016101a2565b34801561045b57600080fd5b506101cb61046a366004612d0b565b6114e6565b34801561047b57600080fd5b5061048f61048a366004612d0b565b61155c565b6040516101a29493929190612fc7565b3480156104ab57600080fd5b506104bf6104ba366004612d0b565b611649565b6040516101a29190613034565b3480156104d857600080fd5b506104e1611936565b6040516101a29493929190613143565b6001600160a01b038082166000908152610109602052604081205490911615155b92915050565b3361052b6065546001600160a01b031690565b6001600160a01b0316816001600160a01b031614806105d1575060fb60009054906101000a90046001600160a01b03166001600160a01b03166363d9df856040518163ffffffff1660e01b8152600401602060405180830381865afa158015610598573d6000803e3d6000fd5b505050506040513d601f19601f820116820180604052508101906105bc919061317d565b6001600160a01b0316816001600160a01b0316145b61062d5760405162461bcd60e51b815260206004820152602260248201527f4f6e6c79206f776e65722063616e2063616c6c20746869732066756e6374696f604482015261371760f11b60648201526084015b60405180910390fd5b6001600160a01b03838116600090815261010960205260409020541615801561065e57506001600160a01b03821615155b156106775761066d83836119fd565b6106778383611b17565b6001600160a01b0382811660009081526101096020526040902054161580156106a857506001600160a01b03821615155b156106dd57610100546106c59083906001600160a01b03166119fd565b610100546106dd9083906001600160a01b0316611b17565b6106e78484611bcb565b50505050565b6001600160a01b0381166000908152610109602052604081206001810154600482015492918291829190825b818110156109f0576000610109600085600101848154811061073d5761073d61319a565b60009182526020808320909101546001600160a01b039081168452838201949094526040928301909120825161016081018452815490941684526001810180548451818502810185019095528085529193858401939092908301828280156107ce57602002820191906000526020600020905b81546001600160a01b031681526001909101906020018083116107b0575b505050505081526020016002820180548060200260200160405190810160405280929190818152602001828054801561083057602002820191906000526020600020905b81546001600160a01b03168152600190910190602001808311610812575b505050505081526020016003820180548060200260200160405190810160405280929190818152602001828054801561088857602002820191906000526020600020905b815481526020019060010190808311610874575b50505050508152602001600482015481526020016005820154815260200160068201548152602001600782018054806020026020016040519081016040528092919081815260200182805480156108fe57602002820191906000526020600020905b8154815260200190600101908083116108ea575b505050505081526020016008820180548060200260200160405190810160405280929190818152602001828054801561095657602002820191906000526020600020905b815481526020019060010190808311610942575b50505050508152602001600982018054806020026020016040519081016040528092919081815260200182805480156109ae57602002820191906000526020600020905b81548152602001906001019080831161099a575b5050509183525050600a919091015460ff16151560209091015260808101519091506109da90886131c6565b96505080806109e8906131d9565b915050610719565b5060005b81811015610ccb5760006101096000856001018481548110610a1857610a1861319a565b60009182526020808320909101546001600160a01b03908116845283820194909452604092830190912082516101608101845281549094168452600181018054845181850281018501909552808552919385840193909290830182828015610aa957602002820191906000526020600020905b81546001600160a01b03168152600190910190602001808311610a8b575b5050505050815260200160028201805480602002602001604051908101604052809291908181526020018280548015610b0b57602002820191906000526020600020905b81546001600160a01b03168152600190910190602001808311610aed575b5050505050815260200160038201805480602002602001604051908101604052809291908181526020018280548015610b6357602002820191906000526020600020905b815481526020019060010190808311610b4f575b5050505050815260200160048201548152602001600582015481526020016006820154815260200160078201805480602002602001604051908101604052809291908181526020018280548015610bd957602002820191906000526020600020905b815481526020019060010190808311610bc5575b5050505050815260200160088201805480602002602001604051908101604052809291908181526020018280548015610c3157602002820191906000526020600020905b815481526020019060010190808311610c1d575b5050505050815260200160098201805480602002602001604051908101604052809291908181526020018280548015610c8957602002820191906000526020600020905b815481526020019060010190808311610c75575b5050509183525050600a919091015460ff16151560209091015260c0810151909150610cb590876131c6565b9550508080610cc3906131d9565b9150506109f4565b508160060154925050509193509193565b610ce46125f2565b60405163a9059cbb60e01b8152336004820152602481018290526001600160a01b0383169063a9059cbb906044016020604051808303816000875af1158015610d31573d6000803e3d6000fd5b505050506040513d601f19601f82011682018060405250810190610d5591906131f2565b505050565b610d626125f2565b610d5560fc8383612c56565b6001600160a01b037f0000000000000000000000000000000000000000000000000000000000000000163003610db65760405162461bcd60e51b815260040161062490613214565b7f00000000000000000000000000000000000000000000000000000000000000006001600160a01b0316610dff6000805160206133f8833981519152546001600160a01b031690565b6001600160a01b031614610e255760405162461bcd60e51b815260040161062490613260565b610e2e8161264c565b60408051600080825260208201909252610e4a91839190612654565b50565b610e556125f2565b610e5d6127bf565b565b6001600160a01b037f0000000000000000000000000000000000000000000000000000000000000000163003610ea75760405162461bcd60e51b815260040161062490613214565b7f00000000000000000000000000000000000000000000000000000000000000006001600160a01b0316610ef06000805160206133f8833981519152546001600160a01b031690565b6001600160a01b031614610f165760405162461bcd60e51b815260040161062490613260565b610f1f8261264c565b610f2b82826001612654565b5050565b610f376125f2565b60405133904780156108fc02916000818181858888f19350505050158015610e4a573d6000803e3d6000fd5b6000306001600160a01b037f000000000000000000000000000000000000000000000000000000000000000016146110035760405162461bcd60e51b815260206004820152603860248201527f555550535570677261646561626c653a206d757374206e6f742062652063616c60448201527f6c6564207468726f7567682064656c656761746563616c6c00000000000000006064820152608401610624565b506000805160206133f883398151915290565b61101e6125f2565b610e5d6000612811565b6110306125f2565b6040516001600160a01b0383169082156108fc029083906000818181858888f19350505050158015610d55573d6000803e3d6000fd5b600054610100900460ff16158080156110865750600054600160ff909116105b806110a05750303b1580156110a0575060005460ff166001145b6111035760405162461bcd60e51b815260206004820152602e60248201527f496e697469616c697a61626c653a20636f6e747261637420697320616c72656160448201526d191e481a5b9a5d1a585b1a5e995960921b6064820152608401610624565b6000805460ff191660011790558015611126576000805461ff0019166101001790555b60fb80546001600160a01b03199081167364f0f2fa59a92df28be30876958023a69689d88c17909155610100805490911673f3ba579d4afd4dad8a8c2d1bcbdd1405688e492f1790556040805160e0810182526007808252600460208301526003928201929092526002606082015260016080820181905260a0820181905260c08201526111b79160fc9190612ca1565b50606460fd5560146101065569011478b7c30abc3000006101035560046101015560056101045568a80d24677efef00000610105556111f4612863565b6111fc612892565b6112046128c1565b8015610e4a576000805461ff0019169055604051600181527f7f26b83ff96e1f2b6a682f133852f6798a09c465da95921460cefb38474024989060200160405180910390a150565b6112546125f2565b610e5d6128e8565b6112646125f2565b8281146112bd5760405162461bcd60e51b815260206004820152602160248201527f4c656e677468206973206e6f7420657175616c20706c6561736520636865636b6044820152601760f91b6064820152608401610624565b60005b838110156113865761131e8585838181106112dd576112dd61319a565b90506020020160208101906112f29190612d0b565b8484848181106113045761130461319a565b90506020020160208101906113199190612d0b565b6119fd565b6113748585838181106113335761133361319a565b90506020020160208101906113489190612d0b565b84848481811061135a5761135a61319a565b905060200201602081019061136f9190612d0b565b611b17565b8061137e816131d9565b9150506112c0565b5050505050565b60006113976125f2565b5060fd55600190565b6113a86125f2565b61010080546001600160a01b0319166001600160a01b0392909216919091179055565b6001600160a01b0381166000908152610109602052604081206007810154600882015460098301548493849390929091845b838110156114445784600701818154811061141a5761141a61319a565b90600052602060002001548861143091906131c6565b97508061143c816131d9565b9150506113fd565b5060005b8281101561148f578460080181815481106114655761146561319a565b90600052602060002001548761147b91906131c6565b965080611487816131d9565b915050611448565b5060005b818110156114da578460090181815481106114b0576114b061319a565b9060005260206000200154866114c691906131c6565b9550806114d2816131d9565b915050611493565b50505050509193909250565b6114ee6125f2565b6001600160a01b0381166115535760405162461bcd60e51b815260206004820152602660248201527f4f776e61626c653a206e6577206f776e657220697320746865207a65726f206160448201526564647265737360d01b6064820152608401610624565b610e4a81612811565b6001600160a01b038116600090815261010960209081526040808320600181018054835181860281018601909452808452606095948694869493909290918301828280156115d357602002820191906000526020600020905b81546001600160a01b031681526001909101906020018083116115b5575b50505050509450845193508060020180548060200260200160405190810160405280929190818152602001828054801561163657602002820191906000526020600020905b81546001600160a01b03168152600190910190602001808311611618575b5050505050925082519150509193509193565b6116b160405180610160016040528060006001600160a01b031681526020016060815260200160608152602001606081526020016000815260200160008152602001600081526020016060815260200160608152602001606081526020016000151581525090565b6001600160a01b03808316600090815261010960209081526040918290208251610160810184528154909416845260018101805484518185028101850190955280855291938584019390929083018282801561173657602002820191906000526020600020905b81546001600160a01b03168152600190910190602001808311611718575b505050505081526020016002820180548060200260200160405190810160405280929190818152602001828054801561179857602002820191906000526020600020905b81546001600160a01b0316815260019091019060200180831161177a575b50505050508152602001600382018054806020026020016040519081016040528092919081815260200182805480156117f057602002820191906000526020600020905b8154815260200190600101908083116117dc575b505050505081526020016004820154815260200160058201548152602001600682015481526020016007820180548060200260200160405190810160405280929190818152602001828054801561186657602002820191906000526020600020905b815481526020019060010190808311611852575b50505050508152602001600882018054806020026020016040519081016040528092919081815260200182805480156118be57602002820191906000526020600020905b8154815260200190600101908083116118aa575b505050505081526020016009820180548060200260200160405190810160405280929190818152602001828054801561191657602002820191906000526020600020905b815481526020019060010190808311611902575b5050509183525050600a919091015460ff16151560209091015292915050565b60fd5460fc805460408051602080840282018101909252828152606093600093849383018282801561198757602002820191906000526020600020905b815481526020019060010190808311611973575b505060fc549396506000925050505b818160ff1610156119e15760fc8160ff16815481106119b7576119b761319a565b9060005260206000200154846119cd91906131c6565b9350806119d9816132ac565b915050611996565b5050610100549394929391926001600160a01b03909216919050565b6001600160a01b03828116600090815261010960205260409020541615611a90576040517f4164647265737320616c726561647920686176652072656665727265722e00008152601e016040518091039020816001600160a01b0316836001600160a01b03167f3a1a86984713a4f9021513989fe0334430012901d62639108f2a816c111a732f60405160405180910390a45b6001600160a01b0380831660008181526101096020908152604080832094861680845281842086546001600160a01b031990811683178855600180830180549182018155875294862090940180549094168617909355905191939290917ffaf63637882ff2d63ca76881cf92fb857130e36f350c926f9cc884b499b42b779190a350505050565b60fc54819060005b81811015611386576001600160a01b03831615611386576001600160a01b0383811660008181526101096020908152604080832060028101805460018101825590855292842090920180546001600160a01b0319168b87169081179091559051919490939089169290917fb766b19465b3277b0b275adf79d715cac93166bf6e6a39f26e4ccfdec76ad47e9190a4546001600160a01b0316925080611bc3816131d9565b915050611b1f565b60fb5460fc8054604080516020808402820181019092528281526001600160a01b039094169360009390929091830182828015611c2757602002820191906000526020600020905b815481526020019060010190808311611c13575b5050506001600160a01b03861660009081526101096020908152604082206003810180546001810182559084529183209091018990556004810180549596509094899450909250611c799084906131c6565b90915550506101065460009067ffffffffffffffff811115611c9d57611c9d612e24565b604051908082528060200260200182016040528015611cc6578160200160208202803683370190505b509050600080610107805480602002602001604051908101604052809291908181526020018280548015611d2357602002820191906000526020600020905b81546001600160a01b03168152600190910190602001808311611d05575b505050505090506000815190506000805b610106548110156120525786546001600160a01b031660008181526101096020526040902081611d65575050612052565b8951831015611ff557600060648b8581518110611d8457611d8461319a565b60200260200101518f611d9791906132cb565b611da191906132f8565b905083600003611dc5578d826005016000828254611dbf91906131c6565b90915550505b8d826006016000828254611dd991906131c6565b90915550506007820180546001810182556000918252602090912001819055611e0281866131c6565b94508b6001600160a01b031663b70cc4c16040518163ffffffff1660e01b8152600401602060405180830381865afa158015611e42573d6000803e3d6000fd5b505050506040513d601f19601f82011682018060405250810190611e66919061317d565b60405163a9059cbb60e01b81526001600160a01b03858116600483015260248201849052919091169063a9059cbb906044016020604051808303816000875af1158015611eb7573d6000803e3d6000fd5b505050506040513d601f19601f82011682018060405250810190611edb91906131f2565b50806001600160a01b03808516908f167f197a0a2b0fbff3fc4f7f4d32597585aa8415fcc4c5dd6634336ec65904529c83611f178860016131c6565b60408051918252602082018190526005908201526410539554d160da1b606082015260800160405180910390a4600a82015460ff16611ff3576101035482600501541115611ff3576101028054600180820183556000929092527f93bdaa6a4190909b7c3fbe8d42169ffe1cab19f51dfc8db24c71abf849eced4a0180546001600160a01b0319166001600160a01b038616908117909155600a8401805460ff19169092179091556040519081527facc63915cb028aeaee9996abc0f864fc0559a2f955750aa97d6ef9f51014acfb9060200160405180910390a15b505b610105548160050154111561203d57818888815181106120175761201761319a565b6001600160a01b039092166020928302919091019091015286612039816131d9565b9750505b5081905061204a816131d9565b915050611d34565b50831561224f576000846064610104548d61206d91906132cb565b61207791906132f8565b61208191906132f8565b905060005b8581101561224c57600061010960008984815181106120a7576120a761319a565b60200260200101516001600160a01b03166001600160a01b0316815260200190815260200160002090508a6001600160a01b031663b70cc4c16040518163ffffffff1660e01b8152600401602060405180830381865afa15801561210f573d6000803e3d6000fd5b505050506040513d601f19601f82011682018060405250810190612133919061317d565b6001600160a01b031663a9059cbb8984815181106121535761215361319a565b6020026020010151856040518363ffffffff1660e01b815260040161218d9291906001600160a01b03929092168252602082015260400190565b6020604051808303816000875af11580156121ac573d6000803e3d6000fd5b505050506040513d601f19601f820116820180604052508101906121d091906131f2565b508782815181106121e3576121e361319a565b60200260200101516001600160a01b0316837f62f12b06523c734cca73aa1502a5f967c8e09d0a2f084fd36acbac47f54b0d4e60405160405180910390a36009018054600181018255600091825260209091200182905580612244816131d9565b915050612086565b50505b610102541561242f5760006064610101548c61226b91906132cb565b61227591906132f8565b610102546040805142602082015244918101919091529192506000916060016040516020818303038152906040528051906020012060001c6122b7919061330c565b9050600061010282815481106122cf576122cf61319a565b60009182526020808320909101546001600160a01b039081168084526101098352604093849020845163b70cc4c160e01b8152945191955093918f169263b70cc4c192600480820193918290030181865afa158015612332573d6000803e3d6000fd5b505050506040513d601f19601f82011682018060405250810190612356919061317d565b60405163a9059cbb60e01b81526001600160a01b03848116600483015260248201879052919091169063a9059cbb906044016020604051808303816000875af11580156123a7573d6000803e3d6000fd5b505050506040513d601f19601f820116820180604052508101906123cb91906131f2565b50600881018054600181018255600091825260209182902001859055604080518681526001600160a01b038516928101929092527f51e673ac98f0ea063ce27eb5af807d22b97cd11cd79380cf1f711ad80948046c910160405180910390a1505050505b81156125cf576000826064610108548d61244991906132cb565b61245391906132f8565b61245d91906132f8565b905060005b838110156125cc57896001600160a01b031663b70cc4c16040518163ffffffff1660e01b8152600401602060405180830381865afa1580156124a8573d6000803e3d6000fd5b505050506040513d601f19601f820116820180604052508101906124cc919061317d565b6001600160a01b031663a9059cbb8683815181106124ec576124ec61319a565b6020026020010151846040518363ffffffff1660e01b81526004016125269291906001600160a01b03929092168252602082015260400190565b6020604051808303816000875af1158015612545573d6000803e3d6000fd5b505050506040513d601f19601f8201168201806040525081019061256991906131f2565b5084818151811061257c5761257c61319a565b60200260200101516001600160a01b0316827f6d550262135215fe2f5ef9b6fad45db8cf51267248f8b95e069f8025f6f9049a60405160405180910390a3806125c4816131d9565b915050612462565b50505b8060ff60008282546125e191906131c6565b909155505050505050505050505050565b6065546001600160a01b03163314610e5d5760405162461bcd60e51b815260206004820181905260248201527f4f776e61626c653a2063616c6c6572206973206e6f7420746865206f776e65726044820152606401610624565b610e4a6125f2565b7f4910fdfa16fed3260ed0e7147f7cc6da11a60208b5b9406d12a635614ffd91435460ff161561268757610d5583612925565b826001600160a01b03166352d1902d6040518163ffffffff1660e01b8152600401602060405180830381865afa9250505080156126e1575060408051601f3d908101601f191682019092526126de91810190613320565b60015b6127445760405162461bcd60e51b815260206004820152602e60248201527f45524331393637557067726164653a206e657720696d706c656d656e7461746960448201526d6f6e206973206e6f74205555505360901b6064820152608401610624565b6000805160206133f883398151915281146127b35760405162461bcd60e51b815260206004820152602960248201527f45524331393637557067726164653a20756e737570706f727465642070726f786044820152681a58589b195555525160ba1b6064820152608401610624565b50610d558383836129c1565b6127c76129e6565b6033805460ff191690557f5db9ee0a495bf2e6ff9c91a7834c1ba4fdd244a5e8aa4e537bd38aeae4b073aa335b6040516001600160a01b03909116815260200160405180910390a1565b606580546001600160a01b038381166001600160a01b0319831681179093556040519116919082907f8be0079c531659141344cd1fd0a4f28419497f9722a3daafe3b4186f6b6457e090600090a35050565b600054610100900460ff1661288a5760405162461bcd60e51b815260040161062490613339565b610e5d612a2f565b600054610100900460ff166128b95760405162461bcd60e51b815260040161062490613339565b610e5d612a62565b600054610100900460ff16610e5d5760405162461bcd60e51b815260040161062490613339565b6128f0612a92565b6033805460ff191660011790557f62e78cea01bee320cd4e420270b5ea74000d11b0c9f74754ebdbfc544b05a2586127f43390565b6001600160a01b0381163b6129925760405162461bcd60e51b815260206004820152602d60248201527f455243313936373a206e657720696d706c656d656e746174696f6e206973206e60448201526c1bdd08184818dbdb9d1c9858dd609a1b6064820152608401610624565b6000805160206133f883398151915280546001600160a01b0319166001600160a01b0392909216919091179055565b6129ca83612ad8565b6000825111806129d75750805b15610d55576106e78383612b18565b60335460ff16610e5d5760405162461bcd60e51b815260206004820152601460248201527314185d5cd8589b194e881b9bdd081c185d5cd95960621b6044820152606401610624565b600054610100900460ff16612a565760405162461bcd60e51b815260040161062490613339565b6033805460ff19169055565b600054610100900460ff16612a895760405162461bcd60e51b815260040161062490613339565b610e5d33612811565b60335460ff1615610e5d5760405162461bcd60e51b815260206004820152601060248201526f14185d5cd8589b194e881c185d5cd95960821b6044820152606401610624565b612ae181612925565b6040516001600160a01b038216907fbc7cd75a20ee27fd9adebab32041f755214dbc6bffa90cc0225b39da2e5c2d3b90600090a250565b60606001600160a01b0383163b612b805760405162461bcd60e51b815260206004820152602660248201527f416464726573733a2064656c65676174652063616c6c20746f206e6f6e2d636f6044820152651b9d1c9858dd60d21b6064820152608401610624565b600080846001600160a01b031684604051612b9b91906133a8565b600060405180830381855af49150503d8060008114612bd6576040519150601f19603f3d011682016040523d82523d6000602084013e612bdb565b606091505b5091509150612c03828260405180606001604052806027815260200161341860279139612c0c565b95945050505050565b60608315612c1b575081612c25565b612c258383612c2c565b9392505050565b815115612c3c5781518083602001fd5b8060405162461bcd60e51b815260040161062491906133c4565b828054828255906000526020600020908101928215612c91579160200282015b82811115612c91578235825591602001919060010190612c76565b50612c9d929150612ce1565b5090565b828054828255906000526020600020908101928215612c91579160200282015b82811115612c91578251829060ff16905591602001919060010190612cc1565b5b80821115612c9d5760008155600101612ce2565b6001600160a01b0381168114610e4a57600080fd5b600060208284031215612d1d57600080fd5b8135612c2581612cf6565b600080600060608486031215612d3d57600080fd5b833592506020840135612d4f81612cf6565b91506040840135612d5f81612cf6565b809150509250925092565b60008060408385031215612d7d57600080fd5b8235612d8881612cf6565b946020939093013593505050565b60008083601f840112612da857600080fd5b50813567ffffffffffffffff811115612dc057600080fd5b6020830191508360208260051b8501011115612ddb57600080fd5b9250929050565b60008060208385031215612df557600080fd5b823567ffffffffffffffff811115612e0c57600080fd5b612e1885828601612d96565b90969095509350505050565b634e487b7160e01b600052604160045260246000fd5b60008060408385031215612e4d57600080fd5b8235612e5881612cf6565b9150602083013567ffffffffffffffff80821115612e7557600080fd5b818501915085601f830112612e8957600080fd5b813581811115612e9b57612e9b612e24565b604051601f8201601f19908116603f01168101908382118183101715612ec357612ec3612e24565b81604052828152886020848701011115612edc57600080fd5b8260208601602083013760006020848301015280955050505050509250929050565b60008060008060408587031215612f1457600080fd5b843567ffffffffffffffff80821115612f2c57600080fd5b612f3888838901612d96565b90965094506020870135915080821115612f5157600080fd5b50612f5e87828801612d96565b95989497509550505050565b600060208284031215612f7c57600080fd5b5035919050565b600081518084526020808501945080840160005b83811015612fbc5781516001600160a01b031687529582019590820190600101612f97565b509495945050505050565b608081526000612fda6080830187612f83565b8560208401528281036040840152612ff28186612f83565b91505082606083015295945050505050565b600081518084526020808501945080840160005b83811015612fbc57815187529582019590820190600101613018565b6020815261304e6020820183516001600160a01b03169052565b6000602083015161016080604085015261306c610180850183612f83565b91506040850151601f198086850301606087015261308a8483612f83565b935060608701519150808685030160808701526130a78483613004565b9350608087015160a087015260a087015160c087015260c087015160e087015260e087015191506101008187860301818801526130e48584613004565b9450808801519250506101208187860301818801526131038584613004565b9450808801519250506101408187860301818801526131228584613004565b945080880151925050506131398286018215159052565b5090949350505050565b84815260806020820152600061315c6080830186613004565b6040830194909452506001600160a01b039190911660609091015292915050565b60006020828403121561318f57600080fd5b8151612c2581612cf6565b634e487b7160e01b600052603260045260246000fd5b634e487b7160e01b600052601160045260246000fd5b80820180821115610512576105126131b0565b6000600182016131eb576131eb6131b0565b5060010190565b60006020828403121561320457600080fd5b81518015158114612c2557600080fd5b6020808252602c908201527f46756e6374696f6e206d7573742062652063616c6c6564207468726f7567682060408201526b19195b1959d85d1958d85b1b60a21b606082015260800190565b6020808252602c908201527f46756e6374696f6e206d7573742062652063616c6c6564207468726f7567682060408201526b6163746976652070726f787960a01b606082015260800190565b600060ff821660ff81036132c2576132c26131b0565b60010192915050565b8082028115828204841417610512576105126131b0565b634e487b7160e01b600052601260045260246000fd5b600082613307576133076132e2565b500490565b60008261331b5761331b6132e2565b500690565b60006020828403121561333257600080fd5b5051919050565b6020808252602b908201527f496e697469616c697a61626c653a20636f6e7472616374206973206e6f74206960408201526a6e697469616c697a696e6760a81b606082015260800190565b60005b8381101561339f578181015183820152602001613387565b50506000910152565b600082516133ba818460208701613384565b9190910192915050565b60208152600082518060208401526133e3816040850160208701613384565b601f01601f1916919091016040019291505056fe360894a13ba1a3210667c828492db98dca3e2076cc3735a920a3ca505d382bbc416464726573733a206c6f772d6c6576656c2064656c65676174652063616c6c206661696c6564a264697066735822122050ae103762990c8f3c30e9b233ec77de35a14a0b53e07c219f3de2cca62ce30564736f6c63430008110033",
  "linkReferences": {},
  "deployedLinkReferences": {}
}