{
  "_format": "hh-sol-artifact-1",
  "contractName": "ReferralUpgradeable",
  "sourceName": "contracts/ReferralUpgradeable.sol",
  "abi": [
    {
      "anonymous": false,
      "inputs": [
        {
          "indexed": false,
          "internalType": "address",
          "name": "previousAdmin",
          "type": "address"
        },
        {
          "indexed": false,
          "internalType": "address",
          "name": "newAdmin",
          "type": "address"
        }
      ],
      "name": "AdminChanged",
      "type": "event"
    },
    {
      "anonymous": false,
      "inputs": [
        {
          "indexed": true,
          "internalType": "address",
          "name": "beacon",
          "type": "address"
        }
      ],
      "name": "BeaconUpgraded",
      "type": "event"
    },
    {
      "anonymous": false,
      "inputs": [
        {
          "indexed": true,
          "internalType": "address",
          "name": "userAddressaddress",
          "type": "address"
        }
      ],
      "name": "CoreMemberAdded",
      "type": "event"
    },
    {
      "anonymous": false,
      "inputs": [
        {
          "indexed": false,
          "internalType": "address",
          "name": "userAddress",
          "type": "address"
        }
      ],
      "name": "CoreMemberRemoved",
      "type": "event"
    },
    {
      "anonymous": false,
      "inputs": [
        {
          "indexed": true,
          "internalType": "uint256",
          "name": "value",
          "type": "uint256"
        },
        {
          "indexed": true,
          "internalType": "address",
          "name": "userAddress",
          "type": "address"
        }
      ],
      "name": "CoreMemberRewardPaid",
      "type": "event"
    },
    {
      "anonymous": false,
      "inputs": [
        {
          "indexed": false,
          "internalType": "address",
          "name": "userAddress",
          "type": "address"
        }
      ],
      "name": "GlobalAddressAdded",
      "type": "event"
    },
    {
      "anonymous": false,
      "inputs": [
        {
          "indexed": false,
          "internalType": "address",
          "name": "userAddress",
          "type": "address"
        }
      ],
      "name": "GlobalAddressRemoved",
      "type": "event"
    },
    {
      "anonymous": false,
      "inputs": [
        {
          "indexed": false,
          "internalType": "uint256",
          "name": "value",
          "type": "uint256"
        },
        {
          "indexed": false,
          "internalType": "address",
          "name": "userAddress",
          "type": "address"
        }
      ],
      "name": "GlobalRewardPaid",
      "type": "event"
    },
    {
      "anonymous": false,
      "inputs": [
        {
          "indexed": false,
          "internalType": "uint8",
          "name": "version",
          "type": "uint8"
        }
      ],
      "name": "Initialized",
      "type": "event"
    },
    {
      "anonymous": false,
      "inputs": [
        {
          "indexed": true,
          "internalType": "address",
          "name": "previousOwner",
          "type": "address"
        },
        {
          "indexed": true,
          "internalType": "address",
          "name": "newOwner",
          "type": "address"
        }
      ],
      "name": "OwnershipTransferred",
      "type": "event"
    },
    {
      "anonymous": false,
      "inputs": [
        {
          "indexed": true,
          "internalType": "uint256",
          "name": "value",
          "type": "uint256"
        },
        {
          "indexed": true,
          "internalType": "address",
          "name": "userAddress",
          "type": "address"
        }
      ],
      "name": "PassiveRewardPaid",
      "type": "event"
    },
    {
      "anonymous": false,
      "inputs": [
        {
          "indexed": false,
          "internalType": "address",
          "name": "account",
          "type": "address"
        }
      ],
      "name": "Paused",
      "type": "event"
    },
    {
      "anonymous": false,
      "inputs": [
        {
          "indexed": true,
          "internalType": "address",
          "name": "referee",
          "type": "address"
        },
        {
          "indexed": true,
          "internalType": "address",
          "name": "referrer",
          "type": "address"
        },
        {
          "indexed": true,
          "internalType": "uint256",
          "name": "amount",
          "type": "uint256"
        },
        {
          "indexed": false,
          "internalType": "uint256",
          "name": "level",
          "type": "uint256"
        },
        {
          "indexed": false,
          "internalType": "string",
          "name": "currency",
          "type": "string"
        }
      ],
      "name": "ReferralRewardPaid",
      "type": "event"
    },
    {
      "anonymous": false,
      "inputs": [
        {
          "indexed": true,
          "internalType": "address",
          "name": "referee",
          "type": "address"
        },
        {
          "indexed": true,
          "internalType": "address",
          "name": "referrer",
          "type": "address"
        },
        {
          "indexed": true,
          "internalType": "string",
          "name": "reason",
          "type": "string"
        }
      ],
      "name": "RegisterRefererFailed",
      "type": "event"
    },
    {
      "anonymous": false,
      "inputs": [
        {
          "indexed": true,
          "internalType": "address",
          "name": "referee",
          "type": "address"
        },
        {
          "indexed": true,
          "internalType": "address",
          "name": "referrer",
          "type": "address"
        }
      ],
      "name": "RegisteredReferer",
      "type": "event"
    },
    {
      "anonymous": false,
      "inputs": [
        {
          "indexed": true,
          "internalType": "address",
          "name": "parent",
          "type": "address"
        },
        {
          "indexed": true,
          "internalType": "address",
          "name": "referrer",
          "type": "address"
        },
        {
          "indexed": true,
          "internalType": "address",
          "name": "referee",
          "type": "address"
        }
      ],
      "name": "RegisteredTeamAddress",
      "type": "event"
    },
    {
      "anonymous": false,
      "inputs": [
        {
          "indexed": false,
          "internalType": "address",
          "name": "userAddress",
          "type": "address"
        },
        {
          "indexed": false,
          "internalType": "uint8",
          "name": "rewardId",
          "type": "uint8"
        }
      ],
      "name": "RewardAccountAdded",
      "type": "event"
    },
    {
      "anonymous": false,
      "inputs": [
        {
          "indexed": false,
          "internalType": "address",
          "name": "userAddress",
          "type": "address"
        },
        {
          "indexed": false,
          "internalType": "uint8",
          "name": "rewardId",
          "type": "uint8"
        }
      ],
      "name": "RewardAccountPaid",
      "type": "event"
    },
    {
      "anonymous": false,
      "inputs": [
        {
          "indexed": false,
          "internalType": "uint8",
          "name": "id",
          "type": "uint8"
        },
        {
          "indexed": false,
          "internalType": "uint256",
          "name": "selfBusinessLimit",
          "type": "uint256"
        },
        {
          "indexed": false,
          "internalType": "uint256",
          "name": "directBusinessLimit",
          "type": "uint256"
        },
        {
          "indexed": false,
          "internalType": "uint256",
          "name": "teamBusinessLimit",
          "type": "uint256"
        },
        {
          "indexed": false,
          "internalType": "string",
          "name": "rankName",
          "type": "string"
        },
        {
          "indexed": false,
          "internalType": "string",
          "name": "rewardName",
          "type": "string"
        },
        {
          "indexed": false,
          "internalType": "uint256",
          "name": "appraisal",
          "type": "uint256"
        }
      ],
      "name": "RewardAdded",
      "type": "event"
    },
    {
      "anonymous": false,
      "inputs": [
        {
          "indexed": false,
          "internalType": "address",
          "name": "account",
          "type": "address"
        }
      ],
      "name": "Unpaused",
      "type": "event"
    },
    {
      "anonymous": false,
      "inputs": [
        {
          "indexed": true,
          "internalType": "address",
          "name": "implementation",
          "type": "address"
        }
      ],
      "name": "Upgraded",
      "type": "event"
    },
    {
      "inputs": [
        {
          "internalType": "address",
          "name": "",
          "type": "address"
        }
      ],
      "name": "addressToId",
      "outputs": [
        {
          "internalType": "uint16",
          "name": "",
          "type": "uint16"
        }
      ],
      "stateMutability": "view",
      "type": "function"
    },
    {
      "inputs": [],
      "name": "contractDefaults",
      "outputs": [
        {
          "internalType": "uint256",
          "name": "levelDecimals",
          "type": "uint256"
        },
        {
          "internalType": "uint256[]",
          "name": "levelRates",
          "type": "uint256[]"
        },
        {
          "internalType": "uint256",
          "name": "totalLevelRate",
          "type": "uint256"
        },
        {
          "internalType": "address",
          "name": "defaultReferrer",
          "type": "address"
        }
      ],
      "stateMutability": "view",
      "type": "function"
    },
    {
      "inputs": [
        {
          "internalType": "uint16",
          "name": "_from",
          "type": "uint16"
        },
        {
          "internalType": "uint16",
          "name": "_to",
          "type": "uint16"
        }
      ],
      "name": "deleteTotalBusiness",
      "outputs": [],
      "stateMutability": "nonpayable",
      "type": "function"
    },
    {
      "inputs": [],
      "name": "getGlobalRefereeLimit",
      "outputs": [
        {
          "internalType": "uint8",
          "name": "",
          "type": "uint8"
        }
      ],
      "stateMutability": "view",
      "type": "function"
    },
    {
      "inputs": [
        {
          "internalType": "uint8",
          "name": "_rewardId",
          "type": "uint8"
        },
        {
          "internalType": "uint16",
          "name": "_from",
          "type": "uint16"
        },
        {
          "internalType": "uint16",
          "name": "_to",
          "type": "uint16"
        }
      ],
      "name": "getRewardQualifiedUsers",
      "outputs": [
        {
          "internalType": "address[]",
          "name": "_userAddress",
          "type": "address[]"
        },
        {
          "internalType": "uint16",
          "name": "_achieversListCount",
          "type": "uint16"
        }
      ],
      "stateMutability": "view",
      "type": "function"
    },
    {
      "inputs": [],
      "name": "getSelfIncomePoolRefereeLimit",
      "outputs": [
        {
          "internalType": "uint8",
          "name": "",
          "type": "uint8"
        }
      ],
      "stateMutability": "view",
      "type": "function"
    },
    {
      "inputs": [
        {
          "internalType": "address",
          "name": "_userAddress",
          "type": "address"
        }
      ],
      "name": "getTeamBusinessToQualifyRewards",
      "outputs": [
        {
          "internalType": "uint256",
          "name": "mainBusiness",
          "type": "uint256"
        },
        {
          "internalType": "uint256",
          "name": "otherBusiness",
          "type": "uint256"
        }
      ],
      "stateMutability": "view",
      "type": "function"
    },
    {
      "inputs": [
        {
          "internalType": "address",
          "name": "_address",
          "type": "address"
        }
      ],
      "name": "getUserAccount",
      "outputs": [
        {
          "components": [
            {
              "internalType": "address",
              "name": "referrer",
              "type": "address"
            },
            {
              "internalType": "address[]",
              "name": "referee",
              "type": "address[]"
            },
            {
              "internalType": "address[]",
              "name": "team",
              "type": "address[]"
            },
            {
              "internalType": "uint256[]",
              "name": "topUp",
              "type": "uint256[]"
            },
            {
              "internalType": "uint256",
              "name": "selfBusiness",
              "type": "uint256"
            },
            {
              "internalType": "uint256",
              "name": "directBusiness",
              "type": "uint256"
            },
            {
              "internalType": "uint256",
              "name": "totalBusiness",
              "type": "uint256"
            },
            {
              "internalType": "uint256[]",
              "name": "rewardsPaidReferral",
              "type": "uint256[]"
            },
            {
              "internalType": "uint256[]",
              "name": "rewardsPaidGlobal",
              "type": "uint256[]"
            },
            {
              "internalType": "uint256[]",
              "name": "rewardPaidPassive",
              "type": "uint256[]"
            },
            {
              "internalType": "bool",
              "name": "isInGlobalID",
              "type": "bool"
            }
          ],
          "internalType": "struct ReferralUpgradeable.Account",
          "name": "userAccount",
          "type": "tuple"
        }
      ],
      "stateMutability": "view",
      "type": "function"
    },
    {
      "inputs": [
        {
          "internalType": "address",
          "name": "_address",
          "type": "address"
        }
      ],
      "name": "getUserReferrerAddress",
      "outputs": [
        {
          "internalType": "address",
          "name": "referrer",
          "type": "address"
        }
      ],
      "stateMutability": "view",
      "type": "function"
    },
    {
      "inputs": [
        {
          "internalType": "address",
          "name": "_userAddress",
          "type": "address"
        }
      ],
      "name": "getUserRewardAccount",
      "outputs": [
        {
          "components": [
            {
              "internalType": "address",
              "name": "userAdddress",
              "type": "address"
            },
            {
              "internalType": "uint8[]",
              "name": "rewardId",
              "type": "uint8[]"
            },
            {
              "internalType": "uint8",
              "name": "lastRewardId",
              "type": "uint8"
            }
          ],
          "internalType": "struct ReferralUpgradeable.RewardsAccount",
          "name": "",
          "type": "tuple"
        }
      ],
      "stateMutability": "view",
      "type": "function"
    },
    {
      "inputs": [
        {
          "internalType": "address",
          "name": "_userAddress",
          "type": "address"
        }
      ],
      "name": "getUserRewardQualified",
      "outputs": [
        {
          "internalType": "uint8",
          "name": "rewardId",
          "type": "uint8"
        }
      ],
      "stateMutability": "view",
      "type": "function"
    },
    {
      "inputs": [
        {
          "internalType": "address",
          "name": "_address",
          "type": "address"
        }
      ],
      "name": "getUserTeam",
      "outputs": [
        {
          "internalType": "address[]",
          "name": "userReferee",
          "type": "address[]"
        },
        {
          "internalType": "uint256",
          "name": "userRefereeCount",
          "type": "uint256"
        },
        {
          "internalType": "address[]",
          "name": "userTeamAddress",
          "type": "address[]"
        },
        {
          "internalType": "uint256",
          "name": "userTeamCount",
          "type": "uint256"
        }
      ],
      "stateMutability": "view",
      "type": "function"
    },
    {
      "inputs": [
        {
          "internalType": "address",
          "name": "_userAddress",
          "type": "address"
        }
      ],
      "name": "getUserTopUpForRewards",
      "outputs": [
        {
          "internalType": "uint256",
          "name": "",
          "type": "uint256"
        }
      ],
      "stateMutability": "view",
      "type": "function"
    },
    {
      "inputs": [
        {
          "internalType": "address",
          "name": "_address",
          "type": "address"
        }
      ],
      "name": "getUserTotalBusiness",
      "outputs": [
        {
          "internalType": "uint256",
          "name": "selfBusiness",
          "type": "uint256"
        },
        {
          "internalType": "uint256",
          "name": "directBusiness",
          "type": "uint256"
        },
        {
          "internalType": "uint256",
          "name": "refereeTeamBusiness",
          "type": "uint256"
        },
        {
          "internalType": "uint256",
          "name": "totalBusiness",
          "type": "uint256"
        }
      ],
      "stateMutability": "view",
      "type": "function"
    },
    {
      "inputs": [
        {
          "internalType": "address",
          "name": "_address",
          "type": "address"
        }
      ],
      "name": "getUserTotalRewardPaid",
      "outputs": [
        {
          "internalType": "uint256",
          "name": "rewardsAUSD",
          "type": "uint256"
        },
        {
          "internalType": "uint256",
          "name": "rewardsGlobal",
          "type": "uint256"
        },
        {
          "internalType": "uint256",
          "name": "rewardsPassive",
          "type": "uint256"
        }
      ],
      "stateMutability": "view",
      "type": "function"
    },
    {
      "inputs": [],
      "name": "getVariablesContract",
      "outputs": [
        {
          "internalType": "address",
          "name": "",
          "type": "address"
        }
      ],
      "stateMutability": "view",
      "type": "function"
    },
    {
      "inputs": [
        {
          "internalType": "address",
          "name": "_address",
          "type": "address"
        }
      ],
      "name": "hasReferrer",
      "outputs": [
        {
          "internalType": "bool",
          "name": "",
          "type": "bool"
        }
      ],
      "stateMutability": "view",
      "type": "function"
    },
    {
      "inputs": [
        {
          "internalType": "uint16",
          "name": "",
          "type": "uint16"
        }
      ],
      "name": "idToAddress",
      "outputs": [
        {
          "internalType": "address",
          "name": "",
          "type": "address"
        }
      ],
      "stateMutability": "view",
      "type": "function"
    },
    {
      "inputs": [
        {
          "internalType": "address[]",
          "name": "_userAddress",
          "type": "address[]"
        }
      ],
      "name": "includeUsersInList",
      "outputs": [],
      "stateMutability": "nonpayable",
      "type": "function"
    },
    {
      "inputs": [],
      "name": "initialize",
      "outputs": [],
      "stateMutability": "nonpayable",
      "type": "function"
    },
    {
      "inputs": [],
      "name": "owner",
      "outputs": [
        {
          "internalType": "address",
          "name": "",
          "type": "address"
        }
      ],
      "stateMutability": "view",
      "type": "function"
    },
    {
      "inputs": [],
      "name": "paused",
      "outputs": [
        {
          "internalType": "bool",
          "name": "",
          "type": "bool"
        }
      ],
      "stateMutability": "view",
      "type": "function"
    },
    {
      "inputs": [
        {
          "internalType": "uint256",
          "name": "_valueInUSD",
          "type": "uint256"
        },
        {
          "internalType": "address",
          "name": "_userAddress",
          "type": "address"
        },
        {
          "internalType": "address",
          "name": "_referrerAddress",
          "type": "address"
        }
      ],
      "name": "payReferralANUSDAdmin",
      "outputs": [],
      "stateMutability": "nonpayable",
      "type": "function"
    },
    {
      "inputs": [],
      "name": "proxiableUUID",
      "outputs": [
        {
          "internalType": "bytes32",
          "name": "",
          "type": "bytes32"
        }
      ],
      "stateMutability": "view",
      "type": "function"
    },
    {
      "inputs": [],
      "name": "renounceOwnership",
      "outputs": [],
      "stateMutability": "nonpayable",
      "type": "function"
    },
    {
      "inputs": [
        {
          "internalType": "address",
          "name": "_userAddress",
          "type": "address"
        }
      ],
      "name": "resetSelfTeamBusiness",
      "outputs": [],
      "stateMutability": "nonpayable",
      "type": "function"
    },
    {
      "inputs": [
        {
          "internalType": "address",
          "name": "",
          "type": "address"
        }
      ],
      "name": "rewardAccount",
      "outputs": [
        {
          "internalType": "address",
          "name": "userAdddress",
          "type": "address"
        },
        {
          "internalType": "uint8",
          "name": "lastRewardId",
          "type": "uint8"
        }
      ],
      "stateMutability": "view",
      "type": "function"
    },
    {
      "inputs": [
        {
          "internalType": "uint8",
          "name": "",
          "type": "uint8"
        }
      ],
      "name": "rewards",
      "outputs": [
        {
          "internalType": "uint8",
          "name": "id",
          "type": "uint8"
        },
        {
          "internalType": "uint256",
          "name": "selfBusinessLimit",
          "type": "uint256"
        },
        {
          "internalType": "uint256",
          "name": "directBusinessLimit",
          "type": "uint256"
        },
        {
          "internalType": "uint256",
          "name": "teamBusinessLimit",
          "type": "uint256"
        },
        {
          "internalType": "string",
          "name": "rankName",
          "type": "string"
        },
        {
          "internalType": "string",
          "name": "rewardName",
          "type": "string"
        },
        {
          "internalType": "uint256",
          "name": "appraisal",
          "type": "uint256"
        }
      ],
      "stateMutability": "view",
      "type": "function"
    },
    {
      "inputs": [
        {
          "internalType": "uint256",
          "name": "_directBusiness",
          "type": "uint256"
        },
        {
          "internalType": "uint256",
          "name": "_teamBusiness",
          "type": "uint256"
        }
      ],
      "name": "setGlobalPushCondition",
      "outputs": [],
      "stateMutability": "nonpayable",
      "type": "function"
    },
    {
      "inputs": [
        {
          "internalType": "uint8[]",
          "name": "_id",
          "type": "uint8[]"
        },
        {
          "internalType": "uint256[]",
          "name": "_selfBusinessLimit",
          "type": "uint256[]"
        },
        {
          "internalType": "uint256[]",
          "name": "_directBusinessLimit",
          "type": "uint256[]"
        },
        {
          "internalType": "uint256[]",
          "name": "_teamBusinessLimit",
          "type": "uint256[]"
        },
        {
          "internalType": "string[]",
          "name": "_rankName",
          "type": "string[]"
        },
        {
          "internalType": "string[]",
          "name": "_rewardName",
          "type": "string[]"
        },
        {
          "internalType": "uint256[]",
          "name": "_appraisal",
          "type": "uint256[]"
        }
      ],
      "name": "setRewards",
      "outputs": [],
      "stateMutability": "nonpayable",
      "type": "function"
    },
    {
      "inputs": [
        {
          "internalType": "address",
          "name": "_userAddress",
          "type": "address"
        },
        {
          "internalType": "uint256",
          "name": "_valueInWei",
          "type": "uint256"
        }
      ],
      "name": "setUserTotalBusiness",
      "outputs": [],
      "stateMutability": "nonpayable",
      "type": "function"
    },
    {
      "inputs": [],
      "name": "totalUsers",
      "outputs": [
        {
          "internalType": "uint16",
          "name": "",
          "type": "uint16"
        }
      ],
      "stateMutability": "view",
      "type": "function"
    },
    {
      "inputs": [
        {
          "internalType": "address",
          "name": "_address",
          "type": "address"
        },
        {
          "internalType": "uint256",
          "name": "_value",
          "type": "uint256"
        }
      ],
      "name": "transferNative",
      "outputs": [],
      "stateMutability": "nonpayable",
      "type": "function"
    },
    {
      "inputs": [
        {
          "internalType": "address",
          "name": "newOwner",
          "type": "address"
        }
      ],
      "name": "transferOwnership",
      "outputs": [],
      "stateMutability": "nonpayable",
      "type": "function"
    },
    {
      "inputs": [
        {
          "internalType": "address",
          "name": "_userAddress",
          "type": "address"
        },
        {
          "internalType": "uint8",
          "name": "_rewardId",
          "type": "uint8"
        }
      ],
      "name": "updateIfRewardPaidAdmin",
      "outputs": [],
      "stateMutability": "nonpayable",
      "type": "function"
    },
    {
      "inputs": [
        {
          "internalType": "uint16",
          "name": "_from",
          "type": "uint16"
        },
        {
          "internalType": "uint16",
          "name": "_to",
          "type": "uint16"
        }
      ],
      "name": "updateTotalBusiness",
      "outputs": [],
      "stateMutability": "nonpayable",
      "type": "function"
    },
    {
      "inputs": [
        {
          "internalType": "uint16",
          "name": "_from",
          "type": "uint16"
        },
        {
          "internalType": "uint16",
          "name": "_to",
          "type": "uint16"
        }
      ],
      "name": "updateTotalBusiness7Levels",
      "outputs": [],
      "stateMutability": "nonpayable",
      "type": "function"
    },
    {
      "inputs": [
        {
          "internalType": "address",
          "name": "newImplementation",
          "type": "address"
        }
      ],
      "name": "upgradeTo",
      "outputs": [],
      "stateMutability": "nonpayable",
      "type": "function"
    },
    {
      "inputs": [
        {
          "internalType": "address",
          "name": "newImplementation",
          "type": "address"
        },
        {
          "internalType": "bytes",
          "name": "data",
          "type": "bytes"
        }
      ],
      "name": "upgradeToAndCall",
      "outputs": [],
      "stateMutability": "payable",
      "type": "function"
    },
    {
      "inputs": [
        {
          "internalType": "uint256",
          "name": "",
          "type": "uint256"
        }
      ],
      "name": "usersList",
      "outputs": [
        {
          "internalType": "address",
          "name": "",
          "type": "address"
        }
      ],
      "stateMutability": "view",
      "type": "function"
    },
    {
      "inputs": [
        {
          "internalType": "address",
          "name": "_tokenAddress",
          "type": "address"
        },
        {
          "internalType": "address",
          "name": "_userAddress",
          "type": "address"
        },
        {
          "internalType": "uint256",
          "name": "_value",
          "type": "uint256"
        }
      ],
      "name": "withdrawtokens",
      "outputs": [],
      "stateMutability": "nonpayable",
      "type": "function"
    },
    {
      "stateMutability": "payable",
      "type": "receive"
    }
  ],
  "bytecode": "0x60a06040523060805234801561001457600080fd5b50608051615edd6200004d60003960008181611b4001528181611b8001528181611c1f01528181611c5f0152611d190152615edd6000f3fe60806040526004361061024a5760003560e01c8063771aa21611610139578063cb0e0d7d116100b6578063f13a143f1161007a578063f13a143f146107dd578063f2fde38b146107fb578063faeda7e51461081b578063fb47e0161461084b578063fb5d452614610878578063fcfba29b1461089d57600080fd5b8063cb0e0d7d14610702578063ccef558714610734578063dd1ca71614610754578063e5ffb5df14610782578063ef519dc0146107a257600080fd5b80638da5cb5b116100fd5780638da5cb5b1461062d57806391b493e41461064b5780639b317cc41461066b578063a0760aff1461069e578063bff1f9e1146106d357600080fd5b8063771aa2161461058b5780637d2e90c2146105ab5780638129fc1c146105cb57806386f6630d146105e05780638a93f7b91461060d57600080fd5b806335166fef116101c757806352d1902d1161018b57806352d1902d1461050a5780635c975abb1461051f578063715018a61461053757806371e13ead1461054c57806373a3ec851461056b57600080fd5b806335166fef1461045d5780633659cfe61461047d57806343b4ebf41461049d5780634f1ef286146104d7578063502aa3b5146104ea57600080fd5b8063228159b41161020e578063228159b41461034a5780632405091c1461036a57806325f1c91e146103aa5780632bb5112d146103d8578063348a7e941461043d57600080fd5b8063025313ff146102565780630898adc7146102aa5780630a783ea5146102cc57806318452cd8146102fa5780631a4442cd1461032a57600080fd5b3661025157005b600080fd5b34801561026257600080fd5b5061028d610271366004615004565b61010c602052600090815260409020546001600160a01b031681565b6040516001600160a01b0390911681526020015b60405180910390f35b3480156102b657600080fd5b506102ca6102c5366004615034565b6108bd565b005b3480156102d857600080fd5b5061010f546301000000900460ff165b60405160ff90911681526020016102a1565b34801561030657600080fd5b5061031a610315366004615075565b61093e565b60405190151581526020016102a1565b34801561033657600080fd5b506102ca610345366004615092565b610965565b34801561035657600080fd5b506102ca6103653660046150c5565b610a2b565b34801561037657600080fd5b5061038a610385366004615075565b610c72565b6040805194855260208501939093529183015260608201526080016102a1565b3480156103b657600080fd5b506103ca6103c5366004615075565b611261565b6040519081526020016102a1565b3480156103e457600080fd5b5061041c6103f3366004615075565b61010a60205260009081526040902080546002909101546001600160a01b039091169060ff1682565b604080516001600160a01b03909316835260ff9091166020830152016102a1565b34801561044957600080fd5b506102ca610458366004615075565b6114f8565b34801561046957600080fd5b506102ca61047836600461533d565b611815565b34801561048957600080fd5b506102ca610498366004615075565b611b36565b3480156104a957600080fd5b5061028d6104b8366004615075565b6001600160a01b03908116600090815261010960205260409020541690565b6102ca6104e5366004615458565b611c15565b3480156104f657600080fd5b5061028d6105053660046154bc565b611ce1565b34801561051657600080fd5b506103ca611d0c565b34801561052b57600080fd5b5060335460ff1661031a565b34801561054357600080fd5b506102ca611dbf565b34801561055857600080fd5b5061010f5462010000900460ff166102e8565b34801561057757600080fd5b506102ca610586366004615092565b611dd3565b34801561059757600080fd5b506102ca6105a63660046154d5565b611e2c565b3480156105b757600080fd5b506102ca6105c6366004615501565b611f30565b3480156105d757600080fd5b506102ca611f6e565b3480156105ec57600080fd5b506106006105fb366004615075565b612154565b6040516102a1919061552d565b34801561061957600080fd5b506102ca6106283660046155a2565b61223a565b34801561063957600080fd5b506065546001600160a01b031661028d565b34801561065757600080fd5b506102ca610666366004615617565b61230e565b34801561067757600080fd5b5061068b610686366004615639565b6123a3565b6040516102a197969594939291906156a4565b3480156106aa57600080fd5b506106be6106b9366004615075565b6124f5565b604080519283526020830191909152016102a1565b3480156106df57600080fd5b5061010f546106ef9061ffff1681565b60405161ffff90911681526020016102a1565b34801561070e57600080fd5b506106ef61071d366004615075565b61010d6020526000908152604090205461ffff1681565b34801561074057600080fd5b506102ca61074f366004615501565b612a9b565b34801561076057600080fd5b5061077461076f3660046156f9565b612ac3565b6040516102a1929190615780565b34801561078e57600080fd5b506102e861079d366004615075565b612ba1565b3480156107ae57600080fd5b506107c26107bd366004615075565b613030565b604080519384526020840192909252908201526060016102a1565b3480156107e957600080fd5b5060fb546001600160a01b031661028d565b34801561080757600080fd5b506102ca610816366004615075565b61314b565b34801561082757600080fd5b5061083b610836366004615075565b6131c1565b6040516102a194939291906157a6565b34801561085757600080fd5b5061086b610866366004615075565b6132ae565b6040516102a19190615813565b34801561088457600080fd5b5061088d61359b565b6040516102a19493929190615922565b3480156108a957600080fd5b506102ca6108b8366004615092565b613662565b6108c561371e565b60405163a9059cbb60e01b81526001600160a01b0383811660048301526024820183905284169063a9059cbb906044016020604051808303816000875af1158015610914573d6000803e3d6000fd5b505050506040513d601f19601f82011682018060405250810190610938919061595c565b50505050565b6001600160a01b038082166000908152610109602052604081205490911615155b92915050565b61096d61371e565b61010654825b8261ffff168161ffff1610156109385761ffff8116600090815261010c60209081526040808320546001600160a01b031683526101099091528120905b83811015610a185781546001600160a01b031615610a185781546001600160a01b03166000908152610109602052604081206004840154600682018054929391929091906109ff908490615994565b90915550909250610a119050816159a7565b90506109b0565b505080610a24906159c0565b9050610973565b60fb5433906001600160a01b0316610a4b6065546001600160a01b031690565b6001600160a01b0316826001600160a01b03161480610af1575060fb60009054906101000a90046001600160a01b03166001600160a01b03166363d9df856040518163ffffffff1660e01b8152600401602060405180830381865afa158015610ab8573d6000803e3d6000fd5b505050506040513d601f19601f82011682018060405250810190610adc91906159e1565b6001600160a01b0316826001600160a01b0316145b610b4d5760405162461bcd60e51b815260206004820152602260248201527f4f6e6c79206f776e65722063616e2063616c6c20746869732066756e6374696f604482015261371760f11b60648201526084015b60405180910390fd5b6001600160a01b038481166000908152610109602052604090205416158015610b7e57506001600160a01b03831615155b15610b8d57610b8d8484613778565b6001600160a01b038381166000908152610109602052604090205416158015610bbe57506001600160a01b03831615155b8015610bd95750610100546001600160a01b03848116911614155b15610bf65761010054610bf69084906001600160a01b0316613778565b610c628585836001600160a01b031663611509236040518163ffffffff1660e01b8152600401602060405180830381865afa158015610c39573d6000803e3d6000fd5b505050506040513d601f19601f82011682018060405250810190610c5d91906159e1565b6138c0565b610c6b84614073565b5050505050565b6001600160a01b0381166000908152610109602052604081206001810154600482015492918291829190825b81811015610f755760006101096000856001018481548110610cc257610cc26159fe565b60009182526020808320909101546001600160a01b03908116845283820194909452604092830190912082516101608101845281549094168452600181018054845181850281018501909552808552919385840193909290830182828015610d5357602002820191906000526020600020905b81546001600160a01b03168152600190910190602001808311610d35575b5050505050815260200160028201805480602002602001604051908101604052809291908181526020018280548015610db557602002820191906000526020600020905b81546001600160a01b03168152600190910190602001808311610d97575b5050505050815260200160038201805480602002602001604051908101604052809291908181526020018280548015610e0d57602002820191906000526020600020905b815481526020019060010190808311610df9575b5050505050815260200160048201548152602001600582015481526020016006820154815260200160078201805480602002602001604051908101604052809291908181526020018280548015610e8357602002820191906000526020600020905b815481526020019060010190808311610e6f575b5050505050815260200160088201805480602002602001604051908101604052809291908181526020018280548015610edb57602002820191906000526020600020905b815481526020019060010190808311610ec7575b5050505050815260200160098201805480602002602001604051908101604052809291908181526020018280548015610f3357602002820191906000526020600020905b815481526020019060010190808311610f1f575b5050509183525050600a919091015460ff1615156020909101526080810151909150610f5f9088615994565b9650508080610f6d906159a7565b915050610c9e565b5060005b818110156112505760006101096000856001018481548110610f9d57610f9d6159fe565b60009182526020808320909101546001600160a01b0390811684528382019490945260409283019091208251610160810184528154909416845260018101805484518185028101850190955280855291938584019390929083018282801561102e57602002820191906000526020600020905b81546001600160a01b03168152600190910190602001808311611010575b505050505081526020016002820180548060200260200160405190810160405280929190818152602001828054801561109057602002820191906000526020600020905b81546001600160a01b03168152600190910190602001808311611072575b50505050508152602001600382018054806020026020016040519081016040528092919081815260200182805480156110e857602002820191906000526020600020905b8154815260200190600101908083116110d4575b505050505081526020016004820154815260200160058201548152602001600682015481526020016007820180548060200260200160405190810160405280929190818152602001828054801561115e57602002820191906000526020600020905b81548152602001906001019080831161114a575b50505050508152602001600882018054806020026020016040519081016040528092919081815260200182805480156111b657602002820191906000526020600020905b8154815260200190600101908083116111a2575b505050505081526020016009820180548060200260200160405190810160405280929190818152602001828054801561120e57602002820191906000526020600020905b8154815260200190600101908083116111fa575b5050509183525050600a919091015460ff16151560209091015260c081015190915061123a9087615994565b9550508080611248906159a7565b915050610f79565b508160060154925050509193509193565b6001600160a01b0380821660009081526101096020908152604080832081516101608101835281549095168552600181018054835181860281018601909452808452949586959094929385840193909291908301828280156112ec57602002820191906000526020600020905b81546001600160a01b031681526001909101906020018083116112ce575b505050505081526020016002820180548060200260200160405190810160405280929190818152602001828054801561134e57602002820191906000526020600020905b81546001600160a01b03168152600190910190602001808311611330575b50505050508152602001600382018054806020026020016040519081016040528092919081815260200182805480156113a657602002820191906000526020600020905b815481526020019060010190808311611392575b505050505081526020016004820154815260200160058201548152602001600682015481526020016007820180548060200260200160405190810160405280929190818152602001828054801561141c57602002820191906000526020600020905b815481526020019060010190808311611408575b505050505081526020016008820180548060200260200160405190810160405280929190818152602001828054801561147457602002820191906000526020600020905b815481526020019060010190808311611460575b50505050508152602001600982018054806020026020016040519081016040528092919081815260200182805480156114cc57602002820191906000526020600020905b8154815260200190600101908083116114b8575b5050509183525050600a919091015460ff16151560209091015290506114f18161416a565b9392505050565b6001600160a01b03811660009081526101096020526040812060068101919091556002810154156118115760005b600282015481101561180f576000610109600084600201848154811061154e5761154e6159fe565b60009182526020808320909101546001600160a01b039081168452838201949094526040928301909120825161016081018452815490941684526001810180548451818502810185019095528085529193858401939092908301828280156115df57602002820191906000526020600020905b81546001600160a01b031681526001909101906020018083116115c1575b505050505081526020016002820180548060200260200160405190810160405280929190818152602001828054801561164157602002820191906000526020600020905b81546001600160a01b03168152600190910190602001808311611623575b505050505081526020016003820180548060200260200160405190810160405280929190818152602001828054801561169957602002820191906000526020600020905b815481526020019060010190808311611685575b505050505081526020016004820154815260200160058201548152602001600682015481526020016007820180548060200260200160405190810160405280929190818152602001828054801561170f57602002820191906000526020600020905b8154815260200190600101908083116116fb575b505050505081526020016008820180548060200260200160405190810160405280929190818152602001828054801561176757602002820191906000526020600020905b815481526020019060010190808311611753575b50505050508152602001600982018054806020026020016040519081016040528092919081815260200182805480156117bf57602002820191906000526020600020905b8154815260200190600101908083116117ab575b5050509183525050600a919091015460ff161515602090910152608081015160068501805492935090916000906117f7908490615994565b9091555061180891508290506159a7565b9050611526565b505b5050565b60fb54604051630935e01b60e21b81523360048201526001600160a01b03909116906324d7806c90602401602060405180830381865afa15801561185d573d6000803e3d6000fd5b505050506040513d601f19601f82011682018060405250810190611881919061595c565b61189d5760405162461bcd60e51b8152600401610b4490615a14565b60005b8751811015611b2c576040518060e001604052808983815181106118c6576118c66159fe565b602002602001015160ff1681526020018883815181106118e8576118e86159fe565b60200260200101518152602001878381518110611907576119076159fe565b60200260200101518152602001868381518110611926576119266159fe565b60200260200101518152602001858381518110611945576119456159fe565b60200260200101518152602001848381518110611964576119646159fe565b60200260200101518152602001838381518110611983576119836159fe565b602002602001015181525061010b60008a84815181106119a5576119a56159fe565b60209081029190910181015160ff90811683528282019390935260409182016000208451815460ff19169416939093178355830151600183015582015160028201556060820151600382015560808201516004820190611a059082615ac1565b5060a08201516005820190611a1a9082615ac1565b5060c082015181600601559050507fb9f30bf0ab6748f3fcfbc9d280ed1feedea51276343f55f8342b8c453b876e9a888281518110611a5b57611a5b6159fe565b6020026020010151888381518110611a7557611a756159fe565b6020026020010151888481518110611a8f57611a8f6159fe565b6020026020010151888581518110611aa957611aa96159fe565b6020026020010151888681518110611ac357611ac36159fe565b6020026020010151888781518110611add57611add6159fe565b6020026020010151888881518110611af757611af76159fe565b6020026020010151604051611b1297969594939291906156a4565b60405180910390a180611b24816159a7565b9150506118a0565b5050505050505050565b6001600160a01b037f0000000000000000000000000000000000000000000000000000000000000000163003611b7e5760405162461bcd60e51b8152600401610b4490615b81565b7f00000000000000000000000000000000000000000000000000000000000000006001600160a01b0316611bc7600080516020615e61833981519152546001600160a01b031690565b6001600160a01b031614611bed5760405162461bcd60e51b8152600401610b4490615bcd565b611bf6816141d4565b60408051600080825260208201909252611c12918391906141dc565b50565b6001600160a01b037f0000000000000000000000000000000000000000000000000000000000000000163003611c5d5760405162461bcd60e51b8152600401610b4490615b81565b7f00000000000000000000000000000000000000000000000000000000000000006001600160a01b0316611ca6600080516020615e61833981519152546001600160a01b031690565b6001600160a01b031614611ccc5760405162461bcd60e51b8152600401610b4490615bcd565b611cd5826141d4565b611811828260016141dc565b61010e8181548110611cf257600080fd5b6000918252602090912001546001600160a01b0316905081565b6000306001600160a01b037f00000000000000000000000000000000000000000000000000000000000000001614611dac5760405162461bcd60e51b815260206004820152603860248201527f555550535570677261646561626c653a206d757374206e6f742062652063616c60448201527f6c6564207468726f7567682064656c656761746563616c6c00000000000000006064820152608401610b44565b50600080516020615e6183398151915290565b611dc761371e565b611dd1600061434c565b565b611ddb61371e565b815b8161ffff168161ffff16101561180f5761ffff8116600090815261010c60209081526040808320546001600160a01b03168352610109909152812060060155611e25816159c0565b9050611ddd565b60fb54604051630935e01b60e21b81523360048201526001600160a01b03909116906324d7806c90602401602060405180830381865afa158015611e74573d6000803e3d6000fd5b505050506040513d601f19601f82011682018060405250810190611e98919061595c565b611eb45760405162461bcd60e51b8152600401610b4490615a14565b6001600160a01b03808316600090815261010a602052604090208054909116611ef15780546001600160a01b0319166001600160a01b0384161781555b600190810180549182018155600090815260209081902090820401805460ff938416601f9093166101000a928302939092021990911691909117905550565b611f3861371e565b6040516001600160a01b0383169082156108fc029083906000818181858888f1935050505015801561180f573d6000803e3d6000fd5b600054610100900460ff1615808015611f8e5750600054600160ff909116105b80611fa85750303b158015611fa8575060005460ff166001145b61200b5760405162461bcd60e51b815260206004820152602e60248201527f496e697469616c697a61626c653a20636f6e747261637420697320616c72656160448201526d191e481a5b9a5d1a585b1a5e995960921b6064820152608401610b44565b6000805460ff19166001179055801561202e576000805461ff0019166101001790555b60fb80546001600160a01b03199081167377daafc7411c911b869c71bf70fe36cce507845d17909155610100805490911673f3ba579d4afd4dad8a8c2d1bcbdd1405688e492f1790556040805160e0810182526007808252600460208301526003928201929092526002606082015260016080820181905260a0820181905260c08201526120bf9160fc9190614f8d565b50606460fd5560146101065569011478b7c30abc3000006101035560046101015560056101045568a80d24677efef00000610105556120fc61439e565b6121046143cd565b61210c6143fc565b8015611c12576000805461ff0019169055604051600181527f7f26b83ff96e1f2b6a682f133852f6798a09c465da95921460cefb38474024989060200160405180910390a150565b612184604051806060016040528060006001600160a01b0316815260200160608152602001600060ff1681525090565b6001600160a01b03808316600090815261010a602090815260409182902082516060810184528154909416845260018101805484518185028101850190955280855291938584019390929083018282801561221c57602002820191906000526020600020906000905b825461010083900a900460ff168152602060019283018181049485019490930390920291018084116121ed5790505b50505091835250506002919091015460ff1660209091015292915050565b60fb54604051630935e01b60e21b81523360048201526001600160a01b03909116906324d7806c90602401602060405180830381865afa158015612282573d6000803e3d6000fd5b505050506040513d601f19601f820116820180604052508101906122a6919061595c565b6122c25760405162461bcd60e51b8152600401610b4490615a14565b60005b8181101561180f576122fc8383838181106122e2576122e26159fe565b90506020020160208101906122f79190615075565b614073565b80612306816159a7565b9150506122c5565b60fb54604051630935e01b60e21b81523360048201526001600160a01b03909116906324d7806c90602401602060405180830381865afa158015612356573d6000803e3d6000fd5b505050506040513d601f19601f8201168201806040525081019061237a919061595c565b6123965760405162461bcd60e51b8152600401610b4490615a14565b6101039190915561011055565b61010b602052600090815260409020805460018201546002830154600384015460048501805460ff909516959394929391926123de90615a3f565b80601f016020809104026020016040519081016040528092919081815260200182805461240a90615a3f565b80156124575780601f1061242c57610100808354040283529160200191612457565b820191906000526020600020905b81548152906001019060200180831161243a57829003601f168201915b50505050509080600501805461246c90615a3f565b80601f016020809104026020016040519081016040528092919081815260200182805461249890615a3f565b80156124e55780601f106124ba576101008083540402835291602001916124e5565b820191906000526020600020905b8154815290600101906020018083116124c857829003601f168201915b5050505050908060060154905087565b6001600160a01b0380821660009081526101096020908152604080832081516101608101835281549095168552600181018054835181860281018601909452808452949586958695919485830193909290919083018282801561258157602002820191906000526020600020905b81546001600160a01b03168152600190910190602001808311612563575b50505050508152602001600282018054806020026020016040519081016040528092919081815260200182805480156125e357602002820191906000526020600020905b81546001600160a01b031681526001909101906020018083116125c5575b505050505081526020016003820180548060200260200160405190810160405280929190818152602001828054801561263b57602002820191906000526020600020905b815481526020019060010190808311612627575b50505050508152602001600482015481526020016005820154815260200160068201548152602001600782018054806020026020016040519081016040528092919081815260200182805480156126b157602002820191906000526020600020905b81548152602001906001019080831161269d575b505050505081526020016008820180548060200260200160405190810160405280929190818152602001828054801561270957602002820191906000526020600020905b8154815260200190600101908083116126f5575b505050505081526020016009820180548060200260200160405190810160405280929190818152602001828054801561276157602002820191906000526020600020905b81548152602001906001019080831161274d575b5050509183525050600a919091015460ff16151560209182015281015151909150600090600211612a945760005b8260200151518161ffff161015612a86576000610109600085602001518461ffff16815181106127c1576127c16159fe565b6020908102919091018101516001600160a01b0390811683528282019390935260409182016000208251610160810184528154909416845260018101805484518185028101850190955280855291938584019390929083018282801561285057602002820191906000526020600020905b81546001600160a01b03168152600190910190602001808311612832575b50505050508152602001600282018054806020026020016040519081016040528092919081815260200182805480156128b257602002820191906000526020600020905b81546001600160a01b03168152600190910190602001808311612894575b505050505081526020016003820180548060200260200160405190810160405280929190818152602001828054801561290a57602002820191906000526020600020905b8154815260200190600101908083116128f6575b505050505081526020016004820154815260200160058201548152602001600682015481526020016007820180548060200260200160405190810160405280929190818152602001828054801561298057602002820191906000526020600020905b81548152602001906001019080831161296c575b50505050508152602001600882018054806020026020016040519081016040528092919081815260200182805480156129d857602002820191906000526020600020905b8154815260200190600101908083116129c4575b5050505050815260200160098201805480602002602001604051908101604052809291908181526020018280548015612a3057602002820191906000526020600020905b815481526020019060010190808311612a1c575b5050509183525050600a919091015460ff16151560209091015260c0810151909150861015612a61578060c0015195505b60c0810151612a709084615994565b9250508080612a7e906159c0565b91505061278f565b50612a918482615c19565b92505b5050915091565b612aa361371e565b6001600160a01b0390911660009081526101096020526040902060060155565b60606000806000612ad5878787614423565b915091508092508061ffff1667ffffffffffffffff811115612af957612af9615107565b604051908082528060200260200182016040528015612b22578160200160208202803683370190505b50935060005b8161ffff168161ffff161015612b9657828161ffff1681518110612b4e57612b4e6159fe565b6020026020010151858261ffff1681518110612b6c57612b6c6159fe565b6001600160a01b039092166020928302919091019091015280612b8e816159c0565b915050612b28565b505050935093915050565b6001600160a01b038082166000908152610109602090815260408083208151610160810183528154909516855260018101805483518186028101860190945280845294958695909492938584019390929190830182828015612c2c57602002820191906000526020600020905b81546001600160a01b03168152600190910190602001808311612c0e575b5050505050815260200160028201805480602002602001604051908101604052809291908181526020018280548015612c8e57602002820191906000526020600020905b81546001600160a01b03168152600190910190602001808311612c70575b5050505050815260200160038201805480602002602001604051908101604052809291908181526020018280548015612ce657602002820191906000526020600020905b815481526020019060010190808311612cd2575b5050505050815260200160048201548152602001600582015481526020016006820154815260200160078201805480602002602001604051908101604052809291908181526020018280548015612d5c57602002820191906000526020600020905b815481526020019060010190808311612d48575b5050505050815260200160088201805480602002602001604051908101604052809291908181526020018280548015612db457602002820191906000526020600020905b815481526020019060010190808311612da0575b5050505050815260200160098201805480602002602001604051908101604052809291908181526020018280548015612e0c57602002820191906000526020600020905b815481526020019060010190808311612df8575b5050509183525050600a919091015460ff161515602090910152905060005b60148160ff1610156130295760ff808216600090815261010b60209081526040808320815160e0810183528154909516855260018101549285019290925260028201549084015260038101546060840152600481018054929392608084019190612e9490615a3f565b80601f0160208091040260200160405190810160405280929190818152602001828054612ec090615a3f565b8015612f0d5780601f10612ee257610100808354040283529160200191612f0d565b820191906000526020600020905b815481529060010190602001808311612ef057829003601f168201915b50505050508152602001600582018054612f2690615a3f565b80601f0160208091040260200160405190810160405280929190818152602001828054612f5290615a3f565b8015612f9f5780601f10612f7457610100808354040283529160200191612f9f565b820191906000526020600020905b815481529060010190602001808311612f8257829003601f168201915b50505050508152602001600682015481525050905060028260ff16118015612fc957506020810151155b15612fd45750613029565b8060200151612fe28461416a565b10158015612ff8575080604001518360a0015110155b801561300d575061300d838260600151614933565b15613016578193505b508061302181615c2c565b915050612e2b565b5050919050565b6001600160a01b0381166000908152610109602052604081206007810154600882015460098301548493849390929091845b838110156130a95784600701818154811061307f5761307f6159fe565b9060005260206000200154886130959190615994565b9750806130a1816159a7565b915050613062565b5060005b828110156130f4578460080181815481106130ca576130ca6159fe565b9060005260206000200154876130e09190615994565b9650806130ec816159a7565b9150506130ad565b5060005b8181101561313f57846009018181548110613115576131156159fe565b90600052602060002001548661312b9190615994565b955080613137816159a7565b9150506130f8565b50505050509193909250565b61315361371e565b6001600160a01b0381166131b85760405162461bcd60e51b815260206004820152602660248201527f4f776e61626c653a206e6577206f776e657220697320746865207a65726f206160448201526564647265737360d01b6064820152608401610b44565b611c128161434c565b6001600160a01b0381166000908152610109602090815260408083206001810180548351818602810186019094528084526060959486948694939092909183018282801561323857602002820191906000526020600020905b81546001600160a01b0316815260019091019060200180831161321a575b50505050509450845193508060020180548060200260200160405190810160405280929190818152602001828054801561329b57602002820191906000526020600020905b81546001600160a01b0316815260019091019060200180831161327d575b5050505050925082519150509193509193565b61331660405180610160016040528060006001600160a01b031681526020016060815260200160608152602001606081526020016000815260200160008152602001600081526020016060815260200160608152602001606081526020016000151581525090565b6001600160a01b03808316600090815261010960209081526040918290208251610160810184528154909416845260018101805484518185028101850190955280855291938584019390929083018282801561339b57602002820191906000526020600020905b81546001600160a01b0316815260019091019060200180831161337d575b50505050508152602001600282018054806020026020016040519081016040528092919081815260200182805480156133fd57602002820191906000526020600020905b81546001600160a01b031681526001909101906020018083116133df575b505050505081526020016003820180548060200260200160405190810160405280929190818152602001828054801561345557602002820191906000526020600020905b815481526020019060010190808311613441575b50505050508152602001600482015481526020016005820154815260200160068201548152602001600782018054806020026020016040519081016040528092919081815260200182805480156134cb57602002820191906000526020600020905b8154815260200190600101908083116134b7575b505050505081526020016008820180548060200260200160405190810160405280929190818152602001828054801561352357602002820191906000526020600020905b81548152602001906001019080831161350f575b505050505081526020016009820180548060200260200160405190810160405280929190818152602001828054801561357b57602002820191906000526020600020905b815481526020019060010190808311613567575b5050509183525050600a919091015460ff16151560209091015292915050565b60fd5460fc80546040805160208084028201810190925282815260609360009384938301828280156135ec57602002820191906000526020600020905b8154815260200190600101908083116135d8575b505060fc549396506000925050505b818160ff1610156136465760fc8160ff168154811061361c5761361c6159fe565b9060005260206000200154846136329190615994565b93508061363e81615c2c565b9150506135fb565b5050610100549394929391926001600160a01b03909216919050565b61366a61371e565b61010654825b8261ffff168161ffff1610156109385761ffff8116600090815261010c60209081526040808320546001600160a01b031683526101099091528120905b8381101561370b5781546001600160a01b0316600081815261010960205260409020906136da575061370b565b82600401548160060160008282546136f29190615994565b909155509092506137049050816159a7565b90506136ad565b505080613717906159c0565b9050613670565b6065546001600160a01b03163314611dd15760405162461bcd60e51b815260206004820181905260248201527f4f776e61626c653a2063616c6c6572206973206e6f7420746865206f776e65726044820152606401610b44565b6001600160a01b038281166000818152610109602052604080822080546001600160a01b03191694861694851781559051909392917ffaf63637882ff2d63ca76881cf92fb857130e36f350c926f9cc884b499b42b7791a360fc5460005b81811015610c6b5782546001600160a01b031660009081526101096020526040812090829003613830576001818101805491820181556000908152602090200180546001600160a01b0319166001600160a01b0388161790555b83546001600160a01b03166138455750610c6b565b6002810180546001810182556000918252602082200180546001600160a01b0319166001600160a01b03898116918217909255865460405191938984169391909116917fb766b19465b3277b0b275adf79d715cac93166bf6e6a39f26e4ccfdec76ad47e9190a49250806138b8816159a7565b9150506137d6565b600060fc80548060200260200160405190810160405280929190818152602001828054801561390e57602002820191906000526020600020905b8154815260200190600101908083116138fa575b505050506001600160a01b0385166000908152610109602090815260408220600381018054600181018255908452918320909101889055600481015493945090929091501561395c57600191505b858160040160008282546139709190615994565b90915550506101065460009067ffffffffffffffff81111561399457613994615107565b6040519080825280602002602001820160405280156139bd578160200160208202803683370190505b5090506000805b61010654811015613ce55783546001600160a01b0316600081815261010960205260409020906139f45750613ce5565b8651821015613c435760006064888481518110613a1357613a136159fe565b60200260200101518c613a269190615c4b565b613a309190615c78565b905082600003613a54578a826005016000828254613a4e9190615994565b90915550505b6007820180546001810182556000918252602082200182905560ff8054839290613a7f908490615994565b909155505085546001600160a01b03808b169163a9059cbb9116613aa3848d614c6b565b6040516001600160e01b031960e085901b1681526001600160a01b03909216600483015260248201526044016020604051808303816000875af1158015613aee573d6000803e3d6000fd5b505050506040513d601f19601f82011682018060405250810190613b12919061595c565b50855481906001600160a01b03908116908c167f197a0a2b0fbff3fc4f7f4d32597585aa8415fcc4c5dd6634336ec65904529c83613b51876001615994565b60408051918252602082018190526005908201526410539554d160da1b606082015260800160405180910390a4600a82015460ff16613c4157610103548260050154118015613ba65750610110548260060154115b15613c415785546101028054600180820183556000929092527f93bdaa6a4190909b7c3fbe8d42169ffe1cab19f51dfc8db24c71abf849eced4a0180546001600160a01b0319166001600160a01b03938416179055600a8401805460ff191690911790558654604051911681527facc63915cb028aeaee9996abc0f864fc0559a2f955750aa97d6ef9f51014acfb9060200160405180910390a15b505b89816006016000828254613c579190615994565b9091555050610105546005820154118015613c84575061010f546001820154630100000090910460ff1611155b15613cd157845484516001600160a01b0390911690859085908110613cab57613cab6159fe565b6001600160a01b039092166020928302919091019091015282613ccd816159a7565b9350505b935080613cdd816159a7565b9150506139c4565b508015613eb9576000816064610104548b613d009190615c4b565b613d0a9190615c78565b613d149190615c78565b905060005b82811015613eb65760006001600160a01b0316848281518110613d3e57613d3e6159fe565b60200260200101516001600160a01b03160315613eb65760006101096000868481518110613d6e57613d6e6159fe565b60200260200101516001600160a01b03166001600160a01b031681526020019081526020016000209050886001600160a01b031663a9059cbb868481518110613db957613db96159fe565b6020026020010151613dcb868d614c6b565b6040516001600160e01b031960e085901b1681526001600160a01b03909216600483015260248201526044016020604051808303816000875af1158015613e16573d6000803e3d6000fd5b505050506040513d601f19601f82011682018060405250810190613e3a919061595c565b50848281518110613e4d57613e4d6159fe565b60200260200101516001600160a01b0316837f62f12b06523c734cca73aa1502a5f967c8e09d0a2f084fd36acbac47f54b0d4e60405160405180910390a36009018054600181018255600091825260209091200182905580613eae816159a7565b915050613d19565b50505b6101025415611b2c5760006064610101548a613ed59190615c4b565b613edf9190615c78565b610102546040805142602082015244918101919091529192506000916060016040516020818303038152906040528051906020012060001c613f219190615c8c565b905060006101028281548110613f3957613f396159fe565b6000918252602080832091909101546001600160a01b0316808352610109909152604090912061010f54600182015492935090916201000090910460ff161161406557896001600160a01b031663a9059cbb83613f96878e614c6b565b6040516001600160e01b031960e085901b1681526001600160a01b03909216600483015260248201526044016020604051808303816000875af1158015613fe1573d6000803e3d6000fd5b505050506040513d601f19601f82011682018060405250810190614005919061595c565b50600881018054600181018255600091825260209182902001859055604080518681526001600160a01b038516928101929092527f51e673ac98f0ea063ce27eb5af807d22b97cd11cd79380cf1f711ad80948046c910160405180910390a15b505050505050505050505050565b6001600160a01b038116600090815261010d602052604081205461ffff169003611c125761010f546000906140ad9061ffff166001615ca0565b6001600160a01b038316600081815261010d60209081526040808320805461ffff191661ffff878116918217909255845261010c909252822080546001600160a01b0319908116851790915561010e80546001810182559084527f44731785622d53a842eeb261a70df6f2b61b9624656157b6168597f0656f480501805490911690931790925561010f805493945092909116919061414b836159c0565b91906101000a81548161ffff021916908361ffff160217905550505050565b606081015151600090156141cf5760015b8260600151518161ffff1610156141cd5782606001518161ffff16815181106141a6576141a66159fe565b6020026020010151826141b99190615994565b9150806141c5816159c0565b91505061417b565b505b919050565b611c1261371e565b7f4910fdfa16fed3260ed0e7147f7cc6da11a60208b5b9406d12a635614ffd91435460ff16156142145761420f83614cf7565b61180f565b826001600160a01b03166352d1902d6040518163ffffffff1660e01b8152600401602060405180830381865afa92505050801561426e575060408051601f3d908101601f1916820190925261426b91810190615cc2565b60015b6142d15760405162461bcd60e51b815260206004820152602e60248201527f45524331393637557067726164653a206e657720696d706c656d656e7461746960448201526d6f6e206973206e6f74205555505360901b6064820152608401610b44565b600080516020615e6183398151915281146143405760405162461bcd60e51b815260206004820152602960248201527f45524331393637557067726164653a20756e737570706f727465642070726f786044820152681a58589b195555525160ba1b6064820152608401610b44565b5061180f838383614d93565b606580546001600160a01b038381166001600160a01b0319831681179093556040519116919082907f8be0079c531659141344cd1fd0a4f28419497f9722a3daafe3b4186f6b6457e090600090a35050565b600054610100900460ff166143c55760405162461bcd60e51b8152600401610b4490615cdb565b611dd1614db8565b600054610100900460ff166143f45760405162461bcd60e51b8152600401610b4490615cdb565b611dd1614deb565b600054610100900460ff16611dd15760405162461bcd60e51b8152600401610b4490615cdb565b606060006144318484615d26565b61ffff1667ffffffffffffffff81111561444d5761444d615107565b604051908082528060200260200182016040528015614476578160200160208202803683370190505b5091505b8261ffff168461ffff161161492b5761ffff8416600090815261010c60209081526040808320546001600160a01b0390811680855261010984528285208351610160810185528154909316835260018101805485518188028101880190965280865292969593949193858101939083018282801561452157602002820191906000526020600020905b81546001600160a01b03168152600190910190602001808311614503575b505050505081526020016002820180548060200260200160405190810160405280929190818152602001828054801561458357602002820191906000526020600020905b81546001600160a01b03168152600190910190602001808311614565575b50505050508152602001600382018054806020026020016040519081016040528092919081815260200182805480156145db57602002820191906000526020600020905b8154815260200190600101908083116145c7575b505050505081526020016004820154815260200160058201548152602001600682015481526020016007820180548060200260200160405190810160405280929190818152602001828054801561465157602002820191906000526020600020905b81548152602001906001019080831161463d575b50505050508152602001600882018054806020026020016040519081016040528092919081815260200182805480156146a957602002820191906000526020600020905b815481526020019060010190808311614695575b505050505081526020016009820180548060200260200160405190810160405280929190818152602001828054801561470157602002820191906000526020600020905b8154815260200190600101908083116146ed575b5050509183525050600a919091015460ff9081161515602092830152898116600090815261010b83526040808220815160e0810183528154909416845260018101549484019490945260028401549083015260038301546060830152600483018054949550909391929160808401919061477a90615a3f565b80601f01602080910402602001604051908101604052809291908181526020018280546147a690615a3f565b80156147f35780601f106147c8576101008083540402835291602001916147f3565b820191906000526020600020905b8154815290600101906020018083116147d657829003601f168201915b5050505050815260200160058201805461480c90615a3f565b80601f016020809104026020016040519081016040528092919081815260200182805461483890615a3f565b80156148855780601f1061485a57610100808354040283529160200191614885565b820191906000526020600020905b81548152906001019060200180831161486857829003601f168201915b50505050508152602001600682015481525050905080602001516148a88361416a565b101580156148be575080604001518260a0015110155b80156148d357506148d3828260600151614933565b156149155782858561ffff16815181106148ef576148ef6159fe565b6001600160a01b039092166020928302919091019091015283614911816159c0565b9450505b5050508380614923906159c0565b94505061447a565b935093915050565b6000806000600285602001515110614c635760005b8560200151518161ffff161015614c3f576000610109600088602001518461ffff168151811061497a5761497a6159fe565b6020908102919091018101516001600160a01b03908116835282820193909352604091820160002082516101608101845281549094168452600181018054845181850281018501909552808552919385840193909290830182828015614a0957602002820191906000526020600020905b81546001600160a01b031681526001909101906020018083116149eb575b5050505050815260200160028201805480602002602001604051908101604052809291908181526020018280548015614a6b57602002820191906000526020600020905b81546001600160a01b03168152600190910190602001808311614a4d575b5050505050815260200160038201805480602002602001604051908101604052809291908181526020018280548015614ac357602002820191906000526020600020905b815481526020019060010190808311614aaf575b5050505050815260200160048201548152602001600582015481526020016006820154815260200160078201805480602002602001604051908101604052809291908181526020018280548015614b3957602002820191906000526020600020905b815481526020019060010190808311614b25575b5050505050815260200160088201805480602002602001604051908101604052809291908181526020018280548015614b9157602002820191906000526020600020905b815481526020019060010190808311614b7d575b5050505050815260200160098201805480602002602001604051908101604052809291908181526020018280548015614be957602002820191906000526020600020905b815481526020019060010190808311614bd5575b5050509183525050600a919091015460ff16151560209091015260c0810151909150841015614c1a578060c0015193505b60c0810151614c299084615994565b9250508080614c37906159c0565b915050614948565b50838210158015614c59575083614c568383615c19565b10155b15614c6357600192505b505092915050565b6000670de0b6b3a7640000826001600160a01b031663313ce5676040518163ffffffff1660e01b8152600401602060405180830381865afa158015614cb4573d6000803e3d6000fd5b505050506040513d601f19601f82011682018060405250810190614cd89190615cc2565b614ce390600a615e25565b614ced9085615c4b565b6114f19190615c78565b6001600160a01b0381163b614d645760405162461bcd60e51b815260206004820152602d60248201527f455243313936373a206e657720696d706c656d656e746174696f6e206973206e60448201526c1bdd08184818dbdb9d1c9858dd609a1b6064820152608401610b44565b600080516020615e6183398151915280546001600160a01b0319166001600160a01b0392909216919091179055565b614d9c83614e1b565b600082511180614da95750805b1561180f576109388383614e5b565b600054610100900460ff16614ddf5760405162461bcd60e51b8152600401610b4490615cdb565b6033805460ff19169055565b600054610100900460ff16614e125760405162461bcd60e51b8152600401610b4490615cdb565b611dd13361434c565b614e2481614cf7565b6040516001600160a01b038216907fbc7cd75a20ee27fd9adebab32041f755214dbc6bffa90cc0225b39da2e5c2d3b90600090a250565b60606001600160a01b0383163b614ec35760405162461bcd60e51b815260206004820152602660248201527f416464726573733a2064656c65676174652063616c6c20746f206e6f6e2d636f6044820152651b9d1c9858dd60d21b6064820152608401610b44565b600080846001600160a01b031684604051614ede9190615e31565b600060405180830381855af49150503d8060008114614f19576040519150601f19603f3d011682016040523d82523d6000602084013e614f1e565b606091505b5091509150614f468282604051806060016040528060278152602001615e8160279139614f4f565b95945050505050565b60608315614f5e5750816114f1565b6114f18383815115614f735781518083602001fd5b8060405162461bcd60e51b8152600401610b449190615e4d565b828054828255906000526020600020908101928215614fcd579160200282015b82811115614fcd578251829060ff16905591602001919060010190614fad565b50614fd9929150614fdd565b5090565b5b80821115614fd95760008155600101614fde565b803561ffff811681146141cf57600080fd5b60006020828403121561501657600080fd5b6114f182614ff2565b6001600160a01b0381168114611c1257600080fd5b60008060006060848603121561504957600080fd5b83356150548161501f565b925060208401356150648161501f565b929592945050506040919091013590565b60006020828403121561508757600080fd5b81356114f18161501f565b600080604083850312156150a557600080fd5b6150ae83614ff2565b91506150bc60208401614ff2565b90509250929050565b6000806000606084860312156150da57600080fd5b8335925060208401356150ec8161501f565b915060408401356150fc8161501f565b809150509250925092565b634e487b7160e01b600052604160045260246000fd5b604051601f8201601f1916810167ffffffffffffffff8111828210171561514657615146615107565b604052919050565b600067ffffffffffffffff82111561516857615168615107565b5060051b60200190565b803560ff811681146141cf57600080fd5b600082601f83011261519457600080fd5b813560206151a96151a48361514e565b61511d565b82815260059290921b840181019181810190868411156151c857600080fd5b8286015b848110156151ea576151dd81615172565b83529183019183016151cc565b509695505050505050565b600082601f83011261520657600080fd5b813560206152166151a48361514e565b82815260059290921b8401810191818101908684111561523557600080fd5b8286015b848110156151ea5780358352918301918301615239565b600067ffffffffffffffff83111561526a5761526a615107565b61527d601f8401601f191660200161511d565b905082815283838301111561529157600080fd5b828260208301376000602084830101529392505050565b600082601f8301126152b957600080fd5b813560206152c96151a48361514e565b82815260059290921b840181019181810190868411156152e857600080fd5b8286015b848110156151ea57803567ffffffffffffffff81111561530c5760008081fd5b8701603f8101891361531e5760008081fd5b61532f898683013560408401615250565b8452509183019183016152ec565b600080600080600080600060e0888a03121561535857600080fd5b873567ffffffffffffffff8082111561537057600080fd5b61537c8b838c01615183565b985060208a013591508082111561539257600080fd5b61539e8b838c016151f5565b975060408a01359150808211156153b457600080fd5b6153c08b838c016151f5565b965060608a01359150808211156153d657600080fd5b6153e28b838c016151f5565b955060808a01359150808211156153f857600080fd5b6154048b838c016152a8565b945060a08a013591508082111561541a57600080fd5b6154268b838c016152a8565b935060c08a013591508082111561543c57600080fd5b506154498a828b016151f5565b91505092959891949750929550565b6000806040838503121561546b57600080fd5b82356154768161501f565b9150602083013567ffffffffffffffff81111561549257600080fd5b8301601f810185136154a357600080fd5b6154b285823560208401615250565b9150509250929050565b6000602082840312156154ce57600080fd5b5035919050565b600080604083850312156154e857600080fd5b82356154f38161501f565b91506150bc60208401615172565b6000806040838503121561551457600080fd5b823561551f8161501f565b946020939093013593505050565b602080825282516001600160a01b031682820152828101516060604084015280516080840181905260009291820190839060a08601905b8083101561558757835160ff168252928401926001929092019190840190615564565b5060ff60408801511660608701528094505050505092915050565b600080602083850312156155b557600080fd5b823567ffffffffffffffff808211156155cd57600080fd5b818501915085601f8301126155e157600080fd5b8135818111156155f057600080fd5b8660208260051b850101111561560557600080fd5b60209290920196919550909350505050565b6000806040838503121561562a57600080fd5b50508035926020909101359150565b60006020828403121561564b57600080fd5b6114f182615172565b60005b8381101561566f578181015183820152602001615657565b50506000910152565b60008151808452615690816020860160208601615654565b601f01601f19169290920160200192915050565b60ff8816815286602082015285604082015284606082015260e0608082015260006156d260e0830186615678565b82810360a08401526156e48186615678565b9150508260c083015298975050505050505050565b60008060006060848603121561570e57600080fd5b61571784615172565b925061572560208501614ff2565b915061573360408501614ff2565b90509250925092565b600081518084526020808501945080840160005b838110156157755781516001600160a01b031687529582019590820190600101615750565b509495945050505050565b604081526000615793604083018561573c565b905061ffff831660208301529392505050565b6080815260006157b9608083018761573c565b85602084015282810360408401526157d1818661573c565b91505082606083015295945050505050565b600081518084526020808501945080840160005b83811015615775578151875295820195908201906001016157f7565b6020815261582d6020820183516001600160a01b03169052565b6000602083015161016080604085015261584b61018085018361573c565b91506040850151601f1980868503016060870152615869848361573c565b9350606087015191508086850301608087015261588684836157e3565b9350608087015160a087015260a087015160c087015260c087015160e087015260e087015191506101008187860301818801526158c385846157e3565b9450808801519250506101208187860301818801526158e285846157e3565b94508088015192505061014081878603018188015261590185846157e3565b945080880151925050506159188286018215159052565b5090949350505050565b84815260806020820152600061593b60808301866157e3565b6040830194909452506001600160a01b039190911660609091015292915050565b60006020828403121561596e57600080fd5b815180151581146114f157600080fd5b634e487b7160e01b600052601160045260246000fd5b8082018082111561095f5761095f61597e565b6000600182016159b9576159b961597e565b5060010190565b600061ffff8083168181036159d7576159d761597e565b6001019392505050565b6000602082840312156159f357600080fd5b81516114f18161501f565b634e487b7160e01b600052603260045260246000fd5b6020808252601190820152702cb7ba9030b932903737ba1030b236b4b760791b604082015260600190565b600181811c90821680615a5357607f821691505b6020821081036141cd57634e487b7160e01b600052602260045260246000fd5b601f82111561180f57600081815260208120601f850160051c81016020861015615a9a5750805b601f850160051c820191505b81811015615ab957828155600101615aa6565b505050505050565b815167ffffffffffffffff811115615adb57615adb615107565b615aef81615ae98454615a3f565b84615a73565b602080601f831160018114615b245760008415615b0c5750858301515b600019600386901b1c1916600185901b178555615ab9565b600085815260208120601f198616915b82811015615b5357888601518255948401946001909101908401615b34565b5085821015615b715787850151600019600388901b60f8161c191681555b5050505050600190811b01905550565b6020808252602c908201527f46756e6374696f6e206d7573742062652063616c6c6564207468726f7567682060408201526b19195b1959d85d1958d85b1b60a21b606082015260800190565b6020808252602c908201527f46756e6374696f6e206d7573742062652063616c6c6564207468726f7567682060408201526b6163746976652070726f787960a01b606082015260800190565b8181038181111561095f5761095f61597e565b600060ff821660ff8103615c4257615c4261597e565b60010192915050565b808202811582820484141761095f5761095f61597e565b634e487b7160e01b600052601260045260246000fd5b600082615c8757615c87615c62565b500490565b600082615c9b57615c9b615c62565b500690565b61ffff818116838216019080821115615cbb57615cbb61597e565b5092915050565b600060208284031215615cd457600080fd5b5051919050565b6020808252602b908201527f496e697469616c697a61626c653a20636f6e7472616374206973206e6f74206960408201526a6e697469616c697a696e6760a81b606082015260800190565b61ffff828116828216039080821115615cbb57615cbb61597e565b600181815b80851115615d7c578160001904821115615d6257615d6261597e565b80851615615d6f57918102915b93841c9390800290615d46565b509250929050565b600082615d935750600161095f565b81615da05750600061095f565b8160018114615db65760028114615dc057615ddc565b600191505061095f565b60ff841115615dd157615dd161597e565b50506001821b61095f565b5060208310610133831016604e8410600b8410161715615dff575081810a61095f565b615e098383615d41565b8060001904821115615e1d57615e1d61597e565b029392505050565b60006114f18383615d84565b60008251615e43818460208701615654565b9190910192915050565b6020815260006114f1602083018461567856fe360894a13ba1a3210667c828492db98dca3e2076cc3735a920a3ca505d382bbc416464726573733a206c6f772d6c6576656c2064656c65676174652063616c6c206661696c6564a2646970667358221220a03b70f731636e795648956899847ac298e6817cd8ec6749769e3497df755a8c64736f6c63430008110033",
  "linkReferences": {},
  "deployedLinkReferences": {}
}