{
  "_format": "hh-sol-artifact-1",
  "contractName": "ReferralUpgradeable",
  "sourceName": "contracts/ReferralUpgradeable.sol",
  "abi": [
    {
      "anonymous": false,
      "inputs": [
        {
          "indexed": false,
          "internalType": "address",
          "name": "previousAdmin",
          "type": "address"
        },
        {
          "indexed": false,
          "internalType": "address",
          "name": "newAdmin",
          "type": "address"
        }
      ],
      "name": "AdminChanged",
      "type": "event"
    },
    {
      "anonymous": false,
      "inputs": [
        {
          "indexed": true,
          "internalType": "address",
          "name": "beacon",
          "type": "address"
        }
      ],
      "name": "BeaconUpgraded",
      "type": "event"
    },
    {
      "anonymous": false,
      "inputs": [
        {
          "indexed": true,
          "internalType": "address",
          "name": "userAddressaddress",
          "type": "address"
        }
      ],
      "name": "CoreMemberAdded",
      "type": "event"
    },
    {
      "anonymous": false,
      "inputs": [
        {
          "indexed": false,
          "internalType": "address",
          "name": "userAddress",
          "type": "address"
        }
      ],
      "name": "CoreMemberRemoved",
      "type": "event"
    },
    {
      "anonymous": false,
      "inputs": [
        {
          "indexed": true,
          "internalType": "uint256",
          "name": "value",
          "type": "uint256"
        },
        {
          "indexed": true,
          "internalType": "address",
          "name": "userAddress",
          "type": "address"
        }
      ],
      "name": "CoreMemberRewardPaid",
      "type": "event"
    },
    {
      "anonymous": false,
      "inputs": [
        {
          "indexed": false,
          "internalType": "address",
          "name": "userAddress",
          "type": "address"
        }
      ],
      "name": "GlobalAddressAdded",
      "type": "event"
    },
    {
      "anonymous": false,
      "inputs": [
        {
          "indexed": false,
          "internalType": "address",
          "name": "userAddress",
          "type": "address"
        }
      ],
      "name": "GlobalAddressRemoved",
      "type": "event"
    },
    {
      "anonymous": false,
      "inputs": [
        {
          "indexed": false,
          "internalType": "uint256",
          "name": "value",
          "type": "uint256"
        },
        {
          "indexed": false,
          "internalType": "address",
          "name": "userAddress",
          "type": "address"
        }
      ],
      "name": "GlobalRewardPaid",
      "type": "event"
    },
    {
      "anonymous": false,
      "inputs": [
        {
          "indexed": false,
          "internalType": "uint8",
          "name": "version",
          "type": "uint8"
        }
      ],
      "name": "Initialized",
      "type": "event"
    },
    {
      "anonymous": false,
      "inputs": [
        {
          "indexed": true,
          "internalType": "address",
          "name": "previousOwner",
          "type": "address"
        },
        {
          "indexed": true,
          "internalType": "address",
          "name": "newOwner",
          "type": "address"
        }
      ],
      "name": "OwnershipTransferred",
      "type": "event"
    },
    {
      "anonymous": false,
      "inputs": [
        {
          "indexed": true,
          "internalType": "uint256",
          "name": "value",
          "type": "uint256"
        },
        {
          "indexed": true,
          "internalType": "address",
          "name": "userAddress",
          "type": "address"
        }
      ],
      "name": "PassiveRewardPaid",
      "type": "event"
    },
    {
      "anonymous": false,
      "inputs": [
        {
          "indexed": false,
          "internalType": "address",
          "name": "account",
          "type": "address"
        }
      ],
      "name": "Paused",
      "type": "event"
    },
    {
      "anonymous": false,
      "inputs": [
        {
          "indexed": true,
          "internalType": "address",
          "name": "referee",
          "type": "address"
        },
        {
          "indexed": true,
          "internalType": "address",
          "name": "referrer",
          "type": "address"
        },
        {
          "indexed": true,
          "internalType": "uint256",
          "name": "amount",
          "type": "uint256"
        },
        {
          "indexed": false,
          "internalType": "uint256",
          "name": "level",
          "type": "uint256"
        },
        {
          "indexed": false,
          "internalType": "string",
          "name": "currency",
          "type": "string"
        }
      ],
      "name": "ReferralRewardPaid",
      "type": "event"
    },
    {
      "anonymous": false,
      "inputs": [
        {
          "indexed": true,
          "internalType": "address",
          "name": "referee",
          "type": "address"
        },
        {
          "indexed": true,
          "internalType": "address",
          "name": "referrer",
          "type": "address"
        },
        {
          "indexed": true,
          "internalType": "string",
          "name": "reason",
          "type": "string"
        }
      ],
      "name": "RegisterRefererFailed",
      "type": "event"
    },
    {
      "anonymous": false,
      "inputs": [
        {
          "indexed": true,
          "internalType": "address",
          "name": "referee",
          "type": "address"
        },
        {
          "indexed": true,
          "internalType": "address",
          "name": "referrer",
          "type": "address"
        }
      ],
      "name": "RegisteredReferer",
      "type": "event"
    },
    {
      "anonymous": false,
      "inputs": [
        {
          "indexed": true,
          "internalType": "address",
          "name": "parent",
          "type": "address"
        },
        {
          "indexed": true,
          "internalType": "address",
          "name": "referrer",
          "type": "address"
        },
        {
          "indexed": true,
          "internalType": "address",
          "name": "referee",
          "type": "address"
        }
      ],
      "name": "RegisteredTeamAddress",
      "type": "event"
    },
    {
      "anonymous": false,
      "inputs": [
        {
          "indexed": false,
          "internalType": "address",
          "name": "userAddress",
          "type": "address"
        },
        {
          "indexed": false,
          "internalType": "uint8",
          "name": "rewardId",
          "type": "uint8"
        }
      ],
      "name": "RewardAccountAdded",
      "type": "event"
    },
    {
      "anonymous": false,
      "inputs": [
        {
          "indexed": false,
          "internalType": "address",
          "name": "userAddress",
          "type": "address"
        },
        {
          "indexed": false,
          "internalType": "uint8",
          "name": "rewardId",
          "type": "uint8"
        }
      ],
      "name": "RewardAccountPaid",
      "type": "event"
    },
    {
      "anonymous": false,
      "inputs": [
        {
          "indexed": false,
          "internalType": "uint8",
          "name": "id",
          "type": "uint8"
        },
        {
          "indexed": false,
          "internalType": "uint256",
          "name": "selfBusinessLimit",
          "type": "uint256"
        },
        {
          "indexed": false,
          "internalType": "uint256",
          "name": "directBusinessLimit",
          "type": "uint256"
        },
        {
          "indexed": false,
          "internalType": "uint256",
          "name": "teamBusinessLimit",
          "type": "uint256"
        },
        {
          "indexed": false,
          "internalType": "string",
          "name": "rankName",
          "type": "string"
        },
        {
          "indexed": false,
          "internalType": "string",
          "name": "rewardName",
          "type": "string"
        },
        {
          "indexed": false,
          "internalType": "uint256",
          "name": "appraisal",
          "type": "uint256"
        }
      ],
      "name": "RewardAdded",
      "type": "event"
    },
    {
      "anonymous": false,
      "inputs": [
        {
          "indexed": false,
          "internalType": "address",
          "name": "account",
          "type": "address"
        }
      ],
      "name": "Unpaused",
      "type": "event"
    },
    {
      "anonymous": false,
      "inputs": [
        {
          "indexed": true,
          "internalType": "address",
          "name": "implementation",
          "type": "address"
        }
      ],
      "name": "Upgraded",
      "type": "event"
    },
    {
      "inputs": [
        {
          "internalType": "address[]",
          "name": "_userAddress",
          "type": "address[]"
        },
        {
          "internalType": "address[]",
          "name": "_referrerAddress",
          "type": "address[]"
        }
      ],
      "name": "addReferrerAdmin",
      "outputs": [],
      "stateMutability": "nonpayable",
      "type": "function"
    },
    {
      "inputs": [
        {
          "internalType": "address",
          "name": "",
          "type": "address"
        }
      ],
      "name": "addressToId",
      "outputs": [
        {
          "internalType": "uint16",
          "name": "",
          "type": "uint16"
        }
      ],
      "stateMutability": "view",
      "type": "function"
    },
    {
      "inputs": [],
      "name": "contractDefaults",
      "outputs": [
        {
          "internalType": "uint256",
          "name": "levelDecimals",
          "type": "uint256"
        },
        {
          "internalType": "uint256[]",
          "name": "levelRates",
          "type": "uint256[]"
        },
        {
          "internalType": "uint256",
          "name": "totalLevelRate",
          "type": "uint256"
        },
        {
          "internalType": "address",
          "name": "defaultReferrer",
          "type": "address"
        }
      ],
      "stateMutability": "view",
      "type": "function"
    },
    {
      "inputs": [
        {
          "internalType": "uint8",
          "name": "_rewardId",
          "type": "uint8"
        },
        {
          "internalType": "uint16",
          "name": "_from",
          "type": "uint16"
        },
        {
          "internalType": "uint16",
          "name": "_to",
          "type": "uint16"
        }
      ],
      "name": "getRewardQualifiedUsers",
      "outputs": [
        {
          "internalType": "address[]",
          "name": "_userAddress",
          "type": "address[]"
        },
        {
          "internalType": "uint16",
          "name": "_achieversListCount",
          "type": "uint16"
        }
      ],
      "stateMutability": "view",
      "type": "function"
    },
    {
      "inputs": [
        {
          "internalType": "address",
          "name": "_address",
          "type": "address"
        }
      ],
      "name": "getUserAccount",
      "outputs": [
        {
          "components": [
            {
              "internalType": "address",
              "name": "referrer",
              "type": "address"
            },
            {
              "internalType": "address[]",
              "name": "referee",
              "type": "address[]"
            },
            {
              "internalType": "address[]",
              "name": "team",
              "type": "address[]"
            },
            {
              "internalType": "uint256[]",
              "name": "topUp",
              "type": "uint256[]"
            },
            {
              "internalType": "uint256",
              "name": "selfBusiness",
              "type": "uint256"
            },
            {
              "internalType": "uint256",
              "name": "directBusiness",
              "type": "uint256"
            },
            {
              "internalType": "uint256",
              "name": "totalBusiness",
              "type": "uint256"
            },
            {
              "internalType": "uint256[]",
              "name": "rewardsPaidReferral",
              "type": "uint256[]"
            },
            {
              "internalType": "uint256[]",
              "name": "rewardsPaidGlobal",
              "type": "uint256[]"
            },
            {
              "internalType": "uint256[]",
              "name": "rewardPaidPassive",
              "type": "uint256[]"
            },
            {
              "internalType": "bool",
              "name": "isInGlobalID",
              "type": "bool"
            }
          ],
          "internalType": "struct ReferralUpgradeable.Account",
          "name": "userAccount",
          "type": "tuple"
        }
      ],
      "stateMutability": "view",
      "type": "function"
    },
    {
      "inputs": [
        {
          "internalType": "address",
          "name": "_address",
          "type": "address"
        }
      ],
      "name": "getUserReferrerAddress",
      "outputs": [
        {
          "internalType": "address",
          "name": "referrer",
          "type": "address"
        }
      ],
      "stateMutability": "view",
      "type": "function"
    },
    {
      "inputs": [
        {
          "internalType": "address",
          "name": "_userAddress",
          "type": "address"
        }
      ],
      "name": "getUserRewardAccount",
      "outputs": [
        {
          "components": [
            {
              "internalType": "address",
              "name": "userAdddress",
              "type": "address"
            },
            {
              "internalType": "uint8[]",
              "name": "rewardId",
              "type": "uint8[]"
            },
            {
              "internalType": "uint8",
              "name": "lastRewardId",
              "type": "uint8"
            }
          ],
          "internalType": "struct ReferralUpgradeable.RewardsAccount",
          "name": "",
          "type": "tuple"
        }
      ],
      "stateMutability": "view",
      "type": "function"
    },
    {
      "inputs": [
        {
          "internalType": "address",
          "name": "_userAddress",
          "type": "address"
        }
      ],
      "name": "getUserRewardQualified",
      "outputs": [
        {
          "internalType": "uint8",
          "name": "rewardId",
          "type": "uint8"
        }
      ],
      "stateMutability": "view",
      "type": "function"
    },
    {
      "inputs": [
        {
          "internalType": "address",
          "name": "_address",
          "type": "address"
        }
      ],
      "name": "getUserTeam",
      "outputs": [
        {
          "internalType": "address[]",
          "name": "userReferee",
          "type": "address[]"
        },
        {
          "internalType": "uint256",
          "name": "userRefereeCount",
          "type": "uint256"
        },
        {
          "internalType": "address[]",
          "name": "userTeamAddress",
          "type": "address[]"
        },
        {
          "internalType": "uint256",
          "name": "userTeamCount",
          "type": "uint256"
        }
      ],
      "stateMutability": "view",
      "type": "function"
    },
    {
      "inputs": [
        {
          "internalType": "address",
          "name": "_userAddress",
          "type": "address"
        }
      ],
      "name": "getUserTopUpForRewards",
      "outputs": [
        {
          "internalType": "uint256",
          "name": "",
          "type": "uint256"
        }
      ],
      "stateMutability": "view",
      "type": "function"
    },
    {
      "inputs": [
        {
          "internalType": "address",
          "name": "_address",
          "type": "address"
        }
      ],
      "name": "getUserTotalBusiness",
      "outputs": [
        {
          "internalType": "uint256",
          "name": "selfBusiness",
          "type": "uint256"
        },
        {
          "internalType": "uint256",
          "name": "directBusiness",
          "type": "uint256"
        },
        {
          "internalType": "uint256",
          "name": "refereeTeamBusiness",
          "type": "uint256"
        },
        {
          "internalType": "uint256",
          "name": "totalBusiness",
          "type": "uint256"
        }
      ],
      "stateMutability": "view",
      "type": "function"
    },
    {
      "inputs": [
        {
          "internalType": "address",
          "name": "_address",
          "type": "address"
        }
      ],
      "name": "getUserTotalRewardPaid",
      "outputs": [
        {
          "internalType": "uint256",
          "name": "rewardsAUSD",
          "type": "uint256"
        },
        {
          "internalType": "uint256",
          "name": "rewardsGlobal",
          "type": "uint256"
        },
        {
          "internalType": "uint256",
          "name": "rewardsPassive",
          "type": "uint256"
        }
      ],
      "stateMutability": "view",
      "type": "function"
    },
    {
      "inputs": [],
      "name": "getVariablesContract",
      "outputs": [
        {
          "internalType": "address",
          "name": "",
          "type": "address"
        }
      ],
      "stateMutability": "view",
      "type": "function"
    },
    {
      "inputs": [
        {
          "internalType": "address",
          "name": "_address",
          "type": "address"
        }
      ],
      "name": "hasReferrer",
      "outputs": [
        {
          "internalType": "bool",
          "name": "",
          "type": "bool"
        }
      ],
      "stateMutability": "view",
      "type": "function"
    },
    {
      "inputs": [
        {
          "internalType": "uint16",
          "name": "",
          "type": "uint16"
        }
      ],
      "name": "idToAddress",
      "outputs": [
        {
          "internalType": "address",
          "name": "",
          "type": "address"
        }
      ],
      "stateMutability": "view",
      "type": "function"
    },
    {
      "inputs": [
        {
          "internalType": "address[]",
          "name": "_userAddress",
          "type": "address[]"
        }
      ],
      "name": "includeUsersInList",
      "outputs": [],
      "stateMutability": "nonpayable",
      "type": "function"
    },
    {
      "inputs": [],
      "name": "initialize",
      "outputs": [],
      "stateMutability": "nonpayable",
      "type": "function"
    },
    {
      "inputs": [],
      "name": "owner",
      "outputs": [
        {
          "internalType": "address",
          "name": "",
          "type": "address"
        }
      ],
      "stateMutability": "view",
      "type": "function"
    },
    {
      "inputs": [],
      "name": "pause",
      "outputs": [],
      "stateMutability": "nonpayable",
      "type": "function"
    },
    {
      "inputs": [],
      "name": "paused",
      "outputs": [
        {
          "internalType": "bool",
          "name": "",
          "type": "bool"
        }
      ],
      "stateMutability": "view",
      "type": "function"
    },
    {
      "inputs": [
        {
          "internalType": "uint256",
          "name": "_valueInUSD",
          "type": "uint256"
        },
        {
          "internalType": "address",
          "name": "_userAddress",
          "type": "address"
        },
        {
          "internalType": "address",
          "name": "_referrerAddress",
          "type": "address"
        }
      ],
      "name": "payReferralANUSDAdmin",
      "outputs": [],
      "stateMutability": "nonpayable",
      "type": "function"
    },
    {
      "inputs": [],
      "name": "proxiableUUID",
      "outputs": [
        {
          "internalType": "bytes32",
          "name": "",
          "type": "bytes32"
        }
      ],
      "stateMutability": "view",
      "type": "function"
    },
    {
      "inputs": [
        {
          "internalType": "address",
          "name": "_referrerAddress",
          "type": "address"
        },
        {
          "internalType": "address",
          "name": "_refereeToRemove",
          "type": "address"
        }
      ],
      "name": "removeReferee",
      "outputs": [],
      "stateMutability": "nonpayable",
      "type": "function"
    },
    {
      "inputs": [],
      "name": "renounceOwnership",
      "outputs": [],
      "stateMutability": "nonpayable",
      "type": "function"
    },
    {
      "inputs": [
        {
          "internalType": "address",
          "name": "",
          "type": "address"
        }
      ],
      "name": "rewardAccount",
      "outputs": [
        {
          "internalType": "address",
          "name": "userAdddress",
          "type": "address"
        },
        {
          "internalType": "uint8",
          "name": "lastRewardId",
          "type": "uint8"
        }
      ],
      "stateMutability": "view",
      "type": "function"
    },
    {
      "inputs": [
        {
          "internalType": "uint8",
          "name": "",
          "type": "uint8"
        }
      ],
      "name": "rewards",
      "outputs": [
        {
          "internalType": "uint8",
          "name": "id",
          "type": "uint8"
        },
        {
          "internalType": "uint256",
          "name": "selfBusinessLimit",
          "type": "uint256"
        },
        {
          "internalType": "uint256",
          "name": "directBusinessLimit",
          "type": "uint256"
        },
        {
          "internalType": "uint256",
          "name": "teamBusinessLimit",
          "type": "uint256"
        },
        {
          "internalType": "string",
          "name": "rankName",
          "type": "string"
        },
        {
          "internalType": "string",
          "name": "rewardName",
          "type": "string"
        },
        {
          "internalType": "uint256",
          "name": "appraisal",
          "type": "uint256"
        }
      ],
      "stateMutability": "view",
      "type": "function"
    },
    {
      "inputs": [
        {
          "internalType": "address payable",
          "name": "_address",
          "type": "address"
        }
      ],
      "name": "setDefaultReferrer",
      "outputs": [],
      "stateMutability": "nonpayable",
      "type": "function"
    },
    {
      "inputs": [
        {
          "internalType": "uint256",
          "name": "_value",
          "type": "uint256"
        }
      ],
      "name": "setLevelDecimals",
      "outputs": [
        {
          "internalType": "bool",
          "name": "",
          "type": "bool"
        }
      ],
      "stateMutability": "nonpayable",
      "type": "function"
    },
    {
      "inputs": [
        {
          "internalType": "uint256[]",
          "name": "_valueInArray",
          "type": "uint256[]"
        }
      ],
      "name": "setLevelRates",
      "outputs": [],
      "stateMutability": "nonpayable",
      "type": "function"
    },
    {
      "inputs": [
        {
          "internalType": "uint8[]",
          "name": "_id",
          "type": "uint8[]"
        },
        {
          "internalType": "uint256[]",
          "name": "_selfBusinessLimit",
          "type": "uint256[]"
        },
        {
          "internalType": "uint256[]",
          "name": "_directBusinessLimit",
          "type": "uint256[]"
        },
        {
          "internalType": "uint256[]",
          "name": "_teamBusinessLimit",
          "type": "uint256[]"
        },
        {
          "internalType": "string[]",
          "name": "_rankName",
          "type": "string[]"
        },
        {
          "internalType": "string[]",
          "name": "_rewardName",
          "type": "string[]"
        },
        {
          "internalType": "uint256[]",
          "name": "_appraisal",
          "type": "uint256[]"
        }
      ],
      "name": "setRewards",
      "outputs": [],
      "stateMutability": "nonpayable",
      "type": "function"
    },
    {
      "inputs": [
        {
          "internalType": "address",
          "name": "_contractAddress",
          "type": "address"
        }
      ],
      "name": "setVariablesContract",
      "outputs": [],
      "stateMutability": "nonpayable",
      "type": "function"
    },
    {
      "inputs": [],
      "name": "totalUsers",
      "outputs": [
        {
          "internalType": "uint16",
          "name": "",
          "type": "uint16"
        }
      ],
      "stateMutability": "view",
      "type": "function"
    },
    {
      "inputs": [
        {
          "internalType": "address",
          "name": "_address",
          "type": "address"
        },
        {
          "internalType": "uint256",
          "name": "_value",
          "type": "uint256"
        }
      ],
      "name": "transferNative",
      "outputs": [],
      "stateMutability": "nonpayable",
      "type": "function"
    },
    {
      "inputs": [
        {
          "internalType": "address",
          "name": "newOwner",
          "type": "address"
        }
      ],
      "name": "transferOwnership",
      "outputs": [],
      "stateMutability": "nonpayable",
      "type": "function"
    },
    {
      "inputs": [],
      "name": "unpause",
      "outputs": [],
      "stateMutability": "nonpayable",
      "type": "function"
    },
    {
      "inputs": [
        {
          "internalType": "address",
          "name": "_userAddress",
          "type": "address"
        },
        {
          "internalType": "uint8",
          "name": "_rewardId",
          "type": "uint8"
        }
      ],
      "name": "updateIfRewardPaidAdmin",
      "outputs": [],
      "stateMutability": "nonpayable",
      "type": "function"
    },
    {
      "inputs": [
        {
          "internalType": "address",
          "name": "newImplementation",
          "type": "address"
        }
      ],
      "name": "upgradeTo",
      "outputs": [],
      "stateMutability": "nonpayable",
      "type": "function"
    },
    {
      "inputs": [
        {
          "internalType": "address",
          "name": "newImplementation",
          "type": "address"
        },
        {
          "internalType": "bytes",
          "name": "data",
          "type": "bytes"
        }
      ],
      "name": "upgradeToAndCall",
      "outputs": [],
      "stateMutability": "payable",
      "type": "function"
    },
    {
      "inputs": [
        {
          "internalType": "uint256",
          "name": "",
          "type": "uint256"
        }
      ],
      "name": "usersList",
      "outputs": [
        {
          "internalType": "address",
          "name": "",
          "type": "address"
        }
      ],
      "stateMutability": "view",
      "type": "function"
    },
    {
      "inputs": [],
      "name": "withdrawNative",
      "outputs": [],
      "stateMutability": "nonpayable",
      "type": "function"
    },
    {
      "inputs": [
        {
          "internalType": "address",
          "name": "_tokenAddress",
          "type": "address"
        },
        {
          "internalType": "uint256",
          "name": "_value",
          "type": "uint256"
        }
      ],
      "name": "withdrawtokens",
      "outputs": [],
      "stateMutability": "nonpayable",
      "type": "function"
    },
    {
      "stateMutability": "payable",
      "type": "receive"
    }
  ],
  "bytecode": "0x60a06040523060805234801561001457600080fd5b50608051615d016200004d60003960008181611894015281816118d401528181611985015281816119c50152611ab70152615d016000f3fe60806040526004361061024a5760003560e01c80637d2e90c211610139578063cc953557116100b6578063ef519dc01161007a578063ef519dc014610791578063f13a143f146107cc578063f2fde38b146107ea578063faeda7e51461080a578063fb47e0161461083a578063fb5d45261461086757600080fd5b8063cc953557146106d1578063cfbdb859146106f1578063dcf6e81914610711578063dd1ca71614610731578063e5ffb5df1461075f57600080fd5b80638da5cb5b116100fd5780638da5cb5b146105ff5780638f3ddc9f1461061d5780639b317cc41461063d578063bff1f9e114610670578063cb0e0d7d1461069f57600080fd5b80637d2e90c2146105685780638129fc1c146105885780638456cb591461059d57806386f6630d146105b25780638a93f7b9146105df57600080fd5b80633659cfe6116101c757806350431ce41161018b57806350431ce4146104f157806352d1902d146105065780635c975abb1461051b578063715018a614610533578063771aa2161461054857600080fd5b80633659cfe61461044f5780633f4ba83a1461046f57806343b4ebf4146104845780634f1ef286146104be578063502aa3b5146104d157600080fd5b806325f1c91e1161020e57806325f1c91e1461035c578063277bb9001461038a5780632bb5112d146103aa578063345b5b851461040f57806335166fef1461042f57600080fd5b8063025313ff146102565780630ba0dba3146102aa57806318452cd8146102cc578063228159b4146102fc5780632405091c1461031c57600080fd5b3661025157005b600080fd5b34801561026257600080fd5b5061028d610271366004614ee2565b61010c602052600090815260409020546001600160a01b031681565b6040516001600160a01b0390911681526020015b60405180910390f35b3480156102b657600080fd5b506102ca6102c5366004614f12565b61088c565b005b3480156102d857600080fd5b506102ec6102e7366004614f12565b6108b6565b60405190151581526020016102a1565b34801561030857600080fd5b506102ca610317366004614f2f565b6108dd565b34801561032857600080fd5b5061033c610337366004614f12565b610bd1565b6040805194855260208501939093529183015260608201526080016102a1565b34801561036857600080fd5b5061037c610377366004614f12565b6111c0565b6040519081526020016102a1565b34801561039657600080fd5b506102ca6103a5366004614f71565b611457565b3480156103b657600080fd5b506103ee6103c5366004614f12565b61010a60205260009081526040902080546002909101546001600160a01b039091169060ff1682565b604080516001600160a01b03909316835260ff9091166020830152016102a1565b34801561041b57600080fd5b506102ca61042a366004614fe8565b6114d5565b34801561043b57600080fd5b506102ca61044a36600461525b565b611569565b34801561045b57600080fd5b506102ca61046a366004614f12565b61188a565b34801561047b57600080fd5b506102ca611969565b34801561049057600080fd5b5061028d61049f366004614f12565b6001600160a01b03908116600090815261010960205260409020541690565b6102ca6104cc366004615375565b61197b565b3480156104dd57600080fd5b5061028d6104ec3660046153d8565b611a4b565b3480156104fd57600080fd5b506102ca611a76565b34801561051257600080fd5b5061037c611aaa565b34801561052757600080fd5b5060335460ff166102ec565b34801561053f57600080fd5b506102ca611b5d565b34801561055457600080fd5b506102ca6105633660046153f1565b611b6f565b34801561057457600080fd5b506102ca610583366004614f71565b611c73565b34801561059457600080fd5b506102ca611cb1565b3480156105a957600080fd5b506102ca611e97565b3480156105be57600080fd5b506105d26105cd366004614f12565b611ea7565b6040516102a19190615426565b3480156105eb57600080fd5b506102ca6105fa366004614fe8565b611f8d565b34801561060b57600080fd5b506065546001600160a01b031661028d565b34801561062957600080fd5b506102ca61063836600461549b565b612061565b34801561064957600080fd5b5061065d610658366004615506565b6121bc565b6040516102a19796959493929190615571565b34801561067c57600080fd5b5061010f5461068c9061ffff1681565b60405161ffff90911681526020016102a1565b3480156106ab57600080fd5b5061068c6106ba366004614f12565b61010d6020526000908152604090205461ffff1681565b3480156106dd57600080fd5b506102ca6106ec3660046155c6565b61230e565b3480156106fd57600080fd5b506102ec61070c3660046153d8565b612439565b34801561071d57600080fd5b506102ca61072c366004614f12565b6124cb565b34801561073d57600080fd5b5061075161074c3660046155ff565b612576565b6040516102a1929190615686565b34801561076b57600080fd5b5061077f61077a366004614f12565b612653565b60405160ff90911681526020016102a1565b34801561079d57600080fd5b506107b16107ac366004614f12565b612ae2565b604080519384526020840192909252908201526060016102a1565b3480156107d857600080fd5b5060fb546001600160a01b031661028d565b3480156107f657600080fd5b506102ca610805366004614f12565b612bfd565b34801561081657600080fd5b5061082a610825366004614f12565b612c73565b6040516102a194939291906156ac565b34801561084657600080fd5b5061085a610855366004614f12565b612d60565b6040516102a19190615719565b34801561087357600080fd5b5061087c61304d565b6040516102a19493929190615828565b610894613114565b60fb80546001600160a01b0319166001600160a01b0392909216919091179055565b6001600160a01b038082166000908152610109602052604081205490911615155b92915050565b336108f06065546001600160a01b031690565b6001600160a01b0316816001600160a01b03161480610996575060fb60009054906101000a90046001600160a01b03166001600160a01b03166363d9df856040518163ffffffff1660e01b8152600401602060405180830381865afa15801561095d573d6000803e3d6000fd5b505050506040513d601f19601f820116820180604052508101906109819190615862565b6001600160a01b0316816001600160a01b0316145b6109f25760405162461bcd60e51b815260206004820152602260248201527f4f6e6c79206f776e65722063616e2063616c6c20746869732066756e6374696f604482015261371760f11b60648201526084015b60405180910390fd5b6001600160a01b038381166000908152610109602052604090205416158015610a2357506001600160a01b03821615155b15610a3257610a32838361316e565b6001600160a01b038281166000908152610109602052604090205416158015610a6357506001600160a01b03821615155b8015610a7e5750610100546001600160a01b03838116911614155b15610a9b5761010054610a9b9083906001600160a01b031661316e565b610aa584846132b6565b610ab16103e8856158ab565b6040516370a0823160e01b8152306004820152737f9fd63932babc508fad2f324eb534d09cfe86f0906370a0823190602401602060405180830381865afa158015610b00573d6000803e3d6000fd5b505050506040513d601f19601f82011682018060405250810190610b2491906158bf565b1115610bc257737f9fd63932babc508fad2f324eb534d09cfe86f063a9059cbb84610b516103e8886158ab565b6040516001600160e01b031960e085901b1681526001600160a01b03909216600483015260248201526044016020604051808303816000875af1158015610b9c573d6000803e3d6000fd5b505050506040513d601f19601f82011682018060405250810190610bc091906158d8565b505b610bcb83613ea6565b50505050565b6001600160a01b0381166000908152610109602052604081206001810154600482015492918291829190825b81811015610ed45760006101096000856001018481548110610c2157610c216158fa565b60009182526020808320909101546001600160a01b03908116845283820194909452604092830190912082516101608101845281549094168452600181018054845181850281018501909552808552919385840193909290830182828015610cb257602002820191906000526020600020905b81546001600160a01b03168152600190910190602001808311610c94575b5050505050815260200160028201805480602002602001604051908101604052809291908181526020018280548015610d1457602002820191906000526020600020905b81546001600160a01b03168152600190910190602001808311610cf6575b5050505050815260200160038201805480602002602001604051908101604052809291908181526020018280548015610d6c57602002820191906000526020600020905b815481526020019060010190808311610d58575b5050505050815260200160048201548152602001600582015481526020016006820154815260200160078201805480602002602001604051908101604052809291908181526020018280548015610de257602002820191906000526020600020905b815481526020019060010190808311610dce575b5050505050815260200160088201805480602002602001604051908101604052809291908181526020018280548015610e3a57602002820191906000526020600020905b815481526020019060010190808311610e26575b5050505050815260200160098201805480602002602001604051908101604052809291908181526020018280548015610e9257602002820191906000526020600020905b815481526020019060010190808311610e7e575b5050509183525050600a919091015460ff1615156020909101526080810151909150610ebe9088615910565b9650508080610ecc90615923565b915050610bfd565b5060005b818110156111af5760006101096000856001018481548110610efc57610efc6158fa565b60009182526020808320909101546001600160a01b03908116845283820194909452604092830190912082516101608101845281549094168452600181018054845181850281018501909552808552919385840193909290830182828015610f8d57602002820191906000526020600020905b81546001600160a01b03168152600190910190602001808311610f6f575b5050505050815260200160028201805480602002602001604051908101604052809291908181526020018280548015610fef57602002820191906000526020600020905b81546001600160a01b03168152600190910190602001808311610fd1575b505050505081526020016003820180548060200260200160405190810160405280929190818152602001828054801561104757602002820191906000526020600020905b815481526020019060010190808311611033575b50505050508152602001600482015481526020016005820154815260200160068201548152602001600782018054806020026020016040519081016040528092919081815260200182805480156110bd57602002820191906000526020600020905b8154815260200190600101908083116110a9575b505050505081526020016008820180548060200260200160405190810160405280929190818152602001828054801561111557602002820191906000526020600020905b815481526020019060010190808311611101575b505050505081526020016009820180548060200260200160405190810160405280929190818152602001828054801561116d57602002820191906000526020600020905b815481526020019060010190808311611159575b5050509183525050600a919091015460ff16151560209091015260c08101519091506111999087615910565b95505080806111a790615923565b915050610ed8565b508160060154925050509193509193565b6001600160a01b03808216600090815261010960209081526040808320815161016081018352815490951685526001810180548351818602810186019094528084529495869590949293858401939092919083018282801561124b57602002820191906000526020600020905b81546001600160a01b0316815260019091019060200180831161122d575b50505050508152602001600282018054806020026020016040519081016040528092919081815260200182805480156112ad57602002820191906000526020600020905b81546001600160a01b0316815260019091019060200180831161128f575b505050505081526020016003820180548060200260200160405190810160405280929190818152602001828054801561130557602002820191906000526020600020905b8154815260200190600101908083116112f1575b505050505081526020016004820154815260200160058201548152602001600682015481526020016007820180548060200260200160405190810160405280929190818152602001828054801561137b57602002820191906000526020600020905b815481526020019060010190808311611367575b50505050508152602001600882018054806020026020016040519081016040528092919081815260200182805480156113d357602002820191906000526020600020905b8154815260200190600101908083116113bf575b505050505081526020016009820180548060200260200160405190810160405280929190818152602001828054801561142b57602002820191906000526020600020905b815481526020019060010190808311611417575b5050509183525050600a919091015460ff161515602090910152905061145081613f9d565b9392505050565b61145f613114565b60405163a9059cbb60e01b8152336004820152602481018290526001600160a01b0383169063a9059cbb906044016020604051808303816000875af11580156114ac573d6000803e3d6000fd5b505050506040513d601f19601f820116820180604052508101906114d091906158d8565b505050565b60fb54604051630935e01b60e21b81523360048201526001600160a01b03909116906324d7806c90602401602060405180830381865afa15801561151d573d6000803e3d6000fd5b505050506040513d601f19601f8201168201806040525081019061154191906158d8565b61155d5760405162461bcd60e51b81526004016109e99061593c565b6114d060fc8383614e30565b60fb54604051630935e01b60e21b81523360048201526001600160a01b03909116906324d7806c90602401602060405180830381865afa1580156115b1573d6000803e3d6000fd5b505050506040513d601f19601f820116820180604052508101906115d591906158d8565b6115f15760405162461bcd60e51b81526004016109e99061593c565b60005b8751811015611880576040518060e0016040528089838151811061161a5761161a6158fa565b602002602001015160ff16815260200188838151811061163c5761163c6158fa565b6020026020010151815260200187838151811061165b5761165b6158fa565b6020026020010151815260200186838151811061167a5761167a6158fa565b60200260200101518152602001858381518110611699576116996158fa565b602002602001015181526020018483815181106116b8576116b86158fa565b602002602001015181526020018383815181106116d7576116d76158fa565b602002602001015181525061010b60008a84815181106116f9576116f96158fa565b60209081029190910181015160ff90811683528282019390935260409182016000208451815460ff1916941693909317835583015160018301558201516002820155606082015160038201556080820151600482019061175990826159e9565b5060a0820151600582019061176e90826159e9565b5060c082015181600601559050507fb9f30bf0ab6748f3fcfbc9d280ed1feedea51276343f55f8342b8c453b876e9a8882815181106117af576117af6158fa565b60200260200101518883815181106117c9576117c96158fa565b60200260200101518884815181106117e3576117e36158fa565b60200260200101518885815181106117fd576117fd6158fa565b6020026020010151888681518110611817576118176158fa565b6020026020010151888781518110611831576118316158fa565b602002602001015188888151811061184b5761184b6158fa565b60200260200101516040516118669796959493929190615571565b60405180910390a18061187881615923565b9150506115f4565b5050505050505050565b6001600160a01b037f00000000000000000000000000000000000000000000000000000000000000001630036118d25760405162461bcd60e51b81526004016109e990615aa8565b7f00000000000000000000000000000000000000000000000000000000000000006001600160a01b031661191b600080516020615c85833981519152546001600160a01b031690565b6001600160a01b0316146119415760405162461bcd60e51b81526004016109e990615af4565b61194a81614007565b604080516000808252602082019092526119669183919061400f565b50565b611971613114565b61197961417a565b565b6001600160a01b037f00000000000000000000000000000000000000000000000000000000000000001630036119c35760405162461bcd60e51b81526004016109e990615aa8565b7f00000000000000000000000000000000000000000000000000000000000000006001600160a01b0316611a0c600080516020615c85833981519152546001600160a01b031690565b6001600160a01b031614611a325760405162461bcd60e51b81526004016109e990615af4565b611a3b82614007565b611a478282600161400f565b5050565b61010e8181548110611a5c57600080fd5b6000918252602090912001546001600160a01b0316905081565b611a7e613114565b60405133904780156108fc02916000818181858888f19350505050158015611966573d6000803e3d6000fd5b6000306001600160a01b037f00000000000000000000000000000000000000000000000000000000000000001614611b4a5760405162461bcd60e51b815260206004820152603860248201527f555550535570677261646561626c653a206d757374206e6f742062652063616c60448201527f6c6564207468726f7567682064656c656761746563616c6c000000000000000060648201526084016109e9565b50600080516020615c8583398151915290565b611b65613114565b61197960006141cc565b60fb54604051630935e01b60e21b81523360048201526001600160a01b03909116906324d7806c90602401602060405180830381865afa158015611bb7573d6000803e3d6000fd5b505050506040513d601f19601f82011682018060405250810190611bdb91906158d8565b611bf75760405162461bcd60e51b81526004016109e99061593c565b6001600160a01b03808316600090815261010a602052604090208054909116611c345780546001600160a01b0319166001600160a01b0384161781555b600190810180549182018155600090815260209081902090820401805460ff938416601f9093166101000a928302939092021990911691909117905550565b611c7b613114565b6040516001600160a01b0383169082156108fc029083906000818181858888f193505050501580156114d0573d6000803e3d6000fd5b600054610100900460ff1615808015611cd15750600054600160ff909116105b80611ceb5750303b158015611ceb575060005460ff166001145b611d4e5760405162461bcd60e51b815260206004820152602e60248201527f496e697469616c697a61626c653a20636f6e747261637420697320616c72656160448201526d191e481a5b9a5d1a585b1a5e995960921b60648201526084016109e9565b6000805460ff191660011790558015611d71576000805461ff0019166101001790555b60fb80546001600160a01b03199081167377daafc7411c911b869c71bf70fe36cce507845d17909155610100805490911673f3ba579d4afd4dad8a8c2d1bcbdd1405688e492f1790556040805160e0810182526007808252600460208301526003928201929092526002606082015260016080820181905260a0820181905260c0820152611e029160fc9190614e7b565b50606460fd5560146101065569011478b7c30abc3000006101035560046101015560056101045568a80d24677efef0000061010555611e3f61421e565b611e4761424d565b611e4f61427c565b8015611966576000805461ff0019169055604051600181527f7f26b83ff96e1f2b6a682f133852f6798a09c465da95921460cefb38474024989060200160405180910390a150565b611e9f613114565b6119796142a3565b611ed7604051806060016040528060006001600160a01b0316815260200160608152602001600060ff1681525090565b6001600160a01b03808316600090815261010a6020908152604091829020825160608101845281549094168452600181018054845181850281018501909552808552919385840193909290830182828015611f6f57602002820191906000526020600020906000905b825461010083900a900460ff16815260206001928301818104948501949093039092029101808411611f405790505b50505091835250506002919091015460ff1660209091015292915050565b60fb54604051630935e01b60e21b81523360048201526001600160a01b03909116906324d7806c90602401602060405180830381865afa158015611fd5573d6000803e3d6000fd5b505050506040513d601f19601f82011682018060405250810190611ff991906158d8565b6120155760405162461bcd60e51b81526004016109e99061593c565b60005b818110156114d05761204f838383818110612035576120356158fa565b905060200201602081019061204a9190614f12565b613ea6565b8061205981615923565b915050612018565b60fb54604051630935e01b60e21b81523360048201526001600160a01b03909116906324d7806c90602401602060405180830381865afa1580156120a9573d6000803e3d6000fd5b505050506040513d601f19601f820116820180604052508101906120cd91906158d8565b6120e95760405162461bcd60e51b81526004016109e99061593c565b8281146121425760405162461bcd60e51b815260206004820152602160248201527f4c656e677468206973206e6f7420657175616c20706c6561736520636865636b6044820152601760f91b60648201526084016109e9565b60005b838110156121b5576121a3858583818110612162576121626158fa565b90506020020160208101906121779190614f12565b848484818110612189576121896158fa565b905060200201602081019061219e9190614f12565b61316e565b806121ad81615923565b915050612145565b5050505050565b61010b602052600090815260409020805460018201546002830154600384015460048501805460ff909516959394929391926121f790615967565b80601f016020809104026020016040519081016040528092919081815260200182805461222390615967565b80156122705780601f1061224557610100808354040283529160200191612270565b820191906000526020600020905b81548152906001019060200180831161225357829003601f168201915b50505050509080600501805461228590615967565b80601f01602080910402602001604051908101604052809291908181526020018280546122b190615967565b80156122fe5780601f106122d3576101008083540402835291602001916122fe565b820191906000526020600020905b8154815290600101906020018083116122e157829003601f168201915b5050505050908060060154905087565b612316613114565b6001600160a01b038216600090815261010960205260408120600181015490915b818110156121b557826001018181548110612354576123546158fa565b6000918252602090912001546001600160a01b03908116908516036124275760018084018054909161238591615b40565b81548110612395576123956158fa565b6000918252602090912001546001840180546001600160a01b0390921691839081106123c3576123c36158fa565b9060005260206000200160006101000a8154816001600160a01b0302191690836001600160a01b031602179055508260010180548061240457612404615b53565b600082815260209020810160001990810180546001600160a01b03191690550190555b8061243181615923565b915050612337565b60fb54604051630935e01b60e21b81523360048201526000916001600160a01b0316906324d7806c90602401602060405180830381865afa158015612482573d6000803e3d6000fd5b505050506040513d601f19601f820116820180604052508101906124a691906158d8565b6124c25760405162461bcd60e51b81526004016109e99061593c565b5060fd55600190565b60fb54604051630935e01b60e21b81523360048201526001600160a01b03909116906324d7806c90602401602060405180830381865afa158015612513573d6000803e3d6000fd5b505050506040513d601f19601f8201168201806040525081019061253791906158d8565b6125535760405162461bcd60e51b81526004016109e99061593c565b61010080546001600160a01b0319166001600160a01b0392909216919091179055565b606060008060006125888787876142e0565b915091508092508061ffff166001600160401b038111156125ab576125ab615029565b6040519080825280602002602001820160405280156125d4578160200160208202803683370190505b50935060005b8161ffff168161ffff16101561264857828161ffff1681518110612600576126006158fa565b6020026020010151858261ffff168151811061261e5761261e6158fa565b6001600160a01b03909216602092830291909101909101528061264081615b69565b9150506125da565b505050935093915050565b6001600160a01b0380821660009081526101096020908152604080832081516101608101835281549095168552600181018054835181860281018601909452808452949586959094929385840193909291908301828280156126de57602002820191906000526020600020905b81546001600160a01b031681526001909101906020018083116126c0575b505050505081526020016002820180548060200260200160405190810160405280929190818152602001828054801561274057602002820191906000526020600020905b81546001600160a01b03168152600190910190602001808311612722575b505050505081526020016003820180548060200260200160405190810160405280929190818152602001828054801561279857602002820191906000526020600020905b815481526020019060010190808311612784575b505050505081526020016004820154815260200160058201548152602001600682015481526020016007820180548060200260200160405190810160405280929190818152602001828054801561280e57602002820191906000526020600020905b8154815260200190600101908083116127fa575b505050505081526020016008820180548060200260200160405190810160405280929190818152602001828054801561286657602002820191906000526020600020905b815481526020019060010190808311612852575b50505050508152602001600982018054806020026020016040519081016040528092919081815260200182805480156128be57602002820191906000526020600020905b8154815260200190600101908083116128aa575b5050509183525050600a919091015460ff161515602090910152905060005b60148160ff161015612adb5760ff808216600090815261010b60209081526040808320815160e081018352815490951685526001810154928501929092526002820154908401526003810154606084015260048101805492939260808401919061294690615967565b80601f016020809104026020016040519081016040528092919081815260200182805461297290615967565b80156129bf5780601f10612994576101008083540402835291602001916129bf565b820191906000526020600020905b8154815290600101906020018083116129a257829003601f168201915b505050505081526020016005820180546129d890615967565b80601f0160208091040260200160405190810160405280929190818152602001828054612a0490615967565b8015612a515780601f10612a2657610100808354040283529160200191612a51565b820191906000526020600020905b815481529060010190602001808311612a3457829003601f168201915b50505050508152602001600682015481525050905060028260ff16118015612a7b57506020810151155b15612a865750612adb565b8060200151612a9484613f9d565b10158015612aaa575080604001518360a0015110155b8015612abf5750612abf8382606001516147ef565b15612ac8578193505b5080612ad381615b8a565b9150506128dd565b5050919050565b6001600160a01b0381166000908152610109602052604081206007810154600882015460098301548493849390929091845b83811015612b5b57846007018181548110612b3157612b316158fa565b906000526020600020015488612b479190615910565b975080612b5381615923565b915050612b14565b5060005b82811015612ba657846008018181548110612b7c57612b7c6158fa565b906000526020600020015487612b929190615910565b965080612b9e81615923565b915050612b5f565b5060005b81811015612bf157846009018181548110612bc757612bc76158fa565b906000526020600020015486612bdd9190615910565b955080612be981615923565b915050612baa565b50505050509193909250565b612c05613114565b6001600160a01b038116612c6a5760405162461bcd60e51b815260206004820152602660248201527f4f776e61626c653a206e6577206f776e657220697320746865207a65726f206160448201526564647265737360d01b60648201526084016109e9565b611966816141cc565b6001600160a01b03811660009081526101096020908152604080832060018101805483518186028101860190945280845260609594869486949390929091830182828015612cea57602002820191906000526020600020905b81546001600160a01b03168152600190910190602001808311612ccc575b505050505094508451935080600201805480602002602001604051908101604052809291908181526020018280548015612d4d57602002820191906000526020600020905b81546001600160a01b03168152600190910190602001808311612d2f575b5050505050925082519150509193509193565b612dc860405180610160016040528060006001600160a01b031681526020016060815260200160608152602001606081526020016000815260200160008152602001600081526020016060815260200160608152602001606081526020016000151581525090565b6001600160a01b038083166000908152610109602090815260409182902082516101608101845281549094168452600181018054845181850281018501909552808552919385840193909290830182828015612e4d57602002820191906000526020600020905b81546001600160a01b03168152600190910190602001808311612e2f575b5050505050815260200160028201805480602002602001604051908101604052809291908181526020018280548015612eaf57602002820191906000526020600020905b81546001600160a01b03168152600190910190602001808311612e91575b5050505050815260200160038201805480602002602001604051908101604052809291908181526020018280548015612f0757602002820191906000526020600020905b815481526020019060010190808311612ef3575b5050505050815260200160048201548152602001600582015481526020016006820154815260200160078201805480602002602001604051908101604052809291908181526020018280548015612f7d57602002820191906000526020600020905b815481526020019060010190808311612f69575b5050505050815260200160088201805480602002602001604051908101604052809291908181526020018280548015612fd557602002820191906000526020600020905b815481526020019060010190808311612fc1575b505050505081526020016009820180548060200260200160405190810160405280929190818152602001828054801561302d57602002820191906000526020600020905b815481526020019060010190808311613019575b5050509183525050600a919091015460ff16151560209091015292915050565b60fd5460fc805460408051602080840282018101909252828152606093600093849383018282801561309e57602002820191906000526020600020905b81548152602001906001019080831161308a575b505060fc549396506000925050505b818160ff1610156130f85760fc8160ff16815481106130ce576130ce6158fa565b9060005260206000200154846130e49190615910565b9350806130f081615b8a565b9150506130ad565b5050610100549394929391926001600160a01b03909216919050565b6065546001600160a01b031633146119795760405162461bcd60e51b815260206004820181905260248201527f4f776e61626c653a2063616c6c6572206973206e6f7420746865206f776e657260448201526064016109e9565b6001600160a01b038281166000818152610109602052604080822080546001600160a01b03191694861694851781559051909392917ffaf63637882ff2d63ca76881cf92fb857130e36f350c926f9cc884b499b42b7791a360fc5460005b818110156121b55782546001600160a01b031660009081526101096020526040812090829003613226576001818101805491820181556000908152602090200180546001600160a01b0319166001600160a01b0388161790555b83546001600160a01b031661323b57506121b5565b6002810180546001810182556000918252602082200180546001600160a01b0319166001600160a01b03898116918217909255865460405191938984169391909116917fb766b19465b3277b0b275adf79d715cac93166bf6e6a39f26e4ccfdec76ad47e9190a49250806132ae81615923565b9150506131cc565b60fb546040805163b264bbab60e01b815290516001600160a01b0390921691600091839163b264bbab916004808201926020929091908290030181865afa158015613305573d6000803e3d6000fd5b505050506040513d601f19601f820116820180604052508101906133299190615862565b9050600060fc80548060200260200160405190810160405280929190818152602001828054801561337957602002820191906000526020600020905b815481526020019060010190808311613365575b5050506001600160a01b03871660009081526101096020908152604082206003810180546001810182559084529183209091018a905560048101805495965090948a94509092506133cb908490615910565b909155505060405163a9415f5d60e01b81526001600160a01b0386811660048301526024820188905284169063a9415f5d90604401600060405180830381600087803b15801561341a57600080fd5b505af115801561342e573d6000803e3d6000fd5b505050506000610106546001600160401b0381111561344f5761344f615029565b604051908082528060200260200182016040528015613478578160200160208202803683370190505b5090506000806101078054806020026020016040519081016040528092919081815260200182805480156134d557602002820191906000526020600020905b81546001600160a01b031681526001909101906020018083116134b7575b505083519394506000925050505b610106548110156138e95785546001600160a01b03166000818152610109602052604090209061351357506138e9565b875182101561387e5760006064898481518110613532576135326158fa565b60200260200101518e6135459190615ba9565b61354f91906158ab565b9050826000036135d8578c82600501600082825461356d9190615910565b9091555050875460405163169529b960e01b81526001600160a01b039182166004820152602481018f9052908b169063169529b990604401600060405180830381600087803b1580156135bf57600080fd5b505af11580156135d3573d6000803e3d6000fd5b505050505b8c8260060160008282546135ec9190615910565b90915550508754604051637ad141e760e11b81526001600160a01b039182166004820152602481018f9052908b169063f5a283ce90604401600060405180830381600087803b15801561363e57600080fd5b505af1158015613652573d6000803e3d6000fd5b505050506007820180546001810182556000918252602082200182905560ff8054839290613681908490615910565b925050819055508a6001600160a01b031663b70cc4c16040518163ffffffff1660e01b8152600401602060405180830381865afa1580156136c6573d6000803e3d6000fd5b505050506040513d601f19601f820116820180604052508101906136ea9190615862565b885460405163a9059cbb60e01b81526001600160a01b0391821660048201526024810184905291169063a9059cbb906044016020604051808303816000875af115801561373b573d6000803e3d6000fd5b505050506040513d601f19601f8201168201806040525081019061375f91906158d8565b50875481906001600160a01b03908116908e167f197a0a2b0fbff3fc4f7f4d32597585aa8415fcc4c5dd6634336ec65904529c8361379e876001615910565b60408051918252602082018190526005908201526410539554d160da1b606082015260800160405180910390a4600a82015460ff1661387c57610103548260050154111561387c5787546101028054600180820183556000929092527f93bdaa6a4190909b7c3fbe8d42169ffe1cab19f51dfc8db24c71abf849eced4a0180546001600160a01b0319166001600160a01b03938416179055600a8401805460ff191690911790558854604051911681527facc63915cb028aeaee9996abc0f864fc0559a2f955750aa97d6ef9f51014acfb9060200160405180910390a15b505b61010554816005015411156138d557865486516001600160a01b03909116908790879081106138af576138af6158fa565b6001600160a01b0390921660209283029190910190910152846138d181615923565b9550505b9550806138e181615923565b9150506134e3565b508215613b1a576000836064610104548d6139049190615ba9565b61390e91906158ab565b61391891906158ab565b905060005b84811015613b175760006001600160a01b0316868281518110613942576139426158fa565b60200260200101516001600160a01b03160315613b175760006101096000888481518110613972576139726158fa565b60200260200101516001600160a01b03166001600160a01b0316815260200190815260200160002090508a6001600160a01b031663b70cc4c16040518163ffffffff1660e01b8152600401602060405180830381865afa1580156139da573d6000803e3d6000fd5b505050506040513d601f19601f820116820180604052508101906139fe9190615862565b6001600160a01b031663a9059cbb888481518110613a1e57613a1e6158fa565b6020026020010151856040518363ffffffff1660e01b8152600401613a589291906001600160a01b03929092168252602082015260400190565b6020604051808303816000875af1158015613a77573d6000803e3d6000fd5b505050506040513d601f19601f82011682018060405250810190613a9b91906158d8565b50868281518110613aae57613aae6158fa565b60200260200101516001600160a01b0316837f62f12b06523c734cca73aa1502a5f967c8e09d0a2f084fd36acbac47f54b0d4e60405160405180910390a36009018054600181018255600091825260209091200182905580613b0f81615923565b91505061391d565b50505b6101025415613cfa5760006064610101548c613b369190615ba9565b613b4091906158ab565b610102546040805142602082015244918101919091529192506000916060016040516020818303038152906040528051906020012060001c613b829190615bc0565b905060006101028281548110613b9a57613b9a6158fa565b60009182526020808320909101546001600160a01b039081168084526101098352604093849020845163b70cc4c160e01b8152945191955093918f169263b70cc4c192600480820193918290030181865afa158015613bfd573d6000803e3d6000fd5b505050506040513d601f19601f82011682018060405250810190613c219190615862565b60405163a9059cbb60e01b81526001600160a01b03848116600483015260248201879052919091169063a9059cbb906044016020604051808303816000875af1158015613c72573d6000803e3d6000fd5b505050506040513d601f19601f82011682018060405250810190613c9691906158d8565b50600881018054600181018255600091825260209182902001859055604080518681526001600160a01b038516928101929092527f51e673ac98f0ea063ce27eb5af807d22b97cd11cd79380cf1f711ad80948046c910160405180910390a1505050505b8015613e9a576000816064610108548d613d149190615ba9565b613d1e91906158ab565b613d2891906158ab565b905060005b82811015613e9757896001600160a01b031663b70cc4c16040518163ffffffff1660e01b8152600401602060405180830381865afa158015613d73573d6000803e3d6000fd5b505050506040513d601f19601f82011682018060405250810190613d979190615862565b6001600160a01b031663a9059cbb858381518110613db757613db76158fa565b6020026020010151846040518363ffffffff1660e01b8152600401613df19291906001600160a01b03929092168252602082015260400190565b6020604051808303816000875af1158015613e10573d6000803e3d6000fd5b505050506040513d601f19601f82011682018060405250810190613e3491906158d8565b50838181518110613e4757613e476158fa565b60200260200101516001600160a01b0316827f6d550262135215fe2f5ef9b6fad45db8cf51267248f8b95e069f8025f6f9049a60405160405180910390a380613e8f81615923565b915050613d2d565b50505b50505050505050505050565b6001600160a01b038116600090815261010d602052604081205461ffff1690036119665761010f54600090613ee09061ffff166001615bd4565b6001600160a01b038316600081815261010d60209081526040808320805461ffff191661ffff878116918217909255845261010c909252822080546001600160a01b0319908116851790915561010e80546001810182559084527f44731785622d53a842eeb261a70df6f2b61b9624656157b6168597f0656f480501805490911690931790925561010f8054939450929091169190613f7e83615b69565b91906101000a81548161ffff021916908361ffff160217905550505050565b606081015151600090156140025760015b8260600151518161ffff1610156140005782606001518161ffff1681518110613fd957613fd96158fa565b602002602001015182613fec9190615910565b915080613ff881615b69565b915050613fae565b505b919050565b611966613114565b7f4910fdfa16fed3260ed0e7147f7cc6da11a60208b5b9406d12a635614ffd91435460ff1615614042576114d083614b0b565b826001600160a01b03166352d1902d6040518163ffffffff1660e01b8152600401602060405180830381865afa92505050801561409c575060408051601f3d908101601f19168201909252614099918101906158bf565b60015b6140ff5760405162461bcd60e51b815260206004820152602e60248201527f45524331393637557067726164653a206e657720696d706c656d656e7461746960448201526d6f6e206973206e6f74205555505360901b60648201526084016109e9565b600080516020615c85833981519152811461416e5760405162461bcd60e51b815260206004820152602960248201527f45524331393637557067726164653a20756e737570706f727465642070726f786044820152681a58589b195555525160ba1b60648201526084016109e9565b506114d0838383614ba7565b614182614bcc565b6033805460ff191690557f5db9ee0a495bf2e6ff9c91a7834c1ba4fdd244a5e8aa4e537bd38aeae4b073aa335b6040516001600160a01b03909116815260200160405180910390a1565b606580546001600160a01b038381166001600160a01b0319831681179093556040519116919082907f8be0079c531659141344cd1fd0a4f28419497f9722a3daafe3b4186f6b6457e090600090a35050565b600054610100900460ff166142455760405162461bcd60e51b81526004016109e990615bef565b611979614c15565b600054610100900460ff166142745760405162461bcd60e51b81526004016109e990615bef565b611979614c48565b600054610100900460ff166119795760405162461bcd60e51b81526004016109e990615bef565b6142ab614c78565b6033805460ff191660011790557f62e78cea01bee320cd4e420270b5ea74000d11b0c9f74754ebdbfc544b05a2586141af3390565b606060006142ee8484615c3a565b61ffff166001600160401b0381111561430957614309615029565b604051908082528060200260200182016040528015614332578160200160208202803683370190505b5091505b8261ffff168461ffff16116147e75761ffff8416600090815261010c60209081526040808320546001600160a01b039081168085526101098452828520835161016081018552815490931683526001810180548551818802810188019096528086529296959394919385810193908301828280156143dd57602002820191906000526020600020905b81546001600160a01b031681526001909101906020018083116143bf575b505050505081526020016002820180548060200260200160405190810160405280929190818152602001828054801561443f57602002820191906000526020600020905b81546001600160a01b03168152600190910190602001808311614421575b505050505081526020016003820180548060200260200160405190810160405280929190818152602001828054801561449757602002820191906000526020600020905b815481526020019060010190808311614483575b505050505081526020016004820154815260200160058201548152602001600682015481526020016007820180548060200260200160405190810160405280929190818152602001828054801561450d57602002820191906000526020600020905b8154815260200190600101908083116144f9575b505050505081526020016008820180548060200260200160405190810160405280929190818152602001828054801561456557602002820191906000526020600020905b815481526020019060010190808311614551575b50505050508152602001600982018054806020026020016040519081016040528092919081815260200182805480156145bd57602002820191906000526020600020905b8154815260200190600101908083116145a9575b5050509183525050600a919091015460ff9081161515602092830152898116600090815261010b83526040808220815160e0810183528154909416845260018101549484019490945260028401549083015260038301546060830152600483018054949550909391929160808401919061463690615967565b80601f016020809104026020016040519081016040528092919081815260200182805461466290615967565b80156146af5780601f10614684576101008083540402835291602001916146af565b820191906000526020600020905b81548152906001019060200180831161469257829003601f168201915b505050505081526020016005820180546146c890615967565b80601f01602080910402602001604051908101604052809291908181526020018280546146f490615967565b80156147415780601f1061471657610100808354040283529160200191614741565b820191906000526020600020905b81548152906001019060200180831161472457829003601f168201915b505050505081526020016006820154815250509050806020015161476483613f9d565b1015801561477a575080604001518260a0015110155b801561478f575061478f8282606001516147ef565b156147d15782858561ffff16815181106147ab576147ab6158fa565b6001600160a01b0390921660209283029190910190910152836147cd81615b69565b9450505b50505083806147df90615b69565b945050614336565b935093915050565b60008060028460200151511115614b045760005b8460200151518161ffff161015614b02576000610109600087602001518461ffff1681518110614835576148356158fa565b6020908102919091018101516001600160a01b039081168352828201939093526040918201600020825161016081018452815490941684526001810180548451818502810185019095528085529193858401939092908301828280156148c457602002820191906000526020600020905b81546001600160a01b031681526001909101906020018083116148a6575b505050505081526020016002820180548060200260200160405190810160405280929190818152602001828054801561492657602002820191906000526020600020905b81546001600160a01b03168152600190910190602001808311614908575b505050505081526020016003820180548060200260200160405190810160405280929190818152602001828054801561497e57602002820191906000526020600020905b81548152602001906001019080831161496a575b50505050508152602001600482015481526020016005820154815260200160068201548152602001600782018054806020026020016040519081016040528092919081815260200182805480156149f457602002820191906000526020600020905b8154815260200190600101908083116149e0575b5050505050815260200160088201805480602002602001604051908101604052809291908181526020018280548015614a4c57602002820191906000526020600020905b815481526020019060010190808311614a38575b5050505050815260200160098201805480602002602001604051908101604052809291908181526020018280548015614aa457602002820191906000526020600020905b815481526020019060010190808311614a90575b5050509183525050600a919091015460ff16151560209091015260c08101519091508511614ada5782614ad681615b8a565b9350505b60028360ff1610614aef576001935050614b02565b5080614afa81615b69565b915050614803565b505b5092915050565b6001600160a01b0381163b614b785760405162461bcd60e51b815260206004820152602d60248201527f455243313936373a206e657720696d706c656d656e746174696f6e206973206e60448201526c1bdd08184818dbdb9d1c9858dd609a1b60648201526084016109e9565b600080516020615c8583398151915280546001600160a01b0319166001600160a01b0392909216919091179055565b614bb083614cbe565b600082511180614bbd5750805b156114d057610bcb8383614cfe565b60335460ff166119795760405162461bcd60e51b815260206004820152601460248201527314185d5cd8589b194e881b9bdd081c185d5cd95960621b60448201526064016109e9565b600054610100900460ff16614c3c5760405162461bcd60e51b81526004016109e990615bef565b6033805460ff19169055565b600054610100900460ff16614c6f5760405162461bcd60e51b81526004016109e990615bef565b611979336141cc565b60335460ff16156119795760405162461bcd60e51b815260206004820152601060248201526f14185d5cd8589b194e881c185d5cd95960821b60448201526064016109e9565b614cc781614b0b565b6040516001600160a01b038216907fbc7cd75a20ee27fd9adebab32041f755214dbc6bffa90cc0225b39da2e5c2d3b90600090a250565b60606001600160a01b0383163b614d665760405162461bcd60e51b815260206004820152602660248201527f416464726573733a2064656c65676174652063616c6c20746f206e6f6e2d636f6044820152651b9d1c9858dd60d21b60648201526084016109e9565b600080846001600160a01b031684604051614d819190615c55565b600060405180830381855af49150503d8060008114614dbc576040519150601f19603f3d011682016040523d82523d6000602084013e614dc1565b606091505b5091509150614de98282604051806060016040528060278152602001615ca560279139614df2565b95945050505050565b60608315614e01575081611450565b6114508383815115614e165781518083602001fd5b8060405162461bcd60e51b81526004016109e99190615c71565b828054828255906000526020600020908101928215614e6b579160200282015b82811115614e6b578235825591602001919060010190614e50565b50614e77929150614ebb565b5090565b828054828255906000526020600020908101928215614e6b579160200282015b82811115614e6b578251829060ff16905591602001919060010190614e9b565b5b80821115614e775760008155600101614ebc565b803561ffff8116811461400257600080fd5b600060208284031215614ef457600080fd5b61145082614ed0565b6001600160a01b038116811461196657600080fd5b600060208284031215614f2457600080fd5b813561145081614efd565b600080600060608486031215614f4457600080fd5b833592506020840135614f5681614efd565b91506040840135614f6681614efd565b809150509250925092565b60008060408385031215614f8457600080fd5b8235614f8f81614efd565b946020939093013593505050565b60008083601f840112614faf57600080fd5b5081356001600160401b03811115614fc657600080fd5b6020830191508360208260051b8501011115614fe157600080fd5b9250929050565b60008060208385031215614ffb57600080fd5b82356001600160401b0381111561501157600080fd5b61501d85828601614f9d565b90969095509350505050565b634e487b7160e01b600052604160045260246000fd5b604051601f8201601f191681016001600160401b038111828210171561506757615067615029565b604052919050565b60006001600160401b0382111561508857615088615029565b5060051b60200190565b803560ff8116811461400257600080fd5b600082601f8301126150b457600080fd5b813560206150c96150c48361506f565b61503f565b82815260059290921b840181019181810190868411156150e857600080fd5b8286015b8481101561510a576150fd81615092565b83529183019183016150ec565b509695505050505050565b600082601f83011261512657600080fd5b813560206151366150c48361506f565b82815260059290921b8401810191818101908684111561515557600080fd5b8286015b8481101561510a5780358352918301918301615159565b60006001600160401b0383111561518957615189615029565b61519c601f8401601f191660200161503f565b90508281528383830111156151b057600080fd5b828260208301376000602084830101529392505050565b600082601f8301126151d857600080fd5b813560206151e86150c48361506f565b82815260059290921b8401810191818101908684111561520757600080fd5b8286015b8481101561510a5780356001600160401b0381111561522a5760008081fd5b8701603f8101891361523c5760008081fd5b61524d898683013560408401615170565b84525091830191830161520b565b600080600080600080600060e0888a03121561527657600080fd5b87356001600160401b038082111561528d57600080fd5b6152998b838c016150a3565b985060208a01359150808211156152af57600080fd5b6152bb8b838c01615115565b975060408a01359150808211156152d157600080fd5b6152dd8b838c01615115565b965060608a01359150808211156152f357600080fd5b6152ff8b838c01615115565b955060808a013591508082111561531557600080fd5b6153218b838c016151c7565b945060a08a013591508082111561533757600080fd5b6153438b838c016151c7565b935060c08a013591508082111561535957600080fd5b506153668a828b01615115565b91505092959891949750929550565b6000806040838503121561538857600080fd5b823561539381614efd565b915060208301356001600160401b038111156153ae57600080fd5b8301601f810185136153bf57600080fd5b6153ce85823560208401615170565b9150509250929050565b6000602082840312156153ea57600080fd5b5035919050565b6000806040838503121561540457600080fd5b823561540f81614efd565b915061541d60208401615092565b90509250929050565b602080825282516001600160a01b031682820152828101516060604084015280516080840181905260009291820190839060a08601905b8083101561548057835160ff16825292840192600192909201919084019061545d565b5060ff60408801511660608701528094505050505092915050565b600080600080604085870312156154b157600080fd5b84356001600160401b03808211156154c857600080fd5b6154d488838901614f9d565b909650945060208701359150808211156154ed57600080fd5b506154fa87828801614f9d565b95989497509550505050565b60006020828403121561551857600080fd5b61145082615092565b60005b8381101561553c578181015183820152602001615524565b50506000910152565b6000815180845261555d816020860160208601615521565b601f01601f19169290920160200192915050565b60ff8816815286602082015285604082015284606082015260e06080820152600061559f60e0830186615545565b82810360a08401526155b18186615545565b9150508260c083015298975050505050505050565b600080604083850312156155d957600080fd5b82356155e481614efd565b915060208301356155f481614efd565b809150509250929050565b60008060006060848603121561561457600080fd5b61561d84615092565b925061562b60208501614ed0565b915061563960408501614ed0565b90509250925092565b600081518084526020808501945080840160005b8381101561567b5781516001600160a01b031687529582019590820190600101615656565b509495945050505050565b6040815260006156996040830185615642565b905061ffff831660208301529392505050565b6080815260006156bf6080830187615642565b85602084015282810360408401526156d78186615642565b91505082606083015295945050505050565b600081518084526020808501945080840160005b8381101561567b578151875295820195908201906001016156fd565b602081526157336020820183516001600160a01b03169052565b60006020830151610160806040850152615751610180850183615642565b91506040850151601f198086850301606087015261576f8483615642565b9350606087015191508086850301608087015261578c84836156e9565b9350608087015160a087015260a087015160c087015260c087015160e087015260e087015191506101008187860301818801526157c985846156e9565b9450808801519250506101208187860301818801526157e885846156e9565b94508088015192505061014081878603018188015261580785846156e9565b9450808801519250505061581e8286018215159052565b5090949350505050565b84815260806020820152600061584160808301866156e9565b6040830194909452506001600160a01b039190911660609091015292915050565b60006020828403121561587457600080fd5b815161145081614efd565b634e487b7160e01b600052601260045260246000fd5b634e487b7160e01b600052601160045260246000fd5b6000826158ba576158ba61587f565b500490565b6000602082840312156158d157600080fd5b5051919050565b6000602082840312156158ea57600080fd5b8151801515811461145057600080fd5b634e487b7160e01b600052603260045260246000fd5b808201808211156108d7576108d7615895565b60006001820161593557615935615895565b5060010190565b6020808252601190820152702cb7ba9030b932903737ba1030b236b4b760791b604082015260600190565b600181811c9082168061597b57607f821691505b60208210810361400057634e487b7160e01b600052602260045260246000fd5b601f8211156114d057600081815260208120601f850160051c810160208610156159c25750805b601f850160051c820191505b818110156159e1578281556001016159ce565b505050505050565b81516001600160401b03811115615a0257615a02615029565b615a1681615a108454615967565b8461599b565b602080601f831160018114615a4b5760008415615a335750858301515b600019600386901b1c1916600185901b1785556159e1565b600085815260208120601f198616915b82811015615a7a57888601518255948401946001909101908401615a5b565b5085821015615a985787850151600019600388901b60f8161c191681555b5050505050600190811b01905550565b6020808252602c908201527f46756e6374696f6e206d7573742062652063616c6c6564207468726f7567682060408201526b19195b1959d85d1958d85b1b60a21b606082015260800190565b6020808252602c908201527f46756e6374696f6e206d7573742062652063616c6c6564207468726f7567682060408201526b6163746976652070726f787960a01b606082015260800190565b818103818111156108d7576108d7615895565b634e487b7160e01b600052603160045260246000fd5b600061ffff808316818103615b8057615b80615895565b6001019392505050565b600060ff821660ff8103615ba057615ba0615895565b60010192915050565b80820281158282048414176108d7576108d7615895565b600082615bcf57615bcf61587f565b500690565b61ffff818116838216019080821115614b0457614b04615895565b6020808252602b908201527f496e697469616c697a61626c653a20636f6e7472616374206973206e6f74206960408201526a6e697469616c697a696e6760a81b606082015260800190565b61ffff828116828216039080821115614b0457614b04615895565b60008251615c67818460208701615521565b9190910192915050565b602081526000611450602083018461554556fe360894a13ba1a3210667c828492db98dca3e2076cc3735a920a3ca505d382bbc416464726573733a206c6f772d6c6576656c2064656c65676174652063616c6c206661696c6564a2646970667358221220d7ba3dffdee35880f3f0cdc16c258e37fabd36b9052874b64d0ae9d1ae75685664736f6c63430008110033",
  "linkReferences": {},
  "deployedLinkReferences": {}
}