{
  "_format": "hh-sol-artifact-1",
  "contractName": "ReferralUpgradeable",
  "sourceName": "contracts/ReferralUpgradeable.sol",
  "abi": [
    {
      "anonymous": false,
      "inputs": [
        {
          "indexed": false,
          "internalType": "address",
          "name": "previousAdmin",
          "type": "address"
        },
        {
          "indexed": false,
          "internalType": "address",
          "name": "newAdmin",
          "type": "address"
        }
      ],
      "name": "AdminChanged",
      "type": "event"
    },
    {
      "anonymous": false,
      "inputs": [
        {
          "indexed": true,
          "internalType": "address",
          "name": "beacon",
          "type": "address"
        }
      ],
      "name": "BeaconUpgraded",
      "type": "event"
    },
    {
      "anonymous": false,
      "inputs": [
        {
          "indexed": true,
          "internalType": "address",
          "name": "userAddressaddress",
          "type": "address"
        }
      ],
      "name": "CoreMemberAdded",
      "type": "event"
    },
    {
      "anonymous": false,
      "inputs": [
        {
          "indexed": false,
          "internalType": "address",
          "name": "userAddress",
          "type": "address"
        }
      ],
      "name": "CoreMemberRemoved",
      "type": "event"
    },
    {
      "anonymous": false,
      "inputs": [
        {
          "indexed": true,
          "internalType": "uint256",
          "name": "value",
          "type": "uint256"
        },
        {
          "indexed": true,
          "internalType": "address",
          "name": "userAddress",
          "type": "address"
        }
      ],
      "name": "CoreMemberRewardPaid",
      "type": "event"
    },
    {
      "anonymous": false,
      "inputs": [
        {
          "indexed": false,
          "internalType": "address",
          "name": "userAddress",
          "type": "address"
        }
      ],
      "name": "GlobalAddressAdded",
      "type": "event"
    },
    {
      "anonymous": false,
      "inputs": [
        {
          "indexed": false,
          "internalType": "address",
          "name": "userAddress",
          "type": "address"
        }
      ],
      "name": "GlobalAddressRemoved",
      "type": "event"
    },
    {
      "anonymous": false,
      "inputs": [
        {
          "indexed": false,
          "internalType": "uint256",
          "name": "value",
          "type": "uint256"
        },
        {
          "indexed": false,
          "internalType": "address",
          "name": "userAddress",
          "type": "address"
        }
      ],
      "name": "GlobalRewardPaid",
      "type": "event"
    },
    {
      "anonymous": false,
      "inputs": [
        {
          "indexed": false,
          "internalType": "uint8",
          "name": "version",
          "type": "uint8"
        }
      ],
      "name": "Initialized",
      "type": "event"
    },
    {
      "anonymous": false,
      "inputs": [
        {
          "indexed": true,
          "internalType": "address",
          "name": "previousOwner",
          "type": "address"
        },
        {
          "indexed": true,
          "internalType": "address",
          "name": "newOwner",
          "type": "address"
        }
      ],
      "name": "OwnershipTransferred",
      "type": "event"
    },
    {
      "anonymous": false,
      "inputs": [
        {
          "indexed": true,
          "internalType": "uint256",
          "name": "value",
          "type": "uint256"
        },
        {
          "indexed": true,
          "internalType": "address",
          "name": "userAddress",
          "type": "address"
        }
      ],
      "name": "PassiveRewardPaid",
      "type": "event"
    },
    {
      "anonymous": false,
      "inputs": [
        {
          "indexed": false,
          "internalType": "address",
          "name": "account",
          "type": "address"
        }
      ],
      "name": "Paused",
      "type": "event"
    },
    {
      "anonymous": false,
      "inputs": [
        {
          "indexed": true,
          "internalType": "address",
          "name": "referee",
          "type": "address"
        },
        {
          "indexed": true,
          "internalType": "address",
          "name": "referrer",
          "type": "address"
        },
        {
          "indexed": true,
          "internalType": "uint256",
          "name": "amount",
          "type": "uint256"
        },
        {
          "indexed": false,
          "internalType": "uint256",
          "name": "level",
          "type": "uint256"
        },
        {
          "indexed": false,
          "internalType": "string",
          "name": "currency",
          "type": "string"
        }
      ],
      "name": "ReferralRewardPaid",
      "type": "event"
    },
    {
      "anonymous": false,
      "inputs": [
        {
          "indexed": true,
          "internalType": "address",
          "name": "referee",
          "type": "address"
        },
        {
          "indexed": true,
          "internalType": "address",
          "name": "referrer",
          "type": "address"
        },
        {
          "indexed": true,
          "internalType": "string",
          "name": "reason",
          "type": "string"
        }
      ],
      "name": "RegisterRefererFailed",
      "type": "event"
    },
    {
      "anonymous": false,
      "inputs": [
        {
          "indexed": true,
          "internalType": "address",
          "name": "referrer",
          "type": "address"
        },
        {
          "indexed": true,
          "internalType": "address",
          "name": "referee",
          "type": "address"
        }
      ],
      "name": "RegisteredReferer",
      "type": "event"
    },
    {
      "anonymous": false,
      "inputs": [
        {
          "indexed": true,
          "internalType": "address",
          "name": "parent",
          "type": "address"
        },
        {
          "indexed": true,
          "internalType": "address",
          "name": "referrer",
          "type": "address"
        },
        {
          "indexed": true,
          "internalType": "address",
          "name": "referee",
          "type": "address"
        }
      ],
      "name": "RegisteredTeamAddress",
      "type": "event"
    },
    {
      "anonymous": false,
      "inputs": [
        {
          "indexed": false,
          "internalType": "address",
          "name": "account",
          "type": "address"
        }
      ],
      "name": "Unpaused",
      "type": "event"
    },
    {
      "anonymous": false,
      "inputs": [
        {
          "indexed": true,
          "internalType": "address",
          "name": "implementation",
          "type": "address"
        }
      ],
      "name": "Upgraded",
      "type": "event"
    },
    {
      "inputs": [
        {
          "internalType": "address[]",
          "name": "_userAddress",
          "type": "address[]"
        },
        {
          "internalType": "address[]",
          "name": "_referrerAddress",
          "type": "address[]"
        }
      ],
      "name": "addReferrerAdmin",
      "outputs": [],
      "stateMutability": "nonpayable",
      "type": "function"
    },
    {
      "inputs": [],
      "name": "contractDefaults",
      "outputs": [
        {
          "internalType": "uint256",
          "name": "levelDecimals",
          "type": "uint256"
        },
        {
          "internalType": "uint256[]",
          "name": "levelRates",
          "type": "uint256[]"
        },
        {
          "internalType": "uint256",
          "name": "totalLevelRate",
          "type": "uint256"
        },
        {
          "internalType": "address",
          "name": "defaultReferrer",
          "type": "address"
        }
      ],
      "stateMutability": "view",
      "type": "function"
    },
    {
      "inputs": [
        {
          "internalType": "address",
          "name": "_address",
          "type": "address"
        }
      ],
      "name": "getUserAccount",
      "outputs": [
        {
          "components": [
            {
              "internalType": "address",
              "name": "referrer",
              "type": "address"
            },
            {
              "internalType": "address[]",
              "name": "referee",
              "type": "address[]"
            },
            {
              "internalType": "address[]",
              "name": "team",
              "type": "address[]"
            },
            {
              "internalType": "uint256",
              "name": "selfBusiness",
              "type": "uint256"
            },
            {
              "internalType": "uint256",
              "name": "directBusiness",
              "type": "uint256"
            },
            {
              "internalType": "uint256",
              "name": "totalBusiness",
              "type": "uint256"
            },
            {
              "internalType": "uint256[]",
              "name": "rewardsPaidReferral",
              "type": "uint256[]"
            },
            {
              "internalType": "uint256[]",
              "name": "rewardsPaidGlobal",
              "type": "uint256[]"
            },
            {
              "internalType": "uint256[]",
              "name": "rewardPaidPassive",
              "type": "uint256[]"
            },
            {
              "internalType": "bool",
              "name": "isInGlobalID",
              "type": "bool"
            },
            {
              "internalType": "uint256[]",
              "name": "blockNumbers",
              "type": "uint256[]"
            }
          ],
          "internalType": "struct ReferralUpgradeable.Account",
          "name": "userAccount",
          "type": "tuple"
        }
      ],
      "stateMutability": "view",
      "type": "function"
    },
    {
      "inputs": [
        {
          "internalType": "address",
          "name": "_address",
          "type": "address"
        }
      ],
      "name": "getUserReferrerAddress",
      "outputs": [
        {
          "internalType": "address",
          "name": "referrer",
          "type": "address"
        }
      ],
      "stateMutability": "view",
      "type": "function"
    },
    {
      "inputs": [
        {
          "internalType": "address",
          "name": "_address",
          "type": "address"
        }
      ],
      "name": "getUserTeam",
      "outputs": [
        {
          "internalType": "address[]",
          "name": "userReferee",
          "type": "address[]"
        },
        {
          "internalType": "uint256",
          "name": "userRefereeCount",
          "type": "uint256"
        },
        {
          "internalType": "address[]",
          "name": "userTeamAddress",
          "type": "address[]"
        },
        {
          "internalType": "uint256",
          "name": "userTeamCount",
          "type": "uint256"
        }
      ],
      "stateMutability": "view",
      "type": "function"
    },
    {
      "inputs": [
        {
          "internalType": "address",
          "name": "_address",
          "type": "address"
        }
      ],
      "name": "getUserTotalBusiness",
      "outputs": [
        {
          "internalType": "uint256",
          "name": "selfBusiness",
          "type": "uint256"
        },
        {
          "internalType": "uint256",
          "name": "directBusiness",
          "type": "uint256"
        },
        {
          "internalType": "uint256",
          "name": "refereeTeamBusiness",
          "type": "uint256"
        },
        {
          "internalType": "uint256",
          "name": "totalBusiness",
          "type": "uint256"
        }
      ],
      "stateMutability": "view",
      "type": "function"
    },
    {
      "inputs": [
        {
          "internalType": "address",
          "name": "_address",
          "type": "address"
        }
      ],
      "name": "getUserTotalRewardPaid",
      "outputs": [
        {
          "internalType": "uint256",
          "name": "rewardsAUSD",
          "type": "uint256"
        },
        {
          "internalType": "uint256",
          "name": "rewardsGlobal",
          "type": "uint256"
        },
        {
          "internalType": "uint256",
          "name": "rewardsPassive",
          "type": "uint256"
        }
      ],
      "stateMutability": "view",
      "type": "function"
    },
    {
      "inputs": [
        {
          "internalType": "address",
          "name": "_address",
          "type": "address"
        }
      ],
      "name": "hasReferrer",
      "outputs": [
        {
          "internalType": "bool",
          "name": "",
          "type": "bool"
        }
      ],
      "stateMutability": "view",
      "type": "function"
    },
    {
      "inputs": [],
      "name": "initialize",
      "outputs": [],
      "stateMutability": "nonpayable",
      "type": "function"
    },
    {
      "inputs": [],
      "name": "owner",
      "outputs": [
        {
          "internalType": "address",
          "name": "",
          "type": "address"
        }
      ],
      "stateMutability": "view",
      "type": "function"
    },
    {
      "inputs": [],
      "name": "pause",
      "outputs": [],
      "stateMutability": "nonpayable",
      "type": "function"
    },
    {
      "inputs": [],
      "name": "paused",
      "outputs": [
        {
          "internalType": "bool",
          "name": "",
          "type": "bool"
        }
      ],
      "stateMutability": "view",
      "type": "function"
    },
    {
      "inputs": [
        {
          "internalType": "uint256",
          "name": "_value",
          "type": "uint256"
        },
        {
          "internalType": "address",
          "name": "_userAddress",
          "type": "address"
        },
        {
          "internalType": "address",
          "name": "_referrerAddress",
          "type": "address"
        }
      ],
      "name": "payReferralANUSDAdmin",
      "outputs": [],
      "stateMutability": "nonpayable",
      "type": "function"
    },
    {
      "inputs": [],
      "name": "proxiableUUID",
      "outputs": [
        {
          "internalType": "bytes32",
          "name": "",
          "type": "bytes32"
        }
      ],
      "stateMutability": "view",
      "type": "function"
    },
    {
      "inputs": [],
      "name": "renounceOwnership",
      "outputs": [],
      "stateMutability": "nonpayable",
      "type": "function"
    },
    {
      "inputs": [
        {
          "internalType": "address payable",
          "name": "_address",
          "type": "address"
        }
      ],
      "name": "setDefaultReferrer",
      "outputs": [],
      "stateMutability": "nonpayable",
      "type": "function"
    },
    {
      "inputs": [
        {
          "internalType": "uint256",
          "name": "_value",
          "type": "uint256"
        }
      ],
      "name": "setLevelDecimals",
      "outputs": [
        {
          "internalType": "bool",
          "name": "",
          "type": "bool"
        }
      ],
      "stateMutability": "nonpayable",
      "type": "function"
    },
    {
      "inputs": [
        {
          "internalType": "uint256[]",
          "name": "_valueInArray",
          "type": "uint256[]"
        }
      ],
      "name": "setLevelRates",
      "outputs": [],
      "stateMutability": "nonpayable",
      "type": "function"
    },
    {
      "inputs": [
        {
          "internalType": "address",
          "name": "_address",
          "type": "address"
        },
        {
          "internalType": "uint256",
          "name": "_value",
          "type": "uint256"
        }
      ],
      "name": "transferNative",
      "outputs": [],
      "stateMutability": "nonpayable",
      "type": "function"
    },
    {
      "inputs": [
        {
          "internalType": "address",
          "name": "newOwner",
          "type": "address"
        }
      ],
      "name": "transferOwnership",
      "outputs": [],
      "stateMutability": "nonpayable",
      "type": "function"
    },
    {
      "inputs": [],
      "name": "unpause",
      "outputs": [],
      "stateMutability": "nonpayable",
      "type": "function"
    },
    {
      "inputs": [
        {
          "internalType": "address",
          "name": "newImplementation",
          "type": "address"
        }
      ],
      "name": "upgradeTo",
      "outputs": [],
      "stateMutability": "nonpayable",
      "type": "function"
    },
    {
      "inputs": [
        {
          "internalType": "address",
          "name": "newImplementation",
          "type": "address"
        },
        {
          "internalType": "bytes",
          "name": "data",
          "type": "bytes"
        }
      ],
      "name": "upgradeToAndCall",
      "outputs": [],
      "stateMutability": "payable",
      "type": "function"
    },
    {
      "inputs": [
        {
          "internalType": "address",
          "name": "_address",
          "type": "address"
        }
      ],
      "name": "userTransactionsBlocks",
      "outputs": [
        {
          "internalType": "uint256[]",
          "name": "",
          "type": "uint256[]"
        }
      ],
      "stateMutability": "view",
      "type": "function"
    },
    {
      "inputs": [],
      "name": "withdrawNative",
      "outputs": [],
      "stateMutability": "nonpayable",
      "type": "function"
    },
    {
      "inputs": [
        {
          "internalType": "address",
          "name": "_tokenAddress",
          "type": "address"
        },
        {
          "internalType": "uint256",
          "name": "_value",
          "type": "uint256"
        }
      ],
      "name": "withdrawtokens",
      "outputs": [],
      "stateMutability": "nonpayable",
      "type": "function"
    },
    {
      "stateMutability": "payable",
      "type": "receive"
    }
  ],
  "bytecode": "0x60a06040523060805234801561001457600080fd5b5060805161352d61004c60003960008181610db601528181610df601528181610ea701528181610ee70152610fae015261352d6000f3fe6080604052600436106101855760003560e01c80637393402e116100d1578063cfbdb8591161008a578063f2fde38b11610064578063f2fde38b14610497578063faeda7e5146104b7578063fb47e016146104e7578063fb5d45261461051457600080fd5b8063cfbdb8591461041c578063dcf6e8191461043c578063ef519dc01461045c57600080fd5b80637393402e146103675780637d2e90c2146103945780638129fc1c146103b45780638456cb59146103c95780638da5cb5b146103de5780638f3ddc9f146103fc57600080fd5b80633f4ba83a1161013e57806350431ce41161011857806350431ce41461030257806352d1902d146103175780635c975abb1461033a578063715018a61461035257600080fd5b80633f4ba83a1461028857806343b4ebf41461029d5780634f1ef286146102ef57600080fd5b806318452cd814610191578063228159b4146101c65780632405091c146101e8578063277bb90014610228578063345b5b85146102485780633659cfe61461026857600080fd5b3661018c57005b600080fd5b34801561019d57600080fd5b506101b16101ac366004612db5565b610539565b60405190151581526020015b60405180910390f35b3480156101d257600080fd5b506101e66101e1366004612dd2565b610560565b005b3480156101f457600080fd5b50610208610203366004612db5565b610735565b6040805194855260208501939093529183015260608201526080016101bd565b34801561023457600080fd5b506101e6610243366004612e14565b610d1a565b34801561025457600080fd5b506101e6610263366004612e8c565b610d98565b34801561027457600080fd5b506101e6610283366004612db5565b610dac565b34801561029457600080fd5b506101e6610e8b565b3480156102a957600080fd5b506102d76102b8366004612db5565b6001600160a01b03908116600090815261010960205260409020541690565b6040516001600160a01b0390911681526020016101bd565b6101e66102fd366004612ee4565b610e9d565b34801561030e57600080fd5b506101e6610f6d565b34801561032357600080fd5b5061032c610fa1565b6040519081526020016101bd565b34801561034657600080fd5b5060335460ff166101b1565b34801561035e57600080fd5b506101e6611054565b34801561037357600080fd5b50610387610382366004612db5565b611066565b6040516101bd9190612fe3565b3480156103a057600080fd5b506101e66103af366004612e14565b6110d9565b3480156103c057600080fd5b506101e6611117565b3480156103d557600080fd5b506101e66112fd565b3480156103ea57600080fd5b506065546001600160a01b03166102d7565b34801561040857600080fd5b506101e6610417366004612ff6565b61130d565b34801561042857600080fd5b506101b1610437366004613062565b61143e565b34801561044857600080fd5b506101e6610457366004612db5565b611451565b34801561046857600080fd5b5061047c610477366004612db5565b61147c565b604080519384526020840192909252908201526060016101bd565b3480156104a357600080fd5b506101e66104b2366004612db5565b611597565b3480156104c357600080fd5b506104d76104d2366004612db5565b61160d565b6040516101bd94939291906130b4565b3480156104f357600080fd5b50610507610502366004612db5565b6116fa565b6040516101bd91906130f1565b34801561052057600080fd5b506105296119e3565b6040516101bd94939291906131fc565b6001600160a01b038082166000908152610109602052604081205490911615155b92915050565b336105736065546001600160a01b031690565b6001600160a01b0316816001600160a01b03161480610619575060fb60009054906101000a90046001600160a01b03166001600160a01b03166363d9df856040518163ffffffff1660e01b8152600401602060405180830381865afa1580156105e0573d6000803e3d6000fd5b505050506040513d601f19601f820116820180604052508101906106049190613236565b6001600160a01b0316816001600160a01b0316145b6106755760405162461bcd60e51b815260206004820152602260248201527f4f6e6c79206f776e65722063616e2063616c6c20746869732066756e6374696f604482015261371760f11b60648201526084015b60405180910390fd5b6001600160a01b0383811660009081526101096020526040902054161580156106a657506001600160a01b03821615155b156106bf576106b58383611aaa565b6106bf8383611bc4565b6001600160a01b0382811660009081526101096020526040902054161580156106f057506001600160a01b03821615155b15610725576101005461070d9083906001600160a01b0316611aaa565b610100546107259083906001600160a01b0316611bc4565b61072f8484611c78565b50505050565b6001600160a01b0381166000908152610109602052604081206001810154600382015492918291829190825b81811015610a33576000610109600085600101848154811061078557610785613253565b60009182526020808320909101546001600160a01b0390811684528382019490945260409283019091208251610160810184528154909416845260018101805484518185028101850190955280855291938584019390929083018282801561081657602002820191906000526020600020905b81546001600160a01b031681526001909101906020018083116107f8575b505050505081526020016002820180548060200260200160405190810160405280929190818152602001828054801561087857602002820191906000526020600020905b81546001600160a01b0316815260019091019060200180831161085a575b50505050508152602001600382015481526020016004820154815260200160058201548152602001600682018054806020026020016040519081016040528092919081815260200182805480156108ee57602002820191906000526020600020905b8154815260200190600101908083116108da575b505050505081526020016007820180548060200260200160405190810160405280929190818152602001828054801561094657602002820191906000526020600020905b815481526020019060010190808311610932575b505050505081526020016008820180548060200260200160405190810160405280929190818152602001828054801561099e57602002820191906000526020600020905b81548152602001906001019080831161098a575b5050509183525050600982015460ff161515602080830191909152600a830180546040805182850281018501825282815294019392830182828015610a0257602002820191906000526020600020905b8154815260200190600101908083116109ee575b5050505050815250509050806060015187610a1d919061327f565b9650508080610a2b90613292565b915050610761565b5060005b81811015610d095760006101096000856001018481548110610a5b57610a5b613253565b60009182526020808320909101546001600160a01b03908116845283820194909452604092830190912082516101608101845281549094168452600181018054845181850281018501909552808552919385840193909290830182828015610aec57602002820191906000526020600020905b81546001600160a01b03168152600190910190602001808311610ace575b5050505050815260200160028201805480602002602001604051908101604052809291908181526020018280548015610b4e57602002820191906000526020600020905b81546001600160a01b03168152600190910190602001808311610b30575b5050505050815260200160038201548152602001600482015481526020016005820154815260200160068201805480602002602001604051908101604052809291908181526020018280548015610bc457602002820191906000526020600020905b815481526020019060010190808311610bb0575b5050505050815260200160078201805480602002602001604051908101604052809291908181526020018280548015610c1c57602002820191906000526020600020905b815481526020019060010190808311610c08575b5050505050815260200160088201805480602002602001604051908101604052809291908181526020018280548015610c7457602002820191906000526020600020905b815481526020019060010190808311610c60575b5050509183525050600982015460ff161515602080830191909152600a830180546040805182850281018501825282815294019392830182828015610cd857602002820191906000526020600020905b815481526020019060010190808311610cc4575b50505050508152505090508060a0015186610cf3919061327f565b9550508080610d0190613292565b915050610a37565b508160050154925050509193509193565b610d2261269c565b60405163a9059cbb60e01b8152336004820152602481018290526001600160a01b0383169063a9059cbb906044016020604051808303816000875af1158015610d6f573d6000803e3d6000fd5b505050506040513d601f19601f82011682018060405250810190610d9391906132ab565b505050565b610da061269c565b610d9360fc8383612d00565b6001600160a01b037f0000000000000000000000000000000000000000000000000000000000000000163003610df45760405162461bcd60e51b815260040161066c906132cd565b7f00000000000000000000000000000000000000000000000000000000000000006001600160a01b0316610e3d6000805160206134b1833981519152546001600160a01b031690565b6001600160a01b031614610e635760405162461bcd60e51b815260040161066c90613319565b610e6c816126f6565b60408051600080825260208201909252610e88918391906126fe565b50565b610e9361269c565b610e9b612869565b565b6001600160a01b037f0000000000000000000000000000000000000000000000000000000000000000163003610ee55760405162461bcd60e51b815260040161066c906132cd565b7f00000000000000000000000000000000000000000000000000000000000000006001600160a01b0316610f2e6000805160206134b1833981519152546001600160a01b031690565b6001600160a01b031614610f545760405162461bcd60e51b815260040161066c90613319565b610f5d826126f6565b610f69828260016126fe565b5050565b610f7561269c565b60405133904780156108fc02916000818181858888f19350505050158015610e88573d6000803e3d6000fd5b6000306001600160a01b037f000000000000000000000000000000000000000000000000000000000000000016146110415760405162461bcd60e51b815260206004820152603860248201527f555550535570677261646561626c653a206d757374206e6f742062652063616c60448201527f6c6564207468726f7567682064656c656761746563616c6c0000000000000000606482015260840161066c565b506000805160206134b183398151915290565b61105c61269c565b610e9b60006128bb565b6001600160a01b03811660009081526101096020908152604091829020600a8101805484518185028101850190955280855260609492938301828280156110cc57602002820191906000526020600020905b8154815260200190600101908083116110b8575b5050505050915050919050565b6110e161269c565b6040516001600160a01b0383169082156108fc029083906000818181858888f19350505050158015610d93573d6000803e3d6000fd5b600054610100900460ff16158080156111375750600054600160ff909116105b806111515750303b158015611151575060005460ff166001145b6111b45760405162461bcd60e51b815260206004820152602e60248201527f496e697469616c697a61626c653a20636f6e747261637420697320616c72656160448201526d191e481a5b9a5d1a585b1a5e995960921b606482015260840161066c565b6000805460ff1916600117905580156111d7576000805461ff0019166101001790555b60fb80546001600160a01b031990811673be5153baa3756402b08fd830e7b5f00a76e6823117909155610100805490911673435f95425891a92a8fc798c440bf8e9f74cdeec31790556040805160e0810182526007808252600460208301526003928201929092526002606082015260016080820181905260a0820181905260c08201526112689160fc9190612d4b565b50606460fd5560146101065569011478b7c30abc3000006101035560046101015560056101045568a80d24677efef00000610105556112a561290d565b6112ad61293c565b6112b561296b565b8015610e88576000805461ff0019169055604051600181527f7f26b83ff96e1f2b6a682f133852f6798a09c465da95921460cefb38474024989060200160405180910390a150565b61130561269c565b610e9b612992565b61131561269c565b82811461136e5760405162461bcd60e51b815260206004820152602160248201527f4c656e677468206973206e6f7420657175616c20706c6561736520636865636b6044820152601760f91b606482015260840161066c565b60005b83811015611437576113cf85858381811061138e5761138e613253565b90506020020160208101906113a39190612db5565b8484848181106113b5576113b5613253565b90506020020160208101906113ca9190612db5565b611aaa565b6114258585838181106113e4576113e4613253565b90506020020160208101906113f99190612db5565b84848481811061140b5761140b613253565b90506020020160208101906114209190612db5565b611bc4565b8061142f81613292565b915050611371565b5050505050565b600061144861269c565b5060fd55600190565b61145961269c565b61010080546001600160a01b0319166001600160a01b0392909216919091179055565b6001600160a01b0381166000908152610109602052604081206006810154600782015460088301548493849390929091845b838110156114f5578460060181815481106114cb576114cb613253565b9060005260206000200154886114e1919061327f565b9750806114ed81613292565b9150506114ae565b5060005b828110156115405784600701818154811061151657611516613253565b90600052602060002001548761152c919061327f565b96508061153881613292565b9150506114f9565b5060005b8181101561158b5784600801818154811061156157611561613253565b906000526020600020015486611577919061327f565b95508061158381613292565b915050611544565b50505050509193909250565b61159f61269c565b6001600160a01b0381166116045760405162461bcd60e51b815260206004820152602660248201527f4f776e61626c653a206e6577206f776e657220697320746865207a65726f206160448201526564647265737360d01b606482015260840161066c565b610e88816128bb565b6001600160a01b0381166000908152610109602090815260408083206001810180548351818602810186019094528084526060959486948694939092909183018282801561168457602002820191906000526020600020905b81546001600160a01b03168152600190910190602001808311611666575b5050505050945084519350806002018054806020026020016040519081016040528092919081815260200182805480156116e757602002820191906000526020600020905b81546001600160a01b031681526001909101906020018083116116c9575b5050505050925082519150509193509193565b61176260405180610160016040528060006001600160a01b031681526020016060815260200160608152602001600081526020016000815260200160008152602001606081526020016060815260200160608152602001600015158152602001606081525090565b6001600160a01b0380831660009081526101096020908152604091829020825161016081018452815490941684526001810180548451818502810185019095528085529193858401939092908301828280156117e757602002820191906000526020600020905b81546001600160a01b031681526001909101906020018083116117c9575b505050505081526020016002820180548060200260200160405190810160405280929190818152602001828054801561184957602002820191906000526020600020905b81546001600160a01b0316815260019091019060200180831161182b575b50505050508152602001600382015481526020016004820154815260200160058201548152602001600682018054806020026020016040519081016040528092919081815260200182805480156118bf57602002820191906000526020600020905b8154815260200190600101908083116118ab575b505050505081526020016007820180548060200260200160405190810160405280929190818152602001828054801561191757602002820191906000526020600020905b815481526020019060010190808311611903575b505050505081526020016008820180548060200260200160405190810160405280929190818152602001828054801561196f57602002820191906000526020600020905b81548152602001906001019080831161195b575b5050509183525050600982015460ff161515602080830191909152600a8301805460408051828502810185018252828152940193928301828280156119d357602002820191906000526020600020905b8154815260200190600101908083116119bf575b5050505050815250509050919050565b60fd5460fc8054604080516020808402820181019092528281526060936000938493830182828015611a3457602002820191906000526020600020905b815481526020019060010190808311611a20575b505060fc549396506000925050505b818160ff161015611a8e5760fc8160ff1681548110611a6457611a64613253565b906000526020600020015484611a7a919061327f565b935080611a8681613365565b915050611a43565b5050610100549394929391926001600160a01b03909216919050565b6001600160a01b03828116600090815261010960205260409020541615611b3d576040517f4164647265737320616c726561647920686176652072656665727265722e00008152601e016040518091039020816001600160a01b0316836001600160a01b03167f3a1a86984713a4f9021513989fe0334430012901d62639108f2a816c111a732f60405160405180910390a45b6001600160a01b0380831660008181526101096020908152604080832094861680845281842086546001600160a01b031990811683178855600180830180549182018155875294862090940180549094168617909355905191939290917ffaf63637882ff2d63ca76881cf92fb857130e36f350c926f9cc884b499b42b779190a350505050565b60fc54819060005b81811015611437576001600160a01b03831615611437576001600160a01b0383811660008181526101096020908152604080832060028101805460018101825590855292842090920180546001600160a01b0319168b87169081179091559051919490939089169290917fb766b19465b3277b0b275adf79d715cac93166bf6e6a39f26e4ccfdec76ad47e9190a4546001600160a01b0316925080611c7081613292565b915050611bcc565b60fb5460fc8054604080516020808402820181019092528281526001600160a01b039094169360009390929091830182828015611cd457602002820191906000526020600020905b815481526020019060010190808311611cc0575b5050506001600160a01b0386166000908152610109602052604081206003810180549596509094899450909250611d0c90849061327f565b90915550506101065460009067ffffffffffffffff811115611d3057611d30612ece565b604051908082528060200260200182016040528015611d59578160200160208202803683370190505b509050600080610107805480602002602001604051908101604052809291908181526020018280548015611db657602002820191906000526020600020905b81546001600160a01b03168152600190910190602001808311611d98575b505050505090506000815190506000805b610106548110156120fc5786546001600160a01b031660008181526101096020526040902081611df85750506120fc565b895183101561209e57600060648b8581518110611e1757611e17613253565b60200260200101518f611e2a9190613384565b611e3491906133b1565b905083600003611e58578d826004016000828254611e52919061327f565b90915550505b8d826005016000828254611e6c919061327f565b90915550506006820180546001818101835560009283526020808420909201849055600a8501805491820181558352912043910155611eab818661327f565b94508b6001600160a01b031663b70cc4c16040518163ffffffff1660e01b8152600401602060405180830381865afa158015611eeb573d6000803e3d6000fd5b505050506040513d601f19601f82011682018060405250810190611f0f9190613236565b60405163a9059cbb60e01b81526001600160a01b03858116600483015260248201849052919091169063a9059cbb906044016020604051808303816000875af1158015611f60573d6000803e3d6000fd5b505050506040513d601f19601f82011682018060405250810190611f8491906132ab565b50806001600160a01b03808516908f167f197a0a2b0fbff3fc4f7f4d32597585aa8415fcc4c5dd6634336ec65904529c83611fc088600161327f565b60408051918252602082018190526005908201526410539554d160da1b606082015260800160405180910390a4600982015460ff1661209c57610103548260040154111561209c576101028054600180820183556000929092527f93bdaa6a4190909b7c3fbe8d42169ffe1cab19f51dfc8db24c71abf849eced4a0180546001600160a01b0319166001600160a01b03861690811790915560098401805460ff19169092179091556040519081527facc63915cb028aeaee9996abc0f864fc0559a2f955750aa97d6ef9f51014acfb9060200160405180910390a15b505b61010554816004015411156120e657818888815181106120c0576120c0613253565b6001600160a01b0390921660209283029190910190910152866120e281613292565b9750505b97508190506120f481613292565b915050611dc7565b5083156122f9576000846064610104548d6121179190613384565b61212191906133b1565b61212b91906133b1565b905060005b858110156122f6576000610109600089848151811061215157612151613253565b60200260200101516001600160a01b03166001600160a01b0316815260200190815260200160002090508a6001600160a01b031663b70cc4c16040518163ffffffff1660e01b8152600401602060405180830381865afa1580156121b9573d6000803e3d6000fd5b505050506040513d601f19601f820116820180604052508101906121dd9190613236565b6001600160a01b031663a9059cbb8984815181106121fd576121fd613253565b6020026020010151856040518363ffffffff1660e01b81526004016122379291906001600160a01b03929092168252602082015260400190565b6020604051808303816000875af1158015612256573d6000803e3d6000fd5b505050506040513d601f19601f8201168201806040525081019061227a91906132ab565b5087828151811061228d5761228d613253565b60200260200101516001600160a01b0316837f62f12b06523c734cca73aa1502a5f967c8e09d0a2f084fd36acbac47f54b0d4e60405160405180910390a360080180546001810182556000918252602090912001829055806122ee81613292565b915050612130565b50505b61010254156124d95760006064610101548c6123159190613384565b61231f91906133b1565b610102546040805142602082015244918101919091529192506000916060016040516020818303038152906040528051906020012060001c61236191906133c5565b90506000610102828154811061237957612379613253565b60009182526020808320909101546001600160a01b039081168084526101098352604093849020845163b70cc4c160e01b8152945191955093918f169263b70cc4c192600480820193918290030181865afa1580156123dc573d6000803e3d6000fd5b505050506040513d601f19601f820116820180604052508101906124009190613236565b60405163a9059cbb60e01b81526001600160a01b03848116600483015260248201879052919091169063a9059cbb906044016020604051808303816000875af1158015612451573d6000803e3d6000fd5b505050506040513d601f19601f8201168201806040525081019061247591906132ab565b50600781018054600181018255600091825260209182902001859055604080518681526001600160a01b038516928101929092527f51e673ac98f0ea063ce27eb5af807d22b97cd11cd79380cf1f711ad80948046c910160405180910390a1505050505b8115612679576000826064610108548d6124f39190613384565b6124fd91906133b1565b61250791906133b1565b905060005b8381101561267657896001600160a01b031663b70cc4c16040518163ffffffff1660e01b8152600401602060405180830381865afa158015612552573d6000803e3d6000fd5b505050506040513d601f19601f820116820180604052508101906125769190613236565b6001600160a01b031663a9059cbb86838151811061259657612596613253565b6020026020010151846040518363ffffffff1660e01b81526004016125d09291906001600160a01b03929092168252602082015260400190565b6020604051808303816000875af11580156125ef573d6000803e3d6000fd5b505050506040513d601f19601f8201168201806040525081019061261391906132ab565b5084818151811061262657612626613253565b60200260200101516001600160a01b0316827f6d550262135215fe2f5ef9b6fad45db8cf51267248f8b95e069f8025f6f9049a60405160405180910390a38061266e81613292565b91505061250c565b50505b8060ff600082825461268b919061327f565b909155505050505050505050505050565b6065546001600160a01b03163314610e9b5760405162461bcd60e51b815260206004820181905260248201527f4f776e61626c653a2063616c6c6572206973206e6f7420746865206f776e6572604482015260640161066c565b610e8861269c565b7f4910fdfa16fed3260ed0e7147f7cc6da11a60208b5b9406d12a635614ffd91435460ff161561273157610d93836129cf565b826001600160a01b03166352d1902d6040518163ffffffff1660e01b8152600401602060405180830381865afa92505050801561278b575060408051601f3d908101601f19168201909252612788918101906133d9565b60015b6127ee5760405162461bcd60e51b815260206004820152602e60248201527f45524331393637557067726164653a206e657720696d706c656d656e7461746960448201526d6f6e206973206e6f74205555505360901b606482015260840161066c565b6000805160206134b1833981519152811461285d5760405162461bcd60e51b815260206004820152602960248201527f45524331393637557067726164653a20756e737570706f727465642070726f786044820152681a58589b195555525160ba1b606482015260840161066c565b50610d93838383612a6b565b612871612a90565b6033805460ff191690557f5db9ee0a495bf2e6ff9c91a7834c1ba4fdd244a5e8aa4e537bd38aeae4b073aa335b6040516001600160a01b03909116815260200160405180910390a1565b606580546001600160a01b038381166001600160a01b0319831681179093556040519116919082907f8be0079c531659141344cd1fd0a4f28419497f9722a3daafe3b4186f6b6457e090600090a35050565b600054610100900460ff166129345760405162461bcd60e51b815260040161066c906133f2565b610e9b612ad9565b600054610100900460ff166129635760405162461bcd60e51b815260040161066c906133f2565b610e9b612b0c565b600054610100900460ff16610e9b5760405162461bcd60e51b815260040161066c906133f2565b61299a612b3c565b6033805460ff191660011790557f62e78cea01bee320cd4e420270b5ea74000d11b0c9f74754ebdbfc544b05a25861289e3390565b6001600160a01b0381163b612a3c5760405162461bcd60e51b815260206004820152602d60248201527f455243313936373a206e657720696d706c656d656e746174696f6e206973206e60448201526c1bdd08184818dbdb9d1c9858dd609a1b606482015260840161066c565b6000805160206134b183398151915280546001600160a01b0319166001600160a01b0392909216919091179055565b612a7483612b82565b600082511180612a815750805b15610d935761072f8383612bc2565b60335460ff16610e9b5760405162461bcd60e51b815260206004820152601460248201527314185d5cd8589b194e881b9bdd081c185d5cd95960621b604482015260640161066c565b600054610100900460ff16612b005760405162461bcd60e51b815260040161066c906133f2565b6033805460ff19169055565b600054610100900460ff16612b335760405162461bcd60e51b815260040161066c906133f2565b610e9b336128bb565b60335460ff1615610e9b5760405162461bcd60e51b815260206004820152601060248201526f14185d5cd8589b194e881c185d5cd95960821b604482015260640161066c565b612b8b816129cf565b6040516001600160a01b038216907fbc7cd75a20ee27fd9adebab32041f755214dbc6bffa90cc0225b39da2e5c2d3b90600090a250565b60606001600160a01b0383163b612c2a5760405162461bcd60e51b815260206004820152602660248201527f416464726573733a2064656c65676174652063616c6c20746f206e6f6e2d636f6044820152651b9d1c9858dd60d21b606482015260840161066c565b600080846001600160a01b031684604051612c459190613461565b600060405180830381855af49150503d8060008114612c80576040519150601f19603f3d011682016040523d82523d6000602084013e612c85565b606091505b5091509150612cad82826040518060600160405280602781526020016134d160279139612cb6565b95945050505050565b60608315612cc5575081612ccf565b612ccf8383612cd6565b9392505050565b815115612ce65781518083602001fd5b8060405162461bcd60e51b815260040161066c919061347d565b828054828255906000526020600020908101928215612d3b579160200282015b82811115612d3b578235825591602001919060010190612d20565b50612d47929150612d8b565b5090565b828054828255906000526020600020908101928215612d3b579160200282015b82811115612d3b578251829060ff16905591602001919060010190612d6b565b5b80821115612d475760008155600101612d8c565b6001600160a01b0381168114610e8857600080fd5b600060208284031215612dc757600080fd5b8135612ccf81612da0565b600080600060608486031215612de757600080fd5b833592506020840135612df981612da0565b91506040840135612e0981612da0565b809150509250925092565b60008060408385031215612e2757600080fd5b8235612e3281612da0565b946020939093013593505050565b60008083601f840112612e5257600080fd5b50813567ffffffffffffffff811115612e6a57600080fd5b6020830191508360208260051b8501011115612e8557600080fd5b9250929050565b60008060208385031215612e9f57600080fd5b823567ffffffffffffffff811115612eb657600080fd5b612ec285828601612e40565b90969095509350505050565b634e487b7160e01b600052604160045260246000fd5b60008060408385031215612ef757600080fd5b8235612f0281612da0565b9150602083013567ffffffffffffffff80821115612f1f57600080fd5b818501915085601f830112612f3357600080fd5b813581811115612f4557612f45612ece565b604051601f8201601f19908116603f01168101908382118183101715612f6d57612f6d612ece565b81604052828152886020848701011115612f8657600080fd5b8260208601602083013760006020848301015280955050505050509250929050565b600081518084526020808501945080840160005b83811015612fd857815187529582019590820190600101612fbc565b509495945050505050565b602081526000612ccf6020830184612fa8565b6000806000806040858703121561300c57600080fd5b843567ffffffffffffffff8082111561302457600080fd5b61303088838901612e40565b9096509450602087013591508082111561304957600080fd5b5061305687828801612e40565b95989497509550505050565b60006020828403121561307457600080fd5b5035919050565b600081518084526020808501945080840160005b83811015612fd85781516001600160a01b03168752958201959082019060010161308f565b6080815260006130c7608083018761307b565b85602084015282810360408401526130df818661307b565b91505082606083015295945050505050565b6020815261310b6020820183516001600160a01b03169052565b6000602083015161016080604085015261312961018085018361307b565b91506040850151601f1980868503016060870152613147848361307b565b935060608701516080870152608087015160a087015260a087015160c087015260c08701519150808685030160e08701526131828483612fa8565b935060e087015191506101008187860301818801526131a18584612fa8565b9450808801519250506101208187860301818801526131c08584612fa8565b9450808801519250506101406131d98188018415159052565b8701518685039091018387015290506131f28382612fa8565b9695505050505050565b8481526080602082015260006132156080830186612fa8565b6040830194909452506001600160a01b039190911660609091015292915050565b60006020828403121561324857600080fd5b8151612ccf81612da0565b634e487b7160e01b600052603260045260246000fd5b634e487b7160e01b600052601160045260246000fd5b8082018082111561055a5761055a613269565b6000600182016132a4576132a4613269565b5060010190565b6000602082840312156132bd57600080fd5b81518015158114612ccf57600080fd5b6020808252602c908201527f46756e6374696f6e206d7573742062652063616c6c6564207468726f7567682060408201526b19195b1959d85d1958d85b1b60a21b606082015260800190565b6020808252602c908201527f46756e6374696f6e206d7573742062652063616c6c6564207468726f7567682060408201526b6163746976652070726f787960a01b606082015260800190565b600060ff821660ff810361337b5761337b613269565b60010192915050565b808202811582820484141761055a5761055a613269565b634e487b7160e01b600052601260045260246000fd5b6000826133c0576133c061339b565b500490565b6000826133d4576133d461339b565b500690565b6000602082840312156133eb57600080fd5b5051919050565b6020808252602b908201527f496e697469616c697a61626c653a20636f6e7472616374206973206e6f74206960408201526a6e697469616c697a696e6760a81b606082015260800190565b60005b83811015613458578181015183820152602001613440565b50506000910152565b6000825161347381846020870161343d565b9190910192915050565b602081526000825180602084015261349c81604085016020870161343d565b601f01601f1916919091016040019291505056fe360894a13ba1a3210667c828492db98dca3e2076cc3735a920a3ca505d382bbc416464726573733a206c6f772d6c6576656c2064656c65676174652063616c6c206661696c6564a2646970667358221220b9fec9edecb02d7494beefc54dfe3ccb8d00ed50332732ca7274f4e4cb84b48064736f6c63430008110033",
  "linkReferences": {},
  "deployedLinkReferences": {}
}