{
  "_format": "hh-sol-artifact-1",
  "contractName": "ReferralUpgradeable",
  "sourceName": "contracts/ReferralUpgradeable.sol",
  "abi": [
    {
      "anonymous": false,
      "inputs": [
        {
          "indexed": false,
          "internalType": "address",
          "name": "previousAdmin",
          "type": "address"
        },
        {
          "indexed": false,
          "internalType": "address",
          "name": "newAdmin",
          "type": "address"
        }
      ],
      "name": "AdminChanged",
      "type": "event"
    },
    {
      "anonymous": false,
      "inputs": [
        {
          "indexed": true,
          "internalType": "address",
          "name": "beacon",
          "type": "address"
        }
      ],
      "name": "BeaconUpgraded",
      "type": "event"
    },
    {
      "anonymous": false,
      "inputs": [
        {
          "indexed": true,
          "internalType": "address",
          "name": "userAddressaddress",
          "type": "address"
        }
      ],
      "name": "CoreMemberAdded",
      "type": "event"
    },
    {
      "anonymous": false,
      "inputs": [
        {
          "indexed": false,
          "internalType": "address",
          "name": "userAddress",
          "type": "address"
        }
      ],
      "name": "CoreMemberRemoved",
      "type": "event"
    },
    {
      "anonymous": false,
      "inputs": [
        {
          "indexed": true,
          "internalType": "uint256",
          "name": "value",
          "type": "uint256"
        },
        {
          "indexed": true,
          "internalType": "address",
          "name": "userAddress",
          "type": "address"
        }
      ],
      "name": "CoreMemberRewardPaid",
      "type": "event"
    },
    {
      "anonymous": false,
      "inputs": [
        {
          "indexed": false,
          "internalType": "address",
          "name": "userAddress",
          "type": "address"
        }
      ],
      "name": "GlobalAddressAdded",
      "type": "event"
    },
    {
      "anonymous": false,
      "inputs": [
        {
          "indexed": false,
          "internalType": "address",
          "name": "userAddress",
          "type": "address"
        }
      ],
      "name": "GlobalAddressRemoved",
      "type": "event"
    },
    {
      "anonymous": false,
      "inputs": [
        {
          "indexed": false,
          "internalType": "uint256",
          "name": "value",
          "type": "uint256"
        },
        {
          "indexed": false,
          "internalType": "address",
          "name": "userAddress",
          "type": "address"
        }
      ],
      "name": "GlobalRewardPaid",
      "type": "event"
    },
    {
      "anonymous": false,
      "inputs": [
        {
          "indexed": false,
          "internalType": "uint8",
          "name": "version",
          "type": "uint8"
        }
      ],
      "name": "Initialized",
      "type": "event"
    },
    {
      "anonymous": false,
      "inputs": [
        {
          "indexed": true,
          "internalType": "address",
          "name": "previousOwner",
          "type": "address"
        },
        {
          "indexed": true,
          "internalType": "address",
          "name": "newOwner",
          "type": "address"
        }
      ],
      "name": "OwnershipTransferred",
      "type": "event"
    },
    {
      "anonymous": false,
      "inputs": [
        {
          "indexed": true,
          "internalType": "uint256",
          "name": "value",
          "type": "uint256"
        },
        {
          "indexed": true,
          "internalType": "address",
          "name": "userAddress",
          "type": "address"
        }
      ],
      "name": "PassiveRewardPaid",
      "type": "event"
    },
    {
      "anonymous": false,
      "inputs": [
        {
          "indexed": false,
          "internalType": "address",
          "name": "account",
          "type": "address"
        }
      ],
      "name": "Paused",
      "type": "event"
    },
    {
      "anonymous": false,
      "inputs": [
        {
          "indexed": true,
          "internalType": "address",
          "name": "referee",
          "type": "address"
        },
        {
          "indexed": true,
          "internalType": "address",
          "name": "referrer",
          "type": "address"
        },
        {
          "indexed": true,
          "internalType": "uint256",
          "name": "amount",
          "type": "uint256"
        },
        {
          "indexed": false,
          "internalType": "uint256",
          "name": "level",
          "type": "uint256"
        },
        {
          "indexed": false,
          "internalType": "string",
          "name": "currency",
          "type": "string"
        }
      ],
      "name": "ReferralRewardPaid",
      "type": "event"
    },
    {
      "anonymous": false,
      "inputs": [
        {
          "indexed": true,
          "internalType": "address",
          "name": "referee",
          "type": "address"
        },
        {
          "indexed": true,
          "internalType": "address",
          "name": "referrer",
          "type": "address"
        },
        {
          "indexed": true,
          "internalType": "string",
          "name": "reason",
          "type": "string"
        }
      ],
      "name": "RegisterRefererFailed",
      "type": "event"
    },
    {
      "anonymous": false,
      "inputs": [
        {
          "indexed": true,
          "internalType": "address",
          "name": "referee",
          "type": "address"
        },
        {
          "indexed": true,
          "internalType": "address",
          "name": "referrer",
          "type": "address"
        }
      ],
      "name": "RegisteredReferer",
      "type": "event"
    },
    {
      "anonymous": false,
      "inputs": [
        {
          "indexed": true,
          "internalType": "address",
          "name": "parent",
          "type": "address"
        },
        {
          "indexed": true,
          "internalType": "address",
          "name": "referrer",
          "type": "address"
        },
        {
          "indexed": true,
          "internalType": "address",
          "name": "referee",
          "type": "address"
        }
      ],
      "name": "RegisteredTeamAddress",
      "type": "event"
    },
    {
      "anonymous": false,
      "inputs": [
        {
          "indexed": false,
          "internalType": "address",
          "name": "userAddress",
          "type": "address"
        },
        {
          "indexed": false,
          "internalType": "uint8",
          "name": "rewardId",
          "type": "uint8"
        }
      ],
      "name": "RewardAccountAdded",
      "type": "event"
    },
    {
      "anonymous": false,
      "inputs": [
        {
          "indexed": false,
          "internalType": "address",
          "name": "userAddress",
          "type": "address"
        },
        {
          "indexed": false,
          "internalType": "uint8",
          "name": "rewardId",
          "type": "uint8"
        }
      ],
      "name": "RewardAccountPaid",
      "type": "event"
    },
    {
      "anonymous": false,
      "inputs": [
        {
          "indexed": false,
          "internalType": "uint8",
          "name": "id",
          "type": "uint8"
        },
        {
          "indexed": false,
          "internalType": "uint256",
          "name": "selfBusinessLimit",
          "type": "uint256"
        },
        {
          "indexed": false,
          "internalType": "uint256",
          "name": "directBusinessLimit",
          "type": "uint256"
        },
        {
          "indexed": false,
          "internalType": "uint256",
          "name": "teamBusinessLimit",
          "type": "uint256"
        },
        {
          "indexed": false,
          "internalType": "string",
          "name": "rankName",
          "type": "string"
        },
        {
          "indexed": false,
          "internalType": "string",
          "name": "rewardName",
          "type": "string"
        },
        {
          "indexed": false,
          "internalType": "uint256",
          "name": "appraisal",
          "type": "uint256"
        }
      ],
      "name": "RewardAdded",
      "type": "event"
    },
    {
      "anonymous": false,
      "inputs": [
        {
          "indexed": false,
          "internalType": "address",
          "name": "account",
          "type": "address"
        }
      ],
      "name": "Unpaused",
      "type": "event"
    },
    {
      "anonymous": false,
      "inputs": [
        {
          "indexed": true,
          "internalType": "address",
          "name": "implementation",
          "type": "address"
        }
      ],
      "name": "Upgraded",
      "type": "event"
    },
    {
      "inputs": [
        {
          "internalType": "address",
          "name": "",
          "type": "address"
        }
      ],
      "name": "addressToId",
      "outputs": [
        {
          "internalType": "uint16",
          "name": "",
          "type": "uint16"
        }
      ],
      "stateMutability": "view",
      "type": "function"
    },
    {
      "inputs": [],
      "name": "contractDefaults",
      "outputs": [
        {
          "internalType": "uint256",
          "name": "levelDecimals",
          "type": "uint256"
        },
        {
          "internalType": "uint256[]",
          "name": "levelRates",
          "type": "uint256[]"
        },
        {
          "internalType": "uint256",
          "name": "totalLevelRate",
          "type": "uint256"
        },
        {
          "internalType": "address",
          "name": "defaultReferrer",
          "type": "address"
        }
      ],
      "stateMutability": "view",
      "type": "function"
    },
    {
      "inputs": [],
      "name": "getGlobalRefereeLimit",
      "outputs": [
        {
          "internalType": "uint8",
          "name": "",
          "type": "uint8"
        }
      ],
      "stateMutability": "view",
      "type": "function"
    },
    {
      "inputs": [
        {
          "internalType": "uint8",
          "name": "_rewardId",
          "type": "uint8"
        },
        {
          "internalType": "uint16",
          "name": "_from",
          "type": "uint16"
        },
        {
          "internalType": "uint16",
          "name": "_to",
          "type": "uint16"
        }
      ],
      "name": "getRewardQualifiedUsers",
      "outputs": [
        {
          "internalType": "address[]",
          "name": "_userAddress",
          "type": "address[]"
        },
        {
          "internalType": "uint16",
          "name": "_achieversListCount",
          "type": "uint16"
        }
      ],
      "stateMutability": "view",
      "type": "function"
    },
    {
      "inputs": [],
      "name": "getSelfIncomePoolRefereeLimit",
      "outputs": [
        {
          "internalType": "uint8",
          "name": "",
          "type": "uint8"
        }
      ],
      "stateMutability": "view",
      "type": "function"
    },
    {
      "inputs": [
        {
          "internalType": "address",
          "name": "_userAddress",
          "type": "address"
        }
      ],
      "name": "getTeamBusinessToQualifyRewards",
      "outputs": [
        {
          "internalType": "uint256",
          "name": "mainBusiness",
          "type": "uint256"
        },
        {
          "internalType": "uint256",
          "name": "otherBusiness",
          "type": "uint256"
        }
      ],
      "stateMutability": "view",
      "type": "function"
    },
    {
      "inputs": [
        {
          "internalType": "address",
          "name": "_address",
          "type": "address"
        }
      ],
      "name": "getUserAccount",
      "outputs": [
        {
          "components": [
            {
              "internalType": "address",
              "name": "referrer",
              "type": "address"
            },
            {
              "internalType": "address[]",
              "name": "referee",
              "type": "address[]"
            },
            {
              "internalType": "address[]",
              "name": "team",
              "type": "address[]"
            },
            {
              "internalType": "uint256[]",
              "name": "topUp",
              "type": "uint256[]"
            },
            {
              "internalType": "uint256",
              "name": "selfBusiness",
              "type": "uint256"
            },
            {
              "internalType": "uint256",
              "name": "directBusiness",
              "type": "uint256"
            },
            {
              "internalType": "uint256",
              "name": "totalBusiness",
              "type": "uint256"
            },
            {
              "internalType": "uint256[]",
              "name": "rewardsPaidReferral",
              "type": "uint256[]"
            },
            {
              "internalType": "uint256[]",
              "name": "rewardsPaidGlobal",
              "type": "uint256[]"
            },
            {
              "internalType": "uint256[]",
              "name": "rewardPaidPassive",
              "type": "uint256[]"
            },
            {
              "internalType": "bool",
              "name": "isInGlobalID",
              "type": "bool"
            }
          ],
          "internalType": "struct ReferralUpgradeable.Account",
          "name": "userAccount",
          "type": "tuple"
        }
      ],
      "stateMutability": "view",
      "type": "function"
    },
    {
      "inputs": [
        {
          "internalType": "address",
          "name": "_address",
          "type": "address"
        }
      ],
      "name": "getUserReferrerAddress",
      "outputs": [
        {
          "internalType": "address",
          "name": "referrer",
          "type": "address"
        }
      ],
      "stateMutability": "view",
      "type": "function"
    },
    {
      "inputs": [
        {
          "internalType": "address",
          "name": "_userAddress",
          "type": "address"
        }
      ],
      "name": "getUserRewardAccount",
      "outputs": [
        {
          "components": [
            {
              "internalType": "address",
              "name": "userAdddress",
              "type": "address"
            },
            {
              "internalType": "uint8[]",
              "name": "rewardId",
              "type": "uint8[]"
            },
            {
              "internalType": "uint8",
              "name": "lastRewardId",
              "type": "uint8"
            }
          ],
          "internalType": "struct ReferralUpgradeable.RewardsAccount",
          "name": "",
          "type": "tuple"
        }
      ],
      "stateMutability": "view",
      "type": "function"
    },
    {
      "inputs": [
        {
          "internalType": "address",
          "name": "_userAddress",
          "type": "address"
        }
      ],
      "name": "getUserRewardQualified",
      "outputs": [
        {
          "internalType": "uint8",
          "name": "rewardId",
          "type": "uint8"
        }
      ],
      "stateMutability": "view",
      "type": "function"
    },
    {
      "inputs": [
        {
          "internalType": "address",
          "name": "_address",
          "type": "address"
        }
      ],
      "name": "getUserTeam",
      "outputs": [
        {
          "internalType": "address[]",
          "name": "userReferee",
          "type": "address[]"
        },
        {
          "internalType": "uint256",
          "name": "userRefereeCount",
          "type": "uint256"
        },
        {
          "internalType": "address[]",
          "name": "userTeamAddress",
          "type": "address[]"
        },
        {
          "internalType": "uint256",
          "name": "userTeamCount",
          "type": "uint256"
        }
      ],
      "stateMutability": "view",
      "type": "function"
    },
    {
      "inputs": [
        {
          "internalType": "address",
          "name": "_userAddress",
          "type": "address"
        }
      ],
      "name": "getUserTopUpForRewards",
      "outputs": [
        {
          "internalType": "uint256",
          "name": "",
          "type": "uint256"
        }
      ],
      "stateMutability": "view",
      "type": "function"
    },
    {
      "inputs": [
        {
          "internalType": "address",
          "name": "_address",
          "type": "address"
        }
      ],
      "name": "getUserTotalBusiness",
      "outputs": [
        {
          "internalType": "uint256",
          "name": "selfBusiness",
          "type": "uint256"
        },
        {
          "internalType": "uint256",
          "name": "directBusiness",
          "type": "uint256"
        },
        {
          "internalType": "uint256",
          "name": "refereeTeamBusiness",
          "type": "uint256"
        },
        {
          "internalType": "uint256",
          "name": "totalBusiness",
          "type": "uint256"
        }
      ],
      "stateMutability": "view",
      "type": "function"
    },
    {
      "inputs": [
        {
          "internalType": "address",
          "name": "_address",
          "type": "address"
        }
      ],
      "name": "getUserTotalRewardPaid",
      "outputs": [
        {
          "internalType": "uint256",
          "name": "rewardsAUSD",
          "type": "uint256"
        },
        {
          "internalType": "uint256",
          "name": "rewardsGlobal",
          "type": "uint256"
        },
        {
          "internalType": "uint256",
          "name": "rewardsPassive",
          "type": "uint256"
        }
      ],
      "stateMutability": "view",
      "type": "function"
    },
    {
      "inputs": [],
      "name": "getVariablesContract",
      "outputs": [
        {
          "internalType": "address",
          "name": "",
          "type": "address"
        }
      ],
      "stateMutability": "view",
      "type": "function"
    },
    {
      "inputs": [
        {
          "internalType": "address",
          "name": "_address",
          "type": "address"
        }
      ],
      "name": "hasReferrer",
      "outputs": [
        {
          "internalType": "bool",
          "name": "",
          "type": "bool"
        }
      ],
      "stateMutability": "view",
      "type": "function"
    },
    {
      "inputs": [
        {
          "internalType": "uint16",
          "name": "",
          "type": "uint16"
        }
      ],
      "name": "idToAddress",
      "outputs": [
        {
          "internalType": "address",
          "name": "",
          "type": "address"
        }
      ],
      "stateMutability": "view",
      "type": "function"
    },
    {
      "inputs": [
        {
          "internalType": "address[]",
          "name": "_userAddress",
          "type": "address[]"
        }
      ],
      "name": "includeUsersInList",
      "outputs": [],
      "stateMutability": "nonpayable",
      "type": "function"
    },
    {
      "inputs": [],
      "name": "initialize",
      "outputs": [],
      "stateMutability": "nonpayable",
      "type": "function"
    },
    {
      "inputs": [],
      "name": "owner",
      "outputs": [
        {
          "internalType": "address",
          "name": "",
          "type": "address"
        }
      ],
      "stateMutability": "view",
      "type": "function"
    },
    {
      "inputs": [],
      "name": "paused",
      "outputs": [
        {
          "internalType": "bool",
          "name": "",
          "type": "bool"
        }
      ],
      "stateMutability": "view",
      "type": "function"
    },
    {
      "inputs": [
        {
          "internalType": "uint256",
          "name": "_valueInUSD",
          "type": "uint256"
        },
        {
          "internalType": "address",
          "name": "_userAddress",
          "type": "address"
        },
        {
          "internalType": "address",
          "name": "_referrerAddress",
          "type": "address"
        }
      ],
      "name": "payReferralANUSDAdmin",
      "outputs": [],
      "stateMutability": "nonpayable",
      "type": "function"
    },
    {
      "inputs": [],
      "name": "proxiableUUID",
      "outputs": [
        {
          "internalType": "bytes32",
          "name": "",
          "type": "bytes32"
        }
      ],
      "stateMutability": "view",
      "type": "function"
    },
    {
      "inputs": [],
      "name": "renounceOwnership",
      "outputs": [],
      "stateMutability": "nonpayable",
      "type": "function"
    },
    {
      "inputs": [
        {
          "internalType": "address",
          "name": "",
          "type": "address"
        }
      ],
      "name": "rewardAccount",
      "outputs": [
        {
          "internalType": "address",
          "name": "userAdddress",
          "type": "address"
        },
        {
          "internalType": "uint8",
          "name": "lastRewardId",
          "type": "uint8"
        }
      ],
      "stateMutability": "view",
      "type": "function"
    },
    {
      "inputs": [
        {
          "internalType": "uint8",
          "name": "",
          "type": "uint8"
        }
      ],
      "name": "rewards",
      "outputs": [
        {
          "internalType": "uint8",
          "name": "id",
          "type": "uint8"
        },
        {
          "internalType": "uint256",
          "name": "selfBusinessLimit",
          "type": "uint256"
        },
        {
          "internalType": "uint256",
          "name": "directBusinessLimit",
          "type": "uint256"
        },
        {
          "internalType": "uint256",
          "name": "teamBusinessLimit",
          "type": "uint256"
        },
        {
          "internalType": "string",
          "name": "rankName",
          "type": "string"
        },
        {
          "internalType": "string",
          "name": "rewardName",
          "type": "string"
        },
        {
          "internalType": "uint256",
          "name": "appraisal",
          "type": "uint256"
        }
      ],
      "stateMutability": "view",
      "type": "function"
    },
    {
      "inputs": [
        {
          "internalType": "uint256",
          "name": "_directBusiness",
          "type": "uint256"
        },
        {
          "internalType": "uint256",
          "name": "_teamBusiness",
          "type": "uint256"
        }
      ],
      "name": "setGlobalPushCondition",
      "outputs": [],
      "stateMutability": "nonpayable",
      "type": "function"
    },
    {
      "inputs": [
        {
          "internalType": "uint8[]",
          "name": "_id",
          "type": "uint8[]"
        },
        {
          "internalType": "uint256[]",
          "name": "_selfBusinessLimit",
          "type": "uint256[]"
        },
        {
          "internalType": "uint256[]",
          "name": "_directBusinessLimit",
          "type": "uint256[]"
        },
        {
          "internalType": "uint256[]",
          "name": "_teamBusinessLimit",
          "type": "uint256[]"
        },
        {
          "internalType": "string[]",
          "name": "_rankName",
          "type": "string[]"
        },
        {
          "internalType": "string[]",
          "name": "_rewardName",
          "type": "string[]"
        },
        {
          "internalType": "uint256[]",
          "name": "_appraisal",
          "type": "uint256[]"
        }
      ],
      "name": "setRewards",
      "outputs": [],
      "stateMutability": "nonpayable",
      "type": "function"
    },
    {
      "inputs": [],
      "name": "totalUsers",
      "outputs": [
        {
          "internalType": "uint16",
          "name": "",
          "type": "uint16"
        }
      ],
      "stateMutability": "view",
      "type": "function"
    },
    {
      "inputs": [
        {
          "internalType": "address",
          "name": "_address",
          "type": "address"
        },
        {
          "internalType": "uint256",
          "name": "_value",
          "type": "uint256"
        }
      ],
      "name": "transferNative",
      "outputs": [],
      "stateMutability": "nonpayable",
      "type": "function"
    },
    {
      "inputs": [
        {
          "internalType": "address",
          "name": "newOwner",
          "type": "address"
        }
      ],
      "name": "transferOwnership",
      "outputs": [],
      "stateMutability": "nonpayable",
      "type": "function"
    },
    {
      "inputs": [
        {
          "internalType": "address",
          "name": "_userAddress",
          "type": "address"
        },
        {
          "internalType": "uint8",
          "name": "_rewardId",
          "type": "uint8"
        }
      ],
      "name": "updateIfRewardPaidAdmin",
      "outputs": [],
      "stateMutability": "nonpayable",
      "type": "function"
    },
    {
      "inputs": [
        {
          "internalType": "address",
          "name": "newImplementation",
          "type": "address"
        }
      ],
      "name": "upgradeTo",
      "outputs": [],
      "stateMutability": "nonpayable",
      "type": "function"
    },
    {
      "inputs": [
        {
          "internalType": "address",
          "name": "newImplementation",
          "type": "address"
        },
        {
          "internalType": "bytes",
          "name": "data",
          "type": "bytes"
        }
      ],
      "name": "upgradeToAndCall",
      "outputs": [],
      "stateMutability": "payable",
      "type": "function"
    },
    {
      "inputs": [
        {
          "internalType": "uint256",
          "name": "",
          "type": "uint256"
        }
      ],
      "name": "usersList",
      "outputs": [
        {
          "internalType": "address",
          "name": "",
          "type": "address"
        }
      ],
      "stateMutability": "view",
      "type": "function"
    },
    {
      "inputs": [
        {
          "internalType": "address",
          "name": "_tokenAddress",
          "type": "address"
        },
        {
          "internalType": "address",
          "name": "_userAddress",
          "type": "address"
        },
        {
          "internalType": "uint256",
          "name": "_value",
          "type": "uint256"
        }
      ],
      "name": "withdrawtokens",
      "outputs": [],
      "stateMutability": "nonpayable",
      "type": "function"
    },
    {
      "stateMutability": "payable",
      "type": "receive"
    }
  ],
  "bytecode": "0x60a06040523060805234801561001457600080fd5b506080516158ce6200004d60003960008181611686015281816116c601528181611765015281816117a5015261186301526158ce6000f3fe6080604052600436106102135760003560e01c80637d2e90c211610118578063cb0e0d7d116100a0578063f13a143f1161006f578063f13a143f14610726578063f2fde38b14610744578063faeda7e514610764578063fb47e01614610794578063fb5d4526146107c157600080fd5b8063cb0e0d7d1461066b578063dd1ca7161461069d578063e5ffb5df146106cb578063ef519dc0146106eb57600080fd5b80638da5cb5b116100e75780638da5cb5b1461059657806391b493e4146105b45780639b317cc4146105d4578063a0760aff14610607578063bff1f9e11461063c57600080fd5b80637d2e90c2146105145780638129fc1c1461053457806386f6630d146105495780638a93f7b91461057657600080fd5b80633659cfe61161019b57806352d1902d1161016a57806352d1902d146104935780635c975abb146104a8578063715018a6146104c057806371e13ead146104d5578063771aa216146104f457600080fd5b80633659cfe61461040657806343b4ebf4146104265780634f1ef28614610460578063502aa3b51461047357600080fd5b8063228159b4116101e2578063228159b4146102f35780632405091c1461031357806325f1c91e146103535780632bb5112d1461038157806335166fef146103e657600080fd5b8063025313ff1461021f5780630898adc7146102735780630a783ea51461029557806318452cd8146102c357600080fd5b3661021a57005b600080fd5b34801561022b57600080fd5b5061025661023a366004614a1f565b61010c602052600090815260409020546001600160a01b031681565b6040516001600160a01b0390911681526020015b60405180910390f35b34801561027f57600080fd5b5061029361028e366004614a4f565b6107e6565b005b3480156102a157600080fd5b5061010f546301000000900460ff165b60405160ff909116815260200161026a565b3480156102cf57600080fd5b506102e36102de366004614a90565b610867565b604051901515815260200161026a565b3480156102ff57600080fd5b5061029361030e366004614aad565b61088e565b34801561031f57600080fd5b5061033361032e366004614a90565b610ad5565b60408051948552602085019390935291830152606082015260800161026a565b34801561035f57600080fd5b5061037361036e366004614a90565b6110c4565b60405190815260200161026a565b34801561038d57600080fd5b506103c561039c366004614a90565b61010a60205260009081526040902080546002909101546001600160a01b039091169060ff1682565b604080516001600160a01b03909316835260ff90911660208301520161026a565b3480156103f257600080fd5b50610293610401366004614d25565b61135b565b34801561041257600080fd5b50610293610421366004614a90565b61167c565b34801561043257600080fd5b50610256610441366004614a90565b6001600160a01b03908116600090815261010960205260409020541690565b61029361046e366004614e40565b61175b565b34801561047f57600080fd5b5061025661048e366004614ea4565b61182b565b34801561049f57600080fd5b50610373611856565b3480156104b457600080fd5b5060335460ff166102e3565b3480156104cc57600080fd5b50610293611909565b3480156104e157600080fd5b5061010f5462010000900460ff166102b1565b34801561050057600080fd5b5061029361050f366004614ebd565b61191d565b34801561052057600080fd5b5061029361052f366004614ef2565b611a21565b34801561054057600080fd5b50610293611a64565b34801561055557600080fd5b50610569610564366004614a90565b611c4a565b60405161026a9190614f1e565b34801561058257600080fd5b50610293610591366004614f93565b611d30565b3480156105a257600080fd5b506065546001600160a01b0316610256565b3480156105c057600080fd5b506102936105cf366004615008565b611e04565b3480156105e057600080fd5b506105f46105ef36600461502a565b611e99565b60405161026a9796959493929190615095565b34801561061357600080fd5b50610627610622366004614a90565b611feb565b6040805192835260208301919091520161026a565b34801561064857600080fd5b5061010f546106589061ffff1681565b60405161ffff909116815260200161026a565b34801561067757600080fd5b50610658610686366004614a90565b61010d6020526000908152604090205461ffff1681565b3480156106a957600080fd5b506106bd6106b83660046150ea565b612591565b60405161026a929190615171565b3480156106d757600080fd5b506102b16106e6366004614a90565b61266f565b3480156106f757600080fd5b5061070b610706366004614a90565b612afe565b6040805193845260208401929092529082015260600161026a565b34801561073257600080fd5b5060fb546001600160a01b0316610256565b34801561075057600080fd5b5061029361075f366004614a90565b612c19565b34801561077057600080fd5b5061078461077f366004614a90565b612c8f565b60405161026a9493929190615197565b3480156107a057600080fd5b506107b46107af366004614a90565b612d7c565b60405161026a9190615204565b3480156107cd57600080fd5b506107d6613069565b60405161026a9493929190615313565b6107ee613130565b60405163a9059cbb60e01b81526001600160a01b0383811660048301526024820183905284169063a9059cbb906044016020604051808303816000875af115801561083d573d6000803e3d6000fd5b505050506040513d601f19601f82011682018060405250810190610861919061534d565b50505050565b6001600160a01b038082166000908152610109602052604081205490911615155b92915050565b60fb5433906001600160a01b03166108ae6065546001600160a01b031690565b6001600160a01b0316826001600160a01b03161480610954575060fb60009054906101000a90046001600160a01b03166001600160a01b03166363d9df856040518163ffffffff1660e01b8152600401602060405180830381865afa15801561091b573d6000803e3d6000fd5b505050506040513d601f19601f8201168201806040525081019061093f919061536f565b6001600160a01b0316826001600160a01b0316145b6109b05760405162461bcd60e51b815260206004820152602260248201527f4f6e6c79206f776e65722063616e2063616c6c20746869732066756e6374696f604482015261371760f11b60648201526084015b60405180910390fd5b6001600160a01b0384811660009081526101096020526040902054161580156109e157506001600160a01b03831615155b156109f0576109f0848461318a565b6001600160a01b038381166000908152610109602052604090205416158015610a2157506001600160a01b03831615155b8015610a3c5750610100546001600160a01b03848116911614155b15610a595761010054610a599084906001600160a01b031661318a565b610ac58585836001600160a01b031663611509236040518163ffffffff1660e01b8152600401602060405180830381865afa158015610a9c573d6000803e3d6000fd5b505050506040513d601f19601f82011682018060405250810190610ac0919061536f565b6132d2565b610ace84613a93565b5050505050565b6001600160a01b0381166000908152610109602052604081206001810154600482015492918291829190825b81811015610dd85760006101096000856001018481548110610b2557610b2561538c565b60009182526020808320909101546001600160a01b03908116845283820194909452604092830190912082516101608101845281549094168452600181018054845181850281018501909552808552919385840193909290830182828015610bb657602002820191906000526020600020905b81546001600160a01b03168152600190910190602001808311610b98575b5050505050815260200160028201805480602002602001604051908101604052809291908181526020018280548015610c1857602002820191906000526020600020905b81546001600160a01b03168152600190910190602001808311610bfa575b5050505050815260200160038201805480602002602001604051908101604052809291908181526020018280548015610c7057602002820191906000526020600020905b815481526020019060010190808311610c5c575b5050505050815260200160048201548152602001600582015481526020016006820154815260200160078201805480602002602001604051908101604052809291908181526020018280548015610ce657602002820191906000526020600020905b815481526020019060010190808311610cd2575b5050505050815260200160088201805480602002602001604051908101604052809291908181526020018280548015610d3e57602002820191906000526020600020905b815481526020019060010190808311610d2a575b5050505050815260200160098201805480602002602001604051908101604052809291908181526020018280548015610d9657602002820191906000526020600020905b815481526020019060010190808311610d82575b5050509183525050600a919091015460ff1615156020909101526080810151909150610dc290886153b8565b9650508080610dd0906153cb565b915050610b01565b5060005b818110156110b35760006101096000856001018481548110610e0057610e0061538c565b60009182526020808320909101546001600160a01b03908116845283820194909452604092830190912082516101608101845281549094168452600181018054845181850281018501909552808552919385840193909290830182828015610e9157602002820191906000526020600020905b81546001600160a01b03168152600190910190602001808311610e73575b5050505050815260200160028201805480602002602001604051908101604052809291908181526020018280548015610ef357602002820191906000526020600020905b81546001600160a01b03168152600190910190602001808311610ed5575b5050505050815260200160038201805480602002602001604051908101604052809291908181526020018280548015610f4b57602002820191906000526020600020905b815481526020019060010190808311610f37575b5050505050815260200160048201548152602001600582015481526020016006820154815260200160078201805480602002602001604051908101604052809291908181526020018280548015610fc157602002820191906000526020600020905b815481526020019060010190808311610fad575b505050505081526020016008820180548060200260200160405190810160405280929190818152602001828054801561101957602002820191906000526020600020905b815481526020019060010190808311611005575b505050505081526020016009820180548060200260200160405190810160405280929190818152602001828054801561107157602002820191906000526020600020905b81548152602001906001019080831161105d575b5050509183525050600a919091015460ff16151560209091015260c081015190915061109d90876153b8565b95505080806110ab906153cb565b915050610ddc565b508160060154925050509193509193565b6001600160a01b03808216600090815261010960209081526040808320815161016081018352815490951685526001810180548351818602810186019094528084529495869590949293858401939092919083018282801561114f57602002820191906000526020600020905b81546001600160a01b03168152600190910190602001808311611131575b50505050508152602001600282018054806020026020016040519081016040528092919081815260200182805480156111b157602002820191906000526020600020905b81546001600160a01b03168152600190910190602001808311611193575b505050505081526020016003820180548060200260200160405190810160405280929190818152602001828054801561120957602002820191906000526020600020905b8154815260200190600101908083116111f5575b505050505081526020016004820154815260200160058201548152602001600682015481526020016007820180548060200260200160405190810160405280929190818152602001828054801561127f57602002820191906000526020600020905b81548152602001906001019080831161126b575b50505050508152602001600882018054806020026020016040519081016040528092919081815260200182805480156112d757602002820191906000526020600020905b8154815260200190600101908083116112c3575b505050505081526020016009820180548060200260200160405190810160405280929190818152602001828054801561132f57602002820191906000526020600020905b81548152602001906001019080831161131b575b5050509183525050600a919091015460ff161515602090910152905061135481613b8a565b9392505050565b60fb54604051630935e01b60e21b81523360048201526001600160a01b03909116906324d7806c90602401602060405180830381865afa1580156113a3573d6000803e3d6000fd5b505050506040513d601f19601f820116820180604052508101906113c7919061534d565b6113e35760405162461bcd60e51b81526004016109a7906153e4565b60005b8751811015611672576040518060e0016040528089838151811061140c5761140c61538c565b602002602001015160ff16815260200188838151811061142e5761142e61538c565b6020026020010151815260200187838151811061144d5761144d61538c565b6020026020010151815260200186838151811061146c5761146c61538c565b6020026020010151815260200185838151811061148b5761148b61538c565b602002602001015181526020018483815181106114aa576114aa61538c565b602002602001015181526020018383815181106114c9576114c961538c565b602002602001015181525061010b60008a84815181106114eb576114eb61538c565b60209081029190910181015160ff90811683528282019390935260409182016000208451815460ff1916941693909317835583015160018301558201516002820155606082015160038201556080820151600482019061154b9082615491565b5060a082015160058201906115609082615491565b5060c082015181600601559050507fb9f30bf0ab6748f3fcfbc9d280ed1feedea51276343f55f8342b8c453b876e9a8882815181106115a1576115a161538c565b60200260200101518883815181106115bb576115bb61538c565b60200260200101518884815181106115d5576115d561538c565b60200260200101518885815181106115ef576115ef61538c565b60200260200101518886815181106116095761160961538c565b60200260200101518887815181106116235761162361538c565b602002602001015188888151811061163d5761163d61538c565b60200260200101516040516116589796959493929190615095565b60405180910390a18061166a816153cb565b9150506113e6565b5050505050505050565b6001600160a01b037f00000000000000000000000000000000000000000000000000000000000000001630036116c45760405162461bcd60e51b81526004016109a790615551565b7f00000000000000000000000000000000000000000000000000000000000000006001600160a01b031661170d600080516020615852833981519152546001600160a01b031690565b6001600160a01b0316146117335760405162461bcd60e51b81526004016109a79061559d565b61173c81613bf4565b6040805160008082526020820190925261175891839190613bfc565b50565b6001600160a01b037f00000000000000000000000000000000000000000000000000000000000000001630036117a35760405162461bcd60e51b81526004016109a790615551565b7f00000000000000000000000000000000000000000000000000000000000000006001600160a01b03166117ec600080516020615852833981519152546001600160a01b031690565b6001600160a01b0316146118125760405162461bcd60e51b81526004016109a79061559d565b61181b82613bf4565b61182782826001613bfc565b5050565b61010e818154811061183c57600080fd5b6000918252602090912001546001600160a01b0316905081565b6000306001600160a01b037f000000000000000000000000000000000000000000000000000000000000000016146118f65760405162461bcd60e51b815260206004820152603860248201527f555550535570677261646561626c653a206d757374206e6f742062652063616c60448201527f6c6564207468726f7567682064656c656761746563616c6c000000000000000060648201526084016109a7565b5060008051602061585283398151915290565b611911613130565b61191b6000613d67565b565b60fb54604051630935e01b60e21b81523360048201526001600160a01b03909116906324d7806c90602401602060405180830381865afa158015611965573d6000803e3d6000fd5b505050506040513d601f19601f82011682018060405250810190611989919061534d565b6119a55760405162461bcd60e51b81526004016109a7906153e4565b6001600160a01b03808316600090815261010a6020526040902080549091166119e25780546001600160a01b0319166001600160a01b0384161781555b600190810180549182018155600090815260209081902090820401805460ff938416601f9093166101000a928302939092021990911691909117905550565b611a29613130565b6040516001600160a01b0383169082156108fc029083906000818181858888f19350505050158015611a5f573d6000803e3d6000fd5b505050565b600054610100900460ff1615808015611a845750600054600160ff909116105b80611a9e5750303b158015611a9e575060005460ff166001145b611b015760405162461bcd60e51b815260206004820152602e60248201527f496e697469616c697a61626c653a20636f6e747261637420697320616c72656160448201526d191e481a5b9a5d1a585b1a5e995960921b60648201526084016109a7565b6000805460ff191660011790558015611b24576000805461ff0019166101001790555b60fb80546001600160a01b03199081167377daafc7411c911b869c71bf70fe36cce507845d17909155610100805490911673f3ba579d4afd4dad8a8c2d1bcbdd1405688e492f1790556040805160e0810182526007808252600460208301526003928201929092526002606082015260016080820181905260a0820181905260c0820152611bb59160fc91906149a8565b50606460fd5560146101065569011478b7c30abc3000006101035560046101015560056101045568a80d24677efef0000061010555611bf2613db9565b611bfa613de8565b611c02613e17565b8015611758576000805461ff0019169055604051600181527f7f26b83ff96e1f2b6a682f133852f6798a09c465da95921460cefb38474024989060200160405180910390a150565b611c7a604051806060016040528060006001600160a01b0316815260200160608152602001600060ff1681525090565b6001600160a01b03808316600090815261010a6020908152604091829020825160608101845281549094168452600181018054845181850281018501909552808552919385840193909290830182828015611d1257602002820191906000526020600020906000905b825461010083900a900460ff16815260206001928301818104948501949093039092029101808411611ce35790505b50505091835250506002919091015460ff1660209091015292915050565b60fb54604051630935e01b60e21b81523360048201526001600160a01b03909116906324d7806c90602401602060405180830381865afa158015611d78573d6000803e3d6000fd5b505050506040513d601f19601f82011682018060405250810190611d9c919061534d565b611db85760405162461bcd60e51b81526004016109a7906153e4565b60005b81811015611a5f57611df2838383818110611dd857611dd861538c565b9050602002016020810190611ded9190614a90565b613a93565b80611dfc816153cb565b915050611dbb565b60fb54604051630935e01b60e21b81523360048201526001600160a01b03909116906324d7806c90602401602060405180830381865afa158015611e4c573d6000803e3d6000fd5b505050506040513d601f19601f82011682018060405250810190611e70919061534d565b611e8c5760405162461bcd60e51b81526004016109a7906153e4565b6101039190915561011055565b61010b602052600090815260409020805460018201546002830154600384015460048501805460ff90951695939492939192611ed49061540f565b80601f0160208091040260200160405190810160405280929190818152602001828054611f009061540f565b8015611f4d5780601f10611f2257610100808354040283529160200191611f4d565b820191906000526020600020905b815481529060010190602001808311611f3057829003601f168201915b505050505090806005018054611f629061540f565b80601f0160208091040260200160405190810160405280929190818152602001828054611f8e9061540f565b8015611fdb5780601f10611fb057610100808354040283529160200191611fdb565b820191906000526020600020905b815481529060010190602001808311611fbe57829003601f168201915b5050505050908060060154905087565b6001600160a01b0380821660009081526101096020908152604080832081516101608101835281549095168552600181018054835181860281018601909452808452949586958695919485830193909290919083018282801561207757602002820191906000526020600020905b81546001600160a01b03168152600190910190602001808311612059575b50505050508152602001600282018054806020026020016040519081016040528092919081815260200182805480156120d957602002820191906000526020600020905b81546001600160a01b031681526001909101906020018083116120bb575b505050505081526020016003820180548060200260200160405190810160405280929190818152602001828054801561213157602002820191906000526020600020905b81548152602001906001019080831161211d575b50505050508152602001600482015481526020016005820154815260200160068201548152602001600782018054806020026020016040519081016040528092919081815260200182805480156121a757602002820191906000526020600020905b815481526020019060010190808311612193575b50505050508152602001600882018054806020026020016040519081016040528092919081815260200182805480156121ff57602002820191906000526020600020905b8154815260200190600101908083116121eb575b505050505081526020016009820180548060200260200160405190810160405280929190818152602001828054801561225757602002820191906000526020600020905b815481526020019060010190808311612243575b5050509183525050600a919091015460ff1615156020918201528101515190915060009060021161258a5760005b8260200151518161ffff16101561257c576000610109600085602001518461ffff16815181106122b7576122b761538c565b6020908102919091018101516001600160a01b0390811683528282019390935260409182016000208251610160810184528154909416845260018101805484518185028101850190955280855291938584019390929083018282801561234657602002820191906000526020600020905b81546001600160a01b03168152600190910190602001808311612328575b50505050508152602001600282018054806020026020016040519081016040528092919081815260200182805480156123a857602002820191906000526020600020905b81546001600160a01b0316815260019091019060200180831161238a575b505050505081526020016003820180548060200260200160405190810160405280929190818152602001828054801561240057602002820191906000526020600020905b8154815260200190600101908083116123ec575b505050505081526020016004820154815260200160058201548152602001600682015481526020016007820180548060200260200160405190810160405280929190818152602001828054801561247657602002820191906000526020600020905b815481526020019060010190808311612462575b50505050508152602001600882018054806020026020016040519081016040528092919081815260200182805480156124ce57602002820191906000526020600020905b8154815260200190600101908083116124ba575b505050505081526020016009820180548060200260200160405190810160405280929190818152602001828054801561252657602002820191906000526020600020905b815481526020019060010190808311612512575b5050509183525050600a919091015460ff16151560209091015260c0810151909150861015612557578060c0015195505b60c081015161256690846153b8565b9250508080612574906155e9565b915050612285565b50612587848261560a565b92505b5050915091565b606060008060006125a3878787613e3e565b915091508092508061ffff1667ffffffffffffffff8111156125c7576125c7614aef565b6040519080825280602002602001820160405280156125f0578160200160208202803683370190505b50935060005b8161ffff168161ffff16101561266457828161ffff168151811061261c5761261c61538c565b6020026020010151858261ffff168151811061263a5761263a61538c565b6001600160a01b03909216602092830291909101909101528061265c816155e9565b9150506125f6565b505050935093915050565b6001600160a01b0380821660009081526101096020908152604080832081516101608101835281549095168552600181018054835181860281018601909452808452949586959094929385840193909291908301828280156126fa57602002820191906000526020600020905b81546001600160a01b031681526001909101906020018083116126dc575b505050505081526020016002820180548060200260200160405190810160405280929190818152602001828054801561275c57602002820191906000526020600020905b81546001600160a01b0316815260019091019060200180831161273e575b50505050508152602001600382018054806020026020016040519081016040528092919081815260200182805480156127b457602002820191906000526020600020905b8154815260200190600101908083116127a0575b505050505081526020016004820154815260200160058201548152602001600682015481526020016007820180548060200260200160405190810160405280929190818152602001828054801561282a57602002820191906000526020600020905b815481526020019060010190808311612816575b505050505081526020016008820180548060200260200160405190810160405280929190818152602001828054801561288257602002820191906000526020600020905b81548152602001906001019080831161286e575b50505050508152602001600982018054806020026020016040519081016040528092919081815260200182805480156128da57602002820191906000526020600020905b8154815260200190600101908083116128c6575b5050509183525050600a919091015460ff161515602090910152905060005b60148160ff161015612af75760ff808216600090815261010b60209081526040808320815160e08101835281549095168552600181015492850192909252600282015490840152600381015460608401526004810180549293926080840191906129629061540f565b80601f016020809104026020016040519081016040528092919081815260200182805461298e9061540f565b80156129db5780601f106129b0576101008083540402835291602001916129db565b820191906000526020600020905b8154815290600101906020018083116129be57829003601f168201915b505050505081526020016005820180546129f49061540f565b80601f0160208091040260200160405190810160405280929190818152602001828054612a209061540f565b8015612a6d5780601f10612a4257610100808354040283529160200191612a6d565b820191906000526020600020905b815481529060010190602001808311612a5057829003601f168201915b50505050508152602001600682015481525050905060028260ff16118015612a9757506020810151155b15612aa25750612af7565b8060200151612ab084613b8a565b10158015612ac6575080604001518360a0015110155b8015612adb5750612adb83826060015161434e565b15612ae4578193505b5080612aef8161561d565b9150506128f9565b5050919050565b6001600160a01b0381166000908152610109602052604081206007810154600882015460098301548493849390929091845b83811015612b7757846007018181548110612b4d57612b4d61538c565b906000526020600020015488612b6391906153b8565b975080612b6f816153cb565b915050612b30565b5060005b82811015612bc257846008018181548110612b9857612b9861538c565b906000526020600020015487612bae91906153b8565b965080612bba816153cb565b915050612b7b565b5060005b81811015612c0d57846009018181548110612be357612be361538c565b906000526020600020015486612bf991906153b8565b955080612c05816153cb565b915050612bc6565b50505050509193909250565b612c21613130565b6001600160a01b038116612c865760405162461bcd60e51b815260206004820152602660248201527f4f776e61626c653a206e6577206f776e657220697320746865207a65726f206160448201526564647265737360d01b60648201526084016109a7565b61175881613d67565b6001600160a01b03811660009081526101096020908152604080832060018101805483518186028101860190945280845260609594869486949390929091830182828015612d0657602002820191906000526020600020905b81546001600160a01b03168152600190910190602001808311612ce8575b505050505094508451935080600201805480602002602001604051908101604052809291908181526020018280548015612d6957602002820191906000526020600020905b81546001600160a01b03168152600190910190602001808311612d4b575b5050505050925082519150509193509193565b612de460405180610160016040528060006001600160a01b031681526020016060815260200160608152602001606081526020016000815260200160008152602001600081526020016060815260200160608152602001606081526020016000151581525090565b6001600160a01b038083166000908152610109602090815260409182902082516101608101845281549094168452600181018054845181850281018501909552808552919385840193909290830182828015612e6957602002820191906000526020600020905b81546001600160a01b03168152600190910190602001808311612e4b575b5050505050815260200160028201805480602002602001604051908101604052809291908181526020018280548015612ecb57602002820191906000526020600020905b81546001600160a01b03168152600190910190602001808311612ead575b5050505050815260200160038201805480602002602001604051908101604052809291908181526020018280548015612f2357602002820191906000526020600020905b815481526020019060010190808311612f0f575b5050505050815260200160048201548152602001600582015481526020016006820154815260200160078201805480602002602001604051908101604052809291908181526020018280548015612f9957602002820191906000526020600020905b815481526020019060010190808311612f85575b5050505050815260200160088201805480602002602001604051908101604052809291908181526020018280548015612ff157602002820191906000526020600020905b815481526020019060010190808311612fdd575b505050505081526020016009820180548060200260200160405190810160405280929190818152602001828054801561304957602002820191906000526020600020905b815481526020019060010190808311613035575b5050509183525050600a919091015460ff16151560209091015292915050565b60fd5460fc80546040805160208084028201810190925282815260609360009384938301828280156130ba57602002820191906000526020600020905b8154815260200190600101908083116130a6575b505060fc549396506000925050505b818160ff1610156131145760fc8160ff16815481106130ea576130ea61538c565b90600052602060002001548461310091906153b8565b93508061310c8161561d565b9150506130c9565b5050610100549394929391926001600160a01b03909216919050565b6065546001600160a01b0316331461191b5760405162461bcd60e51b815260206004820181905260248201527f4f776e61626c653a2063616c6c6572206973206e6f7420746865206f776e657260448201526064016109a7565b6001600160a01b038281166000818152610109602052604080822080546001600160a01b03191694861694851781559051909392917ffaf63637882ff2d63ca76881cf92fb857130e36f350c926f9cc884b499b42b7791a360fc5460005b81811015610ace5782546001600160a01b031660009081526101096020526040812090829003613242576001818101805491820181556000908152602090200180546001600160a01b0319166001600160a01b0388161790555b83546001600160a01b03166132575750610ace565b6002810180546001810182556000918252602082200180546001600160a01b0319166001600160a01b03898116918217909255865460405191938984169391909116917fb766b19465b3277b0b275adf79d715cac93166bf6e6a39f26e4ccfdec76ad47e9190a49250806132ca816153cb565b9150506131e8565b600060fc80548060200260200160405190810160405280929190818152602001828054801561332057602002820191906000526020600020905b81548152602001906001019080831161330c575b505050506001600160a01b0385166000908152610109602090815260408220600381018054600181018255908452918320909101889055600481015493945090929091501561336e57600191505b8581600401600082825461338291906153b8565b90915550506101065460009067ffffffffffffffff8111156133a6576133a6614aef565b6040519080825280602002602001820160405280156133cf578160200160208202803683370190505b5090506000805b610106548110156137055783546001600160a01b0316600081815261010960205260409020906134065750613705565b8515613413576001613416565b86515b82101561366357600060648884815181106134335761343361538c565b60200260200101518c613446919061563c565b6134509190615669565b905082600003613474578a82600501600082825461346e91906153b8565b90915550505b6007820180546001810182556000918252602082200182905560ff805483929061349f9084906153b8565b909155505085546001600160a01b03808b169163a9059cbb91166134c3848d614686565b6040516001600160e01b031960e085901b1681526001600160a01b03909216600483015260248201526044016020604051808303816000875af115801561350e573d6000803e3d6000fd5b505050506040513d601f19601f82011682018060405250810190613532919061534d565b50855481906001600160a01b03908116908c167f197a0a2b0fbff3fc4f7f4d32597585aa8415fcc4c5dd6634336ec65904529c836135718760016153b8565b60408051918252602082018190526005908201526410539554d160da1b606082015260800160405180910390a4600a82015460ff16613661576101035482600501541180156135c65750610110548260060154115b156136615785546101028054600180820183556000929092527f93bdaa6a4190909b7c3fbe8d42169ffe1cab19f51dfc8db24c71abf849eced4a0180546001600160a01b0319166001600160a01b03938416179055600a8401805460ff191690911790558654604051911681527facc63915cb028aeaee9996abc0f864fc0559a2f955750aa97d6ef9f51014acfb9060200160405180910390a15b505b8981600601600082825461367791906153b8565b90915550506101055460058201541180156136a4575061010f546001820154630100000090910460ff1611155b156136f157845484516001600160a01b03909116908590859081106136cb576136cb61538c565b6001600160a01b0390921660209283029190910190910152826136ed816153cb565b9350505b9350806136fd816153cb565b9150506133d6565b5080156138d9576000816064610104548b613720919061563c565b61372a9190615669565b6137349190615669565b905060005b828110156138d65760006001600160a01b031684828151811061375e5761375e61538c565b60200260200101516001600160a01b031603156138d6576000610109600086848151811061378e5761378e61538c565b60200260200101516001600160a01b03166001600160a01b031681526020019081526020016000209050886001600160a01b031663a9059cbb8684815181106137d9576137d961538c565b60200260200101516137eb868d614686565b6040516001600160e01b031960e085901b1681526001600160a01b03909216600483015260248201526044016020604051808303816000875af1158015613836573d6000803e3d6000fd5b505050506040513d601f19601f8201168201806040525081019061385a919061534d565b5084828151811061386d5761386d61538c565b60200260200101516001600160a01b0316837f62f12b06523c734cca73aa1502a5f967c8e09d0a2f084fd36acbac47f54b0d4e60405160405180910390a360090180546001810182556000918252602090912001829055806138ce816153cb565b915050613739565b50505b61010254156116725760006064610101548a6138f5919061563c565b6138ff9190615669565b610102546040805142602082015244918101919091529192506000916060016040516020818303038152906040528051906020012060001c613941919061567d565b9050600061010282815481106139595761395961538c565b6000918252602080832091909101546001600160a01b0316808352610109909152604090912061010f54600182015492935090916201000090910460ff1611613a8557896001600160a01b031663a9059cbb836139b6878e614686565b6040516001600160e01b031960e085901b1681526001600160a01b03909216600483015260248201526044016020604051808303816000875af1158015613a01573d6000803e3d6000fd5b505050506040513d601f19601f82011682018060405250810190613a25919061534d565b50600881018054600181018255600091825260209182902001859055604080518681526001600160a01b038516928101929092527f51e673ac98f0ea063ce27eb5af807d22b97cd11cd79380cf1f711ad80948046c910160405180910390a15b505050505050505050505050565b6001600160a01b038116600090815261010d602052604081205461ffff1690036117585761010f54600090613acd9061ffff166001615691565b6001600160a01b038316600081815261010d60209081526040808320805461ffff191661ffff878116918217909255845261010c909252822080546001600160a01b0319908116851790915561010e80546001810182559084527f44731785622d53a842eeb261a70df6f2b61b9624656157b6168597f0656f480501805490911690931790925561010f8054939450929091169190613b6b836155e9565b91906101000a81548161ffff021916908361ffff160217905550505050565b60608101515160009015613bef5760015b8260600151518161ffff161015613bed5782606001518161ffff1681518110613bc657613bc661538c565b602002602001015182613bd991906153b8565b915080613be5816155e9565b915050613b9b565b505b919050565b611758613130565b7f4910fdfa16fed3260ed0e7147f7cc6da11a60208b5b9406d12a635614ffd91435460ff1615613c2f57611a5f83614712565b826001600160a01b03166352d1902d6040518163ffffffff1660e01b8152600401602060405180830381865afa925050508015613c89575060408051601f3d908101601f19168201909252613c86918101906156b3565b60015b613cec5760405162461bcd60e51b815260206004820152602e60248201527f45524331393637557067726164653a206e657720696d706c656d656e7461746960448201526d6f6e206973206e6f74205555505360901b60648201526084016109a7565b6000805160206158528339815191528114613d5b5760405162461bcd60e51b815260206004820152602960248201527f45524331393637557067726164653a20756e737570706f727465642070726f786044820152681a58589b195555525160ba1b60648201526084016109a7565b50611a5f8383836147ae565b606580546001600160a01b038381166001600160a01b0319831681179093556040519116919082907f8be0079c531659141344cd1fd0a4f28419497f9722a3daafe3b4186f6b6457e090600090a35050565b600054610100900460ff16613de05760405162461bcd60e51b81526004016109a7906156cc565b61191b6147d3565b600054610100900460ff16613e0f5760405162461bcd60e51b81526004016109a7906156cc565b61191b614806565b600054610100900460ff1661191b5760405162461bcd60e51b81526004016109a7906156cc565b60606000613e4c8484615717565b61ffff1667ffffffffffffffff811115613e6857613e68614aef565b604051908082528060200260200182016040528015613e91578160200160208202803683370190505b5091505b8261ffff168461ffff16116143465761ffff8416600090815261010c60209081526040808320546001600160a01b03908116808552610109845282852083516101608101855281549093168352600181018054855181880281018801909652808652929695939491938581019390830182828015613f3c57602002820191906000526020600020905b81546001600160a01b03168152600190910190602001808311613f1e575b5050505050815260200160028201805480602002602001604051908101604052809291908181526020018280548015613f9e57602002820191906000526020600020905b81546001600160a01b03168152600190910190602001808311613f80575b5050505050815260200160038201805480602002602001604051908101604052809291908181526020018280548015613ff657602002820191906000526020600020905b815481526020019060010190808311613fe2575b505050505081526020016004820154815260200160058201548152602001600682015481526020016007820180548060200260200160405190810160405280929190818152602001828054801561406c57602002820191906000526020600020905b815481526020019060010190808311614058575b50505050508152602001600882018054806020026020016040519081016040528092919081815260200182805480156140c457602002820191906000526020600020905b8154815260200190600101908083116140b0575b505050505081526020016009820180548060200260200160405190810160405280929190818152602001828054801561411c57602002820191906000526020600020905b815481526020019060010190808311614108575b5050509183525050600a919091015460ff9081161515602092830152898116600090815261010b83526040808220815160e081018352815490941684526001810154948401949094526002840154908301526003830154606083015260048301805494955090939192916080840191906141959061540f565b80601f01602080910402602001604051908101604052809291908181526020018280546141c19061540f565b801561420e5780601f106141e35761010080835404028352916020019161420e565b820191906000526020600020905b8154815290600101906020018083116141f157829003601f168201915b505050505081526020016005820180546142279061540f565b80601f01602080910402602001604051908101604052809291908181526020018280546142539061540f565b80156142a05780601f10614275576101008083540402835291602001916142a0565b820191906000526020600020905b81548152906001019060200180831161428357829003601f168201915b50505050508152602001600682015481525050905080602001516142c383613b8a565b101580156142d9575080604001518260a0015110155b80156142ee57506142ee82826060015161434e565b156143305782858561ffff168151811061430a5761430a61538c565b6001600160a01b03909216602092830291909101909101528361432c816155e9565b9450505b505050838061433e906155e9565b945050613e95565b935093915050565b600080600060028560200151511061467e5760005b8560200151518161ffff16101561465a576000610109600088602001518461ffff16815181106143955761439561538c565b6020908102919091018101516001600160a01b0390811683528282019390935260409182016000208251610160810184528154909416845260018101805484518185028101850190955280855291938584019390929083018282801561442457602002820191906000526020600020905b81546001600160a01b03168152600190910190602001808311614406575b505050505081526020016002820180548060200260200160405190810160405280929190818152602001828054801561448657602002820191906000526020600020905b81546001600160a01b03168152600190910190602001808311614468575b50505050508152602001600382018054806020026020016040519081016040528092919081815260200182805480156144de57602002820191906000526020600020905b8154815260200190600101908083116144ca575b505050505081526020016004820154815260200160058201548152602001600682015481526020016007820180548060200260200160405190810160405280929190818152602001828054801561455457602002820191906000526020600020905b815481526020019060010190808311614540575b50505050508152602001600882018054806020026020016040519081016040528092919081815260200182805480156145ac57602002820191906000526020600020905b815481526020019060010190808311614598575b505050505081526020016009820180548060200260200160405190810160405280929190818152602001828054801561460457602002820191906000526020600020905b8154815260200190600101908083116145f0575b5050509183525050600a919091015460ff16151560209091015260c0810151909150841015614635578060c0015193505b60c081015161464490846153b8565b9250508080614652906155e9565b915050614363565b50838210158015614674575083614671838361560a565b10155b1561467e57600192505b505092915050565b6000670de0b6b3a7640000826001600160a01b031663313ce5676040518163ffffffff1660e01b8152600401602060405180830381865afa1580156146cf573d6000803e3d6000fd5b505050506040513d601f19601f820116820180604052508101906146f391906156b3565b6146fe90600a615816565b614708908561563c565b6113549190615669565b6001600160a01b0381163b61477f5760405162461bcd60e51b815260206004820152602d60248201527f455243313936373a206e657720696d706c656d656e746174696f6e206973206e60448201526c1bdd08184818dbdb9d1c9858dd609a1b60648201526084016109a7565b60008051602061585283398151915280546001600160a01b0319166001600160a01b0392909216919091179055565b6147b783614836565b6000825111806147c45750805b15611a5f576108618383614876565b600054610100900460ff166147fa5760405162461bcd60e51b81526004016109a7906156cc565b6033805460ff19169055565b600054610100900460ff1661482d5760405162461bcd60e51b81526004016109a7906156cc565b61191b33613d67565b61483f81614712565b6040516001600160a01b038216907fbc7cd75a20ee27fd9adebab32041f755214dbc6bffa90cc0225b39da2e5c2d3b90600090a250565b60606001600160a01b0383163b6148de5760405162461bcd60e51b815260206004820152602660248201527f416464726573733a2064656c65676174652063616c6c20746f206e6f6e2d636f6044820152651b9d1c9858dd60d21b60648201526084016109a7565b600080846001600160a01b0316846040516148f99190615822565b600060405180830381855af49150503d8060008114614934576040519150601f19603f3d011682016040523d82523d6000602084013e614939565b606091505b509150915061496182826040518060600160405280602781526020016158726027913961496a565b95945050505050565b60608315614979575081611354565b611354838381511561498e5781518083602001fd5b8060405162461bcd60e51b81526004016109a7919061583e565b8280548282559060005260206000209081019282156149e8579160200282015b828111156149e8578251829060ff169055916020019190600101906149c8565b506149f49291506149f8565b5090565b5b808211156149f457600081556001016149f9565b803561ffff81168114613bef57600080fd5b600060208284031215614a3157600080fd5b61135482614a0d565b6001600160a01b038116811461175857600080fd5b600080600060608486031215614a6457600080fd5b8335614a6f81614a3a565b92506020840135614a7f81614a3a565b929592945050506040919091013590565b600060208284031215614aa257600080fd5b813561135481614a3a565b600080600060608486031215614ac257600080fd5b833592506020840135614ad481614a3a565b91506040840135614ae481614a3a565b809150509250925092565b634e487b7160e01b600052604160045260246000fd5b604051601f8201601f1916810167ffffffffffffffff81118282101715614b2e57614b2e614aef565b604052919050565b600067ffffffffffffffff821115614b5057614b50614aef565b5060051b60200190565b803560ff81168114613bef57600080fd5b600082601f830112614b7c57600080fd5b81356020614b91614b8c83614b36565b614b05565b82815260059290921b84018101918181019086841115614bb057600080fd5b8286015b84811015614bd257614bc581614b5a565b8352918301918301614bb4565b509695505050505050565b600082601f830112614bee57600080fd5b81356020614bfe614b8c83614b36565b82815260059290921b84018101918181019086841115614c1d57600080fd5b8286015b84811015614bd25780358352918301918301614c21565b600067ffffffffffffffff831115614c5257614c52614aef565b614c65601f8401601f1916602001614b05565b9050828152838383011115614c7957600080fd5b828260208301376000602084830101529392505050565b600082601f830112614ca157600080fd5b81356020614cb1614b8c83614b36565b82815260059290921b84018101918181019086841115614cd057600080fd5b8286015b84811015614bd257803567ffffffffffffffff811115614cf45760008081fd5b8701603f81018913614d065760008081fd5b614d17898683013560408401614c38565b845250918301918301614cd4565b600080600080600080600060e0888a031215614d4057600080fd5b873567ffffffffffffffff80821115614d5857600080fd5b614d648b838c01614b6b565b985060208a0135915080821115614d7a57600080fd5b614d868b838c01614bdd565b975060408a0135915080821115614d9c57600080fd5b614da88b838c01614bdd565b965060608a0135915080821115614dbe57600080fd5b614dca8b838c01614bdd565b955060808a0135915080821115614de057600080fd5b614dec8b838c01614c90565b945060a08a0135915080821115614e0257600080fd5b614e0e8b838c01614c90565b935060c08a0135915080821115614e2457600080fd5b50614e318a828b01614bdd565b91505092959891949750929550565b60008060408385031215614e5357600080fd5b8235614e5e81614a3a565b9150602083013567ffffffffffffffff811115614e7a57600080fd5b8301601f81018513614e8b57600080fd5b614e9a85823560208401614c38565b9150509250929050565b600060208284031215614eb657600080fd5b5035919050565b60008060408385031215614ed057600080fd5b8235614edb81614a3a565b9150614ee960208401614b5a565b90509250929050565b60008060408385031215614f0557600080fd5b8235614f1081614a3a565b946020939093013593505050565b602080825282516001600160a01b031682820152828101516060604084015280516080840181905260009291820190839060a08601905b80831015614f7857835160ff168252928401926001929092019190840190614f55565b5060ff60408801511660608701528094505050505092915050565b60008060208385031215614fa657600080fd5b823567ffffffffffffffff80821115614fbe57600080fd5b818501915085601f830112614fd257600080fd5b813581811115614fe157600080fd5b8660208260051b8501011115614ff657600080fd5b60209290920196919550909350505050565b6000806040838503121561501b57600080fd5b50508035926020909101359150565b60006020828403121561503c57600080fd5b61135482614b5a565b60005b83811015615060578181015183820152602001615048565b50506000910152565b60008151808452615081816020860160208601615045565b601f01601f19169290920160200192915050565b60ff8816815286602082015285604082015284606082015260e0608082015260006150c360e0830186615069565b82810360a08401526150d58186615069565b9150508260c083015298975050505050505050565b6000806000606084860312156150ff57600080fd5b61510884614b5a565b925061511660208501614a0d565b915061512460408501614a0d565b90509250925092565b600081518084526020808501945080840160005b838110156151665781516001600160a01b031687529582019590820190600101615141565b509495945050505050565b604081526000615184604083018561512d565b905061ffff831660208301529392505050565b6080815260006151aa608083018761512d565b85602084015282810360408401526151c2818661512d565b91505082606083015295945050505050565b600081518084526020808501945080840160005b83811015615166578151875295820195908201906001016151e8565b6020815261521e6020820183516001600160a01b03169052565b6000602083015161016080604085015261523c61018085018361512d565b91506040850151601f198086850301606087015261525a848361512d565b9350606087015191508086850301608087015261527784836151d4565b9350608087015160a087015260a087015160c087015260c087015160e087015260e087015191506101008187860301818801526152b485846151d4565b9450808801519250506101208187860301818801526152d385846151d4565b9450808801519250506101408187860301818801526152f285846151d4565b945080880151925050506153098286018215159052565b5090949350505050565b84815260806020820152600061532c60808301866151d4565b6040830194909452506001600160a01b039190911660609091015292915050565b60006020828403121561535f57600080fd5b8151801515811461135457600080fd5b60006020828403121561538157600080fd5b815161135481614a3a565b634e487b7160e01b600052603260045260246000fd5b634e487b7160e01b600052601160045260246000fd5b80820180821115610888576108886153a2565b6000600182016153dd576153dd6153a2565b5060010190565b6020808252601190820152702cb7ba9030b932903737ba1030b236b4b760791b604082015260600190565b600181811c9082168061542357607f821691505b602082108103613bed57634e487b7160e01b600052602260045260246000fd5b601f821115611a5f57600081815260208120601f850160051c8101602086101561546a5750805b601f850160051c820191505b8181101561548957828155600101615476565b505050505050565b815167ffffffffffffffff8111156154ab576154ab614aef565b6154bf816154b9845461540f565b84615443565b602080601f8311600181146154f457600084156154dc5750858301515b600019600386901b1c1916600185901b178555615489565b600085815260208120601f198616915b8281101561552357888601518255948401946001909101908401615504565b50858210156155415787850151600019600388901b60f8161c191681555b5050505050600190811b01905550565b6020808252602c908201527f46756e6374696f6e206d7573742062652063616c6c6564207468726f7567682060408201526b19195b1959d85d1958d85b1b60a21b606082015260800190565b6020808252602c908201527f46756e6374696f6e206d7573742062652063616c6c6564207468726f7567682060408201526b6163746976652070726f787960a01b606082015260800190565b600061ffff808316818103615600576156006153a2565b6001019392505050565b81810381811115610888576108886153a2565b600060ff821660ff8103615633576156336153a2565b60010192915050565b8082028115828204841417610888576108886153a2565b634e487b7160e01b600052601260045260246000fd5b60008261567857615678615653565b500490565b60008261568c5761568c615653565b500690565b61ffff8181168382160190808211156156ac576156ac6153a2565b5092915050565b6000602082840312156156c557600080fd5b5051919050565b6020808252602b908201527f496e697469616c697a61626c653a20636f6e7472616374206973206e6f74206960408201526a6e697469616c697a696e6760a81b606082015260800190565b61ffff8281168282160390808211156156ac576156ac6153a2565b600181815b8085111561576d578160001904821115615753576157536153a2565b8085161561576057918102915b93841c9390800290615737565b509250929050565b60008261578457506001610888565b8161579157506000610888565b81600181146157a757600281146157b1576157cd565b6001915050610888565b60ff8411156157c2576157c26153a2565b50506001821b610888565b5060208310610133831016604e8410600b84101617156157f0575081810a610888565b6157fa8383615732565b806000190482111561580e5761580e6153a2565b029392505050565b60006113548383615775565b60008251615834818460208701615045565b9190910192915050565b602081526000611354602083018461506956fe360894a13ba1a3210667c828492db98dca3e2076cc3735a920a3ca505d382bbc416464726573733a206c6f772d6c6576656c2064656c65676174652063616c6c206661696c6564a2646970667358221220f09eabfde6966466028164c9bbfe5ee5ea06ce13fdb8d114b9fb88717841a5b564736f6c63430008110033",
  "linkReferences": {},
  "deployedLinkReferences": {}
}