{
  "_format": "hh-sol-artifact-1",
  "contractName": "ReferralUpgradeable",
  "sourceName": "contracts/ReferralUpgradeable.sol",
  "abi": [
    {
      "anonymous": false,
      "inputs": [
        {
          "indexed": false,
          "internalType": "address",
          "name": "previousAdmin",
          "type": "address"
        },
        {
          "indexed": false,
          "internalType": "address",
          "name": "newAdmin",
          "type": "address"
        }
      ],
      "name": "AdminChanged",
      "type": "event"
    },
    {
      "anonymous": false,
      "inputs": [
        {
          "indexed": true,
          "internalType": "address",
          "name": "beacon",
          "type": "address"
        }
      ],
      "name": "BeaconUpgraded",
      "type": "event"
    },
    {
      "anonymous": false,
      "inputs": [
        {
          "indexed": true,
          "internalType": "address",
          "name": "userAddressaddress",
          "type": "address"
        }
      ],
      "name": "CoreMemberAdded",
      "type": "event"
    },
    {
      "anonymous": false,
      "inputs": [
        {
          "indexed": false,
          "internalType": "address",
          "name": "userAddress",
          "type": "address"
        }
      ],
      "name": "CoreMemberRemoved",
      "type": "event"
    },
    {
      "anonymous": false,
      "inputs": [
        {
          "indexed": true,
          "internalType": "uint256",
          "name": "value",
          "type": "uint256"
        },
        {
          "indexed": true,
          "internalType": "address",
          "name": "userAddress",
          "type": "address"
        }
      ],
      "name": "CoreMemberRewardPaid",
      "type": "event"
    },
    {
      "anonymous": false,
      "inputs": [
        {
          "indexed": false,
          "internalType": "address",
          "name": "userAddress",
          "type": "address"
        }
      ],
      "name": "GlobalAddressAdded",
      "type": "event"
    },
    {
      "anonymous": false,
      "inputs": [
        {
          "indexed": false,
          "internalType": "address",
          "name": "userAddress",
          "type": "address"
        }
      ],
      "name": "GlobalAddressRemoved",
      "type": "event"
    },
    {
      "anonymous": false,
      "inputs": [
        {
          "indexed": false,
          "internalType": "uint256",
          "name": "value",
          "type": "uint256"
        },
        {
          "indexed": false,
          "internalType": "address",
          "name": "userAddress",
          "type": "address"
        }
      ],
      "name": "GlobalRewardPaid",
      "type": "event"
    },
    {
      "anonymous": false,
      "inputs": [
        {
          "indexed": false,
          "internalType": "uint8",
          "name": "version",
          "type": "uint8"
        }
      ],
      "name": "Initialized",
      "type": "event"
    },
    {
      "anonymous": false,
      "inputs": [
        {
          "indexed": true,
          "internalType": "address",
          "name": "previousOwner",
          "type": "address"
        },
        {
          "indexed": true,
          "internalType": "address",
          "name": "newOwner",
          "type": "address"
        }
      ],
      "name": "OwnershipTransferred",
      "type": "event"
    },
    {
      "anonymous": false,
      "inputs": [
        {
          "indexed": true,
          "internalType": "uint256",
          "name": "value",
          "type": "uint256"
        },
        {
          "indexed": true,
          "internalType": "address",
          "name": "userAddress",
          "type": "address"
        }
      ],
      "name": "PassiveRewardPaid",
      "type": "event"
    },
    {
      "anonymous": false,
      "inputs": [
        {
          "indexed": false,
          "internalType": "address",
          "name": "account",
          "type": "address"
        }
      ],
      "name": "Paused",
      "type": "event"
    },
    {
      "anonymous": false,
      "inputs": [
        {
          "indexed": true,
          "internalType": "address",
          "name": "referee",
          "type": "address"
        },
        {
          "indexed": true,
          "internalType": "address",
          "name": "referrer",
          "type": "address"
        },
        {
          "indexed": true,
          "internalType": "uint256",
          "name": "amount",
          "type": "uint256"
        },
        {
          "indexed": false,
          "internalType": "uint256",
          "name": "level",
          "type": "uint256"
        },
        {
          "indexed": false,
          "internalType": "string",
          "name": "currency",
          "type": "string"
        }
      ],
      "name": "ReferralRewardPaid",
      "type": "event"
    },
    {
      "anonymous": false,
      "inputs": [
        {
          "indexed": true,
          "internalType": "address",
          "name": "referee",
          "type": "address"
        },
        {
          "indexed": true,
          "internalType": "address",
          "name": "referrer",
          "type": "address"
        },
        {
          "indexed": true,
          "internalType": "string",
          "name": "reason",
          "type": "string"
        }
      ],
      "name": "RegisterRefererFailed",
      "type": "event"
    },
    {
      "anonymous": false,
      "inputs": [
        {
          "indexed": true,
          "internalType": "address",
          "name": "referee",
          "type": "address"
        },
        {
          "indexed": true,
          "internalType": "address",
          "name": "referrer",
          "type": "address"
        }
      ],
      "name": "RegisteredReferer",
      "type": "event"
    },
    {
      "anonymous": false,
      "inputs": [
        {
          "indexed": true,
          "internalType": "address",
          "name": "parent",
          "type": "address"
        },
        {
          "indexed": true,
          "internalType": "address",
          "name": "referrer",
          "type": "address"
        },
        {
          "indexed": true,
          "internalType": "address",
          "name": "referee",
          "type": "address"
        }
      ],
      "name": "RegisteredTeamAddress",
      "type": "event"
    },
    {
      "anonymous": false,
      "inputs": [
        {
          "indexed": false,
          "internalType": "address",
          "name": "userAddress",
          "type": "address"
        },
        {
          "indexed": false,
          "internalType": "uint8",
          "name": "rewardId",
          "type": "uint8"
        }
      ],
      "name": "RewardAccountAdded",
      "type": "event"
    },
    {
      "anonymous": false,
      "inputs": [
        {
          "indexed": false,
          "internalType": "address",
          "name": "userAddress",
          "type": "address"
        },
        {
          "indexed": false,
          "internalType": "uint8",
          "name": "rewardId",
          "type": "uint8"
        }
      ],
      "name": "RewardAccountPaid",
      "type": "event"
    },
    {
      "anonymous": false,
      "inputs": [
        {
          "indexed": false,
          "internalType": "uint8",
          "name": "id",
          "type": "uint8"
        },
        {
          "indexed": false,
          "internalType": "uint256",
          "name": "selfBusinessLimit",
          "type": "uint256"
        },
        {
          "indexed": false,
          "internalType": "uint256",
          "name": "directBusinessLimit",
          "type": "uint256"
        },
        {
          "indexed": false,
          "internalType": "uint256",
          "name": "teamBusinessLimit",
          "type": "uint256"
        },
        {
          "indexed": false,
          "internalType": "string",
          "name": "rankName",
          "type": "string"
        },
        {
          "indexed": false,
          "internalType": "string",
          "name": "rewardName",
          "type": "string"
        },
        {
          "indexed": false,
          "internalType": "uint256",
          "name": "appraisal",
          "type": "uint256"
        }
      ],
      "name": "RewardAdded",
      "type": "event"
    },
    {
      "anonymous": false,
      "inputs": [
        {
          "indexed": false,
          "internalType": "address",
          "name": "account",
          "type": "address"
        }
      ],
      "name": "Unpaused",
      "type": "event"
    },
    {
      "anonymous": false,
      "inputs": [
        {
          "indexed": true,
          "internalType": "address",
          "name": "implementation",
          "type": "address"
        }
      ],
      "name": "Upgraded",
      "type": "event"
    },
    {
      "inputs": [
        {
          "internalType": "address[]",
          "name": "_userAddress",
          "type": "address[]"
        },
        {
          "internalType": "address[]",
          "name": "_referrerAddress",
          "type": "address[]"
        }
      ],
      "name": "addReferrerAdmin",
      "outputs": [],
      "stateMutability": "nonpayable",
      "type": "function"
    },
    {
      "inputs": [
        {
          "internalType": "address",
          "name": "",
          "type": "address"
        }
      ],
      "name": "addressToId",
      "outputs": [
        {
          "internalType": "uint16",
          "name": "",
          "type": "uint16"
        }
      ],
      "stateMutability": "view",
      "type": "function"
    },
    {
      "inputs": [],
      "name": "contractDefaults",
      "outputs": [
        {
          "internalType": "uint256",
          "name": "levelDecimals",
          "type": "uint256"
        },
        {
          "internalType": "uint256[]",
          "name": "levelRates",
          "type": "uint256[]"
        },
        {
          "internalType": "uint256",
          "name": "totalLevelRate",
          "type": "uint256"
        },
        {
          "internalType": "address",
          "name": "defaultReferrer",
          "type": "address"
        }
      ],
      "stateMutability": "view",
      "type": "function"
    },
    {
      "inputs": [
        {
          "internalType": "uint8",
          "name": "_rewardId",
          "type": "uint8"
        },
        {
          "internalType": "uint16",
          "name": "_from",
          "type": "uint16"
        },
        {
          "internalType": "uint16",
          "name": "_to",
          "type": "uint16"
        }
      ],
      "name": "getRewardQualifiedUsers",
      "outputs": [
        {
          "internalType": "address[]",
          "name": "_userAddress",
          "type": "address[]"
        },
        {
          "internalType": "uint16",
          "name": "_achieversListCount",
          "type": "uint16"
        }
      ],
      "stateMutability": "view",
      "type": "function"
    },
    {
      "inputs": [
        {
          "internalType": "address",
          "name": "_address",
          "type": "address"
        }
      ],
      "name": "getUserAccount",
      "outputs": [
        {
          "components": [
            {
              "internalType": "address",
              "name": "referrer",
              "type": "address"
            },
            {
              "internalType": "address[]",
              "name": "referee",
              "type": "address[]"
            },
            {
              "internalType": "address[]",
              "name": "team",
              "type": "address[]"
            },
            {
              "internalType": "uint256[]",
              "name": "topUp",
              "type": "uint256[]"
            },
            {
              "internalType": "uint256",
              "name": "selfBusiness",
              "type": "uint256"
            },
            {
              "internalType": "uint256",
              "name": "directBusiness",
              "type": "uint256"
            },
            {
              "internalType": "uint256",
              "name": "totalBusiness",
              "type": "uint256"
            },
            {
              "internalType": "uint256[]",
              "name": "rewardsPaidReferral",
              "type": "uint256[]"
            },
            {
              "internalType": "uint256[]",
              "name": "rewardsPaidGlobal",
              "type": "uint256[]"
            },
            {
              "internalType": "uint256[]",
              "name": "rewardPaidPassive",
              "type": "uint256[]"
            },
            {
              "internalType": "bool",
              "name": "isInGlobalID",
              "type": "bool"
            }
          ],
          "internalType": "struct ReferralUpgradeable.Account",
          "name": "userAccount",
          "type": "tuple"
        }
      ],
      "stateMutability": "view",
      "type": "function"
    },
    {
      "inputs": [
        {
          "internalType": "address",
          "name": "_address",
          "type": "address"
        }
      ],
      "name": "getUserReferrerAddress",
      "outputs": [
        {
          "internalType": "address",
          "name": "referrer",
          "type": "address"
        }
      ],
      "stateMutability": "view",
      "type": "function"
    },
    {
      "inputs": [
        {
          "internalType": "address",
          "name": "_userAddress",
          "type": "address"
        }
      ],
      "name": "getUserRewardQualified",
      "outputs": [
        {
          "internalType": "uint8",
          "name": "rewardId",
          "type": "uint8"
        }
      ],
      "stateMutability": "view",
      "type": "function"
    },
    {
      "inputs": [
        {
          "internalType": "address",
          "name": "_address",
          "type": "address"
        }
      ],
      "name": "getUserTeam",
      "outputs": [
        {
          "internalType": "address[]",
          "name": "userReferee",
          "type": "address[]"
        },
        {
          "internalType": "uint256",
          "name": "userRefereeCount",
          "type": "uint256"
        },
        {
          "internalType": "address[]",
          "name": "userTeamAddress",
          "type": "address[]"
        },
        {
          "internalType": "uint256",
          "name": "userTeamCount",
          "type": "uint256"
        }
      ],
      "stateMutability": "view",
      "type": "function"
    },
    {
      "inputs": [
        {
          "internalType": "address",
          "name": "_address",
          "type": "address"
        }
      ],
      "name": "getUserTotalBusiness",
      "outputs": [
        {
          "internalType": "uint256",
          "name": "selfBusiness",
          "type": "uint256"
        },
        {
          "internalType": "uint256",
          "name": "directBusiness",
          "type": "uint256"
        },
        {
          "internalType": "uint256",
          "name": "refereeTeamBusiness",
          "type": "uint256"
        },
        {
          "internalType": "uint256",
          "name": "totalBusiness",
          "type": "uint256"
        }
      ],
      "stateMutability": "view",
      "type": "function"
    },
    {
      "inputs": [
        {
          "internalType": "address",
          "name": "_address",
          "type": "address"
        }
      ],
      "name": "getUserTotalRewardPaid",
      "outputs": [
        {
          "internalType": "uint256",
          "name": "rewardsAUSD",
          "type": "uint256"
        },
        {
          "internalType": "uint256",
          "name": "rewardsGlobal",
          "type": "uint256"
        },
        {
          "internalType": "uint256",
          "name": "rewardsPassive",
          "type": "uint256"
        }
      ],
      "stateMutability": "view",
      "type": "function"
    },
    {
      "inputs": [],
      "name": "getVariablesContract",
      "outputs": [
        {
          "internalType": "address",
          "name": "",
          "type": "address"
        }
      ],
      "stateMutability": "view",
      "type": "function"
    },
    {
      "inputs": [
        {
          "internalType": "address",
          "name": "_address",
          "type": "address"
        }
      ],
      "name": "hasReferrer",
      "outputs": [
        {
          "internalType": "bool",
          "name": "",
          "type": "bool"
        }
      ],
      "stateMutability": "view",
      "type": "function"
    },
    {
      "inputs": [
        {
          "internalType": "uint16",
          "name": "",
          "type": "uint16"
        }
      ],
      "name": "idToAddress",
      "outputs": [
        {
          "internalType": "address",
          "name": "",
          "type": "address"
        }
      ],
      "stateMutability": "view",
      "type": "function"
    },
    {
      "inputs": [
        {
          "internalType": "address[]",
          "name": "_userAddress",
          "type": "address[]"
        }
      ],
      "name": "includeUsersInList",
      "outputs": [],
      "stateMutability": "nonpayable",
      "type": "function"
    },
    {
      "inputs": [],
      "name": "initialize",
      "outputs": [],
      "stateMutability": "nonpayable",
      "type": "function"
    },
    {
      "inputs": [],
      "name": "owner",
      "outputs": [
        {
          "internalType": "address",
          "name": "",
          "type": "address"
        }
      ],
      "stateMutability": "view",
      "type": "function"
    },
    {
      "inputs": [],
      "name": "pause",
      "outputs": [],
      "stateMutability": "nonpayable",
      "type": "function"
    },
    {
      "inputs": [],
      "name": "paused",
      "outputs": [
        {
          "internalType": "bool",
          "name": "",
          "type": "bool"
        }
      ],
      "stateMutability": "view",
      "type": "function"
    },
    {
      "inputs": [
        {
          "internalType": "uint256",
          "name": "_valueInUSD",
          "type": "uint256"
        },
        {
          "internalType": "address",
          "name": "_userAddress",
          "type": "address"
        },
        {
          "internalType": "address",
          "name": "_referrerAddress",
          "type": "address"
        }
      ],
      "name": "payReferralANUSDAdmin",
      "outputs": [],
      "stateMutability": "nonpayable",
      "type": "function"
    },
    {
      "inputs": [
        {
          "internalType": "address",
          "name": "_userAddress",
          "type": "address"
        }
      ],
      "name": "payReward",
      "outputs": [],
      "stateMutability": "nonpayable",
      "type": "function"
    },
    {
      "inputs": [],
      "name": "proxiableUUID",
      "outputs": [
        {
          "internalType": "bytes32",
          "name": "",
          "type": "bytes32"
        }
      ],
      "stateMutability": "view",
      "type": "function"
    },
    {
      "inputs": [],
      "name": "renounceOwnership",
      "outputs": [],
      "stateMutability": "nonpayable",
      "type": "function"
    },
    {
      "inputs": [
        {
          "internalType": "address",
          "name": "",
          "type": "address"
        }
      ],
      "name": "rewardAccount",
      "outputs": [
        {
          "internalType": "address",
          "name": "userAdddress",
          "type": "address"
        },
        {
          "internalType": "uint8",
          "name": "lastRewardId",
          "type": "uint8"
        }
      ],
      "stateMutability": "view",
      "type": "function"
    },
    {
      "inputs": [
        {
          "internalType": "uint8",
          "name": "",
          "type": "uint8"
        }
      ],
      "name": "rewards",
      "outputs": [
        {
          "internalType": "uint8",
          "name": "id",
          "type": "uint8"
        },
        {
          "internalType": "uint256",
          "name": "selfBusinessLimit",
          "type": "uint256"
        },
        {
          "internalType": "uint256",
          "name": "directBusinessLimit",
          "type": "uint256"
        },
        {
          "internalType": "uint256",
          "name": "teamBusinessLimit",
          "type": "uint256"
        },
        {
          "internalType": "string",
          "name": "rankName",
          "type": "string"
        },
        {
          "internalType": "string",
          "name": "rewardName",
          "type": "string"
        },
        {
          "internalType": "uint256",
          "name": "appraisal",
          "type": "uint256"
        }
      ],
      "stateMutability": "view",
      "type": "function"
    },
    {
      "inputs": [
        {
          "internalType": "address payable",
          "name": "_address",
          "type": "address"
        }
      ],
      "name": "setDefaultReferrer",
      "outputs": [],
      "stateMutability": "nonpayable",
      "type": "function"
    },
    {
      "inputs": [
        {
          "internalType": "uint256",
          "name": "_value",
          "type": "uint256"
        }
      ],
      "name": "setLevelDecimals",
      "outputs": [
        {
          "internalType": "bool",
          "name": "",
          "type": "bool"
        }
      ],
      "stateMutability": "nonpayable",
      "type": "function"
    },
    {
      "inputs": [
        {
          "internalType": "uint256[]",
          "name": "_valueInArray",
          "type": "uint256[]"
        }
      ],
      "name": "setLevelRates",
      "outputs": [],
      "stateMutability": "nonpayable",
      "type": "function"
    },
    {
      "inputs": [
        {
          "internalType": "uint8[]",
          "name": "_id",
          "type": "uint8[]"
        },
        {
          "internalType": "uint256[]",
          "name": "_selfBusinessLimit",
          "type": "uint256[]"
        },
        {
          "internalType": "uint256[]",
          "name": "_directBusinessLimit",
          "type": "uint256[]"
        },
        {
          "internalType": "uint256[]",
          "name": "_teamBusinessLimit",
          "type": "uint256[]"
        },
        {
          "internalType": "string[]",
          "name": "_rankName",
          "type": "string[]"
        },
        {
          "internalType": "string[]",
          "name": "_rewardName",
          "type": "string[]"
        },
        {
          "internalType": "uint256[]",
          "name": "_appraisal",
          "type": "uint256[]"
        }
      ],
      "name": "setRewards",
      "outputs": [],
      "stateMutability": "nonpayable",
      "type": "function"
    },
    {
      "inputs": [
        {
          "internalType": "address",
          "name": "_contractAddress",
          "type": "address"
        }
      ],
      "name": "setVariablesContract",
      "outputs": [],
      "stateMutability": "nonpayable",
      "type": "function"
    },
    {
      "inputs": [],
      "name": "totalUsers",
      "outputs": [
        {
          "internalType": "uint16",
          "name": "",
          "type": "uint16"
        }
      ],
      "stateMutability": "view",
      "type": "function"
    },
    {
      "inputs": [
        {
          "internalType": "address",
          "name": "_address",
          "type": "address"
        },
        {
          "internalType": "uint256",
          "name": "_value",
          "type": "uint256"
        }
      ],
      "name": "transferNative",
      "outputs": [],
      "stateMutability": "nonpayable",
      "type": "function"
    },
    {
      "inputs": [
        {
          "internalType": "address",
          "name": "newOwner",
          "type": "address"
        }
      ],
      "name": "transferOwnership",
      "outputs": [],
      "stateMutability": "nonpayable",
      "type": "function"
    },
    {
      "inputs": [],
      "name": "unpause",
      "outputs": [],
      "stateMutability": "nonpayable",
      "type": "function"
    },
    {
      "inputs": [
        {
          "internalType": "address",
          "name": "newImplementation",
          "type": "address"
        }
      ],
      "name": "upgradeTo",
      "outputs": [],
      "stateMutability": "nonpayable",
      "type": "function"
    },
    {
      "inputs": [
        {
          "internalType": "address",
          "name": "newImplementation",
          "type": "address"
        },
        {
          "internalType": "bytes",
          "name": "data",
          "type": "bytes"
        }
      ],
      "name": "upgradeToAndCall",
      "outputs": [],
      "stateMutability": "payable",
      "type": "function"
    },
    {
      "inputs": [
        {
          "internalType": "uint256",
          "name": "",
          "type": "uint256"
        }
      ],
      "name": "usersList",
      "outputs": [
        {
          "internalType": "address",
          "name": "",
          "type": "address"
        }
      ],
      "stateMutability": "view",
      "type": "function"
    },
    {
      "inputs": [],
      "name": "withdrawNative",
      "outputs": [],
      "stateMutability": "nonpayable",
      "type": "function"
    },
    {
      "inputs": [
        {
          "internalType": "address",
          "name": "_tokenAddress",
          "type": "address"
        },
        {
          "internalType": "uint256",
          "name": "_value",
          "type": "uint256"
        }
      ],
      "name": "withdrawtokens",
      "outputs": [],
      "stateMutability": "nonpayable",
      "type": "function"
    },
    {
      "stateMutability": "payable",
      "type": "receive"
    }
  ],
  "bytecode": "0x60a06040523060805234801561001457600080fd5b5060805161514361004c6000396000818161146f015281816114af01528181611560015281816115a0015261169201526151436000f3fe6080604052600436106102295760003560e01c80638129fc1c11610123578063cfbdb859116100ab578063f13a143f1161006f578063f13a143f1461073e578063f2fde38b1461075c578063faeda7e51461077c578063fb47e016146107ac578063fb5d4526146107d957600080fd5b8063cfbdb85914610663578063dcf6e81914610683578063dd1ca716146106a3578063e5ffb5df146106d1578063ef519dc01461070357600080fd5b80638e9b277d116100f25780638e9b277d1461058f5780638f3ddc9f146105af5780639b317cc4146105cf578063bff1f9e114610602578063cb0e0d7d1461063157600080fd5b80638129fc1c146105275780638456cb591461053c5780638a93f7b9146105515780638da5cb5b1461057157600080fd5b80633659cfe6116101b157806350431ce41161017557806350431ce4146104a257806352d1902d146104b75780635c975abb146104da578063715018a6146104f25780637d2e90c21461050757600080fd5b80633659cfe6146104005780633f4ba83a1461042057806343b4ebf4146104355780634f1ef2861461046f578063502aa3b51461048257600080fd5b80632405091c116101f85780632405091c146102fb578063277bb9001461033b5780632bb5112d1461035b578063345b5b85146103c057806335166fef146103e057600080fd5b8063025313ff146102355780630ba0dba31461028957806318452cd8146102ab578063228159b4146102db57600080fd5b3661023057005b600080fd5b34801561024157600080fd5b5061026c61025036600461445b565b61010c602052600090815260409020546001600160a01b031681565b6040516001600160a01b0390911681526020015b60405180910390f35b34801561029557600080fd5b506102a96102a436600461448b565b6107fe565b005b3480156102b757600080fd5b506102cb6102c636600461448b565b610828565b6040519015158152602001610280565b3480156102e757600080fd5b506102a96102f63660046144a8565b61084f565b34801561030757600080fd5b5061031b61031636600461448b565b610b43565b604080519485526020850193909352918301526060820152608001610280565b34801561034757600080fd5b506102a96103563660046144ea565b611132565b34801561036757600080fd5b5061039f61037636600461448b565b61010a60205260009081526040902080546002909101546001600160a01b039091169060ff1682565b604080516001600160a01b03909316835260ff909116602083015201610280565b3480156103cc57600080fd5b506102a96103db366004614561565b6111b0565b3480156103ec57600080fd5b506102a96103fb3660046147d4565b6111c4565b34801561040c57600080fd5b506102a961041b36600461448b565b611465565b34801561042c57600080fd5b506102a9611544565b34801561044157600080fd5b5061026c61045036600461448b565b6001600160a01b03908116600090815261010960205260409020541690565b6102a961047d3660046148ee565b611556565b34801561048e57600080fd5b5061026c61049d366004614951565b611626565b3480156104ae57600080fd5b506102a9611651565b3480156104c357600080fd5b506104cc611685565b604051908152602001610280565b3480156104e657600080fd5b5060335460ff166102cb565b3480156104fe57600080fd5b506102a9611738565b34801561051357600080fd5b506102a96105223660046144ea565b61174a565b34801561053357600080fd5b506102a9611788565b34801561054857600080fd5b506102a961196e565b34801561055d57600080fd5b506102a961056c366004614561565b61197e565b34801561057d57600080fd5b506065546001600160a01b031661026c565b34801561059b57600080fd5b506102a96105aa36600461448b565b6119d2565b3480156105bb57600080fd5b506102a96105ca36600461496a565b6119da565b3480156105db57600080fd5b506105ef6105ea3660046149d5565b611ab5565b6040516102809796959493929190614a40565b34801561060e57600080fd5b5061010f5461061e9061ffff1681565b60405161ffff9091168152602001610280565b34801561063d57600080fd5b5061061e61064c36600461448b565b61010d6020526000908152604090205461ffff1681565b34801561066f57600080fd5b506102cb61067e366004614951565b611c07565b34801561068f57600080fd5b506102a961069e36600461448b565b611c1f565b3480156106af57600080fd5b506106c36106be366004614a95565b611c4a565b604051610280929190614b1c565b3480156106dd57600080fd5b506106f16106ec36600461448b565b611d27565b60405160ff9091168152602001610280565b34801561070f57600080fd5b5061072361071e36600461448b565b6121b8565b60408051938452602084019290925290820152606001610280565b34801561074a57600080fd5b5060fb546001600160a01b031661026c565b34801561076857600080fd5b506102a961077736600461448b565b6122d3565b34801561078857600080fd5b5061079c61079736600461448b565b612349565b6040516102809493929190614b42565b3480156107b857600080fd5b506107cc6107c736600461448b565b612436565b6040516102809190614baf565b3480156107e557600080fd5b506107ee612723565b6040516102809493929190614cbe565b6108066127ea565b60fb80546001600160a01b0319166001600160a01b0392909216919091179055565b6001600160a01b038082166000908152610109602052604081205490911615155b92915050565b336108626065546001600160a01b031690565b6001600160a01b0316816001600160a01b03161480610908575060fb60009054906101000a90046001600160a01b03166001600160a01b03166363d9df856040518163ffffffff1660e01b8152600401602060405180830381865afa1580156108cf573d6000803e3d6000fd5b505050506040513d601f19601f820116820180604052508101906108f39190614cf8565b6001600160a01b0316816001600160a01b0316145b6109645760405162461bcd60e51b815260206004820152602260248201527f4f6e6c79206f776e65722063616e2063616c6c20746869732066756e6374696f604482015261371760f11b60648201526084015b60405180910390fd5b6001600160a01b03838116600090815261010960205260409020541615801561099557506001600160a01b03821615155b156109a4576109a48383612844565b6001600160a01b0382811660009081526101096020526040902054161580156109d557506001600160a01b03821615155b80156109f05750610100546001600160a01b03838116911614155b15610a0d5761010054610a0d9083906001600160a01b0316612844565b610a17848461298c565b610a236103e885614d41565b6040516370a0823160e01b8152306004820152737f9fd63932babc508fad2f324eb534d09cfe86f0906370a0823190602401602060405180830381865afa158015610a72573d6000803e3d6000fd5b505050506040513d601f19601f82011682018060405250810190610a969190614d55565b1115610b3457737f9fd63932babc508fad2f324eb534d09cfe86f063a9059cbb84610ac36103e888614d41565b6040516001600160e01b031960e085901b1681526001600160a01b03909216600483015260248201526044016020604051808303816000875af1158015610b0e573d6000803e3d6000fd5b505050506040513d601f19601f82011682018060405250810190610b329190614d6e565b505b610b3d836133e7565b50505050565b6001600160a01b0381166000908152610109602052604081206001810154600482015492918291829190825b81811015610e465760006101096000856001018481548110610b9357610b93614d90565b60009182526020808320909101546001600160a01b03908116845283820194909452604092830190912082516101608101845281549094168452600181018054845181850281018501909552808552919385840193909290830182828015610c2457602002820191906000526020600020905b81546001600160a01b03168152600190910190602001808311610c06575b5050505050815260200160028201805480602002602001604051908101604052809291908181526020018280548015610c8657602002820191906000526020600020905b81546001600160a01b03168152600190910190602001808311610c68575b5050505050815260200160038201805480602002602001604051908101604052809291908181526020018280548015610cde57602002820191906000526020600020905b815481526020019060010190808311610cca575b5050505050815260200160048201548152602001600582015481526020016006820154815260200160078201805480602002602001604051908101604052809291908181526020018280548015610d5457602002820191906000526020600020905b815481526020019060010190808311610d40575b5050505050815260200160088201805480602002602001604051908101604052809291908181526020018280548015610dac57602002820191906000526020600020905b815481526020019060010190808311610d98575b5050505050815260200160098201805480602002602001604051908101604052809291908181526020018280548015610e0457602002820191906000526020600020905b815481526020019060010190808311610df0575b5050509183525050600a919091015460ff1615156020909101526080810151909150610e309088614da6565b9650508080610e3e90614db9565b915050610b6f565b5060005b818110156111215760006101096000856001018481548110610e6e57610e6e614d90565b60009182526020808320909101546001600160a01b03908116845283820194909452604092830190912082516101608101845281549094168452600181018054845181850281018501909552808552919385840193909290830182828015610eff57602002820191906000526020600020905b81546001600160a01b03168152600190910190602001808311610ee1575b5050505050815260200160028201805480602002602001604051908101604052809291908181526020018280548015610f6157602002820191906000526020600020905b81546001600160a01b03168152600190910190602001808311610f43575b5050505050815260200160038201805480602002602001604051908101604052809291908181526020018280548015610fb957602002820191906000526020600020905b815481526020019060010190808311610fa5575b505050505081526020016004820154815260200160058201548152602001600682015481526020016007820180548060200260200160405190810160405280929190818152602001828054801561102f57602002820191906000526020600020905b81548152602001906001019080831161101b575b505050505081526020016008820180548060200260200160405190810160405280929190818152602001828054801561108757602002820191906000526020600020905b815481526020019060010190808311611073575b50505050508152602001600982018054806020026020016040519081016040528092919081815260200182805480156110df57602002820191906000526020600020905b8154815260200190600101908083116110cb575b5050509183525050600a919091015460ff16151560209091015260c081015190915061110b9087614da6565b955050808061111990614db9565b915050610e4a565b508160060154925050509193509193565b61113a6127ea565b60405163a9059cbb60e01b8152336004820152602481018290526001600160a01b0383169063a9059cbb906044016020604051808303816000875af1158015611187573d6000803e3d6000fd5b505050506040513d601f19601f820116820180604052508101906111ab9190614d6e565b505050565b6111b86127ea565b6111ab60fc83836143a9565b6111cc6127ea565b60005b875181101561145b576040518060e001604052808983815181106111f5576111f5614d90565b602002602001015160ff16815260200188838151811061121757611217614d90565b6020026020010151815260200187838151811061123657611236614d90565b6020026020010151815260200186838151811061125557611255614d90565b6020026020010151815260200185838151811061127457611274614d90565b6020026020010151815260200184838151811061129357611293614d90565b602002602001015181526020018383815181106112b2576112b2614d90565b602002602001015181525061010b60008a84815181106112d4576112d4614d90565b60209081029190910181015160ff90811683528282019390935260409182016000208451815460ff191694169390931783558301516001830155820151600282015560608201516003820155608082015160048201906113349082614e54565b5060a082015160058201906113499082614e54565b5060c082015181600601559050507fb9f30bf0ab6748f3fcfbc9d280ed1feedea51276343f55f8342b8c453b876e9a88828151811061138a5761138a614d90565b60200260200101518883815181106113a4576113a4614d90565b60200260200101518884815181106113be576113be614d90565b60200260200101518885815181106113d8576113d8614d90565b60200260200101518886815181106113f2576113f2614d90565b602002602001015188878151811061140c5761140c614d90565b602002602001015188888151811061142657611426614d90565b60200260200101516040516114419796959493929190614a40565b60405180910390a18061145381614db9565b9150506111cf565b5050505050505050565b6001600160a01b037f00000000000000000000000000000000000000000000000000000000000000001630036114ad5760405162461bcd60e51b815260040161095b90614f13565b7f00000000000000000000000000000000000000000000000000000000000000006001600160a01b03166114f66000805160206150c7833981519152546001600160a01b031690565b6001600160a01b03161461151c5760405162461bcd60e51b815260040161095b90614f5f565b611525816119d2565b60408051600080825260208201909252611541918391906134de565b50565b61154c6127ea565b611554613649565b565b6001600160a01b037f000000000000000000000000000000000000000000000000000000000000000016300361159e5760405162461bcd60e51b815260040161095b90614f13565b7f00000000000000000000000000000000000000000000000000000000000000006001600160a01b03166115e76000805160206150c7833981519152546001600160a01b031690565b6001600160a01b03161461160d5760405162461bcd60e51b815260040161095b90614f5f565b611616826119d2565b611622828260016134de565b5050565b61010e818154811061163757600080fd5b6000918252602090912001546001600160a01b0316905081565b6116596127ea565b60405133904780156108fc02916000818181858888f19350505050158015611541573d6000803e3d6000fd5b6000306001600160a01b037f000000000000000000000000000000000000000000000000000000000000000016146117255760405162461bcd60e51b815260206004820152603860248201527f555550535570677261646561626c653a206d757374206e6f742062652063616c60448201527f6c6564207468726f7567682064656c656761746563616c6c0000000000000000606482015260840161095b565b506000805160206150c783398151915290565b6117406127ea565b611554600061369b565b6117526127ea565b6040516001600160a01b0383169082156108fc029083906000818181858888f193505050501580156111ab573d6000803e3d6000fd5b600054610100900460ff16158080156117a85750600054600160ff909116105b806117c25750303b1580156117c2575060005460ff166001145b6118255760405162461bcd60e51b815260206004820152602e60248201527f496e697469616c697a61626c653a20636f6e747261637420697320616c72656160448201526d191e481a5b9a5d1a585b1a5e995960921b606482015260840161095b565b6000805460ff191660011790558015611848576000805461ff0019166101001790555b60fb80546001600160a01b03199081167377daafc7411c911b869c71bf70fe36cce507845d17909155610100805490911673f3ba579d4afd4dad8a8c2d1bcbdd1405688e492f1790556040805160e0810182526007808252600460208301526003928201929092526002606082015260016080820181905260a0820181905260c08201526118d99160fc91906143f4565b50606460fd5560146101065569011478b7c30abc3000006101035560046101015560056101045568a80d24677efef00000610105556119166136ed565b61191e61371c565b61192661374b565b8015611541576000805461ff0019169055604051600181527f7f26b83ff96e1f2b6a682f133852f6798a09c465da95921460cefb38474024989060200160405180910390a150565b6119766127ea565b611554613772565b6119866127ea565b60005b818110156111ab576119c08383838181106119a6576119a6614d90565b90506020020160208101906119bb919061448b565b6133e7565b806119ca81614db9565b915050611989565b6115416127ea565b6119e26127ea565b828114611a3b5760405162461bcd60e51b815260206004820152602160248201527f4c656e677468206973206e6f7420657175616c20706c6561736520636865636b6044820152601760f91b606482015260840161095b565b60005b83811015611aae57611a9c858583818110611a5b57611a5b614d90565b9050602002016020810190611a70919061448b565b848484818110611a8257611a82614d90565b9050602002016020810190611a97919061448b565b612844565b80611aa681614db9565b915050611a3e565b5050505050565b61010b602052600090815260409020805460018201546002830154600384015460048501805460ff90951695939492939192611af090614dd2565b80601f0160208091040260200160405190810160405280929190818152602001828054611b1c90614dd2565b8015611b695780601f10611b3e57610100808354040283529160200191611b69565b820191906000526020600020905b815481529060010190602001808311611b4c57829003601f168201915b505050505090806005018054611b7e90614dd2565b80601f0160208091040260200160405190810160405280929190818152602001828054611baa90614dd2565b8015611bf75780601f10611bcc57610100808354040283529160200191611bf7565b820191906000526020600020905b815481529060010190602001808311611bda57829003601f168201915b5050505050908060060154905087565b6000611c116127ea565b5060fd81905560015b919050565b611c276127ea565b61010080546001600160a01b0319166001600160a01b0392909216919091179055565b60606000806000611c5c8787876137af565b915091508092508061ffff166001600160401b03811115611c7f57611c7f6145a2565b604051908082528060200260200182016040528015611ca8578160200160208202803683370190505b50935060005b8161ffff168161ffff161015611d1c57828161ffff1681518110611cd457611cd4614d90565b6020026020010151858261ffff1681518110611cf257611cf2614d90565b6001600160a01b039092166020928302919091019091015280611d1481614fab565b915050611cae565b505050935093915050565b6001600160a01b038082166000908152610109602090815260408083208151610160810183528154909516855260018101805483518186028101860190945280845294958695909492938584019390929190830182828015611db257602002820191906000526020600020905b81546001600160a01b03168152600190910190602001808311611d94575b5050505050815260200160028201805480602002602001604051908101604052809291908181526020018280548015611e1457602002820191906000526020600020905b81546001600160a01b03168152600190910190602001808311611df6575b5050505050815260200160038201805480602002602001604051908101604052809291908181526020018280548015611e6c57602002820191906000526020600020905b815481526020019060010190808311611e58575b5050505050815260200160048201548152602001600582015481526020016006820154815260200160078201805480602002602001604051908101604052809291908181526020018280548015611ee257602002820191906000526020600020905b815481526020019060010190808311611ece575b5050505050815260200160088201805480602002602001604051908101604052809291908181526020018280548015611f3a57602002820191906000526020600020905b815481526020019060010190808311611f26575b5050505050815260200160098201805480602002602001604051908101604052809291908181526020018280548015611f9257602002820191906000526020600020905b815481526020019060010190808311611f7e575b5050509183525050600a919091015460ff16151560209091015290506000805b60148160ff1610156121b05760ff808216600090815261010b60209081526040808320815160e081018352815490951685526001810154928501929092526002820154908401526003810154606084015260048101805492939260808401919061201b90614dd2565b80601f016020809104026020016040519081016040528092919081815260200182805461204790614dd2565b80156120945780601f1061206957610100808354040283529160200191612094565b820191906000526020600020905b81548152906001019060200180831161207757829003601f168201915b505050505081526020016005820180546120ad90614dd2565b80601f01602080910402602001604051908101604052809291908181526020018280546120d990614dd2565b80156121265780601f106120fb57610100808354040283529160200191612126565b820191906000526020600020905b81548152906001019060200180831161210957829003601f168201915b50505050508152602001600682015481525050905060028260ff1611801561215057506020810151155b1561215b57506121b0565b806020015161216985613cbe565b1015801561217f575080604001518460a0015110155b80156121945750612194848260600151613d5c565b1561219d578192505b50806121a881614fcc565b915050611fb2565b509392505050565b6001600160a01b0381166000908152610109602052604081206007810154600882015460098301548493849390929091845b838110156122315784600701818154811061220757612207614d90565b90600052602060002001548861221d9190614da6565b97508061222981614db9565b9150506121ea565b5060005b8281101561227c5784600801818154811061225257612252614d90565b9060005260206000200154876122689190614da6565b96508061227481614db9565b915050612235565b5060005b818110156122c75784600901818154811061229d5761229d614d90565b9060005260206000200154866122b39190614da6565b9550806122bf81614db9565b915050612280565b50505050509193909250565b6122db6127ea565b6001600160a01b0381166123405760405162461bcd60e51b815260206004820152602660248201527f4f776e61626c653a206e6577206f776e657220697320746865207a65726f206160448201526564647265737360d01b606482015260840161095b565b6115418161369b565b6001600160a01b038116600090815261010960209081526040808320600181018054835181860281018601909452808452606095948694869493909290918301828280156123c057602002820191906000526020600020905b81546001600160a01b031681526001909101906020018083116123a2575b50505050509450845193508060020180548060200260200160405190810160405280929190818152602001828054801561242357602002820191906000526020600020905b81546001600160a01b03168152600190910190602001808311612405575b5050505050925082519150509193509193565b61249e60405180610160016040528060006001600160a01b031681526020016060815260200160608152602001606081526020016000815260200160008152602001600081526020016060815260200160608152602001606081526020016000151581525090565b6001600160a01b03808316600090815261010960209081526040918290208251610160810184528154909416845260018101805484518185028101850190955280855291938584019390929083018282801561252357602002820191906000526020600020905b81546001600160a01b03168152600190910190602001808311612505575b505050505081526020016002820180548060200260200160405190810160405280929190818152602001828054801561258557602002820191906000526020600020905b81546001600160a01b03168152600190910190602001808311612567575b50505050508152602001600382018054806020026020016040519081016040528092919081815260200182805480156125dd57602002820191906000526020600020905b8154815260200190600101908083116125c9575b505050505081526020016004820154815260200160058201548152602001600682015481526020016007820180548060200260200160405190810160405280929190818152602001828054801561265357602002820191906000526020600020905b81548152602001906001019080831161263f575b50505050508152602001600882018054806020026020016040519081016040528092919081815260200182805480156126ab57602002820191906000526020600020905b815481526020019060010190808311612697575b505050505081526020016009820180548060200260200160405190810160405280929190818152602001828054801561270357602002820191906000526020600020905b8154815260200190600101908083116126ef575b5050509183525050600a919091015460ff16151560209091015292915050565b60fd5460fc805460408051602080840282018101909252828152606093600093849383018282801561277457602002820191906000526020600020905b815481526020019060010190808311612760575b505060fc549396506000925050505b818160ff1610156127ce5760fc8160ff16815481106127a4576127a4614d90565b9060005260206000200154846127ba9190614da6565b9350806127c681614fcc565b915050612783565b5050610100549394929391926001600160a01b03909216919050565b6065546001600160a01b031633146115545760405162461bcd60e51b815260206004820181905260248201527f4f776e61626c653a2063616c6c6572206973206e6f7420746865206f776e6572604482015260640161095b565b6001600160a01b038281166000818152610109602052604080822080546001600160a01b03191694861694851781559051909392917ffaf63637882ff2d63ca76881cf92fb857130e36f350c926f9cc884b499b42b7791a360fc5460005b81811015611aae5782546001600160a01b0316600090815261010960205260408120908290036128fc576001818101805491820181556000908152602090200180546001600160a01b0319166001600160a01b0388161790555b83546001600160a01b03166129115750611aae565b6002810180546001810182556000918252602082200180546001600160a01b0319166001600160a01b03898116918217909255865460405191938984169391909116917fb766b19465b3277b0b275adf79d715cac93166bf6e6a39f26e4ccfdec76ad47e9190a492508061298481614db9565b9150506128a2565b60fb5460fc8054604080516020808402820181019092528281526001600160a01b0390941693600093909290918301828280156129e857602002820191906000526020600020905b8154815260200190600101908083116129d4575b5050506001600160a01b03861660009081526101096020908152604082206003810180546001810182559084529183209091018990556004810180549596509094899450909250612a3a908490614da6565b9091555050610106546000906001600160401b03811115612a5d57612a5d6145a2565b604051908082528060200260200182016040528015612a86578160200160208202803683370190505b509050600080610107805480602002602001604051908101604052809291908181526020018280548015612ae357602002820191906000526020600020905b81546001600160a01b03168152600190910190602001808311612ac5575b505050505090506000815190506000805b61010654811015612e135786546001600160a01b031660008181526101096020526040902081612b25575050612e13565b8951831015612db557600060648b8581518110612b4457612b44614d90565b60200260200101518f612b579190614feb565b612b619190614d41565b905083600003612b85578d826005016000828254612b7f9190614da6565b90915550505b8d826006016000828254612b999190614da6565b90915550506007820180546001810182556000918252602090912001819055612bc28186614da6565b94508b6001600160a01b031663b70cc4c16040518163ffffffff1660e01b8152600401602060405180830381865afa158015612c02573d6000803e3d6000fd5b505050506040513d601f19601f82011682018060405250810190612c269190614cf8565b60405163a9059cbb60e01b81526001600160a01b03858116600483015260248201849052919091169063a9059cbb906044016020604051808303816000875af1158015612c77573d6000803e3d6000fd5b505050506040513d601f19601f82011682018060405250810190612c9b9190614d6e565b50806001600160a01b03808516908f167f197a0a2b0fbff3fc4f7f4d32597585aa8415fcc4c5dd6634336ec65904529c83612cd7886001614da6565b60408051918252602082018190526005908201526410539554d160da1b606082015260800160405180910390a4600a82015460ff16612db3576101035482600501541115612db3576101028054600180820183556000929092527f93bdaa6a4190909b7c3fbe8d42169ffe1cab19f51dfc8db24c71abf849eced4a0180546001600160a01b0319166001600160a01b038616908117909155600a8401805460ff19169092179091556040519081527facc63915cb028aeaee9996abc0f864fc0559a2f955750aa97d6ef9f51014acfb9060200160405180910390a15b505b6101055481600501541115612dfd5781888881518110612dd757612dd7614d90565b6001600160a01b039092166020928302919091019091015286612df981614db9565b9750505b9750819050612e0b81614db9565b915050612af4565b508315613044576000846064610104548d612e2e9190614feb565b612e389190614d41565b612e429190614d41565b905060005b858110156130415760006001600160a01b0316878281518110612e6c57612e6c614d90565b60200260200101516001600160a01b031603156130415760006101096000898481518110612e9c57612e9c614d90565b60200260200101516001600160a01b03166001600160a01b0316815260200190815260200160002090508a6001600160a01b031663b70cc4c16040518163ffffffff1660e01b8152600401602060405180830381865afa158015612f04573d6000803e3d6000fd5b505050506040513d601f19601f82011682018060405250810190612f289190614cf8565b6001600160a01b031663a9059cbb898481518110612f4857612f48614d90565b6020026020010151856040518363ffffffff1660e01b8152600401612f829291906001600160a01b03929092168252602082015260400190565b6020604051808303816000875af1158015612fa1573d6000803e3d6000fd5b505050506040513d601f19601f82011682018060405250810190612fc59190614d6e565b50878281518110612fd857612fd8614d90565b60200260200101516001600160a01b0316837f62f12b06523c734cca73aa1502a5f967c8e09d0a2f084fd36acbac47f54b0d4e60405160405180910390a3600901805460018101825560009182526020909120018290558061303981614db9565b915050612e47565b50505b61010254156132245760006064610101548c6130609190614feb565b61306a9190614d41565b610102546040805142602082015244918101919091529192506000916060016040516020818303038152906040528051906020012060001c6130ac9190615002565b9050600061010282815481106130c4576130c4614d90565b60009182526020808320909101546001600160a01b039081168084526101098352604093849020845163b70cc4c160e01b8152945191955093918f169263b70cc4c192600480820193918290030181865afa158015613127573d6000803e3d6000fd5b505050506040513d601f19601f8201168201806040525081019061314b9190614cf8565b60405163a9059cbb60e01b81526001600160a01b03848116600483015260248201879052919091169063a9059cbb906044016020604051808303816000875af115801561319c573d6000803e3d6000fd5b505050506040513d601f19601f820116820180604052508101906131c09190614d6e565b50600881018054600181018255600091825260209182902001859055604080518681526001600160a01b038516928101929092527f51e673ac98f0ea063ce27eb5af807d22b97cd11cd79380cf1f711ad80948046c910160405180910390a1505050505b81156133c4576000826064610108548d61323e9190614feb565b6132489190614d41565b6132529190614d41565b905060005b838110156133c157896001600160a01b031663b70cc4c16040518163ffffffff1660e01b8152600401602060405180830381865afa15801561329d573d6000803e3d6000fd5b505050506040513d601f19601f820116820180604052508101906132c19190614cf8565b6001600160a01b031663a9059cbb8683815181106132e1576132e1614d90565b6020026020010151846040518363ffffffff1660e01b815260040161331b9291906001600160a01b03929092168252602082015260400190565b6020604051808303816000875af115801561333a573d6000803e3d6000fd5b505050506040513d601f19601f8201168201806040525081019061335e9190614d6e565b5084818151811061337157613371614d90565b60200260200101516001600160a01b0316827f6d550262135215fe2f5ef9b6fad45db8cf51267248f8b95e069f8025f6f9049a60405160405180910390a3806133b981614db9565b915050613257565b50505b8060ff60008282546133d69190614da6565b909155505050505050505050505050565b6001600160a01b038116600090815261010d602052604081205461ffff1690036115415761010f546000906134219061ffff166001615016565b6001600160a01b038316600081815261010d60209081526040808320805461ffff191661ffff878116918217909255845261010c909252822080546001600160a01b0319908116851790915561010e80546001810182559084527f44731785622d53a842eeb261a70df6f2b61b9624656157b6168597f0656f480501805490911690931790925561010f80549394509290911691906134bf83614fab565b91906101000a81548161ffff021916908361ffff160217905550505050565b7f4910fdfa16fed3260ed0e7147f7cc6da11a60208b5b9406d12a635614ffd91435460ff1615613511576111ab83614078565b826001600160a01b03166352d1902d6040518163ffffffff1660e01b8152600401602060405180830381865afa92505050801561356b575060408051601f3d908101601f1916820190925261356891810190614d55565b60015b6135ce5760405162461bcd60e51b815260206004820152602e60248201527f45524331393637557067726164653a206e657720696d706c656d656e7461746960448201526d6f6e206973206e6f74205555505360901b606482015260840161095b565b6000805160206150c7833981519152811461363d5760405162461bcd60e51b815260206004820152602960248201527f45524331393637557067726164653a20756e737570706f727465642070726f786044820152681a58589b195555525160ba1b606482015260840161095b565b506111ab838383614114565b613651614139565b6033805460ff191690557f5db9ee0a495bf2e6ff9c91a7834c1ba4fdd244a5e8aa4e537bd38aeae4b073aa335b6040516001600160a01b03909116815260200160405180910390a1565b606580546001600160a01b038381166001600160a01b0319831681179093556040519116919082907f8be0079c531659141344cd1fd0a4f28419497f9722a3daafe3b4186f6b6457e090600090a35050565b600054610100900460ff166137145760405162461bcd60e51b815260040161095b90615031565b611554614182565b600054610100900460ff166137435760405162461bcd60e51b815260040161095b90615031565b6115546141b5565b600054610100900460ff166115545760405162461bcd60e51b815260040161095b90615031565b61377a6141e5565b6033805460ff191660011790557f62e78cea01bee320cd4e420270b5ea74000d11b0c9f74754ebdbfc544b05a25861367e3390565b606060006137bd848461507c565b61ffff166001600160401b038111156137d8576137d86145a2565b604051908082528060200260200182016040528015613801578160200160208202803683370190505b5091505b8261ffff168461ffff1611613cb65761ffff8416600090815261010c60209081526040808320546001600160a01b039081168085526101098452828520835161016081018552815490931683526001810180548551818802810188019096528086529296959394919385810193908301828280156138ac57602002820191906000526020600020905b81546001600160a01b0316815260019091019060200180831161388e575b505050505081526020016002820180548060200260200160405190810160405280929190818152602001828054801561390e57602002820191906000526020600020905b81546001600160a01b031681526001909101906020018083116138f0575b505050505081526020016003820180548060200260200160405190810160405280929190818152602001828054801561396657602002820191906000526020600020905b815481526020019060010190808311613952575b50505050508152602001600482015481526020016005820154815260200160068201548152602001600782018054806020026020016040519081016040528092919081815260200182805480156139dc57602002820191906000526020600020905b8154815260200190600101908083116139c8575b5050505050815260200160088201805480602002602001604051908101604052809291908181526020018280548015613a3457602002820191906000526020600020905b815481526020019060010190808311613a20575b5050505050815260200160098201805480602002602001604051908101604052809291908181526020018280548015613a8c57602002820191906000526020600020905b815481526020019060010190808311613a78575b5050509183525050600a919091015460ff9081161515602092830152898116600090815261010b83526040808220815160e08101835281549094168452600181015494840194909452600284015490830152600383015460608301526004830180549495509093919291608084019190613b0590614dd2565b80601f0160208091040260200160405190810160405280929190818152602001828054613b3190614dd2565b8015613b7e5780601f10613b5357610100808354040283529160200191613b7e565b820191906000526020600020905b815481529060010190602001808311613b6157829003601f168201915b50505050508152602001600582018054613b9790614dd2565b80601f0160208091040260200160405190810160405280929190818152602001828054613bc390614dd2565b8015613c105780601f10613be557610100808354040283529160200191613c10565b820191906000526020600020905b815481529060010190602001808311613bf357829003601f168201915b5050505050815260200160068201548152505090508060200151613c3383613cbe565b10158015613c49575080604001518260a0015110155b8015613c5e5750613c5e828260600151613d5c565b15613ca05782858561ffff1681518110613c7a57613c7a614d90565b6001600160a01b039092166020928302919091019091015283613c9c81614fab565b9450505b5050508380613cae90614fab565b945050613805565b935093915050565b600060018260600151511115613d295760015b8260600151518161ffff161015613d235782606001518161ffff1681518110613cfc57613cfc614d90565b602002602001015182613d0f9190614da6565b915080613d1b81614fab565b915050613cd1565b50919050565b816060015151600103611c1a578160600151600081518110613d4d57613d4d614d90565b60200260200101519050919050565b600080600284602001515111156140715760005b8460200151518161ffff16101561406f576000610109600087602001518461ffff1681518110613da257613da2614d90565b6020908102919091018101516001600160a01b03908116835282820193909352604091820160002082516101608101845281549094168452600181018054845181850281018501909552808552919385840193909290830182828015613e3157602002820191906000526020600020905b81546001600160a01b03168152600190910190602001808311613e13575b5050505050815260200160028201805480602002602001604051908101604052809291908181526020018280548015613e9357602002820191906000526020600020905b81546001600160a01b03168152600190910190602001808311613e75575b5050505050815260200160038201805480602002602001604051908101604052809291908181526020018280548015613eeb57602002820191906000526020600020905b815481526020019060010190808311613ed7575b5050505050815260200160048201548152602001600582015481526020016006820154815260200160078201805480602002602001604051908101604052809291908181526020018280548015613f6157602002820191906000526020600020905b815481526020019060010190808311613f4d575b5050505050815260200160088201805480602002602001604051908101604052809291908181526020018280548015613fb957602002820191906000526020600020905b815481526020019060010190808311613fa5575b505050505081526020016009820180548060200260200160405190810160405280929190818152602001828054801561401157602002820191906000526020600020905b815481526020019060010190808311613ffd575b5050509183525050600a919091015460ff16151560209091015260c08101519091508511614047578261404381614fcc565b9350505b60028360ff161061405c57600193505061406f565b508061406781614fab565b915050613d70565b505b5092915050565b6001600160a01b0381163b6140e55760405162461bcd60e51b815260206004820152602d60248201527f455243313936373a206e657720696d706c656d656e746174696f6e206973206e60448201526c1bdd08184818dbdb9d1c9858dd609a1b606482015260840161095b565b6000805160206150c783398151915280546001600160a01b0319166001600160a01b0392909216919091179055565b61411d8361422b565b60008251118061412a5750805b156111ab57610b3d838361426b565b60335460ff166115545760405162461bcd60e51b815260206004820152601460248201527314185d5cd8589b194e881b9bdd081c185d5cd95960621b604482015260640161095b565b600054610100900460ff166141a95760405162461bcd60e51b815260040161095b90615031565b6033805460ff19169055565b600054610100900460ff166141dc5760405162461bcd60e51b815260040161095b90615031565b6115543361369b565b60335460ff16156115545760405162461bcd60e51b815260206004820152601060248201526f14185d5cd8589b194e881c185d5cd95960821b604482015260640161095b565b61423481614078565b6040516001600160a01b038216907fbc7cd75a20ee27fd9adebab32041f755214dbc6bffa90cc0225b39da2e5c2d3b90600090a250565b60606001600160a01b0383163b6142d35760405162461bcd60e51b815260206004820152602660248201527f416464726573733a2064656c65676174652063616c6c20746f206e6f6e2d636f6044820152651b9d1c9858dd60d21b606482015260840161095b565b600080846001600160a01b0316846040516142ee9190615097565b600060405180830381855af49150503d8060008114614329576040519150601f19603f3d011682016040523d82523d6000602084013e61432e565b606091505b509150915061435682826040518060600160405280602781526020016150e76027913961435f565b95945050505050565b6060831561436e575081614378565b614378838361437f565b9392505050565b81511561438f5781518083602001fd5b8060405162461bcd60e51b815260040161095b91906150b3565b8280548282559060005260206000209081019282156143e4579160200282015b828111156143e45782358255916020019190600101906143c9565b506143f0929150614434565b5090565b8280548282559060005260206000209081019282156143e4579160200282015b828111156143e4578251829060ff16905591602001919060010190614414565b5b808211156143f05760008155600101614435565b803561ffff81168114611c1a57600080fd5b60006020828403121561446d57600080fd5b61437882614449565b6001600160a01b038116811461154157600080fd5b60006020828403121561449d57600080fd5b813561437881614476565b6000806000606084860312156144bd57600080fd5b8335925060208401356144cf81614476565b915060408401356144df81614476565b809150509250925092565b600080604083850312156144fd57600080fd5b823561450881614476565b946020939093013593505050565b60008083601f84011261452857600080fd5b5081356001600160401b0381111561453f57600080fd5b6020830191508360208260051b850101111561455a57600080fd5b9250929050565b6000806020838503121561457457600080fd5b82356001600160401b0381111561458a57600080fd5b61459685828601614516565b90969095509350505050565b634e487b7160e01b600052604160045260246000fd5b604051601f8201601f191681016001600160401b03811182821017156145e0576145e06145a2565b604052919050565b60006001600160401b03821115614601576146016145a2565b5060051b60200190565b803560ff81168114611c1a57600080fd5b600082601f83011261462d57600080fd5b8135602061464261463d836145e8565b6145b8565b82815260059290921b8401810191818101908684111561466157600080fd5b8286015b84811015614683576146768161460b565b8352918301918301614665565b509695505050505050565b600082601f83011261469f57600080fd5b813560206146af61463d836145e8565b82815260059290921b840181019181810190868411156146ce57600080fd5b8286015b8481101561468357803583529183019183016146d2565b60006001600160401b03831115614702576147026145a2565b614715601f8401601f19166020016145b8565b905082815283838301111561472957600080fd5b828260208301376000602084830101529392505050565b600082601f83011261475157600080fd5b8135602061476161463d836145e8565b82815260059290921b8401810191818101908684111561478057600080fd5b8286015b848110156146835780356001600160401b038111156147a35760008081fd5b8701603f810189136147b55760008081fd5b6147c68986830135604084016146e9565b845250918301918301614784565b600080600080600080600060e0888a0312156147ef57600080fd5b87356001600160401b038082111561480657600080fd5b6148128b838c0161461c565b985060208a013591508082111561482857600080fd5b6148348b838c0161468e565b975060408a013591508082111561484a57600080fd5b6148568b838c0161468e565b965060608a013591508082111561486c57600080fd5b6148788b838c0161468e565b955060808a013591508082111561488e57600080fd5b61489a8b838c01614740565b945060a08a01359150808211156148b057600080fd5b6148bc8b838c01614740565b935060c08a01359150808211156148d257600080fd5b506148df8a828b0161468e565b91505092959891949750929550565b6000806040838503121561490157600080fd5b823561490c81614476565b915060208301356001600160401b0381111561492757600080fd5b8301601f8101851361493857600080fd5b614947858235602084016146e9565b9150509250929050565b60006020828403121561496357600080fd5b5035919050565b6000806000806040858703121561498057600080fd5b84356001600160401b038082111561499757600080fd5b6149a388838901614516565b909650945060208701359150808211156149bc57600080fd5b506149c987828801614516565b95989497509550505050565b6000602082840312156149e757600080fd5b6143788261460b565b60005b83811015614a0b5781810151838201526020016149f3565b50506000910152565b60008151808452614a2c8160208601602086016149f0565b601f01601f19169290920160200192915050565b60ff8816815286602082015285604082015284606082015260e060808201526000614a6e60e0830186614a14565b82810360a0840152614a808186614a14565b9150508260c083015298975050505050505050565b600080600060608486031215614aaa57600080fd5b614ab38461460b565b9250614ac160208501614449565b9150614acf60408501614449565b90509250925092565b600081518084526020808501945080840160005b83811015614b115781516001600160a01b031687529582019590820190600101614aec565b509495945050505050565b604081526000614b2f6040830185614ad8565b905061ffff831660208301529392505050565b608081526000614b556080830187614ad8565b8560208401528281036040840152614b6d8186614ad8565b91505082606083015295945050505050565b600081518084526020808501945080840160005b83811015614b1157815187529582019590820190600101614b93565b60208152614bc96020820183516001600160a01b03169052565b60006020830151610160806040850152614be7610180850183614ad8565b91506040850151601f1980868503016060870152614c058483614ad8565b93506060870151915080868503016080870152614c228483614b7f565b9350608087015160a087015260a087015160c087015260c087015160e087015260e08701519150610100818786030181880152614c5f8584614b7f565b945080880151925050610120818786030181880152614c7e8584614b7f565b945080880151925050610140818786030181880152614c9d8584614b7f565b94508088015192505050614cb48286018215159052565b5090949350505050565b848152608060208201526000614cd76080830186614b7f565b6040830194909452506001600160a01b039190911660609091015292915050565b600060208284031215614d0a57600080fd5b815161437881614476565b634e487b7160e01b600052601260045260246000fd5b634e487b7160e01b600052601160045260246000fd5b600082614d5057614d50614d15565b500490565b600060208284031215614d6757600080fd5b5051919050565b600060208284031215614d8057600080fd5b8151801515811461437857600080fd5b634e487b7160e01b600052603260045260246000fd5b8082018082111561084957610849614d2b565b600060018201614dcb57614dcb614d2b565b5060010190565b600181811c90821680614de657607f821691505b602082108103613d2357634e487b7160e01b600052602260045260246000fd5b601f8211156111ab57600081815260208120601f850160051c81016020861015614e2d5750805b601f850160051c820191505b81811015614e4c57828155600101614e39565b505050505050565b81516001600160401b03811115614e6d57614e6d6145a2565b614e8181614e7b8454614dd2565b84614e06565b602080601f831160018114614eb65760008415614e9e5750858301515b600019600386901b1c1916600185901b178555614e4c565b600085815260208120601f198616915b82811015614ee557888601518255948401946001909101908401614ec6565b5085821015614f035787850151600019600388901b60f8161c191681555b5050505050600190811b01905550565b6020808252602c908201527f46756e6374696f6e206d7573742062652063616c6c6564207468726f7567682060408201526b19195b1959d85d1958d85b1b60a21b606082015260800190565b6020808252602c908201527f46756e6374696f6e206d7573742062652063616c6c6564207468726f7567682060408201526b6163746976652070726f787960a01b606082015260800190565b600061ffff808316818103614fc257614fc2614d2b565b6001019392505050565b600060ff821660ff8103614fe257614fe2614d2b565b60010192915050565b808202811582820484141761084957610849614d2b565b60008261501157615011614d15565b500690565b61ffff81811683821601908082111561407157614071614d2b565b6020808252602b908201527f496e697469616c697a61626c653a20636f6e7472616374206973206e6f74206960408201526a6e697469616c697a696e6760a81b606082015260800190565b61ffff82811682821603908082111561407157614071614d2b565b600082516150a98184602087016149f0565b9190910192915050565b6020815260006143786020830184614a1456fe360894a13ba1a3210667c828492db98dca3e2076cc3735a920a3ca505d382bbc416464726573733a206c6f772d6c6576656c2064656c65676174652063616c6c206661696c6564a2646970667358221220660b303fe8d3807cf392fdf9234bcf253590b3c5770bfd5a3018ceb6c9096c5864736f6c63430008110033",
  "linkReferences": {},
  "deployedLinkReferences": {}
}