{
  "_format": "hh-sol-artifact-1",
  "contractName": "ReferralUpgradeable",
  "sourceName": "contracts/ReferralUpgradeable.sol",
  "abi": [
    {
      "anonymous": false,
      "inputs": [
        {
          "indexed": false,
          "internalType": "address",
          "name": "previousAdmin",
          "type": "address"
        },
        {
          "indexed": false,
          "internalType": "address",
          "name": "newAdmin",
          "type": "address"
        }
      ],
      "name": "AdminChanged",
      "type": "event"
    },
    {
      "anonymous": false,
      "inputs": [
        {
          "indexed": true,
          "internalType": "address",
          "name": "beacon",
          "type": "address"
        }
      ],
      "name": "BeaconUpgraded",
      "type": "event"
    },
    {
      "anonymous": false,
      "inputs": [
        {
          "indexed": true,
          "internalType": "address",
          "name": "userAddressaddress",
          "type": "address"
        }
      ],
      "name": "CoreMemberAdded",
      "type": "event"
    },
    {
      "anonymous": false,
      "inputs": [
        {
          "indexed": false,
          "internalType": "address",
          "name": "userAddress",
          "type": "address"
        }
      ],
      "name": "CoreMemberRemoved",
      "type": "event"
    },
    {
      "anonymous": false,
      "inputs": [
        {
          "indexed": true,
          "internalType": "uint256",
          "name": "value",
          "type": "uint256"
        },
        {
          "indexed": true,
          "internalType": "address",
          "name": "userAddress",
          "type": "address"
        }
      ],
      "name": "CoreMemberRewardPaid",
      "type": "event"
    },
    {
      "anonymous": false,
      "inputs": [
        {
          "indexed": false,
          "internalType": "address",
          "name": "userAddress",
          "type": "address"
        }
      ],
      "name": "GlobalAddressAdded",
      "type": "event"
    },
    {
      "anonymous": false,
      "inputs": [
        {
          "indexed": false,
          "internalType": "address",
          "name": "userAddress",
          "type": "address"
        }
      ],
      "name": "GlobalAddressRemoved",
      "type": "event"
    },
    {
      "anonymous": false,
      "inputs": [
        {
          "indexed": false,
          "internalType": "uint256",
          "name": "value",
          "type": "uint256"
        },
        {
          "indexed": false,
          "internalType": "address",
          "name": "userAddress",
          "type": "address"
        }
      ],
      "name": "GlobalRewardPaid",
      "type": "event"
    },
    {
      "anonymous": false,
      "inputs": [
        {
          "indexed": false,
          "internalType": "uint8",
          "name": "version",
          "type": "uint8"
        }
      ],
      "name": "Initialized",
      "type": "event"
    },
    {
      "anonymous": false,
      "inputs": [
        {
          "indexed": true,
          "internalType": "address",
          "name": "previousOwner",
          "type": "address"
        },
        {
          "indexed": true,
          "internalType": "address",
          "name": "newOwner",
          "type": "address"
        }
      ],
      "name": "OwnershipTransferred",
      "type": "event"
    },
    {
      "anonymous": false,
      "inputs": [
        {
          "indexed": true,
          "internalType": "uint256",
          "name": "value",
          "type": "uint256"
        },
        {
          "indexed": true,
          "internalType": "address",
          "name": "userAddress",
          "type": "address"
        }
      ],
      "name": "PassiveRewardPaid",
      "type": "event"
    },
    {
      "anonymous": false,
      "inputs": [
        {
          "indexed": false,
          "internalType": "address",
          "name": "account",
          "type": "address"
        }
      ],
      "name": "Paused",
      "type": "event"
    },
    {
      "anonymous": false,
      "inputs": [
        {
          "indexed": true,
          "internalType": "address",
          "name": "referee",
          "type": "address"
        },
        {
          "indexed": true,
          "internalType": "address",
          "name": "referrer",
          "type": "address"
        },
        {
          "indexed": true,
          "internalType": "uint256",
          "name": "amount",
          "type": "uint256"
        },
        {
          "indexed": false,
          "internalType": "uint256",
          "name": "level",
          "type": "uint256"
        },
        {
          "indexed": false,
          "internalType": "string",
          "name": "currency",
          "type": "string"
        }
      ],
      "name": "ReferralRewardPaid",
      "type": "event"
    },
    {
      "anonymous": false,
      "inputs": [
        {
          "indexed": true,
          "internalType": "address",
          "name": "referee",
          "type": "address"
        },
        {
          "indexed": true,
          "internalType": "address",
          "name": "referrer",
          "type": "address"
        },
        {
          "indexed": true,
          "internalType": "string",
          "name": "reason",
          "type": "string"
        }
      ],
      "name": "RegisterRefererFailed",
      "type": "event"
    },
    {
      "anonymous": false,
      "inputs": [
        {
          "indexed": true,
          "internalType": "address",
          "name": "referee",
          "type": "address"
        },
        {
          "indexed": true,
          "internalType": "address",
          "name": "referrer",
          "type": "address"
        }
      ],
      "name": "RegisteredReferer",
      "type": "event"
    },
    {
      "anonymous": false,
      "inputs": [
        {
          "indexed": true,
          "internalType": "address",
          "name": "parent",
          "type": "address"
        },
        {
          "indexed": true,
          "internalType": "address",
          "name": "referrer",
          "type": "address"
        },
        {
          "indexed": true,
          "internalType": "address",
          "name": "referee",
          "type": "address"
        }
      ],
      "name": "RegisteredTeamAddress",
      "type": "event"
    },
    {
      "anonymous": false,
      "inputs": [
        {
          "indexed": false,
          "internalType": "address",
          "name": "userAddress",
          "type": "address"
        },
        {
          "indexed": false,
          "internalType": "uint8",
          "name": "rewardId",
          "type": "uint8"
        }
      ],
      "name": "RewardAccountAdded",
      "type": "event"
    },
    {
      "anonymous": false,
      "inputs": [
        {
          "indexed": false,
          "internalType": "address",
          "name": "userAddress",
          "type": "address"
        },
        {
          "indexed": false,
          "internalType": "uint8",
          "name": "rewardId",
          "type": "uint8"
        }
      ],
      "name": "RewardAccountPaid",
      "type": "event"
    },
    {
      "anonymous": false,
      "inputs": [
        {
          "indexed": false,
          "internalType": "uint8",
          "name": "id",
          "type": "uint8"
        },
        {
          "indexed": false,
          "internalType": "uint256",
          "name": "selfBusinessLimit",
          "type": "uint256"
        },
        {
          "indexed": false,
          "internalType": "uint256",
          "name": "directBusinessLimit",
          "type": "uint256"
        },
        {
          "indexed": false,
          "internalType": "uint256",
          "name": "teamBusinessLimit",
          "type": "uint256"
        },
        {
          "indexed": false,
          "internalType": "string",
          "name": "rankName",
          "type": "string"
        },
        {
          "indexed": false,
          "internalType": "string",
          "name": "rewardName",
          "type": "string"
        },
        {
          "indexed": false,
          "internalType": "uint256",
          "name": "appraisal",
          "type": "uint256"
        }
      ],
      "name": "RewardAdded",
      "type": "event"
    },
    {
      "anonymous": false,
      "inputs": [
        {
          "indexed": false,
          "internalType": "address",
          "name": "account",
          "type": "address"
        }
      ],
      "name": "Unpaused",
      "type": "event"
    },
    {
      "anonymous": false,
      "inputs": [
        {
          "indexed": true,
          "internalType": "address",
          "name": "implementation",
          "type": "address"
        }
      ],
      "name": "Upgraded",
      "type": "event"
    },
    {
      "inputs": [
        {
          "internalType": "address",
          "name": "",
          "type": "address"
        }
      ],
      "name": "addressToId",
      "outputs": [
        {
          "internalType": "uint16",
          "name": "",
          "type": "uint16"
        }
      ],
      "stateMutability": "view",
      "type": "function"
    },
    {
      "inputs": [],
      "name": "contractDefaults",
      "outputs": [
        {
          "internalType": "uint256",
          "name": "levelDecimals",
          "type": "uint256"
        },
        {
          "internalType": "uint256[]",
          "name": "levelRates",
          "type": "uint256[]"
        },
        {
          "internalType": "uint256",
          "name": "totalLevelRate",
          "type": "uint256"
        },
        {
          "internalType": "address",
          "name": "defaultReferrer",
          "type": "address"
        }
      ],
      "stateMutability": "view",
      "type": "function"
    },
    {
      "inputs": [
        {
          "internalType": "uint16",
          "name": "_from",
          "type": "uint16"
        },
        {
          "internalType": "uint16",
          "name": "_to",
          "type": "uint16"
        }
      ],
      "name": "deleteTotalBusiness",
      "outputs": [],
      "stateMutability": "nonpayable",
      "type": "function"
    },
    {
      "inputs": [],
      "name": "getGlobalRefereeLimit",
      "outputs": [
        {
          "internalType": "uint8",
          "name": "",
          "type": "uint8"
        }
      ],
      "stateMutability": "view",
      "type": "function"
    },
    {
      "inputs": [
        {
          "internalType": "uint8",
          "name": "_rewardId",
          "type": "uint8"
        },
        {
          "internalType": "uint16",
          "name": "_from",
          "type": "uint16"
        },
        {
          "internalType": "uint16",
          "name": "_to",
          "type": "uint16"
        }
      ],
      "name": "getRewardQualifiedUsers",
      "outputs": [
        {
          "internalType": "address[]",
          "name": "_userAddress",
          "type": "address[]"
        },
        {
          "internalType": "uint16",
          "name": "_achieversListCount",
          "type": "uint16"
        }
      ],
      "stateMutability": "view",
      "type": "function"
    },
    {
      "inputs": [],
      "name": "getSelfIncomePoolRefereeLimit",
      "outputs": [
        {
          "internalType": "uint8",
          "name": "",
          "type": "uint8"
        }
      ],
      "stateMutability": "view",
      "type": "function"
    },
    {
      "inputs": [
        {
          "internalType": "address",
          "name": "_userAddress",
          "type": "address"
        }
      ],
      "name": "getTeamBusinessToQualifyRewards",
      "outputs": [
        {
          "internalType": "uint256",
          "name": "mainBusiness",
          "type": "uint256"
        },
        {
          "internalType": "uint256",
          "name": "otherBusiness",
          "type": "uint256"
        }
      ],
      "stateMutability": "view",
      "type": "function"
    },
    {
      "inputs": [
        {
          "internalType": "address",
          "name": "_address",
          "type": "address"
        }
      ],
      "name": "getUserAccount",
      "outputs": [
        {
          "components": [
            {
              "internalType": "address",
              "name": "referrer",
              "type": "address"
            },
            {
              "internalType": "address[]",
              "name": "referee",
              "type": "address[]"
            },
            {
              "internalType": "address[]",
              "name": "team",
              "type": "address[]"
            },
            {
              "internalType": "uint256[]",
              "name": "topUp",
              "type": "uint256[]"
            },
            {
              "internalType": "uint256",
              "name": "selfBusiness",
              "type": "uint256"
            },
            {
              "internalType": "uint256",
              "name": "directBusiness",
              "type": "uint256"
            },
            {
              "internalType": "uint256",
              "name": "totalBusiness",
              "type": "uint256"
            },
            {
              "internalType": "uint256[]",
              "name": "rewardsPaidReferral",
              "type": "uint256[]"
            },
            {
              "internalType": "uint256[]",
              "name": "rewardsPaidGlobal",
              "type": "uint256[]"
            },
            {
              "internalType": "uint256[]",
              "name": "rewardPaidPassive",
              "type": "uint256[]"
            },
            {
              "internalType": "bool",
              "name": "isInGlobalID",
              "type": "bool"
            }
          ],
          "internalType": "struct ReferralUpgradeable.Account",
          "name": "userAccount",
          "type": "tuple"
        }
      ],
      "stateMutability": "view",
      "type": "function"
    },
    {
      "inputs": [
        {
          "internalType": "address",
          "name": "_address",
          "type": "address"
        }
      ],
      "name": "getUserReferrerAddress",
      "outputs": [
        {
          "internalType": "address",
          "name": "referrer",
          "type": "address"
        }
      ],
      "stateMutability": "view",
      "type": "function"
    },
    {
      "inputs": [
        {
          "internalType": "address",
          "name": "_userAddress",
          "type": "address"
        }
      ],
      "name": "getUserRewardAccount",
      "outputs": [
        {
          "components": [
            {
              "internalType": "address",
              "name": "userAdddress",
              "type": "address"
            },
            {
              "internalType": "uint8[]",
              "name": "rewardId",
              "type": "uint8[]"
            },
            {
              "internalType": "uint8",
              "name": "lastRewardId",
              "type": "uint8"
            }
          ],
          "internalType": "struct ReferralUpgradeable.RewardsAccount",
          "name": "",
          "type": "tuple"
        }
      ],
      "stateMutability": "view",
      "type": "function"
    },
    {
      "inputs": [
        {
          "internalType": "address",
          "name": "_userAddress",
          "type": "address"
        }
      ],
      "name": "getUserRewardQualified",
      "outputs": [
        {
          "internalType": "uint8",
          "name": "rewardId",
          "type": "uint8"
        }
      ],
      "stateMutability": "view",
      "type": "function"
    },
    {
      "inputs": [
        {
          "internalType": "address",
          "name": "_address",
          "type": "address"
        }
      ],
      "name": "getUserTeam",
      "outputs": [
        {
          "internalType": "address[]",
          "name": "userReferee",
          "type": "address[]"
        },
        {
          "internalType": "uint256",
          "name": "userRefereeCount",
          "type": "uint256"
        },
        {
          "internalType": "address[]",
          "name": "userTeamAddress",
          "type": "address[]"
        },
        {
          "internalType": "uint256",
          "name": "userTeamCount",
          "type": "uint256"
        }
      ],
      "stateMutability": "view",
      "type": "function"
    },
    {
      "inputs": [
        {
          "internalType": "address",
          "name": "_userAddress",
          "type": "address"
        }
      ],
      "name": "getUserTopUpForRewards",
      "outputs": [
        {
          "internalType": "uint256",
          "name": "",
          "type": "uint256"
        }
      ],
      "stateMutability": "view",
      "type": "function"
    },
    {
      "inputs": [
        {
          "internalType": "address",
          "name": "_address",
          "type": "address"
        }
      ],
      "name": "getUserTotalBusiness",
      "outputs": [
        {
          "internalType": "uint256",
          "name": "selfBusiness",
          "type": "uint256"
        },
        {
          "internalType": "uint256",
          "name": "directBusiness",
          "type": "uint256"
        },
        {
          "internalType": "uint256",
          "name": "refereeTeamBusiness",
          "type": "uint256"
        },
        {
          "internalType": "uint256",
          "name": "totalBusiness",
          "type": "uint256"
        }
      ],
      "stateMutability": "view",
      "type": "function"
    },
    {
      "inputs": [
        {
          "internalType": "address",
          "name": "_address",
          "type": "address"
        }
      ],
      "name": "getUserTotalRewardPaid",
      "outputs": [
        {
          "internalType": "uint256",
          "name": "rewardsAUSD",
          "type": "uint256"
        },
        {
          "internalType": "uint256",
          "name": "rewardsGlobal",
          "type": "uint256"
        },
        {
          "internalType": "uint256",
          "name": "rewardsPassive",
          "type": "uint256"
        }
      ],
      "stateMutability": "view",
      "type": "function"
    },
    {
      "inputs": [],
      "name": "getVariablesContract",
      "outputs": [
        {
          "internalType": "address",
          "name": "",
          "type": "address"
        }
      ],
      "stateMutability": "view",
      "type": "function"
    },
    {
      "inputs": [
        {
          "internalType": "address",
          "name": "_address",
          "type": "address"
        }
      ],
      "name": "hasReferrer",
      "outputs": [
        {
          "internalType": "bool",
          "name": "",
          "type": "bool"
        }
      ],
      "stateMutability": "view",
      "type": "function"
    },
    {
      "inputs": [
        {
          "internalType": "uint16",
          "name": "",
          "type": "uint16"
        }
      ],
      "name": "idToAddress",
      "outputs": [
        {
          "internalType": "address",
          "name": "",
          "type": "address"
        }
      ],
      "stateMutability": "view",
      "type": "function"
    },
    {
      "inputs": [
        {
          "internalType": "address[]",
          "name": "_userAddress",
          "type": "address[]"
        }
      ],
      "name": "includeUsersInList",
      "outputs": [],
      "stateMutability": "nonpayable",
      "type": "function"
    },
    {
      "inputs": [],
      "name": "initialize",
      "outputs": [],
      "stateMutability": "nonpayable",
      "type": "function"
    },
    {
      "inputs": [],
      "name": "owner",
      "outputs": [
        {
          "internalType": "address",
          "name": "",
          "type": "address"
        }
      ],
      "stateMutability": "view",
      "type": "function"
    },
    {
      "inputs": [],
      "name": "paused",
      "outputs": [
        {
          "internalType": "bool",
          "name": "",
          "type": "bool"
        }
      ],
      "stateMutability": "view",
      "type": "function"
    },
    {
      "inputs": [
        {
          "internalType": "uint256",
          "name": "_valueInUSD",
          "type": "uint256"
        },
        {
          "internalType": "address",
          "name": "_userAddress",
          "type": "address"
        },
        {
          "internalType": "address",
          "name": "_referrerAddress",
          "type": "address"
        }
      ],
      "name": "payReferralANUSDAdmin",
      "outputs": [],
      "stateMutability": "nonpayable",
      "type": "function"
    },
    {
      "inputs": [],
      "name": "proxiableUUID",
      "outputs": [
        {
          "internalType": "bytes32",
          "name": "",
          "type": "bytes32"
        }
      ],
      "stateMutability": "view",
      "type": "function"
    },
    {
      "inputs": [],
      "name": "renounceOwnership",
      "outputs": [],
      "stateMutability": "nonpayable",
      "type": "function"
    },
    {
      "inputs": [
        {
          "internalType": "uint16",
          "name": "_from",
          "type": "uint16"
        },
        {
          "internalType": "uint16",
          "name": "_to",
          "type": "uint16"
        }
      ],
      "name": "resetTeamBusiness",
      "outputs": [],
      "stateMutability": "nonpayable",
      "type": "function"
    },
    {
      "inputs": [
        {
          "internalType": "address",
          "name": "",
          "type": "address"
        }
      ],
      "name": "rewardAccount",
      "outputs": [
        {
          "internalType": "address",
          "name": "userAdddress",
          "type": "address"
        },
        {
          "internalType": "uint8",
          "name": "lastRewardId",
          "type": "uint8"
        }
      ],
      "stateMutability": "view",
      "type": "function"
    },
    {
      "inputs": [
        {
          "internalType": "uint8",
          "name": "",
          "type": "uint8"
        }
      ],
      "name": "rewards",
      "outputs": [
        {
          "internalType": "uint8",
          "name": "id",
          "type": "uint8"
        },
        {
          "internalType": "uint256",
          "name": "selfBusinessLimit",
          "type": "uint256"
        },
        {
          "internalType": "uint256",
          "name": "directBusinessLimit",
          "type": "uint256"
        },
        {
          "internalType": "uint256",
          "name": "teamBusinessLimit",
          "type": "uint256"
        },
        {
          "internalType": "string",
          "name": "rankName",
          "type": "string"
        },
        {
          "internalType": "string",
          "name": "rewardName",
          "type": "string"
        },
        {
          "internalType": "uint256",
          "name": "appraisal",
          "type": "uint256"
        }
      ],
      "stateMutability": "view",
      "type": "function"
    },
    {
      "inputs": [
        {
          "internalType": "uint256",
          "name": "_directBusiness",
          "type": "uint256"
        },
        {
          "internalType": "uint256",
          "name": "_teamBusiness",
          "type": "uint256"
        }
      ],
      "name": "setGlobalPushCondition",
      "outputs": [],
      "stateMutability": "nonpayable",
      "type": "function"
    },
    {
      "inputs": [
        {
          "internalType": "uint8[]",
          "name": "_id",
          "type": "uint8[]"
        },
        {
          "internalType": "uint256[]",
          "name": "_selfBusinessLimit",
          "type": "uint256[]"
        },
        {
          "internalType": "uint256[]",
          "name": "_directBusinessLimit",
          "type": "uint256[]"
        },
        {
          "internalType": "uint256[]",
          "name": "_teamBusinessLimit",
          "type": "uint256[]"
        },
        {
          "internalType": "string[]",
          "name": "_rankName",
          "type": "string[]"
        },
        {
          "internalType": "string[]",
          "name": "_rewardName",
          "type": "string[]"
        },
        {
          "internalType": "uint256[]",
          "name": "_appraisal",
          "type": "uint256[]"
        }
      ],
      "name": "setRewards",
      "outputs": [],
      "stateMutability": "nonpayable",
      "type": "function"
    },
    {
      "inputs": [
        {
          "internalType": "address",
          "name": "_userAddress",
          "type": "address"
        },
        {
          "internalType": "uint256",
          "name": "_valueInWei",
          "type": "uint256"
        }
      ],
      "name": "setUserTotalBusiness",
      "outputs": [],
      "stateMutability": "nonpayable",
      "type": "function"
    },
    {
      "inputs": [],
      "name": "totalUsers",
      "outputs": [
        {
          "internalType": "uint16",
          "name": "",
          "type": "uint16"
        }
      ],
      "stateMutability": "view",
      "type": "function"
    },
    {
      "inputs": [
        {
          "internalType": "address",
          "name": "_address",
          "type": "address"
        },
        {
          "internalType": "uint256",
          "name": "_value",
          "type": "uint256"
        }
      ],
      "name": "transferNative",
      "outputs": [],
      "stateMutability": "nonpayable",
      "type": "function"
    },
    {
      "inputs": [
        {
          "internalType": "address",
          "name": "newOwner",
          "type": "address"
        }
      ],
      "name": "transferOwnership",
      "outputs": [],
      "stateMutability": "nonpayable",
      "type": "function"
    },
    {
      "inputs": [
        {
          "internalType": "address",
          "name": "_userAddress",
          "type": "address"
        },
        {
          "internalType": "uint8",
          "name": "_rewardId",
          "type": "uint8"
        }
      ],
      "name": "updateIfRewardPaidAdmin",
      "outputs": [],
      "stateMutability": "nonpayable",
      "type": "function"
    },
    {
      "inputs": [
        {
          "internalType": "uint16",
          "name": "_from",
          "type": "uint16"
        },
        {
          "internalType": "uint16",
          "name": "_to",
          "type": "uint16"
        }
      ],
      "name": "updateTotalBusiness",
      "outputs": [],
      "stateMutability": "nonpayable",
      "type": "function"
    },
    {
      "inputs": [
        {
          "internalType": "uint16",
          "name": "_from",
          "type": "uint16"
        },
        {
          "internalType": "uint16",
          "name": "_to",
          "type": "uint16"
        }
      ],
      "name": "updateTotalBusiness7Levels",
      "outputs": [],
      "stateMutability": "nonpayable",
      "type": "function"
    },
    {
      "inputs": [
        {
          "internalType": "address",
          "name": "newImplementation",
          "type": "address"
        }
      ],
      "name": "upgradeTo",
      "outputs": [],
      "stateMutability": "nonpayable",
      "type": "function"
    },
    {
      "inputs": [
        {
          "internalType": "address",
          "name": "newImplementation",
          "type": "address"
        },
        {
          "internalType": "bytes",
          "name": "data",
          "type": "bytes"
        }
      ],
      "name": "upgradeToAndCall",
      "outputs": [],
      "stateMutability": "payable",
      "type": "function"
    },
    {
      "inputs": [
        {
          "internalType": "uint256",
          "name": "",
          "type": "uint256"
        }
      ],
      "name": "usersList",
      "outputs": [
        {
          "internalType": "address",
          "name": "",
          "type": "address"
        }
      ],
      "stateMutability": "view",
      "type": "function"
    },
    {
      "inputs": [
        {
          "internalType": "address",
          "name": "_tokenAddress",
          "type": "address"
        },
        {
          "internalType": "address",
          "name": "_userAddress",
          "type": "address"
        },
        {
          "internalType": "uint256",
          "name": "_value",
          "type": "uint256"
        }
      ],
      "name": "withdrawtokens",
      "outputs": [],
      "stateMutability": "nonpayable",
      "type": "function"
    },
    {
      "stateMutability": "payable",
      "type": "receive"
    }
  ],
  "bytecode": "0x60a06040523060805234801561001457600080fd5b50608051615f2a6200004d600039600081816118230152818161186301528181611902015281816119420152611a000152615f2a6000f3fe60806040526004361061024a5760003560e01c80637d2e90c211610139578063cb0e0d7d116100b6578063f13a143f1161007a578063f13a143f146107dd578063f2fde38b146107fb578063faeda7e51461081b578063fb47e0161461084b578063fb5d452614610878578063fcfba29b1461089d57600080fd5b8063cb0e0d7d14610702578063ccef558714610734578063dd1ca71614610754578063e5ffb5df14610782578063ef519dc0146107a257600080fd5b806391b493e4116100fd57806391b493e41461062b5780639b317cc41461064b578063a0760aff1461067e578063b845b6c9146106b3578063bff1f9e1146106d357600080fd5b80637d2e90c21461058b5780638129fc1c146105ab57806386f6630d146105c05780638a93f7b9146105ed5780638da5cb5b1461060d57600080fd5b80633659cfe6116101c75780635c975abb1161018b5780635c975abb146104ff578063715018a61461051757806371e13ead1461052c57806373a3ec851461054b578063771aa2161461056b57600080fd5b80633659cfe61461045d57806343b4ebf41461047d5780634f1ef286146104b7578063502aa3b5146104ca57806352d1902d146104ea57600080fd5b8063228159b41161020e578063228159b41461034a5780632405091c1461036a57806325f1c91e146103aa5780632bb5112d146103d857806335166fef1461043d57600080fd5b8063025313ff146102565780630898adc7146102aa5780630a783ea5146102cc57806318452cd8146102fa5780631a4442cd1461032a57600080fd5b3661025157005b600080fd5b34801561026257600080fd5b5061028d610271366004615051565b61010c602052600090815260409020546001600160a01b031681565b6040516001600160a01b0390911681526020015b60405180910390f35b3480156102b657600080fd5b506102ca6102c5366004615081565b6108bd565b005b3480156102d857600080fd5b5061010f546301000000900460ff165b60405160ff90911681526020016102a1565b34801561030657600080fd5b5061031a6103153660046150c2565b61093e565b60405190151581526020016102a1565b34801561033657600080fd5b506102ca6103453660046150df565b610965565b34801561035657600080fd5b506102ca610365366004615112565b610a2b565b34801561037657600080fd5b5061038a6103853660046150c2565b610c72565b6040805194855260208501939093529183015260608201526080016102a1565b3480156103b657600080fd5b506103ca6103c53660046150c2565b611261565b6040519081526020016102a1565b3480156103e457600080fd5b5061041c6103f33660046150c2565b61010a60205260009081526040902080546002909101546001600160a01b039091169060ff1682565b604080516001600160a01b03909316835260ff9091166020830152016102a1565b34801561044957600080fd5b506102ca61045836600461538a565b6114f8565b34801561046957600080fd5b506102ca6104783660046150c2565b611819565b34801561048957600080fd5b5061028d6104983660046150c2565b6001600160a01b03908116600090815261010960205260409020541690565b6102ca6104c53660046154a5565b6118f8565b3480156104d657600080fd5b5061028d6104e5366004615509565b6119c8565b3480156104f657600080fd5b506103ca6119f3565b34801561050b57600080fd5b5060335460ff1661031a565b34801561052357600080fd5b506102ca611aa6565b34801561053857600080fd5b5061010f5462010000900460ff166102e8565b34801561055757600080fd5b506102ca6105663660046150df565b611aba565b34801561057757600080fd5b506102ca610586366004615522565b611b18565b34801561059757600080fd5b506102ca6105a636600461554e565b611c1c565b3480156105b757600080fd5b506102ca611c5a565b3480156105cc57600080fd5b506105e06105db3660046150c2565b611e40565b6040516102a1919061557a565b3480156105f957600080fd5b506102ca6106083660046155ef565b611f26565b34801561061957600080fd5b506065546001600160a01b031661028d565b34801561063757600080fd5b506102ca610646366004615664565b611ffa565b34801561065757600080fd5b5061066b610666366004615686565b61208f565b6040516102a197969594939291906156f1565b34801561068a57600080fd5b5061069e6106993660046150c2565b6121e1565b604080519283526020830191909152016102a1565b3480156106bf57600080fd5b506102ca6106ce3660046150df565b612787565b3480156106df57600080fd5b5061010f546106ef9061ffff1681565b60405161ffff90911681526020016102a1565b34801561070e57600080fd5b506106ef61071d3660046150c2565b61010d6020526000908152604090205461ffff1681565b34801561074057600080fd5b506102ca61074f36600461554e565b612adf565b34801561076057600080fd5b5061077461076f366004615746565b612b07565b6040516102a19291906157cd565b34801561078e57600080fd5b506102e861079d3660046150c2565b612be5565b3480156107ae57600080fd5b506107c26107bd3660046150c2565b613074565b604080519384526020840192909252908201526060016102a1565b3480156107e957600080fd5b5060fb546001600160a01b031661028d565b34801561080757600080fd5b506102ca6108163660046150c2565b61318f565b34801561082757600080fd5b5061083b6108363660046150c2565b613205565b6040516102a194939291906157f3565b34801561085757600080fd5b5061086b6108663660046150c2565b6132f2565b6040516102a19190615860565b34801561088457600080fd5b5061088d6135df565b6040516102a1949392919061596f565b3480156108a957600080fd5b506102ca6108b83660046150df565b6136a6565b6108c5613762565b60405163a9059cbb60e01b81526001600160a01b0383811660048301526024820183905284169063a9059cbb906044016020604051808303816000875af1158015610914573d6000803e3d6000fd5b505050506040513d601f19601f8201168201806040525081019061093891906159a9565b50505050565b6001600160a01b038082166000908152610109602052604081205490911615155b92915050565b61096d613762565b61010654825b8261ffff168161ffff1610156109385761ffff8116600090815261010c60209081526040808320546001600160a01b031683526101099091528120905b83811015610a185781546001600160a01b031615610a185781546001600160a01b03166000908152610109602052604081206004840154600682018054929391929091906109ff9084906159e1565b90915550909250610a119050816159f4565b90506109b0565b505080610a2490615a0d565b9050610973565b60fb5433906001600160a01b0316610a4b6065546001600160a01b031690565b6001600160a01b0316826001600160a01b03161480610af1575060fb60009054906101000a90046001600160a01b03166001600160a01b03166363d9df856040518163ffffffff1660e01b8152600401602060405180830381865afa158015610ab8573d6000803e3d6000fd5b505050506040513d601f19601f82011682018060405250810190610adc9190615a2e565b6001600160a01b0316826001600160a01b0316145b610b4d5760405162461bcd60e51b815260206004820152602260248201527f4f6e6c79206f776e65722063616e2063616c6c20746869732066756e6374696f604482015261371760f11b60648201526084015b60405180910390fd5b6001600160a01b038481166000908152610109602052604090205416158015610b7e57506001600160a01b03831615155b15610b8d57610b8d84846137bc565b6001600160a01b038381166000908152610109602052604090205416158015610bbe57506001600160a01b03831615155b8015610bd95750610100546001600160a01b03848116911614155b15610bf65761010054610bf69084906001600160a01b03166137bc565b610c628585836001600160a01b031663611509236040518163ffffffff1660e01b8152600401602060405180830381865afa158015610c39573d6000803e3d6000fd5b505050506040513d601f19601f82011682018060405250810190610c5d9190615a2e565b613904565b610c6b846140c5565b5050505050565b6001600160a01b0381166000908152610109602052604081206001810154600482015492918291829190825b81811015610f755760006101096000856001018481548110610cc257610cc2615a4b565b60009182526020808320909101546001600160a01b03908116845283820194909452604092830190912082516101608101845281549094168452600181018054845181850281018501909552808552919385840193909290830182828015610d5357602002820191906000526020600020905b81546001600160a01b03168152600190910190602001808311610d35575b5050505050815260200160028201805480602002602001604051908101604052809291908181526020018280548015610db557602002820191906000526020600020905b81546001600160a01b03168152600190910190602001808311610d97575b5050505050815260200160038201805480602002602001604051908101604052809291908181526020018280548015610e0d57602002820191906000526020600020905b815481526020019060010190808311610df9575b5050505050815260200160048201548152602001600582015481526020016006820154815260200160078201805480602002602001604051908101604052809291908181526020018280548015610e8357602002820191906000526020600020905b815481526020019060010190808311610e6f575b5050505050815260200160088201805480602002602001604051908101604052809291908181526020018280548015610edb57602002820191906000526020600020905b815481526020019060010190808311610ec7575b5050505050815260200160098201805480602002602001604051908101604052809291908181526020018280548015610f3357602002820191906000526020600020905b815481526020019060010190808311610f1f575b5050509183525050600a919091015460ff1615156020909101526080810151909150610f5f90886159e1565b9650508080610f6d906159f4565b915050610c9e565b5060005b818110156112505760006101096000856001018481548110610f9d57610f9d615a4b565b60009182526020808320909101546001600160a01b0390811684528382019490945260409283019091208251610160810184528154909416845260018101805484518185028101850190955280855291938584019390929083018282801561102e57602002820191906000526020600020905b81546001600160a01b03168152600190910190602001808311611010575b505050505081526020016002820180548060200260200160405190810160405280929190818152602001828054801561109057602002820191906000526020600020905b81546001600160a01b03168152600190910190602001808311611072575b50505050508152602001600382018054806020026020016040519081016040528092919081815260200182805480156110e857602002820191906000526020600020905b8154815260200190600101908083116110d4575b505050505081526020016004820154815260200160058201548152602001600682015481526020016007820180548060200260200160405190810160405280929190818152602001828054801561115e57602002820191906000526020600020905b81548152602001906001019080831161114a575b50505050508152602001600882018054806020026020016040519081016040528092919081815260200182805480156111b657602002820191906000526020600020905b8154815260200190600101908083116111a2575b505050505081526020016009820180548060200260200160405190810160405280929190818152602001828054801561120e57602002820191906000526020600020905b8154815260200190600101908083116111fa575b5050509183525050600a919091015460ff16151560209091015260c081015190915061123a90876159e1565b9550508080611248906159f4565b915050610f79565b508160060154925050509193509193565b6001600160a01b0380821660009081526101096020908152604080832081516101608101835281549095168552600181018054835181860281018601909452808452949586959094929385840193909291908301828280156112ec57602002820191906000526020600020905b81546001600160a01b031681526001909101906020018083116112ce575b505050505081526020016002820180548060200260200160405190810160405280929190818152602001828054801561134e57602002820191906000526020600020905b81546001600160a01b03168152600190910190602001808311611330575b50505050508152602001600382018054806020026020016040519081016040528092919081815260200182805480156113a657602002820191906000526020600020905b815481526020019060010190808311611392575b505050505081526020016004820154815260200160058201548152602001600682015481526020016007820180548060200260200160405190810160405280929190818152602001828054801561141c57602002820191906000526020600020905b815481526020019060010190808311611408575b505050505081526020016008820180548060200260200160405190810160405280929190818152602001828054801561147457602002820191906000526020600020905b815481526020019060010190808311611460575b50505050508152602001600982018054806020026020016040519081016040528092919081815260200182805480156114cc57602002820191906000526020600020905b8154815260200190600101908083116114b8575b5050509183525050600a919091015460ff16151560209091015290506114f1816141bc565b9392505050565b60fb54604051630935e01b60e21b81523360048201526001600160a01b03909116906324d7806c90602401602060405180830381865afa158015611540573d6000803e3d6000fd5b505050506040513d601f19601f8201168201806040525081019061156491906159a9565b6115805760405162461bcd60e51b8152600401610b4490615a61565b60005b875181101561180f576040518060e001604052808983815181106115a9576115a9615a4b565b602002602001015160ff1681526020018883815181106115cb576115cb615a4b565b602002602001015181526020018783815181106115ea576115ea615a4b565b6020026020010151815260200186838151811061160957611609615a4b565b6020026020010151815260200185838151811061162857611628615a4b565b6020026020010151815260200184838151811061164757611647615a4b565b6020026020010151815260200183838151811061166657611666615a4b565b602002602001015181525061010b60008a848151811061168857611688615a4b565b60209081029190910181015160ff90811683528282019390935260409182016000208451815460ff191694169390931783558301516001830155820151600282015560608201516003820155608082015160048201906116e89082615b0e565b5060a082015160058201906116fd9082615b0e565b5060c082015181600601559050507fb9f30bf0ab6748f3fcfbc9d280ed1feedea51276343f55f8342b8c453b876e9a88828151811061173e5761173e615a4b565b602002602001015188838151811061175857611758615a4b565b602002602001015188848151811061177257611772615a4b565b602002602001015188858151811061178c5761178c615a4b565b60200260200101518886815181106117a6576117a6615a4b565b60200260200101518887815181106117c0576117c0615a4b565b60200260200101518888815181106117da576117da615a4b565b60200260200101516040516117f597969594939291906156f1565b60405180910390a180611807816159f4565b915050611583565b5050505050505050565b6001600160a01b037f00000000000000000000000000000000000000000000000000000000000000001630036118615760405162461bcd60e51b8152600401610b4490615bce565b7f00000000000000000000000000000000000000000000000000000000000000006001600160a01b03166118aa600080516020615eae833981519152546001600160a01b031690565b6001600160a01b0316146118d05760405162461bcd60e51b8152600401610b4490615c1a565b6118d981614226565b604080516000808252602082019092526118f59183919061422e565b50565b6001600160a01b037f00000000000000000000000000000000000000000000000000000000000000001630036119405760405162461bcd60e51b8152600401610b4490615bce565b7f00000000000000000000000000000000000000000000000000000000000000006001600160a01b0316611989600080516020615eae833981519152546001600160a01b031690565b6001600160a01b0316146119af5760405162461bcd60e51b8152600401610b4490615c1a565b6119b882614226565b6119c48282600161422e565b5050565b61010e81815481106119d957600080fd5b6000918252602090912001546001600160a01b0316905081565b6000306001600160a01b037f00000000000000000000000000000000000000000000000000000000000000001614611a935760405162461bcd60e51b815260206004820152603860248201527f555550535570677261646561626c653a206d757374206e6f742062652063616c60448201527f6c6564207468726f7567682064656c656761746563616c6c00000000000000006064820152608401610b44565b50600080516020615eae83398151915290565b611aae613762565b611ab86000614399565b565b611ac2613762565b815b8161ffff168161ffff161015611b135761ffff8116600090815261010c60209081526040808320546001600160a01b03168352610109909152812060060155611b0c81615a0d565b9050611ac4565b505050565b60fb54604051630935e01b60e21b81523360048201526001600160a01b03909116906324d7806c90602401602060405180830381865afa158015611b60573d6000803e3d6000fd5b505050506040513d601f19601f82011682018060405250810190611b8491906159a9565b611ba05760405162461bcd60e51b8152600401610b4490615a61565b6001600160a01b03808316600090815261010a602052604090208054909116611bdd5780546001600160a01b0319166001600160a01b0384161781555b600190810180549182018155600090815260209081902090820401805460ff938416601f9093166101000a928302939092021990911691909117905550565b611c24613762565b6040516001600160a01b0383169082156108fc029083906000818181858888f19350505050158015611b13573d6000803e3d6000fd5b600054610100900460ff1615808015611c7a5750600054600160ff909116105b80611c945750303b158015611c94575060005460ff166001145b611cf75760405162461bcd60e51b815260206004820152602e60248201527f496e697469616c697a61626c653a20636f6e747261637420697320616c72656160448201526d191e481a5b9a5d1a585b1a5e995960921b6064820152608401610b44565b6000805460ff191660011790558015611d1a576000805461ff0019166101001790555b60fb80546001600160a01b03199081167377daafc7411c911b869c71bf70fe36cce507845d17909155610100805490911673f3ba579d4afd4dad8a8c2d1bcbdd1405688e492f1790556040805160e0810182526007808252600460208301526003928201929092526002606082015260016080820181905260a0820181905260c0820152611dab9160fc9190614fda565b50606460fd5560146101065569011478b7c30abc3000006101035560046101015560056101045568a80d24677efef0000061010555611de86143eb565b611df061441a565b611df8614449565b80156118f5576000805461ff0019169055604051600181527f7f26b83ff96e1f2b6a682f133852f6798a09c465da95921460cefb38474024989060200160405180910390a150565b611e70604051806060016040528060006001600160a01b0316815260200160608152602001600060ff1681525090565b6001600160a01b03808316600090815261010a6020908152604091829020825160608101845281549094168452600181018054845181850281018501909552808552919385840193909290830182828015611f0857602002820191906000526020600020906000905b825461010083900a900460ff16815260206001928301818104948501949093039092029101808411611ed95790505b50505091835250506002919091015460ff1660209091015292915050565b60fb54604051630935e01b60e21b81523360048201526001600160a01b03909116906324d7806c90602401602060405180830381865afa158015611f6e573d6000803e3d6000fd5b505050506040513d601f19601f82011682018060405250810190611f9291906159a9565b611fae5760405162461bcd60e51b8152600401610b4490615a61565b60005b81811015611b1357611fe8838383818110611fce57611fce615a4b565b9050602002016020810190611fe391906150c2565b6140c5565b80611ff2816159f4565b915050611fb1565b60fb54604051630935e01b60e21b81523360048201526001600160a01b03909116906324d7806c90602401602060405180830381865afa158015612042573d6000803e3d6000fd5b505050506040513d601f19601f8201168201806040525081019061206691906159a9565b6120825760405162461bcd60e51b8152600401610b4490615a61565b6101039190915561011055565b61010b602052600090815260409020805460018201546002830154600384015460048501805460ff909516959394929391926120ca90615a8c565b80601f01602080910402602001604051908101604052809291908181526020018280546120f690615a8c565b80156121435780601f1061211857610100808354040283529160200191612143565b820191906000526020600020905b81548152906001019060200180831161212657829003601f168201915b50505050509080600501805461215890615a8c565b80601f016020809104026020016040519081016040528092919081815260200182805461218490615a8c565b80156121d15780601f106121a6576101008083540402835291602001916121d1565b820191906000526020600020905b8154815290600101906020018083116121b457829003601f168201915b5050505050908060060154905087565b6001600160a01b0380821660009081526101096020908152604080832081516101608101835281549095168552600181018054835181860281018601909452808452949586958695919485830193909290919083018282801561226d57602002820191906000526020600020905b81546001600160a01b0316815260019091019060200180831161224f575b50505050508152602001600282018054806020026020016040519081016040528092919081815260200182805480156122cf57602002820191906000526020600020905b81546001600160a01b031681526001909101906020018083116122b1575b505050505081526020016003820180548060200260200160405190810160405280929190818152602001828054801561232757602002820191906000526020600020905b815481526020019060010190808311612313575b505050505081526020016004820154815260200160058201548152602001600682015481526020016007820180548060200260200160405190810160405280929190818152602001828054801561239d57602002820191906000526020600020905b815481526020019060010190808311612389575b50505050508152602001600882018054806020026020016040519081016040528092919081815260200182805480156123f557602002820191906000526020600020905b8154815260200190600101908083116123e1575b505050505081526020016009820180548060200260200160405190810160405280929190818152602001828054801561244d57602002820191906000526020600020905b815481526020019060010190808311612439575b5050509183525050600a919091015460ff161515602091820152810151519091506000906002116127805760005b8260200151518161ffff161015612772576000610109600085602001518461ffff16815181106124ad576124ad615a4b565b6020908102919091018101516001600160a01b0390811683528282019390935260409182016000208251610160810184528154909416845260018101805484518185028101850190955280855291938584019390929083018282801561253c57602002820191906000526020600020905b81546001600160a01b0316815260019091019060200180831161251e575b505050505081526020016002820180548060200260200160405190810160405280929190818152602001828054801561259e57602002820191906000526020600020905b81546001600160a01b03168152600190910190602001808311612580575b50505050508152602001600382018054806020026020016040519081016040528092919081815260200182805480156125f657602002820191906000526020600020905b8154815260200190600101908083116125e2575b505050505081526020016004820154815260200160058201548152602001600682015481526020016007820180548060200260200160405190810160405280929190818152602001828054801561266c57602002820191906000526020600020905b815481526020019060010190808311612658575b50505050508152602001600882018054806020026020016040519081016040528092919081815260200182805480156126c457602002820191906000526020600020905b8154815260200190600101908083116126b0575b505050505081526020016009820180548060200260200160405190810160405280929190818152602001828054801561271c57602002820191906000526020600020905b815481526020019060010190808311612708575b5050509183525050600a919091015460ff16151560209091015260c081015190915086101561274d578060c0015195505b60c081015161275c90846159e1565b925050808061276a90615a0d565b91505061247b565b5061277d8482615c66565b92505b5050915091565b61278f613762565b815b8161ffff168161ffff161015611b135761ffff8116600090815261010c60209081526040808320546001600160a01b03168084526101099092529091208115612acc57600281015415612acc5760005b6002820154811015612aca576000610109600084600201848154811061280957612809615a4b565b60009182526020808320909101546001600160a01b0390811684528382019490945260409283019091208251610160810184528154909416845260018101805484518185028101850190955280855291938584019390929083018282801561289a57602002820191906000526020600020905b81546001600160a01b0316815260019091019060200180831161287c575b50505050508152602001600282018054806020026020016040519081016040528092919081815260200182805480156128fc57602002820191906000526020600020905b81546001600160a01b031681526001909101906020018083116128de575b505050505081526020016003820180548060200260200160405190810160405280929190818152602001828054801561295457602002820191906000526020600020905b815481526020019060010190808311612940575b50505050508152602001600482015481526020016005820154815260200160068201548152602001600782018054806020026020016040519081016040528092919081815260200182805480156129ca57602002820191906000526020600020905b8154815260200190600101908083116129b6575b5050505050815260200160088201805480602002602001604051908101604052809291908181526020018280548015612a2257602002820191906000526020600020905b815481526020019060010190808311612a0e575b5050505050815260200160098201805480602002602001604051908101604052809291908181526020018280548015612a7a57602002820191906000526020600020905b815481526020019060010190808311612a66575b5050509183525050600a919091015460ff16151560209091015260808101516006850180549293509091600090612ab29084906159e1565b90915550612ac391508290506159f4565b90506127e1565b505b505080612ad890615a0d565b9050612791565b612ae7613762565b6001600160a01b0390911660009081526101096020526040902060060155565b60606000806000612b19878787614470565b915091508092508061ffff1667ffffffffffffffff811115612b3d57612b3d615154565b604051908082528060200260200182016040528015612b66578160200160208202803683370190505b50935060005b8161ffff168161ffff161015612bda57828161ffff1681518110612b9257612b92615a4b565b6020026020010151858261ffff1681518110612bb057612bb0615a4b565b6001600160a01b039092166020928302919091019091015280612bd281615a0d565b915050612b6c565b505050935093915050565b6001600160a01b038082166000908152610109602090815260408083208151610160810183528154909516855260018101805483518186028101860190945280845294958695909492938584019390929190830182828015612c7057602002820191906000526020600020905b81546001600160a01b03168152600190910190602001808311612c52575b5050505050815260200160028201805480602002602001604051908101604052809291908181526020018280548015612cd257602002820191906000526020600020905b81546001600160a01b03168152600190910190602001808311612cb4575b5050505050815260200160038201805480602002602001604051908101604052809291908181526020018280548015612d2a57602002820191906000526020600020905b815481526020019060010190808311612d16575b5050505050815260200160048201548152602001600582015481526020016006820154815260200160078201805480602002602001604051908101604052809291908181526020018280548015612da057602002820191906000526020600020905b815481526020019060010190808311612d8c575b5050505050815260200160088201805480602002602001604051908101604052809291908181526020018280548015612df857602002820191906000526020600020905b815481526020019060010190808311612de4575b5050505050815260200160098201805480602002602001604051908101604052809291908181526020018280548015612e5057602002820191906000526020600020905b815481526020019060010190808311612e3c575b5050509183525050600a919091015460ff161515602090910152905060005b60148160ff16101561306d5760ff808216600090815261010b60209081526040808320815160e0810183528154909516855260018101549285019290925260028201549084015260038101546060840152600481018054929392608084019190612ed890615a8c565b80601f0160208091040260200160405190810160405280929190818152602001828054612f0490615a8c565b8015612f515780601f10612f2657610100808354040283529160200191612f51565b820191906000526020600020905b815481529060010190602001808311612f3457829003601f168201915b50505050508152602001600582018054612f6a90615a8c565b80601f0160208091040260200160405190810160405280929190818152602001828054612f9690615a8c565b8015612fe35780601f10612fb857610100808354040283529160200191612fe3565b820191906000526020600020905b815481529060010190602001808311612fc657829003601f168201915b50505050508152602001600682015481525050905060028260ff1611801561300d57506020810151155b15613018575061306d565b8060200151613026846141bc565b1015801561303c575080604001518360a0015110155b80156130515750613051838260600151614980565b1561305a578193505b508061306581615c79565b915050612e6f565b5050919050565b6001600160a01b0381166000908152610109602052604081206007810154600882015460098301548493849390929091845b838110156130ed578460070181815481106130c3576130c3615a4b565b9060005260206000200154886130d991906159e1565b9750806130e5816159f4565b9150506130a6565b5060005b828110156131385784600801818154811061310e5761310e615a4b565b90600052602060002001548761312491906159e1565b965080613130816159f4565b9150506130f1565b5060005b818110156131835784600901818154811061315957613159615a4b565b90600052602060002001548661316f91906159e1565b95508061317b816159f4565b91505061313c565b50505050509193909250565b613197613762565b6001600160a01b0381166131fc5760405162461bcd60e51b815260206004820152602660248201527f4f776e61626c653a206e6577206f776e657220697320746865207a65726f206160448201526564647265737360d01b6064820152608401610b44565b6118f581614399565b6001600160a01b0381166000908152610109602090815260408083206001810180548351818602810186019094528084526060959486948694939092909183018282801561327c57602002820191906000526020600020905b81546001600160a01b0316815260019091019060200180831161325e575b5050505050945084519350806002018054806020026020016040519081016040528092919081815260200182805480156132df57602002820191906000526020600020905b81546001600160a01b031681526001909101906020018083116132c1575b5050505050925082519150509193509193565b61335a60405180610160016040528060006001600160a01b031681526020016060815260200160608152602001606081526020016000815260200160008152602001600081526020016060815260200160608152602001606081526020016000151581525090565b6001600160a01b0380831660009081526101096020908152604091829020825161016081018452815490941684526001810180548451818502810185019095528085529193858401939092908301828280156133df57602002820191906000526020600020905b81546001600160a01b031681526001909101906020018083116133c1575b505050505081526020016002820180548060200260200160405190810160405280929190818152602001828054801561344157602002820191906000526020600020905b81546001600160a01b03168152600190910190602001808311613423575b505050505081526020016003820180548060200260200160405190810160405280929190818152602001828054801561349957602002820191906000526020600020905b815481526020019060010190808311613485575b505050505081526020016004820154815260200160058201548152602001600682015481526020016007820180548060200260200160405190810160405280929190818152602001828054801561350f57602002820191906000526020600020905b8154815260200190600101908083116134fb575b505050505081526020016008820180548060200260200160405190810160405280929190818152602001828054801561356757602002820191906000526020600020905b815481526020019060010190808311613553575b50505050508152602001600982018054806020026020016040519081016040528092919081815260200182805480156135bf57602002820191906000526020600020905b8154815260200190600101908083116135ab575b5050509183525050600a919091015460ff16151560209091015292915050565b60fd5460fc805460408051602080840282018101909252828152606093600093849383018282801561363057602002820191906000526020600020905b81548152602001906001019080831161361c575b505060fc549396506000925050505b818160ff16101561368a5760fc8160ff168154811061366057613660615a4b565b90600052602060002001548461367691906159e1565b93508061368281615c79565b91505061363f565b5050610100549394929391926001600160a01b03909216919050565b6136ae613762565b61010654825b8261ffff168161ffff1610156109385761ffff8116600090815261010c60209081526040808320546001600160a01b031683526101099091528120905b8381101561374f5781546001600160a01b03166000818152610109602052604090209061371e575061374f565b826004015481600601600082825461373691906159e1565b909155509092506137489050816159f4565b90506136f1565b50508061375b90615a0d565b90506136b4565b6065546001600160a01b03163314611ab85760405162461bcd60e51b815260206004820181905260248201527f4f776e61626c653a2063616c6c6572206973206e6f7420746865206f776e65726044820152606401610b44565b6001600160a01b038281166000818152610109602052604080822080546001600160a01b03191694861694851781559051909392917ffaf63637882ff2d63ca76881cf92fb857130e36f350c926f9cc884b499b42b7791a360fc5460005b81811015610c6b5782546001600160a01b031660009081526101096020526040812090829003613874576001818101805491820181556000908152602090200180546001600160a01b0319166001600160a01b0388161790555b83546001600160a01b03166138895750610c6b565b6002810180546001810182556000918252602082200180546001600160a01b0319166001600160a01b03898116918217909255865460405191938984169391909116917fb766b19465b3277b0b275adf79d715cac93166bf6e6a39f26e4ccfdec76ad47e9190a49250806138fc816159f4565b91505061381a565b600060fc80548060200260200160405190810160405280929190818152602001828054801561395257602002820191906000526020600020905b81548152602001906001019080831161393e575b505050506001600160a01b038516600090815261010960209081526040822060038101805460018101825590845291832090910188905560048101549394509092909150156139a057600191505b858160040160008282546139b491906159e1565b90915550506101065460009067ffffffffffffffff8111156139d8576139d8615154565b604051908082528060200260200182016040528015613a01578160200160208202803683370190505b5090506000805b61010654811015613d375783546001600160a01b031660008181526101096020526040902090613a385750613d37565b8515613a45576001613a48565b86515b821015613c955760006064888481518110613a6557613a65615a4b565b60200260200101518c613a789190615c98565b613a829190615cc5565b905082600003613aa6578a826005016000828254613aa091906159e1565b90915550505b6007820180546001810182556000918252602082200182905560ff8054839290613ad19084906159e1565b909155505085546001600160a01b03808b169163a9059cbb9116613af5848d614cb8565b6040516001600160e01b031960e085901b1681526001600160a01b03909216600483015260248201526044016020604051808303816000875af1158015613b40573d6000803e3d6000fd5b505050506040513d601f19601f82011682018060405250810190613b6491906159a9565b50855481906001600160a01b03908116908c167f197a0a2b0fbff3fc4f7f4d32597585aa8415fcc4c5dd6634336ec65904529c83613ba38760016159e1565b60408051918252602082018190526005908201526410539554d160da1b606082015260800160405180910390a4600a82015460ff16613c9357610103548260050154118015613bf85750610110548260060154115b15613c935785546101028054600180820183556000929092527f93bdaa6a4190909b7c3fbe8d42169ffe1cab19f51dfc8db24c71abf849eced4a0180546001600160a01b0319166001600160a01b03938416179055600a8401805460ff191690911790558654604051911681527facc63915cb028aeaee9996abc0f864fc0559a2f955750aa97d6ef9f51014acfb9060200160405180910390a15b505b89816006016000828254613ca991906159e1565b9091555050610105546005820154118015613cd6575061010f546001820154630100000090910460ff1611155b15613d2357845484516001600160a01b0390911690859085908110613cfd57613cfd615a4b565b6001600160a01b039092166020928302919091019091015282613d1f816159f4565b9350505b935080613d2f816159f4565b915050613a08565b508015613f0b576000816064610104548b613d529190615c98565b613d5c9190615cc5565b613d669190615cc5565b905060005b82811015613f085760006001600160a01b0316848281518110613d9057613d90615a4b565b60200260200101516001600160a01b03160315613f085760006101096000868481518110613dc057613dc0615a4b565b60200260200101516001600160a01b03166001600160a01b031681526020019081526020016000209050886001600160a01b031663a9059cbb868481518110613e0b57613e0b615a4b565b6020026020010151613e1d868d614cb8565b6040516001600160e01b031960e085901b1681526001600160a01b03909216600483015260248201526044016020604051808303816000875af1158015613e68573d6000803e3d6000fd5b505050506040513d601f19601f82011682018060405250810190613e8c91906159a9565b50848281518110613e9f57613e9f615a4b565b60200260200101516001600160a01b0316837f62f12b06523c734cca73aa1502a5f967c8e09d0a2f084fd36acbac47f54b0d4e60405160405180910390a36009018054600181018255600091825260209091200182905580613f00816159f4565b915050613d6b565b50505b610102541561180f5760006064610101548a613f279190615c98565b613f319190615cc5565b610102546040805142602082015244918101919091529192506000916060016040516020818303038152906040528051906020012060001c613f739190615cd9565b905060006101028281548110613f8b57613f8b615a4b565b6000918252602080832091909101546001600160a01b0316808352610109909152604090912061010f54600182015492935090916201000090910460ff16116140b757896001600160a01b031663a9059cbb83613fe8878e614cb8565b6040516001600160e01b031960e085901b1681526001600160a01b03909216600483015260248201526044016020604051808303816000875af1158015614033573d6000803e3d6000fd5b505050506040513d601f19601f8201168201806040525081019061405791906159a9565b50600881018054600181018255600091825260209182902001859055604080518681526001600160a01b038516928101929092527f51e673ac98f0ea063ce27eb5af807d22b97cd11cd79380cf1f711ad80948046c910160405180910390a15b505050505050505050505050565b6001600160a01b038116600090815261010d602052604081205461ffff1690036118f55761010f546000906140ff9061ffff166001615ced565b6001600160a01b038316600081815261010d60209081526040808320805461ffff191661ffff878116918217909255845261010c909252822080546001600160a01b0319908116851790915561010e80546001810182559084527f44731785622d53a842eeb261a70df6f2b61b9624656157b6168597f0656f480501805490911690931790925561010f805493945092909116919061419d83615a0d565b91906101000a81548161ffff021916908361ffff160217905550505050565b606081015151600090156142215760015b8260600151518161ffff16101561421f5782606001518161ffff16815181106141f8576141f8615a4b565b60200260200101518261420b91906159e1565b91508061421781615a0d565b9150506141cd565b505b919050565b6118f5613762565b7f4910fdfa16fed3260ed0e7147f7cc6da11a60208b5b9406d12a635614ffd91435460ff161561426157611b1383614d44565b826001600160a01b03166352d1902d6040518163ffffffff1660e01b8152600401602060405180830381865afa9250505080156142bb575060408051601f3d908101601f191682019092526142b891810190615d0f565b60015b61431e5760405162461bcd60e51b815260206004820152602e60248201527f45524331393637557067726164653a206e657720696d706c656d656e7461746960448201526d6f6e206973206e6f74205555505360901b6064820152608401610b44565b600080516020615eae833981519152811461438d5760405162461bcd60e51b815260206004820152602960248201527f45524331393637557067726164653a20756e737570706f727465642070726f786044820152681a58589b195555525160ba1b6064820152608401610b44565b50611b13838383614de0565b606580546001600160a01b038381166001600160a01b0319831681179093556040519116919082907f8be0079c531659141344cd1fd0a4f28419497f9722a3daafe3b4186f6b6457e090600090a35050565b600054610100900460ff166144125760405162461bcd60e51b8152600401610b4490615d28565b611ab8614e05565b600054610100900460ff166144415760405162461bcd60e51b8152600401610b4490615d28565b611ab8614e38565b600054610100900460ff16611ab85760405162461bcd60e51b8152600401610b4490615d28565b6060600061447e8484615d73565b61ffff1667ffffffffffffffff81111561449a5761449a615154565b6040519080825280602002602001820160405280156144c3578160200160208202803683370190505b5091505b8261ffff168461ffff16116149785761ffff8416600090815261010c60209081526040808320546001600160a01b0390811680855261010984528285208351610160810185528154909316835260018101805485518188028101880190965280865292969593949193858101939083018282801561456e57602002820191906000526020600020905b81546001600160a01b03168152600190910190602001808311614550575b50505050508152602001600282018054806020026020016040519081016040528092919081815260200182805480156145d057602002820191906000526020600020905b81546001600160a01b031681526001909101906020018083116145b2575b505050505081526020016003820180548060200260200160405190810160405280929190818152602001828054801561462857602002820191906000526020600020905b815481526020019060010190808311614614575b505050505081526020016004820154815260200160058201548152602001600682015481526020016007820180548060200260200160405190810160405280929190818152602001828054801561469e57602002820191906000526020600020905b81548152602001906001019080831161468a575b50505050508152602001600882018054806020026020016040519081016040528092919081815260200182805480156146f657602002820191906000526020600020905b8154815260200190600101908083116146e2575b505050505081526020016009820180548060200260200160405190810160405280929190818152602001828054801561474e57602002820191906000526020600020905b81548152602001906001019080831161473a575b5050509183525050600a919091015460ff9081161515602092830152898116600090815261010b83526040808220815160e081018352815490941684526001810154948401949094526002840154908301526003830154606083015260048301805494955090939192916080840191906147c790615a8c565b80601f01602080910402602001604051908101604052809291908181526020018280546147f390615a8c565b80156148405780601f1061481557610100808354040283529160200191614840565b820191906000526020600020905b81548152906001019060200180831161482357829003601f168201915b5050505050815260200160058201805461485990615a8c565b80601f016020809104026020016040519081016040528092919081815260200182805461488590615a8c565b80156148d25780601f106148a7576101008083540402835291602001916148d2565b820191906000526020600020905b8154815290600101906020018083116148b557829003601f168201915b50505050508152602001600682015481525050905080602001516148f5836141bc565b1015801561490b575080604001518260a0015110155b80156149205750614920828260600151614980565b156149625782858561ffff168151811061493c5761493c615a4b565b6001600160a01b03909216602092830291909101909101528361495e81615a0d565b9450505b505050838061497090615a0d565b9450506144c7565b935093915050565b6000806000600285602001515110614cb05760005b8560200151518161ffff161015614c8c576000610109600088602001518461ffff16815181106149c7576149c7615a4b565b6020908102919091018101516001600160a01b03908116835282820193909352604091820160002082516101608101845281549094168452600181018054845181850281018501909552808552919385840193909290830182828015614a5657602002820191906000526020600020905b81546001600160a01b03168152600190910190602001808311614a38575b5050505050815260200160028201805480602002602001604051908101604052809291908181526020018280548015614ab857602002820191906000526020600020905b81546001600160a01b03168152600190910190602001808311614a9a575b5050505050815260200160038201805480602002602001604051908101604052809291908181526020018280548015614b1057602002820191906000526020600020905b815481526020019060010190808311614afc575b5050505050815260200160048201548152602001600582015481526020016006820154815260200160078201805480602002602001604051908101604052809291908181526020018280548015614b8657602002820191906000526020600020905b815481526020019060010190808311614b72575b5050505050815260200160088201805480602002602001604051908101604052809291908181526020018280548015614bde57602002820191906000526020600020905b815481526020019060010190808311614bca575b5050505050815260200160098201805480602002602001604051908101604052809291908181526020018280548015614c3657602002820191906000526020600020905b815481526020019060010190808311614c22575b5050509183525050600a919091015460ff16151560209091015260c0810151909150841015614c67578060c0015193505b60c0810151614c7690846159e1565b9250508080614c8490615a0d565b915050614995565b50838210158015614ca6575083614ca38383615c66565b10155b15614cb057600192505b505092915050565b6000670de0b6b3a7640000826001600160a01b031663313ce5676040518163ffffffff1660e01b8152600401602060405180830381865afa158015614d01573d6000803e3d6000fd5b505050506040513d601f19601f82011682018060405250810190614d259190615d0f565b614d3090600a615e72565b614d3a9085615c98565b6114f19190615cc5565b6001600160a01b0381163b614db15760405162461bcd60e51b815260206004820152602d60248201527f455243313936373a206e657720696d706c656d656e746174696f6e206973206e60448201526c1bdd08184818dbdb9d1c9858dd609a1b6064820152608401610b44565b600080516020615eae83398151915280546001600160a01b0319166001600160a01b0392909216919091179055565b614de983614e68565b600082511180614df65750805b15611b13576109388383614ea8565b600054610100900460ff16614e2c5760405162461bcd60e51b8152600401610b4490615d28565b6033805460ff19169055565b600054610100900460ff16614e5f5760405162461bcd60e51b8152600401610b4490615d28565b611ab833614399565b614e7181614d44565b6040516001600160a01b038216907fbc7cd75a20ee27fd9adebab32041f755214dbc6bffa90cc0225b39da2e5c2d3b90600090a250565b60606001600160a01b0383163b614f105760405162461bcd60e51b815260206004820152602660248201527f416464726573733a2064656c65676174652063616c6c20746f206e6f6e2d636f6044820152651b9d1c9858dd60d21b6064820152608401610b44565b600080846001600160a01b031684604051614f2b9190615e7e565b600060405180830381855af49150503d8060008114614f66576040519150601f19603f3d011682016040523d82523d6000602084013e614f6b565b606091505b5091509150614f938282604051806060016040528060278152602001615ece60279139614f9c565b95945050505050565b60608315614fab5750816114f1565b6114f18383815115614fc05781518083602001fd5b8060405162461bcd60e51b8152600401610b449190615e9a565b82805482825590600052602060002090810192821561501a579160200282015b8281111561501a578251829060ff16905591602001919060010190614ffa565b5061502692915061502a565b5090565b5b80821115615026576000815560010161502b565b803561ffff8116811461422157600080fd5b60006020828403121561506357600080fd5b6114f18261503f565b6001600160a01b03811681146118f557600080fd5b60008060006060848603121561509657600080fd5b83356150a18161506c565b925060208401356150b18161506c565b929592945050506040919091013590565b6000602082840312156150d457600080fd5b81356114f18161506c565b600080604083850312156150f257600080fd5b6150fb8361503f565b91506151096020840161503f565b90509250929050565b60008060006060848603121561512757600080fd5b8335925060208401356151398161506c565b915060408401356151498161506c565b809150509250925092565b634e487b7160e01b600052604160045260246000fd5b604051601f8201601f1916810167ffffffffffffffff8111828210171561519357615193615154565b604052919050565b600067ffffffffffffffff8211156151b5576151b5615154565b5060051b60200190565b803560ff8116811461422157600080fd5b600082601f8301126151e157600080fd5b813560206151f66151f18361519b565b61516a565b82815260059290921b8401810191818101908684111561521557600080fd5b8286015b848110156152375761522a816151bf565b8352918301918301615219565b509695505050505050565b600082601f83011261525357600080fd5b813560206152636151f18361519b565b82815260059290921b8401810191818101908684111561528257600080fd5b8286015b848110156152375780358352918301918301615286565b600067ffffffffffffffff8311156152b7576152b7615154565b6152ca601f8401601f191660200161516a565b90508281528383830111156152de57600080fd5b828260208301376000602084830101529392505050565b600082601f83011261530657600080fd5b813560206153166151f18361519b565b82815260059290921b8401810191818101908684111561533557600080fd5b8286015b8481101561523757803567ffffffffffffffff8111156153595760008081fd5b8701603f8101891361536b5760008081fd5b61537c89868301356040840161529d565b845250918301918301615339565b600080600080600080600060e0888a0312156153a557600080fd5b873567ffffffffffffffff808211156153bd57600080fd5b6153c98b838c016151d0565b985060208a01359150808211156153df57600080fd5b6153eb8b838c01615242565b975060408a013591508082111561540157600080fd5b61540d8b838c01615242565b965060608a013591508082111561542357600080fd5b61542f8b838c01615242565b955060808a013591508082111561544557600080fd5b6154518b838c016152f5565b945060a08a013591508082111561546757600080fd5b6154738b838c016152f5565b935060c08a013591508082111561548957600080fd5b506154968a828b01615242565b91505092959891949750929550565b600080604083850312156154b857600080fd5b82356154c38161506c565b9150602083013567ffffffffffffffff8111156154df57600080fd5b8301601f810185136154f057600080fd5b6154ff8582356020840161529d565b9150509250929050565b60006020828403121561551b57600080fd5b5035919050565b6000806040838503121561553557600080fd5b82356155408161506c565b9150615109602084016151bf565b6000806040838503121561556157600080fd5b823561556c8161506c565b946020939093013593505050565b602080825282516001600160a01b031682820152828101516060604084015280516080840181905260009291820190839060a08601905b808310156155d457835160ff1682529284019260019290920191908401906155b1565b5060ff60408801511660608701528094505050505092915050565b6000806020838503121561560257600080fd5b823567ffffffffffffffff8082111561561a57600080fd5b818501915085601f83011261562e57600080fd5b81358181111561563d57600080fd5b8660208260051b850101111561565257600080fd5b60209290920196919550909350505050565b6000806040838503121561567757600080fd5b50508035926020909101359150565b60006020828403121561569857600080fd5b6114f1826151bf565b60005b838110156156bc5781810151838201526020016156a4565b50506000910152565b600081518084526156dd8160208601602086016156a1565b601f01601f19169290920160200192915050565b60ff8816815286602082015285604082015284606082015260e06080820152600061571f60e08301866156c5565b82810360a084015261573181866156c5565b9150508260c083015298975050505050505050565b60008060006060848603121561575b57600080fd5b615764846151bf565b92506157726020850161503f565b91506157806040850161503f565b90509250925092565b600081518084526020808501945080840160005b838110156157c25781516001600160a01b03168752958201959082019060010161579d565b509495945050505050565b6040815260006157e06040830185615789565b905061ffff831660208301529392505050565b6080815260006158066080830187615789565b856020840152828103604084015261581e8186615789565b91505082606083015295945050505050565b600081518084526020808501945080840160005b838110156157c257815187529582019590820190600101615844565b6020815261587a6020820183516001600160a01b03169052565b60006020830151610160806040850152615898610180850183615789565b91506040850151601f19808685030160608701526158b68483615789565b935060608701519150808685030160808701526158d38483615830565b9350608087015160a087015260a087015160c087015260c087015160e087015260e087015191506101008187860301818801526159108584615830565b94508088015192505061012081878603018188015261592f8584615830565b94508088015192505061014081878603018188015261594e8584615830565b945080880151925050506159658286018215159052565b5090949350505050565b8481526080602082015260006159886080830186615830565b6040830194909452506001600160a01b039190911660609091015292915050565b6000602082840312156159bb57600080fd5b815180151581146114f157600080fd5b634e487b7160e01b600052601160045260246000fd5b8082018082111561095f5761095f6159cb565b600060018201615a0657615a066159cb565b5060010190565b600061ffff808316818103615a2457615a246159cb565b6001019392505050565b600060208284031215615a4057600080fd5b81516114f18161506c565b634e487b7160e01b600052603260045260246000fd5b6020808252601190820152702cb7ba9030b932903737ba1030b236b4b760791b604082015260600190565b600181811c90821680615aa057607f821691505b60208210810361421f57634e487b7160e01b600052602260045260246000fd5b601f821115611b1357600081815260208120601f850160051c81016020861015615ae75750805b601f850160051c820191505b81811015615b0657828155600101615af3565b505050505050565b815167ffffffffffffffff811115615b2857615b28615154565b615b3c81615b368454615a8c565b84615ac0565b602080601f831160018114615b715760008415615b595750858301515b600019600386901b1c1916600185901b178555615b06565b600085815260208120601f198616915b82811015615ba057888601518255948401946001909101908401615b81565b5085821015615bbe5787850151600019600388901b60f8161c191681555b5050505050600190811b01905550565b6020808252602c908201527f46756e6374696f6e206d7573742062652063616c6c6564207468726f7567682060408201526b19195b1959d85d1958d85b1b60a21b606082015260800190565b6020808252602c908201527f46756e6374696f6e206d7573742062652063616c6c6564207468726f7567682060408201526b6163746976652070726f787960a01b606082015260800190565b8181038181111561095f5761095f6159cb565b600060ff821660ff8103615c8f57615c8f6159cb565b60010192915050565b808202811582820484141761095f5761095f6159cb565b634e487b7160e01b600052601260045260246000fd5b600082615cd457615cd4615caf565b500490565b600082615ce857615ce8615caf565b500690565b61ffff818116838216019080821115615d0857615d086159cb565b5092915050565b600060208284031215615d2157600080fd5b5051919050565b6020808252602b908201527f496e697469616c697a61626c653a20636f6e7472616374206973206e6f74206960408201526a6e697469616c697a696e6760a81b606082015260800190565b61ffff828116828216039080821115615d0857615d086159cb565b600181815b80851115615dc9578160001904821115615daf57615daf6159cb565b80851615615dbc57918102915b93841c9390800290615d93565b509250929050565b600082615de05750600161095f565b81615ded5750600061095f565b8160018114615e035760028114615e0d57615e29565b600191505061095f565b60ff841115615e1e57615e1e6159cb565b50506001821b61095f565b5060208310610133831016604e8410600b8410161715615e4c575081810a61095f565b615e568383615d8e565b8060001904821115615e6a57615e6a6159cb565b029392505050565b60006114f18383615dd1565b60008251615e908184602087016156a1565b9190910192915050565b6020815260006114f160208301846156c556fe360894a13ba1a3210667c828492db98dca3e2076cc3735a920a3ca505d382bbc416464726573733a206c6f772d6c6576656c2064656c65676174652063616c6c206661696c6564a2646970667358221220ea948e7f9a70e7d446fde921157cba8537e67f8489519c6a316adcf884951d2764736f6c63430008110033",
  "linkReferences": {},
  "deployedLinkReferences": {}
}