{
  "_format": "hh-sol-artifact-1",
  "contractName": "ReferralUpgradeable",
  "sourceName": "contracts/ReferralUpgradeable.sol",
  "abi": [
    {
      "anonymous": false,
      "inputs": [
        {
          "indexed": false,
          "internalType": "address",
          "name": "previousAdmin",
          "type": "address"
        },
        {
          "indexed": false,
          "internalType": "address",
          "name": "newAdmin",
          "type": "address"
        }
      ],
      "name": "AdminChanged",
      "type": "event"
    },
    {
      "anonymous": false,
      "inputs": [
        {
          "indexed": true,
          "internalType": "address",
          "name": "beacon",
          "type": "address"
        }
      ],
      "name": "BeaconUpgraded",
      "type": "event"
    },
    {
      "anonymous": false,
      "inputs": [
        {
          "indexed": true,
          "internalType": "address",
          "name": "userAddressaddress",
          "type": "address"
        }
      ],
      "name": "CoreMemberAdded",
      "type": "event"
    },
    {
      "anonymous": false,
      "inputs": [
        {
          "indexed": false,
          "internalType": "address",
          "name": "userAddress",
          "type": "address"
        }
      ],
      "name": "CoreMemberRemoved",
      "type": "event"
    },
    {
      "anonymous": false,
      "inputs": [
        {
          "indexed": true,
          "internalType": "uint256",
          "name": "value",
          "type": "uint256"
        },
        {
          "indexed": true,
          "internalType": "address",
          "name": "userAddress",
          "type": "address"
        }
      ],
      "name": "CoreMemberRewardPaid",
      "type": "event"
    },
    {
      "anonymous": false,
      "inputs": [
        {
          "indexed": false,
          "internalType": "address",
          "name": "userAddress",
          "type": "address"
        }
      ],
      "name": "GlobalAddressAdded",
      "type": "event"
    },
    {
      "anonymous": false,
      "inputs": [
        {
          "indexed": false,
          "internalType": "address",
          "name": "userAddress",
          "type": "address"
        }
      ],
      "name": "GlobalAddressRemoved",
      "type": "event"
    },
    {
      "anonymous": false,
      "inputs": [
        {
          "indexed": false,
          "internalType": "uint256",
          "name": "value",
          "type": "uint256"
        },
        {
          "indexed": false,
          "internalType": "address",
          "name": "userAddress",
          "type": "address"
        }
      ],
      "name": "GlobalRewardPaid",
      "type": "event"
    },
    {
      "anonymous": false,
      "inputs": [
        {
          "indexed": false,
          "internalType": "uint8",
          "name": "version",
          "type": "uint8"
        }
      ],
      "name": "Initialized",
      "type": "event"
    },
    {
      "anonymous": false,
      "inputs": [
        {
          "indexed": true,
          "internalType": "address",
          "name": "previousOwner",
          "type": "address"
        },
        {
          "indexed": true,
          "internalType": "address",
          "name": "newOwner",
          "type": "address"
        }
      ],
      "name": "OwnershipTransferred",
      "type": "event"
    },
    {
      "anonymous": false,
      "inputs": [
        {
          "indexed": true,
          "internalType": "uint256",
          "name": "value",
          "type": "uint256"
        },
        {
          "indexed": true,
          "internalType": "address",
          "name": "userAddress",
          "type": "address"
        }
      ],
      "name": "PassiveRewardPaid",
      "type": "event"
    },
    {
      "anonymous": false,
      "inputs": [
        {
          "indexed": false,
          "internalType": "address",
          "name": "account",
          "type": "address"
        }
      ],
      "name": "Paused",
      "type": "event"
    },
    {
      "anonymous": false,
      "inputs": [
        {
          "indexed": true,
          "internalType": "address",
          "name": "referee",
          "type": "address"
        },
        {
          "indexed": true,
          "internalType": "address",
          "name": "referrer",
          "type": "address"
        },
        {
          "indexed": true,
          "internalType": "uint256",
          "name": "amount",
          "type": "uint256"
        },
        {
          "indexed": false,
          "internalType": "uint256",
          "name": "level",
          "type": "uint256"
        },
        {
          "indexed": false,
          "internalType": "string",
          "name": "currency",
          "type": "string"
        }
      ],
      "name": "ReferralRewardPaid",
      "type": "event"
    },
    {
      "anonymous": false,
      "inputs": [
        {
          "indexed": true,
          "internalType": "address",
          "name": "referee",
          "type": "address"
        },
        {
          "indexed": true,
          "internalType": "address",
          "name": "referrer",
          "type": "address"
        },
        {
          "indexed": true,
          "internalType": "string",
          "name": "reason",
          "type": "string"
        }
      ],
      "name": "RegisterRefererFailed",
      "type": "event"
    },
    {
      "anonymous": false,
      "inputs": [
        {
          "indexed": true,
          "internalType": "address",
          "name": "referee",
          "type": "address"
        },
        {
          "indexed": true,
          "internalType": "address",
          "name": "referrer",
          "type": "address"
        }
      ],
      "name": "RegisteredReferer",
      "type": "event"
    },
    {
      "anonymous": false,
      "inputs": [
        {
          "indexed": true,
          "internalType": "address",
          "name": "parent",
          "type": "address"
        },
        {
          "indexed": true,
          "internalType": "address",
          "name": "referrer",
          "type": "address"
        },
        {
          "indexed": true,
          "internalType": "address",
          "name": "referee",
          "type": "address"
        }
      ],
      "name": "RegisteredTeamAddress",
      "type": "event"
    },
    {
      "anonymous": false,
      "inputs": [
        {
          "indexed": false,
          "internalType": "address",
          "name": "userAddress",
          "type": "address"
        },
        {
          "indexed": false,
          "internalType": "uint8",
          "name": "rewardId",
          "type": "uint8"
        }
      ],
      "name": "RewardAccountAdded",
      "type": "event"
    },
    {
      "anonymous": false,
      "inputs": [
        {
          "indexed": false,
          "internalType": "address",
          "name": "userAddress",
          "type": "address"
        },
        {
          "indexed": false,
          "internalType": "uint8",
          "name": "rewardId",
          "type": "uint8"
        }
      ],
      "name": "RewardAccountPaid",
      "type": "event"
    },
    {
      "anonymous": false,
      "inputs": [
        {
          "indexed": false,
          "internalType": "uint8",
          "name": "id",
          "type": "uint8"
        },
        {
          "indexed": false,
          "internalType": "uint256",
          "name": "selfBusinessLimit",
          "type": "uint256"
        },
        {
          "indexed": false,
          "internalType": "uint256",
          "name": "directBusinessLimit",
          "type": "uint256"
        },
        {
          "indexed": false,
          "internalType": "uint256",
          "name": "teamBusinessLimit",
          "type": "uint256"
        },
        {
          "indexed": false,
          "internalType": "string",
          "name": "rankName",
          "type": "string"
        },
        {
          "indexed": false,
          "internalType": "string",
          "name": "rewardName",
          "type": "string"
        },
        {
          "indexed": false,
          "internalType": "uint256",
          "name": "appraisal",
          "type": "uint256"
        }
      ],
      "name": "RewardAdded",
      "type": "event"
    },
    {
      "anonymous": false,
      "inputs": [
        {
          "indexed": false,
          "internalType": "address",
          "name": "account",
          "type": "address"
        }
      ],
      "name": "Unpaused",
      "type": "event"
    },
    {
      "anonymous": false,
      "inputs": [
        {
          "indexed": true,
          "internalType": "address",
          "name": "implementation",
          "type": "address"
        }
      ],
      "name": "Upgraded",
      "type": "event"
    },
    {
      "inputs": [
        {
          "internalType": "address[]",
          "name": "_userAddress",
          "type": "address[]"
        },
        {
          "internalType": "address[]",
          "name": "_referrerAddress",
          "type": "address[]"
        }
      ],
      "name": "addReferrerAdmin",
      "outputs": [],
      "stateMutability": "nonpayable",
      "type": "function"
    },
    {
      "inputs": [
        {
          "internalType": "address",
          "name": "",
          "type": "address"
        }
      ],
      "name": "addressToId",
      "outputs": [
        {
          "internalType": "uint16",
          "name": "",
          "type": "uint16"
        }
      ],
      "stateMutability": "view",
      "type": "function"
    },
    {
      "inputs": [],
      "name": "contractDefaults",
      "outputs": [
        {
          "internalType": "uint256",
          "name": "levelDecimals",
          "type": "uint256"
        },
        {
          "internalType": "uint256[]",
          "name": "levelRates",
          "type": "uint256[]"
        },
        {
          "internalType": "uint256",
          "name": "totalLevelRate",
          "type": "uint256"
        },
        {
          "internalType": "address",
          "name": "defaultReferrer",
          "type": "address"
        }
      ],
      "stateMutability": "view",
      "type": "function"
    },
    {
      "inputs": [
        {
          "internalType": "uint8",
          "name": "_rewardId",
          "type": "uint8"
        },
        {
          "internalType": "uint16",
          "name": "_from",
          "type": "uint16"
        },
        {
          "internalType": "uint16",
          "name": "_to",
          "type": "uint16"
        }
      ],
      "name": "getRewardQualifiedUsers",
      "outputs": [
        {
          "internalType": "address[]",
          "name": "_userAddress",
          "type": "address[]"
        },
        {
          "internalType": "uint16",
          "name": "_achieversListCount",
          "type": "uint16"
        }
      ],
      "stateMutability": "view",
      "type": "function"
    },
    {
      "inputs": [
        {
          "internalType": "address",
          "name": "_address",
          "type": "address"
        }
      ],
      "name": "getUserAccount",
      "outputs": [
        {
          "components": [
            {
              "internalType": "address",
              "name": "referrer",
              "type": "address"
            },
            {
              "internalType": "address[]",
              "name": "referee",
              "type": "address[]"
            },
            {
              "internalType": "address[]",
              "name": "team",
              "type": "address[]"
            },
            {
              "internalType": "uint256[]",
              "name": "topUp",
              "type": "uint256[]"
            },
            {
              "internalType": "uint256",
              "name": "selfBusiness",
              "type": "uint256"
            },
            {
              "internalType": "uint256",
              "name": "directBusiness",
              "type": "uint256"
            },
            {
              "internalType": "uint256",
              "name": "totalBusiness",
              "type": "uint256"
            },
            {
              "internalType": "uint256[]",
              "name": "rewardsPaidReferral",
              "type": "uint256[]"
            },
            {
              "internalType": "uint256[]",
              "name": "rewardsPaidGlobal",
              "type": "uint256[]"
            },
            {
              "internalType": "uint256[]",
              "name": "rewardPaidPassive",
              "type": "uint256[]"
            },
            {
              "internalType": "bool",
              "name": "isInGlobalID",
              "type": "bool"
            }
          ],
          "internalType": "struct ReferralUpgradeable.Account",
          "name": "userAccount",
          "type": "tuple"
        }
      ],
      "stateMutability": "view",
      "type": "function"
    },
    {
      "inputs": [
        {
          "internalType": "address",
          "name": "_address",
          "type": "address"
        }
      ],
      "name": "getUserReferrerAddress",
      "outputs": [
        {
          "internalType": "address",
          "name": "referrer",
          "type": "address"
        }
      ],
      "stateMutability": "view",
      "type": "function"
    },
    {
      "inputs": [
        {
          "internalType": "address",
          "name": "_userAddress",
          "type": "address"
        }
      ],
      "name": "getUserRewardAccount",
      "outputs": [
        {
          "components": [
            {
              "internalType": "address",
              "name": "userAdddress",
              "type": "address"
            },
            {
              "internalType": "uint8[]",
              "name": "rewardId",
              "type": "uint8[]"
            },
            {
              "internalType": "uint8",
              "name": "lastRewardId",
              "type": "uint8"
            }
          ],
          "internalType": "struct ReferralUpgradeable.RewardsAccount",
          "name": "",
          "type": "tuple"
        }
      ],
      "stateMutability": "view",
      "type": "function"
    },
    {
      "inputs": [
        {
          "internalType": "address",
          "name": "_userAddress",
          "type": "address"
        }
      ],
      "name": "getUserRewardQualified",
      "outputs": [
        {
          "internalType": "uint8",
          "name": "rewardId",
          "type": "uint8"
        }
      ],
      "stateMutability": "view",
      "type": "function"
    },
    {
      "inputs": [
        {
          "internalType": "address",
          "name": "_address",
          "type": "address"
        }
      ],
      "name": "getUserTeam",
      "outputs": [
        {
          "internalType": "address[]",
          "name": "userReferee",
          "type": "address[]"
        },
        {
          "internalType": "uint256",
          "name": "userRefereeCount",
          "type": "uint256"
        },
        {
          "internalType": "address[]",
          "name": "userTeamAddress",
          "type": "address[]"
        },
        {
          "internalType": "uint256",
          "name": "userTeamCount",
          "type": "uint256"
        }
      ],
      "stateMutability": "view",
      "type": "function"
    },
    {
      "inputs": [
        {
          "internalType": "address",
          "name": "_userAddress",
          "type": "address"
        }
      ],
      "name": "getUserTopUpForRewards",
      "outputs": [
        {
          "internalType": "uint256",
          "name": "",
          "type": "uint256"
        }
      ],
      "stateMutability": "view",
      "type": "function"
    },
    {
      "inputs": [
        {
          "internalType": "address",
          "name": "_address",
          "type": "address"
        }
      ],
      "name": "getUserTotalBusiness",
      "outputs": [
        {
          "internalType": "uint256",
          "name": "selfBusiness",
          "type": "uint256"
        },
        {
          "internalType": "uint256",
          "name": "directBusiness",
          "type": "uint256"
        },
        {
          "internalType": "uint256",
          "name": "refereeTeamBusiness",
          "type": "uint256"
        },
        {
          "internalType": "uint256",
          "name": "totalBusiness",
          "type": "uint256"
        }
      ],
      "stateMutability": "view",
      "type": "function"
    },
    {
      "inputs": [
        {
          "internalType": "address",
          "name": "_address",
          "type": "address"
        }
      ],
      "name": "getUserTotalRewardPaid",
      "outputs": [
        {
          "internalType": "uint256",
          "name": "rewardsAUSD",
          "type": "uint256"
        },
        {
          "internalType": "uint256",
          "name": "rewardsGlobal",
          "type": "uint256"
        },
        {
          "internalType": "uint256",
          "name": "rewardsPassive",
          "type": "uint256"
        }
      ],
      "stateMutability": "view",
      "type": "function"
    },
    {
      "inputs": [],
      "name": "getVariablesContract",
      "outputs": [
        {
          "internalType": "address",
          "name": "",
          "type": "address"
        }
      ],
      "stateMutability": "view",
      "type": "function"
    },
    {
      "inputs": [
        {
          "internalType": "address",
          "name": "_address",
          "type": "address"
        }
      ],
      "name": "hasReferrer",
      "outputs": [
        {
          "internalType": "bool",
          "name": "",
          "type": "bool"
        }
      ],
      "stateMutability": "view",
      "type": "function"
    },
    {
      "inputs": [
        {
          "internalType": "uint16",
          "name": "",
          "type": "uint16"
        }
      ],
      "name": "idToAddress",
      "outputs": [
        {
          "internalType": "address",
          "name": "",
          "type": "address"
        }
      ],
      "stateMutability": "view",
      "type": "function"
    },
    {
      "inputs": [
        {
          "internalType": "address[]",
          "name": "_userAddress",
          "type": "address[]"
        }
      ],
      "name": "includeUsersInList",
      "outputs": [],
      "stateMutability": "nonpayable",
      "type": "function"
    },
    {
      "inputs": [],
      "name": "initialize",
      "outputs": [],
      "stateMutability": "nonpayable",
      "type": "function"
    },
    {
      "inputs": [],
      "name": "owner",
      "outputs": [
        {
          "internalType": "address",
          "name": "",
          "type": "address"
        }
      ],
      "stateMutability": "view",
      "type": "function"
    },
    {
      "inputs": [],
      "name": "pause",
      "outputs": [],
      "stateMutability": "nonpayable",
      "type": "function"
    },
    {
      "inputs": [],
      "name": "paused",
      "outputs": [
        {
          "internalType": "bool",
          "name": "",
          "type": "bool"
        }
      ],
      "stateMutability": "view",
      "type": "function"
    },
    {
      "inputs": [
        {
          "internalType": "uint256",
          "name": "_valueInUSD",
          "type": "uint256"
        },
        {
          "internalType": "address",
          "name": "_userAddress",
          "type": "address"
        },
        {
          "internalType": "address",
          "name": "_referrerAddress",
          "type": "address"
        }
      ],
      "name": "payReferralANUSDAdmin",
      "outputs": [],
      "stateMutability": "nonpayable",
      "type": "function"
    },
    {
      "inputs": [],
      "name": "proxiableUUID",
      "outputs": [
        {
          "internalType": "bytes32",
          "name": "",
          "type": "bytes32"
        }
      ],
      "stateMutability": "view",
      "type": "function"
    },
    {
      "inputs": [],
      "name": "renounceOwnership",
      "outputs": [],
      "stateMutability": "nonpayable",
      "type": "function"
    },
    {
      "inputs": [
        {
          "internalType": "address",
          "name": "",
          "type": "address"
        }
      ],
      "name": "rewardAccount",
      "outputs": [
        {
          "internalType": "address",
          "name": "userAdddress",
          "type": "address"
        },
        {
          "internalType": "uint8",
          "name": "lastRewardId",
          "type": "uint8"
        }
      ],
      "stateMutability": "view",
      "type": "function"
    },
    {
      "inputs": [
        {
          "internalType": "uint8",
          "name": "",
          "type": "uint8"
        }
      ],
      "name": "rewards",
      "outputs": [
        {
          "internalType": "uint8",
          "name": "id",
          "type": "uint8"
        },
        {
          "internalType": "uint256",
          "name": "selfBusinessLimit",
          "type": "uint256"
        },
        {
          "internalType": "uint256",
          "name": "directBusinessLimit",
          "type": "uint256"
        },
        {
          "internalType": "uint256",
          "name": "teamBusinessLimit",
          "type": "uint256"
        },
        {
          "internalType": "string",
          "name": "rankName",
          "type": "string"
        },
        {
          "internalType": "string",
          "name": "rewardName",
          "type": "string"
        },
        {
          "internalType": "uint256",
          "name": "appraisal",
          "type": "uint256"
        }
      ],
      "stateMutability": "view",
      "type": "function"
    },
    {
      "inputs": [
        {
          "internalType": "address payable",
          "name": "_address",
          "type": "address"
        }
      ],
      "name": "setDefaultReferrer",
      "outputs": [],
      "stateMutability": "nonpayable",
      "type": "function"
    },
    {
      "inputs": [
        {
          "internalType": "uint256",
          "name": "_value",
          "type": "uint256"
        }
      ],
      "name": "setLevelDecimals",
      "outputs": [
        {
          "internalType": "bool",
          "name": "",
          "type": "bool"
        }
      ],
      "stateMutability": "nonpayable",
      "type": "function"
    },
    {
      "inputs": [
        {
          "internalType": "uint256[]",
          "name": "_valueInArray",
          "type": "uint256[]"
        }
      ],
      "name": "setLevelRates",
      "outputs": [],
      "stateMutability": "nonpayable",
      "type": "function"
    },
    {
      "inputs": [
        {
          "internalType": "uint8[]",
          "name": "_id",
          "type": "uint8[]"
        },
        {
          "internalType": "uint256[]",
          "name": "_selfBusinessLimit",
          "type": "uint256[]"
        },
        {
          "internalType": "uint256[]",
          "name": "_directBusinessLimit",
          "type": "uint256[]"
        },
        {
          "internalType": "uint256[]",
          "name": "_teamBusinessLimit",
          "type": "uint256[]"
        },
        {
          "internalType": "string[]",
          "name": "_rankName",
          "type": "string[]"
        },
        {
          "internalType": "string[]",
          "name": "_rewardName",
          "type": "string[]"
        },
        {
          "internalType": "uint256[]",
          "name": "_appraisal",
          "type": "uint256[]"
        }
      ],
      "name": "setRewards",
      "outputs": [],
      "stateMutability": "nonpayable",
      "type": "function"
    },
    {
      "inputs": [
        {
          "internalType": "address",
          "name": "_contractAddress",
          "type": "address"
        }
      ],
      "name": "setVariablesContract",
      "outputs": [],
      "stateMutability": "nonpayable",
      "type": "function"
    },
    {
      "inputs": [],
      "name": "totalUsers",
      "outputs": [
        {
          "internalType": "uint16",
          "name": "",
          "type": "uint16"
        }
      ],
      "stateMutability": "view",
      "type": "function"
    },
    {
      "inputs": [
        {
          "internalType": "address",
          "name": "_address",
          "type": "address"
        },
        {
          "internalType": "uint256",
          "name": "_value",
          "type": "uint256"
        }
      ],
      "name": "transferNative",
      "outputs": [],
      "stateMutability": "nonpayable",
      "type": "function"
    },
    {
      "inputs": [
        {
          "internalType": "address",
          "name": "newOwner",
          "type": "address"
        }
      ],
      "name": "transferOwnership",
      "outputs": [],
      "stateMutability": "nonpayable",
      "type": "function"
    },
    {
      "inputs": [],
      "name": "unpause",
      "outputs": [],
      "stateMutability": "nonpayable",
      "type": "function"
    },
    {
      "inputs": [
        {
          "internalType": "address",
          "name": "_userAddress",
          "type": "address"
        },
        {
          "internalType": "uint8",
          "name": "_rewardId",
          "type": "uint8"
        }
      ],
      "name": "updateIfRewardPaidAdmin",
      "outputs": [],
      "stateMutability": "nonpayable",
      "type": "function"
    },
    {
      "inputs": [
        {
          "internalType": "address",
          "name": "newImplementation",
          "type": "address"
        }
      ],
      "name": "upgradeTo",
      "outputs": [],
      "stateMutability": "nonpayable",
      "type": "function"
    },
    {
      "inputs": [
        {
          "internalType": "address",
          "name": "newImplementation",
          "type": "address"
        },
        {
          "internalType": "bytes",
          "name": "data",
          "type": "bytes"
        }
      ],
      "name": "upgradeToAndCall",
      "outputs": [],
      "stateMutability": "payable",
      "type": "function"
    },
    {
      "inputs": [
        {
          "internalType": "uint256",
          "name": "",
          "type": "uint256"
        }
      ],
      "name": "usersList",
      "outputs": [
        {
          "internalType": "address",
          "name": "",
          "type": "address"
        }
      ],
      "stateMutability": "view",
      "type": "function"
    },
    {
      "inputs": [],
      "name": "withdrawNative",
      "outputs": [],
      "stateMutability": "nonpayable",
      "type": "function"
    },
    {
      "inputs": [
        {
          "internalType": "address",
          "name": "_tokenAddress",
          "type": "address"
        },
        {
          "internalType": "uint256",
          "name": "_value",
          "type": "uint256"
        }
      ],
      "name": "withdrawtokens",
      "outputs": [],
      "stateMutability": "nonpayable",
      "type": "function"
    },
    {
      "stateMutability": "payable",
      "type": "receive"
    }
  ],
  "bytecode": "0x60a06040523060805234801561001457600080fd5b50608051615d3e6200004d6000396000818161196d015281816119ad01528181611ade01528181611b1e0152611c900152615d3e6000f3fe60806040526004361061023f5760003560e01c80637d2e90c21161012e578063cfbdb859116100ab578063f13a143f1161006f578063f13a143f146107a1578063f2fde38b146107bf578063faeda7e5146107df578063fb47e0161461080f578063fb5d45261461083c57600080fd5b8063cfbdb859146106c6578063dcf6e819146106e6578063dd1ca71614610706578063e5ffb5df14610734578063ef519dc01461076657600080fd5b80638da5cb5b116100f25780638da5cb5b146105f45780638f3ddc9f146106125780639b317cc414610632578063bff1f9e114610665578063cb0e0d7d1461069457600080fd5b80637d2e90c21461055d5780638129fc1c1461057d5780638456cb591461059257806386f6630d146105a75780638a93f7b9146105d457600080fd5b80633659cfe6116101bc57806350431ce41161018057806350431ce4146104e657806352d1902d146104fb5780635c975abb14610510578063715018a614610528578063771aa2161461053d57600080fd5b80633659cfe6146104445780633f4ba83a1461046457806343b4ebf4146104795780634f1ef286146104b3578063502aa3b5146104c657600080fd5b806325f1c91e1161020357806325f1c91e14610351578063277bb9001461037f5780632bb5112d1461039f578063345b5b851461040457806335166fef1461042457600080fd5b8063025313ff1461024b5780630ba0dba31461029f57806318452cd8146102c1578063228159b4146102f15780632405091c1461031157600080fd5b3661024657005b600080fd5b34801561025757600080fd5b50610282610266366004614f81565b61010c602052600090815260409020546001600160a01b031681565b6040516001600160a01b0390911681526020015b60405180910390f35b3480156102ab57600080fd5b506102bf6102ba366004614fb1565b610861565b005b3480156102cd57600080fd5b506102e16102dc366004614fb1565b610914565b6040519015158152602001610296565b3480156102fd57600080fd5b506102bf61030c366004614fce565b61093b565b34801561031d57600080fd5b5061033161032c366004614fb1565b610c2a565b604080519485526020850193909352918301526060820152608001610296565b34801561035d57600080fd5b5061037161036c366004614fb1565b611219565b604051908152602001610296565b34801561038b57600080fd5b506102bf61039a366004615010565b6114b0565b3480156103ab57600080fd5b506103e36103ba366004614fb1565b61010a60205260009081526040902080546002909101546001600160a01b039091169060ff1682565b604080516001600160a01b03909316835260ff909116602083015201610296565b34801561041057600080fd5b506102bf61041f366004615087565b6115ae565b34801561043057600080fd5b506102bf61043f3660046152fa565b611642565b34801561045057600080fd5b506102bf61045f366004614fb1565b611963565b34801561047057600080fd5b506102bf611a42565b34801561048557600080fd5b50610282610494366004614fb1565b6001600160a01b03908116600090815261010960205260409020541690565b6102bf6104c1366004615414565b611ad4565b3480156104d257600080fd5b506102826104e1366004615477565b611ba4565b3480156104f257600080fd5b506102bf611bcf565b34801561050757600080fd5b50610371611c83565b34801561051c57600080fd5b5060335460ff166102e1565b34801561053457600080fd5b506102bf611d36565b34801561054957600080fd5b506102bf610558366004615490565b611d48565b34801561056957600080fd5b506102bf610578366004615010565b611e4c565b34801561058957600080fd5b506102bf611f0a565b34801561059e57600080fd5b506102bf6120f0565b3480156105b357600080fd5b506105c76105c2366004614fb1565b612180565b60405161029691906154c5565b3480156105e057600080fd5b506102bf6105ef366004615087565b612266565b34801561060057600080fd5b506065546001600160a01b0316610282565b34801561061e57600080fd5b506102bf61062d36600461553a565b61233a565b34801561063e57600080fd5b5061065261064d3660046155a5565b612495565b6040516102969796959493929190615610565b34801561067157600080fd5b5061010f546106819061ffff1681565b60405161ffff9091168152602001610296565b3480156106a057600080fd5b506106816106af366004614fb1565b61010d6020526000908152604090205461ffff1681565b3480156106d257600080fd5b506102e16106e1366004615477565b6125e7565b3480156106f257600080fd5b506102bf610701366004614fb1565b61267e565b34801561071257600080fd5b50610726610721366004615665565b612729565b6040516102969291906156ec565b34801561074057600080fd5b5061075461074f366004614fb1565b612806565b60405160ff9091168152602001610296565b34801561077257600080fd5b50610786610781366004614fb1565b612c95565b60408051938452602084019290925290820152606001610296565b3480156107ad57600080fd5b5060fb546001600160a01b0316610282565b3480156107cb57600080fd5b506102bf6107da366004614fb1565b612db0565b3480156107eb57600080fd5b506107ff6107fa366004614fb1565b612e26565b6040516102969493929190615712565b34801561081b57600080fd5b5061082f61082a366004614fb1565b612f13565b604051610296919061577f565b34801561084857600080fd5b50610851613200565b604051610296949392919061588e565b60fb54604051630935e01b60e21b81523360048201526001600160a01b03909116906324d7806c90602401602060405180830381865afa1580156108a9573d6000803e3d6000fd5b505050506040513d601f19601f820116820180604052508101906108cd91906158c8565b6108f25760405162461bcd60e51b81526004016108e9906158ea565b60405180910390fd5b60fb80546001600160a01b0319166001600160a01b0392909216919091179055565b6001600160a01b038082166000908152610109602052604081205490911615155b92915050565b3361094e6065546001600160a01b031690565b6001600160a01b0316816001600160a01b031614806109f4575060fb60009054906101000a90046001600160a01b03166001600160a01b03166363d9df856040518163ffffffff1660e01b8152600401602060405180830381865afa1580156109bb573d6000803e3d6000fd5b505050506040513d601f19601f820116820180604052508101906109df9190615915565b6001600160a01b0316816001600160a01b0316145b610a4b5760405162461bcd60e51b815260206004820152602260248201527f4f6e6c79206f776e65722063616e2063616c6c20746869732066756e6374696f604482015261371760f11b60648201526084016108e9565b6001600160a01b038381166000908152610109602052604090205416158015610a7c57506001600160a01b03821615155b15610a8b57610a8b83836132c7565b6001600160a01b038281166000908152610109602052604090205416158015610abc57506001600160a01b03821615155b8015610ad75750610100546001600160a01b03838116911614155b15610af45761010054610af49083906001600160a01b03166132c7565b610afe848461340f565b610b0a6103e88561595e565b6040516370a0823160e01b8152306004820152737f9fd63932babc508fad2f324eb534d09cfe86f0906370a0823190602401602060405180830381865afa158015610b59573d6000803e3d6000fd5b505050506040513d601f19601f82011682018060405250810190610b7d9190615972565b1115610c1b57737f9fd63932babc508fad2f324eb534d09cfe86f063a9059cbb84610baa6103e88861595e565b6040516001600160e01b031960e085901b1681526001600160a01b03909216600483015260248201526044016020604051808303816000875af1158015610bf5573d6000803e3d6000fd5b505050506040513d601f19601f82011682018060405250810190610c1991906158c8565b505b610c2483613e6c565b50505050565b6001600160a01b0381166000908152610109602052604081206001810154600482015492918291829190825b81811015610f2d5760006101096000856001018481548110610c7a57610c7a61598b565b60009182526020808320909101546001600160a01b03908116845283820194909452604092830190912082516101608101845281549094168452600181018054845181850281018501909552808552919385840193909290830182828015610d0b57602002820191906000526020600020905b81546001600160a01b03168152600190910190602001808311610ced575b5050505050815260200160028201805480602002602001604051908101604052809291908181526020018280548015610d6d57602002820191906000526020600020905b81546001600160a01b03168152600190910190602001808311610d4f575b5050505050815260200160038201805480602002602001604051908101604052809291908181526020018280548015610dc557602002820191906000526020600020905b815481526020019060010190808311610db1575b5050505050815260200160048201548152602001600582015481526020016006820154815260200160078201805480602002602001604051908101604052809291908181526020018280548015610e3b57602002820191906000526020600020905b815481526020019060010190808311610e27575b5050505050815260200160088201805480602002602001604051908101604052809291908181526020018280548015610e9357602002820191906000526020600020905b815481526020019060010190808311610e7f575b5050505050815260200160098201805480602002602001604051908101604052809291908181526020018280548015610eeb57602002820191906000526020600020905b815481526020019060010190808311610ed7575b5050509183525050600a919091015460ff1615156020909101526080810151909150610f1790886159a1565b9650508080610f25906159b4565b915050610c56565b5060005b818110156112085760006101096000856001018481548110610f5557610f5561598b565b60009182526020808320909101546001600160a01b03908116845283820194909452604092830190912082516101608101845281549094168452600181018054845181850281018501909552808552919385840193909290830182828015610fe657602002820191906000526020600020905b81546001600160a01b03168152600190910190602001808311610fc8575b505050505081526020016002820180548060200260200160405190810160405280929190818152602001828054801561104857602002820191906000526020600020905b81546001600160a01b0316815260019091019060200180831161102a575b50505050508152602001600382018054806020026020016040519081016040528092919081815260200182805480156110a057602002820191906000526020600020905b81548152602001906001019080831161108c575b505050505081526020016004820154815260200160058201548152602001600682015481526020016007820180548060200260200160405190810160405280929190818152602001828054801561111657602002820191906000526020600020905b815481526020019060010190808311611102575b505050505081526020016008820180548060200260200160405190810160405280929190818152602001828054801561116e57602002820191906000526020600020905b81548152602001906001019080831161115a575b50505050508152602001600982018054806020026020016040519081016040528092919081815260200182805480156111c657602002820191906000526020600020905b8154815260200190600101908083116111b2575b5050509183525050600a919091015460ff16151560209091015260c08101519091506111f290876159a1565b9550508080611200906159b4565b915050610f31565b508160060154925050509193509193565b6001600160a01b0380821660009081526101096020908152604080832081516101608101835281549095168552600181018054835181860281018601909452808452949586959094929385840193909291908301828280156112a457602002820191906000526020600020905b81546001600160a01b03168152600190910190602001808311611286575b505050505081526020016002820180548060200260200160405190810160405280929190818152602001828054801561130657602002820191906000526020600020905b81546001600160a01b031681526001909101906020018083116112e8575b505050505081526020016003820180548060200260200160405190810160405280929190818152602001828054801561135e57602002820191906000526020600020905b81548152602001906001019080831161134a575b50505050508152602001600482015481526020016005820154815260200160068201548152602001600782018054806020026020016040519081016040528092919081815260200182805480156113d457602002820191906000526020600020905b8154815260200190600101908083116113c0575b505050505081526020016008820180548060200260200160405190810160405280929190818152602001828054801561142c57602002820191906000526020600020905b815481526020019060010190808311611418575b505050505081526020016009820180548060200260200160405190810160405280929190818152602001828054801561148457602002820191906000526020600020905b815481526020019060010190808311611470575b5050509183525050600a919091015460ff16151560209091015290506114a981613f63565b9392505050565b60fb54604051630935e01b60e21b81523360048201526001600160a01b03909116906324d7806c90602401602060405180830381865afa1580156114f8573d6000803e3d6000fd5b505050506040513d601f19601f8201168201806040525081019061151c91906158c8565b6115385760405162461bcd60e51b81526004016108e9906158ea565b60405163a9059cbb60e01b8152336004820152602481018290526001600160a01b0383169063a9059cbb906044016020604051808303816000875af1158015611585573d6000803e3d6000fd5b505050506040513d601f19601f820116820180604052508101906115a991906158c8565b505050565b60fb54604051630935e01b60e21b81523360048201526001600160a01b03909116906324d7806c90602401602060405180830381865afa1580156115f6573d6000803e3d6000fd5b505050506040513d601f19601f8201168201806040525081019061161a91906158c8565b6116365760405162461bcd60e51b81526004016108e9906158ea565b6115a960fc8383614ecf565b60fb54604051630935e01b60e21b81523360048201526001600160a01b03909116906324d7806c90602401602060405180830381865afa15801561168a573d6000803e3d6000fd5b505050506040513d601f19601f820116820180604052508101906116ae91906158c8565b6116ca5760405162461bcd60e51b81526004016108e9906158ea565b60005b8751811015611959576040518060e001604052808983815181106116f3576116f361598b565b602002602001015160ff1681526020018883815181106117155761171561598b565b602002602001015181526020018783815181106117345761173461598b565b602002602001015181526020018683815181106117535761175361598b565b602002602001015181526020018583815181106117725761177261598b565b602002602001015181526020018483815181106117915761179161598b565b602002602001015181526020018383815181106117b0576117b061598b565b602002602001015181525061010b60008a84815181106117d2576117d261598b565b60209081029190910181015160ff90811683528282019390935260409182016000208451815460ff191694169390931783558301516001830155820151600282015560608201516003820155608082015160048201906118329082615a4f565b5060a082015160058201906118479082615a4f565b5060c082015181600601559050507fb9f30bf0ab6748f3fcfbc9d280ed1feedea51276343f55f8342b8c453b876e9a8882815181106118885761188861598b565b60200260200101518883815181106118a2576118a261598b565b60200260200101518884815181106118bc576118bc61598b565b60200260200101518885815181106118d6576118d661598b565b60200260200101518886815181106118f0576118f061598b565b602002602001015188878151811061190a5761190a61598b565b60200260200101518888815181106119245761192461598b565b602002602001015160405161193f9796959493929190615610565b60405180910390a180611951816159b4565b9150506116cd565b5050505050505050565b6001600160a01b037f00000000000000000000000000000000000000000000000000000000000000001630036119ab5760405162461bcd60e51b81526004016108e990615b0e565b7f00000000000000000000000000000000000000000000000000000000000000006001600160a01b03166119f4600080516020615cc2833981519152546001600160a01b031690565b6001600160a01b031614611a1a5760405162461bcd60e51b81526004016108e990615b5a565b611a2381613fcc565b60408051600080825260208201909252611a3f91839190614054565b50565b60fb54604051630935e01b60e21b81523360048201526001600160a01b03909116906324d7806c90602401602060405180830381865afa158015611a8a573d6000803e3d6000fd5b505050506040513d601f19601f82011682018060405250810190611aae91906158c8565b611aca5760405162461bcd60e51b81526004016108e9906158ea565b611ad26141bf565b565b6001600160a01b037f0000000000000000000000000000000000000000000000000000000000000000163003611b1c5760405162461bcd60e51b81526004016108e990615b0e565b7f00000000000000000000000000000000000000000000000000000000000000006001600160a01b0316611b65600080516020615cc2833981519152546001600160a01b031690565b6001600160a01b031614611b8b5760405162461bcd60e51b81526004016108e990615b5a565b611b9482613fcc565b611ba082826001614054565b5050565b61010e8181548110611bb557600080fd5b6000918252602090912001546001600160a01b0316905081565b60fb54604051630935e01b60e21b81523360048201526001600160a01b03909116906324d7806c90602401602060405180830381865afa158015611c17573d6000803e3d6000fd5b505050506040513d601f19601f82011682018060405250810190611c3b91906158c8565b611c575760405162461bcd60e51b81526004016108e9906158ea565b60405133904780156108fc02916000818181858888f19350505050158015611a3f573d6000803e3d6000fd5b6000306001600160a01b037f00000000000000000000000000000000000000000000000000000000000000001614611d235760405162461bcd60e51b815260206004820152603860248201527f555550535570677261646561626c653a206d757374206e6f742062652063616c60448201527f6c6564207468726f7567682064656c656761746563616c6c000000000000000060648201526084016108e9565b50600080516020615cc283398151915290565b611d3e614211565b611ad2600061426b565b60fb54604051630935e01b60e21b81523360048201526001600160a01b03909116906324d7806c90602401602060405180830381865afa158015611d90573d6000803e3d6000fd5b505050506040513d601f19601f82011682018060405250810190611db491906158c8565b611dd05760405162461bcd60e51b81526004016108e9906158ea565b6001600160a01b03808316600090815261010a602052604090208054909116611e0d5780546001600160a01b0319166001600160a01b0384161781555b600190810180549182018155600090815260209081902090820401805460ff938416601f9093166101000a928302939092021990911691909117905550565b60fb54604051630935e01b60e21b81523360048201526001600160a01b03909116906324d7806c90602401602060405180830381865afa158015611e94573d6000803e3d6000fd5b505050506040513d601f19601f82011682018060405250810190611eb891906158c8565b611ed45760405162461bcd60e51b81526004016108e9906158ea565b6040516001600160a01b0383169082156108fc029083906000818181858888f193505050501580156115a9573d6000803e3d6000fd5b600054610100900460ff1615808015611f2a5750600054600160ff909116105b80611f445750303b158015611f44575060005460ff166001145b611fa75760405162461bcd60e51b815260206004820152602e60248201527f496e697469616c697a61626c653a20636f6e747261637420697320616c72656160448201526d191e481a5b9a5d1a585b1a5e995960921b60648201526084016108e9565b6000805460ff191660011790558015611fca576000805461ff0019166101001790555b60fb80546001600160a01b03199081167377daafc7411c911b869c71bf70fe36cce507845d17909155610100805490911673f3ba579d4afd4dad8a8c2d1bcbdd1405688e492f1790556040805160e0810182526007808252600460208301526003928201929092526002606082015260016080820181905260a0820181905260c082015261205b9160fc9190614f1a565b50606460fd5560146101065569011478b7c30abc3000006101035560046101015560056101045568a80d24677efef00000610105556120986142bd565b6120a06142ec565b6120a861431b565b8015611a3f576000805461ff0019169055604051600181527f7f26b83ff96e1f2b6a682f133852f6798a09c465da95921460cefb38474024989060200160405180910390a150565b60fb54604051630935e01b60e21b81523360048201526001600160a01b03909116906324d7806c90602401602060405180830381865afa158015612138573d6000803e3d6000fd5b505050506040513d601f19601f8201168201806040525081019061215c91906158c8565b6121785760405162461bcd60e51b81526004016108e9906158ea565b611ad2614342565b6121b0604051806060016040528060006001600160a01b0316815260200160608152602001600060ff1681525090565b6001600160a01b03808316600090815261010a602090815260409182902082516060810184528154909416845260018101805484518185028101850190955280855291938584019390929083018282801561224857602002820191906000526020600020906000905b825461010083900a900460ff168152602060019283018181049485019490930390920291018084116122195790505b50505091835250506002919091015460ff1660209091015292915050565b60fb54604051630935e01b60e21b81523360048201526001600160a01b03909116906324d7806c90602401602060405180830381865afa1580156122ae573d6000803e3d6000fd5b505050506040513d601f19601f820116820180604052508101906122d291906158c8565b6122ee5760405162461bcd60e51b81526004016108e9906158ea565b60005b818110156115a95761232883838381811061230e5761230e61598b565b90506020020160208101906123239190614fb1565b613e6c565b80612332816159b4565b9150506122f1565b60fb54604051630935e01b60e21b81523360048201526001600160a01b03909116906324d7806c90602401602060405180830381865afa158015612382573d6000803e3d6000fd5b505050506040513d601f19601f820116820180604052508101906123a691906158c8565b6123c25760405162461bcd60e51b81526004016108e9906158ea565b82811461241b5760405162461bcd60e51b815260206004820152602160248201527f4c656e677468206973206e6f7420657175616c20706c6561736520636865636b6044820152601760f91b60648201526084016108e9565b60005b8381101561248e5761247c85858381811061243b5761243b61598b565b90506020020160208101906124509190614fb1565b8484848181106124625761246261598b565b90506020020160208101906124779190614fb1565b6132c7565b80612486816159b4565b91505061241e565b5050505050565b61010b602052600090815260409020805460018201546002830154600384015460048501805460ff909516959394929391926124d0906159cd565b80601f01602080910402602001604051908101604052809291908181526020018280546124fc906159cd565b80156125495780601f1061251e57610100808354040283529160200191612549565b820191906000526020600020905b81548152906001019060200180831161252c57829003601f168201915b50505050509080600501805461255e906159cd565b80601f016020809104026020016040519081016040528092919081815260200182805461258a906159cd565b80156125d75780601f106125ac576101008083540402835291602001916125d7565b820191906000526020600020905b8154815290600101906020018083116125ba57829003601f168201915b5050505050908060060154905087565b60fb54604051630935e01b60e21b81523360048201526000916001600160a01b0316906324d7806c90602401602060405180830381865afa158015612630573d6000803e3d6000fd5b505050506040513d601f19601f8201168201806040525081019061265491906158c8565b6126705760405162461bcd60e51b81526004016108e9906158ea565b5060fd81905560015b919050565b60fb54604051630935e01b60e21b81523360048201526001600160a01b03909116906324d7806c90602401602060405180830381865afa1580156126c6573d6000803e3d6000fd5b505050506040513d601f19601f820116820180604052508101906126ea91906158c8565b6127065760405162461bcd60e51b81526004016108e9906158ea565b61010080546001600160a01b0319166001600160a01b0392909216919091179055565b6060600080600061273b87878761437f565b915091508092508061ffff166001600160401b0381111561275e5761275e6150c8565b604051908082528060200260200182016040528015612787578160200160208202803683370190505b50935060005b8161ffff168161ffff1610156127fb57828161ffff16815181106127b3576127b361598b565b6020026020010151858261ffff16815181106127d1576127d161598b565b6001600160a01b0390921660209283029190910190910152806127f381615ba6565b91505061278d565b505050935093915050565b6001600160a01b03808216600090815261010960209081526040808320815161016081018352815490951685526001810180548351818602810186019094528084529495869590949293858401939092919083018282801561289157602002820191906000526020600020905b81546001600160a01b03168152600190910190602001808311612873575b50505050508152602001600282018054806020026020016040519081016040528092919081815260200182805480156128f357602002820191906000526020600020905b81546001600160a01b031681526001909101906020018083116128d5575b505050505081526020016003820180548060200260200160405190810160405280929190818152602001828054801561294b57602002820191906000526020600020905b815481526020019060010190808311612937575b50505050508152602001600482015481526020016005820154815260200160068201548152602001600782018054806020026020016040519081016040528092919081815260200182805480156129c157602002820191906000526020600020905b8154815260200190600101908083116129ad575b5050505050815260200160088201805480602002602001604051908101604052809291908181526020018280548015612a1957602002820191906000526020600020905b815481526020019060010190808311612a05575b5050505050815260200160098201805480602002602001604051908101604052809291908181526020018280548015612a7157602002820191906000526020600020905b815481526020019060010190808311612a5d575b5050509183525050600a919091015460ff161515602090910152905060005b60148160ff161015612c8e5760ff808216600090815261010b60209081526040808320815160e0810183528154909516855260018101549285019290925260028201549084015260038101546060840152600481018054929392608084019190612af9906159cd565b80601f0160208091040260200160405190810160405280929190818152602001828054612b25906159cd565b8015612b725780601f10612b4757610100808354040283529160200191612b72565b820191906000526020600020905b815481529060010190602001808311612b5557829003601f168201915b50505050508152602001600582018054612b8b906159cd565b80601f0160208091040260200160405190810160405280929190818152602001828054612bb7906159cd565b8015612c045780601f10612bd957610100808354040283529160200191612c04565b820191906000526020600020905b815481529060010190602001808311612be757829003601f168201915b50505050508152602001600682015481525050905060028260ff16118015612c2e57506020810151155b15612c395750612c8e565b8060200151612c4784613f63565b10158015612c5d575080604001518360a0015110155b8015612c725750612c7283826060015161488e565b15612c7b578193505b5080612c8681615bc7565b915050612a90565b5050919050565b6001600160a01b0381166000908152610109602052604081206007810154600882015460098301548493849390929091845b83811015612d0e57846007018181548110612ce457612ce461598b565b906000526020600020015488612cfa91906159a1565b975080612d06816159b4565b915050612cc7565b5060005b82811015612d5957846008018181548110612d2f57612d2f61598b565b906000526020600020015487612d4591906159a1565b965080612d51816159b4565b915050612d12565b5060005b81811015612da457846009018181548110612d7a57612d7a61598b565b906000526020600020015486612d9091906159a1565b955080612d9c816159b4565b915050612d5d565b50505050509193909250565b612db8614211565b6001600160a01b038116612e1d5760405162461bcd60e51b815260206004820152602660248201527f4f776e61626c653a206e6577206f776e657220697320746865207a65726f206160448201526564647265737360d01b60648201526084016108e9565b611a3f8161426b565b6001600160a01b03811660009081526101096020908152604080832060018101805483518186028101860190945280845260609594869486949390929091830182828015612e9d57602002820191906000526020600020905b81546001600160a01b03168152600190910190602001808311612e7f575b505050505094508451935080600201805480602002602001604051908101604052809291908181526020018280548015612f0057602002820191906000526020600020905b81546001600160a01b03168152600190910190602001808311612ee2575b5050505050925082519150509193509193565b612f7b60405180610160016040528060006001600160a01b031681526020016060815260200160608152602001606081526020016000815260200160008152602001600081526020016060815260200160608152602001606081526020016000151581525090565b6001600160a01b03808316600090815261010960209081526040918290208251610160810184528154909416845260018101805484518185028101850190955280855291938584019390929083018282801561300057602002820191906000526020600020905b81546001600160a01b03168152600190910190602001808311612fe2575b505050505081526020016002820180548060200260200160405190810160405280929190818152602001828054801561306257602002820191906000526020600020905b81546001600160a01b03168152600190910190602001808311613044575b50505050508152602001600382018054806020026020016040519081016040528092919081815260200182805480156130ba57602002820191906000526020600020905b8154815260200190600101908083116130a6575b505050505081526020016004820154815260200160058201548152602001600682015481526020016007820180548060200260200160405190810160405280929190818152602001828054801561313057602002820191906000526020600020905b81548152602001906001019080831161311c575b505050505081526020016008820180548060200260200160405190810160405280929190818152602001828054801561318857602002820191906000526020600020905b815481526020019060010190808311613174575b50505050508152602001600982018054806020026020016040519081016040528092919081815260200182805480156131e057602002820191906000526020600020905b8154815260200190600101908083116131cc575b5050509183525050600a919091015460ff16151560209091015292915050565b60fd5460fc805460408051602080840282018101909252828152606093600093849383018282801561325157602002820191906000526020600020905b81548152602001906001019080831161323d575b505060fc549396506000925050505b818160ff1610156132ab5760fc8160ff16815481106132815761328161598b565b90600052602060002001548461329791906159a1565b9350806132a381615bc7565b915050613260565b5050610100549394929391926001600160a01b03909216919050565b6001600160a01b038281166000818152610109602052604080822080546001600160a01b03191694861694851781559051909392917ffaf63637882ff2d63ca76881cf92fb857130e36f350c926f9cc884b499b42b7791a360fc5460005b8181101561248e5782546001600160a01b03166000908152610109602052604081209082900361337f576001818101805491820181556000908152602090200180546001600160a01b0319166001600160a01b0388161790555b83546001600160a01b0316613394575061248e565b6002810180546001810182556000918252602082200180546001600160a01b0319166001600160a01b03898116918217909255865460405191938984169391909116917fb766b19465b3277b0b275adf79d715cac93166bf6e6a39f26e4ccfdec76ad47e9190a4925080613407816159b4565b915050613325565b60fb5460fc8054604080516020808402820181019092528281526001600160a01b03909416936000939092909183018282801561346b57602002820191906000526020600020905b815481526020019060010190808311613457575b5050506001600160a01b038616600090815261010960209081526040822060038101805460018101825590845291832090910189905560048101805495965090948994509092506134bd9084906159a1565b9091555050610106546000906001600160401b038111156134e0576134e06150c8565b604051908082528060200260200182016040528015613509578160200160208202803683370190505b50905060008061010780548060200260200160405190810160405280929190818152602001828054801561356657602002820191906000526020600020905b81546001600160a01b03168152600190910190602001808311613548575b505083519394506000925050505b610106548110156138b05785546001600160a01b0316600081815261010960205260409020906135a457506138b0565b875182101561384557600060648984815181106135c3576135c361598b565b60200260200101518d6135d69190615be6565b6135e0919061595e565b905082600003613604578b8260050160008282546135fe91906159a1565b90915550505b8b82600601600082825461361891906159a1565b90915550506007820180546001810182556000918252602082200182905560ff80548392906136489084906159a1565b92505081905550896001600160a01b031663b70cc4c16040518163ffffffff1660e01b8152600401602060405180830381865afa15801561368d573d6000803e3d6000fd5b505050506040513d601f19601f820116820180604052508101906136b19190615915565b885460405163a9059cbb60e01b81526001600160a01b0391821660048201526024810184905291169063a9059cbb906044016020604051808303816000875af1158015613702573d6000803e3d6000fd5b505050506040513d601f19601f8201168201806040525081019061372691906158c8565b50875481906001600160a01b03908116908d167f197a0a2b0fbff3fc4f7f4d32597585aa8415fcc4c5dd6634336ec65904529c836137658760016159a1565b60408051918252602082018190526005908201526410539554d160da1b606082015260800160405180910390a4600a82015460ff166138435761010354826005015411156138435787546101028054600180820183556000929092527f93bdaa6a4190909b7c3fbe8d42169ffe1cab19f51dfc8db24c71abf849eced4a0180546001600160a01b0319166001600160a01b03938416179055600a8401805460ff191690911790558854604051911681527facc63915cb028aeaee9996abc0f864fc0559a2f955750aa97d6ef9f51014acfb9060200160405180910390a15b505b610105548160050154111561389c57865486516001600160a01b03909116908790879081106138765761387661598b565b6001600160a01b039092166020928302919091019091015284613898816159b4565b9550505b9550806138a8816159b4565b915050613574565b508215613ae1576000836064610104548c6138cb9190615be6565b6138d5919061595e565b6138df919061595e565b905060005b84811015613ade5760006001600160a01b03168682815181106139095761390961598b565b60200260200101516001600160a01b03160315613ade57600061010960008884815181106139395761393961598b565b60200260200101516001600160a01b03166001600160a01b031681526020019081526020016000209050896001600160a01b031663b70cc4c16040518163ffffffff1660e01b8152600401602060405180830381865afa1580156139a1573d6000803e3d6000fd5b505050506040513d601f19601f820116820180604052508101906139c59190615915565b6001600160a01b031663a9059cbb8884815181106139e5576139e561598b565b6020026020010151856040518363ffffffff1660e01b8152600401613a1f9291906001600160a01b03929092168252602082015260400190565b6020604051808303816000875af1158015613a3e573d6000803e3d6000fd5b505050506040513d601f19601f82011682018060405250810190613a6291906158c8565b50868281518110613a7557613a7561598b565b60200260200101516001600160a01b0316837f62f12b06523c734cca73aa1502a5f967c8e09d0a2f084fd36acbac47f54b0d4e60405160405180910390a36009018054600181018255600091825260209091200182905580613ad6816159b4565b9150506138e4565b50505b6101025415613cc15760006064610101548b613afd9190615be6565b613b07919061595e565b610102546040805142602082015244918101919091529192506000916060016040516020818303038152906040528051906020012060001c613b499190615bfd565b905060006101028281548110613b6157613b6161598b565b60009182526020808320909101546001600160a01b039081168084526101098352604093849020845163b70cc4c160e01b8152945191955093918e169263b70cc4c192600480820193918290030181865afa158015613bc4573d6000803e3d6000fd5b505050506040513d601f19601f82011682018060405250810190613be89190615915565b60405163a9059cbb60e01b81526001600160a01b03848116600483015260248201879052919091169063a9059cbb906044016020604051808303816000875af1158015613c39573d6000803e3d6000fd5b505050506040513d601f19601f82011682018060405250810190613c5d91906158c8565b50600881018054600181018255600091825260209182902001859055604080518681526001600160a01b038516928101929092527f51e673ac98f0ea063ce27eb5af807d22b97cd11cd79380cf1f711ad80948046c910160405180910390a1505050505b8015613e61576000816064610108548c613cdb9190615be6565b613ce5919061595e565b613cef919061595e565b905060005b82811015613e5e57886001600160a01b031663b70cc4c16040518163ffffffff1660e01b8152600401602060405180830381865afa158015613d3a573d6000803e3d6000fd5b505050506040513d601f19601f82011682018060405250810190613d5e9190615915565b6001600160a01b031663a9059cbb858381518110613d7e57613d7e61598b565b6020026020010151846040518363ffffffff1660e01b8152600401613db89291906001600160a01b03929092168252602082015260400190565b6020604051808303816000875af1158015613dd7573d6000803e3d6000fd5b505050506040513d601f19601f82011682018060405250810190613dfb91906158c8565b50838181518110613e0e57613e0e61598b565b60200260200101516001600160a01b0316827f6d550262135215fe2f5ef9b6fad45db8cf51267248f8b95e069f8025f6f9049a60405160405180910390a380613e56816159b4565b915050613cf4565b50505b505050505050505050565b6001600160a01b038116600090815261010d602052604081205461ffff169003611a3f5761010f54600090613ea69061ffff166001615c11565b6001600160a01b038316600081815261010d60209081526040808320805461ffff191661ffff878116918217909255845261010c909252822080546001600160a01b0319908116851790915561010e80546001810182559084527f44731785622d53a842eeb261a70df6f2b61b9624656157b6168597f0656f480501805490911690931790925561010f8054939450929091169190613f4483615ba6565b91906101000a81548161ffff021916908361ffff160217905550505050565b606081015151600090156126795760015b8260600151518161ffff161015613fc65782606001518161ffff1681518110613f9f57613f9f61598b565b602002602001015182613fb291906159a1565b915080613fbe81615ba6565b915050613f74565b50919050565b60fb54604051630935e01b60e21b81523360048201526001600160a01b03909116906324d7806c90602401602060405180830381865afa158015614014573d6000803e3d6000fd5b505050506040513d601f19601f8201168201806040525081019061403891906158c8565b611a3f5760405162461bcd60e51b81526004016108e9906158ea565b7f4910fdfa16fed3260ed0e7147f7cc6da11a60208b5b9406d12a635614ffd91435460ff1615614087576115a983614baa565b826001600160a01b03166352d1902d6040518163ffffffff1660e01b8152600401602060405180830381865afa9250505080156140e1575060408051601f3d908101601f191682019092526140de91810190615972565b60015b6141445760405162461bcd60e51b815260206004820152602e60248201527f45524331393637557067726164653a206e657720696d706c656d656e7461746960448201526d6f6e206973206e6f74205555505360901b60648201526084016108e9565b600080516020615cc283398151915281146141b35760405162461bcd60e51b815260206004820152602960248201527f45524331393637557067726164653a20756e737570706f727465642070726f786044820152681a58589b195555525160ba1b60648201526084016108e9565b506115a9838383614c46565b6141c7614c6b565b6033805460ff191690557f5db9ee0a495bf2e6ff9c91a7834c1ba4fdd244a5e8aa4e537bd38aeae4b073aa335b6040516001600160a01b03909116815260200160405180910390a1565b6065546001600160a01b03163314611ad25760405162461bcd60e51b815260206004820181905260248201527f4f776e61626c653a2063616c6c6572206973206e6f7420746865206f776e657260448201526064016108e9565b606580546001600160a01b038381166001600160a01b0319831681179093556040519116919082907f8be0079c531659141344cd1fd0a4f28419497f9722a3daafe3b4186f6b6457e090600090a35050565b600054610100900460ff166142e45760405162461bcd60e51b81526004016108e990615c2c565b611ad2614cb4565b600054610100900460ff166143135760405162461bcd60e51b81526004016108e990615c2c565b611ad2614ce7565b600054610100900460ff16611ad25760405162461bcd60e51b81526004016108e990615c2c565b61434a614d17565b6033805460ff191660011790557f62e78cea01bee320cd4e420270b5ea74000d11b0c9f74754ebdbfc544b05a2586141f43390565b6060600061438d8484615c77565b61ffff166001600160401b038111156143a8576143a86150c8565b6040519080825280602002602001820160405280156143d1578160200160208202803683370190505b5091505b8261ffff168461ffff16116148865761ffff8416600090815261010c60209081526040808320546001600160a01b0390811680855261010984528285208351610160810185528154909316835260018101805485518188028101880190965280865292969593949193858101939083018282801561447c57602002820191906000526020600020905b81546001600160a01b0316815260019091019060200180831161445e575b50505050508152602001600282018054806020026020016040519081016040528092919081815260200182805480156144de57602002820191906000526020600020905b81546001600160a01b031681526001909101906020018083116144c0575b505050505081526020016003820180548060200260200160405190810160405280929190818152602001828054801561453657602002820191906000526020600020905b815481526020019060010190808311614522575b50505050508152602001600482015481526020016005820154815260200160068201548152602001600782018054806020026020016040519081016040528092919081815260200182805480156145ac57602002820191906000526020600020905b815481526020019060010190808311614598575b505050505081526020016008820180548060200260200160405190810160405280929190818152602001828054801561460457602002820191906000526020600020905b8154815260200190600101908083116145f0575b505050505081526020016009820180548060200260200160405190810160405280929190818152602001828054801561465c57602002820191906000526020600020905b815481526020019060010190808311614648575b5050509183525050600a919091015460ff9081161515602092830152898116600090815261010b83526040808220815160e081018352815490941684526001810154948401949094526002840154908301526003830154606083015260048301805494955090939192916080840191906146d5906159cd565b80601f0160208091040260200160405190810160405280929190818152602001828054614701906159cd565b801561474e5780601f106147235761010080835404028352916020019161474e565b820191906000526020600020905b81548152906001019060200180831161473157829003601f168201915b50505050508152602001600582018054614767906159cd565b80601f0160208091040260200160405190810160405280929190818152602001828054614793906159cd565b80156147e05780601f106147b5576101008083540402835291602001916147e0565b820191906000526020600020905b8154815290600101906020018083116147c357829003601f168201915b505050505081526020016006820154815250509050806020015161480383613f63565b10158015614819575080604001518260a0015110155b801561482e575061482e82826060015161488e565b156148705782858561ffff168151811061484a5761484a61598b565b6001600160a01b03909216602092830291909101909101528361486c81615ba6565b9450505b505050838061487e90615ba6565b9450506143d5565b935093915050565b60008060028460200151511115614ba35760005b8460200151518161ffff161015614ba1576000610109600087602001518461ffff16815181106148d4576148d461598b565b6020908102919091018101516001600160a01b0390811683528282019390935260409182016000208251610160810184528154909416845260018101805484518185028101850190955280855291938584019390929083018282801561496357602002820191906000526020600020905b81546001600160a01b03168152600190910190602001808311614945575b50505050508152602001600282018054806020026020016040519081016040528092919081815260200182805480156149c557602002820191906000526020600020905b81546001600160a01b031681526001909101906020018083116149a7575b5050505050815260200160038201805480602002602001604051908101604052809291908181526020018280548015614a1d57602002820191906000526020600020905b815481526020019060010190808311614a09575b5050505050815260200160048201548152602001600582015481526020016006820154815260200160078201805480602002602001604051908101604052809291908181526020018280548015614a9357602002820191906000526020600020905b815481526020019060010190808311614a7f575b5050505050815260200160088201805480602002602001604051908101604052809291908181526020018280548015614aeb57602002820191906000526020600020905b815481526020019060010190808311614ad7575b5050505050815260200160098201805480602002602001604051908101604052809291908181526020018280548015614b4357602002820191906000526020600020905b815481526020019060010190808311614b2f575b5050509183525050600a919091015460ff16151560209091015260c08101519091508511614b795782614b7581615bc7565b9350505b60028360ff1610614b8e576001935050614ba1565b5080614b9981615ba6565b9150506148a2565b505b5092915050565b6001600160a01b0381163b614c175760405162461bcd60e51b815260206004820152602d60248201527f455243313936373a206e657720696d706c656d656e746174696f6e206973206e60448201526c1bdd08184818dbdb9d1c9858dd609a1b60648201526084016108e9565b600080516020615cc283398151915280546001600160a01b0319166001600160a01b0392909216919091179055565b614c4f83614d5d565b600082511180614c5c5750805b156115a957610c248383614d9d565b60335460ff16611ad25760405162461bcd60e51b815260206004820152601460248201527314185d5cd8589b194e881b9bdd081c185d5cd95960621b60448201526064016108e9565b600054610100900460ff16614cdb5760405162461bcd60e51b81526004016108e990615c2c565b6033805460ff19169055565b600054610100900460ff16614d0e5760405162461bcd60e51b81526004016108e990615c2c565b611ad23361426b565b60335460ff1615611ad25760405162461bcd60e51b815260206004820152601060248201526f14185d5cd8589b194e881c185d5cd95960821b60448201526064016108e9565b614d6681614baa565b6040516001600160a01b038216907fbc7cd75a20ee27fd9adebab32041f755214dbc6bffa90cc0225b39da2e5c2d3b90600090a250565b60606001600160a01b0383163b614e055760405162461bcd60e51b815260206004820152602660248201527f416464726573733a2064656c65676174652063616c6c20746f206e6f6e2d636f6044820152651b9d1c9858dd60d21b60648201526084016108e9565b600080846001600160a01b031684604051614e209190615c92565b600060405180830381855af49150503d8060008114614e5b576040519150601f19603f3d011682016040523d82523d6000602084013e614e60565b606091505b5091509150614e888282604051806060016040528060278152602001615ce260279139614e91565b95945050505050565b60608315614ea05750816114a9565b6114a98383815115614eb55781518083602001fd5b8060405162461bcd60e51b81526004016108e99190615cae565b828054828255906000526020600020908101928215614f0a579160200282015b82811115614f0a578235825591602001919060010190614eef565b50614f16929150614f5a565b5090565b828054828255906000526020600020908101928215614f0a579160200282015b82811115614f0a578251829060ff16905591602001919060010190614f3a565b5b80821115614f165760008155600101614f5b565b803561ffff8116811461267957600080fd5b600060208284031215614f9357600080fd5b6114a982614f6f565b6001600160a01b0381168114611a3f57600080fd5b600060208284031215614fc357600080fd5b81356114a981614f9c565b600080600060608486031215614fe357600080fd5b833592506020840135614ff581614f9c565b9150604084013561500581614f9c565b809150509250925092565b6000806040838503121561502357600080fd5b823561502e81614f9c565b946020939093013593505050565b60008083601f84011261504e57600080fd5b5081356001600160401b0381111561506557600080fd5b6020830191508360208260051b850101111561508057600080fd5b9250929050565b6000806020838503121561509a57600080fd5b82356001600160401b038111156150b057600080fd5b6150bc8582860161503c565b90969095509350505050565b634e487b7160e01b600052604160045260246000fd5b604051601f8201601f191681016001600160401b0381118282101715615106576151066150c8565b604052919050565b60006001600160401b03821115615127576151276150c8565b5060051b60200190565b803560ff8116811461267957600080fd5b600082601f83011261515357600080fd5b813560206151686151638361510e565b6150de565b82815260059290921b8401810191818101908684111561518757600080fd5b8286015b848110156151a95761519c81615131565b835291830191830161518b565b509695505050505050565b600082601f8301126151c557600080fd5b813560206151d56151638361510e565b82815260059290921b840181019181810190868411156151f457600080fd5b8286015b848110156151a957803583529183019183016151f8565b60006001600160401b03831115615228576152286150c8565b61523b601f8401601f19166020016150de565b905082815283838301111561524f57600080fd5b828260208301376000602084830101529392505050565b600082601f83011261527757600080fd5b813560206152876151638361510e565b82815260059290921b840181019181810190868411156152a657600080fd5b8286015b848110156151a95780356001600160401b038111156152c95760008081fd5b8701603f810189136152db5760008081fd5b6152ec89868301356040840161520f565b8452509183019183016152aa565b600080600080600080600060e0888a03121561531557600080fd5b87356001600160401b038082111561532c57600080fd5b6153388b838c01615142565b985060208a013591508082111561534e57600080fd5b61535a8b838c016151b4565b975060408a013591508082111561537057600080fd5b61537c8b838c016151b4565b965060608a013591508082111561539257600080fd5b61539e8b838c016151b4565b955060808a01359150808211156153b457600080fd5b6153c08b838c01615266565b945060a08a01359150808211156153d657600080fd5b6153e28b838c01615266565b935060c08a01359150808211156153f857600080fd5b506154058a828b016151b4565b91505092959891949750929550565b6000806040838503121561542757600080fd5b823561543281614f9c565b915060208301356001600160401b0381111561544d57600080fd5b8301601f8101851361545e57600080fd5b61546d8582356020840161520f565b9150509250929050565b60006020828403121561548957600080fd5b5035919050565b600080604083850312156154a357600080fd5b82356154ae81614f9c565b91506154bc60208401615131565b90509250929050565b602080825282516001600160a01b031682820152828101516060604084015280516080840181905260009291820190839060a08601905b8083101561551f57835160ff1682529284019260019290920191908401906154fc565b5060ff60408801511660608701528094505050505092915050565b6000806000806040858703121561555057600080fd5b84356001600160401b038082111561556757600080fd5b6155738883890161503c565b9096509450602087013591508082111561558c57600080fd5b506155998782880161503c565b95989497509550505050565b6000602082840312156155b757600080fd5b6114a982615131565b60005b838110156155db5781810151838201526020016155c3565b50506000910152565b600081518084526155fc8160208601602086016155c0565b601f01601f19169290920160200192915050565b60ff8816815286602082015285604082015284606082015260e06080820152600061563e60e08301866155e4565b82810360a084015261565081866155e4565b9150508260c083015298975050505050505050565b60008060006060848603121561567a57600080fd5b61568384615131565b925061569160208501614f6f565b915061569f60408501614f6f565b90509250925092565b600081518084526020808501945080840160005b838110156156e15781516001600160a01b0316875295820195908201906001016156bc565b509495945050505050565b6040815260006156ff60408301856156a8565b905061ffff831660208301529392505050565b60808152600061572560808301876156a8565b856020840152828103604084015261573d81866156a8565b91505082606083015295945050505050565b600081518084526020808501945080840160005b838110156156e157815187529582019590820190600101615763565b602081526157996020820183516001600160a01b03169052565b600060208301516101608060408501526157b76101808501836156a8565b91506040850151601f19808685030160608701526157d584836156a8565b935060608701519150808685030160808701526157f2848361574f565b9350608087015160a087015260a087015160c087015260c087015160e087015260e0870151915061010081878603018188015261582f858461574f565b94508088015192505061012081878603018188015261584e858461574f565b94508088015192505061014081878603018188015261586d858461574f565b945080880151925050506158848286018215159052565b5090949350505050565b8481526080602082015260006158a7608083018661574f565b6040830194909452506001600160a01b039190911660609091015292915050565b6000602082840312156158da57600080fd5b815180151581146114a957600080fd5b6020808252601190820152702cb7ba9030b932903737ba1030b236b4b760791b604082015260600190565b60006020828403121561592757600080fd5b81516114a981614f9c565b634e487b7160e01b600052601260045260246000fd5b634e487b7160e01b600052601160045260246000fd5b60008261596d5761596d615932565b500490565b60006020828403121561598457600080fd5b5051919050565b634e487b7160e01b600052603260045260246000fd5b8082018082111561093557610935615948565b6000600182016159c6576159c6615948565b5060010190565b600181811c908216806159e157607f821691505b602082108103613fc657634e487b7160e01b600052602260045260246000fd5b601f8211156115a957600081815260208120601f850160051c81016020861015615a285750805b601f850160051c820191505b81811015615a4757828155600101615a34565b505050505050565b81516001600160401b03811115615a6857615a686150c8565b615a7c81615a7684546159cd565b84615a01565b602080601f831160018114615ab15760008415615a995750858301515b600019600386901b1c1916600185901b178555615a47565b600085815260208120601f198616915b82811015615ae057888601518255948401946001909101908401615ac1565b5085821015615afe5787850151600019600388901b60f8161c191681555b5050505050600190811b01905550565b6020808252602c908201527f46756e6374696f6e206d7573742062652063616c6c6564207468726f7567682060408201526b19195b1959d85d1958d85b1b60a21b606082015260800190565b6020808252602c908201527f46756e6374696f6e206d7573742062652063616c6c6564207468726f7567682060408201526b6163746976652070726f787960a01b606082015260800190565b600061ffff808316818103615bbd57615bbd615948565b6001019392505050565b600060ff821660ff8103615bdd57615bdd615948565b60010192915050565b808202811582820484141761093557610935615948565b600082615c0c57615c0c615932565b500690565b61ffff818116838216019080821115614ba357614ba3615948565b6020808252602b908201527f496e697469616c697a61626c653a20636f6e7472616374206973206e6f74206960408201526a6e697469616c697a696e6760a81b606082015260800190565b61ffff828116828216039080821115614ba357614ba3615948565b60008251615ca48184602087016155c0565b9190910192915050565b6020815260006114a960208301846155e456fe360894a13ba1a3210667c828492db98dca3e2076cc3735a920a3ca505d382bbc416464726573733a206c6f772d6c6576656c2064656c65676174652063616c6c206661696c6564a2646970667358221220ab20eadd3cf63e49d6e4365b0680e2212637c148dd91668434fe8dfb77b54de964736f6c63430008110033",
  "linkReferences": {},
  "deployedLinkReferences": {}
}