{
  "_format": "hh-sol-artifact-1",
  "contractName": "ReferralUpgradeable",
  "sourceName": "contracts/ReferralUpgradeable.sol",
  "abi": [
    {
      "anonymous": false,
      "inputs": [
        {
          "indexed": false,
          "internalType": "address",
          "name": "previousAdmin",
          "type": "address"
        },
        {
          "indexed": false,
          "internalType": "address",
          "name": "newAdmin",
          "type": "address"
        }
      ],
      "name": "AdminChanged",
      "type": "event"
    },
    {
      "anonymous": false,
      "inputs": [
        {
          "indexed": true,
          "internalType": "address",
          "name": "beacon",
          "type": "address"
        }
      ],
      "name": "BeaconUpgraded",
      "type": "event"
    },
    {
      "anonymous": false,
      "inputs": [
        {
          "indexed": true,
          "internalType": "address",
          "name": "userAddressaddress",
          "type": "address"
        }
      ],
      "name": "CoreMemberAdded",
      "type": "event"
    },
    {
      "anonymous": false,
      "inputs": [
        {
          "indexed": false,
          "internalType": "address",
          "name": "userAddress",
          "type": "address"
        }
      ],
      "name": "CoreMemberRemoved",
      "type": "event"
    },
    {
      "anonymous": false,
      "inputs": [
        {
          "indexed": true,
          "internalType": "uint256",
          "name": "value",
          "type": "uint256"
        },
        {
          "indexed": true,
          "internalType": "address",
          "name": "userAddress",
          "type": "address"
        }
      ],
      "name": "CoreMemberRewardPaid",
      "type": "event"
    },
    {
      "anonymous": false,
      "inputs": [
        {
          "indexed": false,
          "internalType": "address",
          "name": "userAddress",
          "type": "address"
        }
      ],
      "name": "GlobalAddressAdded",
      "type": "event"
    },
    {
      "anonymous": false,
      "inputs": [
        {
          "indexed": false,
          "internalType": "address",
          "name": "userAddress",
          "type": "address"
        }
      ],
      "name": "GlobalAddressRemoved",
      "type": "event"
    },
    {
      "anonymous": false,
      "inputs": [
        {
          "indexed": false,
          "internalType": "uint256",
          "name": "value",
          "type": "uint256"
        },
        {
          "indexed": false,
          "internalType": "address",
          "name": "userAddress",
          "type": "address"
        }
      ],
      "name": "GlobalRewardPaid",
      "type": "event"
    },
    {
      "anonymous": false,
      "inputs": [
        {
          "indexed": false,
          "internalType": "uint8",
          "name": "version",
          "type": "uint8"
        }
      ],
      "name": "Initialized",
      "type": "event"
    },
    {
      "anonymous": false,
      "inputs": [
        {
          "indexed": true,
          "internalType": "address",
          "name": "previousOwner",
          "type": "address"
        },
        {
          "indexed": true,
          "internalType": "address",
          "name": "newOwner",
          "type": "address"
        }
      ],
      "name": "OwnershipTransferred",
      "type": "event"
    },
    {
      "anonymous": false,
      "inputs": [
        {
          "indexed": true,
          "internalType": "uint256",
          "name": "value",
          "type": "uint256"
        },
        {
          "indexed": true,
          "internalType": "address",
          "name": "userAddress",
          "type": "address"
        }
      ],
      "name": "PassiveRewardPaid",
      "type": "event"
    },
    {
      "anonymous": false,
      "inputs": [
        {
          "indexed": false,
          "internalType": "address",
          "name": "account",
          "type": "address"
        }
      ],
      "name": "Paused",
      "type": "event"
    },
    {
      "anonymous": false,
      "inputs": [
        {
          "indexed": true,
          "internalType": "address",
          "name": "referee",
          "type": "address"
        },
        {
          "indexed": true,
          "internalType": "address",
          "name": "referrer",
          "type": "address"
        },
        {
          "indexed": true,
          "internalType": "uint256",
          "name": "amount",
          "type": "uint256"
        },
        {
          "indexed": false,
          "internalType": "uint256",
          "name": "level",
          "type": "uint256"
        },
        {
          "indexed": false,
          "internalType": "string",
          "name": "currency",
          "type": "string"
        }
      ],
      "name": "ReferralRewardPaid",
      "type": "event"
    },
    {
      "anonymous": false,
      "inputs": [
        {
          "indexed": true,
          "internalType": "address",
          "name": "referee",
          "type": "address"
        },
        {
          "indexed": true,
          "internalType": "address",
          "name": "referrer",
          "type": "address"
        },
        {
          "indexed": true,
          "internalType": "string",
          "name": "reason",
          "type": "string"
        }
      ],
      "name": "RegisterRefererFailed",
      "type": "event"
    },
    {
      "anonymous": false,
      "inputs": [
        {
          "indexed": true,
          "internalType": "address",
          "name": "referrer",
          "type": "address"
        },
        {
          "indexed": true,
          "internalType": "address",
          "name": "referee",
          "type": "address"
        }
      ],
      "name": "RegisteredReferer",
      "type": "event"
    },
    {
      "anonymous": false,
      "inputs": [
        {
          "indexed": true,
          "internalType": "address",
          "name": "parent",
          "type": "address"
        },
        {
          "indexed": true,
          "internalType": "address",
          "name": "referrer",
          "type": "address"
        },
        {
          "indexed": true,
          "internalType": "address",
          "name": "referee",
          "type": "address"
        }
      ],
      "name": "RegisteredTeamAddress",
      "type": "event"
    },
    {
      "anonymous": false,
      "inputs": [
        {
          "indexed": false,
          "internalType": "address",
          "name": "account",
          "type": "address"
        }
      ],
      "name": "Unpaused",
      "type": "event"
    },
    {
      "anonymous": false,
      "inputs": [
        {
          "indexed": true,
          "internalType": "address",
          "name": "implementation",
          "type": "address"
        }
      ],
      "name": "Upgraded",
      "type": "event"
    },
    {
      "inputs": [
        {
          "internalType": "address",
          "name": "_userAddress",
          "type": "address"
        },
        {
          "internalType": "uint256",
          "name": "_valueToCompare",
          "type": "uint256"
        }
      ],
      "name": "_userDirectBusinessIsAbove",
      "outputs": [
        {
          "internalType": "bool",
          "name": "",
          "type": "bool"
        }
      ],
      "stateMutability": "view",
      "type": "function"
    },
    {
      "inputs": [
        {
          "internalType": "address[]",
          "name": "_userAddress",
          "type": "address[]"
        },
        {
          "internalType": "address[]",
          "name": "_referrerAddress",
          "type": "address[]"
        }
      ],
      "name": "addReferrerAdmin",
      "outputs": [],
      "stateMutability": "nonpayable",
      "type": "function"
    },
    {
      "inputs": [],
      "name": "contractDefaults",
      "outputs": [
        {
          "internalType": "uint256",
          "name": "levelDecimals",
          "type": "uint256"
        },
        {
          "internalType": "uint256[]",
          "name": "levelRates",
          "type": "uint256[]"
        },
        {
          "internalType": "uint256",
          "name": "totalLevelRate",
          "type": "uint256"
        },
        {
          "internalType": "address",
          "name": "defaultReferrer",
          "type": "address"
        }
      ],
      "stateMutability": "view",
      "type": "function"
    },
    {
      "inputs": [
        {
          "internalType": "address",
          "name": "_address",
          "type": "address"
        }
      ],
      "name": "getUserAccount",
      "outputs": [
        {
          "components": [
            {
              "internalType": "address",
              "name": "referrer",
              "type": "address"
            },
            {
              "internalType": "address[]",
              "name": "referee",
              "type": "address[]"
            },
            {
              "internalType": "address[]",
              "name": "team",
              "type": "address[]"
            },
            {
              "internalType": "uint256",
              "name": "selfBusiness",
              "type": "uint256"
            },
            {
              "internalType": "uint256",
              "name": "totalBusiness",
              "type": "uint256"
            },
            {
              "internalType": "uint256[]",
              "name": "rewardsPaidReferral",
              "type": "uint256[]"
            },
            {
              "internalType": "uint256[]",
              "name": "rewardsPaidGlobal",
              "type": "uint256[]"
            },
            {
              "internalType": "uint256[]",
              "name": "rewardPaidPassive",
              "type": "uint256[]"
            },
            {
              "internalType": "bool",
              "name": "isInGlobalID",
              "type": "bool"
            },
            {
              "internalType": "uint256[]",
              "name": "blockNumbers",
              "type": "uint256[]"
            }
          ],
          "internalType": "struct ReferralUpgradeable.Account",
          "name": "userAccount",
          "type": "tuple"
        }
      ],
      "stateMutability": "view",
      "type": "function"
    },
    {
      "inputs": [
        {
          "internalType": "address",
          "name": "_address",
          "type": "address"
        }
      ],
      "name": "getUserReferrerAddress",
      "outputs": [
        {
          "internalType": "address",
          "name": "referrer",
          "type": "address"
        }
      ],
      "stateMutability": "view",
      "type": "function"
    },
    {
      "inputs": [
        {
          "internalType": "address",
          "name": "_address",
          "type": "address"
        }
      ],
      "name": "getUserTeam",
      "outputs": [
        {
          "internalType": "address[]",
          "name": "userReferee",
          "type": "address[]"
        },
        {
          "internalType": "uint256",
          "name": "userRefereeCount",
          "type": "uint256"
        },
        {
          "internalType": "address[]",
          "name": "userTeamAddress",
          "type": "address[]"
        },
        {
          "internalType": "uint256",
          "name": "userTeamCount",
          "type": "uint256"
        }
      ],
      "stateMutability": "view",
      "type": "function"
    },
    {
      "inputs": [
        {
          "internalType": "address",
          "name": "_address",
          "type": "address"
        }
      ],
      "name": "getUserTotalBusiness",
      "outputs": [
        {
          "internalType": "uint256",
          "name": "totalBusiness",
          "type": "uint256"
        },
        {
          "internalType": "uint256",
          "name": "directBusiness",
          "type": "uint256"
        },
        {
          "internalType": "uint256",
          "name": "refereeTeamBusiness",
          "type": "uint256"
        },
        {
          "internalType": "uint256",
          "name": "teamBusiness",
          "type": "uint256"
        }
      ],
      "stateMutability": "view",
      "type": "function"
    },
    {
      "inputs": [
        {
          "internalType": "address",
          "name": "_address",
          "type": "address"
        }
      ],
      "name": "getUserTotalRewardPaid",
      "outputs": [
        {
          "internalType": "uint256",
          "name": "rewardsAUSD",
          "type": "uint256"
        },
        {
          "internalType": "uint256",
          "name": "rewardsGlobal",
          "type": "uint256"
        },
        {
          "internalType": "uint256",
          "name": "rewardsPassive",
          "type": "uint256"
        }
      ],
      "stateMutability": "view",
      "type": "function"
    },
    {
      "inputs": [
        {
          "internalType": "address",
          "name": "_address",
          "type": "address"
        }
      ],
      "name": "hasReferrer",
      "outputs": [
        {
          "internalType": "bool",
          "name": "",
          "type": "bool"
        }
      ],
      "stateMutability": "view",
      "type": "function"
    },
    {
      "inputs": [],
      "name": "initialize",
      "outputs": [],
      "stateMutability": "nonpayable",
      "type": "function"
    },
    {
      "inputs": [],
      "name": "owner",
      "outputs": [
        {
          "internalType": "address",
          "name": "",
          "type": "address"
        }
      ],
      "stateMutability": "view",
      "type": "function"
    },
    {
      "inputs": [],
      "name": "pause",
      "outputs": [],
      "stateMutability": "nonpayable",
      "type": "function"
    },
    {
      "inputs": [],
      "name": "paused",
      "outputs": [
        {
          "internalType": "bool",
          "name": "",
          "type": "bool"
        }
      ],
      "stateMutability": "view",
      "type": "function"
    },
    {
      "inputs": [
        {
          "internalType": "uint256",
          "name": "_value",
          "type": "uint256"
        },
        {
          "internalType": "address",
          "name": "_userAddress",
          "type": "address"
        },
        {
          "internalType": "address",
          "name": "_referrerAddress",
          "type": "address"
        }
      ],
      "name": "payReferralANUSDAdmin",
      "outputs": [],
      "stateMutability": "nonpayable",
      "type": "function"
    },
    {
      "inputs": [],
      "name": "proxiableUUID",
      "outputs": [
        {
          "internalType": "bytes32",
          "name": "",
          "type": "bytes32"
        }
      ],
      "stateMutability": "view",
      "type": "function"
    },
    {
      "inputs": [],
      "name": "renounceOwnership",
      "outputs": [],
      "stateMutability": "nonpayable",
      "type": "function"
    },
    {
      "inputs": [
        {
          "internalType": "address payable",
          "name": "_address",
          "type": "address"
        }
      ],
      "name": "setDefaultReferrer",
      "outputs": [],
      "stateMutability": "nonpayable",
      "type": "function"
    },
    {
      "inputs": [
        {
          "internalType": "uint256",
          "name": "_value",
          "type": "uint256"
        }
      ],
      "name": "setLevelDecimals",
      "outputs": [
        {
          "internalType": "bool",
          "name": "",
          "type": "bool"
        }
      ],
      "stateMutability": "nonpayable",
      "type": "function"
    },
    {
      "inputs": [
        {
          "internalType": "uint256[]",
          "name": "_valueInArray",
          "type": "uint256[]"
        }
      ],
      "name": "setLevelRates",
      "outputs": [],
      "stateMutability": "nonpayable",
      "type": "function"
    },
    {
      "inputs": [
        {
          "internalType": "address",
          "name": "_address",
          "type": "address"
        },
        {
          "internalType": "uint256",
          "name": "_value",
          "type": "uint256"
        }
      ],
      "name": "transferNative",
      "outputs": [],
      "stateMutability": "nonpayable",
      "type": "function"
    },
    {
      "inputs": [
        {
          "internalType": "address",
          "name": "newOwner",
          "type": "address"
        }
      ],
      "name": "transferOwnership",
      "outputs": [],
      "stateMutability": "nonpayable",
      "type": "function"
    },
    {
      "inputs": [],
      "name": "unpause",
      "outputs": [],
      "stateMutability": "nonpayable",
      "type": "function"
    },
    {
      "inputs": [
        {
          "internalType": "address",
          "name": "newImplementation",
          "type": "address"
        }
      ],
      "name": "upgradeTo",
      "outputs": [],
      "stateMutability": "nonpayable",
      "type": "function"
    },
    {
      "inputs": [
        {
          "internalType": "address",
          "name": "newImplementation",
          "type": "address"
        },
        {
          "internalType": "bytes",
          "name": "data",
          "type": "bytes"
        }
      ],
      "name": "upgradeToAndCall",
      "outputs": [],
      "stateMutability": "payable",
      "type": "function"
    },
    {
      "inputs": [
        {
          "internalType": "address",
          "name": "_address",
          "type": "address"
        }
      ],
      "name": "userTransactionsBlocks",
      "outputs": [
        {
          "internalType": "uint256[]",
          "name": "",
          "type": "uint256[]"
        }
      ],
      "stateMutability": "view",
      "type": "function"
    },
    {
      "inputs": [],
      "name": "withdrawNative",
      "outputs": [],
      "stateMutability": "nonpayable",
      "type": "function"
    },
    {
      "inputs": [
        {
          "internalType": "address",
          "name": "_tokenAddress",
          "type": "address"
        },
        {
          "internalType": "uint256",
          "name": "_value",
          "type": "uint256"
        }
      ],
      "name": "withdrawtokens",
      "outputs": [],
      "stateMutability": "nonpayable",
      "type": "function"
    },
    {
      "stateMutability": "payable",
      "type": "receive"
    }
  ],
  "bytecode": "0x60a06040523060805234801561001457600080fd5b50608051613d7b61004c600039600081816111a9015281816111e90152818161129a015281816112da01526113a10152613d7b6000f3fe6080604052600436106101a05760003560e01c8063715018a6116100ec578063cfbdb8591161008a578063f2fde38b11610064578063f2fde38b146104d2578063faeda7e5146104f2578063fb47e01614610522578063fb5d45261461054f57600080fd5b8063cfbdb85914610457578063dcf6e81914610477578063ef519dc01461049757600080fd5b80638129fc1c116100c65780638129fc1c146103ef5780638456cb59146104045780638da5cb5b146104195780638f3ddc9f1461043757600080fd5b8063715018a61461038d5780637393402e146103a25780637d2e90c2146103cf57600080fd5b80633659cfe6116101595780634f1ef286116101335780634f1ef2861461032a57806350431ce41461033d57806352d1902d146103525780635c975abb1461037557600080fd5b80633659cfe6146102a35780633f4ba83a146102c357806343b4ebf4146102d857600080fd5b806318452cd8146101ac5780631ee30543146101e1578063228159b4146102015780632405091c14610223578063277bb90014610263578063345b5b851461028357600080fd5b366101a757005b600080fd5b3480156101b857600080fd5b506101cc6101c7366004613619565b610574565b60405190151581526020015b60405180910390f35b3480156101ed57600080fd5b506101cc6101fc366004613636565b61059b565b34801561020d57600080fd5b5061022161021c366004613662565b61069d565b005b34801561022f57600080fd5b5061024361023e366004613619565b610872565b6040805194855260208501939093529183015260608201526080016101d8565b34801561026f57600080fd5b5061022161027e366004613636565b61110d565b34801561028f57600080fd5b5061022161029e3660046136f0565b61118b565b3480156102af57600080fd5b506102216102be366004613619565b61119f565b3480156102cf57600080fd5b5061022161127e565b3480156102e457600080fd5b506103126102f3366004613619565b6001600160a01b03908116600090815261010960205260409020541690565b6040516001600160a01b0390911681526020016101d8565b610221610338366004613748565b611290565b34801561034957600080fd5b50610221611360565b34801561035e57600080fd5b50610367611394565b6040519081526020016101d8565b34801561038157600080fd5b5060335460ff166101cc565b34801561039957600080fd5b50610221611447565b3480156103ae57600080fd5b506103c26103bd366004613619565b611459565b6040516101d89190613847565b3480156103db57600080fd5b506102216103ea366004613636565b6114cc565b3480156103fb57600080fd5b5061022161150a565b34801561041057600080fd5b506102216116f0565b34801561042557600080fd5b506065546001600160a01b0316610312565b34801561044357600080fd5b5061022161045236600461385a565b611700565b34801561046357600080fd5b506101cc6104723660046138c6565b611831565b34801561048357600080fd5b50610221610492366004613619565b611844565b3480156104a357600080fd5b506104b76104b2366004613619565b61186f565b604080519384526020840192909252908201526060016101d8565b3480156104de57600080fd5b506102216104ed366004613619565b61198a565b3480156104fe57600080fd5b5061051261050d366004613619565b611a00565b6040516101d89493929190613918565b34801561052e57600080fd5b5061054261053d366004613619565b611aed565b6040516101d89190613955565b34801561055b57600080fd5b50610564611dc5565b6040516101d89493929190613a4a565b6001600160a01b038082166000908152610109602052604081205490911615155b92915050565b6001600160a01b0382166000908152610109602090815260408083206001018054825181850281018501909352808352849383018282801561060657602002820191906000526020600020905b81546001600160a01b031681526001909101906020018083116105e8575b505050505090506000815190506000805b8281101561068157610109600085838151811061063657610636613a84565b60200260200101516001600160a01b03166001600160a01b03168152602001908152602001600020600301548261066d9190613ab0565b91508061067981613ac3565b915050610617565b50848111610690576000610693565b60015b9695505050505050565b336106b06065546001600160a01b031690565b6001600160a01b0316816001600160a01b03161480610756575060fb60009054906101000a90046001600160a01b03166001600160a01b03166363d9df856040518163ffffffff1660e01b8152600401602060405180830381865afa15801561071d573d6000803e3d6000fd5b505050506040513d601f19601f820116820180604052508101906107419190613adc565b6001600160a01b0316816001600160a01b0316145b6107b25760405162461bcd60e51b815260206004820152602260248201527f4f6e6c79206f776e65722063616e2063616c6c20746869732066756e6374696f604482015261371760f11b60648201526084015b60405180910390fd5b6001600160a01b0383811660009081526101096020526040902054161580156107e357506001600160a01b03821615155b156107fc576107f28383611e8c565b6107fc8383611fa6565b6001600160a01b03828116600090815261010960205260409020541615801561082d57506001600160a01b03821615155b15610862576101005461084a9083906001600160a01b0316611e8c565b610100546108629083906001600160a01b0316611fa6565b61086c848461205a565b50505050565b6001600160a01b038116600090815261010960205260408120600181015460028201546004830154939283928392835b82811015610b6a57600061010960008660010184815481106108c6576108c6613a84565b60009182526020808320909101546001600160a01b0390811684528382019490945260409283019091208251610140810184528154909416845260018101805484518185028101850190955280855291938584019390929083018282801561095757602002820191906000526020600020905b81546001600160a01b03168152600190910190602001808311610939575b50505050508152602001600282018054806020026020016040519081016040528092919081815260200182805480156109b957602002820191906000526020600020905b81546001600160a01b0316815260019091019060200180831161099b575b50505050508152602001600382015481526020016004820154815260200160058201805480602002602001604051908101604052809291908181526020018280548015610a2557602002820191906000526020600020905b815481526020019060010190808311610a11575b5050505050815260200160068201805480602002602001604051908101604052809291908181526020018280548015610a7d57602002820191906000526020600020905b815481526020019060010190808311610a69575b5050505050815260200160078201805480602002602001604051908101604052809291908181526020018280548015610ad557602002820191906000526020600020905b815481526020019060010190808311610ac1575b5050509183525050600882015460ff1615156020808301919091526009830180546040805182850281018501825282815294019392830182828015610b3957602002820191906000526020600020905b815481526020019060010190808311610b25575b5050505050815250509050806060015188610b549190613ab0565b9750508080610b6290613ac3565b9150506108a2565b5060005b82811015610e365760006101096000866001018481548110610b9257610b92613a84565b60009182526020808320909101546001600160a01b03908116845283820194909452604092830190912082516101408101845281549094168452600181018054845181850281018501909552808552919385840193909290830182828015610c2357602002820191906000526020600020905b81546001600160a01b03168152600190910190602001808311610c05575b5050505050815260200160028201805480602002602001604051908101604052809291908181526020018280548015610c8557602002820191906000526020600020905b81546001600160a01b03168152600190910190602001808311610c67575b50505050508152602001600382015481526020016004820154815260200160058201805480602002602001604051908101604052809291908181526020018280548015610cf157602002820191906000526020600020905b815481526020019060010190808311610cdd575b5050505050815260200160068201805480602002602001604051908101604052809291908181526020018280548015610d4957602002820191906000526020600020905b815481526020019060010190808311610d35575b5050505050815260200160078201805480602002602001604051908101604052809291908181526020018280548015610da157602002820191906000526020600020905b815481526020019060010190808311610d8d575b5050509183525050600882015460ff1615156020808301919091526009830180546040805182850281018501825282815294019392830182828015610e0557602002820191906000526020600020905b815481526020019060010190808311610df1575b5050505050815250509050806080015187610e209190613ab0565b9650508080610e2e90613ac3565b915050610b6e565b5060005b818110156111025760006101096000866002018481548110610e5e57610e5e613a84565b60009182526020808320909101546001600160a01b03908116845283820194909452604092830190912082516101408101845281549094168452600181018054845181850281018501909552808552919385840193909290830182828015610eef57602002820191906000526020600020905b81546001600160a01b03168152600190910190602001808311610ed1575b5050505050815260200160028201805480602002602001604051908101604052809291908181526020018280548015610f5157602002820191906000526020600020905b81546001600160a01b03168152600190910190602001808311610f33575b50505050508152602001600382015481526020016004820154815260200160058201805480602002602001604051908101604052809291908181526020018280548015610fbd57602002820191906000526020600020905b815481526020019060010190808311610fa9575b505050505081526020016006820180548060200260200160405190810160405280929190818152602001828054801561101557602002820191906000526020600020905b815481526020019060010190808311611001575b505050505081526020016007820180548060200260200160405190810160405280929190818152602001828054801561106d57602002820191906000526020600020905b815481526020019060010190808311611059575b5050509183525050600882015460ff16151560208083019190915260098301805460408051828502810185018252828152940193928301828280156110d157602002820191906000526020600020905b8154815260200190600101908083116110bd575b50505050508152505090508060800151866110ec9190613ab0565b95505080806110fa90613ac3565b915050610e3a565b505050509193509193565b611115612f00565b60405163a9059cbb60e01b8152336004820152602481018290526001600160a01b0383169063a9059cbb906044016020604051808303816000875af1158015611162573d6000803e3d6000fd5b505050506040513d601f19601f820116820180604052508101906111869190613af9565b505050565b611193612f00565b61118660fc8383613564565b6001600160a01b037f00000000000000000000000000000000000000000000000000000000000000001630036111e75760405162461bcd60e51b81526004016107a990613b1b565b7f00000000000000000000000000000000000000000000000000000000000000006001600160a01b0316611230600080516020613cff833981519152546001600160a01b031690565b6001600160a01b0316146112565760405162461bcd60e51b81526004016107a990613b67565b61125f81612f5a565b6040805160008082526020820190925261127b91839190612f62565b50565b611286612f00565b61128e6130cd565b565b6001600160a01b037f00000000000000000000000000000000000000000000000000000000000000001630036112d85760405162461bcd60e51b81526004016107a990613b1b565b7f00000000000000000000000000000000000000000000000000000000000000006001600160a01b0316611321600080516020613cff833981519152546001600160a01b031690565b6001600160a01b0316146113475760405162461bcd60e51b81526004016107a990613b67565b61135082612f5a565b61135c82826001612f62565b5050565b611368612f00565b60405133904780156108fc02916000818181858888f1935050505015801561127b573d6000803e3d6000fd5b6000306001600160a01b037f000000000000000000000000000000000000000000000000000000000000000016146114345760405162461bcd60e51b815260206004820152603860248201527f555550535570677261646561626c653a206d757374206e6f742062652063616c60448201527f6c6564207468726f7567682064656c656761746563616c6c000000000000000060648201526084016107a9565b50600080516020613cff83398151915290565b61144f612f00565b61128e600061311f565b6001600160a01b0381166000908152610109602090815260409182902060098101805484518185028101850190955280855260609492938301828280156114bf57602002820191906000526020600020905b8154815260200190600101908083116114ab575b5050505050915050919050565b6114d4612f00565b6040516001600160a01b0383169082156108fc029083906000818181858888f19350505050158015611186573d6000803e3d6000fd5b600054610100900460ff161580801561152a5750600054600160ff909116105b806115445750303b158015611544575060005460ff166001145b6115a75760405162461bcd60e51b815260206004820152602e60248201527f496e697469616c697a61626c653a20636f6e747261637420697320616c72656160448201526d191e481a5b9a5d1a585b1a5e995960921b60648201526084016107a9565b6000805460ff1916600117905580156115ca576000805461ff0019166101001790555b60fb80546001600160a01b031990811673be5153baa3756402b08fd830e7b5f00a76e6823117909155610100805490911673435f95425891a92a8fc798c440bf8e9f74cdeec31790556040805160e0810182526007808252600460208301526003928201929092526002606082015260016080820181905260a0820181905260c082015261165b9160fc91906135af565b50606460fd5560146101065569011478b7c30abc3000006101035560046101015560056101045568a80d24677efef0000061010555611698613171565b6116a06131a0565b6116a86131cf565b801561127b576000805461ff0019169055604051600181527f7f26b83ff96e1f2b6a682f133852f6798a09c465da95921460cefb38474024989060200160405180910390a150565b6116f8612f00565b61128e6131f6565b611708612f00565b8281146117615760405162461bcd60e51b815260206004820152602160248201527f4c656e677468206973206e6f7420657175616c20706c6561736520636865636b6044820152601760f91b60648201526084016107a9565b60005b8381101561182a576117c285858381811061178157611781613a84565b90506020020160208101906117969190613619565b8484848181106117a8576117a8613a84565b90506020020160208101906117bd9190613619565b611e8c565b6118188585838181106117d7576117d7613a84565b90506020020160208101906117ec9190613619565b8484848181106117fe576117fe613a84565b90506020020160208101906118139190613619565b611fa6565b8061182281613ac3565b915050611764565b5050505050565b600061183b612f00565b5060fd55600190565b61184c612f00565b61010080546001600160a01b0319166001600160a01b0392909216919091179055565b6001600160a01b0381166000908152610109602052604081206005810154600682015460078301548493849390929091845b838110156118e8578460050181815481106118be576118be613a84565b9060005260206000200154886118d49190613ab0565b9750806118e081613ac3565b9150506118a1565b5060005b828110156119335784600601818154811061190957611909613a84565b90600052602060002001548761191f9190613ab0565b96508061192b81613ac3565b9150506118ec565b5060005b8181101561197e5784600701818154811061195457611954613a84565b90600052602060002001548661196a9190613ab0565b95508061197681613ac3565b915050611937565b50505050509193909250565b611992612f00565b6001600160a01b0381166119f75760405162461bcd60e51b815260206004820152602660248201527f4f776e61626c653a206e6577206f776e657220697320746865207a65726f206160448201526564647265737360d01b60648201526084016107a9565b61127b8161311f565b6001600160a01b03811660009081526101096020908152604080832060018101805483518186028101860190945280845260609594869486949390929091830182828015611a7757602002820191906000526020600020905b81546001600160a01b03168152600190910190602001808311611a59575b505050505094508451935080600201805480602002602001604051908101604052809291908181526020018280548015611ada57602002820191906000526020600020905b81546001600160a01b03168152600190910190602001808311611abc575b5050505050925082519150509193509193565b611b4e60405180610140016040528060006001600160a01b0316815260200160608152602001606081526020016000815260200160008152602001606081526020016060815260200160608152602001600015158152602001606081525090565b6001600160a01b038083166000908152610109602090815260409182902082516101408101845281549094168452600181018054845181850281018501909552808552919385840193909290830182828015611bd357602002820191906000526020600020905b81546001600160a01b03168152600190910190602001808311611bb5575b5050505050815260200160028201805480602002602001604051908101604052809291908181526020018280548015611c3557602002820191906000526020600020905b81546001600160a01b03168152600190910190602001808311611c17575b50505050508152602001600382015481526020016004820154815260200160058201805480602002602001604051908101604052809291908181526020018280548015611ca157602002820191906000526020600020905b815481526020019060010190808311611c8d575b5050505050815260200160068201805480602002602001604051908101604052809291908181526020018280548015611cf957602002820191906000526020600020905b815481526020019060010190808311611ce5575b5050505050815260200160078201805480602002602001604051908101604052809291908181526020018280548015611d5157602002820191906000526020600020905b815481526020019060010190808311611d3d575b5050509183525050600882015460ff1615156020808301919091526009830180546040805182850281018501825282815294019392830182828015611db557602002820191906000526020600020905b815481526020019060010190808311611da1575b5050505050815250509050919050565b60fd5460fc8054604080516020808402820181019092528281526060936000938493830182828015611e1657602002820191906000526020600020905b815481526020019060010190808311611e02575b505060fc549396506000925050505b818160ff161015611e705760fc8160ff1681548110611e4657611e46613a84565b906000526020600020015484611e5c9190613ab0565b935080611e6881613bb3565b915050611e25565b5050610100549394929391926001600160a01b03909216919050565b6001600160a01b03828116600090815261010960205260409020541615611f1f576040517f4164647265737320616c726561647920686176652072656665727265722e00008152601e016040518091039020816001600160a01b0316836001600160a01b03167f3a1a86984713a4f9021513989fe0334430012901d62639108f2a816c111a732f60405160405180910390a45b6001600160a01b0380831660008181526101096020908152604080832094861680845281842086546001600160a01b031990811683178855600180830180549182018155875294862090940180549094168617909355905191939290917ffaf63637882ff2d63ca76881cf92fb857130e36f350c926f9cc884b499b42b779190a350505050565b60fc54819060005b8181101561182a576001600160a01b0383161561182a576001600160a01b0383811660008181526101096020908152604080832060028101805460018101825590855292842090920180546001600160a01b0319168b87169081179091559051919490939089169290917fb766b19465b3277b0b275adf79d715cac93166bf6e6a39f26e4ccfdec76ad47e9190a4546001600160a01b031692508061205281613ac3565b915050611fae565b60fb5460fc8054604080516020808402820181019092528281526001600160a01b0390941693600093909290918301828280156120b657602002820191906000526020600020905b8154815260200190600101908083116120a2575b505050506001600160a01b038581166000908152610109602090815260408083208151610140810183528154909516855260018101805483518186028101860190945280845297985093969495509385830193919283018282801561214457602002820191906000526020600020905b81546001600160a01b03168152600190910190602001808311612126575b50505050508152602001600282018054806020026020016040519081016040528092919081815260200182805480156121a657602002820191906000526020600020905b81546001600160a01b03168152600190910190602001808311612188575b5050505050815260200160038201548152602001600482015481526020016005820180548060200260200160405190810160405280929190818152602001828054801561221257602002820191906000526020600020905b8154815260200190600101908083116121fe575b505050505081526020016006820180548060200260200160405190810160405280929190818152602001828054801561226a57602002820191906000526020600020905b815481526020019060010190808311612256575b50505050508152602001600782018054806020026020016040519081016040528092919081815260200182805480156122c257602002820191906000526020600020905b8154815260200190600101908083116122ae575b5050509183525050600882015460ff161515602080830191909152600983018054604080518285028101850182528281529401939283018282801561232657602002820191906000526020600020905b815481526020019060010190808311612312575b505050505081525050905060006101065467ffffffffffffffff81111561234f5761234f613732565b604051908082528060200260200182016040528015612378578160200160208202803683370190505b5090506000806101078054806020026020016040519081016040528092919081815260200182805480156123d557602002820191906000526020600020905b81546001600160a01b031681526001909101906020018083116123b7575b505050505090506000815190506000805b610106548110156129605786516001600160a01b03811660008181526101096020526040902090612418575050612960565b895183101561269f57600060648b858151811061243757612437613a84565b60200260200101518f61244a9190613bd2565b6124549190613bff565b90508d82600401600082825461246a9190613ab0565b90915550506005820180546001818101835560009283526020808420909201849055600985018054918201815583529120439101556124a98186613ab0565b94508b6001600160a01b031663b70cc4c16040518163ffffffff1660e01b8152600401602060405180830381865afa1580156124e9573d6000803e3d6000fd5b505050506040513d601f19601f8201168201806040525081019061250d9190613adc565b60405163a9059cbb60e01b81526001600160a01b03858116600483015260248201849052919091169063a9059cbb906044016020604051808303816000875af115801561255e573d6000803e3d6000fd5b505050506040513d601f19601f820116820180604052508101906125829190613af9565b50806001600160a01b03808516908f167f197a0a2b0fbff3fc4f7f4d32597585aa8415fcc4c5dd6634336ec65904529c836125be886001613ab0565b60408051918252602082018190526005908201526410539554d160da1b606082015260800160405180910390a4600882015460ff1661269d57612604836101035461059b565b1561269d576101028054600180820183556000929092527f93bdaa6a4190909b7c3fbe8d42169ffe1cab19f51dfc8db24c71abf849eced4a0180546001600160a01b0319166001600160a01b03861690811790915560088401805460ff19169092179091556040519081527facc63915cb028aeaee9996abc0f864fc0559a2f955750aa97d6ef9f51014acfb9060200160405180910390a15b505b6126ac826101055461059b565b156126ea57818888815181106126c4576126c4613a84565b6001600160a01b0390921660209283029190910190910152866126e681613ac3565b9750505b604080516101408101825282546001600160a01b03168152600183018054835160208281028201810190955281815292938593818601939092909183018282801561275e57602002820191906000526020600020905b81546001600160a01b03168152600190910190602001808311612740575b50505050508152602001600282018054806020026020016040519081016040528092919081815260200182805480156127c057602002820191906000526020600020905b81546001600160a01b031681526001909101906020018083116127a2575b5050505050815260200160038201548152602001600482015481526020016005820180548060200260200160405190810160405280929190818152602001828054801561282c57602002820191906000526020600020905b815481526020019060010190808311612818575b505050505081526020016006820180548060200260200160405190810160405280929190818152602001828054801561288457602002820191906000526020600020905b815481526020019060010190808311612870575b50505050508152602001600782018054806020026020016040519081016040528092919081815260200182805480156128dc57602002820191906000526020600020905b8154815260200190600101908083116128c8575b5050509183525050600882015460ff161515602080830191909152600983018054604080518285028101850182528281529401939283018282801561294057602002820191906000526020600020905b81548152602001906001019080831161292c575b50505050508152505098505050808061295890613ac3565b9150506123e6565b508315612b5d576000846064610104548d61297b9190613bd2565b6129859190613bff565b61298f9190613bff565b905060005b85811015612b5a57600061010960008984815181106129b5576129b5613a84565b60200260200101516001600160a01b03166001600160a01b0316815260200190815260200160002090508a6001600160a01b031663b70cc4c16040518163ffffffff1660e01b8152600401602060405180830381865afa158015612a1d573d6000803e3d6000fd5b505050506040513d601f19601f82011682018060405250810190612a419190613adc565b6001600160a01b031663a9059cbb898481518110612a6157612a61613a84565b6020026020010151856040518363ffffffff1660e01b8152600401612a9b9291906001600160a01b03929092168252602082015260400190565b6020604051808303816000875af1158015612aba573d6000803e3d6000fd5b505050506040513d601f19601f82011682018060405250810190612ade9190613af9565b50878281518110612af157612af1613a84565b60200260200101516001600160a01b0316837f62f12b06523c734cca73aa1502a5f967c8e09d0a2f084fd36acbac47f54b0d4e60405160405180910390a36007018054600181018255600091825260209091200182905580612b5281613ac3565b915050612994565b50505b6101025415612d3d5760006064610101548c612b799190613bd2565b612b839190613bff565b610102546040805142602082015244918101919091529192506000916060016040516020818303038152906040528051906020012060001c612bc59190613c13565b905060006101028281548110612bdd57612bdd613a84565b60009182526020808320909101546001600160a01b039081168084526101098352604093849020845163b70cc4c160e01b8152945191955093918f169263b70cc4c192600480820193918290030181865afa158015612c40573d6000803e3d6000fd5b505050506040513d601f19601f82011682018060405250810190612c649190613adc565b60405163a9059cbb60e01b81526001600160a01b03848116600483015260248201879052919091169063a9059cbb906044016020604051808303816000875af1158015612cb5573d6000803e3d6000fd5b505050506040513d601f19601f82011682018060405250810190612cd99190613af9565b50600681018054600181018255600091825260209182902001859055604080518681526001600160a01b038516928101929092527f51e673ac98f0ea063ce27eb5af807d22b97cd11cd79380cf1f711ad80948046c910160405180910390a1505050505b8115612edd576000826064610108548d612d579190613bd2565b612d619190613bff565b612d6b9190613bff565b905060005b83811015612eda57896001600160a01b031663b70cc4c16040518163ffffffff1660e01b8152600401602060405180830381865afa158015612db6573d6000803e3d6000fd5b505050506040513d601f19601f82011682018060405250810190612dda9190613adc565b6001600160a01b031663a9059cbb868381518110612dfa57612dfa613a84565b6020026020010151846040518363ffffffff1660e01b8152600401612e349291906001600160a01b03929092168252602082015260400190565b6020604051808303816000875af1158015612e53573d6000803e3d6000fd5b505050506040513d601f19601f82011682018060405250810190612e779190613af9565b50848181518110612e8a57612e8a613a84565b60200260200101516001600160a01b0316827f6d550262135215fe2f5ef9b6fad45db8cf51267248f8b95e069f8025f6f9049a60405160405180910390a380612ed281613ac3565b915050612d70565b50505b8060ff6000828254612eef9190613ab0565b909155505050505050505050505050565b6065546001600160a01b0316331461128e5760405162461bcd60e51b815260206004820181905260248201527f4f776e61626c653a2063616c6c6572206973206e6f7420746865206f776e657260448201526064016107a9565b61127b612f00565b7f4910fdfa16fed3260ed0e7147f7cc6da11a60208b5b9406d12a635614ffd91435460ff1615612f955761118683613233565b826001600160a01b03166352d1902d6040518163ffffffff1660e01b8152600401602060405180830381865afa925050508015612fef575060408051601f3d908101601f19168201909252612fec91810190613c27565b60015b6130525760405162461bcd60e51b815260206004820152602e60248201527f45524331393637557067726164653a206e657720696d706c656d656e7461746960448201526d6f6e206973206e6f74205555505360901b60648201526084016107a9565b600080516020613cff83398151915281146130c15760405162461bcd60e51b815260206004820152602960248201527f45524331393637557067726164653a20756e737570706f727465642070726f786044820152681a58589b195555525160ba1b60648201526084016107a9565b506111868383836132cf565b6130d56132f4565b6033805460ff191690557f5db9ee0a495bf2e6ff9c91a7834c1ba4fdd244a5e8aa4e537bd38aeae4b073aa335b6040516001600160a01b03909116815260200160405180910390a1565b606580546001600160a01b038381166001600160a01b0319831681179093556040519116919082907f8be0079c531659141344cd1fd0a4f28419497f9722a3daafe3b4186f6b6457e090600090a35050565b600054610100900460ff166131985760405162461bcd60e51b81526004016107a990613c40565b61128e61333d565b600054610100900460ff166131c75760405162461bcd60e51b81526004016107a990613c40565b61128e613370565b600054610100900460ff1661128e5760405162461bcd60e51b81526004016107a990613c40565b6131fe6133a0565b6033805460ff191660011790557f62e78cea01bee320cd4e420270b5ea74000d11b0c9f74754ebdbfc544b05a2586131023390565b6001600160a01b0381163b6132a05760405162461bcd60e51b815260206004820152602d60248201527f455243313936373a206e657720696d706c656d656e746174696f6e206973206e60448201526c1bdd08184818dbdb9d1c9858dd609a1b60648201526084016107a9565b600080516020613cff83398151915280546001600160a01b0319166001600160a01b0392909216919091179055565b6132d8836133e6565b6000825111806132e55750805b156111865761086c8383613426565b60335460ff1661128e5760405162461bcd60e51b815260206004820152601460248201527314185d5cd8589b194e881b9bdd081c185d5cd95960621b60448201526064016107a9565b600054610100900460ff166133645760405162461bcd60e51b81526004016107a990613c40565b6033805460ff19169055565b600054610100900460ff166133975760405162461bcd60e51b81526004016107a990613c40565b61128e3361311f565b60335460ff161561128e5760405162461bcd60e51b815260206004820152601060248201526f14185d5cd8589b194e881c185d5cd95960821b60448201526064016107a9565b6133ef81613233565b6040516001600160a01b038216907fbc7cd75a20ee27fd9adebab32041f755214dbc6bffa90cc0225b39da2e5c2d3b90600090a250565b60606001600160a01b0383163b61348e5760405162461bcd60e51b815260206004820152602660248201527f416464726573733a2064656c65676174652063616c6c20746f206e6f6e2d636f6044820152651b9d1c9858dd60d21b60648201526084016107a9565b600080846001600160a01b0316846040516134a99190613caf565b600060405180830381855af49150503d80600081146134e4576040519150601f19603f3d011682016040523d82523d6000602084013e6134e9565b606091505b50915091506135118282604051806060016040528060278152602001613d1f6027913961351a565b95945050505050565b60608315613529575081613533565b613533838361353a565b9392505050565b81511561354a5781518083602001fd5b8060405162461bcd60e51b81526004016107a99190613ccb565b82805482825590600052602060002090810192821561359f579160200282015b8281111561359f578235825591602001919060010190613584565b506135ab9291506135ef565b5090565b82805482825590600052602060002090810192821561359f579160200282015b8281111561359f578251829060ff169055916020019190600101906135cf565b5b808211156135ab57600081556001016135f0565b6001600160a01b038116811461127b57600080fd5b60006020828403121561362b57600080fd5b813561353381613604565b6000806040838503121561364957600080fd5b823561365481613604565b946020939093013593505050565b60008060006060848603121561367757600080fd5b83359250602084013561368981613604565b9150604084013561369981613604565b809150509250925092565b60008083601f8401126136b657600080fd5b50813567ffffffffffffffff8111156136ce57600080fd5b6020830191508360208260051b85010111156136e957600080fd5b9250929050565b6000806020838503121561370357600080fd5b823567ffffffffffffffff81111561371a57600080fd5b613726858286016136a4565b90969095509350505050565b634e487b7160e01b600052604160045260246000fd5b6000806040838503121561375b57600080fd5b823561376681613604565b9150602083013567ffffffffffffffff8082111561378357600080fd5b818501915085601f83011261379757600080fd5b8135818111156137a9576137a9613732565b604051601f8201601f19908116603f011681019083821181831017156137d1576137d1613732565b816040528281528860208487010111156137ea57600080fd5b8260208601602083013760006020848301015280955050505050509250929050565b600081518084526020808501945080840160005b8381101561383c57815187529582019590820190600101613820565b509495945050505050565b602081526000613533602083018461380c565b6000806000806040858703121561387057600080fd5b843567ffffffffffffffff8082111561388857600080fd5b613894888389016136a4565b909650945060208701359150808211156138ad57600080fd5b506138ba878288016136a4565b95989497509550505050565b6000602082840312156138d857600080fd5b5035919050565b600081518084526020808501945080840160005b8381101561383c5781516001600160a01b0316875295820195908201906001016138f3565b60808152600061392b60808301876138df565b856020840152828103604084015261394381866138df565b91505082606083015295945050505050565b6020815261396f6020820183516001600160a01b03169052565b6000602083015161014080604085015261398d6101608501836138df565b91506040850151601f19808685030160608701526139ab84836138df565b935060608701516080870152608087015160a087015260a08701519150808685030160c08701526139dc848361380c565b935060c08701519150808685030160e08701526139f9848361380c565b935060e08701519150610100818786030181880152613a18858461380c565b945080880151925050610120613a318188018415159052565b870151868503909101838701529050610693838261380c565b848152608060208201526000613a63608083018661380c565b6040830194909452506001600160a01b039190911660609091015292915050565b634e487b7160e01b600052603260045260246000fd5b634e487b7160e01b600052601160045260246000fd5b8082018082111561059557610595613a9a565b600060018201613ad557613ad5613a9a565b5060010190565b600060208284031215613aee57600080fd5b815161353381613604565b600060208284031215613b0b57600080fd5b8151801515811461353357600080fd5b6020808252602c908201527f46756e6374696f6e206d7573742062652063616c6c6564207468726f7567682060408201526b19195b1959d85d1958d85b1b60a21b606082015260800190565b6020808252602c908201527f46756e6374696f6e206d7573742062652063616c6c6564207468726f7567682060408201526b6163746976652070726f787960a01b606082015260800190565b600060ff821660ff8103613bc957613bc9613a9a565b60010192915050565b808202811582820484141761059557610595613a9a565b634e487b7160e01b600052601260045260246000fd5b600082613c0e57613c0e613be9565b500490565b600082613c2257613c22613be9565b500690565b600060208284031215613c3957600080fd5b5051919050565b6020808252602b908201527f496e697469616c697a61626c653a20636f6e7472616374206973206e6f74206960408201526a6e697469616c697a696e6760a81b606082015260800190565b60005b83811015613ca6578181015183820152602001613c8e565b50506000910152565b60008251613cc1818460208701613c8b565b9190910192915050565b6020815260008251806020840152613cea816040850160208701613c8b565b601f01601f1916919091016040019291505056fe360894a13ba1a3210667c828492db98dca3e2076cc3735a920a3ca505d382bbc416464726573733a206c6f772d6c6576656c2064656c65676174652063616c6c206661696c6564a26469706673582212207989fa6ed0ed9ea3a89b222508c3bc4ff828b5796efae9aadc17b3d60e6ac87864736f6c63430008110033",
  "linkReferences": {},
  "deployedLinkReferences": {}
}