{
  "_format": "hh-sol-artifact-1",
  "contractName": "ReferralUpgradeable",
  "sourceName": "contracts/ReferralUpgradeable.sol",
  "abi": [
    {
      "anonymous": false,
      "inputs": [
        {
          "indexed": false,
          "internalType": "address",
          "name": "previousAdmin",
          "type": "address"
        },
        {
          "indexed": false,
          "internalType": "address",
          "name": "newAdmin",
          "type": "address"
        }
      ],
      "name": "AdminChanged",
      "type": "event"
    },
    {
      "anonymous": false,
      "inputs": [
        {
          "indexed": true,
          "internalType": "address",
          "name": "beacon",
          "type": "address"
        }
      ],
      "name": "BeaconUpgraded",
      "type": "event"
    },
    {
      "anonymous": false,
      "inputs": [
        {
          "indexed": true,
          "internalType": "address",
          "name": "userAddressaddress",
          "type": "address"
        }
      ],
      "name": "CoreMemberAdded",
      "type": "event"
    },
    {
      "anonymous": false,
      "inputs": [
        {
          "indexed": false,
          "internalType": "address",
          "name": "userAddress",
          "type": "address"
        }
      ],
      "name": "CoreMemberRemoved",
      "type": "event"
    },
    {
      "anonymous": false,
      "inputs": [
        {
          "indexed": true,
          "internalType": "uint256",
          "name": "value",
          "type": "uint256"
        },
        {
          "indexed": true,
          "internalType": "address",
          "name": "userAddress",
          "type": "address"
        }
      ],
      "name": "CoreMemberRewardPaid",
      "type": "event"
    },
    {
      "anonymous": false,
      "inputs": [
        {
          "indexed": false,
          "internalType": "address",
          "name": "userAddress",
          "type": "address"
        }
      ],
      "name": "GlobalAddressAdded",
      "type": "event"
    },
    {
      "anonymous": false,
      "inputs": [
        {
          "indexed": false,
          "internalType": "address",
          "name": "userAddress",
          "type": "address"
        }
      ],
      "name": "GlobalAddressRemoved",
      "type": "event"
    },
    {
      "anonymous": false,
      "inputs": [
        {
          "indexed": false,
          "internalType": "uint256",
          "name": "value",
          "type": "uint256"
        },
        {
          "indexed": false,
          "internalType": "address",
          "name": "userAddress",
          "type": "address"
        }
      ],
      "name": "GlobalRewardPaid",
      "type": "event"
    },
    {
      "anonymous": false,
      "inputs": [
        {
          "indexed": false,
          "internalType": "uint8",
          "name": "version",
          "type": "uint8"
        }
      ],
      "name": "Initialized",
      "type": "event"
    },
    {
      "anonymous": false,
      "inputs": [
        {
          "indexed": true,
          "internalType": "address",
          "name": "previousOwner",
          "type": "address"
        },
        {
          "indexed": true,
          "internalType": "address",
          "name": "newOwner",
          "type": "address"
        }
      ],
      "name": "OwnershipTransferred",
      "type": "event"
    },
    {
      "anonymous": false,
      "inputs": [
        {
          "indexed": true,
          "internalType": "uint256",
          "name": "value",
          "type": "uint256"
        },
        {
          "indexed": true,
          "internalType": "address",
          "name": "userAddress",
          "type": "address"
        }
      ],
      "name": "PassiveRewardPaid",
      "type": "event"
    },
    {
      "anonymous": false,
      "inputs": [
        {
          "indexed": false,
          "internalType": "address",
          "name": "account",
          "type": "address"
        }
      ],
      "name": "Paused",
      "type": "event"
    },
    {
      "anonymous": false,
      "inputs": [
        {
          "indexed": true,
          "internalType": "address",
          "name": "referee",
          "type": "address"
        },
        {
          "indexed": true,
          "internalType": "address",
          "name": "referrer",
          "type": "address"
        },
        {
          "indexed": true,
          "internalType": "uint256",
          "name": "amount",
          "type": "uint256"
        },
        {
          "indexed": false,
          "internalType": "uint256",
          "name": "level",
          "type": "uint256"
        },
        {
          "indexed": false,
          "internalType": "string",
          "name": "currency",
          "type": "string"
        }
      ],
      "name": "ReferralRewardPaid",
      "type": "event"
    },
    {
      "anonymous": false,
      "inputs": [
        {
          "indexed": true,
          "internalType": "address",
          "name": "referee",
          "type": "address"
        },
        {
          "indexed": true,
          "internalType": "address",
          "name": "referrer",
          "type": "address"
        },
        {
          "indexed": true,
          "internalType": "string",
          "name": "reason",
          "type": "string"
        }
      ],
      "name": "RegisterRefererFailed",
      "type": "event"
    },
    {
      "anonymous": false,
      "inputs": [
        {
          "indexed": true,
          "internalType": "address",
          "name": "referee",
          "type": "address"
        },
        {
          "indexed": true,
          "internalType": "address",
          "name": "referrer",
          "type": "address"
        }
      ],
      "name": "RegisteredReferer",
      "type": "event"
    },
    {
      "anonymous": false,
      "inputs": [
        {
          "indexed": true,
          "internalType": "address",
          "name": "parent",
          "type": "address"
        },
        {
          "indexed": true,
          "internalType": "address",
          "name": "referrer",
          "type": "address"
        },
        {
          "indexed": true,
          "internalType": "address",
          "name": "referee",
          "type": "address"
        }
      ],
      "name": "RegisteredTeamAddress",
      "type": "event"
    },
    {
      "anonymous": false,
      "inputs": [
        {
          "indexed": false,
          "internalType": "address",
          "name": "userAddress",
          "type": "address"
        },
        {
          "indexed": false,
          "internalType": "uint8",
          "name": "rewardId",
          "type": "uint8"
        }
      ],
      "name": "RewardAccountAdded",
      "type": "event"
    },
    {
      "anonymous": false,
      "inputs": [
        {
          "indexed": false,
          "internalType": "address",
          "name": "userAddress",
          "type": "address"
        },
        {
          "indexed": false,
          "internalType": "uint8",
          "name": "rewardId",
          "type": "uint8"
        }
      ],
      "name": "RewardAccountPaid",
      "type": "event"
    },
    {
      "anonymous": false,
      "inputs": [
        {
          "indexed": false,
          "internalType": "uint8",
          "name": "id",
          "type": "uint8"
        },
        {
          "indexed": false,
          "internalType": "uint256",
          "name": "selfBusinessLimit",
          "type": "uint256"
        },
        {
          "indexed": false,
          "internalType": "uint256",
          "name": "directBusinessLimit",
          "type": "uint256"
        },
        {
          "indexed": false,
          "internalType": "uint256",
          "name": "teamBusinessLimit",
          "type": "uint256"
        },
        {
          "indexed": false,
          "internalType": "string",
          "name": "rankName",
          "type": "string"
        },
        {
          "indexed": false,
          "internalType": "string",
          "name": "rewardName",
          "type": "string"
        },
        {
          "indexed": false,
          "internalType": "uint256",
          "name": "appraisal",
          "type": "uint256"
        }
      ],
      "name": "RewardAdded",
      "type": "event"
    },
    {
      "anonymous": false,
      "inputs": [
        {
          "indexed": false,
          "internalType": "address",
          "name": "account",
          "type": "address"
        }
      ],
      "name": "Unpaused",
      "type": "event"
    },
    {
      "anonymous": false,
      "inputs": [
        {
          "indexed": true,
          "internalType": "address",
          "name": "implementation",
          "type": "address"
        }
      ],
      "name": "Upgraded",
      "type": "event"
    },
    {
      "inputs": [
        {
          "internalType": "address",
          "name": "",
          "type": "address"
        }
      ],
      "name": "addressToId",
      "outputs": [
        {
          "internalType": "uint16",
          "name": "",
          "type": "uint16"
        }
      ],
      "stateMutability": "view",
      "type": "function"
    },
    {
      "inputs": [],
      "name": "contractDefaults",
      "outputs": [
        {
          "internalType": "uint256",
          "name": "levelDecimals",
          "type": "uint256"
        },
        {
          "internalType": "uint256[]",
          "name": "levelRates",
          "type": "uint256[]"
        },
        {
          "internalType": "uint256",
          "name": "totalLevelRate",
          "type": "uint256"
        },
        {
          "internalType": "address",
          "name": "defaultReferrer",
          "type": "address"
        }
      ],
      "stateMutability": "view",
      "type": "function"
    },
    {
      "inputs": [
        {
          "internalType": "uint16",
          "name": "_from",
          "type": "uint16"
        },
        {
          "internalType": "uint16",
          "name": "_to",
          "type": "uint16"
        }
      ],
      "name": "deleteTotalBusiness",
      "outputs": [],
      "stateMutability": "nonpayable",
      "type": "function"
    },
    {
      "inputs": [],
      "name": "getGlobalRefereeLimit",
      "outputs": [
        {
          "internalType": "uint8",
          "name": "",
          "type": "uint8"
        }
      ],
      "stateMutability": "view",
      "type": "function"
    },
    {
      "inputs": [
        {
          "internalType": "uint8",
          "name": "_rewardId",
          "type": "uint8"
        },
        {
          "internalType": "uint16",
          "name": "_from",
          "type": "uint16"
        },
        {
          "internalType": "uint16",
          "name": "_to",
          "type": "uint16"
        }
      ],
      "name": "getRewardQualifiedUsers",
      "outputs": [
        {
          "internalType": "address[]",
          "name": "_userAddress",
          "type": "address[]"
        },
        {
          "internalType": "uint16",
          "name": "_achieversListCount",
          "type": "uint16"
        }
      ],
      "stateMutability": "view",
      "type": "function"
    },
    {
      "inputs": [],
      "name": "getSelfIncomePoolRefereeLimit",
      "outputs": [
        {
          "internalType": "uint8",
          "name": "",
          "type": "uint8"
        }
      ],
      "stateMutability": "view",
      "type": "function"
    },
    {
      "inputs": [
        {
          "internalType": "address",
          "name": "_userAddress",
          "type": "address"
        }
      ],
      "name": "getTeamBusinessToQualifyRewards",
      "outputs": [
        {
          "internalType": "uint256",
          "name": "mainBusiness",
          "type": "uint256"
        },
        {
          "internalType": "uint256",
          "name": "otherBusiness",
          "type": "uint256"
        }
      ],
      "stateMutability": "view",
      "type": "function"
    },
    {
      "inputs": [
        {
          "internalType": "address",
          "name": "_address",
          "type": "address"
        }
      ],
      "name": "getUserAccount",
      "outputs": [
        {
          "components": [
            {
              "internalType": "address",
              "name": "referrer",
              "type": "address"
            },
            {
              "internalType": "address[]",
              "name": "referee",
              "type": "address[]"
            },
            {
              "internalType": "address[]",
              "name": "team",
              "type": "address[]"
            },
            {
              "internalType": "uint256[]",
              "name": "topUp",
              "type": "uint256[]"
            },
            {
              "internalType": "uint256",
              "name": "selfBusiness",
              "type": "uint256"
            },
            {
              "internalType": "uint256",
              "name": "directBusiness",
              "type": "uint256"
            },
            {
              "internalType": "uint256",
              "name": "totalBusiness",
              "type": "uint256"
            },
            {
              "internalType": "uint256[]",
              "name": "rewardsPaidReferral",
              "type": "uint256[]"
            },
            {
              "internalType": "uint256[]",
              "name": "rewardsPaidGlobal",
              "type": "uint256[]"
            },
            {
              "internalType": "uint256[]",
              "name": "rewardPaidPassive",
              "type": "uint256[]"
            },
            {
              "internalType": "bool",
              "name": "isInGlobalID",
              "type": "bool"
            }
          ],
          "internalType": "struct ReferralUpgradeable.Account",
          "name": "userAccount",
          "type": "tuple"
        }
      ],
      "stateMutability": "view",
      "type": "function"
    },
    {
      "inputs": [
        {
          "internalType": "address",
          "name": "_address",
          "type": "address"
        }
      ],
      "name": "getUserReferrerAddress",
      "outputs": [
        {
          "internalType": "address",
          "name": "referrer",
          "type": "address"
        }
      ],
      "stateMutability": "view",
      "type": "function"
    },
    {
      "inputs": [
        {
          "internalType": "address",
          "name": "_userAddress",
          "type": "address"
        }
      ],
      "name": "getUserRewardAccount",
      "outputs": [
        {
          "components": [
            {
              "internalType": "address",
              "name": "userAdddress",
              "type": "address"
            },
            {
              "internalType": "uint8[]",
              "name": "rewardId",
              "type": "uint8[]"
            },
            {
              "internalType": "uint8",
              "name": "lastRewardId",
              "type": "uint8"
            }
          ],
          "internalType": "struct ReferralUpgradeable.RewardsAccount",
          "name": "",
          "type": "tuple"
        }
      ],
      "stateMutability": "view",
      "type": "function"
    },
    {
      "inputs": [
        {
          "internalType": "address",
          "name": "_userAddress",
          "type": "address"
        }
      ],
      "name": "getUserRewardQualified",
      "outputs": [
        {
          "internalType": "uint8",
          "name": "rewardId",
          "type": "uint8"
        }
      ],
      "stateMutability": "view",
      "type": "function"
    },
    {
      "inputs": [
        {
          "internalType": "address",
          "name": "_address",
          "type": "address"
        }
      ],
      "name": "getUserTeam",
      "outputs": [
        {
          "internalType": "address[]",
          "name": "userReferee",
          "type": "address[]"
        },
        {
          "internalType": "uint256",
          "name": "userRefereeCount",
          "type": "uint256"
        },
        {
          "internalType": "address[]",
          "name": "userTeamAddress",
          "type": "address[]"
        },
        {
          "internalType": "uint256",
          "name": "userTeamCount",
          "type": "uint256"
        }
      ],
      "stateMutability": "view",
      "type": "function"
    },
    {
      "inputs": [
        {
          "internalType": "address",
          "name": "_userAddress",
          "type": "address"
        }
      ],
      "name": "getUserTopUpForRewards",
      "outputs": [
        {
          "internalType": "uint256",
          "name": "",
          "type": "uint256"
        }
      ],
      "stateMutability": "view",
      "type": "function"
    },
    {
      "inputs": [
        {
          "internalType": "address",
          "name": "_address",
          "type": "address"
        }
      ],
      "name": "getUserTotalBusiness",
      "outputs": [
        {
          "internalType": "uint256",
          "name": "selfBusiness",
          "type": "uint256"
        },
        {
          "internalType": "uint256",
          "name": "directBusiness",
          "type": "uint256"
        },
        {
          "internalType": "uint256",
          "name": "refereeTeamBusiness",
          "type": "uint256"
        },
        {
          "internalType": "uint256",
          "name": "totalBusiness",
          "type": "uint256"
        }
      ],
      "stateMutability": "view",
      "type": "function"
    },
    {
      "inputs": [
        {
          "internalType": "address",
          "name": "_address",
          "type": "address"
        }
      ],
      "name": "getUserTotalRewardPaid",
      "outputs": [
        {
          "internalType": "uint256",
          "name": "rewardsAUSD",
          "type": "uint256"
        },
        {
          "internalType": "uint256",
          "name": "rewardsGlobal",
          "type": "uint256"
        },
        {
          "internalType": "uint256",
          "name": "rewardsPassive",
          "type": "uint256"
        }
      ],
      "stateMutability": "view",
      "type": "function"
    },
    {
      "inputs": [],
      "name": "getVariablesContract",
      "outputs": [
        {
          "internalType": "address",
          "name": "",
          "type": "address"
        }
      ],
      "stateMutability": "view",
      "type": "function"
    },
    {
      "inputs": [
        {
          "internalType": "address",
          "name": "_address",
          "type": "address"
        }
      ],
      "name": "hasReferrer",
      "outputs": [
        {
          "internalType": "bool",
          "name": "",
          "type": "bool"
        }
      ],
      "stateMutability": "view",
      "type": "function"
    },
    {
      "inputs": [
        {
          "internalType": "uint16",
          "name": "",
          "type": "uint16"
        }
      ],
      "name": "idToAddress",
      "outputs": [
        {
          "internalType": "address",
          "name": "",
          "type": "address"
        }
      ],
      "stateMutability": "view",
      "type": "function"
    },
    {
      "inputs": [
        {
          "internalType": "address[]",
          "name": "_userAddress",
          "type": "address[]"
        }
      ],
      "name": "includeUsersInList",
      "outputs": [],
      "stateMutability": "nonpayable",
      "type": "function"
    },
    {
      "inputs": [],
      "name": "initialize",
      "outputs": [],
      "stateMutability": "nonpayable",
      "type": "function"
    },
    {
      "inputs": [],
      "name": "owner",
      "outputs": [
        {
          "internalType": "address",
          "name": "",
          "type": "address"
        }
      ],
      "stateMutability": "view",
      "type": "function"
    },
    {
      "inputs": [],
      "name": "paused",
      "outputs": [
        {
          "internalType": "bool",
          "name": "",
          "type": "bool"
        }
      ],
      "stateMutability": "view",
      "type": "function"
    },
    {
      "inputs": [
        {
          "internalType": "uint256",
          "name": "_valueInUSD",
          "type": "uint256"
        },
        {
          "internalType": "address",
          "name": "_userAddress",
          "type": "address"
        },
        {
          "internalType": "address",
          "name": "_referrerAddress",
          "type": "address"
        }
      ],
      "name": "payReferralANUSDAdmin",
      "outputs": [],
      "stateMutability": "nonpayable",
      "type": "function"
    },
    {
      "inputs": [],
      "name": "proxiableUUID",
      "outputs": [
        {
          "internalType": "bytes32",
          "name": "",
          "type": "bytes32"
        }
      ],
      "stateMutability": "view",
      "type": "function"
    },
    {
      "inputs": [],
      "name": "renounceOwnership",
      "outputs": [],
      "stateMutability": "nonpayable",
      "type": "function"
    },
    {
      "inputs": [
        {
          "internalType": "address",
          "name": "",
          "type": "address"
        }
      ],
      "name": "rewardAccount",
      "outputs": [
        {
          "internalType": "address",
          "name": "userAdddress",
          "type": "address"
        },
        {
          "internalType": "uint8",
          "name": "lastRewardId",
          "type": "uint8"
        }
      ],
      "stateMutability": "view",
      "type": "function"
    },
    {
      "inputs": [
        {
          "internalType": "uint8",
          "name": "",
          "type": "uint8"
        }
      ],
      "name": "rewards",
      "outputs": [
        {
          "internalType": "uint8",
          "name": "id",
          "type": "uint8"
        },
        {
          "internalType": "uint256",
          "name": "selfBusinessLimit",
          "type": "uint256"
        },
        {
          "internalType": "uint256",
          "name": "directBusinessLimit",
          "type": "uint256"
        },
        {
          "internalType": "uint256",
          "name": "teamBusinessLimit",
          "type": "uint256"
        },
        {
          "internalType": "string",
          "name": "rankName",
          "type": "string"
        },
        {
          "internalType": "string",
          "name": "rewardName",
          "type": "string"
        },
        {
          "internalType": "uint256",
          "name": "appraisal",
          "type": "uint256"
        }
      ],
      "stateMutability": "view",
      "type": "function"
    },
    {
      "inputs": [
        {
          "internalType": "uint256",
          "name": "_directBusiness",
          "type": "uint256"
        },
        {
          "internalType": "uint256",
          "name": "_teamBusiness",
          "type": "uint256"
        }
      ],
      "name": "setGlobalPushCondition",
      "outputs": [],
      "stateMutability": "nonpayable",
      "type": "function"
    },
    {
      "inputs": [
        {
          "internalType": "uint8[]",
          "name": "_id",
          "type": "uint8[]"
        },
        {
          "internalType": "uint256[]",
          "name": "_selfBusinessLimit",
          "type": "uint256[]"
        },
        {
          "internalType": "uint256[]",
          "name": "_directBusinessLimit",
          "type": "uint256[]"
        },
        {
          "internalType": "uint256[]",
          "name": "_teamBusinessLimit",
          "type": "uint256[]"
        },
        {
          "internalType": "string[]",
          "name": "_rankName",
          "type": "string[]"
        },
        {
          "internalType": "string[]",
          "name": "_rewardName",
          "type": "string[]"
        },
        {
          "internalType": "uint256[]",
          "name": "_appraisal",
          "type": "uint256[]"
        }
      ],
      "name": "setRewards",
      "outputs": [],
      "stateMutability": "nonpayable",
      "type": "function"
    },
    {
      "inputs": [
        {
          "internalType": "address",
          "name": "_userAddress",
          "type": "address"
        },
        {
          "internalType": "uint256",
          "name": "_valueInWei",
          "type": "uint256"
        }
      ],
      "name": "setUserTotalBusiness",
      "outputs": [],
      "stateMutability": "nonpayable",
      "type": "function"
    },
    {
      "inputs": [],
      "name": "totalUsers",
      "outputs": [
        {
          "internalType": "uint16",
          "name": "",
          "type": "uint16"
        }
      ],
      "stateMutability": "view",
      "type": "function"
    },
    {
      "inputs": [
        {
          "internalType": "address",
          "name": "_address",
          "type": "address"
        },
        {
          "internalType": "uint256",
          "name": "_value",
          "type": "uint256"
        }
      ],
      "name": "transferNative",
      "outputs": [],
      "stateMutability": "nonpayable",
      "type": "function"
    },
    {
      "inputs": [
        {
          "internalType": "address",
          "name": "newOwner",
          "type": "address"
        }
      ],
      "name": "transferOwnership",
      "outputs": [],
      "stateMutability": "nonpayable",
      "type": "function"
    },
    {
      "inputs": [
        {
          "internalType": "address",
          "name": "_userAddress",
          "type": "address"
        },
        {
          "internalType": "uint8",
          "name": "_rewardId",
          "type": "uint8"
        }
      ],
      "name": "updateIfRewardPaidAdmin",
      "outputs": [],
      "stateMutability": "nonpayable",
      "type": "function"
    },
    {
      "inputs": [
        {
          "internalType": "uint16",
          "name": "_from",
          "type": "uint16"
        },
        {
          "internalType": "uint16",
          "name": "_to",
          "type": "uint16"
        }
      ],
      "name": "updateTotalBusiness",
      "outputs": [],
      "stateMutability": "nonpayable",
      "type": "function"
    },
    {
      "inputs": [
        {
          "internalType": "address",
          "name": "newImplementation",
          "type": "address"
        }
      ],
      "name": "upgradeTo",
      "outputs": [],
      "stateMutability": "nonpayable",
      "type": "function"
    },
    {
      "inputs": [
        {
          "internalType": "address",
          "name": "newImplementation",
          "type": "address"
        },
        {
          "internalType": "bytes",
          "name": "data",
          "type": "bytes"
        }
      ],
      "name": "upgradeToAndCall",
      "outputs": [],
      "stateMutability": "payable",
      "type": "function"
    },
    {
      "inputs": [
        {
          "internalType": "uint256",
          "name": "",
          "type": "uint256"
        }
      ],
      "name": "usersList",
      "outputs": [
        {
          "internalType": "address",
          "name": "",
          "type": "address"
        }
      ],
      "stateMutability": "view",
      "type": "function"
    },
    {
      "inputs": [
        {
          "internalType": "address",
          "name": "_tokenAddress",
          "type": "address"
        },
        {
          "internalType": "address",
          "name": "_userAddress",
          "type": "address"
        },
        {
          "internalType": "uint256",
          "name": "_value",
          "type": "uint256"
        }
      ],
      "name": "withdrawtokens",
      "outputs": [],
      "stateMutability": "nonpayable",
      "type": "function"
    },
    {
      "stateMutability": "payable",
      "type": "receive"
    }
  ],
  "bytecode": "0x60a06040523060805234801561001457600080fd5b50608051615ab66200004d600039600081816117c301528181611803015281816118a2015281816118e201526119a00152615ab66000f3fe6080604052600436106102345760003560e01c8063771aa2161161012e578063cb0e0d7d116100ab578063f13a143f1161006f578063f13a143f146107a7578063f2fde38b146107c5578063faeda7e5146107e5578063fb47e01614610815578063fb5d45261461084257600080fd5b8063cb0e0d7d146106cc578063ccef5587146106fe578063dd1ca7161461071e578063e5ffb5df1461074c578063ef519dc01461076c57600080fd5b80638da5cb5b116100f25780638da5cb5b146105f757806391b493e4146106155780639b317cc414610635578063a0760aff14610668578063bff1f9e11461069d57600080fd5b8063771aa216146105555780637d2e90c2146105755780638129fc1c1461059557806386f6630d146105aa5780638a93f7b9146105d757600080fd5b806335166fef116101bc57806352d1902d1161018057806352d1902d146104d45780635c975abb146104e9578063715018a61461050157806371e13ead1461051657806373a3ec851461053557600080fd5b806335166fef146104275780633659cfe61461044757806343b4ebf4146104675780634f1ef286146104a1578063502aa3b5146104b457600080fd5b80631a4442cd116102035780631a4442cd14610314578063228159b4146103345780632405091c1461035457806325f1c91e146103945780632bb5112d146103c257600080fd5b8063025313ff146102405780630898adc7146102945780630a783ea5146102b657806318452cd8146102e457600080fd5b3661023b57005b600080fd5b34801561024c57600080fd5b5061027761025b366004614bdd565b61010c602052600090815260409020546001600160a01b031681565b6040516001600160a01b0390911681526020015b60405180910390f35b3480156102a057600080fd5b506102b46102af366004614c0d565b610867565b005b3480156102c257600080fd5b5061010f546301000000900460ff165b60405160ff909116815260200161028b565b3480156102f057600080fd5b506103046102ff366004614c4e565b6108e8565b604051901515815260200161028b565b34801561032057600080fd5b506102b461032f366004614c6b565b61090f565b34801561034057600080fd5b506102b461034f366004614c9e565b6109cb565b34801561036057600080fd5b5061037461036f366004614c4e565b610c12565b60408051948552602085019390935291830152606082015260800161028b565b3480156103a057600080fd5b506103b46103af366004614c4e565b611201565b60405190815260200161028b565b3480156103ce57600080fd5b506104066103dd366004614c4e565b61010a60205260009081526040902080546002909101546001600160a01b039091169060ff1682565b604080516001600160a01b03909316835260ff90911660208301520161028b565b34801561043357600080fd5b506102b4610442366004614f16565b611498565b34801561045357600080fd5b506102b4610462366004614c4e565b6117b9565b34801561047357600080fd5b50610277610482366004614c4e565b6001600160a01b03908116600090815261010960205260409020541690565b6102b46104af366004615031565b611898565b3480156104c057600080fd5b506102776104cf366004615095565b611968565b3480156104e057600080fd5b506103b4611993565b3480156104f557600080fd5b5060335460ff16610304565b34801561050d57600080fd5b506102b4611a46565b34801561052257600080fd5b5061010f5462010000900460ff166102d2565b34801561054157600080fd5b506102b4610550366004614c6b565b611a5a565b34801561056157600080fd5b506102b46105703660046150ae565b611ab8565b34801561058157600080fd5b506102b46105903660046150da565b611bbc565b3480156105a157600080fd5b506102b4611bfa565b3480156105b657600080fd5b506105ca6105c5366004614c4e565b611de0565b60405161028b9190615106565b3480156105e357600080fd5b506102b46105f236600461517b565b611ec6565b34801561060357600080fd5b506065546001600160a01b0316610277565b34801561062157600080fd5b506102b46106303660046151f0565b611f9a565b34801561064157600080fd5b50610655610650366004615212565b61202f565b60405161028b979695949392919061527d565b34801561067457600080fd5b50610688610683366004614c4e565b612181565b6040805192835260208301919091520161028b565b3480156106a957600080fd5b5061010f546106b99061ffff1681565b60405161ffff909116815260200161028b565b3480156106d857600080fd5b506106b96106e7366004614c4e565b61010d6020526000908152604090205461ffff1681565b34801561070a57600080fd5b506102b46107193660046150da565b612727565b34801561072a57600080fd5b5061073e6107393660046152d2565b61274f565b60405161028b929190615359565b34801561075857600080fd5b506102d2610767366004614c4e565b61282d565b34801561077857600080fd5b5061078c610787366004614c4e565b612cbc565b6040805193845260208401929092529082015260600161028b565b3480156107b357600080fd5b5060fb546001600160a01b0316610277565b3480156107d157600080fd5b506102b46107e0366004614c4e565b612dd7565b3480156107f157600080fd5b50610805610800366004614c4e565b612e4d565b60405161028b949392919061537f565b34801561082157600080fd5b50610835610830366004614c4e565b612f3a565b60405161028b91906153ec565b34801561084e57600080fd5b50610857613227565b60405161028b94939291906154fb565b61086f6132ee565b60405163a9059cbb60e01b81526001600160a01b0383811660048301526024820183905284169063a9059cbb906044016020604051808303816000875af11580156108be573d6000803e3d6000fd5b505050506040513d601f19601f820116820180604052508101906108e29190615535565b50505050565b6001600160a01b038082166000908152610109602052604081205490911615155b92915050565b6109176132ee565b61010654825b8261ffff168161ffff1610156108e25761ffff8116600090815261010c60209081526040808320546001600160a01b031683526101099091528120905b838110156109b85781546001600160a01b03166000818152610109602052604090209061098757506109b8565b826004015481600601600082825461099f919061556d565b909155509092506109b1905081615580565b905061095a565b5050806109c490615599565b905061091d565b60fb5433906001600160a01b03166109eb6065546001600160a01b031690565b6001600160a01b0316826001600160a01b03161480610a91575060fb60009054906101000a90046001600160a01b03166001600160a01b03166363d9df856040518163ffffffff1660e01b8152600401602060405180830381865afa158015610a58573d6000803e3d6000fd5b505050506040513d601f19601f82011682018060405250810190610a7c91906155ba565b6001600160a01b0316826001600160a01b0316145b610aed5760405162461bcd60e51b815260206004820152602260248201527f4f6e6c79206f776e65722063616e2063616c6c20746869732066756e6374696f604482015261371760f11b60648201526084015b60405180910390fd5b6001600160a01b038481166000908152610109602052604090205416158015610b1e57506001600160a01b03831615155b15610b2d57610b2d8484613348565b6001600160a01b038381166000908152610109602052604090205416158015610b5e57506001600160a01b03831615155b8015610b795750610100546001600160a01b03848116911614155b15610b965761010054610b969084906001600160a01b0316613348565b610c028585836001600160a01b031663611509236040518163ffffffff1660e01b8152600401602060405180830381865afa158015610bd9573d6000803e3d6000fd5b505050506040513d601f19601f82011682018060405250810190610bfd91906155ba565b613490565b610c0b84613c51565b5050505050565b6001600160a01b0381166000908152610109602052604081206001810154600482015492918291829190825b81811015610f155760006101096000856001018481548110610c6257610c626155d7565b60009182526020808320909101546001600160a01b03908116845283820194909452604092830190912082516101608101845281549094168452600181018054845181850281018501909552808552919385840193909290830182828015610cf357602002820191906000526020600020905b81546001600160a01b03168152600190910190602001808311610cd5575b5050505050815260200160028201805480602002602001604051908101604052809291908181526020018280548015610d5557602002820191906000526020600020905b81546001600160a01b03168152600190910190602001808311610d37575b5050505050815260200160038201805480602002602001604051908101604052809291908181526020018280548015610dad57602002820191906000526020600020905b815481526020019060010190808311610d99575b5050505050815260200160048201548152602001600582015481526020016006820154815260200160078201805480602002602001604051908101604052809291908181526020018280548015610e2357602002820191906000526020600020905b815481526020019060010190808311610e0f575b5050505050815260200160088201805480602002602001604051908101604052809291908181526020018280548015610e7b57602002820191906000526020600020905b815481526020019060010190808311610e67575b5050505050815260200160098201805480602002602001604051908101604052809291908181526020018280548015610ed357602002820191906000526020600020905b815481526020019060010190808311610ebf575b5050509183525050600a919091015460ff1615156020909101526080810151909150610eff908861556d565b9650508080610f0d90615580565b915050610c3e565b5060005b818110156111f05760006101096000856001018481548110610f3d57610f3d6155d7565b60009182526020808320909101546001600160a01b03908116845283820194909452604092830190912082516101608101845281549094168452600181018054845181850281018501909552808552919385840193909290830182828015610fce57602002820191906000526020600020905b81546001600160a01b03168152600190910190602001808311610fb0575b505050505081526020016002820180548060200260200160405190810160405280929190818152602001828054801561103057602002820191906000526020600020905b81546001600160a01b03168152600190910190602001808311611012575b505050505081526020016003820180548060200260200160405190810160405280929190818152602001828054801561108857602002820191906000526020600020905b815481526020019060010190808311611074575b50505050508152602001600482015481526020016005820154815260200160068201548152602001600782018054806020026020016040519081016040528092919081815260200182805480156110fe57602002820191906000526020600020905b8154815260200190600101908083116110ea575b505050505081526020016008820180548060200260200160405190810160405280929190818152602001828054801561115657602002820191906000526020600020905b815481526020019060010190808311611142575b50505050508152602001600982018054806020026020016040519081016040528092919081815260200182805480156111ae57602002820191906000526020600020905b81548152602001906001019080831161119a575b5050509183525050600a919091015460ff16151560209091015260c08101519091506111da908761556d565b95505080806111e890615580565b915050610f19565b508160060154925050509193509193565b6001600160a01b03808216600090815261010960209081526040808320815161016081018352815490951685526001810180548351818602810186019094528084529495869590949293858401939092919083018282801561128c57602002820191906000526020600020905b81546001600160a01b0316815260019091019060200180831161126e575b50505050508152602001600282018054806020026020016040519081016040528092919081815260200182805480156112ee57602002820191906000526020600020905b81546001600160a01b031681526001909101906020018083116112d0575b505050505081526020016003820180548060200260200160405190810160405280929190818152602001828054801561134657602002820191906000526020600020905b815481526020019060010190808311611332575b50505050508152602001600482015481526020016005820154815260200160068201548152602001600782018054806020026020016040519081016040528092919081815260200182805480156113bc57602002820191906000526020600020905b8154815260200190600101908083116113a8575b505050505081526020016008820180548060200260200160405190810160405280929190818152602001828054801561141457602002820191906000526020600020905b815481526020019060010190808311611400575b505050505081526020016009820180548060200260200160405190810160405280929190818152602001828054801561146c57602002820191906000526020600020905b815481526020019060010190808311611458575b5050509183525050600a919091015460ff161515602090910152905061149181613d48565b9392505050565b60fb54604051630935e01b60e21b81523360048201526001600160a01b03909116906324d7806c90602401602060405180830381865afa1580156114e0573d6000803e3d6000fd5b505050506040513d601f19601f820116820180604052508101906115049190615535565b6115205760405162461bcd60e51b8152600401610ae4906155ed565b60005b87518110156117af576040518060e00160405280898381518110611549576115496155d7565b602002602001015160ff16815260200188838151811061156b5761156b6155d7565b6020026020010151815260200187838151811061158a5761158a6155d7565b602002602001015181526020018683815181106115a9576115a96155d7565b602002602001015181526020018583815181106115c8576115c86155d7565b602002602001015181526020018483815181106115e7576115e76155d7565b60200260200101518152602001838381518110611606576116066155d7565b602002602001015181525061010b60008a8481518110611628576116286155d7565b60209081029190910181015160ff90811683528282019390935260409182016000208451815460ff19169416939093178355830151600183015582015160028201556060820151600382015560808201516004820190611688908261569a565b5060a0820151600582019061169d908261569a565b5060c082015181600601559050507fb9f30bf0ab6748f3fcfbc9d280ed1feedea51276343f55f8342b8c453b876e9a8882815181106116de576116de6155d7565b60200260200101518883815181106116f8576116f86155d7565b6020026020010151888481518110611712576117126155d7565b602002602001015188858151811061172c5761172c6155d7565b6020026020010151888681518110611746576117466155d7565b6020026020010151888781518110611760576117606155d7565b602002602001015188888151811061177a5761177a6155d7565b6020026020010151604051611795979695949392919061527d565b60405180910390a1806117a781615580565b915050611523565b5050505050505050565b6001600160a01b037f00000000000000000000000000000000000000000000000000000000000000001630036118015760405162461bcd60e51b8152600401610ae49061575a565b7f00000000000000000000000000000000000000000000000000000000000000006001600160a01b031661184a600080516020615a3a833981519152546001600160a01b031690565b6001600160a01b0316146118705760405162461bcd60e51b8152600401610ae4906157a6565b61187981613db2565b6040805160008082526020820190925261189591839190613dba565b50565b6001600160a01b037f00000000000000000000000000000000000000000000000000000000000000001630036118e05760405162461bcd60e51b8152600401610ae49061575a565b7f00000000000000000000000000000000000000000000000000000000000000006001600160a01b0316611929600080516020615a3a833981519152546001600160a01b031690565b6001600160a01b03161461194f5760405162461bcd60e51b8152600401610ae4906157a6565b61195882613db2565b61196482826001613dba565b5050565b61010e818154811061197957600080fd5b6000918252602090912001546001600160a01b0316905081565b6000306001600160a01b037f00000000000000000000000000000000000000000000000000000000000000001614611a335760405162461bcd60e51b815260206004820152603860248201527f555550535570677261646561626c653a206d757374206e6f742062652063616c60448201527f6c6564207468726f7567682064656c656761746563616c6c00000000000000006064820152608401610ae4565b50600080516020615a3a83398151915290565b611a4e6132ee565b611a586000613f25565b565b611a626132ee565b815b8161ffff168161ffff161015611ab35761ffff8116600090815261010c60209081526040808320546001600160a01b03168352610109909152812060060155611aac81615599565b9050611a64565b505050565b60fb54604051630935e01b60e21b81523360048201526001600160a01b03909116906324d7806c90602401602060405180830381865afa158015611b00573d6000803e3d6000fd5b505050506040513d601f19601f82011682018060405250810190611b249190615535565b611b405760405162461bcd60e51b8152600401610ae4906155ed565b6001600160a01b03808316600090815261010a602052604090208054909116611b7d5780546001600160a01b0319166001600160a01b0384161781555b600190810180549182018155600090815260209081902090820401805460ff938416601f9093166101000a928302939092021990911691909117905550565b611bc46132ee565b6040516001600160a01b0383169082156108fc029083906000818181858888f19350505050158015611ab3573d6000803e3d6000fd5b600054610100900460ff1615808015611c1a5750600054600160ff909116105b80611c345750303b158015611c34575060005460ff166001145b611c975760405162461bcd60e51b815260206004820152602e60248201527f496e697469616c697a61626c653a20636f6e747261637420697320616c72656160448201526d191e481a5b9a5d1a585b1a5e995960921b6064820152608401610ae4565b6000805460ff191660011790558015611cba576000805461ff0019166101001790555b60fb80546001600160a01b03199081167377daafc7411c911b869c71bf70fe36cce507845d17909155610100805490911673f3ba579d4afd4dad8a8c2d1bcbdd1405688e492f1790556040805160e0810182526007808252600460208301526003928201929092526002606082015260016080820181905260a0820181905260c0820152611d4b9160fc9190614b66565b50606460fd5560146101065569011478b7c30abc3000006101035560046101015560056101045568a80d24677efef0000061010555611d88613f77565b611d90613fa6565b611d98613fd5565b8015611895576000805461ff0019169055604051600181527f7f26b83ff96e1f2b6a682f133852f6798a09c465da95921460cefb38474024989060200160405180910390a150565b611e10604051806060016040528060006001600160a01b0316815260200160608152602001600060ff1681525090565b6001600160a01b03808316600090815261010a6020908152604091829020825160608101845281549094168452600181018054845181850281018501909552808552919385840193909290830182828015611ea857602002820191906000526020600020906000905b825461010083900a900460ff16815260206001928301818104948501949093039092029101808411611e795790505b50505091835250506002919091015460ff1660209091015292915050565b60fb54604051630935e01b60e21b81523360048201526001600160a01b03909116906324d7806c90602401602060405180830381865afa158015611f0e573d6000803e3d6000fd5b505050506040513d601f19601f82011682018060405250810190611f329190615535565b611f4e5760405162461bcd60e51b8152600401610ae4906155ed565b60005b81811015611ab357611f88838383818110611f6e57611f6e6155d7565b9050602002016020810190611f839190614c4e565b613c51565b80611f9281615580565b915050611f51565b60fb54604051630935e01b60e21b81523360048201526001600160a01b03909116906324d7806c90602401602060405180830381865afa158015611fe2573d6000803e3d6000fd5b505050506040513d601f19601f820116820180604052508101906120069190615535565b6120225760405162461bcd60e51b8152600401610ae4906155ed565b6101039190915561011055565b61010b602052600090815260409020805460018201546002830154600384015460048501805460ff9095169593949293919261206a90615618565b80601f016020809104026020016040519081016040528092919081815260200182805461209690615618565b80156120e35780601f106120b8576101008083540402835291602001916120e3565b820191906000526020600020905b8154815290600101906020018083116120c657829003601f168201915b5050505050908060050180546120f890615618565b80601f016020809104026020016040519081016040528092919081815260200182805461212490615618565b80156121715780601f1061214657610100808354040283529160200191612171565b820191906000526020600020905b81548152906001019060200180831161215457829003601f168201915b5050505050908060060154905087565b6001600160a01b0380821660009081526101096020908152604080832081516101608101835281549095168552600181018054835181860281018601909452808452949586958695919485830193909290919083018282801561220d57602002820191906000526020600020905b81546001600160a01b031681526001909101906020018083116121ef575b505050505081526020016002820180548060200260200160405190810160405280929190818152602001828054801561226f57602002820191906000526020600020905b81546001600160a01b03168152600190910190602001808311612251575b50505050508152602001600382018054806020026020016040519081016040528092919081815260200182805480156122c757602002820191906000526020600020905b8154815260200190600101908083116122b3575b505050505081526020016004820154815260200160058201548152602001600682015481526020016007820180548060200260200160405190810160405280929190818152602001828054801561233d57602002820191906000526020600020905b815481526020019060010190808311612329575b505050505081526020016008820180548060200260200160405190810160405280929190818152602001828054801561239557602002820191906000526020600020905b815481526020019060010190808311612381575b50505050508152602001600982018054806020026020016040519081016040528092919081815260200182805480156123ed57602002820191906000526020600020905b8154815260200190600101908083116123d9575b5050509183525050600a919091015460ff161515602091820152810151519091506000906002116127205760005b8260200151518161ffff161015612712576000610109600085602001518461ffff168151811061244d5761244d6155d7565b6020908102919091018101516001600160a01b039081168352828201939093526040918201600020825161016081018452815490941684526001810180548451818502810185019095528085529193858401939092908301828280156124dc57602002820191906000526020600020905b81546001600160a01b031681526001909101906020018083116124be575b505050505081526020016002820180548060200260200160405190810160405280929190818152602001828054801561253e57602002820191906000526020600020905b81546001600160a01b03168152600190910190602001808311612520575b505050505081526020016003820180548060200260200160405190810160405280929190818152602001828054801561259657602002820191906000526020600020905b815481526020019060010190808311612582575b505050505081526020016004820154815260200160058201548152602001600682015481526020016007820180548060200260200160405190810160405280929190818152602001828054801561260c57602002820191906000526020600020905b8154815260200190600101908083116125f8575b505050505081526020016008820180548060200260200160405190810160405280929190818152602001828054801561266457602002820191906000526020600020905b815481526020019060010190808311612650575b50505050508152602001600982018054806020026020016040519081016040528092919081815260200182805480156126bc57602002820191906000526020600020905b8154815260200190600101908083116126a8575b5050509183525050600a919091015460ff16151560209091015260c08101519091508610156126ed578060c0015195505b60c08101516126fc908461556d565b925050808061270a90615599565b91505061241b565b5061271d84826157f2565b92505b5050915091565b61272f6132ee565b6001600160a01b0390911660009081526101096020526040902060060155565b60606000806000612761878787613ffc565b915091508092508061ffff1667ffffffffffffffff81111561278557612785614ce0565b6040519080825280602002602001820160405280156127ae578160200160208202803683370190505b50935060005b8161ffff168161ffff16101561282257828161ffff16815181106127da576127da6155d7565b6020026020010151858261ffff16815181106127f8576127f86155d7565b6001600160a01b03909216602092830291909101909101528061281a81615599565b9150506127b4565b505050935093915050565b6001600160a01b0380821660009081526101096020908152604080832081516101608101835281549095168552600181018054835181860281018601909452808452949586959094929385840193909291908301828280156128b857602002820191906000526020600020905b81546001600160a01b0316815260019091019060200180831161289a575b505050505081526020016002820180548060200260200160405190810160405280929190818152602001828054801561291a57602002820191906000526020600020905b81546001600160a01b031681526001909101906020018083116128fc575b505050505081526020016003820180548060200260200160405190810160405280929190818152602001828054801561297257602002820191906000526020600020905b81548152602001906001019080831161295e575b50505050508152602001600482015481526020016005820154815260200160068201548152602001600782018054806020026020016040519081016040528092919081815260200182805480156129e857602002820191906000526020600020905b8154815260200190600101908083116129d4575b5050505050815260200160088201805480602002602001604051908101604052809291908181526020018280548015612a4057602002820191906000526020600020905b815481526020019060010190808311612a2c575b5050505050815260200160098201805480602002602001604051908101604052809291908181526020018280548015612a9857602002820191906000526020600020905b815481526020019060010190808311612a84575b5050509183525050600a919091015460ff161515602090910152905060005b60148160ff161015612cb55760ff808216600090815261010b60209081526040808320815160e0810183528154909516855260018101549285019290925260028201549084015260038101546060840152600481018054929392608084019190612b2090615618565b80601f0160208091040260200160405190810160405280929190818152602001828054612b4c90615618565b8015612b995780601f10612b6e57610100808354040283529160200191612b99565b820191906000526020600020905b815481529060010190602001808311612b7c57829003601f168201915b50505050508152602001600582018054612bb290615618565b80601f0160208091040260200160405190810160405280929190818152602001828054612bde90615618565b8015612c2b5780601f10612c0057610100808354040283529160200191612c2b565b820191906000526020600020905b815481529060010190602001808311612c0e57829003601f168201915b50505050508152602001600682015481525050905060028260ff16118015612c5557506020810151155b15612c605750612cb5565b8060200151612c6e84613d48565b10158015612c84575080604001518360a0015110155b8015612c995750612c9983826060015161450c565b15612ca2578193505b5080612cad81615805565b915050612ab7565b5050919050565b6001600160a01b0381166000908152610109602052604081206007810154600882015460098301548493849390929091845b83811015612d3557846007018181548110612d0b57612d0b6155d7565b906000526020600020015488612d21919061556d565b975080612d2d81615580565b915050612cee565b5060005b82811015612d8057846008018181548110612d5657612d566155d7565b906000526020600020015487612d6c919061556d565b965080612d7881615580565b915050612d39565b5060005b81811015612dcb57846009018181548110612da157612da16155d7565b906000526020600020015486612db7919061556d565b955080612dc381615580565b915050612d84565b50505050509193909250565b612ddf6132ee565b6001600160a01b038116612e445760405162461bcd60e51b815260206004820152602660248201527f4f776e61626c653a206e6577206f776e657220697320746865207a65726f206160448201526564647265737360d01b6064820152608401610ae4565b61189581613f25565b6001600160a01b03811660009081526101096020908152604080832060018101805483518186028101860190945280845260609594869486949390929091830182828015612ec457602002820191906000526020600020905b81546001600160a01b03168152600190910190602001808311612ea6575b505050505094508451935080600201805480602002602001604051908101604052809291908181526020018280548015612f2757602002820191906000526020600020905b81546001600160a01b03168152600190910190602001808311612f09575b5050505050925082519150509193509193565b612fa260405180610160016040528060006001600160a01b031681526020016060815260200160608152602001606081526020016000815260200160008152602001600081526020016060815260200160608152602001606081526020016000151581525090565b6001600160a01b03808316600090815261010960209081526040918290208251610160810184528154909416845260018101805484518185028101850190955280855291938584019390929083018282801561302757602002820191906000526020600020905b81546001600160a01b03168152600190910190602001808311613009575b505050505081526020016002820180548060200260200160405190810160405280929190818152602001828054801561308957602002820191906000526020600020905b81546001600160a01b0316815260019091019060200180831161306b575b50505050508152602001600382018054806020026020016040519081016040528092919081815260200182805480156130e157602002820191906000526020600020905b8154815260200190600101908083116130cd575b505050505081526020016004820154815260200160058201548152602001600682015481526020016007820180548060200260200160405190810160405280929190818152602001828054801561315757602002820191906000526020600020905b815481526020019060010190808311613143575b50505050508152602001600882018054806020026020016040519081016040528092919081815260200182805480156131af57602002820191906000526020600020905b81548152602001906001019080831161319b575b505050505081526020016009820180548060200260200160405190810160405280929190818152602001828054801561320757602002820191906000526020600020905b8154815260200190600101908083116131f3575b5050509183525050600a919091015460ff16151560209091015292915050565b60fd5460fc805460408051602080840282018101909252828152606093600093849383018282801561327857602002820191906000526020600020905b815481526020019060010190808311613264575b505060fc549396506000925050505b818160ff1610156132d25760fc8160ff16815481106132a8576132a86155d7565b9060005260206000200154846132be919061556d565b9350806132ca81615805565b915050613287565b5050610100549394929391926001600160a01b03909216919050565b6065546001600160a01b03163314611a585760405162461bcd60e51b815260206004820181905260248201527f4f776e61626c653a2063616c6c6572206973206e6f7420746865206f776e65726044820152606401610ae4565b6001600160a01b038281166000818152610109602052604080822080546001600160a01b03191694861694851781559051909392917ffaf63637882ff2d63ca76881cf92fb857130e36f350c926f9cc884b499b42b7791a360fc5460005b81811015610c0b5782546001600160a01b031660009081526101096020526040812090829003613400576001818101805491820181556000908152602090200180546001600160a01b0319166001600160a01b0388161790555b83546001600160a01b03166134155750610c0b565b6002810180546001810182556000918252602082200180546001600160a01b0319166001600160a01b03898116918217909255865460405191938984169391909116917fb766b19465b3277b0b275adf79d715cac93166bf6e6a39f26e4ccfdec76ad47e9190a492508061348881615580565b9150506133a6565b600060fc8054806020026020016040519081016040528092919081815260200182805480156134de57602002820191906000526020600020905b8154815260200190600101908083116134ca575b505050506001600160a01b0385166000908152610109602090815260408220600381018054600181018255908452918320909101889055600481015493945090929091501561352c57600191505b85816004016000828254613540919061556d565b90915550506101065460009067ffffffffffffffff81111561356457613564614ce0565b60405190808252806020026020018201604052801561358d578160200160208202803683370190505b5090506000805b610106548110156138c35783546001600160a01b0316600081815261010960205260409020906135c457506138c3565b85156135d15760016135d4565b86515b82101561382157600060648884815181106135f1576135f16155d7565b60200260200101518c6136049190615824565b61360e9190615851565b905082600003613632578a82600501600082825461362c919061556d565b90915550505b6007820180546001810182556000918252602082200182905560ff805483929061365d90849061556d565b909155505085546001600160a01b03808b169163a9059cbb9116613681848d614844565b6040516001600160e01b031960e085901b1681526001600160a01b03909216600483015260248201526044016020604051808303816000875af11580156136cc573d6000803e3d6000fd5b505050506040513d601f19601f820116820180604052508101906136f09190615535565b50855481906001600160a01b03908116908c167f197a0a2b0fbff3fc4f7f4d32597585aa8415fcc4c5dd6634336ec65904529c8361372f87600161556d565b60408051918252602082018190526005908201526410539554d160da1b606082015260800160405180910390a4600a82015460ff1661381f576101035482600501541180156137845750610110548260060154115b1561381f5785546101028054600180820183556000929092527f93bdaa6a4190909b7c3fbe8d42169ffe1cab19f51dfc8db24c71abf849eced4a0180546001600160a01b0319166001600160a01b03938416179055600a8401805460ff191690911790558654604051911681527facc63915cb028aeaee9996abc0f864fc0559a2f955750aa97d6ef9f51014acfb9060200160405180910390a15b505b89816006016000828254613835919061556d565b9091555050610105546005820154118015613862575061010f546001820154630100000090910460ff1611155b156138af57845484516001600160a01b0390911690859085908110613889576138896155d7565b6001600160a01b0390921660209283029190910190910152826138ab81615580565b9350505b9350806138bb81615580565b915050613594565b508015613a97576000816064610104548b6138de9190615824565b6138e89190615851565b6138f29190615851565b905060005b82811015613a945760006001600160a01b031684828151811061391c5761391c6155d7565b60200260200101516001600160a01b03160315613a94576000610109600086848151811061394c5761394c6155d7565b60200260200101516001600160a01b03166001600160a01b031681526020019081526020016000209050886001600160a01b031663a9059cbb868481518110613997576139976155d7565b60200260200101516139a9868d614844565b6040516001600160e01b031960e085901b1681526001600160a01b03909216600483015260248201526044016020604051808303816000875af11580156139f4573d6000803e3d6000fd5b505050506040513d601f19601f82011682018060405250810190613a189190615535565b50848281518110613a2b57613a2b6155d7565b60200260200101516001600160a01b0316837f62f12b06523c734cca73aa1502a5f967c8e09d0a2f084fd36acbac47f54b0d4e60405160405180910390a36009018054600181018255600091825260209091200182905580613a8c81615580565b9150506138f7565b50505b61010254156117af5760006064610101548a613ab39190615824565b613abd9190615851565b610102546040805142602082015244918101919091529192506000916060016040516020818303038152906040528051906020012060001c613aff9190615865565b905060006101028281548110613b1757613b176155d7565b6000918252602080832091909101546001600160a01b0316808352610109909152604090912061010f54600182015492935090916201000090910460ff1611613c4357896001600160a01b031663a9059cbb83613b74878e614844565b6040516001600160e01b031960e085901b1681526001600160a01b03909216600483015260248201526044016020604051808303816000875af1158015613bbf573d6000803e3d6000fd5b505050506040513d601f19601f82011682018060405250810190613be39190615535565b50600881018054600181018255600091825260209182902001859055604080518681526001600160a01b038516928101929092527f51e673ac98f0ea063ce27eb5af807d22b97cd11cd79380cf1f711ad80948046c910160405180910390a15b505050505050505050505050565b6001600160a01b038116600090815261010d602052604081205461ffff1690036118955761010f54600090613c8b9061ffff166001615879565b6001600160a01b038316600081815261010d60209081526040808320805461ffff191661ffff878116918217909255845261010c909252822080546001600160a01b0319908116851790915561010e80546001810182559084527f44731785622d53a842eeb261a70df6f2b61b9624656157b6168597f0656f480501805490911690931790925561010f8054939450929091169190613d2983615599565b91906101000a81548161ffff021916908361ffff160217905550505050565b60608101515160009015613dad5760015b8260600151518161ffff161015613dab5782606001518161ffff1681518110613d8457613d846155d7565b602002602001015182613d97919061556d565b915080613da381615599565b915050613d59565b505b919050565b6118956132ee565b7f4910fdfa16fed3260ed0e7147f7cc6da11a60208b5b9406d12a635614ffd91435460ff1615613ded57611ab3836148d0565b826001600160a01b03166352d1902d6040518163ffffffff1660e01b8152600401602060405180830381865afa925050508015613e47575060408051601f3d908101601f19168201909252613e449181019061589b565b60015b613eaa5760405162461bcd60e51b815260206004820152602e60248201527f45524331393637557067726164653a206e657720696d706c656d656e7461746960448201526d6f6e206973206e6f74205555505360901b6064820152608401610ae4565b600080516020615a3a8339815191528114613f195760405162461bcd60e51b815260206004820152602960248201527f45524331393637557067726164653a20756e737570706f727465642070726f786044820152681a58589b195555525160ba1b6064820152608401610ae4565b50611ab383838361496c565b606580546001600160a01b038381166001600160a01b0319831681179093556040519116919082907f8be0079c531659141344cd1fd0a4f28419497f9722a3daafe3b4186f6b6457e090600090a35050565b600054610100900460ff16613f9e5760405162461bcd60e51b8152600401610ae4906158b4565b611a58614991565b600054610100900460ff16613fcd5760405162461bcd60e51b8152600401610ae4906158b4565b611a586149c4565b600054610100900460ff16611a585760405162461bcd60e51b8152600401610ae4906158b4565b6060600061400a84846158ff565b61ffff1667ffffffffffffffff81111561402657614026614ce0565b60405190808252806020026020018201604052801561404f578160200160208202803683370190505b5091505b8261ffff168461ffff16116145045761ffff8416600090815261010c60209081526040808320546001600160a01b039081168085526101098452828520835161016081018552815490931683526001810180548551818802810188019096528086529296959394919385810193908301828280156140fa57602002820191906000526020600020905b81546001600160a01b031681526001909101906020018083116140dc575b505050505081526020016002820180548060200260200160405190810160405280929190818152602001828054801561415c57602002820191906000526020600020905b81546001600160a01b0316815260019091019060200180831161413e575b50505050508152602001600382018054806020026020016040519081016040528092919081815260200182805480156141b457602002820191906000526020600020905b8154815260200190600101908083116141a0575b505050505081526020016004820154815260200160058201548152602001600682015481526020016007820180548060200260200160405190810160405280929190818152602001828054801561422a57602002820191906000526020600020905b815481526020019060010190808311614216575b505050505081526020016008820180548060200260200160405190810160405280929190818152602001828054801561428257602002820191906000526020600020905b81548152602001906001019080831161426e575b50505050508152602001600982018054806020026020016040519081016040528092919081815260200182805480156142da57602002820191906000526020600020905b8154815260200190600101908083116142c6575b5050509183525050600a919091015460ff9081161515602092830152898116600090815261010b83526040808220815160e0810183528154909416845260018101549484019490945260028401549083015260038301546060830152600483018054949550909391929160808401919061435390615618565b80601f016020809104026020016040519081016040528092919081815260200182805461437f90615618565b80156143cc5780601f106143a1576101008083540402835291602001916143cc565b820191906000526020600020905b8154815290600101906020018083116143af57829003601f168201915b505050505081526020016005820180546143e590615618565b80601f016020809104026020016040519081016040528092919081815260200182805461441190615618565b801561445e5780601f106144335761010080835404028352916020019161445e565b820191906000526020600020905b81548152906001019060200180831161444157829003601f168201915b505050505081526020016006820154815250509050806020015161448183613d48565b10158015614497575080604001518260a0015110155b80156144ac57506144ac82826060015161450c565b156144ee5782858561ffff16815181106144c8576144c86155d7565b6001600160a01b0390921660209283029190910190910152836144ea81615599565b9450505b50505083806144fc90615599565b945050614053565b935093915050565b600080600060028560200151511061483c5760005b8560200151518161ffff161015614818576000610109600088602001518461ffff1681518110614553576145536155d7565b6020908102919091018101516001600160a01b039081168352828201939093526040918201600020825161016081018452815490941684526001810180548451818502810185019095528085529193858401939092908301828280156145e257602002820191906000526020600020905b81546001600160a01b031681526001909101906020018083116145c4575b505050505081526020016002820180548060200260200160405190810160405280929190818152602001828054801561464457602002820191906000526020600020905b81546001600160a01b03168152600190910190602001808311614626575b505050505081526020016003820180548060200260200160405190810160405280929190818152602001828054801561469c57602002820191906000526020600020905b815481526020019060010190808311614688575b505050505081526020016004820154815260200160058201548152602001600682015481526020016007820180548060200260200160405190810160405280929190818152602001828054801561471257602002820191906000526020600020905b8154815260200190600101908083116146fe575b505050505081526020016008820180548060200260200160405190810160405280929190818152602001828054801561476a57602002820191906000526020600020905b815481526020019060010190808311614756575b50505050508152602001600982018054806020026020016040519081016040528092919081815260200182805480156147c257602002820191906000526020600020905b8154815260200190600101908083116147ae575b5050509183525050600a919091015460ff16151560209091015260c08101519091508410156147f3578060c0015193505b60c0810151614802908461556d565b925050808061481090615599565b915050614521565b5083821015801561483257508361482f83836157f2565b10155b1561483c57600192505b505092915050565b6000670de0b6b3a7640000826001600160a01b031663313ce5676040518163ffffffff1660e01b8152600401602060405180830381865afa15801561488d573d6000803e3d6000fd5b505050506040513d601f19601f820116820180604052508101906148b1919061589b565b6148bc90600a6159fe565b6148c69085615824565b6114919190615851565b6001600160a01b0381163b61493d5760405162461bcd60e51b815260206004820152602d60248201527f455243313936373a206e657720696d706c656d656e746174696f6e206973206e60448201526c1bdd08184818dbdb9d1c9858dd609a1b6064820152608401610ae4565b600080516020615a3a83398151915280546001600160a01b0319166001600160a01b0392909216919091179055565b614975836149f4565b6000825111806149825750805b15611ab3576108e28383614a34565b600054610100900460ff166149b85760405162461bcd60e51b8152600401610ae4906158b4565b6033805460ff19169055565b600054610100900460ff166149eb5760405162461bcd60e51b8152600401610ae4906158b4565b611a5833613f25565b6149fd816148d0565b6040516001600160a01b038216907fbc7cd75a20ee27fd9adebab32041f755214dbc6bffa90cc0225b39da2e5c2d3b90600090a250565b60606001600160a01b0383163b614a9c5760405162461bcd60e51b815260206004820152602660248201527f416464726573733a2064656c65676174652063616c6c20746f206e6f6e2d636f6044820152651b9d1c9858dd60d21b6064820152608401610ae4565b600080846001600160a01b031684604051614ab79190615a0a565b600060405180830381855af49150503d8060008114614af2576040519150601f19603f3d011682016040523d82523d6000602084013e614af7565b606091505b5091509150614b1f8282604051806060016040528060278152602001615a5a60279139614b28565b95945050505050565b60608315614b37575081611491565b6114918383815115614b4c5781518083602001fd5b8060405162461bcd60e51b8152600401610ae49190615a26565b828054828255906000526020600020908101928215614ba6579160200282015b82811115614ba6578251829060ff16905591602001919060010190614b86565b50614bb2929150614bb6565b5090565b5b80821115614bb25760008155600101614bb7565b803561ffff81168114613dad57600080fd5b600060208284031215614bef57600080fd5b61149182614bcb565b6001600160a01b038116811461189557600080fd5b600080600060608486031215614c2257600080fd5b8335614c2d81614bf8565b92506020840135614c3d81614bf8565b929592945050506040919091013590565b600060208284031215614c6057600080fd5b813561149181614bf8565b60008060408385031215614c7e57600080fd5b614c8783614bcb565b9150614c9560208401614bcb565b90509250929050565b600080600060608486031215614cb357600080fd5b833592506020840135614cc581614bf8565b91506040840135614cd581614bf8565b809150509250925092565b634e487b7160e01b600052604160045260246000fd5b604051601f8201601f1916810167ffffffffffffffff81118282101715614d1f57614d1f614ce0565b604052919050565b600067ffffffffffffffff821115614d4157614d41614ce0565b5060051b60200190565b803560ff81168114613dad57600080fd5b600082601f830112614d6d57600080fd5b81356020614d82614d7d83614d27565b614cf6565b82815260059290921b84018101918181019086841115614da157600080fd5b8286015b84811015614dc357614db681614d4b565b8352918301918301614da5565b509695505050505050565b600082601f830112614ddf57600080fd5b81356020614def614d7d83614d27565b82815260059290921b84018101918181019086841115614e0e57600080fd5b8286015b84811015614dc35780358352918301918301614e12565b600067ffffffffffffffff831115614e4357614e43614ce0565b614e56601f8401601f1916602001614cf6565b9050828152838383011115614e6a57600080fd5b828260208301376000602084830101529392505050565b600082601f830112614e9257600080fd5b81356020614ea2614d7d83614d27565b82815260059290921b84018101918181019086841115614ec157600080fd5b8286015b84811015614dc357803567ffffffffffffffff811115614ee55760008081fd5b8701603f81018913614ef75760008081fd5b614f08898683013560408401614e29565b845250918301918301614ec5565b600080600080600080600060e0888a031215614f3157600080fd5b873567ffffffffffffffff80821115614f4957600080fd5b614f558b838c01614d5c565b985060208a0135915080821115614f6b57600080fd5b614f778b838c01614dce565b975060408a0135915080821115614f8d57600080fd5b614f998b838c01614dce565b965060608a0135915080821115614faf57600080fd5b614fbb8b838c01614dce565b955060808a0135915080821115614fd157600080fd5b614fdd8b838c01614e81565b945060a08a0135915080821115614ff357600080fd5b614fff8b838c01614e81565b935060c08a013591508082111561501557600080fd5b506150228a828b01614dce565b91505092959891949750929550565b6000806040838503121561504457600080fd5b823561504f81614bf8565b9150602083013567ffffffffffffffff81111561506b57600080fd5b8301601f8101851361507c57600080fd5b61508b85823560208401614e29565b9150509250929050565b6000602082840312156150a757600080fd5b5035919050565b600080604083850312156150c157600080fd5b82356150cc81614bf8565b9150614c9560208401614d4b565b600080604083850312156150ed57600080fd5b82356150f881614bf8565b946020939093013593505050565b602080825282516001600160a01b031682820152828101516060604084015280516080840181905260009291820190839060a08601905b8083101561516057835160ff16825292840192600192909201919084019061513d565b5060ff60408801511660608701528094505050505092915050565b6000806020838503121561518e57600080fd5b823567ffffffffffffffff808211156151a657600080fd5b818501915085601f8301126151ba57600080fd5b8135818111156151c957600080fd5b8660208260051b85010111156151de57600080fd5b60209290920196919550909350505050565b6000806040838503121561520357600080fd5b50508035926020909101359150565b60006020828403121561522457600080fd5b61149182614d4b565b60005b83811015615248578181015183820152602001615230565b50506000910152565b6000815180845261526981602086016020860161522d565b601f01601f19169290920160200192915050565b60ff8816815286602082015285604082015284606082015260e0608082015260006152ab60e0830186615251565b82810360a08401526152bd8186615251565b9150508260c083015298975050505050505050565b6000806000606084860312156152e757600080fd5b6152f084614d4b565b92506152fe60208501614bcb565b915061530c60408501614bcb565b90509250925092565b600081518084526020808501945080840160005b8381101561534e5781516001600160a01b031687529582019590820190600101615329565b509495945050505050565b60408152600061536c6040830185615315565b905061ffff831660208301529392505050565b6080815260006153926080830187615315565b85602084015282810360408401526153aa8186615315565b91505082606083015295945050505050565b600081518084526020808501945080840160005b8381101561534e578151875295820195908201906001016153d0565b602081526154066020820183516001600160a01b03169052565b60006020830151610160806040850152615424610180850183615315565b91506040850151601f19808685030160608701526154428483615315565b9350606087015191508086850301608087015261545f84836153bc565b9350608087015160a087015260a087015160c087015260c087015160e087015260e0870151915061010081878603018188015261549c85846153bc565b9450808801519250506101208187860301818801526154bb85846153bc565b9450808801519250506101408187860301818801526154da85846153bc565b945080880151925050506154f18286018215159052565b5090949350505050565b84815260806020820152600061551460808301866153bc565b6040830194909452506001600160a01b039190911660609091015292915050565b60006020828403121561554757600080fd5b8151801515811461149157600080fd5b634e487b7160e01b600052601160045260246000fd5b8082018082111561090957610909615557565b60006001820161559257615592615557565b5060010190565b600061ffff8083168181036155b0576155b0615557565b6001019392505050565b6000602082840312156155cc57600080fd5b815161149181614bf8565b634e487b7160e01b600052603260045260246000fd5b6020808252601190820152702cb7ba9030b932903737ba1030b236b4b760791b604082015260600190565b600181811c9082168061562c57607f821691505b602082108103613dab57634e487b7160e01b600052602260045260246000fd5b601f821115611ab357600081815260208120601f850160051c810160208610156156735750805b601f850160051c820191505b818110156156925782815560010161567f565b505050505050565b815167ffffffffffffffff8111156156b4576156b4614ce0565b6156c8816156c28454615618565b8461564c565b602080601f8311600181146156fd57600084156156e55750858301515b600019600386901b1c1916600185901b178555615692565b600085815260208120601f198616915b8281101561572c5788860151825594840194600190910190840161570d565b508582101561574a5787850151600019600388901b60f8161c191681555b5050505050600190811b01905550565b6020808252602c908201527f46756e6374696f6e206d7573742062652063616c6c6564207468726f7567682060408201526b19195b1959d85d1958d85b1b60a21b606082015260800190565b6020808252602c908201527f46756e6374696f6e206d7573742062652063616c6c6564207468726f7567682060408201526b6163746976652070726f787960a01b606082015260800190565b8181038181111561090957610909615557565b600060ff821660ff810361581b5761581b615557565b60010192915050565b808202811582820484141761090957610909615557565b634e487b7160e01b600052601260045260246000fd5b6000826158605761586061583b565b500490565b6000826158745761587461583b565b500690565b61ffff81811683821601908082111561589457615894615557565b5092915050565b6000602082840312156158ad57600080fd5b5051919050565b6020808252602b908201527f496e697469616c697a61626c653a20636f6e7472616374206973206e6f74206960408201526a6e697469616c697a696e6760a81b606082015260800190565b61ffff82811682821603908082111561589457615894615557565b600181815b8085111561595557816000190482111561593b5761593b615557565b8085161561594857918102915b93841c939080029061591f565b509250929050565b60008261596c57506001610909565b8161597957506000610909565b816001811461598f5760028114615999576159b5565b6001915050610909565b60ff8411156159aa576159aa615557565b50506001821b610909565b5060208310610133831016604e8410600b84101617156159d8575081810a610909565b6159e2838361591a565b80600019048211156159f6576159f6615557565b029392505050565b6000611491838361595d565b60008251615a1c81846020870161522d565b9190910192915050565b602081526000611491602083018461525156fe360894a13ba1a3210667c828492db98dca3e2076cc3735a920a3ca505d382bbc416464726573733a206c6f772d6c6576656c2064656c65676174652063616c6c206661696c6564a2646970667358221220bd76c2210070d1a99e79d049f2367003e9ffce0808ae2174c2aa7079fa66e77b64736f6c63430008110033",
  "linkReferences": {},
  "deployedLinkReferences": {}
}