{
  "_format": "hh-sol-artifact-1",
  "contractName": "ReferralUpgradeable",
  "sourceName": "contracts/ReferralUpgradeable.sol",
  "abi": [
    {
      "anonymous": false,
      "inputs": [
        {
          "indexed": false,
          "internalType": "address",
          "name": "previousAdmin",
          "type": "address"
        },
        {
          "indexed": false,
          "internalType": "address",
          "name": "newAdmin",
          "type": "address"
        }
      ],
      "name": "AdminChanged",
      "type": "event"
    },
    {
      "anonymous": false,
      "inputs": [
        {
          "indexed": true,
          "internalType": "address",
          "name": "beacon",
          "type": "address"
        }
      ],
      "name": "BeaconUpgraded",
      "type": "event"
    },
    {
      "anonymous": false,
      "inputs": [
        {
          "indexed": true,
          "internalType": "address",
          "name": "userAddressaddress",
          "type": "address"
        }
      ],
      "name": "CoreMemberAdded",
      "type": "event"
    },
    {
      "anonymous": false,
      "inputs": [
        {
          "indexed": false,
          "internalType": "address",
          "name": "userAddress",
          "type": "address"
        }
      ],
      "name": "CoreMemberRemoved",
      "type": "event"
    },
    {
      "anonymous": false,
      "inputs": [
        {
          "indexed": true,
          "internalType": "uint256",
          "name": "value",
          "type": "uint256"
        },
        {
          "indexed": true,
          "internalType": "address",
          "name": "userAddress",
          "type": "address"
        }
      ],
      "name": "CoreMemberRewardPaid",
      "type": "event"
    },
    {
      "anonymous": false,
      "inputs": [
        {
          "indexed": false,
          "internalType": "address",
          "name": "userAddress",
          "type": "address"
        }
      ],
      "name": "GlobalAddressAdded",
      "type": "event"
    },
    {
      "anonymous": false,
      "inputs": [
        {
          "indexed": false,
          "internalType": "address",
          "name": "userAddress",
          "type": "address"
        }
      ],
      "name": "GlobalAddressRemoved",
      "type": "event"
    },
    {
      "anonymous": false,
      "inputs": [
        {
          "indexed": false,
          "internalType": "uint256",
          "name": "value",
          "type": "uint256"
        },
        {
          "indexed": false,
          "internalType": "address",
          "name": "userAddress",
          "type": "address"
        }
      ],
      "name": "GlobalRewardPaid",
      "type": "event"
    },
    {
      "anonymous": false,
      "inputs": [
        {
          "indexed": false,
          "internalType": "uint8",
          "name": "version",
          "type": "uint8"
        }
      ],
      "name": "Initialized",
      "type": "event"
    },
    {
      "anonymous": false,
      "inputs": [
        {
          "indexed": true,
          "internalType": "address",
          "name": "previousOwner",
          "type": "address"
        },
        {
          "indexed": true,
          "internalType": "address",
          "name": "newOwner",
          "type": "address"
        }
      ],
      "name": "OwnershipTransferred",
      "type": "event"
    },
    {
      "anonymous": false,
      "inputs": [
        {
          "indexed": true,
          "internalType": "uint256",
          "name": "value",
          "type": "uint256"
        },
        {
          "indexed": true,
          "internalType": "address",
          "name": "userAddress",
          "type": "address"
        }
      ],
      "name": "PassiveRewardPaid",
      "type": "event"
    },
    {
      "anonymous": false,
      "inputs": [
        {
          "indexed": false,
          "internalType": "address",
          "name": "account",
          "type": "address"
        }
      ],
      "name": "Paused",
      "type": "event"
    },
    {
      "anonymous": false,
      "inputs": [
        {
          "indexed": true,
          "internalType": "address",
          "name": "referee",
          "type": "address"
        },
        {
          "indexed": true,
          "internalType": "address",
          "name": "referrer",
          "type": "address"
        },
        {
          "indexed": true,
          "internalType": "uint256",
          "name": "amount",
          "type": "uint256"
        },
        {
          "indexed": false,
          "internalType": "uint256",
          "name": "level",
          "type": "uint256"
        },
        {
          "indexed": false,
          "internalType": "string",
          "name": "currency",
          "type": "string"
        }
      ],
      "name": "ReferralRewardPaid",
      "type": "event"
    },
    {
      "anonymous": false,
      "inputs": [
        {
          "indexed": true,
          "internalType": "address",
          "name": "referee",
          "type": "address"
        },
        {
          "indexed": true,
          "internalType": "address",
          "name": "referrer",
          "type": "address"
        },
        {
          "indexed": true,
          "internalType": "string",
          "name": "reason",
          "type": "string"
        }
      ],
      "name": "RegisterRefererFailed",
      "type": "event"
    },
    {
      "anonymous": false,
      "inputs": [
        {
          "indexed": true,
          "internalType": "address",
          "name": "referee",
          "type": "address"
        },
        {
          "indexed": true,
          "internalType": "address",
          "name": "referrer",
          "type": "address"
        }
      ],
      "name": "RegisteredReferer",
      "type": "event"
    },
    {
      "anonymous": false,
      "inputs": [
        {
          "indexed": true,
          "internalType": "address",
          "name": "parent",
          "type": "address"
        },
        {
          "indexed": true,
          "internalType": "address",
          "name": "referrer",
          "type": "address"
        },
        {
          "indexed": true,
          "internalType": "address",
          "name": "referee",
          "type": "address"
        }
      ],
      "name": "RegisteredTeamAddress",
      "type": "event"
    },
    {
      "anonymous": false,
      "inputs": [
        {
          "indexed": false,
          "internalType": "address",
          "name": "userAddress",
          "type": "address"
        },
        {
          "indexed": false,
          "internalType": "uint8",
          "name": "rewardId",
          "type": "uint8"
        }
      ],
      "name": "RewardAccountAdded",
      "type": "event"
    },
    {
      "anonymous": false,
      "inputs": [
        {
          "indexed": false,
          "internalType": "address",
          "name": "userAddress",
          "type": "address"
        },
        {
          "indexed": false,
          "internalType": "uint8",
          "name": "rewardId",
          "type": "uint8"
        }
      ],
      "name": "RewardAccountPaid",
      "type": "event"
    },
    {
      "anonymous": false,
      "inputs": [
        {
          "indexed": false,
          "internalType": "uint8",
          "name": "id",
          "type": "uint8"
        },
        {
          "indexed": false,
          "internalType": "uint256",
          "name": "selfBusinessLimit",
          "type": "uint256"
        },
        {
          "indexed": false,
          "internalType": "uint256",
          "name": "directBusinessLimit",
          "type": "uint256"
        },
        {
          "indexed": false,
          "internalType": "uint256",
          "name": "teamBusinessLimit",
          "type": "uint256"
        },
        {
          "indexed": false,
          "internalType": "string",
          "name": "rankName",
          "type": "string"
        },
        {
          "indexed": false,
          "internalType": "string",
          "name": "rewardName",
          "type": "string"
        },
        {
          "indexed": false,
          "internalType": "uint256",
          "name": "appraisal",
          "type": "uint256"
        }
      ],
      "name": "RewardAdded",
      "type": "event"
    },
    {
      "anonymous": false,
      "inputs": [
        {
          "indexed": false,
          "internalType": "address",
          "name": "account",
          "type": "address"
        }
      ],
      "name": "Unpaused",
      "type": "event"
    },
    {
      "anonymous": false,
      "inputs": [
        {
          "indexed": true,
          "internalType": "address",
          "name": "implementation",
          "type": "address"
        }
      ],
      "name": "Upgraded",
      "type": "event"
    },
    {
      "inputs": [
        {
          "internalType": "address",
          "name": "",
          "type": "address"
        }
      ],
      "name": "addressToId",
      "outputs": [
        {
          "internalType": "uint16",
          "name": "",
          "type": "uint16"
        }
      ],
      "stateMutability": "view",
      "type": "function"
    },
    {
      "inputs": [],
      "name": "contractDefaults",
      "outputs": [
        {
          "internalType": "uint256",
          "name": "levelDecimals",
          "type": "uint256"
        },
        {
          "internalType": "uint256[]",
          "name": "levelRates",
          "type": "uint256[]"
        },
        {
          "internalType": "uint256",
          "name": "totalLevelRate",
          "type": "uint256"
        },
        {
          "internalType": "address",
          "name": "defaultReferrer",
          "type": "address"
        }
      ],
      "stateMutability": "view",
      "type": "function"
    },
    {
      "inputs": [],
      "name": "getGlobalRefereeLimit",
      "outputs": [
        {
          "internalType": "uint8",
          "name": "",
          "type": "uint8"
        }
      ],
      "stateMutability": "view",
      "type": "function"
    },
    {
      "inputs": [
        {
          "internalType": "uint8",
          "name": "_rewardId",
          "type": "uint8"
        },
        {
          "internalType": "uint16",
          "name": "_from",
          "type": "uint16"
        },
        {
          "internalType": "uint16",
          "name": "_to",
          "type": "uint16"
        }
      ],
      "name": "getRewardQualifiedUsers",
      "outputs": [
        {
          "internalType": "address[]",
          "name": "_userAddress",
          "type": "address[]"
        },
        {
          "internalType": "uint16",
          "name": "_achieversListCount",
          "type": "uint16"
        }
      ],
      "stateMutability": "view",
      "type": "function"
    },
    {
      "inputs": [],
      "name": "getSelfIncomePoolRefereeLimit",
      "outputs": [
        {
          "internalType": "uint8",
          "name": "",
          "type": "uint8"
        }
      ],
      "stateMutability": "view",
      "type": "function"
    },
    {
      "inputs": [
        {
          "internalType": "address",
          "name": "_userAddress",
          "type": "address"
        }
      ],
      "name": "getTeamBusinessToQualifyRewards",
      "outputs": [
        {
          "internalType": "uint256",
          "name": "mainBusiness",
          "type": "uint256"
        },
        {
          "internalType": "uint256",
          "name": "otherBusiness",
          "type": "uint256"
        }
      ],
      "stateMutability": "view",
      "type": "function"
    },
    {
      "inputs": [
        {
          "internalType": "address",
          "name": "_address",
          "type": "address"
        }
      ],
      "name": "getUserAccount",
      "outputs": [
        {
          "components": [
            {
              "internalType": "address",
              "name": "referrer",
              "type": "address"
            },
            {
              "internalType": "address[]",
              "name": "referee",
              "type": "address[]"
            },
            {
              "internalType": "address[]",
              "name": "team",
              "type": "address[]"
            },
            {
              "internalType": "uint256[]",
              "name": "topUp",
              "type": "uint256[]"
            },
            {
              "internalType": "uint256",
              "name": "selfBusiness",
              "type": "uint256"
            },
            {
              "internalType": "uint256",
              "name": "directBusiness",
              "type": "uint256"
            },
            {
              "internalType": "uint256",
              "name": "totalBusiness",
              "type": "uint256"
            },
            {
              "internalType": "uint256[]",
              "name": "rewardsPaidReferral",
              "type": "uint256[]"
            },
            {
              "internalType": "uint256[]",
              "name": "rewardsPaidGlobal",
              "type": "uint256[]"
            },
            {
              "internalType": "uint256[]",
              "name": "rewardPaidPassive",
              "type": "uint256[]"
            },
            {
              "internalType": "bool",
              "name": "isInGlobalID",
              "type": "bool"
            }
          ],
          "internalType": "struct ReferralUpgradeable.Account",
          "name": "userAccount",
          "type": "tuple"
        }
      ],
      "stateMutability": "view",
      "type": "function"
    },
    {
      "inputs": [
        {
          "internalType": "address",
          "name": "_address",
          "type": "address"
        }
      ],
      "name": "getUserReferrerAddress",
      "outputs": [
        {
          "internalType": "address",
          "name": "referrer",
          "type": "address"
        }
      ],
      "stateMutability": "view",
      "type": "function"
    },
    {
      "inputs": [
        {
          "internalType": "address",
          "name": "_userAddress",
          "type": "address"
        }
      ],
      "name": "getUserRewardAccount",
      "outputs": [
        {
          "components": [
            {
              "internalType": "address",
              "name": "userAdddress",
              "type": "address"
            },
            {
              "internalType": "uint8[]",
              "name": "rewardId",
              "type": "uint8[]"
            },
            {
              "internalType": "uint8",
              "name": "lastRewardId",
              "type": "uint8"
            }
          ],
          "internalType": "struct ReferralUpgradeable.RewardsAccount",
          "name": "",
          "type": "tuple"
        }
      ],
      "stateMutability": "view",
      "type": "function"
    },
    {
      "inputs": [
        {
          "internalType": "address",
          "name": "_userAddress",
          "type": "address"
        }
      ],
      "name": "getUserRewardQualified",
      "outputs": [
        {
          "internalType": "uint8",
          "name": "rewardId",
          "type": "uint8"
        }
      ],
      "stateMutability": "view",
      "type": "function"
    },
    {
      "inputs": [
        {
          "internalType": "address",
          "name": "_address",
          "type": "address"
        }
      ],
      "name": "getUserTeam",
      "outputs": [
        {
          "internalType": "address[]",
          "name": "userReferee",
          "type": "address[]"
        },
        {
          "internalType": "uint256",
          "name": "userRefereeCount",
          "type": "uint256"
        },
        {
          "internalType": "address[]",
          "name": "userTeamAddress",
          "type": "address[]"
        },
        {
          "internalType": "uint256",
          "name": "userTeamCount",
          "type": "uint256"
        }
      ],
      "stateMutability": "view",
      "type": "function"
    },
    {
      "inputs": [
        {
          "internalType": "address",
          "name": "_userAddress",
          "type": "address"
        }
      ],
      "name": "getUserTopUpForRewards",
      "outputs": [
        {
          "internalType": "uint256",
          "name": "",
          "type": "uint256"
        }
      ],
      "stateMutability": "view",
      "type": "function"
    },
    {
      "inputs": [
        {
          "internalType": "address",
          "name": "_address",
          "type": "address"
        }
      ],
      "name": "getUserTotalBusiness",
      "outputs": [
        {
          "internalType": "uint256",
          "name": "selfBusiness",
          "type": "uint256"
        },
        {
          "internalType": "uint256",
          "name": "directBusiness",
          "type": "uint256"
        },
        {
          "internalType": "uint256",
          "name": "refereeTeamBusiness",
          "type": "uint256"
        },
        {
          "internalType": "uint256",
          "name": "totalBusiness",
          "type": "uint256"
        }
      ],
      "stateMutability": "view",
      "type": "function"
    },
    {
      "inputs": [
        {
          "internalType": "address",
          "name": "_address",
          "type": "address"
        }
      ],
      "name": "getUserTotalRewardPaid",
      "outputs": [
        {
          "internalType": "uint256",
          "name": "rewardsAUSD",
          "type": "uint256"
        },
        {
          "internalType": "uint256",
          "name": "rewardsGlobal",
          "type": "uint256"
        },
        {
          "internalType": "uint256",
          "name": "rewardsPassive",
          "type": "uint256"
        }
      ],
      "stateMutability": "view",
      "type": "function"
    },
    {
      "inputs": [],
      "name": "getVariablesContract",
      "outputs": [
        {
          "internalType": "address",
          "name": "",
          "type": "address"
        }
      ],
      "stateMutability": "view",
      "type": "function"
    },
    {
      "inputs": [
        {
          "internalType": "address",
          "name": "_address",
          "type": "address"
        }
      ],
      "name": "hasReferrer",
      "outputs": [
        {
          "internalType": "bool",
          "name": "",
          "type": "bool"
        }
      ],
      "stateMutability": "view",
      "type": "function"
    },
    {
      "inputs": [
        {
          "internalType": "uint16",
          "name": "",
          "type": "uint16"
        }
      ],
      "name": "idToAddress",
      "outputs": [
        {
          "internalType": "address",
          "name": "",
          "type": "address"
        }
      ],
      "stateMutability": "view",
      "type": "function"
    },
    {
      "inputs": [
        {
          "internalType": "address[]",
          "name": "_userAddress",
          "type": "address[]"
        }
      ],
      "name": "includeUsersInList",
      "outputs": [],
      "stateMutability": "nonpayable",
      "type": "function"
    },
    {
      "inputs": [],
      "name": "initialize",
      "outputs": [],
      "stateMutability": "nonpayable",
      "type": "function"
    },
    {
      "inputs": [],
      "name": "owner",
      "outputs": [
        {
          "internalType": "address",
          "name": "",
          "type": "address"
        }
      ],
      "stateMutability": "view",
      "type": "function"
    },
    {
      "inputs": [],
      "name": "paused",
      "outputs": [
        {
          "internalType": "bool",
          "name": "",
          "type": "bool"
        }
      ],
      "stateMutability": "view",
      "type": "function"
    },
    {
      "inputs": [
        {
          "internalType": "uint256",
          "name": "_valueInUSD",
          "type": "uint256"
        },
        {
          "internalType": "address",
          "name": "_userAddress",
          "type": "address"
        },
        {
          "internalType": "address",
          "name": "_referrerAddress",
          "type": "address"
        }
      ],
      "name": "payReferralANUSDAdmin",
      "outputs": [],
      "stateMutability": "nonpayable",
      "type": "function"
    },
    {
      "inputs": [],
      "name": "proxiableUUID",
      "outputs": [
        {
          "internalType": "bytes32",
          "name": "",
          "type": "bytes32"
        }
      ],
      "stateMutability": "view",
      "type": "function"
    },
    {
      "inputs": [],
      "name": "renounceOwnership",
      "outputs": [],
      "stateMutability": "nonpayable",
      "type": "function"
    },
    {
      "inputs": [
        {
          "internalType": "address",
          "name": "",
          "type": "address"
        }
      ],
      "name": "rewardAccount",
      "outputs": [
        {
          "internalType": "address",
          "name": "userAdddress",
          "type": "address"
        },
        {
          "internalType": "uint8",
          "name": "lastRewardId",
          "type": "uint8"
        }
      ],
      "stateMutability": "view",
      "type": "function"
    },
    {
      "inputs": [
        {
          "internalType": "uint8",
          "name": "",
          "type": "uint8"
        }
      ],
      "name": "rewards",
      "outputs": [
        {
          "internalType": "uint8",
          "name": "id",
          "type": "uint8"
        },
        {
          "internalType": "uint256",
          "name": "selfBusinessLimit",
          "type": "uint256"
        },
        {
          "internalType": "uint256",
          "name": "directBusinessLimit",
          "type": "uint256"
        },
        {
          "internalType": "uint256",
          "name": "teamBusinessLimit",
          "type": "uint256"
        },
        {
          "internalType": "string",
          "name": "rankName",
          "type": "string"
        },
        {
          "internalType": "string",
          "name": "rewardName",
          "type": "string"
        },
        {
          "internalType": "uint256",
          "name": "appraisal",
          "type": "uint256"
        }
      ],
      "stateMutability": "view",
      "type": "function"
    },
    {
      "inputs": [
        {
          "internalType": "uint8[]",
          "name": "_id",
          "type": "uint8[]"
        },
        {
          "internalType": "uint256[]",
          "name": "_selfBusinessLimit",
          "type": "uint256[]"
        },
        {
          "internalType": "uint256[]",
          "name": "_directBusinessLimit",
          "type": "uint256[]"
        },
        {
          "internalType": "uint256[]",
          "name": "_teamBusinessLimit",
          "type": "uint256[]"
        },
        {
          "internalType": "string[]",
          "name": "_rankName",
          "type": "string[]"
        },
        {
          "internalType": "string[]",
          "name": "_rewardName",
          "type": "string[]"
        },
        {
          "internalType": "uint256[]",
          "name": "_appraisal",
          "type": "uint256[]"
        }
      ],
      "name": "setRewards",
      "outputs": [],
      "stateMutability": "nonpayable",
      "type": "function"
    },
    {
      "inputs": [],
      "name": "totalUsers",
      "outputs": [
        {
          "internalType": "uint16",
          "name": "",
          "type": "uint16"
        }
      ],
      "stateMutability": "view",
      "type": "function"
    },
    {
      "inputs": [
        {
          "internalType": "address",
          "name": "_address",
          "type": "address"
        },
        {
          "internalType": "uint256",
          "name": "_value",
          "type": "uint256"
        }
      ],
      "name": "transferNative",
      "outputs": [],
      "stateMutability": "nonpayable",
      "type": "function"
    },
    {
      "inputs": [
        {
          "internalType": "address",
          "name": "newOwner",
          "type": "address"
        }
      ],
      "name": "transferOwnership",
      "outputs": [],
      "stateMutability": "nonpayable",
      "type": "function"
    },
    {
      "inputs": [
        {
          "internalType": "address",
          "name": "_userAddress",
          "type": "address"
        },
        {
          "internalType": "uint8",
          "name": "_rewardId",
          "type": "uint8"
        }
      ],
      "name": "updateIfRewardPaidAdmin",
      "outputs": [],
      "stateMutability": "nonpayable",
      "type": "function"
    },
    {
      "inputs": [
        {
          "internalType": "address",
          "name": "newImplementation",
          "type": "address"
        }
      ],
      "name": "upgradeTo",
      "outputs": [],
      "stateMutability": "nonpayable",
      "type": "function"
    },
    {
      "inputs": [
        {
          "internalType": "address",
          "name": "newImplementation",
          "type": "address"
        },
        {
          "internalType": "bytes",
          "name": "data",
          "type": "bytes"
        }
      ],
      "name": "upgradeToAndCall",
      "outputs": [],
      "stateMutability": "payable",
      "type": "function"
    },
    {
      "inputs": [
        {
          "internalType": "uint256",
          "name": "",
          "type": "uint256"
        }
      ],
      "name": "usersList",
      "outputs": [
        {
          "internalType": "address",
          "name": "",
          "type": "address"
        }
      ],
      "stateMutability": "view",
      "type": "function"
    },
    {
      "inputs": [
        {
          "internalType": "address",
          "name": "_tokenAddress",
          "type": "address"
        },
        {
          "internalType": "address",
          "name": "_userAddress",
          "type": "address"
        },
        {
          "internalType": "uint256",
          "name": "_value",
          "type": "uint256"
        }
      ],
      "name": "withdrawtokens",
      "outputs": [],
      "stateMutability": "nonpayable",
      "type": "function"
    },
    {
      "stateMutability": "payable",
      "type": "receive"
    }
  ],
  "bytecode": "0x60a06040523060805234801561001457600080fd5b506080516157d26200004d6000396000818161165b0152818161169b0152818161173a0152818161177a015261183801526157d26000f3fe6080604052600436106102085760003560e01c8063771aa21611610118578063cb0e0d7d116100a0578063f13a143f1161006f578063f13a143f146106fb578063f2fde38b14610719578063faeda7e514610739578063fb47e01614610769578063fb5d45261461079657600080fd5b8063cb0e0d7d14610640578063dd1ca71614610672578063e5ffb5df146106a0578063ef519dc0146106c057600080fd5b80638a93f7b9116100e75780638a93f7b91461056b5780638da5cb5b1461058b5780639b317cc4146105a9578063a0760aff146105dc578063bff1f9e11461061157600080fd5b8063771aa216146104e95780637d2e90c2146105095780638129fc1c1461052957806386f6630d1461053e57600080fd5b806335166fef1161019b578063502aa3b51161016a578063502aa3b51461046857806352d1902d146104885780635c975abb1461049d578063715018a6146104b557806371e13ead146104ca57600080fd5b806335166fef146103db5780633659cfe6146103fb57806343b4ebf41461041b5780634f1ef2861461045557600080fd5b8063228159b4116101d7578063228159b4146102e85780632405091c1461030857806325f1c91e146103485780632bb5112d1461037657600080fd5b8063025313ff146102145780630898adc7146102685780630a783ea51461028a57806318452cd8146102b857600080fd5b3661020f57005b600080fd5b34801561022057600080fd5b5061024b61022f366004614a35565b61010c602052600090815260409020546001600160a01b031681565b6040516001600160a01b0390911681526020015b60405180910390f35b34801561027457600080fd5b50610288610283366004614a65565b6107bb565b005b34801561029657600080fd5b5061010f546301000000900460ff165b60405160ff909116815260200161025f565b3480156102c457600080fd5b506102d86102d3366004614aa6565b61083c565b604051901515815260200161025f565b3480156102f457600080fd5b50610288610303366004614ac3565b610863565b34801561031457600080fd5b50610328610323366004614aa6565b610aaa565b60408051948552602085019390935291830152606082015260800161025f565b34801561035457600080fd5b50610368610363366004614aa6565b611099565b60405190815260200161025f565b34801561038257600080fd5b506103ba610391366004614aa6565b61010a60205260009081526040902080546002909101546001600160a01b039091169060ff1682565b604080516001600160a01b03909316835260ff90911660208301520161025f565b3480156103e757600080fd5b506102886103f6366004614d3b565b611330565b34801561040757600080fd5b50610288610416366004614aa6565b611651565b34801561042757600080fd5b5061024b610436366004614aa6565b6001600160a01b03908116600090815261010960205260409020541690565b610288610463366004614e56565b611730565b34801561047457600080fd5b5061024b610483366004614eba565b611800565b34801561049457600080fd5b5061036861182b565b3480156104a957600080fd5b5060335460ff166102d8565b3480156104c157600080fd5b506102886118de565b3480156104d657600080fd5b5061010f5462010000900460ff166102a6565b3480156104f557600080fd5b50610288610504366004614ed3565b6118f2565b34801561051557600080fd5b50610288610524366004614f08565b6119f6565b34801561053557600080fd5b50610288611a39565b34801561054a57600080fd5b5061055e610559366004614aa6565b611c1f565b60405161025f9190614f34565b34801561057757600080fd5b50610288610586366004614fa9565b611d05565b34801561059757600080fd5b506065546001600160a01b031661024b565b3480156105b557600080fd5b506105c96105c436600461501e565b611dd9565b60405161025f9796959493929190615089565b3480156105e857600080fd5b506105fc6105f7366004614aa6565b611f2b565b6040805192835260208301919091520161025f565b34801561061d57600080fd5b5061010f5461062d9061ffff1681565b60405161ffff909116815260200161025f565b34801561064c57600080fd5b5061062d61065b366004614aa6565b61010d6020526000908152604090205461ffff1681565b34801561067e57600080fd5b5061069261068d3660046150de565b6124d1565b60405161025f929190615165565b3480156106ac57600080fd5b506102a66106bb366004614aa6565b6125af565b3480156106cc57600080fd5b506106e06106db366004614aa6565b612a3e565b6040805193845260208401929092529082015260600161025f565b34801561070757600080fd5b5060fb546001600160a01b031661024b565b34801561072557600080fd5b50610288610734366004614aa6565b612b59565b34801561074557600080fd5b50610759610754366004614aa6565b612bcf565b60405161025f949392919061518b565b34801561077557600080fd5b50610789610784366004614aa6565b612cbc565b60405161025f91906151f8565b3480156107a257600080fd5b506107ab612fa9565b60405161025f9493929190615307565b6107c3613070565b60405163a9059cbb60e01b81526001600160a01b0383811660048301526024820183905284169063a9059cbb906044016020604051808303816000875af1158015610812573d6000803e3d6000fd5b505050506040513d601f19601f820116820180604052508101906108369190615341565b50505050565b6001600160a01b038082166000908152610109602052604081205490911615155b92915050565b60fb5433906001600160a01b03166108836065546001600160a01b031690565b6001600160a01b0316826001600160a01b03161480610929575060fb60009054906101000a90046001600160a01b03166001600160a01b03166363d9df856040518163ffffffff1660e01b8152600401602060405180830381865afa1580156108f0573d6000803e3d6000fd5b505050506040513d601f19601f820116820180604052508101906109149190615363565b6001600160a01b0316826001600160a01b0316145b6109855760405162461bcd60e51b815260206004820152602260248201527f4f6e6c79206f776e65722063616e2063616c6c20746869732066756e6374696f604482015261371760f11b60648201526084015b60405180910390fd5b6001600160a01b0384811660009081526101096020526040902054161580156109b657506001600160a01b03831615155b156109c5576109c584846130ca565b6001600160a01b0383811660009081526101096020526040902054161580156109f657506001600160a01b03831615155b8015610a115750610100546001600160a01b03848116911614155b15610a2e5761010054610a2e9084906001600160a01b03166130ca565b610a9a8585836001600160a01b031663611509236040518163ffffffff1660e01b8152600401602060405180830381865afa158015610a71573d6000803e3d6000fd5b505050506040513d601f19601f82011682018060405250810190610a959190615363565b613212565b610aa384613b35565b5050505050565b6001600160a01b0381166000908152610109602052604081206001810154600482015492918291829190825b81811015610dad5760006101096000856001018481548110610afa57610afa615380565b60009182526020808320909101546001600160a01b03908116845283820194909452604092830190912082516101608101845281549094168452600181018054845181850281018501909552808552919385840193909290830182828015610b8b57602002820191906000526020600020905b81546001600160a01b03168152600190910190602001808311610b6d575b5050505050815260200160028201805480602002602001604051908101604052809291908181526020018280548015610bed57602002820191906000526020600020905b81546001600160a01b03168152600190910190602001808311610bcf575b5050505050815260200160038201805480602002602001604051908101604052809291908181526020018280548015610c4557602002820191906000526020600020905b815481526020019060010190808311610c31575b5050505050815260200160048201548152602001600582015481526020016006820154815260200160078201805480602002602001604051908101604052809291908181526020018280548015610cbb57602002820191906000526020600020905b815481526020019060010190808311610ca7575b5050505050815260200160088201805480602002602001604051908101604052809291908181526020018280548015610d1357602002820191906000526020600020905b815481526020019060010190808311610cff575b5050505050815260200160098201805480602002602001604051908101604052809291908181526020018280548015610d6b57602002820191906000526020600020905b815481526020019060010190808311610d57575b5050509183525050600a919091015460ff1615156020909101526080810151909150610d9790886153ac565b9650508080610da5906153bf565b915050610ad6565b5060005b818110156110885760006101096000856001018481548110610dd557610dd5615380565b60009182526020808320909101546001600160a01b03908116845283820194909452604092830190912082516101608101845281549094168452600181018054845181850281018501909552808552919385840193909290830182828015610e6657602002820191906000526020600020905b81546001600160a01b03168152600190910190602001808311610e48575b5050505050815260200160028201805480602002602001604051908101604052809291908181526020018280548015610ec857602002820191906000526020600020905b81546001600160a01b03168152600190910190602001808311610eaa575b5050505050815260200160038201805480602002602001604051908101604052809291908181526020018280548015610f2057602002820191906000526020600020905b815481526020019060010190808311610f0c575b5050505050815260200160048201548152602001600582015481526020016006820154815260200160078201805480602002602001604051908101604052809291908181526020018280548015610f9657602002820191906000526020600020905b815481526020019060010190808311610f82575b5050505050815260200160088201805480602002602001604051908101604052809291908181526020018280548015610fee57602002820191906000526020600020905b815481526020019060010190808311610fda575b505050505081526020016009820180548060200260200160405190810160405280929190818152602001828054801561104657602002820191906000526020600020905b815481526020019060010190808311611032575b5050509183525050600a919091015460ff16151560209091015260c081015190915061107290876153ac565b9550508080611080906153bf565b915050610db1565b508160060154925050509193509193565b6001600160a01b03808216600090815261010960209081526040808320815161016081018352815490951685526001810180548351818602810186019094528084529495869590949293858401939092919083018282801561112457602002820191906000526020600020905b81546001600160a01b03168152600190910190602001808311611106575b505050505081526020016002820180548060200260200160405190810160405280929190818152602001828054801561118657602002820191906000526020600020905b81546001600160a01b03168152600190910190602001808311611168575b50505050508152602001600382018054806020026020016040519081016040528092919081815260200182805480156111de57602002820191906000526020600020905b8154815260200190600101908083116111ca575b505050505081526020016004820154815260200160058201548152602001600682015481526020016007820180548060200260200160405190810160405280929190818152602001828054801561125457602002820191906000526020600020905b815481526020019060010190808311611240575b50505050508152602001600882018054806020026020016040519081016040528092919081815260200182805480156112ac57602002820191906000526020600020905b815481526020019060010190808311611298575b505050505081526020016009820180548060200260200160405190810160405280929190818152602001828054801561130457602002820191906000526020600020905b8154815260200190600101908083116112f0575b5050509183525050600a919091015460ff161515602090910152905061132981613c2c565b9392505050565b60fb54604051630935e01b60e21b81523360048201526001600160a01b03909116906324d7806c90602401602060405180830381865afa158015611378573d6000803e3d6000fd5b505050506040513d601f19601f8201168201806040525081019061139c9190615341565b6113b85760405162461bcd60e51b815260040161097c906153d8565b60005b8751811015611647576040518060e001604052808983815181106113e1576113e1615380565b602002602001015160ff16815260200188838151811061140357611403615380565b6020026020010151815260200187838151811061142257611422615380565b6020026020010151815260200186838151811061144157611441615380565b6020026020010151815260200185838151811061146057611460615380565b6020026020010151815260200184838151811061147f5761147f615380565b6020026020010151815260200183838151811061149e5761149e615380565b602002602001015181525061010b60008a84815181106114c0576114c0615380565b60209081029190910181015160ff90811683528282019390935260409182016000208451815460ff191694169390931783558301516001830155820151600282015560608201516003820155608082015160048201906115209082615485565b5060a082015160058201906115359082615485565b5060c082015181600601559050507fb9f30bf0ab6748f3fcfbc9d280ed1feedea51276343f55f8342b8c453b876e9a88828151811061157657611576615380565b602002602001015188838151811061159057611590615380565b60200260200101518884815181106115aa576115aa615380565b60200260200101518885815181106115c4576115c4615380565b60200260200101518886815181106115de576115de615380565b60200260200101518887815181106115f8576115f8615380565b602002602001015188888151811061161257611612615380565b602002602001015160405161162d9796959493929190615089565b60405180910390a18061163f816153bf565b9150506113bb565b5050505050505050565b6001600160a01b037f00000000000000000000000000000000000000000000000000000000000000001630036116995760405162461bcd60e51b815260040161097c90615545565b7f00000000000000000000000000000000000000000000000000000000000000006001600160a01b03166116e2600080516020615756833981519152546001600160a01b031690565b6001600160a01b0316146117085760405162461bcd60e51b815260040161097c90615591565b61171181613c96565b6040805160008082526020820190925261172d91839190613c9e565b50565b6001600160a01b037f00000000000000000000000000000000000000000000000000000000000000001630036117785760405162461bcd60e51b815260040161097c90615545565b7f00000000000000000000000000000000000000000000000000000000000000006001600160a01b03166117c1600080516020615756833981519152546001600160a01b031690565b6001600160a01b0316146117e75760405162461bcd60e51b815260040161097c90615591565b6117f082613c96565b6117fc82826001613c9e565b5050565b61010e818154811061181157600080fd5b6000918252602090912001546001600160a01b0316905081565b6000306001600160a01b037f000000000000000000000000000000000000000000000000000000000000000016146118cb5760405162461bcd60e51b815260206004820152603860248201527f555550535570677261646561626c653a206d757374206e6f742062652063616c60448201527f6c6564207468726f7567682064656c656761746563616c6c0000000000000000606482015260840161097c565b5060008051602061575683398151915290565b6118e6613070565b6118f06000613e09565b565b60fb54604051630935e01b60e21b81523360048201526001600160a01b03909116906324d7806c90602401602060405180830381865afa15801561193a573d6000803e3d6000fd5b505050506040513d601f19601f8201168201806040525081019061195e9190615341565b61197a5760405162461bcd60e51b815260040161097c906153d8565b6001600160a01b03808316600090815261010a6020526040902080549091166119b75780546001600160a01b0319166001600160a01b0384161781555b600190810180549182018155600090815260209081902090820401805460ff938416601f9093166101000a928302939092021990911691909117905550565b6119fe613070565b6040516001600160a01b0383169082156108fc029083906000818181858888f19350505050158015611a34573d6000803e3d6000fd5b505050565b600054610100900460ff1615808015611a595750600054600160ff909116105b80611a735750303b158015611a73575060005460ff166001145b611ad65760405162461bcd60e51b815260206004820152602e60248201527f496e697469616c697a61626c653a20636f6e747261637420697320616c72656160448201526d191e481a5b9a5d1a585b1a5e995960921b606482015260840161097c565b6000805460ff191660011790558015611af9576000805461ff0019166101001790555b60fb80546001600160a01b03199081167377daafc7411c911b869c71bf70fe36cce507845d17909155610100805490911673f3ba579d4afd4dad8a8c2d1bcbdd1405688e492f1790556040805160e0810182526007808252600460208301526003928201929092526002606082015260016080820181905260a0820181905260c0820152611b8a9160fc91906149be565b50606460fd5560146101065569011478b7c30abc3000006101035560046101015560056101045568a80d24677efef0000061010555611bc7613e5b565b611bcf613e8a565b611bd7613eb9565b801561172d576000805461ff0019169055604051600181527f7f26b83ff96e1f2b6a682f133852f6798a09c465da95921460cefb38474024989060200160405180910390a150565b611c4f604051806060016040528060006001600160a01b0316815260200160608152602001600060ff1681525090565b6001600160a01b03808316600090815261010a6020908152604091829020825160608101845281549094168452600181018054845181850281018501909552808552919385840193909290830182828015611ce757602002820191906000526020600020906000905b825461010083900a900460ff16815260206001928301818104948501949093039092029101808411611cb85790505b50505091835250506002919091015460ff1660209091015292915050565b60fb54604051630935e01b60e21b81523360048201526001600160a01b03909116906324d7806c90602401602060405180830381865afa158015611d4d573d6000803e3d6000fd5b505050506040513d601f19601f82011682018060405250810190611d719190615341565b611d8d5760405162461bcd60e51b815260040161097c906153d8565b60005b81811015611a3457611dc7838383818110611dad57611dad615380565b9050602002016020810190611dc29190614aa6565b613b35565b80611dd1816153bf565b915050611d90565b61010b602052600090815260409020805460018201546002830154600384015460048501805460ff90951695939492939192611e1490615403565b80601f0160208091040260200160405190810160405280929190818152602001828054611e4090615403565b8015611e8d5780601f10611e6257610100808354040283529160200191611e8d565b820191906000526020600020905b815481529060010190602001808311611e7057829003601f168201915b505050505090806005018054611ea290615403565b80601f0160208091040260200160405190810160405280929190818152602001828054611ece90615403565b8015611f1b5780601f10611ef057610100808354040283529160200191611f1b565b820191906000526020600020905b815481529060010190602001808311611efe57829003601f168201915b5050505050908060060154905087565b6001600160a01b03808216600090815261010960209081526040808320815161016081018352815490951685526001810180548351818602810186019094528084529495869586959194858301939092909190830182828015611fb757602002820191906000526020600020905b81546001600160a01b03168152600190910190602001808311611f99575b505050505081526020016002820180548060200260200160405190810160405280929190818152602001828054801561201957602002820191906000526020600020905b81546001600160a01b03168152600190910190602001808311611ffb575b505050505081526020016003820180548060200260200160405190810160405280929190818152602001828054801561207157602002820191906000526020600020905b81548152602001906001019080831161205d575b50505050508152602001600482015481526020016005820154815260200160068201548152602001600782018054806020026020016040519081016040528092919081815260200182805480156120e757602002820191906000526020600020905b8154815260200190600101908083116120d3575b505050505081526020016008820180548060200260200160405190810160405280929190818152602001828054801561213f57602002820191906000526020600020905b81548152602001906001019080831161212b575b505050505081526020016009820180548060200260200160405190810160405280929190818152602001828054801561219757602002820191906000526020600020905b815481526020019060010190808311612183575b5050509183525050600a919091015460ff161515602091820152810151519091506000906002116124ca5760005b8260200151518161ffff1610156124bc576000610109600085602001518461ffff16815181106121f7576121f7615380565b6020908102919091018101516001600160a01b0390811683528282019390935260409182016000208251610160810184528154909416845260018101805484518185028101850190955280855291938584019390929083018282801561228657602002820191906000526020600020905b81546001600160a01b03168152600190910190602001808311612268575b50505050508152602001600282018054806020026020016040519081016040528092919081815260200182805480156122e857602002820191906000526020600020905b81546001600160a01b031681526001909101906020018083116122ca575b505050505081526020016003820180548060200260200160405190810160405280929190818152602001828054801561234057602002820191906000526020600020905b81548152602001906001019080831161232c575b50505050508152602001600482015481526020016005820154815260200160068201548152602001600782018054806020026020016040519081016040528092919081815260200182805480156123b657602002820191906000526020600020905b8154815260200190600101908083116123a2575b505050505081526020016008820180548060200260200160405190810160405280929190818152602001828054801561240e57602002820191906000526020600020905b8154815260200190600101908083116123fa575b505050505081526020016009820180548060200260200160405190810160405280929190818152602001828054801561246657602002820191906000526020600020905b815481526020019060010190808311612452575b5050509183525050600a919091015460ff16151560209091015260c0810151909150861015612497578060c0015195505b60c08101516124a690846153ac565b92505080806124b4906155dd565b9150506121c5565b506124c784826155fe565b92505b5050915091565b606060008060006124e3878787613ee0565b915091508092508061ffff1667ffffffffffffffff81111561250757612507614b05565b604051908082528060200260200182016040528015612530578160200160208202803683370190505b50935060005b8161ffff168161ffff1610156125a457828161ffff168151811061255c5761255c615380565b6020026020010151858261ffff168151811061257a5761257a615380565b6001600160a01b03909216602092830291909101909101528061259c816155dd565b915050612536565b505050935093915050565b6001600160a01b03808216600090815261010960209081526040808320815161016081018352815490951685526001810180548351818602810186019094528084529495869590949293858401939092919083018282801561263a57602002820191906000526020600020905b81546001600160a01b0316815260019091019060200180831161261c575b505050505081526020016002820180548060200260200160405190810160405280929190818152602001828054801561269c57602002820191906000526020600020905b81546001600160a01b0316815260019091019060200180831161267e575b50505050508152602001600382018054806020026020016040519081016040528092919081815260200182805480156126f457602002820191906000526020600020905b8154815260200190600101908083116126e0575b505050505081526020016004820154815260200160058201548152602001600682015481526020016007820180548060200260200160405190810160405280929190818152602001828054801561276a57602002820191906000526020600020905b815481526020019060010190808311612756575b50505050508152602001600882018054806020026020016040519081016040528092919081815260200182805480156127c257602002820191906000526020600020905b8154815260200190600101908083116127ae575b505050505081526020016009820180548060200260200160405190810160405280929190818152602001828054801561281a57602002820191906000526020600020905b815481526020019060010190808311612806575b5050509183525050600a919091015460ff161515602090910152905060005b60148160ff161015612a375760ff808216600090815261010b60209081526040808320815160e08101835281549095168552600181015492850192909252600282015490840152600381015460608401526004810180549293926080840191906128a290615403565b80601f01602080910402602001604051908101604052809291908181526020018280546128ce90615403565b801561291b5780601f106128f05761010080835404028352916020019161291b565b820191906000526020600020905b8154815290600101906020018083116128fe57829003601f168201915b5050505050815260200160058201805461293490615403565b80601f016020809104026020016040519081016040528092919081815260200182805461296090615403565b80156129ad5780601f10612982576101008083540402835291602001916129ad565b820191906000526020600020905b81548152906001019060200180831161299057829003601f168201915b50505050508152602001600682015481525050905060028260ff161180156129d757506020810151155b156129e25750612a37565b80602001516129f084613c2c565b10158015612a06575080604001518360a0015110155b8015612a1b5750612a1b8382606001516143f0565b15612a24578193505b5080612a2f81615611565b915050612839565b5050919050565b6001600160a01b0381166000908152610109602052604081206007810154600882015460098301548493849390929091845b83811015612ab757846007018181548110612a8d57612a8d615380565b906000526020600020015488612aa391906153ac565b975080612aaf816153bf565b915050612a70565b5060005b82811015612b0257846008018181548110612ad857612ad8615380565b906000526020600020015487612aee91906153ac565b965080612afa816153bf565b915050612abb565b5060005b81811015612b4d57846009018181548110612b2357612b23615380565b906000526020600020015486612b3991906153ac565b955080612b45816153bf565b915050612b06565b50505050509193909250565b612b61613070565b6001600160a01b038116612bc65760405162461bcd60e51b815260206004820152602660248201527f4f776e61626c653a206e6577206f776e657220697320746865207a65726f206160448201526564647265737360d01b606482015260840161097c565b61172d81613e09565b6001600160a01b03811660009081526101096020908152604080832060018101805483518186028101860190945280845260609594869486949390929091830182828015612c4657602002820191906000526020600020905b81546001600160a01b03168152600190910190602001808311612c28575b505050505094508451935080600201805480602002602001604051908101604052809291908181526020018280548015612ca957602002820191906000526020600020905b81546001600160a01b03168152600190910190602001808311612c8b575b5050505050925082519150509193509193565b612d2460405180610160016040528060006001600160a01b031681526020016060815260200160608152602001606081526020016000815260200160008152602001600081526020016060815260200160608152602001606081526020016000151581525090565b6001600160a01b038083166000908152610109602090815260409182902082516101608101845281549094168452600181018054845181850281018501909552808552919385840193909290830182828015612da957602002820191906000526020600020905b81546001600160a01b03168152600190910190602001808311612d8b575b5050505050815260200160028201805480602002602001604051908101604052809291908181526020018280548015612e0b57602002820191906000526020600020905b81546001600160a01b03168152600190910190602001808311612ded575b5050505050815260200160038201805480602002602001604051908101604052809291908181526020018280548015612e6357602002820191906000526020600020905b815481526020019060010190808311612e4f575b5050505050815260200160048201548152602001600582015481526020016006820154815260200160078201805480602002602001604051908101604052809291908181526020018280548015612ed957602002820191906000526020600020905b815481526020019060010190808311612ec5575b5050505050815260200160088201805480602002602001604051908101604052809291908181526020018280548015612f3157602002820191906000526020600020905b815481526020019060010190808311612f1d575b5050505050815260200160098201805480602002602001604051908101604052809291908181526020018280548015612f8957602002820191906000526020600020905b815481526020019060010190808311612f75575b5050509183525050600a919091015460ff16151560209091015292915050565b60fd5460fc8054604080516020808402820181019092528281526060936000938493830182828015612ffa57602002820191906000526020600020905b815481526020019060010190808311612fe6575b505060fc549396506000925050505b818160ff1610156130545760fc8160ff168154811061302a5761302a615380565b90600052602060002001548461304091906153ac565b93508061304c81615611565b915050613009565b5050610100549394929391926001600160a01b03909216919050565b6065546001600160a01b031633146118f05760405162461bcd60e51b815260206004820181905260248201527f4f776e61626c653a2063616c6c6572206973206e6f7420746865206f776e6572604482015260640161097c565b6001600160a01b038281166000818152610109602052604080822080546001600160a01b03191694861694851781559051909392917ffaf63637882ff2d63ca76881cf92fb857130e36f350c926f9cc884b499b42b7791a360fc5460005b81811015610aa35782546001600160a01b031660009081526101096020526040812090829003613182576001818101805491820181556000908152602090200180546001600160a01b0319166001600160a01b0388161790555b83546001600160a01b03166131975750610aa3565b6002810180546001810182556000918252602082200180546001600160a01b0319166001600160a01b03898116918217909255865460405191938984169391909116917fb766b19465b3277b0b275adf79d715cac93166bf6e6a39f26e4ccfdec76ad47e9190a492508061320a816153bf565b915050613128565b600060fc80548060200260200160405190810160405280929190818152602001828054801561326057602002820191906000526020600020905b81548152602001906001019080831161324c575b505050506001600160a01b038516600090815261010960209081526040822060038101805460018101825590845291832090910188905560048101549394509092909150156132ae57600191505b858160040160008282546132c291906153ac565b90915550506101065460009067ffffffffffffffff8111156132e6576132e6614b05565b60405190808252806020026020018201604052801561330f578160200160208202803683370190505b50905060008061010780548060200260200160405190810160405280929190818152602001828054801561336c57602002820191906000526020600020905b81546001600160a01b0316815260019091019060200180831161334e575b505083519394506000925050505b6101065481101561367f5785546001600160a01b0316600081815261010960205260409020906133aa575061367f565b87156133b75760016133ba565b88515b8210156135dd57600060648a84815181106133d7576133d7615380565b60200260200101518e6133ea9190615630565b6133f4919061565d565b905082600003613418578c82600501600082825461341291906153ac565b90915550505b6007820180546001810182556000918252602082200182905560ff80548392906134439084906153ac565b9091555050875460405163a9059cbb60e01b81526001600160a01b03918216600482015260248101839052908c169063a9059cbb906044016020604051808303816000875af115801561349a573d6000803e3d6000fd5b505050506040513d601f19601f820116820180604052508101906134be9190615341565b50875481906001600160a01b03908116908e167f197a0a2b0fbff3fc4f7f4d32597585aa8415fcc4c5dd6634336ec65904529c836134fd8760016153ac565b60408051918252602082018190526005908201526410539554d160da1b606082015260800160405180910390a4600a82015460ff166135db5761010354826005015411156135db5787546101028054600180820183556000929092527f93bdaa6a4190909b7c3fbe8d42169ffe1cab19f51dfc8db24c71abf849eced4a0180546001600160a01b0319166001600160a01b03938416179055600a8401805460ff191690911790558854604051911681527facc63915cb028aeaee9996abc0f864fc0559a2f955750aa97d6ef9f51014acfb9060200160405180910390a15b505b8b8160060160008282546135f191906153ac565b909155505061010554600582015411801561361e575061010f546001820154630100000090910460ff1611155b1561366b57865486516001600160a01b039091169087908790811061364557613645615380565b6001600160a01b039092166020928302919091019091015284613667816153bf565b9550505b955080613677816153bf565b91505061337a565b50821561384f576000836064610104548d61369a9190615630565b6136a4919061565d565b6136ae919061565d565b905060005b8481101561384c5760006001600160a01b03168682815181106136d8576136d8615380565b60200260200101516001600160a01b0316031561384c576000610109600088848151811061370857613708615380565b60200260200101516001600160a01b03166001600160a01b0316815260200190815260200160002090508a6001600160a01b031663a9059cbb88848151811061375357613753615380565b6020026020010151856040518363ffffffff1660e01b815260040161378d9291906001600160a01b03929092168252602082015260400190565b6020604051808303816000875af11580156137ac573d6000803e3d6000fd5b505050506040513d601f19601f820116820180604052508101906137d09190615341565b508682815181106137e3576137e3615380565b60200260200101516001600160a01b0316837f62f12b06523c734cca73aa1502a5f967c8e09d0a2f084fd36acbac47f54b0d4e60405160405180910390a36009018054600181018255600091825260209091200182905580613844816153bf565b9150506136b3565b50505b61010254156139ea5760006064610101548c61386b9190615630565b613875919061565d565b610102546040805142602082015244918101919091529192506000916060016040516020818303038152906040528051906020012060001c6138b79190615671565b9050600061010282815481106138cf576138cf615380565b6000918252602080832091909101546001600160a01b0316808352610109909152604090912061010f54600182015492935090916201000090910460ff16116139e55760405163a9059cbb60e01b81526001600160a01b038381166004830152602482018690528d169063a9059cbb906044016020604051808303816000875af1158015613961573d6000803e3d6000fd5b505050506040513d601f19601f820116820180604052508101906139859190615341565b50600881018054600181018255600091825260209182902001859055604080518681526001600160a01b038516928101929092527f51e673ac98f0ea063ce27eb5af807d22b97cd11cd79380cf1f711ad80948046c910160405180910390a15b505050505b8015613b29576000816064610108548d613a049190615630565b613a0e919061565d565b613a18919061565d565b905060005b82811015613b2657896001600160a01b031663a9059cbb858381518110613a4657613a46615380565b6020026020010151846040518363ffffffff1660e01b8152600401613a809291906001600160a01b03929092168252602082015260400190565b6020604051808303816000875af1158015613a9f573d6000803e3d6000fd5b505050506040513d601f19601f82011682018060405250810190613ac39190615341565b50838181518110613ad657613ad6615380565b60200260200101516001600160a01b0316827f6d550262135215fe2f5ef9b6fad45db8cf51267248f8b95e069f8025f6f9049a60405160405180910390a380613b1e816153bf565b915050613a1d565b50505b50505050505050505050565b6001600160a01b038116600090815261010d602052604081205461ffff16900361172d5761010f54600090613b6f9061ffff166001615685565b6001600160a01b038316600081815261010d60209081526040808320805461ffff191661ffff878116918217909255845261010c909252822080546001600160a01b0319908116851790915561010e80546001810182559084527f44731785622d53a842eeb261a70df6f2b61b9624656157b6168597f0656f480501805490911690931790925561010f8054939450929091169190613c0d836155dd565b91906101000a81548161ffff021916908361ffff160217905550505050565b60608101515160009015613c915760015b8260600151518161ffff161015613c8f5782606001518161ffff1681518110613c6857613c68615380565b602002602001015182613c7b91906153ac565b915080613c87816155dd565b915050613c3d565b505b919050565b61172d613070565b7f4910fdfa16fed3260ed0e7147f7cc6da11a60208b5b9406d12a635614ffd91435460ff1615613cd157611a3483614728565b826001600160a01b03166352d1902d6040518163ffffffff1660e01b8152600401602060405180830381865afa925050508015613d2b575060408051601f3d908101601f19168201909252613d28918101906156a7565b60015b613d8e5760405162461bcd60e51b815260206004820152602e60248201527f45524331393637557067726164653a206e657720696d706c656d656e7461746960448201526d6f6e206973206e6f74205555505360901b606482015260840161097c565b6000805160206157568339815191528114613dfd5760405162461bcd60e51b815260206004820152602960248201527f45524331393637557067726164653a20756e737570706f727465642070726f786044820152681a58589b195555525160ba1b606482015260840161097c565b50611a348383836147c4565b606580546001600160a01b038381166001600160a01b0319831681179093556040519116919082907f8be0079c531659141344cd1fd0a4f28419497f9722a3daafe3b4186f6b6457e090600090a35050565b600054610100900460ff16613e825760405162461bcd60e51b815260040161097c906156c0565b6118f06147e9565b600054610100900460ff16613eb15760405162461bcd60e51b815260040161097c906156c0565b6118f061481c565b600054610100900460ff166118f05760405162461bcd60e51b815260040161097c906156c0565b60606000613eee848461570b565b61ffff1667ffffffffffffffff811115613f0a57613f0a614b05565b604051908082528060200260200182016040528015613f33578160200160208202803683370190505b5091505b8261ffff168461ffff16116143e85761ffff8416600090815261010c60209081526040808320546001600160a01b03908116808552610109845282852083516101608101855281549093168352600181018054855181880281018801909652808652929695939491938581019390830182828015613fde57602002820191906000526020600020905b81546001600160a01b03168152600190910190602001808311613fc0575b505050505081526020016002820180548060200260200160405190810160405280929190818152602001828054801561404057602002820191906000526020600020905b81546001600160a01b03168152600190910190602001808311614022575b505050505081526020016003820180548060200260200160405190810160405280929190818152602001828054801561409857602002820191906000526020600020905b815481526020019060010190808311614084575b505050505081526020016004820154815260200160058201548152602001600682015481526020016007820180548060200260200160405190810160405280929190818152602001828054801561410e57602002820191906000526020600020905b8154815260200190600101908083116140fa575b505050505081526020016008820180548060200260200160405190810160405280929190818152602001828054801561416657602002820191906000526020600020905b815481526020019060010190808311614152575b50505050508152602001600982018054806020026020016040519081016040528092919081815260200182805480156141be57602002820191906000526020600020905b8154815260200190600101908083116141aa575b5050509183525050600a919091015460ff9081161515602092830152898116600090815261010b83526040808220815160e0810183528154909416845260018101549484019490945260028401549083015260038301546060830152600483018054949550909391929160808401919061423790615403565b80601f016020809104026020016040519081016040528092919081815260200182805461426390615403565b80156142b05780601f10614285576101008083540402835291602001916142b0565b820191906000526020600020905b81548152906001019060200180831161429357829003601f168201915b505050505081526020016005820180546142c990615403565b80601f01602080910402602001604051908101604052809291908181526020018280546142f590615403565b80156143425780601f1061431757610100808354040283529160200191614342565b820191906000526020600020905b81548152906001019060200180831161432557829003601f168201915b505050505081526020016006820154815250509050806020015161436583613c2c565b1015801561437b575080604001518260a0015110155b801561439057506143908282606001516143f0565b156143d25782858561ffff16815181106143ac576143ac615380565b6001600160a01b0390921660209283029190910190910152836143ce816155dd565b9450505b50505083806143e0906155dd565b945050613f37565b935093915050565b60008060006002856020015151106147205760005b8560200151518161ffff1610156146fc576000610109600088602001518461ffff168151811061443757614437615380565b6020908102919091018101516001600160a01b039081168352828201939093526040918201600020825161016081018452815490941684526001810180548451818502810185019095528085529193858401939092908301828280156144c657602002820191906000526020600020905b81546001600160a01b031681526001909101906020018083116144a8575b505050505081526020016002820180548060200260200160405190810160405280929190818152602001828054801561452857602002820191906000526020600020905b81546001600160a01b0316815260019091019060200180831161450a575b505050505081526020016003820180548060200260200160405190810160405280929190818152602001828054801561458057602002820191906000526020600020905b81548152602001906001019080831161456c575b50505050508152602001600482015481526020016005820154815260200160068201548152602001600782018054806020026020016040519081016040528092919081815260200182805480156145f657602002820191906000526020600020905b8154815260200190600101908083116145e2575b505050505081526020016008820180548060200260200160405190810160405280929190818152602001828054801561464e57602002820191906000526020600020905b81548152602001906001019080831161463a575b50505050508152602001600982018054806020026020016040519081016040528092919081815260200182805480156146a657602002820191906000526020600020905b815481526020019060010190808311614692575b5050509183525050600a919091015460ff16151560209091015260c08101519091508410156146d7578060c0015193505b60c08101516146e690846153ac565b92505080806146f4906155dd565b915050614405565b5083821015801561471657508361471383836155fe565b10155b1561472057600192505b505092915050565b6001600160a01b0381163b6147955760405162461bcd60e51b815260206004820152602d60248201527f455243313936373a206e657720696d706c656d656e746174696f6e206973206e60448201526c1bdd08184818dbdb9d1c9858dd609a1b606482015260840161097c565b60008051602061575683398151915280546001600160a01b0319166001600160a01b0392909216919091179055565b6147cd8361484c565b6000825111806147da5750805b15611a3457610836838361488c565b600054610100900460ff166148105760405162461bcd60e51b815260040161097c906156c0565b6033805460ff19169055565b600054610100900460ff166148435760405162461bcd60e51b815260040161097c906156c0565b6118f033613e09565b61485581614728565b6040516001600160a01b038216907fbc7cd75a20ee27fd9adebab32041f755214dbc6bffa90cc0225b39da2e5c2d3b90600090a250565b60606001600160a01b0383163b6148f45760405162461bcd60e51b815260206004820152602660248201527f416464726573733a2064656c65676174652063616c6c20746f206e6f6e2d636f6044820152651b9d1c9858dd60d21b606482015260840161097c565b600080846001600160a01b03168460405161490f9190615726565b600060405180830381855af49150503d806000811461494a576040519150601f19603f3d011682016040523d82523d6000602084013e61494f565b606091505b5091509150614977828260405180606001604052806027815260200161577660279139614980565b95945050505050565b6060831561498f575081611329565b61132983838151156149a45781518083602001fd5b8060405162461bcd60e51b815260040161097c9190615742565b8280548282559060005260206000209081019282156149fe579160200282015b828111156149fe578251829060ff169055916020019190600101906149de565b50614a0a929150614a0e565b5090565b5b80821115614a0a5760008155600101614a0f565b803561ffff81168114613c9157600080fd5b600060208284031215614a4757600080fd5b61132982614a23565b6001600160a01b038116811461172d57600080fd5b600080600060608486031215614a7a57600080fd5b8335614a8581614a50565b92506020840135614a9581614a50565b929592945050506040919091013590565b600060208284031215614ab857600080fd5b813561132981614a50565b600080600060608486031215614ad857600080fd5b833592506020840135614aea81614a50565b91506040840135614afa81614a50565b809150509250925092565b634e487b7160e01b600052604160045260246000fd5b604051601f8201601f1916810167ffffffffffffffff81118282101715614b4457614b44614b05565b604052919050565b600067ffffffffffffffff821115614b6657614b66614b05565b5060051b60200190565b803560ff81168114613c9157600080fd5b600082601f830112614b9257600080fd5b81356020614ba7614ba283614b4c565b614b1b565b82815260059290921b84018101918181019086841115614bc657600080fd5b8286015b84811015614be857614bdb81614b70565b8352918301918301614bca565b509695505050505050565b600082601f830112614c0457600080fd5b81356020614c14614ba283614b4c565b82815260059290921b84018101918181019086841115614c3357600080fd5b8286015b84811015614be85780358352918301918301614c37565b600067ffffffffffffffff831115614c6857614c68614b05565b614c7b601f8401601f1916602001614b1b565b9050828152838383011115614c8f57600080fd5b828260208301376000602084830101529392505050565b600082601f830112614cb757600080fd5b81356020614cc7614ba283614b4c565b82815260059290921b84018101918181019086841115614ce657600080fd5b8286015b84811015614be857803567ffffffffffffffff811115614d0a5760008081fd5b8701603f81018913614d1c5760008081fd5b614d2d898683013560408401614c4e565b845250918301918301614cea565b600080600080600080600060e0888a031215614d5657600080fd5b873567ffffffffffffffff80821115614d6e57600080fd5b614d7a8b838c01614b81565b985060208a0135915080821115614d9057600080fd5b614d9c8b838c01614bf3565b975060408a0135915080821115614db257600080fd5b614dbe8b838c01614bf3565b965060608a0135915080821115614dd457600080fd5b614de08b838c01614bf3565b955060808a0135915080821115614df657600080fd5b614e028b838c01614ca6565b945060a08a0135915080821115614e1857600080fd5b614e248b838c01614ca6565b935060c08a0135915080821115614e3a57600080fd5b50614e478a828b01614bf3565b91505092959891949750929550565b60008060408385031215614e6957600080fd5b8235614e7481614a50565b9150602083013567ffffffffffffffff811115614e9057600080fd5b8301601f81018513614ea157600080fd5b614eb085823560208401614c4e565b9150509250929050565b600060208284031215614ecc57600080fd5b5035919050565b60008060408385031215614ee657600080fd5b8235614ef181614a50565b9150614eff60208401614b70565b90509250929050565b60008060408385031215614f1b57600080fd5b8235614f2681614a50565b946020939093013593505050565b602080825282516001600160a01b031682820152828101516060604084015280516080840181905260009291820190839060a08601905b80831015614f8e57835160ff168252928401926001929092019190840190614f6b565b5060ff60408801511660608701528094505050505092915050565b60008060208385031215614fbc57600080fd5b823567ffffffffffffffff80821115614fd457600080fd5b818501915085601f830112614fe857600080fd5b813581811115614ff757600080fd5b8660208260051b850101111561500c57600080fd5b60209290920196919550909350505050565b60006020828403121561503057600080fd5b61132982614b70565b60005b8381101561505457818101518382015260200161503c565b50506000910152565b60008151808452615075816020860160208601615039565b601f01601f19169290920160200192915050565b60ff8816815286602082015285604082015284606082015260e0608082015260006150b760e083018661505d565b82810360a08401526150c9818661505d565b9150508260c083015298975050505050505050565b6000806000606084860312156150f357600080fd5b6150fc84614b70565b925061510a60208501614a23565b915061511860408501614a23565b90509250925092565b600081518084526020808501945080840160005b8381101561515a5781516001600160a01b031687529582019590820190600101615135565b509495945050505050565b6040815260006151786040830185615121565b905061ffff831660208301529392505050565b60808152600061519e6080830187615121565b85602084015282810360408401526151b68186615121565b91505082606083015295945050505050565b600081518084526020808501945080840160005b8381101561515a578151875295820195908201906001016151dc565b602081526152126020820183516001600160a01b03169052565b60006020830151610160806040850152615230610180850183615121565b91506040850151601f198086850301606087015261524e8483615121565b9350606087015191508086850301608087015261526b84836151c8565b9350608087015160a087015260a087015160c087015260c087015160e087015260e087015191506101008187860301818801526152a885846151c8565b9450808801519250506101208187860301818801526152c785846151c8565b9450808801519250506101408187860301818801526152e685846151c8565b945080880151925050506152fd8286018215159052565b5090949350505050565b84815260806020820152600061532060808301866151c8565b6040830194909452506001600160a01b039190911660609091015292915050565b60006020828403121561535357600080fd5b8151801515811461132957600080fd5b60006020828403121561537557600080fd5b815161132981614a50565b634e487b7160e01b600052603260045260246000fd5b634e487b7160e01b600052601160045260246000fd5b8082018082111561085d5761085d615396565b6000600182016153d1576153d1615396565b5060010190565b6020808252601190820152702cb7ba9030b932903737ba1030b236b4b760791b604082015260600190565b600181811c9082168061541757607f821691505b602082108103613c8f57634e487b7160e01b600052602260045260246000fd5b601f821115611a3457600081815260208120601f850160051c8101602086101561545e5750805b601f850160051c820191505b8181101561547d5782815560010161546a565b505050505050565b815167ffffffffffffffff81111561549f5761549f614b05565b6154b3816154ad8454615403565b84615437565b602080601f8311600181146154e857600084156154d05750858301515b600019600386901b1c1916600185901b17855561547d565b600085815260208120601f198616915b82811015615517578886015182559484019460019091019084016154f8565b50858210156155355787850151600019600388901b60f8161c191681555b5050505050600190811b01905550565b6020808252602c908201527f46756e6374696f6e206d7573742062652063616c6c6564207468726f7567682060408201526b19195b1959d85d1958d85b1b60a21b606082015260800190565b6020808252602c908201527f46756e6374696f6e206d7573742062652063616c6c6564207468726f7567682060408201526b6163746976652070726f787960a01b606082015260800190565b600061ffff8083168181036155f4576155f4615396565b6001019392505050565b8181038181111561085d5761085d615396565b600060ff821660ff810361562757615627615396565b60010192915050565b808202811582820484141761085d5761085d615396565b634e487b7160e01b600052601260045260246000fd5b60008261566c5761566c615647565b500490565b60008261568057615680615647565b500690565b61ffff8181168382160190808211156156a0576156a0615396565b5092915050565b6000602082840312156156b957600080fd5b5051919050565b6020808252602b908201527f496e697469616c697a61626c653a20636f6e7472616374206973206e6f74206960408201526a6e697469616c697a696e6760a81b606082015260800190565b61ffff8281168282160390808211156156a0576156a0615396565b60008251615738818460208701615039565b9190910192915050565b602081526000611329602083018461505d56fe360894a13ba1a3210667c828492db98dca3e2076cc3735a920a3ca505d382bbc416464726573733a206c6f772d6c6576656c2064656c65676174652063616c6c206661696c6564a264697066735822122050ea1cded8744b51d8446f43726eb6533c9ef7d61a79b502a43dfd87815662c264736f6c63430008110033",
  "linkReferences": {},
  "deployedLinkReferences": {}
}