{
  "_format": "hh-sol-artifact-1",
  "contractName": "ReferralUpgradeable",
  "sourceName": "contracts/ReferralUpgradeable.sol",
  "abi": [
    {
      "anonymous": false,
      "inputs": [
        {
          "indexed": false,
          "internalType": "address",
          "name": "previousAdmin",
          "type": "address"
        },
        {
          "indexed": false,
          "internalType": "address",
          "name": "newAdmin",
          "type": "address"
        }
      ],
      "name": "AdminChanged",
      "type": "event"
    },
    {
      "anonymous": false,
      "inputs": [
        {
          "indexed": true,
          "internalType": "address",
          "name": "beacon",
          "type": "address"
        }
      ],
      "name": "BeaconUpgraded",
      "type": "event"
    },
    {
      "anonymous": false,
      "inputs": [
        {
          "indexed": true,
          "internalType": "address",
          "name": "userAddressaddress",
          "type": "address"
        }
      ],
      "name": "CoreMemberAdded",
      "type": "event"
    },
    {
      "anonymous": false,
      "inputs": [
        {
          "indexed": false,
          "internalType": "address",
          "name": "userAddress",
          "type": "address"
        }
      ],
      "name": "CoreMemberRemoved",
      "type": "event"
    },
    {
      "anonymous": false,
      "inputs": [
        {
          "indexed": true,
          "internalType": "uint256",
          "name": "value",
          "type": "uint256"
        },
        {
          "indexed": true,
          "internalType": "address",
          "name": "userAddress",
          "type": "address"
        }
      ],
      "name": "CoreMemberRewardPaid",
      "type": "event"
    },
    {
      "anonymous": false,
      "inputs": [
        {
          "indexed": false,
          "internalType": "address",
          "name": "userAddress",
          "type": "address"
        }
      ],
      "name": "GlobalAddressAdded",
      "type": "event"
    },
    {
      "anonymous": false,
      "inputs": [
        {
          "indexed": false,
          "internalType": "address",
          "name": "userAddress",
          "type": "address"
        }
      ],
      "name": "GlobalAddressRemoved",
      "type": "event"
    },
    {
      "anonymous": false,
      "inputs": [
        {
          "indexed": false,
          "internalType": "uint256",
          "name": "value",
          "type": "uint256"
        },
        {
          "indexed": false,
          "internalType": "address",
          "name": "userAddress",
          "type": "address"
        }
      ],
      "name": "GlobalRewardPaid",
      "type": "event"
    },
    {
      "anonymous": false,
      "inputs": [
        {
          "indexed": false,
          "internalType": "uint8",
          "name": "version",
          "type": "uint8"
        }
      ],
      "name": "Initialized",
      "type": "event"
    },
    {
      "anonymous": false,
      "inputs": [
        {
          "indexed": true,
          "internalType": "address",
          "name": "previousOwner",
          "type": "address"
        },
        {
          "indexed": true,
          "internalType": "address",
          "name": "newOwner",
          "type": "address"
        }
      ],
      "name": "OwnershipTransferred",
      "type": "event"
    },
    {
      "anonymous": false,
      "inputs": [
        {
          "indexed": true,
          "internalType": "uint256",
          "name": "value",
          "type": "uint256"
        },
        {
          "indexed": true,
          "internalType": "address",
          "name": "userAddress",
          "type": "address"
        }
      ],
      "name": "PassiveRewardPaid",
      "type": "event"
    },
    {
      "anonymous": false,
      "inputs": [
        {
          "indexed": false,
          "internalType": "address",
          "name": "account",
          "type": "address"
        }
      ],
      "name": "Paused",
      "type": "event"
    },
    {
      "anonymous": false,
      "inputs": [
        {
          "indexed": true,
          "internalType": "address",
          "name": "referee",
          "type": "address"
        },
        {
          "indexed": true,
          "internalType": "address",
          "name": "referrer",
          "type": "address"
        },
        {
          "indexed": true,
          "internalType": "uint256",
          "name": "amount",
          "type": "uint256"
        },
        {
          "indexed": false,
          "internalType": "uint256",
          "name": "level",
          "type": "uint256"
        },
        {
          "indexed": false,
          "internalType": "string",
          "name": "currency",
          "type": "string"
        }
      ],
      "name": "ReferralRewardPaid",
      "type": "event"
    },
    {
      "anonymous": false,
      "inputs": [
        {
          "indexed": true,
          "internalType": "address",
          "name": "referee",
          "type": "address"
        },
        {
          "indexed": true,
          "internalType": "address",
          "name": "referrer",
          "type": "address"
        },
        {
          "indexed": true,
          "internalType": "string",
          "name": "reason",
          "type": "string"
        }
      ],
      "name": "RegisterRefererFailed",
      "type": "event"
    },
    {
      "anonymous": false,
      "inputs": [
        {
          "indexed": true,
          "internalType": "address",
          "name": "referrer",
          "type": "address"
        },
        {
          "indexed": true,
          "internalType": "address",
          "name": "referee",
          "type": "address"
        }
      ],
      "name": "RegisteredReferer",
      "type": "event"
    },
    {
      "anonymous": false,
      "inputs": [
        {
          "indexed": true,
          "internalType": "address",
          "name": "parent",
          "type": "address"
        },
        {
          "indexed": true,
          "internalType": "address",
          "name": "referrer",
          "type": "address"
        },
        {
          "indexed": true,
          "internalType": "address",
          "name": "referee",
          "type": "address"
        }
      ],
      "name": "RegisteredTeamAddress",
      "type": "event"
    },
    {
      "anonymous": false,
      "inputs": [
        {
          "indexed": false,
          "internalType": "address",
          "name": "account",
          "type": "address"
        }
      ],
      "name": "Unpaused",
      "type": "event"
    },
    {
      "anonymous": false,
      "inputs": [
        {
          "indexed": true,
          "internalType": "address",
          "name": "implementation",
          "type": "address"
        }
      ],
      "name": "Upgraded",
      "type": "event"
    },
    {
      "inputs": [
        {
          "internalType": "address[]",
          "name": "_userReferee",
          "type": "address[]"
        },
        {
          "internalType": "uint256",
          "name": "_valueToCompare",
          "type": "uint256"
        }
      ],
      "name": "_userDirectBusinessIsAbove",
      "outputs": [
        {
          "internalType": "bool",
          "name": "",
          "type": "bool"
        }
      ],
      "stateMutability": "view",
      "type": "function"
    },
    {
      "inputs": [
        {
          "internalType": "address[]",
          "name": "_userAddress",
          "type": "address[]"
        },
        {
          "internalType": "address[]",
          "name": "_referrerAddress",
          "type": "address[]"
        }
      ],
      "name": "addReferrerAdmin",
      "outputs": [],
      "stateMutability": "nonpayable",
      "type": "function"
    },
    {
      "inputs": [],
      "name": "contractDefaults",
      "outputs": [
        {
          "internalType": "uint256",
          "name": "levelDecimals",
          "type": "uint256"
        },
        {
          "internalType": "uint256[]",
          "name": "levelRates",
          "type": "uint256[]"
        },
        {
          "internalType": "uint256",
          "name": "totalLevelRate",
          "type": "uint256"
        },
        {
          "internalType": "address",
          "name": "defaultReferrer",
          "type": "address"
        }
      ],
      "stateMutability": "view",
      "type": "function"
    },
    {
      "inputs": [
        {
          "internalType": "address",
          "name": "_address",
          "type": "address"
        }
      ],
      "name": "getUserAccount",
      "outputs": [
        {
          "components": [
            {
              "internalType": "address",
              "name": "referrer",
              "type": "address"
            },
            {
              "internalType": "address[]",
              "name": "referee",
              "type": "address[]"
            },
            {
              "internalType": "address[]",
              "name": "team",
              "type": "address[]"
            },
            {
              "internalType": "uint256",
              "name": "selfBusiness",
              "type": "uint256"
            },
            {
              "internalType": "uint256",
              "name": "totalBusiness",
              "type": "uint256"
            },
            {
              "internalType": "uint256[]",
              "name": "rewardsPaidReferral",
              "type": "uint256[]"
            },
            {
              "internalType": "uint256[]",
              "name": "rewardsPaidGlobal",
              "type": "uint256[]"
            },
            {
              "internalType": "uint256[]",
              "name": "rewardPaidPassive",
              "type": "uint256[]"
            },
            {
              "internalType": "bool",
              "name": "isInGlobalID",
              "type": "bool"
            },
            {
              "internalType": "uint256[]",
              "name": "blockNumbers",
              "type": "uint256[]"
            }
          ],
          "internalType": "struct ReferralUpgradeable.Account",
          "name": "userAccount",
          "type": "tuple"
        }
      ],
      "stateMutability": "view",
      "type": "function"
    },
    {
      "inputs": [
        {
          "internalType": "address",
          "name": "_address",
          "type": "address"
        }
      ],
      "name": "getUserReferrerAddress",
      "outputs": [
        {
          "internalType": "address",
          "name": "referrer",
          "type": "address"
        }
      ],
      "stateMutability": "view",
      "type": "function"
    },
    {
      "inputs": [
        {
          "internalType": "address",
          "name": "_address",
          "type": "address"
        }
      ],
      "name": "getUserTeam",
      "outputs": [
        {
          "internalType": "address[]",
          "name": "userReferee",
          "type": "address[]"
        },
        {
          "internalType": "uint256",
          "name": "userRefereeCount",
          "type": "uint256"
        },
        {
          "internalType": "address[]",
          "name": "userTeamAddress",
          "type": "address[]"
        },
        {
          "internalType": "uint256",
          "name": "userTeamCount",
          "type": "uint256"
        }
      ],
      "stateMutability": "view",
      "type": "function"
    },
    {
      "inputs": [
        {
          "internalType": "address",
          "name": "_address",
          "type": "address"
        }
      ],
      "name": "getUserTotalBusiness",
      "outputs": [
        {
          "internalType": "uint256",
          "name": "totalBusiness",
          "type": "uint256"
        },
        {
          "internalType": "uint256",
          "name": "directBusiness",
          "type": "uint256"
        },
        {
          "internalType": "uint256",
          "name": "refereeTeamBusiness",
          "type": "uint256"
        },
        {
          "internalType": "uint256",
          "name": "teamBusiness",
          "type": "uint256"
        }
      ],
      "stateMutability": "view",
      "type": "function"
    },
    {
      "inputs": [
        {
          "internalType": "address",
          "name": "_address",
          "type": "address"
        }
      ],
      "name": "getUserTotalRewardPaid",
      "outputs": [
        {
          "internalType": "uint256",
          "name": "rewardsAUSD",
          "type": "uint256"
        },
        {
          "internalType": "uint256",
          "name": "rewardsGlobal",
          "type": "uint256"
        },
        {
          "internalType": "uint256",
          "name": "rewardsPassive",
          "type": "uint256"
        }
      ],
      "stateMutability": "view",
      "type": "function"
    },
    {
      "inputs": [
        {
          "internalType": "address",
          "name": "_address",
          "type": "address"
        }
      ],
      "name": "hasReferrer",
      "outputs": [
        {
          "internalType": "bool",
          "name": "",
          "type": "bool"
        }
      ],
      "stateMutability": "view",
      "type": "function"
    },
    {
      "inputs": [],
      "name": "initialize",
      "outputs": [],
      "stateMutability": "nonpayable",
      "type": "function"
    },
    {
      "inputs": [],
      "name": "owner",
      "outputs": [
        {
          "internalType": "address",
          "name": "",
          "type": "address"
        }
      ],
      "stateMutability": "view",
      "type": "function"
    },
    {
      "inputs": [],
      "name": "pause",
      "outputs": [],
      "stateMutability": "nonpayable",
      "type": "function"
    },
    {
      "inputs": [],
      "name": "paused",
      "outputs": [
        {
          "internalType": "bool",
          "name": "",
          "type": "bool"
        }
      ],
      "stateMutability": "view",
      "type": "function"
    },
    {
      "inputs": [
        {
          "internalType": "uint256",
          "name": "_value",
          "type": "uint256"
        },
        {
          "internalType": "address",
          "name": "_userAddress",
          "type": "address"
        },
        {
          "internalType": "address",
          "name": "_referrerAddress",
          "type": "address"
        }
      ],
      "name": "payReferralANUSDAdmin",
      "outputs": [],
      "stateMutability": "nonpayable",
      "type": "function"
    },
    {
      "inputs": [],
      "name": "proxiableUUID",
      "outputs": [
        {
          "internalType": "bytes32",
          "name": "",
          "type": "bytes32"
        }
      ],
      "stateMutability": "view",
      "type": "function"
    },
    {
      "inputs": [],
      "name": "renounceOwnership",
      "outputs": [],
      "stateMutability": "nonpayable",
      "type": "function"
    },
    {
      "inputs": [
        {
          "internalType": "address payable",
          "name": "_address",
          "type": "address"
        }
      ],
      "name": "setDefaultReferrer",
      "outputs": [],
      "stateMutability": "nonpayable",
      "type": "function"
    },
    {
      "inputs": [
        {
          "internalType": "uint256",
          "name": "_value",
          "type": "uint256"
        }
      ],
      "name": "setLevelDecimals",
      "outputs": [
        {
          "internalType": "bool",
          "name": "",
          "type": "bool"
        }
      ],
      "stateMutability": "nonpayable",
      "type": "function"
    },
    {
      "inputs": [
        {
          "internalType": "uint256[]",
          "name": "_valueInArray",
          "type": "uint256[]"
        }
      ],
      "name": "setLevelRates",
      "outputs": [],
      "stateMutability": "nonpayable",
      "type": "function"
    },
    {
      "inputs": [
        {
          "internalType": "address",
          "name": "_address",
          "type": "address"
        },
        {
          "internalType": "uint256",
          "name": "_value",
          "type": "uint256"
        }
      ],
      "name": "transferNative",
      "outputs": [],
      "stateMutability": "nonpayable",
      "type": "function"
    },
    {
      "inputs": [
        {
          "internalType": "address",
          "name": "newOwner",
          "type": "address"
        }
      ],
      "name": "transferOwnership",
      "outputs": [],
      "stateMutability": "nonpayable",
      "type": "function"
    },
    {
      "inputs": [],
      "name": "unpause",
      "outputs": [],
      "stateMutability": "nonpayable",
      "type": "function"
    },
    {
      "inputs": [
        {
          "internalType": "address",
          "name": "newImplementation",
          "type": "address"
        }
      ],
      "name": "upgradeTo",
      "outputs": [],
      "stateMutability": "nonpayable",
      "type": "function"
    },
    {
      "inputs": [
        {
          "internalType": "address",
          "name": "newImplementation",
          "type": "address"
        },
        {
          "internalType": "bytes",
          "name": "data",
          "type": "bytes"
        }
      ],
      "name": "upgradeToAndCall",
      "outputs": [],
      "stateMutability": "payable",
      "type": "function"
    },
    {
      "inputs": [
        {
          "internalType": "address",
          "name": "_address",
          "type": "address"
        }
      ],
      "name": "userTransactionsBlocks",
      "outputs": [
        {
          "internalType": "uint256[]",
          "name": "",
          "type": "uint256[]"
        }
      ],
      "stateMutability": "view",
      "type": "function"
    },
    {
      "inputs": [],
      "name": "withdrawNative",
      "outputs": [],
      "stateMutability": "nonpayable",
      "type": "function"
    },
    {
      "inputs": [
        {
          "internalType": "address",
          "name": "_tokenAddress",
          "type": "address"
        },
        {
          "internalType": "uint256",
          "name": "_value",
          "type": "uint256"
        }
      ],
      "name": "withdrawtokens",
      "outputs": [],
      "stateMutability": "nonpayable",
      "type": "function"
    },
    {
      "stateMutability": "payable",
      "type": "receive"
    }
  ],
  "bytecode": "0x60a06040523060805234801561001457600080fd5b506080516139e961004c60003960008181611134015281816111740152818161122501528181611265015261132c01526139e96000f3fe6080604052600436106101a05760003560e01c8063715018a6116100ec578063cfbdb8591161008a578063f2fde38b11610064578063f2fde38b146104d2578063faeda7e5146104f2578063fb47e01614610522578063fb5d45261461054f57600080fd5b8063cfbdb85914610457578063dcf6e81914610477578063ef519dc01461049757600080fd5b80638129fc1c116100c65780638129fc1c146103ef5780638456cb59146104045780638da5cb5b146104195780638f3ddc9f1461043757600080fd5b8063715018a61461038d5780637393402e146103a25780637d2e90c2146103cf57600080fd5b80633659cfe6116101595780634f1ef286116101335780634f1ef2861461032a57806350431ce41461033d57806352d1902d146103525780635c975abb1461037557600080fd5b80633659cfe6146102a35780633f4ba83a146102c357806343b4ebf4146102d857600080fd5b80631024a5ec146101ac57806318452cd8146101e1578063228159b4146102015780632405091c14610223578063277bb90014610263578063345b5b851461028357600080fd5b366101a757005b600080fd5b3480156101b857600080fd5b506101cc6101c73660046131f7565b610574565b60405190151581526020015b60405180910390f35b3480156101ed57600080fd5b506101cc6101fc3660046132af565b610603565b34801561020d57600080fd5b5061022161021c3660046132cc565b610628565b005b34801561022f57600080fd5b5061024361023e3660046132af565b6107fd565b6040805194855260208501939093529183015260608201526080016101d8565b34801561026f57600080fd5b5061022161027e36600461330e565b611098565b34801561028f57600080fd5b5061022161029e366004613386565b611116565b3480156102af57600080fd5b506102216102be3660046132af565b61112a565b3480156102cf57600080fd5b50610221611209565b3480156102e457600080fd5b506103126102f33660046132af565b6001600160a01b03908116600090815261010960205260409020541690565b6040516001600160a01b0390911681526020016101d8565b6102216103383660046133c8565b61121b565b34801561034957600080fd5b506102216112eb565b34801561035e57600080fd5b5061036761131f565b6040519081526020016101d8565b34801561038157600080fd5b5060335460ff166101cc565b34801561039957600080fd5b506102216113d2565b3480156103ae57600080fd5b506103c26103bd3660046132af565b6113e4565b6040516101d891906134ab565b3480156103db57600080fd5b506102216103ea36600461330e565b611457565b3480156103fb57600080fd5b50610221611495565b34801561041057600080fd5b5061022161167b565b34801561042557600080fd5b506065546001600160a01b0316610312565b34801561044357600080fd5b506102216104523660046134be565b61168b565b34801561046357600080fd5b506101cc61047236600461352a565b6117bc565b34801561048357600080fd5b506102216104923660046132af565b6117cf565b3480156104a357600080fd5b506104b76104b23660046132af565b6117fa565b604080519384526020840192909252908201526060016101d8565b3480156104de57600080fd5b506102216104ed3660046132af565b611915565b3480156104fe57600080fd5b5061051261050d3660046132af565b61198b565b6040516101d8949392919061357c565b34801561052e57600080fd5b5061054261053d3660046132af565b611a78565b6040516101d891906135b9565b34801561055b57600080fd5b50610564611d50565b6040516101d894939291906136b8565b815160009081805b828110156105e657610109600087838151811061059b5761059b6136f2565b60200260200101516001600160a01b03166001600160a01b0316815260200190815260200160002060030154826105d2919061371e565b9150806105de81613731565b91505061057c565b508381116105f55760006105f8565b60015b925050505b92915050565b6001600160a01b038082166000908152610109602052604081205490911615156105fd565b3361063b6065546001600160a01b031690565b6001600160a01b0316816001600160a01b031614806106e1575060fb60009054906101000a90046001600160a01b03166001600160a01b03166363d9df856040518163ffffffff1660e01b8152600401602060405180830381865afa1580156106a8573d6000803e3d6000fd5b505050506040513d601f19601f820116820180604052508101906106cc919061374a565b6001600160a01b0316816001600160a01b0316145b61073d5760405162461bcd60e51b815260206004820152602260248201527f4f6e6c79206f776e65722063616e2063616c6c20746869732066756e6374696f604482015261371760f11b60648201526084015b60405180910390fd5b6001600160a01b03838116600090815261010960205260409020541615801561076e57506001600160a01b03821615155b156107875761077d8383611e17565b6107878383611f31565b6001600160a01b0382811660009081526101096020526040902054161580156107b857506001600160a01b03821615155b156107ed57610100546107d59083906001600160a01b0316611e17565b610100546107ed9083906001600160a01b0316611f31565b6107f78484611fe5565b50505050565b6001600160a01b038116600090815261010960205260408120600181015460028201546004830154939283928392835b82811015610af55760006101096000866001018481548110610851576108516136f2565b60009182526020808320909101546001600160a01b039081168452838201949094526040928301909120825161014081018452815490941684526001810180548451818502810185019095528085529193858401939092908301828280156108e257602002820191906000526020600020905b81546001600160a01b031681526001909101906020018083116108c4575b505050505081526020016002820180548060200260200160405190810160405280929190818152602001828054801561094457602002820191906000526020600020905b81546001600160a01b03168152600190910190602001808311610926575b505050505081526020016003820154815260200160048201548152602001600582018054806020026020016040519081016040528092919081815260200182805480156109b057602002820191906000526020600020905b81548152602001906001019080831161099c575b5050505050815260200160068201805480602002602001604051908101604052809291908181526020018280548015610a0857602002820191906000526020600020905b8154815260200190600101908083116109f4575b5050505050815260200160078201805480602002602001604051908101604052809291908181526020018280548015610a6057602002820191906000526020600020905b815481526020019060010190808311610a4c575b5050509183525050600882015460ff1615156020808301919091526009830180546040805182850281018501825282815294019392830182828015610ac457602002820191906000526020600020905b815481526020019060010190808311610ab0575b5050505050815250509050806060015188610adf919061371e565b9750508080610aed90613731565b91505061082d565b5060005b82811015610dc15760006101096000866001018481548110610b1d57610b1d6136f2565b60009182526020808320909101546001600160a01b03908116845283820194909452604092830190912082516101408101845281549094168452600181018054845181850281018501909552808552919385840193909290830182828015610bae57602002820191906000526020600020905b81546001600160a01b03168152600190910190602001808311610b90575b5050505050815260200160028201805480602002602001604051908101604052809291908181526020018280548015610c1057602002820191906000526020600020905b81546001600160a01b03168152600190910190602001808311610bf2575b50505050508152602001600382015481526020016004820154815260200160058201805480602002602001604051908101604052809291908181526020018280548015610c7c57602002820191906000526020600020905b815481526020019060010190808311610c68575b5050505050815260200160068201805480602002602001604051908101604052809291908181526020018280548015610cd457602002820191906000526020600020905b815481526020019060010190808311610cc0575b5050505050815260200160078201805480602002602001604051908101604052809291908181526020018280548015610d2c57602002820191906000526020600020905b815481526020019060010190808311610d18575b5050509183525050600882015460ff1615156020808301919091526009830180546040805182850281018501825282815294019392830182828015610d9057602002820191906000526020600020905b815481526020019060010190808311610d7c575b5050505050815250509050806080015187610dab919061371e565b9650508080610db990613731565b915050610af9565b5060005b8181101561108d5760006101096000866002018481548110610de957610de96136f2565b60009182526020808320909101546001600160a01b03908116845283820194909452604092830190912082516101408101845281549094168452600181018054845181850281018501909552808552919385840193909290830182828015610e7a57602002820191906000526020600020905b81546001600160a01b03168152600190910190602001808311610e5c575b5050505050815260200160028201805480602002602001604051908101604052809291908181526020018280548015610edc57602002820191906000526020600020905b81546001600160a01b03168152600190910190602001808311610ebe575b50505050508152602001600382015481526020016004820154815260200160058201805480602002602001604051908101604052809291908181526020018280548015610f4857602002820191906000526020600020905b815481526020019060010190808311610f34575b5050505050815260200160068201805480602002602001604051908101604052809291908181526020018280548015610fa057602002820191906000526020600020905b815481526020019060010190808311610f8c575b5050505050815260200160078201805480602002602001604051908101604052809291908181526020018280548015610ff857602002820191906000526020600020905b815481526020019060010190808311610fe4575b5050509183525050600882015460ff161515602080830191909152600983018054604080518285028101850182528281529401939283018282801561105c57602002820191906000526020600020905b815481526020019060010190808311611048575b5050505050815250509050806080015186611077919061371e565b955050808061108590613731565b915050610dc5565b505050509193509193565b6110a0612aa5565b60405163a9059cbb60e01b8152336004820152602481018290526001600160a01b0383169063a9059cbb906044016020604051808303816000875af11580156110ed573d6000803e3d6000fd5b505050506040513d601f19601f820116820180604052508101906111119190613767565b505050565b61111e612aa5565b61111160fc83836130fb565b6001600160a01b037f00000000000000000000000000000000000000000000000000000000000000001630036111725760405162461bcd60e51b815260040161073490613789565b7f00000000000000000000000000000000000000000000000000000000000000006001600160a01b03166111bb60008051602061396d833981519152546001600160a01b031690565b6001600160a01b0316146111e15760405162461bcd60e51b8152600401610734906137d5565b6111ea81612aff565b6040805160008082526020820190925261120691839190612b07565b50565b611211612aa5565b611219612c72565b565b6001600160a01b037f00000000000000000000000000000000000000000000000000000000000000001630036112635760405162461bcd60e51b815260040161073490613789565b7f00000000000000000000000000000000000000000000000000000000000000006001600160a01b03166112ac60008051602061396d833981519152546001600160a01b031690565b6001600160a01b0316146112d25760405162461bcd60e51b8152600401610734906137d5565b6112db82612aff565b6112e782826001612b07565b5050565b6112f3612aa5565b60405133904780156108fc02916000818181858888f19350505050158015611206573d6000803e3d6000fd5b6000306001600160a01b037f000000000000000000000000000000000000000000000000000000000000000016146113bf5760405162461bcd60e51b815260206004820152603860248201527f555550535570677261646561626c653a206d757374206e6f742062652063616c60448201527f6c6564207468726f7567682064656c656761746563616c6c00000000000000006064820152608401610734565b5060008051602061396d83398151915290565b6113da612aa5565b6112196000612cc4565b6001600160a01b03811660009081526101096020908152604091829020600981018054845181850281018501909552808552606094929383018282801561144a57602002820191906000526020600020905b815481526020019060010190808311611436575b5050505050915050919050565b61145f612aa5565b6040516001600160a01b0383169082156108fc029083906000818181858888f19350505050158015611111573d6000803e3d6000fd5b600054610100900460ff16158080156114b55750600054600160ff909116105b806114cf5750303b1580156114cf575060005460ff166001145b6115325760405162461bcd60e51b815260206004820152602e60248201527f496e697469616c697a61626c653a20636f6e747261637420697320616c72656160448201526d191e481a5b9a5d1a585b1a5e995960921b6064820152608401610734565b6000805460ff191660011790558015611555576000805461ff0019166101001790555b60fb80546001600160a01b031990811673be5153baa3756402b08fd830e7b5f00a76e6823117909155610100805490911673435f95425891a92a8fc798c440bf8e9f74cdeec31790556040805160e0810182526007808252600460208301526003928201929092526002606082015260016080820181905260a0820181905260c08201526115e69160fc9190613146565b50606460fd5560146101065569011478b7c30abc3000006101035560046101015560056101045568a80d24677efef0000061010555611623612d16565b61162b612d45565b611633612d74565b8015611206576000805461ff0019169055604051600181527f7f26b83ff96e1f2b6a682f133852f6798a09c465da95921460cefb38474024989060200160405180910390a150565b611683612aa5565b611219612d9b565b611693612aa5565b8281146116ec5760405162461bcd60e51b815260206004820152602160248201527f4c656e677468206973206e6f7420657175616c20706c6561736520636865636b6044820152601760f91b6064820152608401610734565b60005b838110156117b55761174d85858381811061170c5761170c6136f2565b905060200201602081019061172191906132af565b848484818110611733576117336136f2565b905060200201602081019061174891906132af565b611e17565b6117a3858583818110611762576117626136f2565b905060200201602081019061177791906132af565b848484818110611789576117896136f2565b905060200201602081019061179e91906132af565b611f31565b806117ad81613731565b9150506116ef565b5050505050565b60006117c6612aa5565b5060fd55600190565b6117d7612aa5565b61010080546001600160a01b0319166001600160a01b0392909216919091179055565b6001600160a01b0381166000908152610109602052604081206005810154600682015460078301548493849390929091845b8381101561187357846005018181548110611849576118496136f2565b90600052602060002001548861185f919061371e565b97508061186b81613731565b91505061182c565b5060005b828110156118be57846006018181548110611894576118946136f2565b9060005260206000200154876118aa919061371e565b9650806118b681613731565b915050611877565b5060005b81811015611909578460070181815481106118df576118df6136f2565b9060005260206000200154866118f5919061371e565b95508061190181613731565b9150506118c2565b50505050509193909250565b61191d612aa5565b6001600160a01b0381166119825760405162461bcd60e51b815260206004820152602660248201527f4f776e61626c653a206e6577206f776e657220697320746865207a65726f206160448201526564647265737360d01b6064820152608401610734565b61120681612cc4565b6001600160a01b03811660009081526101096020908152604080832060018101805483518186028101860190945280845260609594869486949390929091830182828015611a0257602002820191906000526020600020905b81546001600160a01b031681526001909101906020018083116119e4575b505050505094508451935080600201805480602002602001604051908101604052809291908181526020018280548015611a6557602002820191906000526020600020905b81546001600160a01b03168152600190910190602001808311611a47575b5050505050925082519150509193509193565b611ad960405180610140016040528060006001600160a01b0316815260200160608152602001606081526020016000815260200160008152602001606081526020016060815260200160608152602001600015158152602001606081525090565b6001600160a01b038083166000908152610109602090815260409182902082516101408101845281549094168452600181018054845181850281018501909552808552919385840193909290830182828015611b5e57602002820191906000526020600020905b81546001600160a01b03168152600190910190602001808311611b40575b5050505050815260200160028201805480602002602001604051908101604052809291908181526020018280548015611bc057602002820191906000526020600020905b81546001600160a01b03168152600190910190602001808311611ba2575b50505050508152602001600382015481526020016004820154815260200160058201805480602002602001604051908101604052809291908181526020018280548015611c2c57602002820191906000526020600020905b815481526020019060010190808311611c18575b5050505050815260200160068201805480602002602001604051908101604052809291908181526020018280548015611c8457602002820191906000526020600020905b815481526020019060010190808311611c70575b5050505050815260200160078201805480602002602001604051908101604052809291908181526020018280548015611cdc57602002820191906000526020600020905b815481526020019060010190808311611cc8575b5050509183525050600882015460ff1615156020808301919091526009830180546040805182850281018501825282815294019392830182828015611d4057602002820191906000526020600020905b815481526020019060010190808311611d2c575b5050505050815250509050919050565b60fd5460fc8054604080516020808402820181019092528281526060936000938493830182828015611da157602002820191906000526020600020905b815481526020019060010190808311611d8d575b505060fc549396506000925050505b818160ff161015611dfb5760fc8160ff1681548110611dd157611dd16136f2565b906000526020600020015484611de7919061371e565b935080611df381613821565b915050611db0565b5050610100549394929391926001600160a01b03909216919050565b6001600160a01b03828116600090815261010960205260409020541615611eaa576040517f4164647265737320616c726561647920686176652072656665727265722e00008152601e016040518091039020816001600160a01b0316836001600160a01b03167f3a1a86984713a4f9021513989fe0334430012901d62639108f2a816c111a732f60405160405180910390a45b6001600160a01b0380831660008181526101096020908152604080832094861680845281842086546001600160a01b031990811683178855600180830180549182018155875294862090940180549094168617909355905191939290917ffaf63637882ff2d63ca76881cf92fb857130e36f350c926f9cc884b499b42b779190a350505050565b60fc54819060005b818110156117b5576001600160a01b038316156117b5576001600160a01b0383811660008181526101096020908152604080832060028101805460018101825590855292842090920180546001600160a01b0319168b87169081179091559051919490939089169290917fb766b19465b3277b0b275adf79d715cac93166bf6e6a39f26e4ccfdec76ad47e9190a4546001600160a01b0316925080611fdd81613731565b915050611f39565b60fb5460fc8054604080516020808402820181019092528281526001600160a01b03909416936000939092909183018282801561204157602002820191906000526020600020905b81548152602001906001019080831161202d575b5050506001600160a01b038616600090815261010960205260408120600381018054959650909489945090925061207990849061371e565b90915550506101065460009067ffffffffffffffff81111561209d5761209d61319b565b6040519080825280602002602001820160405280156120c6578160200160208202803683370190505b50905060008061010780548060200260200160405190810160405280929190818152602001828054801561212357602002820191906000526020600020905b81546001600160a01b03168152600190910190602001808311612105575b505050505090506000815190506000805b610106548110156125055786546001600160a01b031660008181526101096020526040902081612165575050612505565b895183101561244857600060648b8581518110612184576121846136f2565b60200260200101518f6121979190613840565b6121a1919061386d565b90508d8260040160008282546121b7919061371e565b90915550506005820180546001818101835560009283526020808420909201849055600985018054918201815583529120439101556121f6818661371e565b94508b6001600160a01b031663b70cc4c16040518163ffffffff1660e01b8152600401602060405180830381865afa158015612236573d6000803e3d6000fd5b505050506040513d601f19601f8201168201806040525081019061225a919061374a565b60405163a9059cbb60e01b81526001600160a01b03858116600483015260248201849052919091169063a9059cbb906044016020604051808303816000875af11580156122ab573d6000803e3d6000fd5b505050506040513d601f19601f820116820180604052508101906122cf9190613767565b50806001600160a01b03808516908f167f197a0a2b0fbff3fc4f7f4d32597585aa8415fcc4c5dd6634336ec65904529c8361230b88600161371e565b60408051918252602082018190526005908201526410539554d160da1b606082015260800160405180910390a4600882015460ff16612446576123ad8260010180548060200260200160405190810160405280929190818152602001828054801561239f57602002820191906000526020600020905b81546001600160a01b03168152600190910190602001808311612381575b505050505061010354610574565b15612446576101028054600180820183556000929092527f93bdaa6a4190909b7c3fbe8d42169ffe1cab19f51dfc8db24c71abf849eced4a0180546001600160a01b0319166001600160a01b03861690811790915560088401805460ff19169092179091556040519081527facc63915cb028aeaee9996abc0f864fc0559a2f955750aa97d6ef9f51014acfb9060200160405180910390a15b505b6124b1816001018054806020026020016040519081016040528092919081815260200182805480156124a357602002820191906000526020600020905b81546001600160a01b03168152600190910190602001808311612485575b505050505061010554610574565b156124ef57818888815181106124c9576124c96136f2565b6001600160a01b0390921660209283029190910190910152866124eb81613731565b9750505b97508190506124fd81613731565b915050612134565b508315612702576000846064610104548d6125209190613840565b61252a919061386d565b612534919061386d565b905060005b858110156126ff576000610109600089848151811061255a5761255a6136f2565b60200260200101516001600160a01b03166001600160a01b0316815260200190815260200160002090508a6001600160a01b031663b70cc4c16040518163ffffffff1660e01b8152600401602060405180830381865afa1580156125c2573d6000803e3d6000fd5b505050506040513d601f19601f820116820180604052508101906125e6919061374a565b6001600160a01b031663a9059cbb898481518110612606576126066136f2565b6020026020010151856040518363ffffffff1660e01b81526004016126409291906001600160a01b03929092168252602082015260400190565b6020604051808303816000875af115801561265f573d6000803e3d6000fd5b505050506040513d601f19601f820116820180604052508101906126839190613767565b50878281518110612696576126966136f2565b60200260200101516001600160a01b0316837f62f12b06523c734cca73aa1502a5f967c8e09d0a2f084fd36acbac47f54b0d4e60405160405180910390a360070180546001810182556000918252602090912001829055806126f781613731565b915050612539565b50505b61010254156128e25760006064610101548c61271e9190613840565b612728919061386d565b610102546040805142602082015244918101919091529192506000916060016040516020818303038152906040528051906020012060001c61276a9190613881565b905060006101028281548110612782576127826136f2565b60009182526020808320909101546001600160a01b039081168084526101098352604093849020845163b70cc4c160e01b8152945191955093918f169263b70cc4c192600480820193918290030181865afa1580156127e5573d6000803e3d6000fd5b505050506040513d601f19601f82011682018060405250810190612809919061374a565b60405163a9059cbb60e01b81526001600160a01b03848116600483015260248201879052919091169063a9059cbb906044016020604051808303816000875af115801561285a573d6000803e3d6000fd5b505050506040513d601f19601f8201168201806040525081019061287e9190613767565b50600681018054600181018255600091825260209182902001859055604080518681526001600160a01b038516928101929092527f51e673ac98f0ea063ce27eb5af807d22b97cd11cd79380cf1f711ad80948046c910160405180910390a1505050505b8115612a82576000826064610108548d6128fc9190613840565b612906919061386d565b612910919061386d565b905060005b83811015612a7f57896001600160a01b031663b70cc4c16040518163ffffffff1660e01b8152600401602060405180830381865afa15801561295b573d6000803e3d6000fd5b505050506040513d601f19601f8201168201806040525081019061297f919061374a565b6001600160a01b031663a9059cbb86838151811061299f5761299f6136f2565b6020026020010151846040518363ffffffff1660e01b81526004016129d99291906001600160a01b03929092168252602082015260400190565b6020604051808303816000875af11580156129f8573d6000803e3d6000fd5b505050506040513d601f19601f82011682018060405250810190612a1c9190613767565b50848181518110612a2f57612a2f6136f2565b60200260200101516001600160a01b0316827f6d550262135215fe2f5ef9b6fad45db8cf51267248f8b95e069f8025f6f9049a60405160405180910390a380612a7781613731565b915050612915565b50505b8060ff6000828254612a94919061371e565b909155505050505050505050505050565b6065546001600160a01b031633146112195760405162461bcd60e51b815260206004820181905260248201527f4f776e61626c653a2063616c6c6572206973206e6f7420746865206f776e65726044820152606401610734565b611206612aa5565b7f4910fdfa16fed3260ed0e7147f7cc6da11a60208b5b9406d12a635614ffd91435460ff1615612b3a5761111183612dd8565b826001600160a01b03166352d1902d6040518163ffffffff1660e01b8152600401602060405180830381865afa925050508015612b94575060408051601f3d908101601f19168201909252612b9191810190613895565b60015b612bf75760405162461bcd60e51b815260206004820152602e60248201527f45524331393637557067726164653a206e657720696d706c656d656e7461746960448201526d6f6e206973206e6f74205555505360901b6064820152608401610734565b60008051602061396d8339815191528114612c665760405162461bcd60e51b815260206004820152602960248201527f45524331393637557067726164653a20756e737570706f727465642070726f786044820152681a58589b195555525160ba1b6064820152608401610734565b50611111838383612e74565b612c7a612e99565b6033805460ff191690557f5db9ee0a495bf2e6ff9c91a7834c1ba4fdd244a5e8aa4e537bd38aeae4b073aa335b6040516001600160a01b03909116815260200160405180910390a1565b606580546001600160a01b038381166001600160a01b0319831681179093556040519116919082907f8be0079c531659141344cd1fd0a4f28419497f9722a3daafe3b4186f6b6457e090600090a35050565b600054610100900460ff16612d3d5760405162461bcd60e51b8152600401610734906138ae565b611219612ee2565b600054610100900460ff16612d6c5760405162461bcd60e51b8152600401610734906138ae565b611219612f15565b600054610100900460ff166112195760405162461bcd60e51b8152600401610734906138ae565b612da3612f45565b6033805460ff191660011790557f62e78cea01bee320cd4e420270b5ea74000d11b0c9f74754ebdbfc544b05a258612ca73390565b6001600160a01b0381163b612e455760405162461bcd60e51b815260206004820152602d60248201527f455243313936373a206e657720696d706c656d656e746174696f6e206973206e60448201526c1bdd08184818dbdb9d1c9858dd609a1b6064820152608401610734565b60008051602061396d83398151915280546001600160a01b0319166001600160a01b0392909216919091179055565b612e7d83612f8b565b600082511180612e8a5750805b15611111576107f78383612fcb565b60335460ff166112195760405162461bcd60e51b815260206004820152601460248201527314185d5cd8589b194e881b9bdd081c185d5cd95960621b6044820152606401610734565b600054610100900460ff16612f095760405162461bcd60e51b8152600401610734906138ae565b6033805460ff19169055565b600054610100900460ff16612f3c5760405162461bcd60e51b8152600401610734906138ae565b61121933612cc4565b60335460ff16156112195760405162461bcd60e51b815260206004820152601060248201526f14185d5cd8589b194e881c185d5cd95960821b6044820152606401610734565b612f9481612dd8565b6040516001600160a01b038216907fbc7cd75a20ee27fd9adebab32041f755214dbc6bffa90cc0225b39da2e5c2d3b90600090a250565b60606001600160a01b0383163b6130335760405162461bcd60e51b815260206004820152602660248201527f416464726573733a2064656c65676174652063616c6c20746f206e6f6e2d636f6044820152651b9d1c9858dd60d21b6064820152608401610734565b600080846001600160a01b03168460405161304e919061391d565b600060405180830381855af49150503d8060008114613089576040519150601f19603f3d011682016040523d82523d6000602084013e61308e565b606091505b50915091506105f8828260405180606001604052806027815260200161398d60279139606083156130c05750816130ca565b6130ca83836130d1565b9392505050565b8151156130e15781518083602001fd5b8060405162461bcd60e51b81526004016107349190613939565b828054828255906000526020600020908101928215613136579160200282015b8281111561313657823582559160200191906001019061311b565b50613142929150613186565b5090565b828054828255906000526020600020908101928215613136579160200282015b82811115613136578251829060ff16905591602001919060010190613166565b5b808211156131425760008155600101613187565b634e487b7160e01b600052604160045260246000fd5b604051601f8201601f1916810167ffffffffffffffff811182821017156131da576131da61319b565b604052919050565b6001600160a01b038116811461120657600080fd5b6000806040838503121561320a57600080fd5b823567ffffffffffffffff8082111561322257600080fd5b818501915085601f83011261323657600080fd5b813560208282111561324a5761324a61319b565b8160051b925061325b8184016131b1565b828152928401810192818101908985111561327557600080fd5b948201945b8486101561329f578535935061328f846131e2565b838252948201949082019061327a565b9997909101359750505050505050565b6000602082840312156132c157600080fd5b81356130ca816131e2565b6000806000606084860312156132e157600080fd5b8335925060208401356132f3816131e2565b91506040840135613303816131e2565b809150509250925092565b6000806040838503121561332157600080fd5b823561332c816131e2565b946020939093013593505050565b60008083601f84011261334c57600080fd5b50813567ffffffffffffffff81111561336457600080fd5b6020830191508360208260051b850101111561337f57600080fd5b9250929050565b6000806020838503121561339957600080fd5b823567ffffffffffffffff8111156133b057600080fd5b6133bc8582860161333a565b90969095509350505050565b600080604083850312156133db57600080fd5b82356133e6816131e2565b915060208381013567ffffffffffffffff8082111561340457600080fd5b818601915086601f83011261341857600080fd5b81358181111561342a5761342a61319b565b61343c601f8201601f191685016131b1565b9150808252878482850101111561345257600080fd5b80848401858401376000848284010152508093505050509250929050565b600081518084526020808501945080840160005b838110156134a057815187529582019590820190600101613484565b509495945050505050565b6020815260006130ca6020830184613470565b600080600080604085870312156134d457600080fd5b843567ffffffffffffffff808211156134ec57600080fd5b6134f88883890161333a565b9096509450602087013591508082111561351157600080fd5b5061351e8782880161333a565b95989497509550505050565b60006020828403121561353c57600080fd5b5035919050565b600081518084526020808501945080840160005b838110156134a05781516001600160a01b031687529582019590820190600101613557565b60808152600061358f6080830187613543565b85602084015282810360408401526135a78186613543565b91505082606083015295945050505050565b602081526135d36020820183516001600160a01b03169052565b600060208301516101408060408501526135f1610160850183613543565b91506040850151601f198086850301606087015261360f8483613543565b935060608701516080870152608087015160a087015260a08701519150808685030160c08701526136408483613470565b935060c08701519150808685030160e087015261365d8483613470565b935060e0870151915061010081878603018188015261367c8584613470565b9450808801519250506101206136958188018415159052565b8701518685039091018387015290506136ae8382613470565b9695505050505050565b8481526080602082015260006136d16080830186613470565b6040830194909452506001600160a01b039190911660609091015292915050565b634e487b7160e01b600052603260045260246000fd5b634e487b7160e01b600052601160045260246000fd5b808201808211156105fd576105fd613708565b60006001820161374357613743613708565b5060010190565b60006020828403121561375c57600080fd5b81516130ca816131e2565b60006020828403121561377957600080fd5b815180151581146130ca57600080fd5b6020808252602c908201527f46756e6374696f6e206d7573742062652063616c6c6564207468726f7567682060408201526b19195b1959d85d1958d85b1b60a21b606082015260800190565b6020808252602c908201527f46756e6374696f6e206d7573742062652063616c6c6564207468726f7567682060408201526b6163746976652070726f787960a01b606082015260800190565b600060ff821660ff810361383757613837613708565b60010192915050565b80820281158282048414176105fd576105fd613708565b634e487b7160e01b600052601260045260246000fd5b60008261387c5761387c613857565b500490565b60008261389057613890613857565b500690565b6000602082840312156138a757600080fd5b5051919050565b6020808252602b908201527f496e697469616c697a61626c653a20636f6e7472616374206973206e6f74206960408201526a6e697469616c697a696e6760a81b606082015260800190565b60005b838110156139145781810151838201526020016138fc565b50506000910152565b6000825161392f8184602087016138f9565b9190910192915050565b60208152600082518060208401526139588160408501602087016138f9565b601f01601f1916919091016040019291505056fe360894a13ba1a3210667c828492db98dca3e2076cc3735a920a3ca505d382bbc416464726573733a206c6f772d6c6576656c2064656c65676174652063616c6c206661696c6564a26469706673582212203975ed75b704eea07f9927fd3adb790fbd454d77c99e19300e2c679fd395948364736f6c63430008110033",
  "linkReferences": {},
  "deployedLinkReferences": {}
}