{
  "_format": "hh-sol-artifact-1",
  "contractName": "ReferralUpgradeable",
  "sourceName": "contracts/ReferralUpgradeable.sol",
  "abi": [
    {
      "anonymous": false,
      "inputs": [
        {
          "indexed": false,
          "internalType": "address",
          "name": "previousAdmin",
          "type": "address"
        },
        {
          "indexed": false,
          "internalType": "address",
          "name": "newAdmin",
          "type": "address"
        }
      ],
      "name": "AdminChanged",
      "type": "event"
    },
    {
      "anonymous": false,
      "inputs": [
        {
          "indexed": true,
          "internalType": "address",
          "name": "beacon",
          "type": "address"
        }
      ],
      "name": "BeaconUpgraded",
      "type": "event"
    },
    {
      "anonymous": false,
      "inputs": [
        {
          "indexed": true,
          "internalType": "address",
          "name": "userAddressaddress",
          "type": "address"
        }
      ],
      "name": "CoreMemberAdded",
      "type": "event"
    },
    {
      "anonymous": false,
      "inputs": [
        {
          "indexed": false,
          "internalType": "address",
          "name": "userAddress",
          "type": "address"
        }
      ],
      "name": "CoreMemberRemoved",
      "type": "event"
    },
    {
      "anonymous": false,
      "inputs": [
        {
          "indexed": true,
          "internalType": "uint256",
          "name": "value",
          "type": "uint256"
        },
        {
          "indexed": true,
          "internalType": "address",
          "name": "userAddress",
          "type": "address"
        }
      ],
      "name": "CoreMemberRewardPaid",
      "type": "event"
    },
    {
      "anonymous": false,
      "inputs": [
        {
          "indexed": false,
          "internalType": "address",
          "name": "userAddress",
          "type": "address"
        }
      ],
      "name": "GlobalAddressAdded",
      "type": "event"
    },
    {
      "anonymous": false,
      "inputs": [
        {
          "indexed": false,
          "internalType": "address",
          "name": "userAddress",
          "type": "address"
        }
      ],
      "name": "GlobalAddressRemoved",
      "type": "event"
    },
    {
      "anonymous": false,
      "inputs": [
        {
          "indexed": false,
          "internalType": "uint256",
          "name": "value",
          "type": "uint256"
        },
        {
          "indexed": false,
          "internalType": "address",
          "name": "userAddress",
          "type": "address"
        }
      ],
      "name": "GlobalRewardPaid",
      "type": "event"
    },
    {
      "anonymous": false,
      "inputs": [
        {
          "indexed": false,
          "internalType": "uint8",
          "name": "version",
          "type": "uint8"
        }
      ],
      "name": "Initialized",
      "type": "event"
    },
    {
      "anonymous": false,
      "inputs": [
        {
          "indexed": true,
          "internalType": "address",
          "name": "previousOwner",
          "type": "address"
        },
        {
          "indexed": true,
          "internalType": "address",
          "name": "newOwner",
          "type": "address"
        }
      ],
      "name": "OwnershipTransferred",
      "type": "event"
    },
    {
      "anonymous": false,
      "inputs": [
        {
          "indexed": true,
          "internalType": "uint256",
          "name": "value",
          "type": "uint256"
        },
        {
          "indexed": true,
          "internalType": "address",
          "name": "userAddress",
          "type": "address"
        }
      ],
      "name": "PassiveRewardPaid",
      "type": "event"
    },
    {
      "anonymous": false,
      "inputs": [
        {
          "indexed": false,
          "internalType": "address",
          "name": "account",
          "type": "address"
        }
      ],
      "name": "Paused",
      "type": "event"
    },
    {
      "anonymous": false,
      "inputs": [
        {
          "indexed": true,
          "internalType": "address",
          "name": "referee",
          "type": "address"
        },
        {
          "indexed": true,
          "internalType": "address",
          "name": "referrer",
          "type": "address"
        },
        {
          "indexed": true,
          "internalType": "uint256",
          "name": "amount",
          "type": "uint256"
        },
        {
          "indexed": false,
          "internalType": "uint256",
          "name": "level",
          "type": "uint256"
        },
        {
          "indexed": false,
          "internalType": "string",
          "name": "currency",
          "type": "string"
        }
      ],
      "name": "ReferralRewardPaid",
      "type": "event"
    },
    {
      "anonymous": false,
      "inputs": [
        {
          "indexed": true,
          "internalType": "address",
          "name": "referee",
          "type": "address"
        },
        {
          "indexed": true,
          "internalType": "address",
          "name": "referrer",
          "type": "address"
        },
        {
          "indexed": true,
          "internalType": "string",
          "name": "reason",
          "type": "string"
        }
      ],
      "name": "RegisterRefererFailed",
      "type": "event"
    },
    {
      "anonymous": false,
      "inputs": [
        {
          "indexed": true,
          "internalType": "address",
          "name": "referee",
          "type": "address"
        },
        {
          "indexed": true,
          "internalType": "address",
          "name": "referrer",
          "type": "address"
        }
      ],
      "name": "RegisteredReferer",
      "type": "event"
    },
    {
      "anonymous": false,
      "inputs": [
        {
          "indexed": true,
          "internalType": "address",
          "name": "parent",
          "type": "address"
        },
        {
          "indexed": true,
          "internalType": "address",
          "name": "referrer",
          "type": "address"
        },
        {
          "indexed": true,
          "internalType": "address",
          "name": "referee",
          "type": "address"
        }
      ],
      "name": "RegisteredTeamAddress",
      "type": "event"
    },
    {
      "anonymous": false,
      "inputs": [
        {
          "indexed": false,
          "internalType": "address",
          "name": "account",
          "type": "address"
        }
      ],
      "name": "Unpaused",
      "type": "event"
    },
    {
      "anonymous": false,
      "inputs": [
        {
          "indexed": true,
          "internalType": "address",
          "name": "implementation",
          "type": "address"
        }
      ],
      "name": "Upgraded",
      "type": "event"
    },
    {
      "inputs": [
        {
          "internalType": "address[]",
          "name": "_userAddress",
          "type": "address[]"
        },
        {
          "internalType": "address[]",
          "name": "_referrerAddress",
          "type": "address[]"
        }
      ],
      "name": "addReferrerAdmin",
      "outputs": [],
      "stateMutability": "nonpayable",
      "type": "function"
    },
    {
      "inputs": [],
      "name": "contractDefaults",
      "outputs": [
        {
          "internalType": "uint256",
          "name": "levelDecimals",
          "type": "uint256"
        },
        {
          "internalType": "uint256[]",
          "name": "levelRates",
          "type": "uint256[]"
        },
        {
          "internalType": "uint256",
          "name": "totalLevelRate",
          "type": "uint256"
        },
        {
          "internalType": "address",
          "name": "defaultReferrer",
          "type": "address"
        }
      ],
      "stateMutability": "view",
      "type": "function"
    },
    {
      "inputs": [
        {
          "internalType": "address",
          "name": "_address",
          "type": "address"
        }
      ],
      "name": "getUserAccount",
      "outputs": [
        {
          "components": [
            {
              "internalType": "address",
              "name": "referrer",
              "type": "address"
            },
            {
              "internalType": "address[]",
              "name": "referee",
              "type": "address[]"
            },
            {
              "internalType": "address[]",
              "name": "team",
              "type": "address[]"
            },
            {
              "internalType": "uint256[]",
              "name": "topUp",
              "type": "uint256[]"
            },
            {
              "internalType": "uint256",
              "name": "selfBusiness",
              "type": "uint256"
            },
            {
              "internalType": "uint256",
              "name": "directBusiness",
              "type": "uint256"
            },
            {
              "internalType": "uint256",
              "name": "totalBusiness",
              "type": "uint256"
            },
            {
              "internalType": "uint256[]",
              "name": "rewardsPaidReferral",
              "type": "uint256[]"
            },
            {
              "internalType": "uint256[]",
              "name": "rewardsPaidGlobal",
              "type": "uint256[]"
            },
            {
              "internalType": "uint256[]",
              "name": "rewardPaidPassive",
              "type": "uint256[]"
            },
            {
              "internalType": "bool",
              "name": "isInGlobalID",
              "type": "bool"
            }
          ],
          "internalType": "struct ReferralUpgradeable.Account",
          "name": "userAccount",
          "type": "tuple"
        }
      ],
      "stateMutability": "view",
      "type": "function"
    },
    {
      "inputs": [
        {
          "internalType": "address",
          "name": "_address",
          "type": "address"
        }
      ],
      "name": "getUserReferrerAddress",
      "outputs": [
        {
          "internalType": "address",
          "name": "referrer",
          "type": "address"
        }
      ],
      "stateMutability": "view",
      "type": "function"
    },
    {
      "inputs": [
        {
          "internalType": "address",
          "name": "_address",
          "type": "address"
        }
      ],
      "name": "getUserTeam",
      "outputs": [
        {
          "internalType": "address[]",
          "name": "userReferee",
          "type": "address[]"
        },
        {
          "internalType": "uint256",
          "name": "userRefereeCount",
          "type": "uint256"
        },
        {
          "internalType": "address[]",
          "name": "userTeamAddress",
          "type": "address[]"
        },
        {
          "internalType": "uint256",
          "name": "userTeamCount",
          "type": "uint256"
        }
      ],
      "stateMutability": "view",
      "type": "function"
    },
    {
      "inputs": [
        {
          "internalType": "address",
          "name": "_address",
          "type": "address"
        }
      ],
      "name": "getUserTotalBusiness",
      "outputs": [
        {
          "internalType": "uint256",
          "name": "selfBusiness",
          "type": "uint256"
        },
        {
          "internalType": "uint256",
          "name": "directBusiness",
          "type": "uint256"
        },
        {
          "internalType": "uint256",
          "name": "refereeTeamBusiness",
          "type": "uint256"
        },
        {
          "internalType": "uint256",
          "name": "totalBusiness",
          "type": "uint256"
        }
      ],
      "stateMutability": "view",
      "type": "function"
    },
    {
      "inputs": [
        {
          "internalType": "address",
          "name": "_address",
          "type": "address"
        }
      ],
      "name": "getUserTotalRewardPaid",
      "outputs": [
        {
          "internalType": "uint256",
          "name": "rewardsAUSD",
          "type": "uint256"
        },
        {
          "internalType": "uint256",
          "name": "rewardsGlobal",
          "type": "uint256"
        },
        {
          "internalType": "uint256",
          "name": "rewardsPassive",
          "type": "uint256"
        }
      ],
      "stateMutability": "view",
      "type": "function"
    },
    {
      "inputs": [],
      "name": "getVariablesContract",
      "outputs": [
        {
          "internalType": "address",
          "name": "",
          "type": "address"
        }
      ],
      "stateMutability": "view",
      "type": "function"
    },
    {
      "inputs": [
        {
          "internalType": "address",
          "name": "_address",
          "type": "address"
        }
      ],
      "name": "hasReferrer",
      "outputs": [
        {
          "internalType": "bool",
          "name": "",
          "type": "bool"
        }
      ],
      "stateMutability": "view",
      "type": "function"
    },
    {
      "inputs": [],
      "name": "initialize",
      "outputs": [],
      "stateMutability": "nonpayable",
      "type": "function"
    },
    {
      "inputs": [],
      "name": "owner",
      "outputs": [
        {
          "internalType": "address",
          "name": "",
          "type": "address"
        }
      ],
      "stateMutability": "view",
      "type": "function"
    },
    {
      "inputs": [],
      "name": "pause",
      "outputs": [],
      "stateMutability": "nonpayable",
      "type": "function"
    },
    {
      "inputs": [],
      "name": "paused",
      "outputs": [
        {
          "internalType": "bool",
          "name": "",
          "type": "bool"
        }
      ],
      "stateMutability": "view",
      "type": "function"
    },
    {
      "inputs": [
        {
          "internalType": "uint256",
          "name": "_valueInUSD",
          "type": "uint256"
        },
        {
          "internalType": "address",
          "name": "_userAddress",
          "type": "address"
        },
        {
          "internalType": "address",
          "name": "_referrerAddress",
          "type": "address"
        }
      ],
      "name": "payReferralANUSDAdmin",
      "outputs": [],
      "stateMutability": "nonpayable",
      "type": "function"
    },
    {
      "inputs": [],
      "name": "proxiableUUID",
      "outputs": [
        {
          "internalType": "bytes32",
          "name": "",
          "type": "bytes32"
        }
      ],
      "stateMutability": "view",
      "type": "function"
    },
    {
      "inputs": [],
      "name": "renounceOwnership",
      "outputs": [],
      "stateMutability": "nonpayable",
      "type": "function"
    },
    {
      "inputs": [
        {
          "internalType": "address payable",
          "name": "_address",
          "type": "address"
        }
      ],
      "name": "setDefaultReferrer",
      "outputs": [],
      "stateMutability": "nonpayable",
      "type": "function"
    },
    {
      "inputs": [
        {
          "internalType": "uint256",
          "name": "_value",
          "type": "uint256"
        }
      ],
      "name": "setLevelDecimals",
      "outputs": [
        {
          "internalType": "bool",
          "name": "",
          "type": "bool"
        }
      ],
      "stateMutability": "nonpayable",
      "type": "function"
    },
    {
      "inputs": [
        {
          "internalType": "uint256[]",
          "name": "_valueInArray",
          "type": "uint256[]"
        }
      ],
      "name": "setLevelRates",
      "outputs": [],
      "stateMutability": "nonpayable",
      "type": "function"
    },
    {
      "inputs": [
        {
          "internalType": "address",
          "name": "_contractAddress",
          "type": "address"
        }
      ],
      "name": "setVariablesContract",
      "outputs": [],
      "stateMutability": "nonpayable",
      "type": "function"
    },
    {
      "inputs": [
        {
          "internalType": "address",
          "name": "_address",
          "type": "address"
        },
        {
          "internalType": "uint256",
          "name": "_value",
          "type": "uint256"
        }
      ],
      "name": "transferNative",
      "outputs": [],
      "stateMutability": "nonpayable",
      "type": "function"
    },
    {
      "inputs": [
        {
          "internalType": "address",
          "name": "newOwner",
          "type": "address"
        }
      ],
      "name": "transferOwnership",
      "outputs": [],
      "stateMutability": "nonpayable",
      "type": "function"
    },
    {
      "inputs": [],
      "name": "unpause",
      "outputs": [],
      "stateMutability": "nonpayable",
      "type": "function"
    },
    {
      "inputs": [
        {
          "internalType": "address",
          "name": "newImplementation",
          "type": "address"
        }
      ],
      "name": "upgradeTo",
      "outputs": [],
      "stateMutability": "nonpayable",
      "type": "function"
    },
    {
      "inputs": [
        {
          "internalType": "address",
          "name": "newImplementation",
          "type": "address"
        },
        {
          "internalType": "bytes",
          "name": "data",
          "type": "bytes"
        }
      ],
      "name": "upgradeToAndCall",
      "outputs": [],
      "stateMutability": "payable",
      "type": "function"
    },
    {
      "inputs": [],
      "name": "withdrawNative",
      "outputs": [],
      "stateMutability": "nonpayable",
      "type": "function"
    },
    {
      "inputs": [
        {
          "internalType": "address",
          "name": "_tokenAddress",
          "type": "address"
        },
        {
          "internalType": "uint256",
          "name": "_value",
          "type": "uint256"
        }
      ],
      "name": "withdrawtokens",
      "outputs": [],
      "stateMutability": "nonpayable",
      "type": "function"
    },
    {
      "stateMutability": "payable",
      "type": "receive"
    }
  ],
  "bytecode": "0x60a06040523060805234801561001457600080fd5b5060805161343061004c60003960008181610e0f01528181610e4f01528181610f0001528181610f40015261100701526134306000f3fe6080604052600436106101a05760003560e01c8063715018a6116100ec578063dcf6e8191161008a578063f2fde38b11610064578063f2fde38b146104c3578063faeda7e5146104e3578063fb47e01614610513578063fb5d45261461054057600080fd5b8063dcf6e8191461044a578063ef519dc01461046a578063f13a143f146104a557600080fd5b80638456cb59116100c65780638456cb59146103d75780638da5cb5b146103ec5780638f3ddc9f1461040a578063cfbdb8591461042a57600080fd5b8063715018a61461038d5780637d2e90c2146103a25780638129fc1c146103c257600080fd5b80633659cfe6116101595780634f1ef286116101335780634f1ef2861461032a57806350431ce41461033d57806352d1902d146103525780635c975abb1461037557600080fd5b80633659cfe6146102a35780633f4ba83a146102c357806343b4ebf4146102d857600080fd5b80630ba0dba3146101ac57806318452cd8146101ce578063228159b4146102035780632405091c14610223578063277bb90014610263578063345b5b851461028357600080fd5b366101a757005b600080fd5b3480156101b857600080fd5b506101cc6101c7366004612cc7565b610565565b005b3480156101da57600080fd5b506101ee6101e9366004612cc7565b61058f565b60405190151581526020015b60405180910390f35b34801561020f57600080fd5b506101cc61021e366004612ce4565b6105b6565b34801561022f57600080fd5b5061024361023e366004612cc7565b610784565b6040805194855260208501939093529183015260608201526080016101fa565b34801561026f57600080fd5b506101cc61027e366004612d26565b610d73565b34801561028f57600080fd5b506101cc61029e366004612d9e565b610df1565b3480156102af57600080fd5b506101cc6102be366004612cc7565b610e05565b3480156102cf57600080fd5b506101cc610ee4565b3480156102e457600080fd5b506103126102f3366004612cc7565b6001600160a01b03908116600090815261010960205260409020541690565b6040516001600160a01b0390911681526020016101fa565b6101cc610338366004612df6565b610ef6565b34801561034957600080fd5b506101cc610fc6565b34801561035e57600080fd5b50610367610ffa565b6040519081526020016101fa565b34801561038157600080fd5b5060335460ff166101ee565b34801561039957600080fd5b506101cc6110ad565b3480156103ae57600080fd5b506101cc6103bd366004612d26565b6110bf565b3480156103ce57600080fd5b506101cc6110fd565b3480156103e357600080fd5b506101cc6112e3565b3480156103f857600080fd5b506065546001600160a01b0316610312565b34801561041657600080fd5b506101cc610425366004612eba565b6112f3565b34801561043657600080fd5b506101ee610445366004612f26565b6113ce565b34801561045657600080fd5b506101cc610465366004612cc7565b6113e1565b34801561047657600080fd5b5061048a610485366004612cc7565b61140c565b604080519384526020840192909252908201526060016101fa565b3480156104b157600080fd5b5060fb546001600160a01b0316610312565b3480156104cf57600080fd5b506101cc6104de366004612cc7565b611527565b3480156104ef57600080fd5b506105036104fe366004612cc7565b61159d565b6040516101fa9493929190612f83565b34801561051f57600080fd5b5061053361052e366004612cc7565b61168a565b6040516101fa9190612ff0565b34801561054c57600080fd5b50610555611977565b6040516101fa94939291906130ff565b61056d611a3e565b60fb80546001600160a01b0319166001600160a01b0392909216919091179055565b6001600160a01b038082166000908152610109602052604081205490911615155b92915050565b336105c96065546001600160a01b031690565b6001600160a01b0316816001600160a01b0316148061066f575060fb60009054906101000a90046001600160a01b03166001600160a01b03166363d9df856040518163ffffffff1660e01b8152600401602060405180830381865afa158015610636573d6000803e3d6000fd5b505050506040513d601f19601f8201168201806040525081019061065a9190613139565b6001600160a01b0316816001600160a01b0316145b6106cb5760405162461bcd60e51b815260206004820152602260248201527f4f6e6c79206f776e65722063616e2063616c6c20746869732066756e6374696f604482015261371760f11b60648201526084015b60405180910390fd5b6001600160a01b0383811660009081526101096020526040902054161580156106fc57506001600160a01b03821615155b1561070b5761070b8383611a98565b6001600160a01b03828116600090815261010960205260409020541615801561073c57506001600160a01b03821615155b80156107575750610100546001600160a01b03838116911614155b1561077457610100546107749083906001600160a01b0316611a98565b61077e8484611be0565b50505050565b6001600160a01b0381166000908152610109602052604081206001810154600482015492918291829190825b81811015610a8757600061010960008560010184815481106107d4576107d4613156565b60009182526020808320909101546001600160a01b0390811684528382019490945260409283019091208251610160810184528154909416845260018101805484518185028101850190955280855291938584019390929083018282801561086557602002820191906000526020600020905b81546001600160a01b03168152600190910190602001808311610847575b50505050508152602001600282018054806020026020016040519081016040528092919081815260200182805480156108c757602002820191906000526020600020905b81546001600160a01b031681526001909101906020018083116108a9575b505050505081526020016003820180548060200260200160405190810160405280929190818152602001828054801561091f57602002820191906000526020600020905b81548152602001906001019080831161090b575b505050505081526020016004820154815260200160058201548152602001600682015481526020016007820180548060200260200160405190810160405280929190818152602001828054801561099557602002820191906000526020600020905b815481526020019060010190808311610981575b50505050508152602001600882018054806020026020016040519081016040528092919081815260200182805480156109ed57602002820191906000526020600020905b8154815260200190600101908083116109d9575b5050505050815260200160098201805480602002602001604051908101604052809291908181526020018280548015610a4557602002820191906000526020600020905b815481526020019060010190808311610a31575b5050509183525050600a919091015460ff1615156020909101526080810151909150610a719088613182565b9650508080610a7f90613195565b9150506107b0565b5060005b81811015610d625760006101096000856001018481548110610aaf57610aaf613156565b60009182526020808320909101546001600160a01b03908116845283820194909452604092830190912082516101608101845281549094168452600181018054845181850281018501909552808552919385840193909290830182828015610b4057602002820191906000526020600020905b81546001600160a01b03168152600190910190602001808311610b22575b5050505050815260200160028201805480602002602001604051908101604052809291908181526020018280548015610ba257602002820191906000526020600020905b81546001600160a01b03168152600190910190602001808311610b84575b5050505050815260200160038201805480602002602001604051908101604052809291908181526020018280548015610bfa57602002820191906000526020600020905b815481526020019060010190808311610be6575b5050505050815260200160048201548152602001600582015481526020016006820154815260200160078201805480602002602001604051908101604052809291908181526020018280548015610c7057602002820191906000526020600020905b815481526020019060010190808311610c5c575b5050505050815260200160088201805480602002602001604051908101604052809291908181526020018280548015610cc857602002820191906000526020600020905b815481526020019060010190808311610cb4575b5050505050815260200160098201805480602002602001604051908101604052809291908181526020018280548015610d2057602002820191906000526020600020905b815481526020019060010190808311610d0c575b5050509183525050600a919091015460ff16151560209091015260c0810151909150610d4c9087613182565b9550508080610d5a90613195565b915050610a8b565b508160060154925050509193509193565b610d7b611a3e565b60405163a9059cbb60e01b8152336004820152602481018290526001600160a01b0383169063a9059cbb906044016020604051808303816000875af1158015610dc8573d6000803e3d6000fd5b505050506040513d601f19601f82011682018060405250810190610dec91906131ae565b505050565b610df9611a3e565b610dec60fc8383612c12565b6001600160a01b037f0000000000000000000000000000000000000000000000000000000000000000163003610e4d5760405162461bcd60e51b81526004016106c2906131d0565b7f00000000000000000000000000000000000000000000000000000000000000006001600160a01b0316610e966000805160206133b4833981519152546001600160a01b031690565b6001600160a01b031614610ebc5760405162461bcd60e51b81526004016106c29061321c565b610ec581612608565b60408051600080825260208201909252610ee191839190612610565b50565b610eec611a3e565b610ef461277b565b565b6001600160a01b037f0000000000000000000000000000000000000000000000000000000000000000163003610f3e5760405162461bcd60e51b81526004016106c2906131d0565b7f00000000000000000000000000000000000000000000000000000000000000006001600160a01b0316610f876000805160206133b4833981519152546001600160a01b031690565b6001600160a01b031614610fad5760405162461bcd60e51b81526004016106c29061321c565b610fb682612608565b610fc282826001612610565b5050565b610fce611a3e565b60405133904780156108fc02916000818181858888f19350505050158015610ee1573d6000803e3d6000fd5b6000306001600160a01b037f0000000000000000000000000000000000000000000000000000000000000000161461109a5760405162461bcd60e51b815260206004820152603860248201527f555550535570677261646561626c653a206d757374206e6f742062652063616c60448201527f6c6564207468726f7567682064656c656761746563616c6c000000000000000060648201526084016106c2565b506000805160206133b483398151915290565b6110b5611a3e565b610ef460006127cd565b6110c7611a3e565b6040516001600160a01b0383169082156108fc029083906000818181858888f19350505050158015610dec573d6000803e3d6000fd5b600054610100900460ff161580801561111d5750600054600160ff909116105b806111375750303b158015611137575060005460ff166001145b61119a5760405162461bcd60e51b815260206004820152602e60248201527f496e697469616c697a61626c653a20636f6e747261637420697320616c72656160448201526d191e481a5b9a5d1a585b1a5e995960921b60648201526084016106c2565b6000805460ff1916600117905580156111bd576000805461ff0019166101001790555b60fb80546001600160a01b03199081167377daafc7411c911b869c71bf70fe36cce507845d17909155610100805490911673f3ba579d4afd4dad8a8c2d1bcbdd1405688e492f1790556040805160e0810182526007808252600460208301526003928201929092526002606082015260016080820181905260a0820181905260c082015261124e9160fc9190612c5d565b50606460fd5560146101065569011478b7c30abc3000006101035560046101015560056101045568a80d24677efef000006101055561128b61281f565b61129361284e565b61129b61287d565b8015610ee1576000805461ff0019169055604051600181527f7f26b83ff96e1f2b6a682f133852f6798a09c465da95921460cefb38474024989060200160405180910390a150565b6112eb611a3e565b610ef46128a4565b6112fb611a3e565b8281146113545760405162461bcd60e51b815260206004820152602160248201527f4c656e677468206973206e6f7420657175616c20706c6561736520636865636b6044820152601760f91b60648201526084016106c2565b60005b838110156113c7576113b585858381811061137457611374613156565b90506020020160208101906113899190612cc7565b84848481811061139b5761139b613156565b90506020020160208101906113b09190612cc7565b611a98565b806113bf81613195565b915050611357565b5050505050565b60006113d8611a3e565b5060fd55600190565b6113e9611a3e565b61010080546001600160a01b0319166001600160a01b0392909216919091179055565b6001600160a01b0381166000908152610109602052604081206007810154600882015460098301548493849390929091845b838110156114855784600701818154811061145b5761145b613156565b9060005260206000200154886114719190613182565b97508061147d81613195565b91505061143e565b5060005b828110156114d0578460080181815481106114a6576114a6613156565b9060005260206000200154876114bc9190613182565b9650806114c881613195565b915050611489565b5060005b8181101561151b578460090181815481106114f1576114f1613156565b9060005260206000200154866115079190613182565b95508061151381613195565b9150506114d4565b50505050509193909250565b61152f611a3e565b6001600160a01b0381166115945760405162461bcd60e51b815260206004820152602660248201527f4f776e61626c653a206e6577206f776e657220697320746865207a65726f206160448201526564647265737360d01b60648201526084016106c2565b610ee1816127cd565b6001600160a01b0381166000908152610109602090815260408083206001810180548351818602810186019094528084526060959486948694939092909183018282801561161457602002820191906000526020600020905b81546001600160a01b031681526001909101906020018083116115f6575b50505050509450845193508060020180548060200260200160405190810160405280929190818152602001828054801561167757602002820191906000526020600020905b81546001600160a01b03168152600190910190602001808311611659575b5050505050925082519150509193509193565b6116f260405180610160016040528060006001600160a01b031681526020016060815260200160608152602001606081526020016000815260200160008152602001600081526020016060815260200160608152602001606081526020016000151581525090565b6001600160a01b03808316600090815261010960209081526040918290208251610160810184528154909416845260018101805484518185028101850190955280855291938584019390929083018282801561177757602002820191906000526020600020905b81546001600160a01b03168152600190910190602001808311611759575b50505050508152602001600282018054806020026020016040519081016040528092919081815260200182805480156117d957602002820191906000526020600020905b81546001600160a01b031681526001909101906020018083116117bb575b505050505081526020016003820180548060200260200160405190810160405280929190818152602001828054801561183157602002820191906000526020600020905b81548152602001906001019080831161181d575b50505050508152602001600482015481526020016005820154815260200160068201548152602001600782018054806020026020016040519081016040528092919081815260200182805480156118a757602002820191906000526020600020905b815481526020019060010190808311611893575b50505050508152602001600882018054806020026020016040519081016040528092919081815260200182805480156118ff57602002820191906000526020600020905b8154815260200190600101908083116118eb575b505050505081526020016009820180548060200260200160405190810160405280929190818152602001828054801561195757602002820191906000526020600020905b815481526020019060010190808311611943575b5050509183525050600a919091015460ff16151560209091015292915050565b60fd5460fc80546040805160208084028201810190925282815260609360009384938301828280156119c857602002820191906000526020600020905b8154815260200190600101908083116119b4575b505060fc549396506000925050505b818160ff161015611a225760fc8160ff16815481106119f8576119f8613156565b906000526020600020015484611a0e9190613182565b935080611a1a81613268565b9150506119d7565b5050610100549394929391926001600160a01b03909216919050565b6065546001600160a01b03163314610ef45760405162461bcd60e51b815260206004820181905260248201527f4f776e61626c653a2063616c6c6572206973206e6f7420746865206f776e657260448201526064016106c2565b6001600160a01b038281166000818152610109602052604080822080546001600160a01b03191694861694851781559051909392917ffaf63637882ff2d63ca76881cf92fb857130e36f350c926f9cc884b499b42b7791a360fc5460005b818110156113c75782546001600160a01b031660009081526101096020526040812090829003611b50576001818101805491820181556000908152602090200180546001600160a01b0319166001600160a01b0388161790555b83546001600160a01b0316611b6557506113c7565b6002810180546001810182556000918252602082200180546001600160a01b0319166001600160a01b03898116918217909255865460405191938984169391909116917fb766b19465b3277b0b275adf79d715cac93166bf6e6a39f26e4ccfdec76ad47e9190a4925080611bd881613195565b915050611af6565b60fb5460fc8054604080516020808402820181019092528281526001600160a01b039094169360009390929091830182828015611c3c57602002820191906000526020600020905b815481526020019060010190808311611c28575b5050506001600160a01b03861660009081526101096020908152604082206003810180546001810182559084529183209091018990556004810180549596509094899450909250611c8e908490613182565b90915550506101065460009067ffffffffffffffff811115611cb257611cb2612de0565b604051908082528060200260200182016040528015611cdb578160200160208202803683370190505b509050600080610107805480602002602001604051908101604052809291908181526020018280548015611d3857602002820191906000526020600020905b81546001600160a01b03168152600190910190602001808311611d1a575b505050505090506000815190506000805b610106548110156120685786546001600160a01b031660008181526101096020526040902081611d7a575050612068565b895183101561200a57600060648b8581518110611d9957611d99613156565b60200260200101518f611dac9190613287565b611db691906132b4565b905083600003611dda578d826005016000828254611dd49190613182565b90915550505b8d826006016000828254611dee9190613182565b90915550506007820180546001810182556000918252602090912001819055611e178186613182565b94508b6001600160a01b031663b70cc4c16040518163ffffffff1660e01b8152600401602060405180830381865afa158015611e57573d6000803e3d6000fd5b505050506040513d601f19601f82011682018060405250810190611e7b9190613139565b60405163a9059cbb60e01b81526001600160a01b03858116600483015260248201849052919091169063a9059cbb906044016020604051808303816000875af1158015611ecc573d6000803e3d6000fd5b505050506040513d601f19601f82011682018060405250810190611ef091906131ae565b50806001600160a01b03808516908f167f197a0a2b0fbff3fc4f7f4d32597585aa8415fcc4c5dd6634336ec65904529c83611f2c886001613182565b60408051918252602082018190526005908201526410539554d160da1b606082015260800160405180910390a4600a82015460ff16612008576101035482600501541115612008576101028054600180820183556000929092527f93bdaa6a4190909b7c3fbe8d42169ffe1cab19f51dfc8db24c71abf849eced4a0180546001600160a01b0319166001600160a01b038616908117909155600a8401805460ff19169092179091556040519081527facc63915cb028aeaee9996abc0f864fc0559a2f955750aa97d6ef9f51014acfb9060200160405180910390a15b505b6101055481600501541115612052578188888151811061202c5761202c613156565b6001600160a01b03909216602092830291909101909101528661204e81613195565b9750505b975081905061206081613195565b915050611d49565b508315612265576000846064610104548d6120839190613287565b61208d91906132b4565b61209791906132b4565b905060005b8581101561226257600061010960008984815181106120bd576120bd613156565b60200260200101516001600160a01b03166001600160a01b0316815260200190815260200160002090508a6001600160a01b031663b70cc4c16040518163ffffffff1660e01b8152600401602060405180830381865afa158015612125573d6000803e3d6000fd5b505050506040513d601f19601f820116820180604052508101906121499190613139565b6001600160a01b031663a9059cbb89848151811061216957612169613156565b6020026020010151856040518363ffffffff1660e01b81526004016121a39291906001600160a01b03929092168252602082015260400190565b6020604051808303816000875af11580156121c2573d6000803e3d6000fd5b505050506040513d601f19601f820116820180604052508101906121e691906131ae565b508782815181106121f9576121f9613156565b60200260200101516001600160a01b0316837f62f12b06523c734cca73aa1502a5f967c8e09d0a2f084fd36acbac47f54b0d4e60405160405180910390a3600901805460018101825560009182526020909120018290558061225a81613195565b91505061209c565b50505b61010254156124455760006064610101548c6122819190613287565b61228b91906132b4565b610102546040805142602082015244918101919091529192506000916060016040516020818303038152906040528051906020012060001c6122cd91906132c8565b9050600061010282815481106122e5576122e5613156565b60009182526020808320909101546001600160a01b039081168084526101098352604093849020845163b70cc4c160e01b8152945191955093918f169263b70cc4c192600480820193918290030181865afa158015612348573d6000803e3d6000fd5b505050506040513d601f19601f8201168201806040525081019061236c9190613139565b60405163a9059cbb60e01b81526001600160a01b03848116600483015260248201879052919091169063a9059cbb906044016020604051808303816000875af11580156123bd573d6000803e3d6000fd5b505050506040513d601f19601f820116820180604052508101906123e191906131ae565b50600881018054600181018255600091825260209182902001859055604080518681526001600160a01b038516928101929092527f51e673ac98f0ea063ce27eb5af807d22b97cd11cd79380cf1f711ad80948046c910160405180910390a1505050505b81156125e5576000826064610108548d61245f9190613287565b61246991906132b4565b61247391906132b4565b905060005b838110156125e257896001600160a01b031663b70cc4c16040518163ffffffff1660e01b8152600401602060405180830381865afa1580156124be573d6000803e3d6000fd5b505050506040513d601f19601f820116820180604052508101906124e29190613139565b6001600160a01b031663a9059cbb86838151811061250257612502613156565b6020026020010151846040518363ffffffff1660e01b815260040161253c9291906001600160a01b03929092168252602082015260400190565b6020604051808303816000875af115801561255b573d6000803e3d6000fd5b505050506040513d601f19601f8201168201806040525081019061257f91906131ae565b5084818151811061259257612592613156565b60200260200101516001600160a01b0316827f6d550262135215fe2f5ef9b6fad45db8cf51267248f8b95e069f8025f6f9049a60405160405180910390a3806125da81613195565b915050612478565b50505b8060ff60008282546125f79190613182565b909155505050505050505050505050565b610ee1611a3e565b7f4910fdfa16fed3260ed0e7147f7cc6da11a60208b5b9406d12a635614ffd91435460ff161561264357610dec836128e1565b826001600160a01b03166352d1902d6040518163ffffffff1660e01b8152600401602060405180830381865afa92505050801561269d575060408051601f3d908101601f1916820190925261269a918101906132dc565b60015b6127005760405162461bcd60e51b815260206004820152602e60248201527f45524331393637557067726164653a206e657720696d706c656d656e7461746960448201526d6f6e206973206e6f74205555505360901b60648201526084016106c2565b6000805160206133b4833981519152811461276f5760405162461bcd60e51b815260206004820152602960248201527f45524331393637557067726164653a20756e737570706f727465642070726f786044820152681a58589b195555525160ba1b60648201526084016106c2565b50610dec83838361297d565b6127836129a2565b6033805460ff191690557f5db9ee0a495bf2e6ff9c91a7834c1ba4fdd244a5e8aa4e537bd38aeae4b073aa335b6040516001600160a01b03909116815260200160405180910390a1565b606580546001600160a01b038381166001600160a01b0319831681179093556040519116919082907f8be0079c531659141344cd1fd0a4f28419497f9722a3daafe3b4186f6b6457e090600090a35050565b600054610100900460ff166128465760405162461bcd60e51b81526004016106c2906132f5565b610ef46129eb565b600054610100900460ff166128755760405162461bcd60e51b81526004016106c2906132f5565b610ef4612a1e565b600054610100900460ff16610ef45760405162461bcd60e51b81526004016106c2906132f5565b6128ac612a4e565b6033805460ff191660011790557f62e78cea01bee320cd4e420270b5ea74000d11b0c9f74754ebdbfc544b05a2586127b03390565b6001600160a01b0381163b61294e5760405162461bcd60e51b815260206004820152602d60248201527f455243313936373a206e657720696d706c656d656e746174696f6e206973206e60448201526c1bdd08184818dbdb9d1c9858dd609a1b60648201526084016106c2565b6000805160206133b483398151915280546001600160a01b0319166001600160a01b0392909216919091179055565b61298683612a94565b6000825111806129935750805b15610dec5761077e8383612ad4565b60335460ff16610ef45760405162461bcd60e51b815260206004820152601460248201527314185d5cd8589b194e881b9bdd081c185d5cd95960621b60448201526064016106c2565b600054610100900460ff16612a125760405162461bcd60e51b81526004016106c2906132f5565b6033805460ff19169055565b600054610100900460ff16612a455760405162461bcd60e51b81526004016106c2906132f5565b610ef4336127cd565b60335460ff1615610ef45760405162461bcd60e51b815260206004820152601060248201526f14185d5cd8589b194e881c185d5cd95960821b60448201526064016106c2565b612a9d816128e1565b6040516001600160a01b038216907fbc7cd75a20ee27fd9adebab32041f755214dbc6bffa90cc0225b39da2e5c2d3b90600090a250565b60606001600160a01b0383163b612b3c5760405162461bcd60e51b815260206004820152602660248201527f416464726573733a2064656c65676174652063616c6c20746f206e6f6e2d636f6044820152651b9d1c9858dd60d21b60648201526084016106c2565b600080846001600160a01b031684604051612b579190613364565b600060405180830381855af49150503d8060008114612b92576040519150601f19603f3d011682016040523d82523d6000602084013e612b97565b606091505b5091509150612bbf82826040518060600160405280602781526020016133d460279139612bc8565b95945050505050565b60608315612bd7575081612be1565b612be18383612be8565b9392505050565b815115612bf85781518083602001fd5b8060405162461bcd60e51b81526004016106c29190613380565b828054828255906000526020600020908101928215612c4d579160200282015b82811115612c4d578235825591602001919060010190612c32565b50612c59929150612c9d565b5090565b828054828255906000526020600020908101928215612c4d579160200282015b82811115612c4d578251829060ff16905591602001919060010190612c7d565b5b80821115612c595760008155600101612c9e565b6001600160a01b0381168114610ee157600080fd5b600060208284031215612cd957600080fd5b8135612be181612cb2565b600080600060608486031215612cf957600080fd5b833592506020840135612d0b81612cb2565b91506040840135612d1b81612cb2565b809150509250925092565b60008060408385031215612d3957600080fd5b8235612d4481612cb2565b946020939093013593505050565b60008083601f840112612d6457600080fd5b50813567ffffffffffffffff811115612d7c57600080fd5b6020830191508360208260051b8501011115612d9757600080fd5b9250929050565b60008060208385031215612db157600080fd5b823567ffffffffffffffff811115612dc857600080fd5b612dd485828601612d52565b90969095509350505050565b634e487b7160e01b600052604160045260246000fd5b60008060408385031215612e0957600080fd5b8235612e1481612cb2565b9150602083013567ffffffffffffffff80821115612e3157600080fd5b818501915085601f830112612e4557600080fd5b813581811115612e5757612e57612de0565b604051601f8201601f19908116603f01168101908382118183101715612e7f57612e7f612de0565b81604052828152886020848701011115612e9857600080fd5b8260208601602083013760006020848301015280955050505050509250929050565b60008060008060408587031215612ed057600080fd5b843567ffffffffffffffff80821115612ee857600080fd5b612ef488838901612d52565b90965094506020870135915080821115612f0d57600080fd5b50612f1a87828801612d52565b95989497509550505050565b600060208284031215612f3857600080fd5b5035919050565b600081518084526020808501945080840160005b83811015612f785781516001600160a01b031687529582019590820190600101612f53565b509495945050505050565b608081526000612f966080830187612f3f565b8560208401528281036040840152612fae8186612f3f565b91505082606083015295945050505050565b600081518084526020808501945080840160005b83811015612f7857815187529582019590820190600101612fd4565b6020815261300a6020820183516001600160a01b03169052565b60006020830151610160806040850152613028610180850183612f3f565b91506040850151601f19808685030160608701526130468483612f3f565b935060608701519150808685030160808701526130638483612fc0565b9350608087015160a087015260a087015160c087015260c087015160e087015260e087015191506101008187860301818801526130a08584612fc0565b9450808801519250506101208187860301818801526130bf8584612fc0565b9450808801519250506101408187860301818801526130de8584612fc0565b945080880151925050506130f58286018215159052565b5090949350505050565b8481526080602082015260006131186080830186612fc0565b6040830194909452506001600160a01b039190911660609091015292915050565b60006020828403121561314b57600080fd5b8151612be181612cb2565b634e487b7160e01b600052603260045260246000fd5b634e487b7160e01b600052601160045260246000fd5b808201808211156105b0576105b061316c565b6000600182016131a7576131a761316c565b5060010190565b6000602082840312156131c057600080fd5b81518015158114612be157600080fd5b6020808252602c908201527f46756e6374696f6e206d7573742062652063616c6c6564207468726f7567682060408201526b19195b1959d85d1958d85b1b60a21b606082015260800190565b6020808252602c908201527f46756e6374696f6e206d7573742062652063616c6c6564207468726f7567682060408201526b6163746976652070726f787960a01b606082015260800190565b600060ff821660ff810361327e5761327e61316c565b60010192915050565b80820281158282048414176105b0576105b061316c565b634e487b7160e01b600052601260045260246000fd5b6000826132c3576132c361329e565b500490565b6000826132d7576132d761329e565b500690565b6000602082840312156132ee57600080fd5b5051919050565b6020808252602b908201527f496e697469616c697a61626c653a20636f6e7472616374206973206e6f74206960408201526a6e697469616c697a696e6760a81b606082015260800190565b60005b8381101561335b578181015183820152602001613343565b50506000910152565b60008251613376818460208701613340565b9190910192915050565b602081526000825180602084015261339f816040850160208701613340565b601f01601f1916919091016040019291505056fe360894a13ba1a3210667c828492db98dca3e2076cc3735a920a3ca505d382bbc416464726573733a206c6f772d6c6576656c2064656c65676174652063616c6c206661696c6564a2646970667358221220f3d3c7aa27d975fe2ae93419bdb598a4e8c7d40ff9cf1b7614b0830e746f605f64736f6c63430008110033",
  "linkReferences": {},
  "deployedLinkReferences": {}
}