{
  "_format": "hh-sol-artifact-1",
  "contractName": "ReferralUpgradeable",
  "sourceName": "contracts/ReferralUpgradeable.sol",
  "abi": [
    {
      "anonymous": false,
      "inputs": [
        {
          "indexed": false,
          "internalType": "address",
          "name": "previousAdmin",
          "type": "address"
        },
        {
          "indexed": false,
          "internalType": "address",
          "name": "newAdmin",
          "type": "address"
        }
      ],
      "name": "AdminChanged",
      "type": "event"
    },
    {
      "anonymous": false,
      "inputs": [
        {
          "indexed": true,
          "internalType": "address",
          "name": "beacon",
          "type": "address"
        }
      ],
      "name": "BeaconUpgraded",
      "type": "event"
    },
    {
      "anonymous": false,
      "inputs": [
        {
          "indexed": true,
          "internalType": "address",
          "name": "userAddressaddress",
          "type": "address"
        }
      ],
      "name": "CoreMemberAdded",
      "type": "event"
    },
    {
      "anonymous": false,
      "inputs": [
        {
          "indexed": false,
          "internalType": "address",
          "name": "userAddress",
          "type": "address"
        }
      ],
      "name": "CoreMemberRemoved",
      "type": "event"
    },
    {
      "anonymous": false,
      "inputs": [
        {
          "indexed": true,
          "internalType": "uint256",
          "name": "value",
          "type": "uint256"
        },
        {
          "indexed": true,
          "internalType": "address",
          "name": "userAddress",
          "type": "address"
        }
      ],
      "name": "CoreMemberRewardPaid",
      "type": "event"
    },
    {
      "anonymous": false,
      "inputs": [
        {
          "indexed": false,
          "internalType": "address",
          "name": "userAddress",
          "type": "address"
        }
      ],
      "name": "GlobalAddressAdded",
      "type": "event"
    },
    {
      "anonymous": false,
      "inputs": [
        {
          "indexed": false,
          "internalType": "address",
          "name": "userAddress",
          "type": "address"
        }
      ],
      "name": "GlobalAddressRemoved",
      "type": "event"
    },
    {
      "anonymous": false,
      "inputs": [
        {
          "indexed": false,
          "internalType": "uint256",
          "name": "value",
          "type": "uint256"
        },
        {
          "indexed": false,
          "internalType": "address",
          "name": "userAddress",
          "type": "address"
        }
      ],
      "name": "GlobalRewardPaid",
      "type": "event"
    },
    {
      "anonymous": false,
      "inputs": [
        {
          "indexed": false,
          "internalType": "uint8",
          "name": "version",
          "type": "uint8"
        }
      ],
      "name": "Initialized",
      "type": "event"
    },
    {
      "anonymous": false,
      "inputs": [
        {
          "indexed": true,
          "internalType": "address",
          "name": "previousOwner",
          "type": "address"
        },
        {
          "indexed": true,
          "internalType": "address",
          "name": "newOwner",
          "type": "address"
        }
      ],
      "name": "OwnershipTransferred",
      "type": "event"
    },
    {
      "anonymous": false,
      "inputs": [
        {
          "indexed": true,
          "internalType": "uint256",
          "name": "value",
          "type": "uint256"
        },
        {
          "indexed": true,
          "internalType": "address",
          "name": "userAddress",
          "type": "address"
        }
      ],
      "name": "PassiveRewardPaid",
      "type": "event"
    },
    {
      "anonymous": false,
      "inputs": [
        {
          "indexed": false,
          "internalType": "address",
          "name": "account",
          "type": "address"
        }
      ],
      "name": "Paused",
      "type": "event"
    },
    {
      "anonymous": false,
      "inputs": [
        {
          "indexed": true,
          "internalType": "address",
          "name": "referee",
          "type": "address"
        },
        {
          "indexed": true,
          "internalType": "address",
          "name": "referrer",
          "type": "address"
        },
        {
          "indexed": true,
          "internalType": "uint256",
          "name": "amount",
          "type": "uint256"
        },
        {
          "indexed": false,
          "internalType": "uint256",
          "name": "level",
          "type": "uint256"
        },
        {
          "indexed": false,
          "internalType": "string",
          "name": "currency",
          "type": "string"
        }
      ],
      "name": "ReferralRewardPaid",
      "type": "event"
    },
    {
      "anonymous": false,
      "inputs": [
        {
          "indexed": true,
          "internalType": "address",
          "name": "referee",
          "type": "address"
        },
        {
          "indexed": true,
          "internalType": "address",
          "name": "referrer",
          "type": "address"
        },
        {
          "indexed": true,
          "internalType": "string",
          "name": "reason",
          "type": "string"
        }
      ],
      "name": "RegisterRefererFailed",
      "type": "event"
    },
    {
      "anonymous": false,
      "inputs": [
        {
          "indexed": true,
          "internalType": "address",
          "name": "referee",
          "type": "address"
        },
        {
          "indexed": true,
          "internalType": "address",
          "name": "referrer",
          "type": "address"
        }
      ],
      "name": "RegisteredReferer",
      "type": "event"
    },
    {
      "anonymous": false,
      "inputs": [
        {
          "indexed": true,
          "internalType": "address",
          "name": "parent",
          "type": "address"
        },
        {
          "indexed": true,
          "internalType": "address",
          "name": "referrer",
          "type": "address"
        },
        {
          "indexed": true,
          "internalType": "address",
          "name": "referee",
          "type": "address"
        }
      ],
      "name": "RegisteredTeamAddress",
      "type": "event"
    },
    {
      "anonymous": false,
      "inputs": [
        {
          "indexed": false,
          "internalType": "address",
          "name": "userAddress",
          "type": "address"
        },
        {
          "indexed": false,
          "internalType": "uint8",
          "name": "rewardId",
          "type": "uint8"
        }
      ],
      "name": "RewardAccountAdded",
      "type": "event"
    },
    {
      "anonymous": false,
      "inputs": [
        {
          "indexed": false,
          "internalType": "address",
          "name": "userAddress",
          "type": "address"
        },
        {
          "indexed": false,
          "internalType": "uint8",
          "name": "rewardId",
          "type": "uint8"
        }
      ],
      "name": "RewardAccountPaid",
      "type": "event"
    },
    {
      "anonymous": false,
      "inputs": [
        {
          "indexed": false,
          "internalType": "uint8",
          "name": "id",
          "type": "uint8"
        },
        {
          "indexed": false,
          "internalType": "uint256",
          "name": "selfBusinessLimit",
          "type": "uint256"
        },
        {
          "indexed": false,
          "internalType": "uint256",
          "name": "directBusinessLimit",
          "type": "uint256"
        },
        {
          "indexed": false,
          "internalType": "uint256",
          "name": "teamBusinessLimit",
          "type": "uint256"
        },
        {
          "indexed": false,
          "internalType": "string",
          "name": "rankName",
          "type": "string"
        },
        {
          "indexed": false,
          "internalType": "string",
          "name": "rewardName",
          "type": "string"
        },
        {
          "indexed": false,
          "internalType": "uint256",
          "name": "appraisal",
          "type": "uint256"
        }
      ],
      "name": "RewardAdded",
      "type": "event"
    },
    {
      "anonymous": false,
      "inputs": [
        {
          "indexed": false,
          "internalType": "address",
          "name": "account",
          "type": "address"
        }
      ],
      "name": "Unpaused",
      "type": "event"
    },
    {
      "anonymous": false,
      "inputs": [
        {
          "indexed": true,
          "internalType": "address",
          "name": "implementation",
          "type": "address"
        }
      ],
      "name": "Upgraded",
      "type": "event"
    },
    {
      "inputs": [
        {
          "internalType": "address",
          "name": "",
          "type": "address"
        }
      ],
      "name": "addressToId",
      "outputs": [
        {
          "internalType": "uint16",
          "name": "",
          "type": "uint16"
        }
      ],
      "stateMutability": "view",
      "type": "function"
    },
    {
      "inputs": [],
      "name": "contractDefaults",
      "outputs": [
        {
          "internalType": "uint256",
          "name": "levelDecimals",
          "type": "uint256"
        },
        {
          "internalType": "uint256[]",
          "name": "levelRates",
          "type": "uint256[]"
        },
        {
          "internalType": "uint256",
          "name": "totalLevelRate",
          "type": "uint256"
        },
        {
          "internalType": "address",
          "name": "defaultReferrer",
          "type": "address"
        }
      ],
      "stateMutability": "view",
      "type": "function"
    },
    {
      "inputs": [],
      "name": "getGlobalRefereeLimit",
      "outputs": [
        {
          "internalType": "uint8",
          "name": "",
          "type": "uint8"
        }
      ],
      "stateMutability": "view",
      "type": "function"
    },
    {
      "inputs": [
        {
          "internalType": "uint8",
          "name": "_rewardId",
          "type": "uint8"
        },
        {
          "internalType": "uint16",
          "name": "_from",
          "type": "uint16"
        },
        {
          "internalType": "uint16",
          "name": "_to",
          "type": "uint16"
        }
      ],
      "name": "getRewardQualifiedUsers",
      "outputs": [
        {
          "internalType": "address[]",
          "name": "_userAddress",
          "type": "address[]"
        },
        {
          "internalType": "uint16",
          "name": "_achieversListCount",
          "type": "uint16"
        }
      ],
      "stateMutability": "view",
      "type": "function"
    },
    {
      "inputs": [],
      "name": "getSelfIncomePoolRefereeLimit",
      "outputs": [
        {
          "internalType": "uint8",
          "name": "",
          "type": "uint8"
        }
      ],
      "stateMutability": "view",
      "type": "function"
    },
    {
      "inputs": [
        {
          "internalType": "address",
          "name": "_userAddress",
          "type": "address"
        }
      ],
      "name": "getTeamBusinessToQualifyRewards",
      "outputs": [
        {
          "internalType": "uint256",
          "name": "mainBusiness",
          "type": "uint256"
        },
        {
          "internalType": "uint256",
          "name": "otherBusiness",
          "type": "uint256"
        }
      ],
      "stateMutability": "view",
      "type": "function"
    },
    {
      "inputs": [
        {
          "internalType": "address",
          "name": "_address",
          "type": "address"
        }
      ],
      "name": "getUserAccount",
      "outputs": [
        {
          "components": [
            {
              "internalType": "address",
              "name": "referrer",
              "type": "address"
            },
            {
              "internalType": "address[]",
              "name": "referee",
              "type": "address[]"
            },
            {
              "internalType": "address[]",
              "name": "team",
              "type": "address[]"
            },
            {
              "internalType": "uint256[]",
              "name": "topUp",
              "type": "uint256[]"
            },
            {
              "internalType": "uint256",
              "name": "selfBusiness",
              "type": "uint256"
            },
            {
              "internalType": "uint256",
              "name": "directBusiness",
              "type": "uint256"
            },
            {
              "internalType": "uint256",
              "name": "totalBusiness",
              "type": "uint256"
            },
            {
              "internalType": "uint256[]",
              "name": "rewardsPaidReferral",
              "type": "uint256[]"
            },
            {
              "internalType": "uint256[]",
              "name": "rewardsPaidGlobal",
              "type": "uint256[]"
            },
            {
              "internalType": "uint256[]",
              "name": "rewardPaidPassive",
              "type": "uint256[]"
            },
            {
              "internalType": "bool",
              "name": "isInGlobalID",
              "type": "bool"
            }
          ],
          "internalType": "struct ReferralUpgradeable.Account",
          "name": "userAccount",
          "type": "tuple"
        }
      ],
      "stateMutability": "view",
      "type": "function"
    },
    {
      "inputs": [
        {
          "internalType": "address",
          "name": "_address",
          "type": "address"
        }
      ],
      "name": "getUserReferrerAddress",
      "outputs": [
        {
          "internalType": "address",
          "name": "referrer",
          "type": "address"
        }
      ],
      "stateMutability": "view",
      "type": "function"
    },
    {
      "inputs": [
        {
          "internalType": "address",
          "name": "_userAddress",
          "type": "address"
        }
      ],
      "name": "getUserRewardAccount",
      "outputs": [
        {
          "components": [
            {
              "internalType": "address",
              "name": "userAdddress",
              "type": "address"
            },
            {
              "internalType": "uint8[]",
              "name": "rewardId",
              "type": "uint8[]"
            },
            {
              "internalType": "uint8",
              "name": "lastRewardId",
              "type": "uint8"
            }
          ],
          "internalType": "struct ReferralUpgradeable.RewardsAccount",
          "name": "",
          "type": "tuple"
        }
      ],
      "stateMutability": "view",
      "type": "function"
    },
    {
      "inputs": [
        {
          "internalType": "address",
          "name": "_userAddress",
          "type": "address"
        }
      ],
      "name": "getUserRewardQualified",
      "outputs": [
        {
          "internalType": "uint8",
          "name": "rewardId",
          "type": "uint8"
        }
      ],
      "stateMutability": "view",
      "type": "function"
    },
    {
      "inputs": [
        {
          "internalType": "address",
          "name": "_address",
          "type": "address"
        }
      ],
      "name": "getUserTeam",
      "outputs": [
        {
          "internalType": "address[]",
          "name": "userReferee",
          "type": "address[]"
        },
        {
          "internalType": "uint256",
          "name": "userRefereeCount",
          "type": "uint256"
        },
        {
          "internalType": "address[]",
          "name": "userTeamAddress",
          "type": "address[]"
        },
        {
          "internalType": "uint256",
          "name": "userTeamCount",
          "type": "uint256"
        }
      ],
      "stateMutability": "view",
      "type": "function"
    },
    {
      "inputs": [
        {
          "internalType": "address",
          "name": "_userAddress",
          "type": "address"
        }
      ],
      "name": "getUserTopUpForRewards",
      "outputs": [
        {
          "internalType": "uint256",
          "name": "",
          "type": "uint256"
        }
      ],
      "stateMutability": "view",
      "type": "function"
    },
    {
      "inputs": [
        {
          "internalType": "address",
          "name": "_address",
          "type": "address"
        }
      ],
      "name": "getUserTotalBusiness",
      "outputs": [
        {
          "internalType": "uint256",
          "name": "selfBusiness",
          "type": "uint256"
        },
        {
          "internalType": "uint256",
          "name": "directBusiness",
          "type": "uint256"
        },
        {
          "internalType": "uint256",
          "name": "refereeTeamBusiness",
          "type": "uint256"
        },
        {
          "internalType": "uint256",
          "name": "totalBusiness",
          "type": "uint256"
        }
      ],
      "stateMutability": "view",
      "type": "function"
    },
    {
      "inputs": [
        {
          "internalType": "address",
          "name": "_address",
          "type": "address"
        }
      ],
      "name": "getUserTotalRewardPaid",
      "outputs": [
        {
          "internalType": "uint256",
          "name": "rewardsAUSD",
          "type": "uint256"
        },
        {
          "internalType": "uint256",
          "name": "rewardsGlobal",
          "type": "uint256"
        },
        {
          "internalType": "uint256",
          "name": "rewardsPassive",
          "type": "uint256"
        }
      ],
      "stateMutability": "view",
      "type": "function"
    },
    {
      "inputs": [],
      "name": "getVariablesContract",
      "outputs": [
        {
          "internalType": "address",
          "name": "",
          "type": "address"
        }
      ],
      "stateMutability": "view",
      "type": "function"
    },
    {
      "inputs": [
        {
          "internalType": "address",
          "name": "_address",
          "type": "address"
        }
      ],
      "name": "hasReferrer",
      "outputs": [
        {
          "internalType": "bool",
          "name": "",
          "type": "bool"
        }
      ],
      "stateMutability": "view",
      "type": "function"
    },
    {
      "inputs": [
        {
          "internalType": "uint16",
          "name": "",
          "type": "uint16"
        }
      ],
      "name": "idToAddress",
      "outputs": [
        {
          "internalType": "address",
          "name": "",
          "type": "address"
        }
      ],
      "stateMutability": "view",
      "type": "function"
    },
    {
      "inputs": [
        {
          "internalType": "address[]",
          "name": "_userAddress",
          "type": "address[]"
        }
      ],
      "name": "includeUsersInList",
      "outputs": [],
      "stateMutability": "nonpayable",
      "type": "function"
    },
    {
      "inputs": [],
      "name": "initialize",
      "outputs": [],
      "stateMutability": "nonpayable",
      "type": "function"
    },
    {
      "inputs": [
        {
          "internalType": "address",
          "name": "_userAddress",
          "type": "address"
        }
      ],
      "name": "is20LevelsBusinessUpdated",
      "outputs": [
        {
          "internalType": "bool",
          "name": "",
          "type": "bool"
        }
      ],
      "stateMutability": "view",
      "type": "function"
    },
    {
      "inputs": [],
      "name": "owner",
      "outputs": [
        {
          "internalType": "address",
          "name": "",
          "type": "address"
        }
      ],
      "stateMutability": "view",
      "type": "function"
    },
    {
      "inputs": [],
      "name": "paused",
      "outputs": [
        {
          "internalType": "bool",
          "name": "",
          "type": "bool"
        }
      ],
      "stateMutability": "view",
      "type": "function"
    },
    {
      "inputs": [
        {
          "internalType": "uint256",
          "name": "_valueInUSD",
          "type": "uint256"
        },
        {
          "internalType": "address",
          "name": "_userAddress",
          "type": "address"
        },
        {
          "internalType": "address",
          "name": "_referrerAddress",
          "type": "address"
        }
      ],
      "name": "payReferralANUSDAdmin",
      "outputs": [],
      "stateMutability": "nonpayable",
      "type": "function"
    },
    {
      "inputs": [],
      "name": "proxiableUUID",
      "outputs": [
        {
          "internalType": "bytes32",
          "name": "",
          "type": "bytes32"
        }
      ],
      "stateMutability": "view",
      "type": "function"
    },
    {
      "inputs": [],
      "name": "renounceOwnership",
      "outputs": [],
      "stateMutability": "nonpayable",
      "type": "function"
    },
    {
      "inputs": [
        {
          "internalType": "address",
          "name": "_userAddress",
          "type": "address"
        }
      ],
      "name": "resetSelfTeamBusiness",
      "outputs": [],
      "stateMutability": "nonpayable",
      "type": "function"
    },
    {
      "inputs": [
        {
          "internalType": "address",
          "name": "",
          "type": "address"
        }
      ],
      "name": "rewardAccount",
      "outputs": [
        {
          "internalType": "address",
          "name": "userAdddress",
          "type": "address"
        },
        {
          "internalType": "uint8",
          "name": "lastRewardId",
          "type": "uint8"
        }
      ],
      "stateMutability": "view",
      "type": "function"
    },
    {
      "inputs": [
        {
          "internalType": "uint8",
          "name": "",
          "type": "uint8"
        }
      ],
      "name": "rewards",
      "outputs": [
        {
          "internalType": "uint8",
          "name": "id",
          "type": "uint8"
        },
        {
          "internalType": "uint256",
          "name": "selfBusinessLimit",
          "type": "uint256"
        },
        {
          "internalType": "uint256",
          "name": "directBusinessLimit",
          "type": "uint256"
        },
        {
          "internalType": "uint256",
          "name": "teamBusinessLimit",
          "type": "uint256"
        },
        {
          "internalType": "string",
          "name": "rankName",
          "type": "string"
        },
        {
          "internalType": "string",
          "name": "rewardName",
          "type": "string"
        },
        {
          "internalType": "uint256",
          "name": "appraisal",
          "type": "uint256"
        }
      ],
      "stateMutability": "view",
      "type": "function"
    },
    {
      "inputs": [
        {
          "internalType": "uint256",
          "name": "_directBusiness",
          "type": "uint256"
        },
        {
          "internalType": "uint256",
          "name": "_teamBusiness",
          "type": "uint256"
        }
      ],
      "name": "setGlobalPushCondition",
      "outputs": [],
      "stateMutability": "nonpayable",
      "type": "function"
    },
    {
      "inputs": [
        {
          "internalType": "uint8[]",
          "name": "_id",
          "type": "uint8[]"
        },
        {
          "internalType": "uint256[]",
          "name": "_selfBusinessLimit",
          "type": "uint256[]"
        },
        {
          "internalType": "uint256[]",
          "name": "_directBusinessLimit",
          "type": "uint256[]"
        },
        {
          "internalType": "uint256[]",
          "name": "_teamBusinessLimit",
          "type": "uint256[]"
        },
        {
          "internalType": "string[]",
          "name": "_rankName",
          "type": "string[]"
        },
        {
          "internalType": "string[]",
          "name": "_rewardName",
          "type": "string[]"
        },
        {
          "internalType": "uint256[]",
          "name": "_appraisal",
          "type": "uint256[]"
        }
      ],
      "name": "setRewards",
      "outputs": [],
      "stateMutability": "nonpayable",
      "type": "function"
    },
    {
      "inputs": [
        {
          "internalType": "address",
          "name": "_userAddress",
          "type": "address"
        },
        {
          "internalType": "uint256",
          "name": "_valueInWei",
          "type": "uint256"
        }
      ],
      "name": "setUserTotalBusiness",
      "outputs": [],
      "stateMutability": "nonpayable",
      "type": "function"
    },
    {
      "inputs": [],
      "name": "totalUsers",
      "outputs": [
        {
          "internalType": "uint16",
          "name": "",
          "type": "uint16"
        }
      ],
      "stateMutability": "view",
      "type": "function"
    },
    {
      "inputs": [
        {
          "internalType": "address",
          "name": "_address",
          "type": "address"
        },
        {
          "internalType": "uint256",
          "name": "_value",
          "type": "uint256"
        }
      ],
      "name": "transferNative",
      "outputs": [],
      "stateMutability": "nonpayable",
      "type": "function"
    },
    {
      "inputs": [
        {
          "internalType": "address",
          "name": "newOwner",
          "type": "address"
        }
      ],
      "name": "transferOwnership",
      "outputs": [],
      "stateMutability": "nonpayable",
      "type": "function"
    },
    {
      "inputs": [
        {
          "internalType": "address",
          "name": "_userAddress",
          "type": "address"
        },
        {
          "internalType": "uint8",
          "name": "_rewardId",
          "type": "uint8"
        }
      ],
      "name": "updateIfRewardPaidAdmin",
      "outputs": [],
      "stateMutability": "nonpayable",
      "type": "function"
    },
    {
      "inputs": [
        {
          "internalType": "address",
          "name": "_userAddress",
          "type": "address"
        }
      ],
      "name": "updateUplineTeamLevels20",
      "outputs": [],
      "stateMutability": "nonpayable",
      "type": "function"
    },
    {
      "inputs": [
        {
          "internalType": "address",
          "name": "newImplementation",
          "type": "address"
        }
      ],
      "name": "upgradeTo",
      "outputs": [],
      "stateMutability": "nonpayable",
      "type": "function"
    },
    {
      "inputs": [
        {
          "internalType": "address",
          "name": "newImplementation",
          "type": "address"
        },
        {
          "internalType": "bytes",
          "name": "data",
          "type": "bytes"
        }
      ],
      "name": "upgradeToAndCall",
      "outputs": [],
      "stateMutability": "payable",
      "type": "function"
    },
    {
      "inputs": [
        {
          "internalType": "uint256",
          "name": "",
          "type": "uint256"
        }
      ],
      "name": "usersList",
      "outputs": [
        {
          "internalType": "address",
          "name": "",
          "type": "address"
        }
      ],
      "stateMutability": "view",
      "type": "function"
    },
    {
      "inputs": [
        {
          "internalType": "address",
          "name": "_tokenAddress",
          "type": "address"
        },
        {
          "internalType": "address",
          "name": "_userAddress",
          "type": "address"
        },
        {
          "internalType": "uint256",
          "name": "_value",
          "type": "uint256"
        }
      ],
      "name": "withdrawtokens",
      "outputs": [],
      "stateMutability": "nonpayable",
      "type": "function"
    },
    {
      "stateMutability": "payable",
      "type": "receive"
    }
  ],
  "bytecode": "0x60a06040523060805234801561001457600080fd5b50608051615ee86200004d60003960008181611a6901528181611aa901528181611b4801528181611b880152611c420152615ee86000f3fe60806040526004361061023f5760003560e01c80637d2e90c21161012e578063cb0e0d7d116100ab578063f13a143f1161006f578063f13a143f146107ec578063f2fde38b1461080a578063faeda7e51461082a578063fb47e0161461085a578063fb5d45261461088757600080fd5b8063cb0e0d7d14610711578063ccef558714610743578063dd1ca71614610763578063e5ffb5df14610791578063ef519dc0146107b157600080fd5b80638da5cb5b116100f25780638da5cb5b1461063c57806391b493e41461065a5780639b317cc41461067a578063a0760aff146106ad578063bff1f9e1146106e257600080fd5b80637d2e90c21461059a5780638129fc1c146105ba57806386f6630d146105cf57806389db4eb0146105fc5780638a93f7b91461061c57600080fd5b806335166fef116101bc57806352d1902d1161018057806352d1902d146105195780635c975abb1461052e578063715018a61461054657806371e13ead1461055b578063771aa2161461057a57600080fd5b806335166fef1461046c5780633659cfe61461048c57806343b4ebf4146104ac5780634f1ef286146104e6578063502aa3b5146104f957600080fd5b8063228159b411610203578063228159b4146103595780632405091c1461037957806325f1c91e146103b95780632bb5112d146103e7578063348a7e941461044c57600080fd5b8063019f157a1461024b578063025313ff1461029a5780630898adc7146102e95780630a783ea51461030b57806318452cd81461033957600080fd5b3661024657005b600080fd5b34801561025757600080fd5b5061028561026636600461503c565b6001600160a01b03166000908152610111602052604090205460ff1690565b60405190151581526020015b60405180910390f35b3480156102a657600080fd5b506102d16102b536600461506b565b61010c602052600090815260409020546001600160a01b031681565b6040516001600160a01b039091168152602001610291565b3480156102f557600080fd5b50610309610304366004615086565b6108ac565b005b34801561031757600080fd5b5061010f546301000000900460ff165b60405160ff9091168152602001610291565b34801561034557600080fd5b5061028561035436600461503c565b61092d565b34801561036557600080fd5b506103096103743660046150c7565b610954565b34801561038557600080fd5b5061039961039436600461503c565b610b9b565b604080519485526020850193909352918301526060820152608001610291565b3480156103c557600080fd5b506103d96103d436600461503c565b61118a565b604051908152602001610291565b3480156103f357600080fd5b5061042b61040236600461503c565b61010a60205260009081526040902080546002909101546001600160a01b039091169060ff1682565b604080516001600160a01b03909316835260ff909116602083015201610291565b34801561045857600080fd5b5061030961046736600461503c565b611421565b34801561047857600080fd5b5061030961048736600461533f565b61173e565b34801561049857600080fd5b506103096104a736600461503c565b611a5f565b3480156104b857600080fd5b506102d16104c736600461503c565b6001600160a01b03908116600090815261010960205260409020541690565b6103096104f436600461545a565b611b3e565b34801561050557600080fd5b506102d16105143660046154be565b611c0a565b34801561052557600080fd5b506103d9611c35565b34801561053a57600080fd5b5060335460ff16610285565b34801561055257600080fd5b50610309611ce8565b34801561056757600080fd5b5061010f5462010000900460ff16610327565b34801561058657600080fd5b506103096105953660046154d7565b611cfc565b3480156105a657600080fd5b506103096105b536600461550c565b611e00565b3480156105c657600080fd5b50610309611e3e565b3480156105db57600080fd5b506105ef6105ea36600461503c565b612024565b6040516102919190615538565b34801561060857600080fd5b5061030961061736600461503c565b61210a565b34801561062857600080fd5b506103096106373660046155ad565b61232b565b34801561064857600080fd5b506065546001600160a01b03166102d1565b34801561066657600080fd5b50610309610675366004615622565b6123ff565b34801561068657600080fd5b5061069a610695366004615644565b612494565b60405161029197969594939291906156af565b3480156106b957600080fd5b506106cd6106c836600461503c565b6125e6565b60408051928352602083019190915201610291565b3480156106ee57600080fd5b5061010f546106fe9061ffff1681565b60405161ffff9091168152602001610291565b34801561071d57600080fd5b506106fe61072c36600461503c565b61010d6020526000908152604090205461ffff1681565b34801561074f57600080fd5b5061030961075e36600461550c565b612b8c565b34801561076f57600080fd5b5061078361077e366004615704565b612bb4565b60405161029192919061578b565b34801561079d57600080fd5b506103276107ac36600461503c565b612c92565b3480156107bd57600080fd5b506107d16107cc36600461503c565b613121565b60408051938452602084019290925290820152606001610291565b3480156107f857600080fd5b5060fb546001600160a01b03166102d1565b34801561081657600080fd5b5061030961082536600461503c565b61323c565b34801561083657600080fd5b5061084a61084536600461503c565b6132b2565b60405161029194939291906157b1565b34801561086657600080fd5b5061087a61087536600461503c565b61339f565b604051610291919061581e565b34801561089357600080fd5b5061089c61368c565b604051610291949392919061592d565b6108b4613753565b60405163a9059cbb60e01b81526001600160a01b0383811660048301526024820183905284169063a9059cbb906044016020604051808303816000875af1158015610903573d6000803e3d6000fd5b505050506040513d601f19601f820116820180604052508101906109279190615967565b50505050565b6001600160a01b038082166000908152610109602052604081205490911615155b92915050565b60fb5433906001600160a01b03166109746065546001600160a01b031690565b6001600160a01b0316826001600160a01b03161480610a1a575060fb60009054906101000a90046001600160a01b03166001600160a01b03166363d9df856040518163ffffffff1660e01b8152600401602060405180830381865afa1580156109e1573d6000803e3d6000fd5b505050506040513d601f19601f82011682018060405250810190610a059190615989565b6001600160a01b0316826001600160a01b0316145b610a765760405162461bcd60e51b815260206004820152602260248201527f4f6e6c79206f776e65722063616e2063616c6c20746869732066756e6374696f604482015261371760f11b60648201526084015b60405180910390fd5b6001600160a01b038481166000908152610109602052604090205416158015610aa757506001600160a01b03831615155b15610ab657610ab684846137ad565b6001600160a01b038381166000908152610109602052604090205416158015610ae757506001600160a01b03831615155b8015610b025750610100546001600160a01b03848116911614155b15610b1f5761010054610b1f9084906001600160a01b03166137ad565b610b8b8585836001600160a01b031663611509236040518163ffffffff1660e01b8152600401602060405180830381865afa158015610b62573d6000803e3d6000fd5b505050506040513d601f19601f82011682018060405250810190610b869190615989565b6138f5565b610b94846140a8565b5050505050565b6001600160a01b0381166000908152610109602052604081206001810154600482015492918291829190825b81811015610e9e5760006101096000856001018481548110610beb57610beb6159a6565b60009182526020808320909101546001600160a01b03908116845283820194909452604092830190912082516101608101845281549094168452600181018054845181850281018501909552808552919385840193909290830182828015610c7c57602002820191906000526020600020905b81546001600160a01b03168152600190910190602001808311610c5e575b5050505050815260200160028201805480602002602001604051908101604052809291908181526020018280548015610cde57602002820191906000526020600020905b81546001600160a01b03168152600190910190602001808311610cc0575b5050505050815260200160038201805480602002602001604051908101604052809291908181526020018280548015610d3657602002820191906000526020600020905b815481526020019060010190808311610d22575b5050505050815260200160048201548152602001600582015481526020016006820154815260200160078201805480602002602001604051908101604052809291908181526020018280548015610dac57602002820191906000526020600020905b815481526020019060010190808311610d98575b5050505050815260200160088201805480602002602001604051908101604052809291908181526020018280548015610e0457602002820191906000526020600020905b815481526020019060010190808311610df0575b5050505050815260200160098201805480602002602001604051908101604052809291908181526020018280548015610e5c57602002820191906000526020600020905b815481526020019060010190808311610e48575b5050509183525050600a919091015460ff1615156020909101526080810151909150610e8890886159d2565b9650508080610e96906159e5565b915050610bc7565b5060005b818110156111795760006101096000856001018481548110610ec657610ec66159a6565b60009182526020808320909101546001600160a01b03908116845283820194909452604092830190912082516101608101845281549094168452600181018054845181850281018501909552808552919385840193909290830182828015610f5757602002820191906000526020600020905b81546001600160a01b03168152600190910190602001808311610f39575b5050505050815260200160028201805480602002602001604051908101604052809291908181526020018280548015610fb957602002820191906000526020600020905b81546001600160a01b03168152600190910190602001808311610f9b575b505050505081526020016003820180548060200260200160405190810160405280929190818152602001828054801561101157602002820191906000526020600020905b815481526020019060010190808311610ffd575b505050505081526020016004820154815260200160058201548152602001600682015481526020016007820180548060200260200160405190810160405280929190818152602001828054801561108757602002820191906000526020600020905b815481526020019060010190808311611073575b50505050508152602001600882018054806020026020016040519081016040528092919081815260200182805480156110df57602002820191906000526020600020905b8154815260200190600101908083116110cb575b505050505081526020016009820180548060200260200160405190810160405280929190818152602001828054801561113757602002820191906000526020600020905b815481526020019060010190808311611123575b5050509183525050600a919091015460ff16151560209091015260c081015190915061116390876159d2565b9550508080611171906159e5565b915050610ea2565b508160060154925050509193509193565b6001600160a01b03808216600090815261010960209081526040808320815161016081018352815490951685526001810180548351818602810186019094528084529495869590949293858401939092919083018282801561121557602002820191906000526020600020905b81546001600160a01b031681526001909101906020018083116111f7575b505050505081526020016002820180548060200260200160405190810160405280929190818152602001828054801561127757602002820191906000526020600020905b81546001600160a01b03168152600190910190602001808311611259575b50505050508152602001600382018054806020026020016040519081016040528092919081815260200182805480156112cf57602002820191906000526020600020905b8154815260200190600101908083116112bb575b505050505081526020016004820154815260200160058201548152602001600682015481526020016007820180548060200260200160405190810160405280929190818152602001828054801561134557602002820191906000526020600020905b815481526020019060010190808311611331575b505050505081526020016008820180548060200260200160405190810160405280929190818152602001828054801561139d57602002820191906000526020600020905b815481526020019060010190808311611389575b50505050508152602001600982018054806020026020016040519081016040528092919081815260200182805480156113f557602002820191906000526020600020905b8154815260200190600101908083116113e1575b5050509183525050600a919091015460ff161515602090910152905061141a8161419f565b9392505050565b6001600160a01b038116600090815261010960205260408120600681019190915560028101541561173a5760005b60028201548110156117385760006101096000846002018481548110611477576114776159a6565b60009182526020808320909101546001600160a01b0390811684528382019490945260409283019091208251610160810184528154909416845260018101805484518185028101850190955280855291938584019390929083018282801561150857602002820191906000526020600020905b81546001600160a01b031681526001909101906020018083116114ea575b505050505081526020016002820180548060200260200160405190810160405280929190818152602001828054801561156a57602002820191906000526020600020905b81546001600160a01b0316815260019091019060200180831161154c575b50505050508152602001600382018054806020026020016040519081016040528092919081815260200182805480156115c257602002820191906000526020600020905b8154815260200190600101908083116115ae575b505050505081526020016004820154815260200160058201548152602001600682015481526020016007820180548060200260200160405190810160405280929190818152602001828054801561163857602002820191906000526020600020905b815481526020019060010190808311611624575b505050505081526020016008820180548060200260200160405190810160405280929190818152602001828054801561169057602002820191906000526020600020905b81548152602001906001019080831161167c575b50505050508152602001600982018054806020026020016040519081016040528092919081815260200182805480156116e857602002820191906000526020600020905b8154815260200190600101908083116116d4575b5050509183525050600a919091015460ff161515602090910152608081015160068501805492935090916000906117209084906159d2565b9091555061173191508290506159e5565b905061144f565b505b5050565b60fb54604051630935e01b60e21b81523360048201526001600160a01b03909116906324d7806c90602401602060405180830381865afa158015611786573d6000803e3d6000fd5b505050506040513d601f19601f820116820180604052508101906117aa9190615967565b6117c65760405162461bcd60e51b8152600401610a6d906159fe565b60005b8751811015611a55576040518060e001604052808983815181106117ef576117ef6159a6565b602002602001015160ff168152602001888381518110611811576118116159a6565b60200260200101518152602001878381518110611830576118306159a6565b6020026020010151815260200186838151811061184f5761184f6159a6565b6020026020010151815260200185838151811061186e5761186e6159a6565b6020026020010151815260200184838151811061188d5761188d6159a6565b602002602001015181526020018383815181106118ac576118ac6159a6565b602002602001015181525061010b60008a84815181106118ce576118ce6159a6565b60209081029190910181015160ff90811683528282019390935260409182016000208451815460ff1916941693909317835583015160018301558201516002820155606082015160038201556080820151600482019061192e9082615aab565b5060a082015160058201906119439082615aab565b5060c082015181600601559050507fb9f30bf0ab6748f3fcfbc9d280ed1feedea51276343f55f8342b8c453b876e9a888281518110611984576119846159a6565b602002602001015188838151811061199e5761199e6159a6565b60200260200101518884815181106119b8576119b86159a6565b60200260200101518885815181106119d2576119d26159a6565b60200260200101518886815181106119ec576119ec6159a6565b6020026020010151888781518110611a0657611a066159a6565b6020026020010151888881518110611a2057611a206159a6565b6020026020010151604051611a3b97969594939291906156af565b60405180910390a180611a4d816159e5565b9150506117c9565b5050505050505050565b6001600160a01b037f0000000000000000000000000000000000000000000000000000000000000000163003611aa75760405162461bcd60e51b8152600401610a6d90615b6b565b7f00000000000000000000000000000000000000000000000000000000000000006001600160a01b0316611af0600080516020615e6c833981519152546001600160a01b031690565b6001600160a01b031614611b165760405162461bcd60e51b8152600401610a6d90615bb7565b611b1f81614209565b60408051600080825260208201909252611b3b91839190614211565b50565b6001600160a01b037f0000000000000000000000000000000000000000000000000000000000000000163003611b865760405162461bcd60e51b8152600401610a6d90615b6b565b7f00000000000000000000000000000000000000000000000000000000000000006001600160a01b0316611bcf600080516020615e6c833981519152546001600160a01b031690565b6001600160a01b031614611bf55760405162461bcd60e51b8152600401610a6d90615bb7565b611bfe82614209565b61173a82826001614211565b61010e8181548110611c1b57600080fd5b6000918252602090912001546001600160a01b0316905081565b6000306001600160a01b037f00000000000000000000000000000000000000000000000000000000000000001614611cd55760405162461bcd60e51b815260206004820152603860248201527f555550535570677261646561626c653a206d757374206e6f742062652063616c60448201527f6c6564207468726f7567682064656c656761746563616c6c00000000000000006064820152608401610a6d565b50600080516020615e6c83398151915290565b611cf0613753565b611cfa6000614381565b565b60fb54604051630935e01b60e21b81523360048201526001600160a01b03909116906324d7806c90602401602060405180830381865afa158015611d44573d6000803e3d6000fd5b505050506040513d601f19601f82011682018060405250810190611d689190615967565b611d845760405162461bcd60e51b8152600401610a6d906159fe565b6001600160a01b03808316600090815261010a602052604090208054909116611dc15780546001600160a01b0319166001600160a01b0384161781555b600190810180549182018155600090815260209081902090820401805460ff938416601f9093166101000a928302939092021990911691909117905550565b611e08613753565b6040516001600160a01b0383169082156108fc029083906000818181858888f19350505050158015611738573d6000803e3d6000fd5b600054610100900460ff1615808015611e5e5750600054600160ff909116105b80611e785750303b158015611e78575060005460ff166001145b611edb5760405162461bcd60e51b815260206004820152602e60248201527f496e697469616c697a61626c653a20636f6e747261637420697320616c72656160448201526d191e481a5b9a5d1a585b1a5e995960921b6064820152608401610a6d565b6000805460ff191660011790558015611efe576000805461ff0019166101001790555b60fb80546001600160a01b03199081167377daafc7411c911b869c71bf70fe36cce507845d17909155610100805490911673f3ba579d4afd4dad8a8c2d1bcbdd1405688e492f1790556040805160e0810182526007808252600460208301526003928201929092526002606082015260016080820181905260a0820181905260c0820152611f8f9160fc9190614fc2565b50606460fd5560146101065569011478b7c30abc3000006101035560046101015560056101045568a80d24677efef0000061010555611fcc6143d3565b611fd4614402565b611fdc614431565b8015611b3b576000805461ff0019169055604051600181527f7f26b83ff96e1f2b6a682f133852f6798a09c465da95921460cefb38474024989060200160405180910390a150565b612054604051806060016040528060006001600160a01b0316815260200160608152602001600060ff1681525090565b6001600160a01b03808316600090815261010a60209081526040918290208251606081018452815490941684526001810180548451818502810185019095528085529193858401939092908301828280156120ec57602002820191906000526020600020906000905b825461010083900a900460ff168152602060019283018181049485019490930390920291018084116120bd5790505b50505091835250506002919091015460ff1660209091015292915050565b6065546001600160a01b031633146121a2576001600160a01b0381166000908152610111602052604090205460ff16156121a25760405162461bcd60e51b815260206004820152603360248201527f75706461746555706c696e655465616d4c6576656c73323028293a204c65766560448201527236399030b63932b0b23c903ab83230ba32b21760691b6064820152608401610a6d565b6001600160a01b0381166000908152610109602052604090206004810154806122335760405162461bcd60e51b815260206004820152603960248201527f75706461746555706c696e655465616d4c6576656c73323028293a20596f752060448201527f68617665206e6f20627573696e657373206f72207a65726f2e000000000000006064820152608401610a6d565b6101065460fc8054604080516020808402820181019092528281526000939092909183018282801561228457602002820191906000526020600020905b815481526020019060010190808311612270575b5050505050905060005b828160ff1610156122ff5784546001600160a01b0316600081815261010960205260409020906122be57506122ff565b82518260ff16106122ed576122d4600286615c19565b8160060160008282546122e791906159d2565b90915550505b94506122f881615c2d565b905061228e565b5050506001600160a01b03909216600090815261011160205260409020805460ff191660011790555050565b60fb54604051630935e01b60e21b81523360048201526001600160a01b03909116906324d7806c90602401602060405180830381865afa158015612373573d6000803e3d6000fd5b505050506040513d601f19601f820116820180604052508101906123979190615967565b6123b35760405162461bcd60e51b8152600401610a6d906159fe565b60005b81811015611738576123ed8383838181106123d3576123d36159a6565b90506020020160208101906123e8919061503c565b6140a8565b806123f7816159e5565b9150506123b6565b60fb54604051630935e01b60e21b81523360048201526001600160a01b03909116906324d7806c90602401602060405180830381865afa158015612447573d6000803e3d6000fd5b505050506040513d601f19601f8201168201806040525081019061246b9190615967565b6124875760405162461bcd60e51b8152600401610a6d906159fe565b6101039190915561011055565b61010b602052600090815260409020805460018201546002830154600384015460048501805460ff909516959394929391926124cf90615a29565b80601f01602080910402602001604051908101604052809291908181526020018280546124fb90615a29565b80156125485780601f1061251d57610100808354040283529160200191612548565b820191906000526020600020905b81548152906001019060200180831161252b57829003601f168201915b50505050509080600501805461255d90615a29565b80601f016020809104026020016040519081016040528092919081815260200182805461258990615a29565b80156125d65780601f106125ab576101008083540402835291602001916125d6565b820191906000526020600020905b8154815290600101906020018083116125b957829003601f168201915b5050505050908060060154905087565b6001600160a01b0380821660009081526101096020908152604080832081516101608101835281549095168552600181018054835181860281018601909452808452949586958695919485830193909290919083018282801561267257602002820191906000526020600020905b81546001600160a01b03168152600190910190602001808311612654575b50505050508152602001600282018054806020026020016040519081016040528092919081815260200182805480156126d457602002820191906000526020600020905b81546001600160a01b031681526001909101906020018083116126b6575b505050505081526020016003820180548060200260200160405190810160405280929190818152602001828054801561272c57602002820191906000526020600020905b815481526020019060010190808311612718575b50505050508152602001600482015481526020016005820154815260200160068201548152602001600782018054806020026020016040519081016040528092919081815260200182805480156127a257602002820191906000526020600020905b81548152602001906001019080831161278e575b50505050508152602001600882018054806020026020016040519081016040528092919081815260200182805480156127fa57602002820191906000526020600020905b8154815260200190600101908083116127e6575b505050505081526020016009820180548060200260200160405190810160405280929190818152602001828054801561285257602002820191906000526020600020905b81548152602001906001019080831161283e575b5050509183525050600a919091015460ff16151560209182015281015151909150600090600211612b855760005b8260200151518161ffff161015612b77576000610109600085602001518461ffff16815181106128b2576128b26159a6565b6020908102919091018101516001600160a01b0390811683528282019390935260409182016000208251610160810184528154909416845260018101805484518185028101850190955280855291938584019390929083018282801561294157602002820191906000526020600020905b81546001600160a01b03168152600190910190602001808311612923575b50505050508152602001600282018054806020026020016040519081016040528092919081815260200182805480156129a357602002820191906000526020600020905b81546001600160a01b03168152600190910190602001808311612985575b50505050508152602001600382018054806020026020016040519081016040528092919081815260200182805480156129fb57602002820191906000526020600020905b8154815260200190600101908083116129e7575b5050505050815260200160048201548152602001600582015481526020016006820154815260200160078201805480602002602001604051908101604052809291908181526020018280548015612a7157602002820191906000526020600020905b815481526020019060010190808311612a5d575b5050505050815260200160088201805480602002602001604051908101604052809291908181526020018280548015612ac957602002820191906000526020600020905b815481526020019060010190808311612ab5575b5050505050815260200160098201805480602002602001604051908101604052809291908181526020018280548015612b2157602002820191906000526020600020905b815481526020019060010190808311612b0d575b5050509183525050600a919091015460ff16151560209091015260c0810151909150861015612b52578060c0015195505b60c0810151612b6190846159d2565b9250508080612b6f90615c4c565b915050612880565b50612b828482615c6d565b92505b5050915091565b612b94613753565b6001600160a01b0390911660009081526101096020526040902060060155565b60606000806000612bc6878787614458565b915091508092508061ffff1667ffffffffffffffff811115612bea57612bea615109565b604051908082528060200260200182016040528015612c13578160200160208202803683370190505b50935060005b8161ffff168161ffff161015612c8757828161ffff1681518110612c3f57612c3f6159a6565b6020026020010151858261ffff1681518110612c5d57612c5d6159a6565b6001600160a01b039092166020928302919091019091015280612c7f81615c4c565b915050612c19565b505050935093915050565b6001600160a01b038082166000908152610109602090815260408083208151610160810183528154909516855260018101805483518186028101860190945280845294958695909492938584019390929190830182828015612d1d57602002820191906000526020600020905b81546001600160a01b03168152600190910190602001808311612cff575b5050505050815260200160028201805480602002602001604051908101604052809291908181526020018280548015612d7f57602002820191906000526020600020905b81546001600160a01b03168152600190910190602001808311612d61575b5050505050815260200160038201805480602002602001604051908101604052809291908181526020018280548015612dd757602002820191906000526020600020905b815481526020019060010190808311612dc3575b5050505050815260200160048201548152602001600582015481526020016006820154815260200160078201805480602002602001604051908101604052809291908181526020018280548015612e4d57602002820191906000526020600020905b815481526020019060010190808311612e39575b5050505050815260200160088201805480602002602001604051908101604052809291908181526020018280548015612ea557602002820191906000526020600020905b815481526020019060010190808311612e91575b5050505050815260200160098201805480602002602001604051908101604052809291908181526020018280548015612efd57602002820191906000526020600020905b815481526020019060010190808311612ee9575b5050509183525050600a919091015460ff161515602090910152905060005b60148160ff16101561311a5760ff808216600090815261010b60209081526040808320815160e0810183528154909516855260018101549285019290925260028201549084015260038101546060840152600481018054929392608084019190612f8590615a29565b80601f0160208091040260200160405190810160405280929190818152602001828054612fb190615a29565b8015612ffe5780601f10612fd357610100808354040283529160200191612ffe565b820191906000526020600020905b815481529060010190602001808311612fe157829003601f168201915b5050505050815260200160058201805461301790615a29565b80601f016020809104026020016040519081016040528092919081815260200182805461304390615a29565b80156130905780601f1061306557610100808354040283529160200191613090565b820191906000526020600020905b81548152906001019060200180831161307357829003601f168201915b50505050508152602001600682015481525050905060028260ff161180156130ba57506020810151155b156130c5575061311a565b80602001516130d38461419f565b101580156130e9575080604001518360a0015110155b80156130fe57506130fe838260600151614968565b15613107578193505b508061311281615c2d565b915050612f1c565b5050919050565b6001600160a01b0381166000908152610109602052604081206007810154600882015460098301548493849390929091845b8381101561319a57846007018181548110613170576131706159a6565b90600052602060002001548861318691906159d2565b975080613192816159e5565b915050613153565b5060005b828110156131e5578460080181815481106131bb576131bb6159a6565b9060005260206000200154876131d191906159d2565b9650806131dd816159e5565b91505061319e565b5060005b8181101561323057846009018181548110613206576132066159a6565b90600052602060002001548661321c91906159d2565b955080613228816159e5565b9150506131e9565b50505050509193909250565b613244613753565b6001600160a01b0381166132a95760405162461bcd60e51b815260206004820152602660248201527f4f776e61626c653a206e6577206f776e657220697320746865207a65726f206160448201526564647265737360d01b6064820152608401610a6d565b611b3b81614381565b6001600160a01b0381166000908152610109602090815260408083206001810180548351818602810186019094528084526060959486948694939092909183018282801561332957602002820191906000526020600020905b81546001600160a01b0316815260019091019060200180831161330b575b50505050509450845193508060020180548060200260200160405190810160405280929190818152602001828054801561338c57602002820191906000526020600020905b81546001600160a01b0316815260019091019060200180831161336e575b5050505050925082519150509193509193565b61340760405180610160016040528060006001600160a01b031681526020016060815260200160608152602001606081526020016000815260200160008152602001600081526020016060815260200160608152602001606081526020016000151581525090565b6001600160a01b03808316600090815261010960209081526040918290208251610160810184528154909416845260018101805484518185028101850190955280855291938584019390929083018282801561348c57602002820191906000526020600020905b81546001600160a01b0316815260019091019060200180831161346e575b50505050508152602001600282018054806020026020016040519081016040528092919081815260200182805480156134ee57602002820191906000526020600020905b81546001600160a01b031681526001909101906020018083116134d0575b505050505081526020016003820180548060200260200160405190810160405280929190818152602001828054801561354657602002820191906000526020600020905b815481526020019060010190808311613532575b50505050508152602001600482015481526020016005820154815260200160068201548152602001600782018054806020026020016040519081016040528092919081815260200182805480156135bc57602002820191906000526020600020905b8154815260200190600101908083116135a8575b505050505081526020016008820180548060200260200160405190810160405280929190818152602001828054801561361457602002820191906000526020600020905b815481526020019060010190808311613600575b505050505081526020016009820180548060200260200160405190810160405280929190818152602001828054801561366c57602002820191906000526020600020905b815481526020019060010190808311613658575b5050509183525050600a919091015460ff16151560209091015292915050565b60fd5460fc80546040805160208084028201810190925282815260609360009384938301828280156136dd57602002820191906000526020600020905b8154815260200190600101908083116136c9575b505060fc549396506000925050505b818160ff1610156137375760fc8160ff168154811061370d5761370d6159a6565b90600052602060002001548461372391906159d2565b93508061372f81615c2d565b9150506136ec565b5050610100549394929391926001600160a01b03909216919050565b6065546001600160a01b03163314611cfa5760405162461bcd60e51b815260206004820181905260248201527f4f776e61626c653a2063616c6c6572206973206e6f7420746865206f776e65726044820152606401610a6d565b6001600160a01b038281166000818152610109602052604080822080546001600160a01b03191694861694851781559051909392917ffaf63637882ff2d63ca76881cf92fb857130e36f350c926f9cc884b499b42b7791a360fc5460005b81811015610b945782546001600160a01b031660009081526101096020526040812090829003613865576001818101805491820181556000908152602090200180546001600160a01b0319166001600160a01b0388161790555b83546001600160a01b031661387a5750610b94565b6002810180546001810182556000918252602082200180546001600160a01b0319166001600160a01b03898116918217909255865460405191938984169391909116917fb766b19465b3277b0b275adf79d715cac93166bf6e6a39f26e4ccfdec76ad47e9190a49250806138ed816159e5565b91505061380b565b600060fc80548060200260200160405190810160405280929190818152602001828054801561394357602002820191906000526020600020905b81548152602001906001019080831161392f575b505050506001600160a01b0385166000908152610109602090815260408220600381018054600181018255908452918320909101889055600481015493945090929091501561399157600191505b858160040160008282546139a591906159d2565b90915550506101065460009067ffffffffffffffff8111156139c9576139c9615109565b6040519080825280602002602001820160405280156139f2578160200160208202803683370190505b5090506000805b61010654811015613d1a5783546001600160a01b031660008181526101096020526040902090613a295750613d1a565b8651821015613c785760006064888481518110613a4857613a486159a6565b60200260200101518c613a5b9190615c80565b613a659190615c19565b905082600003613a89578a826005016000828254613a8391906159d2565b90915550505b6007820180546001810182556000918252602082200182905560ff8054839290613ab49084906159d2565b909155505085546001600160a01b03808b169163a9059cbb9116613ad8848d614ca0565b6040516001600160e01b031960e085901b1681526001600160a01b03909216600483015260248201526044016020604051808303816000875af1158015613b23573d6000803e3d6000fd5b505050506040513d601f19601f82011682018060405250810190613b479190615967565b50855481906001600160a01b03908116908c167f197a0a2b0fbff3fc4f7f4d32597585aa8415fcc4c5dd6634336ec65904529c83613b868760016159d2565b60408051918252602082018190526005908201526410539554d160da1b606082015260800160405180910390a4600a82015460ff16613c7657610103548260050154118015613bdb5750610110548260060154115b15613c765785546101028054600180820183556000929092527f93bdaa6a4190909b7c3fbe8d42169ffe1cab19f51dfc8db24c71abf849eced4a0180546001600160a01b0319166001600160a01b03938416179055600a8401805460ff191690911790558654604051911681527facc63915cb028aeaee9996abc0f864fc0559a2f955750aa97d6ef9f51014acfb9060200160405180910390a15b505b89816006016000828254613c8c91906159d2565b9091555050610105546005820154118015613cb9575061010f546001820154630100000090910460ff1611155b15613d0657845484516001600160a01b0390911690859085908110613ce057613ce06159a6565b6001600160a01b039092166020928302919091019091015282613d02816159e5565b9350505b935080613d12816159e5565b9150506139f9565b508015613eee576000816064610104548b613d359190615c80565b613d3f9190615c19565b613d499190615c19565b905060005b82811015613eeb5760006001600160a01b0316848281518110613d7357613d736159a6565b60200260200101516001600160a01b03160315613eeb5760006101096000868481518110613da357613da36159a6565b60200260200101516001600160a01b03166001600160a01b031681526020019081526020016000209050886001600160a01b031663a9059cbb868481518110613dee57613dee6159a6565b6020026020010151613e00868d614ca0565b6040516001600160e01b031960e085901b1681526001600160a01b03909216600483015260248201526044016020604051808303816000875af1158015613e4b573d6000803e3d6000fd5b505050506040513d601f19601f82011682018060405250810190613e6f9190615967565b50848281518110613e8257613e826159a6565b60200260200101516001600160a01b0316837f62f12b06523c734cca73aa1502a5f967c8e09d0a2f084fd36acbac47f54b0d4e60405160405180910390a36009018054600181018255600091825260209091200182905580613ee3816159e5565b915050613d4e565b50505b6101025415611a555760006064610101548a613f0a9190615c80565b613f149190615c19565b610102546040805142602082015244918101919091529192506000916060016040516020818303038152906040528051906020012060001c613f569190615c97565b905060006101028281548110613f6e57613f6e6159a6565b6000918252602080832091909101546001600160a01b0316808352610109909152604090912061010f54600182015492935090916201000090910460ff161161409a57896001600160a01b031663a9059cbb83613fcb878e614ca0565b6040516001600160e01b031960e085901b1681526001600160a01b03909216600483015260248201526044016020604051808303816000875af1158015614016573d6000803e3d6000fd5b505050506040513d601f19601f8201168201806040525081019061403a9190615967565b50600881018054600181018255600091825260209182902001859055604080518681526001600160a01b038516928101929092527f51e673ac98f0ea063ce27eb5af807d22b97cd11cd79380cf1f711ad80948046c910160405180910390a15b505050505050505050505050565b6001600160a01b038116600090815261010d602052604081205461ffff169003611b3b5761010f546000906140e29061ffff166001615cab565b6001600160a01b038316600081815261010d60209081526040808320805461ffff191661ffff878116918217909255845261010c909252822080546001600160a01b0319908116851790915561010e80546001810182559084527f44731785622d53a842eeb261a70df6f2b61b9624656157b6168597f0656f480501805490911690931790925561010f805493945092909116919061418083615c4c565b91906101000a81548161ffff021916908361ffff160217905550505050565b606081015151600090156142045760015b8260600151518161ffff1610156142025782606001518161ffff16815181106141db576141db6159a6565b6020026020010151826141ee91906159d2565b9150806141fa81615c4c565b9150506141b0565b505b919050565b611b3b613753565b7f4910fdfa16fed3260ed0e7147f7cc6da11a60208b5b9406d12a635614ffd91435460ff16156142495761424483614d2c565b611738565b826001600160a01b03166352d1902d6040518163ffffffff1660e01b8152600401602060405180830381865afa9250505080156142a3575060408051601f3d908101601f191682019092526142a091810190615ccd565b60015b6143065760405162461bcd60e51b815260206004820152602e60248201527f45524331393637557067726164653a206e657720696d706c656d656e7461746960448201526d6f6e206973206e6f74205555505360901b6064820152608401610a6d565b600080516020615e6c83398151915281146143755760405162461bcd60e51b815260206004820152602960248201527f45524331393637557067726164653a20756e737570706f727465642070726f786044820152681a58589b195555525160ba1b6064820152608401610a6d565b50611738838383614dc8565b606580546001600160a01b038381166001600160a01b0319831681179093556040519116919082907f8be0079c531659141344cd1fd0a4f28419497f9722a3daafe3b4186f6b6457e090600090a35050565b600054610100900460ff166143fa5760405162461bcd60e51b8152600401610a6d90615ce6565b611cfa614ded565b600054610100900460ff166144295760405162461bcd60e51b8152600401610a6d90615ce6565b611cfa614e20565b600054610100900460ff16611cfa5760405162461bcd60e51b8152600401610a6d90615ce6565b606060006144668484615d31565b61ffff1667ffffffffffffffff81111561448257614482615109565b6040519080825280602002602001820160405280156144ab578160200160208202803683370190505b5091505b8261ffff168461ffff16116149605761ffff8416600090815261010c60209081526040808320546001600160a01b0390811680855261010984528285208351610160810185528154909316835260018101805485518188028101880190965280865292969593949193858101939083018282801561455657602002820191906000526020600020905b81546001600160a01b03168152600190910190602001808311614538575b50505050508152602001600282018054806020026020016040519081016040528092919081815260200182805480156145b857602002820191906000526020600020905b81546001600160a01b0316815260019091019060200180831161459a575b505050505081526020016003820180548060200260200160405190810160405280929190818152602001828054801561461057602002820191906000526020600020905b8154815260200190600101908083116145fc575b505050505081526020016004820154815260200160058201548152602001600682015481526020016007820180548060200260200160405190810160405280929190818152602001828054801561468657602002820191906000526020600020905b815481526020019060010190808311614672575b50505050508152602001600882018054806020026020016040519081016040528092919081815260200182805480156146de57602002820191906000526020600020905b8154815260200190600101908083116146ca575b505050505081526020016009820180548060200260200160405190810160405280929190818152602001828054801561473657602002820191906000526020600020905b815481526020019060010190808311614722575b5050509183525050600a919091015460ff9081161515602092830152898116600090815261010b83526040808220815160e081018352815490941684526001810154948401949094526002840154908301526003830154606083015260048301805494955090939192916080840191906147af90615a29565b80601f01602080910402602001604051908101604052809291908181526020018280546147db90615a29565b80156148285780601f106147fd57610100808354040283529160200191614828565b820191906000526020600020905b81548152906001019060200180831161480b57829003601f168201915b5050505050815260200160058201805461484190615a29565b80601f016020809104026020016040519081016040528092919081815260200182805461486d90615a29565b80156148ba5780601f1061488f576101008083540402835291602001916148ba565b820191906000526020600020905b81548152906001019060200180831161489d57829003601f168201915b50505050508152602001600682015481525050905080602001516148dd8361419f565b101580156148f3575080604001518260a0015110155b80156149085750614908828260600151614968565b1561494a5782858561ffff1681518110614924576149246159a6565b6001600160a01b03909216602092830291909101909101528361494681615c4c565b9450505b505050838061495890615c4c565b9450506144af565b935093915050565b6000806000600285602001515110614c985760005b8560200151518161ffff161015614c74576000610109600088602001518461ffff16815181106149af576149af6159a6565b6020908102919091018101516001600160a01b03908116835282820193909352604091820160002082516101608101845281549094168452600181018054845181850281018501909552808552919385840193909290830182828015614a3e57602002820191906000526020600020905b81546001600160a01b03168152600190910190602001808311614a20575b5050505050815260200160028201805480602002602001604051908101604052809291908181526020018280548015614aa057602002820191906000526020600020905b81546001600160a01b03168152600190910190602001808311614a82575b5050505050815260200160038201805480602002602001604051908101604052809291908181526020018280548015614af857602002820191906000526020600020905b815481526020019060010190808311614ae4575b5050505050815260200160048201548152602001600582015481526020016006820154815260200160078201805480602002602001604051908101604052809291908181526020018280548015614b6e57602002820191906000526020600020905b815481526020019060010190808311614b5a575b5050505050815260200160088201805480602002602001604051908101604052809291908181526020018280548015614bc657602002820191906000526020600020905b815481526020019060010190808311614bb2575b5050505050815260200160098201805480602002602001604051908101604052809291908181526020018280548015614c1e57602002820191906000526020600020905b815481526020019060010190808311614c0a575b5050509183525050600a919091015460ff16151560209091015260c0810151909150841015614c4f578060c0015193505b60c0810151614c5e90846159d2565b9250508080614c6c90615c4c565b91505061497d565b50838210158015614c8e575083614c8b8383615c6d565b10155b15614c9857600192505b505092915050565b6000670de0b6b3a7640000826001600160a01b031663313ce5676040518163ffffffff1660e01b8152600401602060405180830381865afa158015614ce9573d6000803e3d6000fd5b505050506040513d601f19601f82011682018060405250810190614d0d9190615ccd565b614d1890600a615e30565b614d229085615c80565b61141a9190615c19565b6001600160a01b0381163b614d995760405162461bcd60e51b815260206004820152602d60248201527f455243313936373a206e657720696d706c656d656e746174696f6e206973206e60448201526c1bdd08184818dbdb9d1c9858dd609a1b6064820152608401610a6d565b600080516020615e6c83398151915280546001600160a01b0319166001600160a01b0392909216919091179055565b614dd183614e50565b600082511180614dde5750805b15611738576109278383614e90565b600054610100900460ff16614e145760405162461bcd60e51b8152600401610a6d90615ce6565b6033805460ff19169055565b600054610100900460ff16614e475760405162461bcd60e51b8152600401610a6d90615ce6565b611cfa33614381565b614e5981614d2c565b6040516001600160a01b038216907fbc7cd75a20ee27fd9adebab32041f755214dbc6bffa90cc0225b39da2e5c2d3b90600090a250565b60606001600160a01b0383163b614ef85760405162461bcd60e51b815260206004820152602660248201527f416464726573733a2064656c65676174652063616c6c20746f206e6f6e2d636f6044820152651b9d1c9858dd60d21b6064820152608401610a6d565b600080846001600160a01b031684604051614f139190615e3c565b600060405180830381855af49150503d8060008114614f4e576040519150601f19603f3d011682016040523d82523d6000602084013e614f53565b606091505b5091509150614f7b8282604051806060016040528060278152602001615e8c60279139614f84565b95945050505050565b60608315614f9357508161141a565b61141a8383815115614fa85781518083602001fd5b8060405162461bcd60e51b8152600401610a6d9190615e58565b828054828255906000526020600020908101928215615002579160200282015b82811115615002578251829060ff16905591602001919060010190614fe2565b5061500e929150615012565b5090565b5b8082111561500e5760008155600101615013565b6001600160a01b0381168114611b3b57600080fd5b60006020828403121561504e57600080fd5b813561141a81615027565b803561ffff8116811461420457600080fd5b60006020828403121561507d57600080fd5b61141a82615059565b60008060006060848603121561509b57600080fd5b83356150a681615027565b925060208401356150b681615027565b929592945050506040919091013590565b6000806000606084860312156150dc57600080fd5b8335925060208401356150ee81615027565b915060408401356150fe81615027565b809150509250925092565b634e487b7160e01b600052604160045260246000fd5b604051601f8201601f1916810167ffffffffffffffff8111828210171561514857615148615109565b604052919050565b600067ffffffffffffffff82111561516a5761516a615109565b5060051b60200190565b803560ff8116811461420457600080fd5b600082601f83011261519657600080fd5b813560206151ab6151a683615150565b61511f565b82815260059290921b840181019181810190868411156151ca57600080fd5b8286015b848110156151ec576151df81615174565b83529183019183016151ce565b509695505050505050565b600082601f83011261520857600080fd5b813560206152186151a683615150565b82815260059290921b8401810191818101908684111561523757600080fd5b8286015b848110156151ec578035835291830191830161523b565b600067ffffffffffffffff83111561526c5761526c615109565b61527f601f8401601f191660200161511f565b905082815283838301111561529357600080fd5b828260208301376000602084830101529392505050565b600082601f8301126152bb57600080fd5b813560206152cb6151a683615150565b82815260059290921b840181019181810190868411156152ea57600080fd5b8286015b848110156151ec57803567ffffffffffffffff81111561530e5760008081fd5b8701603f810189136153205760008081fd5b615331898683013560408401615252565b8452509183019183016152ee565b600080600080600080600060e0888a03121561535a57600080fd5b873567ffffffffffffffff8082111561537257600080fd5b61537e8b838c01615185565b985060208a013591508082111561539457600080fd5b6153a08b838c016151f7565b975060408a01359150808211156153b657600080fd5b6153c28b838c016151f7565b965060608a01359150808211156153d857600080fd5b6153e48b838c016151f7565b955060808a01359150808211156153fa57600080fd5b6154068b838c016152aa565b945060a08a013591508082111561541c57600080fd5b6154288b838c016152aa565b935060c08a013591508082111561543e57600080fd5b5061544b8a828b016151f7565b91505092959891949750929550565b6000806040838503121561546d57600080fd5b823561547881615027565b9150602083013567ffffffffffffffff81111561549457600080fd5b8301601f810185136154a557600080fd5b6154b485823560208401615252565b9150509250929050565b6000602082840312156154d057600080fd5b5035919050565b600080604083850312156154ea57600080fd5b82356154f581615027565b915061550360208401615174565b90509250929050565b6000806040838503121561551f57600080fd5b823561552a81615027565b946020939093013593505050565b602080825282516001600160a01b031682820152828101516060604084015280516080840181905260009291820190839060a08601905b8083101561559257835160ff16825292840192600192909201919084019061556f565b5060ff60408801511660608701528094505050505092915050565b600080602083850312156155c057600080fd5b823567ffffffffffffffff808211156155d857600080fd5b818501915085601f8301126155ec57600080fd5b8135818111156155fb57600080fd5b8660208260051b850101111561561057600080fd5b60209290920196919550909350505050565b6000806040838503121561563557600080fd5b50508035926020909101359150565b60006020828403121561565657600080fd5b61141a82615174565b60005b8381101561567a578181015183820152602001615662565b50506000910152565b6000815180845261569b81602086016020860161565f565b601f01601f19169290920160200192915050565b60ff8816815286602082015285604082015284606082015260e0608082015260006156dd60e0830186615683565b82810360a08401526156ef8186615683565b9150508260c083015298975050505050505050565b60008060006060848603121561571957600080fd5b61572284615174565b925061573060208501615059565b915061573e60408501615059565b90509250925092565b600081518084526020808501945080840160005b838110156157805781516001600160a01b03168752958201959082019060010161575b565b509495945050505050565b60408152600061579e6040830185615747565b905061ffff831660208301529392505050565b6080815260006157c46080830187615747565b85602084015282810360408401526157dc8186615747565b91505082606083015295945050505050565b600081518084526020808501945080840160005b8381101561578057815187529582019590820190600101615802565b602081526158386020820183516001600160a01b03169052565b60006020830151610160806040850152615856610180850183615747565b91506040850151601f19808685030160608701526158748483615747565b9350606087015191508086850301608087015261589184836157ee565b9350608087015160a087015260a087015160c087015260c087015160e087015260e087015191506101008187860301818801526158ce85846157ee565b9450808801519250506101208187860301818801526158ed85846157ee565b94508088015192505061014081878603018188015261590c85846157ee565b945080880151925050506159238286018215159052565b5090949350505050565b84815260806020820152600061594660808301866157ee565b6040830194909452506001600160a01b039190911660609091015292915050565b60006020828403121561597957600080fd5b8151801515811461141a57600080fd5b60006020828403121561599b57600080fd5b815161141a81615027565b634e487b7160e01b600052603260045260246000fd5b634e487b7160e01b600052601160045260246000fd5b8082018082111561094e5761094e6159bc565b6000600182016159f7576159f76159bc565b5060010190565b6020808252601190820152702cb7ba9030b932903737ba1030b236b4b760791b604082015260600190565b600181811c90821680615a3d57607f821691505b60208210810361420257634e487b7160e01b600052602260045260246000fd5b601f82111561173857600081815260208120601f850160051c81016020861015615a845750805b601f850160051c820191505b81811015615aa357828155600101615a90565b505050505050565b815167ffffffffffffffff811115615ac557615ac5615109565b615ad981615ad38454615a29565b84615a5d565b602080601f831160018114615b0e5760008415615af65750858301515b600019600386901b1c1916600185901b178555615aa3565b600085815260208120601f198616915b82811015615b3d57888601518255948401946001909101908401615b1e565b5085821015615b5b5787850151600019600388901b60f8161c191681555b5050505050600190811b01905550565b6020808252602c908201527f46756e6374696f6e206d7573742062652063616c6c6564207468726f7567682060408201526b19195b1959d85d1958d85b1b60a21b606082015260800190565b6020808252602c908201527f46756e6374696f6e206d7573742062652063616c6c6564207468726f7567682060408201526b6163746976652070726f787960a01b606082015260800190565b634e487b7160e01b600052601260045260246000fd5b600082615c2857615c28615c03565b500490565b600060ff821660ff8103615c4357615c436159bc565b60010192915050565b600061ffff808316818103615c6357615c636159bc565b6001019392505050565b8181038181111561094e5761094e6159bc565b808202811582820484141761094e5761094e6159bc565b600082615ca657615ca6615c03565b500690565b61ffff818116838216019080821115615cc657615cc66159bc565b5092915050565b600060208284031215615cdf57600080fd5b5051919050565b6020808252602b908201527f496e697469616c697a61626c653a20636f6e7472616374206973206e6f74206960408201526a6e697469616c697a696e6760a81b606082015260800190565b61ffff828116828216039080821115615cc657615cc66159bc565b600181815b80851115615d87578160001904821115615d6d57615d6d6159bc565b80851615615d7a57918102915b93841c9390800290615d51565b509250929050565b600082615d9e5750600161094e565b81615dab5750600061094e565b8160018114615dc15760028114615dcb57615de7565b600191505061094e565b60ff841115615ddc57615ddc6159bc565b50506001821b61094e565b5060208310610133831016604e8410600b8410161715615e0a575081810a61094e565b615e148383615d4c565b8060001904821115615e2857615e286159bc565b029392505050565b600061141a8383615d8f565b60008251615e4e81846020870161565f565b9190910192915050565b60208152600061141a602083018461568356fe360894a13ba1a3210667c828492db98dca3e2076cc3735a920a3ca505d382bbc416464726573733a206c6f772d6c6576656c2064656c65676174652063616c6c206661696c6564a2646970667358221220cff30498731929ff4340e421f3905da95e9ff1f6f0fae8ec78a9970051122bbb64736f6c63430008110033",
  "linkReferences": {},
  "deployedLinkReferences": {}
}