{
  "_format": "hh-sol-artifact-1",
  "contractName": "ReferralUpgradeable",
  "sourceName": "contracts/ReferralUpgradeable.sol",
  "abi": [
    {
      "anonymous": false,
      "inputs": [
        {
          "indexed": false,
          "internalType": "address",
          "name": "previousAdmin",
          "type": "address"
        },
        {
          "indexed": false,
          "internalType": "address",
          "name": "newAdmin",
          "type": "address"
        }
      ],
      "name": "AdminChanged",
      "type": "event"
    },
    {
      "anonymous": false,
      "inputs": [
        {
          "indexed": true,
          "internalType": "address",
          "name": "beacon",
          "type": "address"
        }
      ],
      "name": "BeaconUpgraded",
      "type": "event"
    },
    {
      "anonymous": false,
      "inputs": [
        {
          "indexed": true,
          "internalType": "address",
          "name": "userAddressaddress",
          "type": "address"
        }
      ],
      "name": "CoreMemberAdded",
      "type": "event"
    },
    {
      "anonymous": false,
      "inputs": [
        {
          "indexed": false,
          "internalType": "address",
          "name": "userAddress",
          "type": "address"
        }
      ],
      "name": "CoreMemberRemoved",
      "type": "event"
    },
    {
      "anonymous": false,
      "inputs": [
        {
          "indexed": true,
          "internalType": "uint256",
          "name": "value",
          "type": "uint256"
        },
        {
          "indexed": true,
          "internalType": "address",
          "name": "userAddress",
          "type": "address"
        }
      ],
      "name": "CoreMemberRewardPaid",
      "type": "event"
    },
    {
      "anonymous": false,
      "inputs": [
        {
          "indexed": false,
          "internalType": "address",
          "name": "userAddress",
          "type": "address"
        }
      ],
      "name": "GlobalAddressAdded",
      "type": "event"
    },
    {
      "anonymous": false,
      "inputs": [
        {
          "indexed": false,
          "internalType": "address",
          "name": "userAddress",
          "type": "address"
        }
      ],
      "name": "GlobalAddressRemoved",
      "type": "event"
    },
    {
      "anonymous": false,
      "inputs": [
        {
          "indexed": false,
          "internalType": "uint256",
          "name": "value",
          "type": "uint256"
        },
        {
          "indexed": false,
          "internalType": "address",
          "name": "userAddress",
          "type": "address"
        }
      ],
      "name": "GlobalRewardPaid",
      "type": "event"
    },
    {
      "anonymous": false,
      "inputs": [
        {
          "indexed": false,
          "internalType": "uint8",
          "name": "version",
          "type": "uint8"
        }
      ],
      "name": "Initialized",
      "type": "event"
    },
    {
      "anonymous": false,
      "inputs": [
        {
          "indexed": true,
          "internalType": "address",
          "name": "previousOwner",
          "type": "address"
        },
        {
          "indexed": true,
          "internalType": "address",
          "name": "newOwner",
          "type": "address"
        }
      ],
      "name": "OwnershipTransferred",
      "type": "event"
    },
    {
      "anonymous": false,
      "inputs": [
        {
          "indexed": true,
          "internalType": "uint256",
          "name": "value",
          "type": "uint256"
        },
        {
          "indexed": true,
          "internalType": "address",
          "name": "userAddress",
          "type": "address"
        }
      ],
      "name": "PassiveRewardPaid",
      "type": "event"
    },
    {
      "anonymous": false,
      "inputs": [
        {
          "indexed": false,
          "internalType": "address",
          "name": "account",
          "type": "address"
        }
      ],
      "name": "Paused",
      "type": "event"
    },
    {
      "anonymous": false,
      "inputs": [
        {
          "indexed": true,
          "internalType": "address",
          "name": "referee",
          "type": "address"
        },
        {
          "indexed": true,
          "internalType": "address",
          "name": "referrer",
          "type": "address"
        },
        {
          "indexed": true,
          "internalType": "uint256",
          "name": "amount",
          "type": "uint256"
        },
        {
          "indexed": false,
          "internalType": "uint256",
          "name": "level",
          "type": "uint256"
        },
        {
          "indexed": false,
          "internalType": "string",
          "name": "currency",
          "type": "string"
        }
      ],
      "name": "ReferralRewardPaid",
      "type": "event"
    },
    {
      "anonymous": false,
      "inputs": [
        {
          "indexed": true,
          "internalType": "address",
          "name": "referee",
          "type": "address"
        },
        {
          "indexed": true,
          "internalType": "address",
          "name": "referrer",
          "type": "address"
        },
        {
          "indexed": true,
          "internalType": "string",
          "name": "reason",
          "type": "string"
        }
      ],
      "name": "RegisterRefererFailed",
      "type": "event"
    },
    {
      "anonymous": false,
      "inputs": [
        {
          "indexed": true,
          "internalType": "address",
          "name": "referrer",
          "type": "address"
        },
        {
          "indexed": true,
          "internalType": "address",
          "name": "referee",
          "type": "address"
        }
      ],
      "name": "RegisteredReferer",
      "type": "event"
    },
    {
      "anonymous": false,
      "inputs": [
        {
          "indexed": true,
          "internalType": "address",
          "name": "parent",
          "type": "address"
        },
        {
          "indexed": true,
          "internalType": "address",
          "name": "referrer",
          "type": "address"
        },
        {
          "indexed": true,
          "internalType": "address",
          "name": "referee",
          "type": "address"
        }
      ],
      "name": "RegisteredTeamAddress",
      "type": "event"
    },
    {
      "anonymous": false,
      "inputs": [
        {
          "indexed": false,
          "internalType": "address",
          "name": "account",
          "type": "address"
        }
      ],
      "name": "Unpaused",
      "type": "event"
    },
    {
      "anonymous": false,
      "inputs": [
        {
          "indexed": true,
          "internalType": "address",
          "name": "implementation",
          "type": "address"
        }
      ],
      "name": "Upgraded",
      "type": "event"
    },
    {
      "inputs": [
        {
          "internalType": "address",
          "name": "_userAddress",
          "type": "address"
        },
        {
          "internalType": "uint256",
          "name": "_valueToCompare",
          "type": "uint256"
        }
      ],
      "name": "_userDirectBusinessIsAbove",
      "outputs": [
        {
          "internalType": "bool",
          "name": "",
          "type": "bool"
        }
      ],
      "stateMutability": "view",
      "type": "function"
    },
    {
      "inputs": [
        {
          "internalType": "address",
          "name": "_userAddress",
          "type": "address"
        },
        {
          "internalType": "address",
          "name": "_referrerAddress",
          "type": "address"
        }
      ],
      "name": "addReferrerAdmin",
      "outputs": [],
      "stateMutability": "nonpayable",
      "type": "function"
    },
    {
      "inputs": [],
      "name": "contractDefaults",
      "outputs": [
        {
          "internalType": "uint256",
          "name": "levelDecimals",
          "type": "uint256"
        },
        {
          "internalType": "uint256[]",
          "name": "levelRates",
          "type": "uint256[]"
        },
        {
          "internalType": "uint256",
          "name": "totalLevelRate",
          "type": "uint256"
        },
        {
          "internalType": "address",
          "name": "defaultReferrer",
          "type": "address"
        }
      ],
      "stateMutability": "view",
      "type": "function"
    },
    {
      "inputs": [
        {
          "internalType": "address",
          "name": "_address",
          "type": "address"
        }
      ],
      "name": "getUserAccount",
      "outputs": [
        {
          "components": [
            {
              "internalType": "address",
              "name": "referrer",
              "type": "address"
            },
            {
              "internalType": "address[]",
              "name": "referee",
              "type": "address[]"
            },
            {
              "internalType": "address[]",
              "name": "team",
              "type": "address[]"
            },
            {
              "internalType": "uint256",
              "name": "totalBusinessANUSD",
              "type": "uint256"
            },
            {
              "internalType": "uint256[]",
              "name": "rewardsPaidANUSD",
              "type": "uint256[]"
            },
            {
              "internalType": "bool",
              "name": "isInGlobalID",
              "type": "bool"
            },
            {
              "internalType": "uint256[]",
              "name": "rewardsPaidGlobal",
              "type": "uint256[]"
            },
            {
              "internalType": "uint256[]",
              "name": "blockNumbers",
              "type": "uint256[]"
            }
          ],
          "internalType": "struct ReferralUpgradeable.Account",
          "name": "userAccount",
          "type": "tuple"
        }
      ],
      "stateMutability": "view",
      "type": "function"
    },
    {
      "inputs": [
        {
          "internalType": "address",
          "name": "_address",
          "type": "address"
        }
      ],
      "name": "getUserReferrerAddress",
      "outputs": [
        {
          "internalType": "address",
          "name": "referrer",
          "type": "address"
        }
      ],
      "stateMutability": "view",
      "type": "function"
    },
    {
      "inputs": [
        {
          "internalType": "address",
          "name": "_address",
          "type": "address"
        }
      ],
      "name": "getUserRewardPaid",
      "outputs": [
        {
          "internalType": "uint256[]",
          "name": "rewardANUSD",
          "type": "uint256[]"
        },
        {
          "internalType": "uint256[]",
          "name": "globalRewards",
          "type": "uint256[]"
        }
      ],
      "stateMutability": "view",
      "type": "function"
    },
    {
      "inputs": [
        {
          "internalType": "address",
          "name": "_address",
          "type": "address"
        }
      ],
      "name": "getUserTeam",
      "outputs": [
        {
          "internalType": "address[]",
          "name": "userReferee",
          "type": "address[]"
        },
        {
          "internalType": "uint256",
          "name": "userRefereeCount",
          "type": "uint256"
        },
        {
          "internalType": "address[]",
          "name": "userTeamAddress",
          "type": "address[]"
        },
        {
          "internalType": "uint256",
          "name": "userTeamCount",
          "type": "uint256"
        }
      ],
      "stateMutability": "view",
      "type": "function"
    },
    {
      "inputs": [
        {
          "internalType": "address",
          "name": "_address",
          "type": "address"
        }
      ],
      "name": "getUserTotalBusiness",
      "outputs": [
        {
          "internalType": "uint256",
          "name": "totalBusiness",
          "type": "uint256"
        },
        {
          "internalType": "uint256",
          "name": "directBusiness",
          "type": "uint256"
        },
        {
          "internalType": "uint256",
          "name": "teamBusiness",
          "type": "uint256"
        }
      ],
      "stateMutability": "view",
      "type": "function"
    },
    {
      "inputs": [
        {
          "internalType": "address",
          "name": "_address",
          "type": "address"
        }
      ],
      "name": "getUserTotalRewardPaid",
      "outputs": [
        {
          "internalType": "uint256",
          "name": "rewardsAUSD",
          "type": "uint256"
        },
        {
          "internalType": "uint256",
          "name": "rewardsGlobal",
          "type": "uint256"
        }
      ],
      "stateMutability": "view",
      "type": "function"
    },
    {
      "inputs": [
        {
          "internalType": "address",
          "name": "_address",
          "type": "address"
        }
      ],
      "name": "hasReferrer",
      "outputs": [
        {
          "internalType": "bool",
          "name": "",
          "type": "bool"
        }
      ],
      "stateMutability": "view",
      "type": "function"
    },
    {
      "inputs": [],
      "name": "initialize",
      "outputs": [],
      "stateMutability": "nonpayable",
      "type": "function"
    },
    {
      "inputs": [],
      "name": "owner",
      "outputs": [
        {
          "internalType": "address",
          "name": "",
          "type": "address"
        }
      ],
      "stateMutability": "view",
      "type": "function"
    },
    {
      "inputs": [],
      "name": "pause",
      "outputs": [],
      "stateMutability": "nonpayable",
      "type": "function"
    },
    {
      "inputs": [],
      "name": "paused",
      "outputs": [
        {
          "internalType": "bool",
          "name": "",
          "type": "bool"
        }
      ],
      "stateMutability": "view",
      "type": "function"
    },
    {
      "inputs": [
        {
          "internalType": "uint256",
          "name": "_value",
          "type": "uint256"
        },
        {
          "internalType": "address",
          "name": "_userAddress",
          "type": "address"
        },
        {
          "internalType": "address",
          "name": "_referrerAddress",
          "type": "address"
        }
      ],
      "name": "payReferralANUSDAdmin",
      "outputs": [],
      "stateMutability": "nonpayable",
      "type": "function"
    },
    {
      "inputs": [],
      "name": "proxiableUUID",
      "outputs": [
        {
          "internalType": "bytes32",
          "name": "",
          "type": "bytes32"
        }
      ],
      "stateMutability": "view",
      "type": "function"
    },
    {
      "inputs": [],
      "name": "renounceOwnership",
      "outputs": [],
      "stateMutability": "nonpayable",
      "type": "function"
    },
    {
      "inputs": [
        {
          "internalType": "address payable",
          "name": "_address",
          "type": "address"
        }
      ],
      "name": "setDefaultReferrer",
      "outputs": [],
      "stateMutability": "nonpayable",
      "type": "function"
    },
    {
      "inputs": [
        {
          "internalType": "uint256",
          "name": "_value",
          "type": "uint256"
        }
      ],
      "name": "setLevelDecimals",
      "outputs": [
        {
          "internalType": "bool",
          "name": "",
          "type": "bool"
        }
      ],
      "stateMutability": "nonpayable",
      "type": "function"
    },
    {
      "inputs": [
        {
          "internalType": "uint256[]",
          "name": "_valueInArray",
          "type": "uint256[]"
        }
      ],
      "name": "setLevelRates",
      "outputs": [],
      "stateMutability": "nonpayable",
      "type": "function"
    },
    {
      "inputs": [
        {
          "internalType": "address",
          "name": "_address",
          "type": "address"
        },
        {
          "internalType": "uint256",
          "name": "_value",
          "type": "uint256"
        }
      ],
      "name": "transferNative",
      "outputs": [],
      "stateMutability": "nonpayable",
      "type": "function"
    },
    {
      "inputs": [
        {
          "internalType": "address",
          "name": "newOwner",
          "type": "address"
        }
      ],
      "name": "transferOwnership",
      "outputs": [],
      "stateMutability": "nonpayable",
      "type": "function"
    },
    {
      "inputs": [],
      "name": "unpause",
      "outputs": [],
      "stateMutability": "nonpayable",
      "type": "function"
    },
    {
      "inputs": [
        {
          "internalType": "address",
          "name": "newImplementation",
          "type": "address"
        }
      ],
      "name": "upgradeTo",
      "outputs": [],
      "stateMutability": "nonpayable",
      "type": "function"
    },
    {
      "inputs": [
        {
          "internalType": "address",
          "name": "newImplementation",
          "type": "address"
        },
        {
          "internalType": "bytes",
          "name": "data",
          "type": "bytes"
        }
      ],
      "name": "upgradeToAndCall",
      "outputs": [],
      "stateMutability": "payable",
      "type": "function"
    },
    {
      "inputs": [
        {
          "internalType": "address",
          "name": "_address",
          "type": "address"
        }
      ],
      "name": "userTransactionsBlocks",
      "outputs": [
        {
          "internalType": "uint256[]",
          "name": "",
          "type": "uint256[]"
        }
      ],
      "stateMutability": "view",
      "type": "function"
    },
    {
      "inputs": [],
      "name": "withdrawNative",
      "outputs": [],
      "stateMutability": "nonpayable",
      "type": "function"
    },
    {
      "inputs": [
        {
          "internalType": "address",
          "name": "_tokenAddress",
          "type": "address"
        },
        {
          "internalType": "uint256",
          "name": "_value",
          "type": "uint256"
        }
      ],
      "name": "withdrawtokens",
      "outputs": [],
      "stateMutability": "nonpayable",
      "type": "function"
    },
    {
      "stateMutability": "payable",
      "type": "receive"
    }
  ],
  "bytecode": "0x60a06040523060805234801561001457600080fd5b5060805161385b61004c60003960008181610dfe01528181610e3e01528181610eef01528181610f2f0152610ff6015261385b6000f3fe6080604052600436106101bb5760003560e01c8063715018a6116100ec578063cfbdb8591161008a578063f2fde38b11610064578063f2fde38b14610510578063faeda7e514610530578063fb47e01614610560578063fb5d45261461058d57600080fd5b8063cfbdb8591461049b578063dcf6e819146104bb578063ef519dc0146104db57600080fd5b80638129fc1c116100c65780638129fc1c146104335780638456cb59146104485780638da5cb5b1461045d578063a07397561461047b57600080fd5b8063715018a6146103d15780637393402e146103e65780637d2e90c21461041357600080fd5b80633f4ba83a1161015957806350431ce41161013357806350431ce41461035357806352d1902d146103685780635c975abb1461038b578063706aa31d146103a357600080fd5b80633f4ba83a146102d957806343b4ebf4146102ee5780634f1ef2861461034057600080fd5b80632405091c116101955780632405091c1461023e578063277bb90014610279578063345b5b85146102995780633659cfe6146102b957600080fd5b806318452cd8146101c75780631ee30543146101fc578063228159b41461021c57600080fd5b366101c257005b600080fd5b3480156101d357600080fd5b506101e76101e2366004613107565b6105b2565b60405190151581526020015b60405180910390f35b34801561020857600080fd5b506101e7610217366004613124565b6105d9565b34801561022857600080fd5b5061023c610237366004613150565b6106db565b005b34801561024a57600080fd5b5061025e610259366004613107565b610857565b604080519384526020840192909252908201526060016101f3565b34801561028557600080fd5b5061023c610294366004613124565b610d62565b3480156102a557600080fd5b5061023c6102b4366004613192565b610de0565b3480156102c557600080fd5b5061023c6102d4366004613107565b610df4565b3480156102e557600080fd5b5061023c610ed3565b3480156102fa57600080fd5b50610328610309366004613107565b6001600160a01b03908116600090815261010960205260409020541690565b6040516001600160a01b0390911681526020016101f3565b61023c61034e36600461321d565b610ee5565b34801561035f57600080fd5b5061023c610fb5565b34801561037457600080fd5b5061037d610fe9565b6040519081526020016101f3565b34801561039757600080fd5b5060335460ff166101e7565b3480156103af57600080fd5b506103c36103be366004613107565b61109c565b6040516101f392919061331c565b3480156103dd57600080fd5b5061023c611168565b3480156103f257600080fd5b50610406610401366004613107565b61117a565b6040516101f39190613341565b34801561041f57600080fd5b5061023c61042e366004613124565b6111ed565b34801561043f57600080fd5b5061023c61122b565b34801561045457600080fd5b5061023c611411565b34801561046957600080fd5b506065546001600160a01b0316610328565b34801561048757600080fd5b5061023c610496366004613354565b611421565b3480156104a757600080fd5b506101e76104b636600461338d565b6114f6565b3480156104c757600080fd5b5061023c6104d6366004613107565b611509565b3480156104e757600080fd5b506104fb6104f6366004613107565b611534565b604080519283526020830191909152016101f3565b34801561051c57600080fd5b5061023c61052b366004613107565b6115f8565b34801561053c57600080fd5b5061055061054b366004613107565b61166e565b6040516101f394939291906133df565b34801561056c57600080fd5b5061058061057b366004613107565b61175b565b6040516101f3919061341c565b34801561059957600080fd5b506105a26119c3565b6040516101f394939291906134e8565b6001600160a01b038082166000908152610109602052604081205490911615155b92915050565b6001600160a01b0382166000908152610109602090815260408083206001018054825181850281018501909352808352849383018282801561064457602002820191906000526020600020905b81546001600160a01b03168152600190910190602001808311610626575b505050505090506000815190506000805b828110156106bf57610109600085838151811061067457610674613522565b60200260200101516001600160a01b03166001600160a01b0316815260200190815260200160002060030154826106ab919061354e565b9150806106b781613561565b915050610655565b508481116106ce5760006106d1565b60015b9695505050505050565b336106ee6065546001600160a01b031690565b6001600160a01b0316816001600160a01b03161480610794575060fb60009054906101000a90046001600160a01b03166001600160a01b03166363d9df856040518163ffffffff1660e01b8152600401602060405180830381865afa15801561075b573d6000803e3d6000fd5b505050506040513d601f19601f8201168201806040525081019061077f919061357a565b6001600160a01b0316816001600160a01b0316145b6107b95760405162461bcd60e51b81526004016107b090613597565b60405180910390fd5b6001600160a01b0383811660009081526101096020526040902054161580156107ea57506001600160a01b03821615155b156107f9576107f98383611a8a565b6001600160a01b03828116600090815261010960205260409020541615801561082a57506001600160a01b03821615155b1561084757610100546108479083906001600160a01b0316611a8a565b6108518484611c56565b50505050565b6001600160a01b038116600090815261010960205260408120600181015460028201546003830154939283929091835b82811015610aed57600061010960008660010184815481106108ab576108ab613522565b60009182526020808320909101546001600160a01b0390811684528382019490945260409283019091208251610100810184528154909416845260018101805484518185028101850190955280855291938584019390929083018282801561093c57602002820191906000526020600020905b81546001600160a01b0316815260019091019060200180831161091e575b505050505081526020016002820180548060200260200160405190810160405280929190818152602001828054801561099e57602002820191906000526020600020905b81546001600160a01b03168152600190910190602001808311610980575b505050505081526020016003820154815260200160048201805480602002602001604051908101604052809291908181526020018280548015610a0057602002820191906000526020600020905b8154815260200190600101908083116109ec575b5050509183525050600582015460ff1615156020808301919091526006830180546040805182850281018501825282815294019392830182828015610a6457602002820191906000526020600020905b815481526020019060010190808311610a50575b5050505050815260200160078201805480602002602001604051908101604052809291908181526020018280548015610abc57602002820191906000526020600020905b815481526020019060010190808311610aa8575b5050505050815250509050806060015187610ad7919061354e565b9650508080610ae590613561565b915050610887565b5060005b81811015610d575760006101096000866002018481548110610b1557610b15613522565b60009182526020808320909101546001600160a01b03908116845283820194909452604092830190912082516101008101845281549094168452600181018054845181850281018501909552808552919385840193909290830182828015610ba657602002820191906000526020600020905b81546001600160a01b03168152600190910190602001808311610b88575b5050505050815260200160028201805480602002602001604051908101604052809291908181526020018280548015610c0857602002820191906000526020600020905b81546001600160a01b03168152600190910190602001808311610bea575b505050505081526020016003820154815260200160048201805480602002602001604051908101604052809291908181526020018280548015610c6a57602002820191906000526020600020905b815481526020019060010190808311610c56575b5050509183525050600582015460ff1615156020808301919091526006830180546040805182850281018501825282815294019392830182828015610cce57602002820191906000526020600020905b815481526020019060010190808311610cba575b5050505050815260200160078201805480602002602001604051908101604052809291908181526020018280548015610d2657602002820191906000526020600020905b815481526020019060010190808311610d12575b5050505050815250509050806060015186610d41919061354e565b9550508080610d4f90613561565b915050610af1565b505050509193909250565b610d6a6129ee565b60405163a9059cbb60e01b8152336004820152602481018290526001600160a01b0383169063a9059cbb906044016020604051808303816000875af1158015610db7573d6000803e3d6000fd5b505050506040513d601f19601f82011682018060405250810190610ddb91906135d9565b505050565b610de86129ee565b610ddb60fc8383613052565b6001600160a01b037f0000000000000000000000000000000000000000000000000000000000000000163003610e3c5760405162461bcd60e51b81526004016107b0906135fb565b7f00000000000000000000000000000000000000000000000000000000000000006001600160a01b0316610e856000805160206137df833981519152546001600160a01b031690565b6001600160a01b031614610eab5760405162461bcd60e51b81526004016107b090613647565b610eb481612a48565b60408051600080825260208201909252610ed091839190612a50565b50565b610edb6129ee565b610ee3612bbb565b565b6001600160a01b037f0000000000000000000000000000000000000000000000000000000000000000163003610f2d5760405162461bcd60e51b81526004016107b0906135fb565b7f00000000000000000000000000000000000000000000000000000000000000006001600160a01b0316610f766000805160206137df833981519152546001600160a01b031690565b6001600160a01b031614610f9c5760405162461bcd60e51b81526004016107b090613647565b610fa582612a48565b610fb182826001612a50565b5050565b610fbd6129ee565b60405133904780156108fc02916000818181858888f19350505050158015610ed0573d6000803e3d6000fd5b6000306001600160a01b037f000000000000000000000000000000000000000000000000000000000000000016146110895760405162461bcd60e51b815260206004820152603860248201527f555550535570677261646561626c653a206d757374206e6f742062652063616c60448201527f6c6564207468726f7567682064656c656761746563616c6c000000000000000060648201526084016107b0565b506000805160206137df83398151915290565b6001600160a01b0381166000908152610109602090815260409182902060048101805484518185028101850190955280855260609485949092919083018282801561110657602002820191906000526020600020905b8154815260200190600101908083116110f2575b505050505092508060060180548060200260200160405190810160405280929190818152602001828054801561115b57602002820191906000526020600020905b815481526020019060010190808311611147575b5050505050915050915091565b6111706129ee565b610ee36000612c0d565b6001600160a01b0381166000908152610109602090815260409182902060078101805484518185028101850190955280855260609492938301828280156111e057602002820191906000526020600020905b8154815260200190600101908083116111cc575b5050505050915050919050565b6111f56129ee565b6040516001600160a01b0383169082156108fc029083906000818181858888f19350505050158015610ddb573d6000803e3d6000fd5b600054610100900460ff161580801561124b5750600054600160ff909116105b806112655750303b158015611265575060005460ff166001145b6112c85760405162461bcd60e51b815260206004820152602e60248201527f496e697469616c697a61626c653a20636f6e747261637420697320616c72656160448201526d191e481a5b9a5d1a585b1a5e995960921b60648201526084016107b0565b6000805460ff1916600117905580156112eb576000805461ff0019166101001790555b60fb80546001600160a01b031990811673be5153baa3756402b08fd830e7b5f00a76e6823117909155610100805490911673b35963e0ab2141cd4ab743e7a35d8772f3cf04471790556040805160e0810182526007808252600460208301526003928201929092526002606082015260016080820181905260a0820181905260c082015261137c9160fc919061309d565b50606460fd5560146101065569011478b7c30abc3000006101035560046101015560056101045568a80d24677efef00000610105556113b9612c5f565b6113c1612c8e565b6113c9612cbd565b8015610ed0576000805461ff0019169055604051600181527f7f26b83ff96e1f2b6a682f133852f6798a09c465da95921460cefb38474024989060200160405180910390a150565b6114196129ee565b610ee3612ce4565b60fb546001600160a01b031661143f6065546001600160a01b031690565b6001600160a01b0316336001600160a01b031614806114d05750806001600160a01b03166363d9df856040518163ffffffff1660e01b8152600401602060405180830381865afa158015611497573d6000803e3d6000fd5b505050506040513d601f19601f820116820180604052508101906114bb919061357a565b6001600160a01b0316336001600160a01b0316145b6114ec5760405162461bcd60e51b81526004016107b090613597565b610ddb8383611a8a565b60006115006129ee565b5060fd55600190565b6115116129ee565b61010080546001600160a01b0319166001600160a01b0392909216919091179055565b6001600160a01b0381166000908152610109602052604081206004810154600682015483929190835b828110156115a45783600401818154811061157a5761157a613522565b906000526020600020015486611590919061354e565b95508061159c81613561565b91505061155d565b5060005b818110156115ef578360060181815481106115c5576115c5613522565b9060005260206000200154856115db919061354e565b9450806115e781613561565b9150506115a8565b50505050915091565b6116006129ee565b6001600160a01b0381166116655760405162461bcd60e51b815260206004820152602660248201527f4f776e61626c653a206e6577206f776e657220697320746865207a65726f206160448201526564647265737360d01b60648201526084016107b0565b610ed081612c0d565b6001600160a01b038116600090815261010960209081526040808320600181018054835181860281018601909452808452606095948694869493909290918301828280156116e557602002820191906000526020600020905b81546001600160a01b031681526001909101906020018083116116c7575b50505050509450845193508060020180548060200260200160405190810160405280929190818152602001828054801561174857602002820191906000526020600020905b81546001600160a01b0316815260019091019060200180831161172a575b5050505050925082519150509193509193565b6117ae60405180610100016040528060006001600160a01b031681526020016060815260200160608152602001600081526020016060815260200160001515815260200160608152602001606081525090565b6001600160a01b03808316600090815261010960209081526040918290208251610100810184528154909416845260018101805484518185028101850190955280855291938584019390929083018282801561183357602002820191906000526020600020905b81546001600160a01b03168152600190910190602001808311611815575b505050505081526020016002820180548060200260200160405190810160405280929190818152602001828054801561189557602002820191906000526020600020905b81546001600160a01b03168152600190910190602001808311611877575b5050505050815260200160038201548152602001600482018054806020026020016040519081016040528092919081815260200182805480156118f757602002820191906000526020600020905b8154815260200190600101908083116118e3575b5050509183525050600582015460ff161515602080830191909152600683018054604080518285028101850182528281529401939283018282801561195b57602002820191906000526020600020905b815481526020019060010190808311611947575b50505050508152602001600782018054806020026020016040519081016040528092919081815260200182805480156119b357602002820191906000526020600020905b81548152602001906001019080831161199f575b5050505050815250509050919050565b60fd5460fc8054604080516020808402820181019092528281526060936000938493830182828015611a1457602002820191906000526020600020905b815481526020019060010190808311611a00575b505060fc549396506000925050505b818160ff161015611a6e5760fc8160ff1681548110611a4457611a44613522565b906000526020600020015484611a5a919061354e565b935080611a6681613693565b915050611a23565b5050610100549394929391926001600160a01b03909216919050565b6001600160a01b03828116600090815261010960205260409020541615611b1d576040517f4164647265737320616c726561647920686176652072656665727265722e00008152601e016040518091039020816001600160a01b0316836001600160a01b03167f3a1a86984713a4f9021513989fe0334430012901d62639108f2a816c111a732f60405160405180910390a45b6001600160a01b0380831660008181526101096020908152604080832094861680845281842086546001600160a01b031990811683178855600180830180549182018155875294862090940180549094168617909355905191939290917ffaf63637882ff2d63ca76881cf92fb857130e36f350c926f9cc884b499b42b779190a360005b60fc54811015611c4f5781546001600160a01b031660008181526101096020526040902090611bd05750611c4f565b6002810180546001810182556000918252602082200180546001600160a01b0319166001600160a01b038981169182179092558354604051949650869491938984169391909116917fb766b19465b3277b0b275adf79d715cac93166bf6e6a39f26e4ccfdec76ad47e9190a45080611c4781613561565b915050611ba1565b5050505050565b60fb5460fc8054604080516020808402820181019092528281526001600160a01b039094169360009390929091830182828015611cb257602002820191906000526020600020905b815481526020019060010190808311611c9e575b505050506001600160a01b0385811660009081526101096020908152604080832081516101008101835281549095168552600181018054835181860281018601909452808452979850939694955093858301939192830182828015611d4057602002820191906000526020600020905b81546001600160a01b03168152600190910190602001808311611d22575b5050505050815260200160028201805480602002602001604051908101604052809291908181526020018280548015611da257602002820191906000526020600020905b81546001600160a01b03168152600190910190602001808311611d84575b505050505081526020016003820154815260200160048201805480602002602001604051908101604052809291908181526020018280548015611e0457602002820191906000526020600020905b815481526020019060010190808311611df0575b5050509183525050600582015460ff1615156020808301919091526006830180546040805182850281018501825282815294019392830182828015611e6857602002820191906000526020600020905b815481526020019060010190808311611e54575b5050505050815260200160078201805480602002602001604051908101604052809291908181526020018280548015611ec057602002820191906000526020600020905b815481526020019060010190808311611eac575b505050505081525050905060006101065467ffffffffffffffff811115611ee957611ee9613207565b604051908082528060200260200182016040528015611f12578160200160208202803683370190505b509050600080610107805480602002602001604051908101604052809291908181526020018280548015611f6f57602002820191906000526020600020905b81546001600160a01b03168152600190910190602001808311611f51575b505050505090506000815190506000805b610106548110156124985786516001600160a01b03811660008181526101096020526040902090611fb2575050612498565b600581015460ff1661206457611fcb82610103546105d9565b15612064576101028054600180820183556000929092527f93bdaa6a4190909b7c3fbe8d42169ffe1cab19f51dfc8db24c71abf849eced4a0180546001600160a01b0319166001600160a01b03851690811790915560058301805460ff19169092179091556040519081527facc63915cb028aeaee9996abc0f864fc0559a2f955750aa97d6ef9f51014acfb9060200160405180910390a15b61207182610105546105d9565b156120af578188888151811061208957612089613522565b6001600160a01b0390921660209283029190910190910152866120ab81613561565b9750505b895183101561228457600060648b85815181106120ce576120ce613522565b60200260200101518f6120e191906136b2565b6120eb91906136df565b90508d826003016000828254612101919061354e565b9091555050600482018054600181810183556000928352602080842090920184905560078501805491820181558352912043910155612140818661354e565b94508b6001600160a01b031663b70cc4c16040518163ffffffff1660e01b8152600401602060405180830381865afa158015612180573d6000803e3d6000fd5b505050506040513d601f19601f820116820180604052508101906121a4919061357a565b60405163a9059cbb60e01b81526001600160a01b03858116600483015260248201849052919091169063a9059cbb906044016020604051808303816000875af11580156121f5573d6000803e3d6000fd5b505050506040513d601f19601f8201168201806040525081019061221991906135d9565b50806001600160a01b03808516908f167f197a0a2b0fbff3fc4f7f4d32597585aa8415fcc4c5dd6634336ec65904529c8361225588600161354e565b60408051918252602082018190526005908201526410539554d160da1b606082015260800160405180910390a4505b604080516101008101825282546001600160a01b0316815260018301805483516020828102820181019095528181529293859381860193909290918301828280156122f857602002820191906000526020600020905b81546001600160a01b031681526001909101906020018083116122da575b505050505081526020016002820180548060200260200160405190810160405280929190818152602001828054801561235a57602002820191906000526020600020905b81546001600160a01b0316815260019091019060200180831161233c575b5050505050815260200160038201548152602001600482018054806020026020016040519081016040528092919081815260200182805480156123bc57602002820191906000526020600020905b8154815260200190600101908083116123a8575b5050509183525050600582015460ff161515602080830191909152600683018054604080518285028101850182528281529401939283018282801561242057602002820191906000526020600020905b81548152602001906001019080831161240c575b505050505081526020016007820180548060200260200160405190810160405280929190818152602001828054801561247857602002820191906000526020600020905b815481526020019060010190808311612464575b50505050508152505098505050808061249090613561565b915050611f80565b508315612639576000846064610104548d6124b391906136b2565b6124bd91906136df565b6124c791906136df565b905060005b8581101561263657896001600160a01b031663b70cc4c16040518163ffffffff1660e01b8152600401602060405180830381865afa158015612512573d6000803e3d6000fd5b505050506040513d601f19601f82011682018060405250810190612536919061357a565b6001600160a01b031663a9059cbb88838151811061255657612556613522565b6020026020010151846040518363ffffffff1660e01b81526004016125909291906001600160a01b03929092168252602082015260400190565b6020604051808303816000875af11580156125af573d6000803e3d6000fd5b505050506040513d601f19601f820116820180604052508101906125d391906135d9565b508681815181106125e6576125e6613522565b60200260200101516001600160a01b0316827f62f12b06523c734cca73aa1502a5f967c8e09d0a2f084fd36acbac47f54b0d4e60405160405180910390a38061262e81613561565b9150506124cc565b50505b610102541561282b5761010254610101546000919060649061265b908e6136b2565b61266591906136df565b61266f91906136df565b610102546040805142602082015244918101919091529192506000916060016040516020818303038152906040528051906020012060001c6126b191906136f3565b9050896001600160a01b031663b70cc4c16040518163ffffffff1660e01b8152600401602060405180830381865afa1580156126f1573d6000803e3d6000fd5b505050506040513d601f19601f82011682018060405250810190612715919061357a565b6001600160a01b031663a9059cbb610102838154811061273757612737613522565b60009182526020909120015460405160e083901b6001600160e01b03191681526001600160a01b039091166004820152602481018590526044016020604051808303816000875af1158015612790573d6000803e3d6000fd5b505050506040513d601f19601f820116820180604052508101906127b491906135d9565b507f51e673ac98f0ea063ce27eb5af807d22b97cd11cd79380cf1f711ad80948046c8261010283815481106127eb576127eb613522565b60009182526020909120015460405161282092916001600160a01b0316909182526001600160a01b0316602082015260400190565b60405180910390a150505b81156129cb576000826064610108548d61284591906136b2565b61284f91906136df565b61285991906136df565b905060005b838110156129c857896001600160a01b031663b70cc4c16040518163ffffffff1660e01b8152600401602060405180830381865afa1580156128a4573d6000803e3d6000fd5b505050506040513d601f19601f820116820180604052508101906128c8919061357a565b6001600160a01b031663a9059cbb8683815181106128e8576128e8613522565b6020026020010151846040518363ffffffff1660e01b81526004016129229291906001600160a01b03929092168252602082015260400190565b6020604051808303816000875af1158015612941573d6000803e3d6000fd5b505050506040513d601f19601f8201168201806040525081019061296591906135d9565b5084818151811061297857612978613522565b60200260200101516001600160a01b0316827f6d550262135215fe2f5ef9b6fad45db8cf51267248f8b95e069f8025f6f9049a60405160405180910390a3806129c081613561565b91505061285e565b50505b8060ff60008282546129dd919061354e565b909155505050505050505050505050565b6065546001600160a01b03163314610ee35760405162461bcd60e51b815260206004820181905260248201527f4f776e61626c653a2063616c6c6572206973206e6f7420746865206f776e657260448201526064016107b0565b610ed06129ee565b7f4910fdfa16fed3260ed0e7147f7cc6da11a60208b5b9406d12a635614ffd91435460ff1615612a8357610ddb83612d21565b826001600160a01b03166352d1902d6040518163ffffffff1660e01b8152600401602060405180830381865afa925050508015612add575060408051601f3d908101601f19168201909252612ada91810190613707565b60015b612b405760405162461bcd60e51b815260206004820152602e60248201527f45524331393637557067726164653a206e657720696d706c656d656e7461746960448201526d6f6e206973206e6f74205555505360901b60648201526084016107b0565b6000805160206137df8339815191528114612baf5760405162461bcd60e51b815260206004820152602960248201527f45524331393637557067726164653a20756e737570706f727465642070726f786044820152681a58589b195555525160ba1b60648201526084016107b0565b50610ddb838383612dbd565b612bc3612de2565b6033805460ff191690557f5db9ee0a495bf2e6ff9c91a7834c1ba4fdd244a5e8aa4e537bd38aeae4b073aa335b6040516001600160a01b03909116815260200160405180910390a1565b606580546001600160a01b038381166001600160a01b0319831681179093556040519116919082907f8be0079c531659141344cd1fd0a4f28419497f9722a3daafe3b4186f6b6457e090600090a35050565b600054610100900460ff16612c865760405162461bcd60e51b81526004016107b090613720565b610ee3612e2b565b600054610100900460ff16612cb55760405162461bcd60e51b81526004016107b090613720565b610ee3612e5e565b600054610100900460ff16610ee35760405162461bcd60e51b81526004016107b090613720565b612cec612e8e565b6033805460ff191660011790557f62e78cea01bee320cd4e420270b5ea74000d11b0c9f74754ebdbfc544b05a258612bf03390565b6001600160a01b0381163b612d8e5760405162461bcd60e51b815260206004820152602d60248201527f455243313936373a206e657720696d706c656d656e746174696f6e206973206e60448201526c1bdd08184818dbdb9d1c9858dd609a1b60648201526084016107b0565b6000805160206137df83398151915280546001600160a01b0319166001600160a01b0392909216919091179055565b612dc683612ed4565b600082511180612dd35750805b15610ddb576108518383612f14565b60335460ff16610ee35760405162461bcd60e51b815260206004820152601460248201527314185d5cd8589b194e881b9bdd081c185d5cd95960621b60448201526064016107b0565b600054610100900460ff16612e525760405162461bcd60e51b81526004016107b090613720565b6033805460ff19169055565b600054610100900460ff16612e855760405162461bcd60e51b81526004016107b090613720565b610ee333612c0d565b60335460ff1615610ee35760405162461bcd60e51b815260206004820152601060248201526f14185d5cd8589b194e881c185d5cd95960821b60448201526064016107b0565b612edd81612d21565b6040516001600160a01b038216907fbc7cd75a20ee27fd9adebab32041f755214dbc6bffa90cc0225b39da2e5c2d3b90600090a250565b60606001600160a01b0383163b612f7c5760405162461bcd60e51b815260206004820152602660248201527f416464726573733a2064656c65676174652063616c6c20746f206e6f6e2d636f6044820152651b9d1c9858dd60d21b60648201526084016107b0565b600080846001600160a01b031684604051612f97919061378f565b600060405180830381855af49150503d8060008114612fd2576040519150601f19603f3d011682016040523d82523d6000602084013e612fd7565b606091505b5091509150612fff82826040518060600160405280602781526020016137ff60279139613008565b95945050505050565b60608315613017575081613021565b6130218383613028565b9392505050565b8151156130385781518083602001fd5b8060405162461bcd60e51b81526004016107b091906137ab565b82805482825590600052602060002090810192821561308d579160200282015b8281111561308d578235825591602001919060010190613072565b506130999291506130dd565b5090565b82805482825590600052602060002090810192821561308d579160200282015b8281111561308d578251829060ff169055916020019190600101906130bd565b5b8082111561309957600081556001016130de565b6001600160a01b0381168114610ed057600080fd5b60006020828403121561311957600080fd5b8135613021816130f2565b6000806040838503121561313757600080fd5b8235613142816130f2565b946020939093013593505050565b60008060006060848603121561316557600080fd5b833592506020840135613177816130f2565b91506040840135613187816130f2565b809150509250925092565b600080602083850312156131a557600080fd5b823567ffffffffffffffff808211156131bd57600080fd5b818501915085601f8301126131d157600080fd5b8135818111156131e057600080fd5b8660208260051b85010111156131f557600080fd5b60209290920196919550909350505050565b634e487b7160e01b600052604160045260246000fd5b6000806040838503121561323057600080fd5b823561323b816130f2565b9150602083013567ffffffffffffffff8082111561325857600080fd5b818501915085601f83011261326c57600080fd5b81358181111561327e5761327e613207565b604051601f8201601f19908116603f011681019083821181831017156132a6576132a6613207565b816040528281528860208487010111156132bf57600080fd5b8260208601602083013760006020848301015280955050505050509250929050565b600081518084526020808501945080840160005b83811015613311578151875295820195908201906001016132f5565b509495945050505050565b60408152600061332f60408301856132e1565b8281036020840152612fff81856132e1565b60208152600061302160208301846132e1565b6000806040838503121561336757600080fd5b8235613372816130f2565b91506020830135613382816130f2565b809150509250929050565b60006020828403121561339f57600080fd5b5035919050565b600081518084526020808501945080840160005b838110156133115781516001600160a01b0316875295820195908201906001016133ba565b6080815260006133f260808301876133a6565b856020840152828103604084015261340a81866133a6565b91505082606083015295945050505050565b602081526134366020820183516001600160a01b03169052565b600060208301516101008060408501526134546101208501836133a6565b91506040850151601f198086850301606087015261347284836133a6565b93506060870151608087015260808701519150808685030160a087015261349984836132e1565b935060a087015191506134b060c087018315159052565b60c08701519150808685030160e08701526134cb84836132e1565b935060e08701519150808685030183870152506106d183826132e1565b84815260806020820152600061350160808301866132e1565b6040830194909452506001600160a01b039190911660609091015292915050565b634e487b7160e01b600052603260045260246000fd5b634e487b7160e01b600052601160045260246000fd5b808201808211156105d3576105d3613538565b60006001820161357357613573613538565b5060010190565b60006020828403121561358c57600080fd5b8151613021816130f2565b60208082526022908201527f4f6e6c79206f776e65722063616e2063616c6c20746869732066756e6374696f604082015261371760f11b606082015260800190565b6000602082840312156135eb57600080fd5b8151801515811461302157600080fd5b6020808252602c908201527f46756e6374696f6e206d7573742062652063616c6c6564207468726f7567682060408201526b19195b1959d85d1958d85b1b60a21b606082015260800190565b6020808252602c908201527f46756e6374696f6e206d7573742062652063616c6c6564207468726f7567682060408201526b6163746976652070726f787960a01b606082015260800190565b600060ff821660ff81036136a9576136a9613538565b60010192915050565b80820281158282048414176105d3576105d3613538565b634e487b7160e01b600052601260045260246000fd5b6000826136ee576136ee6136c9565b500490565b600082613702576137026136c9565b500690565b60006020828403121561371957600080fd5b5051919050565b6020808252602b908201527f496e697469616c697a61626c653a20636f6e7472616374206973206e6f74206960408201526a6e697469616c697a696e6760a81b606082015260800190565b60005b8381101561378657818101518382015260200161376e565b50506000910152565b600082516137a181846020870161376b565b9190910192915050565b60208152600082518060208401526137ca81604085016020870161376b565b601f01601f1916919091016040019291505056fe360894a13ba1a3210667c828492db98dca3e2076cc3735a920a3ca505d382bbc416464726573733a206c6f772d6c6576656c2064656c65676174652063616c6c206661696c6564a2646970667358221220985e6c4d86722353e70a7a08331582ffdfe561af2ad88cb7f21e4e55be275eb864736f6c63430008110033",
  "linkReferences": {},
  "deployedLinkReferences": {}
}