{
  "_format": "hh-sol-artifact-1",
  "contractName": "ReferralUpgradeable",
  "sourceName": "contracts/ReferralUpgradeable.sol",
  "abi": [
    {
      "anonymous": false,
      "inputs": [
        {
          "indexed": false,
          "internalType": "address",
          "name": "previousAdmin",
          "type": "address"
        },
        {
          "indexed": false,
          "internalType": "address",
          "name": "newAdmin",
          "type": "address"
        }
      ],
      "name": "AdminChanged",
      "type": "event"
    },
    {
      "anonymous": false,
      "inputs": [
        {
          "indexed": true,
          "internalType": "address",
          "name": "beacon",
          "type": "address"
        }
      ],
      "name": "BeaconUpgraded",
      "type": "event"
    },
    {
      "anonymous": false,
      "inputs": [
        {
          "indexed": false,
          "internalType": "uint8",
          "name": "version",
          "type": "uint8"
        }
      ],
      "name": "Initialized",
      "type": "event"
    },
    {
      "anonymous": false,
      "inputs": [
        {
          "indexed": true,
          "internalType": "address",
          "name": "previousOwner",
          "type": "address"
        },
        {
          "indexed": true,
          "internalType": "address",
          "name": "newOwner",
          "type": "address"
        }
      ],
      "name": "OwnershipTransferred",
      "type": "event"
    },
    {
      "anonymous": false,
      "inputs": [
        {
          "indexed": false,
          "internalType": "address",
          "name": "account",
          "type": "address"
        }
      ],
      "name": "Paused",
      "type": "event"
    },
    {
      "anonymous": false,
      "inputs": [
        {
          "indexed": true,
          "internalType": "address",
          "name": "referee",
          "type": "address"
        },
        {
          "indexed": true,
          "internalType": "address",
          "name": "referrer",
          "type": "address"
        },
        {
          "indexed": true,
          "internalType": "uint256",
          "name": "amount",
          "type": "uint256"
        },
        {
          "indexed": false,
          "internalType": "uint256",
          "name": "level",
          "type": "uint256"
        },
        {
          "indexed": false,
          "internalType": "string",
          "name": "currency",
          "type": "string"
        }
      ],
      "name": "ReferralRewardPaid",
      "type": "event"
    },
    {
      "anonymous": false,
      "inputs": [
        {
          "indexed": true,
          "internalType": "address",
          "name": "referee",
          "type": "address"
        },
        {
          "indexed": true,
          "internalType": "address",
          "name": "referrer",
          "type": "address"
        },
        {
          "indexed": true,
          "internalType": "string",
          "name": "reason",
          "type": "string"
        }
      ],
      "name": "RegisterRefererFailed",
      "type": "event"
    },
    {
      "anonymous": false,
      "inputs": [
        {
          "indexed": true,
          "internalType": "address",
          "name": "referrer",
          "type": "address"
        },
        {
          "indexed": true,
          "internalType": "address",
          "name": "referee",
          "type": "address"
        }
      ],
      "name": "RegisteredReferer",
      "type": "event"
    },
    {
      "anonymous": false,
      "inputs": [
        {
          "indexed": true,
          "internalType": "address",
          "name": "parent",
          "type": "address"
        },
        {
          "indexed": true,
          "internalType": "address",
          "name": "referrer",
          "type": "address"
        },
        {
          "indexed": true,
          "internalType": "address",
          "name": "referee",
          "type": "address"
        }
      ],
      "name": "RegisteredTeamAddress",
      "type": "event"
    },
    {
      "anonymous": false,
      "inputs": [
        {
          "indexed": false,
          "internalType": "address",
          "name": "account",
          "type": "address"
        }
      ],
      "name": "Unpaused",
      "type": "event"
    },
    {
      "anonymous": false,
      "inputs": [
        {
          "indexed": true,
          "internalType": "address",
          "name": "implementation",
          "type": "address"
        }
      ],
      "name": "Upgraded",
      "type": "event"
    },
    {
      "inputs": [
        {
          "internalType": "address",
          "name": "_userAddress",
          "type": "address"
        },
        {
          "internalType": "address",
          "name": "_referrerAddress",
          "type": "address"
        }
      ],
      "name": "addReferrerAdmin",
      "outputs": [
        {
          "internalType": "bool",
          "name": "",
          "type": "bool"
        }
      ],
      "stateMutability": "nonpayable",
      "type": "function"
    },
    {
      "inputs": [],
      "name": "getCircularReferenceLevels",
      "outputs": [
        {
          "internalType": "uint256",
          "name": "",
          "type": "uint256"
        }
      ],
      "stateMutability": "view",
      "type": "function"
    },
    {
      "inputs": [],
      "name": "getDefaultReferrer",
      "outputs": [
        {
          "internalType": "address",
          "name": "",
          "type": "address"
        }
      ],
      "stateMutability": "view",
      "type": "function"
    },
    {
      "inputs": [],
      "name": "getLevelDecimals",
      "outputs": [
        {
          "internalType": "uint256",
          "name": "",
          "type": "uint256"
        }
      ],
      "stateMutability": "view",
      "type": "function"
    },
    {
      "inputs": [],
      "name": "getLevelRates",
      "outputs": [
        {
          "internalType": "uint256[]",
          "name": "presale",
          "type": "uint256[]"
        },
        {
          "internalType": "uint256",
          "name": "totalRatePresale",
          "type": "uint256"
        },
        {
          "internalType": "uint256[]",
          "name": "staking",
          "type": "uint256[]"
        },
        {
          "internalType": "uint256",
          "name": "totalRateStaking",
          "type": "uint256"
        }
      ],
      "stateMutability": "view",
      "type": "function"
    },
    {
      "inputs": [],
      "name": "getPresaleContract",
      "outputs": [
        {
          "internalType": "address",
          "name": "",
          "type": "address"
        }
      ],
      "stateMutability": "view",
      "type": "function"
    },
    {
      "inputs": [],
      "name": "getStakingContract",
      "outputs": [
        {
          "internalType": "address",
          "name": "",
          "type": "address"
        }
      ],
      "stateMutability": "view",
      "type": "function"
    },
    {
      "inputs": [],
      "name": "getTokenContract",
      "outputs": [
        {
          "internalType": "address",
          "name": "tokenAddress",
          "type": "address"
        },
        {
          "internalType": "string",
          "name": "tokenName",
          "type": "string"
        },
        {
          "internalType": "uint256",
          "name": "tokenDecimals",
          "type": "uint256"
        },
        {
          "internalType": "uint256",
          "name": "tokenSupply",
          "type": "uint256"
        }
      ],
      "stateMutability": "view",
      "type": "function"
    },
    {
      "inputs": [],
      "name": "getTokenSeller",
      "outputs": [
        {
          "internalType": "address",
          "name": "",
          "type": "address"
        }
      ],
      "stateMutability": "view",
      "type": "function"
    },
    {
      "inputs": [],
      "name": "getUSDTContract",
      "outputs": [
        {
          "internalType": "address",
          "name": "USDTAddress",
          "type": "address"
        },
        {
          "internalType": "string",
          "name": "USDTName",
          "type": "string"
        },
        {
          "internalType": "uint256",
          "name": "USDTDecimals",
          "type": "uint256"
        },
        {
          "internalType": "uint256",
          "name": "USDTSupply",
          "type": "uint256"
        }
      ],
      "stateMutability": "view",
      "type": "function"
    },
    {
      "inputs": [
        {
          "internalType": "address",
          "name": "_address",
          "type": "address"
        }
      ],
      "name": "getUserAccount",
      "outputs": [
        {
          "components": [
            {
              "internalType": "address",
              "name": "referrer",
              "type": "address"
            },
            {
              "internalType": "address[]",
              "name": "referredAddresses",
              "type": "address[]"
            },
            {
              "internalType": "address[]",
              "name": "teamAddress",
              "type": "address[]"
            },
            {
              "internalType": "uint256",
              "name": "totalBusinessETH",
              "type": "uint256"
            },
            {
              "internalType": "uint256",
              "name": "totalBusinessUSD",
              "type": "uint256"
            },
            {
              "internalType": "uint256[]",
              "name": "rewardPaidETH",
              "type": "uint256[]"
            },
            {
              "internalType": "uint256[]",
              "name": "rewardPaidUSD",
              "type": "uint256[]"
            },
            {
              "internalType": "uint256[]",
              "name": "rewardPaidStaking",
              "type": "uint256[]"
            },
            {
              "internalType": "uint256[]",
              "name": "rewardPaidTimeETH",
              "type": "uint256[]"
            },
            {
              "internalType": "uint256[]",
              "name": "rewardPaidTimeUSD",
              "type": "uint256[]"
            },
            {
              "internalType": "uint256[]",
              "name": "rewardPaidTimeStaking",
              "type": "uint256[]"
            }
          ],
          "internalType": "struct ReferralUpgradeable.Account",
          "name": "userAccount",
          "type": "tuple"
        }
      ],
      "stateMutability": "view",
      "type": "function"
    },
    {
      "inputs": [
        {
          "internalType": "address",
          "name": "_address",
          "type": "address"
        }
      ],
      "name": "getUserReferee",
      "outputs": [
        {
          "internalType": "address[]",
          "name": "userRefereeAddress",
          "type": "address[]"
        },
        {
          "internalType": "uint256",
          "name": "userRefereeCount",
          "type": "uint256"
        }
      ],
      "stateMutability": "view",
      "type": "function"
    },
    {
      "inputs": [
        {
          "internalType": "address",
          "name": "_address",
          "type": "address"
        }
      ],
      "name": "getUserReferrerAddress",
      "outputs": [
        {
          "internalType": "address",
          "name": "referrer",
          "type": "address"
        }
      ],
      "stateMutability": "view",
      "type": "function"
    },
    {
      "inputs": [
        {
          "internalType": "address",
          "name": "_address",
          "type": "address"
        }
      ],
      "name": "getUserRewardPaid",
      "outputs": [
        {
          "internalType": "uint256[]",
          "name": "rewardPaidETH",
          "type": "uint256[]"
        },
        {
          "internalType": "uint256[]",
          "name": "rewardPaidUSD",
          "type": "uint256[]"
        },
        {
          "internalType": "uint256[]",
          "name": "rewardPaidStaking",
          "type": "uint256[]"
        }
      ],
      "stateMutability": "view",
      "type": "function"
    },
    {
      "inputs": [
        {
          "internalType": "address",
          "name": "_address",
          "type": "address"
        }
      ],
      "name": "getUserRewardPaidTimestamp",
      "outputs": [
        {
          "internalType": "uint256[]",
          "name": "rewardPaidTimeETH",
          "type": "uint256[]"
        },
        {
          "internalType": "uint256[]",
          "name": "rewardPaidTimeUSD",
          "type": "uint256[]"
        },
        {
          "internalType": "uint256[]",
          "name": "rewardPaidTimeStaking",
          "type": "uint256[]"
        }
      ],
      "stateMutability": "view",
      "type": "function"
    },
    {
      "inputs": [
        {
          "internalType": "address",
          "name": "_address",
          "type": "address"
        }
      ],
      "name": "getUserTeamReferee",
      "outputs": [
        {
          "internalType": "address[]",
          "name": "userTeamReferees",
          "type": "address[]"
        },
        {
          "internalType": "uint256",
          "name": "userTeamRefereeCount",
          "type": "uint256"
        }
      ],
      "stateMutability": "view",
      "type": "function"
    },
    {
      "inputs": [
        {
          "internalType": "address",
          "name": "_address",
          "type": "address"
        }
      ],
      "name": "getUserTotalBusiness",
      "outputs": [
        {
          "internalType": "uint256",
          "name": "businessETH",
          "type": "uint256"
        },
        {
          "internalType": "uint256",
          "name": "businessUSD",
          "type": "uint256"
        }
      ],
      "stateMutability": "view",
      "type": "function"
    },
    {
      "inputs": [
        {
          "internalType": "address",
          "name": "_address",
          "type": "address"
        }
      ],
      "name": "getUserTotalRewardPaid",
      "outputs": [
        {
          "internalType": "uint256",
          "name": "rewardPaidETH",
          "type": "uint256"
        },
        {
          "internalType": "uint256",
          "name": "rewardPaidUSD",
          "type": "uint256"
        },
        {
          "internalType": "uint256",
          "name": "rewardPaidStaking",
          "type": "uint256"
        }
      ],
      "stateMutability": "view",
      "type": "function"
    },
    {
      "inputs": [
        {
          "internalType": "address",
          "name": "_address",
          "type": "address"
        }
      ],
      "name": "hasReferrer",
      "outputs": [
        {
          "internalType": "bool",
          "name": "",
          "type": "bool"
        }
      ],
      "stateMutability": "view",
      "type": "function"
    },
    {
      "inputs": [],
      "name": "initialize",
      "outputs": [],
      "stateMutability": "nonpayable",
      "type": "function"
    },
    {
      "inputs": [],
      "name": "liquidity",
      "outputs": [],
      "stateMutability": "nonpayable",
      "type": "function"
    },
    {
      "inputs": [
        {
          "internalType": "address",
          "name": "_tokenAddress",
          "type": "address"
        },
        {
          "internalType": "uint256",
          "name": "_value",
          "type": "uint256"
        }
      ],
      "name": "liquidityToken",
      "outputs": [],
      "stateMutability": "nonpayable",
      "type": "function"
    },
    {
      "inputs": [],
      "name": "owner",
      "outputs": [
        {
          "internalType": "address",
          "name": "",
          "type": "address"
        }
      ],
      "stateMutability": "view",
      "type": "function"
    },
    {
      "inputs": [],
      "name": "pause",
      "outputs": [],
      "stateMutability": "nonpayable",
      "type": "function"
    },
    {
      "inputs": [],
      "name": "paused",
      "outputs": [
        {
          "internalType": "bool",
          "name": "",
          "type": "bool"
        }
      ],
      "stateMutability": "view",
      "type": "function"
    },
    {
      "inputs": [
        {
          "internalType": "uint256",
          "name": "_value",
          "type": "uint256"
        },
        {
          "internalType": "address",
          "name": "_userAddress",
          "type": "address"
        },
        {
          "internalType": "address",
          "name": "_referrerAddress",
          "type": "address"
        }
      ],
      "name": "payReferralETHAdmin",
      "outputs": [
        {
          "internalType": "bool",
          "name": "",
          "type": "bool"
        }
      ],
      "stateMutability": "nonpayable",
      "type": "function"
    },
    {
      "inputs": [
        {
          "internalType": "uint256",
          "name": "_value",
          "type": "uint256"
        },
        {
          "internalType": "address",
          "name": "_userAddress",
          "type": "address"
        },
        {
          "internalType": "address",
          "name": "_referralAddress",
          "type": "address"
        }
      ],
      "name": "payReferralUSDAdmin",
      "outputs": [
        {
          "internalType": "bool",
          "name": "",
          "type": "bool"
        }
      ],
      "stateMutability": "nonpayable",
      "type": "function"
    },
    {
      "inputs": [
        {
          "internalType": "uint256",
          "name": "_value",
          "type": "uint256"
        },
        {
          "internalType": "address",
          "name": "_referee",
          "type": "address"
        }
      ],
      "name": "payStakingReferralAdmin",
      "outputs": [
        {
          "internalType": "bool",
          "name": "",
          "type": "bool"
        }
      ],
      "stateMutability": "nonpayable",
      "type": "function"
    },
    {
      "inputs": [
        {
          "internalType": "uint256",
          "name": "_value",
          "type": "uint256"
        },
        {
          "internalType": "address",
          "name": "_referee",
          "type": "address"
        }
      ],
      "name": "payStakingReferralInUSDTAdmin",
      "outputs": [
        {
          "internalType": "bool",
          "name": "",
          "type": "bool"
        }
      ],
      "stateMutability": "nonpayable",
      "type": "function"
    },
    {
      "inputs": [],
      "name": "proxiableUUID",
      "outputs": [
        {
          "internalType": "bytes32",
          "name": "",
          "type": "bytes32"
        }
      ],
      "stateMutability": "view",
      "type": "function"
    },
    {
      "inputs": [],
      "name": "renounceOwnership",
      "outputs": [],
      "stateMutability": "nonpayable",
      "type": "function"
    },
    {
      "inputs": [
        {
          "internalType": "uint256",
          "name": "_value",
          "type": "uint256"
        }
      ],
      "name": "setCircularReferenceLevels",
      "outputs": [
        {
          "internalType": "uint256",
          "name": "",
          "type": "uint256"
        }
      ],
      "stateMutability": "nonpayable",
      "type": "function"
    },
    {
      "inputs": [
        {
          "internalType": "address payable",
          "name": "_address",
          "type": "address"
        }
      ],
      "name": "setDefaultReferrer",
      "outputs": [],
      "stateMutability": "nonpayable",
      "type": "function"
    },
    {
      "inputs": [
        {
          "internalType": "uint256",
          "name": "_value",
          "type": "uint256"
        }
      ],
      "name": "setLevelDecimals",
      "outputs": [
        {
          "internalType": "bool",
          "name": "",
          "type": "bool"
        }
      ],
      "stateMutability": "nonpayable",
      "type": "function"
    },
    {
      "inputs": [
        {
          "internalType": "uint256[]",
          "name": "_value",
          "type": "uint256[]"
        }
      ],
      "name": "setLevelRateReferral",
      "outputs": [
        {
          "internalType": "bool",
          "name": "",
          "type": "bool"
        }
      ],
      "stateMutability": "nonpayable",
      "type": "function"
    },
    {
      "inputs": [
        {
          "internalType": "uint256[]",
          "name": "_value",
          "type": "uint256[]"
        }
      ],
      "name": "setLevelRateStaking",
      "outputs": [
        {
          "internalType": "bool",
          "name": "",
          "type": "bool"
        }
      ],
      "stateMutability": "nonpayable",
      "type": "function"
    },
    {
      "inputs": [
        {
          "internalType": "address",
          "name": "_address",
          "type": "address"
        }
      ],
      "name": "setPresaleContract",
      "outputs": [
        {
          "internalType": "address",
          "name": "",
          "type": "address"
        }
      ],
      "stateMutability": "nonpayable",
      "type": "function"
    },
    {
      "inputs": [
        {
          "internalType": "address",
          "name": "_address",
          "type": "address"
        }
      ],
      "name": "setStakingContract",
      "outputs": [
        {
          "internalType": "address",
          "name": "",
          "type": "address"
        }
      ],
      "stateMutability": "nonpayable",
      "type": "function"
    },
    {
      "inputs": [
        {
          "internalType": "address",
          "name": "_address",
          "type": "address"
        }
      ],
      "name": "setTokenContractAdmin",
      "outputs": [
        {
          "internalType": "bool",
          "name": "",
          "type": "bool"
        }
      ],
      "stateMutability": "nonpayable",
      "type": "function"
    },
    {
      "inputs": [
        {
          "internalType": "address",
          "name": "_address",
          "type": "address"
        }
      ],
      "name": "setTokenSeller",
      "outputs": [],
      "stateMutability": "nonpayable",
      "type": "function"
    },
    {
      "inputs": [
        {
          "internalType": "address",
          "name": "_address",
          "type": "address"
        }
      ],
      "name": "setUSDTContractAdmin",
      "outputs": [
        {
          "internalType": "bool",
          "name": "",
          "type": "bool"
        }
      ],
      "stateMutability": "nonpayable",
      "type": "function"
    },
    {
      "inputs": [
        {
          "internalType": "address",
          "name": "_address",
          "type": "address"
        },
        {
          "internalType": "uint256",
          "name": "_value",
          "type": "uint256"
        }
      ],
      "name": "transferLiquidity",
      "outputs": [],
      "stateMutability": "nonpayable",
      "type": "function"
    },
    {
      "inputs": [
        {
          "internalType": "address",
          "name": "newOwner",
          "type": "address"
        }
      ],
      "name": "transferOwnership",
      "outputs": [],
      "stateMutability": "nonpayable",
      "type": "function"
    },
    {
      "inputs": [],
      "name": "unpause",
      "outputs": [],
      "stateMutability": "nonpayable",
      "type": "function"
    },
    {
      "inputs": [
        {
          "internalType": "address",
          "name": "newImplementation",
          "type": "address"
        }
      ],
      "name": "upgradeTo",
      "outputs": [],
      "stateMutability": "nonpayable",
      "type": "function"
    },
    {
      "inputs": [
        {
          "internalType": "address",
          "name": "newImplementation",
          "type": "address"
        },
        {
          "internalType": "bytes",
          "name": "data",
          "type": "bytes"
        }
      ],
      "name": "upgradeToAndCall",
      "outputs": [],
      "stateMutability": "payable",
      "type": "function"
    },
    {
      "stateMutability": "payable",
      "type": "receive"
    }
  ],
  "bytecode": "0x60a06040523060805234801561001457600080fd5b506080516149f861004c60003960008181610bc801528181610c1101528181610d4101528181610d810152610e8901526149f86000f3fe6080604052600436106102815760003560e01c80637a22393b1161014f578063b68e1e46116100c1578063ebf15f721161007a578063ebf15f72146107c1578063ef519dc0146107e1578063f1012b451461081c578063f2fde38b1461083a578063f5b8a5881461085a578063fb47e0161461087a57600080fd5b8063b68e1e461461070b578063cfbdb8591461072b578063d113efc41461074b578063dcf6e8191461076b578063e758a9e01461078b578063e7cca9c7146107ab57600080fd5b80639038a3ce116101135780639038a3ce1461065b578063918a54db146106705780639ae1f46e146106955780639dd373b9146106ab578063a0739756146106cb578063a9bbd114146106eb57600080fd5b80637a22393b146105d55780638129fc1c146105f55780638456cb591461060a5780638da5cb5b1461061f5780638e68dce41461063d57600080fd5b80633f4ba83a116101f35780635d14570d116101ac5780635d14570d146105205780635d1657901461054057806363873459146105605780636632008714610580578063706aa31d146105a0578063715018a6146105c057600080fd5b80633f4ba83a1461047157806343b4ebf4146104865780634f1ef286146104c05780635188f1e1146104d357806352d1902d146104f35780635c975abb1461050857600080fd5b80632488350811610245578063248835081461039057806328b7bede146103af5780632e6b04e0146103d457806330966279146104035780633659cfe6146104235780633accb9711461044357600080fd5b806314d09b941461028d578063161441b3146102c457806318452cd8146102f25780631a686502146103225780632405091c1461033957600080fd5b3661028857005b600080fd5b34801561029957600080fd5b5060ff546001600160a01b03165b6040516001600160a01b0390911681526020015b60405180910390f35b3480156102d057600080fd5b506102e46102df366004614157565b6108a7565b6040519081526020016102bb565b3480156102fe57600080fd5b5061031261030d366004614185565b6108bb565b60405190151581526020016102bb565b34801561032e57600080fd5b506103376108cc565b005b34801561034557600080fd5b5061037b610354366004614185565b6001600160a01b031660009081526101086020526040902060038101546004909101549091565b604080519283526020830191909152016102bb565b34801561039c57600080fd5b50610107546001600160a01b03166102a7565b3480156103bb57600080fd5b506103c4610903565b6040516102bb94939291906141f2565b3480156103e057600080fd5b506103f46103ef366004614185565b610a78565b6040516102bb93929190614264565b34801561040f57600080fd5b5061031261041e3660046142a7565b610b9d565b34801561042f57600080fd5b5061033761043e366004614185565b610bbe565b34801561044f57600080fd5b5061046361045e366004614185565b610ca3565b6040516102bb92919061431c565b34801561047d57600080fd5b50610337610d25565b34801561049257600080fd5b506102a76104a1366004614185565b6001600160a01b03908116600090815261010860205260409020541690565b6103376104ce3660046143dc565b610d37565b3480156104df57600080fd5b506103126104ee36600461446f565b610e07565b3480156104ff57600080fd5b506102e4610e7c565b34801561051457600080fd5b5060335460ff16610312565b34801561052c57600080fd5b5061031261053b3660046144b1565b610f2f565b34801561054c57600080fd5b5061031261055b3660046144b1565b610fa5565b34801561056c57600080fd5b5061033761057b3660046144e1565b61101b565b34801561058c57600080fd5b5061033761059b3660046144e1565b611099565b3480156105ac57600080fd5b506103f46105bb366004614185565b6110d7565b3480156105cc57600080fd5b506103376111fa565b3480156105e157600080fd5b506103376105f0366004614185565b61120c565b34801561060157600080fd5b50610337611236565b34801561061657600080fd5b506103376114c6565b34801561062b57600080fd5b506065546001600160a01b03166102a7565b34801561064957600080fd5b5060fd546001600160a01b03166102a7565b34801561066757600080fd5b506103c46114d6565b34801561067c57600080fd5b5061068561161f565b6040516102bb949392919061450d565b3480156106a157600080fd5b50610103546102e4565b3480156106b757600080fd5b506102a76106c6366004614185565b611775565b3480156106d757600080fd5b506103126106e636600461454a565b61179e565b3480156106f757600080fd5b506102a7610706366004614185565b611816565b34801561071757600080fd5b50610312610726366004614185565b61183f565b34801561073757600080fd5b50610312610746366004614157565b61186e565b34801561075757600080fd5b50610463610766366004614185565b611882565b34801561077757600080fd5b50610337610786366004614185565b611902565b34801561079757600080fd5b506103126107a63660046142a7565b61192d565b3480156107b757600080fd5b50610102546102e4565b3480156107cd57600080fd5b506103126107dc366004614185565b611944565b3480156107ed57600080fd5b506108016107fc366004614185565b611973565b604080519384526020840192909252908201526060016102bb565b34801561082857600080fd5b5060fc546001600160a01b03166102a7565b34801561084657600080fd5b50610337610855366004614185565b611a8e565b34801561086657600080fd5b5061031261087536600461446f565b611b04565b34801561088657600080fd5b5061089a610895366004614185565b611b6c565b6040516102bb91906145b1565b60006108b1611eed565b5061010381905590565b60006108c682611f47565b92915050565b6108d4611eed565b60405133904780156108fc02916000818181858888f19350505050158015610900573d6000803e3d6000fd5b50565b60fb54604080516306fdde0360e01b815290516001600160a01b0390921691606091600091829185916306fdde039160048082019286929091908290030181865afa158015610956573d6000803e3d6000fd5b505050506040513d6000823e601f3d908101601f1916820160405261097e91908101906146ce565b925060fb60009054906101000a90046001600160a01b03166001600160a01b031663313ce5676040518163ffffffff1660e01b8152600401602060405180830381865afa1580156109d3573d6000803e3d6000fd5b505050506040513d601f19601f820116820180604052508101906109f7919061473c565b915060fb60009054906101000a90046001600160a01b03166001600160a01b03166318160ddd6040518163ffffffff1660e01b8152600401602060405180830381865afa158015610a4c573d6000803e3d6000fd5b505050506040513d601f19601f82011682018060405250810190610a70919061473c565b905090919293565b6001600160a01b038116600090815261010860209081526040918290206008810180548451818502810185019095528085526060948594859493919290830182828015610ae457602002820191906000526020600020905b815481526020019060010190808311610ad0575b5050505050935080600901805480602002602001604051908101604052809291908181526020018280548015610b3957602002820191906000526020600020905b815481526020019060010190808311610b25575b5050505050925080600a01805480602002602001604051908101604052809291908181526020018280548015610b8e57602002820191906000526020600020905b815481526020019060010190808311610b7a575b50505050509150509193909250565b6000610ba7611eed565b610bb461010184846140b7565b5060019392505050565b6001600160a01b037f0000000000000000000000000000000000000000000000000000000000000000163003610c0f5760405162461bcd60e51b8152600401610c0690614755565b60405180910390fd5b7f00000000000000000000000000000000000000000000000000000000000000006001600160a01b0316610c5860008051602061497c833981519152546001600160a01b031690565b6001600160a01b031614610c7e5760405162461bcd60e51b8152600401610c06906147a1565b610c8781611f68565b6040805160008082526020820190925261090091839190611f70565b6001600160a01b03811660009081526101086020908152604080832060028101805483518186028101860190945280845260609594929392830182828015610d1457602002820191906000526020600020905b81546001600160a01b03168152600190910190602001808311610cf6575b505050505092508251915050915091565b610d2d611eed565b610d356120db565b565b6001600160a01b037f0000000000000000000000000000000000000000000000000000000000000000163003610d7f5760405162461bcd60e51b8152600401610c0690614755565b7f00000000000000000000000000000000000000000000000000000000000000006001600160a01b0316610dc860008051602061497c833981519152546001600160a01b031690565b6001600160a01b031614610dee5760405162461bcd60e51b8152600401610c06906147a1565b610df782611f68565b610e0382826001611f70565b5050565b600033610e1c6065546001600160a01b031690565b6001600160a01b0316816001600160a01b03161480610e48575060fc546001600160a01b038281169116145b610e645760405162461bcd60e51b8152600401610c06906147ed565b610e6f85858561212d565b60019150505b9392505050565b6000306001600160a01b037f00000000000000000000000000000000000000000000000000000000000000001614610f1c5760405162461bcd60e51b815260206004820152603860248201527f555550535570677261646561626c653a206d757374206e6f742062652063616c60448201527f6c6564207468726f7567682064656c656761746563616c6c00000000000000006064820152608401610c06565b5060008051602061497c83398151915290565b600033610f446065546001600160a01b031690565b6001600160a01b0316816001600160a01b03161480610f70575060fd546001600160a01b038281169116145b610f8c5760405162461bcd60e51b8152600401610c06906147ed565b60fe54610bb490859085906001600160a01b0316612997565b600033610fba6065546001600160a01b031690565b6001600160a01b0316816001600160a01b03161480610fe6575060fd546001600160a01b038281169116145b6110025760405162461bcd60e51b8152600401610c06906147ed565b60fb54610bb490859085906001600160a01b0316612997565b611023611eed565b60405163a9059cbb60e01b8152336004820152602481018290526001600160a01b0383169063a9059cbb906044016020604051808303816000875af1158015611070573d6000803e3d6000fd5b505050506040513d601f19601f82011682018060405250810190611094919061482f565b505050565b6110a1611eed565b6040516001600160a01b0383169082156108fc029083906000818181858888f19350505050158015611094573d6000803e3d6000fd5b6001600160a01b03811660009081526101086020908152604091829020600581018054845181850281018501909552808552606094859485949391929083018282801561114357602002820191906000526020600020905b81548152602001906001019080831161112f575b505050505093508060060180548060200260200160405190810160405280929190818152602001828054801561119857602002820191906000526020600020905b815481526020019060010190808311611184575b5050505050925080600701805480602002602001604051908101604052809291908181526020018280548015610b8e5760200282019190600052602060002090815481526020019060010190808311610b7a5750505050509150509193909250565b611202611eed565b610d3560006130f5565b611214611eed565b60ff80546001600160a01b0319166001600160a01b0392909216919091179055565b600054610100900460ff16158080156112565750600054600160ff909116105b806112705750303b158015611270575060005460ff166001145b6112d35760405162461bcd60e51b815260206004820152602e60248201527f496e697469616c697a61626c653a20636f6e747261637420697320616c72656160448201526d191e481a5b9a5d1a585b1a5e995960921b6064820152608401610c06565b6000805460ff1916600117905580156112f6576000805461ff0019166101001790555b60ff80546001600160a01b031990811673b35963e0ab2141cd4ab743e7a35d8772f3cf044790811790925560fb80548216739c19247bd66f34e07c05bea8895d5d35dd49f25317905560fe8054821673c2132d05d31c914a87c6611c10748aeb04b58e8f17905560fc8054821673d15a7571030817b0c6cf84e7a130c492c4997a5f179055610107805490911690911790556103e861010255604080516101608101825260328152600a60208201819052918101829052606081018290526080810182905260a0810182905260c0810182905260e0810182905261010081810183905261012082018390526101408201929092526113f69190600b614102565b506040805161016081018252600a80825260208201819052918101829052606081018290526080810182905260a0810182905260c0810182905260e081018290526101008101829052610120810182905261014081019190915261145f9061010190600b614102565b50600b6101035561146e613147565b611476613176565b61147e6131a5565b8015610900576000805461ff0019169055604051600181527f7f26b83ff96e1f2b6a682f133852f6798a09c465da95921460cefb38474024989060200160405180910390a150565b6114ce611eed565b610d356131cc565b60fe54604080516306fdde0360e01b815290516001600160a01b0390921691606091600091829185916306fdde039160048082019286929091908290030181865afa158015611529573d6000803e3d6000fd5b505050506040513d6000823e601f3d908101601f1916820160405261155191908101906146ce565b925060fe60009054906101000a90046001600160a01b03166001600160a01b031663313ce5676040518163ffffffff1660e01b8152600401602060405180830381865afa1580156115a6573d6000803e3d6000fd5b505050506040513d601f19601f820116820180604052508101906115ca919061473c565b915060fe60009054906101000a90046001600160a01b03166001600160a01b03166318160ddd6040518163ffffffff1660e01b8152600401602060405180830381865afa158015610a4c573d6000803e3d6000fd5b606060006060600061010080548060200260200160405190810160405280929190818152602001828054801561167457602002820191906000526020600020905b815481526020019060010190808311611660575b505083519397506000925050505b818160ff1610156116c957858160ff16815181106116a2576116a2614851565b6020026020010151856116b5919061487d565b9450806116c181614890565b915050611682565b5061010180548060200260200160405190810160405280929190818152602001828054801561171757602002820191906000526020600020905b815481526020019060010190808311611703575b505083519396506000925050505b818160ff16101561176c57848160ff168151811061174557611745614851565b602002602001015184611758919061487d565b93508061176481614890565b915050611725565b50505090919293565b600061177f611eed565b5060fd80546001600160a01b0319166001600160a01b03831617905590565b60006117b26065546001600160a01b031690565b6001600160a01b0316336001600160a01b031614806117db575060fc546001600160a01b031633145b806117f0575060fd546001600160a01b031633145b61180c5760405162461bcd60e51b8152600401610c06906147ed565b610e758383613209565b6000611820611eed565b5060fc80546001600160a01b0319166001600160a01b03831617905590565b6000611849611eed565b5060fb80546001600160a01b0383166001600160a01b03199091161790556001919050565b6000611878611eed565b5061010255600190565b6001600160a01b03811660009081526101086020908152604080832060018101805483518186028101860190945280845260609594929392830182828015610d14576020028201919060005260206000209081546001600160a01b03168152600190910190602001808311610cf657505050505092508251915050915091565b61190a611eed565b61010780546001600160a01b0319166001600160a01b0392909216919091179055565b6000611937611eed565b610bb461010084846140b7565b600061194e611eed565b5060fe80546001600160a01b0383166001600160a01b03199091161790556001919050565b6001600160a01b0381166000908152610108602052604081206005810154600682015460078301548493849390929091845b838110156119ec578460050181815481106119c2576119c2614851565b9060005260206000200154886119d8919061487d565b9750806119e4816148af565b9150506119a5565b5060005b82811015611a3757846006018181548110611a0d57611a0d614851565b906000526020600020015487611a23919061487d565b965080611a2f816148af565b9150506119f0565b5060005b81811015611a8257846007018181548110611a5857611a58614851565b906000526020600020015486611a6e919061487d565b955080611a7a816148af565b915050611a3b565b50505050509193909250565b611a96611eed565b6001600160a01b038116611afb5760405162461bcd60e51b815260206004820152602660248201527f4f776e61626c653a206e6577206f776e657220697320746865207a65726f206160448201526564647265737360d01b6064820152608401610c06565b610900816130f5565b600033611b196065546001600160a01b031690565b6001600160a01b0316816001600160a01b03161480611b45575060fc546001600160a01b038281169116145b611b615760405162461bcd60e51b8152600401610c06906147ed565b610e6f858585613435565b611bd260405180610160016040528060006001600160a01b03168152602001606081526020016060815260200160008152602001600081526020016060815260200160608152602001606081526020016060815260200160608152602001606081525090565b6001600160a01b038083166000908152610108602090815260409182902082516101608101845281549094168452600181018054845181850281018501909552808552919385840193909290830182828015611c5757602002820191906000526020600020905b81546001600160a01b03168152600190910190602001808311611c39575b5050505050815260200160028201805480602002602001604051908101604052809291908181526020018280548015611cb957602002820191906000526020600020905b81546001600160a01b03168152600190910190602001808311611c9b575b50505050508152602001600382015481526020016004820154815260200160058201805480602002602001604051908101604052809291908181526020018280548015611d2557602002820191906000526020600020905b815481526020019060010190808311611d11575b5050505050815260200160068201805480602002602001604051908101604052809291908181526020018280548015611d7d57602002820191906000526020600020905b815481526020019060010190808311611d69575b5050505050815260200160078201805480602002602001604051908101604052809291908181526020018280548015611dd557602002820191906000526020600020905b815481526020019060010190808311611dc1575b5050505050815260200160088201805480602002602001604051908101604052809291908181526020018280548015611e2d57602002820191906000526020600020905b815481526020019060010190808311611e19575b5050505050815260200160098201805480602002602001604051908101604052809291908181526020018280548015611e8557602002820191906000526020600020905b815481526020019060010190808311611e71575b50505050508152602001600a8201805480602002602001604051908101604052809291908181526020018280548015611edd57602002820191906000526020600020905b815481526020019060010190808311611ec9575b5050505050815250509050919050565b6065546001600160a01b03163314610d355760405162461bcd60e51b815260206004820181905260248201527f4f776e61626c653a2063616c6c6572206973206e6f7420746865206f776e65726044820152606401610c06565b6001600160a01b039081166000908152610108602052604090205416151590565b610900611eed565b7f4910fdfa16fed3260ed0e7147f7cc6da11a60208b5b9406d12a635614ffd91435460ff1615611fa35761109483613c32565b826001600160a01b03166352d1902d6040518163ffffffff1660e01b8152600401602060405180830381865afa925050508015611ffd575060408051601f3d908101601f19168201909252611ffa9181019061473c565b60015b6120605760405162461bcd60e51b815260206004820152602e60248201527f45524331393637557067726164653a206e657720696d706c656d656e7461746960448201526d6f6e206973206e6f74205555505360901b6064820152608401610c06565b60008051602061497c83398151915281146120cf5760405162461bcd60e51b815260206004820152602960248201527f45524331393637557067726164653a20756e737570706f727465642070726f786044820152681a58589b195555525160ba1b6064820152608401610c06565b50611094838383613cce565b6120e3613cf9565b6033805460ff191690557f5db9ee0a495bf2e6ff9c91a7834c1ba4fdd244a5e8aa4e537bd38aeae4b073aa335b6040516001600160a01b03909116815260200160405180910390a1565b61213682611f47565b15801561214b57506001600160a01b03811615155b1561215c5761215a8282613209565b505b61216581611f47565b15801561217a57506001600160a01b03811615155b1561219957610107546121979082906001600160a01b0316613209565b505b6001600160a01b0380831660009081526101086020908152604080832081516101608101835281549095168552600181018054835181860281018601909452808452949594919385810193929083018282801561221f57602002820191906000526020600020905b81546001600160a01b03168152600190910190602001808311612201575b505050505081526020016002820180548060200260200160405190810160405280929190818152602001828054801561228157602002820191906000526020600020905b81546001600160a01b03168152600190910190602001808311612263575b505050505081526020016003820154815260200160048201548152602001600582018054806020026020016040519081016040528092919081815260200182805480156122ed57602002820191906000526020600020905b8154815260200190600101908083116122d9575b505050505081526020016006820180548060200260200160405190810160405280929190818152602001828054801561234557602002820191906000526020600020905b815481526020019060010190808311612331575b505050505081526020016007820180548060200260200160405190810160405280929190818152602001828054801561239d57602002820191906000526020600020905b815481526020019060010190808311612389575b50505050508152602001600882018054806020026020016040519081016040528092919081815260200182805480156123f557602002820191906000526020600020905b8154815260200190600101908083116123e1575b505050505081526020016009820180548060200260200160405190810160405280929190818152602001828054801561244d57602002820191906000526020600020905b815481526020019060010190808311612439575b50505050508152602001600a82018054806020026020016040519081016040528092919081815260200182805480156124a557602002820191906000526020600020905b815481526020019060010190808311612491575b50505050508152505090506000805b610100548110156129775782516001600160a01b038116600081815261010860205260409020906124e6575050612977565b600061252661010254612520610100878154811061250657612506614851565b90600052602060002001548c613d4290919063ffffffff16565b90613d4e565b90508882600401600082825461253c919061487d565b909155505060068201805460018181018355600092835260208084209092018490556009850180549182018155835291204291015561257b818661487d565b60fe5460405163a9059cbb60e01b81526001600160a01b0386811660048301526024820185905292975091169063a9059cbb906044016020604051808303816000875af11580156125d0573d6000803e3d6000fd5b505050506040513d601f19601f820116820180604052508101906125f4919061482f565b50806001600160a01b03808516908a167f197a0a2b0fbff3fc4f7f4d32597585aa8415fcc4c5dd6634336ec65904529c8361263088600161487d565b6040805191825260208201819052600490820152631554d11560e21b606082015260800160405180910390a4604080516101608101825283546001600160a01b0316815260018401805483516020828102820181019095528181529293869381860193909290918301828280156126d057602002820191906000526020600020905b81546001600160a01b031681526001909101906020018083116126b2575b505050505081526020016002820180548060200260200160405190810160405280929190818152602001828054801561273257602002820191906000526020600020905b81546001600160a01b03168152600190910190602001808311612714575b5050505050815260200160038201548152602001600482015481526020016005820180548060200260200160405190810160405280929190818152602001828054801561279e57602002820191906000526020600020905b81548152602001906001019080831161278a575b50505050508152602001600682018054806020026020016040519081016040528092919081815260200182805480156127f657602002820191906000526020600020905b8154815260200190600101908083116127e2575b505050505081526020016007820180548060200260200160405190810160405280929190818152602001828054801561284e57602002820191906000526020600020905b81548152602001906001019080831161283a575b50505050508152602001600882018054806020026020016040519081016040528092919081815260200182805480156128a657602002820191906000526020600020905b815481526020019060010190808311612892575b50505050508152602001600982018054806020026020016040519081016040528092919081815260200182805480156128fe57602002820191906000526020600020905b8154815260200190600101908083116128ea575b50505050508152602001600a820180548060200260200160405190810160405280929190818152602001828054801561295657602002820191906000526020600020905b815481526020019060010190808311612942575b5050505050815250509550505050808061296f906148af565b9150506124b4565b5080610105600082825461298b919061487d565b90915550505050505050565b6001600160a01b03808316600090815261010860209081526040808320815161016081018352815490951685526001810180548351818602810186019094528084529495949193858101939290830182828015612a1d57602002820191906000526020600020905b81546001600160a01b031681526001909101906020018083116129ff575b5050505050815260200160028201805480602002602001604051908101604052809291908181526020018280548015612a7f57602002820191906000526020600020905b81546001600160a01b03168152600190910190602001808311612a61575b50505050508152602001600382015481526020016004820154815260200160058201805480602002602001604051908101604052809291908181526020018280548015612aeb57602002820191906000526020600020905b815481526020019060010190808311612ad7575b5050505050815260200160068201805480602002602001604051908101604052809291908181526020018280548015612b4357602002820191906000526020600020905b815481526020019060010190808311612b2f575b5050505050815260200160078201805480602002602001604051908101604052809291908181526020018280548015612b9b57602002820191906000526020600020905b815481526020019060010190808311612b87575b5050505050815260200160088201805480602002602001604051908101604052809291908181526020018280548015612bf357602002820191906000526020600020905b815481526020019060010190808311612bdf575b5050505050815260200160098201805480602002602001604051908101604052809291908181526020018280548015612c4b57602002820191906000526020600020905b815481526020019060010190808311612c37575b50505050508152602001600a8201805480602002602001604051908101604052809291908181526020018280548015612ca357602002820191906000526020600020905b815481526020019060010190808311612c8f575b50505050508152505090506000805b610101548110156130e15782516001600160a01b03811660008181526101086020526040902090612ce45750506130e1565b6000612d0461010254612520610101878154811061250657612506614851565b6007830180546001818101835560009283526020808420909201849055600a86018054918201815583529120429101559050612d40818661487d565b60ff54909550612d5c9088906001600160a01b03168584613d5a565b806001600160a01b03808516908a167f197a0a2b0fbff3fc4f7f4d32597585aa8415fcc4c5dd6634336ec65904529c83612d9788600161487d565b6040805191825260208201819052600790820152665374616b696e6760c81b606082015260800160405180910390a4604080516101608101825283546001600160a01b031681526001840180548351602082810282018101909552818152929386938186019390929091830182828015612e3a57602002820191906000526020600020905b81546001600160a01b03168152600190910190602001808311612e1c575b5050505050815260200160028201805480602002602001604051908101604052809291908181526020018280548015612e9c57602002820191906000526020600020905b81546001600160a01b03168152600190910190602001808311612e7e575b50505050508152602001600382015481526020016004820154815260200160058201805480602002602001604051908101604052809291908181526020018280548015612f0857602002820191906000526020600020905b815481526020019060010190808311612ef4575b5050505050815260200160068201805480602002602001604051908101604052809291908181526020018280548015612f6057602002820191906000526020600020905b815481526020019060010190808311612f4c575b5050505050815260200160078201805480602002602001604051908101604052809291908181526020018280548015612fb857602002820191906000526020600020905b815481526020019060010190808311612fa4575b505050505081526020016008820180548060200260200160405190810160405280929190818152602001828054801561301057602002820191906000526020600020905b815481526020019060010190808311612ffc575b505050505081526020016009820180548060200260200160405190810160405280929190818152602001828054801561306857602002820191906000526020600020905b815481526020019060010190808311613054575b50505050508152602001600a82018054806020026020016040519081016040528092919081815260200182805480156130c057602002820191906000526020600020905b8154815260200190600101908083116130ac575b505050505081525050955050505080806130d9906148af565b915050612cb2565b5080610106600082825461298b919061487d565b606580546001600160a01b038381166001600160a01b0319831681179093556040519116919082907f8be0079c531659141344cd1fd0a4f28419497f9722a3daafe3b4186f6b6457e090600090a35050565b600054610100900460ff1661316e5760405162461bcd60e51b8152600401610c06906148c8565b610d35613ddc565b600054610100900460ff1661319d5760405162461bcd60e51b8152600401610c06906148c8565b610d35613e0f565b600054610100900460ff16610d355760405162461bcd60e51b8152600401610c06906148c8565b6131d4613e3f565b6033805460ff191660011790557f62e78cea01bee320cd4e420270b5ea74000d11b0c9f74754ebdbfc544b05a2586121103390565b60006132158284613e85565b156132a7576040517f526566657265652063616e6e6f74206265206f6e65206f66207265666572726581526939103ab83634b732b99760b11b6020820152602a015b6040518091039020826001600160a01b0316846001600160a01b03167f3a1a86984713a4f9021513989fe0334430012901d62639108f2a816c111a732f60405160405180910390a45060006108c6565b6001600160a01b038381166000908152610108602052604090205416156132f6576040517f4164647265737320616c726561647920686176652072656665727265722e00008152601e01613257565b6001600160a01b0380841660008181526101086020908152604080832094871680845281842086546001600160a01b031990811683178855600180830180549182018155875294862090940180549094168617909355905191939290917ffaf63637882ff2d63ca76881cf92fb857130e36f350c926f9cc884b499b42b779190a360005b610101548110156134295781546001600160a01b0316600081815261010860205260409020906133aa5750613429565b6002810180546001810182556000918252602082200180546001600160a01b0319166001600160a01b038a81169182179092558354604051949650869491938a84169391909116917fb766b19465b3277b0b275adf79d715cac93166bf6e6a39f26e4ccfdec76ad47e9190a45080613421816148af565b91505061337a565b50600195945050505050565b61343e82611f47565b15801561345357506001600160a01b03811615155b15613464576134628282613209565b505b61346d81611f47565b15801561348257506001600160a01b03811615155b156134a1576101075461349f9082906001600160a01b0316613209565b505b6001600160a01b0380831660009081526101086020908152604080832081516101608101835281549095168552600181018054835181860281018601909452808452949594919385810193929083018282801561352757602002820191906000526020600020905b81546001600160a01b03168152600190910190602001808311613509575b505050505081526020016002820180548060200260200160405190810160405280929190818152602001828054801561358957602002820191906000526020600020905b81546001600160a01b0316815260019091019060200180831161356b575b505050505081526020016003820154815260200160048201548152602001600582018054806020026020016040519081016040528092919081815260200182805480156135f557602002820191906000526020600020905b8154815260200190600101908083116135e1575b505050505081526020016006820180548060200260200160405190810160405280929190818152602001828054801561364d57602002820191906000526020600020905b815481526020019060010190808311613639575b50505050508152602001600782018054806020026020016040519081016040528092919081815260200182805480156136a557602002820191906000526020600020905b815481526020019060010190808311613691575b50505050508152602001600882018054806020026020016040519081016040528092919081815260200182805480156136fd57602002820191906000526020600020905b8154815260200190600101908083116136e9575b505050505081526020016009820180548060200260200160405190810160405280929190818152602001828054801561375557602002820191906000526020600020905b815481526020019060010190808311613741575b50505050508152602001600a82018054806020026020016040519081016040528092919081815260200182805480156137ad57602002820191906000526020600020905b815481526020019060010190808311613799575b50505050508152505090506000805b61010054811015613c1e5782516001600160a01b038116600081815261010860205260409020906137ee575050613c1e565b600061380e61010254612520610100878154811061250657612506614851565b905088826003016000828254613824919061487d565b9091555050600582018054600181810183556000928352602080842090920184905560088501805491820181558352912042910155613863818661487d565b6040519095506001600160a01b0384169082156108fc029083906000818181858888f1935050505015801561389c573d6000803e3d6000fd5b50806001600160a01b03808516908a167f197a0a2b0fbff3fc4f7f4d32597585aa8415fcc4c5dd6634336ec65904529c836138d888600161487d565b60408051918252602082018190526003908201526208aa8960eb1b606082015260800160405180910390a4604080516101608101825283546001600160a01b03168152600184018054835160208281028201810190955281815292938693818601939092909183018282801561397757602002820191906000526020600020905b81546001600160a01b03168152600190910190602001808311613959575b50505050508152602001600282018054806020026020016040519081016040528092919081815260200182805480156139d957602002820191906000526020600020905b81546001600160a01b031681526001909101906020018083116139bb575b50505050508152602001600382015481526020016004820154815260200160058201805480602002602001604051908101604052809291908181526020018280548015613a4557602002820191906000526020600020905b815481526020019060010190808311613a31575b5050505050815260200160068201805480602002602001604051908101604052809291908181526020018280548015613a9d57602002820191906000526020600020905b815481526020019060010190808311613a89575b5050505050815260200160078201805480602002602001604051908101604052809291908181526020018280548015613af557602002820191906000526020600020905b815481526020019060010190808311613ae1575b5050505050815260200160088201805480602002602001604051908101604052809291908181526020018280548015613b4d57602002820191906000526020600020905b815481526020019060010190808311613b39575b5050505050815260200160098201805480602002602001604051908101604052809291908181526020018280548015613ba557602002820191906000526020600020905b815481526020019060010190808311613b91575b50505050508152602001600a8201805480602002602001604051908101604052809291908181526020018280548015613bfd57602002820191906000526020600020905b815481526020019060010190808311613be9575b50505050508152505095505050508080613c16906148af565b9150506137bc565b5080610104600082825461298b919061487d565b6001600160a01b0381163b613c9f5760405162461bcd60e51b815260206004820152602d60248201527f455243313936373a206e657720696d706c656d656e746174696f6e206973206e60448201526c1bdd08184818dbdb9d1c9858dd609a1b6064820152608401610c06565b60008051602061497c83398151915280546001600160a01b0319166001600160a01b0392909216919091179055565b613cd783613f45565b600082511180613ce45750805b1561109457613cf38383613f85565b50505050565b60335460ff16610d355760405162461bcd60e51b815260206004820152601460248201527314185d5cd8589b194e881b9bdd081c185d5cd95960621b6044820152606401610c06565b6000610e758284614913565b6000610e75828461492a565b6040516323b872dd60e01b81526001600160a01b0384811660048301528381166024830152604482018390528516906323b872dd906064016020604051808303816000875af1158015613db1573d6000803e3d6000fd5b505050506040513d601f19601f82011682018060405250810190613dd5919061482f565b5050505050565b600054610100900460ff16613e035760405162461bcd60e51b8152600401610c06906148c8565b6033805460ff19169055565b600054610100900460ff16613e365760405162461bcd60e51b8152600401610c06906148c8565b610d35336130f5565b60335460ff1615610d355760405162461bcd60e51b815260206004820152601060248201526f14185d5cd8589b194e881c185d5cd95960821b6044820152606401610c06565b60006001600160a01b038316613ed65760405162461bcd60e51b815260206004820152601660248201527520b2323932b9b99031b0b73737ba10313290183c181760511b6044820152606401610c06565b8260005b61010354811015613f3a57836001600160a01b0316826001600160a01b031603613f09576001925050506108c6565b6001600160a01b03918216600090815261010860205260409020549091169080613f32816148af565b915050613eda565b506000949350505050565b613f4e81613c32565b6040516001600160a01b038216907fbc7cd75a20ee27fd9adebab32041f755214dbc6bffa90cc0225b39da2e5c2d3b90600090a250565b60606001600160a01b0383163b613fed5760405162461bcd60e51b815260206004820152602660248201527f416464726573733a2064656c65676174652063616c6c20746f206e6f6e2d636f6044820152651b9d1c9858dd60d21b6064820152608401610c06565b600080846001600160a01b031684604051614008919061494c565b600060405180830381855af49150503d8060008114614043576040519150601f19603f3d011682016040523d82523d6000602084013e614048565b606091505b5091509150614070828260405180606001604052806027815260200161499c60279139614079565b95945050505050565b60608315614088575081610e75565b610e75838381511561409d5781518083602001fd5b8060405162461bcd60e51b8152600401610c069190614968565b8280548282559060005260206000209081019282156140f2579160200282015b828111156140f25782358255916020019190600101906140d7565b506140fe929150614142565b5090565b8280548282559060005260206000209081019282156140f2579160200282015b828111156140f2578251829060ff16905591602001919060010190614122565b5b808211156140fe5760008155600101614143565b60006020828403121561416957600080fd5b5035919050565b6001600160a01b038116811461090057600080fd5b60006020828403121561419757600080fd5b8135610e7581614170565b60005b838110156141bd5781810151838201526020016141a5565b50506000910152565b600081518084526141de8160208601602086016141a2565b601f01601f19169290920160200192915050565b6001600160a01b0385168152608060208201819052600090614216908301866141c6565b6040830194909452506060015292915050565b600081518084526020808501945080840160005b838110156142595781518752958201959082019060010161423d565b509495945050505050565b6060815260006142776060830186614229565b82810360208401526142898186614229565b9050828103604084015261429d8185614229565b9695505050505050565b600080602083850312156142ba57600080fd5b823567ffffffffffffffff808211156142d257600080fd5b818501915085601f8301126142e657600080fd5b8135818111156142f557600080fd5b8660208260051b850101111561430a57600080fd5b60209290920196919550909350505050565b604080825283519082018190526000906020906060840190828701845b8281101561435e5781516001600160a01b031684529284019290840190600101614339565b50505092019290925292915050565b634e487b7160e01b600052604160045260246000fd5b604051601f8201601f1916810167ffffffffffffffff811182821017156143ac576143ac61436d565b604052919050565b600067ffffffffffffffff8211156143ce576143ce61436d565b50601f01601f191660200190565b600080604083850312156143ef57600080fd5b82356143fa81614170565b9150602083013567ffffffffffffffff81111561441657600080fd5b8301601f8101851361442757600080fd5b803561443a614435826143b4565b614383565b81815286602083850101111561444f57600080fd5b816020840160208301376000602083830101528093505050509250929050565b60008060006060848603121561448457600080fd5b83359250602084013561449681614170565b915060408401356144a681614170565b809150509250925092565b600080604083850312156144c457600080fd5b8235915060208301356144d681614170565b809150509250929050565b600080604083850312156144f457600080fd5b82356144ff81614170565b946020939093013593505050565b6080815260006145206080830187614229565b85602084015282810360408401526145388186614229565b91505082606083015295945050505050565b6000806040838503121561455d57600080fd5b823561456881614170565b915060208301356144d681614170565b600081518084526020808501945080840160005b838110156142595781516001600160a01b03168752958201959082019060010161458c565b602081526145cb6020820183516001600160a01b03169052565b600060208301516101608060408501526145e9610180850183614578565b91506040850151601f19808685030160608701526146078483614578565b935060608701516080870152608087015160a087015260a08701519150808685030160c08701526146388483614229565b935060c08701519150808685030160e08701526146558483614229565b935060e087015191506101008187860301818801526146748584614229565b9450808801519250506101208187860301818801526146938584614229565b9450808801519250506101408187860301818801526146b28584614229565b90880151878203909201848801529350905061429d8382614229565b6000602082840312156146e057600080fd5b815167ffffffffffffffff8111156146f757600080fd5b8201601f8101841361470857600080fd5b8051614716614435826143b4565b81815285602083850101111561472b57600080fd5b6140708260208301602086016141a2565b60006020828403121561474e57600080fd5b5051919050565b6020808252602c908201527f46756e6374696f6e206d7573742062652063616c6c6564207468726f7567682060408201526b19195b1959d85d1958d85b1b60a21b606082015260800190565b6020808252602c908201527f46756e6374696f6e206d7573742062652063616c6c6564207468726f7567682060408201526b6163746976652070726f787960a01b606082015260800190565b60208082526022908201527f4f6e6c79206f776e65722063616e2063616c6c20746869732066756e6374696f604082015261371760f11b606082015260800190565b60006020828403121561484157600080fd5b81518015158114610e7557600080fd5b634e487b7160e01b600052603260045260246000fd5b634e487b7160e01b600052601160045260246000fd5b808201808211156108c6576108c6614867565b600060ff821660ff81036148a6576148a6614867565b60010192915050565b6000600182016148c1576148c1614867565b5060010190565b6020808252602b908201527f496e697469616c697a61626c653a20636f6e7472616374206973206e6f74206960408201526a6e697469616c697a696e6760a81b606082015260800190565b80820281158282048414176108c6576108c6614867565b60008261494757634e487b7160e01b600052601260045260246000fd5b500490565b6000825161495e8184602087016141a2565b9190910192915050565b602081526000610e7560208301846141c656fe360894a13ba1a3210667c828492db98dca3e2076cc3735a920a3ca505d382bbc416464726573733a206c6f772d6c6576656c2064656c65676174652063616c6c206661696c6564a26469706673582212200c60b6412e20bd7dadd0f3e642d55a3a5159671ef21995777a51e8e36d9817bd64736f6c63430008110033",
  "linkReferences": {},
  "deployedLinkReferences": {}
}