{
  "_format": "hh-sol-artifact-1",
  "contractName": "ReferralUpgradeable",
  "sourceName": "contracts/ReferralUpgradeable.sol",
  "abi": [
    {
      "anonymous": false,
      "inputs": [
        {
          "indexed": false,
          "internalType": "address",
          "name": "previousAdmin",
          "type": "address"
        },
        {
          "indexed": false,
          "internalType": "address",
          "name": "newAdmin",
          "type": "address"
        }
      ],
      "name": "AdminChanged",
      "type": "event"
    },
    {
      "anonymous": false,
      "inputs": [
        {
          "indexed": true,
          "internalType": "address",
          "name": "beacon",
          "type": "address"
        }
      ],
      "name": "BeaconUpgraded",
      "type": "event"
    },
    {
      "anonymous": false,
      "inputs": [
        {
          "indexed": true,
          "internalType": "address",
          "name": "userAddressaddress",
          "type": "address"
        }
      ],
      "name": "CoreMemberAdded",
      "type": "event"
    },
    {
      "anonymous": false,
      "inputs": [
        {
          "indexed": false,
          "internalType": "address",
          "name": "userAddress",
          "type": "address"
        }
      ],
      "name": "CoreMemberRemoved",
      "type": "event"
    },
    {
      "anonymous": false,
      "inputs": [
        {
          "indexed": true,
          "internalType": "uint256",
          "name": "value",
          "type": "uint256"
        },
        {
          "indexed": true,
          "internalType": "address",
          "name": "userAddress",
          "type": "address"
        }
      ],
      "name": "CoreMemberRewardPaid",
      "type": "event"
    },
    {
      "anonymous": false,
      "inputs": [
        {
          "indexed": false,
          "internalType": "address",
          "name": "userAddress",
          "type": "address"
        }
      ],
      "name": "GlobalAddressAdded",
      "type": "event"
    },
    {
      "anonymous": false,
      "inputs": [
        {
          "indexed": false,
          "internalType": "address",
          "name": "userAddress",
          "type": "address"
        }
      ],
      "name": "GlobalAddressRemoved",
      "type": "event"
    },
    {
      "anonymous": false,
      "inputs": [
        {
          "indexed": false,
          "internalType": "uint256",
          "name": "value",
          "type": "uint256"
        },
        {
          "indexed": false,
          "internalType": "address",
          "name": "userAddress",
          "type": "address"
        }
      ],
      "name": "GlobalRewardPaid",
      "type": "event"
    },
    {
      "anonymous": false,
      "inputs": [
        {
          "indexed": false,
          "internalType": "uint8",
          "name": "version",
          "type": "uint8"
        }
      ],
      "name": "Initialized",
      "type": "event"
    },
    {
      "anonymous": false,
      "inputs": [
        {
          "indexed": true,
          "internalType": "address",
          "name": "previousOwner",
          "type": "address"
        },
        {
          "indexed": true,
          "internalType": "address",
          "name": "newOwner",
          "type": "address"
        }
      ],
      "name": "OwnershipTransferred",
      "type": "event"
    },
    {
      "anonymous": false,
      "inputs": [
        {
          "indexed": true,
          "internalType": "uint256",
          "name": "value",
          "type": "uint256"
        },
        {
          "indexed": true,
          "internalType": "address",
          "name": "userAddress",
          "type": "address"
        }
      ],
      "name": "PassiveRewardPaid",
      "type": "event"
    },
    {
      "anonymous": false,
      "inputs": [
        {
          "indexed": false,
          "internalType": "address",
          "name": "account",
          "type": "address"
        }
      ],
      "name": "Paused",
      "type": "event"
    },
    {
      "anonymous": false,
      "inputs": [
        {
          "indexed": true,
          "internalType": "address",
          "name": "referee",
          "type": "address"
        },
        {
          "indexed": true,
          "internalType": "address",
          "name": "referrer",
          "type": "address"
        },
        {
          "indexed": true,
          "internalType": "uint256",
          "name": "amount",
          "type": "uint256"
        },
        {
          "indexed": false,
          "internalType": "uint256",
          "name": "level",
          "type": "uint256"
        },
        {
          "indexed": false,
          "internalType": "string",
          "name": "currency",
          "type": "string"
        }
      ],
      "name": "ReferralRewardPaid",
      "type": "event"
    },
    {
      "anonymous": false,
      "inputs": [
        {
          "indexed": true,
          "internalType": "address",
          "name": "referee",
          "type": "address"
        },
        {
          "indexed": true,
          "internalType": "address",
          "name": "referrer",
          "type": "address"
        },
        {
          "indexed": true,
          "internalType": "string",
          "name": "reason",
          "type": "string"
        }
      ],
      "name": "RegisterRefererFailed",
      "type": "event"
    },
    {
      "anonymous": false,
      "inputs": [
        {
          "indexed": true,
          "internalType": "address",
          "name": "referee",
          "type": "address"
        },
        {
          "indexed": true,
          "internalType": "address",
          "name": "referrer",
          "type": "address"
        }
      ],
      "name": "RegisteredReferer",
      "type": "event"
    },
    {
      "anonymous": false,
      "inputs": [
        {
          "indexed": true,
          "internalType": "address",
          "name": "parent",
          "type": "address"
        },
        {
          "indexed": true,
          "internalType": "address",
          "name": "referrer",
          "type": "address"
        },
        {
          "indexed": true,
          "internalType": "address",
          "name": "referee",
          "type": "address"
        }
      ],
      "name": "RegisteredTeamAddress",
      "type": "event"
    },
    {
      "anonymous": false,
      "inputs": [
        {
          "indexed": false,
          "internalType": "address",
          "name": "userAddress",
          "type": "address"
        },
        {
          "indexed": false,
          "internalType": "uint8",
          "name": "rewardId",
          "type": "uint8"
        }
      ],
      "name": "RewardAccountAdded",
      "type": "event"
    },
    {
      "anonymous": false,
      "inputs": [
        {
          "indexed": false,
          "internalType": "address",
          "name": "userAddress",
          "type": "address"
        },
        {
          "indexed": false,
          "internalType": "uint8",
          "name": "rewardId",
          "type": "uint8"
        }
      ],
      "name": "RewardAccountPaid",
      "type": "event"
    },
    {
      "anonymous": false,
      "inputs": [
        {
          "indexed": false,
          "internalType": "uint8",
          "name": "id",
          "type": "uint8"
        },
        {
          "indexed": false,
          "internalType": "uint256",
          "name": "selfBusinessLimit",
          "type": "uint256"
        },
        {
          "indexed": false,
          "internalType": "uint256",
          "name": "directBusinessLimit",
          "type": "uint256"
        },
        {
          "indexed": false,
          "internalType": "uint256",
          "name": "teamBusinessLimit",
          "type": "uint256"
        },
        {
          "indexed": false,
          "internalType": "string",
          "name": "rankName",
          "type": "string"
        },
        {
          "indexed": false,
          "internalType": "string",
          "name": "rewardName",
          "type": "string"
        },
        {
          "indexed": false,
          "internalType": "uint256",
          "name": "appraisal",
          "type": "uint256"
        }
      ],
      "name": "RewardAdded",
      "type": "event"
    },
    {
      "anonymous": false,
      "inputs": [
        {
          "indexed": false,
          "internalType": "address",
          "name": "account",
          "type": "address"
        }
      ],
      "name": "Unpaused",
      "type": "event"
    },
    {
      "anonymous": false,
      "inputs": [
        {
          "indexed": true,
          "internalType": "address",
          "name": "implementation",
          "type": "address"
        }
      ],
      "name": "Upgraded",
      "type": "event"
    },
    {
      "inputs": [
        {
          "internalType": "address",
          "name": "",
          "type": "address"
        }
      ],
      "name": "addressToId",
      "outputs": [
        {
          "internalType": "uint16",
          "name": "",
          "type": "uint16"
        }
      ],
      "stateMutability": "view",
      "type": "function"
    },
    {
      "inputs": [],
      "name": "contractDefaults",
      "outputs": [
        {
          "internalType": "uint256",
          "name": "levelDecimals",
          "type": "uint256"
        },
        {
          "internalType": "uint256[]",
          "name": "levelRates",
          "type": "uint256[]"
        },
        {
          "internalType": "uint256",
          "name": "totalLevelRate",
          "type": "uint256"
        },
        {
          "internalType": "address",
          "name": "defaultReferrer",
          "type": "address"
        }
      ],
      "stateMutability": "view",
      "type": "function"
    },
    {
      "inputs": [],
      "name": "getGlobalRefereeLimit",
      "outputs": [
        {
          "internalType": "uint8",
          "name": "",
          "type": "uint8"
        }
      ],
      "stateMutability": "view",
      "type": "function"
    },
    {
      "inputs": [
        {
          "internalType": "uint8",
          "name": "_rewardId",
          "type": "uint8"
        },
        {
          "internalType": "uint16",
          "name": "_from",
          "type": "uint16"
        },
        {
          "internalType": "uint16",
          "name": "_to",
          "type": "uint16"
        }
      ],
      "name": "getRewardQualifiedUsers",
      "outputs": [
        {
          "internalType": "address[]",
          "name": "_userAddress",
          "type": "address[]"
        },
        {
          "internalType": "uint16",
          "name": "_achieversListCount",
          "type": "uint16"
        }
      ],
      "stateMutability": "view",
      "type": "function"
    },
    {
      "inputs": [],
      "name": "getSelfIncomePoolRefereeLimit",
      "outputs": [
        {
          "internalType": "uint8",
          "name": "",
          "type": "uint8"
        }
      ],
      "stateMutability": "view",
      "type": "function"
    },
    {
      "inputs": [
        {
          "internalType": "address",
          "name": "_userAddress",
          "type": "address"
        }
      ],
      "name": "getTeamBusinessToQualifyRewards",
      "outputs": [
        {
          "internalType": "uint256",
          "name": "mainBusiness",
          "type": "uint256"
        },
        {
          "internalType": "uint256",
          "name": "otherBusiness",
          "type": "uint256"
        }
      ],
      "stateMutability": "view",
      "type": "function"
    },
    {
      "inputs": [
        {
          "internalType": "address",
          "name": "_address",
          "type": "address"
        }
      ],
      "name": "getUserAccount",
      "outputs": [
        {
          "components": [
            {
              "internalType": "address",
              "name": "referrer",
              "type": "address"
            },
            {
              "internalType": "address[]",
              "name": "referee",
              "type": "address[]"
            },
            {
              "internalType": "address[]",
              "name": "team",
              "type": "address[]"
            },
            {
              "internalType": "uint256[]",
              "name": "topUp",
              "type": "uint256[]"
            },
            {
              "internalType": "uint256",
              "name": "selfBusiness",
              "type": "uint256"
            },
            {
              "internalType": "uint256",
              "name": "directBusiness",
              "type": "uint256"
            },
            {
              "internalType": "uint256",
              "name": "totalBusiness",
              "type": "uint256"
            },
            {
              "internalType": "uint256[]",
              "name": "rewardsPaidReferral",
              "type": "uint256[]"
            },
            {
              "internalType": "uint256[]",
              "name": "rewardsPaidGlobal",
              "type": "uint256[]"
            },
            {
              "internalType": "uint256[]",
              "name": "rewardPaidPassive",
              "type": "uint256[]"
            },
            {
              "internalType": "bool",
              "name": "isInGlobalID",
              "type": "bool"
            }
          ],
          "internalType": "struct ReferralUpgradeable.Account",
          "name": "userAccount",
          "type": "tuple"
        }
      ],
      "stateMutability": "view",
      "type": "function"
    },
    {
      "inputs": [
        {
          "internalType": "address",
          "name": "_address",
          "type": "address"
        }
      ],
      "name": "getUserReferrerAddress",
      "outputs": [
        {
          "internalType": "address",
          "name": "referrer",
          "type": "address"
        }
      ],
      "stateMutability": "view",
      "type": "function"
    },
    {
      "inputs": [
        {
          "internalType": "address",
          "name": "_userAddress",
          "type": "address"
        }
      ],
      "name": "getUserRewardAccount",
      "outputs": [
        {
          "components": [
            {
              "internalType": "address",
              "name": "userAdddress",
              "type": "address"
            },
            {
              "internalType": "uint8[]",
              "name": "rewardId",
              "type": "uint8[]"
            },
            {
              "internalType": "uint8",
              "name": "lastRewardId",
              "type": "uint8"
            }
          ],
          "internalType": "struct ReferralUpgradeable.RewardsAccount",
          "name": "",
          "type": "tuple"
        }
      ],
      "stateMutability": "view",
      "type": "function"
    },
    {
      "inputs": [
        {
          "internalType": "address",
          "name": "_userAddress",
          "type": "address"
        }
      ],
      "name": "getUserRewardQualified",
      "outputs": [
        {
          "internalType": "uint8",
          "name": "rewardId",
          "type": "uint8"
        }
      ],
      "stateMutability": "view",
      "type": "function"
    },
    {
      "inputs": [
        {
          "internalType": "address",
          "name": "_address",
          "type": "address"
        }
      ],
      "name": "getUserTeam",
      "outputs": [
        {
          "internalType": "address[]",
          "name": "userReferee",
          "type": "address[]"
        },
        {
          "internalType": "uint256",
          "name": "userRefereeCount",
          "type": "uint256"
        },
        {
          "internalType": "address[]",
          "name": "userTeamAddress",
          "type": "address[]"
        },
        {
          "internalType": "uint256",
          "name": "userTeamCount",
          "type": "uint256"
        }
      ],
      "stateMutability": "view",
      "type": "function"
    },
    {
      "inputs": [
        {
          "internalType": "address",
          "name": "_userAddress",
          "type": "address"
        }
      ],
      "name": "getUserTopUpForRewards",
      "outputs": [
        {
          "internalType": "uint256",
          "name": "",
          "type": "uint256"
        }
      ],
      "stateMutability": "view",
      "type": "function"
    },
    {
      "inputs": [
        {
          "internalType": "address",
          "name": "_address",
          "type": "address"
        }
      ],
      "name": "getUserTotalBusiness",
      "outputs": [
        {
          "internalType": "uint256",
          "name": "selfBusiness",
          "type": "uint256"
        },
        {
          "internalType": "uint256",
          "name": "directBusiness",
          "type": "uint256"
        },
        {
          "internalType": "uint256",
          "name": "refereeTeamBusiness",
          "type": "uint256"
        },
        {
          "internalType": "uint256",
          "name": "totalBusiness",
          "type": "uint256"
        }
      ],
      "stateMutability": "view",
      "type": "function"
    },
    {
      "inputs": [
        {
          "internalType": "address",
          "name": "_address",
          "type": "address"
        }
      ],
      "name": "getUserTotalRewardPaid",
      "outputs": [
        {
          "internalType": "uint256",
          "name": "rewardsAUSD",
          "type": "uint256"
        },
        {
          "internalType": "uint256",
          "name": "rewardsGlobal",
          "type": "uint256"
        },
        {
          "internalType": "uint256",
          "name": "rewardsPassive",
          "type": "uint256"
        }
      ],
      "stateMutability": "view",
      "type": "function"
    },
    {
      "inputs": [],
      "name": "getVariablesContract",
      "outputs": [
        {
          "internalType": "address",
          "name": "",
          "type": "address"
        }
      ],
      "stateMutability": "view",
      "type": "function"
    },
    {
      "inputs": [
        {
          "internalType": "address",
          "name": "_address",
          "type": "address"
        }
      ],
      "name": "hasReferrer",
      "outputs": [
        {
          "internalType": "bool",
          "name": "",
          "type": "bool"
        }
      ],
      "stateMutability": "view",
      "type": "function"
    },
    {
      "inputs": [
        {
          "internalType": "uint16",
          "name": "",
          "type": "uint16"
        }
      ],
      "name": "idToAddress",
      "outputs": [
        {
          "internalType": "address",
          "name": "",
          "type": "address"
        }
      ],
      "stateMutability": "view",
      "type": "function"
    },
    {
      "inputs": [
        {
          "internalType": "address[]",
          "name": "_userAddress",
          "type": "address[]"
        }
      ],
      "name": "includeUsersInList",
      "outputs": [],
      "stateMutability": "nonpayable",
      "type": "function"
    },
    {
      "inputs": [],
      "name": "initialize",
      "outputs": [],
      "stateMutability": "nonpayable",
      "type": "function"
    },
    {
      "inputs": [],
      "name": "owner",
      "outputs": [
        {
          "internalType": "address",
          "name": "",
          "type": "address"
        }
      ],
      "stateMutability": "view",
      "type": "function"
    },
    {
      "inputs": [],
      "name": "paused",
      "outputs": [
        {
          "internalType": "bool",
          "name": "",
          "type": "bool"
        }
      ],
      "stateMutability": "view",
      "type": "function"
    },
    {
      "inputs": [
        {
          "internalType": "uint256",
          "name": "_valueInUSD",
          "type": "uint256"
        },
        {
          "internalType": "address",
          "name": "_userAddress",
          "type": "address"
        },
        {
          "internalType": "address",
          "name": "_referrerAddress",
          "type": "address"
        }
      ],
      "name": "payReferralANUSDAdmin",
      "outputs": [],
      "stateMutability": "nonpayable",
      "type": "function"
    },
    {
      "inputs": [],
      "name": "proxiableUUID",
      "outputs": [
        {
          "internalType": "bytes32",
          "name": "",
          "type": "bytes32"
        }
      ],
      "stateMutability": "view",
      "type": "function"
    },
    {
      "inputs": [],
      "name": "renounceOwnership",
      "outputs": [],
      "stateMutability": "nonpayable",
      "type": "function"
    },
    {
      "inputs": [
        {
          "internalType": "address",
          "name": "",
          "type": "address"
        }
      ],
      "name": "rewardAccount",
      "outputs": [
        {
          "internalType": "address",
          "name": "userAdddress",
          "type": "address"
        },
        {
          "internalType": "uint8",
          "name": "lastRewardId",
          "type": "uint8"
        }
      ],
      "stateMutability": "view",
      "type": "function"
    },
    {
      "inputs": [
        {
          "internalType": "uint8",
          "name": "",
          "type": "uint8"
        }
      ],
      "name": "rewards",
      "outputs": [
        {
          "internalType": "uint8",
          "name": "id",
          "type": "uint8"
        },
        {
          "internalType": "uint256",
          "name": "selfBusinessLimit",
          "type": "uint256"
        },
        {
          "internalType": "uint256",
          "name": "directBusinessLimit",
          "type": "uint256"
        },
        {
          "internalType": "uint256",
          "name": "teamBusinessLimit",
          "type": "uint256"
        },
        {
          "internalType": "string",
          "name": "rankName",
          "type": "string"
        },
        {
          "internalType": "string",
          "name": "rewardName",
          "type": "string"
        },
        {
          "internalType": "uint256",
          "name": "appraisal",
          "type": "uint256"
        }
      ],
      "stateMutability": "view",
      "type": "function"
    },
    {
      "inputs": [
        {
          "internalType": "uint8[]",
          "name": "_id",
          "type": "uint8[]"
        },
        {
          "internalType": "uint256[]",
          "name": "_selfBusinessLimit",
          "type": "uint256[]"
        },
        {
          "internalType": "uint256[]",
          "name": "_directBusinessLimit",
          "type": "uint256[]"
        },
        {
          "internalType": "uint256[]",
          "name": "_teamBusinessLimit",
          "type": "uint256[]"
        },
        {
          "internalType": "string[]",
          "name": "_rankName",
          "type": "string[]"
        },
        {
          "internalType": "string[]",
          "name": "_rewardName",
          "type": "string[]"
        },
        {
          "internalType": "uint256[]",
          "name": "_appraisal",
          "type": "uint256[]"
        }
      ],
      "name": "setRewards",
      "outputs": [],
      "stateMutability": "nonpayable",
      "type": "function"
    },
    {
      "inputs": [],
      "name": "totalUsers",
      "outputs": [
        {
          "internalType": "uint16",
          "name": "",
          "type": "uint16"
        }
      ],
      "stateMutability": "view",
      "type": "function"
    },
    {
      "inputs": [
        {
          "internalType": "address",
          "name": "_address",
          "type": "address"
        },
        {
          "internalType": "uint256",
          "name": "_value",
          "type": "uint256"
        }
      ],
      "name": "transferNative",
      "outputs": [],
      "stateMutability": "nonpayable",
      "type": "function"
    },
    {
      "inputs": [
        {
          "internalType": "address",
          "name": "newOwner",
          "type": "address"
        }
      ],
      "name": "transferOwnership",
      "outputs": [],
      "stateMutability": "nonpayable",
      "type": "function"
    },
    {
      "inputs": [
        {
          "internalType": "address",
          "name": "_userAddress",
          "type": "address"
        },
        {
          "internalType": "uint8",
          "name": "_rewardId",
          "type": "uint8"
        }
      ],
      "name": "updateIfRewardPaidAdmin",
      "outputs": [],
      "stateMutability": "nonpayable",
      "type": "function"
    },
    {
      "inputs": [
        {
          "internalType": "address",
          "name": "newImplementation",
          "type": "address"
        }
      ],
      "name": "upgradeTo",
      "outputs": [],
      "stateMutability": "nonpayable",
      "type": "function"
    },
    {
      "inputs": [
        {
          "internalType": "address",
          "name": "newImplementation",
          "type": "address"
        },
        {
          "internalType": "bytes",
          "name": "data",
          "type": "bytes"
        }
      ],
      "name": "upgradeToAndCall",
      "outputs": [],
      "stateMutability": "payable",
      "type": "function"
    },
    {
      "inputs": [
        {
          "internalType": "uint256",
          "name": "",
          "type": "uint256"
        }
      ],
      "name": "usersList",
      "outputs": [
        {
          "internalType": "address",
          "name": "",
          "type": "address"
        }
      ],
      "stateMutability": "view",
      "type": "function"
    },
    {
      "stateMutability": "payable",
      "type": "receive"
    }
  ],
  "bytecode": "0x60a06040523060805234801561001457600080fd5b50608051615e1c6200004d6000396000818161165b0152818161169b0152818161173a0152818161177a01526118380152615e1c6000f3fe6080604052600436106101fd5760003560e01c80637d2e90c21161010d578063cb0e0d7d116100a0578063f13a143f1161006f578063f13a143f146106d0578063f2fde38b146106ee578063faeda7e51461070e578063fb47e0161461073e578063fb5d45261461076b57600080fd5b8063cb0e0d7d14610615578063dd1ca71614610647578063e5ffb5df14610675578063ef519dc01461069557600080fd5b80638da5cb5b116100dc5780638da5cb5b146105605780639b317cc41461057e578063a0760aff146105b1578063bff1f9e1146105e657600080fd5b80637d2e90c2146104de5780638129fc1c146104fe57806386f6630d146105135780638a93f7b91461054057600080fd5b80633659cfe61161019057806352d1902d1161015f57806352d1902d1461045d5780635c975abb14610472578063715018a61461048a57806371e13ead1461049f578063771aa216146104be57600080fd5b80633659cfe6146103d057806343b4ebf4146103f05780634f1ef2861461042a578063502aa3b51461043d57600080fd5b80632405091c116101cc5780632405091c146102dd57806325f1c91e1461031d5780632bb5112d1461034b57806335166fef146103b057600080fd5b8063025313ff146102095780630a783ea51461025d57806318452cd81461028b578063228159b4146102bb57600080fd5b3661020457005b600080fd5b34801561021557600080fd5b506102406102243660046150c0565b61010c602052600090815260409020546001600160a01b031681565b6040516001600160a01b0390911681526020015b60405180910390f35b34801561026957600080fd5b5061010f546301000000900460ff165b60405160ff9091168152602001610254565b34801561029757600080fd5b506102ab6102a63660046150f0565b610790565b6040519015158152602001610254565b3480156102c757600080fd5b506102db6102d636600461510d565b6107b7565b005b3480156102e957600080fd5b506102fd6102f83660046150f0565b610aaa565b604080519485526020850193909352918301526060820152608001610254565b34801561032957600080fd5b5061033d6103383660046150f0565b611099565b604051908152602001610254565b34801561035757600080fd5b5061038f6103663660046150f0565b61010a60205260009081526040902080546002909101546001600160a01b039091169060ff1682565b604080516001600160a01b03909316835260ff909116602083015201610254565b3480156103bc57600080fd5b506102db6103cb366004615385565b611330565b3480156103dc57600080fd5b506102db6103eb3660046150f0565b611651565b3480156103fc57600080fd5b5061024061040b3660046150f0565b6001600160a01b03908116600090815261010960205260409020541690565b6102db6104383660046154a0565b611730565b34801561044957600080fd5b50610240610458366004615504565b611800565b34801561046957600080fd5b5061033d61182b565b34801561047e57600080fd5b5060335460ff166102ab565b34801561049657600080fd5b506102db6118de565b3480156104ab57600080fd5b5061010f5462010000900460ff16610279565b3480156104ca57600080fd5b506102db6104d936600461551d565b6118f2565b3480156104ea57600080fd5b506102db6104f9366004615552565b6119f6565b34801561050a57600080fd5b506102db611a39565b34801561051f57600080fd5b5061053361052e3660046150f0565b611c1f565b604051610254919061557e565b34801561054c57600080fd5b506102db61055b3660046155f3565b611d05565b34801561056c57600080fd5b506065546001600160a01b0316610240565b34801561058a57600080fd5b5061059e610599366004615668565b611dd9565b60405161025497969594939291906156d3565b3480156105bd57600080fd5b506105d16105cc3660046150f0565b611f2b565b60408051928352602083019190915201610254565b3480156105f257600080fd5b5061010f546106029061ffff1681565b60405161ffff9091168152602001610254565b34801561062157600080fd5b506106026106303660046150f0565b61010d6020526000908152604090205461ffff1681565b34801561065357600080fd5b50610667610662366004615728565b6124d1565b6040516102549291906157af565b34801561068157600080fd5b506102796106903660046150f0565b6125af565b3480156106a157600080fd5b506106b56106b03660046150f0565b612a3e565b60408051938452602084019290925290820152606001610254565b3480156106dc57600080fd5b5060fb546001600160a01b0316610240565b3480156106fa57600080fd5b506102db6107093660046150f0565b612b59565b34801561071a57600080fd5b5061072e6107293660046150f0565b612bcf565b60405161025494939291906157d5565b34801561074a57600080fd5b5061075e6107593660046150f0565b612cbc565b6040516102549190615842565b34801561077757600080fd5b50610780612fa9565b6040516102549493929190615951565b6001600160a01b038082166000908152610109602052604081205490911615155b92915050565b336107ca6065546001600160a01b031690565b6001600160a01b0316816001600160a01b03161480610870575060fb60009054906101000a90046001600160a01b03166001600160a01b03166363d9df856040518163ffffffff1660e01b8152600401602060405180830381865afa158015610837573d6000803e3d6000fd5b505050506040513d601f19601f8201168201806040525081019061085b919061598b565b6001600160a01b0316816001600160a01b0316145b6108cc5760405162461bcd60e51b815260206004820152602260248201527f4f6e6c79206f776e65722063616e2063616c6c20746869732066756e6374696f604482015261371760f11b60648201526084015b60405180910390fd5b6001600160a01b0383811660009081526101096020526040902054161580156108fd57506001600160a01b03821615155b1561090c5761090c8383613070565b6001600160a01b03828116600090815261010960205260409020541615801561093d57506001600160a01b03821615155b80156109585750610100546001600160a01b03838116911614155b1561097557610100546109759083906001600160a01b0316613070565b61097f84846133fb565b61098b611388856159d4565b6040516370a0823160e01b8152306004820152731a1750b2833f8a0d26fe59ef244412a5e25c72b9906370a0823190602401602060405180830381865afa1580156109da573d6000803e3d6000fd5b505050506040513d601f19601f820116820180604052508101906109fe91906159e8565b10610a9b57731a1750b2833f8a0d26fe59ef244412a5e25c72b963a9059cbb84610a2a611388886159d4565b6040516001600160e01b031960e085901b1681526001600160a01b03909216600483015260248201526044016020604051808303816000875af1158015610a75573d6000803e3d6000fd5b505050506040513d601f19601f82011682018060405250810190610a999190615a01565b505b610aa483614166565b50505050565b6001600160a01b0381166000908152610109602052604081206001810154600482015492918291829190825b81811015610dad5760006101096000856001018481548110610afa57610afa615a23565b60009182526020808320909101546001600160a01b03908116845283820194909452604092830190912082516101608101845281549094168452600181018054845181850281018501909552808552919385840193909290830182828015610b8b57602002820191906000526020600020905b81546001600160a01b03168152600190910190602001808311610b6d575b5050505050815260200160028201805480602002602001604051908101604052809291908181526020018280548015610bed57602002820191906000526020600020905b81546001600160a01b03168152600190910190602001808311610bcf575b5050505050815260200160038201805480602002602001604051908101604052809291908181526020018280548015610c4557602002820191906000526020600020905b815481526020019060010190808311610c31575b5050505050815260200160048201548152602001600582015481526020016006820154815260200160078201805480602002602001604051908101604052809291908181526020018280548015610cbb57602002820191906000526020600020905b815481526020019060010190808311610ca7575b5050505050815260200160088201805480602002602001604051908101604052809291908181526020018280548015610d1357602002820191906000526020600020905b815481526020019060010190808311610cff575b5050505050815260200160098201805480602002602001604051908101604052809291908181526020018280548015610d6b57602002820191906000526020600020905b815481526020019060010190808311610d57575b5050509183525050600a919091015460ff1615156020909101526080810151909150610d979088615a39565b9650508080610da590615a4c565b915050610ad6565b5060005b818110156110885760006101096000856001018481548110610dd557610dd5615a23565b60009182526020808320909101546001600160a01b03908116845283820194909452604092830190912082516101608101845281549094168452600181018054845181850281018501909552808552919385840193909290830182828015610e6657602002820191906000526020600020905b81546001600160a01b03168152600190910190602001808311610e48575b5050505050815260200160028201805480602002602001604051908101604052809291908181526020018280548015610ec857602002820191906000526020600020905b81546001600160a01b03168152600190910190602001808311610eaa575b5050505050815260200160038201805480602002602001604051908101604052809291908181526020018280548015610f2057602002820191906000526020600020905b815481526020019060010190808311610f0c575b5050505050815260200160048201548152602001600582015481526020016006820154815260200160078201805480602002602001604051908101604052809291908181526020018280548015610f9657602002820191906000526020600020905b815481526020019060010190808311610f82575b5050505050815260200160088201805480602002602001604051908101604052809291908181526020018280548015610fee57602002820191906000526020600020905b815481526020019060010190808311610fda575b505050505081526020016009820180548060200260200160405190810160405280929190818152602001828054801561104657602002820191906000526020600020905b815481526020019060010190808311611032575b5050509183525050600a919091015460ff16151560209091015260c08101519091506110729087615a39565b955050808061108090615a4c565b915050610db1565b508160060154925050509193509193565b6001600160a01b03808216600090815261010960209081526040808320815161016081018352815490951685526001810180548351818602810186019094528084529495869590949293858401939092919083018282801561112457602002820191906000526020600020905b81546001600160a01b03168152600190910190602001808311611106575b505050505081526020016002820180548060200260200160405190810160405280929190818152602001828054801561118657602002820191906000526020600020905b81546001600160a01b03168152600190910190602001808311611168575b50505050508152602001600382018054806020026020016040519081016040528092919081815260200182805480156111de57602002820191906000526020600020905b8154815260200190600101908083116111ca575b505050505081526020016004820154815260200160058201548152602001600682015481526020016007820180548060200260200160405190810160405280929190818152602001828054801561125457602002820191906000526020600020905b815481526020019060010190808311611240575b50505050508152602001600882018054806020026020016040519081016040528092919081815260200182805480156112ac57602002820191906000526020600020905b815481526020019060010190808311611298575b505050505081526020016009820180548060200260200160405190810160405280929190818152602001828054801561130457602002820191906000526020600020905b8154815260200190600101908083116112f0575b5050509183525050600a919091015460ff16151560209091015290506113298161425d565b9392505050565b60fb54604051630935e01b60e21b81523360048201526001600160a01b03909116906324d7806c90602401602060405180830381865afa158015611378573d6000803e3d6000fd5b505050506040513d601f19601f8201168201806040525081019061139c9190615a01565b6113b85760405162461bcd60e51b81526004016108c390615a65565b60005b8751811015611647576040518060e001604052808983815181106113e1576113e1615a23565b602002602001015160ff16815260200188838151811061140357611403615a23565b6020026020010151815260200187838151811061142257611422615a23565b6020026020010151815260200186838151811061144157611441615a23565b6020026020010151815260200185838151811061146057611460615a23565b6020026020010151815260200184838151811061147f5761147f615a23565b6020026020010151815260200183838151811061149e5761149e615a23565b602002602001015181525061010b60008a84815181106114c0576114c0615a23565b60209081029190910181015160ff90811683528282019390935260409182016000208451815460ff191694169390931783558301516001830155820151600282015560608201516003820155608082015160048201906115209082615b12565b5060a082015160058201906115359082615b12565b5060c082015181600601559050507fb9f30bf0ab6748f3fcfbc9d280ed1feedea51276343f55f8342b8c453b876e9a88828151811061157657611576615a23565b602002602001015188838151811061159057611590615a23565b60200260200101518884815181106115aa576115aa615a23565b60200260200101518885815181106115c4576115c4615a23565b60200260200101518886815181106115de576115de615a23565b60200260200101518887815181106115f8576115f8615a23565b602002602001015188888151811061161257611612615a23565b602002602001015160405161162d97969594939291906156d3565b60405180910390a18061163f81615a4c565b9150506113bb565b5050505050505050565b6001600160a01b037f00000000000000000000000000000000000000000000000000000000000000001630036116995760405162461bcd60e51b81526004016108c390615bd2565b7f00000000000000000000000000000000000000000000000000000000000000006001600160a01b03166116e2600080516020615da0833981519152546001600160a01b031690565b6001600160a01b0316146117085760405162461bcd60e51b81526004016108c390615c1e565b611711816142c7565b6040805160008082526020820190925261172d918391906142cf565b50565b6001600160a01b037f00000000000000000000000000000000000000000000000000000000000000001630036117785760405162461bcd60e51b81526004016108c390615bd2565b7f00000000000000000000000000000000000000000000000000000000000000006001600160a01b03166117c1600080516020615da0833981519152546001600160a01b031690565b6001600160a01b0316146117e75760405162461bcd60e51b81526004016108c390615c1e565b6117f0826142c7565b6117fc828260016142cf565b5050565b61010e818154811061181157600080fd5b6000918252602090912001546001600160a01b0316905081565b6000306001600160a01b037f000000000000000000000000000000000000000000000000000000000000000016146118cb5760405162461bcd60e51b815260206004820152603860248201527f555550535570677261646561626c653a206d757374206e6f742062652063616c60448201527f6c6564207468726f7567682064656c656761746563616c6c000000000000000060648201526084016108c3565b50600080516020615da083398151915290565b6118e661443a565b6118f06000614494565b565b60fb54604051630935e01b60e21b81523360048201526001600160a01b03909116906324d7806c90602401602060405180830381865afa15801561193a573d6000803e3d6000fd5b505050506040513d601f19601f8201168201806040525081019061195e9190615a01565b61197a5760405162461bcd60e51b81526004016108c390615a65565b6001600160a01b03808316600090815261010a6020526040902080549091166119b75780546001600160a01b0319166001600160a01b0384161781555b600190810180549182018155600090815260209081902090820401805460ff938416601f9093166101000a928302939092021990911691909117905550565b6119fe61443a565b6040516001600160a01b0383169082156108fc029083906000818181858888f19350505050158015611a34573d6000803e3d6000fd5b505050565b600054610100900460ff1615808015611a595750600054600160ff909116105b80611a735750303b158015611a73575060005460ff166001145b611ad65760405162461bcd60e51b815260206004820152602e60248201527f496e697469616c697a61626c653a20636f6e747261637420697320616c72656160448201526d191e481a5b9a5d1a585b1a5e995960921b60648201526084016108c3565b6000805460ff191660011790558015611af9576000805461ff0019166101001790555b60fb80546001600160a01b03199081167377daafc7411c911b869c71bf70fe36cce507845d17909155610100805490911673f3ba579d4afd4dad8a8c2d1bcbdd1405688e492f1790556040805160e0810182526007808252600460208301526003928201929092526002606082015260016080820181905260a0820181905260c0820152611b8a9160fc9190615049565b50606460fd5560146101065569011478b7c30abc3000006101035560046101015560056101045568a80d24677efef0000061010555611bc76144e6565b611bcf614515565b611bd7614544565b801561172d576000805461ff0019169055604051600181527f7f26b83ff96e1f2b6a682f133852f6798a09c465da95921460cefb38474024989060200160405180910390a150565b611c4f604051806060016040528060006001600160a01b0316815260200160608152602001600060ff1681525090565b6001600160a01b03808316600090815261010a6020908152604091829020825160608101845281549094168452600181018054845181850281018501909552808552919385840193909290830182828015611ce757602002820191906000526020600020906000905b825461010083900a900460ff16815260206001928301818104948501949093039092029101808411611cb85790505b50505091835250506002919091015460ff1660209091015292915050565b60fb54604051630935e01b60e21b81523360048201526001600160a01b03909116906324d7806c90602401602060405180830381865afa158015611d4d573d6000803e3d6000fd5b505050506040513d601f19601f82011682018060405250810190611d719190615a01565b611d8d5760405162461bcd60e51b81526004016108c390615a65565b60005b81811015611a3457611dc7838383818110611dad57611dad615a23565b9050602002016020810190611dc291906150f0565b614166565b80611dd181615a4c565b915050611d90565b61010b602052600090815260409020805460018201546002830154600384015460048501805460ff90951695939492939192611e1490615a90565b80601f0160208091040260200160405190810160405280929190818152602001828054611e4090615a90565b8015611e8d5780601f10611e6257610100808354040283529160200191611e8d565b820191906000526020600020905b815481529060010190602001808311611e7057829003601f168201915b505050505090806005018054611ea290615a90565b80601f0160208091040260200160405190810160405280929190818152602001828054611ece90615a90565b8015611f1b5780601f10611ef057610100808354040283529160200191611f1b565b820191906000526020600020905b815481529060010190602001808311611efe57829003601f168201915b5050505050908060060154905087565b6001600160a01b03808216600090815261010960209081526040808320815161016081018352815490951685526001810180548351818602810186019094528084529495869586959194858301939092909190830182828015611fb757602002820191906000526020600020905b81546001600160a01b03168152600190910190602001808311611f99575b505050505081526020016002820180548060200260200160405190810160405280929190818152602001828054801561201957602002820191906000526020600020905b81546001600160a01b03168152600190910190602001808311611ffb575b505050505081526020016003820180548060200260200160405190810160405280929190818152602001828054801561207157602002820191906000526020600020905b81548152602001906001019080831161205d575b50505050508152602001600482015481526020016005820154815260200160068201548152602001600782018054806020026020016040519081016040528092919081815260200182805480156120e757602002820191906000526020600020905b8154815260200190600101908083116120d3575b505050505081526020016008820180548060200260200160405190810160405280929190818152602001828054801561213f57602002820191906000526020600020905b81548152602001906001019080831161212b575b505050505081526020016009820180548060200260200160405190810160405280929190818152602001828054801561219757602002820191906000526020600020905b815481526020019060010190808311612183575b5050509183525050600a919091015460ff161515602091820152810151519091506000906002116124ca5760005b8260200151518161ffff1610156124bc576000610109600085602001518461ffff16815181106121f7576121f7615a23565b6020908102919091018101516001600160a01b0390811683528282019390935260409182016000208251610160810184528154909416845260018101805484518185028101850190955280855291938584019390929083018282801561228657602002820191906000526020600020905b81546001600160a01b03168152600190910190602001808311612268575b50505050508152602001600282018054806020026020016040519081016040528092919081815260200182805480156122e857602002820191906000526020600020905b81546001600160a01b031681526001909101906020018083116122ca575b505050505081526020016003820180548060200260200160405190810160405280929190818152602001828054801561234057602002820191906000526020600020905b81548152602001906001019080831161232c575b50505050508152602001600482015481526020016005820154815260200160068201548152602001600782018054806020026020016040519081016040528092919081815260200182805480156123b657602002820191906000526020600020905b8154815260200190600101908083116123a2575b505050505081526020016008820180548060200260200160405190810160405280929190818152602001828054801561240e57602002820191906000526020600020905b8154815260200190600101908083116123fa575b505050505081526020016009820180548060200260200160405190810160405280929190818152602001828054801561246657602002820191906000526020600020905b815481526020019060010190808311612452575b5050509183525050600a919091015460ff16151560209091015260c0810151909150861015612497578060c0015195505b60c08101516124a69084615a39565b92505080806124b490615c6a565b9150506121c5565b506124c78482615c8b565b92505b5050915091565b606060008060006124e387878761456b565b915091508092508061ffff1667ffffffffffffffff8111156125075761250761514f565b604051908082528060200260200182016040528015612530578160200160208202803683370190505b50935060005b8161ffff168161ffff1610156125a457828161ffff168151811061255c5761255c615a23565b6020026020010151858261ffff168151811061257a5761257a615a23565b6001600160a01b03909216602092830291909101909101528061259c81615c6a565b915050612536565b505050935093915050565b6001600160a01b03808216600090815261010960209081526040808320815161016081018352815490951685526001810180548351818602810186019094528084529495869590949293858401939092919083018282801561263a57602002820191906000526020600020905b81546001600160a01b0316815260019091019060200180831161261c575b505050505081526020016002820180548060200260200160405190810160405280929190818152602001828054801561269c57602002820191906000526020600020905b81546001600160a01b0316815260019091019060200180831161267e575b50505050508152602001600382018054806020026020016040519081016040528092919081815260200182805480156126f457602002820191906000526020600020905b8154815260200190600101908083116126e0575b505050505081526020016004820154815260200160058201548152602001600682015481526020016007820180548060200260200160405190810160405280929190818152602001828054801561276a57602002820191906000526020600020905b815481526020019060010190808311612756575b50505050508152602001600882018054806020026020016040519081016040528092919081815260200182805480156127c257602002820191906000526020600020905b8154815260200190600101908083116127ae575b505050505081526020016009820180548060200260200160405190810160405280929190818152602001828054801561281a57602002820191906000526020600020905b815481526020019060010190808311612806575b5050509183525050600a919091015460ff161515602090910152905060005b60148160ff161015612a375760ff808216600090815261010b60209081526040808320815160e08101835281549095168552600181015492850192909252600282015490840152600381015460608401526004810180549293926080840191906128a290615a90565b80601f01602080910402602001604051908101604052809291908181526020018280546128ce90615a90565b801561291b5780601f106128f05761010080835404028352916020019161291b565b820191906000526020600020905b8154815290600101906020018083116128fe57829003601f168201915b5050505050815260200160058201805461293490615a90565b80601f016020809104026020016040519081016040528092919081815260200182805461296090615a90565b80156129ad5780601f10612982576101008083540402835291602001916129ad565b820191906000526020600020905b81548152906001019060200180831161299057829003601f168201915b50505050508152602001600682015481525050905060028260ff161180156129d757506020810151155b156129e25750612a37565b80602001516129f08461425d565b10158015612a06575080604001518360a0015110155b8015612a1b5750612a1b838260600151614a7b565b15612a24578193505b5080612a2f81615c9e565b915050612839565b5050919050565b6001600160a01b0381166000908152610109602052604081206007810154600882015460098301548493849390929091845b83811015612ab757846007018181548110612a8d57612a8d615a23565b906000526020600020015488612aa39190615a39565b975080612aaf81615a4c565b915050612a70565b5060005b82811015612b0257846008018181548110612ad857612ad8615a23565b906000526020600020015487612aee9190615a39565b965080612afa81615a4c565b915050612abb565b5060005b81811015612b4d57846009018181548110612b2357612b23615a23565b906000526020600020015486612b399190615a39565b955080612b4581615a4c565b915050612b06565b50505050509193909250565b612b6161443a565b6001600160a01b038116612bc65760405162461bcd60e51b815260206004820152602660248201527f4f776e61626c653a206e6577206f776e657220697320746865207a65726f206160448201526564647265737360d01b60648201526084016108c3565b61172d81614494565b6001600160a01b03811660009081526101096020908152604080832060018101805483518186028101860190945280845260609594869486949390929091830182828015612c4657602002820191906000526020600020905b81546001600160a01b03168152600190910190602001808311612c28575b505050505094508451935080600201805480602002602001604051908101604052809291908181526020018280548015612ca957602002820191906000526020600020905b81546001600160a01b03168152600190910190602001808311612c8b575b5050505050925082519150509193509193565b612d2460405180610160016040528060006001600160a01b031681526020016060815260200160608152602001606081526020016000815260200160008152602001600081526020016060815260200160608152602001606081526020016000151581525090565b6001600160a01b038083166000908152610109602090815260409182902082516101608101845281549094168452600181018054845181850281018501909552808552919385840193909290830182828015612da957602002820191906000526020600020905b81546001600160a01b03168152600190910190602001808311612d8b575b5050505050815260200160028201805480602002602001604051908101604052809291908181526020018280548015612e0b57602002820191906000526020600020905b81546001600160a01b03168152600190910190602001808311612ded575b5050505050815260200160038201805480602002602001604051908101604052809291908181526020018280548015612e6357602002820191906000526020600020905b815481526020019060010190808311612e4f575b5050505050815260200160048201548152602001600582015481526020016006820154815260200160078201805480602002602001604051908101604052809291908181526020018280548015612ed957602002820191906000526020600020905b815481526020019060010190808311612ec5575b5050505050815260200160088201805480602002602001604051908101604052809291908181526020018280548015612f3157602002820191906000526020600020905b815481526020019060010190808311612f1d575b5050505050815260200160098201805480602002602001604051908101604052809291908181526020018280548015612f8957602002820191906000526020600020905b815481526020019060010190808311612f75575b5050509183525050600a919091015460ff16151560209091015292915050565b60fd5460fc8054604080516020808402820181019092528281526060936000938493830182828015612ffa57602002820191906000526020600020905b815481526020019060010190808311612fe6575b505060fc549396506000925050505b818160ff1610156130545760fc8160ff168154811061302a5761302a615a23565b9060005260206000200154846130409190615a39565b93508061304c81615c9e565b915050613009565b5050610100549394929391926001600160a01b03909216919050565b60fb546040805163b264bbab60e01b815290516001600160a01b0390921691600091839163b264bbab916004808201926020929091908290030181865afa1580156130bf573d6000803e3d6000fd5b505050506040513d601f19601f820116820180604052508101906130e3919061598b565b6001600160a01b038581166000818152610109602052604080822080546001600160a01b03191694891694851781559051949550937ffaf63637882ff2d63ca76881cf92fb857130e36f350c926f9cc884b499b42b779190a360fc5460005b818110156133f25782546001600160a01b03166000908152610109602052604081209082900361326a57600181810180549182018155600090815260209081902090910180546001600160a01b0319166001600160a01b038b8116919091179091556040805163f1cd4e0360e01b815290519188169263f1cd4e03926004808401938290030181865afa1580156131dd573d6000803e3d6000fd5b505050506040513d601f19601f820116820180604052508101906132019190615a01565b1561326a57604051633804d63d60e21b81526001600160a01b038881166004830152898116602483015286169063e01358f490604401600060405180830381600087803b15801561325157600080fd5b505af1158015613265573d6000803e3d6000fd5b505050505b83546001600160a01b031661327f57506133f2565b60028101805460018101825560009182526020918290200180546001600160a01b0319166001600160a01b038b8116919091179091556040805163f1cd4e0360e01b815290519188169263f1cd4e03926004808401938290030181865afa1580156132ee573d6000803e3d6000fd5b505050506040513d601f19601f820116820180604052508101906133129190615a01565b156133a05783546001600160a01b0380871691636407a08691168a613338866001615a39565b6040516001600160e01b031960e086901b1681526001600160a01b0393841660048201529290911660248301526044820152606401600060405180830381600087803b15801561338757600080fd5b505af115801561339b573d6000803e3d6000fd5b505050505b83546040516001600160a01b03808b16928a8216929116907fb766b19465b3277b0b275adf79d715cac93166bf6e6a39f26e4ccfdec76ad47e90600090a49250806133ea81615a4c565b915050613142565b50505050505050565b60fb546040805163b264bbab60e01b815290516001600160a01b0390921691600091839163b264bbab916004808201926020929091908290030181865afa15801561344a573d6000803e3d6000fd5b505050506040513d601f19601f8201168201806040525081019061346e919061598b565b9050600060fc8054806020026020016040519081016040528092919081815260200182805480156134be57602002820191906000526020600020905b8154815260200190600101908083116134aa575b5050506001600160a01b03871660009081526101096020908152604082206003810180546001810182559084529183209091018a905560048101805495965090948a9450909250613510908490615a39565b92505081905550826001600160a01b031663f1cd4e036040518163ffffffff1660e01b8152600401602060405180830381865afa158015613555573d6000803e3d6000fd5b505050506040513d601f19601f820116820180604052508101906135799190615a01565b156135e15760405163a9415f5d60e01b81526001600160a01b0386811660048301526024820188905284169063a9415f5d90604401600060405180830381600087803b1580156135c857600080fd5b505af11580156135dc573d6000803e3d6000fd5b505050505b60006101065467ffffffffffffffff8111156135ff576135ff61514f565b604051908082528060200260200182016040528015613628578160200160208202803683370190505b50905060008061010780548060200260200160405190810160405280929190818152602001828054801561368557602002820191906000526020600020905b81546001600160a01b03168152600190910190602001808311613667575b505083519394506000925050505b61010654811015613b8a5785546001600160a01b0316600081815261010960205260409020906136c35750613b8a565b8751821015613b0157600060648984815181106136e2576136e2615a23565b60200260200101518e6136f59190615cbd565b6136ff91906159d4565b9050826000036137f1578c82600501600082825461371d9190615a39565b92505081905550896001600160a01b031663f1cd4e036040518163ffffffff1660e01b8152600401602060405180830381865afa158015613762573d6000803e3d6000fd5b505050506040513d601f19601f820116820180604052508101906137869190615a01565b156137f157875460405163169529b960e01b81526001600160a01b039182166004820152602481018f9052908b169063169529b990604401600060405180830381600087803b1580156137d857600080fd5b505af11580156137ec573d6000803e3d6000fd5b505050505b8c8260060160008282546138059190615a39565b92505081905550896001600160a01b031663f1cd4e036040518163ffffffff1660e01b8152600401602060405180830381865afa15801561384a573d6000803e3d6000fd5b505050506040513d601f19601f8201168201806040525081019061386e9190615a01565b156138d9578754604051637ad141e760e11b81526001600160a01b039182166004820152602481018f9052908b169063f5a283ce90604401600060405180830381600087803b1580156138c057600080fd5b505af11580156138d4573d6000803e3d6000fd5b505050505b6007820180546001810182556000918252602082200182905560ff8054839290613904908490615a39565b925050819055508a6001600160a01b031663b70cc4c16040518163ffffffff1660e01b8152600401602060405180830381865afa158015613949573d6000803e3d6000fd5b505050506040513d601f19601f8201168201806040525081019061396d919061598b565b885460405163a9059cbb60e01b81526001600160a01b0391821660048201526024810184905291169063a9059cbb906044016020604051808303816000875af11580156139be573d6000803e3d6000fd5b505050506040513d601f19601f820116820180604052508101906139e29190615a01565b50875481906001600160a01b03908116908e167f197a0a2b0fbff3fc4f7f4d32597585aa8415fcc4c5dd6634336ec65904529c83613a21876001615a39565b60408051918252602082018190526005908201526410539554d160da1b606082015260800160405180910390a4600a82015460ff16613aff576101035482600501541115613aff5787546101028054600180820183556000929092527f93bdaa6a4190909b7c3fbe8d42169ffe1cab19f51dfc8db24c71abf849eced4a0180546001600160a01b0319166001600160a01b03938416179055600a8401805460ff191690911790558854604051911681527facc63915cb028aeaee9996abc0f864fc0559a2f955750aa97d6ef9f51014acfb9060200160405180910390a15b505b610105548160050154118015613b29575061010f546001820154630100000090910460ff1611155b15613b7657865486516001600160a01b0390911690879087908110613b5057613b50615a23565b6001600160a01b039092166020928302919091019091015284613b7281615a4c565b9550505b955080613b8281615a4c565b915050613693565b508215613dbb576000836064610104548d613ba59190615cbd565b613baf91906159d4565b613bb991906159d4565b905060005b84811015613db85760006001600160a01b0316868281518110613be357613be3615a23565b60200260200101516001600160a01b03160315613db85760006101096000888481518110613c1357613c13615a23565b60200260200101516001600160a01b03166001600160a01b0316815260200190815260200160002090508a6001600160a01b031663b70cc4c16040518163ffffffff1660e01b8152600401602060405180830381865afa158015613c7b573d6000803e3d6000fd5b505050506040513d601f19601f82011682018060405250810190613c9f919061598b565b6001600160a01b031663a9059cbb888481518110613cbf57613cbf615a23565b6020026020010151856040518363ffffffff1660e01b8152600401613cf99291906001600160a01b03929092168252602082015260400190565b6020604051808303816000875af1158015613d18573d6000803e3d6000fd5b505050506040513d601f19601f82011682018060405250810190613d3c9190615a01565b50868281518110613d4f57613d4f615a23565b60200260200101516001600160a01b0316837f62f12b06523c734cca73aa1502a5f967c8e09d0a2f084fd36acbac47f54b0d4e60405160405180910390a36009018054600181018255600091825260209091200182905580613db081615a4c565b915050613bbe565b50505b6101025415613fba5760006064610101548c613dd79190615cbd565b613de191906159d4565b610102546040805142602082015244918101919091529192506000916060016040516020818303038152906040528051906020012060001c613e239190615cd4565b905060006101028281548110613e3b57613e3b615a23565b6000918252602080832091909101546001600160a01b0316808352610109909152604090912061010f54600182015492935090916201000090910460ff1611613fb5578b6001600160a01b031663b70cc4c16040518163ffffffff1660e01b8152600401602060405180830381865afa158015613ebc573d6000803e3d6000fd5b505050506040513d601f19601f82011682018060405250810190613ee0919061598b565b60405163a9059cbb60e01b81526001600160a01b03848116600483015260248201879052919091169063a9059cbb906044016020604051808303816000875af1158015613f31573d6000803e3d6000fd5b505050506040513d601f19601f82011682018060405250810190613f559190615a01565b50600881018054600181018255600091825260209182902001859055604080518681526001600160a01b038516928101929092527f51e673ac98f0ea063ce27eb5af807d22b97cd11cd79380cf1f711ad80948046c910160405180910390a15b505050505b801561415a576000816064610108548d613fd49190615cbd565b613fde91906159d4565b613fe891906159d4565b905060005b8281101561415757896001600160a01b031663b70cc4c16040518163ffffffff1660e01b8152600401602060405180830381865afa158015614033573d6000803e3d6000fd5b505050506040513d601f19601f82011682018060405250810190614057919061598b565b6001600160a01b031663a9059cbb85838151811061407757614077615a23565b6020026020010151846040518363ffffffff1660e01b81526004016140b19291906001600160a01b03929092168252602082015260400190565b6020604051808303816000875af11580156140d0573d6000803e3d6000fd5b505050506040513d601f19601f820116820180604052508101906140f49190615a01565b5083818151811061410757614107615a23565b60200260200101516001600160a01b0316827f6d550262135215fe2f5ef9b6fad45db8cf51267248f8b95e069f8025f6f9049a60405160405180910390a38061414f81615a4c565b915050613fed565b50505b50505050505050505050565b6001600160a01b038116600090815261010d602052604081205461ffff16900361172d5761010f546000906141a09061ffff166001615ce8565b6001600160a01b038316600081815261010d60209081526040808320805461ffff191661ffff878116918217909255845261010c909252822080546001600160a01b0319908116851790915561010e80546001810182559084527f44731785622d53a842eeb261a70df6f2b61b9624656157b6168597f0656f480501805490911690931790925561010f805493945092909116919061423e83615c6a565b91906101000a81548161ffff021916908361ffff160217905550505050565b606081015151600090156142c25760015b8260600151518161ffff1610156142c05782606001518161ffff168151811061429957614299615a23565b6020026020010151826142ac9190615a39565b9150806142b881615c6a565b91505061426e565b505b919050565b61172d61443a565b7f4910fdfa16fed3260ed0e7147f7cc6da11a60208b5b9406d12a635614ffd91435460ff161561430257611a3483614db3565b826001600160a01b03166352d1902d6040518163ffffffff1660e01b8152600401602060405180830381865afa92505050801561435c575060408051601f3d908101601f19168201909252614359918101906159e8565b60015b6143bf5760405162461bcd60e51b815260206004820152602e60248201527f45524331393637557067726164653a206e657720696d706c656d656e7461746960448201526d6f6e206973206e6f74205555505360901b60648201526084016108c3565b600080516020615da0833981519152811461442e5760405162461bcd60e51b815260206004820152602960248201527f45524331393637557067726164653a20756e737570706f727465642070726f786044820152681a58589b195555525160ba1b60648201526084016108c3565b50611a34838383614e4f565b6065546001600160a01b031633146118f05760405162461bcd60e51b815260206004820181905260248201527f4f776e61626c653a2063616c6c6572206973206e6f7420746865206f776e657260448201526064016108c3565b606580546001600160a01b038381166001600160a01b0319831681179093556040519116919082907f8be0079c531659141344cd1fd0a4f28419497f9722a3daafe3b4186f6b6457e090600090a35050565b600054610100900460ff1661450d5760405162461bcd60e51b81526004016108c390615d0a565b6118f0614e74565b600054610100900460ff1661453c5760405162461bcd60e51b81526004016108c390615d0a565b6118f0614ea7565b600054610100900460ff166118f05760405162461bcd60e51b81526004016108c390615d0a565b606060006145798484615d55565b61ffff1667ffffffffffffffff8111156145955761459561514f565b6040519080825280602002602001820160405280156145be578160200160208202803683370190505b5091505b8261ffff168461ffff1611614a735761ffff8416600090815261010c60209081526040808320546001600160a01b0390811680855261010984528285208351610160810185528154909316835260018101805485518188028101880190965280865292969593949193858101939083018282801561466957602002820191906000526020600020905b81546001600160a01b0316815260019091019060200180831161464b575b50505050508152602001600282018054806020026020016040519081016040528092919081815260200182805480156146cb57602002820191906000526020600020905b81546001600160a01b031681526001909101906020018083116146ad575b505050505081526020016003820180548060200260200160405190810160405280929190818152602001828054801561472357602002820191906000526020600020905b81548152602001906001019080831161470f575b505050505081526020016004820154815260200160058201548152602001600682015481526020016007820180548060200260200160405190810160405280929190818152602001828054801561479957602002820191906000526020600020905b815481526020019060010190808311614785575b50505050508152602001600882018054806020026020016040519081016040528092919081815260200182805480156147f157602002820191906000526020600020905b8154815260200190600101908083116147dd575b505050505081526020016009820180548060200260200160405190810160405280929190818152602001828054801561484957602002820191906000526020600020905b815481526020019060010190808311614835575b5050509183525050600a919091015460ff9081161515602092830152898116600090815261010b83526040808220815160e081018352815490941684526001810154948401949094526002840154908301526003830154606083015260048301805494955090939192916080840191906148c290615a90565b80601f01602080910402602001604051908101604052809291908181526020018280546148ee90615a90565b801561493b5780601f106149105761010080835404028352916020019161493b565b820191906000526020600020905b81548152906001019060200180831161491e57829003601f168201915b5050505050815260200160058201805461495490615a90565b80601f016020809104026020016040519081016040528092919081815260200182805461498090615a90565b80156149cd5780601f106149a2576101008083540402835291602001916149cd565b820191906000526020600020905b8154815290600101906020018083116149b057829003601f168201915b50505050508152602001600682015481525050905080602001516149f08361425d565b10158015614a06575080604001518260a0015110155b8015614a1b5750614a1b828260600151614a7b565b15614a5d5782858561ffff1681518110614a3757614a37615a23565b6001600160a01b039092166020928302919091019091015283614a5981615c6a565b9450505b5050508380614a6b90615c6a565b9450506145c2565b935093915050565b6000806000600285602001515110614dab5760005b8560200151518161ffff161015614d87576000610109600088602001518461ffff1681518110614ac257614ac2615a23565b6020908102919091018101516001600160a01b03908116835282820193909352604091820160002082516101608101845281549094168452600181018054845181850281018501909552808552919385840193909290830182828015614b5157602002820191906000526020600020905b81546001600160a01b03168152600190910190602001808311614b33575b5050505050815260200160028201805480602002602001604051908101604052809291908181526020018280548015614bb357602002820191906000526020600020905b81546001600160a01b03168152600190910190602001808311614b95575b5050505050815260200160038201805480602002602001604051908101604052809291908181526020018280548015614c0b57602002820191906000526020600020905b815481526020019060010190808311614bf7575b5050505050815260200160048201548152602001600582015481526020016006820154815260200160078201805480602002602001604051908101604052809291908181526020018280548015614c8157602002820191906000526020600020905b815481526020019060010190808311614c6d575b5050505050815260200160088201805480602002602001604051908101604052809291908181526020018280548015614cd957602002820191906000526020600020905b815481526020019060010190808311614cc5575b5050505050815260200160098201805480602002602001604051908101604052809291908181526020018280548015614d3157602002820191906000526020600020905b815481526020019060010190808311614d1d575b5050509183525050600a919091015460ff16151560209091015260c0810151909150841015614d62578060c0015193505b60c0810151614d719084615a39565b9250508080614d7f90615c6a565b915050614a90565b50838210158015614da1575083614d9e8383615c8b565b10155b15614dab57600192505b505092915050565b6001600160a01b0381163b614e205760405162461bcd60e51b815260206004820152602d60248201527f455243313936373a206e657720696d706c656d656e746174696f6e206973206e60448201526c1bdd08184818dbdb9d1c9858dd609a1b60648201526084016108c3565b600080516020615da083398151915280546001600160a01b0319166001600160a01b0392909216919091179055565b614e5883614ed7565b600082511180614e655750805b15611a3457610aa48383614f17565b600054610100900460ff16614e9b5760405162461bcd60e51b81526004016108c390615d0a565b6033805460ff19169055565b600054610100900460ff16614ece5760405162461bcd60e51b81526004016108c390615d0a565b6118f033614494565b614ee081614db3565b6040516001600160a01b038216907fbc7cd75a20ee27fd9adebab32041f755214dbc6bffa90cc0225b39da2e5c2d3b90600090a250565b60606001600160a01b0383163b614f7f5760405162461bcd60e51b815260206004820152602660248201527f416464726573733a2064656c65676174652063616c6c20746f206e6f6e2d636f6044820152651b9d1c9858dd60d21b60648201526084016108c3565b600080846001600160a01b031684604051614f9a9190615d70565b600060405180830381855af49150503d8060008114614fd5576040519150601f19603f3d011682016040523d82523d6000602084013e614fda565b606091505b50915091506150028282604051806060016040528060278152602001615dc06027913961500b565b95945050505050565b6060831561501a575081611329565b611329838381511561502f5781518083602001fd5b8060405162461bcd60e51b81526004016108c39190615d8c565b828054828255906000526020600020908101928215615089579160200282015b82811115615089578251829060ff16905591602001919060010190615069565b50615095929150615099565b5090565b5b80821115615095576000815560010161509a565b803561ffff811681146142c257600080fd5b6000602082840312156150d257600080fd5b611329826150ae565b6001600160a01b038116811461172d57600080fd5b60006020828403121561510257600080fd5b8135611329816150db565b60008060006060848603121561512257600080fd5b833592506020840135615134816150db565b91506040840135615144816150db565b809150509250925092565b634e487b7160e01b600052604160045260246000fd5b604051601f8201601f1916810167ffffffffffffffff8111828210171561518e5761518e61514f565b604052919050565b600067ffffffffffffffff8211156151b0576151b061514f565b5060051b60200190565b803560ff811681146142c257600080fd5b600082601f8301126151dc57600080fd5b813560206151f16151ec83615196565b615165565b82815260059290921b8401810191818101908684111561521057600080fd5b8286015b8481101561523257615225816151ba565b8352918301918301615214565b509695505050505050565b600082601f83011261524e57600080fd5b8135602061525e6151ec83615196565b82815260059290921b8401810191818101908684111561527d57600080fd5b8286015b848110156152325780358352918301918301615281565b600067ffffffffffffffff8311156152b2576152b261514f565b6152c5601f8401601f1916602001615165565b90508281528383830111156152d957600080fd5b828260208301376000602084830101529392505050565b600082601f83011261530157600080fd5b813560206153116151ec83615196565b82815260059290921b8401810191818101908684111561533057600080fd5b8286015b8481101561523257803567ffffffffffffffff8111156153545760008081fd5b8701603f810189136153665760008081fd5b615377898683013560408401615298565b845250918301918301615334565b600080600080600080600060e0888a0312156153a057600080fd5b873567ffffffffffffffff808211156153b857600080fd5b6153c48b838c016151cb565b985060208a01359150808211156153da57600080fd5b6153e68b838c0161523d565b975060408a01359150808211156153fc57600080fd5b6154088b838c0161523d565b965060608a013591508082111561541e57600080fd5b61542a8b838c0161523d565b955060808a013591508082111561544057600080fd5b61544c8b838c016152f0565b945060a08a013591508082111561546257600080fd5b61546e8b838c016152f0565b935060c08a013591508082111561548457600080fd5b506154918a828b0161523d565b91505092959891949750929550565b600080604083850312156154b357600080fd5b82356154be816150db565b9150602083013567ffffffffffffffff8111156154da57600080fd5b8301601f810185136154eb57600080fd5b6154fa85823560208401615298565b9150509250929050565b60006020828403121561551657600080fd5b5035919050565b6000806040838503121561553057600080fd5b823561553b816150db565b9150615549602084016151ba565b90509250929050565b6000806040838503121561556557600080fd5b8235615570816150db565b946020939093013593505050565b602080825282516001600160a01b031682820152828101516060604084015280516080840181905260009291820190839060a08601905b808310156155d857835160ff1682529284019260019290920191908401906155b5565b5060ff60408801511660608701528094505050505092915050565b6000806020838503121561560657600080fd5b823567ffffffffffffffff8082111561561e57600080fd5b818501915085601f83011261563257600080fd5b81358181111561564157600080fd5b8660208260051b850101111561565657600080fd5b60209290920196919550909350505050565b60006020828403121561567a57600080fd5b611329826151ba565b60005b8381101561569e578181015183820152602001615686565b50506000910152565b600081518084526156bf816020860160208601615683565b601f01601f19169290920160200192915050565b60ff8816815286602082015285604082015284606082015260e06080820152600061570160e08301866156a7565b82810360a084015261571381866156a7565b9150508260c083015298975050505050505050565b60008060006060848603121561573d57600080fd5b615746846151ba565b9250615754602085016150ae565b9150615762604085016150ae565b90509250925092565b600081518084526020808501945080840160005b838110156157a45781516001600160a01b03168752958201959082019060010161577f565b509495945050505050565b6040815260006157c2604083018561576b565b905061ffff831660208301529392505050565b6080815260006157e8608083018761576b565b8560208401528281036040840152615800818661576b565b91505082606083015295945050505050565b600081518084526020808501945080840160005b838110156157a457815187529582019590820190600101615826565b6020815261585c6020820183516001600160a01b03169052565b6000602083015161016080604085015261587a61018085018361576b565b91506040850151601f1980868503016060870152615898848361576b565b935060608701519150808685030160808701526158b58483615812565b9350608087015160a087015260a087015160c087015260c087015160e087015260e087015191506101008187860301818801526158f28584615812565b9450808801519250506101208187860301818801526159118584615812565b9450808801519250506101408187860301818801526159308584615812565b945080880151925050506159478286018215159052565b5090949350505050565b84815260806020820152600061596a6080830186615812565b6040830194909452506001600160a01b039190911660609091015292915050565b60006020828403121561599d57600080fd5b8151611329816150db565b634e487b7160e01b600052601260045260246000fd5b634e487b7160e01b600052601160045260246000fd5b6000826159e3576159e36159a8565b500490565b6000602082840312156159fa57600080fd5b5051919050565b600060208284031215615a1357600080fd5b8151801515811461132957600080fd5b634e487b7160e01b600052603260045260246000fd5b808201808211156107b1576107b16159be565b600060018201615a5e57615a5e6159be565b5060010190565b6020808252601190820152702cb7ba9030b932903737ba1030b236b4b760791b604082015260600190565b600181811c90821680615aa457607f821691505b6020821081036142c057634e487b7160e01b600052602260045260246000fd5b601f821115611a3457600081815260208120601f850160051c81016020861015615aeb5750805b601f850160051c820191505b81811015615b0a57828155600101615af7565b505050505050565b815167ffffffffffffffff811115615b2c57615b2c61514f565b615b4081615b3a8454615a90565b84615ac4565b602080601f831160018114615b755760008415615b5d5750858301515b600019600386901b1c1916600185901b178555615b0a565b600085815260208120601f198616915b82811015615ba457888601518255948401946001909101908401615b85565b5085821015615bc25787850151600019600388901b60f8161c191681555b5050505050600190811b01905550565b6020808252602c908201527f46756e6374696f6e206d7573742062652063616c6c6564207468726f7567682060408201526b19195b1959d85d1958d85b1b60a21b606082015260800190565b6020808252602c908201527f46756e6374696f6e206d7573742062652063616c6c6564207468726f7567682060408201526b6163746976652070726f787960a01b606082015260800190565b600061ffff808316818103615c8157615c816159be565b6001019392505050565b818103818111156107b1576107b16159be565b600060ff821660ff8103615cb457615cb46159be565b60010192915050565b80820281158282048414176107b1576107b16159be565b600082615ce357615ce36159a8565b500690565b61ffff818116838216019080821115615d0357615d036159be565b5092915050565b6020808252602b908201527f496e697469616c697a61626c653a20636f6e7472616374206973206e6f74206960408201526a6e697469616c697a696e6760a81b606082015260800190565b61ffff828116828216039080821115615d0357615d036159be565b60008251615d82818460208701615683565b9190910192915050565b60208152600061132960208301846156a756fe360894a13ba1a3210667c828492db98dca3e2076cc3735a920a3ca505d382bbc416464726573733a206c6f772d6c6576656c2064656c65676174652063616c6c206661696c6564a2646970667358221220643fb30fbcf25e1044f27c7590a66e0a4d03a9b071cc6928e3225dd756775cef64736f6c63430008110033",
  "linkReferences": {},
  "deployedLinkReferences": {}
}