{
  "_format": "hh-sol-artifact-1",
  "contractName": "ReferralUpgradeable",
  "sourceName": "contracts/ReferralUpgradeable.sol",
  "abi": [
    {
      "anonymous": false,
      "inputs": [
        {
          "indexed": false,
          "internalType": "address",
          "name": "previousAdmin",
          "type": "address"
        },
        {
          "indexed": false,
          "internalType": "address",
          "name": "newAdmin",
          "type": "address"
        }
      ],
      "name": "AdminChanged",
      "type": "event"
    },
    {
      "anonymous": false,
      "inputs": [
        {
          "indexed": true,
          "internalType": "address",
          "name": "beacon",
          "type": "address"
        }
      ],
      "name": "BeaconUpgraded",
      "type": "event"
    },
    {
      "anonymous": false,
      "inputs": [
        {
          "indexed": true,
          "internalType": "address",
          "name": "userAddressaddress",
          "type": "address"
        }
      ],
      "name": "CoreMemberAdded",
      "type": "event"
    },
    {
      "anonymous": false,
      "inputs": [
        {
          "indexed": false,
          "internalType": "address",
          "name": "userAddress",
          "type": "address"
        }
      ],
      "name": "CoreMemberRemoved",
      "type": "event"
    },
    {
      "anonymous": false,
      "inputs": [
        {
          "indexed": true,
          "internalType": "uint256",
          "name": "value",
          "type": "uint256"
        },
        {
          "indexed": true,
          "internalType": "address",
          "name": "userAddress",
          "type": "address"
        }
      ],
      "name": "CoreMemberRewardPaid",
      "type": "event"
    },
    {
      "anonymous": false,
      "inputs": [
        {
          "indexed": false,
          "internalType": "address",
          "name": "userAddress",
          "type": "address"
        }
      ],
      "name": "GlobalAddressAdded",
      "type": "event"
    },
    {
      "anonymous": false,
      "inputs": [
        {
          "indexed": false,
          "internalType": "address",
          "name": "userAddress",
          "type": "address"
        }
      ],
      "name": "GlobalAddressRemoved",
      "type": "event"
    },
    {
      "anonymous": false,
      "inputs": [
        {
          "indexed": false,
          "internalType": "uint256",
          "name": "value",
          "type": "uint256"
        },
        {
          "indexed": false,
          "internalType": "address",
          "name": "userAddress",
          "type": "address"
        }
      ],
      "name": "GlobalRewardPaid",
      "type": "event"
    },
    {
      "anonymous": false,
      "inputs": [
        {
          "indexed": false,
          "internalType": "uint8",
          "name": "version",
          "type": "uint8"
        }
      ],
      "name": "Initialized",
      "type": "event"
    },
    {
      "anonymous": false,
      "inputs": [
        {
          "indexed": true,
          "internalType": "address",
          "name": "previousOwner",
          "type": "address"
        },
        {
          "indexed": true,
          "internalType": "address",
          "name": "newOwner",
          "type": "address"
        }
      ],
      "name": "OwnershipTransferred",
      "type": "event"
    },
    {
      "anonymous": false,
      "inputs": [
        {
          "indexed": true,
          "internalType": "uint256",
          "name": "value",
          "type": "uint256"
        },
        {
          "indexed": true,
          "internalType": "address",
          "name": "userAddress",
          "type": "address"
        }
      ],
      "name": "PassiveRewardPaid",
      "type": "event"
    },
    {
      "anonymous": false,
      "inputs": [
        {
          "indexed": false,
          "internalType": "address",
          "name": "account",
          "type": "address"
        }
      ],
      "name": "Paused",
      "type": "event"
    },
    {
      "anonymous": false,
      "inputs": [
        {
          "indexed": true,
          "internalType": "address",
          "name": "referee",
          "type": "address"
        },
        {
          "indexed": true,
          "internalType": "address",
          "name": "referrer",
          "type": "address"
        },
        {
          "indexed": true,
          "internalType": "uint256",
          "name": "amount",
          "type": "uint256"
        },
        {
          "indexed": false,
          "internalType": "uint256",
          "name": "level",
          "type": "uint256"
        },
        {
          "indexed": false,
          "internalType": "string",
          "name": "currency",
          "type": "string"
        }
      ],
      "name": "ReferralRewardPaid",
      "type": "event"
    },
    {
      "anonymous": false,
      "inputs": [
        {
          "indexed": true,
          "internalType": "address",
          "name": "referee",
          "type": "address"
        },
        {
          "indexed": true,
          "internalType": "address",
          "name": "referrer",
          "type": "address"
        },
        {
          "indexed": true,
          "internalType": "string",
          "name": "reason",
          "type": "string"
        }
      ],
      "name": "RegisterRefererFailed",
      "type": "event"
    },
    {
      "anonymous": false,
      "inputs": [
        {
          "indexed": true,
          "internalType": "address",
          "name": "referee",
          "type": "address"
        },
        {
          "indexed": true,
          "internalType": "address",
          "name": "referrer",
          "type": "address"
        }
      ],
      "name": "RegisteredReferer",
      "type": "event"
    },
    {
      "anonymous": false,
      "inputs": [
        {
          "indexed": true,
          "internalType": "address",
          "name": "parent",
          "type": "address"
        },
        {
          "indexed": true,
          "internalType": "address",
          "name": "referrer",
          "type": "address"
        },
        {
          "indexed": true,
          "internalType": "address",
          "name": "referee",
          "type": "address"
        }
      ],
      "name": "RegisteredTeamAddress",
      "type": "event"
    },
    {
      "anonymous": false,
      "inputs": [
        {
          "indexed": false,
          "internalType": "address",
          "name": "account",
          "type": "address"
        }
      ],
      "name": "Unpaused",
      "type": "event"
    },
    {
      "anonymous": false,
      "inputs": [
        {
          "indexed": true,
          "internalType": "address",
          "name": "implementation",
          "type": "address"
        }
      ],
      "name": "Upgraded",
      "type": "event"
    },
    {
      "inputs": [
        {
          "internalType": "address[]",
          "name": "_userAddress",
          "type": "address[]"
        },
        {
          "internalType": "address[]",
          "name": "_referrerAddress",
          "type": "address[]"
        }
      ],
      "name": "addReferrerAdmin",
      "outputs": [],
      "stateMutability": "nonpayable",
      "type": "function"
    },
    {
      "inputs": [],
      "name": "contractDefaults",
      "outputs": [
        {
          "internalType": "uint256",
          "name": "levelDecimals",
          "type": "uint256"
        },
        {
          "internalType": "uint256[]",
          "name": "levelRates",
          "type": "uint256[]"
        },
        {
          "internalType": "uint256",
          "name": "totalLevelRate",
          "type": "uint256"
        },
        {
          "internalType": "address",
          "name": "defaultReferrer",
          "type": "address"
        }
      ],
      "stateMutability": "view",
      "type": "function"
    },
    {
      "inputs": [
        {
          "internalType": "address",
          "name": "_address",
          "type": "address"
        }
      ],
      "name": "getUserAccount",
      "outputs": [
        {
          "components": [
            {
              "internalType": "address",
              "name": "referrer",
              "type": "address"
            },
            {
              "internalType": "address[]",
              "name": "referee",
              "type": "address[]"
            },
            {
              "internalType": "address[]",
              "name": "team",
              "type": "address[]"
            },
            {
              "internalType": "uint256[]",
              "name": "topUp",
              "type": "uint256[]"
            },
            {
              "internalType": "uint256",
              "name": "selfBusiness",
              "type": "uint256"
            },
            {
              "internalType": "uint256",
              "name": "directBusiness",
              "type": "uint256"
            },
            {
              "internalType": "uint256",
              "name": "totalBusiness",
              "type": "uint256"
            },
            {
              "internalType": "uint256[]",
              "name": "rewardsPaidReferral",
              "type": "uint256[]"
            },
            {
              "internalType": "uint256[]",
              "name": "rewardsPaidGlobal",
              "type": "uint256[]"
            },
            {
              "internalType": "uint256[]",
              "name": "rewardPaidPassive",
              "type": "uint256[]"
            },
            {
              "internalType": "bool",
              "name": "isInGlobalID",
              "type": "bool"
            }
          ],
          "internalType": "struct ReferralUpgradeable.Account",
          "name": "userAccount",
          "type": "tuple"
        }
      ],
      "stateMutability": "view",
      "type": "function"
    },
    {
      "inputs": [
        {
          "internalType": "address",
          "name": "_address",
          "type": "address"
        }
      ],
      "name": "getUserReferrerAddress",
      "outputs": [
        {
          "internalType": "address",
          "name": "referrer",
          "type": "address"
        }
      ],
      "stateMutability": "view",
      "type": "function"
    },
    {
      "inputs": [
        {
          "internalType": "address",
          "name": "_address",
          "type": "address"
        }
      ],
      "name": "getUserTeam",
      "outputs": [
        {
          "internalType": "address[]",
          "name": "userReferee",
          "type": "address[]"
        },
        {
          "internalType": "uint256",
          "name": "userRefereeCount",
          "type": "uint256"
        },
        {
          "internalType": "address[]",
          "name": "userTeamAddress",
          "type": "address[]"
        },
        {
          "internalType": "uint256",
          "name": "userTeamCount",
          "type": "uint256"
        }
      ],
      "stateMutability": "view",
      "type": "function"
    },
    {
      "inputs": [
        {
          "internalType": "address",
          "name": "_address",
          "type": "address"
        }
      ],
      "name": "getUserTotalBusiness",
      "outputs": [
        {
          "internalType": "uint256",
          "name": "selfBusiness",
          "type": "uint256"
        },
        {
          "internalType": "uint256",
          "name": "directBusiness",
          "type": "uint256"
        },
        {
          "internalType": "uint256",
          "name": "refereeTeamBusiness",
          "type": "uint256"
        },
        {
          "internalType": "uint256",
          "name": "totalBusiness",
          "type": "uint256"
        }
      ],
      "stateMutability": "view",
      "type": "function"
    },
    {
      "inputs": [
        {
          "internalType": "address",
          "name": "_address",
          "type": "address"
        }
      ],
      "name": "getUserTotalRewardPaid",
      "outputs": [
        {
          "internalType": "uint256",
          "name": "rewardsAUSD",
          "type": "uint256"
        },
        {
          "internalType": "uint256",
          "name": "rewardsGlobal",
          "type": "uint256"
        },
        {
          "internalType": "uint256",
          "name": "rewardsPassive",
          "type": "uint256"
        }
      ],
      "stateMutability": "view",
      "type": "function"
    },
    {
      "inputs": [],
      "name": "getVariablesContract",
      "outputs": [
        {
          "internalType": "address",
          "name": "",
          "type": "address"
        }
      ],
      "stateMutability": "view",
      "type": "function"
    },
    {
      "inputs": [
        {
          "internalType": "address",
          "name": "_address",
          "type": "address"
        }
      ],
      "name": "hasReferrer",
      "outputs": [
        {
          "internalType": "bool",
          "name": "",
          "type": "bool"
        }
      ],
      "stateMutability": "view",
      "type": "function"
    },
    {
      "inputs": [],
      "name": "initialize",
      "outputs": [],
      "stateMutability": "nonpayable",
      "type": "function"
    },
    {
      "inputs": [],
      "name": "owner",
      "outputs": [
        {
          "internalType": "address",
          "name": "",
          "type": "address"
        }
      ],
      "stateMutability": "view",
      "type": "function"
    },
    {
      "inputs": [],
      "name": "pause",
      "outputs": [],
      "stateMutability": "nonpayable",
      "type": "function"
    },
    {
      "inputs": [],
      "name": "paused",
      "outputs": [
        {
          "internalType": "bool",
          "name": "",
          "type": "bool"
        }
      ],
      "stateMutability": "view",
      "type": "function"
    },
    {
      "inputs": [
        {
          "internalType": "uint256",
          "name": "_valueInUSD",
          "type": "uint256"
        },
        {
          "internalType": "address",
          "name": "_userAddress",
          "type": "address"
        },
        {
          "internalType": "address",
          "name": "_referrerAddress",
          "type": "address"
        }
      ],
      "name": "payReferralANUSDAdmin",
      "outputs": [],
      "stateMutability": "nonpayable",
      "type": "function"
    },
    {
      "inputs": [],
      "name": "proxiableUUID",
      "outputs": [
        {
          "internalType": "bytes32",
          "name": "",
          "type": "bytes32"
        }
      ],
      "stateMutability": "view",
      "type": "function"
    },
    {
      "inputs": [],
      "name": "renounceOwnership",
      "outputs": [],
      "stateMutability": "nonpayable",
      "type": "function"
    },
    {
      "inputs": [
        {
          "internalType": "address payable",
          "name": "_address",
          "type": "address"
        }
      ],
      "name": "setDefaultReferrer",
      "outputs": [],
      "stateMutability": "nonpayable",
      "type": "function"
    },
    {
      "inputs": [
        {
          "internalType": "uint256",
          "name": "_value",
          "type": "uint256"
        }
      ],
      "name": "setLevelDecimals",
      "outputs": [
        {
          "internalType": "bool",
          "name": "",
          "type": "bool"
        }
      ],
      "stateMutability": "nonpayable",
      "type": "function"
    },
    {
      "inputs": [
        {
          "internalType": "uint256[]",
          "name": "_valueInArray",
          "type": "uint256[]"
        }
      ],
      "name": "setLevelRates",
      "outputs": [],
      "stateMutability": "nonpayable",
      "type": "function"
    },
    {
      "inputs": [
        {
          "internalType": "address",
          "name": "_contractAddress",
          "type": "address"
        }
      ],
      "name": "setVariablesContract",
      "outputs": [],
      "stateMutability": "nonpayable",
      "type": "function"
    },
    {
      "inputs": [
        {
          "internalType": "address",
          "name": "_address",
          "type": "address"
        },
        {
          "internalType": "uint256",
          "name": "_value",
          "type": "uint256"
        }
      ],
      "name": "transferNative",
      "outputs": [],
      "stateMutability": "nonpayable",
      "type": "function"
    },
    {
      "inputs": [
        {
          "internalType": "address",
          "name": "newOwner",
          "type": "address"
        }
      ],
      "name": "transferOwnership",
      "outputs": [],
      "stateMutability": "nonpayable",
      "type": "function"
    },
    {
      "inputs": [],
      "name": "unpause",
      "outputs": [],
      "stateMutability": "nonpayable",
      "type": "function"
    },
    {
      "inputs": [
        {
          "internalType": "address",
          "name": "newImplementation",
          "type": "address"
        }
      ],
      "name": "upgradeTo",
      "outputs": [],
      "stateMutability": "nonpayable",
      "type": "function"
    },
    {
      "inputs": [
        {
          "internalType": "address",
          "name": "newImplementation",
          "type": "address"
        },
        {
          "internalType": "bytes",
          "name": "data",
          "type": "bytes"
        }
      ],
      "name": "upgradeToAndCall",
      "outputs": [],
      "stateMutability": "payable",
      "type": "function"
    },
    {
      "inputs": [],
      "name": "withdrawNative",
      "outputs": [],
      "stateMutability": "nonpayable",
      "type": "function"
    },
    {
      "inputs": [
        {
          "internalType": "address",
          "name": "_tokenAddress",
          "type": "address"
        },
        {
          "internalType": "uint256",
          "name": "_value",
          "type": "uint256"
        }
      ],
      "name": "withdrawtokens",
      "outputs": [],
      "stateMutability": "nonpayable",
      "type": "function"
    },
    {
      "stateMutability": "payable",
      "type": "receive"
    }
  ],
  "bytecode": "0x60a06040523060805234801561001457600080fd5b5060805161354661004c60003960008181610f2c01528181610f6c0152818161101d0152818161105d015261112401526135466000f3fe6080604052600436106101a05760003560e01c8063715018a6116100ec578063dcf6e8191161008a578063f2fde38b11610064578063f2fde38b146104c3578063faeda7e5146104e3578063fb47e01614610513578063fb5d45261461054057600080fd5b8063dcf6e8191461044a578063ef519dc01461046a578063f13a143f146104a557600080fd5b80638456cb59116100c65780638456cb59146103d75780638da5cb5b146103ec5780638f3ddc9f1461040a578063cfbdb8591461042a57600080fd5b8063715018a61461038d5780637d2e90c2146103a25780638129fc1c146103c257600080fd5b80633659cfe6116101595780634f1ef286116101335780634f1ef2861461032a57806350431ce41461033d57806352d1902d146103525780635c975abb1461037557600080fd5b80633659cfe6146102a35780633f4ba83a146102c357806343b4ebf4146102d857600080fd5b80630ba0dba3146101ac57806318452cd8146101ce578063228159b4146102035780632405091c14610223578063277bb90014610263578063345b5b851461028357600080fd5b366101a757005b600080fd5b3480156101b857600080fd5b506101cc6101c7366004612ddd565b610565565b005b3480156101da57600080fd5b506101ee6101e9366004612ddd565b61058f565b60405190151581526020015b60405180910390f35b34801561020f57600080fd5b506101cc61021e366004612dfa565b6105b6565b34801561022f57600080fd5b5061024361023e366004612ddd565b6108a1565b6040805194855260208501939093529183015260608201526080016101fa565b34801561026f57600080fd5b506101cc61027e366004612e3c565b610e90565b34801561028f57600080fd5b506101cc61029e366004612eb4565b610f0e565b3480156102af57600080fd5b506101cc6102be366004612ddd565b610f22565b3480156102cf57600080fd5b506101cc611001565b3480156102e457600080fd5b506103126102f3366004612ddd565b6001600160a01b03908116600090815261010960205260409020541690565b6040516001600160a01b0390911681526020016101fa565b6101cc610338366004612f0c565b611013565b34801561034957600080fd5b506101cc6110e3565b34801561035e57600080fd5b50610367611117565b6040519081526020016101fa565b34801561038157600080fd5b5060335460ff166101ee565b34801561039957600080fd5b506101cc6111ca565b3480156103ae57600080fd5b506101cc6103bd366004612e3c565b6111dc565b3480156103ce57600080fd5b506101cc61121a565b3480156103e357600080fd5b506101cc611400565b3480156103f857600080fd5b506065546001600160a01b0316610312565b34801561041657600080fd5b506101cc610425366004612fd0565b611410565b34801561043657600080fd5b506101ee61044536600461303c565b6114e4565b34801561045657600080fd5b506101cc610465366004612ddd565b6114f7565b34801561047657600080fd5b5061048a610485366004612ddd565b611522565b604080519384526020840192909252908201526060016101fa565b3480156104b157600080fd5b5060fb546001600160a01b0316610312565b3480156104cf57600080fd5b506101cc6104de366004612ddd565b61163d565b3480156104ef57600080fd5b506105036104fe366004612ddd565b6116b3565b6040516101fa9493929190613099565b34801561051f57600080fd5b5061053361052e366004612ddd565b6117a0565b6040516101fa9190613106565b34801561054c57600080fd5b50610555611a8d565b6040516101fa9493929190613215565b61056d611b54565b60fb80546001600160a01b0319166001600160a01b0392909216919091179055565b6001600160a01b038082166000908152610109602052604081205490911615155b92915050565b336105c96065546001600160a01b031690565b6001600160a01b0316816001600160a01b0316148061066f575060fb60009054906101000a90046001600160a01b03166001600160a01b03166363d9df856040518163ffffffff1660e01b8152600401602060405180830381865afa158015610636573d6000803e3d6000fd5b505050506040513d601f19601f8201168201806040525081019061065a919061324f565b6001600160a01b0316816001600160a01b0316145b6106cb5760405162461bcd60e51b815260206004820152602260248201527f4f6e6c79206f776e65722063616e2063616c6c20746869732066756e6374696f604482015261371760f11b60648201526084015b60405180910390fd5b6001600160a01b0383811660009081526101096020526040902054161580156106fc57506001600160a01b03821615155b1561070b5761070b8383611bae565b6001600160a01b03828116600090815261010960205260409020541615801561073c57506001600160a01b03821615155b80156107575750610100546001600160a01b03838116911614155b1561077457610100546107749083906001600160a01b0316611bae565b61077e8484611cf6565b61078a6103e885613298565b6040516370a0823160e01b8152306004820152737f9fd63932babc508fad2f324eb534d09cfe86f0906370a0823190602401602060405180830381865afa1580156107d9573d6000803e3d6000fd5b505050506040513d601f19601f820116820180604052508101906107fd91906132ac565b111561089b57737f9fd63932babc508fad2f324eb534d09cfe86f063a9059cbb8461082a6103e888613298565b6040516001600160e01b031960e085901b1681526001600160a01b03909216600483015260248201526044016020604051808303816000875af1158015610875573d6000803e3d6000fd5b505050506040513d601f19601f8201168201806040525081019061089991906132c5565b505b50505050565b6001600160a01b0381166000908152610109602052604081206001810154600482015492918291829190825b81811015610ba457600061010960008560010184815481106108f1576108f16132e7565b60009182526020808320909101546001600160a01b0390811684528382019490945260409283019091208251610160810184528154909416845260018101805484518185028101850190955280855291938584019390929083018282801561098257602002820191906000526020600020905b81546001600160a01b03168152600190910190602001808311610964575b50505050508152602001600282018054806020026020016040519081016040528092919081815260200182805480156109e457602002820191906000526020600020905b81546001600160a01b031681526001909101906020018083116109c6575b5050505050815260200160038201805480602002602001604051908101604052809291908181526020018280548015610a3c57602002820191906000526020600020905b815481526020019060010190808311610a28575b5050505050815260200160048201548152602001600582015481526020016006820154815260200160078201805480602002602001604051908101604052809291908181526020018280548015610ab257602002820191906000526020600020905b815481526020019060010190808311610a9e575b5050505050815260200160088201805480602002602001604051908101604052809291908181526020018280548015610b0a57602002820191906000526020600020905b815481526020019060010190808311610af6575b5050505050815260200160098201805480602002602001604051908101604052809291908181526020018280548015610b6257602002820191906000526020600020905b815481526020019060010190808311610b4e575b5050509183525050600a919091015460ff1615156020909101526080810151909150610b8e90886132fd565b9650508080610b9c90613310565b9150506108cd565b5060005b81811015610e7f5760006101096000856001018481548110610bcc57610bcc6132e7565b60009182526020808320909101546001600160a01b03908116845283820194909452604092830190912082516101608101845281549094168452600181018054845181850281018501909552808552919385840193909290830182828015610c5d57602002820191906000526020600020905b81546001600160a01b03168152600190910190602001808311610c3f575b5050505050815260200160028201805480602002602001604051908101604052809291908181526020018280548015610cbf57602002820191906000526020600020905b81546001600160a01b03168152600190910190602001808311610ca1575b5050505050815260200160038201805480602002602001604051908101604052809291908181526020018280548015610d1757602002820191906000526020600020905b815481526020019060010190808311610d03575b5050505050815260200160048201548152602001600582015481526020016006820154815260200160078201805480602002602001604051908101604052809291908181526020018280548015610d8d57602002820191906000526020600020905b815481526020019060010190808311610d79575b5050505050815260200160088201805480602002602001604051908101604052809291908181526020018280548015610de557602002820191906000526020600020905b815481526020019060010190808311610dd1575b5050505050815260200160098201805480602002602001604051908101604052809291908181526020018280548015610e3d57602002820191906000526020600020905b815481526020019060010190808311610e29575b5050509183525050600a919091015460ff16151560209091015260c0810151909150610e6990876132fd565b9550508080610e7790613310565b915050610ba8565b508160060154925050509193509193565b610e98611b54565b60405163a9059cbb60e01b8152336004820152602481018290526001600160a01b0383169063a9059cbb906044016020604051808303816000875af1158015610ee5573d6000803e3d6000fd5b505050506040513d601f19601f82011682018060405250810190610f0991906132c5565b505050565b610f16611b54565b610f0960fc8383612d28565b6001600160a01b037f0000000000000000000000000000000000000000000000000000000000000000163003610f6a5760405162461bcd60e51b81526004016106c290613329565b7f00000000000000000000000000000000000000000000000000000000000000006001600160a01b0316610fb36000805160206134ca833981519152546001600160a01b031690565b6001600160a01b031614610fd95760405162461bcd60e51b81526004016106c290613375565b610fe28161271e565b60408051600080825260208201909252610ffe91839190612726565b50565b611009611b54565b611011612891565b565b6001600160a01b037f000000000000000000000000000000000000000000000000000000000000000016300361105b5760405162461bcd60e51b81526004016106c290613329565b7f00000000000000000000000000000000000000000000000000000000000000006001600160a01b03166110a46000805160206134ca833981519152546001600160a01b031690565b6001600160a01b0316146110ca5760405162461bcd60e51b81526004016106c290613375565b6110d38261271e565b6110df82826001612726565b5050565b6110eb611b54565b60405133904780156108fc02916000818181858888f19350505050158015610ffe573d6000803e3d6000fd5b6000306001600160a01b037f000000000000000000000000000000000000000000000000000000000000000016146111b75760405162461bcd60e51b815260206004820152603860248201527f555550535570677261646561626c653a206d757374206e6f742062652063616c60448201527f6c6564207468726f7567682064656c656761746563616c6c000000000000000060648201526084016106c2565b506000805160206134ca83398151915290565b6111d2611b54565b61101160006128e3565b6111e4611b54565b6040516001600160a01b0383169082156108fc029083906000818181858888f19350505050158015610f09573d6000803e3d6000fd5b600054610100900460ff161580801561123a5750600054600160ff909116105b806112545750303b158015611254575060005460ff166001145b6112b75760405162461bcd60e51b815260206004820152602e60248201527f496e697469616c697a61626c653a20636f6e747261637420697320616c72656160448201526d191e481a5b9a5d1a585b1a5e995960921b60648201526084016106c2565b6000805460ff1916600117905580156112da576000805461ff0019166101001790555b60fb80546001600160a01b03199081167377daafc7411c911b869c71bf70fe36cce507845d17909155610100805490911673f3ba579d4afd4dad8a8c2d1bcbdd1405688e492f1790556040805160e0810182526007808252600460208301526003928201929092526002606082015260016080820181905260a0820181905260c082015261136b9160fc9190612d73565b50606460fd5560146101065569011478b7c30abc3000006101035560046101015560056101045568a80d24677efef00000610105556113a8612935565b6113b0612964565b6113b8612993565b8015610ffe576000805461ff0019169055604051600181527f7f26b83ff96e1f2b6a682f133852f6798a09c465da95921460cefb38474024989060200160405180910390a150565b611408611b54565b6110116129ba565b611418611b54565b8281146114715760405162461bcd60e51b815260206004820152602160248201527f4c656e677468206973206e6f7420657175616c20706c6561736520636865636b6044820152601760f91b60648201526084016106c2565b60005b83811015610899576114d2858583818110611491576114916132e7565b90506020020160208101906114a69190612ddd565b8484848181106114b8576114b86132e7565b90506020020160208101906114cd9190612ddd565b611bae565b806114dc81613310565b915050611474565b60006114ee611b54565b5060fd55600190565b6114ff611b54565b61010080546001600160a01b0319166001600160a01b0392909216919091179055565b6001600160a01b0381166000908152610109602052604081206007810154600882015460098301548493849390929091845b8381101561159b57846007018181548110611571576115716132e7565b90600052602060002001548861158791906132fd565b97508061159381613310565b915050611554565b5060005b828110156115e6578460080181815481106115bc576115bc6132e7565b9060005260206000200154876115d291906132fd565b9650806115de81613310565b91505061159f565b5060005b8181101561163157846009018181548110611607576116076132e7565b90600052602060002001548661161d91906132fd565b95508061162981613310565b9150506115ea565b50505050509193909250565b611645611b54565b6001600160a01b0381166116aa5760405162461bcd60e51b815260206004820152602660248201527f4f776e61626c653a206e6577206f776e657220697320746865207a65726f206160448201526564647265737360d01b60648201526084016106c2565b610ffe816128e3565b6001600160a01b0381166000908152610109602090815260408083206001810180548351818602810186019094528084526060959486948694939092909183018282801561172a57602002820191906000526020600020905b81546001600160a01b0316815260019091019060200180831161170c575b50505050509450845193508060020180548060200260200160405190810160405280929190818152602001828054801561178d57602002820191906000526020600020905b81546001600160a01b0316815260019091019060200180831161176f575b5050505050925082519150509193509193565b61180860405180610160016040528060006001600160a01b031681526020016060815260200160608152602001606081526020016000815260200160008152602001600081526020016060815260200160608152602001606081526020016000151581525090565b6001600160a01b03808316600090815261010960209081526040918290208251610160810184528154909416845260018101805484518185028101850190955280855291938584019390929083018282801561188d57602002820191906000526020600020905b81546001600160a01b0316815260019091019060200180831161186f575b50505050508152602001600282018054806020026020016040519081016040528092919081815260200182805480156118ef57602002820191906000526020600020905b81546001600160a01b031681526001909101906020018083116118d1575b505050505081526020016003820180548060200260200160405190810160405280929190818152602001828054801561194757602002820191906000526020600020905b815481526020019060010190808311611933575b50505050508152602001600482015481526020016005820154815260200160068201548152602001600782018054806020026020016040519081016040528092919081815260200182805480156119bd57602002820191906000526020600020905b8154815260200190600101908083116119a9575b5050505050815260200160088201805480602002602001604051908101604052809291908181526020018280548015611a1557602002820191906000526020600020905b815481526020019060010190808311611a01575b5050505050815260200160098201805480602002602001604051908101604052809291908181526020018280548015611a6d57602002820191906000526020600020905b815481526020019060010190808311611a59575b5050509183525050600a919091015460ff16151560209091015292915050565b60fd5460fc8054604080516020808402820181019092528281526060936000938493830182828015611ade57602002820191906000526020600020905b815481526020019060010190808311611aca575b505060fc549396506000925050505b818160ff161015611b385760fc8160ff1681548110611b0e57611b0e6132e7565b906000526020600020015484611b2491906132fd565b935080611b30816133c1565b915050611aed565b5050610100549394929391926001600160a01b03909216919050565b6065546001600160a01b031633146110115760405162461bcd60e51b815260206004820181905260248201527f4f776e61626c653a2063616c6c6572206973206e6f7420746865206f776e657260448201526064016106c2565b6001600160a01b038281166000818152610109602052604080822080546001600160a01b03191694861694851781559051909392917ffaf63637882ff2d63ca76881cf92fb857130e36f350c926f9cc884b499b42b7791a360fc5460005b818110156108995782546001600160a01b031660009081526101096020526040812090829003611c66576001818101805491820181556000908152602090200180546001600160a01b0319166001600160a01b0388161790555b83546001600160a01b0316611c7b5750610899565b6002810180546001810182556000918252602082200180546001600160a01b0319166001600160a01b03898116918217909255865460405191938984169391909116917fb766b19465b3277b0b275adf79d715cac93166bf6e6a39f26e4ccfdec76ad47e9190a4925080611cee81613310565b915050611c0c565b60fb5460fc8054604080516020808402820181019092528281526001600160a01b039094169360009390929091830182828015611d5257602002820191906000526020600020905b815481526020019060010190808311611d3e575b5050506001600160a01b03861660009081526101096020908152604082206003810180546001810182559084529183209091018990556004810180549596509094899450909250611da49084906132fd565b90915550506101065460009067ffffffffffffffff811115611dc857611dc8612ef6565b604051908082528060200260200182016040528015611df1578160200160208202803683370190505b509050600080610107805480602002602001604051908101604052809291908181526020018280548015611e4e57602002820191906000526020600020905b81546001600160a01b03168152600190910190602001808311611e30575b505050505090506000815190506000805b6101065481101561217e5786546001600160a01b031660008181526101096020526040902081611e9057505061217e565b895183101561212057600060648b8581518110611eaf57611eaf6132e7565b60200260200101518f611ec291906133e0565b611ecc9190613298565b905083600003611ef0578d826005016000828254611eea91906132fd565b90915550505b8d826006016000828254611f0491906132fd565b90915550506007820180546001810182556000918252602090912001819055611f2d81866132fd565b94508b6001600160a01b031663b70cc4c16040518163ffffffff1660e01b8152600401602060405180830381865afa158015611f6d573d6000803e3d6000fd5b505050506040513d601f19601f82011682018060405250810190611f91919061324f565b60405163a9059cbb60e01b81526001600160a01b03858116600483015260248201849052919091169063a9059cbb906044016020604051808303816000875af1158015611fe2573d6000803e3d6000fd5b505050506040513d601f19601f8201168201806040525081019061200691906132c5565b50806001600160a01b03808516908f167f197a0a2b0fbff3fc4f7f4d32597585aa8415fcc4c5dd6634336ec65904529c836120428860016132fd565b60408051918252602082018190526005908201526410539554d160da1b606082015260800160405180910390a4600a82015460ff1661211e57610103548260050154111561211e576101028054600180820183556000929092527f93bdaa6a4190909b7c3fbe8d42169ffe1cab19f51dfc8db24c71abf849eced4a0180546001600160a01b0319166001600160a01b038616908117909155600a8401805460ff19169092179091556040519081527facc63915cb028aeaee9996abc0f864fc0559a2f955750aa97d6ef9f51014acfb9060200160405180910390a15b505b61010554816005015411156121685781888881518110612142576121426132e7565b6001600160a01b03909216602092830291909101909101528661216481613310565b9750505b975081905061217681613310565b915050611e5f565b50831561237b576000846064610104548d61219991906133e0565b6121a39190613298565b6121ad9190613298565b905060005b8581101561237857600061010960008984815181106121d3576121d36132e7565b60200260200101516001600160a01b03166001600160a01b0316815260200190815260200160002090508a6001600160a01b031663b70cc4c16040518163ffffffff1660e01b8152600401602060405180830381865afa15801561223b573d6000803e3d6000fd5b505050506040513d601f19601f8201168201806040525081019061225f919061324f565b6001600160a01b031663a9059cbb89848151811061227f5761227f6132e7565b6020026020010151856040518363ffffffff1660e01b81526004016122b99291906001600160a01b03929092168252602082015260400190565b6020604051808303816000875af11580156122d8573d6000803e3d6000fd5b505050506040513d601f19601f820116820180604052508101906122fc91906132c5565b5087828151811061230f5761230f6132e7565b60200260200101516001600160a01b0316837f62f12b06523c734cca73aa1502a5f967c8e09d0a2f084fd36acbac47f54b0d4e60405160405180910390a3600901805460018101825560009182526020909120018290558061237081613310565b9150506121b2565b50505b610102541561255b5760006064610101548c61239791906133e0565b6123a19190613298565b610102546040805142602082015244918101919091529192506000916060016040516020818303038152906040528051906020012060001c6123e391906133f7565b9050600061010282815481106123fb576123fb6132e7565b60009182526020808320909101546001600160a01b039081168084526101098352604093849020845163b70cc4c160e01b8152945191955093918f169263b70cc4c192600480820193918290030181865afa15801561245e573d6000803e3d6000fd5b505050506040513d601f19601f82011682018060405250810190612482919061324f565b60405163a9059cbb60e01b81526001600160a01b03848116600483015260248201879052919091169063a9059cbb906044016020604051808303816000875af11580156124d3573d6000803e3d6000fd5b505050506040513d601f19601f820116820180604052508101906124f791906132c5565b50600881018054600181018255600091825260209182902001859055604080518681526001600160a01b038516928101929092527f51e673ac98f0ea063ce27eb5af807d22b97cd11cd79380cf1f711ad80948046c910160405180910390a1505050505b81156126fb576000826064610108548d61257591906133e0565b61257f9190613298565b6125899190613298565b905060005b838110156126f857896001600160a01b031663b70cc4c16040518163ffffffff1660e01b8152600401602060405180830381865afa1580156125d4573d6000803e3d6000fd5b505050506040513d601f19601f820116820180604052508101906125f8919061324f565b6001600160a01b031663a9059cbb868381518110612618576126186132e7565b6020026020010151846040518363ffffffff1660e01b81526004016126529291906001600160a01b03929092168252602082015260400190565b6020604051808303816000875af1158015612671573d6000803e3d6000fd5b505050506040513d601f19601f8201168201806040525081019061269591906132c5565b508481815181106126a8576126a86132e7565b60200260200101516001600160a01b0316827f6d550262135215fe2f5ef9b6fad45db8cf51267248f8b95e069f8025f6f9049a60405160405180910390a3806126f081613310565b91505061258e565b50505b8060ff600082825461270d91906132fd565b909155505050505050505050505050565b610ffe611b54565b7f4910fdfa16fed3260ed0e7147f7cc6da11a60208b5b9406d12a635614ffd91435460ff161561275957610f09836129f7565b826001600160a01b03166352d1902d6040518163ffffffff1660e01b8152600401602060405180830381865afa9250505080156127b3575060408051601f3d908101601f191682019092526127b0918101906132ac565b60015b6128165760405162461bcd60e51b815260206004820152602e60248201527f45524331393637557067726164653a206e657720696d706c656d656e7461746960448201526d6f6e206973206e6f74205555505360901b60648201526084016106c2565b6000805160206134ca83398151915281146128855760405162461bcd60e51b815260206004820152602960248201527f45524331393637557067726164653a20756e737570706f727465642070726f786044820152681a58589b195555525160ba1b60648201526084016106c2565b50610f09838383612a93565b612899612ab8565b6033805460ff191690557f5db9ee0a495bf2e6ff9c91a7834c1ba4fdd244a5e8aa4e537bd38aeae4b073aa335b6040516001600160a01b03909116815260200160405180910390a1565b606580546001600160a01b038381166001600160a01b0319831681179093556040519116919082907f8be0079c531659141344cd1fd0a4f28419497f9722a3daafe3b4186f6b6457e090600090a35050565b600054610100900460ff1661295c5760405162461bcd60e51b81526004016106c29061340b565b611011612b01565b600054610100900460ff1661298b5760405162461bcd60e51b81526004016106c29061340b565b611011612b34565b600054610100900460ff166110115760405162461bcd60e51b81526004016106c29061340b565b6129c2612b64565b6033805460ff191660011790557f62e78cea01bee320cd4e420270b5ea74000d11b0c9f74754ebdbfc544b05a2586128c63390565b6001600160a01b0381163b612a645760405162461bcd60e51b815260206004820152602d60248201527f455243313936373a206e657720696d706c656d656e746174696f6e206973206e60448201526c1bdd08184818dbdb9d1c9858dd609a1b60648201526084016106c2565b6000805160206134ca83398151915280546001600160a01b0319166001600160a01b0392909216919091179055565b612a9c83612baa565b600082511180612aa95750805b15610f095761089b8383612bea565b60335460ff166110115760405162461bcd60e51b815260206004820152601460248201527314185d5cd8589b194e881b9bdd081c185d5cd95960621b60448201526064016106c2565b600054610100900460ff16612b285760405162461bcd60e51b81526004016106c29061340b565b6033805460ff19169055565b600054610100900460ff16612b5b5760405162461bcd60e51b81526004016106c29061340b565b611011336128e3565b60335460ff16156110115760405162461bcd60e51b815260206004820152601060248201526f14185d5cd8589b194e881c185d5cd95960821b60448201526064016106c2565b612bb3816129f7565b6040516001600160a01b038216907fbc7cd75a20ee27fd9adebab32041f755214dbc6bffa90cc0225b39da2e5c2d3b90600090a250565b60606001600160a01b0383163b612c525760405162461bcd60e51b815260206004820152602660248201527f416464726573733a2064656c65676174652063616c6c20746f206e6f6e2d636f6044820152651b9d1c9858dd60d21b60648201526084016106c2565b600080846001600160a01b031684604051612c6d919061347a565b600060405180830381855af49150503d8060008114612ca8576040519150601f19603f3d011682016040523d82523d6000602084013e612cad565b606091505b5091509150612cd582826040518060600160405280602781526020016134ea60279139612cde565b95945050505050565b60608315612ced575081612cf7565b612cf78383612cfe565b9392505050565b815115612d0e5781518083602001fd5b8060405162461bcd60e51b81526004016106c29190613496565b828054828255906000526020600020908101928215612d63579160200282015b82811115612d63578235825591602001919060010190612d48565b50612d6f929150612db3565b5090565b828054828255906000526020600020908101928215612d63579160200282015b82811115612d63578251829060ff16905591602001919060010190612d93565b5b80821115612d6f5760008155600101612db4565b6001600160a01b0381168114610ffe57600080fd5b600060208284031215612def57600080fd5b8135612cf781612dc8565b600080600060608486031215612e0f57600080fd5b833592506020840135612e2181612dc8565b91506040840135612e3181612dc8565b809150509250925092565b60008060408385031215612e4f57600080fd5b8235612e5a81612dc8565b946020939093013593505050565b60008083601f840112612e7a57600080fd5b50813567ffffffffffffffff811115612e9257600080fd5b6020830191508360208260051b8501011115612ead57600080fd5b9250929050565b60008060208385031215612ec757600080fd5b823567ffffffffffffffff811115612ede57600080fd5b612eea85828601612e68565b90969095509350505050565b634e487b7160e01b600052604160045260246000fd5b60008060408385031215612f1f57600080fd5b8235612f2a81612dc8565b9150602083013567ffffffffffffffff80821115612f4757600080fd5b818501915085601f830112612f5b57600080fd5b813581811115612f6d57612f6d612ef6565b604051601f8201601f19908116603f01168101908382118183101715612f9557612f95612ef6565b81604052828152886020848701011115612fae57600080fd5b8260208601602083013760006020848301015280955050505050509250929050565b60008060008060408587031215612fe657600080fd5b843567ffffffffffffffff80821115612ffe57600080fd5b61300a88838901612e68565b9096509450602087013591508082111561302357600080fd5b5061303087828801612e68565b95989497509550505050565b60006020828403121561304e57600080fd5b5035919050565b600081518084526020808501945080840160005b8381101561308e5781516001600160a01b031687529582019590820190600101613069565b509495945050505050565b6080815260006130ac6080830187613055565b85602084015282810360408401526130c48186613055565b91505082606083015295945050505050565b600081518084526020808501945080840160005b8381101561308e578151875295820195908201906001016130ea565b602081526131206020820183516001600160a01b03169052565b6000602083015161016080604085015261313e610180850183613055565b91506040850151601f198086850301606087015261315c8483613055565b9350606087015191508086850301608087015261317984836130d6565b9350608087015160a087015260a087015160c087015260c087015160e087015260e087015191506101008187860301818801526131b685846130d6565b9450808801519250506101208187860301818801526131d585846130d6565b9450808801519250506101408187860301818801526131f485846130d6565b9450808801519250505061320b8286018215159052565b5090949350505050565b84815260806020820152600061322e60808301866130d6565b6040830194909452506001600160a01b039190911660609091015292915050565b60006020828403121561326157600080fd5b8151612cf781612dc8565b634e487b7160e01b600052601260045260246000fd5b634e487b7160e01b600052601160045260246000fd5b6000826132a7576132a761326c565b500490565b6000602082840312156132be57600080fd5b5051919050565b6000602082840312156132d757600080fd5b81518015158114612cf757600080fd5b634e487b7160e01b600052603260045260246000fd5b808201808211156105b0576105b0613282565b60006001820161332257613322613282565b5060010190565b6020808252602c908201527f46756e6374696f6e206d7573742062652063616c6c6564207468726f7567682060408201526b19195b1959d85d1958d85b1b60a21b606082015260800190565b6020808252602c908201527f46756e6374696f6e206d7573742062652063616c6c6564207468726f7567682060408201526b6163746976652070726f787960a01b606082015260800190565b600060ff821660ff81036133d7576133d7613282565b60010192915050565b80820281158282048414176105b0576105b0613282565b6000826134065761340661326c565b500690565b6020808252602b908201527f496e697469616c697a61626c653a20636f6e7472616374206973206e6f74206960408201526a6e697469616c697a696e6760a81b606082015260800190565b60005b83811015613471578181015183820152602001613459565b50506000910152565b6000825161348c818460208701613456565b9190910192915050565b60208152600082518060208401526134b5816040850160208701613456565b601f01601f1916919091016040019291505056fe360894a13ba1a3210667c828492db98dca3e2076cc3735a920a3ca505d382bbc416464726573733a206c6f772d6c6576656c2064656c65676174652063616c6c206661696c6564a2646970667358221220abbcb5e9a53e142d45494f155e037087eef092521d2b94f014162c1b9efa916464736f6c63430008110033",
  "linkReferences": {},
  "deployedLinkReferences": {}
}