{"contracts/VariablesUpgradeable.sol":{"VariablesUpgradeable":{"abi":[{"anonymous":false,"inputs":[{"indexed":false,"internalType":"address","name":"previousAdmin","type":"address"},{"indexed":false,"internalType":"address","name":"newAdmin","type":"address"}],"name":"AdminChanged","type":"event"},{"anonymous":false,"inputs":[{"indexed":true,"internalType":"address","name":"beacon","type":"address"}],"name":"BeaconUpgraded","type":"event"},{"anonymous":false,"inputs":[{"indexed":false,"internalType":"uint8","name":"version","type":"uint8"}],"name":"Initialized","type":"event"},{"anonymous":false,"inputs":[{"indexed":true,"internalType":"address","name":"previousOwner","type":"address"},{"indexed":true,"internalType":"address","name":"newOwner","type":"address"}],"name":"OwnershipTransferred","type":"event"},{"anonymous":false,"inputs":[{"indexed":true,"internalType":"address","name":"implementation","type":"address"}],"name":"Upgraded","type":"event"},{"inputs":[],"name":"anusdContract","outputs":[{"internalType":"address","name":"","type":"address"}],"stateMutability":"view","type":"function"},{"inputs":[],"name":"anusdContractInfo","outputs":[{"internalType":"address","name":"tokenAddress","type":"address"},{"internalType":"string","name":"name","type":"string"},{"internalType":"string","name":"symbol","type":"string"},{"internalType":"uint256","name":"decimals","type":"uint256"}],"stateMutability":"view","type":"function"},{"inputs":[],"name":"initialize","outputs":[],"stateMutability":"nonpayable","type":"function"},{"inputs":[],"name":"owner","outputs":[{"internalType":"address","name":"","type":"address"}],"stateMutability":"view","type":"function"},{"inputs":[],"name":"presaleContract","outputs":[{"internalType":"address","name":"","type":"address"}],"stateMutability":"view","type":"function"},{"inputs":[],"name":"proxiableUUID","outputs":[{"internalType":"bytes32","name":"","type":"bytes32"}],"stateMutability":"view","type":"function"},{"inputs":[],"name":"referralContract","outputs":[{"internalType":"address","name":"","type":"address"}],"stateMutability":"view","type":"function"},{"inputs":[],"name":"renounceOwnership","outputs":[],"stateMutability":"nonpayable","type":"function"},{"inputs":[],"name":"rewardContract","outputs":[{"internalType":"address","name":"","type":"address"}],"stateMutability":"view","type":"function"},{"inputs":[],"name":"rewardContractOwner","outputs":[{"internalType":"address","name":"","type":"address"}],"stateMutability":"view","type":"function"},{"inputs":[{"internalType":"address","name":"_presale","type":"address"},{"internalType":"address","name":"_referral","type":"address"},{"internalType":"address","name":"_staking","type":"address"},{"internalType":"address","name":"_token","type":"address"},{"internalType":"address","name":"_anusd","type":"address"},{"internalType":"address","name":"_usdt","type":"address"},{"internalType":"address","name":"_reward","type":"address"}],"name":"setContractAddress","outputs":[],"stateMutability":"nonpayable","type":"function"},{"inputs":[],"name":"stakingContract","outputs":[{"internalType":"address","name":"","type":"address"}],"stateMutability":"view","type":"function"},{"inputs":[],"name":"tokenContract","outputs":[{"internalType":"address","name":"","type":"address"}],"stateMutability":"view","type":"function"},{"inputs":[],"name":"tokenContractInfo","outputs":[{"internalType":"address","name":"tokenAddress","type":"address"},{"internalType":"string","name":"name","type":"string"},{"internalType":"string","name":"symbol","type":"string"},{"internalType":"uint256","name":"decimals","type":"uint256"}],"stateMutability":"view","type":"function"},{"inputs":[],"name":"tokenContractOwner","outputs":[{"internalType":"address","name":"","type":"address"}],"stateMutability":"view","type":"function"},{"inputs":[{"internalType":"address","name":"newOwner","type":"address"}],"name":"transferOwnership","outputs":[],"stateMutability":"nonpayable","type":"function"},{"inputs":[],"name":"uniswapV2RouterContract","outputs":[{"internalType":"address","name":"","type":"address"}],"stateMutability":"view","type":"function"},{"inputs":[{"internalType":"address","name":"newImplementation","type":"address"}],"name":"upgradeTo","outputs":[],"stateMutability":"nonpayable","type":"function"},{"inputs":[{"internalType":"address","name":"newImplementation","type":"address"},{"internalType":"bytes","name":"data","type":"bytes"}],"name":"upgradeToAndCall","outputs":[],"stateMutability":"payable","type":"function"},{"inputs":[],"name":"usdtContract","outputs":[{"internalType":"address","name":"","type":"address"}],"stateMutability":"view","type":"function"},{"inputs":[],"name":"variableContract","outputs":[{"internalType":"address","name":"","type":"address"}],"stateMutability":"view","type":"function"}],"evm":{"bytecode":{"linkReferences":{},"object":"60a06040523060805234801561001457600080fd5b5060805161159061004c600039600081816104e901528181610532015281816105d10152818161061101526106a401526115906000f3fe60806040526004361061012a5760003560e01c80637dad19db116100ab578063a50b44bc1161006f578063a50b44bc146102ff578063b70cc4c114610312578063bf2f002e14610330578063ec31250f14610345578063ee99205c14610363578063f2fde38b1461038157600080fd5b80637dad19db1461026b5780638129fc1c146102895780638290c4a61461029e578063878e17df146102bc5780638da5cb5b146102e157600080fd5b806355a373d6116100f257806355a373d6146101de57806361150923146101fc57806363d9df851461021a5780636ea69d6214610238578063715018a61461025657600080fd5b80630678cc101461012f5780633659cfe61461015157806345746dd7146101715780634f1ef286146101a857806352d1902d146101bb575b600080fd5b34801561013b57600080fd5b5061014f61014a366004611141565b6103a1565b005b34801561015d57600080fd5b5061014f61016c3660046111c7565b6104df565b34801561017d57600080fd5b5060d2546001600160a01b03165b6040516001600160a01b0390911681526020015b60405180910390f35b61014f6101b6366004611251565b6105c7565b3480156101c757600080fd5b506101d0610697565b60405190815260200161019f565b3480156101ea57600080fd5b5060cc546001600160a01b031661018b565b34801561020857600080fd5b5060ce546001600160a01b031661018b565b34801561022657600080fd5b5060c9546001600160a01b031661018b565b34801561024457600080fd5b5060cf546001600160a01b031661018b565b34801561026257600080fd5b5061014f61074a565b34801561027757600080fd5b5060ca546001600160a01b031661018b565b34801561029557600080fd5b5061014f61075e565b3480156102aa57600080fd5b5060d0546001600160a01b031661018b565b3480156102c857600080fd5b506102d16108fa565b60405161019f9493929190611332565b3480156102ed57600080fd5b506033546001600160a01b031661018b565b34801561030b57600080fd5b503061018b565b34801561031e57600080fd5b5060cd546001600160a01b031661018b565b34801561033c57600080fd5b506102d1610a73565b34801561035157600080fd5b5060d1546001600160a01b031661018b565b34801561036f57600080fd5b5060cb546001600160a01b031661018b565b34801561038d57600080fd5b5061014f61039c3660046111c7565b610bc0565b6103a9610c36565b6001600160a01b038716156103d45760c980546001600160a01b0319166001600160a01b0389161790555b6001600160a01b038616156103ff5760ca80546001600160a01b0319166001600160a01b0388161790555b6001600160a01b0385161561042a5760cb80546001600160a01b0319166001600160a01b0387161790555b6001600160a01b038416156104555760cc80546001600160a01b0319166001600160a01b0386161790555b6001600160a01b038316156104805760cd80546001600160a01b0319166001600160a01b0385161790555b6001600160a01b038216156104ab5760ce80546001600160a01b0319166001600160a01b0384161790555b6001600160a01b038116156104d65760cf80546001600160a01b0319166001600160a01b0383161790555b50505050505050565b6001600160a01b037f00000000000000000000000000000000000000000000000000000000000000001630036105305760405162461bcd60e51b81526004016105279061137a565b60405180910390fd5b7f00000000000000000000000000000000000000000000000000000000000000006001600160a01b0316610579600080516020611514833981519152546001600160a01b031690565b6001600160a01b03161461059f5760405162461bcd60e51b8152600401610527906113c6565b6105a881610c90565b604080516000808252602082019092526105c491839190610c98565b50565b6001600160a01b037f000000000000000000000000000000000000000000000000000000000000000016300361060f5760405162461bcd60e51b81526004016105279061137a565b7f00000000000000000000000000000000000000000000000000000000000000006001600160a01b0316610658600080516020611514833981519152546001600160a01b031690565b6001600160a01b03161461067e5760405162461bcd60e51b8152600401610527906113c6565b61068782610c90565b61069382826001610c98565b5050565b6000306001600160a01b037f000000000000000000000000000000000000000000000000000000000000000016146107375760405162461bcd60e51b815260206004820152603860248201527f555550535570677261646561626c653a206d757374206e6f742062652063616c60448201527f6c6564207468726f7567682064656c656761746563616c6c00000000000000006064820152608401610527565b5060008051602061151483398151915290565b610752610c36565b61075c6000610e08565b565b600054610100900460ff161580801561077e5750600054600160ff909116105b806107985750303b158015610798575060005460ff166001145b6107fb5760405162461bcd60e51b815260206004820152602e60248201527f496e697469616c697a61626c653a20636f6e747261637420697320616c72656160448201526d191e481a5b9a5d1a585b1a5e995960921b6064820152608401610527565b6000805460ff19166001179055801561081e576000805461ff0019166101001790555b60c980546001600160a01b0319908116730c750b915ef0112b204f0f7e6812be292b9936a21790915560cc805482167389c701dccc25e48566af89cac1e32706c5b5554617905560cd8054821673e6ffee89beb3bee2785ee88ded4da74f8a082a7817905560d0805490911673de2db97d54a3c3b008a097b2260633e6ca7db1af1790556108aa610e5a565b6108b2610e89565b80156105c4576000805461ff0019169055604051600181527f7f26b83ff96e1f2b6a682f133852f6798a09c465da95921460cefb38474024989060200160405180910390a150565b60cc54604080516306fdde0360e01b815290516001600160a01b0390921691606091829160009185916306fdde039160048082019286929091908290030181865afa15801561094d573d6000803e3d6000fd5b505050506040513d6000823e601f3d908101601f191682016040526109759190810190611412565b925060cc60009054906101000a90046001600160a01b03166001600160a01b03166395d89b416040518163ffffffff1660e01b8152600401600060405180830381865afa1580156109ca573d6000803e3d6000fd5b505050506040513d6000823e601f3d908101601f191682016040526109f29190810190611412565b915060cc60009054906101000a90046001600160a01b03166001600160a01b031663313ce5676040518163ffffffff1660e01b8152600401602060405180830381865afa158015610a47573d6000803e3d6000fd5b505050506040513d601f19601f82011682018060405250810190610a6b9190611480565b905090919293565b60cd54604080516306fdde0360e01b815290516001600160a01b0390921691606091829160009185916306fdde039160048082019286929091908290030181865afa158015610ac6573d6000803e3d6000fd5b505050506040513d6000823e601f3d908101601f19168201604052610aee9190810190611412565b925060cd60009054906101000a90046001600160a01b03166001600160a01b03166395d89b416040518163ffffffff1660e01b8152600401600060405180830381865afa158015610b43573d6000803e3d6000fd5b505050506040513d6000823e601f3d908101601f19168201604052610b6b9190810190611412565b915060cd60009054906101000a90046001600160a01b03166001600160a01b031663313ce5676040518163ffffffff1660e01b8152600401602060405180830381865afa158015610a47573d6000803e3d6000fd5b610bc8610c36565b6001600160a01b038116610c2d5760405162461bcd60e51b815260206004820152602660248201527f4f776e61626c653a206e6577206f776e657220697320746865207a65726f206160448201526564647265737360d01b6064820152608401610527565b6105c481610e08565b6033546001600160a01b0316331461075c5760405162461bcd60e51b815260206004820181905260248201527f4f776e61626c653a2063616c6c6572206973206e6f7420746865206f776e65726044820152606401610527565b6105c4610c36565b7f4910fdfa16fed3260ed0e7147f7cc6da11a60208b5b9406d12a635614ffd91435460ff1615610cd057610ccb83610eb0565b505050565b826001600160a01b03166352d1902d6040518163ffffffff1660e01b8152600401602060405180830381865afa925050508015610d2a575060408051601f3d908101601f19168201909252610d2791810190611480565b60015b610d8d5760405162461bcd60e51b815260206004820152602e60248201527f45524331393637557067726164653a206e657720696d706c656d656e7461746960448201526d6f6e206973206e6f74205555505360901b6064820152608401610527565b6000805160206115148339815191528114610dfc5760405162461bcd60e51b815260206004820152602960248201527f45524331393637557067726164653a20756e737570706f727465642070726f786044820152681a58589b195555525160ba1b6064820152608401610527565b50610ccb838383610f4c565b603380546001600160a01b038381166001600160a01b0319831681179093556040519116919082907f8be0079c531659141344cd1fd0a4f28419497f9722a3daafe3b4186f6b6457e090600090a35050565b600054610100900460ff16610e815760405162461bcd60e51b815260040161052790611499565b61075c610f77565b600054610100900460ff1661075c5760405162461bcd60e51b815260040161052790611499565b6001600160a01b0381163b610f1d5760405162461bcd60e51b815260206004820152602d60248201527f455243313936373a206e657720696d706c656d656e746174696f6e206973206e60448201526c1bdd08184818dbdb9d1c9858dd609a1b6064820152608401610527565b60008051602061151483398151915280546001600160a01b0319166001600160a01b0392909216919091179055565b610f5583610fa7565b600082511180610f625750805b15610ccb57610f718383610fe7565b50505050565b600054610100900460ff16610f9e5760405162461bcd60e51b815260040161052790611499565b61075c33610e08565b610fb081610eb0565b6040516001600160a01b038216907fbc7cd75a20ee27fd9adebab32041f755214dbc6bffa90cc0225b39da2e5c2d3b90600090a250565b60606001600160a01b0383163b61104f5760405162461bcd60e51b815260206004820152602660248201527f416464726573733a2064656c65676174652063616c6c20746f206e6f6e2d636f6044820152651b9d1c9858dd60d21b6064820152608401610527565b600080846001600160a01b03168460405161106a91906114e4565b600060405180830381855af49150503d80600081146110a5576040519150601f19603f3d011682016040523d82523d6000602084013e6110aa565b606091505b50915091506110d28282604051806060016040528060278152602001611534602791396110db565b95945050505050565b606083156110ea5750816110f4565b6110f483836110fb565b9392505050565b81511561110b5781518083602001fd5b8060405162461bcd60e51b81526004016105279190611500565b80356001600160a01b038116811461113c57600080fd5b919050565b600080600080600080600060e0888a03121561115c57600080fd5b61116588611125565b965061117360208901611125565b955061118160408901611125565b945061118f60608901611125565b935061119d60808901611125565b92506111ab60a08901611125565b91506111b960c08901611125565b905092959891949750929550565b6000602082840312156111d957600080fd5b6110f482611125565b634e487b7160e01b600052604160045260246000fd5b604051601f8201601f1916810167ffffffffffffffff81118282101715611221576112216111e2565b604052919050565b600067ffffffffffffffff821115611243576112436111e2565b50601f01601f191660200190565b6000806040838503121561126457600080fd5b61126d83611125565b9150602083013567ffffffffffffffff81111561128957600080fd5b8301601f8101851361129a57600080fd5b80356112ad6112a882611229565b6111f8565b8181528660208385010111156112c257600080fd5b816020840160208301376000602083830101528093505050509250929050565b60005b838110156112fd5781810151838201526020016112e5565b50506000910152565b6000815180845261131e8160208601602086016112e2565b601f01601f19169290920160200192915050565b6001600160a01b038516815260806020820181905260009061135690830186611306565b82810360408401526113688186611306565b91505082606083015295945050505050565b6020808252602c908201527f46756e6374696f6e206d7573742062652063616c6c6564207468726f7567682060408201526b19195b1959d85d1958d85b1b60a21b606082015260800190565b6020808252602c908201527f46756e6374696f6e206d7573742062652063616c6c6564207468726f7567682060408201526b6163746976652070726f787960a01b606082015260800190565b60006020828403121561142457600080fd5b815167ffffffffffffffff81111561143b57600080fd5b8201601f8101841361144c57600080fd5b805161145a6112a882611229565b81815285602083850101111561146f57600080fd5b6110d28260208301602086016112e2565b60006020828403121561149257600080fd5b5051919050565b6020808252602b908201527f496e697469616c697a61626c653a20636f6e7472616374206973206e6f74206960408201526a6e697469616c697a696e6760a81b606082015260800190565b600082516114f68184602087016112e2565b9190910192915050565b6020815260006110f4602083018461130656fe360894a13ba1a3210667c828492db98dca3e2076cc3735a920a3ca505d382bbc416464726573733a206c6f772d6c6576656c2064656c65676174652063616c6c206661696c6564a2646970667358221220d00e2b5030c231e564ae986b3160604afbf81598a20b9577d471e954d659ff3f64736f6c63430008110033","opcodes":"PUSH1 0xA0 PUSH1 0x40 MSTORE ADDRESS PUSH1 0x80 MSTORE CALLVALUE DUP1 ISZERO PUSH2 0x14 JUMPI PUSH1 0x0 DUP1 REVERT JUMPDEST POP PUSH1 0x80 MLOAD PUSH2 0x1590 PUSH2 0x4C PUSH1 0x0 CODECOPY PUSH1 0x0 DUP2 DUP2 PUSH2 0x4E9 ADD MSTORE DUP2 DUP2 PUSH2 0x532 ADD MSTORE DUP2 DUP2 PUSH2 0x5D1 ADD MSTORE DUP2 DUP2 PUSH2 0x611 ADD MSTORE PUSH2 0x6A4 ADD MSTORE PUSH2 0x1590 PUSH1 0x0 RETURN INVALID PUSH1 0x80 PUSH1 0x40 MSTORE PUSH1 0x4 CALLDATASIZE LT PUSH2 0x12A JUMPI PUSH1 0x0 CALLDATALOAD PUSH1 0xE0 SHR DUP1 PUSH4 0x7DAD19DB GT PUSH2 0xAB JUMPI DUP1 PUSH4 0xA50B44BC GT PUSH2 0x6F JUMPI DUP1 PUSH4 0xA50B44BC EQ PUSH2 0x2FF JUMPI DUP1 PUSH4 0xB70CC4C1 EQ PUSH2 0x312 JUMPI DUP1 PUSH4 0xBF2F002E EQ PUSH2 0x330 JUMPI DUP1 PUSH4 0xEC31250F EQ PUSH2 0x345 JUMPI DUP1 PUSH4 0xEE99205C EQ PUSH2 0x363 JUMPI DUP1 PUSH4 0xF2FDE38B EQ PUSH2 0x381 JUMPI PUSH1 0x0 DUP1 REVERT JUMPDEST DUP1 PUSH4 0x7DAD19DB EQ PUSH2 0x26B JUMPI DUP1 PUSH4 0x8129FC1C EQ PUSH2 0x289 JUMPI DUP1 PUSH4 0x8290C4A6 EQ PUSH2 0x29E JUMPI DUP1 PUSH4 0x878E17DF EQ PUSH2 0x2BC JUMPI DUP1 PUSH4 0x8DA5CB5B EQ PUSH2 0x2E1 JUMPI PUSH1 0x0 DUP1 REVERT JUMPDEST DUP1 PUSH4 0x55A373D6 GT PUSH2 0xF2 JUMPI DUP1 PUSH4 0x55A373D6 EQ PUSH2 0x1DE JUMPI DUP1 PUSH4 0x61150923 EQ PUSH2 0x1FC JUMPI DUP1 PUSH4 0x63D9DF85 EQ PUSH2 0x21A JUMPI DUP1 PUSH4 0x6EA69D62 EQ PUSH2 0x238 JUMPI DUP1 PUSH4 0x715018A6 EQ PUSH2 0x256 JUMPI PUSH1 0x0 DUP1 REVERT JUMPDEST DUP1 PUSH4 0x678CC10 EQ PUSH2 0x12F JUMPI DUP1 PUSH4 0x3659CFE6 EQ PUSH2 0x151 JUMPI DUP1 PUSH4 0x45746DD7 EQ PUSH2 0x171 JUMPI DUP1 PUSH4 0x4F1EF286 EQ PUSH2 0x1A8 JUMPI DUP1 PUSH4 0x52D1902D EQ PUSH2 0x1BB JUMPI JUMPDEST PUSH1 0x0 DUP1 REVERT JUMPDEST CALLVALUE DUP1 ISZERO PUSH2 0x13B JUMPI PUSH1 0x0 DUP1 REVERT JUMPDEST POP PUSH2 0x14F PUSH2 0x14A CALLDATASIZE PUSH1 0x4 PUSH2 0x1141 JUMP JUMPDEST PUSH2 0x3A1 JUMP JUMPDEST STOP JUMPDEST CALLVALUE DUP1 ISZERO PUSH2 0x15D JUMPI PUSH1 0x0 DUP1 REVERT JUMPDEST POP PUSH2 0x14F PUSH2 0x16C CALLDATASIZE PUSH1 0x4 PUSH2 0x11C7 JUMP JUMPDEST PUSH2 0x4DF JUMP JUMPDEST CALLVALUE DUP1 ISZERO PUSH2 0x17D JUMPI PUSH1 0x0 DUP1 REVERT JUMPDEST POP PUSH1 0xD2 SLOAD PUSH1 0x1 PUSH1 0x1 PUSH1 0xA0 SHL SUB AND JUMPDEST PUSH1 0x40 MLOAD PUSH1 0x1 PUSH1 0x1 PUSH1 0xA0 SHL SUB SWAP1 SWAP2 AND DUP2 MSTORE PUSH1 0x20 ADD JUMPDEST PUSH1 0x40 MLOAD DUP1 SWAP2 SUB SWAP1 RETURN JUMPDEST PUSH2 0x14F PUSH2 0x1B6 CALLDATASIZE PUSH1 0x4 PUSH2 0x1251 JUMP JUMPDEST PUSH2 0x5C7 JUMP JUMPDEST CALLVALUE DUP1 ISZERO PUSH2 0x1C7 JUMPI PUSH1 0x0 DUP1 REVERT JUMPDEST POP PUSH2 0x1D0 PUSH2 0x697 JUMP JUMPDEST PUSH1 0x40 MLOAD SWAP1 DUP2 MSTORE PUSH1 0x20 ADD PUSH2 0x19F JUMP JUMPDEST CALLVALUE DUP1 ISZERO PUSH2 0x1EA JUMPI PUSH1 0x0 DUP1 REVERT JUMPDEST POP PUSH1 0xCC SLOAD PUSH1 0x1 PUSH1 0x1 PUSH1 0xA0 SHL SUB AND PUSH2 0x18B JUMP JUMPDEST CALLVALUE DUP1 ISZERO PUSH2 0x208 JUMPI PUSH1 0x0 DUP1 REVERT JUMPDEST POP PUSH1 0xCE SLOAD PUSH1 0x1 PUSH1 0x1 PUSH1 0xA0 SHL SUB AND PUSH2 0x18B JUMP JUMPDEST CALLVALUE DUP1 ISZERO PUSH2 0x226 JUMPI PUSH1 0x0 DUP1 REVERT JUMPDEST POP PUSH1 0xC9 SLOAD PUSH1 0x1 PUSH1 0x1 PUSH1 0xA0 SHL SUB AND PUSH2 0x18B JUMP JUMPDEST CALLVALUE DUP1 ISZERO PUSH2 0x244 JUMPI PUSH1 0x0 DUP1 REVERT JUMPDEST POP PUSH1 0xCF SLOAD PUSH1 0x1 PUSH1 0x1 PUSH1 0xA0 SHL SUB AND PUSH2 0x18B JUMP JUMPDEST CALLVALUE DUP1 ISZERO PUSH2 0x262 JUMPI PUSH1 0x0 DUP1 REVERT JUMPDEST POP PUSH2 0x14F PUSH2 0x74A JUMP JUMPDEST CALLVALUE DUP1 ISZERO PUSH2 0x277 JUMPI PUSH1 0x0 DUP1 REVERT JUMPDEST POP PUSH1 0xCA SLOAD PUSH1 0x1 PUSH1 0x1 PUSH1 0xA0 SHL SUB AND PUSH2 0x18B JUMP JUMPDEST CALLVALUE DUP1 ISZERO PUSH2 0x295 JUMPI PUSH1 0x0 DUP1 REVERT JUMPDEST POP PUSH2 0x14F PUSH2 0x75E JUMP JUMPDEST CALLVALUE DUP1 ISZERO PUSH2 0x2AA JUMPI PUSH1 0x0 DUP1 REVERT JUMPDEST POP PUSH1 0xD0 SLOAD PUSH1 0x1 PUSH1 0x1 PUSH1 0xA0 SHL SUB AND PUSH2 0x18B JUMP JUMPDEST CALLVALUE DUP1 ISZERO PUSH2 0x2C8 JUMPI PUSH1 0x0 DUP1 REVERT JUMPDEST POP PUSH2 0x2D1 PUSH2 0x8FA JUMP JUMPDEST PUSH1 0x40 MLOAD PUSH2 0x19F SWAP5 SWAP4 SWAP3 SWAP2 SWAP1 PUSH2 0x1332 JUMP JUMPDEST CALLVALUE DUP1 ISZERO PUSH2 0x2ED JUMPI PUSH1 0x0 DUP1 REVERT JUMPDEST POP PUSH1 0x33 SLOAD PUSH1 0x1 PUSH1 0x1 PUSH1 0xA0 SHL SUB AND PUSH2 0x18B JUMP JUMPDEST CALLVALUE DUP1 ISZERO PUSH2 0x30B JUMPI PUSH1 0x0 DUP1 REVERT JUMPDEST POP ADDRESS PUSH2 0x18B JUMP JUMPDEST CALLVALUE DUP1 ISZERO PUSH2 0x31E JUMPI PUSH1 0x0 DUP1 REVERT JUMPDEST POP PUSH1 0xCD SLOAD PUSH1 0x1 PUSH1 0x1 PUSH1 0xA0 SHL SUB AND PUSH2 0x18B JUMP JUMPDEST CALLVALUE DUP1 ISZERO PUSH2 0x33C JUMPI PUSH1 0x0 DUP1 REVERT JUMPDEST POP PUSH2 0x2D1 PUSH2 0xA73 JUMP JUMPDEST CALLVALUE DUP1 ISZERO PUSH2 0x351 JUMPI PUSH1 0x0 DUP1 REVERT JUMPDEST POP PUSH1 0xD1 SLOAD PUSH1 0x1 PUSH1 0x1 PUSH1 0xA0 SHL SUB AND PUSH2 0x18B JUMP JUMPDEST CALLVALUE DUP1 ISZERO PUSH2 0x36F JUMPI PUSH1 0x0 DUP1 REVERT JUMPDEST POP PUSH1 0xCB SLOAD PUSH1 0x1 PUSH1 0x1 PUSH1 0xA0 SHL SUB AND PUSH2 0x18B JUMP JUMPDEST CALLVALUE DUP1 ISZERO PUSH2 0x38D JUMPI PUSH1 0x0 DUP1 REVERT JUMPDEST POP PUSH2 0x14F PUSH2 0x39C CALLDATASIZE PUSH1 0x4 PUSH2 0x11C7 JUMP JUMPDEST PUSH2 0xBC0 JUMP JUMPDEST PUSH2 0x3A9 PUSH2 0xC36 JUMP JUMPDEST PUSH1 0x1 PUSH1 0x1 PUSH1 0xA0 SHL SUB DUP8 AND ISZERO PUSH2 0x3D4 JUMPI PUSH1 0xC9 DUP1 SLOAD PUSH1 0x1 PUSH1 0x1 PUSH1 0xA0 SHL SUB NOT AND PUSH1 0x1 PUSH1 0x1 PUSH1 0xA0 SHL SUB DUP10 AND OR SWAP1 SSTORE JUMPDEST PUSH1 0x1 PUSH1 0x1 PUSH1 0xA0 SHL SUB DUP7 AND ISZERO PUSH2 0x3FF JUMPI PUSH1 0xCA DUP1 SLOAD PUSH1 0x1 PUSH1 0x1 PUSH1 0xA0 SHL SUB NOT AND PUSH1 0x1 PUSH1 0x1 PUSH1 0xA0 SHL SUB DUP9 AND OR SWAP1 SSTORE JUMPDEST PUSH1 0x1 PUSH1 0x1 PUSH1 0xA0 SHL SUB DUP6 AND ISZERO PUSH2 0x42A JUMPI PUSH1 0xCB DUP1 SLOAD PUSH1 0x1 PUSH1 0x1 PUSH1 0xA0 SHL SUB NOT AND PUSH1 0x1 PUSH1 0x1 PUSH1 0xA0 SHL SUB DUP8 AND OR SWAP1 SSTORE JUMPDEST PUSH1 0x1 PUSH1 0x1 PUSH1 0xA0 SHL SUB DUP5 AND ISZERO PUSH2 0x455 JUMPI PUSH1 0xCC DUP1 SLOAD PUSH1 0x1 PUSH1 0x1 PUSH1 0xA0 SHL SUB NOT AND PUSH1 0x1 PUSH1 0x1 PUSH1 0xA0 SHL SUB DUP7 AND OR SWAP1 SSTORE JUMPDEST PUSH1 0x1 PUSH1 0x1 PUSH1 0xA0 SHL SUB DUP4 AND ISZERO PUSH2 0x480 JUMPI PUSH1 0xCD DUP1 SLOAD PUSH1 0x1 PUSH1 0x1 PUSH1 0xA0 SHL SUB NOT AND PUSH1 0x1 PUSH1 0x1 PUSH1 0xA0 SHL SUB DUP6 AND OR SWAP1 SSTORE JUMPDEST PUSH1 0x1 PUSH1 0x1 PUSH1 0xA0 SHL SUB DUP3 AND ISZERO PUSH2 0x4AB JUMPI PUSH1 0xCE DUP1 SLOAD PUSH1 0x1 PUSH1 0x1 PUSH1 0xA0 SHL SUB NOT AND PUSH1 0x1 PUSH1 0x1 PUSH1 0xA0 SHL SUB DUP5 AND OR SWAP1 SSTORE JUMPDEST PUSH1 0x1 PUSH1 0x1 PUSH1 0xA0 SHL SUB DUP2 AND ISZERO PUSH2 0x4D6 JUMPI PUSH1 0xCF DUP1 SLOAD PUSH1 0x1 PUSH1 0x1 PUSH1 0xA0 SHL SUB NOT AND PUSH1 0x1 PUSH1 0x1 PUSH1 0xA0 SHL SUB DUP4 AND OR SWAP1 SSTORE JUMPDEST POP POP POP POP POP POP POP JUMP JUMPDEST PUSH1 0x1 PUSH1 0x1 PUSH1 0xA0 SHL SUB PUSH32 0x0 AND ADDRESS SUB PUSH2 0x530 JUMPI PUSH1 0x40 MLOAD PUSH3 0x461BCD PUSH1 0xE5 SHL DUP2 MSTORE PUSH1 0x4 ADD PUSH2 0x527 SWAP1 PUSH2 0x137A JUMP JUMPDEST PUSH1 0x40 MLOAD DUP1 SWAP2 SUB SWAP1 REVERT JUMPDEST PUSH32 0x0 PUSH1 0x1 PUSH1 0x1 PUSH1 0xA0 SHL SUB AND PUSH2 0x579 PUSH1 0x0 DUP1 MLOAD PUSH1 0x20 PUSH2 0x1514 DUP4 CODECOPY DUP2 MLOAD SWAP2 MSTORE SLOAD PUSH1 0x1 PUSH1 0x1 PUSH1 0xA0 SHL SUB AND SWAP1 JUMP JUMPDEST PUSH1 0x1 PUSH1 0x1 PUSH1 0xA0 SHL SUB AND EQ PUSH2 0x59F JUMPI PUSH1 0x40 MLOAD PUSH3 0x461BCD PUSH1 0xE5 SHL DUP2 MSTORE PUSH1 0x4 ADD PUSH2 0x527 SWAP1 PUSH2 0x13C6 JUMP JUMPDEST PUSH2 0x5A8 DUP2 PUSH2 0xC90 JUMP JUMPDEST PUSH1 0x40 DUP1 MLOAD PUSH1 0x0 DUP1 DUP3 MSTORE PUSH1 0x20 DUP3 ADD SWAP1 SWAP3 MSTORE PUSH2 0x5C4 SWAP2 DUP4 SWAP2 SWAP1 PUSH2 0xC98 JUMP JUMPDEST POP JUMP JUMPDEST PUSH1 0x1 PUSH1 0x1 PUSH1 0xA0 SHL SUB PUSH32 0x0 AND ADDRESS SUB PUSH2 0x60F JUMPI PUSH1 0x40 MLOAD PUSH3 0x461BCD PUSH1 0xE5 SHL DUP2 MSTORE PUSH1 0x4 ADD PUSH2 0x527 SWAP1 PUSH2 0x137A JUMP JUMPDEST PUSH32 0x0 PUSH1 0x1 PUSH1 0x1 PUSH1 0xA0 SHL SUB AND PUSH2 0x658 PUSH1 0x0 DUP1 MLOAD PUSH1 0x20 PUSH2 0x1514 DUP4 CODECOPY DUP2 MLOAD SWAP2 MSTORE SLOAD PUSH1 0x1 PUSH1 0x1 PUSH1 0xA0 SHL SUB AND SWAP1 JUMP JUMPDEST PUSH1 0x1 PUSH1 0x1 PUSH1 0xA0 SHL SUB AND EQ PUSH2 0x67E JUMPI PUSH1 0x40 MLOAD PUSH3 0x461BCD PUSH1 0xE5 SHL DUP2 MSTORE PUSH1 0x4 ADD PUSH2 0x527 SWAP1 PUSH2 0x13C6 JUMP JUMPDEST PUSH2 0x687 DUP3 PUSH2 0xC90 JUMP JUMPDEST PUSH2 0x693 DUP3 DUP3 PUSH1 0x1 PUSH2 0xC98 JUMP JUMPDEST POP POP JUMP JUMPDEST PUSH1 0x0 ADDRESS PUSH1 0x1 PUSH1 0x1 PUSH1 0xA0 SHL SUB PUSH32 0x0 AND EQ PUSH2 0x737 JUMPI PUSH1 0x40 MLOAD PUSH3 0x461BCD PUSH1 0xE5 SHL DUP2 MSTORE PUSH1 0x20 PUSH1 0x4 DUP3 ADD MSTORE PUSH1 0x38 PUSH1 0x24 DUP3 ADD MSTORE PUSH32 0x555550535570677261646561626C653A206D757374206E6F742062652063616C PUSH1 0x44 DUP3 ADD MSTORE PUSH32 0x6C6564207468726F7567682064656C656761746563616C6C0000000000000000 PUSH1 0x64 DUP3 ADD MSTORE PUSH1 0x84 ADD PUSH2 0x527 JUMP JUMPDEST POP PUSH1 0x0 DUP1 MLOAD PUSH1 0x20 PUSH2 0x1514 DUP4 CODECOPY DUP2 MLOAD SWAP2 MSTORE SWAP1 JUMP JUMPDEST PUSH2 0x752 PUSH2 0xC36 JUMP JUMPDEST PUSH2 0x75C PUSH1 0x0 PUSH2 0xE08 JUMP JUMPDEST JUMP JUMPDEST PUSH1 0x0 SLOAD PUSH2 0x100 SWAP1 DIV PUSH1 0xFF AND ISZERO DUP1 DUP1 ISZERO PUSH2 0x77E JUMPI POP PUSH1 0x0 SLOAD PUSH1 0x1 PUSH1 0xFF SWAP1 SWAP2 AND LT JUMPDEST DUP1 PUSH2 0x798 JUMPI POP ADDRESS EXTCODESIZE ISZERO DUP1 ISZERO PUSH2 0x798 JUMPI POP PUSH1 0x0 SLOAD PUSH1 0xFF AND PUSH1 0x1 EQ JUMPDEST PUSH2 0x7FB JUMPI PUSH1 0x40 MLOAD PUSH3 0x461BCD PUSH1 0xE5 SHL DUP2 MSTORE PUSH1 0x20 PUSH1 0x4 DUP3 ADD MSTORE PUSH1 0x2E PUSH1 0x24 DUP3 ADD MSTORE PUSH32 0x496E697469616C697A61626C653A20636F6E747261637420697320616C726561 PUSH1 0x44 DUP3 ADD MSTORE PUSH14 0x191E481A5B9A5D1A585B1A5E9959 PUSH1 0x92 SHL PUSH1 0x64 DUP3 ADD MSTORE PUSH1 0x84 ADD PUSH2 0x527 JUMP JUMPDEST PUSH1 0x0 DUP1 SLOAD PUSH1 0xFF NOT AND PUSH1 0x1 OR SWAP1 SSTORE DUP1 ISZERO PUSH2 0x81E JUMPI PUSH1 0x0 DUP1 SLOAD PUSH2 0xFF00 NOT AND PUSH2 0x100 OR SWAP1 SSTORE JUMPDEST PUSH1 0xC9 DUP1 SLOAD PUSH1 0x1 PUSH1 0x1 PUSH1 0xA0 SHL SUB NOT SWAP1 DUP2 AND PUSH20 0xC750B915EF0112B204F0F7E6812BE292B9936A2 OR SWAP1 SWAP2 SSTORE PUSH1 0xCC DUP1 SLOAD DUP3 AND PUSH20 0x89C701DCCC25E48566AF89CAC1E32706C5B55546 OR SWAP1 SSTORE PUSH1 0xCD DUP1 SLOAD DUP3 AND PUSH20 0xE6FFEE89BEB3BEE2785EE88DED4DA74F8A082A78 OR SWAP1 SSTORE PUSH1 0xD0 DUP1 SLOAD SWAP1 SWAP2 AND PUSH20 0xDE2DB97D54A3C3B008A097B2260633E6CA7DB1AF OR SWAP1 SSTORE PUSH2 0x8AA PUSH2 0xE5A JUMP JUMPDEST PUSH2 0x8B2 PUSH2 0xE89 JUMP JUMPDEST DUP1 ISZERO PUSH2 0x5C4 JUMPI PUSH1 0x0 DUP1 SLOAD PUSH2 0xFF00 NOT AND SWAP1 SSTORE PUSH1 0x40 MLOAD PUSH1 0x1 DUP2 MSTORE PUSH32 0x7F26B83FF96E1F2B6A682F133852F6798A09C465DA95921460CEFB3847402498 SWAP1 PUSH1 0x20 ADD PUSH1 0x40 MLOAD DUP1 SWAP2 SUB SWAP1 LOG1 POP JUMP JUMPDEST PUSH1 0xCC SLOAD PUSH1 0x40 DUP1 MLOAD PUSH4 0x6FDDE03 PUSH1 0xE0 SHL DUP2 MSTORE SWAP1 MLOAD PUSH1 0x1 PUSH1 0x1 PUSH1 0xA0 SHL SUB SWAP1 SWAP3 AND SWAP2 PUSH1 0x60 SWAP2 DUP3 SWAP2 PUSH1 0x0 SWAP2 DUP6 SWAP2 PUSH4 0x6FDDE03 SWAP2 PUSH1 0x4 DUP1 DUP3 ADD SWAP3 DUP7 SWAP3 SWAP1 SWAP2 SWAP1 DUP3 SWAP1 SUB ADD DUP2 DUP7 GAS STATICCALL ISZERO DUP1 ISZERO PUSH2 0x94D JUMPI RETURNDATASIZE PUSH1 0x0 DUP1 RETURNDATACOPY RETURNDATASIZE PUSH1 0x0 REVERT JUMPDEST POP POP POP POP PUSH1 0x40 MLOAD RETURNDATASIZE PUSH1 0x0 DUP3 RETURNDATACOPY PUSH1 0x1F RETURNDATASIZE SWAP1 DUP2 ADD PUSH1 0x1F NOT AND DUP3 ADD PUSH1 0x40 MSTORE PUSH2 0x975 SWAP2 SWAP1 DUP2 ADD SWAP1 PUSH2 0x1412 JUMP JUMPDEST SWAP3 POP PUSH1 0xCC PUSH1 0x0 SWAP1 SLOAD SWAP1 PUSH2 0x100 EXP SWAP1 DIV PUSH1 0x1 PUSH1 0x1 PUSH1 0xA0 SHL SUB AND PUSH1 0x1 PUSH1 0x1 PUSH1 0xA0 SHL SUB AND PUSH4 0x95D89B41 PUSH1 0x40 MLOAD DUP2 PUSH4 0xFFFFFFFF AND PUSH1 0xE0 SHL DUP2 MSTORE PUSH1 0x4 ADD PUSH1 0x0 PUSH1 0x40 MLOAD DUP1 DUP4 SUB DUP2 DUP7 GAS STATICCALL ISZERO DUP1 ISZERO PUSH2 0x9CA JUMPI RETURNDATASIZE PUSH1 0x0 DUP1 RETURNDATACOPY RETURNDATASIZE PUSH1 0x0 REVERT JUMPDEST POP POP POP POP PUSH1 0x40 MLOAD RETURNDATASIZE PUSH1 0x0 DUP3 RETURNDATACOPY PUSH1 0x1F RETURNDATASIZE SWAP1 DUP2 ADD PUSH1 0x1F NOT AND DUP3 ADD PUSH1 0x40 MSTORE PUSH2 0x9F2 SWAP2 SWAP1 DUP2 ADD SWAP1 PUSH2 0x1412 JUMP JUMPDEST SWAP2 POP PUSH1 0xCC PUSH1 0x0 SWAP1 SLOAD SWAP1 PUSH2 0x100 EXP SWAP1 DIV PUSH1 0x1 PUSH1 0x1 PUSH1 0xA0 SHL SUB AND PUSH1 0x1 PUSH1 0x1 PUSH1 0xA0 SHL SUB AND PUSH4 0x313CE567 PUSH1 0x40 MLOAD DUP2 PUSH4 0xFFFFFFFF AND PUSH1 0xE0 SHL DUP2 MSTORE PUSH1 0x4 ADD PUSH1 0x20 PUSH1 0x40 MLOAD DUP1 DUP4 SUB DUP2 DUP7 GAS STATICCALL ISZERO DUP1 ISZERO PUSH2 0xA47 JUMPI RETURNDATASIZE PUSH1 0x0 DUP1 RETURNDATACOPY RETURNDATASIZE PUSH1 0x0 REVERT JUMPDEST POP POP POP POP PUSH1 0x40 MLOAD RETURNDATASIZE PUSH1 0x1F NOT PUSH1 0x1F DUP3 ADD AND DUP3 ADD DUP1 PUSH1 0x40 MSTORE POP DUP2 ADD SWAP1 PUSH2 0xA6B SWAP2 SWAP1 PUSH2 0x1480 JUMP JUMPDEST SWAP1 POP SWAP1 SWAP2 SWAP3 SWAP4 JUMP JUMPDEST PUSH1 0xCD SLOAD PUSH1 0x40 DUP1 MLOAD PUSH4 0x6FDDE03 PUSH1 0xE0 SHL DUP2 MSTORE SWAP1 MLOAD PUSH1 0x1 PUSH1 0x1 PUSH1 0xA0 SHL SUB SWAP1 SWAP3 AND SWAP2 PUSH1 0x60 SWAP2 DUP3 SWAP2 PUSH1 0x0 SWAP2 DUP6 SWAP2 PUSH4 0x6FDDE03 SWAP2 PUSH1 0x4 DUP1 DUP3 ADD SWAP3 DUP7 SWAP3 SWAP1 SWAP2 SWAP1 DUP3 SWAP1 SUB ADD DUP2 DUP7 GAS STATICCALL ISZERO DUP1 ISZERO PUSH2 0xAC6 JUMPI RETURNDATASIZE PUSH1 0x0 DUP1 RETURNDATACOPY RETURNDATASIZE PUSH1 0x0 REVERT JUMPDEST POP POP POP POP PUSH1 0x40 MLOAD RETURNDATASIZE PUSH1 0x0 DUP3 RETURNDATACOPY PUSH1 0x1F RETURNDATASIZE SWAP1 DUP2 ADD PUSH1 0x1F NOT AND DUP3 ADD PUSH1 0x40 MSTORE PUSH2 0xAEE SWAP2 SWAP1 DUP2 ADD SWAP1 PUSH2 0x1412 JUMP JUMPDEST SWAP3 POP PUSH1 0xCD PUSH1 0x0 SWAP1 SLOAD SWAP1 PUSH2 0x100 EXP SWAP1 DIV PUSH1 0x1 PUSH1 0x1 PUSH1 0xA0 SHL SUB AND PUSH1 0x1 PUSH1 0x1 PUSH1 0xA0 SHL SUB AND PUSH4 0x95D89B41 PUSH1 0x40 MLOAD DUP2 PUSH4 0xFFFFFFFF AND PUSH1 0xE0 SHL DUP2 MSTORE PUSH1 0x4 ADD PUSH1 0x0 PUSH1 0x40 MLOAD DUP1 DUP4 SUB DUP2 DUP7 GAS STATICCALL ISZERO DUP1 ISZERO PUSH2 0xB43 JUMPI RETURNDATASIZE PUSH1 0x0 DUP1 RETURNDATACOPY RETURNDATASIZE PUSH1 0x0 REVERT JUMPDEST POP POP POP POP PUSH1 0x40 MLOAD RETURNDATASIZE PUSH1 0x0 DUP3 RETURNDATACOPY PUSH1 0x1F RETURNDATASIZE SWAP1 DUP2 ADD PUSH1 0x1F NOT AND DUP3 ADD PUSH1 0x40 MSTORE PUSH2 0xB6B SWAP2 SWAP1 DUP2 ADD SWAP1 PUSH2 0x1412 JUMP JUMPDEST SWAP2 POP PUSH1 0xCD PUSH1 0x0 SWAP1 SLOAD SWAP1 PUSH2 0x100 EXP SWAP1 DIV PUSH1 0x1 PUSH1 0x1 PUSH1 0xA0 SHL SUB AND PUSH1 0x1 PUSH1 0x1 PUSH1 0xA0 SHL SUB AND PUSH4 0x313CE567 PUSH1 0x40 MLOAD DUP2 PUSH4 0xFFFFFFFF AND PUSH1 0xE0 SHL DUP2 MSTORE PUSH1 0x4 ADD PUSH1 0x20 PUSH1 0x40 MLOAD DUP1 DUP4 SUB DUP2 DUP7 GAS STATICCALL ISZERO DUP1 ISZERO PUSH2 0xA47 JUMPI RETURNDATASIZE PUSH1 0x0 DUP1 RETURNDATACOPY RETURNDATASIZE PUSH1 0x0 REVERT JUMPDEST PUSH2 0xBC8 PUSH2 0xC36 JUMP JUMPDEST PUSH1 0x1 PUSH1 0x1 PUSH1 0xA0 SHL SUB DUP2 AND PUSH2 0xC2D JUMPI PUSH1 0x40 MLOAD PUSH3 0x461BCD PUSH1 0xE5 SHL DUP2 MSTORE PUSH1 0x20 PUSH1 0x4 DUP3 ADD MSTORE PUSH1 0x26 PUSH1 0x24 DUP3 ADD MSTORE PUSH32 0x4F776E61626C653A206E6577206F776E657220697320746865207A65726F2061 PUSH1 0x44 DUP3 ADD MSTORE PUSH6 0x646472657373 PUSH1 0xD0 SHL PUSH1 0x64 DUP3 ADD MSTORE PUSH1 0x84 ADD PUSH2 0x527 JUMP JUMPDEST PUSH2 0x5C4 DUP2 PUSH2 0xE08 JUMP JUMPDEST PUSH1 0x33 SLOAD PUSH1 0x1 PUSH1 0x1 PUSH1 0xA0 SHL SUB AND CALLER EQ PUSH2 0x75C JUMPI PUSH1 0x40 MLOAD PUSH3 0x461BCD PUSH1 0xE5 SHL DUP2 MSTORE PUSH1 0x20 PUSH1 0x4 DUP3 ADD DUP2 SWAP1 MSTORE PUSH1 0x24 DUP3 ADD MSTORE PUSH32 0x4F776E61626C653A2063616C6C6572206973206E6F7420746865206F776E6572 PUSH1 0x44 DUP3 ADD MSTORE PUSH1 0x64 ADD PUSH2 0x527 JUMP JUMPDEST PUSH2 0x5C4 PUSH2 0xC36 JUMP JUMPDEST PUSH32 0x4910FDFA16FED3260ED0E7147F7CC6DA11A60208B5B9406D12A635614FFD9143 SLOAD PUSH1 0xFF AND ISZERO PUSH2 0xCD0 JUMPI PUSH2 0xCCB DUP4 PUSH2 0xEB0 JUMP JUMPDEST POP POP POP JUMP JUMPDEST DUP3 PUSH1 0x1 PUSH1 0x1 PUSH1 0xA0 SHL SUB AND PUSH4 0x52D1902D PUSH1 0x40 MLOAD DUP2 PUSH4 0xFFFFFFFF AND PUSH1 0xE0 SHL DUP2 MSTORE PUSH1 0x4 ADD PUSH1 0x20 PUSH1 0x40 MLOAD DUP1 DUP4 SUB DUP2 DUP7 GAS STATICCALL SWAP3 POP POP POP DUP1 ISZERO PUSH2 0xD2A JUMPI POP PUSH1 0x40 DUP1 MLOAD PUSH1 0x1F RETURNDATASIZE SWAP1 DUP2 ADD PUSH1 0x1F NOT AND DUP3 ADD SWAP1 SWAP3 MSTORE PUSH2 0xD27 SWAP2 DUP2 ADD SWAP1 PUSH2 0x1480 JUMP JUMPDEST PUSH1 0x1 JUMPDEST PUSH2 0xD8D JUMPI PUSH1 0x40 MLOAD PUSH3 0x461BCD PUSH1 0xE5 SHL DUP2 MSTORE PUSH1 0x20 PUSH1 0x4 DUP3 ADD MSTORE PUSH1 0x2E PUSH1 0x24 DUP3 ADD MSTORE PUSH32 0x45524331393637557067726164653A206E657720696D706C656D656E74617469 PUSH1 0x44 DUP3 ADD MSTORE PUSH14 0x6F6E206973206E6F742055555053 PUSH1 0x90 SHL PUSH1 0x64 DUP3 ADD MSTORE PUSH1 0x84 ADD PUSH2 0x527 JUMP JUMPDEST PUSH1 0x0 DUP1 MLOAD PUSH1 0x20 PUSH2 0x1514 DUP4 CODECOPY DUP2 MLOAD SWAP2 MSTORE DUP2 EQ PUSH2 0xDFC JUMPI PUSH1 0x40 MLOAD PUSH3 0x461BCD PUSH1 0xE5 SHL DUP2 MSTORE PUSH1 0x20 PUSH1 0x4 DUP3 ADD MSTORE PUSH1 0x29 PUSH1 0x24 DUP3 ADD MSTORE PUSH32 0x45524331393637557067726164653A20756E737570706F727465642070726F78 PUSH1 0x44 DUP3 ADD MSTORE PUSH9 0x1A58589B1955555251 PUSH1 0xBA SHL PUSH1 0x64 DUP3 ADD MSTORE PUSH1 0x84 ADD PUSH2 0x527 JUMP JUMPDEST POP PUSH2 0xCCB DUP4 DUP4 DUP4 PUSH2 0xF4C JUMP JUMPDEST PUSH1 0x33 DUP1 SLOAD PUSH1 0x1 PUSH1 0x1 PUSH1 0xA0 SHL SUB DUP4 DUP2 AND PUSH1 0x1 PUSH1 0x1 PUSH1 0xA0 SHL SUB NOT DUP4 AND DUP2 OR SWAP1 SWAP4 SSTORE PUSH1 0x40 MLOAD SWAP2 AND SWAP2 SWAP1 DUP3 SWAP1 PUSH32 0x8BE0079C531659141344CD1FD0A4F28419497F9722A3DAAFE3B4186F6B6457E0 SWAP1 PUSH1 0x0 SWAP1 LOG3 POP POP JUMP JUMPDEST PUSH1 0x0 SLOAD PUSH2 0x100 SWAP1 DIV PUSH1 0xFF AND PUSH2 0xE81 JUMPI PUSH1 0x40 MLOAD PUSH3 0x461BCD PUSH1 0xE5 SHL DUP2 MSTORE PUSH1 0x4 ADD PUSH2 0x527 SWAP1 PUSH2 0x1499 JUMP JUMPDEST PUSH2 0x75C PUSH2 0xF77 JUMP JUMPDEST PUSH1 0x0 SLOAD PUSH2 0x100 SWAP1 DIV PUSH1 0xFF AND PUSH2 0x75C JUMPI PUSH1 0x40 MLOAD PUSH3 0x461BCD PUSH1 0xE5 SHL DUP2 MSTORE PUSH1 0x4 ADD PUSH2 0x527 SWAP1 PUSH2 0x1499 JUMP JUMPDEST PUSH1 0x1 PUSH1 0x1 PUSH1 0xA0 SHL SUB DUP2 AND EXTCODESIZE PUSH2 0xF1D JUMPI PUSH1 0x40 MLOAD PUSH3 0x461BCD PUSH1 0xE5 SHL DUP2 MSTORE PUSH1 0x20 PUSH1 0x4 DUP3 ADD MSTORE PUSH1 0x2D PUSH1 0x24 DUP3 ADD MSTORE PUSH32 0x455243313936373A206E657720696D706C656D656E746174696F6E206973206E PUSH1 0x44 DUP3 ADD MSTORE PUSH13 0x1BDD08184818DBDB9D1C9858DD PUSH1 0x9A SHL PUSH1 0x64 DUP3 ADD MSTORE PUSH1 0x84 ADD PUSH2 0x527 JUMP JUMPDEST PUSH1 0x0 DUP1 MLOAD PUSH1 0x20 PUSH2 0x1514 DUP4 CODECOPY DUP2 MLOAD SWAP2 MSTORE DUP1 SLOAD PUSH1 0x1 PUSH1 0x1 PUSH1 0xA0 SHL SUB NOT AND PUSH1 0x1 PUSH1 0x1 PUSH1 0xA0 SHL SUB SWAP3 SWAP1 SWAP3 AND SWAP2 SWAP1 SWAP2 OR SWAP1 SSTORE JUMP JUMPDEST PUSH2 0xF55 DUP4 PUSH2 0xFA7 JUMP JUMPDEST PUSH1 0x0 DUP3 MLOAD GT DUP1 PUSH2 0xF62 JUMPI POP DUP1 JUMPDEST ISZERO PUSH2 0xCCB JUMPI PUSH2 0xF71 DUP4 DUP4 PUSH2 0xFE7 JUMP JUMPDEST POP POP POP POP JUMP JUMPDEST PUSH1 0x0 SLOAD PUSH2 0x100 SWAP1 DIV PUSH1 0xFF AND PUSH2 0xF9E JUMPI PUSH1 0x40 MLOAD PUSH3 0x461BCD PUSH1 0xE5 SHL DUP2 MSTORE PUSH1 0x4 ADD PUSH2 0x527 SWAP1 PUSH2 0x1499 JUMP JUMPDEST PUSH2 0x75C CALLER PUSH2 0xE08 JUMP JUMPDEST PUSH2 0xFB0 DUP2 PUSH2 0xEB0 JUMP JUMPDEST PUSH1 0x40 MLOAD PUSH1 0x1 PUSH1 0x1 PUSH1 0xA0 SHL SUB DUP3 AND SWAP1 PUSH32 0xBC7CD75A20EE27FD9ADEBAB32041F755214DBC6BFFA90CC0225B39DA2E5C2D3B SWAP1 PUSH1 0x0 SWAP1 LOG2 POP JUMP JUMPDEST PUSH1 0x60 PUSH1 0x1 PUSH1 0x1 PUSH1 0xA0 SHL SUB DUP4 AND EXTCODESIZE PUSH2 0x104F JUMPI PUSH1 0x40 MLOAD PUSH3 0x461BCD PUSH1 0xE5 SHL DUP2 MSTORE PUSH1 0x20 PUSH1 0x4 DUP3 ADD MSTORE PUSH1 0x26 PUSH1 0x24 DUP3 ADD MSTORE PUSH32 0x416464726573733A2064656C65676174652063616C6C20746F206E6F6E2D636F PUSH1 0x44 DUP3 ADD MSTORE PUSH6 0x1B9D1C9858DD PUSH1 0xD2 SHL PUSH1 0x64 DUP3 ADD MSTORE PUSH1 0x84 ADD PUSH2 0x527 JUMP JUMPDEST PUSH1 0x0 DUP1 DUP5 PUSH1 0x1 PUSH1 0x1 PUSH1 0xA0 SHL SUB AND DUP5 PUSH1 0x40 MLOAD PUSH2 0x106A SWAP2 SWAP1 PUSH2 0x14E4 JUMP JUMPDEST PUSH1 0x0 PUSH1 0x40 MLOAD DUP1 DUP4 SUB DUP2 DUP6 GAS DELEGATECALL SWAP2 POP POP RETURNDATASIZE DUP1 PUSH1 0x0 DUP2 EQ PUSH2 0x10A5 JUMPI PUSH1 0x40 MLOAD SWAP2 POP PUSH1 0x1F NOT PUSH1 0x3F RETURNDATASIZE ADD AND DUP3 ADD PUSH1 0x40 MSTORE RETURNDATASIZE DUP3 MSTORE RETURNDATASIZE PUSH1 0x0 PUSH1 0x20 DUP5 ADD RETURNDATACOPY PUSH2 0x10AA JUMP JUMPDEST PUSH1 0x60 SWAP2 POP JUMPDEST POP SWAP2 POP SWAP2 POP PUSH2 0x10D2 DUP3 DUP3 PUSH1 0x40 MLOAD DUP1 PUSH1 0x60 ADD PUSH1 0x40 MSTORE DUP1 PUSH1 0x27 DUP2 MSTORE PUSH1 0x20 ADD PUSH2 0x1534 PUSH1 0x27 SWAP2 CODECOPY PUSH2 0x10DB JUMP JUMPDEST SWAP6 SWAP5 POP POP POP POP POP JUMP JUMPDEST PUSH1 0x60 DUP4 ISZERO PUSH2 0x10EA JUMPI POP DUP2 PUSH2 0x10F4 JUMP JUMPDEST PUSH2 0x10F4 DUP4 DUP4 PUSH2 0x10FB JUMP JUMPDEST SWAP4 SWAP3 POP POP POP JUMP JUMPDEST DUP2 MLOAD ISZERO PUSH2 0x110B JUMPI DUP2 MLOAD DUP1 DUP4 PUSH1 0x20 ADD REVERT JUMPDEST DUP1 PUSH1 0x40 MLOAD PUSH3 0x461BCD PUSH1 0xE5 SHL DUP2 MSTORE PUSH1 0x4 ADD PUSH2 0x527 SWAP2 SWAP1 PUSH2 0x1500 JUMP JUMPDEST DUP1 CALLDATALOAD PUSH1 0x1 PUSH1 0x1 PUSH1 0xA0 SHL SUB DUP2 AND DUP2 EQ PUSH2 0x113C JUMPI PUSH1 0x0 DUP1 REVERT JUMPDEST SWAP2 SWAP1 POP JUMP JUMPDEST PUSH1 0x0 DUP1 PUSH1 0x0 DUP1 PUSH1 0x0 DUP1 PUSH1 0x0 PUSH1 0xE0 DUP9 DUP11 SUB SLT ISZERO PUSH2 0x115C JUMPI PUSH1 0x0 DUP1 REVERT JUMPDEST PUSH2 0x1165 DUP9 PUSH2 0x1125 JUMP JUMPDEST SWAP7 POP PUSH2 0x1173 PUSH1 0x20 DUP10 ADD PUSH2 0x1125 JUMP JUMPDEST SWAP6 POP PUSH2 0x1181 PUSH1 0x40 DUP10 ADD PUSH2 0x1125 JUMP JUMPDEST SWAP5 POP PUSH2 0x118F PUSH1 0x60 DUP10 ADD PUSH2 0x1125 JUMP JUMPDEST SWAP4 POP PUSH2 0x119D PUSH1 0x80 DUP10 ADD PUSH2 0x1125 JUMP JUMPDEST SWAP3 POP PUSH2 0x11AB PUSH1 0xA0 DUP10 ADD PUSH2 0x1125 JUMP JUMPDEST SWAP2 POP PUSH2 0x11B9 PUSH1 0xC0 DUP10 ADD PUSH2 0x1125 JUMP JUMPDEST SWAP1 POP SWAP3 SWAP6 SWAP9 SWAP2 SWAP5 SWAP8 POP SWAP3 SWAP6 POP JUMP JUMPDEST PUSH1 0x0 PUSH1 0x20 DUP3 DUP5 SUB SLT ISZERO PUSH2 0x11D9 JUMPI PUSH1 0x0 DUP1 REVERT JUMPDEST PUSH2 0x10F4 DUP3 PUSH2 0x1125 JUMP JUMPDEST PUSH4 0x4E487B71 PUSH1 0xE0 SHL PUSH1 0x0 MSTORE PUSH1 0x41 PUSH1 0x4 MSTORE PUSH1 0x24 PUSH1 0x0 REVERT JUMPDEST PUSH1 0x40 MLOAD PUSH1 0x1F DUP3 ADD PUSH1 0x1F NOT AND DUP2 ADD PUSH8 0xFFFFFFFFFFFFFFFF DUP2 GT DUP3 DUP3 LT OR ISZERO PUSH2 0x1221 JUMPI PUSH2 0x1221 PUSH2 0x11E2 JUMP JUMPDEST PUSH1 0x40 MSTORE SWAP2 SWAP1 POP JUMP JUMPDEST PUSH1 0x0 PUSH8 0xFFFFFFFFFFFFFFFF DUP3 GT ISZERO PUSH2 0x1243 JUMPI PUSH2 0x1243 PUSH2 0x11E2 JUMP JUMPDEST POP PUSH1 0x1F ADD PUSH1 0x1F NOT AND PUSH1 0x20 ADD SWAP1 JUMP JUMPDEST PUSH1 0x0 DUP1 PUSH1 0x40 DUP4 DUP6 SUB SLT ISZERO PUSH2 0x1264 JUMPI PUSH1 0x0 DUP1 REVERT JUMPDEST PUSH2 0x126D DUP4 PUSH2 0x1125 JUMP JUMPDEST SWAP2 POP PUSH1 0x20 DUP4 ADD CALLDATALOAD PUSH8 0xFFFFFFFFFFFFFFFF DUP2 GT ISZERO PUSH2 0x1289 JUMPI PUSH1 0x0 DUP1 REVERT JUMPDEST DUP4 ADD PUSH1 0x1F DUP2 ADD DUP6 SGT PUSH2 0x129A JUMPI PUSH1 0x0 DUP1 REVERT JUMPDEST DUP1 CALLDATALOAD PUSH2 0x12AD PUSH2 0x12A8 DUP3 PUSH2 0x1229 JUMP JUMPDEST PUSH2 0x11F8 JUMP JUMPDEST DUP2 DUP2 MSTORE DUP7 PUSH1 0x20 DUP4 DUP6 ADD ADD GT ISZERO PUSH2 0x12C2 JUMPI PUSH1 0x0 DUP1 REVERT JUMPDEST DUP2 PUSH1 0x20 DUP5 ADD PUSH1 0x20 DUP4 ADD CALLDATACOPY PUSH1 0x0 PUSH1 0x20 DUP4 DUP4 ADD ADD MSTORE DUP1 SWAP4 POP POP POP POP SWAP3 POP SWAP3 SWAP1 POP JUMP JUMPDEST PUSH1 0x0 JUMPDEST DUP4 DUP2 LT ISZERO PUSH2 0x12FD JUMPI DUP2 DUP2 ADD MLOAD DUP4 DUP3 ADD MSTORE PUSH1 0x20 ADD PUSH2 0x12E5 JUMP JUMPDEST POP POP PUSH1 0x0 SWAP2 ADD MSTORE JUMP JUMPDEST PUSH1 0x0 DUP2 MLOAD DUP1 DUP5 MSTORE PUSH2 0x131E DUP2 PUSH1 0x20 DUP7 ADD PUSH1 0x20 DUP7 ADD PUSH2 0x12E2 JUMP JUMPDEST PUSH1 0x1F ADD PUSH1 0x1F NOT AND SWAP3 SWAP1 SWAP3 ADD PUSH1 0x20 ADD SWAP3 SWAP2 POP POP JUMP JUMPDEST PUSH1 0x1 PUSH1 0x1 PUSH1 0xA0 SHL SUB DUP6 AND DUP2 MSTORE PUSH1 0x80 PUSH1 0x20 DUP3 ADD DUP2 SWAP1 MSTORE PUSH1 0x0 SWAP1 PUSH2 0x1356 SWAP1 DUP4 ADD DUP7 PUSH2 0x1306 JUMP JUMPDEST DUP3 DUP2 SUB PUSH1 0x40 DUP5 ADD MSTORE PUSH2 0x1368 DUP2 DUP7 PUSH2 0x1306 JUMP JUMPDEST SWAP2 POP POP DUP3 PUSH1 0x60 DUP4 ADD MSTORE SWAP6 SWAP5 POP POP POP POP POP JUMP JUMPDEST PUSH1 0x20 DUP1 DUP3 MSTORE PUSH1 0x2C SWAP1 DUP3 ADD MSTORE PUSH32 0x46756E6374696F6E206D7573742062652063616C6C6564207468726F75676820 PUSH1 0x40 DUP3 ADD MSTORE PUSH12 0x19195B1959D85D1958D85B1B PUSH1 0xA2 SHL PUSH1 0x60 DUP3 ADD MSTORE PUSH1 0x80 ADD SWAP1 JUMP JUMPDEST PUSH1 0x20 DUP1 DUP3 MSTORE PUSH1 0x2C SWAP1 DUP3 ADD MSTORE PUSH32 0x46756E6374696F6E206D7573742062652063616C6C6564207468726F75676820 PUSH1 0x40 DUP3 ADD MSTORE PUSH12 0x6163746976652070726F7879 PUSH1 0xA0 SHL PUSH1 0x60 DUP3 ADD MSTORE PUSH1 0x80 ADD SWAP1 JUMP JUMPDEST PUSH1 0x0 PUSH1 0x20 DUP3 DUP5 SUB SLT ISZERO PUSH2 0x1424 JUMPI PUSH1 0x0 DUP1 REVERT JUMPDEST DUP2 MLOAD PUSH8 0xFFFFFFFFFFFFFFFF DUP2 GT ISZERO PUSH2 0x143B JUMPI PUSH1 0x0 DUP1 REVERT JUMPDEST DUP3 ADD PUSH1 0x1F DUP2 ADD DUP5 SGT PUSH2 0x144C JUMPI PUSH1 0x0 DUP1 REVERT JUMPDEST DUP1 MLOAD PUSH2 0x145A PUSH2 0x12A8 DUP3 PUSH2 0x1229 JUMP JUMPDEST DUP2 DUP2 MSTORE DUP6 PUSH1 0x20 DUP4 DUP6 ADD ADD GT ISZERO PUSH2 0x146F JUMPI PUSH1 0x0 DUP1 REVERT JUMPDEST PUSH2 0x10D2 DUP3 PUSH1 0x20 DUP4 ADD PUSH1 0x20 DUP7 ADD PUSH2 0x12E2 JUMP JUMPDEST PUSH1 0x0 PUSH1 0x20 DUP3 DUP5 SUB SLT ISZERO PUSH2 0x1492 JUMPI PUSH1 0x0 DUP1 REVERT JUMPDEST POP MLOAD SWAP2 SWAP1 POP JUMP JUMPDEST PUSH1 0x20 DUP1 DUP3 MSTORE PUSH1 0x2B SWAP1 DUP3 ADD MSTORE PUSH32 0x496E697469616C697A61626C653A20636F6E7472616374206973206E6F742069 PUSH1 0x40 DUP3 ADD MSTORE PUSH11 0x6E697469616C697A696E67 PUSH1 0xA8 SHL PUSH1 0x60 DUP3 ADD MSTORE PUSH1 0x80 ADD SWAP1 JUMP JUMPDEST PUSH1 0x0 DUP3 MLOAD PUSH2 0x14F6 DUP2 DUP5 PUSH1 0x20 DUP8 ADD PUSH2 0x12E2 JUMP JUMPDEST SWAP2 SWAP1 SWAP2 ADD SWAP3 SWAP2 POP POP JUMP JUMPDEST PUSH1 0x20 DUP2 MSTORE PUSH1 0x0 PUSH2 0x10F4 PUSH1 0x20 DUP4 ADD DUP5 PUSH2 0x1306 JUMP INVALID CALLDATASIZE ADDMOD SWAP5 LOG1 EXTCODESIZE LOG1 LOG3 0x21 MOD PUSH8 0xC828492DB98DCA3E KECCAK256 PUSH23 0xCC3735A920A3CA505D382BBC416464726573733A206C6F PUSH24 0x2D6C6576656C2064656C65676174652063616C6C20666169 PUSH13 0x6564A2646970667358221220D0 0xE 0x2B POP ADDRESS 0xC2 BALANCE 0xE5 PUSH5 0xAE986B3160 PUSH1 0x4A 0xFB 0xF8 ISZERO SWAP9 LOG2 SIGNEXTEND SWAP6 PUSH24 0xD471E954D659FF3F64736F6C634300081100330000000000 "},"methodIdentifiers":{"anusdContract()":"b70cc4c1","anusdContractInfo()":"bf2f002e","initialize()":"8129fc1c","owner()":"8da5cb5b","presaleContract()":"63d9df85","proxiableUUID()":"52d1902d","referralContract()":"7dad19db","renounceOwnership()":"715018a6","rewardContract()":"6ea69d62","rewardContractOwner()":"45746dd7","setContractAddress(address,address,address,address,address,address,address)":"0678cc10","stakingContract()":"ee99205c","tokenContract()":"55a373d6","tokenContractInfo()":"878e17df","tokenContractOwner()":"ec31250f","transferOwnership(address)":"f2fde38b","uniswapV2RouterContract()":"8290c4a6","upgradeTo(address)":"3659cfe6","upgradeToAndCall(address,bytes)":"4f1ef286","usdtContract()":"61150923","variableContract()":"a50b44bc"}},"storageLayout":{"storage":[{"astId":631,"contract":"contracts/VariablesUpgradeable.sol:VariablesUpgradeable","label":"_initialized","offset":0,"slot":"0","type":"t_uint8"},{"astId":634,"contract":"contracts/VariablesUpgradeable.sol:VariablesUpgradeable","label":"_initializing","offset":1,"slot":"0","type":"t_bool"},{"astId":2397,"contract":"contracts/VariablesUpgradeable.sol:VariablesUpgradeable","label":"__gap","offset":0,"slot":"1","type":"t_array(t_uint256)50_storage"},{"astId":56,"contract":"contracts/VariablesUpgradeable.sol:VariablesUpgradeable","label":"_owner","offset":0,"slot":"51","type":"t_address"},{"astId":176,"contract":"contracts/VariablesUpgradeable.sol:VariablesUpgradeable","label":"__gap","offset":0,"slot":"52","type":"t_array(t_uint256)49_storage"},{"astId":613,"contract":"contracts/VariablesUpgradeable.sol:VariablesUpgradeable","label":"__gap","offset":0,"slot":"101","type":"t_array(t_uint256)50_storage"},{"astId":928,"contract":"contracts/VariablesUpgradeable.sol:VariablesUpgradeable","label":"__gap","offset":0,"slot":"151","type":"t_array(t_uint256)50_storage"},{"astId":6246,"contract":"contracts/VariablesUpgradeable.sol:VariablesUpgradeable","label":"_presaleContract","offset":0,"slot":"201","type":"t_address"},{"astId":6248,"contract":"contracts/VariablesUpgradeable.sol:VariablesUpgradeable","label":"_referralContract","offset":0,"slot":"202","type":"t_address"},{"astId":6250,"contract":"contracts/VariablesUpgradeable.sol:VariablesUpgradeable","label":"_stakingContract","offset":0,"slot":"203","type":"t_address"},{"astId":6252,"contract":"contracts/VariablesUpgradeable.sol:VariablesUpgradeable","label":"_tokenContract","offset":0,"slot":"204","type":"t_address"},{"astId":6254,"contract":"contracts/VariablesUpgradeable.sol:VariablesUpgradeable","label":"_anusdContract","offset":0,"slot":"205","type":"t_address"},{"astId":6256,"contract":"contracts/VariablesUpgradeable.sol:VariablesUpgradeable","label":"_usdtContract","offset":0,"slot":"206","type":"t_address"},{"astId":6258,"contract":"contracts/VariablesUpgradeable.sol:VariablesUpgradeable","label":"_rewardContract","offset":0,"slot":"207","type":"t_address"},{"astId":6260,"contract":"contracts/VariablesUpgradeable.sol:VariablesUpgradeable","label":"_uniswapV2Router","offset":0,"slot":"208","type":"t_address"},{"astId":6262,"contract":"contracts/VariablesUpgradeable.sol:VariablesUpgradeable","label":"_tokenContractOwner","offset":0,"slot":"209","type":"t_address"},{"astId":6264,"contract":"contracts/VariablesUpgradeable.sol:VariablesUpgradeable","label":"_rewardContractOwner","offset":0,"slot":"210","type":"t_address"}],"types":{"t_address":{"encoding":"inplace","label":"address","numberOfBytes":"20"},"t_array(t_uint256)49_storage":{"base":"t_uint256","encoding":"inplace","label":"uint256[49]","numberOfBytes":"1568"},"t_array(t_uint256)50_storage":{"base":"t_uint256","encoding":"inplace","label":"uint256[50]","numberOfBytes":"1600"},"t_bool":{"encoding":"inplace","label":"bool","numberOfBytes":"1"},"t_uint256":{"encoding":"inplace","label":"uint256","numberOfBytes":"32"},"t_uint8":{"encoding":"inplace","label":"uint8","numberOfBytes":"1"}}}}}}