{"contracts/ReferralUpgradeable.sol":{"ReferralUpgradeable":{"abi":[{"anonymous":false,"inputs":[{"indexed":false,"internalType":"address","name":"previousAdmin","type":"address"},{"indexed":false,"internalType":"address","name":"newAdmin","type":"address"}],"name":"AdminChanged","type":"event"},{"anonymous":false,"inputs":[{"indexed":true,"internalType":"address","name":"beacon","type":"address"}],"name":"BeaconUpgraded","type":"event"},{"anonymous":false,"inputs":[{"indexed":true,"internalType":"address","name":"userAddressaddress","type":"address"}],"name":"CoreMemberAdded","type":"event"},{"anonymous":false,"inputs":[{"indexed":false,"internalType":"address","name":"userAddress","type":"address"}],"name":"CoreMemberRemoved","type":"event"},{"anonymous":false,"inputs":[{"indexed":true,"internalType":"uint256","name":"value","type":"uint256"},{"indexed":true,"internalType":"address","name":"userAddress","type":"address"}],"name":"CoreMemberRewardPaid","type":"event"},{"anonymous":false,"inputs":[{"indexed":false,"internalType":"address","name":"userAddress","type":"address"}],"name":"GlobalAddressAdded","type":"event"},{"anonymous":false,"inputs":[{"indexed":false,"internalType":"address","name":"userAddress","type":"address"}],"name":"GlobalAddressRemoved","type":"event"},{"anonymous":false,"inputs":[{"indexed":false,"internalType":"uint256","name":"value","type":"uint256"},{"indexed":false,"internalType":"address","name":"userAddress","type":"address"}],"name":"GlobalRewardPaid","type":"event"},{"anonymous":false,"inputs":[{"indexed":false,"internalType":"uint8","name":"version","type":"uint8"}],"name":"Initialized","type":"event"},{"anonymous":false,"inputs":[{"indexed":true,"internalType":"address","name":"previousOwner","type":"address"},{"indexed":true,"internalType":"address","name":"newOwner","type":"address"}],"name":"OwnershipTransferred","type":"event"},{"anonymous":false,"inputs":[{"indexed":true,"internalType":"uint256","name":"value","type":"uint256"},{"indexed":true,"internalType":"address","name":"userAddress","type":"address"}],"name":"PassiveRewardPaid","type":"event"},{"anonymous":false,"inputs":[{"indexed":false,"internalType":"address","name":"account","type":"address"}],"name":"Paused","type":"event"},{"anonymous":false,"inputs":[{"indexed":true,"internalType":"address","name":"referee","type":"address"},{"indexed":true,"internalType":"address","name":"referrer","type":"address"},{"indexed":true,"internalType":"uint256","name":"amount","type":"uint256"},{"indexed":false,"internalType":"uint256","name":"level","type":"uint256"},{"indexed":false,"internalType":"string","name":"currency","type":"string"}],"name":"ReferralRewardPaid","type":"event"},{"anonymous":false,"inputs":[{"indexed":true,"internalType":"address","name":"referee","type":"address"},{"indexed":true,"internalType":"address","name":"referrer","type":"address"},{"indexed":true,"internalType":"string","name":"reason","type":"string"}],"name":"RegisterRefererFailed","type":"event"},{"anonymous":false,"inputs":[{"indexed":true,"internalType":"address","name":"referrer","type":"address"},{"indexed":true,"internalType":"address","name":"referee","type":"address"}],"name":"RegisteredReferer","type":"event"},{"anonymous":false,"inputs":[{"indexed":true,"internalType":"address","name":"parent","type":"address"},{"indexed":true,"internalType":"address","name":"referrer","type":"address"},{"indexed":true,"internalType":"address","name":"referee","type":"address"}],"name":"RegisteredTeamAddress","type":"event"},{"anonymous":false,"inputs":[{"indexed":false,"internalType":"address","name":"account","type":"address"}],"name":"Unpaused","type":"event"},{"anonymous":false,"inputs":[{"indexed":true,"internalType":"address","name":"implementation","type":"address"}],"name":"Upgraded","type":"event"},{"inputs":[{"internalType":"address","name":"_userAddress","type":"address"},{"internalType":"uint256","name":"_valueToCompare","type":"uint256"}],"name":"_userDirectBusinessIsAbove","outputs":[{"internalType":"bool","name":"","type":"bool"}],"stateMutability":"view","type":"function"},{"inputs":[{"internalType":"address","name":"_userAddress","type":"address"},{"internalType":"address","name":"_referrerAddress","type":"address"}],"name":"addReferrerAdmin","outputs":[],"stateMutability":"nonpayable","type":"function"},{"inputs":[],"name":"contractDefaults","outputs":[{"internalType":"uint256","name":"levelDecimals","type":"uint256"},{"internalType":"uint256[]","name":"levelRates","type":"uint256[]"},{"internalType":"uint256","name":"totalLevelRate","type":"uint256"},{"internalType":"address","name":"defaultReferrer","type":"address"}],"stateMutability":"view","type":"function"},{"inputs":[{"internalType":"address","name":"_address","type":"address"}],"name":"getUserAccount","outputs":[{"components":[{"internalType":"address","name":"referrer","type":"address"},{"internalType":"address[]","name":"referee","type":"address[]"},{"internalType":"address[]","name":"team","type":"address[]"},{"internalType":"uint256","name":"totalBusinessANUSD","type":"uint256"},{"internalType":"uint256[]","name":"rewardsPaidANUSD","type":"uint256[]"},{"internalType":"bool","name":"isInGlobalID","type":"bool"},{"internalType":"uint256[]","name":"rewardsPaidGlobal","type":"uint256[]"},{"internalType":"uint256[]","name":"blockNumbers","type":"uint256[]"}],"internalType":"struct ReferralUpgradeable.Account","name":"userAccount","type":"tuple"}],"stateMutability":"view","type":"function"},{"inputs":[{"internalType":"address","name":"_address","type":"address"}],"name":"getUserReferrerAddress","outputs":[{"internalType":"address","name":"referrer","type":"address"}],"stateMutability":"view","type":"function"},{"inputs":[{"internalType":"address","name":"_address","type":"address"}],"name":"getUserRewardPaid","outputs":[{"internalType":"uint256[]","name":"rewardANUSD","type":"uint256[]"},{"internalType":"uint256[]","name":"globalRewards","type":"uint256[]"}],"stateMutability":"view","type":"function"},{"inputs":[{"internalType":"address","name":"_address","type":"address"}],"name":"getUserTeam","outputs":[{"internalType":"address[]","name":"userReferee","type":"address[]"},{"internalType":"uint256","name":"userRefereeCount","type":"uint256"},{"internalType":"address[]","name":"userTeamAddress","type":"address[]"},{"internalType":"uint256","name":"userTeamCount","type":"uint256"}],"stateMutability":"view","type":"function"},{"inputs":[{"internalType":"address","name":"_address","type":"address"}],"name":"getUserTotalBusiness","outputs":[{"internalType":"uint256","name":"","type":"uint256"}],"stateMutability":"view","type":"function"},{"inputs":[{"internalType":"address","name":"_address","type":"address"}],"name":"getUserTotalRewardPaid","outputs":[{"internalType":"uint256","name":"rewardsAUSD","type":"uint256"},{"internalType":"uint256","name":"rewardsGlobal","type":"uint256"}],"stateMutability":"view","type":"function"},{"inputs":[{"internalType":"address","name":"_address","type":"address"}],"name":"hasReferrer","outputs":[{"internalType":"bool","name":"","type":"bool"}],"stateMutability":"view","type":"function"},{"inputs":[],"name":"initialize","outputs":[],"stateMutability":"nonpayable","type":"function"},{"inputs":[],"name":"owner","outputs":[{"internalType":"address","name":"","type":"address"}],"stateMutability":"view","type":"function"},{"inputs":[],"name":"pause","outputs":[],"stateMutability":"nonpayable","type":"function"},{"inputs":[],"name":"paused","outputs":[{"internalType":"bool","name":"","type":"bool"}],"stateMutability":"view","type":"function"},{"inputs":[{"internalType":"uint256","name":"_value","type":"uint256"},{"internalType":"address","name":"_userAddress","type":"address"},{"internalType":"address","name":"_referrerAddress","type":"address"}],"name":"payReferralANUSDAdmin","outputs":[],"stateMutability":"nonpayable","type":"function"},{"inputs":[],"name":"proxiableUUID","outputs":[{"internalType":"bytes32","name":"","type":"bytes32"}],"stateMutability":"view","type":"function"},{"inputs":[],"name":"renounceOwnership","outputs":[],"stateMutability":"nonpayable","type":"function"},{"inputs":[{"internalType":"address payable","name":"_address","type":"address"}],"name":"setDefaultReferrer","outputs":[],"stateMutability":"nonpayable","type":"function"},{"inputs":[{"internalType":"uint256","name":"_value","type":"uint256"}],"name":"setLevelDecimals","outputs":[{"internalType":"bool","name":"","type":"bool"}],"stateMutability":"nonpayable","type":"function"},{"inputs":[{"internalType":"uint256[]","name":"_valueInArray","type":"uint256[]"}],"name":"setLevelRates","outputs":[],"stateMutability":"nonpayable","type":"function"},{"inputs":[{"internalType":"address","name":"_address","type":"address"},{"internalType":"uint256","name":"_value","type":"uint256"}],"name":"transferNative","outputs":[],"stateMutability":"nonpayable","type":"function"},{"inputs":[{"internalType":"address","name":"newOwner","type":"address"}],"name":"transferOwnership","outputs":[],"stateMutability":"nonpayable","type":"function"},{"inputs":[],"name":"unpause","outputs":[],"stateMutability":"nonpayable","type":"function"},{"inputs":[{"internalType":"address","name":"newImplementation","type":"address"}],"name":"upgradeTo","outputs":[],"stateMutability":"nonpayable","type":"function"},{"inputs":[{"internalType":"address","name":"newImplementation","type":"address"},{"internalType":"bytes","name":"data","type":"bytes"}],"name":"upgradeToAndCall","outputs":[],"stateMutability":"payable","type":"function"},{"inputs":[{"internalType":"address","name":"_address","type":"address"}],"name":"userTransactionsBlocks","outputs":[{"internalType":"uint256[]","name":"","type":"uint256[]"}],"stateMutability":"view","type":"function"},{"inputs":[],"name":"withdrawNative","outputs":[],"stateMutability":"nonpayable","type":"function"},{"inputs":[{"internalType":"address","name":"_tokenAddress","type":"address"},{"internalType":"uint256","name":"_value","type":"uint256"}],"name":"withdrawtokens","outputs":[],"stateMutability":"nonpayable","type":"function"},{"stateMutability":"payable","type":"receive"}],"evm":{"bytecode":{"linkReferences":{},"object":"60a06040523060805234801561001457600080fd5b5060805161334f61004c600039600081816108f201528181610932015281816109e301528181610a230152610aea015261334f6000f3fe6080604052600436106101bb5760003560e01c8063715018a6116100ec578063cfbdb8591161008a578063f2fde38b11610064578063f2fde38b1461050f578063faeda7e51461052f578063fb47e0161461055f578063fb5d45261461058c57600080fd5b8063cfbdb8591461049a578063dcf6e819146104ba578063ef519dc0146104da57600080fd5b80638129fc1c116100c65780638129fc1c146104325780638456cb59146104475780638da5cb5b1461045c578063a07397561461047a57600080fd5b8063715018a6146103d05780637393402e146103e55780637d2e90c21461041257600080fd5b80633f4ba83a1161015957806350431ce41161013357806350431ce41461036057806352d1902d146103755780635c975abb1461038a578063706aa31d146103a257600080fd5b80633f4ba83a146102e657806343b4ebf4146102fb5780634f1ef2861461034d57600080fd5b80632405091c116101955780632405091c1461023e578063277bb90014610286578063345b5b85146102a65780633659cfe6146102c657600080fd5b806318452cd8146101c75780631ee30543146101fc578063228159b41461021c57600080fd5b366101c257005b600080fd5b3480156101d357600080fd5b506101e76101e2366004612bfb565b6105b1565b60405190151581526020015b60405180910390f35b34801561020857600080fd5b506101e7610217366004612c18565b6105d8565b34801561022857600080fd5b5061023c610237366004612c44565b6106da565b005b34801561024a57600080fd5b50610278610259366004612bfb565b6001600160a01b03166000908152610109602052604090206003015490565b6040519081526020016101f3565b34801561029257600080fd5b5061023c6102a1366004612c18565b610856565b3480156102b257600080fd5b5061023c6102c1366004612c86565b6108d4565b3480156102d257600080fd5b5061023c6102e1366004612bfb565b6108e8565b3480156102f257600080fd5b5061023c6109c7565b34801561030757600080fd5b50610335610316366004612bfb565b6001600160a01b03908116600090815261010960205260409020541690565b6040516001600160a01b0390911681526020016101f3565b61023c61035b366004612d11565b6109d9565b34801561036c57600080fd5b5061023c610aa9565b34801561038157600080fd5b50610278610add565b34801561039657600080fd5b5060335460ff166101e7565b3480156103ae57600080fd5b506103c26103bd366004612bfb565b610b90565b6040516101f3929190612e10565b3480156103dc57600080fd5b5061023c610c5c565b3480156103f157600080fd5b50610405610400366004612bfb565b610c6e565b6040516101f39190612e35565b34801561041e57600080fd5b5061023c61042d366004612c18565b610ce1565b34801561043e57600080fd5b5061023c610d1f565b34801561045357600080fd5b5061023c610f05565b34801561046857600080fd5b506065546001600160a01b0316610335565b34801561048657600080fd5b5061023c610495366004612e48565b610f15565b3480156104a657600080fd5b506101e76104b5366004612e81565b610fea565b3480156104c657600080fd5b5061023c6104d5366004612bfb565b610ffd565b3480156104e657600080fd5b506104fa6104f5366004612bfb565b611028565b604080519283526020830191909152016101f3565b34801561051b57600080fd5b5061023c61052a366004612bfb565b6110ec565b34801561053b57600080fd5b5061054f61054a366004612bfb565b611162565b6040516101f39493929190612ed3565b34801561056b57600080fd5b5061057f61057a366004612bfb565b61124f565b6040516101f39190612f10565b34801561059857600080fd5b506105a16114b7565b6040516101f39493929190612fdc565b6001600160a01b038082166000908152610109602052604081205490911615155b92915050565b6001600160a01b0382166000908152610109602090815260408083206001018054825181850281018501909352808352849383018282801561064357602002820191906000526020600020905b81546001600160a01b03168152600190910190602001808311610625575b505050505090506000815190506000805b828110156106be57610109600085838151811061067357610673613016565b60200260200101516001600160a01b03166001600160a01b0316815260200190815260200160002060030154826106aa9190613042565b9150806106b681613055565b915050610654565b508481116106cd5760006106d0565b60015b9695505050505050565b336106ed6065546001600160a01b031690565b6001600160a01b0316816001600160a01b03161480610793575060fb60009054906101000a90046001600160a01b03166001600160a01b03166363d9df856040518163ffffffff1660e01b8152600401602060405180830381865afa15801561075a573d6000803e3d6000fd5b505050506040513d601f19601f8201168201806040525081019061077e919061306e565b6001600160a01b0316816001600160a01b0316145b6107b85760405162461bcd60e51b81526004016107af9061308b565b60405180910390fd5b6001600160a01b0383811660009081526101096020526040902054161580156107e957506001600160a01b03821615155b156107f8576107f8838361157e565b6001600160a01b03828116600090815261010960205260409020541615801561082957506001600160a01b03821615155b1561084657610100546108469083906001600160a01b031661157e565b610850848461174a565b50505050565b61085e6124e2565b60405163a9059cbb60e01b8152336004820152602481018290526001600160a01b0383169063a9059cbb906044016020604051808303816000875af11580156108ab573d6000803e3d6000fd5b505050506040513d601f19601f820116820180604052508101906108cf91906130cd565b505050565b6108dc6124e2565b6108cf60fc8383612b46565b6001600160a01b037f00000000000000000000000000000000000000000000000000000000000000001630036109305760405162461bcd60e51b81526004016107af906130ef565b7f00000000000000000000000000000000000000000000000000000000000000006001600160a01b03166109796000805160206132d3833981519152546001600160a01b031690565b6001600160a01b03161461099f5760405162461bcd60e51b81526004016107af9061313b565b6109a88161253c565b604080516000808252602082019092526109c491839190612544565b50565b6109cf6124e2565b6109d76126af565b565b6001600160a01b037f0000000000000000000000000000000000000000000000000000000000000000163003610a215760405162461bcd60e51b81526004016107af906130ef565b7f00000000000000000000000000000000000000000000000000000000000000006001600160a01b0316610a6a6000805160206132d3833981519152546001600160a01b031690565b6001600160a01b031614610a905760405162461bcd60e51b81526004016107af9061313b565b610a998261253c565b610aa582826001612544565b5050565b610ab16124e2565b60405133904780156108fc02916000818181858888f193505050501580156109c4573d6000803e3d6000fd5b6000306001600160a01b037f00000000000000000000000000000000000000000000000000000000000000001614610b7d5760405162461bcd60e51b815260206004820152603860248201527f555550535570677261646561626c653a206d757374206e6f742062652063616c60448201527f6c6564207468726f7567682064656c656761746563616c6c000000000000000060648201526084016107af565b506000805160206132d383398151915290565b6001600160a01b03811660009081526101096020908152604091829020600481018054845181850281018501909552808552606094859490929190830182828015610bfa57602002820191906000526020600020905b815481526020019060010190808311610be6575b5050505050925080600601805480602002602001604051908101604052809291908181526020018280548015610c4f57602002820191906000526020600020905b815481526020019060010190808311610c3b575b5050505050915050915091565b610c646124e2565b6109d76000612701565b6001600160a01b038116600090815261010960209081526040918290206007810180548451818502810185019095528085526060949293830182828015610cd457602002820191906000526020600020905b815481526020019060010190808311610cc0575b5050505050915050919050565b610ce96124e2565b6040516001600160a01b0383169082156108fc029083906000818181858888f193505050501580156108cf573d6000803e3d6000fd5b600054610100900460ff1615808015610d3f5750600054600160ff909116105b80610d595750303b158015610d59575060005460ff166001145b610dbc5760405162461bcd60e51b815260206004820152602e60248201527f496e697469616c697a61626c653a20636f6e747261637420697320616c72656160448201526d191e481a5b9a5d1a585b1a5e995960921b60648201526084016107af565b6000805460ff191660011790558015610ddf576000805461ff0019166101001790555b60fb80546001600160a01b031990811673be5153baa3756402b08fd830e7b5f00a76e6823117909155610100805490911673b35963e0ab2141cd4ab743e7a35d8772f3cf04471790556040805160e0810182526007808252600460208301526003928201929092526002606082015260016080820181905260a0820181905260c0820152610e709160fc9190612b91565b50606460fd5560146101065569011478b7c30abc3000006101035560046101015560056101045568a80d24677efef0000061010555610ead612753565b610eb5612782565b610ebd6127b1565b80156109c4576000805461ff0019169055604051600181527f7f26b83ff96e1f2b6a682f133852f6798a09c465da95921460cefb38474024989060200160405180910390a150565b610f0d6124e2565b6109d76127d8565b60fb546001600160a01b0316610f336065546001600160a01b031690565b6001600160a01b0316336001600160a01b03161480610fc45750806001600160a01b03166363d9df856040518163ffffffff1660e01b8152600401602060405180830381865afa158015610f8b573d6000803e3d6000fd5b505050506040513d601f19601f82011682018060405250810190610faf919061306e565b6001600160a01b0316336001600160a01b0316145b610fe05760405162461bcd60e51b81526004016107af9061308b565b6108cf838361157e565b6000610ff46124e2565b5060fd55600190565b6110056124e2565b61010080546001600160a01b0319166001600160a01b0392909216919091179055565b6001600160a01b0381166000908152610109602052604081206004810154600682015483929190835b828110156110985783600401818154811061106e5761106e613016565b9060005260206000200154866110849190613042565b95508061109081613055565b915050611051565b5060005b818110156110e3578360060181815481106110b9576110b9613016565b9060005260206000200154856110cf9190613042565b9450806110db81613055565b91505061109c565b50505050915091565b6110f46124e2565b6001600160a01b0381166111595760405162461bcd60e51b815260206004820152602660248201527f4f776e61626c653a206e6577206f776e657220697320746865207a65726f206160448201526564647265737360d01b60648201526084016107af565b6109c481612701565b6001600160a01b038116600090815261010960209081526040808320600181018054835181860281018601909452808452606095948694869493909290918301828280156111d957602002820191906000526020600020905b81546001600160a01b031681526001909101906020018083116111bb575b50505050509450845193508060020180548060200260200160405190810160405280929190818152602001828054801561123c57602002820191906000526020600020905b81546001600160a01b0316815260019091019060200180831161121e575b5050505050925082519150509193509193565b6112a260405180610100016040528060006001600160a01b031681526020016060815260200160608152602001600081526020016060815260200160001515815260200160608152602001606081525090565b6001600160a01b03808316600090815261010960209081526040918290208251610100810184528154909416845260018101805484518185028101850190955280855291938584019390929083018282801561132757602002820191906000526020600020905b81546001600160a01b03168152600190910190602001808311611309575b505050505081526020016002820180548060200260200160405190810160405280929190818152602001828054801561138957602002820191906000526020600020905b81546001600160a01b0316815260019091019060200180831161136b575b5050505050815260200160038201548152602001600482018054806020026020016040519081016040528092919081815260200182805480156113eb57602002820191906000526020600020905b8154815260200190600101908083116113d7575b5050509183525050600582015460ff161515602080830191909152600683018054604080518285028101850182528281529401939283018282801561144f57602002820191906000526020600020905b81548152602001906001019080831161143b575b50505050508152602001600782018054806020026020016040519081016040528092919081815260200182805480156114a757602002820191906000526020600020905b815481526020019060010190808311611493575b5050505050815250509050919050565b60fd5460fc805460408051602080840282018101909252828152606093600093849383018282801561150857602002820191906000526020600020905b8154815260200190600101908083116114f4575b505060fc549396506000925050505b818160ff1610156115625760fc8160ff168154811061153857611538613016565b90600052602060002001548461154e9190613042565b93508061155a81613187565b915050611517565b5050610100549394929391926001600160a01b03909216919050565b6001600160a01b03828116600090815261010960205260409020541615611611576040517f4164647265737320616c726561647920686176652072656665727265722e00008152601e016040518091039020816001600160a01b0316836001600160a01b03167f3a1a86984713a4f9021513989fe0334430012901d62639108f2a816c111a732f60405160405180910390a45b6001600160a01b0380831660008181526101096020908152604080832094861680845281842086546001600160a01b031990811683178855600180830180549182018155875294862090940180549094168617909355905191939290917ffaf63637882ff2d63ca76881cf92fb857130e36f350c926f9cc884b499b42b779190a360005b60fc548110156117435781546001600160a01b0316600081815261010960205260409020906116c45750611743565b6002810180546001810182556000918252602082200180546001600160a01b0319166001600160a01b038981169182179092558354604051949650869491938984169391909116917fb766b19465b3277b0b275adf79d715cac93166bf6e6a39f26e4ccfdec76ad47e9190a4508061173b81613055565b915050611695565b5050505050565b60fb5460fc8054604080516020808402820181019092528281526001600160a01b0390941693600093909290918301828280156117a657602002820191906000526020600020905b815481526020019060010190808311611792575b505050506001600160a01b038581166000908152610109602090815260408083208151610100810183528154909516855260018101805483518186028101860190945280845297985093969495509385830193919283018282801561183457602002820191906000526020600020905b81546001600160a01b03168152600190910190602001808311611816575b505050505081526020016002820180548060200260200160405190810160405280929190818152602001828054801561189657602002820191906000526020600020905b81546001600160a01b03168152600190910190602001808311611878575b5050505050815260200160038201548152602001600482018054806020026020016040519081016040528092919081815260200182805480156118f857602002820191906000526020600020905b8154815260200190600101908083116118e4575b5050509183525050600582015460ff161515602080830191909152600683018054604080518285028101850182528281529401939283018282801561195c57602002820191906000526020600020905b815481526020019060010190808311611948575b50505050508152602001600782018054806020026020016040519081016040528092919081815260200182805480156119b457602002820191906000526020600020905b8154815260200190600101908083116119a0575b505050505081525050905060006101065467ffffffffffffffff8111156119dd576119dd612cfb565b604051908082528060200260200182016040528015611a06578160200160208202803683370190505b509050600080610107805480602002602001604051908101604052809291908181526020018280548015611a6357602002820191906000526020600020905b81546001600160a01b03168152600190910190602001808311611a45575b505050505090506000815190506000805b61010654811015611f8c5786516001600160a01b03811660008181526101096020526040902090611aa6575050611f8c565b600581015460ff16611b5857611abf82610103546105d8565b15611b58576101028054600180820183556000929092527f93bdaa6a4190909b7c3fbe8d42169ffe1cab19f51dfc8db24c71abf849eced4a0180546001600160a01b0319166001600160a01b03851690811790915560058301805460ff19169092179091556040519081527facc63915cb028aeaee9996abc0f864fc0559a2f955750aa97d6ef9f51014acfb9060200160405180910390a15b611b6582610105546105d8565b15611ba35781888881518110611b7d57611b7d613016565b6001600160a01b039092166020928302919091019091015286611b9f81613055565b9750505b8951831015611d7857600060648b8581518110611bc257611bc2613016565b60200260200101518f611bd591906131a6565b611bdf91906131d3565b90508d826003016000828254611bf59190613042565b9091555050600482018054600181810183556000928352602080842090920184905560078501805491820181558352912043910155611c348186613042565b94508b6001600160a01b031663b70cc4c16040518163ffffffff1660e01b8152600401602060405180830381865afa158015611c74573d6000803e3d6000fd5b505050506040513d601f19601f82011682018060405250810190611c98919061306e565b60405163a9059cbb60e01b81526001600160a01b03858116600483015260248201849052919091169063a9059cbb906044016020604051808303816000875af1158015611ce9573d6000803e3d6000fd5b505050506040513d601f19601f82011682018060405250810190611d0d91906130cd565b50806001600160a01b03808516908f167f197a0a2b0fbff3fc4f7f4d32597585aa8415fcc4c5dd6634336ec65904529c83611d49886001613042565b60408051918252602082018190526005908201526410539554d160da1b606082015260800160405180910390a4505b604080516101008101825282546001600160a01b031681526001830180548351602082810282018101909552818152929385938186019390929091830182828015611dec57602002820191906000526020600020905b81546001600160a01b03168152600190910190602001808311611dce575b5050505050815260200160028201805480602002602001604051908101604052809291908181526020018280548015611e4e57602002820191906000526020600020905b81546001600160a01b03168152600190910190602001808311611e30575b505050505081526020016003820154815260200160048201805480602002602001604051908101604052809291908181526020018280548015611eb057602002820191906000526020600020905b815481526020019060010190808311611e9c575b5050509183525050600582015460ff1615156020808301919091526006830180546040805182850281018501825282815294019392830182828015611f1457602002820191906000526020600020905b815481526020019060010190808311611f00575b5050505050815260200160078201805480602002602001604051908101604052809291908181526020018280548015611f6c57602002820191906000526020600020905b815481526020019060010190808311611f58575b505050505081525050985050508080611f8490613055565b915050611a74565b50831561212d576000846064610104548d611fa791906131a6565b611fb191906131d3565b611fbb91906131d3565b905060005b8581101561212a57896001600160a01b031663b70cc4c16040518163ffffffff1660e01b8152600401602060405180830381865afa158015612006573d6000803e3d6000fd5b505050506040513d601f19601f8201168201806040525081019061202a919061306e565b6001600160a01b031663a9059cbb88838151811061204a5761204a613016565b6020026020010151846040518363ffffffff1660e01b81526004016120849291906001600160a01b03929092168252602082015260400190565b6020604051808303816000875af11580156120a3573d6000803e3d6000fd5b505050506040513d601f19601f820116820180604052508101906120c791906130cd565b508681815181106120da576120da613016565b60200260200101516001600160a01b0316827f62f12b06523c734cca73aa1502a5f967c8e09d0a2f084fd36acbac47f54b0d4e60405160405180910390a38061212281613055565b915050611fc0565b50505b610102541561231f5761010254610101546000919060649061214f908e6131a6565b61215991906131d3565b61216391906131d3565b610102546040805142602082015244918101919091529192506000916060016040516020818303038152906040528051906020012060001c6121a591906131e7565b9050896001600160a01b031663b70cc4c16040518163ffffffff1660e01b8152600401602060405180830381865afa1580156121e5573d6000803e3d6000fd5b505050506040513d601f19601f82011682018060405250810190612209919061306e565b6001600160a01b031663a9059cbb610102838154811061222b5761222b613016565b60009182526020909120015460405160e083901b6001600160e01b03191681526001600160a01b039091166004820152602481018590526044016020604051808303816000875af1158015612284573d6000803e3d6000fd5b505050506040513d601f19601f820116820180604052508101906122a891906130cd565b507f51e673ac98f0ea063ce27eb5af807d22b97cd11cd79380cf1f711ad80948046c8261010283815481106122df576122df613016565b60009182526020909120015460405161231492916001600160a01b0316909182526001600160a01b0316602082015260400190565b60405180910390a150505b81156124bf576000826064610108548d61233991906131a6565b61234391906131d3565b61234d91906131d3565b905060005b838110156124bc57896001600160a01b031663b70cc4c16040518163ffffffff1660e01b8152600401602060405180830381865afa158015612398573d6000803e3d6000fd5b505050506040513d601f19601f820116820180604052508101906123bc919061306e565b6001600160a01b031663a9059cbb8683815181106123dc576123dc613016565b6020026020010151846040518363ffffffff1660e01b81526004016124169291906001600160a01b03929092168252602082015260400190565b6020604051808303816000875af1158015612435573d6000803e3d6000fd5b505050506040513d601f19601f8201168201806040525081019061245991906130cd565b5084818151811061246c5761246c613016565b60200260200101516001600160a01b0316827f6d550262135215fe2f5ef9b6fad45db8cf51267248f8b95e069f8025f6f9049a60405160405180910390a3806124b481613055565b915050612352565b50505b8060ff60008282546124d19190613042565b909155505050505050505050505050565b6065546001600160a01b031633146109d75760405162461bcd60e51b815260206004820181905260248201527f4f776e61626c653a2063616c6c6572206973206e6f7420746865206f776e657260448201526064016107af565b6109c46124e2565b7f4910fdfa16fed3260ed0e7147f7cc6da11a60208b5b9406d12a635614ffd91435460ff1615612577576108cf83612815565b826001600160a01b03166352d1902d6040518163ffffffff1660e01b8152600401602060405180830381865afa9250505080156125d1575060408051601f3d908101601f191682019092526125ce918101906131fb565b60015b6126345760405162461bcd60e51b815260206004820152602e60248201527f45524331393637557067726164653a206e657720696d706c656d656e7461746960448201526d6f6e206973206e6f74205555505360901b60648201526084016107af565b6000805160206132d383398151915281146126a35760405162461bcd60e51b815260206004820152602960248201527f45524331393637557067726164653a20756e737570706f727465642070726f786044820152681a58589b195555525160ba1b60648201526084016107af565b506108cf8383836128b1565b6126b76128d6565b6033805460ff191690557f5db9ee0a495bf2e6ff9c91a7834c1ba4fdd244a5e8aa4e537bd38aeae4b073aa335b6040516001600160a01b03909116815260200160405180910390a1565b606580546001600160a01b038381166001600160a01b0319831681179093556040519116919082907f8be0079c531659141344cd1fd0a4f28419497f9722a3daafe3b4186f6b6457e090600090a35050565b600054610100900460ff1661277a5760405162461bcd60e51b81526004016107af90613214565b6109d761291f565b600054610100900460ff166127a95760405162461bcd60e51b81526004016107af90613214565b6109d7612952565b600054610100900460ff166109d75760405162461bcd60e51b81526004016107af90613214565b6127e0612982565b6033805460ff191660011790557f62e78cea01bee320cd4e420270b5ea74000d11b0c9f74754ebdbfc544b05a2586126e43390565b6001600160a01b0381163b6128825760405162461bcd60e51b815260206004820152602d60248201527f455243313936373a206e657720696d706c656d656e746174696f6e206973206e60448201526c1bdd08184818dbdb9d1c9858dd609a1b60648201526084016107af565b6000805160206132d383398151915280546001600160a01b0319166001600160a01b0392909216919091179055565b6128ba836129c8565b6000825111806128c75750805b156108cf576108508383612a08565b60335460ff166109d75760405162461bcd60e51b815260206004820152601460248201527314185d5cd8589b194e881b9bdd081c185d5cd95960621b60448201526064016107af565b600054610100900460ff166129465760405162461bcd60e51b81526004016107af90613214565b6033805460ff19169055565b600054610100900460ff166129795760405162461bcd60e51b81526004016107af90613214565b6109d733612701565b60335460ff16156109d75760405162461bcd60e51b815260206004820152601060248201526f14185d5cd8589b194e881c185d5cd95960821b60448201526064016107af565b6129d181612815565b6040516001600160a01b038216907fbc7cd75a20ee27fd9adebab32041f755214dbc6bffa90cc0225b39da2e5c2d3b90600090a250565b60606001600160a01b0383163b612a705760405162461bcd60e51b815260206004820152602660248201527f416464726573733a2064656c65676174652063616c6c20746f206e6f6e2d636f6044820152651b9d1c9858dd60d21b60648201526084016107af565b600080846001600160a01b031684604051612a8b9190613283565b600060405180830381855af49150503d8060008114612ac6576040519150601f19603f3d011682016040523d82523d6000602084013e612acb565b606091505b5091509150612af382826040518060600160405280602781526020016132f360279139612afc565b95945050505050565b60608315612b0b575081612b15565b612b158383612b1c565b9392505050565b815115612b2c5781518083602001fd5b8060405162461bcd60e51b81526004016107af919061329f565b828054828255906000526020600020908101928215612b81579160200282015b82811115612b81578235825591602001919060010190612b66565b50612b8d929150612bd1565b5090565b828054828255906000526020600020908101928215612b81579160200282015b82811115612b81578251829060ff16905591602001919060010190612bb1565b5b80821115612b8d5760008155600101612bd2565b6001600160a01b03811681146109c457600080fd5b600060208284031215612c0d57600080fd5b8135612b1581612be6565b60008060408385031215612c2b57600080fd5b8235612c3681612be6565b946020939093013593505050565b600080600060608486031215612c5957600080fd5b833592506020840135612c6b81612be6565b91506040840135612c7b81612be6565b809150509250925092565b60008060208385031215612c9957600080fd5b823567ffffffffffffffff80821115612cb157600080fd5b818501915085601f830112612cc557600080fd5b813581811115612cd457600080fd5b8660208260051b8501011115612ce957600080fd5b60209290920196919550909350505050565b634e487b7160e01b600052604160045260246000fd5b60008060408385031215612d2457600080fd5b8235612d2f81612be6565b9150602083013567ffffffffffffffff80821115612d4c57600080fd5b818501915085601f830112612d6057600080fd5b813581811115612d7257612d72612cfb565b604051601f8201601f19908116603f01168101908382118183101715612d9a57612d9a612cfb565b81604052828152886020848701011115612db357600080fd5b8260208601602083013760006020848301015280955050505050509250929050565b600081518084526020808501945080840160005b83811015612e0557815187529582019590820190600101612de9565b509495945050505050565b604081526000612e236040830185612dd5565b8281036020840152612af38185612dd5565b602081526000612b156020830184612dd5565b60008060408385031215612e5b57600080fd5b8235612e6681612be6565b91506020830135612e7681612be6565b809150509250929050565b600060208284031215612e9357600080fd5b5035919050565b600081518084526020808501945080840160005b83811015612e055781516001600160a01b031687529582019590820190600101612eae565b608081526000612ee66080830187612e9a565b8560208401528281036040840152612efe8186612e9a565b91505082606083015295945050505050565b60208152612f2a6020820183516001600160a01b03169052565b60006020830151610100806040850152612f48610120850183612e9a565b91506040850151601f1980868503016060870152612f668483612e9a565b93506060870151608087015260808701519150808685030160a0870152612f8d8483612dd5565b935060a08701519150612fa460c087018315159052565b60c08701519150808685030160e0870152612fbf8483612dd5565b935060e08701519150808685030183870152506106d08382612dd5565b848152608060208201526000612ff56080830186612dd5565b6040830194909452506001600160a01b039190911660609091015292915050565b634e487b7160e01b600052603260045260246000fd5b634e487b7160e01b600052601160045260246000fd5b808201808211156105d2576105d261302c565b6000600182016130675761306761302c565b5060010190565b60006020828403121561308057600080fd5b8151612b1581612be6565b60208082526022908201527f4f6e6c79206f776e65722063616e2063616c6c20746869732066756e6374696f604082015261371760f11b606082015260800190565b6000602082840312156130df57600080fd5b81518015158114612b1557600080fd5b6020808252602c908201527f46756e6374696f6e206d7573742062652063616c6c6564207468726f7567682060408201526b19195b1959d85d1958d85b1b60a21b606082015260800190565b6020808252602c908201527f46756e6374696f6e206d7573742062652063616c6c6564207468726f7567682060408201526b6163746976652070726f787960a01b606082015260800190565b600060ff821660ff810361319d5761319d61302c565b60010192915050565b80820281158282048414176105d2576105d261302c565b634e487b7160e01b600052601260045260246000fd5b6000826131e2576131e26131bd565b500490565b6000826131f6576131f66131bd565b500690565b60006020828403121561320d57600080fd5b5051919050565b6020808252602b908201527f496e697469616c697a61626c653a20636f6e7472616374206973206e6f74206960408201526a6e697469616c697a696e6760a81b606082015260800190565b60005b8381101561327a578181015183820152602001613262565b50506000910152565b6000825161329581846020870161325f565b9190910192915050565b60208152600082518060208401526132be81604085016020870161325f565b601f01601f1916919091016040019291505056fe360894a13ba1a3210667c828492db98dca3e2076cc3735a920a3ca505d382bbc416464726573733a206c6f772d6c6576656c2064656c65676174652063616c6c206661696c6564a2646970667358221220485757770822823bec73522508b053d76aaccfb85dfe49f78d19e516050a881264736f6c63430008110033","opcodes":"PUSH1 0xA0 PUSH1 0x40 MSTORE ADDRESS PUSH1 0x80 MSTORE CALLVALUE DUP1 ISZERO PUSH2 0x14 JUMPI PUSH1 0x0 DUP1 REVERT JUMPDEST POP PUSH1 0x80 MLOAD PUSH2 0x334F PUSH2 0x4C PUSH1 0x0 CODECOPY PUSH1 0x0 DUP2 DUP2 PUSH2 0x8F2 ADD MSTORE DUP2 DUP2 PUSH2 0x932 ADD MSTORE DUP2 DUP2 PUSH2 0x9E3 ADD MSTORE DUP2 DUP2 PUSH2 0xA23 ADD MSTORE PUSH2 0xAEA ADD MSTORE PUSH2 0x334F PUSH1 0x0 RETURN INVALID PUSH1 0x80 PUSH1 0x40 MSTORE PUSH1 0x4 CALLDATASIZE LT PUSH2 0x1BB JUMPI PUSH1 0x0 CALLDATALOAD PUSH1 0xE0 SHR DUP1 PUSH4 0x715018A6 GT PUSH2 0xEC JUMPI DUP1 PUSH4 0xCFBDB859 GT PUSH2 0x8A JUMPI DUP1 PUSH4 0xF2FDE38B GT PUSH2 0x64 JUMPI DUP1 PUSH4 0xF2FDE38B EQ PUSH2 0x50F JUMPI DUP1 PUSH4 0xFAEDA7E5 EQ PUSH2 0x52F JUMPI DUP1 PUSH4 0xFB47E016 EQ PUSH2 0x55F JUMPI DUP1 PUSH4 0xFB5D4526 EQ PUSH2 0x58C JUMPI PUSH1 0x0 DUP1 REVERT JUMPDEST DUP1 PUSH4 0xCFBDB859 EQ PUSH2 0x49A JUMPI DUP1 PUSH4 0xDCF6E819 EQ PUSH2 0x4BA JUMPI DUP1 PUSH4 0xEF519DC0 EQ PUSH2 0x4DA JUMPI PUSH1 0x0 DUP1 REVERT JUMPDEST DUP1 PUSH4 0x8129FC1C GT PUSH2 0xC6 JUMPI DUP1 PUSH4 0x8129FC1C EQ PUSH2 0x432 JUMPI DUP1 PUSH4 0x8456CB59 EQ PUSH2 0x447 JUMPI DUP1 PUSH4 0x8DA5CB5B EQ PUSH2 0x45C JUMPI DUP1 PUSH4 0xA0739756 EQ PUSH2 0x47A JUMPI PUSH1 0x0 DUP1 REVERT JUMPDEST DUP1 PUSH4 0x715018A6 EQ PUSH2 0x3D0 JUMPI DUP1 PUSH4 0x7393402E EQ PUSH2 0x3E5 JUMPI DUP1 PUSH4 0x7D2E90C2 EQ PUSH2 0x412 JUMPI PUSH1 0x0 DUP1 REVERT JUMPDEST DUP1 PUSH4 0x3F4BA83A GT PUSH2 0x159 JUMPI DUP1 PUSH4 0x50431CE4 GT PUSH2 0x133 JUMPI DUP1 PUSH4 0x50431CE4 EQ PUSH2 0x360 JUMPI DUP1 PUSH4 0x52D1902D EQ PUSH2 0x375 JUMPI DUP1 PUSH4 0x5C975ABB EQ PUSH2 0x38A JUMPI DUP1 PUSH4 0x706AA31D EQ PUSH2 0x3A2 JUMPI PUSH1 0x0 DUP1 REVERT JUMPDEST DUP1 PUSH4 0x3F4BA83A EQ PUSH2 0x2E6 JUMPI DUP1 PUSH4 0x43B4EBF4 EQ PUSH2 0x2FB JUMPI DUP1 PUSH4 0x4F1EF286 EQ PUSH2 0x34D JUMPI PUSH1 0x0 DUP1 REVERT JUMPDEST DUP1 PUSH4 0x2405091C GT PUSH2 0x195 JUMPI DUP1 PUSH4 0x2405091C EQ PUSH2 0x23E JUMPI DUP1 PUSH4 0x277BB900 EQ PUSH2 0x286 JUMPI DUP1 PUSH4 0x345B5B85 EQ PUSH2 0x2A6 JUMPI DUP1 PUSH4 0x3659CFE6 EQ PUSH2 0x2C6 JUMPI PUSH1 0x0 DUP1 REVERT JUMPDEST DUP1 PUSH4 0x18452CD8 EQ PUSH2 0x1C7 JUMPI DUP1 PUSH4 0x1EE30543 EQ PUSH2 0x1FC JUMPI DUP1 PUSH4 0x228159B4 EQ PUSH2 0x21C JUMPI PUSH1 0x0 DUP1 REVERT JUMPDEST CALLDATASIZE PUSH2 0x1C2 JUMPI STOP JUMPDEST PUSH1 0x0 DUP1 REVERT JUMPDEST CALLVALUE DUP1 ISZERO PUSH2 0x1D3 JUMPI PUSH1 0x0 DUP1 REVERT JUMPDEST POP PUSH2 0x1E7 PUSH2 0x1E2 CALLDATASIZE PUSH1 0x4 PUSH2 0x2BFB JUMP JUMPDEST PUSH2 0x5B1 JUMP JUMPDEST PUSH1 0x40 MLOAD SWAP1 ISZERO ISZERO DUP2 MSTORE PUSH1 0x20 ADD JUMPDEST PUSH1 0x40 MLOAD DUP1 SWAP2 SUB SWAP1 RETURN JUMPDEST CALLVALUE DUP1 ISZERO PUSH2 0x208 JUMPI PUSH1 0x0 DUP1 REVERT JUMPDEST POP PUSH2 0x1E7 PUSH2 0x217 CALLDATASIZE PUSH1 0x4 PUSH2 0x2C18 JUMP JUMPDEST PUSH2 0x5D8 JUMP JUMPDEST CALLVALUE DUP1 ISZERO PUSH2 0x228 JUMPI PUSH1 0x0 DUP1 REVERT JUMPDEST POP PUSH2 0x23C PUSH2 0x237 CALLDATASIZE PUSH1 0x4 PUSH2 0x2C44 JUMP JUMPDEST PUSH2 0x6DA JUMP JUMPDEST STOP JUMPDEST CALLVALUE DUP1 ISZERO PUSH2 0x24A JUMPI PUSH1 0x0 DUP1 REVERT JUMPDEST POP PUSH2 0x278 PUSH2 0x259 CALLDATASIZE PUSH1 0x4 PUSH2 0x2BFB JUMP JUMPDEST PUSH1 0x1 PUSH1 0x1 PUSH1 0xA0 SHL SUB AND PUSH1 0x0 SWAP1 DUP2 MSTORE PUSH2 0x109 PUSH1 0x20 MSTORE PUSH1 0x40 SWAP1 KECCAK256 PUSH1 0x3 ADD SLOAD SWAP1 JUMP JUMPDEST PUSH1 0x40 MLOAD SWAP1 DUP2 MSTORE PUSH1 0x20 ADD PUSH2 0x1F3 JUMP JUMPDEST CALLVALUE DUP1 ISZERO PUSH2 0x292 JUMPI PUSH1 0x0 DUP1 REVERT JUMPDEST POP PUSH2 0x23C PUSH2 0x2A1 CALLDATASIZE PUSH1 0x4 PUSH2 0x2C18 JUMP JUMPDEST PUSH2 0x856 JUMP JUMPDEST CALLVALUE DUP1 ISZERO PUSH2 0x2B2 JUMPI PUSH1 0x0 DUP1 REVERT JUMPDEST POP PUSH2 0x23C PUSH2 0x2C1 CALLDATASIZE PUSH1 0x4 PUSH2 0x2C86 JUMP JUMPDEST PUSH2 0x8D4 JUMP JUMPDEST CALLVALUE DUP1 ISZERO PUSH2 0x2D2 JUMPI PUSH1 0x0 DUP1 REVERT JUMPDEST POP PUSH2 0x23C PUSH2 0x2E1 CALLDATASIZE PUSH1 0x4 PUSH2 0x2BFB JUMP JUMPDEST PUSH2 0x8E8 JUMP JUMPDEST CALLVALUE DUP1 ISZERO PUSH2 0x2F2 JUMPI PUSH1 0x0 DUP1 REVERT JUMPDEST POP PUSH2 0x23C PUSH2 0x9C7 JUMP JUMPDEST CALLVALUE DUP1 ISZERO PUSH2 0x307 JUMPI PUSH1 0x0 DUP1 REVERT JUMPDEST POP PUSH2 0x335 PUSH2 0x316 CALLDATASIZE PUSH1 0x4 PUSH2 0x2BFB JUMP JUMPDEST PUSH1 0x1 PUSH1 0x1 PUSH1 0xA0 SHL SUB SWAP1 DUP2 AND PUSH1 0x0 SWAP1 DUP2 MSTORE PUSH2 0x109 PUSH1 0x20 MSTORE PUSH1 0x40 SWAP1 KECCAK256 SLOAD AND SWAP1 JUMP JUMPDEST PUSH1 0x40 MLOAD PUSH1 0x1 PUSH1 0x1 PUSH1 0xA0 SHL SUB SWAP1 SWAP2 AND DUP2 MSTORE PUSH1 0x20 ADD PUSH2 0x1F3 JUMP JUMPDEST PUSH2 0x23C PUSH2 0x35B CALLDATASIZE PUSH1 0x4 PUSH2 0x2D11 JUMP JUMPDEST PUSH2 0x9D9 JUMP JUMPDEST CALLVALUE DUP1 ISZERO PUSH2 0x36C JUMPI PUSH1 0x0 DUP1 REVERT JUMPDEST POP PUSH2 0x23C PUSH2 0xAA9 JUMP JUMPDEST CALLVALUE DUP1 ISZERO PUSH2 0x381 JUMPI PUSH1 0x0 DUP1 REVERT JUMPDEST POP PUSH2 0x278 PUSH2 0xADD JUMP JUMPDEST CALLVALUE DUP1 ISZERO PUSH2 0x396 JUMPI PUSH1 0x0 DUP1 REVERT JUMPDEST POP PUSH1 0x33 SLOAD PUSH1 0xFF AND PUSH2 0x1E7 JUMP JUMPDEST CALLVALUE DUP1 ISZERO PUSH2 0x3AE JUMPI PUSH1 0x0 DUP1 REVERT JUMPDEST POP PUSH2 0x3C2 PUSH2 0x3BD CALLDATASIZE PUSH1 0x4 PUSH2 0x2BFB JUMP JUMPDEST PUSH2 0xB90 JUMP JUMPDEST PUSH1 0x40 MLOAD PUSH2 0x1F3 SWAP3 SWAP2 SWAP1 PUSH2 0x2E10 JUMP JUMPDEST CALLVALUE DUP1 ISZERO PUSH2 0x3DC JUMPI PUSH1 0x0 DUP1 REVERT JUMPDEST POP PUSH2 0x23C PUSH2 0xC5C JUMP JUMPDEST CALLVALUE DUP1 ISZERO PUSH2 0x3F1 JUMPI PUSH1 0x0 DUP1 REVERT JUMPDEST POP PUSH2 0x405 PUSH2 0x400 CALLDATASIZE PUSH1 0x4 PUSH2 0x2BFB JUMP JUMPDEST PUSH2 0xC6E JUMP JUMPDEST PUSH1 0x40 MLOAD PUSH2 0x1F3 SWAP2 SWAP1 PUSH2 0x2E35 JUMP JUMPDEST CALLVALUE DUP1 ISZERO PUSH2 0x41E JUMPI PUSH1 0x0 DUP1 REVERT JUMPDEST POP PUSH2 0x23C PUSH2 0x42D CALLDATASIZE PUSH1 0x4 PUSH2 0x2C18 JUMP JUMPDEST PUSH2 0xCE1 JUMP JUMPDEST CALLVALUE DUP1 ISZERO PUSH2 0x43E JUMPI PUSH1 0x0 DUP1 REVERT JUMPDEST POP PUSH2 0x23C PUSH2 0xD1F JUMP JUMPDEST CALLVALUE DUP1 ISZERO PUSH2 0x453 JUMPI PUSH1 0x0 DUP1 REVERT JUMPDEST POP PUSH2 0x23C PUSH2 0xF05 JUMP JUMPDEST CALLVALUE DUP1 ISZERO PUSH2 0x468 JUMPI PUSH1 0x0 DUP1 REVERT JUMPDEST POP PUSH1 0x65 SLOAD PUSH1 0x1 PUSH1 0x1 PUSH1 0xA0 SHL SUB AND PUSH2 0x335 JUMP JUMPDEST CALLVALUE DUP1 ISZERO PUSH2 0x486 JUMPI PUSH1 0x0 DUP1 REVERT JUMPDEST POP PUSH2 0x23C PUSH2 0x495 CALLDATASIZE PUSH1 0x4 PUSH2 0x2E48 JUMP JUMPDEST PUSH2 0xF15 JUMP JUMPDEST CALLVALUE DUP1 ISZERO PUSH2 0x4A6 JUMPI PUSH1 0x0 DUP1 REVERT JUMPDEST POP PUSH2 0x1E7 PUSH2 0x4B5 CALLDATASIZE PUSH1 0x4 PUSH2 0x2E81 JUMP JUMPDEST PUSH2 0xFEA JUMP JUMPDEST CALLVALUE DUP1 ISZERO PUSH2 0x4C6 JUMPI PUSH1 0x0 DUP1 REVERT JUMPDEST POP PUSH2 0x23C PUSH2 0x4D5 CALLDATASIZE PUSH1 0x4 PUSH2 0x2BFB JUMP JUMPDEST PUSH2 0xFFD JUMP JUMPDEST CALLVALUE DUP1 ISZERO PUSH2 0x4E6 JUMPI PUSH1 0x0 DUP1 REVERT JUMPDEST POP PUSH2 0x4FA PUSH2 0x4F5 CALLDATASIZE PUSH1 0x4 PUSH2 0x2BFB JUMP JUMPDEST PUSH2 0x1028 JUMP JUMPDEST PUSH1 0x40 DUP1 MLOAD SWAP3 DUP4 MSTORE PUSH1 0x20 DUP4 ADD SWAP2 SWAP1 SWAP2 MSTORE ADD PUSH2 0x1F3 JUMP JUMPDEST CALLVALUE DUP1 ISZERO PUSH2 0x51B JUMPI PUSH1 0x0 DUP1 REVERT JUMPDEST POP PUSH2 0x23C PUSH2 0x52A CALLDATASIZE PUSH1 0x4 PUSH2 0x2BFB JUMP JUMPDEST PUSH2 0x10EC JUMP JUMPDEST CALLVALUE DUP1 ISZERO PUSH2 0x53B JUMPI PUSH1 0x0 DUP1 REVERT JUMPDEST POP PUSH2 0x54F PUSH2 0x54A CALLDATASIZE PUSH1 0x4 PUSH2 0x2BFB JUMP JUMPDEST PUSH2 0x1162 JUMP JUMPDEST PUSH1 0x40 MLOAD PUSH2 0x1F3 SWAP5 SWAP4 SWAP3 SWAP2 SWAP1 PUSH2 0x2ED3 JUMP JUMPDEST CALLVALUE DUP1 ISZERO PUSH2 0x56B JUMPI PUSH1 0x0 DUP1 REVERT JUMPDEST POP PUSH2 0x57F PUSH2 0x57A CALLDATASIZE PUSH1 0x4 PUSH2 0x2BFB JUMP JUMPDEST PUSH2 0x124F JUMP JUMPDEST PUSH1 0x40 MLOAD PUSH2 0x1F3 SWAP2 SWAP1 PUSH2 0x2F10 JUMP JUMPDEST CALLVALUE DUP1 ISZERO PUSH2 0x598 JUMPI PUSH1 0x0 DUP1 REVERT JUMPDEST POP PUSH2 0x5A1 PUSH2 0x14B7 JUMP JUMPDEST PUSH1 0x40 MLOAD PUSH2 0x1F3 SWAP5 SWAP4 SWAP3 SWAP2 SWAP1 PUSH2 0x2FDC JUMP JUMPDEST PUSH1 0x1 PUSH1 0x1 PUSH1 0xA0 SHL SUB DUP1 DUP3 AND PUSH1 0x0 SWAP1 DUP2 MSTORE PUSH2 0x109 PUSH1 0x20 MSTORE PUSH1 0x40 DUP2 KECCAK256 SLOAD SWAP1 SWAP2 AND ISZERO ISZERO JUMPDEST SWAP3 SWAP2 POP POP JUMP JUMPDEST PUSH1 0x1 PUSH1 0x1 PUSH1 0xA0 SHL SUB DUP3 AND PUSH1 0x0 SWAP1 DUP2 MSTORE PUSH2 0x109 PUSH1 0x20 SWAP1 DUP2 MSTORE PUSH1 0x40 DUP1 DUP4 KECCAK256 PUSH1 0x1 ADD DUP1 SLOAD DUP3 MLOAD DUP2 DUP6 MUL DUP2 ADD DUP6 ADD SWAP1 SWAP4 MSTORE DUP1 DUP4 MSTORE DUP5 SWAP4 DUP4 ADD DUP3 DUP3 DUP1 ISZERO PUSH2 0x643 JUMPI PUSH1 0x20 MUL DUP3 ADD SWAP2 SWAP1 PUSH1 0x0 MSTORE PUSH1 0x20 PUSH1 0x0 KECCAK256 SWAP1 JUMPDEST DUP2 SLOAD PUSH1 0x1 PUSH1 0x1 PUSH1 0xA0 SHL SUB AND DUP2 MSTORE PUSH1 0x1 SWAP1 SWAP2 ADD SWAP1 PUSH1 0x20 ADD DUP1 DUP4 GT PUSH2 0x625 JUMPI JUMPDEST POP POP POP POP POP SWAP1 POP PUSH1 0x0 DUP2 MLOAD SWAP1 POP PUSH1 0x0 DUP1 JUMPDEST DUP3 DUP2 LT ISZERO PUSH2 0x6BE JUMPI PUSH2 0x109 PUSH1 0x0 DUP6 DUP4 DUP2 MLOAD DUP2 LT PUSH2 0x673 JUMPI PUSH2 0x673 PUSH2 0x3016 JUMP JUMPDEST PUSH1 0x20 MUL PUSH1 0x20 ADD ADD MLOAD PUSH1 0x1 PUSH1 0x1 PUSH1 0xA0 SHL SUB AND PUSH1 0x1 PUSH1 0x1 PUSH1 0xA0 SHL SUB AND DUP2 MSTORE PUSH1 0x20 ADD SWAP1 DUP2 MSTORE PUSH1 0x20 ADD PUSH1 0x0 KECCAK256 PUSH1 0x3 ADD SLOAD DUP3 PUSH2 0x6AA SWAP2 SWAP1 PUSH2 0x3042 JUMP JUMPDEST SWAP2 POP DUP1 PUSH2 0x6B6 DUP2 PUSH2 0x3055 JUMP JUMPDEST SWAP2 POP POP PUSH2 0x654 JUMP JUMPDEST POP DUP5 DUP2 GT PUSH2 0x6CD JUMPI PUSH1 0x0 PUSH2 0x6D0 JUMP JUMPDEST PUSH1 0x1 JUMPDEST SWAP7 SWAP6 POP POP POP POP POP POP JUMP JUMPDEST CALLER PUSH2 0x6ED PUSH1 0x65 SLOAD PUSH1 0x1 PUSH1 0x1 PUSH1 0xA0 SHL SUB AND SWAP1 JUMP JUMPDEST PUSH1 0x1 PUSH1 0x1 PUSH1 0xA0 SHL SUB AND DUP2 PUSH1 0x1 PUSH1 0x1 PUSH1 0xA0 SHL SUB AND EQ DUP1 PUSH2 0x793 JUMPI POP PUSH1 0xFB PUSH1 0x0 SWAP1 SLOAD SWAP1 PUSH2 0x100 EXP SWAP1 DIV PUSH1 0x1 PUSH1 0x1 PUSH1 0xA0 SHL SUB AND PUSH1 0x1 PUSH1 0x1 PUSH1 0xA0 SHL SUB AND PUSH4 0x63D9DF85 PUSH1 0x40 MLOAD DUP2 PUSH4 0xFFFFFFFF AND PUSH1 0xE0 SHL DUP2 MSTORE PUSH1 0x4 ADD PUSH1 0x20 PUSH1 0x40 MLOAD DUP1 DUP4 SUB DUP2 DUP7 GAS STATICCALL ISZERO DUP1 ISZERO PUSH2 0x75A JUMPI RETURNDATASIZE PUSH1 0x0 DUP1 RETURNDATACOPY RETURNDATASIZE PUSH1 0x0 REVERT JUMPDEST POP POP POP POP PUSH1 0x40 MLOAD RETURNDATASIZE PUSH1 0x1F NOT PUSH1 0x1F DUP3 ADD AND DUP3 ADD DUP1 PUSH1 0x40 MSTORE POP DUP2 ADD SWAP1 PUSH2 0x77E SWAP2 SWAP1 PUSH2 0x306E JUMP JUMPDEST PUSH1 0x1 PUSH1 0x1 PUSH1 0xA0 SHL SUB AND DUP2 PUSH1 0x1 PUSH1 0x1 PUSH1 0xA0 SHL SUB AND EQ JUMPDEST PUSH2 0x7B8 JUMPI PUSH1 0x40 MLOAD PUSH3 0x461BCD PUSH1 0xE5 SHL DUP2 MSTORE PUSH1 0x4 ADD PUSH2 0x7AF SWAP1 PUSH2 0x308B JUMP JUMPDEST PUSH1 0x40 MLOAD DUP1 SWAP2 SUB SWAP1 REVERT JUMPDEST PUSH1 0x1 PUSH1 0x1 PUSH1 0xA0 SHL SUB DUP4 DUP2 AND PUSH1 0x0 SWAP1 DUP2 MSTORE PUSH2 0x109 PUSH1 0x20 MSTORE PUSH1 0x40 SWAP1 KECCAK256 SLOAD AND ISZERO DUP1 ISZERO PUSH2 0x7E9 JUMPI POP PUSH1 0x1 PUSH1 0x1 PUSH1 0xA0 SHL SUB DUP3 AND ISZERO ISZERO JUMPDEST ISZERO PUSH2 0x7F8 JUMPI PUSH2 0x7F8 DUP4 DUP4 PUSH2 0x157E JUMP JUMPDEST PUSH1 0x1 PUSH1 0x1 PUSH1 0xA0 SHL SUB DUP3 DUP2 AND PUSH1 0x0 SWAP1 DUP2 MSTORE PUSH2 0x109 PUSH1 0x20 MSTORE PUSH1 0x40 SWAP1 KECCAK256 SLOAD AND ISZERO DUP1 ISZERO PUSH2 0x829 JUMPI POP PUSH1 0x1 PUSH1 0x1 PUSH1 0xA0 SHL SUB DUP3 AND ISZERO ISZERO JUMPDEST ISZERO PUSH2 0x846 JUMPI PUSH2 0x100 SLOAD PUSH2 0x846 SWAP1 DUP4 SWAP1 PUSH1 0x1 PUSH1 0x1 PUSH1 0xA0 SHL SUB AND PUSH2 0x157E JUMP JUMPDEST PUSH2 0x850 DUP5 DUP5 PUSH2 0x174A JUMP JUMPDEST POP POP POP POP JUMP JUMPDEST PUSH2 0x85E PUSH2 0x24E2 JUMP JUMPDEST PUSH1 0x40 MLOAD PUSH4 0xA9059CBB PUSH1 0xE0 SHL DUP2 MSTORE CALLER PUSH1 0x4 DUP3 ADD MSTORE PUSH1 0x24 DUP2 ADD DUP3 SWAP1 MSTORE PUSH1 0x1 PUSH1 0x1 PUSH1 0xA0 SHL SUB DUP4 AND SWAP1 PUSH4 0xA9059CBB SWAP1 PUSH1 0x44 ADD PUSH1 0x20 PUSH1 0x40 MLOAD DUP1 DUP4 SUB DUP2 PUSH1 0x0 DUP8 GAS CALL ISZERO DUP1 ISZERO PUSH2 0x8AB JUMPI RETURNDATASIZE PUSH1 0x0 DUP1 RETURNDATACOPY RETURNDATASIZE PUSH1 0x0 REVERT JUMPDEST POP POP POP POP PUSH1 0x40 MLOAD RETURNDATASIZE PUSH1 0x1F NOT PUSH1 0x1F DUP3 ADD AND DUP3 ADD DUP1 PUSH1 0x40 MSTORE POP DUP2 ADD SWAP1 PUSH2 0x8CF SWAP2 SWAP1 PUSH2 0x30CD JUMP JUMPDEST POP POP POP JUMP JUMPDEST PUSH2 0x8DC PUSH2 0x24E2 JUMP JUMPDEST PUSH2 0x8CF PUSH1 0xFC DUP4 DUP4 PUSH2 0x2B46 JUMP JUMPDEST PUSH1 0x1 PUSH1 0x1 PUSH1 0xA0 SHL SUB PUSH32 0x0 AND ADDRESS SUB PUSH2 0x930 JUMPI PUSH1 0x40 MLOAD PUSH3 0x461BCD PUSH1 0xE5 SHL DUP2 MSTORE PUSH1 0x4 ADD PUSH2 0x7AF SWAP1 PUSH2 0x30EF JUMP JUMPDEST PUSH32 0x0 PUSH1 0x1 PUSH1 0x1 PUSH1 0xA0 SHL SUB AND PUSH2 0x979 PUSH1 0x0 DUP1 MLOAD PUSH1 0x20 PUSH2 0x32D3 DUP4 CODECOPY DUP2 MLOAD SWAP2 MSTORE SLOAD PUSH1 0x1 PUSH1 0x1 PUSH1 0xA0 SHL SUB AND SWAP1 JUMP JUMPDEST PUSH1 0x1 PUSH1 0x1 PUSH1 0xA0 SHL SUB AND EQ PUSH2 0x99F JUMPI PUSH1 0x40 MLOAD PUSH3 0x461BCD PUSH1 0xE5 SHL DUP2 MSTORE PUSH1 0x4 ADD PUSH2 0x7AF SWAP1 PUSH2 0x313B JUMP JUMPDEST PUSH2 0x9A8 DUP2 PUSH2 0x253C JUMP JUMPDEST PUSH1 0x40 DUP1 MLOAD PUSH1 0x0 DUP1 DUP3 MSTORE PUSH1 0x20 DUP3 ADD SWAP1 SWAP3 MSTORE PUSH2 0x9C4 SWAP2 DUP4 SWAP2 SWAP1 PUSH2 0x2544 JUMP JUMPDEST POP JUMP JUMPDEST PUSH2 0x9CF PUSH2 0x24E2 JUMP JUMPDEST PUSH2 0x9D7 PUSH2 0x26AF JUMP JUMPDEST JUMP JUMPDEST PUSH1 0x1 PUSH1 0x1 PUSH1 0xA0 SHL SUB PUSH32 0x0 AND ADDRESS SUB PUSH2 0xA21 JUMPI PUSH1 0x40 MLOAD PUSH3 0x461BCD PUSH1 0xE5 SHL DUP2 MSTORE PUSH1 0x4 ADD PUSH2 0x7AF SWAP1 PUSH2 0x30EF JUMP JUMPDEST PUSH32 0x0 PUSH1 0x1 PUSH1 0x1 PUSH1 0xA0 SHL SUB AND PUSH2 0xA6A PUSH1 0x0 DUP1 MLOAD PUSH1 0x20 PUSH2 0x32D3 DUP4 CODECOPY DUP2 MLOAD SWAP2 MSTORE SLOAD PUSH1 0x1 PUSH1 0x1 PUSH1 0xA0 SHL SUB AND SWAP1 JUMP JUMPDEST PUSH1 0x1 PUSH1 0x1 PUSH1 0xA0 SHL SUB AND EQ PUSH2 0xA90 JUMPI PUSH1 0x40 MLOAD PUSH3 0x461BCD PUSH1 0xE5 SHL DUP2 MSTORE PUSH1 0x4 ADD PUSH2 0x7AF SWAP1 PUSH2 0x313B JUMP JUMPDEST PUSH2 0xA99 DUP3 PUSH2 0x253C JUMP JUMPDEST PUSH2 0xAA5 DUP3 DUP3 PUSH1 0x1 PUSH2 0x2544 JUMP JUMPDEST POP POP JUMP JUMPDEST PUSH2 0xAB1 PUSH2 0x24E2 JUMP JUMPDEST PUSH1 0x40 MLOAD CALLER SWAP1 SELFBALANCE DUP1 ISZERO PUSH2 0x8FC MUL SWAP2 PUSH1 0x0 DUP2 DUP2 DUP2 DUP6 DUP9 DUP9 CALL SWAP4 POP POP POP POP ISZERO DUP1 ISZERO PUSH2 0x9C4 JUMPI RETURNDATASIZE PUSH1 0x0 DUP1 RETURNDATACOPY RETURNDATASIZE PUSH1 0x0 REVERT JUMPDEST PUSH1 0x0 ADDRESS PUSH1 0x1 PUSH1 0x1 PUSH1 0xA0 SHL SUB PUSH32 0x0 AND EQ PUSH2 0xB7D JUMPI PUSH1 0x40 MLOAD PUSH3 0x461BCD PUSH1 0xE5 SHL DUP2 MSTORE PUSH1 0x20 PUSH1 0x4 DUP3 ADD MSTORE PUSH1 0x38 PUSH1 0x24 DUP3 ADD MSTORE PUSH32 0x555550535570677261646561626C653A206D757374206E6F742062652063616C PUSH1 0x44 DUP3 ADD MSTORE PUSH32 0x6C6564207468726F7567682064656C656761746563616C6C0000000000000000 PUSH1 0x64 DUP3 ADD MSTORE PUSH1 0x84 ADD PUSH2 0x7AF JUMP JUMPDEST POP PUSH1 0x0 DUP1 MLOAD PUSH1 0x20 PUSH2 0x32D3 DUP4 CODECOPY DUP2 MLOAD SWAP2 MSTORE SWAP1 JUMP JUMPDEST PUSH1 0x1 PUSH1 0x1 PUSH1 0xA0 SHL SUB DUP2 AND PUSH1 0x0 SWAP1 DUP2 MSTORE PUSH2 0x109 PUSH1 0x20 SWAP1 DUP2 MSTORE PUSH1 0x40 SWAP2 DUP3 SWAP1 KECCAK256 PUSH1 0x4 DUP2 ADD DUP1 SLOAD DUP5 MLOAD DUP2 DUP6 MUL DUP2 ADD DUP6 ADD SWAP1 SWAP6 MSTORE DUP1 DUP6 MSTORE PUSH1 0x60 SWAP5 DUP6 SWAP5 SWAP1 SWAP3 SWAP2 SWAP1 DUP4 ADD DUP3 DUP3 DUP1 ISZERO PUSH2 0xBFA JUMPI PUSH1 0x20 MUL DUP3 ADD SWAP2 SWAP1 PUSH1 0x0 MSTORE PUSH1 0x20 PUSH1 0x0 KECCAK256 SWAP1 JUMPDEST DUP2 SLOAD DUP2 MSTORE PUSH1 0x20 ADD SWAP1 PUSH1 0x1 ADD SWAP1 DUP1 DUP4 GT PUSH2 0xBE6 JUMPI JUMPDEST POP POP POP POP POP SWAP3 POP DUP1 PUSH1 0x6 ADD DUP1 SLOAD DUP1 PUSH1 0x20 MUL PUSH1 0x20 ADD PUSH1 0x40 MLOAD SWAP1 DUP2 ADD PUSH1 0x40 MSTORE DUP1 SWAP3 SWAP2 SWAP1 DUP2 DUP2 MSTORE PUSH1 0x20 ADD DUP3 DUP1 SLOAD DUP1 ISZERO PUSH2 0xC4F JUMPI PUSH1 0x20 MUL DUP3 ADD SWAP2 SWAP1 PUSH1 0x0 MSTORE PUSH1 0x20 PUSH1 0x0 KECCAK256 SWAP1 JUMPDEST DUP2 SLOAD DUP2 MSTORE PUSH1 0x20 ADD SWAP1 PUSH1 0x1 ADD SWAP1 DUP1 DUP4 GT PUSH2 0xC3B JUMPI JUMPDEST POP POP POP POP POP SWAP2 POP POP SWAP2 POP SWAP2 JUMP JUMPDEST PUSH2 0xC64 PUSH2 0x24E2 JUMP JUMPDEST PUSH2 0x9D7 PUSH1 0x0 PUSH2 0x2701 JUMP JUMPDEST PUSH1 0x1 PUSH1 0x1 PUSH1 0xA0 SHL SUB DUP2 AND PUSH1 0x0 SWAP1 DUP2 MSTORE PUSH2 0x109 PUSH1 0x20 SWAP1 DUP2 MSTORE PUSH1 0x40 SWAP2 DUP3 SWAP1 KECCAK256 PUSH1 0x7 DUP2 ADD DUP1 SLOAD DUP5 MLOAD DUP2 DUP6 MUL DUP2 ADD DUP6 ADD SWAP1 SWAP6 MSTORE DUP1 DUP6 MSTORE PUSH1 0x60 SWAP5 SWAP3 SWAP4 DUP4 ADD DUP3 DUP3 DUP1 ISZERO PUSH2 0xCD4 JUMPI PUSH1 0x20 MUL DUP3 ADD SWAP2 SWAP1 PUSH1 0x0 MSTORE PUSH1 0x20 PUSH1 0x0 KECCAK256 SWAP1 JUMPDEST DUP2 SLOAD DUP2 MSTORE PUSH1 0x20 ADD SWAP1 PUSH1 0x1 ADD SWAP1 DUP1 DUP4 GT PUSH2 0xCC0 JUMPI JUMPDEST POP POP POP POP POP SWAP2 POP POP SWAP2 SWAP1 POP JUMP JUMPDEST PUSH2 0xCE9 PUSH2 0x24E2 JUMP JUMPDEST PUSH1 0x40 MLOAD PUSH1 0x1 PUSH1 0x1 PUSH1 0xA0 SHL SUB DUP4 AND SWAP1 DUP3 ISZERO PUSH2 0x8FC MUL SWAP1 DUP4 SWAP1 PUSH1 0x0 DUP2 DUP2 DUP2 DUP6 DUP9 DUP9 CALL SWAP4 POP POP POP POP ISZERO DUP1 ISZERO PUSH2 0x8CF JUMPI RETURNDATASIZE PUSH1 0x0 DUP1 RETURNDATACOPY RETURNDATASIZE PUSH1 0x0 REVERT JUMPDEST PUSH1 0x0 SLOAD PUSH2 0x100 SWAP1 DIV PUSH1 0xFF AND ISZERO DUP1 DUP1 ISZERO PUSH2 0xD3F JUMPI POP PUSH1 0x0 SLOAD PUSH1 0x1 PUSH1 0xFF SWAP1 SWAP2 AND LT JUMPDEST DUP1 PUSH2 0xD59 JUMPI POP ADDRESS EXTCODESIZE ISZERO DUP1 ISZERO PUSH2 0xD59 JUMPI POP PUSH1 0x0 SLOAD PUSH1 0xFF AND PUSH1 0x1 EQ JUMPDEST PUSH2 0xDBC JUMPI PUSH1 0x40 MLOAD PUSH3 0x461BCD PUSH1 0xE5 SHL DUP2 MSTORE PUSH1 0x20 PUSH1 0x4 DUP3 ADD MSTORE PUSH1 0x2E PUSH1 0x24 DUP3 ADD MSTORE PUSH32 0x496E697469616C697A61626C653A20636F6E747261637420697320616C726561 PUSH1 0x44 DUP3 ADD MSTORE PUSH14 0x191E481A5B9A5D1A585B1A5E9959 PUSH1 0x92 SHL PUSH1 0x64 DUP3 ADD MSTORE PUSH1 0x84 ADD PUSH2 0x7AF JUMP JUMPDEST PUSH1 0x0 DUP1 SLOAD PUSH1 0xFF NOT AND PUSH1 0x1 OR SWAP1 SSTORE DUP1 ISZERO PUSH2 0xDDF JUMPI PUSH1 0x0 DUP1 SLOAD PUSH2 0xFF00 NOT AND PUSH2 0x100 OR SWAP1 SSTORE JUMPDEST PUSH1 0xFB DUP1 SLOAD PUSH1 0x1 PUSH1 0x1 PUSH1 0xA0 SHL SUB NOT SWAP1 DUP2 AND PUSH20 0xBE5153BAA3756402B08FD830E7B5F00A76E68231 OR SWAP1 SWAP2 SSTORE PUSH2 0x100 DUP1 SLOAD SWAP1 SWAP2 AND PUSH20 0xB35963E0AB2141CD4AB743E7A35D8772F3CF0447 OR SWAP1 SSTORE PUSH1 0x40 DUP1 MLOAD PUSH1 0xE0 DUP2 ADD DUP3 MSTORE PUSH1 0x7 DUP1 DUP3 MSTORE PUSH1 0x4 PUSH1 0x20 DUP4 ADD MSTORE PUSH1 0x3 SWAP3 DUP3 ADD SWAP3 SWAP1 SWAP3 MSTORE PUSH1 0x2 PUSH1 0x60 DUP3 ADD MSTORE PUSH1 0x1 PUSH1 0x80 DUP3 ADD DUP2 SWAP1 MSTORE PUSH1 0xA0 DUP3 ADD DUP2 SWAP1 MSTORE PUSH1 0xC0 DUP3 ADD MSTORE PUSH2 0xE70 SWAP2 PUSH1 0xFC SWAP2 SWAP1 PUSH2 0x2B91 JUMP JUMPDEST POP PUSH1 0x64 PUSH1 0xFD SSTORE PUSH1 0x14 PUSH2 0x106 SSTORE PUSH10 0x11478B7C30ABC300000 PUSH2 0x103 SSTORE PUSH1 0x4 PUSH2 0x101 SSTORE PUSH1 0x5 PUSH2 0x104 SSTORE PUSH9 0xA80D24677EFEF00000 PUSH2 0x105 SSTORE PUSH2 0xEAD PUSH2 0x2753 JUMP JUMPDEST PUSH2 0xEB5 PUSH2 0x2782 JUMP JUMPDEST PUSH2 0xEBD PUSH2 0x27B1 JUMP JUMPDEST DUP1 ISZERO PUSH2 0x9C4 JUMPI PUSH1 0x0 DUP1 SLOAD PUSH2 0xFF00 NOT AND SWAP1 SSTORE PUSH1 0x40 MLOAD PUSH1 0x1 DUP2 MSTORE PUSH32 0x7F26B83FF96E1F2B6A682F133852F6798A09C465DA95921460CEFB3847402498 SWAP1 PUSH1 0x20 ADD PUSH1 0x40 MLOAD DUP1 SWAP2 SUB SWAP1 LOG1 POP JUMP JUMPDEST PUSH2 0xF0D PUSH2 0x24E2 JUMP JUMPDEST PUSH2 0x9D7 PUSH2 0x27D8 JUMP JUMPDEST PUSH1 0xFB SLOAD PUSH1 0x1 PUSH1 0x1 PUSH1 0xA0 SHL SUB AND PUSH2 0xF33 PUSH1 0x65 SLOAD PUSH1 0x1 PUSH1 0x1 PUSH1 0xA0 SHL SUB AND SWAP1 JUMP JUMPDEST PUSH1 0x1 PUSH1 0x1 PUSH1 0xA0 SHL SUB AND CALLER PUSH1 0x1 PUSH1 0x1 PUSH1 0xA0 SHL SUB AND EQ DUP1 PUSH2 0xFC4 JUMPI POP DUP1 PUSH1 0x1 PUSH1 0x1 PUSH1 0xA0 SHL SUB AND PUSH4 0x63D9DF85 PUSH1 0x40 MLOAD DUP2 PUSH4 0xFFFFFFFF AND PUSH1 0xE0 SHL DUP2 MSTORE PUSH1 0x4 ADD PUSH1 0x20 PUSH1 0x40 MLOAD DUP1 DUP4 SUB DUP2 DUP7 GAS STATICCALL ISZERO DUP1 ISZERO PUSH2 0xF8B JUMPI RETURNDATASIZE PUSH1 0x0 DUP1 RETURNDATACOPY RETURNDATASIZE PUSH1 0x0 REVERT JUMPDEST POP POP POP POP PUSH1 0x40 MLOAD RETURNDATASIZE PUSH1 0x1F NOT PUSH1 0x1F DUP3 ADD AND DUP3 ADD DUP1 PUSH1 0x40 MSTORE POP DUP2 ADD SWAP1 PUSH2 0xFAF SWAP2 SWAP1 PUSH2 0x306E JUMP JUMPDEST PUSH1 0x1 PUSH1 0x1 PUSH1 0xA0 SHL SUB AND CALLER PUSH1 0x1 PUSH1 0x1 PUSH1 0xA0 SHL SUB AND EQ JUMPDEST PUSH2 0xFE0 JUMPI PUSH1 0x40 MLOAD PUSH3 0x461BCD PUSH1 0xE5 SHL DUP2 MSTORE PUSH1 0x4 ADD PUSH2 0x7AF SWAP1 PUSH2 0x308B JUMP JUMPDEST PUSH2 0x8CF DUP4 DUP4 PUSH2 0x157E JUMP JUMPDEST PUSH1 0x0 PUSH2 0xFF4 PUSH2 0x24E2 JUMP JUMPDEST POP PUSH1 0xFD SSTORE PUSH1 0x1 SWAP1 JUMP JUMPDEST PUSH2 0x1005 PUSH2 0x24E2 JUMP JUMPDEST PUSH2 0x100 DUP1 SLOAD PUSH1 0x1 PUSH1 0x1 PUSH1 0xA0 SHL SUB NOT AND PUSH1 0x1 PUSH1 0x1 PUSH1 0xA0 SHL SUB SWAP3 SWAP1 SWAP3 AND SWAP2 SWAP1 SWAP2 OR SWAP1 SSTORE JUMP JUMPDEST PUSH1 0x1 PUSH1 0x1 PUSH1 0xA0 SHL SUB DUP2 AND PUSH1 0x0 SWAP1 DUP2 MSTORE PUSH2 0x109 PUSH1 0x20 MSTORE PUSH1 0x40 DUP2 KECCAK256 PUSH1 0x4 DUP2 ADD SLOAD PUSH1 0x6 DUP3 ADD SLOAD DUP4 SWAP3 SWAP2 SWAP1 DUP4 JUMPDEST DUP3 DUP2 LT ISZERO PUSH2 0x1098 JUMPI DUP4 PUSH1 0x4 ADD DUP2 DUP2 SLOAD DUP2 LT PUSH2 0x106E JUMPI PUSH2 0x106E PUSH2 0x3016 JUMP JUMPDEST SWAP1 PUSH1 0x0 MSTORE PUSH1 0x20 PUSH1 0x0 KECCAK256 ADD SLOAD DUP7 PUSH2 0x1084 SWAP2 SWAP1 PUSH2 0x3042 JUMP JUMPDEST SWAP6 POP DUP1 PUSH2 0x1090 DUP2 PUSH2 0x3055 JUMP JUMPDEST SWAP2 POP POP PUSH2 0x1051 JUMP JUMPDEST POP PUSH1 0x0 JUMPDEST DUP2 DUP2 LT ISZERO PUSH2 0x10E3 JUMPI DUP4 PUSH1 0x6 ADD DUP2 DUP2 SLOAD DUP2 LT PUSH2 0x10B9 JUMPI PUSH2 0x10B9 PUSH2 0x3016 JUMP JUMPDEST SWAP1 PUSH1 0x0 MSTORE PUSH1 0x20 PUSH1 0x0 KECCAK256 ADD SLOAD DUP6 PUSH2 0x10CF SWAP2 SWAP1 PUSH2 0x3042 JUMP JUMPDEST SWAP5 POP DUP1 PUSH2 0x10DB DUP2 PUSH2 0x3055 JUMP JUMPDEST SWAP2 POP POP PUSH2 0x109C JUMP JUMPDEST POP POP POP POP SWAP2 POP SWAP2 JUMP JUMPDEST PUSH2 0x10F4 PUSH2 0x24E2 JUMP JUMPDEST PUSH1 0x1 PUSH1 0x1 PUSH1 0xA0 SHL SUB DUP2 AND PUSH2 0x1159 JUMPI PUSH1 0x40 MLOAD PUSH3 0x461BCD PUSH1 0xE5 SHL DUP2 MSTORE PUSH1 0x20 PUSH1 0x4 DUP3 ADD MSTORE PUSH1 0x26 PUSH1 0x24 DUP3 ADD MSTORE PUSH32 0x4F776E61626C653A206E6577206F776E657220697320746865207A65726F2061 PUSH1 0x44 DUP3 ADD MSTORE PUSH6 0x646472657373 PUSH1 0xD0 SHL PUSH1 0x64 DUP3 ADD MSTORE PUSH1 0x84 ADD PUSH2 0x7AF JUMP JUMPDEST PUSH2 0x9C4 DUP2 PUSH2 0x2701 JUMP JUMPDEST PUSH1 0x1 PUSH1 0x1 PUSH1 0xA0 SHL SUB DUP2 AND PUSH1 0x0 SWAP1 DUP2 MSTORE PUSH2 0x109 PUSH1 0x20 SWAP1 DUP2 MSTORE PUSH1 0x40 DUP1 DUP4 KECCAK256 PUSH1 0x1 DUP2 ADD DUP1 SLOAD DUP4 MLOAD DUP2 DUP7 MUL DUP2 ADD DUP7 ADD SWAP1 SWAP5 MSTORE DUP1 DUP5 MSTORE PUSH1 0x60 SWAP6 SWAP5 DUP7 SWAP5 DUP7 SWAP5 SWAP4 SWAP1 SWAP3 SWAP1 SWAP2 DUP4 ADD DUP3 DUP3 DUP1 ISZERO PUSH2 0x11D9 JUMPI PUSH1 0x20 MUL DUP3 ADD SWAP2 SWAP1 PUSH1 0x0 MSTORE PUSH1 0x20 PUSH1 0x0 KECCAK256 SWAP1 JUMPDEST DUP2 SLOAD PUSH1 0x1 PUSH1 0x1 PUSH1 0xA0 SHL SUB AND DUP2 MSTORE PUSH1 0x1 SWAP1 SWAP2 ADD SWAP1 PUSH1 0x20 ADD DUP1 DUP4 GT PUSH2 0x11BB JUMPI JUMPDEST POP POP POP POP POP SWAP5 POP DUP5 MLOAD SWAP4 POP DUP1 PUSH1 0x2 ADD DUP1 SLOAD DUP1 PUSH1 0x20 MUL PUSH1 0x20 ADD PUSH1 0x40 MLOAD SWAP1 DUP2 ADD PUSH1 0x40 MSTORE DUP1 SWAP3 SWAP2 SWAP1 DUP2 DUP2 MSTORE PUSH1 0x20 ADD DUP3 DUP1 SLOAD DUP1 ISZERO PUSH2 0x123C JUMPI PUSH1 0x20 MUL DUP3 ADD SWAP2 SWAP1 PUSH1 0x0 MSTORE PUSH1 0x20 PUSH1 0x0 KECCAK256 SWAP1 JUMPDEST DUP2 SLOAD PUSH1 0x1 PUSH1 0x1 PUSH1 0xA0 SHL SUB AND DUP2 MSTORE PUSH1 0x1 SWAP1 SWAP2 ADD SWAP1 PUSH1 0x20 ADD DUP1 DUP4 GT PUSH2 0x121E JUMPI JUMPDEST POP POP POP POP POP SWAP3 POP DUP3 MLOAD SWAP2 POP POP SWAP2 SWAP4 POP SWAP2 SWAP4 JUMP JUMPDEST PUSH2 0x12A2 PUSH1 0x40 MLOAD DUP1 PUSH2 0x100 ADD PUSH1 0x40 MSTORE DUP1 PUSH1 0x0 PUSH1 0x1 PUSH1 0x1 PUSH1 0xA0 SHL SUB AND DUP2 MSTORE PUSH1 0x20 ADD PUSH1 0x60 DUP2 MSTORE PUSH1 0x20 ADD PUSH1 0x60 DUP2 MSTORE PUSH1 0x20 ADD PUSH1 0x0 DUP2 MSTORE PUSH1 0x20 ADD PUSH1 0x60 DUP2 MSTORE PUSH1 0x20 ADD PUSH1 0x0 ISZERO ISZERO DUP2 MSTORE PUSH1 0x20 ADD PUSH1 0x60 DUP2 MSTORE PUSH1 0x20 ADD PUSH1 0x60 DUP2 MSTORE POP SWAP1 JUMP JUMPDEST PUSH1 0x1 PUSH1 0x1 PUSH1 0xA0 SHL SUB DUP1 DUP4 AND PUSH1 0x0 SWAP1 DUP2 MSTORE PUSH2 0x109 PUSH1 0x20 SWAP1 DUP2 MSTORE PUSH1 0x40 SWAP2 DUP3 SWAP1 KECCAK256 DUP3 MLOAD PUSH2 0x100 DUP2 ADD DUP5 MSTORE DUP2 SLOAD SWAP1 SWAP5 AND DUP5 MSTORE PUSH1 0x1 DUP2 ADD DUP1 SLOAD DUP5 MLOAD DUP2 DUP6 MUL DUP2 ADD DUP6 ADD SWAP1 SWAP6 MSTORE DUP1 DUP6 MSTORE SWAP2 SWAP4 DUP6 DUP5 ADD SWAP4 SWAP1 SWAP3 SWAP1 DUP4 ADD DUP3 DUP3 DUP1 ISZERO PUSH2 0x1327 JUMPI PUSH1 0x20 MUL DUP3 ADD SWAP2 SWAP1 PUSH1 0x0 MSTORE PUSH1 0x20 PUSH1 0x0 KECCAK256 SWAP1 JUMPDEST DUP2 SLOAD PUSH1 0x1 PUSH1 0x1 PUSH1 0xA0 SHL SUB AND DUP2 MSTORE PUSH1 0x1 SWAP1 SWAP2 ADD SWAP1 PUSH1 0x20 ADD DUP1 DUP4 GT PUSH2 0x1309 JUMPI JUMPDEST POP POP POP POP POP DUP2 MSTORE PUSH1 0x20 ADD PUSH1 0x2 DUP3 ADD DUP1 SLOAD DUP1 PUSH1 0x20 MUL PUSH1 0x20 ADD PUSH1 0x40 MLOAD SWAP1 DUP2 ADD PUSH1 0x40 MSTORE DUP1 SWAP3 SWAP2 SWAP1 DUP2 DUP2 MSTORE PUSH1 0x20 ADD DUP3 DUP1 SLOAD DUP1 ISZERO PUSH2 0x1389 JUMPI PUSH1 0x20 MUL DUP3 ADD SWAP2 SWAP1 PUSH1 0x0 MSTORE PUSH1 0x20 PUSH1 0x0 KECCAK256 SWAP1 JUMPDEST DUP2 SLOAD PUSH1 0x1 PUSH1 0x1 PUSH1 0xA0 SHL SUB AND DUP2 MSTORE PUSH1 0x1 SWAP1 SWAP2 ADD SWAP1 PUSH1 0x20 ADD DUP1 DUP4 GT PUSH2 0x136B JUMPI JUMPDEST POP POP POP POP POP DUP2 MSTORE PUSH1 0x20 ADD PUSH1 0x3 DUP3 ADD SLOAD DUP2 MSTORE PUSH1 0x20 ADD PUSH1 0x4 DUP3 ADD DUP1 SLOAD DUP1 PUSH1 0x20 MUL PUSH1 0x20 ADD PUSH1 0x40 MLOAD SWAP1 DUP2 ADD PUSH1 0x40 MSTORE DUP1 SWAP3 SWAP2 SWAP1 DUP2 DUP2 MSTORE PUSH1 0x20 ADD DUP3 DUP1 SLOAD DUP1 ISZERO PUSH2 0x13EB JUMPI PUSH1 0x20 MUL DUP3 ADD SWAP2 SWAP1 PUSH1 0x0 MSTORE PUSH1 0x20 PUSH1 0x0 KECCAK256 SWAP1 JUMPDEST DUP2 SLOAD DUP2 MSTORE PUSH1 0x20 ADD SWAP1 PUSH1 0x1 ADD SWAP1 DUP1 DUP4 GT PUSH2 0x13D7 JUMPI JUMPDEST POP POP POP SWAP2 DUP4 MSTORE POP POP PUSH1 0x5 DUP3 ADD SLOAD PUSH1 0xFF AND ISZERO ISZERO PUSH1 0x20 DUP1 DUP4 ADD SWAP2 SWAP1 SWAP2 MSTORE PUSH1 0x6 DUP4 ADD DUP1 SLOAD PUSH1 0x40 DUP1 MLOAD DUP3 DUP6 MUL DUP2 ADD DUP6 ADD DUP3 MSTORE DUP3 DUP2 MSTORE SWAP5 ADD SWAP4 SWAP3 DUP4 ADD DUP3 DUP3 DUP1 ISZERO PUSH2 0x144F JUMPI PUSH1 0x20 MUL DUP3 ADD SWAP2 SWAP1 PUSH1 0x0 MSTORE PUSH1 0x20 PUSH1 0x0 KECCAK256 SWAP1 JUMPDEST DUP2 SLOAD DUP2 MSTORE PUSH1 0x20 ADD SWAP1 PUSH1 0x1 ADD SWAP1 DUP1 DUP4 GT PUSH2 0x143B JUMPI JUMPDEST POP POP POP POP POP DUP2 MSTORE PUSH1 0x20 ADD PUSH1 0x7 DUP3 ADD DUP1 SLOAD DUP1 PUSH1 0x20 MUL PUSH1 0x20 ADD PUSH1 0x40 MLOAD SWAP1 DUP2 ADD PUSH1 0x40 MSTORE DUP1 SWAP3 SWAP2 SWAP1 DUP2 DUP2 MSTORE PUSH1 0x20 ADD DUP3 DUP1 SLOAD DUP1 ISZERO PUSH2 0x14A7 JUMPI PUSH1 0x20 MUL DUP3 ADD SWAP2 SWAP1 PUSH1 0x0 MSTORE PUSH1 0x20 PUSH1 0x0 KECCAK256 SWAP1 JUMPDEST DUP2 SLOAD DUP2 MSTORE PUSH1 0x20 ADD SWAP1 PUSH1 0x1 ADD SWAP1 DUP1 DUP4 GT PUSH2 0x1493 JUMPI JUMPDEST POP POP POP POP POP DUP2 MSTORE POP POP SWAP1 POP SWAP2 SWAP1 POP JUMP JUMPDEST PUSH1 0xFD SLOAD PUSH1 0xFC DUP1 SLOAD PUSH1 0x40 DUP1 MLOAD PUSH1 0x20 DUP1 DUP5 MUL DUP3 ADD DUP2 ADD SWAP1 SWAP3 MSTORE DUP3 DUP2 MSTORE PUSH1 0x60 SWAP4 PUSH1 0x0 SWAP4 DUP5 SWAP4 DUP4 ADD DUP3 DUP3 DUP1 ISZERO PUSH2 0x1508 JUMPI PUSH1 0x20 MUL DUP3 ADD SWAP2 SWAP1 PUSH1 0x0 MSTORE PUSH1 0x20 PUSH1 0x0 KECCAK256 SWAP1 JUMPDEST DUP2 SLOAD DUP2 MSTORE PUSH1 0x20 ADD SWAP1 PUSH1 0x1 ADD SWAP1 DUP1 DUP4 GT PUSH2 0x14F4 JUMPI JUMPDEST POP POP PUSH1 0xFC SLOAD SWAP4 SWAP7 POP PUSH1 0x0 SWAP3 POP POP POP JUMPDEST DUP2 DUP2 PUSH1 0xFF AND LT ISZERO PUSH2 0x1562 JUMPI PUSH1 0xFC DUP2 PUSH1 0xFF AND DUP2 SLOAD DUP2 LT PUSH2 0x1538 JUMPI PUSH2 0x1538 PUSH2 0x3016 JUMP JUMPDEST SWAP1 PUSH1 0x0 MSTORE PUSH1 0x20 PUSH1 0x0 KECCAK256 ADD SLOAD DUP5 PUSH2 0x154E SWAP2 SWAP1 PUSH2 0x3042 JUMP JUMPDEST SWAP4 POP DUP1 PUSH2 0x155A DUP2 PUSH2 0x3187 JUMP JUMPDEST SWAP2 POP POP PUSH2 0x1517 JUMP JUMPDEST POP POP PUSH2 0x100 SLOAD SWAP4 SWAP5 SWAP3 SWAP4 SWAP2 SWAP3 PUSH1 0x1 PUSH1 0x1 PUSH1 0xA0 SHL SUB SWAP1 SWAP3 AND SWAP2 SWAP1 POP JUMP JUMPDEST PUSH1 0x1 PUSH1 0x1 PUSH1 0xA0 SHL SUB DUP3 DUP2 AND PUSH1 0x0 SWAP1 DUP2 MSTORE PUSH2 0x109 PUSH1 0x20 MSTORE PUSH1 0x40 SWAP1 KECCAK256 SLOAD AND ISZERO PUSH2 0x1611 JUMPI PUSH1 0x40 MLOAD PUSH32 0x4164647265737320616C726561647920686176652072656665727265722E0000 DUP2 MSTORE PUSH1 0x1E ADD PUSH1 0x40 MLOAD DUP1 SWAP2 SUB SWAP1 KECCAK256 DUP2 PUSH1 0x1 PUSH1 0x1 PUSH1 0xA0 SHL SUB AND DUP4 PUSH1 0x1 PUSH1 0x1 PUSH1 0xA0 SHL SUB AND PUSH32 0x3A1A86984713A4F9021513989FE0334430012901D62639108F2A816C111A732F PUSH1 0x40 MLOAD PUSH1 0x40 MLOAD DUP1 SWAP2 SUB SWAP1 LOG4 JUMPDEST PUSH1 0x1 PUSH1 0x1 PUSH1 0xA0 SHL SUB DUP1 DUP4 AND PUSH1 0x0 DUP2 DUP2 MSTORE PUSH2 0x109 PUSH1 0x20 SWAP1 DUP2 MSTORE PUSH1 0x40 DUP1 DUP4 KECCAK256 SWAP5 DUP7 AND DUP1 DUP5 MSTORE DUP2 DUP5 KECCAK256 DUP7 SLOAD PUSH1 0x1 PUSH1 0x1 PUSH1 0xA0 SHL SUB NOT SWAP1 DUP2 AND DUP4 OR DUP9 SSTORE PUSH1 0x1 DUP1 DUP4 ADD DUP1 SLOAD SWAP2 DUP3 ADD DUP2 SSTORE DUP8 MSTORE SWAP5 DUP7 KECCAK256 SWAP1 SWAP5 ADD DUP1 SLOAD SWAP1 SWAP5 AND DUP7 OR SWAP1 SWAP4 SSTORE SWAP1 MLOAD SWAP2 SWAP4 SWAP3 SWAP1 SWAP2 PUSH32 0xFAF63637882FF2D63CA76881CF92FB857130E36F350C926F9CC884B499B42B77 SWAP2 SWAP1 LOG3 PUSH1 0x0 JUMPDEST PUSH1 0xFC SLOAD DUP2 LT ISZERO PUSH2 0x1743 JUMPI DUP2 SLOAD PUSH1 0x1 PUSH1 0x1 PUSH1 0xA0 SHL SUB AND PUSH1 0x0 DUP2 DUP2 MSTORE PUSH2 0x109 PUSH1 0x20 MSTORE PUSH1 0x40 SWAP1 KECCAK256 SWAP1 PUSH2 0x16C4 JUMPI POP PUSH2 0x1743 JUMP JUMPDEST PUSH1 0x2 DUP2 ADD DUP1 SLOAD PUSH1 0x1 DUP2 ADD DUP3 SSTORE PUSH1 0x0 SWAP2 DUP3 MSTORE PUSH1 0x20 DUP3 KECCAK256 ADD DUP1 SLOAD PUSH1 0x1 PUSH1 0x1 PUSH1 0xA0 SHL SUB NOT AND PUSH1 0x1 PUSH1 0x1 PUSH1 0xA0 SHL SUB DUP10 DUP2 AND SWAP2 DUP3 OR SWAP1 SWAP3 SSTORE DUP4 SLOAD PUSH1 0x40 MLOAD SWAP5 SWAP7 POP DUP7 SWAP5 SWAP2 SWAP4 DUP10 DUP5 AND SWAP4 SWAP2 SWAP1 SWAP2 AND SWAP2 PUSH32 0xB766B19465B3277B0B275ADF79D715CAC93166BF6E6A39F26E4CCFDEC76AD47E SWAP2 SWAP1 LOG4 POP DUP1 PUSH2 0x173B DUP2 PUSH2 0x3055 JUMP JUMPDEST SWAP2 POP POP PUSH2 0x1695 JUMP JUMPDEST POP POP POP POP POP JUMP JUMPDEST PUSH1 0xFB SLOAD PUSH1 0xFC DUP1 SLOAD PUSH1 0x40 DUP1 MLOAD PUSH1 0x20 DUP1 DUP5 MUL DUP3 ADD DUP2 ADD SWAP1 SWAP3 MSTORE DUP3 DUP2 MSTORE PUSH1 0x1 PUSH1 0x1 PUSH1 0xA0 SHL SUB SWAP1 SWAP5 AND SWAP4 PUSH1 0x0 SWAP4 SWAP1 SWAP3 SWAP1 SWAP2 DUP4 ADD DUP3 DUP3 DUP1 ISZERO PUSH2 0x17A6 JUMPI PUSH1 0x20 MUL DUP3 ADD SWAP2 SWAP1 PUSH1 0x0 MSTORE PUSH1 0x20 PUSH1 0x0 KECCAK256 SWAP1 JUMPDEST DUP2 SLOAD DUP2 MSTORE PUSH1 0x20 ADD SWAP1 PUSH1 0x1 ADD SWAP1 DUP1 DUP4 GT PUSH2 0x1792 JUMPI JUMPDEST POP POP POP POP PUSH1 0x1 PUSH1 0x1 PUSH1 0xA0 SHL SUB DUP6 DUP2 AND PUSH1 0x0 SWAP1 DUP2 MSTORE PUSH2 0x109 PUSH1 0x20 SWAP1 DUP2 MSTORE PUSH1 0x40 DUP1 DUP4 KECCAK256 DUP2 MLOAD PUSH2 0x100 DUP2 ADD DUP4 MSTORE DUP2 SLOAD SWAP1 SWAP6 AND DUP6 MSTORE PUSH1 0x1 DUP2 ADD DUP1 SLOAD DUP4 MLOAD DUP2 DUP7 MUL DUP2 ADD DUP7 ADD SWAP1 SWAP5 MSTORE DUP1 DUP5 MSTORE SWAP8 SWAP9 POP SWAP4 SWAP7 SWAP5 SWAP6 POP SWAP4 DUP6 DUP4 ADD SWAP4 SWAP2 SWAP3 DUP4 ADD DUP3 DUP3 DUP1 ISZERO PUSH2 0x1834 JUMPI PUSH1 0x20 MUL DUP3 ADD SWAP2 SWAP1 PUSH1 0x0 MSTORE PUSH1 0x20 PUSH1 0x0 KECCAK256 SWAP1 JUMPDEST DUP2 SLOAD PUSH1 0x1 PUSH1 0x1 PUSH1 0xA0 SHL SUB AND DUP2 MSTORE PUSH1 0x1 SWAP1 SWAP2 ADD SWAP1 PUSH1 0x20 ADD DUP1 DUP4 GT PUSH2 0x1816 JUMPI JUMPDEST POP POP POP POP POP DUP2 MSTORE PUSH1 0x20 ADD PUSH1 0x2 DUP3 ADD DUP1 SLOAD DUP1 PUSH1 0x20 MUL PUSH1 0x20 ADD PUSH1 0x40 MLOAD SWAP1 DUP2 ADD PUSH1 0x40 MSTORE DUP1 SWAP3 SWAP2 SWAP1 DUP2 DUP2 MSTORE PUSH1 0x20 ADD DUP3 DUP1 SLOAD DUP1 ISZERO PUSH2 0x1896 JUMPI PUSH1 0x20 MUL DUP3 ADD SWAP2 SWAP1 PUSH1 0x0 MSTORE PUSH1 0x20 PUSH1 0x0 KECCAK256 SWAP1 JUMPDEST DUP2 SLOAD PUSH1 0x1 PUSH1 0x1 PUSH1 0xA0 SHL SUB AND DUP2 MSTORE PUSH1 0x1 SWAP1 SWAP2 ADD SWAP1 PUSH1 0x20 ADD DUP1 DUP4 GT PUSH2 0x1878 JUMPI JUMPDEST POP POP POP POP POP DUP2 MSTORE PUSH1 0x20 ADD PUSH1 0x3 DUP3 ADD SLOAD DUP2 MSTORE PUSH1 0x20 ADD PUSH1 0x4 DUP3 ADD DUP1 SLOAD DUP1 PUSH1 0x20 MUL PUSH1 0x20 ADD PUSH1 0x40 MLOAD SWAP1 DUP2 ADD PUSH1 0x40 MSTORE DUP1 SWAP3 SWAP2 SWAP1 DUP2 DUP2 MSTORE PUSH1 0x20 ADD DUP3 DUP1 SLOAD DUP1 ISZERO PUSH2 0x18F8 JUMPI PUSH1 0x20 MUL DUP3 ADD SWAP2 SWAP1 PUSH1 0x0 MSTORE PUSH1 0x20 PUSH1 0x0 KECCAK256 SWAP1 JUMPDEST DUP2 SLOAD DUP2 MSTORE PUSH1 0x20 ADD SWAP1 PUSH1 0x1 ADD SWAP1 DUP1 DUP4 GT PUSH2 0x18E4 JUMPI JUMPDEST POP POP POP SWAP2 DUP4 MSTORE POP POP PUSH1 0x5 DUP3 ADD SLOAD PUSH1 0xFF AND ISZERO ISZERO PUSH1 0x20 DUP1 DUP4 ADD SWAP2 SWAP1 SWAP2 MSTORE PUSH1 0x6 DUP4 ADD DUP1 SLOAD PUSH1 0x40 DUP1 MLOAD DUP3 DUP6 MUL DUP2 ADD DUP6 ADD DUP3 MSTORE DUP3 DUP2 MSTORE SWAP5 ADD SWAP4 SWAP3 DUP4 ADD DUP3 DUP3 DUP1 ISZERO PUSH2 0x195C JUMPI PUSH1 0x20 MUL DUP3 ADD SWAP2 SWAP1 PUSH1 0x0 MSTORE PUSH1 0x20 PUSH1 0x0 KECCAK256 SWAP1 JUMPDEST DUP2 SLOAD DUP2 MSTORE PUSH1 0x20 ADD SWAP1 PUSH1 0x1 ADD SWAP1 DUP1 DUP4 GT PUSH2 0x1948 JUMPI JUMPDEST POP POP POP POP POP DUP2 MSTORE PUSH1 0x20 ADD PUSH1 0x7 DUP3 ADD DUP1 SLOAD DUP1 PUSH1 0x20 MUL PUSH1 0x20 ADD PUSH1 0x40 MLOAD SWAP1 DUP2 ADD PUSH1 0x40 MSTORE DUP1 SWAP3 SWAP2 SWAP1 DUP2 DUP2 MSTORE PUSH1 0x20 ADD DUP3 DUP1 SLOAD DUP1 ISZERO PUSH2 0x19B4 JUMPI PUSH1 0x20 MUL DUP3 ADD SWAP2 SWAP1 PUSH1 0x0 MSTORE PUSH1 0x20 PUSH1 0x0 KECCAK256 SWAP1 JUMPDEST DUP2 SLOAD DUP2 MSTORE PUSH1 0x20 ADD SWAP1 PUSH1 0x1 ADD SWAP1 DUP1 DUP4 GT PUSH2 0x19A0 JUMPI JUMPDEST POP POP POP POP POP DUP2 MSTORE POP POP SWAP1 POP PUSH1 0x0 PUSH2 0x106 SLOAD PUSH8 0xFFFFFFFFFFFFFFFF DUP2 GT ISZERO PUSH2 0x19DD JUMPI PUSH2 0x19DD PUSH2 0x2CFB JUMP JUMPDEST PUSH1 0x40 MLOAD SWAP1 DUP1 DUP3 MSTORE DUP1 PUSH1 0x20 MUL PUSH1 0x20 ADD DUP3 ADD PUSH1 0x40 MSTORE DUP1 ISZERO PUSH2 0x1A06 JUMPI DUP2 PUSH1 0x20 ADD PUSH1 0x20 DUP3 MUL DUP1 CALLDATASIZE DUP4 CALLDATACOPY ADD SWAP1 POP JUMPDEST POP SWAP1 POP PUSH1 0x0 DUP1 PUSH2 0x107 DUP1 SLOAD DUP1 PUSH1 0x20 MUL PUSH1 0x20 ADD PUSH1 0x40 MLOAD SWAP1 DUP2 ADD PUSH1 0x40 MSTORE DUP1 SWAP3 SWAP2 SWAP1 DUP2 DUP2 MSTORE PUSH1 0x20 ADD DUP3 DUP1 SLOAD DUP1 ISZERO PUSH2 0x1A63 JUMPI PUSH1 0x20 MUL DUP3 ADD SWAP2 SWAP1 PUSH1 0x0 MSTORE PUSH1 0x20 PUSH1 0x0 KECCAK256 SWAP1 JUMPDEST DUP2 SLOAD PUSH1 0x1 PUSH1 0x1 PUSH1 0xA0 SHL SUB AND DUP2 MSTORE PUSH1 0x1 SWAP1 SWAP2 ADD SWAP1 PUSH1 0x20 ADD DUP1 DUP4 GT PUSH2 0x1A45 JUMPI JUMPDEST POP POP POP POP POP SWAP1 POP PUSH1 0x0 DUP2 MLOAD SWAP1 POP PUSH1 0x0 DUP1 JUMPDEST PUSH2 0x106 SLOAD DUP2 LT ISZERO PUSH2 0x1F8C JUMPI DUP7 MLOAD PUSH1 0x1 PUSH1 0x1 PUSH1 0xA0 SHL SUB DUP2 AND PUSH1 0x0 DUP2 DUP2 MSTORE PUSH2 0x109 PUSH1 0x20 MSTORE PUSH1 0x40 SWAP1 KECCAK256 SWAP1 PUSH2 0x1AA6 JUMPI POP POP PUSH2 0x1F8C JUMP JUMPDEST PUSH1 0x5 DUP2 ADD SLOAD PUSH1 0xFF AND PUSH2 0x1B58 JUMPI PUSH2 0x1ABF DUP3 PUSH2 0x103 SLOAD PUSH2 0x5D8 JUMP JUMPDEST ISZERO PUSH2 0x1B58 JUMPI PUSH2 0x102 DUP1 SLOAD PUSH1 0x1 DUP1 DUP3 ADD DUP4 SSTORE PUSH1 0x0 SWAP3 SWAP1 SWAP3 MSTORE PUSH32 0x93BDAA6A4190909B7C3FBE8D42169FFE1CAB19F51DFC8DB24C71ABF849ECED4A ADD DUP1 SLOAD PUSH1 0x1 PUSH1 0x1 PUSH1 0xA0 SHL SUB NOT AND PUSH1 0x1 PUSH1 0x1 PUSH1 0xA0 SHL SUB DUP6 AND SWAP1 DUP2 OR SWAP1 SWAP2 SSTORE PUSH1 0x5 DUP4 ADD DUP1 SLOAD PUSH1 0xFF NOT AND SWAP1 SWAP3 OR SWAP1 SWAP2 SSTORE PUSH1 0x40 MLOAD SWAP1 DUP2 MSTORE PUSH32 0xACC63915CB028AEAEE9996ABC0F864FC0559A2F955750AA97D6EF9F51014ACFB SWAP1 PUSH1 0x20 ADD PUSH1 0x40 MLOAD DUP1 SWAP2 SUB SWAP1 LOG1 JUMPDEST PUSH2 0x1B65 DUP3 PUSH2 0x105 SLOAD PUSH2 0x5D8 JUMP JUMPDEST ISZERO PUSH2 0x1BA3 JUMPI DUP2 DUP9 DUP9 DUP2 MLOAD DUP2 LT PUSH2 0x1B7D JUMPI PUSH2 0x1B7D PUSH2 0x3016 JUMP JUMPDEST PUSH1 0x1 PUSH1 0x1 PUSH1 0xA0 SHL SUB SWAP1 SWAP3 AND PUSH1 0x20 SWAP3 DUP4 MUL SWAP2 SWAP1 SWAP2 ADD SWAP1 SWAP2 ADD MSTORE DUP7 PUSH2 0x1B9F DUP2 PUSH2 0x3055 JUMP JUMPDEST SWAP8 POP POP JUMPDEST DUP10 MLOAD DUP4 LT ISZERO PUSH2 0x1D78 JUMPI PUSH1 0x0 PUSH1 0x64 DUP12 DUP6 DUP2 MLOAD DUP2 LT PUSH2 0x1BC2 JUMPI PUSH2 0x1BC2 PUSH2 0x3016 JUMP JUMPDEST PUSH1 0x20 MUL PUSH1 0x20 ADD ADD MLOAD DUP16 PUSH2 0x1BD5 SWAP2 SWAP1 PUSH2 0x31A6 JUMP JUMPDEST PUSH2 0x1BDF SWAP2 SWAP1 PUSH2 0x31D3 JUMP JUMPDEST SWAP1 POP DUP14 DUP3 PUSH1 0x3 ADD PUSH1 0x0 DUP3 DUP3 SLOAD PUSH2 0x1BF5 SWAP2 SWAP1 PUSH2 0x3042 JUMP JUMPDEST SWAP1 SWAP2 SSTORE POP POP PUSH1 0x4 DUP3 ADD DUP1 SLOAD PUSH1 0x1 DUP2 DUP2 ADD DUP4 SSTORE PUSH1 0x0 SWAP3 DUP4 MSTORE PUSH1 0x20 DUP1 DUP5 KECCAK256 SWAP1 SWAP3 ADD DUP5 SWAP1 SSTORE PUSH1 0x7 DUP6 ADD DUP1 SLOAD SWAP2 DUP3 ADD DUP2 SSTORE DUP4 MSTORE SWAP2 KECCAK256 NUMBER SWAP2 ADD SSTORE PUSH2 0x1C34 DUP2 DUP7 PUSH2 0x3042 JUMP JUMPDEST SWAP5 POP DUP12 PUSH1 0x1 PUSH1 0x1 PUSH1 0xA0 SHL SUB AND PUSH4 0xB70CC4C1 PUSH1 0x40 MLOAD DUP2 PUSH4 0xFFFFFFFF AND PUSH1 0xE0 SHL DUP2 MSTORE PUSH1 0x4 ADD PUSH1 0x20 PUSH1 0x40 MLOAD DUP1 DUP4 SUB DUP2 DUP7 GAS STATICCALL ISZERO DUP1 ISZERO PUSH2 0x1C74 JUMPI RETURNDATASIZE PUSH1 0x0 DUP1 RETURNDATACOPY RETURNDATASIZE PUSH1 0x0 REVERT JUMPDEST POP POP POP POP PUSH1 0x40 MLOAD RETURNDATASIZE PUSH1 0x1F NOT PUSH1 0x1F DUP3 ADD AND DUP3 ADD DUP1 PUSH1 0x40 MSTORE POP DUP2 ADD SWAP1 PUSH2 0x1C98 SWAP2 SWAP1 PUSH2 0x306E JUMP JUMPDEST PUSH1 0x40 MLOAD PUSH4 0xA9059CBB PUSH1 0xE0 SHL DUP2 MSTORE PUSH1 0x1 PUSH1 0x1 PUSH1 0xA0 SHL SUB DUP6 DUP2 AND PUSH1 0x4 DUP4 ADD MSTORE PUSH1 0x24 DUP3 ADD DUP5 SWAP1 MSTORE SWAP2 SWAP1 SWAP2 AND SWAP1 PUSH4 0xA9059CBB SWAP1 PUSH1 0x44 ADD PUSH1 0x20 PUSH1 0x40 MLOAD DUP1 DUP4 SUB DUP2 PUSH1 0x0 DUP8 GAS CALL ISZERO DUP1 ISZERO PUSH2 0x1CE9 JUMPI RETURNDATASIZE PUSH1 0x0 DUP1 RETURNDATACOPY RETURNDATASIZE PUSH1 0x0 REVERT JUMPDEST POP POP POP POP PUSH1 0x40 MLOAD RETURNDATASIZE PUSH1 0x1F NOT PUSH1 0x1F DUP3 ADD AND DUP3 ADD DUP1 PUSH1 0x40 MSTORE POP DUP2 ADD SWAP1 PUSH2 0x1D0D SWAP2 SWAP1 PUSH2 0x30CD JUMP JUMPDEST POP DUP1 PUSH1 0x1 PUSH1 0x1 PUSH1 0xA0 SHL SUB DUP1 DUP6 AND SWAP1 DUP16 AND PUSH32 0x197A0A2B0FBFF3FC4F7F4D32597585AA8415FCC4C5DD6634336EC65904529C83 PUSH2 0x1D49 DUP9 PUSH1 0x1 PUSH2 0x3042 JUMP JUMPDEST PUSH1 0x40 DUP1 MLOAD SWAP2 DUP3 MSTORE PUSH1 0x20 DUP3 ADD DUP2 SWAP1 MSTORE PUSH1 0x5 SWAP1 DUP3 ADD MSTORE PUSH5 0x10539554D1 PUSH1 0xDA SHL PUSH1 0x60 DUP3 ADD MSTORE PUSH1 0x80 ADD PUSH1 0x40 MLOAD DUP1 SWAP2 SUB SWAP1 LOG4 POP JUMPDEST PUSH1 0x40 DUP1 MLOAD PUSH2 0x100 DUP2 ADD DUP3 MSTORE DUP3 SLOAD PUSH1 0x1 PUSH1 0x1 PUSH1 0xA0 SHL SUB AND DUP2 MSTORE PUSH1 0x1 DUP4 ADD DUP1 SLOAD DUP4 MLOAD PUSH1 0x20 DUP3 DUP2 MUL DUP3 ADD DUP2 ADD SWAP1 SWAP6 MSTORE DUP2 DUP2 MSTORE SWAP3 SWAP4 DUP6 SWAP4 DUP2 DUP7 ADD SWAP4 SWAP1 SWAP3 SWAP1 SWAP2 DUP4 ADD DUP3 DUP3 DUP1 ISZERO PUSH2 0x1DEC JUMPI PUSH1 0x20 MUL DUP3 ADD SWAP2 SWAP1 PUSH1 0x0 MSTORE PUSH1 0x20 PUSH1 0x0 KECCAK256 SWAP1 JUMPDEST DUP2 SLOAD PUSH1 0x1 PUSH1 0x1 PUSH1 0xA0 SHL SUB AND DUP2 MSTORE PUSH1 0x1 SWAP1 SWAP2 ADD SWAP1 PUSH1 0x20 ADD DUP1 DUP4 GT PUSH2 0x1DCE JUMPI JUMPDEST POP POP POP POP POP DUP2 MSTORE PUSH1 0x20 ADD PUSH1 0x2 DUP3 ADD DUP1 SLOAD DUP1 PUSH1 0x20 MUL PUSH1 0x20 ADD PUSH1 0x40 MLOAD SWAP1 DUP2 ADD PUSH1 0x40 MSTORE DUP1 SWAP3 SWAP2 SWAP1 DUP2 DUP2 MSTORE PUSH1 0x20 ADD DUP3 DUP1 SLOAD DUP1 ISZERO PUSH2 0x1E4E JUMPI PUSH1 0x20 MUL DUP3 ADD SWAP2 SWAP1 PUSH1 0x0 MSTORE PUSH1 0x20 PUSH1 0x0 KECCAK256 SWAP1 JUMPDEST DUP2 SLOAD PUSH1 0x1 PUSH1 0x1 PUSH1 0xA0 SHL SUB AND DUP2 MSTORE PUSH1 0x1 SWAP1 SWAP2 ADD SWAP1 PUSH1 0x20 ADD DUP1 DUP4 GT PUSH2 0x1E30 JUMPI JUMPDEST POP POP POP POP POP DUP2 MSTORE PUSH1 0x20 ADD PUSH1 0x3 DUP3 ADD SLOAD DUP2 MSTORE PUSH1 0x20 ADD PUSH1 0x4 DUP3 ADD DUP1 SLOAD DUP1 PUSH1 0x20 MUL PUSH1 0x20 ADD PUSH1 0x40 MLOAD SWAP1 DUP2 ADD PUSH1 0x40 MSTORE DUP1 SWAP3 SWAP2 SWAP1 DUP2 DUP2 MSTORE PUSH1 0x20 ADD DUP3 DUP1 SLOAD DUP1 ISZERO PUSH2 0x1EB0 JUMPI PUSH1 0x20 MUL DUP3 ADD SWAP2 SWAP1 PUSH1 0x0 MSTORE PUSH1 0x20 PUSH1 0x0 KECCAK256 SWAP1 JUMPDEST DUP2 SLOAD DUP2 MSTORE PUSH1 0x20 ADD SWAP1 PUSH1 0x1 ADD SWAP1 DUP1 DUP4 GT PUSH2 0x1E9C JUMPI JUMPDEST POP POP POP SWAP2 DUP4 MSTORE POP POP PUSH1 0x5 DUP3 ADD SLOAD PUSH1 0xFF AND ISZERO ISZERO PUSH1 0x20 DUP1 DUP4 ADD SWAP2 SWAP1 SWAP2 MSTORE PUSH1 0x6 DUP4 ADD DUP1 SLOAD PUSH1 0x40 DUP1 MLOAD DUP3 DUP6 MUL DUP2 ADD DUP6 ADD DUP3 MSTORE DUP3 DUP2 MSTORE SWAP5 ADD SWAP4 SWAP3 DUP4 ADD DUP3 DUP3 DUP1 ISZERO PUSH2 0x1F14 JUMPI PUSH1 0x20 MUL DUP3 ADD SWAP2 SWAP1 PUSH1 0x0 MSTORE PUSH1 0x20 PUSH1 0x0 KECCAK256 SWAP1 JUMPDEST DUP2 SLOAD DUP2 MSTORE PUSH1 0x20 ADD SWAP1 PUSH1 0x1 ADD SWAP1 DUP1 DUP4 GT PUSH2 0x1F00 JUMPI JUMPDEST POP POP POP POP POP DUP2 MSTORE PUSH1 0x20 ADD PUSH1 0x7 DUP3 ADD DUP1 SLOAD DUP1 PUSH1 0x20 MUL PUSH1 0x20 ADD PUSH1 0x40 MLOAD SWAP1 DUP2 ADD PUSH1 0x40 MSTORE DUP1 SWAP3 SWAP2 SWAP1 DUP2 DUP2 MSTORE PUSH1 0x20 ADD DUP3 DUP1 SLOAD DUP1 ISZERO PUSH2 0x1F6C JUMPI PUSH1 0x20 MUL DUP3 ADD SWAP2 SWAP1 PUSH1 0x0 MSTORE PUSH1 0x20 PUSH1 0x0 KECCAK256 SWAP1 JUMPDEST DUP2 SLOAD DUP2 MSTORE PUSH1 0x20 ADD SWAP1 PUSH1 0x1 ADD SWAP1 DUP1 DUP4 GT PUSH2 0x1F58 JUMPI JUMPDEST POP POP POP POP POP DUP2 MSTORE POP POP SWAP9 POP POP POP DUP1 DUP1 PUSH2 0x1F84 SWAP1 PUSH2 0x3055 JUMP JUMPDEST SWAP2 POP POP PUSH2 0x1A74 JUMP JUMPDEST POP DUP4 ISZERO PUSH2 0x212D JUMPI PUSH1 0x0 DUP5 PUSH1 0x64 PUSH2 0x104 SLOAD DUP14 PUSH2 0x1FA7 SWAP2 SWAP1 PUSH2 0x31A6 JUMP JUMPDEST PUSH2 0x1FB1 SWAP2 SWAP1 PUSH2 0x31D3 JUMP JUMPDEST PUSH2 0x1FBB SWAP2 SWAP1 PUSH2 0x31D3 JUMP JUMPDEST SWAP1 POP PUSH1 0x0 JUMPDEST DUP6 DUP2 LT ISZERO PUSH2 0x212A JUMPI DUP10 PUSH1 0x1 PUSH1 0x1 PUSH1 0xA0 SHL SUB AND PUSH4 0xB70CC4C1 PUSH1 0x40 MLOAD DUP2 PUSH4 0xFFFFFFFF AND PUSH1 0xE0 SHL DUP2 MSTORE PUSH1 0x4 ADD PUSH1 0x20 PUSH1 0x40 MLOAD DUP1 DUP4 SUB DUP2 DUP7 GAS STATICCALL ISZERO DUP1 ISZERO PUSH2 0x2006 JUMPI RETURNDATASIZE PUSH1 0x0 DUP1 RETURNDATACOPY RETURNDATASIZE PUSH1 0x0 REVERT JUMPDEST POP POP POP POP PUSH1 0x40 MLOAD RETURNDATASIZE PUSH1 0x1F NOT PUSH1 0x1F DUP3 ADD AND DUP3 ADD DUP1 PUSH1 0x40 MSTORE POP DUP2 ADD SWAP1 PUSH2 0x202A SWAP2 SWAP1 PUSH2 0x306E JUMP JUMPDEST PUSH1 0x1 PUSH1 0x1 PUSH1 0xA0 SHL SUB AND PUSH4 0xA9059CBB DUP9 DUP4 DUP2 MLOAD DUP2 LT PUSH2 0x204A JUMPI PUSH2 0x204A PUSH2 0x3016 JUMP JUMPDEST PUSH1 0x20 MUL PUSH1 0x20 ADD ADD MLOAD DUP5 PUSH1 0x40 MLOAD DUP4 PUSH4 0xFFFFFFFF AND PUSH1 0xE0 SHL DUP2 MSTORE PUSH1 0x4 ADD PUSH2 0x2084 SWAP3 SWAP2 SWAP1 PUSH1 0x1 PUSH1 0x1 PUSH1 0xA0 SHL SUB SWAP3 SWAP1 SWAP3 AND DUP3 MSTORE PUSH1 0x20 DUP3 ADD MSTORE PUSH1 0x40 ADD SWAP1 JUMP JUMPDEST PUSH1 0x20 PUSH1 0x40 MLOAD DUP1 DUP4 SUB DUP2 PUSH1 0x0 DUP8 GAS CALL ISZERO DUP1 ISZERO PUSH2 0x20A3 JUMPI RETURNDATASIZE PUSH1 0x0 DUP1 RETURNDATACOPY RETURNDATASIZE PUSH1 0x0 REVERT JUMPDEST POP POP POP POP PUSH1 0x40 MLOAD RETURNDATASIZE PUSH1 0x1F NOT PUSH1 0x1F DUP3 ADD AND DUP3 ADD DUP1 PUSH1 0x40 MSTORE POP DUP2 ADD SWAP1 PUSH2 0x20C7 SWAP2 SWAP1 PUSH2 0x30CD JUMP JUMPDEST POP DUP7 DUP2 DUP2 MLOAD DUP2 LT PUSH2 0x20DA JUMPI PUSH2 0x20DA PUSH2 0x3016 JUMP JUMPDEST PUSH1 0x20 MUL PUSH1 0x20 ADD ADD MLOAD PUSH1 0x1 PUSH1 0x1 PUSH1 0xA0 SHL SUB AND DUP3 PUSH32 0x62F12B06523C734CCA73AA1502A5F967C8E09D0A2F084FD36ACBAC47F54B0D4E PUSH1 0x40 MLOAD PUSH1 0x40 MLOAD DUP1 SWAP2 SUB SWAP1 LOG3 DUP1 PUSH2 0x2122 DUP2 PUSH2 0x3055 JUMP JUMPDEST SWAP2 POP POP PUSH2 0x1FC0 JUMP JUMPDEST POP POP JUMPDEST PUSH2 0x102 SLOAD ISZERO PUSH2 0x231F JUMPI PUSH2 0x102 SLOAD PUSH2 0x101 SLOAD PUSH1 0x0 SWAP2 SWAP1 PUSH1 0x64 SWAP1 PUSH2 0x214F SWAP1 DUP15 PUSH2 0x31A6 JUMP JUMPDEST PUSH2 0x2159 SWAP2 SWAP1 PUSH2 0x31D3 JUMP JUMPDEST PUSH2 0x2163 SWAP2 SWAP1 PUSH2 0x31D3 JUMP JUMPDEST PUSH2 0x102 SLOAD PUSH1 0x40 DUP1 MLOAD TIMESTAMP PUSH1 0x20 DUP3 ADD MSTORE DIFFICULTY SWAP2 DUP2 ADD SWAP2 SWAP1 SWAP2 MSTORE SWAP2 SWAP3 POP PUSH1 0x0 SWAP2 PUSH1 0x60 ADD PUSH1 0x40 MLOAD PUSH1 0x20 DUP2 DUP4 SUB SUB DUP2 MSTORE SWAP1 PUSH1 0x40 MSTORE DUP1 MLOAD SWAP1 PUSH1 0x20 ADD KECCAK256 PUSH1 0x0 SHR PUSH2 0x21A5 SWAP2 SWAP1 PUSH2 0x31E7 JUMP JUMPDEST SWAP1 POP DUP10 PUSH1 0x1 PUSH1 0x1 PUSH1 0xA0 SHL SUB AND PUSH4 0xB70CC4C1 PUSH1 0x40 MLOAD DUP2 PUSH4 0xFFFFFFFF AND PUSH1 0xE0 SHL DUP2 MSTORE PUSH1 0x4 ADD PUSH1 0x20 PUSH1 0x40 MLOAD DUP1 DUP4 SUB DUP2 DUP7 GAS STATICCALL ISZERO DUP1 ISZERO PUSH2 0x21E5 JUMPI RETURNDATASIZE PUSH1 0x0 DUP1 RETURNDATACOPY RETURNDATASIZE PUSH1 0x0 REVERT JUMPDEST POP POP POP POP PUSH1 0x40 MLOAD RETURNDATASIZE PUSH1 0x1F NOT PUSH1 0x1F DUP3 ADD AND DUP3 ADD DUP1 PUSH1 0x40 MSTORE POP DUP2 ADD SWAP1 PUSH2 0x2209 SWAP2 SWAP1 PUSH2 0x306E JUMP JUMPDEST PUSH1 0x1 PUSH1 0x1 PUSH1 0xA0 SHL SUB AND PUSH4 0xA9059CBB PUSH2 0x102 DUP4 DUP2 SLOAD DUP2 LT PUSH2 0x222B JUMPI PUSH2 0x222B PUSH2 0x3016 JUMP JUMPDEST PUSH1 0x0 SWAP2 DUP3 MSTORE PUSH1 0x20 SWAP1 SWAP2 KECCAK256 ADD SLOAD PUSH1 0x40 MLOAD PUSH1 0xE0 DUP4 SWAP1 SHL PUSH1 0x1 PUSH1 0x1 PUSH1 0xE0 SHL SUB NOT AND DUP2 MSTORE PUSH1 0x1 PUSH1 0x1 PUSH1 0xA0 SHL SUB SWAP1 SWAP2 AND PUSH1 0x4 DUP3 ADD MSTORE PUSH1 0x24 DUP2 ADD DUP6 SWAP1 MSTORE PUSH1 0x44 ADD PUSH1 0x20 PUSH1 0x40 MLOAD DUP1 DUP4 SUB DUP2 PUSH1 0x0 DUP8 GAS CALL ISZERO DUP1 ISZERO PUSH2 0x2284 JUMPI RETURNDATASIZE PUSH1 0x0 DUP1 RETURNDATACOPY RETURNDATASIZE PUSH1 0x0 REVERT JUMPDEST POP POP POP POP PUSH1 0x40 MLOAD RETURNDATASIZE PUSH1 0x1F NOT PUSH1 0x1F DUP3 ADD AND DUP3 ADD DUP1 PUSH1 0x40 MSTORE POP DUP2 ADD SWAP1 PUSH2 0x22A8 SWAP2 SWAP1 PUSH2 0x30CD JUMP JUMPDEST POP PUSH32 0x51E673AC98F0EA063CE27EB5AF807D22B97CD11CD79380CF1F711AD80948046C DUP3 PUSH2 0x102 DUP4 DUP2 SLOAD DUP2 LT PUSH2 0x22DF JUMPI PUSH2 0x22DF PUSH2 0x3016 JUMP JUMPDEST PUSH1 0x0 SWAP2 DUP3 MSTORE PUSH1 0x20 SWAP1 SWAP2 KECCAK256 ADD SLOAD PUSH1 0x40 MLOAD PUSH2 0x2314 SWAP3 SWAP2 PUSH1 0x1 PUSH1 0x1 PUSH1 0xA0 SHL SUB AND SWAP1 SWAP2 DUP3 MSTORE PUSH1 0x1 PUSH1 0x1 PUSH1 0xA0 SHL SUB AND PUSH1 0x20 DUP3 ADD MSTORE PUSH1 0x40 ADD SWAP1 JUMP JUMPDEST PUSH1 0x40 MLOAD DUP1 SWAP2 SUB SWAP1 LOG1 POP POP JUMPDEST DUP2 ISZERO PUSH2 0x24BF JUMPI PUSH1 0x0 DUP3 PUSH1 0x64 PUSH2 0x108 SLOAD DUP14 PUSH2 0x2339 SWAP2 SWAP1 PUSH2 0x31A6 JUMP JUMPDEST PUSH2 0x2343 SWAP2 SWAP1 PUSH2 0x31D3 JUMP JUMPDEST PUSH2 0x234D SWAP2 SWAP1 PUSH2 0x31D3 JUMP JUMPDEST SWAP1 POP PUSH1 0x0 JUMPDEST DUP4 DUP2 LT ISZERO PUSH2 0x24BC JUMPI DUP10 PUSH1 0x1 PUSH1 0x1 PUSH1 0xA0 SHL SUB AND PUSH4 0xB70CC4C1 PUSH1 0x40 MLOAD DUP2 PUSH4 0xFFFFFFFF AND PUSH1 0xE0 SHL DUP2 MSTORE PUSH1 0x4 ADD PUSH1 0x20 PUSH1 0x40 MLOAD DUP1 DUP4 SUB DUP2 DUP7 GAS STATICCALL ISZERO DUP1 ISZERO PUSH2 0x2398 JUMPI RETURNDATASIZE PUSH1 0x0 DUP1 RETURNDATACOPY RETURNDATASIZE PUSH1 0x0 REVERT JUMPDEST POP POP POP POP PUSH1 0x40 MLOAD RETURNDATASIZE PUSH1 0x1F NOT PUSH1 0x1F DUP3 ADD AND DUP3 ADD DUP1 PUSH1 0x40 MSTORE POP DUP2 ADD SWAP1 PUSH2 0x23BC SWAP2 SWAP1 PUSH2 0x306E JUMP JUMPDEST PUSH1 0x1 PUSH1 0x1 PUSH1 0xA0 SHL SUB AND PUSH4 0xA9059CBB DUP7 DUP4 DUP2 MLOAD DUP2 LT PUSH2 0x23DC JUMPI PUSH2 0x23DC PUSH2 0x3016 JUMP JUMPDEST PUSH1 0x20 MUL PUSH1 0x20 ADD ADD MLOAD DUP5 PUSH1 0x40 MLOAD DUP4 PUSH4 0xFFFFFFFF AND PUSH1 0xE0 SHL DUP2 MSTORE PUSH1 0x4 ADD PUSH2 0x2416 SWAP3 SWAP2 SWAP1 PUSH1 0x1 PUSH1 0x1 PUSH1 0xA0 SHL SUB SWAP3 SWAP1 SWAP3 AND DUP3 MSTORE PUSH1 0x20 DUP3 ADD MSTORE PUSH1 0x40 ADD SWAP1 JUMP JUMPDEST PUSH1 0x20 PUSH1 0x40 MLOAD DUP1 DUP4 SUB DUP2 PUSH1 0x0 DUP8 GAS CALL ISZERO DUP1 ISZERO PUSH2 0x2435 JUMPI RETURNDATASIZE PUSH1 0x0 DUP1 RETURNDATACOPY RETURNDATASIZE PUSH1 0x0 REVERT JUMPDEST POP POP POP POP PUSH1 0x40 MLOAD RETURNDATASIZE PUSH1 0x1F NOT PUSH1 0x1F DUP3 ADD AND DUP3 ADD DUP1 PUSH1 0x40 MSTORE POP DUP2 ADD SWAP1 PUSH2 0x2459 SWAP2 SWAP1 PUSH2 0x30CD JUMP JUMPDEST POP DUP5 DUP2 DUP2 MLOAD DUP2 LT PUSH2 0x246C JUMPI PUSH2 0x246C PUSH2 0x3016 JUMP JUMPDEST PUSH1 0x20 MUL PUSH1 0x20 ADD ADD MLOAD PUSH1 0x1 PUSH1 0x1 PUSH1 0xA0 SHL SUB AND DUP3 PUSH32 0x6D550262135215FE2F5EF9B6FAD45DB8CF51267248F8B95E069F8025F6F9049A PUSH1 0x40 MLOAD PUSH1 0x40 MLOAD DUP1 SWAP2 SUB SWAP1 LOG3 DUP1 PUSH2 0x24B4 DUP2 PUSH2 0x3055 JUMP JUMPDEST SWAP2 POP POP PUSH2 0x2352 JUMP JUMPDEST POP POP JUMPDEST DUP1 PUSH1 0xFF PUSH1 0x0 DUP3 DUP3 SLOAD PUSH2 0x24D1 SWAP2 SWAP1 PUSH2 0x3042 JUMP JUMPDEST SWAP1 SWAP2 SSTORE POP POP POP POP POP POP POP POP POP POP POP POP JUMP JUMPDEST PUSH1 0x65 SLOAD PUSH1 0x1 PUSH1 0x1 PUSH1 0xA0 SHL SUB AND CALLER EQ PUSH2 0x9D7 JUMPI PUSH1 0x40 MLOAD PUSH3 0x461BCD PUSH1 0xE5 SHL DUP2 MSTORE PUSH1 0x20 PUSH1 0x4 DUP3 ADD DUP2 SWAP1 MSTORE PUSH1 0x24 DUP3 ADD MSTORE PUSH32 0x4F776E61626C653A2063616C6C6572206973206E6F7420746865206F776E6572 PUSH1 0x44 DUP3 ADD MSTORE PUSH1 0x64 ADD PUSH2 0x7AF JUMP JUMPDEST PUSH2 0x9C4 PUSH2 0x24E2 JUMP JUMPDEST PUSH32 0x4910FDFA16FED3260ED0E7147F7CC6DA11A60208B5B9406D12A635614FFD9143 SLOAD PUSH1 0xFF AND ISZERO PUSH2 0x2577 JUMPI PUSH2 0x8CF DUP4 PUSH2 0x2815 JUMP JUMPDEST DUP3 PUSH1 0x1 PUSH1 0x1 PUSH1 0xA0 SHL SUB AND PUSH4 0x52D1902D PUSH1 0x40 MLOAD DUP2 PUSH4 0xFFFFFFFF AND PUSH1 0xE0 SHL DUP2 MSTORE PUSH1 0x4 ADD PUSH1 0x20 PUSH1 0x40 MLOAD DUP1 DUP4 SUB DUP2 DUP7 GAS STATICCALL SWAP3 POP POP POP DUP1 ISZERO PUSH2 0x25D1 JUMPI POP PUSH1 0x40 DUP1 MLOAD PUSH1 0x1F RETURNDATASIZE SWAP1 DUP2 ADD PUSH1 0x1F NOT AND DUP3 ADD SWAP1 SWAP3 MSTORE PUSH2 0x25CE SWAP2 DUP2 ADD SWAP1 PUSH2 0x31FB JUMP JUMPDEST PUSH1 0x1 JUMPDEST PUSH2 0x2634 JUMPI PUSH1 0x40 MLOAD PUSH3 0x461BCD PUSH1 0xE5 SHL DUP2 MSTORE PUSH1 0x20 PUSH1 0x4 DUP3 ADD MSTORE PUSH1 0x2E PUSH1 0x24 DUP3 ADD MSTORE PUSH32 0x45524331393637557067726164653A206E657720696D706C656D656E74617469 PUSH1 0x44 DUP3 ADD MSTORE PUSH14 0x6F6E206973206E6F742055555053 PUSH1 0x90 SHL PUSH1 0x64 DUP3 ADD MSTORE PUSH1 0x84 ADD PUSH2 0x7AF JUMP JUMPDEST PUSH1 0x0 DUP1 MLOAD PUSH1 0x20 PUSH2 0x32D3 DUP4 CODECOPY DUP2 MLOAD SWAP2 MSTORE DUP2 EQ PUSH2 0x26A3 JUMPI PUSH1 0x40 MLOAD PUSH3 0x461BCD PUSH1 0xE5 SHL DUP2 MSTORE PUSH1 0x20 PUSH1 0x4 DUP3 ADD MSTORE PUSH1 0x29 PUSH1 0x24 DUP3 ADD MSTORE PUSH32 0x45524331393637557067726164653A20756E737570706F727465642070726F78 PUSH1 0x44 DUP3 ADD MSTORE PUSH9 0x1A58589B1955555251 PUSH1 0xBA SHL PUSH1 0x64 DUP3 ADD MSTORE PUSH1 0x84 ADD PUSH2 0x7AF JUMP JUMPDEST POP PUSH2 0x8CF DUP4 DUP4 DUP4 PUSH2 0x28B1 JUMP JUMPDEST PUSH2 0x26B7 PUSH2 0x28D6 JUMP JUMPDEST PUSH1 0x33 DUP1 SLOAD PUSH1 0xFF NOT AND SWAP1 SSTORE PUSH32 0x5DB9EE0A495BF2E6FF9C91A7834C1BA4FDD244A5E8AA4E537BD38AEAE4B073AA CALLER JUMPDEST PUSH1 0x40 MLOAD PUSH1 0x1 PUSH1 0x1 PUSH1 0xA0 SHL SUB SWAP1 SWAP2 AND DUP2 MSTORE PUSH1 0x20 ADD PUSH1 0x40 MLOAD DUP1 SWAP2 SUB SWAP1 LOG1 JUMP JUMPDEST PUSH1 0x65 DUP1 SLOAD PUSH1 0x1 PUSH1 0x1 PUSH1 0xA0 SHL SUB DUP4 DUP2 AND PUSH1 0x1 PUSH1 0x1 PUSH1 0xA0 SHL SUB NOT DUP4 AND DUP2 OR SWAP1 SWAP4 SSTORE PUSH1 0x40 MLOAD SWAP2 AND SWAP2 SWAP1 DUP3 SWAP1 PUSH32 0x8BE0079C531659141344CD1FD0A4F28419497F9722A3DAAFE3B4186F6B6457E0 SWAP1 PUSH1 0x0 SWAP1 LOG3 POP POP JUMP JUMPDEST PUSH1 0x0 SLOAD PUSH2 0x100 SWAP1 DIV PUSH1 0xFF AND PUSH2 0x277A JUMPI PUSH1 0x40 MLOAD PUSH3 0x461BCD PUSH1 0xE5 SHL DUP2 MSTORE PUSH1 0x4 ADD PUSH2 0x7AF SWAP1 PUSH2 0x3214 JUMP JUMPDEST PUSH2 0x9D7 PUSH2 0x291F JUMP JUMPDEST PUSH1 0x0 SLOAD PUSH2 0x100 SWAP1 DIV PUSH1 0xFF AND PUSH2 0x27A9 JUMPI PUSH1 0x40 MLOAD PUSH3 0x461BCD PUSH1 0xE5 SHL DUP2 MSTORE PUSH1 0x4 ADD PUSH2 0x7AF SWAP1 PUSH2 0x3214 JUMP JUMPDEST PUSH2 0x9D7 PUSH2 0x2952 JUMP JUMPDEST PUSH1 0x0 SLOAD PUSH2 0x100 SWAP1 DIV PUSH1 0xFF AND PUSH2 0x9D7 JUMPI PUSH1 0x40 MLOAD PUSH3 0x461BCD PUSH1 0xE5 SHL DUP2 MSTORE PUSH1 0x4 ADD PUSH2 0x7AF SWAP1 PUSH2 0x3214 JUMP JUMPDEST PUSH2 0x27E0 PUSH2 0x2982 JUMP JUMPDEST PUSH1 0x33 DUP1 SLOAD PUSH1 0xFF NOT AND PUSH1 0x1 OR SWAP1 SSTORE PUSH32 0x62E78CEA01BEE320CD4E420270B5EA74000D11B0C9F74754EBDBFC544B05A258 PUSH2 0x26E4 CALLER SWAP1 JUMP JUMPDEST PUSH1 0x1 PUSH1 0x1 PUSH1 0xA0 SHL SUB DUP2 AND EXTCODESIZE PUSH2 0x2882 JUMPI PUSH1 0x40 MLOAD PUSH3 0x461BCD PUSH1 0xE5 SHL DUP2 MSTORE PUSH1 0x20 PUSH1 0x4 DUP3 ADD MSTORE PUSH1 0x2D PUSH1 0x24 DUP3 ADD MSTORE PUSH32 0x455243313936373A206E657720696D706C656D656E746174696F6E206973206E PUSH1 0x44 DUP3 ADD MSTORE PUSH13 0x1BDD08184818DBDB9D1C9858DD PUSH1 0x9A SHL PUSH1 0x64 DUP3 ADD MSTORE PUSH1 0x84 ADD PUSH2 0x7AF JUMP JUMPDEST PUSH1 0x0 DUP1 MLOAD PUSH1 0x20 PUSH2 0x32D3 DUP4 CODECOPY DUP2 MLOAD SWAP2 MSTORE DUP1 SLOAD PUSH1 0x1 PUSH1 0x1 PUSH1 0xA0 SHL SUB NOT AND PUSH1 0x1 PUSH1 0x1 PUSH1 0xA0 SHL SUB SWAP3 SWAP1 SWAP3 AND SWAP2 SWAP1 SWAP2 OR SWAP1 SSTORE JUMP JUMPDEST PUSH2 0x28BA DUP4 PUSH2 0x29C8 JUMP JUMPDEST PUSH1 0x0 DUP3 MLOAD GT DUP1 PUSH2 0x28C7 JUMPI POP DUP1 JUMPDEST ISZERO PUSH2 0x8CF JUMPI PUSH2 0x850 DUP4 DUP4 PUSH2 0x2A08 JUMP JUMPDEST PUSH1 0x33 SLOAD PUSH1 0xFF AND PUSH2 0x9D7 JUMPI PUSH1 0x40 MLOAD PUSH3 0x461BCD PUSH1 0xE5 SHL DUP2 MSTORE PUSH1 0x20 PUSH1 0x4 DUP3 ADD MSTORE PUSH1 0x14 PUSH1 0x24 DUP3 ADD MSTORE PUSH20 0x14185D5CD8589B194E881B9BDD081C185D5CD959 PUSH1 0x62 SHL PUSH1 0x44 DUP3 ADD MSTORE PUSH1 0x64 ADD PUSH2 0x7AF JUMP JUMPDEST PUSH1 0x0 SLOAD PUSH2 0x100 SWAP1 DIV PUSH1 0xFF AND PUSH2 0x2946 JUMPI PUSH1 0x40 MLOAD PUSH3 0x461BCD PUSH1 0xE5 SHL DUP2 MSTORE PUSH1 0x4 ADD PUSH2 0x7AF SWAP1 PUSH2 0x3214 JUMP JUMPDEST PUSH1 0x33 DUP1 SLOAD PUSH1 0xFF NOT AND SWAP1 SSTORE JUMP JUMPDEST PUSH1 0x0 SLOAD PUSH2 0x100 SWAP1 DIV PUSH1 0xFF AND PUSH2 0x2979 JUMPI PUSH1 0x40 MLOAD PUSH3 0x461BCD PUSH1 0xE5 SHL DUP2 MSTORE PUSH1 0x4 ADD PUSH2 0x7AF SWAP1 PUSH2 0x3214 JUMP JUMPDEST PUSH2 0x9D7 CALLER PUSH2 0x2701 JUMP JUMPDEST PUSH1 0x33 SLOAD PUSH1 0xFF AND ISZERO PUSH2 0x9D7 JUMPI PUSH1 0x40 MLOAD PUSH3 0x461BCD PUSH1 0xE5 SHL DUP2 MSTORE PUSH1 0x20 PUSH1 0x4 DUP3 ADD MSTORE PUSH1 0x10 PUSH1 0x24 DUP3 ADD MSTORE PUSH16 0x14185D5CD8589B194E881C185D5CD959 PUSH1 0x82 SHL PUSH1 0x44 DUP3 ADD MSTORE PUSH1 0x64 ADD PUSH2 0x7AF JUMP JUMPDEST PUSH2 0x29D1 DUP2 PUSH2 0x2815 JUMP JUMPDEST PUSH1 0x40 MLOAD PUSH1 0x1 PUSH1 0x1 PUSH1 0xA0 SHL SUB DUP3 AND SWAP1 PUSH32 0xBC7CD75A20EE27FD9ADEBAB32041F755214DBC6BFFA90CC0225B39DA2E5C2D3B SWAP1 PUSH1 0x0 SWAP1 LOG2 POP JUMP JUMPDEST PUSH1 0x60 PUSH1 0x1 PUSH1 0x1 PUSH1 0xA0 SHL SUB DUP4 AND EXTCODESIZE PUSH2 0x2A70 JUMPI PUSH1 0x40 MLOAD PUSH3 0x461BCD PUSH1 0xE5 SHL DUP2 MSTORE PUSH1 0x20 PUSH1 0x4 DUP3 ADD MSTORE PUSH1 0x26 PUSH1 0x24 DUP3 ADD MSTORE PUSH32 0x416464726573733A2064656C65676174652063616C6C20746F206E6F6E2D636F PUSH1 0x44 DUP3 ADD MSTORE PUSH6 0x1B9D1C9858DD PUSH1 0xD2 SHL PUSH1 0x64 DUP3 ADD MSTORE PUSH1 0x84 ADD PUSH2 0x7AF JUMP JUMPDEST PUSH1 0x0 DUP1 DUP5 PUSH1 0x1 PUSH1 0x1 PUSH1 0xA0 SHL SUB AND DUP5 PUSH1 0x40 MLOAD PUSH2 0x2A8B SWAP2 SWAP1 PUSH2 0x3283 JUMP JUMPDEST PUSH1 0x0 PUSH1 0x40 MLOAD DUP1 DUP4 SUB DUP2 DUP6 GAS DELEGATECALL SWAP2 POP POP RETURNDATASIZE DUP1 PUSH1 0x0 DUP2 EQ PUSH2 0x2AC6 JUMPI PUSH1 0x40 MLOAD SWAP2 POP PUSH1 0x1F NOT PUSH1 0x3F RETURNDATASIZE ADD AND DUP3 ADD PUSH1 0x40 MSTORE RETURNDATASIZE DUP3 MSTORE RETURNDATASIZE PUSH1 0x0 PUSH1 0x20 DUP5 ADD RETURNDATACOPY PUSH2 0x2ACB JUMP JUMPDEST PUSH1 0x60 SWAP2 POP JUMPDEST POP SWAP2 POP SWAP2 POP PUSH2 0x2AF3 DUP3 DUP3 PUSH1 0x40 MLOAD DUP1 PUSH1 0x60 ADD PUSH1 0x40 MSTORE DUP1 PUSH1 0x27 DUP2 MSTORE PUSH1 0x20 ADD PUSH2 0x32F3 PUSH1 0x27 SWAP2 CODECOPY PUSH2 0x2AFC JUMP JUMPDEST SWAP6 SWAP5 POP POP POP POP POP JUMP JUMPDEST PUSH1 0x60 DUP4 ISZERO PUSH2 0x2B0B JUMPI POP DUP2 PUSH2 0x2B15 JUMP JUMPDEST PUSH2 0x2B15 DUP4 DUP4 PUSH2 0x2B1C JUMP JUMPDEST SWAP4 SWAP3 POP POP POP JUMP JUMPDEST DUP2 MLOAD ISZERO PUSH2 0x2B2C JUMPI DUP2 MLOAD DUP1 DUP4 PUSH1 0x20 ADD REVERT JUMPDEST DUP1 PUSH1 0x40 MLOAD PUSH3 0x461BCD PUSH1 0xE5 SHL DUP2 MSTORE PUSH1 0x4 ADD PUSH2 0x7AF SWAP2 SWAP1 PUSH2 0x329F JUMP JUMPDEST DUP3 DUP1 SLOAD DUP3 DUP3 SSTORE SWAP1 PUSH1 0x0 MSTORE PUSH1 0x20 PUSH1 0x0 KECCAK256 SWAP1 DUP2 ADD SWAP3 DUP3 ISZERO PUSH2 0x2B81 JUMPI SWAP2 PUSH1 0x20 MUL DUP3 ADD JUMPDEST DUP3 DUP2 GT ISZERO PUSH2 0x2B81 JUMPI DUP3 CALLDATALOAD DUP3 SSTORE SWAP2 PUSH1 0x20 ADD SWAP2 SWAP1 PUSH1 0x1 ADD SWAP1 PUSH2 0x2B66 JUMP JUMPDEST POP PUSH2 0x2B8D SWAP3 SWAP2 POP PUSH2 0x2BD1 JUMP JUMPDEST POP SWAP1 JUMP JUMPDEST DUP3 DUP1 SLOAD DUP3 DUP3 SSTORE SWAP1 PUSH1 0x0 MSTORE PUSH1 0x20 PUSH1 0x0 KECCAK256 SWAP1 DUP2 ADD SWAP3 DUP3 ISZERO PUSH2 0x2B81 JUMPI SWAP2 PUSH1 0x20 MUL DUP3 ADD JUMPDEST DUP3 DUP2 GT ISZERO PUSH2 0x2B81 JUMPI DUP3 MLOAD DUP3 SWAP1 PUSH1 0xFF AND SWAP1 SSTORE SWAP2 PUSH1 0x20 ADD SWAP2 SWAP1 PUSH1 0x1 ADD SWAP1 PUSH2 0x2BB1 JUMP JUMPDEST JUMPDEST DUP1 DUP3 GT ISZERO PUSH2 0x2B8D JUMPI PUSH1 0x0 DUP2 SSTORE PUSH1 0x1 ADD PUSH2 0x2BD2 JUMP JUMPDEST PUSH1 0x1 PUSH1 0x1 PUSH1 0xA0 SHL SUB DUP2 AND DUP2 EQ PUSH2 0x9C4 JUMPI PUSH1 0x0 DUP1 REVERT JUMPDEST PUSH1 0x0 PUSH1 0x20 DUP3 DUP5 SUB SLT ISZERO PUSH2 0x2C0D JUMPI PUSH1 0x0 DUP1 REVERT JUMPDEST DUP2 CALLDATALOAD PUSH2 0x2B15 DUP2 PUSH2 0x2BE6 JUMP JUMPDEST PUSH1 0x0 DUP1 PUSH1 0x40 DUP4 DUP6 SUB SLT ISZERO PUSH2 0x2C2B JUMPI PUSH1 0x0 DUP1 REVERT JUMPDEST DUP3 CALLDATALOAD PUSH2 0x2C36 DUP2 PUSH2 0x2BE6 JUMP JUMPDEST SWAP5 PUSH1 0x20 SWAP4 SWAP1 SWAP4 ADD CALLDATALOAD SWAP4 POP POP POP JUMP JUMPDEST PUSH1 0x0 DUP1 PUSH1 0x0 PUSH1 0x60 DUP5 DUP7 SUB SLT ISZERO PUSH2 0x2C59 JUMPI PUSH1 0x0 DUP1 REVERT JUMPDEST DUP4 CALLDATALOAD SWAP3 POP PUSH1 0x20 DUP5 ADD CALLDATALOAD PUSH2 0x2C6B DUP2 PUSH2 0x2BE6 JUMP JUMPDEST SWAP2 POP PUSH1 0x40 DUP5 ADD CALLDATALOAD PUSH2 0x2C7B DUP2 PUSH2 0x2BE6 JUMP JUMPDEST DUP1 SWAP2 POP POP SWAP3 POP SWAP3 POP SWAP3 JUMP JUMPDEST PUSH1 0x0 DUP1 PUSH1 0x20 DUP4 DUP6 SUB SLT ISZERO PUSH2 0x2C99 JUMPI PUSH1 0x0 DUP1 REVERT JUMPDEST DUP3 CALLDATALOAD PUSH8 0xFFFFFFFFFFFFFFFF DUP1 DUP3 GT ISZERO PUSH2 0x2CB1 JUMPI PUSH1 0x0 DUP1 REVERT JUMPDEST DUP2 DUP6 ADD SWAP2 POP DUP6 PUSH1 0x1F DUP4 ADD SLT PUSH2 0x2CC5 JUMPI PUSH1 0x0 DUP1 REVERT JUMPDEST DUP2 CALLDATALOAD DUP2 DUP2 GT ISZERO PUSH2 0x2CD4 JUMPI PUSH1 0x0 DUP1 REVERT JUMPDEST DUP7 PUSH1 0x20 DUP3 PUSH1 0x5 SHL DUP6 ADD ADD GT ISZERO PUSH2 0x2CE9 JUMPI PUSH1 0x0 DUP1 REVERT JUMPDEST PUSH1 0x20 SWAP3 SWAP1 SWAP3 ADD SWAP7 SWAP2 SWAP6 POP SWAP1 SWAP4 POP POP POP POP JUMP JUMPDEST PUSH4 0x4E487B71 PUSH1 0xE0 SHL PUSH1 0x0 MSTORE PUSH1 0x41 PUSH1 0x4 MSTORE PUSH1 0x24 PUSH1 0x0 REVERT JUMPDEST PUSH1 0x0 DUP1 PUSH1 0x40 DUP4 DUP6 SUB SLT ISZERO PUSH2 0x2D24 JUMPI PUSH1 0x0 DUP1 REVERT JUMPDEST DUP3 CALLDATALOAD PUSH2 0x2D2F DUP2 PUSH2 0x2BE6 JUMP JUMPDEST SWAP2 POP PUSH1 0x20 DUP4 ADD CALLDATALOAD PUSH8 0xFFFFFFFFFFFFFFFF DUP1 DUP3 GT ISZERO PUSH2 0x2D4C JUMPI PUSH1 0x0 DUP1 REVERT JUMPDEST DUP2 DUP6 ADD SWAP2 POP DUP6 PUSH1 0x1F DUP4 ADD SLT PUSH2 0x2D60 JUMPI PUSH1 0x0 DUP1 REVERT JUMPDEST DUP2 CALLDATALOAD DUP2 DUP2 GT ISZERO PUSH2 0x2D72 JUMPI PUSH2 0x2D72 PUSH2 0x2CFB JUMP JUMPDEST PUSH1 0x40 MLOAD PUSH1 0x1F DUP3 ADD PUSH1 0x1F NOT SWAP1 DUP2 AND PUSH1 0x3F ADD AND DUP2 ADD SWAP1 DUP4 DUP3 GT DUP2 DUP4 LT OR ISZERO PUSH2 0x2D9A JUMPI PUSH2 0x2D9A PUSH2 0x2CFB JUMP JUMPDEST DUP2 PUSH1 0x40 MSTORE DUP3 DUP2 MSTORE DUP9 PUSH1 0x20 DUP5 DUP8 ADD ADD GT ISZERO PUSH2 0x2DB3 JUMPI PUSH1 0x0 DUP1 REVERT JUMPDEST DUP3 PUSH1 0x20 DUP7 ADD PUSH1 0x20 DUP4 ADD CALLDATACOPY PUSH1 0x0 PUSH1 0x20 DUP5 DUP4 ADD ADD MSTORE DUP1 SWAP6 POP POP POP POP POP POP SWAP3 POP SWAP3 SWAP1 POP JUMP JUMPDEST PUSH1 0x0 DUP2 MLOAD DUP1 DUP5 MSTORE PUSH1 0x20 DUP1 DUP6 ADD SWAP5 POP DUP1 DUP5 ADD PUSH1 0x0 JUMPDEST DUP4 DUP2 LT ISZERO PUSH2 0x2E05 JUMPI DUP2 MLOAD DUP8 MSTORE SWAP6 DUP3 ADD SWAP6 SWAP1 DUP3 ADD SWAP1 PUSH1 0x1 ADD PUSH2 0x2DE9 JUMP JUMPDEST POP SWAP5 SWAP6 SWAP5 POP POP POP POP POP JUMP JUMPDEST PUSH1 0x40 DUP2 MSTORE PUSH1 0x0 PUSH2 0x2E23 PUSH1 0x40 DUP4 ADD DUP6 PUSH2 0x2DD5 JUMP JUMPDEST DUP3 DUP2 SUB PUSH1 0x20 DUP5 ADD MSTORE PUSH2 0x2AF3 DUP2 DUP6 PUSH2 0x2DD5 JUMP JUMPDEST PUSH1 0x20 DUP2 MSTORE PUSH1 0x0 PUSH2 0x2B15 PUSH1 0x20 DUP4 ADD DUP5 PUSH2 0x2DD5 JUMP JUMPDEST PUSH1 0x0 DUP1 PUSH1 0x40 DUP4 DUP6 SUB SLT ISZERO PUSH2 0x2E5B JUMPI PUSH1 0x0 DUP1 REVERT JUMPDEST DUP3 CALLDATALOAD PUSH2 0x2E66 DUP2 PUSH2 0x2BE6 JUMP JUMPDEST SWAP2 POP PUSH1 0x20 DUP4 ADD CALLDATALOAD PUSH2 0x2E76 DUP2 PUSH2 0x2BE6 JUMP JUMPDEST DUP1 SWAP2 POP POP SWAP3 POP SWAP3 SWAP1 POP JUMP JUMPDEST PUSH1 0x0 PUSH1 0x20 DUP3 DUP5 SUB SLT ISZERO PUSH2 0x2E93 JUMPI PUSH1 0x0 DUP1 REVERT JUMPDEST POP CALLDATALOAD SWAP2 SWAP1 POP JUMP JUMPDEST PUSH1 0x0 DUP2 MLOAD DUP1 DUP5 MSTORE PUSH1 0x20 DUP1 DUP6 ADD SWAP5 POP DUP1 DUP5 ADD PUSH1 0x0 JUMPDEST DUP4 DUP2 LT ISZERO PUSH2 0x2E05 JUMPI DUP2 MLOAD PUSH1 0x1 PUSH1 0x1 PUSH1 0xA0 SHL SUB AND DUP8 MSTORE SWAP6 DUP3 ADD SWAP6 SWAP1 DUP3 ADD SWAP1 PUSH1 0x1 ADD PUSH2 0x2EAE JUMP JUMPDEST PUSH1 0x80 DUP2 MSTORE PUSH1 0x0 PUSH2 0x2EE6 PUSH1 0x80 DUP4 ADD DUP8 PUSH2 0x2E9A JUMP JUMPDEST DUP6 PUSH1 0x20 DUP5 ADD MSTORE DUP3 DUP2 SUB PUSH1 0x40 DUP5 ADD MSTORE PUSH2 0x2EFE DUP2 DUP7 PUSH2 0x2E9A JUMP JUMPDEST SWAP2 POP POP DUP3 PUSH1 0x60 DUP4 ADD MSTORE SWAP6 SWAP5 POP POP POP POP POP JUMP JUMPDEST PUSH1 0x20 DUP2 MSTORE PUSH2 0x2F2A PUSH1 0x20 DUP3 ADD DUP4 MLOAD PUSH1 0x1 PUSH1 0x1 PUSH1 0xA0 SHL SUB AND SWAP1 MSTORE JUMP JUMPDEST PUSH1 0x0 PUSH1 0x20 DUP4 ADD MLOAD PUSH2 0x100 DUP1 PUSH1 0x40 DUP6 ADD MSTORE PUSH2 0x2F48 PUSH2 0x120 DUP6 ADD DUP4 PUSH2 0x2E9A JUMP JUMPDEST SWAP2 POP PUSH1 0x40 DUP6 ADD MLOAD PUSH1 0x1F NOT DUP1 DUP7 DUP6 SUB ADD PUSH1 0x60 DUP8 ADD MSTORE PUSH2 0x2F66 DUP5 DUP4 PUSH2 0x2E9A JUMP JUMPDEST SWAP4 POP PUSH1 0x60 DUP8 ADD MLOAD PUSH1 0x80 DUP8 ADD MSTORE PUSH1 0x80 DUP8 ADD MLOAD SWAP2 POP DUP1 DUP7 DUP6 SUB ADD PUSH1 0xA0 DUP8 ADD MSTORE PUSH2 0x2F8D DUP5 DUP4 PUSH2 0x2DD5 JUMP JUMPDEST SWAP4 POP PUSH1 0xA0 DUP8 ADD MLOAD SWAP2 POP PUSH2 0x2FA4 PUSH1 0xC0 DUP8 ADD DUP4 ISZERO ISZERO SWAP1 MSTORE JUMP JUMPDEST PUSH1 0xC0 DUP8 ADD MLOAD SWAP2 POP DUP1 DUP7 DUP6 SUB ADD PUSH1 0xE0 DUP8 ADD MSTORE PUSH2 0x2FBF DUP5 DUP4 PUSH2 0x2DD5 JUMP JUMPDEST SWAP4 POP PUSH1 0xE0 DUP8 ADD MLOAD SWAP2 POP DUP1 DUP7 DUP6 SUB ADD DUP4 DUP8 ADD MSTORE POP PUSH2 0x6D0 DUP4 DUP3 PUSH2 0x2DD5 JUMP JUMPDEST DUP5 DUP2 MSTORE PUSH1 0x80 PUSH1 0x20 DUP3 ADD MSTORE PUSH1 0x0 PUSH2 0x2FF5 PUSH1 0x80 DUP4 ADD DUP7 PUSH2 0x2DD5 JUMP JUMPDEST PUSH1 0x40 DUP4 ADD SWAP5 SWAP1 SWAP5 MSTORE POP PUSH1 0x1 PUSH1 0x1 PUSH1 0xA0 SHL SUB SWAP2 SWAP1 SWAP2 AND PUSH1 0x60 SWAP1 SWAP2 ADD MSTORE SWAP3 SWAP2 POP POP JUMP JUMPDEST PUSH4 0x4E487B71 PUSH1 0xE0 SHL PUSH1 0x0 MSTORE PUSH1 0x32 PUSH1 0x4 MSTORE PUSH1 0x24 PUSH1 0x0 REVERT JUMPDEST PUSH4 0x4E487B71 PUSH1 0xE0 SHL PUSH1 0x0 MSTORE PUSH1 0x11 PUSH1 0x4 MSTORE PUSH1 0x24 PUSH1 0x0 REVERT JUMPDEST DUP1 DUP3 ADD DUP1 DUP3 GT ISZERO PUSH2 0x5D2 JUMPI PUSH2 0x5D2 PUSH2 0x302C JUMP JUMPDEST PUSH1 0x0 PUSH1 0x1 DUP3 ADD PUSH2 0x3067 JUMPI PUSH2 0x3067 PUSH2 0x302C JUMP JUMPDEST POP PUSH1 0x1 ADD SWAP1 JUMP JUMPDEST PUSH1 0x0 PUSH1 0x20 DUP3 DUP5 SUB SLT ISZERO PUSH2 0x3080 JUMPI PUSH1 0x0 DUP1 REVERT JUMPDEST DUP2 MLOAD PUSH2 0x2B15 DUP2 PUSH2 0x2BE6 JUMP JUMPDEST PUSH1 0x20 DUP1 DUP3 MSTORE PUSH1 0x22 SWAP1 DUP3 ADD MSTORE PUSH32 0x4F6E6C79206F776E65722063616E2063616C6C20746869732066756E6374696F PUSH1 0x40 DUP3 ADD MSTORE PUSH2 0x3717 PUSH1 0xF1 SHL PUSH1 0x60 DUP3 ADD MSTORE PUSH1 0x80 ADD SWAP1 JUMP JUMPDEST PUSH1 0x0 PUSH1 0x20 DUP3 DUP5 SUB SLT ISZERO PUSH2 0x30DF JUMPI PUSH1 0x0 DUP1 REVERT JUMPDEST DUP2 MLOAD DUP1 ISZERO ISZERO DUP2 EQ PUSH2 0x2B15 JUMPI PUSH1 0x0 DUP1 REVERT JUMPDEST PUSH1 0x20 DUP1 DUP3 MSTORE PUSH1 0x2C SWAP1 DUP3 ADD MSTORE PUSH32 0x46756E6374696F6E206D7573742062652063616C6C6564207468726F75676820 PUSH1 0x40 DUP3 ADD MSTORE PUSH12 0x19195B1959D85D1958D85B1B PUSH1 0xA2 SHL PUSH1 0x60 DUP3 ADD MSTORE PUSH1 0x80 ADD SWAP1 JUMP JUMPDEST PUSH1 0x20 DUP1 DUP3 MSTORE PUSH1 0x2C SWAP1 DUP3 ADD MSTORE PUSH32 0x46756E6374696F6E206D7573742062652063616C6C6564207468726F75676820 PUSH1 0x40 DUP3 ADD MSTORE PUSH12 0x6163746976652070726F7879 PUSH1 0xA0 SHL PUSH1 0x60 DUP3 ADD MSTORE PUSH1 0x80 ADD SWAP1 JUMP JUMPDEST PUSH1 0x0 PUSH1 0xFF DUP3 AND PUSH1 0xFF DUP2 SUB PUSH2 0x319D JUMPI PUSH2 0x319D PUSH2 0x302C JUMP JUMPDEST PUSH1 0x1 ADD SWAP3 SWAP2 POP POP JUMP JUMPDEST DUP1 DUP3 MUL DUP2 ISZERO DUP3 DUP3 DIV DUP5 EQ OR PUSH2 0x5D2 JUMPI PUSH2 0x5D2 PUSH2 0x302C JUMP JUMPDEST PUSH4 0x4E487B71 PUSH1 0xE0 SHL PUSH1 0x0 MSTORE PUSH1 0x12 PUSH1 0x4 MSTORE PUSH1 0x24 PUSH1 0x0 REVERT JUMPDEST PUSH1 0x0 DUP3 PUSH2 0x31E2 JUMPI PUSH2 0x31E2 PUSH2 0x31BD JUMP JUMPDEST POP DIV SWAP1 JUMP JUMPDEST PUSH1 0x0 DUP3 PUSH2 0x31F6 JUMPI PUSH2 0x31F6 PUSH2 0x31BD JUMP JUMPDEST POP MOD SWAP1 JUMP JUMPDEST PUSH1 0x0 PUSH1 0x20 DUP3 DUP5 SUB SLT ISZERO PUSH2 0x320D JUMPI PUSH1 0x0 DUP1 REVERT JUMPDEST POP MLOAD SWAP2 SWAP1 POP JUMP JUMPDEST PUSH1 0x20 DUP1 DUP3 MSTORE PUSH1 0x2B SWAP1 DUP3 ADD MSTORE PUSH32 0x496E697469616C697A61626C653A20636F6E7472616374206973206E6F742069 PUSH1 0x40 DUP3 ADD MSTORE PUSH11 0x6E697469616C697A696E67 PUSH1 0xA8 SHL PUSH1 0x60 DUP3 ADD MSTORE PUSH1 0x80 ADD SWAP1 JUMP JUMPDEST PUSH1 0x0 JUMPDEST DUP4 DUP2 LT ISZERO PUSH2 0x327A JUMPI DUP2 DUP2 ADD MLOAD DUP4 DUP3 ADD MSTORE PUSH1 0x20 ADD PUSH2 0x3262 JUMP JUMPDEST POP POP PUSH1 0x0 SWAP2 ADD MSTORE JUMP JUMPDEST PUSH1 0x0 DUP3 MLOAD PUSH2 0x3295 DUP2 DUP5 PUSH1 0x20 DUP8 ADD PUSH2 0x325F JUMP JUMPDEST SWAP2 SWAP1 SWAP2 ADD SWAP3 SWAP2 POP POP JUMP JUMPDEST PUSH1 0x20 DUP2 MSTORE PUSH1 0x0 DUP3 MLOAD DUP1 PUSH1 0x20 DUP5 ADD MSTORE PUSH2 0x32BE DUP2 PUSH1 0x40 DUP6 ADD PUSH1 0x20 DUP8 ADD PUSH2 0x325F JUMP JUMPDEST PUSH1 0x1F ADD PUSH1 0x1F NOT AND SWAP2 SWAP1 SWAP2 ADD PUSH1 0x40 ADD SWAP3 SWAP2 POP POP JUMP INVALID CALLDATASIZE ADDMOD SWAP5 LOG1 EXTCODESIZE LOG1 LOG3 0x21 MOD PUSH8 0xC828492DB98DCA3E KECCAK256 PUSH23 0xCC3735A920A3CA505D382BBC416464726573733A206C6F PUSH24 0x2D6C6576656C2064656C65676174652063616C6C20666169 PUSH13 0x6564A264697066735822122048 JUMPI JUMPI PUSH24 0x822823BEC73522508B053D76AACCFB85DFE49F78D19E516 SDIV EXP DUP9 SLT PUSH5 0x736F6C6343 STOP ADDMOD GT STOP CALLER "},"methodIdentifiers":{"_userDirectBusinessIsAbove(address,uint256)":"1ee30543","addReferrerAdmin(address,address)":"a0739756","contractDefaults()":"fb5d4526","getUserAccount(address)":"fb47e016","getUserReferrerAddress(address)":"43b4ebf4","getUserRewardPaid(address)":"706aa31d","getUserTeam(address)":"faeda7e5","getUserTotalBusiness(address)":"2405091c","getUserTotalRewardPaid(address)":"ef519dc0","hasReferrer(address)":"18452cd8","initialize()":"8129fc1c","owner()":"8da5cb5b","pause()":"8456cb59","paused()":"5c975abb","payReferralANUSDAdmin(uint256,address,address)":"228159b4","proxiableUUID()":"52d1902d","renounceOwnership()":"715018a6","setDefaultReferrer(address)":"dcf6e819","setLevelDecimals(uint256)":"cfbdb859","setLevelRates(uint256[])":"345b5b85","transferNative(address,uint256)":"7d2e90c2","transferOwnership(address)":"f2fde38b","unpause()":"3f4ba83a","upgradeTo(address)":"3659cfe6","upgradeToAndCall(address,bytes)":"4f1ef286","userTransactionsBlocks(address)":"7393402e","withdrawNative()":"50431ce4","withdrawtokens(address,uint256)":"277bb900"}},"storageLayout":{"storage":[{"astId":527,"contract":"contracts/ReferralUpgradeable.sol:ReferralUpgradeable","label":"_initialized","offset":0,"slot":"0","type":"t_uint8"},{"astId":530,"contract":"contracts/ReferralUpgradeable.sol:ReferralUpgradeable","label":"_initializing","offset":1,"slot":"0","type":"t_bool"},{"astId":1355,"contract":"contracts/ReferralUpgradeable.sol:ReferralUpgradeable","label":"__gap","offset":0,"slot":"1","type":"t_array(t_uint256)50_storage"},{"astId":846,"contract":"contracts/ReferralUpgradeable.sol:ReferralUpgradeable","label":"_paused","offset":0,"slot":"51","type":"t_bool"},{"astId":951,"contract":"contracts/ReferralUpgradeable.sol:ReferralUpgradeable","label":"__gap","offset":0,"slot":"52","type":"t_array(t_uint256)49_storage"},{"astId":10,"contract":"contracts/ReferralUpgradeable.sol:ReferralUpgradeable","label":"_owner","offset":0,"slot":"101","type":"t_address"},{"astId":130,"contract":"contracts/ReferralUpgradeable.sol:ReferralUpgradeable","label":"__gap","offset":0,"slot":"102","type":"t_array(t_uint256)49_storage"},{"astId":509,"contract":"contracts/ReferralUpgradeable.sol:ReferralUpgradeable","label":"__gap","offset":0,"slot":"151","type":"t_array(t_uint256)50_storage"},{"astId":824,"contract":"contracts/ReferralUpgradeable.sol:ReferralUpgradeable","label":"__gap","offset":0,"slot":"201","type":"t_array(t_uint256)50_storage"},{"astId":1791,"contract":"contracts/ReferralUpgradeable.sol:ReferralUpgradeable","label":"_variablesContract","offset":0,"slot":"251","type":"t_address"},{"astId":1794,"contract":"contracts/ReferralUpgradeable.sol:ReferralUpgradeable","label":"_levelRates","offset":0,"slot":"252","type":"t_array(t_uint256)dyn_storage"},{"astId":1796,"contract":"contracts/ReferralUpgradeable.sol:ReferralUpgradeable","label":"_levelDecimals","offset":0,"slot":"253","type":"t_uint256"},{"astId":1799,"contract":"contracts/ReferralUpgradeable.sol:ReferralUpgradeable","label":"userRankBusinessLimit","offset":0,"slot":"254","type":"t_array(t_uint256)dyn_storage"},{"astId":1801,"contract":"contracts/ReferralUpgradeable.sol:ReferralUpgradeable","label":"_totalReferralPaidANUSD","offset":0,"slot":"255","type":"t_uint256"},{"astId":1803,"contract":"contracts/ReferralUpgradeable.sol:ReferralUpgradeable","label":"_defaultReferrer","offset":0,"slot":"256","type":"t_address"},{"astId":1805,"contract":"contracts/ReferralUpgradeable.sol:ReferralUpgradeable","label":"_globalRewardRate","offset":0,"slot":"257","type":"t_uint256"},{"astId":1808,"contract":"contracts/ReferralUpgradeable.sol:ReferralUpgradeable","label":"_globalAddress","offset":0,"slot":"258","type":"t_array(t_address)dyn_storage"},{"astId":1810,"contract":"contracts/ReferralUpgradeable.sol:ReferralUpgradeable","label":"_globalBusinessValue","offset":0,"slot":"259","type":"t_uint256"},{"astId":1812,"contract":"contracts/ReferralUpgradeable.sol:ReferralUpgradeable","label":"_passiveIncomeRate","offset":0,"slot":"260","type":"t_uint256"},{"astId":1814,"contract":"contracts/ReferralUpgradeable.sol:ReferralUpgradeable","label":"_passiveBusinessValue","offset":0,"slot":"261","type":"t_uint256"},{"astId":1816,"contract":"contracts/ReferralUpgradeable.sol:ReferralUpgradeable","label":"_passiveIncomeLevels","offset":0,"slot":"262","type":"t_uint256"},{"astId":1819,"contract":"contracts/ReferralUpgradeable.sol:ReferralUpgradeable","label":"_coreMembers","offset":0,"slot":"263","type":"t_array(t_address)dyn_storage"},{"astId":1821,"contract":"contracts/ReferralUpgradeable.sol:ReferralUpgradeable","label":"_coreRewardRate","offset":0,"slot":"264","type":"t_uint256"},{"astId":1848,"contract":"contracts/ReferralUpgradeable.sol:ReferralUpgradeable","label":"accounts","offset":0,"slot":"265","type":"t_mapping(t_address,t_struct(Account)1843_storage)"}],"types":{"t_address":{"encoding":"inplace","label":"address","numberOfBytes":"20"},"t_array(t_address)dyn_storage":{"base":"t_address","encoding":"dynamic_array","label":"address[]","numberOfBytes":"32"},"t_array(t_uint256)49_storage":{"base":"t_uint256","encoding":"inplace","label":"uint256[49]","numberOfBytes":"1568"},"t_array(t_uint256)50_storage":{"base":"t_uint256","encoding":"inplace","label":"uint256[50]","numberOfBytes":"1600"},"t_array(t_uint256)dyn_storage":{"base":"t_uint256","encoding":"dynamic_array","label":"uint256[]","numberOfBytes":"32"},"t_bool":{"encoding":"inplace","label":"bool","numberOfBytes":"1"},"t_mapping(t_address,t_struct(Account)1843_storage)":{"encoding":"mapping","key":"t_address","label":"mapping(address => struct ReferralUpgradeable.Account)","numberOfBytes":"32","value":"t_struct(Account)1843_storage"},"t_struct(Account)1843_storage":{"encoding":"inplace","label":"struct ReferralUpgradeable.Account","members":[{"astId":1823,"contract":"contracts/ReferralUpgradeable.sol:ReferralUpgradeable","label":"referrer","offset":0,"slot":"0","type":"t_address"},{"astId":1826,"contract":"contracts/ReferralUpgradeable.sol:ReferralUpgradeable","label":"referee","offset":0,"slot":"1","type":"t_array(t_address)dyn_storage"},{"astId":1829,"contract":"contracts/ReferralUpgradeable.sol:ReferralUpgradeable","label":"team","offset":0,"slot":"2","type":"t_array(t_address)dyn_storage"},{"astId":1831,"contract":"contracts/ReferralUpgradeable.sol:ReferralUpgradeable","label":"totalBusinessANUSD","offset":0,"slot":"3","type":"t_uint256"},{"astId":1834,"contract":"contracts/ReferralUpgradeable.sol:ReferralUpgradeable","label":"rewardsPaidANUSD","offset":0,"slot":"4","type":"t_array(t_uint256)dyn_storage"},{"astId":1836,"contract":"contracts/ReferralUpgradeable.sol:ReferralUpgradeable","label":"isInGlobalID","offset":0,"slot":"5","type":"t_bool"},{"astId":1839,"contract":"contracts/ReferralUpgradeable.sol:ReferralUpgradeable","label":"rewardsPaidGlobal","offset":0,"slot":"6","type":"t_array(t_uint256)dyn_storage"},{"astId":1842,"contract":"contracts/ReferralUpgradeable.sol:ReferralUpgradeable","label":"blockNumbers","offset":0,"slot":"7","type":"t_array(t_uint256)dyn_storage"}],"numberOfBytes":"256"},"t_uint256":{"encoding":"inplace","label":"uint256","numberOfBytes":"32"},"t_uint8":{"encoding":"inplace","label":"uint8","numberOfBytes":"1"}}}}}}