{"contracts/ReferralUpgradeable.sol":{"ReferralUpgradeable":{"abi":[{"anonymous":false,"inputs":[{"indexed":false,"internalType":"address","name":"previousAdmin","type":"address"},{"indexed":false,"internalType":"address","name":"newAdmin","type":"address"}],"name":"AdminChanged","type":"event"},{"anonymous":false,"inputs":[{"indexed":true,"internalType":"address","name":"beacon","type":"address"}],"name":"BeaconUpgraded","type":"event"},{"anonymous":false,"inputs":[{"indexed":true,"internalType":"address","name":"userAddressaddress","type":"address"}],"name":"CoreMemberAdded","type":"event"},{"anonymous":false,"inputs":[{"indexed":false,"internalType":"address","name":"userAddress","type":"address"}],"name":"CoreMemberRemoved","type":"event"},{"anonymous":false,"inputs":[{"indexed":true,"internalType":"uint256","name":"value","type":"uint256"},{"indexed":true,"internalType":"address","name":"userAddress","type":"address"}],"name":"CoreMemberRewardPaid","type":"event"},{"anonymous":false,"inputs":[{"indexed":false,"internalType":"address","name":"userAddress","type":"address"}],"name":"GlobalAddressAdded","type":"event"},{"anonymous":false,"inputs":[{"indexed":false,"internalType":"address","name":"userAddress","type":"address"}],"name":"GlobalAddressRemoved","type":"event"},{"anonymous":false,"inputs":[{"indexed":false,"internalType":"uint256","name":"value","type":"uint256"},{"indexed":false,"internalType":"address","name":"userAddress","type":"address"}],"name":"GlobalRewardPaid","type":"event"},{"anonymous":false,"inputs":[{"indexed":false,"internalType":"uint8","name":"version","type":"uint8"}],"name":"Initialized","type":"event"},{"anonymous":false,"inputs":[{"indexed":true,"internalType":"address","name":"previousOwner","type":"address"},{"indexed":true,"internalType":"address","name":"newOwner","type":"address"}],"name":"OwnershipTransferred","type":"event"},{"anonymous":false,"inputs":[{"indexed":true,"internalType":"uint256","name":"value","type":"uint256"},{"indexed":true,"internalType":"address","name":"userAddress","type":"address"}],"name":"PassiveRewardPaid","type":"event"},{"anonymous":false,"inputs":[{"indexed":false,"internalType":"address","name":"account","type":"address"}],"name":"Paused","type":"event"},{"anonymous":false,"inputs":[{"indexed":true,"internalType":"address","name":"referee","type":"address"},{"indexed":true,"internalType":"address","name":"referrer","type":"address"},{"indexed":true,"internalType":"uint256","name":"amount","type":"uint256"},{"indexed":false,"internalType":"uint256","name":"level","type":"uint256"},{"indexed":false,"internalType":"string","name":"currency","type":"string"}],"name":"ReferralRewardPaid","type":"event"},{"anonymous":false,"inputs":[{"indexed":true,"internalType":"address","name":"referee","type":"address"},{"indexed":true,"internalType":"address","name":"referrer","type":"address"},{"indexed":true,"internalType":"string","name":"reason","type":"string"}],"name":"RegisterRefererFailed","type":"event"},{"anonymous":false,"inputs":[{"indexed":true,"internalType":"address","name":"referee","type":"address"},{"indexed":true,"internalType":"address","name":"referrer","type":"address"}],"name":"RegisteredReferer","type":"event"},{"anonymous":false,"inputs":[{"indexed":true,"internalType":"address","name":"parent","type":"address"},{"indexed":true,"internalType":"address","name":"referrer","type":"address"},{"indexed":true,"internalType":"address","name":"referee","type":"address"}],"name":"RegisteredTeamAddress","type":"event"},{"anonymous":false,"inputs":[{"indexed":false,"internalType":"address","name":"userAddress","type":"address"},{"indexed":false,"internalType":"uint8","name":"rewardId","type":"uint8"}],"name":"RewardAccountAdded","type":"event"},{"anonymous":false,"inputs":[{"indexed":false,"internalType":"address","name":"userAddress","type":"address"},{"indexed":false,"internalType":"uint8","name":"rewardId","type":"uint8"}],"name":"RewardAccountPaid","type":"event"},{"anonymous":false,"inputs":[{"indexed":false,"internalType":"uint8","name":"id","type":"uint8"},{"indexed":false,"internalType":"uint256","name":"selfBusinessLimit","type":"uint256"},{"indexed":false,"internalType":"uint256","name":"directBusinessLimit","type":"uint256"},{"indexed":false,"internalType":"uint256","name":"teamBusinessLimit","type":"uint256"},{"indexed":false,"internalType":"string","name":"rankName","type":"string"},{"indexed":false,"internalType":"string","name":"rewardName","type":"string"},{"indexed":false,"internalType":"uint256","name":"appraisal","type":"uint256"}],"name":"RewardAdded","type":"event"},{"anonymous":false,"inputs":[{"indexed":false,"internalType":"address","name":"account","type":"address"}],"name":"Unpaused","type":"event"},{"anonymous":false,"inputs":[{"indexed":true,"internalType":"address","name":"implementation","type":"address"}],"name":"Upgraded","type":"event"},{"inputs":[{"internalType":"address","name":"","type":"address"}],"name":"addressToId","outputs":[{"internalType":"uint16","name":"","type":"uint16"}],"stateMutability":"view","type":"function"},{"inputs":[{"internalType":"address","name":"_referrerAddress","type":"address"},{"internalType":"address","name":"_userAddress","type":"address"}],"name":"changeReferrer","outputs":[],"stateMutability":"nonpayable","type":"function"},{"inputs":[],"name":"contractDefaults","outputs":[{"internalType":"uint256","name":"levelDecimals","type":"uint256"},{"internalType":"uint256[]","name":"levelRates","type":"uint256[]"},{"internalType":"uint256","name":"totalLevelRate","type":"uint256"},{"internalType":"address","name":"defaultReferrer","type":"address"}],"stateMutability":"view","type":"function"},{"inputs":[],"name":"getGlobalRefereeLimit","outputs":[{"internalType":"uint8","name":"","type":"uint8"}],"stateMutability":"view","type":"function"},{"inputs":[{"internalType":"uint8","name":"_rewardId","type":"uint8"},{"internalType":"uint16","name":"_from","type":"uint16"},{"internalType":"uint16","name":"_to","type":"uint16"}],"name":"getRewardQualifiedUsers","outputs":[{"internalType":"address[]","name":"_userAddress","type":"address[]"},{"internalType":"uint16","name":"_achieversListCount","type":"uint16"}],"stateMutability":"view","type":"function"},{"inputs":[],"name":"getSelfIncomePoolRefereeLimit","outputs":[{"internalType":"uint8","name":"","type":"uint8"}],"stateMutability":"view","type":"function"},{"inputs":[{"internalType":"address","name":"_userAddress","type":"address"}],"name":"getTeamBusinessToQualifyRewards","outputs":[{"internalType":"uint256","name":"mainBusiness","type":"uint256"},{"internalType":"uint256","name":"otherBusiness","type":"uint256"}],"stateMutability":"view","type":"function"},{"inputs":[{"internalType":"address","name":"_address","type":"address"}],"name":"getUserAccount","outputs":[{"components":[{"internalType":"address","name":"referrer","type":"address"},{"internalType":"address[]","name":"referee","type":"address[]"},{"internalType":"address[]","name":"team","type":"address[]"},{"internalType":"uint256[]","name":"topUp","type":"uint256[]"},{"internalType":"uint256","name":"selfBusiness","type":"uint256"},{"internalType":"uint256","name":"directBusiness","type":"uint256"},{"internalType":"uint256","name":"totalBusiness","type":"uint256"},{"internalType":"uint256[]","name":"rewardsPaidReferral","type":"uint256[]"},{"internalType":"uint256[]","name":"rewardsPaidGlobal","type":"uint256[]"},{"internalType":"uint256[]","name":"rewardPaidPassive","type":"uint256[]"},{"internalType":"bool","name":"isInGlobalID","type":"bool"}],"internalType":"struct ReferralUpgradeable.Account","name":"userAccount","type":"tuple"}],"stateMutability":"view","type":"function"},{"inputs":[{"internalType":"address","name":"_address","type":"address"}],"name":"getUserReferrerAddress","outputs":[{"internalType":"address","name":"referrer","type":"address"}],"stateMutability":"view","type":"function"},{"inputs":[{"internalType":"address","name":"_userAddress","type":"address"}],"name":"getUserRewardAccount","outputs":[{"components":[{"internalType":"address","name":"userAdddress","type":"address"},{"internalType":"uint8[]","name":"rewardId","type":"uint8[]"},{"internalType":"uint8","name":"lastRewardId","type":"uint8"}],"internalType":"struct ReferralUpgradeable.RewardsAccount","name":"","type":"tuple"}],"stateMutability":"view","type":"function"},{"inputs":[{"internalType":"address","name":"_userAddress","type":"address"}],"name":"getUserRewardQualified","outputs":[{"internalType":"uint8","name":"rewardId","type":"uint8"}],"stateMutability":"view","type":"function"},{"inputs":[{"internalType":"address","name":"_address","type":"address"}],"name":"getUserTeam","outputs":[{"internalType":"address[]","name":"userReferee","type":"address[]"},{"internalType":"uint256","name":"userRefereeCount","type":"uint256"},{"internalType":"address[]","name":"userTeamAddress","type":"address[]"},{"internalType":"uint256","name":"userTeamCount","type":"uint256"}],"stateMutability":"view","type":"function"},{"inputs":[{"internalType":"address","name":"_userAddress","type":"address"}],"name":"getUserTopUpForRewards","outputs":[{"internalType":"uint256","name":"","type":"uint256"}],"stateMutability":"view","type":"function"},{"inputs":[{"internalType":"address","name":"_address","type":"address"}],"name":"getUserTotalBusiness","outputs":[{"internalType":"uint256","name":"selfBusiness","type":"uint256"},{"internalType":"uint256","name":"directBusiness","type":"uint256"},{"internalType":"uint256","name":"refereeTeamBusiness","type":"uint256"},{"internalType":"uint256","name":"totalBusiness","type":"uint256"}],"stateMutability":"view","type":"function"},{"inputs":[{"internalType":"address","name":"_address","type":"address"}],"name":"getUserTotalRewardPaid","outputs":[{"internalType":"uint256","name":"rewardsAUSD","type":"uint256"},{"internalType":"uint256","name":"rewardsGlobal","type":"uint256"},{"internalType":"uint256","name":"rewardsPassive","type":"uint256"}],"stateMutability":"view","type":"function"},{"inputs":[],"name":"getVariablesContract","outputs":[{"internalType":"address","name":"","type":"address"}],"stateMutability":"view","type":"function"},{"inputs":[{"internalType":"address","name":"_address","type":"address"}],"name":"hasReferrer","outputs":[{"internalType":"bool","name":"","type":"bool"}],"stateMutability":"view","type":"function"},{"inputs":[{"internalType":"uint16","name":"","type":"uint16"}],"name":"idToAddress","outputs":[{"internalType":"address","name":"","type":"address"}],"stateMutability":"view","type":"function"},{"inputs":[{"internalType":"address[]","name":"_userAddress","type":"address[]"}],"name":"includeUsersInList","outputs":[],"stateMutability":"nonpayable","type":"function"},{"inputs":[],"name":"initialize","outputs":[],"stateMutability":"nonpayable","type":"function"},{"inputs":[{"internalType":"address","name":"_userAddress","type":"address"}],"name":"is20LevelsBusinessUpdated","outputs":[{"internalType":"bool","name":"","type":"bool"}],"stateMutability":"view","type":"function"},{"inputs":[],"name":"owner","outputs":[{"internalType":"address","name":"","type":"address"}],"stateMutability":"view","type":"function"},{"inputs":[],"name":"paused","outputs":[{"internalType":"bool","name":"","type":"bool"}],"stateMutability":"view","type":"function"},{"inputs":[{"internalType":"uint256","name":"_valueInUSD","type":"uint256"},{"internalType":"address","name":"_userAddress","type":"address"},{"internalType":"address","name":"_referrerAddress","type":"address"}],"name":"payReferralANUSDAdmin","outputs":[],"stateMutability":"nonpayable","type":"function"},{"inputs":[],"name":"proxiableUUID","outputs":[{"internalType":"bytes32","name":"","type":"bytes32"}],"stateMutability":"view","type":"function"},{"inputs":[],"name":"renounceOwnership","outputs":[],"stateMutability":"nonpayable","type":"function"},{"inputs":[{"internalType":"address","name":"_userAddress","type":"address"}],"name":"resetSelfTeamBusiness","outputs":[],"stateMutability":"nonpayable","type":"function"},{"inputs":[{"internalType":"address","name":"","type":"address"}],"name":"rewardAccount","outputs":[{"internalType":"address","name":"userAdddress","type":"address"},{"internalType":"uint8","name":"lastRewardId","type":"uint8"}],"stateMutability":"view","type":"function"},{"inputs":[{"internalType":"uint8","name":"","type":"uint8"}],"name":"rewards","outputs":[{"internalType":"uint8","name":"id","type":"uint8"},{"internalType":"uint256","name":"selfBusinessLimit","type":"uint256"},{"internalType":"uint256","name":"directBusinessLimit","type":"uint256"},{"internalType":"uint256","name":"teamBusinessLimit","type":"uint256"},{"internalType":"string","name":"rankName","type":"string"},{"internalType":"string","name":"rewardName","type":"string"},{"internalType":"uint256","name":"appraisal","type":"uint256"}],"stateMutability":"view","type":"function"},{"inputs":[{"internalType":"uint256","name":"_directBusiness","type":"uint256"},{"internalType":"uint256","name":"_teamBusiness","type":"uint256"}],"name":"setGlobalPushCondition","outputs":[],"stateMutability":"nonpayable","type":"function"},{"inputs":[{"internalType":"uint8[]","name":"_id","type":"uint8[]"},{"internalType":"uint256[]","name":"_selfBusinessLimit","type":"uint256[]"},{"internalType":"uint256[]","name":"_directBusinessLimit","type":"uint256[]"},{"internalType":"uint256[]","name":"_teamBusinessLimit","type":"uint256[]"},{"internalType":"string[]","name":"_rankName","type":"string[]"},{"internalType":"string[]","name":"_rewardName","type":"string[]"},{"internalType":"uint256[]","name":"_appraisal","type":"uint256[]"}],"name":"setRewards","outputs":[],"stateMutability":"nonpayable","type":"function"},{"inputs":[{"internalType":"address","name":"_userAddress","type":"address"},{"internalType":"uint256","name":"_valueInWei","type":"uint256"}],"name":"setUserTotalBusiness","outputs":[],"stateMutability":"nonpayable","type":"function"},{"inputs":[],"name":"totalUsers","outputs":[{"internalType":"uint16","name":"","type":"uint16"}],"stateMutability":"view","type":"function"},{"inputs":[{"internalType":"address","name":"_address","type":"address"},{"internalType":"uint256","name":"_value","type":"uint256"}],"name":"transferNative","outputs":[],"stateMutability":"nonpayable","type":"function"},{"inputs":[{"internalType":"address","name":"newOwner","type":"address"}],"name":"transferOwnership","outputs":[],"stateMutability":"nonpayable","type":"function"},{"inputs":[{"internalType":"address","name":"_userAddress","type":"address"},{"internalType":"uint8","name":"_rewardId","type":"uint8"}],"name":"updateIfRewardPaidAdmin","outputs":[],"stateMutability":"nonpayable","type":"function"},{"inputs":[{"internalType":"address","name":"_userAddress","type":"address"}],"name":"updateUplineTeamLevels20","outputs":[],"stateMutability":"nonpayable","type":"function"},{"inputs":[{"internalType":"address","name":"newImplementation","type":"address"}],"name":"upgradeTo","outputs":[],"stateMutability":"nonpayable","type":"function"},{"inputs":[{"internalType":"address","name":"newImplementation","type":"address"},{"internalType":"bytes","name":"data","type":"bytes"}],"name":"upgradeToAndCall","outputs":[],"stateMutability":"payable","type":"function"},{"inputs":[{"internalType":"uint256","name":"","type":"uint256"}],"name":"usersList","outputs":[{"internalType":"address","name":"","type":"address"}],"stateMutability":"view","type":"function"},{"inputs":[{"internalType":"address","name":"_tokenAddress","type":"address"},{"internalType":"address","name":"_userAddress","type":"address"},{"internalType":"uint256","name":"_value","type":"uint256"}],"name":"withdrawtokens","outputs":[],"stateMutability":"nonpayable","type":"function"},{"stateMutability":"payable","type":"receive"}],"evm":{"bytecode":{"linkReferences":{},"object":"60a06040523060805234801561001457600080fd5b50608051615fe86200004d60003960008181611b2c01528181611b6c01528181611c1d01528181611c5d0152611d170152615fe86000f3fe60806040526004361061024a5760003560e01c8063771aa21611610139578063bff1f9e1116100b6578063ef519dc01161007a578063ef519dc0146107dc578063f13a143f14610817578063f2fde38b14610835578063faeda7e514610855578063fb47e01614610885578063fb5d4526146108b257600080fd5b8063bff1f9e11461070d578063cb0e0d7d1461073c578063ccef55871461076e578063dd1ca7161461078e578063e5ffb5df146107bc57600080fd5b80638a93f7b9116100fd5780638a93f7b9146106475780638da5cb5b1461066757806391b493e4146106855780639b317cc4146106a5578063a0760aff146106d857600080fd5b8063771aa216146105a55780637d2e90c2146105c55780638129fc1c146105e557806386f6630d146105fa57806389db4eb01461062757600080fd5b806335166fef116101c7578063502aa3b51161018b578063502aa3b51461052457806352d1902d146105445780635c975abb14610559578063715018a61461057157806371e13ead1461058657600080fd5b806335166fef146104775780633659cfe6146104975780633b38bf72146104b757806343b4ebf4146104d75780634f1ef2861461051157600080fd5b8063228159b41161020e578063228159b4146103645780632405091c1461038457806325f1c91e146103c45780632bb5112d146103f2578063348a7e941461045757600080fd5b8063019f157a14610256578063025313ff146102a55780630898adc7146102f45780630a783ea51461031657806318452cd81461034457600080fd5b3661025157005b600080fd5b34801561026257600080fd5b50610290610271366004615103565b6001600160a01b03166000908152610111602052604090205460ff1690565b60405190151581526020015b60405180910390f35b3480156102b157600080fd5b506102dc6102c0366004615132565b61010c602052600090815260409020546001600160a01b031681565b6040516001600160a01b03909116815260200161029c565b34801561030057600080fd5b5061031461030f36600461514d565b6108d7565b005b34801561032257600080fd5b5061010f546301000000900460ff165b60405160ff909116815260200161029c565b34801561035057600080fd5b5061029061035f366004615103565b610958565b34801561037057600080fd5b5061031461037f36600461518e565b61097f565b34801561039057600080fd5b506103a461039f366004615103565b610bc6565b60408051948552602085019390935291830152606082015260800161029c565b3480156103d057600080fd5b506103e46103df366004615103565b6111b5565b60405190815260200161029c565b3480156103fe57600080fd5b5061043661040d366004615103565b61010a60205260009081526040902080546002909101546001600160a01b039091169060ff1682565b604080516001600160a01b03909316835260ff90911660208301520161029c565b34801561046357600080fd5b50610314610472366004615103565b61144c565b34801561048357600080fd5b50610314610492366004615406565b611769565b3480156104a357600080fd5b506103146104b2366004615103565b611b22565b3480156104c357600080fd5b506103146104d2366004615521565b611c01565b3480156104e357600080fd5b506102dc6104f2366004615103565b6001600160a01b03908116600090815261010960205260409020541690565b61031461051f36600461555a565b611c13565b34801561053057600080fd5b506102dc61053f3660046155be565b611cdf565b34801561055057600080fd5b506103e4611d0a565b34801561056557600080fd5b5060335460ff16610290565b34801561057d57600080fd5b50610314611dbd565b34801561059257600080fd5b5061010f5462010000900460ff16610332565b3480156105b157600080fd5b506103146105c03660046155d7565b611dd1565b3480156105d157600080fd5b506103146105e036600461560c565b611ed5565b3480156105f157600080fd5b50610314611f13565b34801561060657600080fd5b5061061a610615366004615103565b6120f9565b60405161029c9190615638565b34801561063357600080fd5b50610314610642366004615103565b6121df565b34801561065357600080fd5b506103146106623660046156ad565b612400565b34801561067357600080fd5b506065546001600160a01b03166102dc565b34801561069157600080fd5b506103146106a0366004615722565b6124d4565b3480156106b157600080fd5b506106c56106c0366004615744565b612569565b60405161029c97969594939291906157af565b3480156106e457600080fd5b506106f86106f3366004615103565b6126bb565b6040805192835260208301919091520161029c565b34801561071957600080fd5b5061010f546107299061ffff1681565b60405161ffff909116815260200161029c565b34801561074857600080fd5b50610729610757366004615103565b61010d6020526000908152604090205461ffff1681565b34801561077a57600080fd5b5061031461078936600461560c565b612c52565b34801561079a57600080fd5b506107ae6107a9366004615804565b612c7a565b60405161029c92919061588b565b3480156107c857600080fd5b506103326107d7366004615103565b612d58565b3480156107e857600080fd5b506107fc6107f7366004615103565b6131e7565b6040805193845260208401929092529082015260600161029c565b34801561082357600080fd5b5060fb546001600160a01b03166102dc565b34801561084157600080fd5b50610314610850366004615103565b613302565b34801561086157600080fd5b50610875610870366004615103565b613378565b60405161029c94939291906158b1565b34801561089157600080fd5b506108a56108a0366004615103565b613465565b60405161029c919061591e565b3480156108be57600080fd5b506108c7613752565b60405161029c9493929190615a2d565b6108df613819565b60405163a9059cbb60e01b81526001600160a01b0383811660048301526024820183905284169063a9059cbb906044016020604051808303816000875af115801561092e573d6000803e3d6000fd5b505050506040513d601f19601f820116820180604052508101906109529190615a67565b50505050565b6001600160a01b038082166000908152610109602052604081205490911615155b92915050565b60fb5433906001600160a01b031661099f6065546001600160a01b031690565b6001600160a01b0316826001600160a01b03161480610a45575060fb60009054906101000a90046001600160a01b03166001600160a01b03166363d9df856040518163ffffffff1660e01b8152600401602060405180830381865afa158015610a0c573d6000803e3d6000fd5b505050506040513d601f19601f82011682018060405250810190610a309190615a89565b6001600160a01b0316826001600160a01b0316145b610aa15760405162461bcd60e51b815260206004820152602260248201527f4f6e6c79206f776e65722063616e2063616c6c20746869732066756e6374696f604482015261371760f11b60648201526084015b60405180910390fd5b6001600160a01b038481166000908152610109602052604090205416158015610ad257506001600160a01b03831615155b15610ae157610ae18484613873565b6001600160a01b038381166000908152610109602052604090205416158015610b1257506001600160a01b03831615155b8015610b2d5750610100546001600160a01b03848116911614155b15610b4a5761010054610b4a9084906001600160a01b0316613873565b610bb68585836001600160a01b031663611509236040518163ffffffff1660e01b8152600401602060405180830381865afa158015610b8d573d6000803e3d6000fd5b505050506040513d601f19601f82011682018060405250810190610bb19190615a89565b6139bc565b610bbf8461416f565b5050505050565b6001600160a01b0381166000908152610109602052604081206001810154600482015492918291829190825b81811015610ec95760006101096000856001018481548110610c1657610c16615aa6565b60009182526020808320909101546001600160a01b03908116845283820194909452604092830190912082516101608101845281549094168452600181018054845181850281018501909552808552919385840193909290830182828015610ca757602002820191906000526020600020905b81546001600160a01b03168152600190910190602001808311610c89575b5050505050815260200160028201805480602002602001604051908101604052809291908181526020018280548015610d0957602002820191906000526020600020905b81546001600160a01b03168152600190910190602001808311610ceb575b5050505050815260200160038201805480602002602001604051908101604052809291908181526020018280548015610d6157602002820191906000526020600020905b815481526020019060010190808311610d4d575b5050505050815260200160048201548152602001600582015481526020016006820154815260200160078201805480602002602001604051908101604052809291908181526020018280548015610dd757602002820191906000526020600020905b815481526020019060010190808311610dc3575b5050505050815260200160088201805480602002602001604051908101604052809291908181526020018280548015610e2f57602002820191906000526020600020905b815481526020019060010190808311610e1b575b5050505050815260200160098201805480602002602001604051908101604052809291908181526020018280548015610e8757602002820191906000526020600020905b815481526020019060010190808311610e73575b5050509183525050600a919091015460ff1615156020909101526080810151909150610eb39088615ad2565b9650508080610ec190615ae5565b915050610bf2565b5060005b818110156111a45760006101096000856001018481548110610ef157610ef1615aa6565b60009182526020808320909101546001600160a01b03908116845283820194909452604092830190912082516101608101845281549094168452600181018054845181850281018501909552808552919385840193909290830182828015610f8257602002820191906000526020600020905b81546001600160a01b03168152600190910190602001808311610f64575b5050505050815260200160028201805480602002602001604051908101604052809291908181526020018280548015610fe457602002820191906000526020600020905b81546001600160a01b03168152600190910190602001808311610fc6575b505050505081526020016003820180548060200260200160405190810160405280929190818152602001828054801561103c57602002820191906000526020600020905b815481526020019060010190808311611028575b50505050508152602001600482015481526020016005820154815260200160068201548152602001600782018054806020026020016040519081016040528092919081815260200182805480156110b257602002820191906000526020600020905b81548152602001906001019080831161109e575b505050505081526020016008820180548060200260200160405190810160405280929190818152602001828054801561110a57602002820191906000526020600020905b8154815260200190600101908083116110f6575b505050505081526020016009820180548060200260200160405190810160405280929190818152602001828054801561116257602002820191906000526020600020905b81548152602001906001019080831161114e575b5050509183525050600a919091015460ff16151560209091015260c081015190915061118e9087615ad2565b955050808061119c90615ae5565b915050610ecd565b508160060154925050509193509193565b6001600160a01b03808216600090815261010960209081526040808320815161016081018352815490951685526001810180548351818602810186019094528084529495869590949293858401939092919083018282801561124057602002820191906000526020600020905b81546001600160a01b03168152600190910190602001808311611222575b50505050508152602001600282018054806020026020016040519081016040528092919081815260200182805480156112a257602002820191906000526020600020905b81546001600160a01b03168152600190910190602001808311611284575b50505050508152602001600382018054806020026020016040519081016040528092919081815260200182805480156112fa57602002820191906000526020600020905b8154815260200190600101908083116112e6575b505050505081526020016004820154815260200160058201548152602001600682015481526020016007820180548060200260200160405190810160405280929190818152602001828054801561137057602002820191906000526020600020905b81548152602001906001019080831161135c575b50505050508152602001600882018054806020026020016040519081016040528092919081815260200182805480156113c857602002820191906000526020600020905b8154815260200190600101908083116113b4575b505050505081526020016009820180548060200260200160405190810160405280929190818152602001828054801561142057602002820191906000526020600020905b81548152602001906001019080831161140c575b5050509183525050600a919091015460ff161515602090910152905061144581614266565b9392505050565b6001600160a01b03811660009081526101096020526040812060068101919091556002810154156117655760005b600282015481101561176357600061010960008460020184815481106114a2576114a2615aa6565b60009182526020808320909101546001600160a01b0390811684528382019490945260409283019091208251610160810184528154909416845260018101805484518185028101850190955280855291938584019390929083018282801561153357602002820191906000526020600020905b81546001600160a01b03168152600190910190602001808311611515575b505050505081526020016002820180548060200260200160405190810160405280929190818152602001828054801561159557602002820191906000526020600020905b81546001600160a01b03168152600190910190602001808311611577575b50505050508152602001600382018054806020026020016040519081016040528092919081815260200182805480156115ed57602002820191906000526020600020905b8154815260200190600101908083116115d9575b505050505081526020016004820154815260200160058201548152602001600682015481526020016007820180548060200260200160405190810160405280929190818152602001828054801561166357602002820191906000526020600020905b81548152602001906001019080831161164f575b50505050508152602001600882018054806020026020016040519081016040528092919081815260200182805480156116bb57602002820191906000526020600020905b8154815260200190600101908083116116a7575b505050505081526020016009820180548060200260200160405190810160405280929190818152602001828054801561171357602002820191906000526020600020905b8154815260200190600101908083116116ff575b5050509183525050600a919091015460ff1615156020909101526080810151600685018054929350909160009061174b908490615ad2565b9091555061175c9150829050615ae5565b905061147a565b505b5050565b60fb54604051630935e01b60e21b81523360048201526001600160a01b03909116906324d7806c90602401602060405180830381865afa1580156117b1573d6000803e3d6000fd5b505050506040513d601f19601f820116820180604052508101906117d59190615a67565b6117f15760405162461bcd60e51b8152600401610a9890615afe565b60005b8751811015611b18576040518060e0016040528089838151811061181a5761181a615aa6565b602002602001015160ff16815260200188838151811061183c5761183c615aa6565b6020026020010151670de0b6b3a76400006118579190615b29565b815260200187838151811061186e5761186e615aa6565b6020026020010151670de0b6b3a76400006118899190615b29565b81526020018683815181106118a0576118a0615aa6565b6020026020010151670de0b6b3a76400006118bb9190615b29565b81526020018583815181106118d2576118d2615aa6565b602002602001015181526020018483815181106118f1576118f1615aa6565b6020026020010151815260200183838151811061191057611910615aa6565b6020026020010151670de0b6b3a764000061192b9190615b29565b81525061010b60008a848151811061194557611945615aa6565b60209081029190910181015160ff90811683528282019390935260409182016000208451815460ff191694169390931783558301516001830155820151600282015560608201516003820155608082015160048201906119a59082615bc2565b5060a082015160058201906119ba9082615bc2565b5060c082015181600601559050507fb9f30bf0ab6748f3fcfbc9d280ed1feedea51276343f55f8342b8c453b876e9a8882815181106119fb576119fb615aa6565b6020026020010151888381518110611a1557611a15615aa6565b6020026020010151670de0b6b3a7640000611a309190615b29565b888481518110611a4257611a42615aa6565b6020026020010151670de0b6b3a7640000611a5d9190615b29565b888581518110611a6f57611a6f615aa6565b6020026020010151670de0b6b3a7640000611a8a9190615b29565b888681518110611a9c57611a9c615aa6565b6020026020010151888781518110611ab657611ab6615aa6565b6020026020010151888881518110611ad057611ad0615aa6565b6020026020010151670de0b6b3a7640000611aeb9190615b29565b604051611afe97969594939291906157af565b60405180910390a180611b1081615ae5565b9150506117f4565b5050505050505050565b6001600160a01b037f0000000000000000000000000000000000000000000000000000000000000000163003611b6a5760405162461bcd60e51b8152600401610a9890615c82565b7f00000000000000000000000000000000000000000000000000000000000000006001600160a01b0316611bb3600080516020615f6c833981519152546001600160a01b031690565b6001600160a01b031614611bd95760405162461bcd60e51b8152600401610a9890615cce565b611be2816142d0565b60408051600080825260208201909252611bfe918391906142d8565b50565b611c09613819565b6117658183613873565b6001600160a01b037f0000000000000000000000000000000000000000000000000000000000000000163003611c5b5760405162461bcd60e51b8152600401610a9890615c82565b7f00000000000000000000000000000000000000000000000000000000000000006001600160a01b0316611ca4600080516020615f6c833981519152546001600160a01b031690565b6001600160a01b031614611cca5760405162461bcd60e51b8152600401610a9890615cce565b611cd3826142d0565b611765828260016142d8565b61010e8181548110611cf057600080fd5b6000918252602090912001546001600160a01b0316905081565b6000306001600160a01b037f00000000000000000000000000000000000000000000000000000000000000001614611daa5760405162461bcd60e51b815260206004820152603860248201527f555550535570677261646561626c653a206d757374206e6f742062652063616c60448201527f6c6564207468726f7567682064656c656761746563616c6c00000000000000006064820152608401610a98565b50600080516020615f6c83398151915290565b611dc5613819565b611dcf6000614448565b565b60fb54604051630935e01b60e21b81523360048201526001600160a01b03909116906324d7806c90602401602060405180830381865afa158015611e19573d6000803e3d6000fd5b505050506040513d601f19601f82011682018060405250810190611e3d9190615a67565b611e595760405162461bcd60e51b8152600401610a9890615afe565b6001600160a01b03808316600090815261010a602052604090208054909116611e965780546001600160a01b0319166001600160a01b0384161781555b600190810180549182018155600090815260209081902090820401805460ff938416601f9093166101000a928302939092021990911691909117905550565b611edd613819565b6040516001600160a01b0383169082156108fc029083906000818181858888f19350505050158015611763573d6000803e3d6000fd5b600054610100900460ff1615808015611f335750600054600160ff909116105b80611f4d5750303b158015611f4d575060005460ff166001145b611fb05760405162461bcd60e51b815260206004820152602e60248201527f496e697469616c697a61626c653a20636f6e747261637420697320616c72656160448201526d191e481a5b9a5d1a585b1a5e995960921b6064820152608401610a98565b6000805460ff191660011790558015611fd3576000805461ff0019166101001790555b60fb80546001600160a01b03199081167377daafc7411c911b869c71bf70fe36cce507845d17909155610100805490911673f3ba579d4afd4dad8a8c2d1bcbdd1405688e492f1790556040805160e0810182526007808252600460208301526003928201929092526002606082015260016080820181905260a0820181905260c08201526120649160fc9190615089565b50606460fd5560146101065569011478b7c30abc3000006101035560046101015560056101045568a80d24677efef00000610105556120a161449a565b6120a96144c9565b6120b16144f8565b8015611bfe576000805461ff0019169055604051600181527f7f26b83ff96e1f2b6a682f133852f6798a09c465da95921460cefb38474024989060200160405180910390a150565b612129604051806060016040528060006001600160a01b0316815260200160608152602001600060ff1681525090565b6001600160a01b03808316600090815261010a60209081526040918290208251606081018452815490941684526001810180548451818502810185019095528085529193858401939092908301828280156121c157602002820191906000526020600020906000905b825461010083900a900460ff168152602060019283018181049485019490930390920291018084116121925790505b50505091835250506002919091015460ff1660209091015292915050565b6065546001600160a01b03163314612277576001600160a01b0381166000908152610111602052604090205460ff16156122775760405162461bcd60e51b815260206004820152603360248201527f75706461746555706c696e655465616d4c6576656c73323028293a204c65766560448201527236399030b63932b0b23c903ab83230ba32b21760691b6064820152608401610a98565b6001600160a01b0381166000908152610109602052604090206004810154806123085760405162461bcd60e51b815260206004820152603960248201527f75706461746555706c696e655465616d4c6576656c73323028293a20596f752060448201527f68617665206e6f20627573696e657373206f72207a65726f2e000000000000006064820152608401610a98565b6101065460fc8054604080516020808402820181019092528281526000939092909183018282801561235957602002820191906000526020600020905b815481526020019060010190808311612345575b5050505050905060005b828160ff1610156123d45784546001600160a01b03166000818152610109602052604090209061239357506123d4565b82518260ff16106123c2576123a9600286615d30565b8160060160008282546123bc9190615ad2565b90915550505b94506123cd81615d44565b9050612363565b5050506001600160a01b03909216600090815261011160205260409020805460ff191660011790555050565b60fb54604051630935e01b60e21b81523360048201526001600160a01b03909116906324d7806c90602401602060405180830381865afa158015612448573d6000803e3d6000fd5b505050506040513d601f19601f8201168201806040525081019061246c9190615a67565b6124885760405162461bcd60e51b8152600401610a9890615afe565b60005b81811015611763576124c28383838181106124a8576124a8615aa6565b90506020020160208101906124bd9190615103565b61416f565b806124cc81615ae5565b91505061248b565b60fb54604051630935e01b60e21b81523360048201526001600160a01b03909116906324d7806c90602401602060405180830381865afa15801561251c573d6000803e3d6000fd5b505050506040513d601f19601f820116820180604052508101906125409190615a67565b61255c5760405162461bcd60e51b8152600401610a9890615afe565b6101039190915561011055565b61010b602052600090815260409020805460018201546002830154600384015460048501805460ff909516959394929391926125a490615b40565b80601f01602080910402602001604051908101604052809291908181526020018280546125d090615b40565b801561261d5780601f106125f25761010080835404028352916020019161261d565b820191906000526020600020905b81548152906001019060200180831161260057829003601f168201915b50505050509080600501805461263290615b40565b80601f016020809104026020016040519081016040528092919081815260200182805461265e90615b40565b80156126ab5780601f10612680576101008083540402835291602001916126ab565b820191906000526020600020905b81548152906001019060200180831161268e57829003601f168201915b5050505050908060060154905087565b6001600160a01b0380821660009081526101096020908152604080832081516101608101835281549095168552600181018054835181860281018601909452808452949586958695919485830193909290919083018282801561274757602002820191906000526020600020905b81546001600160a01b03168152600190910190602001808311612729575b50505050508152602001600282018054806020026020016040519081016040528092919081815260200182805480156127a957602002820191906000526020600020905b81546001600160a01b0316815260019091019060200180831161278b575b505050505081526020016003820180548060200260200160405190810160405280929190818152602001828054801561280157602002820191906000526020600020905b8154815260200190600101908083116127ed575b505050505081526020016004820154815260200160058201548152602001600682015481526020016007820180548060200260200160405190810160405280929190818152602001828054801561287757602002820191906000526020600020905b815481526020019060010190808311612863575b50505050508152602001600882018054806020026020016040519081016040528092919081815260200182805480156128cf57602002820191906000526020600020905b8154815260200190600101908083116128bb575b505050505081526020016009820180548060200260200160405190810160405280929190818152602001828054801561292757602002820191906000526020600020905b815481526020019060010190808311612913575b5050509183525050600a919091015460ff16151560209091015290506000805b8260200151518161ffff161015612c3e576000610109600085602001518461ffff168151811061297957612979615aa6565b6020908102919091018101516001600160a01b03908116835282820193909352604091820160002082516101608101845281549094168452600181018054845181850281018501909552808552919385840193909290830182828015612a0857602002820191906000526020600020905b81546001600160a01b031681526001909101906020018083116129ea575b5050505050815260200160028201805480602002602001604051908101604052809291908181526020018280548015612a6a57602002820191906000526020600020905b81546001600160a01b03168152600190910190602001808311612a4c575b5050505050815260200160038201805480602002602001604051908101604052809291908181526020018280548015612ac257602002820191906000526020600020905b815481526020019060010190808311612aae575b5050505050815260200160048201548152602001600582015481526020016006820154815260200160078201805480602002602001604051908101604052809291908181526020018280548015612b3857602002820191906000526020600020905b815481526020019060010190808311612b24575b5050505050815260200160088201805480602002602001604051908101604052809291908181526020018280548015612b9057602002820191906000526020600020905b815481526020019060010190808311612b7c575b5050505050815260200160098201805480602002602001604051908101604052809291908181526020018280548015612be857602002820191906000526020600020905b815481526020019060010190808311612bd4575b5050509183525050600a919091015460ff16151560209091015260c0810151909150861015612c19578060c0015195505b60c0810151612c289084615ad2565b9250508080612c3690615d63565b915050612947565b50612c498482615d84565b92505050915091565b612c5a613819565b6001600160a01b0390911660009081526101096020526040902060060155565b60606000806000612c8c87878761451f565b915091508092508061ffff1667ffffffffffffffff811115612cb057612cb06151d0565b604051908082528060200260200182016040528015612cd9578160200160208202803683370190505b50935060005b8161ffff168161ffff161015612d4d57828161ffff1681518110612d0557612d05615aa6565b6020026020010151858261ffff1681518110612d2357612d23615aa6565b6001600160a01b039092166020928302919091019091015280612d4581615d63565b915050612cdf565b505050935093915050565b6001600160a01b038082166000908152610109602090815260408083208151610160810183528154909516855260018101805483518186028101860190945280845294958695909492938584019390929190830182828015612de357602002820191906000526020600020905b81546001600160a01b03168152600190910190602001808311612dc5575b5050505050815260200160028201805480602002602001604051908101604052809291908181526020018280548015612e4557602002820191906000526020600020905b81546001600160a01b03168152600190910190602001808311612e27575b5050505050815260200160038201805480602002602001604051908101604052809291908181526020018280548015612e9d57602002820191906000526020600020905b815481526020019060010190808311612e89575b5050505050815260200160048201548152602001600582015481526020016006820154815260200160078201805480602002602001604051908101604052809291908181526020018280548015612f1357602002820191906000526020600020905b815481526020019060010190808311612eff575b5050505050815260200160088201805480602002602001604051908101604052809291908181526020018280548015612f6b57602002820191906000526020600020905b815481526020019060010190808311612f57575b5050505050815260200160098201805480602002602001604051908101604052809291908181526020018280548015612fc357602002820191906000526020600020905b815481526020019060010190808311612faf575b5050509183525050600a919091015460ff161515602090910152905060005b60148160ff1610156131e05760ff808216600090815261010b60209081526040808320815160e081018352815490951685526001810154928501929092526002820154908401526003810154606084015260048101805492939260808401919061304b90615b40565b80601f016020809104026020016040519081016040528092919081815260200182805461307790615b40565b80156130c45780601f10613099576101008083540402835291602001916130c4565b820191906000526020600020905b8154815290600101906020018083116130a757829003601f168201915b505050505081526020016005820180546130dd90615b40565b80601f016020809104026020016040519081016040528092919081815260200182805461310990615b40565b80156131565780601f1061312b57610100808354040283529160200191613156565b820191906000526020600020905b81548152906001019060200180831161313957829003601f168201915b50505050508152602001600682015481525050905060028260ff1611801561318057506020810151155b1561318b57506131e0565b806020015161319984614266565b101580156131af575080604001518360a0015110155b80156131c457506131c4838260600151614a2f565b156131cd578193505b50806131d881615d44565b915050612fe2565b5050919050565b6001600160a01b0381166000908152610109602052604081206007810154600882015460098301548493849390929091845b838110156132605784600701818154811061323657613236615aa6565b90600052602060002001548861324c9190615ad2565b97508061325881615ae5565b915050613219565b5060005b828110156132ab5784600801818154811061328157613281615aa6565b9060005260206000200154876132979190615ad2565b9650806132a381615ae5565b915050613264565b5060005b818110156132f6578460090181815481106132cc576132cc615aa6565b9060005260206000200154866132e29190615ad2565b9550806132ee81615ae5565b9150506132af565b50505050509193909250565b61330a613819565b6001600160a01b03811661336f5760405162461bcd60e51b815260206004820152602660248201527f4f776e61626c653a206e6577206f776e657220697320746865207a65726f206160448201526564647265737360d01b6064820152608401610a98565b611bfe81614448565b6001600160a01b038116600090815261010960209081526040808320600181018054835181860281018601909452808452606095948694869493909290918301828280156133ef57602002820191906000526020600020905b81546001600160a01b031681526001909101906020018083116133d1575b50505050509450845193508060020180548060200260200160405190810160405280929190818152602001828054801561345257602002820191906000526020600020905b81546001600160a01b03168152600190910190602001808311613434575b5050505050925082519150509193509193565b6134cd60405180610160016040528060006001600160a01b031681526020016060815260200160608152602001606081526020016000815260200160008152602001600081526020016060815260200160608152602001606081526020016000151581525090565b6001600160a01b03808316600090815261010960209081526040918290208251610160810184528154909416845260018101805484518185028101850190955280855291938584019390929083018282801561355257602002820191906000526020600020905b81546001600160a01b03168152600190910190602001808311613534575b50505050508152602001600282018054806020026020016040519081016040528092919081815260200182805480156135b457602002820191906000526020600020905b81546001600160a01b03168152600190910190602001808311613596575b505050505081526020016003820180548060200260200160405190810160405280929190818152602001828054801561360c57602002820191906000526020600020905b8154815260200190600101908083116135f8575b505050505081526020016004820154815260200160058201548152602001600682015481526020016007820180548060200260200160405190810160405280929190818152602001828054801561368257602002820191906000526020600020905b81548152602001906001019080831161366e575b50505050508152602001600882018054806020026020016040519081016040528092919081815260200182805480156136da57602002820191906000526020600020905b8154815260200190600101908083116136c6575b505050505081526020016009820180548060200260200160405190810160405280929190818152602001828054801561373257602002820191906000526020600020905b81548152602001906001019080831161371e575b5050509183525050600a919091015460ff16151560209091015292915050565b60fd5460fc80546040805160208084028201810190925282815260609360009384938301828280156137a357602002820191906000526020600020905b81548152602001906001019080831161378f575b505060fc549396506000925050505b818160ff1610156137fd5760fc8160ff16815481106137d3576137d3615aa6565b9060005260206000200154846137e99190615ad2565b9350806137f581615d44565b9150506137b2565b5050610100549394929391926001600160a01b03909216919050565b6065546001600160a01b03163314611dcf5760405162461bcd60e51b815260206004820181905260248201527f4f776e61626c653a2063616c6c6572206973206e6f7420746865206f776e65726044820152606401610a98565b6001600160a01b038281166000818152610109602052604080822080546001600160a01b03191694861694851781559051909392917ffaf63637882ff2d63ca76881cf92fb857130e36f350c926f9cc884b499b42b7791a36101065460005b81811015610bbf5782546001600160a01b03166000908152610109602052604081209082900361392c576001818101805491820181556000908152602090200180546001600160a01b0319166001600160a01b0388161790555b83546001600160a01b03166139415750610bbf565b6002810180546001810182556000918252602082200180546001600160a01b0319166001600160a01b03898116918217909255865460405191938984169391909116917fb766b19465b3277b0b275adf79d715cac93166bf6e6a39f26e4ccfdec76ad47e9190a49250806139b481615ae5565b9150506138d2565b600060fc805480602002602001604051908101604052809291908181526020018280548015613a0a57602002820191906000526020600020905b8154815260200190600101908083116139f6575b505050506001600160a01b03851660009081526101096020908152604082206003810180546001810182559084529183209091018890556004810154939450909290915015613a5857600191505b85816004016000828254613a6c9190615ad2565b90915550506101065460009067ffffffffffffffff811115613a9057613a906151d0565b604051908082528060200260200182016040528015613ab9578160200160208202803683370190505b5090506000805b61010654811015613de15783546001600160a01b031660008181526101096020526040902090613af05750613de1565b8651821015613d3f5760006064888481518110613b0f57613b0f615aa6565b60200260200101518c613b229190615b29565b613b2c9190615d30565b905082600003613b50578a826005016000828254613b4a9190615ad2565b90915550505b6007820180546001810182556000918252602082200182905560ff8054839290613b7b908490615ad2565b909155505085546001600160a01b03808b169163a9059cbb9116613b9f848d614d67565b6040516001600160e01b031960e085901b1681526001600160a01b03909216600483015260248201526044016020604051808303816000875af1158015613bea573d6000803e3d6000fd5b505050506040513d601f19601f82011682018060405250810190613c0e9190615a67565b50855481906001600160a01b03908116908c167f197a0a2b0fbff3fc4f7f4d32597585aa8415fcc4c5dd6634336ec65904529c83613c4d876001615ad2565b60408051918252602082018190526005908201526410539554d160da1b606082015260800160405180910390a4600a82015460ff16613d3d57610103548260050154118015613ca25750610110548260060154115b15613d3d5785546101028054600180820183556000929092527f93bdaa6a4190909b7c3fbe8d42169ffe1cab19f51dfc8db24c71abf849eced4a0180546001600160a01b0319166001600160a01b03938416179055600a8401805460ff191690911790558654604051911681527facc63915cb028aeaee9996abc0f864fc0559a2f955750aa97d6ef9f51014acfb9060200160405180910390a15b505b89816006016000828254613d539190615ad2565b9091555050610105546005820154118015613d80575061010f546001820154630100000090910460ff1611155b15613dcd57845484516001600160a01b0390911690859085908110613da757613da7615aa6565b6001600160a01b039092166020928302919091019091015282613dc981615ae5565b9350505b935080613dd981615ae5565b915050613ac0565b508015613fb5576000816064610104548b613dfc9190615b29565b613e069190615d30565b613e109190615d30565b905060005b82811015613fb25760006001600160a01b0316848281518110613e3a57613e3a615aa6565b60200260200101516001600160a01b03160315613fb25760006101096000868481518110613e6a57613e6a615aa6565b60200260200101516001600160a01b03166001600160a01b031681526020019081526020016000209050886001600160a01b031663a9059cbb868481518110613eb557613eb5615aa6565b6020026020010151613ec7868d614d67565b6040516001600160e01b031960e085901b1681526001600160a01b03909216600483015260248201526044016020604051808303816000875af1158015613f12573d6000803e3d6000fd5b505050506040513d601f19601f82011682018060405250810190613f369190615a67565b50848281518110613f4957613f49615aa6565b60200260200101516001600160a01b0316837f62f12b06523c734cca73aa1502a5f967c8e09d0a2f084fd36acbac47f54b0d4e60405160405180910390a36009018054600181018255600091825260209091200182905580613faa81615ae5565b915050613e15565b50505b6101025415611b185760006064610101548a613fd19190615b29565b613fdb9190615d30565b610102546040805142602082015244918101919091529192506000916060016040516020818303038152906040528051906020012060001c61401d9190615d97565b90506000610102828154811061403557614035615aa6565b6000918252602080832091909101546001600160a01b0316808352610109909152604090912061010f54600182015492935090916201000090910460ff161161416157896001600160a01b031663a9059cbb83614092878e614d67565b6040516001600160e01b031960e085901b1681526001600160a01b03909216600483015260248201526044016020604051808303816000875af11580156140dd573d6000803e3d6000fd5b505050506040513d601f19601f820116820180604052508101906141019190615a67565b50600881018054600181018255600091825260209182902001859055604080518681526001600160a01b038516928101929092527f51e673ac98f0ea063ce27eb5af807d22b97cd11cd79380cf1f711ad80948046c910160405180910390a15b505050505050505050505050565b6001600160a01b038116600090815261010d602052604081205461ffff169003611bfe5761010f546000906141a99061ffff166001615dab565b6001600160a01b038316600081815261010d60209081526040808320805461ffff191661ffff878116918217909255845261010c909252822080546001600160a01b0319908116851790915561010e80546001810182559084527f44731785622d53a842eeb261a70df6f2b61b9624656157b6168597f0656f480501805490911690931790925561010f805493945092909116919061424783615d63565b91906101000a81548161ffff021916908361ffff160217905550505050565b606081015151600090156142cb5760015b8260600151518161ffff1610156142c95782606001518161ffff16815181106142a2576142a2615aa6565b6020026020010151826142b59190615ad2565b9150806142c181615d63565b915050614277565b505b919050565b611bfe613819565b7f4910fdfa16fed3260ed0e7147f7cc6da11a60208b5b9406d12a635614ffd91435460ff16156143105761430b83614df3565b611763565b826001600160a01b03166352d1902d6040518163ffffffff1660e01b8152600401602060405180830381865afa92505050801561436a575060408051601f3d908101601f1916820190925261436791810190615dcd565b60015b6143cd5760405162461bcd60e51b815260206004820152602e60248201527f45524331393637557067726164653a206e657720696d706c656d656e7461746960448201526d6f6e206973206e6f74205555505360901b6064820152608401610a98565b600080516020615f6c833981519152811461443c5760405162461bcd60e51b815260206004820152602960248201527f45524331393637557067726164653a20756e737570706f727465642070726f786044820152681a58589b195555525160ba1b6064820152608401610a98565b50611763838383614e8f565b606580546001600160a01b038381166001600160a01b0319831681179093556040519116919082907f8be0079c531659141344cd1fd0a4f28419497f9722a3daafe3b4186f6b6457e090600090a35050565b600054610100900460ff166144c15760405162461bcd60e51b8152600401610a9890615de6565b611dcf614eb4565b600054610100900460ff166144f05760405162461bcd60e51b8152600401610a9890615de6565b611dcf614ee7565b600054610100900460ff16611dcf5760405162461bcd60e51b8152600401610a9890615de6565b6060600061452d8484615e31565b61ffff1667ffffffffffffffff811115614549576145496151d0565b604051908082528060200260200182016040528015614572578160200160208202803683370190505b5091505b8261ffff168461ffff1611614a275761ffff8416600090815261010c60209081526040808320546001600160a01b0390811680855261010984528285208351610160810185528154909316835260018101805485518188028101880190965280865292969593949193858101939083018282801561461d57602002820191906000526020600020905b81546001600160a01b031681526001909101906020018083116145ff575b505050505081526020016002820180548060200260200160405190810160405280929190818152602001828054801561467f57602002820191906000526020600020905b81546001600160a01b03168152600190910190602001808311614661575b50505050508152602001600382018054806020026020016040519081016040528092919081815260200182805480156146d757602002820191906000526020600020905b8154815260200190600101908083116146c3575b505050505081526020016004820154815260200160058201548152602001600682015481526020016007820180548060200260200160405190810160405280929190818152602001828054801561474d57602002820191906000526020600020905b815481526020019060010190808311614739575b50505050508152602001600882018054806020026020016040519081016040528092919081815260200182805480156147a557602002820191906000526020600020905b815481526020019060010190808311614791575b50505050508152602001600982018054806020026020016040519081016040528092919081815260200182805480156147fd57602002820191906000526020600020905b8154815260200190600101908083116147e9575b5050509183525050600a919091015460ff9081161515602092830152898116600090815261010b83526040808220815160e0810183528154909416845260018101549484019490945260028401549083015260038301546060830152600483018054949550909391929160808401919061487690615b40565b80601f01602080910402602001604051908101604052809291908181526020018280546148a290615b40565b80156148ef5780601f106148c4576101008083540402835291602001916148ef565b820191906000526020600020905b8154815290600101906020018083116148d257829003601f168201915b5050505050815260200160058201805461490890615b40565b80601f016020809104026020016040519081016040528092919081815260200182805461493490615b40565b80156149815780601f1061495657610100808354040283529160200191614981565b820191906000526020600020905b81548152906001019060200180831161496457829003601f168201915b50505050508152602001600682015481525050905080602001516149a483614266565b101580156149ba575080604001518260a0015110155b80156149cf57506149cf828260600151614a2f565b15614a115782858561ffff16815181106149eb576149eb615aa6565b6001600160a01b039092166020928302919091019091015283614a0d81615d63565b9450505b5050508380614a1f90615d63565b945050614576565b935093915050565b6000806000600285602001515110614d5f5760005b8560200151518161ffff161015614d3b576000610109600088602001518461ffff1681518110614a7657614a76615aa6565b6020908102919091018101516001600160a01b03908116835282820193909352604091820160002082516101608101845281549094168452600181018054845181850281018501909552808552919385840193909290830182828015614b0557602002820191906000526020600020905b81546001600160a01b03168152600190910190602001808311614ae7575b5050505050815260200160028201805480602002602001604051908101604052809291908181526020018280548015614b6757602002820191906000526020600020905b81546001600160a01b03168152600190910190602001808311614b49575b5050505050815260200160038201805480602002602001604051908101604052809291908181526020018280548015614bbf57602002820191906000526020600020905b815481526020019060010190808311614bab575b5050505050815260200160048201548152602001600582015481526020016006820154815260200160078201805480602002602001604051908101604052809291908181526020018280548015614c3557602002820191906000526020600020905b815481526020019060010190808311614c21575b5050505050815260200160088201805480602002602001604051908101604052809291908181526020018280548015614c8d57602002820191906000526020600020905b815481526020019060010190808311614c79575b5050505050815260200160098201805480602002602001604051908101604052809291908181526020018280548015614ce557602002820191906000526020600020905b815481526020019060010190808311614cd1575b5050509183525050600a919091015460ff16151560209091015260c0810151909150841015614d16578060c0015193505b60c0810151614d259084615ad2565b9250508080614d3390615d63565b915050614a44565b50838210158015614d55575083614d528383615d84565b10155b15614d5f57600192505b505092915050565b6000670de0b6b3a7640000826001600160a01b031663313ce5676040518163ffffffff1660e01b8152600401602060405180830381865afa158015614db0573d6000803e3d6000fd5b505050506040513d601f19601f82011682018060405250810190614dd49190615dcd565b614ddf90600a615f30565b614de99085615b29565b6114459190615d30565b6001600160a01b0381163b614e605760405162461bcd60e51b815260206004820152602d60248201527f455243313936373a206e657720696d706c656d656e746174696f6e206973206e60448201526c1bdd08184818dbdb9d1c9858dd609a1b6064820152608401610a98565b600080516020615f6c83398151915280546001600160a01b0319166001600160a01b0392909216919091179055565b614e9883614f17565b600082511180614ea55750805b15611763576109528383614f57565b600054610100900460ff16614edb5760405162461bcd60e51b8152600401610a9890615de6565b6033805460ff19169055565b600054610100900460ff16614f0e5760405162461bcd60e51b8152600401610a9890615de6565b611dcf33614448565b614f2081614df3565b6040516001600160a01b038216907fbc7cd75a20ee27fd9adebab32041f755214dbc6bffa90cc0225b39da2e5c2d3b90600090a250565b60606001600160a01b0383163b614fbf5760405162461bcd60e51b815260206004820152602660248201527f416464726573733a2064656c65676174652063616c6c20746f206e6f6e2d636f6044820152651b9d1c9858dd60d21b6064820152608401610a98565b600080846001600160a01b031684604051614fda9190615f3c565b600060405180830381855af49150503d8060008114615015576040519150601f19603f3d011682016040523d82523d6000602084013e61501a565b606091505b50915091506150428282604051806060016040528060278152602001615f8c6027913961504b565b95945050505050565b6060831561505a575081611445565b611445838381511561506f5781518083602001fd5b8060405162461bcd60e51b8152600401610a989190615f58565b8280548282559060005260206000209081019282156150c9579160200282015b828111156150c9578251829060ff169055916020019190600101906150a9565b506150d59291506150d9565b5090565b5b808211156150d557600081556001016150da565b6001600160a01b0381168114611bfe57600080fd5b60006020828403121561511557600080fd5b8135611445816150ee565b803561ffff811681146142cb57600080fd5b60006020828403121561514457600080fd5b61144582615120565b60008060006060848603121561516257600080fd5b833561516d816150ee565b9250602084013561517d816150ee565b929592945050506040919091013590565b6000806000606084860312156151a357600080fd5b8335925060208401356151b5816150ee565b915060408401356151c5816150ee565b809150509250925092565b634e487b7160e01b600052604160045260246000fd5b604051601f8201601f1916810167ffffffffffffffff8111828210171561520f5761520f6151d0565b604052919050565b600067ffffffffffffffff821115615231576152316151d0565b5060051b60200190565b803560ff811681146142cb57600080fd5b600082601f83011261525d57600080fd5b8135602061527261526d83615217565b6151e6565b82815260059290921b8401810191818101908684111561529157600080fd5b8286015b848110156152b3576152a68161523b565b8352918301918301615295565b509695505050505050565b600082601f8301126152cf57600080fd5b813560206152df61526d83615217565b82815260059290921b840181019181810190868411156152fe57600080fd5b8286015b848110156152b35780358352918301918301615302565b600067ffffffffffffffff831115615333576153336151d0565b615346601f8401601f19166020016151e6565b905082815283838301111561535a57600080fd5b828260208301376000602084830101529392505050565b600082601f83011261538257600080fd5b8135602061539261526d83615217565b82815260059290921b840181019181810190868411156153b157600080fd5b8286015b848110156152b357803567ffffffffffffffff8111156153d55760008081fd5b8701603f810189136153e75760008081fd5b6153f8898683013560408401615319565b8452509183019183016153b5565b600080600080600080600060e0888a03121561542157600080fd5b873567ffffffffffffffff8082111561543957600080fd5b6154458b838c0161524c565b985060208a013591508082111561545b57600080fd5b6154678b838c016152be565b975060408a013591508082111561547d57600080fd5b6154898b838c016152be565b965060608a013591508082111561549f57600080fd5b6154ab8b838c016152be565b955060808a01359150808211156154c157600080fd5b6154cd8b838c01615371565b945060a08a01359150808211156154e357600080fd5b6154ef8b838c01615371565b935060c08a013591508082111561550557600080fd5b506155128a828b016152be565b91505092959891949750929550565b6000806040838503121561553457600080fd5b823561553f816150ee565b9150602083013561554f816150ee565b809150509250929050565b6000806040838503121561556d57600080fd5b8235615578816150ee565b9150602083013567ffffffffffffffff81111561559457600080fd5b8301601f810185136155a557600080fd5b6155b485823560208401615319565b9150509250929050565b6000602082840312156155d057600080fd5b5035919050565b600080604083850312156155ea57600080fd5b82356155f5816150ee565b91506156036020840161523b565b90509250929050565b6000806040838503121561561f57600080fd5b823561562a816150ee565b946020939093013593505050565b602080825282516001600160a01b031682820152828101516060604084015280516080840181905260009291820190839060a08601905b8083101561569257835160ff16825292840192600192909201919084019061566f565b5060ff60408801511660608701528094505050505092915050565b600080602083850312156156c057600080fd5b823567ffffffffffffffff808211156156d857600080fd5b818501915085601f8301126156ec57600080fd5b8135818111156156fb57600080fd5b8660208260051b850101111561571057600080fd5b60209290920196919550909350505050565b6000806040838503121561573557600080fd5b50508035926020909101359150565b60006020828403121561575657600080fd5b6114458261523b565b60005b8381101561577a578181015183820152602001615762565b50506000910152565b6000815180845261579b81602086016020860161575f565b601f01601f19169290920160200192915050565b60ff8816815286602082015285604082015284606082015260e0608082015260006157dd60e0830186615783565b82810360a08401526157ef8186615783565b9150508260c083015298975050505050505050565b60008060006060848603121561581957600080fd5b6158228461523b565b925061583060208501615120565b915061583e60408501615120565b90509250925092565b600081518084526020808501945080840160005b838110156158805781516001600160a01b03168752958201959082019060010161585b565b509495945050505050565b60408152600061589e6040830185615847565b905061ffff831660208301529392505050565b6080815260006158c46080830187615847565b85602084015282810360408401526158dc8186615847565b91505082606083015295945050505050565b600081518084526020808501945080840160005b8381101561588057815187529582019590820190600101615902565b602081526159386020820183516001600160a01b03169052565b60006020830151610160806040850152615956610180850183615847565b91506040850151601f19808685030160608701526159748483615847565b9350606087015191508086850301608087015261599184836158ee565b9350608087015160a087015260a087015160c087015260c087015160e087015260e087015191506101008187860301818801526159ce85846158ee565b9450808801519250506101208187860301818801526159ed85846158ee565b945080880151925050610140818786030181880152615a0c85846158ee565b94508088015192505050615a238286018215159052565b5090949350505050565b848152608060208201526000615a4660808301866158ee565b6040830194909452506001600160a01b039190911660609091015292915050565b600060208284031215615a7957600080fd5b8151801515811461144557600080fd5b600060208284031215615a9b57600080fd5b8151611445816150ee565b634e487b7160e01b600052603260045260246000fd5b634e487b7160e01b600052601160045260246000fd5b8082018082111561097957610979615abc565b600060018201615af757615af7615abc565b5060010190565b6020808252601190820152702cb7ba9030b932903737ba1030b236b4b760791b604082015260600190565b808202811582820484141761097957610979615abc565b600181811c90821680615b5457607f821691505b6020821081036142c957634e487b7160e01b600052602260045260246000fd5b601f82111561176357600081815260208120601f850160051c81016020861015615b9b5750805b601f850160051c820191505b81811015615bba57828155600101615ba7565b505050505050565b815167ffffffffffffffff811115615bdc57615bdc6151d0565b615bf081615bea8454615b40565b84615b74565b602080601f831160018114615c255760008415615c0d5750858301515b600019600386901b1c1916600185901b178555615bba565b600085815260208120601f198616915b82811015615c5457888601518255948401946001909101908401615c35565b5085821015615c725787850151600019600388901b60f8161c191681555b5050505050600190811b01905550565b6020808252602c908201527f46756e6374696f6e206d7573742062652063616c6c6564207468726f7567682060408201526b19195b1959d85d1958d85b1b60a21b606082015260800190565b6020808252602c908201527f46756e6374696f6e206d7573742062652063616c6c6564207468726f7567682060408201526b6163746976652070726f787960a01b606082015260800190565b634e487b7160e01b600052601260045260246000fd5b600082615d3f57615d3f615d1a565b500490565b600060ff821660ff8103615d5a57615d5a615abc565b60010192915050565b600061ffff808316818103615d7a57615d7a615abc565b6001019392505050565b8181038181111561097957610979615abc565b600082615da657615da6615d1a565b500690565b61ffff818116838216019080821115615dc657615dc6615abc565b5092915050565b600060208284031215615ddf57600080fd5b5051919050565b6020808252602b908201527f496e697469616c697a61626c653a20636f6e7472616374206973206e6f74206960408201526a6e697469616c697a696e6760a81b606082015260800190565b61ffff828116828216039080821115615dc657615dc6615abc565b600181815b80851115615e87578160001904821115615e6d57615e6d615abc565b80851615615e7a57918102915b93841c9390800290615e51565b509250929050565b600082615e9e57506001610979565b81615eab57506000610979565b8160018114615ec15760028114615ecb57615ee7565b6001915050610979565b60ff841115615edc57615edc615abc565b50506001821b610979565b5060208310610133831016604e8410600b8410161715615f0a575081810a610979565b615f148383615e4c565b8060001904821115615f2857615f28615abc565b029392505050565b60006114458383615e8f565b60008251615f4e81846020870161575f565b9190910192915050565b602081526000611445602083018461578356fe360894a13ba1a3210667c828492db98dca3e2076cc3735a920a3ca505d382bbc416464726573733a206c6f772d6c6576656c2064656c65676174652063616c6c206661696c6564a2646970667358221220affe6202e74af13d99cef21e55d0e2f509bf77c0314a54e47291ca52df21999f64736f6c63430008110033","opcodes":"PUSH1 0xA0 PUSH1 0x40 MSTORE ADDRESS PUSH1 0x80 MSTORE CALLVALUE DUP1 ISZERO PUSH2 0x14 JUMPI PUSH1 0x0 DUP1 REVERT JUMPDEST POP PUSH1 0x80 MLOAD PUSH2 0x5FE8 PUSH3 0x4D PUSH1 0x0 CODECOPY PUSH1 0x0 DUP2 DUP2 PUSH2 0x1B2C ADD MSTORE DUP2 DUP2 PUSH2 0x1B6C ADD MSTORE DUP2 DUP2 PUSH2 0x1C1D ADD MSTORE DUP2 DUP2 PUSH2 0x1C5D ADD MSTORE PUSH2 0x1D17 ADD MSTORE PUSH2 0x5FE8 PUSH1 0x0 RETURN INVALID PUSH1 0x80 PUSH1 0x40 MSTORE PUSH1 0x4 CALLDATASIZE LT PUSH2 0x24A JUMPI PUSH1 0x0 CALLDATALOAD PUSH1 0xE0 SHR DUP1 PUSH4 0x771AA216 GT PUSH2 0x139 JUMPI DUP1 PUSH4 0xBFF1F9E1 GT PUSH2 0xB6 JUMPI DUP1 PUSH4 0xEF519DC0 GT PUSH2 0x7A JUMPI DUP1 PUSH4 0xEF519DC0 EQ PUSH2 0x7DC JUMPI DUP1 PUSH4 0xF13A143F EQ PUSH2 0x817 JUMPI DUP1 PUSH4 0xF2FDE38B EQ PUSH2 0x835 JUMPI DUP1 PUSH4 0xFAEDA7E5 EQ PUSH2 0x855 JUMPI DUP1 PUSH4 0xFB47E016 EQ PUSH2 0x885 JUMPI DUP1 PUSH4 0xFB5D4526 EQ PUSH2 0x8B2 JUMPI PUSH1 0x0 DUP1 REVERT JUMPDEST DUP1 PUSH4 0xBFF1F9E1 EQ PUSH2 0x70D JUMPI DUP1 PUSH4 0xCB0E0D7D EQ PUSH2 0x73C JUMPI DUP1 PUSH4 0xCCEF5587 EQ PUSH2 0x76E JUMPI DUP1 PUSH4 0xDD1CA716 EQ PUSH2 0x78E JUMPI DUP1 PUSH4 0xE5FFB5DF EQ PUSH2 0x7BC JUMPI PUSH1 0x0 DUP1 REVERT JUMPDEST DUP1 PUSH4 0x8A93F7B9 GT PUSH2 0xFD JUMPI DUP1 PUSH4 0x8A93F7B9 EQ PUSH2 0x647 JUMPI DUP1 PUSH4 0x8DA5CB5B EQ PUSH2 0x667 JUMPI DUP1 PUSH4 0x91B493E4 EQ PUSH2 0x685 JUMPI DUP1 PUSH4 0x9B317CC4 EQ PUSH2 0x6A5 JUMPI DUP1 PUSH4 0xA0760AFF EQ PUSH2 0x6D8 JUMPI PUSH1 0x0 DUP1 REVERT JUMPDEST DUP1 PUSH4 0x771AA216 EQ PUSH2 0x5A5 JUMPI DUP1 PUSH4 0x7D2E90C2 EQ PUSH2 0x5C5 JUMPI DUP1 PUSH4 0x8129FC1C EQ PUSH2 0x5E5 JUMPI DUP1 PUSH4 0x86F6630D EQ PUSH2 0x5FA JUMPI DUP1 PUSH4 0x89DB4EB0 EQ PUSH2 0x627 JUMPI PUSH1 0x0 DUP1 REVERT JUMPDEST DUP1 PUSH4 0x35166FEF GT PUSH2 0x1C7 JUMPI DUP1 PUSH4 0x502AA3B5 GT PUSH2 0x18B JUMPI DUP1 PUSH4 0x502AA3B5 EQ PUSH2 0x524 JUMPI DUP1 PUSH4 0x52D1902D EQ PUSH2 0x544 JUMPI DUP1 PUSH4 0x5C975ABB EQ PUSH2 0x559 JUMPI DUP1 PUSH4 0x715018A6 EQ PUSH2 0x571 JUMPI DUP1 PUSH4 0x71E13EAD EQ PUSH2 0x586 JUMPI PUSH1 0x0 DUP1 REVERT JUMPDEST DUP1 PUSH4 0x35166FEF EQ PUSH2 0x477 JUMPI DUP1 PUSH4 0x3659CFE6 EQ PUSH2 0x497 JUMPI DUP1 PUSH4 0x3B38BF72 EQ PUSH2 0x4B7 JUMPI DUP1 PUSH4 0x43B4EBF4 EQ PUSH2 0x4D7 JUMPI DUP1 PUSH4 0x4F1EF286 EQ PUSH2 0x511 JUMPI PUSH1 0x0 DUP1 REVERT JUMPDEST DUP1 PUSH4 0x228159B4 GT PUSH2 0x20E JUMPI DUP1 PUSH4 0x228159B4 EQ PUSH2 0x364 JUMPI DUP1 PUSH4 0x2405091C EQ PUSH2 0x384 JUMPI DUP1 PUSH4 0x25F1C91E EQ PUSH2 0x3C4 JUMPI DUP1 PUSH4 0x2BB5112D EQ PUSH2 0x3F2 JUMPI DUP1 PUSH4 0x348A7E94 EQ PUSH2 0x457 JUMPI PUSH1 0x0 DUP1 REVERT JUMPDEST DUP1 PUSH4 0x19F157A EQ PUSH2 0x256 JUMPI DUP1 PUSH4 0x25313FF EQ PUSH2 0x2A5 JUMPI DUP1 PUSH4 0x898ADC7 EQ PUSH2 0x2F4 JUMPI DUP1 PUSH4 0xA783EA5 EQ PUSH2 0x316 JUMPI DUP1 PUSH4 0x18452CD8 EQ PUSH2 0x344 JUMPI PUSH1 0x0 DUP1 REVERT JUMPDEST CALLDATASIZE PUSH2 0x251 JUMPI STOP JUMPDEST PUSH1 0x0 DUP1 REVERT JUMPDEST CALLVALUE DUP1 ISZERO PUSH2 0x262 JUMPI PUSH1 0x0 DUP1 REVERT JUMPDEST POP PUSH2 0x290 PUSH2 0x271 CALLDATASIZE PUSH1 0x4 PUSH2 0x5103 JUMP JUMPDEST PUSH1 0x1 PUSH1 0x1 PUSH1 0xA0 SHL SUB AND PUSH1 0x0 SWAP1 DUP2 MSTORE PUSH2 0x111 PUSH1 0x20 MSTORE PUSH1 0x40 SWAP1 KECCAK256 SLOAD PUSH1 0xFF AND SWAP1 JUMP JUMPDEST PUSH1 0x40 MLOAD SWAP1 ISZERO ISZERO DUP2 MSTORE PUSH1 0x20 ADD JUMPDEST PUSH1 0x40 MLOAD DUP1 SWAP2 SUB SWAP1 RETURN JUMPDEST CALLVALUE DUP1 ISZERO PUSH2 0x2B1 JUMPI PUSH1 0x0 DUP1 REVERT JUMPDEST POP PUSH2 0x2DC PUSH2 0x2C0 CALLDATASIZE PUSH1 0x4 PUSH2 0x5132 JUMP JUMPDEST PUSH2 0x10C PUSH1 0x20 MSTORE PUSH1 0x0 SWAP1 DUP2 MSTORE PUSH1 0x40 SWAP1 KECCAK256 SLOAD PUSH1 0x1 PUSH1 0x1 PUSH1 0xA0 SHL SUB AND DUP2 JUMP JUMPDEST PUSH1 0x40 MLOAD PUSH1 0x1 PUSH1 0x1 PUSH1 0xA0 SHL SUB SWAP1 SWAP2 AND DUP2 MSTORE PUSH1 0x20 ADD PUSH2 0x29C JUMP JUMPDEST CALLVALUE DUP1 ISZERO PUSH2 0x300 JUMPI PUSH1 0x0 DUP1 REVERT JUMPDEST POP PUSH2 0x314 PUSH2 0x30F CALLDATASIZE PUSH1 0x4 PUSH2 0x514D JUMP JUMPDEST PUSH2 0x8D7 JUMP JUMPDEST STOP JUMPDEST CALLVALUE DUP1 ISZERO PUSH2 0x322 JUMPI PUSH1 0x0 DUP1 REVERT JUMPDEST POP PUSH2 0x10F SLOAD PUSH4 0x1000000 SWAP1 DIV PUSH1 0xFF AND JUMPDEST PUSH1 0x40 MLOAD PUSH1 0xFF SWAP1 SWAP2 AND DUP2 MSTORE PUSH1 0x20 ADD PUSH2 0x29C JUMP JUMPDEST CALLVALUE DUP1 ISZERO PUSH2 0x350 JUMPI PUSH1 0x0 DUP1 REVERT JUMPDEST POP PUSH2 0x290 PUSH2 0x35F CALLDATASIZE PUSH1 0x4 PUSH2 0x5103 JUMP JUMPDEST PUSH2 0x958 JUMP JUMPDEST CALLVALUE DUP1 ISZERO PUSH2 0x370 JUMPI PUSH1 0x0 DUP1 REVERT JUMPDEST POP PUSH2 0x314 PUSH2 0x37F CALLDATASIZE PUSH1 0x4 PUSH2 0x518E JUMP JUMPDEST PUSH2 0x97F JUMP JUMPDEST CALLVALUE DUP1 ISZERO PUSH2 0x390 JUMPI PUSH1 0x0 DUP1 REVERT JUMPDEST POP PUSH2 0x3A4 PUSH2 0x39F CALLDATASIZE PUSH1 0x4 PUSH2 0x5103 JUMP JUMPDEST PUSH2 0xBC6 JUMP JUMPDEST PUSH1 0x40 DUP1 MLOAD SWAP5 DUP6 MSTORE PUSH1 0x20 DUP6 ADD SWAP4 SWAP1 SWAP4 MSTORE SWAP2 DUP4 ADD MSTORE PUSH1 0x60 DUP3 ADD MSTORE PUSH1 0x80 ADD PUSH2 0x29C JUMP JUMPDEST CALLVALUE DUP1 ISZERO PUSH2 0x3D0 JUMPI PUSH1 0x0 DUP1 REVERT JUMPDEST POP PUSH2 0x3E4 PUSH2 0x3DF CALLDATASIZE PUSH1 0x4 PUSH2 0x5103 JUMP JUMPDEST PUSH2 0x11B5 JUMP JUMPDEST PUSH1 0x40 MLOAD SWAP1 DUP2 MSTORE PUSH1 0x20 ADD PUSH2 0x29C JUMP JUMPDEST CALLVALUE DUP1 ISZERO PUSH2 0x3FE JUMPI PUSH1 0x0 DUP1 REVERT JUMPDEST POP PUSH2 0x436 PUSH2 0x40D CALLDATASIZE PUSH1 0x4 PUSH2 0x5103 JUMP JUMPDEST PUSH2 0x10A PUSH1 0x20 MSTORE PUSH1 0x0 SWAP1 DUP2 MSTORE PUSH1 0x40 SWAP1 KECCAK256 DUP1 SLOAD PUSH1 0x2 SWAP1 SWAP2 ADD SLOAD PUSH1 0x1 PUSH1 0x1 PUSH1 0xA0 SHL SUB SWAP1 SWAP2 AND SWAP1 PUSH1 0xFF AND DUP3 JUMP JUMPDEST PUSH1 0x40 DUP1 MLOAD PUSH1 0x1 PUSH1 0x1 PUSH1 0xA0 SHL SUB SWAP1 SWAP4 AND DUP4 MSTORE PUSH1 0xFF SWAP1 SWAP2 AND PUSH1 0x20 DUP4 ADD MSTORE ADD PUSH2 0x29C JUMP JUMPDEST CALLVALUE DUP1 ISZERO PUSH2 0x463 JUMPI PUSH1 0x0 DUP1 REVERT JUMPDEST POP PUSH2 0x314 PUSH2 0x472 CALLDATASIZE PUSH1 0x4 PUSH2 0x5103 JUMP JUMPDEST PUSH2 0x144C JUMP JUMPDEST CALLVALUE DUP1 ISZERO PUSH2 0x483 JUMPI PUSH1 0x0 DUP1 REVERT JUMPDEST POP PUSH2 0x314 PUSH2 0x492 CALLDATASIZE PUSH1 0x4 PUSH2 0x5406 JUMP JUMPDEST PUSH2 0x1769 JUMP JUMPDEST CALLVALUE DUP1 ISZERO PUSH2 0x4A3 JUMPI PUSH1 0x0 DUP1 REVERT JUMPDEST POP PUSH2 0x314 PUSH2 0x4B2 CALLDATASIZE PUSH1 0x4 PUSH2 0x5103 JUMP JUMPDEST PUSH2 0x1B22 JUMP JUMPDEST CALLVALUE DUP1 ISZERO PUSH2 0x4C3 JUMPI PUSH1 0x0 DUP1 REVERT JUMPDEST POP PUSH2 0x314 PUSH2 0x4D2 CALLDATASIZE PUSH1 0x4 PUSH2 0x5521 JUMP JUMPDEST PUSH2 0x1C01 JUMP JUMPDEST CALLVALUE DUP1 ISZERO PUSH2 0x4E3 JUMPI PUSH1 0x0 DUP1 REVERT JUMPDEST POP PUSH2 0x2DC PUSH2 0x4F2 CALLDATASIZE PUSH1 0x4 PUSH2 0x5103 JUMP JUMPDEST PUSH1 0x1 PUSH1 0x1 PUSH1 0xA0 SHL SUB SWAP1 DUP2 AND PUSH1 0x0 SWAP1 DUP2 MSTORE PUSH2 0x109 PUSH1 0x20 MSTORE PUSH1 0x40 SWAP1 KECCAK256 SLOAD AND SWAP1 JUMP JUMPDEST PUSH2 0x314 PUSH2 0x51F CALLDATASIZE PUSH1 0x4 PUSH2 0x555A JUMP JUMPDEST PUSH2 0x1C13 JUMP JUMPDEST CALLVALUE DUP1 ISZERO PUSH2 0x530 JUMPI PUSH1 0x0 DUP1 REVERT JUMPDEST POP PUSH2 0x2DC PUSH2 0x53F CALLDATASIZE PUSH1 0x4 PUSH2 0x55BE JUMP JUMPDEST PUSH2 0x1CDF JUMP JUMPDEST CALLVALUE DUP1 ISZERO PUSH2 0x550 JUMPI PUSH1 0x0 DUP1 REVERT JUMPDEST POP PUSH2 0x3E4 PUSH2 0x1D0A JUMP JUMPDEST CALLVALUE DUP1 ISZERO PUSH2 0x565 JUMPI PUSH1 0x0 DUP1 REVERT JUMPDEST POP PUSH1 0x33 SLOAD PUSH1 0xFF AND PUSH2 0x290 JUMP JUMPDEST CALLVALUE DUP1 ISZERO PUSH2 0x57D JUMPI PUSH1 0x0 DUP1 REVERT JUMPDEST POP PUSH2 0x314 PUSH2 0x1DBD JUMP JUMPDEST CALLVALUE DUP1 ISZERO PUSH2 0x592 JUMPI PUSH1 0x0 DUP1 REVERT JUMPDEST POP PUSH2 0x10F SLOAD PUSH3 0x10000 SWAP1 DIV PUSH1 0xFF AND PUSH2 0x332 JUMP JUMPDEST CALLVALUE DUP1 ISZERO PUSH2 0x5B1 JUMPI PUSH1 0x0 DUP1 REVERT JUMPDEST POP PUSH2 0x314 PUSH2 0x5C0 CALLDATASIZE PUSH1 0x4 PUSH2 0x55D7 JUMP JUMPDEST PUSH2 0x1DD1 JUMP JUMPDEST CALLVALUE DUP1 ISZERO PUSH2 0x5D1 JUMPI PUSH1 0x0 DUP1 REVERT JUMPDEST POP PUSH2 0x314 PUSH2 0x5E0 CALLDATASIZE PUSH1 0x4 PUSH2 0x560C JUMP JUMPDEST PUSH2 0x1ED5 JUMP JUMPDEST CALLVALUE DUP1 ISZERO PUSH2 0x5F1 JUMPI PUSH1 0x0 DUP1 REVERT JUMPDEST POP PUSH2 0x314 PUSH2 0x1F13 JUMP JUMPDEST CALLVALUE DUP1 ISZERO PUSH2 0x606 JUMPI PUSH1 0x0 DUP1 REVERT JUMPDEST POP PUSH2 0x61A PUSH2 0x615 CALLDATASIZE PUSH1 0x4 PUSH2 0x5103 JUMP JUMPDEST PUSH2 0x20F9 JUMP JUMPDEST PUSH1 0x40 MLOAD PUSH2 0x29C SWAP2 SWAP1 PUSH2 0x5638 JUMP JUMPDEST CALLVALUE DUP1 ISZERO PUSH2 0x633 JUMPI PUSH1 0x0 DUP1 REVERT JUMPDEST POP PUSH2 0x314 PUSH2 0x642 CALLDATASIZE PUSH1 0x4 PUSH2 0x5103 JUMP JUMPDEST PUSH2 0x21DF JUMP JUMPDEST CALLVALUE DUP1 ISZERO PUSH2 0x653 JUMPI PUSH1 0x0 DUP1 REVERT JUMPDEST POP PUSH2 0x314 PUSH2 0x662 CALLDATASIZE PUSH1 0x4 PUSH2 0x56AD JUMP JUMPDEST PUSH2 0x2400 JUMP JUMPDEST CALLVALUE DUP1 ISZERO PUSH2 0x673 JUMPI PUSH1 0x0 DUP1 REVERT JUMPDEST POP PUSH1 0x65 SLOAD PUSH1 0x1 PUSH1 0x1 PUSH1 0xA0 SHL SUB AND PUSH2 0x2DC JUMP JUMPDEST CALLVALUE DUP1 ISZERO PUSH2 0x691 JUMPI PUSH1 0x0 DUP1 REVERT JUMPDEST POP PUSH2 0x314 PUSH2 0x6A0 CALLDATASIZE PUSH1 0x4 PUSH2 0x5722 JUMP JUMPDEST PUSH2 0x24D4 JUMP JUMPDEST CALLVALUE DUP1 ISZERO PUSH2 0x6B1 JUMPI PUSH1 0x0 DUP1 REVERT JUMPDEST POP PUSH2 0x6C5 PUSH2 0x6C0 CALLDATASIZE PUSH1 0x4 PUSH2 0x5744 JUMP JUMPDEST PUSH2 0x2569 JUMP JUMPDEST PUSH1 0x40 MLOAD PUSH2 0x29C SWAP8 SWAP7 SWAP6 SWAP5 SWAP4 SWAP3 SWAP2 SWAP1 PUSH2 0x57AF JUMP JUMPDEST CALLVALUE DUP1 ISZERO PUSH2 0x6E4 JUMPI PUSH1 0x0 DUP1 REVERT JUMPDEST POP PUSH2 0x6F8 PUSH2 0x6F3 CALLDATASIZE PUSH1 0x4 PUSH2 0x5103 JUMP JUMPDEST PUSH2 0x26BB JUMP JUMPDEST PUSH1 0x40 DUP1 MLOAD SWAP3 DUP4 MSTORE PUSH1 0x20 DUP4 ADD SWAP2 SWAP1 SWAP2 MSTORE ADD PUSH2 0x29C JUMP JUMPDEST CALLVALUE DUP1 ISZERO PUSH2 0x719 JUMPI PUSH1 0x0 DUP1 REVERT JUMPDEST POP PUSH2 0x10F SLOAD PUSH2 0x729 SWAP1 PUSH2 0xFFFF AND DUP2 JUMP JUMPDEST PUSH1 0x40 MLOAD PUSH2 0xFFFF SWAP1 SWAP2 AND DUP2 MSTORE PUSH1 0x20 ADD PUSH2 0x29C JUMP JUMPDEST CALLVALUE DUP1 ISZERO PUSH2 0x748 JUMPI PUSH1 0x0 DUP1 REVERT JUMPDEST POP PUSH2 0x729 PUSH2 0x757 CALLDATASIZE PUSH1 0x4 PUSH2 0x5103 JUMP JUMPDEST PUSH2 0x10D PUSH1 0x20 MSTORE PUSH1 0x0 SWAP1 DUP2 MSTORE PUSH1 0x40 SWAP1 KECCAK256 SLOAD PUSH2 0xFFFF AND DUP2 JUMP JUMPDEST CALLVALUE DUP1 ISZERO PUSH2 0x77A JUMPI PUSH1 0x0 DUP1 REVERT JUMPDEST POP PUSH2 0x314 PUSH2 0x789 CALLDATASIZE PUSH1 0x4 PUSH2 0x560C JUMP JUMPDEST PUSH2 0x2C52 JUMP JUMPDEST CALLVALUE DUP1 ISZERO PUSH2 0x79A JUMPI PUSH1 0x0 DUP1 REVERT JUMPDEST POP PUSH2 0x7AE PUSH2 0x7A9 CALLDATASIZE PUSH1 0x4 PUSH2 0x5804 JUMP JUMPDEST PUSH2 0x2C7A JUMP JUMPDEST PUSH1 0x40 MLOAD PUSH2 0x29C SWAP3 SWAP2 SWAP1 PUSH2 0x588B JUMP JUMPDEST CALLVALUE DUP1 ISZERO PUSH2 0x7C8 JUMPI PUSH1 0x0 DUP1 REVERT JUMPDEST POP PUSH2 0x332 PUSH2 0x7D7 CALLDATASIZE PUSH1 0x4 PUSH2 0x5103 JUMP JUMPDEST PUSH2 0x2D58 JUMP JUMPDEST CALLVALUE DUP1 ISZERO PUSH2 0x7E8 JUMPI PUSH1 0x0 DUP1 REVERT JUMPDEST POP PUSH2 0x7FC PUSH2 0x7F7 CALLDATASIZE PUSH1 0x4 PUSH2 0x5103 JUMP JUMPDEST PUSH2 0x31E7 JUMP JUMPDEST PUSH1 0x40 DUP1 MLOAD SWAP4 DUP5 MSTORE PUSH1 0x20 DUP5 ADD SWAP3 SWAP1 SWAP3 MSTORE SWAP1 DUP3 ADD MSTORE PUSH1 0x60 ADD PUSH2 0x29C JUMP JUMPDEST CALLVALUE DUP1 ISZERO PUSH2 0x823 JUMPI PUSH1 0x0 DUP1 REVERT JUMPDEST POP PUSH1 0xFB SLOAD PUSH1 0x1 PUSH1 0x1 PUSH1 0xA0 SHL SUB AND PUSH2 0x2DC JUMP JUMPDEST CALLVALUE DUP1 ISZERO PUSH2 0x841 JUMPI PUSH1 0x0 DUP1 REVERT JUMPDEST POP PUSH2 0x314 PUSH2 0x850 CALLDATASIZE PUSH1 0x4 PUSH2 0x5103 JUMP JUMPDEST PUSH2 0x3302 JUMP JUMPDEST CALLVALUE DUP1 ISZERO PUSH2 0x861 JUMPI PUSH1 0x0 DUP1 REVERT JUMPDEST POP PUSH2 0x875 PUSH2 0x870 CALLDATASIZE PUSH1 0x4 PUSH2 0x5103 JUMP JUMPDEST PUSH2 0x3378 JUMP JUMPDEST PUSH1 0x40 MLOAD PUSH2 0x29C SWAP5 SWAP4 SWAP3 SWAP2 SWAP1 PUSH2 0x58B1 JUMP JUMPDEST CALLVALUE DUP1 ISZERO PUSH2 0x891 JUMPI PUSH1 0x0 DUP1 REVERT JUMPDEST POP PUSH2 0x8A5 PUSH2 0x8A0 CALLDATASIZE PUSH1 0x4 PUSH2 0x5103 JUMP JUMPDEST PUSH2 0x3465 JUMP JUMPDEST PUSH1 0x40 MLOAD PUSH2 0x29C SWAP2 SWAP1 PUSH2 0x591E JUMP JUMPDEST CALLVALUE DUP1 ISZERO PUSH2 0x8BE JUMPI PUSH1 0x0 DUP1 REVERT JUMPDEST POP PUSH2 0x8C7 PUSH2 0x3752 JUMP JUMPDEST PUSH1 0x40 MLOAD PUSH2 0x29C SWAP5 SWAP4 SWAP3 SWAP2 SWAP1 PUSH2 0x5A2D JUMP JUMPDEST PUSH2 0x8DF PUSH2 0x3819 JUMP JUMPDEST PUSH1 0x40 MLOAD PUSH4 0xA9059CBB PUSH1 0xE0 SHL DUP2 MSTORE PUSH1 0x1 PUSH1 0x1 PUSH1 0xA0 SHL SUB DUP4 DUP2 AND PUSH1 0x4 DUP4 ADD MSTORE PUSH1 0x24 DUP3 ADD DUP4 SWAP1 MSTORE DUP5 AND SWAP1 PUSH4 0xA9059CBB SWAP1 PUSH1 0x44 ADD PUSH1 0x20 PUSH1 0x40 MLOAD DUP1 DUP4 SUB DUP2 PUSH1 0x0 DUP8 GAS CALL ISZERO DUP1 ISZERO PUSH2 0x92E JUMPI RETURNDATASIZE PUSH1 0x0 DUP1 RETURNDATACOPY RETURNDATASIZE PUSH1 0x0 REVERT JUMPDEST POP POP POP POP PUSH1 0x40 MLOAD RETURNDATASIZE PUSH1 0x1F NOT PUSH1 0x1F DUP3 ADD AND DUP3 ADD DUP1 PUSH1 0x40 MSTORE POP DUP2 ADD SWAP1 PUSH2 0x952 SWAP2 SWAP1 PUSH2 0x5A67 JUMP JUMPDEST POP POP POP POP JUMP JUMPDEST PUSH1 0x1 PUSH1 0x1 PUSH1 0xA0 SHL SUB DUP1 DUP3 AND PUSH1 0x0 SWAP1 DUP2 MSTORE PUSH2 0x109 PUSH1 0x20 MSTORE PUSH1 0x40 DUP2 KECCAK256 SLOAD SWAP1 SWAP2 AND ISZERO ISZERO JUMPDEST SWAP3 SWAP2 POP POP JUMP JUMPDEST PUSH1 0xFB SLOAD CALLER SWAP1 PUSH1 0x1 PUSH1 0x1 PUSH1 0xA0 SHL SUB AND PUSH2 0x99F PUSH1 0x65 SLOAD PUSH1 0x1 PUSH1 0x1 PUSH1 0xA0 SHL SUB AND SWAP1 JUMP JUMPDEST PUSH1 0x1 PUSH1 0x1 PUSH1 0xA0 SHL SUB AND DUP3 PUSH1 0x1 PUSH1 0x1 PUSH1 0xA0 SHL SUB AND EQ DUP1 PUSH2 0xA45 JUMPI POP PUSH1 0xFB PUSH1 0x0 SWAP1 SLOAD SWAP1 PUSH2 0x100 EXP SWAP1 DIV PUSH1 0x1 PUSH1 0x1 PUSH1 0xA0 SHL SUB AND PUSH1 0x1 PUSH1 0x1 PUSH1 0xA0 SHL SUB AND PUSH4 0x63D9DF85 PUSH1 0x40 MLOAD DUP2 PUSH4 0xFFFFFFFF AND PUSH1 0xE0 SHL DUP2 MSTORE PUSH1 0x4 ADD PUSH1 0x20 PUSH1 0x40 MLOAD DUP1 DUP4 SUB DUP2 DUP7 GAS STATICCALL ISZERO DUP1 ISZERO PUSH2 0xA0C JUMPI RETURNDATASIZE PUSH1 0x0 DUP1 RETURNDATACOPY RETURNDATASIZE PUSH1 0x0 REVERT JUMPDEST POP POP POP POP PUSH1 0x40 MLOAD RETURNDATASIZE PUSH1 0x1F NOT PUSH1 0x1F DUP3 ADD AND DUP3 ADD DUP1 PUSH1 0x40 MSTORE POP DUP2 ADD SWAP1 PUSH2 0xA30 SWAP2 SWAP1 PUSH2 0x5A89 JUMP JUMPDEST PUSH1 0x1 PUSH1 0x1 PUSH1 0xA0 SHL SUB AND DUP3 PUSH1 0x1 PUSH1 0x1 PUSH1 0xA0 SHL SUB AND EQ JUMPDEST PUSH2 0xAA1 JUMPI PUSH1 0x40 MLOAD PUSH3 0x461BCD PUSH1 0xE5 SHL DUP2 MSTORE PUSH1 0x20 PUSH1 0x4 DUP3 ADD MSTORE PUSH1 0x22 PUSH1 0x24 DUP3 ADD MSTORE PUSH32 0x4F6E6C79206F776E65722063616E2063616C6C20746869732066756E6374696F PUSH1 0x44 DUP3 ADD MSTORE PUSH2 0x3717 PUSH1 0xF1 SHL PUSH1 0x64 DUP3 ADD MSTORE PUSH1 0x84 ADD JUMPDEST PUSH1 0x40 MLOAD DUP1 SWAP2 SUB SWAP1 REVERT JUMPDEST PUSH1 0x1 PUSH1 0x1 PUSH1 0xA0 SHL SUB DUP5 DUP2 AND PUSH1 0x0 SWAP1 DUP2 MSTORE PUSH2 0x109 PUSH1 0x20 MSTORE PUSH1 0x40 SWAP1 KECCAK256 SLOAD AND ISZERO DUP1 ISZERO PUSH2 0xAD2 JUMPI POP PUSH1 0x1 PUSH1 0x1 PUSH1 0xA0 SHL SUB DUP4 AND ISZERO ISZERO JUMPDEST ISZERO PUSH2 0xAE1 JUMPI PUSH2 0xAE1 DUP5 DUP5 PUSH2 0x3873 JUMP JUMPDEST PUSH1 0x1 PUSH1 0x1 PUSH1 0xA0 SHL SUB DUP4 DUP2 AND PUSH1 0x0 SWAP1 DUP2 MSTORE PUSH2 0x109 PUSH1 0x20 MSTORE PUSH1 0x40 SWAP1 KECCAK256 SLOAD AND ISZERO DUP1 ISZERO PUSH2 0xB12 JUMPI POP PUSH1 0x1 PUSH1 0x1 PUSH1 0xA0 SHL SUB DUP4 AND ISZERO ISZERO JUMPDEST DUP1 ISZERO PUSH2 0xB2D JUMPI POP PUSH2 0x100 SLOAD PUSH1 0x1 PUSH1 0x1 PUSH1 0xA0 SHL SUB DUP5 DUP2 AND SWAP2 AND EQ ISZERO JUMPDEST ISZERO PUSH2 0xB4A JUMPI PUSH2 0x100 SLOAD PUSH2 0xB4A SWAP1 DUP5 SWAP1 PUSH1 0x1 PUSH1 0x1 PUSH1 0xA0 SHL SUB AND PUSH2 0x3873 JUMP JUMPDEST PUSH2 0xBB6 DUP6 DUP6 DUP4 PUSH1 0x1 PUSH1 0x1 PUSH1 0xA0 SHL SUB AND PUSH4 0x61150923 PUSH1 0x40 MLOAD DUP2 PUSH4 0xFFFFFFFF AND PUSH1 0xE0 SHL DUP2 MSTORE PUSH1 0x4 ADD PUSH1 0x20 PUSH1 0x40 MLOAD DUP1 DUP4 SUB DUP2 DUP7 GAS STATICCALL ISZERO DUP1 ISZERO PUSH2 0xB8D JUMPI RETURNDATASIZE PUSH1 0x0 DUP1 RETURNDATACOPY RETURNDATASIZE PUSH1 0x0 REVERT JUMPDEST POP POP POP POP PUSH1 0x40 MLOAD RETURNDATASIZE PUSH1 0x1F NOT PUSH1 0x1F DUP3 ADD AND DUP3 ADD DUP1 PUSH1 0x40 MSTORE POP DUP2 ADD SWAP1 PUSH2 0xBB1 SWAP2 SWAP1 PUSH2 0x5A89 JUMP JUMPDEST PUSH2 0x39BC JUMP JUMPDEST PUSH2 0xBBF DUP5 PUSH2 0x416F JUMP JUMPDEST POP POP POP POP POP JUMP JUMPDEST PUSH1 0x1 PUSH1 0x1 PUSH1 0xA0 SHL SUB DUP2 AND PUSH1 0x0 SWAP1 DUP2 MSTORE PUSH2 0x109 PUSH1 0x20 MSTORE PUSH1 0x40 DUP2 KECCAK256 PUSH1 0x1 DUP2 ADD SLOAD PUSH1 0x4 DUP3 ADD SLOAD SWAP3 SWAP2 DUP3 SWAP2 DUP3 SWAP2 SWAP1 DUP3 JUMPDEST DUP2 DUP2 LT ISZERO PUSH2 0xEC9 JUMPI PUSH1 0x0 PUSH2 0x109 PUSH1 0x0 DUP6 PUSH1 0x1 ADD DUP5 DUP2 SLOAD DUP2 LT PUSH2 0xC16 JUMPI PUSH2 0xC16 PUSH2 0x5AA6 JUMP JUMPDEST PUSH1 0x0 SWAP2 DUP3 MSTORE PUSH1 0x20 DUP1 DUP4 KECCAK256 SWAP1 SWAP2 ADD SLOAD PUSH1 0x1 PUSH1 0x1 PUSH1 0xA0 SHL SUB SWAP1 DUP2 AND DUP5 MSTORE DUP4 DUP3 ADD SWAP5 SWAP1 SWAP5 MSTORE PUSH1 0x40 SWAP3 DUP4 ADD SWAP1 SWAP2 KECCAK256 DUP3 MLOAD PUSH2 0x160 DUP2 ADD DUP5 MSTORE DUP2 SLOAD SWAP1 SWAP5 AND DUP5 MSTORE PUSH1 0x1 DUP2 ADD DUP1 SLOAD DUP5 MLOAD DUP2 DUP6 MUL DUP2 ADD DUP6 ADD SWAP1 SWAP6 MSTORE DUP1 DUP6 MSTORE SWAP2 SWAP4 DUP6 DUP5 ADD SWAP4 SWAP1 SWAP3 SWAP1 DUP4 ADD DUP3 DUP3 DUP1 ISZERO PUSH2 0xCA7 JUMPI PUSH1 0x20 MUL DUP3 ADD SWAP2 SWAP1 PUSH1 0x0 MSTORE PUSH1 0x20 PUSH1 0x0 KECCAK256 SWAP1 JUMPDEST DUP2 SLOAD PUSH1 0x1 PUSH1 0x1 PUSH1 0xA0 SHL SUB AND DUP2 MSTORE PUSH1 0x1 SWAP1 SWAP2 ADD SWAP1 PUSH1 0x20 ADD DUP1 DUP4 GT PUSH2 0xC89 JUMPI JUMPDEST POP POP POP POP POP DUP2 MSTORE PUSH1 0x20 ADD PUSH1 0x2 DUP3 ADD DUP1 SLOAD DUP1 PUSH1 0x20 MUL PUSH1 0x20 ADD PUSH1 0x40 MLOAD SWAP1 DUP2 ADD PUSH1 0x40 MSTORE DUP1 SWAP3 SWAP2 SWAP1 DUP2 DUP2 MSTORE PUSH1 0x20 ADD DUP3 DUP1 SLOAD DUP1 ISZERO PUSH2 0xD09 JUMPI PUSH1 0x20 MUL DUP3 ADD SWAP2 SWAP1 PUSH1 0x0 MSTORE PUSH1 0x20 PUSH1 0x0 KECCAK256 SWAP1 JUMPDEST DUP2 SLOAD PUSH1 0x1 PUSH1 0x1 PUSH1 0xA0 SHL SUB AND DUP2 MSTORE PUSH1 0x1 SWAP1 SWAP2 ADD SWAP1 PUSH1 0x20 ADD DUP1 DUP4 GT PUSH2 0xCEB JUMPI JUMPDEST POP POP POP POP POP DUP2 MSTORE PUSH1 0x20 ADD PUSH1 0x3 DUP3 ADD DUP1 SLOAD DUP1 PUSH1 0x20 MUL PUSH1 0x20 ADD PUSH1 0x40 MLOAD SWAP1 DUP2 ADD PUSH1 0x40 MSTORE DUP1 SWAP3 SWAP2 SWAP1 DUP2 DUP2 MSTORE PUSH1 0x20 ADD DUP3 DUP1 SLOAD DUP1 ISZERO PUSH2 0xD61 JUMPI PUSH1 0x20 MUL DUP3 ADD SWAP2 SWAP1 PUSH1 0x0 MSTORE PUSH1 0x20 PUSH1 0x0 KECCAK256 SWAP1 JUMPDEST DUP2 SLOAD DUP2 MSTORE PUSH1 0x20 ADD SWAP1 PUSH1 0x1 ADD SWAP1 DUP1 DUP4 GT PUSH2 0xD4D JUMPI JUMPDEST POP POP POP POP POP DUP2 MSTORE PUSH1 0x20 ADD PUSH1 0x4 DUP3 ADD SLOAD DUP2 MSTORE PUSH1 0x20 ADD PUSH1 0x5 DUP3 ADD SLOAD DUP2 MSTORE PUSH1 0x20 ADD PUSH1 0x6 DUP3 ADD SLOAD DUP2 MSTORE PUSH1 0x20 ADD PUSH1 0x7 DUP3 ADD DUP1 SLOAD DUP1 PUSH1 0x20 MUL PUSH1 0x20 ADD PUSH1 0x40 MLOAD SWAP1 DUP2 ADD PUSH1 0x40 MSTORE DUP1 SWAP3 SWAP2 SWAP1 DUP2 DUP2 MSTORE PUSH1 0x20 ADD DUP3 DUP1 SLOAD DUP1 ISZERO PUSH2 0xDD7 JUMPI PUSH1 0x20 MUL DUP3 ADD SWAP2 SWAP1 PUSH1 0x0 MSTORE PUSH1 0x20 PUSH1 0x0 KECCAK256 SWAP1 JUMPDEST DUP2 SLOAD DUP2 MSTORE PUSH1 0x20 ADD SWAP1 PUSH1 0x1 ADD SWAP1 DUP1 DUP4 GT PUSH2 0xDC3 JUMPI JUMPDEST POP POP POP POP POP DUP2 MSTORE PUSH1 0x20 ADD PUSH1 0x8 DUP3 ADD DUP1 SLOAD DUP1 PUSH1 0x20 MUL PUSH1 0x20 ADD PUSH1 0x40 MLOAD SWAP1 DUP2 ADD PUSH1 0x40 MSTORE DUP1 SWAP3 SWAP2 SWAP1 DUP2 DUP2 MSTORE PUSH1 0x20 ADD DUP3 DUP1 SLOAD DUP1 ISZERO PUSH2 0xE2F JUMPI PUSH1 0x20 MUL DUP3 ADD SWAP2 SWAP1 PUSH1 0x0 MSTORE PUSH1 0x20 PUSH1 0x0 KECCAK256 SWAP1 JUMPDEST DUP2 SLOAD DUP2 MSTORE PUSH1 0x20 ADD SWAP1 PUSH1 0x1 ADD SWAP1 DUP1 DUP4 GT PUSH2 0xE1B JUMPI JUMPDEST POP POP POP POP POP DUP2 MSTORE PUSH1 0x20 ADD PUSH1 0x9 DUP3 ADD DUP1 SLOAD DUP1 PUSH1 0x20 MUL PUSH1 0x20 ADD PUSH1 0x40 MLOAD SWAP1 DUP2 ADD PUSH1 0x40 MSTORE DUP1 SWAP3 SWAP2 SWAP1 DUP2 DUP2 MSTORE PUSH1 0x20 ADD DUP3 DUP1 SLOAD DUP1 ISZERO PUSH2 0xE87 JUMPI PUSH1 0x20 MUL DUP3 ADD SWAP2 SWAP1 PUSH1 0x0 MSTORE PUSH1 0x20 PUSH1 0x0 KECCAK256 SWAP1 JUMPDEST DUP2 SLOAD DUP2 MSTORE PUSH1 0x20 ADD SWAP1 PUSH1 0x1 ADD SWAP1 DUP1 DUP4 GT PUSH2 0xE73 JUMPI JUMPDEST POP POP POP SWAP2 DUP4 MSTORE POP POP PUSH1 0xA SWAP2 SWAP1 SWAP2 ADD SLOAD PUSH1 0xFF AND ISZERO ISZERO PUSH1 0x20 SWAP1 SWAP2 ADD MSTORE PUSH1 0x80 DUP2 ADD MLOAD SWAP1 SWAP2 POP PUSH2 0xEB3 SWAP1 DUP9 PUSH2 0x5AD2 JUMP JUMPDEST SWAP7 POP POP DUP1 DUP1 PUSH2 0xEC1 SWAP1 PUSH2 0x5AE5 JUMP JUMPDEST SWAP2 POP POP PUSH2 0xBF2 JUMP JUMPDEST POP PUSH1 0x0 JUMPDEST DUP2 DUP2 LT ISZERO PUSH2 0x11A4 JUMPI PUSH1 0x0 PUSH2 0x109 PUSH1 0x0 DUP6 PUSH1 0x1 ADD DUP5 DUP2 SLOAD DUP2 LT PUSH2 0xEF1 JUMPI PUSH2 0xEF1 PUSH2 0x5AA6 JUMP JUMPDEST PUSH1 0x0 SWAP2 DUP3 MSTORE PUSH1 0x20 DUP1 DUP4 KECCAK256 SWAP1 SWAP2 ADD SLOAD PUSH1 0x1 PUSH1 0x1 PUSH1 0xA0 SHL SUB SWAP1 DUP2 AND DUP5 MSTORE DUP4 DUP3 ADD SWAP5 SWAP1 SWAP5 MSTORE PUSH1 0x40 SWAP3 DUP4 ADD SWAP1 SWAP2 KECCAK256 DUP3 MLOAD PUSH2 0x160 DUP2 ADD DUP5 MSTORE DUP2 SLOAD SWAP1 SWAP5 AND DUP5 MSTORE PUSH1 0x1 DUP2 ADD DUP1 SLOAD DUP5 MLOAD DUP2 DUP6 MUL DUP2 ADD DUP6 ADD SWAP1 SWAP6 MSTORE DUP1 DUP6 MSTORE SWAP2 SWAP4 DUP6 DUP5 ADD SWAP4 SWAP1 SWAP3 SWAP1 DUP4 ADD DUP3 DUP3 DUP1 ISZERO PUSH2 0xF82 JUMPI PUSH1 0x20 MUL DUP3 ADD SWAP2 SWAP1 PUSH1 0x0 MSTORE PUSH1 0x20 PUSH1 0x0 KECCAK256 SWAP1 JUMPDEST DUP2 SLOAD PUSH1 0x1 PUSH1 0x1 PUSH1 0xA0 SHL SUB AND DUP2 MSTORE PUSH1 0x1 SWAP1 SWAP2 ADD SWAP1 PUSH1 0x20 ADD DUP1 DUP4 GT PUSH2 0xF64 JUMPI JUMPDEST POP POP POP POP POP DUP2 MSTORE PUSH1 0x20 ADD PUSH1 0x2 DUP3 ADD DUP1 SLOAD DUP1 PUSH1 0x20 MUL PUSH1 0x20 ADD PUSH1 0x40 MLOAD SWAP1 DUP2 ADD PUSH1 0x40 MSTORE DUP1 SWAP3 SWAP2 SWAP1 DUP2 DUP2 MSTORE PUSH1 0x20 ADD DUP3 DUP1 SLOAD DUP1 ISZERO PUSH2 0xFE4 JUMPI PUSH1 0x20 MUL DUP3 ADD SWAP2 SWAP1 PUSH1 0x0 MSTORE PUSH1 0x20 PUSH1 0x0 KECCAK256 SWAP1 JUMPDEST DUP2 SLOAD PUSH1 0x1 PUSH1 0x1 PUSH1 0xA0 SHL SUB AND DUP2 MSTORE PUSH1 0x1 SWAP1 SWAP2 ADD SWAP1 PUSH1 0x20 ADD DUP1 DUP4 GT PUSH2 0xFC6 JUMPI JUMPDEST POP POP POP POP POP DUP2 MSTORE PUSH1 0x20 ADD PUSH1 0x3 DUP3 ADD DUP1 SLOAD DUP1 PUSH1 0x20 MUL PUSH1 0x20 ADD PUSH1 0x40 MLOAD SWAP1 DUP2 ADD PUSH1 0x40 MSTORE DUP1 SWAP3 SWAP2 SWAP1 DUP2 DUP2 MSTORE PUSH1 0x20 ADD DUP3 DUP1 SLOAD DUP1 ISZERO PUSH2 0x103C JUMPI PUSH1 0x20 MUL DUP3 ADD SWAP2 SWAP1 PUSH1 0x0 MSTORE PUSH1 0x20 PUSH1 0x0 KECCAK256 SWAP1 JUMPDEST DUP2 SLOAD DUP2 MSTORE PUSH1 0x20 ADD SWAP1 PUSH1 0x1 ADD SWAP1 DUP1 DUP4 GT PUSH2 0x1028 JUMPI JUMPDEST POP POP POP POP POP DUP2 MSTORE PUSH1 0x20 ADD PUSH1 0x4 DUP3 ADD SLOAD DUP2 MSTORE PUSH1 0x20 ADD PUSH1 0x5 DUP3 ADD SLOAD DUP2 MSTORE PUSH1 0x20 ADD PUSH1 0x6 DUP3 ADD SLOAD DUP2 MSTORE PUSH1 0x20 ADD PUSH1 0x7 DUP3 ADD DUP1 SLOAD DUP1 PUSH1 0x20 MUL PUSH1 0x20 ADD PUSH1 0x40 MLOAD SWAP1 DUP2 ADD PUSH1 0x40 MSTORE DUP1 SWAP3 SWAP2 SWAP1 DUP2 DUP2 MSTORE PUSH1 0x20 ADD DUP3 DUP1 SLOAD DUP1 ISZERO PUSH2 0x10B2 JUMPI PUSH1 0x20 MUL DUP3 ADD SWAP2 SWAP1 PUSH1 0x0 MSTORE PUSH1 0x20 PUSH1 0x0 KECCAK256 SWAP1 JUMPDEST DUP2 SLOAD DUP2 MSTORE PUSH1 0x20 ADD SWAP1 PUSH1 0x1 ADD SWAP1 DUP1 DUP4 GT PUSH2 0x109E JUMPI JUMPDEST POP POP POP POP POP DUP2 MSTORE PUSH1 0x20 ADD PUSH1 0x8 DUP3 ADD DUP1 SLOAD DUP1 PUSH1 0x20 MUL PUSH1 0x20 ADD PUSH1 0x40 MLOAD SWAP1 DUP2 ADD PUSH1 0x40 MSTORE DUP1 SWAP3 SWAP2 SWAP1 DUP2 DUP2 MSTORE PUSH1 0x20 ADD DUP3 DUP1 SLOAD DUP1 ISZERO PUSH2 0x110A JUMPI PUSH1 0x20 MUL DUP3 ADD SWAP2 SWAP1 PUSH1 0x0 MSTORE PUSH1 0x20 PUSH1 0x0 KECCAK256 SWAP1 JUMPDEST DUP2 SLOAD DUP2 MSTORE PUSH1 0x20 ADD SWAP1 PUSH1 0x1 ADD SWAP1 DUP1 DUP4 GT PUSH2 0x10F6 JUMPI JUMPDEST POP POP POP POP POP DUP2 MSTORE PUSH1 0x20 ADD PUSH1 0x9 DUP3 ADD DUP1 SLOAD DUP1 PUSH1 0x20 MUL PUSH1 0x20 ADD PUSH1 0x40 MLOAD SWAP1 DUP2 ADD PUSH1 0x40 MSTORE DUP1 SWAP3 SWAP2 SWAP1 DUP2 DUP2 MSTORE PUSH1 0x20 ADD DUP3 DUP1 SLOAD DUP1 ISZERO PUSH2 0x1162 JUMPI PUSH1 0x20 MUL DUP3 ADD SWAP2 SWAP1 PUSH1 0x0 MSTORE PUSH1 0x20 PUSH1 0x0 KECCAK256 SWAP1 JUMPDEST DUP2 SLOAD DUP2 MSTORE PUSH1 0x20 ADD SWAP1 PUSH1 0x1 ADD SWAP1 DUP1 DUP4 GT PUSH2 0x114E JUMPI JUMPDEST POP POP POP SWAP2 DUP4 MSTORE POP POP PUSH1 0xA SWAP2 SWAP1 SWAP2 ADD SLOAD PUSH1 0xFF AND ISZERO ISZERO PUSH1 0x20 SWAP1 SWAP2 ADD MSTORE PUSH1 0xC0 DUP2 ADD MLOAD SWAP1 SWAP2 POP PUSH2 0x118E SWAP1 DUP8 PUSH2 0x5AD2 JUMP JUMPDEST SWAP6 POP POP DUP1 DUP1 PUSH2 0x119C SWAP1 PUSH2 0x5AE5 JUMP JUMPDEST SWAP2 POP POP PUSH2 0xECD JUMP JUMPDEST POP DUP2 PUSH1 0x6 ADD SLOAD SWAP3 POP POP POP SWAP2 SWAP4 POP SWAP2 SWAP4 JUMP JUMPDEST PUSH1 0x1 PUSH1 0x1 PUSH1 0xA0 SHL SUB DUP1 DUP3 AND PUSH1 0x0 SWAP1 DUP2 MSTORE PUSH2 0x109 PUSH1 0x20 SWAP1 DUP2 MSTORE PUSH1 0x40 DUP1 DUP4 KECCAK256 DUP2 MLOAD PUSH2 0x160 DUP2 ADD DUP4 MSTORE DUP2 SLOAD SWAP1 SWAP6 AND DUP6 MSTORE PUSH1 0x1 DUP2 ADD DUP1 SLOAD DUP4 MLOAD DUP2 DUP7 MUL DUP2 ADD DUP7 ADD SWAP1 SWAP5 MSTORE DUP1 DUP5 MSTORE SWAP5 SWAP6 DUP7 SWAP6 SWAP1 SWAP5 SWAP3 SWAP4 DUP6 DUP5 ADD SWAP4 SWAP1 SWAP3 SWAP2 SWAP1 DUP4 ADD DUP3 DUP3 DUP1 ISZERO PUSH2 0x1240 JUMPI PUSH1 0x20 MUL DUP3 ADD SWAP2 SWAP1 PUSH1 0x0 MSTORE PUSH1 0x20 PUSH1 0x0 KECCAK256 SWAP1 JUMPDEST DUP2 SLOAD PUSH1 0x1 PUSH1 0x1 PUSH1 0xA0 SHL SUB AND DUP2 MSTORE PUSH1 0x1 SWAP1 SWAP2 ADD SWAP1 PUSH1 0x20 ADD DUP1 DUP4 GT PUSH2 0x1222 JUMPI JUMPDEST POP POP POP POP POP DUP2 MSTORE PUSH1 0x20 ADD PUSH1 0x2 DUP3 ADD DUP1 SLOAD DUP1 PUSH1 0x20 MUL PUSH1 0x20 ADD PUSH1 0x40 MLOAD SWAP1 DUP2 ADD PUSH1 0x40 MSTORE DUP1 SWAP3 SWAP2 SWAP1 DUP2 DUP2 MSTORE PUSH1 0x20 ADD DUP3 DUP1 SLOAD DUP1 ISZERO PUSH2 0x12A2 JUMPI PUSH1 0x20 MUL DUP3 ADD SWAP2 SWAP1 PUSH1 0x0 MSTORE PUSH1 0x20 PUSH1 0x0 KECCAK256 SWAP1 JUMPDEST DUP2 SLOAD PUSH1 0x1 PUSH1 0x1 PUSH1 0xA0 SHL SUB AND DUP2 MSTORE PUSH1 0x1 SWAP1 SWAP2 ADD SWAP1 PUSH1 0x20 ADD DUP1 DUP4 GT PUSH2 0x1284 JUMPI JUMPDEST POP POP POP POP POP DUP2 MSTORE PUSH1 0x20 ADD PUSH1 0x3 DUP3 ADD DUP1 SLOAD DUP1 PUSH1 0x20 MUL PUSH1 0x20 ADD PUSH1 0x40 MLOAD SWAP1 DUP2 ADD PUSH1 0x40 MSTORE DUP1 SWAP3 SWAP2 SWAP1 DUP2 DUP2 MSTORE PUSH1 0x20 ADD DUP3 DUP1 SLOAD DUP1 ISZERO PUSH2 0x12FA JUMPI PUSH1 0x20 MUL DUP3 ADD SWAP2 SWAP1 PUSH1 0x0 MSTORE PUSH1 0x20 PUSH1 0x0 KECCAK256 SWAP1 JUMPDEST DUP2 SLOAD DUP2 MSTORE PUSH1 0x20 ADD SWAP1 PUSH1 0x1 ADD SWAP1 DUP1 DUP4 GT PUSH2 0x12E6 JUMPI JUMPDEST POP POP POP POP POP DUP2 MSTORE PUSH1 0x20 ADD PUSH1 0x4 DUP3 ADD SLOAD DUP2 MSTORE PUSH1 0x20 ADD PUSH1 0x5 DUP3 ADD SLOAD DUP2 MSTORE PUSH1 0x20 ADD PUSH1 0x6 DUP3 ADD SLOAD DUP2 MSTORE PUSH1 0x20 ADD PUSH1 0x7 DUP3 ADD DUP1 SLOAD DUP1 PUSH1 0x20 MUL PUSH1 0x20 ADD PUSH1 0x40 MLOAD SWAP1 DUP2 ADD PUSH1 0x40 MSTORE DUP1 SWAP3 SWAP2 SWAP1 DUP2 DUP2 MSTORE PUSH1 0x20 ADD DUP3 DUP1 SLOAD DUP1 ISZERO PUSH2 0x1370 JUMPI PUSH1 0x20 MUL DUP3 ADD SWAP2 SWAP1 PUSH1 0x0 MSTORE PUSH1 0x20 PUSH1 0x0 KECCAK256 SWAP1 JUMPDEST DUP2 SLOAD DUP2 MSTORE PUSH1 0x20 ADD SWAP1 PUSH1 0x1 ADD SWAP1 DUP1 DUP4 GT PUSH2 0x135C JUMPI JUMPDEST POP POP POP POP POP DUP2 MSTORE PUSH1 0x20 ADD PUSH1 0x8 DUP3 ADD DUP1 SLOAD DUP1 PUSH1 0x20 MUL PUSH1 0x20 ADD PUSH1 0x40 MLOAD SWAP1 DUP2 ADD PUSH1 0x40 MSTORE DUP1 SWAP3 SWAP2 SWAP1 DUP2 DUP2 MSTORE PUSH1 0x20 ADD DUP3 DUP1 SLOAD DUP1 ISZERO PUSH2 0x13C8 JUMPI PUSH1 0x20 MUL DUP3 ADD SWAP2 SWAP1 PUSH1 0x0 MSTORE PUSH1 0x20 PUSH1 0x0 KECCAK256 SWAP1 JUMPDEST DUP2 SLOAD DUP2 MSTORE PUSH1 0x20 ADD SWAP1 PUSH1 0x1 ADD SWAP1 DUP1 DUP4 GT PUSH2 0x13B4 JUMPI JUMPDEST POP POP POP POP POP DUP2 MSTORE PUSH1 0x20 ADD PUSH1 0x9 DUP3 ADD DUP1 SLOAD DUP1 PUSH1 0x20 MUL PUSH1 0x20 ADD PUSH1 0x40 MLOAD SWAP1 DUP2 ADD PUSH1 0x40 MSTORE DUP1 SWAP3 SWAP2 SWAP1 DUP2 DUP2 MSTORE PUSH1 0x20 ADD DUP3 DUP1 SLOAD DUP1 ISZERO PUSH2 0x1420 JUMPI PUSH1 0x20 MUL DUP3 ADD SWAP2 SWAP1 PUSH1 0x0 MSTORE PUSH1 0x20 PUSH1 0x0 KECCAK256 SWAP1 JUMPDEST DUP2 SLOAD DUP2 MSTORE PUSH1 0x20 ADD SWAP1 PUSH1 0x1 ADD SWAP1 DUP1 DUP4 GT PUSH2 0x140C JUMPI JUMPDEST POP POP POP SWAP2 DUP4 MSTORE POP POP PUSH1 0xA SWAP2 SWAP1 SWAP2 ADD SLOAD PUSH1 0xFF AND ISZERO ISZERO PUSH1 0x20 SWAP1 SWAP2 ADD MSTORE SWAP1 POP PUSH2 0x1445 DUP2 PUSH2 0x4266 JUMP JUMPDEST SWAP4 SWAP3 POP POP POP JUMP JUMPDEST PUSH1 0x1 PUSH1 0x1 PUSH1 0xA0 SHL SUB DUP2 AND PUSH1 0x0 SWAP1 DUP2 MSTORE PUSH2 0x109 PUSH1 0x20 MSTORE PUSH1 0x40 DUP2 KECCAK256 PUSH1 0x6 DUP2 ADD SWAP2 SWAP1 SWAP2 SSTORE PUSH1 0x2 DUP2 ADD SLOAD ISZERO PUSH2 0x1765 JUMPI PUSH1 0x0 JUMPDEST PUSH1 0x2 DUP3 ADD SLOAD DUP2 LT ISZERO PUSH2 0x1763 JUMPI PUSH1 0x0 PUSH2 0x109 PUSH1 0x0 DUP5 PUSH1 0x2 ADD DUP5 DUP2 SLOAD DUP2 LT PUSH2 0x14A2 JUMPI PUSH2 0x14A2 PUSH2 0x5AA6 JUMP JUMPDEST PUSH1 0x0 SWAP2 DUP3 MSTORE PUSH1 0x20 DUP1 DUP4 KECCAK256 SWAP1 SWAP2 ADD SLOAD PUSH1 0x1 PUSH1 0x1 PUSH1 0xA0 SHL SUB SWAP1 DUP2 AND DUP5 MSTORE DUP4 DUP3 ADD SWAP5 SWAP1 SWAP5 MSTORE PUSH1 0x40 SWAP3 DUP4 ADD SWAP1 SWAP2 KECCAK256 DUP3 MLOAD PUSH2 0x160 DUP2 ADD DUP5 MSTORE DUP2 SLOAD SWAP1 SWAP5 AND DUP5 MSTORE PUSH1 0x1 DUP2 ADD DUP1 SLOAD DUP5 MLOAD DUP2 DUP6 MUL DUP2 ADD DUP6 ADD SWAP1 SWAP6 MSTORE DUP1 DUP6 MSTORE SWAP2 SWAP4 DUP6 DUP5 ADD SWAP4 SWAP1 SWAP3 SWAP1 DUP4 ADD DUP3 DUP3 DUP1 ISZERO PUSH2 0x1533 JUMPI PUSH1 0x20 MUL DUP3 ADD SWAP2 SWAP1 PUSH1 0x0 MSTORE PUSH1 0x20 PUSH1 0x0 KECCAK256 SWAP1 JUMPDEST DUP2 SLOAD PUSH1 0x1 PUSH1 0x1 PUSH1 0xA0 SHL SUB AND DUP2 MSTORE PUSH1 0x1 SWAP1 SWAP2 ADD SWAP1 PUSH1 0x20 ADD DUP1 DUP4 GT PUSH2 0x1515 JUMPI JUMPDEST POP POP POP POP POP DUP2 MSTORE PUSH1 0x20 ADD PUSH1 0x2 DUP3 ADD DUP1 SLOAD DUP1 PUSH1 0x20 MUL PUSH1 0x20 ADD PUSH1 0x40 MLOAD SWAP1 DUP2 ADD PUSH1 0x40 MSTORE DUP1 SWAP3 SWAP2 SWAP1 DUP2 DUP2 MSTORE PUSH1 0x20 ADD DUP3 DUP1 SLOAD DUP1 ISZERO PUSH2 0x1595 JUMPI PUSH1 0x20 MUL DUP3 ADD SWAP2 SWAP1 PUSH1 0x0 MSTORE PUSH1 0x20 PUSH1 0x0 KECCAK256 SWAP1 JUMPDEST DUP2 SLOAD PUSH1 0x1 PUSH1 0x1 PUSH1 0xA0 SHL SUB AND DUP2 MSTORE PUSH1 0x1 SWAP1 SWAP2 ADD SWAP1 PUSH1 0x20 ADD DUP1 DUP4 GT PUSH2 0x1577 JUMPI JUMPDEST POP POP POP POP POP DUP2 MSTORE PUSH1 0x20 ADD PUSH1 0x3 DUP3 ADD DUP1 SLOAD DUP1 PUSH1 0x20 MUL PUSH1 0x20 ADD PUSH1 0x40 MLOAD SWAP1 DUP2 ADD PUSH1 0x40 MSTORE DUP1 SWAP3 SWAP2 SWAP1 DUP2 DUP2 MSTORE PUSH1 0x20 ADD DUP3 DUP1 SLOAD DUP1 ISZERO PUSH2 0x15ED JUMPI PUSH1 0x20 MUL DUP3 ADD SWAP2 SWAP1 PUSH1 0x0 MSTORE PUSH1 0x20 PUSH1 0x0 KECCAK256 SWAP1 JUMPDEST DUP2 SLOAD DUP2 MSTORE PUSH1 0x20 ADD SWAP1 PUSH1 0x1 ADD SWAP1 DUP1 DUP4 GT PUSH2 0x15D9 JUMPI JUMPDEST POP POP POP POP POP DUP2 MSTORE PUSH1 0x20 ADD PUSH1 0x4 DUP3 ADD SLOAD DUP2 MSTORE PUSH1 0x20 ADD PUSH1 0x5 DUP3 ADD SLOAD DUP2 MSTORE PUSH1 0x20 ADD PUSH1 0x6 DUP3 ADD SLOAD DUP2 MSTORE PUSH1 0x20 ADD PUSH1 0x7 DUP3 ADD DUP1 SLOAD DUP1 PUSH1 0x20 MUL PUSH1 0x20 ADD PUSH1 0x40 MLOAD SWAP1 DUP2 ADD PUSH1 0x40 MSTORE DUP1 SWAP3 SWAP2 SWAP1 DUP2 DUP2 MSTORE PUSH1 0x20 ADD DUP3 DUP1 SLOAD DUP1 ISZERO PUSH2 0x1663 JUMPI PUSH1 0x20 MUL DUP3 ADD SWAP2 SWAP1 PUSH1 0x0 MSTORE PUSH1 0x20 PUSH1 0x0 KECCAK256 SWAP1 JUMPDEST DUP2 SLOAD DUP2 MSTORE PUSH1 0x20 ADD SWAP1 PUSH1 0x1 ADD SWAP1 DUP1 DUP4 GT PUSH2 0x164F JUMPI JUMPDEST POP POP POP POP POP DUP2 MSTORE PUSH1 0x20 ADD PUSH1 0x8 DUP3 ADD DUP1 SLOAD DUP1 PUSH1 0x20 MUL PUSH1 0x20 ADD PUSH1 0x40 MLOAD SWAP1 DUP2 ADD PUSH1 0x40 MSTORE DUP1 SWAP3 SWAP2 SWAP1 DUP2 DUP2 MSTORE PUSH1 0x20 ADD DUP3 DUP1 SLOAD DUP1 ISZERO PUSH2 0x16BB JUMPI PUSH1 0x20 MUL DUP3 ADD SWAP2 SWAP1 PUSH1 0x0 MSTORE PUSH1 0x20 PUSH1 0x0 KECCAK256 SWAP1 JUMPDEST DUP2 SLOAD DUP2 MSTORE PUSH1 0x20 ADD SWAP1 PUSH1 0x1 ADD SWAP1 DUP1 DUP4 GT PUSH2 0x16A7 JUMPI JUMPDEST POP POP POP POP POP DUP2 MSTORE PUSH1 0x20 ADD PUSH1 0x9 DUP3 ADD DUP1 SLOAD DUP1 PUSH1 0x20 MUL PUSH1 0x20 ADD PUSH1 0x40 MLOAD SWAP1 DUP2 ADD PUSH1 0x40 MSTORE DUP1 SWAP3 SWAP2 SWAP1 DUP2 DUP2 MSTORE PUSH1 0x20 ADD DUP3 DUP1 SLOAD DUP1 ISZERO PUSH2 0x1713 JUMPI PUSH1 0x20 MUL DUP3 ADD SWAP2 SWAP1 PUSH1 0x0 MSTORE PUSH1 0x20 PUSH1 0x0 KECCAK256 SWAP1 JUMPDEST DUP2 SLOAD DUP2 MSTORE PUSH1 0x20 ADD SWAP1 PUSH1 0x1 ADD SWAP1 DUP1 DUP4 GT PUSH2 0x16FF JUMPI JUMPDEST POP POP POP SWAP2 DUP4 MSTORE POP POP PUSH1 0xA SWAP2 SWAP1 SWAP2 ADD SLOAD PUSH1 0xFF AND ISZERO ISZERO PUSH1 0x20 SWAP1 SWAP2 ADD MSTORE PUSH1 0x80 DUP2 ADD MLOAD PUSH1 0x6 DUP6 ADD DUP1 SLOAD SWAP3 SWAP4 POP SWAP1 SWAP2 PUSH1 0x0 SWAP1 PUSH2 0x174B SWAP1 DUP5 SWAP1 PUSH2 0x5AD2 JUMP JUMPDEST SWAP1 SWAP2 SSTORE POP PUSH2 0x175C SWAP2 POP DUP3 SWAP1 POP PUSH2 0x5AE5 JUMP JUMPDEST SWAP1 POP PUSH2 0x147A JUMP JUMPDEST POP JUMPDEST POP POP JUMP JUMPDEST PUSH1 0xFB SLOAD PUSH1 0x40 MLOAD PUSH4 0x935E01B PUSH1 0xE2 SHL DUP2 MSTORE CALLER PUSH1 0x4 DUP3 ADD MSTORE PUSH1 0x1 PUSH1 0x1 PUSH1 0xA0 SHL SUB SWAP1 SWAP2 AND SWAP1 PUSH4 0x24D7806C SWAP1 PUSH1 0x24 ADD PUSH1 0x20 PUSH1 0x40 MLOAD DUP1 DUP4 SUB DUP2 DUP7 GAS STATICCALL ISZERO DUP1 ISZERO PUSH2 0x17B1 JUMPI RETURNDATASIZE PUSH1 0x0 DUP1 RETURNDATACOPY RETURNDATASIZE PUSH1 0x0 REVERT JUMPDEST POP POP POP POP PUSH1 0x40 MLOAD RETURNDATASIZE PUSH1 0x1F NOT PUSH1 0x1F DUP3 ADD AND DUP3 ADD DUP1 PUSH1 0x40 MSTORE POP DUP2 ADD SWAP1 PUSH2 0x17D5 SWAP2 SWAP1 PUSH2 0x5A67 JUMP JUMPDEST PUSH2 0x17F1 JUMPI PUSH1 0x40 MLOAD PUSH3 0x461BCD PUSH1 0xE5 SHL DUP2 MSTORE PUSH1 0x4 ADD PUSH2 0xA98 SWAP1 PUSH2 0x5AFE JUMP JUMPDEST PUSH1 0x0 JUMPDEST DUP8 MLOAD DUP2 LT ISZERO PUSH2 0x1B18 JUMPI PUSH1 0x40 MLOAD DUP1 PUSH1 0xE0 ADD PUSH1 0x40 MSTORE DUP1 DUP10 DUP4 DUP2 MLOAD DUP2 LT PUSH2 0x181A JUMPI PUSH2 0x181A PUSH2 0x5AA6 JUMP JUMPDEST PUSH1 0x20 MUL PUSH1 0x20 ADD ADD MLOAD PUSH1 0xFF AND DUP2 MSTORE PUSH1 0x20 ADD DUP9 DUP4 DUP2 MLOAD DUP2 LT PUSH2 0x183C JUMPI PUSH2 0x183C PUSH2 0x5AA6 JUMP JUMPDEST PUSH1 0x20 MUL PUSH1 0x20 ADD ADD MLOAD PUSH8 0xDE0B6B3A7640000 PUSH2 0x1857 SWAP2 SWAP1 PUSH2 0x5B29 JUMP JUMPDEST DUP2 MSTORE PUSH1 0x20 ADD DUP8 DUP4 DUP2 MLOAD DUP2 LT PUSH2 0x186E JUMPI PUSH2 0x186E PUSH2 0x5AA6 JUMP JUMPDEST PUSH1 0x20 MUL PUSH1 0x20 ADD ADD MLOAD PUSH8 0xDE0B6B3A7640000 PUSH2 0x1889 SWAP2 SWAP1 PUSH2 0x5B29 JUMP JUMPDEST DUP2 MSTORE PUSH1 0x20 ADD DUP7 DUP4 DUP2 MLOAD DUP2 LT PUSH2 0x18A0 JUMPI PUSH2 0x18A0 PUSH2 0x5AA6 JUMP JUMPDEST PUSH1 0x20 MUL PUSH1 0x20 ADD ADD MLOAD PUSH8 0xDE0B6B3A7640000 PUSH2 0x18BB SWAP2 SWAP1 PUSH2 0x5B29 JUMP JUMPDEST DUP2 MSTORE PUSH1 0x20 ADD DUP6 DUP4 DUP2 MLOAD DUP2 LT PUSH2 0x18D2 JUMPI PUSH2 0x18D2 PUSH2 0x5AA6 JUMP JUMPDEST PUSH1 0x20 MUL PUSH1 0x20 ADD ADD MLOAD DUP2 MSTORE PUSH1 0x20 ADD DUP5 DUP4 DUP2 MLOAD DUP2 LT PUSH2 0x18F1 JUMPI PUSH2 0x18F1 PUSH2 0x5AA6 JUMP JUMPDEST PUSH1 0x20 MUL PUSH1 0x20 ADD ADD MLOAD DUP2 MSTORE PUSH1 0x20 ADD DUP4 DUP4 DUP2 MLOAD DUP2 LT PUSH2 0x1910 JUMPI PUSH2 0x1910 PUSH2 0x5AA6 JUMP JUMPDEST PUSH1 0x20 MUL PUSH1 0x20 ADD ADD MLOAD PUSH8 0xDE0B6B3A7640000 PUSH2 0x192B SWAP2 SWAP1 PUSH2 0x5B29 JUMP JUMPDEST DUP2 MSTORE POP PUSH2 0x10B PUSH1 0x0 DUP11 DUP5 DUP2 MLOAD DUP2 LT PUSH2 0x1945 JUMPI PUSH2 0x1945 PUSH2 0x5AA6 JUMP JUMPDEST PUSH1 0x20 SWAP1 DUP2 MUL SWAP2 SWAP1 SWAP2 ADD DUP2 ADD MLOAD PUSH1 0xFF SWAP1 DUP2 AND DUP4 MSTORE DUP3 DUP3 ADD SWAP4 SWAP1 SWAP4 MSTORE PUSH1 0x40 SWAP2 DUP3 ADD PUSH1 0x0 KECCAK256 DUP5 MLOAD DUP2 SLOAD PUSH1 0xFF NOT AND SWAP5 AND SWAP4 SWAP1 SWAP4 OR DUP4 SSTORE DUP4 ADD MLOAD PUSH1 0x1 DUP4 ADD SSTORE DUP3 ADD MLOAD PUSH1 0x2 DUP3 ADD SSTORE PUSH1 0x60 DUP3 ADD MLOAD PUSH1 0x3 DUP3 ADD SSTORE PUSH1 0x80 DUP3 ADD MLOAD PUSH1 0x4 DUP3 ADD SWAP1 PUSH2 0x19A5 SWAP1 DUP3 PUSH2 0x5BC2 JUMP JUMPDEST POP PUSH1 0xA0 DUP3 ADD MLOAD PUSH1 0x5 DUP3 ADD SWAP1 PUSH2 0x19BA SWAP1 DUP3 PUSH2 0x5BC2 JUMP JUMPDEST POP PUSH1 0xC0 DUP3 ADD MLOAD DUP2 PUSH1 0x6 ADD SSTORE SWAP1 POP POP PUSH32 0xB9F30BF0AB6748F3FCFBC9D280ED1FEEDEA51276343F55F8342B8C453B876E9A DUP9 DUP3 DUP2 MLOAD DUP2 LT PUSH2 0x19FB JUMPI PUSH2 0x19FB PUSH2 0x5AA6 JUMP JUMPDEST PUSH1 0x20 MUL PUSH1 0x20 ADD ADD MLOAD DUP9 DUP4 DUP2 MLOAD DUP2 LT PUSH2 0x1A15 JUMPI PUSH2 0x1A15 PUSH2 0x5AA6 JUMP JUMPDEST PUSH1 0x20 MUL PUSH1 0x20 ADD ADD MLOAD PUSH8 0xDE0B6B3A7640000 PUSH2 0x1A30 SWAP2 SWAP1 PUSH2 0x5B29 JUMP JUMPDEST DUP9 DUP5 DUP2 MLOAD DUP2 LT PUSH2 0x1A42 JUMPI PUSH2 0x1A42 PUSH2 0x5AA6 JUMP JUMPDEST PUSH1 0x20 MUL PUSH1 0x20 ADD ADD MLOAD PUSH8 0xDE0B6B3A7640000 PUSH2 0x1A5D SWAP2 SWAP1 PUSH2 0x5B29 JUMP JUMPDEST DUP9 DUP6 DUP2 MLOAD DUP2 LT PUSH2 0x1A6F JUMPI PUSH2 0x1A6F PUSH2 0x5AA6 JUMP JUMPDEST PUSH1 0x20 MUL PUSH1 0x20 ADD ADD MLOAD PUSH8 0xDE0B6B3A7640000 PUSH2 0x1A8A SWAP2 SWAP1 PUSH2 0x5B29 JUMP JUMPDEST DUP9 DUP7 DUP2 MLOAD DUP2 LT PUSH2 0x1A9C JUMPI PUSH2 0x1A9C PUSH2 0x5AA6 JUMP JUMPDEST PUSH1 0x20 MUL PUSH1 0x20 ADD ADD MLOAD DUP9 DUP8 DUP2 MLOAD DUP2 LT PUSH2 0x1AB6 JUMPI PUSH2 0x1AB6 PUSH2 0x5AA6 JUMP JUMPDEST PUSH1 0x20 MUL PUSH1 0x20 ADD ADD MLOAD DUP9 DUP9 DUP2 MLOAD DUP2 LT PUSH2 0x1AD0 JUMPI PUSH2 0x1AD0 PUSH2 0x5AA6 JUMP JUMPDEST PUSH1 0x20 MUL PUSH1 0x20 ADD ADD MLOAD PUSH8 0xDE0B6B3A7640000 PUSH2 0x1AEB SWAP2 SWAP1 PUSH2 0x5B29 JUMP JUMPDEST PUSH1 0x40 MLOAD PUSH2 0x1AFE SWAP8 SWAP7 SWAP6 SWAP5 SWAP4 SWAP3 SWAP2 SWAP1 PUSH2 0x57AF JUMP JUMPDEST PUSH1 0x40 MLOAD DUP1 SWAP2 SUB SWAP1 LOG1 DUP1 PUSH2 0x1B10 DUP2 PUSH2 0x5AE5 JUMP JUMPDEST SWAP2 POP POP PUSH2 0x17F4 JUMP JUMPDEST POP POP POP POP POP POP POP POP JUMP JUMPDEST PUSH1 0x1 PUSH1 0x1 PUSH1 0xA0 SHL SUB PUSH32 0x0 AND ADDRESS SUB PUSH2 0x1B6A JUMPI PUSH1 0x40 MLOAD PUSH3 0x461BCD PUSH1 0xE5 SHL DUP2 MSTORE PUSH1 0x4 ADD PUSH2 0xA98 SWAP1 PUSH2 0x5C82 JUMP JUMPDEST PUSH32 0x0 PUSH1 0x1 PUSH1 0x1 PUSH1 0xA0 SHL SUB AND PUSH2 0x1BB3 PUSH1 0x0 DUP1 MLOAD PUSH1 0x20 PUSH2 0x5F6C DUP4 CODECOPY DUP2 MLOAD SWAP2 MSTORE SLOAD PUSH1 0x1 PUSH1 0x1 PUSH1 0xA0 SHL SUB AND SWAP1 JUMP JUMPDEST PUSH1 0x1 PUSH1 0x1 PUSH1 0xA0 SHL SUB AND EQ PUSH2 0x1BD9 JUMPI PUSH1 0x40 MLOAD PUSH3 0x461BCD PUSH1 0xE5 SHL DUP2 MSTORE PUSH1 0x4 ADD PUSH2 0xA98 SWAP1 PUSH2 0x5CCE JUMP JUMPDEST PUSH2 0x1BE2 DUP2 PUSH2 0x42D0 JUMP JUMPDEST PUSH1 0x40 DUP1 MLOAD PUSH1 0x0 DUP1 DUP3 MSTORE PUSH1 0x20 DUP3 ADD SWAP1 SWAP3 MSTORE PUSH2 0x1BFE SWAP2 DUP4 SWAP2 SWAP1 PUSH2 0x42D8 JUMP JUMPDEST POP JUMP JUMPDEST PUSH2 0x1C09 PUSH2 0x3819 JUMP JUMPDEST PUSH2 0x1765 DUP2 DUP4 PUSH2 0x3873 JUMP JUMPDEST PUSH1 0x1 PUSH1 0x1 PUSH1 0xA0 SHL SUB PUSH32 0x0 AND ADDRESS SUB PUSH2 0x1C5B JUMPI PUSH1 0x40 MLOAD PUSH3 0x461BCD PUSH1 0xE5 SHL DUP2 MSTORE PUSH1 0x4 ADD PUSH2 0xA98 SWAP1 PUSH2 0x5C82 JUMP JUMPDEST PUSH32 0x0 PUSH1 0x1 PUSH1 0x1 PUSH1 0xA0 SHL SUB AND PUSH2 0x1CA4 PUSH1 0x0 DUP1 MLOAD PUSH1 0x20 PUSH2 0x5F6C DUP4 CODECOPY DUP2 MLOAD SWAP2 MSTORE SLOAD PUSH1 0x1 PUSH1 0x1 PUSH1 0xA0 SHL SUB AND SWAP1 JUMP JUMPDEST PUSH1 0x1 PUSH1 0x1 PUSH1 0xA0 SHL SUB AND EQ PUSH2 0x1CCA JUMPI PUSH1 0x40 MLOAD PUSH3 0x461BCD PUSH1 0xE5 SHL DUP2 MSTORE PUSH1 0x4 ADD PUSH2 0xA98 SWAP1 PUSH2 0x5CCE JUMP JUMPDEST PUSH2 0x1CD3 DUP3 PUSH2 0x42D0 JUMP JUMPDEST PUSH2 0x1765 DUP3 DUP3 PUSH1 0x1 PUSH2 0x42D8 JUMP JUMPDEST PUSH2 0x10E DUP2 DUP2 SLOAD DUP2 LT PUSH2 0x1CF0 JUMPI PUSH1 0x0 DUP1 REVERT JUMPDEST PUSH1 0x0 SWAP2 DUP3 MSTORE PUSH1 0x20 SWAP1 SWAP2 KECCAK256 ADD SLOAD PUSH1 0x1 PUSH1 0x1 PUSH1 0xA0 SHL SUB AND SWAP1 POP DUP2 JUMP JUMPDEST PUSH1 0x0 ADDRESS PUSH1 0x1 PUSH1 0x1 PUSH1 0xA0 SHL SUB PUSH32 0x0 AND EQ PUSH2 0x1DAA JUMPI PUSH1 0x40 MLOAD PUSH3 0x461BCD PUSH1 0xE5 SHL DUP2 MSTORE PUSH1 0x20 PUSH1 0x4 DUP3 ADD MSTORE PUSH1 0x38 PUSH1 0x24 DUP3 ADD MSTORE PUSH32 0x555550535570677261646561626C653A206D757374206E6F742062652063616C PUSH1 0x44 DUP3 ADD MSTORE PUSH32 0x6C6564207468726F7567682064656C656761746563616C6C0000000000000000 PUSH1 0x64 DUP3 ADD MSTORE PUSH1 0x84 ADD PUSH2 0xA98 JUMP JUMPDEST POP PUSH1 0x0 DUP1 MLOAD PUSH1 0x20 PUSH2 0x5F6C DUP4 CODECOPY DUP2 MLOAD SWAP2 MSTORE SWAP1 JUMP JUMPDEST PUSH2 0x1DC5 PUSH2 0x3819 JUMP JUMPDEST PUSH2 0x1DCF PUSH1 0x0 PUSH2 0x4448 JUMP JUMPDEST JUMP JUMPDEST PUSH1 0xFB SLOAD PUSH1 0x40 MLOAD PUSH4 0x935E01B PUSH1 0xE2 SHL DUP2 MSTORE CALLER PUSH1 0x4 DUP3 ADD MSTORE PUSH1 0x1 PUSH1 0x1 PUSH1 0xA0 SHL SUB SWAP1 SWAP2 AND SWAP1 PUSH4 0x24D7806C SWAP1 PUSH1 0x24 ADD PUSH1 0x20 PUSH1 0x40 MLOAD DUP1 DUP4 SUB DUP2 DUP7 GAS STATICCALL ISZERO DUP1 ISZERO PUSH2 0x1E19 JUMPI RETURNDATASIZE PUSH1 0x0 DUP1 RETURNDATACOPY RETURNDATASIZE PUSH1 0x0 REVERT JUMPDEST POP POP POP POP PUSH1 0x40 MLOAD RETURNDATASIZE PUSH1 0x1F NOT PUSH1 0x1F DUP3 ADD AND DUP3 ADD DUP1 PUSH1 0x40 MSTORE POP DUP2 ADD SWAP1 PUSH2 0x1E3D SWAP2 SWAP1 PUSH2 0x5A67 JUMP JUMPDEST PUSH2 0x1E59 JUMPI PUSH1 0x40 MLOAD PUSH3 0x461BCD PUSH1 0xE5 SHL DUP2 MSTORE PUSH1 0x4 ADD PUSH2 0xA98 SWAP1 PUSH2 0x5AFE JUMP JUMPDEST PUSH1 0x1 PUSH1 0x1 PUSH1 0xA0 SHL SUB DUP1 DUP4 AND PUSH1 0x0 SWAP1 DUP2 MSTORE PUSH2 0x10A PUSH1 0x20 MSTORE PUSH1 0x40 SWAP1 KECCAK256 DUP1 SLOAD SWAP1 SWAP2 AND PUSH2 0x1E96 JUMPI DUP1 SLOAD PUSH1 0x1 PUSH1 0x1 PUSH1 0xA0 SHL SUB NOT AND PUSH1 0x1 PUSH1 0x1 PUSH1 0xA0 SHL SUB DUP5 AND OR DUP2 SSTORE JUMPDEST PUSH1 0x1 SWAP1 DUP2 ADD DUP1 SLOAD SWAP2 DUP3 ADD DUP2 SSTORE PUSH1 0x0 SWAP1 DUP2 MSTORE PUSH1 0x20 SWAP1 DUP2 SWAP1 KECCAK256 SWAP1 DUP3 DIV ADD DUP1 SLOAD PUSH1 0xFF SWAP4 DUP5 AND PUSH1 0x1F SWAP1 SWAP4 AND PUSH2 0x100 EXP SWAP3 DUP4 MUL SWAP4 SWAP1 SWAP3 MUL NOT SWAP1 SWAP2 AND SWAP2 SWAP1 SWAP2 OR SWAP1 SSTORE POP JUMP JUMPDEST PUSH2 0x1EDD PUSH2 0x3819 JUMP JUMPDEST PUSH1 0x40 MLOAD PUSH1 0x1 PUSH1 0x1 PUSH1 0xA0 SHL SUB DUP4 AND SWAP1 DUP3 ISZERO PUSH2 0x8FC MUL SWAP1 DUP4 SWAP1 PUSH1 0x0 DUP2 DUP2 DUP2 DUP6 DUP9 DUP9 CALL SWAP4 POP POP POP POP ISZERO DUP1 ISZERO PUSH2 0x1763 JUMPI RETURNDATASIZE PUSH1 0x0 DUP1 RETURNDATACOPY RETURNDATASIZE PUSH1 0x0 REVERT JUMPDEST PUSH1 0x0 SLOAD PUSH2 0x100 SWAP1 DIV PUSH1 0xFF AND ISZERO DUP1 DUP1 ISZERO PUSH2 0x1F33 JUMPI POP PUSH1 0x0 SLOAD PUSH1 0x1 PUSH1 0xFF SWAP1 SWAP2 AND LT JUMPDEST DUP1 PUSH2 0x1F4D JUMPI POP ADDRESS EXTCODESIZE ISZERO DUP1 ISZERO PUSH2 0x1F4D JUMPI POP PUSH1 0x0 SLOAD PUSH1 0xFF AND PUSH1 0x1 EQ JUMPDEST PUSH2 0x1FB0 JUMPI PUSH1 0x40 MLOAD PUSH3 0x461BCD PUSH1 0xE5 SHL DUP2 MSTORE PUSH1 0x20 PUSH1 0x4 DUP3 ADD MSTORE PUSH1 0x2E PUSH1 0x24 DUP3 ADD MSTORE PUSH32 0x496E697469616C697A61626C653A20636F6E747261637420697320616C726561 PUSH1 0x44 DUP3 ADD MSTORE PUSH14 0x191E481A5B9A5D1A585B1A5E9959 PUSH1 0x92 SHL PUSH1 0x64 DUP3 ADD MSTORE PUSH1 0x84 ADD PUSH2 0xA98 JUMP JUMPDEST PUSH1 0x0 DUP1 SLOAD PUSH1 0xFF NOT AND PUSH1 0x1 OR SWAP1 SSTORE DUP1 ISZERO PUSH2 0x1FD3 JUMPI PUSH1 0x0 DUP1 SLOAD PUSH2 0xFF00 NOT AND PUSH2 0x100 OR SWAP1 SSTORE JUMPDEST PUSH1 0xFB DUP1 SLOAD PUSH1 0x1 PUSH1 0x1 PUSH1 0xA0 SHL SUB NOT SWAP1 DUP2 AND PUSH20 0x77DAAFC7411C911B869C71BF70FE36CCE507845D OR SWAP1 SWAP2 SSTORE PUSH2 0x100 DUP1 SLOAD SWAP1 SWAP2 AND PUSH20 0xF3BA579D4AFD4DAD8A8C2D1BCBDD1405688E492F OR SWAP1 SSTORE PUSH1 0x40 DUP1 MLOAD PUSH1 0xE0 DUP2 ADD DUP3 MSTORE PUSH1 0x7 DUP1 DUP3 MSTORE PUSH1 0x4 PUSH1 0x20 DUP4 ADD MSTORE PUSH1 0x3 SWAP3 DUP3 ADD SWAP3 SWAP1 SWAP3 MSTORE PUSH1 0x2 PUSH1 0x60 DUP3 ADD MSTORE PUSH1 0x1 PUSH1 0x80 DUP3 ADD DUP2 SWAP1 MSTORE PUSH1 0xA0 DUP3 ADD DUP2 SWAP1 MSTORE PUSH1 0xC0 DUP3 ADD MSTORE PUSH2 0x2064 SWAP2 PUSH1 0xFC SWAP2 SWAP1 PUSH2 0x5089 JUMP JUMPDEST POP PUSH1 0x64 PUSH1 0xFD SSTORE PUSH1 0x14 PUSH2 0x106 SSTORE PUSH10 0x11478B7C30ABC300000 PUSH2 0x103 SSTORE PUSH1 0x4 PUSH2 0x101 SSTORE PUSH1 0x5 PUSH2 0x104 SSTORE PUSH9 0xA80D24677EFEF00000 PUSH2 0x105 SSTORE PUSH2 0x20A1 PUSH2 0x449A JUMP JUMPDEST PUSH2 0x20A9 PUSH2 0x44C9 JUMP JUMPDEST PUSH2 0x20B1 PUSH2 0x44F8 JUMP JUMPDEST DUP1 ISZERO PUSH2 0x1BFE JUMPI PUSH1 0x0 DUP1 SLOAD PUSH2 0xFF00 NOT AND SWAP1 SSTORE PUSH1 0x40 MLOAD PUSH1 0x1 DUP2 MSTORE PUSH32 0x7F26B83FF96E1F2B6A682F133852F6798A09C465DA95921460CEFB3847402498 SWAP1 PUSH1 0x20 ADD PUSH1 0x40 MLOAD DUP1 SWAP2 SUB SWAP1 LOG1 POP JUMP JUMPDEST PUSH2 0x2129 PUSH1 0x40 MLOAD DUP1 PUSH1 0x60 ADD PUSH1 0x40 MSTORE DUP1 PUSH1 0x0 PUSH1 0x1 PUSH1 0x1 PUSH1 0xA0 SHL SUB AND DUP2 MSTORE PUSH1 0x20 ADD PUSH1 0x60 DUP2 MSTORE PUSH1 0x20 ADD PUSH1 0x0 PUSH1 0xFF AND DUP2 MSTORE POP SWAP1 JUMP JUMPDEST PUSH1 0x1 PUSH1 0x1 PUSH1 0xA0 SHL SUB DUP1 DUP4 AND PUSH1 0x0 SWAP1 DUP2 MSTORE PUSH2 0x10A PUSH1 0x20 SWAP1 DUP2 MSTORE PUSH1 0x40 SWAP2 DUP3 SWAP1 KECCAK256 DUP3 MLOAD PUSH1 0x60 DUP2 ADD DUP5 MSTORE DUP2 SLOAD SWAP1 SWAP5 AND DUP5 MSTORE PUSH1 0x1 DUP2 ADD DUP1 SLOAD DUP5 MLOAD DUP2 DUP6 MUL DUP2 ADD DUP6 ADD SWAP1 SWAP6 MSTORE DUP1 DUP6 MSTORE SWAP2 SWAP4 DUP6 DUP5 ADD SWAP4 SWAP1 SWAP3 SWAP1 DUP4 ADD DUP3 DUP3 DUP1 ISZERO PUSH2 0x21C1 JUMPI PUSH1 0x20 MUL DUP3 ADD SWAP2 SWAP1 PUSH1 0x0 MSTORE PUSH1 0x20 PUSH1 0x0 KECCAK256 SWAP1 PUSH1 0x0 SWAP1 JUMPDEST DUP3 SLOAD PUSH2 0x100 DUP4 SWAP1 EXP SWAP1 DIV PUSH1 0xFF AND DUP2 MSTORE PUSH1 0x20 PUSH1 0x1 SWAP3 DUP4 ADD DUP2 DUP2 DIV SWAP5 DUP6 ADD SWAP5 SWAP1 SWAP4 SUB SWAP1 SWAP3 MUL SWAP2 ADD DUP1 DUP5 GT PUSH2 0x2192 JUMPI SWAP1 POP JUMPDEST POP POP POP SWAP2 DUP4 MSTORE POP POP PUSH1 0x2 SWAP2 SWAP1 SWAP2 ADD SLOAD PUSH1 0xFF AND PUSH1 0x20 SWAP1 SWAP2 ADD MSTORE SWAP3 SWAP2 POP POP JUMP JUMPDEST PUSH1 0x65 SLOAD PUSH1 0x1 PUSH1 0x1 PUSH1 0xA0 SHL SUB AND CALLER EQ PUSH2 0x2277 JUMPI PUSH1 0x1 PUSH1 0x1 PUSH1 0xA0 SHL SUB DUP2 AND PUSH1 0x0 SWAP1 DUP2 MSTORE PUSH2 0x111 PUSH1 0x20 MSTORE PUSH1 0x40 SWAP1 KECCAK256 SLOAD PUSH1 0xFF AND ISZERO PUSH2 0x2277 JUMPI PUSH1 0x40 MLOAD PUSH3 0x461BCD PUSH1 0xE5 SHL DUP2 MSTORE PUSH1 0x20 PUSH1 0x4 DUP3 ADD MSTORE PUSH1 0x33 PUSH1 0x24 DUP3 ADD MSTORE PUSH32 0x75706461746555706C696E655465616D4C6576656C73323028293A204C657665 PUSH1 0x44 DUP3 ADD MSTORE PUSH19 0x36399030B63932B0B23C903AB83230BA32B217 PUSH1 0x69 SHL PUSH1 0x64 DUP3 ADD MSTORE PUSH1 0x84 ADD PUSH2 0xA98 JUMP JUMPDEST PUSH1 0x1 PUSH1 0x1 PUSH1 0xA0 SHL SUB DUP2 AND PUSH1 0x0 SWAP1 DUP2 MSTORE PUSH2 0x109 PUSH1 0x20 MSTORE PUSH1 0x40 SWAP1 KECCAK256 PUSH1 0x4 DUP2 ADD SLOAD DUP1 PUSH2 0x2308 JUMPI PUSH1 0x40 MLOAD PUSH3 0x461BCD PUSH1 0xE5 SHL DUP2 MSTORE PUSH1 0x20 PUSH1 0x4 DUP3 ADD MSTORE PUSH1 0x39 PUSH1 0x24 DUP3 ADD MSTORE PUSH32 0x75706461746555706C696E655465616D4C6576656C73323028293A20596F7520 PUSH1 0x44 DUP3 ADD MSTORE PUSH32 0x68617665206E6F20627573696E657373206F72207A65726F2E00000000000000 PUSH1 0x64 DUP3 ADD MSTORE PUSH1 0x84 ADD PUSH2 0xA98 JUMP JUMPDEST PUSH2 0x106 SLOAD PUSH1 0xFC DUP1 SLOAD PUSH1 0x40 DUP1 MLOAD PUSH1 0x20 DUP1 DUP5 MUL DUP3 ADD DUP2 ADD SWAP1 SWAP3 MSTORE DUP3 DUP2 MSTORE PUSH1 0x0 SWAP4 SWAP1 SWAP3 SWAP1 SWAP2 DUP4 ADD DUP3 DUP3 DUP1 ISZERO PUSH2 0x2359 JUMPI PUSH1 0x20 MUL DUP3 ADD SWAP2 SWAP1 PUSH1 0x0 MSTORE PUSH1 0x20 PUSH1 0x0 KECCAK256 SWAP1 JUMPDEST DUP2 SLOAD DUP2 MSTORE PUSH1 0x20 ADD SWAP1 PUSH1 0x1 ADD SWAP1 DUP1 DUP4 GT PUSH2 0x2345 JUMPI JUMPDEST POP POP POP POP POP SWAP1 POP PUSH1 0x0 JUMPDEST DUP3 DUP2 PUSH1 0xFF AND LT ISZERO PUSH2 0x23D4 JUMPI DUP5 SLOAD PUSH1 0x1 PUSH1 0x1 PUSH1 0xA0 SHL SUB AND PUSH1 0x0 DUP2 DUP2 MSTORE PUSH2 0x109 PUSH1 0x20 MSTORE PUSH1 0x40 SWAP1 KECCAK256 SWAP1 PUSH2 0x2393 JUMPI POP PUSH2 0x23D4 JUMP JUMPDEST DUP3 MLOAD DUP3 PUSH1 0xFF AND LT PUSH2 0x23C2 JUMPI PUSH2 0x23A9 PUSH1 0x2 DUP7 PUSH2 0x5D30 JUMP JUMPDEST DUP2 PUSH1 0x6 ADD PUSH1 0x0 DUP3 DUP3 SLOAD PUSH2 0x23BC SWAP2 SWAP1 PUSH2 0x5AD2 JUMP JUMPDEST SWAP1 SWAP2 SSTORE POP POP JUMPDEST SWAP5 POP PUSH2 0x23CD DUP2 PUSH2 0x5D44 JUMP JUMPDEST SWAP1 POP PUSH2 0x2363 JUMP JUMPDEST POP POP POP PUSH1 0x1 PUSH1 0x1 PUSH1 0xA0 SHL SUB SWAP1 SWAP3 AND PUSH1 0x0 SWAP1 DUP2 MSTORE PUSH2 0x111 PUSH1 0x20 MSTORE PUSH1 0x40 SWAP1 KECCAK256 DUP1 SLOAD PUSH1 0xFF NOT AND PUSH1 0x1 OR SWAP1 SSTORE POP POP JUMP JUMPDEST PUSH1 0xFB SLOAD PUSH1 0x40 MLOAD PUSH4 0x935E01B PUSH1 0xE2 SHL DUP2 MSTORE CALLER PUSH1 0x4 DUP3 ADD MSTORE PUSH1 0x1 PUSH1 0x1 PUSH1 0xA0 SHL SUB SWAP1 SWAP2 AND SWAP1 PUSH4 0x24D7806C SWAP1 PUSH1 0x24 ADD PUSH1 0x20 PUSH1 0x40 MLOAD DUP1 DUP4 SUB DUP2 DUP7 GAS STATICCALL ISZERO DUP1 ISZERO PUSH2 0x2448 JUMPI RETURNDATASIZE PUSH1 0x0 DUP1 RETURNDATACOPY RETURNDATASIZE PUSH1 0x0 REVERT JUMPDEST POP POP POP POP PUSH1 0x40 MLOAD RETURNDATASIZE PUSH1 0x1F NOT PUSH1 0x1F DUP3 ADD AND DUP3 ADD DUP1 PUSH1 0x40 MSTORE POP DUP2 ADD SWAP1 PUSH2 0x246C SWAP2 SWAP1 PUSH2 0x5A67 JUMP JUMPDEST PUSH2 0x2488 JUMPI PUSH1 0x40 MLOAD PUSH3 0x461BCD PUSH1 0xE5 SHL DUP2 MSTORE PUSH1 0x4 ADD PUSH2 0xA98 SWAP1 PUSH2 0x5AFE JUMP JUMPDEST PUSH1 0x0 JUMPDEST DUP2 DUP2 LT ISZERO PUSH2 0x1763 JUMPI PUSH2 0x24C2 DUP4 DUP4 DUP4 DUP2 DUP2 LT PUSH2 0x24A8 JUMPI PUSH2 0x24A8 PUSH2 0x5AA6 JUMP JUMPDEST SWAP1 POP PUSH1 0x20 MUL ADD PUSH1 0x20 DUP2 ADD SWAP1 PUSH2 0x24BD SWAP2 SWAP1 PUSH2 0x5103 JUMP JUMPDEST PUSH2 0x416F JUMP JUMPDEST DUP1 PUSH2 0x24CC DUP2 PUSH2 0x5AE5 JUMP JUMPDEST SWAP2 POP POP PUSH2 0x248B JUMP JUMPDEST PUSH1 0xFB SLOAD PUSH1 0x40 MLOAD PUSH4 0x935E01B PUSH1 0xE2 SHL DUP2 MSTORE CALLER PUSH1 0x4 DUP3 ADD MSTORE PUSH1 0x1 PUSH1 0x1 PUSH1 0xA0 SHL SUB SWAP1 SWAP2 AND SWAP1 PUSH4 0x24D7806C SWAP1 PUSH1 0x24 ADD PUSH1 0x20 PUSH1 0x40 MLOAD DUP1 DUP4 SUB DUP2 DUP7 GAS STATICCALL ISZERO DUP1 ISZERO PUSH2 0x251C JUMPI RETURNDATASIZE PUSH1 0x0 DUP1 RETURNDATACOPY RETURNDATASIZE PUSH1 0x0 REVERT JUMPDEST POP POP POP POP PUSH1 0x40 MLOAD RETURNDATASIZE PUSH1 0x1F NOT PUSH1 0x1F DUP3 ADD AND DUP3 ADD DUP1 PUSH1 0x40 MSTORE POP DUP2 ADD SWAP1 PUSH2 0x2540 SWAP2 SWAP1 PUSH2 0x5A67 JUMP JUMPDEST PUSH2 0x255C JUMPI PUSH1 0x40 MLOAD PUSH3 0x461BCD PUSH1 0xE5 SHL DUP2 MSTORE PUSH1 0x4 ADD PUSH2 0xA98 SWAP1 PUSH2 0x5AFE JUMP JUMPDEST PUSH2 0x103 SWAP2 SWAP1 SWAP2 SSTORE PUSH2 0x110 SSTORE JUMP JUMPDEST PUSH2 0x10B PUSH1 0x20 MSTORE PUSH1 0x0 SWAP1 DUP2 MSTORE PUSH1 0x40 SWAP1 KECCAK256 DUP1 SLOAD PUSH1 0x1 DUP3 ADD SLOAD PUSH1 0x2 DUP4 ADD SLOAD PUSH1 0x3 DUP5 ADD SLOAD PUSH1 0x4 DUP6 ADD DUP1 SLOAD PUSH1 0xFF SWAP1 SWAP6 AND SWAP6 SWAP4 SWAP5 SWAP3 SWAP4 SWAP2 SWAP3 PUSH2 0x25A4 SWAP1 PUSH2 0x5B40 JUMP JUMPDEST DUP1 PUSH1 0x1F ADD PUSH1 0x20 DUP1 SWAP2 DIV MUL PUSH1 0x20 ADD PUSH1 0x40 MLOAD SWAP1 DUP2 ADD PUSH1 0x40 MSTORE DUP1 SWAP3 SWAP2 SWAP1 DUP2 DUP2 MSTORE PUSH1 0x20 ADD DUP3 DUP1 SLOAD PUSH2 0x25D0 SWAP1 PUSH2 0x5B40 JUMP JUMPDEST DUP1 ISZERO PUSH2 0x261D JUMPI DUP1 PUSH1 0x1F LT PUSH2 0x25F2 JUMPI PUSH2 0x100 DUP1 DUP4 SLOAD DIV MUL DUP4 MSTORE SWAP2 PUSH1 0x20 ADD SWAP2 PUSH2 0x261D JUMP JUMPDEST DUP3 ADD SWAP2 SWAP1 PUSH1 0x0 MSTORE PUSH1 0x20 PUSH1 0x0 KECCAK256 SWAP1 JUMPDEST DUP2 SLOAD DUP2 MSTORE SWAP1 PUSH1 0x1 ADD SWAP1 PUSH1 0x20 ADD DUP1 DUP4 GT PUSH2 0x2600 JUMPI DUP3 SWAP1 SUB PUSH1 0x1F AND DUP3 ADD SWAP2 JUMPDEST POP POP POP POP POP SWAP1 DUP1 PUSH1 0x5 ADD DUP1 SLOAD PUSH2 0x2632 SWAP1 PUSH2 0x5B40 JUMP JUMPDEST DUP1 PUSH1 0x1F ADD PUSH1 0x20 DUP1 SWAP2 DIV MUL PUSH1 0x20 ADD PUSH1 0x40 MLOAD SWAP1 DUP2 ADD PUSH1 0x40 MSTORE DUP1 SWAP3 SWAP2 SWAP1 DUP2 DUP2 MSTORE PUSH1 0x20 ADD DUP3 DUP1 SLOAD PUSH2 0x265E SWAP1 PUSH2 0x5B40 JUMP JUMPDEST DUP1 ISZERO PUSH2 0x26AB JUMPI DUP1 PUSH1 0x1F LT PUSH2 0x2680 JUMPI PUSH2 0x100 DUP1 DUP4 SLOAD DIV MUL DUP4 MSTORE SWAP2 PUSH1 0x20 ADD SWAP2 PUSH2 0x26AB JUMP JUMPDEST DUP3 ADD SWAP2 SWAP1 PUSH1 0x0 MSTORE PUSH1 0x20 PUSH1 0x0 KECCAK256 SWAP1 JUMPDEST DUP2 SLOAD DUP2 MSTORE SWAP1 PUSH1 0x1 ADD SWAP1 PUSH1 0x20 ADD DUP1 DUP4 GT PUSH2 0x268E JUMPI DUP3 SWAP1 SUB PUSH1 0x1F AND DUP3 ADD SWAP2 JUMPDEST POP POP POP POP POP SWAP1 DUP1 PUSH1 0x6 ADD SLOAD SWAP1 POP DUP8 JUMP JUMPDEST PUSH1 0x1 PUSH1 0x1 PUSH1 0xA0 SHL SUB DUP1 DUP3 AND PUSH1 0x0 SWAP1 DUP2 MSTORE PUSH2 0x109 PUSH1 0x20 SWAP1 DUP2 MSTORE PUSH1 0x40 DUP1 DUP4 KECCAK256 DUP2 MLOAD PUSH2 0x160 DUP2 ADD DUP4 MSTORE DUP2 SLOAD SWAP1 SWAP6 AND DUP6 MSTORE PUSH1 0x1 DUP2 ADD DUP1 SLOAD DUP4 MLOAD DUP2 DUP7 MUL DUP2 ADD DUP7 ADD SWAP1 SWAP5 MSTORE DUP1 DUP5 MSTORE SWAP5 SWAP6 DUP7 SWAP6 DUP7 SWAP6 SWAP2 SWAP5 DUP6 DUP4 ADD SWAP4 SWAP1 SWAP3 SWAP1 SWAP2 SWAP1 DUP4 ADD DUP3 DUP3 DUP1 ISZERO PUSH2 0x2747 JUMPI PUSH1 0x20 MUL DUP3 ADD SWAP2 SWAP1 PUSH1 0x0 MSTORE PUSH1 0x20 PUSH1 0x0 KECCAK256 SWAP1 JUMPDEST DUP2 SLOAD PUSH1 0x1 PUSH1 0x1 PUSH1 0xA0 SHL SUB AND DUP2 MSTORE PUSH1 0x1 SWAP1 SWAP2 ADD SWAP1 PUSH1 0x20 ADD DUP1 DUP4 GT PUSH2 0x2729 JUMPI JUMPDEST POP POP POP POP POP DUP2 MSTORE PUSH1 0x20 ADD PUSH1 0x2 DUP3 ADD DUP1 SLOAD DUP1 PUSH1 0x20 MUL PUSH1 0x20 ADD PUSH1 0x40 MLOAD SWAP1 DUP2 ADD PUSH1 0x40 MSTORE DUP1 SWAP3 SWAP2 SWAP1 DUP2 DUP2 MSTORE PUSH1 0x20 ADD DUP3 DUP1 SLOAD DUP1 ISZERO PUSH2 0x27A9 JUMPI PUSH1 0x20 MUL DUP3 ADD SWAP2 SWAP1 PUSH1 0x0 MSTORE PUSH1 0x20 PUSH1 0x0 KECCAK256 SWAP1 JUMPDEST DUP2 SLOAD PUSH1 0x1 PUSH1 0x1 PUSH1 0xA0 SHL SUB AND DUP2 MSTORE PUSH1 0x1 SWAP1 SWAP2 ADD SWAP1 PUSH1 0x20 ADD DUP1 DUP4 GT PUSH2 0x278B JUMPI JUMPDEST POP POP POP POP POP DUP2 MSTORE PUSH1 0x20 ADD PUSH1 0x3 DUP3 ADD DUP1 SLOAD DUP1 PUSH1 0x20 MUL PUSH1 0x20 ADD PUSH1 0x40 MLOAD SWAP1 DUP2 ADD PUSH1 0x40 MSTORE DUP1 SWAP3 SWAP2 SWAP1 DUP2 DUP2 MSTORE PUSH1 0x20 ADD DUP3 DUP1 SLOAD DUP1 ISZERO PUSH2 0x2801 JUMPI PUSH1 0x20 MUL DUP3 ADD SWAP2 SWAP1 PUSH1 0x0 MSTORE PUSH1 0x20 PUSH1 0x0 KECCAK256 SWAP1 JUMPDEST DUP2 SLOAD DUP2 MSTORE PUSH1 0x20 ADD SWAP1 PUSH1 0x1 ADD SWAP1 DUP1 DUP4 GT PUSH2 0x27ED JUMPI JUMPDEST POP POP POP POP POP DUP2 MSTORE PUSH1 0x20 ADD PUSH1 0x4 DUP3 ADD SLOAD DUP2 MSTORE PUSH1 0x20 ADD PUSH1 0x5 DUP3 ADD SLOAD DUP2 MSTORE PUSH1 0x20 ADD PUSH1 0x6 DUP3 ADD SLOAD DUP2 MSTORE PUSH1 0x20 ADD PUSH1 0x7 DUP3 ADD DUP1 SLOAD DUP1 PUSH1 0x20 MUL PUSH1 0x20 ADD PUSH1 0x40 MLOAD SWAP1 DUP2 ADD PUSH1 0x40 MSTORE DUP1 SWAP3 SWAP2 SWAP1 DUP2 DUP2 MSTORE PUSH1 0x20 ADD DUP3 DUP1 SLOAD DUP1 ISZERO PUSH2 0x2877 JUMPI PUSH1 0x20 MUL DUP3 ADD SWAP2 SWAP1 PUSH1 0x0 MSTORE PUSH1 0x20 PUSH1 0x0 KECCAK256 SWAP1 JUMPDEST DUP2 SLOAD DUP2 MSTORE PUSH1 0x20 ADD SWAP1 PUSH1 0x1 ADD SWAP1 DUP1 DUP4 GT PUSH2 0x2863 JUMPI JUMPDEST POP POP POP POP POP DUP2 MSTORE PUSH1 0x20 ADD PUSH1 0x8 DUP3 ADD DUP1 SLOAD DUP1 PUSH1 0x20 MUL PUSH1 0x20 ADD PUSH1 0x40 MLOAD SWAP1 DUP2 ADD PUSH1 0x40 MSTORE DUP1 SWAP3 SWAP2 SWAP1 DUP2 DUP2 MSTORE PUSH1 0x20 ADD DUP3 DUP1 SLOAD DUP1 ISZERO PUSH2 0x28CF JUMPI PUSH1 0x20 MUL DUP3 ADD SWAP2 SWAP1 PUSH1 0x0 MSTORE PUSH1 0x20 PUSH1 0x0 KECCAK256 SWAP1 JUMPDEST DUP2 SLOAD DUP2 MSTORE PUSH1 0x20 ADD SWAP1 PUSH1 0x1 ADD SWAP1 DUP1 DUP4 GT PUSH2 0x28BB JUMPI JUMPDEST POP POP POP POP POP DUP2 MSTORE PUSH1 0x20 ADD PUSH1 0x9 DUP3 ADD DUP1 SLOAD DUP1 PUSH1 0x20 MUL PUSH1 0x20 ADD PUSH1 0x40 MLOAD SWAP1 DUP2 ADD PUSH1 0x40 MSTORE DUP1 SWAP3 SWAP2 SWAP1 DUP2 DUP2 MSTORE PUSH1 0x20 ADD DUP3 DUP1 SLOAD DUP1 ISZERO PUSH2 0x2927 JUMPI PUSH1 0x20 MUL DUP3 ADD SWAP2 SWAP1 PUSH1 0x0 MSTORE PUSH1 0x20 PUSH1 0x0 KECCAK256 SWAP1 JUMPDEST DUP2 SLOAD DUP2 MSTORE PUSH1 0x20 ADD SWAP1 PUSH1 0x1 ADD SWAP1 DUP1 DUP4 GT PUSH2 0x2913 JUMPI JUMPDEST POP POP POP SWAP2 DUP4 MSTORE POP POP PUSH1 0xA SWAP2 SWAP1 SWAP2 ADD SLOAD PUSH1 0xFF AND ISZERO ISZERO PUSH1 0x20 SWAP1 SWAP2 ADD MSTORE SWAP1 POP PUSH1 0x0 DUP1 JUMPDEST DUP3 PUSH1 0x20 ADD MLOAD MLOAD DUP2 PUSH2 0xFFFF AND LT ISZERO PUSH2 0x2C3E JUMPI PUSH1 0x0 PUSH2 0x109 PUSH1 0x0 DUP6 PUSH1 0x20 ADD MLOAD DUP5 PUSH2 0xFFFF AND DUP2 MLOAD DUP2 LT PUSH2 0x2979 JUMPI PUSH2 0x2979 PUSH2 0x5AA6 JUMP JUMPDEST PUSH1 0x20 SWAP1 DUP2 MUL SWAP2 SWAP1 SWAP2 ADD DUP2 ADD MLOAD PUSH1 0x1 PUSH1 0x1 PUSH1 0xA0 SHL SUB SWAP1 DUP2 AND DUP4 MSTORE DUP3 DUP3 ADD SWAP4 SWAP1 SWAP4 MSTORE PUSH1 0x40 SWAP2 DUP3 ADD PUSH1 0x0 KECCAK256 DUP3 MLOAD PUSH2 0x160 DUP2 ADD DUP5 MSTORE DUP2 SLOAD SWAP1 SWAP5 AND DUP5 MSTORE PUSH1 0x1 DUP2 ADD DUP1 SLOAD DUP5 MLOAD DUP2 DUP6 MUL DUP2 ADD DUP6 ADD SWAP1 SWAP6 MSTORE DUP1 DUP6 MSTORE SWAP2 SWAP4 DUP6 DUP5 ADD SWAP4 SWAP1 SWAP3 SWAP1 DUP4 ADD DUP3 DUP3 DUP1 ISZERO PUSH2 0x2A08 JUMPI PUSH1 0x20 MUL DUP3 ADD SWAP2 SWAP1 PUSH1 0x0 MSTORE PUSH1 0x20 PUSH1 0x0 KECCAK256 SWAP1 JUMPDEST DUP2 SLOAD PUSH1 0x1 PUSH1 0x1 PUSH1 0xA0 SHL SUB AND DUP2 MSTORE PUSH1 0x1 SWAP1 SWAP2 ADD SWAP1 PUSH1 0x20 ADD DUP1 DUP4 GT PUSH2 0x29EA JUMPI JUMPDEST POP POP POP POP POP DUP2 MSTORE PUSH1 0x20 ADD PUSH1 0x2 DUP3 ADD DUP1 SLOAD DUP1 PUSH1 0x20 MUL PUSH1 0x20 ADD PUSH1 0x40 MLOAD SWAP1 DUP2 ADD PUSH1 0x40 MSTORE DUP1 SWAP3 SWAP2 SWAP1 DUP2 DUP2 MSTORE PUSH1 0x20 ADD DUP3 DUP1 SLOAD DUP1 ISZERO PUSH2 0x2A6A JUMPI PUSH1 0x20 MUL DUP3 ADD SWAP2 SWAP1 PUSH1 0x0 MSTORE PUSH1 0x20 PUSH1 0x0 KECCAK256 SWAP1 JUMPDEST DUP2 SLOAD PUSH1 0x1 PUSH1 0x1 PUSH1 0xA0 SHL SUB AND DUP2 MSTORE PUSH1 0x1 SWAP1 SWAP2 ADD SWAP1 PUSH1 0x20 ADD DUP1 DUP4 GT PUSH2 0x2A4C JUMPI JUMPDEST POP POP POP POP POP DUP2 MSTORE PUSH1 0x20 ADD PUSH1 0x3 DUP3 ADD DUP1 SLOAD DUP1 PUSH1 0x20 MUL PUSH1 0x20 ADD PUSH1 0x40 MLOAD SWAP1 DUP2 ADD PUSH1 0x40 MSTORE DUP1 SWAP3 SWAP2 SWAP1 DUP2 DUP2 MSTORE PUSH1 0x20 ADD DUP3 DUP1 SLOAD DUP1 ISZERO PUSH2 0x2AC2 JUMPI PUSH1 0x20 MUL DUP3 ADD SWAP2 SWAP1 PUSH1 0x0 MSTORE PUSH1 0x20 PUSH1 0x0 KECCAK256 SWAP1 JUMPDEST DUP2 SLOAD DUP2 MSTORE PUSH1 0x20 ADD SWAP1 PUSH1 0x1 ADD SWAP1 DUP1 DUP4 GT PUSH2 0x2AAE JUMPI JUMPDEST POP POP POP POP POP DUP2 MSTORE PUSH1 0x20 ADD PUSH1 0x4 DUP3 ADD SLOAD DUP2 MSTORE PUSH1 0x20 ADD PUSH1 0x5 DUP3 ADD SLOAD DUP2 MSTORE PUSH1 0x20 ADD PUSH1 0x6 DUP3 ADD SLOAD DUP2 MSTORE PUSH1 0x20 ADD PUSH1 0x7 DUP3 ADD DUP1 SLOAD DUP1 PUSH1 0x20 MUL PUSH1 0x20 ADD PUSH1 0x40 MLOAD SWAP1 DUP2 ADD PUSH1 0x40 MSTORE DUP1 SWAP3 SWAP2 SWAP1 DUP2 DUP2 MSTORE PUSH1 0x20 ADD DUP3 DUP1 SLOAD DUP1 ISZERO PUSH2 0x2B38 JUMPI PUSH1 0x20 MUL DUP3 ADD SWAP2 SWAP1 PUSH1 0x0 MSTORE PUSH1 0x20 PUSH1 0x0 KECCAK256 SWAP1 JUMPDEST DUP2 SLOAD DUP2 MSTORE PUSH1 0x20 ADD SWAP1 PUSH1 0x1 ADD SWAP1 DUP1 DUP4 GT PUSH2 0x2B24 JUMPI JUMPDEST POP POP POP POP POP DUP2 MSTORE PUSH1 0x20 ADD PUSH1 0x8 DUP3 ADD DUP1 SLOAD DUP1 PUSH1 0x20 MUL PUSH1 0x20 ADD PUSH1 0x40 MLOAD SWAP1 DUP2 ADD PUSH1 0x40 MSTORE DUP1 SWAP3 SWAP2 SWAP1 DUP2 DUP2 MSTORE PUSH1 0x20 ADD DUP3 DUP1 SLOAD DUP1 ISZERO PUSH2 0x2B90 JUMPI PUSH1 0x20 MUL DUP3 ADD SWAP2 SWAP1 PUSH1 0x0 MSTORE PUSH1 0x20 PUSH1 0x0 KECCAK256 SWAP1 JUMPDEST DUP2 SLOAD DUP2 MSTORE PUSH1 0x20 ADD SWAP1 PUSH1 0x1 ADD SWAP1 DUP1 DUP4 GT PUSH2 0x2B7C JUMPI JUMPDEST POP POP POP POP POP DUP2 MSTORE PUSH1 0x20 ADD PUSH1 0x9 DUP3 ADD DUP1 SLOAD DUP1 PUSH1 0x20 MUL PUSH1 0x20 ADD PUSH1 0x40 MLOAD SWAP1 DUP2 ADD PUSH1 0x40 MSTORE DUP1 SWAP3 SWAP2 SWAP1 DUP2 DUP2 MSTORE PUSH1 0x20 ADD DUP3 DUP1 SLOAD DUP1 ISZERO PUSH2 0x2BE8 JUMPI PUSH1 0x20 MUL DUP3 ADD SWAP2 SWAP1 PUSH1 0x0 MSTORE PUSH1 0x20 PUSH1 0x0 KECCAK256 SWAP1 JUMPDEST DUP2 SLOAD DUP2 MSTORE PUSH1 0x20 ADD SWAP1 PUSH1 0x1 ADD SWAP1 DUP1 DUP4 GT PUSH2 0x2BD4 JUMPI JUMPDEST POP POP POP SWAP2 DUP4 MSTORE POP POP PUSH1 0xA SWAP2 SWAP1 SWAP2 ADD SLOAD PUSH1 0xFF AND ISZERO ISZERO PUSH1 0x20 SWAP1 SWAP2 ADD MSTORE PUSH1 0xC0 DUP2 ADD MLOAD SWAP1 SWAP2 POP DUP7 LT ISZERO PUSH2 0x2C19 JUMPI DUP1 PUSH1 0xC0 ADD MLOAD SWAP6 POP JUMPDEST PUSH1 0xC0 DUP2 ADD MLOAD PUSH2 0x2C28 SWAP1 DUP5 PUSH2 0x5AD2 JUMP JUMPDEST SWAP3 POP POP DUP1 DUP1 PUSH2 0x2C36 SWAP1 PUSH2 0x5D63 JUMP JUMPDEST SWAP2 POP POP PUSH2 0x2947 JUMP JUMPDEST POP PUSH2 0x2C49 DUP5 DUP3 PUSH2 0x5D84 JUMP JUMPDEST SWAP3 POP POP POP SWAP2 POP SWAP2 JUMP JUMPDEST PUSH2 0x2C5A PUSH2 0x3819 JUMP JUMPDEST PUSH1 0x1 PUSH1 0x1 PUSH1 0xA0 SHL SUB SWAP1 SWAP2 AND PUSH1 0x0 SWAP1 DUP2 MSTORE PUSH2 0x109 PUSH1 0x20 MSTORE PUSH1 0x40 SWAP1 KECCAK256 PUSH1 0x6 ADD SSTORE JUMP JUMPDEST PUSH1 0x60 PUSH1 0x0 DUP1 PUSH1 0x0 PUSH2 0x2C8C DUP8 DUP8 DUP8 PUSH2 0x451F JUMP JUMPDEST SWAP2 POP SWAP2 POP DUP1 SWAP3 POP DUP1 PUSH2 0xFFFF AND PUSH8 0xFFFFFFFFFFFFFFFF DUP2 GT ISZERO PUSH2 0x2CB0 JUMPI PUSH2 0x2CB0 PUSH2 0x51D0 JUMP JUMPDEST PUSH1 0x40 MLOAD SWAP1 DUP1 DUP3 MSTORE DUP1 PUSH1 0x20 MUL PUSH1 0x20 ADD DUP3 ADD PUSH1 0x40 MSTORE DUP1 ISZERO PUSH2 0x2CD9 JUMPI DUP2 PUSH1 0x20 ADD PUSH1 0x20 DUP3 MUL DUP1 CALLDATASIZE DUP4 CALLDATACOPY ADD SWAP1 POP JUMPDEST POP SWAP4 POP PUSH1 0x0 JUMPDEST DUP2 PUSH2 0xFFFF AND DUP2 PUSH2 0xFFFF AND LT ISZERO PUSH2 0x2D4D JUMPI DUP3 DUP2 PUSH2 0xFFFF AND DUP2 MLOAD DUP2 LT PUSH2 0x2D05 JUMPI PUSH2 0x2D05 PUSH2 0x5AA6 JUMP JUMPDEST PUSH1 0x20 MUL PUSH1 0x20 ADD ADD MLOAD DUP6 DUP3 PUSH2 0xFFFF AND DUP2 MLOAD DUP2 LT PUSH2 0x2D23 JUMPI PUSH2 0x2D23 PUSH2 0x5AA6 JUMP JUMPDEST PUSH1 0x1 PUSH1 0x1 PUSH1 0xA0 SHL SUB SWAP1 SWAP3 AND PUSH1 0x20 SWAP3 DUP4 MUL SWAP2 SWAP1 SWAP2 ADD SWAP1 SWAP2 ADD MSTORE DUP1 PUSH2 0x2D45 DUP2 PUSH2 0x5D63 JUMP JUMPDEST SWAP2 POP POP PUSH2 0x2CDF JUMP JUMPDEST POP POP POP SWAP4 POP SWAP4 SWAP2 POP POP JUMP JUMPDEST PUSH1 0x1 PUSH1 0x1 PUSH1 0xA0 SHL SUB DUP1 DUP3 AND PUSH1 0x0 SWAP1 DUP2 MSTORE PUSH2 0x109 PUSH1 0x20 SWAP1 DUP2 MSTORE PUSH1 0x40 DUP1 DUP4 KECCAK256 DUP2 MLOAD PUSH2 0x160 DUP2 ADD DUP4 MSTORE DUP2 SLOAD SWAP1 SWAP6 AND DUP6 MSTORE PUSH1 0x1 DUP2 ADD DUP1 SLOAD DUP4 MLOAD DUP2 DUP7 MUL DUP2 ADD DUP7 ADD SWAP1 SWAP5 MSTORE DUP1 DUP5 MSTORE SWAP5 SWAP6 DUP7 SWAP6 SWAP1 SWAP5 SWAP3 SWAP4 DUP6 DUP5 ADD SWAP4 SWAP1 SWAP3 SWAP2 SWAP1 DUP4 ADD DUP3 DUP3 DUP1 ISZERO PUSH2 0x2DE3 JUMPI PUSH1 0x20 MUL DUP3 ADD SWAP2 SWAP1 PUSH1 0x0 MSTORE PUSH1 0x20 PUSH1 0x0 KECCAK256 SWAP1 JUMPDEST DUP2 SLOAD PUSH1 0x1 PUSH1 0x1 PUSH1 0xA0 SHL SUB AND DUP2 MSTORE PUSH1 0x1 SWAP1 SWAP2 ADD SWAP1 PUSH1 0x20 ADD DUP1 DUP4 GT PUSH2 0x2DC5 JUMPI JUMPDEST POP POP POP POP POP DUP2 MSTORE PUSH1 0x20 ADD PUSH1 0x2 DUP3 ADD DUP1 SLOAD DUP1 PUSH1 0x20 MUL PUSH1 0x20 ADD PUSH1 0x40 MLOAD SWAP1 DUP2 ADD PUSH1 0x40 MSTORE DUP1 SWAP3 SWAP2 SWAP1 DUP2 DUP2 MSTORE PUSH1 0x20 ADD DUP3 DUP1 SLOAD DUP1 ISZERO PUSH2 0x2E45 JUMPI PUSH1 0x20 MUL DUP3 ADD SWAP2 SWAP1 PUSH1 0x0 MSTORE PUSH1 0x20 PUSH1 0x0 KECCAK256 SWAP1 JUMPDEST DUP2 SLOAD PUSH1 0x1 PUSH1 0x1 PUSH1 0xA0 SHL SUB AND DUP2 MSTORE PUSH1 0x1 SWAP1 SWAP2 ADD SWAP1 PUSH1 0x20 ADD DUP1 DUP4 GT PUSH2 0x2E27 JUMPI JUMPDEST POP POP POP POP POP DUP2 MSTORE PUSH1 0x20 ADD PUSH1 0x3 DUP3 ADD DUP1 SLOAD DUP1 PUSH1 0x20 MUL PUSH1 0x20 ADD PUSH1 0x40 MLOAD SWAP1 DUP2 ADD PUSH1 0x40 MSTORE DUP1 SWAP3 SWAP2 SWAP1 DUP2 DUP2 MSTORE PUSH1 0x20 ADD DUP3 DUP1 SLOAD DUP1 ISZERO PUSH2 0x2E9D JUMPI PUSH1 0x20 MUL DUP3 ADD SWAP2 SWAP1 PUSH1 0x0 MSTORE PUSH1 0x20 PUSH1 0x0 KECCAK256 SWAP1 JUMPDEST DUP2 SLOAD DUP2 MSTORE PUSH1 0x20 ADD SWAP1 PUSH1 0x1 ADD SWAP1 DUP1 DUP4 GT PUSH2 0x2E89 JUMPI JUMPDEST POP POP POP POP POP DUP2 MSTORE PUSH1 0x20 ADD PUSH1 0x4 DUP3 ADD SLOAD DUP2 MSTORE PUSH1 0x20 ADD PUSH1 0x5 DUP3 ADD SLOAD DUP2 MSTORE PUSH1 0x20 ADD PUSH1 0x6 DUP3 ADD SLOAD DUP2 MSTORE PUSH1 0x20 ADD PUSH1 0x7 DUP3 ADD DUP1 SLOAD DUP1 PUSH1 0x20 MUL PUSH1 0x20 ADD PUSH1 0x40 MLOAD SWAP1 DUP2 ADD PUSH1 0x40 MSTORE DUP1 SWAP3 SWAP2 SWAP1 DUP2 DUP2 MSTORE PUSH1 0x20 ADD DUP3 DUP1 SLOAD DUP1 ISZERO PUSH2 0x2F13 JUMPI PUSH1 0x20 MUL DUP3 ADD SWAP2 SWAP1 PUSH1 0x0 MSTORE PUSH1 0x20 PUSH1 0x0 KECCAK256 SWAP1 JUMPDEST DUP2 SLOAD DUP2 MSTORE PUSH1 0x20 ADD SWAP1 PUSH1 0x1 ADD SWAP1 DUP1 DUP4 GT PUSH2 0x2EFF JUMPI JUMPDEST POP POP POP POP POP DUP2 MSTORE PUSH1 0x20 ADD PUSH1 0x8 DUP3 ADD DUP1 SLOAD DUP1 PUSH1 0x20 MUL PUSH1 0x20 ADD PUSH1 0x40 MLOAD SWAP1 DUP2 ADD PUSH1 0x40 MSTORE DUP1 SWAP3 SWAP2 SWAP1 DUP2 DUP2 MSTORE PUSH1 0x20 ADD DUP3 DUP1 SLOAD DUP1 ISZERO PUSH2 0x2F6B JUMPI PUSH1 0x20 MUL DUP3 ADD SWAP2 SWAP1 PUSH1 0x0 MSTORE PUSH1 0x20 PUSH1 0x0 KECCAK256 SWAP1 JUMPDEST DUP2 SLOAD DUP2 MSTORE PUSH1 0x20 ADD SWAP1 PUSH1 0x1 ADD SWAP1 DUP1 DUP4 GT PUSH2 0x2F57 JUMPI JUMPDEST POP POP POP POP POP DUP2 MSTORE PUSH1 0x20 ADD PUSH1 0x9 DUP3 ADD DUP1 SLOAD DUP1 PUSH1 0x20 MUL PUSH1 0x20 ADD PUSH1 0x40 MLOAD SWAP1 DUP2 ADD PUSH1 0x40 MSTORE DUP1 SWAP3 SWAP2 SWAP1 DUP2 DUP2 MSTORE PUSH1 0x20 ADD DUP3 DUP1 SLOAD DUP1 ISZERO PUSH2 0x2FC3 JUMPI PUSH1 0x20 MUL DUP3 ADD SWAP2 SWAP1 PUSH1 0x0 MSTORE PUSH1 0x20 PUSH1 0x0 KECCAK256 SWAP1 JUMPDEST DUP2 SLOAD DUP2 MSTORE PUSH1 0x20 ADD SWAP1 PUSH1 0x1 ADD SWAP1 DUP1 DUP4 GT PUSH2 0x2FAF JUMPI JUMPDEST POP POP POP SWAP2 DUP4 MSTORE POP POP PUSH1 0xA SWAP2 SWAP1 SWAP2 ADD SLOAD PUSH1 0xFF AND ISZERO ISZERO PUSH1 0x20 SWAP1 SWAP2 ADD MSTORE SWAP1 POP PUSH1 0x0 JUMPDEST PUSH1 0x14 DUP2 PUSH1 0xFF AND LT ISZERO PUSH2 0x31E0 JUMPI PUSH1 0xFF DUP1 DUP3 AND PUSH1 0x0 SWAP1 DUP2 MSTORE PUSH2 0x10B PUSH1 0x20 SWAP1 DUP2 MSTORE PUSH1 0x40 DUP1 DUP4 KECCAK256 DUP2 MLOAD PUSH1 0xE0 DUP2 ADD DUP4 MSTORE DUP2 SLOAD SWAP1 SWAP6 AND DUP6 MSTORE PUSH1 0x1 DUP2 ADD SLOAD SWAP3 DUP6 ADD SWAP3 SWAP1 SWAP3 MSTORE PUSH1 0x2 DUP3 ADD SLOAD SWAP1 DUP5 ADD MSTORE PUSH1 0x3 DUP2 ADD SLOAD PUSH1 0x60 DUP5 ADD MSTORE PUSH1 0x4 DUP2 ADD DUP1 SLOAD SWAP3 SWAP4 SWAP3 PUSH1 0x80 DUP5 ADD SWAP2 SWAP1 PUSH2 0x304B SWAP1 PUSH2 0x5B40 JUMP JUMPDEST DUP1 PUSH1 0x1F ADD PUSH1 0x20 DUP1 SWAP2 DIV MUL PUSH1 0x20 ADD PUSH1 0x40 MLOAD SWAP1 DUP2 ADD PUSH1 0x40 MSTORE DUP1 SWAP3 SWAP2 SWAP1 DUP2 DUP2 MSTORE PUSH1 0x20 ADD DUP3 DUP1 SLOAD PUSH2 0x3077 SWAP1 PUSH2 0x5B40 JUMP JUMPDEST DUP1 ISZERO PUSH2 0x30C4 JUMPI DUP1 PUSH1 0x1F LT PUSH2 0x3099 JUMPI PUSH2 0x100 DUP1 DUP4 SLOAD DIV MUL DUP4 MSTORE SWAP2 PUSH1 0x20 ADD SWAP2 PUSH2 0x30C4 JUMP JUMPDEST DUP3 ADD SWAP2 SWAP1 PUSH1 0x0 MSTORE PUSH1 0x20 PUSH1 0x0 KECCAK256 SWAP1 JUMPDEST DUP2 SLOAD DUP2 MSTORE SWAP1 PUSH1 0x1 ADD SWAP1 PUSH1 0x20 ADD DUP1 DUP4 GT PUSH2 0x30A7 JUMPI DUP3 SWAP1 SUB PUSH1 0x1F AND DUP3 ADD SWAP2 JUMPDEST POP POP POP POP POP DUP2 MSTORE PUSH1 0x20 ADD PUSH1 0x5 DUP3 ADD DUP1 SLOAD PUSH2 0x30DD SWAP1 PUSH2 0x5B40 JUMP JUMPDEST DUP1 PUSH1 0x1F ADD PUSH1 0x20 DUP1 SWAP2 DIV MUL PUSH1 0x20 ADD PUSH1 0x40 MLOAD SWAP1 DUP2 ADD PUSH1 0x40 MSTORE DUP1 SWAP3 SWAP2 SWAP1 DUP2 DUP2 MSTORE PUSH1 0x20 ADD DUP3 DUP1 SLOAD PUSH2 0x3109 SWAP1 PUSH2 0x5B40 JUMP JUMPDEST DUP1 ISZERO PUSH2 0x3156 JUMPI DUP1 PUSH1 0x1F LT PUSH2 0x312B JUMPI PUSH2 0x100 DUP1 DUP4 SLOAD DIV MUL DUP4 MSTORE SWAP2 PUSH1 0x20 ADD SWAP2 PUSH2 0x3156 JUMP JUMPDEST DUP3 ADD SWAP2 SWAP1 PUSH1 0x0 MSTORE PUSH1 0x20 PUSH1 0x0 KECCAK256 SWAP1 JUMPDEST DUP2 SLOAD DUP2 MSTORE SWAP1 PUSH1 0x1 ADD SWAP1 PUSH1 0x20 ADD DUP1 DUP4 GT PUSH2 0x3139 JUMPI DUP3 SWAP1 SUB PUSH1 0x1F AND DUP3 ADD SWAP2 JUMPDEST POP POP POP POP POP DUP2 MSTORE PUSH1 0x20 ADD PUSH1 0x6 DUP3 ADD SLOAD DUP2 MSTORE POP POP SWAP1 POP PUSH1 0x2 DUP3 PUSH1 0xFF AND GT DUP1 ISZERO PUSH2 0x3180 JUMPI POP PUSH1 0x20 DUP2 ADD MLOAD ISZERO JUMPDEST ISZERO PUSH2 0x318B JUMPI POP PUSH2 0x31E0 JUMP JUMPDEST DUP1 PUSH1 0x20 ADD MLOAD PUSH2 0x3199 DUP5 PUSH2 0x4266 JUMP JUMPDEST LT ISZERO DUP1 ISZERO PUSH2 0x31AF JUMPI POP DUP1 PUSH1 0x40 ADD MLOAD DUP4 PUSH1 0xA0 ADD MLOAD LT ISZERO JUMPDEST DUP1 ISZERO PUSH2 0x31C4 JUMPI POP PUSH2 0x31C4 DUP4 DUP3 PUSH1 0x60 ADD MLOAD PUSH2 0x4A2F JUMP JUMPDEST ISZERO PUSH2 0x31CD JUMPI DUP2 SWAP4 POP JUMPDEST POP DUP1 PUSH2 0x31D8 DUP2 PUSH2 0x5D44 JUMP JUMPDEST SWAP2 POP POP PUSH2 0x2FE2 JUMP JUMPDEST POP POP SWAP2 SWAP1 POP JUMP JUMPDEST PUSH1 0x1 PUSH1 0x1 PUSH1 0xA0 SHL SUB DUP2 AND PUSH1 0x0 SWAP1 DUP2 MSTORE PUSH2 0x109 PUSH1 0x20 MSTORE PUSH1 0x40 DUP2 KECCAK256 PUSH1 0x7 DUP2 ADD SLOAD PUSH1 0x8 DUP3 ADD SLOAD PUSH1 0x9 DUP4 ADD SLOAD DUP5 SWAP4 DUP5 SWAP4 SWAP1 SWAP3 SWAP1 SWAP2 DUP5 JUMPDEST DUP4 DUP2 LT ISZERO PUSH2 0x3260 JUMPI DUP5 PUSH1 0x7 ADD DUP2 DUP2 SLOAD DUP2 LT PUSH2 0x3236 JUMPI PUSH2 0x3236 PUSH2 0x5AA6 JUMP JUMPDEST SWAP1 PUSH1 0x0 MSTORE PUSH1 0x20 PUSH1 0x0 KECCAK256 ADD SLOAD DUP9 PUSH2 0x324C SWAP2 SWAP1 PUSH2 0x5AD2 JUMP JUMPDEST SWAP8 POP DUP1 PUSH2 0x3258 DUP2 PUSH2 0x5AE5 JUMP JUMPDEST SWAP2 POP POP PUSH2 0x3219 JUMP JUMPDEST POP PUSH1 0x0 JUMPDEST DUP3 DUP2 LT ISZERO PUSH2 0x32AB JUMPI DUP5 PUSH1 0x8 ADD DUP2 DUP2 SLOAD DUP2 LT PUSH2 0x3281 JUMPI PUSH2 0x3281 PUSH2 0x5AA6 JUMP JUMPDEST SWAP1 PUSH1 0x0 MSTORE PUSH1 0x20 PUSH1 0x0 KECCAK256 ADD SLOAD DUP8 PUSH2 0x3297 SWAP2 SWAP1 PUSH2 0x5AD2 JUMP JUMPDEST SWAP7 POP DUP1 PUSH2 0x32A3 DUP2 PUSH2 0x5AE5 JUMP JUMPDEST SWAP2 POP POP PUSH2 0x3264 JUMP JUMPDEST POP PUSH1 0x0 JUMPDEST DUP2 DUP2 LT ISZERO PUSH2 0x32F6 JUMPI DUP5 PUSH1 0x9 ADD DUP2 DUP2 SLOAD DUP2 LT PUSH2 0x32CC JUMPI PUSH2 0x32CC PUSH2 0x5AA6 JUMP JUMPDEST SWAP1 PUSH1 0x0 MSTORE PUSH1 0x20 PUSH1 0x0 KECCAK256 ADD SLOAD DUP7 PUSH2 0x32E2 SWAP2 SWAP1 PUSH2 0x5AD2 JUMP JUMPDEST SWAP6 POP DUP1 PUSH2 0x32EE DUP2 PUSH2 0x5AE5 JUMP JUMPDEST SWAP2 POP POP PUSH2 0x32AF JUMP JUMPDEST POP POP POP POP POP SWAP2 SWAP4 SWAP1 SWAP3 POP JUMP JUMPDEST PUSH2 0x330A PUSH2 0x3819 JUMP JUMPDEST PUSH1 0x1 PUSH1 0x1 PUSH1 0xA0 SHL SUB DUP2 AND PUSH2 0x336F JUMPI PUSH1 0x40 MLOAD PUSH3 0x461BCD PUSH1 0xE5 SHL DUP2 MSTORE PUSH1 0x20 PUSH1 0x4 DUP3 ADD MSTORE PUSH1 0x26 PUSH1 0x24 DUP3 ADD MSTORE PUSH32 0x4F776E61626C653A206E6577206F776E657220697320746865207A65726F2061 PUSH1 0x44 DUP3 ADD MSTORE PUSH6 0x646472657373 PUSH1 0xD0 SHL PUSH1 0x64 DUP3 ADD MSTORE PUSH1 0x84 ADD PUSH2 0xA98 JUMP JUMPDEST PUSH2 0x1BFE DUP2 PUSH2 0x4448 JUMP JUMPDEST PUSH1 0x1 PUSH1 0x1 PUSH1 0xA0 SHL SUB DUP2 AND PUSH1 0x0 SWAP1 DUP2 MSTORE PUSH2 0x109 PUSH1 0x20 SWAP1 DUP2 MSTORE PUSH1 0x40 DUP1 DUP4 KECCAK256 PUSH1 0x1 DUP2 ADD DUP1 SLOAD DUP4 MLOAD DUP2 DUP7 MUL DUP2 ADD DUP7 ADD SWAP1 SWAP5 MSTORE DUP1 DUP5 MSTORE PUSH1 0x60 SWAP6 SWAP5 DUP7 SWAP5 DUP7 SWAP5 SWAP4 SWAP1 SWAP3 SWAP1 SWAP2 DUP4 ADD DUP3 DUP3 DUP1 ISZERO PUSH2 0x33EF JUMPI PUSH1 0x20 MUL DUP3 ADD SWAP2 SWAP1 PUSH1 0x0 MSTORE PUSH1 0x20 PUSH1 0x0 KECCAK256 SWAP1 JUMPDEST DUP2 SLOAD PUSH1 0x1 PUSH1 0x1 PUSH1 0xA0 SHL SUB AND DUP2 MSTORE PUSH1 0x1 SWAP1 SWAP2 ADD SWAP1 PUSH1 0x20 ADD DUP1 DUP4 GT PUSH2 0x33D1 JUMPI JUMPDEST POP POP POP POP POP SWAP5 POP DUP5 MLOAD SWAP4 POP DUP1 PUSH1 0x2 ADD DUP1 SLOAD DUP1 PUSH1 0x20 MUL PUSH1 0x20 ADD PUSH1 0x40 MLOAD SWAP1 DUP2 ADD PUSH1 0x40 MSTORE DUP1 SWAP3 SWAP2 SWAP1 DUP2 DUP2 MSTORE PUSH1 0x20 ADD DUP3 DUP1 SLOAD DUP1 ISZERO PUSH2 0x3452 JUMPI PUSH1 0x20 MUL DUP3 ADD SWAP2 SWAP1 PUSH1 0x0 MSTORE PUSH1 0x20 PUSH1 0x0 KECCAK256 SWAP1 JUMPDEST DUP2 SLOAD PUSH1 0x1 PUSH1 0x1 PUSH1 0xA0 SHL SUB AND DUP2 MSTORE PUSH1 0x1 SWAP1 SWAP2 ADD SWAP1 PUSH1 0x20 ADD DUP1 DUP4 GT PUSH2 0x3434 JUMPI JUMPDEST POP POP POP POP POP SWAP3 POP DUP3 MLOAD SWAP2 POP POP SWAP2 SWAP4 POP SWAP2 SWAP4 JUMP JUMPDEST PUSH2 0x34CD PUSH1 0x40 MLOAD DUP1 PUSH2 0x160 ADD PUSH1 0x40 MSTORE DUP1 PUSH1 0x0 PUSH1 0x1 PUSH1 0x1 PUSH1 0xA0 SHL SUB AND DUP2 MSTORE PUSH1 0x20 ADD PUSH1 0x60 DUP2 MSTORE PUSH1 0x20 ADD PUSH1 0x60 DUP2 MSTORE PUSH1 0x20 ADD PUSH1 0x60 DUP2 MSTORE PUSH1 0x20 ADD PUSH1 0x0 DUP2 MSTORE PUSH1 0x20 ADD PUSH1 0x0 DUP2 MSTORE PUSH1 0x20 ADD PUSH1 0x0 DUP2 MSTORE PUSH1 0x20 ADD PUSH1 0x60 DUP2 MSTORE PUSH1 0x20 ADD PUSH1 0x60 DUP2 MSTORE PUSH1 0x20 ADD PUSH1 0x60 DUP2 MSTORE PUSH1 0x20 ADD PUSH1 0x0 ISZERO ISZERO DUP2 MSTORE POP SWAP1 JUMP JUMPDEST PUSH1 0x1 PUSH1 0x1 PUSH1 0xA0 SHL SUB DUP1 DUP4 AND PUSH1 0x0 SWAP1 DUP2 MSTORE PUSH2 0x109 PUSH1 0x20 SWAP1 DUP2 MSTORE PUSH1 0x40 SWAP2 DUP3 SWAP1 KECCAK256 DUP3 MLOAD PUSH2 0x160 DUP2 ADD DUP5 MSTORE DUP2 SLOAD SWAP1 SWAP5 AND DUP5 MSTORE PUSH1 0x1 DUP2 ADD DUP1 SLOAD DUP5 MLOAD DUP2 DUP6 MUL DUP2 ADD DUP6 ADD SWAP1 SWAP6 MSTORE DUP1 DUP6 MSTORE SWAP2 SWAP4 DUP6 DUP5 ADD SWAP4 SWAP1 SWAP3 SWAP1 DUP4 ADD DUP3 DUP3 DUP1 ISZERO PUSH2 0x3552 JUMPI PUSH1 0x20 MUL DUP3 ADD SWAP2 SWAP1 PUSH1 0x0 MSTORE PUSH1 0x20 PUSH1 0x0 KECCAK256 SWAP1 JUMPDEST DUP2 SLOAD PUSH1 0x1 PUSH1 0x1 PUSH1 0xA0 SHL SUB AND DUP2 MSTORE PUSH1 0x1 SWAP1 SWAP2 ADD SWAP1 PUSH1 0x20 ADD DUP1 DUP4 GT PUSH2 0x3534 JUMPI JUMPDEST POP POP POP POP POP DUP2 MSTORE PUSH1 0x20 ADD PUSH1 0x2 DUP3 ADD DUP1 SLOAD DUP1 PUSH1 0x20 MUL PUSH1 0x20 ADD PUSH1 0x40 MLOAD SWAP1 DUP2 ADD PUSH1 0x40 MSTORE DUP1 SWAP3 SWAP2 SWAP1 DUP2 DUP2 MSTORE PUSH1 0x20 ADD DUP3 DUP1 SLOAD DUP1 ISZERO PUSH2 0x35B4 JUMPI PUSH1 0x20 MUL DUP3 ADD SWAP2 SWAP1 PUSH1 0x0 MSTORE PUSH1 0x20 PUSH1 0x0 KECCAK256 SWAP1 JUMPDEST DUP2 SLOAD PUSH1 0x1 PUSH1 0x1 PUSH1 0xA0 SHL SUB AND DUP2 MSTORE PUSH1 0x1 SWAP1 SWAP2 ADD SWAP1 PUSH1 0x20 ADD DUP1 DUP4 GT PUSH2 0x3596 JUMPI JUMPDEST POP POP POP POP POP DUP2 MSTORE PUSH1 0x20 ADD PUSH1 0x3 DUP3 ADD DUP1 SLOAD DUP1 PUSH1 0x20 MUL PUSH1 0x20 ADD PUSH1 0x40 MLOAD SWAP1 DUP2 ADD PUSH1 0x40 MSTORE DUP1 SWAP3 SWAP2 SWAP1 DUP2 DUP2 MSTORE PUSH1 0x20 ADD DUP3 DUP1 SLOAD DUP1 ISZERO PUSH2 0x360C JUMPI PUSH1 0x20 MUL DUP3 ADD SWAP2 SWAP1 PUSH1 0x0 MSTORE PUSH1 0x20 PUSH1 0x0 KECCAK256 SWAP1 JUMPDEST DUP2 SLOAD DUP2 MSTORE PUSH1 0x20 ADD SWAP1 PUSH1 0x1 ADD SWAP1 DUP1 DUP4 GT PUSH2 0x35F8 JUMPI JUMPDEST POP POP POP POP POP DUP2 MSTORE PUSH1 0x20 ADD PUSH1 0x4 DUP3 ADD SLOAD DUP2 MSTORE PUSH1 0x20 ADD PUSH1 0x5 DUP3 ADD SLOAD DUP2 MSTORE PUSH1 0x20 ADD PUSH1 0x6 DUP3 ADD SLOAD DUP2 MSTORE PUSH1 0x20 ADD PUSH1 0x7 DUP3 ADD DUP1 SLOAD DUP1 PUSH1 0x20 MUL PUSH1 0x20 ADD PUSH1 0x40 MLOAD SWAP1 DUP2 ADD PUSH1 0x40 MSTORE DUP1 SWAP3 SWAP2 SWAP1 DUP2 DUP2 MSTORE PUSH1 0x20 ADD DUP3 DUP1 SLOAD DUP1 ISZERO PUSH2 0x3682 JUMPI PUSH1 0x20 MUL DUP3 ADD SWAP2 SWAP1 PUSH1 0x0 MSTORE PUSH1 0x20 PUSH1 0x0 KECCAK256 SWAP1 JUMPDEST DUP2 SLOAD DUP2 MSTORE PUSH1 0x20 ADD SWAP1 PUSH1 0x1 ADD SWAP1 DUP1 DUP4 GT PUSH2 0x366E JUMPI JUMPDEST POP POP POP POP POP DUP2 MSTORE PUSH1 0x20 ADD PUSH1 0x8 DUP3 ADD DUP1 SLOAD DUP1 PUSH1 0x20 MUL PUSH1 0x20 ADD PUSH1 0x40 MLOAD SWAP1 DUP2 ADD PUSH1 0x40 MSTORE DUP1 SWAP3 SWAP2 SWAP1 DUP2 DUP2 MSTORE PUSH1 0x20 ADD DUP3 DUP1 SLOAD DUP1 ISZERO PUSH2 0x36DA JUMPI PUSH1 0x20 MUL DUP3 ADD SWAP2 SWAP1 PUSH1 0x0 MSTORE PUSH1 0x20 PUSH1 0x0 KECCAK256 SWAP1 JUMPDEST DUP2 SLOAD DUP2 MSTORE PUSH1 0x20 ADD SWAP1 PUSH1 0x1 ADD SWAP1 DUP1 DUP4 GT PUSH2 0x36C6 JUMPI JUMPDEST POP POP POP POP POP DUP2 MSTORE PUSH1 0x20 ADD PUSH1 0x9 DUP3 ADD DUP1 SLOAD DUP1 PUSH1 0x20 MUL PUSH1 0x20 ADD PUSH1 0x40 MLOAD SWAP1 DUP2 ADD PUSH1 0x40 MSTORE DUP1 SWAP3 SWAP2 SWAP1 DUP2 DUP2 MSTORE PUSH1 0x20 ADD DUP3 DUP1 SLOAD DUP1 ISZERO PUSH2 0x3732 JUMPI PUSH1 0x20 MUL DUP3 ADD SWAP2 SWAP1 PUSH1 0x0 MSTORE PUSH1 0x20 PUSH1 0x0 KECCAK256 SWAP1 JUMPDEST DUP2 SLOAD DUP2 MSTORE PUSH1 0x20 ADD SWAP1 PUSH1 0x1 ADD SWAP1 DUP1 DUP4 GT PUSH2 0x371E JUMPI JUMPDEST POP POP POP SWAP2 DUP4 MSTORE POP POP PUSH1 0xA SWAP2 SWAP1 SWAP2 ADD SLOAD PUSH1 0xFF AND ISZERO ISZERO PUSH1 0x20 SWAP1 SWAP2 ADD MSTORE SWAP3 SWAP2 POP POP JUMP JUMPDEST PUSH1 0xFD SLOAD PUSH1 0xFC DUP1 SLOAD PUSH1 0x40 DUP1 MLOAD PUSH1 0x20 DUP1 DUP5 MUL DUP3 ADD DUP2 ADD SWAP1 SWAP3 MSTORE DUP3 DUP2 MSTORE PUSH1 0x60 SWAP4 PUSH1 0x0 SWAP4 DUP5 SWAP4 DUP4 ADD DUP3 DUP3 DUP1 ISZERO PUSH2 0x37A3 JUMPI PUSH1 0x20 MUL DUP3 ADD SWAP2 SWAP1 PUSH1 0x0 MSTORE PUSH1 0x20 PUSH1 0x0 KECCAK256 SWAP1 JUMPDEST DUP2 SLOAD DUP2 MSTORE PUSH1 0x20 ADD SWAP1 PUSH1 0x1 ADD SWAP1 DUP1 DUP4 GT PUSH2 0x378F JUMPI JUMPDEST POP POP PUSH1 0xFC SLOAD SWAP4 SWAP7 POP PUSH1 0x0 SWAP3 POP POP POP JUMPDEST DUP2 DUP2 PUSH1 0xFF AND LT ISZERO PUSH2 0x37FD JUMPI PUSH1 0xFC DUP2 PUSH1 0xFF AND DUP2 SLOAD DUP2 LT PUSH2 0x37D3 JUMPI PUSH2 0x37D3 PUSH2 0x5AA6 JUMP JUMPDEST SWAP1 PUSH1 0x0 MSTORE PUSH1 0x20 PUSH1 0x0 KECCAK256 ADD SLOAD DUP5 PUSH2 0x37E9 SWAP2 SWAP1 PUSH2 0x5AD2 JUMP JUMPDEST SWAP4 POP DUP1 PUSH2 0x37F5 DUP2 PUSH2 0x5D44 JUMP JUMPDEST SWAP2 POP POP PUSH2 0x37B2 JUMP JUMPDEST POP POP PUSH2 0x100 SLOAD SWAP4 SWAP5 SWAP3 SWAP4 SWAP2 SWAP3 PUSH1 0x1 PUSH1 0x1 PUSH1 0xA0 SHL SUB SWAP1 SWAP3 AND SWAP2 SWAP1 POP JUMP JUMPDEST PUSH1 0x65 SLOAD PUSH1 0x1 PUSH1 0x1 PUSH1 0xA0 SHL SUB AND CALLER EQ PUSH2 0x1DCF JUMPI PUSH1 0x40 MLOAD PUSH3 0x461BCD PUSH1 0xE5 SHL DUP2 MSTORE PUSH1 0x20 PUSH1 0x4 DUP3 ADD DUP2 SWAP1 MSTORE PUSH1 0x24 DUP3 ADD MSTORE PUSH32 0x4F776E61626C653A2063616C6C6572206973206E6F7420746865206F776E6572 PUSH1 0x44 DUP3 ADD MSTORE PUSH1 0x64 ADD PUSH2 0xA98 JUMP JUMPDEST PUSH1 0x1 PUSH1 0x1 PUSH1 0xA0 SHL SUB DUP3 DUP2 AND PUSH1 0x0 DUP2 DUP2 MSTORE PUSH2 0x109 PUSH1 0x20 MSTORE PUSH1 0x40 DUP1 DUP3 KECCAK256 DUP1 SLOAD PUSH1 0x1 PUSH1 0x1 PUSH1 0xA0 SHL SUB NOT AND SWAP5 DUP7 AND SWAP5 DUP6 OR DUP2 SSTORE SWAP1 MLOAD SWAP1 SWAP4 SWAP3 SWAP2 PUSH32 0xFAF63637882FF2D63CA76881CF92FB857130E36F350C926F9CC884B499B42B77 SWAP2 LOG3 PUSH2 0x106 SLOAD PUSH1 0x0 JUMPDEST DUP2 DUP2 LT ISZERO PUSH2 0xBBF JUMPI DUP3 SLOAD PUSH1 0x1 PUSH1 0x1 PUSH1 0xA0 SHL SUB AND PUSH1 0x0 SWAP1 DUP2 MSTORE PUSH2 0x109 PUSH1 0x20 MSTORE PUSH1 0x40 DUP2 KECCAK256 SWAP1 DUP3 SWAP1 SUB PUSH2 0x392C JUMPI PUSH1 0x1 DUP2 DUP2 ADD DUP1 SLOAD SWAP2 DUP3 ADD DUP2 SSTORE PUSH1 0x0 SWAP1 DUP2 MSTORE PUSH1 0x20 SWAP1 KECCAK256 ADD DUP1 SLOAD PUSH1 0x1 PUSH1 0x1 PUSH1 0xA0 SHL SUB NOT AND PUSH1 0x1 PUSH1 0x1 PUSH1 0xA0 SHL SUB DUP9 AND OR SWAP1 SSTORE JUMPDEST DUP4 SLOAD PUSH1 0x1 PUSH1 0x1 PUSH1 0xA0 SHL SUB AND PUSH2 0x3941 JUMPI POP PUSH2 0xBBF JUMP JUMPDEST PUSH1 0x2 DUP2 ADD DUP1 SLOAD PUSH1 0x1 DUP2 ADD DUP3 SSTORE PUSH1 0x0 SWAP2 DUP3 MSTORE PUSH1 0x20 DUP3 KECCAK256 ADD DUP1 SLOAD PUSH1 0x1 PUSH1 0x1 PUSH1 0xA0 SHL SUB NOT AND PUSH1 0x1 PUSH1 0x1 PUSH1 0xA0 SHL SUB DUP10 DUP2 AND SWAP2 DUP3 OR SWAP1 SWAP3 SSTORE DUP7 SLOAD PUSH1 0x40 MLOAD SWAP2 SWAP4 DUP10 DUP5 AND SWAP4 SWAP2 SWAP1 SWAP2 AND SWAP2 PUSH32 0xB766B19465B3277B0B275ADF79D715CAC93166BF6E6A39F26E4CCFDEC76AD47E SWAP2 SWAP1 LOG4 SWAP3 POP DUP1 PUSH2 0x39B4 DUP2 PUSH2 0x5AE5 JUMP JUMPDEST SWAP2 POP POP PUSH2 0x38D2 JUMP JUMPDEST PUSH1 0x0 PUSH1 0xFC DUP1 SLOAD DUP1 PUSH1 0x20 MUL PUSH1 0x20 ADD PUSH1 0x40 MLOAD SWAP1 DUP2 ADD PUSH1 0x40 MSTORE DUP1 SWAP3 SWAP2 SWAP1 DUP2 DUP2 MSTORE PUSH1 0x20 ADD DUP3 DUP1 SLOAD DUP1 ISZERO PUSH2 0x3A0A JUMPI PUSH1 0x20 MUL DUP3 ADD SWAP2 SWAP1 PUSH1 0x0 MSTORE PUSH1 0x20 PUSH1 0x0 KECCAK256 SWAP1 JUMPDEST DUP2 SLOAD DUP2 MSTORE PUSH1 0x20 ADD SWAP1 PUSH1 0x1 ADD SWAP1 DUP1 DUP4 GT PUSH2 0x39F6 JUMPI JUMPDEST POP POP POP POP PUSH1 0x1 PUSH1 0x1 PUSH1 0xA0 SHL SUB DUP6 AND PUSH1 0x0 SWAP1 DUP2 MSTORE PUSH2 0x109 PUSH1 0x20 SWAP1 DUP2 MSTORE PUSH1 0x40 DUP3 KECCAK256 PUSH1 0x3 DUP2 ADD DUP1 SLOAD PUSH1 0x1 DUP2 ADD DUP3 SSTORE SWAP1 DUP5 MSTORE SWAP2 DUP4 KECCAK256 SWAP1 SWAP2 ADD DUP9 SWAP1 SSTORE PUSH1 0x4 DUP2 ADD SLOAD SWAP4 SWAP5 POP SWAP1 SWAP3 SWAP1 SWAP2 POP ISZERO PUSH2 0x3A58 JUMPI PUSH1 0x1 SWAP2 POP JUMPDEST DUP6 DUP2 PUSH1 0x4 ADD PUSH1 0x0 DUP3 DUP3 SLOAD PUSH2 0x3A6C SWAP2 SWAP1 PUSH2 0x5AD2 JUMP JUMPDEST SWAP1 SWAP2 SSTORE POP POP PUSH2 0x106 SLOAD PUSH1 0x0 SWAP1 PUSH8 0xFFFFFFFFFFFFFFFF DUP2 GT ISZERO PUSH2 0x3A90 JUMPI PUSH2 0x3A90 PUSH2 0x51D0 JUMP JUMPDEST PUSH1 0x40 MLOAD SWAP1 DUP1 DUP3 MSTORE DUP1 PUSH1 0x20 MUL PUSH1 0x20 ADD DUP3 ADD PUSH1 0x40 MSTORE DUP1 ISZERO PUSH2 0x3AB9 JUMPI DUP2 PUSH1 0x20 ADD PUSH1 0x20 DUP3 MUL DUP1 CALLDATASIZE DUP4 CALLDATACOPY ADD SWAP1 POP JUMPDEST POP SWAP1 POP PUSH1 0x0 DUP1 JUMPDEST PUSH2 0x106 SLOAD DUP2 LT ISZERO PUSH2 0x3DE1 JUMPI DUP4 SLOAD PUSH1 0x1 PUSH1 0x1 PUSH1 0xA0 SHL SUB AND PUSH1 0x0 DUP2 DUP2 MSTORE PUSH2 0x109 PUSH1 0x20 MSTORE PUSH1 0x40 SWAP1 KECCAK256 SWAP1 PUSH2 0x3AF0 JUMPI POP PUSH2 0x3DE1 JUMP JUMPDEST DUP7 MLOAD DUP3 LT ISZERO PUSH2 0x3D3F JUMPI PUSH1 0x0 PUSH1 0x64 DUP9 DUP5 DUP2 MLOAD DUP2 LT PUSH2 0x3B0F JUMPI PUSH2 0x3B0F PUSH2 0x5AA6 JUMP JUMPDEST PUSH1 0x20 MUL PUSH1 0x20 ADD ADD MLOAD DUP13 PUSH2 0x3B22 SWAP2 SWAP1 PUSH2 0x5B29 JUMP JUMPDEST PUSH2 0x3B2C SWAP2 SWAP1 PUSH2 0x5D30 JUMP JUMPDEST SWAP1 POP DUP3 PUSH1 0x0 SUB PUSH2 0x3B50 JUMPI DUP11 DUP3 PUSH1 0x5 ADD PUSH1 0x0 DUP3 DUP3 SLOAD PUSH2 0x3B4A SWAP2 SWAP1 PUSH2 0x5AD2 JUMP JUMPDEST SWAP1 SWAP2 SSTORE POP POP JUMPDEST PUSH1 0x7 DUP3 ADD DUP1 SLOAD PUSH1 0x1 DUP2 ADD DUP3 SSTORE PUSH1 0x0 SWAP2 DUP3 MSTORE PUSH1 0x20 DUP3 KECCAK256 ADD DUP3 SWAP1 SSTORE PUSH1 0xFF DUP1 SLOAD DUP4 SWAP3 SWAP1 PUSH2 0x3B7B SWAP1 DUP5 SWAP1 PUSH2 0x5AD2 JUMP JUMPDEST SWAP1 SWAP2 SSTORE POP POP DUP6 SLOAD PUSH1 0x1 PUSH1 0x1 PUSH1 0xA0 SHL SUB DUP1 DUP12 AND SWAP2 PUSH4 0xA9059CBB SWAP2 AND PUSH2 0x3B9F DUP5 DUP14 PUSH2 0x4D67 JUMP JUMPDEST PUSH1 0x40 MLOAD PUSH1 0x1 PUSH1 0x1 PUSH1 0xE0 SHL SUB NOT PUSH1 0xE0 DUP6 SWAP1 SHL AND DUP2 MSTORE PUSH1 0x1 PUSH1 0x1 PUSH1 0xA0 SHL SUB SWAP1 SWAP3 AND PUSH1 0x4 DUP4 ADD MSTORE PUSH1 0x24 DUP3 ADD MSTORE PUSH1 0x44 ADD PUSH1 0x20 PUSH1 0x40 MLOAD DUP1 DUP4 SUB DUP2 PUSH1 0x0 DUP8 GAS CALL ISZERO DUP1 ISZERO PUSH2 0x3BEA JUMPI RETURNDATASIZE PUSH1 0x0 DUP1 RETURNDATACOPY RETURNDATASIZE PUSH1 0x0 REVERT JUMPDEST POP POP POP POP PUSH1 0x40 MLOAD RETURNDATASIZE PUSH1 0x1F NOT PUSH1 0x1F DUP3 ADD AND DUP3 ADD DUP1 PUSH1 0x40 MSTORE POP DUP2 ADD SWAP1 PUSH2 0x3C0E SWAP2 SWAP1 PUSH2 0x5A67 JUMP JUMPDEST POP DUP6 SLOAD DUP2 SWAP1 PUSH1 0x1 PUSH1 0x1 PUSH1 0xA0 SHL SUB SWAP1 DUP2 AND SWAP1 DUP13 AND PUSH32 0x197A0A2B0FBFF3FC4F7F4D32597585AA8415FCC4C5DD6634336EC65904529C83 PUSH2 0x3C4D DUP8 PUSH1 0x1 PUSH2 0x5AD2 JUMP JUMPDEST PUSH1 0x40 DUP1 MLOAD SWAP2 DUP3 MSTORE PUSH1 0x20 DUP3 ADD DUP2 SWAP1 MSTORE PUSH1 0x5 SWAP1 DUP3 ADD MSTORE PUSH5 0x10539554D1 PUSH1 0xDA SHL PUSH1 0x60 DUP3 ADD MSTORE PUSH1 0x80 ADD PUSH1 0x40 MLOAD DUP1 SWAP2 SUB SWAP1 LOG4 PUSH1 0xA DUP3 ADD SLOAD PUSH1 0xFF AND PUSH2 0x3D3D JUMPI PUSH2 0x103 SLOAD DUP3 PUSH1 0x5 ADD SLOAD GT DUP1 ISZERO PUSH2 0x3CA2 JUMPI POP PUSH2 0x110 SLOAD DUP3 PUSH1 0x6 ADD SLOAD GT JUMPDEST ISZERO PUSH2 0x3D3D JUMPI DUP6 SLOAD PUSH2 0x102 DUP1 SLOAD PUSH1 0x1 DUP1 DUP3 ADD DUP4 SSTORE PUSH1 0x0 SWAP3 SWAP1 SWAP3 MSTORE PUSH32 0x93BDAA6A4190909B7C3FBE8D42169FFE1CAB19F51DFC8DB24C71ABF849ECED4A ADD DUP1 SLOAD PUSH1 0x1 PUSH1 0x1 PUSH1 0xA0 SHL SUB NOT AND PUSH1 0x1 PUSH1 0x1 PUSH1 0xA0 SHL SUB SWAP4 DUP5 AND OR SWAP1 SSTORE PUSH1 0xA DUP5 ADD DUP1 SLOAD PUSH1 0xFF NOT AND SWAP1 SWAP2 OR SWAP1 SSTORE DUP7 SLOAD PUSH1 0x40 MLOAD SWAP2 AND DUP2 MSTORE PUSH32 0xACC63915CB028AEAEE9996ABC0F864FC0559A2F955750AA97D6EF9F51014ACFB SWAP1 PUSH1 0x20 ADD PUSH1 0x40 MLOAD DUP1 SWAP2 SUB SWAP1 LOG1 JUMPDEST POP JUMPDEST DUP10 DUP2 PUSH1 0x6 ADD PUSH1 0x0 DUP3 DUP3 SLOAD PUSH2 0x3D53 SWAP2 SWAP1 PUSH2 0x5AD2 JUMP JUMPDEST SWAP1 SWAP2 SSTORE POP POP PUSH2 0x105 SLOAD PUSH1 0x5 DUP3 ADD SLOAD GT DUP1 ISZERO PUSH2 0x3D80 JUMPI POP PUSH2 0x10F SLOAD PUSH1 0x1 DUP3 ADD SLOAD PUSH4 0x1000000 SWAP1 SWAP2 DIV PUSH1 0xFF AND GT ISZERO JUMPDEST ISZERO PUSH2 0x3DCD JUMPI DUP5 SLOAD DUP5 MLOAD PUSH1 0x1 PUSH1 0x1 PUSH1 0xA0 SHL SUB SWAP1 SWAP2 AND SWAP1 DUP6 SWAP1 DUP6 SWAP1 DUP2 LT PUSH2 0x3DA7 JUMPI PUSH2 0x3DA7 PUSH2 0x5AA6 JUMP JUMPDEST PUSH1 0x1 PUSH1 0x1 PUSH1 0xA0 SHL SUB SWAP1 SWAP3 AND PUSH1 0x20 SWAP3 DUP4 MUL SWAP2 SWAP1 SWAP2 ADD SWAP1 SWAP2 ADD MSTORE DUP3 PUSH2 0x3DC9 DUP2 PUSH2 0x5AE5 JUMP JUMPDEST SWAP4 POP POP JUMPDEST SWAP4 POP DUP1 PUSH2 0x3DD9 DUP2 PUSH2 0x5AE5 JUMP JUMPDEST SWAP2 POP POP PUSH2 0x3AC0 JUMP JUMPDEST POP DUP1 ISZERO PUSH2 0x3FB5 JUMPI PUSH1 0x0 DUP2 PUSH1 0x64 PUSH2 0x104 SLOAD DUP12 PUSH2 0x3DFC SWAP2 SWAP1 PUSH2 0x5B29 JUMP JUMPDEST PUSH2 0x3E06 SWAP2 SWAP1 PUSH2 0x5D30 JUMP JUMPDEST PUSH2 0x3E10 SWAP2 SWAP1 PUSH2 0x5D30 JUMP JUMPDEST SWAP1 POP PUSH1 0x0 JUMPDEST DUP3 DUP2 LT ISZERO PUSH2 0x3FB2 JUMPI PUSH1 0x0 PUSH1 0x1 PUSH1 0x1 PUSH1 0xA0 SHL SUB AND DUP5 DUP3 DUP2 MLOAD DUP2 LT PUSH2 0x3E3A JUMPI PUSH2 0x3E3A PUSH2 0x5AA6 JUMP JUMPDEST PUSH1 0x20 MUL PUSH1 0x20 ADD ADD MLOAD PUSH1 0x1 PUSH1 0x1 PUSH1 0xA0 SHL SUB AND SUB ISZERO PUSH2 0x3FB2 JUMPI PUSH1 0x0 PUSH2 0x109 PUSH1 0x0 DUP7 DUP5 DUP2 MLOAD DUP2 LT PUSH2 0x3E6A JUMPI PUSH2 0x3E6A PUSH2 0x5AA6 JUMP JUMPDEST PUSH1 0x20 MUL PUSH1 0x20 ADD ADD MLOAD PUSH1 0x1 PUSH1 0x1 PUSH1 0xA0 SHL SUB AND PUSH1 0x1 PUSH1 0x1 PUSH1 0xA0 SHL SUB AND DUP2 MSTORE PUSH1 0x20 ADD SWAP1 DUP2 MSTORE PUSH1 0x20 ADD PUSH1 0x0 KECCAK256 SWAP1 POP DUP9 PUSH1 0x1 PUSH1 0x1 PUSH1 0xA0 SHL SUB AND PUSH4 0xA9059CBB DUP7 DUP5 DUP2 MLOAD DUP2 LT PUSH2 0x3EB5 JUMPI PUSH2 0x3EB5 PUSH2 0x5AA6 JUMP JUMPDEST PUSH1 0x20 MUL PUSH1 0x20 ADD ADD MLOAD PUSH2 0x3EC7 DUP7 DUP14 PUSH2 0x4D67 JUMP JUMPDEST PUSH1 0x40 MLOAD PUSH1 0x1 PUSH1 0x1 PUSH1 0xE0 SHL SUB NOT PUSH1 0xE0 DUP6 SWAP1 SHL AND DUP2 MSTORE PUSH1 0x1 PUSH1 0x1 PUSH1 0xA0 SHL SUB SWAP1 SWAP3 AND PUSH1 0x4 DUP4 ADD MSTORE PUSH1 0x24 DUP3 ADD MSTORE PUSH1 0x44 ADD PUSH1 0x20 PUSH1 0x40 MLOAD DUP1 DUP4 SUB DUP2 PUSH1 0x0 DUP8 GAS CALL ISZERO DUP1 ISZERO PUSH2 0x3F12 JUMPI RETURNDATASIZE PUSH1 0x0 DUP1 RETURNDATACOPY RETURNDATASIZE PUSH1 0x0 REVERT JUMPDEST POP POP POP POP PUSH1 0x40 MLOAD RETURNDATASIZE PUSH1 0x1F NOT PUSH1 0x1F DUP3 ADD AND DUP3 ADD DUP1 PUSH1 0x40 MSTORE POP DUP2 ADD SWAP1 PUSH2 0x3F36 SWAP2 SWAP1 PUSH2 0x5A67 JUMP JUMPDEST POP DUP5 DUP3 DUP2 MLOAD DUP2 LT PUSH2 0x3F49 JUMPI PUSH2 0x3F49 PUSH2 0x5AA6 JUMP JUMPDEST PUSH1 0x20 MUL PUSH1 0x20 ADD ADD MLOAD PUSH1 0x1 PUSH1 0x1 PUSH1 0xA0 SHL SUB AND DUP4 PUSH32 0x62F12B06523C734CCA73AA1502A5F967C8E09D0A2F084FD36ACBAC47F54B0D4E PUSH1 0x40 MLOAD PUSH1 0x40 MLOAD DUP1 SWAP2 SUB SWAP1 LOG3 PUSH1 0x9 ADD DUP1 SLOAD PUSH1 0x1 DUP2 ADD DUP3 SSTORE PUSH1 0x0 SWAP2 DUP3 MSTORE PUSH1 0x20 SWAP1 SWAP2 KECCAK256 ADD DUP3 SWAP1 SSTORE DUP1 PUSH2 0x3FAA DUP2 PUSH2 0x5AE5 JUMP JUMPDEST SWAP2 POP POP PUSH2 0x3E15 JUMP JUMPDEST POP POP JUMPDEST PUSH2 0x102 SLOAD ISZERO PUSH2 0x1B18 JUMPI PUSH1 0x0 PUSH1 0x64 PUSH2 0x101 SLOAD DUP11 PUSH2 0x3FD1 SWAP2 SWAP1 PUSH2 0x5B29 JUMP JUMPDEST PUSH2 0x3FDB SWAP2 SWAP1 PUSH2 0x5D30 JUMP JUMPDEST PUSH2 0x102 SLOAD PUSH1 0x40 DUP1 MLOAD TIMESTAMP PUSH1 0x20 DUP3 ADD MSTORE DIFFICULTY SWAP2 DUP2 ADD SWAP2 SWAP1 SWAP2 MSTORE SWAP2 SWAP3 POP PUSH1 0x0 SWAP2 PUSH1 0x60 ADD PUSH1 0x40 MLOAD PUSH1 0x20 DUP2 DUP4 SUB SUB DUP2 MSTORE SWAP1 PUSH1 0x40 MSTORE DUP1 MLOAD SWAP1 PUSH1 0x20 ADD KECCAK256 PUSH1 0x0 SHR PUSH2 0x401D SWAP2 SWAP1 PUSH2 0x5D97 JUMP JUMPDEST SWAP1 POP PUSH1 0x0 PUSH2 0x102 DUP3 DUP2 SLOAD DUP2 LT PUSH2 0x4035 JUMPI PUSH2 0x4035 PUSH2 0x5AA6 JUMP JUMPDEST PUSH1 0x0 SWAP2 DUP3 MSTORE PUSH1 0x20 DUP1 DUP4 KECCAK256 SWAP2 SWAP1 SWAP2 ADD SLOAD PUSH1 0x1 PUSH1 0x1 PUSH1 0xA0 SHL SUB AND DUP1 DUP4 MSTORE PUSH2 0x109 SWAP1 SWAP2 MSTORE PUSH1 0x40 SWAP1 SWAP2 KECCAK256 PUSH2 0x10F SLOAD PUSH1 0x1 DUP3 ADD SLOAD SWAP3 SWAP4 POP SWAP1 SWAP2 PUSH3 0x10000 SWAP1 SWAP2 DIV PUSH1 0xFF AND GT PUSH2 0x4161 JUMPI DUP10 PUSH1 0x1 PUSH1 0x1 PUSH1 0xA0 SHL SUB AND PUSH4 0xA9059CBB DUP4 PUSH2 0x4092 DUP8 DUP15 PUSH2 0x4D67 JUMP JUMPDEST PUSH1 0x40 MLOAD PUSH1 0x1 PUSH1 0x1 PUSH1 0xE0 SHL SUB NOT PUSH1 0xE0 DUP6 SWAP1 SHL AND DUP2 MSTORE PUSH1 0x1 PUSH1 0x1 PUSH1 0xA0 SHL SUB SWAP1 SWAP3 AND PUSH1 0x4 DUP4 ADD MSTORE PUSH1 0x24 DUP3 ADD MSTORE PUSH1 0x44 ADD PUSH1 0x20 PUSH1 0x40 MLOAD DUP1 DUP4 SUB DUP2 PUSH1 0x0 DUP8 GAS CALL ISZERO DUP1 ISZERO PUSH2 0x40DD JUMPI RETURNDATASIZE PUSH1 0x0 DUP1 RETURNDATACOPY RETURNDATASIZE PUSH1 0x0 REVERT JUMPDEST POP POP POP POP PUSH1 0x40 MLOAD RETURNDATASIZE PUSH1 0x1F NOT PUSH1 0x1F DUP3 ADD AND DUP3 ADD DUP1 PUSH1 0x40 MSTORE POP DUP2 ADD SWAP1 PUSH2 0x4101 SWAP2 SWAP1 PUSH2 0x5A67 JUMP JUMPDEST POP PUSH1 0x8 DUP2 ADD DUP1 SLOAD PUSH1 0x1 DUP2 ADD DUP3 SSTORE PUSH1 0x0 SWAP2 DUP3 MSTORE PUSH1 0x20 SWAP2 DUP3 SWAP1 KECCAK256 ADD DUP6 SWAP1 SSTORE PUSH1 0x40 DUP1 MLOAD DUP7 DUP2 MSTORE PUSH1 0x1 PUSH1 0x1 PUSH1 0xA0 SHL SUB DUP6 AND SWAP3 DUP2 ADD SWAP3 SWAP1 SWAP3 MSTORE PUSH32 0x51E673AC98F0EA063CE27EB5AF807D22B97CD11CD79380CF1F711AD80948046C SWAP2 ADD PUSH1 0x40 MLOAD DUP1 SWAP2 SUB SWAP1 LOG1 JUMPDEST POP POP POP POP POP POP POP POP POP POP POP POP JUMP JUMPDEST PUSH1 0x1 PUSH1 0x1 PUSH1 0xA0 SHL SUB DUP2 AND PUSH1 0x0 SWAP1 DUP2 MSTORE PUSH2 0x10D PUSH1 0x20 MSTORE PUSH1 0x40 DUP2 KECCAK256 SLOAD PUSH2 0xFFFF AND SWAP1 SUB PUSH2 0x1BFE JUMPI PUSH2 0x10F SLOAD PUSH1 0x0 SWAP1 PUSH2 0x41A9 SWAP1 PUSH2 0xFFFF AND PUSH1 0x1 PUSH2 0x5DAB JUMP JUMPDEST PUSH1 0x1 PUSH1 0x1 PUSH1 0xA0 SHL SUB DUP4 AND PUSH1 0x0 DUP2 DUP2 MSTORE PUSH2 0x10D PUSH1 0x20 SWAP1 DUP2 MSTORE PUSH1 0x40 DUP1 DUP4 KECCAK256 DUP1 SLOAD PUSH2 0xFFFF NOT AND PUSH2 0xFFFF DUP8 DUP2 AND SWAP2 DUP3 OR SWAP1 SWAP3 SSTORE DUP5 MSTORE PUSH2 0x10C SWAP1 SWAP3 MSTORE DUP3 KECCAK256 DUP1 SLOAD PUSH1 0x1 PUSH1 0x1 PUSH1 0xA0 SHL SUB NOT SWAP1 DUP2 AND DUP6 OR SWAP1 SWAP2 SSTORE PUSH2 0x10E DUP1 SLOAD PUSH1 0x1 DUP2 ADD DUP3 SSTORE SWAP1 DUP5 MSTORE PUSH32 0x44731785622D53A842EEB261A70DF6F2B61B9624656157B6168597F0656F4805 ADD DUP1 SLOAD SWAP1 SWAP2 AND SWAP1 SWAP4 OR SWAP1 SWAP3 SSTORE PUSH2 0x10F DUP1 SLOAD SWAP4 SWAP5 POP SWAP3 SWAP1 SWAP2 AND SWAP2 SWAP1 PUSH2 0x4247 DUP4 PUSH2 0x5D63 JUMP JUMPDEST SWAP2 SWAP1 PUSH2 0x100 EXP DUP2 SLOAD DUP2 PUSH2 0xFFFF MUL NOT AND SWAP1 DUP4 PUSH2 0xFFFF AND MUL OR SWAP1 SSTORE POP POP POP POP JUMP JUMPDEST PUSH1 0x60 DUP2 ADD MLOAD MLOAD PUSH1 0x0 SWAP1 ISZERO PUSH2 0x42CB JUMPI PUSH1 0x1 JUMPDEST DUP3 PUSH1 0x60 ADD MLOAD MLOAD DUP2 PUSH2 0xFFFF AND LT ISZERO PUSH2 0x42C9 JUMPI DUP3 PUSH1 0x60 ADD MLOAD DUP2 PUSH2 0xFFFF AND DUP2 MLOAD DUP2 LT PUSH2 0x42A2 JUMPI PUSH2 0x42A2 PUSH2 0x5AA6 JUMP JUMPDEST PUSH1 0x20 MUL PUSH1 0x20 ADD ADD MLOAD DUP3 PUSH2 0x42B5 SWAP2 SWAP1 PUSH2 0x5AD2 JUMP JUMPDEST SWAP2 POP DUP1 PUSH2 0x42C1 DUP2 PUSH2 0x5D63 JUMP JUMPDEST SWAP2 POP POP PUSH2 0x4277 JUMP JUMPDEST POP JUMPDEST SWAP2 SWAP1 POP JUMP JUMPDEST PUSH2 0x1BFE PUSH2 0x3819 JUMP JUMPDEST PUSH32 0x4910FDFA16FED3260ED0E7147F7CC6DA11A60208B5B9406D12A635614FFD9143 SLOAD PUSH1 0xFF AND ISZERO PUSH2 0x4310 JUMPI PUSH2 0x430B DUP4 PUSH2 0x4DF3 JUMP JUMPDEST PUSH2 0x1763 JUMP JUMPDEST DUP3 PUSH1 0x1 PUSH1 0x1 PUSH1 0xA0 SHL SUB AND PUSH4 0x52D1902D PUSH1 0x40 MLOAD DUP2 PUSH4 0xFFFFFFFF AND PUSH1 0xE0 SHL DUP2 MSTORE PUSH1 0x4 ADD PUSH1 0x20 PUSH1 0x40 MLOAD DUP1 DUP4 SUB DUP2 DUP7 GAS STATICCALL SWAP3 POP POP POP DUP1 ISZERO PUSH2 0x436A JUMPI POP PUSH1 0x40 DUP1 MLOAD PUSH1 0x1F RETURNDATASIZE SWAP1 DUP2 ADD PUSH1 0x1F NOT AND DUP3 ADD SWAP1 SWAP3 MSTORE PUSH2 0x4367 SWAP2 DUP2 ADD SWAP1 PUSH2 0x5DCD JUMP JUMPDEST PUSH1 0x1 JUMPDEST PUSH2 0x43CD JUMPI PUSH1 0x40 MLOAD PUSH3 0x461BCD PUSH1 0xE5 SHL DUP2 MSTORE PUSH1 0x20 PUSH1 0x4 DUP3 ADD MSTORE PUSH1 0x2E PUSH1 0x24 DUP3 ADD MSTORE PUSH32 0x45524331393637557067726164653A206E657720696D706C656D656E74617469 PUSH1 0x44 DUP3 ADD MSTORE PUSH14 0x6F6E206973206E6F742055555053 PUSH1 0x90 SHL PUSH1 0x64 DUP3 ADD MSTORE PUSH1 0x84 ADD PUSH2 0xA98 JUMP JUMPDEST PUSH1 0x0 DUP1 MLOAD PUSH1 0x20 PUSH2 0x5F6C DUP4 CODECOPY DUP2 MLOAD SWAP2 MSTORE DUP2 EQ PUSH2 0x443C JUMPI PUSH1 0x40 MLOAD PUSH3 0x461BCD PUSH1 0xE5 SHL DUP2 MSTORE PUSH1 0x20 PUSH1 0x4 DUP3 ADD MSTORE PUSH1 0x29 PUSH1 0x24 DUP3 ADD MSTORE PUSH32 0x45524331393637557067726164653A20756E737570706F727465642070726F78 PUSH1 0x44 DUP3 ADD MSTORE PUSH9 0x1A58589B1955555251 PUSH1 0xBA SHL PUSH1 0x64 DUP3 ADD MSTORE PUSH1 0x84 ADD PUSH2 0xA98 JUMP JUMPDEST POP PUSH2 0x1763 DUP4 DUP4 DUP4 PUSH2 0x4E8F JUMP JUMPDEST PUSH1 0x65 DUP1 SLOAD PUSH1 0x1 PUSH1 0x1 PUSH1 0xA0 SHL SUB DUP4 DUP2 AND PUSH1 0x1 PUSH1 0x1 PUSH1 0xA0 SHL SUB NOT DUP4 AND DUP2 OR SWAP1 SWAP4 SSTORE PUSH1 0x40 MLOAD SWAP2 AND SWAP2 SWAP1 DUP3 SWAP1 PUSH32 0x8BE0079C531659141344CD1FD0A4F28419497F9722A3DAAFE3B4186F6B6457E0 SWAP1 PUSH1 0x0 SWAP1 LOG3 POP POP JUMP JUMPDEST PUSH1 0x0 SLOAD PUSH2 0x100 SWAP1 DIV PUSH1 0xFF AND PUSH2 0x44C1 JUMPI PUSH1 0x40 MLOAD PUSH3 0x461BCD PUSH1 0xE5 SHL DUP2 MSTORE PUSH1 0x4 ADD PUSH2 0xA98 SWAP1 PUSH2 0x5DE6 JUMP JUMPDEST PUSH2 0x1DCF PUSH2 0x4EB4 JUMP JUMPDEST PUSH1 0x0 SLOAD PUSH2 0x100 SWAP1 DIV PUSH1 0xFF AND PUSH2 0x44F0 JUMPI PUSH1 0x40 MLOAD PUSH3 0x461BCD PUSH1 0xE5 SHL DUP2 MSTORE PUSH1 0x4 ADD PUSH2 0xA98 SWAP1 PUSH2 0x5DE6 JUMP JUMPDEST PUSH2 0x1DCF PUSH2 0x4EE7 JUMP JUMPDEST PUSH1 0x0 SLOAD PUSH2 0x100 SWAP1 DIV PUSH1 0xFF AND PUSH2 0x1DCF JUMPI PUSH1 0x40 MLOAD PUSH3 0x461BCD PUSH1 0xE5 SHL DUP2 MSTORE PUSH1 0x4 ADD PUSH2 0xA98 SWAP1 PUSH2 0x5DE6 JUMP JUMPDEST PUSH1 0x60 PUSH1 0x0 PUSH2 0x452D DUP5 DUP5 PUSH2 0x5E31 JUMP JUMPDEST PUSH2 0xFFFF AND PUSH8 0xFFFFFFFFFFFFFFFF DUP2 GT ISZERO PUSH2 0x4549 JUMPI PUSH2 0x4549 PUSH2 0x51D0 JUMP JUMPDEST PUSH1 0x40 MLOAD SWAP1 DUP1 DUP3 MSTORE DUP1 PUSH1 0x20 MUL PUSH1 0x20 ADD DUP3 ADD PUSH1 0x40 MSTORE DUP1 ISZERO PUSH2 0x4572 JUMPI DUP2 PUSH1 0x20 ADD PUSH1 0x20 DUP3 MUL DUP1 CALLDATASIZE DUP4 CALLDATACOPY ADD SWAP1 POP JUMPDEST POP SWAP2 POP JUMPDEST DUP3 PUSH2 0xFFFF AND DUP5 PUSH2 0xFFFF AND GT PUSH2 0x4A27 JUMPI PUSH2 0xFFFF DUP5 AND PUSH1 0x0 SWAP1 DUP2 MSTORE PUSH2 0x10C PUSH1 0x20 SWAP1 DUP2 MSTORE PUSH1 0x40 DUP1 DUP4 KECCAK256 SLOAD PUSH1 0x1 PUSH1 0x1 PUSH1 0xA0 SHL SUB SWAP1 DUP2 AND DUP1 DUP6 MSTORE PUSH2 0x109 DUP5 MSTORE DUP3 DUP6 KECCAK256 DUP4 MLOAD PUSH2 0x160 DUP2 ADD DUP6 MSTORE DUP2 SLOAD SWAP1 SWAP4 AND DUP4 MSTORE PUSH1 0x1 DUP2 ADD DUP1 SLOAD DUP6 MLOAD DUP2 DUP9 MUL DUP2 ADD DUP9 ADD SWAP1 SWAP7 MSTORE DUP1 DUP7 MSTORE SWAP3 SWAP7 SWAP6 SWAP4 SWAP5 SWAP2 SWAP4 DUP6 DUP2 ADD SWAP4 SWAP1 DUP4 ADD DUP3 DUP3 DUP1 ISZERO PUSH2 0x461D JUMPI PUSH1 0x20 MUL DUP3 ADD SWAP2 SWAP1 PUSH1 0x0 MSTORE PUSH1 0x20 PUSH1 0x0 KECCAK256 SWAP1 JUMPDEST DUP2 SLOAD PUSH1 0x1 PUSH1 0x1 PUSH1 0xA0 SHL SUB AND DUP2 MSTORE PUSH1 0x1 SWAP1 SWAP2 ADD SWAP1 PUSH1 0x20 ADD DUP1 DUP4 GT PUSH2 0x45FF JUMPI JUMPDEST POP POP POP POP POP DUP2 MSTORE PUSH1 0x20 ADD PUSH1 0x2 DUP3 ADD DUP1 SLOAD DUP1 PUSH1 0x20 MUL PUSH1 0x20 ADD PUSH1 0x40 MLOAD SWAP1 DUP2 ADD PUSH1 0x40 MSTORE DUP1 SWAP3 SWAP2 SWAP1 DUP2 DUP2 MSTORE PUSH1 0x20 ADD DUP3 DUP1 SLOAD DUP1 ISZERO PUSH2 0x467F JUMPI PUSH1 0x20 MUL DUP3 ADD SWAP2 SWAP1 PUSH1 0x0 MSTORE PUSH1 0x20 PUSH1 0x0 KECCAK256 SWAP1 JUMPDEST DUP2 SLOAD PUSH1 0x1 PUSH1 0x1 PUSH1 0xA0 SHL SUB AND DUP2 MSTORE PUSH1 0x1 SWAP1 SWAP2 ADD SWAP1 PUSH1 0x20 ADD DUP1 DUP4 GT PUSH2 0x4661 JUMPI JUMPDEST POP POP POP POP POP DUP2 MSTORE PUSH1 0x20 ADD PUSH1 0x3 DUP3 ADD DUP1 SLOAD DUP1 PUSH1 0x20 MUL PUSH1 0x20 ADD PUSH1 0x40 MLOAD SWAP1 DUP2 ADD PUSH1 0x40 MSTORE DUP1 SWAP3 SWAP2 SWAP1 DUP2 DUP2 MSTORE PUSH1 0x20 ADD DUP3 DUP1 SLOAD DUP1 ISZERO PUSH2 0x46D7 JUMPI PUSH1 0x20 MUL DUP3 ADD SWAP2 SWAP1 PUSH1 0x0 MSTORE PUSH1 0x20 PUSH1 0x0 KECCAK256 SWAP1 JUMPDEST DUP2 SLOAD DUP2 MSTORE PUSH1 0x20 ADD SWAP1 PUSH1 0x1 ADD SWAP1 DUP1 DUP4 GT PUSH2 0x46C3 JUMPI JUMPDEST POP POP POP POP POP DUP2 MSTORE PUSH1 0x20 ADD PUSH1 0x4 DUP3 ADD SLOAD DUP2 MSTORE PUSH1 0x20 ADD PUSH1 0x5 DUP3 ADD SLOAD DUP2 MSTORE PUSH1 0x20 ADD PUSH1 0x6 DUP3 ADD SLOAD DUP2 MSTORE PUSH1 0x20 ADD PUSH1 0x7 DUP3 ADD DUP1 SLOAD DUP1 PUSH1 0x20 MUL PUSH1 0x20 ADD PUSH1 0x40 MLOAD SWAP1 DUP2 ADD PUSH1 0x40 MSTORE DUP1 SWAP3 SWAP2 SWAP1 DUP2 DUP2 MSTORE PUSH1 0x20 ADD DUP3 DUP1 SLOAD DUP1 ISZERO PUSH2 0x474D JUMPI PUSH1 0x20 MUL DUP3 ADD SWAP2 SWAP1 PUSH1 0x0 MSTORE PUSH1 0x20 PUSH1 0x0 KECCAK256 SWAP1 JUMPDEST DUP2 SLOAD DUP2 MSTORE PUSH1 0x20 ADD SWAP1 PUSH1 0x1 ADD SWAP1 DUP1 DUP4 GT PUSH2 0x4739 JUMPI JUMPDEST POP POP POP POP POP DUP2 MSTORE PUSH1 0x20 ADD PUSH1 0x8 DUP3 ADD DUP1 SLOAD DUP1 PUSH1 0x20 MUL PUSH1 0x20 ADD PUSH1 0x40 MLOAD SWAP1 DUP2 ADD PUSH1 0x40 MSTORE DUP1 SWAP3 SWAP2 SWAP1 DUP2 DUP2 MSTORE PUSH1 0x20 ADD DUP3 DUP1 SLOAD DUP1 ISZERO PUSH2 0x47A5 JUMPI PUSH1 0x20 MUL DUP3 ADD SWAP2 SWAP1 PUSH1 0x0 MSTORE PUSH1 0x20 PUSH1 0x0 KECCAK256 SWAP1 JUMPDEST DUP2 SLOAD DUP2 MSTORE PUSH1 0x20 ADD SWAP1 PUSH1 0x1 ADD SWAP1 DUP1 DUP4 GT PUSH2 0x4791 JUMPI JUMPDEST POP POP POP POP POP DUP2 MSTORE PUSH1 0x20 ADD PUSH1 0x9 DUP3 ADD DUP1 SLOAD DUP1 PUSH1 0x20 MUL PUSH1 0x20 ADD PUSH1 0x40 MLOAD SWAP1 DUP2 ADD PUSH1 0x40 MSTORE DUP1 SWAP3 SWAP2 SWAP1 DUP2 DUP2 MSTORE PUSH1 0x20 ADD DUP3 DUP1 SLOAD DUP1 ISZERO PUSH2 0x47FD JUMPI PUSH1 0x20 MUL DUP3 ADD SWAP2 SWAP1 PUSH1 0x0 MSTORE PUSH1 0x20 PUSH1 0x0 KECCAK256 SWAP1 JUMPDEST DUP2 SLOAD DUP2 MSTORE PUSH1 0x20 ADD SWAP1 PUSH1 0x1 ADD SWAP1 DUP1 DUP4 GT PUSH2 0x47E9 JUMPI JUMPDEST POP POP POP SWAP2 DUP4 MSTORE POP POP PUSH1 0xA SWAP2 SWAP1 SWAP2 ADD SLOAD PUSH1 0xFF SWAP1 DUP2 AND ISZERO ISZERO PUSH1 0x20 SWAP3 DUP4 ADD MSTORE DUP10 DUP2 AND PUSH1 0x0 SWAP1 DUP2 MSTORE PUSH2 0x10B DUP4 MSTORE PUSH1 0x40 DUP1 DUP3 KECCAK256 DUP2 MLOAD PUSH1 0xE0 DUP2 ADD DUP4 MSTORE DUP2 SLOAD SWAP1 SWAP5 AND DUP5 MSTORE PUSH1 0x1 DUP2 ADD SLOAD SWAP5 DUP5 ADD SWAP5 SWAP1 SWAP5 MSTORE PUSH1 0x2 DUP5 ADD SLOAD SWAP1 DUP4 ADD MSTORE PUSH1 0x3 DUP4 ADD SLOAD PUSH1 0x60 DUP4 ADD MSTORE PUSH1 0x4 DUP4 ADD DUP1 SLOAD SWAP5 SWAP6 POP SWAP1 SWAP4 SWAP2 SWAP3 SWAP2 PUSH1 0x80 DUP5 ADD SWAP2 SWAP1 PUSH2 0x4876 SWAP1 PUSH2 0x5B40 JUMP JUMPDEST DUP1 PUSH1 0x1F ADD PUSH1 0x20 DUP1 SWAP2 DIV MUL PUSH1 0x20 ADD PUSH1 0x40 MLOAD SWAP1 DUP2 ADD PUSH1 0x40 MSTORE DUP1 SWAP3 SWAP2 SWAP1 DUP2 DUP2 MSTORE PUSH1 0x20 ADD DUP3 DUP1 SLOAD PUSH2 0x48A2 SWAP1 PUSH2 0x5B40 JUMP JUMPDEST DUP1 ISZERO PUSH2 0x48EF JUMPI DUP1 PUSH1 0x1F LT PUSH2 0x48C4 JUMPI PUSH2 0x100 DUP1 DUP4 SLOAD DIV MUL DUP4 MSTORE SWAP2 PUSH1 0x20 ADD SWAP2 PUSH2 0x48EF JUMP JUMPDEST DUP3 ADD SWAP2 SWAP1 PUSH1 0x0 MSTORE PUSH1 0x20 PUSH1 0x0 KECCAK256 SWAP1 JUMPDEST DUP2 SLOAD DUP2 MSTORE SWAP1 PUSH1 0x1 ADD SWAP1 PUSH1 0x20 ADD DUP1 DUP4 GT PUSH2 0x48D2 JUMPI DUP3 SWAP1 SUB PUSH1 0x1F AND DUP3 ADD SWAP2 JUMPDEST POP POP POP POP POP DUP2 MSTORE PUSH1 0x20 ADD PUSH1 0x5 DUP3 ADD DUP1 SLOAD PUSH2 0x4908 SWAP1 PUSH2 0x5B40 JUMP JUMPDEST DUP1 PUSH1 0x1F ADD PUSH1 0x20 DUP1 SWAP2 DIV MUL PUSH1 0x20 ADD PUSH1 0x40 MLOAD SWAP1 DUP2 ADD PUSH1 0x40 MSTORE DUP1 SWAP3 SWAP2 SWAP1 DUP2 DUP2 MSTORE PUSH1 0x20 ADD DUP3 DUP1 SLOAD PUSH2 0x4934 SWAP1 PUSH2 0x5B40 JUMP JUMPDEST DUP1 ISZERO PUSH2 0x4981 JUMPI DUP1 PUSH1 0x1F LT PUSH2 0x4956 JUMPI PUSH2 0x100 DUP1 DUP4 SLOAD DIV MUL DUP4 MSTORE SWAP2 PUSH1 0x20 ADD SWAP2 PUSH2 0x4981 JUMP JUMPDEST DUP3 ADD SWAP2 SWAP1 PUSH1 0x0 MSTORE PUSH1 0x20 PUSH1 0x0 KECCAK256 SWAP1 JUMPDEST DUP2 SLOAD DUP2 MSTORE SWAP1 PUSH1 0x1 ADD SWAP1 PUSH1 0x20 ADD DUP1 DUP4 GT PUSH2 0x4964 JUMPI DUP3 SWAP1 SUB PUSH1 0x1F AND DUP3 ADD SWAP2 JUMPDEST POP POP POP POP POP DUP2 MSTORE PUSH1 0x20 ADD PUSH1 0x6 DUP3 ADD SLOAD DUP2 MSTORE POP POP SWAP1 POP DUP1 PUSH1 0x20 ADD MLOAD PUSH2 0x49A4 DUP4 PUSH2 0x4266 JUMP JUMPDEST LT ISZERO DUP1 ISZERO PUSH2 0x49BA JUMPI POP DUP1 PUSH1 0x40 ADD MLOAD DUP3 PUSH1 0xA0 ADD MLOAD LT ISZERO JUMPDEST DUP1 ISZERO PUSH2 0x49CF JUMPI POP PUSH2 0x49CF DUP3 DUP3 PUSH1 0x60 ADD MLOAD PUSH2 0x4A2F JUMP JUMPDEST ISZERO PUSH2 0x4A11 JUMPI DUP3 DUP6 DUP6 PUSH2 0xFFFF AND DUP2 MLOAD DUP2 LT PUSH2 0x49EB JUMPI PUSH2 0x49EB PUSH2 0x5AA6 JUMP JUMPDEST PUSH1 0x1 PUSH1 0x1 PUSH1 0xA0 SHL SUB SWAP1 SWAP3 AND PUSH1 0x20 SWAP3 DUP4 MUL SWAP2 SWAP1 SWAP2 ADD SWAP1 SWAP2 ADD MSTORE DUP4 PUSH2 0x4A0D DUP2 PUSH2 0x5D63 JUMP JUMPDEST SWAP5 POP POP JUMPDEST POP POP POP DUP4 DUP1 PUSH2 0x4A1F SWAP1 PUSH2 0x5D63 JUMP JUMPDEST SWAP5 POP POP PUSH2 0x4576 JUMP JUMPDEST SWAP4 POP SWAP4 SWAP2 POP POP JUMP JUMPDEST PUSH1 0x0 DUP1 PUSH1 0x0 PUSH1 0x2 DUP6 PUSH1 0x20 ADD MLOAD MLOAD LT PUSH2 0x4D5F JUMPI PUSH1 0x0 JUMPDEST DUP6 PUSH1 0x20 ADD MLOAD MLOAD DUP2 PUSH2 0xFFFF AND LT ISZERO PUSH2 0x4D3B JUMPI PUSH1 0x0 PUSH2 0x109 PUSH1 0x0 DUP9 PUSH1 0x20 ADD MLOAD DUP5 PUSH2 0xFFFF AND DUP2 MLOAD DUP2 LT PUSH2 0x4A76 JUMPI PUSH2 0x4A76 PUSH2 0x5AA6 JUMP JUMPDEST PUSH1 0x20 SWAP1 DUP2 MUL SWAP2 SWAP1 SWAP2 ADD DUP2 ADD MLOAD PUSH1 0x1 PUSH1 0x1 PUSH1 0xA0 SHL SUB SWAP1 DUP2 AND DUP4 MSTORE DUP3 DUP3 ADD SWAP4 SWAP1 SWAP4 MSTORE PUSH1 0x40 SWAP2 DUP3 ADD PUSH1 0x0 KECCAK256 DUP3 MLOAD PUSH2 0x160 DUP2 ADD DUP5 MSTORE DUP2 SLOAD SWAP1 SWAP5 AND DUP5 MSTORE PUSH1 0x1 DUP2 ADD DUP1 SLOAD DUP5 MLOAD DUP2 DUP6 MUL DUP2 ADD DUP6 ADD SWAP1 SWAP6 MSTORE DUP1 DUP6 MSTORE SWAP2 SWAP4 DUP6 DUP5 ADD SWAP4 SWAP1 SWAP3 SWAP1 DUP4 ADD DUP3 DUP3 DUP1 ISZERO PUSH2 0x4B05 JUMPI PUSH1 0x20 MUL DUP3 ADD SWAP2 SWAP1 PUSH1 0x0 MSTORE PUSH1 0x20 PUSH1 0x0 KECCAK256 SWAP1 JUMPDEST DUP2 SLOAD PUSH1 0x1 PUSH1 0x1 PUSH1 0xA0 SHL SUB AND DUP2 MSTORE PUSH1 0x1 SWAP1 SWAP2 ADD SWAP1 PUSH1 0x20 ADD DUP1 DUP4 GT PUSH2 0x4AE7 JUMPI JUMPDEST POP POP POP POP POP DUP2 MSTORE PUSH1 0x20 ADD PUSH1 0x2 DUP3 ADD DUP1 SLOAD DUP1 PUSH1 0x20 MUL PUSH1 0x20 ADD PUSH1 0x40 MLOAD SWAP1 DUP2 ADD PUSH1 0x40 MSTORE DUP1 SWAP3 SWAP2 SWAP1 DUP2 DUP2 MSTORE PUSH1 0x20 ADD DUP3 DUP1 SLOAD DUP1 ISZERO PUSH2 0x4B67 JUMPI PUSH1 0x20 MUL DUP3 ADD SWAP2 SWAP1 PUSH1 0x0 MSTORE PUSH1 0x20 PUSH1 0x0 KECCAK256 SWAP1 JUMPDEST DUP2 SLOAD PUSH1 0x1 PUSH1 0x1 PUSH1 0xA0 SHL SUB AND DUP2 MSTORE PUSH1 0x1 SWAP1 SWAP2 ADD SWAP1 PUSH1 0x20 ADD DUP1 DUP4 GT PUSH2 0x4B49 JUMPI JUMPDEST POP POP POP POP POP DUP2 MSTORE PUSH1 0x20 ADD PUSH1 0x3 DUP3 ADD DUP1 SLOAD DUP1 PUSH1 0x20 MUL PUSH1 0x20 ADD PUSH1 0x40 MLOAD SWAP1 DUP2 ADD PUSH1 0x40 MSTORE DUP1 SWAP3 SWAP2 SWAP1 DUP2 DUP2 MSTORE PUSH1 0x20 ADD DUP3 DUP1 SLOAD DUP1 ISZERO PUSH2 0x4BBF JUMPI PUSH1 0x20 MUL DUP3 ADD SWAP2 SWAP1 PUSH1 0x0 MSTORE PUSH1 0x20 PUSH1 0x0 KECCAK256 SWAP1 JUMPDEST DUP2 SLOAD DUP2 MSTORE PUSH1 0x20 ADD SWAP1 PUSH1 0x1 ADD SWAP1 DUP1 DUP4 GT PUSH2 0x4BAB JUMPI JUMPDEST POP POP POP POP POP DUP2 MSTORE PUSH1 0x20 ADD PUSH1 0x4 DUP3 ADD SLOAD DUP2 MSTORE PUSH1 0x20 ADD PUSH1 0x5 DUP3 ADD SLOAD DUP2 MSTORE PUSH1 0x20 ADD PUSH1 0x6 DUP3 ADD SLOAD DUP2 MSTORE PUSH1 0x20 ADD PUSH1 0x7 DUP3 ADD DUP1 SLOAD DUP1 PUSH1 0x20 MUL PUSH1 0x20 ADD PUSH1 0x40 MLOAD SWAP1 DUP2 ADD PUSH1 0x40 MSTORE DUP1 SWAP3 SWAP2 SWAP1 DUP2 DUP2 MSTORE PUSH1 0x20 ADD DUP3 DUP1 SLOAD DUP1 ISZERO PUSH2 0x4C35 JUMPI PUSH1 0x20 MUL DUP3 ADD SWAP2 SWAP1 PUSH1 0x0 MSTORE PUSH1 0x20 PUSH1 0x0 KECCAK256 SWAP1 JUMPDEST DUP2 SLOAD DUP2 MSTORE PUSH1 0x20 ADD SWAP1 PUSH1 0x1 ADD SWAP1 DUP1 DUP4 GT PUSH2 0x4C21 JUMPI JUMPDEST POP POP POP POP POP DUP2 MSTORE PUSH1 0x20 ADD PUSH1 0x8 DUP3 ADD DUP1 SLOAD DUP1 PUSH1 0x20 MUL PUSH1 0x20 ADD PUSH1 0x40 MLOAD SWAP1 DUP2 ADD PUSH1 0x40 MSTORE DUP1 SWAP3 SWAP2 SWAP1 DUP2 DUP2 MSTORE PUSH1 0x20 ADD DUP3 DUP1 SLOAD DUP1 ISZERO PUSH2 0x4C8D JUMPI PUSH1 0x20 MUL DUP3 ADD SWAP2 SWAP1 PUSH1 0x0 MSTORE PUSH1 0x20 PUSH1 0x0 KECCAK256 SWAP1 JUMPDEST DUP2 SLOAD DUP2 MSTORE PUSH1 0x20 ADD SWAP1 PUSH1 0x1 ADD SWAP1 DUP1 DUP4 GT PUSH2 0x4C79 JUMPI JUMPDEST POP POP POP POP POP DUP2 MSTORE PUSH1 0x20 ADD PUSH1 0x9 DUP3 ADD DUP1 SLOAD DUP1 PUSH1 0x20 MUL PUSH1 0x20 ADD PUSH1 0x40 MLOAD SWAP1 DUP2 ADD PUSH1 0x40 MSTORE DUP1 SWAP3 SWAP2 SWAP1 DUP2 DUP2 MSTORE PUSH1 0x20 ADD DUP3 DUP1 SLOAD DUP1 ISZERO PUSH2 0x4CE5 JUMPI PUSH1 0x20 MUL DUP3 ADD SWAP2 SWAP1 PUSH1 0x0 MSTORE PUSH1 0x20 PUSH1 0x0 KECCAK256 SWAP1 JUMPDEST DUP2 SLOAD DUP2 MSTORE PUSH1 0x20 ADD SWAP1 PUSH1 0x1 ADD SWAP1 DUP1 DUP4 GT PUSH2 0x4CD1 JUMPI JUMPDEST POP POP POP SWAP2 DUP4 MSTORE POP POP PUSH1 0xA SWAP2 SWAP1 SWAP2 ADD SLOAD PUSH1 0xFF AND ISZERO ISZERO PUSH1 0x20 SWAP1 SWAP2 ADD MSTORE PUSH1 0xC0 DUP2 ADD MLOAD SWAP1 SWAP2 POP DUP5 LT ISZERO PUSH2 0x4D16 JUMPI DUP1 PUSH1 0xC0 ADD MLOAD SWAP4 POP JUMPDEST PUSH1 0xC0 DUP2 ADD MLOAD PUSH2 0x4D25 SWAP1 DUP5 PUSH2 0x5AD2 JUMP JUMPDEST SWAP3 POP POP DUP1 DUP1 PUSH2 0x4D33 SWAP1 PUSH2 0x5D63 JUMP JUMPDEST SWAP2 POP POP PUSH2 0x4A44 JUMP JUMPDEST POP DUP4 DUP3 LT ISZERO DUP1 ISZERO PUSH2 0x4D55 JUMPI POP DUP4 PUSH2 0x4D52 DUP4 DUP4 PUSH2 0x5D84 JUMP JUMPDEST LT ISZERO JUMPDEST ISZERO PUSH2 0x4D5F JUMPI PUSH1 0x1 SWAP3 POP JUMPDEST POP POP SWAP3 SWAP2 POP POP JUMP JUMPDEST PUSH1 0x0 PUSH8 0xDE0B6B3A7640000 DUP3 PUSH1 0x1 PUSH1 0x1 PUSH1 0xA0 SHL SUB AND PUSH4 0x313CE567 PUSH1 0x40 MLOAD DUP2 PUSH4 0xFFFFFFFF AND PUSH1 0xE0 SHL DUP2 MSTORE PUSH1 0x4 ADD PUSH1 0x20 PUSH1 0x40 MLOAD DUP1 DUP4 SUB DUP2 DUP7 GAS STATICCALL ISZERO DUP1 ISZERO PUSH2 0x4DB0 JUMPI RETURNDATASIZE PUSH1 0x0 DUP1 RETURNDATACOPY RETURNDATASIZE PUSH1 0x0 REVERT JUMPDEST POP POP POP POP PUSH1 0x40 MLOAD RETURNDATASIZE PUSH1 0x1F NOT PUSH1 0x1F DUP3 ADD AND DUP3 ADD DUP1 PUSH1 0x40 MSTORE POP DUP2 ADD SWAP1 PUSH2 0x4DD4 SWAP2 SWAP1 PUSH2 0x5DCD JUMP JUMPDEST PUSH2 0x4DDF SWAP1 PUSH1 0xA PUSH2 0x5F30 JUMP JUMPDEST PUSH2 0x4DE9 SWAP1 DUP6 PUSH2 0x5B29 JUMP JUMPDEST PUSH2 0x1445 SWAP2 SWAP1 PUSH2 0x5D30 JUMP JUMPDEST PUSH1 0x1 PUSH1 0x1 PUSH1 0xA0 SHL SUB DUP2 AND EXTCODESIZE PUSH2 0x4E60 JUMPI PUSH1 0x40 MLOAD PUSH3 0x461BCD PUSH1 0xE5 SHL DUP2 MSTORE PUSH1 0x20 PUSH1 0x4 DUP3 ADD MSTORE PUSH1 0x2D PUSH1 0x24 DUP3 ADD MSTORE PUSH32 0x455243313936373A206E657720696D706C656D656E746174696F6E206973206E PUSH1 0x44 DUP3 ADD MSTORE PUSH13 0x1BDD08184818DBDB9D1C9858DD PUSH1 0x9A SHL PUSH1 0x64 DUP3 ADD MSTORE PUSH1 0x84 ADD PUSH2 0xA98 JUMP JUMPDEST PUSH1 0x0 DUP1 MLOAD PUSH1 0x20 PUSH2 0x5F6C DUP4 CODECOPY DUP2 MLOAD SWAP2 MSTORE DUP1 SLOAD PUSH1 0x1 PUSH1 0x1 PUSH1 0xA0 SHL SUB NOT AND PUSH1 0x1 PUSH1 0x1 PUSH1 0xA0 SHL SUB SWAP3 SWAP1 SWAP3 AND SWAP2 SWAP1 SWAP2 OR SWAP1 SSTORE JUMP JUMPDEST PUSH2 0x4E98 DUP4 PUSH2 0x4F17 JUMP JUMPDEST PUSH1 0x0 DUP3 MLOAD GT DUP1 PUSH2 0x4EA5 JUMPI POP DUP1 JUMPDEST ISZERO PUSH2 0x1763 JUMPI PUSH2 0x952 DUP4 DUP4 PUSH2 0x4F57 JUMP JUMPDEST PUSH1 0x0 SLOAD PUSH2 0x100 SWAP1 DIV PUSH1 0xFF AND PUSH2 0x4EDB JUMPI PUSH1 0x40 MLOAD PUSH3 0x461BCD PUSH1 0xE5 SHL DUP2 MSTORE PUSH1 0x4 ADD PUSH2 0xA98 SWAP1 PUSH2 0x5DE6 JUMP JUMPDEST PUSH1 0x33 DUP1 SLOAD PUSH1 0xFF NOT AND SWAP1 SSTORE JUMP JUMPDEST PUSH1 0x0 SLOAD PUSH2 0x100 SWAP1 DIV PUSH1 0xFF AND PUSH2 0x4F0E JUMPI PUSH1 0x40 MLOAD PUSH3 0x461BCD PUSH1 0xE5 SHL DUP2 MSTORE PUSH1 0x4 ADD PUSH2 0xA98 SWAP1 PUSH2 0x5DE6 JUMP JUMPDEST PUSH2 0x1DCF CALLER PUSH2 0x4448 JUMP JUMPDEST PUSH2 0x4F20 DUP2 PUSH2 0x4DF3 JUMP JUMPDEST PUSH1 0x40 MLOAD PUSH1 0x1 PUSH1 0x1 PUSH1 0xA0 SHL SUB DUP3 AND SWAP1 PUSH32 0xBC7CD75A20EE27FD9ADEBAB32041F755214DBC6BFFA90CC0225B39DA2E5C2D3B SWAP1 PUSH1 0x0 SWAP1 LOG2 POP JUMP JUMPDEST PUSH1 0x60 PUSH1 0x1 PUSH1 0x1 PUSH1 0xA0 SHL SUB DUP4 AND EXTCODESIZE PUSH2 0x4FBF JUMPI PUSH1 0x40 MLOAD PUSH3 0x461BCD PUSH1 0xE5 SHL DUP2 MSTORE PUSH1 0x20 PUSH1 0x4 DUP3 ADD MSTORE PUSH1 0x26 PUSH1 0x24 DUP3 ADD MSTORE PUSH32 0x416464726573733A2064656C65676174652063616C6C20746F206E6F6E2D636F PUSH1 0x44 DUP3 ADD MSTORE PUSH6 0x1B9D1C9858DD PUSH1 0xD2 SHL PUSH1 0x64 DUP3 ADD MSTORE PUSH1 0x84 ADD PUSH2 0xA98 JUMP JUMPDEST PUSH1 0x0 DUP1 DUP5 PUSH1 0x1 PUSH1 0x1 PUSH1 0xA0 SHL SUB AND DUP5 PUSH1 0x40 MLOAD PUSH2 0x4FDA SWAP2 SWAP1 PUSH2 0x5F3C JUMP JUMPDEST PUSH1 0x0 PUSH1 0x40 MLOAD DUP1 DUP4 SUB DUP2 DUP6 GAS DELEGATECALL SWAP2 POP POP RETURNDATASIZE DUP1 PUSH1 0x0 DUP2 EQ PUSH2 0x5015 JUMPI PUSH1 0x40 MLOAD SWAP2 POP PUSH1 0x1F NOT PUSH1 0x3F RETURNDATASIZE ADD AND DUP3 ADD PUSH1 0x40 MSTORE RETURNDATASIZE DUP3 MSTORE RETURNDATASIZE PUSH1 0x0 PUSH1 0x20 DUP5 ADD RETURNDATACOPY PUSH2 0x501A JUMP JUMPDEST PUSH1 0x60 SWAP2 POP JUMPDEST POP SWAP2 POP SWAP2 POP PUSH2 0x5042 DUP3 DUP3 PUSH1 0x40 MLOAD DUP1 PUSH1 0x60 ADD PUSH1 0x40 MSTORE DUP1 PUSH1 0x27 DUP2 MSTORE PUSH1 0x20 ADD PUSH2 0x5F8C PUSH1 0x27 SWAP2 CODECOPY PUSH2 0x504B JUMP JUMPDEST SWAP6 SWAP5 POP POP POP POP POP JUMP JUMPDEST PUSH1 0x60 DUP4 ISZERO PUSH2 0x505A JUMPI POP DUP2 PUSH2 0x1445 JUMP JUMPDEST PUSH2 0x1445 DUP4 DUP4 DUP2 MLOAD ISZERO PUSH2 0x506F JUMPI DUP2 MLOAD DUP1 DUP4 PUSH1 0x20 ADD REVERT JUMPDEST DUP1 PUSH1 0x40 MLOAD PUSH3 0x461BCD PUSH1 0xE5 SHL DUP2 MSTORE PUSH1 0x4 ADD PUSH2 0xA98 SWAP2 SWAP1 PUSH2 0x5F58 JUMP JUMPDEST DUP3 DUP1 SLOAD DUP3 DUP3 SSTORE SWAP1 PUSH1 0x0 MSTORE PUSH1 0x20 PUSH1 0x0 KECCAK256 SWAP1 DUP2 ADD SWAP3 DUP3 ISZERO PUSH2 0x50C9 JUMPI SWAP2 PUSH1 0x20 MUL DUP3 ADD JUMPDEST DUP3 DUP2 GT ISZERO PUSH2 0x50C9 JUMPI DUP3 MLOAD DUP3 SWAP1 PUSH1 0xFF AND SWAP1 SSTORE SWAP2 PUSH1 0x20 ADD SWAP2 SWAP1 PUSH1 0x1 ADD SWAP1 PUSH2 0x50A9 JUMP JUMPDEST POP PUSH2 0x50D5 SWAP3 SWAP2 POP PUSH2 0x50D9 JUMP JUMPDEST POP SWAP1 JUMP JUMPDEST JUMPDEST DUP1 DUP3 GT ISZERO PUSH2 0x50D5 JUMPI PUSH1 0x0 DUP2 SSTORE PUSH1 0x1 ADD PUSH2 0x50DA JUMP JUMPDEST PUSH1 0x1 PUSH1 0x1 PUSH1 0xA0 SHL SUB DUP2 AND DUP2 EQ PUSH2 0x1BFE JUMPI PUSH1 0x0 DUP1 REVERT JUMPDEST PUSH1 0x0 PUSH1 0x20 DUP3 DUP5 SUB SLT ISZERO PUSH2 0x5115 JUMPI PUSH1 0x0 DUP1 REVERT JUMPDEST DUP2 CALLDATALOAD PUSH2 0x1445 DUP2 PUSH2 0x50EE JUMP JUMPDEST DUP1 CALLDATALOAD PUSH2 0xFFFF DUP2 AND DUP2 EQ PUSH2 0x42CB JUMPI PUSH1 0x0 DUP1 REVERT JUMPDEST PUSH1 0x0 PUSH1 0x20 DUP3 DUP5 SUB SLT ISZERO PUSH2 0x5144 JUMPI PUSH1 0x0 DUP1 REVERT JUMPDEST PUSH2 0x1445 DUP3 PUSH2 0x5120 JUMP JUMPDEST PUSH1 0x0 DUP1 PUSH1 0x0 PUSH1 0x60 DUP5 DUP7 SUB SLT ISZERO PUSH2 0x5162 JUMPI PUSH1 0x0 DUP1 REVERT JUMPDEST DUP4 CALLDATALOAD PUSH2 0x516D DUP2 PUSH2 0x50EE JUMP JUMPDEST SWAP3 POP PUSH1 0x20 DUP5 ADD CALLDATALOAD PUSH2 0x517D DUP2 PUSH2 0x50EE JUMP JUMPDEST SWAP3 SWAP6 SWAP3 SWAP5 POP POP POP PUSH1 0x40 SWAP2 SWAP1 SWAP2 ADD CALLDATALOAD SWAP1 JUMP JUMPDEST PUSH1 0x0 DUP1 PUSH1 0x0 PUSH1 0x60 DUP5 DUP7 SUB SLT ISZERO PUSH2 0x51A3 JUMPI PUSH1 0x0 DUP1 REVERT JUMPDEST DUP4 CALLDATALOAD SWAP3 POP PUSH1 0x20 DUP5 ADD CALLDATALOAD PUSH2 0x51B5 DUP2 PUSH2 0x50EE JUMP JUMPDEST SWAP2 POP PUSH1 0x40 DUP5 ADD CALLDATALOAD PUSH2 0x51C5 DUP2 PUSH2 0x50EE JUMP JUMPDEST DUP1 SWAP2 POP POP SWAP3 POP SWAP3 POP SWAP3 JUMP JUMPDEST PUSH4 0x4E487B71 PUSH1 0xE0 SHL PUSH1 0x0 MSTORE PUSH1 0x41 PUSH1 0x4 MSTORE PUSH1 0x24 PUSH1 0x0 REVERT JUMPDEST PUSH1 0x40 MLOAD PUSH1 0x1F DUP3 ADD PUSH1 0x1F NOT AND DUP2 ADD PUSH8 0xFFFFFFFFFFFFFFFF DUP2 GT DUP3 DUP3 LT OR ISZERO PUSH2 0x520F JUMPI PUSH2 0x520F PUSH2 0x51D0 JUMP JUMPDEST PUSH1 0x40 MSTORE SWAP2 SWAP1 POP JUMP JUMPDEST PUSH1 0x0 PUSH8 0xFFFFFFFFFFFFFFFF DUP3 GT ISZERO PUSH2 0x5231 JUMPI PUSH2 0x5231 PUSH2 0x51D0 JUMP JUMPDEST POP PUSH1 0x5 SHL PUSH1 0x20 ADD SWAP1 JUMP JUMPDEST DUP1 CALLDATALOAD PUSH1 0xFF DUP2 AND DUP2 EQ PUSH2 0x42CB JUMPI PUSH1 0x0 DUP1 REVERT JUMPDEST PUSH1 0x0 DUP3 PUSH1 0x1F DUP4 ADD SLT PUSH2 0x525D JUMPI PUSH1 0x0 DUP1 REVERT JUMPDEST DUP2 CALLDATALOAD PUSH1 0x20 PUSH2 0x5272 PUSH2 0x526D DUP4 PUSH2 0x5217 JUMP JUMPDEST PUSH2 0x51E6 JUMP JUMPDEST DUP3 DUP2 MSTORE PUSH1 0x5 SWAP3 SWAP1 SWAP3 SHL DUP5 ADD DUP2 ADD SWAP2 DUP2 DUP2 ADD SWAP1 DUP7 DUP5 GT ISZERO PUSH2 0x5291 JUMPI PUSH1 0x0 DUP1 REVERT JUMPDEST DUP3 DUP7 ADD JUMPDEST DUP5 DUP2 LT ISZERO PUSH2 0x52B3 JUMPI PUSH2 0x52A6 DUP2 PUSH2 0x523B JUMP JUMPDEST DUP4 MSTORE SWAP2 DUP4 ADD SWAP2 DUP4 ADD PUSH2 0x5295 JUMP JUMPDEST POP SWAP7 SWAP6 POP POP POP POP POP POP JUMP JUMPDEST PUSH1 0x0 DUP3 PUSH1 0x1F DUP4 ADD SLT PUSH2 0x52CF JUMPI PUSH1 0x0 DUP1 REVERT JUMPDEST DUP2 CALLDATALOAD PUSH1 0x20 PUSH2 0x52DF PUSH2 0x526D DUP4 PUSH2 0x5217 JUMP JUMPDEST DUP3 DUP2 MSTORE PUSH1 0x5 SWAP3 SWAP1 SWAP3 SHL DUP5 ADD DUP2 ADD SWAP2 DUP2 DUP2 ADD SWAP1 DUP7 DUP5 GT ISZERO PUSH2 0x52FE JUMPI PUSH1 0x0 DUP1 REVERT JUMPDEST DUP3 DUP7 ADD JUMPDEST DUP5 DUP2 LT ISZERO PUSH2 0x52B3 JUMPI DUP1 CALLDATALOAD DUP4 MSTORE SWAP2 DUP4 ADD SWAP2 DUP4 ADD PUSH2 0x5302 JUMP JUMPDEST PUSH1 0x0 PUSH8 0xFFFFFFFFFFFFFFFF DUP4 GT ISZERO PUSH2 0x5333 JUMPI PUSH2 0x5333 PUSH2 0x51D0 JUMP JUMPDEST PUSH2 0x5346 PUSH1 0x1F DUP5 ADD PUSH1 0x1F NOT AND PUSH1 0x20 ADD PUSH2 0x51E6 JUMP JUMPDEST SWAP1 POP DUP3 DUP2 MSTORE DUP4 DUP4 DUP4 ADD GT ISZERO PUSH2 0x535A JUMPI PUSH1 0x0 DUP1 REVERT JUMPDEST DUP3 DUP3 PUSH1 0x20 DUP4 ADD CALLDATACOPY PUSH1 0x0 PUSH1 0x20 DUP5 DUP4 ADD ADD MSTORE SWAP4 SWAP3 POP POP POP JUMP JUMPDEST PUSH1 0x0 DUP3 PUSH1 0x1F DUP4 ADD SLT PUSH2 0x5382 JUMPI PUSH1 0x0 DUP1 REVERT JUMPDEST DUP2 CALLDATALOAD PUSH1 0x20 PUSH2 0x5392 PUSH2 0x526D DUP4 PUSH2 0x5217 JUMP JUMPDEST DUP3 DUP2 MSTORE PUSH1 0x5 SWAP3 SWAP1 SWAP3 SHL DUP5 ADD DUP2 ADD SWAP2 DUP2 DUP2 ADD SWAP1 DUP7 DUP5 GT ISZERO PUSH2 0x53B1 JUMPI PUSH1 0x0 DUP1 REVERT JUMPDEST DUP3 DUP7 ADD JUMPDEST DUP5 DUP2 LT ISZERO PUSH2 0x52B3 JUMPI DUP1 CALLDATALOAD PUSH8 0xFFFFFFFFFFFFFFFF DUP2 GT ISZERO PUSH2 0x53D5 JUMPI PUSH1 0x0 DUP1 DUP2 REVERT JUMPDEST DUP8 ADD PUSH1 0x3F DUP2 ADD DUP10 SGT PUSH2 0x53E7 JUMPI PUSH1 0x0 DUP1 DUP2 REVERT JUMPDEST PUSH2 0x53F8 DUP10 DUP7 DUP4 ADD CALLDATALOAD PUSH1 0x40 DUP5 ADD PUSH2 0x5319 JUMP JUMPDEST DUP5 MSTORE POP SWAP2 DUP4 ADD SWAP2 DUP4 ADD PUSH2 0x53B5 JUMP JUMPDEST PUSH1 0x0 DUP1 PUSH1 0x0 DUP1 PUSH1 0x0 DUP1 PUSH1 0x0 PUSH1 0xE0 DUP9 DUP11 SUB SLT ISZERO PUSH2 0x5421 JUMPI PUSH1 0x0 DUP1 REVERT JUMPDEST DUP8 CALLDATALOAD PUSH8 0xFFFFFFFFFFFFFFFF DUP1 DUP3 GT ISZERO PUSH2 0x5439 JUMPI PUSH1 0x0 DUP1 REVERT JUMPDEST PUSH2 0x5445 DUP12 DUP4 DUP13 ADD PUSH2 0x524C JUMP JUMPDEST SWAP9 POP PUSH1 0x20 DUP11 ADD CALLDATALOAD SWAP2 POP DUP1 DUP3 GT ISZERO PUSH2 0x545B JUMPI PUSH1 0x0 DUP1 REVERT JUMPDEST PUSH2 0x5467 DUP12 DUP4 DUP13 ADD PUSH2 0x52BE JUMP JUMPDEST SWAP8 POP PUSH1 0x40 DUP11 ADD CALLDATALOAD SWAP2 POP DUP1 DUP3 GT ISZERO PUSH2 0x547D JUMPI PUSH1 0x0 DUP1 REVERT JUMPDEST PUSH2 0x5489 DUP12 DUP4 DUP13 ADD PUSH2 0x52BE JUMP JUMPDEST SWAP7 POP PUSH1 0x60 DUP11 ADD CALLDATALOAD SWAP2 POP DUP1 DUP3 GT ISZERO PUSH2 0x549F JUMPI PUSH1 0x0 DUP1 REVERT JUMPDEST PUSH2 0x54AB DUP12 DUP4 DUP13 ADD PUSH2 0x52BE JUMP JUMPDEST SWAP6 POP PUSH1 0x80 DUP11 ADD CALLDATALOAD SWAP2 POP DUP1 DUP3 GT ISZERO PUSH2 0x54C1 JUMPI PUSH1 0x0 DUP1 REVERT JUMPDEST PUSH2 0x54CD DUP12 DUP4 DUP13 ADD PUSH2 0x5371 JUMP JUMPDEST SWAP5 POP PUSH1 0xA0 DUP11 ADD CALLDATALOAD SWAP2 POP DUP1 DUP3 GT ISZERO PUSH2 0x54E3 JUMPI PUSH1 0x0 DUP1 REVERT JUMPDEST PUSH2 0x54EF DUP12 DUP4 DUP13 ADD PUSH2 0x5371 JUMP JUMPDEST SWAP4 POP PUSH1 0xC0 DUP11 ADD CALLDATALOAD SWAP2 POP DUP1 DUP3 GT ISZERO PUSH2 0x5505 JUMPI PUSH1 0x0 DUP1 REVERT JUMPDEST POP PUSH2 0x5512 DUP11 DUP3 DUP12 ADD PUSH2 0x52BE JUMP JUMPDEST SWAP2 POP POP SWAP3 SWAP6 SWAP9 SWAP2 SWAP5 SWAP8 POP SWAP3 SWAP6 POP JUMP JUMPDEST PUSH1 0x0 DUP1 PUSH1 0x40 DUP4 DUP6 SUB SLT ISZERO PUSH2 0x5534 JUMPI PUSH1 0x0 DUP1 REVERT JUMPDEST DUP3 CALLDATALOAD PUSH2 0x553F DUP2 PUSH2 0x50EE JUMP JUMPDEST SWAP2 POP PUSH1 0x20 DUP4 ADD CALLDATALOAD PUSH2 0x554F DUP2 PUSH2 0x50EE JUMP JUMPDEST DUP1 SWAP2 POP POP SWAP3 POP SWAP3 SWAP1 POP JUMP JUMPDEST PUSH1 0x0 DUP1 PUSH1 0x40 DUP4 DUP6 SUB SLT ISZERO PUSH2 0x556D JUMPI PUSH1 0x0 DUP1 REVERT JUMPDEST DUP3 CALLDATALOAD PUSH2 0x5578 DUP2 PUSH2 0x50EE JUMP JUMPDEST SWAP2 POP PUSH1 0x20 DUP4 ADD CALLDATALOAD PUSH8 0xFFFFFFFFFFFFFFFF DUP2 GT ISZERO PUSH2 0x5594 JUMPI PUSH1 0x0 DUP1 REVERT JUMPDEST DUP4 ADD PUSH1 0x1F DUP2 ADD DUP6 SGT PUSH2 0x55A5 JUMPI PUSH1 0x0 DUP1 REVERT JUMPDEST PUSH2 0x55B4 DUP6 DUP3 CALLDATALOAD PUSH1 0x20 DUP5 ADD PUSH2 0x5319 JUMP JUMPDEST SWAP2 POP POP SWAP3 POP SWAP3 SWAP1 POP JUMP JUMPDEST PUSH1 0x0 PUSH1 0x20 DUP3 DUP5 SUB SLT ISZERO PUSH2 0x55D0 JUMPI PUSH1 0x0 DUP1 REVERT JUMPDEST POP CALLDATALOAD SWAP2 SWAP1 POP JUMP JUMPDEST PUSH1 0x0 DUP1 PUSH1 0x40 DUP4 DUP6 SUB SLT ISZERO PUSH2 0x55EA JUMPI PUSH1 0x0 DUP1 REVERT JUMPDEST DUP3 CALLDATALOAD PUSH2 0x55F5 DUP2 PUSH2 0x50EE JUMP JUMPDEST SWAP2 POP PUSH2 0x5603 PUSH1 0x20 DUP5 ADD PUSH2 0x523B JUMP JUMPDEST SWAP1 POP SWAP3 POP SWAP3 SWAP1 POP JUMP JUMPDEST PUSH1 0x0 DUP1 PUSH1 0x40 DUP4 DUP6 SUB SLT ISZERO PUSH2 0x561F JUMPI PUSH1 0x0 DUP1 REVERT JUMPDEST DUP3 CALLDATALOAD PUSH2 0x562A DUP2 PUSH2 0x50EE JUMP JUMPDEST SWAP5 PUSH1 0x20 SWAP4 SWAP1 SWAP4 ADD CALLDATALOAD SWAP4 POP POP POP JUMP JUMPDEST PUSH1 0x20 DUP1 DUP3 MSTORE DUP3 MLOAD PUSH1 0x1 PUSH1 0x1 PUSH1 0xA0 SHL SUB AND DUP3 DUP3 ADD MSTORE DUP3 DUP2 ADD MLOAD PUSH1 0x60 PUSH1 0x40 DUP5 ADD MSTORE DUP1 MLOAD PUSH1 0x80 DUP5 ADD DUP2 SWAP1 MSTORE PUSH1 0x0 SWAP3 SWAP2 DUP3 ADD SWAP1 DUP4 SWAP1 PUSH1 0xA0 DUP7 ADD SWAP1 JUMPDEST DUP1 DUP4 LT ISZERO PUSH2 0x5692 JUMPI DUP4 MLOAD PUSH1 0xFF AND DUP3 MSTORE SWAP3 DUP5 ADD SWAP3 PUSH1 0x1 SWAP3 SWAP1 SWAP3 ADD SWAP2 SWAP1 DUP5 ADD SWAP1 PUSH2 0x566F JUMP JUMPDEST POP PUSH1 0xFF PUSH1 0x40 DUP9 ADD MLOAD AND PUSH1 0x60 DUP8 ADD MSTORE DUP1 SWAP5 POP POP POP POP POP SWAP3 SWAP2 POP POP JUMP JUMPDEST PUSH1 0x0 DUP1 PUSH1 0x20 DUP4 DUP6 SUB SLT ISZERO PUSH2 0x56C0 JUMPI PUSH1 0x0 DUP1 REVERT JUMPDEST DUP3 CALLDATALOAD PUSH8 0xFFFFFFFFFFFFFFFF DUP1 DUP3 GT ISZERO PUSH2 0x56D8 JUMPI PUSH1 0x0 DUP1 REVERT JUMPDEST DUP2 DUP6 ADD SWAP2 POP DUP6 PUSH1 0x1F DUP4 ADD SLT PUSH2 0x56EC JUMPI PUSH1 0x0 DUP1 REVERT JUMPDEST DUP2 CALLDATALOAD DUP2 DUP2 GT ISZERO PUSH2 0x56FB JUMPI PUSH1 0x0 DUP1 REVERT JUMPDEST DUP7 PUSH1 0x20 DUP3 PUSH1 0x5 SHL DUP6 ADD ADD GT ISZERO PUSH2 0x5710 JUMPI PUSH1 0x0 DUP1 REVERT JUMPDEST PUSH1 0x20 SWAP3 SWAP1 SWAP3 ADD SWAP7 SWAP2 SWAP6 POP SWAP1 SWAP4 POP POP POP POP JUMP JUMPDEST PUSH1 0x0 DUP1 PUSH1 0x40 DUP4 DUP6 SUB SLT ISZERO PUSH2 0x5735 JUMPI PUSH1 0x0 DUP1 REVERT JUMPDEST POP POP DUP1 CALLDATALOAD SWAP3 PUSH1 0x20 SWAP1 SWAP2 ADD CALLDATALOAD SWAP2 POP JUMP JUMPDEST PUSH1 0x0 PUSH1 0x20 DUP3 DUP5 SUB SLT ISZERO PUSH2 0x5756 JUMPI PUSH1 0x0 DUP1 REVERT JUMPDEST PUSH2 0x1445 DUP3 PUSH2 0x523B JUMP JUMPDEST PUSH1 0x0 JUMPDEST DUP4 DUP2 LT ISZERO PUSH2 0x577A JUMPI DUP2 DUP2 ADD MLOAD DUP4 DUP3 ADD MSTORE PUSH1 0x20 ADD PUSH2 0x5762 JUMP JUMPDEST POP POP PUSH1 0x0 SWAP2 ADD MSTORE JUMP JUMPDEST PUSH1 0x0 DUP2 MLOAD DUP1 DUP5 MSTORE PUSH2 0x579B DUP2 PUSH1 0x20 DUP7 ADD PUSH1 0x20 DUP7 ADD PUSH2 0x575F JUMP JUMPDEST PUSH1 0x1F ADD PUSH1 0x1F NOT AND SWAP3 SWAP1 SWAP3 ADD PUSH1 0x20 ADD SWAP3 SWAP2 POP POP JUMP JUMPDEST PUSH1 0xFF DUP9 AND DUP2 MSTORE DUP7 PUSH1 0x20 DUP3 ADD MSTORE DUP6 PUSH1 0x40 DUP3 ADD MSTORE DUP5 PUSH1 0x60 DUP3 ADD MSTORE PUSH1 0xE0 PUSH1 0x80 DUP3 ADD MSTORE PUSH1 0x0 PUSH2 0x57DD PUSH1 0xE0 DUP4 ADD DUP7 PUSH2 0x5783 JUMP JUMPDEST DUP3 DUP2 SUB PUSH1 0xA0 DUP5 ADD MSTORE PUSH2 0x57EF DUP2 DUP7 PUSH2 0x5783 JUMP JUMPDEST SWAP2 POP POP DUP3 PUSH1 0xC0 DUP4 ADD MSTORE SWAP9 SWAP8 POP POP POP POP POP POP POP POP JUMP JUMPDEST PUSH1 0x0 DUP1 PUSH1 0x0 PUSH1 0x60 DUP5 DUP7 SUB SLT ISZERO PUSH2 0x5819 JUMPI PUSH1 0x0 DUP1 REVERT JUMPDEST PUSH2 0x5822 DUP5 PUSH2 0x523B JUMP JUMPDEST SWAP3 POP PUSH2 0x5830 PUSH1 0x20 DUP6 ADD PUSH2 0x5120 JUMP JUMPDEST SWAP2 POP PUSH2 0x583E PUSH1 0x40 DUP6 ADD PUSH2 0x5120 JUMP JUMPDEST SWAP1 POP SWAP3 POP SWAP3 POP SWAP3 JUMP JUMPDEST PUSH1 0x0 DUP2 MLOAD DUP1 DUP5 MSTORE PUSH1 0x20 DUP1 DUP6 ADD SWAP5 POP DUP1 DUP5 ADD PUSH1 0x0 JUMPDEST DUP4 DUP2 LT ISZERO PUSH2 0x5880 JUMPI DUP2 MLOAD PUSH1 0x1 PUSH1 0x1 PUSH1 0xA0 SHL SUB AND DUP8 MSTORE SWAP6 DUP3 ADD SWAP6 SWAP1 DUP3 ADD SWAP1 PUSH1 0x1 ADD PUSH2 0x585B JUMP JUMPDEST POP SWAP5 SWAP6 SWAP5 POP POP POP POP POP JUMP JUMPDEST PUSH1 0x40 DUP2 MSTORE PUSH1 0x0 PUSH2 0x589E PUSH1 0x40 DUP4 ADD DUP6 PUSH2 0x5847 JUMP JUMPDEST SWAP1 POP PUSH2 0xFFFF DUP4 AND PUSH1 0x20 DUP4 ADD MSTORE SWAP4 SWAP3 POP POP POP JUMP JUMPDEST PUSH1 0x80 DUP2 MSTORE PUSH1 0x0 PUSH2 0x58C4 PUSH1 0x80 DUP4 ADD DUP8 PUSH2 0x5847 JUMP JUMPDEST DUP6 PUSH1 0x20 DUP5 ADD MSTORE DUP3 DUP2 SUB PUSH1 0x40 DUP5 ADD MSTORE PUSH2 0x58DC DUP2 DUP7 PUSH2 0x5847 JUMP JUMPDEST SWAP2 POP POP DUP3 PUSH1 0x60 DUP4 ADD MSTORE SWAP6 SWAP5 POP POP POP POP POP JUMP JUMPDEST PUSH1 0x0 DUP2 MLOAD DUP1 DUP5 MSTORE PUSH1 0x20 DUP1 DUP6 ADD SWAP5 POP DUP1 DUP5 ADD PUSH1 0x0 JUMPDEST DUP4 DUP2 LT ISZERO PUSH2 0x5880 JUMPI DUP2 MLOAD DUP8 MSTORE SWAP6 DUP3 ADD SWAP6 SWAP1 DUP3 ADD SWAP1 PUSH1 0x1 ADD PUSH2 0x5902 JUMP JUMPDEST PUSH1 0x20 DUP2 MSTORE PUSH2 0x5938 PUSH1 0x20 DUP3 ADD DUP4 MLOAD PUSH1 0x1 PUSH1 0x1 PUSH1 0xA0 SHL SUB AND SWAP1 MSTORE JUMP JUMPDEST PUSH1 0x0 PUSH1 0x20 DUP4 ADD MLOAD PUSH2 0x160 DUP1 PUSH1 0x40 DUP6 ADD MSTORE PUSH2 0x5956 PUSH2 0x180 DUP6 ADD DUP4 PUSH2 0x5847 JUMP JUMPDEST SWAP2 POP PUSH1 0x40 DUP6 ADD MLOAD PUSH1 0x1F NOT DUP1 DUP7 DUP6 SUB ADD PUSH1 0x60 DUP8 ADD MSTORE PUSH2 0x5974 DUP5 DUP4 PUSH2 0x5847 JUMP JUMPDEST SWAP4 POP PUSH1 0x60 DUP8 ADD MLOAD SWAP2 POP DUP1 DUP7 DUP6 SUB ADD PUSH1 0x80 DUP8 ADD MSTORE PUSH2 0x5991 DUP5 DUP4 PUSH2 0x58EE JUMP JUMPDEST SWAP4 POP PUSH1 0x80 DUP8 ADD MLOAD PUSH1 0xA0 DUP8 ADD MSTORE PUSH1 0xA0 DUP8 ADD MLOAD PUSH1 0xC0 DUP8 ADD MSTORE PUSH1 0xC0 DUP8 ADD MLOAD PUSH1 0xE0 DUP8 ADD MSTORE PUSH1 0xE0 DUP8 ADD MLOAD SWAP2 POP PUSH2 0x100 DUP2 DUP8 DUP7 SUB ADD DUP2 DUP9 ADD MSTORE PUSH2 0x59CE DUP6 DUP5 PUSH2 0x58EE JUMP JUMPDEST SWAP5 POP DUP1 DUP9 ADD MLOAD SWAP3 POP POP PUSH2 0x120 DUP2 DUP8 DUP7 SUB ADD DUP2 DUP9 ADD MSTORE PUSH2 0x59ED DUP6 DUP5 PUSH2 0x58EE JUMP JUMPDEST SWAP5 POP DUP1 DUP9 ADD MLOAD SWAP3 POP POP PUSH2 0x140 DUP2 DUP8 DUP7 SUB ADD DUP2 DUP9 ADD MSTORE PUSH2 0x5A0C DUP6 DUP5 PUSH2 0x58EE JUMP JUMPDEST SWAP5 POP DUP1 DUP9 ADD MLOAD SWAP3 POP POP POP PUSH2 0x5A23 DUP3 DUP7 ADD DUP3 ISZERO ISZERO SWAP1 MSTORE JUMP JUMPDEST POP SWAP1 SWAP5 SWAP4 POP POP POP POP JUMP JUMPDEST DUP5 DUP2 MSTORE PUSH1 0x80 PUSH1 0x20 DUP3 ADD MSTORE PUSH1 0x0 PUSH2 0x5A46 PUSH1 0x80 DUP4 ADD DUP7 PUSH2 0x58EE JUMP JUMPDEST PUSH1 0x40 DUP4 ADD SWAP5 SWAP1 SWAP5 MSTORE POP PUSH1 0x1 PUSH1 0x1 PUSH1 0xA0 SHL SUB SWAP2 SWAP1 SWAP2 AND PUSH1 0x60 SWAP1 SWAP2 ADD MSTORE SWAP3 SWAP2 POP POP JUMP JUMPDEST PUSH1 0x0 PUSH1 0x20 DUP3 DUP5 SUB SLT ISZERO PUSH2 0x5A79 JUMPI PUSH1 0x0 DUP1 REVERT JUMPDEST DUP2 MLOAD DUP1 ISZERO ISZERO DUP2 EQ PUSH2 0x1445 JUMPI PUSH1 0x0 DUP1 REVERT JUMPDEST PUSH1 0x0 PUSH1 0x20 DUP3 DUP5 SUB SLT ISZERO PUSH2 0x5A9B JUMPI PUSH1 0x0 DUP1 REVERT JUMPDEST DUP2 MLOAD PUSH2 0x1445 DUP2 PUSH2 0x50EE JUMP JUMPDEST PUSH4 0x4E487B71 PUSH1 0xE0 SHL PUSH1 0x0 MSTORE PUSH1 0x32 PUSH1 0x4 MSTORE PUSH1 0x24 PUSH1 0x0 REVERT JUMPDEST PUSH4 0x4E487B71 PUSH1 0xE0 SHL PUSH1 0x0 MSTORE PUSH1 0x11 PUSH1 0x4 MSTORE PUSH1 0x24 PUSH1 0x0 REVERT JUMPDEST DUP1 DUP3 ADD DUP1 DUP3 GT ISZERO PUSH2 0x979 JUMPI PUSH2 0x979 PUSH2 0x5ABC JUMP JUMPDEST PUSH1 0x0 PUSH1 0x1 DUP3 ADD PUSH2 0x5AF7 JUMPI PUSH2 0x5AF7 PUSH2 0x5ABC JUMP JUMPDEST POP PUSH1 0x1 ADD SWAP1 JUMP JUMPDEST PUSH1 0x20 DUP1 DUP3 MSTORE PUSH1 0x11 SWAP1 DUP3 ADD MSTORE PUSH17 0x2CB7BA9030B932903737BA1030B236B4B7 PUSH1 0x79 SHL PUSH1 0x40 DUP3 ADD MSTORE PUSH1 0x60 ADD SWAP1 JUMP JUMPDEST DUP1 DUP3 MUL DUP2 ISZERO DUP3 DUP3 DIV DUP5 EQ OR PUSH2 0x979 JUMPI PUSH2 0x979 PUSH2 0x5ABC JUMP JUMPDEST PUSH1 0x1 DUP2 DUP2 SHR SWAP1 DUP3 AND DUP1 PUSH2 0x5B54 JUMPI PUSH1 0x7F DUP3 AND SWAP2 POP JUMPDEST PUSH1 0x20 DUP3 LT DUP2 SUB PUSH2 0x42C9 JUMPI PUSH4 0x4E487B71 PUSH1 0xE0 SHL PUSH1 0x0 MSTORE PUSH1 0x22 PUSH1 0x4 MSTORE PUSH1 0x24 PUSH1 0x0 REVERT JUMPDEST PUSH1 0x1F DUP3 GT ISZERO PUSH2 0x1763 JUMPI PUSH1 0x0 DUP2 DUP2 MSTORE PUSH1 0x20 DUP2 KECCAK256 PUSH1 0x1F DUP6 ADD PUSH1 0x5 SHR DUP2 ADD PUSH1 0x20 DUP7 LT ISZERO PUSH2 0x5B9B JUMPI POP DUP1 JUMPDEST PUSH1 0x1F DUP6 ADD PUSH1 0x5 SHR DUP3 ADD SWAP2 POP JUMPDEST DUP2 DUP2 LT ISZERO PUSH2 0x5BBA JUMPI DUP3 DUP2 SSTORE PUSH1 0x1 ADD PUSH2 0x5BA7 JUMP JUMPDEST POP POP POP POP POP POP JUMP JUMPDEST DUP2 MLOAD PUSH8 0xFFFFFFFFFFFFFFFF DUP2 GT ISZERO PUSH2 0x5BDC JUMPI PUSH2 0x5BDC PUSH2 0x51D0 JUMP JUMPDEST PUSH2 0x5BF0 DUP2 PUSH2 0x5BEA DUP5 SLOAD PUSH2 0x5B40 JUMP JUMPDEST DUP5 PUSH2 0x5B74 JUMP JUMPDEST PUSH1 0x20 DUP1 PUSH1 0x1F DUP4 GT PUSH1 0x1 DUP2 EQ PUSH2 0x5C25 JUMPI PUSH1 0x0 DUP5 ISZERO PUSH2 0x5C0D JUMPI POP DUP6 DUP4 ADD MLOAD JUMPDEST PUSH1 0x0 NOT PUSH1 0x3 DUP7 SWAP1 SHL SHR NOT AND PUSH1 0x1 DUP6 SWAP1 SHL OR DUP6 SSTORE PUSH2 0x5BBA JUMP JUMPDEST PUSH1 0x0 DUP6 DUP2 MSTORE PUSH1 0x20 DUP2 KECCAK256 PUSH1 0x1F NOT DUP7 AND SWAP2 JUMPDEST DUP3 DUP2 LT ISZERO PUSH2 0x5C54 JUMPI DUP9 DUP7 ADD MLOAD DUP3 SSTORE SWAP5 DUP5 ADD SWAP5 PUSH1 0x1 SWAP1 SWAP2 ADD SWAP1 DUP5 ADD PUSH2 0x5C35 JUMP JUMPDEST POP DUP6 DUP3 LT ISZERO PUSH2 0x5C72 JUMPI DUP8 DUP6 ADD MLOAD PUSH1 0x0 NOT PUSH1 0x3 DUP9 SWAP1 SHL PUSH1 0xF8 AND SHR NOT AND DUP2 SSTORE JUMPDEST POP POP POP POP POP PUSH1 0x1 SWAP1 DUP2 SHL ADD SWAP1 SSTORE POP JUMP JUMPDEST PUSH1 0x20 DUP1 DUP3 MSTORE PUSH1 0x2C SWAP1 DUP3 ADD MSTORE PUSH32 0x46756E6374696F6E206D7573742062652063616C6C6564207468726F75676820 PUSH1 0x40 DUP3 ADD MSTORE PUSH12 0x19195B1959D85D1958D85B1B PUSH1 0xA2 SHL PUSH1 0x60 DUP3 ADD MSTORE PUSH1 0x80 ADD SWAP1 JUMP JUMPDEST PUSH1 0x20 DUP1 DUP3 MSTORE PUSH1 0x2C SWAP1 DUP3 ADD MSTORE PUSH32 0x46756E6374696F6E206D7573742062652063616C6C6564207468726F75676820 PUSH1 0x40 DUP3 ADD MSTORE PUSH12 0x6163746976652070726F7879 PUSH1 0xA0 SHL PUSH1 0x60 DUP3 ADD MSTORE PUSH1 0x80 ADD SWAP1 JUMP JUMPDEST PUSH4 0x4E487B71 PUSH1 0xE0 SHL PUSH1 0x0 MSTORE PUSH1 0x12 PUSH1 0x4 MSTORE PUSH1 0x24 PUSH1 0x0 REVERT JUMPDEST PUSH1 0x0 DUP3 PUSH2 0x5D3F JUMPI PUSH2 0x5D3F PUSH2 0x5D1A JUMP JUMPDEST POP DIV SWAP1 JUMP JUMPDEST PUSH1 0x0 PUSH1 0xFF DUP3 AND PUSH1 0xFF DUP2 SUB PUSH2 0x5D5A JUMPI PUSH2 0x5D5A PUSH2 0x5ABC JUMP JUMPDEST PUSH1 0x1 ADD SWAP3 SWAP2 POP POP JUMP JUMPDEST PUSH1 0x0 PUSH2 0xFFFF DUP1 DUP4 AND DUP2 DUP2 SUB PUSH2 0x5D7A JUMPI PUSH2 0x5D7A PUSH2 0x5ABC JUMP JUMPDEST PUSH1 0x1 ADD SWAP4 SWAP3 POP POP POP JUMP JUMPDEST DUP2 DUP2 SUB DUP2 DUP2 GT ISZERO PUSH2 0x979 JUMPI PUSH2 0x979 PUSH2 0x5ABC JUMP JUMPDEST PUSH1 0x0 DUP3 PUSH2 0x5DA6 JUMPI PUSH2 0x5DA6 PUSH2 0x5D1A JUMP JUMPDEST POP MOD SWAP1 JUMP JUMPDEST PUSH2 0xFFFF DUP2 DUP2 AND DUP4 DUP3 AND ADD SWAP1 DUP1 DUP3 GT ISZERO PUSH2 0x5DC6 JUMPI PUSH2 0x5DC6 PUSH2 0x5ABC JUMP JUMPDEST POP SWAP3 SWAP2 POP POP JUMP JUMPDEST PUSH1 0x0 PUSH1 0x20 DUP3 DUP5 SUB SLT ISZERO PUSH2 0x5DDF JUMPI PUSH1 0x0 DUP1 REVERT JUMPDEST POP MLOAD SWAP2 SWAP1 POP JUMP JUMPDEST PUSH1 0x20 DUP1 DUP3 MSTORE PUSH1 0x2B SWAP1 DUP3 ADD MSTORE PUSH32 0x496E697469616C697A61626C653A20636F6E7472616374206973206E6F742069 PUSH1 0x40 DUP3 ADD MSTORE PUSH11 0x6E697469616C697A696E67 PUSH1 0xA8 SHL PUSH1 0x60 DUP3 ADD MSTORE PUSH1 0x80 ADD SWAP1 JUMP JUMPDEST PUSH2 0xFFFF DUP3 DUP2 AND DUP3 DUP3 AND SUB SWAP1 DUP1 DUP3 GT ISZERO PUSH2 0x5DC6 JUMPI PUSH2 0x5DC6 PUSH2 0x5ABC JUMP JUMPDEST PUSH1 0x1 DUP2 DUP2 JUMPDEST DUP1 DUP6 GT ISZERO PUSH2 0x5E87 JUMPI DUP2 PUSH1 0x0 NOT DIV DUP3 GT ISZERO PUSH2 0x5E6D JUMPI PUSH2 0x5E6D PUSH2 0x5ABC JUMP JUMPDEST DUP1 DUP6 AND ISZERO PUSH2 0x5E7A JUMPI SWAP2 DUP2 MUL SWAP2 JUMPDEST SWAP4 DUP5 SHR SWAP4 SWAP1 DUP1 MUL SWAP1 PUSH2 0x5E51 JUMP JUMPDEST POP SWAP3 POP SWAP3 SWAP1 POP JUMP JUMPDEST PUSH1 0x0 DUP3 PUSH2 0x5E9E JUMPI POP PUSH1 0x1 PUSH2 0x979 JUMP JUMPDEST DUP2 PUSH2 0x5EAB JUMPI POP PUSH1 0x0 PUSH2 0x979 JUMP JUMPDEST DUP2 PUSH1 0x1 DUP2 EQ PUSH2 0x5EC1 JUMPI PUSH1 0x2 DUP2 EQ PUSH2 0x5ECB JUMPI PUSH2 0x5EE7 JUMP JUMPDEST PUSH1 0x1 SWAP2 POP POP PUSH2 0x979 JUMP JUMPDEST PUSH1 0xFF DUP5 GT ISZERO PUSH2 0x5EDC JUMPI PUSH2 0x5EDC PUSH2 0x5ABC JUMP JUMPDEST POP POP PUSH1 0x1 DUP3 SHL PUSH2 0x979 JUMP JUMPDEST POP PUSH1 0x20 DUP4 LT PUSH2 0x133 DUP4 LT AND PUSH1 0x4E DUP5 LT PUSH1 0xB DUP5 LT AND OR ISZERO PUSH2 0x5F0A JUMPI POP DUP2 DUP2 EXP PUSH2 0x979 JUMP JUMPDEST PUSH2 0x5F14 DUP4 DUP4 PUSH2 0x5E4C JUMP JUMPDEST DUP1 PUSH1 0x0 NOT DIV DUP3 GT ISZERO PUSH2 0x5F28 JUMPI PUSH2 0x5F28 PUSH2 0x5ABC JUMP JUMPDEST MUL SWAP4 SWAP3 POP POP POP JUMP JUMPDEST PUSH1 0x0 PUSH2 0x1445 DUP4 DUP4 PUSH2 0x5E8F JUMP JUMPDEST PUSH1 0x0 DUP3 MLOAD PUSH2 0x5F4E DUP2 DUP5 PUSH1 0x20 DUP8 ADD PUSH2 0x575F JUMP JUMPDEST SWAP2 SWAP1 SWAP2 ADD SWAP3 SWAP2 POP POP JUMP JUMPDEST PUSH1 0x20 DUP2 MSTORE PUSH1 0x0 PUSH2 0x1445 PUSH1 0x20 DUP4 ADD DUP5 PUSH2 0x5783 JUMP INVALID CALLDATASIZE ADDMOD SWAP5 LOG1 EXTCODESIZE LOG1 LOG3 0x21 MOD PUSH8 0xC828492DB98DCA3E KECCAK256 PUSH23 0xCC3735A920A3CA505D382BBC416464726573733A206C6F PUSH24 0x2D6C6576656C2064656C65676174652063616C6C20666169 PUSH13 0x6564A2646970667358221220AF INVALID PUSH3 0x2E74A CALL RETURNDATASIZE SWAP10 0xCE CALLCODE 0x1E SSTORE 0xD0 0xE2 CREATE2 MULMOD 0xBF PUSH24 0xC0314A54E47291CA52DF21999F64736F6C63430008110033 "},"methodIdentifiers":{"addressToId(address)":"cb0e0d7d","changeReferrer(address,address)":"3b38bf72","contractDefaults()":"fb5d4526","getGlobalRefereeLimit()":"71e13ead","getRewardQualifiedUsers(uint8,uint16,uint16)":"dd1ca716","getSelfIncomePoolRefereeLimit()":"0a783ea5","getTeamBusinessToQualifyRewards(address)":"a0760aff","getUserAccount(address)":"fb47e016","getUserReferrerAddress(address)":"43b4ebf4","getUserRewardAccount(address)":"86f6630d","getUserRewardQualified(address)":"e5ffb5df","getUserTeam(address)":"faeda7e5","getUserTopUpForRewards(address)":"25f1c91e","getUserTotalBusiness(address)":"2405091c","getUserTotalRewardPaid(address)":"ef519dc0","getVariablesContract()":"f13a143f","hasReferrer(address)":"18452cd8","idToAddress(uint16)":"025313ff","includeUsersInList(address[])":"8a93f7b9","initialize()":"8129fc1c","is20LevelsBusinessUpdated(address)":"019f157a","owner()":"8da5cb5b","paused()":"5c975abb","payReferralANUSDAdmin(uint256,address,address)":"228159b4","proxiableUUID()":"52d1902d","renounceOwnership()":"715018a6","resetSelfTeamBusiness(address)":"348a7e94","rewardAccount(address)":"2bb5112d","rewards(uint8)":"9b317cc4","setGlobalPushCondition(uint256,uint256)":"91b493e4","setRewards(uint8[],uint256[],uint256[],uint256[],string[],string[],uint256[])":"35166fef","setUserTotalBusiness(address,uint256)":"ccef5587","totalUsers()":"bff1f9e1","transferNative(address,uint256)":"7d2e90c2","transferOwnership(address)":"f2fde38b","updateIfRewardPaidAdmin(address,uint8)":"771aa216","updateUplineTeamLevels20(address)":"89db4eb0","upgradeTo(address)":"3659cfe6","upgradeToAndCall(address,bytes)":"4f1ef286","usersList(uint256)":"502aa3b5","withdrawtokens(address,address,uint256)":"0898adc7"}},"storageLayout":{"storage":[{"astId":527,"contract":"contracts/ReferralUpgradeable.sol:ReferralUpgradeable","label":"_initialized","offset":0,"slot":"0","type":"t_uint8"},{"astId":530,"contract":"contracts/ReferralUpgradeable.sol:ReferralUpgradeable","label":"_initializing","offset":1,"slot":"0","type":"t_bool"},{"astId":1355,"contract":"contracts/ReferralUpgradeable.sol:ReferralUpgradeable","label":"__gap","offset":0,"slot":"1","type":"t_array(t_uint256)50_storage"},{"astId":846,"contract":"contracts/ReferralUpgradeable.sol:ReferralUpgradeable","label":"_paused","offset":0,"slot":"51","type":"t_bool"},{"astId":951,"contract":"contracts/ReferralUpgradeable.sol:ReferralUpgradeable","label":"__gap","offset":0,"slot":"52","type":"t_array(t_uint256)49_storage"},{"astId":10,"contract":"contracts/ReferralUpgradeable.sol:ReferralUpgradeable","label":"_owner","offset":0,"slot":"101","type":"t_address"},{"astId":130,"contract":"contracts/ReferralUpgradeable.sol:ReferralUpgradeable","label":"__gap","offset":0,"slot":"102","type":"t_array(t_uint256)49_storage"},{"astId":509,"contract":"contracts/ReferralUpgradeable.sol:ReferralUpgradeable","label":"__gap","offset":0,"slot":"151","type":"t_array(t_uint256)50_storage"},{"astId":824,"contract":"contracts/ReferralUpgradeable.sol:ReferralUpgradeable","label":"__gap","offset":0,"slot":"201","type":"t_array(t_uint256)50_storage"},{"astId":1856,"contract":"contracts/ReferralUpgradeable.sol:ReferralUpgradeable","label":"_variablesContract","offset":0,"slot":"251","type":"t_address"},{"astId":1859,"contract":"contracts/ReferralUpgradeable.sol:ReferralUpgradeable","label":"_levelRates","offset":0,"slot":"252","type":"t_array(t_uint256)dyn_storage"},{"astId":1861,"contract":"contracts/ReferralUpgradeable.sol:ReferralUpgradeable","label":"_levelDecimals","offset":0,"slot":"253","type":"t_uint256"},{"astId":1864,"contract":"contracts/ReferralUpgradeable.sol:ReferralUpgradeable","label":"userRankBusinessLimit","offset":0,"slot":"254","type":"t_array(t_uint256)dyn_storage"},{"astId":1866,"contract":"contracts/ReferralUpgradeable.sol:ReferralUpgradeable","label":"_totalReferralPaidANUSD","offset":0,"slot":"255","type":"t_uint256"},{"astId":1868,"contract":"contracts/ReferralUpgradeable.sol:ReferralUpgradeable","label":"_defaultReferrer","offset":0,"slot":"256","type":"t_address"},{"astId":1870,"contract":"contracts/ReferralUpgradeable.sol:ReferralUpgradeable","label":"_globalRewardRate","offset":0,"slot":"257","type":"t_uint256"},{"astId":1873,"contract":"contracts/ReferralUpgradeable.sol:ReferralUpgradeable","label":"_globalAddress","offset":0,"slot":"258","type":"t_array(t_address)dyn_storage"},{"astId":1875,"contract":"contracts/ReferralUpgradeable.sol:ReferralUpgradeable","label":"_globalBusinessValue","offset":0,"slot":"259","type":"t_uint256"},{"astId":1877,"contract":"contracts/ReferralUpgradeable.sol:ReferralUpgradeable","label":"_passiveIncomeRate","offset":0,"slot":"260","type":"t_uint256"},{"astId":1879,"contract":"contracts/ReferralUpgradeable.sol:ReferralUpgradeable","label":"_passiveBusinessValue","offset":0,"slot":"261","type":"t_uint256"},{"astId":1881,"contract":"contracts/ReferralUpgradeable.sol:ReferralUpgradeable","label":"_passiveIncomeLevels","offset":0,"slot":"262","type":"t_uint256"},{"astId":1884,"contract":"contracts/ReferralUpgradeable.sol:ReferralUpgradeable","label":"_coreMembers","offset":0,"slot":"263","type":"t_array(t_address)dyn_storage"},{"astId":1886,"contract":"contracts/ReferralUpgradeable.sol:ReferralUpgradeable","label":"_coreRewardRate","offset":0,"slot":"264","type":"t_uint256"},{"astId":1943,"contract":"contracts/ReferralUpgradeable.sol:ReferralUpgradeable","label":"accounts","offset":0,"slot":"265","type":"t_mapping(t_address,t_struct(Account)1915_storage)"},{"astId":1948,"contract":"contracts/ReferralUpgradeable.sol:ReferralUpgradeable","label":"rewardAccount","offset":0,"slot":"266","type":"t_mapping(t_address,t_struct(RewardsAccount)1923_storage)"},{"astId":1953,"contract":"contracts/ReferralUpgradeable.sol:ReferralUpgradeable","label":"rewards","offset":0,"slot":"267","type":"t_mapping(t_uint8,t_struct(Rewards)1938_storage)"},{"astId":1957,"contract":"contracts/ReferralUpgradeable.sol:ReferralUpgradeable","label":"idToAddress","offset":0,"slot":"268","type":"t_mapping(t_uint16,t_address)"},{"astId":1961,"contract":"contracts/ReferralUpgradeable.sol:ReferralUpgradeable","label":"addressToId","offset":0,"slot":"269","type":"t_mapping(t_address,t_uint16)"},{"astId":1964,"contract":"contracts/ReferralUpgradeable.sol:ReferralUpgradeable","label":"usersList","offset":0,"slot":"270","type":"t_array(t_address)dyn_storage"},{"astId":1966,"contract":"contracts/ReferralUpgradeable.sol:ReferralUpgradeable","label":"totalUsers","offset":0,"slot":"271","type":"t_uint16"},{"astId":2064,"contract":"contracts/ReferralUpgradeable.sol:ReferralUpgradeable","label":"_globalRefereeLimit","offset":2,"slot":"271","type":"t_uint8"},{"astId":2066,"contract":"contracts/ReferralUpgradeable.sol:ReferralUpgradeable","label":"_selfIncomePoolRefereeLimit","offset":3,"slot":"271","type":"t_uint8"},{"astId":2068,"contract":"contracts/ReferralUpgradeable.sol:ReferralUpgradeable","label":"_globalTeamBusinessValue","offset":0,"slot":"272","type":"t_uint256"},{"astId":2072,"contract":"contracts/ReferralUpgradeable.sol:ReferralUpgradeable","label":"_is20LevelsUpdated","offset":0,"slot":"273","type":"t_mapping(t_address,t_bool)"}],"types":{"t_address":{"encoding":"inplace","label":"address","numberOfBytes":"20"},"t_array(t_address)dyn_storage":{"base":"t_address","encoding":"dynamic_array","label":"address[]","numberOfBytes":"32"},"t_array(t_uint256)49_storage":{"base":"t_uint256","encoding":"inplace","label":"uint256[49]","numberOfBytes":"1568"},"t_array(t_uint256)50_storage":{"base":"t_uint256","encoding":"inplace","label":"uint256[50]","numberOfBytes":"1600"},"t_array(t_uint256)dyn_storage":{"base":"t_uint256","encoding":"dynamic_array","label":"uint256[]","numberOfBytes":"32"},"t_array(t_uint8)dyn_storage":{"base":"t_uint8","encoding":"dynamic_array","label":"uint8[]","numberOfBytes":"32"},"t_bool":{"encoding":"inplace","label":"bool","numberOfBytes":"1"},"t_mapping(t_address,t_bool)":{"encoding":"mapping","key":"t_address","label":"mapping(address => bool)","numberOfBytes":"32","value":"t_bool"},"t_mapping(t_address,t_struct(Account)1915_storage)":{"encoding":"mapping","key":"t_address","label":"mapping(address => struct ReferralUpgradeable.Account)","numberOfBytes":"32","value":"t_struct(Account)1915_storage"},"t_mapping(t_address,t_struct(RewardsAccount)1923_storage)":{"encoding":"mapping","key":"t_address","label":"mapping(address => struct ReferralUpgradeable.RewardsAccount)","numberOfBytes":"32","value":"t_struct(RewardsAccount)1923_storage"},"t_mapping(t_address,t_uint16)":{"encoding":"mapping","key":"t_address","label":"mapping(address => uint16)","numberOfBytes":"32","value":"t_uint16"},"t_mapping(t_uint16,t_address)":{"encoding":"mapping","key":"t_uint16","label":"mapping(uint16 => address)","numberOfBytes":"32","value":"t_address"},"t_mapping(t_uint8,t_struct(Rewards)1938_storage)":{"encoding":"mapping","key":"t_uint8","label":"mapping(uint8 => struct ReferralUpgradeable.Rewards)","numberOfBytes":"32","value":"t_struct(Rewards)1938_storage"},"t_string_storage":{"encoding":"bytes","label":"string","numberOfBytes":"32"},"t_struct(Account)1915_storage":{"encoding":"inplace","label":"struct ReferralUpgradeable.Account","members":[{"astId":1888,"contract":"contracts/ReferralUpgradeable.sol:ReferralUpgradeable","label":"referrer","offset":0,"slot":"0","type":"t_address"},{"astId":1891,"contract":"contracts/ReferralUpgradeable.sol:ReferralUpgradeable","label":"referee","offset":0,"slot":"1","type":"t_array(t_address)dyn_storage"},{"astId":1894,"contract":"contracts/ReferralUpgradeable.sol:ReferralUpgradeable","label":"team","offset":0,"slot":"2","type":"t_array(t_address)dyn_storage"},{"astId":1897,"contract":"contracts/ReferralUpgradeable.sol:ReferralUpgradeable","label":"topUp","offset":0,"slot":"3","type":"t_array(t_uint256)dyn_storage"},{"astId":1899,"contract":"contracts/ReferralUpgradeable.sol:ReferralUpgradeable","label":"selfBusiness","offset":0,"slot":"4","type":"t_uint256"},{"astId":1901,"contract":"contracts/ReferralUpgradeable.sol:ReferralUpgradeable","label":"directBusiness","offset":0,"slot":"5","type":"t_uint256"},{"astId":1903,"contract":"contracts/ReferralUpgradeable.sol:ReferralUpgradeable","label":"totalBusiness","offset":0,"slot":"6","type":"t_uint256"},{"astId":1906,"contract":"contracts/ReferralUpgradeable.sol:ReferralUpgradeable","label":"rewardsPaidReferral","offset":0,"slot":"7","type":"t_array(t_uint256)dyn_storage"},{"astId":1909,"contract":"contracts/ReferralUpgradeable.sol:ReferralUpgradeable","label":"rewardsPaidGlobal","offset":0,"slot":"8","type":"t_array(t_uint256)dyn_storage"},{"astId":1912,"contract":"contracts/ReferralUpgradeable.sol:ReferralUpgradeable","label":"rewardPaidPassive","offset":0,"slot":"9","type":"t_array(t_uint256)dyn_storage"},{"astId":1914,"contract":"contracts/ReferralUpgradeable.sol:ReferralUpgradeable","label":"isInGlobalID","offset":0,"slot":"10","type":"t_bool"}],"numberOfBytes":"352"},"t_struct(Rewards)1938_storage":{"encoding":"inplace","label":"struct ReferralUpgradeable.Rewards","members":[{"astId":1925,"contract":"contracts/ReferralUpgradeable.sol:ReferralUpgradeable","label":"id","offset":0,"slot":"0","type":"t_uint8"},{"astId":1927,"contract":"contracts/ReferralUpgradeable.sol:ReferralUpgradeable","label":"selfBusinessLimit","offset":0,"slot":"1","type":"t_uint256"},{"astId":1929,"contract":"contracts/ReferralUpgradeable.sol:ReferralUpgradeable","label":"directBusinessLimit","offset":0,"slot":"2","type":"t_uint256"},{"astId":1931,"contract":"contracts/ReferralUpgradeable.sol:ReferralUpgradeable","label":"teamBusinessLimit","offset":0,"slot":"3","type":"t_uint256"},{"astId":1933,"contract":"contracts/ReferralUpgradeable.sol:ReferralUpgradeable","label":"rankName","offset":0,"slot":"4","type":"t_string_storage"},{"astId":1935,"contract":"contracts/ReferralUpgradeable.sol:ReferralUpgradeable","label":"rewardName","offset":0,"slot":"5","type":"t_string_storage"},{"astId":1937,"contract":"contracts/ReferralUpgradeable.sol:ReferralUpgradeable","label":"appraisal","offset":0,"slot":"6","type":"t_uint256"}],"numberOfBytes":"224"},"t_struct(RewardsAccount)1923_storage":{"encoding":"inplace","label":"struct ReferralUpgradeable.RewardsAccount","members":[{"astId":1917,"contract":"contracts/ReferralUpgradeable.sol:ReferralUpgradeable","label":"userAdddress","offset":0,"slot":"0","type":"t_address"},{"astId":1920,"contract":"contracts/ReferralUpgradeable.sol:ReferralUpgradeable","label":"rewardId","offset":0,"slot":"1","type":"t_array(t_uint8)dyn_storage"},{"astId":1922,"contract":"contracts/ReferralUpgradeable.sol:ReferralUpgradeable","label":"lastRewardId","offset":0,"slot":"2","type":"t_uint8"}],"numberOfBytes":"96"},"t_uint16":{"encoding":"inplace","label":"uint16","numberOfBytes":"2"},"t_uint256":{"encoding":"inplace","label":"uint256","numberOfBytes":"32"},"t_uint8":{"encoding":"inplace","label":"uint8","numberOfBytes":"1"}}}}}}