{"contracts/RewardsUpgradeable.sol":{"RewardsUpgradeable":{"abi":[{"anonymous":false,"inputs":[{"indexed":false,"internalType":"address","name":"previousAdmin","type":"address"},{"indexed":false,"internalType":"address","name":"newAdmin","type":"address"}],"name":"AdminChanged","type":"event"},{"anonymous":false,"inputs":[{"indexed":true,"internalType":"address","name":"beacon","type":"address"}],"name":"BeaconUpgraded","type":"event"},{"anonymous":false,"inputs":[{"indexed":false,"internalType":"uint8","name":"version","type":"uint8"}],"name":"Initialized","type":"event"},{"anonymous":false,"inputs":[{"indexed":true,"internalType":"address","name":"previousOwner","type":"address"},{"indexed":true,"internalType":"address","name":"newOwner","type":"address"}],"name":"OwnershipTransferred","type":"event"},{"anonymous":false,"inputs":[{"indexed":false,"internalType":"address","name":"account","type":"address"}],"name":"Paused","type":"event"},{"anonymous":false,"inputs":[{"indexed":false,"internalType":"address","name":"account","type":"address"}],"name":"Unpaused","type":"event"},{"anonymous":false,"inputs":[{"indexed":true,"internalType":"address","name":"implementation","type":"address"}],"name":"Upgraded","type":"event"},{"inputs":[],"name":"initialize","outputs":[],"stateMutability":"nonpayable","type":"function"},{"inputs":[],"name":"owner","outputs":[{"internalType":"address","name":"","type":"address"}],"stateMutability":"view","type":"function"},{"inputs":[],"name":"pause","outputs":[],"stateMutability":"nonpayable","type":"function"},{"inputs":[],"name":"paused","outputs":[{"internalType":"bool","name":"","type":"bool"}],"stateMutability":"view","type":"function"},{"inputs":[],"name":"proxiableUUID","outputs":[{"internalType":"bytes32","name":"","type":"bytes32"}],"stateMutability":"view","type":"function"},{"inputs":[],"name":"renounceOwnership","outputs":[],"stateMutability":"nonpayable","type":"function"},{"inputs":[{"internalType":"uint8","name":"","type":"uint8"}],"name":"rewards","outputs":[{"internalType":"uint8","name":"id","type":"uint8"},{"internalType":"uint256","name":"selfBusinessLimit","type":"uint256"},{"internalType":"uint256","name":"directBusinessLimit","type":"uint256"},{"internalType":"uint256","name":"teamBusinessLimit","type":"uint256"},{"internalType":"string","name":"rankName","type":"string"},{"internalType":"string","name":"rewardName","type":"string"},{"internalType":"uint256","name":"appraisal","type":"uint256"},{"internalType":"uint256","name":"topUpValueLimit","type":"uint256"},{"internalType":"uint256","name":"topUp","type":"uint256"}],"stateMutability":"view","type":"function"},{"inputs":[{"internalType":"address","name":"newOwner","type":"address"}],"name":"transferOwnership","outputs":[],"stateMutability":"nonpayable","type":"function"},{"inputs":[],"name":"unpause","outputs":[],"stateMutability":"nonpayable","type":"function"},{"inputs":[{"internalType":"address","name":"newImplementation","type":"address"}],"name":"upgradeTo","outputs":[],"stateMutability":"nonpayable","type":"function"},{"inputs":[{"internalType":"address","name":"newImplementation","type":"address"},{"internalType":"bytes","name":"data","type":"bytes"}],"name":"upgradeToAndCall","outputs":[],"stateMutability":"payable","type":"function"}],"evm":{"bytecode":{"linkReferences":{},"object":"60a06040523060805234801561001457600080fd5b506080516111bd61004c600039600081816101fc01528181610245015281816102f60152818161033601526103c901526111bd6000f3fe60806040526004361061009c5760003560e01c8063715018a611610064578063715018a6146101365780638129fc1c1461014b5780638456cb59146101605780638da5cb5b146101755780639b317cc41461019d578063f2fde38b146101d257600080fd5b80633659cfe6146100a15780633f4ba83a146100c35780634f1ef286146100d857806352d1902d146100eb5780635c975abb14610113575b600080fd5b3480156100ad57600080fd5b506100c16100bc366004610e0f565b6101f2565b005b3480156100cf57600080fd5b506100c16102da565b6100c16100e6366004610e40565b6102ec565b3480156100f757600080fd5b506101006103bc565b6040519081526020015b60405180910390f35b34801561011f57600080fd5b5060335460ff16604051901515815260200161010a565b34801561014257600080fd5b506100c161046f565b34801561015757600080fd5b506100c1610481565b34801561016c57600080fd5b506100c16105a1565b34801561018157600080fd5b506065546040516001600160a01b03909116815260200161010a565b3480156101a957600080fd5b506101bd6101b8366004610f02565b6105b1565b60405161010a99989796959493929190610f75565b3480156101de57600080fd5b506100c16101ed366004610e0f565b61070e565b6001600160a01b037f00000000000000000000000000000000000000000000000000000000000000001630036102435760405162461bcd60e51b815260040161023a90610fdb565b60405180910390fd5b7f00000000000000000000000000000000000000000000000000000000000000006001600160a01b031661028c600080516020611141833981519152546001600160a01b031690565b6001600160a01b0316146102b25760405162461bcd60e51b815260040161023a90611027565b6102bb81610784565b604080516000808252602082019092526102d79183919061078c565b50565b6102e26108fc565b6102ea610956565b565b6001600160a01b037f00000000000000000000000000000000000000000000000000000000000000001630036103345760405162461bcd60e51b815260040161023a90610fdb565b7f00000000000000000000000000000000000000000000000000000000000000006001600160a01b031661037d600080516020611141833981519152546001600160a01b031690565b6001600160a01b0316146103a35760405162461bcd60e51b815260040161023a90611027565b6103ac82610784565b6103b88282600161078c565b5050565b6000306001600160a01b037f0000000000000000000000000000000000000000000000000000000000000000161461045c5760405162461bcd60e51b815260206004820152603860248201527f555550535570677261646561626c653a206d757374206e6f742062652063616c60448201527f6c6564207468726f7567682064656c656761746563616c6c0000000000000000606482015260840161023a565b5060008051602061114183398151915290565b6104776108fc565b6102ea60006109a8565b600054610100900460ff16158080156104a15750600054600160ff909116105b806104bb5750303b1580156104bb575060005460ff166001145b61051e5760405162461bcd60e51b815260206004820152602e60248201527f496e697469616c697a61626c653a20636f6e747261637420697320616c72656160448201526d191e481a5b9a5d1a585b1a5e995960921b606482015260840161023a565b6000805460ff191660011790558015610541576000805461ff0019166101001790555b6105496109fa565b610551610a29565b610559610a58565b80156102d7576000805461ff0019169055604051600181527f7f26b83ff96e1f2b6a682f133852f6798a09c465da95921460cefb38474024989060200160405180910390a150565b6105a96108fc565b6102ea610a7f565b60fc602052600090815260409020805460018201546002830154600384015460048501805460ff909516959394929391926105eb90611073565b80601f016020809104026020016040519081016040528092919081815260200182805461061790611073565b80156106645780601f1061063957610100808354040283529160200191610664565b820191906000526020600020905b81548152906001019060200180831161064757829003601f168201915b50505050509080600501805461067990611073565b80601f01602080910402602001604051908101604052809291908181526020018280546106a590611073565b80156106f25780601f106106c7576101008083540402835291602001916106f2565b820191906000526020600020905b8154815290600101906020018083116106d557829003601f168201915b5050505050908060060154908060070154908060080154905089565b6107166108fc565b6001600160a01b03811661077b5760405162461bcd60e51b815260206004820152602660248201527f4f776e61626c653a206e6577206f776e657220697320746865207a65726f206160448201526564647265737360d01b606482015260840161023a565b6102d7816109a8565b6102d76108fc565b7f4910fdfa16fed3260ed0e7147f7cc6da11a60208b5b9406d12a635614ffd91435460ff16156107c4576107bf83610abc565b505050565b826001600160a01b03166352d1902d6040518163ffffffff1660e01b8152600401602060405180830381865afa92505050801561081e575060408051601f3d908101601f1916820190925261081b918101906110ad565b60015b6108815760405162461bcd60e51b815260206004820152602e60248201527f45524331393637557067726164653a206e657720696d706c656d656e7461746960448201526d6f6e206973206e6f74205555505360901b606482015260840161023a565b60008051602061114183398151915281146108f05760405162461bcd60e51b815260206004820152602960248201527f45524331393637557067726164653a20756e737570706f727465642070726f786044820152681a58589b195555525160ba1b606482015260840161023a565b506107bf838383610b58565b6065546001600160a01b031633146102ea5760405162461bcd60e51b815260206004820181905260248201527f4f776e61626c653a2063616c6c6572206973206e6f7420746865206f776e6572604482015260640161023a565b61095e610b83565b6033805460ff191690557f5db9ee0a495bf2e6ff9c91a7834c1ba4fdd244a5e8aa4e537bd38aeae4b073aa335b6040516001600160a01b03909116815260200160405180910390a1565b606580546001600160a01b038381166001600160a01b0319831681179093556040519116919082907f8be0079c531659141344cd1fd0a4f28419497f9722a3daafe3b4186f6b6457e090600090a35050565b600054610100900460ff16610a215760405162461bcd60e51b815260040161023a906110c6565b6102ea610bcc565b600054610100900460ff16610a505760405162461bcd60e51b815260040161023a906110c6565b6102ea610bff565b600054610100900460ff166102ea5760405162461bcd60e51b815260040161023a906110c6565b610a87610c2f565b6033805460ff191660011790557f62e78cea01bee320cd4e420270b5ea74000d11b0c9f74754ebdbfc544b05a25861098b3390565b6001600160a01b0381163b610b295760405162461bcd60e51b815260206004820152602d60248201527f455243313936373a206e657720696d706c656d656e746174696f6e206973206e60448201526c1bdd08184818dbdb9d1c9858dd609a1b606482015260840161023a565b60008051602061114183398151915280546001600160a01b0319166001600160a01b0392909216919091179055565b610b6183610c75565b600082511180610b6e5750805b156107bf57610b7d8383610cb5565b50505050565b60335460ff166102ea5760405162461bcd60e51b815260206004820152601460248201527314185d5cd8589b194e881b9bdd081c185d5cd95960621b604482015260640161023a565b600054610100900460ff16610bf35760405162461bcd60e51b815260040161023a906110c6565b6033805460ff19169055565b600054610100900460ff16610c265760405162461bcd60e51b815260040161023a906110c6565b6102ea336109a8565b60335460ff16156102ea5760405162461bcd60e51b815260206004820152601060248201526f14185d5cd8589b194e881c185d5cd95960821b604482015260640161023a565b610c7e81610abc565b6040516001600160a01b038216907fbc7cd75a20ee27fd9adebab32041f755214dbc6bffa90cc0225b39da2e5c2d3b90600090a250565b60606001600160a01b0383163b610d1d5760405162461bcd60e51b815260206004820152602660248201527f416464726573733a2064656c65676174652063616c6c20746f206e6f6e2d636f6044820152651b9d1c9858dd60d21b606482015260840161023a565b600080846001600160a01b031684604051610d389190611111565b600060405180830381855af49150503d8060008114610d73576040519150601f19603f3d011682016040523d82523d6000602084013e610d78565b606091505b5091509150610da0828260405180606001604052806027815260200161116160279139610da9565b95945050505050565b60608315610db8575081610dc2565b610dc28383610dc9565b9392505050565b815115610dd95781518083602001fd5b8060405162461bcd60e51b815260040161023a919061112d565b80356001600160a01b0381168114610e0a57600080fd5b919050565b600060208284031215610e2157600080fd5b610dc282610df3565b634e487b7160e01b600052604160045260246000fd5b60008060408385031215610e5357600080fd5b610e5c83610df3565b9150602083013567ffffffffffffffff80821115610e7957600080fd5b818501915085601f830112610e8d57600080fd5b813581811115610e9f57610e9f610e2a565b604051601f8201601f19908116603f01168101908382118183101715610ec757610ec7610e2a565b81604052828152886020848701011115610ee057600080fd5b8260208601602083013760006020848301015280955050505050509250929050565b600060208284031215610f1457600080fd5b813560ff81168114610dc257600080fd5b60005b83811015610f40578181015183820152602001610f28565b50506000910152565b60008151808452610f61816020860160208601610f25565b601f01601f19169290920160200192915050565b600061012060ff8c1683528a6020840152896040840152886060840152806080840152610fa481840189610f49565b905082810360a0840152610fb88188610f49565b60c0840196909652505060e0810192909252610100909101529695505050505050565b6020808252602c908201527f46756e6374696f6e206d7573742062652063616c6c6564207468726f7567682060408201526b19195b1959d85d1958d85b1b60a21b606082015260800190565b6020808252602c908201527f46756e6374696f6e206d7573742062652063616c6c6564207468726f7567682060408201526b6163746976652070726f787960a01b606082015260800190565b600181811c9082168061108757607f821691505b6020821081036110a757634e487b7160e01b600052602260045260246000fd5b50919050565b6000602082840312156110bf57600080fd5b5051919050565b6020808252602b908201527f496e697469616c697a61626c653a20636f6e7472616374206973206e6f74206960408201526a6e697469616c697a696e6760a81b606082015260800190565b60008251611123818460208701610f25565b9190910192915050565b602081526000610dc26020830184610f4956fe360894a13ba1a3210667c828492db98dca3e2076cc3735a920a3ca505d382bbc416464726573733a206c6f772d6c6576656c2064656c65676174652063616c6c206661696c6564a26469706673582212207274260e5be423fca0954a4faadeca1aa4a88a7e770db3d859b18e536deade4f64736f6c63430008110033","opcodes":"PUSH1 0xA0 PUSH1 0x40 MSTORE ADDRESS PUSH1 0x80 MSTORE CALLVALUE DUP1 ISZERO PUSH2 0x14 JUMPI PUSH1 0x0 DUP1 REVERT JUMPDEST POP PUSH1 0x80 MLOAD PUSH2 0x11BD PUSH2 0x4C PUSH1 0x0 CODECOPY PUSH1 0x0 DUP2 DUP2 PUSH2 0x1FC ADD MSTORE DUP2 DUP2 PUSH2 0x245 ADD MSTORE DUP2 DUP2 PUSH2 0x2F6 ADD MSTORE DUP2 DUP2 PUSH2 0x336 ADD MSTORE PUSH2 0x3C9 ADD MSTORE PUSH2 0x11BD PUSH1 0x0 RETURN INVALID PUSH1 0x80 PUSH1 0x40 MSTORE PUSH1 0x4 CALLDATASIZE LT PUSH2 0x9C JUMPI PUSH1 0x0 CALLDATALOAD PUSH1 0xE0 SHR DUP1 PUSH4 0x715018A6 GT PUSH2 0x64 JUMPI DUP1 PUSH4 0x715018A6 EQ PUSH2 0x136 JUMPI DUP1 PUSH4 0x8129FC1C EQ PUSH2 0x14B JUMPI DUP1 PUSH4 0x8456CB59 EQ PUSH2 0x160 JUMPI DUP1 PUSH4 0x8DA5CB5B EQ PUSH2 0x175 JUMPI DUP1 PUSH4 0x9B317CC4 EQ PUSH2 0x19D JUMPI DUP1 PUSH4 0xF2FDE38B EQ PUSH2 0x1D2 JUMPI PUSH1 0x0 DUP1 REVERT JUMPDEST DUP1 PUSH4 0x3659CFE6 EQ PUSH2 0xA1 JUMPI DUP1 PUSH4 0x3F4BA83A EQ PUSH2 0xC3 JUMPI DUP1 PUSH4 0x4F1EF286 EQ PUSH2 0xD8 JUMPI DUP1 PUSH4 0x52D1902D EQ PUSH2 0xEB JUMPI DUP1 PUSH4 0x5C975ABB EQ PUSH2 0x113 JUMPI JUMPDEST PUSH1 0x0 DUP1 REVERT JUMPDEST CALLVALUE DUP1 ISZERO PUSH2 0xAD JUMPI PUSH1 0x0 DUP1 REVERT JUMPDEST POP PUSH2 0xC1 PUSH2 0xBC CALLDATASIZE PUSH1 0x4 PUSH2 0xE0F JUMP JUMPDEST PUSH2 0x1F2 JUMP JUMPDEST STOP JUMPDEST CALLVALUE DUP1 ISZERO PUSH2 0xCF JUMPI PUSH1 0x0 DUP1 REVERT JUMPDEST POP PUSH2 0xC1 PUSH2 0x2DA JUMP JUMPDEST PUSH2 0xC1 PUSH2 0xE6 CALLDATASIZE PUSH1 0x4 PUSH2 0xE40 JUMP JUMPDEST PUSH2 0x2EC JUMP JUMPDEST CALLVALUE DUP1 ISZERO PUSH2 0xF7 JUMPI PUSH1 0x0 DUP1 REVERT JUMPDEST POP PUSH2 0x100 PUSH2 0x3BC JUMP JUMPDEST PUSH1 0x40 MLOAD SWAP1 DUP2 MSTORE PUSH1 0x20 ADD JUMPDEST PUSH1 0x40 MLOAD DUP1 SWAP2 SUB SWAP1 RETURN JUMPDEST CALLVALUE DUP1 ISZERO PUSH2 0x11F JUMPI PUSH1 0x0 DUP1 REVERT JUMPDEST POP PUSH1 0x33 SLOAD PUSH1 0xFF AND PUSH1 0x40 MLOAD SWAP1 ISZERO ISZERO DUP2 MSTORE PUSH1 0x20 ADD PUSH2 0x10A JUMP JUMPDEST CALLVALUE DUP1 ISZERO PUSH2 0x142 JUMPI PUSH1 0x0 DUP1 REVERT JUMPDEST POP PUSH2 0xC1 PUSH2 0x46F JUMP JUMPDEST CALLVALUE DUP1 ISZERO PUSH2 0x157 JUMPI PUSH1 0x0 DUP1 REVERT JUMPDEST POP PUSH2 0xC1 PUSH2 0x481 JUMP JUMPDEST CALLVALUE DUP1 ISZERO PUSH2 0x16C JUMPI PUSH1 0x0 DUP1 REVERT JUMPDEST POP PUSH2 0xC1 PUSH2 0x5A1 JUMP JUMPDEST CALLVALUE DUP1 ISZERO PUSH2 0x181 JUMPI PUSH1 0x0 DUP1 REVERT JUMPDEST POP PUSH1 0x65 SLOAD PUSH1 0x40 MLOAD PUSH1 0x1 PUSH1 0x1 PUSH1 0xA0 SHL SUB SWAP1 SWAP2 AND DUP2 MSTORE PUSH1 0x20 ADD PUSH2 0x10A JUMP JUMPDEST CALLVALUE DUP1 ISZERO PUSH2 0x1A9 JUMPI PUSH1 0x0 DUP1 REVERT JUMPDEST POP PUSH2 0x1BD PUSH2 0x1B8 CALLDATASIZE PUSH1 0x4 PUSH2 0xF02 JUMP JUMPDEST PUSH2 0x5B1 JUMP JUMPDEST PUSH1 0x40 MLOAD PUSH2 0x10A SWAP10 SWAP9 SWAP8 SWAP7 SWAP6 SWAP5 SWAP4 SWAP3 SWAP2 SWAP1 PUSH2 0xF75 JUMP JUMPDEST CALLVALUE DUP1 ISZERO PUSH2 0x1DE JUMPI PUSH1 0x0 DUP1 REVERT JUMPDEST POP PUSH2 0xC1 PUSH2 0x1ED CALLDATASIZE PUSH1 0x4 PUSH2 0xE0F JUMP JUMPDEST PUSH2 0x70E JUMP JUMPDEST PUSH1 0x1 PUSH1 0x1 PUSH1 0xA0 SHL SUB PUSH32 0x0 AND ADDRESS SUB PUSH2 0x243 JUMPI PUSH1 0x40 MLOAD PUSH3 0x461BCD PUSH1 0xE5 SHL DUP2 MSTORE PUSH1 0x4 ADD PUSH2 0x23A SWAP1 PUSH2 0xFDB JUMP JUMPDEST PUSH1 0x40 MLOAD DUP1 SWAP2 SUB SWAP1 REVERT JUMPDEST PUSH32 0x0 PUSH1 0x1 PUSH1 0x1 PUSH1 0xA0 SHL SUB AND PUSH2 0x28C PUSH1 0x0 DUP1 MLOAD PUSH1 0x20 PUSH2 0x1141 DUP4 CODECOPY DUP2 MLOAD SWAP2 MSTORE SLOAD PUSH1 0x1 PUSH1 0x1 PUSH1 0xA0 SHL SUB AND SWAP1 JUMP JUMPDEST PUSH1 0x1 PUSH1 0x1 PUSH1 0xA0 SHL SUB AND EQ PUSH2 0x2B2 JUMPI PUSH1 0x40 MLOAD PUSH3 0x461BCD PUSH1 0xE5 SHL DUP2 MSTORE PUSH1 0x4 ADD PUSH2 0x23A SWAP1 PUSH2 0x1027 JUMP JUMPDEST PUSH2 0x2BB DUP2 PUSH2 0x784 JUMP JUMPDEST PUSH1 0x40 DUP1 MLOAD PUSH1 0x0 DUP1 DUP3 MSTORE PUSH1 0x20 DUP3 ADD SWAP1 SWAP3 MSTORE PUSH2 0x2D7 SWAP2 DUP4 SWAP2 SWAP1 PUSH2 0x78C JUMP JUMPDEST POP JUMP JUMPDEST PUSH2 0x2E2 PUSH2 0x8FC JUMP JUMPDEST PUSH2 0x2EA PUSH2 0x956 JUMP JUMPDEST JUMP JUMPDEST PUSH1 0x1 PUSH1 0x1 PUSH1 0xA0 SHL SUB PUSH32 0x0 AND ADDRESS SUB PUSH2 0x334 JUMPI PUSH1 0x40 MLOAD PUSH3 0x461BCD PUSH1 0xE5 SHL DUP2 MSTORE PUSH1 0x4 ADD PUSH2 0x23A SWAP1 PUSH2 0xFDB JUMP JUMPDEST PUSH32 0x0 PUSH1 0x1 PUSH1 0x1 PUSH1 0xA0 SHL SUB AND PUSH2 0x37D PUSH1 0x0 DUP1 MLOAD PUSH1 0x20 PUSH2 0x1141 DUP4 CODECOPY DUP2 MLOAD SWAP2 MSTORE SLOAD PUSH1 0x1 PUSH1 0x1 PUSH1 0xA0 SHL SUB AND SWAP1 JUMP JUMPDEST PUSH1 0x1 PUSH1 0x1 PUSH1 0xA0 SHL SUB AND EQ PUSH2 0x3A3 JUMPI PUSH1 0x40 MLOAD PUSH3 0x461BCD PUSH1 0xE5 SHL DUP2 MSTORE PUSH1 0x4 ADD PUSH2 0x23A SWAP1 PUSH2 0x1027 JUMP JUMPDEST PUSH2 0x3AC DUP3 PUSH2 0x784 JUMP JUMPDEST PUSH2 0x3B8 DUP3 DUP3 PUSH1 0x1 PUSH2 0x78C JUMP JUMPDEST POP POP JUMP JUMPDEST PUSH1 0x0 ADDRESS PUSH1 0x1 PUSH1 0x1 PUSH1 0xA0 SHL SUB PUSH32 0x0 AND EQ PUSH2 0x45C JUMPI PUSH1 0x40 MLOAD PUSH3 0x461BCD PUSH1 0xE5 SHL DUP2 MSTORE PUSH1 0x20 PUSH1 0x4 DUP3 ADD MSTORE PUSH1 0x38 PUSH1 0x24 DUP3 ADD MSTORE PUSH32 0x555550535570677261646561626C653A206D757374206E6F742062652063616C PUSH1 0x44 DUP3 ADD MSTORE PUSH32 0x6C6564207468726F7567682064656C656761746563616C6C0000000000000000 PUSH1 0x64 DUP3 ADD MSTORE PUSH1 0x84 ADD PUSH2 0x23A JUMP JUMPDEST POP PUSH1 0x0 DUP1 MLOAD PUSH1 0x20 PUSH2 0x1141 DUP4 CODECOPY DUP2 MLOAD SWAP2 MSTORE SWAP1 JUMP JUMPDEST PUSH2 0x477 PUSH2 0x8FC JUMP JUMPDEST PUSH2 0x2EA PUSH1 0x0 PUSH2 0x9A8 JUMP JUMPDEST PUSH1 0x0 SLOAD PUSH2 0x100 SWAP1 DIV PUSH1 0xFF AND ISZERO DUP1 DUP1 ISZERO PUSH2 0x4A1 JUMPI POP PUSH1 0x0 SLOAD PUSH1 0x1 PUSH1 0xFF SWAP1 SWAP2 AND LT JUMPDEST DUP1 PUSH2 0x4BB JUMPI POP ADDRESS EXTCODESIZE ISZERO DUP1 ISZERO PUSH2 0x4BB JUMPI POP PUSH1 0x0 SLOAD PUSH1 0xFF AND PUSH1 0x1 EQ JUMPDEST PUSH2 0x51E JUMPI PUSH1 0x40 MLOAD PUSH3 0x461BCD PUSH1 0xE5 SHL DUP2 MSTORE PUSH1 0x20 PUSH1 0x4 DUP3 ADD MSTORE PUSH1 0x2E PUSH1 0x24 DUP3 ADD MSTORE PUSH32 0x496E697469616C697A61626C653A20636F6E747261637420697320616C726561 PUSH1 0x44 DUP3 ADD MSTORE PUSH14 0x191E481A5B9A5D1A585B1A5E9959 PUSH1 0x92 SHL PUSH1 0x64 DUP3 ADD MSTORE PUSH1 0x84 ADD PUSH2 0x23A JUMP JUMPDEST PUSH1 0x0 DUP1 SLOAD PUSH1 0xFF NOT AND PUSH1 0x1 OR SWAP1 SSTORE DUP1 ISZERO PUSH2 0x541 JUMPI PUSH1 0x0 DUP1 SLOAD PUSH2 0xFF00 NOT AND PUSH2 0x100 OR SWAP1 SSTORE JUMPDEST PUSH2 0x549 PUSH2 0x9FA JUMP JUMPDEST PUSH2 0x551 PUSH2 0xA29 JUMP JUMPDEST PUSH2 0x559 PUSH2 0xA58 JUMP JUMPDEST DUP1 ISZERO PUSH2 0x2D7 JUMPI PUSH1 0x0 DUP1 SLOAD PUSH2 0xFF00 NOT AND SWAP1 SSTORE PUSH1 0x40 MLOAD PUSH1 0x1 DUP2 MSTORE PUSH32 0x7F26B83FF96E1F2B6A682F133852F6798A09C465DA95921460CEFB3847402498 SWAP1 PUSH1 0x20 ADD PUSH1 0x40 MLOAD DUP1 SWAP2 SUB SWAP1 LOG1 POP JUMP JUMPDEST PUSH2 0x5A9 PUSH2 0x8FC JUMP JUMPDEST PUSH2 0x2EA PUSH2 0xA7F JUMP JUMPDEST PUSH1 0xFC PUSH1 0x20 MSTORE PUSH1 0x0 SWAP1 DUP2 MSTORE PUSH1 0x40 SWAP1 KECCAK256 DUP1 SLOAD PUSH1 0x1 DUP3 ADD SLOAD PUSH1 0x2 DUP4 ADD SLOAD PUSH1 0x3 DUP5 ADD SLOAD PUSH1 0x4 DUP6 ADD DUP1 SLOAD PUSH1 0xFF SWAP1 SWAP6 AND SWAP6 SWAP4 SWAP5 SWAP3 SWAP4 SWAP2 SWAP3 PUSH2 0x5EB SWAP1 PUSH2 0x1073 JUMP JUMPDEST DUP1 PUSH1 0x1F ADD PUSH1 0x20 DUP1 SWAP2 DIV MUL PUSH1 0x20 ADD PUSH1 0x40 MLOAD SWAP1 DUP2 ADD PUSH1 0x40 MSTORE DUP1 SWAP3 SWAP2 SWAP1 DUP2 DUP2 MSTORE PUSH1 0x20 ADD DUP3 DUP1 SLOAD PUSH2 0x617 SWAP1 PUSH2 0x1073 JUMP JUMPDEST DUP1 ISZERO PUSH2 0x664 JUMPI DUP1 PUSH1 0x1F LT PUSH2 0x639 JUMPI PUSH2 0x100 DUP1 DUP4 SLOAD DIV MUL DUP4 MSTORE SWAP2 PUSH1 0x20 ADD SWAP2 PUSH2 0x664 JUMP JUMPDEST DUP3 ADD SWAP2 SWAP1 PUSH1 0x0 MSTORE PUSH1 0x20 PUSH1 0x0 KECCAK256 SWAP1 JUMPDEST DUP2 SLOAD DUP2 MSTORE SWAP1 PUSH1 0x1 ADD SWAP1 PUSH1 0x20 ADD DUP1 DUP4 GT PUSH2 0x647 JUMPI DUP3 SWAP1 SUB PUSH1 0x1F AND DUP3 ADD SWAP2 JUMPDEST POP POP POP POP POP SWAP1 DUP1 PUSH1 0x5 ADD DUP1 SLOAD PUSH2 0x679 SWAP1 PUSH2 0x1073 JUMP JUMPDEST DUP1 PUSH1 0x1F ADD PUSH1 0x20 DUP1 SWAP2 DIV MUL PUSH1 0x20 ADD PUSH1 0x40 MLOAD SWAP1 DUP2 ADD PUSH1 0x40 MSTORE DUP1 SWAP3 SWAP2 SWAP1 DUP2 DUP2 MSTORE PUSH1 0x20 ADD DUP3 DUP1 SLOAD PUSH2 0x6A5 SWAP1 PUSH2 0x1073 JUMP JUMPDEST DUP1 ISZERO PUSH2 0x6F2 JUMPI DUP1 PUSH1 0x1F LT PUSH2 0x6C7 JUMPI PUSH2 0x100 DUP1 DUP4 SLOAD DIV MUL DUP4 MSTORE SWAP2 PUSH1 0x20 ADD SWAP2 PUSH2 0x6F2 JUMP JUMPDEST DUP3 ADD SWAP2 SWAP1 PUSH1 0x0 MSTORE PUSH1 0x20 PUSH1 0x0 KECCAK256 SWAP1 JUMPDEST DUP2 SLOAD DUP2 MSTORE SWAP1 PUSH1 0x1 ADD SWAP1 PUSH1 0x20 ADD DUP1 DUP4 GT PUSH2 0x6D5 JUMPI DUP3 SWAP1 SUB PUSH1 0x1F AND DUP3 ADD SWAP2 JUMPDEST POP POP POP POP POP SWAP1 DUP1 PUSH1 0x6 ADD SLOAD SWAP1 DUP1 PUSH1 0x7 ADD SLOAD SWAP1 DUP1 PUSH1 0x8 ADD SLOAD SWAP1 POP DUP10 JUMP JUMPDEST PUSH2 0x716 PUSH2 0x8FC JUMP JUMPDEST PUSH1 0x1 PUSH1 0x1 PUSH1 0xA0 SHL SUB DUP2 AND PUSH2 0x77B JUMPI PUSH1 0x40 MLOAD PUSH3 0x461BCD PUSH1 0xE5 SHL DUP2 MSTORE PUSH1 0x20 PUSH1 0x4 DUP3 ADD MSTORE PUSH1 0x26 PUSH1 0x24 DUP3 ADD MSTORE PUSH32 0x4F776E61626C653A206E6577206F776E657220697320746865207A65726F2061 PUSH1 0x44 DUP3 ADD MSTORE PUSH6 0x646472657373 PUSH1 0xD0 SHL PUSH1 0x64 DUP3 ADD MSTORE PUSH1 0x84 ADD PUSH2 0x23A JUMP JUMPDEST PUSH2 0x2D7 DUP2 PUSH2 0x9A8 JUMP JUMPDEST PUSH2 0x2D7 PUSH2 0x8FC JUMP JUMPDEST PUSH32 0x4910FDFA16FED3260ED0E7147F7CC6DA11A60208B5B9406D12A635614FFD9143 SLOAD PUSH1 0xFF AND ISZERO PUSH2 0x7C4 JUMPI PUSH2 0x7BF DUP4 PUSH2 0xABC JUMP JUMPDEST POP POP POP JUMP JUMPDEST DUP3 PUSH1 0x1 PUSH1 0x1 PUSH1 0xA0 SHL SUB AND PUSH4 0x52D1902D PUSH1 0x40 MLOAD DUP2 PUSH4 0xFFFFFFFF AND PUSH1 0xE0 SHL DUP2 MSTORE PUSH1 0x4 ADD PUSH1 0x20 PUSH1 0x40 MLOAD DUP1 DUP4 SUB DUP2 DUP7 GAS STATICCALL SWAP3 POP POP POP DUP1 ISZERO PUSH2 0x81E JUMPI POP PUSH1 0x40 DUP1 MLOAD PUSH1 0x1F RETURNDATASIZE SWAP1 DUP2 ADD PUSH1 0x1F NOT AND DUP3 ADD SWAP1 SWAP3 MSTORE PUSH2 0x81B SWAP2 DUP2 ADD SWAP1 PUSH2 0x10AD JUMP JUMPDEST PUSH1 0x1 JUMPDEST PUSH2 0x881 JUMPI PUSH1 0x40 MLOAD PUSH3 0x461BCD PUSH1 0xE5 SHL DUP2 MSTORE PUSH1 0x20 PUSH1 0x4 DUP3 ADD MSTORE PUSH1 0x2E PUSH1 0x24 DUP3 ADD MSTORE PUSH32 0x45524331393637557067726164653A206E657720696D706C656D656E74617469 PUSH1 0x44 DUP3 ADD MSTORE PUSH14 0x6F6E206973206E6F742055555053 PUSH1 0x90 SHL PUSH1 0x64 DUP3 ADD MSTORE PUSH1 0x84 ADD PUSH2 0x23A JUMP JUMPDEST PUSH1 0x0 DUP1 MLOAD PUSH1 0x20 PUSH2 0x1141 DUP4 CODECOPY DUP2 MLOAD SWAP2 MSTORE DUP2 EQ PUSH2 0x8F0 JUMPI PUSH1 0x40 MLOAD PUSH3 0x461BCD PUSH1 0xE5 SHL DUP2 MSTORE PUSH1 0x20 PUSH1 0x4 DUP3 ADD MSTORE PUSH1 0x29 PUSH1 0x24 DUP3 ADD MSTORE PUSH32 0x45524331393637557067726164653A20756E737570706F727465642070726F78 PUSH1 0x44 DUP3 ADD MSTORE PUSH9 0x1A58589B1955555251 PUSH1 0xBA SHL PUSH1 0x64 DUP3 ADD MSTORE PUSH1 0x84 ADD PUSH2 0x23A JUMP JUMPDEST POP PUSH2 0x7BF DUP4 DUP4 DUP4 PUSH2 0xB58 JUMP JUMPDEST PUSH1 0x65 SLOAD PUSH1 0x1 PUSH1 0x1 PUSH1 0xA0 SHL SUB AND CALLER EQ PUSH2 0x2EA JUMPI PUSH1 0x40 MLOAD PUSH3 0x461BCD PUSH1 0xE5 SHL DUP2 MSTORE PUSH1 0x20 PUSH1 0x4 DUP3 ADD DUP2 SWAP1 MSTORE PUSH1 0x24 DUP3 ADD MSTORE PUSH32 0x4F776E61626C653A2063616C6C6572206973206E6F7420746865206F776E6572 PUSH1 0x44 DUP3 ADD MSTORE PUSH1 0x64 ADD PUSH2 0x23A JUMP JUMPDEST PUSH2 0x95E PUSH2 0xB83 JUMP JUMPDEST PUSH1 0x33 DUP1 SLOAD PUSH1 0xFF NOT AND SWAP1 SSTORE PUSH32 0x5DB9EE0A495BF2E6FF9C91A7834C1BA4FDD244A5E8AA4E537BD38AEAE4B073AA CALLER JUMPDEST PUSH1 0x40 MLOAD PUSH1 0x1 PUSH1 0x1 PUSH1 0xA0 SHL SUB SWAP1 SWAP2 AND DUP2 MSTORE PUSH1 0x20 ADD PUSH1 0x40 MLOAD DUP1 SWAP2 SUB SWAP1 LOG1 JUMP JUMPDEST PUSH1 0x65 DUP1 SLOAD PUSH1 0x1 PUSH1 0x1 PUSH1 0xA0 SHL SUB DUP4 DUP2 AND PUSH1 0x1 PUSH1 0x1 PUSH1 0xA0 SHL SUB NOT DUP4 AND DUP2 OR SWAP1 SWAP4 SSTORE PUSH1 0x40 MLOAD SWAP2 AND SWAP2 SWAP1 DUP3 SWAP1 PUSH32 0x8BE0079C531659141344CD1FD0A4F28419497F9722A3DAAFE3B4186F6B6457E0 SWAP1 PUSH1 0x0 SWAP1 LOG3 POP POP JUMP JUMPDEST PUSH1 0x0 SLOAD PUSH2 0x100 SWAP1 DIV PUSH1 0xFF AND PUSH2 0xA21 JUMPI PUSH1 0x40 MLOAD PUSH3 0x461BCD PUSH1 0xE5 SHL DUP2 MSTORE PUSH1 0x4 ADD PUSH2 0x23A SWAP1 PUSH2 0x10C6 JUMP JUMPDEST PUSH2 0x2EA PUSH2 0xBCC JUMP JUMPDEST PUSH1 0x0 SLOAD PUSH2 0x100 SWAP1 DIV PUSH1 0xFF AND PUSH2 0xA50 JUMPI PUSH1 0x40 MLOAD PUSH3 0x461BCD PUSH1 0xE5 SHL DUP2 MSTORE PUSH1 0x4 ADD PUSH2 0x23A SWAP1 PUSH2 0x10C6 JUMP JUMPDEST PUSH2 0x2EA PUSH2 0xBFF JUMP JUMPDEST PUSH1 0x0 SLOAD PUSH2 0x100 SWAP1 DIV PUSH1 0xFF AND PUSH2 0x2EA JUMPI PUSH1 0x40 MLOAD PUSH3 0x461BCD PUSH1 0xE5 SHL DUP2 MSTORE PUSH1 0x4 ADD PUSH2 0x23A SWAP1 PUSH2 0x10C6 JUMP JUMPDEST PUSH2 0xA87 PUSH2 0xC2F JUMP JUMPDEST PUSH1 0x33 DUP1 SLOAD PUSH1 0xFF NOT AND PUSH1 0x1 OR SWAP1 SSTORE PUSH32 0x62E78CEA01BEE320CD4E420270B5EA74000D11B0C9F74754EBDBFC544B05A258 PUSH2 0x98B CALLER SWAP1 JUMP JUMPDEST PUSH1 0x1 PUSH1 0x1 PUSH1 0xA0 SHL SUB DUP2 AND EXTCODESIZE PUSH2 0xB29 JUMPI PUSH1 0x40 MLOAD PUSH3 0x461BCD PUSH1 0xE5 SHL DUP2 MSTORE PUSH1 0x20 PUSH1 0x4 DUP3 ADD MSTORE PUSH1 0x2D PUSH1 0x24 DUP3 ADD MSTORE PUSH32 0x455243313936373A206E657720696D706C656D656E746174696F6E206973206E PUSH1 0x44 DUP3 ADD MSTORE PUSH13 0x1BDD08184818DBDB9D1C9858DD PUSH1 0x9A SHL PUSH1 0x64 DUP3 ADD MSTORE PUSH1 0x84 ADD PUSH2 0x23A JUMP JUMPDEST PUSH1 0x0 DUP1 MLOAD PUSH1 0x20 PUSH2 0x1141 DUP4 CODECOPY DUP2 MLOAD SWAP2 MSTORE DUP1 SLOAD PUSH1 0x1 PUSH1 0x1 PUSH1 0xA0 SHL SUB NOT AND PUSH1 0x1 PUSH1 0x1 PUSH1 0xA0 SHL SUB SWAP3 SWAP1 SWAP3 AND SWAP2 SWAP1 SWAP2 OR SWAP1 SSTORE JUMP JUMPDEST PUSH2 0xB61 DUP4 PUSH2 0xC75 JUMP JUMPDEST PUSH1 0x0 DUP3 MLOAD GT DUP1 PUSH2 0xB6E JUMPI POP DUP1 JUMPDEST ISZERO PUSH2 0x7BF JUMPI PUSH2 0xB7D DUP4 DUP4 PUSH2 0xCB5 JUMP JUMPDEST POP POP POP POP JUMP JUMPDEST PUSH1 0x33 SLOAD PUSH1 0xFF AND PUSH2 0x2EA JUMPI PUSH1 0x40 MLOAD PUSH3 0x461BCD PUSH1 0xE5 SHL DUP2 MSTORE PUSH1 0x20 PUSH1 0x4 DUP3 ADD MSTORE PUSH1 0x14 PUSH1 0x24 DUP3 ADD MSTORE PUSH20 0x14185D5CD8589B194E881B9BDD081C185D5CD959 PUSH1 0x62 SHL PUSH1 0x44 DUP3 ADD MSTORE PUSH1 0x64 ADD PUSH2 0x23A JUMP JUMPDEST PUSH1 0x0 SLOAD PUSH2 0x100 SWAP1 DIV PUSH1 0xFF AND PUSH2 0xBF3 JUMPI PUSH1 0x40 MLOAD PUSH3 0x461BCD PUSH1 0xE5 SHL DUP2 MSTORE PUSH1 0x4 ADD PUSH2 0x23A SWAP1 PUSH2 0x10C6 JUMP JUMPDEST PUSH1 0x33 DUP1 SLOAD PUSH1 0xFF NOT AND SWAP1 SSTORE JUMP JUMPDEST PUSH1 0x0 SLOAD PUSH2 0x100 SWAP1 DIV PUSH1 0xFF AND PUSH2 0xC26 JUMPI PUSH1 0x40 MLOAD PUSH3 0x461BCD PUSH1 0xE5 SHL DUP2 MSTORE PUSH1 0x4 ADD PUSH2 0x23A SWAP1 PUSH2 0x10C6 JUMP JUMPDEST PUSH2 0x2EA CALLER PUSH2 0x9A8 JUMP JUMPDEST PUSH1 0x33 SLOAD PUSH1 0xFF AND ISZERO PUSH2 0x2EA JUMPI PUSH1 0x40 MLOAD PUSH3 0x461BCD PUSH1 0xE5 SHL DUP2 MSTORE PUSH1 0x20 PUSH1 0x4 DUP3 ADD MSTORE PUSH1 0x10 PUSH1 0x24 DUP3 ADD MSTORE PUSH16 0x14185D5CD8589B194E881C185D5CD959 PUSH1 0x82 SHL PUSH1 0x44 DUP3 ADD MSTORE PUSH1 0x64 ADD PUSH2 0x23A JUMP JUMPDEST PUSH2 0xC7E DUP2 PUSH2 0xABC JUMP JUMPDEST PUSH1 0x40 MLOAD PUSH1 0x1 PUSH1 0x1 PUSH1 0xA0 SHL SUB DUP3 AND SWAP1 PUSH32 0xBC7CD75A20EE27FD9ADEBAB32041F755214DBC6BFFA90CC0225B39DA2E5C2D3B SWAP1 PUSH1 0x0 SWAP1 LOG2 POP JUMP JUMPDEST PUSH1 0x60 PUSH1 0x1 PUSH1 0x1 PUSH1 0xA0 SHL SUB DUP4 AND EXTCODESIZE PUSH2 0xD1D JUMPI PUSH1 0x40 MLOAD PUSH3 0x461BCD PUSH1 0xE5 SHL DUP2 MSTORE PUSH1 0x20 PUSH1 0x4 DUP3 ADD MSTORE PUSH1 0x26 PUSH1 0x24 DUP3 ADD MSTORE PUSH32 0x416464726573733A2064656C65676174652063616C6C20746F206E6F6E2D636F PUSH1 0x44 DUP3 ADD MSTORE PUSH6 0x1B9D1C9858DD PUSH1 0xD2 SHL PUSH1 0x64 DUP3 ADD MSTORE PUSH1 0x84 ADD PUSH2 0x23A JUMP JUMPDEST PUSH1 0x0 DUP1 DUP5 PUSH1 0x1 PUSH1 0x1 PUSH1 0xA0 SHL SUB AND DUP5 PUSH1 0x40 MLOAD PUSH2 0xD38 SWAP2 SWAP1 PUSH2 0x1111 JUMP JUMPDEST PUSH1 0x0 PUSH1 0x40 MLOAD DUP1 DUP4 SUB DUP2 DUP6 GAS DELEGATECALL SWAP2 POP POP RETURNDATASIZE DUP1 PUSH1 0x0 DUP2 EQ PUSH2 0xD73 JUMPI PUSH1 0x40 MLOAD SWAP2 POP PUSH1 0x1F NOT PUSH1 0x3F RETURNDATASIZE ADD AND DUP3 ADD PUSH1 0x40 MSTORE RETURNDATASIZE DUP3 MSTORE RETURNDATASIZE PUSH1 0x0 PUSH1 0x20 DUP5 ADD RETURNDATACOPY PUSH2 0xD78 JUMP JUMPDEST PUSH1 0x60 SWAP2 POP JUMPDEST POP SWAP2 POP SWAP2 POP PUSH2 0xDA0 DUP3 DUP3 PUSH1 0x40 MLOAD DUP1 PUSH1 0x60 ADD PUSH1 0x40 MSTORE DUP1 PUSH1 0x27 DUP2 MSTORE PUSH1 0x20 ADD PUSH2 0x1161 PUSH1 0x27 SWAP2 CODECOPY PUSH2 0xDA9 JUMP JUMPDEST SWAP6 SWAP5 POP POP POP POP POP JUMP JUMPDEST PUSH1 0x60 DUP4 ISZERO PUSH2 0xDB8 JUMPI POP DUP2 PUSH2 0xDC2 JUMP JUMPDEST PUSH2 0xDC2 DUP4 DUP4 PUSH2 0xDC9 JUMP JUMPDEST SWAP4 SWAP3 POP POP POP JUMP JUMPDEST DUP2 MLOAD ISZERO PUSH2 0xDD9 JUMPI DUP2 MLOAD DUP1 DUP4 PUSH1 0x20 ADD REVERT JUMPDEST DUP1 PUSH1 0x40 MLOAD PUSH3 0x461BCD PUSH1 0xE5 SHL DUP2 MSTORE PUSH1 0x4 ADD PUSH2 0x23A SWAP2 SWAP1 PUSH2 0x112D JUMP JUMPDEST DUP1 CALLDATALOAD PUSH1 0x1 PUSH1 0x1 PUSH1 0xA0 SHL SUB DUP2 AND DUP2 EQ PUSH2 0xE0A JUMPI PUSH1 0x0 DUP1 REVERT JUMPDEST SWAP2 SWAP1 POP JUMP JUMPDEST PUSH1 0x0 PUSH1 0x20 DUP3 DUP5 SUB SLT ISZERO PUSH2 0xE21 JUMPI PUSH1 0x0 DUP1 REVERT JUMPDEST PUSH2 0xDC2 DUP3 PUSH2 0xDF3 JUMP JUMPDEST PUSH4 0x4E487B71 PUSH1 0xE0 SHL PUSH1 0x0 MSTORE PUSH1 0x41 PUSH1 0x4 MSTORE PUSH1 0x24 PUSH1 0x0 REVERT JUMPDEST PUSH1 0x0 DUP1 PUSH1 0x40 DUP4 DUP6 SUB SLT ISZERO PUSH2 0xE53 JUMPI PUSH1 0x0 DUP1 REVERT JUMPDEST PUSH2 0xE5C DUP4 PUSH2 0xDF3 JUMP JUMPDEST SWAP2 POP PUSH1 0x20 DUP4 ADD CALLDATALOAD PUSH8 0xFFFFFFFFFFFFFFFF DUP1 DUP3 GT ISZERO PUSH2 0xE79 JUMPI PUSH1 0x0 DUP1 REVERT JUMPDEST DUP2 DUP6 ADD SWAP2 POP DUP6 PUSH1 0x1F DUP4 ADD SLT PUSH2 0xE8D JUMPI PUSH1 0x0 DUP1 REVERT JUMPDEST DUP2 CALLDATALOAD DUP2 DUP2 GT ISZERO PUSH2 0xE9F JUMPI PUSH2 0xE9F PUSH2 0xE2A JUMP JUMPDEST PUSH1 0x40 MLOAD PUSH1 0x1F DUP3 ADD PUSH1 0x1F NOT SWAP1 DUP2 AND PUSH1 0x3F ADD AND DUP2 ADD SWAP1 DUP4 DUP3 GT DUP2 DUP4 LT OR ISZERO PUSH2 0xEC7 JUMPI PUSH2 0xEC7 PUSH2 0xE2A JUMP JUMPDEST DUP2 PUSH1 0x40 MSTORE DUP3 DUP2 MSTORE DUP9 PUSH1 0x20 DUP5 DUP8 ADD ADD GT ISZERO PUSH2 0xEE0 JUMPI PUSH1 0x0 DUP1 REVERT JUMPDEST DUP3 PUSH1 0x20 DUP7 ADD PUSH1 0x20 DUP4 ADD CALLDATACOPY PUSH1 0x0 PUSH1 0x20 DUP5 DUP4 ADD ADD MSTORE DUP1 SWAP6 POP POP POP POP POP POP SWAP3 POP SWAP3 SWAP1 POP JUMP JUMPDEST PUSH1 0x0 PUSH1 0x20 DUP3 DUP5 SUB SLT ISZERO PUSH2 0xF14 JUMPI PUSH1 0x0 DUP1 REVERT JUMPDEST DUP2 CALLDATALOAD PUSH1 0xFF DUP2 AND DUP2 EQ PUSH2 0xDC2 JUMPI PUSH1 0x0 DUP1 REVERT JUMPDEST PUSH1 0x0 JUMPDEST DUP4 DUP2 LT ISZERO PUSH2 0xF40 JUMPI DUP2 DUP2 ADD MLOAD DUP4 DUP3 ADD MSTORE PUSH1 0x20 ADD PUSH2 0xF28 JUMP JUMPDEST POP POP PUSH1 0x0 SWAP2 ADD MSTORE JUMP JUMPDEST PUSH1 0x0 DUP2 MLOAD DUP1 DUP5 MSTORE PUSH2 0xF61 DUP2 PUSH1 0x20 DUP7 ADD PUSH1 0x20 DUP7 ADD PUSH2 0xF25 JUMP JUMPDEST PUSH1 0x1F ADD PUSH1 0x1F NOT AND SWAP3 SWAP1 SWAP3 ADD PUSH1 0x20 ADD SWAP3 SWAP2 POP POP JUMP JUMPDEST PUSH1 0x0 PUSH2 0x120 PUSH1 0xFF DUP13 AND DUP4 MSTORE DUP11 PUSH1 0x20 DUP5 ADD MSTORE DUP10 PUSH1 0x40 DUP5 ADD MSTORE DUP9 PUSH1 0x60 DUP5 ADD MSTORE DUP1 PUSH1 0x80 DUP5 ADD MSTORE PUSH2 0xFA4 DUP2 DUP5 ADD DUP10 PUSH2 0xF49 JUMP JUMPDEST SWAP1 POP DUP3 DUP2 SUB PUSH1 0xA0 DUP5 ADD MSTORE PUSH2 0xFB8 DUP2 DUP9 PUSH2 0xF49 JUMP JUMPDEST PUSH1 0xC0 DUP5 ADD SWAP7 SWAP1 SWAP7 MSTORE POP POP PUSH1 0xE0 DUP2 ADD SWAP3 SWAP1 SWAP3 MSTORE PUSH2 0x100 SWAP1 SWAP2 ADD MSTORE SWAP7 SWAP6 POP POP POP POP POP POP JUMP JUMPDEST PUSH1 0x20 DUP1 DUP3 MSTORE PUSH1 0x2C SWAP1 DUP3 ADD MSTORE PUSH32 0x46756E6374696F6E206D7573742062652063616C6C6564207468726F75676820 PUSH1 0x40 DUP3 ADD MSTORE PUSH12 0x19195B1959D85D1958D85B1B PUSH1 0xA2 SHL PUSH1 0x60 DUP3 ADD MSTORE PUSH1 0x80 ADD SWAP1 JUMP JUMPDEST PUSH1 0x20 DUP1 DUP3 MSTORE PUSH1 0x2C SWAP1 DUP3 ADD MSTORE PUSH32 0x46756E6374696F6E206D7573742062652063616C6C6564207468726F75676820 PUSH1 0x40 DUP3 ADD MSTORE PUSH12 0x6163746976652070726F7879 PUSH1 0xA0 SHL PUSH1 0x60 DUP3 ADD MSTORE PUSH1 0x80 ADD SWAP1 JUMP JUMPDEST PUSH1 0x1 DUP2 DUP2 SHR SWAP1 DUP3 AND DUP1 PUSH2 0x1087 JUMPI PUSH1 0x7F DUP3 AND SWAP2 POP JUMPDEST PUSH1 0x20 DUP3 LT DUP2 SUB PUSH2 0x10A7 JUMPI PUSH4 0x4E487B71 PUSH1 0xE0 SHL PUSH1 0x0 MSTORE PUSH1 0x22 PUSH1 0x4 MSTORE PUSH1 0x24 PUSH1 0x0 REVERT JUMPDEST POP SWAP2 SWAP1 POP JUMP JUMPDEST PUSH1 0x0 PUSH1 0x20 DUP3 DUP5 SUB SLT ISZERO PUSH2 0x10BF JUMPI PUSH1 0x0 DUP1 REVERT JUMPDEST POP MLOAD SWAP2 SWAP1 POP JUMP JUMPDEST PUSH1 0x20 DUP1 DUP3 MSTORE PUSH1 0x2B SWAP1 DUP3 ADD MSTORE PUSH32 0x496E697469616C697A61626C653A20636F6E7472616374206973206E6F742069 PUSH1 0x40 DUP3 ADD MSTORE PUSH11 0x6E697469616C697A696E67 PUSH1 0xA8 SHL PUSH1 0x60 DUP3 ADD MSTORE PUSH1 0x80 ADD SWAP1 JUMP JUMPDEST PUSH1 0x0 DUP3 MLOAD PUSH2 0x1123 DUP2 DUP5 PUSH1 0x20 DUP8 ADD PUSH2 0xF25 JUMP JUMPDEST SWAP2 SWAP1 SWAP2 ADD SWAP3 SWAP2 POP POP JUMP JUMPDEST PUSH1 0x20 DUP2 MSTORE PUSH1 0x0 PUSH2 0xDC2 PUSH1 0x20 DUP4 ADD DUP5 PUSH2 0xF49 JUMP INVALID CALLDATASIZE ADDMOD SWAP5 LOG1 EXTCODESIZE LOG1 LOG3 0x21 MOD PUSH8 0xC828492DB98DCA3E KECCAK256 PUSH23 0xCC3735A920A3CA505D382BBC416464726573733A206C6F PUSH24 0x2D6C6576656C2064656C65676174652063616C6C20666169 PUSH13 0x6564A264697066735822122072 PUSH21 0x260E5BE423FCA0954A4FAADECA1AA4A88A7E770DB3 0xD8 MSIZE 0xB1 DUP15 MSTORE8 PUSH14 0xEADE4F64736F6C63430008110033 "},"methodIdentifiers":{"initialize()":"8129fc1c","owner()":"8da5cb5b","pause()":"8456cb59","paused()":"5c975abb","proxiableUUID()":"52d1902d","renounceOwnership()":"715018a6","rewards(uint8)":"9b317cc4","transferOwnership(address)":"f2fde38b","unpause()":"3f4ba83a","upgradeTo(address)":"3659cfe6","upgradeToAndCall(address,bytes)":"4f1ef286"}},"storageLayout":{"storage":[{"astId":573,"contract":"contracts/RewardsUpgradeable.sol:RewardsUpgradeable","label":"_initialized","offset":0,"slot":"0","type":"t_uint8"},{"astId":576,"contract":"contracts/RewardsUpgradeable.sol:RewardsUpgradeable","label":"_initializing","offset":1,"slot":"0","type":"t_bool"},{"astId":1401,"contract":"contracts/RewardsUpgradeable.sol:RewardsUpgradeable","label":"__gap","offset":0,"slot":"1","type":"t_array(t_uint256)50_storage"},{"astId":892,"contract":"contracts/RewardsUpgradeable.sol:RewardsUpgradeable","label":"_paused","offset":0,"slot":"51","type":"t_bool"},{"astId":997,"contract":"contracts/RewardsUpgradeable.sol:RewardsUpgradeable","label":"__gap","offset":0,"slot":"52","type":"t_array(t_uint256)49_storage"},{"astId":56,"contract":"contracts/RewardsUpgradeable.sol:RewardsUpgradeable","label":"_owner","offset":0,"slot":"101","type":"t_address"},{"astId":176,"contract":"contracts/RewardsUpgradeable.sol:RewardsUpgradeable","label":"__gap","offset":0,"slot":"102","type":"t_array(t_uint256)49_storage"},{"astId":555,"contract":"contracts/RewardsUpgradeable.sol:RewardsUpgradeable","label":"__gap","offset":0,"slot":"151","type":"t_array(t_uint256)50_storage"},{"astId":870,"contract":"contracts/RewardsUpgradeable.sol:RewardsUpgradeable","label":"__gap","offset":0,"slot":"201","type":"t_array(t_uint256)50_storage"},{"astId":5524,"contract":"contracts/RewardsUpgradeable.sol:RewardsUpgradeable","label":"_variablesContract","offset":0,"slot":"251","type":"t_address"},{"astId":5529,"contract":"contracts/RewardsUpgradeable.sol:RewardsUpgradeable","label":"rewards","offset":0,"slot":"252","type":"t_mapping(t_uint8,t_struct(StructRewards)5514_storage)"}],"types":{"t_address":{"encoding":"inplace","label":"address","numberOfBytes":"20"},"t_array(t_uint256)49_storage":{"base":"t_uint256","encoding":"inplace","label":"uint256[49]","numberOfBytes":"1568"},"t_array(t_uint256)50_storage":{"base":"t_uint256","encoding":"inplace","label":"uint256[50]","numberOfBytes":"1600"},"t_bool":{"encoding":"inplace","label":"bool","numberOfBytes":"1"},"t_mapping(t_uint8,t_struct(StructRewards)5514_storage)":{"encoding":"mapping","key":"t_uint8","label":"mapping(uint8 => struct StructRewards)","numberOfBytes":"32","value":"t_struct(StructRewards)5514_storage"},"t_string_storage":{"encoding":"bytes","label":"string","numberOfBytes":"32"},"t_struct(StructRewards)5514_storage":{"encoding":"inplace","label":"struct StructRewards","members":[{"astId":5497,"contract":"contracts/RewardsUpgradeable.sol:RewardsUpgradeable","label":"id","offset":0,"slot":"0","type":"t_uint8"},{"astId":5499,"contract":"contracts/RewardsUpgradeable.sol:RewardsUpgradeable","label":"selfBusinessLimit","offset":0,"slot":"1","type":"t_uint256"},{"astId":5501,"contract":"contracts/RewardsUpgradeable.sol:RewardsUpgradeable","label":"directBusinessLimit","offset":0,"slot":"2","type":"t_uint256"},{"astId":5503,"contract":"contracts/RewardsUpgradeable.sol:RewardsUpgradeable","label":"teamBusinessLimit","offset":0,"slot":"3","type":"t_uint256"},{"astId":5505,"contract":"contracts/RewardsUpgradeable.sol:RewardsUpgradeable","label":"rankName","offset":0,"slot":"4","type":"t_string_storage"},{"astId":5507,"contract":"contracts/RewardsUpgradeable.sol:RewardsUpgradeable","label":"rewardName","offset":0,"slot":"5","type":"t_string_storage"},{"astId":5509,"contract":"contracts/RewardsUpgradeable.sol:RewardsUpgradeable","label":"appraisal","offset":0,"slot":"6","type":"t_uint256"},{"astId":5511,"contract":"contracts/RewardsUpgradeable.sol:RewardsUpgradeable","label":"topUpValueLimit","offset":0,"slot":"7","type":"t_uint256"},{"astId":5513,"contract":"contracts/RewardsUpgradeable.sol:RewardsUpgradeable","label":"topUp","offset":0,"slot":"8","type":"t_uint256"}],"numberOfBytes":"288"},"t_uint256":{"encoding":"inplace","label":"uint256","numberOfBytes":"32"},"t_uint8":{"encoding":"inplace","label":"uint8","numberOfBytes":"1"}}}}}}