{"contracts/VariablesUpgradeable.sol":{"VariablesUpgradeable":{"abi":[{"anonymous":false,"inputs":[{"indexed":false,"internalType":"address","name":"previousAdmin","type":"address"},{"indexed":false,"internalType":"address","name":"newAdmin","type":"address"}],"name":"AdminChanged","type":"event"},{"anonymous":false,"inputs":[{"indexed":true,"internalType":"address","name":"beacon","type":"address"}],"name":"BeaconUpgraded","type":"event"},{"anonymous":false,"inputs":[{"indexed":false,"internalType":"uint8","name":"version","type":"uint8"}],"name":"Initialized","type":"event"},{"anonymous":false,"inputs":[{"indexed":true,"internalType":"address","name":"previousOwner","type":"address"},{"indexed":true,"internalType":"address","name":"newOwner","type":"address"}],"name":"OwnershipTransferred","type":"event"},{"anonymous":false,"inputs":[{"indexed":true,"internalType":"address","name":"implementation","type":"address"}],"name":"Upgraded","type":"event"},{"inputs":[],"name":"adminFees","outputs":[{"internalType":"uint256","name":"","type":"uint256"}],"stateMutability":"view","type":"function"},{"inputs":[],"name":"anusdContract","outputs":[{"internalType":"address","name":"","type":"address"}],"stateMutability":"view","type":"function"},{"inputs":[],"name":"anusdContractInfo","outputs":[{"internalType":"address","name":"tokenAddress","type":"address"},{"internalType":"string","name":"name","type":"string"},{"internalType":"string","name":"symbol","type":"string"},{"internalType":"uint256","name":"decimals","type":"uint256"}],"stateMutability":"view","type":"function"},{"inputs":[],"name":"getMonthlyRewardsContract","outputs":[{"internalType":"address","name":"","type":"address"}],"stateMutability":"view","type":"function"},{"inputs":[],"name":"initialize","outputs":[],"stateMutability":"nonpayable","type":"function"},{"inputs":[{"internalType":"address","name":"_address","type":"address"}],"name":"isAdmin","outputs":[{"internalType":"bool","name":"","type":"bool"}],"stateMutability":"view","type":"function"},{"inputs":[],"name":"owner","outputs":[{"internalType":"address","name":"","type":"address"}],"stateMutability":"view","type":"function"},{"inputs":[],"name":"presaleContract","outputs":[{"internalType":"address","name":"","type":"address"}],"stateMutability":"view","type":"function"},{"inputs":[],"name":"proxiableUUID","outputs":[{"internalType":"bytes32","name":"","type":"bytes32"}],"stateMutability":"view","type":"function"},{"inputs":[],"name":"referralContract","outputs":[{"internalType":"address","name":"","type":"address"}],"stateMutability":"view","type":"function"},{"inputs":[],"name":"renounceOwnership","outputs":[],"stateMutability":"nonpayable","type":"function"},{"inputs":[],"name":"rewardContract","outputs":[{"internalType":"address","name":"","type":"address"}],"stateMutability":"view","type":"function"},{"inputs":[],"name":"rewardContractOwner","outputs":[{"internalType":"address","name":"","type":"address"}],"stateMutability":"view","type":"function"},{"inputs":[{"internalType":"address","name":"_address","type":"address"},{"internalType":"bool","name":"_status","type":"bool"}],"name":"setAdmin","outputs":[],"stateMutability":"nonpayable","type":"function"},{"inputs":[{"internalType":"uint256","name":"_valueInWei","type":"uint256"}],"name":"setAdminFees","outputs":[],"stateMutability":"nonpayable","type":"function"},{"inputs":[{"internalType":"address","name":"_presale","type":"address"},{"internalType":"address","name":"_referral","type":"address"},{"internalType":"address","name":"_staking","type":"address"},{"internalType":"address","name":"_token","type":"address"},{"internalType":"address","name":"_anusd","type":"address"},{"internalType":"address","name":"_usdt","type":"address"},{"internalType":"address","name":"_uniswapRouter","type":"address"},{"internalType":"address","name":"_reward","type":"address"}],"name":"setContractAddress","outputs":[],"stateMutability":"nonpayable","type":"function"},{"inputs":[{"internalType":"address","name":"_contractAddress","type":"address"}],"name":"setMonthlyRewardsContract","outputs":[],"stateMutability":"nonpayable","type":"function"},{"inputs":[],"name":"stakingContract","outputs":[{"internalType":"address","name":"","type":"address"}],"stateMutability":"view","type":"function"},{"inputs":[],"name":"tokenContract","outputs":[{"internalType":"address","name":"","type":"address"}],"stateMutability":"view","type":"function"},{"inputs":[],"name":"tokenContractInfo","outputs":[{"internalType":"address","name":"tokenAddress","type":"address"},{"internalType":"string","name":"name","type":"string"},{"internalType":"string","name":"symbol","type":"string"},{"internalType":"uint256","name":"decimals","type":"uint256"}],"stateMutability":"view","type":"function"},{"inputs":[],"name":"tokenContractOwner","outputs":[{"internalType":"address","name":"","type":"address"}],"stateMutability":"view","type":"function"},{"inputs":[{"internalType":"address","name":"newOwner","type":"address"}],"name":"transferOwnership","outputs":[],"stateMutability":"nonpayable","type":"function"},{"inputs":[],"name":"uniswapV2RouterContract","outputs":[{"internalType":"address","name":"","type":"address"}],"stateMutability":"view","type":"function"},{"inputs":[{"internalType":"address","name":"newImplementation","type":"address"}],"name":"upgradeTo","outputs":[],"stateMutability":"nonpayable","type":"function"},{"inputs":[{"internalType":"address","name":"newImplementation","type":"address"},{"internalType":"bytes","name":"data","type":"bytes"}],"name":"upgradeToAndCall","outputs":[],"stateMutability":"payable","type":"function"},{"inputs":[],"name":"usdtContract","outputs":[{"internalType":"address","name":"","type":"address"}],"stateMutability":"view","type":"function"},{"inputs":[],"name":"variableContract","outputs":[{"internalType":"address","name":"","type":"address"}],"stateMutability":"view","type":"function"}],"evm":{"bytecode":{"linkReferences":{},"object":"60a06040523060805234801561001457600080fd5b5060805161181e61004c6000396000818161065f015281816106a80152818161077a015281816107ba015261084d015261181e6000f3fe60806040526004361061019c5760003560e01c80637dad19db116100ec578063b264bbab1161008a578063d809e1da11610064578063d809e1da1461046f578063ec31250f1461048f578063ee99205c146104ad578063f2fde38b146104cb57600080fd5b8063b264bbab1461041e578063b70cc4c11461043c578063bf2f002e1461045a57600080fd5b8063878e17df116100c6578063878e17df146103a85780638da5cb5b146103cd578063a50b44bc146103eb578063b0616c18146103fe57600080fd5b80637dad19db146103575780638129fc1c146103755780638290c4a61461038a57600080fd5b80634f1ef28611610159578063611509231161013357806361150923146102e857806363d9df85146103065780636ea69d6214610324578063715018a61461034257600080fd5b80634f1ef286146102a257806352d1902d146102b557806355a373d6146102ca57600080fd5b8063211dd86a146101a157806324d7806c146101c35780633659cfe61461021157806345746dd7146102315780634b0bddd2146102635780634bc92d6c14610283575b600080fd5b3480156101ad57600080fd5b506101c16101bc366004611369565b6104eb565b005b3480156101cf57600080fd5b506101fc6101de366004611400565b6001600160a01b0316600090815260d4602052604090205460ff1690565b60405190151581526020015b60405180910390f35b34801561021d57600080fd5b506101c161022c366004611400565b610655565b34801561023d57600080fd5b5060d2546001600160a01b03165b6040516001600160a01b039091168152602001610208565b34801561026f57600080fd5b506101c161027e36600461141b565b61073d565b34801561028f57600080fd5b5060d3545b604051908152602001610208565b6101c16102b03660046114c6565b610770565b3480156102c157600080fd5b50610294610840565b3480156102d657600080fd5b5060cc546001600160a01b031661024b565b3480156102f457600080fd5b5060ce546001600160a01b031661024b565b34801561031257600080fd5b5060c9546001600160a01b031661024b565b34801561033057600080fd5b5060cf546001600160a01b031661024b565b34801561034e57600080fd5b506101c16108f3565b34801561036357600080fd5b5060ca546001600160a01b031661024b565b34801561038157600080fd5b506101c1610907565b34801561039657600080fd5b5060d0546001600160a01b031661024b565b3480156103b457600080fd5b506103bd610aeb565b60405161020894939291906115a7565b3480156103d957600080fd5b506033546001600160a01b031661024b565b3480156103f757600080fd5b503061024b565b34801561040a57600080fd5b506101c16104193660046115ef565b610c64565b34801561042a57600080fd5b5060d5546001600160a01b031661024b565b34801561044857600080fd5b5060cd546001600160a01b031661024b565b34801561046657600080fd5b506103bd610c71565b34801561047b57600080fd5b506101c161048a366004611400565b610dbe565b34801561049b57600080fd5b5060d1546001600160a01b031661024b565b3480156104b957600080fd5b5060cb546001600160a01b031661024b565b3480156104d757600080fd5b506101c16104e6366004611400565b610de8565b6104f3610e5e565b6001600160a01b0388161561051e5760c980546001600160a01b0319166001600160a01b038a161790555b6001600160a01b038716156105495760ca80546001600160a01b0319166001600160a01b0389161790555b6001600160a01b038616156105745760cb80546001600160a01b0319166001600160a01b0388161790555b6001600160a01b0385161561059f5760cc80546001600160a01b0319166001600160a01b0387161790555b6001600160a01b038416156105ca5760cd80546001600160a01b0319166001600160a01b0386161790555b6001600160a01b038316156105f55760ce80546001600160a01b0319166001600160a01b0385161790555b6001600160a01b038216156106205760d080546001600160a01b0319166001600160a01b0384161790555b6001600160a01b0381161561064b5760cf80546001600160a01b0319166001600160a01b0383161790555b5050505050505050565b6001600160a01b037f00000000000000000000000000000000000000000000000000000000000000001630036106a65760405162461bcd60e51b815260040161069d90611608565b60405180910390fd5b7f00000000000000000000000000000000000000000000000000000000000000006001600160a01b03166106ef6000805160206117a2833981519152546001600160a01b031690565b6001600160a01b0316146107155760405162461bcd60e51b815260040161069d90611654565b61071e81610eb8565b6040805160008082526020820190925261073a91839190610ec0565b50565b610745610e5e565b6001600160a01b0391909116600090815260d460205260409020805460ff1916911515919091179055565b6001600160a01b037f00000000000000000000000000000000000000000000000000000000000000001630036107b85760405162461bcd60e51b815260040161069d90611608565b7f00000000000000000000000000000000000000000000000000000000000000006001600160a01b03166108016000805160206117a2833981519152546001600160a01b031690565b6001600160a01b0316146108275760405162461bcd60e51b815260040161069d90611654565b61083082610eb8565b61083c82826001610ec0565b5050565b6000306001600160a01b037f000000000000000000000000000000000000000000000000000000000000000016146108e05760405162461bcd60e51b815260206004820152603860248201527f555550535570677261646561626c653a206d757374206e6f742062652063616c60448201527f6c6564207468726f7567682064656c656761746563616c6c0000000000000000606482015260840161069d565b506000805160206117a283398151915290565b6108fb610e5e565b6109056000611030565b565b600054610100900460ff16158080156109275750600054600160ff909116105b806109415750303b158015610941575060005460ff166001145b6109a45760405162461bcd60e51b815260206004820152602e60248201527f496e697469616c697a61626c653a20636f6e747261637420697320616c72656160448201526d191e481a5b9a5d1a585b1a5e995960921b606482015260840161069d565b6000805460ff1916600117905580156109c7576000805461ff0019166101001790555b60c980546001600160a01b0319908116735e8f3980e638fc5df657e33194ce428936d635a01790915560ca805482167358469d0d27aae15cf611966b89e072e49d35909717905560cb8054821673b361d6d49694161c413e60e140309f20af19cefd17905560cc8054821673da0948903d239fb9ea25b73b573800630f86352017905560cd8054821673e7377ede6e9ab141807959c80e2a1a3795d1917317905560d0805490911673de2db97d54a3c3b008a097b2260633e6ca7db1af179055671bc16d674ec8000060d355610a9b611082565b610aa36110b1565b801561073a576000805461ff0019169055604051600181527f7f26b83ff96e1f2b6a682f133852f6798a09c465da95921460cefb38474024989060200160405180910390a150565b60cc54604080516306fdde0360e01b815290516001600160a01b0390921691606091829160009185916306fdde039160048082019286929091908290030181865afa158015610b3e573d6000803e3d6000fd5b505050506040513d6000823e601f3d908101601f19168201604052610b6691908101906116a0565b925060cc60009054906101000a90046001600160a01b03166001600160a01b03166395d89b416040518163ffffffff1660e01b8152600401600060405180830381865afa158015610bbb573d6000803e3d6000fd5b505050506040513d6000823e601f3d908101601f19168201604052610be391908101906116a0565b915060cc60009054906101000a90046001600160a01b03166001600160a01b031663313ce5676040518163ffffffff1660e01b8152600401602060405180830381865afa158015610c38573d6000803e3d6000fd5b505050506040513d601f19601f82011682018060405250810190610c5c919061170e565b905090919293565b610c6c610e5e565b60d355565b60cd54604080516306fdde0360e01b815290516001600160a01b0390921691606091829160009185916306fdde039160048082019286929091908290030181865afa158015610cc4573d6000803e3d6000fd5b505050506040513d6000823e601f3d908101601f19168201604052610cec91908101906116a0565b925060cd60009054906101000a90046001600160a01b03166001600160a01b03166395d89b416040518163ffffffff1660e01b8152600401600060405180830381865afa158015610d41573d6000803e3d6000fd5b505050506040513d6000823e601f3d908101601f19168201604052610d6991908101906116a0565b915060cd60009054906101000a90046001600160a01b03166001600160a01b031663313ce5676040518163ffffffff1660e01b8152600401602060405180830381865afa158015610c38573d6000803e3d6000fd5b610dc6610e5e565b60d580546001600160a01b0319166001600160a01b0392909216919091179055565b610df0610e5e565b6001600160a01b038116610e555760405162461bcd60e51b815260206004820152602660248201527f4f776e61626c653a206e6577206f776e657220697320746865207a65726f206160448201526564647265737360d01b606482015260840161069d565b61073a81611030565b6033546001600160a01b031633146109055760405162461bcd60e51b815260206004820181905260248201527f4f776e61626c653a2063616c6c6572206973206e6f7420746865206f776e6572604482015260640161069d565b61073a610e5e565b7f4910fdfa16fed3260ed0e7147f7cc6da11a60208b5b9406d12a635614ffd91435460ff1615610ef857610ef3836110d8565b505050565b826001600160a01b03166352d1902d6040518163ffffffff1660e01b8152600401602060405180830381865afa925050508015610f52575060408051601f3d908101601f19168201909252610f4f9181019061170e565b60015b610fb55760405162461bcd60e51b815260206004820152602e60248201527f45524331393637557067726164653a206e657720696d706c656d656e7461746960448201526d6f6e206973206e6f74205555505360901b606482015260840161069d565b6000805160206117a283398151915281146110245760405162461bcd60e51b815260206004820152602960248201527f45524331393637557067726164653a20756e737570706f727465642070726f786044820152681a58589b195555525160ba1b606482015260840161069d565b50610ef3838383611174565b603380546001600160a01b038381166001600160a01b0319831681179093556040519116919082907f8be0079c531659141344cd1fd0a4f28419497f9722a3daafe3b4186f6b6457e090600090a35050565b600054610100900460ff166110a95760405162461bcd60e51b815260040161069d90611727565b61090561119f565b600054610100900460ff166109055760405162461bcd60e51b815260040161069d90611727565b6001600160a01b0381163b6111455760405162461bcd60e51b815260206004820152602d60248201527f455243313936373a206e657720696d706c656d656e746174696f6e206973206e60448201526c1bdd08184818dbdb9d1c9858dd609a1b606482015260840161069d565b6000805160206117a283398151915280546001600160a01b0319166001600160a01b0392909216919091179055565b61117d836111cf565b60008251118061118a5750805b15610ef357611199838361120f565b50505050565b600054610100900460ff166111c65760405162461bcd60e51b815260040161069d90611727565b61090533611030565b6111d8816110d8565b6040516001600160a01b038216907fbc7cd75a20ee27fd9adebab32041f755214dbc6bffa90cc0225b39da2e5c2d3b90600090a250565b60606001600160a01b0383163b6112775760405162461bcd60e51b815260206004820152602660248201527f416464726573733a2064656c65676174652063616c6c20746f206e6f6e2d636f6044820152651b9d1c9858dd60d21b606482015260840161069d565b600080846001600160a01b0316846040516112929190611772565b600060405180830381855af49150503d80600081146112cd576040519150601f19603f3d011682016040523d82523d6000602084013e6112d2565b606091505b50915091506112fa82826040518060600160405280602781526020016117c260279139611303565b95945050505050565b6060831561131257508161131c565b61131c8383611323565b9392505050565b8151156113335781518083602001fd5b8060405162461bcd60e51b815260040161069d919061178e565b80356001600160a01b038116811461136457600080fd5b919050565b600080600080600080600080610100898b03121561138657600080fd5b61138f8961134d565b975061139d60208a0161134d565b96506113ab60408a0161134d565b95506113b960608a0161134d565b94506113c760808a0161134d565b93506113d560a08a0161134d565b92506113e360c08a0161134d565b91506113f160e08a0161134d565b90509295985092959890939650565b60006020828403121561141257600080fd5b61131c8261134d565b6000806040838503121561142e57600080fd5b6114378361134d565b91506020830135801515811461144c57600080fd5b809150509250929050565b634e487b7160e01b600052604160045260246000fd5b604051601f8201601f1916810167ffffffffffffffff8111828210171561149657611496611457565b604052919050565b600067ffffffffffffffff8211156114b8576114b8611457565b50601f01601f191660200190565b600080604083850312156114d957600080fd5b6114e28361134d565b9150602083013567ffffffffffffffff8111156114fe57600080fd5b8301601f8101851361150f57600080fd5b803561152261151d8261149e565b61146d565b81815286602083850101111561153757600080fd5b816020840160208301376000602083830101528093505050509250929050565b60005b8381101561157257818101518382015260200161155a565b50506000910152565b60008151808452611593816020860160208601611557565b601f01601f19169290920160200192915050565b6001600160a01b03851681526080602082018190526000906115cb9083018661157b565b82810360408401526115dd818661157b565b91505082606083015295945050505050565b60006020828403121561160157600080fd5b5035919050565b6020808252602c908201527f46756e6374696f6e206d7573742062652063616c6c6564207468726f7567682060408201526b19195b1959d85d1958d85b1b60a21b606082015260800190565b6020808252602c908201527f46756e6374696f6e206d7573742062652063616c6c6564207468726f7567682060408201526b6163746976652070726f787960a01b606082015260800190565b6000602082840312156116b257600080fd5b815167ffffffffffffffff8111156116c957600080fd5b8201601f810184136116da57600080fd5b80516116e861151d8261149e565b8181528560208385010111156116fd57600080fd5b6112fa826020830160208601611557565b60006020828403121561172057600080fd5b5051919050565b6020808252602b908201527f496e697469616c697a61626c653a20636f6e7472616374206973206e6f74206960408201526a6e697469616c697a696e6760a81b606082015260800190565b60008251611784818460208701611557565b9190910192915050565b60208152600061131c602083018461157b56fe360894a13ba1a3210667c828492db98dca3e2076cc3735a920a3ca505d382bbc416464726573733a206c6f772d6c6576656c2064656c65676174652063616c6c206661696c6564a2646970667358221220fec34ef7e81774bc2fbef9a620e2d16d3b3d58b81b194878c7a004776cdad6d164736f6c63430008110033","opcodes":"PUSH1 0xA0 PUSH1 0x40 MSTORE ADDRESS PUSH1 0x80 MSTORE CALLVALUE DUP1 ISZERO PUSH2 0x14 JUMPI PUSH1 0x0 DUP1 REVERT JUMPDEST POP PUSH1 0x80 MLOAD PUSH2 0x181E PUSH2 0x4C PUSH1 0x0 CODECOPY PUSH1 0x0 DUP2 DUP2 PUSH2 0x65F ADD MSTORE DUP2 DUP2 PUSH2 0x6A8 ADD MSTORE DUP2 DUP2 PUSH2 0x77A ADD MSTORE DUP2 DUP2 PUSH2 0x7BA ADD MSTORE PUSH2 0x84D ADD MSTORE PUSH2 0x181E PUSH1 0x0 RETURN INVALID PUSH1 0x80 PUSH1 0x40 MSTORE PUSH1 0x4 CALLDATASIZE LT PUSH2 0x19C JUMPI PUSH1 0x0 CALLDATALOAD PUSH1 0xE0 SHR DUP1 PUSH4 0x7DAD19DB GT PUSH2 0xEC JUMPI DUP1 PUSH4 0xB264BBAB GT PUSH2 0x8A JUMPI DUP1 PUSH4 0xD809E1DA GT PUSH2 0x64 JUMPI DUP1 PUSH4 0xD809E1DA EQ PUSH2 0x46F JUMPI DUP1 PUSH4 0xEC31250F EQ PUSH2 0x48F JUMPI DUP1 PUSH4 0xEE99205C EQ PUSH2 0x4AD JUMPI DUP1 PUSH4 0xF2FDE38B EQ PUSH2 0x4CB JUMPI PUSH1 0x0 DUP1 REVERT JUMPDEST DUP1 PUSH4 0xB264BBAB EQ PUSH2 0x41E JUMPI DUP1 PUSH4 0xB70CC4C1 EQ PUSH2 0x43C JUMPI DUP1 PUSH4 0xBF2F002E EQ PUSH2 0x45A JUMPI PUSH1 0x0 DUP1 REVERT JUMPDEST DUP1 PUSH4 0x878E17DF GT PUSH2 0xC6 JUMPI DUP1 PUSH4 0x878E17DF EQ PUSH2 0x3A8 JUMPI DUP1 PUSH4 0x8DA5CB5B EQ PUSH2 0x3CD JUMPI DUP1 PUSH4 0xA50B44BC EQ PUSH2 0x3EB JUMPI DUP1 PUSH4 0xB0616C18 EQ PUSH2 0x3FE JUMPI PUSH1 0x0 DUP1 REVERT JUMPDEST DUP1 PUSH4 0x7DAD19DB EQ PUSH2 0x357 JUMPI DUP1 PUSH4 0x8129FC1C EQ PUSH2 0x375 JUMPI DUP1 PUSH4 0x8290C4A6 EQ PUSH2 0x38A JUMPI PUSH1 0x0 DUP1 REVERT JUMPDEST DUP1 PUSH4 0x4F1EF286 GT PUSH2 0x159 JUMPI DUP1 PUSH4 0x61150923 GT PUSH2 0x133 JUMPI DUP1 PUSH4 0x61150923 EQ PUSH2 0x2E8 JUMPI DUP1 PUSH4 0x63D9DF85 EQ PUSH2 0x306 JUMPI DUP1 PUSH4 0x6EA69D62 EQ PUSH2 0x324 JUMPI DUP1 PUSH4 0x715018A6 EQ PUSH2 0x342 JUMPI PUSH1 0x0 DUP1 REVERT JUMPDEST DUP1 PUSH4 0x4F1EF286 EQ PUSH2 0x2A2 JUMPI DUP1 PUSH4 0x52D1902D EQ PUSH2 0x2B5 JUMPI DUP1 PUSH4 0x55A373D6 EQ PUSH2 0x2CA JUMPI PUSH1 0x0 DUP1 REVERT JUMPDEST DUP1 PUSH4 0x211DD86A EQ PUSH2 0x1A1 JUMPI DUP1 PUSH4 0x24D7806C EQ PUSH2 0x1C3 JUMPI DUP1 PUSH4 0x3659CFE6 EQ PUSH2 0x211 JUMPI DUP1 PUSH4 0x45746DD7 EQ PUSH2 0x231 JUMPI DUP1 PUSH4 0x4B0BDDD2 EQ PUSH2 0x263 JUMPI DUP1 PUSH4 0x4BC92D6C EQ PUSH2 0x283 JUMPI JUMPDEST PUSH1 0x0 DUP1 REVERT JUMPDEST CALLVALUE DUP1 ISZERO PUSH2 0x1AD JUMPI PUSH1 0x0 DUP1 REVERT JUMPDEST POP PUSH2 0x1C1 PUSH2 0x1BC CALLDATASIZE PUSH1 0x4 PUSH2 0x1369 JUMP JUMPDEST PUSH2 0x4EB JUMP JUMPDEST STOP JUMPDEST CALLVALUE DUP1 ISZERO PUSH2 0x1CF JUMPI PUSH1 0x0 DUP1 REVERT JUMPDEST POP PUSH2 0x1FC PUSH2 0x1DE CALLDATASIZE PUSH1 0x4 PUSH2 0x1400 JUMP JUMPDEST PUSH1 0x1 PUSH1 0x1 PUSH1 0xA0 SHL SUB AND PUSH1 0x0 SWAP1 DUP2 MSTORE PUSH1 0xD4 PUSH1 0x20 MSTORE PUSH1 0x40 SWAP1 KECCAK256 SLOAD PUSH1 0xFF AND SWAP1 JUMP JUMPDEST PUSH1 0x40 MLOAD SWAP1 ISZERO ISZERO DUP2 MSTORE PUSH1 0x20 ADD JUMPDEST PUSH1 0x40 MLOAD DUP1 SWAP2 SUB SWAP1 RETURN JUMPDEST CALLVALUE DUP1 ISZERO PUSH2 0x21D JUMPI PUSH1 0x0 DUP1 REVERT JUMPDEST POP PUSH2 0x1C1 PUSH2 0x22C CALLDATASIZE PUSH1 0x4 PUSH2 0x1400 JUMP JUMPDEST PUSH2 0x655 JUMP JUMPDEST CALLVALUE DUP1 ISZERO PUSH2 0x23D JUMPI PUSH1 0x0 DUP1 REVERT JUMPDEST POP PUSH1 0xD2 SLOAD PUSH1 0x1 PUSH1 0x1 PUSH1 0xA0 SHL SUB AND JUMPDEST PUSH1 0x40 MLOAD PUSH1 0x1 PUSH1 0x1 PUSH1 0xA0 SHL SUB SWAP1 SWAP2 AND DUP2 MSTORE PUSH1 0x20 ADD PUSH2 0x208 JUMP JUMPDEST CALLVALUE DUP1 ISZERO PUSH2 0x26F JUMPI PUSH1 0x0 DUP1 REVERT JUMPDEST POP PUSH2 0x1C1 PUSH2 0x27E CALLDATASIZE PUSH1 0x4 PUSH2 0x141B JUMP JUMPDEST PUSH2 0x73D JUMP JUMPDEST CALLVALUE DUP1 ISZERO PUSH2 0x28F JUMPI PUSH1 0x0 DUP1 REVERT JUMPDEST POP PUSH1 0xD3 SLOAD JUMPDEST PUSH1 0x40 MLOAD SWAP1 DUP2 MSTORE PUSH1 0x20 ADD PUSH2 0x208 JUMP JUMPDEST PUSH2 0x1C1 PUSH2 0x2B0 CALLDATASIZE PUSH1 0x4 PUSH2 0x14C6 JUMP JUMPDEST PUSH2 0x770 JUMP JUMPDEST CALLVALUE DUP1 ISZERO PUSH2 0x2C1 JUMPI PUSH1 0x0 DUP1 REVERT JUMPDEST POP PUSH2 0x294 PUSH2 0x840 JUMP JUMPDEST CALLVALUE DUP1 ISZERO PUSH2 0x2D6 JUMPI PUSH1 0x0 DUP1 REVERT JUMPDEST POP PUSH1 0xCC SLOAD PUSH1 0x1 PUSH1 0x1 PUSH1 0xA0 SHL SUB AND PUSH2 0x24B JUMP JUMPDEST CALLVALUE DUP1 ISZERO PUSH2 0x2F4 JUMPI PUSH1 0x0 DUP1 REVERT JUMPDEST POP PUSH1 0xCE SLOAD PUSH1 0x1 PUSH1 0x1 PUSH1 0xA0 SHL SUB AND PUSH2 0x24B JUMP JUMPDEST CALLVALUE DUP1 ISZERO PUSH2 0x312 JUMPI PUSH1 0x0 DUP1 REVERT JUMPDEST POP PUSH1 0xC9 SLOAD PUSH1 0x1 PUSH1 0x1 PUSH1 0xA0 SHL SUB AND PUSH2 0x24B JUMP JUMPDEST CALLVALUE DUP1 ISZERO PUSH2 0x330 JUMPI PUSH1 0x0 DUP1 REVERT JUMPDEST POP PUSH1 0xCF SLOAD PUSH1 0x1 PUSH1 0x1 PUSH1 0xA0 SHL SUB AND PUSH2 0x24B JUMP JUMPDEST CALLVALUE DUP1 ISZERO PUSH2 0x34E JUMPI PUSH1 0x0 DUP1 REVERT JUMPDEST POP PUSH2 0x1C1 PUSH2 0x8F3 JUMP JUMPDEST CALLVALUE DUP1 ISZERO PUSH2 0x363 JUMPI PUSH1 0x0 DUP1 REVERT JUMPDEST POP PUSH1 0xCA SLOAD PUSH1 0x1 PUSH1 0x1 PUSH1 0xA0 SHL SUB AND PUSH2 0x24B JUMP JUMPDEST CALLVALUE DUP1 ISZERO PUSH2 0x381 JUMPI PUSH1 0x0 DUP1 REVERT JUMPDEST POP PUSH2 0x1C1 PUSH2 0x907 JUMP JUMPDEST CALLVALUE DUP1 ISZERO PUSH2 0x396 JUMPI PUSH1 0x0 DUP1 REVERT JUMPDEST POP PUSH1 0xD0 SLOAD PUSH1 0x1 PUSH1 0x1 PUSH1 0xA0 SHL SUB AND PUSH2 0x24B JUMP JUMPDEST CALLVALUE DUP1 ISZERO PUSH2 0x3B4 JUMPI PUSH1 0x0 DUP1 REVERT JUMPDEST POP PUSH2 0x3BD PUSH2 0xAEB JUMP JUMPDEST PUSH1 0x40 MLOAD PUSH2 0x208 SWAP5 SWAP4 SWAP3 SWAP2 SWAP1 PUSH2 0x15A7 JUMP JUMPDEST CALLVALUE DUP1 ISZERO PUSH2 0x3D9 JUMPI PUSH1 0x0 DUP1 REVERT JUMPDEST POP PUSH1 0x33 SLOAD PUSH1 0x1 PUSH1 0x1 PUSH1 0xA0 SHL SUB AND PUSH2 0x24B JUMP JUMPDEST CALLVALUE DUP1 ISZERO PUSH2 0x3F7 JUMPI PUSH1 0x0 DUP1 REVERT JUMPDEST POP ADDRESS PUSH2 0x24B JUMP JUMPDEST CALLVALUE DUP1 ISZERO PUSH2 0x40A JUMPI PUSH1 0x0 DUP1 REVERT JUMPDEST POP PUSH2 0x1C1 PUSH2 0x419 CALLDATASIZE PUSH1 0x4 PUSH2 0x15EF JUMP JUMPDEST PUSH2 0xC64 JUMP JUMPDEST CALLVALUE DUP1 ISZERO PUSH2 0x42A JUMPI PUSH1 0x0 DUP1 REVERT JUMPDEST POP PUSH1 0xD5 SLOAD PUSH1 0x1 PUSH1 0x1 PUSH1 0xA0 SHL SUB AND PUSH2 0x24B JUMP JUMPDEST CALLVALUE DUP1 ISZERO PUSH2 0x448 JUMPI PUSH1 0x0 DUP1 REVERT JUMPDEST POP PUSH1 0xCD SLOAD PUSH1 0x1 PUSH1 0x1 PUSH1 0xA0 SHL SUB AND PUSH2 0x24B JUMP JUMPDEST CALLVALUE DUP1 ISZERO PUSH2 0x466 JUMPI PUSH1 0x0 DUP1 REVERT JUMPDEST POP PUSH2 0x3BD PUSH2 0xC71 JUMP JUMPDEST CALLVALUE DUP1 ISZERO PUSH2 0x47B JUMPI PUSH1 0x0 DUP1 REVERT JUMPDEST POP PUSH2 0x1C1 PUSH2 0x48A CALLDATASIZE PUSH1 0x4 PUSH2 0x1400 JUMP JUMPDEST PUSH2 0xDBE JUMP JUMPDEST CALLVALUE DUP1 ISZERO PUSH2 0x49B JUMPI PUSH1 0x0 DUP1 REVERT JUMPDEST POP PUSH1 0xD1 SLOAD PUSH1 0x1 PUSH1 0x1 PUSH1 0xA0 SHL SUB AND PUSH2 0x24B JUMP JUMPDEST CALLVALUE DUP1 ISZERO PUSH2 0x4B9 JUMPI PUSH1 0x0 DUP1 REVERT JUMPDEST POP PUSH1 0xCB SLOAD PUSH1 0x1 PUSH1 0x1 PUSH1 0xA0 SHL SUB AND PUSH2 0x24B JUMP JUMPDEST CALLVALUE DUP1 ISZERO PUSH2 0x4D7 JUMPI PUSH1 0x0 DUP1 REVERT JUMPDEST POP PUSH2 0x1C1 PUSH2 0x4E6 CALLDATASIZE PUSH1 0x4 PUSH2 0x1400 JUMP JUMPDEST PUSH2 0xDE8 JUMP JUMPDEST PUSH2 0x4F3 PUSH2 0xE5E JUMP JUMPDEST PUSH1 0x1 PUSH1 0x1 PUSH1 0xA0 SHL SUB DUP9 AND ISZERO PUSH2 0x51E JUMPI PUSH1 0xC9 DUP1 SLOAD PUSH1 0x1 PUSH1 0x1 PUSH1 0xA0 SHL SUB NOT AND PUSH1 0x1 PUSH1 0x1 PUSH1 0xA0 SHL SUB DUP11 AND OR SWAP1 SSTORE JUMPDEST PUSH1 0x1 PUSH1 0x1 PUSH1 0xA0 SHL SUB DUP8 AND ISZERO PUSH2 0x549 JUMPI PUSH1 0xCA DUP1 SLOAD PUSH1 0x1 PUSH1 0x1 PUSH1 0xA0 SHL SUB NOT AND PUSH1 0x1 PUSH1 0x1 PUSH1 0xA0 SHL SUB DUP10 AND OR SWAP1 SSTORE JUMPDEST PUSH1 0x1 PUSH1 0x1 PUSH1 0xA0 SHL SUB DUP7 AND ISZERO PUSH2 0x574 JUMPI PUSH1 0xCB DUP1 SLOAD PUSH1 0x1 PUSH1 0x1 PUSH1 0xA0 SHL SUB NOT AND PUSH1 0x1 PUSH1 0x1 PUSH1 0xA0 SHL SUB DUP9 AND OR SWAP1 SSTORE JUMPDEST PUSH1 0x1 PUSH1 0x1 PUSH1 0xA0 SHL SUB DUP6 AND ISZERO PUSH2 0x59F JUMPI PUSH1 0xCC DUP1 SLOAD PUSH1 0x1 PUSH1 0x1 PUSH1 0xA0 SHL SUB NOT AND PUSH1 0x1 PUSH1 0x1 PUSH1 0xA0 SHL SUB DUP8 AND OR SWAP1 SSTORE JUMPDEST PUSH1 0x1 PUSH1 0x1 PUSH1 0xA0 SHL SUB DUP5 AND ISZERO PUSH2 0x5CA JUMPI PUSH1 0xCD DUP1 SLOAD PUSH1 0x1 PUSH1 0x1 PUSH1 0xA0 SHL SUB NOT AND PUSH1 0x1 PUSH1 0x1 PUSH1 0xA0 SHL SUB DUP7 AND OR SWAP1 SSTORE JUMPDEST PUSH1 0x1 PUSH1 0x1 PUSH1 0xA0 SHL SUB DUP4 AND ISZERO PUSH2 0x5F5 JUMPI PUSH1 0xCE DUP1 SLOAD PUSH1 0x1 PUSH1 0x1 PUSH1 0xA0 SHL SUB NOT AND PUSH1 0x1 PUSH1 0x1 PUSH1 0xA0 SHL SUB DUP6 AND OR SWAP1 SSTORE JUMPDEST PUSH1 0x1 PUSH1 0x1 PUSH1 0xA0 SHL SUB DUP3 AND ISZERO PUSH2 0x620 JUMPI PUSH1 0xD0 DUP1 SLOAD PUSH1 0x1 PUSH1 0x1 PUSH1 0xA0 SHL SUB NOT AND PUSH1 0x1 PUSH1 0x1 PUSH1 0xA0 SHL SUB DUP5 AND OR SWAP1 SSTORE JUMPDEST PUSH1 0x1 PUSH1 0x1 PUSH1 0xA0 SHL SUB DUP2 AND ISZERO PUSH2 0x64B JUMPI PUSH1 0xCF DUP1 SLOAD PUSH1 0x1 PUSH1 0x1 PUSH1 0xA0 SHL SUB NOT AND PUSH1 0x1 PUSH1 0x1 PUSH1 0xA0 SHL SUB DUP4 AND OR SWAP1 SSTORE JUMPDEST POP POP POP POP POP POP POP POP JUMP JUMPDEST PUSH1 0x1 PUSH1 0x1 PUSH1 0xA0 SHL SUB PUSH32 0x0 AND ADDRESS SUB PUSH2 0x6A6 JUMPI PUSH1 0x40 MLOAD PUSH3 0x461BCD PUSH1 0xE5 SHL DUP2 MSTORE PUSH1 0x4 ADD PUSH2 0x69D SWAP1 PUSH2 0x1608 JUMP JUMPDEST PUSH1 0x40 MLOAD DUP1 SWAP2 SUB SWAP1 REVERT JUMPDEST PUSH32 0x0 PUSH1 0x1 PUSH1 0x1 PUSH1 0xA0 SHL SUB AND PUSH2 0x6EF PUSH1 0x0 DUP1 MLOAD PUSH1 0x20 PUSH2 0x17A2 DUP4 CODECOPY DUP2 MLOAD SWAP2 MSTORE SLOAD PUSH1 0x1 PUSH1 0x1 PUSH1 0xA0 SHL SUB AND SWAP1 JUMP JUMPDEST PUSH1 0x1 PUSH1 0x1 PUSH1 0xA0 SHL SUB AND EQ PUSH2 0x715 JUMPI PUSH1 0x40 MLOAD PUSH3 0x461BCD PUSH1 0xE5 SHL DUP2 MSTORE PUSH1 0x4 ADD PUSH2 0x69D SWAP1 PUSH2 0x1654 JUMP JUMPDEST PUSH2 0x71E DUP2 PUSH2 0xEB8 JUMP JUMPDEST PUSH1 0x40 DUP1 MLOAD PUSH1 0x0 DUP1 DUP3 MSTORE PUSH1 0x20 DUP3 ADD SWAP1 SWAP3 MSTORE PUSH2 0x73A SWAP2 DUP4 SWAP2 SWAP1 PUSH2 0xEC0 JUMP JUMPDEST POP JUMP JUMPDEST PUSH2 0x745 PUSH2 0xE5E JUMP JUMPDEST PUSH1 0x1 PUSH1 0x1 PUSH1 0xA0 SHL SUB SWAP2 SWAP1 SWAP2 AND PUSH1 0x0 SWAP1 DUP2 MSTORE PUSH1 0xD4 PUSH1 0x20 MSTORE PUSH1 0x40 SWAP1 KECCAK256 DUP1 SLOAD PUSH1 0xFF NOT AND SWAP2 ISZERO ISZERO SWAP2 SWAP1 SWAP2 OR SWAP1 SSTORE JUMP JUMPDEST PUSH1 0x1 PUSH1 0x1 PUSH1 0xA0 SHL SUB PUSH32 0x0 AND ADDRESS SUB PUSH2 0x7B8 JUMPI PUSH1 0x40 MLOAD PUSH3 0x461BCD PUSH1 0xE5 SHL DUP2 MSTORE PUSH1 0x4 ADD PUSH2 0x69D SWAP1 PUSH2 0x1608 JUMP JUMPDEST PUSH32 0x0 PUSH1 0x1 PUSH1 0x1 PUSH1 0xA0 SHL SUB AND PUSH2 0x801 PUSH1 0x0 DUP1 MLOAD PUSH1 0x20 PUSH2 0x17A2 DUP4 CODECOPY DUP2 MLOAD SWAP2 MSTORE SLOAD PUSH1 0x1 PUSH1 0x1 PUSH1 0xA0 SHL SUB AND SWAP1 JUMP JUMPDEST PUSH1 0x1 PUSH1 0x1 PUSH1 0xA0 SHL SUB AND EQ PUSH2 0x827 JUMPI PUSH1 0x40 MLOAD PUSH3 0x461BCD PUSH1 0xE5 SHL DUP2 MSTORE PUSH1 0x4 ADD PUSH2 0x69D SWAP1 PUSH2 0x1654 JUMP JUMPDEST PUSH2 0x830 DUP3 PUSH2 0xEB8 JUMP JUMPDEST PUSH2 0x83C DUP3 DUP3 PUSH1 0x1 PUSH2 0xEC0 JUMP JUMPDEST POP POP JUMP JUMPDEST PUSH1 0x0 ADDRESS PUSH1 0x1 PUSH1 0x1 PUSH1 0xA0 SHL SUB PUSH32 0x0 AND EQ PUSH2 0x8E0 JUMPI PUSH1 0x40 MLOAD PUSH3 0x461BCD PUSH1 0xE5 SHL DUP2 MSTORE PUSH1 0x20 PUSH1 0x4 DUP3 ADD MSTORE PUSH1 0x38 PUSH1 0x24 DUP3 ADD MSTORE PUSH32 0x555550535570677261646561626C653A206D757374206E6F742062652063616C PUSH1 0x44 DUP3 ADD MSTORE PUSH32 0x6C6564207468726F7567682064656C656761746563616C6C0000000000000000 PUSH1 0x64 DUP3 ADD MSTORE PUSH1 0x84 ADD PUSH2 0x69D JUMP JUMPDEST POP PUSH1 0x0 DUP1 MLOAD PUSH1 0x20 PUSH2 0x17A2 DUP4 CODECOPY DUP2 MLOAD SWAP2 MSTORE SWAP1 JUMP JUMPDEST PUSH2 0x8FB PUSH2 0xE5E JUMP JUMPDEST PUSH2 0x905 PUSH1 0x0 PUSH2 0x1030 JUMP JUMPDEST JUMP JUMPDEST PUSH1 0x0 SLOAD PUSH2 0x100 SWAP1 DIV PUSH1 0xFF AND ISZERO DUP1 DUP1 ISZERO PUSH2 0x927 JUMPI POP PUSH1 0x0 SLOAD PUSH1 0x1 PUSH1 0xFF SWAP1 SWAP2 AND LT JUMPDEST DUP1 PUSH2 0x941 JUMPI POP ADDRESS EXTCODESIZE ISZERO DUP1 ISZERO PUSH2 0x941 JUMPI POP PUSH1 0x0 SLOAD PUSH1 0xFF AND PUSH1 0x1 EQ JUMPDEST PUSH2 0x9A4 JUMPI PUSH1 0x40 MLOAD PUSH3 0x461BCD PUSH1 0xE5 SHL DUP2 MSTORE PUSH1 0x20 PUSH1 0x4 DUP3 ADD MSTORE PUSH1 0x2E PUSH1 0x24 DUP3 ADD MSTORE PUSH32 0x496E697469616C697A61626C653A20636F6E747261637420697320616C726561 PUSH1 0x44 DUP3 ADD MSTORE PUSH14 0x191E481A5B9A5D1A585B1A5E9959 PUSH1 0x92 SHL PUSH1 0x64 DUP3 ADD MSTORE PUSH1 0x84 ADD PUSH2 0x69D JUMP JUMPDEST PUSH1 0x0 DUP1 SLOAD PUSH1 0xFF NOT AND PUSH1 0x1 OR SWAP1 SSTORE DUP1 ISZERO PUSH2 0x9C7 JUMPI PUSH1 0x0 DUP1 SLOAD PUSH2 0xFF00 NOT AND PUSH2 0x100 OR SWAP1 SSTORE JUMPDEST PUSH1 0xC9 DUP1 SLOAD PUSH1 0x1 PUSH1 0x1 PUSH1 0xA0 SHL SUB NOT SWAP1 DUP2 AND PUSH20 0x5E8F3980E638FC5DF657E33194CE428936D635A0 OR SWAP1 SWAP2 SSTORE PUSH1 0xCA DUP1 SLOAD DUP3 AND PUSH20 0x58469D0D27AAE15CF611966B89E072E49D359097 OR SWAP1 SSTORE PUSH1 0xCB DUP1 SLOAD DUP3 AND PUSH20 0xB361D6D49694161C413E60E140309F20AF19CEFD OR SWAP1 SSTORE PUSH1 0xCC DUP1 SLOAD DUP3 AND PUSH20 0xDA0948903D239FB9EA25B73B573800630F863520 OR SWAP1 SSTORE PUSH1 0xCD DUP1 SLOAD DUP3 AND PUSH20 0xE7377EDE6E9AB141807959C80E2A1A3795D19173 OR SWAP1 SSTORE PUSH1 0xD0 DUP1 SLOAD SWAP1 SWAP2 AND PUSH20 0xDE2DB97D54A3C3B008A097B2260633E6CA7DB1AF OR SWAP1 SSTORE PUSH8 0x1BC16D674EC80000 PUSH1 0xD3 SSTORE PUSH2 0xA9B PUSH2 0x1082 JUMP JUMPDEST PUSH2 0xAA3 PUSH2 0x10B1 JUMP JUMPDEST DUP1 ISZERO PUSH2 0x73A JUMPI PUSH1 0x0 DUP1 SLOAD PUSH2 0xFF00 NOT AND SWAP1 SSTORE PUSH1 0x40 MLOAD PUSH1 0x1 DUP2 MSTORE PUSH32 0x7F26B83FF96E1F2B6A682F133852F6798A09C465DA95921460CEFB3847402498 SWAP1 PUSH1 0x20 ADD PUSH1 0x40 MLOAD DUP1 SWAP2 SUB SWAP1 LOG1 POP JUMP JUMPDEST PUSH1 0xCC SLOAD PUSH1 0x40 DUP1 MLOAD PUSH4 0x6FDDE03 PUSH1 0xE0 SHL DUP2 MSTORE SWAP1 MLOAD PUSH1 0x1 PUSH1 0x1 PUSH1 0xA0 SHL SUB SWAP1 SWAP3 AND SWAP2 PUSH1 0x60 SWAP2 DUP3 SWAP2 PUSH1 0x0 SWAP2 DUP6 SWAP2 PUSH4 0x6FDDE03 SWAP2 PUSH1 0x4 DUP1 DUP3 ADD SWAP3 DUP7 SWAP3 SWAP1 SWAP2 SWAP1 DUP3 SWAP1 SUB ADD DUP2 DUP7 GAS STATICCALL ISZERO DUP1 ISZERO PUSH2 0xB3E JUMPI RETURNDATASIZE PUSH1 0x0 DUP1 RETURNDATACOPY RETURNDATASIZE PUSH1 0x0 REVERT JUMPDEST POP POP POP POP PUSH1 0x40 MLOAD RETURNDATASIZE PUSH1 0x0 DUP3 RETURNDATACOPY PUSH1 0x1F RETURNDATASIZE SWAP1 DUP2 ADD PUSH1 0x1F NOT AND DUP3 ADD PUSH1 0x40 MSTORE PUSH2 0xB66 SWAP2 SWAP1 DUP2 ADD SWAP1 PUSH2 0x16A0 JUMP JUMPDEST SWAP3 POP PUSH1 0xCC PUSH1 0x0 SWAP1 SLOAD SWAP1 PUSH2 0x100 EXP SWAP1 DIV PUSH1 0x1 PUSH1 0x1 PUSH1 0xA0 SHL SUB AND PUSH1 0x1 PUSH1 0x1 PUSH1 0xA0 SHL SUB AND PUSH4 0x95D89B41 PUSH1 0x40 MLOAD DUP2 PUSH4 0xFFFFFFFF AND PUSH1 0xE0 SHL DUP2 MSTORE PUSH1 0x4 ADD PUSH1 0x0 PUSH1 0x40 MLOAD DUP1 DUP4 SUB DUP2 DUP7 GAS STATICCALL ISZERO DUP1 ISZERO PUSH2 0xBBB JUMPI RETURNDATASIZE PUSH1 0x0 DUP1 RETURNDATACOPY RETURNDATASIZE PUSH1 0x0 REVERT JUMPDEST POP POP POP POP PUSH1 0x40 MLOAD RETURNDATASIZE PUSH1 0x0 DUP3 RETURNDATACOPY PUSH1 0x1F RETURNDATASIZE SWAP1 DUP2 ADD PUSH1 0x1F NOT AND DUP3 ADD PUSH1 0x40 MSTORE PUSH2 0xBE3 SWAP2 SWAP1 DUP2 ADD SWAP1 PUSH2 0x16A0 JUMP JUMPDEST SWAP2 POP PUSH1 0xCC PUSH1 0x0 SWAP1 SLOAD SWAP1 PUSH2 0x100 EXP SWAP1 DIV PUSH1 0x1 PUSH1 0x1 PUSH1 0xA0 SHL SUB AND PUSH1 0x1 PUSH1 0x1 PUSH1 0xA0 SHL SUB AND PUSH4 0x313CE567 PUSH1 0x40 MLOAD DUP2 PUSH4 0xFFFFFFFF AND PUSH1 0xE0 SHL DUP2 MSTORE PUSH1 0x4 ADD PUSH1 0x20 PUSH1 0x40 MLOAD DUP1 DUP4 SUB DUP2 DUP7 GAS STATICCALL ISZERO DUP1 ISZERO PUSH2 0xC38 JUMPI RETURNDATASIZE PUSH1 0x0 DUP1 RETURNDATACOPY RETURNDATASIZE PUSH1 0x0 REVERT JUMPDEST POP POP POP POP PUSH1 0x40 MLOAD RETURNDATASIZE PUSH1 0x1F NOT PUSH1 0x1F DUP3 ADD AND DUP3 ADD DUP1 PUSH1 0x40 MSTORE POP DUP2 ADD SWAP1 PUSH2 0xC5C SWAP2 SWAP1 PUSH2 0x170E JUMP JUMPDEST SWAP1 POP SWAP1 SWAP2 SWAP3 SWAP4 JUMP JUMPDEST PUSH2 0xC6C PUSH2 0xE5E JUMP JUMPDEST PUSH1 0xD3 SSTORE JUMP JUMPDEST PUSH1 0xCD SLOAD PUSH1 0x40 DUP1 MLOAD PUSH4 0x6FDDE03 PUSH1 0xE0 SHL DUP2 MSTORE SWAP1 MLOAD PUSH1 0x1 PUSH1 0x1 PUSH1 0xA0 SHL SUB SWAP1 SWAP3 AND SWAP2 PUSH1 0x60 SWAP2 DUP3 SWAP2 PUSH1 0x0 SWAP2 DUP6 SWAP2 PUSH4 0x6FDDE03 SWAP2 PUSH1 0x4 DUP1 DUP3 ADD SWAP3 DUP7 SWAP3 SWAP1 SWAP2 SWAP1 DUP3 SWAP1 SUB ADD DUP2 DUP7 GAS STATICCALL ISZERO DUP1 ISZERO PUSH2 0xCC4 JUMPI RETURNDATASIZE PUSH1 0x0 DUP1 RETURNDATACOPY RETURNDATASIZE PUSH1 0x0 REVERT JUMPDEST POP POP POP POP PUSH1 0x40 MLOAD RETURNDATASIZE PUSH1 0x0 DUP3 RETURNDATACOPY PUSH1 0x1F RETURNDATASIZE SWAP1 DUP2 ADD PUSH1 0x1F NOT AND DUP3 ADD PUSH1 0x40 MSTORE PUSH2 0xCEC SWAP2 SWAP1 DUP2 ADD SWAP1 PUSH2 0x16A0 JUMP JUMPDEST SWAP3 POP PUSH1 0xCD PUSH1 0x0 SWAP1 SLOAD SWAP1 PUSH2 0x100 EXP SWAP1 DIV PUSH1 0x1 PUSH1 0x1 PUSH1 0xA0 SHL SUB AND PUSH1 0x1 PUSH1 0x1 PUSH1 0xA0 SHL SUB AND PUSH4 0x95D89B41 PUSH1 0x40 MLOAD DUP2 PUSH4 0xFFFFFFFF AND PUSH1 0xE0 SHL DUP2 MSTORE PUSH1 0x4 ADD PUSH1 0x0 PUSH1 0x40 MLOAD DUP1 DUP4 SUB DUP2 DUP7 GAS STATICCALL ISZERO DUP1 ISZERO PUSH2 0xD41 JUMPI RETURNDATASIZE PUSH1 0x0 DUP1 RETURNDATACOPY RETURNDATASIZE PUSH1 0x0 REVERT JUMPDEST POP POP POP POP PUSH1 0x40 MLOAD RETURNDATASIZE PUSH1 0x0 DUP3 RETURNDATACOPY PUSH1 0x1F RETURNDATASIZE SWAP1 DUP2 ADD PUSH1 0x1F NOT AND DUP3 ADD PUSH1 0x40 MSTORE PUSH2 0xD69 SWAP2 SWAP1 DUP2 ADD SWAP1 PUSH2 0x16A0 JUMP JUMPDEST SWAP2 POP PUSH1 0xCD PUSH1 0x0 SWAP1 SLOAD SWAP1 PUSH2 0x100 EXP SWAP1 DIV PUSH1 0x1 PUSH1 0x1 PUSH1 0xA0 SHL SUB AND PUSH1 0x1 PUSH1 0x1 PUSH1 0xA0 SHL SUB AND PUSH4 0x313CE567 PUSH1 0x40 MLOAD DUP2 PUSH4 0xFFFFFFFF AND PUSH1 0xE0 SHL DUP2 MSTORE PUSH1 0x4 ADD PUSH1 0x20 PUSH1 0x40 MLOAD DUP1 DUP4 SUB DUP2 DUP7 GAS STATICCALL ISZERO DUP1 ISZERO PUSH2 0xC38 JUMPI RETURNDATASIZE PUSH1 0x0 DUP1 RETURNDATACOPY RETURNDATASIZE PUSH1 0x0 REVERT JUMPDEST PUSH2 0xDC6 PUSH2 0xE5E JUMP JUMPDEST PUSH1 0xD5 DUP1 SLOAD PUSH1 0x1 PUSH1 0x1 PUSH1 0xA0 SHL SUB NOT AND PUSH1 0x1 PUSH1 0x1 PUSH1 0xA0 SHL SUB SWAP3 SWAP1 SWAP3 AND SWAP2 SWAP1 SWAP2 OR SWAP1 SSTORE JUMP JUMPDEST PUSH2 0xDF0 PUSH2 0xE5E JUMP JUMPDEST PUSH1 0x1 PUSH1 0x1 PUSH1 0xA0 SHL SUB DUP2 AND PUSH2 0xE55 JUMPI PUSH1 0x40 MLOAD PUSH3 0x461BCD PUSH1 0xE5 SHL DUP2 MSTORE PUSH1 0x20 PUSH1 0x4 DUP3 ADD MSTORE PUSH1 0x26 PUSH1 0x24 DUP3 ADD MSTORE PUSH32 0x4F776E61626C653A206E6577206F776E657220697320746865207A65726F2061 PUSH1 0x44 DUP3 ADD MSTORE PUSH6 0x646472657373 PUSH1 0xD0 SHL PUSH1 0x64 DUP3 ADD MSTORE PUSH1 0x84 ADD PUSH2 0x69D JUMP JUMPDEST PUSH2 0x73A DUP2 PUSH2 0x1030 JUMP JUMPDEST PUSH1 0x33 SLOAD PUSH1 0x1 PUSH1 0x1 PUSH1 0xA0 SHL SUB AND CALLER EQ PUSH2 0x905 JUMPI PUSH1 0x40 MLOAD PUSH3 0x461BCD PUSH1 0xE5 SHL DUP2 MSTORE PUSH1 0x20 PUSH1 0x4 DUP3 ADD DUP2 SWAP1 MSTORE PUSH1 0x24 DUP3 ADD MSTORE PUSH32 0x4F776E61626C653A2063616C6C6572206973206E6F7420746865206F776E6572 PUSH1 0x44 DUP3 ADD MSTORE PUSH1 0x64 ADD PUSH2 0x69D JUMP JUMPDEST PUSH2 0x73A PUSH2 0xE5E JUMP JUMPDEST PUSH32 0x4910FDFA16FED3260ED0E7147F7CC6DA11A60208B5B9406D12A635614FFD9143 SLOAD PUSH1 0xFF AND ISZERO PUSH2 0xEF8 JUMPI PUSH2 0xEF3 DUP4 PUSH2 0x10D8 JUMP JUMPDEST POP POP POP JUMP JUMPDEST DUP3 PUSH1 0x1 PUSH1 0x1 PUSH1 0xA0 SHL SUB AND PUSH4 0x52D1902D PUSH1 0x40 MLOAD DUP2 PUSH4 0xFFFFFFFF AND PUSH1 0xE0 SHL DUP2 MSTORE PUSH1 0x4 ADD PUSH1 0x20 PUSH1 0x40 MLOAD DUP1 DUP4 SUB DUP2 DUP7 GAS STATICCALL SWAP3 POP POP POP DUP1 ISZERO PUSH2 0xF52 JUMPI POP PUSH1 0x40 DUP1 MLOAD PUSH1 0x1F RETURNDATASIZE SWAP1 DUP2 ADD PUSH1 0x1F NOT AND DUP3 ADD SWAP1 SWAP3 MSTORE PUSH2 0xF4F SWAP2 DUP2 ADD SWAP1 PUSH2 0x170E JUMP JUMPDEST PUSH1 0x1 JUMPDEST PUSH2 0xFB5 JUMPI PUSH1 0x40 MLOAD PUSH3 0x461BCD PUSH1 0xE5 SHL DUP2 MSTORE PUSH1 0x20 PUSH1 0x4 DUP3 ADD MSTORE PUSH1 0x2E PUSH1 0x24 DUP3 ADD MSTORE PUSH32 0x45524331393637557067726164653A206E657720696D706C656D656E74617469 PUSH1 0x44 DUP3 ADD MSTORE PUSH14 0x6F6E206973206E6F742055555053 PUSH1 0x90 SHL PUSH1 0x64 DUP3 ADD MSTORE PUSH1 0x84 ADD PUSH2 0x69D JUMP JUMPDEST PUSH1 0x0 DUP1 MLOAD PUSH1 0x20 PUSH2 0x17A2 DUP4 CODECOPY DUP2 MLOAD SWAP2 MSTORE DUP2 EQ PUSH2 0x1024 JUMPI PUSH1 0x40 MLOAD PUSH3 0x461BCD PUSH1 0xE5 SHL DUP2 MSTORE PUSH1 0x20 PUSH1 0x4 DUP3 ADD MSTORE PUSH1 0x29 PUSH1 0x24 DUP3 ADD MSTORE PUSH32 0x45524331393637557067726164653A20756E737570706F727465642070726F78 PUSH1 0x44 DUP3 ADD MSTORE PUSH9 0x1A58589B1955555251 PUSH1 0xBA SHL PUSH1 0x64 DUP3 ADD MSTORE PUSH1 0x84 ADD PUSH2 0x69D JUMP JUMPDEST POP PUSH2 0xEF3 DUP4 DUP4 DUP4 PUSH2 0x1174 JUMP JUMPDEST PUSH1 0x33 DUP1 SLOAD PUSH1 0x1 PUSH1 0x1 PUSH1 0xA0 SHL SUB DUP4 DUP2 AND PUSH1 0x1 PUSH1 0x1 PUSH1 0xA0 SHL SUB NOT DUP4 AND DUP2 OR SWAP1 SWAP4 SSTORE PUSH1 0x40 MLOAD SWAP2 AND SWAP2 SWAP1 DUP3 SWAP1 PUSH32 0x8BE0079C531659141344CD1FD0A4F28419497F9722A3DAAFE3B4186F6B6457E0 SWAP1 PUSH1 0x0 SWAP1 LOG3 POP POP JUMP JUMPDEST PUSH1 0x0 SLOAD PUSH2 0x100 SWAP1 DIV PUSH1 0xFF AND PUSH2 0x10A9 JUMPI PUSH1 0x40 MLOAD PUSH3 0x461BCD PUSH1 0xE5 SHL DUP2 MSTORE PUSH1 0x4 ADD PUSH2 0x69D SWAP1 PUSH2 0x1727 JUMP JUMPDEST PUSH2 0x905 PUSH2 0x119F JUMP JUMPDEST PUSH1 0x0 SLOAD PUSH2 0x100 SWAP1 DIV PUSH1 0xFF AND PUSH2 0x905 JUMPI PUSH1 0x40 MLOAD PUSH3 0x461BCD PUSH1 0xE5 SHL DUP2 MSTORE PUSH1 0x4 ADD PUSH2 0x69D SWAP1 PUSH2 0x1727 JUMP JUMPDEST PUSH1 0x1 PUSH1 0x1 PUSH1 0xA0 SHL SUB DUP2 AND EXTCODESIZE PUSH2 0x1145 JUMPI PUSH1 0x40 MLOAD PUSH3 0x461BCD PUSH1 0xE5 SHL DUP2 MSTORE PUSH1 0x20 PUSH1 0x4 DUP3 ADD MSTORE PUSH1 0x2D PUSH1 0x24 DUP3 ADD MSTORE PUSH32 0x455243313936373A206E657720696D706C656D656E746174696F6E206973206E PUSH1 0x44 DUP3 ADD MSTORE PUSH13 0x1BDD08184818DBDB9D1C9858DD PUSH1 0x9A SHL PUSH1 0x64 DUP3 ADD MSTORE PUSH1 0x84 ADD PUSH2 0x69D JUMP JUMPDEST PUSH1 0x0 DUP1 MLOAD PUSH1 0x20 PUSH2 0x17A2 DUP4 CODECOPY DUP2 MLOAD SWAP2 MSTORE DUP1 SLOAD PUSH1 0x1 PUSH1 0x1 PUSH1 0xA0 SHL SUB NOT AND PUSH1 0x1 PUSH1 0x1 PUSH1 0xA0 SHL SUB SWAP3 SWAP1 SWAP3 AND SWAP2 SWAP1 SWAP2 OR SWAP1 SSTORE JUMP JUMPDEST PUSH2 0x117D DUP4 PUSH2 0x11CF JUMP JUMPDEST PUSH1 0x0 DUP3 MLOAD GT DUP1 PUSH2 0x118A JUMPI POP DUP1 JUMPDEST ISZERO PUSH2 0xEF3 JUMPI PUSH2 0x1199 DUP4 DUP4 PUSH2 0x120F JUMP JUMPDEST POP POP POP POP JUMP JUMPDEST PUSH1 0x0 SLOAD PUSH2 0x100 SWAP1 DIV PUSH1 0xFF AND PUSH2 0x11C6 JUMPI PUSH1 0x40 MLOAD PUSH3 0x461BCD PUSH1 0xE5 SHL DUP2 MSTORE PUSH1 0x4 ADD PUSH2 0x69D SWAP1 PUSH2 0x1727 JUMP JUMPDEST PUSH2 0x905 CALLER PUSH2 0x1030 JUMP JUMPDEST PUSH2 0x11D8 DUP2 PUSH2 0x10D8 JUMP JUMPDEST PUSH1 0x40 MLOAD PUSH1 0x1 PUSH1 0x1 PUSH1 0xA0 SHL SUB DUP3 AND SWAP1 PUSH32 0xBC7CD75A20EE27FD9ADEBAB32041F755214DBC6BFFA90CC0225B39DA2E5C2D3B SWAP1 PUSH1 0x0 SWAP1 LOG2 POP JUMP JUMPDEST PUSH1 0x60 PUSH1 0x1 PUSH1 0x1 PUSH1 0xA0 SHL SUB DUP4 AND EXTCODESIZE PUSH2 0x1277 JUMPI PUSH1 0x40 MLOAD PUSH3 0x461BCD PUSH1 0xE5 SHL DUP2 MSTORE PUSH1 0x20 PUSH1 0x4 DUP3 ADD MSTORE PUSH1 0x26 PUSH1 0x24 DUP3 ADD MSTORE PUSH32 0x416464726573733A2064656C65676174652063616C6C20746F206E6F6E2D636F PUSH1 0x44 DUP3 ADD MSTORE PUSH6 0x1B9D1C9858DD PUSH1 0xD2 SHL PUSH1 0x64 DUP3 ADD MSTORE PUSH1 0x84 ADD PUSH2 0x69D JUMP JUMPDEST PUSH1 0x0 DUP1 DUP5 PUSH1 0x1 PUSH1 0x1 PUSH1 0xA0 SHL SUB AND DUP5 PUSH1 0x40 MLOAD PUSH2 0x1292 SWAP2 SWAP1 PUSH2 0x1772 JUMP JUMPDEST PUSH1 0x0 PUSH1 0x40 MLOAD DUP1 DUP4 SUB DUP2 DUP6 GAS DELEGATECALL SWAP2 POP POP RETURNDATASIZE DUP1 PUSH1 0x0 DUP2 EQ PUSH2 0x12CD JUMPI PUSH1 0x40 MLOAD SWAP2 POP PUSH1 0x1F NOT PUSH1 0x3F RETURNDATASIZE ADD AND DUP3 ADD PUSH1 0x40 MSTORE RETURNDATASIZE DUP3 MSTORE RETURNDATASIZE PUSH1 0x0 PUSH1 0x20 DUP5 ADD RETURNDATACOPY PUSH2 0x12D2 JUMP JUMPDEST PUSH1 0x60 SWAP2 POP JUMPDEST POP SWAP2 POP SWAP2 POP PUSH2 0x12FA DUP3 DUP3 PUSH1 0x40 MLOAD DUP1 PUSH1 0x60 ADD PUSH1 0x40 MSTORE DUP1 PUSH1 0x27 DUP2 MSTORE PUSH1 0x20 ADD PUSH2 0x17C2 PUSH1 0x27 SWAP2 CODECOPY PUSH2 0x1303 JUMP JUMPDEST SWAP6 SWAP5 POP POP POP POP POP JUMP JUMPDEST PUSH1 0x60 DUP4 ISZERO PUSH2 0x1312 JUMPI POP DUP2 PUSH2 0x131C JUMP JUMPDEST PUSH2 0x131C DUP4 DUP4 PUSH2 0x1323 JUMP JUMPDEST SWAP4 SWAP3 POP POP POP JUMP JUMPDEST DUP2 MLOAD ISZERO PUSH2 0x1333 JUMPI DUP2 MLOAD DUP1 DUP4 PUSH1 0x20 ADD REVERT JUMPDEST DUP1 PUSH1 0x40 MLOAD PUSH3 0x461BCD PUSH1 0xE5 SHL DUP2 MSTORE PUSH1 0x4 ADD PUSH2 0x69D SWAP2 SWAP1 PUSH2 0x178E JUMP JUMPDEST DUP1 CALLDATALOAD PUSH1 0x1 PUSH1 0x1 PUSH1 0xA0 SHL SUB DUP2 AND DUP2 EQ PUSH2 0x1364 JUMPI PUSH1 0x0 DUP1 REVERT JUMPDEST SWAP2 SWAP1 POP JUMP JUMPDEST PUSH1 0x0 DUP1 PUSH1 0x0 DUP1 PUSH1 0x0 DUP1 PUSH1 0x0 DUP1 PUSH2 0x100 DUP10 DUP12 SUB SLT ISZERO PUSH2 0x1386 JUMPI PUSH1 0x0 DUP1 REVERT JUMPDEST PUSH2 0x138F DUP10 PUSH2 0x134D JUMP JUMPDEST SWAP8 POP PUSH2 0x139D PUSH1 0x20 DUP11 ADD PUSH2 0x134D JUMP JUMPDEST SWAP7 POP PUSH2 0x13AB PUSH1 0x40 DUP11 ADD PUSH2 0x134D JUMP JUMPDEST SWAP6 POP PUSH2 0x13B9 PUSH1 0x60 DUP11 ADD PUSH2 0x134D JUMP JUMPDEST SWAP5 POP PUSH2 0x13C7 PUSH1 0x80 DUP11 ADD PUSH2 0x134D JUMP JUMPDEST SWAP4 POP PUSH2 0x13D5 PUSH1 0xA0 DUP11 ADD PUSH2 0x134D JUMP JUMPDEST SWAP3 POP PUSH2 0x13E3 PUSH1 0xC0 DUP11 ADD PUSH2 0x134D JUMP JUMPDEST SWAP2 POP PUSH2 0x13F1 PUSH1 0xE0 DUP11 ADD PUSH2 0x134D JUMP JUMPDEST SWAP1 POP SWAP3 SWAP6 SWAP9 POP SWAP3 SWAP6 SWAP9 SWAP1 SWAP4 SWAP7 POP JUMP JUMPDEST PUSH1 0x0 PUSH1 0x20 DUP3 DUP5 SUB SLT ISZERO PUSH2 0x1412 JUMPI PUSH1 0x0 DUP1 REVERT JUMPDEST PUSH2 0x131C DUP3 PUSH2 0x134D JUMP JUMPDEST PUSH1 0x0 DUP1 PUSH1 0x40 DUP4 DUP6 SUB SLT ISZERO PUSH2 0x142E JUMPI PUSH1 0x0 DUP1 REVERT JUMPDEST PUSH2 0x1437 DUP4 PUSH2 0x134D JUMP JUMPDEST SWAP2 POP PUSH1 0x20 DUP4 ADD CALLDATALOAD DUP1 ISZERO ISZERO DUP2 EQ PUSH2 0x144C JUMPI PUSH1 0x0 DUP1 REVERT JUMPDEST DUP1 SWAP2 POP POP SWAP3 POP SWAP3 SWAP1 POP JUMP JUMPDEST PUSH4 0x4E487B71 PUSH1 0xE0 SHL PUSH1 0x0 MSTORE PUSH1 0x41 PUSH1 0x4 MSTORE PUSH1 0x24 PUSH1 0x0 REVERT JUMPDEST PUSH1 0x40 MLOAD PUSH1 0x1F DUP3 ADD PUSH1 0x1F NOT AND DUP2 ADD PUSH8 0xFFFFFFFFFFFFFFFF DUP2 GT DUP3 DUP3 LT OR ISZERO PUSH2 0x1496 JUMPI PUSH2 0x1496 PUSH2 0x1457 JUMP JUMPDEST PUSH1 0x40 MSTORE SWAP2 SWAP1 POP JUMP JUMPDEST PUSH1 0x0 PUSH8 0xFFFFFFFFFFFFFFFF DUP3 GT ISZERO PUSH2 0x14B8 JUMPI PUSH2 0x14B8 PUSH2 0x1457 JUMP JUMPDEST POP PUSH1 0x1F ADD PUSH1 0x1F NOT AND PUSH1 0x20 ADD SWAP1 JUMP JUMPDEST PUSH1 0x0 DUP1 PUSH1 0x40 DUP4 DUP6 SUB SLT ISZERO PUSH2 0x14D9 JUMPI PUSH1 0x0 DUP1 REVERT JUMPDEST PUSH2 0x14E2 DUP4 PUSH2 0x134D JUMP JUMPDEST SWAP2 POP PUSH1 0x20 DUP4 ADD CALLDATALOAD PUSH8 0xFFFFFFFFFFFFFFFF DUP2 GT ISZERO PUSH2 0x14FE JUMPI PUSH1 0x0 DUP1 REVERT JUMPDEST DUP4 ADD PUSH1 0x1F DUP2 ADD DUP6 SGT PUSH2 0x150F JUMPI PUSH1 0x0 DUP1 REVERT JUMPDEST DUP1 CALLDATALOAD PUSH2 0x1522 PUSH2 0x151D DUP3 PUSH2 0x149E JUMP JUMPDEST PUSH2 0x146D JUMP JUMPDEST DUP2 DUP2 MSTORE DUP7 PUSH1 0x20 DUP4 DUP6 ADD ADD GT ISZERO PUSH2 0x1537 JUMPI PUSH1 0x0 DUP1 REVERT JUMPDEST DUP2 PUSH1 0x20 DUP5 ADD PUSH1 0x20 DUP4 ADD CALLDATACOPY PUSH1 0x0 PUSH1 0x20 DUP4 DUP4 ADD ADD MSTORE DUP1 SWAP4 POP POP POP POP SWAP3 POP SWAP3 SWAP1 POP JUMP JUMPDEST PUSH1 0x0 JUMPDEST DUP4 DUP2 LT ISZERO PUSH2 0x1572 JUMPI DUP2 DUP2 ADD MLOAD DUP4 DUP3 ADD MSTORE PUSH1 0x20 ADD PUSH2 0x155A JUMP JUMPDEST POP POP PUSH1 0x0 SWAP2 ADD MSTORE JUMP JUMPDEST PUSH1 0x0 DUP2 MLOAD DUP1 DUP5 MSTORE PUSH2 0x1593 DUP2 PUSH1 0x20 DUP7 ADD PUSH1 0x20 DUP7 ADD PUSH2 0x1557 JUMP JUMPDEST PUSH1 0x1F ADD PUSH1 0x1F NOT AND SWAP3 SWAP1 SWAP3 ADD PUSH1 0x20 ADD SWAP3 SWAP2 POP POP JUMP JUMPDEST PUSH1 0x1 PUSH1 0x1 PUSH1 0xA0 SHL SUB DUP6 AND DUP2 MSTORE PUSH1 0x80 PUSH1 0x20 DUP3 ADD DUP2 SWAP1 MSTORE PUSH1 0x0 SWAP1 PUSH2 0x15CB SWAP1 DUP4 ADD DUP7 PUSH2 0x157B JUMP JUMPDEST DUP3 DUP2 SUB PUSH1 0x40 DUP5 ADD MSTORE PUSH2 0x15DD DUP2 DUP7 PUSH2 0x157B JUMP JUMPDEST SWAP2 POP POP DUP3 PUSH1 0x60 DUP4 ADD MSTORE SWAP6 SWAP5 POP POP POP POP POP JUMP JUMPDEST PUSH1 0x0 PUSH1 0x20 DUP3 DUP5 SUB SLT ISZERO PUSH2 0x1601 JUMPI PUSH1 0x0 DUP1 REVERT JUMPDEST POP CALLDATALOAD SWAP2 SWAP1 POP JUMP JUMPDEST PUSH1 0x20 DUP1 DUP3 MSTORE PUSH1 0x2C SWAP1 DUP3 ADD MSTORE PUSH32 0x46756E6374696F6E206D7573742062652063616C6C6564207468726F75676820 PUSH1 0x40 DUP3 ADD MSTORE PUSH12 0x19195B1959D85D1958D85B1B PUSH1 0xA2 SHL PUSH1 0x60 DUP3 ADD MSTORE PUSH1 0x80 ADD SWAP1 JUMP JUMPDEST PUSH1 0x20 DUP1 DUP3 MSTORE PUSH1 0x2C SWAP1 DUP3 ADD MSTORE PUSH32 0x46756E6374696F6E206D7573742062652063616C6C6564207468726F75676820 PUSH1 0x40 DUP3 ADD MSTORE PUSH12 0x6163746976652070726F7879 PUSH1 0xA0 SHL PUSH1 0x60 DUP3 ADD MSTORE PUSH1 0x80 ADD SWAP1 JUMP JUMPDEST PUSH1 0x0 PUSH1 0x20 DUP3 DUP5 SUB SLT ISZERO PUSH2 0x16B2 JUMPI PUSH1 0x0 DUP1 REVERT JUMPDEST DUP2 MLOAD PUSH8 0xFFFFFFFFFFFFFFFF DUP2 GT ISZERO PUSH2 0x16C9 JUMPI PUSH1 0x0 DUP1 REVERT JUMPDEST DUP3 ADD PUSH1 0x1F DUP2 ADD DUP5 SGT PUSH2 0x16DA JUMPI PUSH1 0x0 DUP1 REVERT JUMPDEST DUP1 MLOAD PUSH2 0x16E8 PUSH2 0x151D DUP3 PUSH2 0x149E JUMP JUMPDEST DUP2 DUP2 MSTORE DUP6 PUSH1 0x20 DUP4 DUP6 ADD ADD GT ISZERO PUSH2 0x16FD JUMPI PUSH1 0x0 DUP1 REVERT JUMPDEST PUSH2 0x12FA DUP3 PUSH1 0x20 DUP4 ADD PUSH1 0x20 DUP7 ADD PUSH2 0x1557 JUMP JUMPDEST PUSH1 0x0 PUSH1 0x20 DUP3 DUP5 SUB SLT ISZERO PUSH2 0x1720 JUMPI PUSH1 0x0 DUP1 REVERT JUMPDEST POP MLOAD SWAP2 SWAP1 POP JUMP JUMPDEST PUSH1 0x20 DUP1 DUP3 MSTORE PUSH1 0x2B SWAP1 DUP3 ADD MSTORE PUSH32 0x496E697469616C697A61626C653A20636F6E7472616374206973206E6F742069 PUSH1 0x40 DUP3 ADD MSTORE PUSH11 0x6E697469616C697A696E67 PUSH1 0xA8 SHL PUSH1 0x60 DUP3 ADD MSTORE PUSH1 0x80 ADD SWAP1 JUMP JUMPDEST PUSH1 0x0 DUP3 MLOAD PUSH2 0x1784 DUP2 DUP5 PUSH1 0x20 DUP8 ADD PUSH2 0x1557 JUMP JUMPDEST SWAP2 SWAP1 SWAP2 ADD SWAP3 SWAP2 POP POP JUMP JUMPDEST PUSH1 0x20 DUP2 MSTORE PUSH1 0x0 PUSH2 0x131C PUSH1 0x20 DUP4 ADD DUP5 PUSH2 0x157B JUMP INVALID CALLDATASIZE ADDMOD SWAP5 LOG1 EXTCODESIZE LOG1 LOG3 0x21 MOD PUSH8 0xC828492DB98DCA3E KECCAK256 PUSH23 0xCC3735A920A3CA505D382BBC416464726573733A206C6F PUSH24 0x2D6C6576656C2064656C65676174652063616C6C20666169 PUSH13 0x6564A2646970667358221220FE 0xC3 0x4E 0xF7 0xE8 OR PUSH21 0xBC2FBEF9A620E2D16D3B3D58B81B194878C7A00477 PUSH13 0xDAD6D164736F6C634300081100 CALLER "},"methodIdentifiers":{"adminFees()":"4bc92d6c","anusdContract()":"b70cc4c1","anusdContractInfo()":"bf2f002e","getMonthlyRewardsContract()":"b264bbab","initialize()":"8129fc1c","isAdmin(address)":"24d7806c","owner()":"8da5cb5b","presaleContract()":"63d9df85","proxiableUUID()":"52d1902d","referralContract()":"7dad19db","renounceOwnership()":"715018a6","rewardContract()":"6ea69d62","rewardContractOwner()":"45746dd7","setAdmin(address,bool)":"4b0bddd2","setAdminFees(uint256)":"b0616c18","setContractAddress(address,address,address,address,address,address,address,address)":"211dd86a","setMonthlyRewardsContract(address)":"d809e1da","stakingContract()":"ee99205c","tokenContract()":"55a373d6","tokenContractInfo()":"878e17df","tokenContractOwner()":"ec31250f","transferOwnership(address)":"f2fde38b","uniswapV2RouterContract()":"8290c4a6","upgradeTo(address)":"3659cfe6","upgradeToAndCall(address,bytes)":"4f1ef286","usdtContract()":"61150923","variableContract()":"a50b44bc"}},"storageLayout":{"storage":[{"astId":573,"contract":"contracts/VariablesUpgradeable.sol:VariablesUpgradeable","label":"_initialized","offset":0,"slot":"0","type":"t_uint8"},{"astId":576,"contract":"contracts/VariablesUpgradeable.sol:VariablesUpgradeable","label":"_initializing","offset":1,"slot":"0","type":"t_bool"},{"astId":1401,"contract":"contracts/VariablesUpgradeable.sol:VariablesUpgradeable","label":"__gap","offset":0,"slot":"1","type":"t_array(t_uint256)50_storage"},{"astId":56,"contract":"contracts/VariablesUpgradeable.sol:VariablesUpgradeable","label":"_owner","offset":0,"slot":"51","type":"t_address"},{"astId":176,"contract":"contracts/VariablesUpgradeable.sol:VariablesUpgradeable","label":"__gap","offset":0,"slot":"52","type":"t_array(t_uint256)49_storage"},{"astId":555,"contract":"contracts/VariablesUpgradeable.sol:VariablesUpgradeable","label":"__gap","offset":0,"slot":"101","type":"t_array(t_uint256)50_storage"},{"astId":870,"contract":"contracts/VariablesUpgradeable.sol:VariablesUpgradeable","label":"__gap","offset":0,"slot":"151","type":"t_array(t_uint256)50_storage"},{"astId":5602,"contract":"contracts/VariablesUpgradeable.sol:VariablesUpgradeable","label":"_presaleContract","offset":0,"slot":"201","type":"t_address"},{"astId":5604,"contract":"contracts/VariablesUpgradeable.sol:VariablesUpgradeable","label":"_referralContract","offset":0,"slot":"202","type":"t_address"},{"astId":5606,"contract":"contracts/VariablesUpgradeable.sol:VariablesUpgradeable","label":"_stakingContract","offset":0,"slot":"203","type":"t_address"},{"astId":5608,"contract":"contracts/VariablesUpgradeable.sol:VariablesUpgradeable","label":"_tokenContract","offset":0,"slot":"204","type":"t_address"},{"astId":5610,"contract":"contracts/VariablesUpgradeable.sol:VariablesUpgradeable","label":"_anusdContract","offset":0,"slot":"205","type":"t_address"},{"astId":5612,"contract":"contracts/VariablesUpgradeable.sol:VariablesUpgradeable","label":"_usdtContract","offset":0,"slot":"206","type":"t_address"},{"astId":5614,"contract":"contracts/VariablesUpgradeable.sol:VariablesUpgradeable","label":"_rewardContract","offset":0,"slot":"207","type":"t_address"},{"astId":5616,"contract":"contracts/VariablesUpgradeable.sol:VariablesUpgradeable","label":"_uniswapV2Router","offset":0,"slot":"208","type":"t_address"},{"astId":5618,"contract":"contracts/VariablesUpgradeable.sol:VariablesUpgradeable","label":"_tokenContractOwner","offset":0,"slot":"209","type":"t_address"},{"astId":5620,"contract":"contracts/VariablesUpgradeable.sol:VariablesUpgradeable","label":"_rewardContractOwner","offset":0,"slot":"210","type":"t_address"},{"astId":5622,"contract":"contracts/VariablesUpgradeable.sol:VariablesUpgradeable","label":"_adminFees","offset":0,"slot":"211","type":"t_uint256"},{"astId":5626,"contract":"contracts/VariablesUpgradeable.sol:VariablesUpgradeable","label":"_isAdmin","offset":0,"slot":"212","type":"t_mapping(t_address,t_bool)"},{"astId":5628,"contract":"contracts/VariablesUpgradeable.sol:VariablesUpgradeable","label":"_monthlyRewardsContract","offset":0,"slot":"213","type":"t_address"}],"types":{"t_address":{"encoding":"inplace","label":"address","numberOfBytes":"20"},"t_array(t_uint256)49_storage":{"base":"t_uint256","encoding":"inplace","label":"uint256[49]","numberOfBytes":"1568"},"t_array(t_uint256)50_storage":{"base":"t_uint256","encoding":"inplace","label":"uint256[50]","numberOfBytes":"1600"},"t_bool":{"encoding":"inplace","label":"bool","numberOfBytes":"1"},"t_mapping(t_address,t_bool)":{"encoding":"mapping","key":"t_address","label":"mapping(address => bool)","numberOfBytes":"32","value":"t_bool"},"t_uint256":{"encoding":"inplace","label":"uint256","numberOfBytes":"32"},"t_uint8":{"encoding":"inplace","label":"uint8","numberOfBytes":"1"}}}}}}