{"contracts/PresaleUpgradeable.sol":{"PresaleUpgradeable":{"abi":[{"anonymous":false,"inputs":[{"indexed":false,"internalType":"address","name":"previousAdmin","type":"address"},{"indexed":false,"internalType":"address","name":"newAdmin","type":"address"}],"name":"AdminChanged","type":"event"},{"anonymous":false,"inputs":[{"indexed":true,"internalType":"address","name":"beacon","type":"address"}],"name":"BeaconUpgraded","type":"event"},{"anonymous":false,"inputs":[{"indexed":false,"internalType":"uint8","name":"version","type":"uint8"}],"name":"Initialized","type":"event"},{"anonymous":false,"inputs":[{"indexed":true,"internalType":"address","name":"previousOwner","type":"address"},{"indexed":true,"internalType":"address","name":"newOwner","type":"address"}],"name":"OwnershipTransferred","type":"event"},{"anonymous":false,"inputs":[{"indexed":false,"internalType":"address","name":"account","type":"address"}],"name":"Paused","type":"event"},{"anonymous":false,"inputs":[{"indexed":true,"internalType":"address","name":"to","type":"address"},{"indexed":true,"internalType":"uint256","name":"tokenValue","type":"uint256"},{"indexed":true,"internalType":"address","name":"rewardTokenContract","type":"address"}],"name":"RewardTokenDistributed","type":"event"},{"anonymous":false,"inputs":[{"indexed":true,"internalType":"address","name":"from","type":"address"},{"indexed":true,"internalType":"uint256","name":"tokenValue","type":"uint256"},{"indexed":true,"internalType":"uint256","name":"ethValue","type":"uint256"},{"indexed":false,"internalType":"string","name":"currency","type":"string"}],"name":"TokenPurchased","type":"event"},{"anonymous":false,"inputs":[{"indexed":false,"internalType":"address","name":"account","type":"address"}],"name":"Unpaused","type":"event"},{"anonymous":false,"inputs":[{"indexed":true,"internalType":"address","name":"implementation","type":"address"}],"name":"Upgraded","type":"event"},{"inputs":[{"internalType":"address","name":"_referrer","type":"address"},{"internalType":"uint256","name":"_duration","type":"uint256"}],"name":"BuyWithETH","outputs":[],"stateMutability":"payable","type":"function"},{"inputs":[{"internalType":"address","name":"_referrer","type":"address"},{"internalType":"uint256","name":"_value","type":"uint256"},{"internalType":"uint256","name":"_duration","type":"uint256"}],"name":"BuyWithUSD","outputs":[],"stateMutability":"nonpayable","type":"function"},{"inputs":[],"name":"getETH_USDPrice","outputs":[{"internalType":"uint256","name":"","type":"uint256"}],"stateMutability":"view","type":"function"},{"inputs":[],"name":"getPresaleAnalystics","outputs":[{"internalType":"uint256","name":"tokenSold","type":"uint256"},{"internalType":"uint256","name":"ethRaised","type":"uint256"},{"internalType":"uint256","name":"USDRaised","type":"uint256"}],"stateMutability":"view","type":"function"},{"inputs":[],"name":"getPriceFeedOracleAddress","outputs":[{"internalType":"address","name":"","type":"address"}],"stateMutability":"view","type":"function"},{"inputs":[],"name":"getPricePerUSD","outputs":[{"internalType":"uint256","name":"","type":"uint256"}],"stateMutability":"view","type":"function"},{"inputs":[],"name":"getReferralContract","outputs":[{"internalType":"address","name":"","type":"address"}],"stateMutability":"view","type":"function"},{"inputs":[],"name":"getRewardOwners","outputs":[{"internalType":"address","name":"","type":"address"}],"stateMutability":"view","type":"function"},{"inputs":[],"name":"getRewardPerUSD","outputs":[{"internalType":"uint256","name":"","type":"uint256"}],"stateMutability":"view","type":"function"},{"inputs":[],"name":"getRewardTokenContract","outputs":[{"internalType":"address","name":"tokenAddress","type":"address"},{"internalType":"string","name":"name","type":"string"},{"internalType":"uint256","name":"decimals","type":"uint256"},{"internalType":"uint256","name":"totalSupply","type":"uint256"}],"stateMutability":"view","type":"function"},{"inputs":[],"name":"getStakingContract","outputs":[{"internalType":"address","name":"","type":"address"}],"stateMutability":"view","type":"function"},{"inputs":[],"name":"getTokenContract","outputs":[{"internalType":"address","name":"tokenAddress","type":"address"},{"internalType":"string","name":"name","type":"string"},{"internalType":"uint256","name":"decimals","type":"uint256"},{"internalType":"uint256","name":"totalSupply","type":"uint256"}],"stateMutability":"view","type":"function"},{"inputs":[],"name":"getTokenSeller","outputs":[{"internalType":"address","name":"","type":"address"}],"stateMutability":"view","type":"function"},{"inputs":[],"name":"getUSDContract","outputs":[{"internalType":"address","name":"USDAddress","type":"address"},{"internalType":"string","name":"USDName","type":"string"},{"internalType":"uint256","name":"USDDecimals","type":"uint256"},{"internalType":"uint256","name":"USDSupply","type":"uint256"}],"stateMutability":"view","type":"function"},{"inputs":[],"name":"initialize","outputs":[],"stateMutability":"nonpayable","type":"function"},{"inputs":[],"name":"isEnabled","outputs":[{"internalType":"bool","name":"stake","type":"bool"},{"internalType":"bool","name":"referral","type":"bool"},{"internalType":"bool","name":"reward","type":"bool"}],"stateMutability":"view","type":"function"},{"inputs":[],"name":"minContribution","outputs":[{"internalType":"uint256","name":"minContETH","type":"uint256"},{"internalType":"uint256","name":"minContUSD","type":"uint256"}],"stateMutability":"view","type":"function"},{"inputs":[],"name":"owner","outputs":[{"internalType":"address","name":"","type":"address"}],"stateMutability":"view","type":"function"},{"inputs":[],"name":"pauseAdmin","outputs":[],"stateMutability":"nonpayable","type":"function"},{"inputs":[],"name":"paused","outputs":[{"internalType":"bool","name":"","type":"bool"}],"stateMutability":"view","type":"function"},{"inputs":[],"name":"proxiableUUID","outputs":[{"internalType":"bytes32","name":"","type":"bytes32"}],"stateMutability":"view","type":"function"},{"inputs":[],"name":"renounceOwnership","outputs":[],"stateMutability":"nonpayable","type":"function"},{"inputs":[{"internalType":"bool","name":"_bool","type":"bool"}],"name":"setBuyAndStakeAdmin","outputs":[{"internalType":"bool","name":"","type":"bool"}],"stateMutability":"nonpayable","type":"function"},{"inputs":[{"internalType":"uint256","name":"_value","type":"uint256"}],"name":"setMinContributionUSDAdmin","outputs":[{"internalType":"bool","name":"","type":"bool"}],"stateMutability":"nonpayable","type":"function"},{"inputs":[{"internalType":"bool","name":"_bool","type":"bool"}],"name":"setPayReferralAdmin","outputs":[{"internalType":"bool","name":"","type":"bool"}],"stateMutability":"nonpayable","type":"function"},{"inputs":[{"internalType":"bool","name":"_bool","type":"bool"}],"name":"setPayRewardTokensAdmin","outputs":[],"stateMutability":"nonpayable","type":"function"},{"inputs":[{"internalType":"address","name":"_address","type":"address"}],"name":"setPriceFeedOracleAddressAdmin","outputs":[{"internalType":"bool","name":"","type":"bool"}],"stateMutability":"nonpayable","type":"function"},{"inputs":[{"internalType":"uint256","name":"_value","type":"uint256"}],"name":"setPricePerUSDAdmin","outputs":[{"internalType":"bool","name":"","type":"bool"}],"stateMutability":"nonpayable","type":"function"},{"inputs":[{"internalType":"address","name":"_address","type":"address"}],"name":"setReferralContract","outputs":[{"internalType":"address","name":"","type":"address"}],"stateMutability":"nonpayable","type":"function"},{"inputs":[{"internalType":"address","name":"_address","type":"address"}],"name":"setRewardOwner","outputs":[],"stateMutability":"nonpayable","type":"function"},{"inputs":[{"internalType":"uint256","name":"_value","type":"uint256"}],"name":"setRewardPerUSDAdmin","outputs":[{"internalType":"bool","name":"","type":"bool"}],"stateMutability":"nonpayable","type":"function"},{"inputs":[{"internalType":"address","name":"_tokenContractAddress","type":"address"}],"name":"setRewardTokenContract","outputs":[],"stateMutability":"nonpayable","type":"function"},{"inputs":[{"internalType":"address","name":"_address","type":"address"}],"name":"setStakingContractAdmin","outputs":[{"internalType":"bool","name":"","type":"bool"}],"stateMutability":"nonpayable","type":"function"},{"inputs":[{"internalType":"address","name":"_address","type":"address"}],"name":"setTokenContractAdmin","outputs":[{"internalType":"bool","name":"","type":"bool"}],"stateMutability":"nonpayable","type":"function"},{"inputs":[{"internalType":"address","name":"_address","type":"address"}],"name":"setTokenSeller","outputs":[],"stateMutability":"nonpayable","type":"function"},{"inputs":[{"internalType":"address","name":"_address","type":"address"}],"name":"setUSDContractAdmin","outputs":[{"internalType":"bool","name":"","type":"bool"}],"stateMutability":"nonpayable","type":"function"},{"inputs":[{"internalType":"address","name":"_address","type":"address"},{"internalType":"uint256","name":"_value","type":"uint256"}],"name":"transferETH","outputs":[],"stateMutability":"nonpayable","type":"function"},{"inputs":[{"internalType":"address","name":"newOwner","type":"address"}],"name":"transferOwnership","outputs":[],"stateMutability":"nonpayable","type":"function"},{"inputs":[],"name":"unpauseAdmin","outputs":[],"stateMutability":"nonpayable","type":"function"},{"inputs":[{"internalType":"address","name":"newImplementation","type":"address"}],"name":"upgradeTo","outputs":[],"stateMutability":"nonpayable","type":"function"},{"inputs":[{"internalType":"address","name":"newImplementation","type":"address"},{"internalType":"bytes","name":"data","type":"bytes"}],"name":"upgradeToAndCall","outputs":[],"stateMutability":"payable","type":"function"},{"inputs":[],"name":"withdrawETH","outputs":[],"stateMutability":"nonpayable","type":"function"},{"inputs":[{"internalType":"address","name":"_tokenAddress","type":"address"},{"internalType":"uint256","name":"_value","type":"uint256"}],"name":"withdrawTokens","outputs":[],"stateMutability":"nonpayable","type":"function"},{"stateMutability":"payable","type":"receive"}],"evm":{"bytecode":{"linkReferences":{},"object":"60a06040523060805234801561001457600080fd5b50608051612e4061004c60003960008181610a2301528181610a6c01528181610b5a01528181610b9a0152610c2d0152612e406000f3fe6080604052600436106102605760003560e01c80637a22393b11610144578063ab573d66116100b6578063db5184e61161007a578063db5184e614610708578063dc245e121461071d578063e086e5ec1461073d578063e9bd186d14610752578063f067c19914610772578063f2fde38b1461078857600080fd5b8063ab573d6614610668578063ac6f6a2d14610688578063b68e1e46146106a8578063c94d6b1f146106c8578063d42cedfb146106e857600080fd5b80638da5cb5b116101085780638da5cb5b146105b85780638e68dce4146105d657806394a73f59146105f4578063a5bac94314610609578063a821b0691461061e578063aaffadf31461063e57600080fd5b80637a22393b146105255780637b1a4909146105455780637ce1757d146105655780637e76a70c146105835780638129fc1c146105a357600080fd5b80633958b844116101dd57806357526c33116101a157806357526c331461046d5780635845394b146104805780635c975abb1461049f57806365eb204d146104b75780636aa633b6146104cc578063715018a61461051057600080fd5b80633958b844146103e5578063472d561d146104055780634809b429146104255780634f1ef2861461044557806352d1902d1461045857600080fd5b806323442c601161022457806323442c601461033957806328b7bede146103575780632f11d6531461037c5780633659cfe61461039157806338f992c9146103b157600080fd5b806306ad5a471461026c57806306b091f9146102a957806308fcfbbe146102cb57806310bd7ab5146102eb57806314d09b941461031b57600080fd5b3661026757005b600080fd5b34801561027857600080fd5b5061028c610287366004612719565b6107a8565b6040516001600160a01b0390911681526020015b60405180910390f35b3480156102b557600080fd5b506102c96102c4366004612734565b6107d5565b005b3480156102d757600080fd5b506102c96102e6366004612719565b610853565b3480156102f757600080fd5b5061030b61030636600461275e565b61087e565b60405190151581526020016102a0565b34801561032757600080fd5b5060fb546001600160a01b031661028c565b34801561034557600080fd5b5060ff546001600160a01b031661028c565b34801561036357600080fd5b5061036c610892565b6040516102a094939291906127c7565b34801561038857600080fd5b506102c9610a07565b34801561039d57600080fd5b506102c96103ac366004612719565b610a19565b3480156103bd57600080fd5b50610106546101075461010854604080519384526020840192909252908201526060016102a0565b3480156103f157600080fd5b506102c961040036600461280c565b610b01565b34801561041157600080fd5b50610103545b6040519081526020016102a0565b34801561043157600080fd5b506102c9610440366004612719565b610b26565b6102c9610453366004612898565b610b50565b34801561046457600080fd5b50610417610c20565b6102c961047b366004612734565b610cd3565b34801561048c57600080fd5b50610102546001600160a01b031661028c565b3480156104ab57600080fd5b5060655460ff1661030b565b3480156104c357600080fd5b5061036c610fe2565b3480156104d857600080fd5b50610109546040805160ff808416151582526101008404811615156020830152620100009093049092161515908201526060016102a0565b34801561051c57600080fd5b506102c961112e565b34801561053157600080fd5b506102c9610540366004612719565b611140565b34801561055157600080fd5b506102c9610560366004612734565b61116a565b34801561057157600080fd5b5060fc546001600160a01b031661028c565b34801561058f57600080fd5b5061030b61059e36600461280c565b6111a8565b3480156105af57600080fd5b506102c96111c5565b3480156105c457600080fd5b506033546001600160a01b031661028c565b3480156105e257600080fd5b5060fe546001600160a01b031661028c565b34801561060057600080fd5b506104176113e4565b34801561061557600080fd5b5061036c6113f3565b34801561062a57600080fd5b5061030b610639366004612719565b61153f565b34801561064a57600080fd5b5061065361156e565b604080519283526020830191909152016102a0565b34801561067457600080fd5b5061030b610683366004612719565b611585565b34801561069457600080fd5b5061030b6106a3366004612719565b6115b5565b3480156106b457600080fd5b5061030b6106c3366004612719565b6115e5565b3480156106d457600080fd5b5061030b6106e336600461275e565b611614565b3480156106f457600080fd5b506102c9610703366004612929565b611628565b34801561071457600080fd5b506102c9611ad8565b34801561072957600080fd5b5061030b61073836600461275e565b611ae8565b34801561074957600080fd5b506102c9611afc565b34801561075e57600080fd5b5061030b61076d36600461280c565b611b30565b34801561077e57600080fd5b5061010454610417565b34801561079457600080fd5b506102c96107a3366004612719565b611b58565b60006107b2611bce565b5060ff80546001600160a01b0319166001600160a01b038316179055805b919050565b6107dd611bce565b60405163a9059cbb60e01b8152336004820152602481018290526001600160a01b0383169063a9059cbb906044016020604051808303816000875af115801561082a573d6000803e3d6000fd5b505050506040513d601f19601f8201168201806040525081019061084e919061295c565b505050565b61085b611bce565b61010180546001600160a01b0319166001600160a01b0392909216919091179055565b6000610888611bce565b5061010455600190565b60fd54604080516306fdde0360e01b815290516001600160a01b0390921691606091600091829185916306fdde039160048082019286929091908290030181865afa1580156108e5573d6000803e3d6000fd5b505050506040513d6000823e601f3d908101601f1916820160405261090d9190810190612979565b925060fd60009054906101000a90046001600160a01b03166001600160a01b031663313ce5676040518163ffffffff1660e01b8152600401602060405180830381865afa158015610962573d6000803e3d6000fd5b505050506040513d601f19601f8201168201806040525081019061098691906129e7565b915060fd60009054906101000a90046001600160a01b03166001600160a01b03166318160ddd6040518163ffffffff1660e01b8152600401602060405180830381865afa1580156109db573d6000803e3d6000fd5b505050506040513d601f19601f820116820180604052508101906109ff91906129e7565b905090919293565b610a0f611bce565b610a17611c28565b565b6001600160a01b037f0000000000000000000000000000000000000000000000000000000000000000163003610a6a5760405162461bcd60e51b8152600401610a6190612a00565b60405180910390fd5b7f00000000000000000000000000000000000000000000000000000000000000006001600160a01b0316610ab3600080516020612dc4833981519152546001600160a01b031690565b6001600160a01b031614610ad95760405162461bcd60e51b8152600401610a6190612a4c565b610ae281611c82565b60408051600080825260208201909252610afe91839190611c8a565b50565b610b09611bce565b6101098054911515620100000262ff000019909216919091179055565b610b2e611bce565b60fc80546001600160a01b0319166001600160a01b0392909216919091179055565b6001600160a01b037f0000000000000000000000000000000000000000000000000000000000000000163003610b985760405162461bcd60e51b8152600401610a6190612a00565b7f00000000000000000000000000000000000000000000000000000000000000006001600160a01b0316610be1600080516020612dc4833981519152546001600160a01b031690565b6001600160a01b031614610c075760405162461bcd60e51b8152600401610a6190612a4c565b610c1082611c82565b610c1c82826001611c8a565b5050565b6000306001600160a01b037f00000000000000000000000000000000000000000000000000000000000000001614610cc05760405162461bcd60e51b815260206004820152603860248201527f555550535570677261646561626c653a206d757374206e6f742062652063616c60448201527f6c6564207468726f7567682064656c656761746563616c6c00000000000000006064820152608401610a61565b50600080516020612dc483398151915290565b610cdb611df5565b3334610ce5611e3b565b811015610d475760405162461bcd60e51b815260206004820152602a60248201527f4574682056616c7565206973206c657373207468616e206d696e436f6e747269604482015269313aba34b7b722aa241760b11b6064820152608401610a61565b6000610d568261010354611e82565b90506000610d678361010454611e82565b6101095490915060ff1615610d8757610d81848387611fca565b50610da5565b60fd5460fb54610da5916001600160a01b0390811691168685612053565b61010954610100900460ff1615610f085760ff546040805163e7cca9c760e01b815290516001600160a01b03909216916108fc91610e5e91606491610e5891869163e7cca9c79160048083019260209291908290030181865afa158015610e10573d6000803e3d6000fd5b505050506040513d601f19601f82011682018060405250810190610e3491906129e7565b610e3c6120d5565b610e47906064612aae565b610e519190612ac5565b889061215d565b90612172565b6040518115909202916000818181858888f19350505050158015610e86573d6000803e3d6000fd5b5060ff54604051631eb714b160e31b8152600481018590526001600160a01b03868116602483015288811660448301529091169063f5b8a588906064016020604051808303816000875af1158015610ee2573d6000803e3d6000fd5b505050506040513d601f19601f82011682018060405250810190610f06919061295c565b505b6101095462010000900460ff1615610f79576101015460fc54610f39916001600160a01b0390811691168684612053565b610101546040516001600160a01b03918216918391908716907fdec9451ea7f92de23239ac3b71d0a2c5d5bae68af900a8b74100c866d159f41990600090a45b610fa08483856040518060400160405280600381526020016208aa8960eb1b81525061217e565b60fb546040516001600160a01b03909116904780156108fc02916000818181858888f19350505050158015610fd9573d6000803e3d6000fd5b50505050505050565b61010154604080516306fdde0360e01b815290516001600160a01b0390921691606091600091829185916306fdde039160048082019286929091908290030181865afa158015611036573d6000803e3d6000fd5b505050506040513d6000823e601f3d908101601f1916820160405261105e9190810190612979565b925061010160009054906101000a90046001600160a01b03166001600160a01b031663313ce5676040518163ffffffff1660e01b8152600401602060405180830381865afa1580156110b4573d6000803e3d6000fd5b505050506040513d601f19601f820116820180604052508101906110d891906129e7565b915061010160009054906101000a90046001600160a01b03166001600160a01b03166318160ddd6040518163ffffffff1660e01b8152600401602060405180830381865afa1580156109db573d6000803e3d6000fd5b611136611bce565b610a1760006121fb565b611148611bce565b60fb80546001600160a01b0319166001600160a01b0392909216919091179055565b611172611bce565b6040516001600160a01b0383169082156108fc029083906000818181858888f1935050505015801561084e573d6000803e3d6000fd5b60006111b2611bce565b50610109805460ff191682151517905590565b600054610100900460ff16158080156111e55750600054600160ff909116105b806111ff5750303b1580156111ff575060005460ff166001145b6112625760405162461bcd60e51b815260206004820152602e60248201527f496e697469616c697a61626c653a20636f6e747261637420697320616c72656160448201526d191e481a5b9a5d1a585b1a5e995960921b6064820152608401610a61565b6000805460ff191660011790558015611285576000805461ff0019166101001790555b61010280546001600160a01b031990811673ab594600376ec9fd91f8e885dadf0ce036862de0179091556101008054821673c2132d05d31c914a87c6611c10748aeb04b58e8f17905560fd80548216739c19247bd66f34e07c05bea8895d5d35dd49f25317905561010180548216737f9fd63932babc508fad2f324eb534d09cfe86f017905560fb8054821673b35963e0ab2141cd4ab743e7a35d8772f3cf044717905560fc805490911673f91e1ed00f015c6be3fbc6b0d84fbaef005ec5b51790556775f610f70ed200006101035567012dfb0cb5e880006101045561010980546201010062ffffff199091161790556801158e460913d000006101055561138c61224d565b61139461227c565b61139c6122ab565b8015610afe576000805461ff0019169055604051600181527f7f26b83ff96e1f2b6a682f133852f6798a09c465da95921460cefb38474024989060200160405180910390a150565b60006113ee6122d2565b905090565b61010054604080516306fdde0360e01b815290516001600160a01b0390921691606091600091829185916306fdde039160048082019286929091908290030181865afa158015611447573d6000803e3d6000fd5b505050506040513d6000823e601f3d908101601f1916820160405261146f9190810190612979565b925061010060009054906101000a90046001600160a01b03166001600160a01b031663313ce5676040518163ffffffff1660e01b8152600401602060405180830381865afa1580156114c5573d6000803e3d6000fd5b505050506040513d601f19601f820116820180604052508101906114e991906129e7565b915061010060009054906101000a90046001600160a01b03166001600160a01b03166318160ddd6040518163ffffffff1660e01b8152600401602060405180830381865afa1580156109db573d6000803e3d6000fd5b6000611549611bce565b5060fe80546001600160a01b0383166001600160a01b03199091161790556001919050565b600080611579611e3b565b91506101055490509091565b600061158f611bce565b5061010280546001600160a01b0383166001600160a01b03199091161790556001919050565b60006115bf611bce565b5061010080546001600160a01b0383166001600160a01b03199091161790556001919050565b60006115ef611bce565b5060fd80546001600160a01b0383166001600160a01b03199091161790556001919050565b600061161e611bce565b5061010555600190565b611630611df5565b61010060009054906101000a90046001600160a01b03166001600160a01b031663313ce5676040518163ffffffff1660e01b8152600401602060405180830381865afa158015611684573d6000803e3d6000fd5b505050506040513d601f19601f820116820180604052508101906116a891906129e7565b6116b390600a612bcb565b670de0b6b3a7640000610105546116ca9190612ac5565b6116d49190612aae565b82101561172e5760405162461bcd60e51b815260206004820152602260248201527f5553442076616c7565206c657373207468656e206d696e206275792076616c75604482015261329760f11b6064820152608401610a61565b600033905060006117428461010354612364565b905060006117538561010454612364565b6101005490915061176f906001600160a01b0316843088612053565b6101095460ff161561178c57611786838386611fca565b506117aa565b60fd5460fb546117aa916001600160a01b0390811691168585612053565b61010954610100900460ff1615611956576101005460ff546040805163e7cca9c760e01b815290516001600160a01b039384169363a9059cbb93169161186591606491610e5891859163e7cca9c79160048083019260209291908290030181865afa15801561181d573d6000803e3d6000fd5b505050506040513d601f19601f8201168201806040525081019061184191906129e7565b6118496120d5565b611854906064612aae565b61185e9190612ac5565b8b9061215d565b6040516001600160e01b031960e085901b1681526001600160a01b03909216600483015260248201526044016020604051808303816000875af11580156118b0573d6000803e3d6000fd5b505050506040513d601f19601f820116820180604052508101906118d4919061295c565b5060ff54604051635188f1e160e01b8152600481018790526001600160a01b038581166024830152888116604483015290911690635188f1e1906064016020604051808303816000875af1158015611930573d6000803e3d6000fd5b505050506040513d601f19601f82011682018060405250810190611954919061295c565b505b6101095462010000900460ff16156119c7576101015460fc54611987916001600160a01b0390811691168584612053565b610101546040516001600160a01b03918216918391908616907fdec9451ea7f92de23239ac3b71d0a2c5d5bae68af900a8b74100c866d159f41990600090a45b6119ef838387604051806040016040528060048152602001631554d11560e21b81525061217e565b6101005460fb546040516370a0823160e01b81523060048201526001600160a01b039283169263a9059cbb92169083906370a0823190602401602060405180830381865afa158015611a45573d6000803e3d6000fd5b505050506040513d601f19601f82011682018060405250810190611a6991906129e7565b6040516001600160e01b031960e085901b1681526001600160a01b03909216600483015260248201526044016020604051808303816000875af1158015611ab4573d6000803e3d6000fd5b505050506040513d601f19601f82011682018060405250810190610fd9919061295c565b611ae0611bce565b610a176123f2565b6000611af2611bce565b5061010355600190565b611b04611bce565b60405133904780156108fc02916000818181858888f19350505050158015610afe573d6000803e3d6000fd5b6000611b3a611bce565b5061010980548215156101000261ff00199091161790556001919050565b611b60611bce565b6001600160a01b038116611bc55760405162461bcd60e51b815260206004820152602660248201527f4f776e61626c653a206e6577206f776e657220697320746865207a65726f206160448201526564647265737360d01b6064820152608401610a61565b610afe816121fb565b6033546001600160a01b03163314610a175760405162461bcd60e51b815260206004820181905260248201527f4f776e61626c653a2063616c6c6572206973206e6f7420746865206f776e65726044820152606401610a61565b611c30611df5565b6065805460ff191660011790557f62e78cea01bee320cd4e420270b5ea74000d11b0c9f74754ebdbfc544b05a258611c653390565b6040516001600160a01b03909116815260200160405180910390a1565b610afe611bce565b7f4910fdfa16fed3260ed0e7147f7cc6da11a60208b5b9406d12a635614ffd91435460ff1615611cbd5761084e8361242b565b826001600160a01b03166352d1902d6040518163ffffffff1660e01b8152600401602060405180830381865afa925050508015611d17575060408051601f3d908101601f19168201909252611d14918101906129e7565b60015b611d7a5760405162461bcd60e51b815260206004820152602e60248201527f45524331393637557067726164653a206e657720696d706c656d656e7461746960448201526d6f6e206973206e6f74205555505360901b6064820152608401610a61565b600080516020612dc48339815191528114611de95760405162461bcd60e51b815260206004820152602960248201527f45524331393637557067726164653a20756e737570706f727465642070726f786044820152681a58589b195555525160ba1b6064820152608401610a61565b5061084e8383836124c7565b60655460ff1615610a175760405162461bcd60e51b815260206004820152601060248201526f14185d5cd8589b194e881c185d5cd95960821b6044820152606401610a61565b600061010554600003611e4e5750600090565b6000611e586122d2565b90508061010554670de0b6b3a7640000611e729190612aae565b611e7c9190612ac5565b91505090565b600080611e8d6122d2565b9050600060fd60009054906101000a90046001600160a01b03166001600160a01b031663313ce5676040518163ffffffff1660e01b8152600401602060405180830381865afa158015611ee4573d6000803e3d6000fd5b505050506040513d601f19601f82011682018060405250810190611f0891906129e7565b611f1390600a612bcb565b611f1d8387612aae565b611f279190612ac5565b9050611f338482612aae565b925060fd60009054906101000a90046001600160a01b03166001600160a01b031663313ce5676040518163ffffffff1660e01b8152600401602060405180830381865afa158015611f88573d6000803e3d6000fd5b505050506040513d601f19601f82011682018060405250810190611fac91906129e7565b611fb790600a612bcb565b611fc19084612ac5565b95945050505050565b60fe5460405163018864d960e51b81526001600160a01b0385811660048301526024820185905260448201849052600092169063310c9b20906064016020604051808303816000875af1158015612025573d6000803e3d6000fd5b505050506040513d601f19601f82011682018060405250810190612049919061295c565b90505b9392505050565b6040516323b872dd60e01b81526001600160a01b0384811660048301528381166024830152604482018390528516906323b872dd906064016020604051808303816000875af11580156120aa573d6000803e3d6000fd5b505050506040513d601f19601f820116820180604052508101906120ce919061295c565b5050505050565b60008060ff60009054906101000a90046001600160a01b03166001600160a01b031663918a54db6040518163ffffffff1660e01b8152600401600060405180830381865afa15801561212b573d6000803e3d6000fd5b505050506040513d6000823e601f3d908101601f191682016040526121539190810190612c57565b5090949350505050565b60006121698284612aae565b90505b92915050565b60006121698284612ac5565b8261010660008282546121919190612ccc565b925050819055508161010760008282546121ab9190612ccc565b925050819055508183856001600160a01b03167f4ed8f3d1ed53b91a72ec0150f2643e443830cc7515a0b4111db52c15cd8119e6846040516121ed9190612cdf565b60405180910390a450505050565b603380546001600160a01b038381166001600160a01b0319831681179093556040519116919082907f8be0079c531659141344cd1fd0a4f28419497f9722a3daafe3b4186f6b6457e090600090a35050565b600054610100900460ff166122745760405162461bcd60e51b8152600401610a6190612cf2565b610a176124f2565b600054610100900460ff166122a35760405162461bcd60e51b8152600401610a6190612cf2565b610a17612525565b600054610100900460ff16610a175760405162461bcd60e51b8152600401610a6190612cf2565b60008061010260009054906101000a90046001600160a01b03166001600160a01b031663feaf968c6040518163ffffffff1660e01b815260040160a060405180830381865afa158015612329573d6000803e3d6000fd5b505050506040513d601f19601f8201168201806040525081019061234d9190612d57565b505050915050806402540be400611e7c9190612aae565b610100546040805163313ce56760e01b815290516000926001600160a01b03169163313ce5679160048083019260209291908290030181865afa1580156123af573d6000803e3d6000fd5b505050506040513d601f19601f820116820180604052508101906123d391906129e7565b6123de90600a612bcb565b6123e88385612aae565b6121699190612ac5565b6123fa612555565b6065805460ff191690557f5db9ee0a495bf2e6ff9c91a7834c1ba4fdd244a5e8aa4e537bd38aeae4b073aa33611c65565b6001600160a01b0381163b6124985760405162461bcd60e51b815260206004820152602d60248201527f455243313936373a206e657720696d706c656d656e746174696f6e206973206e60448201526c1bdd08184818dbdb9d1c9858dd609a1b6064820152608401610a61565b600080516020612dc483398151915280546001600160a01b0319166001600160a01b0392909216919091179055565b6124d08361259e565b6000825111806124dd5750805b1561084e576124ec83836125de565b50505050565b600054610100900460ff166125195760405162461bcd60e51b8152600401610a6190612cf2565b6065805460ff19169055565b600054610100900460ff1661254c5760405162461bcd60e51b8152600401610a6190612cf2565b610a17336121fb565b60655460ff16610a175760405162461bcd60e51b815260206004820152601460248201527314185d5cd8589b194e881b9bdd081c185d5cd95960621b6044820152606401610a61565b6125a78161242b565b6040516001600160a01b038216907fbc7cd75a20ee27fd9adebab32041f755214dbc6bffa90cc0225b39da2e5c2d3b90600090a250565b60606001600160a01b0383163b6126465760405162461bcd60e51b815260206004820152602660248201527f416464726573733a2064656c65676174652063616c6c20746f206e6f6e2d636f6044820152651b9d1c9858dd60d21b6064820152608401610a61565b600080846001600160a01b0316846040516126619190612da7565b600060405180830381855af49150503d806000811461269c576040519150601f19603f3d011682016040523d82523d6000602084013e6126a1565b606091505b5091509150611fc18282604051806060016040528060278152602001612de460279139606083156126d357508161204c565b61204c83838151156126e85781518083602001fd5b8060405162461bcd60e51b8152600401610a619190612cdf565b80356001600160a01b03811681146107d057600080fd5b60006020828403121561272b57600080fd5b61216982612702565b6000806040838503121561274757600080fd5b61275083612702565b946020939093013593505050565b60006020828403121561277057600080fd5b5035919050565b60005b8381101561279257818101518382015260200161277a565b50506000910152565b600081518084526127b3816020860160208601612777565b601f01601f19169290920160200192915050565b6001600160a01b03851681526080602082018190526000906127eb9083018661279b565b6040830194909452506060015292915050565b8015158114610afe57600080fd5b60006020828403121561281e57600080fd5b813561204c816127fe565b634e487b7160e01b600052604160045260246000fd5b604051601f8201601f1916810167ffffffffffffffff8111828210171561286857612868612829565b604052919050565b600067ffffffffffffffff82111561288a5761288a612829565b50601f01601f191660200190565b600080604083850312156128ab57600080fd5b6128b483612702565b9150602083013567ffffffffffffffff8111156128d057600080fd5b8301601f810185136128e157600080fd5b80356128f46128ef82612870565b61283f565b81815286602083850101111561290957600080fd5b816020840160208301376000602083830101528093505050509250929050565b60008060006060848603121561293e57600080fd5b61294784612702565b95602085013595506040909401359392505050565b60006020828403121561296e57600080fd5b815161204c816127fe565b60006020828403121561298b57600080fd5b815167ffffffffffffffff8111156129a257600080fd5b8201601f810184136129b357600080fd5b80516129c16128ef82612870565b8181528560208385010111156129d657600080fd5b611fc1826020830160208601612777565b6000602082840312156129f957600080fd5b5051919050565b6020808252602c908201527f46756e6374696f6e206d7573742062652063616c6c6564207468726f7567682060408201526b19195b1959d85d1958d85b1b60a21b606082015260800190565b6020808252602c908201527f46756e6374696f6e206d7573742062652063616c6c6564207468726f7567682060408201526b6163746976652070726f787960a01b606082015260800190565b634e487b7160e01b600052601160045260246000fd5b808202811582820484141761216c5761216c612a98565b600082612ae257634e487b7160e01b600052601260045260246000fd5b500490565b600181815b80851115612b22578160001904821115612b0857612b08612a98565b80851615612b1557918102915b93841c9390800290612aec565b509250929050565b600082612b395750600161216c565b81612b465750600061216c565b8160018114612b5c5760028114612b6657612b82565b600191505061216c565b60ff841115612b7757612b77612a98565b50506001821b61216c565b5060208310610133831016604e8410600b8410161715612ba5575081810a61216c565b612baf8383612ae7565b8060001904821115612bc357612bc3612a98565b029392505050565b60006121698383612b2a565b600082601f830112612be857600080fd5b8151602067ffffffffffffffff821115612c0457612c04612829565b8160051b612c1382820161283f565b9283528481018201928281019087851115612c2d57600080fd5b83870192505b84831015612c4c57825182529183019190830190612c33565b979650505050505050565b60008060008060808587031215612c6d57600080fd5b845167ffffffffffffffff80821115612c8557600080fd5b612c9188838901612bd7565b9550602087015194506040870151915080821115612cae57600080fd5b50612cbb87828801612bd7565b606096909601519497939650505050565b8082018082111561216c5761216c612a98565b602081526000612169602083018461279b565b6020808252602b908201527f496e697469616c697a61626c653a20636f6e7472616374206973206e6f74206960408201526a6e697469616c697a696e6760a81b606082015260800190565b805169ffffffffffffffffffff811681146107d057600080fd5b600080600080600060a08688031215612d6f57600080fd5b612d7886612d3d565b9450602086015193506040860151925060608601519150612d9b60808701612d3d565b90509295509295909350565b60008251612db9818460208701612777565b919091019291505056fe360894a13ba1a3210667c828492db98dca3e2076cc3735a920a3ca505d382bbc416464726573733a206c6f772d6c6576656c2064656c65676174652063616c6c206661696c6564a2646970667358221220a49a50e1ab1a6509e1d7b641dea1068a30f2fa4e00806fc54d8f553662f971ca64736f6c63430008110033","opcodes":"PUSH1 0xA0 PUSH1 0x40 MSTORE ADDRESS PUSH1 0x80 MSTORE CALLVALUE DUP1 ISZERO PUSH2 0x14 JUMPI PUSH1 0x0 DUP1 REVERT JUMPDEST POP PUSH1 0x80 MLOAD PUSH2 0x2E40 PUSH2 0x4C PUSH1 0x0 CODECOPY PUSH1 0x0 DUP2 DUP2 PUSH2 0xA23 ADD MSTORE DUP2 DUP2 PUSH2 0xA6C ADD MSTORE DUP2 DUP2 PUSH2 0xB5A ADD MSTORE DUP2 DUP2 PUSH2 0xB9A ADD MSTORE PUSH2 0xC2D ADD MSTORE PUSH2 0x2E40 PUSH1 0x0 RETURN INVALID PUSH1 0x80 PUSH1 0x40 MSTORE PUSH1 0x4 CALLDATASIZE LT PUSH2 0x260 JUMPI PUSH1 0x0 CALLDATALOAD PUSH1 0xE0 SHR DUP1 PUSH4 0x7A22393B GT PUSH2 0x144 JUMPI DUP1 PUSH4 0xAB573D66 GT PUSH2 0xB6 JUMPI DUP1 PUSH4 0xDB5184E6 GT PUSH2 0x7A JUMPI DUP1 PUSH4 0xDB5184E6 EQ PUSH2 0x708 JUMPI DUP1 PUSH4 0xDC245E12 EQ PUSH2 0x71D JUMPI DUP1 PUSH4 0xE086E5EC EQ PUSH2 0x73D JUMPI DUP1 PUSH4 0xE9BD186D EQ PUSH2 0x752 JUMPI DUP1 PUSH4 0xF067C199 EQ PUSH2 0x772 JUMPI DUP1 PUSH4 0xF2FDE38B EQ PUSH2 0x788 JUMPI PUSH1 0x0 DUP1 REVERT JUMPDEST DUP1 PUSH4 0xAB573D66 EQ PUSH2 0x668 JUMPI DUP1 PUSH4 0xAC6F6A2D EQ PUSH2 0x688 JUMPI DUP1 PUSH4 0xB68E1E46 EQ PUSH2 0x6A8 JUMPI DUP1 PUSH4 0xC94D6B1F EQ PUSH2 0x6C8 JUMPI DUP1 PUSH4 0xD42CEDFB EQ PUSH2 0x6E8 JUMPI PUSH1 0x0 DUP1 REVERT JUMPDEST DUP1 PUSH4 0x8DA5CB5B GT PUSH2 0x108 JUMPI DUP1 PUSH4 0x8DA5CB5B EQ PUSH2 0x5B8 JUMPI DUP1 PUSH4 0x8E68DCE4 EQ PUSH2 0x5D6 JUMPI DUP1 PUSH4 0x94A73F59 EQ PUSH2 0x5F4 JUMPI DUP1 PUSH4 0xA5BAC943 EQ PUSH2 0x609 JUMPI DUP1 PUSH4 0xA821B069 EQ PUSH2 0x61E JUMPI DUP1 PUSH4 0xAAFFADF3 EQ PUSH2 0x63E JUMPI PUSH1 0x0 DUP1 REVERT JUMPDEST DUP1 PUSH4 0x7A22393B EQ PUSH2 0x525 JUMPI DUP1 PUSH4 0x7B1A4909 EQ PUSH2 0x545 JUMPI DUP1 PUSH4 0x7CE1757D EQ PUSH2 0x565 JUMPI DUP1 PUSH4 0x7E76A70C EQ PUSH2 0x583 JUMPI DUP1 PUSH4 0x8129FC1C EQ PUSH2 0x5A3 JUMPI PUSH1 0x0 DUP1 REVERT JUMPDEST DUP1 PUSH4 0x3958B844 GT PUSH2 0x1DD JUMPI DUP1 PUSH4 0x57526C33 GT PUSH2 0x1A1 JUMPI DUP1 PUSH4 0x57526C33 EQ PUSH2 0x46D JUMPI DUP1 PUSH4 0x5845394B EQ PUSH2 0x480 JUMPI DUP1 PUSH4 0x5C975ABB EQ PUSH2 0x49F JUMPI DUP1 PUSH4 0x65EB204D EQ PUSH2 0x4B7 JUMPI DUP1 PUSH4 0x6AA633B6 EQ PUSH2 0x4CC JUMPI DUP1 PUSH4 0x715018A6 EQ PUSH2 0x510 JUMPI PUSH1 0x0 DUP1 REVERT JUMPDEST DUP1 PUSH4 0x3958B844 EQ PUSH2 0x3E5 JUMPI DUP1 PUSH4 0x472D561D EQ PUSH2 0x405 JUMPI DUP1 PUSH4 0x4809B429 EQ PUSH2 0x425 JUMPI DUP1 PUSH4 0x4F1EF286 EQ PUSH2 0x445 JUMPI DUP1 PUSH4 0x52D1902D EQ PUSH2 0x458 JUMPI PUSH1 0x0 DUP1 REVERT JUMPDEST DUP1 PUSH4 0x23442C60 GT PUSH2 0x224 JUMPI DUP1 PUSH4 0x23442C60 EQ PUSH2 0x339 JUMPI DUP1 PUSH4 0x28B7BEDE EQ PUSH2 0x357 JUMPI DUP1 PUSH4 0x2F11D653 EQ PUSH2 0x37C JUMPI DUP1 PUSH4 0x3659CFE6 EQ PUSH2 0x391 JUMPI DUP1 PUSH4 0x38F992C9 EQ PUSH2 0x3B1 JUMPI PUSH1 0x0 DUP1 REVERT JUMPDEST DUP1 PUSH4 0x6AD5A47 EQ PUSH2 0x26C JUMPI DUP1 PUSH4 0x6B091F9 EQ PUSH2 0x2A9 JUMPI DUP1 PUSH4 0x8FCFBBE EQ PUSH2 0x2CB JUMPI DUP1 PUSH4 0x10BD7AB5 EQ PUSH2 0x2EB JUMPI DUP1 PUSH4 0x14D09B94 EQ PUSH2 0x31B JUMPI PUSH1 0x0 DUP1 REVERT JUMPDEST CALLDATASIZE PUSH2 0x267 JUMPI STOP JUMPDEST PUSH1 0x0 DUP1 REVERT JUMPDEST CALLVALUE DUP1 ISZERO PUSH2 0x278 JUMPI PUSH1 0x0 DUP1 REVERT JUMPDEST POP PUSH2 0x28C PUSH2 0x287 CALLDATASIZE PUSH1 0x4 PUSH2 0x2719 JUMP JUMPDEST PUSH2 0x7A8 JUMP JUMPDEST PUSH1 0x40 MLOAD PUSH1 0x1 PUSH1 0x1 PUSH1 0xA0 SHL SUB SWAP1 SWAP2 AND DUP2 MSTORE PUSH1 0x20 ADD JUMPDEST PUSH1 0x40 MLOAD DUP1 SWAP2 SUB SWAP1 RETURN JUMPDEST CALLVALUE DUP1 ISZERO PUSH2 0x2B5 JUMPI PUSH1 0x0 DUP1 REVERT JUMPDEST POP PUSH2 0x2C9 PUSH2 0x2C4 CALLDATASIZE PUSH1 0x4 PUSH2 0x2734 JUMP JUMPDEST PUSH2 0x7D5 JUMP JUMPDEST STOP JUMPDEST CALLVALUE DUP1 ISZERO PUSH2 0x2D7 JUMPI PUSH1 0x0 DUP1 REVERT JUMPDEST POP PUSH2 0x2C9 PUSH2 0x2E6 CALLDATASIZE PUSH1 0x4 PUSH2 0x2719 JUMP JUMPDEST PUSH2 0x853 JUMP JUMPDEST CALLVALUE DUP1 ISZERO PUSH2 0x2F7 JUMPI PUSH1 0x0 DUP1 REVERT JUMPDEST POP PUSH2 0x30B PUSH2 0x306 CALLDATASIZE PUSH1 0x4 PUSH2 0x275E JUMP JUMPDEST PUSH2 0x87E JUMP JUMPDEST PUSH1 0x40 MLOAD SWAP1 ISZERO ISZERO DUP2 MSTORE PUSH1 0x20 ADD PUSH2 0x2A0 JUMP JUMPDEST CALLVALUE DUP1 ISZERO PUSH2 0x327 JUMPI PUSH1 0x0 DUP1 REVERT JUMPDEST POP PUSH1 0xFB SLOAD PUSH1 0x1 PUSH1 0x1 PUSH1 0xA0 SHL SUB AND PUSH2 0x28C JUMP JUMPDEST CALLVALUE DUP1 ISZERO PUSH2 0x345 JUMPI PUSH1 0x0 DUP1 REVERT JUMPDEST POP PUSH1 0xFF SLOAD PUSH1 0x1 PUSH1 0x1 PUSH1 0xA0 SHL SUB AND PUSH2 0x28C JUMP JUMPDEST CALLVALUE DUP1 ISZERO PUSH2 0x363 JUMPI PUSH1 0x0 DUP1 REVERT JUMPDEST POP PUSH2 0x36C PUSH2 0x892 JUMP JUMPDEST PUSH1 0x40 MLOAD PUSH2 0x2A0 SWAP5 SWAP4 SWAP3 SWAP2 SWAP1 PUSH2 0x27C7 JUMP JUMPDEST CALLVALUE DUP1 ISZERO PUSH2 0x388 JUMPI PUSH1 0x0 DUP1 REVERT JUMPDEST POP PUSH2 0x2C9 PUSH2 0xA07 JUMP JUMPDEST CALLVALUE DUP1 ISZERO PUSH2 0x39D JUMPI PUSH1 0x0 DUP1 REVERT JUMPDEST POP PUSH2 0x2C9 PUSH2 0x3AC CALLDATASIZE PUSH1 0x4 PUSH2 0x2719 JUMP JUMPDEST PUSH2 0xA19 JUMP JUMPDEST CALLVALUE DUP1 ISZERO PUSH2 0x3BD JUMPI PUSH1 0x0 DUP1 REVERT JUMPDEST POP PUSH2 0x106 SLOAD PUSH2 0x107 SLOAD PUSH2 0x108 SLOAD PUSH1 0x40 DUP1 MLOAD SWAP4 DUP5 MSTORE PUSH1 0x20 DUP5 ADD SWAP3 SWAP1 SWAP3 MSTORE SWAP1 DUP3 ADD MSTORE PUSH1 0x60 ADD PUSH2 0x2A0 JUMP JUMPDEST CALLVALUE DUP1 ISZERO PUSH2 0x3F1 JUMPI PUSH1 0x0 DUP1 REVERT JUMPDEST POP PUSH2 0x2C9 PUSH2 0x400 CALLDATASIZE PUSH1 0x4 PUSH2 0x280C JUMP JUMPDEST PUSH2 0xB01 JUMP JUMPDEST CALLVALUE DUP1 ISZERO PUSH2 0x411 JUMPI PUSH1 0x0 DUP1 REVERT JUMPDEST POP PUSH2 0x103 SLOAD JUMPDEST PUSH1 0x40 MLOAD SWAP1 DUP2 MSTORE PUSH1 0x20 ADD PUSH2 0x2A0 JUMP JUMPDEST CALLVALUE DUP1 ISZERO PUSH2 0x431 JUMPI PUSH1 0x0 DUP1 REVERT JUMPDEST POP PUSH2 0x2C9 PUSH2 0x440 CALLDATASIZE PUSH1 0x4 PUSH2 0x2719 JUMP JUMPDEST PUSH2 0xB26 JUMP JUMPDEST PUSH2 0x2C9 PUSH2 0x453 CALLDATASIZE PUSH1 0x4 PUSH2 0x2898 JUMP JUMPDEST PUSH2 0xB50 JUMP JUMPDEST CALLVALUE DUP1 ISZERO PUSH2 0x464 JUMPI PUSH1 0x0 DUP1 REVERT JUMPDEST POP PUSH2 0x417 PUSH2 0xC20 JUMP JUMPDEST PUSH2 0x2C9 PUSH2 0x47B CALLDATASIZE PUSH1 0x4 PUSH2 0x2734 JUMP JUMPDEST PUSH2 0xCD3 JUMP JUMPDEST CALLVALUE DUP1 ISZERO PUSH2 0x48C JUMPI PUSH1 0x0 DUP1 REVERT JUMPDEST POP PUSH2 0x102 SLOAD PUSH1 0x1 PUSH1 0x1 PUSH1 0xA0 SHL SUB AND PUSH2 0x28C JUMP JUMPDEST CALLVALUE DUP1 ISZERO PUSH2 0x4AB JUMPI PUSH1 0x0 DUP1 REVERT JUMPDEST POP PUSH1 0x65 SLOAD PUSH1 0xFF AND PUSH2 0x30B JUMP JUMPDEST CALLVALUE DUP1 ISZERO PUSH2 0x4C3 JUMPI PUSH1 0x0 DUP1 REVERT JUMPDEST POP PUSH2 0x36C PUSH2 0xFE2 JUMP JUMPDEST CALLVALUE DUP1 ISZERO PUSH2 0x4D8 JUMPI PUSH1 0x0 DUP1 REVERT JUMPDEST POP PUSH2 0x109 SLOAD PUSH1 0x40 DUP1 MLOAD PUSH1 0xFF DUP1 DUP5 AND ISZERO ISZERO DUP3 MSTORE PUSH2 0x100 DUP5 DIV DUP2 AND ISZERO ISZERO PUSH1 0x20 DUP4 ADD MSTORE PUSH3 0x10000 SWAP1 SWAP4 DIV SWAP1 SWAP3 AND ISZERO ISZERO SWAP1 DUP3 ADD MSTORE PUSH1 0x60 ADD PUSH2 0x2A0 JUMP JUMPDEST CALLVALUE DUP1 ISZERO PUSH2 0x51C JUMPI PUSH1 0x0 DUP1 REVERT JUMPDEST POP PUSH2 0x2C9 PUSH2 0x112E JUMP JUMPDEST CALLVALUE DUP1 ISZERO PUSH2 0x531 JUMPI PUSH1 0x0 DUP1 REVERT JUMPDEST POP PUSH2 0x2C9 PUSH2 0x540 CALLDATASIZE PUSH1 0x4 PUSH2 0x2719 JUMP JUMPDEST PUSH2 0x1140 JUMP JUMPDEST CALLVALUE DUP1 ISZERO PUSH2 0x551 JUMPI PUSH1 0x0 DUP1 REVERT JUMPDEST POP PUSH2 0x2C9 PUSH2 0x560 CALLDATASIZE PUSH1 0x4 PUSH2 0x2734 JUMP JUMPDEST PUSH2 0x116A JUMP JUMPDEST CALLVALUE DUP1 ISZERO PUSH2 0x571 JUMPI PUSH1 0x0 DUP1 REVERT JUMPDEST POP PUSH1 0xFC SLOAD PUSH1 0x1 PUSH1 0x1 PUSH1 0xA0 SHL SUB AND PUSH2 0x28C JUMP JUMPDEST CALLVALUE DUP1 ISZERO PUSH2 0x58F JUMPI PUSH1 0x0 DUP1 REVERT JUMPDEST POP PUSH2 0x30B PUSH2 0x59E CALLDATASIZE PUSH1 0x4 PUSH2 0x280C JUMP JUMPDEST PUSH2 0x11A8 JUMP JUMPDEST CALLVALUE DUP1 ISZERO PUSH2 0x5AF JUMPI PUSH1 0x0 DUP1 REVERT JUMPDEST POP PUSH2 0x2C9 PUSH2 0x11C5 JUMP JUMPDEST CALLVALUE DUP1 ISZERO PUSH2 0x5C4 JUMPI PUSH1 0x0 DUP1 REVERT JUMPDEST POP PUSH1 0x33 SLOAD PUSH1 0x1 PUSH1 0x1 PUSH1 0xA0 SHL SUB AND PUSH2 0x28C JUMP JUMPDEST CALLVALUE DUP1 ISZERO PUSH2 0x5E2 JUMPI PUSH1 0x0 DUP1 REVERT JUMPDEST POP PUSH1 0xFE SLOAD PUSH1 0x1 PUSH1 0x1 PUSH1 0xA0 SHL SUB AND PUSH2 0x28C JUMP JUMPDEST CALLVALUE DUP1 ISZERO PUSH2 0x600 JUMPI PUSH1 0x0 DUP1 REVERT JUMPDEST POP PUSH2 0x417 PUSH2 0x13E4 JUMP JUMPDEST CALLVALUE DUP1 ISZERO PUSH2 0x615 JUMPI PUSH1 0x0 DUP1 REVERT JUMPDEST POP PUSH2 0x36C PUSH2 0x13F3 JUMP JUMPDEST CALLVALUE DUP1 ISZERO PUSH2 0x62A JUMPI PUSH1 0x0 DUP1 REVERT JUMPDEST POP PUSH2 0x30B PUSH2 0x639 CALLDATASIZE PUSH1 0x4 PUSH2 0x2719 JUMP JUMPDEST PUSH2 0x153F JUMP JUMPDEST CALLVALUE DUP1 ISZERO PUSH2 0x64A JUMPI PUSH1 0x0 DUP1 REVERT JUMPDEST POP PUSH2 0x653 PUSH2 0x156E JUMP JUMPDEST PUSH1 0x40 DUP1 MLOAD SWAP3 DUP4 MSTORE PUSH1 0x20 DUP4 ADD SWAP2 SWAP1 SWAP2 MSTORE ADD PUSH2 0x2A0 JUMP JUMPDEST CALLVALUE DUP1 ISZERO PUSH2 0x674 JUMPI PUSH1 0x0 DUP1 REVERT JUMPDEST POP PUSH2 0x30B PUSH2 0x683 CALLDATASIZE PUSH1 0x4 PUSH2 0x2719 JUMP JUMPDEST PUSH2 0x1585 JUMP JUMPDEST CALLVALUE DUP1 ISZERO PUSH2 0x694 JUMPI PUSH1 0x0 DUP1 REVERT JUMPDEST POP PUSH2 0x30B PUSH2 0x6A3 CALLDATASIZE PUSH1 0x4 PUSH2 0x2719 JUMP JUMPDEST PUSH2 0x15B5 JUMP JUMPDEST CALLVALUE DUP1 ISZERO PUSH2 0x6B4 JUMPI PUSH1 0x0 DUP1 REVERT JUMPDEST POP PUSH2 0x30B PUSH2 0x6C3 CALLDATASIZE PUSH1 0x4 PUSH2 0x2719 JUMP JUMPDEST PUSH2 0x15E5 JUMP JUMPDEST CALLVALUE DUP1 ISZERO PUSH2 0x6D4 JUMPI PUSH1 0x0 DUP1 REVERT JUMPDEST POP PUSH2 0x30B PUSH2 0x6E3 CALLDATASIZE PUSH1 0x4 PUSH2 0x275E JUMP JUMPDEST PUSH2 0x1614 JUMP JUMPDEST CALLVALUE DUP1 ISZERO PUSH2 0x6F4 JUMPI PUSH1 0x0 DUP1 REVERT JUMPDEST POP PUSH2 0x2C9 PUSH2 0x703 CALLDATASIZE PUSH1 0x4 PUSH2 0x2929 JUMP JUMPDEST PUSH2 0x1628 JUMP JUMPDEST CALLVALUE DUP1 ISZERO PUSH2 0x714 JUMPI PUSH1 0x0 DUP1 REVERT JUMPDEST POP PUSH2 0x2C9 PUSH2 0x1AD8 JUMP JUMPDEST CALLVALUE DUP1 ISZERO PUSH2 0x729 JUMPI PUSH1 0x0 DUP1 REVERT JUMPDEST POP PUSH2 0x30B PUSH2 0x738 CALLDATASIZE PUSH1 0x4 PUSH2 0x275E JUMP JUMPDEST PUSH2 0x1AE8 JUMP JUMPDEST CALLVALUE DUP1 ISZERO PUSH2 0x749 JUMPI PUSH1 0x0 DUP1 REVERT JUMPDEST POP PUSH2 0x2C9 PUSH2 0x1AFC JUMP JUMPDEST CALLVALUE DUP1 ISZERO PUSH2 0x75E JUMPI PUSH1 0x0 DUP1 REVERT JUMPDEST POP PUSH2 0x30B PUSH2 0x76D CALLDATASIZE PUSH1 0x4 PUSH2 0x280C JUMP JUMPDEST PUSH2 0x1B30 JUMP JUMPDEST CALLVALUE DUP1 ISZERO PUSH2 0x77E JUMPI PUSH1 0x0 DUP1 REVERT JUMPDEST POP PUSH2 0x104 SLOAD PUSH2 0x417 JUMP JUMPDEST CALLVALUE DUP1 ISZERO PUSH2 0x794 JUMPI PUSH1 0x0 DUP1 REVERT JUMPDEST POP PUSH2 0x2C9 PUSH2 0x7A3 CALLDATASIZE PUSH1 0x4 PUSH2 0x2719 JUMP JUMPDEST PUSH2 0x1B58 JUMP JUMPDEST PUSH1 0x0 PUSH2 0x7B2 PUSH2 0x1BCE JUMP JUMPDEST POP PUSH1 0xFF DUP1 SLOAD PUSH1 0x1 PUSH1 0x1 PUSH1 0xA0 SHL SUB NOT AND PUSH1 0x1 PUSH1 0x1 PUSH1 0xA0 SHL SUB DUP4 AND OR SWAP1 SSTORE DUP1 JUMPDEST SWAP2 SWAP1 POP JUMP JUMPDEST PUSH2 0x7DD PUSH2 0x1BCE JUMP JUMPDEST PUSH1 0x40 MLOAD PUSH4 0xA9059CBB PUSH1 0xE0 SHL DUP2 MSTORE CALLER PUSH1 0x4 DUP3 ADD MSTORE PUSH1 0x24 DUP2 ADD DUP3 SWAP1 MSTORE PUSH1 0x1 PUSH1 0x1 PUSH1 0xA0 SHL SUB DUP4 AND SWAP1 PUSH4 0xA9059CBB SWAP1 PUSH1 0x44 ADD PUSH1 0x20 PUSH1 0x40 MLOAD DUP1 DUP4 SUB DUP2 PUSH1 0x0 DUP8 GAS CALL ISZERO DUP1 ISZERO PUSH2 0x82A JUMPI RETURNDATASIZE PUSH1 0x0 DUP1 RETURNDATACOPY RETURNDATASIZE PUSH1 0x0 REVERT JUMPDEST POP POP POP POP PUSH1 0x40 MLOAD RETURNDATASIZE PUSH1 0x1F NOT PUSH1 0x1F DUP3 ADD AND DUP3 ADD DUP1 PUSH1 0x40 MSTORE POP DUP2 ADD SWAP1 PUSH2 0x84E SWAP2 SWAP1 PUSH2 0x295C JUMP JUMPDEST POP POP POP JUMP JUMPDEST PUSH2 0x85B PUSH2 0x1BCE JUMP JUMPDEST PUSH2 0x101 DUP1 SLOAD PUSH1 0x1 PUSH1 0x1 PUSH1 0xA0 SHL SUB NOT AND PUSH1 0x1 PUSH1 0x1 PUSH1 0xA0 SHL SUB SWAP3 SWAP1 SWAP3 AND SWAP2 SWAP1 SWAP2 OR SWAP1 SSTORE JUMP JUMPDEST PUSH1 0x0 PUSH2 0x888 PUSH2 0x1BCE JUMP JUMPDEST POP PUSH2 0x104 SSTORE PUSH1 0x1 SWAP1 JUMP JUMPDEST PUSH1 0xFD SLOAD PUSH1 0x40 DUP1 MLOAD PUSH4 0x6FDDE03 PUSH1 0xE0 SHL DUP2 MSTORE SWAP1 MLOAD PUSH1 0x1 PUSH1 0x1 PUSH1 0xA0 SHL SUB SWAP1 SWAP3 AND SWAP2 PUSH1 0x60 SWAP2 PUSH1 0x0 SWAP2 DUP3 SWAP2 DUP6 SWAP2 PUSH4 0x6FDDE03 SWAP2 PUSH1 0x4 DUP1 DUP3 ADD SWAP3 DUP7 SWAP3 SWAP1 SWAP2 SWAP1 DUP3 SWAP1 SUB ADD DUP2 DUP7 GAS STATICCALL ISZERO DUP1 ISZERO PUSH2 0x8E5 JUMPI RETURNDATASIZE PUSH1 0x0 DUP1 RETURNDATACOPY RETURNDATASIZE PUSH1 0x0 REVERT JUMPDEST POP POP POP POP PUSH1 0x40 MLOAD RETURNDATASIZE PUSH1 0x0 DUP3 RETURNDATACOPY PUSH1 0x1F RETURNDATASIZE SWAP1 DUP2 ADD PUSH1 0x1F NOT AND DUP3 ADD PUSH1 0x40 MSTORE PUSH2 0x90D SWAP2 SWAP1 DUP2 ADD SWAP1 PUSH2 0x2979 JUMP JUMPDEST SWAP3 POP PUSH1 0xFD PUSH1 0x0 SWAP1 SLOAD SWAP1 PUSH2 0x100 EXP SWAP1 DIV PUSH1 0x1 PUSH1 0x1 PUSH1 0xA0 SHL SUB AND PUSH1 0x1 PUSH1 0x1 PUSH1 0xA0 SHL SUB AND PUSH4 0x313CE567 PUSH1 0x40 MLOAD DUP2 PUSH4 0xFFFFFFFF AND PUSH1 0xE0 SHL DUP2 MSTORE PUSH1 0x4 ADD PUSH1 0x20 PUSH1 0x40 MLOAD DUP1 DUP4 SUB DUP2 DUP7 GAS STATICCALL ISZERO DUP1 ISZERO PUSH2 0x962 JUMPI RETURNDATASIZE PUSH1 0x0 DUP1 RETURNDATACOPY RETURNDATASIZE PUSH1 0x0 REVERT JUMPDEST POP POP POP POP PUSH1 0x40 MLOAD RETURNDATASIZE PUSH1 0x1F NOT PUSH1 0x1F DUP3 ADD AND DUP3 ADD DUP1 PUSH1 0x40 MSTORE POP DUP2 ADD SWAP1 PUSH2 0x986 SWAP2 SWAP1 PUSH2 0x29E7 JUMP JUMPDEST SWAP2 POP PUSH1 0xFD PUSH1 0x0 SWAP1 SLOAD SWAP1 PUSH2 0x100 EXP SWAP1 DIV PUSH1 0x1 PUSH1 0x1 PUSH1 0xA0 SHL SUB AND PUSH1 0x1 PUSH1 0x1 PUSH1 0xA0 SHL SUB AND PUSH4 0x18160DDD PUSH1 0x40 MLOAD DUP2 PUSH4 0xFFFFFFFF AND PUSH1 0xE0 SHL DUP2 MSTORE PUSH1 0x4 ADD PUSH1 0x20 PUSH1 0x40 MLOAD DUP1 DUP4 SUB DUP2 DUP7 GAS STATICCALL ISZERO DUP1 ISZERO PUSH2 0x9DB JUMPI RETURNDATASIZE PUSH1 0x0 DUP1 RETURNDATACOPY RETURNDATASIZE PUSH1 0x0 REVERT JUMPDEST POP POP POP POP PUSH1 0x40 MLOAD RETURNDATASIZE PUSH1 0x1F NOT PUSH1 0x1F DUP3 ADD AND DUP3 ADD DUP1 PUSH1 0x40 MSTORE POP DUP2 ADD SWAP1 PUSH2 0x9FF SWAP2 SWAP1 PUSH2 0x29E7 JUMP JUMPDEST SWAP1 POP SWAP1 SWAP2 SWAP3 SWAP4 JUMP JUMPDEST PUSH2 0xA0F PUSH2 0x1BCE JUMP JUMPDEST PUSH2 0xA17 PUSH2 0x1C28 JUMP JUMPDEST JUMP JUMPDEST PUSH1 0x1 PUSH1 0x1 PUSH1 0xA0 SHL SUB PUSH32 0x0 AND ADDRESS SUB PUSH2 0xA6A JUMPI PUSH1 0x40 MLOAD PUSH3 0x461BCD PUSH1 0xE5 SHL DUP2 MSTORE PUSH1 0x4 ADD PUSH2 0xA61 SWAP1 PUSH2 0x2A00 JUMP JUMPDEST PUSH1 0x40 MLOAD DUP1 SWAP2 SUB SWAP1 REVERT JUMPDEST PUSH32 0x0 PUSH1 0x1 PUSH1 0x1 PUSH1 0xA0 SHL SUB AND PUSH2 0xAB3 PUSH1 0x0 DUP1 MLOAD PUSH1 0x20 PUSH2 0x2DC4 DUP4 CODECOPY DUP2 MLOAD SWAP2 MSTORE SLOAD PUSH1 0x1 PUSH1 0x1 PUSH1 0xA0 SHL SUB AND SWAP1 JUMP JUMPDEST PUSH1 0x1 PUSH1 0x1 PUSH1 0xA0 SHL SUB AND EQ PUSH2 0xAD9 JUMPI PUSH1 0x40 MLOAD PUSH3 0x461BCD PUSH1 0xE5 SHL DUP2 MSTORE PUSH1 0x4 ADD PUSH2 0xA61 SWAP1 PUSH2 0x2A4C JUMP JUMPDEST PUSH2 0xAE2 DUP2 PUSH2 0x1C82 JUMP JUMPDEST PUSH1 0x40 DUP1 MLOAD PUSH1 0x0 DUP1 DUP3 MSTORE PUSH1 0x20 DUP3 ADD SWAP1 SWAP3 MSTORE PUSH2 0xAFE SWAP2 DUP4 SWAP2 SWAP1 PUSH2 0x1C8A JUMP JUMPDEST POP JUMP JUMPDEST PUSH2 0xB09 PUSH2 0x1BCE JUMP JUMPDEST PUSH2 0x109 DUP1 SLOAD SWAP2 ISZERO ISZERO PUSH3 0x10000 MUL PUSH3 0xFF0000 NOT SWAP1 SWAP3 AND SWAP2 SWAP1 SWAP2 OR SWAP1 SSTORE JUMP JUMPDEST PUSH2 0xB2E PUSH2 0x1BCE JUMP JUMPDEST PUSH1 0xFC DUP1 SLOAD PUSH1 0x1 PUSH1 0x1 PUSH1 0xA0 SHL SUB NOT AND PUSH1 0x1 PUSH1 0x1 PUSH1 0xA0 SHL SUB SWAP3 SWAP1 SWAP3 AND SWAP2 SWAP1 SWAP2 OR SWAP1 SSTORE JUMP JUMPDEST PUSH1 0x1 PUSH1 0x1 PUSH1 0xA0 SHL SUB PUSH32 0x0 AND ADDRESS SUB PUSH2 0xB98 JUMPI PUSH1 0x40 MLOAD PUSH3 0x461BCD PUSH1 0xE5 SHL DUP2 MSTORE PUSH1 0x4 ADD PUSH2 0xA61 SWAP1 PUSH2 0x2A00 JUMP JUMPDEST PUSH32 0x0 PUSH1 0x1 PUSH1 0x1 PUSH1 0xA0 SHL SUB AND PUSH2 0xBE1 PUSH1 0x0 DUP1 MLOAD PUSH1 0x20 PUSH2 0x2DC4 DUP4 CODECOPY DUP2 MLOAD SWAP2 MSTORE SLOAD PUSH1 0x1 PUSH1 0x1 PUSH1 0xA0 SHL SUB AND SWAP1 JUMP JUMPDEST PUSH1 0x1 PUSH1 0x1 PUSH1 0xA0 SHL SUB AND EQ PUSH2 0xC07 JUMPI PUSH1 0x40 MLOAD PUSH3 0x461BCD PUSH1 0xE5 SHL DUP2 MSTORE PUSH1 0x4 ADD PUSH2 0xA61 SWAP1 PUSH2 0x2A4C JUMP JUMPDEST PUSH2 0xC10 DUP3 PUSH2 0x1C82 JUMP JUMPDEST PUSH2 0xC1C DUP3 DUP3 PUSH1 0x1 PUSH2 0x1C8A JUMP JUMPDEST POP POP JUMP JUMPDEST PUSH1 0x0 ADDRESS PUSH1 0x1 PUSH1 0x1 PUSH1 0xA0 SHL SUB PUSH32 0x0 AND EQ PUSH2 0xCC0 JUMPI PUSH1 0x40 MLOAD PUSH3 0x461BCD PUSH1 0xE5 SHL DUP2 MSTORE PUSH1 0x20 PUSH1 0x4 DUP3 ADD MSTORE PUSH1 0x38 PUSH1 0x24 DUP3 ADD MSTORE PUSH32 0x555550535570677261646561626C653A206D757374206E6F742062652063616C PUSH1 0x44 DUP3 ADD MSTORE PUSH32 0x6C6564207468726F7567682064656C656761746563616C6C0000000000000000 PUSH1 0x64 DUP3 ADD MSTORE PUSH1 0x84 ADD PUSH2 0xA61 JUMP JUMPDEST POP PUSH1 0x0 DUP1 MLOAD PUSH1 0x20 PUSH2 0x2DC4 DUP4 CODECOPY DUP2 MLOAD SWAP2 MSTORE SWAP1 JUMP JUMPDEST PUSH2 0xCDB PUSH2 0x1DF5 JUMP JUMPDEST CALLER CALLVALUE PUSH2 0xCE5 PUSH2 0x1E3B JUMP JUMPDEST DUP2 LT ISZERO PUSH2 0xD47 JUMPI PUSH1 0x40 MLOAD PUSH3 0x461BCD PUSH1 0xE5 SHL DUP2 MSTORE PUSH1 0x20 PUSH1 0x4 DUP3 ADD MSTORE PUSH1 0x2A PUSH1 0x24 DUP3 ADD MSTORE PUSH32 0x4574682056616C7565206973206C657373207468616E206D696E436F6E747269 PUSH1 0x44 DUP3 ADD MSTORE PUSH10 0x313ABA34B7B722AA2417 PUSH1 0xB1 SHL PUSH1 0x64 DUP3 ADD MSTORE PUSH1 0x84 ADD PUSH2 0xA61 JUMP JUMPDEST PUSH1 0x0 PUSH2 0xD56 DUP3 PUSH2 0x103 SLOAD PUSH2 0x1E82 JUMP JUMPDEST SWAP1 POP PUSH1 0x0 PUSH2 0xD67 DUP4 PUSH2 0x104 SLOAD PUSH2 0x1E82 JUMP JUMPDEST PUSH2 0x109 SLOAD SWAP1 SWAP2 POP PUSH1 0xFF AND ISZERO PUSH2 0xD87 JUMPI PUSH2 0xD81 DUP5 DUP4 DUP8 PUSH2 0x1FCA JUMP JUMPDEST POP PUSH2 0xDA5 JUMP JUMPDEST PUSH1 0xFD SLOAD PUSH1 0xFB SLOAD PUSH2 0xDA5 SWAP2 PUSH1 0x1 PUSH1 0x1 PUSH1 0xA0 SHL SUB SWAP1 DUP2 AND SWAP2 AND DUP7 DUP6 PUSH2 0x2053 JUMP JUMPDEST PUSH2 0x109 SLOAD PUSH2 0x100 SWAP1 DIV PUSH1 0xFF AND ISZERO PUSH2 0xF08 JUMPI PUSH1 0xFF SLOAD PUSH1 0x40 DUP1 MLOAD PUSH4 0xE7CCA9C7 PUSH1 0xE0 SHL DUP2 MSTORE SWAP1 MLOAD PUSH1 0x1 PUSH1 0x1 PUSH1 0xA0 SHL SUB SWAP1 SWAP3 AND SWAP2 PUSH2 0x8FC SWAP2 PUSH2 0xE5E SWAP2 PUSH1 0x64 SWAP2 PUSH2 0xE58 SWAP2 DUP7 SWAP2 PUSH4 0xE7CCA9C7 SWAP2 PUSH1 0x4 DUP1 DUP4 ADD SWAP3 PUSH1 0x20 SWAP3 SWAP2 SWAP1 DUP3 SWAP1 SUB ADD DUP2 DUP7 GAS STATICCALL ISZERO DUP1 ISZERO PUSH2 0xE10 JUMPI RETURNDATASIZE PUSH1 0x0 DUP1 RETURNDATACOPY RETURNDATASIZE PUSH1 0x0 REVERT JUMPDEST POP POP POP POP PUSH1 0x40 MLOAD RETURNDATASIZE PUSH1 0x1F NOT PUSH1 0x1F DUP3 ADD AND DUP3 ADD DUP1 PUSH1 0x40 MSTORE POP DUP2 ADD SWAP1 PUSH2 0xE34 SWAP2 SWAP1 PUSH2 0x29E7 JUMP JUMPDEST PUSH2 0xE3C PUSH2 0x20D5 JUMP JUMPDEST PUSH2 0xE47 SWAP1 PUSH1 0x64 PUSH2 0x2AAE JUMP JUMPDEST PUSH2 0xE51 SWAP2 SWAP1 PUSH2 0x2AC5 JUMP JUMPDEST DUP9 SWAP1 PUSH2 0x215D JUMP JUMPDEST SWAP1 PUSH2 0x2172 JUMP JUMPDEST PUSH1 0x40 MLOAD DUP2 ISZERO SWAP1 SWAP3 MUL SWAP2 PUSH1 0x0 DUP2 DUP2 DUP2 DUP6 DUP9 DUP9 CALL SWAP4 POP POP POP POP ISZERO DUP1 ISZERO PUSH2 0xE86 JUMPI RETURNDATASIZE PUSH1 0x0 DUP1 RETURNDATACOPY RETURNDATASIZE PUSH1 0x0 REVERT JUMPDEST POP PUSH1 0xFF SLOAD PUSH1 0x40 MLOAD PUSH4 0x1EB714B1 PUSH1 0xE3 SHL DUP2 MSTORE PUSH1 0x4 DUP2 ADD DUP6 SWAP1 MSTORE PUSH1 0x1 PUSH1 0x1 PUSH1 0xA0 SHL SUB DUP7 DUP2 AND PUSH1 0x24 DUP4 ADD MSTORE DUP9 DUP2 AND PUSH1 0x44 DUP4 ADD MSTORE SWAP1 SWAP2 AND SWAP1 PUSH4 0xF5B8A588 SWAP1 PUSH1 0x64 ADD PUSH1 0x20 PUSH1 0x40 MLOAD DUP1 DUP4 SUB DUP2 PUSH1 0x0 DUP8 GAS CALL ISZERO DUP1 ISZERO PUSH2 0xEE2 JUMPI RETURNDATASIZE PUSH1 0x0 DUP1 RETURNDATACOPY RETURNDATASIZE PUSH1 0x0 REVERT JUMPDEST POP POP POP POP PUSH1 0x40 MLOAD RETURNDATASIZE PUSH1 0x1F NOT PUSH1 0x1F DUP3 ADD AND DUP3 ADD DUP1 PUSH1 0x40 MSTORE POP DUP2 ADD SWAP1 PUSH2 0xF06 SWAP2 SWAP1 PUSH2 0x295C JUMP JUMPDEST POP JUMPDEST PUSH2 0x109 SLOAD PUSH3 0x10000 SWAP1 DIV PUSH1 0xFF AND ISZERO PUSH2 0xF79 JUMPI PUSH2 0x101 SLOAD PUSH1 0xFC SLOAD PUSH2 0xF39 SWAP2 PUSH1 0x1 PUSH1 0x1 PUSH1 0xA0 SHL SUB SWAP1 DUP2 AND SWAP2 AND DUP7 DUP5 PUSH2 0x2053 JUMP JUMPDEST PUSH2 0x101 SLOAD PUSH1 0x40 MLOAD PUSH1 0x1 PUSH1 0x1 PUSH1 0xA0 SHL SUB SWAP2 DUP3 AND SWAP2 DUP4 SWAP2 SWAP1 DUP8 AND SWAP1 PUSH32 0xDEC9451EA7F92DE23239AC3B71D0A2C5D5BAE68AF900A8B74100C866D159F419 SWAP1 PUSH1 0x0 SWAP1 LOG4 JUMPDEST PUSH2 0xFA0 DUP5 DUP4 DUP6 PUSH1 0x40 MLOAD DUP1 PUSH1 0x40 ADD PUSH1 0x40 MSTORE DUP1 PUSH1 0x3 DUP2 MSTORE PUSH1 0x20 ADD PUSH3 0x8AA89 PUSH1 0xEB SHL DUP2 MSTORE POP PUSH2 0x217E JUMP JUMPDEST PUSH1 0xFB SLOAD PUSH1 0x40 MLOAD PUSH1 0x1 PUSH1 0x1 PUSH1 0xA0 SHL SUB SWAP1 SWAP2 AND SWAP1 SELFBALANCE DUP1 ISZERO PUSH2 0x8FC MUL SWAP2 PUSH1 0x0 DUP2 DUP2 DUP2 DUP6 DUP9 DUP9 CALL SWAP4 POP POP POP POP ISZERO DUP1 ISZERO PUSH2 0xFD9 JUMPI RETURNDATASIZE PUSH1 0x0 DUP1 RETURNDATACOPY RETURNDATASIZE PUSH1 0x0 REVERT JUMPDEST POP POP POP POP POP POP POP JUMP JUMPDEST PUSH2 0x101 SLOAD PUSH1 0x40 DUP1 MLOAD PUSH4 0x6FDDE03 PUSH1 0xE0 SHL DUP2 MSTORE SWAP1 MLOAD PUSH1 0x1 PUSH1 0x1 PUSH1 0xA0 SHL SUB SWAP1 SWAP3 AND SWAP2 PUSH1 0x60 SWAP2 PUSH1 0x0 SWAP2 DUP3 SWAP2 DUP6 SWAP2 PUSH4 0x6FDDE03 SWAP2 PUSH1 0x4 DUP1 DUP3 ADD SWAP3 DUP7 SWAP3 SWAP1 SWAP2 SWAP1 DUP3 SWAP1 SUB ADD DUP2 DUP7 GAS STATICCALL ISZERO DUP1 ISZERO PUSH2 0x1036 JUMPI RETURNDATASIZE PUSH1 0x0 DUP1 RETURNDATACOPY RETURNDATASIZE PUSH1 0x0 REVERT JUMPDEST POP POP POP POP PUSH1 0x40 MLOAD RETURNDATASIZE PUSH1 0x0 DUP3 RETURNDATACOPY PUSH1 0x1F RETURNDATASIZE SWAP1 DUP2 ADD PUSH1 0x1F NOT AND DUP3 ADD PUSH1 0x40 MSTORE PUSH2 0x105E SWAP2 SWAP1 DUP2 ADD SWAP1 PUSH2 0x2979 JUMP JUMPDEST SWAP3 POP PUSH2 0x101 PUSH1 0x0 SWAP1 SLOAD SWAP1 PUSH2 0x100 EXP SWAP1 DIV PUSH1 0x1 PUSH1 0x1 PUSH1 0xA0 SHL SUB AND PUSH1 0x1 PUSH1 0x1 PUSH1 0xA0 SHL SUB AND PUSH4 0x313CE567 PUSH1 0x40 MLOAD DUP2 PUSH4 0xFFFFFFFF AND PUSH1 0xE0 SHL DUP2 MSTORE PUSH1 0x4 ADD PUSH1 0x20 PUSH1 0x40 MLOAD DUP1 DUP4 SUB DUP2 DUP7 GAS STATICCALL ISZERO DUP1 ISZERO PUSH2 0x10B4 JUMPI RETURNDATASIZE PUSH1 0x0 DUP1 RETURNDATACOPY RETURNDATASIZE PUSH1 0x0 REVERT JUMPDEST POP POP POP POP PUSH1 0x40 MLOAD RETURNDATASIZE PUSH1 0x1F NOT PUSH1 0x1F DUP3 ADD AND DUP3 ADD DUP1 PUSH1 0x40 MSTORE POP DUP2 ADD SWAP1 PUSH2 0x10D8 SWAP2 SWAP1 PUSH2 0x29E7 JUMP JUMPDEST SWAP2 POP PUSH2 0x101 PUSH1 0x0 SWAP1 SLOAD SWAP1 PUSH2 0x100 EXP SWAP1 DIV PUSH1 0x1 PUSH1 0x1 PUSH1 0xA0 SHL SUB AND PUSH1 0x1 PUSH1 0x1 PUSH1 0xA0 SHL SUB AND PUSH4 0x18160DDD PUSH1 0x40 MLOAD DUP2 PUSH4 0xFFFFFFFF AND PUSH1 0xE0 SHL DUP2 MSTORE PUSH1 0x4 ADD PUSH1 0x20 PUSH1 0x40 MLOAD DUP1 DUP4 SUB DUP2 DUP7 GAS STATICCALL ISZERO DUP1 ISZERO PUSH2 0x9DB JUMPI RETURNDATASIZE PUSH1 0x0 DUP1 RETURNDATACOPY RETURNDATASIZE PUSH1 0x0 REVERT JUMPDEST PUSH2 0x1136 PUSH2 0x1BCE JUMP JUMPDEST PUSH2 0xA17 PUSH1 0x0 PUSH2 0x21FB JUMP JUMPDEST PUSH2 0x1148 PUSH2 0x1BCE JUMP JUMPDEST PUSH1 0xFB DUP1 SLOAD PUSH1 0x1 PUSH1 0x1 PUSH1 0xA0 SHL SUB NOT AND PUSH1 0x1 PUSH1 0x1 PUSH1 0xA0 SHL SUB SWAP3 SWAP1 SWAP3 AND SWAP2 SWAP1 SWAP2 OR SWAP1 SSTORE JUMP JUMPDEST PUSH2 0x1172 PUSH2 0x1BCE JUMP JUMPDEST PUSH1 0x40 MLOAD PUSH1 0x1 PUSH1 0x1 PUSH1 0xA0 SHL SUB DUP4 AND SWAP1 DUP3 ISZERO PUSH2 0x8FC MUL SWAP1 DUP4 SWAP1 PUSH1 0x0 DUP2 DUP2 DUP2 DUP6 DUP9 DUP9 CALL SWAP4 POP POP POP POP ISZERO DUP1 ISZERO PUSH2 0x84E JUMPI RETURNDATASIZE PUSH1 0x0 DUP1 RETURNDATACOPY RETURNDATASIZE PUSH1 0x0 REVERT JUMPDEST PUSH1 0x0 PUSH2 0x11B2 PUSH2 0x1BCE JUMP JUMPDEST POP PUSH2 0x109 DUP1 SLOAD PUSH1 0xFF NOT AND DUP3 ISZERO ISZERO OR SWAP1 SSTORE SWAP1 JUMP JUMPDEST PUSH1 0x0 SLOAD PUSH2 0x100 SWAP1 DIV PUSH1 0xFF AND ISZERO DUP1 DUP1 ISZERO PUSH2 0x11E5 JUMPI POP PUSH1 0x0 SLOAD PUSH1 0x1 PUSH1 0xFF SWAP1 SWAP2 AND LT JUMPDEST DUP1 PUSH2 0x11FF JUMPI POP ADDRESS EXTCODESIZE ISZERO DUP1 ISZERO PUSH2 0x11FF JUMPI POP PUSH1 0x0 SLOAD PUSH1 0xFF AND PUSH1 0x1 EQ JUMPDEST PUSH2 0x1262 JUMPI PUSH1 0x40 MLOAD PUSH3 0x461BCD PUSH1 0xE5 SHL DUP2 MSTORE PUSH1 0x20 PUSH1 0x4 DUP3 ADD MSTORE PUSH1 0x2E PUSH1 0x24 DUP3 ADD MSTORE PUSH32 0x496E697469616C697A61626C653A20636F6E747261637420697320616C726561 PUSH1 0x44 DUP3 ADD MSTORE PUSH14 0x191E481A5B9A5D1A585B1A5E9959 PUSH1 0x92 SHL PUSH1 0x64 DUP3 ADD MSTORE PUSH1 0x84 ADD PUSH2 0xA61 JUMP JUMPDEST PUSH1 0x0 DUP1 SLOAD PUSH1 0xFF NOT AND PUSH1 0x1 OR SWAP1 SSTORE DUP1 ISZERO PUSH2 0x1285 JUMPI PUSH1 0x0 DUP1 SLOAD PUSH2 0xFF00 NOT AND PUSH2 0x100 OR SWAP1 SSTORE JUMPDEST PUSH2 0x102 DUP1 SLOAD PUSH1 0x1 PUSH1 0x1 PUSH1 0xA0 SHL SUB NOT SWAP1 DUP2 AND PUSH20 0xAB594600376EC9FD91F8E885DADF0CE036862DE0 OR SWAP1 SWAP2 SSTORE PUSH2 0x100 DUP1 SLOAD DUP3 AND PUSH20 0xC2132D05D31C914A87C6611C10748AEB04B58E8F OR SWAP1 SSTORE PUSH1 0xFD DUP1 SLOAD DUP3 AND PUSH20 0x9C19247BD66F34E07C05BEA8895D5D35DD49F253 OR SWAP1 SSTORE PUSH2 0x101 DUP1 SLOAD DUP3 AND PUSH20 0x7F9FD63932BABC508FAD2F324EB534D09CFE86F0 OR SWAP1 SSTORE PUSH1 0xFB DUP1 SLOAD DUP3 AND PUSH20 0xB35963E0AB2141CD4AB743E7A35D8772F3CF0447 OR SWAP1 SSTORE PUSH1 0xFC DUP1 SLOAD SWAP1 SWAP2 AND PUSH20 0xF91E1ED00F015C6BE3FBC6B0D84FBAEF005EC5B5 OR SWAP1 SSTORE PUSH8 0x75F610F70ED20000 PUSH2 0x103 SSTORE PUSH8 0x12DFB0CB5E88000 PUSH2 0x104 SSTORE PUSH2 0x109 DUP1 SLOAD PUSH3 0x10100 PUSH3 0xFFFFFF NOT SWAP1 SWAP2 AND OR SWAP1 SSTORE PUSH9 0x1158E460913D00000 PUSH2 0x105 SSTORE PUSH2 0x138C PUSH2 0x224D JUMP JUMPDEST PUSH2 0x1394 PUSH2 0x227C JUMP JUMPDEST PUSH2 0x139C PUSH2 0x22AB JUMP JUMPDEST DUP1 ISZERO PUSH2 0xAFE JUMPI PUSH1 0x0 DUP1 SLOAD PUSH2 0xFF00 NOT AND SWAP1 SSTORE PUSH1 0x40 MLOAD PUSH1 0x1 DUP2 MSTORE PUSH32 0x7F26B83FF96E1F2B6A682F133852F6798A09C465DA95921460CEFB3847402498 SWAP1 PUSH1 0x20 ADD PUSH1 0x40 MLOAD DUP1 SWAP2 SUB SWAP1 LOG1 POP JUMP JUMPDEST PUSH1 0x0 PUSH2 0x13EE PUSH2 0x22D2 JUMP JUMPDEST SWAP1 POP SWAP1 JUMP JUMPDEST PUSH2 0x100 SLOAD PUSH1 0x40 DUP1 MLOAD PUSH4 0x6FDDE03 PUSH1 0xE0 SHL DUP2 MSTORE SWAP1 MLOAD PUSH1 0x1 PUSH1 0x1 PUSH1 0xA0 SHL SUB SWAP1 SWAP3 AND SWAP2 PUSH1 0x60 SWAP2 PUSH1 0x0 SWAP2 DUP3 SWAP2 DUP6 SWAP2 PUSH4 0x6FDDE03 SWAP2 PUSH1 0x4 DUP1 DUP3 ADD SWAP3 DUP7 SWAP3 SWAP1 SWAP2 SWAP1 DUP3 SWAP1 SUB ADD DUP2 DUP7 GAS STATICCALL ISZERO DUP1 ISZERO PUSH2 0x1447 JUMPI RETURNDATASIZE PUSH1 0x0 DUP1 RETURNDATACOPY RETURNDATASIZE PUSH1 0x0 REVERT JUMPDEST POP POP POP POP PUSH1 0x40 MLOAD RETURNDATASIZE PUSH1 0x0 DUP3 RETURNDATACOPY PUSH1 0x1F RETURNDATASIZE SWAP1 DUP2 ADD PUSH1 0x1F NOT AND DUP3 ADD PUSH1 0x40 MSTORE PUSH2 0x146F SWAP2 SWAP1 DUP2 ADD SWAP1 PUSH2 0x2979 JUMP JUMPDEST SWAP3 POP PUSH2 0x100 PUSH1 0x0 SWAP1 SLOAD SWAP1 PUSH2 0x100 EXP SWAP1 DIV PUSH1 0x1 PUSH1 0x1 PUSH1 0xA0 SHL SUB AND PUSH1 0x1 PUSH1 0x1 PUSH1 0xA0 SHL SUB AND PUSH4 0x313CE567 PUSH1 0x40 MLOAD DUP2 PUSH4 0xFFFFFFFF AND PUSH1 0xE0 SHL DUP2 MSTORE PUSH1 0x4 ADD PUSH1 0x20 PUSH1 0x40 MLOAD DUP1 DUP4 SUB DUP2 DUP7 GAS STATICCALL ISZERO DUP1 ISZERO PUSH2 0x14C5 JUMPI RETURNDATASIZE PUSH1 0x0 DUP1 RETURNDATACOPY RETURNDATASIZE PUSH1 0x0 REVERT JUMPDEST POP POP POP POP PUSH1 0x40 MLOAD RETURNDATASIZE PUSH1 0x1F NOT PUSH1 0x1F DUP3 ADD AND DUP3 ADD DUP1 PUSH1 0x40 MSTORE POP DUP2 ADD SWAP1 PUSH2 0x14E9 SWAP2 SWAP1 PUSH2 0x29E7 JUMP JUMPDEST SWAP2 POP PUSH2 0x100 PUSH1 0x0 SWAP1 SLOAD SWAP1 PUSH2 0x100 EXP SWAP1 DIV PUSH1 0x1 PUSH1 0x1 PUSH1 0xA0 SHL SUB AND PUSH1 0x1 PUSH1 0x1 PUSH1 0xA0 SHL SUB AND PUSH4 0x18160DDD PUSH1 0x40 MLOAD DUP2 PUSH4 0xFFFFFFFF AND PUSH1 0xE0 SHL DUP2 MSTORE PUSH1 0x4 ADD PUSH1 0x20 PUSH1 0x40 MLOAD DUP1 DUP4 SUB DUP2 DUP7 GAS STATICCALL ISZERO DUP1 ISZERO PUSH2 0x9DB JUMPI RETURNDATASIZE PUSH1 0x0 DUP1 RETURNDATACOPY RETURNDATASIZE PUSH1 0x0 REVERT JUMPDEST PUSH1 0x0 PUSH2 0x1549 PUSH2 0x1BCE JUMP JUMPDEST POP PUSH1 0xFE DUP1 SLOAD PUSH1 0x1 PUSH1 0x1 PUSH1 0xA0 SHL SUB DUP4 AND PUSH1 0x1 PUSH1 0x1 PUSH1 0xA0 SHL SUB NOT SWAP1 SWAP2 AND OR SWAP1 SSTORE PUSH1 0x1 SWAP2 SWAP1 POP JUMP JUMPDEST PUSH1 0x0 DUP1 PUSH2 0x1579 PUSH2 0x1E3B JUMP JUMPDEST SWAP2 POP PUSH2 0x105 SLOAD SWAP1 POP SWAP1 SWAP2 JUMP JUMPDEST PUSH1 0x0 PUSH2 0x158F PUSH2 0x1BCE JUMP JUMPDEST POP PUSH2 0x102 DUP1 SLOAD PUSH1 0x1 PUSH1 0x1 PUSH1 0xA0 SHL SUB DUP4 AND PUSH1 0x1 PUSH1 0x1 PUSH1 0xA0 SHL SUB NOT SWAP1 SWAP2 AND OR SWAP1 SSTORE PUSH1 0x1 SWAP2 SWAP1 POP JUMP JUMPDEST PUSH1 0x0 PUSH2 0x15BF PUSH2 0x1BCE JUMP JUMPDEST POP PUSH2 0x100 DUP1 SLOAD PUSH1 0x1 PUSH1 0x1 PUSH1 0xA0 SHL SUB DUP4 AND PUSH1 0x1 PUSH1 0x1 PUSH1 0xA0 SHL SUB NOT SWAP1 SWAP2 AND OR SWAP1 SSTORE PUSH1 0x1 SWAP2 SWAP1 POP JUMP JUMPDEST PUSH1 0x0 PUSH2 0x15EF PUSH2 0x1BCE JUMP JUMPDEST POP PUSH1 0xFD DUP1 SLOAD PUSH1 0x1 PUSH1 0x1 PUSH1 0xA0 SHL SUB DUP4 AND PUSH1 0x1 PUSH1 0x1 PUSH1 0xA0 SHL SUB NOT SWAP1 SWAP2 AND OR SWAP1 SSTORE PUSH1 0x1 SWAP2 SWAP1 POP JUMP JUMPDEST PUSH1 0x0 PUSH2 0x161E PUSH2 0x1BCE JUMP JUMPDEST POP PUSH2 0x105 SSTORE PUSH1 0x1 SWAP1 JUMP JUMPDEST PUSH2 0x1630 PUSH2 0x1DF5 JUMP JUMPDEST PUSH2 0x100 PUSH1 0x0 SWAP1 SLOAD SWAP1 PUSH2 0x100 EXP SWAP1 DIV PUSH1 0x1 PUSH1 0x1 PUSH1 0xA0 SHL SUB AND PUSH1 0x1 PUSH1 0x1 PUSH1 0xA0 SHL SUB AND PUSH4 0x313CE567 PUSH1 0x40 MLOAD DUP2 PUSH4 0xFFFFFFFF AND PUSH1 0xE0 SHL DUP2 MSTORE PUSH1 0x4 ADD PUSH1 0x20 PUSH1 0x40 MLOAD DUP1 DUP4 SUB DUP2 DUP7 GAS STATICCALL ISZERO DUP1 ISZERO PUSH2 0x1684 JUMPI RETURNDATASIZE PUSH1 0x0 DUP1 RETURNDATACOPY RETURNDATASIZE PUSH1 0x0 REVERT JUMPDEST POP POP POP POP PUSH1 0x40 MLOAD RETURNDATASIZE PUSH1 0x1F NOT PUSH1 0x1F DUP3 ADD AND DUP3 ADD DUP1 PUSH1 0x40 MSTORE POP DUP2 ADD SWAP1 PUSH2 0x16A8 SWAP2 SWAP1 PUSH2 0x29E7 JUMP JUMPDEST PUSH2 0x16B3 SWAP1 PUSH1 0xA PUSH2 0x2BCB JUMP JUMPDEST PUSH8 0xDE0B6B3A7640000 PUSH2 0x105 SLOAD PUSH2 0x16CA SWAP2 SWAP1 PUSH2 0x2AC5 JUMP JUMPDEST PUSH2 0x16D4 SWAP2 SWAP1 PUSH2 0x2AAE JUMP JUMPDEST DUP3 LT ISZERO PUSH2 0x172E JUMPI PUSH1 0x40 MLOAD PUSH3 0x461BCD PUSH1 0xE5 SHL DUP2 MSTORE PUSH1 0x20 PUSH1 0x4 DUP3 ADD MSTORE PUSH1 0x22 PUSH1 0x24 DUP3 ADD MSTORE PUSH32 0x5553442076616C7565206C657373207468656E206D696E206275792076616C75 PUSH1 0x44 DUP3 ADD MSTORE PUSH2 0x3297 PUSH1 0xF1 SHL PUSH1 0x64 DUP3 ADD MSTORE PUSH1 0x84 ADD PUSH2 0xA61 JUMP JUMPDEST PUSH1 0x0 CALLER SWAP1 POP PUSH1 0x0 PUSH2 0x1742 DUP5 PUSH2 0x103 SLOAD PUSH2 0x2364 JUMP JUMPDEST SWAP1 POP PUSH1 0x0 PUSH2 0x1753 DUP6 PUSH2 0x104 SLOAD PUSH2 0x2364 JUMP JUMPDEST PUSH2 0x100 SLOAD SWAP1 SWAP2 POP PUSH2 0x176F SWAP1 PUSH1 0x1 PUSH1 0x1 PUSH1 0xA0 SHL SUB AND DUP5 ADDRESS DUP9 PUSH2 0x2053 JUMP JUMPDEST PUSH2 0x109 SLOAD PUSH1 0xFF AND ISZERO PUSH2 0x178C JUMPI PUSH2 0x1786 DUP4 DUP4 DUP7 PUSH2 0x1FCA JUMP JUMPDEST POP PUSH2 0x17AA JUMP JUMPDEST PUSH1 0xFD SLOAD PUSH1 0xFB SLOAD PUSH2 0x17AA SWAP2 PUSH1 0x1 PUSH1 0x1 PUSH1 0xA0 SHL SUB SWAP1 DUP2 AND SWAP2 AND DUP6 DUP6 PUSH2 0x2053 JUMP JUMPDEST PUSH2 0x109 SLOAD PUSH2 0x100 SWAP1 DIV PUSH1 0xFF AND ISZERO PUSH2 0x1956 JUMPI PUSH2 0x100 SLOAD PUSH1 0xFF SLOAD PUSH1 0x40 DUP1 MLOAD PUSH4 0xE7CCA9C7 PUSH1 0xE0 SHL DUP2 MSTORE SWAP1 MLOAD PUSH1 0x1 PUSH1 0x1 PUSH1 0xA0 SHL SUB SWAP4 DUP5 AND SWAP4 PUSH4 0xA9059CBB SWAP4 AND SWAP2 PUSH2 0x1865 SWAP2 PUSH1 0x64 SWAP2 PUSH2 0xE58 SWAP2 DUP6 SWAP2 PUSH4 0xE7CCA9C7 SWAP2 PUSH1 0x4 DUP1 DUP4 ADD SWAP3 PUSH1 0x20 SWAP3 SWAP2 SWAP1 DUP3 SWAP1 SUB ADD DUP2 DUP7 GAS STATICCALL ISZERO DUP1 ISZERO PUSH2 0x181D JUMPI RETURNDATASIZE PUSH1 0x0 DUP1 RETURNDATACOPY RETURNDATASIZE PUSH1 0x0 REVERT JUMPDEST POP POP POP POP PUSH1 0x40 MLOAD RETURNDATASIZE PUSH1 0x1F NOT PUSH1 0x1F DUP3 ADD AND DUP3 ADD DUP1 PUSH1 0x40 MSTORE POP DUP2 ADD SWAP1 PUSH2 0x1841 SWAP2 SWAP1 PUSH2 0x29E7 JUMP JUMPDEST PUSH2 0x1849 PUSH2 0x20D5 JUMP JUMPDEST PUSH2 0x1854 SWAP1 PUSH1 0x64 PUSH2 0x2AAE JUMP JUMPDEST PUSH2 0x185E SWAP2 SWAP1 PUSH2 0x2AC5 JUMP JUMPDEST DUP12 SWAP1 PUSH2 0x215D JUMP JUMPDEST PUSH1 0x40 MLOAD PUSH1 0x1 PUSH1 0x1 PUSH1 0xE0 SHL SUB NOT PUSH1 0xE0 DUP6 SWAP1 SHL AND DUP2 MSTORE PUSH1 0x1 PUSH1 0x1 PUSH1 0xA0 SHL SUB SWAP1 SWAP3 AND PUSH1 0x4 DUP4 ADD MSTORE PUSH1 0x24 DUP3 ADD MSTORE PUSH1 0x44 ADD PUSH1 0x20 PUSH1 0x40 MLOAD DUP1 DUP4 SUB DUP2 PUSH1 0x0 DUP8 GAS CALL ISZERO DUP1 ISZERO PUSH2 0x18B0 JUMPI RETURNDATASIZE PUSH1 0x0 DUP1 RETURNDATACOPY RETURNDATASIZE PUSH1 0x0 REVERT JUMPDEST POP POP POP POP PUSH1 0x40 MLOAD RETURNDATASIZE PUSH1 0x1F NOT PUSH1 0x1F DUP3 ADD AND DUP3 ADD DUP1 PUSH1 0x40 MSTORE POP DUP2 ADD SWAP1 PUSH2 0x18D4 SWAP2 SWAP1 PUSH2 0x295C JUMP JUMPDEST POP PUSH1 0xFF SLOAD PUSH1 0x40 MLOAD PUSH4 0x5188F1E1 PUSH1 0xE0 SHL DUP2 MSTORE PUSH1 0x4 DUP2 ADD DUP8 SWAP1 MSTORE PUSH1 0x1 PUSH1 0x1 PUSH1 0xA0 SHL SUB DUP6 DUP2 AND PUSH1 0x24 DUP4 ADD MSTORE DUP9 DUP2 AND PUSH1 0x44 DUP4 ADD MSTORE SWAP1 SWAP2 AND SWAP1 PUSH4 0x5188F1E1 SWAP1 PUSH1 0x64 ADD PUSH1 0x20 PUSH1 0x40 MLOAD DUP1 DUP4 SUB DUP2 PUSH1 0x0 DUP8 GAS CALL ISZERO DUP1 ISZERO PUSH2 0x1930 JUMPI RETURNDATASIZE PUSH1 0x0 DUP1 RETURNDATACOPY RETURNDATASIZE PUSH1 0x0 REVERT JUMPDEST POP POP POP POP PUSH1 0x40 MLOAD RETURNDATASIZE PUSH1 0x1F NOT PUSH1 0x1F DUP3 ADD AND DUP3 ADD DUP1 PUSH1 0x40 MSTORE POP DUP2 ADD SWAP1 PUSH2 0x1954 SWAP2 SWAP1 PUSH2 0x295C JUMP JUMPDEST POP JUMPDEST PUSH2 0x109 SLOAD PUSH3 0x10000 SWAP1 DIV PUSH1 0xFF AND ISZERO PUSH2 0x19C7 JUMPI PUSH2 0x101 SLOAD PUSH1 0xFC SLOAD PUSH2 0x1987 SWAP2 PUSH1 0x1 PUSH1 0x1 PUSH1 0xA0 SHL SUB SWAP1 DUP2 AND SWAP2 AND DUP6 DUP5 PUSH2 0x2053 JUMP JUMPDEST PUSH2 0x101 SLOAD PUSH1 0x40 MLOAD PUSH1 0x1 PUSH1 0x1 PUSH1 0xA0 SHL SUB SWAP2 DUP3 AND SWAP2 DUP4 SWAP2 SWAP1 DUP7 AND SWAP1 PUSH32 0xDEC9451EA7F92DE23239AC3B71D0A2C5D5BAE68AF900A8B74100C866D159F419 SWAP1 PUSH1 0x0 SWAP1 LOG4 JUMPDEST PUSH2 0x19EF DUP4 DUP4 DUP8 PUSH1 0x40 MLOAD DUP1 PUSH1 0x40 ADD PUSH1 0x40 MSTORE DUP1 PUSH1 0x4 DUP2 MSTORE PUSH1 0x20 ADD PUSH4 0x1554D115 PUSH1 0xE2 SHL DUP2 MSTORE POP PUSH2 0x217E JUMP JUMPDEST PUSH2 0x100 SLOAD PUSH1 0xFB SLOAD PUSH1 0x40 MLOAD PUSH4 0x70A08231 PUSH1 0xE0 SHL DUP2 MSTORE ADDRESS PUSH1 0x4 DUP3 ADD MSTORE PUSH1 0x1 PUSH1 0x1 PUSH1 0xA0 SHL SUB SWAP3 DUP4 AND SWAP3 PUSH4 0xA9059CBB SWAP3 AND SWAP1 DUP4 SWAP1 PUSH4 0x70A08231 SWAP1 PUSH1 0x24 ADD PUSH1 0x20 PUSH1 0x40 MLOAD DUP1 DUP4 SUB DUP2 DUP7 GAS STATICCALL ISZERO DUP1 ISZERO PUSH2 0x1A45 JUMPI RETURNDATASIZE PUSH1 0x0 DUP1 RETURNDATACOPY RETURNDATASIZE PUSH1 0x0 REVERT JUMPDEST POP POP POP POP PUSH1 0x40 MLOAD RETURNDATASIZE PUSH1 0x1F NOT PUSH1 0x1F DUP3 ADD AND DUP3 ADD DUP1 PUSH1 0x40 MSTORE POP DUP2 ADD SWAP1 PUSH2 0x1A69 SWAP2 SWAP1 PUSH2 0x29E7 JUMP JUMPDEST PUSH1 0x40 MLOAD PUSH1 0x1 PUSH1 0x1 PUSH1 0xE0 SHL SUB NOT PUSH1 0xE0 DUP6 SWAP1 SHL AND DUP2 MSTORE PUSH1 0x1 PUSH1 0x1 PUSH1 0xA0 SHL SUB SWAP1 SWAP3 AND PUSH1 0x4 DUP4 ADD MSTORE PUSH1 0x24 DUP3 ADD MSTORE PUSH1 0x44 ADD PUSH1 0x20 PUSH1 0x40 MLOAD DUP1 DUP4 SUB DUP2 PUSH1 0x0 DUP8 GAS CALL ISZERO DUP1 ISZERO PUSH2 0x1AB4 JUMPI RETURNDATASIZE PUSH1 0x0 DUP1 RETURNDATACOPY RETURNDATASIZE PUSH1 0x0 REVERT JUMPDEST POP POP POP POP PUSH1 0x40 MLOAD RETURNDATASIZE PUSH1 0x1F NOT PUSH1 0x1F DUP3 ADD AND DUP3 ADD DUP1 PUSH1 0x40 MSTORE POP DUP2 ADD SWAP1 PUSH2 0xFD9 SWAP2 SWAP1 PUSH2 0x295C JUMP JUMPDEST PUSH2 0x1AE0 PUSH2 0x1BCE JUMP JUMPDEST PUSH2 0xA17 PUSH2 0x23F2 JUMP JUMPDEST PUSH1 0x0 PUSH2 0x1AF2 PUSH2 0x1BCE JUMP JUMPDEST POP PUSH2 0x103 SSTORE PUSH1 0x1 SWAP1 JUMP JUMPDEST PUSH2 0x1B04 PUSH2 0x1BCE JUMP JUMPDEST PUSH1 0x40 MLOAD CALLER SWAP1 SELFBALANCE DUP1 ISZERO PUSH2 0x8FC MUL SWAP2 PUSH1 0x0 DUP2 DUP2 DUP2 DUP6 DUP9 DUP9 CALL SWAP4 POP POP POP POP ISZERO DUP1 ISZERO PUSH2 0xAFE JUMPI RETURNDATASIZE PUSH1 0x0 DUP1 RETURNDATACOPY RETURNDATASIZE PUSH1 0x0 REVERT JUMPDEST PUSH1 0x0 PUSH2 0x1B3A PUSH2 0x1BCE JUMP JUMPDEST POP PUSH2 0x109 DUP1 SLOAD DUP3 ISZERO ISZERO PUSH2 0x100 MUL PUSH2 0xFF00 NOT SWAP1 SWAP2 AND OR SWAP1 SSTORE PUSH1 0x1 SWAP2 SWAP1 POP JUMP JUMPDEST PUSH2 0x1B60 PUSH2 0x1BCE JUMP JUMPDEST PUSH1 0x1 PUSH1 0x1 PUSH1 0xA0 SHL SUB DUP2 AND PUSH2 0x1BC5 JUMPI PUSH1 0x40 MLOAD PUSH3 0x461BCD PUSH1 0xE5 SHL DUP2 MSTORE PUSH1 0x20 PUSH1 0x4 DUP3 ADD MSTORE PUSH1 0x26 PUSH1 0x24 DUP3 ADD MSTORE PUSH32 0x4F776E61626C653A206E6577206F776E657220697320746865207A65726F2061 PUSH1 0x44 DUP3 ADD MSTORE PUSH6 0x646472657373 PUSH1 0xD0 SHL PUSH1 0x64 DUP3 ADD MSTORE PUSH1 0x84 ADD PUSH2 0xA61 JUMP JUMPDEST PUSH2 0xAFE DUP2 PUSH2 0x21FB JUMP JUMPDEST PUSH1 0x33 SLOAD PUSH1 0x1 PUSH1 0x1 PUSH1 0xA0 SHL SUB AND CALLER EQ PUSH2 0xA17 JUMPI PUSH1 0x40 MLOAD PUSH3 0x461BCD PUSH1 0xE5 SHL DUP2 MSTORE PUSH1 0x20 PUSH1 0x4 DUP3 ADD DUP2 SWAP1 MSTORE PUSH1 0x24 DUP3 ADD MSTORE PUSH32 0x4F776E61626C653A2063616C6C6572206973206E6F7420746865206F776E6572 PUSH1 0x44 DUP3 ADD MSTORE PUSH1 0x64 ADD PUSH2 0xA61 JUMP JUMPDEST PUSH2 0x1C30 PUSH2 0x1DF5 JUMP JUMPDEST PUSH1 0x65 DUP1 SLOAD PUSH1 0xFF NOT AND PUSH1 0x1 OR SWAP1 SSTORE PUSH32 0x62E78CEA01BEE320CD4E420270B5EA74000D11B0C9F74754EBDBFC544B05A258 PUSH2 0x1C65 CALLER SWAP1 JUMP JUMPDEST PUSH1 0x40 MLOAD PUSH1 0x1 PUSH1 0x1 PUSH1 0xA0 SHL SUB SWAP1 SWAP2 AND DUP2 MSTORE PUSH1 0x20 ADD PUSH1 0x40 MLOAD DUP1 SWAP2 SUB SWAP1 LOG1 JUMP JUMPDEST PUSH2 0xAFE PUSH2 0x1BCE JUMP JUMPDEST PUSH32 0x4910FDFA16FED3260ED0E7147F7CC6DA11A60208B5B9406D12A635614FFD9143 SLOAD PUSH1 0xFF AND ISZERO PUSH2 0x1CBD JUMPI PUSH2 0x84E DUP4 PUSH2 0x242B JUMP JUMPDEST DUP3 PUSH1 0x1 PUSH1 0x1 PUSH1 0xA0 SHL SUB AND PUSH4 0x52D1902D PUSH1 0x40 MLOAD DUP2 PUSH4 0xFFFFFFFF AND PUSH1 0xE0 SHL DUP2 MSTORE PUSH1 0x4 ADD PUSH1 0x20 PUSH1 0x40 MLOAD DUP1 DUP4 SUB DUP2 DUP7 GAS STATICCALL SWAP3 POP POP POP DUP1 ISZERO PUSH2 0x1D17 JUMPI POP PUSH1 0x40 DUP1 MLOAD PUSH1 0x1F RETURNDATASIZE SWAP1 DUP2 ADD PUSH1 0x1F NOT AND DUP3 ADD SWAP1 SWAP3 MSTORE PUSH2 0x1D14 SWAP2 DUP2 ADD SWAP1 PUSH2 0x29E7 JUMP JUMPDEST PUSH1 0x1 JUMPDEST PUSH2 0x1D7A JUMPI PUSH1 0x40 MLOAD PUSH3 0x461BCD PUSH1 0xE5 SHL DUP2 MSTORE PUSH1 0x20 PUSH1 0x4 DUP3 ADD MSTORE PUSH1 0x2E PUSH1 0x24 DUP3 ADD MSTORE PUSH32 0x45524331393637557067726164653A206E657720696D706C656D656E74617469 PUSH1 0x44 DUP3 ADD MSTORE PUSH14 0x6F6E206973206E6F742055555053 PUSH1 0x90 SHL PUSH1 0x64 DUP3 ADD MSTORE PUSH1 0x84 ADD PUSH2 0xA61 JUMP JUMPDEST PUSH1 0x0 DUP1 MLOAD PUSH1 0x20 PUSH2 0x2DC4 DUP4 CODECOPY DUP2 MLOAD SWAP2 MSTORE DUP2 EQ PUSH2 0x1DE9 JUMPI PUSH1 0x40 MLOAD PUSH3 0x461BCD PUSH1 0xE5 SHL DUP2 MSTORE PUSH1 0x20 PUSH1 0x4 DUP3 ADD MSTORE PUSH1 0x29 PUSH1 0x24 DUP3 ADD MSTORE PUSH32 0x45524331393637557067726164653A20756E737570706F727465642070726F78 PUSH1 0x44 DUP3 ADD MSTORE PUSH9 0x1A58589B1955555251 PUSH1 0xBA SHL PUSH1 0x64 DUP3 ADD MSTORE PUSH1 0x84 ADD PUSH2 0xA61 JUMP JUMPDEST POP PUSH2 0x84E DUP4 DUP4 DUP4 PUSH2 0x24C7 JUMP JUMPDEST PUSH1 0x65 SLOAD PUSH1 0xFF AND ISZERO PUSH2 0xA17 JUMPI PUSH1 0x40 MLOAD PUSH3 0x461BCD PUSH1 0xE5 SHL DUP2 MSTORE PUSH1 0x20 PUSH1 0x4 DUP3 ADD MSTORE PUSH1 0x10 PUSH1 0x24 DUP3 ADD MSTORE PUSH16 0x14185D5CD8589B194E881C185D5CD959 PUSH1 0x82 SHL PUSH1 0x44 DUP3 ADD MSTORE PUSH1 0x64 ADD PUSH2 0xA61 JUMP JUMPDEST PUSH1 0x0 PUSH2 0x105 SLOAD PUSH1 0x0 SUB PUSH2 0x1E4E JUMPI POP PUSH1 0x0 SWAP1 JUMP JUMPDEST PUSH1 0x0 PUSH2 0x1E58 PUSH2 0x22D2 JUMP JUMPDEST SWAP1 POP DUP1 PUSH2 0x105 SLOAD PUSH8 0xDE0B6B3A7640000 PUSH2 0x1E72 SWAP2 SWAP1 PUSH2 0x2AAE JUMP JUMPDEST PUSH2 0x1E7C SWAP2 SWAP1 PUSH2 0x2AC5 JUMP JUMPDEST SWAP2 POP POP SWAP1 JUMP JUMPDEST PUSH1 0x0 DUP1 PUSH2 0x1E8D PUSH2 0x22D2 JUMP JUMPDEST SWAP1 POP PUSH1 0x0 PUSH1 0xFD PUSH1 0x0 SWAP1 SLOAD SWAP1 PUSH2 0x100 EXP SWAP1 DIV PUSH1 0x1 PUSH1 0x1 PUSH1 0xA0 SHL SUB AND PUSH1 0x1 PUSH1 0x1 PUSH1 0xA0 SHL SUB AND PUSH4 0x313CE567 PUSH1 0x40 MLOAD DUP2 PUSH4 0xFFFFFFFF AND PUSH1 0xE0 SHL DUP2 MSTORE PUSH1 0x4 ADD PUSH1 0x20 PUSH1 0x40 MLOAD DUP1 DUP4 SUB DUP2 DUP7 GAS STATICCALL ISZERO DUP1 ISZERO PUSH2 0x1EE4 JUMPI RETURNDATASIZE PUSH1 0x0 DUP1 RETURNDATACOPY RETURNDATASIZE PUSH1 0x0 REVERT JUMPDEST POP POP POP POP PUSH1 0x40 MLOAD RETURNDATASIZE PUSH1 0x1F NOT PUSH1 0x1F DUP3 ADD AND DUP3 ADD DUP1 PUSH1 0x40 MSTORE POP DUP2 ADD SWAP1 PUSH2 0x1F08 SWAP2 SWAP1 PUSH2 0x29E7 JUMP JUMPDEST PUSH2 0x1F13 SWAP1 PUSH1 0xA PUSH2 0x2BCB JUMP JUMPDEST PUSH2 0x1F1D DUP4 DUP8 PUSH2 0x2AAE JUMP JUMPDEST PUSH2 0x1F27 SWAP2 SWAP1 PUSH2 0x2AC5 JUMP JUMPDEST SWAP1 POP PUSH2 0x1F33 DUP5 DUP3 PUSH2 0x2AAE JUMP JUMPDEST SWAP3 POP PUSH1 0xFD PUSH1 0x0 SWAP1 SLOAD SWAP1 PUSH2 0x100 EXP SWAP1 DIV PUSH1 0x1 PUSH1 0x1 PUSH1 0xA0 SHL SUB AND PUSH1 0x1 PUSH1 0x1 PUSH1 0xA0 SHL SUB AND PUSH4 0x313CE567 PUSH1 0x40 MLOAD DUP2 PUSH4 0xFFFFFFFF AND PUSH1 0xE0 SHL DUP2 MSTORE PUSH1 0x4 ADD PUSH1 0x20 PUSH1 0x40 MLOAD DUP1 DUP4 SUB DUP2 DUP7 GAS STATICCALL ISZERO DUP1 ISZERO PUSH2 0x1F88 JUMPI RETURNDATASIZE PUSH1 0x0 DUP1 RETURNDATACOPY RETURNDATASIZE PUSH1 0x0 REVERT JUMPDEST POP POP POP POP PUSH1 0x40 MLOAD RETURNDATASIZE PUSH1 0x1F NOT PUSH1 0x1F DUP3 ADD AND DUP3 ADD DUP1 PUSH1 0x40 MSTORE POP DUP2 ADD SWAP1 PUSH2 0x1FAC SWAP2 SWAP1 PUSH2 0x29E7 JUMP JUMPDEST PUSH2 0x1FB7 SWAP1 PUSH1 0xA PUSH2 0x2BCB JUMP JUMPDEST PUSH2 0x1FC1 SWAP1 DUP5 PUSH2 0x2AC5 JUMP JUMPDEST SWAP6 SWAP5 POP POP POP POP POP JUMP JUMPDEST PUSH1 0xFE SLOAD PUSH1 0x40 MLOAD PUSH4 0x18864D9 PUSH1 0xE5 SHL DUP2 MSTORE PUSH1 0x1 PUSH1 0x1 PUSH1 0xA0 SHL SUB DUP6 DUP2 AND PUSH1 0x4 DUP4 ADD MSTORE PUSH1 0x24 DUP3 ADD DUP6 SWAP1 MSTORE PUSH1 0x44 DUP3 ADD DUP5 SWAP1 MSTORE PUSH1 0x0 SWAP3 AND SWAP1 PUSH4 0x310C9B20 SWAP1 PUSH1 0x64 ADD PUSH1 0x20 PUSH1 0x40 MLOAD DUP1 DUP4 SUB DUP2 PUSH1 0x0 DUP8 GAS CALL ISZERO DUP1 ISZERO PUSH2 0x2025 JUMPI RETURNDATASIZE PUSH1 0x0 DUP1 RETURNDATACOPY RETURNDATASIZE PUSH1 0x0 REVERT JUMPDEST POP POP POP POP PUSH1 0x40 MLOAD RETURNDATASIZE PUSH1 0x1F NOT PUSH1 0x1F DUP3 ADD AND DUP3 ADD DUP1 PUSH1 0x40 MSTORE POP DUP2 ADD SWAP1 PUSH2 0x2049 SWAP2 SWAP1 PUSH2 0x295C JUMP JUMPDEST SWAP1 POP JUMPDEST SWAP4 SWAP3 POP POP POP JUMP JUMPDEST PUSH1 0x40 MLOAD PUSH4 0x23B872DD PUSH1 0xE0 SHL DUP2 MSTORE PUSH1 0x1 PUSH1 0x1 PUSH1 0xA0 SHL SUB DUP5 DUP2 AND PUSH1 0x4 DUP4 ADD MSTORE DUP4 DUP2 AND PUSH1 0x24 DUP4 ADD MSTORE PUSH1 0x44 DUP3 ADD DUP4 SWAP1 MSTORE DUP6 AND SWAP1 PUSH4 0x23B872DD SWAP1 PUSH1 0x64 ADD PUSH1 0x20 PUSH1 0x40 MLOAD DUP1 DUP4 SUB DUP2 PUSH1 0x0 DUP8 GAS CALL ISZERO DUP1 ISZERO PUSH2 0x20AA JUMPI RETURNDATASIZE PUSH1 0x0 DUP1 RETURNDATACOPY RETURNDATASIZE PUSH1 0x0 REVERT JUMPDEST POP POP POP POP PUSH1 0x40 MLOAD RETURNDATASIZE PUSH1 0x1F NOT PUSH1 0x1F DUP3 ADD AND DUP3 ADD DUP1 PUSH1 0x40 MSTORE POP DUP2 ADD SWAP1 PUSH2 0x20CE SWAP2 SWAP1 PUSH2 0x295C JUMP JUMPDEST POP POP POP POP POP JUMP JUMPDEST PUSH1 0x0 DUP1 PUSH1 0xFF PUSH1 0x0 SWAP1 SLOAD SWAP1 PUSH2 0x100 EXP SWAP1 DIV PUSH1 0x1 PUSH1 0x1 PUSH1 0xA0 SHL SUB AND PUSH1 0x1 PUSH1 0x1 PUSH1 0xA0 SHL SUB AND PUSH4 0x918A54DB PUSH1 0x40 MLOAD DUP2 PUSH4 0xFFFFFFFF AND PUSH1 0xE0 SHL DUP2 MSTORE PUSH1 0x4 ADD PUSH1 0x0 PUSH1 0x40 MLOAD DUP1 DUP4 SUB DUP2 DUP7 GAS STATICCALL ISZERO DUP1 ISZERO PUSH2 0x212B JUMPI RETURNDATASIZE PUSH1 0x0 DUP1 RETURNDATACOPY RETURNDATASIZE PUSH1 0x0 REVERT JUMPDEST POP POP POP POP PUSH1 0x40 MLOAD RETURNDATASIZE PUSH1 0x0 DUP3 RETURNDATACOPY PUSH1 0x1F RETURNDATASIZE SWAP1 DUP2 ADD PUSH1 0x1F NOT AND DUP3 ADD PUSH1 0x40 MSTORE PUSH2 0x2153 SWAP2 SWAP1 DUP2 ADD SWAP1 PUSH2 0x2C57 JUMP JUMPDEST POP SWAP1 SWAP5 SWAP4 POP POP POP POP JUMP JUMPDEST PUSH1 0x0 PUSH2 0x2169 DUP3 DUP5 PUSH2 0x2AAE JUMP JUMPDEST SWAP1 POP JUMPDEST SWAP3 SWAP2 POP POP JUMP JUMPDEST PUSH1 0x0 PUSH2 0x2169 DUP3 DUP5 PUSH2 0x2AC5 JUMP JUMPDEST DUP3 PUSH2 0x106 PUSH1 0x0 DUP3 DUP3 SLOAD PUSH2 0x2191 SWAP2 SWAP1 PUSH2 0x2CCC JUMP JUMPDEST SWAP3 POP POP DUP2 SWAP1 SSTORE POP DUP2 PUSH2 0x107 PUSH1 0x0 DUP3 DUP3 SLOAD PUSH2 0x21AB SWAP2 SWAP1 PUSH2 0x2CCC JUMP JUMPDEST SWAP3 POP POP DUP2 SWAP1 SSTORE POP DUP2 DUP4 DUP6 PUSH1 0x1 PUSH1 0x1 PUSH1 0xA0 SHL SUB AND PUSH32 0x4ED8F3D1ED53B91A72EC0150F2643E443830CC7515A0B4111DB52C15CD8119E6 DUP5 PUSH1 0x40 MLOAD PUSH2 0x21ED SWAP2 SWAP1 PUSH2 0x2CDF JUMP JUMPDEST PUSH1 0x40 MLOAD DUP1 SWAP2 SUB SWAP1 LOG4 POP POP POP POP JUMP JUMPDEST PUSH1 0x33 DUP1 SLOAD PUSH1 0x1 PUSH1 0x1 PUSH1 0xA0 SHL SUB DUP4 DUP2 AND PUSH1 0x1 PUSH1 0x1 PUSH1 0xA0 SHL SUB NOT DUP4 AND DUP2 OR SWAP1 SWAP4 SSTORE PUSH1 0x40 MLOAD SWAP2 AND SWAP2 SWAP1 DUP3 SWAP1 PUSH32 0x8BE0079C531659141344CD1FD0A4F28419497F9722A3DAAFE3B4186F6B6457E0 SWAP1 PUSH1 0x0 SWAP1 LOG3 POP POP JUMP JUMPDEST PUSH1 0x0 SLOAD PUSH2 0x100 SWAP1 DIV PUSH1 0xFF AND PUSH2 0x2274 JUMPI PUSH1 0x40 MLOAD PUSH3 0x461BCD PUSH1 0xE5 SHL DUP2 MSTORE PUSH1 0x4 ADD PUSH2 0xA61 SWAP1 PUSH2 0x2CF2 JUMP JUMPDEST PUSH2 0xA17 PUSH2 0x24F2 JUMP JUMPDEST PUSH1 0x0 SLOAD PUSH2 0x100 SWAP1 DIV PUSH1 0xFF AND PUSH2 0x22A3 JUMPI PUSH1 0x40 MLOAD PUSH3 0x461BCD PUSH1 0xE5 SHL DUP2 MSTORE PUSH1 0x4 ADD PUSH2 0xA61 SWAP1 PUSH2 0x2CF2 JUMP JUMPDEST PUSH2 0xA17 PUSH2 0x2525 JUMP JUMPDEST PUSH1 0x0 SLOAD PUSH2 0x100 SWAP1 DIV PUSH1 0xFF AND PUSH2 0xA17 JUMPI PUSH1 0x40 MLOAD PUSH3 0x461BCD PUSH1 0xE5 SHL DUP2 MSTORE PUSH1 0x4 ADD PUSH2 0xA61 SWAP1 PUSH2 0x2CF2 JUMP JUMPDEST PUSH1 0x0 DUP1 PUSH2 0x102 PUSH1 0x0 SWAP1 SLOAD SWAP1 PUSH2 0x100 EXP SWAP1 DIV PUSH1 0x1 PUSH1 0x1 PUSH1 0xA0 SHL SUB AND PUSH1 0x1 PUSH1 0x1 PUSH1 0xA0 SHL SUB AND PUSH4 0xFEAF968C PUSH1 0x40 MLOAD DUP2 PUSH4 0xFFFFFFFF AND PUSH1 0xE0 SHL DUP2 MSTORE PUSH1 0x4 ADD PUSH1 0xA0 PUSH1 0x40 MLOAD DUP1 DUP4 SUB DUP2 DUP7 GAS STATICCALL ISZERO DUP1 ISZERO PUSH2 0x2329 JUMPI RETURNDATASIZE PUSH1 0x0 DUP1 RETURNDATACOPY RETURNDATASIZE PUSH1 0x0 REVERT JUMPDEST POP POP POP POP PUSH1 0x40 MLOAD RETURNDATASIZE PUSH1 0x1F NOT PUSH1 0x1F DUP3 ADD AND DUP3 ADD DUP1 PUSH1 0x40 MSTORE POP DUP2 ADD SWAP1 PUSH2 0x234D SWAP2 SWAP1 PUSH2 0x2D57 JUMP JUMPDEST POP POP POP SWAP2 POP POP DUP1 PUSH5 0x2540BE400 PUSH2 0x1E7C SWAP2 SWAP1 PUSH2 0x2AAE JUMP JUMPDEST PUSH2 0x100 SLOAD PUSH1 0x40 DUP1 MLOAD PUSH4 0x313CE567 PUSH1 0xE0 SHL DUP2 MSTORE SWAP1 MLOAD PUSH1 0x0 SWAP3 PUSH1 0x1 PUSH1 0x1 PUSH1 0xA0 SHL SUB AND SWAP2 PUSH4 0x313CE567 SWAP2 PUSH1 0x4 DUP1 DUP4 ADD SWAP3 PUSH1 0x20 SWAP3 SWAP2 SWAP1 DUP3 SWAP1 SUB ADD DUP2 DUP7 GAS STATICCALL ISZERO DUP1 ISZERO PUSH2 0x23AF JUMPI RETURNDATASIZE PUSH1 0x0 DUP1 RETURNDATACOPY RETURNDATASIZE PUSH1 0x0 REVERT JUMPDEST POP POP POP POP PUSH1 0x40 MLOAD RETURNDATASIZE PUSH1 0x1F NOT PUSH1 0x1F DUP3 ADD AND DUP3 ADD DUP1 PUSH1 0x40 MSTORE POP DUP2 ADD SWAP1 PUSH2 0x23D3 SWAP2 SWAP1 PUSH2 0x29E7 JUMP JUMPDEST PUSH2 0x23DE SWAP1 PUSH1 0xA PUSH2 0x2BCB JUMP JUMPDEST PUSH2 0x23E8 DUP4 DUP6 PUSH2 0x2AAE JUMP JUMPDEST PUSH2 0x2169 SWAP2 SWAP1 PUSH2 0x2AC5 JUMP JUMPDEST PUSH2 0x23FA PUSH2 0x2555 JUMP JUMPDEST PUSH1 0x65 DUP1 SLOAD PUSH1 0xFF NOT AND SWAP1 SSTORE PUSH32 0x5DB9EE0A495BF2E6FF9C91A7834C1BA4FDD244A5E8AA4E537BD38AEAE4B073AA CALLER PUSH2 0x1C65 JUMP JUMPDEST PUSH1 0x1 PUSH1 0x1 PUSH1 0xA0 SHL SUB DUP2 AND EXTCODESIZE PUSH2 0x2498 JUMPI PUSH1 0x40 MLOAD PUSH3 0x461BCD PUSH1 0xE5 SHL DUP2 MSTORE PUSH1 0x20 PUSH1 0x4 DUP3 ADD MSTORE PUSH1 0x2D PUSH1 0x24 DUP3 ADD MSTORE PUSH32 0x455243313936373A206E657720696D706C656D656E746174696F6E206973206E PUSH1 0x44 DUP3 ADD MSTORE PUSH13 0x1BDD08184818DBDB9D1C9858DD PUSH1 0x9A SHL PUSH1 0x64 DUP3 ADD MSTORE PUSH1 0x84 ADD PUSH2 0xA61 JUMP JUMPDEST PUSH1 0x0 DUP1 MLOAD PUSH1 0x20 PUSH2 0x2DC4 DUP4 CODECOPY DUP2 MLOAD SWAP2 MSTORE DUP1 SLOAD PUSH1 0x1 PUSH1 0x1 PUSH1 0xA0 SHL SUB NOT AND PUSH1 0x1 PUSH1 0x1 PUSH1 0xA0 SHL SUB SWAP3 SWAP1 SWAP3 AND SWAP2 SWAP1 SWAP2 OR SWAP1 SSTORE JUMP JUMPDEST PUSH2 0x24D0 DUP4 PUSH2 0x259E JUMP JUMPDEST PUSH1 0x0 DUP3 MLOAD GT DUP1 PUSH2 0x24DD JUMPI POP DUP1 JUMPDEST ISZERO PUSH2 0x84E JUMPI PUSH2 0x24EC DUP4 DUP4 PUSH2 0x25DE JUMP JUMPDEST POP POP POP POP JUMP JUMPDEST PUSH1 0x0 SLOAD PUSH2 0x100 SWAP1 DIV PUSH1 0xFF AND PUSH2 0x2519 JUMPI PUSH1 0x40 MLOAD PUSH3 0x461BCD PUSH1 0xE5 SHL DUP2 MSTORE PUSH1 0x4 ADD PUSH2 0xA61 SWAP1 PUSH2 0x2CF2 JUMP JUMPDEST PUSH1 0x65 DUP1 SLOAD PUSH1 0xFF NOT AND SWAP1 SSTORE JUMP JUMPDEST PUSH1 0x0 SLOAD PUSH2 0x100 SWAP1 DIV PUSH1 0xFF AND PUSH2 0x254C JUMPI PUSH1 0x40 MLOAD PUSH3 0x461BCD PUSH1 0xE5 SHL DUP2 MSTORE PUSH1 0x4 ADD PUSH2 0xA61 SWAP1 PUSH2 0x2CF2 JUMP JUMPDEST PUSH2 0xA17 CALLER PUSH2 0x21FB JUMP JUMPDEST PUSH1 0x65 SLOAD PUSH1 0xFF AND PUSH2 0xA17 JUMPI PUSH1 0x40 MLOAD PUSH3 0x461BCD PUSH1 0xE5 SHL DUP2 MSTORE PUSH1 0x20 PUSH1 0x4 DUP3 ADD MSTORE PUSH1 0x14 PUSH1 0x24 DUP3 ADD MSTORE PUSH20 0x14185D5CD8589B194E881B9BDD081C185D5CD959 PUSH1 0x62 SHL PUSH1 0x44 DUP3 ADD MSTORE PUSH1 0x64 ADD PUSH2 0xA61 JUMP JUMPDEST PUSH2 0x25A7 DUP2 PUSH2 0x242B JUMP JUMPDEST PUSH1 0x40 MLOAD PUSH1 0x1 PUSH1 0x1 PUSH1 0xA0 SHL SUB DUP3 AND SWAP1 PUSH32 0xBC7CD75A20EE27FD9ADEBAB32041F755214DBC6BFFA90CC0225B39DA2E5C2D3B SWAP1 PUSH1 0x0 SWAP1 LOG2 POP JUMP JUMPDEST PUSH1 0x60 PUSH1 0x1 PUSH1 0x1 PUSH1 0xA0 SHL SUB DUP4 AND EXTCODESIZE PUSH2 0x2646 JUMPI PUSH1 0x40 MLOAD PUSH3 0x461BCD PUSH1 0xE5 SHL DUP2 MSTORE PUSH1 0x20 PUSH1 0x4 DUP3 ADD MSTORE PUSH1 0x26 PUSH1 0x24 DUP3 ADD MSTORE PUSH32 0x416464726573733A2064656C65676174652063616C6C20746F206E6F6E2D636F PUSH1 0x44 DUP3 ADD MSTORE PUSH6 0x1B9D1C9858DD PUSH1 0xD2 SHL PUSH1 0x64 DUP3 ADD MSTORE PUSH1 0x84 ADD PUSH2 0xA61 JUMP JUMPDEST PUSH1 0x0 DUP1 DUP5 PUSH1 0x1 PUSH1 0x1 PUSH1 0xA0 SHL SUB AND DUP5 PUSH1 0x40 MLOAD PUSH2 0x2661 SWAP2 SWAP1 PUSH2 0x2DA7 JUMP JUMPDEST PUSH1 0x0 PUSH1 0x40 MLOAD DUP1 DUP4 SUB DUP2 DUP6 GAS DELEGATECALL SWAP2 POP POP RETURNDATASIZE DUP1 PUSH1 0x0 DUP2 EQ PUSH2 0x269C JUMPI PUSH1 0x40 MLOAD SWAP2 POP PUSH1 0x1F NOT PUSH1 0x3F RETURNDATASIZE ADD AND DUP3 ADD PUSH1 0x40 MSTORE RETURNDATASIZE DUP3 MSTORE RETURNDATASIZE PUSH1 0x0 PUSH1 0x20 DUP5 ADD RETURNDATACOPY PUSH2 0x26A1 JUMP JUMPDEST PUSH1 0x60 SWAP2 POP JUMPDEST POP SWAP2 POP SWAP2 POP PUSH2 0x1FC1 DUP3 DUP3 PUSH1 0x40 MLOAD DUP1 PUSH1 0x60 ADD PUSH1 0x40 MSTORE DUP1 PUSH1 0x27 DUP2 MSTORE PUSH1 0x20 ADD PUSH2 0x2DE4 PUSH1 0x27 SWAP2 CODECOPY PUSH1 0x60 DUP4 ISZERO PUSH2 0x26D3 JUMPI POP DUP2 PUSH2 0x204C JUMP JUMPDEST PUSH2 0x204C DUP4 DUP4 DUP2 MLOAD ISZERO PUSH2 0x26E8 JUMPI DUP2 MLOAD DUP1 DUP4 PUSH1 0x20 ADD REVERT JUMPDEST DUP1 PUSH1 0x40 MLOAD PUSH3 0x461BCD PUSH1 0xE5 SHL DUP2 MSTORE PUSH1 0x4 ADD PUSH2 0xA61 SWAP2 SWAP1 PUSH2 0x2CDF JUMP JUMPDEST DUP1 CALLDATALOAD PUSH1 0x1 PUSH1 0x1 PUSH1 0xA0 SHL SUB DUP2 AND DUP2 EQ PUSH2 0x7D0 JUMPI PUSH1 0x0 DUP1 REVERT JUMPDEST PUSH1 0x0 PUSH1 0x20 DUP3 DUP5 SUB SLT ISZERO PUSH2 0x272B JUMPI PUSH1 0x0 DUP1 REVERT JUMPDEST PUSH2 0x2169 DUP3 PUSH2 0x2702 JUMP JUMPDEST PUSH1 0x0 DUP1 PUSH1 0x40 DUP4 DUP6 SUB SLT ISZERO PUSH2 0x2747 JUMPI PUSH1 0x0 DUP1 REVERT JUMPDEST PUSH2 0x2750 DUP4 PUSH2 0x2702 JUMP JUMPDEST SWAP5 PUSH1 0x20 SWAP4 SWAP1 SWAP4 ADD CALLDATALOAD SWAP4 POP POP POP JUMP JUMPDEST PUSH1 0x0 PUSH1 0x20 DUP3 DUP5 SUB SLT ISZERO PUSH2 0x2770 JUMPI PUSH1 0x0 DUP1 REVERT JUMPDEST POP CALLDATALOAD SWAP2 SWAP1 POP JUMP JUMPDEST PUSH1 0x0 JUMPDEST DUP4 DUP2 LT ISZERO PUSH2 0x2792 JUMPI DUP2 DUP2 ADD MLOAD DUP4 DUP3 ADD MSTORE PUSH1 0x20 ADD PUSH2 0x277A JUMP JUMPDEST POP POP PUSH1 0x0 SWAP2 ADD MSTORE JUMP JUMPDEST PUSH1 0x0 DUP2 MLOAD DUP1 DUP5 MSTORE PUSH2 0x27B3 DUP2 PUSH1 0x20 DUP7 ADD PUSH1 0x20 DUP7 ADD PUSH2 0x2777 JUMP JUMPDEST PUSH1 0x1F ADD PUSH1 0x1F NOT AND SWAP3 SWAP1 SWAP3 ADD PUSH1 0x20 ADD SWAP3 SWAP2 POP POP JUMP JUMPDEST PUSH1 0x1 PUSH1 0x1 PUSH1 0xA0 SHL SUB DUP6 AND DUP2 MSTORE PUSH1 0x80 PUSH1 0x20 DUP3 ADD DUP2 SWAP1 MSTORE PUSH1 0x0 SWAP1 PUSH2 0x27EB SWAP1 DUP4 ADD DUP7 PUSH2 0x279B JUMP JUMPDEST PUSH1 0x40 DUP4 ADD SWAP5 SWAP1 SWAP5 MSTORE POP PUSH1 0x60 ADD MSTORE SWAP3 SWAP2 POP POP JUMP JUMPDEST DUP1 ISZERO ISZERO DUP2 EQ PUSH2 0xAFE JUMPI PUSH1 0x0 DUP1 REVERT JUMPDEST PUSH1 0x0 PUSH1 0x20 DUP3 DUP5 SUB SLT ISZERO PUSH2 0x281E JUMPI PUSH1 0x0 DUP1 REVERT JUMPDEST DUP2 CALLDATALOAD PUSH2 0x204C DUP2 PUSH2 0x27FE JUMP JUMPDEST PUSH4 0x4E487B71 PUSH1 0xE0 SHL PUSH1 0x0 MSTORE PUSH1 0x41 PUSH1 0x4 MSTORE PUSH1 0x24 PUSH1 0x0 REVERT JUMPDEST PUSH1 0x40 MLOAD PUSH1 0x1F DUP3 ADD PUSH1 0x1F NOT AND DUP2 ADD PUSH8 0xFFFFFFFFFFFFFFFF DUP2 GT DUP3 DUP3 LT OR ISZERO PUSH2 0x2868 JUMPI PUSH2 0x2868 PUSH2 0x2829 JUMP JUMPDEST PUSH1 0x40 MSTORE SWAP2 SWAP1 POP JUMP JUMPDEST PUSH1 0x0 PUSH8 0xFFFFFFFFFFFFFFFF DUP3 GT ISZERO PUSH2 0x288A JUMPI PUSH2 0x288A PUSH2 0x2829 JUMP JUMPDEST POP PUSH1 0x1F ADD PUSH1 0x1F NOT AND PUSH1 0x20 ADD SWAP1 JUMP JUMPDEST PUSH1 0x0 DUP1 PUSH1 0x40 DUP4 DUP6 SUB SLT ISZERO PUSH2 0x28AB JUMPI PUSH1 0x0 DUP1 REVERT JUMPDEST PUSH2 0x28B4 DUP4 PUSH2 0x2702 JUMP JUMPDEST SWAP2 POP PUSH1 0x20 DUP4 ADD CALLDATALOAD PUSH8 0xFFFFFFFFFFFFFFFF DUP2 GT ISZERO PUSH2 0x28D0 JUMPI PUSH1 0x0 DUP1 REVERT JUMPDEST DUP4 ADD PUSH1 0x1F DUP2 ADD DUP6 SGT PUSH2 0x28E1 JUMPI PUSH1 0x0 DUP1 REVERT JUMPDEST DUP1 CALLDATALOAD PUSH2 0x28F4 PUSH2 0x28EF DUP3 PUSH2 0x2870 JUMP JUMPDEST PUSH2 0x283F JUMP JUMPDEST DUP2 DUP2 MSTORE DUP7 PUSH1 0x20 DUP4 DUP6 ADD ADD GT ISZERO PUSH2 0x2909 JUMPI PUSH1 0x0 DUP1 REVERT JUMPDEST DUP2 PUSH1 0x20 DUP5 ADD PUSH1 0x20 DUP4 ADD CALLDATACOPY PUSH1 0x0 PUSH1 0x20 DUP4 DUP4 ADD ADD MSTORE DUP1 SWAP4 POP POP POP POP SWAP3 POP SWAP3 SWAP1 POP JUMP JUMPDEST PUSH1 0x0 DUP1 PUSH1 0x0 PUSH1 0x60 DUP5 DUP7 SUB SLT ISZERO PUSH2 0x293E JUMPI PUSH1 0x0 DUP1 REVERT JUMPDEST PUSH2 0x2947 DUP5 PUSH2 0x2702 JUMP JUMPDEST SWAP6 PUSH1 0x20 DUP6 ADD CALLDATALOAD SWAP6 POP PUSH1 0x40 SWAP1 SWAP5 ADD CALLDATALOAD SWAP4 SWAP3 POP POP POP JUMP JUMPDEST PUSH1 0x0 PUSH1 0x20 DUP3 DUP5 SUB SLT ISZERO PUSH2 0x296E JUMPI PUSH1 0x0 DUP1 REVERT JUMPDEST DUP2 MLOAD PUSH2 0x204C DUP2 PUSH2 0x27FE JUMP JUMPDEST PUSH1 0x0 PUSH1 0x20 DUP3 DUP5 SUB SLT ISZERO PUSH2 0x298B JUMPI PUSH1 0x0 DUP1 REVERT JUMPDEST DUP2 MLOAD PUSH8 0xFFFFFFFFFFFFFFFF DUP2 GT ISZERO PUSH2 0x29A2 JUMPI PUSH1 0x0 DUP1 REVERT JUMPDEST DUP3 ADD PUSH1 0x1F DUP2 ADD DUP5 SGT PUSH2 0x29B3 JUMPI PUSH1 0x0 DUP1 REVERT JUMPDEST DUP1 MLOAD PUSH2 0x29C1 PUSH2 0x28EF DUP3 PUSH2 0x2870 JUMP JUMPDEST DUP2 DUP2 MSTORE DUP6 PUSH1 0x20 DUP4 DUP6 ADD ADD GT ISZERO PUSH2 0x29D6 JUMPI PUSH1 0x0 DUP1 REVERT JUMPDEST PUSH2 0x1FC1 DUP3 PUSH1 0x20 DUP4 ADD PUSH1 0x20 DUP7 ADD PUSH2 0x2777 JUMP JUMPDEST PUSH1 0x0 PUSH1 0x20 DUP3 DUP5 SUB SLT ISZERO PUSH2 0x29F9 JUMPI PUSH1 0x0 DUP1 REVERT JUMPDEST POP MLOAD SWAP2 SWAP1 POP JUMP JUMPDEST PUSH1 0x20 DUP1 DUP3 MSTORE PUSH1 0x2C SWAP1 DUP3 ADD MSTORE PUSH32 0x46756E6374696F6E206D7573742062652063616C6C6564207468726F75676820 PUSH1 0x40 DUP3 ADD MSTORE PUSH12 0x19195B1959D85D1958D85B1B PUSH1 0xA2 SHL PUSH1 0x60 DUP3 ADD MSTORE PUSH1 0x80 ADD SWAP1 JUMP JUMPDEST PUSH1 0x20 DUP1 DUP3 MSTORE PUSH1 0x2C SWAP1 DUP3 ADD MSTORE PUSH32 0x46756E6374696F6E206D7573742062652063616C6C6564207468726F75676820 PUSH1 0x40 DUP3 ADD MSTORE PUSH12 0x6163746976652070726F7879 PUSH1 0xA0 SHL PUSH1 0x60 DUP3 ADD MSTORE PUSH1 0x80 ADD SWAP1 JUMP JUMPDEST PUSH4 0x4E487B71 PUSH1 0xE0 SHL PUSH1 0x0 MSTORE PUSH1 0x11 PUSH1 0x4 MSTORE PUSH1 0x24 PUSH1 0x0 REVERT JUMPDEST DUP1 DUP3 MUL DUP2 ISZERO DUP3 DUP3 DIV DUP5 EQ OR PUSH2 0x216C JUMPI PUSH2 0x216C PUSH2 0x2A98 JUMP JUMPDEST PUSH1 0x0 DUP3 PUSH2 0x2AE2 JUMPI PUSH4 0x4E487B71 PUSH1 0xE0 SHL PUSH1 0x0 MSTORE PUSH1 0x12 PUSH1 0x4 MSTORE PUSH1 0x24 PUSH1 0x0 REVERT JUMPDEST POP DIV SWAP1 JUMP JUMPDEST PUSH1 0x1 DUP2 DUP2 JUMPDEST DUP1 DUP6 GT ISZERO PUSH2 0x2B22 JUMPI DUP2 PUSH1 0x0 NOT DIV DUP3 GT ISZERO PUSH2 0x2B08 JUMPI PUSH2 0x2B08 PUSH2 0x2A98 JUMP JUMPDEST DUP1 DUP6 AND ISZERO PUSH2 0x2B15 JUMPI SWAP2 DUP2 MUL SWAP2 JUMPDEST SWAP4 DUP5 SHR SWAP4 SWAP1 DUP1 MUL SWAP1 PUSH2 0x2AEC JUMP JUMPDEST POP SWAP3 POP SWAP3 SWAP1 POP JUMP JUMPDEST PUSH1 0x0 DUP3 PUSH2 0x2B39 JUMPI POP PUSH1 0x1 PUSH2 0x216C JUMP JUMPDEST DUP2 PUSH2 0x2B46 JUMPI POP PUSH1 0x0 PUSH2 0x216C JUMP JUMPDEST DUP2 PUSH1 0x1 DUP2 EQ PUSH2 0x2B5C JUMPI PUSH1 0x2 DUP2 EQ PUSH2 0x2B66 JUMPI PUSH2 0x2B82 JUMP JUMPDEST PUSH1 0x1 SWAP2 POP POP PUSH2 0x216C JUMP JUMPDEST PUSH1 0xFF DUP5 GT ISZERO PUSH2 0x2B77 JUMPI PUSH2 0x2B77 PUSH2 0x2A98 JUMP JUMPDEST POP POP PUSH1 0x1 DUP3 SHL PUSH2 0x216C JUMP JUMPDEST POP PUSH1 0x20 DUP4 LT PUSH2 0x133 DUP4 LT AND PUSH1 0x4E DUP5 LT PUSH1 0xB DUP5 LT AND OR ISZERO PUSH2 0x2BA5 JUMPI POP DUP2 DUP2 EXP PUSH2 0x216C JUMP JUMPDEST PUSH2 0x2BAF DUP4 DUP4 PUSH2 0x2AE7 JUMP JUMPDEST DUP1 PUSH1 0x0 NOT DIV DUP3 GT ISZERO PUSH2 0x2BC3 JUMPI PUSH2 0x2BC3 PUSH2 0x2A98 JUMP JUMPDEST MUL SWAP4 SWAP3 POP POP POP JUMP JUMPDEST PUSH1 0x0 PUSH2 0x2169 DUP4 DUP4 PUSH2 0x2B2A JUMP JUMPDEST PUSH1 0x0 DUP3 PUSH1 0x1F DUP4 ADD SLT PUSH2 0x2BE8 JUMPI PUSH1 0x0 DUP1 REVERT JUMPDEST DUP2 MLOAD PUSH1 0x20 PUSH8 0xFFFFFFFFFFFFFFFF DUP3 GT ISZERO PUSH2 0x2C04 JUMPI PUSH2 0x2C04 PUSH2 0x2829 JUMP JUMPDEST DUP2 PUSH1 0x5 SHL PUSH2 0x2C13 DUP3 DUP3 ADD PUSH2 0x283F JUMP JUMPDEST SWAP3 DUP4 MSTORE DUP5 DUP2 ADD DUP3 ADD SWAP3 DUP3 DUP2 ADD SWAP1 DUP8 DUP6 GT ISZERO PUSH2 0x2C2D JUMPI PUSH1 0x0 DUP1 REVERT JUMPDEST DUP4 DUP8 ADD SWAP3 POP JUMPDEST DUP5 DUP4 LT ISZERO PUSH2 0x2C4C JUMPI DUP3 MLOAD DUP3 MSTORE SWAP2 DUP4 ADD SWAP2 SWAP1 DUP4 ADD SWAP1 PUSH2 0x2C33 JUMP JUMPDEST SWAP8 SWAP7 POP POP POP POP POP POP POP JUMP JUMPDEST PUSH1 0x0 DUP1 PUSH1 0x0 DUP1 PUSH1 0x80 DUP6 DUP8 SUB SLT ISZERO PUSH2 0x2C6D JUMPI PUSH1 0x0 DUP1 REVERT JUMPDEST DUP5 MLOAD PUSH8 0xFFFFFFFFFFFFFFFF DUP1 DUP3 GT ISZERO PUSH2 0x2C85 JUMPI PUSH1 0x0 DUP1 REVERT JUMPDEST PUSH2 0x2C91 DUP9 DUP4 DUP10 ADD PUSH2 0x2BD7 JUMP JUMPDEST SWAP6 POP PUSH1 0x20 DUP8 ADD MLOAD SWAP5 POP PUSH1 0x40 DUP8 ADD MLOAD SWAP2 POP DUP1 DUP3 GT ISZERO PUSH2 0x2CAE JUMPI PUSH1 0x0 DUP1 REVERT JUMPDEST POP PUSH2 0x2CBB DUP8 DUP3 DUP9 ADD PUSH2 0x2BD7 JUMP JUMPDEST PUSH1 0x60 SWAP7 SWAP1 SWAP7 ADD MLOAD SWAP5 SWAP8 SWAP4 SWAP7 POP POP POP POP JUMP JUMPDEST DUP1 DUP3 ADD DUP1 DUP3 GT ISZERO PUSH2 0x216C JUMPI PUSH2 0x216C PUSH2 0x2A98 JUMP JUMPDEST PUSH1 0x20 DUP2 MSTORE PUSH1 0x0 PUSH2 0x2169 PUSH1 0x20 DUP4 ADD DUP5 PUSH2 0x279B JUMP JUMPDEST PUSH1 0x20 DUP1 DUP3 MSTORE PUSH1 0x2B SWAP1 DUP3 ADD MSTORE PUSH32 0x496E697469616C697A61626C653A20636F6E7472616374206973206E6F742069 PUSH1 0x40 DUP3 ADD MSTORE PUSH11 0x6E697469616C697A696E67 PUSH1 0xA8 SHL PUSH1 0x60 DUP3 ADD MSTORE PUSH1 0x80 ADD SWAP1 JUMP JUMPDEST DUP1 MLOAD PUSH10 0xFFFFFFFFFFFFFFFFFFFF DUP2 AND DUP2 EQ PUSH2 0x7D0 JUMPI PUSH1 0x0 DUP1 REVERT JUMPDEST PUSH1 0x0 DUP1 PUSH1 0x0 DUP1 PUSH1 0x0 PUSH1 0xA0 DUP7 DUP9 SUB SLT ISZERO PUSH2 0x2D6F JUMPI PUSH1 0x0 DUP1 REVERT JUMPDEST PUSH2 0x2D78 DUP7 PUSH2 0x2D3D JUMP JUMPDEST SWAP5 POP PUSH1 0x20 DUP7 ADD MLOAD SWAP4 POP PUSH1 0x40 DUP7 ADD MLOAD SWAP3 POP PUSH1 0x60 DUP7 ADD MLOAD SWAP2 POP PUSH2 0x2D9B PUSH1 0x80 DUP8 ADD PUSH2 0x2D3D JUMP JUMPDEST SWAP1 POP SWAP3 SWAP6 POP SWAP3 SWAP6 SWAP1 SWAP4 POP JUMP JUMPDEST PUSH1 0x0 DUP3 MLOAD PUSH2 0x2DB9 DUP2 DUP5 PUSH1 0x20 DUP8 ADD PUSH2 0x2777 JUMP JUMPDEST SWAP2 SWAP1 SWAP2 ADD SWAP3 SWAP2 POP POP JUMP INVALID CALLDATASIZE ADDMOD SWAP5 LOG1 EXTCODESIZE LOG1 LOG3 0x21 MOD PUSH8 0xC828492DB98DCA3E KECCAK256 PUSH23 0xCC3735A920A3CA505D382BBC416464726573733A206C6F PUSH24 0x2D6C6576656C2064656C65676174652063616C6C20666169 PUSH13 0x6564A2646970667358221220A4 SWAP11 POP 0xE1 0xAB BYTE PUSH6 0x9E1D7B641DE LOG1 MOD DUP11 ADDRESS CALLCODE STATICCALL 0x4E STOP DUP1 PUSH16 0xC54D8F553662F971CA64736F6C634300 ADDMOD GT STOP CALLER "},"methodIdentifiers":{"BuyWithETH(address,uint256)":"57526c33","BuyWithUSD(address,uint256,uint256)":"d42cedfb","getETH_USDPrice()":"94a73f59","getPresaleAnalystics()":"38f992c9","getPriceFeedOracleAddress()":"5845394b","getPricePerUSD()":"472d561d","getReferralContract()":"23442c60","getRewardOwners()":"7ce1757d","getRewardPerUSD()":"f067c199","getRewardTokenContract()":"65eb204d","getStakingContract()":"8e68dce4","getTokenContract()":"28b7bede","getTokenSeller()":"14d09b94","getUSDContract()":"a5bac943","initialize()":"8129fc1c","isEnabled()":"6aa633b6","minContribution()":"aaffadf3","owner()":"8da5cb5b","pauseAdmin()":"2f11d653","paused()":"5c975abb","proxiableUUID()":"52d1902d","renounceOwnership()":"715018a6","setBuyAndStakeAdmin(bool)":"7e76a70c","setMinContributionUSDAdmin(uint256)":"c94d6b1f","setPayReferralAdmin(bool)":"e9bd186d","setPayRewardTokensAdmin(bool)":"3958b844","setPriceFeedOracleAddressAdmin(address)":"ab573d66","setPricePerUSDAdmin(uint256)":"dc245e12","setReferralContract(address)":"06ad5a47","setRewardOwner(address)":"4809b429","setRewardPerUSDAdmin(uint256)":"10bd7ab5","setRewardTokenContract(address)":"08fcfbbe","setStakingContractAdmin(address)":"a821b069","setTokenContractAdmin(address)":"b68e1e46","setTokenSeller(address)":"7a22393b","setUSDContractAdmin(address)":"ac6f6a2d","transferETH(address,uint256)":"7b1a4909","transferOwnership(address)":"f2fde38b","unpauseAdmin()":"db5184e6","upgradeTo(address)":"3659cfe6","upgradeToAndCall(address,bytes)":"4f1ef286","withdrawETH()":"e086e5ec","withdrawTokens(address,uint256)":"06b091f9"}},"storageLayout":{"storage":[{"astId":573,"contract":"contracts/PresaleUpgradeable.sol:PresaleUpgradeable","label":"_initialized","offset":0,"slot":"0","type":"t_uint8"},{"astId":576,"contract":"contracts/PresaleUpgradeable.sol:PresaleUpgradeable","label":"_initializing","offset":1,"slot":"0","type":"t_bool"},{"astId":1401,"contract":"contracts/PresaleUpgradeable.sol:PresaleUpgradeable","label":"__gap","offset":0,"slot":"1","type":"t_array(t_uint256)50_storage"},{"astId":56,"contract":"contracts/PresaleUpgradeable.sol:PresaleUpgradeable","label":"_owner","offset":0,"slot":"51","type":"t_address"},{"astId":176,"contract":"contracts/PresaleUpgradeable.sol:PresaleUpgradeable","label":"__gap","offset":0,"slot":"52","type":"t_array(t_uint256)49_storage"},{"astId":892,"contract":"contracts/PresaleUpgradeable.sol:PresaleUpgradeable","label":"_paused","offset":0,"slot":"101","type":"t_bool"},{"astId":997,"contract":"contracts/PresaleUpgradeable.sol:PresaleUpgradeable","label":"__gap","offset":0,"slot":"102","type":"t_array(t_uint256)49_storage"},{"astId":555,"contract":"contracts/PresaleUpgradeable.sol:PresaleUpgradeable","label":"__gap","offset":0,"slot":"151","type":"t_array(t_uint256)50_storage"},{"astId":870,"contract":"contracts/PresaleUpgradeable.sol:PresaleUpgradeable","label":"__gap","offset":0,"slot":"201","type":"t_array(t_uint256)50_storage"},{"astId":1883,"contract":"contracts/PresaleUpgradeable.sol:PresaleUpgradeable","label":"_tokenSeller","offset":0,"slot":"251","type":"t_address"},{"astId":1885,"contract":"contracts/PresaleUpgradeable.sol:PresaleUpgradeable","label":"_rewardOwner","offset":0,"slot":"252","type":"t_address"},{"astId":1887,"contract":"contracts/PresaleUpgradeable.sol:PresaleUpgradeable","label":"_tokenContract","offset":0,"slot":"253","type":"t_address"},{"astId":1889,"contract":"contracts/PresaleUpgradeable.sol:PresaleUpgradeable","label":"_stakingContract","offset":0,"slot":"254","type":"t_address"},{"astId":1891,"contract":"contracts/PresaleUpgradeable.sol:PresaleUpgradeable","label":"_referralContract","offset":0,"slot":"255","type":"t_address"},{"astId":1893,"contract":"contracts/PresaleUpgradeable.sol:PresaleUpgradeable","label":"_usdtContract","offset":0,"slot":"256","type":"t_address"},{"astId":1895,"contract":"contracts/PresaleUpgradeable.sol:PresaleUpgradeable","label":"_rewardTokenContract","offset":0,"slot":"257","type":"t_address"},{"astId":1898,"contract":"contracts/PresaleUpgradeable.sol:PresaleUpgradeable","label":"_priceFeedOracleAddress","offset":0,"slot":"258","type":"t_contract(AggregatorV3Interface)45"},{"astId":1900,"contract":"contracts/PresaleUpgradeable.sol:PresaleUpgradeable","label":"_pricePerUSD","offset":0,"slot":"259","type":"t_uint256"},{"astId":1902,"contract":"contracts/PresaleUpgradeable.sol:PresaleUpgradeable","label":"_rewardPerUSD","offset":0,"slot":"260","type":"t_uint256"},{"astId":1904,"contract":"contracts/PresaleUpgradeable.sol:PresaleUpgradeable","label":"_minContributionUSD","offset":0,"slot":"261","type":"t_uint256"},{"astId":1906,"contract":"contracts/PresaleUpgradeable.sol:PresaleUpgradeable","label":"_totalTokenSold","offset":0,"slot":"262","type":"t_uint256"},{"astId":1908,"contract":"contracts/PresaleUpgradeable.sol:PresaleUpgradeable","label":"_totalETHRaised","offset":0,"slot":"263","type":"t_uint256"},{"astId":1910,"contract":"contracts/PresaleUpgradeable.sol:PresaleUpgradeable","label":"_totalUSDRaised","offset":0,"slot":"264","type":"t_uint256"},{"astId":1912,"contract":"contracts/PresaleUpgradeable.sol:PresaleUpgradeable","label":"_isBuyNStake","offset":0,"slot":"265","type":"t_bool"},{"astId":1914,"contract":"contracts/PresaleUpgradeable.sol:PresaleUpgradeable","label":"_isPayReferral","offset":1,"slot":"265","type":"t_bool"},{"astId":1916,"contract":"contracts/PresaleUpgradeable.sol:PresaleUpgradeable","label":"_isPayRewardTokens","offset":2,"slot":"265","type":"t_bool"}],"types":{"t_address":{"encoding":"inplace","label":"address","numberOfBytes":"20"},"t_array(t_uint256)49_storage":{"base":"t_uint256","encoding":"inplace","label":"uint256[49]","numberOfBytes":"1568"},"t_array(t_uint256)50_storage":{"base":"t_uint256","encoding":"inplace","label":"uint256[50]","numberOfBytes":"1600"},"t_bool":{"encoding":"inplace","label":"bool","numberOfBytes":"1"},"t_contract(AggregatorV3Interface)45":{"encoding":"inplace","label":"contract AggregatorV3Interface","numberOfBytes":"20"},"t_uint256":{"encoding":"inplace","label":"uint256","numberOfBytes":"32"},"t_uint8":{"encoding":"inplace","label":"uint8","numberOfBytes":"1"}}}}}}