{"contracts/MonthlyRewards.sol":{"MonthlyRewardsUpgradeable":{"abi":[{"anonymous":false,"inputs":[{"indexed":false,"internalType":"address","name":"previousAdmin","type":"address"},{"indexed":false,"internalType":"address","name":"newAdmin","type":"address"}],"name":"AdminChanged","type":"event"},{"anonymous":false,"inputs":[{"indexed":true,"internalType":"address","name":"beacon","type":"address"}],"name":"BeaconUpgraded","type":"event"},{"anonymous":false,"inputs":[{"indexed":false,"internalType":"uint8","name":"version","type":"uint8"}],"name":"Initialized","type":"event"},{"anonymous":false,"inputs":[{"indexed":true,"internalType":"address","name":"previousOwner","type":"address"},{"indexed":true,"internalType":"address","name":"newOwner","type":"address"}],"name":"OwnershipTransferred","type":"event"},{"anonymous":false,"inputs":[{"indexed":false,"internalType":"address","name":"account","type":"address"}],"name":"Paused","type":"event"},{"anonymous":false,"inputs":[{"indexed":false,"internalType":"address","name":"account","type":"address"}],"name":"Unpaused","type":"event"},{"anonymous":false,"inputs":[{"indexed":true,"internalType":"address","name":"implementation","type":"address"}],"name":"Upgraded","type":"event"},{"inputs":[],"name":"getDefaults","outputs":[{"internalType":"uint256","name":"startTime","type":"uint256"},{"internalType":"uint256","name":"duration","type":"uint256"},{"internalType":"bool","name":"isPayRewards","type":"bool"},{"internalType":"address","name":"variablesContract","type":"address"}],"stateMutability":"view","type":"function"},{"inputs":[{"internalType":"uint8","name":"_rewardId","type":"uint8"},{"internalType":"uint16","name":"_from","type":"uint16"},{"internalType":"uint16","name":"_to","type":"uint16"}],"name":"getRewardQualifiedUsersList","outputs":[{"internalType":"address[]","name":"_userAddress","type":"address[]"},{"internalType":"uint16","name":"_achieversListCount","type":"uint16"}],"stateMutability":"view","type":"function"},{"inputs":[{"internalType":"uint8","name":"_id","type":"uint8"}],"name":"getRewardsByID","outputs":[{"components":[{"internalType":"uint8","name":"id","type":"uint8"},{"internalType":"uint256","name":"selfBusinessLimit","type":"uint256"},{"internalType":"uint256","name":"directBusinessLimit","type":"uint256"},{"internalType":"uint256","name":"teamBusinessLimit","type":"uint256"},{"internalType":"string","name":"rewardName","type":"string"},{"internalType":"uint256","name":"appraisal","type":"uint256"},{"internalType":"uint256","name":"selfTopUpLimit","type":"uint256"},{"internalType":"uint256","name":"teamsToCount","type":"uint256"}],"internalType":"struct StructMonthlyRewards","name":"","type":"tuple"}],"stateMutability":"view","type":"function"},{"inputs":[],"name":"getRewardsIDsCount","outputs":[{"internalType":"uint8","name":"rewardIDsCount","type":"uint8"}],"stateMutability":"view","type":"function"},{"inputs":[{"internalType":"address","name":"_userAddress","type":"address"}],"name":"getUserAccount","outputs":[{"components":[{"internalType":"uint256","name":"selfBusiness","type":"uint256"},{"internalType":"uint256","name":"directBusiness","type":"uint256"},{"internalType":"uint256","name":"teamBusiness","type":"uint256"},{"internalType":"bool","name":"isListed","type":"bool"}],"internalType":"struct StructAccountRewards","name":"","type":"tuple"}],"stateMutability":"view","type":"function"},{"inputs":[{"internalType":"address","name":"_userAddress","type":"address"}],"name":"getUserBusiness","outputs":[{"internalType":"uint256","name":"_selfBusiness","type":"uint256"},{"internalType":"uint256","name":"_directBusiness","type":"uint256"},{"internalType":"uint256","name":"_teamBusiness","type":"uint256"}],"stateMutability":"view","type":"function"},{"inputs":[{"internalType":"address","name":"_address","type":"address"}],"name":"getUserRewardQualified","outputs":[{"internalType":"uint8","name":"rewardId","type":"uint8"}],"stateMutability":"view","type":"function"},{"inputs":[],"name":"getUsersList","outputs":[{"internalType":"address[]","name":"usersList","type":"address[]"},{"internalType":"uint256","name":"usersCount","type":"uint256"}],"stateMutability":"view","type":"function"},{"inputs":[],"name":"initialize","outputs":[],"stateMutability":"nonpayable","type":"function"},{"inputs":[],"name":"owner","outputs":[{"internalType":"address","name":"","type":"address"}],"stateMutability":"view","type":"function"},{"inputs":[],"name":"pause","outputs":[],"stateMutability":"nonpayable","type":"function"},{"inputs":[],"name":"paused","outputs":[{"internalType":"bool","name":"","type":"bool"}],"stateMutability":"view","type":"function"},{"inputs":[],"name":"proxiableUUID","outputs":[{"internalType":"bytes32","name":"","type":"bytes32"}],"stateMutability":"view","type":"function"},{"inputs":[],"name":"renounceOwnership","outputs":[],"stateMutability":"nonpayable","type":"function"},{"inputs":[{"internalType":"uint256","name":"_days","type":"uint256"}],"name":"setDuration","outputs":[],"stateMutability":"nonpayable","type":"function"},{"inputs":[{"internalType":"bool","name":"_trueOrFalse","type":"bool"}],"name":"setIsPayMonthlyRewards","outputs":[],"stateMutability":"nonpayable","type":"function"},{"inputs":[{"internalType":"uint8","name":"_id","type":"uint8"},{"internalType":"uint256","name":"_selfBusinessLimit","type":"uint256"},{"internalType":"uint256","name":"_directBusinessLimit","type":"uint256"},{"internalType":"uint256","name":"_teamBusinessLimit","type":"uint256"},{"internalType":"string","name":"_rewardName","type":"string"},{"internalType":"uint256","name":"_appraisal","type":"uint256"},{"internalType":"uint256","name":"_selfTopUpLimit","type":"uint256"},{"internalType":"uint256","name":"_teamsToCount","type":"uint256"}],"name":"setMonthlyRewards","outputs":[],"stateMutability":"nonpayable","type":"function"},{"inputs":[{"internalType":"uint256","name":"_timeInEpoch","type":"uint256"}],"name":"setStartTime","outputs":[],"stateMutability":"nonpayable","type":"function"},{"inputs":[{"internalType":"address","name":"_contractAddress","type":"address"}],"name":"setVariablesContract","outputs":[],"stateMutability":"nonpayable","type":"function"},{"inputs":[{"internalType":"address","name":"newOwner","type":"address"}],"name":"transferOwnership","outputs":[],"stateMutability":"nonpayable","type":"function"},{"inputs":[],"name":"unpause","outputs":[],"stateMutability":"nonpayable","type":"function"},{"inputs":[{"internalType":"address","name":"_userAddress","type":"address"},{"internalType":"uint256","name":"_directBusiness","type":"uint256"}],"name":"updateDirectBusiness","outputs":[],"stateMutability":"nonpayable","type":"function"},{"inputs":[{"internalType":"address","name":"_userAddress","type":"address"},{"internalType":"uint256","name":"_selfBusiness","type":"uint256"}],"name":"updateSelfBusiness","outputs":[],"stateMutability":"nonpayable","type":"function"},{"inputs":[{"internalType":"address","name":"_userAddress","type":"address"},{"internalType":"uint256","name":"_teamBusiness","type":"uint256"}],"name":"updateTeamBusiness","outputs":[],"stateMutability":"nonpayable","type":"function"},{"inputs":[{"internalType":"address","name":"newImplementation","type":"address"}],"name":"upgradeTo","outputs":[],"stateMutability":"nonpayable","type":"function"},{"inputs":[{"internalType":"address","name":"newImplementation","type":"address"},{"internalType":"bytes","name":"data","type":"bytes"}],"name":"upgradeToAndCall","outputs":[],"stateMutability":"payable","type":"function"}],"evm":{"bytecode":{"linkReferences":{},"object":"60a06040523060805234801561001457600080fd5b50608051612aee61004c600039600081816107d101528181610811015281816108cf0152818161090f015261099e0152612aee6000f3fe6080604052600436106101815760003560e01c80638456cb59116100d1578063e5ffb5df1161008a578063f6be71d111610064578063f6be71d114610480578063f87127b4146104a0578063fb47e016146104ff578063fe9f20351461055457600080fd5b8063e5ffb5df1461040e578063f2fde38b14610440578063f5a283ce1461046057600080fd5b80638456cb59146103175780638da5cb5b1461032c578063a9415f5d14610354578063b172ed4d14610374578063baa7e7c5146103be578063c74e13f3146103eb57600080fd5b80634f1ef2861161013e5780635ee9964f116101185780635ee9964f146102ad578063715018a6146102cd5780637b9accaf146102e25780638129fc1c1461030257600080fd5b80634f1ef2861461025457806352d1902d146102675780635c975abb1461028a57600080fd5b80630ba0dba314610186578063169529b9146101a857806333b153e3146101c85780633659cfe6146101ff5780633e0a322d1461021f5780633f4ba83a1461023f575b600080fd5b34801561019257600080fd5b506101a66101a1366004612030565b610569565b005b3480156101b457600080fd5b506101a66101c336600461204d565b610593565b3480156101d457600080fd5b506101e86101e33660046120a1565b6106e9565b6040516101f6929190612128565b60405180910390f35b34801561020b57600080fd5b506101a661021a366004612030565b6107c7565b34801561022b57600080fd5b506101a661023a36600461214e565b6108a6565b34801561024b57600080fd5b506101a66108b3565b6101a6610262366004612230565b6108c5565b34801561027357600080fd5b5061027c610991565b6040519081526020016101f6565b34801561029657600080fd5b5060335460ff1660405190151581526020016101f6565b3480156102b957600080fd5b506101a66102c8366004612294565b610a44565b3480156102d957600080fd5b506101a6610b01565b3480156102ee57600080fd5b506101a66102fd36600461233c565b610b13565b34801561030e57600080fd5b506101a6610bae565b34801561032357600080fd5b506101a6610cd9565b34801561033857600080fd5b506065546040516001600160a01b0390911681526020016101f6565b34801561036057600080fd5b506101a661036f36600461204d565b610ce9565b34801561038057600080fd5b5060fb5460fc5460ff805460fd5460408051958652602086019490945291161515918301919091526001600160a01b031660608201526080016101f6565b3480156103ca57600080fd5b506103de6103d9366004612359565b610dc2565b6040516101f691906123c4565b3480156103f757600080fd5b50610400610f11565b6040516101f6929190612438565b34801561041a57600080fd5b5061042e610429366004612030565b610f7a565b60405160ff90911681526020016101f6565b34801561044c57600080fd5b506101a661045b366004612030565b611237565b34801561046c57600080fd5b506101a661047b36600461204d565b6112ad565b34801561048c57600080fd5b506101a661049b36600461214e565b611387565b3480156104ac57600080fd5b506104e46104bb366004612030565b6001600160a01b0316600090815261010160205260409020805460018201546002909201549092565b604080519384526020840192909252908201526060016101f6565b34801561050b57600080fd5b5061051f61051a366004612030565b6113a2565b6040516101f6919081518152602080830151908201526040808301519082015260609182015115159181019190915260800190565b34801561056057600080fd5b5061042e611423565b61057161147a565b60fd80546001600160a01b0319166001600160a01b0392909216919091179055565b60fd54604051630935e01b60e21b81523360048201526001600160a01b03909116906324d7806c90602401602060405180830381865afa1580156105db573d6000803e3d6000fd5b505050506040513d601f19601f820116820180604052508101906105ff9190612465565b6106245760405162461bcd60e51b815260040161061b90612482565b60405180910390fd5b4260fc5460fb5461063591906124c3565b118015610643575060ff8054165b156106e5576001600160a01b038216600090815261010160205260408120600181018054919284926106769084906124c3565b9091555050600381015460ff166106e35760fe8054600180820183556000929092527f54075df80ec1ae6ac9100e1fd0ebf3246c17f5c933137af392011f4c5f61513a0180546001600160a01b0319166001600160a01b03861617905560038201805460ff191690911790555b505b5050565b606060008060006106fb8787876114d4565b915091508092508061ffff1667ffffffffffffffff81111561071f5761071f612167565b604051908082528060200260200182016040528015610748578160200160208202803683370190505b50935060005b8161ffff168161ffff1610156107bc57828161ffff1681518110610774576107746124d6565b6020026020010151858261ffff1681518110610792576107926124d6565b6001600160a01b0390921660209283029190910190910152806107b4816124ec565b91505061074e565b505050935093915050565b6001600160a01b037f000000000000000000000000000000000000000000000000000000000000000016300361080f5760405162461bcd60e51b815260040161061b9061250d565b7f00000000000000000000000000000000000000000000000000000000000000006001600160a01b0316610858600080516020612a72833981519152546001600160a01b031690565b6001600160a01b03161461087e5760405162461bcd60e51b815260040161061b90612559565b61088781611903565b604080516000808252602082019092526108a39183919061190b565b50565b6108ae61147a565b60fb55565b6108bb61147a565b6108c3611a7b565b565b6001600160a01b037f000000000000000000000000000000000000000000000000000000000000000016300361090d5760405162461bcd60e51b815260040161061b9061250d565b7f00000000000000000000000000000000000000000000000000000000000000006001600160a01b0316610956600080516020612a72833981519152546001600160a01b031690565b6001600160a01b03161461097c5760405162461bcd60e51b815260040161061b90612559565b61098582611903565b6106e58282600161190b565b6000306001600160a01b037f00000000000000000000000000000000000000000000000000000000000000001614610a315760405162461bcd60e51b815260206004820152603860248201527f555550535570677261646561626c653a206d757374206e6f742062652063616c60448201527f6c6564207468726f7567682064656c656761746563616c6c0000000000000000606482015260840161061b565b50600080516020612a7283398151915290565b610a4c61147a565b60408051610100808201835260ff8b811680845260208085018d81528587018d8152606087018d8152608088018d815260a089018d905260c089018c905260e089018b9052600095865296909352969092208551815460ff19169416939093178355905160018301559351600282015592516003840155519091906004820190610ad6908261262d565b5060a0820151600582015560c0820151600682015560e0909101516007909101555050505050505050565b610b0961147a565b6108c36000611acd565b60fd54604051630935e01b60e21b81523360048201526001600160a01b03909116906324d7806c90602401602060405180830381865afa158015610b5b573d6000803e3d6000fd5b505050506040513d601f19601f82011682018060405250810190610b7f9190612465565b610b9b5760405162461bcd60e51b815260040161061b90612482565b60ff805460ff1916911515919091179055565b600054610100900460ff1615808015610bce5750600054600160ff909116105b80610be85750303b158015610be8575060005460ff166001145b610c4b5760405162461bcd60e51b815260206004820152602e60248201527f496e697469616c697a61626c653a20636f6e747261637420697320616c72656160448201526d191e481a5b9a5d1a585b1a5e995960921b606482015260840161061b565b6000805460ff191660011790558015610c6e576000805461ff0019166101001790555b4260fb556228de8060fc55610c81611b1f565b610c89611b4e565b610c91611b7d565b80156108a3576000805461ff0019169055604051600181527f7f26b83ff96e1f2b6a682f133852f6798a09c465da95921460cefb38474024989060200160405180910390a150565b610ce161147a565b6108c3611ba4565b60fd54604051630935e01b60e21b81523360048201526001600160a01b03909116906324d7806c90602401602060405180830381865afa158015610d31573d6000803e3d6000fd5b505050506040513d601f19601f82011682018060405250810190610d559190612465565b610d715760405162461bcd60e51b815260040161061b90612482565b4260fc5460fb54610d8291906124c3565b118015610d90575060ff8054165b156106e5576001600160a01b0382166000908152610101602052604081208054909183918391906106769084906124c3565b610e0d604051806101000160405280600060ff168152602001600081526020016000815260200160008152602001606081526020016000815260200160008152602001600081525090565b60ff80831660009081526101006020818152604092839020835192830184528054909416825260018401549082015260028301549181019190915260038201546060820152600482018054919291608084019190610e6a906125a5565b80601f0160208091040260200160405190810160405280929190818152602001828054610e96906125a5565b8015610ee35780601f10610eb857610100808354040283529160200191610ee3565b820191906000526020600020905b815481529060010190602001808311610ec657829003601f168201915b5050505050815260200160058201548152602001600682015481526020016007820154815250509050919050565b6060600060fe805480602002602001604051908101604052809291908181526020018280548015610f6b57602002820191906000526020600020905b81546001600160a01b03168152600190910190602001808311610f4d575b50505050509150815190509091565b60008060fd60009054906101000a90046001600160a01b03166001600160a01b0316637dad19db6040518163ffffffff1660e01b8152600401602060405180830381865afa158015610fd0573d6000803e3d6000fd5b505050506040513d601f19601f82011682018060405250810190610ff491906126f8565b604051637da3f00b60e11b81526001600160a01b038581166004830152919091169063fb47e01690602401600060405180830381865afa15801561103c573d6000803e3d6000fd5b505050506040513d6000823e601f3d908101601f191682016040526110649190810190612808565b6001600160a01b0384166000908152610101602090815260408083208151608081018352815481526001820154938101939093526002810154918301919091526003015460ff16151560608201529192505b600a8160ff16101561122f5760ff8082166000908152610100602081815260408084208151938401825280549095168352600185015491830191909152600284015490820152600383015460608201526004830180549293919260808401919061111f906125a5565b80601f016020809104026020016040519081016040528092919081815260200182805461114b906125a5565b80156111985780601f1061116d57610100808354040283529160200191611198565b820191906000526020600020905b81548152906001019060200180831161117b57829003601f168201915b505050505081526020016005820154815260200160068201548152602001600782015481525050905060018260ff161180156111d657506020810151155b156111e1575061122f565b60208101518351108015906111fe57508060400151836020015110155b80156112135750611213848260600151611be1565b1561121c578194505b508061122781612973565b9150506110b6565b505050919050565b61123f61147a565b6001600160a01b0381166112a45760405162461bcd60e51b815260206004820152602660248201527f4f776e61626c653a206e6577206f776e657220697320746865207a65726f206160448201526564647265737360d01b606482015260840161061b565b6108a381611acd565b60fd54604051630935e01b60e21b81523360048201526001600160a01b03909116906324d7806c90602401602060405180830381865afa1580156112f5573d6000803e3d6000fd5b505050506040513d601f19601f820116820180604052508101906113199190612465565b6113355760405162461bcd60e51b815260040161061b90612482565b4260fc5460fb5461134691906124c3565b118015611354575060ff8054165b156106e5576001600160a01b038216600090815261010160205260408120600281018054919284926106769084906124c3565b61138f61147a565b61139c8162015180612992565b60fc5550565b6113cf60405180608001604052806000815260200160008152602001600081526020016000151581525090565b506001600160a01b03166000908152610101602090815260409182902082516080810184528154815260018201549281019290925260028101549282019290925260039091015460ff161515606082015290565b6000805b600a8160ff1610156114765760008160ff1611801561145b575060ff81166000908152610100602052604090206001015415155b15611464578091505b8061146e81612973565b915050611427565b5090565b6065546001600160a01b031633146108c35760405162461bcd60e51b815260206004820181905260248201527f4f776e61626c653a2063616c6c6572206973206e6f7420746865206f776e6572604482015260640161061b565b606060006114e284846129a9565b61ffff1667ffffffffffffffff8111156114fe576114fe612167565b604051908082528060200260200182016040528015611527578160200160208202803683370190505b509150600060fe80548060200260200160405190810160405280929190818152602001828054801561158257602002820191906000526020600020905b81546001600160a01b03168152600190910190602001808311611564575b505050505090505b8361ffff168561ffff16116118fa5760006101016000838861ffff16815181106115b6576115b66124d6565b60200260200101516001600160a01b03166001600160a01b031681526020019081526020016000206040518060800160405290816000820154815260200160018201548152602001600282015481526020016003820160009054906101000a900460ff1615151515815250509050600061010060008960ff1660ff168152602001908152602001600020604051806101000160405290816000820160009054906101000a900460ff1660ff1660ff168152602001600182015481526020016002820154815260200160038201548152602001600482018054611697906125a5565b80601f01602080910402602001604051908101604052809291908181526020018280546116c3906125a5565b80156117105780601f106116e557610100808354040283529160200191611710565b820191906000526020600020905b8154815290600101906020018083116116f357829003601f168201915b5050505050815260200160058201548152602001600682015481526020016007820154815250509050600060fd60009054906101000a90046001600160a01b03166001600160a01b0316637dad19db6040518163ffffffff1660e01b8152600401602060405180830381865afa15801561178e573d6000803e3d6000fd5b505050506040513d601f19601f820116820180604052508101906117b291906126f8565b6001600160a01b031663fb47e016858a61ffff16815181106117d6576117d66124d6565b60200260200101516040518263ffffffff1660e01b815260040161180991906001600160a01b0391909116815260200190565b600060405180830381865afa158015611826573d6000803e3d6000fd5b505050506040513d6000823e601f3d908101601f1916820160405261184e9190810190612808565b9050816020015183600001511015801561187057508160400151836020015110155b80156118855750611885818360600151611be1565b156118e457838861ffff16815181106118a0576118a06124d6565b6020026020010151868661ffff16815181106118be576118be6124d6565b6001600160a01b0390921660209283029190910190910152846118e0816124ec565b9550505b50505084806118f2906124ec565b95505061158a565b50935093915050565b6108a361147a565b7f4910fdfa16fed3260ed0e7147f7cc6da11a60208b5b9406d12a635614ffd91435460ff16156119435761193e83611ce2565b6106e3565b826001600160a01b03166352d1902d6040518163ffffffff1660e01b8152600401602060405180830381865afa92505050801561199d575060408051601f3d908101601f1916820190925261199a918101906129cb565b60015b611a005760405162461bcd60e51b815260206004820152602e60248201527f45524331393637557067726164653a206e657720696d706c656d656e7461746960448201526d6f6e206973206e6f74205555505360901b606482015260840161061b565b600080516020612a728339815191528114611a6f5760405162461bcd60e51b815260206004820152602960248201527f45524331393637557067726164653a20756e737570706f727465642070726f786044820152681a58589b195555525160ba1b606482015260840161061b565b506106e3838383611d7e565b611a83611da9565b6033805460ff191690557f5db9ee0a495bf2e6ff9c91a7834c1ba4fdd244a5e8aa4e537bd38aeae4b073aa335b6040516001600160a01b03909116815260200160405180910390a1565b606580546001600160a01b038381166001600160a01b0319831681179093556040519116919082907f8be0079c531659141344cd1fd0a4f28419497f9722a3daafe3b4186f6b6457e090600090a35050565b600054610100900460ff16611b465760405162461bcd60e51b815260040161061b906129e4565b6108c3611df2565b600054610100900460ff16611b755760405162461bcd60e51b815260040161061b906129e4565b6108c3611e25565b600054610100900460ff166108c35760405162461bcd60e51b815260040161061b906129e4565b611bac611e55565b6033805460ff191660011790557f62e78cea01bee320cd4e420270b5ea74000d11b0c9f74754ebdbfc544b05a258611ab03390565b600080600060028560200151511115611cda5760005b8560200151518161ffff161015611cb6576000610101600088602001518461ffff1681518110611c2957611c296124d6565b6020908102919091018101516001600160a01b0316825281810192909252604090810160002081516080810183528154815260018201549381019390935260028101549183018290526003015460ff1615156060830152909150611c8d90856124c3565b93508281604001511115611ca357806040015192505b5080611cae816124ec565b915050611bf7565b50838110158015611cd0575083611ccd8284612a2f565b10155b15611cda57600192505b505092915050565b6001600160a01b0381163b611d4f5760405162461bcd60e51b815260206004820152602d60248201527f455243313936373a206e657720696d706c656d656e746174696f6e206973206e60448201526c1bdd08184818dbdb9d1c9858dd609a1b606482015260840161061b565b600080516020612a7283398151915280546001600160a01b0319166001600160a01b0392909216919091179055565b611d8783611e9b565b600082511180611d945750805b156106e357611da38383611edb565b50505050565b60335460ff166108c35760405162461bcd60e51b815260206004820152601460248201527314185d5cd8589b194e881b9bdd081c185d5cd95960621b604482015260640161061b565b600054610100900460ff16611e195760405162461bcd60e51b815260040161061b906129e4565b6033805460ff19169055565b600054610100900460ff16611e4c5760405162461bcd60e51b815260040161061b906129e4565b6108c333611acd565b60335460ff16156108c35760405162461bcd60e51b815260206004820152601060248201526f14185d5cd8589b194e881c185d5cd95960821b604482015260640161061b565b611ea481611ce2565b6040516001600160a01b038216907fbc7cd75a20ee27fd9adebab32041f755214dbc6bffa90cc0225b39da2e5c2d3b90600090a250565b60606001600160a01b0383163b611f435760405162461bcd60e51b815260206004820152602660248201527f416464726573733a2064656c65676174652063616c6c20746f206e6f6e2d636f6044820152651b9d1c9858dd60d21b606482015260840161061b565b600080846001600160a01b031684604051611f5e9190612a42565b600060405180830381855af49150503d8060008114611f99576040519150601f19603f3d011682016040523d82523d6000602084013e611f9e565b606091505b5091509150611fc68282604051806060016040528060278152602001612a9260279139611fd1565b925050505b92915050565b60608315611fe0575081611fea565b611fea8383611ff1565b9392505050565b8151156120015781518083602001fd5b8060405162461bcd60e51b815260040161061b9190612a5e565b6001600160a01b03811681146108a357600080fd5b60006020828403121561204257600080fd5b8135611fea8161201b565b6000806040838503121561206057600080fd5b823561206b8161201b565b946020939093013593505050565b803560ff8116811461208a57600080fd5b919050565b803561ffff8116811461208a57600080fd5b6000806000606084860312156120b657600080fd5b6120bf84612079565b92506120cd6020850161208f565b91506120db6040850161208f565b90509250925092565b600081518084526020808501945080840160005b8381101561211d5781516001600160a01b0316875295820195908201906001016120f8565b509495945050505050565b60408152600061213b60408301856120e4565b905061ffff831660208301529392505050565b60006020828403121561216057600080fd5b5035919050565b634e487b7160e01b600052604160045260246000fd5b604051610160810167ffffffffffffffff811182821017156121a1576121a1612167565b60405290565b604051601f8201601f1916810167ffffffffffffffff811182821017156121d0576121d0612167565b604052919050565b600067ffffffffffffffff8311156121f2576121f2612167565b612205601f8401601f19166020016121a7565b905082815283838301111561221957600080fd5b828260208301376000602084830101529392505050565b6000806040838503121561224357600080fd5b823561224e8161201b565b9150602083013567ffffffffffffffff81111561226a57600080fd5b8301601f8101851361227b57600080fd5b61228a858235602084016121d8565b9150509250929050565b600080600080600080600080610100898b0312156122b157600080fd5b6122ba89612079565b9750602089013596506040890135955060608901359450608089013567ffffffffffffffff8111156122eb57600080fd5b8901601f81018b136122fc57600080fd5b61230b8b8235602084016121d8565b989b979a50959894979660a0860135965060c08601359560e00135945092505050565b80151581146108a357600080fd5b60006020828403121561234e57600080fd5b8135611fea8161232e565b60006020828403121561236b57600080fd5b611fea82612079565b60005b8381101561238f578181015183820152602001612377565b50506000910152565b600081518084526123b0816020860160208601612374565b601f01601f19169290920160200192915050565b6020815260ff8251166020820152602082015160408201526040820151606082015260608201516080820152600060808301516101008060a085015261240e610120850183612398565b915060a085015160c085015260c085015160e085015260e085015181850152508091505092915050565b60408152600061244b60408301856120e4565b90508260208301529392505050565b805161208a8161232e565b60006020828403121561247757600080fd5b8151611fea8161232e565b6020808252601190820152702cb7ba9030b932903737ba1030b236b4b760791b604082015260600190565b634e487b7160e01b600052601160045260246000fd5b80820180821115611fcb57611fcb6124ad565b634e487b7160e01b600052603260045260246000fd5b600061ffff808316818103612503576125036124ad565b6001019392505050565b6020808252602c908201527f46756e6374696f6e206d7573742062652063616c6c6564207468726f7567682060408201526b19195b1959d85d1958d85b1b60a21b606082015260800190565b6020808252602c908201527f46756e6374696f6e206d7573742062652063616c6c6564207468726f7567682060408201526b6163746976652070726f787960a01b606082015260800190565b600181811c908216806125b957607f821691505b6020821081036125d957634e487b7160e01b600052602260045260246000fd5b50919050565b601f8211156106e357600081815260208120601f850160051c810160208610156126065750805b601f850160051c820191505b8181101561262557828155600101612612565b505050505050565b815167ffffffffffffffff81111561264757612647612167565b61265b8161265584546125a5565b846125df565b602080601f83116001811461269057600084156126785750858301515b600019600386901b1c1916600185901b178555612625565b600085815260208120601f198616915b828110156126bf578886015182559484019460019091019084016126a0565b50858210156126dd5787850151600019600388901b60f8161c191681555b5050505050600190811b01905550565b805161208a8161201b565b60006020828403121561270a57600080fd5b8151611fea8161201b565b600067ffffffffffffffff82111561272f5761272f612167565b5060051b60200190565b600082601f83011261274a57600080fd5b8151602061275f61275a83612715565b6121a7565b82815260059290921b8401810191818101908684111561277e57600080fd5b8286015b848110156127a25780516127958161201b565b8352918301918301612782565b509695505050505050565b600082601f8301126127be57600080fd5b815160206127ce61275a83612715565b82815260059290921b840181019181810190868411156127ed57600080fd5b8286015b848110156127a257805183529183019183016127f1565b60006020828403121561281a57600080fd5b815167ffffffffffffffff8082111561283257600080fd5b90830190610160828603121561284757600080fd5b61284f61217d565b612858836126ed565b815260208301518281111561286c57600080fd5b61287887828601612739565b60208301525060408301518281111561289057600080fd5b61289c87828601612739565b6040830152506060830151828111156128b457600080fd5b6128c0878286016127ad565b6060830152506080830151608082015260a083015160a082015260c083015160c082015260e0830151828111156128f657600080fd5b612902878286016127ad565b60e083015250610100808401518381111561291c57600080fd5b612928888287016127ad565b828401525050610120808401518381111561294257600080fd5b61294e888287016127ad565b828401525050610140915061296482840161245a565b91810191909152949350505050565b600060ff821660ff8103612989576129896124ad565b60010192915050565b8082028115828204841417611fcb57611fcb6124ad565b61ffff8281168282160390808211156129c4576129c46124ad565b5092915050565b6000602082840312156129dd57600080fd5b5051919050565b6020808252602b908201527f496e697469616c697a61626c653a20636f6e7472616374206973206e6f74206960408201526a6e697469616c697a696e6760a81b606082015260800190565b81810381811115611fcb57611fcb6124ad565b60008251612a54818460208701612374565b9190910192915050565b602081526000611fea602083018461239856fe360894a13ba1a3210667c828492db98dca3e2076cc3735a920a3ca505d382bbc416464726573733a206c6f772d6c6576656c2064656c65676174652063616c6c206661696c6564a264697066735822122088b445a4005372418a233361664aaac1ba8de5def5dcc2f288c99908a22f811c64736f6c63430008110033","opcodes":"PUSH1 0xA0 PUSH1 0x40 MSTORE ADDRESS PUSH1 0x80 MSTORE CALLVALUE DUP1 ISZERO PUSH2 0x14 JUMPI PUSH1 0x0 DUP1 REVERT JUMPDEST POP PUSH1 0x80 MLOAD PUSH2 0x2AEE PUSH2 0x4C PUSH1 0x0 CODECOPY PUSH1 0x0 DUP2 DUP2 PUSH2 0x7D1 ADD MSTORE DUP2 DUP2 PUSH2 0x811 ADD MSTORE DUP2 DUP2 PUSH2 0x8CF ADD MSTORE DUP2 DUP2 PUSH2 0x90F ADD MSTORE PUSH2 0x99E ADD MSTORE PUSH2 0x2AEE PUSH1 0x0 RETURN INVALID PUSH1 0x80 PUSH1 0x40 MSTORE PUSH1 0x4 CALLDATASIZE LT PUSH2 0x181 JUMPI PUSH1 0x0 CALLDATALOAD PUSH1 0xE0 SHR DUP1 PUSH4 0x8456CB59 GT PUSH2 0xD1 JUMPI DUP1 PUSH4 0xE5FFB5DF GT PUSH2 0x8A JUMPI DUP1 PUSH4 0xF6BE71D1 GT PUSH2 0x64 JUMPI DUP1 PUSH4 0xF6BE71D1 EQ PUSH2 0x480 JUMPI DUP1 PUSH4 0xF87127B4 EQ PUSH2 0x4A0 JUMPI DUP1 PUSH4 0xFB47E016 EQ PUSH2 0x4FF JUMPI DUP1 PUSH4 0xFE9F2035 EQ PUSH2 0x554 JUMPI PUSH1 0x0 DUP1 REVERT JUMPDEST DUP1 PUSH4 0xE5FFB5DF EQ PUSH2 0x40E JUMPI DUP1 PUSH4 0xF2FDE38B EQ PUSH2 0x440 JUMPI DUP1 PUSH4 0xF5A283CE EQ PUSH2 0x460 JUMPI PUSH1 0x0 DUP1 REVERT JUMPDEST DUP1 PUSH4 0x8456CB59 EQ PUSH2 0x317 JUMPI DUP1 PUSH4 0x8DA5CB5B EQ PUSH2 0x32C JUMPI DUP1 PUSH4 0xA9415F5D EQ PUSH2 0x354 JUMPI DUP1 PUSH4 0xB172ED4D EQ PUSH2 0x374 JUMPI DUP1 PUSH4 0xBAA7E7C5 EQ PUSH2 0x3BE JUMPI DUP1 PUSH4 0xC74E13F3 EQ PUSH2 0x3EB JUMPI PUSH1 0x0 DUP1 REVERT JUMPDEST DUP1 PUSH4 0x4F1EF286 GT PUSH2 0x13E JUMPI DUP1 PUSH4 0x5EE9964F GT PUSH2 0x118 JUMPI DUP1 PUSH4 0x5EE9964F EQ PUSH2 0x2AD JUMPI DUP1 PUSH4 0x715018A6 EQ PUSH2 0x2CD JUMPI DUP1 PUSH4 0x7B9ACCAF EQ PUSH2 0x2E2 JUMPI DUP1 PUSH4 0x8129FC1C EQ PUSH2 0x302 JUMPI PUSH1 0x0 DUP1 REVERT JUMPDEST DUP1 PUSH4 0x4F1EF286 EQ PUSH2 0x254 JUMPI DUP1 PUSH4 0x52D1902D EQ PUSH2 0x267 JUMPI DUP1 PUSH4 0x5C975ABB EQ PUSH2 0x28A JUMPI PUSH1 0x0 DUP1 REVERT JUMPDEST DUP1 PUSH4 0xBA0DBA3 EQ PUSH2 0x186 JUMPI DUP1 PUSH4 0x169529B9 EQ PUSH2 0x1A8 JUMPI DUP1 PUSH4 0x33B153E3 EQ PUSH2 0x1C8 JUMPI DUP1 PUSH4 0x3659CFE6 EQ PUSH2 0x1FF JUMPI DUP1 PUSH4 0x3E0A322D EQ PUSH2 0x21F JUMPI DUP1 PUSH4 0x3F4BA83A EQ PUSH2 0x23F JUMPI JUMPDEST PUSH1 0x0 DUP1 REVERT JUMPDEST CALLVALUE DUP1 ISZERO PUSH2 0x192 JUMPI PUSH1 0x0 DUP1 REVERT JUMPDEST POP PUSH2 0x1A6 PUSH2 0x1A1 CALLDATASIZE PUSH1 0x4 PUSH2 0x2030 JUMP JUMPDEST PUSH2 0x569 JUMP JUMPDEST STOP JUMPDEST CALLVALUE DUP1 ISZERO PUSH2 0x1B4 JUMPI PUSH1 0x0 DUP1 REVERT JUMPDEST POP PUSH2 0x1A6 PUSH2 0x1C3 CALLDATASIZE PUSH1 0x4 PUSH2 0x204D JUMP JUMPDEST PUSH2 0x593 JUMP JUMPDEST CALLVALUE DUP1 ISZERO PUSH2 0x1D4 JUMPI PUSH1 0x0 DUP1 REVERT JUMPDEST POP PUSH2 0x1E8 PUSH2 0x1E3 CALLDATASIZE PUSH1 0x4 PUSH2 0x20A1 JUMP JUMPDEST PUSH2 0x6E9 JUMP JUMPDEST PUSH1 0x40 MLOAD PUSH2 0x1F6 SWAP3 SWAP2 SWAP1 PUSH2 0x2128 JUMP JUMPDEST PUSH1 0x40 MLOAD DUP1 SWAP2 SUB SWAP1 RETURN JUMPDEST CALLVALUE DUP1 ISZERO PUSH2 0x20B JUMPI PUSH1 0x0 DUP1 REVERT JUMPDEST POP PUSH2 0x1A6 PUSH2 0x21A CALLDATASIZE PUSH1 0x4 PUSH2 0x2030 JUMP JUMPDEST PUSH2 0x7C7 JUMP JUMPDEST CALLVALUE DUP1 ISZERO PUSH2 0x22B JUMPI PUSH1 0x0 DUP1 REVERT JUMPDEST POP PUSH2 0x1A6 PUSH2 0x23A CALLDATASIZE PUSH1 0x4 PUSH2 0x214E JUMP JUMPDEST PUSH2 0x8A6 JUMP JUMPDEST CALLVALUE DUP1 ISZERO PUSH2 0x24B JUMPI PUSH1 0x0 DUP1 REVERT JUMPDEST POP PUSH2 0x1A6 PUSH2 0x8B3 JUMP JUMPDEST PUSH2 0x1A6 PUSH2 0x262 CALLDATASIZE PUSH1 0x4 PUSH2 0x2230 JUMP JUMPDEST PUSH2 0x8C5 JUMP JUMPDEST CALLVALUE DUP1 ISZERO PUSH2 0x273 JUMPI PUSH1 0x0 DUP1 REVERT JUMPDEST POP PUSH2 0x27C PUSH2 0x991 JUMP JUMPDEST PUSH1 0x40 MLOAD SWAP1 DUP2 MSTORE PUSH1 0x20 ADD PUSH2 0x1F6 JUMP JUMPDEST CALLVALUE DUP1 ISZERO PUSH2 0x296 JUMPI PUSH1 0x0 DUP1 REVERT JUMPDEST POP PUSH1 0x33 SLOAD PUSH1 0xFF AND PUSH1 0x40 MLOAD SWAP1 ISZERO ISZERO DUP2 MSTORE PUSH1 0x20 ADD PUSH2 0x1F6 JUMP JUMPDEST CALLVALUE DUP1 ISZERO PUSH2 0x2B9 JUMPI PUSH1 0x0 DUP1 REVERT JUMPDEST POP PUSH2 0x1A6 PUSH2 0x2C8 CALLDATASIZE PUSH1 0x4 PUSH2 0x2294 JUMP JUMPDEST PUSH2 0xA44 JUMP JUMPDEST CALLVALUE DUP1 ISZERO PUSH2 0x2D9 JUMPI PUSH1 0x0 DUP1 REVERT JUMPDEST POP PUSH2 0x1A6 PUSH2 0xB01 JUMP JUMPDEST CALLVALUE DUP1 ISZERO PUSH2 0x2EE JUMPI PUSH1 0x0 DUP1 REVERT JUMPDEST POP PUSH2 0x1A6 PUSH2 0x2FD CALLDATASIZE PUSH1 0x4 PUSH2 0x233C JUMP JUMPDEST PUSH2 0xB13 JUMP JUMPDEST CALLVALUE DUP1 ISZERO PUSH2 0x30E JUMPI PUSH1 0x0 DUP1 REVERT JUMPDEST POP PUSH2 0x1A6 PUSH2 0xBAE JUMP JUMPDEST CALLVALUE DUP1 ISZERO PUSH2 0x323 JUMPI PUSH1 0x0 DUP1 REVERT JUMPDEST POP PUSH2 0x1A6 PUSH2 0xCD9 JUMP JUMPDEST CALLVALUE DUP1 ISZERO PUSH2 0x338 JUMPI PUSH1 0x0 DUP1 REVERT JUMPDEST POP PUSH1 0x65 SLOAD PUSH1 0x40 MLOAD PUSH1 0x1 PUSH1 0x1 PUSH1 0xA0 SHL SUB SWAP1 SWAP2 AND DUP2 MSTORE PUSH1 0x20 ADD PUSH2 0x1F6 JUMP JUMPDEST CALLVALUE DUP1 ISZERO PUSH2 0x360 JUMPI PUSH1 0x0 DUP1 REVERT JUMPDEST POP PUSH2 0x1A6 PUSH2 0x36F CALLDATASIZE PUSH1 0x4 PUSH2 0x204D JUMP JUMPDEST PUSH2 0xCE9 JUMP JUMPDEST CALLVALUE DUP1 ISZERO PUSH2 0x380 JUMPI PUSH1 0x0 DUP1 REVERT JUMPDEST POP PUSH1 0xFB SLOAD PUSH1 0xFC SLOAD PUSH1 0xFF DUP1 SLOAD PUSH1 0xFD SLOAD PUSH1 0x40 DUP1 MLOAD SWAP6 DUP7 MSTORE PUSH1 0x20 DUP7 ADD SWAP5 SWAP1 SWAP5 MSTORE SWAP2 AND ISZERO ISZERO SWAP2 DUP4 ADD SWAP2 SWAP1 SWAP2 MSTORE PUSH1 0x1 PUSH1 0x1 PUSH1 0xA0 SHL SUB AND PUSH1 0x60 DUP3 ADD MSTORE PUSH1 0x80 ADD PUSH2 0x1F6 JUMP JUMPDEST CALLVALUE DUP1 ISZERO PUSH2 0x3CA JUMPI PUSH1 0x0 DUP1 REVERT JUMPDEST POP PUSH2 0x3DE PUSH2 0x3D9 CALLDATASIZE PUSH1 0x4 PUSH2 0x2359 JUMP JUMPDEST PUSH2 0xDC2 JUMP JUMPDEST PUSH1 0x40 MLOAD PUSH2 0x1F6 SWAP2 SWAP1 PUSH2 0x23C4 JUMP JUMPDEST CALLVALUE DUP1 ISZERO PUSH2 0x3F7 JUMPI PUSH1 0x0 DUP1 REVERT JUMPDEST POP PUSH2 0x400 PUSH2 0xF11 JUMP JUMPDEST PUSH1 0x40 MLOAD PUSH2 0x1F6 SWAP3 SWAP2 SWAP1 PUSH2 0x2438 JUMP JUMPDEST CALLVALUE DUP1 ISZERO PUSH2 0x41A JUMPI PUSH1 0x0 DUP1 REVERT JUMPDEST POP PUSH2 0x42E PUSH2 0x429 CALLDATASIZE PUSH1 0x4 PUSH2 0x2030 JUMP JUMPDEST PUSH2 0xF7A JUMP JUMPDEST PUSH1 0x40 MLOAD PUSH1 0xFF SWAP1 SWAP2 AND DUP2 MSTORE PUSH1 0x20 ADD PUSH2 0x1F6 JUMP JUMPDEST CALLVALUE DUP1 ISZERO PUSH2 0x44C JUMPI PUSH1 0x0 DUP1 REVERT JUMPDEST POP PUSH2 0x1A6 PUSH2 0x45B CALLDATASIZE PUSH1 0x4 PUSH2 0x2030 JUMP JUMPDEST PUSH2 0x1237 JUMP JUMPDEST CALLVALUE DUP1 ISZERO PUSH2 0x46C JUMPI PUSH1 0x0 DUP1 REVERT JUMPDEST POP PUSH2 0x1A6 PUSH2 0x47B CALLDATASIZE PUSH1 0x4 PUSH2 0x204D JUMP JUMPDEST PUSH2 0x12AD JUMP JUMPDEST CALLVALUE DUP1 ISZERO PUSH2 0x48C JUMPI PUSH1 0x0 DUP1 REVERT JUMPDEST POP PUSH2 0x1A6 PUSH2 0x49B CALLDATASIZE PUSH1 0x4 PUSH2 0x214E JUMP JUMPDEST PUSH2 0x1387 JUMP JUMPDEST CALLVALUE DUP1 ISZERO PUSH2 0x4AC JUMPI PUSH1 0x0 DUP1 REVERT JUMPDEST POP PUSH2 0x4E4 PUSH2 0x4BB CALLDATASIZE PUSH1 0x4 PUSH2 0x2030 JUMP JUMPDEST PUSH1 0x1 PUSH1 0x1 PUSH1 0xA0 SHL SUB AND PUSH1 0x0 SWAP1 DUP2 MSTORE PUSH2 0x101 PUSH1 0x20 MSTORE PUSH1 0x40 SWAP1 KECCAK256 DUP1 SLOAD PUSH1 0x1 DUP3 ADD SLOAD PUSH1 0x2 SWAP1 SWAP3 ADD SLOAD SWAP1 SWAP3 JUMP JUMPDEST PUSH1 0x40 DUP1 MLOAD SWAP4 DUP5 MSTORE PUSH1 0x20 DUP5 ADD SWAP3 SWAP1 SWAP3 MSTORE SWAP1 DUP3 ADD MSTORE PUSH1 0x60 ADD PUSH2 0x1F6 JUMP JUMPDEST CALLVALUE DUP1 ISZERO PUSH2 0x50B JUMPI PUSH1 0x0 DUP1 REVERT JUMPDEST POP PUSH2 0x51F PUSH2 0x51A CALLDATASIZE PUSH1 0x4 PUSH2 0x2030 JUMP JUMPDEST PUSH2 0x13A2 JUMP JUMPDEST PUSH1 0x40 MLOAD PUSH2 0x1F6 SWAP2 SWAP1 DUP2 MLOAD DUP2 MSTORE PUSH1 0x20 DUP1 DUP4 ADD MLOAD SWAP1 DUP3 ADD MSTORE PUSH1 0x40 DUP1 DUP4 ADD MLOAD SWAP1 DUP3 ADD MSTORE PUSH1 0x60 SWAP2 DUP3 ADD MLOAD ISZERO ISZERO SWAP2 DUP2 ADD SWAP2 SWAP1 SWAP2 MSTORE PUSH1 0x80 ADD SWAP1 JUMP JUMPDEST CALLVALUE DUP1 ISZERO PUSH2 0x560 JUMPI PUSH1 0x0 DUP1 REVERT JUMPDEST POP PUSH2 0x42E PUSH2 0x1423 JUMP JUMPDEST PUSH2 0x571 PUSH2 0x147A JUMP JUMPDEST PUSH1 0xFD DUP1 SLOAD PUSH1 0x1 PUSH1 0x1 PUSH1 0xA0 SHL SUB NOT AND PUSH1 0x1 PUSH1 0x1 PUSH1 0xA0 SHL SUB SWAP3 SWAP1 SWAP3 AND SWAP2 SWAP1 SWAP2 OR SWAP1 SSTORE JUMP JUMPDEST PUSH1 0xFD SLOAD PUSH1 0x40 MLOAD PUSH4 0x935E01B PUSH1 0xE2 SHL DUP2 MSTORE CALLER PUSH1 0x4 DUP3 ADD MSTORE PUSH1 0x1 PUSH1 0x1 PUSH1 0xA0 SHL SUB SWAP1 SWAP2 AND SWAP1 PUSH4 0x24D7806C SWAP1 PUSH1 0x24 ADD PUSH1 0x20 PUSH1 0x40 MLOAD DUP1 DUP4 SUB DUP2 DUP7 GAS STATICCALL ISZERO DUP1 ISZERO PUSH2 0x5DB JUMPI RETURNDATASIZE PUSH1 0x0 DUP1 RETURNDATACOPY RETURNDATASIZE PUSH1 0x0 REVERT JUMPDEST POP POP POP POP PUSH1 0x40 MLOAD RETURNDATASIZE PUSH1 0x1F NOT PUSH1 0x1F DUP3 ADD AND DUP3 ADD DUP1 PUSH1 0x40 MSTORE POP DUP2 ADD SWAP1 PUSH2 0x5FF SWAP2 SWAP1 PUSH2 0x2465 JUMP JUMPDEST PUSH2 0x624 JUMPI PUSH1 0x40 MLOAD PUSH3 0x461BCD PUSH1 0xE5 SHL DUP2 MSTORE PUSH1 0x4 ADD PUSH2 0x61B SWAP1 PUSH2 0x2482 JUMP JUMPDEST PUSH1 0x40 MLOAD DUP1 SWAP2 SUB SWAP1 REVERT JUMPDEST TIMESTAMP PUSH1 0xFC SLOAD PUSH1 0xFB SLOAD PUSH2 0x635 SWAP2 SWAP1 PUSH2 0x24C3 JUMP JUMPDEST GT DUP1 ISZERO PUSH2 0x643 JUMPI POP PUSH1 0xFF DUP1 SLOAD AND JUMPDEST ISZERO PUSH2 0x6E5 JUMPI PUSH1 0x1 PUSH1 0x1 PUSH1 0xA0 SHL SUB DUP3 AND PUSH1 0x0 SWAP1 DUP2 MSTORE PUSH2 0x101 PUSH1 0x20 MSTORE PUSH1 0x40 DUP2 KECCAK256 PUSH1 0x1 DUP2 ADD DUP1 SLOAD SWAP2 SWAP3 DUP5 SWAP3 PUSH2 0x676 SWAP1 DUP5 SWAP1 PUSH2 0x24C3 JUMP JUMPDEST SWAP1 SWAP2 SSTORE POP POP PUSH1 0x3 DUP2 ADD SLOAD PUSH1 0xFF AND PUSH2 0x6E3 JUMPI PUSH1 0xFE DUP1 SLOAD PUSH1 0x1 DUP1 DUP3 ADD DUP4 SSTORE PUSH1 0x0 SWAP3 SWAP1 SWAP3 MSTORE PUSH32 0x54075DF80EC1AE6AC9100E1FD0EBF3246C17F5C933137AF392011F4C5F61513A ADD DUP1 SLOAD PUSH1 0x1 PUSH1 0x1 PUSH1 0xA0 SHL SUB NOT AND PUSH1 0x1 PUSH1 0x1 PUSH1 0xA0 SHL SUB DUP7 AND OR SWAP1 SSTORE PUSH1 0x3 DUP3 ADD DUP1 SLOAD PUSH1 0xFF NOT AND SWAP1 SWAP2 OR SWAP1 SSTORE JUMPDEST POP JUMPDEST POP POP JUMP JUMPDEST PUSH1 0x60 PUSH1 0x0 DUP1 PUSH1 0x0 PUSH2 0x6FB DUP8 DUP8 DUP8 PUSH2 0x14D4 JUMP JUMPDEST SWAP2 POP SWAP2 POP DUP1 SWAP3 POP DUP1 PUSH2 0xFFFF AND PUSH8 0xFFFFFFFFFFFFFFFF DUP2 GT ISZERO PUSH2 0x71F JUMPI PUSH2 0x71F PUSH2 0x2167 JUMP JUMPDEST PUSH1 0x40 MLOAD SWAP1 DUP1 DUP3 MSTORE DUP1 PUSH1 0x20 MUL PUSH1 0x20 ADD DUP3 ADD PUSH1 0x40 MSTORE DUP1 ISZERO PUSH2 0x748 JUMPI DUP2 PUSH1 0x20 ADD PUSH1 0x20 DUP3 MUL DUP1 CALLDATASIZE DUP4 CALLDATACOPY ADD SWAP1 POP JUMPDEST POP SWAP4 POP PUSH1 0x0 JUMPDEST DUP2 PUSH2 0xFFFF AND DUP2 PUSH2 0xFFFF AND LT ISZERO PUSH2 0x7BC JUMPI DUP3 DUP2 PUSH2 0xFFFF AND DUP2 MLOAD DUP2 LT PUSH2 0x774 JUMPI PUSH2 0x774 PUSH2 0x24D6 JUMP JUMPDEST PUSH1 0x20 MUL PUSH1 0x20 ADD ADD MLOAD DUP6 DUP3 PUSH2 0xFFFF AND DUP2 MLOAD DUP2 LT PUSH2 0x792 JUMPI PUSH2 0x792 PUSH2 0x24D6 JUMP JUMPDEST PUSH1 0x1 PUSH1 0x1 PUSH1 0xA0 SHL SUB SWAP1 SWAP3 AND PUSH1 0x20 SWAP3 DUP4 MUL SWAP2 SWAP1 SWAP2 ADD SWAP1 SWAP2 ADD MSTORE DUP1 PUSH2 0x7B4 DUP2 PUSH2 0x24EC JUMP JUMPDEST SWAP2 POP POP PUSH2 0x74E JUMP JUMPDEST POP POP POP SWAP4 POP SWAP4 SWAP2 POP POP JUMP JUMPDEST PUSH1 0x1 PUSH1 0x1 PUSH1 0xA0 SHL SUB PUSH32 0x0 AND ADDRESS SUB PUSH2 0x80F JUMPI PUSH1 0x40 MLOAD PUSH3 0x461BCD PUSH1 0xE5 SHL DUP2 MSTORE PUSH1 0x4 ADD PUSH2 0x61B SWAP1 PUSH2 0x250D JUMP JUMPDEST PUSH32 0x0 PUSH1 0x1 PUSH1 0x1 PUSH1 0xA0 SHL SUB AND PUSH2 0x858 PUSH1 0x0 DUP1 MLOAD PUSH1 0x20 PUSH2 0x2A72 DUP4 CODECOPY DUP2 MLOAD SWAP2 MSTORE SLOAD PUSH1 0x1 PUSH1 0x1 PUSH1 0xA0 SHL SUB AND SWAP1 JUMP JUMPDEST PUSH1 0x1 PUSH1 0x1 PUSH1 0xA0 SHL SUB AND EQ PUSH2 0x87E JUMPI PUSH1 0x40 MLOAD PUSH3 0x461BCD PUSH1 0xE5 SHL DUP2 MSTORE PUSH1 0x4 ADD PUSH2 0x61B SWAP1 PUSH2 0x2559 JUMP JUMPDEST PUSH2 0x887 DUP2 PUSH2 0x1903 JUMP JUMPDEST PUSH1 0x40 DUP1 MLOAD PUSH1 0x0 DUP1 DUP3 MSTORE PUSH1 0x20 DUP3 ADD SWAP1 SWAP3 MSTORE PUSH2 0x8A3 SWAP2 DUP4 SWAP2 SWAP1 PUSH2 0x190B JUMP JUMPDEST POP JUMP JUMPDEST PUSH2 0x8AE PUSH2 0x147A JUMP JUMPDEST PUSH1 0xFB SSTORE JUMP JUMPDEST PUSH2 0x8BB PUSH2 0x147A JUMP JUMPDEST PUSH2 0x8C3 PUSH2 0x1A7B JUMP JUMPDEST JUMP JUMPDEST PUSH1 0x1 PUSH1 0x1 PUSH1 0xA0 SHL SUB PUSH32 0x0 AND ADDRESS SUB PUSH2 0x90D JUMPI PUSH1 0x40 MLOAD PUSH3 0x461BCD PUSH1 0xE5 SHL DUP2 MSTORE PUSH1 0x4 ADD PUSH2 0x61B SWAP1 PUSH2 0x250D JUMP JUMPDEST PUSH32 0x0 PUSH1 0x1 PUSH1 0x1 PUSH1 0xA0 SHL SUB AND PUSH2 0x956 PUSH1 0x0 DUP1 MLOAD PUSH1 0x20 PUSH2 0x2A72 DUP4 CODECOPY DUP2 MLOAD SWAP2 MSTORE SLOAD PUSH1 0x1 PUSH1 0x1 PUSH1 0xA0 SHL SUB AND SWAP1 JUMP JUMPDEST PUSH1 0x1 PUSH1 0x1 PUSH1 0xA0 SHL SUB AND EQ PUSH2 0x97C JUMPI PUSH1 0x40 MLOAD PUSH3 0x461BCD PUSH1 0xE5 SHL DUP2 MSTORE PUSH1 0x4 ADD PUSH2 0x61B SWAP1 PUSH2 0x2559 JUMP JUMPDEST PUSH2 0x985 DUP3 PUSH2 0x1903 JUMP JUMPDEST PUSH2 0x6E5 DUP3 DUP3 PUSH1 0x1 PUSH2 0x190B JUMP JUMPDEST PUSH1 0x0 ADDRESS PUSH1 0x1 PUSH1 0x1 PUSH1 0xA0 SHL SUB PUSH32 0x0 AND EQ PUSH2 0xA31 JUMPI PUSH1 0x40 MLOAD PUSH3 0x461BCD PUSH1 0xE5 SHL DUP2 MSTORE PUSH1 0x20 PUSH1 0x4 DUP3 ADD MSTORE PUSH1 0x38 PUSH1 0x24 DUP3 ADD MSTORE PUSH32 0x555550535570677261646561626C653A206D757374206E6F742062652063616C PUSH1 0x44 DUP3 ADD MSTORE PUSH32 0x6C6564207468726F7567682064656C656761746563616C6C0000000000000000 PUSH1 0x64 DUP3 ADD MSTORE PUSH1 0x84 ADD PUSH2 0x61B JUMP JUMPDEST POP PUSH1 0x0 DUP1 MLOAD PUSH1 0x20 PUSH2 0x2A72 DUP4 CODECOPY DUP2 MLOAD SWAP2 MSTORE SWAP1 JUMP JUMPDEST PUSH2 0xA4C PUSH2 0x147A JUMP JUMPDEST PUSH1 0x40 DUP1 MLOAD PUSH2 0x100 DUP1 DUP3 ADD DUP4 MSTORE PUSH1 0xFF DUP12 DUP2 AND DUP1 DUP5 MSTORE PUSH1 0x20 DUP1 DUP6 ADD DUP14 DUP2 MSTORE DUP6 DUP8 ADD DUP14 DUP2 MSTORE PUSH1 0x60 DUP8 ADD DUP14 DUP2 MSTORE PUSH1 0x80 DUP9 ADD DUP14 DUP2 MSTORE PUSH1 0xA0 DUP10 ADD DUP14 SWAP1 MSTORE PUSH1 0xC0 DUP10 ADD DUP13 SWAP1 MSTORE PUSH1 0xE0 DUP10 ADD DUP12 SWAP1 MSTORE PUSH1 0x0 SWAP6 DUP7 MSTORE SWAP7 SWAP1 SWAP4 MSTORE SWAP7 SWAP1 SWAP3 KECCAK256 DUP6 MLOAD DUP2 SLOAD PUSH1 0xFF NOT AND SWAP5 AND SWAP4 SWAP1 SWAP4 OR DUP4 SSTORE SWAP1 MLOAD PUSH1 0x1 DUP4 ADD SSTORE SWAP4 MLOAD PUSH1 0x2 DUP3 ADD SSTORE SWAP3 MLOAD PUSH1 0x3 DUP5 ADD SSTORE MLOAD SWAP1 SWAP2 SWAP1 PUSH1 0x4 DUP3 ADD SWAP1 PUSH2 0xAD6 SWAP1 DUP3 PUSH2 0x262D JUMP JUMPDEST POP PUSH1 0xA0 DUP3 ADD MLOAD PUSH1 0x5 DUP3 ADD SSTORE PUSH1 0xC0 DUP3 ADD MLOAD PUSH1 0x6 DUP3 ADD SSTORE PUSH1 0xE0 SWAP1 SWAP2 ADD MLOAD PUSH1 0x7 SWAP1 SWAP2 ADD SSTORE POP POP POP POP POP POP POP POP JUMP JUMPDEST PUSH2 0xB09 PUSH2 0x147A JUMP JUMPDEST PUSH2 0x8C3 PUSH1 0x0 PUSH2 0x1ACD JUMP JUMPDEST PUSH1 0xFD SLOAD PUSH1 0x40 MLOAD PUSH4 0x935E01B PUSH1 0xE2 SHL DUP2 MSTORE CALLER PUSH1 0x4 DUP3 ADD MSTORE PUSH1 0x1 PUSH1 0x1 PUSH1 0xA0 SHL SUB SWAP1 SWAP2 AND SWAP1 PUSH4 0x24D7806C SWAP1 PUSH1 0x24 ADD PUSH1 0x20 PUSH1 0x40 MLOAD DUP1 DUP4 SUB DUP2 DUP7 GAS STATICCALL ISZERO DUP1 ISZERO PUSH2 0xB5B JUMPI RETURNDATASIZE PUSH1 0x0 DUP1 RETURNDATACOPY RETURNDATASIZE PUSH1 0x0 REVERT JUMPDEST POP POP POP POP PUSH1 0x40 MLOAD RETURNDATASIZE PUSH1 0x1F NOT PUSH1 0x1F DUP3 ADD AND DUP3 ADD DUP1 PUSH1 0x40 MSTORE POP DUP2 ADD SWAP1 PUSH2 0xB7F SWAP2 SWAP1 PUSH2 0x2465 JUMP JUMPDEST PUSH2 0xB9B JUMPI PUSH1 0x40 MLOAD PUSH3 0x461BCD PUSH1 0xE5 SHL DUP2 MSTORE PUSH1 0x4 ADD PUSH2 0x61B SWAP1 PUSH2 0x2482 JUMP JUMPDEST PUSH1 0xFF DUP1 SLOAD PUSH1 0xFF NOT AND SWAP2 ISZERO ISZERO SWAP2 SWAP1 SWAP2 OR SWAP1 SSTORE JUMP JUMPDEST PUSH1 0x0 SLOAD PUSH2 0x100 SWAP1 DIV PUSH1 0xFF AND ISZERO DUP1 DUP1 ISZERO PUSH2 0xBCE JUMPI POP PUSH1 0x0 SLOAD PUSH1 0x1 PUSH1 0xFF SWAP1 SWAP2 AND LT JUMPDEST DUP1 PUSH2 0xBE8 JUMPI POP ADDRESS EXTCODESIZE ISZERO DUP1 ISZERO PUSH2 0xBE8 JUMPI POP PUSH1 0x0 SLOAD PUSH1 0xFF AND PUSH1 0x1 EQ JUMPDEST PUSH2 0xC4B JUMPI PUSH1 0x40 MLOAD PUSH3 0x461BCD PUSH1 0xE5 SHL DUP2 MSTORE PUSH1 0x20 PUSH1 0x4 DUP3 ADD MSTORE PUSH1 0x2E PUSH1 0x24 DUP3 ADD MSTORE PUSH32 0x496E697469616C697A61626C653A20636F6E747261637420697320616C726561 PUSH1 0x44 DUP3 ADD MSTORE PUSH14 0x191E481A5B9A5D1A585B1A5E9959 PUSH1 0x92 SHL PUSH1 0x64 DUP3 ADD MSTORE PUSH1 0x84 ADD PUSH2 0x61B JUMP JUMPDEST PUSH1 0x0 DUP1 SLOAD PUSH1 0xFF NOT AND PUSH1 0x1 OR SWAP1 SSTORE DUP1 ISZERO PUSH2 0xC6E JUMPI PUSH1 0x0 DUP1 SLOAD PUSH2 0xFF00 NOT AND PUSH2 0x100 OR SWAP1 SSTORE JUMPDEST TIMESTAMP PUSH1 0xFB SSTORE PUSH3 0x28DE80 PUSH1 0xFC SSTORE PUSH2 0xC81 PUSH2 0x1B1F JUMP JUMPDEST PUSH2 0xC89 PUSH2 0x1B4E JUMP JUMPDEST PUSH2 0xC91 PUSH2 0x1B7D JUMP JUMPDEST DUP1 ISZERO PUSH2 0x8A3 JUMPI PUSH1 0x0 DUP1 SLOAD PUSH2 0xFF00 NOT AND SWAP1 SSTORE PUSH1 0x40 MLOAD PUSH1 0x1 DUP2 MSTORE PUSH32 0x7F26B83FF96E1F2B6A682F133852F6798A09C465DA95921460CEFB3847402498 SWAP1 PUSH1 0x20 ADD PUSH1 0x40 MLOAD DUP1 SWAP2 SUB SWAP1 LOG1 POP JUMP JUMPDEST PUSH2 0xCE1 PUSH2 0x147A JUMP JUMPDEST PUSH2 0x8C3 PUSH2 0x1BA4 JUMP JUMPDEST PUSH1 0xFD SLOAD PUSH1 0x40 MLOAD PUSH4 0x935E01B PUSH1 0xE2 SHL DUP2 MSTORE CALLER PUSH1 0x4 DUP3 ADD MSTORE PUSH1 0x1 PUSH1 0x1 PUSH1 0xA0 SHL SUB SWAP1 SWAP2 AND SWAP1 PUSH4 0x24D7806C SWAP1 PUSH1 0x24 ADD PUSH1 0x20 PUSH1 0x40 MLOAD DUP1 DUP4 SUB DUP2 DUP7 GAS STATICCALL ISZERO DUP1 ISZERO PUSH2 0xD31 JUMPI RETURNDATASIZE PUSH1 0x0 DUP1 RETURNDATACOPY RETURNDATASIZE PUSH1 0x0 REVERT JUMPDEST POP POP POP POP PUSH1 0x40 MLOAD RETURNDATASIZE PUSH1 0x1F NOT PUSH1 0x1F DUP3 ADD AND DUP3 ADD DUP1 PUSH1 0x40 MSTORE POP DUP2 ADD SWAP1 PUSH2 0xD55 SWAP2 SWAP1 PUSH2 0x2465 JUMP JUMPDEST PUSH2 0xD71 JUMPI PUSH1 0x40 MLOAD PUSH3 0x461BCD PUSH1 0xE5 SHL DUP2 MSTORE PUSH1 0x4 ADD PUSH2 0x61B SWAP1 PUSH2 0x2482 JUMP JUMPDEST TIMESTAMP PUSH1 0xFC SLOAD PUSH1 0xFB SLOAD PUSH2 0xD82 SWAP2 SWAP1 PUSH2 0x24C3 JUMP JUMPDEST GT DUP1 ISZERO PUSH2 0xD90 JUMPI POP PUSH1 0xFF DUP1 SLOAD AND JUMPDEST ISZERO PUSH2 0x6E5 JUMPI PUSH1 0x1 PUSH1 0x1 PUSH1 0xA0 SHL SUB DUP3 AND PUSH1 0x0 SWAP1 DUP2 MSTORE PUSH2 0x101 PUSH1 0x20 MSTORE PUSH1 0x40 DUP2 KECCAK256 DUP1 SLOAD SWAP1 SWAP2 DUP4 SWAP2 DUP4 SWAP2 SWAP1 PUSH2 0x676 SWAP1 DUP5 SWAP1 PUSH2 0x24C3 JUMP JUMPDEST PUSH2 0xE0D PUSH1 0x40 MLOAD DUP1 PUSH2 0x100 ADD PUSH1 0x40 MSTORE DUP1 PUSH1 0x0 PUSH1 0xFF AND DUP2 MSTORE PUSH1 0x20 ADD PUSH1 0x0 DUP2 MSTORE PUSH1 0x20 ADD PUSH1 0x0 DUP2 MSTORE PUSH1 0x20 ADD PUSH1 0x0 DUP2 MSTORE PUSH1 0x20 ADD PUSH1 0x60 DUP2 MSTORE PUSH1 0x20 ADD PUSH1 0x0 DUP2 MSTORE PUSH1 0x20 ADD PUSH1 0x0 DUP2 MSTORE PUSH1 0x20 ADD PUSH1 0x0 DUP2 MSTORE POP SWAP1 JUMP JUMPDEST PUSH1 0xFF DUP1 DUP4 AND PUSH1 0x0 SWAP1 DUP2 MSTORE PUSH2 0x100 PUSH1 0x20 DUP2 DUP2 MSTORE PUSH1 0x40 SWAP3 DUP4 SWAP1 KECCAK256 DUP4 MLOAD SWAP3 DUP4 ADD DUP5 MSTORE DUP1 SLOAD SWAP1 SWAP5 AND DUP3 MSTORE PUSH1 0x1 DUP5 ADD SLOAD SWAP1 DUP3 ADD MSTORE PUSH1 0x2 DUP4 ADD SLOAD SWAP2 DUP2 ADD SWAP2 SWAP1 SWAP2 MSTORE PUSH1 0x3 DUP3 ADD SLOAD PUSH1 0x60 DUP3 ADD MSTORE PUSH1 0x4 DUP3 ADD DUP1 SLOAD SWAP2 SWAP3 SWAP2 PUSH1 0x80 DUP5 ADD SWAP2 SWAP1 PUSH2 0xE6A SWAP1 PUSH2 0x25A5 JUMP JUMPDEST DUP1 PUSH1 0x1F ADD PUSH1 0x20 DUP1 SWAP2 DIV MUL PUSH1 0x20 ADD PUSH1 0x40 MLOAD SWAP1 DUP2 ADD PUSH1 0x40 MSTORE DUP1 SWAP3 SWAP2 SWAP1 DUP2 DUP2 MSTORE PUSH1 0x20 ADD DUP3 DUP1 SLOAD PUSH2 0xE96 SWAP1 PUSH2 0x25A5 JUMP JUMPDEST DUP1 ISZERO PUSH2 0xEE3 JUMPI DUP1 PUSH1 0x1F LT PUSH2 0xEB8 JUMPI PUSH2 0x100 DUP1 DUP4 SLOAD DIV MUL DUP4 MSTORE SWAP2 PUSH1 0x20 ADD SWAP2 PUSH2 0xEE3 JUMP JUMPDEST DUP3 ADD SWAP2 SWAP1 PUSH1 0x0 MSTORE PUSH1 0x20 PUSH1 0x0 KECCAK256 SWAP1 JUMPDEST DUP2 SLOAD DUP2 MSTORE SWAP1 PUSH1 0x1 ADD SWAP1 PUSH1 0x20 ADD DUP1 DUP4 GT PUSH2 0xEC6 JUMPI DUP3 SWAP1 SUB PUSH1 0x1F AND DUP3 ADD SWAP2 JUMPDEST POP POP POP POP POP DUP2 MSTORE PUSH1 0x20 ADD PUSH1 0x5 DUP3 ADD SLOAD DUP2 MSTORE PUSH1 0x20 ADD PUSH1 0x6 DUP3 ADD SLOAD DUP2 MSTORE PUSH1 0x20 ADD PUSH1 0x7 DUP3 ADD SLOAD DUP2 MSTORE POP POP SWAP1 POP SWAP2 SWAP1 POP JUMP JUMPDEST PUSH1 0x60 PUSH1 0x0 PUSH1 0xFE DUP1 SLOAD DUP1 PUSH1 0x20 MUL PUSH1 0x20 ADD PUSH1 0x40 MLOAD SWAP1 DUP2 ADD PUSH1 0x40 MSTORE DUP1 SWAP3 SWAP2 SWAP1 DUP2 DUP2 MSTORE PUSH1 0x20 ADD DUP3 DUP1 SLOAD DUP1 ISZERO PUSH2 0xF6B JUMPI PUSH1 0x20 MUL DUP3 ADD SWAP2 SWAP1 PUSH1 0x0 MSTORE PUSH1 0x20 PUSH1 0x0 KECCAK256 SWAP1 JUMPDEST DUP2 SLOAD PUSH1 0x1 PUSH1 0x1 PUSH1 0xA0 SHL SUB AND DUP2 MSTORE PUSH1 0x1 SWAP1 SWAP2 ADD SWAP1 PUSH1 0x20 ADD DUP1 DUP4 GT PUSH2 0xF4D JUMPI JUMPDEST POP POP POP POP POP SWAP2 POP DUP2 MLOAD SWAP1 POP SWAP1 SWAP2 JUMP JUMPDEST PUSH1 0x0 DUP1 PUSH1 0xFD PUSH1 0x0 SWAP1 SLOAD SWAP1 PUSH2 0x100 EXP SWAP1 DIV PUSH1 0x1 PUSH1 0x1 PUSH1 0xA0 SHL SUB AND PUSH1 0x1 PUSH1 0x1 PUSH1 0xA0 SHL SUB AND PUSH4 0x7DAD19DB PUSH1 0x40 MLOAD DUP2 PUSH4 0xFFFFFFFF AND PUSH1 0xE0 SHL DUP2 MSTORE PUSH1 0x4 ADD PUSH1 0x20 PUSH1 0x40 MLOAD DUP1 DUP4 SUB DUP2 DUP7 GAS STATICCALL ISZERO DUP1 ISZERO PUSH2 0xFD0 JUMPI RETURNDATASIZE PUSH1 0x0 DUP1 RETURNDATACOPY RETURNDATASIZE PUSH1 0x0 REVERT JUMPDEST POP POP POP POP PUSH1 0x40 MLOAD RETURNDATASIZE PUSH1 0x1F NOT PUSH1 0x1F DUP3 ADD AND DUP3 ADD DUP1 PUSH1 0x40 MSTORE POP DUP2 ADD SWAP1 PUSH2 0xFF4 SWAP2 SWAP1 PUSH2 0x26F8 JUMP JUMPDEST PUSH1 0x40 MLOAD PUSH4 0x7DA3F00B PUSH1 0xE1 SHL DUP2 MSTORE PUSH1 0x1 PUSH1 0x1 PUSH1 0xA0 SHL SUB DUP6 DUP2 AND PUSH1 0x4 DUP4 ADD MSTORE SWAP2 SWAP1 SWAP2 AND SWAP1 PUSH4 0xFB47E016 SWAP1 PUSH1 0x24 ADD PUSH1 0x0 PUSH1 0x40 MLOAD DUP1 DUP4 SUB DUP2 DUP7 GAS STATICCALL ISZERO DUP1 ISZERO PUSH2 0x103C JUMPI RETURNDATASIZE PUSH1 0x0 DUP1 RETURNDATACOPY RETURNDATASIZE PUSH1 0x0 REVERT JUMPDEST POP POP POP POP PUSH1 0x40 MLOAD RETURNDATASIZE PUSH1 0x0 DUP3 RETURNDATACOPY PUSH1 0x1F RETURNDATASIZE SWAP1 DUP2 ADD PUSH1 0x1F NOT AND DUP3 ADD PUSH1 0x40 MSTORE PUSH2 0x1064 SWAP2 SWAP1 DUP2 ADD SWAP1 PUSH2 0x2808 JUMP JUMPDEST PUSH1 0x1 PUSH1 0x1 PUSH1 0xA0 SHL SUB DUP5 AND PUSH1 0x0 SWAP1 DUP2 MSTORE PUSH2 0x101 PUSH1 0x20 SWAP1 DUP2 MSTORE PUSH1 0x40 DUP1 DUP4 KECCAK256 DUP2 MLOAD PUSH1 0x80 DUP2 ADD DUP4 MSTORE DUP2 SLOAD DUP2 MSTORE PUSH1 0x1 DUP3 ADD SLOAD SWAP4 DUP2 ADD SWAP4 SWAP1 SWAP4 MSTORE PUSH1 0x2 DUP2 ADD SLOAD SWAP2 DUP4 ADD SWAP2 SWAP1 SWAP2 MSTORE PUSH1 0x3 ADD SLOAD PUSH1 0xFF AND ISZERO ISZERO PUSH1 0x60 DUP3 ADD MSTORE SWAP2 SWAP3 POP JUMPDEST PUSH1 0xA DUP2 PUSH1 0xFF AND LT ISZERO PUSH2 0x122F JUMPI PUSH1 0xFF DUP1 DUP3 AND PUSH1 0x0 SWAP1 DUP2 MSTORE PUSH2 0x100 PUSH1 0x20 DUP2 DUP2 MSTORE PUSH1 0x40 DUP1 DUP5 KECCAK256 DUP2 MLOAD SWAP4 DUP5 ADD DUP3 MSTORE DUP1 SLOAD SWAP1 SWAP6 AND DUP4 MSTORE PUSH1 0x1 DUP6 ADD SLOAD SWAP2 DUP4 ADD SWAP2 SWAP1 SWAP2 MSTORE PUSH1 0x2 DUP5 ADD SLOAD SWAP1 DUP3 ADD MSTORE PUSH1 0x3 DUP4 ADD SLOAD PUSH1 0x60 DUP3 ADD MSTORE PUSH1 0x4 DUP4 ADD DUP1 SLOAD SWAP3 SWAP4 SWAP2 SWAP3 PUSH1 0x80 DUP5 ADD SWAP2 SWAP1 PUSH2 0x111F SWAP1 PUSH2 0x25A5 JUMP JUMPDEST DUP1 PUSH1 0x1F ADD PUSH1 0x20 DUP1 SWAP2 DIV MUL PUSH1 0x20 ADD PUSH1 0x40 MLOAD SWAP1 DUP2 ADD PUSH1 0x40 MSTORE DUP1 SWAP3 SWAP2 SWAP1 DUP2 DUP2 MSTORE PUSH1 0x20 ADD DUP3 DUP1 SLOAD PUSH2 0x114B SWAP1 PUSH2 0x25A5 JUMP JUMPDEST DUP1 ISZERO PUSH2 0x1198 JUMPI DUP1 PUSH1 0x1F LT PUSH2 0x116D JUMPI PUSH2 0x100 DUP1 DUP4 SLOAD DIV MUL DUP4 MSTORE SWAP2 PUSH1 0x20 ADD SWAP2 PUSH2 0x1198 JUMP JUMPDEST DUP3 ADD SWAP2 SWAP1 PUSH1 0x0 MSTORE PUSH1 0x20 PUSH1 0x0 KECCAK256 SWAP1 JUMPDEST DUP2 SLOAD DUP2 MSTORE SWAP1 PUSH1 0x1 ADD SWAP1 PUSH1 0x20 ADD DUP1 DUP4 GT PUSH2 0x117B JUMPI DUP3 SWAP1 SUB PUSH1 0x1F AND DUP3 ADD SWAP2 JUMPDEST POP POP POP POP POP DUP2 MSTORE PUSH1 0x20 ADD PUSH1 0x5 DUP3 ADD SLOAD DUP2 MSTORE PUSH1 0x20 ADD PUSH1 0x6 DUP3 ADD SLOAD DUP2 MSTORE PUSH1 0x20 ADD PUSH1 0x7 DUP3 ADD SLOAD DUP2 MSTORE POP POP SWAP1 POP PUSH1 0x1 DUP3 PUSH1 0xFF AND GT DUP1 ISZERO PUSH2 0x11D6 JUMPI POP PUSH1 0x20 DUP2 ADD MLOAD ISZERO JUMPDEST ISZERO PUSH2 0x11E1 JUMPI POP PUSH2 0x122F JUMP JUMPDEST PUSH1 0x20 DUP2 ADD MLOAD DUP4 MLOAD LT DUP1 ISZERO SWAP1 PUSH2 0x11FE JUMPI POP DUP1 PUSH1 0x40 ADD MLOAD DUP4 PUSH1 0x20 ADD MLOAD LT ISZERO JUMPDEST DUP1 ISZERO PUSH2 0x1213 JUMPI POP PUSH2 0x1213 DUP5 DUP3 PUSH1 0x60 ADD MLOAD PUSH2 0x1BE1 JUMP JUMPDEST ISZERO PUSH2 0x121C JUMPI DUP2 SWAP5 POP JUMPDEST POP DUP1 PUSH2 0x1227 DUP2 PUSH2 0x2973 JUMP JUMPDEST SWAP2 POP POP PUSH2 0x10B6 JUMP JUMPDEST POP POP POP SWAP2 SWAP1 POP JUMP JUMPDEST PUSH2 0x123F PUSH2 0x147A JUMP JUMPDEST PUSH1 0x1 PUSH1 0x1 PUSH1 0xA0 SHL SUB DUP2 AND PUSH2 0x12A4 JUMPI PUSH1 0x40 MLOAD PUSH3 0x461BCD PUSH1 0xE5 SHL DUP2 MSTORE PUSH1 0x20 PUSH1 0x4 DUP3 ADD MSTORE PUSH1 0x26 PUSH1 0x24 DUP3 ADD MSTORE PUSH32 0x4F776E61626C653A206E6577206F776E657220697320746865207A65726F2061 PUSH1 0x44 DUP3 ADD MSTORE PUSH6 0x646472657373 PUSH1 0xD0 SHL PUSH1 0x64 DUP3 ADD MSTORE PUSH1 0x84 ADD PUSH2 0x61B JUMP JUMPDEST PUSH2 0x8A3 DUP2 PUSH2 0x1ACD JUMP JUMPDEST PUSH1 0xFD SLOAD PUSH1 0x40 MLOAD PUSH4 0x935E01B PUSH1 0xE2 SHL DUP2 MSTORE CALLER PUSH1 0x4 DUP3 ADD MSTORE PUSH1 0x1 PUSH1 0x1 PUSH1 0xA0 SHL SUB SWAP1 SWAP2 AND SWAP1 PUSH4 0x24D7806C SWAP1 PUSH1 0x24 ADD PUSH1 0x20 PUSH1 0x40 MLOAD DUP1 DUP4 SUB DUP2 DUP7 GAS STATICCALL ISZERO DUP1 ISZERO PUSH2 0x12F5 JUMPI RETURNDATASIZE PUSH1 0x0 DUP1 RETURNDATACOPY RETURNDATASIZE PUSH1 0x0 REVERT JUMPDEST POP POP POP POP PUSH1 0x40 MLOAD RETURNDATASIZE PUSH1 0x1F NOT PUSH1 0x1F DUP3 ADD AND DUP3 ADD DUP1 PUSH1 0x40 MSTORE POP DUP2 ADD SWAP1 PUSH2 0x1319 SWAP2 SWAP1 PUSH2 0x2465 JUMP JUMPDEST PUSH2 0x1335 JUMPI PUSH1 0x40 MLOAD PUSH3 0x461BCD PUSH1 0xE5 SHL DUP2 MSTORE PUSH1 0x4 ADD PUSH2 0x61B SWAP1 PUSH2 0x2482 JUMP JUMPDEST TIMESTAMP PUSH1 0xFC SLOAD PUSH1 0xFB SLOAD PUSH2 0x1346 SWAP2 SWAP1 PUSH2 0x24C3 JUMP JUMPDEST GT DUP1 ISZERO PUSH2 0x1354 JUMPI POP PUSH1 0xFF DUP1 SLOAD AND JUMPDEST ISZERO PUSH2 0x6E5 JUMPI PUSH1 0x1 PUSH1 0x1 PUSH1 0xA0 SHL SUB DUP3 AND PUSH1 0x0 SWAP1 DUP2 MSTORE PUSH2 0x101 PUSH1 0x20 MSTORE PUSH1 0x40 DUP2 KECCAK256 PUSH1 0x2 DUP2 ADD DUP1 SLOAD SWAP2 SWAP3 DUP5 SWAP3 PUSH2 0x676 SWAP1 DUP5 SWAP1 PUSH2 0x24C3 JUMP JUMPDEST PUSH2 0x138F PUSH2 0x147A JUMP JUMPDEST PUSH2 0x139C DUP2 PUSH3 0x15180 PUSH2 0x2992 JUMP JUMPDEST PUSH1 0xFC SSTORE POP JUMP JUMPDEST PUSH2 0x13CF PUSH1 0x40 MLOAD DUP1 PUSH1 0x80 ADD PUSH1 0x40 MSTORE DUP1 PUSH1 0x0 DUP2 MSTORE PUSH1 0x20 ADD PUSH1 0x0 DUP2 MSTORE PUSH1 0x20 ADD PUSH1 0x0 DUP2 MSTORE PUSH1 0x20 ADD PUSH1 0x0 ISZERO ISZERO DUP2 MSTORE POP SWAP1 JUMP JUMPDEST POP PUSH1 0x1 PUSH1 0x1 PUSH1 0xA0 SHL SUB AND PUSH1 0x0 SWAP1 DUP2 MSTORE PUSH2 0x101 PUSH1 0x20 SWAP1 DUP2 MSTORE PUSH1 0x40 SWAP2 DUP3 SWAP1 KECCAK256 DUP3 MLOAD PUSH1 0x80 DUP2 ADD DUP5 MSTORE DUP2 SLOAD DUP2 MSTORE PUSH1 0x1 DUP3 ADD SLOAD SWAP3 DUP2 ADD SWAP3 SWAP1 SWAP3 MSTORE PUSH1 0x2 DUP2 ADD SLOAD SWAP3 DUP3 ADD SWAP3 SWAP1 SWAP3 MSTORE PUSH1 0x3 SWAP1 SWAP2 ADD SLOAD PUSH1 0xFF AND ISZERO ISZERO PUSH1 0x60 DUP3 ADD MSTORE SWAP1 JUMP JUMPDEST PUSH1 0x0 DUP1 JUMPDEST PUSH1 0xA DUP2 PUSH1 0xFF AND LT ISZERO PUSH2 0x1476 JUMPI PUSH1 0x0 DUP2 PUSH1 0xFF AND GT DUP1 ISZERO PUSH2 0x145B JUMPI POP PUSH1 0xFF DUP2 AND PUSH1 0x0 SWAP1 DUP2 MSTORE PUSH2 0x100 PUSH1 0x20 MSTORE PUSH1 0x40 SWAP1 KECCAK256 PUSH1 0x1 ADD SLOAD ISZERO ISZERO JUMPDEST ISZERO PUSH2 0x1464 JUMPI DUP1 SWAP2 POP JUMPDEST DUP1 PUSH2 0x146E DUP2 PUSH2 0x2973 JUMP JUMPDEST SWAP2 POP POP PUSH2 0x1427 JUMP JUMPDEST POP SWAP1 JUMP JUMPDEST PUSH1 0x65 SLOAD PUSH1 0x1 PUSH1 0x1 PUSH1 0xA0 SHL SUB AND CALLER EQ PUSH2 0x8C3 JUMPI PUSH1 0x40 MLOAD PUSH3 0x461BCD PUSH1 0xE5 SHL DUP2 MSTORE PUSH1 0x20 PUSH1 0x4 DUP3 ADD DUP2 SWAP1 MSTORE PUSH1 0x24 DUP3 ADD MSTORE PUSH32 0x4F776E61626C653A2063616C6C6572206973206E6F7420746865206F776E6572 PUSH1 0x44 DUP3 ADD MSTORE PUSH1 0x64 ADD PUSH2 0x61B JUMP JUMPDEST PUSH1 0x60 PUSH1 0x0 PUSH2 0x14E2 DUP5 DUP5 PUSH2 0x29A9 JUMP JUMPDEST PUSH2 0xFFFF AND PUSH8 0xFFFFFFFFFFFFFFFF DUP2 GT ISZERO PUSH2 0x14FE JUMPI PUSH2 0x14FE PUSH2 0x2167 JUMP JUMPDEST PUSH1 0x40 MLOAD SWAP1 DUP1 DUP3 MSTORE DUP1 PUSH1 0x20 MUL PUSH1 0x20 ADD DUP3 ADD PUSH1 0x40 MSTORE DUP1 ISZERO PUSH2 0x1527 JUMPI DUP2 PUSH1 0x20 ADD PUSH1 0x20 DUP3 MUL DUP1 CALLDATASIZE DUP4 CALLDATACOPY ADD SWAP1 POP JUMPDEST POP SWAP2 POP PUSH1 0x0 PUSH1 0xFE DUP1 SLOAD DUP1 PUSH1 0x20 MUL PUSH1 0x20 ADD PUSH1 0x40 MLOAD SWAP1 DUP2 ADD PUSH1 0x40 MSTORE DUP1 SWAP3 SWAP2 SWAP1 DUP2 DUP2 MSTORE PUSH1 0x20 ADD DUP3 DUP1 SLOAD DUP1 ISZERO PUSH2 0x1582 JUMPI PUSH1 0x20 MUL DUP3 ADD SWAP2 SWAP1 PUSH1 0x0 MSTORE PUSH1 0x20 PUSH1 0x0 KECCAK256 SWAP1 JUMPDEST DUP2 SLOAD PUSH1 0x1 PUSH1 0x1 PUSH1 0xA0 SHL SUB AND DUP2 MSTORE PUSH1 0x1 SWAP1 SWAP2 ADD SWAP1 PUSH1 0x20 ADD DUP1 DUP4 GT PUSH2 0x1564 JUMPI JUMPDEST POP POP POP POP POP SWAP1 POP JUMPDEST DUP4 PUSH2 0xFFFF AND DUP6 PUSH2 0xFFFF AND GT PUSH2 0x18FA JUMPI PUSH1 0x0 PUSH2 0x101 PUSH1 0x0 DUP4 DUP9 PUSH2 0xFFFF AND DUP2 MLOAD DUP2 LT PUSH2 0x15B6 JUMPI PUSH2 0x15B6 PUSH2 0x24D6 JUMP JUMPDEST PUSH1 0x20 MUL PUSH1 0x20 ADD ADD MLOAD PUSH1 0x1 PUSH1 0x1 PUSH1 0xA0 SHL SUB AND PUSH1 0x1 PUSH1 0x1 PUSH1 0xA0 SHL SUB AND DUP2 MSTORE PUSH1 0x20 ADD SWAP1 DUP2 MSTORE PUSH1 0x20 ADD PUSH1 0x0 KECCAK256 PUSH1 0x40 MLOAD DUP1 PUSH1 0x80 ADD PUSH1 0x40 MSTORE SWAP1 DUP2 PUSH1 0x0 DUP3 ADD SLOAD DUP2 MSTORE PUSH1 0x20 ADD PUSH1 0x1 DUP3 ADD SLOAD DUP2 MSTORE PUSH1 0x20 ADD PUSH1 0x2 DUP3 ADD SLOAD DUP2 MSTORE PUSH1 0x20 ADD PUSH1 0x3 DUP3 ADD PUSH1 0x0 SWAP1 SLOAD SWAP1 PUSH2 0x100 EXP SWAP1 DIV PUSH1 0xFF AND ISZERO ISZERO ISZERO ISZERO DUP2 MSTORE POP POP SWAP1 POP PUSH1 0x0 PUSH2 0x100 PUSH1 0x0 DUP10 PUSH1 0xFF AND PUSH1 0xFF AND DUP2 MSTORE PUSH1 0x20 ADD SWAP1 DUP2 MSTORE PUSH1 0x20 ADD PUSH1 0x0 KECCAK256 PUSH1 0x40 MLOAD DUP1 PUSH2 0x100 ADD PUSH1 0x40 MSTORE SWAP1 DUP2 PUSH1 0x0 DUP3 ADD PUSH1 0x0 SWAP1 SLOAD SWAP1 PUSH2 0x100 EXP SWAP1 DIV PUSH1 0xFF AND PUSH1 0xFF AND PUSH1 0xFF AND DUP2 MSTORE PUSH1 0x20 ADD PUSH1 0x1 DUP3 ADD SLOAD DUP2 MSTORE PUSH1 0x20 ADD PUSH1 0x2 DUP3 ADD SLOAD DUP2 MSTORE PUSH1 0x20 ADD PUSH1 0x3 DUP3 ADD SLOAD DUP2 MSTORE PUSH1 0x20 ADD PUSH1 0x4 DUP3 ADD DUP1 SLOAD PUSH2 0x1697 SWAP1 PUSH2 0x25A5 JUMP JUMPDEST DUP1 PUSH1 0x1F ADD PUSH1 0x20 DUP1 SWAP2 DIV MUL PUSH1 0x20 ADD PUSH1 0x40 MLOAD SWAP1 DUP2 ADD PUSH1 0x40 MSTORE DUP1 SWAP3 SWAP2 SWAP1 DUP2 DUP2 MSTORE PUSH1 0x20 ADD DUP3 DUP1 SLOAD PUSH2 0x16C3 SWAP1 PUSH2 0x25A5 JUMP JUMPDEST DUP1 ISZERO PUSH2 0x1710 JUMPI DUP1 PUSH1 0x1F LT PUSH2 0x16E5 JUMPI PUSH2 0x100 DUP1 DUP4 SLOAD DIV MUL DUP4 MSTORE SWAP2 PUSH1 0x20 ADD SWAP2 PUSH2 0x1710 JUMP JUMPDEST DUP3 ADD SWAP2 SWAP1 PUSH1 0x0 MSTORE PUSH1 0x20 PUSH1 0x0 KECCAK256 SWAP1 JUMPDEST DUP2 SLOAD DUP2 MSTORE SWAP1 PUSH1 0x1 ADD SWAP1 PUSH1 0x20 ADD DUP1 DUP4 GT PUSH2 0x16F3 JUMPI DUP3 SWAP1 SUB PUSH1 0x1F AND DUP3 ADD SWAP2 JUMPDEST POP POP POP POP POP DUP2 MSTORE PUSH1 0x20 ADD PUSH1 0x5 DUP3 ADD SLOAD DUP2 MSTORE PUSH1 0x20 ADD PUSH1 0x6 DUP3 ADD SLOAD DUP2 MSTORE PUSH1 0x20 ADD PUSH1 0x7 DUP3 ADD SLOAD DUP2 MSTORE POP POP SWAP1 POP PUSH1 0x0 PUSH1 0xFD PUSH1 0x0 SWAP1 SLOAD SWAP1 PUSH2 0x100 EXP SWAP1 DIV PUSH1 0x1 PUSH1 0x1 PUSH1 0xA0 SHL SUB AND PUSH1 0x1 PUSH1 0x1 PUSH1 0xA0 SHL SUB AND PUSH4 0x7DAD19DB PUSH1 0x40 MLOAD DUP2 PUSH4 0xFFFFFFFF AND PUSH1 0xE0 SHL DUP2 MSTORE PUSH1 0x4 ADD PUSH1 0x20 PUSH1 0x40 MLOAD DUP1 DUP4 SUB DUP2 DUP7 GAS STATICCALL ISZERO DUP1 ISZERO PUSH2 0x178E JUMPI RETURNDATASIZE PUSH1 0x0 DUP1 RETURNDATACOPY RETURNDATASIZE PUSH1 0x0 REVERT JUMPDEST POP POP POP POP PUSH1 0x40 MLOAD RETURNDATASIZE PUSH1 0x1F NOT PUSH1 0x1F DUP3 ADD AND DUP3 ADD DUP1 PUSH1 0x40 MSTORE POP DUP2 ADD SWAP1 PUSH2 0x17B2 SWAP2 SWAP1 PUSH2 0x26F8 JUMP JUMPDEST PUSH1 0x1 PUSH1 0x1 PUSH1 0xA0 SHL SUB AND PUSH4 0xFB47E016 DUP6 DUP11 PUSH2 0xFFFF AND DUP2 MLOAD DUP2 LT PUSH2 0x17D6 JUMPI PUSH2 0x17D6 PUSH2 0x24D6 JUMP JUMPDEST PUSH1 0x20 MUL PUSH1 0x20 ADD ADD MLOAD PUSH1 0x40 MLOAD DUP3 PUSH4 0xFFFFFFFF AND PUSH1 0xE0 SHL DUP2 MSTORE PUSH1 0x4 ADD PUSH2 0x1809 SWAP2 SWAP1 PUSH1 0x1 PUSH1 0x1 PUSH1 0xA0 SHL SUB SWAP2 SWAP1 SWAP2 AND DUP2 MSTORE PUSH1 0x20 ADD SWAP1 JUMP JUMPDEST PUSH1 0x0 PUSH1 0x40 MLOAD DUP1 DUP4 SUB DUP2 DUP7 GAS STATICCALL ISZERO DUP1 ISZERO PUSH2 0x1826 JUMPI RETURNDATASIZE PUSH1 0x0 DUP1 RETURNDATACOPY RETURNDATASIZE PUSH1 0x0 REVERT JUMPDEST POP POP POP POP PUSH1 0x40 MLOAD RETURNDATASIZE PUSH1 0x0 DUP3 RETURNDATACOPY PUSH1 0x1F RETURNDATASIZE SWAP1 DUP2 ADD PUSH1 0x1F NOT AND DUP3 ADD PUSH1 0x40 MSTORE PUSH2 0x184E SWAP2 SWAP1 DUP2 ADD SWAP1 PUSH2 0x2808 JUMP JUMPDEST SWAP1 POP DUP2 PUSH1 0x20 ADD MLOAD DUP4 PUSH1 0x0 ADD MLOAD LT ISZERO DUP1 ISZERO PUSH2 0x1870 JUMPI POP DUP2 PUSH1 0x40 ADD MLOAD DUP4 PUSH1 0x20 ADD MLOAD LT ISZERO JUMPDEST DUP1 ISZERO PUSH2 0x1885 JUMPI POP PUSH2 0x1885 DUP2 DUP4 PUSH1 0x60 ADD MLOAD PUSH2 0x1BE1 JUMP JUMPDEST ISZERO PUSH2 0x18E4 JUMPI DUP4 DUP9 PUSH2 0xFFFF AND DUP2 MLOAD DUP2 LT PUSH2 0x18A0 JUMPI PUSH2 0x18A0 PUSH2 0x24D6 JUMP JUMPDEST PUSH1 0x20 MUL PUSH1 0x20 ADD ADD MLOAD DUP7 DUP7 PUSH2 0xFFFF AND DUP2 MLOAD DUP2 LT PUSH2 0x18BE JUMPI PUSH2 0x18BE PUSH2 0x24D6 JUMP JUMPDEST PUSH1 0x1 PUSH1 0x1 PUSH1 0xA0 SHL SUB SWAP1 SWAP3 AND PUSH1 0x20 SWAP3 DUP4 MUL SWAP2 SWAP1 SWAP2 ADD SWAP1 SWAP2 ADD MSTORE DUP5 PUSH2 0x18E0 DUP2 PUSH2 0x24EC JUMP JUMPDEST SWAP6 POP POP JUMPDEST POP POP POP DUP5 DUP1 PUSH2 0x18F2 SWAP1 PUSH2 0x24EC JUMP JUMPDEST SWAP6 POP POP PUSH2 0x158A JUMP JUMPDEST POP SWAP4 POP SWAP4 SWAP2 POP POP JUMP JUMPDEST PUSH2 0x8A3 PUSH2 0x147A JUMP JUMPDEST PUSH32 0x4910FDFA16FED3260ED0E7147F7CC6DA11A60208B5B9406D12A635614FFD9143 SLOAD PUSH1 0xFF AND ISZERO PUSH2 0x1943 JUMPI PUSH2 0x193E DUP4 PUSH2 0x1CE2 JUMP JUMPDEST PUSH2 0x6E3 JUMP JUMPDEST DUP3 PUSH1 0x1 PUSH1 0x1 PUSH1 0xA0 SHL SUB AND PUSH4 0x52D1902D PUSH1 0x40 MLOAD DUP2 PUSH4 0xFFFFFFFF AND PUSH1 0xE0 SHL DUP2 MSTORE PUSH1 0x4 ADD PUSH1 0x20 PUSH1 0x40 MLOAD DUP1 DUP4 SUB DUP2 DUP7 GAS STATICCALL SWAP3 POP POP POP DUP1 ISZERO PUSH2 0x199D JUMPI POP PUSH1 0x40 DUP1 MLOAD PUSH1 0x1F RETURNDATASIZE SWAP1 DUP2 ADD PUSH1 0x1F NOT AND DUP3 ADD SWAP1 SWAP3 MSTORE PUSH2 0x199A SWAP2 DUP2 ADD SWAP1 PUSH2 0x29CB JUMP JUMPDEST PUSH1 0x1 JUMPDEST PUSH2 0x1A00 JUMPI PUSH1 0x40 MLOAD PUSH3 0x461BCD PUSH1 0xE5 SHL DUP2 MSTORE PUSH1 0x20 PUSH1 0x4 DUP3 ADD MSTORE PUSH1 0x2E PUSH1 0x24 DUP3 ADD MSTORE PUSH32 0x45524331393637557067726164653A206E657720696D706C656D656E74617469 PUSH1 0x44 DUP3 ADD MSTORE PUSH14 0x6F6E206973206E6F742055555053 PUSH1 0x90 SHL PUSH1 0x64 DUP3 ADD MSTORE PUSH1 0x84 ADD PUSH2 0x61B JUMP JUMPDEST PUSH1 0x0 DUP1 MLOAD PUSH1 0x20 PUSH2 0x2A72 DUP4 CODECOPY DUP2 MLOAD SWAP2 MSTORE DUP2 EQ PUSH2 0x1A6F JUMPI PUSH1 0x40 MLOAD PUSH3 0x461BCD PUSH1 0xE5 SHL DUP2 MSTORE PUSH1 0x20 PUSH1 0x4 DUP3 ADD MSTORE PUSH1 0x29 PUSH1 0x24 DUP3 ADD MSTORE PUSH32 0x45524331393637557067726164653A20756E737570706F727465642070726F78 PUSH1 0x44 DUP3 ADD MSTORE PUSH9 0x1A58589B1955555251 PUSH1 0xBA SHL PUSH1 0x64 DUP3 ADD MSTORE PUSH1 0x84 ADD PUSH2 0x61B JUMP JUMPDEST POP PUSH2 0x6E3 DUP4 DUP4 DUP4 PUSH2 0x1D7E JUMP JUMPDEST PUSH2 0x1A83 PUSH2 0x1DA9 JUMP JUMPDEST PUSH1 0x33 DUP1 SLOAD PUSH1 0xFF NOT AND SWAP1 SSTORE PUSH32 0x5DB9EE0A495BF2E6FF9C91A7834C1BA4FDD244A5E8AA4E537BD38AEAE4B073AA CALLER JUMPDEST PUSH1 0x40 MLOAD PUSH1 0x1 PUSH1 0x1 PUSH1 0xA0 SHL SUB SWAP1 SWAP2 AND DUP2 MSTORE PUSH1 0x20 ADD PUSH1 0x40 MLOAD DUP1 SWAP2 SUB SWAP1 LOG1 JUMP JUMPDEST PUSH1 0x65 DUP1 SLOAD PUSH1 0x1 PUSH1 0x1 PUSH1 0xA0 SHL SUB DUP4 DUP2 AND PUSH1 0x1 PUSH1 0x1 PUSH1 0xA0 SHL SUB NOT DUP4 AND DUP2 OR SWAP1 SWAP4 SSTORE PUSH1 0x40 MLOAD SWAP2 AND SWAP2 SWAP1 DUP3 SWAP1 PUSH32 0x8BE0079C531659141344CD1FD0A4F28419497F9722A3DAAFE3B4186F6B6457E0 SWAP1 PUSH1 0x0 SWAP1 LOG3 POP POP JUMP JUMPDEST PUSH1 0x0 SLOAD PUSH2 0x100 SWAP1 DIV PUSH1 0xFF AND PUSH2 0x1B46 JUMPI PUSH1 0x40 MLOAD PUSH3 0x461BCD PUSH1 0xE5 SHL DUP2 MSTORE PUSH1 0x4 ADD PUSH2 0x61B SWAP1 PUSH2 0x29E4 JUMP JUMPDEST PUSH2 0x8C3 PUSH2 0x1DF2 JUMP JUMPDEST PUSH1 0x0 SLOAD PUSH2 0x100 SWAP1 DIV PUSH1 0xFF AND PUSH2 0x1B75 JUMPI PUSH1 0x40 MLOAD PUSH3 0x461BCD PUSH1 0xE5 SHL DUP2 MSTORE PUSH1 0x4 ADD PUSH2 0x61B SWAP1 PUSH2 0x29E4 JUMP JUMPDEST PUSH2 0x8C3 PUSH2 0x1E25 JUMP JUMPDEST PUSH1 0x0 SLOAD PUSH2 0x100 SWAP1 DIV PUSH1 0xFF AND PUSH2 0x8C3 JUMPI PUSH1 0x40 MLOAD PUSH3 0x461BCD PUSH1 0xE5 SHL DUP2 MSTORE PUSH1 0x4 ADD PUSH2 0x61B SWAP1 PUSH2 0x29E4 JUMP JUMPDEST PUSH2 0x1BAC PUSH2 0x1E55 JUMP JUMPDEST PUSH1 0x33 DUP1 SLOAD PUSH1 0xFF NOT AND PUSH1 0x1 OR SWAP1 SSTORE PUSH32 0x62E78CEA01BEE320CD4E420270B5EA74000D11B0C9F74754EBDBFC544B05A258 PUSH2 0x1AB0 CALLER SWAP1 JUMP JUMPDEST PUSH1 0x0 DUP1 PUSH1 0x0 PUSH1 0x2 DUP6 PUSH1 0x20 ADD MLOAD MLOAD GT ISZERO PUSH2 0x1CDA JUMPI PUSH1 0x0 JUMPDEST DUP6 PUSH1 0x20 ADD MLOAD MLOAD DUP2 PUSH2 0xFFFF AND LT ISZERO PUSH2 0x1CB6 JUMPI PUSH1 0x0 PUSH2 0x101 PUSH1 0x0 DUP9 PUSH1 0x20 ADD MLOAD DUP5 PUSH2 0xFFFF AND DUP2 MLOAD DUP2 LT PUSH2 0x1C29 JUMPI PUSH2 0x1C29 PUSH2 0x24D6 JUMP JUMPDEST PUSH1 0x20 SWAP1 DUP2 MUL SWAP2 SWAP1 SWAP2 ADD DUP2 ADD MLOAD PUSH1 0x1 PUSH1 0x1 PUSH1 0xA0 SHL SUB AND DUP3 MSTORE DUP2 DUP2 ADD SWAP3 SWAP1 SWAP3 MSTORE PUSH1 0x40 SWAP1 DUP2 ADD PUSH1 0x0 KECCAK256 DUP2 MLOAD PUSH1 0x80 DUP2 ADD DUP4 MSTORE DUP2 SLOAD DUP2 MSTORE PUSH1 0x1 DUP3 ADD SLOAD SWAP4 DUP2 ADD SWAP4 SWAP1 SWAP4 MSTORE PUSH1 0x2 DUP2 ADD SLOAD SWAP2 DUP4 ADD DUP3 SWAP1 MSTORE PUSH1 0x3 ADD SLOAD PUSH1 0xFF AND ISZERO ISZERO PUSH1 0x60 DUP4 ADD MSTORE SWAP1 SWAP2 POP PUSH2 0x1C8D SWAP1 DUP6 PUSH2 0x24C3 JUMP JUMPDEST SWAP4 POP DUP3 DUP2 PUSH1 0x40 ADD MLOAD GT ISZERO PUSH2 0x1CA3 JUMPI DUP1 PUSH1 0x40 ADD MLOAD SWAP3 POP JUMPDEST POP DUP1 PUSH2 0x1CAE DUP2 PUSH2 0x24EC JUMP JUMPDEST SWAP2 POP POP PUSH2 0x1BF7 JUMP JUMPDEST POP DUP4 DUP2 LT ISZERO DUP1 ISZERO PUSH2 0x1CD0 JUMPI POP DUP4 PUSH2 0x1CCD DUP3 DUP5 PUSH2 0x2A2F JUMP JUMPDEST LT ISZERO JUMPDEST ISZERO PUSH2 0x1CDA JUMPI PUSH1 0x1 SWAP3 POP JUMPDEST POP POP SWAP3 SWAP2 POP POP JUMP JUMPDEST PUSH1 0x1 PUSH1 0x1 PUSH1 0xA0 SHL SUB DUP2 AND EXTCODESIZE PUSH2 0x1D4F JUMPI PUSH1 0x40 MLOAD PUSH3 0x461BCD PUSH1 0xE5 SHL DUP2 MSTORE PUSH1 0x20 PUSH1 0x4 DUP3 ADD MSTORE PUSH1 0x2D PUSH1 0x24 DUP3 ADD MSTORE PUSH32 0x455243313936373A206E657720696D706C656D656E746174696F6E206973206E PUSH1 0x44 DUP3 ADD MSTORE PUSH13 0x1BDD08184818DBDB9D1C9858DD PUSH1 0x9A SHL PUSH1 0x64 DUP3 ADD MSTORE PUSH1 0x84 ADD PUSH2 0x61B JUMP JUMPDEST PUSH1 0x0 DUP1 MLOAD PUSH1 0x20 PUSH2 0x2A72 DUP4 CODECOPY DUP2 MLOAD SWAP2 MSTORE DUP1 SLOAD PUSH1 0x1 PUSH1 0x1 PUSH1 0xA0 SHL SUB NOT AND PUSH1 0x1 PUSH1 0x1 PUSH1 0xA0 SHL SUB SWAP3 SWAP1 SWAP3 AND SWAP2 SWAP1 SWAP2 OR SWAP1 SSTORE JUMP JUMPDEST PUSH2 0x1D87 DUP4 PUSH2 0x1E9B JUMP JUMPDEST PUSH1 0x0 DUP3 MLOAD GT DUP1 PUSH2 0x1D94 JUMPI POP DUP1 JUMPDEST ISZERO PUSH2 0x6E3 JUMPI PUSH2 0x1DA3 DUP4 DUP4 PUSH2 0x1EDB JUMP JUMPDEST POP POP POP POP JUMP JUMPDEST PUSH1 0x33 SLOAD PUSH1 0xFF AND PUSH2 0x8C3 JUMPI PUSH1 0x40 MLOAD PUSH3 0x461BCD PUSH1 0xE5 SHL DUP2 MSTORE PUSH1 0x20 PUSH1 0x4 DUP3 ADD MSTORE PUSH1 0x14 PUSH1 0x24 DUP3 ADD MSTORE PUSH20 0x14185D5CD8589B194E881B9BDD081C185D5CD959 PUSH1 0x62 SHL PUSH1 0x44 DUP3 ADD MSTORE PUSH1 0x64 ADD PUSH2 0x61B JUMP JUMPDEST PUSH1 0x0 SLOAD PUSH2 0x100 SWAP1 DIV PUSH1 0xFF AND PUSH2 0x1E19 JUMPI PUSH1 0x40 MLOAD PUSH3 0x461BCD PUSH1 0xE5 SHL DUP2 MSTORE PUSH1 0x4 ADD PUSH2 0x61B SWAP1 PUSH2 0x29E4 JUMP JUMPDEST PUSH1 0x33 DUP1 SLOAD PUSH1 0xFF NOT AND SWAP1 SSTORE JUMP JUMPDEST PUSH1 0x0 SLOAD PUSH2 0x100 SWAP1 DIV PUSH1 0xFF AND PUSH2 0x1E4C JUMPI PUSH1 0x40 MLOAD PUSH3 0x461BCD PUSH1 0xE5 SHL DUP2 MSTORE PUSH1 0x4 ADD PUSH2 0x61B SWAP1 PUSH2 0x29E4 JUMP JUMPDEST PUSH2 0x8C3 CALLER PUSH2 0x1ACD JUMP JUMPDEST PUSH1 0x33 SLOAD PUSH1 0xFF AND ISZERO PUSH2 0x8C3 JUMPI PUSH1 0x40 MLOAD PUSH3 0x461BCD PUSH1 0xE5 SHL DUP2 MSTORE PUSH1 0x20 PUSH1 0x4 DUP3 ADD MSTORE PUSH1 0x10 PUSH1 0x24 DUP3 ADD MSTORE PUSH16 0x14185D5CD8589B194E881C185D5CD959 PUSH1 0x82 SHL PUSH1 0x44 DUP3 ADD MSTORE PUSH1 0x64 ADD PUSH2 0x61B JUMP JUMPDEST PUSH2 0x1EA4 DUP2 PUSH2 0x1CE2 JUMP JUMPDEST PUSH1 0x40 MLOAD PUSH1 0x1 PUSH1 0x1 PUSH1 0xA0 SHL SUB DUP3 AND SWAP1 PUSH32 0xBC7CD75A20EE27FD9ADEBAB32041F755214DBC6BFFA90CC0225B39DA2E5C2D3B SWAP1 PUSH1 0x0 SWAP1 LOG2 POP JUMP JUMPDEST PUSH1 0x60 PUSH1 0x1 PUSH1 0x1 PUSH1 0xA0 SHL SUB DUP4 AND EXTCODESIZE PUSH2 0x1F43 JUMPI PUSH1 0x40 MLOAD PUSH3 0x461BCD PUSH1 0xE5 SHL DUP2 MSTORE PUSH1 0x20 PUSH1 0x4 DUP3 ADD MSTORE PUSH1 0x26 PUSH1 0x24 DUP3 ADD MSTORE PUSH32 0x416464726573733A2064656C65676174652063616C6C20746F206E6F6E2D636F PUSH1 0x44 DUP3 ADD MSTORE PUSH6 0x1B9D1C9858DD PUSH1 0xD2 SHL PUSH1 0x64 DUP3 ADD MSTORE PUSH1 0x84 ADD PUSH2 0x61B JUMP JUMPDEST PUSH1 0x0 DUP1 DUP5 PUSH1 0x1 PUSH1 0x1 PUSH1 0xA0 SHL SUB AND DUP5 PUSH1 0x40 MLOAD PUSH2 0x1F5E SWAP2 SWAP1 PUSH2 0x2A42 JUMP JUMPDEST PUSH1 0x0 PUSH1 0x40 MLOAD DUP1 DUP4 SUB DUP2 DUP6 GAS DELEGATECALL SWAP2 POP POP RETURNDATASIZE DUP1 PUSH1 0x0 DUP2 EQ PUSH2 0x1F99 JUMPI PUSH1 0x40 MLOAD SWAP2 POP PUSH1 0x1F NOT PUSH1 0x3F RETURNDATASIZE ADD AND DUP3 ADD PUSH1 0x40 MSTORE RETURNDATASIZE DUP3 MSTORE RETURNDATASIZE PUSH1 0x0 PUSH1 0x20 DUP5 ADD RETURNDATACOPY PUSH2 0x1F9E JUMP JUMPDEST PUSH1 0x60 SWAP2 POP JUMPDEST POP SWAP2 POP SWAP2 POP PUSH2 0x1FC6 DUP3 DUP3 PUSH1 0x40 MLOAD DUP1 PUSH1 0x60 ADD PUSH1 0x40 MSTORE DUP1 PUSH1 0x27 DUP2 MSTORE PUSH1 0x20 ADD PUSH2 0x2A92 PUSH1 0x27 SWAP2 CODECOPY PUSH2 0x1FD1 JUMP JUMPDEST SWAP3 POP POP POP JUMPDEST SWAP3 SWAP2 POP POP JUMP JUMPDEST PUSH1 0x60 DUP4 ISZERO PUSH2 0x1FE0 JUMPI POP DUP2 PUSH2 0x1FEA JUMP JUMPDEST PUSH2 0x1FEA DUP4 DUP4 PUSH2 0x1FF1 JUMP JUMPDEST SWAP4 SWAP3 POP POP POP JUMP JUMPDEST DUP2 MLOAD ISZERO PUSH2 0x2001 JUMPI DUP2 MLOAD DUP1 DUP4 PUSH1 0x20 ADD REVERT JUMPDEST DUP1 PUSH1 0x40 MLOAD PUSH3 0x461BCD PUSH1 0xE5 SHL DUP2 MSTORE PUSH1 0x4 ADD PUSH2 0x61B SWAP2 SWAP1 PUSH2 0x2A5E JUMP JUMPDEST PUSH1 0x1 PUSH1 0x1 PUSH1 0xA0 SHL SUB DUP2 AND DUP2 EQ PUSH2 0x8A3 JUMPI PUSH1 0x0 DUP1 REVERT JUMPDEST PUSH1 0x0 PUSH1 0x20 DUP3 DUP5 SUB SLT ISZERO PUSH2 0x2042 JUMPI PUSH1 0x0 DUP1 REVERT JUMPDEST DUP2 CALLDATALOAD PUSH2 0x1FEA DUP2 PUSH2 0x201B JUMP JUMPDEST PUSH1 0x0 DUP1 PUSH1 0x40 DUP4 DUP6 SUB SLT ISZERO PUSH2 0x2060 JUMPI PUSH1 0x0 DUP1 REVERT JUMPDEST DUP3 CALLDATALOAD PUSH2 0x206B DUP2 PUSH2 0x201B JUMP JUMPDEST SWAP5 PUSH1 0x20 SWAP4 SWAP1 SWAP4 ADD CALLDATALOAD SWAP4 POP POP POP JUMP JUMPDEST DUP1 CALLDATALOAD PUSH1 0xFF DUP2 AND DUP2 EQ PUSH2 0x208A JUMPI PUSH1 0x0 DUP1 REVERT JUMPDEST SWAP2 SWAP1 POP JUMP JUMPDEST DUP1 CALLDATALOAD PUSH2 0xFFFF DUP2 AND DUP2 EQ PUSH2 0x208A JUMPI PUSH1 0x0 DUP1 REVERT JUMPDEST PUSH1 0x0 DUP1 PUSH1 0x0 PUSH1 0x60 DUP5 DUP7 SUB SLT ISZERO PUSH2 0x20B6 JUMPI PUSH1 0x0 DUP1 REVERT JUMPDEST PUSH2 0x20BF DUP5 PUSH2 0x2079 JUMP JUMPDEST SWAP3 POP PUSH2 0x20CD PUSH1 0x20 DUP6 ADD PUSH2 0x208F JUMP JUMPDEST SWAP2 POP PUSH2 0x20DB PUSH1 0x40 DUP6 ADD PUSH2 0x208F JUMP JUMPDEST SWAP1 POP SWAP3 POP SWAP3 POP SWAP3 JUMP JUMPDEST PUSH1 0x0 DUP2 MLOAD DUP1 DUP5 MSTORE PUSH1 0x20 DUP1 DUP6 ADD SWAP5 POP DUP1 DUP5 ADD PUSH1 0x0 JUMPDEST DUP4 DUP2 LT ISZERO PUSH2 0x211D JUMPI DUP2 MLOAD PUSH1 0x1 PUSH1 0x1 PUSH1 0xA0 SHL SUB AND DUP8 MSTORE SWAP6 DUP3 ADD SWAP6 SWAP1 DUP3 ADD SWAP1 PUSH1 0x1 ADD PUSH2 0x20F8 JUMP JUMPDEST POP SWAP5 SWAP6 SWAP5 POP POP POP POP POP JUMP JUMPDEST PUSH1 0x40 DUP2 MSTORE PUSH1 0x0 PUSH2 0x213B PUSH1 0x40 DUP4 ADD DUP6 PUSH2 0x20E4 JUMP JUMPDEST SWAP1 POP PUSH2 0xFFFF DUP4 AND PUSH1 0x20 DUP4 ADD MSTORE SWAP4 SWAP3 POP POP POP JUMP JUMPDEST PUSH1 0x0 PUSH1 0x20 DUP3 DUP5 SUB SLT ISZERO PUSH2 0x2160 JUMPI PUSH1 0x0 DUP1 REVERT JUMPDEST POP CALLDATALOAD SWAP2 SWAP1 POP JUMP JUMPDEST PUSH4 0x4E487B71 PUSH1 0xE0 SHL PUSH1 0x0 MSTORE PUSH1 0x41 PUSH1 0x4 MSTORE PUSH1 0x24 PUSH1 0x0 REVERT JUMPDEST PUSH1 0x40 MLOAD PUSH2 0x160 DUP2 ADD PUSH8 0xFFFFFFFFFFFFFFFF DUP2 GT DUP3 DUP3 LT OR ISZERO PUSH2 0x21A1 JUMPI PUSH2 0x21A1 PUSH2 0x2167 JUMP JUMPDEST PUSH1 0x40 MSTORE SWAP1 JUMP JUMPDEST PUSH1 0x40 MLOAD PUSH1 0x1F DUP3 ADD PUSH1 0x1F NOT AND DUP2 ADD PUSH8 0xFFFFFFFFFFFFFFFF DUP2 GT DUP3 DUP3 LT OR ISZERO PUSH2 0x21D0 JUMPI PUSH2 0x21D0 PUSH2 0x2167 JUMP JUMPDEST PUSH1 0x40 MSTORE SWAP2 SWAP1 POP JUMP JUMPDEST PUSH1 0x0 PUSH8 0xFFFFFFFFFFFFFFFF DUP4 GT ISZERO PUSH2 0x21F2 JUMPI PUSH2 0x21F2 PUSH2 0x2167 JUMP JUMPDEST PUSH2 0x2205 PUSH1 0x1F DUP5 ADD PUSH1 0x1F NOT AND PUSH1 0x20 ADD PUSH2 0x21A7 JUMP JUMPDEST SWAP1 POP DUP3 DUP2 MSTORE DUP4 DUP4 DUP4 ADD GT ISZERO PUSH2 0x2219 JUMPI PUSH1 0x0 DUP1 REVERT JUMPDEST DUP3 DUP3 PUSH1 0x20 DUP4 ADD CALLDATACOPY PUSH1 0x0 PUSH1 0x20 DUP5 DUP4 ADD ADD MSTORE SWAP4 SWAP3 POP POP POP JUMP JUMPDEST PUSH1 0x0 DUP1 PUSH1 0x40 DUP4 DUP6 SUB SLT ISZERO PUSH2 0x2243 JUMPI PUSH1 0x0 DUP1 REVERT JUMPDEST DUP3 CALLDATALOAD PUSH2 0x224E DUP2 PUSH2 0x201B JUMP JUMPDEST SWAP2 POP PUSH1 0x20 DUP4 ADD CALLDATALOAD PUSH8 0xFFFFFFFFFFFFFFFF DUP2 GT ISZERO PUSH2 0x226A JUMPI PUSH1 0x0 DUP1 REVERT JUMPDEST DUP4 ADD PUSH1 0x1F DUP2 ADD DUP6 SGT PUSH2 0x227B JUMPI PUSH1 0x0 DUP1 REVERT JUMPDEST PUSH2 0x228A DUP6 DUP3 CALLDATALOAD PUSH1 0x20 DUP5 ADD PUSH2 0x21D8 JUMP JUMPDEST SWAP2 POP POP SWAP3 POP SWAP3 SWAP1 POP JUMP JUMPDEST PUSH1 0x0 DUP1 PUSH1 0x0 DUP1 PUSH1 0x0 DUP1 PUSH1 0x0 DUP1 PUSH2 0x100 DUP10 DUP12 SUB SLT ISZERO PUSH2 0x22B1 JUMPI PUSH1 0x0 DUP1 REVERT JUMPDEST PUSH2 0x22BA DUP10 PUSH2 0x2079 JUMP JUMPDEST SWAP8 POP PUSH1 0x20 DUP10 ADD CALLDATALOAD SWAP7 POP PUSH1 0x40 DUP10 ADD CALLDATALOAD SWAP6 POP PUSH1 0x60 DUP10 ADD CALLDATALOAD SWAP5 POP PUSH1 0x80 DUP10 ADD CALLDATALOAD PUSH8 0xFFFFFFFFFFFFFFFF DUP2 GT ISZERO PUSH2 0x22EB JUMPI PUSH1 0x0 DUP1 REVERT JUMPDEST DUP10 ADD PUSH1 0x1F DUP2 ADD DUP12 SGT PUSH2 0x22FC JUMPI PUSH1 0x0 DUP1 REVERT JUMPDEST PUSH2 0x230B DUP12 DUP3 CALLDATALOAD PUSH1 0x20 DUP5 ADD PUSH2 0x21D8 JUMP JUMPDEST SWAP9 SWAP12 SWAP8 SWAP11 POP SWAP6 SWAP9 SWAP5 SWAP8 SWAP7 PUSH1 0xA0 DUP7 ADD CALLDATALOAD SWAP7 POP PUSH1 0xC0 DUP7 ADD CALLDATALOAD SWAP6 PUSH1 0xE0 ADD CALLDATALOAD SWAP5 POP SWAP3 POP POP POP JUMP JUMPDEST DUP1 ISZERO ISZERO DUP2 EQ PUSH2 0x8A3 JUMPI PUSH1 0x0 DUP1 REVERT JUMPDEST PUSH1 0x0 PUSH1 0x20 DUP3 DUP5 SUB SLT ISZERO PUSH2 0x234E JUMPI PUSH1 0x0 DUP1 REVERT JUMPDEST DUP2 CALLDATALOAD PUSH2 0x1FEA DUP2 PUSH2 0x232E JUMP JUMPDEST PUSH1 0x0 PUSH1 0x20 DUP3 DUP5 SUB SLT ISZERO PUSH2 0x236B JUMPI PUSH1 0x0 DUP1 REVERT JUMPDEST PUSH2 0x1FEA DUP3 PUSH2 0x2079 JUMP JUMPDEST PUSH1 0x0 JUMPDEST DUP4 DUP2 LT ISZERO PUSH2 0x238F JUMPI DUP2 DUP2 ADD MLOAD DUP4 DUP3 ADD MSTORE PUSH1 0x20 ADD PUSH2 0x2377 JUMP JUMPDEST POP POP PUSH1 0x0 SWAP2 ADD MSTORE JUMP JUMPDEST PUSH1 0x0 DUP2 MLOAD DUP1 DUP5 MSTORE PUSH2 0x23B0 DUP2 PUSH1 0x20 DUP7 ADD PUSH1 0x20 DUP7 ADD PUSH2 0x2374 JUMP JUMPDEST PUSH1 0x1F ADD PUSH1 0x1F NOT AND SWAP3 SWAP1 SWAP3 ADD PUSH1 0x20 ADD SWAP3 SWAP2 POP POP JUMP JUMPDEST PUSH1 0x20 DUP2 MSTORE PUSH1 0xFF DUP3 MLOAD AND PUSH1 0x20 DUP3 ADD MSTORE PUSH1 0x20 DUP3 ADD MLOAD PUSH1 0x40 DUP3 ADD MSTORE PUSH1 0x40 DUP3 ADD MLOAD PUSH1 0x60 DUP3 ADD MSTORE PUSH1 0x60 DUP3 ADD MLOAD PUSH1 0x80 DUP3 ADD MSTORE PUSH1 0x0 PUSH1 0x80 DUP4 ADD MLOAD PUSH2 0x100 DUP1 PUSH1 0xA0 DUP6 ADD MSTORE PUSH2 0x240E PUSH2 0x120 DUP6 ADD DUP4 PUSH2 0x2398 JUMP JUMPDEST SWAP2 POP PUSH1 0xA0 DUP6 ADD MLOAD PUSH1 0xC0 DUP6 ADD MSTORE PUSH1 0xC0 DUP6 ADD MLOAD PUSH1 0xE0 DUP6 ADD MSTORE PUSH1 0xE0 DUP6 ADD MLOAD DUP2 DUP6 ADD MSTORE POP DUP1 SWAP2 POP POP SWAP3 SWAP2 POP POP JUMP JUMPDEST PUSH1 0x40 DUP2 MSTORE PUSH1 0x0 PUSH2 0x244B PUSH1 0x40 DUP4 ADD DUP6 PUSH2 0x20E4 JUMP JUMPDEST SWAP1 POP DUP3 PUSH1 0x20 DUP4 ADD MSTORE SWAP4 SWAP3 POP POP POP JUMP JUMPDEST DUP1 MLOAD PUSH2 0x208A DUP2 PUSH2 0x232E JUMP JUMPDEST PUSH1 0x0 PUSH1 0x20 DUP3 DUP5 SUB SLT ISZERO PUSH2 0x2477 JUMPI PUSH1 0x0 DUP1 REVERT JUMPDEST DUP2 MLOAD PUSH2 0x1FEA DUP2 PUSH2 0x232E JUMP JUMPDEST PUSH1 0x20 DUP1 DUP3 MSTORE PUSH1 0x11 SWAP1 DUP3 ADD MSTORE PUSH17 0x2CB7BA9030B932903737BA1030B236B4B7 PUSH1 0x79 SHL PUSH1 0x40 DUP3 ADD MSTORE PUSH1 0x60 ADD SWAP1 JUMP JUMPDEST PUSH4 0x4E487B71 PUSH1 0xE0 SHL PUSH1 0x0 MSTORE PUSH1 0x11 PUSH1 0x4 MSTORE PUSH1 0x24 PUSH1 0x0 REVERT JUMPDEST DUP1 DUP3 ADD DUP1 DUP3 GT ISZERO PUSH2 0x1FCB JUMPI PUSH2 0x1FCB PUSH2 0x24AD JUMP JUMPDEST PUSH4 0x4E487B71 PUSH1 0xE0 SHL PUSH1 0x0 MSTORE PUSH1 0x32 PUSH1 0x4 MSTORE PUSH1 0x24 PUSH1 0x0 REVERT JUMPDEST PUSH1 0x0 PUSH2 0xFFFF DUP1 DUP4 AND DUP2 DUP2 SUB PUSH2 0x2503 JUMPI PUSH2 0x2503 PUSH2 0x24AD JUMP JUMPDEST PUSH1 0x1 ADD SWAP4 SWAP3 POP POP POP JUMP JUMPDEST PUSH1 0x20 DUP1 DUP3 MSTORE PUSH1 0x2C SWAP1 DUP3 ADD MSTORE PUSH32 0x46756E6374696F6E206D7573742062652063616C6C6564207468726F75676820 PUSH1 0x40 DUP3 ADD MSTORE PUSH12 0x19195B1959D85D1958D85B1B PUSH1 0xA2 SHL PUSH1 0x60 DUP3 ADD MSTORE PUSH1 0x80 ADD SWAP1 JUMP JUMPDEST PUSH1 0x20 DUP1 DUP3 MSTORE PUSH1 0x2C SWAP1 DUP3 ADD MSTORE PUSH32 0x46756E6374696F6E206D7573742062652063616C6C6564207468726F75676820 PUSH1 0x40 DUP3 ADD MSTORE PUSH12 0x6163746976652070726F7879 PUSH1 0xA0 SHL PUSH1 0x60 DUP3 ADD MSTORE PUSH1 0x80 ADD SWAP1 JUMP JUMPDEST PUSH1 0x1 DUP2 DUP2 SHR SWAP1 DUP3 AND DUP1 PUSH2 0x25B9 JUMPI PUSH1 0x7F DUP3 AND SWAP2 POP JUMPDEST PUSH1 0x20 DUP3 LT DUP2 SUB PUSH2 0x25D9 JUMPI PUSH4 0x4E487B71 PUSH1 0xE0 SHL PUSH1 0x0 MSTORE PUSH1 0x22 PUSH1 0x4 MSTORE PUSH1 0x24 PUSH1 0x0 REVERT JUMPDEST POP SWAP2 SWAP1 POP JUMP JUMPDEST PUSH1 0x1F DUP3 GT ISZERO PUSH2 0x6E3 JUMPI PUSH1 0x0 DUP2 DUP2 MSTORE PUSH1 0x20 DUP2 KECCAK256 PUSH1 0x1F DUP6 ADD PUSH1 0x5 SHR DUP2 ADD PUSH1 0x20 DUP7 LT ISZERO PUSH2 0x2606 JUMPI POP DUP1 JUMPDEST PUSH1 0x1F DUP6 ADD PUSH1 0x5 SHR DUP3 ADD SWAP2 POP JUMPDEST DUP2 DUP2 LT ISZERO PUSH2 0x2625 JUMPI DUP3 DUP2 SSTORE PUSH1 0x1 ADD PUSH2 0x2612 JUMP JUMPDEST POP POP POP POP POP POP JUMP JUMPDEST DUP2 MLOAD PUSH8 0xFFFFFFFFFFFFFFFF DUP2 GT ISZERO PUSH2 0x2647 JUMPI PUSH2 0x2647 PUSH2 0x2167 JUMP JUMPDEST PUSH2 0x265B DUP2 PUSH2 0x2655 DUP5 SLOAD PUSH2 0x25A5 JUMP JUMPDEST DUP5 PUSH2 0x25DF JUMP JUMPDEST PUSH1 0x20 DUP1 PUSH1 0x1F DUP4 GT PUSH1 0x1 DUP2 EQ PUSH2 0x2690 JUMPI PUSH1 0x0 DUP5 ISZERO PUSH2 0x2678 JUMPI POP DUP6 DUP4 ADD MLOAD JUMPDEST PUSH1 0x0 NOT PUSH1 0x3 DUP7 SWAP1 SHL SHR NOT AND PUSH1 0x1 DUP6 SWAP1 SHL OR DUP6 SSTORE PUSH2 0x2625 JUMP JUMPDEST PUSH1 0x0 DUP6 DUP2 MSTORE PUSH1 0x20 DUP2 KECCAK256 PUSH1 0x1F NOT DUP7 AND SWAP2 JUMPDEST DUP3 DUP2 LT ISZERO PUSH2 0x26BF JUMPI DUP9 DUP7 ADD MLOAD DUP3 SSTORE SWAP5 DUP5 ADD SWAP5 PUSH1 0x1 SWAP1 SWAP2 ADD SWAP1 DUP5 ADD PUSH2 0x26A0 JUMP JUMPDEST POP DUP6 DUP3 LT ISZERO PUSH2 0x26DD JUMPI DUP8 DUP6 ADD MLOAD PUSH1 0x0 NOT PUSH1 0x3 DUP9 SWAP1 SHL PUSH1 0xF8 AND SHR NOT AND DUP2 SSTORE JUMPDEST POP POP POP POP POP PUSH1 0x1 SWAP1 DUP2 SHL ADD SWAP1 SSTORE POP JUMP JUMPDEST DUP1 MLOAD PUSH2 0x208A DUP2 PUSH2 0x201B JUMP JUMPDEST PUSH1 0x0 PUSH1 0x20 DUP3 DUP5 SUB SLT ISZERO PUSH2 0x270A JUMPI PUSH1 0x0 DUP1 REVERT JUMPDEST DUP2 MLOAD PUSH2 0x1FEA DUP2 PUSH2 0x201B JUMP JUMPDEST PUSH1 0x0 PUSH8 0xFFFFFFFFFFFFFFFF DUP3 GT ISZERO PUSH2 0x272F JUMPI PUSH2 0x272F PUSH2 0x2167 JUMP JUMPDEST POP PUSH1 0x5 SHL PUSH1 0x20 ADD SWAP1 JUMP JUMPDEST PUSH1 0x0 DUP3 PUSH1 0x1F DUP4 ADD SLT PUSH2 0x274A JUMPI PUSH1 0x0 DUP1 REVERT JUMPDEST DUP2 MLOAD PUSH1 0x20 PUSH2 0x275F PUSH2 0x275A DUP4 PUSH2 0x2715 JUMP JUMPDEST PUSH2 0x21A7 JUMP JUMPDEST DUP3 DUP2 MSTORE PUSH1 0x5 SWAP3 SWAP1 SWAP3 SHL DUP5 ADD DUP2 ADD SWAP2 DUP2 DUP2 ADD SWAP1 DUP7 DUP5 GT ISZERO PUSH2 0x277E JUMPI PUSH1 0x0 DUP1 REVERT JUMPDEST DUP3 DUP7 ADD JUMPDEST DUP5 DUP2 LT ISZERO PUSH2 0x27A2 JUMPI DUP1 MLOAD PUSH2 0x2795 DUP2 PUSH2 0x201B JUMP JUMPDEST DUP4 MSTORE SWAP2 DUP4 ADD SWAP2 DUP4 ADD PUSH2 0x2782 JUMP JUMPDEST POP SWAP7 SWAP6 POP POP POP POP POP POP JUMP JUMPDEST PUSH1 0x0 DUP3 PUSH1 0x1F DUP4 ADD SLT PUSH2 0x27BE JUMPI PUSH1 0x0 DUP1 REVERT JUMPDEST DUP2 MLOAD PUSH1 0x20 PUSH2 0x27CE PUSH2 0x275A DUP4 PUSH2 0x2715 JUMP JUMPDEST DUP3 DUP2 MSTORE PUSH1 0x5 SWAP3 SWAP1 SWAP3 SHL DUP5 ADD DUP2 ADD SWAP2 DUP2 DUP2 ADD SWAP1 DUP7 DUP5 GT ISZERO PUSH2 0x27ED JUMPI PUSH1 0x0 DUP1 REVERT JUMPDEST DUP3 DUP7 ADD JUMPDEST DUP5 DUP2 LT ISZERO PUSH2 0x27A2 JUMPI DUP1 MLOAD DUP4 MSTORE SWAP2 DUP4 ADD SWAP2 DUP4 ADD PUSH2 0x27F1 JUMP JUMPDEST PUSH1 0x0 PUSH1 0x20 DUP3 DUP5 SUB SLT ISZERO PUSH2 0x281A JUMPI PUSH1 0x0 DUP1 REVERT JUMPDEST DUP2 MLOAD PUSH8 0xFFFFFFFFFFFFFFFF DUP1 DUP3 GT ISZERO PUSH2 0x2832 JUMPI PUSH1 0x0 DUP1 REVERT JUMPDEST SWAP1 DUP4 ADD SWAP1 PUSH2 0x160 DUP3 DUP7 SUB SLT ISZERO PUSH2 0x2847 JUMPI PUSH1 0x0 DUP1 REVERT JUMPDEST PUSH2 0x284F PUSH2 0x217D JUMP JUMPDEST PUSH2 0x2858 DUP4 PUSH2 0x26ED JUMP JUMPDEST DUP2 MSTORE PUSH1 0x20 DUP4 ADD MLOAD DUP3 DUP2 GT ISZERO PUSH2 0x286C JUMPI PUSH1 0x0 DUP1 REVERT JUMPDEST PUSH2 0x2878 DUP8 DUP3 DUP7 ADD PUSH2 0x2739 JUMP JUMPDEST PUSH1 0x20 DUP4 ADD MSTORE POP PUSH1 0x40 DUP4 ADD MLOAD DUP3 DUP2 GT ISZERO PUSH2 0x2890 JUMPI PUSH1 0x0 DUP1 REVERT JUMPDEST PUSH2 0x289C DUP8 DUP3 DUP7 ADD PUSH2 0x2739 JUMP JUMPDEST PUSH1 0x40 DUP4 ADD MSTORE POP PUSH1 0x60 DUP4 ADD MLOAD DUP3 DUP2 GT ISZERO PUSH2 0x28B4 JUMPI PUSH1 0x0 DUP1 REVERT JUMPDEST PUSH2 0x28C0 DUP8 DUP3 DUP7 ADD PUSH2 0x27AD JUMP JUMPDEST PUSH1 0x60 DUP4 ADD MSTORE POP PUSH1 0x80 DUP4 ADD MLOAD PUSH1 0x80 DUP3 ADD MSTORE PUSH1 0xA0 DUP4 ADD MLOAD PUSH1 0xA0 DUP3 ADD MSTORE PUSH1 0xC0 DUP4 ADD MLOAD PUSH1 0xC0 DUP3 ADD MSTORE PUSH1 0xE0 DUP4 ADD MLOAD DUP3 DUP2 GT ISZERO PUSH2 0x28F6 JUMPI PUSH1 0x0 DUP1 REVERT JUMPDEST PUSH2 0x2902 DUP8 DUP3 DUP7 ADD PUSH2 0x27AD JUMP JUMPDEST PUSH1 0xE0 DUP4 ADD MSTORE POP PUSH2 0x100 DUP1 DUP5 ADD MLOAD DUP4 DUP2 GT ISZERO PUSH2 0x291C JUMPI PUSH1 0x0 DUP1 REVERT JUMPDEST PUSH2 0x2928 DUP9 DUP3 DUP8 ADD PUSH2 0x27AD JUMP JUMPDEST DUP3 DUP5 ADD MSTORE POP POP PUSH2 0x120 DUP1 DUP5 ADD MLOAD DUP4 DUP2 GT ISZERO PUSH2 0x2942 JUMPI PUSH1 0x0 DUP1 REVERT JUMPDEST PUSH2 0x294E DUP9 DUP3 DUP8 ADD PUSH2 0x27AD JUMP JUMPDEST DUP3 DUP5 ADD MSTORE POP POP PUSH2 0x140 SWAP2 POP PUSH2 0x2964 DUP3 DUP5 ADD PUSH2 0x245A JUMP JUMPDEST SWAP2 DUP2 ADD SWAP2 SWAP1 SWAP2 MSTORE SWAP5 SWAP4 POP POP POP POP JUMP JUMPDEST PUSH1 0x0 PUSH1 0xFF DUP3 AND PUSH1 0xFF DUP2 SUB PUSH2 0x2989 JUMPI PUSH2 0x2989 PUSH2 0x24AD JUMP JUMPDEST PUSH1 0x1 ADD SWAP3 SWAP2 POP POP JUMP JUMPDEST DUP1 DUP3 MUL DUP2 ISZERO DUP3 DUP3 DIV DUP5 EQ OR PUSH2 0x1FCB JUMPI PUSH2 0x1FCB PUSH2 0x24AD JUMP JUMPDEST PUSH2 0xFFFF DUP3 DUP2 AND DUP3 DUP3 AND SUB SWAP1 DUP1 DUP3 GT ISZERO PUSH2 0x29C4 JUMPI PUSH2 0x29C4 PUSH2 0x24AD JUMP JUMPDEST POP SWAP3 SWAP2 POP POP JUMP JUMPDEST PUSH1 0x0 PUSH1 0x20 DUP3 DUP5 SUB SLT ISZERO PUSH2 0x29DD JUMPI PUSH1 0x0 DUP1 REVERT JUMPDEST POP MLOAD SWAP2 SWAP1 POP JUMP JUMPDEST PUSH1 0x20 DUP1 DUP3 MSTORE PUSH1 0x2B SWAP1 DUP3 ADD MSTORE PUSH32 0x496E697469616C697A61626C653A20636F6E7472616374206973206E6F742069 PUSH1 0x40 DUP3 ADD MSTORE PUSH11 0x6E697469616C697A696E67 PUSH1 0xA8 SHL PUSH1 0x60 DUP3 ADD MSTORE PUSH1 0x80 ADD SWAP1 JUMP JUMPDEST DUP2 DUP2 SUB DUP2 DUP2 GT ISZERO PUSH2 0x1FCB JUMPI PUSH2 0x1FCB PUSH2 0x24AD JUMP JUMPDEST PUSH1 0x0 DUP3 MLOAD PUSH2 0x2A54 DUP2 DUP5 PUSH1 0x20 DUP8 ADD PUSH2 0x2374 JUMP JUMPDEST SWAP2 SWAP1 SWAP2 ADD SWAP3 SWAP2 POP POP JUMP JUMPDEST PUSH1 0x20 DUP2 MSTORE PUSH1 0x0 PUSH2 0x1FEA PUSH1 0x20 DUP4 ADD DUP5 PUSH2 0x2398 JUMP INVALID CALLDATASIZE ADDMOD SWAP5 LOG1 EXTCODESIZE LOG1 LOG3 0x21 MOD PUSH8 0xC828492DB98DCA3E KECCAK256 PUSH23 0xCC3735A920A3CA505D382BBC416464726573733A206C6F PUSH24 0x2D6C6576656C2064656C65676174652063616C6C20666169 PUSH13 0x6564A264697066735822122088 0xB4 GASLIMIT LOG4 STOP MSTORE8 PUSH19 0x418A233361664AAAC1BA8DE5DEF5DCC2F288C9 SWAP10 ADDMOD LOG2 0x2F DUP2 SHR PUSH5 0x736F6C6343 STOP ADDMOD GT STOP CALLER "},"methodIdentifiers":{"getDefaults()":"b172ed4d","getRewardQualifiedUsersList(uint8,uint16,uint16)":"33b153e3","getRewardsByID(uint8)":"baa7e7c5","getRewardsIDsCount()":"fe9f2035","getUserAccount(address)":"fb47e016","getUserBusiness(address)":"f87127b4","getUserRewardQualified(address)":"e5ffb5df","getUsersList()":"c74e13f3","initialize()":"8129fc1c","owner()":"8da5cb5b","pause()":"8456cb59","paused()":"5c975abb","proxiableUUID()":"52d1902d","renounceOwnership()":"715018a6","setDuration(uint256)":"f6be71d1","setIsPayMonthlyRewards(bool)":"7b9accaf","setMonthlyRewards(uint8,uint256,uint256,uint256,string,uint256,uint256,uint256)":"5ee9964f","setStartTime(uint256)":"3e0a322d","setVariablesContract(address)":"0ba0dba3","transferOwnership(address)":"f2fde38b","unpause()":"3f4ba83a","updateDirectBusiness(address,uint256)":"169529b9","updateSelfBusiness(address,uint256)":"a9415f5d","updateTeamBusiness(address,uint256)":"f5a283ce","upgradeTo(address)":"3659cfe6","upgradeToAndCall(address,bytes)":"4f1ef286"}},"storageLayout":{"storage":[{"astId":527,"contract":"contracts/MonthlyRewards.sol:MonthlyRewardsUpgradeable","label":"_initialized","offset":0,"slot":"0","type":"t_uint8"},{"astId":530,"contract":"contracts/MonthlyRewards.sol:MonthlyRewardsUpgradeable","label":"_initializing","offset":1,"slot":"0","type":"t_bool"},{"astId":1355,"contract":"contracts/MonthlyRewards.sol:MonthlyRewardsUpgradeable","label":"__gap","offset":0,"slot":"1","type":"t_array(t_uint256)50_storage"},{"astId":846,"contract":"contracts/MonthlyRewards.sol:MonthlyRewardsUpgradeable","label":"_paused","offset":0,"slot":"51","type":"t_bool"},{"astId":951,"contract":"contracts/MonthlyRewards.sol:MonthlyRewardsUpgradeable","label":"__gap","offset":0,"slot":"52","type":"t_array(t_uint256)49_storage"},{"astId":10,"contract":"contracts/MonthlyRewards.sol:MonthlyRewardsUpgradeable","label":"_owner","offset":0,"slot":"101","type":"t_address"},{"astId":130,"contract":"contracts/MonthlyRewards.sol:MonthlyRewardsUpgradeable","label":"__gap","offset":0,"slot":"102","type":"t_array(t_uint256)49_storage"},{"astId":509,"contract":"contracts/MonthlyRewards.sol:MonthlyRewardsUpgradeable","label":"__gap","offset":0,"slot":"151","type":"t_array(t_uint256)50_storage"},{"astId":824,"contract":"contracts/MonthlyRewards.sol:MonthlyRewardsUpgradeable","label":"__gap","offset":0,"slot":"201","type":"t_array(t_uint256)50_storage"},{"astId":1565,"contract":"contracts/MonthlyRewards.sol:MonthlyRewardsUpgradeable","label":"_startDate","offset":0,"slot":"251","type":"t_uint256"},{"astId":1567,"contract":"contracts/MonthlyRewards.sol:MonthlyRewardsUpgradeable","label":"_duration","offset":0,"slot":"252","type":"t_uint256"},{"astId":1569,"contract":"contracts/MonthlyRewards.sol:MonthlyRewardsUpgradeable","label":"_variablesContract","offset":0,"slot":"253","type":"t_address"},{"astId":1572,"contract":"contracts/MonthlyRewards.sol:MonthlyRewardsUpgradeable","label":"_users","offset":0,"slot":"254","type":"t_array(t_address)dyn_storage"},{"astId":1574,"contract":"contracts/MonthlyRewards.sol:MonthlyRewardsUpgradeable","label":"_isPayRewards","offset":0,"slot":"255","type":"t_bool"},{"astId":1579,"contract":"contracts/MonthlyRewards.sol:MonthlyRewardsUpgradeable","label":"_monthlyRewards","offset":0,"slot":"256","type":"t_mapping(t_uint8,t_struct(StructMonthlyRewards)1555_storage)"},{"astId":1584,"contract":"contracts/MonthlyRewards.sol:MonthlyRewardsUpgradeable","label":"_accounts","offset":0,"slot":"257","type":"t_mapping(t_address,t_struct(StructAccountRewards)1538_storage)"}],"types":{"t_address":{"encoding":"inplace","label":"address","numberOfBytes":"20"},"t_array(t_address)dyn_storage":{"base":"t_address","encoding":"dynamic_array","label":"address[]","numberOfBytes":"32"},"t_array(t_uint256)49_storage":{"base":"t_uint256","encoding":"inplace","label":"uint256[49]","numberOfBytes":"1568"},"t_array(t_uint256)50_storage":{"base":"t_uint256","encoding":"inplace","label":"uint256[50]","numberOfBytes":"1600"},"t_bool":{"encoding":"inplace","label":"bool","numberOfBytes":"1"},"t_mapping(t_address,t_struct(StructAccountRewards)1538_storage)":{"encoding":"mapping","key":"t_address","label":"mapping(address => struct StructAccountRewards)","numberOfBytes":"32","value":"t_struct(StructAccountRewards)1538_storage"},"t_mapping(t_uint8,t_struct(StructMonthlyRewards)1555_storage)":{"encoding":"mapping","key":"t_uint8","label":"mapping(uint8 => struct StructMonthlyRewards)","numberOfBytes":"32","value":"t_struct(StructMonthlyRewards)1555_storage"},"t_string_storage":{"encoding":"bytes","label":"string","numberOfBytes":"32"},"t_struct(StructAccountRewards)1538_storage":{"encoding":"inplace","label":"struct StructAccountRewards","members":[{"astId":1531,"contract":"contracts/MonthlyRewards.sol:MonthlyRewardsUpgradeable","label":"selfBusiness","offset":0,"slot":"0","type":"t_uint256"},{"astId":1533,"contract":"contracts/MonthlyRewards.sol:MonthlyRewardsUpgradeable","label":"directBusiness","offset":0,"slot":"1","type":"t_uint256"},{"astId":1535,"contract":"contracts/MonthlyRewards.sol:MonthlyRewardsUpgradeable","label":"teamBusiness","offset":0,"slot":"2","type":"t_uint256"},{"astId":1537,"contract":"contracts/MonthlyRewards.sol:MonthlyRewardsUpgradeable","label":"isListed","offset":0,"slot":"3","type":"t_bool"}],"numberOfBytes":"128"},"t_struct(StructMonthlyRewards)1555_storage":{"encoding":"inplace","label":"struct StructMonthlyRewards","members":[{"astId":1540,"contract":"contracts/MonthlyRewards.sol:MonthlyRewardsUpgradeable","label":"id","offset":0,"slot":"0","type":"t_uint8"},{"astId":1542,"contract":"contracts/MonthlyRewards.sol:MonthlyRewardsUpgradeable","label":"selfBusinessLimit","offset":0,"slot":"1","type":"t_uint256"},{"astId":1544,"contract":"contracts/MonthlyRewards.sol:MonthlyRewardsUpgradeable","label":"directBusinessLimit","offset":0,"slot":"2","type":"t_uint256"},{"astId":1546,"contract":"contracts/MonthlyRewards.sol:MonthlyRewardsUpgradeable","label":"teamBusinessLimit","offset":0,"slot":"3","type":"t_uint256"},{"astId":1548,"contract":"contracts/MonthlyRewards.sol:MonthlyRewardsUpgradeable","label":"rewardName","offset":0,"slot":"4","type":"t_string_storage"},{"astId":1550,"contract":"contracts/MonthlyRewards.sol:MonthlyRewardsUpgradeable","label":"appraisal","offset":0,"slot":"5","type":"t_uint256"},{"astId":1552,"contract":"contracts/MonthlyRewards.sol:MonthlyRewardsUpgradeable","label":"selfTopUpLimit","offset":0,"slot":"6","type":"t_uint256"},{"astId":1554,"contract":"contracts/MonthlyRewards.sol:MonthlyRewardsUpgradeable","label":"teamsToCount","offset":0,"slot":"7","type":"t_uint256"}],"numberOfBytes":"256"},"t_uint256":{"encoding":"inplace","label":"uint256","numberOfBytes":"32"},"t_uint8":{"encoding":"inplace","label":"uint8","numberOfBytes":"1"}}}}}}