{"contracts/StakingUpgradeable.sol":{"StakingUpgradeable":{"abi":[{"anonymous":false,"inputs":[{"indexed":false,"internalType":"address","name":"previousAdmin","type":"address"},{"indexed":false,"internalType":"address","name":"newAdmin","type":"address"}],"name":"AdminChanged","type":"event"},{"anonymous":false,"inputs":[{"indexed":true,"internalType":"address","name":"beacon","type":"address"}],"name":"BeaconUpgraded","type":"event"},{"anonymous":false,"inputs":[{"indexed":false,"internalType":"uint8","name":"version","type":"uint8"}],"name":"Initialized","type":"event"},{"anonymous":false,"inputs":[{"indexed":true,"internalType":"address","name":"previousOwner","type":"address"},{"indexed":true,"internalType":"address","name":"newOwner","type":"address"}],"name":"OwnershipTransferred","type":"event"},{"anonymous":false,"inputs":[{"indexed":false,"internalType":"address","name":"account","type":"address"}],"name":"Paused","type":"event"},{"anonymous":false,"inputs":[{"indexed":true,"internalType":"address","name":"userAddress","type":"address"},{"indexed":false,"internalType":"uint256","name":"amount","type":"uint256"}],"name":"PrincipalClaimed","type":"event"},{"anonymous":false,"inputs":[{"indexed":true,"internalType":"address","name":"userAddress","type":"address"},{"indexed":true,"internalType":"uint256","name":"valueStaked","type":"uint256"},{"indexed":true,"internalType":"uint256","name":"duration","type":"uint256"},{"indexed":false,"internalType":"uint256","name":"stakingID","type":"uint256"}],"name":"Stake","type":"event"},{"anonymous":false,"inputs":[{"indexed":true,"internalType":"address","name":"userAddress","type":"address"},{"indexed":true,"internalType":"uint256","name":"reward","type":"uint256"},{"indexed":true,"internalType":"uint256","name":"stakingID","type":"uint256"},{"indexed":false,"internalType":"address","name":"tokenAddress","type":"address"}],"name":"StakingRewardClaimed","type":"event"},{"anonymous":false,"inputs":[{"indexed":false,"internalType":"address","name":"account","type":"address"}],"name":"Unpaused","type":"event"},{"anonymous":false,"inputs":[{"indexed":true,"internalType":"address","name":"userAddress","type":"address"},{"indexed":true,"internalType":"uint256","name":"valueStaked","type":"uint256"},{"indexed":true,"internalType":"uint256","name":"stakingID","type":"uint256"}],"name":"Unstake","type":"event"},{"anonymous":false,"inputs":[{"indexed":true,"internalType":"address","name":"implementation","type":"address"}],"name":"Upgraded","type":"event"},{"inputs":[],"name":"activeStakersList","outputs":[{"internalType":"address[]","name":"","type":"address[]"}],"stateMutability":"view","type":"function"},{"inputs":[],"name":"allStakersList","outputs":[{"internalType":"address[]","name":"","type":"address[]"}],"stateMutability":"view","type":"function"},{"inputs":[{"internalType":"uint256","name":"_stakingID","type":"uint256"}],"name":"claimStakingReward","outputs":[],"stateMutability":"nonpayable","type":"function"},{"inputs":[{"internalType":"address[]","name":"_userAddress","type":"address[]"}],"name":"disableAccounts","outputs":[],"stateMutability":"nonpayable","type":"function"},{"inputs":[{"internalType":"address[]","name":"_userAddress","type":"address[]"}],"name":"enableAccounts","outputs":[],"stateMutability":"nonpayable","type":"function"},{"inputs":[],"name":"getActiveStakingIDs","outputs":[{"internalType":"uint256[]","name":"","type":"uint256[]"}],"stateMutability":"view","type":"function"},{"inputs":[],"name":"getDisabledAccountsList","outputs":[{"internalType":"address[]","name":"","type":"address[]"}],"stateMutability":"view","type":"function"},{"inputs":[],"name":"getStakingCappings","outputs":[{"internalType":"uint256","name":"minStakingValue","type":"uint256"},{"internalType":"uint256","name":"stakingRewardRate","type":"uint256"},{"internalType":"uint256","name":"stakingDuration","type":"uint256"},{"internalType":"uint256","name":"stakingRewardClaimTimeLimit","type":"uint256"}],"stateMutability":"view","type":"function"},{"inputs":[],"name":"getStakingReleaseRewardRate","outputs":[{"internalType":"uint8","name":"","type":"uint8"}],"stateMutability":"view","type":"function"},{"inputs":[{"internalType":"uint256","name":"_stakingID","type":"uint256"}],"name":"getStakingReward","outputs":[{"internalType":"uint256","name":"","type":"uint256"}],"stateMutability":"view","type":"function"},{"inputs":[],"name":"getStakingRewardClaimTimeLimit","outputs":[{"internalType":"uint256","name":"","type":"uint256"}],"stateMutability":"view","type":"function"},{"inputs":[{"internalType":"uint256","name":"_stakingID","type":"uint256"}],"name":"getStakingRewardClaimTimeRemaining","outputs":[{"internalType":"uint256","name":"","type":"uint256"}],"stateMutability":"view","type":"function"},{"inputs":[{"internalType":"uint256","name":"_stakingID","type":"uint256"}],"name":"getStakingTimeRemaining","outputs":[{"internalType":"uint256","name":"","type":"uint256"}],"stateMutability":"view","type":"function"},{"inputs":[],"name":"getTotalStakingRewardDistributed","outputs":[{"internalType":"uint256","name":"_tokenRewards","type":"uint256"},{"internalType":"uint256","name":"_ansudRewards","type":"uint256"}],"stateMutability":"view","type":"function"},{"inputs":[],"name":"getTotalValueStaked","outputs":[{"internalType":"uint256","name":"token","type":"uint256"},{"internalType":"uint256","name":"anusd","type":"uint256"}],"stateMutability":"view","type":"function"},{"inputs":[{"internalType":"address","name":"_userAddress","type":"address"}],"name":"getUserAllStakingsRewards","outputs":[{"internalType":"uint256","name":"","type":"uint256"}],"stateMutability":"view","type":"function"},{"inputs":[{"internalType":"address","name":"_userAddress","type":"address"}],"name":"getUserStakingIDs","outputs":[{"internalType":"uint256[]","name":"","type":"uint256[]"}],"stateMutability":"view","type":"function"},{"inputs":[{"internalType":"address","name":"_userAddress","type":"address"}],"name":"getUserTotalPrincipalClaimed","outputs":[{"internalType":"uint256","name":"","type":"uint256"}],"stateMutability":"view","type":"function"},{"inputs":[{"internalType":"address","name":"_userAddress","type":"address"}],"name":"getUserTotalRewardClaimedANUSD","outputs":[{"internalType":"uint256","name":"totalRewardClaim","type":"uint256"}],"stateMutability":"view","type":"function"},{"inputs":[{"internalType":"address","name":"_userAddress","type":"address"}],"name":"getUserTotalRewardClaimedToken","outputs":[{"internalType":"uint256","name":"totalRewardClaim","type":"uint256"}],"stateMutability":"view","type":"function"},{"inputs":[{"internalType":"address","name":"_userAddress","type":"address"}],"name":"getUserTotalValueStaked","outputs":[{"internalType":"uint256","name":"token","type":"uint256"},{"internalType":"uint256","name":"anusd","type":"uint256"}],"stateMutability":"view","type":"function"},{"inputs":[],"name":"initialize","outputs":[],"stateMutability":"nonpayable","type":"function"},{"inputs":[{"internalType":"address","name":"_userAddress","type":"address"}],"name":"isAccountDisabled","outputs":[{"internalType":"bool","name":"","type":"bool"}],"stateMutability":"view","type":"function"},{"inputs":[{"internalType":"address","name":"_userAddress","type":"address"}],"name":"isStaked","outputs":[{"internalType":"bool","name":"","type":"bool"}],"stateMutability":"view","type":"function"},{"inputs":[],"name":"owner","outputs":[{"internalType":"address","name":"","type":"address"}],"stateMutability":"view","type":"function"},{"inputs":[],"name":"pause","outputs":[],"stateMutability":"nonpayable","type":"function"},{"inputs":[],"name":"paused","outputs":[{"internalType":"bool","name":"","type":"bool"}],"stateMutability":"view","type":"function"},{"inputs":[],"name":"proxiableUUID","outputs":[{"internalType":"bytes32","name":"","type":"bytes32"}],"stateMutability":"view","type":"function"},{"inputs":[],"name":"renounceOwnership","outputs":[],"stateMutability":"nonpayable","type":"function"},{"inputs":[{"internalType":"uint256","name":"_value","type":"uint256"}],"name":"setMinStakingValue","outputs":[{"internalType":"uint256","name":"","type":"uint256"}],"stateMutability":"nonpayable","type":"function"},{"inputs":[{"internalType":"uint256","name":"_valueInDays","type":"uint256"}],"name":"setStakingDuration","outputs":[],"stateMutability":"nonpayable","type":"function"},{"inputs":[{"internalType":"uint8","name":"_valueInDecimals","type":"uint8"}],"name":"setStakingReleaseRewardRate","outputs":[],"stateMutability":"nonpayable","type":"function"},{"inputs":[{"internalType":"uint256","name":"_valueInDays","type":"uint256"}],"name":"setStakingRewardClaimTimeLimity","outputs":[],"stateMutability":"nonpayable","type":"function"},{"inputs":[{"internalType":"uint256","name":"_valueInPer","type":"uint256"}],"name":"setStakingRewardRate","outputs":[],"stateMutability":"nonpayable","type":"function"},{"inputs":[{"internalType":"address","name":"_userAddress","type":"address"},{"internalType":"uint256","name":"_valueInToken","type":"uint256"},{"internalType":"uint256","name":"_valueInANUSD","type":"uint256"}],"name":"stakeByAdmin","outputs":[],"stateMutability":"nonpayable","type":"function"},{"inputs":[{"internalType":"uint256","name":"_stakingID","type":"uint256"}],"name":"stakeInfoMap","outputs":[{"components":[{"internalType":"bool","name":"isStaked","type":"bool"},{"internalType":"address","name":"owner","type":"address"},{"internalType":"uint256","name":"valueInToken","type":"uint256"},{"internalType":"uint256","name":"valueInANUSD","type":"uint256"},{"internalType":"uint256","name":"rewardRate","type":"uint256"},{"internalType":"uint256","name":"startTime","type":"uint256"},{"internalType":"uint256","name":"duration","type":"uint256"},{"internalType":"uint256","name":"rewardClaimedToken","type":"uint256"},{"internalType":"uint256","name":"rewardClaimedANUSD","type":"uint256"},{"internalType":"uint256","name":"principalClaimed","type":"uint256"},{"internalType":"uint256","name":"lastTimeRewardClaimed","type":"uint256"}],"internalType":"struct StakingUpgradeable.StakeInfo","name":"","type":"tuple"}],"stateMutability":"view","type":"function"},{"inputs":[{"internalType":"address","name":"_userAddress","type":"address"},{"internalType":"uint256","name":"_valueInToken","type":"uint256"}],"name":"stakeTopUpByAdmin","outputs":[],"stateMutability":"nonpayable","type":"function"},{"inputs":[{"internalType":"address","name":"newOwner","type":"address"}],"name":"transferOwnership","outputs":[],"stateMutability":"nonpayable","type":"function"},{"inputs":[],"name":"unpause","outputs":[],"stateMutability":"nonpayable","type":"function"},{"inputs":[{"internalType":"address","name":"newImplementation","type":"address"}],"name":"upgradeTo","outputs":[],"stateMutability":"nonpayable","type":"function"},{"inputs":[{"internalType":"address","name":"newImplementation","type":"address"},{"internalType":"bytes","name":"data","type":"bytes"}],"name":"upgradeToAndCall","outputs":[],"stateMutability":"payable","type":"function"},{"inputs":[{"internalType":"address","name":"_userAddress","type":"address"}],"name":"userAccountMap","outputs":[{"components":[{"internalType":"uint256[]","name":"stakingID","type":"uint256[]"},{"internalType":"bool","name":"isDisabled","type":"bool"}],"internalType":"struct StakingUpgradeable.Account","name":"","type":"tuple"}],"stateMutability":"view","type":"function"},{"inputs":[{"internalType":"address","name":"_receiver","type":"address"},{"internalType":"uint256","name":"_value","type":"uint256"}],"name":"withdrawNativeFunds","outputs":[{"internalType":"bool","name":"","type":"bool"}],"stateMutability":"nonpayable","type":"function"},{"inputs":[{"internalType":"address","name":"_tokenAddress","type":"address"},{"internalType":"address","name":"_receiver","type":"address"},{"internalType":"uint256","name":"_value","type":"uint256"}],"name":"withdrawTokens","outputs":[{"internalType":"bool","name":"","type":"bool"}],"stateMutability":"nonpayable","type":"function"},{"stateMutability":"payable","type":"receive"}],"evm":{"bytecode":{"linkReferences":{},"object":"60a06040523060805234801561001457600080fd5b506080516136e761004c60003960008181611286015281816112c6015281816114010152818161144101526114d401526136e76000f3fe60806040526004361061026b5760003560e01c80636f51b20b11610144578063a7566b75116100b6578063d596fe7f1161007a578063d596fe7f14610750578063d8ba90b714610770578063dba4358c14610790578063deede654146107a5578063e3a51f58146107bd578063f2fde38b146107fa57600080fd5b8063a7566b75146106a1578063abfe35ad146106ce578063b7d68519146106ee578063ba4f678e1461070e578063c06a53881461073b57600080fd5b80638129fc1c116101085780638129fc1c146105d25780638456cb59146105e75780638da5cb5b146105fc578063900a253b146106245780639c3fe28a14610644578063a40b58911461066457600080fd5b80636f51b20b146105415780636f72693b1461056e578063715018a614610583578063736e9b94146105985780637ce574bf146105b857600080fd5b80634f1ef286116101dd5780635e35359e116101a15780635e35359e1461046c5780635f8697141461048c5780636177fd18146104c1578063628b372b146104e157806366e5e570146105015780636a8ca6911461052157600080fd5b80634f1ef286146103ec57806352d1902d146103ff57806353bdadea146104145780635c975abb146104345780635cbfd0211461044c57600080fd5b806326792aca1161022f57806326792aca1461032757806328796bbd14610357578063310c9b20146103775780633659cfe6146103975780633b09098f146103b75780633f4ba83a146103d757600080fd5b806308141e4e146102775780631e6f8fe7146102aa57806322ae497e146102cd578063239cd4a4146102e3578063260cb4e91461030557600080fd5b3661027257005b600080fd5b34801561028357600080fd5b50610297610292366004612f07565b61081a565b6040519081526020015b60405180910390f35b3480156102b657600080fd5b506101085460405160ff90911681526020016102a1565b3480156102d957600080fd5b5061010554610297565b3480156102ef57600080fd5b506103036102fe366004612f07565b610891565b005b34801561031157600080fd5b5061031a610ed9565b6040516102a19190612f64565b34801561033357600080fd5b50610347610342366004612f8c565b611055565b60405190151581526020016102a1565b34801561036357600080fd5b50610297610372366004612fb8565b6110a1565b34801561038357600080fd5b50610303610392366004612fd5565b61117a565b3480156103a357600080fd5b506103036103b2366004612fb8565b61127c565b3480156103c357600080fd5b506103036103d236600461300a565b61135b565b3480156103e357600080fd5b506103036113e5565b6103036103fa3660046130c6565b6113f7565b34801561040b57600080fd5b506102976114c7565b34801561042057600080fd5b5061030361042f36600461300a565b61157a565b34801561044057600080fd5b5060335460ff16610347565b34801561045857600080fd5b50610303610467366004612f07565b611600565b34801561047857600080fd5b5061034761048736600461316e565b61161c565b34801561049857600080fd5b506104ac6104a7366004612fb8565b6116a6565b604080519283526020830191909152016102a1565b3480156104cd57600080fd5b506103476104dc366004612fb8565b6117a2565b3480156104ed57600080fd5b506102976104fc366004612fb8565b61187f565b34801561050d57600080fd5b5061029761051c366004612fb8565b61195c565b34801561052d57600080fd5b5061030361053c366004612f07565b611a2c565b34801561054d57600080fd5b5061056161055c366004612fb8565b611a48565b6040516102a191906131df565b34801561057a57600080fd5b50610561611ab5565b34801561058f57600080fd5b50610303611b6a565b3480156105a457600080fd5b506103036105b33660046131f2565b611b7c565b3480156105c457600080fd5b5061010054610101546104ac565b3480156105de57600080fd5b50610303611b9b565b3480156105f357600080fd5b50610303611d05565b34801561060857600080fd5b506065546040516001600160a01b0390911681526020016102a1565b34801561063057600080fd5b5061030361063f366004612f8c565b611d15565b34801561065057600080fd5b5061029761065f366004612fb8565b611dfa565b34801561067057600080fd5b5061034761067f366004612fb8565b6001600160a01b03166000908152610106602052604090206001015460ff1690565b3480156106ad57600080fd5b506106c16106bc366004612f07565b611f02565b6040516102a19190613215565b3480156106da57600080fd5b506102976106e9366004612f07565b61200a565b3480156106fa57600080fd5b50610303610709366004612f07565b612015565b34801561071a57600080fd5b5061072e610729366004612fb8565b612023565b6040516102a191906132a1565b34801561074757600080fd5b5061031a6120bb565b34801561075c57600080fd5b5061029761076b366004612f07565b61220f565b34801561077c57600080fd5b5061029761078b366004612f07565b612223565b34801561079c57600080fd5b5061031a612288565b3480156107b157600080fd5b5060fd5460fe546104ac565b3480156107c957600080fd5b50610102546101035461010454610105546040805194855260208501939093529183015260608201526080016102a1565b34801561080657600080fd5b50610303610815366004612fb8565b6123ec565b60008181526101076020526040812060098101544291901561087d578161010554826009015461084a91906132eb565b10610872578161010554826009015461086391906132eb565b61086d91906132fe565b610875565b60005b949350505050565b8161010554826004015461084a91906132eb565b610899612462565b60006108a4826124a8565b905060006108b1836124fe565b9050600082116109085760405162461bcd60e51b815260206004820152601c60248201527f596f752068617665206e6f207374616b696e67206f7220656e6465640000000060448201526064015b60405180910390fd5b60fb5460008481526101076020908152604080832033808552610106909352922082546001600160a01b0394851694929392429161010090041684146109a05760405162461bcd60e51b815260206004820152602760248201527f536f727279207374616b696e6720696420646f656e27742062656c6f6e6773206044820152663a37903cb7ba9760c91b60648201526084016108ff565b600182015460ff1615610a0d5760405162461bcd60e51b815260206004820152602f60248201527f596f7572206163636f756e742069732064697361626c65642e20506c6561736560448201526e1031b7b73a30b1ba1030b236b4b71760891b60648201526084016108ff565b42610105548460090154610a2191906132eb565b10610a805760405162461bcd60e51b815260206004820152602960248201527f596f752063616e6e6f7420636c61696d20726577617264206265666f7265207460448201526834b6b2b634b6b4ba1760b91b60648201526084016108ff565b6000610bb1866001600160a01b031663b70cc4c16040518163ffffffff1660e01b8152600401602060405180830381865afa158015610ac3573d6000803e3d6000fd5b505050506040513d601f19601f82011682018060405250810190610ae79190613311565b89886001600160a01b03166355a373d66040518163ffffffff1660e01b8152600401602060405180830381865afa158015610b26573d6000803e3d6000fd5b505050506040513d601f19601f82011682018060405250810190610b4a9190613311565b896001600160a01b0316638290c4a66040518163ffffffff1660e01b8152600401602060405180830381865afa158015610b88573d6000803e3d6000fd5b505050506040513d601f19601f82011682018060405250810190610bac9190613311565b61256c565b905086846008016000828254610bc791906132eb565b925050819055508660ff6000828254610be091906132eb565b9250508190555080600181518110610bfa57610bfa61332e565b6020026020010151846006016000828254610c1591906132eb565b9250508190555080600081518110610c2f57610c2f61332e565b6020026020010151846007016000828254610c4a91906132eb565b909155505060098401829055805181906001908110610c6b57610c6b61332e565b60200260200101516101006000828254610c8591906132eb565b9250508190555080600081518110610c9f57610c9f61332e565b60200260200101516101016000828254610cb991906132eb565b92505081905550856001600160a01b03166355a373d66040518163ffffffff1660e01b8152600401602060405180830381865afa158015610cfe573d6000803e3d6000fd5b505050506040513d601f19601f82011682018060405250810190610d229190613311565b6001600160a01b031663a9059cbb868984600181518110610d4557610d4561332e565b6020026020010151610d5791906132eb565b6040516001600160e01b031960e085901b1681526001600160a01b03909216600483015260248201526044016020604051808303816000875af1158015610da2573d6000803e3d6000fd5b505050506040513d601f19601f82011682018060405250810190610dc69190613344565b50846001600160a01b03167f2e6100b89b43378c0aeb062f2df0cfaa63e4437abab6844b441f8e47cb31bec388604051610e0291815260200190565b60405180910390a28881600181518110610e1e57610e1e61332e565b6020026020010151866001600160a01b03167ffec605188cf64597b9aa9cf424a9bba4a84ffb09f9f66c932d6efa1b96fcc7e4896001600160a01b03166355a373d66040518163ffffffff1660e01b8152600401602060405180830381865afa158015610e8f573d6000803e3d6000fd5b505050506040513d601f19601f82011682018060405250810190610eb39190613311565b6040516001600160a01b03909116815260200160405180910390a4505050505050505050565b6000808052610106602090815260fc80546040805182850281018501909152818152606094937f36b574eb542e18a2932b42c3f7b99e0cccde75c2d7e80ac19800931af8e17fa29385939091830182828015610f5e57602002820191906000526020600020905b81546001600160a01b03168152600190910190602001808311610f40575b5050505050905060008151905060008167ffffffffffffffff811115610f8657610f8661307f565b604051908082528060200260200182016040528015610faf578160200160208202803683370190505b5090506000805b8381101561104957848181518110610fd057610fd061332e565b60200260200101519650610fe483886126ef565b15156001146110375760018087015460ff161515900361103757868383815181106110115761101161332e565b6001600160a01b03909216602092830291909101909101528161103381613366565b9250505b8061104181613366565b915050610fb6565b50909695505050505050565b600061105f612754565b6040516001600160a01b0384169083156108fc029084906000818181858888f19350505050158015611095573d6000803e3d6000fd5b50600190505b92915050565b6001600160a01b03811660009081526101066020908152604080832080548251818502810185019093528083529092849291849183018282801561110457602002820191906000526020600020905b8154815260200190600101908083116110f0575b505083519394506000925050505b8181101561117157600061010760008584815181106111335761113361332e565b60200260200101518152602001908152602001600020905080600701548661115b91906132eb565b955050808061116990613366565b915050611112565b50505050919050565b60fb5433906001600160a01b031661119a6065546001600160a01b031690565b6001600160a01b0316826001600160a01b0316148061122b5750806001600160a01b03166363d9df856040518163ffffffff1660e01b8152600401602060405180830381865afa1580156111f2573d6000803e3d6000fd5b505050506040513d601f19601f820116820180604052508101906112169190613311565b6001600160a01b0316826001600160a01b0316145b6112475760405162461bcd60e51b81526004016108ff9061337f565b61127485856064610103548761125d91906133c1565b61126791906133d8565b61010354610104546127ae565b505050505050565b6001600160a01b037f00000000000000000000000000000000000000000000000000000000000000001630036112c45760405162461bcd60e51b81526004016108ff906133fa565b7f00000000000000000000000000000000000000000000000000000000000000006001600160a01b031661130d60008051602061366b833981519152546001600160a01b031690565b6001600160a01b0316146113335760405162461bcd60e51b81526004016108ff90613446565b61133c8161293c565b6040805160008082526020820190925261135891839190612944565b50565b611363612754565b60008080526101066020527f36b574eb542e18a2932b42c3f7b99e0cccde75c2d7e80ac19800931af8e17fa282825b81811015611274578585828181106113ac576113ac61332e565b90506020020160208101906113c19190612fb8565b6001848101805460ff191690911790559350806113dd81613366565b915050611392565b6113ed612754565b6113f5612ab4565b565b6001600160a01b037f000000000000000000000000000000000000000000000000000000000000000016300361143f5760405162461bcd60e51b81526004016108ff906133fa565b7f00000000000000000000000000000000000000000000000000000000000000006001600160a01b031661148860008051602061366b833981519152546001600160a01b031690565b6001600160a01b0316146114ae5760405162461bcd60e51b81526004016108ff90613446565b6114b78261293c565b6114c382826001612944565b5050565b6000306001600160a01b037f000000000000000000000000000000000000000000000000000000000000000016146115675760405162461bcd60e51b815260206004820152603860248201527f555550535570677261646561626c653a206d757374206e6f742062652063616c60448201527f6c6564207468726f7567682064656c656761746563616c6c000000000000000060648201526084016108ff565b5060008051602061366b83398151915290565b611582612754565b60008080526101066020527f36b574eb542e18a2932b42c3f7b99e0cccde75c2d7e80ac19800931af8e17fa282825b81811015611274578585828181106115cb576115cb61332e565b90506020020160208101906115e09190612fb8565b60018401805460ff191690559350806115f881613366565b9150506115b1565b611608612754565b61161581620151806133c1565b6101055550565b6000611626612754565b60405163a9059cbb60e01b81526001600160a01b0384811660048301526024820184905285169063a9059cbb906044016020604051808303816000875af1158015611675573d6000803e3d6000fd5b505050506040513d601f19601f820116820180604052508101906116999190613344565b50600190505b9392505050565b6001600160a01b03811660009081526101066020908152604080832080548251818502810185019093528083528493919284929091849183018282801561170c57602002820191906000526020600020905b8154815260200190600101908083116116f8575b505083519394506000925050505b81811015611799576000610107600085848151811061173b5761173b61332e565b6020908102919091018101518252810191909152604001600020805490915060ff161561178657600181015461177190886132eb565b965080600201548661178391906132eb565b95505b508061179181613366565b91505061171a565b50505050915091565b6001600160a01b03811660009081526101066020908152604080832080548251818502810185019093528083529092849291849183018282801561180557602002820191906000526020600020905b8154815260200190600101908083116117f1575b505083519394506000925050505b818110156118735761010760008483815181106118325761183261332e565b60209081029190910181015182528101919091526040016000205460ff16156118615750600195945050505050565b8061186b81613366565b915050611813565b50600095945050505050565b6001600160a01b0381166000908152610106602090815260408083208054825181850281018501909352808352909284929184918301828280156118e257602002820191906000526020600020905b8154815260200190600101908083116118ce575b505050505090506000815190506000805b8281101561195257600061010760008684815181106119145761191461332e565b60200260200101518152602001908152602001600020905080600801548361193c91906132eb565b925050808061194a90613366565b9150506118f3565b5095945050505050565b6001600160a01b0381166000908152610106602090815260408083208054825181850281018501909352808352909284929184918301828280156119bf57602002820191906000526020600020905b8154815260200190600101908083116119ab575b505083519394506000925050505b8181101561117157600061010760008584815181106119ee576119ee61332e565b602002602001015181526020019081526020016000209050806006015486611a1691906132eb565b9550508080611a2490613366565b9150506119cd565b611a34612754565b611a4181620151806133c1565b6101045550565b6001600160a01b03811660009081526101066020908152604091829020805483518184028101840190945280845260609392830182828015611aa957602002820191906000526020600020905b815481526020019060010190808311611a95575b50505050509050919050565b60fc5460609060008167ffffffffffffffff811115611ad657611ad661307f565b604051908082528060200260200182016040528015611aff578160200160208202803683370190505b50905060005b82811015611b6357600081815261010760205260409020805460ff161515600103611b50578115611b505781838381518110611b4357611b4361332e565b6020026020010181815250505b5080611b5b81613366565b915050611b05565b5092915050565b611b72612754565b6113f56000612b06565b611b84612754565b610108805460ff191660ff92909216919091179055565b600054610100900460ff1615808015611bbb5750600054600160ff909116105b80611bd55750303b158015611bd5575060005460ff166001145b611c385760405162461bcd60e51b815260206004820152602e60248201527f496e697469616c697a61626c653a20636f6e747261637420697320616c72656160448201526d191e481a5b9a5d1a585b1a5e995960921b60648201526084016108ff565b6000805460ff191660011790558015611c5b576000805461ff0019166101001790555b60fb80546001600160a01b0319167377daafc7411c911b869c71bf70fe36cce507845d179055678ac7230489e80000610102556096610103556303e9f4006101045562278d0061010555611cad612b58565b611cb5612b87565b611cbd612bb6565b8015611358576000805461ff0019169055604051600181527f7f26b83ff96e1f2b6a682f133852f6798a09c465da95921460cefb38474024989060200160405180910390a150565b611d0d612754565b6113f5612bdd565b60fb5433906001600160a01b0316611d356065546001600160a01b031690565b6001600160a01b0316826001600160a01b03161480611dc65750806001600160a01b03166363d9df856040518163ffffffff1660e01b8152600401602060405180830381865afa158015611d8d573d6000803e3d6000fd5b505050506040513d601f19601f82011682018060405250810190611db19190613311565b6001600160a01b0316826001600160a01b0316145b611de25760405162461bcd60e51b81526004016108ff9061337f565b611df38484600080610104546127ae565b5050505050565b6001600160a01b03811660009081526101066020908152604080832080548251818502810185019093528083528493830182828015611e5857602002820191906000526020600020905b815481526020019060010190808311611e44575b505050505090506000815190506000805b828160ff161015611ef9576101076000858360ff1681518110611e8e57611e8e61332e565b60209081029190910181015182528101919091526040016000205460ff161515600103611ee757611eda848260ff1681518110611ecd57611ecd61332e565b60200260200101516124a8565b611ee490836132eb565b91505b80611ef181613492565b915050611e69565b50949350505050565b611f6a60405180610160016040528060001515815260200160006001600160a01b031681526020016000815260200160008152602001600081526020016000815260200160008152602001600081526020016000815260200160008152602001600081525090565b5060009081526101076020908152604091829020825161016081018452815460ff8116151582526001600160a01b036101009182900416938201939093526001820154938101939093526002810154606084015260038101546080840152600481015460a0840152600581015460c0840152600681015460e084015260078101549183019190915260088101546101208301526009015461014082015290565b600061109b826124a8565b61201d612754565b61010355565b6040805180820182526060808252600060208084018290526001600160a01b03861682526101068152908490208451815492830281018401865294850182815293949390928492849184018282801561209b57602002820191906000526020600020905b815481526020019060010190808311612087575b50505091835250506001919091015460ff16151560209091015292915050565b6060600060fc80548060200260200160405190810160405280929190818152602001828054801561211557602002820191906000526020600020905b81546001600160a01b031681526001909101906020018083116120f7575b5050505050905060008151905060008167ffffffffffffffff81111561213d5761213d61307f565b604051908082528060200260200182016040528015612166578160200160208202803683370190505b5090506000805b83811015612205576121988386838151811061218b5761218b61332e565b60200260200101516126ef565b15156001146121f3578481815181106121b3576121b361332e565b60200260200101518383815181106121cd576121cd61332e565b6001600160a01b0390921660209283029190910190910152816121ef81613366565b9250505b806121fd81613366565b91505061216d565b5090949350505050565b6000612219612754565b5061010281905590565b60008181526101076020526040812060058101546004820154429291849161224b91906132eb565b90508083101561227d57828260050154836004015461226a91906132eb565b61227491906132fe565b95945050505050565b506000949350505050565b6060600060fc8054806020026020016040519081016040528092919081815260200182805480156122e257602002820191906000526020600020905b81546001600160a01b031681526001909101906020018083116122c4575b5050505050905060008151905060008167ffffffffffffffff81111561230a5761230a61307f565b604051908082528060200260200182016040528015612333578160200160208202803683370190505b5090506000805b83811015612205576123588386838151811061218b5761218b61332e565b15156001146123da576123838582815181106123765761237661332e565b60200260200101516117a2565b156123da5784818151811061239a5761239a61332e565b60200260200101518383815181106123b4576123b461332e565b6001600160a01b0390921660209283029190910190910152816123d681613366565b9250505b806123e481613366565b91505061233a565b6123f4612754565b6001600160a01b0381166124595760405162461bcd60e51b815260206004820152602660248201527f4f776e61626c653a206e6577206f776e657220697320746865207a65726f206160448201526564647265737360d01b60648201526084016108ff565b61135881612b06565b60335460ff16156113f55760405162461bcd60e51b815260206004820152601060248201526f14185d5cd8589b194e881c185d5cd95960821b60448201526064016108ff565b600081815261010760205260408120600481015442919083906124cb90846132fe565b905081600701546124e0828460050154612c1a565b836005015484600201546124f491906133d8565b61226a91906133c1565b6000818152610107602052604081206004810154429190839061252190846132fe565b905060008260050154836001015461253991906133d8565b9050826008015461254e838560050154612c1a565b61255890836133c1565b61256291906132fe565b9695505050505050565b6040805160028082526060808301845292600092919060208301908036833701905050905085816000815181106125a5576125a561332e565b60200260200101906001600160a01b031690816001600160a01b03168152505083816001815181106125d9576125d961332e565b6001600160a01b03928316602091820292909201015260405163095ea7b360e01b81528482166004820152602481018790529087169063095ea7b3906044016020604051808303816000875af1158015612637573d6000803e3d6000fd5b505050506040513d601f19601f8201168201806040525081019061265b9190613344565b5060006001600160a01b0384166338ed1739876001853061267d4260646132eb565b6040518663ffffffff1660e01b815260040161269d9594939291906134b1565b6000604051808303816000875af11580156126bc573d6000803e3d6000fd5b505050506040513d6000823e601f3d908101601f191682016040526126e491908101906134ed565b979650505050505050565b6000805b835181101561274a57826001600160a01b03168482815181106127185761271861332e565b60200260200101516001600160a01b03160361273857600191505061109b565b8061274281613366565b9150506126f3565b5060009392505050565b6065546001600160a01b031633146113f55760405162461bcd60e51b815260206004820181905260248201527f4f776e61626c653a2063616c6c6572206973206e6f7420746865206f776e657260448201526064016108ff565b60fc8054600180820183557f371f36870d18f32a11fea0f144b021c8b407bb50f8e0267c711123f454b963c090910180546001600160a01b0319166001600160a01b038916908117909155915460008381526101066020908152604080832084845261010783529083208154808701835582855292842090920184905581546001600160a81b0319166101009096029590951784178155426004820181905560058201879055938101899055600281018890556003810187905560fd80549295939493928a919087906128829084906132eb565b925050819055508760fe600082825461289b91906132eb565b9250508190555085898b6001600160a01b03167ff556991011e831bcfac4f406d547e5e32cdd98267efab83935230d5f8d02c446876040516128df91815260200190565b60405180910390a485888b6001600160a01b03167ff556991011e831bcfac4f406d547e5e32cdd98267efab83935230d5f8d02c4468760405161292491815260200190565b60405180910390a45060019998505050505050505050565b611358612754565b7f4910fdfa16fed3260ed0e7147f7cc6da11a60208b5b9406d12a635614ffd91435460ff161561297c5761297783612c30565b505050565b826001600160a01b03166352d1902d6040518163ffffffff1660e01b8152600401602060405180830381865afa9250505080156129d6575060408051601f3d908101601f191682019092526129d391810190613593565b60015b612a395760405162461bcd60e51b815260206004820152602e60248201527f45524331393637557067726164653a206e657720696d706c656d656e7461746960448201526d6f6e206973206e6f74205555505360901b60648201526084016108ff565b60008051602061366b8339815191528114612aa85760405162461bcd60e51b815260206004820152602960248201527f45524331393637557067726164653a20756e737570706f727465642070726f786044820152681a58589b195555525160ba1b60648201526084016108ff565b50612977838383612ccc565b612abc612cf7565b6033805460ff191690557f5db9ee0a495bf2e6ff9c91a7834c1ba4fdd244a5e8aa4e537bd38aeae4b073aa335b6040516001600160a01b03909116815260200160405180910390a1565b606580546001600160a01b038381166001600160a01b0319831681179093556040519116919082907f8be0079c531659141344cd1fd0a4f28419497f9722a3daafe3b4186f6b6457e090600090a35050565b600054610100900460ff16612b7f5760405162461bcd60e51b81526004016108ff906135ac565b6113f5612d40565b600054610100900460ff16612bae5760405162461bcd60e51b81526004016108ff906135ac565b6113f5612d73565b600054610100900460ff166113f55760405162461bcd60e51b81526004016108ff906135ac565b612be5612462565b6033805460ff191660011790557f62e78cea01bee320cd4e420270b5ea74000d11b0c9f74754ebdbfc544b05a258612ae93390565b6000818310612c29578161169f565b5090919050565b6001600160a01b0381163b612c9d5760405162461bcd60e51b815260206004820152602d60248201527f455243313936373a206e657720696d706c656d656e746174696f6e206973206e60448201526c1bdd08184818dbdb9d1c9858dd609a1b60648201526084016108ff565b60008051602061366b83398151915280546001600160a01b0319166001600160a01b0392909216919091179055565b612cd583612da3565b600082511180612ce25750805b1561297757612cf18383612de3565b50505050565b60335460ff166113f55760405162461bcd60e51b815260206004820152601460248201527314185d5cd8589b194e881b9bdd081c185d5cd95960621b60448201526064016108ff565b600054610100900460ff16612d675760405162461bcd60e51b81526004016108ff906135ac565b6033805460ff19169055565b600054610100900460ff16612d9a5760405162461bcd60e51b81526004016108ff906135ac565b6113f533612b06565b612dac81612c30565b6040516001600160a01b038216907fbc7cd75a20ee27fd9adebab32041f755214dbc6bffa90cc0225b39da2e5c2d3b90600090a250565b60606001600160a01b0383163b612e4b5760405162461bcd60e51b815260206004820152602660248201527f416464726573733a2064656c65676174652063616c6c20746f206e6f6e2d636f6044820152651b9d1c9858dd60d21b60648201526084016108ff565b600080846001600160a01b031684604051612e66919061361b565b600060405180830381855af49150503d8060008114612ea1576040519150601f19603f3d011682016040523d82523d6000602084013e612ea6565b606091505b5091509150612274828260405180606001604052806027815260200161368b6027913960608315612ed857508161169f565b61169f8383815115612eed5781518083602001fd5b8060405162461bcd60e51b81526004016108ff9190613637565b600060208284031215612f1957600080fd5b5035919050565b600081518084526020808501945080840160005b83811015612f595781516001600160a01b031687529582019590820190600101612f34565b509495945050505050565b60208152600061169f6020830184612f20565b6001600160a01b038116811461135857600080fd5b60008060408385031215612f9f57600080fd5b8235612faa81612f77565b946020939093013593505050565b600060208284031215612fca57600080fd5b813561169f81612f77565b600080600060608486031215612fea57600080fd5b8335612ff581612f77565b95602085013595506040909401359392505050565b6000806020838503121561301d57600080fd5b823567ffffffffffffffff8082111561303557600080fd5b818501915085601f83011261304957600080fd5b81358181111561305857600080fd5b8660208260051b850101111561306d57600080fd5b60209290920196919550909350505050565b634e487b7160e01b600052604160045260246000fd5b604051601f8201601f1916810167ffffffffffffffff811182821017156130be576130be61307f565b604052919050565b600080604083850312156130d957600080fd5b82356130e481612f77565b915060208381013567ffffffffffffffff8082111561310257600080fd5b818601915086601f83011261311657600080fd5b8135818111156131285761312861307f565b61313a601f8201601f19168501613095565b9150808252878482850101111561315057600080fd5b80848401858401376000848284010152508093505050509250929050565b60008060006060848603121561318357600080fd5b833561318e81612f77565b9250602084013561319e81612f77565b929592945050506040919091013590565b600081518084526020808501945080840160005b83811015612f59578151875295820195908201906001016131c3565b60208152600061169f60208301846131af565b60006020828403121561320457600080fd5b813560ff8116811461169f57600080fd5b8151151581526101608101602083015161323a60208401826001600160a01b03169052565b5060408301516040830152606083015160608301526080830151608083015260a083015160a083015260c083015160c083015260e083015160e083015261010080840151818401525061012080840151818401525061014080840151818401525092915050565b6020815260008251604060208401526132bd60608401826131af565b90506020840151151560408401528091505092915050565b634e487b7160e01b600052601160045260246000fd5b8082018082111561109b5761109b6132d5565b8181038181111561109b5761109b6132d5565b60006020828403121561332357600080fd5b815161169f81612f77565b634e487b7160e01b600052603260045260246000fd5b60006020828403121561335657600080fd5b8151801515811461169f57600080fd5b600060018201613378576133786132d5565b5060010190565b60208082526022908201527f4f6e6c79206f776e65722063616e2063616c6c20746869732066756e6374696f604082015261371760f11b606082015260800190565b808202811582820484141761109b5761109b6132d5565b6000826133f557634e487b7160e01b600052601260045260246000fd5b500490565b6020808252602c908201527f46756e6374696f6e206d7573742062652063616c6c6564207468726f7567682060408201526b19195b1959d85d1958d85b1b60a21b606082015260800190565b6020808252602c908201527f46756e6374696f6e206d7573742062652063616c6c6564207468726f7567682060408201526b6163746976652070726f787960a01b606082015260800190565b600060ff821660ff81036134a8576134a86132d5565b60010192915050565b85815284602082015260a0604082015260006134d060a0830186612f20565b6001600160a01b0394909416606083015250608001529392505050565b6000602080838503121561350057600080fd5b825167ffffffffffffffff8082111561351857600080fd5b818501915085601f83011261352c57600080fd5b81518181111561353e5761353e61307f565b8060051b915061354f848301613095565b818152918301840191848101908884111561356957600080fd5b938501935b838510156135875784518252938501939085019061356e565b98975050505050505050565b6000602082840312156135a557600080fd5b5051919050565b6020808252602b908201527f496e697469616c697a61626c653a20636f6e7472616374206973206e6f74206960408201526a6e697469616c697a696e6760a81b606082015260800190565b60005b838110156136125781810151838201526020016135fa565b50506000910152565b6000825161362d8184602087016135f7565b9190910192915050565b60208152600082518060208401526136568160408501602087016135f7565b601f01601f1916919091016040019291505056fe360894a13ba1a3210667c828492db98dca3e2076cc3735a920a3ca505d382bbc416464726573733a206c6f772d6c6576656c2064656c65676174652063616c6c206661696c6564a26469706673582212201c8d42b8fd8276aa5a6899d7a1704952b96da3449968f8197cbc8ea0c7cd9fbf64736f6c63430008110033","opcodes":"PUSH1 0xA0 PUSH1 0x40 MSTORE ADDRESS PUSH1 0x80 MSTORE CALLVALUE DUP1 ISZERO PUSH2 0x14 JUMPI PUSH1 0x0 DUP1 REVERT JUMPDEST POP PUSH1 0x80 MLOAD PUSH2 0x36E7 PUSH2 0x4C PUSH1 0x0 CODECOPY PUSH1 0x0 DUP2 DUP2 PUSH2 0x1286 ADD MSTORE DUP2 DUP2 PUSH2 0x12C6 ADD MSTORE DUP2 DUP2 PUSH2 0x1401 ADD MSTORE DUP2 DUP2 PUSH2 0x1441 ADD MSTORE PUSH2 0x14D4 ADD MSTORE PUSH2 0x36E7 PUSH1 0x0 RETURN INVALID PUSH1 0x80 PUSH1 0x40 MSTORE PUSH1 0x4 CALLDATASIZE LT PUSH2 0x26B JUMPI PUSH1 0x0 CALLDATALOAD PUSH1 0xE0 SHR DUP1 PUSH4 0x6F51B20B GT PUSH2 0x144 JUMPI DUP1 PUSH4 0xA7566B75 GT PUSH2 0xB6 JUMPI DUP1 PUSH4 0xD596FE7F GT PUSH2 0x7A JUMPI DUP1 PUSH4 0xD596FE7F EQ PUSH2 0x750 JUMPI DUP1 PUSH4 0xD8BA90B7 EQ PUSH2 0x770 JUMPI DUP1 PUSH4 0xDBA4358C EQ PUSH2 0x790 JUMPI DUP1 PUSH4 0xDEEDE654 EQ PUSH2 0x7A5 JUMPI DUP1 PUSH4 0xE3A51F58 EQ PUSH2 0x7BD JUMPI DUP1 PUSH4 0xF2FDE38B EQ PUSH2 0x7FA JUMPI PUSH1 0x0 DUP1 REVERT JUMPDEST DUP1 PUSH4 0xA7566B75 EQ PUSH2 0x6A1 JUMPI DUP1 PUSH4 0xABFE35AD EQ PUSH2 0x6CE JUMPI DUP1 PUSH4 0xB7D68519 EQ PUSH2 0x6EE JUMPI DUP1 PUSH4 0xBA4F678E EQ PUSH2 0x70E JUMPI DUP1 PUSH4 0xC06A5388 EQ PUSH2 0x73B JUMPI PUSH1 0x0 DUP1 REVERT JUMPDEST DUP1 PUSH4 0x8129FC1C GT PUSH2 0x108 JUMPI DUP1 PUSH4 0x8129FC1C EQ PUSH2 0x5D2 JUMPI DUP1 PUSH4 0x8456CB59 EQ PUSH2 0x5E7 JUMPI DUP1 PUSH4 0x8DA5CB5B EQ PUSH2 0x5FC JUMPI DUP1 PUSH4 0x900A253B EQ PUSH2 0x624 JUMPI DUP1 PUSH4 0x9C3FE28A EQ PUSH2 0x644 JUMPI DUP1 PUSH4 0xA40B5891 EQ PUSH2 0x664 JUMPI PUSH1 0x0 DUP1 REVERT JUMPDEST DUP1 PUSH4 0x6F51B20B EQ PUSH2 0x541 JUMPI DUP1 PUSH4 0x6F72693B EQ PUSH2 0x56E JUMPI DUP1 PUSH4 0x715018A6 EQ PUSH2 0x583 JUMPI DUP1 PUSH4 0x736E9B94 EQ PUSH2 0x598 JUMPI DUP1 PUSH4 0x7CE574BF EQ PUSH2 0x5B8 JUMPI PUSH1 0x0 DUP1 REVERT JUMPDEST DUP1 PUSH4 0x4F1EF286 GT PUSH2 0x1DD JUMPI DUP1 PUSH4 0x5E35359E GT PUSH2 0x1A1 JUMPI DUP1 PUSH4 0x5E35359E EQ PUSH2 0x46C JUMPI DUP1 PUSH4 0x5F869714 EQ PUSH2 0x48C JUMPI DUP1 PUSH4 0x6177FD18 EQ PUSH2 0x4C1 JUMPI DUP1 PUSH4 0x628B372B EQ PUSH2 0x4E1 JUMPI DUP1 PUSH4 0x66E5E570 EQ PUSH2 0x501 JUMPI DUP1 PUSH4 0x6A8CA691 EQ PUSH2 0x521 JUMPI PUSH1 0x0 DUP1 REVERT JUMPDEST DUP1 PUSH4 0x4F1EF286 EQ PUSH2 0x3EC JUMPI DUP1 PUSH4 0x52D1902D EQ PUSH2 0x3FF JUMPI DUP1 PUSH4 0x53BDADEA EQ PUSH2 0x414 JUMPI DUP1 PUSH4 0x5C975ABB EQ PUSH2 0x434 JUMPI DUP1 PUSH4 0x5CBFD021 EQ PUSH2 0x44C JUMPI PUSH1 0x0 DUP1 REVERT JUMPDEST DUP1 PUSH4 0x26792ACA GT PUSH2 0x22F JUMPI DUP1 PUSH4 0x26792ACA EQ PUSH2 0x327 JUMPI DUP1 PUSH4 0x28796BBD EQ PUSH2 0x357 JUMPI DUP1 PUSH4 0x310C9B20 EQ PUSH2 0x377 JUMPI DUP1 PUSH4 0x3659CFE6 EQ PUSH2 0x397 JUMPI DUP1 PUSH4 0x3B09098F EQ PUSH2 0x3B7 JUMPI DUP1 PUSH4 0x3F4BA83A EQ PUSH2 0x3D7 JUMPI PUSH1 0x0 DUP1 REVERT JUMPDEST DUP1 PUSH4 0x8141E4E EQ PUSH2 0x277 JUMPI DUP1 PUSH4 0x1E6F8FE7 EQ PUSH2 0x2AA JUMPI DUP1 PUSH4 0x22AE497E EQ PUSH2 0x2CD JUMPI DUP1 PUSH4 0x239CD4A4 EQ PUSH2 0x2E3 JUMPI DUP1 PUSH4 0x260CB4E9 EQ PUSH2 0x305 JUMPI PUSH1 0x0 DUP1 REVERT JUMPDEST CALLDATASIZE PUSH2 0x272 JUMPI STOP JUMPDEST PUSH1 0x0 DUP1 REVERT JUMPDEST CALLVALUE DUP1 ISZERO PUSH2 0x283 JUMPI PUSH1 0x0 DUP1 REVERT JUMPDEST POP PUSH2 0x297 PUSH2 0x292 CALLDATASIZE PUSH1 0x4 PUSH2 0x2F07 JUMP JUMPDEST PUSH2 0x81A JUMP JUMPDEST PUSH1 0x40 MLOAD SWAP1 DUP2 MSTORE PUSH1 0x20 ADD JUMPDEST PUSH1 0x40 MLOAD DUP1 SWAP2 SUB SWAP1 RETURN JUMPDEST CALLVALUE DUP1 ISZERO PUSH2 0x2B6 JUMPI PUSH1 0x0 DUP1 REVERT JUMPDEST POP PUSH2 0x108 SLOAD PUSH1 0x40 MLOAD PUSH1 0xFF SWAP1 SWAP2 AND DUP2 MSTORE PUSH1 0x20 ADD PUSH2 0x2A1 JUMP JUMPDEST CALLVALUE DUP1 ISZERO PUSH2 0x2D9 JUMPI PUSH1 0x0 DUP1 REVERT JUMPDEST POP PUSH2 0x105 SLOAD PUSH2 0x297 JUMP JUMPDEST CALLVALUE DUP1 ISZERO PUSH2 0x2EF JUMPI PUSH1 0x0 DUP1 REVERT JUMPDEST POP PUSH2 0x303 PUSH2 0x2FE CALLDATASIZE PUSH1 0x4 PUSH2 0x2F07 JUMP JUMPDEST PUSH2 0x891 JUMP JUMPDEST STOP JUMPDEST CALLVALUE DUP1 ISZERO PUSH2 0x311 JUMPI PUSH1 0x0 DUP1 REVERT JUMPDEST POP PUSH2 0x31A PUSH2 0xED9 JUMP JUMPDEST PUSH1 0x40 MLOAD PUSH2 0x2A1 SWAP2 SWAP1 PUSH2 0x2F64 JUMP JUMPDEST CALLVALUE DUP1 ISZERO PUSH2 0x333 JUMPI PUSH1 0x0 DUP1 REVERT JUMPDEST POP PUSH2 0x347 PUSH2 0x342 CALLDATASIZE PUSH1 0x4 PUSH2 0x2F8C JUMP JUMPDEST PUSH2 0x1055 JUMP JUMPDEST PUSH1 0x40 MLOAD SWAP1 ISZERO ISZERO DUP2 MSTORE PUSH1 0x20 ADD PUSH2 0x2A1 JUMP JUMPDEST CALLVALUE DUP1 ISZERO PUSH2 0x363 JUMPI PUSH1 0x0 DUP1 REVERT JUMPDEST POP PUSH2 0x297 PUSH2 0x372 CALLDATASIZE PUSH1 0x4 PUSH2 0x2FB8 JUMP JUMPDEST PUSH2 0x10A1 JUMP JUMPDEST CALLVALUE DUP1 ISZERO PUSH2 0x383 JUMPI PUSH1 0x0 DUP1 REVERT JUMPDEST POP PUSH2 0x303 PUSH2 0x392 CALLDATASIZE PUSH1 0x4 PUSH2 0x2FD5 JUMP JUMPDEST PUSH2 0x117A JUMP JUMPDEST CALLVALUE DUP1 ISZERO PUSH2 0x3A3 JUMPI PUSH1 0x0 DUP1 REVERT JUMPDEST POP PUSH2 0x303 PUSH2 0x3B2 CALLDATASIZE PUSH1 0x4 PUSH2 0x2FB8 JUMP JUMPDEST PUSH2 0x127C JUMP JUMPDEST CALLVALUE DUP1 ISZERO PUSH2 0x3C3 JUMPI PUSH1 0x0 DUP1 REVERT JUMPDEST POP PUSH2 0x303 PUSH2 0x3D2 CALLDATASIZE PUSH1 0x4 PUSH2 0x300A JUMP JUMPDEST PUSH2 0x135B JUMP JUMPDEST CALLVALUE DUP1 ISZERO PUSH2 0x3E3 JUMPI PUSH1 0x0 DUP1 REVERT JUMPDEST POP PUSH2 0x303 PUSH2 0x13E5 JUMP JUMPDEST PUSH2 0x303 PUSH2 0x3FA CALLDATASIZE PUSH1 0x4 PUSH2 0x30C6 JUMP JUMPDEST PUSH2 0x13F7 JUMP JUMPDEST CALLVALUE DUP1 ISZERO PUSH2 0x40B JUMPI PUSH1 0x0 DUP1 REVERT JUMPDEST POP PUSH2 0x297 PUSH2 0x14C7 JUMP JUMPDEST CALLVALUE DUP1 ISZERO PUSH2 0x420 JUMPI PUSH1 0x0 DUP1 REVERT JUMPDEST POP PUSH2 0x303 PUSH2 0x42F CALLDATASIZE PUSH1 0x4 PUSH2 0x300A JUMP JUMPDEST PUSH2 0x157A JUMP JUMPDEST CALLVALUE DUP1 ISZERO PUSH2 0x440 JUMPI PUSH1 0x0 DUP1 REVERT JUMPDEST POP PUSH1 0x33 SLOAD PUSH1 0xFF AND PUSH2 0x347 JUMP JUMPDEST CALLVALUE DUP1 ISZERO PUSH2 0x458 JUMPI PUSH1 0x0 DUP1 REVERT JUMPDEST POP PUSH2 0x303 PUSH2 0x467 CALLDATASIZE PUSH1 0x4 PUSH2 0x2F07 JUMP JUMPDEST PUSH2 0x1600 JUMP JUMPDEST CALLVALUE DUP1 ISZERO PUSH2 0x478 JUMPI PUSH1 0x0 DUP1 REVERT JUMPDEST POP PUSH2 0x347 PUSH2 0x487 CALLDATASIZE PUSH1 0x4 PUSH2 0x316E JUMP JUMPDEST PUSH2 0x161C JUMP JUMPDEST CALLVALUE DUP1 ISZERO PUSH2 0x498 JUMPI PUSH1 0x0 DUP1 REVERT JUMPDEST POP PUSH2 0x4AC PUSH2 0x4A7 CALLDATASIZE PUSH1 0x4 PUSH2 0x2FB8 JUMP JUMPDEST PUSH2 0x16A6 JUMP JUMPDEST PUSH1 0x40 DUP1 MLOAD SWAP3 DUP4 MSTORE PUSH1 0x20 DUP4 ADD SWAP2 SWAP1 SWAP2 MSTORE ADD PUSH2 0x2A1 JUMP JUMPDEST CALLVALUE DUP1 ISZERO PUSH2 0x4CD JUMPI PUSH1 0x0 DUP1 REVERT JUMPDEST POP PUSH2 0x347 PUSH2 0x4DC CALLDATASIZE PUSH1 0x4 PUSH2 0x2FB8 JUMP JUMPDEST PUSH2 0x17A2 JUMP JUMPDEST CALLVALUE DUP1 ISZERO PUSH2 0x4ED JUMPI PUSH1 0x0 DUP1 REVERT JUMPDEST POP PUSH2 0x297 PUSH2 0x4FC CALLDATASIZE PUSH1 0x4 PUSH2 0x2FB8 JUMP JUMPDEST PUSH2 0x187F JUMP JUMPDEST CALLVALUE DUP1 ISZERO PUSH2 0x50D JUMPI PUSH1 0x0 DUP1 REVERT JUMPDEST POP PUSH2 0x297 PUSH2 0x51C CALLDATASIZE PUSH1 0x4 PUSH2 0x2FB8 JUMP JUMPDEST PUSH2 0x195C JUMP JUMPDEST CALLVALUE DUP1 ISZERO PUSH2 0x52D JUMPI PUSH1 0x0 DUP1 REVERT JUMPDEST POP PUSH2 0x303 PUSH2 0x53C CALLDATASIZE PUSH1 0x4 PUSH2 0x2F07 JUMP JUMPDEST PUSH2 0x1A2C JUMP JUMPDEST CALLVALUE DUP1 ISZERO PUSH2 0x54D JUMPI PUSH1 0x0 DUP1 REVERT JUMPDEST POP PUSH2 0x561 PUSH2 0x55C CALLDATASIZE PUSH1 0x4 PUSH2 0x2FB8 JUMP JUMPDEST PUSH2 0x1A48 JUMP JUMPDEST PUSH1 0x40 MLOAD PUSH2 0x2A1 SWAP2 SWAP1 PUSH2 0x31DF JUMP JUMPDEST CALLVALUE DUP1 ISZERO PUSH2 0x57A JUMPI PUSH1 0x0 DUP1 REVERT JUMPDEST POP PUSH2 0x561 PUSH2 0x1AB5 JUMP JUMPDEST CALLVALUE DUP1 ISZERO PUSH2 0x58F JUMPI PUSH1 0x0 DUP1 REVERT JUMPDEST POP PUSH2 0x303 PUSH2 0x1B6A JUMP JUMPDEST CALLVALUE DUP1 ISZERO PUSH2 0x5A4 JUMPI PUSH1 0x0 DUP1 REVERT JUMPDEST POP PUSH2 0x303 PUSH2 0x5B3 CALLDATASIZE PUSH1 0x4 PUSH2 0x31F2 JUMP JUMPDEST PUSH2 0x1B7C JUMP JUMPDEST CALLVALUE DUP1 ISZERO PUSH2 0x5C4 JUMPI PUSH1 0x0 DUP1 REVERT JUMPDEST POP PUSH2 0x100 SLOAD PUSH2 0x101 SLOAD PUSH2 0x4AC JUMP JUMPDEST CALLVALUE DUP1 ISZERO PUSH2 0x5DE JUMPI PUSH1 0x0 DUP1 REVERT JUMPDEST POP PUSH2 0x303 PUSH2 0x1B9B JUMP JUMPDEST CALLVALUE DUP1 ISZERO PUSH2 0x5F3 JUMPI PUSH1 0x0 DUP1 REVERT JUMPDEST POP PUSH2 0x303 PUSH2 0x1D05 JUMP JUMPDEST CALLVALUE DUP1 ISZERO PUSH2 0x608 JUMPI PUSH1 0x0 DUP1 REVERT JUMPDEST POP PUSH1 0x65 SLOAD PUSH1 0x40 MLOAD PUSH1 0x1 PUSH1 0x1 PUSH1 0xA0 SHL SUB SWAP1 SWAP2 AND DUP2 MSTORE PUSH1 0x20 ADD PUSH2 0x2A1 JUMP JUMPDEST CALLVALUE DUP1 ISZERO PUSH2 0x630 JUMPI PUSH1 0x0 DUP1 REVERT JUMPDEST POP PUSH2 0x303 PUSH2 0x63F CALLDATASIZE PUSH1 0x4 PUSH2 0x2F8C JUMP JUMPDEST PUSH2 0x1D15 JUMP JUMPDEST CALLVALUE DUP1 ISZERO PUSH2 0x650 JUMPI PUSH1 0x0 DUP1 REVERT JUMPDEST POP PUSH2 0x297 PUSH2 0x65F CALLDATASIZE PUSH1 0x4 PUSH2 0x2FB8 JUMP JUMPDEST PUSH2 0x1DFA JUMP JUMPDEST CALLVALUE DUP1 ISZERO PUSH2 0x670 JUMPI PUSH1 0x0 DUP1 REVERT JUMPDEST POP PUSH2 0x347 PUSH2 0x67F CALLDATASIZE PUSH1 0x4 PUSH2 0x2FB8 JUMP JUMPDEST PUSH1 0x1 PUSH1 0x1 PUSH1 0xA0 SHL SUB AND PUSH1 0x0 SWAP1 DUP2 MSTORE PUSH2 0x106 PUSH1 0x20 MSTORE PUSH1 0x40 SWAP1 KECCAK256 PUSH1 0x1 ADD SLOAD PUSH1 0xFF AND SWAP1 JUMP JUMPDEST CALLVALUE DUP1 ISZERO PUSH2 0x6AD JUMPI PUSH1 0x0 DUP1 REVERT JUMPDEST POP PUSH2 0x6C1 PUSH2 0x6BC CALLDATASIZE PUSH1 0x4 PUSH2 0x2F07 JUMP JUMPDEST PUSH2 0x1F02 JUMP JUMPDEST PUSH1 0x40 MLOAD PUSH2 0x2A1 SWAP2 SWAP1 PUSH2 0x3215 JUMP JUMPDEST CALLVALUE DUP1 ISZERO PUSH2 0x6DA JUMPI PUSH1 0x0 DUP1 REVERT JUMPDEST POP PUSH2 0x297 PUSH2 0x6E9 CALLDATASIZE PUSH1 0x4 PUSH2 0x2F07 JUMP JUMPDEST PUSH2 0x200A JUMP JUMPDEST CALLVALUE DUP1 ISZERO PUSH2 0x6FA JUMPI PUSH1 0x0 DUP1 REVERT JUMPDEST POP PUSH2 0x303 PUSH2 0x709 CALLDATASIZE PUSH1 0x4 PUSH2 0x2F07 JUMP JUMPDEST PUSH2 0x2015 JUMP JUMPDEST CALLVALUE DUP1 ISZERO PUSH2 0x71A JUMPI PUSH1 0x0 DUP1 REVERT JUMPDEST POP PUSH2 0x72E PUSH2 0x729 CALLDATASIZE PUSH1 0x4 PUSH2 0x2FB8 JUMP JUMPDEST PUSH2 0x2023 JUMP JUMPDEST PUSH1 0x40 MLOAD PUSH2 0x2A1 SWAP2 SWAP1 PUSH2 0x32A1 JUMP JUMPDEST CALLVALUE DUP1 ISZERO PUSH2 0x747 JUMPI PUSH1 0x0 DUP1 REVERT JUMPDEST POP PUSH2 0x31A PUSH2 0x20BB JUMP JUMPDEST CALLVALUE DUP1 ISZERO PUSH2 0x75C JUMPI PUSH1 0x0 DUP1 REVERT JUMPDEST POP PUSH2 0x297 PUSH2 0x76B CALLDATASIZE PUSH1 0x4 PUSH2 0x2F07 JUMP JUMPDEST PUSH2 0x220F JUMP JUMPDEST CALLVALUE DUP1 ISZERO PUSH2 0x77C JUMPI PUSH1 0x0 DUP1 REVERT JUMPDEST POP PUSH2 0x297 PUSH2 0x78B CALLDATASIZE PUSH1 0x4 PUSH2 0x2F07 JUMP JUMPDEST PUSH2 0x2223 JUMP JUMPDEST CALLVALUE DUP1 ISZERO PUSH2 0x79C JUMPI PUSH1 0x0 DUP1 REVERT JUMPDEST POP PUSH2 0x31A PUSH2 0x2288 JUMP JUMPDEST CALLVALUE DUP1 ISZERO PUSH2 0x7B1 JUMPI PUSH1 0x0 DUP1 REVERT JUMPDEST POP PUSH1 0xFD SLOAD PUSH1 0xFE SLOAD PUSH2 0x4AC JUMP JUMPDEST CALLVALUE DUP1 ISZERO PUSH2 0x7C9 JUMPI PUSH1 0x0 DUP1 REVERT JUMPDEST POP PUSH2 0x102 SLOAD PUSH2 0x103 SLOAD PUSH2 0x104 SLOAD PUSH2 0x105 SLOAD PUSH1 0x40 DUP1 MLOAD SWAP5 DUP6 MSTORE PUSH1 0x20 DUP6 ADD SWAP4 SWAP1 SWAP4 MSTORE SWAP2 DUP4 ADD MSTORE PUSH1 0x60 DUP3 ADD MSTORE PUSH1 0x80 ADD PUSH2 0x2A1 JUMP JUMPDEST CALLVALUE DUP1 ISZERO PUSH2 0x806 JUMPI PUSH1 0x0 DUP1 REVERT JUMPDEST POP PUSH2 0x303 PUSH2 0x815 CALLDATASIZE PUSH1 0x4 PUSH2 0x2FB8 JUMP JUMPDEST PUSH2 0x23EC JUMP JUMPDEST PUSH1 0x0 DUP2 DUP2 MSTORE PUSH2 0x107 PUSH1 0x20 MSTORE PUSH1 0x40 DUP2 KECCAK256 PUSH1 0x9 DUP2 ADD SLOAD TIMESTAMP SWAP2 SWAP1 ISZERO PUSH2 0x87D JUMPI DUP2 PUSH2 0x105 SLOAD DUP3 PUSH1 0x9 ADD SLOAD PUSH2 0x84A SWAP2 SWAP1 PUSH2 0x32EB JUMP JUMPDEST LT PUSH2 0x872 JUMPI DUP2 PUSH2 0x105 SLOAD DUP3 PUSH1 0x9 ADD SLOAD PUSH2 0x863 SWAP2 SWAP1 PUSH2 0x32EB JUMP JUMPDEST PUSH2 0x86D SWAP2 SWAP1 PUSH2 0x32FE JUMP JUMPDEST PUSH2 0x875 JUMP JUMPDEST PUSH1 0x0 JUMPDEST SWAP5 SWAP4 POP POP POP POP JUMP JUMPDEST DUP2 PUSH2 0x105 SLOAD DUP3 PUSH1 0x4 ADD SLOAD PUSH2 0x84A SWAP2 SWAP1 PUSH2 0x32EB JUMP JUMPDEST PUSH2 0x899 PUSH2 0x2462 JUMP JUMPDEST PUSH1 0x0 PUSH2 0x8A4 DUP3 PUSH2 0x24A8 JUMP JUMPDEST SWAP1 POP PUSH1 0x0 PUSH2 0x8B1 DUP4 PUSH2 0x24FE JUMP JUMPDEST SWAP1 POP PUSH1 0x0 DUP3 GT PUSH2 0x908 JUMPI PUSH1 0x40 MLOAD PUSH3 0x461BCD PUSH1 0xE5 SHL DUP2 MSTORE PUSH1 0x20 PUSH1 0x4 DUP3 ADD MSTORE PUSH1 0x1C PUSH1 0x24 DUP3 ADD MSTORE PUSH32 0x596F752068617665206E6F207374616B696E67206F7220656E64656400000000 PUSH1 0x44 DUP3 ADD MSTORE PUSH1 0x64 ADD JUMPDEST PUSH1 0x40 MLOAD DUP1 SWAP2 SUB SWAP1 REVERT JUMPDEST PUSH1 0xFB SLOAD PUSH1 0x0 DUP5 DUP2 MSTORE PUSH2 0x107 PUSH1 0x20 SWAP1 DUP2 MSTORE PUSH1 0x40 DUP1 DUP4 KECCAK256 CALLER DUP1 DUP6 MSTORE PUSH2 0x106 SWAP1 SWAP4 MSTORE SWAP3 KECCAK256 DUP3 SLOAD PUSH1 0x1 PUSH1 0x1 PUSH1 0xA0 SHL SUB SWAP5 DUP6 AND SWAP5 SWAP3 SWAP4 SWAP3 TIMESTAMP SWAP2 PUSH2 0x100 SWAP1 DIV AND DUP5 EQ PUSH2 0x9A0 JUMPI PUSH1 0x40 MLOAD PUSH3 0x461BCD PUSH1 0xE5 SHL DUP2 MSTORE PUSH1 0x20 PUSH1 0x4 DUP3 ADD MSTORE PUSH1 0x27 PUSH1 0x24 DUP3 ADD MSTORE PUSH32 0x536F727279207374616B696E6720696420646F656E27742062656C6F6E677320 PUSH1 0x44 DUP3 ADD MSTORE PUSH7 0x3A37903CB7BA97 PUSH1 0xC9 SHL PUSH1 0x64 DUP3 ADD MSTORE PUSH1 0x84 ADD PUSH2 0x8FF JUMP JUMPDEST PUSH1 0x1 DUP3 ADD SLOAD PUSH1 0xFF AND ISZERO PUSH2 0xA0D JUMPI PUSH1 0x40 MLOAD PUSH3 0x461BCD PUSH1 0xE5 SHL DUP2 MSTORE PUSH1 0x20 PUSH1 0x4 DUP3 ADD MSTORE PUSH1 0x2F PUSH1 0x24 DUP3 ADD MSTORE PUSH32 0x596F7572206163636F756E742069732064697361626C65642E20506C65617365 PUSH1 0x44 DUP3 ADD MSTORE PUSH15 0x1031B7B73A30B1BA1030B236B4B717 PUSH1 0x89 SHL PUSH1 0x64 DUP3 ADD MSTORE PUSH1 0x84 ADD PUSH2 0x8FF JUMP JUMPDEST TIMESTAMP PUSH2 0x105 SLOAD DUP5 PUSH1 0x9 ADD SLOAD PUSH2 0xA21 SWAP2 SWAP1 PUSH2 0x32EB JUMP JUMPDEST LT PUSH2 0xA80 JUMPI PUSH1 0x40 MLOAD PUSH3 0x461BCD PUSH1 0xE5 SHL DUP2 MSTORE PUSH1 0x20 PUSH1 0x4 DUP3 ADD MSTORE PUSH1 0x29 PUSH1 0x24 DUP3 ADD MSTORE PUSH32 0x596F752063616E6E6F7420636C61696D20726577617264206265666F72652074 PUSH1 0x44 DUP3 ADD MSTORE PUSH9 0x34B6B2B634B6B4BA17 PUSH1 0xB9 SHL PUSH1 0x64 DUP3 ADD MSTORE PUSH1 0x84 ADD PUSH2 0x8FF JUMP JUMPDEST PUSH1 0x0 PUSH2 0xBB1 DUP7 PUSH1 0x1 PUSH1 0x1 PUSH1 0xA0 SHL SUB AND PUSH4 0xB70CC4C1 PUSH1 0x40 MLOAD DUP2 PUSH4 0xFFFFFFFF AND PUSH1 0xE0 SHL DUP2 MSTORE PUSH1 0x4 ADD PUSH1 0x20 PUSH1 0x40 MLOAD DUP1 DUP4 SUB DUP2 DUP7 GAS STATICCALL ISZERO DUP1 ISZERO PUSH2 0xAC3 JUMPI RETURNDATASIZE PUSH1 0x0 DUP1 RETURNDATACOPY RETURNDATASIZE PUSH1 0x0 REVERT JUMPDEST POP POP POP POP PUSH1 0x40 MLOAD RETURNDATASIZE PUSH1 0x1F NOT PUSH1 0x1F DUP3 ADD AND DUP3 ADD DUP1 PUSH1 0x40 MSTORE POP DUP2 ADD SWAP1 PUSH2 0xAE7 SWAP2 SWAP1 PUSH2 0x3311 JUMP JUMPDEST DUP10 DUP9 PUSH1 0x1 PUSH1 0x1 PUSH1 0xA0 SHL SUB AND PUSH4 0x55A373D6 PUSH1 0x40 MLOAD DUP2 PUSH4 0xFFFFFFFF AND PUSH1 0xE0 SHL DUP2 MSTORE PUSH1 0x4 ADD PUSH1 0x20 PUSH1 0x40 MLOAD DUP1 DUP4 SUB DUP2 DUP7 GAS STATICCALL ISZERO DUP1 ISZERO PUSH2 0xB26 JUMPI RETURNDATASIZE PUSH1 0x0 DUP1 RETURNDATACOPY RETURNDATASIZE PUSH1 0x0 REVERT JUMPDEST POP POP POP POP PUSH1 0x40 MLOAD RETURNDATASIZE PUSH1 0x1F NOT PUSH1 0x1F DUP3 ADD AND DUP3 ADD DUP1 PUSH1 0x40 MSTORE POP DUP2 ADD SWAP1 PUSH2 0xB4A SWAP2 SWAP1 PUSH2 0x3311 JUMP JUMPDEST DUP10 PUSH1 0x1 PUSH1 0x1 PUSH1 0xA0 SHL SUB AND PUSH4 0x8290C4A6 PUSH1 0x40 MLOAD DUP2 PUSH4 0xFFFFFFFF AND PUSH1 0xE0 SHL DUP2 MSTORE PUSH1 0x4 ADD PUSH1 0x20 PUSH1 0x40 MLOAD DUP1 DUP4 SUB DUP2 DUP7 GAS STATICCALL ISZERO DUP1 ISZERO PUSH2 0xB88 JUMPI RETURNDATASIZE PUSH1 0x0 DUP1 RETURNDATACOPY RETURNDATASIZE PUSH1 0x0 REVERT JUMPDEST POP POP POP POP PUSH1 0x40 MLOAD RETURNDATASIZE PUSH1 0x1F NOT PUSH1 0x1F DUP3 ADD AND DUP3 ADD DUP1 PUSH1 0x40 MSTORE POP DUP2 ADD SWAP1 PUSH2 0xBAC SWAP2 SWAP1 PUSH2 0x3311 JUMP JUMPDEST PUSH2 0x256C JUMP JUMPDEST SWAP1 POP DUP7 DUP5 PUSH1 0x8 ADD PUSH1 0x0 DUP3 DUP3 SLOAD PUSH2 0xBC7 SWAP2 SWAP1 PUSH2 0x32EB JUMP JUMPDEST SWAP3 POP POP DUP2 SWAP1 SSTORE POP DUP7 PUSH1 0xFF PUSH1 0x0 DUP3 DUP3 SLOAD PUSH2 0xBE0 SWAP2 SWAP1 PUSH2 0x32EB JUMP JUMPDEST SWAP3 POP POP DUP2 SWAP1 SSTORE POP DUP1 PUSH1 0x1 DUP2 MLOAD DUP2 LT PUSH2 0xBFA JUMPI PUSH2 0xBFA PUSH2 0x332E JUMP JUMPDEST PUSH1 0x20 MUL PUSH1 0x20 ADD ADD MLOAD DUP5 PUSH1 0x6 ADD PUSH1 0x0 DUP3 DUP3 SLOAD PUSH2 0xC15 SWAP2 SWAP1 PUSH2 0x32EB JUMP JUMPDEST SWAP3 POP POP DUP2 SWAP1 SSTORE POP DUP1 PUSH1 0x0 DUP2 MLOAD DUP2 LT PUSH2 0xC2F JUMPI PUSH2 0xC2F PUSH2 0x332E JUMP JUMPDEST PUSH1 0x20 MUL PUSH1 0x20 ADD ADD MLOAD DUP5 PUSH1 0x7 ADD PUSH1 0x0 DUP3 DUP3 SLOAD PUSH2 0xC4A SWAP2 SWAP1 PUSH2 0x32EB JUMP JUMPDEST SWAP1 SWAP2 SSTORE POP POP PUSH1 0x9 DUP5 ADD DUP3 SWAP1 SSTORE DUP1 MLOAD DUP2 SWAP1 PUSH1 0x1 SWAP1 DUP2 LT PUSH2 0xC6B JUMPI PUSH2 0xC6B PUSH2 0x332E JUMP JUMPDEST PUSH1 0x20 MUL PUSH1 0x20 ADD ADD MLOAD PUSH2 0x100 PUSH1 0x0 DUP3 DUP3 SLOAD PUSH2 0xC85 SWAP2 SWAP1 PUSH2 0x32EB JUMP JUMPDEST SWAP3 POP POP DUP2 SWAP1 SSTORE POP DUP1 PUSH1 0x0 DUP2 MLOAD DUP2 LT PUSH2 0xC9F JUMPI PUSH2 0xC9F PUSH2 0x332E JUMP JUMPDEST PUSH1 0x20 MUL PUSH1 0x20 ADD ADD MLOAD PUSH2 0x101 PUSH1 0x0 DUP3 DUP3 SLOAD PUSH2 0xCB9 SWAP2 SWAP1 PUSH2 0x32EB JUMP JUMPDEST SWAP3 POP POP DUP2 SWAP1 SSTORE POP DUP6 PUSH1 0x1 PUSH1 0x1 PUSH1 0xA0 SHL SUB AND PUSH4 0x55A373D6 PUSH1 0x40 MLOAD DUP2 PUSH4 0xFFFFFFFF AND PUSH1 0xE0 SHL DUP2 MSTORE PUSH1 0x4 ADD PUSH1 0x20 PUSH1 0x40 MLOAD DUP1 DUP4 SUB DUP2 DUP7 GAS STATICCALL ISZERO DUP1 ISZERO PUSH2 0xCFE JUMPI RETURNDATASIZE PUSH1 0x0 DUP1 RETURNDATACOPY RETURNDATASIZE PUSH1 0x0 REVERT JUMPDEST POP POP POP POP PUSH1 0x40 MLOAD RETURNDATASIZE PUSH1 0x1F NOT PUSH1 0x1F DUP3 ADD AND DUP3 ADD DUP1 PUSH1 0x40 MSTORE POP DUP2 ADD SWAP1 PUSH2 0xD22 SWAP2 SWAP1 PUSH2 0x3311 JUMP JUMPDEST PUSH1 0x1 PUSH1 0x1 PUSH1 0xA0 SHL SUB AND PUSH4 0xA9059CBB DUP7 DUP10 DUP5 PUSH1 0x1 DUP2 MLOAD DUP2 LT PUSH2 0xD45 JUMPI PUSH2 0xD45 PUSH2 0x332E JUMP JUMPDEST PUSH1 0x20 MUL PUSH1 0x20 ADD ADD MLOAD PUSH2 0xD57 SWAP2 SWAP1 PUSH2 0x32EB JUMP JUMPDEST PUSH1 0x40 MLOAD PUSH1 0x1 PUSH1 0x1 PUSH1 0xE0 SHL SUB NOT PUSH1 0xE0 DUP6 SWAP1 SHL AND DUP2 MSTORE PUSH1 0x1 PUSH1 0x1 PUSH1 0xA0 SHL SUB SWAP1 SWAP3 AND PUSH1 0x4 DUP4 ADD MSTORE PUSH1 0x24 DUP3 ADD MSTORE PUSH1 0x44 ADD PUSH1 0x20 PUSH1 0x40 MLOAD DUP1 DUP4 SUB DUP2 PUSH1 0x0 DUP8 GAS CALL ISZERO DUP1 ISZERO PUSH2 0xDA2 JUMPI RETURNDATASIZE PUSH1 0x0 DUP1 RETURNDATACOPY RETURNDATASIZE PUSH1 0x0 REVERT JUMPDEST POP POP POP POP PUSH1 0x40 MLOAD RETURNDATASIZE PUSH1 0x1F NOT PUSH1 0x1F DUP3 ADD AND DUP3 ADD DUP1 PUSH1 0x40 MSTORE POP DUP2 ADD SWAP1 PUSH2 0xDC6 SWAP2 SWAP1 PUSH2 0x3344 JUMP JUMPDEST POP DUP5 PUSH1 0x1 PUSH1 0x1 PUSH1 0xA0 SHL SUB AND PUSH32 0x2E6100B89B43378C0AEB062F2DF0CFAA63E4437ABAB6844B441F8E47CB31BEC3 DUP9 PUSH1 0x40 MLOAD PUSH2 0xE02 SWAP2 DUP2 MSTORE PUSH1 0x20 ADD SWAP1 JUMP JUMPDEST PUSH1 0x40 MLOAD DUP1 SWAP2 SUB SWAP1 LOG2 DUP9 DUP2 PUSH1 0x1 DUP2 MLOAD DUP2 LT PUSH2 0xE1E JUMPI PUSH2 0xE1E PUSH2 0x332E JUMP JUMPDEST PUSH1 0x20 MUL PUSH1 0x20 ADD ADD MLOAD DUP7 PUSH1 0x1 PUSH1 0x1 PUSH1 0xA0 SHL SUB AND PUSH32 0xFEC605188CF64597B9AA9CF424A9BBA4A84FFB09F9F66C932D6EFA1B96FCC7E4 DUP10 PUSH1 0x1 PUSH1 0x1 PUSH1 0xA0 SHL SUB AND PUSH4 0x55A373D6 PUSH1 0x40 MLOAD DUP2 PUSH4 0xFFFFFFFF AND PUSH1 0xE0 SHL DUP2 MSTORE PUSH1 0x4 ADD PUSH1 0x20 PUSH1 0x40 MLOAD DUP1 DUP4 SUB DUP2 DUP7 GAS STATICCALL ISZERO DUP1 ISZERO PUSH2 0xE8F JUMPI RETURNDATASIZE PUSH1 0x0 DUP1 RETURNDATACOPY RETURNDATASIZE PUSH1 0x0 REVERT JUMPDEST POP POP POP POP PUSH1 0x40 MLOAD RETURNDATASIZE PUSH1 0x1F NOT PUSH1 0x1F DUP3 ADD AND DUP3 ADD DUP1 PUSH1 0x40 MSTORE POP DUP2 ADD SWAP1 PUSH2 0xEB3 SWAP2 SWAP1 PUSH2 0x3311 JUMP JUMPDEST PUSH1 0x40 MLOAD PUSH1 0x1 PUSH1 0x1 PUSH1 0xA0 SHL SUB SWAP1 SWAP2 AND DUP2 MSTORE PUSH1 0x20 ADD PUSH1 0x40 MLOAD DUP1 SWAP2 SUB SWAP1 LOG4 POP POP POP POP POP POP POP POP POP JUMP JUMPDEST PUSH1 0x0 DUP1 DUP1 MSTORE PUSH2 0x106 PUSH1 0x20 SWAP1 DUP2 MSTORE PUSH1 0xFC DUP1 SLOAD PUSH1 0x40 DUP1 MLOAD DUP3 DUP6 MUL DUP2 ADD DUP6 ADD SWAP1 SWAP2 MSTORE DUP2 DUP2 MSTORE PUSH1 0x60 SWAP5 SWAP4 PUSH32 0x36B574EB542E18A2932B42C3F7B99E0CCCDE75C2D7E80AC19800931AF8E17FA2 SWAP4 DUP6 SWAP4 SWAP1 SWAP2 DUP4 ADD DUP3 DUP3 DUP1 ISZERO PUSH2 0xF5E JUMPI PUSH1 0x20 MUL DUP3 ADD SWAP2 SWAP1 PUSH1 0x0 MSTORE PUSH1 0x20 PUSH1 0x0 KECCAK256 SWAP1 JUMPDEST DUP2 SLOAD PUSH1 0x1 PUSH1 0x1 PUSH1 0xA0 SHL SUB AND DUP2 MSTORE PUSH1 0x1 SWAP1 SWAP2 ADD SWAP1 PUSH1 0x20 ADD DUP1 DUP4 GT PUSH2 0xF40 JUMPI JUMPDEST POP POP POP POP POP SWAP1 POP PUSH1 0x0 DUP2 MLOAD SWAP1 POP PUSH1 0x0 DUP2 PUSH8 0xFFFFFFFFFFFFFFFF DUP2 GT ISZERO PUSH2 0xF86 JUMPI PUSH2 0xF86 PUSH2 0x307F JUMP JUMPDEST PUSH1 0x40 MLOAD SWAP1 DUP1 DUP3 MSTORE DUP1 PUSH1 0x20 MUL PUSH1 0x20 ADD DUP3 ADD PUSH1 0x40 MSTORE DUP1 ISZERO PUSH2 0xFAF JUMPI DUP2 PUSH1 0x20 ADD PUSH1 0x20 DUP3 MUL DUP1 CALLDATASIZE DUP4 CALLDATACOPY ADD SWAP1 POP JUMPDEST POP SWAP1 POP PUSH1 0x0 DUP1 JUMPDEST DUP4 DUP2 LT ISZERO PUSH2 0x1049 JUMPI DUP5 DUP2 DUP2 MLOAD DUP2 LT PUSH2 0xFD0 JUMPI PUSH2 0xFD0 PUSH2 0x332E JUMP JUMPDEST PUSH1 0x20 MUL PUSH1 0x20 ADD ADD MLOAD SWAP7 POP PUSH2 0xFE4 DUP4 DUP9 PUSH2 0x26EF JUMP JUMPDEST ISZERO ISZERO PUSH1 0x1 EQ PUSH2 0x1037 JUMPI PUSH1 0x1 DUP1 DUP8 ADD SLOAD PUSH1 0xFF AND ISZERO ISZERO SWAP1 SUB PUSH2 0x1037 JUMPI DUP7 DUP4 DUP4 DUP2 MLOAD DUP2 LT PUSH2 0x1011 JUMPI PUSH2 0x1011 PUSH2 0x332E JUMP JUMPDEST PUSH1 0x1 PUSH1 0x1 PUSH1 0xA0 SHL SUB SWAP1 SWAP3 AND PUSH1 0x20 SWAP3 DUP4 MUL SWAP2 SWAP1 SWAP2 ADD SWAP1 SWAP2 ADD MSTORE DUP2 PUSH2 0x1033 DUP2 PUSH2 0x3366 JUMP JUMPDEST SWAP3 POP POP JUMPDEST DUP1 PUSH2 0x1041 DUP2 PUSH2 0x3366 JUMP JUMPDEST SWAP2 POP POP PUSH2 0xFB6 JUMP JUMPDEST POP SWAP1 SWAP7 SWAP6 POP POP POP POP POP POP JUMP JUMPDEST PUSH1 0x0 PUSH2 0x105F PUSH2 0x2754 JUMP JUMPDEST PUSH1 0x40 MLOAD PUSH1 0x1 PUSH1 0x1 PUSH1 0xA0 SHL SUB DUP5 AND SWAP1 DUP4 ISZERO PUSH2 0x8FC MUL SWAP1 DUP5 SWAP1 PUSH1 0x0 DUP2 DUP2 DUP2 DUP6 DUP9 DUP9 CALL SWAP4 POP POP POP POP ISZERO DUP1 ISZERO PUSH2 0x1095 JUMPI RETURNDATASIZE PUSH1 0x0 DUP1 RETURNDATACOPY RETURNDATASIZE PUSH1 0x0 REVERT JUMPDEST POP PUSH1 0x1 SWAP1 POP JUMPDEST SWAP3 SWAP2 POP POP JUMP JUMPDEST PUSH1 0x1 PUSH1 0x1 PUSH1 0xA0 SHL SUB DUP2 AND PUSH1 0x0 SWAP1 DUP2 MSTORE PUSH2 0x106 PUSH1 0x20 SWAP1 DUP2 MSTORE PUSH1 0x40 DUP1 DUP4 KECCAK256 DUP1 SLOAD DUP3 MLOAD DUP2 DUP6 MUL DUP2 ADD DUP6 ADD SWAP1 SWAP4 MSTORE DUP1 DUP4 MSTORE SWAP1 SWAP3 DUP5 SWAP3 SWAP2 DUP5 SWAP2 DUP4 ADD DUP3 DUP3 DUP1 ISZERO PUSH2 0x1104 JUMPI PUSH1 0x20 MUL DUP3 ADD SWAP2 SWAP1 PUSH1 0x0 MSTORE PUSH1 0x20 PUSH1 0x0 KECCAK256 SWAP1 JUMPDEST DUP2 SLOAD DUP2 MSTORE PUSH1 0x20 ADD SWAP1 PUSH1 0x1 ADD SWAP1 DUP1 DUP4 GT PUSH2 0x10F0 JUMPI JUMPDEST POP POP DUP4 MLOAD SWAP4 SWAP5 POP PUSH1 0x0 SWAP3 POP POP POP JUMPDEST DUP2 DUP2 LT ISZERO PUSH2 0x1171 JUMPI PUSH1 0x0 PUSH2 0x107 PUSH1 0x0 DUP6 DUP5 DUP2 MLOAD DUP2 LT PUSH2 0x1133 JUMPI PUSH2 0x1133 PUSH2 0x332E JUMP JUMPDEST PUSH1 0x20 MUL PUSH1 0x20 ADD ADD MLOAD DUP2 MSTORE PUSH1 0x20 ADD SWAP1 DUP2 MSTORE PUSH1 0x20 ADD PUSH1 0x0 KECCAK256 SWAP1 POP DUP1 PUSH1 0x7 ADD SLOAD DUP7 PUSH2 0x115B SWAP2 SWAP1 PUSH2 0x32EB JUMP JUMPDEST SWAP6 POP POP DUP1 DUP1 PUSH2 0x1169 SWAP1 PUSH2 0x3366 JUMP JUMPDEST SWAP2 POP POP PUSH2 0x1112 JUMP JUMPDEST POP POP POP POP SWAP2 SWAP1 POP JUMP JUMPDEST PUSH1 0xFB SLOAD CALLER SWAP1 PUSH1 0x1 PUSH1 0x1 PUSH1 0xA0 SHL SUB AND PUSH2 0x119A PUSH1 0x65 SLOAD PUSH1 0x1 PUSH1 0x1 PUSH1 0xA0 SHL SUB AND SWAP1 JUMP JUMPDEST PUSH1 0x1 PUSH1 0x1 PUSH1 0xA0 SHL SUB AND DUP3 PUSH1 0x1 PUSH1 0x1 PUSH1 0xA0 SHL SUB AND EQ DUP1 PUSH2 0x122B JUMPI POP DUP1 PUSH1 0x1 PUSH1 0x1 PUSH1 0xA0 SHL SUB AND PUSH4 0x63D9DF85 PUSH1 0x40 MLOAD DUP2 PUSH4 0xFFFFFFFF AND PUSH1 0xE0 SHL DUP2 MSTORE PUSH1 0x4 ADD PUSH1 0x20 PUSH1 0x40 MLOAD DUP1 DUP4 SUB DUP2 DUP7 GAS STATICCALL ISZERO DUP1 ISZERO PUSH2 0x11F2 JUMPI RETURNDATASIZE PUSH1 0x0 DUP1 RETURNDATACOPY RETURNDATASIZE PUSH1 0x0 REVERT JUMPDEST POP POP POP POP PUSH1 0x40 MLOAD RETURNDATASIZE PUSH1 0x1F NOT PUSH1 0x1F DUP3 ADD AND DUP3 ADD DUP1 PUSH1 0x40 MSTORE POP DUP2 ADD SWAP1 PUSH2 0x1216 SWAP2 SWAP1 PUSH2 0x3311 JUMP JUMPDEST PUSH1 0x1 PUSH1 0x1 PUSH1 0xA0 SHL SUB AND DUP3 PUSH1 0x1 PUSH1 0x1 PUSH1 0xA0 SHL SUB AND EQ JUMPDEST PUSH2 0x1247 JUMPI PUSH1 0x40 MLOAD PUSH3 0x461BCD PUSH1 0xE5 SHL DUP2 MSTORE PUSH1 0x4 ADD PUSH2 0x8FF SWAP1 PUSH2 0x337F JUMP JUMPDEST PUSH2 0x1274 DUP6 DUP6 PUSH1 0x64 PUSH2 0x103 SLOAD DUP8 PUSH2 0x125D SWAP2 SWAP1 PUSH2 0x33C1 JUMP JUMPDEST PUSH2 0x1267 SWAP2 SWAP1 PUSH2 0x33D8 JUMP JUMPDEST PUSH2 0x103 SLOAD PUSH2 0x104 SLOAD PUSH2 0x27AE JUMP JUMPDEST POP POP POP POP POP POP JUMP JUMPDEST PUSH1 0x1 PUSH1 0x1 PUSH1 0xA0 SHL SUB PUSH32 0x0 AND ADDRESS SUB PUSH2 0x12C4 JUMPI PUSH1 0x40 MLOAD PUSH3 0x461BCD PUSH1 0xE5 SHL DUP2 MSTORE PUSH1 0x4 ADD PUSH2 0x8FF SWAP1 PUSH2 0x33FA JUMP JUMPDEST PUSH32 0x0 PUSH1 0x1 PUSH1 0x1 PUSH1 0xA0 SHL SUB AND PUSH2 0x130D PUSH1 0x0 DUP1 MLOAD PUSH1 0x20 PUSH2 0x366B DUP4 CODECOPY DUP2 MLOAD SWAP2 MSTORE SLOAD PUSH1 0x1 PUSH1 0x1 PUSH1 0xA0 SHL SUB AND SWAP1 JUMP JUMPDEST PUSH1 0x1 PUSH1 0x1 PUSH1 0xA0 SHL SUB AND EQ PUSH2 0x1333 JUMPI PUSH1 0x40 MLOAD PUSH3 0x461BCD PUSH1 0xE5 SHL DUP2 MSTORE PUSH1 0x4 ADD PUSH2 0x8FF SWAP1 PUSH2 0x3446 JUMP JUMPDEST PUSH2 0x133C DUP2 PUSH2 0x293C JUMP JUMPDEST PUSH1 0x40 DUP1 MLOAD PUSH1 0x0 DUP1 DUP3 MSTORE PUSH1 0x20 DUP3 ADD SWAP1 SWAP3 MSTORE PUSH2 0x1358 SWAP2 DUP4 SWAP2 SWAP1 PUSH2 0x2944 JUMP JUMPDEST POP JUMP JUMPDEST PUSH2 0x1363 PUSH2 0x2754 JUMP JUMPDEST PUSH1 0x0 DUP1 DUP1 MSTORE PUSH2 0x106 PUSH1 0x20 MSTORE PUSH32 0x36B574EB542E18A2932B42C3F7B99E0CCCDE75C2D7E80AC19800931AF8E17FA2 DUP3 DUP3 JUMPDEST DUP2 DUP2 LT ISZERO PUSH2 0x1274 JUMPI DUP6 DUP6 DUP3 DUP2 DUP2 LT PUSH2 0x13AC JUMPI PUSH2 0x13AC PUSH2 0x332E JUMP JUMPDEST SWAP1 POP PUSH1 0x20 MUL ADD PUSH1 0x20 DUP2 ADD SWAP1 PUSH2 0x13C1 SWAP2 SWAP1 PUSH2 0x2FB8 JUMP JUMPDEST PUSH1 0x1 DUP5 DUP2 ADD DUP1 SLOAD PUSH1 0xFF NOT AND SWAP1 SWAP2 OR SWAP1 SSTORE SWAP4 POP DUP1 PUSH2 0x13DD DUP2 PUSH2 0x3366 JUMP JUMPDEST SWAP2 POP POP PUSH2 0x1392 JUMP JUMPDEST PUSH2 0x13ED PUSH2 0x2754 JUMP JUMPDEST PUSH2 0x13F5 PUSH2 0x2AB4 JUMP JUMPDEST JUMP JUMPDEST PUSH1 0x1 PUSH1 0x1 PUSH1 0xA0 SHL SUB PUSH32 0x0 AND ADDRESS SUB PUSH2 0x143F JUMPI PUSH1 0x40 MLOAD PUSH3 0x461BCD PUSH1 0xE5 SHL DUP2 MSTORE PUSH1 0x4 ADD PUSH2 0x8FF SWAP1 PUSH2 0x33FA JUMP JUMPDEST PUSH32 0x0 PUSH1 0x1 PUSH1 0x1 PUSH1 0xA0 SHL SUB AND PUSH2 0x1488 PUSH1 0x0 DUP1 MLOAD PUSH1 0x20 PUSH2 0x366B DUP4 CODECOPY DUP2 MLOAD SWAP2 MSTORE SLOAD PUSH1 0x1 PUSH1 0x1 PUSH1 0xA0 SHL SUB AND SWAP1 JUMP JUMPDEST PUSH1 0x1 PUSH1 0x1 PUSH1 0xA0 SHL SUB AND EQ PUSH2 0x14AE JUMPI PUSH1 0x40 MLOAD PUSH3 0x461BCD PUSH1 0xE5 SHL DUP2 MSTORE PUSH1 0x4 ADD PUSH2 0x8FF SWAP1 PUSH2 0x3446 JUMP JUMPDEST PUSH2 0x14B7 DUP3 PUSH2 0x293C JUMP JUMPDEST PUSH2 0x14C3 DUP3 DUP3 PUSH1 0x1 PUSH2 0x2944 JUMP JUMPDEST POP POP JUMP JUMPDEST PUSH1 0x0 ADDRESS PUSH1 0x1 PUSH1 0x1 PUSH1 0xA0 SHL SUB PUSH32 0x0 AND EQ PUSH2 0x1567 JUMPI PUSH1 0x40 MLOAD PUSH3 0x461BCD PUSH1 0xE5 SHL DUP2 MSTORE PUSH1 0x20 PUSH1 0x4 DUP3 ADD MSTORE PUSH1 0x38 PUSH1 0x24 DUP3 ADD MSTORE PUSH32 0x555550535570677261646561626C653A206D757374206E6F742062652063616C PUSH1 0x44 DUP3 ADD MSTORE PUSH32 0x6C6564207468726F7567682064656C656761746563616C6C0000000000000000 PUSH1 0x64 DUP3 ADD MSTORE PUSH1 0x84 ADD PUSH2 0x8FF JUMP JUMPDEST POP PUSH1 0x0 DUP1 MLOAD PUSH1 0x20 PUSH2 0x366B DUP4 CODECOPY DUP2 MLOAD SWAP2 MSTORE SWAP1 JUMP JUMPDEST PUSH2 0x1582 PUSH2 0x2754 JUMP JUMPDEST PUSH1 0x0 DUP1 DUP1 MSTORE PUSH2 0x106 PUSH1 0x20 MSTORE PUSH32 0x36B574EB542E18A2932B42C3F7B99E0CCCDE75C2D7E80AC19800931AF8E17FA2 DUP3 DUP3 JUMPDEST DUP2 DUP2 LT ISZERO PUSH2 0x1274 JUMPI DUP6 DUP6 DUP3 DUP2 DUP2 LT PUSH2 0x15CB JUMPI PUSH2 0x15CB PUSH2 0x332E JUMP JUMPDEST SWAP1 POP PUSH1 0x20 MUL ADD PUSH1 0x20 DUP2 ADD SWAP1 PUSH2 0x15E0 SWAP2 SWAP1 PUSH2 0x2FB8 JUMP JUMPDEST PUSH1 0x1 DUP5 ADD DUP1 SLOAD PUSH1 0xFF NOT AND SWAP1 SSTORE SWAP4 POP DUP1 PUSH2 0x15F8 DUP2 PUSH2 0x3366 JUMP JUMPDEST SWAP2 POP POP PUSH2 0x15B1 JUMP JUMPDEST PUSH2 0x1608 PUSH2 0x2754 JUMP JUMPDEST PUSH2 0x1615 DUP2 PUSH3 0x15180 PUSH2 0x33C1 JUMP JUMPDEST PUSH2 0x105 SSTORE POP JUMP JUMPDEST PUSH1 0x0 PUSH2 0x1626 PUSH2 0x2754 JUMP JUMPDEST PUSH1 0x40 MLOAD PUSH4 0xA9059CBB PUSH1 0xE0 SHL DUP2 MSTORE PUSH1 0x1 PUSH1 0x1 PUSH1 0xA0 SHL SUB DUP5 DUP2 AND PUSH1 0x4 DUP4 ADD MSTORE PUSH1 0x24 DUP3 ADD DUP5 SWAP1 MSTORE DUP6 AND SWAP1 PUSH4 0xA9059CBB SWAP1 PUSH1 0x44 ADD PUSH1 0x20 PUSH1 0x40 MLOAD DUP1 DUP4 SUB DUP2 PUSH1 0x0 DUP8 GAS CALL ISZERO DUP1 ISZERO PUSH2 0x1675 JUMPI RETURNDATASIZE PUSH1 0x0 DUP1 RETURNDATACOPY RETURNDATASIZE PUSH1 0x0 REVERT JUMPDEST POP POP POP POP PUSH1 0x40 MLOAD RETURNDATASIZE PUSH1 0x1F NOT PUSH1 0x1F DUP3 ADD AND DUP3 ADD DUP1 PUSH1 0x40 MSTORE POP DUP2 ADD SWAP1 PUSH2 0x1699 SWAP2 SWAP1 PUSH2 0x3344 JUMP JUMPDEST POP PUSH1 0x1 SWAP1 POP JUMPDEST SWAP4 SWAP3 POP POP POP JUMP JUMPDEST PUSH1 0x1 PUSH1 0x1 PUSH1 0xA0 SHL SUB DUP2 AND PUSH1 0x0 SWAP1 DUP2 MSTORE PUSH2 0x106 PUSH1 0x20 SWAP1 DUP2 MSTORE PUSH1 0x40 DUP1 DUP4 KECCAK256 DUP1 SLOAD DUP3 MLOAD DUP2 DUP6 MUL DUP2 ADD DUP6 ADD SWAP1 SWAP4 MSTORE DUP1 DUP4 MSTORE DUP5 SWAP4 SWAP2 SWAP3 DUP5 SWAP3 SWAP1 SWAP2 DUP5 SWAP2 DUP4 ADD DUP3 DUP3 DUP1 ISZERO PUSH2 0x170C JUMPI PUSH1 0x20 MUL DUP3 ADD SWAP2 SWAP1 PUSH1 0x0 MSTORE PUSH1 0x20 PUSH1 0x0 KECCAK256 SWAP1 JUMPDEST DUP2 SLOAD DUP2 MSTORE PUSH1 0x20 ADD SWAP1 PUSH1 0x1 ADD SWAP1 DUP1 DUP4 GT PUSH2 0x16F8 JUMPI JUMPDEST POP POP DUP4 MLOAD SWAP4 SWAP5 POP PUSH1 0x0 SWAP3 POP POP POP JUMPDEST DUP2 DUP2 LT ISZERO PUSH2 0x1799 JUMPI PUSH1 0x0 PUSH2 0x107 PUSH1 0x0 DUP6 DUP5 DUP2 MLOAD DUP2 LT PUSH2 0x173B JUMPI PUSH2 0x173B PUSH2 0x332E JUMP JUMPDEST PUSH1 0x20 SWAP1 DUP2 MUL SWAP2 SWAP1 SWAP2 ADD DUP2 ADD MLOAD DUP3 MSTORE DUP2 ADD SWAP2 SWAP1 SWAP2 MSTORE PUSH1 0x40 ADD PUSH1 0x0 KECCAK256 DUP1 SLOAD SWAP1 SWAP2 POP PUSH1 0xFF AND ISZERO PUSH2 0x1786 JUMPI PUSH1 0x1 DUP2 ADD SLOAD PUSH2 0x1771 SWAP1 DUP9 PUSH2 0x32EB JUMP JUMPDEST SWAP7 POP DUP1 PUSH1 0x2 ADD SLOAD DUP7 PUSH2 0x1783 SWAP2 SWAP1 PUSH2 0x32EB JUMP JUMPDEST SWAP6 POP JUMPDEST POP DUP1 PUSH2 0x1791 DUP2 PUSH2 0x3366 JUMP JUMPDEST SWAP2 POP POP PUSH2 0x171A JUMP JUMPDEST POP POP POP POP SWAP2 POP SWAP2 JUMP JUMPDEST PUSH1 0x1 PUSH1 0x1 PUSH1 0xA0 SHL SUB DUP2 AND PUSH1 0x0 SWAP1 DUP2 MSTORE PUSH2 0x106 PUSH1 0x20 SWAP1 DUP2 MSTORE PUSH1 0x40 DUP1 DUP4 KECCAK256 DUP1 SLOAD DUP3 MLOAD DUP2 DUP6 MUL DUP2 ADD DUP6 ADD SWAP1 SWAP4 MSTORE DUP1 DUP4 MSTORE SWAP1 SWAP3 DUP5 SWAP3 SWAP2 DUP5 SWAP2 DUP4 ADD DUP3 DUP3 DUP1 ISZERO PUSH2 0x1805 JUMPI PUSH1 0x20 MUL DUP3 ADD SWAP2 SWAP1 PUSH1 0x0 MSTORE PUSH1 0x20 PUSH1 0x0 KECCAK256 SWAP1 JUMPDEST DUP2 SLOAD DUP2 MSTORE PUSH1 0x20 ADD SWAP1 PUSH1 0x1 ADD SWAP1 DUP1 DUP4 GT PUSH2 0x17F1 JUMPI JUMPDEST POP POP DUP4 MLOAD SWAP4 SWAP5 POP PUSH1 0x0 SWAP3 POP POP POP JUMPDEST DUP2 DUP2 LT ISZERO PUSH2 0x1873 JUMPI PUSH2 0x107 PUSH1 0x0 DUP5 DUP4 DUP2 MLOAD DUP2 LT PUSH2 0x1832 JUMPI PUSH2 0x1832 PUSH2 0x332E JUMP JUMPDEST PUSH1 0x20 SWAP1 DUP2 MUL SWAP2 SWAP1 SWAP2 ADD DUP2 ADD MLOAD DUP3 MSTORE DUP2 ADD SWAP2 SWAP1 SWAP2 MSTORE PUSH1 0x40 ADD PUSH1 0x0 KECCAK256 SLOAD PUSH1 0xFF AND ISZERO PUSH2 0x1861 JUMPI POP PUSH1 0x1 SWAP6 SWAP5 POP POP POP POP POP JUMP JUMPDEST DUP1 PUSH2 0x186B DUP2 PUSH2 0x3366 JUMP JUMPDEST SWAP2 POP POP PUSH2 0x1813 JUMP JUMPDEST POP PUSH1 0x0 SWAP6 SWAP5 POP POP POP POP POP JUMP JUMPDEST PUSH1 0x1 PUSH1 0x1 PUSH1 0xA0 SHL SUB DUP2 AND PUSH1 0x0 SWAP1 DUP2 MSTORE PUSH2 0x106 PUSH1 0x20 SWAP1 DUP2 MSTORE PUSH1 0x40 DUP1 DUP4 KECCAK256 DUP1 SLOAD DUP3 MLOAD DUP2 DUP6 MUL DUP2 ADD DUP6 ADD SWAP1 SWAP4 MSTORE DUP1 DUP4 MSTORE SWAP1 SWAP3 DUP5 SWAP3 SWAP2 DUP5 SWAP2 DUP4 ADD DUP3 DUP3 DUP1 ISZERO PUSH2 0x18E2 JUMPI PUSH1 0x20 MUL DUP3 ADD SWAP2 SWAP1 PUSH1 0x0 MSTORE PUSH1 0x20 PUSH1 0x0 KECCAK256 SWAP1 JUMPDEST DUP2 SLOAD DUP2 MSTORE PUSH1 0x20 ADD SWAP1 PUSH1 0x1 ADD SWAP1 DUP1 DUP4 GT PUSH2 0x18CE JUMPI JUMPDEST POP POP POP POP POP SWAP1 POP PUSH1 0x0 DUP2 MLOAD SWAP1 POP PUSH1 0x0 DUP1 JUMPDEST DUP3 DUP2 LT ISZERO PUSH2 0x1952 JUMPI PUSH1 0x0 PUSH2 0x107 PUSH1 0x0 DUP7 DUP5 DUP2 MLOAD DUP2 LT PUSH2 0x1914 JUMPI PUSH2 0x1914 PUSH2 0x332E JUMP JUMPDEST PUSH1 0x20 MUL PUSH1 0x20 ADD ADD MLOAD DUP2 MSTORE PUSH1 0x20 ADD SWAP1 DUP2 MSTORE PUSH1 0x20 ADD PUSH1 0x0 KECCAK256 SWAP1 POP DUP1 PUSH1 0x8 ADD SLOAD DUP4 PUSH2 0x193C SWAP2 SWAP1 PUSH2 0x32EB JUMP JUMPDEST SWAP3 POP POP DUP1 DUP1 PUSH2 0x194A SWAP1 PUSH2 0x3366 JUMP JUMPDEST SWAP2 POP POP PUSH2 0x18F3 JUMP JUMPDEST POP SWAP6 SWAP5 POP POP POP POP POP JUMP JUMPDEST PUSH1 0x1 PUSH1 0x1 PUSH1 0xA0 SHL SUB DUP2 AND PUSH1 0x0 SWAP1 DUP2 MSTORE PUSH2 0x106 PUSH1 0x20 SWAP1 DUP2 MSTORE PUSH1 0x40 DUP1 DUP4 KECCAK256 DUP1 SLOAD DUP3 MLOAD DUP2 DUP6 MUL DUP2 ADD DUP6 ADD SWAP1 SWAP4 MSTORE DUP1 DUP4 MSTORE SWAP1 SWAP3 DUP5 SWAP3 SWAP2 DUP5 SWAP2 DUP4 ADD DUP3 DUP3 DUP1 ISZERO PUSH2 0x19BF JUMPI PUSH1 0x20 MUL DUP3 ADD SWAP2 SWAP1 PUSH1 0x0 MSTORE PUSH1 0x20 PUSH1 0x0 KECCAK256 SWAP1 JUMPDEST DUP2 SLOAD DUP2 MSTORE PUSH1 0x20 ADD SWAP1 PUSH1 0x1 ADD SWAP1 DUP1 DUP4 GT PUSH2 0x19AB JUMPI JUMPDEST POP POP DUP4 MLOAD SWAP4 SWAP5 POP PUSH1 0x0 SWAP3 POP POP POP JUMPDEST DUP2 DUP2 LT ISZERO PUSH2 0x1171 JUMPI PUSH1 0x0 PUSH2 0x107 PUSH1 0x0 DUP6 DUP5 DUP2 MLOAD DUP2 LT PUSH2 0x19EE JUMPI PUSH2 0x19EE PUSH2 0x332E JUMP JUMPDEST PUSH1 0x20 MUL PUSH1 0x20 ADD ADD MLOAD DUP2 MSTORE PUSH1 0x20 ADD SWAP1 DUP2 MSTORE PUSH1 0x20 ADD PUSH1 0x0 KECCAK256 SWAP1 POP DUP1 PUSH1 0x6 ADD SLOAD DUP7 PUSH2 0x1A16 SWAP2 SWAP1 PUSH2 0x32EB JUMP JUMPDEST SWAP6 POP POP DUP1 DUP1 PUSH2 0x1A24 SWAP1 PUSH2 0x3366 JUMP JUMPDEST SWAP2 POP POP PUSH2 0x19CD JUMP JUMPDEST PUSH2 0x1A34 PUSH2 0x2754 JUMP JUMPDEST PUSH2 0x1A41 DUP2 PUSH3 0x15180 PUSH2 0x33C1 JUMP JUMPDEST PUSH2 0x104 SSTORE POP JUMP JUMPDEST PUSH1 0x1 PUSH1 0x1 PUSH1 0xA0 SHL SUB DUP2 AND PUSH1 0x0 SWAP1 DUP2 MSTORE PUSH2 0x106 PUSH1 0x20 SWAP1 DUP2 MSTORE PUSH1 0x40 SWAP2 DUP3 SWAP1 KECCAK256 DUP1 SLOAD DUP4 MLOAD DUP2 DUP5 MUL DUP2 ADD DUP5 ADD SWAP1 SWAP5 MSTORE DUP1 DUP5 MSTORE PUSH1 0x60 SWAP4 SWAP3 DUP4 ADD DUP3 DUP3 DUP1 ISZERO PUSH2 0x1AA9 JUMPI PUSH1 0x20 MUL DUP3 ADD SWAP2 SWAP1 PUSH1 0x0 MSTORE PUSH1 0x20 PUSH1 0x0 KECCAK256 SWAP1 JUMPDEST DUP2 SLOAD DUP2 MSTORE PUSH1 0x20 ADD SWAP1 PUSH1 0x1 ADD SWAP1 DUP1 DUP4 GT PUSH2 0x1A95 JUMPI JUMPDEST POP POP POP POP POP SWAP1 POP SWAP2 SWAP1 POP JUMP JUMPDEST PUSH1 0xFC SLOAD PUSH1 0x60 SWAP1 PUSH1 0x0 DUP2 PUSH8 0xFFFFFFFFFFFFFFFF DUP2 GT ISZERO PUSH2 0x1AD6 JUMPI PUSH2 0x1AD6 PUSH2 0x307F JUMP JUMPDEST PUSH1 0x40 MLOAD SWAP1 DUP1 DUP3 MSTORE DUP1 PUSH1 0x20 MUL PUSH1 0x20 ADD DUP3 ADD PUSH1 0x40 MSTORE DUP1 ISZERO PUSH2 0x1AFF JUMPI DUP2 PUSH1 0x20 ADD PUSH1 0x20 DUP3 MUL DUP1 CALLDATASIZE DUP4 CALLDATACOPY ADD SWAP1 POP JUMPDEST POP SWAP1 POP PUSH1 0x0 JUMPDEST DUP3 DUP2 LT ISZERO PUSH2 0x1B63 JUMPI PUSH1 0x0 DUP2 DUP2 MSTORE PUSH2 0x107 PUSH1 0x20 MSTORE PUSH1 0x40 SWAP1 KECCAK256 DUP1 SLOAD PUSH1 0xFF AND ISZERO ISZERO PUSH1 0x1 SUB PUSH2 0x1B50 JUMPI DUP2 ISZERO PUSH2 0x1B50 JUMPI DUP2 DUP4 DUP4 DUP2 MLOAD DUP2 LT PUSH2 0x1B43 JUMPI PUSH2 0x1B43 PUSH2 0x332E JUMP JUMPDEST PUSH1 0x20 MUL PUSH1 0x20 ADD ADD DUP2 DUP2 MSTORE POP POP JUMPDEST POP DUP1 PUSH2 0x1B5B DUP2 PUSH2 0x3366 JUMP JUMPDEST SWAP2 POP POP PUSH2 0x1B05 JUMP JUMPDEST POP SWAP3 SWAP2 POP POP JUMP JUMPDEST PUSH2 0x1B72 PUSH2 0x2754 JUMP JUMPDEST PUSH2 0x13F5 PUSH1 0x0 PUSH2 0x2B06 JUMP JUMPDEST PUSH2 0x1B84 PUSH2 0x2754 JUMP JUMPDEST PUSH2 0x108 DUP1 SLOAD PUSH1 0xFF NOT AND PUSH1 0xFF SWAP3 SWAP1 SWAP3 AND SWAP2 SWAP1 SWAP2 OR SWAP1 SSTORE JUMP JUMPDEST PUSH1 0x0 SLOAD PUSH2 0x100 SWAP1 DIV PUSH1 0xFF AND ISZERO DUP1 DUP1 ISZERO PUSH2 0x1BBB JUMPI POP PUSH1 0x0 SLOAD PUSH1 0x1 PUSH1 0xFF SWAP1 SWAP2 AND LT JUMPDEST DUP1 PUSH2 0x1BD5 JUMPI POP ADDRESS EXTCODESIZE ISZERO DUP1 ISZERO PUSH2 0x1BD5 JUMPI POP PUSH1 0x0 SLOAD PUSH1 0xFF AND PUSH1 0x1 EQ JUMPDEST PUSH2 0x1C38 JUMPI PUSH1 0x40 MLOAD PUSH3 0x461BCD PUSH1 0xE5 SHL DUP2 MSTORE PUSH1 0x20 PUSH1 0x4 DUP3 ADD MSTORE PUSH1 0x2E PUSH1 0x24 DUP3 ADD MSTORE PUSH32 0x496E697469616C697A61626C653A20636F6E747261637420697320616C726561 PUSH1 0x44 DUP3 ADD MSTORE PUSH14 0x191E481A5B9A5D1A585B1A5E9959 PUSH1 0x92 SHL PUSH1 0x64 DUP3 ADD MSTORE PUSH1 0x84 ADD PUSH2 0x8FF JUMP JUMPDEST PUSH1 0x0 DUP1 SLOAD PUSH1 0xFF NOT AND PUSH1 0x1 OR SWAP1 SSTORE DUP1 ISZERO PUSH2 0x1C5B JUMPI PUSH1 0x0 DUP1 SLOAD PUSH2 0xFF00 NOT AND PUSH2 0x100 OR SWAP1 SSTORE JUMPDEST PUSH1 0xFB DUP1 SLOAD PUSH1 0x1 PUSH1 0x1 PUSH1 0xA0 SHL SUB NOT AND PUSH20 0x77DAAFC7411C911B869C71BF70FE36CCE507845D OR SWAP1 SSTORE PUSH8 0x8AC7230489E80000 PUSH2 0x102 SSTORE PUSH1 0x96 PUSH2 0x103 SSTORE PUSH4 0x3E9F400 PUSH2 0x104 SSTORE PUSH3 0x278D00 PUSH2 0x105 SSTORE PUSH2 0x1CAD PUSH2 0x2B58 JUMP JUMPDEST PUSH2 0x1CB5 PUSH2 0x2B87 JUMP JUMPDEST PUSH2 0x1CBD PUSH2 0x2BB6 JUMP JUMPDEST DUP1 ISZERO PUSH2 0x1358 JUMPI PUSH1 0x0 DUP1 SLOAD PUSH2 0xFF00 NOT AND SWAP1 SSTORE PUSH1 0x40 MLOAD PUSH1 0x1 DUP2 MSTORE PUSH32 0x7F26B83FF96E1F2B6A682F133852F6798A09C465DA95921460CEFB3847402498 SWAP1 PUSH1 0x20 ADD PUSH1 0x40 MLOAD DUP1 SWAP2 SUB SWAP1 LOG1 POP JUMP JUMPDEST PUSH2 0x1D0D PUSH2 0x2754 JUMP JUMPDEST PUSH2 0x13F5 PUSH2 0x2BDD JUMP JUMPDEST PUSH1 0xFB SLOAD CALLER SWAP1 PUSH1 0x1 PUSH1 0x1 PUSH1 0xA0 SHL SUB AND PUSH2 0x1D35 PUSH1 0x65 SLOAD PUSH1 0x1 PUSH1 0x1 PUSH1 0xA0 SHL SUB AND SWAP1 JUMP JUMPDEST PUSH1 0x1 PUSH1 0x1 PUSH1 0xA0 SHL SUB AND DUP3 PUSH1 0x1 PUSH1 0x1 PUSH1 0xA0 SHL SUB AND EQ DUP1 PUSH2 0x1DC6 JUMPI POP DUP1 PUSH1 0x1 PUSH1 0x1 PUSH1 0xA0 SHL SUB AND PUSH4 0x63D9DF85 PUSH1 0x40 MLOAD DUP2 PUSH4 0xFFFFFFFF AND PUSH1 0xE0 SHL DUP2 MSTORE PUSH1 0x4 ADD PUSH1 0x20 PUSH1 0x40 MLOAD DUP1 DUP4 SUB DUP2 DUP7 GAS STATICCALL ISZERO DUP1 ISZERO PUSH2 0x1D8D JUMPI RETURNDATASIZE PUSH1 0x0 DUP1 RETURNDATACOPY RETURNDATASIZE PUSH1 0x0 REVERT JUMPDEST POP POP POP POP PUSH1 0x40 MLOAD RETURNDATASIZE PUSH1 0x1F NOT PUSH1 0x1F DUP3 ADD AND DUP3 ADD DUP1 PUSH1 0x40 MSTORE POP DUP2 ADD SWAP1 PUSH2 0x1DB1 SWAP2 SWAP1 PUSH2 0x3311 JUMP JUMPDEST PUSH1 0x1 PUSH1 0x1 PUSH1 0xA0 SHL SUB AND DUP3 PUSH1 0x1 PUSH1 0x1 PUSH1 0xA0 SHL SUB AND EQ JUMPDEST PUSH2 0x1DE2 JUMPI PUSH1 0x40 MLOAD PUSH3 0x461BCD PUSH1 0xE5 SHL DUP2 MSTORE PUSH1 0x4 ADD PUSH2 0x8FF SWAP1 PUSH2 0x337F JUMP JUMPDEST PUSH2 0x1DF3 DUP5 DUP5 PUSH1 0x0 DUP1 PUSH2 0x104 SLOAD PUSH2 0x27AE JUMP JUMPDEST POP POP POP POP POP JUMP JUMPDEST PUSH1 0x1 PUSH1 0x1 PUSH1 0xA0 SHL SUB DUP2 AND PUSH1 0x0 SWAP1 DUP2 MSTORE PUSH2 0x106 PUSH1 0x20 SWAP1 DUP2 MSTORE PUSH1 0x40 DUP1 DUP4 KECCAK256 DUP1 SLOAD DUP3 MLOAD DUP2 DUP6 MUL DUP2 ADD DUP6 ADD SWAP1 SWAP4 MSTORE DUP1 DUP4 MSTORE DUP5 SWAP4 DUP4 ADD DUP3 DUP3 DUP1 ISZERO PUSH2 0x1E58 JUMPI PUSH1 0x20 MUL DUP3 ADD SWAP2 SWAP1 PUSH1 0x0 MSTORE PUSH1 0x20 PUSH1 0x0 KECCAK256 SWAP1 JUMPDEST DUP2 SLOAD DUP2 MSTORE PUSH1 0x20 ADD SWAP1 PUSH1 0x1 ADD SWAP1 DUP1 DUP4 GT PUSH2 0x1E44 JUMPI JUMPDEST POP POP POP POP POP SWAP1 POP PUSH1 0x0 DUP2 MLOAD SWAP1 POP PUSH1 0x0 DUP1 JUMPDEST DUP3 DUP2 PUSH1 0xFF AND LT ISZERO PUSH2 0x1EF9 JUMPI PUSH2 0x107 PUSH1 0x0 DUP6 DUP4 PUSH1 0xFF AND DUP2 MLOAD DUP2 LT PUSH2 0x1E8E JUMPI PUSH2 0x1E8E PUSH2 0x332E JUMP JUMPDEST PUSH1 0x20 SWAP1 DUP2 MUL SWAP2 SWAP1 SWAP2 ADD DUP2 ADD MLOAD DUP3 MSTORE DUP2 ADD SWAP2 SWAP1 SWAP2 MSTORE PUSH1 0x40 ADD PUSH1 0x0 KECCAK256 SLOAD PUSH1 0xFF AND ISZERO ISZERO PUSH1 0x1 SUB PUSH2 0x1EE7 JUMPI PUSH2 0x1EDA DUP5 DUP3 PUSH1 0xFF AND DUP2 MLOAD DUP2 LT PUSH2 0x1ECD JUMPI PUSH2 0x1ECD PUSH2 0x332E JUMP JUMPDEST PUSH1 0x20 MUL PUSH1 0x20 ADD ADD MLOAD PUSH2 0x24A8 JUMP JUMPDEST PUSH2 0x1EE4 SWAP1 DUP4 PUSH2 0x32EB JUMP JUMPDEST SWAP2 POP JUMPDEST DUP1 PUSH2 0x1EF1 DUP2 PUSH2 0x3492 JUMP JUMPDEST SWAP2 POP POP PUSH2 0x1E69 JUMP JUMPDEST POP SWAP5 SWAP4 POP POP POP POP JUMP JUMPDEST PUSH2 0x1F6A PUSH1 0x40 MLOAD DUP1 PUSH2 0x160 ADD PUSH1 0x40 MSTORE DUP1 PUSH1 0x0 ISZERO ISZERO DUP2 MSTORE PUSH1 0x20 ADD PUSH1 0x0 PUSH1 0x1 PUSH1 0x1 PUSH1 0xA0 SHL SUB AND DUP2 MSTORE PUSH1 0x20 ADD PUSH1 0x0 DUP2 MSTORE PUSH1 0x20 ADD PUSH1 0x0 DUP2 MSTORE PUSH1 0x20 ADD PUSH1 0x0 DUP2 MSTORE PUSH1 0x20 ADD PUSH1 0x0 DUP2 MSTORE PUSH1 0x20 ADD PUSH1 0x0 DUP2 MSTORE PUSH1 0x20 ADD PUSH1 0x0 DUP2 MSTORE PUSH1 0x20 ADD PUSH1 0x0 DUP2 MSTORE PUSH1 0x20 ADD PUSH1 0x0 DUP2 MSTORE PUSH1 0x20 ADD PUSH1 0x0 DUP2 MSTORE POP SWAP1 JUMP JUMPDEST POP PUSH1 0x0 SWAP1 DUP2 MSTORE PUSH2 0x107 PUSH1 0x20 SWAP1 DUP2 MSTORE PUSH1 0x40 SWAP2 DUP3 SWAP1 KECCAK256 DUP3 MLOAD PUSH2 0x160 DUP2 ADD DUP5 MSTORE DUP2 SLOAD PUSH1 0xFF DUP2 AND ISZERO ISZERO DUP3 MSTORE PUSH1 0x1 PUSH1 0x1 PUSH1 0xA0 SHL SUB PUSH2 0x100 SWAP2 DUP3 SWAP1 DIV AND SWAP4 DUP3 ADD SWAP4 SWAP1 SWAP4 MSTORE PUSH1 0x1 DUP3 ADD SLOAD SWAP4 DUP2 ADD SWAP4 SWAP1 SWAP4 MSTORE PUSH1 0x2 DUP2 ADD SLOAD PUSH1 0x60 DUP5 ADD MSTORE PUSH1 0x3 DUP2 ADD SLOAD PUSH1 0x80 DUP5 ADD MSTORE PUSH1 0x4 DUP2 ADD SLOAD PUSH1 0xA0 DUP5 ADD MSTORE PUSH1 0x5 DUP2 ADD SLOAD PUSH1 0xC0 DUP5 ADD MSTORE PUSH1 0x6 DUP2 ADD SLOAD PUSH1 0xE0 DUP5 ADD MSTORE PUSH1 0x7 DUP2 ADD SLOAD SWAP2 DUP4 ADD SWAP2 SWAP1 SWAP2 MSTORE PUSH1 0x8 DUP2 ADD SLOAD PUSH2 0x120 DUP4 ADD MSTORE PUSH1 0x9 ADD SLOAD PUSH2 0x140 DUP3 ADD MSTORE SWAP1 JUMP JUMPDEST PUSH1 0x0 PUSH2 0x109B DUP3 PUSH2 0x24A8 JUMP JUMPDEST PUSH2 0x201D PUSH2 0x2754 JUMP JUMPDEST PUSH2 0x103 SSTORE JUMP JUMPDEST PUSH1 0x40 DUP1 MLOAD DUP1 DUP3 ADD DUP3 MSTORE PUSH1 0x60 DUP1 DUP3 MSTORE PUSH1 0x0 PUSH1 0x20 DUP1 DUP5 ADD DUP3 SWAP1 MSTORE PUSH1 0x1 PUSH1 0x1 PUSH1 0xA0 SHL SUB DUP7 AND DUP3 MSTORE PUSH2 0x106 DUP2 MSTORE SWAP1 DUP5 SWAP1 KECCAK256 DUP5 MLOAD DUP2 SLOAD SWAP3 DUP4 MUL DUP2 ADD DUP5 ADD DUP7 MSTORE SWAP5 DUP6 ADD DUP3 DUP2 MSTORE SWAP4 SWAP5 SWAP4 SWAP1 SWAP3 DUP5 SWAP3 DUP5 SWAP2 DUP5 ADD DUP3 DUP3 DUP1 ISZERO PUSH2 0x209B JUMPI PUSH1 0x20 MUL DUP3 ADD SWAP2 SWAP1 PUSH1 0x0 MSTORE PUSH1 0x20 PUSH1 0x0 KECCAK256 SWAP1 JUMPDEST DUP2 SLOAD DUP2 MSTORE PUSH1 0x20 ADD SWAP1 PUSH1 0x1 ADD SWAP1 DUP1 DUP4 GT PUSH2 0x2087 JUMPI JUMPDEST POP POP POP SWAP2 DUP4 MSTORE POP POP PUSH1 0x1 SWAP2 SWAP1 SWAP2 ADD SLOAD PUSH1 0xFF AND ISZERO ISZERO PUSH1 0x20 SWAP1 SWAP2 ADD MSTORE SWAP3 SWAP2 POP POP JUMP JUMPDEST PUSH1 0x60 PUSH1 0x0 PUSH1 0xFC DUP1 SLOAD DUP1 PUSH1 0x20 MUL PUSH1 0x20 ADD PUSH1 0x40 MLOAD SWAP1 DUP2 ADD PUSH1 0x40 MSTORE DUP1 SWAP3 SWAP2 SWAP1 DUP2 DUP2 MSTORE PUSH1 0x20 ADD DUP3 DUP1 SLOAD DUP1 ISZERO PUSH2 0x2115 JUMPI PUSH1 0x20 MUL DUP3 ADD SWAP2 SWAP1 PUSH1 0x0 MSTORE PUSH1 0x20 PUSH1 0x0 KECCAK256 SWAP1 JUMPDEST DUP2 SLOAD PUSH1 0x1 PUSH1 0x1 PUSH1 0xA0 SHL SUB AND DUP2 MSTORE PUSH1 0x1 SWAP1 SWAP2 ADD SWAP1 PUSH1 0x20 ADD DUP1 DUP4 GT PUSH2 0x20F7 JUMPI JUMPDEST POP POP POP POP POP SWAP1 POP PUSH1 0x0 DUP2 MLOAD SWAP1 POP PUSH1 0x0 DUP2 PUSH8 0xFFFFFFFFFFFFFFFF DUP2 GT ISZERO PUSH2 0x213D JUMPI PUSH2 0x213D PUSH2 0x307F JUMP JUMPDEST PUSH1 0x40 MLOAD SWAP1 DUP1 DUP3 MSTORE DUP1 PUSH1 0x20 MUL PUSH1 0x20 ADD DUP3 ADD PUSH1 0x40 MSTORE DUP1 ISZERO PUSH2 0x2166 JUMPI DUP2 PUSH1 0x20 ADD PUSH1 0x20 DUP3 MUL DUP1 CALLDATASIZE DUP4 CALLDATACOPY ADD SWAP1 POP JUMPDEST POP SWAP1 POP PUSH1 0x0 DUP1 JUMPDEST DUP4 DUP2 LT ISZERO PUSH2 0x2205 JUMPI PUSH2 0x2198 DUP4 DUP7 DUP4 DUP2 MLOAD DUP2 LT PUSH2 0x218B JUMPI PUSH2 0x218B PUSH2 0x332E JUMP JUMPDEST PUSH1 0x20 MUL PUSH1 0x20 ADD ADD MLOAD PUSH2 0x26EF JUMP JUMPDEST ISZERO ISZERO PUSH1 0x1 EQ PUSH2 0x21F3 JUMPI DUP5 DUP2 DUP2 MLOAD DUP2 LT PUSH2 0x21B3 JUMPI PUSH2 0x21B3 PUSH2 0x332E JUMP JUMPDEST PUSH1 0x20 MUL PUSH1 0x20 ADD ADD MLOAD DUP4 DUP4 DUP2 MLOAD DUP2 LT PUSH2 0x21CD JUMPI PUSH2 0x21CD PUSH2 0x332E JUMP JUMPDEST PUSH1 0x1 PUSH1 0x1 PUSH1 0xA0 SHL SUB SWAP1 SWAP3 AND PUSH1 0x20 SWAP3 DUP4 MUL SWAP2 SWAP1 SWAP2 ADD SWAP1 SWAP2 ADD MSTORE DUP2 PUSH2 0x21EF DUP2 PUSH2 0x3366 JUMP JUMPDEST SWAP3 POP POP JUMPDEST DUP1 PUSH2 0x21FD DUP2 PUSH2 0x3366 JUMP JUMPDEST SWAP2 POP POP PUSH2 0x216D JUMP JUMPDEST POP SWAP1 SWAP5 SWAP4 POP POP POP POP JUMP JUMPDEST PUSH1 0x0 PUSH2 0x2219 PUSH2 0x2754 JUMP JUMPDEST POP PUSH2 0x102 DUP2 SWAP1 SSTORE SWAP1 JUMP JUMPDEST PUSH1 0x0 DUP2 DUP2 MSTORE PUSH2 0x107 PUSH1 0x20 MSTORE PUSH1 0x40 DUP2 KECCAK256 PUSH1 0x5 DUP2 ADD SLOAD PUSH1 0x4 DUP3 ADD SLOAD TIMESTAMP SWAP3 SWAP2 DUP5 SWAP2 PUSH2 0x224B SWAP2 SWAP1 PUSH2 0x32EB JUMP JUMPDEST SWAP1 POP DUP1 DUP4 LT ISZERO PUSH2 0x227D JUMPI DUP3 DUP3 PUSH1 0x5 ADD SLOAD DUP4 PUSH1 0x4 ADD SLOAD PUSH2 0x226A SWAP2 SWAP1 PUSH2 0x32EB JUMP JUMPDEST PUSH2 0x2274 SWAP2 SWAP1 PUSH2 0x32FE JUMP JUMPDEST SWAP6 SWAP5 POP POP POP POP POP JUMP JUMPDEST POP PUSH1 0x0 SWAP5 SWAP4 POP POP POP POP JUMP JUMPDEST PUSH1 0x60 PUSH1 0x0 PUSH1 0xFC DUP1 SLOAD DUP1 PUSH1 0x20 MUL PUSH1 0x20 ADD PUSH1 0x40 MLOAD SWAP1 DUP2 ADD PUSH1 0x40 MSTORE DUP1 SWAP3 SWAP2 SWAP1 DUP2 DUP2 MSTORE PUSH1 0x20 ADD DUP3 DUP1 SLOAD DUP1 ISZERO PUSH2 0x22E2 JUMPI PUSH1 0x20 MUL DUP3 ADD SWAP2 SWAP1 PUSH1 0x0 MSTORE PUSH1 0x20 PUSH1 0x0 KECCAK256 SWAP1 JUMPDEST DUP2 SLOAD PUSH1 0x1 PUSH1 0x1 PUSH1 0xA0 SHL SUB AND DUP2 MSTORE PUSH1 0x1 SWAP1 SWAP2 ADD SWAP1 PUSH1 0x20 ADD DUP1 DUP4 GT PUSH2 0x22C4 JUMPI JUMPDEST POP POP POP POP POP SWAP1 POP PUSH1 0x0 DUP2 MLOAD SWAP1 POP PUSH1 0x0 DUP2 PUSH8 0xFFFFFFFFFFFFFFFF DUP2 GT ISZERO PUSH2 0x230A JUMPI PUSH2 0x230A PUSH2 0x307F JUMP JUMPDEST PUSH1 0x40 MLOAD SWAP1 DUP1 DUP3 MSTORE DUP1 PUSH1 0x20 MUL PUSH1 0x20 ADD DUP3 ADD PUSH1 0x40 MSTORE DUP1 ISZERO PUSH2 0x2333 JUMPI DUP2 PUSH1 0x20 ADD PUSH1 0x20 DUP3 MUL DUP1 CALLDATASIZE DUP4 CALLDATACOPY ADD SWAP1 POP JUMPDEST POP SWAP1 POP PUSH1 0x0 DUP1 JUMPDEST DUP4 DUP2 LT ISZERO PUSH2 0x2205 JUMPI PUSH2 0x2358 DUP4 DUP7 DUP4 DUP2 MLOAD DUP2 LT PUSH2 0x218B JUMPI PUSH2 0x218B PUSH2 0x332E JUMP JUMPDEST ISZERO ISZERO PUSH1 0x1 EQ PUSH2 0x23DA JUMPI PUSH2 0x2383 DUP6 DUP3 DUP2 MLOAD DUP2 LT PUSH2 0x2376 JUMPI PUSH2 0x2376 PUSH2 0x332E JUMP JUMPDEST PUSH1 0x20 MUL PUSH1 0x20 ADD ADD MLOAD PUSH2 0x17A2 JUMP JUMPDEST ISZERO PUSH2 0x23DA JUMPI DUP5 DUP2 DUP2 MLOAD DUP2 LT PUSH2 0x239A JUMPI PUSH2 0x239A PUSH2 0x332E JUMP JUMPDEST PUSH1 0x20 MUL PUSH1 0x20 ADD ADD MLOAD DUP4 DUP4 DUP2 MLOAD DUP2 LT PUSH2 0x23B4 JUMPI PUSH2 0x23B4 PUSH2 0x332E JUMP JUMPDEST PUSH1 0x1 PUSH1 0x1 PUSH1 0xA0 SHL SUB SWAP1 SWAP3 AND PUSH1 0x20 SWAP3 DUP4 MUL SWAP2 SWAP1 SWAP2 ADD SWAP1 SWAP2 ADD MSTORE DUP2 PUSH2 0x23D6 DUP2 PUSH2 0x3366 JUMP JUMPDEST SWAP3 POP POP JUMPDEST DUP1 PUSH2 0x23E4 DUP2 PUSH2 0x3366 JUMP JUMPDEST SWAP2 POP POP PUSH2 0x233A JUMP JUMPDEST PUSH2 0x23F4 PUSH2 0x2754 JUMP JUMPDEST PUSH1 0x1 PUSH1 0x1 PUSH1 0xA0 SHL SUB DUP2 AND PUSH2 0x2459 JUMPI PUSH1 0x40 MLOAD PUSH3 0x461BCD PUSH1 0xE5 SHL DUP2 MSTORE PUSH1 0x20 PUSH1 0x4 DUP3 ADD MSTORE PUSH1 0x26 PUSH1 0x24 DUP3 ADD MSTORE PUSH32 0x4F776E61626C653A206E6577206F776E657220697320746865207A65726F2061 PUSH1 0x44 DUP3 ADD MSTORE PUSH6 0x646472657373 PUSH1 0xD0 SHL PUSH1 0x64 DUP3 ADD MSTORE PUSH1 0x84 ADD PUSH2 0x8FF JUMP JUMPDEST PUSH2 0x1358 DUP2 PUSH2 0x2B06 JUMP JUMPDEST PUSH1 0x33 SLOAD PUSH1 0xFF AND ISZERO PUSH2 0x13F5 JUMPI PUSH1 0x40 MLOAD PUSH3 0x461BCD PUSH1 0xE5 SHL DUP2 MSTORE PUSH1 0x20 PUSH1 0x4 DUP3 ADD MSTORE PUSH1 0x10 PUSH1 0x24 DUP3 ADD MSTORE PUSH16 0x14185D5CD8589B194E881C185D5CD959 PUSH1 0x82 SHL PUSH1 0x44 DUP3 ADD MSTORE PUSH1 0x64 ADD PUSH2 0x8FF JUMP JUMPDEST PUSH1 0x0 DUP2 DUP2 MSTORE PUSH2 0x107 PUSH1 0x20 MSTORE PUSH1 0x40 DUP2 KECCAK256 PUSH1 0x4 DUP2 ADD SLOAD TIMESTAMP SWAP2 SWAP1 DUP4 SWAP1 PUSH2 0x24CB SWAP1 DUP5 PUSH2 0x32FE JUMP JUMPDEST SWAP1 POP DUP2 PUSH1 0x7 ADD SLOAD PUSH2 0x24E0 DUP3 DUP5 PUSH1 0x5 ADD SLOAD PUSH2 0x2C1A JUMP JUMPDEST DUP4 PUSH1 0x5 ADD SLOAD DUP5 PUSH1 0x2 ADD SLOAD PUSH2 0x24F4 SWAP2 SWAP1 PUSH2 0x33D8 JUMP JUMPDEST PUSH2 0x226A SWAP2 SWAP1 PUSH2 0x33C1 JUMP JUMPDEST PUSH1 0x0 DUP2 DUP2 MSTORE PUSH2 0x107 PUSH1 0x20 MSTORE PUSH1 0x40 DUP2 KECCAK256 PUSH1 0x4 DUP2 ADD SLOAD TIMESTAMP SWAP2 SWAP1 DUP4 SWAP1 PUSH2 0x2521 SWAP1 DUP5 PUSH2 0x32FE JUMP JUMPDEST SWAP1 POP PUSH1 0x0 DUP3 PUSH1 0x5 ADD SLOAD DUP4 PUSH1 0x1 ADD SLOAD PUSH2 0x2539 SWAP2 SWAP1 PUSH2 0x33D8 JUMP JUMPDEST SWAP1 POP DUP3 PUSH1 0x8 ADD SLOAD PUSH2 0x254E DUP4 DUP6 PUSH1 0x5 ADD SLOAD PUSH2 0x2C1A JUMP JUMPDEST PUSH2 0x2558 SWAP1 DUP4 PUSH2 0x33C1 JUMP JUMPDEST PUSH2 0x2562 SWAP2 SWAP1 PUSH2 0x32FE JUMP JUMPDEST SWAP7 SWAP6 POP POP POP POP POP POP JUMP JUMPDEST PUSH1 0x40 DUP1 MLOAD PUSH1 0x2 DUP1 DUP3 MSTORE PUSH1 0x60 DUP1 DUP4 ADD DUP5 MSTORE SWAP3 PUSH1 0x0 SWAP3 SWAP2 SWAP1 PUSH1 0x20 DUP4 ADD SWAP1 DUP1 CALLDATASIZE DUP4 CALLDATACOPY ADD SWAP1 POP POP SWAP1 POP DUP6 DUP2 PUSH1 0x0 DUP2 MLOAD DUP2 LT PUSH2 0x25A5 JUMPI PUSH2 0x25A5 PUSH2 0x332E JUMP JUMPDEST PUSH1 0x20 MUL PUSH1 0x20 ADD ADD SWAP1 PUSH1 0x1 PUSH1 0x1 PUSH1 0xA0 SHL SUB AND SWAP1 DUP2 PUSH1 0x1 PUSH1 0x1 PUSH1 0xA0 SHL SUB AND DUP2 MSTORE POP POP DUP4 DUP2 PUSH1 0x1 DUP2 MLOAD DUP2 LT PUSH2 0x25D9 JUMPI PUSH2 0x25D9 PUSH2 0x332E JUMP JUMPDEST PUSH1 0x1 PUSH1 0x1 PUSH1 0xA0 SHL SUB SWAP3 DUP4 AND PUSH1 0x20 SWAP2 DUP3 MUL SWAP3 SWAP1 SWAP3 ADD ADD MSTORE PUSH1 0x40 MLOAD PUSH4 0x95EA7B3 PUSH1 0xE0 SHL DUP2 MSTORE DUP5 DUP3 AND PUSH1 0x4 DUP3 ADD MSTORE PUSH1 0x24 DUP2 ADD DUP8 SWAP1 MSTORE SWAP1 DUP8 AND SWAP1 PUSH4 0x95EA7B3 SWAP1 PUSH1 0x44 ADD PUSH1 0x20 PUSH1 0x40 MLOAD DUP1 DUP4 SUB DUP2 PUSH1 0x0 DUP8 GAS CALL ISZERO DUP1 ISZERO PUSH2 0x2637 JUMPI RETURNDATASIZE PUSH1 0x0 DUP1 RETURNDATACOPY RETURNDATASIZE PUSH1 0x0 REVERT JUMPDEST POP POP POP POP PUSH1 0x40 MLOAD RETURNDATASIZE PUSH1 0x1F NOT PUSH1 0x1F DUP3 ADD AND DUP3 ADD DUP1 PUSH1 0x40 MSTORE POP DUP2 ADD SWAP1 PUSH2 0x265B SWAP2 SWAP1 PUSH2 0x3344 JUMP JUMPDEST POP PUSH1 0x0 PUSH1 0x1 PUSH1 0x1 PUSH1 0xA0 SHL SUB DUP5 AND PUSH4 0x38ED1739 DUP8 PUSH1 0x1 DUP6 ADDRESS PUSH2 0x267D TIMESTAMP PUSH1 0x64 PUSH2 0x32EB JUMP JUMPDEST PUSH1 0x40 MLOAD DUP7 PUSH4 0xFFFFFFFF AND PUSH1 0xE0 SHL DUP2 MSTORE PUSH1 0x4 ADD PUSH2 0x269D SWAP6 SWAP5 SWAP4 SWAP3 SWAP2 SWAP1 PUSH2 0x34B1 JUMP JUMPDEST PUSH1 0x0 PUSH1 0x40 MLOAD DUP1 DUP4 SUB DUP2 PUSH1 0x0 DUP8 GAS CALL ISZERO DUP1 ISZERO PUSH2 0x26BC JUMPI RETURNDATASIZE PUSH1 0x0 DUP1 RETURNDATACOPY RETURNDATASIZE PUSH1 0x0 REVERT JUMPDEST POP POP POP POP PUSH1 0x40 MLOAD RETURNDATASIZE PUSH1 0x0 DUP3 RETURNDATACOPY PUSH1 0x1F RETURNDATASIZE SWAP1 DUP2 ADD PUSH1 0x1F NOT AND DUP3 ADD PUSH1 0x40 MSTORE PUSH2 0x26E4 SWAP2 SWAP1 DUP2 ADD SWAP1 PUSH2 0x34ED JUMP JUMPDEST SWAP8 SWAP7 POP POP POP POP POP POP POP JUMP JUMPDEST PUSH1 0x0 DUP1 JUMPDEST DUP4 MLOAD DUP2 LT ISZERO PUSH2 0x274A JUMPI DUP3 PUSH1 0x1 PUSH1 0x1 PUSH1 0xA0 SHL SUB AND DUP5 DUP3 DUP2 MLOAD DUP2 LT PUSH2 0x2718 JUMPI PUSH2 0x2718 PUSH2 0x332E JUMP JUMPDEST PUSH1 0x20 MUL PUSH1 0x20 ADD ADD MLOAD PUSH1 0x1 PUSH1 0x1 PUSH1 0xA0 SHL SUB AND SUB PUSH2 0x2738 JUMPI PUSH1 0x1 SWAP2 POP POP PUSH2 0x109B JUMP JUMPDEST DUP1 PUSH2 0x2742 DUP2 PUSH2 0x3366 JUMP JUMPDEST SWAP2 POP POP PUSH2 0x26F3 JUMP JUMPDEST POP PUSH1 0x0 SWAP4 SWAP3 POP POP POP JUMP JUMPDEST PUSH1 0x65 SLOAD PUSH1 0x1 PUSH1 0x1 PUSH1 0xA0 SHL SUB AND CALLER EQ PUSH2 0x13F5 JUMPI PUSH1 0x40 MLOAD PUSH3 0x461BCD PUSH1 0xE5 SHL DUP2 MSTORE PUSH1 0x20 PUSH1 0x4 DUP3 ADD DUP2 SWAP1 MSTORE PUSH1 0x24 DUP3 ADD MSTORE PUSH32 0x4F776E61626C653A2063616C6C6572206973206E6F7420746865206F776E6572 PUSH1 0x44 DUP3 ADD MSTORE PUSH1 0x64 ADD PUSH2 0x8FF JUMP JUMPDEST PUSH1 0xFC DUP1 SLOAD PUSH1 0x1 DUP1 DUP3 ADD DUP4 SSTORE PUSH32 0x371F36870D18F32A11FEA0F144B021C8B407BB50F8E0267C711123F454B963C0 SWAP1 SWAP2 ADD DUP1 SLOAD PUSH1 0x1 PUSH1 0x1 PUSH1 0xA0 SHL SUB NOT AND PUSH1 0x1 PUSH1 0x1 PUSH1 0xA0 SHL SUB DUP10 AND SWAP1 DUP2 OR SWAP1 SWAP2 SSTORE SWAP2 SLOAD PUSH1 0x0 DUP4 DUP2 MSTORE PUSH2 0x106 PUSH1 0x20 SWAP1 DUP2 MSTORE PUSH1 0x40 DUP1 DUP4 KECCAK256 DUP5 DUP5 MSTORE PUSH2 0x107 DUP4 MSTORE SWAP1 DUP4 KECCAK256 DUP2 SLOAD DUP1 DUP8 ADD DUP4 SSTORE DUP3 DUP6 MSTORE SWAP3 DUP5 KECCAK256 SWAP1 SWAP3 ADD DUP5 SWAP1 SSTORE DUP2 SLOAD PUSH1 0x1 PUSH1 0x1 PUSH1 0xA8 SHL SUB NOT AND PUSH2 0x100 SWAP1 SWAP7 MUL SWAP6 SWAP1 SWAP6 OR DUP5 OR DUP2 SSTORE TIMESTAMP PUSH1 0x4 DUP3 ADD DUP2 SWAP1 SSTORE PUSH1 0x5 DUP3 ADD DUP8 SWAP1 SSTORE SWAP4 DUP2 ADD DUP10 SWAP1 SSTORE PUSH1 0x2 DUP2 ADD DUP9 SWAP1 SSTORE PUSH1 0x3 DUP2 ADD DUP8 SWAP1 SSTORE PUSH1 0xFD DUP1 SLOAD SWAP3 SWAP6 SWAP4 SWAP5 SWAP4 SWAP3 DUP11 SWAP2 SWAP1 DUP8 SWAP1 PUSH2 0x2882 SWAP1 DUP5 SWAP1 PUSH2 0x32EB JUMP JUMPDEST SWAP3 POP POP DUP2 SWAP1 SSTORE POP DUP8 PUSH1 0xFE PUSH1 0x0 DUP3 DUP3 SLOAD PUSH2 0x289B SWAP2 SWAP1 PUSH2 0x32EB JUMP JUMPDEST SWAP3 POP POP DUP2 SWAP1 SSTORE POP DUP6 DUP10 DUP12 PUSH1 0x1 PUSH1 0x1 PUSH1 0xA0 SHL SUB AND PUSH32 0xF556991011E831BCFAC4F406D547E5E32CDD98267EFAB83935230D5F8D02C446 DUP8 PUSH1 0x40 MLOAD PUSH2 0x28DF SWAP2 DUP2 MSTORE PUSH1 0x20 ADD SWAP1 JUMP JUMPDEST PUSH1 0x40 MLOAD DUP1 SWAP2 SUB SWAP1 LOG4 DUP6 DUP9 DUP12 PUSH1 0x1 PUSH1 0x1 PUSH1 0xA0 SHL SUB AND PUSH32 0xF556991011E831BCFAC4F406D547E5E32CDD98267EFAB83935230D5F8D02C446 DUP8 PUSH1 0x40 MLOAD PUSH2 0x2924 SWAP2 DUP2 MSTORE PUSH1 0x20 ADD SWAP1 JUMP JUMPDEST PUSH1 0x40 MLOAD DUP1 SWAP2 SUB SWAP1 LOG4 POP PUSH1 0x1 SWAP10 SWAP9 POP POP POP POP POP POP POP POP POP JUMP JUMPDEST PUSH2 0x1358 PUSH2 0x2754 JUMP JUMPDEST PUSH32 0x4910FDFA16FED3260ED0E7147F7CC6DA11A60208B5B9406D12A635614FFD9143 SLOAD PUSH1 0xFF AND ISZERO PUSH2 0x297C JUMPI PUSH2 0x2977 DUP4 PUSH2 0x2C30 JUMP JUMPDEST POP POP POP JUMP JUMPDEST DUP3 PUSH1 0x1 PUSH1 0x1 PUSH1 0xA0 SHL SUB AND PUSH4 0x52D1902D PUSH1 0x40 MLOAD DUP2 PUSH4 0xFFFFFFFF AND PUSH1 0xE0 SHL DUP2 MSTORE PUSH1 0x4 ADD PUSH1 0x20 PUSH1 0x40 MLOAD DUP1 DUP4 SUB DUP2 DUP7 GAS STATICCALL SWAP3 POP POP POP DUP1 ISZERO PUSH2 0x29D6 JUMPI POP PUSH1 0x40 DUP1 MLOAD PUSH1 0x1F RETURNDATASIZE SWAP1 DUP2 ADD PUSH1 0x1F NOT AND DUP3 ADD SWAP1 SWAP3 MSTORE PUSH2 0x29D3 SWAP2 DUP2 ADD SWAP1 PUSH2 0x3593 JUMP JUMPDEST PUSH1 0x1 JUMPDEST PUSH2 0x2A39 JUMPI PUSH1 0x40 MLOAD PUSH3 0x461BCD PUSH1 0xE5 SHL DUP2 MSTORE PUSH1 0x20 PUSH1 0x4 DUP3 ADD MSTORE PUSH1 0x2E PUSH1 0x24 DUP3 ADD MSTORE PUSH32 0x45524331393637557067726164653A206E657720696D706C656D656E74617469 PUSH1 0x44 DUP3 ADD MSTORE PUSH14 0x6F6E206973206E6F742055555053 PUSH1 0x90 SHL PUSH1 0x64 DUP3 ADD MSTORE PUSH1 0x84 ADD PUSH2 0x8FF JUMP JUMPDEST PUSH1 0x0 DUP1 MLOAD PUSH1 0x20 PUSH2 0x366B DUP4 CODECOPY DUP2 MLOAD SWAP2 MSTORE DUP2 EQ PUSH2 0x2AA8 JUMPI PUSH1 0x40 MLOAD PUSH3 0x461BCD PUSH1 0xE5 SHL DUP2 MSTORE PUSH1 0x20 PUSH1 0x4 DUP3 ADD MSTORE PUSH1 0x29 PUSH1 0x24 DUP3 ADD MSTORE PUSH32 0x45524331393637557067726164653A20756E737570706F727465642070726F78 PUSH1 0x44 DUP3 ADD MSTORE PUSH9 0x1A58589B1955555251 PUSH1 0xBA SHL PUSH1 0x64 DUP3 ADD MSTORE PUSH1 0x84 ADD PUSH2 0x8FF JUMP JUMPDEST POP PUSH2 0x2977 DUP4 DUP4 DUP4 PUSH2 0x2CCC JUMP JUMPDEST PUSH2 0x2ABC PUSH2 0x2CF7 JUMP JUMPDEST PUSH1 0x33 DUP1 SLOAD PUSH1 0xFF NOT AND SWAP1 SSTORE PUSH32 0x5DB9EE0A495BF2E6FF9C91A7834C1BA4FDD244A5E8AA4E537BD38AEAE4B073AA CALLER JUMPDEST PUSH1 0x40 MLOAD PUSH1 0x1 PUSH1 0x1 PUSH1 0xA0 SHL SUB SWAP1 SWAP2 AND DUP2 MSTORE PUSH1 0x20 ADD PUSH1 0x40 MLOAD DUP1 SWAP2 SUB SWAP1 LOG1 JUMP JUMPDEST PUSH1 0x65 DUP1 SLOAD PUSH1 0x1 PUSH1 0x1 PUSH1 0xA0 SHL SUB DUP4 DUP2 AND PUSH1 0x1 PUSH1 0x1 PUSH1 0xA0 SHL SUB NOT DUP4 AND DUP2 OR SWAP1 SWAP4 SSTORE PUSH1 0x40 MLOAD SWAP2 AND SWAP2 SWAP1 DUP3 SWAP1 PUSH32 0x8BE0079C531659141344CD1FD0A4F28419497F9722A3DAAFE3B4186F6B6457E0 SWAP1 PUSH1 0x0 SWAP1 LOG3 POP POP JUMP JUMPDEST PUSH1 0x0 SLOAD PUSH2 0x100 SWAP1 DIV PUSH1 0xFF AND PUSH2 0x2B7F JUMPI PUSH1 0x40 MLOAD PUSH3 0x461BCD PUSH1 0xE5 SHL DUP2 MSTORE PUSH1 0x4 ADD PUSH2 0x8FF SWAP1 PUSH2 0x35AC JUMP JUMPDEST PUSH2 0x13F5 PUSH2 0x2D40 JUMP JUMPDEST PUSH1 0x0 SLOAD PUSH2 0x100 SWAP1 DIV PUSH1 0xFF AND PUSH2 0x2BAE JUMPI PUSH1 0x40 MLOAD PUSH3 0x461BCD PUSH1 0xE5 SHL DUP2 MSTORE PUSH1 0x4 ADD PUSH2 0x8FF SWAP1 PUSH2 0x35AC JUMP JUMPDEST PUSH2 0x13F5 PUSH2 0x2D73 JUMP JUMPDEST PUSH1 0x0 SLOAD PUSH2 0x100 SWAP1 DIV PUSH1 0xFF AND PUSH2 0x13F5 JUMPI PUSH1 0x40 MLOAD PUSH3 0x461BCD PUSH1 0xE5 SHL DUP2 MSTORE PUSH1 0x4 ADD PUSH2 0x8FF SWAP1 PUSH2 0x35AC JUMP JUMPDEST PUSH2 0x2BE5 PUSH2 0x2462 JUMP JUMPDEST PUSH1 0x33 DUP1 SLOAD PUSH1 0xFF NOT AND PUSH1 0x1 OR SWAP1 SSTORE PUSH32 0x62E78CEA01BEE320CD4E420270B5EA74000D11B0C9F74754EBDBFC544B05A258 PUSH2 0x2AE9 CALLER SWAP1 JUMP JUMPDEST PUSH1 0x0 DUP2 DUP4 LT PUSH2 0x2C29 JUMPI DUP2 PUSH2 0x169F JUMP JUMPDEST POP SWAP1 SWAP2 SWAP1 POP JUMP JUMPDEST PUSH1 0x1 PUSH1 0x1 PUSH1 0xA0 SHL SUB DUP2 AND EXTCODESIZE PUSH2 0x2C9D JUMPI PUSH1 0x40 MLOAD PUSH3 0x461BCD PUSH1 0xE5 SHL DUP2 MSTORE PUSH1 0x20 PUSH1 0x4 DUP3 ADD MSTORE PUSH1 0x2D PUSH1 0x24 DUP3 ADD MSTORE PUSH32 0x455243313936373A206E657720696D706C656D656E746174696F6E206973206E PUSH1 0x44 DUP3 ADD MSTORE PUSH13 0x1BDD08184818DBDB9D1C9858DD PUSH1 0x9A SHL PUSH1 0x64 DUP3 ADD MSTORE PUSH1 0x84 ADD PUSH2 0x8FF JUMP JUMPDEST PUSH1 0x0 DUP1 MLOAD PUSH1 0x20 PUSH2 0x366B DUP4 CODECOPY DUP2 MLOAD SWAP2 MSTORE DUP1 SLOAD PUSH1 0x1 PUSH1 0x1 PUSH1 0xA0 SHL SUB NOT AND PUSH1 0x1 PUSH1 0x1 PUSH1 0xA0 SHL SUB SWAP3 SWAP1 SWAP3 AND SWAP2 SWAP1 SWAP2 OR SWAP1 SSTORE JUMP JUMPDEST PUSH2 0x2CD5 DUP4 PUSH2 0x2DA3 JUMP JUMPDEST PUSH1 0x0 DUP3 MLOAD GT DUP1 PUSH2 0x2CE2 JUMPI POP DUP1 JUMPDEST ISZERO PUSH2 0x2977 JUMPI PUSH2 0x2CF1 DUP4 DUP4 PUSH2 0x2DE3 JUMP JUMPDEST POP POP POP POP JUMP JUMPDEST PUSH1 0x33 SLOAD PUSH1 0xFF AND PUSH2 0x13F5 JUMPI PUSH1 0x40 MLOAD PUSH3 0x461BCD PUSH1 0xE5 SHL DUP2 MSTORE PUSH1 0x20 PUSH1 0x4 DUP3 ADD MSTORE PUSH1 0x14 PUSH1 0x24 DUP3 ADD MSTORE PUSH20 0x14185D5CD8589B194E881B9BDD081C185D5CD959 PUSH1 0x62 SHL PUSH1 0x44 DUP3 ADD MSTORE PUSH1 0x64 ADD PUSH2 0x8FF JUMP JUMPDEST PUSH1 0x0 SLOAD PUSH2 0x100 SWAP1 DIV PUSH1 0xFF AND PUSH2 0x2D67 JUMPI PUSH1 0x40 MLOAD PUSH3 0x461BCD PUSH1 0xE5 SHL DUP2 MSTORE PUSH1 0x4 ADD PUSH2 0x8FF SWAP1 PUSH2 0x35AC JUMP JUMPDEST PUSH1 0x33 DUP1 SLOAD PUSH1 0xFF NOT AND SWAP1 SSTORE JUMP JUMPDEST PUSH1 0x0 SLOAD PUSH2 0x100 SWAP1 DIV PUSH1 0xFF AND PUSH2 0x2D9A JUMPI PUSH1 0x40 MLOAD PUSH3 0x461BCD PUSH1 0xE5 SHL DUP2 MSTORE PUSH1 0x4 ADD PUSH2 0x8FF SWAP1 PUSH2 0x35AC JUMP JUMPDEST PUSH2 0x13F5 CALLER PUSH2 0x2B06 JUMP JUMPDEST PUSH2 0x2DAC DUP2 PUSH2 0x2C30 JUMP JUMPDEST PUSH1 0x40 MLOAD PUSH1 0x1 PUSH1 0x1 PUSH1 0xA0 SHL SUB DUP3 AND SWAP1 PUSH32 0xBC7CD75A20EE27FD9ADEBAB32041F755214DBC6BFFA90CC0225B39DA2E5C2D3B SWAP1 PUSH1 0x0 SWAP1 LOG2 POP JUMP JUMPDEST PUSH1 0x60 PUSH1 0x1 PUSH1 0x1 PUSH1 0xA0 SHL SUB DUP4 AND EXTCODESIZE PUSH2 0x2E4B JUMPI PUSH1 0x40 MLOAD PUSH3 0x461BCD PUSH1 0xE5 SHL DUP2 MSTORE PUSH1 0x20 PUSH1 0x4 DUP3 ADD MSTORE PUSH1 0x26 PUSH1 0x24 DUP3 ADD MSTORE PUSH32 0x416464726573733A2064656C65676174652063616C6C20746F206E6F6E2D636F PUSH1 0x44 DUP3 ADD MSTORE PUSH6 0x1B9D1C9858DD PUSH1 0xD2 SHL PUSH1 0x64 DUP3 ADD MSTORE PUSH1 0x84 ADD PUSH2 0x8FF JUMP JUMPDEST PUSH1 0x0 DUP1 DUP5 PUSH1 0x1 PUSH1 0x1 PUSH1 0xA0 SHL SUB AND DUP5 PUSH1 0x40 MLOAD PUSH2 0x2E66 SWAP2 SWAP1 PUSH2 0x361B JUMP JUMPDEST PUSH1 0x0 PUSH1 0x40 MLOAD DUP1 DUP4 SUB DUP2 DUP6 GAS DELEGATECALL SWAP2 POP POP RETURNDATASIZE DUP1 PUSH1 0x0 DUP2 EQ PUSH2 0x2EA1 JUMPI PUSH1 0x40 MLOAD SWAP2 POP PUSH1 0x1F NOT PUSH1 0x3F RETURNDATASIZE ADD AND DUP3 ADD PUSH1 0x40 MSTORE RETURNDATASIZE DUP3 MSTORE RETURNDATASIZE PUSH1 0x0 PUSH1 0x20 DUP5 ADD RETURNDATACOPY PUSH2 0x2EA6 JUMP JUMPDEST PUSH1 0x60 SWAP2 POP JUMPDEST POP SWAP2 POP SWAP2 POP PUSH2 0x2274 DUP3 DUP3 PUSH1 0x40 MLOAD DUP1 PUSH1 0x60 ADD PUSH1 0x40 MSTORE DUP1 PUSH1 0x27 DUP2 MSTORE PUSH1 0x20 ADD PUSH2 0x368B PUSH1 0x27 SWAP2 CODECOPY PUSH1 0x60 DUP4 ISZERO PUSH2 0x2ED8 JUMPI POP DUP2 PUSH2 0x169F JUMP JUMPDEST PUSH2 0x169F DUP4 DUP4 DUP2 MLOAD ISZERO PUSH2 0x2EED JUMPI DUP2 MLOAD DUP1 DUP4 PUSH1 0x20 ADD REVERT JUMPDEST DUP1 PUSH1 0x40 MLOAD PUSH3 0x461BCD PUSH1 0xE5 SHL DUP2 MSTORE PUSH1 0x4 ADD PUSH2 0x8FF SWAP2 SWAP1 PUSH2 0x3637 JUMP JUMPDEST PUSH1 0x0 PUSH1 0x20 DUP3 DUP5 SUB SLT ISZERO PUSH2 0x2F19 JUMPI PUSH1 0x0 DUP1 REVERT JUMPDEST POP CALLDATALOAD SWAP2 SWAP1 POP JUMP JUMPDEST PUSH1 0x0 DUP2 MLOAD DUP1 DUP5 MSTORE PUSH1 0x20 DUP1 DUP6 ADD SWAP5 POP DUP1 DUP5 ADD PUSH1 0x0 JUMPDEST DUP4 DUP2 LT ISZERO PUSH2 0x2F59 JUMPI DUP2 MLOAD PUSH1 0x1 PUSH1 0x1 PUSH1 0xA0 SHL SUB AND DUP8 MSTORE SWAP6 DUP3 ADD SWAP6 SWAP1 DUP3 ADD SWAP1 PUSH1 0x1 ADD PUSH2 0x2F34 JUMP JUMPDEST POP SWAP5 SWAP6 SWAP5 POP POP POP POP POP JUMP JUMPDEST PUSH1 0x20 DUP2 MSTORE PUSH1 0x0 PUSH2 0x169F PUSH1 0x20 DUP4 ADD DUP5 PUSH2 0x2F20 JUMP JUMPDEST PUSH1 0x1 PUSH1 0x1 PUSH1 0xA0 SHL SUB DUP2 AND DUP2 EQ PUSH2 0x1358 JUMPI PUSH1 0x0 DUP1 REVERT JUMPDEST PUSH1 0x0 DUP1 PUSH1 0x40 DUP4 DUP6 SUB SLT ISZERO PUSH2 0x2F9F JUMPI PUSH1 0x0 DUP1 REVERT JUMPDEST DUP3 CALLDATALOAD PUSH2 0x2FAA DUP2 PUSH2 0x2F77 JUMP JUMPDEST SWAP5 PUSH1 0x20 SWAP4 SWAP1 SWAP4 ADD CALLDATALOAD SWAP4 POP POP POP JUMP JUMPDEST PUSH1 0x0 PUSH1 0x20 DUP3 DUP5 SUB SLT ISZERO PUSH2 0x2FCA JUMPI PUSH1 0x0 DUP1 REVERT JUMPDEST DUP2 CALLDATALOAD PUSH2 0x169F DUP2 PUSH2 0x2F77 JUMP JUMPDEST PUSH1 0x0 DUP1 PUSH1 0x0 PUSH1 0x60 DUP5 DUP7 SUB SLT ISZERO PUSH2 0x2FEA JUMPI PUSH1 0x0 DUP1 REVERT JUMPDEST DUP4 CALLDATALOAD PUSH2 0x2FF5 DUP2 PUSH2 0x2F77 JUMP JUMPDEST SWAP6 PUSH1 0x20 DUP6 ADD CALLDATALOAD SWAP6 POP PUSH1 0x40 SWAP1 SWAP5 ADD CALLDATALOAD SWAP4 SWAP3 POP POP POP JUMP JUMPDEST PUSH1 0x0 DUP1 PUSH1 0x20 DUP4 DUP6 SUB SLT ISZERO PUSH2 0x301D JUMPI PUSH1 0x0 DUP1 REVERT JUMPDEST DUP3 CALLDATALOAD PUSH8 0xFFFFFFFFFFFFFFFF DUP1 DUP3 GT ISZERO PUSH2 0x3035 JUMPI PUSH1 0x0 DUP1 REVERT JUMPDEST DUP2 DUP6 ADD SWAP2 POP DUP6 PUSH1 0x1F DUP4 ADD SLT PUSH2 0x3049 JUMPI PUSH1 0x0 DUP1 REVERT JUMPDEST DUP2 CALLDATALOAD DUP2 DUP2 GT ISZERO PUSH2 0x3058 JUMPI PUSH1 0x0 DUP1 REVERT JUMPDEST DUP7 PUSH1 0x20 DUP3 PUSH1 0x5 SHL DUP6 ADD ADD GT ISZERO PUSH2 0x306D JUMPI PUSH1 0x0 DUP1 REVERT JUMPDEST PUSH1 0x20 SWAP3 SWAP1 SWAP3 ADD SWAP7 SWAP2 SWAP6 POP SWAP1 SWAP4 POP POP POP POP JUMP JUMPDEST PUSH4 0x4E487B71 PUSH1 0xE0 SHL PUSH1 0x0 MSTORE PUSH1 0x41 PUSH1 0x4 MSTORE PUSH1 0x24 PUSH1 0x0 REVERT JUMPDEST PUSH1 0x40 MLOAD PUSH1 0x1F DUP3 ADD PUSH1 0x1F NOT AND DUP2 ADD PUSH8 0xFFFFFFFFFFFFFFFF DUP2 GT DUP3 DUP3 LT OR ISZERO PUSH2 0x30BE JUMPI PUSH2 0x30BE PUSH2 0x307F JUMP JUMPDEST PUSH1 0x40 MSTORE SWAP2 SWAP1 POP JUMP JUMPDEST PUSH1 0x0 DUP1 PUSH1 0x40 DUP4 DUP6 SUB SLT ISZERO PUSH2 0x30D9 JUMPI PUSH1 0x0 DUP1 REVERT JUMPDEST DUP3 CALLDATALOAD PUSH2 0x30E4 DUP2 PUSH2 0x2F77 JUMP JUMPDEST SWAP2 POP PUSH1 0x20 DUP4 DUP2 ADD CALLDATALOAD PUSH8 0xFFFFFFFFFFFFFFFF DUP1 DUP3 GT ISZERO PUSH2 0x3102 JUMPI PUSH1 0x0 DUP1 REVERT JUMPDEST DUP2 DUP7 ADD SWAP2 POP DUP7 PUSH1 0x1F DUP4 ADD SLT PUSH2 0x3116 JUMPI PUSH1 0x0 DUP1 REVERT JUMPDEST DUP2 CALLDATALOAD DUP2 DUP2 GT ISZERO PUSH2 0x3128 JUMPI PUSH2 0x3128 PUSH2 0x307F JUMP JUMPDEST PUSH2 0x313A PUSH1 0x1F DUP3 ADD PUSH1 0x1F NOT AND DUP6 ADD PUSH2 0x3095 JUMP JUMPDEST SWAP2 POP DUP1 DUP3 MSTORE DUP8 DUP5 DUP3 DUP6 ADD ADD GT ISZERO PUSH2 0x3150 JUMPI PUSH1 0x0 DUP1 REVERT JUMPDEST DUP1 DUP5 DUP5 ADD DUP6 DUP5 ADD CALLDATACOPY PUSH1 0x0 DUP5 DUP3 DUP5 ADD ADD MSTORE POP DUP1 SWAP4 POP POP POP POP SWAP3 POP SWAP3 SWAP1 POP JUMP JUMPDEST PUSH1 0x0 DUP1 PUSH1 0x0 PUSH1 0x60 DUP5 DUP7 SUB SLT ISZERO PUSH2 0x3183 JUMPI PUSH1 0x0 DUP1 REVERT JUMPDEST DUP4 CALLDATALOAD PUSH2 0x318E DUP2 PUSH2 0x2F77 JUMP JUMPDEST SWAP3 POP PUSH1 0x20 DUP5 ADD CALLDATALOAD PUSH2 0x319E DUP2 PUSH2 0x2F77 JUMP JUMPDEST SWAP3 SWAP6 SWAP3 SWAP5 POP POP POP PUSH1 0x40 SWAP2 SWAP1 SWAP2 ADD CALLDATALOAD SWAP1 JUMP JUMPDEST PUSH1 0x0 DUP2 MLOAD DUP1 DUP5 MSTORE PUSH1 0x20 DUP1 DUP6 ADD SWAP5 POP DUP1 DUP5 ADD PUSH1 0x0 JUMPDEST DUP4 DUP2 LT ISZERO PUSH2 0x2F59 JUMPI DUP2 MLOAD DUP8 MSTORE SWAP6 DUP3 ADD SWAP6 SWAP1 DUP3 ADD SWAP1 PUSH1 0x1 ADD PUSH2 0x31C3 JUMP JUMPDEST PUSH1 0x20 DUP2 MSTORE PUSH1 0x0 PUSH2 0x169F PUSH1 0x20 DUP4 ADD DUP5 PUSH2 0x31AF JUMP JUMPDEST PUSH1 0x0 PUSH1 0x20 DUP3 DUP5 SUB SLT ISZERO PUSH2 0x3204 JUMPI PUSH1 0x0 DUP1 REVERT JUMPDEST DUP2 CALLDATALOAD PUSH1 0xFF DUP2 AND DUP2 EQ PUSH2 0x169F JUMPI PUSH1 0x0 DUP1 REVERT JUMPDEST DUP2 MLOAD ISZERO ISZERO DUP2 MSTORE PUSH2 0x160 DUP2 ADD PUSH1 0x20 DUP4 ADD MLOAD PUSH2 0x323A PUSH1 0x20 DUP5 ADD DUP3 PUSH1 0x1 PUSH1 0x1 PUSH1 0xA0 SHL SUB AND SWAP1 MSTORE JUMP JUMPDEST POP PUSH1 0x40 DUP4 ADD MLOAD PUSH1 0x40 DUP4 ADD MSTORE PUSH1 0x60 DUP4 ADD MLOAD PUSH1 0x60 DUP4 ADD MSTORE PUSH1 0x80 DUP4 ADD MLOAD PUSH1 0x80 DUP4 ADD MSTORE PUSH1 0xA0 DUP4 ADD MLOAD PUSH1 0xA0 DUP4 ADD MSTORE PUSH1 0xC0 DUP4 ADD MLOAD PUSH1 0xC0 DUP4 ADD MSTORE PUSH1 0xE0 DUP4 ADD MLOAD PUSH1 0xE0 DUP4 ADD MSTORE PUSH2 0x100 DUP1 DUP5 ADD MLOAD DUP2 DUP5 ADD MSTORE POP PUSH2 0x120 DUP1 DUP5 ADD MLOAD DUP2 DUP5 ADD MSTORE POP PUSH2 0x140 DUP1 DUP5 ADD MLOAD DUP2 DUP5 ADD MSTORE POP SWAP3 SWAP2 POP POP JUMP JUMPDEST PUSH1 0x20 DUP2 MSTORE PUSH1 0x0 DUP3 MLOAD PUSH1 0x40 PUSH1 0x20 DUP5 ADD MSTORE PUSH2 0x32BD PUSH1 0x60 DUP5 ADD DUP3 PUSH2 0x31AF JUMP JUMPDEST SWAP1 POP PUSH1 0x20 DUP5 ADD MLOAD ISZERO ISZERO PUSH1 0x40 DUP5 ADD MSTORE DUP1 SWAP2 POP POP SWAP3 SWAP2 POP POP JUMP JUMPDEST PUSH4 0x4E487B71 PUSH1 0xE0 SHL PUSH1 0x0 MSTORE PUSH1 0x11 PUSH1 0x4 MSTORE PUSH1 0x24 PUSH1 0x0 REVERT JUMPDEST DUP1 DUP3 ADD DUP1 DUP3 GT ISZERO PUSH2 0x109B JUMPI PUSH2 0x109B PUSH2 0x32D5 JUMP JUMPDEST DUP2 DUP2 SUB DUP2 DUP2 GT ISZERO PUSH2 0x109B JUMPI PUSH2 0x109B PUSH2 0x32D5 JUMP JUMPDEST PUSH1 0x0 PUSH1 0x20 DUP3 DUP5 SUB SLT ISZERO PUSH2 0x3323 JUMPI PUSH1 0x0 DUP1 REVERT JUMPDEST DUP2 MLOAD PUSH2 0x169F DUP2 PUSH2 0x2F77 JUMP JUMPDEST PUSH4 0x4E487B71 PUSH1 0xE0 SHL PUSH1 0x0 MSTORE PUSH1 0x32 PUSH1 0x4 MSTORE PUSH1 0x24 PUSH1 0x0 REVERT JUMPDEST PUSH1 0x0 PUSH1 0x20 DUP3 DUP5 SUB SLT ISZERO PUSH2 0x3356 JUMPI PUSH1 0x0 DUP1 REVERT JUMPDEST DUP2 MLOAD DUP1 ISZERO ISZERO DUP2 EQ PUSH2 0x169F JUMPI PUSH1 0x0 DUP1 REVERT JUMPDEST PUSH1 0x0 PUSH1 0x1 DUP3 ADD PUSH2 0x3378 JUMPI PUSH2 0x3378 PUSH2 0x32D5 JUMP JUMPDEST POP PUSH1 0x1 ADD SWAP1 JUMP JUMPDEST PUSH1 0x20 DUP1 DUP3 MSTORE PUSH1 0x22 SWAP1 DUP3 ADD MSTORE PUSH32 0x4F6E6C79206F776E65722063616E2063616C6C20746869732066756E6374696F PUSH1 0x40 DUP3 ADD MSTORE PUSH2 0x3717 PUSH1 0xF1 SHL PUSH1 0x60 DUP3 ADD MSTORE PUSH1 0x80 ADD SWAP1 JUMP JUMPDEST DUP1 DUP3 MUL DUP2 ISZERO DUP3 DUP3 DIV DUP5 EQ OR PUSH2 0x109B JUMPI PUSH2 0x109B PUSH2 0x32D5 JUMP JUMPDEST PUSH1 0x0 DUP3 PUSH2 0x33F5 JUMPI PUSH4 0x4E487B71 PUSH1 0xE0 SHL PUSH1 0x0 MSTORE PUSH1 0x12 PUSH1 0x4 MSTORE PUSH1 0x24 PUSH1 0x0 REVERT JUMPDEST POP DIV SWAP1 JUMP JUMPDEST PUSH1 0x20 DUP1 DUP3 MSTORE PUSH1 0x2C SWAP1 DUP3 ADD MSTORE PUSH32 0x46756E6374696F6E206D7573742062652063616C6C6564207468726F75676820 PUSH1 0x40 DUP3 ADD MSTORE PUSH12 0x19195B1959D85D1958D85B1B PUSH1 0xA2 SHL PUSH1 0x60 DUP3 ADD MSTORE PUSH1 0x80 ADD SWAP1 JUMP JUMPDEST PUSH1 0x20 DUP1 DUP3 MSTORE PUSH1 0x2C SWAP1 DUP3 ADD MSTORE PUSH32 0x46756E6374696F6E206D7573742062652063616C6C6564207468726F75676820 PUSH1 0x40 DUP3 ADD MSTORE PUSH12 0x6163746976652070726F7879 PUSH1 0xA0 SHL PUSH1 0x60 DUP3 ADD MSTORE PUSH1 0x80 ADD SWAP1 JUMP JUMPDEST PUSH1 0x0 PUSH1 0xFF DUP3 AND PUSH1 0xFF DUP2 SUB PUSH2 0x34A8 JUMPI PUSH2 0x34A8 PUSH2 0x32D5 JUMP JUMPDEST PUSH1 0x1 ADD SWAP3 SWAP2 POP POP JUMP JUMPDEST DUP6 DUP2 MSTORE DUP5 PUSH1 0x20 DUP3 ADD MSTORE PUSH1 0xA0 PUSH1 0x40 DUP3 ADD MSTORE PUSH1 0x0 PUSH2 0x34D0 PUSH1 0xA0 DUP4 ADD DUP7 PUSH2 0x2F20 JUMP JUMPDEST PUSH1 0x1 PUSH1 0x1 PUSH1 0xA0 SHL SUB SWAP5 SWAP1 SWAP5 AND PUSH1 0x60 DUP4 ADD MSTORE POP PUSH1 0x80 ADD MSTORE SWAP4 SWAP3 POP POP POP JUMP JUMPDEST PUSH1 0x0 PUSH1 0x20 DUP1 DUP4 DUP6 SUB SLT ISZERO PUSH2 0x3500 JUMPI PUSH1 0x0 DUP1 REVERT JUMPDEST DUP3 MLOAD PUSH8 0xFFFFFFFFFFFFFFFF DUP1 DUP3 GT ISZERO PUSH2 0x3518 JUMPI PUSH1 0x0 DUP1 REVERT JUMPDEST DUP2 DUP6 ADD SWAP2 POP DUP6 PUSH1 0x1F DUP4 ADD SLT PUSH2 0x352C JUMPI PUSH1 0x0 DUP1 REVERT JUMPDEST DUP2 MLOAD DUP2 DUP2 GT ISZERO PUSH2 0x353E JUMPI PUSH2 0x353E PUSH2 0x307F JUMP JUMPDEST DUP1 PUSH1 0x5 SHL SWAP2 POP PUSH2 0x354F DUP5 DUP4 ADD PUSH2 0x3095 JUMP JUMPDEST DUP2 DUP2 MSTORE SWAP2 DUP4 ADD DUP5 ADD SWAP2 DUP5 DUP2 ADD SWAP1 DUP9 DUP5 GT ISZERO PUSH2 0x3569 JUMPI PUSH1 0x0 DUP1 REVERT JUMPDEST SWAP4 DUP6 ADD SWAP4 JUMPDEST DUP4 DUP6 LT ISZERO PUSH2 0x3587 JUMPI DUP5 MLOAD DUP3 MSTORE SWAP4 DUP6 ADD SWAP4 SWAP1 DUP6 ADD SWAP1 PUSH2 0x356E JUMP JUMPDEST SWAP9 SWAP8 POP POP POP POP POP POP POP POP JUMP JUMPDEST PUSH1 0x0 PUSH1 0x20 DUP3 DUP5 SUB SLT ISZERO PUSH2 0x35A5 JUMPI PUSH1 0x0 DUP1 REVERT JUMPDEST POP MLOAD SWAP2 SWAP1 POP JUMP JUMPDEST PUSH1 0x20 DUP1 DUP3 MSTORE PUSH1 0x2B SWAP1 DUP3 ADD MSTORE PUSH32 0x496E697469616C697A61626C653A20636F6E7472616374206973206E6F742069 PUSH1 0x40 DUP3 ADD MSTORE PUSH11 0x6E697469616C697A696E67 PUSH1 0xA8 SHL PUSH1 0x60 DUP3 ADD MSTORE PUSH1 0x80 ADD SWAP1 JUMP JUMPDEST PUSH1 0x0 JUMPDEST DUP4 DUP2 LT ISZERO PUSH2 0x3612 JUMPI DUP2 DUP2 ADD MLOAD DUP4 DUP3 ADD MSTORE PUSH1 0x20 ADD PUSH2 0x35FA JUMP JUMPDEST POP POP PUSH1 0x0 SWAP2 ADD MSTORE JUMP JUMPDEST PUSH1 0x0 DUP3 MLOAD PUSH2 0x362D DUP2 DUP5 PUSH1 0x20 DUP8 ADD PUSH2 0x35F7 JUMP JUMPDEST SWAP2 SWAP1 SWAP2 ADD SWAP3 SWAP2 POP POP JUMP JUMPDEST PUSH1 0x20 DUP2 MSTORE PUSH1 0x0 DUP3 MLOAD DUP1 PUSH1 0x20 DUP5 ADD MSTORE PUSH2 0x3656 DUP2 PUSH1 0x40 DUP6 ADD PUSH1 0x20 DUP8 ADD PUSH2 0x35F7 JUMP JUMPDEST PUSH1 0x1F ADD PUSH1 0x1F NOT AND SWAP2 SWAP1 SWAP2 ADD PUSH1 0x40 ADD SWAP3 SWAP2 POP POP JUMP INVALID CALLDATASIZE ADDMOD SWAP5 LOG1 EXTCODESIZE LOG1 LOG3 0x21 MOD PUSH8 0xC828492DB98DCA3E KECCAK256 PUSH23 0xCC3735A920A3CA505D382BBC416464726573733A206C6F PUSH24 0x2D6C6576656C2064656C65676174652063616C6C20666169 PUSH13 0x6564A26469706673582212201C DUP14 TIMESTAMP 0xB8 REVERT DUP3 PUSH23 0xAA5A6899D7A1704952B96DA3449968F8197CBC8EA0C7CD SWAP16 0xBF PUSH5 0x736F6C6343 STOP ADDMOD GT STOP CALLER "},"methodIdentifiers":{"activeStakersList()":"dba4358c","allStakersList()":"c06a5388","claimStakingReward(uint256)":"239cd4a4","disableAccounts(address[])":"3b09098f","enableAccounts(address[])":"53bdadea","getActiveStakingIDs()":"6f72693b","getDisabledAccountsList()":"260cb4e9","getStakingCappings()":"e3a51f58","getStakingReleaseRewardRate()":"1e6f8fe7","getStakingReward(uint256)":"abfe35ad","getStakingRewardClaimTimeLimit()":"22ae497e","getStakingRewardClaimTimeRemaining(uint256)":"08141e4e","getStakingTimeRemaining(uint256)":"d8ba90b7","getTotalStakingRewardDistributed()":"7ce574bf","getTotalValueStaked()":"deede654","getUserAllStakingsRewards(address)":"9c3fe28a","getUserStakingIDs(address)":"6f51b20b","getUserTotalPrincipalClaimed(address)":"628b372b","getUserTotalRewardClaimedANUSD(address)":"28796bbd","getUserTotalRewardClaimedToken(address)":"66e5e570","getUserTotalValueStaked(address)":"5f869714","initialize()":"8129fc1c","isAccountDisabled(address)":"a40b5891","isStaked(address)":"6177fd18","owner()":"8da5cb5b","pause()":"8456cb59","paused()":"5c975abb","proxiableUUID()":"52d1902d","renounceOwnership()":"715018a6","setMinStakingValue(uint256)":"d596fe7f","setStakingDuration(uint256)":"6a8ca691","setStakingReleaseRewardRate(uint8)":"736e9b94","setStakingRewardClaimTimeLimity(uint256)":"5cbfd021","setStakingRewardRate(uint256)":"b7d68519","stakeByAdmin(address,uint256,uint256)":"310c9b20","stakeInfoMap(uint256)":"a7566b75","stakeTopUpByAdmin(address,uint256)":"900a253b","transferOwnership(address)":"f2fde38b","unpause()":"3f4ba83a","upgradeTo(address)":"3659cfe6","upgradeToAndCall(address,bytes)":"4f1ef286","userAccountMap(address)":"ba4f678e","withdrawNativeFunds(address,uint256)":"26792aca","withdrawTokens(address,address,uint256)":"5e35359e"}},"storageLayout":{"storage":[{"astId":527,"contract":"contracts/StakingUpgradeable.sol:StakingUpgradeable","label":"_initialized","offset":0,"slot":"0","type":"t_uint8"},{"astId":530,"contract":"contracts/StakingUpgradeable.sol:StakingUpgradeable","label":"_initializing","offset":1,"slot":"0","type":"t_bool"},{"astId":1355,"contract":"contracts/StakingUpgradeable.sol:StakingUpgradeable","label":"__gap","offset":0,"slot":"1","type":"t_array(t_uint256)50_storage"},{"astId":846,"contract":"contracts/StakingUpgradeable.sol:StakingUpgradeable","label":"_paused","offset":0,"slot":"51","type":"t_bool"},{"astId":951,"contract":"contracts/StakingUpgradeable.sol:StakingUpgradeable","label":"__gap","offset":0,"slot":"52","type":"t_array(t_uint256)49_storage"},{"astId":10,"contract":"contracts/StakingUpgradeable.sol:StakingUpgradeable","label":"_owner","offset":0,"slot":"101","type":"t_address"},{"astId":130,"contract":"contracts/StakingUpgradeable.sol:StakingUpgradeable","label":"__gap","offset":0,"slot":"102","type":"t_array(t_uint256)49_storage"},{"astId":509,"contract":"contracts/StakingUpgradeable.sol:StakingUpgradeable","label":"__gap","offset":0,"slot":"151","type":"t_array(t_uint256)50_storage"},{"astId":824,"contract":"contracts/StakingUpgradeable.sol:StakingUpgradeable","label":"__gap","offset":0,"slot":"201","type":"t_array(t_uint256)50_storage"},{"astId":2563,"contract":"contracts/StakingUpgradeable.sol:StakingUpgradeable","label":"_variablesContract","offset":0,"slot":"251","type":"t_address"},{"astId":2566,"contract":"contracts/StakingUpgradeable.sol:StakingUpgradeable","label":"_stakers","offset":0,"slot":"252","type":"t_array(t_address)dyn_storage"},{"astId":2568,"contract":"contracts/StakingUpgradeable.sol:StakingUpgradeable","label":"_totalValueStakedInToken","offset":0,"slot":"253","type":"t_uint256"},{"astId":2570,"contract":"contracts/StakingUpgradeable.sol:StakingUpgradeable","label":"_totalValueStakedInANUSD","offset":0,"slot":"254","type":"t_uint256"},{"astId":2572,"contract":"contracts/StakingUpgradeable.sol:StakingUpgradeable","label":"_totalPrincipalClaimed","offset":0,"slot":"255","type":"t_uint256"},{"astId":2574,"contract":"contracts/StakingUpgradeable.sol:StakingUpgradeable","label":"_rewardsDistributedInToken","offset":0,"slot":"256","type":"t_uint256"},{"astId":2576,"contract":"contracts/StakingUpgradeable.sol:StakingUpgradeable","label":"_rewardsDistributedInANUSD","offset":0,"slot":"257","type":"t_uint256"},{"astId":2578,"contract":"contracts/StakingUpgradeable.sol:StakingUpgradeable","label":"_minStakingValue","offset":0,"slot":"258","type":"t_uint256"},{"astId":2580,"contract":"contracts/StakingUpgradeable.sol:StakingUpgradeable","label":"_stakingRewardRate","offset":0,"slot":"259","type":"t_uint256"},{"astId":2582,"contract":"contracts/StakingUpgradeable.sol:StakingUpgradeable","label":"_stakingDuration","offset":0,"slot":"260","type":"t_uint256"},{"astId":2584,"contract":"contracts/StakingUpgradeable.sol:StakingUpgradeable","label":"_stakingRewardClaimTimeLimit","offset":0,"slot":"261","type":"t_uint256"},{"astId":2618,"contract":"contracts/StakingUpgradeable.sol:StakingUpgradeable","label":"account","offset":0,"slot":"262","type":"t_mapping(t_address,t_struct(Account)2590_storage)"},{"astId":2623,"contract":"contracts/StakingUpgradeable.sol:StakingUpgradeable","label":"stakeInfo","offset":0,"slot":"263","type":"t_mapping(t_uint256,t_struct(StakeInfo)2613_storage)"},{"astId":2659,"contract":"contracts/StakingUpgradeable.sol:StakingUpgradeable","label":"_stakingReleaseRewardRate","offset":0,"slot":"264","type":"t_uint8"}],"types":{"t_address":{"encoding":"inplace","label":"address","numberOfBytes":"20"},"t_array(t_address)dyn_storage":{"base":"t_address","encoding":"dynamic_array","label":"address[]","numberOfBytes":"32"},"t_array(t_uint256)49_storage":{"base":"t_uint256","encoding":"inplace","label":"uint256[49]","numberOfBytes":"1568"},"t_array(t_uint256)50_storage":{"base":"t_uint256","encoding":"inplace","label":"uint256[50]","numberOfBytes":"1600"},"t_array(t_uint256)dyn_storage":{"base":"t_uint256","encoding":"dynamic_array","label":"uint256[]","numberOfBytes":"32"},"t_bool":{"encoding":"inplace","label":"bool","numberOfBytes":"1"},"t_mapping(t_address,t_struct(Account)2590_storage)":{"encoding":"mapping","key":"t_address","label":"mapping(address => struct StakingUpgradeable.Account)","numberOfBytes":"32","value":"t_struct(Account)2590_storage"},"t_mapping(t_uint256,t_struct(StakeInfo)2613_storage)":{"encoding":"mapping","key":"t_uint256","label":"mapping(uint256 => struct StakingUpgradeable.StakeInfo)","numberOfBytes":"32","value":"t_struct(StakeInfo)2613_storage"},"t_struct(Account)2590_storage":{"encoding":"inplace","label":"struct StakingUpgradeable.Account","members":[{"astId":2587,"contract":"contracts/StakingUpgradeable.sol:StakingUpgradeable","label":"stakingID","offset":0,"slot":"0","type":"t_array(t_uint256)dyn_storage"},{"astId":2589,"contract":"contracts/StakingUpgradeable.sol:StakingUpgradeable","label":"isDisabled","offset":0,"slot":"1","type":"t_bool"}],"numberOfBytes":"64"},"t_struct(StakeInfo)2613_storage":{"encoding":"inplace","label":"struct StakingUpgradeable.StakeInfo","members":[{"astId":2592,"contract":"contracts/StakingUpgradeable.sol:StakingUpgradeable","label":"isStaked","offset":0,"slot":"0","type":"t_bool"},{"astId":2594,"contract":"contracts/StakingUpgradeable.sol:StakingUpgradeable","label":"owner","offset":1,"slot":"0","type":"t_address"},{"astId":2596,"contract":"contracts/StakingUpgradeable.sol:StakingUpgradeable","label":"valueInToken","offset":0,"slot":"1","type":"t_uint256"},{"astId":2598,"contract":"contracts/StakingUpgradeable.sol:StakingUpgradeable","label":"valueInANUSD","offset":0,"slot":"2","type":"t_uint256"},{"astId":2600,"contract":"contracts/StakingUpgradeable.sol:StakingUpgradeable","label":"rewardRate","offset":0,"slot":"3","type":"t_uint256"},{"astId":2602,"contract":"contracts/StakingUpgradeable.sol:StakingUpgradeable","label":"startTime","offset":0,"slot":"4","type":"t_uint256"},{"astId":2604,"contract":"contracts/StakingUpgradeable.sol:StakingUpgradeable","label":"duration","offset":0,"slot":"5","type":"t_uint256"},{"astId":2606,"contract":"contracts/StakingUpgradeable.sol:StakingUpgradeable","label":"rewardClaimedToken","offset":0,"slot":"6","type":"t_uint256"},{"astId":2608,"contract":"contracts/StakingUpgradeable.sol:StakingUpgradeable","label":"rewardClaimedANUSD","offset":0,"slot":"7","type":"t_uint256"},{"astId":2610,"contract":"contracts/StakingUpgradeable.sol:StakingUpgradeable","label":"principalClaimed","offset":0,"slot":"8","type":"t_uint256"},{"astId":2612,"contract":"contracts/StakingUpgradeable.sol:StakingUpgradeable","label":"lastTimeRewardClaimed","offset":0,"slot":"9","type":"t_uint256"}],"numberOfBytes":"320"},"t_uint256":{"encoding":"inplace","label":"uint256","numberOfBytes":"32"},"t_uint8":{"encoding":"inplace","label":"uint8","numberOfBytes":"1"}}}}}}