{"contracts/ReferralUpgradeable.sol":{"ReferralUpgradeable":{"abi":[{"anonymous":false,"inputs":[{"indexed":false,"internalType":"address","name":"previousAdmin","type":"address"},{"indexed":false,"internalType":"address","name":"newAdmin","type":"address"}],"name":"AdminChanged","type":"event"},{"anonymous":false,"inputs":[{"indexed":true,"internalType":"address","name":"beacon","type":"address"}],"name":"BeaconUpgraded","type":"event"},{"anonymous":false,"inputs":[{"indexed":true,"internalType":"address","name":"userAddressaddress","type":"address"}],"name":"CoreMemberAdded","type":"event"},{"anonymous":false,"inputs":[{"indexed":false,"internalType":"address","name":"userAddress","type":"address"}],"name":"CoreMemberRemoved","type":"event"},{"anonymous":false,"inputs":[{"indexed":true,"internalType":"uint256","name":"value","type":"uint256"},{"indexed":true,"internalType":"address","name":"userAddress","type":"address"}],"name":"CoreMemberRewardPaid","type":"event"},{"anonymous":false,"inputs":[{"indexed":false,"internalType":"address","name":"userAddress","type":"address"}],"name":"GlobalAddressAdded","type":"event"},{"anonymous":false,"inputs":[{"indexed":false,"internalType":"address","name":"userAddress","type":"address"}],"name":"GlobalAddressRemoved","type":"event"},{"anonymous":false,"inputs":[{"indexed":false,"internalType":"uint256","name":"value","type":"uint256"},{"indexed":false,"internalType":"address","name":"userAddress","type":"address"}],"name":"GlobalRewardPaid","type":"event"},{"anonymous":false,"inputs":[{"indexed":false,"internalType":"uint8","name":"version","type":"uint8"}],"name":"Initialized","type":"event"},{"anonymous":false,"inputs":[{"indexed":true,"internalType":"address","name":"previousOwner","type":"address"},{"indexed":true,"internalType":"address","name":"newOwner","type":"address"}],"name":"OwnershipTransferred","type":"event"},{"anonymous":false,"inputs":[{"indexed":true,"internalType":"uint256","name":"value","type":"uint256"},{"indexed":true,"internalType":"address","name":"userAddress","type":"address"}],"name":"PassiveRewardPaid","type":"event"},{"anonymous":false,"inputs":[{"indexed":false,"internalType":"address","name":"account","type":"address"}],"name":"Paused","type":"event"},{"anonymous":false,"inputs":[{"indexed":true,"internalType":"address","name":"referee","type":"address"},{"indexed":true,"internalType":"address","name":"referrer","type":"address"},{"indexed":true,"internalType":"uint256","name":"amount","type":"uint256"},{"indexed":false,"internalType":"uint256","name":"level","type":"uint256"},{"indexed":false,"internalType":"string","name":"currency","type":"string"}],"name":"ReferralRewardPaid","type":"event"},{"anonymous":false,"inputs":[{"indexed":true,"internalType":"address","name":"referee","type":"address"},{"indexed":true,"internalType":"address","name":"referrer","type":"address"},{"indexed":true,"internalType":"string","name":"reason","type":"string"}],"name":"RegisterRefererFailed","type":"event"},{"anonymous":false,"inputs":[{"indexed":true,"internalType":"address","name":"referee","type":"address"},{"indexed":true,"internalType":"address","name":"referrer","type":"address"}],"name":"RegisteredReferer","type":"event"},{"anonymous":false,"inputs":[{"indexed":true,"internalType":"address","name":"parent","type":"address"},{"indexed":true,"internalType":"address","name":"referrer","type":"address"},{"indexed":true,"internalType":"address","name":"referee","type":"address"}],"name":"RegisteredTeamAddress","type":"event"},{"anonymous":false,"inputs":[{"indexed":false,"internalType":"address","name":"userAddress","type":"address"},{"indexed":false,"internalType":"uint8","name":"rewardId","type":"uint8"}],"name":"RewardAccountAdded","type":"event"},{"anonymous":false,"inputs":[{"indexed":false,"internalType":"address","name":"userAddress","type":"address"},{"indexed":false,"internalType":"uint8","name":"rewardId","type":"uint8"}],"name":"RewardAccountPaid","type":"event"},{"anonymous":false,"inputs":[{"indexed":false,"internalType":"uint8","name":"id","type":"uint8"},{"indexed":false,"internalType":"uint256","name":"selfBusinessLimit","type":"uint256"},{"indexed":false,"internalType":"uint256","name":"directBusinessLimit","type":"uint256"},{"indexed":false,"internalType":"uint256","name":"teamBusinessLimit","type":"uint256"},{"indexed":false,"internalType":"string","name":"rankName","type":"string"},{"indexed":false,"internalType":"string","name":"rewardName","type":"string"},{"indexed":false,"internalType":"uint256","name":"appraisal","type":"uint256"}],"name":"RewardAdded","type":"event"},{"anonymous":false,"inputs":[{"indexed":false,"internalType":"address","name":"account","type":"address"}],"name":"Unpaused","type":"event"},{"anonymous":false,"inputs":[{"indexed":true,"internalType":"address","name":"implementation","type":"address"}],"name":"Upgraded","type":"event"},{"inputs":[{"internalType":"address","name":"","type":"address"}],"name":"addressToId","outputs":[{"internalType":"uint16","name":"","type":"uint16"}],"stateMutability":"view","type":"function"},{"inputs":[],"name":"contractDefaults","outputs":[{"internalType":"uint256","name":"levelDecimals","type":"uint256"},{"internalType":"uint256[]","name":"levelRates","type":"uint256[]"},{"internalType":"uint256","name":"totalLevelRate","type":"uint256"},{"internalType":"address","name":"defaultReferrer","type":"address"}],"stateMutability":"view","type":"function"},{"inputs":[],"name":"getGlobalRefereeLimit","outputs":[{"internalType":"uint8","name":"","type":"uint8"}],"stateMutability":"view","type":"function"},{"inputs":[{"internalType":"uint8","name":"_rewardId","type":"uint8"},{"internalType":"uint16","name":"_from","type":"uint16"},{"internalType":"uint16","name":"_to","type":"uint16"}],"name":"getRewardQualifiedUsers","outputs":[{"internalType":"address[]","name":"_userAddress","type":"address[]"},{"internalType":"uint16","name":"_achieversListCount","type":"uint16"}],"stateMutability":"view","type":"function"},{"inputs":[],"name":"getSelfIncomePoolRefereeLimit","outputs":[{"internalType":"uint8","name":"","type":"uint8"}],"stateMutability":"view","type":"function"},{"inputs":[{"internalType":"address","name":"_userAddress","type":"address"}],"name":"getTeamBusinessToQualifyRewards","outputs":[{"internalType":"uint256","name":"mainBusiness","type":"uint256"},{"internalType":"uint256","name":"otherBusiness","type":"uint256"}],"stateMutability":"view","type":"function"},{"inputs":[{"internalType":"address","name":"_address","type":"address"}],"name":"getUserAccount","outputs":[{"components":[{"internalType":"address","name":"referrer","type":"address"},{"internalType":"address[]","name":"referee","type":"address[]"},{"internalType":"address[]","name":"team","type":"address[]"},{"internalType":"uint256[]","name":"topUp","type":"uint256[]"},{"internalType":"uint256","name":"selfBusiness","type":"uint256"},{"internalType":"uint256","name":"directBusiness","type":"uint256"},{"internalType":"uint256","name":"totalBusiness","type":"uint256"},{"internalType":"uint256[]","name":"rewardsPaidReferral","type":"uint256[]"},{"internalType":"uint256[]","name":"rewardsPaidGlobal","type":"uint256[]"},{"internalType":"uint256[]","name":"rewardPaidPassive","type":"uint256[]"},{"internalType":"bool","name":"isInGlobalID","type":"bool"}],"internalType":"struct ReferralUpgradeable.Account","name":"userAccount","type":"tuple"}],"stateMutability":"view","type":"function"},{"inputs":[{"internalType":"address","name":"_address","type":"address"}],"name":"getUserReferrerAddress","outputs":[{"internalType":"address","name":"referrer","type":"address"}],"stateMutability":"view","type":"function"},{"inputs":[{"internalType":"address","name":"_userAddress","type":"address"}],"name":"getUserRewardAccount","outputs":[{"components":[{"internalType":"address","name":"userAdddress","type":"address"},{"internalType":"uint8[]","name":"rewardId","type":"uint8[]"},{"internalType":"uint8","name":"lastRewardId","type":"uint8"}],"internalType":"struct ReferralUpgradeable.RewardsAccount","name":"","type":"tuple"}],"stateMutability":"view","type":"function"},{"inputs":[{"internalType":"address","name":"_userAddress","type":"address"}],"name":"getUserRewardQualified","outputs":[{"internalType":"uint8","name":"rewardId","type":"uint8"}],"stateMutability":"view","type":"function"},{"inputs":[{"internalType":"address","name":"_address","type":"address"}],"name":"getUserTeam","outputs":[{"internalType":"address[]","name":"userReferee","type":"address[]"},{"internalType":"uint256","name":"userRefereeCount","type":"uint256"},{"internalType":"address[]","name":"userTeamAddress","type":"address[]"},{"internalType":"uint256","name":"userTeamCount","type":"uint256"}],"stateMutability":"view","type":"function"},{"inputs":[{"internalType":"address","name":"_userAddress","type":"address"}],"name":"getUserTopUpForRewards","outputs":[{"internalType":"uint256","name":"","type":"uint256"}],"stateMutability":"view","type":"function"},{"inputs":[{"internalType":"address","name":"_address","type":"address"}],"name":"getUserTotalBusiness","outputs":[{"internalType":"uint256","name":"selfBusiness","type":"uint256"},{"internalType":"uint256","name":"directBusiness","type":"uint256"},{"internalType":"uint256","name":"refereeTeamBusiness","type":"uint256"},{"internalType":"uint256","name":"totalBusiness","type":"uint256"}],"stateMutability":"view","type":"function"},{"inputs":[{"internalType":"address","name":"_address","type":"address"}],"name":"getUserTotalRewardPaid","outputs":[{"internalType":"uint256","name":"rewardsAUSD","type":"uint256"},{"internalType":"uint256","name":"rewardsGlobal","type":"uint256"},{"internalType":"uint256","name":"rewardsPassive","type":"uint256"}],"stateMutability":"view","type":"function"},{"inputs":[],"name":"getVariablesContract","outputs":[{"internalType":"address","name":"","type":"address"}],"stateMutability":"view","type":"function"},{"inputs":[{"internalType":"address","name":"_address","type":"address"}],"name":"hasReferrer","outputs":[{"internalType":"bool","name":"","type":"bool"}],"stateMutability":"view","type":"function"},{"inputs":[{"internalType":"uint16","name":"","type":"uint16"}],"name":"idToAddress","outputs":[{"internalType":"address","name":"","type":"address"}],"stateMutability":"view","type":"function"},{"inputs":[{"internalType":"address[]","name":"_userAddress","type":"address[]"}],"name":"includeUsersInList","outputs":[],"stateMutability":"nonpayable","type":"function"},{"inputs":[],"name":"initialize","outputs":[],"stateMutability":"nonpayable","type":"function"},{"inputs":[{"internalType":"address","name":"_userAddress","type":"address"}],"name":"is20LevelsBusinessUpdated","outputs":[{"internalType":"bool","name":"","type":"bool"}],"stateMutability":"view","type":"function"},{"inputs":[],"name":"owner","outputs":[{"internalType":"address","name":"","type":"address"}],"stateMutability":"view","type":"function"},{"inputs":[],"name":"paused","outputs":[{"internalType":"bool","name":"","type":"bool"}],"stateMutability":"view","type":"function"},{"inputs":[{"internalType":"uint256","name":"_valueInUSD","type":"uint256"},{"internalType":"address","name":"_userAddress","type":"address"},{"internalType":"address","name":"_referrerAddress","type":"address"}],"name":"payReferralANUSDAdmin","outputs":[],"stateMutability":"nonpayable","type":"function"},{"inputs":[],"name":"proxiableUUID","outputs":[{"internalType":"bytes32","name":"","type":"bytes32"}],"stateMutability":"view","type":"function"},{"inputs":[],"name":"renounceOwnership","outputs":[],"stateMutability":"nonpayable","type":"function"},{"inputs":[{"internalType":"address","name":"_userAddress","type":"address"}],"name":"resetSelfTeamBusiness","outputs":[],"stateMutability":"nonpayable","type":"function"},{"inputs":[{"internalType":"address","name":"","type":"address"}],"name":"rewardAccount","outputs":[{"internalType":"address","name":"userAdddress","type":"address"},{"internalType":"uint8","name":"lastRewardId","type":"uint8"}],"stateMutability":"view","type":"function"},{"inputs":[{"internalType":"uint8","name":"","type":"uint8"}],"name":"rewards","outputs":[{"internalType":"uint8","name":"id","type":"uint8"},{"internalType":"uint256","name":"selfBusinessLimit","type":"uint256"},{"internalType":"uint256","name":"directBusinessLimit","type":"uint256"},{"internalType":"uint256","name":"teamBusinessLimit","type":"uint256"},{"internalType":"string","name":"rankName","type":"string"},{"internalType":"string","name":"rewardName","type":"string"},{"internalType":"uint256","name":"appraisal","type":"uint256"}],"stateMutability":"view","type":"function"},{"inputs":[{"internalType":"uint256","name":"_directBusiness","type":"uint256"},{"internalType":"uint256","name":"_teamBusiness","type":"uint256"}],"name":"setGlobalPushCondition","outputs":[],"stateMutability":"nonpayable","type":"function"},{"inputs":[{"internalType":"uint8[]","name":"_id","type":"uint8[]"},{"internalType":"uint256[]","name":"_selfBusinessLimit","type":"uint256[]"},{"internalType":"uint256[]","name":"_directBusinessLimit","type":"uint256[]"},{"internalType":"uint256[]","name":"_teamBusinessLimit","type":"uint256[]"},{"internalType":"string[]","name":"_rankName","type":"string[]"},{"internalType":"string[]","name":"_rewardName","type":"string[]"},{"internalType":"uint256[]","name":"_appraisal","type":"uint256[]"}],"name":"setRewards","outputs":[],"stateMutability":"nonpayable","type":"function"},{"inputs":[{"internalType":"address","name":"_userAddress","type":"address"},{"internalType":"uint256","name":"_valueInWei","type":"uint256"}],"name":"setUserTotalBusiness","outputs":[],"stateMutability":"nonpayable","type":"function"},{"inputs":[],"name":"totalUsers","outputs":[{"internalType":"uint16","name":"","type":"uint16"}],"stateMutability":"view","type":"function"},{"inputs":[{"internalType":"address","name":"_address","type":"address"},{"internalType":"uint256","name":"_value","type":"uint256"}],"name":"transferNative","outputs":[],"stateMutability":"nonpayable","type":"function"},{"inputs":[{"internalType":"address","name":"newOwner","type":"address"}],"name":"transferOwnership","outputs":[],"stateMutability":"nonpayable","type":"function"},{"inputs":[{"internalType":"address","name":"_userAddress","type":"address"},{"internalType":"uint8","name":"_rewardId","type":"uint8"}],"name":"updateIfRewardPaidAdmin","outputs":[],"stateMutability":"nonpayable","type":"function"},{"inputs":[{"internalType":"address","name":"_userAddress","type":"address"}],"name":"updateUplineTeamLevels20","outputs":[],"stateMutability":"nonpayable","type":"function"},{"inputs":[{"internalType":"address","name":"newImplementation","type":"address"}],"name":"upgradeTo","outputs":[],"stateMutability":"nonpayable","type":"function"},{"inputs":[{"internalType":"address","name":"newImplementation","type":"address"},{"internalType":"bytes","name":"data","type":"bytes"}],"name":"upgradeToAndCall","outputs":[],"stateMutability":"payable","type":"function"},{"inputs":[{"internalType":"uint256","name":"","type":"uint256"}],"name":"usersList","outputs":[{"internalType":"address","name":"","type":"address"}],"stateMutability":"view","type":"function"},{"inputs":[{"internalType":"address","name":"_tokenAddress","type":"address"},{"internalType":"address","name":"_userAddress","type":"address"},{"internalType":"uint256","name":"_value","type":"uint256"}],"name":"withdrawtokens","outputs":[],"stateMutability":"nonpayable","type":"function"},{"stateMutability":"payable","type":"receive"}],"evm":{"bytecode":{"linkReferences":{},"object":"60a06040523060805234801561001457600080fd5b50608051615ee86200004d60003960008181611a6901528181611aa901528181611b4801528181611b880152611c420152615ee86000f3fe60806040526004361061023f5760003560e01c80637d2e90c21161012e578063cb0e0d7d116100ab578063f13a143f1161006f578063f13a143f146107ec578063f2fde38b1461080a578063faeda7e51461082a578063fb47e0161461085a578063fb5d45261461088757600080fd5b8063cb0e0d7d14610711578063ccef558714610743578063dd1ca71614610763578063e5ffb5df14610791578063ef519dc0146107b157600080fd5b80638da5cb5b116100f25780638da5cb5b1461063c57806391b493e41461065a5780639b317cc41461067a578063a0760aff146106ad578063bff1f9e1146106e257600080fd5b80637d2e90c21461059a5780638129fc1c146105ba57806386f6630d146105cf57806389db4eb0146105fc5780638a93f7b91461061c57600080fd5b806335166fef116101bc57806352d1902d1161018057806352d1902d146105195780635c975abb1461052e578063715018a61461054657806371e13ead1461055b578063771aa2161461057a57600080fd5b806335166fef1461046c5780633659cfe61461048c57806343b4ebf4146104ac5780634f1ef286146104e6578063502aa3b5146104f957600080fd5b8063228159b411610203578063228159b4146103595780632405091c1461037957806325f1c91e146103b95780632bb5112d146103e7578063348a7e941461044c57600080fd5b8063019f157a1461024b578063025313ff1461029a5780630898adc7146102e95780630a783ea51461030b57806318452cd81461033957600080fd5b3661024657005b600080fd5b34801561025757600080fd5b5061028561026636600461503c565b6001600160a01b03166000908152610111602052604090205460ff1690565b60405190151581526020015b60405180910390f35b3480156102a657600080fd5b506102d16102b536600461506b565b61010c602052600090815260409020546001600160a01b031681565b6040516001600160a01b039091168152602001610291565b3480156102f557600080fd5b50610309610304366004615086565b6108ac565b005b34801561031757600080fd5b5061010f546301000000900460ff165b60405160ff9091168152602001610291565b34801561034557600080fd5b5061028561035436600461503c565b61092d565b34801561036557600080fd5b506103096103743660046150c7565b610954565b34801561038557600080fd5b5061039961039436600461503c565b610b9b565b604080519485526020850193909352918301526060820152608001610291565b3480156103c557600080fd5b506103d96103d436600461503c565b61118a565b604051908152602001610291565b3480156103f357600080fd5b5061042b61040236600461503c565b61010a60205260009081526040902080546002909101546001600160a01b039091169060ff1682565b604080516001600160a01b03909316835260ff909116602083015201610291565b34801561045857600080fd5b5061030961046736600461503c565b611421565b34801561047857600080fd5b5061030961048736600461533f565b61173e565b34801561049857600080fd5b506103096104a736600461503c565b611a5f565b3480156104b857600080fd5b506102d16104c736600461503c565b6001600160a01b03908116600090815261010960205260409020541690565b6103096104f436600461545a565b611b3e565b34801561050557600080fd5b506102d16105143660046154be565b611c0a565b34801561052557600080fd5b506103d9611c35565b34801561053a57600080fd5b5060335460ff16610285565b34801561055257600080fd5b50610309611ce8565b34801561056757600080fd5b5061010f5462010000900460ff16610327565b34801561058657600080fd5b506103096105953660046154d7565b611cfc565b3480156105a657600080fd5b506103096105b536600461550c565b611e00565b3480156105c657600080fd5b50610309611e3e565b3480156105db57600080fd5b506105ef6105ea36600461503c565b612024565b6040516102919190615538565b34801561060857600080fd5b5061030961061736600461503c565b61210a565b34801561062857600080fd5b506103096106373660046155ad565b61232b565b34801561064857600080fd5b506065546001600160a01b03166102d1565b34801561066657600080fd5b50610309610675366004615622565b6123ff565b34801561068657600080fd5b5061069a610695366004615644565b612494565b60405161029197969594939291906156af565b3480156106b957600080fd5b506106cd6106c836600461503c565b6125e6565b60408051928352602083019190915201610291565b3480156106ee57600080fd5b5061010f546106fe9061ffff1681565b60405161ffff9091168152602001610291565b34801561071d57600080fd5b506106fe61072c36600461503c565b61010d6020526000908152604090205461ffff1681565b34801561074f57600080fd5b5061030961075e36600461550c565b612b8c565b34801561076f57600080fd5b5061078361077e366004615704565b612bb4565b60405161029192919061578b565b34801561079d57600080fd5b506103276107ac36600461503c565b612c92565b3480156107bd57600080fd5b506107d16107cc36600461503c565b613121565b60408051938452602084019290925290820152606001610291565b3480156107f857600080fd5b5060fb546001600160a01b03166102d1565b34801561081657600080fd5b5061030961082536600461503c565b61323c565b34801561083657600080fd5b5061084a61084536600461503c565b6132b2565b60405161029194939291906157b1565b34801561086657600080fd5b5061087a61087536600461503c565b61339f565b604051610291919061581e565b34801561089357600080fd5b5061089c61368c565b604051610291949392919061592d565b6108b4613753565b60405163a9059cbb60e01b81526001600160a01b0383811660048301526024820183905284169063a9059cbb906044016020604051808303816000875af1158015610903573d6000803e3d6000fd5b505050506040513d601f19601f820116820180604052508101906109279190615967565b50505050565b6001600160a01b038082166000908152610109602052604081205490911615155b92915050565b60fb5433906001600160a01b03166109746065546001600160a01b031690565b6001600160a01b0316826001600160a01b03161480610a1a575060fb60009054906101000a90046001600160a01b03166001600160a01b03166363d9df856040518163ffffffff1660e01b8152600401602060405180830381865afa1580156109e1573d6000803e3d6000fd5b505050506040513d601f19601f82011682018060405250810190610a059190615989565b6001600160a01b0316826001600160a01b0316145b610a765760405162461bcd60e51b815260206004820152602260248201527f4f6e6c79206f776e65722063616e2063616c6c20746869732066756e6374696f604482015261371760f11b60648201526084015b60405180910390fd5b6001600160a01b038481166000908152610109602052604090205416158015610aa757506001600160a01b03831615155b15610ab657610ab684846137ad565b6001600160a01b038381166000908152610109602052604090205416158015610ae757506001600160a01b03831615155b8015610b025750610100546001600160a01b03848116911614155b15610b1f5761010054610b1f9084906001600160a01b03166137ad565b610b8b8585836001600160a01b031663611509236040518163ffffffff1660e01b8152600401602060405180830381865afa158015610b62573d6000803e3d6000fd5b505050506040513d601f19601f82011682018060405250810190610b869190615989565b6138f5565b610b94846140a8565b5050505050565b6001600160a01b0381166000908152610109602052604081206001810154600482015492918291829190825b81811015610e9e5760006101096000856001018481548110610beb57610beb6159a6565b60009182526020808320909101546001600160a01b03908116845283820194909452604092830190912082516101608101845281549094168452600181018054845181850281018501909552808552919385840193909290830182828015610c7c57602002820191906000526020600020905b81546001600160a01b03168152600190910190602001808311610c5e575b5050505050815260200160028201805480602002602001604051908101604052809291908181526020018280548015610cde57602002820191906000526020600020905b81546001600160a01b03168152600190910190602001808311610cc0575b5050505050815260200160038201805480602002602001604051908101604052809291908181526020018280548015610d3657602002820191906000526020600020905b815481526020019060010190808311610d22575b5050505050815260200160048201548152602001600582015481526020016006820154815260200160078201805480602002602001604051908101604052809291908181526020018280548015610dac57602002820191906000526020600020905b815481526020019060010190808311610d98575b5050505050815260200160088201805480602002602001604051908101604052809291908181526020018280548015610e0457602002820191906000526020600020905b815481526020019060010190808311610df0575b5050505050815260200160098201805480602002602001604051908101604052809291908181526020018280548015610e5c57602002820191906000526020600020905b815481526020019060010190808311610e48575b5050509183525050600a919091015460ff1615156020909101526080810151909150610e8890886159d2565b9650508080610e96906159e5565b915050610bc7565b5060005b818110156111795760006101096000856001018481548110610ec657610ec66159a6565b60009182526020808320909101546001600160a01b03908116845283820194909452604092830190912082516101608101845281549094168452600181018054845181850281018501909552808552919385840193909290830182828015610f5757602002820191906000526020600020905b81546001600160a01b03168152600190910190602001808311610f39575b5050505050815260200160028201805480602002602001604051908101604052809291908181526020018280548015610fb957602002820191906000526020600020905b81546001600160a01b03168152600190910190602001808311610f9b575b505050505081526020016003820180548060200260200160405190810160405280929190818152602001828054801561101157602002820191906000526020600020905b815481526020019060010190808311610ffd575b505050505081526020016004820154815260200160058201548152602001600682015481526020016007820180548060200260200160405190810160405280929190818152602001828054801561108757602002820191906000526020600020905b815481526020019060010190808311611073575b50505050508152602001600882018054806020026020016040519081016040528092919081815260200182805480156110df57602002820191906000526020600020905b8154815260200190600101908083116110cb575b505050505081526020016009820180548060200260200160405190810160405280929190818152602001828054801561113757602002820191906000526020600020905b815481526020019060010190808311611123575b5050509183525050600a919091015460ff16151560209091015260c081015190915061116390876159d2565b9550508080611171906159e5565b915050610ea2565b508160060154925050509193509193565b6001600160a01b03808216600090815261010960209081526040808320815161016081018352815490951685526001810180548351818602810186019094528084529495869590949293858401939092919083018282801561121557602002820191906000526020600020905b81546001600160a01b031681526001909101906020018083116111f7575b505050505081526020016002820180548060200260200160405190810160405280929190818152602001828054801561127757602002820191906000526020600020905b81546001600160a01b03168152600190910190602001808311611259575b50505050508152602001600382018054806020026020016040519081016040528092919081815260200182805480156112cf57602002820191906000526020600020905b8154815260200190600101908083116112bb575b505050505081526020016004820154815260200160058201548152602001600682015481526020016007820180548060200260200160405190810160405280929190818152602001828054801561134557602002820191906000526020600020905b815481526020019060010190808311611331575b505050505081526020016008820180548060200260200160405190810160405280929190818152602001828054801561139d57602002820191906000526020600020905b815481526020019060010190808311611389575b50505050508152602001600982018054806020026020016040519081016040528092919081815260200182805480156113f557602002820191906000526020600020905b8154815260200190600101908083116113e1575b5050509183525050600a919091015460ff161515602090910152905061141a8161419f565b9392505050565b6001600160a01b038116600090815261010960205260408120600681019190915560028101541561173a5760005b60028201548110156117385760006101096000846002018481548110611477576114776159a6565b60009182526020808320909101546001600160a01b0390811684528382019490945260409283019091208251610160810184528154909416845260018101805484518185028101850190955280855291938584019390929083018282801561150857602002820191906000526020600020905b81546001600160a01b031681526001909101906020018083116114ea575b505050505081526020016002820180548060200260200160405190810160405280929190818152602001828054801561156a57602002820191906000526020600020905b81546001600160a01b0316815260019091019060200180831161154c575b50505050508152602001600382018054806020026020016040519081016040528092919081815260200182805480156115c257602002820191906000526020600020905b8154815260200190600101908083116115ae575b505050505081526020016004820154815260200160058201548152602001600682015481526020016007820180548060200260200160405190810160405280929190818152602001828054801561163857602002820191906000526020600020905b815481526020019060010190808311611624575b505050505081526020016008820180548060200260200160405190810160405280929190818152602001828054801561169057602002820191906000526020600020905b81548152602001906001019080831161167c575b50505050508152602001600982018054806020026020016040519081016040528092919081815260200182805480156116e857602002820191906000526020600020905b8154815260200190600101908083116116d4575b5050509183525050600a919091015460ff161515602090910152608081015160068501805492935090916000906117209084906159d2565b9091555061173191508290506159e5565b905061144f565b505b5050565b60fb54604051630935e01b60e21b81523360048201526001600160a01b03909116906324d7806c90602401602060405180830381865afa158015611786573d6000803e3d6000fd5b505050506040513d601f19601f820116820180604052508101906117aa9190615967565b6117c65760405162461bcd60e51b8152600401610a6d906159fe565b60005b8751811015611a55576040518060e001604052808983815181106117ef576117ef6159a6565b602002602001015160ff168152602001888381518110611811576118116159a6565b60200260200101518152602001878381518110611830576118306159a6565b6020026020010151815260200186838151811061184f5761184f6159a6565b6020026020010151815260200185838151811061186e5761186e6159a6565b6020026020010151815260200184838151811061188d5761188d6159a6565b602002602001015181526020018383815181106118ac576118ac6159a6565b602002602001015181525061010b60008a84815181106118ce576118ce6159a6565b60209081029190910181015160ff90811683528282019390935260409182016000208451815460ff1916941693909317835583015160018301558201516002820155606082015160038201556080820151600482019061192e9082615aab565b5060a082015160058201906119439082615aab565b5060c082015181600601559050507fb9f30bf0ab6748f3fcfbc9d280ed1feedea51276343f55f8342b8c453b876e9a888281518110611984576119846159a6565b602002602001015188838151811061199e5761199e6159a6565b60200260200101518884815181106119b8576119b86159a6565b60200260200101518885815181106119d2576119d26159a6565b60200260200101518886815181106119ec576119ec6159a6565b6020026020010151888781518110611a0657611a066159a6565b6020026020010151888881518110611a2057611a206159a6565b6020026020010151604051611a3b97969594939291906156af565b60405180910390a180611a4d816159e5565b9150506117c9565b5050505050505050565b6001600160a01b037f0000000000000000000000000000000000000000000000000000000000000000163003611aa75760405162461bcd60e51b8152600401610a6d90615b6b565b7f00000000000000000000000000000000000000000000000000000000000000006001600160a01b0316611af0600080516020615e6c833981519152546001600160a01b031690565b6001600160a01b031614611b165760405162461bcd60e51b8152600401610a6d90615bb7565b611b1f81614209565b60408051600080825260208201909252611b3b91839190614211565b50565b6001600160a01b037f0000000000000000000000000000000000000000000000000000000000000000163003611b865760405162461bcd60e51b8152600401610a6d90615b6b565b7f00000000000000000000000000000000000000000000000000000000000000006001600160a01b0316611bcf600080516020615e6c833981519152546001600160a01b031690565b6001600160a01b031614611bf55760405162461bcd60e51b8152600401610a6d90615bb7565b611bfe82614209565b61173a82826001614211565b61010e8181548110611c1b57600080fd5b6000918252602090912001546001600160a01b0316905081565b6000306001600160a01b037f00000000000000000000000000000000000000000000000000000000000000001614611cd55760405162461bcd60e51b815260206004820152603860248201527f555550535570677261646561626c653a206d757374206e6f742062652063616c60448201527f6c6564207468726f7567682064656c656761746563616c6c00000000000000006064820152608401610a6d565b50600080516020615e6c83398151915290565b611cf0613753565b611cfa6000614381565b565b60fb54604051630935e01b60e21b81523360048201526001600160a01b03909116906324d7806c90602401602060405180830381865afa158015611d44573d6000803e3d6000fd5b505050506040513d601f19601f82011682018060405250810190611d689190615967565b611d845760405162461bcd60e51b8152600401610a6d906159fe565b6001600160a01b03808316600090815261010a602052604090208054909116611dc15780546001600160a01b0319166001600160a01b0384161781555b600190810180549182018155600090815260209081902090820401805460ff938416601f9093166101000a928302939092021990911691909117905550565b611e08613753565b6040516001600160a01b0383169082156108fc029083906000818181858888f19350505050158015611738573d6000803e3d6000fd5b600054610100900460ff1615808015611e5e5750600054600160ff909116105b80611e785750303b158015611e78575060005460ff166001145b611edb5760405162461bcd60e51b815260206004820152602e60248201527f496e697469616c697a61626c653a20636f6e747261637420697320616c72656160448201526d191e481a5b9a5d1a585b1a5e995960921b6064820152608401610a6d565b6000805460ff191660011790558015611efe576000805461ff0019166101001790555b60fb80546001600160a01b03199081167377daafc7411c911b869c71bf70fe36cce507845d17909155610100805490911673f3ba579d4afd4dad8a8c2d1bcbdd1405688e492f1790556040805160e0810182526007808252600460208301526003928201929092526002606082015260016080820181905260a0820181905260c0820152611f8f9160fc9190614fc2565b50606460fd5560146101065569011478b7c30abc3000006101035560046101015560056101045568a80d24677efef0000061010555611fcc6143d3565b611fd4614402565b611fdc614431565b8015611b3b576000805461ff0019169055604051600181527f7f26b83ff96e1f2b6a682f133852f6798a09c465da95921460cefb38474024989060200160405180910390a150565b612054604051806060016040528060006001600160a01b0316815260200160608152602001600060ff1681525090565b6001600160a01b03808316600090815261010a60209081526040918290208251606081018452815490941684526001810180548451818502810185019095528085529193858401939092908301828280156120ec57602002820191906000526020600020906000905b825461010083900a900460ff168152602060019283018181049485019490930390920291018084116120bd5790505b50505091835250506002919091015460ff1660209091015292915050565b6065546001600160a01b031633146121a2576001600160a01b0381166000908152610111602052604090205460ff16156121a25760405162461bcd60e51b815260206004820152603360248201527f75706461746555706c696e655465616d4c6576656c73323028293a204c65766560448201527236399030b63932b0b23c903ab83230ba32b21760691b6064820152608401610a6d565b6001600160a01b0381166000908152610109602052604090206004810154806122335760405162461bcd60e51b815260206004820152603960248201527f75706461746555706c696e655465616d4c6576656c73323028293a20596f752060448201527f68617665206e6f20627573696e657373206f72207a65726f2e000000000000006064820152608401610a6d565b6101065460fc8054604080516020808402820181019092528281526000939092909183018282801561228457602002820191906000526020600020905b815481526020019060010190808311612270575b5050505050905060005b828160ff1610156122ff5784546001600160a01b0316600081815261010960205260409020906122be57506122ff565b82518260ff16106122ed576122d4600286615c19565b8160060160008282546122e791906159d2565b90915550505b94506122f881615c2d565b905061228e565b5050506001600160a01b03909216600090815261011160205260409020805460ff191660011790555050565b60fb54604051630935e01b60e21b81523360048201526001600160a01b03909116906324d7806c90602401602060405180830381865afa158015612373573d6000803e3d6000fd5b505050506040513d601f19601f820116820180604052508101906123979190615967565b6123b35760405162461bcd60e51b8152600401610a6d906159fe565b60005b81811015611738576123ed8383838181106123d3576123d36159a6565b90506020020160208101906123e8919061503c565b6140a8565b806123f7816159e5565b9150506123b6565b60fb54604051630935e01b60e21b81523360048201526001600160a01b03909116906324d7806c90602401602060405180830381865afa158015612447573d6000803e3d6000fd5b505050506040513d601f19601f8201168201806040525081019061246b9190615967565b6124875760405162461bcd60e51b8152600401610a6d906159fe565b6101039190915561011055565b61010b602052600090815260409020805460018201546002830154600384015460048501805460ff909516959394929391926124cf90615a29565b80601f01602080910402602001604051908101604052809291908181526020018280546124fb90615a29565b80156125485780601f1061251d57610100808354040283529160200191612548565b820191906000526020600020905b81548152906001019060200180831161252b57829003601f168201915b50505050509080600501805461255d90615a29565b80601f016020809104026020016040519081016040528092919081815260200182805461258990615a29565b80156125d65780601f106125ab576101008083540402835291602001916125d6565b820191906000526020600020905b8154815290600101906020018083116125b957829003601f168201915b5050505050908060060154905087565b6001600160a01b0380821660009081526101096020908152604080832081516101608101835281549095168552600181018054835181860281018601909452808452949586958695919485830193909290919083018282801561267257602002820191906000526020600020905b81546001600160a01b03168152600190910190602001808311612654575b50505050508152602001600282018054806020026020016040519081016040528092919081815260200182805480156126d457602002820191906000526020600020905b81546001600160a01b031681526001909101906020018083116126b6575b505050505081526020016003820180548060200260200160405190810160405280929190818152602001828054801561272c57602002820191906000526020600020905b815481526020019060010190808311612718575b50505050508152602001600482015481526020016005820154815260200160068201548152602001600782018054806020026020016040519081016040528092919081815260200182805480156127a257602002820191906000526020600020905b81548152602001906001019080831161278e575b50505050508152602001600882018054806020026020016040519081016040528092919081815260200182805480156127fa57602002820191906000526020600020905b8154815260200190600101908083116127e6575b505050505081526020016009820180548060200260200160405190810160405280929190818152602001828054801561285257602002820191906000526020600020905b81548152602001906001019080831161283e575b5050509183525050600a919091015460ff16151560209182015281015151909150600090600211612b855760005b8260200151518161ffff161015612b77576000610109600085602001518461ffff16815181106128b2576128b26159a6565b6020908102919091018101516001600160a01b0390811683528282019390935260409182016000208251610160810184528154909416845260018101805484518185028101850190955280855291938584019390929083018282801561294157602002820191906000526020600020905b81546001600160a01b03168152600190910190602001808311612923575b50505050508152602001600282018054806020026020016040519081016040528092919081815260200182805480156129a357602002820191906000526020600020905b81546001600160a01b03168152600190910190602001808311612985575b50505050508152602001600382018054806020026020016040519081016040528092919081815260200182805480156129fb57602002820191906000526020600020905b8154815260200190600101908083116129e7575b5050505050815260200160048201548152602001600582015481526020016006820154815260200160078201805480602002602001604051908101604052809291908181526020018280548015612a7157602002820191906000526020600020905b815481526020019060010190808311612a5d575b5050505050815260200160088201805480602002602001604051908101604052809291908181526020018280548015612ac957602002820191906000526020600020905b815481526020019060010190808311612ab5575b5050505050815260200160098201805480602002602001604051908101604052809291908181526020018280548015612b2157602002820191906000526020600020905b815481526020019060010190808311612b0d575b5050509183525050600a919091015460ff16151560209091015260c0810151909150861015612b52578060c0015195505b60c0810151612b6190846159d2565b9250508080612b6f90615c4c565b915050612880565b50612b828482615c6d565b92505b5050915091565b612b94613753565b6001600160a01b0390911660009081526101096020526040902060060155565b60606000806000612bc6878787614458565b915091508092508061ffff1667ffffffffffffffff811115612bea57612bea615109565b604051908082528060200260200182016040528015612c13578160200160208202803683370190505b50935060005b8161ffff168161ffff161015612c8757828161ffff1681518110612c3f57612c3f6159a6565b6020026020010151858261ffff1681518110612c5d57612c5d6159a6565b6001600160a01b039092166020928302919091019091015280612c7f81615c4c565b915050612c19565b505050935093915050565b6001600160a01b038082166000908152610109602090815260408083208151610160810183528154909516855260018101805483518186028101860190945280845294958695909492938584019390929190830182828015612d1d57602002820191906000526020600020905b81546001600160a01b03168152600190910190602001808311612cff575b5050505050815260200160028201805480602002602001604051908101604052809291908181526020018280548015612d7f57602002820191906000526020600020905b81546001600160a01b03168152600190910190602001808311612d61575b5050505050815260200160038201805480602002602001604051908101604052809291908181526020018280548015612dd757602002820191906000526020600020905b815481526020019060010190808311612dc3575b5050505050815260200160048201548152602001600582015481526020016006820154815260200160078201805480602002602001604051908101604052809291908181526020018280548015612e4d57602002820191906000526020600020905b815481526020019060010190808311612e39575b5050505050815260200160088201805480602002602001604051908101604052809291908181526020018280548015612ea557602002820191906000526020600020905b815481526020019060010190808311612e91575b5050505050815260200160098201805480602002602001604051908101604052809291908181526020018280548015612efd57602002820191906000526020600020905b815481526020019060010190808311612ee9575b5050509183525050600a919091015460ff161515602090910152905060005b60148160ff16101561311a5760ff808216600090815261010b60209081526040808320815160e0810183528154909516855260018101549285019290925260028201549084015260038101546060840152600481018054929392608084019190612f8590615a29565b80601f0160208091040260200160405190810160405280929190818152602001828054612fb190615a29565b8015612ffe5780601f10612fd357610100808354040283529160200191612ffe565b820191906000526020600020905b815481529060010190602001808311612fe157829003601f168201915b5050505050815260200160058201805461301790615a29565b80601f016020809104026020016040519081016040528092919081815260200182805461304390615a29565b80156130905780601f1061306557610100808354040283529160200191613090565b820191906000526020600020905b81548152906001019060200180831161307357829003601f168201915b50505050508152602001600682015481525050905060028260ff161180156130ba57506020810151155b156130c5575061311a565b80602001516130d38461419f565b101580156130e9575080604001518360a0015110155b80156130fe57506130fe838260600151614968565b15613107578193505b508061311281615c2d565b915050612f1c565b5050919050565b6001600160a01b0381166000908152610109602052604081206007810154600882015460098301548493849390929091845b8381101561319a57846007018181548110613170576131706159a6565b90600052602060002001548861318691906159d2565b975080613192816159e5565b915050613153565b5060005b828110156131e5578460080181815481106131bb576131bb6159a6565b9060005260206000200154876131d191906159d2565b9650806131dd816159e5565b91505061319e565b5060005b8181101561323057846009018181548110613206576132066159a6565b90600052602060002001548661321c91906159d2565b955080613228816159e5565b9150506131e9565b50505050509193909250565b613244613753565b6001600160a01b0381166132a95760405162461bcd60e51b815260206004820152602660248201527f4f776e61626c653a206e6577206f776e657220697320746865207a65726f206160448201526564647265737360d01b6064820152608401610a6d565b611b3b81614381565b6001600160a01b0381166000908152610109602090815260408083206001810180548351818602810186019094528084526060959486948694939092909183018282801561332957602002820191906000526020600020905b81546001600160a01b0316815260019091019060200180831161330b575b50505050509450845193508060020180548060200260200160405190810160405280929190818152602001828054801561338c57602002820191906000526020600020905b81546001600160a01b0316815260019091019060200180831161336e575b5050505050925082519150509193509193565b61340760405180610160016040528060006001600160a01b031681526020016060815260200160608152602001606081526020016000815260200160008152602001600081526020016060815260200160608152602001606081526020016000151581525090565b6001600160a01b03808316600090815261010960209081526040918290208251610160810184528154909416845260018101805484518185028101850190955280855291938584019390929083018282801561348c57602002820191906000526020600020905b81546001600160a01b0316815260019091019060200180831161346e575b50505050508152602001600282018054806020026020016040519081016040528092919081815260200182805480156134ee57602002820191906000526020600020905b81546001600160a01b031681526001909101906020018083116134d0575b505050505081526020016003820180548060200260200160405190810160405280929190818152602001828054801561354657602002820191906000526020600020905b815481526020019060010190808311613532575b50505050508152602001600482015481526020016005820154815260200160068201548152602001600782018054806020026020016040519081016040528092919081815260200182805480156135bc57602002820191906000526020600020905b8154815260200190600101908083116135a8575b505050505081526020016008820180548060200260200160405190810160405280929190818152602001828054801561361457602002820191906000526020600020905b815481526020019060010190808311613600575b505050505081526020016009820180548060200260200160405190810160405280929190818152602001828054801561366c57602002820191906000526020600020905b815481526020019060010190808311613658575b5050509183525050600a919091015460ff16151560209091015292915050565b60fd5460fc80546040805160208084028201810190925282815260609360009384938301828280156136dd57602002820191906000526020600020905b8154815260200190600101908083116136c9575b505060fc549396506000925050505b818160ff1610156137375760fc8160ff168154811061370d5761370d6159a6565b90600052602060002001548461372391906159d2565b93508061372f81615c2d565b9150506136ec565b5050610100549394929391926001600160a01b03909216919050565b6065546001600160a01b03163314611cfa5760405162461bcd60e51b815260206004820181905260248201527f4f776e61626c653a2063616c6c6572206973206e6f7420746865206f776e65726044820152606401610a6d565b6001600160a01b038281166000818152610109602052604080822080546001600160a01b03191694861694851781559051909392917ffaf63637882ff2d63ca76881cf92fb857130e36f350c926f9cc884b499b42b7791a360fc5460005b81811015610b945782546001600160a01b031660009081526101096020526040812090829003613865576001818101805491820181556000908152602090200180546001600160a01b0319166001600160a01b0388161790555b83546001600160a01b031661387a5750610b94565b6002810180546001810182556000918252602082200180546001600160a01b0319166001600160a01b03898116918217909255865460405191938984169391909116917fb766b19465b3277b0b275adf79d715cac93166bf6e6a39f26e4ccfdec76ad47e9190a49250806138ed816159e5565b91505061380b565b600060fc80548060200260200160405190810160405280929190818152602001828054801561394357602002820191906000526020600020905b81548152602001906001019080831161392f575b505050506001600160a01b0385166000908152610109602090815260408220600381018054600181018255908452918320909101889055600481015493945090929091501561399157600191505b858160040160008282546139a591906159d2565b90915550506101065460009067ffffffffffffffff8111156139c9576139c9615109565b6040519080825280602002602001820160405280156139f2578160200160208202803683370190505b5090506000805b61010654811015613d1a5783546001600160a01b031660008181526101096020526040902090613a295750613d1a565b8651821015613c785760006064888481518110613a4857613a486159a6565b60200260200101518c613a5b9190615c80565b613a659190615c19565b905082600003613a89578a826005016000828254613a8391906159d2565b90915550505b6007820180546001810182556000918252602082200182905560ff8054839290613ab49084906159d2565b909155505085546001600160a01b03808b169163a9059cbb9116613ad8848d614ca0565b6040516001600160e01b031960e085901b1681526001600160a01b03909216600483015260248201526044016020604051808303816000875af1158015613b23573d6000803e3d6000fd5b505050506040513d601f19601f82011682018060405250810190613b479190615967565b50855481906001600160a01b03908116908c167f197a0a2b0fbff3fc4f7f4d32597585aa8415fcc4c5dd6634336ec65904529c83613b868760016159d2565b60408051918252602082018190526005908201526410539554d160da1b606082015260800160405180910390a4600a82015460ff16613c7657610103548260050154118015613bdb5750610110548260060154115b15613c765785546101028054600180820183556000929092527f93bdaa6a4190909b7c3fbe8d42169ffe1cab19f51dfc8db24c71abf849eced4a0180546001600160a01b0319166001600160a01b03938416179055600a8401805460ff191690911790558654604051911681527facc63915cb028aeaee9996abc0f864fc0559a2f955750aa97d6ef9f51014acfb9060200160405180910390a15b505b89816006016000828254613c8c91906159d2565b9091555050610105546005820154118015613cb9575061010f546001820154630100000090910460ff1611155b15613d0657845484516001600160a01b0390911690859085908110613ce057613ce06159a6565b6001600160a01b039092166020928302919091019091015282613d02816159e5565b9350505b935080613d12816159e5565b9150506139f9565b508015613eee576000816064610104548b613d359190615c80565b613d3f9190615c19565b613d499190615c19565b905060005b82811015613eeb5760006001600160a01b0316848281518110613d7357613d736159a6565b60200260200101516001600160a01b03160315613eeb5760006101096000868481518110613da357613da36159a6565b60200260200101516001600160a01b03166001600160a01b031681526020019081526020016000209050886001600160a01b031663a9059cbb868481518110613dee57613dee6159a6565b6020026020010151613e00868d614ca0565b6040516001600160e01b031960e085901b1681526001600160a01b03909216600483015260248201526044016020604051808303816000875af1158015613e4b573d6000803e3d6000fd5b505050506040513d601f19601f82011682018060405250810190613e6f9190615967565b50848281518110613e8257613e826159a6565b60200260200101516001600160a01b0316837f62f12b06523c734cca73aa1502a5f967c8e09d0a2f084fd36acbac47f54b0d4e60405160405180910390a36009018054600181018255600091825260209091200182905580613ee3816159e5565b915050613d4e565b50505b6101025415611a555760006064610101548a613f0a9190615c80565b613f149190615c19565b610102546040805142602082015244918101919091529192506000916060016040516020818303038152906040528051906020012060001c613f569190615c97565b905060006101028281548110613f6e57613f6e6159a6565b6000918252602080832091909101546001600160a01b0316808352610109909152604090912061010f54600182015492935090916201000090910460ff161161409a57896001600160a01b031663a9059cbb83613fcb878e614ca0565b6040516001600160e01b031960e085901b1681526001600160a01b03909216600483015260248201526044016020604051808303816000875af1158015614016573d6000803e3d6000fd5b505050506040513d601f19601f8201168201806040525081019061403a9190615967565b50600881018054600181018255600091825260209182902001859055604080518681526001600160a01b038516928101929092527f51e673ac98f0ea063ce27eb5af807d22b97cd11cd79380cf1f711ad80948046c910160405180910390a15b505050505050505050505050565b6001600160a01b038116600090815261010d602052604081205461ffff169003611b3b5761010f546000906140e29061ffff166001615cab565b6001600160a01b038316600081815261010d60209081526040808320805461ffff191661ffff878116918217909255845261010c909252822080546001600160a01b0319908116851790915561010e80546001810182559084527f44731785622d53a842eeb261a70df6f2b61b9624656157b6168597f0656f480501805490911690931790925561010f805493945092909116919061418083615c4c565b91906101000a81548161ffff021916908361ffff160217905550505050565b606081015151600090156142045760015b8260600151518161ffff1610156142025782606001518161ffff16815181106141db576141db6159a6565b6020026020010151826141ee91906159d2565b9150806141fa81615c4c565b9150506141b0565b505b919050565b611b3b613753565b7f4910fdfa16fed3260ed0e7147f7cc6da11a60208b5b9406d12a635614ffd91435460ff16156142495761424483614d2c565b611738565b826001600160a01b03166352d1902d6040518163ffffffff1660e01b8152600401602060405180830381865afa9250505080156142a3575060408051601f3d908101601f191682019092526142a091810190615ccd565b60015b6143065760405162461bcd60e51b815260206004820152602e60248201527f45524331393637557067726164653a206e657720696d706c656d656e7461746960448201526d6f6e206973206e6f74205555505360901b6064820152608401610a6d565b600080516020615e6c83398151915281146143755760405162461bcd60e51b815260206004820152602960248201527f45524331393637557067726164653a20756e737570706f727465642070726f786044820152681a58589b195555525160ba1b6064820152608401610a6d565b50611738838383614dc8565b606580546001600160a01b038381166001600160a01b0319831681179093556040519116919082907f8be0079c531659141344cd1fd0a4f28419497f9722a3daafe3b4186f6b6457e090600090a35050565b600054610100900460ff166143fa5760405162461bcd60e51b8152600401610a6d90615ce6565b611cfa614ded565b600054610100900460ff166144295760405162461bcd60e51b8152600401610a6d90615ce6565b611cfa614e20565b600054610100900460ff16611cfa5760405162461bcd60e51b8152600401610a6d90615ce6565b606060006144668484615d31565b61ffff1667ffffffffffffffff81111561448257614482615109565b6040519080825280602002602001820160405280156144ab578160200160208202803683370190505b5091505b8261ffff168461ffff16116149605761ffff8416600090815261010c60209081526040808320546001600160a01b0390811680855261010984528285208351610160810185528154909316835260018101805485518188028101880190965280865292969593949193858101939083018282801561455657602002820191906000526020600020905b81546001600160a01b03168152600190910190602001808311614538575b50505050508152602001600282018054806020026020016040519081016040528092919081815260200182805480156145b857602002820191906000526020600020905b81546001600160a01b0316815260019091019060200180831161459a575b505050505081526020016003820180548060200260200160405190810160405280929190818152602001828054801561461057602002820191906000526020600020905b8154815260200190600101908083116145fc575b505050505081526020016004820154815260200160058201548152602001600682015481526020016007820180548060200260200160405190810160405280929190818152602001828054801561468657602002820191906000526020600020905b815481526020019060010190808311614672575b50505050508152602001600882018054806020026020016040519081016040528092919081815260200182805480156146de57602002820191906000526020600020905b8154815260200190600101908083116146ca575b505050505081526020016009820180548060200260200160405190810160405280929190818152602001828054801561473657602002820191906000526020600020905b815481526020019060010190808311614722575b5050509183525050600a919091015460ff9081161515602092830152898116600090815261010b83526040808220815160e081018352815490941684526001810154948401949094526002840154908301526003830154606083015260048301805494955090939192916080840191906147af90615a29565b80601f01602080910402602001604051908101604052809291908181526020018280546147db90615a29565b80156148285780601f106147fd57610100808354040283529160200191614828565b820191906000526020600020905b81548152906001019060200180831161480b57829003601f168201915b5050505050815260200160058201805461484190615a29565b80601f016020809104026020016040519081016040528092919081815260200182805461486d90615a29565b80156148ba5780601f1061488f576101008083540402835291602001916148ba565b820191906000526020600020905b81548152906001019060200180831161489d57829003601f168201915b50505050508152602001600682015481525050905080602001516148dd8361419f565b101580156148f3575080604001518260a0015110155b80156149085750614908828260600151614968565b1561494a5782858561ffff1681518110614924576149246159a6565b6001600160a01b03909216602092830291909101909101528361494681615c4c565b9450505b505050838061495890615c4c565b9450506144af565b935093915050565b6000806000600285602001515110614c985760005b8560200151518161ffff161015614c74576000610109600088602001518461ffff16815181106149af576149af6159a6565b6020908102919091018101516001600160a01b03908116835282820193909352604091820160002082516101608101845281549094168452600181018054845181850281018501909552808552919385840193909290830182828015614a3e57602002820191906000526020600020905b81546001600160a01b03168152600190910190602001808311614a20575b5050505050815260200160028201805480602002602001604051908101604052809291908181526020018280548015614aa057602002820191906000526020600020905b81546001600160a01b03168152600190910190602001808311614a82575b5050505050815260200160038201805480602002602001604051908101604052809291908181526020018280548015614af857602002820191906000526020600020905b815481526020019060010190808311614ae4575b5050505050815260200160048201548152602001600582015481526020016006820154815260200160078201805480602002602001604051908101604052809291908181526020018280548015614b6e57602002820191906000526020600020905b815481526020019060010190808311614b5a575b5050505050815260200160088201805480602002602001604051908101604052809291908181526020018280548015614bc657602002820191906000526020600020905b815481526020019060010190808311614bb2575b5050505050815260200160098201805480602002602001604051908101604052809291908181526020018280548015614c1e57602002820191906000526020600020905b815481526020019060010190808311614c0a575b5050509183525050600a919091015460ff16151560209091015260c0810151909150841015614c4f578060c0015193505b60c0810151614c5e90846159d2565b9250508080614c6c90615c4c565b91505061497d565b50838210158015614c8e575083614c8b8383615c6d565b10155b15614c9857600192505b505092915050565b6000670de0b6b3a7640000826001600160a01b031663313ce5676040518163ffffffff1660e01b8152600401602060405180830381865afa158015614ce9573d6000803e3d6000fd5b505050506040513d601f19601f82011682018060405250810190614d0d9190615ccd565b614d1890600a615e30565b614d229085615c80565b61141a9190615c19565b6001600160a01b0381163b614d995760405162461bcd60e51b815260206004820152602d60248201527f455243313936373a206e657720696d706c656d656e746174696f6e206973206e60448201526c1bdd08184818dbdb9d1c9858dd609a1b6064820152608401610a6d565b600080516020615e6c83398151915280546001600160a01b0319166001600160a01b0392909216919091179055565b614dd183614e50565b600082511180614dde5750805b15611738576109278383614e90565b600054610100900460ff16614e145760405162461bcd60e51b8152600401610a6d90615ce6565b6033805460ff19169055565b600054610100900460ff16614e475760405162461bcd60e51b8152600401610a6d90615ce6565b611cfa33614381565b614e5981614d2c565b6040516001600160a01b038216907fbc7cd75a20ee27fd9adebab32041f755214dbc6bffa90cc0225b39da2e5c2d3b90600090a250565b60606001600160a01b0383163b614ef85760405162461bcd60e51b815260206004820152602660248201527f416464726573733a2064656c65676174652063616c6c20746f206e6f6e2d636f6044820152651b9d1c9858dd60d21b6064820152608401610a6d565b600080846001600160a01b031684604051614f139190615e3c565b600060405180830381855af49150503d8060008114614f4e576040519150601f19603f3d011682016040523d82523d6000602084013e614f53565b606091505b5091509150614f7b8282604051806060016040528060278152602001615e8c60279139614f84565b95945050505050565b60608315614f9357508161141a565b61141a8383815115614fa85781518083602001fd5b8060405162461bcd60e51b8152600401610a6d9190615e58565b828054828255906000526020600020908101928215615002579160200282015b82811115615002578251829060ff16905591602001919060010190614fe2565b5061500e929150615012565b5090565b5b8082111561500e5760008155600101615013565b6001600160a01b0381168114611b3b57600080fd5b60006020828403121561504e57600080fd5b813561141a81615027565b803561ffff8116811461420457600080fd5b60006020828403121561507d57600080fd5b61141a82615059565b60008060006060848603121561509b57600080fd5b83356150a681615027565b925060208401356150b681615027565b929592945050506040919091013590565b6000806000606084860312156150dc57600080fd5b8335925060208401356150ee81615027565b915060408401356150fe81615027565b809150509250925092565b634e487b7160e01b600052604160045260246000fd5b604051601f8201601f1916810167ffffffffffffffff8111828210171561514857615148615109565b604052919050565b600067ffffffffffffffff82111561516a5761516a615109565b5060051b60200190565b803560ff8116811461420457600080fd5b600082601f83011261519657600080fd5b813560206151ab6151a683615150565b61511f565b82815260059290921b840181019181810190868411156151ca57600080fd5b8286015b848110156151ec576151df81615174565b83529183019183016151ce565b509695505050505050565b600082601f83011261520857600080fd5b813560206152186151a683615150565b82815260059290921b8401810191818101908684111561523757600080fd5b8286015b848110156151ec578035835291830191830161523b565b600067ffffffffffffffff83111561526c5761526c615109565b61527f601f8401601f191660200161511f565b905082815283838301111561529357600080fd5b828260208301376000602084830101529392505050565b600082601f8301126152bb57600080fd5b813560206152cb6151a683615150565b82815260059290921b840181019181810190868411156152ea57600080fd5b8286015b848110156151ec57803567ffffffffffffffff81111561530e5760008081fd5b8701603f810189136153205760008081fd5b615331898683013560408401615252565b8452509183019183016152ee565b600080600080600080600060e0888a03121561535a57600080fd5b873567ffffffffffffffff8082111561537257600080fd5b61537e8b838c01615185565b985060208a013591508082111561539457600080fd5b6153a08b838c016151f7565b975060408a01359150808211156153b657600080fd5b6153c28b838c016151f7565b965060608a01359150808211156153d857600080fd5b6153e48b838c016151f7565b955060808a01359150808211156153fa57600080fd5b6154068b838c016152aa565b945060a08a013591508082111561541c57600080fd5b6154288b838c016152aa565b935060c08a013591508082111561543e57600080fd5b5061544b8a828b016151f7565b91505092959891949750929550565b6000806040838503121561546d57600080fd5b823561547881615027565b9150602083013567ffffffffffffffff81111561549457600080fd5b8301601f810185136154a557600080fd5b6154b485823560208401615252565b9150509250929050565b6000602082840312156154d057600080fd5b5035919050565b600080604083850312156154ea57600080fd5b82356154f581615027565b915061550360208401615174565b90509250929050565b6000806040838503121561551f57600080fd5b823561552a81615027565b946020939093013593505050565b602080825282516001600160a01b031682820152828101516060604084015280516080840181905260009291820190839060a08601905b8083101561559257835160ff16825292840192600192909201919084019061556f565b5060ff60408801511660608701528094505050505092915050565b600080602083850312156155c057600080fd5b823567ffffffffffffffff808211156155d857600080fd5b818501915085601f8301126155ec57600080fd5b8135818111156155fb57600080fd5b8660208260051b850101111561561057600080fd5b60209290920196919550909350505050565b6000806040838503121561563557600080fd5b50508035926020909101359150565b60006020828403121561565657600080fd5b61141a82615174565b60005b8381101561567a578181015183820152602001615662565b50506000910152565b6000815180845261569b81602086016020860161565f565b601f01601f19169290920160200192915050565b60ff8816815286602082015285604082015284606082015260e0608082015260006156dd60e0830186615683565b82810360a08401526156ef8186615683565b9150508260c083015298975050505050505050565b60008060006060848603121561571957600080fd5b61572284615174565b925061573060208501615059565b915061573e60408501615059565b90509250925092565b600081518084526020808501945080840160005b838110156157805781516001600160a01b03168752958201959082019060010161575b565b509495945050505050565b60408152600061579e6040830185615747565b905061ffff831660208301529392505050565b6080815260006157c46080830187615747565b85602084015282810360408401526157dc8186615747565b91505082606083015295945050505050565b600081518084526020808501945080840160005b8381101561578057815187529582019590820190600101615802565b602081526158386020820183516001600160a01b03169052565b60006020830151610160806040850152615856610180850183615747565b91506040850151601f19808685030160608701526158748483615747565b9350606087015191508086850301608087015261589184836157ee565b9350608087015160a087015260a087015160c087015260c087015160e087015260e087015191506101008187860301818801526158ce85846157ee565b9450808801519250506101208187860301818801526158ed85846157ee565b94508088015192505061014081878603018188015261590c85846157ee565b945080880151925050506159238286018215159052565b5090949350505050565b84815260806020820152600061594660808301866157ee565b6040830194909452506001600160a01b039190911660609091015292915050565b60006020828403121561597957600080fd5b8151801515811461141a57600080fd5b60006020828403121561599b57600080fd5b815161141a81615027565b634e487b7160e01b600052603260045260246000fd5b634e487b7160e01b600052601160045260246000fd5b8082018082111561094e5761094e6159bc565b6000600182016159f7576159f76159bc565b5060010190565b6020808252601190820152702cb7ba9030b932903737ba1030b236b4b760791b604082015260600190565b600181811c90821680615a3d57607f821691505b60208210810361420257634e487b7160e01b600052602260045260246000fd5b601f82111561173857600081815260208120601f850160051c81016020861015615a845750805b601f850160051c820191505b81811015615aa357828155600101615a90565b505050505050565b815167ffffffffffffffff811115615ac557615ac5615109565b615ad981615ad38454615a29565b84615a5d565b602080601f831160018114615b0e5760008415615af65750858301515b600019600386901b1c1916600185901b178555615aa3565b600085815260208120601f198616915b82811015615b3d57888601518255948401946001909101908401615b1e565b5085821015615b5b5787850151600019600388901b60f8161c191681555b5050505050600190811b01905550565b6020808252602c908201527f46756e6374696f6e206d7573742062652063616c6c6564207468726f7567682060408201526b19195b1959d85d1958d85b1b60a21b606082015260800190565b6020808252602c908201527f46756e6374696f6e206d7573742062652063616c6c6564207468726f7567682060408201526b6163746976652070726f787960a01b606082015260800190565b634e487b7160e01b600052601260045260246000fd5b600082615c2857615c28615c03565b500490565b600060ff821660ff8103615c4357615c436159bc565b60010192915050565b600061ffff808316818103615c6357615c636159bc565b6001019392505050565b8181038181111561094e5761094e6159bc565b808202811582820484141761094e5761094e6159bc565b600082615ca657615ca6615c03565b500690565b61ffff818116838216019080821115615cc657615cc66159bc565b5092915050565b600060208284031215615cdf57600080fd5b5051919050565b6020808252602b908201527f496e697469616c697a61626c653a20636f6e7472616374206973206e6f74206960408201526a6e697469616c697a696e6760a81b606082015260800190565b61ffff828116828216039080821115615cc657615cc66159bc565b600181815b80851115615d87578160001904821115615d6d57615d6d6159bc565b80851615615d7a57918102915b93841c9390800290615d51565b509250929050565b600082615d9e5750600161094e565b81615dab5750600061094e565b8160018114615dc15760028114615dcb57615de7565b600191505061094e565b60ff841115615ddc57615ddc6159bc565b50506001821b61094e565b5060208310610133831016604e8410600b8410161715615e0a575081810a61094e565b615e148383615d4c565b8060001904821115615e2857615e286159bc565b029392505050565b600061141a8383615d8f565b60008251615e4e81846020870161565f565b9190910192915050565b60208152600061141a602083018461568356fe360894a13ba1a3210667c828492db98dca3e2076cc3735a920a3ca505d382bbc416464726573733a206c6f772d6c6576656c2064656c65676174652063616c6c206661696c6564a2646970667358221220cff30498731929ff4340e421f3905da95e9ff1f6f0fae8ec78a9970051122bbb64736f6c63430008110033","opcodes":"PUSH1 0xA0 PUSH1 0x40 MSTORE ADDRESS PUSH1 0x80 MSTORE CALLVALUE DUP1 ISZERO PUSH2 0x14 JUMPI PUSH1 0x0 DUP1 REVERT JUMPDEST POP PUSH1 0x80 MLOAD PUSH2 0x5EE8 PUSH3 0x4D PUSH1 0x0 CODECOPY PUSH1 0x0 DUP2 DUP2 PUSH2 0x1A69 ADD MSTORE DUP2 DUP2 PUSH2 0x1AA9 ADD MSTORE DUP2 DUP2 PUSH2 0x1B48 ADD MSTORE DUP2 DUP2 PUSH2 0x1B88 ADD MSTORE PUSH2 0x1C42 ADD MSTORE PUSH2 0x5EE8 PUSH1 0x0 RETURN INVALID PUSH1 0x80 PUSH1 0x40 MSTORE PUSH1 0x4 CALLDATASIZE LT PUSH2 0x23F JUMPI PUSH1 0x0 CALLDATALOAD PUSH1 0xE0 SHR DUP1 PUSH4 0x7D2E90C2 GT PUSH2 0x12E JUMPI DUP1 PUSH4 0xCB0E0D7D GT PUSH2 0xAB JUMPI DUP1 PUSH4 0xF13A143F GT PUSH2 0x6F JUMPI DUP1 PUSH4 0xF13A143F EQ PUSH2 0x7EC JUMPI DUP1 PUSH4 0xF2FDE38B EQ PUSH2 0x80A JUMPI DUP1 PUSH4 0xFAEDA7E5 EQ PUSH2 0x82A JUMPI DUP1 PUSH4 0xFB47E016 EQ PUSH2 0x85A JUMPI DUP1 PUSH4 0xFB5D4526 EQ PUSH2 0x887 JUMPI PUSH1 0x0 DUP1 REVERT JUMPDEST DUP1 PUSH4 0xCB0E0D7D EQ PUSH2 0x711 JUMPI DUP1 PUSH4 0xCCEF5587 EQ PUSH2 0x743 JUMPI DUP1 PUSH4 0xDD1CA716 EQ PUSH2 0x763 JUMPI DUP1 PUSH4 0xE5FFB5DF EQ PUSH2 0x791 JUMPI DUP1 PUSH4 0xEF519DC0 EQ PUSH2 0x7B1 JUMPI PUSH1 0x0 DUP1 REVERT JUMPDEST DUP1 PUSH4 0x8DA5CB5B GT PUSH2 0xF2 JUMPI DUP1 PUSH4 0x8DA5CB5B EQ PUSH2 0x63C JUMPI DUP1 PUSH4 0x91B493E4 EQ PUSH2 0x65A JUMPI DUP1 PUSH4 0x9B317CC4 EQ PUSH2 0x67A JUMPI DUP1 PUSH4 0xA0760AFF EQ PUSH2 0x6AD JUMPI DUP1 PUSH4 0xBFF1F9E1 EQ PUSH2 0x6E2 JUMPI PUSH1 0x0 DUP1 REVERT JUMPDEST DUP1 PUSH4 0x7D2E90C2 EQ PUSH2 0x59A JUMPI DUP1 PUSH4 0x8129FC1C EQ PUSH2 0x5BA JUMPI DUP1 PUSH4 0x86F6630D EQ PUSH2 0x5CF JUMPI DUP1 PUSH4 0x89DB4EB0 EQ PUSH2 0x5FC JUMPI DUP1 PUSH4 0x8A93F7B9 EQ PUSH2 0x61C JUMPI PUSH1 0x0 DUP1 REVERT JUMPDEST DUP1 PUSH4 0x35166FEF GT PUSH2 0x1BC JUMPI DUP1 PUSH4 0x52D1902D GT PUSH2 0x180 JUMPI DUP1 PUSH4 0x52D1902D EQ PUSH2 0x519 JUMPI DUP1 PUSH4 0x5C975ABB EQ PUSH2 0x52E JUMPI DUP1 PUSH4 0x715018A6 EQ PUSH2 0x546 JUMPI DUP1 PUSH4 0x71E13EAD EQ PUSH2 0x55B JUMPI DUP1 PUSH4 0x771AA216 EQ PUSH2 0x57A JUMPI PUSH1 0x0 DUP1 REVERT JUMPDEST DUP1 PUSH4 0x35166FEF EQ PUSH2 0x46C JUMPI DUP1 PUSH4 0x3659CFE6 EQ PUSH2 0x48C JUMPI DUP1 PUSH4 0x43B4EBF4 EQ PUSH2 0x4AC JUMPI DUP1 PUSH4 0x4F1EF286 EQ PUSH2 0x4E6 JUMPI DUP1 PUSH4 0x502AA3B5 EQ PUSH2 0x4F9 JUMPI PUSH1 0x0 DUP1 REVERT JUMPDEST DUP1 PUSH4 0x228159B4 GT PUSH2 0x203 JUMPI DUP1 PUSH4 0x228159B4 EQ PUSH2 0x359 JUMPI DUP1 PUSH4 0x2405091C EQ PUSH2 0x379 JUMPI DUP1 PUSH4 0x25F1C91E EQ PUSH2 0x3B9 JUMPI DUP1 PUSH4 0x2BB5112D EQ PUSH2 0x3E7 JUMPI DUP1 PUSH4 0x348A7E94 EQ PUSH2 0x44C JUMPI PUSH1 0x0 DUP1 REVERT JUMPDEST DUP1 PUSH4 0x19F157A EQ PUSH2 0x24B JUMPI DUP1 PUSH4 0x25313FF EQ PUSH2 0x29A JUMPI DUP1 PUSH4 0x898ADC7 EQ PUSH2 0x2E9 JUMPI DUP1 PUSH4 0xA783EA5 EQ PUSH2 0x30B JUMPI DUP1 PUSH4 0x18452CD8 EQ PUSH2 0x339 JUMPI PUSH1 0x0 DUP1 REVERT JUMPDEST CALLDATASIZE PUSH2 0x246 JUMPI STOP JUMPDEST PUSH1 0x0 DUP1 REVERT JUMPDEST CALLVALUE DUP1 ISZERO PUSH2 0x257 JUMPI PUSH1 0x0 DUP1 REVERT JUMPDEST POP PUSH2 0x285 PUSH2 0x266 CALLDATASIZE PUSH1 0x4 PUSH2 0x503C JUMP JUMPDEST PUSH1 0x1 PUSH1 0x1 PUSH1 0xA0 SHL SUB AND PUSH1 0x0 SWAP1 DUP2 MSTORE PUSH2 0x111 PUSH1 0x20 MSTORE PUSH1 0x40 SWAP1 KECCAK256 SLOAD PUSH1 0xFF AND SWAP1 JUMP JUMPDEST PUSH1 0x40 MLOAD SWAP1 ISZERO ISZERO DUP2 MSTORE PUSH1 0x20 ADD JUMPDEST PUSH1 0x40 MLOAD DUP1 SWAP2 SUB SWAP1 RETURN JUMPDEST CALLVALUE DUP1 ISZERO PUSH2 0x2A6 JUMPI PUSH1 0x0 DUP1 REVERT JUMPDEST POP PUSH2 0x2D1 PUSH2 0x2B5 CALLDATASIZE PUSH1 0x4 PUSH2 0x506B JUMP JUMPDEST PUSH2 0x10C PUSH1 0x20 MSTORE PUSH1 0x0 SWAP1 DUP2 MSTORE PUSH1 0x40 SWAP1 KECCAK256 SLOAD PUSH1 0x1 PUSH1 0x1 PUSH1 0xA0 SHL SUB AND DUP2 JUMP JUMPDEST PUSH1 0x40 MLOAD PUSH1 0x1 PUSH1 0x1 PUSH1 0xA0 SHL SUB SWAP1 SWAP2 AND DUP2 MSTORE PUSH1 0x20 ADD PUSH2 0x291 JUMP JUMPDEST CALLVALUE DUP1 ISZERO PUSH2 0x2F5 JUMPI PUSH1 0x0 DUP1 REVERT JUMPDEST POP PUSH2 0x309 PUSH2 0x304 CALLDATASIZE PUSH1 0x4 PUSH2 0x5086 JUMP JUMPDEST PUSH2 0x8AC JUMP JUMPDEST STOP JUMPDEST CALLVALUE DUP1 ISZERO PUSH2 0x317 JUMPI PUSH1 0x0 DUP1 REVERT JUMPDEST POP PUSH2 0x10F SLOAD PUSH4 0x1000000 SWAP1 DIV PUSH1 0xFF AND JUMPDEST PUSH1 0x40 MLOAD PUSH1 0xFF SWAP1 SWAP2 AND DUP2 MSTORE PUSH1 0x20 ADD PUSH2 0x291 JUMP JUMPDEST CALLVALUE DUP1 ISZERO PUSH2 0x345 JUMPI PUSH1 0x0 DUP1 REVERT JUMPDEST POP PUSH2 0x285 PUSH2 0x354 CALLDATASIZE PUSH1 0x4 PUSH2 0x503C JUMP JUMPDEST PUSH2 0x92D JUMP JUMPDEST CALLVALUE DUP1 ISZERO PUSH2 0x365 JUMPI PUSH1 0x0 DUP1 REVERT JUMPDEST POP PUSH2 0x309 PUSH2 0x374 CALLDATASIZE PUSH1 0x4 PUSH2 0x50C7 JUMP JUMPDEST PUSH2 0x954 JUMP JUMPDEST CALLVALUE DUP1 ISZERO PUSH2 0x385 JUMPI PUSH1 0x0 DUP1 REVERT JUMPDEST POP PUSH2 0x399 PUSH2 0x394 CALLDATASIZE PUSH1 0x4 PUSH2 0x503C JUMP JUMPDEST PUSH2 0xB9B JUMP JUMPDEST PUSH1 0x40 DUP1 MLOAD SWAP5 DUP6 MSTORE PUSH1 0x20 DUP6 ADD SWAP4 SWAP1 SWAP4 MSTORE SWAP2 DUP4 ADD MSTORE PUSH1 0x60 DUP3 ADD MSTORE PUSH1 0x80 ADD PUSH2 0x291 JUMP JUMPDEST CALLVALUE DUP1 ISZERO PUSH2 0x3C5 JUMPI PUSH1 0x0 DUP1 REVERT JUMPDEST POP PUSH2 0x3D9 PUSH2 0x3D4 CALLDATASIZE PUSH1 0x4 PUSH2 0x503C JUMP JUMPDEST PUSH2 0x118A JUMP JUMPDEST PUSH1 0x40 MLOAD SWAP1 DUP2 MSTORE PUSH1 0x20 ADD PUSH2 0x291 JUMP JUMPDEST CALLVALUE DUP1 ISZERO PUSH2 0x3F3 JUMPI PUSH1 0x0 DUP1 REVERT JUMPDEST POP PUSH2 0x42B PUSH2 0x402 CALLDATASIZE PUSH1 0x4 PUSH2 0x503C JUMP JUMPDEST PUSH2 0x10A PUSH1 0x20 MSTORE PUSH1 0x0 SWAP1 DUP2 MSTORE PUSH1 0x40 SWAP1 KECCAK256 DUP1 SLOAD PUSH1 0x2 SWAP1 SWAP2 ADD SLOAD PUSH1 0x1 PUSH1 0x1 PUSH1 0xA0 SHL SUB SWAP1 SWAP2 AND SWAP1 PUSH1 0xFF AND DUP3 JUMP JUMPDEST PUSH1 0x40 DUP1 MLOAD PUSH1 0x1 PUSH1 0x1 PUSH1 0xA0 SHL SUB SWAP1 SWAP4 AND DUP4 MSTORE PUSH1 0xFF SWAP1 SWAP2 AND PUSH1 0x20 DUP4 ADD MSTORE ADD PUSH2 0x291 JUMP JUMPDEST CALLVALUE DUP1 ISZERO PUSH2 0x458 JUMPI PUSH1 0x0 DUP1 REVERT JUMPDEST POP PUSH2 0x309 PUSH2 0x467 CALLDATASIZE PUSH1 0x4 PUSH2 0x503C JUMP JUMPDEST PUSH2 0x1421 JUMP JUMPDEST CALLVALUE DUP1 ISZERO PUSH2 0x478 JUMPI PUSH1 0x0 DUP1 REVERT JUMPDEST POP PUSH2 0x309 PUSH2 0x487 CALLDATASIZE PUSH1 0x4 PUSH2 0x533F JUMP JUMPDEST PUSH2 0x173E JUMP JUMPDEST CALLVALUE DUP1 ISZERO PUSH2 0x498 JUMPI PUSH1 0x0 DUP1 REVERT JUMPDEST POP PUSH2 0x309 PUSH2 0x4A7 CALLDATASIZE PUSH1 0x4 PUSH2 0x503C JUMP JUMPDEST PUSH2 0x1A5F JUMP JUMPDEST CALLVALUE DUP1 ISZERO PUSH2 0x4B8 JUMPI PUSH1 0x0 DUP1 REVERT JUMPDEST POP PUSH2 0x2D1 PUSH2 0x4C7 CALLDATASIZE PUSH1 0x4 PUSH2 0x503C JUMP JUMPDEST PUSH1 0x1 PUSH1 0x1 PUSH1 0xA0 SHL SUB SWAP1 DUP2 AND PUSH1 0x0 SWAP1 DUP2 MSTORE PUSH2 0x109 PUSH1 0x20 MSTORE PUSH1 0x40 SWAP1 KECCAK256 SLOAD AND SWAP1 JUMP JUMPDEST PUSH2 0x309 PUSH2 0x4F4 CALLDATASIZE PUSH1 0x4 PUSH2 0x545A JUMP JUMPDEST PUSH2 0x1B3E JUMP JUMPDEST CALLVALUE DUP1 ISZERO PUSH2 0x505 JUMPI PUSH1 0x0 DUP1 REVERT JUMPDEST POP PUSH2 0x2D1 PUSH2 0x514 CALLDATASIZE PUSH1 0x4 PUSH2 0x54BE JUMP JUMPDEST PUSH2 0x1C0A JUMP JUMPDEST CALLVALUE DUP1 ISZERO PUSH2 0x525 JUMPI PUSH1 0x0 DUP1 REVERT JUMPDEST POP PUSH2 0x3D9 PUSH2 0x1C35 JUMP JUMPDEST CALLVALUE DUP1 ISZERO PUSH2 0x53A JUMPI PUSH1 0x0 DUP1 REVERT JUMPDEST POP PUSH1 0x33 SLOAD PUSH1 0xFF AND PUSH2 0x285 JUMP JUMPDEST CALLVALUE DUP1 ISZERO PUSH2 0x552 JUMPI PUSH1 0x0 DUP1 REVERT JUMPDEST POP PUSH2 0x309 PUSH2 0x1CE8 JUMP JUMPDEST CALLVALUE DUP1 ISZERO PUSH2 0x567 JUMPI PUSH1 0x0 DUP1 REVERT JUMPDEST POP PUSH2 0x10F SLOAD PUSH3 0x10000 SWAP1 DIV PUSH1 0xFF AND PUSH2 0x327 JUMP JUMPDEST CALLVALUE DUP1 ISZERO PUSH2 0x586 JUMPI PUSH1 0x0 DUP1 REVERT JUMPDEST POP PUSH2 0x309 PUSH2 0x595 CALLDATASIZE PUSH1 0x4 PUSH2 0x54D7 JUMP JUMPDEST PUSH2 0x1CFC JUMP JUMPDEST CALLVALUE DUP1 ISZERO PUSH2 0x5A6 JUMPI PUSH1 0x0 DUP1 REVERT JUMPDEST POP PUSH2 0x309 PUSH2 0x5B5 CALLDATASIZE PUSH1 0x4 PUSH2 0x550C JUMP JUMPDEST PUSH2 0x1E00 JUMP JUMPDEST CALLVALUE DUP1 ISZERO PUSH2 0x5C6 JUMPI PUSH1 0x0 DUP1 REVERT JUMPDEST POP PUSH2 0x309 PUSH2 0x1E3E JUMP JUMPDEST CALLVALUE DUP1 ISZERO PUSH2 0x5DB JUMPI PUSH1 0x0 DUP1 REVERT JUMPDEST POP PUSH2 0x5EF PUSH2 0x5EA CALLDATASIZE PUSH1 0x4 PUSH2 0x503C JUMP JUMPDEST PUSH2 0x2024 JUMP JUMPDEST PUSH1 0x40 MLOAD PUSH2 0x291 SWAP2 SWAP1 PUSH2 0x5538 JUMP JUMPDEST CALLVALUE DUP1 ISZERO PUSH2 0x608 JUMPI PUSH1 0x0 DUP1 REVERT JUMPDEST POP PUSH2 0x309 PUSH2 0x617 CALLDATASIZE PUSH1 0x4 PUSH2 0x503C JUMP JUMPDEST PUSH2 0x210A JUMP JUMPDEST CALLVALUE DUP1 ISZERO PUSH2 0x628 JUMPI PUSH1 0x0 DUP1 REVERT JUMPDEST POP PUSH2 0x309 PUSH2 0x637 CALLDATASIZE PUSH1 0x4 PUSH2 0x55AD JUMP JUMPDEST PUSH2 0x232B JUMP JUMPDEST CALLVALUE DUP1 ISZERO PUSH2 0x648 JUMPI PUSH1 0x0 DUP1 REVERT JUMPDEST POP PUSH1 0x65 SLOAD PUSH1 0x1 PUSH1 0x1 PUSH1 0xA0 SHL SUB AND PUSH2 0x2D1 JUMP JUMPDEST CALLVALUE DUP1 ISZERO PUSH2 0x666 JUMPI PUSH1 0x0 DUP1 REVERT JUMPDEST POP PUSH2 0x309 PUSH2 0x675 CALLDATASIZE PUSH1 0x4 PUSH2 0x5622 JUMP JUMPDEST PUSH2 0x23FF JUMP JUMPDEST CALLVALUE DUP1 ISZERO PUSH2 0x686 JUMPI PUSH1 0x0 DUP1 REVERT JUMPDEST POP PUSH2 0x69A PUSH2 0x695 CALLDATASIZE PUSH1 0x4 PUSH2 0x5644 JUMP JUMPDEST PUSH2 0x2494 JUMP JUMPDEST PUSH1 0x40 MLOAD PUSH2 0x291 SWAP8 SWAP7 SWAP6 SWAP5 SWAP4 SWAP3 SWAP2 SWAP1 PUSH2 0x56AF JUMP JUMPDEST CALLVALUE DUP1 ISZERO PUSH2 0x6B9 JUMPI PUSH1 0x0 DUP1 REVERT JUMPDEST POP PUSH2 0x6CD PUSH2 0x6C8 CALLDATASIZE PUSH1 0x4 PUSH2 0x503C JUMP JUMPDEST PUSH2 0x25E6 JUMP JUMPDEST PUSH1 0x40 DUP1 MLOAD SWAP3 DUP4 MSTORE PUSH1 0x20 DUP4 ADD SWAP2 SWAP1 SWAP2 MSTORE ADD PUSH2 0x291 JUMP JUMPDEST CALLVALUE DUP1 ISZERO PUSH2 0x6EE JUMPI PUSH1 0x0 DUP1 REVERT JUMPDEST POP PUSH2 0x10F SLOAD PUSH2 0x6FE SWAP1 PUSH2 0xFFFF AND DUP2 JUMP JUMPDEST PUSH1 0x40 MLOAD PUSH2 0xFFFF SWAP1 SWAP2 AND DUP2 MSTORE PUSH1 0x20 ADD PUSH2 0x291 JUMP JUMPDEST CALLVALUE DUP1 ISZERO PUSH2 0x71D JUMPI PUSH1 0x0 DUP1 REVERT JUMPDEST POP PUSH2 0x6FE PUSH2 0x72C CALLDATASIZE PUSH1 0x4 PUSH2 0x503C JUMP JUMPDEST PUSH2 0x10D PUSH1 0x20 MSTORE PUSH1 0x0 SWAP1 DUP2 MSTORE PUSH1 0x40 SWAP1 KECCAK256 SLOAD PUSH2 0xFFFF AND DUP2 JUMP JUMPDEST CALLVALUE DUP1 ISZERO PUSH2 0x74F JUMPI PUSH1 0x0 DUP1 REVERT JUMPDEST POP PUSH2 0x309 PUSH2 0x75E CALLDATASIZE PUSH1 0x4 PUSH2 0x550C JUMP JUMPDEST PUSH2 0x2B8C JUMP JUMPDEST CALLVALUE DUP1 ISZERO PUSH2 0x76F JUMPI PUSH1 0x0 DUP1 REVERT JUMPDEST POP PUSH2 0x783 PUSH2 0x77E CALLDATASIZE PUSH1 0x4 PUSH2 0x5704 JUMP JUMPDEST PUSH2 0x2BB4 JUMP JUMPDEST PUSH1 0x40 MLOAD PUSH2 0x291 SWAP3 SWAP2 SWAP1 PUSH2 0x578B JUMP JUMPDEST CALLVALUE DUP1 ISZERO PUSH2 0x79D JUMPI PUSH1 0x0 DUP1 REVERT JUMPDEST POP PUSH2 0x327 PUSH2 0x7AC CALLDATASIZE PUSH1 0x4 PUSH2 0x503C JUMP JUMPDEST PUSH2 0x2C92 JUMP JUMPDEST CALLVALUE DUP1 ISZERO PUSH2 0x7BD JUMPI PUSH1 0x0 DUP1 REVERT JUMPDEST POP PUSH2 0x7D1 PUSH2 0x7CC CALLDATASIZE PUSH1 0x4 PUSH2 0x503C JUMP JUMPDEST PUSH2 0x3121 JUMP JUMPDEST PUSH1 0x40 DUP1 MLOAD SWAP4 DUP5 MSTORE PUSH1 0x20 DUP5 ADD SWAP3 SWAP1 SWAP3 MSTORE SWAP1 DUP3 ADD MSTORE PUSH1 0x60 ADD PUSH2 0x291 JUMP JUMPDEST CALLVALUE DUP1 ISZERO PUSH2 0x7F8 JUMPI PUSH1 0x0 DUP1 REVERT JUMPDEST POP PUSH1 0xFB SLOAD PUSH1 0x1 PUSH1 0x1 PUSH1 0xA0 SHL SUB AND PUSH2 0x2D1 JUMP JUMPDEST CALLVALUE DUP1 ISZERO PUSH2 0x816 JUMPI PUSH1 0x0 DUP1 REVERT JUMPDEST POP PUSH2 0x309 PUSH2 0x825 CALLDATASIZE PUSH1 0x4 PUSH2 0x503C JUMP JUMPDEST PUSH2 0x323C JUMP JUMPDEST CALLVALUE DUP1 ISZERO PUSH2 0x836 JUMPI PUSH1 0x0 DUP1 REVERT JUMPDEST POP PUSH2 0x84A PUSH2 0x845 CALLDATASIZE PUSH1 0x4 PUSH2 0x503C JUMP JUMPDEST PUSH2 0x32B2 JUMP JUMPDEST PUSH1 0x40 MLOAD PUSH2 0x291 SWAP5 SWAP4 SWAP3 SWAP2 SWAP1 PUSH2 0x57B1 JUMP JUMPDEST CALLVALUE DUP1 ISZERO PUSH2 0x866 JUMPI PUSH1 0x0 DUP1 REVERT JUMPDEST POP PUSH2 0x87A PUSH2 0x875 CALLDATASIZE PUSH1 0x4 PUSH2 0x503C JUMP JUMPDEST PUSH2 0x339F JUMP JUMPDEST PUSH1 0x40 MLOAD PUSH2 0x291 SWAP2 SWAP1 PUSH2 0x581E JUMP JUMPDEST CALLVALUE DUP1 ISZERO PUSH2 0x893 JUMPI PUSH1 0x0 DUP1 REVERT JUMPDEST POP PUSH2 0x89C PUSH2 0x368C JUMP JUMPDEST PUSH1 0x40 MLOAD PUSH2 0x291 SWAP5 SWAP4 SWAP3 SWAP2 SWAP1 PUSH2 0x592D JUMP JUMPDEST PUSH2 0x8B4 PUSH2 0x3753 JUMP JUMPDEST PUSH1 0x40 MLOAD PUSH4 0xA9059CBB PUSH1 0xE0 SHL DUP2 MSTORE PUSH1 0x1 PUSH1 0x1 PUSH1 0xA0 SHL SUB DUP4 DUP2 AND PUSH1 0x4 DUP4 ADD MSTORE PUSH1 0x24 DUP3 ADD DUP4 SWAP1 MSTORE DUP5 AND SWAP1 PUSH4 0xA9059CBB SWAP1 PUSH1 0x44 ADD PUSH1 0x20 PUSH1 0x40 MLOAD DUP1 DUP4 SUB DUP2 PUSH1 0x0 DUP8 GAS CALL ISZERO DUP1 ISZERO PUSH2 0x903 JUMPI RETURNDATASIZE PUSH1 0x0 DUP1 RETURNDATACOPY RETURNDATASIZE PUSH1 0x0 REVERT JUMPDEST POP POP POP POP PUSH1 0x40 MLOAD RETURNDATASIZE PUSH1 0x1F NOT PUSH1 0x1F DUP3 ADD AND DUP3 ADD DUP1 PUSH1 0x40 MSTORE POP DUP2 ADD SWAP1 PUSH2 0x927 SWAP2 SWAP1 PUSH2 0x5967 JUMP JUMPDEST POP POP POP POP JUMP JUMPDEST PUSH1 0x1 PUSH1 0x1 PUSH1 0xA0 SHL SUB DUP1 DUP3 AND PUSH1 0x0 SWAP1 DUP2 MSTORE PUSH2 0x109 PUSH1 0x20 MSTORE PUSH1 0x40 DUP2 KECCAK256 SLOAD SWAP1 SWAP2 AND ISZERO ISZERO JUMPDEST SWAP3 SWAP2 POP POP JUMP JUMPDEST PUSH1 0xFB SLOAD CALLER SWAP1 PUSH1 0x1 PUSH1 0x1 PUSH1 0xA0 SHL SUB AND PUSH2 0x974 PUSH1 0x65 SLOAD PUSH1 0x1 PUSH1 0x1 PUSH1 0xA0 SHL SUB AND SWAP1 JUMP JUMPDEST PUSH1 0x1 PUSH1 0x1 PUSH1 0xA0 SHL SUB AND DUP3 PUSH1 0x1 PUSH1 0x1 PUSH1 0xA0 SHL SUB AND EQ DUP1 PUSH2 0xA1A JUMPI POP PUSH1 0xFB PUSH1 0x0 SWAP1 SLOAD SWAP1 PUSH2 0x100 EXP SWAP1 DIV PUSH1 0x1 PUSH1 0x1 PUSH1 0xA0 SHL SUB AND PUSH1 0x1 PUSH1 0x1 PUSH1 0xA0 SHL SUB AND PUSH4 0x63D9DF85 PUSH1 0x40 MLOAD DUP2 PUSH4 0xFFFFFFFF AND PUSH1 0xE0 SHL DUP2 MSTORE PUSH1 0x4 ADD PUSH1 0x20 PUSH1 0x40 MLOAD DUP1 DUP4 SUB DUP2 DUP7 GAS STATICCALL ISZERO DUP1 ISZERO PUSH2 0x9E1 JUMPI RETURNDATASIZE PUSH1 0x0 DUP1 RETURNDATACOPY RETURNDATASIZE PUSH1 0x0 REVERT JUMPDEST POP POP POP POP PUSH1 0x40 MLOAD RETURNDATASIZE PUSH1 0x1F NOT PUSH1 0x1F DUP3 ADD AND DUP3 ADD DUP1 PUSH1 0x40 MSTORE POP DUP2 ADD SWAP1 PUSH2 0xA05 SWAP2 SWAP1 PUSH2 0x5989 JUMP JUMPDEST PUSH1 0x1 PUSH1 0x1 PUSH1 0xA0 SHL SUB AND DUP3 PUSH1 0x1 PUSH1 0x1 PUSH1 0xA0 SHL SUB AND EQ JUMPDEST PUSH2 0xA76 JUMPI PUSH1 0x40 MLOAD PUSH3 0x461BCD PUSH1 0xE5 SHL DUP2 MSTORE PUSH1 0x20 PUSH1 0x4 DUP3 ADD MSTORE PUSH1 0x22 PUSH1 0x24 DUP3 ADD MSTORE PUSH32 0x4F6E6C79206F776E65722063616E2063616C6C20746869732066756E6374696F PUSH1 0x44 DUP3 ADD MSTORE PUSH2 0x3717 PUSH1 0xF1 SHL PUSH1 0x64 DUP3 ADD MSTORE PUSH1 0x84 ADD JUMPDEST PUSH1 0x40 MLOAD DUP1 SWAP2 SUB SWAP1 REVERT JUMPDEST PUSH1 0x1 PUSH1 0x1 PUSH1 0xA0 SHL SUB DUP5 DUP2 AND PUSH1 0x0 SWAP1 DUP2 MSTORE PUSH2 0x109 PUSH1 0x20 MSTORE PUSH1 0x40 SWAP1 KECCAK256 SLOAD AND ISZERO DUP1 ISZERO PUSH2 0xAA7 JUMPI POP PUSH1 0x1 PUSH1 0x1 PUSH1 0xA0 SHL SUB DUP4 AND ISZERO ISZERO JUMPDEST ISZERO PUSH2 0xAB6 JUMPI PUSH2 0xAB6 DUP5 DUP5 PUSH2 0x37AD JUMP JUMPDEST PUSH1 0x1 PUSH1 0x1 PUSH1 0xA0 SHL SUB DUP4 DUP2 AND PUSH1 0x0 SWAP1 DUP2 MSTORE PUSH2 0x109 PUSH1 0x20 MSTORE PUSH1 0x40 SWAP1 KECCAK256 SLOAD AND ISZERO DUP1 ISZERO PUSH2 0xAE7 JUMPI POP PUSH1 0x1 PUSH1 0x1 PUSH1 0xA0 SHL SUB DUP4 AND ISZERO ISZERO JUMPDEST DUP1 ISZERO PUSH2 0xB02 JUMPI POP PUSH2 0x100 SLOAD PUSH1 0x1 PUSH1 0x1 PUSH1 0xA0 SHL SUB DUP5 DUP2 AND SWAP2 AND EQ ISZERO JUMPDEST ISZERO PUSH2 0xB1F JUMPI PUSH2 0x100 SLOAD PUSH2 0xB1F SWAP1 DUP5 SWAP1 PUSH1 0x1 PUSH1 0x1 PUSH1 0xA0 SHL SUB AND PUSH2 0x37AD JUMP JUMPDEST PUSH2 0xB8B DUP6 DUP6 DUP4 PUSH1 0x1 PUSH1 0x1 PUSH1 0xA0 SHL SUB AND PUSH4 0x61150923 PUSH1 0x40 MLOAD DUP2 PUSH4 0xFFFFFFFF AND PUSH1 0xE0 SHL DUP2 MSTORE PUSH1 0x4 ADD PUSH1 0x20 PUSH1 0x40 MLOAD DUP1 DUP4 SUB DUP2 DUP7 GAS STATICCALL ISZERO DUP1 ISZERO PUSH2 0xB62 JUMPI RETURNDATASIZE PUSH1 0x0 DUP1 RETURNDATACOPY RETURNDATASIZE PUSH1 0x0 REVERT JUMPDEST POP POP POP POP PUSH1 0x40 MLOAD RETURNDATASIZE PUSH1 0x1F NOT PUSH1 0x1F DUP3 ADD AND DUP3 ADD DUP1 PUSH1 0x40 MSTORE POP DUP2 ADD SWAP1 PUSH2 0xB86 SWAP2 SWAP1 PUSH2 0x5989 JUMP JUMPDEST PUSH2 0x38F5 JUMP JUMPDEST PUSH2 0xB94 DUP5 PUSH2 0x40A8 JUMP JUMPDEST POP POP POP POP POP JUMP JUMPDEST PUSH1 0x1 PUSH1 0x1 PUSH1 0xA0 SHL SUB DUP2 AND PUSH1 0x0 SWAP1 DUP2 MSTORE PUSH2 0x109 PUSH1 0x20 MSTORE PUSH1 0x40 DUP2 KECCAK256 PUSH1 0x1 DUP2 ADD SLOAD PUSH1 0x4 DUP3 ADD SLOAD SWAP3 SWAP2 DUP3 SWAP2 DUP3 SWAP2 SWAP1 DUP3 JUMPDEST DUP2 DUP2 LT ISZERO PUSH2 0xE9E JUMPI PUSH1 0x0 PUSH2 0x109 PUSH1 0x0 DUP6 PUSH1 0x1 ADD DUP5 DUP2 SLOAD DUP2 LT PUSH2 0xBEB JUMPI PUSH2 0xBEB PUSH2 0x59A6 JUMP JUMPDEST PUSH1 0x0 SWAP2 DUP3 MSTORE PUSH1 0x20 DUP1 DUP4 KECCAK256 SWAP1 SWAP2 ADD SLOAD PUSH1 0x1 PUSH1 0x1 PUSH1 0xA0 SHL SUB SWAP1 DUP2 AND DUP5 MSTORE DUP4 DUP3 ADD SWAP5 SWAP1 SWAP5 MSTORE PUSH1 0x40 SWAP3 DUP4 ADD SWAP1 SWAP2 KECCAK256 DUP3 MLOAD PUSH2 0x160 DUP2 ADD DUP5 MSTORE DUP2 SLOAD SWAP1 SWAP5 AND DUP5 MSTORE PUSH1 0x1 DUP2 ADD DUP1 SLOAD DUP5 MLOAD DUP2 DUP6 MUL DUP2 ADD DUP6 ADD SWAP1 SWAP6 MSTORE DUP1 DUP6 MSTORE SWAP2 SWAP4 DUP6 DUP5 ADD SWAP4 SWAP1 SWAP3 SWAP1 DUP4 ADD DUP3 DUP3 DUP1 ISZERO PUSH2 0xC7C JUMPI PUSH1 0x20 MUL DUP3 ADD SWAP2 SWAP1 PUSH1 0x0 MSTORE PUSH1 0x20 PUSH1 0x0 KECCAK256 SWAP1 JUMPDEST DUP2 SLOAD PUSH1 0x1 PUSH1 0x1 PUSH1 0xA0 SHL SUB AND DUP2 MSTORE PUSH1 0x1 SWAP1 SWAP2 ADD SWAP1 PUSH1 0x20 ADD DUP1 DUP4 GT PUSH2 0xC5E JUMPI JUMPDEST POP POP POP POP POP DUP2 MSTORE PUSH1 0x20 ADD PUSH1 0x2 DUP3 ADD DUP1 SLOAD DUP1 PUSH1 0x20 MUL PUSH1 0x20 ADD PUSH1 0x40 MLOAD SWAP1 DUP2 ADD PUSH1 0x40 MSTORE DUP1 SWAP3 SWAP2 SWAP1 DUP2 DUP2 MSTORE PUSH1 0x20 ADD DUP3 DUP1 SLOAD DUP1 ISZERO PUSH2 0xCDE JUMPI PUSH1 0x20 MUL DUP3 ADD SWAP2 SWAP1 PUSH1 0x0 MSTORE PUSH1 0x20 PUSH1 0x0 KECCAK256 SWAP1 JUMPDEST DUP2 SLOAD PUSH1 0x1 PUSH1 0x1 PUSH1 0xA0 SHL SUB AND DUP2 MSTORE PUSH1 0x1 SWAP1 SWAP2 ADD SWAP1 PUSH1 0x20 ADD DUP1 DUP4 GT PUSH2 0xCC0 JUMPI JUMPDEST POP POP POP POP POP DUP2 MSTORE PUSH1 0x20 ADD PUSH1 0x3 DUP3 ADD DUP1 SLOAD DUP1 PUSH1 0x20 MUL PUSH1 0x20 ADD PUSH1 0x40 MLOAD SWAP1 DUP2 ADD PUSH1 0x40 MSTORE DUP1 SWAP3 SWAP2 SWAP1 DUP2 DUP2 MSTORE PUSH1 0x20 ADD DUP3 DUP1 SLOAD DUP1 ISZERO PUSH2 0xD36 JUMPI PUSH1 0x20 MUL DUP3 ADD SWAP2 SWAP1 PUSH1 0x0 MSTORE PUSH1 0x20 PUSH1 0x0 KECCAK256 SWAP1 JUMPDEST DUP2 SLOAD DUP2 MSTORE PUSH1 0x20 ADD SWAP1 PUSH1 0x1 ADD SWAP1 DUP1 DUP4 GT PUSH2 0xD22 JUMPI JUMPDEST POP POP POP POP POP DUP2 MSTORE PUSH1 0x20 ADD PUSH1 0x4 DUP3 ADD SLOAD DUP2 MSTORE PUSH1 0x20 ADD PUSH1 0x5 DUP3 ADD SLOAD DUP2 MSTORE PUSH1 0x20 ADD PUSH1 0x6 DUP3 ADD SLOAD DUP2 MSTORE PUSH1 0x20 ADD PUSH1 0x7 DUP3 ADD DUP1 SLOAD DUP1 PUSH1 0x20 MUL PUSH1 0x20 ADD PUSH1 0x40 MLOAD SWAP1 DUP2 ADD PUSH1 0x40 MSTORE DUP1 SWAP3 SWAP2 SWAP1 DUP2 DUP2 MSTORE PUSH1 0x20 ADD DUP3 DUP1 SLOAD DUP1 ISZERO PUSH2 0xDAC JUMPI PUSH1 0x20 MUL DUP3 ADD SWAP2 SWAP1 PUSH1 0x0 MSTORE PUSH1 0x20 PUSH1 0x0 KECCAK256 SWAP1 JUMPDEST DUP2 SLOAD DUP2 MSTORE PUSH1 0x20 ADD SWAP1 PUSH1 0x1 ADD SWAP1 DUP1 DUP4 GT PUSH2 0xD98 JUMPI JUMPDEST POP POP POP POP POP DUP2 MSTORE PUSH1 0x20 ADD PUSH1 0x8 DUP3 ADD DUP1 SLOAD DUP1 PUSH1 0x20 MUL PUSH1 0x20 ADD PUSH1 0x40 MLOAD SWAP1 DUP2 ADD PUSH1 0x40 MSTORE DUP1 SWAP3 SWAP2 SWAP1 DUP2 DUP2 MSTORE PUSH1 0x20 ADD DUP3 DUP1 SLOAD DUP1 ISZERO PUSH2 0xE04 JUMPI PUSH1 0x20 MUL DUP3 ADD SWAP2 SWAP1 PUSH1 0x0 MSTORE PUSH1 0x20 PUSH1 0x0 KECCAK256 SWAP1 JUMPDEST DUP2 SLOAD DUP2 MSTORE PUSH1 0x20 ADD SWAP1 PUSH1 0x1 ADD SWAP1 DUP1 DUP4 GT PUSH2 0xDF0 JUMPI JUMPDEST POP POP POP POP POP DUP2 MSTORE PUSH1 0x20 ADD PUSH1 0x9 DUP3 ADD DUP1 SLOAD DUP1 PUSH1 0x20 MUL PUSH1 0x20 ADD PUSH1 0x40 MLOAD SWAP1 DUP2 ADD PUSH1 0x40 MSTORE DUP1 SWAP3 SWAP2 SWAP1 DUP2 DUP2 MSTORE PUSH1 0x20 ADD DUP3 DUP1 SLOAD DUP1 ISZERO PUSH2 0xE5C JUMPI PUSH1 0x20 MUL DUP3 ADD SWAP2 SWAP1 PUSH1 0x0 MSTORE PUSH1 0x20 PUSH1 0x0 KECCAK256 SWAP1 JUMPDEST DUP2 SLOAD DUP2 MSTORE PUSH1 0x20 ADD SWAP1 PUSH1 0x1 ADD SWAP1 DUP1 DUP4 GT PUSH2 0xE48 JUMPI JUMPDEST POP POP POP SWAP2 DUP4 MSTORE POP POP PUSH1 0xA SWAP2 SWAP1 SWAP2 ADD SLOAD PUSH1 0xFF AND ISZERO ISZERO PUSH1 0x20 SWAP1 SWAP2 ADD MSTORE PUSH1 0x80 DUP2 ADD MLOAD SWAP1 SWAP2 POP PUSH2 0xE88 SWAP1 DUP9 PUSH2 0x59D2 JUMP JUMPDEST SWAP7 POP POP DUP1 DUP1 PUSH2 0xE96 SWAP1 PUSH2 0x59E5 JUMP JUMPDEST SWAP2 POP POP PUSH2 0xBC7 JUMP JUMPDEST POP PUSH1 0x0 JUMPDEST DUP2 DUP2 LT ISZERO PUSH2 0x1179 JUMPI PUSH1 0x0 PUSH2 0x109 PUSH1 0x0 DUP6 PUSH1 0x1 ADD DUP5 DUP2 SLOAD DUP2 LT PUSH2 0xEC6 JUMPI PUSH2 0xEC6 PUSH2 0x59A6 JUMP JUMPDEST PUSH1 0x0 SWAP2 DUP3 MSTORE PUSH1 0x20 DUP1 DUP4 KECCAK256 SWAP1 SWAP2 ADD SLOAD PUSH1 0x1 PUSH1 0x1 PUSH1 0xA0 SHL SUB SWAP1 DUP2 AND DUP5 MSTORE DUP4 DUP3 ADD SWAP5 SWAP1 SWAP5 MSTORE PUSH1 0x40 SWAP3 DUP4 ADD SWAP1 SWAP2 KECCAK256 DUP3 MLOAD PUSH2 0x160 DUP2 ADD DUP5 MSTORE DUP2 SLOAD SWAP1 SWAP5 AND DUP5 MSTORE PUSH1 0x1 DUP2 ADD DUP1 SLOAD DUP5 MLOAD DUP2 DUP6 MUL DUP2 ADD DUP6 ADD SWAP1 SWAP6 MSTORE DUP1 DUP6 MSTORE SWAP2 SWAP4 DUP6 DUP5 ADD SWAP4 SWAP1 SWAP3 SWAP1 DUP4 ADD DUP3 DUP3 DUP1 ISZERO PUSH2 0xF57 JUMPI PUSH1 0x20 MUL DUP3 ADD SWAP2 SWAP1 PUSH1 0x0 MSTORE PUSH1 0x20 PUSH1 0x0 KECCAK256 SWAP1 JUMPDEST DUP2 SLOAD PUSH1 0x1 PUSH1 0x1 PUSH1 0xA0 SHL SUB AND DUP2 MSTORE PUSH1 0x1 SWAP1 SWAP2 ADD SWAP1 PUSH1 0x20 ADD DUP1 DUP4 GT PUSH2 0xF39 JUMPI JUMPDEST POP POP POP POP POP DUP2 MSTORE PUSH1 0x20 ADD PUSH1 0x2 DUP3 ADD DUP1 SLOAD DUP1 PUSH1 0x20 MUL PUSH1 0x20 ADD PUSH1 0x40 MLOAD SWAP1 DUP2 ADD PUSH1 0x40 MSTORE DUP1 SWAP3 SWAP2 SWAP1 DUP2 DUP2 MSTORE PUSH1 0x20 ADD DUP3 DUP1 SLOAD DUP1 ISZERO PUSH2 0xFB9 JUMPI PUSH1 0x20 MUL DUP3 ADD SWAP2 SWAP1 PUSH1 0x0 MSTORE PUSH1 0x20 PUSH1 0x0 KECCAK256 SWAP1 JUMPDEST DUP2 SLOAD PUSH1 0x1 PUSH1 0x1 PUSH1 0xA0 SHL SUB AND DUP2 MSTORE PUSH1 0x1 SWAP1 SWAP2 ADD SWAP1 PUSH1 0x20 ADD DUP1 DUP4 GT PUSH2 0xF9B JUMPI JUMPDEST POP POP POP POP POP DUP2 MSTORE PUSH1 0x20 ADD PUSH1 0x3 DUP3 ADD DUP1 SLOAD DUP1 PUSH1 0x20 MUL PUSH1 0x20 ADD PUSH1 0x40 MLOAD SWAP1 DUP2 ADD PUSH1 0x40 MSTORE DUP1 SWAP3 SWAP2 SWAP1 DUP2 DUP2 MSTORE PUSH1 0x20 ADD DUP3 DUP1 SLOAD DUP1 ISZERO PUSH2 0x1011 JUMPI PUSH1 0x20 MUL DUP3 ADD SWAP2 SWAP1 PUSH1 0x0 MSTORE PUSH1 0x20 PUSH1 0x0 KECCAK256 SWAP1 JUMPDEST DUP2 SLOAD DUP2 MSTORE PUSH1 0x20 ADD SWAP1 PUSH1 0x1 ADD SWAP1 DUP1 DUP4 GT PUSH2 0xFFD JUMPI JUMPDEST POP POP POP POP POP DUP2 MSTORE PUSH1 0x20 ADD PUSH1 0x4 DUP3 ADD SLOAD DUP2 MSTORE PUSH1 0x20 ADD PUSH1 0x5 DUP3 ADD SLOAD DUP2 MSTORE PUSH1 0x20 ADD PUSH1 0x6 DUP3 ADD SLOAD DUP2 MSTORE PUSH1 0x20 ADD PUSH1 0x7 DUP3 ADD DUP1 SLOAD DUP1 PUSH1 0x20 MUL PUSH1 0x20 ADD PUSH1 0x40 MLOAD SWAP1 DUP2 ADD PUSH1 0x40 MSTORE DUP1 SWAP3 SWAP2 SWAP1 DUP2 DUP2 MSTORE PUSH1 0x20 ADD DUP3 DUP1 SLOAD DUP1 ISZERO PUSH2 0x1087 JUMPI PUSH1 0x20 MUL DUP3 ADD SWAP2 SWAP1 PUSH1 0x0 MSTORE PUSH1 0x20 PUSH1 0x0 KECCAK256 SWAP1 JUMPDEST DUP2 SLOAD DUP2 MSTORE PUSH1 0x20 ADD SWAP1 PUSH1 0x1 ADD SWAP1 DUP1 DUP4 GT PUSH2 0x1073 JUMPI JUMPDEST POP POP POP POP POP DUP2 MSTORE PUSH1 0x20 ADD PUSH1 0x8 DUP3 ADD DUP1 SLOAD DUP1 PUSH1 0x20 MUL PUSH1 0x20 ADD PUSH1 0x40 MLOAD SWAP1 DUP2 ADD PUSH1 0x40 MSTORE DUP1 SWAP3 SWAP2 SWAP1 DUP2 DUP2 MSTORE PUSH1 0x20 ADD DUP3 DUP1 SLOAD DUP1 ISZERO PUSH2 0x10DF JUMPI PUSH1 0x20 MUL DUP3 ADD SWAP2 SWAP1 PUSH1 0x0 MSTORE PUSH1 0x20 PUSH1 0x0 KECCAK256 SWAP1 JUMPDEST DUP2 SLOAD DUP2 MSTORE PUSH1 0x20 ADD SWAP1 PUSH1 0x1 ADD SWAP1 DUP1 DUP4 GT PUSH2 0x10CB JUMPI JUMPDEST POP POP POP POP POP DUP2 MSTORE PUSH1 0x20 ADD PUSH1 0x9 DUP3 ADD DUP1 SLOAD DUP1 PUSH1 0x20 MUL PUSH1 0x20 ADD PUSH1 0x40 MLOAD SWAP1 DUP2 ADD PUSH1 0x40 MSTORE DUP1 SWAP3 SWAP2 SWAP1 DUP2 DUP2 MSTORE PUSH1 0x20 ADD DUP3 DUP1 SLOAD DUP1 ISZERO PUSH2 0x1137 JUMPI PUSH1 0x20 MUL DUP3 ADD SWAP2 SWAP1 PUSH1 0x0 MSTORE PUSH1 0x20 PUSH1 0x0 KECCAK256 SWAP1 JUMPDEST DUP2 SLOAD DUP2 MSTORE PUSH1 0x20 ADD SWAP1 PUSH1 0x1 ADD SWAP1 DUP1 DUP4 GT PUSH2 0x1123 JUMPI JUMPDEST POP POP POP SWAP2 DUP4 MSTORE POP POP PUSH1 0xA SWAP2 SWAP1 SWAP2 ADD SLOAD PUSH1 0xFF AND ISZERO ISZERO PUSH1 0x20 SWAP1 SWAP2 ADD MSTORE PUSH1 0xC0 DUP2 ADD MLOAD SWAP1 SWAP2 POP PUSH2 0x1163 SWAP1 DUP8 PUSH2 0x59D2 JUMP JUMPDEST SWAP6 POP POP DUP1 DUP1 PUSH2 0x1171 SWAP1 PUSH2 0x59E5 JUMP JUMPDEST SWAP2 POP POP PUSH2 0xEA2 JUMP JUMPDEST POP DUP2 PUSH1 0x6 ADD SLOAD SWAP3 POP POP POP SWAP2 SWAP4 POP SWAP2 SWAP4 JUMP JUMPDEST PUSH1 0x1 PUSH1 0x1 PUSH1 0xA0 SHL SUB DUP1 DUP3 AND PUSH1 0x0 SWAP1 DUP2 MSTORE PUSH2 0x109 PUSH1 0x20 SWAP1 DUP2 MSTORE PUSH1 0x40 DUP1 DUP4 KECCAK256 DUP2 MLOAD PUSH2 0x160 DUP2 ADD DUP4 MSTORE DUP2 SLOAD SWAP1 SWAP6 AND DUP6 MSTORE PUSH1 0x1 DUP2 ADD DUP1 SLOAD DUP4 MLOAD DUP2 DUP7 MUL DUP2 ADD DUP7 ADD SWAP1 SWAP5 MSTORE DUP1 DUP5 MSTORE SWAP5 SWAP6 DUP7 SWAP6 SWAP1 SWAP5 SWAP3 SWAP4 DUP6 DUP5 ADD SWAP4 SWAP1 SWAP3 SWAP2 SWAP1 DUP4 ADD DUP3 DUP3 DUP1 ISZERO PUSH2 0x1215 JUMPI PUSH1 0x20 MUL DUP3 ADD SWAP2 SWAP1 PUSH1 0x0 MSTORE PUSH1 0x20 PUSH1 0x0 KECCAK256 SWAP1 JUMPDEST DUP2 SLOAD PUSH1 0x1 PUSH1 0x1 PUSH1 0xA0 SHL SUB AND DUP2 MSTORE PUSH1 0x1 SWAP1 SWAP2 ADD SWAP1 PUSH1 0x20 ADD DUP1 DUP4 GT PUSH2 0x11F7 JUMPI JUMPDEST POP POP POP POP POP DUP2 MSTORE PUSH1 0x20 ADD PUSH1 0x2 DUP3 ADD DUP1 SLOAD DUP1 PUSH1 0x20 MUL PUSH1 0x20 ADD PUSH1 0x40 MLOAD SWAP1 DUP2 ADD PUSH1 0x40 MSTORE DUP1 SWAP3 SWAP2 SWAP1 DUP2 DUP2 MSTORE PUSH1 0x20 ADD DUP3 DUP1 SLOAD DUP1 ISZERO PUSH2 0x1277 JUMPI PUSH1 0x20 MUL DUP3 ADD SWAP2 SWAP1 PUSH1 0x0 MSTORE PUSH1 0x20 PUSH1 0x0 KECCAK256 SWAP1 JUMPDEST DUP2 SLOAD PUSH1 0x1 PUSH1 0x1 PUSH1 0xA0 SHL SUB AND DUP2 MSTORE PUSH1 0x1 SWAP1 SWAP2 ADD SWAP1 PUSH1 0x20 ADD DUP1 DUP4 GT PUSH2 0x1259 JUMPI JUMPDEST POP POP POP POP POP DUP2 MSTORE PUSH1 0x20 ADD PUSH1 0x3 DUP3 ADD DUP1 SLOAD DUP1 PUSH1 0x20 MUL PUSH1 0x20 ADD PUSH1 0x40 MLOAD SWAP1 DUP2 ADD PUSH1 0x40 MSTORE DUP1 SWAP3 SWAP2 SWAP1 DUP2 DUP2 MSTORE PUSH1 0x20 ADD DUP3 DUP1 SLOAD DUP1 ISZERO PUSH2 0x12CF JUMPI PUSH1 0x20 MUL DUP3 ADD SWAP2 SWAP1 PUSH1 0x0 MSTORE PUSH1 0x20 PUSH1 0x0 KECCAK256 SWAP1 JUMPDEST DUP2 SLOAD DUP2 MSTORE PUSH1 0x20 ADD SWAP1 PUSH1 0x1 ADD SWAP1 DUP1 DUP4 GT PUSH2 0x12BB JUMPI JUMPDEST POP POP POP POP POP DUP2 MSTORE PUSH1 0x20 ADD PUSH1 0x4 DUP3 ADD SLOAD DUP2 MSTORE PUSH1 0x20 ADD PUSH1 0x5 DUP3 ADD SLOAD DUP2 MSTORE PUSH1 0x20 ADD PUSH1 0x6 DUP3 ADD SLOAD DUP2 MSTORE PUSH1 0x20 ADD PUSH1 0x7 DUP3 ADD DUP1 SLOAD DUP1 PUSH1 0x20 MUL PUSH1 0x20 ADD PUSH1 0x40 MLOAD SWAP1 DUP2 ADD PUSH1 0x40 MSTORE DUP1 SWAP3 SWAP2 SWAP1 DUP2 DUP2 MSTORE PUSH1 0x20 ADD DUP3 DUP1 SLOAD DUP1 ISZERO PUSH2 0x1345 JUMPI PUSH1 0x20 MUL DUP3 ADD SWAP2 SWAP1 PUSH1 0x0 MSTORE PUSH1 0x20 PUSH1 0x0 KECCAK256 SWAP1 JUMPDEST DUP2 SLOAD DUP2 MSTORE PUSH1 0x20 ADD SWAP1 PUSH1 0x1 ADD SWAP1 DUP1 DUP4 GT PUSH2 0x1331 JUMPI JUMPDEST POP POP POP POP POP DUP2 MSTORE PUSH1 0x20 ADD PUSH1 0x8 DUP3 ADD DUP1 SLOAD DUP1 PUSH1 0x20 MUL PUSH1 0x20 ADD PUSH1 0x40 MLOAD SWAP1 DUP2 ADD PUSH1 0x40 MSTORE DUP1 SWAP3 SWAP2 SWAP1 DUP2 DUP2 MSTORE PUSH1 0x20 ADD DUP3 DUP1 SLOAD DUP1 ISZERO PUSH2 0x139D JUMPI PUSH1 0x20 MUL DUP3 ADD SWAP2 SWAP1 PUSH1 0x0 MSTORE PUSH1 0x20 PUSH1 0x0 KECCAK256 SWAP1 JUMPDEST DUP2 SLOAD DUP2 MSTORE PUSH1 0x20 ADD SWAP1 PUSH1 0x1 ADD SWAP1 DUP1 DUP4 GT PUSH2 0x1389 JUMPI JUMPDEST POP POP POP POP POP DUP2 MSTORE PUSH1 0x20 ADD PUSH1 0x9 DUP3 ADD DUP1 SLOAD DUP1 PUSH1 0x20 MUL PUSH1 0x20 ADD PUSH1 0x40 MLOAD SWAP1 DUP2 ADD PUSH1 0x40 MSTORE DUP1 SWAP3 SWAP2 SWAP1 DUP2 DUP2 MSTORE PUSH1 0x20 ADD DUP3 DUP1 SLOAD DUP1 ISZERO PUSH2 0x13F5 JUMPI PUSH1 0x20 MUL DUP3 ADD SWAP2 SWAP1 PUSH1 0x0 MSTORE PUSH1 0x20 PUSH1 0x0 KECCAK256 SWAP1 JUMPDEST DUP2 SLOAD DUP2 MSTORE PUSH1 0x20 ADD SWAP1 PUSH1 0x1 ADD SWAP1 DUP1 DUP4 GT PUSH2 0x13E1 JUMPI JUMPDEST POP POP POP SWAP2 DUP4 MSTORE POP POP PUSH1 0xA SWAP2 SWAP1 SWAP2 ADD SLOAD PUSH1 0xFF AND ISZERO ISZERO PUSH1 0x20 SWAP1 SWAP2 ADD MSTORE SWAP1 POP PUSH2 0x141A DUP2 PUSH2 0x419F JUMP JUMPDEST SWAP4 SWAP3 POP POP POP JUMP JUMPDEST PUSH1 0x1 PUSH1 0x1 PUSH1 0xA0 SHL SUB DUP2 AND PUSH1 0x0 SWAP1 DUP2 MSTORE PUSH2 0x109 PUSH1 0x20 MSTORE PUSH1 0x40 DUP2 KECCAK256 PUSH1 0x6 DUP2 ADD SWAP2 SWAP1 SWAP2 SSTORE PUSH1 0x2 DUP2 ADD SLOAD ISZERO PUSH2 0x173A JUMPI PUSH1 0x0 JUMPDEST PUSH1 0x2 DUP3 ADD SLOAD DUP2 LT ISZERO PUSH2 0x1738 JUMPI PUSH1 0x0 PUSH2 0x109 PUSH1 0x0 DUP5 PUSH1 0x2 ADD DUP5 DUP2 SLOAD DUP2 LT PUSH2 0x1477 JUMPI PUSH2 0x1477 PUSH2 0x59A6 JUMP JUMPDEST PUSH1 0x0 SWAP2 DUP3 MSTORE PUSH1 0x20 DUP1 DUP4 KECCAK256 SWAP1 SWAP2 ADD SLOAD PUSH1 0x1 PUSH1 0x1 PUSH1 0xA0 SHL SUB SWAP1 DUP2 AND DUP5 MSTORE DUP4 DUP3 ADD SWAP5 SWAP1 SWAP5 MSTORE PUSH1 0x40 SWAP3 DUP4 ADD SWAP1 SWAP2 KECCAK256 DUP3 MLOAD PUSH2 0x160 DUP2 ADD DUP5 MSTORE DUP2 SLOAD SWAP1 SWAP5 AND DUP5 MSTORE PUSH1 0x1 DUP2 ADD DUP1 SLOAD DUP5 MLOAD DUP2 DUP6 MUL DUP2 ADD DUP6 ADD SWAP1 SWAP6 MSTORE DUP1 DUP6 MSTORE SWAP2 SWAP4 DUP6 DUP5 ADD SWAP4 SWAP1 SWAP3 SWAP1 DUP4 ADD DUP3 DUP3 DUP1 ISZERO PUSH2 0x1508 JUMPI PUSH1 0x20 MUL DUP3 ADD SWAP2 SWAP1 PUSH1 0x0 MSTORE PUSH1 0x20 PUSH1 0x0 KECCAK256 SWAP1 JUMPDEST DUP2 SLOAD PUSH1 0x1 PUSH1 0x1 PUSH1 0xA0 SHL SUB AND DUP2 MSTORE PUSH1 0x1 SWAP1 SWAP2 ADD SWAP1 PUSH1 0x20 ADD DUP1 DUP4 GT PUSH2 0x14EA JUMPI JUMPDEST POP POP POP POP POP DUP2 MSTORE PUSH1 0x20 ADD PUSH1 0x2 DUP3 ADD DUP1 SLOAD DUP1 PUSH1 0x20 MUL PUSH1 0x20 ADD PUSH1 0x40 MLOAD SWAP1 DUP2 ADD PUSH1 0x40 MSTORE DUP1 SWAP3 SWAP2 SWAP1 DUP2 DUP2 MSTORE PUSH1 0x20 ADD DUP3 DUP1 SLOAD DUP1 ISZERO PUSH2 0x156A JUMPI PUSH1 0x20 MUL DUP3 ADD SWAP2 SWAP1 PUSH1 0x0 MSTORE PUSH1 0x20 PUSH1 0x0 KECCAK256 SWAP1 JUMPDEST DUP2 SLOAD PUSH1 0x1 PUSH1 0x1 PUSH1 0xA0 SHL SUB AND DUP2 MSTORE PUSH1 0x1 SWAP1 SWAP2 ADD SWAP1 PUSH1 0x20 ADD DUP1 DUP4 GT PUSH2 0x154C JUMPI JUMPDEST POP POP POP POP POP DUP2 MSTORE PUSH1 0x20 ADD PUSH1 0x3 DUP3 ADD DUP1 SLOAD DUP1 PUSH1 0x20 MUL PUSH1 0x20 ADD PUSH1 0x40 MLOAD SWAP1 DUP2 ADD PUSH1 0x40 MSTORE DUP1 SWAP3 SWAP2 SWAP1 DUP2 DUP2 MSTORE PUSH1 0x20 ADD DUP3 DUP1 SLOAD DUP1 ISZERO PUSH2 0x15C2 JUMPI PUSH1 0x20 MUL DUP3 ADD SWAP2 SWAP1 PUSH1 0x0 MSTORE PUSH1 0x20 PUSH1 0x0 KECCAK256 SWAP1 JUMPDEST DUP2 SLOAD DUP2 MSTORE PUSH1 0x20 ADD SWAP1 PUSH1 0x1 ADD SWAP1 DUP1 DUP4 GT PUSH2 0x15AE JUMPI JUMPDEST POP POP POP POP POP DUP2 MSTORE PUSH1 0x20 ADD PUSH1 0x4 DUP3 ADD SLOAD DUP2 MSTORE PUSH1 0x20 ADD PUSH1 0x5 DUP3 ADD SLOAD DUP2 MSTORE PUSH1 0x20 ADD PUSH1 0x6 DUP3 ADD SLOAD DUP2 MSTORE PUSH1 0x20 ADD PUSH1 0x7 DUP3 ADD DUP1 SLOAD DUP1 PUSH1 0x20 MUL PUSH1 0x20 ADD PUSH1 0x40 MLOAD SWAP1 DUP2 ADD PUSH1 0x40 MSTORE DUP1 SWAP3 SWAP2 SWAP1 DUP2 DUP2 MSTORE PUSH1 0x20 ADD DUP3 DUP1 SLOAD DUP1 ISZERO PUSH2 0x1638 JUMPI PUSH1 0x20 MUL DUP3 ADD SWAP2 SWAP1 PUSH1 0x0 MSTORE PUSH1 0x20 PUSH1 0x0 KECCAK256 SWAP1 JUMPDEST DUP2 SLOAD DUP2 MSTORE PUSH1 0x20 ADD SWAP1 PUSH1 0x1 ADD SWAP1 DUP1 DUP4 GT PUSH2 0x1624 JUMPI JUMPDEST POP POP POP POP POP DUP2 MSTORE PUSH1 0x20 ADD PUSH1 0x8 DUP3 ADD DUP1 SLOAD DUP1 PUSH1 0x20 MUL PUSH1 0x20 ADD PUSH1 0x40 MLOAD SWAP1 DUP2 ADD PUSH1 0x40 MSTORE DUP1 SWAP3 SWAP2 SWAP1 DUP2 DUP2 MSTORE PUSH1 0x20 ADD DUP3 DUP1 SLOAD DUP1 ISZERO PUSH2 0x1690 JUMPI PUSH1 0x20 MUL DUP3 ADD SWAP2 SWAP1 PUSH1 0x0 MSTORE PUSH1 0x20 PUSH1 0x0 KECCAK256 SWAP1 JUMPDEST DUP2 SLOAD DUP2 MSTORE PUSH1 0x20 ADD SWAP1 PUSH1 0x1 ADD SWAP1 DUP1 DUP4 GT PUSH2 0x167C JUMPI JUMPDEST POP POP POP POP POP DUP2 MSTORE PUSH1 0x20 ADD PUSH1 0x9 DUP3 ADD DUP1 SLOAD DUP1 PUSH1 0x20 MUL PUSH1 0x20 ADD PUSH1 0x40 MLOAD SWAP1 DUP2 ADD PUSH1 0x40 MSTORE DUP1 SWAP3 SWAP2 SWAP1 DUP2 DUP2 MSTORE PUSH1 0x20 ADD DUP3 DUP1 SLOAD DUP1 ISZERO PUSH2 0x16E8 JUMPI PUSH1 0x20 MUL DUP3 ADD SWAP2 SWAP1 PUSH1 0x0 MSTORE PUSH1 0x20 PUSH1 0x0 KECCAK256 SWAP1 JUMPDEST DUP2 SLOAD DUP2 MSTORE PUSH1 0x20 ADD SWAP1 PUSH1 0x1 ADD SWAP1 DUP1 DUP4 GT PUSH2 0x16D4 JUMPI JUMPDEST POP POP POP SWAP2 DUP4 MSTORE POP POP PUSH1 0xA SWAP2 SWAP1 SWAP2 ADD SLOAD PUSH1 0xFF AND ISZERO ISZERO PUSH1 0x20 SWAP1 SWAP2 ADD MSTORE PUSH1 0x80 DUP2 ADD MLOAD PUSH1 0x6 DUP6 ADD DUP1 SLOAD SWAP3 SWAP4 POP SWAP1 SWAP2 PUSH1 0x0 SWAP1 PUSH2 0x1720 SWAP1 DUP5 SWAP1 PUSH2 0x59D2 JUMP JUMPDEST SWAP1 SWAP2 SSTORE POP PUSH2 0x1731 SWAP2 POP DUP3 SWAP1 POP PUSH2 0x59E5 JUMP JUMPDEST SWAP1 POP PUSH2 0x144F JUMP JUMPDEST POP JUMPDEST POP POP JUMP JUMPDEST PUSH1 0xFB SLOAD PUSH1 0x40 MLOAD PUSH4 0x935E01B PUSH1 0xE2 SHL DUP2 MSTORE CALLER PUSH1 0x4 DUP3 ADD MSTORE PUSH1 0x1 PUSH1 0x1 PUSH1 0xA0 SHL SUB SWAP1 SWAP2 AND SWAP1 PUSH4 0x24D7806C SWAP1 PUSH1 0x24 ADD PUSH1 0x20 PUSH1 0x40 MLOAD DUP1 DUP4 SUB DUP2 DUP7 GAS STATICCALL ISZERO DUP1 ISZERO PUSH2 0x1786 JUMPI RETURNDATASIZE PUSH1 0x0 DUP1 RETURNDATACOPY RETURNDATASIZE PUSH1 0x0 REVERT JUMPDEST POP POP POP POP PUSH1 0x40 MLOAD RETURNDATASIZE PUSH1 0x1F NOT PUSH1 0x1F DUP3 ADD AND DUP3 ADD DUP1 PUSH1 0x40 MSTORE POP DUP2 ADD SWAP1 PUSH2 0x17AA SWAP2 SWAP1 PUSH2 0x5967 JUMP JUMPDEST PUSH2 0x17C6 JUMPI PUSH1 0x40 MLOAD PUSH3 0x461BCD PUSH1 0xE5 SHL DUP2 MSTORE PUSH1 0x4 ADD PUSH2 0xA6D SWAP1 PUSH2 0x59FE JUMP JUMPDEST PUSH1 0x0 JUMPDEST DUP8 MLOAD DUP2 LT ISZERO PUSH2 0x1A55 JUMPI PUSH1 0x40 MLOAD DUP1 PUSH1 0xE0 ADD PUSH1 0x40 MSTORE DUP1 DUP10 DUP4 DUP2 MLOAD DUP2 LT PUSH2 0x17EF JUMPI PUSH2 0x17EF PUSH2 0x59A6 JUMP JUMPDEST PUSH1 0x20 MUL PUSH1 0x20 ADD ADD MLOAD PUSH1 0xFF AND DUP2 MSTORE PUSH1 0x20 ADD DUP9 DUP4 DUP2 MLOAD DUP2 LT PUSH2 0x1811 JUMPI PUSH2 0x1811 PUSH2 0x59A6 JUMP JUMPDEST PUSH1 0x20 MUL PUSH1 0x20 ADD ADD MLOAD DUP2 MSTORE PUSH1 0x20 ADD DUP8 DUP4 DUP2 MLOAD DUP2 LT PUSH2 0x1830 JUMPI PUSH2 0x1830 PUSH2 0x59A6 JUMP JUMPDEST PUSH1 0x20 MUL PUSH1 0x20 ADD ADD MLOAD DUP2 MSTORE PUSH1 0x20 ADD DUP7 DUP4 DUP2 MLOAD DUP2 LT PUSH2 0x184F JUMPI PUSH2 0x184F PUSH2 0x59A6 JUMP JUMPDEST PUSH1 0x20 MUL PUSH1 0x20 ADD ADD MLOAD DUP2 MSTORE PUSH1 0x20 ADD DUP6 DUP4 DUP2 MLOAD DUP2 LT PUSH2 0x186E JUMPI PUSH2 0x186E PUSH2 0x59A6 JUMP JUMPDEST PUSH1 0x20 MUL PUSH1 0x20 ADD ADD MLOAD DUP2 MSTORE PUSH1 0x20 ADD DUP5 DUP4 DUP2 MLOAD DUP2 LT PUSH2 0x188D JUMPI PUSH2 0x188D PUSH2 0x59A6 JUMP JUMPDEST PUSH1 0x20 MUL PUSH1 0x20 ADD ADD MLOAD DUP2 MSTORE PUSH1 0x20 ADD DUP4 DUP4 DUP2 MLOAD DUP2 LT PUSH2 0x18AC JUMPI PUSH2 0x18AC PUSH2 0x59A6 JUMP JUMPDEST PUSH1 0x20 MUL PUSH1 0x20 ADD ADD MLOAD DUP2 MSTORE POP PUSH2 0x10B PUSH1 0x0 DUP11 DUP5 DUP2 MLOAD DUP2 LT PUSH2 0x18CE JUMPI PUSH2 0x18CE PUSH2 0x59A6 JUMP JUMPDEST PUSH1 0x20 SWAP1 DUP2 MUL SWAP2 SWAP1 SWAP2 ADD DUP2 ADD MLOAD PUSH1 0xFF SWAP1 DUP2 AND DUP4 MSTORE DUP3 DUP3 ADD SWAP4 SWAP1 SWAP4 MSTORE PUSH1 0x40 SWAP2 DUP3 ADD PUSH1 0x0 KECCAK256 DUP5 MLOAD DUP2 SLOAD PUSH1 0xFF NOT AND SWAP5 AND SWAP4 SWAP1 SWAP4 OR DUP4 SSTORE DUP4 ADD MLOAD PUSH1 0x1 DUP4 ADD SSTORE DUP3 ADD MLOAD PUSH1 0x2 DUP3 ADD SSTORE PUSH1 0x60 DUP3 ADD MLOAD PUSH1 0x3 DUP3 ADD SSTORE PUSH1 0x80 DUP3 ADD MLOAD PUSH1 0x4 DUP3 ADD SWAP1 PUSH2 0x192E SWAP1 DUP3 PUSH2 0x5AAB JUMP JUMPDEST POP PUSH1 0xA0 DUP3 ADD MLOAD PUSH1 0x5 DUP3 ADD SWAP1 PUSH2 0x1943 SWAP1 DUP3 PUSH2 0x5AAB JUMP JUMPDEST POP PUSH1 0xC0 DUP3 ADD MLOAD DUP2 PUSH1 0x6 ADD SSTORE SWAP1 POP POP PUSH32 0xB9F30BF0AB6748F3FCFBC9D280ED1FEEDEA51276343F55F8342B8C453B876E9A DUP9 DUP3 DUP2 MLOAD DUP2 LT PUSH2 0x1984 JUMPI PUSH2 0x1984 PUSH2 0x59A6 JUMP JUMPDEST PUSH1 0x20 MUL PUSH1 0x20 ADD ADD MLOAD DUP9 DUP4 DUP2 MLOAD DUP2 LT PUSH2 0x199E JUMPI PUSH2 0x199E PUSH2 0x59A6 JUMP JUMPDEST PUSH1 0x20 MUL PUSH1 0x20 ADD ADD MLOAD DUP9 DUP5 DUP2 MLOAD DUP2 LT PUSH2 0x19B8 JUMPI PUSH2 0x19B8 PUSH2 0x59A6 JUMP JUMPDEST PUSH1 0x20 MUL PUSH1 0x20 ADD ADD MLOAD DUP9 DUP6 DUP2 MLOAD DUP2 LT PUSH2 0x19D2 JUMPI PUSH2 0x19D2 PUSH2 0x59A6 JUMP JUMPDEST PUSH1 0x20 MUL PUSH1 0x20 ADD ADD MLOAD DUP9 DUP7 DUP2 MLOAD DUP2 LT PUSH2 0x19EC JUMPI PUSH2 0x19EC PUSH2 0x59A6 JUMP JUMPDEST PUSH1 0x20 MUL PUSH1 0x20 ADD ADD MLOAD DUP9 DUP8 DUP2 MLOAD DUP2 LT PUSH2 0x1A06 JUMPI PUSH2 0x1A06 PUSH2 0x59A6 JUMP JUMPDEST PUSH1 0x20 MUL PUSH1 0x20 ADD ADD MLOAD DUP9 DUP9 DUP2 MLOAD DUP2 LT PUSH2 0x1A20 JUMPI PUSH2 0x1A20 PUSH2 0x59A6 JUMP JUMPDEST PUSH1 0x20 MUL PUSH1 0x20 ADD ADD MLOAD PUSH1 0x40 MLOAD PUSH2 0x1A3B SWAP8 SWAP7 SWAP6 SWAP5 SWAP4 SWAP3 SWAP2 SWAP1 PUSH2 0x56AF JUMP JUMPDEST PUSH1 0x40 MLOAD DUP1 SWAP2 SUB SWAP1 LOG1 DUP1 PUSH2 0x1A4D DUP2 PUSH2 0x59E5 JUMP JUMPDEST SWAP2 POP POP PUSH2 0x17C9 JUMP JUMPDEST POP POP POP POP POP POP POP POP JUMP JUMPDEST PUSH1 0x1 PUSH1 0x1 PUSH1 0xA0 SHL SUB PUSH32 0x0 AND ADDRESS SUB PUSH2 0x1AA7 JUMPI PUSH1 0x40 MLOAD PUSH3 0x461BCD PUSH1 0xE5 SHL DUP2 MSTORE PUSH1 0x4 ADD PUSH2 0xA6D SWAP1 PUSH2 0x5B6B JUMP JUMPDEST PUSH32 0x0 PUSH1 0x1 PUSH1 0x1 PUSH1 0xA0 SHL SUB AND PUSH2 0x1AF0 PUSH1 0x0 DUP1 MLOAD PUSH1 0x20 PUSH2 0x5E6C DUP4 CODECOPY DUP2 MLOAD SWAP2 MSTORE SLOAD PUSH1 0x1 PUSH1 0x1 PUSH1 0xA0 SHL SUB AND SWAP1 JUMP JUMPDEST PUSH1 0x1 PUSH1 0x1 PUSH1 0xA0 SHL SUB AND EQ PUSH2 0x1B16 JUMPI PUSH1 0x40 MLOAD PUSH3 0x461BCD PUSH1 0xE5 SHL DUP2 MSTORE PUSH1 0x4 ADD PUSH2 0xA6D SWAP1 PUSH2 0x5BB7 JUMP JUMPDEST PUSH2 0x1B1F DUP2 PUSH2 0x4209 JUMP JUMPDEST PUSH1 0x40 DUP1 MLOAD PUSH1 0x0 DUP1 DUP3 MSTORE PUSH1 0x20 DUP3 ADD SWAP1 SWAP3 MSTORE PUSH2 0x1B3B SWAP2 DUP4 SWAP2 SWAP1 PUSH2 0x4211 JUMP JUMPDEST POP JUMP JUMPDEST PUSH1 0x1 PUSH1 0x1 PUSH1 0xA0 SHL SUB PUSH32 0x0 AND ADDRESS SUB PUSH2 0x1B86 JUMPI PUSH1 0x40 MLOAD PUSH3 0x461BCD PUSH1 0xE5 SHL DUP2 MSTORE PUSH1 0x4 ADD PUSH2 0xA6D SWAP1 PUSH2 0x5B6B JUMP JUMPDEST PUSH32 0x0 PUSH1 0x1 PUSH1 0x1 PUSH1 0xA0 SHL SUB AND PUSH2 0x1BCF PUSH1 0x0 DUP1 MLOAD PUSH1 0x20 PUSH2 0x5E6C DUP4 CODECOPY DUP2 MLOAD SWAP2 MSTORE SLOAD PUSH1 0x1 PUSH1 0x1 PUSH1 0xA0 SHL SUB AND SWAP1 JUMP JUMPDEST PUSH1 0x1 PUSH1 0x1 PUSH1 0xA0 SHL SUB AND EQ PUSH2 0x1BF5 JUMPI PUSH1 0x40 MLOAD PUSH3 0x461BCD PUSH1 0xE5 SHL DUP2 MSTORE PUSH1 0x4 ADD PUSH2 0xA6D SWAP1 PUSH2 0x5BB7 JUMP JUMPDEST PUSH2 0x1BFE DUP3 PUSH2 0x4209 JUMP JUMPDEST PUSH2 0x173A DUP3 DUP3 PUSH1 0x1 PUSH2 0x4211 JUMP JUMPDEST PUSH2 0x10E DUP2 DUP2 SLOAD DUP2 LT PUSH2 0x1C1B JUMPI PUSH1 0x0 DUP1 REVERT JUMPDEST PUSH1 0x0 SWAP2 DUP3 MSTORE PUSH1 0x20 SWAP1 SWAP2 KECCAK256 ADD SLOAD PUSH1 0x1 PUSH1 0x1 PUSH1 0xA0 SHL SUB AND SWAP1 POP DUP2 JUMP JUMPDEST PUSH1 0x0 ADDRESS PUSH1 0x1 PUSH1 0x1 PUSH1 0xA0 SHL SUB PUSH32 0x0 AND EQ PUSH2 0x1CD5 JUMPI PUSH1 0x40 MLOAD PUSH3 0x461BCD PUSH1 0xE5 SHL DUP2 MSTORE PUSH1 0x20 PUSH1 0x4 DUP3 ADD MSTORE PUSH1 0x38 PUSH1 0x24 DUP3 ADD MSTORE PUSH32 0x555550535570677261646561626C653A206D757374206E6F742062652063616C PUSH1 0x44 DUP3 ADD MSTORE PUSH32 0x6C6564207468726F7567682064656C656761746563616C6C0000000000000000 PUSH1 0x64 DUP3 ADD MSTORE PUSH1 0x84 ADD PUSH2 0xA6D JUMP JUMPDEST POP PUSH1 0x0 DUP1 MLOAD PUSH1 0x20 PUSH2 0x5E6C DUP4 CODECOPY DUP2 MLOAD SWAP2 MSTORE SWAP1 JUMP JUMPDEST PUSH2 0x1CF0 PUSH2 0x3753 JUMP JUMPDEST PUSH2 0x1CFA PUSH1 0x0 PUSH2 0x4381 JUMP JUMPDEST JUMP JUMPDEST PUSH1 0xFB SLOAD PUSH1 0x40 MLOAD PUSH4 0x935E01B PUSH1 0xE2 SHL DUP2 MSTORE CALLER PUSH1 0x4 DUP3 ADD MSTORE PUSH1 0x1 PUSH1 0x1 PUSH1 0xA0 SHL SUB SWAP1 SWAP2 AND SWAP1 PUSH4 0x24D7806C SWAP1 PUSH1 0x24 ADD PUSH1 0x20 PUSH1 0x40 MLOAD DUP1 DUP4 SUB DUP2 DUP7 GAS STATICCALL ISZERO DUP1 ISZERO PUSH2 0x1D44 JUMPI RETURNDATASIZE PUSH1 0x0 DUP1 RETURNDATACOPY RETURNDATASIZE PUSH1 0x0 REVERT JUMPDEST POP POP POP POP PUSH1 0x40 MLOAD RETURNDATASIZE PUSH1 0x1F NOT PUSH1 0x1F DUP3 ADD AND DUP3 ADD DUP1 PUSH1 0x40 MSTORE POP DUP2 ADD SWAP1 PUSH2 0x1D68 SWAP2 SWAP1 PUSH2 0x5967 JUMP JUMPDEST PUSH2 0x1D84 JUMPI PUSH1 0x40 MLOAD PUSH3 0x461BCD PUSH1 0xE5 SHL DUP2 MSTORE PUSH1 0x4 ADD PUSH2 0xA6D SWAP1 PUSH2 0x59FE JUMP JUMPDEST PUSH1 0x1 PUSH1 0x1 PUSH1 0xA0 SHL SUB DUP1 DUP4 AND PUSH1 0x0 SWAP1 DUP2 MSTORE PUSH2 0x10A PUSH1 0x20 MSTORE PUSH1 0x40 SWAP1 KECCAK256 DUP1 SLOAD SWAP1 SWAP2 AND PUSH2 0x1DC1 JUMPI DUP1 SLOAD PUSH1 0x1 PUSH1 0x1 PUSH1 0xA0 SHL SUB NOT AND PUSH1 0x1 PUSH1 0x1 PUSH1 0xA0 SHL SUB DUP5 AND OR DUP2 SSTORE JUMPDEST PUSH1 0x1 SWAP1 DUP2 ADD DUP1 SLOAD SWAP2 DUP3 ADD DUP2 SSTORE PUSH1 0x0 SWAP1 DUP2 MSTORE PUSH1 0x20 SWAP1 DUP2 SWAP1 KECCAK256 SWAP1 DUP3 DIV ADD DUP1 SLOAD PUSH1 0xFF SWAP4 DUP5 AND PUSH1 0x1F SWAP1 SWAP4 AND PUSH2 0x100 EXP SWAP3 DUP4 MUL SWAP4 SWAP1 SWAP3 MUL NOT SWAP1 SWAP2 AND SWAP2 SWAP1 SWAP2 OR SWAP1 SSTORE POP JUMP JUMPDEST PUSH2 0x1E08 PUSH2 0x3753 JUMP JUMPDEST PUSH1 0x40 MLOAD PUSH1 0x1 PUSH1 0x1 PUSH1 0xA0 SHL SUB DUP4 AND SWAP1 DUP3 ISZERO PUSH2 0x8FC MUL SWAP1 DUP4 SWAP1 PUSH1 0x0 DUP2 DUP2 DUP2 DUP6 DUP9 DUP9 CALL SWAP4 POP POP POP POP ISZERO DUP1 ISZERO PUSH2 0x1738 JUMPI RETURNDATASIZE PUSH1 0x0 DUP1 RETURNDATACOPY RETURNDATASIZE PUSH1 0x0 REVERT JUMPDEST PUSH1 0x0 SLOAD PUSH2 0x100 SWAP1 DIV PUSH1 0xFF AND ISZERO DUP1 DUP1 ISZERO PUSH2 0x1E5E JUMPI POP PUSH1 0x0 SLOAD PUSH1 0x1 PUSH1 0xFF SWAP1 SWAP2 AND LT JUMPDEST DUP1 PUSH2 0x1E78 JUMPI POP ADDRESS EXTCODESIZE ISZERO DUP1 ISZERO PUSH2 0x1E78 JUMPI POP PUSH1 0x0 SLOAD PUSH1 0xFF AND PUSH1 0x1 EQ JUMPDEST PUSH2 0x1EDB JUMPI PUSH1 0x40 MLOAD PUSH3 0x461BCD PUSH1 0xE5 SHL DUP2 MSTORE PUSH1 0x20 PUSH1 0x4 DUP3 ADD MSTORE PUSH1 0x2E PUSH1 0x24 DUP3 ADD MSTORE PUSH32 0x496E697469616C697A61626C653A20636F6E747261637420697320616C726561 PUSH1 0x44 DUP3 ADD MSTORE PUSH14 0x191E481A5B9A5D1A585B1A5E9959 PUSH1 0x92 SHL PUSH1 0x64 DUP3 ADD MSTORE PUSH1 0x84 ADD PUSH2 0xA6D JUMP JUMPDEST PUSH1 0x0 DUP1 SLOAD PUSH1 0xFF NOT AND PUSH1 0x1 OR SWAP1 SSTORE DUP1 ISZERO PUSH2 0x1EFE JUMPI PUSH1 0x0 DUP1 SLOAD PUSH2 0xFF00 NOT AND PUSH2 0x100 OR SWAP1 SSTORE JUMPDEST PUSH1 0xFB DUP1 SLOAD PUSH1 0x1 PUSH1 0x1 PUSH1 0xA0 SHL SUB NOT SWAP1 DUP2 AND PUSH20 0x77DAAFC7411C911B869C71BF70FE36CCE507845D OR SWAP1 SWAP2 SSTORE PUSH2 0x100 DUP1 SLOAD SWAP1 SWAP2 AND PUSH20 0xF3BA579D4AFD4DAD8A8C2D1BCBDD1405688E492F OR SWAP1 SSTORE PUSH1 0x40 DUP1 MLOAD PUSH1 0xE0 DUP2 ADD DUP3 MSTORE PUSH1 0x7 DUP1 DUP3 MSTORE PUSH1 0x4 PUSH1 0x20 DUP4 ADD MSTORE PUSH1 0x3 SWAP3 DUP3 ADD SWAP3 SWAP1 SWAP3 MSTORE PUSH1 0x2 PUSH1 0x60 DUP3 ADD MSTORE PUSH1 0x1 PUSH1 0x80 DUP3 ADD DUP2 SWAP1 MSTORE PUSH1 0xA0 DUP3 ADD DUP2 SWAP1 MSTORE PUSH1 0xC0 DUP3 ADD MSTORE PUSH2 0x1F8F SWAP2 PUSH1 0xFC SWAP2 SWAP1 PUSH2 0x4FC2 JUMP JUMPDEST POP PUSH1 0x64 PUSH1 0xFD SSTORE PUSH1 0x14 PUSH2 0x106 SSTORE PUSH10 0x11478B7C30ABC300000 PUSH2 0x103 SSTORE PUSH1 0x4 PUSH2 0x101 SSTORE PUSH1 0x5 PUSH2 0x104 SSTORE PUSH9 0xA80D24677EFEF00000 PUSH2 0x105 SSTORE PUSH2 0x1FCC PUSH2 0x43D3 JUMP JUMPDEST PUSH2 0x1FD4 PUSH2 0x4402 JUMP JUMPDEST PUSH2 0x1FDC PUSH2 0x4431 JUMP JUMPDEST DUP1 ISZERO PUSH2 0x1B3B JUMPI PUSH1 0x0 DUP1 SLOAD PUSH2 0xFF00 NOT AND SWAP1 SSTORE PUSH1 0x40 MLOAD PUSH1 0x1 DUP2 MSTORE PUSH32 0x7F26B83FF96E1F2B6A682F133852F6798A09C465DA95921460CEFB3847402498 SWAP1 PUSH1 0x20 ADD PUSH1 0x40 MLOAD DUP1 SWAP2 SUB SWAP1 LOG1 POP JUMP JUMPDEST PUSH2 0x2054 PUSH1 0x40 MLOAD DUP1 PUSH1 0x60 ADD PUSH1 0x40 MSTORE DUP1 PUSH1 0x0 PUSH1 0x1 PUSH1 0x1 PUSH1 0xA0 SHL SUB AND DUP2 MSTORE PUSH1 0x20 ADD PUSH1 0x60 DUP2 MSTORE PUSH1 0x20 ADD PUSH1 0x0 PUSH1 0xFF AND DUP2 MSTORE POP SWAP1 JUMP JUMPDEST PUSH1 0x1 PUSH1 0x1 PUSH1 0xA0 SHL SUB DUP1 DUP4 AND PUSH1 0x0 SWAP1 DUP2 MSTORE PUSH2 0x10A PUSH1 0x20 SWAP1 DUP2 MSTORE PUSH1 0x40 SWAP2 DUP3 SWAP1 KECCAK256 DUP3 MLOAD PUSH1 0x60 DUP2 ADD DUP5 MSTORE DUP2 SLOAD SWAP1 SWAP5 AND DUP5 MSTORE PUSH1 0x1 DUP2 ADD DUP1 SLOAD DUP5 MLOAD DUP2 DUP6 MUL DUP2 ADD DUP6 ADD SWAP1 SWAP6 MSTORE DUP1 DUP6 MSTORE SWAP2 SWAP4 DUP6 DUP5 ADD SWAP4 SWAP1 SWAP3 SWAP1 DUP4 ADD DUP3 DUP3 DUP1 ISZERO PUSH2 0x20EC JUMPI PUSH1 0x20 MUL DUP3 ADD SWAP2 SWAP1 PUSH1 0x0 MSTORE PUSH1 0x20 PUSH1 0x0 KECCAK256 SWAP1 PUSH1 0x0 SWAP1 JUMPDEST DUP3 SLOAD PUSH2 0x100 DUP4 SWAP1 EXP SWAP1 DIV PUSH1 0xFF AND DUP2 MSTORE PUSH1 0x20 PUSH1 0x1 SWAP3 DUP4 ADD DUP2 DUP2 DIV SWAP5 DUP6 ADD SWAP5 SWAP1 SWAP4 SUB SWAP1 SWAP3 MUL SWAP2 ADD DUP1 DUP5 GT PUSH2 0x20BD JUMPI SWAP1 POP JUMPDEST POP POP POP SWAP2 DUP4 MSTORE POP POP PUSH1 0x2 SWAP2 SWAP1 SWAP2 ADD SLOAD PUSH1 0xFF AND PUSH1 0x20 SWAP1 SWAP2 ADD MSTORE SWAP3 SWAP2 POP POP JUMP JUMPDEST PUSH1 0x65 SLOAD PUSH1 0x1 PUSH1 0x1 PUSH1 0xA0 SHL SUB AND CALLER EQ PUSH2 0x21A2 JUMPI PUSH1 0x1 PUSH1 0x1 PUSH1 0xA0 SHL SUB DUP2 AND PUSH1 0x0 SWAP1 DUP2 MSTORE PUSH2 0x111 PUSH1 0x20 MSTORE PUSH1 0x40 SWAP1 KECCAK256 SLOAD PUSH1 0xFF AND ISZERO PUSH2 0x21A2 JUMPI PUSH1 0x40 MLOAD PUSH3 0x461BCD PUSH1 0xE5 SHL DUP2 MSTORE PUSH1 0x20 PUSH1 0x4 DUP3 ADD MSTORE PUSH1 0x33 PUSH1 0x24 DUP3 ADD MSTORE PUSH32 0x75706461746555706C696E655465616D4C6576656C73323028293A204C657665 PUSH1 0x44 DUP3 ADD MSTORE PUSH19 0x36399030B63932B0B23C903AB83230BA32B217 PUSH1 0x69 SHL PUSH1 0x64 DUP3 ADD MSTORE PUSH1 0x84 ADD PUSH2 0xA6D JUMP JUMPDEST PUSH1 0x1 PUSH1 0x1 PUSH1 0xA0 SHL SUB DUP2 AND PUSH1 0x0 SWAP1 DUP2 MSTORE PUSH2 0x109 PUSH1 0x20 MSTORE PUSH1 0x40 SWAP1 KECCAK256 PUSH1 0x4 DUP2 ADD SLOAD DUP1 PUSH2 0x2233 JUMPI PUSH1 0x40 MLOAD PUSH3 0x461BCD PUSH1 0xE5 SHL DUP2 MSTORE PUSH1 0x20 PUSH1 0x4 DUP3 ADD MSTORE PUSH1 0x39 PUSH1 0x24 DUP3 ADD MSTORE PUSH32 0x75706461746555706C696E655465616D4C6576656C73323028293A20596F7520 PUSH1 0x44 DUP3 ADD MSTORE PUSH32 0x68617665206E6F20627573696E657373206F72207A65726F2E00000000000000 PUSH1 0x64 DUP3 ADD MSTORE PUSH1 0x84 ADD PUSH2 0xA6D JUMP JUMPDEST PUSH2 0x106 SLOAD PUSH1 0xFC DUP1 SLOAD PUSH1 0x40 DUP1 MLOAD PUSH1 0x20 DUP1 DUP5 MUL DUP3 ADD DUP2 ADD SWAP1 SWAP3 MSTORE DUP3 DUP2 MSTORE PUSH1 0x0 SWAP4 SWAP1 SWAP3 SWAP1 SWAP2 DUP4 ADD DUP3 DUP3 DUP1 ISZERO PUSH2 0x2284 JUMPI PUSH1 0x20 MUL DUP3 ADD SWAP2 SWAP1 PUSH1 0x0 MSTORE PUSH1 0x20 PUSH1 0x0 KECCAK256 SWAP1 JUMPDEST DUP2 SLOAD DUP2 MSTORE PUSH1 0x20 ADD SWAP1 PUSH1 0x1 ADD SWAP1 DUP1 DUP4 GT PUSH2 0x2270 JUMPI JUMPDEST POP POP POP POP POP SWAP1 POP PUSH1 0x0 JUMPDEST DUP3 DUP2 PUSH1 0xFF AND LT ISZERO PUSH2 0x22FF JUMPI DUP5 SLOAD PUSH1 0x1 PUSH1 0x1 PUSH1 0xA0 SHL SUB AND PUSH1 0x0 DUP2 DUP2 MSTORE PUSH2 0x109 PUSH1 0x20 MSTORE PUSH1 0x40 SWAP1 KECCAK256 SWAP1 PUSH2 0x22BE JUMPI POP PUSH2 0x22FF JUMP JUMPDEST DUP3 MLOAD DUP3 PUSH1 0xFF AND LT PUSH2 0x22ED JUMPI PUSH2 0x22D4 PUSH1 0x2 DUP7 PUSH2 0x5C19 JUMP JUMPDEST DUP2 PUSH1 0x6 ADD PUSH1 0x0 DUP3 DUP3 SLOAD PUSH2 0x22E7 SWAP2 SWAP1 PUSH2 0x59D2 JUMP JUMPDEST SWAP1 SWAP2 SSTORE POP POP JUMPDEST SWAP5 POP PUSH2 0x22F8 DUP2 PUSH2 0x5C2D JUMP JUMPDEST SWAP1 POP PUSH2 0x228E JUMP JUMPDEST POP POP POP PUSH1 0x1 PUSH1 0x1 PUSH1 0xA0 SHL SUB SWAP1 SWAP3 AND PUSH1 0x0 SWAP1 DUP2 MSTORE PUSH2 0x111 PUSH1 0x20 MSTORE PUSH1 0x40 SWAP1 KECCAK256 DUP1 SLOAD PUSH1 0xFF NOT AND PUSH1 0x1 OR SWAP1 SSTORE POP POP JUMP JUMPDEST PUSH1 0xFB SLOAD PUSH1 0x40 MLOAD PUSH4 0x935E01B PUSH1 0xE2 SHL DUP2 MSTORE CALLER PUSH1 0x4 DUP3 ADD MSTORE PUSH1 0x1 PUSH1 0x1 PUSH1 0xA0 SHL SUB SWAP1 SWAP2 AND SWAP1 PUSH4 0x24D7806C SWAP1 PUSH1 0x24 ADD PUSH1 0x20 PUSH1 0x40 MLOAD DUP1 DUP4 SUB DUP2 DUP7 GAS STATICCALL ISZERO DUP1 ISZERO PUSH2 0x2373 JUMPI RETURNDATASIZE PUSH1 0x0 DUP1 RETURNDATACOPY RETURNDATASIZE PUSH1 0x0 REVERT JUMPDEST POP POP POP POP PUSH1 0x40 MLOAD RETURNDATASIZE PUSH1 0x1F NOT PUSH1 0x1F DUP3 ADD AND DUP3 ADD DUP1 PUSH1 0x40 MSTORE POP DUP2 ADD SWAP1 PUSH2 0x2397 SWAP2 SWAP1 PUSH2 0x5967 JUMP JUMPDEST PUSH2 0x23B3 JUMPI PUSH1 0x40 MLOAD PUSH3 0x461BCD PUSH1 0xE5 SHL DUP2 MSTORE PUSH1 0x4 ADD PUSH2 0xA6D SWAP1 PUSH2 0x59FE JUMP JUMPDEST PUSH1 0x0 JUMPDEST DUP2 DUP2 LT ISZERO PUSH2 0x1738 JUMPI PUSH2 0x23ED DUP4 DUP4 DUP4 DUP2 DUP2 LT PUSH2 0x23D3 JUMPI PUSH2 0x23D3 PUSH2 0x59A6 JUMP JUMPDEST SWAP1 POP PUSH1 0x20 MUL ADD PUSH1 0x20 DUP2 ADD SWAP1 PUSH2 0x23E8 SWAP2 SWAP1 PUSH2 0x503C JUMP JUMPDEST PUSH2 0x40A8 JUMP JUMPDEST DUP1 PUSH2 0x23F7 DUP2 PUSH2 0x59E5 JUMP JUMPDEST SWAP2 POP POP PUSH2 0x23B6 JUMP JUMPDEST PUSH1 0xFB SLOAD PUSH1 0x40 MLOAD PUSH4 0x935E01B PUSH1 0xE2 SHL DUP2 MSTORE CALLER PUSH1 0x4 DUP3 ADD MSTORE PUSH1 0x1 PUSH1 0x1 PUSH1 0xA0 SHL SUB SWAP1 SWAP2 AND SWAP1 PUSH4 0x24D7806C SWAP1 PUSH1 0x24 ADD PUSH1 0x20 PUSH1 0x40 MLOAD DUP1 DUP4 SUB DUP2 DUP7 GAS STATICCALL ISZERO DUP1 ISZERO PUSH2 0x2447 JUMPI RETURNDATASIZE PUSH1 0x0 DUP1 RETURNDATACOPY RETURNDATASIZE PUSH1 0x0 REVERT JUMPDEST POP POP POP POP PUSH1 0x40 MLOAD RETURNDATASIZE PUSH1 0x1F NOT PUSH1 0x1F DUP3 ADD AND DUP3 ADD DUP1 PUSH1 0x40 MSTORE POP DUP2 ADD SWAP1 PUSH2 0x246B SWAP2 SWAP1 PUSH2 0x5967 JUMP JUMPDEST PUSH2 0x2487 JUMPI PUSH1 0x40 MLOAD PUSH3 0x461BCD PUSH1 0xE5 SHL DUP2 MSTORE PUSH1 0x4 ADD PUSH2 0xA6D SWAP1 PUSH2 0x59FE JUMP JUMPDEST PUSH2 0x103 SWAP2 SWAP1 SWAP2 SSTORE PUSH2 0x110 SSTORE JUMP JUMPDEST PUSH2 0x10B PUSH1 0x20 MSTORE PUSH1 0x0 SWAP1 DUP2 MSTORE PUSH1 0x40 SWAP1 KECCAK256 DUP1 SLOAD PUSH1 0x1 DUP3 ADD SLOAD PUSH1 0x2 DUP4 ADD SLOAD PUSH1 0x3 DUP5 ADD SLOAD PUSH1 0x4 DUP6 ADD DUP1 SLOAD PUSH1 0xFF SWAP1 SWAP6 AND SWAP6 SWAP4 SWAP5 SWAP3 SWAP4 SWAP2 SWAP3 PUSH2 0x24CF SWAP1 PUSH2 0x5A29 JUMP JUMPDEST DUP1 PUSH1 0x1F ADD PUSH1 0x20 DUP1 SWAP2 DIV MUL PUSH1 0x20 ADD PUSH1 0x40 MLOAD SWAP1 DUP2 ADD PUSH1 0x40 MSTORE DUP1 SWAP3 SWAP2 SWAP1 DUP2 DUP2 MSTORE PUSH1 0x20 ADD DUP3 DUP1 SLOAD PUSH2 0x24FB SWAP1 PUSH2 0x5A29 JUMP JUMPDEST DUP1 ISZERO PUSH2 0x2548 JUMPI DUP1 PUSH1 0x1F LT PUSH2 0x251D JUMPI PUSH2 0x100 DUP1 DUP4 SLOAD DIV MUL DUP4 MSTORE SWAP2 PUSH1 0x20 ADD SWAP2 PUSH2 0x2548 JUMP JUMPDEST DUP3 ADD SWAP2 SWAP1 PUSH1 0x0 MSTORE PUSH1 0x20 PUSH1 0x0 KECCAK256 SWAP1 JUMPDEST DUP2 SLOAD DUP2 MSTORE SWAP1 PUSH1 0x1 ADD SWAP1 PUSH1 0x20 ADD DUP1 DUP4 GT PUSH2 0x252B JUMPI DUP3 SWAP1 SUB PUSH1 0x1F AND DUP3 ADD SWAP2 JUMPDEST POP POP POP POP POP SWAP1 DUP1 PUSH1 0x5 ADD DUP1 SLOAD PUSH2 0x255D SWAP1 PUSH2 0x5A29 JUMP JUMPDEST DUP1 PUSH1 0x1F ADD PUSH1 0x20 DUP1 SWAP2 DIV MUL PUSH1 0x20 ADD PUSH1 0x40 MLOAD SWAP1 DUP2 ADD PUSH1 0x40 MSTORE DUP1 SWAP3 SWAP2 SWAP1 DUP2 DUP2 MSTORE PUSH1 0x20 ADD DUP3 DUP1 SLOAD PUSH2 0x2589 SWAP1 PUSH2 0x5A29 JUMP JUMPDEST DUP1 ISZERO PUSH2 0x25D6 JUMPI DUP1 PUSH1 0x1F LT PUSH2 0x25AB JUMPI PUSH2 0x100 DUP1 DUP4 SLOAD DIV MUL DUP4 MSTORE SWAP2 PUSH1 0x20 ADD SWAP2 PUSH2 0x25D6 JUMP JUMPDEST DUP3 ADD SWAP2 SWAP1 PUSH1 0x0 MSTORE PUSH1 0x20 PUSH1 0x0 KECCAK256 SWAP1 JUMPDEST DUP2 SLOAD DUP2 MSTORE SWAP1 PUSH1 0x1 ADD SWAP1 PUSH1 0x20 ADD DUP1 DUP4 GT PUSH2 0x25B9 JUMPI DUP3 SWAP1 SUB PUSH1 0x1F AND DUP3 ADD SWAP2 JUMPDEST POP POP POP POP POP SWAP1 DUP1 PUSH1 0x6 ADD SLOAD SWAP1 POP DUP8 JUMP JUMPDEST PUSH1 0x1 PUSH1 0x1 PUSH1 0xA0 SHL SUB DUP1 DUP3 AND PUSH1 0x0 SWAP1 DUP2 MSTORE PUSH2 0x109 PUSH1 0x20 SWAP1 DUP2 MSTORE PUSH1 0x40 DUP1 DUP4 KECCAK256 DUP2 MLOAD PUSH2 0x160 DUP2 ADD DUP4 MSTORE DUP2 SLOAD SWAP1 SWAP6 AND DUP6 MSTORE PUSH1 0x1 DUP2 ADD DUP1 SLOAD DUP4 MLOAD DUP2 DUP7 MUL DUP2 ADD DUP7 ADD SWAP1 SWAP5 MSTORE DUP1 DUP5 MSTORE SWAP5 SWAP6 DUP7 SWAP6 DUP7 SWAP6 SWAP2 SWAP5 DUP6 DUP4 ADD SWAP4 SWAP1 SWAP3 SWAP1 SWAP2 SWAP1 DUP4 ADD DUP3 DUP3 DUP1 ISZERO PUSH2 0x2672 JUMPI PUSH1 0x20 MUL DUP3 ADD SWAP2 SWAP1 PUSH1 0x0 MSTORE PUSH1 0x20 PUSH1 0x0 KECCAK256 SWAP1 JUMPDEST DUP2 SLOAD PUSH1 0x1 PUSH1 0x1 PUSH1 0xA0 SHL SUB AND DUP2 MSTORE PUSH1 0x1 SWAP1 SWAP2 ADD SWAP1 PUSH1 0x20 ADD DUP1 DUP4 GT PUSH2 0x2654 JUMPI JUMPDEST POP POP POP POP POP DUP2 MSTORE PUSH1 0x20 ADD PUSH1 0x2 DUP3 ADD DUP1 SLOAD DUP1 PUSH1 0x20 MUL PUSH1 0x20 ADD PUSH1 0x40 MLOAD SWAP1 DUP2 ADD PUSH1 0x40 MSTORE DUP1 SWAP3 SWAP2 SWAP1 DUP2 DUP2 MSTORE PUSH1 0x20 ADD DUP3 DUP1 SLOAD DUP1 ISZERO PUSH2 0x26D4 JUMPI PUSH1 0x20 MUL DUP3 ADD SWAP2 SWAP1 PUSH1 0x0 MSTORE PUSH1 0x20 PUSH1 0x0 KECCAK256 SWAP1 JUMPDEST DUP2 SLOAD PUSH1 0x1 PUSH1 0x1 PUSH1 0xA0 SHL SUB AND DUP2 MSTORE PUSH1 0x1 SWAP1 SWAP2 ADD SWAP1 PUSH1 0x20 ADD DUP1 DUP4 GT PUSH2 0x26B6 JUMPI JUMPDEST POP POP POP POP POP DUP2 MSTORE PUSH1 0x20 ADD PUSH1 0x3 DUP3 ADD DUP1 SLOAD DUP1 PUSH1 0x20 MUL PUSH1 0x20 ADD PUSH1 0x40 MLOAD SWAP1 DUP2 ADD PUSH1 0x40 MSTORE DUP1 SWAP3 SWAP2 SWAP1 DUP2 DUP2 MSTORE PUSH1 0x20 ADD DUP3 DUP1 SLOAD DUP1 ISZERO PUSH2 0x272C JUMPI PUSH1 0x20 MUL DUP3 ADD SWAP2 SWAP1 PUSH1 0x0 MSTORE PUSH1 0x20 PUSH1 0x0 KECCAK256 SWAP1 JUMPDEST DUP2 SLOAD DUP2 MSTORE PUSH1 0x20 ADD SWAP1 PUSH1 0x1 ADD SWAP1 DUP1 DUP4 GT PUSH2 0x2718 JUMPI JUMPDEST POP POP POP POP POP DUP2 MSTORE PUSH1 0x20 ADD PUSH1 0x4 DUP3 ADD SLOAD DUP2 MSTORE PUSH1 0x20 ADD PUSH1 0x5 DUP3 ADD SLOAD DUP2 MSTORE PUSH1 0x20 ADD PUSH1 0x6 DUP3 ADD SLOAD DUP2 MSTORE PUSH1 0x20 ADD PUSH1 0x7 DUP3 ADD DUP1 SLOAD DUP1 PUSH1 0x20 MUL PUSH1 0x20 ADD PUSH1 0x40 MLOAD SWAP1 DUP2 ADD PUSH1 0x40 MSTORE DUP1 SWAP3 SWAP2 SWAP1 DUP2 DUP2 MSTORE PUSH1 0x20 ADD DUP3 DUP1 SLOAD DUP1 ISZERO PUSH2 0x27A2 JUMPI PUSH1 0x20 MUL DUP3 ADD SWAP2 SWAP1 PUSH1 0x0 MSTORE PUSH1 0x20 PUSH1 0x0 KECCAK256 SWAP1 JUMPDEST DUP2 SLOAD DUP2 MSTORE PUSH1 0x20 ADD SWAP1 PUSH1 0x1 ADD SWAP1 DUP1 DUP4 GT PUSH2 0x278E JUMPI JUMPDEST POP POP POP POP POP DUP2 MSTORE PUSH1 0x20 ADD PUSH1 0x8 DUP3 ADD DUP1 SLOAD DUP1 PUSH1 0x20 MUL PUSH1 0x20 ADD PUSH1 0x40 MLOAD SWAP1 DUP2 ADD PUSH1 0x40 MSTORE DUP1 SWAP3 SWAP2 SWAP1 DUP2 DUP2 MSTORE PUSH1 0x20 ADD DUP3 DUP1 SLOAD DUP1 ISZERO PUSH2 0x27FA JUMPI PUSH1 0x20 MUL DUP3 ADD SWAP2 SWAP1 PUSH1 0x0 MSTORE PUSH1 0x20 PUSH1 0x0 KECCAK256 SWAP1 JUMPDEST DUP2 SLOAD DUP2 MSTORE PUSH1 0x20 ADD SWAP1 PUSH1 0x1 ADD SWAP1 DUP1 DUP4 GT PUSH2 0x27E6 JUMPI JUMPDEST POP POP POP POP POP DUP2 MSTORE PUSH1 0x20 ADD PUSH1 0x9 DUP3 ADD DUP1 SLOAD DUP1 PUSH1 0x20 MUL PUSH1 0x20 ADD PUSH1 0x40 MLOAD SWAP1 DUP2 ADD PUSH1 0x40 MSTORE DUP1 SWAP3 SWAP2 SWAP1 DUP2 DUP2 MSTORE PUSH1 0x20 ADD DUP3 DUP1 SLOAD DUP1 ISZERO PUSH2 0x2852 JUMPI PUSH1 0x20 MUL DUP3 ADD SWAP2 SWAP1 PUSH1 0x0 MSTORE PUSH1 0x20 PUSH1 0x0 KECCAK256 SWAP1 JUMPDEST DUP2 SLOAD DUP2 MSTORE PUSH1 0x20 ADD SWAP1 PUSH1 0x1 ADD SWAP1 DUP1 DUP4 GT PUSH2 0x283E JUMPI JUMPDEST POP POP POP SWAP2 DUP4 MSTORE POP POP PUSH1 0xA SWAP2 SWAP1 SWAP2 ADD SLOAD PUSH1 0xFF AND ISZERO ISZERO PUSH1 0x20 SWAP2 DUP3 ADD MSTORE DUP2 ADD MLOAD MLOAD SWAP1 SWAP2 POP PUSH1 0x0 SWAP1 PUSH1 0x2 GT PUSH2 0x2B85 JUMPI PUSH1 0x0 JUMPDEST DUP3 PUSH1 0x20 ADD MLOAD MLOAD DUP2 PUSH2 0xFFFF AND LT ISZERO PUSH2 0x2B77 JUMPI PUSH1 0x0 PUSH2 0x109 PUSH1 0x0 DUP6 PUSH1 0x20 ADD MLOAD DUP5 PUSH2 0xFFFF AND DUP2 MLOAD DUP2 LT PUSH2 0x28B2 JUMPI PUSH2 0x28B2 PUSH2 0x59A6 JUMP JUMPDEST PUSH1 0x20 SWAP1 DUP2 MUL SWAP2 SWAP1 SWAP2 ADD DUP2 ADD MLOAD PUSH1 0x1 PUSH1 0x1 PUSH1 0xA0 SHL SUB SWAP1 DUP2 AND DUP4 MSTORE DUP3 DUP3 ADD SWAP4 SWAP1 SWAP4 MSTORE PUSH1 0x40 SWAP2 DUP3 ADD PUSH1 0x0 KECCAK256 DUP3 MLOAD PUSH2 0x160 DUP2 ADD DUP5 MSTORE DUP2 SLOAD SWAP1 SWAP5 AND DUP5 MSTORE PUSH1 0x1 DUP2 ADD DUP1 SLOAD DUP5 MLOAD DUP2 DUP6 MUL DUP2 ADD DUP6 ADD SWAP1 SWAP6 MSTORE DUP1 DUP6 MSTORE SWAP2 SWAP4 DUP6 DUP5 ADD SWAP4 SWAP1 SWAP3 SWAP1 DUP4 ADD DUP3 DUP3 DUP1 ISZERO PUSH2 0x2941 JUMPI PUSH1 0x20 MUL DUP3 ADD SWAP2 SWAP1 PUSH1 0x0 MSTORE PUSH1 0x20 PUSH1 0x0 KECCAK256 SWAP1 JUMPDEST DUP2 SLOAD PUSH1 0x1 PUSH1 0x1 PUSH1 0xA0 SHL SUB AND DUP2 MSTORE PUSH1 0x1 SWAP1 SWAP2 ADD SWAP1 PUSH1 0x20 ADD DUP1 DUP4 GT PUSH2 0x2923 JUMPI JUMPDEST POP POP POP POP POP DUP2 MSTORE PUSH1 0x20 ADD PUSH1 0x2 DUP3 ADD DUP1 SLOAD DUP1 PUSH1 0x20 MUL PUSH1 0x20 ADD PUSH1 0x40 MLOAD SWAP1 DUP2 ADD PUSH1 0x40 MSTORE DUP1 SWAP3 SWAP2 SWAP1 DUP2 DUP2 MSTORE PUSH1 0x20 ADD DUP3 DUP1 SLOAD DUP1 ISZERO PUSH2 0x29A3 JUMPI PUSH1 0x20 MUL DUP3 ADD SWAP2 SWAP1 PUSH1 0x0 MSTORE PUSH1 0x20 PUSH1 0x0 KECCAK256 SWAP1 JUMPDEST DUP2 SLOAD PUSH1 0x1 PUSH1 0x1 PUSH1 0xA0 SHL SUB AND DUP2 MSTORE PUSH1 0x1 SWAP1 SWAP2 ADD SWAP1 PUSH1 0x20 ADD DUP1 DUP4 GT PUSH2 0x2985 JUMPI JUMPDEST POP POP POP POP POP DUP2 MSTORE PUSH1 0x20 ADD PUSH1 0x3 DUP3 ADD DUP1 SLOAD DUP1 PUSH1 0x20 MUL PUSH1 0x20 ADD PUSH1 0x40 MLOAD SWAP1 DUP2 ADD PUSH1 0x40 MSTORE DUP1 SWAP3 SWAP2 SWAP1 DUP2 DUP2 MSTORE PUSH1 0x20 ADD DUP3 DUP1 SLOAD DUP1 ISZERO PUSH2 0x29FB JUMPI PUSH1 0x20 MUL DUP3 ADD SWAP2 SWAP1 PUSH1 0x0 MSTORE PUSH1 0x20 PUSH1 0x0 KECCAK256 SWAP1 JUMPDEST DUP2 SLOAD DUP2 MSTORE PUSH1 0x20 ADD SWAP1 PUSH1 0x1 ADD SWAP1 DUP1 DUP4 GT PUSH2 0x29E7 JUMPI JUMPDEST POP POP POP POP POP DUP2 MSTORE PUSH1 0x20 ADD PUSH1 0x4 DUP3 ADD SLOAD DUP2 MSTORE PUSH1 0x20 ADD PUSH1 0x5 DUP3 ADD SLOAD DUP2 MSTORE PUSH1 0x20 ADD PUSH1 0x6 DUP3 ADD SLOAD DUP2 MSTORE PUSH1 0x20 ADD PUSH1 0x7 DUP3 ADD DUP1 SLOAD DUP1 PUSH1 0x20 MUL PUSH1 0x20 ADD PUSH1 0x40 MLOAD SWAP1 DUP2 ADD PUSH1 0x40 MSTORE DUP1 SWAP3 SWAP2 SWAP1 DUP2 DUP2 MSTORE PUSH1 0x20 ADD DUP3 DUP1 SLOAD DUP1 ISZERO PUSH2 0x2A71 JUMPI PUSH1 0x20 MUL DUP3 ADD SWAP2 SWAP1 PUSH1 0x0 MSTORE PUSH1 0x20 PUSH1 0x0 KECCAK256 SWAP1 JUMPDEST DUP2 SLOAD DUP2 MSTORE PUSH1 0x20 ADD SWAP1 PUSH1 0x1 ADD SWAP1 DUP1 DUP4 GT PUSH2 0x2A5D JUMPI JUMPDEST POP POP POP POP POP DUP2 MSTORE PUSH1 0x20 ADD PUSH1 0x8 DUP3 ADD DUP1 SLOAD DUP1 PUSH1 0x20 MUL PUSH1 0x20 ADD PUSH1 0x40 MLOAD SWAP1 DUP2 ADD PUSH1 0x40 MSTORE DUP1 SWAP3 SWAP2 SWAP1 DUP2 DUP2 MSTORE PUSH1 0x20 ADD DUP3 DUP1 SLOAD DUP1 ISZERO PUSH2 0x2AC9 JUMPI PUSH1 0x20 MUL DUP3 ADD SWAP2 SWAP1 PUSH1 0x0 MSTORE PUSH1 0x20 PUSH1 0x0 KECCAK256 SWAP1 JUMPDEST DUP2 SLOAD DUP2 MSTORE PUSH1 0x20 ADD SWAP1 PUSH1 0x1 ADD SWAP1 DUP1 DUP4 GT PUSH2 0x2AB5 JUMPI JUMPDEST POP POP POP POP POP DUP2 MSTORE PUSH1 0x20 ADD PUSH1 0x9 DUP3 ADD DUP1 SLOAD DUP1 PUSH1 0x20 MUL PUSH1 0x20 ADD PUSH1 0x40 MLOAD SWAP1 DUP2 ADD PUSH1 0x40 MSTORE DUP1 SWAP3 SWAP2 SWAP1 DUP2 DUP2 MSTORE PUSH1 0x20 ADD DUP3 DUP1 SLOAD DUP1 ISZERO PUSH2 0x2B21 JUMPI PUSH1 0x20 MUL DUP3 ADD SWAP2 SWAP1 PUSH1 0x0 MSTORE PUSH1 0x20 PUSH1 0x0 KECCAK256 SWAP1 JUMPDEST DUP2 SLOAD DUP2 MSTORE PUSH1 0x20 ADD SWAP1 PUSH1 0x1 ADD SWAP1 DUP1 DUP4 GT PUSH2 0x2B0D JUMPI JUMPDEST POP POP POP SWAP2 DUP4 MSTORE POP POP PUSH1 0xA SWAP2 SWAP1 SWAP2 ADD SLOAD PUSH1 0xFF AND ISZERO ISZERO PUSH1 0x20 SWAP1 SWAP2 ADD MSTORE PUSH1 0xC0 DUP2 ADD MLOAD SWAP1 SWAP2 POP DUP7 LT ISZERO PUSH2 0x2B52 JUMPI DUP1 PUSH1 0xC0 ADD MLOAD SWAP6 POP JUMPDEST PUSH1 0xC0 DUP2 ADD MLOAD PUSH2 0x2B61 SWAP1 DUP5 PUSH2 0x59D2 JUMP JUMPDEST SWAP3 POP POP DUP1 DUP1 PUSH2 0x2B6F SWAP1 PUSH2 0x5C4C JUMP JUMPDEST SWAP2 POP POP PUSH2 0x2880 JUMP JUMPDEST POP PUSH2 0x2B82 DUP5 DUP3 PUSH2 0x5C6D JUMP JUMPDEST SWAP3 POP JUMPDEST POP POP SWAP2 POP SWAP2 JUMP JUMPDEST PUSH2 0x2B94 PUSH2 0x3753 JUMP JUMPDEST PUSH1 0x1 PUSH1 0x1 PUSH1 0xA0 SHL SUB SWAP1 SWAP2 AND PUSH1 0x0 SWAP1 DUP2 MSTORE PUSH2 0x109 PUSH1 0x20 MSTORE PUSH1 0x40 SWAP1 KECCAK256 PUSH1 0x6 ADD SSTORE JUMP JUMPDEST PUSH1 0x60 PUSH1 0x0 DUP1 PUSH1 0x0 PUSH2 0x2BC6 DUP8 DUP8 DUP8 PUSH2 0x4458 JUMP JUMPDEST SWAP2 POP SWAP2 POP DUP1 SWAP3 POP DUP1 PUSH2 0xFFFF AND PUSH8 0xFFFFFFFFFFFFFFFF DUP2 GT ISZERO PUSH2 0x2BEA JUMPI PUSH2 0x2BEA PUSH2 0x5109 JUMP JUMPDEST PUSH1 0x40 MLOAD SWAP1 DUP1 DUP3 MSTORE DUP1 PUSH1 0x20 MUL PUSH1 0x20 ADD DUP3 ADD PUSH1 0x40 MSTORE DUP1 ISZERO PUSH2 0x2C13 JUMPI DUP2 PUSH1 0x20 ADD PUSH1 0x20 DUP3 MUL DUP1 CALLDATASIZE DUP4 CALLDATACOPY ADD SWAP1 POP JUMPDEST POP SWAP4 POP PUSH1 0x0 JUMPDEST DUP2 PUSH2 0xFFFF AND DUP2 PUSH2 0xFFFF AND LT ISZERO PUSH2 0x2C87 JUMPI DUP3 DUP2 PUSH2 0xFFFF AND DUP2 MLOAD DUP2 LT PUSH2 0x2C3F JUMPI PUSH2 0x2C3F PUSH2 0x59A6 JUMP JUMPDEST PUSH1 0x20 MUL PUSH1 0x20 ADD ADD MLOAD DUP6 DUP3 PUSH2 0xFFFF AND DUP2 MLOAD DUP2 LT PUSH2 0x2C5D JUMPI PUSH2 0x2C5D PUSH2 0x59A6 JUMP JUMPDEST PUSH1 0x1 PUSH1 0x1 PUSH1 0xA0 SHL SUB SWAP1 SWAP3 AND PUSH1 0x20 SWAP3 DUP4 MUL SWAP2 SWAP1 SWAP2 ADD SWAP1 SWAP2 ADD MSTORE DUP1 PUSH2 0x2C7F DUP2 PUSH2 0x5C4C JUMP JUMPDEST SWAP2 POP POP PUSH2 0x2C19 JUMP JUMPDEST POP POP POP SWAP4 POP SWAP4 SWAP2 POP POP JUMP JUMPDEST PUSH1 0x1 PUSH1 0x1 PUSH1 0xA0 SHL SUB DUP1 DUP3 AND PUSH1 0x0 SWAP1 DUP2 MSTORE PUSH2 0x109 PUSH1 0x20 SWAP1 DUP2 MSTORE PUSH1 0x40 DUP1 DUP4 KECCAK256 DUP2 MLOAD PUSH2 0x160 DUP2 ADD DUP4 MSTORE DUP2 SLOAD SWAP1 SWAP6 AND DUP6 MSTORE PUSH1 0x1 DUP2 ADD DUP1 SLOAD DUP4 MLOAD DUP2 DUP7 MUL DUP2 ADD DUP7 ADD SWAP1 SWAP5 MSTORE DUP1 DUP5 MSTORE SWAP5 SWAP6 DUP7 SWAP6 SWAP1 SWAP5 SWAP3 SWAP4 DUP6 DUP5 ADD SWAP4 SWAP1 SWAP3 SWAP2 SWAP1 DUP4 ADD DUP3 DUP3 DUP1 ISZERO PUSH2 0x2D1D JUMPI PUSH1 0x20 MUL DUP3 ADD SWAP2 SWAP1 PUSH1 0x0 MSTORE PUSH1 0x20 PUSH1 0x0 KECCAK256 SWAP1 JUMPDEST DUP2 SLOAD PUSH1 0x1 PUSH1 0x1 PUSH1 0xA0 SHL SUB AND DUP2 MSTORE PUSH1 0x1 SWAP1 SWAP2 ADD SWAP1 PUSH1 0x20 ADD DUP1 DUP4 GT PUSH2 0x2CFF JUMPI JUMPDEST POP POP POP POP POP DUP2 MSTORE PUSH1 0x20 ADD PUSH1 0x2 DUP3 ADD DUP1 SLOAD DUP1 PUSH1 0x20 MUL PUSH1 0x20 ADD PUSH1 0x40 MLOAD SWAP1 DUP2 ADD PUSH1 0x40 MSTORE DUP1 SWAP3 SWAP2 SWAP1 DUP2 DUP2 MSTORE PUSH1 0x20 ADD DUP3 DUP1 SLOAD DUP1 ISZERO PUSH2 0x2D7F JUMPI PUSH1 0x20 MUL DUP3 ADD SWAP2 SWAP1 PUSH1 0x0 MSTORE PUSH1 0x20 PUSH1 0x0 KECCAK256 SWAP1 JUMPDEST DUP2 SLOAD PUSH1 0x1 PUSH1 0x1 PUSH1 0xA0 SHL SUB AND DUP2 MSTORE PUSH1 0x1 SWAP1 SWAP2 ADD SWAP1 PUSH1 0x20 ADD DUP1 DUP4 GT PUSH2 0x2D61 JUMPI JUMPDEST POP POP POP POP POP DUP2 MSTORE PUSH1 0x20 ADD PUSH1 0x3 DUP3 ADD DUP1 SLOAD DUP1 PUSH1 0x20 MUL PUSH1 0x20 ADD PUSH1 0x40 MLOAD SWAP1 DUP2 ADD PUSH1 0x40 MSTORE DUP1 SWAP3 SWAP2 SWAP1 DUP2 DUP2 MSTORE PUSH1 0x20 ADD DUP3 DUP1 SLOAD DUP1 ISZERO PUSH2 0x2DD7 JUMPI PUSH1 0x20 MUL DUP3 ADD SWAP2 SWAP1 PUSH1 0x0 MSTORE PUSH1 0x20 PUSH1 0x0 KECCAK256 SWAP1 JUMPDEST DUP2 SLOAD DUP2 MSTORE PUSH1 0x20 ADD SWAP1 PUSH1 0x1 ADD SWAP1 DUP1 DUP4 GT PUSH2 0x2DC3 JUMPI JUMPDEST POP POP POP POP POP DUP2 MSTORE PUSH1 0x20 ADD PUSH1 0x4 DUP3 ADD SLOAD DUP2 MSTORE PUSH1 0x20 ADD PUSH1 0x5 DUP3 ADD SLOAD DUP2 MSTORE PUSH1 0x20 ADD PUSH1 0x6 DUP3 ADD SLOAD DUP2 MSTORE PUSH1 0x20 ADD PUSH1 0x7 DUP3 ADD DUP1 SLOAD DUP1 PUSH1 0x20 MUL PUSH1 0x20 ADD PUSH1 0x40 MLOAD SWAP1 DUP2 ADD PUSH1 0x40 MSTORE DUP1 SWAP3 SWAP2 SWAP1 DUP2 DUP2 MSTORE PUSH1 0x20 ADD DUP3 DUP1 SLOAD DUP1 ISZERO PUSH2 0x2E4D JUMPI PUSH1 0x20 MUL DUP3 ADD SWAP2 SWAP1 PUSH1 0x0 MSTORE PUSH1 0x20 PUSH1 0x0 KECCAK256 SWAP1 JUMPDEST DUP2 SLOAD DUP2 MSTORE PUSH1 0x20 ADD SWAP1 PUSH1 0x1 ADD SWAP1 DUP1 DUP4 GT PUSH2 0x2E39 JUMPI JUMPDEST POP POP POP POP POP DUP2 MSTORE PUSH1 0x20 ADD PUSH1 0x8 DUP3 ADD DUP1 SLOAD DUP1 PUSH1 0x20 MUL PUSH1 0x20 ADD PUSH1 0x40 MLOAD SWAP1 DUP2 ADD PUSH1 0x40 MSTORE DUP1 SWAP3 SWAP2 SWAP1 DUP2 DUP2 MSTORE PUSH1 0x20 ADD DUP3 DUP1 SLOAD DUP1 ISZERO PUSH2 0x2EA5 JUMPI PUSH1 0x20 MUL DUP3 ADD SWAP2 SWAP1 PUSH1 0x0 MSTORE PUSH1 0x20 PUSH1 0x0 KECCAK256 SWAP1 JUMPDEST DUP2 SLOAD DUP2 MSTORE PUSH1 0x20 ADD SWAP1 PUSH1 0x1 ADD SWAP1 DUP1 DUP4 GT PUSH2 0x2E91 JUMPI JUMPDEST POP POP POP POP POP DUP2 MSTORE PUSH1 0x20 ADD PUSH1 0x9 DUP3 ADD DUP1 SLOAD DUP1 PUSH1 0x20 MUL PUSH1 0x20 ADD PUSH1 0x40 MLOAD SWAP1 DUP2 ADD PUSH1 0x40 MSTORE DUP1 SWAP3 SWAP2 SWAP1 DUP2 DUP2 MSTORE PUSH1 0x20 ADD DUP3 DUP1 SLOAD DUP1 ISZERO PUSH2 0x2EFD JUMPI PUSH1 0x20 MUL DUP3 ADD SWAP2 SWAP1 PUSH1 0x0 MSTORE PUSH1 0x20 PUSH1 0x0 KECCAK256 SWAP1 JUMPDEST DUP2 SLOAD DUP2 MSTORE PUSH1 0x20 ADD SWAP1 PUSH1 0x1 ADD SWAP1 DUP1 DUP4 GT PUSH2 0x2EE9 JUMPI JUMPDEST POP POP POP SWAP2 DUP4 MSTORE POP POP PUSH1 0xA SWAP2 SWAP1 SWAP2 ADD SLOAD PUSH1 0xFF AND ISZERO ISZERO PUSH1 0x20 SWAP1 SWAP2 ADD MSTORE SWAP1 POP PUSH1 0x0 JUMPDEST PUSH1 0x14 DUP2 PUSH1 0xFF AND LT ISZERO PUSH2 0x311A JUMPI PUSH1 0xFF DUP1 DUP3 AND PUSH1 0x0 SWAP1 DUP2 MSTORE PUSH2 0x10B PUSH1 0x20 SWAP1 DUP2 MSTORE PUSH1 0x40 DUP1 DUP4 KECCAK256 DUP2 MLOAD PUSH1 0xE0 DUP2 ADD DUP4 MSTORE DUP2 SLOAD SWAP1 SWAP6 AND DUP6 MSTORE PUSH1 0x1 DUP2 ADD SLOAD SWAP3 DUP6 ADD SWAP3 SWAP1 SWAP3 MSTORE PUSH1 0x2 DUP3 ADD SLOAD SWAP1 DUP5 ADD MSTORE PUSH1 0x3 DUP2 ADD SLOAD PUSH1 0x60 DUP5 ADD MSTORE PUSH1 0x4 DUP2 ADD DUP1 SLOAD SWAP3 SWAP4 SWAP3 PUSH1 0x80 DUP5 ADD SWAP2 SWAP1 PUSH2 0x2F85 SWAP1 PUSH2 0x5A29 JUMP JUMPDEST DUP1 PUSH1 0x1F ADD PUSH1 0x20 DUP1 SWAP2 DIV MUL PUSH1 0x20 ADD PUSH1 0x40 MLOAD SWAP1 DUP2 ADD PUSH1 0x40 MSTORE DUP1 SWAP3 SWAP2 SWAP1 DUP2 DUP2 MSTORE PUSH1 0x20 ADD DUP3 DUP1 SLOAD PUSH2 0x2FB1 SWAP1 PUSH2 0x5A29 JUMP JUMPDEST DUP1 ISZERO PUSH2 0x2FFE JUMPI DUP1 PUSH1 0x1F LT PUSH2 0x2FD3 JUMPI PUSH2 0x100 DUP1 DUP4 SLOAD DIV MUL DUP4 MSTORE SWAP2 PUSH1 0x20 ADD SWAP2 PUSH2 0x2FFE JUMP JUMPDEST DUP3 ADD SWAP2 SWAP1 PUSH1 0x0 MSTORE PUSH1 0x20 PUSH1 0x0 KECCAK256 SWAP1 JUMPDEST DUP2 SLOAD DUP2 MSTORE SWAP1 PUSH1 0x1 ADD SWAP1 PUSH1 0x20 ADD DUP1 DUP4 GT PUSH2 0x2FE1 JUMPI DUP3 SWAP1 SUB PUSH1 0x1F AND DUP3 ADD SWAP2 JUMPDEST POP POP POP POP POP DUP2 MSTORE PUSH1 0x20 ADD PUSH1 0x5 DUP3 ADD DUP1 SLOAD PUSH2 0x3017 SWAP1 PUSH2 0x5A29 JUMP JUMPDEST DUP1 PUSH1 0x1F ADD PUSH1 0x20 DUP1 SWAP2 DIV MUL PUSH1 0x20 ADD PUSH1 0x40 MLOAD SWAP1 DUP2 ADD PUSH1 0x40 MSTORE DUP1 SWAP3 SWAP2 SWAP1 DUP2 DUP2 MSTORE PUSH1 0x20 ADD DUP3 DUP1 SLOAD PUSH2 0x3043 SWAP1 PUSH2 0x5A29 JUMP JUMPDEST DUP1 ISZERO PUSH2 0x3090 JUMPI DUP1 PUSH1 0x1F LT PUSH2 0x3065 JUMPI PUSH2 0x100 DUP1 DUP4 SLOAD DIV MUL DUP4 MSTORE SWAP2 PUSH1 0x20 ADD SWAP2 PUSH2 0x3090 JUMP JUMPDEST DUP3 ADD SWAP2 SWAP1 PUSH1 0x0 MSTORE PUSH1 0x20 PUSH1 0x0 KECCAK256 SWAP1 JUMPDEST DUP2 SLOAD DUP2 MSTORE SWAP1 PUSH1 0x1 ADD SWAP1 PUSH1 0x20 ADD DUP1 DUP4 GT PUSH2 0x3073 JUMPI DUP3 SWAP1 SUB PUSH1 0x1F AND DUP3 ADD SWAP2 JUMPDEST POP POP POP POP POP DUP2 MSTORE PUSH1 0x20 ADD PUSH1 0x6 DUP3 ADD SLOAD DUP2 MSTORE POP POP SWAP1 POP PUSH1 0x2 DUP3 PUSH1 0xFF AND GT DUP1 ISZERO PUSH2 0x30BA JUMPI POP PUSH1 0x20 DUP2 ADD MLOAD ISZERO JUMPDEST ISZERO PUSH2 0x30C5 JUMPI POP PUSH2 0x311A JUMP JUMPDEST DUP1 PUSH1 0x20 ADD MLOAD PUSH2 0x30D3 DUP5 PUSH2 0x419F JUMP JUMPDEST LT ISZERO DUP1 ISZERO PUSH2 0x30E9 JUMPI POP DUP1 PUSH1 0x40 ADD MLOAD DUP4 PUSH1 0xA0 ADD MLOAD LT ISZERO JUMPDEST DUP1 ISZERO PUSH2 0x30FE JUMPI POP PUSH2 0x30FE DUP4 DUP3 PUSH1 0x60 ADD MLOAD PUSH2 0x4968 JUMP JUMPDEST ISZERO PUSH2 0x3107 JUMPI DUP2 SWAP4 POP JUMPDEST POP DUP1 PUSH2 0x3112 DUP2 PUSH2 0x5C2D JUMP JUMPDEST SWAP2 POP POP PUSH2 0x2F1C JUMP JUMPDEST POP POP SWAP2 SWAP1 POP JUMP JUMPDEST PUSH1 0x1 PUSH1 0x1 PUSH1 0xA0 SHL SUB DUP2 AND PUSH1 0x0 SWAP1 DUP2 MSTORE PUSH2 0x109 PUSH1 0x20 MSTORE PUSH1 0x40 DUP2 KECCAK256 PUSH1 0x7 DUP2 ADD SLOAD PUSH1 0x8 DUP3 ADD SLOAD PUSH1 0x9 DUP4 ADD SLOAD DUP5 SWAP4 DUP5 SWAP4 SWAP1 SWAP3 SWAP1 SWAP2 DUP5 JUMPDEST DUP4 DUP2 LT ISZERO PUSH2 0x319A JUMPI DUP5 PUSH1 0x7 ADD DUP2 DUP2 SLOAD DUP2 LT PUSH2 0x3170 JUMPI PUSH2 0x3170 PUSH2 0x59A6 JUMP JUMPDEST SWAP1 PUSH1 0x0 MSTORE PUSH1 0x20 PUSH1 0x0 KECCAK256 ADD SLOAD DUP9 PUSH2 0x3186 SWAP2 SWAP1 PUSH2 0x59D2 JUMP JUMPDEST SWAP8 POP DUP1 PUSH2 0x3192 DUP2 PUSH2 0x59E5 JUMP JUMPDEST SWAP2 POP POP PUSH2 0x3153 JUMP JUMPDEST POP PUSH1 0x0 JUMPDEST DUP3 DUP2 LT ISZERO PUSH2 0x31E5 JUMPI DUP5 PUSH1 0x8 ADD DUP2 DUP2 SLOAD DUP2 LT PUSH2 0x31BB JUMPI PUSH2 0x31BB PUSH2 0x59A6 JUMP JUMPDEST SWAP1 PUSH1 0x0 MSTORE PUSH1 0x20 PUSH1 0x0 KECCAK256 ADD SLOAD DUP8 PUSH2 0x31D1 SWAP2 SWAP1 PUSH2 0x59D2 JUMP JUMPDEST SWAP7 POP DUP1 PUSH2 0x31DD DUP2 PUSH2 0x59E5 JUMP JUMPDEST SWAP2 POP POP PUSH2 0x319E JUMP JUMPDEST POP PUSH1 0x0 JUMPDEST DUP2 DUP2 LT ISZERO PUSH2 0x3230 JUMPI DUP5 PUSH1 0x9 ADD DUP2 DUP2 SLOAD DUP2 LT PUSH2 0x3206 JUMPI PUSH2 0x3206 PUSH2 0x59A6 JUMP JUMPDEST SWAP1 PUSH1 0x0 MSTORE PUSH1 0x20 PUSH1 0x0 KECCAK256 ADD SLOAD DUP7 PUSH2 0x321C SWAP2 SWAP1 PUSH2 0x59D2 JUMP JUMPDEST SWAP6 POP DUP1 PUSH2 0x3228 DUP2 PUSH2 0x59E5 JUMP JUMPDEST SWAP2 POP POP PUSH2 0x31E9 JUMP JUMPDEST POP POP POP POP POP SWAP2 SWAP4 SWAP1 SWAP3 POP JUMP JUMPDEST PUSH2 0x3244 PUSH2 0x3753 JUMP JUMPDEST PUSH1 0x1 PUSH1 0x1 PUSH1 0xA0 SHL SUB DUP2 AND PUSH2 0x32A9 JUMPI PUSH1 0x40 MLOAD PUSH3 0x461BCD PUSH1 0xE5 SHL DUP2 MSTORE PUSH1 0x20 PUSH1 0x4 DUP3 ADD MSTORE PUSH1 0x26 PUSH1 0x24 DUP3 ADD MSTORE PUSH32 0x4F776E61626C653A206E6577206F776E657220697320746865207A65726F2061 PUSH1 0x44 DUP3 ADD MSTORE PUSH6 0x646472657373 PUSH1 0xD0 SHL PUSH1 0x64 DUP3 ADD MSTORE PUSH1 0x84 ADD PUSH2 0xA6D JUMP JUMPDEST PUSH2 0x1B3B DUP2 PUSH2 0x4381 JUMP JUMPDEST PUSH1 0x1 PUSH1 0x1 PUSH1 0xA0 SHL SUB DUP2 AND PUSH1 0x0 SWAP1 DUP2 MSTORE PUSH2 0x109 PUSH1 0x20 SWAP1 DUP2 MSTORE PUSH1 0x40 DUP1 DUP4 KECCAK256 PUSH1 0x1 DUP2 ADD DUP1 SLOAD DUP4 MLOAD DUP2 DUP7 MUL DUP2 ADD DUP7 ADD SWAP1 SWAP5 MSTORE DUP1 DUP5 MSTORE PUSH1 0x60 SWAP6 SWAP5 DUP7 SWAP5 DUP7 SWAP5 SWAP4 SWAP1 SWAP3 SWAP1 SWAP2 DUP4 ADD DUP3 DUP3 DUP1 ISZERO PUSH2 0x3329 JUMPI PUSH1 0x20 MUL DUP3 ADD SWAP2 SWAP1 PUSH1 0x0 MSTORE PUSH1 0x20 PUSH1 0x0 KECCAK256 SWAP1 JUMPDEST DUP2 SLOAD PUSH1 0x1 PUSH1 0x1 PUSH1 0xA0 SHL SUB AND DUP2 MSTORE PUSH1 0x1 SWAP1 SWAP2 ADD SWAP1 PUSH1 0x20 ADD DUP1 DUP4 GT PUSH2 0x330B JUMPI JUMPDEST POP POP POP POP POP SWAP5 POP DUP5 MLOAD SWAP4 POP DUP1 PUSH1 0x2 ADD DUP1 SLOAD DUP1 PUSH1 0x20 MUL PUSH1 0x20 ADD PUSH1 0x40 MLOAD SWAP1 DUP2 ADD PUSH1 0x40 MSTORE DUP1 SWAP3 SWAP2 SWAP1 DUP2 DUP2 MSTORE PUSH1 0x20 ADD DUP3 DUP1 SLOAD DUP1 ISZERO PUSH2 0x338C JUMPI PUSH1 0x20 MUL DUP3 ADD SWAP2 SWAP1 PUSH1 0x0 MSTORE PUSH1 0x20 PUSH1 0x0 KECCAK256 SWAP1 JUMPDEST DUP2 SLOAD PUSH1 0x1 PUSH1 0x1 PUSH1 0xA0 SHL SUB AND DUP2 MSTORE PUSH1 0x1 SWAP1 SWAP2 ADD SWAP1 PUSH1 0x20 ADD DUP1 DUP4 GT PUSH2 0x336E JUMPI JUMPDEST POP POP POP POP POP SWAP3 POP DUP3 MLOAD SWAP2 POP POP SWAP2 SWAP4 POP SWAP2 SWAP4 JUMP JUMPDEST PUSH2 0x3407 PUSH1 0x40 MLOAD DUP1 PUSH2 0x160 ADD PUSH1 0x40 MSTORE DUP1 PUSH1 0x0 PUSH1 0x1 PUSH1 0x1 PUSH1 0xA0 SHL SUB AND DUP2 MSTORE PUSH1 0x20 ADD PUSH1 0x60 DUP2 MSTORE PUSH1 0x20 ADD PUSH1 0x60 DUP2 MSTORE PUSH1 0x20 ADD PUSH1 0x60 DUP2 MSTORE PUSH1 0x20 ADD PUSH1 0x0 DUP2 MSTORE PUSH1 0x20 ADD PUSH1 0x0 DUP2 MSTORE PUSH1 0x20 ADD PUSH1 0x0 DUP2 MSTORE PUSH1 0x20 ADD PUSH1 0x60 DUP2 MSTORE PUSH1 0x20 ADD PUSH1 0x60 DUP2 MSTORE PUSH1 0x20 ADD PUSH1 0x60 DUP2 MSTORE PUSH1 0x20 ADD PUSH1 0x0 ISZERO ISZERO DUP2 MSTORE POP SWAP1 JUMP JUMPDEST PUSH1 0x1 PUSH1 0x1 PUSH1 0xA0 SHL SUB DUP1 DUP4 AND PUSH1 0x0 SWAP1 DUP2 MSTORE PUSH2 0x109 PUSH1 0x20 SWAP1 DUP2 MSTORE PUSH1 0x40 SWAP2 DUP3 SWAP1 KECCAK256 DUP3 MLOAD PUSH2 0x160 DUP2 ADD DUP5 MSTORE DUP2 SLOAD SWAP1 SWAP5 AND DUP5 MSTORE PUSH1 0x1 DUP2 ADD DUP1 SLOAD DUP5 MLOAD DUP2 DUP6 MUL DUP2 ADD DUP6 ADD SWAP1 SWAP6 MSTORE DUP1 DUP6 MSTORE SWAP2 SWAP4 DUP6 DUP5 ADD SWAP4 SWAP1 SWAP3 SWAP1 DUP4 ADD DUP3 DUP3 DUP1 ISZERO PUSH2 0x348C JUMPI PUSH1 0x20 MUL DUP3 ADD SWAP2 SWAP1 PUSH1 0x0 MSTORE PUSH1 0x20 PUSH1 0x0 KECCAK256 SWAP1 JUMPDEST DUP2 SLOAD PUSH1 0x1 PUSH1 0x1 PUSH1 0xA0 SHL SUB AND DUP2 MSTORE PUSH1 0x1 SWAP1 SWAP2 ADD SWAP1 PUSH1 0x20 ADD DUP1 DUP4 GT PUSH2 0x346E JUMPI JUMPDEST POP POP POP POP POP DUP2 MSTORE PUSH1 0x20 ADD PUSH1 0x2 DUP3 ADD DUP1 SLOAD DUP1 PUSH1 0x20 MUL PUSH1 0x20 ADD PUSH1 0x40 MLOAD SWAP1 DUP2 ADD PUSH1 0x40 MSTORE DUP1 SWAP3 SWAP2 SWAP1 DUP2 DUP2 MSTORE PUSH1 0x20 ADD DUP3 DUP1 SLOAD DUP1 ISZERO PUSH2 0x34EE JUMPI PUSH1 0x20 MUL DUP3 ADD SWAP2 SWAP1 PUSH1 0x0 MSTORE PUSH1 0x20 PUSH1 0x0 KECCAK256 SWAP1 JUMPDEST DUP2 SLOAD PUSH1 0x1 PUSH1 0x1 PUSH1 0xA0 SHL SUB AND DUP2 MSTORE PUSH1 0x1 SWAP1 SWAP2 ADD SWAP1 PUSH1 0x20 ADD DUP1 DUP4 GT PUSH2 0x34D0 JUMPI JUMPDEST POP POP POP POP POP DUP2 MSTORE PUSH1 0x20 ADD PUSH1 0x3 DUP3 ADD DUP1 SLOAD DUP1 PUSH1 0x20 MUL PUSH1 0x20 ADD PUSH1 0x40 MLOAD SWAP1 DUP2 ADD PUSH1 0x40 MSTORE DUP1 SWAP3 SWAP2 SWAP1 DUP2 DUP2 MSTORE PUSH1 0x20 ADD DUP3 DUP1 SLOAD DUP1 ISZERO PUSH2 0x3546 JUMPI PUSH1 0x20 MUL DUP3 ADD SWAP2 SWAP1 PUSH1 0x0 MSTORE PUSH1 0x20 PUSH1 0x0 KECCAK256 SWAP1 JUMPDEST DUP2 SLOAD DUP2 MSTORE PUSH1 0x20 ADD SWAP1 PUSH1 0x1 ADD SWAP1 DUP1 DUP4 GT PUSH2 0x3532 JUMPI JUMPDEST POP POP POP POP POP DUP2 MSTORE PUSH1 0x20 ADD PUSH1 0x4 DUP3 ADD SLOAD DUP2 MSTORE PUSH1 0x20 ADD PUSH1 0x5 DUP3 ADD SLOAD DUP2 MSTORE PUSH1 0x20 ADD PUSH1 0x6 DUP3 ADD SLOAD DUP2 MSTORE PUSH1 0x20 ADD PUSH1 0x7 DUP3 ADD DUP1 SLOAD DUP1 PUSH1 0x20 MUL PUSH1 0x20 ADD PUSH1 0x40 MLOAD SWAP1 DUP2 ADD PUSH1 0x40 MSTORE DUP1 SWAP3 SWAP2 SWAP1 DUP2 DUP2 MSTORE PUSH1 0x20 ADD DUP3 DUP1 SLOAD DUP1 ISZERO PUSH2 0x35BC JUMPI PUSH1 0x20 MUL DUP3 ADD SWAP2 SWAP1 PUSH1 0x0 MSTORE PUSH1 0x20 PUSH1 0x0 KECCAK256 SWAP1 JUMPDEST DUP2 SLOAD DUP2 MSTORE PUSH1 0x20 ADD SWAP1 PUSH1 0x1 ADD SWAP1 DUP1 DUP4 GT PUSH2 0x35A8 JUMPI JUMPDEST POP POP POP POP POP DUP2 MSTORE PUSH1 0x20 ADD PUSH1 0x8 DUP3 ADD DUP1 SLOAD DUP1 PUSH1 0x20 MUL PUSH1 0x20 ADD PUSH1 0x40 MLOAD SWAP1 DUP2 ADD PUSH1 0x40 MSTORE DUP1 SWAP3 SWAP2 SWAP1 DUP2 DUP2 MSTORE PUSH1 0x20 ADD DUP3 DUP1 SLOAD DUP1 ISZERO PUSH2 0x3614 JUMPI PUSH1 0x20 MUL DUP3 ADD SWAP2 SWAP1 PUSH1 0x0 MSTORE PUSH1 0x20 PUSH1 0x0 KECCAK256 SWAP1 JUMPDEST DUP2 SLOAD DUP2 MSTORE PUSH1 0x20 ADD SWAP1 PUSH1 0x1 ADD SWAP1 DUP1 DUP4 GT PUSH2 0x3600 JUMPI JUMPDEST POP POP POP POP POP DUP2 MSTORE PUSH1 0x20 ADD PUSH1 0x9 DUP3 ADD DUP1 SLOAD DUP1 PUSH1 0x20 MUL PUSH1 0x20 ADD PUSH1 0x40 MLOAD SWAP1 DUP2 ADD PUSH1 0x40 MSTORE DUP1 SWAP3 SWAP2 SWAP1 DUP2 DUP2 MSTORE PUSH1 0x20 ADD DUP3 DUP1 SLOAD DUP1 ISZERO PUSH2 0x366C JUMPI PUSH1 0x20 MUL DUP3 ADD SWAP2 SWAP1 PUSH1 0x0 MSTORE PUSH1 0x20 PUSH1 0x0 KECCAK256 SWAP1 JUMPDEST DUP2 SLOAD DUP2 MSTORE PUSH1 0x20 ADD SWAP1 PUSH1 0x1 ADD SWAP1 DUP1 DUP4 GT PUSH2 0x3658 JUMPI JUMPDEST POP POP POP SWAP2 DUP4 MSTORE POP POP PUSH1 0xA SWAP2 SWAP1 SWAP2 ADD SLOAD PUSH1 0xFF AND ISZERO ISZERO PUSH1 0x20 SWAP1 SWAP2 ADD MSTORE SWAP3 SWAP2 POP POP JUMP JUMPDEST PUSH1 0xFD SLOAD PUSH1 0xFC DUP1 SLOAD PUSH1 0x40 DUP1 MLOAD PUSH1 0x20 DUP1 DUP5 MUL DUP3 ADD DUP2 ADD SWAP1 SWAP3 MSTORE DUP3 DUP2 MSTORE PUSH1 0x60 SWAP4 PUSH1 0x0 SWAP4 DUP5 SWAP4 DUP4 ADD DUP3 DUP3 DUP1 ISZERO PUSH2 0x36DD JUMPI PUSH1 0x20 MUL DUP3 ADD SWAP2 SWAP1 PUSH1 0x0 MSTORE PUSH1 0x20 PUSH1 0x0 KECCAK256 SWAP1 JUMPDEST DUP2 SLOAD DUP2 MSTORE PUSH1 0x20 ADD SWAP1 PUSH1 0x1 ADD SWAP1 DUP1 DUP4 GT PUSH2 0x36C9 JUMPI JUMPDEST POP POP PUSH1 0xFC SLOAD SWAP4 SWAP7 POP PUSH1 0x0 SWAP3 POP POP POP JUMPDEST DUP2 DUP2 PUSH1 0xFF AND LT ISZERO PUSH2 0x3737 JUMPI PUSH1 0xFC DUP2 PUSH1 0xFF AND DUP2 SLOAD DUP2 LT PUSH2 0x370D JUMPI PUSH2 0x370D PUSH2 0x59A6 JUMP JUMPDEST SWAP1 PUSH1 0x0 MSTORE PUSH1 0x20 PUSH1 0x0 KECCAK256 ADD SLOAD DUP5 PUSH2 0x3723 SWAP2 SWAP1 PUSH2 0x59D2 JUMP JUMPDEST SWAP4 POP DUP1 PUSH2 0x372F DUP2 PUSH2 0x5C2D JUMP JUMPDEST SWAP2 POP POP PUSH2 0x36EC JUMP JUMPDEST POP POP PUSH2 0x100 SLOAD SWAP4 SWAP5 SWAP3 SWAP4 SWAP2 SWAP3 PUSH1 0x1 PUSH1 0x1 PUSH1 0xA0 SHL SUB SWAP1 SWAP3 AND SWAP2 SWAP1 POP JUMP JUMPDEST PUSH1 0x65 SLOAD PUSH1 0x1 PUSH1 0x1 PUSH1 0xA0 SHL SUB AND CALLER EQ PUSH2 0x1CFA JUMPI PUSH1 0x40 MLOAD PUSH3 0x461BCD PUSH1 0xE5 SHL DUP2 MSTORE PUSH1 0x20 PUSH1 0x4 DUP3 ADD DUP2 SWAP1 MSTORE PUSH1 0x24 DUP3 ADD MSTORE PUSH32 0x4F776E61626C653A2063616C6C6572206973206E6F7420746865206F776E6572 PUSH1 0x44 DUP3 ADD MSTORE PUSH1 0x64 ADD PUSH2 0xA6D JUMP JUMPDEST PUSH1 0x1 PUSH1 0x1 PUSH1 0xA0 SHL SUB DUP3 DUP2 AND PUSH1 0x0 DUP2 DUP2 MSTORE PUSH2 0x109 PUSH1 0x20 MSTORE PUSH1 0x40 DUP1 DUP3 KECCAK256 DUP1 SLOAD PUSH1 0x1 PUSH1 0x1 PUSH1 0xA0 SHL SUB NOT AND SWAP5 DUP7 AND SWAP5 DUP6 OR DUP2 SSTORE SWAP1 MLOAD SWAP1 SWAP4 SWAP3 SWAP2 PUSH32 0xFAF63637882FF2D63CA76881CF92FB857130E36F350C926F9CC884B499B42B77 SWAP2 LOG3 PUSH1 0xFC SLOAD PUSH1 0x0 JUMPDEST DUP2 DUP2 LT ISZERO PUSH2 0xB94 JUMPI DUP3 SLOAD PUSH1 0x1 PUSH1 0x1 PUSH1 0xA0 SHL SUB AND PUSH1 0x0 SWAP1 DUP2 MSTORE PUSH2 0x109 PUSH1 0x20 MSTORE PUSH1 0x40 DUP2 KECCAK256 SWAP1 DUP3 SWAP1 SUB PUSH2 0x3865 JUMPI PUSH1 0x1 DUP2 DUP2 ADD DUP1 SLOAD SWAP2 DUP3 ADD DUP2 SSTORE PUSH1 0x0 SWAP1 DUP2 MSTORE PUSH1 0x20 SWAP1 KECCAK256 ADD DUP1 SLOAD PUSH1 0x1 PUSH1 0x1 PUSH1 0xA0 SHL SUB NOT AND PUSH1 0x1 PUSH1 0x1 PUSH1 0xA0 SHL SUB DUP9 AND OR SWAP1 SSTORE JUMPDEST DUP4 SLOAD PUSH1 0x1 PUSH1 0x1 PUSH1 0xA0 SHL SUB AND PUSH2 0x387A JUMPI POP PUSH2 0xB94 JUMP JUMPDEST PUSH1 0x2 DUP2 ADD DUP1 SLOAD PUSH1 0x1 DUP2 ADD DUP3 SSTORE PUSH1 0x0 SWAP2 DUP3 MSTORE PUSH1 0x20 DUP3 KECCAK256 ADD DUP1 SLOAD PUSH1 0x1 PUSH1 0x1 PUSH1 0xA0 SHL SUB NOT AND PUSH1 0x1 PUSH1 0x1 PUSH1 0xA0 SHL SUB DUP10 DUP2 AND SWAP2 DUP3 OR SWAP1 SWAP3 SSTORE DUP7 SLOAD PUSH1 0x40 MLOAD SWAP2 SWAP4 DUP10 DUP5 AND SWAP4 SWAP2 SWAP1 SWAP2 AND SWAP2 PUSH32 0xB766B19465B3277B0B275ADF79D715CAC93166BF6E6A39F26E4CCFDEC76AD47E SWAP2 SWAP1 LOG4 SWAP3 POP DUP1 PUSH2 0x38ED DUP2 PUSH2 0x59E5 JUMP JUMPDEST SWAP2 POP POP PUSH2 0x380B JUMP JUMPDEST PUSH1 0x0 PUSH1 0xFC DUP1 SLOAD DUP1 PUSH1 0x20 MUL PUSH1 0x20 ADD PUSH1 0x40 MLOAD SWAP1 DUP2 ADD PUSH1 0x40 MSTORE DUP1 SWAP3 SWAP2 SWAP1 DUP2 DUP2 MSTORE PUSH1 0x20 ADD DUP3 DUP1 SLOAD DUP1 ISZERO PUSH2 0x3943 JUMPI PUSH1 0x20 MUL DUP3 ADD SWAP2 SWAP1 PUSH1 0x0 MSTORE PUSH1 0x20 PUSH1 0x0 KECCAK256 SWAP1 JUMPDEST DUP2 SLOAD DUP2 MSTORE PUSH1 0x20 ADD SWAP1 PUSH1 0x1 ADD SWAP1 DUP1 DUP4 GT PUSH2 0x392F JUMPI JUMPDEST POP POP POP POP PUSH1 0x1 PUSH1 0x1 PUSH1 0xA0 SHL SUB DUP6 AND PUSH1 0x0 SWAP1 DUP2 MSTORE PUSH2 0x109 PUSH1 0x20 SWAP1 DUP2 MSTORE PUSH1 0x40 DUP3 KECCAK256 PUSH1 0x3 DUP2 ADD DUP1 SLOAD PUSH1 0x1 DUP2 ADD DUP3 SSTORE SWAP1 DUP5 MSTORE SWAP2 DUP4 KECCAK256 SWAP1 SWAP2 ADD DUP9 SWAP1 SSTORE PUSH1 0x4 DUP2 ADD SLOAD SWAP4 SWAP5 POP SWAP1 SWAP3 SWAP1 SWAP2 POP ISZERO PUSH2 0x3991 JUMPI PUSH1 0x1 SWAP2 POP JUMPDEST DUP6 DUP2 PUSH1 0x4 ADD PUSH1 0x0 DUP3 DUP3 SLOAD PUSH2 0x39A5 SWAP2 SWAP1 PUSH2 0x59D2 JUMP JUMPDEST SWAP1 SWAP2 SSTORE POP POP PUSH2 0x106 SLOAD PUSH1 0x0 SWAP1 PUSH8 0xFFFFFFFFFFFFFFFF DUP2 GT ISZERO PUSH2 0x39C9 JUMPI PUSH2 0x39C9 PUSH2 0x5109 JUMP JUMPDEST PUSH1 0x40 MLOAD SWAP1 DUP1 DUP3 MSTORE DUP1 PUSH1 0x20 MUL PUSH1 0x20 ADD DUP3 ADD PUSH1 0x40 MSTORE DUP1 ISZERO PUSH2 0x39F2 JUMPI DUP2 PUSH1 0x20 ADD PUSH1 0x20 DUP3 MUL DUP1 CALLDATASIZE DUP4 CALLDATACOPY ADD SWAP1 POP JUMPDEST POP SWAP1 POP PUSH1 0x0 DUP1 JUMPDEST PUSH2 0x106 SLOAD DUP2 LT ISZERO PUSH2 0x3D1A JUMPI DUP4 SLOAD PUSH1 0x1 PUSH1 0x1 PUSH1 0xA0 SHL SUB AND PUSH1 0x0 DUP2 DUP2 MSTORE PUSH2 0x109 PUSH1 0x20 MSTORE PUSH1 0x40 SWAP1 KECCAK256 SWAP1 PUSH2 0x3A29 JUMPI POP PUSH2 0x3D1A JUMP JUMPDEST DUP7 MLOAD DUP3 LT ISZERO PUSH2 0x3C78 JUMPI PUSH1 0x0 PUSH1 0x64 DUP9 DUP5 DUP2 MLOAD DUP2 LT PUSH2 0x3A48 JUMPI PUSH2 0x3A48 PUSH2 0x59A6 JUMP JUMPDEST PUSH1 0x20 MUL PUSH1 0x20 ADD ADD MLOAD DUP13 PUSH2 0x3A5B SWAP2 SWAP1 PUSH2 0x5C80 JUMP JUMPDEST PUSH2 0x3A65 SWAP2 SWAP1 PUSH2 0x5C19 JUMP JUMPDEST SWAP1 POP DUP3 PUSH1 0x0 SUB PUSH2 0x3A89 JUMPI DUP11 DUP3 PUSH1 0x5 ADD PUSH1 0x0 DUP3 DUP3 SLOAD PUSH2 0x3A83 SWAP2 SWAP1 PUSH2 0x59D2 JUMP JUMPDEST SWAP1 SWAP2 SSTORE POP POP JUMPDEST PUSH1 0x7 DUP3 ADD DUP1 SLOAD PUSH1 0x1 DUP2 ADD DUP3 SSTORE PUSH1 0x0 SWAP2 DUP3 MSTORE PUSH1 0x20 DUP3 KECCAK256 ADD DUP3 SWAP1 SSTORE PUSH1 0xFF DUP1 SLOAD DUP4 SWAP3 SWAP1 PUSH2 0x3AB4 SWAP1 DUP5 SWAP1 PUSH2 0x59D2 JUMP JUMPDEST SWAP1 SWAP2 SSTORE POP POP DUP6 SLOAD PUSH1 0x1 PUSH1 0x1 PUSH1 0xA0 SHL SUB DUP1 DUP12 AND SWAP2 PUSH4 0xA9059CBB SWAP2 AND PUSH2 0x3AD8 DUP5 DUP14 PUSH2 0x4CA0 JUMP JUMPDEST PUSH1 0x40 MLOAD PUSH1 0x1 PUSH1 0x1 PUSH1 0xE0 SHL SUB NOT PUSH1 0xE0 DUP6 SWAP1 SHL AND DUP2 MSTORE PUSH1 0x1 PUSH1 0x1 PUSH1 0xA0 SHL SUB SWAP1 SWAP3 AND PUSH1 0x4 DUP4 ADD MSTORE PUSH1 0x24 DUP3 ADD MSTORE PUSH1 0x44 ADD PUSH1 0x20 PUSH1 0x40 MLOAD DUP1 DUP4 SUB DUP2 PUSH1 0x0 DUP8 GAS CALL ISZERO DUP1 ISZERO PUSH2 0x3B23 JUMPI RETURNDATASIZE PUSH1 0x0 DUP1 RETURNDATACOPY RETURNDATASIZE PUSH1 0x0 REVERT JUMPDEST POP POP POP POP PUSH1 0x40 MLOAD RETURNDATASIZE PUSH1 0x1F NOT PUSH1 0x1F DUP3 ADD AND DUP3 ADD DUP1 PUSH1 0x40 MSTORE POP DUP2 ADD SWAP1 PUSH2 0x3B47 SWAP2 SWAP1 PUSH2 0x5967 JUMP JUMPDEST POP DUP6 SLOAD DUP2 SWAP1 PUSH1 0x1 PUSH1 0x1 PUSH1 0xA0 SHL SUB SWAP1 DUP2 AND SWAP1 DUP13 AND PUSH32 0x197A0A2B0FBFF3FC4F7F4D32597585AA8415FCC4C5DD6634336EC65904529C83 PUSH2 0x3B86 DUP8 PUSH1 0x1 PUSH2 0x59D2 JUMP JUMPDEST PUSH1 0x40 DUP1 MLOAD SWAP2 DUP3 MSTORE PUSH1 0x20 DUP3 ADD DUP2 SWAP1 MSTORE PUSH1 0x5 SWAP1 DUP3 ADD MSTORE PUSH5 0x10539554D1 PUSH1 0xDA SHL PUSH1 0x60 DUP3 ADD MSTORE PUSH1 0x80 ADD PUSH1 0x40 MLOAD DUP1 SWAP2 SUB SWAP1 LOG4 PUSH1 0xA DUP3 ADD SLOAD PUSH1 0xFF AND PUSH2 0x3C76 JUMPI PUSH2 0x103 SLOAD DUP3 PUSH1 0x5 ADD SLOAD GT DUP1 ISZERO PUSH2 0x3BDB JUMPI POP PUSH2 0x110 SLOAD DUP3 PUSH1 0x6 ADD SLOAD GT JUMPDEST ISZERO PUSH2 0x3C76 JUMPI DUP6 SLOAD PUSH2 0x102 DUP1 SLOAD PUSH1 0x1 DUP1 DUP3 ADD DUP4 SSTORE PUSH1 0x0 SWAP3 SWAP1 SWAP3 MSTORE PUSH32 0x93BDAA6A4190909B7C3FBE8D42169FFE1CAB19F51DFC8DB24C71ABF849ECED4A ADD DUP1 SLOAD PUSH1 0x1 PUSH1 0x1 PUSH1 0xA0 SHL SUB NOT AND PUSH1 0x1 PUSH1 0x1 PUSH1 0xA0 SHL SUB SWAP4 DUP5 AND OR SWAP1 SSTORE PUSH1 0xA DUP5 ADD DUP1 SLOAD PUSH1 0xFF NOT AND SWAP1 SWAP2 OR SWAP1 SSTORE DUP7 SLOAD PUSH1 0x40 MLOAD SWAP2 AND DUP2 MSTORE PUSH32 0xACC63915CB028AEAEE9996ABC0F864FC0559A2F955750AA97D6EF9F51014ACFB SWAP1 PUSH1 0x20 ADD PUSH1 0x40 MLOAD DUP1 SWAP2 SUB SWAP1 LOG1 JUMPDEST POP JUMPDEST DUP10 DUP2 PUSH1 0x6 ADD PUSH1 0x0 DUP3 DUP3 SLOAD PUSH2 0x3C8C SWAP2 SWAP1 PUSH2 0x59D2 JUMP JUMPDEST SWAP1 SWAP2 SSTORE POP POP PUSH2 0x105 SLOAD PUSH1 0x5 DUP3 ADD SLOAD GT DUP1 ISZERO PUSH2 0x3CB9 JUMPI POP PUSH2 0x10F SLOAD PUSH1 0x1 DUP3 ADD SLOAD PUSH4 0x1000000 SWAP1 SWAP2 DIV PUSH1 0xFF AND GT ISZERO JUMPDEST ISZERO PUSH2 0x3D06 JUMPI DUP5 SLOAD DUP5 MLOAD PUSH1 0x1 PUSH1 0x1 PUSH1 0xA0 SHL SUB SWAP1 SWAP2 AND SWAP1 DUP6 SWAP1 DUP6 SWAP1 DUP2 LT PUSH2 0x3CE0 JUMPI PUSH2 0x3CE0 PUSH2 0x59A6 JUMP JUMPDEST PUSH1 0x1 PUSH1 0x1 PUSH1 0xA0 SHL SUB SWAP1 SWAP3 AND PUSH1 0x20 SWAP3 DUP4 MUL SWAP2 SWAP1 SWAP2 ADD SWAP1 SWAP2 ADD MSTORE DUP3 PUSH2 0x3D02 DUP2 PUSH2 0x59E5 JUMP JUMPDEST SWAP4 POP POP JUMPDEST SWAP4 POP DUP1 PUSH2 0x3D12 DUP2 PUSH2 0x59E5 JUMP JUMPDEST SWAP2 POP POP PUSH2 0x39F9 JUMP JUMPDEST POP DUP1 ISZERO PUSH2 0x3EEE JUMPI PUSH1 0x0 DUP2 PUSH1 0x64 PUSH2 0x104 SLOAD DUP12 PUSH2 0x3D35 SWAP2 SWAP1 PUSH2 0x5C80 JUMP JUMPDEST PUSH2 0x3D3F SWAP2 SWAP1 PUSH2 0x5C19 JUMP JUMPDEST PUSH2 0x3D49 SWAP2 SWAP1 PUSH2 0x5C19 JUMP JUMPDEST SWAP1 POP PUSH1 0x0 JUMPDEST DUP3 DUP2 LT ISZERO PUSH2 0x3EEB JUMPI PUSH1 0x0 PUSH1 0x1 PUSH1 0x1 PUSH1 0xA0 SHL SUB AND DUP5 DUP3 DUP2 MLOAD DUP2 LT PUSH2 0x3D73 JUMPI PUSH2 0x3D73 PUSH2 0x59A6 JUMP JUMPDEST PUSH1 0x20 MUL PUSH1 0x20 ADD ADD MLOAD PUSH1 0x1 PUSH1 0x1 PUSH1 0xA0 SHL SUB AND SUB ISZERO PUSH2 0x3EEB JUMPI PUSH1 0x0 PUSH2 0x109 PUSH1 0x0 DUP7 DUP5 DUP2 MLOAD DUP2 LT PUSH2 0x3DA3 JUMPI PUSH2 0x3DA3 PUSH2 0x59A6 JUMP JUMPDEST PUSH1 0x20 MUL PUSH1 0x20 ADD ADD MLOAD PUSH1 0x1 PUSH1 0x1 PUSH1 0xA0 SHL SUB AND PUSH1 0x1 PUSH1 0x1 PUSH1 0xA0 SHL SUB AND DUP2 MSTORE PUSH1 0x20 ADD SWAP1 DUP2 MSTORE PUSH1 0x20 ADD PUSH1 0x0 KECCAK256 SWAP1 POP DUP9 PUSH1 0x1 PUSH1 0x1 PUSH1 0xA0 SHL SUB AND PUSH4 0xA9059CBB DUP7 DUP5 DUP2 MLOAD DUP2 LT PUSH2 0x3DEE JUMPI PUSH2 0x3DEE PUSH2 0x59A6 JUMP JUMPDEST PUSH1 0x20 MUL PUSH1 0x20 ADD ADD MLOAD PUSH2 0x3E00 DUP7 DUP14 PUSH2 0x4CA0 JUMP JUMPDEST PUSH1 0x40 MLOAD PUSH1 0x1 PUSH1 0x1 PUSH1 0xE0 SHL SUB NOT PUSH1 0xE0 DUP6 SWAP1 SHL AND DUP2 MSTORE PUSH1 0x1 PUSH1 0x1 PUSH1 0xA0 SHL SUB SWAP1 SWAP3 AND PUSH1 0x4 DUP4 ADD MSTORE PUSH1 0x24 DUP3 ADD MSTORE PUSH1 0x44 ADD PUSH1 0x20 PUSH1 0x40 MLOAD DUP1 DUP4 SUB DUP2 PUSH1 0x0 DUP8 GAS CALL ISZERO DUP1 ISZERO PUSH2 0x3E4B JUMPI RETURNDATASIZE PUSH1 0x0 DUP1 RETURNDATACOPY RETURNDATASIZE PUSH1 0x0 REVERT JUMPDEST POP POP POP POP PUSH1 0x40 MLOAD RETURNDATASIZE PUSH1 0x1F NOT PUSH1 0x1F DUP3 ADD AND DUP3 ADD DUP1 PUSH1 0x40 MSTORE POP DUP2 ADD SWAP1 PUSH2 0x3E6F SWAP2 SWAP1 PUSH2 0x5967 JUMP JUMPDEST POP DUP5 DUP3 DUP2 MLOAD DUP2 LT PUSH2 0x3E82 JUMPI PUSH2 0x3E82 PUSH2 0x59A6 JUMP JUMPDEST PUSH1 0x20 MUL PUSH1 0x20 ADD ADD MLOAD PUSH1 0x1 PUSH1 0x1 PUSH1 0xA0 SHL SUB AND DUP4 PUSH32 0x62F12B06523C734CCA73AA1502A5F967C8E09D0A2F084FD36ACBAC47F54B0D4E PUSH1 0x40 MLOAD PUSH1 0x40 MLOAD DUP1 SWAP2 SUB SWAP1 LOG3 PUSH1 0x9 ADD DUP1 SLOAD PUSH1 0x1 DUP2 ADD DUP3 SSTORE PUSH1 0x0 SWAP2 DUP3 MSTORE PUSH1 0x20 SWAP1 SWAP2 KECCAK256 ADD DUP3 SWAP1 SSTORE DUP1 PUSH2 0x3EE3 DUP2 PUSH2 0x59E5 JUMP JUMPDEST SWAP2 POP POP PUSH2 0x3D4E JUMP JUMPDEST POP POP JUMPDEST PUSH2 0x102 SLOAD ISZERO PUSH2 0x1A55 JUMPI PUSH1 0x0 PUSH1 0x64 PUSH2 0x101 SLOAD DUP11 PUSH2 0x3F0A SWAP2 SWAP1 PUSH2 0x5C80 JUMP JUMPDEST PUSH2 0x3F14 SWAP2 SWAP1 PUSH2 0x5C19 JUMP JUMPDEST PUSH2 0x102 SLOAD PUSH1 0x40 DUP1 MLOAD TIMESTAMP PUSH1 0x20 DUP3 ADD MSTORE DIFFICULTY SWAP2 DUP2 ADD SWAP2 SWAP1 SWAP2 MSTORE SWAP2 SWAP3 POP PUSH1 0x0 SWAP2 PUSH1 0x60 ADD PUSH1 0x40 MLOAD PUSH1 0x20 DUP2 DUP4 SUB SUB DUP2 MSTORE SWAP1 PUSH1 0x40 MSTORE DUP1 MLOAD SWAP1 PUSH1 0x20 ADD KECCAK256 PUSH1 0x0 SHR PUSH2 0x3F56 SWAP2 SWAP1 PUSH2 0x5C97 JUMP JUMPDEST SWAP1 POP PUSH1 0x0 PUSH2 0x102 DUP3 DUP2 SLOAD DUP2 LT PUSH2 0x3F6E JUMPI PUSH2 0x3F6E PUSH2 0x59A6 JUMP JUMPDEST PUSH1 0x0 SWAP2 DUP3 MSTORE PUSH1 0x20 DUP1 DUP4 KECCAK256 SWAP2 SWAP1 SWAP2 ADD SLOAD PUSH1 0x1 PUSH1 0x1 PUSH1 0xA0 SHL SUB AND DUP1 DUP4 MSTORE PUSH2 0x109 SWAP1 SWAP2 MSTORE PUSH1 0x40 SWAP1 SWAP2 KECCAK256 PUSH2 0x10F SLOAD PUSH1 0x1 DUP3 ADD SLOAD SWAP3 SWAP4 POP SWAP1 SWAP2 PUSH3 0x10000 SWAP1 SWAP2 DIV PUSH1 0xFF AND GT PUSH2 0x409A JUMPI DUP10 PUSH1 0x1 PUSH1 0x1 PUSH1 0xA0 SHL SUB AND PUSH4 0xA9059CBB DUP4 PUSH2 0x3FCB DUP8 DUP15 PUSH2 0x4CA0 JUMP JUMPDEST PUSH1 0x40 MLOAD PUSH1 0x1 PUSH1 0x1 PUSH1 0xE0 SHL SUB NOT PUSH1 0xE0 DUP6 SWAP1 SHL AND DUP2 MSTORE PUSH1 0x1 PUSH1 0x1 PUSH1 0xA0 SHL SUB SWAP1 SWAP3 AND PUSH1 0x4 DUP4 ADD MSTORE PUSH1 0x24 DUP3 ADD MSTORE PUSH1 0x44 ADD PUSH1 0x20 PUSH1 0x40 MLOAD DUP1 DUP4 SUB DUP2 PUSH1 0x0 DUP8 GAS CALL ISZERO DUP1 ISZERO PUSH2 0x4016 JUMPI RETURNDATASIZE PUSH1 0x0 DUP1 RETURNDATACOPY RETURNDATASIZE PUSH1 0x0 REVERT JUMPDEST POP POP POP POP PUSH1 0x40 MLOAD RETURNDATASIZE PUSH1 0x1F NOT PUSH1 0x1F DUP3 ADD AND DUP3 ADD DUP1 PUSH1 0x40 MSTORE POP DUP2 ADD SWAP1 PUSH2 0x403A SWAP2 SWAP1 PUSH2 0x5967 JUMP JUMPDEST POP PUSH1 0x8 DUP2 ADD DUP1 SLOAD PUSH1 0x1 DUP2 ADD DUP3 SSTORE PUSH1 0x0 SWAP2 DUP3 MSTORE PUSH1 0x20 SWAP2 DUP3 SWAP1 KECCAK256 ADD DUP6 SWAP1 SSTORE PUSH1 0x40 DUP1 MLOAD DUP7 DUP2 MSTORE PUSH1 0x1 PUSH1 0x1 PUSH1 0xA0 SHL SUB DUP6 AND SWAP3 DUP2 ADD SWAP3 SWAP1 SWAP3 MSTORE PUSH32 0x51E673AC98F0EA063CE27EB5AF807D22B97CD11CD79380CF1F711AD80948046C SWAP2 ADD PUSH1 0x40 MLOAD DUP1 SWAP2 SUB SWAP1 LOG1 JUMPDEST POP POP POP POP POP POP POP POP POP POP POP POP JUMP JUMPDEST PUSH1 0x1 PUSH1 0x1 PUSH1 0xA0 SHL SUB DUP2 AND PUSH1 0x0 SWAP1 DUP2 MSTORE PUSH2 0x10D PUSH1 0x20 MSTORE PUSH1 0x40 DUP2 KECCAK256 SLOAD PUSH2 0xFFFF AND SWAP1 SUB PUSH2 0x1B3B JUMPI PUSH2 0x10F SLOAD PUSH1 0x0 SWAP1 PUSH2 0x40E2 SWAP1 PUSH2 0xFFFF AND PUSH1 0x1 PUSH2 0x5CAB JUMP JUMPDEST PUSH1 0x1 PUSH1 0x1 PUSH1 0xA0 SHL SUB DUP4 AND PUSH1 0x0 DUP2 DUP2 MSTORE PUSH2 0x10D PUSH1 0x20 SWAP1 DUP2 MSTORE PUSH1 0x40 DUP1 DUP4 KECCAK256 DUP1 SLOAD PUSH2 0xFFFF NOT AND PUSH2 0xFFFF DUP8 DUP2 AND SWAP2 DUP3 OR SWAP1 SWAP3 SSTORE DUP5 MSTORE PUSH2 0x10C SWAP1 SWAP3 MSTORE DUP3 KECCAK256 DUP1 SLOAD PUSH1 0x1 PUSH1 0x1 PUSH1 0xA0 SHL SUB NOT SWAP1 DUP2 AND DUP6 OR SWAP1 SWAP2 SSTORE PUSH2 0x10E DUP1 SLOAD PUSH1 0x1 DUP2 ADD DUP3 SSTORE SWAP1 DUP5 MSTORE PUSH32 0x44731785622D53A842EEB261A70DF6F2B61B9624656157B6168597F0656F4805 ADD DUP1 SLOAD SWAP1 SWAP2 AND SWAP1 SWAP4 OR SWAP1 SWAP3 SSTORE PUSH2 0x10F DUP1 SLOAD SWAP4 SWAP5 POP SWAP3 SWAP1 SWAP2 AND SWAP2 SWAP1 PUSH2 0x4180 DUP4 PUSH2 0x5C4C JUMP JUMPDEST SWAP2 SWAP1 PUSH2 0x100 EXP DUP2 SLOAD DUP2 PUSH2 0xFFFF MUL NOT AND SWAP1 DUP4 PUSH2 0xFFFF AND MUL OR SWAP1 SSTORE POP POP POP POP JUMP JUMPDEST PUSH1 0x60 DUP2 ADD MLOAD MLOAD PUSH1 0x0 SWAP1 ISZERO PUSH2 0x4204 JUMPI PUSH1 0x1 JUMPDEST DUP3 PUSH1 0x60 ADD MLOAD MLOAD DUP2 PUSH2 0xFFFF AND LT ISZERO PUSH2 0x4202 JUMPI DUP3 PUSH1 0x60 ADD MLOAD DUP2 PUSH2 0xFFFF AND DUP2 MLOAD DUP2 LT PUSH2 0x41DB JUMPI PUSH2 0x41DB PUSH2 0x59A6 JUMP JUMPDEST PUSH1 0x20 MUL PUSH1 0x20 ADD ADD MLOAD DUP3 PUSH2 0x41EE SWAP2 SWAP1 PUSH2 0x59D2 JUMP JUMPDEST SWAP2 POP DUP1 PUSH2 0x41FA DUP2 PUSH2 0x5C4C JUMP JUMPDEST SWAP2 POP POP PUSH2 0x41B0 JUMP JUMPDEST POP JUMPDEST SWAP2 SWAP1 POP JUMP JUMPDEST PUSH2 0x1B3B PUSH2 0x3753 JUMP JUMPDEST PUSH32 0x4910FDFA16FED3260ED0E7147F7CC6DA11A60208B5B9406D12A635614FFD9143 SLOAD PUSH1 0xFF AND ISZERO PUSH2 0x4249 JUMPI PUSH2 0x4244 DUP4 PUSH2 0x4D2C JUMP JUMPDEST PUSH2 0x1738 JUMP JUMPDEST DUP3 PUSH1 0x1 PUSH1 0x1 PUSH1 0xA0 SHL SUB AND PUSH4 0x52D1902D PUSH1 0x40 MLOAD DUP2 PUSH4 0xFFFFFFFF AND PUSH1 0xE0 SHL DUP2 MSTORE PUSH1 0x4 ADD PUSH1 0x20 PUSH1 0x40 MLOAD DUP1 DUP4 SUB DUP2 DUP7 GAS STATICCALL SWAP3 POP POP POP DUP1 ISZERO PUSH2 0x42A3 JUMPI POP PUSH1 0x40 DUP1 MLOAD PUSH1 0x1F RETURNDATASIZE SWAP1 DUP2 ADD PUSH1 0x1F NOT AND DUP3 ADD SWAP1 SWAP3 MSTORE PUSH2 0x42A0 SWAP2 DUP2 ADD SWAP1 PUSH2 0x5CCD JUMP JUMPDEST PUSH1 0x1 JUMPDEST PUSH2 0x4306 JUMPI PUSH1 0x40 MLOAD PUSH3 0x461BCD PUSH1 0xE5 SHL DUP2 MSTORE PUSH1 0x20 PUSH1 0x4 DUP3 ADD MSTORE PUSH1 0x2E PUSH1 0x24 DUP3 ADD MSTORE PUSH32 0x45524331393637557067726164653A206E657720696D706C656D656E74617469 PUSH1 0x44 DUP3 ADD MSTORE PUSH14 0x6F6E206973206E6F742055555053 PUSH1 0x90 SHL PUSH1 0x64 DUP3 ADD MSTORE PUSH1 0x84 ADD PUSH2 0xA6D JUMP JUMPDEST PUSH1 0x0 DUP1 MLOAD PUSH1 0x20 PUSH2 0x5E6C DUP4 CODECOPY DUP2 MLOAD SWAP2 MSTORE DUP2 EQ PUSH2 0x4375 JUMPI PUSH1 0x40 MLOAD PUSH3 0x461BCD PUSH1 0xE5 SHL DUP2 MSTORE PUSH1 0x20 PUSH1 0x4 DUP3 ADD MSTORE PUSH1 0x29 PUSH1 0x24 DUP3 ADD MSTORE PUSH32 0x45524331393637557067726164653A20756E737570706F727465642070726F78 PUSH1 0x44 DUP3 ADD MSTORE PUSH9 0x1A58589B1955555251 PUSH1 0xBA SHL PUSH1 0x64 DUP3 ADD MSTORE PUSH1 0x84 ADD PUSH2 0xA6D JUMP JUMPDEST POP PUSH2 0x1738 DUP4 DUP4 DUP4 PUSH2 0x4DC8 JUMP JUMPDEST PUSH1 0x65 DUP1 SLOAD PUSH1 0x1 PUSH1 0x1 PUSH1 0xA0 SHL SUB DUP4 DUP2 AND PUSH1 0x1 PUSH1 0x1 PUSH1 0xA0 SHL SUB NOT DUP4 AND DUP2 OR SWAP1 SWAP4 SSTORE PUSH1 0x40 MLOAD SWAP2 AND SWAP2 SWAP1 DUP3 SWAP1 PUSH32 0x8BE0079C531659141344CD1FD0A4F28419497F9722A3DAAFE3B4186F6B6457E0 SWAP1 PUSH1 0x0 SWAP1 LOG3 POP POP JUMP JUMPDEST PUSH1 0x0 SLOAD PUSH2 0x100 SWAP1 DIV PUSH1 0xFF AND PUSH2 0x43FA JUMPI PUSH1 0x40 MLOAD PUSH3 0x461BCD PUSH1 0xE5 SHL DUP2 MSTORE PUSH1 0x4 ADD PUSH2 0xA6D SWAP1 PUSH2 0x5CE6 JUMP JUMPDEST PUSH2 0x1CFA PUSH2 0x4DED JUMP JUMPDEST PUSH1 0x0 SLOAD PUSH2 0x100 SWAP1 DIV PUSH1 0xFF AND PUSH2 0x4429 JUMPI PUSH1 0x40 MLOAD PUSH3 0x461BCD PUSH1 0xE5 SHL DUP2 MSTORE PUSH1 0x4 ADD PUSH2 0xA6D SWAP1 PUSH2 0x5CE6 JUMP JUMPDEST PUSH2 0x1CFA PUSH2 0x4E20 JUMP JUMPDEST PUSH1 0x0 SLOAD PUSH2 0x100 SWAP1 DIV PUSH1 0xFF AND PUSH2 0x1CFA JUMPI PUSH1 0x40 MLOAD PUSH3 0x461BCD PUSH1 0xE5 SHL DUP2 MSTORE PUSH1 0x4 ADD PUSH2 0xA6D SWAP1 PUSH2 0x5CE6 JUMP JUMPDEST PUSH1 0x60 PUSH1 0x0 PUSH2 0x4466 DUP5 DUP5 PUSH2 0x5D31 JUMP JUMPDEST PUSH2 0xFFFF AND PUSH8 0xFFFFFFFFFFFFFFFF DUP2 GT ISZERO PUSH2 0x4482 JUMPI PUSH2 0x4482 PUSH2 0x5109 JUMP JUMPDEST PUSH1 0x40 MLOAD SWAP1 DUP1 DUP3 MSTORE DUP1 PUSH1 0x20 MUL PUSH1 0x20 ADD DUP3 ADD PUSH1 0x40 MSTORE DUP1 ISZERO PUSH2 0x44AB JUMPI DUP2 PUSH1 0x20 ADD PUSH1 0x20 DUP3 MUL DUP1 CALLDATASIZE DUP4 CALLDATACOPY ADD SWAP1 POP JUMPDEST POP SWAP2 POP JUMPDEST DUP3 PUSH2 0xFFFF AND DUP5 PUSH2 0xFFFF AND GT PUSH2 0x4960 JUMPI PUSH2 0xFFFF DUP5 AND PUSH1 0x0 SWAP1 DUP2 MSTORE PUSH2 0x10C PUSH1 0x20 SWAP1 DUP2 MSTORE PUSH1 0x40 DUP1 DUP4 KECCAK256 SLOAD PUSH1 0x1 PUSH1 0x1 PUSH1 0xA0 SHL SUB SWAP1 DUP2 AND DUP1 DUP6 MSTORE PUSH2 0x109 DUP5 MSTORE DUP3 DUP6 KECCAK256 DUP4 MLOAD PUSH2 0x160 DUP2 ADD DUP6 MSTORE DUP2 SLOAD SWAP1 SWAP4 AND DUP4 MSTORE PUSH1 0x1 DUP2 ADD DUP1 SLOAD DUP6 MLOAD DUP2 DUP9 MUL DUP2 ADD DUP9 ADD SWAP1 SWAP7 MSTORE DUP1 DUP7 MSTORE SWAP3 SWAP7 SWAP6 SWAP4 SWAP5 SWAP2 SWAP4 DUP6 DUP2 ADD SWAP4 SWAP1 DUP4 ADD DUP3 DUP3 DUP1 ISZERO PUSH2 0x4556 JUMPI PUSH1 0x20 MUL DUP3 ADD SWAP2 SWAP1 PUSH1 0x0 MSTORE PUSH1 0x20 PUSH1 0x0 KECCAK256 SWAP1 JUMPDEST DUP2 SLOAD PUSH1 0x1 PUSH1 0x1 PUSH1 0xA0 SHL SUB AND DUP2 MSTORE PUSH1 0x1 SWAP1 SWAP2 ADD SWAP1 PUSH1 0x20 ADD DUP1 DUP4 GT PUSH2 0x4538 JUMPI JUMPDEST POP POP POP POP POP DUP2 MSTORE PUSH1 0x20 ADD PUSH1 0x2 DUP3 ADD DUP1 SLOAD DUP1 PUSH1 0x20 MUL PUSH1 0x20 ADD PUSH1 0x40 MLOAD SWAP1 DUP2 ADD PUSH1 0x40 MSTORE DUP1 SWAP3 SWAP2 SWAP1 DUP2 DUP2 MSTORE PUSH1 0x20 ADD DUP3 DUP1 SLOAD DUP1 ISZERO PUSH2 0x45B8 JUMPI PUSH1 0x20 MUL DUP3 ADD SWAP2 SWAP1 PUSH1 0x0 MSTORE PUSH1 0x20 PUSH1 0x0 KECCAK256 SWAP1 JUMPDEST DUP2 SLOAD PUSH1 0x1 PUSH1 0x1 PUSH1 0xA0 SHL SUB AND DUP2 MSTORE PUSH1 0x1 SWAP1 SWAP2 ADD SWAP1 PUSH1 0x20 ADD DUP1 DUP4 GT PUSH2 0x459A JUMPI JUMPDEST POP POP POP POP POP DUP2 MSTORE PUSH1 0x20 ADD PUSH1 0x3 DUP3 ADD DUP1 SLOAD DUP1 PUSH1 0x20 MUL PUSH1 0x20 ADD PUSH1 0x40 MLOAD SWAP1 DUP2 ADD PUSH1 0x40 MSTORE DUP1 SWAP3 SWAP2 SWAP1 DUP2 DUP2 MSTORE PUSH1 0x20 ADD DUP3 DUP1 SLOAD DUP1 ISZERO PUSH2 0x4610 JUMPI PUSH1 0x20 MUL DUP3 ADD SWAP2 SWAP1 PUSH1 0x0 MSTORE PUSH1 0x20 PUSH1 0x0 KECCAK256 SWAP1 JUMPDEST DUP2 SLOAD DUP2 MSTORE PUSH1 0x20 ADD SWAP1 PUSH1 0x1 ADD SWAP1 DUP1 DUP4 GT PUSH2 0x45FC JUMPI JUMPDEST POP POP POP POP POP DUP2 MSTORE PUSH1 0x20 ADD PUSH1 0x4 DUP3 ADD SLOAD DUP2 MSTORE PUSH1 0x20 ADD PUSH1 0x5 DUP3 ADD SLOAD DUP2 MSTORE PUSH1 0x20 ADD PUSH1 0x6 DUP3 ADD SLOAD DUP2 MSTORE PUSH1 0x20 ADD PUSH1 0x7 DUP3 ADD DUP1 SLOAD DUP1 PUSH1 0x20 MUL PUSH1 0x20 ADD PUSH1 0x40 MLOAD SWAP1 DUP2 ADD PUSH1 0x40 MSTORE DUP1 SWAP3 SWAP2 SWAP1 DUP2 DUP2 MSTORE PUSH1 0x20 ADD DUP3 DUP1 SLOAD DUP1 ISZERO PUSH2 0x4686 JUMPI PUSH1 0x20 MUL DUP3 ADD SWAP2 SWAP1 PUSH1 0x0 MSTORE PUSH1 0x20 PUSH1 0x0 KECCAK256 SWAP1 JUMPDEST DUP2 SLOAD DUP2 MSTORE PUSH1 0x20 ADD SWAP1 PUSH1 0x1 ADD SWAP1 DUP1 DUP4 GT PUSH2 0x4672 JUMPI JUMPDEST POP POP POP POP POP DUP2 MSTORE PUSH1 0x20 ADD PUSH1 0x8 DUP3 ADD DUP1 SLOAD DUP1 PUSH1 0x20 MUL PUSH1 0x20 ADD PUSH1 0x40 MLOAD SWAP1 DUP2 ADD PUSH1 0x40 MSTORE DUP1 SWAP3 SWAP2 SWAP1 DUP2 DUP2 MSTORE PUSH1 0x20 ADD DUP3 DUP1 SLOAD DUP1 ISZERO PUSH2 0x46DE JUMPI PUSH1 0x20 MUL DUP3 ADD SWAP2 SWAP1 PUSH1 0x0 MSTORE PUSH1 0x20 PUSH1 0x0 KECCAK256 SWAP1 JUMPDEST DUP2 SLOAD DUP2 MSTORE PUSH1 0x20 ADD SWAP1 PUSH1 0x1 ADD SWAP1 DUP1 DUP4 GT PUSH2 0x46CA JUMPI JUMPDEST POP POP POP POP POP DUP2 MSTORE PUSH1 0x20 ADD PUSH1 0x9 DUP3 ADD DUP1 SLOAD DUP1 PUSH1 0x20 MUL PUSH1 0x20 ADD PUSH1 0x40 MLOAD SWAP1 DUP2 ADD PUSH1 0x40 MSTORE DUP1 SWAP3 SWAP2 SWAP1 DUP2 DUP2 MSTORE PUSH1 0x20 ADD DUP3 DUP1 SLOAD DUP1 ISZERO PUSH2 0x4736 JUMPI PUSH1 0x20 MUL DUP3 ADD SWAP2 SWAP1 PUSH1 0x0 MSTORE PUSH1 0x20 PUSH1 0x0 KECCAK256 SWAP1 JUMPDEST DUP2 SLOAD DUP2 MSTORE PUSH1 0x20 ADD SWAP1 PUSH1 0x1 ADD SWAP1 DUP1 DUP4 GT PUSH2 0x4722 JUMPI JUMPDEST POP POP POP SWAP2 DUP4 MSTORE POP POP PUSH1 0xA SWAP2 SWAP1 SWAP2 ADD SLOAD PUSH1 0xFF SWAP1 DUP2 AND ISZERO ISZERO PUSH1 0x20 SWAP3 DUP4 ADD MSTORE DUP10 DUP2 AND PUSH1 0x0 SWAP1 DUP2 MSTORE PUSH2 0x10B DUP4 MSTORE PUSH1 0x40 DUP1 DUP3 KECCAK256 DUP2 MLOAD PUSH1 0xE0 DUP2 ADD DUP4 MSTORE DUP2 SLOAD SWAP1 SWAP5 AND DUP5 MSTORE PUSH1 0x1 DUP2 ADD SLOAD SWAP5 DUP5 ADD SWAP5 SWAP1 SWAP5 MSTORE PUSH1 0x2 DUP5 ADD SLOAD SWAP1 DUP4 ADD MSTORE PUSH1 0x3 DUP4 ADD SLOAD PUSH1 0x60 DUP4 ADD MSTORE PUSH1 0x4 DUP4 ADD DUP1 SLOAD SWAP5 SWAP6 POP SWAP1 SWAP4 SWAP2 SWAP3 SWAP2 PUSH1 0x80 DUP5 ADD SWAP2 SWAP1 PUSH2 0x47AF SWAP1 PUSH2 0x5A29 JUMP JUMPDEST DUP1 PUSH1 0x1F ADD PUSH1 0x20 DUP1 SWAP2 DIV MUL PUSH1 0x20 ADD PUSH1 0x40 MLOAD SWAP1 DUP2 ADD PUSH1 0x40 MSTORE DUP1 SWAP3 SWAP2 SWAP1 DUP2 DUP2 MSTORE PUSH1 0x20 ADD DUP3 DUP1 SLOAD PUSH2 0x47DB SWAP1 PUSH2 0x5A29 JUMP JUMPDEST DUP1 ISZERO PUSH2 0x4828 JUMPI DUP1 PUSH1 0x1F LT PUSH2 0x47FD JUMPI PUSH2 0x100 DUP1 DUP4 SLOAD DIV MUL DUP4 MSTORE SWAP2 PUSH1 0x20 ADD SWAP2 PUSH2 0x4828 JUMP JUMPDEST DUP3 ADD SWAP2 SWAP1 PUSH1 0x0 MSTORE PUSH1 0x20 PUSH1 0x0 KECCAK256 SWAP1 JUMPDEST DUP2 SLOAD DUP2 MSTORE SWAP1 PUSH1 0x1 ADD SWAP1 PUSH1 0x20 ADD DUP1 DUP4 GT PUSH2 0x480B JUMPI DUP3 SWAP1 SUB PUSH1 0x1F AND DUP3 ADD SWAP2 JUMPDEST POP POP POP POP POP DUP2 MSTORE PUSH1 0x20 ADD PUSH1 0x5 DUP3 ADD DUP1 SLOAD PUSH2 0x4841 SWAP1 PUSH2 0x5A29 JUMP JUMPDEST DUP1 PUSH1 0x1F ADD PUSH1 0x20 DUP1 SWAP2 DIV MUL PUSH1 0x20 ADD PUSH1 0x40 MLOAD SWAP1 DUP2 ADD PUSH1 0x40 MSTORE DUP1 SWAP3 SWAP2 SWAP1 DUP2 DUP2 MSTORE PUSH1 0x20 ADD DUP3 DUP1 SLOAD PUSH2 0x486D SWAP1 PUSH2 0x5A29 JUMP JUMPDEST DUP1 ISZERO PUSH2 0x48BA JUMPI DUP1 PUSH1 0x1F LT PUSH2 0x488F JUMPI PUSH2 0x100 DUP1 DUP4 SLOAD DIV MUL DUP4 MSTORE SWAP2 PUSH1 0x20 ADD SWAP2 PUSH2 0x48BA JUMP JUMPDEST DUP3 ADD SWAP2 SWAP1 PUSH1 0x0 MSTORE PUSH1 0x20 PUSH1 0x0 KECCAK256 SWAP1 JUMPDEST DUP2 SLOAD DUP2 MSTORE SWAP1 PUSH1 0x1 ADD SWAP1 PUSH1 0x20 ADD DUP1 DUP4 GT PUSH2 0x489D JUMPI DUP3 SWAP1 SUB PUSH1 0x1F AND DUP3 ADD SWAP2 JUMPDEST POP POP POP POP POP DUP2 MSTORE PUSH1 0x20 ADD PUSH1 0x6 DUP3 ADD SLOAD DUP2 MSTORE POP POP SWAP1 POP DUP1 PUSH1 0x20 ADD MLOAD PUSH2 0x48DD DUP4 PUSH2 0x419F JUMP JUMPDEST LT ISZERO DUP1 ISZERO PUSH2 0x48F3 JUMPI POP DUP1 PUSH1 0x40 ADD MLOAD DUP3 PUSH1 0xA0 ADD MLOAD LT ISZERO JUMPDEST DUP1 ISZERO PUSH2 0x4908 JUMPI POP PUSH2 0x4908 DUP3 DUP3 PUSH1 0x60 ADD MLOAD PUSH2 0x4968 JUMP JUMPDEST ISZERO PUSH2 0x494A JUMPI DUP3 DUP6 DUP6 PUSH2 0xFFFF AND DUP2 MLOAD DUP2 LT PUSH2 0x4924 JUMPI PUSH2 0x4924 PUSH2 0x59A6 JUMP JUMPDEST PUSH1 0x1 PUSH1 0x1 PUSH1 0xA0 SHL SUB SWAP1 SWAP3 AND PUSH1 0x20 SWAP3 DUP4 MUL SWAP2 SWAP1 SWAP2 ADD SWAP1 SWAP2 ADD MSTORE DUP4 PUSH2 0x4946 DUP2 PUSH2 0x5C4C JUMP JUMPDEST SWAP5 POP POP JUMPDEST POP POP POP DUP4 DUP1 PUSH2 0x4958 SWAP1 PUSH2 0x5C4C JUMP JUMPDEST SWAP5 POP POP PUSH2 0x44AF JUMP JUMPDEST SWAP4 POP SWAP4 SWAP2 POP POP JUMP JUMPDEST PUSH1 0x0 DUP1 PUSH1 0x0 PUSH1 0x2 DUP6 PUSH1 0x20 ADD MLOAD MLOAD LT PUSH2 0x4C98 JUMPI PUSH1 0x0 JUMPDEST DUP6 PUSH1 0x20 ADD MLOAD MLOAD DUP2 PUSH2 0xFFFF AND LT ISZERO PUSH2 0x4C74 JUMPI PUSH1 0x0 PUSH2 0x109 PUSH1 0x0 DUP9 PUSH1 0x20 ADD MLOAD DUP5 PUSH2 0xFFFF AND DUP2 MLOAD DUP2 LT PUSH2 0x49AF JUMPI PUSH2 0x49AF PUSH2 0x59A6 JUMP JUMPDEST PUSH1 0x20 SWAP1 DUP2 MUL SWAP2 SWAP1 SWAP2 ADD DUP2 ADD MLOAD PUSH1 0x1 PUSH1 0x1 PUSH1 0xA0 SHL SUB SWAP1 DUP2 AND DUP4 MSTORE DUP3 DUP3 ADD SWAP4 SWAP1 SWAP4 MSTORE PUSH1 0x40 SWAP2 DUP3 ADD PUSH1 0x0 KECCAK256 DUP3 MLOAD PUSH2 0x160 DUP2 ADD DUP5 MSTORE DUP2 SLOAD SWAP1 SWAP5 AND DUP5 MSTORE PUSH1 0x1 DUP2 ADD DUP1 SLOAD DUP5 MLOAD DUP2 DUP6 MUL DUP2 ADD DUP6 ADD SWAP1 SWAP6 MSTORE DUP1 DUP6 MSTORE SWAP2 SWAP4 DUP6 DUP5 ADD SWAP4 SWAP1 SWAP3 SWAP1 DUP4 ADD DUP3 DUP3 DUP1 ISZERO PUSH2 0x4A3E JUMPI PUSH1 0x20 MUL DUP3 ADD SWAP2 SWAP1 PUSH1 0x0 MSTORE PUSH1 0x20 PUSH1 0x0 KECCAK256 SWAP1 JUMPDEST DUP2 SLOAD PUSH1 0x1 PUSH1 0x1 PUSH1 0xA0 SHL SUB AND DUP2 MSTORE PUSH1 0x1 SWAP1 SWAP2 ADD SWAP1 PUSH1 0x20 ADD DUP1 DUP4 GT PUSH2 0x4A20 JUMPI JUMPDEST POP POP POP POP POP DUP2 MSTORE PUSH1 0x20 ADD PUSH1 0x2 DUP3 ADD DUP1 SLOAD DUP1 PUSH1 0x20 MUL PUSH1 0x20 ADD PUSH1 0x40 MLOAD SWAP1 DUP2 ADD PUSH1 0x40 MSTORE DUP1 SWAP3 SWAP2 SWAP1 DUP2 DUP2 MSTORE PUSH1 0x20 ADD DUP3 DUP1 SLOAD DUP1 ISZERO PUSH2 0x4AA0 JUMPI PUSH1 0x20 MUL DUP3 ADD SWAP2 SWAP1 PUSH1 0x0 MSTORE PUSH1 0x20 PUSH1 0x0 KECCAK256 SWAP1 JUMPDEST DUP2 SLOAD PUSH1 0x1 PUSH1 0x1 PUSH1 0xA0 SHL SUB AND DUP2 MSTORE PUSH1 0x1 SWAP1 SWAP2 ADD SWAP1 PUSH1 0x20 ADD DUP1 DUP4 GT PUSH2 0x4A82 JUMPI JUMPDEST POP POP POP POP POP DUP2 MSTORE PUSH1 0x20 ADD PUSH1 0x3 DUP3 ADD DUP1 SLOAD DUP1 PUSH1 0x20 MUL PUSH1 0x20 ADD PUSH1 0x40 MLOAD SWAP1 DUP2 ADD PUSH1 0x40 MSTORE DUP1 SWAP3 SWAP2 SWAP1 DUP2 DUP2 MSTORE PUSH1 0x20 ADD DUP3 DUP1 SLOAD DUP1 ISZERO PUSH2 0x4AF8 JUMPI PUSH1 0x20 MUL DUP3 ADD SWAP2 SWAP1 PUSH1 0x0 MSTORE PUSH1 0x20 PUSH1 0x0 KECCAK256 SWAP1 JUMPDEST DUP2 SLOAD DUP2 MSTORE PUSH1 0x20 ADD SWAP1 PUSH1 0x1 ADD SWAP1 DUP1 DUP4 GT PUSH2 0x4AE4 JUMPI JUMPDEST POP POP POP POP POP DUP2 MSTORE PUSH1 0x20 ADD PUSH1 0x4 DUP3 ADD SLOAD DUP2 MSTORE PUSH1 0x20 ADD PUSH1 0x5 DUP3 ADD SLOAD DUP2 MSTORE PUSH1 0x20 ADD PUSH1 0x6 DUP3 ADD SLOAD DUP2 MSTORE PUSH1 0x20 ADD PUSH1 0x7 DUP3 ADD DUP1 SLOAD DUP1 PUSH1 0x20 MUL PUSH1 0x20 ADD PUSH1 0x40 MLOAD SWAP1 DUP2 ADD PUSH1 0x40 MSTORE DUP1 SWAP3 SWAP2 SWAP1 DUP2 DUP2 MSTORE PUSH1 0x20 ADD DUP3 DUP1 SLOAD DUP1 ISZERO PUSH2 0x4B6E JUMPI PUSH1 0x20 MUL DUP3 ADD SWAP2 SWAP1 PUSH1 0x0 MSTORE PUSH1 0x20 PUSH1 0x0 KECCAK256 SWAP1 JUMPDEST DUP2 SLOAD DUP2 MSTORE PUSH1 0x20 ADD SWAP1 PUSH1 0x1 ADD SWAP1 DUP1 DUP4 GT PUSH2 0x4B5A JUMPI JUMPDEST POP POP POP POP POP DUP2 MSTORE PUSH1 0x20 ADD PUSH1 0x8 DUP3 ADD DUP1 SLOAD DUP1 PUSH1 0x20 MUL PUSH1 0x20 ADD PUSH1 0x40 MLOAD SWAP1 DUP2 ADD PUSH1 0x40 MSTORE DUP1 SWAP3 SWAP2 SWAP1 DUP2 DUP2 MSTORE PUSH1 0x20 ADD DUP3 DUP1 SLOAD DUP1 ISZERO PUSH2 0x4BC6 JUMPI PUSH1 0x20 MUL DUP3 ADD SWAP2 SWAP1 PUSH1 0x0 MSTORE PUSH1 0x20 PUSH1 0x0 KECCAK256 SWAP1 JUMPDEST DUP2 SLOAD DUP2 MSTORE PUSH1 0x20 ADD SWAP1 PUSH1 0x1 ADD SWAP1 DUP1 DUP4 GT PUSH2 0x4BB2 JUMPI JUMPDEST POP POP POP POP POP DUP2 MSTORE PUSH1 0x20 ADD PUSH1 0x9 DUP3 ADD DUP1 SLOAD DUP1 PUSH1 0x20 MUL PUSH1 0x20 ADD PUSH1 0x40 MLOAD SWAP1 DUP2 ADD PUSH1 0x40 MSTORE DUP1 SWAP3 SWAP2 SWAP1 DUP2 DUP2 MSTORE PUSH1 0x20 ADD DUP3 DUP1 SLOAD DUP1 ISZERO PUSH2 0x4C1E JUMPI PUSH1 0x20 MUL DUP3 ADD SWAP2 SWAP1 PUSH1 0x0 MSTORE PUSH1 0x20 PUSH1 0x0 KECCAK256 SWAP1 JUMPDEST DUP2 SLOAD DUP2 MSTORE PUSH1 0x20 ADD SWAP1 PUSH1 0x1 ADD SWAP1 DUP1 DUP4 GT PUSH2 0x4C0A JUMPI JUMPDEST POP POP POP SWAP2 DUP4 MSTORE POP POP PUSH1 0xA SWAP2 SWAP1 SWAP2 ADD SLOAD PUSH1 0xFF AND ISZERO ISZERO PUSH1 0x20 SWAP1 SWAP2 ADD MSTORE PUSH1 0xC0 DUP2 ADD MLOAD SWAP1 SWAP2 POP DUP5 LT ISZERO PUSH2 0x4C4F JUMPI DUP1 PUSH1 0xC0 ADD MLOAD SWAP4 POP JUMPDEST PUSH1 0xC0 DUP2 ADD MLOAD PUSH2 0x4C5E SWAP1 DUP5 PUSH2 0x59D2 JUMP JUMPDEST SWAP3 POP POP DUP1 DUP1 PUSH2 0x4C6C SWAP1 PUSH2 0x5C4C JUMP JUMPDEST SWAP2 POP POP PUSH2 0x497D JUMP JUMPDEST POP DUP4 DUP3 LT ISZERO DUP1 ISZERO PUSH2 0x4C8E JUMPI POP DUP4 PUSH2 0x4C8B DUP4 DUP4 PUSH2 0x5C6D JUMP JUMPDEST LT ISZERO JUMPDEST ISZERO PUSH2 0x4C98 JUMPI PUSH1 0x1 SWAP3 POP JUMPDEST POP POP SWAP3 SWAP2 POP POP JUMP JUMPDEST PUSH1 0x0 PUSH8 0xDE0B6B3A7640000 DUP3 PUSH1 0x1 PUSH1 0x1 PUSH1 0xA0 SHL SUB AND PUSH4 0x313CE567 PUSH1 0x40 MLOAD DUP2 PUSH4 0xFFFFFFFF AND PUSH1 0xE0 SHL DUP2 MSTORE PUSH1 0x4 ADD PUSH1 0x20 PUSH1 0x40 MLOAD DUP1 DUP4 SUB DUP2 DUP7 GAS STATICCALL ISZERO DUP1 ISZERO PUSH2 0x4CE9 JUMPI RETURNDATASIZE PUSH1 0x0 DUP1 RETURNDATACOPY RETURNDATASIZE PUSH1 0x0 REVERT JUMPDEST POP POP POP POP PUSH1 0x40 MLOAD RETURNDATASIZE PUSH1 0x1F NOT PUSH1 0x1F DUP3 ADD AND DUP3 ADD DUP1 PUSH1 0x40 MSTORE POP DUP2 ADD SWAP1 PUSH2 0x4D0D SWAP2 SWAP1 PUSH2 0x5CCD JUMP JUMPDEST PUSH2 0x4D18 SWAP1 PUSH1 0xA PUSH2 0x5E30 JUMP JUMPDEST PUSH2 0x4D22 SWAP1 DUP6 PUSH2 0x5C80 JUMP JUMPDEST PUSH2 0x141A SWAP2 SWAP1 PUSH2 0x5C19 JUMP JUMPDEST PUSH1 0x1 PUSH1 0x1 PUSH1 0xA0 SHL SUB DUP2 AND EXTCODESIZE PUSH2 0x4D99 JUMPI PUSH1 0x40 MLOAD PUSH3 0x461BCD PUSH1 0xE5 SHL DUP2 MSTORE PUSH1 0x20 PUSH1 0x4 DUP3 ADD MSTORE PUSH1 0x2D PUSH1 0x24 DUP3 ADD MSTORE PUSH32 0x455243313936373A206E657720696D706C656D656E746174696F6E206973206E PUSH1 0x44 DUP3 ADD MSTORE PUSH13 0x1BDD08184818DBDB9D1C9858DD PUSH1 0x9A SHL PUSH1 0x64 DUP3 ADD MSTORE PUSH1 0x84 ADD PUSH2 0xA6D JUMP JUMPDEST PUSH1 0x0 DUP1 MLOAD PUSH1 0x20 PUSH2 0x5E6C DUP4 CODECOPY DUP2 MLOAD SWAP2 MSTORE DUP1 SLOAD PUSH1 0x1 PUSH1 0x1 PUSH1 0xA0 SHL SUB NOT AND PUSH1 0x1 PUSH1 0x1 PUSH1 0xA0 SHL SUB SWAP3 SWAP1 SWAP3 AND SWAP2 SWAP1 SWAP2 OR SWAP1 SSTORE JUMP JUMPDEST PUSH2 0x4DD1 DUP4 PUSH2 0x4E50 JUMP JUMPDEST PUSH1 0x0 DUP3 MLOAD GT DUP1 PUSH2 0x4DDE JUMPI POP DUP1 JUMPDEST ISZERO PUSH2 0x1738 JUMPI PUSH2 0x927 DUP4 DUP4 PUSH2 0x4E90 JUMP JUMPDEST PUSH1 0x0 SLOAD PUSH2 0x100 SWAP1 DIV PUSH1 0xFF AND PUSH2 0x4E14 JUMPI PUSH1 0x40 MLOAD PUSH3 0x461BCD PUSH1 0xE5 SHL DUP2 MSTORE PUSH1 0x4 ADD PUSH2 0xA6D SWAP1 PUSH2 0x5CE6 JUMP JUMPDEST PUSH1 0x33 DUP1 SLOAD PUSH1 0xFF NOT AND SWAP1 SSTORE JUMP JUMPDEST PUSH1 0x0 SLOAD PUSH2 0x100 SWAP1 DIV PUSH1 0xFF AND PUSH2 0x4E47 JUMPI PUSH1 0x40 MLOAD PUSH3 0x461BCD PUSH1 0xE5 SHL DUP2 MSTORE PUSH1 0x4 ADD PUSH2 0xA6D SWAP1 PUSH2 0x5CE6 JUMP JUMPDEST PUSH2 0x1CFA CALLER PUSH2 0x4381 JUMP JUMPDEST PUSH2 0x4E59 DUP2 PUSH2 0x4D2C JUMP JUMPDEST PUSH1 0x40 MLOAD PUSH1 0x1 PUSH1 0x1 PUSH1 0xA0 SHL SUB DUP3 AND SWAP1 PUSH32 0xBC7CD75A20EE27FD9ADEBAB32041F755214DBC6BFFA90CC0225B39DA2E5C2D3B SWAP1 PUSH1 0x0 SWAP1 LOG2 POP JUMP JUMPDEST PUSH1 0x60 PUSH1 0x1 PUSH1 0x1 PUSH1 0xA0 SHL SUB DUP4 AND EXTCODESIZE PUSH2 0x4EF8 JUMPI PUSH1 0x40 MLOAD PUSH3 0x461BCD PUSH1 0xE5 SHL DUP2 MSTORE PUSH1 0x20 PUSH1 0x4 DUP3 ADD MSTORE PUSH1 0x26 PUSH1 0x24 DUP3 ADD MSTORE PUSH32 0x416464726573733A2064656C65676174652063616C6C20746F206E6F6E2D636F PUSH1 0x44 DUP3 ADD MSTORE PUSH6 0x1B9D1C9858DD PUSH1 0xD2 SHL PUSH1 0x64 DUP3 ADD MSTORE PUSH1 0x84 ADD PUSH2 0xA6D JUMP JUMPDEST PUSH1 0x0 DUP1 DUP5 PUSH1 0x1 PUSH1 0x1 PUSH1 0xA0 SHL SUB AND DUP5 PUSH1 0x40 MLOAD PUSH2 0x4F13 SWAP2 SWAP1 PUSH2 0x5E3C JUMP JUMPDEST PUSH1 0x0 PUSH1 0x40 MLOAD DUP1 DUP4 SUB DUP2 DUP6 GAS DELEGATECALL SWAP2 POP POP RETURNDATASIZE DUP1 PUSH1 0x0 DUP2 EQ PUSH2 0x4F4E JUMPI PUSH1 0x40 MLOAD SWAP2 POP PUSH1 0x1F NOT PUSH1 0x3F RETURNDATASIZE ADD AND DUP3 ADD PUSH1 0x40 MSTORE RETURNDATASIZE DUP3 MSTORE RETURNDATASIZE PUSH1 0x0 PUSH1 0x20 DUP5 ADD RETURNDATACOPY PUSH2 0x4F53 JUMP JUMPDEST PUSH1 0x60 SWAP2 POP JUMPDEST POP SWAP2 POP SWAP2 POP PUSH2 0x4F7B DUP3 DUP3 PUSH1 0x40 MLOAD DUP1 PUSH1 0x60 ADD PUSH1 0x40 MSTORE DUP1 PUSH1 0x27 DUP2 MSTORE PUSH1 0x20 ADD PUSH2 0x5E8C PUSH1 0x27 SWAP2 CODECOPY PUSH2 0x4F84 JUMP JUMPDEST SWAP6 SWAP5 POP POP POP POP POP JUMP JUMPDEST PUSH1 0x60 DUP4 ISZERO PUSH2 0x4F93 JUMPI POP DUP2 PUSH2 0x141A JUMP JUMPDEST PUSH2 0x141A DUP4 DUP4 DUP2 MLOAD ISZERO PUSH2 0x4FA8 JUMPI DUP2 MLOAD DUP1 DUP4 PUSH1 0x20 ADD REVERT JUMPDEST DUP1 PUSH1 0x40 MLOAD PUSH3 0x461BCD PUSH1 0xE5 SHL DUP2 MSTORE PUSH1 0x4 ADD PUSH2 0xA6D SWAP2 SWAP1 PUSH2 0x5E58 JUMP JUMPDEST DUP3 DUP1 SLOAD DUP3 DUP3 SSTORE SWAP1 PUSH1 0x0 MSTORE PUSH1 0x20 PUSH1 0x0 KECCAK256 SWAP1 DUP2 ADD SWAP3 DUP3 ISZERO PUSH2 0x5002 JUMPI SWAP2 PUSH1 0x20 MUL DUP3 ADD JUMPDEST DUP3 DUP2 GT ISZERO PUSH2 0x5002 JUMPI DUP3 MLOAD DUP3 SWAP1 PUSH1 0xFF AND SWAP1 SSTORE SWAP2 PUSH1 0x20 ADD SWAP2 SWAP1 PUSH1 0x1 ADD SWAP1 PUSH2 0x4FE2 JUMP JUMPDEST POP PUSH2 0x500E SWAP3 SWAP2 POP PUSH2 0x5012 JUMP JUMPDEST POP SWAP1 JUMP JUMPDEST JUMPDEST DUP1 DUP3 GT ISZERO PUSH2 0x500E JUMPI PUSH1 0x0 DUP2 SSTORE PUSH1 0x1 ADD PUSH2 0x5013 JUMP JUMPDEST PUSH1 0x1 PUSH1 0x1 PUSH1 0xA0 SHL SUB DUP2 AND DUP2 EQ PUSH2 0x1B3B JUMPI PUSH1 0x0 DUP1 REVERT JUMPDEST PUSH1 0x0 PUSH1 0x20 DUP3 DUP5 SUB SLT ISZERO PUSH2 0x504E JUMPI PUSH1 0x0 DUP1 REVERT JUMPDEST DUP2 CALLDATALOAD PUSH2 0x141A DUP2 PUSH2 0x5027 JUMP JUMPDEST DUP1 CALLDATALOAD PUSH2 0xFFFF DUP2 AND DUP2 EQ PUSH2 0x4204 JUMPI PUSH1 0x0 DUP1 REVERT JUMPDEST PUSH1 0x0 PUSH1 0x20 DUP3 DUP5 SUB SLT ISZERO PUSH2 0x507D JUMPI PUSH1 0x0 DUP1 REVERT JUMPDEST PUSH2 0x141A DUP3 PUSH2 0x5059 JUMP JUMPDEST PUSH1 0x0 DUP1 PUSH1 0x0 PUSH1 0x60 DUP5 DUP7 SUB SLT ISZERO PUSH2 0x509B JUMPI PUSH1 0x0 DUP1 REVERT JUMPDEST DUP4 CALLDATALOAD PUSH2 0x50A6 DUP2 PUSH2 0x5027 JUMP JUMPDEST SWAP3 POP PUSH1 0x20 DUP5 ADD CALLDATALOAD PUSH2 0x50B6 DUP2 PUSH2 0x5027 JUMP JUMPDEST SWAP3 SWAP6 SWAP3 SWAP5 POP POP POP PUSH1 0x40 SWAP2 SWAP1 SWAP2 ADD CALLDATALOAD SWAP1 JUMP JUMPDEST PUSH1 0x0 DUP1 PUSH1 0x0 PUSH1 0x60 DUP5 DUP7 SUB SLT ISZERO PUSH2 0x50DC JUMPI PUSH1 0x0 DUP1 REVERT JUMPDEST DUP4 CALLDATALOAD SWAP3 POP PUSH1 0x20 DUP5 ADD CALLDATALOAD PUSH2 0x50EE DUP2 PUSH2 0x5027 JUMP JUMPDEST SWAP2 POP PUSH1 0x40 DUP5 ADD CALLDATALOAD PUSH2 0x50FE DUP2 PUSH2 0x5027 JUMP JUMPDEST DUP1 SWAP2 POP POP SWAP3 POP SWAP3 POP SWAP3 JUMP JUMPDEST PUSH4 0x4E487B71 PUSH1 0xE0 SHL PUSH1 0x0 MSTORE PUSH1 0x41 PUSH1 0x4 MSTORE PUSH1 0x24 PUSH1 0x0 REVERT JUMPDEST PUSH1 0x40 MLOAD PUSH1 0x1F DUP3 ADD PUSH1 0x1F NOT AND DUP2 ADD PUSH8 0xFFFFFFFFFFFFFFFF DUP2 GT DUP3 DUP3 LT OR ISZERO PUSH2 0x5148 JUMPI PUSH2 0x5148 PUSH2 0x5109 JUMP JUMPDEST PUSH1 0x40 MSTORE SWAP2 SWAP1 POP JUMP JUMPDEST PUSH1 0x0 PUSH8 0xFFFFFFFFFFFFFFFF DUP3 GT ISZERO PUSH2 0x516A JUMPI PUSH2 0x516A PUSH2 0x5109 JUMP JUMPDEST POP PUSH1 0x5 SHL PUSH1 0x20 ADD SWAP1 JUMP JUMPDEST DUP1 CALLDATALOAD PUSH1 0xFF DUP2 AND DUP2 EQ PUSH2 0x4204 JUMPI PUSH1 0x0 DUP1 REVERT JUMPDEST PUSH1 0x0 DUP3 PUSH1 0x1F DUP4 ADD SLT PUSH2 0x5196 JUMPI PUSH1 0x0 DUP1 REVERT JUMPDEST DUP2 CALLDATALOAD PUSH1 0x20 PUSH2 0x51AB PUSH2 0x51A6 DUP4 PUSH2 0x5150 JUMP JUMPDEST PUSH2 0x511F JUMP JUMPDEST DUP3 DUP2 MSTORE PUSH1 0x5 SWAP3 SWAP1 SWAP3 SHL DUP5 ADD DUP2 ADD SWAP2 DUP2 DUP2 ADD SWAP1 DUP7 DUP5 GT ISZERO PUSH2 0x51CA JUMPI PUSH1 0x0 DUP1 REVERT JUMPDEST DUP3 DUP7 ADD JUMPDEST DUP5 DUP2 LT ISZERO PUSH2 0x51EC JUMPI PUSH2 0x51DF DUP2 PUSH2 0x5174 JUMP JUMPDEST DUP4 MSTORE SWAP2 DUP4 ADD SWAP2 DUP4 ADD PUSH2 0x51CE JUMP JUMPDEST POP SWAP7 SWAP6 POP POP POP POP POP POP JUMP JUMPDEST PUSH1 0x0 DUP3 PUSH1 0x1F DUP4 ADD SLT PUSH2 0x5208 JUMPI PUSH1 0x0 DUP1 REVERT JUMPDEST DUP2 CALLDATALOAD PUSH1 0x20 PUSH2 0x5218 PUSH2 0x51A6 DUP4 PUSH2 0x5150 JUMP JUMPDEST DUP3 DUP2 MSTORE PUSH1 0x5 SWAP3 SWAP1 SWAP3 SHL DUP5 ADD DUP2 ADD SWAP2 DUP2 DUP2 ADD SWAP1 DUP7 DUP5 GT ISZERO PUSH2 0x5237 JUMPI PUSH1 0x0 DUP1 REVERT JUMPDEST DUP3 DUP7 ADD JUMPDEST DUP5 DUP2 LT ISZERO PUSH2 0x51EC JUMPI DUP1 CALLDATALOAD DUP4 MSTORE SWAP2 DUP4 ADD SWAP2 DUP4 ADD PUSH2 0x523B JUMP JUMPDEST PUSH1 0x0 PUSH8 0xFFFFFFFFFFFFFFFF DUP4 GT ISZERO PUSH2 0x526C JUMPI PUSH2 0x526C PUSH2 0x5109 JUMP JUMPDEST PUSH2 0x527F PUSH1 0x1F DUP5 ADD PUSH1 0x1F NOT AND PUSH1 0x20 ADD PUSH2 0x511F JUMP JUMPDEST SWAP1 POP DUP3 DUP2 MSTORE DUP4 DUP4 DUP4 ADD GT ISZERO PUSH2 0x5293 JUMPI PUSH1 0x0 DUP1 REVERT JUMPDEST DUP3 DUP3 PUSH1 0x20 DUP4 ADD CALLDATACOPY PUSH1 0x0 PUSH1 0x20 DUP5 DUP4 ADD ADD MSTORE SWAP4 SWAP3 POP POP POP JUMP JUMPDEST PUSH1 0x0 DUP3 PUSH1 0x1F DUP4 ADD SLT PUSH2 0x52BB JUMPI PUSH1 0x0 DUP1 REVERT JUMPDEST DUP2 CALLDATALOAD PUSH1 0x20 PUSH2 0x52CB PUSH2 0x51A6 DUP4 PUSH2 0x5150 JUMP JUMPDEST DUP3 DUP2 MSTORE PUSH1 0x5 SWAP3 SWAP1 SWAP3 SHL DUP5 ADD DUP2 ADD SWAP2 DUP2 DUP2 ADD SWAP1 DUP7 DUP5 GT ISZERO PUSH2 0x52EA JUMPI PUSH1 0x0 DUP1 REVERT JUMPDEST DUP3 DUP7 ADD JUMPDEST DUP5 DUP2 LT ISZERO PUSH2 0x51EC JUMPI DUP1 CALLDATALOAD PUSH8 0xFFFFFFFFFFFFFFFF DUP2 GT ISZERO PUSH2 0x530E JUMPI PUSH1 0x0 DUP1 DUP2 REVERT JUMPDEST DUP8 ADD PUSH1 0x3F DUP2 ADD DUP10 SGT PUSH2 0x5320 JUMPI PUSH1 0x0 DUP1 DUP2 REVERT JUMPDEST PUSH2 0x5331 DUP10 DUP7 DUP4 ADD CALLDATALOAD PUSH1 0x40 DUP5 ADD PUSH2 0x5252 JUMP JUMPDEST DUP5 MSTORE POP SWAP2 DUP4 ADD SWAP2 DUP4 ADD PUSH2 0x52EE JUMP JUMPDEST PUSH1 0x0 DUP1 PUSH1 0x0 DUP1 PUSH1 0x0 DUP1 PUSH1 0x0 PUSH1 0xE0 DUP9 DUP11 SUB SLT ISZERO PUSH2 0x535A JUMPI PUSH1 0x0 DUP1 REVERT JUMPDEST DUP8 CALLDATALOAD PUSH8 0xFFFFFFFFFFFFFFFF DUP1 DUP3 GT ISZERO PUSH2 0x5372 JUMPI PUSH1 0x0 DUP1 REVERT JUMPDEST PUSH2 0x537E DUP12 DUP4 DUP13 ADD PUSH2 0x5185 JUMP JUMPDEST SWAP9 POP PUSH1 0x20 DUP11 ADD CALLDATALOAD SWAP2 POP DUP1 DUP3 GT ISZERO PUSH2 0x5394 JUMPI PUSH1 0x0 DUP1 REVERT JUMPDEST PUSH2 0x53A0 DUP12 DUP4 DUP13 ADD PUSH2 0x51F7 JUMP JUMPDEST SWAP8 POP PUSH1 0x40 DUP11 ADD CALLDATALOAD SWAP2 POP DUP1 DUP3 GT ISZERO PUSH2 0x53B6 JUMPI PUSH1 0x0 DUP1 REVERT JUMPDEST PUSH2 0x53C2 DUP12 DUP4 DUP13 ADD PUSH2 0x51F7 JUMP JUMPDEST SWAP7 POP PUSH1 0x60 DUP11 ADD CALLDATALOAD SWAP2 POP DUP1 DUP3 GT ISZERO PUSH2 0x53D8 JUMPI PUSH1 0x0 DUP1 REVERT JUMPDEST PUSH2 0x53E4 DUP12 DUP4 DUP13 ADD PUSH2 0x51F7 JUMP JUMPDEST SWAP6 POP PUSH1 0x80 DUP11 ADD CALLDATALOAD SWAP2 POP DUP1 DUP3 GT ISZERO PUSH2 0x53FA JUMPI PUSH1 0x0 DUP1 REVERT JUMPDEST PUSH2 0x5406 DUP12 DUP4 DUP13 ADD PUSH2 0x52AA JUMP JUMPDEST SWAP5 POP PUSH1 0xA0 DUP11 ADD CALLDATALOAD SWAP2 POP DUP1 DUP3 GT ISZERO PUSH2 0x541C JUMPI PUSH1 0x0 DUP1 REVERT JUMPDEST PUSH2 0x5428 DUP12 DUP4 DUP13 ADD PUSH2 0x52AA JUMP JUMPDEST SWAP4 POP PUSH1 0xC0 DUP11 ADD CALLDATALOAD SWAP2 POP DUP1 DUP3 GT ISZERO PUSH2 0x543E JUMPI PUSH1 0x0 DUP1 REVERT JUMPDEST POP PUSH2 0x544B DUP11 DUP3 DUP12 ADD PUSH2 0x51F7 JUMP JUMPDEST SWAP2 POP POP SWAP3 SWAP6 SWAP9 SWAP2 SWAP5 SWAP8 POP SWAP3 SWAP6 POP JUMP JUMPDEST PUSH1 0x0 DUP1 PUSH1 0x40 DUP4 DUP6 SUB SLT ISZERO PUSH2 0x546D JUMPI PUSH1 0x0 DUP1 REVERT JUMPDEST DUP3 CALLDATALOAD PUSH2 0x5478 DUP2 PUSH2 0x5027 JUMP JUMPDEST SWAP2 POP PUSH1 0x20 DUP4 ADD CALLDATALOAD PUSH8 0xFFFFFFFFFFFFFFFF DUP2 GT ISZERO PUSH2 0x5494 JUMPI PUSH1 0x0 DUP1 REVERT JUMPDEST DUP4 ADD PUSH1 0x1F DUP2 ADD DUP6 SGT PUSH2 0x54A5 JUMPI PUSH1 0x0 DUP1 REVERT JUMPDEST PUSH2 0x54B4 DUP6 DUP3 CALLDATALOAD PUSH1 0x20 DUP5 ADD PUSH2 0x5252 JUMP JUMPDEST SWAP2 POP POP SWAP3 POP SWAP3 SWAP1 POP JUMP JUMPDEST PUSH1 0x0 PUSH1 0x20 DUP3 DUP5 SUB SLT ISZERO PUSH2 0x54D0 JUMPI PUSH1 0x0 DUP1 REVERT JUMPDEST POP CALLDATALOAD SWAP2 SWAP1 POP JUMP JUMPDEST PUSH1 0x0 DUP1 PUSH1 0x40 DUP4 DUP6 SUB SLT ISZERO PUSH2 0x54EA JUMPI PUSH1 0x0 DUP1 REVERT JUMPDEST DUP3 CALLDATALOAD PUSH2 0x54F5 DUP2 PUSH2 0x5027 JUMP JUMPDEST SWAP2 POP PUSH2 0x5503 PUSH1 0x20 DUP5 ADD PUSH2 0x5174 JUMP JUMPDEST SWAP1 POP SWAP3 POP SWAP3 SWAP1 POP JUMP JUMPDEST PUSH1 0x0 DUP1 PUSH1 0x40 DUP4 DUP6 SUB SLT ISZERO PUSH2 0x551F JUMPI PUSH1 0x0 DUP1 REVERT JUMPDEST DUP3 CALLDATALOAD PUSH2 0x552A DUP2 PUSH2 0x5027 JUMP JUMPDEST SWAP5 PUSH1 0x20 SWAP4 SWAP1 SWAP4 ADD CALLDATALOAD SWAP4 POP POP POP JUMP JUMPDEST PUSH1 0x20 DUP1 DUP3 MSTORE DUP3 MLOAD PUSH1 0x1 PUSH1 0x1 PUSH1 0xA0 SHL SUB AND DUP3 DUP3 ADD MSTORE DUP3 DUP2 ADD MLOAD PUSH1 0x60 PUSH1 0x40 DUP5 ADD MSTORE DUP1 MLOAD PUSH1 0x80 DUP5 ADD DUP2 SWAP1 MSTORE PUSH1 0x0 SWAP3 SWAP2 DUP3 ADD SWAP1 DUP4 SWAP1 PUSH1 0xA0 DUP7 ADD SWAP1 JUMPDEST DUP1 DUP4 LT ISZERO PUSH2 0x5592 JUMPI DUP4 MLOAD PUSH1 0xFF AND DUP3 MSTORE SWAP3 DUP5 ADD SWAP3 PUSH1 0x1 SWAP3 SWAP1 SWAP3 ADD SWAP2 SWAP1 DUP5 ADD SWAP1 PUSH2 0x556F JUMP JUMPDEST POP PUSH1 0xFF PUSH1 0x40 DUP9 ADD MLOAD AND PUSH1 0x60 DUP8 ADD MSTORE DUP1 SWAP5 POP POP POP POP POP SWAP3 SWAP2 POP POP JUMP JUMPDEST PUSH1 0x0 DUP1 PUSH1 0x20 DUP4 DUP6 SUB SLT ISZERO PUSH2 0x55C0 JUMPI PUSH1 0x0 DUP1 REVERT JUMPDEST DUP3 CALLDATALOAD PUSH8 0xFFFFFFFFFFFFFFFF DUP1 DUP3 GT ISZERO PUSH2 0x55D8 JUMPI PUSH1 0x0 DUP1 REVERT JUMPDEST DUP2 DUP6 ADD SWAP2 POP DUP6 PUSH1 0x1F DUP4 ADD SLT PUSH2 0x55EC JUMPI PUSH1 0x0 DUP1 REVERT JUMPDEST DUP2 CALLDATALOAD DUP2 DUP2 GT ISZERO PUSH2 0x55FB JUMPI PUSH1 0x0 DUP1 REVERT JUMPDEST DUP7 PUSH1 0x20 DUP3 PUSH1 0x5 SHL DUP6 ADD ADD GT ISZERO PUSH2 0x5610 JUMPI PUSH1 0x0 DUP1 REVERT JUMPDEST PUSH1 0x20 SWAP3 SWAP1 SWAP3 ADD SWAP7 SWAP2 SWAP6 POP SWAP1 SWAP4 POP POP POP POP JUMP JUMPDEST PUSH1 0x0 DUP1 PUSH1 0x40 DUP4 DUP6 SUB SLT ISZERO PUSH2 0x5635 JUMPI PUSH1 0x0 DUP1 REVERT JUMPDEST POP POP DUP1 CALLDATALOAD SWAP3 PUSH1 0x20 SWAP1 SWAP2 ADD CALLDATALOAD SWAP2 POP JUMP JUMPDEST PUSH1 0x0 PUSH1 0x20 DUP3 DUP5 SUB SLT ISZERO PUSH2 0x5656 JUMPI PUSH1 0x0 DUP1 REVERT JUMPDEST PUSH2 0x141A DUP3 PUSH2 0x5174 JUMP JUMPDEST PUSH1 0x0 JUMPDEST DUP4 DUP2 LT ISZERO PUSH2 0x567A JUMPI DUP2 DUP2 ADD MLOAD DUP4 DUP3 ADD MSTORE PUSH1 0x20 ADD PUSH2 0x5662 JUMP JUMPDEST POP POP PUSH1 0x0 SWAP2 ADD MSTORE JUMP JUMPDEST PUSH1 0x0 DUP2 MLOAD DUP1 DUP5 MSTORE PUSH2 0x569B DUP2 PUSH1 0x20 DUP7 ADD PUSH1 0x20 DUP7 ADD PUSH2 0x565F JUMP JUMPDEST PUSH1 0x1F ADD PUSH1 0x1F NOT AND SWAP3 SWAP1 SWAP3 ADD PUSH1 0x20 ADD SWAP3 SWAP2 POP POP JUMP JUMPDEST PUSH1 0xFF DUP9 AND DUP2 MSTORE DUP7 PUSH1 0x20 DUP3 ADD MSTORE DUP6 PUSH1 0x40 DUP3 ADD MSTORE DUP5 PUSH1 0x60 DUP3 ADD MSTORE PUSH1 0xE0 PUSH1 0x80 DUP3 ADD MSTORE PUSH1 0x0 PUSH2 0x56DD PUSH1 0xE0 DUP4 ADD DUP7 PUSH2 0x5683 JUMP JUMPDEST DUP3 DUP2 SUB PUSH1 0xA0 DUP5 ADD MSTORE PUSH2 0x56EF DUP2 DUP7 PUSH2 0x5683 JUMP JUMPDEST SWAP2 POP POP DUP3 PUSH1 0xC0 DUP4 ADD MSTORE SWAP9 SWAP8 POP POP POP POP POP POP POP POP JUMP JUMPDEST PUSH1 0x0 DUP1 PUSH1 0x0 PUSH1 0x60 DUP5 DUP7 SUB SLT ISZERO PUSH2 0x5719 JUMPI PUSH1 0x0 DUP1 REVERT JUMPDEST PUSH2 0x5722 DUP5 PUSH2 0x5174 JUMP JUMPDEST SWAP3 POP PUSH2 0x5730 PUSH1 0x20 DUP6 ADD PUSH2 0x5059 JUMP JUMPDEST SWAP2 POP PUSH2 0x573E PUSH1 0x40 DUP6 ADD PUSH2 0x5059 JUMP JUMPDEST SWAP1 POP SWAP3 POP SWAP3 POP SWAP3 JUMP JUMPDEST PUSH1 0x0 DUP2 MLOAD DUP1 DUP5 MSTORE PUSH1 0x20 DUP1 DUP6 ADD SWAP5 POP DUP1 DUP5 ADD PUSH1 0x0 JUMPDEST DUP4 DUP2 LT ISZERO PUSH2 0x5780 JUMPI DUP2 MLOAD PUSH1 0x1 PUSH1 0x1 PUSH1 0xA0 SHL SUB AND DUP8 MSTORE SWAP6 DUP3 ADD SWAP6 SWAP1 DUP3 ADD SWAP1 PUSH1 0x1 ADD PUSH2 0x575B JUMP JUMPDEST POP SWAP5 SWAP6 SWAP5 POP POP POP POP POP JUMP JUMPDEST PUSH1 0x40 DUP2 MSTORE PUSH1 0x0 PUSH2 0x579E PUSH1 0x40 DUP4 ADD DUP6 PUSH2 0x5747 JUMP JUMPDEST SWAP1 POP PUSH2 0xFFFF DUP4 AND PUSH1 0x20 DUP4 ADD MSTORE SWAP4 SWAP3 POP POP POP JUMP JUMPDEST PUSH1 0x80 DUP2 MSTORE PUSH1 0x0 PUSH2 0x57C4 PUSH1 0x80 DUP4 ADD DUP8 PUSH2 0x5747 JUMP JUMPDEST DUP6 PUSH1 0x20 DUP5 ADD MSTORE DUP3 DUP2 SUB PUSH1 0x40 DUP5 ADD MSTORE PUSH2 0x57DC DUP2 DUP7 PUSH2 0x5747 JUMP JUMPDEST SWAP2 POP POP DUP3 PUSH1 0x60 DUP4 ADD MSTORE SWAP6 SWAP5 POP POP POP POP POP JUMP JUMPDEST PUSH1 0x0 DUP2 MLOAD DUP1 DUP5 MSTORE PUSH1 0x20 DUP1 DUP6 ADD SWAP5 POP DUP1 DUP5 ADD PUSH1 0x0 JUMPDEST DUP4 DUP2 LT ISZERO PUSH2 0x5780 JUMPI DUP2 MLOAD DUP8 MSTORE SWAP6 DUP3 ADD SWAP6 SWAP1 DUP3 ADD SWAP1 PUSH1 0x1 ADD PUSH2 0x5802 JUMP JUMPDEST PUSH1 0x20 DUP2 MSTORE PUSH2 0x5838 PUSH1 0x20 DUP3 ADD DUP4 MLOAD PUSH1 0x1 PUSH1 0x1 PUSH1 0xA0 SHL SUB AND SWAP1 MSTORE JUMP JUMPDEST PUSH1 0x0 PUSH1 0x20 DUP4 ADD MLOAD PUSH2 0x160 DUP1 PUSH1 0x40 DUP6 ADD MSTORE PUSH2 0x5856 PUSH2 0x180 DUP6 ADD DUP4 PUSH2 0x5747 JUMP JUMPDEST SWAP2 POP PUSH1 0x40 DUP6 ADD MLOAD PUSH1 0x1F NOT DUP1 DUP7 DUP6 SUB ADD PUSH1 0x60 DUP8 ADD MSTORE PUSH2 0x5874 DUP5 DUP4 PUSH2 0x5747 JUMP JUMPDEST SWAP4 POP PUSH1 0x60 DUP8 ADD MLOAD SWAP2 POP DUP1 DUP7 DUP6 SUB ADD PUSH1 0x80 DUP8 ADD MSTORE PUSH2 0x5891 DUP5 DUP4 PUSH2 0x57EE JUMP JUMPDEST SWAP4 POP PUSH1 0x80 DUP8 ADD MLOAD PUSH1 0xA0 DUP8 ADD MSTORE PUSH1 0xA0 DUP8 ADD MLOAD PUSH1 0xC0 DUP8 ADD MSTORE PUSH1 0xC0 DUP8 ADD MLOAD PUSH1 0xE0 DUP8 ADD MSTORE PUSH1 0xE0 DUP8 ADD MLOAD SWAP2 POP PUSH2 0x100 DUP2 DUP8 DUP7 SUB ADD DUP2 DUP9 ADD MSTORE PUSH2 0x58CE DUP6 DUP5 PUSH2 0x57EE JUMP JUMPDEST SWAP5 POP DUP1 DUP9 ADD MLOAD SWAP3 POP POP PUSH2 0x120 DUP2 DUP8 DUP7 SUB ADD DUP2 DUP9 ADD MSTORE PUSH2 0x58ED DUP6 DUP5 PUSH2 0x57EE JUMP JUMPDEST SWAP5 POP DUP1 DUP9 ADD MLOAD SWAP3 POP POP PUSH2 0x140 DUP2 DUP8 DUP7 SUB ADD DUP2 DUP9 ADD MSTORE PUSH2 0x590C DUP6 DUP5 PUSH2 0x57EE JUMP JUMPDEST SWAP5 POP DUP1 DUP9 ADD MLOAD SWAP3 POP POP POP PUSH2 0x5923 DUP3 DUP7 ADD DUP3 ISZERO ISZERO SWAP1 MSTORE JUMP JUMPDEST POP SWAP1 SWAP5 SWAP4 POP POP POP POP JUMP JUMPDEST DUP5 DUP2 MSTORE PUSH1 0x80 PUSH1 0x20 DUP3 ADD MSTORE PUSH1 0x0 PUSH2 0x5946 PUSH1 0x80 DUP4 ADD DUP7 PUSH2 0x57EE JUMP JUMPDEST PUSH1 0x40 DUP4 ADD SWAP5 SWAP1 SWAP5 MSTORE POP PUSH1 0x1 PUSH1 0x1 PUSH1 0xA0 SHL SUB SWAP2 SWAP1 SWAP2 AND PUSH1 0x60 SWAP1 SWAP2 ADD MSTORE SWAP3 SWAP2 POP POP JUMP JUMPDEST PUSH1 0x0 PUSH1 0x20 DUP3 DUP5 SUB SLT ISZERO PUSH2 0x5979 JUMPI PUSH1 0x0 DUP1 REVERT JUMPDEST DUP2 MLOAD DUP1 ISZERO ISZERO DUP2 EQ PUSH2 0x141A JUMPI PUSH1 0x0 DUP1 REVERT JUMPDEST PUSH1 0x0 PUSH1 0x20 DUP3 DUP5 SUB SLT ISZERO PUSH2 0x599B JUMPI PUSH1 0x0 DUP1 REVERT JUMPDEST DUP2 MLOAD PUSH2 0x141A DUP2 PUSH2 0x5027 JUMP JUMPDEST PUSH4 0x4E487B71 PUSH1 0xE0 SHL PUSH1 0x0 MSTORE PUSH1 0x32 PUSH1 0x4 MSTORE PUSH1 0x24 PUSH1 0x0 REVERT JUMPDEST PUSH4 0x4E487B71 PUSH1 0xE0 SHL PUSH1 0x0 MSTORE PUSH1 0x11 PUSH1 0x4 MSTORE PUSH1 0x24 PUSH1 0x0 REVERT JUMPDEST DUP1 DUP3 ADD DUP1 DUP3 GT ISZERO PUSH2 0x94E JUMPI PUSH2 0x94E PUSH2 0x59BC JUMP JUMPDEST PUSH1 0x0 PUSH1 0x1 DUP3 ADD PUSH2 0x59F7 JUMPI PUSH2 0x59F7 PUSH2 0x59BC JUMP JUMPDEST POP PUSH1 0x1 ADD SWAP1 JUMP JUMPDEST PUSH1 0x20 DUP1 DUP3 MSTORE PUSH1 0x11 SWAP1 DUP3 ADD MSTORE PUSH17 0x2CB7BA9030B932903737BA1030B236B4B7 PUSH1 0x79 SHL PUSH1 0x40 DUP3 ADD MSTORE PUSH1 0x60 ADD SWAP1 JUMP JUMPDEST PUSH1 0x1 DUP2 DUP2 SHR SWAP1 DUP3 AND DUP1 PUSH2 0x5A3D JUMPI PUSH1 0x7F DUP3 AND SWAP2 POP JUMPDEST PUSH1 0x20 DUP3 LT DUP2 SUB PUSH2 0x4202 JUMPI PUSH4 0x4E487B71 PUSH1 0xE0 SHL PUSH1 0x0 MSTORE PUSH1 0x22 PUSH1 0x4 MSTORE PUSH1 0x24 PUSH1 0x0 REVERT JUMPDEST PUSH1 0x1F DUP3 GT ISZERO PUSH2 0x1738 JUMPI PUSH1 0x0 DUP2 DUP2 MSTORE PUSH1 0x20 DUP2 KECCAK256 PUSH1 0x1F DUP6 ADD PUSH1 0x5 SHR DUP2 ADD PUSH1 0x20 DUP7 LT ISZERO PUSH2 0x5A84 JUMPI POP DUP1 JUMPDEST PUSH1 0x1F DUP6 ADD PUSH1 0x5 SHR DUP3 ADD SWAP2 POP JUMPDEST DUP2 DUP2 LT ISZERO PUSH2 0x5AA3 JUMPI DUP3 DUP2 SSTORE PUSH1 0x1 ADD PUSH2 0x5A90 JUMP JUMPDEST POP POP POP POP POP POP JUMP JUMPDEST DUP2 MLOAD PUSH8 0xFFFFFFFFFFFFFFFF DUP2 GT ISZERO PUSH2 0x5AC5 JUMPI PUSH2 0x5AC5 PUSH2 0x5109 JUMP JUMPDEST PUSH2 0x5AD9 DUP2 PUSH2 0x5AD3 DUP5 SLOAD PUSH2 0x5A29 JUMP JUMPDEST DUP5 PUSH2 0x5A5D JUMP JUMPDEST PUSH1 0x20 DUP1 PUSH1 0x1F DUP4 GT PUSH1 0x1 DUP2 EQ PUSH2 0x5B0E JUMPI PUSH1 0x0 DUP5 ISZERO PUSH2 0x5AF6 JUMPI POP DUP6 DUP4 ADD MLOAD JUMPDEST PUSH1 0x0 NOT PUSH1 0x3 DUP7 SWAP1 SHL SHR NOT AND PUSH1 0x1 DUP6 SWAP1 SHL OR DUP6 SSTORE PUSH2 0x5AA3 JUMP JUMPDEST PUSH1 0x0 DUP6 DUP2 MSTORE PUSH1 0x20 DUP2 KECCAK256 PUSH1 0x1F NOT DUP7 AND SWAP2 JUMPDEST DUP3 DUP2 LT ISZERO PUSH2 0x5B3D JUMPI DUP9 DUP7 ADD MLOAD DUP3 SSTORE SWAP5 DUP5 ADD SWAP5 PUSH1 0x1 SWAP1 SWAP2 ADD SWAP1 DUP5 ADD PUSH2 0x5B1E JUMP JUMPDEST POP DUP6 DUP3 LT ISZERO PUSH2 0x5B5B JUMPI DUP8 DUP6 ADD MLOAD PUSH1 0x0 NOT PUSH1 0x3 DUP9 SWAP1 SHL PUSH1 0xF8 AND SHR NOT AND DUP2 SSTORE JUMPDEST POP POP POP POP POP PUSH1 0x1 SWAP1 DUP2 SHL ADD SWAP1 SSTORE POP JUMP JUMPDEST PUSH1 0x20 DUP1 DUP3 MSTORE PUSH1 0x2C SWAP1 DUP3 ADD MSTORE PUSH32 0x46756E6374696F6E206D7573742062652063616C6C6564207468726F75676820 PUSH1 0x40 DUP3 ADD MSTORE PUSH12 0x19195B1959D85D1958D85B1B PUSH1 0xA2 SHL PUSH1 0x60 DUP3 ADD MSTORE PUSH1 0x80 ADD SWAP1 JUMP JUMPDEST PUSH1 0x20 DUP1 DUP3 MSTORE PUSH1 0x2C SWAP1 DUP3 ADD MSTORE PUSH32 0x46756E6374696F6E206D7573742062652063616C6C6564207468726F75676820 PUSH1 0x40 DUP3 ADD MSTORE PUSH12 0x6163746976652070726F7879 PUSH1 0xA0 SHL PUSH1 0x60 DUP3 ADD MSTORE PUSH1 0x80 ADD SWAP1 JUMP JUMPDEST PUSH4 0x4E487B71 PUSH1 0xE0 SHL PUSH1 0x0 MSTORE PUSH1 0x12 PUSH1 0x4 MSTORE PUSH1 0x24 PUSH1 0x0 REVERT JUMPDEST PUSH1 0x0 DUP3 PUSH2 0x5C28 JUMPI PUSH2 0x5C28 PUSH2 0x5C03 JUMP JUMPDEST POP DIV SWAP1 JUMP JUMPDEST PUSH1 0x0 PUSH1 0xFF DUP3 AND PUSH1 0xFF DUP2 SUB PUSH2 0x5C43 JUMPI PUSH2 0x5C43 PUSH2 0x59BC JUMP JUMPDEST PUSH1 0x1 ADD SWAP3 SWAP2 POP POP JUMP JUMPDEST PUSH1 0x0 PUSH2 0xFFFF DUP1 DUP4 AND DUP2 DUP2 SUB PUSH2 0x5C63 JUMPI PUSH2 0x5C63 PUSH2 0x59BC JUMP JUMPDEST PUSH1 0x1 ADD SWAP4 SWAP3 POP POP POP JUMP JUMPDEST DUP2 DUP2 SUB DUP2 DUP2 GT ISZERO PUSH2 0x94E JUMPI PUSH2 0x94E PUSH2 0x59BC JUMP JUMPDEST DUP1 DUP3 MUL DUP2 ISZERO DUP3 DUP3 DIV DUP5 EQ OR PUSH2 0x94E JUMPI PUSH2 0x94E PUSH2 0x59BC JUMP JUMPDEST PUSH1 0x0 DUP3 PUSH2 0x5CA6 JUMPI PUSH2 0x5CA6 PUSH2 0x5C03 JUMP JUMPDEST POP MOD SWAP1 JUMP JUMPDEST PUSH2 0xFFFF DUP2 DUP2 AND DUP4 DUP3 AND ADD SWAP1 DUP1 DUP3 GT ISZERO PUSH2 0x5CC6 JUMPI PUSH2 0x5CC6 PUSH2 0x59BC JUMP JUMPDEST POP SWAP3 SWAP2 POP POP JUMP JUMPDEST PUSH1 0x0 PUSH1 0x20 DUP3 DUP5 SUB SLT ISZERO PUSH2 0x5CDF JUMPI PUSH1 0x0 DUP1 REVERT JUMPDEST POP MLOAD SWAP2 SWAP1 POP JUMP JUMPDEST PUSH1 0x20 DUP1 DUP3 MSTORE PUSH1 0x2B SWAP1 DUP3 ADD MSTORE PUSH32 0x496E697469616C697A61626C653A20636F6E7472616374206973206E6F742069 PUSH1 0x40 DUP3 ADD MSTORE PUSH11 0x6E697469616C697A696E67 PUSH1 0xA8 SHL PUSH1 0x60 DUP3 ADD MSTORE PUSH1 0x80 ADD SWAP1 JUMP JUMPDEST PUSH2 0xFFFF DUP3 DUP2 AND DUP3 DUP3 AND SUB SWAP1 DUP1 DUP3 GT ISZERO PUSH2 0x5CC6 JUMPI PUSH2 0x5CC6 PUSH2 0x59BC JUMP JUMPDEST PUSH1 0x1 DUP2 DUP2 JUMPDEST DUP1 DUP6 GT ISZERO PUSH2 0x5D87 JUMPI DUP2 PUSH1 0x0 NOT DIV DUP3 GT ISZERO PUSH2 0x5D6D JUMPI PUSH2 0x5D6D PUSH2 0x59BC JUMP JUMPDEST DUP1 DUP6 AND ISZERO PUSH2 0x5D7A JUMPI SWAP2 DUP2 MUL SWAP2 JUMPDEST SWAP4 DUP5 SHR SWAP4 SWAP1 DUP1 MUL SWAP1 PUSH2 0x5D51 JUMP JUMPDEST POP SWAP3 POP SWAP3 SWAP1 POP JUMP JUMPDEST PUSH1 0x0 DUP3 PUSH2 0x5D9E JUMPI POP PUSH1 0x1 PUSH2 0x94E JUMP JUMPDEST DUP2 PUSH2 0x5DAB JUMPI POP PUSH1 0x0 PUSH2 0x94E JUMP JUMPDEST DUP2 PUSH1 0x1 DUP2 EQ PUSH2 0x5DC1 JUMPI PUSH1 0x2 DUP2 EQ PUSH2 0x5DCB JUMPI PUSH2 0x5DE7 JUMP JUMPDEST PUSH1 0x1 SWAP2 POP POP PUSH2 0x94E JUMP JUMPDEST PUSH1 0xFF DUP5 GT ISZERO PUSH2 0x5DDC JUMPI PUSH2 0x5DDC PUSH2 0x59BC JUMP JUMPDEST POP POP PUSH1 0x1 DUP3 SHL PUSH2 0x94E JUMP JUMPDEST POP PUSH1 0x20 DUP4 LT PUSH2 0x133 DUP4 LT AND PUSH1 0x4E DUP5 LT PUSH1 0xB DUP5 LT AND OR ISZERO PUSH2 0x5E0A JUMPI POP DUP2 DUP2 EXP PUSH2 0x94E JUMP JUMPDEST PUSH2 0x5E14 DUP4 DUP4 PUSH2 0x5D4C JUMP JUMPDEST DUP1 PUSH1 0x0 NOT DIV DUP3 GT ISZERO PUSH2 0x5E28 JUMPI PUSH2 0x5E28 PUSH2 0x59BC JUMP JUMPDEST MUL SWAP4 SWAP3 POP POP POP JUMP JUMPDEST PUSH1 0x0 PUSH2 0x141A DUP4 DUP4 PUSH2 0x5D8F JUMP JUMPDEST PUSH1 0x0 DUP3 MLOAD PUSH2 0x5E4E DUP2 DUP5 PUSH1 0x20 DUP8 ADD PUSH2 0x565F JUMP JUMPDEST SWAP2 SWAP1 SWAP2 ADD SWAP3 SWAP2 POP POP JUMP JUMPDEST PUSH1 0x20 DUP2 MSTORE PUSH1 0x0 PUSH2 0x141A PUSH1 0x20 DUP4 ADD DUP5 PUSH2 0x5683 JUMP INVALID CALLDATASIZE ADDMOD SWAP5 LOG1 EXTCODESIZE LOG1 LOG3 0x21 MOD PUSH8 0xC828492DB98DCA3E KECCAK256 PUSH23 0xCC3735A920A3CA505D382BBC416464726573733A206C6F PUSH24 0x2D6C6576656C2064656C65676174652063616C6C20666169 PUSH13 0x6564A2646970667358221220CF RETURN DIV SWAP9 PUSH20 0x1929FF4340E421F3905DA95E9FF1F6F0FAE8EC78 0xA9 SWAP8 STOP MLOAD SLT 0x2B 0xBB PUSH5 0x736F6C6343 STOP ADDMOD GT STOP CALLER "},"methodIdentifiers":{"addressToId(address)":"cb0e0d7d","contractDefaults()":"fb5d4526","getGlobalRefereeLimit()":"71e13ead","getRewardQualifiedUsers(uint8,uint16,uint16)":"dd1ca716","getSelfIncomePoolRefereeLimit()":"0a783ea5","getTeamBusinessToQualifyRewards(address)":"a0760aff","getUserAccount(address)":"fb47e016","getUserReferrerAddress(address)":"43b4ebf4","getUserRewardAccount(address)":"86f6630d","getUserRewardQualified(address)":"e5ffb5df","getUserTeam(address)":"faeda7e5","getUserTopUpForRewards(address)":"25f1c91e","getUserTotalBusiness(address)":"2405091c","getUserTotalRewardPaid(address)":"ef519dc0","getVariablesContract()":"f13a143f","hasReferrer(address)":"18452cd8","idToAddress(uint16)":"025313ff","includeUsersInList(address[])":"8a93f7b9","initialize()":"8129fc1c","is20LevelsBusinessUpdated(address)":"019f157a","owner()":"8da5cb5b","paused()":"5c975abb","payReferralANUSDAdmin(uint256,address,address)":"228159b4","proxiableUUID()":"52d1902d","renounceOwnership()":"715018a6","resetSelfTeamBusiness(address)":"348a7e94","rewardAccount(address)":"2bb5112d","rewards(uint8)":"9b317cc4","setGlobalPushCondition(uint256,uint256)":"91b493e4","setRewards(uint8[],uint256[],uint256[],uint256[],string[],string[],uint256[])":"35166fef","setUserTotalBusiness(address,uint256)":"ccef5587","totalUsers()":"bff1f9e1","transferNative(address,uint256)":"7d2e90c2","transferOwnership(address)":"f2fde38b","updateIfRewardPaidAdmin(address,uint8)":"771aa216","updateUplineTeamLevels20(address)":"89db4eb0","upgradeTo(address)":"3659cfe6","upgradeToAndCall(address,bytes)":"4f1ef286","usersList(uint256)":"502aa3b5","withdrawtokens(address,address,uint256)":"0898adc7"}},"storageLayout":{"storage":[{"astId":527,"contract":"contracts/ReferralUpgradeable.sol:ReferralUpgradeable","label":"_initialized","offset":0,"slot":"0","type":"t_uint8"},{"astId":530,"contract":"contracts/ReferralUpgradeable.sol:ReferralUpgradeable","label":"_initializing","offset":1,"slot":"0","type":"t_bool"},{"astId":1355,"contract":"contracts/ReferralUpgradeable.sol:ReferralUpgradeable","label":"__gap","offset":0,"slot":"1","type":"t_array(t_uint256)50_storage"},{"astId":846,"contract":"contracts/ReferralUpgradeable.sol:ReferralUpgradeable","label":"_paused","offset":0,"slot":"51","type":"t_bool"},{"astId":951,"contract":"contracts/ReferralUpgradeable.sol:ReferralUpgradeable","label":"__gap","offset":0,"slot":"52","type":"t_array(t_uint256)49_storage"},{"astId":10,"contract":"contracts/ReferralUpgradeable.sol:ReferralUpgradeable","label":"_owner","offset":0,"slot":"101","type":"t_address"},{"astId":130,"contract":"contracts/ReferralUpgradeable.sol:ReferralUpgradeable","label":"__gap","offset":0,"slot":"102","type":"t_array(t_uint256)49_storage"},{"astId":509,"contract":"contracts/ReferralUpgradeable.sol:ReferralUpgradeable","label":"__gap","offset":0,"slot":"151","type":"t_array(t_uint256)50_storage"},{"astId":824,"contract":"contracts/ReferralUpgradeable.sol:ReferralUpgradeable","label":"__gap","offset":0,"slot":"201","type":"t_array(t_uint256)50_storage"},{"astId":1856,"contract":"contracts/ReferralUpgradeable.sol:ReferralUpgradeable","label":"_variablesContract","offset":0,"slot":"251","type":"t_address"},{"astId":1859,"contract":"contracts/ReferralUpgradeable.sol:ReferralUpgradeable","label":"_levelRates","offset":0,"slot":"252","type":"t_array(t_uint256)dyn_storage"},{"astId":1861,"contract":"contracts/ReferralUpgradeable.sol:ReferralUpgradeable","label":"_levelDecimals","offset":0,"slot":"253","type":"t_uint256"},{"astId":1864,"contract":"contracts/ReferralUpgradeable.sol:ReferralUpgradeable","label":"userRankBusinessLimit","offset":0,"slot":"254","type":"t_array(t_uint256)dyn_storage"},{"astId":1866,"contract":"contracts/ReferralUpgradeable.sol:ReferralUpgradeable","label":"_totalReferralPaidANUSD","offset":0,"slot":"255","type":"t_uint256"},{"astId":1868,"contract":"contracts/ReferralUpgradeable.sol:ReferralUpgradeable","label":"_defaultReferrer","offset":0,"slot":"256","type":"t_address"},{"astId":1870,"contract":"contracts/ReferralUpgradeable.sol:ReferralUpgradeable","label":"_globalRewardRate","offset":0,"slot":"257","type":"t_uint256"},{"astId":1873,"contract":"contracts/ReferralUpgradeable.sol:ReferralUpgradeable","label":"_globalAddress","offset":0,"slot":"258","type":"t_array(t_address)dyn_storage"},{"astId":1875,"contract":"contracts/ReferralUpgradeable.sol:ReferralUpgradeable","label":"_globalBusinessValue","offset":0,"slot":"259","type":"t_uint256"},{"astId":1877,"contract":"contracts/ReferralUpgradeable.sol:ReferralUpgradeable","label":"_passiveIncomeRate","offset":0,"slot":"260","type":"t_uint256"},{"astId":1879,"contract":"contracts/ReferralUpgradeable.sol:ReferralUpgradeable","label":"_passiveBusinessValue","offset":0,"slot":"261","type":"t_uint256"},{"astId":1881,"contract":"contracts/ReferralUpgradeable.sol:ReferralUpgradeable","label":"_passiveIncomeLevels","offset":0,"slot":"262","type":"t_uint256"},{"astId":1884,"contract":"contracts/ReferralUpgradeable.sol:ReferralUpgradeable","label":"_coreMembers","offset":0,"slot":"263","type":"t_array(t_address)dyn_storage"},{"astId":1886,"contract":"contracts/ReferralUpgradeable.sol:ReferralUpgradeable","label":"_coreRewardRate","offset":0,"slot":"264","type":"t_uint256"},{"astId":1943,"contract":"contracts/ReferralUpgradeable.sol:ReferralUpgradeable","label":"accounts","offset":0,"slot":"265","type":"t_mapping(t_address,t_struct(Account)1915_storage)"},{"astId":1948,"contract":"contracts/ReferralUpgradeable.sol:ReferralUpgradeable","label":"rewardAccount","offset":0,"slot":"266","type":"t_mapping(t_address,t_struct(RewardsAccount)1923_storage)"},{"astId":1953,"contract":"contracts/ReferralUpgradeable.sol:ReferralUpgradeable","label":"rewards","offset":0,"slot":"267","type":"t_mapping(t_uint8,t_struct(Rewards)1938_storage)"},{"astId":1957,"contract":"contracts/ReferralUpgradeable.sol:ReferralUpgradeable","label":"idToAddress","offset":0,"slot":"268","type":"t_mapping(t_uint16,t_address)"},{"astId":1961,"contract":"contracts/ReferralUpgradeable.sol:ReferralUpgradeable","label":"addressToId","offset":0,"slot":"269","type":"t_mapping(t_address,t_uint16)"},{"astId":1964,"contract":"contracts/ReferralUpgradeable.sol:ReferralUpgradeable","label":"usersList","offset":0,"slot":"270","type":"t_array(t_address)dyn_storage"},{"astId":1966,"contract":"contracts/ReferralUpgradeable.sol:ReferralUpgradeable","label":"totalUsers","offset":0,"slot":"271","type":"t_uint16"},{"astId":2064,"contract":"contracts/ReferralUpgradeable.sol:ReferralUpgradeable","label":"_globalRefereeLimit","offset":2,"slot":"271","type":"t_uint8"},{"astId":2066,"contract":"contracts/ReferralUpgradeable.sol:ReferralUpgradeable","label":"_selfIncomePoolRefereeLimit","offset":3,"slot":"271","type":"t_uint8"},{"astId":2068,"contract":"contracts/ReferralUpgradeable.sol:ReferralUpgradeable","label":"_globalTeamBusinessValue","offset":0,"slot":"272","type":"t_uint256"},{"astId":2072,"contract":"contracts/ReferralUpgradeable.sol:ReferralUpgradeable","label":"_is20LevelsUpdated","offset":0,"slot":"273","type":"t_mapping(t_address,t_bool)"}],"types":{"t_address":{"encoding":"inplace","label":"address","numberOfBytes":"20"},"t_array(t_address)dyn_storage":{"base":"t_address","encoding":"dynamic_array","label":"address[]","numberOfBytes":"32"},"t_array(t_uint256)49_storage":{"base":"t_uint256","encoding":"inplace","label":"uint256[49]","numberOfBytes":"1568"},"t_array(t_uint256)50_storage":{"base":"t_uint256","encoding":"inplace","label":"uint256[50]","numberOfBytes":"1600"},"t_array(t_uint256)dyn_storage":{"base":"t_uint256","encoding":"dynamic_array","label":"uint256[]","numberOfBytes":"32"},"t_array(t_uint8)dyn_storage":{"base":"t_uint8","encoding":"dynamic_array","label":"uint8[]","numberOfBytes":"32"},"t_bool":{"encoding":"inplace","label":"bool","numberOfBytes":"1"},"t_mapping(t_address,t_bool)":{"encoding":"mapping","key":"t_address","label":"mapping(address => bool)","numberOfBytes":"32","value":"t_bool"},"t_mapping(t_address,t_struct(Account)1915_storage)":{"encoding":"mapping","key":"t_address","label":"mapping(address => struct ReferralUpgradeable.Account)","numberOfBytes":"32","value":"t_struct(Account)1915_storage"},"t_mapping(t_address,t_struct(RewardsAccount)1923_storage)":{"encoding":"mapping","key":"t_address","label":"mapping(address => struct ReferralUpgradeable.RewardsAccount)","numberOfBytes":"32","value":"t_struct(RewardsAccount)1923_storage"},"t_mapping(t_address,t_uint16)":{"encoding":"mapping","key":"t_address","label":"mapping(address => uint16)","numberOfBytes":"32","value":"t_uint16"},"t_mapping(t_uint16,t_address)":{"encoding":"mapping","key":"t_uint16","label":"mapping(uint16 => address)","numberOfBytes":"32","value":"t_address"},"t_mapping(t_uint8,t_struct(Rewards)1938_storage)":{"encoding":"mapping","key":"t_uint8","label":"mapping(uint8 => struct ReferralUpgradeable.Rewards)","numberOfBytes":"32","value":"t_struct(Rewards)1938_storage"},"t_string_storage":{"encoding":"bytes","label":"string","numberOfBytes":"32"},"t_struct(Account)1915_storage":{"encoding":"inplace","label":"struct ReferralUpgradeable.Account","members":[{"astId":1888,"contract":"contracts/ReferralUpgradeable.sol:ReferralUpgradeable","label":"referrer","offset":0,"slot":"0","type":"t_address"},{"astId":1891,"contract":"contracts/ReferralUpgradeable.sol:ReferralUpgradeable","label":"referee","offset":0,"slot":"1","type":"t_array(t_address)dyn_storage"},{"astId":1894,"contract":"contracts/ReferralUpgradeable.sol:ReferralUpgradeable","label":"team","offset":0,"slot":"2","type":"t_array(t_address)dyn_storage"},{"astId":1897,"contract":"contracts/ReferralUpgradeable.sol:ReferralUpgradeable","label":"topUp","offset":0,"slot":"3","type":"t_array(t_uint256)dyn_storage"},{"astId":1899,"contract":"contracts/ReferralUpgradeable.sol:ReferralUpgradeable","label":"selfBusiness","offset":0,"slot":"4","type":"t_uint256"},{"astId":1901,"contract":"contracts/ReferralUpgradeable.sol:ReferralUpgradeable","label":"directBusiness","offset":0,"slot":"5","type":"t_uint256"},{"astId":1903,"contract":"contracts/ReferralUpgradeable.sol:ReferralUpgradeable","label":"totalBusiness","offset":0,"slot":"6","type":"t_uint256"},{"astId":1906,"contract":"contracts/ReferralUpgradeable.sol:ReferralUpgradeable","label":"rewardsPaidReferral","offset":0,"slot":"7","type":"t_array(t_uint256)dyn_storage"},{"astId":1909,"contract":"contracts/ReferralUpgradeable.sol:ReferralUpgradeable","label":"rewardsPaidGlobal","offset":0,"slot":"8","type":"t_array(t_uint256)dyn_storage"},{"astId":1912,"contract":"contracts/ReferralUpgradeable.sol:ReferralUpgradeable","label":"rewardPaidPassive","offset":0,"slot":"9","type":"t_array(t_uint256)dyn_storage"},{"astId":1914,"contract":"contracts/ReferralUpgradeable.sol:ReferralUpgradeable","label":"isInGlobalID","offset":0,"slot":"10","type":"t_bool"}],"numberOfBytes":"352"},"t_struct(Rewards)1938_storage":{"encoding":"inplace","label":"struct ReferralUpgradeable.Rewards","members":[{"astId":1925,"contract":"contracts/ReferralUpgradeable.sol:ReferralUpgradeable","label":"id","offset":0,"slot":"0","type":"t_uint8"},{"astId":1927,"contract":"contracts/ReferralUpgradeable.sol:ReferralUpgradeable","label":"selfBusinessLimit","offset":0,"slot":"1","type":"t_uint256"},{"astId":1929,"contract":"contracts/ReferralUpgradeable.sol:ReferralUpgradeable","label":"directBusinessLimit","offset":0,"slot":"2","type":"t_uint256"},{"astId":1931,"contract":"contracts/ReferralUpgradeable.sol:ReferralUpgradeable","label":"teamBusinessLimit","offset":0,"slot":"3","type":"t_uint256"},{"astId":1933,"contract":"contracts/ReferralUpgradeable.sol:ReferralUpgradeable","label":"rankName","offset":0,"slot":"4","type":"t_string_storage"},{"astId":1935,"contract":"contracts/ReferralUpgradeable.sol:ReferralUpgradeable","label":"rewardName","offset":0,"slot":"5","type":"t_string_storage"},{"astId":1937,"contract":"contracts/ReferralUpgradeable.sol:ReferralUpgradeable","label":"appraisal","offset":0,"slot":"6","type":"t_uint256"}],"numberOfBytes":"224"},"t_struct(RewardsAccount)1923_storage":{"encoding":"inplace","label":"struct ReferralUpgradeable.RewardsAccount","members":[{"astId":1917,"contract":"contracts/ReferralUpgradeable.sol:ReferralUpgradeable","label":"userAdddress","offset":0,"slot":"0","type":"t_address"},{"astId":1920,"contract":"contracts/ReferralUpgradeable.sol:ReferralUpgradeable","label":"rewardId","offset":0,"slot":"1","type":"t_array(t_uint8)dyn_storage"},{"astId":1922,"contract":"contracts/ReferralUpgradeable.sol:ReferralUpgradeable","label":"lastRewardId","offset":0,"slot":"2","type":"t_uint8"}],"numberOfBytes":"96"},"t_uint16":{"encoding":"inplace","label":"uint16","numberOfBytes":"2"},"t_uint256":{"encoding":"inplace","label":"uint256","numberOfBytes":"32"},"t_uint8":{"encoding":"inplace","label":"uint8","numberOfBytes":"1"}}}}}}