{"contracts/PresaleUpgradeable.sol":{"PresaleUpgradeable":{"abi":[{"anonymous":false,"inputs":[{"indexed":false,"internalType":"address","name":"previousAdmin","type":"address"},{"indexed":false,"internalType":"address","name":"newAdmin","type":"address"}],"name":"AdminChanged","type":"event"},{"anonymous":false,"inputs":[{"indexed":true,"internalType":"address","name":"beacon","type":"address"}],"name":"BeaconUpgraded","type":"event"},{"anonymous":false,"inputs":[{"indexed":false,"internalType":"uint8","name":"version","type":"uint8"}],"name":"Initialized","type":"event"},{"anonymous":false,"inputs":[{"indexed":true,"internalType":"address","name":"previousOwner","type":"address"},{"indexed":true,"internalType":"address","name":"newOwner","type":"address"}],"name":"OwnershipTransferred","type":"event"},{"anonymous":false,"inputs":[{"indexed":false,"internalType":"address","name":"account","type":"address"}],"name":"Paused","type":"event"},{"anonymous":false,"inputs":[{"indexed":false,"internalType":"uint256","name":"amount","type":"uint256"}],"name":"RegistrationFees","type":"event"},{"anonymous":false,"inputs":[{"indexed":true,"internalType":"address","name":"to","type":"address"},{"indexed":true,"internalType":"uint256","name":"tokenValue","type":"uint256"},{"indexed":true,"internalType":"address","name":"rewardTokenContract","type":"address"}],"name":"RewardTokenDistributed","type":"event"},{"anonymous":false,"inputs":[{"indexed":true,"internalType":"address","name":"from","type":"address"},{"indexed":true,"internalType":"uint256","name":"tokenValue","type":"uint256"},{"indexed":true,"internalType":"uint256","name":"ethValue","type":"uint256"},{"indexed":false,"internalType":"string","name":"currency","type":"string"}],"name":"TokenPurchased","type":"event"},{"anonymous":false,"inputs":[{"indexed":false,"internalType":"address","name":"account","type":"address"}],"name":"Unpaused","type":"event"},{"anonymous":false,"inputs":[{"indexed":true,"internalType":"address","name":"implementation","type":"address"}],"name":"Upgraded","type":"event"},{"inputs":[{"internalType":"address","name":"_referrerAddress","type":"address"},{"internalType":"uint256","name":"_valueInWei","type":"uint256"}],"name":"BuyWithANUSD","outputs":[],"stateMutability":"nonpayable","type":"function"},{"inputs":[{"internalType":"address[]","name":"_userAddress","type":"address[]"},{"internalType":"address[]","name":"_referrerAddress","type":"address[]"},{"internalType":"uint256[]","name":"_valueInUSDDecimals","type":"uint256[]"}],"name":"BuyWithANUSDAdmin","outputs":[],"stateMutability":"nonpayable","type":"function"},{"inputs":[{"internalType":"uint256","name":"","type":"uint256"}],"name":"admins","outputs":[{"internalType":"address","name":"","type":"address"}],"stateMutability":"view","type":"function"},{"inputs":[],"name":"getAnalystics","outputs":[{"internalType":"uint256","name":"tokenSold","type":"uint256"},{"internalType":"uint256","name":"ausdRaised","type":"uint256"}],"stateMutability":"view","type":"function"},{"inputs":[],"name":"getCapping","outputs":[{"internalType":"uint256","name":"minConUSD","type":"uint256"},{"internalType":"bool","name":"isBuyStakeEnabled","type":"bool"},{"internalType":"bool","name":"isPayReferralEnabled","type":"bool"},{"internalType":"bool","name":"isPayRewardTokenEnabled","type":"bool"},{"internalType":"uint256","name":"maxBuyLimitANUSD","type":"uint256"}],"stateMutability":"view","type":"function"},{"inputs":[],"name":"getVariablesContract","outputs":[{"internalType":"address","name":"","type":"address"}],"stateMutability":"view","type":"function"},{"inputs":[],"name":"initialize","outputs":[],"stateMutability":"nonpayable","type":"function"},{"inputs":[],"name":"owner","outputs":[{"internalType":"address","name":"","type":"address"}],"stateMutability":"view","type":"function"},{"inputs":[],"name":"pauseAdmin","outputs":[],"stateMutability":"nonpayable","type":"function"},{"inputs":[],"name":"paused","outputs":[{"internalType":"bool","name":"","type":"bool"}],"stateMutability":"view","type":"function"},{"inputs":[],"name":"proxiableUUID","outputs":[{"internalType":"bytes32","name":"","type":"bytes32"}],"stateMutability":"view","type":"function"},{"inputs":[],"name":"renounceOwnership","outputs":[],"stateMutability":"nonpayable","type":"function"},{"inputs":[{"internalType":"uint256","name":"minConUSD","type":"uint256"},{"internalType":"bool","name":"isBuyNStake","type":"bool"},{"internalType":"bool","name":"isPayReferral","type":"bool"},{"internalType":"bool","name":"isPayRewardTokens","type":"bool"},{"internalType":"uint256","name":"maxBuyLimitANUSD","type":"uint256"}],"name":"setCapping","outputs":[],"stateMutability":"nonpayable","type":"function"},{"inputs":[{"internalType":"address","name":"_contractAddress","type":"address"}],"name":"setVariablesContract","outputs":[],"stateMutability":"nonpayable","type":"function"},{"inputs":[{"internalType":"address","name":"_address","type":"address"},{"internalType":"uint256","name":"_value","type":"uint256"}],"name":"transferETH","outputs":[],"stateMutability":"nonpayable","type":"function"},{"inputs":[{"internalType":"address","name":"newOwner","type":"address"}],"name":"transferOwnership","outputs":[],"stateMutability":"nonpayable","type":"function"},{"inputs":[],"name":"unpauseAdmin","outputs":[],"stateMutability":"nonpayable","type":"function"},{"inputs":[{"internalType":"address","name":"newImplementation","type":"address"}],"name":"upgradeTo","outputs":[],"stateMutability":"nonpayable","type":"function"},{"inputs":[{"internalType":"address","name":"newImplementation","type":"address"},{"internalType":"bytes","name":"data","type":"bytes"}],"name":"upgradeToAndCall","outputs":[],"stateMutability":"payable","type":"function"},{"inputs":[],"name":"withdrawETH","outputs":[],"stateMutability":"nonpayable","type":"function"},{"inputs":[{"internalType":"address","name":"_tokenAddress","type":"address"},{"internalType":"uint256","name":"_value","type":"uint256"}],"name":"withdrawTokens","outputs":[],"stateMutability":"nonpayable","type":"function"},{"stateMutability":"payable","type":"receive"}],"evm":{"bytecode":{"linkReferences":{},"object":"60a06040523060805234801561001457600080fd5b506080516123d561004c60003960008181610a3301528181610a7301528181610b1201528181610b520152610be501526123d56000f3fe60806040526004361061012e5760003560e01c80636740090a116100ab578063b9439d201161006f578063b9439d2014610317578063db5184e614610337578063de863da31461034c578063e086e5ec146103a1578063f13a143f146103b6578063f2fde38b146103d457600080fd5b80636740090a1461028f578063715018a6146102af5780637b1a4909146102c45780638129fc1c146102e45780638da5cb5b146102f957600080fd5b80633659cfe6116100f25780633659cfe6146101ee5780634f0371d71461020e5780634f1ef2861461023657806352d1902d146102495780635c975abb1461026c57600080fd5b806306b091f91461013a5780630ba0dba31461015c57806314bfd6d01461017c578063182feeaa146101b95780632f11d653146101d957600080fd5b3661013557005b600080fd5b34801561014657600080fd5b5061015a610155366004611d76565b6103f4565b005b34801561016857600080fd5b5061015a610177366004611da2565b610472565b34801561018857600080fd5b5061019c610197366004611dbf565b61049c565b6040516001600160a01b0390911681526020015b60405180910390f35b3480156101c557600080fd5b5061015a6101d4366004611e24565b6104c7565b3480156101e557600080fd5b5061015a610a17565b3480156101fa57600080fd5b5061015a610209366004611da2565b610a29565b34801561021a57600080fd5b5060fe5460ff54604080519283526020830191909152016101b0565b61015a610244366004611f05565b610b08565b34801561025557600080fd5b5061025e610bd8565b6040519081526020016101b0565b34801561027857600080fd5b5060655460ff1660405190151581526020016101b0565b34801561029b57600080fd5b5061015a6102aa366004611fbb565b610c8b565b3480156102bb57600080fd5b5061015a610cd2565b3480156102d057600080fd5b5061015a6102df366004611d76565b610ce4565b3480156102f057600080fd5b5061015a610d22565b34801561030557600080fd5b506033546001600160a01b031661019c565b34801561032357600080fd5b5061015a610332366004611d76565b610ea0565b34801561034357600080fd5b5061015a6114b4565b34801561035857600080fd5b5060fd546101008054610101546040805194855260ff8084161515602087015293830484161515908501526201000090910490911615156060830152608082015260a0016101b0565b3480156103ad57600080fd5b5061015a6114c4565b3480156103c257600080fd5b5060fb546001600160a01b031661019c565b3480156103e057600080fd5b5061015a6103ef366004611da2565b6114f8565b6103fc61156e565b60405163a9059cbb60e01b8152336004820152602481018290526001600160a01b0383169063a9059cbb906044016020604051808303816000875af1158015610449573d6000803e3d6000fd5b505050506040513d601f19601f8201168201806040525081019061046d9190612016565b505050565b61047a61156e565b60fb80546001600160a01b0319166001600160a01b0392909216919091179055565b61010281815481106104ad57600080fd5b6000918252602090912001546001600160a01b0316905081565b60fb54604051630935e01b60e21b81523360048201526001600160a01b03909116906324d7806c90602401602060405180830381865afa15801561050f573d6000803e3d6000fd5b505050506040513d601f19601f820116820180604052508101906105339190612016565b6105785760405162461bcd60e51b81526020600482015260116024820152702cb7ba9030b932903737ba1030b236b4b760791b60448201526064015b60405180910390fd5b60fb5485906001600160a01b031660005b82811015610a0c576000826001600160a01b0316634bc92d6c6040518163ffffffff1660e01b8152600401602060405180830381865afa1580156105d1573d6000803e3d6000fd5b505050506040513d601f19601f820116820180604052508101906105f59190612033565b9050600086868481811061060b5761060b61204c565b90506020020135670de0b6b3a76400006106259190612078565b90506000610761856001600160a01b031663b70cc4c16040518163ffffffff1660e01b8152600401602060405180830381865afa15801561066a573d6000803e3d6000fd5b505050506040513d601f19601f8201168201806040525081019061068e919061208f565b61069885856120ac565b876001600160a01b03166355a373d66040518163ffffffff1660e01b8152600401602060405180830381865afa1580156106d6573d6000803e3d6000fd5b505050506040513d601f19601f820116820180604052508101906106fa919061208f565b886001600160a01b0316638290c4a66040518163ffffffff1660e01b8152600401602060405180830381865afa158015610738573d6000803e3d6000fd5b505050506040513d601f19601f8201168201806040525081019061075c919061208f565b6115c8565b6101005490915060ff16156108a757846001600160a01b031663ee99205c6040518163ffffffff1660e01b8152600401602060405180830381865afa1580156107ae573d6000803e3d6000fd5b505050506040513d601f19601f820116820180604052508101906107d2919061208f565b6001600160a01b031663310c9b208d8d878181106107f2576107f261204c565b90506020020160208101906108079190611da2565b8360018151811061081a5761081a61204c565b6020026020010151846000815181106108355761083561204c565b60209081029190910101516040516001600160e01b031960e086901b1681526001600160a01b03909316600484015260248301919091526044820152606401600060405180830381600087803b15801561088e57600080fd5b505af11580156108a2573d6000803e3d6000fd5b505050505b61010080540460ff16156109f657846001600160a01b0316637dad19db6040518163ffffffff1660e01b8152600401602060405180830381865afa1580156108f3573d6000803e3d6000fd5b505050506040513d601f19601f82011682018060405250810190610917919061208f565b6001600160a01b031663228159b4826000815181106109385761093861204c565b60200260200101518e8e888181106109525761095261204c565b90506020020160208101906109679190611da2565b8d8d898181106109795761097961204c565b905060200201602081019061098e9190611da2565b6040516001600160e01b031960e086901b16815260048101939093526001600160a01b039182166024840152166044820152606401600060405180830381600087803b1580156109dd57600080fd5b505af11580156109f1573d6000803e3d6000fd5b505050505b5050508080610a04906120bf565b915050610589565b505050505050505050565b610a1f61156e565b610a2761174b565b565b6001600160a01b037f0000000000000000000000000000000000000000000000000000000000000000163003610a715760405162461bcd60e51b815260040161056f906120d8565b7f00000000000000000000000000000000000000000000000000000000000000006001600160a01b0316610aba600080516020612359833981519152546001600160a01b031690565b6001600160a01b031614610ae05760405162461bcd60e51b815260040161056f90612124565b610ae9816117a5565b60408051600080825260208201909252610b05918391906117ad565b50565b6001600160a01b037f0000000000000000000000000000000000000000000000000000000000000000163003610b505760405162461bcd60e51b815260040161056f906120d8565b7f00000000000000000000000000000000000000000000000000000000000000006001600160a01b0316610b99600080516020612359833981519152546001600160a01b031690565b6001600160a01b031614610bbf5760405162461bcd60e51b815260040161056f90612124565b610bc8826117a5565b610bd4828260016117ad565b5050565b6000306001600160a01b037f00000000000000000000000000000000000000000000000000000000000000001614610c785760405162461bcd60e51b815260206004820152603860248201527f555550535570677261646561626c653a206d757374206e6f742062652063616c60448201527f6c6564207468726f7567682064656c656761746563616c6c0000000000000000606482015260840161056f565b5060008051602061235983398151915290565b610c9361156e565b60fd94909455610100805461ffff191693151561ff0019169390931791151583029190911762ff00001916620100009115159190910217905561010155565b610cda61156e565b610a276000611918565b610cec61156e565b6040516001600160a01b0383169082156108fc029083906000818181858888f1935050505015801561046d573d6000803e3d6000fd5b600054610100900460ff1615808015610d425750600054600160ff909116105b80610d5c5750303b158015610d5c575060005460ff166001145b610dbf5760405162461bcd60e51b815260206004820152602e60248201527f496e697469616c697a61626c653a20636f6e747261637420697320616c72656160448201526d191e481a5b9a5d1a585b1a5e995960921b606482015260840161056f565b6000805460ff191660011790558015610de2576000805461ff0019166101001790555b60fb80546001600160a01b0319167377daafc7411c911b869c71bf70fe36cce507845d17905566038d7ea4c6800060fc556801158e460913d0000060fd55610100805462ffffff1916610101908117909155681ba5abf9e7793800009055610e4861196a565b610e50611999565b610e586119c8565b8015610b05576000805461ff0019169055604051600181527f7f26b83ff96e1f2b6a682f133852f6798a09c465da95921460cefb38474024989060200160405180910390a150565b610ea86119ef565b60fb54604080516312f24b5b60e21b815290516001600160a01b039092169133916000918491634bc92d6c9160048083019260209291908290030181865afa158015610ef8573d6000803e3d6000fd5b505050506040513d601f19601f82011682018060405250810190610f1c9190612033565b60fd549091508490811015610f7f5760405162461bcd60e51b815260206004820152602360248201527f415553442076616c7565206c657373207468656e206d696e206275792076616c6044820152623ab29760e91b606482015260840161056f565b61010154811115610fca5760405162461bcd60e51b815260206004820152601560248201527413585e08189d5e481b1a5b5a5d081c995858da1959605a1b604482015260640161056f565b836001600160a01b031663b70cc4c16040518163ffffffff1660e01b8152600401602060405180830381865afa158015611008573d6000803e3d6000fd5b505050506040513d601f19601f8201168201806040525081019061102c919061208f565b6040516323b872dd60e01b81526001600160a01b0385811660048301523060248301526044820184905291909116906323b872dd906064016020604051808303816000875af1158015611083573d6000803e3d6000fd5b505050506040513d601f19601f820116820180604052508101906110a79190612016565b5060006110eb856001600160a01b031663b70cc4c16040518163ffffffff1660e01b8152600401602060405180830381865afa15801561066a573d6000803e3d6000fd5b6101005490915060ff161561120f57846001600160a01b031663ee99205c6040518163ffffffff1660e01b8152600401602060405180830381865afa158015611138573d6000803e3d6000fd5b505050506040513d601f19601f8201168201806040525081019061115c919061208f565b6001600160a01b031663310c9b20858360018151811061117e5761117e61204c565b6020026020010151846000815181106111995761119961204c565b60209081029190910101516040516001600160e01b031960e086901b1681526001600160a01b03909316600484015260248301919091526044820152606401600060405180830381600087803b1580156111f257600080fd5b505af1158015611206573d6000803e3d6000fd5b50505050611311565b846001600160a01b03166355a373d66040518163ffffffff1660e01b8152600401602060405180830381865afa15801561124d573d6000803e3d6000fd5b505050506040513d601f19601f82011682018060405250810190611271919061208f565b6001600160a01b031663a9059cbb85836001815181106112935761129361204c565b60200260200101516040518363ffffffff1660e01b81526004016112cc9291906001600160a01b03929092168252602082015260400190565b6020604051808303816000875af11580156112eb573d6000803e3d6000fd5b505050506040513d601f19601f8201168201806040525081019061130f9190612016565b505b61010080540460ff161561141757846001600160a01b0316637dad19db6040518163ffffffff1660e01b8152600401602060405180830381865afa15801561135d573d6000803e3d6000fd5b505050506040513d601f19601f82011682018060405250810190611381919061208f565b6001600160a01b031663228159b4826000815181106113a2576113a261204c565b6020026020010151868a6040518463ffffffff1660e01b81526004016113e4939291909283526001600160a01b03918216602084015216604082015260600190565b600060405180830381600087803b1580156113fe57600080fd5b505af1158015611412573d6000803e3d6000fd5b505050505b7f629a485b55f72b3241f1b41ff1864e029996d1cf7d54ef632b907af140f57430856001600160a01b0316634bc92d6c6040518163ffffffff1660e01b8152600401602060405180830381865afa158015611476573d6000803e3d6000fd5b505050506040513d601f19601f8201168201806040525081019061149a9190612033565b60405190815260200160405180910390a150505050505050565b6114bc61156e565b610a27611a35565b6114cc61156e565b60405133904780156108fc02916000818181858888f19350505050158015610b05573d6000803e3d6000fd5b61150061156e565b6001600160a01b0381166115655760405162461bcd60e51b815260206004820152602660248201527f4f776e61626c653a206e6577206f776e657220697320746865207a65726f206160448201526564647265737360d01b606482015260840161056f565b610b0581611918565b6033546001600160a01b03163314610a275760405162461bcd60e51b815260206004820181905260248201527f4f776e61626c653a2063616c6c6572206973206e6f7420746865206f776e6572604482015260640161056f565b6040805160028082526060808301845292600092919060208301908036833701905050905085816000815181106116015761160161204c565b60200260200101906001600160a01b031690816001600160a01b03168152505083816001815181106116355761163561204c565b6001600160a01b03928316602091820292909201015260405163095ea7b360e01b81528482166004820152602481018790529087169063095ea7b3906044016020604051808303816000875af1158015611693573d6000803e3d6000fd5b505050506040513d601f19601f820116820180604052508101906116b79190612016565b5060006001600160a01b0384166338ed173987600185306116d9426064612170565b6040518663ffffffff1660e01b81526004016116f9959493929190612183565b6000604051808303816000875af1158015611718573d6000803e3d6000fd5b505050506040513d6000823e601f3d908101601f1916820160405261174091908101906121f4565b979650505050505050565b6117536119ef565b6065805460ff191660011790557f62e78cea01bee320cd4e420270b5ea74000d11b0c9f74754ebdbfc544b05a2586117883390565b6040516001600160a01b03909116815260200160405180910390a1565b610b0561156e565b7f4910fdfa16fed3260ed0e7147f7cc6da11a60208b5b9406d12a635614ffd91435460ff16156117e05761046d83611a6e565b826001600160a01b03166352d1902d6040518163ffffffff1660e01b8152600401602060405180830381865afa92505050801561183a575060408051601f3d908101601f1916820190925261183791810190612033565b60015b61189d5760405162461bcd60e51b815260206004820152602e60248201527f45524331393637557067726164653a206e657720696d706c656d656e7461746960448201526d6f6e206973206e6f74205555505360901b606482015260840161056f565b600080516020612359833981519152811461190c5760405162461bcd60e51b815260206004820152602960248201527f45524331393637557067726164653a20756e737570706f727465642070726f786044820152681a58589b195555525160ba1b606482015260840161056f565b5061046d838383611b0a565b603380546001600160a01b038381166001600160a01b0319831681179093556040519116919082907f8be0079c531659141344cd1fd0a4f28419497f9722a3daafe3b4186f6b6457e090600090a35050565b600054610100900460ff166119915760405162461bcd60e51b815260040161056f9061229a565b610a27611b35565b600054610100900460ff166119c05760405162461bcd60e51b815260040161056f9061229a565b610a27611b68565b600054610100900460ff16610a275760405162461bcd60e51b815260040161056f9061229a565b60655460ff1615610a275760405162461bcd60e51b815260206004820152601060248201526f14185d5cd8589b194e881c185d5cd95960821b604482015260640161056f565b611a3d611b98565b6065805460ff191690557f5db9ee0a495bf2e6ff9c91a7834c1ba4fdd244a5e8aa4e537bd38aeae4b073aa33611788565b6001600160a01b0381163b611adb5760405162461bcd60e51b815260206004820152602d60248201527f455243313936373a206e657720696d706c656d656e746174696f6e206973206e60448201526c1bdd08184818dbdb9d1c9858dd609a1b606482015260840161056f565b60008051602061235983398151915280546001600160a01b0319166001600160a01b0392909216919091179055565b611b1383611be1565b600082511180611b205750805b1561046d57611b2f8383611c21565b50505050565b600054610100900460ff16611b5c5760405162461bcd60e51b815260040161056f9061229a565b6065805460ff19169055565b600054610100900460ff16611b8f5760405162461bcd60e51b815260040161056f9061229a565b610a2733611918565b60655460ff16610a275760405162461bcd60e51b815260206004820152601460248201527314185d5cd8589b194e881b9bdd081c185d5cd95960621b604482015260640161056f565b611bea81611a6e565b6040516001600160a01b038216907fbc7cd75a20ee27fd9adebab32041f755214dbc6bffa90cc0225b39da2e5c2d3b90600090a250565b60606001600160a01b0383163b611c895760405162461bcd60e51b815260206004820152602660248201527f416464726573733a2064656c65676174652063616c6c20746f206e6f6e2d636f6044820152651b9d1c9858dd60d21b606482015260840161056f565b600080846001600160a01b031684604051611ca49190612309565b600060405180830381855af49150503d8060008114611cdf576040519150601f19603f3d011682016040523d82523d6000602084013e611ce4565b606091505b5091509150611d0c828260405180606001604052806027815260200161237960279139611d17565b925050505b92915050565b60608315611d26575081611d30565b611d308383611d37565b9392505050565b815115611d475781518083602001fd5b8060405162461bcd60e51b815260040161056f9190612325565b6001600160a01b0381168114610b0557600080fd5b60008060408385031215611d8957600080fd5b8235611d9481611d61565b946020939093013593505050565b600060208284031215611db457600080fd5b8135611d3081611d61565b600060208284031215611dd157600080fd5b5035919050565b60008083601f840112611dea57600080fd5b50813567ffffffffffffffff811115611e0257600080fd5b6020830191508360208260051b8501011115611e1d57600080fd5b9250929050565b60008060008060008060608789031215611e3d57600080fd5b863567ffffffffffffffff80821115611e5557600080fd5b611e618a838b01611dd8565b90985096506020890135915080821115611e7a57600080fd5b611e868a838b01611dd8565b90965094506040890135915080821115611e9f57600080fd5b50611eac89828a01611dd8565b979a9699509497509295939492505050565b634e487b7160e01b600052604160045260246000fd5b604051601f8201601f1916810167ffffffffffffffff81118282101715611efd57611efd611ebe565b604052919050565b60008060408385031215611f1857600080fd5b8235611f2381611d61565b915060208381013567ffffffffffffffff80821115611f4157600080fd5b818601915086601f830112611f5557600080fd5b813581811115611f6757611f67611ebe565b611f79601f8201601f19168501611ed4565b91508082528784828501011115611f8f57600080fd5b80848401858401376000848284010152508093505050509250929050565b8015158114610b0557600080fd5b600080600080600060a08688031215611fd357600080fd5b853594506020860135611fe581611fad565b93506040860135611ff581611fad565b9250606086013561200581611fad565b949793965091946080013592915050565b60006020828403121561202857600080fd5b8151611d3081611fad565b60006020828403121561204557600080fd5b5051919050565b634e487b7160e01b600052603260045260246000fd5b634e487b7160e01b600052601160045260246000fd5b8082028115828204841417611d1157611d11612062565b6000602082840312156120a157600080fd5b8151611d3081611d61565b81810381811115611d1157611d11612062565b6000600182016120d1576120d1612062565b5060010190565b6020808252602c908201527f46756e6374696f6e206d7573742062652063616c6c6564207468726f7567682060408201526b19195b1959d85d1958d85b1b60a21b606082015260800190565b6020808252602c908201527f46756e6374696f6e206d7573742062652063616c6c6564207468726f7567682060408201526b6163746976652070726f787960a01b606082015260800190565b80820180821115611d1157611d11612062565b600060a082018783526020878185015260a0604085015281875180845260c086019150828901935060005b818110156121d35784516001600160a01b0316835293830193918301916001016121ae565b50506001600160a01b03969096166060850152505050608001529392505050565b6000602080838503121561220757600080fd5b825167ffffffffffffffff8082111561221f57600080fd5b818501915085601f83011261223357600080fd5b81518181111561224557612245611ebe565b8060051b9150612256848301611ed4565b818152918301840191848101908884111561227057600080fd5b938501935b8385101561228e57845182529385019390850190612275565b98975050505050505050565b6020808252602b908201527f496e697469616c697a61626c653a20636f6e7472616374206973206e6f74206960408201526a6e697469616c697a696e6760a81b606082015260800190565b60005b838110156123005781810151838201526020016122e8565b50506000910152565b6000825161231b8184602087016122e5565b9190910192915050565b60208152600082518060208401526123448160408501602087016122e5565b601f01601f1916919091016040019291505056fe360894a13ba1a3210667c828492db98dca3e2076cc3735a920a3ca505d382bbc416464726573733a206c6f772d6c6576656c2064656c65676174652063616c6c206661696c6564a2646970667358221220773c49da69fba250650faf4a3ad8ac34da98ee1854103e15be6ec2d0e86e388764736f6c63430008110033","opcodes":"PUSH1 0xA0 PUSH1 0x40 MSTORE ADDRESS PUSH1 0x80 MSTORE CALLVALUE DUP1 ISZERO PUSH2 0x14 JUMPI PUSH1 0x0 DUP1 REVERT JUMPDEST POP PUSH1 0x80 MLOAD PUSH2 0x23D5 PUSH2 0x4C PUSH1 0x0 CODECOPY PUSH1 0x0 DUP2 DUP2 PUSH2 0xA33 ADD MSTORE DUP2 DUP2 PUSH2 0xA73 ADD MSTORE DUP2 DUP2 PUSH2 0xB12 ADD MSTORE DUP2 DUP2 PUSH2 0xB52 ADD MSTORE PUSH2 0xBE5 ADD MSTORE PUSH2 0x23D5 PUSH1 0x0 RETURN INVALID PUSH1 0x80 PUSH1 0x40 MSTORE PUSH1 0x4 CALLDATASIZE LT PUSH2 0x12E JUMPI PUSH1 0x0 CALLDATALOAD PUSH1 0xE0 SHR DUP1 PUSH4 0x6740090A GT PUSH2 0xAB JUMPI DUP1 PUSH4 0xB9439D20 GT PUSH2 0x6F JUMPI DUP1 PUSH4 0xB9439D20 EQ PUSH2 0x317 JUMPI DUP1 PUSH4 0xDB5184E6 EQ PUSH2 0x337 JUMPI DUP1 PUSH4 0xDE863DA3 EQ PUSH2 0x34C JUMPI DUP1 PUSH4 0xE086E5EC EQ PUSH2 0x3A1 JUMPI DUP1 PUSH4 0xF13A143F EQ PUSH2 0x3B6 JUMPI DUP1 PUSH4 0xF2FDE38B EQ PUSH2 0x3D4 JUMPI PUSH1 0x0 DUP1 REVERT JUMPDEST DUP1 PUSH4 0x6740090A EQ PUSH2 0x28F JUMPI DUP1 PUSH4 0x715018A6 EQ PUSH2 0x2AF JUMPI DUP1 PUSH4 0x7B1A4909 EQ PUSH2 0x2C4 JUMPI DUP1 PUSH4 0x8129FC1C EQ PUSH2 0x2E4 JUMPI DUP1 PUSH4 0x8DA5CB5B EQ PUSH2 0x2F9 JUMPI PUSH1 0x0 DUP1 REVERT JUMPDEST DUP1 PUSH4 0x3659CFE6 GT PUSH2 0xF2 JUMPI DUP1 PUSH4 0x3659CFE6 EQ PUSH2 0x1EE JUMPI DUP1 PUSH4 0x4F0371D7 EQ PUSH2 0x20E JUMPI DUP1 PUSH4 0x4F1EF286 EQ PUSH2 0x236 JUMPI DUP1 PUSH4 0x52D1902D EQ PUSH2 0x249 JUMPI DUP1 PUSH4 0x5C975ABB EQ PUSH2 0x26C JUMPI PUSH1 0x0 DUP1 REVERT JUMPDEST DUP1 PUSH4 0x6B091F9 EQ PUSH2 0x13A JUMPI DUP1 PUSH4 0xBA0DBA3 EQ PUSH2 0x15C JUMPI DUP1 PUSH4 0x14BFD6D0 EQ PUSH2 0x17C JUMPI DUP1 PUSH4 0x182FEEAA EQ PUSH2 0x1B9 JUMPI DUP1 PUSH4 0x2F11D653 EQ PUSH2 0x1D9 JUMPI PUSH1 0x0 DUP1 REVERT JUMPDEST CALLDATASIZE PUSH2 0x135 JUMPI STOP JUMPDEST PUSH1 0x0 DUP1 REVERT JUMPDEST CALLVALUE DUP1 ISZERO PUSH2 0x146 JUMPI PUSH1 0x0 DUP1 REVERT JUMPDEST POP PUSH2 0x15A PUSH2 0x155 CALLDATASIZE PUSH1 0x4 PUSH2 0x1D76 JUMP JUMPDEST PUSH2 0x3F4 JUMP JUMPDEST STOP JUMPDEST CALLVALUE DUP1 ISZERO PUSH2 0x168 JUMPI PUSH1 0x0 DUP1 REVERT JUMPDEST POP PUSH2 0x15A PUSH2 0x177 CALLDATASIZE PUSH1 0x4 PUSH2 0x1DA2 JUMP JUMPDEST PUSH2 0x472 JUMP JUMPDEST CALLVALUE DUP1 ISZERO PUSH2 0x188 JUMPI PUSH1 0x0 DUP1 REVERT JUMPDEST POP PUSH2 0x19C PUSH2 0x197 CALLDATASIZE PUSH1 0x4 PUSH2 0x1DBF JUMP JUMPDEST PUSH2 0x49C JUMP JUMPDEST PUSH1 0x40 MLOAD PUSH1 0x1 PUSH1 0x1 PUSH1 0xA0 SHL SUB SWAP1 SWAP2 AND DUP2 MSTORE PUSH1 0x20 ADD JUMPDEST PUSH1 0x40 MLOAD DUP1 SWAP2 SUB SWAP1 RETURN JUMPDEST CALLVALUE DUP1 ISZERO PUSH2 0x1C5 JUMPI PUSH1 0x0 DUP1 REVERT JUMPDEST POP PUSH2 0x15A PUSH2 0x1D4 CALLDATASIZE PUSH1 0x4 PUSH2 0x1E24 JUMP JUMPDEST PUSH2 0x4C7 JUMP JUMPDEST CALLVALUE DUP1 ISZERO PUSH2 0x1E5 JUMPI PUSH1 0x0 DUP1 REVERT JUMPDEST POP PUSH2 0x15A PUSH2 0xA17 JUMP JUMPDEST CALLVALUE DUP1 ISZERO PUSH2 0x1FA JUMPI PUSH1 0x0 DUP1 REVERT JUMPDEST POP PUSH2 0x15A PUSH2 0x209 CALLDATASIZE PUSH1 0x4 PUSH2 0x1DA2 JUMP JUMPDEST PUSH2 0xA29 JUMP JUMPDEST CALLVALUE DUP1 ISZERO PUSH2 0x21A JUMPI PUSH1 0x0 DUP1 REVERT JUMPDEST POP PUSH1 0xFE SLOAD PUSH1 0xFF SLOAD PUSH1 0x40 DUP1 MLOAD SWAP3 DUP4 MSTORE PUSH1 0x20 DUP4 ADD SWAP2 SWAP1 SWAP2 MSTORE ADD PUSH2 0x1B0 JUMP JUMPDEST PUSH2 0x15A PUSH2 0x244 CALLDATASIZE PUSH1 0x4 PUSH2 0x1F05 JUMP JUMPDEST PUSH2 0xB08 JUMP JUMPDEST CALLVALUE DUP1 ISZERO PUSH2 0x255 JUMPI PUSH1 0x0 DUP1 REVERT JUMPDEST POP PUSH2 0x25E PUSH2 0xBD8 JUMP JUMPDEST PUSH1 0x40 MLOAD SWAP1 DUP2 MSTORE PUSH1 0x20 ADD PUSH2 0x1B0 JUMP JUMPDEST CALLVALUE DUP1 ISZERO PUSH2 0x278 JUMPI PUSH1 0x0 DUP1 REVERT JUMPDEST POP PUSH1 0x65 SLOAD PUSH1 0xFF AND PUSH1 0x40 MLOAD SWAP1 ISZERO ISZERO DUP2 MSTORE PUSH1 0x20 ADD PUSH2 0x1B0 JUMP JUMPDEST CALLVALUE DUP1 ISZERO PUSH2 0x29B JUMPI PUSH1 0x0 DUP1 REVERT JUMPDEST POP PUSH2 0x15A PUSH2 0x2AA CALLDATASIZE PUSH1 0x4 PUSH2 0x1FBB JUMP JUMPDEST PUSH2 0xC8B JUMP JUMPDEST CALLVALUE DUP1 ISZERO PUSH2 0x2BB JUMPI PUSH1 0x0 DUP1 REVERT JUMPDEST POP PUSH2 0x15A PUSH2 0xCD2 JUMP JUMPDEST CALLVALUE DUP1 ISZERO PUSH2 0x2D0 JUMPI PUSH1 0x0 DUP1 REVERT JUMPDEST POP PUSH2 0x15A PUSH2 0x2DF CALLDATASIZE PUSH1 0x4 PUSH2 0x1D76 JUMP JUMPDEST PUSH2 0xCE4 JUMP JUMPDEST CALLVALUE DUP1 ISZERO PUSH2 0x2F0 JUMPI PUSH1 0x0 DUP1 REVERT JUMPDEST POP PUSH2 0x15A PUSH2 0xD22 JUMP JUMPDEST CALLVALUE DUP1 ISZERO PUSH2 0x305 JUMPI PUSH1 0x0 DUP1 REVERT JUMPDEST POP PUSH1 0x33 SLOAD PUSH1 0x1 PUSH1 0x1 PUSH1 0xA0 SHL SUB AND PUSH2 0x19C JUMP JUMPDEST CALLVALUE DUP1 ISZERO PUSH2 0x323 JUMPI PUSH1 0x0 DUP1 REVERT JUMPDEST POP PUSH2 0x15A PUSH2 0x332 CALLDATASIZE PUSH1 0x4 PUSH2 0x1D76 JUMP JUMPDEST PUSH2 0xEA0 JUMP JUMPDEST CALLVALUE DUP1 ISZERO PUSH2 0x343 JUMPI PUSH1 0x0 DUP1 REVERT JUMPDEST POP PUSH2 0x15A PUSH2 0x14B4 JUMP JUMPDEST CALLVALUE DUP1 ISZERO PUSH2 0x358 JUMPI PUSH1 0x0 DUP1 REVERT JUMPDEST POP PUSH1 0xFD SLOAD PUSH2 0x100 DUP1 SLOAD PUSH2 0x101 SLOAD PUSH1 0x40 DUP1 MLOAD SWAP5 DUP6 MSTORE PUSH1 0xFF DUP1 DUP5 AND ISZERO ISZERO PUSH1 0x20 DUP8 ADD MSTORE SWAP4 DUP4 DIV DUP5 AND ISZERO ISZERO SWAP1 DUP6 ADD MSTORE PUSH3 0x10000 SWAP1 SWAP2 DIV SWAP1 SWAP2 AND ISZERO ISZERO PUSH1 0x60 DUP4 ADD MSTORE PUSH1 0x80 DUP3 ADD MSTORE PUSH1 0xA0 ADD PUSH2 0x1B0 JUMP JUMPDEST CALLVALUE DUP1 ISZERO PUSH2 0x3AD JUMPI PUSH1 0x0 DUP1 REVERT JUMPDEST POP PUSH2 0x15A PUSH2 0x14C4 JUMP JUMPDEST CALLVALUE DUP1 ISZERO PUSH2 0x3C2 JUMPI PUSH1 0x0 DUP1 REVERT JUMPDEST POP PUSH1 0xFB SLOAD PUSH1 0x1 PUSH1 0x1 PUSH1 0xA0 SHL SUB AND PUSH2 0x19C JUMP JUMPDEST CALLVALUE DUP1 ISZERO PUSH2 0x3E0 JUMPI PUSH1 0x0 DUP1 REVERT JUMPDEST POP PUSH2 0x15A PUSH2 0x3EF CALLDATASIZE PUSH1 0x4 PUSH2 0x1DA2 JUMP JUMPDEST PUSH2 0x14F8 JUMP JUMPDEST PUSH2 0x3FC PUSH2 0x156E JUMP JUMPDEST PUSH1 0x40 MLOAD PUSH4 0xA9059CBB PUSH1 0xE0 SHL DUP2 MSTORE CALLER PUSH1 0x4 DUP3 ADD MSTORE PUSH1 0x24 DUP2 ADD DUP3 SWAP1 MSTORE PUSH1 0x1 PUSH1 0x1 PUSH1 0xA0 SHL SUB DUP4 AND SWAP1 PUSH4 0xA9059CBB SWAP1 PUSH1 0x44 ADD PUSH1 0x20 PUSH1 0x40 MLOAD DUP1 DUP4 SUB DUP2 PUSH1 0x0 DUP8 GAS CALL ISZERO DUP1 ISZERO PUSH2 0x449 JUMPI RETURNDATASIZE PUSH1 0x0 DUP1 RETURNDATACOPY RETURNDATASIZE PUSH1 0x0 REVERT JUMPDEST POP POP POP POP PUSH1 0x40 MLOAD RETURNDATASIZE PUSH1 0x1F NOT PUSH1 0x1F DUP3 ADD AND DUP3 ADD DUP1 PUSH1 0x40 MSTORE POP DUP2 ADD SWAP1 PUSH2 0x46D SWAP2 SWAP1 PUSH2 0x2016 JUMP JUMPDEST POP POP POP JUMP JUMPDEST PUSH2 0x47A PUSH2 0x156E JUMP JUMPDEST PUSH1 0xFB DUP1 SLOAD PUSH1 0x1 PUSH1 0x1 PUSH1 0xA0 SHL SUB NOT AND PUSH1 0x1 PUSH1 0x1 PUSH1 0xA0 SHL SUB SWAP3 SWAP1 SWAP3 AND SWAP2 SWAP1 SWAP2 OR SWAP1 SSTORE JUMP JUMPDEST PUSH2 0x102 DUP2 DUP2 SLOAD DUP2 LT PUSH2 0x4AD JUMPI PUSH1 0x0 DUP1 REVERT JUMPDEST PUSH1 0x0 SWAP2 DUP3 MSTORE PUSH1 0x20 SWAP1 SWAP2 KECCAK256 ADD SLOAD PUSH1 0x1 PUSH1 0x1 PUSH1 0xA0 SHL SUB AND SWAP1 POP DUP2 JUMP JUMPDEST PUSH1 0xFB SLOAD PUSH1 0x40 MLOAD PUSH4 0x935E01B PUSH1 0xE2 SHL DUP2 MSTORE CALLER PUSH1 0x4 DUP3 ADD MSTORE PUSH1 0x1 PUSH1 0x1 PUSH1 0xA0 SHL SUB SWAP1 SWAP2 AND SWAP1 PUSH4 0x24D7806C SWAP1 PUSH1 0x24 ADD PUSH1 0x20 PUSH1 0x40 MLOAD DUP1 DUP4 SUB DUP2 DUP7 GAS STATICCALL ISZERO DUP1 ISZERO PUSH2 0x50F JUMPI RETURNDATASIZE PUSH1 0x0 DUP1 RETURNDATACOPY RETURNDATASIZE PUSH1 0x0 REVERT JUMPDEST POP POP POP POP PUSH1 0x40 MLOAD RETURNDATASIZE PUSH1 0x1F NOT PUSH1 0x1F DUP3 ADD AND DUP3 ADD DUP1 PUSH1 0x40 MSTORE POP DUP2 ADD SWAP1 PUSH2 0x533 SWAP2 SWAP1 PUSH2 0x2016 JUMP JUMPDEST PUSH2 0x578 JUMPI PUSH1 0x40 MLOAD PUSH3 0x461BCD PUSH1 0xE5 SHL DUP2 MSTORE PUSH1 0x20 PUSH1 0x4 DUP3 ADD MSTORE PUSH1 0x11 PUSH1 0x24 DUP3 ADD MSTORE PUSH17 0x2CB7BA9030B932903737BA1030B236B4B7 PUSH1 0x79 SHL PUSH1 0x44 DUP3 ADD MSTORE PUSH1 0x64 ADD JUMPDEST PUSH1 0x40 MLOAD DUP1 SWAP2 SUB SWAP1 REVERT JUMPDEST PUSH1 0xFB SLOAD DUP6 SWAP1 PUSH1 0x1 PUSH1 0x1 PUSH1 0xA0 SHL SUB AND PUSH1 0x0 JUMPDEST DUP3 DUP2 LT ISZERO PUSH2 0xA0C JUMPI PUSH1 0x0 DUP3 PUSH1 0x1 PUSH1 0x1 PUSH1 0xA0 SHL SUB AND PUSH4 0x4BC92D6C PUSH1 0x40 MLOAD DUP2 PUSH4 0xFFFFFFFF AND PUSH1 0xE0 SHL DUP2 MSTORE PUSH1 0x4 ADD PUSH1 0x20 PUSH1 0x40 MLOAD DUP1 DUP4 SUB DUP2 DUP7 GAS STATICCALL ISZERO DUP1 ISZERO PUSH2 0x5D1 JUMPI RETURNDATASIZE PUSH1 0x0 DUP1 RETURNDATACOPY RETURNDATASIZE PUSH1 0x0 REVERT JUMPDEST POP POP POP POP PUSH1 0x40 MLOAD RETURNDATASIZE PUSH1 0x1F NOT PUSH1 0x1F DUP3 ADD AND DUP3 ADD DUP1 PUSH1 0x40 MSTORE POP DUP2 ADD SWAP1 PUSH2 0x5F5 SWAP2 SWAP1 PUSH2 0x2033 JUMP JUMPDEST SWAP1 POP PUSH1 0x0 DUP7 DUP7 DUP5 DUP2 DUP2 LT PUSH2 0x60B JUMPI PUSH2 0x60B PUSH2 0x204C JUMP JUMPDEST SWAP1 POP PUSH1 0x20 MUL ADD CALLDATALOAD PUSH8 0xDE0B6B3A7640000 PUSH2 0x625 SWAP2 SWAP1 PUSH2 0x2078 JUMP JUMPDEST SWAP1 POP PUSH1 0x0 PUSH2 0x761 DUP6 PUSH1 0x1 PUSH1 0x1 PUSH1 0xA0 SHL SUB AND PUSH4 0xB70CC4C1 PUSH1 0x40 MLOAD DUP2 PUSH4 0xFFFFFFFF AND PUSH1 0xE0 SHL DUP2 MSTORE PUSH1 0x4 ADD PUSH1 0x20 PUSH1 0x40 MLOAD DUP1 DUP4 SUB DUP2 DUP7 GAS STATICCALL ISZERO DUP1 ISZERO PUSH2 0x66A JUMPI RETURNDATASIZE PUSH1 0x0 DUP1 RETURNDATACOPY RETURNDATASIZE PUSH1 0x0 REVERT JUMPDEST POP POP POP POP PUSH1 0x40 MLOAD RETURNDATASIZE PUSH1 0x1F NOT PUSH1 0x1F DUP3 ADD AND DUP3 ADD DUP1 PUSH1 0x40 MSTORE POP DUP2 ADD SWAP1 PUSH2 0x68E SWAP2 SWAP1 PUSH2 0x208F JUMP JUMPDEST PUSH2 0x698 DUP6 DUP6 PUSH2 0x20AC JUMP JUMPDEST DUP8 PUSH1 0x1 PUSH1 0x1 PUSH1 0xA0 SHL SUB AND PUSH4 0x55A373D6 PUSH1 0x40 MLOAD DUP2 PUSH4 0xFFFFFFFF AND PUSH1 0xE0 SHL DUP2 MSTORE PUSH1 0x4 ADD PUSH1 0x20 PUSH1 0x40 MLOAD DUP1 DUP4 SUB DUP2 DUP7 GAS STATICCALL ISZERO DUP1 ISZERO PUSH2 0x6D6 JUMPI RETURNDATASIZE PUSH1 0x0 DUP1 RETURNDATACOPY RETURNDATASIZE PUSH1 0x0 REVERT JUMPDEST POP POP POP POP PUSH1 0x40 MLOAD RETURNDATASIZE PUSH1 0x1F NOT PUSH1 0x1F DUP3 ADD AND DUP3 ADD DUP1 PUSH1 0x40 MSTORE POP DUP2 ADD SWAP1 PUSH2 0x6FA SWAP2 SWAP1 PUSH2 0x208F JUMP JUMPDEST DUP9 PUSH1 0x1 PUSH1 0x1 PUSH1 0xA0 SHL SUB AND PUSH4 0x8290C4A6 PUSH1 0x40 MLOAD DUP2 PUSH4 0xFFFFFFFF AND PUSH1 0xE0 SHL DUP2 MSTORE PUSH1 0x4 ADD PUSH1 0x20 PUSH1 0x40 MLOAD DUP1 DUP4 SUB DUP2 DUP7 GAS STATICCALL ISZERO DUP1 ISZERO PUSH2 0x738 JUMPI RETURNDATASIZE PUSH1 0x0 DUP1 RETURNDATACOPY RETURNDATASIZE PUSH1 0x0 REVERT JUMPDEST POP POP POP POP PUSH1 0x40 MLOAD RETURNDATASIZE PUSH1 0x1F NOT PUSH1 0x1F DUP3 ADD AND DUP3 ADD DUP1 PUSH1 0x40 MSTORE POP DUP2 ADD SWAP1 PUSH2 0x75C SWAP2 SWAP1 PUSH2 0x208F JUMP JUMPDEST PUSH2 0x15C8 JUMP JUMPDEST PUSH2 0x100 SLOAD SWAP1 SWAP2 POP PUSH1 0xFF AND ISZERO PUSH2 0x8A7 JUMPI DUP5 PUSH1 0x1 PUSH1 0x1 PUSH1 0xA0 SHL SUB AND PUSH4 0xEE99205C PUSH1 0x40 MLOAD DUP2 PUSH4 0xFFFFFFFF AND PUSH1 0xE0 SHL DUP2 MSTORE PUSH1 0x4 ADD PUSH1 0x20 PUSH1 0x40 MLOAD DUP1 DUP4 SUB DUP2 DUP7 GAS STATICCALL ISZERO DUP1 ISZERO PUSH2 0x7AE JUMPI RETURNDATASIZE PUSH1 0x0 DUP1 RETURNDATACOPY RETURNDATASIZE PUSH1 0x0 REVERT JUMPDEST POP POP POP POP PUSH1 0x40 MLOAD RETURNDATASIZE PUSH1 0x1F NOT PUSH1 0x1F DUP3 ADD AND DUP3 ADD DUP1 PUSH1 0x40 MSTORE POP DUP2 ADD SWAP1 PUSH2 0x7D2 SWAP2 SWAP1 PUSH2 0x208F JUMP JUMPDEST PUSH1 0x1 PUSH1 0x1 PUSH1 0xA0 SHL SUB AND PUSH4 0x310C9B20 DUP14 DUP14 DUP8 DUP2 DUP2 LT PUSH2 0x7F2 JUMPI PUSH2 0x7F2 PUSH2 0x204C JUMP JUMPDEST SWAP1 POP PUSH1 0x20 MUL ADD PUSH1 0x20 DUP2 ADD SWAP1 PUSH2 0x807 SWAP2 SWAP1 PUSH2 0x1DA2 JUMP JUMPDEST DUP4 PUSH1 0x1 DUP2 MLOAD DUP2 LT PUSH2 0x81A JUMPI PUSH2 0x81A PUSH2 0x204C JUMP JUMPDEST PUSH1 0x20 MUL PUSH1 0x20 ADD ADD MLOAD DUP5 PUSH1 0x0 DUP2 MLOAD DUP2 LT PUSH2 0x835 JUMPI PUSH2 0x835 PUSH2 0x204C JUMP JUMPDEST PUSH1 0x20 SWAP1 DUP2 MUL SWAP2 SWAP1 SWAP2 ADD ADD MLOAD PUSH1 0x40 MLOAD PUSH1 0x1 PUSH1 0x1 PUSH1 0xE0 SHL SUB NOT PUSH1 0xE0 DUP7 SWAP1 SHL AND DUP2 MSTORE PUSH1 0x1 PUSH1 0x1 PUSH1 0xA0 SHL SUB SWAP1 SWAP4 AND PUSH1 0x4 DUP5 ADD MSTORE PUSH1 0x24 DUP4 ADD SWAP2 SWAP1 SWAP2 MSTORE PUSH1 0x44 DUP3 ADD MSTORE PUSH1 0x64 ADD PUSH1 0x0 PUSH1 0x40 MLOAD DUP1 DUP4 SUB DUP2 PUSH1 0x0 DUP8 DUP1 EXTCODESIZE ISZERO DUP1 ISZERO PUSH2 0x88E JUMPI PUSH1 0x0 DUP1 REVERT JUMPDEST POP GAS CALL ISZERO DUP1 ISZERO PUSH2 0x8A2 JUMPI RETURNDATASIZE PUSH1 0x0 DUP1 RETURNDATACOPY RETURNDATASIZE PUSH1 0x0 REVERT JUMPDEST POP POP POP POP JUMPDEST PUSH2 0x100 DUP1 SLOAD DIV PUSH1 0xFF AND ISZERO PUSH2 0x9F6 JUMPI DUP5 PUSH1 0x1 PUSH1 0x1 PUSH1 0xA0 SHL SUB AND PUSH4 0x7DAD19DB PUSH1 0x40 MLOAD DUP2 PUSH4 0xFFFFFFFF AND PUSH1 0xE0 SHL DUP2 MSTORE PUSH1 0x4 ADD PUSH1 0x20 PUSH1 0x40 MLOAD DUP1 DUP4 SUB DUP2 DUP7 GAS STATICCALL ISZERO DUP1 ISZERO PUSH2 0x8F3 JUMPI RETURNDATASIZE PUSH1 0x0 DUP1 RETURNDATACOPY RETURNDATASIZE PUSH1 0x0 REVERT JUMPDEST POP POP POP POP PUSH1 0x40 MLOAD RETURNDATASIZE PUSH1 0x1F NOT PUSH1 0x1F DUP3 ADD AND DUP3 ADD DUP1 PUSH1 0x40 MSTORE POP DUP2 ADD SWAP1 PUSH2 0x917 SWAP2 SWAP1 PUSH2 0x208F JUMP JUMPDEST PUSH1 0x1 PUSH1 0x1 PUSH1 0xA0 SHL SUB AND PUSH4 0x228159B4 DUP3 PUSH1 0x0 DUP2 MLOAD DUP2 LT PUSH2 0x938 JUMPI PUSH2 0x938 PUSH2 0x204C JUMP JUMPDEST PUSH1 0x20 MUL PUSH1 0x20 ADD ADD MLOAD DUP15 DUP15 DUP9 DUP2 DUP2 LT PUSH2 0x952 JUMPI PUSH2 0x952 PUSH2 0x204C JUMP JUMPDEST SWAP1 POP PUSH1 0x20 MUL ADD PUSH1 0x20 DUP2 ADD SWAP1 PUSH2 0x967 SWAP2 SWAP1 PUSH2 0x1DA2 JUMP JUMPDEST DUP14 DUP14 DUP10 DUP2 DUP2 LT PUSH2 0x979 JUMPI PUSH2 0x979 PUSH2 0x204C JUMP JUMPDEST SWAP1 POP PUSH1 0x20 MUL ADD PUSH1 0x20 DUP2 ADD SWAP1 PUSH2 0x98E SWAP2 SWAP1 PUSH2 0x1DA2 JUMP JUMPDEST PUSH1 0x40 MLOAD PUSH1 0x1 PUSH1 0x1 PUSH1 0xE0 SHL SUB NOT PUSH1 0xE0 DUP7 SWAP1 SHL AND DUP2 MSTORE PUSH1 0x4 DUP2 ADD SWAP4 SWAP1 SWAP4 MSTORE PUSH1 0x1 PUSH1 0x1 PUSH1 0xA0 SHL SUB SWAP2 DUP3 AND PUSH1 0x24 DUP5 ADD MSTORE AND PUSH1 0x44 DUP3 ADD MSTORE PUSH1 0x64 ADD PUSH1 0x0 PUSH1 0x40 MLOAD DUP1 DUP4 SUB DUP2 PUSH1 0x0 DUP8 DUP1 EXTCODESIZE ISZERO DUP1 ISZERO PUSH2 0x9DD JUMPI PUSH1 0x0 DUP1 REVERT JUMPDEST POP GAS CALL ISZERO DUP1 ISZERO PUSH2 0x9F1 JUMPI RETURNDATASIZE PUSH1 0x0 DUP1 RETURNDATACOPY RETURNDATASIZE PUSH1 0x0 REVERT JUMPDEST POP POP POP POP JUMPDEST POP POP POP DUP1 DUP1 PUSH2 0xA04 SWAP1 PUSH2 0x20BF JUMP JUMPDEST SWAP2 POP POP PUSH2 0x589 JUMP JUMPDEST POP POP POP POP POP POP POP POP POP JUMP JUMPDEST PUSH2 0xA1F PUSH2 0x156E JUMP JUMPDEST PUSH2 0xA27 PUSH2 0x174B JUMP JUMPDEST JUMP JUMPDEST PUSH1 0x1 PUSH1 0x1 PUSH1 0xA0 SHL SUB PUSH32 0x0 AND ADDRESS SUB PUSH2 0xA71 JUMPI PUSH1 0x40 MLOAD PUSH3 0x461BCD PUSH1 0xE5 SHL DUP2 MSTORE PUSH1 0x4 ADD PUSH2 0x56F SWAP1 PUSH2 0x20D8 JUMP JUMPDEST PUSH32 0x0 PUSH1 0x1 PUSH1 0x1 PUSH1 0xA0 SHL SUB AND PUSH2 0xABA PUSH1 0x0 DUP1 MLOAD PUSH1 0x20 PUSH2 0x2359 DUP4 CODECOPY DUP2 MLOAD SWAP2 MSTORE SLOAD PUSH1 0x1 PUSH1 0x1 PUSH1 0xA0 SHL SUB AND SWAP1 JUMP JUMPDEST PUSH1 0x1 PUSH1 0x1 PUSH1 0xA0 SHL SUB AND EQ PUSH2 0xAE0 JUMPI PUSH1 0x40 MLOAD PUSH3 0x461BCD PUSH1 0xE5 SHL DUP2 MSTORE PUSH1 0x4 ADD PUSH2 0x56F SWAP1 PUSH2 0x2124 JUMP JUMPDEST PUSH2 0xAE9 DUP2 PUSH2 0x17A5 JUMP JUMPDEST PUSH1 0x40 DUP1 MLOAD PUSH1 0x0 DUP1 DUP3 MSTORE PUSH1 0x20 DUP3 ADD SWAP1 SWAP3 MSTORE PUSH2 0xB05 SWAP2 DUP4 SWAP2 SWAP1 PUSH2 0x17AD JUMP JUMPDEST POP JUMP JUMPDEST PUSH1 0x1 PUSH1 0x1 PUSH1 0xA0 SHL SUB PUSH32 0x0 AND ADDRESS SUB PUSH2 0xB50 JUMPI PUSH1 0x40 MLOAD PUSH3 0x461BCD PUSH1 0xE5 SHL DUP2 MSTORE PUSH1 0x4 ADD PUSH2 0x56F SWAP1 PUSH2 0x20D8 JUMP JUMPDEST PUSH32 0x0 PUSH1 0x1 PUSH1 0x1 PUSH1 0xA0 SHL SUB AND PUSH2 0xB99 PUSH1 0x0 DUP1 MLOAD PUSH1 0x20 PUSH2 0x2359 DUP4 CODECOPY DUP2 MLOAD SWAP2 MSTORE SLOAD PUSH1 0x1 PUSH1 0x1 PUSH1 0xA0 SHL SUB AND SWAP1 JUMP JUMPDEST PUSH1 0x1 PUSH1 0x1 PUSH1 0xA0 SHL SUB AND EQ PUSH2 0xBBF JUMPI PUSH1 0x40 MLOAD PUSH3 0x461BCD PUSH1 0xE5 SHL DUP2 MSTORE PUSH1 0x4 ADD PUSH2 0x56F SWAP1 PUSH2 0x2124 JUMP JUMPDEST PUSH2 0xBC8 DUP3 PUSH2 0x17A5 JUMP JUMPDEST PUSH2 0xBD4 DUP3 DUP3 PUSH1 0x1 PUSH2 0x17AD JUMP JUMPDEST POP POP JUMP JUMPDEST PUSH1 0x0 ADDRESS PUSH1 0x1 PUSH1 0x1 PUSH1 0xA0 SHL SUB PUSH32 0x0 AND EQ PUSH2 0xC78 JUMPI PUSH1 0x40 MLOAD PUSH3 0x461BCD PUSH1 0xE5 SHL DUP2 MSTORE PUSH1 0x20 PUSH1 0x4 DUP3 ADD MSTORE PUSH1 0x38 PUSH1 0x24 DUP3 ADD MSTORE PUSH32 0x555550535570677261646561626C653A206D757374206E6F742062652063616C PUSH1 0x44 DUP3 ADD MSTORE PUSH32 0x6C6564207468726F7567682064656C656761746563616C6C0000000000000000 PUSH1 0x64 DUP3 ADD MSTORE PUSH1 0x84 ADD PUSH2 0x56F JUMP JUMPDEST POP PUSH1 0x0 DUP1 MLOAD PUSH1 0x20 PUSH2 0x2359 DUP4 CODECOPY DUP2 MLOAD SWAP2 MSTORE SWAP1 JUMP JUMPDEST PUSH2 0xC93 PUSH2 0x156E JUMP JUMPDEST PUSH1 0xFD SWAP5 SWAP1 SWAP5 SSTORE PUSH2 0x100 DUP1 SLOAD PUSH2 0xFFFF NOT AND SWAP4 ISZERO ISZERO PUSH2 0xFF00 NOT AND SWAP4 SWAP1 SWAP4 OR SWAP2 ISZERO ISZERO DUP4 MUL SWAP2 SWAP1 SWAP2 OR PUSH3 0xFF0000 NOT AND PUSH3 0x10000 SWAP2 ISZERO ISZERO SWAP2 SWAP1 SWAP2 MUL OR SWAP1 SSTORE PUSH2 0x101 SSTORE JUMP JUMPDEST PUSH2 0xCDA PUSH2 0x156E JUMP JUMPDEST PUSH2 0xA27 PUSH1 0x0 PUSH2 0x1918 JUMP JUMPDEST PUSH2 0xCEC PUSH2 0x156E JUMP JUMPDEST PUSH1 0x40 MLOAD PUSH1 0x1 PUSH1 0x1 PUSH1 0xA0 SHL SUB DUP4 AND SWAP1 DUP3 ISZERO PUSH2 0x8FC MUL SWAP1 DUP4 SWAP1 PUSH1 0x0 DUP2 DUP2 DUP2 DUP6 DUP9 DUP9 CALL SWAP4 POP POP POP POP ISZERO DUP1 ISZERO PUSH2 0x46D JUMPI RETURNDATASIZE PUSH1 0x0 DUP1 RETURNDATACOPY RETURNDATASIZE PUSH1 0x0 REVERT JUMPDEST PUSH1 0x0 SLOAD PUSH2 0x100 SWAP1 DIV PUSH1 0xFF AND ISZERO DUP1 DUP1 ISZERO PUSH2 0xD42 JUMPI POP PUSH1 0x0 SLOAD PUSH1 0x1 PUSH1 0xFF SWAP1 SWAP2 AND LT JUMPDEST DUP1 PUSH2 0xD5C JUMPI POP ADDRESS EXTCODESIZE ISZERO DUP1 ISZERO PUSH2 0xD5C JUMPI POP PUSH1 0x0 SLOAD PUSH1 0xFF AND PUSH1 0x1 EQ JUMPDEST PUSH2 0xDBF JUMPI PUSH1 0x40 MLOAD PUSH3 0x461BCD PUSH1 0xE5 SHL DUP2 MSTORE PUSH1 0x20 PUSH1 0x4 DUP3 ADD MSTORE PUSH1 0x2E PUSH1 0x24 DUP3 ADD MSTORE PUSH32 0x496E697469616C697A61626C653A20636F6E747261637420697320616C726561 PUSH1 0x44 DUP3 ADD MSTORE PUSH14 0x191E481A5B9A5D1A585B1A5E9959 PUSH1 0x92 SHL PUSH1 0x64 DUP3 ADD MSTORE PUSH1 0x84 ADD PUSH2 0x56F JUMP JUMPDEST PUSH1 0x0 DUP1 SLOAD PUSH1 0xFF NOT AND PUSH1 0x1 OR SWAP1 SSTORE DUP1 ISZERO PUSH2 0xDE2 JUMPI PUSH1 0x0 DUP1 SLOAD PUSH2 0xFF00 NOT AND PUSH2 0x100 OR SWAP1 SSTORE JUMPDEST PUSH1 0xFB DUP1 SLOAD PUSH1 0x1 PUSH1 0x1 PUSH1 0xA0 SHL SUB NOT AND PUSH20 0x77DAAFC7411C911B869C71BF70FE36CCE507845D OR SWAP1 SSTORE PUSH7 0x38D7EA4C68000 PUSH1 0xFC SSTORE PUSH9 0x1158E460913D00000 PUSH1 0xFD SSTORE PUSH2 0x100 DUP1 SLOAD PUSH3 0xFFFFFF NOT AND PUSH2 0x101 SWAP1 DUP2 OR SWAP1 SWAP2 SSTORE PUSH9 0x1BA5ABF9E779380000 SWAP1 SSTORE PUSH2 0xE48 PUSH2 0x196A JUMP JUMPDEST PUSH2 0xE50 PUSH2 0x1999 JUMP JUMPDEST PUSH2 0xE58 PUSH2 0x19C8 JUMP JUMPDEST DUP1 ISZERO PUSH2 0xB05 JUMPI PUSH1 0x0 DUP1 SLOAD PUSH2 0xFF00 NOT AND SWAP1 SSTORE PUSH1 0x40 MLOAD PUSH1 0x1 DUP2 MSTORE PUSH32 0x7F26B83FF96E1F2B6A682F133852F6798A09C465DA95921460CEFB3847402498 SWAP1 PUSH1 0x20 ADD PUSH1 0x40 MLOAD DUP1 SWAP2 SUB SWAP1 LOG1 POP JUMP JUMPDEST PUSH2 0xEA8 PUSH2 0x19EF JUMP JUMPDEST PUSH1 0xFB SLOAD PUSH1 0x40 DUP1 MLOAD PUSH4 0x12F24B5B PUSH1 0xE2 SHL DUP2 MSTORE SWAP1 MLOAD PUSH1 0x1 PUSH1 0x1 PUSH1 0xA0 SHL SUB SWAP1 SWAP3 AND SWAP2 CALLER SWAP2 PUSH1 0x0 SWAP2 DUP5 SWAP2 PUSH4 0x4BC92D6C SWAP2 PUSH1 0x4 DUP1 DUP4 ADD SWAP3 PUSH1 0x20 SWAP3 SWAP2 SWAP1 DUP3 SWAP1 SUB ADD DUP2 DUP7 GAS STATICCALL ISZERO DUP1 ISZERO PUSH2 0xEF8 JUMPI RETURNDATASIZE PUSH1 0x0 DUP1 RETURNDATACOPY RETURNDATASIZE PUSH1 0x0 REVERT JUMPDEST POP POP POP POP PUSH1 0x40 MLOAD RETURNDATASIZE PUSH1 0x1F NOT PUSH1 0x1F DUP3 ADD AND DUP3 ADD DUP1 PUSH1 0x40 MSTORE POP DUP2 ADD SWAP1 PUSH2 0xF1C SWAP2 SWAP1 PUSH2 0x2033 JUMP JUMPDEST PUSH1 0xFD SLOAD SWAP1 SWAP2 POP DUP5 SWAP1 DUP2 LT ISZERO PUSH2 0xF7F JUMPI PUSH1 0x40 MLOAD PUSH3 0x461BCD PUSH1 0xE5 SHL DUP2 MSTORE PUSH1 0x20 PUSH1 0x4 DUP3 ADD MSTORE PUSH1 0x23 PUSH1 0x24 DUP3 ADD MSTORE PUSH32 0x415553442076616C7565206C657373207468656E206D696E206275792076616C PUSH1 0x44 DUP3 ADD MSTORE PUSH3 0x3AB297 PUSH1 0xE9 SHL PUSH1 0x64 DUP3 ADD MSTORE PUSH1 0x84 ADD PUSH2 0x56F JUMP JUMPDEST PUSH2 0x101 SLOAD DUP2 GT ISZERO PUSH2 0xFCA JUMPI PUSH1 0x40 MLOAD PUSH3 0x461BCD PUSH1 0xE5 SHL DUP2 MSTORE PUSH1 0x20 PUSH1 0x4 DUP3 ADD MSTORE PUSH1 0x15 PUSH1 0x24 DUP3 ADD MSTORE PUSH21 0x13585E08189D5E481B1A5B5A5D081C995858DA1959 PUSH1 0x5A SHL PUSH1 0x44 DUP3 ADD MSTORE PUSH1 0x64 ADD PUSH2 0x56F JUMP JUMPDEST DUP4 PUSH1 0x1 PUSH1 0x1 PUSH1 0xA0 SHL SUB AND PUSH4 0xB70CC4C1 PUSH1 0x40 MLOAD DUP2 PUSH4 0xFFFFFFFF AND PUSH1 0xE0 SHL DUP2 MSTORE PUSH1 0x4 ADD PUSH1 0x20 PUSH1 0x40 MLOAD DUP1 DUP4 SUB DUP2 DUP7 GAS STATICCALL ISZERO DUP1 ISZERO PUSH2 0x1008 JUMPI RETURNDATASIZE PUSH1 0x0 DUP1 RETURNDATACOPY RETURNDATASIZE PUSH1 0x0 REVERT JUMPDEST POP POP POP POP PUSH1 0x40 MLOAD RETURNDATASIZE PUSH1 0x1F NOT PUSH1 0x1F DUP3 ADD AND DUP3 ADD DUP1 PUSH1 0x40 MSTORE POP DUP2 ADD SWAP1 PUSH2 0x102C SWAP2 SWAP1 PUSH2 0x208F JUMP JUMPDEST PUSH1 0x40 MLOAD PUSH4 0x23B872DD PUSH1 0xE0 SHL DUP2 MSTORE PUSH1 0x1 PUSH1 0x1 PUSH1 0xA0 SHL SUB DUP6 DUP2 AND PUSH1 0x4 DUP4 ADD MSTORE ADDRESS PUSH1 0x24 DUP4 ADD MSTORE PUSH1 0x44 DUP3 ADD DUP5 SWAP1 MSTORE SWAP2 SWAP1 SWAP2 AND SWAP1 PUSH4 0x23B872DD SWAP1 PUSH1 0x64 ADD PUSH1 0x20 PUSH1 0x40 MLOAD DUP1 DUP4 SUB DUP2 PUSH1 0x0 DUP8 GAS CALL ISZERO DUP1 ISZERO PUSH2 0x1083 JUMPI RETURNDATASIZE PUSH1 0x0 DUP1 RETURNDATACOPY RETURNDATASIZE PUSH1 0x0 REVERT JUMPDEST POP POP POP POP PUSH1 0x40 MLOAD RETURNDATASIZE PUSH1 0x1F NOT PUSH1 0x1F DUP3 ADD AND DUP3 ADD DUP1 PUSH1 0x40 MSTORE POP DUP2 ADD SWAP1 PUSH2 0x10A7 SWAP2 SWAP1 PUSH2 0x2016 JUMP JUMPDEST POP PUSH1 0x0 PUSH2 0x10EB DUP6 PUSH1 0x1 PUSH1 0x1 PUSH1 0xA0 SHL SUB AND PUSH4 0xB70CC4C1 PUSH1 0x40 MLOAD DUP2 PUSH4 0xFFFFFFFF AND PUSH1 0xE0 SHL DUP2 MSTORE PUSH1 0x4 ADD PUSH1 0x20 PUSH1 0x40 MLOAD DUP1 DUP4 SUB DUP2 DUP7 GAS STATICCALL ISZERO DUP1 ISZERO PUSH2 0x66A JUMPI RETURNDATASIZE PUSH1 0x0 DUP1 RETURNDATACOPY RETURNDATASIZE PUSH1 0x0 REVERT JUMPDEST PUSH2 0x100 SLOAD SWAP1 SWAP2 POP PUSH1 0xFF AND ISZERO PUSH2 0x120F JUMPI DUP5 PUSH1 0x1 PUSH1 0x1 PUSH1 0xA0 SHL SUB AND PUSH4 0xEE99205C PUSH1 0x40 MLOAD DUP2 PUSH4 0xFFFFFFFF AND PUSH1 0xE0 SHL DUP2 MSTORE PUSH1 0x4 ADD PUSH1 0x20 PUSH1 0x40 MLOAD DUP1 DUP4 SUB DUP2 DUP7 GAS STATICCALL ISZERO DUP1 ISZERO PUSH2 0x1138 JUMPI RETURNDATASIZE PUSH1 0x0 DUP1 RETURNDATACOPY RETURNDATASIZE PUSH1 0x0 REVERT JUMPDEST POP POP POP POP PUSH1 0x40 MLOAD RETURNDATASIZE PUSH1 0x1F NOT PUSH1 0x1F DUP3 ADD AND DUP3 ADD DUP1 PUSH1 0x40 MSTORE POP DUP2 ADD SWAP1 PUSH2 0x115C SWAP2 SWAP1 PUSH2 0x208F JUMP JUMPDEST PUSH1 0x1 PUSH1 0x1 PUSH1 0xA0 SHL SUB AND PUSH4 0x310C9B20 DUP6 DUP4 PUSH1 0x1 DUP2 MLOAD DUP2 LT PUSH2 0x117E JUMPI PUSH2 0x117E PUSH2 0x204C JUMP JUMPDEST PUSH1 0x20 MUL PUSH1 0x20 ADD ADD MLOAD DUP5 PUSH1 0x0 DUP2 MLOAD DUP2 LT PUSH2 0x1199 JUMPI PUSH2 0x1199 PUSH2 0x204C JUMP JUMPDEST PUSH1 0x20 SWAP1 DUP2 MUL SWAP2 SWAP1 SWAP2 ADD ADD MLOAD PUSH1 0x40 MLOAD PUSH1 0x1 PUSH1 0x1 PUSH1 0xE0 SHL SUB NOT PUSH1 0xE0 DUP7 SWAP1 SHL AND DUP2 MSTORE PUSH1 0x1 PUSH1 0x1 PUSH1 0xA0 SHL SUB SWAP1 SWAP4 AND PUSH1 0x4 DUP5 ADD MSTORE PUSH1 0x24 DUP4 ADD SWAP2 SWAP1 SWAP2 MSTORE PUSH1 0x44 DUP3 ADD MSTORE PUSH1 0x64 ADD PUSH1 0x0 PUSH1 0x40 MLOAD DUP1 DUP4 SUB DUP2 PUSH1 0x0 DUP8 DUP1 EXTCODESIZE ISZERO DUP1 ISZERO PUSH2 0x11F2 JUMPI PUSH1 0x0 DUP1 REVERT JUMPDEST POP GAS CALL ISZERO DUP1 ISZERO PUSH2 0x1206 JUMPI RETURNDATASIZE PUSH1 0x0 DUP1 RETURNDATACOPY RETURNDATASIZE PUSH1 0x0 REVERT JUMPDEST POP POP POP POP PUSH2 0x1311 JUMP JUMPDEST DUP5 PUSH1 0x1 PUSH1 0x1 PUSH1 0xA0 SHL SUB AND PUSH4 0x55A373D6 PUSH1 0x40 MLOAD DUP2 PUSH4 0xFFFFFFFF AND PUSH1 0xE0 SHL DUP2 MSTORE PUSH1 0x4 ADD PUSH1 0x20 PUSH1 0x40 MLOAD DUP1 DUP4 SUB DUP2 DUP7 GAS STATICCALL ISZERO DUP1 ISZERO PUSH2 0x124D JUMPI RETURNDATASIZE PUSH1 0x0 DUP1 RETURNDATACOPY RETURNDATASIZE PUSH1 0x0 REVERT JUMPDEST POP POP POP POP PUSH1 0x40 MLOAD RETURNDATASIZE PUSH1 0x1F NOT PUSH1 0x1F DUP3 ADD AND DUP3 ADD DUP1 PUSH1 0x40 MSTORE POP DUP2 ADD SWAP1 PUSH2 0x1271 SWAP2 SWAP1 PUSH2 0x208F JUMP JUMPDEST PUSH1 0x1 PUSH1 0x1 PUSH1 0xA0 SHL SUB AND PUSH4 0xA9059CBB DUP6 DUP4 PUSH1 0x1 DUP2 MLOAD DUP2 LT PUSH2 0x1293 JUMPI PUSH2 0x1293 PUSH2 0x204C JUMP JUMPDEST PUSH1 0x20 MUL PUSH1 0x20 ADD ADD MLOAD PUSH1 0x40 MLOAD DUP4 PUSH4 0xFFFFFFFF AND PUSH1 0xE0 SHL DUP2 MSTORE PUSH1 0x4 ADD PUSH2 0x12CC SWAP3 SWAP2 SWAP1 PUSH1 0x1 PUSH1 0x1 PUSH1 0xA0 SHL SUB SWAP3 SWAP1 SWAP3 AND DUP3 MSTORE PUSH1 0x20 DUP3 ADD MSTORE PUSH1 0x40 ADD SWAP1 JUMP JUMPDEST PUSH1 0x20 PUSH1 0x40 MLOAD DUP1 DUP4 SUB DUP2 PUSH1 0x0 DUP8 GAS CALL ISZERO DUP1 ISZERO PUSH2 0x12EB JUMPI RETURNDATASIZE PUSH1 0x0 DUP1 RETURNDATACOPY RETURNDATASIZE PUSH1 0x0 REVERT JUMPDEST POP POP POP POP PUSH1 0x40 MLOAD RETURNDATASIZE PUSH1 0x1F NOT PUSH1 0x1F DUP3 ADD AND DUP3 ADD DUP1 PUSH1 0x40 MSTORE POP DUP2 ADD SWAP1 PUSH2 0x130F SWAP2 SWAP1 PUSH2 0x2016 JUMP JUMPDEST POP JUMPDEST PUSH2 0x100 DUP1 SLOAD DIV PUSH1 0xFF AND ISZERO PUSH2 0x1417 JUMPI DUP5 PUSH1 0x1 PUSH1 0x1 PUSH1 0xA0 SHL SUB AND PUSH4 0x7DAD19DB PUSH1 0x40 MLOAD DUP2 PUSH4 0xFFFFFFFF AND PUSH1 0xE0 SHL DUP2 MSTORE PUSH1 0x4 ADD PUSH1 0x20 PUSH1 0x40 MLOAD DUP1 DUP4 SUB DUP2 DUP7 GAS STATICCALL ISZERO DUP1 ISZERO PUSH2 0x135D JUMPI RETURNDATASIZE PUSH1 0x0 DUP1 RETURNDATACOPY RETURNDATASIZE PUSH1 0x0 REVERT JUMPDEST POP POP POP POP PUSH1 0x40 MLOAD RETURNDATASIZE PUSH1 0x1F NOT PUSH1 0x1F DUP3 ADD AND DUP3 ADD DUP1 PUSH1 0x40 MSTORE POP DUP2 ADD SWAP1 PUSH2 0x1381 SWAP2 SWAP1 PUSH2 0x208F JUMP JUMPDEST PUSH1 0x1 PUSH1 0x1 PUSH1 0xA0 SHL SUB AND PUSH4 0x228159B4 DUP3 PUSH1 0x0 DUP2 MLOAD DUP2 LT PUSH2 0x13A2 JUMPI PUSH2 0x13A2 PUSH2 0x204C JUMP JUMPDEST PUSH1 0x20 MUL PUSH1 0x20 ADD ADD MLOAD DUP7 DUP11 PUSH1 0x40 MLOAD DUP5 PUSH4 0xFFFFFFFF AND PUSH1 0xE0 SHL DUP2 MSTORE PUSH1 0x4 ADD PUSH2 0x13E4 SWAP4 SWAP3 SWAP2 SWAP1 SWAP3 DUP4 MSTORE PUSH1 0x1 PUSH1 0x1 PUSH1 0xA0 SHL SUB SWAP2 DUP3 AND PUSH1 0x20 DUP5 ADD MSTORE AND PUSH1 0x40 DUP3 ADD MSTORE PUSH1 0x60 ADD SWAP1 JUMP JUMPDEST PUSH1 0x0 PUSH1 0x40 MLOAD DUP1 DUP4 SUB DUP2 PUSH1 0x0 DUP8 DUP1 EXTCODESIZE ISZERO DUP1 ISZERO PUSH2 0x13FE JUMPI PUSH1 0x0 DUP1 REVERT JUMPDEST POP GAS CALL ISZERO DUP1 ISZERO PUSH2 0x1412 JUMPI RETURNDATASIZE PUSH1 0x0 DUP1 RETURNDATACOPY RETURNDATASIZE PUSH1 0x0 REVERT JUMPDEST POP POP POP POP JUMPDEST PUSH32 0x629A485B55F72B3241F1B41FF1864E029996D1CF7D54EF632B907AF140F57430 DUP6 PUSH1 0x1 PUSH1 0x1 PUSH1 0xA0 SHL SUB AND PUSH4 0x4BC92D6C PUSH1 0x40 MLOAD DUP2 PUSH4 0xFFFFFFFF AND PUSH1 0xE0 SHL DUP2 MSTORE PUSH1 0x4 ADD PUSH1 0x20 PUSH1 0x40 MLOAD DUP1 DUP4 SUB DUP2 DUP7 GAS STATICCALL ISZERO DUP1 ISZERO PUSH2 0x1476 JUMPI RETURNDATASIZE PUSH1 0x0 DUP1 RETURNDATACOPY RETURNDATASIZE PUSH1 0x0 REVERT JUMPDEST POP POP POP POP PUSH1 0x40 MLOAD RETURNDATASIZE PUSH1 0x1F NOT PUSH1 0x1F DUP3 ADD AND DUP3 ADD DUP1 PUSH1 0x40 MSTORE POP DUP2 ADD SWAP1 PUSH2 0x149A SWAP2 SWAP1 PUSH2 0x2033 JUMP JUMPDEST PUSH1 0x40 MLOAD SWAP1 DUP2 MSTORE PUSH1 0x20 ADD PUSH1 0x40 MLOAD DUP1 SWAP2 SUB SWAP1 LOG1 POP POP POP POP POP POP POP JUMP JUMPDEST PUSH2 0x14BC PUSH2 0x156E JUMP JUMPDEST PUSH2 0xA27 PUSH2 0x1A35 JUMP JUMPDEST PUSH2 0x14CC PUSH2 0x156E JUMP JUMPDEST PUSH1 0x40 MLOAD CALLER SWAP1 SELFBALANCE DUP1 ISZERO PUSH2 0x8FC MUL SWAP2 PUSH1 0x0 DUP2 DUP2 DUP2 DUP6 DUP9 DUP9 CALL SWAP4 POP POP POP POP ISZERO DUP1 ISZERO PUSH2 0xB05 JUMPI RETURNDATASIZE PUSH1 0x0 DUP1 RETURNDATACOPY RETURNDATASIZE PUSH1 0x0 REVERT JUMPDEST PUSH2 0x1500 PUSH2 0x156E JUMP JUMPDEST PUSH1 0x1 PUSH1 0x1 PUSH1 0xA0 SHL SUB DUP2 AND PUSH2 0x1565 JUMPI PUSH1 0x40 MLOAD PUSH3 0x461BCD PUSH1 0xE5 SHL DUP2 MSTORE PUSH1 0x20 PUSH1 0x4 DUP3 ADD MSTORE PUSH1 0x26 PUSH1 0x24 DUP3 ADD MSTORE PUSH32 0x4F776E61626C653A206E6577206F776E657220697320746865207A65726F2061 PUSH1 0x44 DUP3 ADD MSTORE PUSH6 0x646472657373 PUSH1 0xD0 SHL PUSH1 0x64 DUP3 ADD MSTORE PUSH1 0x84 ADD PUSH2 0x56F JUMP JUMPDEST PUSH2 0xB05 DUP2 PUSH2 0x1918 JUMP JUMPDEST PUSH1 0x33 SLOAD PUSH1 0x1 PUSH1 0x1 PUSH1 0xA0 SHL SUB AND CALLER EQ PUSH2 0xA27 JUMPI PUSH1 0x40 MLOAD PUSH3 0x461BCD PUSH1 0xE5 SHL DUP2 MSTORE PUSH1 0x20 PUSH1 0x4 DUP3 ADD DUP2 SWAP1 MSTORE PUSH1 0x24 DUP3 ADD MSTORE PUSH32 0x4F776E61626C653A2063616C6C6572206973206E6F7420746865206F776E6572 PUSH1 0x44 DUP3 ADD MSTORE PUSH1 0x64 ADD PUSH2 0x56F JUMP JUMPDEST PUSH1 0x40 DUP1 MLOAD PUSH1 0x2 DUP1 DUP3 MSTORE PUSH1 0x60 DUP1 DUP4 ADD DUP5 MSTORE SWAP3 PUSH1 0x0 SWAP3 SWAP2 SWAP1 PUSH1 0x20 DUP4 ADD SWAP1 DUP1 CALLDATASIZE DUP4 CALLDATACOPY ADD SWAP1 POP POP SWAP1 POP DUP6 DUP2 PUSH1 0x0 DUP2 MLOAD DUP2 LT PUSH2 0x1601 JUMPI PUSH2 0x1601 PUSH2 0x204C JUMP JUMPDEST PUSH1 0x20 MUL PUSH1 0x20 ADD ADD SWAP1 PUSH1 0x1 PUSH1 0x1 PUSH1 0xA0 SHL SUB AND SWAP1 DUP2 PUSH1 0x1 PUSH1 0x1 PUSH1 0xA0 SHL SUB AND DUP2 MSTORE POP POP DUP4 DUP2 PUSH1 0x1 DUP2 MLOAD DUP2 LT PUSH2 0x1635 JUMPI PUSH2 0x1635 PUSH2 0x204C JUMP JUMPDEST PUSH1 0x1 PUSH1 0x1 PUSH1 0xA0 SHL SUB SWAP3 DUP4 AND PUSH1 0x20 SWAP2 DUP3 MUL SWAP3 SWAP1 SWAP3 ADD ADD MSTORE PUSH1 0x40 MLOAD PUSH4 0x95EA7B3 PUSH1 0xE0 SHL DUP2 MSTORE DUP5 DUP3 AND PUSH1 0x4 DUP3 ADD MSTORE PUSH1 0x24 DUP2 ADD DUP8 SWAP1 MSTORE SWAP1 DUP8 AND SWAP1 PUSH4 0x95EA7B3 SWAP1 PUSH1 0x44 ADD PUSH1 0x20 PUSH1 0x40 MLOAD DUP1 DUP4 SUB DUP2 PUSH1 0x0 DUP8 GAS CALL ISZERO DUP1 ISZERO PUSH2 0x1693 JUMPI RETURNDATASIZE PUSH1 0x0 DUP1 RETURNDATACOPY RETURNDATASIZE PUSH1 0x0 REVERT JUMPDEST POP POP POP POP PUSH1 0x40 MLOAD RETURNDATASIZE PUSH1 0x1F NOT PUSH1 0x1F DUP3 ADD AND DUP3 ADD DUP1 PUSH1 0x40 MSTORE POP DUP2 ADD SWAP1 PUSH2 0x16B7 SWAP2 SWAP1 PUSH2 0x2016 JUMP JUMPDEST POP PUSH1 0x0 PUSH1 0x1 PUSH1 0x1 PUSH1 0xA0 SHL SUB DUP5 AND PUSH4 0x38ED1739 DUP8 PUSH1 0x1 DUP6 ADDRESS PUSH2 0x16D9 TIMESTAMP PUSH1 0x64 PUSH2 0x2170 JUMP JUMPDEST PUSH1 0x40 MLOAD DUP7 PUSH4 0xFFFFFFFF AND PUSH1 0xE0 SHL DUP2 MSTORE PUSH1 0x4 ADD PUSH2 0x16F9 SWAP6 SWAP5 SWAP4 SWAP3 SWAP2 SWAP1 PUSH2 0x2183 JUMP JUMPDEST PUSH1 0x0 PUSH1 0x40 MLOAD DUP1 DUP4 SUB DUP2 PUSH1 0x0 DUP8 GAS CALL ISZERO DUP1 ISZERO PUSH2 0x1718 JUMPI RETURNDATASIZE PUSH1 0x0 DUP1 RETURNDATACOPY RETURNDATASIZE PUSH1 0x0 REVERT JUMPDEST POP POP POP POP PUSH1 0x40 MLOAD RETURNDATASIZE PUSH1 0x0 DUP3 RETURNDATACOPY PUSH1 0x1F RETURNDATASIZE SWAP1 DUP2 ADD PUSH1 0x1F NOT AND DUP3 ADD PUSH1 0x40 MSTORE PUSH2 0x1740 SWAP2 SWAP1 DUP2 ADD SWAP1 PUSH2 0x21F4 JUMP JUMPDEST SWAP8 SWAP7 POP POP POP POP POP POP POP JUMP JUMPDEST PUSH2 0x1753 PUSH2 0x19EF JUMP JUMPDEST PUSH1 0x65 DUP1 SLOAD PUSH1 0xFF NOT AND PUSH1 0x1 OR SWAP1 SSTORE PUSH32 0x62E78CEA01BEE320CD4E420270B5EA74000D11B0C9F74754EBDBFC544B05A258 PUSH2 0x1788 CALLER SWAP1 JUMP JUMPDEST PUSH1 0x40 MLOAD PUSH1 0x1 PUSH1 0x1 PUSH1 0xA0 SHL SUB SWAP1 SWAP2 AND DUP2 MSTORE PUSH1 0x20 ADD PUSH1 0x40 MLOAD DUP1 SWAP2 SUB SWAP1 LOG1 JUMP JUMPDEST PUSH2 0xB05 PUSH2 0x156E JUMP JUMPDEST PUSH32 0x4910FDFA16FED3260ED0E7147F7CC6DA11A60208B5B9406D12A635614FFD9143 SLOAD PUSH1 0xFF AND ISZERO PUSH2 0x17E0 JUMPI PUSH2 0x46D DUP4 PUSH2 0x1A6E JUMP JUMPDEST DUP3 PUSH1 0x1 PUSH1 0x1 PUSH1 0xA0 SHL SUB AND PUSH4 0x52D1902D PUSH1 0x40 MLOAD DUP2 PUSH4 0xFFFFFFFF AND PUSH1 0xE0 SHL DUP2 MSTORE PUSH1 0x4 ADD PUSH1 0x20 PUSH1 0x40 MLOAD DUP1 DUP4 SUB DUP2 DUP7 GAS STATICCALL SWAP3 POP POP POP DUP1 ISZERO PUSH2 0x183A JUMPI POP PUSH1 0x40 DUP1 MLOAD PUSH1 0x1F RETURNDATASIZE SWAP1 DUP2 ADD PUSH1 0x1F NOT AND DUP3 ADD SWAP1 SWAP3 MSTORE PUSH2 0x1837 SWAP2 DUP2 ADD SWAP1 PUSH2 0x2033 JUMP JUMPDEST PUSH1 0x1 JUMPDEST PUSH2 0x189D JUMPI PUSH1 0x40 MLOAD PUSH3 0x461BCD PUSH1 0xE5 SHL DUP2 MSTORE PUSH1 0x20 PUSH1 0x4 DUP3 ADD MSTORE PUSH1 0x2E PUSH1 0x24 DUP3 ADD MSTORE PUSH32 0x45524331393637557067726164653A206E657720696D706C656D656E74617469 PUSH1 0x44 DUP3 ADD MSTORE PUSH14 0x6F6E206973206E6F742055555053 PUSH1 0x90 SHL PUSH1 0x64 DUP3 ADD MSTORE PUSH1 0x84 ADD PUSH2 0x56F JUMP JUMPDEST PUSH1 0x0 DUP1 MLOAD PUSH1 0x20 PUSH2 0x2359 DUP4 CODECOPY DUP2 MLOAD SWAP2 MSTORE DUP2 EQ PUSH2 0x190C JUMPI PUSH1 0x40 MLOAD PUSH3 0x461BCD PUSH1 0xE5 SHL DUP2 MSTORE PUSH1 0x20 PUSH1 0x4 DUP3 ADD MSTORE PUSH1 0x29 PUSH1 0x24 DUP3 ADD MSTORE PUSH32 0x45524331393637557067726164653A20756E737570706F727465642070726F78 PUSH1 0x44 DUP3 ADD MSTORE PUSH9 0x1A58589B1955555251 PUSH1 0xBA SHL PUSH1 0x64 DUP3 ADD MSTORE PUSH1 0x84 ADD PUSH2 0x56F JUMP JUMPDEST POP PUSH2 0x46D DUP4 DUP4 DUP4 PUSH2 0x1B0A JUMP JUMPDEST PUSH1 0x33 DUP1 SLOAD PUSH1 0x1 PUSH1 0x1 PUSH1 0xA0 SHL SUB DUP4 DUP2 AND PUSH1 0x1 PUSH1 0x1 PUSH1 0xA0 SHL SUB NOT DUP4 AND DUP2 OR SWAP1 SWAP4 SSTORE PUSH1 0x40 MLOAD SWAP2 AND SWAP2 SWAP1 DUP3 SWAP1 PUSH32 0x8BE0079C531659141344CD1FD0A4F28419497F9722A3DAAFE3B4186F6B6457E0 SWAP1 PUSH1 0x0 SWAP1 LOG3 POP POP JUMP JUMPDEST PUSH1 0x0 SLOAD PUSH2 0x100 SWAP1 DIV PUSH1 0xFF AND PUSH2 0x1991 JUMPI PUSH1 0x40 MLOAD PUSH3 0x461BCD PUSH1 0xE5 SHL DUP2 MSTORE PUSH1 0x4 ADD PUSH2 0x56F SWAP1 PUSH2 0x229A JUMP JUMPDEST PUSH2 0xA27 PUSH2 0x1B35 JUMP JUMPDEST PUSH1 0x0 SLOAD PUSH2 0x100 SWAP1 DIV PUSH1 0xFF AND PUSH2 0x19C0 JUMPI PUSH1 0x40 MLOAD PUSH3 0x461BCD PUSH1 0xE5 SHL DUP2 MSTORE PUSH1 0x4 ADD PUSH2 0x56F SWAP1 PUSH2 0x229A JUMP JUMPDEST PUSH2 0xA27 PUSH2 0x1B68 JUMP JUMPDEST PUSH1 0x0 SLOAD PUSH2 0x100 SWAP1 DIV PUSH1 0xFF AND PUSH2 0xA27 JUMPI PUSH1 0x40 MLOAD PUSH3 0x461BCD PUSH1 0xE5 SHL DUP2 MSTORE PUSH1 0x4 ADD PUSH2 0x56F SWAP1 PUSH2 0x229A JUMP JUMPDEST PUSH1 0x65 SLOAD PUSH1 0xFF AND ISZERO PUSH2 0xA27 JUMPI PUSH1 0x40 MLOAD PUSH3 0x461BCD PUSH1 0xE5 SHL DUP2 MSTORE PUSH1 0x20 PUSH1 0x4 DUP3 ADD MSTORE PUSH1 0x10 PUSH1 0x24 DUP3 ADD MSTORE PUSH16 0x14185D5CD8589B194E881C185D5CD959 PUSH1 0x82 SHL PUSH1 0x44 DUP3 ADD MSTORE PUSH1 0x64 ADD PUSH2 0x56F JUMP JUMPDEST PUSH2 0x1A3D PUSH2 0x1B98 JUMP JUMPDEST PUSH1 0x65 DUP1 SLOAD PUSH1 0xFF NOT AND SWAP1 SSTORE PUSH32 0x5DB9EE0A495BF2E6FF9C91A7834C1BA4FDD244A5E8AA4E537BD38AEAE4B073AA CALLER PUSH2 0x1788 JUMP JUMPDEST PUSH1 0x1 PUSH1 0x1 PUSH1 0xA0 SHL SUB DUP2 AND EXTCODESIZE PUSH2 0x1ADB JUMPI PUSH1 0x40 MLOAD PUSH3 0x461BCD PUSH1 0xE5 SHL DUP2 MSTORE PUSH1 0x20 PUSH1 0x4 DUP3 ADD MSTORE PUSH1 0x2D PUSH1 0x24 DUP3 ADD MSTORE PUSH32 0x455243313936373A206E657720696D706C656D656E746174696F6E206973206E PUSH1 0x44 DUP3 ADD MSTORE PUSH13 0x1BDD08184818DBDB9D1C9858DD PUSH1 0x9A SHL PUSH1 0x64 DUP3 ADD MSTORE PUSH1 0x84 ADD PUSH2 0x56F JUMP JUMPDEST PUSH1 0x0 DUP1 MLOAD PUSH1 0x20 PUSH2 0x2359 DUP4 CODECOPY DUP2 MLOAD SWAP2 MSTORE DUP1 SLOAD PUSH1 0x1 PUSH1 0x1 PUSH1 0xA0 SHL SUB NOT AND PUSH1 0x1 PUSH1 0x1 PUSH1 0xA0 SHL SUB SWAP3 SWAP1 SWAP3 AND SWAP2 SWAP1 SWAP2 OR SWAP1 SSTORE JUMP JUMPDEST PUSH2 0x1B13 DUP4 PUSH2 0x1BE1 JUMP JUMPDEST PUSH1 0x0 DUP3 MLOAD GT DUP1 PUSH2 0x1B20 JUMPI POP DUP1 JUMPDEST ISZERO PUSH2 0x46D JUMPI PUSH2 0x1B2F DUP4 DUP4 PUSH2 0x1C21 JUMP JUMPDEST POP POP POP POP JUMP JUMPDEST PUSH1 0x0 SLOAD PUSH2 0x100 SWAP1 DIV PUSH1 0xFF AND PUSH2 0x1B5C JUMPI PUSH1 0x40 MLOAD PUSH3 0x461BCD PUSH1 0xE5 SHL DUP2 MSTORE PUSH1 0x4 ADD PUSH2 0x56F SWAP1 PUSH2 0x229A JUMP JUMPDEST PUSH1 0x65 DUP1 SLOAD PUSH1 0xFF NOT AND SWAP1 SSTORE JUMP JUMPDEST PUSH1 0x0 SLOAD PUSH2 0x100 SWAP1 DIV PUSH1 0xFF AND PUSH2 0x1B8F JUMPI PUSH1 0x40 MLOAD PUSH3 0x461BCD PUSH1 0xE5 SHL DUP2 MSTORE PUSH1 0x4 ADD PUSH2 0x56F SWAP1 PUSH2 0x229A JUMP JUMPDEST PUSH2 0xA27 CALLER PUSH2 0x1918 JUMP JUMPDEST PUSH1 0x65 SLOAD PUSH1 0xFF AND PUSH2 0xA27 JUMPI PUSH1 0x40 MLOAD PUSH3 0x461BCD PUSH1 0xE5 SHL DUP2 MSTORE PUSH1 0x20 PUSH1 0x4 DUP3 ADD MSTORE PUSH1 0x14 PUSH1 0x24 DUP3 ADD MSTORE PUSH20 0x14185D5CD8589B194E881B9BDD081C185D5CD959 PUSH1 0x62 SHL PUSH1 0x44 DUP3 ADD MSTORE PUSH1 0x64 ADD PUSH2 0x56F JUMP JUMPDEST PUSH2 0x1BEA DUP2 PUSH2 0x1A6E JUMP JUMPDEST PUSH1 0x40 MLOAD PUSH1 0x1 PUSH1 0x1 PUSH1 0xA0 SHL SUB DUP3 AND SWAP1 PUSH32 0xBC7CD75A20EE27FD9ADEBAB32041F755214DBC6BFFA90CC0225B39DA2E5C2D3B SWAP1 PUSH1 0x0 SWAP1 LOG2 POP JUMP JUMPDEST PUSH1 0x60 PUSH1 0x1 PUSH1 0x1 PUSH1 0xA0 SHL SUB DUP4 AND EXTCODESIZE PUSH2 0x1C89 JUMPI PUSH1 0x40 MLOAD PUSH3 0x461BCD PUSH1 0xE5 SHL DUP2 MSTORE PUSH1 0x20 PUSH1 0x4 DUP3 ADD MSTORE PUSH1 0x26 PUSH1 0x24 DUP3 ADD MSTORE PUSH32 0x416464726573733A2064656C65676174652063616C6C20746F206E6F6E2D636F PUSH1 0x44 DUP3 ADD MSTORE PUSH6 0x1B9D1C9858DD PUSH1 0xD2 SHL PUSH1 0x64 DUP3 ADD MSTORE PUSH1 0x84 ADD PUSH2 0x56F JUMP JUMPDEST PUSH1 0x0 DUP1 DUP5 PUSH1 0x1 PUSH1 0x1 PUSH1 0xA0 SHL SUB AND DUP5 PUSH1 0x40 MLOAD PUSH2 0x1CA4 SWAP2 SWAP1 PUSH2 0x2309 JUMP JUMPDEST PUSH1 0x0 PUSH1 0x40 MLOAD DUP1 DUP4 SUB DUP2 DUP6 GAS DELEGATECALL SWAP2 POP POP RETURNDATASIZE DUP1 PUSH1 0x0 DUP2 EQ PUSH2 0x1CDF JUMPI PUSH1 0x40 MLOAD SWAP2 POP PUSH1 0x1F NOT PUSH1 0x3F RETURNDATASIZE ADD AND DUP3 ADD PUSH1 0x40 MSTORE RETURNDATASIZE DUP3 MSTORE RETURNDATASIZE PUSH1 0x0 PUSH1 0x20 DUP5 ADD RETURNDATACOPY PUSH2 0x1CE4 JUMP JUMPDEST PUSH1 0x60 SWAP2 POP JUMPDEST POP SWAP2 POP SWAP2 POP PUSH2 0x1D0C DUP3 DUP3 PUSH1 0x40 MLOAD DUP1 PUSH1 0x60 ADD PUSH1 0x40 MSTORE DUP1 PUSH1 0x27 DUP2 MSTORE PUSH1 0x20 ADD PUSH2 0x2379 PUSH1 0x27 SWAP2 CODECOPY PUSH2 0x1D17 JUMP JUMPDEST SWAP3 POP POP POP JUMPDEST SWAP3 SWAP2 POP POP JUMP JUMPDEST PUSH1 0x60 DUP4 ISZERO PUSH2 0x1D26 JUMPI POP DUP2 PUSH2 0x1D30 JUMP JUMPDEST PUSH2 0x1D30 DUP4 DUP4 PUSH2 0x1D37 JUMP JUMPDEST SWAP4 SWAP3 POP POP POP JUMP JUMPDEST DUP2 MLOAD ISZERO PUSH2 0x1D47 JUMPI DUP2 MLOAD DUP1 DUP4 PUSH1 0x20 ADD REVERT JUMPDEST DUP1 PUSH1 0x40 MLOAD PUSH3 0x461BCD PUSH1 0xE5 SHL DUP2 MSTORE PUSH1 0x4 ADD PUSH2 0x56F SWAP2 SWAP1 PUSH2 0x2325 JUMP JUMPDEST PUSH1 0x1 PUSH1 0x1 PUSH1 0xA0 SHL SUB DUP2 AND DUP2 EQ PUSH2 0xB05 JUMPI PUSH1 0x0 DUP1 REVERT JUMPDEST PUSH1 0x0 DUP1 PUSH1 0x40 DUP4 DUP6 SUB SLT ISZERO PUSH2 0x1D89 JUMPI PUSH1 0x0 DUP1 REVERT JUMPDEST DUP3 CALLDATALOAD PUSH2 0x1D94 DUP2 PUSH2 0x1D61 JUMP JUMPDEST SWAP5 PUSH1 0x20 SWAP4 SWAP1 SWAP4 ADD CALLDATALOAD SWAP4 POP POP POP JUMP JUMPDEST PUSH1 0x0 PUSH1 0x20 DUP3 DUP5 SUB SLT ISZERO PUSH2 0x1DB4 JUMPI PUSH1 0x0 DUP1 REVERT JUMPDEST DUP2 CALLDATALOAD PUSH2 0x1D30 DUP2 PUSH2 0x1D61 JUMP JUMPDEST PUSH1 0x0 PUSH1 0x20 DUP3 DUP5 SUB SLT ISZERO PUSH2 0x1DD1 JUMPI PUSH1 0x0 DUP1 REVERT JUMPDEST POP CALLDATALOAD SWAP2 SWAP1 POP JUMP JUMPDEST PUSH1 0x0 DUP1 DUP4 PUSH1 0x1F DUP5 ADD SLT PUSH2 0x1DEA JUMPI PUSH1 0x0 DUP1 REVERT JUMPDEST POP DUP2 CALLDATALOAD PUSH8 0xFFFFFFFFFFFFFFFF DUP2 GT ISZERO PUSH2 0x1E02 JUMPI PUSH1 0x0 DUP1 REVERT JUMPDEST PUSH1 0x20 DUP4 ADD SWAP2 POP DUP4 PUSH1 0x20 DUP3 PUSH1 0x5 SHL DUP6 ADD ADD GT ISZERO PUSH2 0x1E1D JUMPI PUSH1 0x0 DUP1 REVERT JUMPDEST SWAP3 POP SWAP3 SWAP1 POP JUMP JUMPDEST PUSH1 0x0 DUP1 PUSH1 0x0 DUP1 PUSH1 0x0 DUP1 PUSH1 0x60 DUP8 DUP10 SUB SLT ISZERO PUSH2 0x1E3D JUMPI PUSH1 0x0 DUP1 REVERT JUMPDEST DUP7 CALLDATALOAD PUSH8 0xFFFFFFFFFFFFFFFF DUP1 DUP3 GT ISZERO PUSH2 0x1E55 JUMPI PUSH1 0x0 DUP1 REVERT JUMPDEST PUSH2 0x1E61 DUP11 DUP4 DUP12 ADD PUSH2 0x1DD8 JUMP JUMPDEST SWAP1 SWAP9 POP SWAP7 POP PUSH1 0x20 DUP10 ADD CALLDATALOAD SWAP2 POP DUP1 DUP3 GT ISZERO PUSH2 0x1E7A JUMPI PUSH1 0x0 DUP1 REVERT JUMPDEST PUSH2 0x1E86 DUP11 DUP4 DUP12 ADD PUSH2 0x1DD8 JUMP JUMPDEST SWAP1 SWAP7 POP SWAP5 POP PUSH1 0x40 DUP10 ADD CALLDATALOAD SWAP2 POP DUP1 DUP3 GT ISZERO PUSH2 0x1E9F JUMPI PUSH1 0x0 DUP1 REVERT JUMPDEST POP PUSH2 0x1EAC DUP10 DUP3 DUP11 ADD PUSH2 0x1DD8 JUMP JUMPDEST SWAP8 SWAP11 SWAP7 SWAP10 POP SWAP5 SWAP8 POP SWAP3 SWAP6 SWAP4 SWAP5 SWAP3 POP POP POP JUMP JUMPDEST PUSH4 0x4E487B71 PUSH1 0xE0 SHL PUSH1 0x0 MSTORE PUSH1 0x41 PUSH1 0x4 MSTORE PUSH1 0x24 PUSH1 0x0 REVERT JUMPDEST PUSH1 0x40 MLOAD PUSH1 0x1F DUP3 ADD PUSH1 0x1F NOT AND DUP2 ADD PUSH8 0xFFFFFFFFFFFFFFFF DUP2 GT DUP3 DUP3 LT OR ISZERO PUSH2 0x1EFD JUMPI PUSH2 0x1EFD PUSH2 0x1EBE JUMP JUMPDEST PUSH1 0x40 MSTORE SWAP2 SWAP1 POP JUMP JUMPDEST PUSH1 0x0 DUP1 PUSH1 0x40 DUP4 DUP6 SUB SLT ISZERO PUSH2 0x1F18 JUMPI PUSH1 0x0 DUP1 REVERT JUMPDEST DUP3 CALLDATALOAD PUSH2 0x1F23 DUP2 PUSH2 0x1D61 JUMP JUMPDEST SWAP2 POP PUSH1 0x20 DUP4 DUP2 ADD CALLDATALOAD PUSH8 0xFFFFFFFFFFFFFFFF DUP1 DUP3 GT ISZERO PUSH2 0x1F41 JUMPI PUSH1 0x0 DUP1 REVERT JUMPDEST DUP2 DUP7 ADD SWAP2 POP DUP7 PUSH1 0x1F DUP4 ADD SLT PUSH2 0x1F55 JUMPI PUSH1 0x0 DUP1 REVERT JUMPDEST DUP2 CALLDATALOAD DUP2 DUP2 GT ISZERO PUSH2 0x1F67 JUMPI PUSH2 0x1F67 PUSH2 0x1EBE JUMP JUMPDEST PUSH2 0x1F79 PUSH1 0x1F DUP3 ADD PUSH1 0x1F NOT AND DUP6 ADD PUSH2 0x1ED4 JUMP JUMPDEST SWAP2 POP DUP1 DUP3 MSTORE DUP8 DUP5 DUP3 DUP6 ADD ADD GT ISZERO PUSH2 0x1F8F JUMPI PUSH1 0x0 DUP1 REVERT JUMPDEST DUP1 DUP5 DUP5 ADD DUP6 DUP5 ADD CALLDATACOPY PUSH1 0x0 DUP5 DUP3 DUP5 ADD ADD MSTORE POP DUP1 SWAP4 POP POP POP POP SWAP3 POP SWAP3 SWAP1 POP JUMP JUMPDEST DUP1 ISZERO ISZERO DUP2 EQ PUSH2 0xB05 JUMPI PUSH1 0x0 DUP1 REVERT JUMPDEST PUSH1 0x0 DUP1 PUSH1 0x0 DUP1 PUSH1 0x0 PUSH1 0xA0 DUP7 DUP9 SUB SLT ISZERO PUSH2 0x1FD3 JUMPI PUSH1 0x0 DUP1 REVERT JUMPDEST DUP6 CALLDATALOAD SWAP5 POP PUSH1 0x20 DUP7 ADD CALLDATALOAD PUSH2 0x1FE5 DUP2 PUSH2 0x1FAD JUMP JUMPDEST SWAP4 POP PUSH1 0x40 DUP7 ADD CALLDATALOAD PUSH2 0x1FF5 DUP2 PUSH2 0x1FAD JUMP JUMPDEST SWAP3 POP PUSH1 0x60 DUP7 ADD CALLDATALOAD PUSH2 0x2005 DUP2 PUSH2 0x1FAD JUMP JUMPDEST SWAP5 SWAP8 SWAP4 SWAP7 POP SWAP2 SWAP5 PUSH1 0x80 ADD CALLDATALOAD SWAP3 SWAP2 POP POP JUMP JUMPDEST PUSH1 0x0 PUSH1 0x20 DUP3 DUP5 SUB SLT ISZERO PUSH2 0x2028 JUMPI PUSH1 0x0 DUP1 REVERT JUMPDEST DUP2 MLOAD PUSH2 0x1D30 DUP2 PUSH2 0x1FAD JUMP JUMPDEST PUSH1 0x0 PUSH1 0x20 DUP3 DUP5 SUB SLT ISZERO PUSH2 0x2045 JUMPI PUSH1 0x0 DUP1 REVERT JUMPDEST POP MLOAD SWAP2 SWAP1 POP JUMP JUMPDEST PUSH4 0x4E487B71 PUSH1 0xE0 SHL PUSH1 0x0 MSTORE PUSH1 0x32 PUSH1 0x4 MSTORE PUSH1 0x24 PUSH1 0x0 REVERT JUMPDEST PUSH4 0x4E487B71 PUSH1 0xE0 SHL PUSH1 0x0 MSTORE PUSH1 0x11 PUSH1 0x4 MSTORE PUSH1 0x24 PUSH1 0x0 REVERT JUMPDEST DUP1 DUP3 MUL DUP2 ISZERO DUP3 DUP3 DIV DUP5 EQ OR PUSH2 0x1D11 JUMPI PUSH2 0x1D11 PUSH2 0x2062 JUMP JUMPDEST PUSH1 0x0 PUSH1 0x20 DUP3 DUP5 SUB SLT ISZERO PUSH2 0x20A1 JUMPI PUSH1 0x0 DUP1 REVERT JUMPDEST DUP2 MLOAD PUSH2 0x1D30 DUP2 PUSH2 0x1D61 JUMP JUMPDEST DUP2 DUP2 SUB DUP2 DUP2 GT ISZERO PUSH2 0x1D11 JUMPI PUSH2 0x1D11 PUSH2 0x2062 JUMP JUMPDEST PUSH1 0x0 PUSH1 0x1 DUP3 ADD PUSH2 0x20D1 JUMPI PUSH2 0x20D1 PUSH2 0x2062 JUMP JUMPDEST POP PUSH1 0x1 ADD SWAP1 JUMP JUMPDEST PUSH1 0x20 DUP1 DUP3 MSTORE PUSH1 0x2C SWAP1 DUP3 ADD MSTORE PUSH32 0x46756E6374696F6E206D7573742062652063616C6C6564207468726F75676820 PUSH1 0x40 DUP3 ADD MSTORE PUSH12 0x19195B1959D85D1958D85B1B PUSH1 0xA2 SHL PUSH1 0x60 DUP3 ADD MSTORE PUSH1 0x80 ADD SWAP1 JUMP JUMPDEST PUSH1 0x20 DUP1 DUP3 MSTORE PUSH1 0x2C SWAP1 DUP3 ADD MSTORE PUSH32 0x46756E6374696F6E206D7573742062652063616C6C6564207468726F75676820 PUSH1 0x40 DUP3 ADD MSTORE PUSH12 0x6163746976652070726F7879 PUSH1 0xA0 SHL PUSH1 0x60 DUP3 ADD MSTORE PUSH1 0x80 ADD SWAP1 JUMP JUMPDEST DUP1 DUP3 ADD DUP1 DUP3 GT ISZERO PUSH2 0x1D11 JUMPI PUSH2 0x1D11 PUSH2 0x2062 JUMP JUMPDEST PUSH1 0x0 PUSH1 0xA0 DUP3 ADD DUP8 DUP4 MSTORE PUSH1 0x20 DUP8 DUP2 DUP6 ADD MSTORE PUSH1 0xA0 PUSH1 0x40 DUP6 ADD MSTORE DUP2 DUP8 MLOAD DUP1 DUP5 MSTORE PUSH1 0xC0 DUP7 ADD SWAP2 POP DUP3 DUP10 ADD SWAP4 POP PUSH1 0x0 JUMPDEST DUP2 DUP2 LT ISZERO PUSH2 0x21D3 JUMPI DUP5 MLOAD PUSH1 0x1 PUSH1 0x1 PUSH1 0xA0 SHL SUB AND DUP4 MSTORE SWAP4 DUP4 ADD SWAP4 SWAP2 DUP4 ADD SWAP2 PUSH1 0x1 ADD PUSH2 0x21AE JUMP JUMPDEST POP POP PUSH1 0x1 PUSH1 0x1 PUSH1 0xA0 SHL SUB SWAP7 SWAP1 SWAP7 AND PUSH1 0x60 DUP6 ADD MSTORE POP POP POP PUSH1 0x80 ADD MSTORE SWAP4 SWAP3 POP POP POP JUMP JUMPDEST PUSH1 0x0 PUSH1 0x20 DUP1 DUP4 DUP6 SUB SLT ISZERO PUSH2 0x2207 JUMPI PUSH1 0x0 DUP1 REVERT JUMPDEST DUP3 MLOAD PUSH8 0xFFFFFFFFFFFFFFFF DUP1 DUP3 GT ISZERO PUSH2 0x221F JUMPI PUSH1 0x0 DUP1 REVERT JUMPDEST DUP2 DUP6 ADD SWAP2 POP DUP6 PUSH1 0x1F DUP4 ADD SLT PUSH2 0x2233 JUMPI PUSH1 0x0 DUP1 REVERT JUMPDEST DUP2 MLOAD DUP2 DUP2 GT ISZERO PUSH2 0x2245 JUMPI PUSH2 0x2245 PUSH2 0x1EBE JUMP JUMPDEST DUP1 PUSH1 0x5 SHL SWAP2 POP PUSH2 0x2256 DUP5 DUP4 ADD PUSH2 0x1ED4 JUMP JUMPDEST DUP2 DUP2 MSTORE SWAP2 DUP4 ADD DUP5 ADD SWAP2 DUP5 DUP2 ADD SWAP1 DUP9 DUP5 GT ISZERO PUSH2 0x2270 JUMPI PUSH1 0x0 DUP1 REVERT JUMPDEST SWAP4 DUP6 ADD SWAP4 JUMPDEST DUP4 DUP6 LT ISZERO PUSH2 0x228E JUMPI DUP5 MLOAD DUP3 MSTORE SWAP4 DUP6 ADD SWAP4 SWAP1 DUP6 ADD SWAP1 PUSH2 0x2275 JUMP JUMPDEST SWAP9 SWAP8 POP POP POP POP POP POP POP POP JUMP JUMPDEST PUSH1 0x20 DUP1 DUP3 MSTORE PUSH1 0x2B SWAP1 DUP3 ADD MSTORE PUSH32 0x496E697469616C697A61626C653A20636F6E7472616374206973206E6F742069 PUSH1 0x40 DUP3 ADD MSTORE PUSH11 0x6E697469616C697A696E67 PUSH1 0xA8 SHL PUSH1 0x60 DUP3 ADD MSTORE PUSH1 0x80 ADD SWAP1 JUMP JUMPDEST PUSH1 0x0 JUMPDEST DUP4 DUP2 LT ISZERO PUSH2 0x2300 JUMPI DUP2 DUP2 ADD MLOAD DUP4 DUP3 ADD MSTORE PUSH1 0x20 ADD PUSH2 0x22E8 JUMP JUMPDEST POP POP PUSH1 0x0 SWAP2 ADD MSTORE JUMP JUMPDEST PUSH1 0x0 DUP3 MLOAD PUSH2 0x231B DUP2 DUP5 PUSH1 0x20 DUP8 ADD PUSH2 0x22E5 JUMP JUMPDEST SWAP2 SWAP1 SWAP2 ADD SWAP3 SWAP2 POP POP JUMP JUMPDEST PUSH1 0x20 DUP2 MSTORE PUSH1 0x0 DUP3 MLOAD DUP1 PUSH1 0x20 DUP5 ADD MSTORE PUSH2 0x2344 DUP2 PUSH1 0x40 DUP6 ADD PUSH1 0x20 DUP8 ADD PUSH2 0x22E5 JUMP JUMPDEST PUSH1 0x1F ADD PUSH1 0x1F NOT AND SWAP2 SWAP1 SWAP2 ADD PUSH1 0x40 ADD SWAP3 SWAP2 POP POP JUMP INVALID CALLDATASIZE ADDMOD SWAP5 LOG1 EXTCODESIZE LOG1 LOG3 0x21 MOD PUSH8 0xC828492DB98DCA3E KECCAK256 PUSH23 0xCC3735A920A3CA505D382BBC416464726573733A206C6F PUSH24 0x2D6C6576656C2064656C65676174652063616C6C20666169 PUSH13 0x6564A264697066735822122077 EXTCODECOPY 0x49 0xDA PUSH10 0xFBA250650FAF4A3AD8AC CALLVALUE 0xDA SWAP9 0xEE XOR SLOAD LT RETURNDATACOPY ISZERO 0xBE PUSH15 0xC2D0E86E388764736F6C6343000811 STOP CALLER "},"methodIdentifiers":{"BuyWithANUSD(address,uint256)":"b9439d20","BuyWithANUSDAdmin(address[],address[],uint256[])":"182feeaa","admins(uint256)":"14bfd6d0","getAnalystics()":"4f0371d7","getCapping()":"de863da3","getVariablesContract()":"f13a143f","initialize()":"8129fc1c","owner()":"8da5cb5b","pauseAdmin()":"2f11d653","paused()":"5c975abb","proxiableUUID()":"52d1902d","renounceOwnership()":"715018a6","setCapping(uint256,bool,bool,bool,uint256)":"6740090a","setVariablesContract(address)":"0ba0dba3","transferETH(address,uint256)":"7b1a4909","transferOwnership(address)":"f2fde38b","unpauseAdmin()":"db5184e6","upgradeTo(address)":"3659cfe6","upgradeToAndCall(address,bytes)":"4f1ef286","withdrawETH()":"e086e5ec","withdrawTokens(address,uint256)":"06b091f9"}},"storageLayout":{"storage":[{"astId":573,"contract":"contracts/PresaleUpgradeable.sol:PresaleUpgradeable","label":"_initialized","offset":0,"slot":"0","type":"t_uint8"},{"astId":576,"contract":"contracts/PresaleUpgradeable.sol:PresaleUpgradeable","label":"_initializing","offset":1,"slot":"0","type":"t_bool"},{"astId":1401,"contract":"contracts/PresaleUpgradeable.sol:PresaleUpgradeable","label":"__gap","offset":0,"slot":"1","type":"t_array(t_uint256)50_storage"},{"astId":56,"contract":"contracts/PresaleUpgradeable.sol:PresaleUpgradeable","label":"_owner","offset":0,"slot":"51","type":"t_address"},{"astId":176,"contract":"contracts/PresaleUpgradeable.sol:PresaleUpgradeable","label":"__gap","offset":0,"slot":"52","type":"t_array(t_uint256)49_storage"},{"astId":892,"contract":"contracts/PresaleUpgradeable.sol:PresaleUpgradeable","label":"_paused","offset":0,"slot":"101","type":"t_bool"},{"astId":997,"contract":"contracts/PresaleUpgradeable.sol:PresaleUpgradeable","label":"__gap","offset":0,"slot":"102","type":"t_array(t_uint256)49_storage"},{"astId":555,"contract":"contracts/PresaleUpgradeable.sol:PresaleUpgradeable","label":"__gap","offset":0,"slot":"151","type":"t_array(t_uint256)50_storage"},{"astId":870,"contract":"contracts/PresaleUpgradeable.sol:PresaleUpgradeable","label":"__gap","offset":0,"slot":"201","type":"t_array(t_uint256)50_storage"},{"astId":2757,"contract":"contracts/PresaleUpgradeable.sol:PresaleUpgradeable","label":"_variableContract","offset":0,"slot":"251","type":"t_address"},{"astId":2759,"contract":"contracts/PresaleUpgradeable.sol:PresaleUpgradeable","label":"_rewardPerAUSD","offset":0,"slot":"252","type":"t_uint256"},{"astId":2761,"contract":"contracts/PresaleUpgradeable.sol:PresaleUpgradeable","label":"_minContributionUSD","offset":0,"slot":"253","type":"t_uint256"},{"astId":2763,"contract":"contracts/PresaleUpgradeable.sol:PresaleUpgradeable","label":"_totalTokenSold","offset":0,"slot":"254","type":"t_uint256"},{"astId":2765,"contract":"contracts/PresaleUpgradeable.sol:PresaleUpgradeable","label":"_totalAUSDRaised","offset":0,"slot":"255","type":"t_uint256"},{"astId":2767,"contract":"contracts/PresaleUpgradeable.sol:PresaleUpgradeable","label":"_isBuyNStake","offset":0,"slot":"256","type":"t_bool"},{"astId":2769,"contract":"contracts/PresaleUpgradeable.sol:PresaleUpgradeable","label":"_isPayReferral","offset":1,"slot":"256","type":"t_bool"},{"astId":2771,"contract":"contracts/PresaleUpgradeable.sol:PresaleUpgradeable","label":"_isPayRewardTokens","offset":2,"slot":"256","type":"t_bool"},{"astId":2773,"contract":"contracts/PresaleUpgradeable.sol:PresaleUpgradeable","label":"_maxBuyLimitANUSD","offset":0,"slot":"257","type":"t_uint256"},{"astId":2845,"contract":"contracts/PresaleUpgradeable.sol:PresaleUpgradeable","label":"admins","offset":0,"slot":"258","type":"t_array(t_address)dyn_storage"}],"types":{"t_address":{"encoding":"inplace","label":"address","numberOfBytes":"20"},"t_array(t_address)dyn_storage":{"base":"t_address","encoding":"dynamic_array","label":"address[]","numberOfBytes":"32"},"t_array(t_uint256)49_storage":{"base":"t_uint256","encoding":"inplace","label":"uint256[49]","numberOfBytes":"1568"},"t_array(t_uint256)50_storage":{"base":"t_uint256","encoding":"inplace","label":"uint256[50]","numberOfBytes":"1600"},"t_bool":{"encoding":"inplace","label":"bool","numberOfBytes":"1"},"t_uint256":{"encoding":"inplace","label":"uint256","numberOfBytes":"32"},"t_uint8":{"encoding":"inplace","label":"uint8","numberOfBytes":"1"}}}}}}