{"contracts/PresaleUpgradeable.sol":{"PresaleUpgradeable":{"abi":[{"anonymous":false,"inputs":[{"indexed":false,"internalType":"address","name":"previousAdmin","type":"address"},{"indexed":false,"internalType":"address","name":"newAdmin","type":"address"}],"name":"AdminChanged","type":"event"},{"anonymous":false,"inputs":[{"indexed":true,"internalType":"address","name":"beacon","type":"address"}],"name":"BeaconUpgraded","type":"event"},{"anonymous":false,"inputs":[{"indexed":false,"internalType":"uint8","name":"version","type":"uint8"}],"name":"Initialized","type":"event"},{"anonymous":false,"inputs":[{"indexed":true,"internalType":"address","name":"previousOwner","type":"address"},{"indexed":true,"internalType":"address","name":"newOwner","type":"address"}],"name":"OwnershipTransferred","type":"event"},{"anonymous":false,"inputs":[{"indexed":false,"internalType":"address","name":"account","type":"address"}],"name":"Paused","type":"event"},{"anonymous":false,"inputs":[{"indexed":false,"internalType":"uint256","name":"amount","type":"uint256"}],"name":"RegistrationFees","type":"event"},{"anonymous":false,"inputs":[{"indexed":true,"internalType":"address","name":"to","type":"address"},{"indexed":true,"internalType":"uint256","name":"tokenValue","type":"uint256"},{"indexed":true,"internalType":"address","name":"rewardTokenContract","type":"address"}],"name":"RewardTokenDistributed","type":"event"},{"anonymous":false,"inputs":[{"indexed":true,"internalType":"address","name":"from","type":"address"},{"indexed":true,"internalType":"uint256","name":"tokenValue","type":"uint256"},{"indexed":true,"internalType":"uint256","name":"ethValue","type":"uint256"},{"indexed":false,"internalType":"string","name":"currency","type":"string"}],"name":"TokenPurchased","type":"event"},{"anonymous":false,"inputs":[{"indexed":false,"internalType":"address","name":"account","type":"address"}],"name":"Unpaused","type":"event"},{"anonymous":false,"inputs":[{"indexed":true,"internalType":"address","name":"implementation","type":"address"}],"name":"Upgraded","type":"event"},{"inputs":[{"internalType":"address","name":"_referrerAddress","type":"address"},{"internalType":"uint256","name":"_valueInWei","type":"uint256"}],"name":"BuyWithANUSD","outputs":[],"stateMutability":"nonpayable","type":"function"},{"inputs":[{"internalType":"address[]","name":"_userAddress","type":"address[]"},{"internalType":"address[]","name":"_referrerAddress","type":"address[]"},{"internalType":"uint256[]","name":"_valueInUSDDecimals","type":"uint256[]"}],"name":"BuyWithANUSDAdmin","outputs":[],"stateMutability":"nonpayable","type":"function"},{"inputs":[{"internalType":"address","name":"_userAddress","type":"address"},{"internalType":"address","name":"_referrerAddress","type":"address"},{"internalType":"uint256","name":"_valueInDecimals","type":"uint256"}],"name":"BuyWithANUSDManager","outputs":[],"stateMutability":"nonpayable","type":"function"},{"inputs":[{"internalType":"uint256","name":"","type":"uint256"}],"name":"admins","outputs":[{"internalType":"address","name":"","type":"address"}],"stateMutability":"view","type":"function"},{"inputs":[],"name":"getAnalystics","outputs":[{"internalType":"uint256","name":"tokenSold","type":"uint256"},{"internalType":"uint256","name":"ausdRaised","type":"uint256"}],"stateMutability":"view","type":"function"},{"inputs":[],"name":"getCapping","outputs":[{"internalType":"uint256","name":"minConUSD","type":"uint256"},{"internalType":"bool","name":"isBuyStakeEnabled","type":"bool"},{"internalType":"bool","name":"isPayReferralEnabled","type":"bool"},{"internalType":"bool","name":"isPayRewardTokenEnabled","type":"bool"},{"internalType":"uint256","name":"maxBuyLimitANUSD","type":"uint256"}],"stateMutability":"view","type":"function"},{"inputs":[],"name":"getVariablesContract","outputs":[{"internalType":"address","name":"","type":"address"}],"stateMutability":"view","type":"function"},{"inputs":[],"name":"initialize","outputs":[],"stateMutability":"nonpayable","type":"function"},{"inputs":[],"name":"owner","outputs":[{"internalType":"address","name":"","type":"address"}],"stateMutability":"view","type":"function"},{"inputs":[],"name":"pauseAdmin","outputs":[],"stateMutability":"nonpayable","type":"function"},{"inputs":[],"name":"paused","outputs":[{"internalType":"bool","name":"","type":"bool"}],"stateMutability":"view","type":"function"},{"inputs":[],"name":"proxiableUUID","outputs":[{"internalType":"bytes32","name":"","type":"bytes32"}],"stateMutability":"view","type":"function"},{"inputs":[],"name":"renounceOwnership","outputs":[],"stateMutability":"nonpayable","type":"function"},{"inputs":[{"internalType":"uint256","name":"minConUSD","type":"uint256"},{"internalType":"bool","name":"isBuyNStake","type":"bool"},{"internalType":"bool","name":"isPayReferral","type":"bool"},{"internalType":"bool","name":"isPayRewardTokens","type":"bool"},{"internalType":"uint256","name":"maxBuyLimitANUSD","type":"uint256"}],"name":"setCapping","outputs":[],"stateMutability":"nonpayable","type":"function"},{"inputs":[{"internalType":"address","name":"_contractAddress","type":"address"}],"name":"setVariablesContract","outputs":[],"stateMutability":"nonpayable","type":"function"},{"inputs":[{"internalType":"address","name":"_address","type":"address"},{"internalType":"uint256","name":"_value","type":"uint256"}],"name":"transferETH","outputs":[],"stateMutability":"nonpayable","type":"function"},{"inputs":[{"internalType":"address","name":"newOwner","type":"address"}],"name":"transferOwnership","outputs":[],"stateMutability":"nonpayable","type":"function"},{"inputs":[],"name":"unpauseAdmin","outputs":[],"stateMutability":"nonpayable","type":"function"},{"inputs":[{"internalType":"address","name":"newImplementation","type":"address"}],"name":"upgradeTo","outputs":[],"stateMutability":"nonpayable","type":"function"},{"inputs":[{"internalType":"address","name":"newImplementation","type":"address"},{"internalType":"bytes","name":"data","type":"bytes"}],"name":"upgradeToAndCall","outputs":[],"stateMutability":"payable","type":"function"},{"inputs":[],"name":"withdrawETH","outputs":[],"stateMutability":"nonpayable","type":"function"},{"inputs":[{"internalType":"address","name":"_tokenAddress","type":"address"},{"internalType":"uint256","name":"_value","type":"uint256"}],"name":"withdrawTokens","outputs":[],"stateMutability":"nonpayable","type":"function"},{"stateMutability":"payable","type":"receive"}],"evm":{"bytecode":{"linkReferences":{},"object":"60a06040523060805234801561001457600080fd5b50608051612afa61004c6000396000818161111001528181611150015281816111ef0152818161122f01526112c20152612afa6000f3fe6080604052600436106101395760003560e01c80636740090a116100ab578063b9439d201161006f578063b9439d2014610342578063db5184e614610362578063de863da314610377578063e086e5ec146103cc578063f13a143f146103e1578063f2fde38b146103ff57600080fd5b80636740090a146102ba578063715018a6146102da5780637b1a4909146102ef5780638129fc1c1461030f5780638da5cb5b1461032457600080fd5b80632f11d653116100fd5780632f11d653146102045780633659cfe6146102195780634f0371d7146102395780634f1ef2861461026157806352d1902d146102745780635c975abb1461029757600080fd5b806306b091f9146101455780630ba0dba31461016757806314bfd6d01461018757806315fcd116146101c4578063182feeaa146101e457600080fd5b3661014057005b600080fd5b34801561015157600080fd5b50610165610160366004612417565b61041f565b005b34801561017357600080fd5b50610165610182366004612443565b61049d565b34801561019357600080fd5b506101a76101a2366004612460565b6104c7565b6040516001600160a01b0390911681526020015b60405180910390f35b3480156101d057600080fd5b506101656101df366004612479565b6104f2565b3480156101f057600080fd5b506101656101ff366004612506565b610ca0565b34801561021057600080fd5b506101656110f4565b34801561022557600080fd5b50610165610234366004612443565b611106565b34801561024557600080fd5b5060fe5460ff54604080519283526020830191909152016101bb565b61016561026f3660046125e7565b6111e5565b34801561028057600080fd5b506102896112b5565b6040519081526020016101bb565b3480156102a357600080fd5b5060655460ff1660405190151581526020016101bb565b3480156102c657600080fd5b506101656102d536600461269d565b611368565b3480156102e657600080fd5b506101656113af565b3480156102fb57600080fd5b5061016561030a366004612417565b6113c1565b34801561031b57600080fd5b506101656113ff565b34801561033057600080fd5b506033546001600160a01b03166101a7565b34801561034e57600080fd5b5061016561035d366004612417565b61157d565b34801561036e57600080fd5b50610165611b55565b34801561038357600080fd5b5060fd546101008054610101546040805194855260ff8084161515602087015293830484161515908501526201000090910490911615156060830152608082015260a0016101bb565b3480156103d857600080fd5b50610165611b65565b3480156103ed57600080fd5b5060fb546001600160a01b03166101a7565b34801561040b57600080fd5b5061016561041a366004612443565b611b99565b610427611c0f565b60405163a9059cbb60e01b8152336004820152602481018290526001600160a01b0383169063a9059cbb906044016020604051808303816000875af1158015610474573d6000803e3d6000fd5b505050506040513d601f19601f8201168201806040525081019061049891906126f8565b505050565b6104a5611c0f565b60fb80546001600160a01b0319166001600160a01b0392909216919091179055565b61010281815481106104d857600080fd5b6000918252602090912001546001600160a01b0316905081565b6104fa611c69565b60fb5460405163f3ae241560e01b81523360048201526001600160a01b039091169063f3ae241590602401602060405180830381865afa158015610542573d6000803e3d6000fd5b505050506040513d601f19601f8201168201806040525081019061056691906126f8565b6105c55760405162461bcd60e51b815260206004820152602560248201527f4f6e6c79206d616e61676572732063616e2063616c6c20746869732066756e636044820152643a34b7b71760d91b60648201526084015b60405180910390fd5b60fb54604080516312f24b5b60e21b815290516001600160a01b039092169133916000918491634bc92d6c9160048083019260209291908290030181865afa158015610615573d6000803e3d6000fd5b505050506040513d601f19601f820116820180604052508101906106399190612715565b9050600061064f85670de0b6b3a7640000612744565b905060fd548110156106735760405162461bcd60e51b81526004016105bc9061275b565b610101548111156106be5760405162461bcd60e51b815260206004820152601560248201527413585e08189d5e481b1a5b5a5d081c995858da1959605a1b60448201526064016105bc565b836001600160a01b031663b70cc4c16040518163ffffffff1660e01b8152600401602060405180830381865afa1580156106fc573d6000803e3d6000fd5b505050506040513d601f19601f82011682018060405250810190610720919061279e565b6040516323b872dd60e01b81526001600160a01b0385811660048301523060248301526044820184905291909116906323b872dd906064016020604051808303816000875af1158015610777573d6000803e3d6000fd5b505050506040513d601f19601f8201168201806040525081019061079b91906126f8565b5060006108d6856001600160a01b031663b70cc4c16040518163ffffffff1660e01b8152600401602060405180830381865afa1580156107df573d6000803e3d6000fd5b505050506040513d601f19601f82011682018060405250810190610803919061279e565b61080d85856127bb565b876001600160a01b03166355a373d66040518163ffffffff1660e01b8152600401602060405180830381865afa15801561084b573d6000803e3d6000fd5b505050506040513d601f19601f8201168201806040525081019061086f919061279e565b886001600160a01b0316638290c4a66040518163ffffffff1660e01b8152600401602060405180830381865afa1580156108ad573d6000803e3d6000fd5b505050506040513d601f19601f820116820180604052508101906108d1919061279e565b611caf565b6101005490915060ff16156109fa57846001600160a01b031663ee99205c6040518163ffffffff1660e01b8152600401602060405180830381865afa158015610923573d6000803e3d6000fd5b505050506040513d601f19601f82011682018060405250810190610947919061279e565b6001600160a01b031663310c9b208983600181518110610969576109696127ce565b602002602001015184600081518110610984576109846127ce565b60209081029190910101516040516001600160e01b031960e086901b1681526001600160a01b03909316600484015260248301919091526044820152606401600060405180830381600087803b1580156109dd57600080fd5b505af11580156109f1573d6000803e3d6000fd5b50505050610afc565b846001600160a01b03166355a373d66040518163ffffffff1660e01b8152600401602060405180830381865afa158015610a38573d6000803e3d6000fd5b505050506040513d601f19601f82011682018060405250810190610a5c919061279e565b6001600160a01b031663a9059cbb8983600181518110610a7e57610a7e6127ce565b60200260200101516040518363ffffffff1660e01b8152600401610ab79291906001600160a01b03929092168252602082015260400190565b6020604051808303816000875af1158015610ad6573d6000803e3d6000fd5b505050506040513d601f19601f82011682018060405250810190610afa91906126f8565b505b61010080540460ff1615610c0257846001600160a01b0316637dad19db6040518163ffffffff1660e01b8152600401602060405180830381865afa158015610b48573d6000803e3d6000fd5b505050506040513d601f19601f82011682018060405250810190610b6c919061279e565b6001600160a01b031663228159b482600081518110610b8d57610b8d6127ce565b60200260200101518a8a6040518463ffffffff1660e01b8152600401610bcf939291909283526001600160a01b03918216602084015216604082015260600190565b600060405180830381600087803b158015610be957600080fd5b505af1158015610bfd573d6000803e3d6000fd5b505050505b7f629a485b55f72b3241f1b41ff1864e029996d1cf7d54ef632b907af140f57430856001600160a01b0316634bc92d6c6040518163ffffffff1660e01b8152600401602060405180830381865afa158015610c61573d6000803e3d6000fd5b505050506040513d601f19601f82011682018060405250810190610c859190612715565b60405190815260200160405180910390a15050505050505050565b60fb54604051630935e01b60e21b81523360048201526001600160a01b03909116906324d7806c90602401602060405180830381865afa158015610ce8573d6000803e3d6000fd5b505050506040513d601f19601f82011682018060405250810190610d0c91906126f8565b610d4c5760405162461bcd60e51b81526020600482015260116024820152702cb7ba9030b932903737ba1030b236b4b760791b60448201526064016105bc565b60fb5485906001600160a01b031660005b828110156110e9576000826001600160a01b0316634bc92d6c6040518163ffffffff1660e01b8152600401602060405180830381865afa158015610da5573d6000803e3d6000fd5b505050506040513d601f19601f82011682018060405250810190610dc99190612715565b90506000868684818110610ddf57610ddf6127ce565b90506020020135670de0b6b3a7640000610df99190612744565b90506000610e3e856001600160a01b031663b70cc4c16040518163ffffffff1660e01b8152600401602060405180830381865afa1580156107df573d6000803e3d6000fd5b6101005490915060ff1615610f8457846001600160a01b031663ee99205c6040518163ffffffff1660e01b8152600401602060405180830381865afa158015610e8b573d6000803e3d6000fd5b505050506040513d601f19601f82011682018060405250810190610eaf919061279e565b6001600160a01b031663310c9b208d8d87818110610ecf57610ecf6127ce565b9050602002016020810190610ee49190612443565b83600181518110610ef757610ef76127ce565b602002602001015184600081518110610f1257610f126127ce565b60209081029190910101516040516001600160e01b031960e086901b1681526001600160a01b03909316600484015260248301919091526044820152606401600060405180830381600087803b158015610f6b57600080fd5b505af1158015610f7f573d6000803e3d6000fd5b505050505b61010080540460ff16156110d357846001600160a01b0316637dad19db6040518163ffffffff1660e01b8152600401602060405180830381865afa158015610fd0573d6000803e3d6000fd5b505050506040513d601f19601f82011682018060405250810190610ff4919061279e565b6001600160a01b031663228159b482600081518110611015576110156127ce565b60200260200101518e8e8881811061102f5761102f6127ce565b90506020020160208101906110449190612443565b8d8d89818110611056576110566127ce565b905060200201602081019061106b9190612443565b6040516001600160e01b031960e086901b16815260048101939093526001600160a01b039182166024840152166044820152606401600060405180830381600087803b1580156110ba57600080fd5b505af11580156110ce573d6000803e3d6000fd5b505050505b50505080806110e1906127e4565b915050610d5d565b505050505050505050565b6110fc611c0f565b611104611e32565b565b6001600160a01b037f000000000000000000000000000000000000000000000000000000000000000016300361114e5760405162461bcd60e51b81526004016105bc906127fd565b7f00000000000000000000000000000000000000000000000000000000000000006001600160a01b0316611197600080516020612a7e833981519152546001600160a01b031690565b6001600160a01b0316146111bd5760405162461bcd60e51b81526004016105bc90612849565b6111c681611e8c565b604080516000808252602082019092526111e291839190611e94565b50565b6001600160a01b037f000000000000000000000000000000000000000000000000000000000000000016300361122d5760405162461bcd60e51b81526004016105bc906127fd565b7f00000000000000000000000000000000000000000000000000000000000000006001600160a01b0316611276600080516020612a7e833981519152546001600160a01b031690565b6001600160a01b03161461129c5760405162461bcd60e51b81526004016105bc90612849565b6112a582611e8c565b6112b182826001611e94565b5050565b6000306001600160a01b037f000000000000000000000000000000000000000000000000000000000000000016146113555760405162461bcd60e51b815260206004820152603860248201527f555550535570677261646561626c653a206d757374206e6f742062652063616c60448201527f6c6564207468726f7567682064656c656761746563616c6c000000000000000060648201526084016105bc565b50600080516020612a7e83398151915290565b611370611c0f565b60fd94909455610100805461ffff191693151561ff0019169390931791151583029190911762ff00001916620100009115159190910217905561010155565b6113b7611c0f565b6111046000611fff565b6113c9611c0f565b6040516001600160a01b0383169082156108fc029083906000818181858888f19350505050158015610498573d6000803e3d6000fd5b600054610100900460ff161580801561141f5750600054600160ff909116105b806114395750303b158015611439575060005460ff166001145b61149c5760405162461bcd60e51b815260206004820152602e60248201527f496e697469616c697a61626c653a20636f6e747261637420697320616c72656160448201526d191e481a5b9a5d1a585b1a5e995960921b60648201526084016105bc565b6000805460ff1916600117905580156114bf576000805461ff0019166101001790555b60fb80546001600160a01b0319167377daafc7411c911b869c71bf70fe36cce507845d17905566038d7ea4c6800060fc556801158e460913d0000060fd55610100805462ffffff1916610101908117909155681ba5abf9e7793800009055611525612051565b61152d612080565b6115356120af565b80156111e2576000805461ff0019169055604051600181527f7f26b83ff96e1f2b6a682f133852f6798a09c465da95921460cefb38474024989060200160405180910390a150565b611585611c69565b60fb54604080516312f24b5b60e21b815290516001600160a01b039092169133916000918491634bc92d6c9160048083019260209291908290030181865afa1580156115d5573d6000803e3d6000fd5b505050506040513d601f19601f820116820180604052508101906115f99190612715565b60fd5490915084908110156116205760405162461bcd60e51b81526004016105bc9061275b565b6101015481111561166b5760405162461bcd60e51b815260206004820152601560248201527413585e08189d5e481b1a5b5a5d081c995858da1959605a1b60448201526064016105bc565b836001600160a01b031663b70cc4c16040518163ffffffff1660e01b8152600401602060405180830381865afa1580156116a9573d6000803e3d6000fd5b505050506040513d601f19601f820116820180604052508101906116cd919061279e565b6040516323b872dd60e01b81526001600160a01b0385811660048301523060248301526044820184905291909116906323b872dd906064016020604051808303816000875af1158015611724573d6000803e3d6000fd5b505050506040513d601f19601f8201168201806040525081019061174891906126f8565b50600061178c856001600160a01b031663b70cc4c16040518163ffffffff1660e01b8152600401602060405180830381865afa1580156107df573d6000803e3d6000fd5b6101005490915060ff16156118b057846001600160a01b031663ee99205c6040518163ffffffff1660e01b8152600401602060405180830381865afa1580156117d9573d6000803e3d6000fd5b505050506040513d601f19601f820116820180604052508101906117fd919061279e565b6001600160a01b031663310c9b20858360018151811061181f5761181f6127ce565b60200260200101518460008151811061183a5761183a6127ce565b60209081029190910101516040516001600160e01b031960e086901b1681526001600160a01b03909316600484015260248301919091526044820152606401600060405180830381600087803b15801561189357600080fd5b505af11580156118a7573d6000803e3d6000fd5b505050506119b2565b846001600160a01b03166355a373d66040518163ffffffff1660e01b8152600401602060405180830381865afa1580156118ee573d6000803e3d6000fd5b505050506040513d601f19601f82011682018060405250810190611912919061279e565b6001600160a01b031663a9059cbb8583600181518110611934576119346127ce565b60200260200101516040518363ffffffff1660e01b815260040161196d9291906001600160a01b03929092168252602082015260400190565b6020604051808303816000875af115801561198c573d6000803e3d6000fd5b505050506040513d601f19601f820116820180604052508101906119b091906126f8565b505b61010080540460ff1615611ab857846001600160a01b0316637dad19db6040518163ffffffff1660e01b8152600401602060405180830381865afa1580156119fe573d6000803e3d6000fd5b505050506040513d601f19601f82011682018060405250810190611a22919061279e565b6001600160a01b031663228159b482600081518110611a4357611a436127ce565b6020026020010151868a6040518463ffffffff1660e01b8152600401611a85939291909283526001600160a01b03918216602084015216604082015260600190565b600060405180830381600087803b158015611a9f57600080fd5b505af1158015611ab3573d6000803e3d6000fd5b505050505b7f629a485b55f72b3241f1b41ff1864e029996d1cf7d54ef632b907af140f57430856001600160a01b0316634bc92d6c6040518163ffffffff1660e01b8152600401602060405180830381865afa158015611b17573d6000803e3d6000fd5b505050506040513d601f19601f82011682018060405250810190611b3b9190612715565b60405190815260200160405180910390a150505050505050565b611b5d611c0f565b6111046120d6565b611b6d611c0f565b60405133904780156108fc02916000818181858888f193505050501580156111e2573d6000803e3d6000fd5b611ba1611c0f565b6001600160a01b038116611c065760405162461bcd60e51b815260206004820152602660248201527f4f776e61626c653a206e6577206f776e657220697320746865207a65726f206160448201526564647265737360d01b60648201526084016105bc565b6111e281611fff565b6033546001600160a01b031633146111045760405162461bcd60e51b815260206004820181905260248201527f4f776e61626c653a2063616c6c6572206973206e6f7420746865206f776e657260448201526064016105bc565b60655460ff16156111045760405162461bcd60e51b815260206004820152601060248201526f14185d5cd8589b194e881c185d5cd95960821b60448201526064016105bc565b604080516002808252606080830184529260009291906020830190803683370190505090508581600081518110611ce857611ce86127ce565b60200260200101906001600160a01b031690816001600160a01b0316815250508381600181518110611d1c57611d1c6127ce565b6001600160a01b03928316602091820292909201015260405163095ea7b360e01b81528482166004820152602481018790529087169063095ea7b3906044016020604051808303816000875af1158015611d7a573d6000803e3d6000fd5b505050506040513d601f19601f82011682018060405250810190611d9e91906126f8565b5060006001600160a01b0384166338ed17398760018530611dc0426064612895565b6040518663ffffffff1660e01b8152600401611de09594939291906128a8565b6000604051808303816000875af1158015611dff573d6000803e3d6000fd5b505050506040513d6000823e601f3d908101601f19168201604052611e279190810190612919565b979650505050505050565b611e3a611c69565b6065805460ff191660011790557f62e78cea01bee320cd4e420270b5ea74000d11b0c9f74754ebdbfc544b05a258611e6f3390565b6040516001600160a01b03909116815260200160405180910390a1565b6111e2611c0f565b7f4910fdfa16fed3260ed0e7147f7cc6da11a60208b5b9406d12a635614ffd91435460ff1615611ec7576104988361210f565b826001600160a01b03166352d1902d6040518163ffffffff1660e01b8152600401602060405180830381865afa925050508015611f21575060408051601f3d908101601f19168201909252611f1e91810190612715565b60015b611f845760405162461bcd60e51b815260206004820152602e60248201527f45524331393637557067726164653a206e657720696d706c656d656e7461746960448201526d6f6e206973206e6f74205555505360901b60648201526084016105bc565b600080516020612a7e8339815191528114611ff35760405162461bcd60e51b815260206004820152602960248201527f45524331393637557067726164653a20756e737570706f727465642070726f786044820152681a58589b195555525160ba1b60648201526084016105bc565b506104988383836121ab565b603380546001600160a01b038381166001600160a01b0319831681179093556040519116919082907f8be0079c531659141344cd1fd0a4f28419497f9722a3daafe3b4186f6b6457e090600090a35050565b600054610100900460ff166120785760405162461bcd60e51b81526004016105bc906129bf565b6111046121d6565b600054610100900460ff166120a75760405162461bcd60e51b81526004016105bc906129bf565b611104612209565b600054610100900460ff166111045760405162461bcd60e51b81526004016105bc906129bf565b6120de612239565b6065805460ff191690557f5db9ee0a495bf2e6ff9c91a7834c1ba4fdd244a5e8aa4e537bd38aeae4b073aa33611e6f565b6001600160a01b0381163b61217c5760405162461bcd60e51b815260206004820152602d60248201527f455243313936373a206e657720696d706c656d656e746174696f6e206973206e60448201526c1bdd08184818dbdb9d1c9858dd609a1b60648201526084016105bc565b600080516020612a7e83398151915280546001600160a01b0319166001600160a01b0392909216919091179055565b6121b483612282565b6000825111806121c15750805b15610498576121d083836122c2565b50505050565b600054610100900460ff166121fd5760405162461bcd60e51b81526004016105bc906129bf565b6065805460ff19169055565b600054610100900460ff166122305760405162461bcd60e51b81526004016105bc906129bf565b61110433611fff565b60655460ff166111045760405162461bcd60e51b815260206004820152601460248201527314185d5cd8589b194e881b9bdd081c185d5cd95960621b60448201526064016105bc565b61228b8161210f565b6040516001600160a01b038216907fbc7cd75a20ee27fd9adebab32041f755214dbc6bffa90cc0225b39da2e5c2d3b90600090a250565b60606001600160a01b0383163b61232a5760405162461bcd60e51b815260206004820152602660248201527f416464726573733a2064656c65676174652063616c6c20746f206e6f6e2d636f6044820152651b9d1c9858dd60d21b60648201526084016105bc565b600080846001600160a01b0316846040516123459190612a2e565b600060405180830381855af49150503d8060008114612380576040519150601f19603f3d011682016040523d82523d6000602084013e612385565b606091505b50915091506123ad8282604051806060016040528060278152602001612a9e602791396123b8565b925050505b92915050565b606083156123c75750816123d1565b6123d183836123d8565b9392505050565b8151156123e85781518083602001fd5b8060405162461bcd60e51b81526004016105bc9190612a4a565b6001600160a01b03811681146111e257600080fd5b6000806040838503121561242a57600080fd5b823561243581612402565b946020939093013593505050565b60006020828403121561245557600080fd5b81356123d181612402565b60006020828403121561247257600080fd5b5035919050565b60008060006060848603121561248e57600080fd5b833561249981612402565b925060208401356124a981612402565b929592945050506040919091013590565b60008083601f8401126124cc57600080fd5b50813567ffffffffffffffff8111156124e457600080fd5b6020830191508360208260051b85010111156124ff57600080fd5b9250929050565b6000806000806000806060878903121561251f57600080fd5b863567ffffffffffffffff8082111561253757600080fd5b6125438a838b016124ba565b9098509650602089013591508082111561255c57600080fd5b6125688a838b016124ba565b9096509450604089013591508082111561258157600080fd5b5061258e89828a016124ba565b979a9699509497509295939492505050565b634e487b7160e01b600052604160045260246000fd5b604051601f8201601f1916810167ffffffffffffffff811182821017156125df576125df6125a0565b604052919050565b600080604083850312156125fa57600080fd5b823561260581612402565b915060208381013567ffffffffffffffff8082111561262357600080fd5b818601915086601f83011261263757600080fd5b813581811115612649576126496125a0565b61265b601f8201601f191685016125b6565b9150808252878482850101111561267157600080fd5b80848401858401376000848284010152508093505050509250929050565b80151581146111e257600080fd5b600080600080600060a086880312156126b557600080fd5b8535945060208601356126c78161268f565b935060408601356126d78161268f565b925060608601356126e78161268f565b949793965091946080013592915050565b60006020828403121561270a57600080fd5b81516123d18161268f565b60006020828403121561272757600080fd5b5051919050565b634e487b7160e01b600052601160045260246000fd5b80820281158282048414176123b2576123b261272e565b60208082526023908201527f415553442076616c7565206c657373207468656e206d696e206275792076616c6040820152623ab29760e91b606082015260800190565b6000602082840312156127b057600080fd5b81516123d181612402565b818103818111156123b2576123b261272e565b634e487b7160e01b600052603260045260246000fd5b6000600182016127f6576127f661272e565b5060010190565b6020808252602c908201527f46756e6374696f6e206d7573742062652063616c6c6564207468726f7567682060408201526b19195b1959d85d1958d85b1b60a21b606082015260800190565b6020808252602c908201527f46756e6374696f6e206d7573742062652063616c6c6564207468726f7567682060408201526b6163746976652070726f787960a01b606082015260800190565b808201808211156123b2576123b261272e565b600060a082018783526020878185015260a0604085015281875180845260c086019150828901935060005b818110156128f85784516001600160a01b0316835293830193918301916001016128d3565b50506001600160a01b03969096166060850152505050608001529392505050565b6000602080838503121561292c57600080fd5b825167ffffffffffffffff8082111561294457600080fd5b818501915085601f83011261295857600080fd5b81518181111561296a5761296a6125a0565b8060051b915061297b8483016125b6565b818152918301840191848101908884111561299557600080fd5b938501935b838510156129b35784518252938501939085019061299a565b98975050505050505050565b6020808252602b908201527f496e697469616c697a61626c653a20636f6e7472616374206973206e6f74206960408201526a6e697469616c697a696e6760a81b606082015260800190565b60005b83811015612a25578181015183820152602001612a0d565b50506000910152565b60008251612a40818460208701612a0a565b9190910192915050565b6020815260008251806020840152612a69816040850160208701612a0a565b601f01601f1916919091016040019291505056fe360894a13ba1a3210667c828492db98dca3e2076cc3735a920a3ca505d382bbc416464726573733a206c6f772d6c6576656c2064656c65676174652063616c6c206661696c6564a2646970667358221220786d9dece26640d903c2b548ff0aeaa29b532e711f94706bc9ccb2b1fd3188c664736f6c63430008110033","opcodes":"PUSH1 0xA0 PUSH1 0x40 MSTORE ADDRESS PUSH1 0x80 MSTORE CALLVALUE DUP1 ISZERO PUSH2 0x14 JUMPI PUSH1 0x0 DUP1 REVERT JUMPDEST POP PUSH1 0x80 MLOAD PUSH2 0x2AFA PUSH2 0x4C PUSH1 0x0 CODECOPY PUSH1 0x0 DUP2 DUP2 PUSH2 0x1110 ADD MSTORE DUP2 DUP2 PUSH2 0x1150 ADD MSTORE DUP2 DUP2 PUSH2 0x11EF ADD MSTORE DUP2 DUP2 PUSH2 0x122F ADD MSTORE PUSH2 0x12C2 ADD MSTORE PUSH2 0x2AFA PUSH1 0x0 RETURN INVALID PUSH1 0x80 PUSH1 0x40 MSTORE PUSH1 0x4 CALLDATASIZE LT PUSH2 0x139 JUMPI PUSH1 0x0 CALLDATALOAD PUSH1 0xE0 SHR DUP1 PUSH4 0x6740090A GT PUSH2 0xAB JUMPI DUP1 PUSH4 0xB9439D20 GT PUSH2 0x6F JUMPI DUP1 PUSH4 0xB9439D20 EQ PUSH2 0x342 JUMPI DUP1 PUSH4 0xDB5184E6 EQ PUSH2 0x362 JUMPI DUP1 PUSH4 0xDE863DA3 EQ PUSH2 0x377 JUMPI DUP1 PUSH4 0xE086E5EC EQ PUSH2 0x3CC JUMPI DUP1 PUSH4 0xF13A143F EQ PUSH2 0x3E1 JUMPI DUP1 PUSH4 0xF2FDE38B EQ PUSH2 0x3FF JUMPI PUSH1 0x0 DUP1 REVERT JUMPDEST DUP1 PUSH4 0x6740090A EQ PUSH2 0x2BA JUMPI DUP1 PUSH4 0x715018A6 EQ PUSH2 0x2DA JUMPI DUP1 PUSH4 0x7B1A4909 EQ PUSH2 0x2EF JUMPI DUP1 PUSH4 0x8129FC1C EQ PUSH2 0x30F JUMPI DUP1 PUSH4 0x8DA5CB5B EQ PUSH2 0x324 JUMPI PUSH1 0x0 DUP1 REVERT JUMPDEST DUP1 PUSH4 0x2F11D653 GT PUSH2 0xFD JUMPI DUP1 PUSH4 0x2F11D653 EQ PUSH2 0x204 JUMPI DUP1 PUSH4 0x3659CFE6 EQ PUSH2 0x219 JUMPI DUP1 PUSH4 0x4F0371D7 EQ PUSH2 0x239 JUMPI DUP1 PUSH4 0x4F1EF286 EQ PUSH2 0x261 JUMPI DUP1 PUSH4 0x52D1902D EQ PUSH2 0x274 JUMPI DUP1 PUSH4 0x5C975ABB EQ PUSH2 0x297 JUMPI PUSH1 0x0 DUP1 REVERT JUMPDEST DUP1 PUSH4 0x6B091F9 EQ PUSH2 0x145 JUMPI DUP1 PUSH4 0xBA0DBA3 EQ PUSH2 0x167 JUMPI DUP1 PUSH4 0x14BFD6D0 EQ PUSH2 0x187 JUMPI DUP1 PUSH4 0x15FCD116 EQ PUSH2 0x1C4 JUMPI DUP1 PUSH4 0x182FEEAA EQ PUSH2 0x1E4 JUMPI PUSH1 0x0 DUP1 REVERT JUMPDEST CALLDATASIZE PUSH2 0x140 JUMPI STOP JUMPDEST PUSH1 0x0 DUP1 REVERT JUMPDEST CALLVALUE DUP1 ISZERO PUSH2 0x151 JUMPI PUSH1 0x0 DUP1 REVERT JUMPDEST POP PUSH2 0x165 PUSH2 0x160 CALLDATASIZE PUSH1 0x4 PUSH2 0x2417 JUMP JUMPDEST PUSH2 0x41F JUMP JUMPDEST STOP JUMPDEST CALLVALUE DUP1 ISZERO PUSH2 0x173 JUMPI PUSH1 0x0 DUP1 REVERT JUMPDEST POP PUSH2 0x165 PUSH2 0x182 CALLDATASIZE PUSH1 0x4 PUSH2 0x2443 JUMP JUMPDEST PUSH2 0x49D JUMP JUMPDEST CALLVALUE DUP1 ISZERO PUSH2 0x193 JUMPI PUSH1 0x0 DUP1 REVERT JUMPDEST POP PUSH2 0x1A7 PUSH2 0x1A2 CALLDATASIZE PUSH1 0x4 PUSH2 0x2460 JUMP JUMPDEST PUSH2 0x4C7 JUMP JUMPDEST PUSH1 0x40 MLOAD PUSH1 0x1 PUSH1 0x1 PUSH1 0xA0 SHL SUB SWAP1 SWAP2 AND DUP2 MSTORE PUSH1 0x20 ADD JUMPDEST PUSH1 0x40 MLOAD DUP1 SWAP2 SUB SWAP1 RETURN JUMPDEST CALLVALUE DUP1 ISZERO PUSH2 0x1D0 JUMPI PUSH1 0x0 DUP1 REVERT JUMPDEST POP PUSH2 0x165 PUSH2 0x1DF CALLDATASIZE PUSH1 0x4 PUSH2 0x2479 JUMP JUMPDEST PUSH2 0x4F2 JUMP JUMPDEST CALLVALUE DUP1 ISZERO PUSH2 0x1F0 JUMPI PUSH1 0x0 DUP1 REVERT JUMPDEST POP PUSH2 0x165 PUSH2 0x1FF CALLDATASIZE PUSH1 0x4 PUSH2 0x2506 JUMP JUMPDEST PUSH2 0xCA0 JUMP JUMPDEST CALLVALUE DUP1 ISZERO PUSH2 0x210 JUMPI PUSH1 0x0 DUP1 REVERT JUMPDEST POP PUSH2 0x165 PUSH2 0x10F4 JUMP JUMPDEST CALLVALUE DUP1 ISZERO PUSH2 0x225 JUMPI PUSH1 0x0 DUP1 REVERT JUMPDEST POP PUSH2 0x165 PUSH2 0x234 CALLDATASIZE PUSH1 0x4 PUSH2 0x2443 JUMP JUMPDEST PUSH2 0x1106 JUMP JUMPDEST CALLVALUE DUP1 ISZERO PUSH2 0x245 JUMPI PUSH1 0x0 DUP1 REVERT JUMPDEST POP PUSH1 0xFE SLOAD PUSH1 0xFF SLOAD PUSH1 0x40 DUP1 MLOAD SWAP3 DUP4 MSTORE PUSH1 0x20 DUP4 ADD SWAP2 SWAP1 SWAP2 MSTORE ADD PUSH2 0x1BB JUMP JUMPDEST PUSH2 0x165 PUSH2 0x26F CALLDATASIZE PUSH1 0x4 PUSH2 0x25E7 JUMP JUMPDEST PUSH2 0x11E5 JUMP JUMPDEST CALLVALUE DUP1 ISZERO PUSH2 0x280 JUMPI PUSH1 0x0 DUP1 REVERT JUMPDEST POP PUSH2 0x289 PUSH2 0x12B5 JUMP JUMPDEST PUSH1 0x40 MLOAD SWAP1 DUP2 MSTORE PUSH1 0x20 ADD PUSH2 0x1BB JUMP JUMPDEST CALLVALUE DUP1 ISZERO PUSH2 0x2A3 JUMPI PUSH1 0x0 DUP1 REVERT JUMPDEST POP PUSH1 0x65 SLOAD PUSH1 0xFF AND PUSH1 0x40 MLOAD SWAP1 ISZERO ISZERO DUP2 MSTORE PUSH1 0x20 ADD PUSH2 0x1BB JUMP JUMPDEST CALLVALUE DUP1 ISZERO PUSH2 0x2C6 JUMPI PUSH1 0x0 DUP1 REVERT JUMPDEST POP PUSH2 0x165 PUSH2 0x2D5 CALLDATASIZE PUSH1 0x4 PUSH2 0x269D JUMP JUMPDEST PUSH2 0x1368 JUMP JUMPDEST CALLVALUE DUP1 ISZERO PUSH2 0x2E6 JUMPI PUSH1 0x0 DUP1 REVERT JUMPDEST POP PUSH2 0x165 PUSH2 0x13AF JUMP JUMPDEST CALLVALUE DUP1 ISZERO PUSH2 0x2FB JUMPI PUSH1 0x0 DUP1 REVERT JUMPDEST POP PUSH2 0x165 PUSH2 0x30A CALLDATASIZE PUSH1 0x4 PUSH2 0x2417 JUMP JUMPDEST PUSH2 0x13C1 JUMP JUMPDEST CALLVALUE DUP1 ISZERO PUSH2 0x31B JUMPI PUSH1 0x0 DUP1 REVERT JUMPDEST POP PUSH2 0x165 PUSH2 0x13FF JUMP JUMPDEST CALLVALUE DUP1 ISZERO PUSH2 0x330 JUMPI PUSH1 0x0 DUP1 REVERT JUMPDEST POP PUSH1 0x33 SLOAD PUSH1 0x1 PUSH1 0x1 PUSH1 0xA0 SHL SUB AND PUSH2 0x1A7 JUMP JUMPDEST CALLVALUE DUP1 ISZERO PUSH2 0x34E JUMPI PUSH1 0x0 DUP1 REVERT JUMPDEST POP PUSH2 0x165 PUSH2 0x35D CALLDATASIZE PUSH1 0x4 PUSH2 0x2417 JUMP JUMPDEST PUSH2 0x157D JUMP JUMPDEST CALLVALUE DUP1 ISZERO PUSH2 0x36E JUMPI PUSH1 0x0 DUP1 REVERT JUMPDEST POP PUSH2 0x165 PUSH2 0x1B55 JUMP JUMPDEST CALLVALUE DUP1 ISZERO PUSH2 0x383 JUMPI PUSH1 0x0 DUP1 REVERT JUMPDEST POP PUSH1 0xFD SLOAD PUSH2 0x100 DUP1 SLOAD PUSH2 0x101 SLOAD PUSH1 0x40 DUP1 MLOAD SWAP5 DUP6 MSTORE PUSH1 0xFF DUP1 DUP5 AND ISZERO ISZERO PUSH1 0x20 DUP8 ADD MSTORE SWAP4 DUP4 DIV DUP5 AND ISZERO ISZERO SWAP1 DUP6 ADD MSTORE PUSH3 0x10000 SWAP1 SWAP2 DIV SWAP1 SWAP2 AND ISZERO ISZERO PUSH1 0x60 DUP4 ADD MSTORE PUSH1 0x80 DUP3 ADD MSTORE PUSH1 0xA0 ADD PUSH2 0x1BB JUMP JUMPDEST CALLVALUE DUP1 ISZERO PUSH2 0x3D8 JUMPI PUSH1 0x0 DUP1 REVERT JUMPDEST POP PUSH2 0x165 PUSH2 0x1B65 JUMP JUMPDEST CALLVALUE DUP1 ISZERO PUSH2 0x3ED JUMPI PUSH1 0x0 DUP1 REVERT JUMPDEST POP PUSH1 0xFB SLOAD PUSH1 0x1 PUSH1 0x1 PUSH1 0xA0 SHL SUB AND PUSH2 0x1A7 JUMP JUMPDEST CALLVALUE DUP1 ISZERO PUSH2 0x40B JUMPI PUSH1 0x0 DUP1 REVERT JUMPDEST POP PUSH2 0x165 PUSH2 0x41A CALLDATASIZE PUSH1 0x4 PUSH2 0x2443 JUMP JUMPDEST PUSH2 0x1B99 JUMP JUMPDEST PUSH2 0x427 PUSH2 0x1C0F JUMP JUMPDEST PUSH1 0x40 MLOAD PUSH4 0xA9059CBB PUSH1 0xE0 SHL DUP2 MSTORE CALLER PUSH1 0x4 DUP3 ADD MSTORE PUSH1 0x24 DUP2 ADD DUP3 SWAP1 MSTORE PUSH1 0x1 PUSH1 0x1 PUSH1 0xA0 SHL SUB DUP4 AND SWAP1 PUSH4 0xA9059CBB SWAP1 PUSH1 0x44 ADD PUSH1 0x20 PUSH1 0x40 MLOAD DUP1 DUP4 SUB DUP2 PUSH1 0x0 DUP8 GAS CALL ISZERO DUP1 ISZERO PUSH2 0x474 JUMPI RETURNDATASIZE PUSH1 0x0 DUP1 RETURNDATACOPY RETURNDATASIZE PUSH1 0x0 REVERT JUMPDEST POP POP POP POP PUSH1 0x40 MLOAD RETURNDATASIZE PUSH1 0x1F NOT PUSH1 0x1F DUP3 ADD AND DUP3 ADD DUP1 PUSH1 0x40 MSTORE POP DUP2 ADD SWAP1 PUSH2 0x498 SWAP2 SWAP1 PUSH2 0x26F8 JUMP JUMPDEST POP POP POP JUMP JUMPDEST PUSH2 0x4A5 PUSH2 0x1C0F JUMP JUMPDEST PUSH1 0xFB DUP1 SLOAD PUSH1 0x1 PUSH1 0x1 PUSH1 0xA0 SHL SUB NOT AND PUSH1 0x1 PUSH1 0x1 PUSH1 0xA0 SHL SUB SWAP3 SWAP1 SWAP3 AND SWAP2 SWAP1 SWAP2 OR SWAP1 SSTORE JUMP JUMPDEST PUSH2 0x102 DUP2 DUP2 SLOAD DUP2 LT PUSH2 0x4D8 JUMPI PUSH1 0x0 DUP1 REVERT JUMPDEST PUSH1 0x0 SWAP2 DUP3 MSTORE PUSH1 0x20 SWAP1 SWAP2 KECCAK256 ADD SLOAD PUSH1 0x1 PUSH1 0x1 PUSH1 0xA0 SHL SUB AND SWAP1 POP DUP2 JUMP JUMPDEST PUSH2 0x4FA PUSH2 0x1C69 JUMP JUMPDEST PUSH1 0xFB SLOAD PUSH1 0x40 MLOAD PUSH4 0xF3AE2415 PUSH1 0xE0 SHL DUP2 MSTORE CALLER PUSH1 0x4 DUP3 ADD MSTORE PUSH1 0x1 PUSH1 0x1 PUSH1 0xA0 SHL SUB SWAP1 SWAP2 AND SWAP1 PUSH4 0xF3AE2415 SWAP1 PUSH1 0x24 ADD PUSH1 0x20 PUSH1 0x40 MLOAD DUP1 DUP4 SUB DUP2 DUP7 GAS STATICCALL ISZERO DUP1 ISZERO PUSH2 0x542 JUMPI RETURNDATASIZE PUSH1 0x0 DUP1 RETURNDATACOPY RETURNDATASIZE PUSH1 0x0 REVERT JUMPDEST POP POP POP POP PUSH1 0x40 MLOAD RETURNDATASIZE PUSH1 0x1F NOT PUSH1 0x1F DUP3 ADD AND DUP3 ADD DUP1 PUSH1 0x40 MSTORE POP DUP2 ADD SWAP1 PUSH2 0x566 SWAP2 SWAP1 PUSH2 0x26F8 JUMP JUMPDEST PUSH2 0x5C5 JUMPI PUSH1 0x40 MLOAD PUSH3 0x461BCD PUSH1 0xE5 SHL DUP2 MSTORE PUSH1 0x20 PUSH1 0x4 DUP3 ADD MSTORE PUSH1 0x25 PUSH1 0x24 DUP3 ADD MSTORE PUSH32 0x4F6E6C79206D616E61676572732063616E2063616C6C20746869732066756E63 PUSH1 0x44 DUP3 ADD MSTORE PUSH5 0x3A34B7B717 PUSH1 0xD9 SHL PUSH1 0x64 DUP3 ADD MSTORE PUSH1 0x84 ADD JUMPDEST PUSH1 0x40 MLOAD DUP1 SWAP2 SUB SWAP1 REVERT JUMPDEST PUSH1 0xFB SLOAD PUSH1 0x40 DUP1 MLOAD PUSH4 0x12F24B5B PUSH1 0xE2 SHL DUP2 MSTORE SWAP1 MLOAD PUSH1 0x1 PUSH1 0x1 PUSH1 0xA0 SHL SUB SWAP1 SWAP3 AND SWAP2 CALLER SWAP2 PUSH1 0x0 SWAP2 DUP5 SWAP2 PUSH4 0x4BC92D6C SWAP2 PUSH1 0x4 DUP1 DUP4 ADD SWAP3 PUSH1 0x20 SWAP3 SWAP2 SWAP1 DUP3 SWAP1 SUB ADD DUP2 DUP7 GAS STATICCALL ISZERO DUP1 ISZERO PUSH2 0x615 JUMPI RETURNDATASIZE PUSH1 0x0 DUP1 RETURNDATACOPY RETURNDATASIZE PUSH1 0x0 REVERT JUMPDEST POP POP POP POP PUSH1 0x40 MLOAD RETURNDATASIZE PUSH1 0x1F NOT PUSH1 0x1F DUP3 ADD AND DUP3 ADD DUP1 PUSH1 0x40 MSTORE POP DUP2 ADD SWAP1 PUSH2 0x639 SWAP2 SWAP1 PUSH2 0x2715 JUMP JUMPDEST SWAP1 POP PUSH1 0x0 PUSH2 0x64F DUP6 PUSH8 0xDE0B6B3A7640000 PUSH2 0x2744 JUMP JUMPDEST SWAP1 POP PUSH1 0xFD SLOAD DUP2 LT ISZERO PUSH2 0x673 JUMPI PUSH1 0x40 MLOAD PUSH3 0x461BCD PUSH1 0xE5 SHL DUP2 MSTORE PUSH1 0x4 ADD PUSH2 0x5BC SWAP1 PUSH2 0x275B JUMP JUMPDEST PUSH2 0x101 SLOAD DUP2 GT ISZERO PUSH2 0x6BE JUMPI PUSH1 0x40 MLOAD PUSH3 0x461BCD PUSH1 0xE5 SHL DUP2 MSTORE PUSH1 0x20 PUSH1 0x4 DUP3 ADD MSTORE PUSH1 0x15 PUSH1 0x24 DUP3 ADD MSTORE PUSH21 0x13585E08189D5E481B1A5B5A5D081C995858DA1959 PUSH1 0x5A SHL PUSH1 0x44 DUP3 ADD MSTORE PUSH1 0x64 ADD PUSH2 0x5BC JUMP JUMPDEST DUP4 PUSH1 0x1 PUSH1 0x1 PUSH1 0xA0 SHL SUB AND PUSH4 0xB70CC4C1 PUSH1 0x40 MLOAD DUP2 PUSH4 0xFFFFFFFF AND PUSH1 0xE0 SHL DUP2 MSTORE PUSH1 0x4 ADD PUSH1 0x20 PUSH1 0x40 MLOAD DUP1 DUP4 SUB DUP2 DUP7 GAS STATICCALL ISZERO DUP1 ISZERO PUSH2 0x6FC JUMPI RETURNDATASIZE PUSH1 0x0 DUP1 RETURNDATACOPY RETURNDATASIZE PUSH1 0x0 REVERT JUMPDEST POP POP POP POP PUSH1 0x40 MLOAD RETURNDATASIZE PUSH1 0x1F NOT PUSH1 0x1F DUP3 ADD AND DUP3 ADD DUP1 PUSH1 0x40 MSTORE POP DUP2 ADD SWAP1 PUSH2 0x720 SWAP2 SWAP1 PUSH2 0x279E JUMP JUMPDEST PUSH1 0x40 MLOAD PUSH4 0x23B872DD PUSH1 0xE0 SHL DUP2 MSTORE PUSH1 0x1 PUSH1 0x1 PUSH1 0xA0 SHL SUB DUP6 DUP2 AND PUSH1 0x4 DUP4 ADD MSTORE ADDRESS PUSH1 0x24 DUP4 ADD MSTORE PUSH1 0x44 DUP3 ADD DUP5 SWAP1 MSTORE SWAP2 SWAP1 SWAP2 AND SWAP1 PUSH4 0x23B872DD SWAP1 PUSH1 0x64 ADD PUSH1 0x20 PUSH1 0x40 MLOAD DUP1 DUP4 SUB DUP2 PUSH1 0x0 DUP8 GAS CALL ISZERO DUP1 ISZERO PUSH2 0x777 JUMPI RETURNDATASIZE PUSH1 0x0 DUP1 RETURNDATACOPY RETURNDATASIZE PUSH1 0x0 REVERT JUMPDEST POP POP POP POP PUSH1 0x40 MLOAD RETURNDATASIZE PUSH1 0x1F NOT PUSH1 0x1F DUP3 ADD AND DUP3 ADD DUP1 PUSH1 0x40 MSTORE POP DUP2 ADD SWAP1 PUSH2 0x79B SWAP2 SWAP1 PUSH2 0x26F8 JUMP JUMPDEST POP PUSH1 0x0 PUSH2 0x8D6 DUP6 PUSH1 0x1 PUSH1 0x1 PUSH1 0xA0 SHL SUB AND PUSH4 0xB70CC4C1 PUSH1 0x40 MLOAD DUP2 PUSH4 0xFFFFFFFF AND PUSH1 0xE0 SHL DUP2 MSTORE PUSH1 0x4 ADD PUSH1 0x20 PUSH1 0x40 MLOAD DUP1 DUP4 SUB DUP2 DUP7 GAS STATICCALL ISZERO DUP1 ISZERO PUSH2 0x7DF JUMPI RETURNDATASIZE PUSH1 0x0 DUP1 RETURNDATACOPY RETURNDATASIZE PUSH1 0x0 REVERT JUMPDEST POP POP POP POP PUSH1 0x40 MLOAD RETURNDATASIZE PUSH1 0x1F NOT PUSH1 0x1F DUP3 ADD AND DUP3 ADD DUP1 PUSH1 0x40 MSTORE POP DUP2 ADD SWAP1 PUSH2 0x803 SWAP2 SWAP1 PUSH2 0x279E JUMP JUMPDEST PUSH2 0x80D DUP6 DUP6 PUSH2 0x27BB JUMP JUMPDEST DUP8 PUSH1 0x1 PUSH1 0x1 PUSH1 0xA0 SHL SUB AND PUSH4 0x55A373D6 PUSH1 0x40 MLOAD DUP2 PUSH4 0xFFFFFFFF AND PUSH1 0xE0 SHL DUP2 MSTORE PUSH1 0x4 ADD PUSH1 0x20 PUSH1 0x40 MLOAD DUP1 DUP4 SUB DUP2 DUP7 GAS STATICCALL ISZERO DUP1 ISZERO PUSH2 0x84B JUMPI RETURNDATASIZE PUSH1 0x0 DUP1 RETURNDATACOPY RETURNDATASIZE PUSH1 0x0 REVERT JUMPDEST POP POP POP POP PUSH1 0x40 MLOAD RETURNDATASIZE PUSH1 0x1F NOT PUSH1 0x1F DUP3 ADD AND DUP3 ADD DUP1 PUSH1 0x40 MSTORE POP DUP2 ADD SWAP1 PUSH2 0x86F SWAP2 SWAP1 PUSH2 0x279E JUMP JUMPDEST DUP9 PUSH1 0x1 PUSH1 0x1 PUSH1 0xA0 SHL SUB AND PUSH4 0x8290C4A6 PUSH1 0x40 MLOAD DUP2 PUSH4 0xFFFFFFFF AND PUSH1 0xE0 SHL DUP2 MSTORE PUSH1 0x4 ADD PUSH1 0x20 PUSH1 0x40 MLOAD DUP1 DUP4 SUB DUP2 DUP7 GAS STATICCALL ISZERO DUP1 ISZERO PUSH2 0x8AD JUMPI RETURNDATASIZE PUSH1 0x0 DUP1 RETURNDATACOPY RETURNDATASIZE PUSH1 0x0 REVERT JUMPDEST POP POP POP POP PUSH1 0x40 MLOAD RETURNDATASIZE PUSH1 0x1F NOT PUSH1 0x1F DUP3 ADD AND DUP3 ADD DUP1 PUSH1 0x40 MSTORE POP DUP2 ADD SWAP1 PUSH2 0x8D1 SWAP2 SWAP1 PUSH2 0x279E JUMP JUMPDEST PUSH2 0x1CAF JUMP JUMPDEST PUSH2 0x100 SLOAD SWAP1 SWAP2 POP PUSH1 0xFF AND ISZERO PUSH2 0x9FA JUMPI DUP5 PUSH1 0x1 PUSH1 0x1 PUSH1 0xA0 SHL SUB AND PUSH4 0xEE99205C PUSH1 0x40 MLOAD DUP2 PUSH4 0xFFFFFFFF AND PUSH1 0xE0 SHL DUP2 MSTORE PUSH1 0x4 ADD PUSH1 0x20 PUSH1 0x40 MLOAD DUP1 DUP4 SUB DUP2 DUP7 GAS STATICCALL ISZERO DUP1 ISZERO PUSH2 0x923 JUMPI RETURNDATASIZE PUSH1 0x0 DUP1 RETURNDATACOPY RETURNDATASIZE PUSH1 0x0 REVERT JUMPDEST POP POP POP POP PUSH1 0x40 MLOAD RETURNDATASIZE PUSH1 0x1F NOT PUSH1 0x1F DUP3 ADD AND DUP3 ADD DUP1 PUSH1 0x40 MSTORE POP DUP2 ADD SWAP1 PUSH2 0x947 SWAP2 SWAP1 PUSH2 0x279E JUMP JUMPDEST PUSH1 0x1 PUSH1 0x1 PUSH1 0xA0 SHL SUB AND PUSH4 0x310C9B20 DUP10 DUP4 PUSH1 0x1 DUP2 MLOAD DUP2 LT PUSH2 0x969 JUMPI PUSH2 0x969 PUSH2 0x27CE JUMP JUMPDEST PUSH1 0x20 MUL PUSH1 0x20 ADD ADD MLOAD DUP5 PUSH1 0x0 DUP2 MLOAD DUP2 LT PUSH2 0x984 JUMPI PUSH2 0x984 PUSH2 0x27CE JUMP JUMPDEST PUSH1 0x20 SWAP1 DUP2 MUL SWAP2 SWAP1 SWAP2 ADD ADD MLOAD PUSH1 0x40 MLOAD PUSH1 0x1 PUSH1 0x1 PUSH1 0xE0 SHL SUB NOT PUSH1 0xE0 DUP7 SWAP1 SHL AND DUP2 MSTORE PUSH1 0x1 PUSH1 0x1 PUSH1 0xA0 SHL SUB SWAP1 SWAP4 AND PUSH1 0x4 DUP5 ADD MSTORE PUSH1 0x24 DUP4 ADD SWAP2 SWAP1 SWAP2 MSTORE PUSH1 0x44 DUP3 ADD MSTORE PUSH1 0x64 ADD PUSH1 0x0 PUSH1 0x40 MLOAD DUP1 DUP4 SUB DUP2 PUSH1 0x0 DUP8 DUP1 EXTCODESIZE ISZERO DUP1 ISZERO PUSH2 0x9DD JUMPI PUSH1 0x0 DUP1 REVERT JUMPDEST POP GAS CALL ISZERO DUP1 ISZERO PUSH2 0x9F1 JUMPI RETURNDATASIZE PUSH1 0x0 DUP1 RETURNDATACOPY RETURNDATASIZE PUSH1 0x0 REVERT JUMPDEST POP POP POP POP PUSH2 0xAFC JUMP JUMPDEST DUP5 PUSH1 0x1 PUSH1 0x1 PUSH1 0xA0 SHL SUB AND PUSH4 0x55A373D6 PUSH1 0x40 MLOAD DUP2 PUSH4 0xFFFFFFFF AND PUSH1 0xE0 SHL DUP2 MSTORE PUSH1 0x4 ADD PUSH1 0x20 PUSH1 0x40 MLOAD DUP1 DUP4 SUB DUP2 DUP7 GAS STATICCALL ISZERO DUP1 ISZERO PUSH2 0xA38 JUMPI RETURNDATASIZE PUSH1 0x0 DUP1 RETURNDATACOPY RETURNDATASIZE PUSH1 0x0 REVERT JUMPDEST POP POP POP POP PUSH1 0x40 MLOAD RETURNDATASIZE PUSH1 0x1F NOT PUSH1 0x1F DUP3 ADD AND DUP3 ADD DUP1 PUSH1 0x40 MSTORE POP DUP2 ADD SWAP1 PUSH2 0xA5C SWAP2 SWAP1 PUSH2 0x279E JUMP JUMPDEST PUSH1 0x1 PUSH1 0x1 PUSH1 0xA0 SHL SUB AND PUSH4 0xA9059CBB DUP10 DUP4 PUSH1 0x1 DUP2 MLOAD DUP2 LT PUSH2 0xA7E JUMPI PUSH2 0xA7E PUSH2 0x27CE JUMP JUMPDEST PUSH1 0x20 MUL PUSH1 0x20 ADD ADD MLOAD PUSH1 0x40 MLOAD DUP4 PUSH4 0xFFFFFFFF AND PUSH1 0xE0 SHL DUP2 MSTORE PUSH1 0x4 ADD PUSH2 0xAB7 SWAP3 SWAP2 SWAP1 PUSH1 0x1 PUSH1 0x1 PUSH1 0xA0 SHL SUB SWAP3 SWAP1 SWAP3 AND DUP3 MSTORE PUSH1 0x20 DUP3 ADD MSTORE PUSH1 0x40 ADD SWAP1 JUMP JUMPDEST PUSH1 0x20 PUSH1 0x40 MLOAD DUP1 DUP4 SUB DUP2 PUSH1 0x0 DUP8 GAS CALL ISZERO DUP1 ISZERO PUSH2 0xAD6 JUMPI RETURNDATASIZE PUSH1 0x0 DUP1 RETURNDATACOPY RETURNDATASIZE PUSH1 0x0 REVERT JUMPDEST POP POP POP POP PUSH1 0x40 MLOAD RETURNDATASIZE PUSH1 0x1F NOT PUSH1 0x1F DUP3 ADD AND DUP3 ADD DUP1 PUSH1 0x40 MSTORE POP DUP2 ADD SWAP1 PUSH2 0xAFA SWAP2 SWAP1 PUSH2 0x26F8 JUMP JUMPDEST POP JUMPDEST PUSH2 0x100 DUP1 SLOAD DIV PUSH1 0xFF AND ISZERO PUSH2 0xC02 JUMPI DUP5 PUSH1 0x1 PUSH1 0x1 PUSH1 0xA0 SHL SUB AND PUSH4 0x7DAD19DB PUSH1 0x40 MLOAD DUP2 PUSH4 0xFFFFFFFF AND PUSH1 0xE0 SHL DUP2 MSTORE PUSH1 0x4 ADD PUSH1 0x20 PUSH1 0x40 MLOAD DUP1 DUP4 SUB DUP2 DUP7 GAS STATICCALL ISZERO DUP1 ISZERO PUSH2 0xB48 JUMPI RETURNDATASIZE PUSH1 0x0 DUP1 RETURNDATACOPY RETURNDATASIZE PUSH1 0x0 REVERT JUMPDEST POP POP POP POP PUSH1 0x40 MLOAD RETURNDATASIZE PUSH1 0x1F NOT PUSH1 0x1F DUP3 ADD AND DUP3 ADD DUP1 PUSH1 0x40 MSTORE POP DUP2 ADD SWAP1 PUSH2 0xB6C SWAP2 SWAP1 PUSH2 0x279E JUMP JUMPDEST PUSH1 0x1 PUSH1 0x1 PUSH1 0xA0 SHL SUB AND PUSH4 0x228159B4 DUP3 PUSH1 0x0 DUP2 MLOAD DUP2 LT PUSH2 0xB8D JUMPI PUSH2 0xB8D PUSH2 0x27CE JUMP JUMPDEST PUSH1 0x20 MUL PUSH1 0x20 ADD ADD MLOAD DUP11 DUP11 PUSH1 0x40 MLOAD DUP5 PUSH4 0xFFFFFFFF AND PUSH1 0xE0 SHL DUP2 MSTORE PUSH1 0x4 ADD PUSH2 0xBCF SWAP4 SWAP3 SWAP2 SWAP1 SWAP3 DUP4 MSTORE PUSH1 0x1 PUSH1 0x1 PUSH1 0xA0 SHL SUB SWAP2 DUP3 AND PUSH1 0x20 DUP5 ADD MSTORE AND PUSH1 0x40 DUP3 ADD MSTORE PUSH1 0x60 ADD SWAP1 JUMP JUMPDEST PUSH1 0x0 PUSH1 0x40 MLOAD DUP1 DUP4 SUB DUP2 PUSH1 0x0 DUP8 DUP1 EXTCODESIZE ISZERO DUP1 ISZERO PUSH2 0xBE9 JUMPI PUSH1 0x0 DUP1 REVERT JUMPDEST POP GAS CALL ISZERO DUP1 ISZERO PUSH2 0xBFD JUMPI RETURNDATASIZE PUSH1 0x0 DUP1 RETURNDATACOPY RETURNDATASIZE PUSH1 0x0 REVERT JUMPDEST POP POP POP POP JUMPDEST PUSH32 0x629A485B55F72B3241F1B41FF1864E029996D1CF7D54EF632B907AF140F57430 DUP6 PUSH1 0x1 PUSH1 0x1 PUSH1 0xA0 SHL SUB AND PUSH4 0x4BC92D6C PUSH1 0x40 MLOAD DUP2 PUSH4 0xFFFFFFFF AND PUSH1 0xE0 SHL DUP2 MSTORE PUSH1 0x4 ADD PUSH1 0x20 PUSH1 0x40 MLOAD DUP1 DUP4 SUB DUP2 DUP7 GAS STATICCALL ISZERO DUP1 ISZERO PUSH2 0xC61 JUMPI RETURNDATASIZE PUSH1 0x0 DUP1 RETURNDATACOPY RETURNDATASIZE PUSH1 0x0 REVERT JUMPDEST POP POP POP POP PUSH1 0x40 MLOAD RETURNDATASIZE PUSH1 0x1F NOT PUSH1 0x1F DUP3 ADD AND DUP3 ADD DUP1 PUSH1 0x40 MSTORE POP DUP2 ADD SWAP1 PUSH2 0xC85 SWAP2 SWAP1 PUSH2 0x2715 JUMP JUMPDEST PUSH1 0x40 MLOAD SWAP1 DUP2 MSTORE PUSH1 0x20 ADD PUSH1 0x40 MLOAD DUP1 SWAP2 SUB SWAP1 LOG1 POP POP POP POP POP POP POP POP JUMP JUMPDEST PUSH1 0xFB SLOAD PUSH1 0x40 MLOAD PUSH4 0x935E01B PUSH1 0xE2 SHL DUP2 MSTORE CALLER PUSH1 0x4 DUP3 ADD MSTORE PUSH1 0x1 PUSH1 0x1 PUSH1 0xA0 SHL SUB SWAP1 SWAP2 AND SWAP1 PUSH4 0x24D7806C SWAP1 PUSH1 0x24 ADD PUSH1 0x20 PUSH1 0x40 MLOAD DUP1 DUP4 SUB DUP2 DUP7 GAS STATICCALL ISZERO DUP1 ISZERO PUSH2 0xCE8 JUMPI RETURNDATASIZE PUSH1 0x0 DUP1 RETURNDATACOPY RETURNDATASIZE PUSH1 0x0 REVERT JUMPDEST POP POP POP POP PUSH1 0x40 MLOAD RETURNDATASIZE PUSH1 0x1F NOT PUSH1 0x1F DUP3 ADD AND DUP3 ADD DUP1 PUSH1 0x40 MSTORE POP DUP2 ADD SWAP1 PUSH2 0xD0C SWAP2 SWAP1 PUSH2 0x26F8 JUMP JUMPDEST PUSH2 0xD4C JUMPI PUSH1 0x40 MLOAD PUSH3 0x461BCD PUSH1 0xE5 SHL DUP2 MSTORE PUSH1 0x20 PUSH1 0x4 DUP3 ADD MSTORE PUSH1 0x11 PUSH1 0x24 DUP3 ADD MSTORE PUSH17 0x2CB7BA9030B932903737BA1030B236B4B7 PUSH1 0x79 SHL PUSH1 0x44 DUP3 ADD MSTORE PUSH1 0x64 ADD PUSH2 0x5BC JUMP JUMPDEST PUSH1 0xFB SLOAD DUP6 SWAP1 PUSH1 0x1 PUSH1 0x1 PUSH1 0xA0 SHL SUB AND PUSH1 0x0 JUMPDEST DUP3 DUP2 LT ISZERO PUSH2 0x10E9 JUMPI PUSH1 0x0 DUP3 PUSH1 0x1 PUSH1 0x1 PUSH1 0xA0 SHL SUB AND PUSH4 0x4BC92D6C PUSH1 0x40 MLOAD DUP2 PUSH4 0xFFFFFFFF AND PUSH1 0xE0 SHL DUP2 MSTORE PUSH1 0x4 ADD PUSH1 0x20 PUSH1 0x40 MLOAD DUP1 DUP4 SUB DUP2 DUP7 GAS STATICCALL ISZERO DUP1 ISZERO PUSH2 0xDA5 JUMPI RETURNDATASIZE PUSH1 0x0 DUP1 RETURNDATACOPY RETURNDATASIZE PUSH1 0x0 REVERT JUMPDEST POP POP POP POP PUSH1 0x40 MLOAD RETURNDATASIZE PUSH1 0x1F NOT PUSH1 0x1F DUP3 ADD AND DUP3 ADD DUP1 PUSH1 0x40 MSTORE POP DUP2 ADD SWAP1 PUSH2 0xDC9 SWAP2 SWAP1 PUSH2 0x2715 JUMP JUMPDEST SWAP1 POP PUSH1 0x0 DUP7 DUP7 DUP5 DUP2 DUP2 LT PUSH2 0xDDF JUMPI PUSH2 0xDDF PUSH2 0x27CE JUMP JUMPDEST SWAP1 POP PUSH1 0x20 MUL ADD CALLDATALOAD PUSH8 0xDE0B6B3A7640000 PUSH2 0xDF9 SWAP2 SWAP1 PUSH2 0x2744 JUMP JUMPDEST SWAP1 POP PUSH1 0x0 PUSH2 0xE3E DUP6 PUSH1 0x1 PUSH1 0x1 PUSH1 0xA0 SHL SUB AND PUSH4 0xB70CC4C1 PUSH1 0x40 MLOAD DUP2 PUSH4 0xFFFFFFFF AND PUSH1 0xE0 SHL DUP2 MSTORE PUSH1 0x4 ADD PUSH1 0x20 PUSH1 0x40 MLOAD DUP1 DUP4 SUB DUP2 DUP7 GAS STATICCALL ISZERO DUP1 ISZERO PUSH2 0x7DF JUMPI RETURNDATASIZE PUSH1 0x0 DUP1 RETURNDATACOPY RETURNDATASIZE PUSH1 0x0 REVERT JUMPDEST PUSH2 0x100 SLOAD SWAP1 SWAP2 POP PUSH1 0xFF AND ISZERO PUSH2 0xF84 JUMPI DUP5 PUSH1 0x1 PUSH1 0x1 PUSH1 0xA0 SHL SUB AND PUSH4 0xEE99205C PUSH1 0x40 MLOAD DUP2 PUSH4 0xFFFFFFFF AND PUSH1 0xE0 SHL DUP2 MSTORE PUSH1 0x4 ADD PUSH1 0x20 PUSH1 0x40 MLOAD DUP1 DUP4 SUB DUP2 DUP7 GAS STATICCALL ISZERO DUP1 ISZERO PUSH2 0xE8B JUMPI RETURNDATASIZE PUSH1 0x0 DUP1 RETURNDATACOPY RETURNDATASIZE PUSH1 0x0 REVERT JUMPDEST POP POP POP POP PUSH1 0x40 MLOAD RETURNDATASIZE PUSH1 0x1F NOT PUSH1 0x1F DUP3 ADD AND DUP3 ADD DUP1 PUSH1 0x40 MSTORE POP DUP2 ADD SWAP1 PUSH2 0xEAF SWAP2 SWAP1 PUSH2 0x279E JUMP JUMPDEST PUSH1 0x1 PUSH1 0x1 PUSH1 0xA0 SHL SUB AND PUSH4 0x310C9B20 DUP14 DUP14 DUP8 DUP2 DUP2 LT PUSH2 0xECF JUMPI PUSH2 0xECF PUSH2 0x27CE JUMP JUMPDEST SWAP1 POP PUSH1 0x20 MUL ADD PUSH1 0x20 DUP2 ADD SWAP1 PUSH2 0xEE4 SWAP2 SWAP1 PUSH2 0x2443 JUMP JUMPDEST DUP4 PUSH1 0x1 DUP2 MLOAD DUP2 LT PUSH2 0xEF7 JUMPI PUSH2 0xEF7 PUSH2 0x27CE JUMP JUMPDEST PUSH1 0x20 MUL PUSH1 0x20 ADD ADD MLOAD DUP5 PUSH1 0x0 DUP2 MLOAD DUP2 LT PUSH2 0xF12 JUMPI PUSH2 0xF12 PUSH2 0x27CE JUMP JUMPDEST PUSH1 0x20 SWAP1 DUP2 MUL SWAP2 SWAP1 SWAP2 ADD ADD MLOAD PUSH1 0x40 MLOAD PUSH1 0x1 PUSH1 0x1 PUSH1 0xE0 SHL SUB NOT PUSH1 0xE0 DUP7 SWAP1 SHL AND DUP2 MSTORE PUSH1 0x1 PUSH1 0x1 PUSH1 0xA0 SHL SUB SWAP1 SWAP4 AND PUSH1 0x4 DUP5 ADD MSTORE PUSH1 0x24 DUP4 ADD SWAP2 SWAP1 SWAP2 MSTORE PUSH1 0x44 DUP3 ADD MSTORE PUSH1 0x64 ADD PUSH1 0x0 PUSH1 0x40 MLOAD DUP1 DUP4 SUB DUP2 PUSH1 0x0 DUP8 DUP1 EXTCODESIZE ISZERO DUP1 ISZERO PUSH2 0xF6B JUMPI PUSH1 0x0 DUP1 REVERT JUMPDEST POP GAS CALL ISZERO DUP1 ISZERO PUSH2 0xF7F JUMPI RETURNDATASIZE PUSH1 0x0 DUP1 RETURNDATACOPY RETURNDATASIZE PUSH1 0x0 REVERT JUMPDEST POP POP POP POP JUMPDEST PUSH2 0x100 DUP1 SLOAD DIV PUSH1 0xFF AND ISZERO PUSH2 0x10D3 JUMPI DUP5 PUSH1 0x1 PUSH1 0x1 PUSH1 0xA0 SHL SUB AND PUSH4 0x7DAD19DB PUSH1 0x40 MLOAD DUP2 PUSH4 0xFFFFFFFF AND PUSH1 0xE0 SHL DUP2 MSTORE PUSH1 0x4 ADD PUSH1 0x20 PUSH1 0x40 MLOAD DUP1 DUP4 SUB DUP2 DUP7 GAS STATICCALL ISZERO DUP1 ISZERO PUSH2 0xFD0 JUMPI RETURNDATASIZE PUSH1 0x0 DUP1 RETURNDATACOPY RETURNDATASIZE PUSH1 0x0 REVERT JUMPDEST POP POP POP POP PUSH1 0x40 MLOAD RETURNDATASIZE PUSH1 0x1F NOT PUSH1 0x1F DUP3 ADD AND DUP3 ADD DUP1 PUSH1 0x40 MSTORE POP DUP2 ADD SWAP1 PUSH2 0xFF4 SWAP2 SWAP1 PUSH2 0x279E JUMP JUMPDEST PUSH1 0x1 PUSH1 0x1 PUSH1 0xA0 SHL SUB AND PUSH4 0x228159B4 DUP3 PUSH1 0x0 DUP2 MLOAD DUP2 LT PUSH2 0x1015 JUMPI PUSH2 0x1015 PUSH2 0x27CE JUMP JUMPDEST PUSH1 0x20 MUL PUSH1 0x20 ADD ADD MLOAD DUP15 DUP15 DUP9 DUP2 DUP2 LT PUSH2 0x102F JUMPI PUSH2 0x102F PUSH2 0x27CE JUMP JUMPDEST SWAP1 POP PUSH1 0x20 MUL ADD PUSH1 0x20 DUP2 ADD SWAP1 PUSH2 0x1044 SWAP2 SWAP1 PUSH2 0x2443 JUMP JUMPDEST DUP14 DUP14 DUP10 DUP2 DUP2 LT PUSH2 0x1056 JUMPI PUSH2 0x1056 PUSH2 0x27CE JUMP JUMPDEST SWAP1 POP PUSH1 0x20 MUL ADD PUSH1 0x20 DUP2 ADD SWAP1 PUSH2 0x106B SWAP2 SWAP1 PUSH2 0x2443 JUMP JUMPDEST PUSH1 0x40 MLOAD PUSH1 0x1 PUSH1 0x1 PUSH1 0xE0 SHL SUB NOT PUSH1 0xE0 DUP7 SWAP1 SHL AND DUP2 MSTORE PUSH1 0x4 DUP2 ADD SWAP4 SWAP1 SWAP4 MSTORE PUSH1 0x1 PUSH1 0x1 PUSH1 0xA0 SHL SUB SWAP2 DUP3 AND PUSH1 0x24 DUP5 ADD MSTORE AND PUSH1 0x44 DUP3 ADD MSTORE PUSH1 0x64 ADD PUSH1 0x0 PUSH1 0x40 MLOAD DUP1 DUP4 SUB DUP2 PUSH1 0x0 DUP8 DUP1 EXTCODESIZE ISZERO DUP1 ISZERO PUSH2 0x10BA JUMPI PUSH1 0x0 DUP1 REVERT JUMPDEST POP GAS CALL ISZERO DUP1 ISZERO PUSH2 0x10CE JUMPI RETURNDATASIZE PUSH1 0x0 DUP1 RETURNDATACOPY RETURNDATASIZE PUSH1 0x0 REVERT JUMPDEST POP POP POP POP JUMPDEST POP POP POP DUP1 DUP1 PUSH2 0x10E1 SWAP1 PUSH2 0x27E4 JUMP JUMPDEST SWAP2 POP POP PUSH2 0xD5D JUMP JUMPDEST POP POP POP POP POP POP POP POP POP JUMP JUMPDEST PUSH2 0x10FC PUSH2 0x1C0F JUMP JUMPDEST PUSH2 0x1104 PUSH2 0x1E32 JUMP JUMPDEST JUMP JUMPDEST PUSH1 0x1 PUSH1 0x1 PUSH1 0xA0 SHL SUB PUSH32 0x0 AND ADDRESS SUB PUSH2 0x114E JUMPI PUSH1 0x40 MLOAD PUSH3 0x461BCD PUSH1 0xE5 SHL DUP2 MSTORE PUSH1 0x4 ADD PUSH2 0x5BC SWAP1 PUSH2 0x27FD JUMP JUMPDEST PUSH32 0x0 PUSH1 0x1 PUSH1 0x1 PUSH1 0xA0 SHL SUB AND PUSH2 0x1197 PUSH1 0x0 DUP1 MLOAD PUSH1 0x20 PUSH2 0x2A7E DUP4 CODECOPY DUP2 MLOAD SWAP2 MSTORE SLOAD PUSH1 0x1 PUSH1 0x1 PUSH1 0xA0 SHL SUB AND SWAP1 JUMP JUMPDEST PUSH1 0x1 PUSH1 0x1 PUSH1 0xA0 SHL SUB AND EQ PUSH2 0x11BD JUMPI PUSH1 0x40 MLOAD PUSH3 0x461BCD PUSH1 0xE5 SHL DUP2 MSTORE PUSH1 0x4 ADD PUSH2 0x5BC SWAP1 PUSH2 0x2849 JUMP JUMPDEST PUSH2 0x11C6 DUP2 PUSH2 0x1E8C JUMP JUMPDEST PUSH1 0x40 DUP1 MLOAD PUSH1 0x0 DUP1 DUP3 MSTORE PUSH1 0x20 DUP3 ADD SWAP1 SWAP3 MSTORE PUSH2 0x11E2 SWAP2 DUP4 SWAP2 SWAP1 PUSH2 0x1E94 JUMP JUMPDEST POP JUMP JUMPDEST PUSH1 0x1 PUSH1 0x1 PUSH1 0xA0 SHL SUB PUSH32 0x0 AND ADDRESS SUB PUSH2 0x122D JUMPI PUSH1 0x40 MLOAD PUSH3 0x461BCD PUSH1 0xE5 SHL DUP2 MSTORE PUSH1 0x4 ADD PUSH2 0x5BC SWAP1 PUSH2 0x27FD JUMP JUMPDEST PUSH32 0x0 PUSH1 0x1 PUSH1 0x1 PUSH1 0xA0 SHL SUB AND PUSH2 0x1276 PUSH1 0x0 DUP1 MLOAD PUSH1 0x20 PUSH2 0x2A7E DUP4 CODECOPY DUP2 MLOAD SWAP2 MSTORE SLOAD PUSH1 0x1 PUSH1 0x1 PUSH1 0xA0 SHL SUB AND SWAP1 JUMP JUMPDEST PUSH1 0x1 PUSH1 0x1 PUSH1 0xA0 SHL SUB AND EQ PUSH2 0x129C JUMPI PUSH1 0x40 MLOAD PUSH3 0x461BCD PUSH1 0xE5 SHL DUP2 MSTORE PUSH1 0x4 ADD PUSH2 0x5BC SWAP1 PUSH2 0x2849 JUMP JUMPDEST PUSH2 0x12A5 DUP3 PUSH2 0x1E8C JUMP JUMPDEST PUSH2 0x12B1 DUP3 DUP3 PUSH1 0x1 PUSH2 0x1E94 JUMP JUMPDEST POP POP JUMP JUMPDEST PUSH1 0x0 ADDRESS PUSH1 0x1 PUSH1 0x1 PUSH1 0xA0 SHL SUB PUSH32 0x0 AND EQ PUSH2 0x1355 JUMPI PUSH1 0x40 MLOAD PUSH3 0x461BCD PUSH1 0xE5 SHL DUP2 MSTORE PUSH1 0x20 PUSH1 0x4 DUP3 ADD MSTORE PUSH1 0x38 PUSH1 0x24 DUP3 ADD MSTORE PUSH32 0x555550535570677261646561626C653A206D757374206E6F742062652063616C PUSH1 0x44 DUP3 ADD MSTORE PUSH32 0x6C6564207468726F7567682064656C656761746563616C6C0000000000000000 PUSH1 0x64 DUP3 ADD MSTORE PUSH1 0x84 ADD PUSH2 0x5BC JUMP JUMPDEST POP PUSH1 0x0 DUP1 MLOAD PUSH1 0x20 PUSH2 0x2A7E DUP4 CODECOPY DUP2 MLOAD SWAP2 MSTORE SWAP1 JUMP JUMPDEST PUSH2 0x1370 PUSH2 0x1C0F JUMP JUMPDEST PUSH1 0xFD SWAP5 SWAP1 SWAP5 SSTORE PUSH2 0x100 DUP1 SLOAD PUSH2 0xFFFF NOT AND SWAP4 ISZERO ISZERO PUSH2 0xFF00 NOT AND SWAP4 SWAP1 SWAP4 OR SWAP2 ISZERO ISZERO DUP4 MUL SWAP2 SWAP1 SWAP2 OR PUSH3 0xFF0000 NOT AND PUSH3 0x10000 SWAP2 ISZERO ISZERO SWAP2 SWAP1 SWAP2 MUL OR SWAP1 SSTORE PUSH2 0x101 SSTORE JUMP JUMPDEST PUSH2 0x13B7 PUSH2 0x1C0F JUMP JUMPDEST PUSH2 0x1104 PUSH1 0x0 PUSH2 0x1FFF JUMP JUMPDEST PUSH2 0x13C9 PUSH2 0x1C0F JUMP JUMPDEST PUSH1 0x40 MLOAD PUSH1 0x1 PUSH1 0x1 PUSH1 0xA0 SHL SUB DUP4 AND SWAP1 DUP3 ISZERO PUSH2 0x8FC MUL SWAP1 DUP4 SWAP1 PUSH1 0x0 DUP2 DUP2 DUP2 DUP6 DUP9 DUP9 CALL SWAP4 POP POP POP POP ISZERO DUP1 ISZERO PUSH2 0x498 JUMPI RETURNDATASIZE PUSH1 0x0 DUP1 RETURNDATACOPY RETURNDATASIZE PUSH1 0x0 REVERT JUMPDEST PUSH1 0x0 SLOAD PUSH2 0x100 SWAP1 DIV PUSH1 0xFF AND ISZERO DUP1 DUP1 ISZERO PUSH2 0x141F JUMPI POP PUSH1 0x0 SLOAD PUSH1 0x1 PUSH1 0xFF SWAP1 SWAP2 AND LT JUMPDEST DUP1 PUSH2 0x1439 JUMPI POP ADDRESS EXTCODESIZE ISZERO DUP1 ISZERO PUSH2 0x1439 JUMPI POP PUSH1 0x0 SLOAD PUSH1 0xFF AND PUSH1 0x1 EQ JUMPDEST PUSH2 0x149C JUMPI PUSH1 0x40 MLOAD PUSH3 0x461BCD PUSH1 0xE5 SHL DUP2 MSTORE PUSH1 0x20 PUSH1 0x4 DUP3 ADD MSTORE PUSH1 0x2E PUSH1 0x24 DUP3 ADD MSTORE PUSH32 0x496E697469616C697A61626C653A20636F6E747261637420697320616C726561 PUSH1 0x44 DUP3 ADD MSTORE PUSH14 0x191E481A5B9A5D1A585B1A5E9959 PUSH1 0x92 SHL PUSH1 0x64 DUP3 ADD MSTORE PUSH1 0x84 ADD PUSH2 0x5BC JUMP JUMPDEST PUSH1 0x0 DUP1 SLOAD PUSH1 0xFF NOT AND PUSH1 0x1 OR SWAP1 SSTORE DUP1 ISZERO PUSH2 0x14BF JUMPI PUSH1 0x0 DUP1 SLOAD PUSH2 0xFF00 NOT AND PUSH2 0x100 OR SWAP1 SSTORE JUMPDEST PUSH1 0xFB DUP1 SLOAD PUSH1 0x1 PUSH1 0x1 PUSH1 0xA0 SHL SUB NOT AND PUSH20 0x77DAAFC7411C911B869C71BF70FE36CCE507845D OR SWAP1 SSTORE PUSH7 0x38D7EA4C68000 PUSH1 0xFC SSTORE PUSH9 0x1158E460913D00000 PUSH1 0xFD SSTORE PUSH2 0x100 DUP1 SLOAD PUSH3 0xFFFFFF NOT AND PUSH2 0x101 SWAP1 DUP2 OR SWAP1 SWAP2 SSTORE PUSH9 0x1BA5ABF9E779380000 SWAP1 SSTORE PUSH2 0x1525 PUSH2 0x2051 JUMP JUMPDEST PUSH2 0x152D PUSH2 0x2080 JUMP JUMPDEST PUSH2 0x1535 PUSH2 0x20AF JUMP JUMPDEST DUP1 ISZERO PUSH2 0x11E2 JUMPI PUSH1 0x0 DUP1 SLOAD PUSH2 0xFF00 NOT AND SWAP1 SSTORE PUSH1 0x40 MLOAD PUSH1 0x1 DUP2 MSTORE PUSH32 0x7F26B83FF96E1F2B6A682F133852F6798A09C465DA95921460CEFB3847402498 SWAP1 PUSH1 0x20 ADD PUSH1 0x40 MLOAD DUP1 SWAP2 SUB SWAP1 LOG1 POP JUMP JUMPDEST PUSH2 0x1585 PUSH2 0x1C69 JUMP JUMPDEST PUSH1 0xFB SLOAD PUSH1 0x40 DUP1 MLOAD PUSH4 0x12F24B5B PUSH1 0xE2 SHL DUP2 MSTORE SWAP1 MLOAD PUSH1 0x1 PUSH1 0x1 PUSH1 0xA0 SHL SUB SWAP1 SWAP3 AND SWAP2 CALLER SWAP2 PUSH1 0x0 SWAP2 DUP5 SWAP2 PUSH4 0x4BC92D6C SWAP2 PUSH1 0x4 DUP1 DUP4 ADD SWAP3 PUSH1 0x20 SWAP3 SWAP2 SWAP1 DUP3 SWAP1 SUB ADD DUP2 DUP7 GAS STATICCALL ISZERO DUP1 ISZERO PUSH2 0x15D5 JUMPI RETURNDATASIZE PUSH1 0x0 DUP1 RETURNDATACOPY RETURNDATASIZE PUSH1 0x0 REVERT JUMPDEST POP POP POP POP PUSH1 0x40 MLOAD RETURNDATASIZE PUSH1 0x1F NOT PUSH1 0x1F DUP3 ADD AND DUP3 ADD DUP1 PUSH1 0x40 MSTORE POP DUP2 ADD SWAP1 PUSH2 0x15F9 SWAP2 SWAP1 PUSH2 0x2715 JUMP JUMPDEST PUSH1 0xFD SLOAD SWAP1 SWAP2 POP DUP5 SWAP1 DUP2 LT ISZERO PUSH2 0x1620 JUMPI PUSH1 0x40 MLOAD PUSH3 0x461BCD PUSH1 0xE5 SHL DUP2 MSTORE PUSH1 0x4 ADD PUSH2 0x5BC SWAP1 PUSH2 0x275B JUMP JUMPDEST PUSH2 0x101 SLOAD DUP2 GT ISZERO PUSH2 0x166B JUMPI PUSH1 0x40 MLOAD PUSH3 0x461BCD PUSH1 0xE5 SHL DUP2 MSTORE PUSH1 0x20 PUSH1 0x4 DUP3 ADD MSTORE PUSH1 0x15 PUSH1 0x24 DUP3 ADD MSTORE PUSH21 0x13585E08189D5E481B1A5B5A5D081C995858DA1959 PUSH1 0x5A SHL PUSH1 0x44 DUP3 ADD MSTORE PUSH1 0x64 ADD PUSH2 0x5BC JUMP JUMPDEST DUP4 PUSH1 0x1 PUSH1 0x1 PUSH1 0xA0 SHL SUB AND PUSH4 0xB70CC4C1 PUSH1 0x40 MLOAD DUP2 PUSH4 0xFFFFFFFF AND PUSH1 0xE0 SHL DUP2 MSTORE PUSH1 0x4 ADD PUSH1 0x20 PUSH1 0x40 MLOAD DUP1 DUP4 SUB DUP2 DUP7 GAS STATICCALL ISZERO DUP1 ISZERO PUSH2 0x16A9 JUMPI RETURNDATASIZE PUSH1 0x0 DUP1 RETURNDATACOPY RETURNDATASIZE PUSH1 0x0 REVERT JUMPDEST POP POP POP POP PUSH1 0x40 MLOAD RETURNDATASIZE PUSH1 0x1F NOT PUSH1 0x1F DUP3 ADD AND DUP3 ADD DUP1 PUSH1 0x40 MSTORE POP DUP2 ADD SWAP1 PUSH2 0x16CD SWAP2 SWAP1 PUSH2 0x279E JUMP JUMPDEST PUSH1 0x40 MLOAD PUSH4 0x23B872DD PUSH1 0xE0 SHL DUP2 MSTORE PUSH1 0x1 PUSH1 0x1 PUSH1 0xA0 SHL SUB DUP6 DUP2 AND PUSH1 0x4 DUP4 ADD MSTORE ADDRESS PUSH1 0x24 DUP4 ADD MSTORE PUSH1 0x44 DUP3 ADD DUP5 SWAP1 MSTORE SWAP2 SWAP1 SWAP2 AND SWAP1 PUSH4 0x23B872DD SWAP1 PUSH1 0x64 ADD PUSH1 0x20 PUSH1 0x40 MLOAD DUP1 DUP4 SUB DUP2 PUSH1 0x0 DUP8 GAS CALL ISZERO DUP1 ISZERO PUSH2 0x1724 JUMPI RETURNDATASIZE PUSH1 0x0 DUP1 RETURNDATACOPY RETURNDATASIZE PUSH1 0x0 REVERT JUMPDEST POP POP POP POP PUSH1 0x40 MLOAD RETURNDATASIZE PUSH1 0x1F NOT PUSH1 0x1F DUP3 ADD AND DUP3 ADD DUP1 PUSH1 0x40 MSTORE POP DUP2 ADD SWAP1 PUSH2 0x1748 SWAP2 SWAP1 PUSH2 0x26F8 JUMP JUMPDEST POP PUSH1 0x0 PUSH2 0x178C DUP6 PUSH1 0x1 PUSH1 0x1 PUSH1 0xA0 SHL SUB AND PUSH4 0xB70CC4C1 PUSH1 0x40 MLOAD DUP2 PUSH4 0xFFFFFFFF AND PUSH1 0xE0 SHL DUP2 MSTORE PUSH1 0x4 ADD PUSH1 0x20 PUSH1 0x40 MLOAD DUP1 DUP4 SUB DUP2 DUP7 GAS STATICCALL ISZERO DUP1 ISZERO PUSH2 0x7DF JUMPI RETURNDATASIZE PUSH1 0x0 DUP1 RETURNDATACOPY RETURNDATASIZE PUSH1 0x0 REVERT JUMPDEST PUSH2 0x100 SLOAD SWAP1 SWAP2 POP PUSH1 0xFF AND ISZERO PUSH2 0x18B0 JUMPI DUP5 PUSH1 0x1 PUSH1 0x1 PUSH1 0xA0 SHL SUB AND PUSH4 0xEE99205C PUSH1 0x40 MLOAD DUP2 PUSH4 0xFFFFFFFF AND PUSH1 0xE0 SHL DUP2 MSTORE PUSH1 0x4 ADD PUSH1 0x20 PUSH1 0x40 MLOAD DUP1 DUP4 SUB DUP2 DUP7 GAS STATICCALL ISZERO DUP1 ISZERO PUSH2 0x17D9 JUMPI RETURNDATASIZE PUSH1 0x0 DUP1 RETURNDATACOPY RETURNDATASIZE PUSH1 0x0 REVERT JUMPDEST POP POP POP POP PUSH1 0x40 MLOAD RETURNDATASIZE PUSH1 0x1F NOT PUSH1 0x1F DUP3 ADD AND DUP3 ADD DUP1 PUSH1 0x40 MSTORE POP DUP2 ADD SWAP1 PUSH2 0x17FD SWAP2 SWAP1 PUSH2 0x279E JUMP JUMPDEST PUSH1 0x1 PUSH1 0x1 PUSH1 0xA0 SHL SUB AND PUSH4 0x310C9B20 DUP6 DUP4 PUSH1 0x1 DUP2 MLOAD DUP2 LT PUSH2 0x181F JUMPI PUSH2 0x181F PUSH2 0x27CE JUMP JUMPDEST PUSH1 0x20 MUL PUSH1 0x20 ADD ADD MLOAD DUP5 PUSH1 0x0 DUP2 MLOAD DUP2 LT PUSH2 0x183A JUMPI PUSH2 0x183A PUSH2 0x27CE JUMP JUMPDEST PUSH1 0x20 SWAP1 DUP2 MUL SWAP2 SWAP1 SWAP2 ADD ADD MLOAD PUSH1 0x40 MLOAD PUSH1 0x1 PUSH1 0x1 PUSH1 0xE0 SHL SUB NOT PUSH1 0xE0 DUP7 SWAP1 SHL AND DUP2 MSTORE PUSH1 0x1 PUSH1 0x1 PUSH1 0xA0 SHL SUB SWAP1 SWAP4 AND PUSH1 0x4 DUP5 ADD MSTORE PUSH1 0x24 DUP4 ADD SWAP2 SWAP1 SWAP2 MSTORE PUSH1 0x44 DUP3 ADD MSTORE PUSH1 0x64 ADD PUSH1 0x0 PUSH1 0x40 MLOAD DUP1 DUP4 SUB DUP2 PUSH1 0x0 DUP8 DUP1 EXTCODESIZE ISZERO DUP1 ISZERO PUSH2 0x1893 JUMPI PUSH1 0x0 DUP1 REVERT JUMPDEST POP GAS CALL ISZERO DUP1 ISZERO PUSH2 0x18A7 JUMPI RETURNDATASIZE PUSH1 0x0 DUP1 RETURNDATACOPY RETURNDATASIZE PUSH1 0x0 REVERT JUMPDEST POP POP POP POP PUSH2 0x19B2 JUMP JUMPDEST DUP5 PUSH1 0x1 PUSH1 0x1 PUSH1 0xA0 SHL SUB AND PUSH4 0x55A373D6 PUSH1 0x40 MLOAD DUP2 PUSH4 0xFFFFFFFF AND PUSH1 0xE0 SHL DUP2 MSTORE PUSH1 0x4 ADD PUSH1 0x20 PUSH1 0x40 MLOAD DUP1 DUP4 SUB DUP2 DUP7 GAS STATICCALL ISZERO DUP1 ISZERO PUSH2 0x18EE JUMPI RETURNDATASIZE PUSH1 0x0 DUP1 RETURNDATACOPY RETURNDATASIZE PUSH1 0x0 REVERT JUMPDEST POP POP POP POP PUSH1 0x40 MLOAD RETURNDATASIZE PUSH1 0x1F NOT PUSH1 0x1F DUP3 ADD AND DUP3 ADD DUP1 PUSH1 0x40 MSTORE POP DUP2 ADD SWAP1 PUSH2 0x1912 SWAP2 SWAP1 PUSH2 0x279E JUMP JUMPDEST PUSH1 0x1 PUSH1 0x1 PUSH1 0xA0 SHL SUB AND PUSH4 0xA9059CBB DUP6 DUP4 PUSH1 0x1 DUP2 MLOAD DUP2 LT PUSH2 0x1934 JUMPI PUSH2 0x1934 PUSH2 0x27CE JUMP JUMPDEST PUSH1 0x20 MUL PUSH1 0x20 ADD ADD MLOAD PUSH1 0x40 MLOAD DUP4 PUSH4 0xFFFFFFFF AND PUSH1 0xE0 SHL DUP2 MSTORE PUSH1 0x4 ADD PUSH2 0x196D SWAP3 SWAP2 SWAP1 PUSH1 0x1 PUSH1 0x1 PUSH1 0xA0 SHL SUB SWAP3 SWAP1 SWAP3 AND DUP3 MSTORE PUSH1 0x20 DUP3 ADD MSTORE PUSH1 0x40 ADD SWAP1 JUMP JUMPDEST PUSH1 0x20 PUSH1 0x40 MLOAD DUP1 DUP4 SUB DUP2 PUSH1 0x0 DUP8 GAS CALL ISZERO DUP1 ISZERO PUSH2 0x198C JUMPI RETURNDATASIZE PUSH1 0x0 DUP1 RETURNDATACOPY RETURNDATASIZE PUSH1 0x0 REVERT JUMPDEST POP POP POP POP PUSH1 0x40 MLOAD RETURNDATASIZE PUSH1 0x1F NOT PUSH1 0x1F DUP3 ADD AND DUP3 ADD DUP1 PUSH1 0x40 MSTORE POP DUP2 ADD SWAP1 PUSH2 0x19B0 SWAP2 SWAP1 PUSH2 0x26F8 JUMP JUMPDEST POP JUMPDEST PUSH2 0x100 DUP1 SLOAD DIV PUSH1 0xFF AND ISZERO PUSH2 0x1AB8 JUMPI DUP5 PUSH1 0x1 PUSH1 0x1 PUSH1 0xA0 SHL SUB AND PUSH4 0x7DAD19DB PUSH1 0x40 MLOAD DUP2 PUSH4 0xFFFFFFFF AND PUSH1 0xE0 SHL DUP2 MSTORE PUSH1 0x4 ADD PUSH1 0x20 PUSH1 0x40 MLOAD DUP1 DUP4 SUB DUP2 DUP7 GAS STATICCALL ISZERO DUP1 ISZERO PUSH2 0x19FE JUMPI RETURNDATASIZE PUSH1 0x0 DUP1 RETURNDATACOPY RETURNDATASIZE PUSH1 0x0 REVERT JUMPDEST POP POP POP POP PUSH1 0x40 MLOAD RETURNDATASIZE PUSH1 0x1F NOT PUSH1 0x1F DUP3 ADD AND DUP3 ADD DUP1 PUSH1 0x40 MSTORE POP DUP2 ADD SWAP1 PUSH2 0x1A22 SWAP2 SWAP1 PUSH2 0x279E JUMP JUMPDEST PUSH1 0x1 PUSH1 0x1 PUSH1 0xA0 SHL SUB AND PUSH4 0x228159B4 DUP3 PUSH1 0x0 DUP2 MLOAD DUP2 LT PUSH2 0x1A43 JUMPI PUSH2 0x1A43 PUSH2 0x27CE JUMP JUMPDEST PUSH1 0x20 MUL PUSH1 0x20 ADD ADD MLOAD DUP7 DUP11 PUSH1 0x40 MLOAD DUP5 PUSH4 0xFFFFFFFF AND PUSH1 0xE0 SHL DUP2 MSTORE PUSH1 0x4 ADD PUSH2 0x1A85 SWAP4 SWAP3 SWAP2 SWAP1 SWAP3 DUP4 MSTORE PUSH1 0x1 PUSH1 0x1 PUSH1 0xA0 SHL SUB SWAP2 DUP3 AND PUSH1 0x20 DUP5 ADD MSTORE AND PUSH1 0x40 DUP3 ADD MSTORE PUSH1 0x60 ADD SWAP1 JUMP JUMPDEST PUSH1 0x0 PUSH1 0x40 MLOAD DUP1 DUP4 SUB DUP2 PUSH1 0x0 DUP8 DUP1 EXTCODESIZE ISZERO DUP1 ISZERO PUSH2 0x1A9F JUMPI PUSH1 0x0 DUP1 REVERT JUMPDEST POP GAS CALL ISZERO DUP1 ISZERO PUSH2 0x1AB3 JUMPI RETURNDATASIZE PUSH1 0x0 DUP1 RETURNDATACOPY RETURNDATASIZE PUSH1 0x0 REVERT JUMPDEST POP POP POP POP JUMPDEST PUSH32 0x629A485B55F72B3241F1B41FF1864E029996D1CF7D54EF632B907AF140F57430 DUP6 PUSH1 0x1 PUSH1 0x1 PUSH1 0xA0 SHL SUB AND PUSH4 0x4BC92D6C PUSH1 0x40 MLOAD DUP2 PUSH4 0xFFFFFFFF AND PUSH1 0xE0 SHL DUP2 MSTORE PUSH1 0x4 ADD PUSH1 0x20 PUSH1 0x40 MLOAD DUP1 DUP4 SUB DUP2 DUP7 GAS STATICCALL ISZERO DUP1 ISZERO PUSH2 0x1B17 JUMPI RETURNDATASIZE PUSH1 0x0 DUP1 RETURNDATACOPY RETURNDATASIZE PUSH1 0x0 REVERT JUMPDEST POP POP POP POP PUSH1 0x40 MLOAD RETURNDATASIZE PUSH1 0x1F NOT PUSH1 0x1F DUP3 ADD AND DUP3 ADD DUP1 PUSH1 0x40 MSTORE POP DUP2 ADD SWAP1 PUSH2 0x1B3B SWAP2 SWAP1 PUSH2 0x2715 JUMP JUMPDEST PUSH1 0x40 MLOAD SWAP1 DUP2 MSTORE PUSH1 0x20 ADD PUSH1 0x40 MLOAD DUP1 SWAP2 SUB SWAP1 LOG1 POP POP POP POP POP POP POP JUMP JUMPDEST PUSH2 0x1B5D PUSH2 0x1C0F JUMP JUMPDEST PUSH2 0x1104 PUSH2 0x20D6 JUMP JUMPDEST PUSH2 0x1B6D PUSH2 0x1C0F JUMP JUMPDEST PUSH1 0x40 MLOAD CALLER SWAP1 SELFBALANCE DUP1 ISZERO PUSH2 0x8FC MUL SWAP2 PUSH1 0x0 DUP2 DUP2 DUP2 DUP6 DUP9 DUP9 CALL SWAP4 POP POP POP POP ISZERO DUP1 ISZERO PUSH2 0x11E2 JUMPI RETURNDATASIZE PUSH1 0x0 DUP1 RETURNDATACOPY RETURNDATASIZE PUSH1 0x0 REVERT JUMPDEST PUSH2 0x1BA1 PUSH2 0x1C0F JUMP JUMPDEST PUSH1 0x1 PUSH1 0x1 PUSH1 0xA0 SHL SUB DUP2 AND PUSH2 0x1C06 JUMPI PUSH1 0x40 MLOAD PUSH3 0x461BCD PUSH1 0xE5 SHL DUP2 MSTORE PUSH1 0x20 PUSH1 0x4 DUP3 ADD MSTORE PUSH1 0x26 PUSH1 0x24 DUP3 ADD MSTORE PUSH32 0x4F776E61626C653A206E6577206F776E657220697320746865207A65726F2061 PUSH1 0x44 DUP3 ADD MSTORE PUSH6 0x646472657373 PUSH1 0xD0 SHL PUSH1 0x64 DUP3 ADD MSTORE PUSH1 0x84 ADD PUSH2 0x5BC JUMP JUMPDEST PUSH2 0x11E2 DUP2 PUSH2 0x1FFF JUMP JUMPDEST PUSH1 0x33 SLOAD PUSH1 0x1 PUSH1 0x1 PUSH1 0xA0 SHL SUB AND CALLER EQ PUSH2 0x1104 JUMPI PUSH1 0x40 MLOAD PUSH3 0x461BCD PUSH1 0xE5 SHL DUP2 MSTORE PUSH1 0x20 PUSH1 0x4 DUP3 ADD DUP2 SWAP1 MSTORE PUSH1 0x24 DUP3 ADD MSTORE PUSH32 0x4F776E61626C653A2063616C6C6572206973206E6F7420746865206F776E6572 PUSH1 0x44 DUP3 ADD MSTORE PUSH1 0x64 ADD PUSH2 0x5BC JUMP JUMPDEST PUSH1 0x65 SLOAD PUSH1 0xFF AND ISZERO PUSH2 0x1104 JUMPI PUSH1 0x40 MLOAD PUSH3 0x461BCD PUSH1 0xE5 SHL DUP2 MSTORE PUSH1 0x20 PUSH1 0x4 DUP3 ADD MSTORE PUSH1 0x10 PUSH1 0x24 DUP3 ADD MSTORE PUSH16 0x14185D5CD8589B194E881C185D5CD959 PUSH1 0x82 SHL PUSH1 0x44 DUP3 ADD MSTORE PUSH1 0x64 ADD PUSH2 0x5BC JUMP JUMPDEST PUSH1 0x40 DUP1 MLOAD PUSH1 0x2 DUP1 DUP3 MSTORE PUSH1 0x60 DUP1 DUP4 ADD DUP5 MSTORE SWAP3 PUSH1 0x0 SWAP3 SWAP2 SWAP1 PUSH1 0x20 DUP4 ADD SWAP1 DUP1 CALLDATASIZE DUP4 CALLDATACOPY ADD SWAP1 POP POP SWAP1 POP DUP6 DUP2 PUSH1 0x0 DUP2 MLOAD DUP2 LT PUSH2 0x1CE8 JUMPI PUSH2 0x1CE8 PUSH2 0x27CE JUMP JUMPDEST PUSH1 0x20 MUL PUSH1 0x20 ADD ADD SWAP1 PUSH1 0x1 PUSH1 0x1 PUSH1 0xA0 SHL SUB AND SWAP1 DUP2 PUSH1 0x1 PUSH1 0x1 PUSH1 0xA0 SHL SUB AND DUP2 MSTORE POP POP DUP4 DUP2 PUSH1 0x1 DUP2 MLOAD DUP2 LT PUSH2 0x1D1C JUMPI PUSH2 0x1D1C PUSH2 0x27CE JUMP JUMPDEST PUSH1 0x1 PUSH1 0x1 PUSH1 0xA0 SHL SUB SWAP3 DUP4 AND PUSH1 0x20 SWAP2 DUP3 MUL SWAP3 SWAP1 SWAP3 ADD ADD MSTORE PUSH1 0x40 MLOAD PUSH4 0x95EA7B3 PUSH1 0xE0 SHL DUP2 MSTORE DUP5 DUP3 AND PUSH1 0x4 DUP3 ADD MSTORE PUSH1 0x24 DUP2 ADD DUP8 SWAP1 MSTORE SWAP1 DUP8 AND SWAP1 PUSH4 0x95EA7B3 SWAP1 PUSH1 0x44 ADD PUSH1 0x20 PUSH1 0x40 MLOAD DUP1 DUP4 SUB DUP2 PUSH1 0x0 DUP8 GAS CALL ISZERO DUP1 ISZERO PUSH2 0x1D7A JUMPI RETURNDATASIZE PUSH1 0x0 DUP1 RETURNDATACOPY RETURNDATASIZE PUSH1 0x0 REVERT JUMPDEST POP POP POP POP PUSH1 0x40 MLOAD RETURNDATASIZE PUSH1 0x1F NOT PUSH1 0x1F DUP3 ADD AND DUP3 ADD DUP1 PUSH1 0x40 MSTORE POP DUP2 ADD SWAP1 PUSH2 0x1D9E SWAP2 SWAP1 PUSH2 0x26F8 JUMP JUMPDEST POP PUSH1 0x0 PUSH1 0x1 PUSH1 0x1 PUSH1 0xA0 SHL SUB DUP5 AND PUSH4 0x38ED1739 DUP8 PUSH1 0x1 DUP6 ADDRESS PUSH2 0x1DC0 TIMESTAMP PUSH1 0x64 PUSH2 0x2895 JUMP JUMPDEST PUSH1 0x40 MLOAD DUP7 PUSH4 0xFFFFFFFF AND PUSH1 0xE0 SHL DUP2 MSTORE PUSH1 0x4 ADD PUSH2 0x1DE0 SWAP6 SWAP5 SWAP4 SWAP3 SWAP2 SWAP1 PUSH2 0x28A8 JUMP JUMPDEST PUSH1 0x0 PUSH1 0x40 MLOAD DUP1 DUP4 SUB DUP2 PUSH1 0x0 DUP8 GAS CALL ISZERO DUP1 ISZERO PUSH2 0x1DFF JUMPI RETURNDATASIZE PUSH1 0x0 DUP1 RETURNDATACOPY RETURNDATASIZE PUSH1 0x0 REVERT JUMPDEST POP POP POP POP PUSH1 0x40 MLOAD RETURNDATASIZE PUSH1 0x0 DUP3 RETURNDATACOPY PUSH1 0x1F RETURNDATASIZE SWAP1 DUP2 ADD PUSH1 0x1F NOT AND DUP3 ADD PUSH1 0x40 MSTORE PUSH2 0x1E27 SWAP2 SWAP1 DUP2 ADD SWAP1 PUSH2 0x2919 JUMP JUMPDEST SWAP8 SWAP7 POP POP POP POP POP POP POP JUMP JUMPDEST PUSH2 0x1E3A PUSH2 0x1C69 JUMP JUMPDEST PUSH1 0x65 DUP1 SLOAD PUSH1 0xFF NOT AND PUSH1 0x1 OR SWAP1 SSTORE PUSH32 0x62E78CEA01BEE320CD4E420270B5EA74000D11B0C9F74754EBDBFC544B05A258 PUSH2 0x1E6F CALLER SWAP1 JUMP JUMPDEST PUSH1 0x40 MLOAD PUSH1 0x1 PUSH1 0x1 PUSH1 0xA0 SHL SUB SWAP1 SWAP2 AND DUP2 MSTORE PUSH1 0x20 ADD PUSH1 0x40 MLOAD DUP1 SWAP2 SUB SWAP1 LOG1 JUMP JUMPDEST PUSH2 0x11E2 PUSH2 0x1C0F JUMP JUMPDEST PUSH32 0x4910FDFA16FED3260ED0E7147F7CC6DA11A60208B5B9406D12A635614FFD9143 SLOAD PUSH1 0xFF AND ISZERO PUSH2 0x1EC7 JUMPI PUSH2 0x498 DUP4 PUSH2 0x210F JUMP JUMPDEST DUP3 PUSH1 0x1 PUSH1 0x1 PUSH1 0xA0 SHL SUB AND PUSH4 0x52D1902D PUSH1 0x40 MLOAD DUP2 PUSH4 0xFFFFFFFF AND PUSH1 0xE0 SHL DUP2 MSTORE PUSH1 0x4 ADD PUSH1 0x20 PUSH1 0x40 MLOAD DUP1 DUP4 SUB DUP2 DUP7 GAS STATICCALL SWAP3 POP POP POP DUP1 ISZERO PUSH2 0x1F21 JUMPI POP PUSH1 0x40 DUP1 MLOAD PUSH1 0x1F RETURNDATASIZE SWAP1 DUP2 ADD PUSH1 0x1F NOT AND DUP3 ADD SWAP1 SWAP3 MSTORE PUSH2 0x1F1E SWAP2 DUP2 ADD SWAP1 PUSH2 0x2715 JUMP JUMPDEST PUSH1 0x1 JUMPDEST PUSH2 0x1F84 JUMPI PUSH1 0x40 MLOAD PUSH3 0x461BCD PUSH1 0xE5 SHL DUP2 MSTORE PUSH1 0x20 PUSH1 0x4 DUP3 ADD MSTORE PUSH1 0x2E PUSH1 0x24 DUP3 ADD MSTORE PUSH32 0x45524331393637557067726164653A206E657720696D706C656D656E74617469 PUSH1 0x44 DUP3 ADD MSTORE PUSH14 0x6F6E206973206E6F742055555053 PUSH1 0x90 SHL PUSH1 0x64 DUP3 ADD MSTORE PUSH1 0x84 ADD PUSH2 0x5BC JUMP JUMPDEST PUSH1 0x0 DUP1 MLOAD PUSH1 0x20 PUSH2 0x2A7E DUP4 CODECOPY DUP2 MLOAD SWAP2 MSTORE DUP2 EQ PUSH2 0x1FF3 JUMPI PUSH1 0x40 MLOAD PUSH3 0x461BCD PUSH1 0xE5 SHL DUP2 MSTORE PUSH1 0x20 PUSH1 0x4 DUP3 ADD MSTORE PUSH1 0x29 PUSH1 0x24 DUP3 ADD MSTORE PUSH32 0x45524331393637557067726164653A20756E737570706F727465642070726F78 PUSH1 0x44 DUP3 ADD MSTORE PUSH9 0x1A58589B1955555251 PUSH1 0xBA SHL PUSH1 0x64 DUP3 ADD MSTORE PUSH1 0x84 ADD PUSH2 0x5BC JUMP JUMPDEST POP PUSH2 0x498 DUP4 DUP4 DUP4 PUSH2 0x21AB JUMP JUMPDEST PUSH1 0x33 DUP1 SLOAD PUSH1 0x1 PUSH1 0x1 PUSH1 0xA0 SHL SUB DUP4 DUP2 AND PUSH1 0x1 PUSH1 0x1 PUSH1 0xA0 SHL SUB NOT DUP4 AND DUP2 OR SWAP1 SWAP4 SSTORE PUSH1 0x40 MLOAD SWAP2 AND SWAP2 SWAP1 DUP3 SWAP1 PUSH32 0x8BE0079C531659141344CD1FD0A4F28419497F9722A3DAAFE3B4186F6B6457E0 SWAP1 PUSH1 0x0 SWAP1 LOG3 POP POP JUMP JUMPDEST PUSH1 0x0 SLOAD PUSH2 0x100 SWAP1 DIV PUSH1 0xFF AND PUSH2 0x2078 JUMPI PUSH1 0x40 MLOAD PUSH3 0x461BCD PUSH1 0xE5 SHL DUP2 MSTORE PUSH1 0x4 ADD PUSH2 0x5BC SWAP1 PUSH2 0x29BF JUMP JUMPDEST PUSH2 0x1104 PUSH2 0x21D6 JUMP JUMPDEST PUSH1 0x0 SLOAD PUSH2 0x100 SWAP1 DIV PUSH1 0xFF AND PUSH2 0x20A7 JUMPI PUSH1 0x40 MLOAD PUSH3 0x461BCD PUSH1 0xE5 SHL DUP2 MSTORE PUSH1 0x4 ADD PUSH2 0x5BC SWAP1 PUSH2 0x29BF JUMP JUMPDEST PUSH2 0x1104 PUSH2 0x2209 JUMP JUMPDEST PUSH1 0x0 SLOAD PUSH2 0x100 SWAP1 DIV PUSH1 0xFF AND PUSH2 0x1104 JUMPI PUSH1 0x40 MLOAD PUSH3 0x461BCD PUSH1 0xE5 SHL DUP2 MSTORE PUSH1 0x4 ADD PUSH2 0x5BC SWAP1 PUSH2 0x29BF JUMP JUMPDEST PUSH2 0x20DE PUSH2 0x2239 JUMP JUMPDEST PUSH1 0x65 DUP1 SLOAD PUSH1 0xFF NOT AND SWAP1 SSTORE PUSH32 0x5DB9EE0A495BF2E6FF9C91A7834C1BA4FDD244A5E8AA4E537BD38AEAE4B073AA CALLER PUSH2 0x1E6F JUMP JUMPDEST PUSH1 0x1 PUSH1 0x1 PUSH1 0xA0 SHL SUB DUP2 AND EXTCODESIZE PUSH2 0x217C JUMPI PUSH1 0x40 MLOAD PUSH3 0x461BCD PUSH1 0xE5 SHL DUP2 MSTORE PUSH1 0x20 PUSH1 0x4 DUP3 ADD MSTORE PUSH1 0x2D PUSH1 0x24 DUP3 ADD MSTORE PUSH32 0x455243313936373A206E657720696D706C656D656E746174696F6E206973206E PUSH1 0x44 DUP3 ADD MSTORE PUSH13 0x1BDD08184818DBDB9D1C9858DD PUSH1 0x9A SHL PUSH1 0x64 DUP3 ADD MSTORE PUSH1 0x84 ADD PUSH2 0x5BC JUMP JUMPDEST PUSH1 0x0 DUP1 MLOAD PUSH1 0x20 PUSH2 0x2A7E DUP4 CODECOPY DUP2 MLOAD SWAP2 MSTORE DUP1 SLOAD PUSH1 0x1 PUSH1 0x1 PUSH1 0xA0 SHL SUB NOT AND PUSH1 0x1 PUSH1 0x1 PUSH1 0xA0 SHL SUB SWAP3 SWAP1 SWAP3 AND SWAP2 SWAP1 SWAP2 OR SWAP1 SSTORE JUMP JUMPDEST PUSH2 0x21B4 DUP4 PUSH2 0x2282 JUMP JUMPDEST PUSH1 0x0 DUP3 MLOAD GT DUP1 PUSH2 0x21C1 JUMPI POP DUP1 JUMPDEST ISZERO PUSH2 0x498 JUMPI PUSH2 0x21D0 DUP4 DUP4 PUSH2 0x22C2 JUMP JUMPDEST POP POP POP POP JUMP JUMPDEST PUSH1 0x0 SLOAD PUSH2 0x100 SWAP1 DIV PUSH1 0xFF AND PUSH2 0x21FD JUMPI PUSH1 0x40 MLOAD PUSH3 0x461BCD PUSH1 0xE5 SHL DUP2 MSTORE PUSH1 0x4 ADD PUSH2 0x5BC SWAP1 PUSH2 0x29BF JUMP JUMPDEST PUSH1 0x65 DUP1 SLOAD PUSH1 0xFF NOT AND SWAP1 SSTORE JUMP JUMPDEST PUSH1 0x0 SLOAD PUSH2 0x100 SWAP1 DIV PUSH1 0xFF AND PUSH2 0x2230 JUMPI PUSH1 0x40 MLOAD PUSH3 0x461BCD PUSH1 0xE5 SHL DUP2 MSTORE PUSH1 0x4 ADD PUSH2 0x5BC SWAP1 PUSH2 0x29BF JUMP JUMPDEST PUSH2 0x1104 CALLER PUSH2 0x1FFF JUMP JUMPDEST PUSH1 0x65 SLOAD PUSH1 0xFF AND PUSH2 0x1104 JUMPI PUSH1 0x40 MLOAD PUSH3 0x461BCD PUSH1 0xE5 SHL DUP2 MSTORE PUSH1 0x20 PUSH1 0x4 DUP3 ADD MSTORE PUSH1 0x14 PUSH1 0x24 DUP3 ADD MSTORE PUSH20 0x14185D5CD8589B194E881B9BDD081C185D5CD959 PUSH1 0x62 SHL PUSH1 0x44 DUP3 ADD MSTORE PUSH1 0x64 ADD PUSH2 0x5BC JUMP JUMPDEST PUSH2 0x228B DUP2 PUSH2 0x210F JUMP JUMPDEST PUSH1 0x40 MLOAD PUSH1 0x1 PUSH1 0x1 PUSH1 0xA0 SHL SUB DUP3 AND SWAP1 PUSH32 0xBC7CD75A20EE27FD9ADEBAB32041F755214DBC6BFFA90CC0225B39DA2E5C2D3B SWAP1 PUSH1 0x0 SWAP1 LOG2 POP JUMP JUMPDEST PUSH1 0x60 PUSH1 0x1 PUSH1 0x1 PUSH1 0xA0 SHL SUB DUP4 AND EXTCODESIZE PUSH2 0x232A JUMPI PUSH1 0x40 MLOAD PUSH3 0x461BCD PUSH1 0xE5 SHL DUP2 MSTORE PUSH1 0x20 PUSH1 0x4 DUP3 ADD MSTORE PUSH1 0x26 PUSH1 0x24 DUP3 ADD MSTORE PUSH32 0x416464726573733A2064656C65676174652063616C6C20746F206E6F6E2D636F PUSH1 0x44 DUP3 ADD MSTORE PUSH6 0x1B9D1C9858DD PUSH1 0xD2 SHL PUSH1 0x64 DUP3 ADD MSTORE PUSH1 0x84 ADD PUSH2 0x5BC JUMP JUMPDEST PUSH1 0x0 DUP1 DUP5 PUSH1 0x1 PUSH1 0x1 PUSH1 0xA0 SHL SUB AND DUP5 PUSH1 0x40 MLOAD PUSH2 0x2345 SWAP2 SWAP1 PUSH2 0x2A2E JUMP JUMPDEST PUSH1 0x0 PUSH1 0x40 MLOAD DUP1 DUP4 SUB DUP2 DUP6 GAS DELEGATECALL SWAP2 POP POP RETURNDATASIZE DUP1 PUSH1 0x0 DUP2 EQ PUSH2 0x2380 JUMPI PUSH1 0x40 MLOAD SWAP2 POP PUSH1 0x1F NOT PUSH1 0x3F RETURNDATASIZE ADD AND DUP3 ADD PUSH1 0x40 MSTORE RETURNDATASIZE DUP3 MSTORE RETURNDATASIZE PUSH1 0x0 PUSH1 0x20 DUP5 ADD RETURNDATACOPY PUSH2 0x2385 JUMP JUMPDEST PUSH1 0x60 SWAP2 POP JUMPDEST POP SWAP2 POP SWAP2 POP PUSH2 0x23AD DUP3 DUP3 PUSH1 0x40 MLOAD DUP1 PUSH1 0x60 ADD PUSH1 0x40 MSTORE DUP1 PUSH1 0x27 DUP2 MSTORE PUSH1 0x20 ADD PUSH2 0x2A9E PUSH1 0x27 SWAP2 CODECOPY PUSH2 0x23B8 JUMP JUMPDEST SWAP3 POP POP POP JUMPDEST SWAP3 SWAP2 POP POP JUMP JUMPDEST PUSH1 0x60 DUP4 ISZERO PUSH2 0x23C7 JUMPI POP DUP2 PUSH2 0x23D1 JUMP JUMPDEST PUSH2 0x23D1 DUP4 DUP4 PUSH2 0x23D8 JUMP JUMPDEST SWAP4 SWAP3 POP POP POP JUMP JUMPDEST DUP2 MLOAD ISZERO PUSH2 0x23E8 JUMPI DUP2 MLOAD DUP1 DUP4 PUSH1 0x20 ADD REVERT JUMPDEST DUP1 PUSH1 0x40 MLOAD PUSH3 0x461BCD PUSH1 0xE5 SHL DUP2 MSTORE PUSH1 0x4 ADD PUSH2 0x5BC SWAP2 SWAP1 PUSH2 0x2A4A JUMP JUMPDEST PUSH1 0x1 PUSH1 0x1 PUSH1 0xA0 SHL SUB DUP2 AND DUP2 EQ PUSH2 0x11E2 JUMPI PUSH1 0x0 DUP1 REVERT JUMPDEST PUSH1 0x0 DUP1 PUSH1 0x40 DUP4 DUP6 SUB SLT ISZERO PUSH2 0x242A JUMPI PUSH1 0x0 DUP1 REVERT JUMPDEST DUP3 CALLDATALOAD PUSH2 0x2435 DUP2 PUSH2 0x2402 JUMP JUMPDEST SWAP5 PUSH1 0x20 SWAP4 SWAP1 SWAP4 ADD CALLDATALOAD SWAP4 POP POP POP JUMP JUMPDEST PUSH1 0x0 PUSH1 0x20 DUP3 DUP5 SUB SLT ISZERO PUSH2 0x2455 JUMPI PUSH1 0x0 DUP1 REVERT JUMPDEST DUP2 CALLDATALOAD PUSH2 0x23D1 DUP2 PUSH2 0x2402 JUMP JUMPDEST PUSH1 0x0 PUSH1 0x20 DUP3 DUP5 SUB SLT ISZERO PUSH2 0x2472 JUMPI PUSH1 0x0 DUP1 REVERT JUMPDEST POP CALLDATALOAD SWAP2 SWAP1 POP JUMP JUMPDEST PUSH1 0x0 DUP1 PUSH1 0x0 PUSH1 0x60 DUP5 DUP7 SUB SLT ISZERO PUSH2 0x248E JUMPI PUSH1 0x0 DUP1 REVERT JUMPDEST DUP4 CALLDATALOAD PUSH2 0x2499 DUP2 PUSH2 0x2402 JUMP JUMPDEST SWAP3 POP PUSH1 0x20 DUP5 ADD CALLDATALOAD PUSH2 0x24A9 DUP2 PUSH2 0x2402 JUMP JUMPDEST SWAP3 SWAP6 SWAP3 SWAP5 POP POP POP PUSH1 0x40 SWAP2 SWAP1 SWAP2 ADD CALLDATALOAD SWAP1 JUMP JUMPDEST PUSH1 0x0 DUP1 DUP4 PUSH1 0x1F DUP5 ADD SLT PUSH2 0x24CC JUMPI PUSH1 0x0 DUP1 REVERT JUMPDEST POP DUP2 CALLDATALOAD PUSH8 0xFFFFFFFFFFFFFFFF DUP2 GT ISZERO PUSH2 0x24E4 JUMPI PUSH1 0x0 DUP1 REVERT JUMPDEST PUSH1 0x20 DUP4 ADD SWAP2 POP DUP4 PUSH1 0x20 DUP3 PUSH1 0x5 SHL DUP6 ADD ADD GT ISZERO PUSH2 0x24FF JUMPI PUSH1 0x0 DUP1 REVERT JUMPDEST SWAP3 POP SWAP3 SWAP1 POP JUMP JUMPDEST PUSH1 0x0 DUP1 PUSH1 0x0 DUP1 PUSH1 0x0 DUP1 PUSH1 0x60 DUP8 DUP10 SUB SLT ISZERO PUSH2 0x251F JUMPI PUSH1 0x0 DUP1 REVERT JUMPDEST DUP7 CALLDATALOAD PUSH8 0xFFFFFFFFFFFFFFFF DUP1 DUP3 GT ISZERO PUSH2 0x2537 JUMPI PUSH1 0x0 DUP1 REVERT JUMPDEST PUSH2 0x2543 DUP11 DUP4 DUP12 ADD PUSH2 0x24BA JUMP JUMPDEST SWAP1 SWAP9 POP SWAP7 POP PUSH1 0x20 DUP10 ADD CALLDATALOAD SWAP2 POP DUP1 DUP3 GT ISZERO PUSH2 0x255C JUMPI PUSH1 0x0 DUP1 REVERT JUMPDEST PUSH2 0x2568 DUP11 DUP4 DUP12 ADD PUSH2 0x24BA JUMP JUMPDEST SWAP1 SWAP7 POP SWAP5 POP PUSH1 0x40 DUP10 ADD CALLDATALOAD SWAP2 POP DUP1 DUP3 GT ISZERO PUSH2 0x2581 JUMPI PUSH1 0x0 DUP1 REVERT JUMPDEST POP PUSH2 0x258E DUP10 DUP3 DUP11 ADD PUSH2 0x24BA JUMP JUMPDEST SWAP8 SWAP11 SWAP7 SWAP10 POP SWAP5 SWAP8 POP SWAP3 SWAP6 SWAP4 SWAP5 SWAP3 POP POP POP JUMP JUMPDEST PUSH4 0x4E487B71 PUSH1 0xE0 SHL PUSH1 0x0 MSTORE PUSH1 0x41 PUSH1 0x4 MSTORE PUSH1 0x24 PUSH1 0x0 REVERT JUMPDEST PUSH1 0x40 MLOAD PUSH1 0x1F DUP3 ADD PUSH1 0x1F NOT AND DUP2 ADD PUSH8 0xFFFFFFFFFFFFFFFF DUP2 GT DUP3 DUP3 LT OR ISZERO PUSH2 0x25DF JUMPI PUSH2 0x25DF PUSH2 0x25A0 JUMP JUMPDEST PUSH1 0x40 MSTORE SWAP2 SWAP1 POP JUMP JUMPDEST PUSH1 0x0 DUP1 PUSH1 0x40 DUP4 DUP6 SUB SLT ISZERO PUSH2 0x25FA JUMPI PUSH1 0x0 DUP1 REVERT JUMPDEST DUP3 CALLDATALOAD PUSH2 0x2605 DUP2 PUSH2 0x2402 JUMP JUMPDEST SWAP2 POP PUSH1 0x20 DUP4 DUP2 ADD CALLDATALOAD PUSH8 0xFFFFFFFFFFFFFFFF DUP1 DUP3 GT ISZERO PUSH2 0x2623 JUMPI PUSH1 0x0 DUP1 REVERT JUMPDEST DUP2 DUP7 ADD SWAP2 POP DUP7 PUSH1 0x1F DUP4 ADD SLT PUSH2 0x2637 JUMPI PUSH1 0x0 DUP1 REVERT JUMPDEST DUP2 CALLDATALOAD DUP2 DUP2 GT ISZERO PUSH2 0x2649 JUMPI PUSH2 0x2649 PUSH2 0x25A0 JUMP JUMPDEST PUSH2 0x265B PUSH1 0x1F DUP3 ADD PUSH1 0x1F NOT AND DUP6 ADD PUSH2 0x25B6 JUMP JUMPDEST SWAP2 POP DUP1 DUP3 MSTORE DUP8 DUP5 DUP3 DUP6 ADD ADD GT ISZERO PUSH2 0x2671 JUMPI PUSH1 0x0 DUP1 REVERT JUMPDEST DUP1 DUP5 DUP5 ADD DUP6 DUP5 ADD CALLDATACOPY PUSH1 0x0 DUP5 DUP3 DUP5 ADD ADD MSTORE POP DUP1 SWAP4 POP POP POP POP SWAP3 POP SWAP3 SWAP1 POP JUMP JUMPDEST DUP1 ISZERO ISZERO DUP2 EQ PUSH2 0x11E2 JUMPI PUSH1 0x0 DUP1 REVERT JUMPDEST PUSH1 0x0 DUP1 PUSH1 0x0 DUP1 PUSH1 0x0 PUSH1 0xA0 DUP7 DUP9 SUB SLT ISZERO PUSH2 0x26B5 JUMPI PUSH1 0x0 DUP1 REVERT JUMPDEST DUP6 CALLDATALOAD SWAP5 POP PUSH1 0x20 DUP7 ADD CALLDATALOAD PUSH2 0x26C7 DUP2 PUSH2 0x268F JUMP JUMPDEST SWAP4 POP PUSH1 0x40 DUP7 ADD CALLDATALOAD PUSH2 0x26D7 DUP2 PUSH2 0x268F JUMP JUMPDEST SWAP3 POP PUSH1 0x60 DUP7 ADD CALLDATALOAD PUSH2 0x26E7 DUP2 PUSH2 0x268F JUMP JUMPDEST SWAP5 SWAP8 SWAP4 SWAP7 POP SWAP2 SWAP5 PUSH1 0x80 ADD CALLDATALOAD SWAP3 SWAP2 POP POP JUMP JUMPDEST PUSH1 0x0 PUSH1 0x20 DUP3 DUP5 SUB SLT ISZERO PUSH2 0x270A JUMPI PUSH1 0x0 DUP1 REVERT JUMPDEST DUP2 MLOAD PUSH2 0x23D1 DUP2 PUSH2 0x268F JUMP JUMPDEST PUSH1 0x0 PUSH1 0x20 DUP3 DUP5 SUB SLT ISZERO PUSH2 0x2727 JUMPI PUSH1 0x0 DUP1 REVERT JUMPDEST POP MLOAD SWAP2 SWAP1 POP JUMP JUMPDEST PUSH4 0x4E487B71 PUSH1 0xE0 SHL PUSH1 0x0 MSTORE PUSH1 0x11 PUSH1 0x4 MSTORE PUSH1 0x24 PUSH1 0x0 REVERT JUMPDEST DUP1 DUP3 MUL DUP2 ISZERO DUP3 DUP3 DIV DUP5 EQ OR PUSH2 0x23B2 JUMPI PUSH2 0x23B2 PUSH2 0x272E JUMP JUMPDEST PUSH1 0x20 DUP1 DUP3 MSTORE PUSH1 0x23 SWAP1 DUP3 ADD MSTORE PUSH32 0x415553442076616C7565206C657373207468656E206D696E206275792076616C PUSH1 0x40 DUP3 ADD MSTORE PUSH3 0x3AB297 PUSH1 0xE9 SHL PUSH1 0x60 DUP3 ADD MSTORE PUSH1 0x80 ADD SWAP1 JUMP JUMPDEST PUSH1 0x0 PUSH1 0x20 DUP3 DUP5 SUB SLT ISZERO PUSH2 0x27B0 JUMPI PUSH1 0x0 DUP1 REVERT JUMPDEST DUP2 MLOAD PUSH2 0x23D1 DUP2 PUSH2 0x2402 JUMP JUMPDEST DUP2 DUP2 SUB DUP2 DUP2 GT ISZERO PUSH2 0x23B2 JUMPI PUSH2 0x23B2 PUSH2 0x272E JUMP JUMPDEST PUSH4 0x4E487B71 PUSH1 0xE0 SHL PUSH1 0x0 MSTORE PUSH1 0x32 PUSH1 0x4 MSTORE PUSH1 0x24 PUSH1 0x0 REVERT JUMPDEST PUSH1 0x0 PUSH1 0x1 DUP3 ADD PUSH2 0x27F6 JUMPI PUSH2 0x27F6 PUSH2 0x272E JUMP JUMPDEST POP PUSH1 0x1 ADD SWAP1 JUMP JUMPDEST PUSH1 0x20 DUP1 DUP3 MSTORE PUSH1 0x2C SWAP1 DUP3 ADD MSTORE PUSH32 0x46756E6374696F6E206D7573742062652063616C6C6564207468726F75676820 PUSH1 0x40 DUP3 ADD MSTORE PUSH12 0x19195B1959D85D1958D85B1B PUSH1 0xA2 SHL PUSH1 0x60 DUP3 ADD MSTORE PUSH1 0x80 ADD SWAP1 JUMP JUMPDEST PUSH1 0x20 DUP1 DUP3 MSTORE PUSH1 0x2C SWAP1 DUP3 ADD MSTORE PUSH32 0x46756E6374696F6E206D7573742062652063616C6C6564207468726F75676820 PUSH1 0x40 DUP3 ADD MSTORE PUSH12 0x6163746976652070726F7879 PUSH1 0xA0 SHL PUSH1 0x60 DUP3 ADD MSTORE PUSH1 0x80 ADD SWAP1 JUMP JUMPDEST DUP1 DUP3 ADD DUP1 DUP3 GT ISZERO PUSH2 0x23B2 JUMPI PUSH2 0x23B2 PUSH2 0x272E JUMP JUMPDEST PUSH1 0x0 PUSH1 0xA0 DUP3 ADD DUP8 DUP4 MSTORE PUSH1 0x20 DUP8 DUP2 DUP6 ADD MSTORE PUSH1 0xA0 PUSH1 0x40 DUP6 ADD MSTORE DUP2 DUP8 MLOAD DUP1 DUP5 MSTORE PUSH1 0xC0 DUP7 ADD SWAP2 POP DUP3 DUP10 ADD SWAP4 POP PUSH1 0x0 JUMPDEST DUP2 DUP2 LT ISZERO PUSH2 0x28F8 JUMPI DUP5 MLOAD PUSH1 0x1 PUSH1 0x1 PUSH1 0xA0 SHL SUB AND DUP4 MSTORE SWAP4 DUP4 ADD SWAP4 SWAP2 DUP4 ADD SWAP2 PUSH1 0x1 ADD PUSH2 0x28D3 JUMP JUMPDEST POP POP PUSH1 0x1 PUSH1 0x1 PUSH1 0xA0 SHL SUB SWAP7 SWAP1 SWAP7 AND PUSH1 0x60 DUP6 ADD MSTORE POP POP POP PUSH1 0x80 ADD MSTORE SWAP4 SWAP3 POP POP POP JUMP JUMPDEST PUSH1 0x0 PUSH1 0x20 DUP1 DUP4 DUP6 SUB SLT ISZERO PUSH2 0x292C JUMPI PUSH1 0x0 DUP1 REVERT JUMPDEST DUP3 MLOAD PUSH8 0xFFFFFFFFFFFFFFFF DUP1 DUP3 GT ISZERO PUSH2 0x2944 JUMPI PUSH1 0x0 DUP1 REVERT JUMPDEST DUP2 DUP6 ADD SWAP2 POP DUP6 PUSH1 0x1F DUP4 ADD SLT PUSH2 0x2958 JUMPI PUSH1 0x0 DUP1 REVERT JUMPDEST DUP2 MLOAD DUP2 DUP2 GT ISZERO PUSH2 0x296A JUMPI PUSH2 0x296A PUSH2 0x25A0 JUMP JUMPDEST DUP1 PUSH1 0x5 SHL SWAP2 POP PUSH2 0x297B DUP5 DUP4 ADD PUSH2 0x25B6 JUMP JUMPDEST DUP2 DUP2 MSTORE SWAP2 DUP4 ADD DUP5 ADD SWAP2 DUP5 DUP2 ADD SWAP1 DUP9 DUP5 GT ISZERO PUSH2 0x2995 JUMPI PUSH1 0x0 DUP1 REVERT JUMPDEST SWAP4 DUP6 ADD SWAP4 JUMPDEST DUP4 DUP6 LT ISZERO PUSH2 0x29B3 JUMPI DUP5 MLOAD DUP3 MSTORE SWAP4 DUP6 ADD SWAP4 SWAP1 DUP6 ADD SWAP1 PUSH2 0x299A JUMP JUMPDEST SWAP9 SWAP8 POP POP POP POP POP POP POP POP JUMP JUMPDEST PUSH1 0x20 DUP1 DUP3 MSTORE PUSH1 0x2B SWAP1 DUP3 ADD MSTORE PUSH32 0x496E697469616C697A61626C653A20636F6E7472616374206973206E6F742069 PUSH1 0x40 DUP3 ADD MSTORE PUSH11 0x6E697469616C697A696E67 PUSH1 0xA8 SHL PUSH1 0x60 DUP3 ADD MSTORE PUSH1 0x80 ADD SWAP1 JUMP JUMPDEST PUSH1 0x0 JUMPDEST DUP4 DUP2 LT ISZERO PUSH2 0x2A25 JUMPI DUP2 DUP2 ADD MLOAD DUP4 DUP3 ADD MSTORE PUSH1 0x20 ADD PUSH2 0x2A0D JUMP JUMPDEST POP POP PUSH1 0x0 SWAP2 ADD MSTORE JUMP JUMPDEST PUSH1 0x0 DUP3 MLOAD PUSH2 0x2A40 DUP2 DUP5 PUSH1 0x20 DUP8 ADD PUSH2 0x2A0A JUMP JUMPDEST SWAP2 SWAP1 SWAP2 ADD SWAP3 SWAP2 POP POP JUMP JUMPDEST PUSH1 0x20 DUP2 MSTORE PUSH1 0x0 DUP3 MLOAD DUP1 PUSH1 0x20 DUP5 ADD MSTORE PUSH2 0x2A69 DUP2 PUSH1 0x40 DUP6 ADD PUSH1 0x20 DUP8 ADD PUSH2 0x2A0A JUMP JUMPDEST PUSH1 0x1F ADD PUSH1 0x1F NOT AND SWAP2 SWAP1 SWAP2 ADD PUSH1 0x40 ADD SWAP3 SWAP2 POP POP JUMP INVALID CALLDATASIZE ADDMOD SWAP5 LOG1 EXTCODESIZE LOG1 LOG3 0x21 MOD PUSH8 0xC828492DB98DCA3E KECCAK256 PUSH23 0xCC3735A920A3CA505D382BBC416464726573733A206C6F PUSH24 0x2D6C6576656C2064656C65676174652063616C6C20666169 PUSH13 0x6564A264697066735822122078 PUSH14 0x9DECE26640D903C2B548FF0AEAA2 SWAP12 MSTORE8 0x2E PUSH18 0x1F94706BC9CCB2B1FD3188C664736F6C6343 STOP ADDMOD GT STOP CALLER "},"methodIdentifiers":{"BuyWithANUSD(address,uint256)":"b9439d20","BuyWithANUSDAdmin(address[],address[],uint256[])":"182feeaa","BuyWithANUSDManager(address,address,uint256)":"15fcd116","admins(uint256)":"14bfd6d0","getAnalystics()":"4f0371d7","getCapping()":"de863da3","getVariablesContract()":"f13a143f","initialize()":"8129fc1c","owner()":"8da5cb5b","pauseAdmin()":"2f11d653","paused()":"5c975abb","proxiableUUID()":"52d1902d","renounceOwnership()":"715018a6","setCapping(uint256,bool,bool,bool,uint256)":"6740090a","setVariablesContract(address)":"0ba0dba3","transferETH(address,uint256)":"7b1a4909","transferOwnership(address)":"f2fde38b","unpauseAdmin()":"db5184e6","upgradeTo(address)":"3659cfe6","upgradeToAndCall(address,bytes)":"4f1ef286","withdrawETH()":"e086e5ec","withdrawTokens(address,uint256)":"06b091f9"}},"storageLayout":{"storage":[{"astId":573,"contract":"contracts/PresaleUpgradeable.sol:PresaleUpgradeable","label":"_initialized","offset":0,"slot":"0","type":"t_uint8"},{"astId":576,"contract":"contracts/PresaleUpgradeable.sol:PresaleUpgradeable","label":"_initializing","offset":1,"slot":"0","type":"t_bool"},{"astId":1401,"contract":"contracts/PresaleUpgradeable.sol:PresaleUpgradeable","label":"__gap","offset":0,"slot":"1","type":"t_array(t_uint256)50_storage"},{"astId":56,"contract":"contracts/PresaleUpgradeable.sol:PresaleUpgradeable","label":"_owner","offset":0,"slot":"51","type":"t_address"},{"astId":176,"contract":"contracts/PresaleUpgradeable.sol:PresaleUpgradeable","label":"__gap","offset":0,"slot":"52","type":"t_array(t_uint256)49_storage"},{"astId":892,"contract":"contracts/PresaleUpgradeable.sol:PresaleUpgradeable","label":"_paused","offset":0,"slot":"101","type":"t_bool"},{"astId":997,"contract":"contracts/PresaleUpgradeable.sol:PresaleUpgradeable","label":"__gap","offset":0,"slot":"102","type":"t_array(t_uint256)49_storage"},{"astId":555,"contract":"contracts/PresaleUpgradeable.sol:PresaleUpgradeable","label":"__gap","offset":0,"slot":"151","type":"t_array(t_uint256)50_storage"},{"astId":870,"contract":"contracts/PresaleUpgradeable.sol:PresaleUpgradeable","label":"__gap","offset":0,"slot":"201","type":"t_array(t_uint256)50_storage"},{"astId":1965,"contract":"contracts/PresaleUpgradeable.sol:PresaleUpgradeable","label":"_variableContract","offset":0,"slot":"251","type":"t_address"},{"astId":1967,"contract":"contracts/PresaleUpgradeable.sol:PresaleUpgradeable","label":"_rewardPerAUSD","offset":0,"slot":"252","type":"t_uint256"},{"astId":1969,"contract":"contracts/PresaleUpgradeable.sol:PresaleUpgradeable","label":"_minContributionUSD","offset":0,"slot":"253","type":"t_uint256"},{"astId":1971,"contract":"contracts/PresaleUpgradeable.sol:PresaleUpgradeable","label":"_totalTokenSold","offset":0,"slot":"254","type":"t_uint256"},{"astId":1973,"contract":"contracts/PresaleUpgradeable.sol:PresaleUpgradeable","label":"_totalAUSDRaised","offset":0,"slot":"255","type":"t_uint256"},{"astId":1975,"contract":"contracts/PresaleUpgradeable.sol:PresaleUpgradeable","label":"_isBuyNStake","offset":0,"slot":"256","type":"t_bool"},{"astId":1977,"contract":"contracts/PresaleUpgradeable.sol:PresaleUpgradeable","label":"_isPayReferral","offset":1,"slot":"256","type":"t_bool"},{"astId":1979,"contract":"contracts/PresaleUpgradeable.sol:PresaleUpgradeable","label":"_isPayRewardTokens","offset":2,"slot":"256","type":"t_bool"},{"astId":1981,"contract":"contracts/PresaleUpgradeable.sol:PresaleUpgradeable","label":"_maxBuyLimitANUSD","offset":0,"slot":"257","type":"t_uint256"},{"astId":2053,"contract":"contracts/PresaleUpgradeable.sol:PresaleUpgradeable","label":"admins","offset":0,"slot":"258","type":"t_array(t_address)dyn_storage"}],"types":{"t_address":{"encoding":"inplace","label":"address","numberOfBytes":"20"},"t_array(t_address)dyn_storage":{"base":"t_address","encoding":"dynamic_array","label":"address[]","numberOfBytes":"32"},"t_array(t_uint256)49_storage":{"base":"t_uint256","encoding":"inplace","label":"uint256[49]","numberOfBytes":"1568"},"t_array(t_uint256)50_storage":{"base":"t_uint256","encoding":"inplace","label":"uint256[50]","numberOfBytes":"1600"},"t_bool":{"encoding":"inplace","label":"bool","numberOfBytes":"1"},"t_uint256":{"encoding":"inplace","label":"uint256","numberOfBytes":"32"},"t_uint8":{"encoding":"inplace","label":"uint8","numberOfBytes":"1"}}}}}}