{"contracts/PresaleUpgradeable.sol":{"PresaleUpgradeable":{"abi":[{"anonymous":false,"inputs":[{"indexed":false,"internalType":"address","name":"previousAdmin","type":"address"},{"indexed":false,"internalType":"address","name":"newAdmin","type":"address"}],"name":"AdminChanged","type":"event"},{"anonymous":false,"inputs":[{"indexed":true,"internalType":"address","name":"beacon","type":"address"}],"name":"BeaconUpgraded","type":"event"},{"anonymous":false,"inputs":[{"indexed":false,"internalType":"uint8","name":"version","type":"uint8"}],"name":"Initialized","type":"event"},{"anonymous":false,"inputs":[{"indexed":true,"internalType":"address","name":"previousOwner","type":"address"},{"indexed":true,"internalType":"address","name":"newOwner","type":"address"}],"name":"OwnershipTransferred","type":"event"},{"anonymous":false,"inputs":[{"indexed":false,"internalType":"address","name":"account","type":"address"}],"name":"Paused","type":"event"},{"anonymous":false,"inputs":[{"indexed":false,"internalType":"uint256","name":"amount","type":"uint256"}],"name":"RegistrationFees","type":"event"},{"anonymous":false,"inputs":[{"indexed":true,"internalType":"address","name":"to","type":"address"},{"indexed":true,"internalType":"uint256","name":"tokenValue","type":"uint256"},{"indexed":true,"internalType":"address","name":"rewardTokenContract","type":"address"}],"name":"RewardTokenDistributed","type":"event"},{"anonymous":false,"inputs":[{"indexed":true,"internalType":"address","name":"from","type":"address"},{"indexed":true,"internalType":"uint256","name":"tokenValue","type":"uint256"},{"indexed":true,"internalType":"uint256","name":"ethValue","type":"uint256"},{"indexed":false,"internalType":"string","name":"currency","type":"string"}],"name":"TokenPurchased","type":"event"},{"anonymous":false,"inputs":[{"indexed":false,"internalType":"address","name":"account","type":"address"}],"name":"Unpaused","type":"event"},{"anonymous":false,"inputs":[{"indexed":true,"internalType":"address","name":"implementation","type":"address"}],"name":"Upgraded","type":"event"},{"inputs":[{"internalType":"address","name":"_referrerAddress","type":"address"},{"internalType":"address","name":"_userAddress","type":"address"},{"internalType":"uint256","name":"_valueInWei","type":"uint256"},{"internalType":"address","name":"_tokenAddress","type":"address"}],"name":"BuyWithANUSD","outputs":[],"stateMutability":"nonpayable","type":"function"},{"inputs":[{"internalType":"address[]","name":"_referrerAddress","type":"address[]"},{"internalType":"address[]","name":"_userAddress","type":"address[]"},{"internalType":"uint256[]","name":"_valueInUSDDecimals","type":"uint256[]"},{"internalType":"address","name":"_tokenAddress","type":"address"}],"name":"BuyWithANUSDAdmin","outputs":[],"stateMutability":"nonpayable","type":"function"},{"inputs":[{"internalType":"address[]","name":"_referrerAddress","type":"address[]"},{"internalType":"address[]","name":"_userAddress","type":"address[]"},{"internalType":"uint256[]","name":"_valueInUSDDecimals","type":"uint256[]"}],"name":"BuyWithANUSDManager","outputs":[],"stateMutability":"nonpayable","type":"function"},{"inputs":[{"internalType":"uint256","name":"","type":"uint256"}],"name":"admins","outputs":[{"internalType":"address","name":"","type":"address"}],"stateMutability":"view","type":"function"},{"inputs":[],"name":"getAnalystics","outputs":[{"internalType":"uint256","name":"tokenSold","type":"uint256"},{"internalType":"uint256","name":"ausdRaised","type":"uint256"}],"stateMutability":"view","type":"function"},{"inputs":[],"name":"getCapping","outputs":[{"internalType":"uint256","name":"minConUSD","type":"uint256"},{"internalType":"bool","name":"isBuyStakeEnabled","type":"bool"},{"internalType":"bool","name":"isPayReferralEnabled","type":"bool"},{"internalType":"bool","name":"isPayRewardTokenEnabled","type":"bool"},{"internalType":"uint256","name":"maxBuyLimitANUSD","type":"uint256"}],"stateMutability":"view","type":"function"},{"inputs":[],"name":"getVariablesContract","outputs":[{"internalType":"address","name":"","type":"address"}],"stateMutability":"view","type":"function"},{"inputs":[],"name":"initialize","outputs":[],"stateMutability":"nonpayable","type":"function"},{"inputs":[],"name":"owner","outputs":[{"internalType":"address","name":"","type":"address"}],"stateMutability":"view","type":"function"},{"inputs":[],"name":"pauseAdmin","outputs":[],"stateMutability":"nonpayable","type":"function"},{"inputs":[],"name":"paused","outputs":[{"internalType":"bool","name":"","type":"bool"}],"stateMutability":"view","type":"function"},{"inputs":[],"name":"proxiableUUID","outputs":[{"internalType":"bytes32","name":"","type":"bytes32"}],"stateMutability":"view","type":"function"},{"inputs":[],"name":"renounceOwnership","outputs":[],"stateMutability":"nonpayable","type":"function"},{"inputs":[{"internalType":"uint256","name":"minConUSD","type":"uint256"},{"internalType":"bool","name":"isBuyNStake","type":"bool"},{"internalType":"bool","name":"isPayReferral","type":"bool"},{"internalType":"bool","name":"isPayRewardTokens","type":"bool"},{"internalType":"uint256","name":"maxBuyLimitANUSD","type":"uint256"}],"name":"setCapping","outputs":[],"stateMutability":"nonpayable","type":"function"},{"inputs":[{"internalType":"address","name":"_contractAddress","type":"address"}],"name":"setVariablesContract","outputs":[],"stateMutability":"nonpayable","type":"function"},{"inputs":[{"internalType":"address","name":"_address","type":"address"},{"internalType":"uint256","name":"_value","type":"uint256"}],"name":"transferETH","outputs":[],"stateMutability":"nonpayable","type":"function"},{"inputs":[{"internalType":"address","name":"newOwner","type":"address"}],"name":"transferOwnership","outputs":[],"stateMutability":"nonpayable","type":"function"},{"inputs":[],"name":"unpauseAdmin","outputs":[],"stateMutability":"nonpayable","type":"function"},{"inputs":[{"internalType":"address","name":"newImplementation","type":"address"}],"name":"upgradeTo","outputs":[],"stateMutability":"nonpayable","type":"function"},{"inputs":[{"internalType":"address","name":"newImplementation","type":"address"},{"internalType":"bytes","name":"data","type":"bytes"}],"name":"upgradeToAndCall","outputs":[],"stateMutability":"payable","type":"function"},{"inputs":[],"name":"withdrawETH","outputs":[],"stateMutability":"nonpayable","type":"function"},{"inputs":[{"internalType":"address","name":"_tokenAddress","type":"address"},{"internalType":"uint256","name":"_value","type":"uint256"}],"name":"withdrawTokens","outputs":[],"stateMutability":"nonpayable","type":"function"},{"stateMutability":"payable","type":"receive"}],"evm":{"bytecode":{"linkReferences":{},"object":"60a06040523060805234801561001457600080fd5b5060805161275f61004c6000396000818161079d015281816107e601528181610935015281816109750152610a08015261275f6000f3fe6080604052600436106101395760003560e01c80636740090a116100ab578063bb042d8c1161006f578063bb042d8c14610342578063db5184e614610362578063de863da314610377578063e086e5ec146103cc578063f13a143f146103e1578063f2fde38b146103ff57600080fd5b80636740090a146102ba578063715018a6146102da5780637b1a4909146102ef5780638129fc1c1461030f5780638da5cb5b1461032457600080fd5b80633659cfe6116100fd5780633659cfe6146101f9578063497af863146102195780634f0371d7146102395780634f1ef2861461026157806352d1902d146102745780635c975abb1461029757600080fd5b806306b091f9146101455780630ba0dba31461016757806314bfd6d0146101875780632f11d653146101c457806331942cdf146101d957600080fd5b3661014057005b600080fd5b34801561015157600080fd5b50610165610160366004611eed565b61041f565b005b34801561017357600080fd5b50610165610182366004611f19565b61049d565b34801561019357600080fd5b506101a76101a2366004611f36565b6104c7565b6040516001600160a01b0390911681526020015b60405180910390f35b3480156101d057600080fd5b506101656104f2565b3480156101e557600080fd5b506101656101f4366004611f9b565b610504565b34801561020557600080fd5b50610165610214366004611f19565b610793565b34801561022557600080fd5b50610165610234366004612035565b61087b565b34801561024557600080fd5b5060fe5460ff54604080519283526020830191909152016101bb565b61016561026f3660046120cf565b61092b565b34801561028057600080fd5b506102896109fb565b6040519081526020016101bb565b3480156102a357600080fd5b5060655460ff1660405190151581526020016101bb565b3480156102c657600080fd5b506101656102d5366004612185565b610aae565b3480156102e657600080fd5b50610165610af5565b3480156102fb57600080fd5b5061016561030a366004611eed565b610b07565b34801561031b57600080fd5b50610165610b45565b34801561033057600080fd5b506033546001600160a01b03166101a7565b34801561034e57600080fd5b5061016561035d3660046121e0565b610cc3565b34801561036e57600080fd5b50610165610e29565b34801561038357600080fd5b5060fd546101008054610101546040805194855260ff8084161515602087015293830484161515908501526201000090910490911615156060830152608082015260a0016101bb565b3480156103d857600080fd5b50610165610e39565b3480156103ed57600080fd5b5060fb546001600160a01b03166101a7565b34801561040b57600080fd5b5061016561041a366004611f19565b610e6d565b610427610ee3565b60405163a9059cbb60e01b8152336004820152602481018290526001600160a01b0383169063a9059cbb906044016020604051808303816000875af1158015610474573d6000803e3d6000fd5b505050506040513d601f19601f82011682018060405250810190610498919061228e565b505050565b6104a5610ee3565b60fb80546001600160a01b0319166001600160a01b0392909216919091179055565b61010281815481106104d857600080fd5b6000918252602090912001546001600160a01b0316905081565b6104fa610ee3565b610502610f3d565b565b61050c610f97565b60fb5433906001600160a01b0316846000805b8281101561063057600087878381811061053b5761053b6122ab565b90506020020135670de0b6b3a764000061055591906122d7565b90506106108c8c8481811061056c5761056c6122ab565b90506020020160208101906105819190611f19565b8b8b85818110610593576105936122ab565b90506020020160208101906105a89190611f19565b83886001600160a01b031663b70cc4c16040518163ffffffff1660e01b8152600401602060405180830381865afa1580156105e7573d6000803e3d6000fd5b505050506040513d601f19601f8201168201806040525081019061060b91906122ee565b610fdd565b61061a818461230b565b92505080806106289061231e565b91505061051f565b50826001600160a01b031663b70cc4c16040518163ffffffff1660e01b8152600401602060405180830381865afa15801561066f573d6000803e3d6000fd5b505050506040513d601f19601f8201168201806040525081019061069391906122ee565b6001600160a01b03166323b872dd853061070e85886001600160a01b031663b70cc4c16040518163ffffffff1660e01b8152600401602060405180830381865afa1580156106e5573d6000803e3d6000fd5b505050506040513d601f19601f8201168201806040525081019061070991906122ee565b611758565b6040516001600160e01b031960e086901b1681526001600160a01b03938416600482015292909116602483015260448201526064016020604051808303816000875af1158015610762573d6000803e3d6000fd5b505050506040513d601f19601f82011682018060405250810190610786919061228e565b5050505050505050505050565b6001600160a01b037f00000000000000000000000000000000000000000000000000000000000000001630036107e45760405162461bcd60e51b81526004016107db90612337565b60405180910390fd5b7f00000000000000000000000000000000000000000000000000000000000000006001600160a01b031661082d6000805160206126e3833981519152546001600160a01b031690565b6001600160a01b0316146108535760405162461bcd60e51b81526004016107db90612383565b61085c816117eb565b60408051600080825260208201909252610878918391906117f3565b50565b610883610f97565b336001600160a01b0382166323b872dd823061089f8787611758565b6040516001600160e01b031960e086901b1681526001600160a01b03938416600482015292909116602483015260448201526064016020604051808303816000875af11580156108f3573d6000803e3d6000fd5b505050506040513d601f19601f82011682018060405250810190610917919061228e565b5061092485858585610fdd565b5050505050565b6001600160a01b037f00000000000000000000000000000000000000000000000000000000000000001630036109735760405162461bcd60e51b81526004016107db90612337565b7f00000000000000000000000000000000000000000000000000000000000000006001600160a01b03166109bc6000805160206126e3833981519152546001600160a01b031690565b6001600160a01b0316146109e25760405162461bcd60e51b81526004016107db90612383565b6109eb826117eb565b6109f7828260016117f3565b5050565b6000306001600160a01b037f00000000000000000000000000000000000000000000000000000000000000001614610a9b5760405162461bcd60e51b815260206004820152603860248201527f555550535570677261646561626c653a206d757374206e6f742062652063616c60448201527f6c6564207468726f7567682064656c656761746563616c6c000000000000000060648201526084016107db565b506000805160206126e383398151915290565b610ab6610ee3565b60fd94909455610100805461ffff191693151561ff0019169390931791151583029190911762ff00001916620100009115159190910217905561010155565b610afd610ee3565b610502600061195e565b610b0f610ee3565b6040516001600160a01b0383169082156108fc029083906000818181858888f19350505050158015610498573d6000803e3d6000fd5b600054610100900460ff1615808015610b655750600054600160ff909116105b80610b7f5750303b158015610b7f575060005460ff166001145b610be25760405162461bcd60e51b815260206004820152602e60248201527f496e697469616c697a61626c653a20636f6e747261637420697320616c72656160448201526d191e481a5b9a5d1a585b1a5e995960921b60648201526084016107db565b6000805460ff191660011790558015610c05576000805461ff0019166101001790555b60fb80546001600160a01b0319167377daafc7411c911b869c71bf70fe36cce507845d17905566038d7ea4c6800060fc556801158e460913d0000060fd55610100805462ffffff1916610101908117909155681ba5abf9e7793800009055610c6b6119b0565b610c736119df565b610c7b611a0e565b8015610878576000805461ff0019169055604051600181527f7f26b83ff96e1f2b6a682f133852f6798a09c465da95921460cefb38474024989060200160405180910390a150565b610ccb610f97565b60fb54604051630935e01b60e21b81523360048201526001600160a01b03909116906324d7806c90602401602060405180830381865afa158015610d13573d6000803e3d6000fd5b505050506040513d601f19601f82011682018060405250810190610d37919061228e565b610d775760405162461bcd60e51b81526020600482015260116024820152702cb7ba9030b932903737ba1030b236b4b760791b60448201526064016107db565b8360005b81811015610e1e576000858583818110610d9757610d976122ab565b90506020020135670de0b6b3a7640000610db191906122d7565b9050610e0b8a8a84818110610dc857610dc86122ab565b9050602002016020810190610ddd9190611f19565b898985818110610def57610def6122ab565b9050602002016020810190610e049190611f19565b8387610fdd565b5080610e168161231e565b915050610d7b565b505050505050505050565b610e31610ee3565b610502611a35565b610e41610ee3565b60405133904780156108fc02916000818181858888f19350505050158015610878573d6000803e3d6000fd5b610e75610ee3565b6001600160a01b038116610eda5760405162461bcd60e51b815260206004820152602660248201527f4f776e61626c653a206e6577206f776e657220697320746865207a65726f206160448201526564647265737360d01b60648201526084016107db565b6108788161195e565b6033546001600160a01b031633146105025760405162461bcd60e51b815260206004820181905260248201527f4f776e61626c653a2063616c6c6572206973206e6f7420746865206f776e657260448201526064016107db565b610f45610f97565b6065805460ff191660011790557f62e78cea01bee320cd4e420270b5ea74000d11b0c9f74754ebdbfc544b05a258610f7a3390565b6040516001600160a01b03909116815260200160405180910390a1565b60655460ff16156105025760405162461bcd60e51b815260206004820152601060248201526f14185d5cd8589b194e881c185d5cd95960821b60448201526064016107db565b60fb54604080516312f24b5b60e21b815290516001600160a01b039092169133916000918491634bc92d6c9160048083019260209291908290030181865afa15801561102d573d6000803e3d6000fd5b505050506040513d601f19601f8201168201806040525081019061105191906123cf565b60fd5490915085908110156110b45760405162461bcd60e51b815260206004820152602360248201527f415553442076616c7565206c657373207468656e206d696e206275792076616c6044820152623ab29760e91b60648201526084016107db565b610101548111156110ff5760405162461bcd60e51b815260206004820152601560248201527413585e08189d5e481b1a5b5a5d081c995858da1959605a1b60448201526064016107db565b836001600160a01b031663b70cc4c16040518163ffffffff1660e01b8152600401602060405180830381865afa15801561113d573d6000803e3d6000fd5b505050506040513d601f19601f8201168201806040525081019061116191906122ee565b6001600160a01b0316856001600160a01b031614806111f25750836001600160a01b031663611509236040518163ffffffff1660e01b8152600401602060405180830381865afa1580156111b9573d6000803e3d6000fd5b505050506040513d601f19601f820116820180604052508101906111dd91906122ee565b6001600160a01b0316856001600160a01b0316145b6112535760405162461bcd60e51b815260206004820152602c60248201527f42757957697468414e55534428293a20426173652063757272656e6379206e6f60448201526b3a1039bab83837b93a32b21760a11b60648201526084016107db565b600061138d856001600160a01b031663b70cc4c16040518163ffffffff1660e01b8152600401602060405180830381865afa158015611296573d6000803e3d6000fd5b505050506040513d601f19601f820116820180604052508101906112ba91906122ee565b6112c485856123e8565b876001600160a01b03166355a373d66040518163ffffffff1660e01b8152600401602060405180830381865afa158015611302573d6000803e3d6000fd5b505050506040513d601f19601f8201168201806040525081019061132691906122ee565b886001600160a01b0316638290c4a66040518163ffffffff1660e01b8152600401602060405180830381865afa158015611364573d6000803e3d6000fd5b505050506040513d601f19601f8201168201806040525081019061138891906122ee565b611a6e565b6101005490915060ff16156114b157846001600160a01b031663ee99205c6040518163ffffffff1660e01b8152600401602060405180830381865afa1580156113da573d6000803e3d6000fd5b505050506040513d601f19601f820116820180604052508101906113fe91906122ee565b6001600160a01b031663310c9b208983600181518110611420576114206122ab565b60200260200101518460008151811061143b5761143b6122ab565b60209081029190910101516040516001600160e01b031960e086901b1681526001600160a01b03909316600484015260248301919091526044820152606401600060405180830381600087803b15801561149457600080fd5b505af11580156114a8573d6000803e3d6000fd5b505050506115b3565b846001600160a01b03166355a373d66040518163ffffffff1660e01b8152600401602060405180830381865afa1580156114ef573d6000803e3d6000fd5b505050506040513d601f19601f8201168201806040525081019061151391906122ee565b6001600160a01b031663a9059cbb8583600181518110611535576115356122ab565b60200260200101516040518363ffffffff1660e01b815260040161156e9291906001600160a01b03929092168252602082015260400190565b6020604051808303816000875af115801561158d573d6000803e3d6000fd5b505050506040513d601f19601f820116820180604052508101906115b1919061228e565b505b61010080540460ff16156116b957846001600160a01b0316637dad19db6040518163ffffffff1660e01b8152600401602060405180830381865afa1580156115ff573d6000803e3d6000fd5b505050506040513d601f19601f8201168201806040525081019061162391906122ee565b6001600160a01b031663228159b482600081518110611644576116446122ab565b60200260200101518a8c6040518463ffffffff1660e01b8152600401611686939291909283526001600160a01b03918216602084015216604082015260600190565b600060405180830381600087803b1580156116a057600080fd5b505af11580156116b4573d6000803e3d6000fd5b505050505b7f629a485b55f72b3241f1b41ff1864e029996d1cf7d54ef632b907af140f57430856001600160a01b0316634bc92d6c6040518163ffffffff1660e01b8152600401602060405180830381865afa158015611718573d6000803e3d6000fd5b505050506040513d601f19601f8201168201806040525081019061173c91906123cf565b60405190815260200160405180910390a1505050505050505050565b6000670de0b6b3a7640000826001600160a01b031663313ce5676040518163ffffffff1660e01b8152600401602060405180830381865afa1580156117a1573d6000803e3d6000fd5b505050506040513d601f19601f820116820180604052508101906117c591906123cf565b6117d090600a6124df565b6117da90856122d7565b6117e491906124eb565b9392505050565b610878610ee3565b7f4910fdfa16fed3260ed0e7147f7cc6da11a60208b5b9406d12a635614ffd91435460ff16156118265761049883611bf1565b826001600160a01b03166352d1902d6040518163ffffffff1660e01b8152600401602060405180830381865afa925050508015611880575060408051601f3d908101601f1916820190925261187d918101906123cf565b60015b6118e35760405162461bcd60e51b815260206004820152602e60248201527f45524331393637557067726164653a206e657720696d706c656d656e7461746960448201526d6f6e206973206e6f74205555505360901b60648201526084016107db565b6000805160206126e383398151915281146119525760405162461bcd60e51b815260206004820152602960248201527f45524331393637557067726164653a20756e737570706f727465642070726f786044820152681a58589b195555525160ba1b60648201526084016107db565b50610498838383611c8d565b603380546001600160a01b038381166001600160a01b0319831681179093556040519116919082907f8be0079c531659141344cd1fd0a4f28419497f9722a3daafe3b4186f6b6457e090600090a35050565b600054610100900460ff166119d75760405162461bcd60e51b81526004016107db9061250d565b610502611cb8565b600054610100900460ff16611a065760405162461bcd60e51b81526004016107db9061250d565b610502611ceb565b600054610100900460ff166105025760405162461bcd60e51b81526004016107db9061250d565b611a3d611d1b565b6065805460ff191690557f5db9ee0a495bf2e6ff9c91a7834c1ba4fdd244a5e8aa4e537bd38aeae4b073aa33610f7a565b604080516002808252606080830184529260009291906020830190803683370190505090508581600081518110611aa757611aa76122ab565b60200260200101906001600160a01b031690816001600160a01b0316815250508381600181518110611adb57611adb6122ab565b6001600160a01b03928316602091820292909201015260405163095ea7b360e01b81528482166004820152602481018790529087169063095ea7b3906044016020604051808303816000875af1158015611b39573d6000803e3d6000fd5b505050506040513d601f19601f82011682018060405250810190611b5d919061228e565b5060006001600160a01b0384166338ed17398760018530611b7f42606461230b565b6040518663ffffffff1660e01b8152600401611b9f959493929190612558565b6000604051808303816000875af1158015611bbe573d6000803e3d6000fd5b505050506040513d6000823e601f3d908101601f19168201604052611be691908101906125c9565b979650505050505050565b6001600160a01b0381163b611c5e5760405162461bcd60e51b815260206004820152602d60248201527f455243313936373a206e657720696d706c656d656e746174696f6e206973206e60448201526c1bdd08184818dbdb9d1c9858dd609a1b60648201526084016107db565b6000805160206126e383398151915280546001600160a01b0319166001600160a01b0392909216919091179055565b611c9683611d64565b600082511180611ca35750805b1561049857611cb28383611da4565b50505050565b600054610100900460ff16611cdf5760405162461bcd60e51b81526004016107db9061250d565b6065805460ff19169055565b600054610100900460ff16611d125760405162461bcd60e51b81526004016107db9061250d565b6105023361195e565b60655460ff166105025760405162461bcd60e51b815260206004820152601460248201527314185d5cd8589b194e881b9bdd081c185d5cd95960621b60448201526064016107db565b611d6d81611bf1565b6040516001600160a01b038216907fbc7cd75a20ee27fd9adebab32041f755214dbc6bffa90cc0225b39da2e5c2d3b90600090a250565b60606001600160a01b0383163b611e0c5760405162461bcd60e51b815260206004820152602660248201527f416464726573733a2064656c65676174652063616c6c20746f206e6f6e2d636f6044820152651b9d1c9858dd60d21b60648201526084016107db565b600080846001600160a01b031684604051611e279190612693565b600060405180830381855af49150503d8060008114611e62576040519150601f19603f3d011682016040523d82523d6000602084013e611e67565b606091505b5091509150611e8f828260405180606001604052806027815260200161270360279139611e9a565b925050505b92915050565b60608315611ea95750816117e4565b6117e48383815115611ebe5781518083602001fd5b8060405162461bcd60e51b81526004016107db91906126af565b6001600160a01b038116811461087857600080fd5b60008060408385031215611f0057600080fd5b8235611f0b81611ed8565b946020939093013593505050565b600060208284031215611f2b57600080fd5b81356117e481611ed8565b600060208284031215611f4857600080fd5b5035919050565b60008083601f840112611f6157600080fd5b50813567ffffffffffffffff811115611f7957600080fd5b6020830191508360208260051b8501011115611f9457600080fd5b9250929050565b60008060008060008060608789031215611fb457600080fd5b863567ffffffffffffffff80821115611fcc57600080fd5b611fd88a838b01611f4f565b90985096506020890135915080821115611ff157600080fd5b611ffd8a838b01611f4f565b9096509450604089013591508082111561201657600080fd5b5061202389828a01611f4f565b979a9699509497509295939492505050565b6000806000806080858703121561204b57600080fd5b843561205681611ed8565b9350602085013561206681611ed8565b925060408501359150606085013561207d81611ed8565b939692955090935050565b634e487b7160e01b600052604160045260246000fd5b604051601f8201601f1916810167ffffffffffffffff811182821017156120c7576120c7612088565b604052919050565b600080604083850312156120e257600080fd5b82356120ed81611ed8565b915060208381013567ffffffffffffffff8082111561210b57600080fd5b818601915086601f83011261211f57600080fd5b81358181111561213157612131612088565b612143601f8201601f1916850161209e565b9150808252878482850101111561215957600080fd5b80848401858401376000848284010152508093505050509250929050565b801515811461087857600080fd5b600080600080600060a0868803121561219d57600080fd5b8535945060208601356121af81612177565b935060408601356121bf81612177565b925060608601356121cf81612177565b949793965091946080013592915050565b60008060008060008060006080888a0312156121fb57600080fd5b873567ffffffffffffffff8082111561221357600080fd5b61221f8b838c01611f4f565b909950975060208a013591508082111561223857600080fd5b6122448b838c01611f4f565b909750955060408a013591508082111561225d57600080fd5b5061226a8a828b01611f4f565b909450925050606088013561227e81611ed8565b8091505092959891949750929550565b6000602082840312156122a057600080fd5b81516117e481612177565b634e487b7160e01b600052603260045260246000fd5b634e487b7160e01b600052601160045260246000fd5b8082028115828204841417611e9457611e946122c1565b60006020828403121561230057600080fd5b81516117e481611ed8565b80820180821115611e9457611e946122c1565b600060018201612330576123306122c1565b5060010190565b6020808252602c908201527f46756e6374696f6e206d7573742062652063616c6c6564207468726f7567682060408201526b19195b1959d85d1958d85b1b60a21b606082015260800190565b6020808252602c908201527f46756e6374696f6e206d7573742062652063616c6c6564207468726f7567682060408201526b6163746976652070726f787960a01b606082015260800190565b6000602082840312156123e157600080fd5b5051919050565b81810381811115611e9457611e946122c1565b600181815b8085111561243657816000190482111561241c5761241c6122c1565b8085161561242957918102915b93841c9390800290612400565b509250929050565b60008261244d57506001611e94565b8161245a57506000611e94565b8160018114612470576002811461247a57612496565b6001915050611e94565b60ff84111561248b5761248b6122c1565b50506001821b611e94565b5060208310610133831016604e8410600b84101617156124b9575081810a611e94565b6124c383836123fb565b80600019048211156124d7576124d76122c1565b029392505050565b60006117e4838361243e565b60008261250857634e487b7160e01b600052601260045260246000fd5b500490565b6020808252602b908201527f496e697469616c697a61626c653a20636f6e7472616374206973206e6f74206960408201526a6e697469616c697a696e6760a81b606082015260800190565b600060a082018783526020878185015260a0604085015281875180845260c086019150828901935060005b818110156125a85784516001600160a01b031683529383019391830191600101612583565b50506001600160a01b03969096166060850152505050608001529392505050565b600060208083850312156125dc57600080fd5b825167ffffffffffffffff808211156125f457600080fd5b818501915085601f83011261260857600080fd5b81518181111561261a5761261a612088565b8060051b915061262b84830161209e565b818152918301840191848101908884111561264557600080fd5b938501935b838510156126635784518252938501939085019061264a565b98975050505050505050565b60005b8381101561268a578181015183820152602001612672565b50506000910152565b600082516126a581846020870161266f565b9190910192915050565b60208152600082518060208401526126ce81604085016020870161266f565b601f01601f1916919091016040019291505056fe360894a13ba1a3210667c828492db98dca3e2076cc3735a920a3ca505d382bbc416464726573733a206c6f772d6c6576656c2064656c65676174652063616c6c206661696c6564a264697066735822122035bdab2f0963c1ed450eb2a4dac8005c5e560ba06cd6ed4ff2c68c2afac1d15f64736f6c63430008110033","opcodes":"PUSH1 0xA0 PUSH1 0x40 MSTORE ADDRESS PUSH1 0x80 MSTORE CALLVALUE DUP1 ISZERO PUSH2 0x14 JUMPI PUSH1 0x0 DUP1 REVERT JUMPDEST POP PUSH1 0x80 MLOAD PUSH2 0x275F PUSH2 0x4C PUSH1 0x0 CODECOPY PUSH1 0x0 DUP2 DUP2 PUSH2 0x79D ADD MSTORE DUP2 DUP2 PUSH2 0x7E6 ADD MSTORE DUP2 DUP2 PUSH2 0x935 ADD MSTORE DUP2 DUP2 PUSH2 0x975 ADD MSTORE PUSH2 0xA08 ADD MSTORE PUSH2 0x275F PUSH1 0x0 RETURN INVALID PUSH1 0x80 PUSH1 0x40 MSTORE PUSH1 0x4 CALLDATASIZE LT PUSH2 0x139 JUMPI PUSH1 0x0 CALLDATALOAD PUSH1 0xE0 SHR DUP1 PUSH4 0x6740090A GT PUSH2 0xAB JUMPI DUP1 PUSH4 0xBB042D8C GT PUSH2 0x6F JUMPI DUP1 PUSH4 0xBB042D8C EQ PUSH2 0x342 JUMPI DUP1 PUSH4 0xDB5184E6 EQ PUSH2 0x362 JUMPI DUP1 PUSH4 0xDE863DA3 EQ PUSH2 0x377 JUMPI DUP1 PUSH4 0xE086E5EC EQ PUSH2 0x3CC JUMPI DUP1 PUSH4 0xF13A143F EQ PUSH2 0x3E1 JUMPI DUP1 PUSH4 0xF2FDE38B EQ PUSH2 0x3FF JUMPI PUSH1 0x0 DUP1 REVERT JUMPDEST DUP1 PUSH4 0x6740090A EQ PUSH2 0x2BA JUMPI DUP1 PUSH4 0x715018A6 EQ PUSH2 0x2DA JUMPI DUP1 PUSH4 0x7B1A4909 EQ PUSH2 0x2EF JUMPI DUP1 PUSH4 0x8129FC1C EQ PUSH2 0x30F JUMPI DUP1 PUSH4 0x8DA5CB5B EQ PUSH2 0x324 JUMPI PUSH1 0x0 DUP1 REVERT JUMPDEST DUP1 PUSH4 0x3659CFE6 GT PUSH2 0xFD JUMPI DUP1 PUSH4 0x3659CFE6 EQ PUSH2 0x1F9 JUMPI DUP1 PUSH4 0x497AF863 EQ PUSH2 0x219 JUMPI DUP1 PUSH4 0x4F0371D7 EQ PUSH2 0x239 JUMPI DUP1 PUSH4 0x4F1EF286 EQ PUSH2 0x261 JUMPI DUP1 PUSH4 0x52D1902D EQ PUSH2 0x274 JUMPI DUP1 PUSH4 0x5C975ABB EQ PUSH2 0x297 JUMPI PUSH1 0x0 DUP1 REVERT JUMPDEST DUP1 PUSH4 0x6B091F9 EQ PUSH2 0x145 JUMPI DUP1 PUSH4 0xBA0DBA3 EQ PUSH2 0x167 JUMPI DUP1 PUSH4 0x14BFD6D0 EQ PUSH2 0x187 JUMPI DUP1 PUSH4 0x2F11D653 EQ PUSH2 0x1C4 JUMPI DUP1 PUSH4 0x31942CDF EQ PUSH2 0x1D9 JUMPI PUSH1 0x0 DUP1 REVERT JUMPDEST CALLDATASIZE PUSH2 0x140 JUMPI STOP JUMPDEST PUSH1 0x0 DUP1 REVERT JUMPDEST CALLVALUE DUP1 ISZERO PUSH2 0x151 JUMPI PUSH1 0x0 DUP1 REVERT JUMPDEST POP PUSH2 0x165 PUSH2 0x160 CALLDATASIZE PUSH1 0x4 PUSH2 0x1EED JUMP JUMPDEST PUSH2 0x41F JUMP JUMPDEST STOP JUMPDEST CALLVALUE DUP1 ISZERO PUSH2 0x173 JUMPI PUSH1 0x0 DUP1 REVERT JUMPDEST POP PUSH2 0x165 PUSH2 0x182 CALLDATASIZE PUSH1 0x4 PUSH2 0x1F19 JUMP JUMPDEST PUSH2 0x49D JUMP JUMPDEST CALLVALUE DUP1 ISZERO PUSH2 0x193 JUMPI PUSH1 0x0 DUP1 REVERT JUMPDEST POP PUSH2 0x1A7 PUSH2 0x1A2 CALLDATASIZE PUSH1 0x4 PUSH2 0x1F36 JUMP JUMPDEST PUSH2 0x4C7 JUMP JUMPDEST PUSH1 0x40 MLOAD PUSH1 0x1 PUSH1 0x1 PUSH1 0xA0 SHL SUB SWAP1 SWAP2 AND DUP2 MSTORE PUSH1 0x20 ADD JUMPDEST PUSH1 0x40 MLOAD DUP1 SWAP2 SUB SWAP1 RETURN JUMPDEST CALLVALUE DUP1 ISZERO PUSH2 0x1D0 JUMPI PUSH1 0x0 DUP1 REVERT JUMPDEST POP PUSH2 0x165 PUSH2 0x4F2 JUMP JUMPDEST CALLVALUE DUP1 ISZERO PUSH2 0x1E5 JUMPI PUSH1 0x0 DUP1 REVERT JUMPDEST POP PUSH2 0x165 PUSH2 0x1F4 CALLDATASIZE PUSH1 0x4 PUSH2 0x1F9B JUMP JUMPDEST PUSH2 0x504 JUMP JUMPDEST CALLVALUE DUP1 ISZERO PUSH2 0x205 JUMPI PUSH1 0x0 DUP1 REVERT JUMPDEST POP PUSH2 0x165 PUSH2 0x214 CALLDATASIZE PUSH1 0x4 PUSH2 0x1F19 JUMP JUMPDEST PUSH2 0x793 JUMP JUMPDEST CALLVALUE DUP1 ISZERO PUSH2 0x225 JUMPI PUSH1 0x0 DUP1 REVERT JUMPDEST POP PUSH2 0x165 PUSH2 0x234 CALLDATASIZE PUSH1 0x4 PUSH2 0x2035 JUMP JUMPDEST PUSH2 0x87B JUMP JUMPDEST CALLVALUE DUP1 ISZERO PUSH2 0x245 JUMPI PUSH1 0x0 DUP1 REVERT JUMPDEST POP PUSH1 0xFE SLOAD PUSH1 0xFF SLOAD PUSH1 0x40 DUP1 MLOAD SWAP3 DUP4 MSTORE PUSH1 0x20 DUP4 ADD SWAP2 SWAP1 SWAP2 MSTORE ADD PUSH2 0x1BB JUMP JUMPDEST PUSH2 0x165 PUSH2 0x26F CALLDATASIZE PUSH1 0x4 PUSH2 0x20CF JUMP JUMPDEST PUSH2 0x92B JUMP JUMPDEST CALLVALUE DUP1 ISZERO PUSH2 0x280 JUMPI PUSH1 0x0 DUP1 REVERT JUMPDEST POP PUSH2 0x289 PUSH2 0x9FB JUMP JUMPDEST PUSH1 0x40 MLOAD SWAP1 DUP2 MSTORE PUSH1 0x20 ADD PUSH2 0x1BB JUMP JUMPDEST CALLVALUE DUP1 ISZERO PUSH2 0x2A3 JUMPI PUSH1 0x0 DUP1 REVERT JUMPDEST POP PUSH1 0x65 SLOAD PUSH1 0xFF AND PUSH1 0x40 MLOAD SWAP1 ISZERO ISZERO DUP2 MSTORE PUSH1 0x20 ADD PUSH2 0x1BB JUMP JUMPDEST CALLVALUE DUP1 ISZERO PUSH2 0x2C6 JUMPI PUSH1 0x0 DUP1 REVERT JUMPDEST POP PUSH2 0x165 PUSH2 0x2D5 CALLDATASIZE PUSH1 0x4 PUSH2 0x2185 JUMP JUMPDEST PUSH2 0xAAE JUMP JUMPDEST CALLVALUE DUP1 ISZERO PUSH2 0x2E6 JUMPI PUSH1 0x0 DUP1 REVERT JUMPDEST POP PUSH2 0x165 PUSH2 0xAF5 JUMP JUMPDEST CALLVALUE DUP1 ISZERO PUSH2 0x2FB JUMPI PUSH1 0x0 DUP1 REVERT JUMPDEST POP PUSH2 0x165 PUSH2 0x30A CALLDATASIZE PUSH1 0x4 PUSH2 0x1EED JUMP JUMPDEST PUSH2 0xB07 JUMP JUMPDEST CALLVALUE DUP1 ISZERO PUSH2 0x31B JUMPI PUSH1 0x0 DUP1 REVERT JUMPDEST POP PUSH2 0x165 PUSH2 0xB45 JUMP JUMPDEST CALLVALUE DUP1 ISZERO PUSH2 0x330 JUMPI PUSH1 0x0 DUP1 REVERT JUMPDEST POP PUSH1 0x33 SLOAD PUSH1 0x1 PUSH1 0x1 PUSH1 0xA0 SHL SUB AND PUSH2 0x1A7 JUMP JUMPDEST CALLVALUE DUP1 ISZERO PUSH2 0x34E JUMPI PUSH1 0x0 DUP1 REVERT JUMPDEST POP PUSH2 0x165 PUSH2 0x35D CALLDATASIZE PUSH1 0x4 PUSH2 0x21E0 JUMP JUMPDEST PUSH2 0xCC3 JUMP JUMPDEST CALLVALUE DUP1 ISZERO PUSH2 0x36E JUMPI PUSH1 0x0 DUP1 REVERT JUMPDEST POP PUSH2 0x165 PUSH2 0xE29 JUMP JUMPDEST CALLVALUE DUP1 ISZERO PUSH2 0x383 JUMPI PUSH1 0x0 DUP1 REVERT JUMPDEST POP PUSH1 0xFD SLOAD PUSH2 0x100 DUP1 SLOAD PUSH2 0x101 SLOAD PUSH1 0x40 DUP1 MLOAD SWAP5 DUP6 MSTORE PUSH1 0xFF DUP1 DUP5 AND ISZERO ISZERO PUSH1 0x20 DUP8 ADD MSTORE SWAP4 DUP4 DIV DUP5 AND ISZERO ISZERO SWAP1 DUP6 ADD MSTORE PUSH3 0x10000 SWAP1 SWAP2 DIV SWAP1 SWAP2 AND ISZERO ISZERO PUSH1 0x60 DUP4 ADD MSTORE PUSH1 0x80 DUP3 ADD MSTORE PUSH1 0xA0 ADD PUSH2 0x1BB JUMP JUMPDEST CALLVALUE DUP1 ISZERO PUSH2 0x3D8 JUMPI PUSH1 0x0 DUP1 REVERT JUMPDEST POP PUSH2 0x165 PUSH2 0xE39 JUMP JUMPDEST CALLVALUE DUP1 ISZERO PUSH2 0x3ED JUMPI PUSH1 0x0 DUP1 REVERT JUMPDEST POP PUSH1 0xFB SLOAD PUSH1 0x1 PUSH1 0x1 PUSH1 0xA0 SHL SUB AND PUSH2 0x1A7 JUMP JUMPDEST CALLVALUE DUP1 ISZERO PUSH2 0x40B JUMPI PUSH1 0x0 DUP1 REVERT JUMPDEST POP PUSH2 0x165 PUSH2 0x41A CALLDATASIZE PUSH1 0x4 PUSH2 0x1F19 JUMP JUMPDEST PUSH2 0xE6D JUMP JUMPDEST PUSH2 0x427 PUSH2 0xEE3 JUMP JUMPDEST PUSH1 0x40 MLOAD PUSH4 0xA9059CBB PUSH1 0xE0 SHL DUP2 MSTORE CALLER PUSH1 0x4 DUP3 ADD MSTORE PUSH1 0x24 DUP2 ADD DUP3 SWAP1 MSTORE PUSH1 0x1 PUSH1 0x1 PUSH1 0xA0 SHL SUB DUP4 AND SWAP1 PUSH4 0xA9059CBB SWAP1 PUSH1 0x44 ADD PUSH1 0x20 PUSH1 0x40 MLOAD DUP1 DUP4 SUB DUP2 PUSH1 0x0 DUP8 GAS CALL ISZERO DUP1 ISZERO PUSH2 0x474 JUMPI RETURNDATASIZE PUSH1 0x0 DUP1 RETURNDATACOPY RETURNDATASIZE PUSH1 0x0 REVERT JUMPDEST POP POP POP POP PUSH1 0x40 MLOAD RETURNDATASIZE PUSH1 0x1F NOT PUSH1 0x1F DUP3 ADD AND DUP3 ADD DUP1 PUSH1 0x40 MSTORE POP DUP2 ADD SWAP1 PUSH2 0x498 SWAP2 SWAP1 PUSH2 0x228E JUMP JUMPDEST POP POP POP JUMP JUMPDEST PUSH2 0x4A5 PUSH2 0xEE3 JUMP JUMPDEST PUSH1 0xFB DUP1 SLOAD PUSH1 0x1 PUSH1 0x1 PUSH1 0xA0 SHL SUB NOT AND PUSH1 0x1 PUSH1 0x1 PUSH1 0xA0 SHL SUB SWAP3 SWAP1 SWAP3 AND SWAP2 SWAP1 SWAP2 OR SWAP1 SSTORE JUMP JUMPDEST PUSH2 0x102 DUP2 DUP2 SLOAD DUP2 LT PUSH2 0x4D8 JUMPI PUSH1 0x0 DUP1 REVERT JUMPDEST PUSH1 0x0 SWAP2 DUP3 MSTORE PUSH1 0x20 SWAP1 SWAP2 KECCAK256 ADD SLOAD PUSH1 0x1 PUSH1 0x1 PUSH1 0xA0 SHL SUB AND SWAP1 POP DUP2 JUMP JUMPDEST PUSH2 0x4FA PUSH2 0xEE3 JUMP JUMPDEST PUSH2 0x502 PUSH2 0xF3D JUMP JUMPDEST JUMP JUMPDEST PUSH2 0x50C PUSH2 0xF97 JUMP JUMPDEST PUSH1 0xFB SLOAD CALLER SWAP1 PUSH1 0x1 PUSH1 0x1 PUSH1 0xA0 SHL SUB AND DUP5 PUSH1 0x0 DUP1 JUMPDEST DUP3 DUP2 LT ISZERO PUSH2 0x630 JUMPI PUSH1 0x0 DUP8 DUP8 DUP4 DUP2 DUP2 LT PUSH2 0x53B JUMPI PUSH2 0x53B PUSH2 0x22AB JUMP JUMPDEST SWAP1 POP PUSH1 0x20 MUL ADD CALLDATALOAD PUSH8 0xDE0B6B3A7640000 PUSH2 0x555 SWAP2 SWAP1 PUSH2 0x22D7 JUMP JUMPDEST SWAP1 POP PUSH2 0x610 DUP13 DUP13 DUP5 DUP2 DUP2 LT PUSH2 0x56C JUMPI PUSH2 0x56C PUSH2 0x22AB JUMP JUMPDEST SWAP1 POP PUSH1 0x20 MUL ADD PUSH1 0x20 DUP2 ADD SWAP1 PUSH2 0x581 SWAP2 SWAP1 PUSH2 0x1F19 JUMP JUMPDEST DUP12 DUP12 DUP6 DUP2 DUP2 LT PUSH2 0x593 JUMPI PUSH2 0x593 PUSH2 0x22AB JUMP JUMPDEST SWAP1 POP PUSH1 0x20 MUL ADD PUSH1 0x20 DUP2 ADD SWAP1 PUSH2 0x5A8 SWAP2 SWAP1 PUSH2 0x1F19 JUMP JUMPDEST DUP4 DUP9 PUSH1 0x1 PUSH1 0x1 PUSH1 0xA0 SHL SUB AND PUSH4 0xB70CC4C1 PUSH1 0x40 MLOAD DUP2 PUSH4 0xFFFFFFFF AND PUSH1 0xE0 SHL DUP2 MSTORE PUSH1 0x4 ADD PUSH1 0x20 PUSH1 0x40 MLOAD DUP1 DUP4 SUB DUP2 DUP7 GAS STATICCALL ISZERO DUP1 ISZERO PUSH2 0x5E7 JUMPI RETURNDATASIZE PUSH1 0x0 DUP1 RETURNDATACOPY RETURNDATASIZE PUSH1 0x0 REVERT JUMPDEST POP POP POP POP PUSH1 0x40 MLOAD RETURNDATASIZE PUSH1 0x1F NOT PUSH1 0x1F DUP3 ADD AND DUP3 ADD DUP1 PUSH1 0x40 MSTORE POP DUP2 ADD SWAP1 PUSH2 0x60B SWAP2 SWAP1 PUSH2 0x22EE JUMP JUMPDEST PUSH2 0xFDD JUMP JUMPDEST PUSH2 0x61A DUP2 DUP5 PUSH2 0x230B JUMP JUMPDEST SWAP3 POP POP DUP1 DUP1 PUSH2 0x628 SWAP1 PUSH2 0x231E JUMP JUMPDEST SWAP2 POP POP PUSH2 0x51F JUMP JUMPDEST POP DUP3 PUSH1 0x1 PUSH1 0x1 PUSH1 0xA0 SHL SUB AND PUSH4 0xB70CC4C1 PUSH1 0x40 MLOAD DUP2 PUSH4 0xFFFFFFFF AND PUSH1 0xE0 SHL DUP2 MSTORE PUSH1 0x4 ADD PUSH1 0x20 PUSH1 0x40 MLOAD DUP1 DUP4 SUB DUP2 DUP7 GAS STATICCALL ISZERO DUP1 ISZERO PUSH2 0x66F JUMPI RETURNDATASIZE PUSH1 0x0 DUP1 RETURNDATACOPY RETURNDATASIZE PUSH1 0x0 REVERT JUMPDEST POP POP POP POP PUSH1 0x40 MLOAD RETURNDATASIZE PUSH1 0x1F NOT PUSH1 0x1F DUP3 ADD AND DUP3 ADD DUP1 PUSH1 0x40 MSTORE POP DUP2 ADD SWAP1 PUSH2 0x693 SWAP2 SWAP1 PUSH2 0x22EE JUMP JUMPDEST PUSH1 0x1 PUSH1 0x1 PUSH1 0xA0 SHL SUB AND PUSH4 0x23B872DD DUP6 ADDRESS PUSH2 0x70E DUP6 DUP9 PUSH1 0x1 PUSH1 0x1 PUSH1 0xA0 SHL SUB AND PUSH4 0xB70CC4C1 PUSH1 0x40 MLOAD DUP2 PUSH4 0xFFFFFFFF AND PUSH1 0xE0 SHL DUP2 MSTORE PUSH1 0x4 ADD PUSH1 0x20 PUSH1 0x40 MLOAD DUP1 DUP4 SUB DUP2 DUP7 GAS STATICCALL ISZERO DUP1 ISZERO PUSH2 0x6E5 JUMPI RETURNDATASIZE PUSH1 0x0 DUP1 RETURNDATACOPY RETURNDATASIZE PUSH1 0x0 REVERT JUMPDEST POP POP POP POP PUSH1 0x40 MLOAD RETURNDATASIZE PUSH1 0x1F NOT PUSH1 0x1F DUP3 ADD AND DUP3 ADD DUP1 PUSH1 0x40 MSTORE POP DUP2 ADD SWAP1 PUSH2 0x709 SWAP2 SWAP1 PUSH2 0x22EE JUMP JUMPDEST PUSH2 0x1758 JUMP JUMPDEST PUSH1 0x40 MLOAD PUSH1 0x1 PUSH1 0x1 PUSH1 0xE0 SHL SUB NOT PUSH1 0xE0 DUP7 SWAP1 SHL AND DUP2 MSTORE PUSH1 0x1 PUSH1 0x1 PUSH1 0xA0 SHL SUB SWAP4 DUP5 AND PUSH1 0x4 DUP3 ADD MSTORE SWAP3 SWAP1 SWAP2 AND PUSH1 0x24 DUP4 ADD MSTORE PUSH1 0x44 DUP3 ADD MSTORE PUSH1 0x64 ADD PUSH1 0x20 PUSH1 0x40 MLOAD DUP1 DUP4 SUB DUP2 PUSH1 0x0 DUP8 GAS CALL ISZERO DUP1 ISZERO PUSH2 0x762 JUMPI RETURNDATASIZE PUSH1 0x0 DUP1 RETURNDATACOPY RETURNDATASIZE PUSH1 0x0 REVERT JUMPDEST POP POP POP POP PUSH1 0x40 MLOAD RETURNDATASIZE PUSH1 0x1F NOT PUSH1 0x1F DUP3 ADD AND DUP3 ADD DUP1 PUSH1 0x40 MSTORE POP DUP2 ADD SWAP1 PUSH2 0x786 SWAP2 SWAP1 PUSH2 0x228E JUMP JUMPDEST POP POP POP POP POP POP POP POP POP POP POP JUMP JUMPDEST PUSH1 0x1 PUSH1 0x1 PUSH1 0xA0 SHL SUB PUSH32 0x0 AND ADDRESS SUB PUSH2 0x7E4 JUMPI PUSH1 0x40 MLOAD PUSH3 0x461BCD PUSH1 0xE5 SHL DUP2 MSTORE PUSH1 0x4 ADD PUSH2 0x7DB SWAP1 PUSH2 0x2337 JUMP JUMPDEST PUSH1 0x40 MLOAD DUP1 SWAP2 SUB SWAP1 REVERT JUMPDEST PUSH32 0x0 PUSH1 0x1 PUSH1 0x1 PUSH1 0xA0 SHL SUB AND PUSH2 0x82D PUSH1 0x0 DUP1 MLOAD PUSH1 0x20 PUSH2 0x26E3 DUP4 CODECOPY DUP2 MLOAD SWAP2 MSTORE SLOAD PUSH1 0x1 PUSH1 0x1 PUSH1 0xA0 SHL SUB AND SWAP1 JUMP JUMPDEST PUSH1 0x1 PUSH1 0x1 PUSH1 0xA0 SHL SUB AND EQ PUSH2 0x853 JUMPI PUSH1 0x40 MLOAD PUSH3 0x461BCD PUSH1 0xE5 SHL DUP2 MSTORE PUSH1 0x4 ADD PUSH2 0x7DB SWAP1 PUSH2 0x2383 JUMP JUMPDEST PUSH2 0x85C DUP2 PUSH2 0x17EB JUMP JUMPDEST PUSH1 0x40 DUP1 MLOAD PUSH1 0x0 DUP1 DUP3 MSTORE PUSH1 0x20 DUP3 ADD SWAP1 SWAP3 MSTORE PUSH2 0x878 SWAP2 DUP4 SWAP2 SWAP1 PUSH2 0x17F3 JUMP JUMPDEST POP JUMP JUMPDEST PUSH2 0x883 PUSH2 0xF97 JUMP JUMPDEST CALLER PUSH1 0x1 PUSH1 0x1 PUSH1 0xA0 SHL SUB DUP3 AND PUSH4 0x23B872DD DUP3 ADDRESS PUSH2 0x89F DUP8 DUP8 PUSH2 0x1758 JUMP JUMPDEST PUSH1 0x40 MLOAD PUSH1 0x1 PUSH1 0x1 PUSH1 0xE0 SHL SUB NOT PUSH1 0xE0 DUP7 SWAP1 SHL AND DUP2 MSTORE PUSH1 0x1 PUSH1 0x1 PUSH1 0xA0 SHL SUB SWAP4 DUP5 AND PUSH1 0x4 DUP3 ADD MSTORE SWAP3 SWAP1 SWAP2 AND PUSH1 0x24 DUP4 ADD MSTORE PUSH1 0x44 DUP3 ADD MSTORE PUSH1 0x64 ADD PUSH1 0x20 PUSH1 0x40 MLOAD DUP1 DUP4 SUB DUP2 PUSH1 0x0 DUP8 GAS CALL ISZERO DUP1 ISZERO PUSH2 0x8F3 JUMPI RETURNDATASIZE PUSH1 0x0 DUP1 RETURNDATACOPY RETURNDATASIZE PUSH1 0x0 REVERT JUMPDEST POP POP POP POP PUSH1 0x40 MLOAD RETURNDATASIZE PUSH1 0x1F NOT PUSH1 0x1F DUP3 ADD AND DUP3 ADD DUP1 PUSH1 0x40 MSTORE POP DUP2 ADD SWAP1 PUSH2 0x917 SWAP2 SWAP1 PUSH2 0x228E JUMP JUMPDEST POP PUSH2 0x924 DUP6 DUP6 DUP6 DUP6 PUSH2 0xFDD JUMP JUMPDEST POP POP POP POP POP JUMP JUMPDEST PUSH1 0x1 PUSH1 0x1 PUSH1 0xA0 SHL SUB PUSH32 0x0 AND ADDRESS SUB PUSH2 0x973 JUMPI PUSH1 0x40 MLOAD PUSH3 0x461BCD PUSH1 0xE5 SHL DUP2 MSTORE PUSH1 0x4 ADD PUSH2 0x7DB SWAP1 PUSH2 0x2337 JUMP JUMPDEST PUSH32 0x0 PUSH1 0x1 PUSH1 0x1 PUSH1 0xA0 SHL SUB AND PUSH2 0x9BC PUSH1 0x0 DUP1 MLOAD PUSH1 0x20 PUSH2 0x26E3 DUP4 CODECOPY DUP2 MLOAD SWAP2 MSTORE SLOAD PUSH1 0x1 PUSH1 0x1 PUSH1 0xA0 SHL SUB AND SWAP1 JUMP JUMPDEST PUSH1 0x1 PUSH1 0x1 PUSH1 0xA0 SHL SUB AND EQ PUSH2 0x9E2 JUMPI PUSH1 0x40 MLOAD PUSH3 0x461BCD PUSH1 0xE5 SHL DUP2 MSTORE PUSH1 0x4 ADD PUSH2 0x7DB SWAP1 PUSH2 0x2383 JUMP JUMPDEST PUSH2 0x9EB DUP3 PUSH2 0x17EB JUMP JUMPDEST PUSH2 0x9F7 DUP3 DUP3 PUSH1 0x1 PUSH2 0x17F3 JUMP JUMPDEST POP POP JUMP JUMPDEST PUSH1 0x0 ADDRESS PUSH1 0x1 PUSH1 0x1 PUSH1 0xA0 SHL SUB PUSH32 0x0 AND EQ PUSH2 0xA9B JUMPI PUSH1 0x40 MLOAD PUSH3 0x461BCD PUSH1 0xE5 SHL DUP2 MSTORE PUSH1 0x20 PUSH1 0x4 DUP3 ADD MSTORE PUSH1 0x38 PUSH1 0x24 DUP3 ADD MSTORE PUSH32 0x555550535570677261646561626C653A206D757374206E6F742062652063616C PUSH1 0x44 DUP3 ADD MSTORE PUSH32 0x6C6564207468726F7567682064656C656761746563616C6C0000000000000000 PUSH1 0x64 DUP3 ADD MSTORE PUSH1 0x84 ADD PUSH2 0x7DB JUMP JUMPDEST POP PUSH1 0x0 DUP1 MLOAD PUSH1 0x20 PUSH2 0x26E3 DUP4 CODECOPY DUP2 MLOAD SWAP2 MSTORE SWAP1 JUMP JUMPDEST PUSH2 0xAB6 PUSH2 0xEE3 JUMP JUMPDEST PUSH1 0xFD SWAP5 SWAP1 SWAP5 SSTORE PUSH2 0x100 DUP1 SLOAD PUSH2 0xFFFF NOT AND SWAP4 ISZERO ISZERO PUSH2 0xFF00 NOT AND SWAP4 SWAP1 SWAP4 OR SWAP2 ISZERO ISZERO DUP4 MUL SWAP2 SWAP1 SWAP2 OR PUSH3 0xFF0000 NOT AND PUSH3 0x10000 SWAP2 ISZERO ISZERO SWAP2 SWAP1 SWAP2 MUL OR SWAP1 SSTORE PUSH2 0x101 SSTORE JUMP JUMPDEST PUSH2 0xAFD PUSH2 0xEE3 JUMP JUMPDEST PUSH2 0x502 PUSH1 0x0 PUSH2 0x195E JUMP JUMPDEST PUSH2 0xB0F PUSH2 0xEE3 JUMP JUMPDEST PUSH1 0x40 MLOAD PUSH1 0x1 PUSH1 0x1 PUSH1 0xA0 SHL SUB DUP4 AND SWAP1 DUP3 ISZERO PUSH2 0x8FC MUL SWAP1 DUP4 SWAP1 PUSH1 0x0 DUP2 DUP2 DUP2 DUP6 DUP9 DUP9 CALL SWAP4 POP POP POP POP ISZERO DUP1 ISZERO PUSH2 0x498 JUMPI RETURNDATASIZE PUSH1 0x0 DUP1 RETURNDATACOPY RETURNDATASIZE PUSH1 0x0 REVERT JUMPDEST PUSH1 0x0 SLOAD PUSH2 0x100 SWAP1 DIV PUSH1 0xFF AND ISZERO DUP1 DUP1 ISZERO PUSH2 0xB65 JUMPI POP PUSH1 0x0 SLOAD PUSH1 0x1 PUSH1 0xFF SWAP1 SWAP2 AND LT JUMPDEST DUP1 PUSH2 0xB7F JUMPI POP ADDRESS EXTCODESIZE ISZERO DUP1 ISZERO PUSH2 0xB7F JUMPI POP PUSH1 0x0 SLOAD PUSH1 0xFF AND PUSH1 0x1 EQ JUMPDEST PUSH2 0xBE2 JUMPI PUSH1 0x40 MLOAD PUSH3 0x461BCD PUSH1 0xE5 SHL DUP2 MSTORE PUSH1 0x20 PUSH1 0x4 DUP3 ADD MSTORE PUSH1 0x2E PUSH1 0x24 DUP3 ADD MSTORE PUSH32 0x496E697469616C697A61626C653A20636F6E747261637420697320616C726561 PUSH1 0x44 DUP3 ADD MSTORE PUSH14 0x191E481A5B9A5D1A585B1A5E9959 PUSH1 0x92 SHL PUSH1 0x64 DUP3 ADD MSTORE PUSH1 0x84 ADD PUSH2 0x7DB JUMP JUMPDEST PUSH1 0x0 DUP1 SLOAD PUSH1 0xFF NOT AND PUSH1 0x1 OR SWAP1 SSTORE DUP1 ISZERO PUSH2 0xC05 JUMPI PUSH1 0x0 DUP1 SLOAD PUSH2 0xFF00 NOT AND PUSH2 0x100 OR SWAP1 SSTORE JUMPDEST PUSH1 0xFB DUP1 SLOAD PUSH1 0x1 PUSH1 0x1 PUSH1 0xA0 SHL SUB NOT AND PUSH20 0x77DAAFC7411C911B869C71BF70FE36CCE507845D OR SWAP1 SSTORE PUSH7 0x38D7EA4C68000 PUSH1 0xFC SSTORE PUSH9 0x1158E460913D00000 PUSH1 0xFD SSTORE PUSH2 0x100 DUP1 SLOAD PUSH3 0xFFFFFF NOT AND PUSH2 0x101 SWAP1 DUP2 OR SWAP1 SWAP2 SSTORE PUSH9 0x1BA5ABF9E779380000 SWAP1 SSTORE PUSH2 0xC6B PUSH2 0x19B0 JUMP JUMPDEST PUSH2 0xC73 PUSH2 0x19DF JUMP JUMPDEST PUSH2 0xC7B PUSH2 0x1A0E JUMP JUMPDEST DUP1 ISZERO PUSH2 0x878 JUMPI PUSH1 0x0 DUP1 SLOAD PUSH2 0xFF00 NOT AND SWAP1 SSTORE PUSH1 0x40 MLOAD PUSH1 0x1 DUP2 MSTORE PUSH32 0x7F26B83FF96E1F2B6A682F133852F6798A09C465DA95921460CEFB3847402498 SWAP1 PUSH1 0x20 ADD PUSH1 0x40 MLOAD DUP1 SWAP2 SUB SWAP1 LOG1 POP JUMP JUMPDEST PUSH2 0xCCB PUSH2 0xF97 JUMP JUMPDEST PUSH1 0xFB SLOAD PUSH1 0x40 MLOAD PUSH4 0x935E01B PUSH1 0xE2 SHL DUP2 MSTORE CALLER PUSH1 0x4 DUP3 ADD MSTORE PUSH1 0x1 PUSH1 0x1 PUSH1 0xA0 SHL SUB SWAP1 SWAP2 AND SWAP1 PUSH4 0x24D7806C SWAP1 PUSH1 0x24 ADD PUSH1 0x20 PUSH1 0x40 MLOAD DUP1 DUP4 SUB DUP2 DUP7 GAS STATICCALL ISZERO DUP1 ISZERO PUSH2 0xD13 JUMPI RETURNDATASIZE PUSH1 0x0 DUP1 RETURNDATACOPY RETURNDATASIZE PUSH1 0x0 REVERT JUMPDEST POP POP POP POP PUSH1 0x40 MLOAD RETURNDATASIZE PUSH1 0x1F NOT PUSH1 0x1F DUP3 ADD AND DUP3 ADD DUP1 PUSH1 0x40 MSTORE POP DUP2 ADD SWAP1 PUSH2 0xD37 SWAP2 SWAP1 PUSH2 0x228E JUMP JUMPDEST PUSH2 0xD77 JUMPI PUSH1 0x40 MLOAD PUSH3 0x461BCD PUSH1 0xE5 SHL DUP2 MSTORE PUSH1 0x20 PUSH1 0x4 DUP3 ADD MSTORE PUSH1 0x11 PUSH1 0x24 DUP3 ADD MSTORE PUSH17 0x2CB7BA9030B932903737BA1030B236B4B7 PUSH1 0x79 SHL PUSH1 0x44 DUP3 ADD MSTORE PUSH1 0x64 ADD PUSH2 0x7DB JUMP JUMPDEST DUP4 PUSH1 0x0 JUMPDEST DUP2 DUP2 LT ISZERO PUSH2 0xE1E JUMPI PUSH1 0x0 DUP6 DUP6 DUP4 DUP2 DUP2 LT PUSH2 0xD97 JUMPI PUSH2 0xD97 PUSH2 0x22AB JUMP JUMPDEST SWAP1 POP PUSH1 0x20 MUL ADD CALLDATALOAD PUSH8 0xDE0B6B3A7640000 PUSH2 0xDB1 SWAP2 SWAP1 PUSH2 0x22D7 JUMP JUMPDEST SWAP1 POP PUSH2 0xE0B DUP11 DUP11 DUP5 DUP2 DUP2 LT PUSH2 0xDC8 JUMPI PUSH2 0xDC8 PUSH2 0x22AB JUMP JUMPDEST SWAP1 POP PUSH1 0x20 MUL ADD PUSH1 0x20 DUP2 ADD SWAP1 PUSH2 0xDDD SWAP2 SWAP1 PUSH2 0x1F19 JUMP JUMPDEST DUP10 DUP10 DUP6 DUP2 DUP2 LT PUSH2 0xDEF JUMPI PUSH2 0xDEF PUSH2 0x22AB JUMP JUMPDEST SWAP1 POP PUSH1 0x20 MUL ADD PUSH1 0x20 DUP2 ADD SWAP1 PUSH2 0xE04 SWAP2 SWAP1 PUSH2 0x1F19 JUMP JUMPDEST DUP4 DUP8 PUSH2 0xFDD JUMP JUMPDEST POP DUP1 PUSH2 0xE16 DUP2 PUSH2 0x231E JUMP JUMPDEST SWAP2 POP POP PUSH2 0xD7B JUMP JUMPDEST POP POP POP POP POP POP POP POP POP JUMP JUMPDEST PUSH2 0xE31 PUSH2 0xEE3 JUMP JUMPDEST PUSH2 0x502 PUSH2 0x1A35 JUMP JUMPDEST PUSH2 0xE41 PUSH2 0xEE3 JUMP JUMPDEST PUSH1 0x40 MLOAD CALLER SWAP1 SELFBALANCE DUP1 ISZERO PUSH2 0x8FC MUL SWAP2 PUSH1 0x0 DUP2 DUP2 DUP2 DUP6 DUP9 DUP9 CALL SWAP4 POP POP POP POP ISZERO DUP1 ISZERO PUSH2 0x878 JUMPI RETURNDATASIZE PUSH1 0x0 DUP1 RETURNDATACOPY RETURNDATASIZE PUSH1 0x0 REVERT JUMPDEST PUSH2 0xE75 PUSH2 0xEE3 JUMP JUMPDEST PUSH1 0x1 PUSH1 0x1 PUSH1 0xA0 SHL SUB DUP2 AND PUSH2 0xEDA JUMPI PUSH1 0x40 MLOAD PUSH3 0x461BCD PUSH1 0xE5 SHL DUP2 MSTORE PUSH1 0x20 PUSH1 0x4 DUP3 ADD MSTORE PUSH1 0x26 PUSH1 0x24 DUP3 ADD MSTORE PUSH32 0x4F776E61626C653A206E6577206F776E657220697320746865207A65726F2061 PUSH1 0x44 DUP3 ADD MSTORE PUSH6 0x646472657373 PUSH1 0xD0 SHL PUSH1 0x64 DUP3 ADD MSTORE PUSH1 0x84 ADD PUSH2 0x7DB JUMP JUMPDEST PUSH2 0x878 DUP2 PUSH2 0x195E JUMP JUMPDEST PUSH1 0x33 SLOAD PUSH1 0x1 PUSH1 0x1 PUSH1 0xA0 SHL SUB AND CALLER EQ PUSH2 0x502 JUMPI PUSH1 0x40 MLOAD PUSH3 0x461BCD PUSH1 0xE5 SHL DUP2 MSTORE PUSH1 0x20 PUSH1 0x4 DUP3 ADD DUP2 SWAP1 MSTORE PUSH1 0x24 DUP3 ADD MSTORE PUSH32 0x4F776E61626C653A2063616C6C6572206973206E6F7420746865206F776E6572 PUSH1 0x44 DUP3 ADD MSTORE PUSH1 0x64 ADD PUSH2 0x7DB JUMP JUMPDEST PUSH2 0xF45 PUSH2 0xF97 JUMP JUMPDEST PUSH1 0x65 DUP1 SLOAD PUSH1 0xFF NOT AND PUSH1 0x1 OR SWAP1 SSTORE PUSH32 0x62E78CEA01BEE320CD4E420270B5EA74000D11B0C9F74754EBDBFC544B05A258 PUSH2 0xF7A CALLER SWAP1 JUMP JUMPDEST PUSH1 0x40 MLOAD PUSH1 0x1 PUSH1 0x1 PUSH1 0xA0 SHL SUB SWAP1 SWAP2 AND DUP2 MSTORE PUSH1 0x20 ADD PUSH1 0x40 MLOAD DUP1 SWAP2 SUB SWAP1 LOG1 JUMP JUMPDEST PUSH1 0x65 SLOAD PUSH1 0xFF AND ISZERO PUSH2 0x502 JUMPI PUSH1 0x40 MLOAD PUSH3 0x461BCD PUSH1 0xE5 SHL DUP2 MSTORE PUSH1 0x20 PUSH1 0x4 DUP3 ADD MSTORE PUSH1 0x10 PUSH1 0x24 DUP3 ADD MSTORE PUSH16 0x14185D5CD8589B194E881C185D5CD959 PUSH1 0x82 SHL PUSH1 0x44 DUP3 ADD MSTORE PUSH1 0x64 ADD PUSH2 0x7DB JUMP JUMPDEST PUSH1 0xFB SLOAD PUSH1 0x40 DUP1 MLOAD PUSH4 0x12F24B5B PUSH1 0xE2 SHL DUP2 MSTORE SWAP1 MLOAD PUSH1 0x1 PUSH1 0x1 PUSH1 0xA0 SHL SUB SWAP1 SWAP3 AND SWAP2 CALLER SWAP2 PUSH1 0x0 SWAP2 DUP5 SWAP2 PUSH4 0x4BC92D6C SWAP2 PUSH1 0x4 DUP1 DUP4 ADD SWAP3 PUSH1 0x20 SWAP3 SWAP2 SWAP1 DUP3 SWAP1 SUB ADD DUP2 DUP7 GAS STATICCALL ISZERO DUP1 ISZERO PUSH2 0x102D JUMPI RETURNDATASIZE PUSH1 0x0 DUP1 RETURNDATACOPY RETURNDATASIZE PUSH1 0x0 REVERT JUMPDEST POP POP POP POP PUSH1 0x40 MLOAD RETURNDATASIZE PUSH1 0x1F NOT PUSH1 0x1F DUP3 ADD AND DUP3 ADD DUP1 PUSH1 0x40 MSTORE POP DUP2 ADD SWAP1 PUSH2 0x1051 SWAP2 SWAP1 PUSH2 0x23CF JUMP JUMPDEST PUSH1 0xFD SLOAD SWAP1 SWAP2 POP DUP6 SWAP1 DUP2 LT ISZERO PUSH2 0x10B4 JUMPI PUSH1 0x40 MLOAD PUSH3 0x461BCD PUSH1 0xE5 SHL DUP2 MSTORE PUSH1 0x20 PUSH1 0x4 DUP3 ADD MSTORE PUSH1 0x23 PUSH1 0x24 DUP3 ADD MSTORE PUSH32 0x415553442076616C7565206C657373207468656E206D696E206275792076616C PUSH1 0x44 DUP3 ADD MSTORE PUSH3 0x3AB297 PUSH1 0xE9 SHL PUSH1 0x64 DUP3 ADD MSTORE PUSH1 0x84 ADD PUSH2 0x7DB JUMP JUMPDEST PUSH2 0x101 SLOAD DUP2 GT ISZERO PUSH2 0x10FF JUMPI PUSH1 0x40 MLOAD PUSH3 0x461BCD PUSH1 0xE5 SHL DUP2 MSTORE PUSH1 0x20 PUSH1 0x4 DUP3 ADD MSTORE PUSH1 0x15 PUSH1 0x24 DUP3 ADD MSTORE PUSH21 0x13585E08189D5E481B1A5B5A5D081C995858DA1959 PUSH1 0x5A SHL PUSH1 0x44 DUP3 ADD MSTORE PUSH1 0x64 ADD PUSH2 0x7DB JUMP JUMPDEST DUP4 PUSH1 0x1 PUSH1 0x1 PUSH1 0xA0 SHL SUB AND PUSH4 0xB70CC4C1 PUSH1 0x40 MLOAD DUP2 PUSH4 0xFFFFFFFF AND PUSH1 0xE0 SHL DUP2 MSTORE PUSH1 0x4 ADD PUSH1 0x20 PUSH1 0x40 MLOAD DUP1 DUP4 SUB DUP2 DUP7 GAS STATICCALL ISZERO DUP1 ISZERO PUSH2 0x113D JUMPI RETURNDATASIZE PUSH1 0x0 DUP1 RETURNDATACOPY RETURNDATASIZE PUSH1 0x0 REVERT JUMPDEST POP POP POP POP PUSH1 0x40 MLOAD RETURNDATASIZE PUSH1 0x1F NOT PUSH1 0x1F DUP3 ADD AND DUP3 ADD DUP1 PUSH1 0x40 MSTORE POP DUP2 ADD SWAP1 PUSH2 0x1161 SWAP2 SWAP1 PUSH2 0x22EE JUMP JUMPDEST PUSH1 0x1 PUSH1 0x1 PUSH1 0xA0 SHL SUB AND DUP6 PUSH1 0x1 PUSH1 0x1 PUSH1 0xA0 SHL SUB AND EQ DUP1 PUSH2 0x11F2 JUMPI POP DUP4 PUSH1 0x1 PUSH1 0x1 PUSH1 0xA0 SHL SUB AND PUSH4 0x61150923 PUSH1 0x40 MLOAD DUP2 PUSH4 0xFFFFFFFF AND PUSH1 0xE0 SHL DUP2 MSTORE PUSH1 0x4 ADD PUSH1 0x20 PUSH1 0x40 MLOAD DUP1 DUP4 SUB DUP2 DUP7 GAS STATICCALL ISZERO DUP1 ISZERO PUSH2 0x11B9 JUMPI RETURNDATASIZE PUSH1 0x0 DUP1 RETURNDATACOPY RETURNDATASIZE PUSH1 0x0 REVERT JUMPDEST POP POP POP POP PUSH1 0x40 MLOAD RETURNDATASIZE PUSH1 0x1F NOT PUSH1 0x1F DUP3 ADD AND DUP3 ADD DUP1 PUSH1 0x40 MSTORE POP DUP2 ADD SWAP1 PUSH2 0x11DD SWAP2 SWAP1 PUSH2 0x22EE JUMP JUMPDEST PUSH1 0x1 PUSH1 0x1 PUSH1 0xA0 SHL SUB AND DUP6 PUSH1 0x1 PUSH1 0x1 PUSH1 0xA0 SHL SUB AND EQ JUMPDEST PUSH2 0x1253 JUMPI PUSH1 0x40 MLOAD PUSH3 0x461BCD PUSH1 0xE5 SHL DUP2 MSTORE PUSH1 0x20 PUSH1 0x4 DUP3 ADD MSTORE PUSH1 0x2C PUSH1 0x24 DUP3 ADD MSTORE PUSH32 0x42757957697468414E55534428293A20426173652063757272656E6379206E6F PUSH1 0x44 DUP3 ADD MSTORE PUSH12 0x3A1039BAB83837B93A32B217 PUSH1 0xA1 SHL PUSH1 0x64 DUP3 ADD MSTORE PUSH1 0x84 ADD PUSH2 0x7DB JUMP JUMPDEST PUSH1 0x0 PUSH2 0x138D DUP6 PUSH1 0x1 PUSH1 0x1 PUSH1 0xA0 SHL SUB AND PUSH4 0xB70CC4C1 PUSH1 0x40 MLOAD DUP2 PUSH4 0xFFFFFFFF AND PUSH1 0xE0 SHL DUP2 MSTORE PUSH1 0x4 ADD PUSH1 0x20 PUSH1 0x40 MLOAD DUP1 DUP4 SUB DUP2 DUP7 GAS STATICCALL ISZERO DUP1 ISZERO PUSH2 0x1296 JUMPI RETURNDATASIZE PUSH1 0x0 DUP1 RETURNDATACOPY RETURNDATASIZE PUSH1 0x0 REVERT JUMPDEST POP POP POP POP PUSH1 0x40 MLOAD RETURNDATASIZE PUSH1 0x1F NOT PUSH1 0x1F DUP3 ADD AND DUP3 ADD DUP1 PUSH1 0x40 MSTORE POP DUP2 ADD SWAP1 PUSH2 0x12BA SWAP2 SWAP1 PUSH2 0x22EE JUMP JUMPDEST PUSH2 0x12C4 DUP6 DUP6 PUSH2 0x23E8 JUMP JUMPDEST DUP8 PUSH1 0x1 PUSH1 0x1 PUSH1 0xA0 SHL SUB AND PUSH4 0x55A373D6 PUSH1 0x40 MLOAD DUP2 PUSH4 0xFFFFFFFF AND PUSH1 0xE0 SHL DUP2 MSTORE PUSH1 0x4 ADD PUSH1 0x20 PUSH1 0x40 MLOAD DUP1 DUP4 SUB DUP2 DUP7 GAS STATICCALL ISZERO DUP1 ISZERO PUSH2 0x1302 JUMPI RETURNDATASIZE PUSH1 0x0 DUP1 RETURNDATACOPY RETURNDATASIZE PUSH1 0x0 REVERT JUMPDEST POP POP POP POP PUSH1 0x40 MLOAD RETURNDATASIZE PUSH1 0x1F NOT PUSH1 0x1F DUP3 ADD AND DUP3 ADD DUP1 PUSH1 0x40 MSTORE POP DUP2 ADD SWAP1 PUSH2 0x1326 SWAP2 SWAP1 PUSH2 0x22EE JUMP JUMPDEST DUP9 PUSH1 0x1 PUSH1 0x1 PUSH1 0xA0 SHL SUB AND PUSH4 0x8290C4A6 PUSH1 0x40 MLOAD DUP2 PUSH4 0xFFFFFFFF AND PUSH1 0xE0 SHL DUP2 MSTORE PUSH1 0x4 ADD PUSH1 0x20 PUSH1 0x40 MLOAD DUP1 DUP4 SUB DUP2 DUP7 GAS STATICCALL ISZERO DUP1 ISZERO PUSH2 0x1364 JUMPI RETURNDATASIZE PUSH1 0x0 DUP1 RETURNDATACOPY RETURNDATASIZE PUSH1 0x0 REVERT JUMPDEST POP POP POP POP PUSH1 0x40 MLOAD RETURNDATASIZE PUSH1 0x1F NOT PUSH1 0x1F DUP3 ADD AND DUP3 ADD DUP1 PUSH1 0x40 MSTORE POP DUP2 ADD SWAP1 PUSH2 0x1388 SWAP2 SWAP1 PUSH2 0x22EE JUMP JUMPDEST PUSH2 0x1A6E JUMP JUMPDEST PUSH2 0x100 SLOAD SWAP1 SWAP2 POP PUSH1 0xFF AND ISZERO PUSH2 0x14B1 JUMPI DUP5 PUSH1 0x1 PUSH1 0x1 PUSH1 0xA0 SHL SUB AND PUSH4 0xEE99205C PUSH1 0x40 MLOAD DUP2 PUSH4 0xFFFFFFFF AND PUSH1 0xE0 SHL DUP2 MSTORE PUSH1 0x4 ADD PUSH1 0x20 PUSH1 0x40 MLOAD DUP1 DUP4 SUB DUP2 DUP7 GAS STATICCALL ISZERO DUP1 ISZERO PUSH2 0x13DA JUMPI RETURNDATASIZE PUSH1 0x0 DUP1 RETURNDATACOPY RETURNDATASIZE PUSH1 0x0 REVERT JUMPDEST POP POP POP POP PUSH1 0x40 MLOAD RETURNDATASIZE PUSH1 0x1F NOT PUSH1 0x1F DUP3 ADD AND DUP3 ADD DUP1 PUSH1 0x40 MSTORE POP DUP2 ADD SWAP1 PUSH2 0x13FE SWAP2 SWAP1 PUSH2 0x22EE JUMP JUMPDEST PUSH1 0x1 PUSH1 0x1 PUSH1 0xA0 SHL SUB AND PUSH4 0x310C9B20 DUP10 DUP4 PUSH1 0x1 DUP2 MLOAD DUP2 LT PUSH2 0x1420 JUMPI PUSH2 0x1420 PUSH2 0x22AB JUMP JUMPDEST PUSH1 0x20 MUL PUSH1 0x20 ADD ADD MLOAD DUP5 PUSH1 0x0 DUP2 MLOAD DUP2 LT PUSH2 0x143B JUMPI PUSH2 0x143B PUSH2 0x22AB JUMP JUMPDEST PUSH1 0x20 SWAP1 DUP2 MUL SWAP2 SWAP1 SWAP2 ADD ADD MLOAD PUSH1 0x40 MLOAD PUSH1 0x1 PUSH1 0x1 PUSH1 0xE0 SHL SUB NOT PUSH1 0xE0 DUP7 SWAP1 SHL AND DUP2 MSTORE PUSH1 0x1 PUSH1 0x1 PUSH1 0xA0 SHL SUB SWAP1 SWAP4 AND PUSH1 0x4 DUP5 ADD MSTORE PUSH1 0x24 DUP4 ADD SWAP2 SWAP1 SWAP2 MSTORE PUSH1 0x44 DUP3 ADD MSTORE PUSH1 0x64 ADD PUSH1 0x0 PUSH1 0x40 MLOAD DUP1 DUP4 SUB DUP2 PUSH1 0x0 DUP8 DUP1 EXTCODESIZE ISZERO DUP1 ISZERO PUSH2 0x1494 JUMPI PUSH1 0x0 DUP1 REVERT JUMPDEST POP GAS CALL ISZERO DUP1 ISZERO PUSH2 0x14A8 JUMPI RETURNDATASIZE PUSH1 0x0 DUP1 RETURNDATACOPY RETURNDATASIZE PUSH1 0x0 REVERT JUMPDEST POP POP POP POP PUSH2 0x15B3 JUMP JUMPDEST DUP5 PUSH1 0x1 PUSH1 0x1 PUSH1 0xA0 SHL SUB AND PUSH4 0x55A373D6 PUSH1 0x40 MLOAD DUP2 PUSH4 0xFFFFFFFF AND PUSH1 0xE0 SHL DUP2 MSTORE PUSH1 0x4 ADD PUSH1 0x20 PUSH1 0x40 MLOAD DUP1 DUP4 SUB DUP2 DUP7 GAS STATICCALL ISZERO DUP1 ISZERO PUSH2 0x14EF JUMPI RETURNDATASIZE PUSH1 0x0 DUP1 RETURNDATACOPY RETURNDATASIZE PUSH1 0x0 REVERT JUMPDEST POP POP POP POP PUSH1 0x40 MLOAD RETURNDATASIZE PUSH1 0x1F NOT PUSH1 0x1F DUP3 ADD AND DUP3 ADD DUP1 PUSH1 0x40 MSTORE POP DUP2 ADD SWAP1 PUSH2 0x1513 SWAP2 SWAP1 PUSH2 0x22EE JUMP JUMPDEST PUSH1 0x1 PUSH1 0x1 PUSH1 0xA0 SHL SUB AND PUSH4 0xA9059CBB DUP6 DUP4 PUSH1 0x1 DUP2 MLOAD DUP2 LT PUSH2 0x1535 JUMPI PUSH2 0x1535 PUSH2 0x22AB JUMP JUMPDEST PUSH1 0x20 MUL PUSH1 0x20 ADD ADD MLOAD PUSH1 0x40 MLOAD DUP4 PUSH4 0xFFFFFFFF AND PUSH1 0xE0 SHL DUP2 MSTORE PUSH1 0x4 ADD PUSH2 0x156E SWAP3 SWAP2 SWAP1 PUSH1 0x1 PUSH1 0x1 PUSH1 0xA0 SHL SUB SWAP3 SWAP1 SWAP3 AND DUP3 MSTORE PUSH1 0x20 DUP3 ADD MSTORE PUSH1 0x40 ADD SWAP1 JUMP JUMPDEST PUSH1 0x20 PUSH1 0x40 MLOAD DUP1 DUP4 SUB DUP2 PUSH1 0x0 DUP8 GAS CALL ISZERO DUP1 ISZERO PUSH2 0x158D JUMPI RETURNDATASIZE PUSH1 0x0 DUP1 RETURNDATACOPY RETURNDATASIZE PUSH1 0x0 REVERT JUMPDEST POP POP POP POP PUSH1 0x40 MLOAD RETURNDATASIZE PUSH1 0x1F NOT PUSH1 0x1F DUP3 ADD AND DUP3 ADD DUP1 PUSH1 0x40 MSTORE POP DUP2 ADD SWAP1 PUSH2 0x15B1 SWAP2 SWAP1 PUSH2 0x228E JUMP JUMPDEST POP JUMPDEST PUSH2 0x100 DUP1 SLOAD DIV PUSH1 0xFF AND ISZERO PUSH2 0x16B9 JUMPI DUP5 PUSH1 0x1 PUSH1 0x1 PUSH1 0xA0 SHL SUB AND PUSH4 0x7DAD19DB PUSH1 0x40 MLOAD DUP2 PUSH4 0xFFFFFFFF AND PUSH1 0xE0 SHL DUP2 MSTORE PUSH1 0x4 ADD PUSH1 0x20 PUSH1 0x40 MLOAD DUP1 DUP4 SUB DUP2 DUP7 GAS STATICCALL ISZERO DUP1 ISZERO PUSH2 0x15FF JUMPI RETURNDATASIZE PUSH1 0x0 DUP1 RETURNDATACOPY RETURNDATASIZE PUSH1 0x0 REVERT JUMPDEST POP POP POP POP PUSH1 0x40 MLOAD RETURNDATASIZE PUSH1 0x1F NOT PUSH1 0x1F DUP3 ADD AND DUP3 ADD DUP1 PUSH1 0x40 MSTORE POP DUP2 ADD SWAP1 PUSH2 0x1623 SWAP2 SWAP1 PUSH2 0x22EE JUMP JUMPDEST PUSH1 0x1 PUSH1 0x1 PUSH1 0xA0 SHL SUB AND PUSH4 0x228159B4 DUP3 PUSH1 0x0 DUP2 MLOAD DUP2 LT PUSH2 0x1644 JUMPI PUSH2 0x1644 PUSH2 0x22AB JUMP JUMPDEST PUSH1 0x20 MUL PUSH1 0x20 ADD ADD MLOAD DUP11 DUP13 PUSH1 0x40 MLOAD DUP5 PUSH4 0xFFFFFFFF AND PUSH1 0xE0 SHL DUP2 MSTORE PUSH1 0x4 ADD PUSH2 0x1686 SWAP4 SWAP3 SWAP2 SWAP1 SWAP3 DUP4 MSTORE PUSH1 0x1 PUSH1 0x1 PUSH1 0xA0 SHL SUB SWAP2 DUP3 AND PUSH1 0x20 DUP5 ADD MSTORE AND PUSH1 0x40 DUP3 ADD MSTORE PUSH1 0x60 ADD SWAP1 JUMP JUMPDEST PUSH1 0x0 PUSH1 0x40 MLOAD DUP1 DUP4 SUB DUP2 PUSH1 0x0 DUP8 DUP1 EXTCODESIZE ISZERO DUP1 ISZERO PUSH2 0x16A0 JUMPI PUSH1 0x0 DUP1 REVERT JUMPDEST POP GAS CALL ISZERO DUP1 ISZERO PUSH2 0x16B4 JUMPI RETURNDATASIZE PUSH1 0x0 DUP1 RETURNDATACOPY RETURNDATASIZE PUSH1 0x0 REVERT JUMPDEST POP POP POP POP JUMPDEST PUSH32 0x629A485B55F72B3241F1B41FF1864E029996D1CF7D54EF632B907AF140F57430 DUP6 PUSH1 0x1 PUSH1 0x1 PUSH1 0xA0 SHL SUB AND PUSH4 0x4BC92D6C PUSH1 0x40 MLOAD DUP2 PUSH4 0xFFFFFFFF AND PUSH1 0xE0 SHL DUP2 MSTORE PUSH1 0x4 ADD PUSH1 0x20 PUSH1 0x40 MLOAD DUP1 DUP4 SUB DUP2 DUP7 GAS STATICCALL ISZERO DUP1 ISZERO PUSH2 0x1718 JUMPI RETURNDATASIZE PUSH1 0x0 DUP1 RETURNDATACOPY RETURNDATASIZE PUSH1 0x0 REVERT JUMPDEST POP POP POP POP PUSH1 0x40 MLOAD RETURNDATASIZE PUSH1 0x1F NOT PUSH1 0x1F DUP3 ADD AND DUP3 ADD DUP1 PUSH1 0x40 MSTORE POP DUP2 ADD SWAP1 PUSH2 0x173C SWAP2 SWAP1 PUSH2 0x23CF JUMP JUMPDEST PUSH1 0x40 MLOAD SWAP1 DUP2 MSTORE PUSH1 0x20 ADD PUSH1 0x40 MLOAD DUP1 SWAP2 SUB SWAP1 LOG1 POP POP POP POP POP POP POP POP POP JUMP JUMPDEST PUSH1 0x0 PUSH8 0xDE0B6B3A7640000 DUP3 PUSH1 0x1 PUSH1 0x1 PUSH1 0xA0 SHL SUB AND PUSH4 0x313CE567 PUSH1 0x40 MLOAD DUP2 PUSH4 0xFFFFFFFF AND PUSH1 0xE0 SHL DUP2 MSTORE PUSH1 0x4 ADD PUSH1 0x20 PUSH1 0x40 MLOAD DUP1 DUP4 SUB DUP2 DUP7 GAS STATICCALL ISZERO DUP1 ISZERO PUSH2 0x17A1 JUMPI RETURNDATASIZE PUSH1 0x0 DUP1 RETURNDATACOPY RETURNDATASIZE PUSH1 0x0 REVERT JUMPDEST POP POP POP POP PUSH1 0x40 MLOAD RETURNDATASIZE PUSH1 0x1F NOT PUSH1 0x1F DUP3 ADD AND DUP3 ADD DUP1 PUSH1 0x40 MSTORE POP DUP2 ADD SWAP1 PUSH2 0x17C5 SWAP2 SWAP1 PUSH2 0x23CF JUMP JUMPDEST PUSH2 0x17D0 SWAP1 PUSH1 0xA PUSH2 0x24DF JUMP JUMPDEST PUSH2 0x17DA SWAP1 DUP6 PUSH2 0x22D7 JUMP JUMPDEST PUSH2 0x17E4 SWAP2 SWAP1 PUSH2 0x24EB JUMP JUMPDEST SWAP4 SWAP3 POP POP POP JUMP JUMPDEST PUSH2 0x878 PUSH2 0xEE3 JUMP JUMPDEST PUSH32 0x4910FDFA16FED3260ED0E7147F7CC6DA11A60208B5B9406D12A635614FFD9143 SLOAD PUSH1 0xFF AND ISZERO PUSH2 0x1826 JUMPI PUSH2 0x498 DUP4 PUSH2 0x1BF1 JUMP JUMPDEST DUP3 PUSH1 0x1 PUSH1 0x1 PUSH1 0xA0 SHL SUB AND PUSH4 0x52D1902D PUSH1 0x40 MLOAD DUP2 PUSH4 0xFFFFFFFF AND PUSH1 0xE0 SHL DUP2 MSTORE PUSH1 0x4 ADD PUSH1 0x20 PUSH1 0x40 MLOAD DUP1 DUP4 SUB DUP2 DUP7 GAS STATICCALL SWAP3 POP POP POP DUP1 ISZERO PUSH2 0x1880 JUMPI POP PUSH1 0x40 DUP1 MLOAD PUSH1 0x1F RETURNDATASIZE SWAP1 DUP2 ADD PUSH1 0x1F NOT AND DUP3 ADD SWAP1 SWAP3 MSTORE PUSH2 0x187D SWAP2 DUP2 ADD SWAP1 PUSH2 0x23CF JUMP JUMPDEST PUSH1 0x1 JUMPDEST PUSH2 0x18E3 JUMPI PUSH1 0x40 MLOAD PUSH3 0x461BCD PUSH1 0xE5 SHL DUP2 MSTORE PUSH1 0x20 PUSH1 0x4 DUP3 ADD MSTORE PUSH1 0x2E PUSH1 0x24 DUP3 ADD MSTORE PUSH32 0x45524331393637557067726164653A206E657720696D706C656D656E74617469 PUSH1 0x44 DUP3 ADD MSTORE PUSH14 0x6F6E206973206E6F742055555053 PUSH1 0x90 SHL PUSH1 0x64 DUP3 ADD MSTORE PUSH1 0x84 ADD PUSH2 0x7DB JUMP JUMPDEST PUSH1 0x0 DUP1 MLOAD PUSH1 0x20 PUSH2 0x26E3 DUP4 CODECOPY DUP2 MLOAD SWAP2 MSTORE DUP2 EQ PUSH2 0x1952 JUMPI PUSH1 0x40 MLOAD PUSH3 0x461BCD PUSH1 0xE5 SHL DUP2 MSTORE PUSH1 0x20 PUSH1 0x4 DUP3 ADD MSTORE PUSH1 0x29 PUSH1 0x24 DUP3 ADD MSTORE PUSH32 0x45524331393637557067726164653A20756E737570706F727465642070726F78 PUSH1 0x44 DUP3 ADD MSTORE PUSH9 0x1A58589B1955555251 PUSH1 0xBA SHL PUSH1 0x64 DUP3 ADD MSTORE PUSH1 0x84 ADD PUSH2 0x7DB JUMP JUMPDEST POP PUSH2 0x498 DUP4 DUP4 DUP4 PUSH2 0x1C8D JUMP JUMPDEST PUSH1 0x33 DUP1 SLOAD PUSH1 0x1 PUSH1 0x1 PUSH1 0xA0 SHL SUB DUP4 DUP2 AND PUSH1 0x1 PUSH1 0x1 PUSH1 0xA0 SHL SUB NOT DUP4 AND DUP2 OR SWAP1 SWAP4 SSTORE PUSH1 0x40 MLOAD SWAP2 AND SWAP2 SWAP1 DUP3 SWAP1 PUSH32 0x8BE0079C531659141344CD1FD0A4F28419497F9722A3DAAFE3B4186F6B6457E0 SWAP1 PUSH1 0x0 SWAP1 LOG3 POP POP JUMP JUMPDEST PUSH1 0x0 SLOAD PUSH2 0x100 SWAP1 DIV PUSH1 0xFF AND PUSH2 0x19D7 JUMPI PUSH1 0x40 MLOAD PUSH3 0x461BCD PUSH1 0xE5 SHL DUP2 MSTORE PUSH1 0x4 ADD PUSH2 0x7DB SWAP1 PUSH2 0x250D JUMP JUMPDEST PUSH2 0x502 PUSH2 0x1CB8 JUMP JUMPDEST PUSH1 0x0 SLOAD PUSH2 0x100 SWAP1 DIV PUSH1 0xFF AND PUSH2 0x1A06 JUMPI PUSH1 0x40 MLOAD PUSH3 0x461BCD PUSH1 0xE5 SHL DUP2 MSTORE PUSH1 0x4 ADD PUSH2 0x7DB SWAP1 PUSH2 0x250D JUMP JUMPDEST PUSH2 0x502 PUSH2 0x1CEB JUMP JUMPDEST PUSH1 0x0 SLOAD PUSH2 0x100 SWAP1 DIV PUSH1 0xFF AND PUSH2 0x502 JUMPI PUSH1 0x40 MLOAD PUSH3 0x461BCD PUSH1 0xE5 SHL DUP2 MSTORE PUSH1 0x4 ADD PUSH2 0x7DB SWAP1 PUSH2 0x250D JUMP JUMPDEST PUSH2 0x1A3D PUSH2 0x1D1B JUMP JUMPDEST PUSH1 0x65 DUP1 SLOAD PUSH1 0xFF NOT AND SWAP1 SSTORE PUSH32 0x5DB9EE0A495BF2E6FF9C91A7834C1BA4FDD244A5E8AA4E537BD38AEAE4B073AA CALLER PUSH2 0xF7A JUMP JUMPDEST PUSH1 0x40 DUP1 MLOAD PUSH1 0x2 DUP1 DUP3 MSTORE PUSH1 0x60 DUP1 DUP4 ADD DUP5 MSTORE SWAP3 PUSH1 0x0 SWAP3 SWAP2 SWAP1 PUSH1 0x20 DUP4 ADD SWAP1 DUP1 CALLDATASIZE DUP4 CALLDATACOPY ADD SWAP1 POP POP SWAP1 POP DUP6 DUP2 PUSH1 0x0 DUP2 MLOAD DUP2 LT PUSH2 0x1AA7 JUMPI PUSH2 0x1AA7 PUSH2 0x22AB JUMP JUMPDEST PUSH1 0x20 MUL PUSH1 0x20 ADD ADD SWAP1 PUSH1 0x1 PUSH1 0x1 PUSH1 0xA0 SHL SUB AND SWAP1 DUP2 PUSH1 0x1 PUSH1 0x1 PUSH1 0xA0 SHL SUB AND DUP2 MSTORE POP POP DUP4 DUP2 PUSH1 0x1 DUP2 MLOAD DUP2 LT PUSH2 0x1ADB JUMPI PUSH2 0x1ADB PUSH2 0x22AB JUMP JUMPDEST PUSH1 0x1 PUSH1 0x1 PUSH1 0xA0 SHL SUB SWAP3 DUP4 AND PUSH1 0x20 SWAP2 DUP3 MUL SWAP3 SWAP1 SWAP3 ADD ADD MSTORE PUSH1 0x40 MLOAD PUSH4 0x95EA7B3 PUSH1 0xE0 SHL DUP2 MSTORE DUP5 DUP3 AND PUSH1 0x4 DUP3 ADD MSTORE PUSH1 0x24 DUP2 ADD DUP8 SWAP1 MSTORE SWAP1 DUP8 AND SWAP1 PUSH4 0x95EA7B3 SWAP1 PUSH1 0x44 ADD PUSH1 0x20 PUSH1 0x40 MLOAD DUP1 DUP4 SUB DUP2 PUSH1 0x0 DUP8 GAS CALL ISZERO DUP1 ISZERO PUSH2 0x1B39 JUMPI RETURNDATASIZE PUSH1 0x0 DUP1 RETURNDATACOPY RETURNDATASIZE PUSH1 0x0 REVERT JUMPDEST POP POP POP POP PUSH1 0x40 MLOAD RETURNDATASIZE PUSH1 0x1F NOT PUSH1 0x1F DUP3 ADD AND DUP3 ADD DUP1 PUSH1 0x40 MSTORE POP DUP2 ADD SWAP1 PUSH2 0x1B5D SWAP2 SWAP1 PUSH2 0x228E JUMP JUMPDEST POP PUSH1 0x0 PUSH1 0x1 PUSH1 0x1 PUSH1 0xA0 SHL SUB DUP5 AND PUSH4 0x38ED1739 DUP8 PUSH1 0x1 DUP6 ADDRESS PUSH2 0x1B7F TIMESTAMP PUSH1 0x64 PUSH2 0x230B JUMP JUMPDEST PUSH1 0x40 MLOAD DUP7 PUSH4 0xFFFFFFFF AND PUSH1 0xE0 SHL DUP2 MSTORE PUSH1 0x4 ADD PUSH2 0x1B9F SWAP6 SWAP5 SWAP4 SWAP3 SWAP2 SWAP1 PUSH2 0x2558 JUMP JUMPDEST PUSH1 0x0 PUSH1 0x40 MLOAD DUP1 DUP4 SUB DUP2 PUSH1 0x0 DUP8 GAS CALL ISZERO DUP1 ISZERO PUSH2 0x1BBE JUMPI RETURNDATASIZE PUSH1 0x0 DUP1 RETURNDATACOPY RETURNDATASIZE PUSH1 0x0 REVERT JUMPDEST POP POP POP POP PUSH1 0x40 MLOAD RETURNDATASIZE PUSH1 0x0 DUP3 RETURNDATACOPY PUSH1 0x1F RETURNDATASIZE SWAP1 DUP2 ADD PUSH1 0x1F NOT AND DUP3 ADD PUSH1 0x40 MSTORE PUSH2 0x1BE6 SWAP2 SWAP1 DUP2 ADD SWAP1 PUSH2 0x25C9 JUMP JUMPDEST SWAP8 SWAP7 POP POP POP POP POP POP POP JUMP JUMPDEST PUSH1 0x1 PUSH1 0x1 PUSH1 0xA0 SHL SUB DUP2 AND EXTCODESIZE PUSH2 0x1C5E JUMPI PUSH1 0x40 MLOAD PUSH3 0x461BCD PUSH1 0xE5 SHL DUP2 MSTORE PUSH1 0x20 PUSH1 0x4 DUP3 ADD MSTORE PUSH1 0x2D PUSH1 0x24 DUP3 ADD MSTORE PUSH32 0x455243313936373A206E657720696D706C656D656E746174696F6E206973206E PUSH1 0x44 DUP3 ADD MSTORE PUSH13 0x1BDD08184818DBDB9D1C9858DD PUSH1 0x9A SHL PUSH1 0x64 DUP3 ADD MSTORE PUSH1 0x84 ADD PUSH2 0x7DB JUMP JUMPDEST PUSH1 0x0 DUP1 MLOAD PUSH1 0x20 PUSH2 0x26E3 DUP4 CODECOPY DUP2 MLOAD SWAP2 MSTORE DUP1 SLOAD PUSH1 0x1 PUSH1 0x1 PUSH1 0xA0 SHL SUB NOT AND PUSH1 0x1 PUSH1 0x1 PUSH1 0xA0 SHL SUB SWAP3 SWAP1 SWAP3 AND SWAP2 SWAP1 SWAP2 OR SWAP1 SSTORE JUMP JUMPDEST PUSH2 0x1C96 DUP4 PUSH2 0x1D64 JUMP JUMPDEST PUSH1 0x0 DUP3 MLOAD GT DUP1 PUSH2 0x1CA3 JUMPI POP DUP1 JUMPDEST ISZERO PUSH2 0x498 JUMPI PUSH2 0x1CB2 DUP4 DUP4 PUSH2 0x1DA4 JUMP JUMPDEST POP POP POP POP JUMP JUMPDEST PUSH1 0x0 SLOAD PUSH2 0x100 SWAP1 DIV PUSH1 0xFF AND PUSH2 0x1CDF JUMPI PUSH1 0x40 MLOAD PUSH3 0x461BCD PUSH1 0xE5 SHL DUP2 MSTORE PUSH1 0x4 ADD PUSH2 0x7DB SWAP1 PUSH2 0x250D JUMP JUMPDEST PUSH1 0x65 DUP1 SLOAD PUSH1 0xFF NOT AND SWAP1 SSTORE JUMP JUMPDEST PUSH1 0x0 SLOAD PUSH2 0x100 SWAP1 DIV PUSH1 0xFF AND PUSH2 0x1D12 JUMPI PUSH1 0x40 MLOAD PUSH3 0x461BCD PUSH1 0xE5 SHL DUP2 MSTORE PUSH1 0x4 ADD PUSH2 0x7DB SWAP1 PUSH2 0x250D JUMP JUMPDEST PUSH2 0x502 CALLER PUSH2 0x195E JUMP JUMPDEST PUSH1 0x65 SLOAD PUSH1 0xFF AND PUSH2 0x502 JUMPI PUSH1 0x40 MLOAD PUSH3 0x461BCD PUSH1 0xE5 SHL DUP2 MSTORE PUSH1 0x20 PUSH1 0x4 DUP3 ADD MSTORE PUSH1 0x14 PUSH1 0x24 DUP3 ADD MSTORE PUSH20 0x14185D5CD8589B194E881B9BDD081C185D5CD959 PUSH1 0x62 SHL PUSH1 0x44 DUP3 ADD MSTORE PUSH1 0x64 ADD PUSH2 0x7DB JUMP JUMPDEST PUSH2 0x1D6D DUP2 PUSH2 0x1BF1 JUMP JUMPDEST PUSH1 0x40 MLOAD PUSH1 0x1 PUSH1 0x1 PUSH1 0xA0 SHL SUB DUP3 AND SWAP1 PUSH32 0xBC7CD75A20EE27FD9ADEBAB32041F755214DBC6BFFA90CC0225B39DA2E5C2D3B SWAP1 PUSH1 0x0 SWAP1 LOG2 POP JUMP JUMPDEST PUSH1 0x60 PUSH1 0x1 PUSH1 0x1 PUSH1 0xA0 SHL SUB DUP4 AND EXTCODESIZE PUSH2 0x1E0C JUMPI PUSH1 0x40 MLOAD PUSH3 0x461BCD PUSH1 0xE5 SHL DUP2 MSTORE PUSH1 0x20 PUSH1 0x4 DUP3 ADD MSTORE PUSH1 0x26 PUSH1 0x24 DUP3 ADD MSTORE PUSH32 0x416464726573733A2064656C65676174652063616C6C20746F206E6F6E2D636F PUSH1 0x44 DUP3 ADD MSTORE PUSH6 0x1B9D1C9858DD PUSH1 0xD2 SHL PUSH1 0x64 DUP3 ADD MSTORE PUSH1 0x84 ADD PUSH2 0x7DB JUMP JUMPDEST PUSH1 0x0 DUP1 DUP5 PUSH1 0x1 PUSH1 0x1 PUSH1 0xA0 SHL SUB AND DUP5 PUSH1 0x40 MLOAD PUSH2 0x1E27 SWAP2 SWAP1 PUSH2 0x2693 JUMP JUMPDEST PUSH1 0x0 PUSH1 0x40 MLOAD DUP1 DUP4 SUB DUP2 DUP6 GAS DELEGATECALL SWAP2 POP POP RETURNDATASIZE DUP1 PUSH1 0x0 DUP2 EQ PUSH2 0x1E62 JUMPI PUSH1 0x40 MLOAD SWAP2 POP PUSH1 0x1F NOT PUSH1 0x3F RETURNDATASIZE ADD AND DUP3 ADD PUSH1 0x40 MSTORE RETURNDATASIZE DUP3 MSTORE RETURNDATASIZE PUSH1 0x0 PUSH1 0x20 DUP5 ADD RETURNDATACOPY PUSH2 0x1E67 JUMP JUMPDEST PUSH1 0x60 SWAP2 POP JUMPDEST POP SWAP2 POP SWAP2 POP PUSH2 0x1E8F DUP3 DUP3 PUSH1 0x40 MLOAD DUP1 PUSH1 0x60 ADD PUSH1 0x40 MSTORE DUP1 PUSH1 0x27 DUP2 MSTORE PUSH1 0x20 ADD PUSH2 0x2703 PUSH1 0x27 SWAP2 CODECOPY PUSH2 0x1E9A JUMP JUMPDEST SWAP3 POP POP POP JUMPDEST SWAP3 SWAP2 POP POP JUMP JUMPDEST PUSH1 0x60 DUP4 ISZERO PUSH2 0x1EA9 JUMPI POP DUP2 PUSH2 0x17E4 JUMP JUMPDEST PUSH2 0x17E4 DUP4 DUP4 DUP2 MLOAD ISZERO PUSH2 0x1EBE JUMPI DUP2 MLOAD DUP1 DUP4 PUSH1 0x20 ADD REVERT JUMPDEST DUP1 PUSH1 0x40 MLOAD PUSH3 0x461BCD PUSH1 0xE5 SHL DUP2 MSTORE PUSH1 0x4 ADD PUSH2 0x7DB SWAP2 SWAP1 PUSH2 0x26AF JUMP JUMPDEST PUSH1 0x1 PUSH1 0x1 PUSH1 0xA0 SHL SUB DUP2 AND DUP2 EQ PUSH2 0x878 JUMPI PUSH1 0x0 DUP1 REVERT JUMPDEST PUSH1 0x0 DUP1 PUSH1 0x40 DUP4 DUP6 SUB SLT ISZERO PUSH2 0x1F00 JUMPI PUSH1 0x0 DUP1 REVERT JUMPDEST DUP3 CALLDATALOAD PUSH2 0x1F0B DUP2 PUSH2 0x1ED8 JUMP JUMPDEST SWAP5 PUSH1 0x20 SWAP4 SWAP1 SWAP4 ADD CALLDATALOAD SWAP4 POP POP POP JUMP JUMPDEST PUSH1 0x0 PUSH1 0x20 DUP3 DUP5 SUB SLT ISZERO PUSH2 0x1F2B JUMPI PUSH1 0x0 DUP1 REVERT JUMPDEST DUP2 CALLDATALOAD PUSH2 0x17E4 DUP2 PUSH2 0x1ED8 JUMP JUMPDEST PUSH1 0x0 PUSH1 0x20 DUP3 DUP5 SUB SLT ISZERO PUSH2 0x1F48 JUMPI PUSH1 0x0 DUP1 REVERT JUMPDEST POP CALLDATALOAD SWAP2 SWAP1 POP JUMP JUMPDEST PUSH1 0x0 DUP1 DUP4 PUSH1 0x1F DUP5 ADD SLT PUSH2 0x1F61 JUMPI PUSH1 0x0 DUP1 REVERT JUMPDEST POP DUP2 CALLDATALOAD PUSH8 0xFFFFFFFFFFFFFFFF DUP2 GT ISZERO PUSH2 0x1F79 JUMPI PUSH1 0x0 DUP1 REVERT JUMPDEST PUSH1 0x20 DUP4 ADD SWAP2 POP DUP4 PUSH1 0x20 DUP3 PUSH1 0x5 SHL DUP6 ADD ADD GT ISZERO PUSH2 0x1F94 JUMPI PUSH1 0x0 DUP1 REVERT JUMPDEST SWAP3 POP SWAP3 SWAP1 POP JUMP JUMPDEST PUSH1 0x0 DUP1 PUSH1 0x0 DUP1 PUSH1 0x0 DUP1 PUSH1 0x60 DUP8 DUP10 SUB SLT ISZERO PUSH2 0x1FB4 JUMPI PUSH1 0x0 DUP1 REVERT JUMPDEST DUP7 CALLDATALOAD PUSH8 0xFFFFFFFFFFFFFFFF DUP1 DUP3 GT ISZERO PUSH2 0x1FCC JUMPI PUSH1 0x0 DUP1 REVERT JUMPDEST PUSH2 0x1FD8 DUP11 DUP4 DUP12 ADD PUSH2 0x1F4F JUMP JUMPDEST SWAP1 SWAP9 POP SWAP7 POP PUSH1 0x20 DUP10 ADD CALLDATALOAD SWAP2 POP DUP1 DUP3 GT ISZERO PUSH2 0x1FF1 JUMPI PUSH1 0x0 DUP1 REVERT JUMPDEST PUSH2 0x1FFD DUP11 DUP4 DUP12 ADD PUSH2 0x1F4F JUMP JUMPDEST SWAP1 SWAP7 POP SWAP5 POP PUSH1 0x40 DUP10 ADD CALLDATALOAD SWAP2 POP DUP1 DUP3 GT ISZERO PUSH2 0x2016 JUMPI PUSH1 0x0 DUP1 REVERT JUMPDEST POP PUSH2 0x2023 DUP10 DUP3 DUP11 ADD PUSH2 0x1F4F JUMP JUMPDEST SWAP8 SWAP11 SWAP7 SWAP10 POP SWAP5 SWAP8 POP SWAP3 SWAP6 SWAP4 SWAP5 SWAP3 POP POP POP JUMP JUMPDEST PUSH1 0x0 DUP1 PUSH1 0x0 DUP1 PUSH1 0x80 DUP6 DUP8 SUB SLT ISZERO PUSH2 0x204B JUMPI PUSH1 0x0 DUP1 REVERT JUMPDEST DUP5 CALLDATALOAD PUSH2 0x2056 DUP2 PUSH2 0x1ED8 JUMP JUMPDEST SWAP4 POP PUSH1 0x20 DUP6 ADD CALLDATALOAD PUSH2 0x2066 DUP2 PUSH2 0x1ED8 JUMP JUMPDEST SWAP3 POP PUSH1 0x40 DUP6 ADD CALLDATALOAD SWAP2 POP PUSH1 0x60 DUP6 ADD CALLDATALOAD PUSH2 0x207D DUP2 PUSH2 0x1ED8 JUMP JUMPDEST SWAP4 SWAP7 SWAP3 SWAP6 POP SWAP1 SWAP4 POP POP JUMP JUMPDEST PUSH4 0x4E487B71 PUSH1 0xE0 SHL PUSH1 0x0 MSTORE PUSH1 0x41 PUSH1 0x4 MSTORE PUSH1 0x24 PUSH1 0x0 REVERT JUMPDEST PUSH1 0x40 MLOAD PUSH1 0x1F DUP3 ADD PUSH1 0x1F NOT AND DUP2 ADD PUSH8 0xFFFFFFFFFFFFFFFF DUP2 GT DUP3 DUP3 LT OR ISZERO PUSH2 0x20C7 JUMPI PUSH2 0x20C7 PUSH2 0x2088 JUMP JUMPDEST PUSH1 0x40 MSTORE SWAP2 SWAP1 POP JUMP JUMPDEST PUSH1 0x0 DUP1 PUSH1 0x40 DUP4 DUP6 SUB SLT ISZERO PUSH2 0x20E2 JUMPI PUSH1 0x0 DUP1 REVERT JUMPDEST DUP3 CALLDATALOAD PUSH2 0x20ED DUP2 PUSH2 0x1ED8 JUMP JUMPDEST SWAP2 POP PUSH1 0x20 DUP4 DUP2 ADD CALLDATALOAD PUSH8 0xFFFFFFFFFFFFFFFF DUP1 DUP3 GT ISZERO PUSH2 0x210B JUMPI PUSH1 0x0 DUP1 REVERT JUMPDEST DUP2 DUP7 ADD SWAP2 POP DUP7 PUSH1 0x1F DUP4 ADD SLT PUSH2 0x211F JUMPI PUSH1 0x0 DUP1 REVERT JUMPDEST DUP2 CALLDATALOAD DUP2 DUP2 GT ISZERO PUSH2 0x2131 JUMPI PUSH2 0x2131 PUSH2 0x2088 JUMP JUMPDEST PUSH2 0x2143 PUSH1 0x1F DUP3 ADD PUSH1 0x1F NOT AND DUP6 ADD PUSH2 0x209E JUMP JUMPDEST SWAP2 POP DUP1 DUP3 MSTORE DUP8 DUP5 DUP3 DUP6 ADD ADD GT ISZERO PUSH2 0x2159 JUMPI PUSH1 0x0 DUP1 REVERT JUMPDEST DUP1 DUP5 DUP5 ADD DUP6 DUP5 ADD CALLDATACOPY PUSH1 0x0 DUP5 DUP3 DUP5 ADD ADD MSTORE POP DUP1 SWAP4 POP POP POP POP SWAP3 POP SWAP3 SWAP1 POP JUMP JUMPDEST DUP1 ISZERO ISZERO DUP2 EQ PUSH2 0x878 JUMPI PUSH1 0x0 DUP1 REVERT JUMPDEST PUSH1 0x0 DUP1 PUSH1 0x0 DUP1 PUSH1 0x0 PUSH1 0xA0 DUP7 DUP9 SUB SLT ISZERO PUSH2 0x219D JUMPI PUSH1 0x0 DUP1 REVERT JUMPDEST DUP6 CALLDATALOAD SWAP5 POP PUSH1 0x20 DUP7 ADD CALLDATALOAD PUSH2 0x21AF DUP2 PUSH2 0x2177 JUMP JUMPDEST SWAP4 POP PUSH1 0x40 DUP7 ADD CALLDATALOAD PUSH2 0x21BF DUP2 PUSH2 0x2177 JUMP JUMPDEST SWAP3 POP PUSH1 0x60 DUP7 ADD CALLDATALOAD PUSH2 0x21CF DUP2 PUSH2 0x2177 JUMP JUMPDEST SWAP5 SWAP8 SWAP4 SWAP7 POP SWAP2 SWAP5 PUSH1 0x80 ADD CALLDATALOAD SWAP3 SWAP2 POP POP JUMP JUMPDEST PUSH1 0x0 DUP1 PUSH1 0x0 DUP1 PUSH1 0x0 DUP1 PUSH1 0x0 PUSH1 0x80 DUP9 DUP11 SUB SLT ISZERO PUSH2 0x21FB JUMPI PUSH1 0x0 DUP1 REVERT JUMPDEST DUP8 CALLDATALOAD PUSH8 0xFFFFFFFFFFFFFFFF DUP1 DUP3 GT ISZERO PUSH2 0x2213 JUMPI PUSH1 0x0 DUP1 REVERT JUMPDEST PUSH2 0x221F DUP12 DUP4 DUP13 ADD PUSH2 0x1F4F JUMP JUMPDEST SWAP1 SWAP10 POP SWAP8 POP PUSH1 0x20 DUP11 ADD CALLDATALOAD SWAP2 POP DUP1 DUP3 GT ISZERO PUSH2 0x2238 JUMPI PUSH1 0x0 DUP1 REVERT JUMPDEST PUSH2 0x2244 DUP12 DUP4 DUP13 ADD PUSH2 0x1F4F JUMP JUMPDEST SWAP1 SWAP8 POP SWAP6 POP PUSH1 0x40 DUP11 ADD CALLDATALOAD SWAP2 POP DUP1 DUP3 GT ISZERO PUSH2 0x225D JUMPI PUSH1 0x0 DUP1 REVERT JUMPDEST POP PUSH2 0x226A DUP11 DUP3 DUP12 ADD PUSH2 0x1F4F JUMP JUMPDEST SWAP1 SWAP5 POP SWAP3 POP POP PUSH1 0x60 DUP9 ADD CALLDATALOAD PUSH2 0x227E DUP2 PUSH2 0x1ED8 JUMP JUMPDEST DUP1 SWAP2 POP POP SWAP3 SWAP6 SWAP9 SWAP2 SWAP5 SWAP8 POP SWAP3 SWAP6 POP JUMP JUMPDEST PUSH1 0x0 PUSH1 0x20 DUP3 DUP5 SUB SLT ISZERO PUSH2 0x22A0 JUMPI PUSH1 0x0 DUP1 REVERT JUMPDEST DUP2 MLOAD PUSH2 0x17E4 DUP2 PUSH2 0x2177 JUMP JUMPDEST PUSH4 0x4E487B71 PUSH1 0xE0 SHL PUSH1 0x0 MSTORE PUSH1 0x32 PUSH1 0x4 MSTORE PUSH1 0x24 PUSH1 0x0 REVERT JUMPDEST PUSH4 0x4E487B71 PUSH1 0xE0 SHL PUSH1 0x0 MSTORE PUSH1 0x11 PUSH1 0x4 MSTORE PUSH1 0x24 PUSH1 0x0 REVERT JUMPDEST DUP1 DUP3 MUL DUP2 ISZERO DUP3 DUP3 DIV DUP5 EQ OR PUSH2 0x1E94 JUMPI PUSH2 0x1E94 PUSH2 0x22C1 JUMP JUMPDEST PUSH1 0x0 PUSH1 0x20 DUP3 DUP5 SUB SLT ISZERO PUSH2 0x2300 JUMPI PUSH1 0x0 DUP1 REVERT JUMPDEST DUP2 MLOAD PUSH2 0x17E4 DUP2 PUSH2 0x1ED8 JUMP JUMPDEST DUP1 DUP3 ADD DUP1 DUP3 GT ISZERO PUSH2 0x1E94 JUMPI PUSH2 0x1E94 PUSH2 0x22C1 JUMP JUMPDEST PUSH1 0x0 PUSH1 0x1 DUP3 ADD PUSH2 0x2330 JUMPI PUSH2 0x2330 PUSH2 0x22C1 JUMP JUMPDEST POP PUSH1 0x1 ADD SWAP1 JUMP JUMPDEST PUSH1 0x20 DUP1 DUP3 MSTORE PUSH1 0x2C SWAP1 DUP3 ADD MSTORE PUSH32 0x46756E6374696F6E206D7573742062652063616C6C6564207468726F75676820 PUSH1 0x40 DUP3 ADD MSTORE PUSH12 0x19195B1959D85D1958D85B1B PUSH1 0xA2 SHL PUSH1 0x60 DUP3 ADD MSTORE PUSH1 0x80 ADD SWAP1 JUMP JUMPDEST PUSH1 0x20 DUP1 DUP3 MSTORE PUSH1 0x2C SWAP1 DUP3 ADD MSTORE PUSH32 0x46756E6374696F6E206D7573742062652063616C6C6564207468726F75676820 PUSH1 0x40 DUP3 ADD MSTORE PUSH12 0x6163746976652070726F7879 PUSH1 0xA0 SHL PUSH1 0x60 DUP3 ADD MSTORE PUSH1 0x80 ADD SWAP1 JUMP JUMPDEST PUSH1 0x0 PUSH1 0x20 DUP3 DUP5 SUB SLT ISZERO PUSH2 0x23E1 JUMPI PUSH1 0x0 DUP1 REVERT JUMPDEST POP MLOAD SWAP2 SWAP1 POP JUMP JUMPDEST DUP2 DUP2 SUB DUP2 DUP2 GT ISZERO PUSH2 0x1E94 JUMPI PUSH2 0x1E94 PUSH2 0x22C1 JUMP JUMPDEST PUSH1 0x1 DUP2 DUP2 JUMPDEST DUP1 DUP6 GT ISZERO PUSH2 0x2436 JUMPI DUP2 PUSH1 0x0 NOT DIV DUP3 GT ISZERO PUSH2 0x241C JUMPI PUSH2 0x241C PUSH2 0x22C1 JUMP JUMPDEST DUP1 DUP6 AND ISZERO PUSH2 0x2429 JUMPI SWAP2 DUP2 MUL SWAP2 JUMPDEST SWAP4 DUP5 SHR SWAP4 SWAP1 DUP1 MUL SWAP1 PUSH2 0x2400 JUMP JUMPDEST POP SWAP3 POP SWAP3 SWAP1 POP JUMP JUMPDEST PUSH1 0x0 DUP3 PUSH2 0x244D JUMPI POP PUSH1 0x1 PUSH2 0x1E94 JUMP JUMPDEST DUP2 PUSH2 0x245A JUMPI POP PUSH1 0x0 PUSH2 0x1E94 JUMP JUMPDEST DUP2 PUSH1 0x1 DUP2 EQ PUSH2 0x2470 JUMPI PUSH1 0x2 DUP2 EQ PUSH2 0x247A JUMPI PUSH2 0x2496 JUMP JUMPDEST PUSH1 0x1 SWAP2 POP POP PUSH2 0x1E94 JUMP JUMPDEST PUSH1 0xFF DUP5 GT ISZERO PUSH2 0x248B JUMPI PUSH2 0x248B PUSH2 0x22C1 JUMP JUMPDEST POP POP PUSH1 0x1 DUP3 SHL PUSH2 0x1E94 JUMP JUMPDEST POP PUSH1 0x20 DUP4 LT PUSH2 0x133 DUP4 LT AND PUSH1 0x4E DUP5 LT PUSH1 0xB DUP5 LT AND OR ISZERO PUSH2 0x24B9 JUMPI POP DUP2 DUP2 EXP PUSH2 0x1E94 JUMP JUMPDEST PUSH2 0x24C3 DUP4 DUP4 PUSH2 0x23FB JUMP JUMPDEST DUP1 PUSH1 0x0 NOT DIV DUP3 GT ISZERO PUSH2 0x24D7 JUMPI PUSH2 0x24D7 PUSH2 0x22C1 JUMP JUMPDEST MUL SWAP4 SWAP3 POP POP POP JUMP JUMPDEST PUSH1 0x0 PUSH2 0x17E4 DUP4 DUP4 PUSH2 0x243E JUMP JUMPDEST PUSH1 0x0 DUP3 PUSH2 0x2508 JUMPI PUSH4 0x4E487B71 PUSH1 0xE0 SHL PUSH1 0x0 MSTORE PUSH1 0x12 PUSH1 0x4 MSTORE PUSH1 0x24 PUSH1 0x0 REVERT JUMPDEST POP DIV SWAP1 JUMP JUMPDEST PUSH1 0x20 DUP1 DUP3 MSTORE PUSH1 0x2B SWAP1 DUP3 ADD MSTORE PUSH32 0x496E697469616C697A61626C653A20636F6E7472616374206973206E6F742069 PUSH1 0x40 DUP3 ADD MSTORE PUSH11 0x6E697469616C697A696E67 PUSH1 0xA8 SHL PUSH1 0x60 DUP3 ADD MSTORE PUSH1 0x80 ADD SWAP1 JUMP JUMPDEST PUSH1 0x0 PUSH1 0xA0 DUP3 ADD DUP8 DUP4 MSTORE PUSH1 0x20 DUP8 DUP2 DUP6 ADD MSTORE PUSH1 0xA0 PUSH1 0x40 DUP6 ADD MSTORE DUP2 DUP8 MLOAD DUP1 DUP5 MSTORE PUSH1 0xC0 DUP7 ADD SWAP2 POP DUP3 DUP10 ADD SWAP4 POP PUSH1 0x0 JUMPDEST DUP2 DUP2 LT ISZERO PUSH2 0x25A8 JUMPI DUP5 MLOAD PUSH1 0x1 PUSH1 0x1 PUSH1 0xA0 SHL SUB AND DUP4 MSTORE SWAP4 DUP4 ADD SWAP4 SWAP2 DUP4 ADD SWAP2 PUSH1 0x1 ADD PUSH2 0x2583 JUMP JUMPDEST POP POP PUSH1 0x1 PUSH1 0x1 PUSH1 0xA0 SHL SUB SWAP7 SWAP1 SWAP7 AND PUSH1 0x60 DUP6 ADD MSTORE POP POP POP PUSH1 0x80 ADD MSTORE SWAP4 SWAP3 POP POP POP JUMP JUMPDEST PUSH1 0x0 PUSH1 0x20 DUP1 DUP4 DUP6 SUB SLT ISZERO PUSH2 0x25DC JUMPI PUSH1 0x0 DUP1 REVERT JUMPDEST DUP3 MLOAD PUSH8 0xFFFFFFFFFFFFFFFF DUP1 DUP3 GT ISZERO PUSH2 0x25F4 JUMPI PUSH1 0x0 DUP1 REVERT JUMPDEST DUP2 DUP6 ADD SWAP2 POP DUP6 PUSH1 0x1F DUP4 ADD SLT PUSH2 0x2608 JUMPI PUSH1 0x0 DUP1 REVERT JUMPDEST DUP2 MLOAD DUP2 DUP2 GT ISZERO PUSH2 0x261A JUMPI PUSH2 0x261A PUSH2 0x2088 JUMP JUMPDEST DUP1 PUSH1 0x5 SHL SWAP2 POP PUSH2 0x262B DUP5 DUP4 ADD PUSH2 0x209E JUMP JUMPDEST DUP2 DUP2 MSTORE SWAP2 DUP4 ADD DUP5 ADD SWAP2 DUP5 DUP2 ADD SWAP1 DUP9 DUP5 GT ISZERO PUSH2 0x2645 JUMPI PUSH1 0x0 DUP1 REVERT JUMPDEST SWAP4 DUP6 ADD SWAP4 JUMPDEST DUP4 DUP6 LT ISZERO PUSH2 0x2663 JUMPI DUP5 MLOAD DUP3 MSTORE SWAP4 DUP6 ADD SWAP4 SWAP1 DUP6 ADD SWAP1 PUSH2 0x264A JUMP JUMPDEST SWAP9 SWAP8 POP POP POP POP POP POP POP POP JUMP JUMPDEST PUSH1 0x0 JUMPDEST DUP4 DUP2 LT ISZERO PUSH2 0x268A JUMPI DUP2 DUP2 ADD MLOAD DUP4 DUP3 ADD MSTORE PUSH1 0x20 ADD PUSH2 0x2672 JUMP JUMPDEST POP POP PUSH1 0x0 SWAP2 ADD MSTORE JUMP JUMPDEST PUSH1 0x0 DUP3 MLOAD PUSH2 0x26A5 DUP2 DUP5 PUSH1 0x20 DUP8 ADD PUSH2 0x266F JUMP JUMPDEST SWAP2 SWAP1 SWAP2 ADD SWAP3 SWAP2 POP POP JUMP JUMPDEST PUSH1 0x20 DUP2 MSTORE PUSH1 0x0 DUP3 MLOAD DUP1 PUSH1 0x20 DUP5 ADD MSTORE PUSH2 0x26CE DUP2 PUSH1 0x40 DUP6 ADD PUSH1 0x20 DUP8 ADD PUSH2 0x266F JUMP JUMPDEST PUSH1 0x1F ADD PUSH1 0x1F NOT AND SWAP2 SWAP1 SWAP2 ADD PUSH1 0x40 ADD SWAP3 SWAP2 POP POP JUMP INVALID CALLDATASIZE ADDMOD SWAP5 LOG1 EXTCODESIZE LOG1 LOG3 0x21 MOD PUSH8 0xC828492DB98DCA3E KECCAK256 PUSH23 0xCC3735A920A3CA505D382BBC416464726573733A206C6F PUSH24 0x2D6C6576656C2064656C65676174652063616C6C20666169 PUSH13 0x6564A264697066735822122035 0xBD 0xAB 0x2F MULMOD PUSH4 0xC1ED450E 0xB2 LOG4 0xDA 0xC8 STOP 0x5C 0x5E JUMP SIGNEXTEND LOG0 PUSH13 0xD6ED4FF2C68C2AFAC1D15F6473 PUSH16 0x6C634300081100330000000000000000 "},"methodIdentifiers":{"BuyWithANUSD(address,address,uint256,address)":"497af863","BuyWithANUSDAdmin(address[],address[],uint256[],address)":"bb042d8c","BuyWithANUSDManager(address[],address[],uint256[])":"31942cdf","admins(uint256)":"14bfd6d0","getAnalystics()":"4f0371d7","getCapping()":"de863da3","getVariablesContract()":"f13a143f","initialize()":"8129fc1c","owner()":"8da5cb5b","pauseAdmin()":"2f11d653","paused()":"5c975abb","proxiableUUID()":"52d1902d","renounceOwnership()":"715018a6","setCapping(uint256,bool,bool,bool,uint256)":"6740090a","setVariablesContract(address)":"0ba0dba3","transferETH(address,uint256)":"7b1a4909","transferOwnership(address)":"f2fde38b","unpauseAdmin()":"db5184e6","upgradeTo(address)":"3659cfe6","upgradeToAndCall(address,bytes)":"4f1ef286","withdrawETH()":"e086e5ec","withdrawTokens(address,uint256)":"06b091f9"}},"storageLayout":{"storage":[{"astId":573,"contract":"contracts/PresaleUpgradeable.sol:PresaleUpgradeable","label":"_initialized","offset":0,"slot":"0","type":"t_uint8"},{"astId":576,"contract":"contracts/PresaleUpgradeable.sol:PresaleUpgradeable","label":"_initializing","offset":1,"slot":"0","type":"t_bool"},{"astId":1401,"contract":"contracts/PresaleUpgradeable.sol:PresaleUpgradeable","label":"__gap","offset":0,"slot":"1","type":"t_array(t_uint256)50_storage"},{"astId":56,"contract":"contracts/PresaleUpgradeable.sol:PresaleUpgradeable","label":"_owner","offset":0,"slot":"51","type":"t_address"},{"astId":176,"contract":"contracts/PresaleUpgradeable.sol:PresaleUpgradeable","label":"__gap","offset":0,"slot":"52","type":"t_array(t_uint256)49_storage"},{"astId":892,"contract":"contracts/PresaleUpgradeable.sol:PresaleUpgradeable","label":"_paused","offset":0,"slot":"101","type":"t_bool"},{"astId":997,"contract":"contracts/PresaleUpgradeable.sol:PresaleUpgradeable","label":"__gap","offset":0,"slot":"102","type":"t_array(t_uint256)49_storage"},{"astId":555,"contract":"contracts/PresaleUpgradeable.sol:PresaleUpgradeable","label":"__gap","offset":0,"slot":"151","type":"t_array(t_uint256)50_storage"},{"astId":870,"contract":"contracts/PresaleUpgradeable.sol:PresaleUpgradeable","label":"__gap","offset":0,"slot":"201","type":"t_array(t_uint256)50_storage"},{"astId":1965,"contract":"contracts/PresaleUpgradeable.sol:PresaleUpgradeable","label":"_variableContract","offset":0,"slot":"251","type":"t_address"},{"astId":1967,"contract":"contracts/PresaleUpgradeable.sol:PresaleUpgradeable","label":"_rewardPerAUSD","offset":0,"slot":"252","type":"t_uint256"},{"astId":1969,"contract":"contracts/PresaleUpgradeable.sol:PresaleUpgradeable","label":"_minContributionUSD","offset":0,"slot":"253","type":"t_uint256"},{"astId":1971,"contract":"contracts/PresaleUpgradeable.sol:PresaleUpgradeable","label":"_totalTokenSold","offset":0,"slot":"254","type":"t_uint256"},{"astId":1973,"contract":"contracts/PresaleUpgradeable.sol:PresaleUpgradeable","label":"_totalAUSDRaised","offset":0,"slot":"255","type":"t_uint256"},{"astId":1975,"contract":"contracts/PresaleUpgradeable.sol:PresaleUpgradeable","label":"_isBuyNStake","offset":0,"slot":"256","type":"t_bool"},{"astId":1977,"contract":"contracts/PresaleUpgradeable.sol:PresaleUpgradeable","label":"_isPayReferral","offset":1,"slot":"256","type":"t_bool"},{"astId":1979,"contract":"contracts/PresaleUpgradeable.sol:PresaleUpgradeable","label":"_isPayRewardTokens","offset":2,"slot":"256","type":"t_bool"},{"astId":1981,"contract":"contracts/PresaleUpgradeable.sol:PresaleUpgradeable","label":"_maxBuyLimitANUSD","offset":0,"slot":"257","type":"t_uint256"},{"astId":2053,"contract":"contracts/PresaleUpgradeable.sol:PresaleUpgradeable","label":"admins","offset":0,"slot":"258","type":"t_array(t_address)dyn_storage"}],"types":{"t_address":{"encoding":"inplace","label":"address","numberOfBytes":"20"},"t_array(t_address)dyn_storage":{"base":"t_address","encoding":"dynamic_array","label":"address[]","numberOfBytes":"32"},"t_array(t_uint256)49_storage":{"base":"t_uint256","encoding":"inplace","label":"uint256[49]","numberOfBytes":"1568"},"t_array(t_uint256)50_storage":{"base":"t_uint256","encoding":"inplace","label":"uint256[50]","numberOfBytes":"1600"},"t_bool":{"encoding":"inplace","label":"bool","numberOfBytes":"1"},"t_uint256":{"encoding":"inplace","label":"uint256","numberOfBytes":"32"},"t_uint8":{"encoding":"inplace","label":"uint8","numberOfBytes":"1"}}}}}}