{"contracts/StakingUpgradeable.sol":{"StakingUpgradeable":{"abi":[{"anonymous":false,"inputs":[{"indexed":false,"internalType":"address","name":"previousAdmin","type":"address"},{"indexed":false,"internalType":"address","name":"newAdmin","type":"address"}],"name":"AdminChanged","type":"event"},{"anonymous":false,"inputs":[{"indexed":true,"internalType":"address","name":"beacon","type":"address"}],"name":"BeaconUpgraded","type":"event"},{"anonymous":false,"inputs":[{"indexed":false,"internalType":"uint8","name":"version","type":"uint8"}],"name":"Initialized","type":"event"},{"anonymous":false,"inputs":[{"indexed":true,"internalType":"address","name":"previousOwner","type":"address"},{"indexed":true,"internalType":"address","name":"newOwner","type":"address"}],"name":"OwnershipTransferred","type":"event"},{"anonymous":false,"inputs":[{"indexed":false,"internalType":"address","name":"account","type":"address"}],"name":"Paused","type":"event"},{"anonymous":false,"inputs":[{"indexed":true,"internalType":"address","name":"userAddress","type":"address"},{"indexed":true,"internalType":"uint256","name":"valueStaked","type":"uint256"},{"indexed":true,"internalType":"uint256","name":"duration","type":"uint256"},{"indexed":false,"internalType":"uint256","name":"stakingID","type":"uint256"}],"name":"Stake","type":"event"},{"anonymous":false,"inputs":[{"indexed":true,"internalType":"address","name":"userAddress","type":"address"},{"indexed":true,"internalType":"uint256","name":"reward","type":"uint256"},{"indexed":true,"internalType":"uint256","name":"stakingID","type":"uint256"}],"name":"StakingRewardClaimed","type":"event"},{"anonymous":false,"inputs":[{"indexed":false,"internalType":"address","name":"account","type":"address"}],"name":"Unpaused","type":"event"},{"anonymous":false,"inputs":[{"indexed":true,"internalType":"address","name":"userAddress","type":"address"},{"indexed":true,"internalType":"uint256","name":"valueStaked","type":"uint256"},{"indexed":true,"internalType":"uint256","name":"stakingID","type":"uint256"}],"name":"Unstake","type":"event"},{"anonymous":false,"inputs":[{"indexed":true,"internalType":"address","name":"implementation","type":"address"}],"name":"Upgraded","type":"event"},{"anonymous":false,"inputs":[{"indexed":true,"internalType":"address","name":"userAddress","type":"address"},{"indexed":true,"internalType":"uint256","name":"value","type":"uint256"}],"name":"UserWithdrawFunds","type":"event"},{"inputs":[],"name":"activeStakersList","outputs":[{"internalType":"address[]","name":"","type":"address[]"}],"stateMutability":"view","type":"function"},{"inputs":[],"name":"allStakersList","outputs":[{"internalType":"address[]","name":"","type":"address[]"}],"stateMutability":"view","type":"function"},{"inputs":[{"internalType":"uint256","name":"_stakingID","type":"uint256"}],"name":"claimStakingReward","outputs":[],"stateMutability":"nonpayable","type":"function"},{"inputs":[{"internalType":"uint256[]","name":"_stakingIDs","type":"uint256[]"}],"name":"claimStakingRewardAdmin","outputs":[],"stateMutability":"nonpayable","type":"function"},{"inputs":[{"internalType":"address[]","name":"_userAddress","type":"address[]"}],"name":"disableAccounts","outputs":[],"stateMutability":"nonpayable","type":"function"},{"inputs":[{"internalType":"address[]","name":"_userAddress","type":"address[]"}],"name":"enableAccounts","outputs":[],"stateMutability":"nonpayable","type":"function"},{"inputs":[],"name":"getActiveStakingIDs","outputs":[{"internalType":"uint256[]","name":"activeStakingIDs","type":"uint256[]"}],"stateMutability":"view","type":"function"},{"inputs":[],"name":"getDisabledAccountsList","outputs":[{"internalType":"address[]","name":"","type":"address[]"}],"stateMutability":"view","type":"function"},{"inputs":[],"name":"getPackages","outputs":[{"internalType":"uint256[]","name":"valuesInDecimals","type":"uint256[]"},{"internalType":"uint256[]","name":"rewardRateInPer","type":"uint256[]"},{"internalType":"uint256[]","name":"durationInDays","type":"uint256[]"},{"internalType":"uint256","name":"count","type":"uint256"}],"stateMutability":"view","type":"function"},{"inputs":[],"name":"getPresaleContract","outputs":[{"internalType":"address","name":"","type":"address"}],"stateMutability":"view","type":"function"},{"inputs":[],"name":"getReferralContract","outputs":[{"internalType":"address","name":"","type":"address"}],"stateMutability":"view","type":"function"},{"inputs":[],"name":"getStakingCappings","outputs":[{"internalType":"uint256","name":"minStakingValue","type":"uint256"},{"internalType":"uint256","name":"timeLimitRewardClaim","type":"uint256"},{"internalType":"bool","name":"payReferralOnStaking","type":"bool"},{"internalType":"uint8","name":"maxPackageLength","type":"uint8"},{"internalType":"uint256","name":"rewardRateDecimals","type":"uint256"}],"stateMutability":"view","type":"function"},{"inputs":[{"internalType":"uint256","name":"_stakingID","type":"uint256"}],"name":"getStakingReward","outputs":[{"internalType":"uint256","name":"","type":"uint256"}],"stateMutability":"view","type":"function"},{"inputs":[{"internalType":"uint256","name":"_stakingID","type":"uint256"}],"name":"getStakingTimeRemaining","outputs":[{"internalType":"uint256","name":"","type":"uint256"}],"stateMutability":"view","type":"function"},{"inputs":[],"name":"getTotalStakingRewardDistributed","outputs":[{"internalType":"uint256","name":"","type":"uint256"}],"stateMutability":"view","type":"function"},{"inputs":[],"name":"getTotalValueStaked","outputs":[{"internalType":"uint256","name":"","type":"uint256"}],"stateMutability":"view","type":"function"},{"inputs":[{"internalType":"address","name":"_userAddress","type":"address"}],"name":"getUserAllStakingsRewards","outputs":[{"internalType":"uint256","name":"","type":"uint256"}],"stateMutability":"view","type":"function"},{"inputs":[{"internalType":"address","name":"_userAddress","type":"address"}],"name":"getUserStakingIDs","outputs":[{"internalType":"uint256[]","name":"","type":"uint256[]"}],"stateMutability":"view","type":"function"},{"inputs":[{"internalType":"address","name":"_userAddress","type":"address"}],"name":"getUserTotalRewardClaimed","outputs":[{"internalType":"uint256","name":"totalRewardClaim","type":"uint256"}],"stateMutability":"view","type":"function"},{"inputs":[{"internalType":"address","name":"_userAddress","type":"address"}],"name":"getUserTotalStakedValue","outputs":[{"internalType":"uint256","name":"userTotalValueStaked","type":"uint256"}],"stateMutability":"view","type":"function"},{"inputs":[],"name":"initialize","outputs":[],"stateMutability":"nonpayable","type":"function"},{"inputs":[{"internalType":"address","name":"_userAddress","type":"address"}],"name":"isAccountDisabled","outputs":[{"internalType":"bool","name":"","type":"bool"}],"stateMutability":"view","type":"function"},{"inputs":[{"internalType":"address","name":"_userAddress","type":"address"}],"name":"isStaked","outputs":[{"internalType":"bool","name":"","type":"bool"}],"stateMutability":"view","type":"function"},{"inputs":[],"name":"owner","outputs":[{"internalType":"address","name":"","type":"address"}],"stateMutability":"view","type":"function"},{"inputs":[],"name":"pause","outputs":[],"stateMutability":"nonpayable","type":"function"},{"inputs":[],"name":"paused","outputs":[{"internalType":"bool","name":"","type":"bool"}],"stateMutability":"view","type":"function"},{"inputs":[],"name":"proxiableUUID","outputs":[{"internalType":"bytes32","name":"","type":"bytes32"}],"stateMutability":"view","type":"function"},{"inputs":[],"name":"renounceOwnership","outputs":[],"stateMutability":"nonpayable","type":"function"},{"inputs":[{"internalType":"bool","name":"_value","type":"bool"}],"name":"setIsPayReferralOnStaking","outputs":[{"internalType":"bool","name":"","type":"bool"}],"stateMutability":"nonpayable","type":"function"},{"inputs":[{"internalType":"uint8","name":"_valueInDecimals","type":"uint8"}],"name":"setMaxPackageLength","outputs":[],"stateMutability":"nonpayable","type":"function"},{"inputs":[{"internalType":"uint256","name":"_value","type":"uint256"}],"name":"setMinStakingValue","outputs":[{"internalType":"uint256","name":"","type":"uint256"}],"stateMutability":"nonpayable","type":"function"},{"inputs":[{"internalType":"uint256[]","name":"_valuesInDecimals","type":"uint256[]"},{"internalType":"uint256[]","name":"_rewardRateInPer","type":"uint256[]"},{"internalType":"uint256[]","name":"_durationsInDays","type":"uint256[]"}],"name":"setPackage","outputs":[],"stateMutability":"nonpayable","type":"function"},{"inputs":[{"internalType":"uint8","name":"_valueInDecimals","type":"uint8"}],"name":"setRewardRateDecimals","outputs":[],"stateMutability":"nonpayable","type":"function"},{"inputs":[{"internalType":"uint256","name":"_valueInSeconds","type":"uint256"}],"name":"setTimeLimitRewardClaim","outputs":[],"stateMutability":"nonpayable","type":"function"},{"inputs":[{"internalType":"address","name":"_referrerAddress","type":"address"},{"internalType":"uint256","name":"_packageID","type":"uint256"}],"name":"stake","outputs":[],"stateMutability":"payable","type":"function"},{"inputs":[{"internalType":"uint256","name":"_stakingID","type":"uint256"}],"name":"stakeInfoMap","outputs":[{"components":[{"internalType":"bool","name":"isStaked","type":"bool"},{"internalType":"address","name":"owner","type":"address"},{"internalType":"uint256","name":"value","type":"uint256"},{"internalType":"uint256","name":"rewardRate","type":"uint256"},{"internalType":"uint256","name":"startTime","type":"uint256"},{"internalType":"uint256","name":"duration","type":"uint256"},{"internalType":"uint256","name":"rewardClaimed","type":"uint256"},{"internalType":"uint256","name":"lastTimeRewardClaimed","type":"uint256"},{"internalType":"uint256[]","name":"blockNumber","type":"uint256[]"}],"internalType":"struct StakingUpgradeable.StakeInfo","name":"","type":"tuple"}],"stateMutability":"view","type":"function"},{"inputs":[{"internalType":"address","name":"newOwner","type":"address"}],"name":"transferOwnership","outputs":[],"stateMutability":"nonpayable","type":"function"},{"inputs":[{"internalType":"uint256","name":"_stakingID","type":"uint256"}],"name":"unStake","outputs":[],"stateMutability":"nonpayable","type":"function"},{"inputs":[],"name":"unpause","outputs":[],"stateMutability":"nonpayable","type":"function"},{"inputs":[{"internalType":"address","name":"_presaleAddress","type":"address"}],"name":"updatePresaleContract","outputs":[{"internalType":"address","name":"","type":"address"}],"stateMutability":"nonpayable","type":"function"},{"inputs":[{"internalType":"address","name":"_referralAddress","type":"address"}],"name":"updateReferralContract","outputs":[{"internalType":"address","name":"","type":"address"}],"stateMutability":"nonpayable","type":"function"},{"inputs":[{"internalType":"address","name":"newImplementation","type":"address"}],"name":"upgradeTo","outputs":[],"stateMutability":"nonpayable","type":"function"},{"inputs":[{"internalType":"address","name":"newImplementation","type":"address"},{"internalType":"bytes","name":"data","type":"bytes"}],"name":"upgradeToAndCall","outputs":[],"stateMutability":"payable","type":"function"},{"inputs":[{"internalType":"address","name":"_userAddress","type":"address"}],"name":"userAccountMap","outputs":[{"components":[{"internalType":"uint256[]","name":"stakingID","type":"uint256[]"},{"internalType":"uint256[]","name":"blockNumber","type":"uint256[]"},{"internalType":"bool","name":"isDisabled","type":"bool"}],"internalType":"struct StakingUpgradeable.Account","name":"","type":"tuple"}],"stateMutability":"view","type":"function"},{"inputs":[{"internalType":"address","name":"_receiver","type":"address"},{"internalType":"uint256","name":"_value","type":"uint256"}],"name":"withdrawNativeFunds","outputs":[{"internalType":"bool","name":"","type":"bool"}],"stateMutability":"nonpayable","type":"function"},{"inputs":[{"internalType":"address","name":"_tokenAddress","type":"address"},{"internalType":"address","name":"_receiver","type":"address"},{"internalType":"uint256","name":"_value","type":"uint256"}],"name":"withdrawTokens","outputs":[{"internalType":"bool","name":"","type":"bool"}],"stateMutability":"nonpayable","type":"function"},{"stateMutability":"payable","type":"receive"}],"evm":{"bytecode":{"linkReferences":{},"object":"60a06040523060805234801561001457600080fd5b5060805161369a61004c60003960008181610c3101528181610c7101528181610e8301528181610ec30152610f56015261369a6000f3fe6080604052600436106102815760003560e01c80638456cb591161014f578063aeb6263d116100c1578063dba4358c1161007a578063dba4358c14610797578063deede654146107ac578063e3a51f58146107c1578063f1012b4514610816578063f2fde38b14610834578063fc57e69b1461085457600080fd5b8063aeb6263d146106d5578063ba4f678e146106f5578063c06a538814610722578063d3460d8a14610737578063d596fe7f14610757578063d8ba90b71461077757600080fd5b80639d3610dc116101135780639d3610dc146105f8578063a40b589114610618578063a7566b7514610655578063abfe35ad14610682578063adc9772e146106a2578063ae3132e8146106b557600080fd5b80638456cb591461056557806388ed4f911461057a5780638da5cb5b1461059a57806397eee060146105b85780639c3fe28a146105d857600080fd5b806353bdadea116101f35780636177fd18116101ac5780636177fd18146104c45780636f51b20b146104e45780636f72693b14610511578063715018a6146105265780637ce574bf1461053b5780638129fc1c1461055057600080fd5b806353bdadea1461040757806358628d57146104275780635c05a89f146104475780635c975abb1461046c5780635d3eea91146104845780635e35359e146104a457600080fd5b80633659cfe6116102455780633659cfe61461035c5780633b09098f1461037c5780633f4ba83a1461039c578063469bbc12146103b15780634f1ef286146103df57806352d1902d146103f257600080fd5b80631124f7dd1461028d57806323442c60146102ca578063239cd4a4146102e8578063260cb4e91461030a57806326792aca1461032c57600080fd5b3661028857005b600080fd5b34801561029957600080fd5b506102ad6102a8366004612eb5565b610874565b6040516001600160a01b0390911681526020015b60405180910390f35b3480156102d657600080fd5b5060fc546001600160a01b03166102ad565b3480156102f457600080fd5b50610308610303366004612ed0565b6108a3565b005b34801561031657600080fd5b5061031f610a71565b6040516102c19190612ee9565b34801561033857600080fd5b5061034c610347366004612f2a565b610bdb565b60405190151581526020016102c1565b34801561036857600080fd5b50610308610377366004612eb5565b610c27565b34801561038857600080fd5b50610308610397366004612fa0565b610d06565b3480156103a857600080fd5b50610308610d85565b3480156103bd57600080fd5b506103d16103cc366004612eb5565b610d97565b6040519081526020016102c1565b6103086103ed366004612ff8565b610e79565b3480156103fe57600080fd5b506103d1610f49565b34801561041357600080fd5b50610308610422366004612fa0565b610ffc565b34801561043357600080fd5b50610308610442366004612ed0565b611070565b34801561045357600080fd5b5061045c61107e565b6040516102c194939291906130f5565b34801561047857600080fd5b5060335460ff1661034c565b34801561049057600080fd5b5061030861049f366004612ed0565b611232565b3480156104b057600080fd5b5061034c6104bf366004613140565b6113cb565b3480156104d057600080fd5b5061034c6104df366004612eb5565b611455565b3480156104f057600080fd5b506105046104ff366004612eb5565b611513565b6040516102c1919061317c565b34801561051d57600080fd5b50610504611580565b34801561053257600080fd5b506103086116ef565b34801561054757600080fd5b5060ff546103d1565b34801561055c57600080fd5b50610308611701565b34801561057157600080fd5b506103086118ab565b34801561058657600080fd5b50610308610595366004612fa0565b6118bb565b3480156105a657600080fd5b506065546001600160a01b03166102ad565b3480156105c457600080fd5b506103086105d336600461318f565b611963565b3480156105e457600080fd5b506103d16105f3366004612eb5565b611982565b34801561060457600080fd5b5061034c6106133660046131c0565b611a6b565b34801561062457600080fd5b5061034c610633366004612eb5565b6001600160a01b03166000908152610105602052604090206002015460ff1690565b34801561066157600080fd5b50610675610670366004612ed0565b611a8d565b6040516102c191906131dd565b34801561068e57600080fd5b506103d161069d366004612ed0565b611bbb565b6103086106b0366004612f2a565b611bc6565b3480156106c157600080fd5b506103d16106d0366004612eb5565b611cf3565b3480156106e157600080fd5b506103086106f036600461318f565b611da3565b34801561070157600080fd5b50610715610710366004612eb5565b611dc2565b6040516102c19190613272565b34801561072e57600080fd5b5061031f611ebc565b34801561074357600080fd5b506102ad610752366004612eb5565b612006565b34801561076357600080fd5b506103d1610772366004612ed0565b612033565b34801561078357600080fd5b506103d1610792366004612ed0565b612047565b3480156107a357600080fd5b5061031f6120ac565b3480156107b857600080fd5b5060fe546103d1565b3480156107cd57600080fd5b50610101546101035461010254610104546101005460408051958652602086019490945260ff92831615159385019390935216606083015261ffff16608082015260a0016102c1565b34801561082257600080fd5b5060fb546001600160a01b03166102ad565b34801561084057600080fd5b5061030861084f366004612eb5565b612210565b34801561086057600080fd5b5061030861086f3660046132c4565b612286565b600061087e61232c565b5060fb80546001600160a01b0319166001600160a01b0383169081179091555b919050565b6000818152610106602090815260408083203380855261010590935292206002810154919291439060ff16156108f45760405162461bcd60e51b81526004016108eb9061335e565b60405180910390fd5b825460ff1615156001146109425760405162461bcd60e51b81526020600482015260156024820152745374616b696e67206973206e6f742061637469766560581b60448201526064016108eb565b82546001600160a01b0385811661010090920416146109a35760405162461bcd60e51b815260206004820152601760248201527f536f72727920796f7520617265206e6f74206f776e657200000000000000000060448201526064016108eb565b426101035484600601546109b791906133c4565b11610a1f5760405162461bcd60e51b815260206004820152603260248201527f596f7572206c6173742072657761726420636c61696d2074696d65206c696d696044820152713a1034b9903737ba1037bb32b9103cb2ba1760711b60648201526084016108eb565b6000610a2a86612386565b9050610a3a85878686858761241a565b50604051339082156108fc029083906000818181858888f19350505050158015610a68573d6000803e3d6000fd5b50505050505050565b6000808052610105602090815260fd80546040805182850281018501909152818152606094936000805160206136458339815191529385939091830182828015610ae457602002820191906000526020600020905b81546001600160a01b03168152600190910190602001808311610ac6575b5050505050905060008151905060008167ffffffffffffffff811115610b0c57610b0c612fe2565b604051908082528060200260200182016040528015610b35578160200160208202803683370190505b5090506000805b83811015610bcf57848181518110610b5657610b566133d7565b60200260200101519650610b6a83886124c5565b1515600114610bbd57600286015460ff161515600103610bbd5786838381518110610b9757610b976133d7565b6001600160a01b039092166020928302919091019091015281610bb9816133ed565b9250505b80610bc7816133ed565b915050610b3c565b50909695505050505050565b6000610be561232c565b6040516001600160a01b0384169083156108fc029084906000818181858888f19350505050158015610c1b573d6000803e3d6000fd5b50600190505b92915050565b6001600160a01b037f0000000000000000000000000000000000000000000000000000000000000000163003610c6f5760405162461bcd60e51b81526004016108eb90613406565b7f00000000000000000000000000000000000000000000000000000000000000006001600160a01b0316610cb86000805160206135fe833981519152546001600160a01b031690565b6001600160a01b031614610cde5760405162461bcd60e51b81526004016108eb90613452565b610ce78161252a565b60408051600080825260208201909252610d0391839190612532565b50565b610d0e61232c565b600080805261010560205260008051602061364583398151915282825b81811015610d7d57858582818110610d4557610d456133d7565b9050602002016020810190610d5a9190612eb5565b60028401805460ff19166001179055935080610d75816133ed565b915050610d2b565b505050505050565b610d8d61232c565b610d956126a2565b565b6001600160a01b038116600090815261010560209081526040808320805482518185028101850190935280835290928492918491830182828015610dfa57602002820191906000526020600020905b815481526020019060010190808311610de6575b505083519394506000925050505b81811015610e7057610e32838281518110610e2557610e256133d7565b6020026020010151611a8d565b5115610e5e57610e4d838281518110610e2557610e256133d7565b60400151610e5b90866133c4565b94505b80610e68816133ed565b915050610e08565b50505050919050565b6001600160a01b037f0000000000000000000000000000000000000000000000000000000000000000163003610ec15760405162461bcd60e51b81526004016108eb90613406565b7f00000000000000000000000000000000000000000000000000000000000000006001600160a01b0316610f0a6000805160206135fe833981519152546001600160a01b031690565b6001600160a01b031614610f305760405162461bcd60e51b81526004016108eb90613452565b610f398261252a565b610f4582826001612532565b5050565b6000306001600160a01b037f00000000000000000000000000000000000000000000000000000000000000001614610fe95760405162461bcd60e51b815260206004820152603860248201527f555550535570677261646561626c653a206d757374206e6f742062652063616c60448201527f6c6564207468726f7567682064656c656761746563616c6c000000000000000060648201526084016108eb565b506000805160206135fe83398151915290565b61100461232c565b600080805261010560205260008051602061364583398151915282825b81811015610d7d5785858281811061103b5761103b6133d7565b90506020020160208101906110509190612eb5565b60028401805460ff19169055935080611068816133ed565b915050611021565b61107861232c565b61010355565b6101045460609081908190600090819060ff1667ffffffffffffffff8111156110a9576110a9612fe2565b6040519080825280602002602001820160405280156110d2578160200160208202803683370190505b506101045490915060009060ff1667ffffffffffffffff8111156110f8576110f8612fe2565b604051908082528060200260200182016040528015611121578160200160208202803683370190505b506101045490915060009060ff1667ffffffffffffffff81111561114757611147612fe2565b604051908082528060200260200182016040528015611170578160200160208202803683370190505b50905060005b6101045460ff168110156112245761118d816126f4565b600001518482815181106111a3576111a36133d7565b6020026020010181815250506111b8816126f4565b602001518382815181106111ce576111ce6133d7565b6020026020010181815250506111e3816126f4565b604001518282815181106111f9576111f96133d7565b60209081029190910101528461120e816133ed565b955050808061121c906133ed565b915050611176565b509196909550909350909150565b33600081815261010560209081526040808320858452610106909252909120600282015443924292909160ff161561127c5760405162461bcd60e51b81526004016108eb9061335e565b805460ff166112c55760405162461bcd60e51b81526020600482015260156024820152745374616b696e67206973206e6f742061637469766560581b60448201526064016108eb565b80546001600160a01b0386811661010090920416146113365760405162461bcd60e51b815260206004820152602760248201527f536f72727920796f7520617265206e6f74206f776e6572206f662074686973206044820152667374616b696e6760c81b60648201526084016108eb565b828160040154826003015461134b91906133c4565b116113985760405162461bcd60e51b815260206004820152601b60248201527f596f75207374616b696e67206973206e6f74206f76657220796574000000000060448201526064016108eb565b60006113a387612386565b90506113b386888486858a61241a565b506113c18688848689612752565b5050505050505050565b60006113d561232c565b60405163a9059cbb60e01b81526001600160a01b0384811660048301526024820184905285169063a9059cbb906044016020604051808303816000875af1158015611424573d6000803e3d6000fd5b505050506040513d601f19601f82011682018060405250810190611448919061349e565b50600190505b9392505050565b6001600160a01b0381166000908152610105602090815260408083208054825181850281018501909352808352909284929184918301828280156114b857602002820191906000526020600020905b8154815260200190600101908083116114a4575b505083519394506000925050505b81811015611507576114e3838281518110610e2557610e256133d7565b51156114f55750600195945050505050565b806114ff816133ed565b9150506114c6565b50600095945050505050565b6001600160a01b0381166000908152610105602090815260409182902080548351818402810184019094528084526060939283018282801561157457602002820191906000526020600020905b815481526020019060010190808311611560575b50505050509050919050565b60fd546060906000805b828110156115c55761159b81611a8d565b5115156001036115b357816115af816133ed565b9250505b806115bd816133ed565b91505061158a565b5060008167ffffffffffffffff8111156115e1576115e1612fe2565b60405190808252806020026020018201604052801561160a578160200160208202803683370190505b50905060008267ffffffffffffffff81111561162857611628612fe2565b604051908082528060200260200182016040528015611651578160200160208202803683370190505b50905060005b848110156116e55761166881611a8d565b51151560010361169c5761167d8160016133c4565b83828151811061168f5761168f6133d7565b6020026020010181815250505b6116a581611a8d565b602001518282815181106116bb576116bb6133d7565b6001600160a01b0390921660209283029190910190910152806116dd816133ed565b915050611657565b5090949350505050565b6116f761232c565b610d9560006127ef565b600054610100900460ff16158080156117215750600054600160ff909116105b8061173b5750303b15801561173b575060005460ff166001145b61179e5760405162461bcd60e51b815260206004820152602e60248201527f496e697469616c697a61626c653a20636f6e747261637420697320616c72656160448201526d191e481a5b9a5d1a585b1a5e995960921b60648201526084016108eb565b6000805460ff1916600117905580156117c1576000805461ff0019166101001790555b60fb80546001600160a01b031990811673d15a7571030817b0c6cf84e7a130c492c4997a5f1790915560fc8054909116730f4b542493e591bd817c5280d1f748510b39e624179055678ac7230489e8000061010155610102805460ff19908116600117909155610100805461ffff19166064179055620151806101035561010480549091166003179055611853612841565b61185b612870565b61186361289f565b8015610d03576000805461ff0019169055604051600181527f7f26b83ff96e1f2b6a682f133852f6798a09c465da95921460cefb38474024989060200160405180910390a150565b6118b361232c565b610d956128c6565b6118c361232c565b6000808052610105602052807f36b574eb542e18a2932b42c3f7b99e0cccde75c2d7e80ac19800931af8e17fa260008051602061364583398151915243835b868110156113c15787878281811061191c5761191c6133d7565b865461010090046001600160a01b031698506020029190910135955061195090508686868661194a83612386565b8761241a565b508061195b816133ed565b915050611902565b61196b61232c565b610104805460ff191660ff92909216919091179055565b6001600160a01b038116600090815261010560209081526040808320805482518185028101850190935280835284938301828280156119e057602002820191906000526020600020905b8154815260200190600101908083116119cc575b505050505090506000815190506000805b828160ff161015611a6257611a14848260ff1681518110610e2557610e256133d7565b511515600103611a5057611a43848260ff1681518110611a3657611a366133d7565b6020026020010151612386565b611a4d90836133c4565b91505b80611a5a816134bb565b9150506119f1565b50949350505050565b6000611a7561232c565b50610102805460ff1916911515918217905560ff1690565b611ae760405180610120016040528060001515815260200160006001600160a01b03168152602001600081526020016000815260200160008152602001600081526020016000815260200160008152602001606081525090565b60008281526101066020908152604091829020825161012081018452815460ff8116151582526001600160a01b036101009182900416828501526001830154828601526002830154606083015260038301546080830152600483015460a0830152600583015460c0830152600683015460e08301526007830180548651818702810187019097528087529295939491860193929091830182828015611bab57602002820191906000526020600020905b815481526020019060010190808311611b97575b5050505050815250509050919050565b6000610c2182612386565b611bce612903565b6101015433903490811015611c395760405162461bcd60e51b815260206004820152602b60248201527f5374616b696e672076616c75652073686f756c64206265203e3d206d696e537460448201526a30b5b4b733ab30b63ab29760a91b60648201526084016108eb565b60008381526101076020526040902060018101546002820154611c60918591859190612949565b506101025460ff1615611cec5760fc54604051631eb714b160e31b8152600481018490526001600160a01b03858116602483015287811660448301529091169063f5b8a588906064016020604051808303816000875af1158015611cc8573d6000803e3d6000fd5b505050506040513d601f19601f82011682018060405250810190610d7d919061349e565b5050505050565b6001600160a01b038116600090815261010560209081526040808320805482518185028101850190935280835290928492918491830182828015611d5657602002820191906000526020600020905b815481526020019060010190808311611d42575b505083519394506000925050505b81811015610e7057611d81838281518110610e2557610e256133d7565b60c00151611d8f90866133c4565b945080611d9b816133ed565b915050611d64565b611dab61232c565b610100805461ffff191660ff909216919091179055565b6040805160608082018352808252602080830182905260008385018190526001600160a01b03861681526101058252849020845181549283028101608090810190965292830182815293949293909284928491840182828015611e4457602002820191906000526020600020905b815481526020019060010190808311611e30575b5050505050815260200160018201805480602002602001604051908101604052809291908181526020018280548015611e9c57602002820191906000526020600020905b815481526020019060010190808311611e88575b50505091835250506002919091015460ff16151560209091015292915050565b6060600060fd805480602002602001604051908101604052809291908181526020018280548015611f1657602002820191906000526020600020905b81546001600160a01b03168152600190910190602001808311611ef8575b5050505050905060008151905060008167ffffffffffffffff811115611f3e57611f3e612fe2565b604051908082528060200260200182016040528015611f67578160200160208202803683370190505b5090506000805b838110156116e557611f9983868381518110611f8c57611f8c6133d7565b60200260200101516124c5565b1515600114611ff457848181518110611fb457611fb46133d7565b6020026020010151838381518110611fce57611fce6133d7565b6001600160a01b039092166020928302919091019091015281611ff0816133ed565b9250505b80611ffe816133ed565b915050611f6e565b600061201061232c565b5060fc80546001600160a01b0319166001600160a01b0392909216918217905590565b600061203d61232c565b5061010181905590565b60008181526101066020526040812060048101546003820154429291849161206f91906133c4565b9050808310156120a157828260040154836003015461208e91906133c4565b61209891906134da565b95945050505050565b506000949350505050565b6060600060fd80548060200260200160405190810160405280929190818152602001828054801561210657602002820191906000526020600020905b81546001600160a01b031681526001909101906020018083116120e8575b5050505050905060008151905060008167ffffffffffffffff81111561212e5761212e612fe2565b604051908082528060200260200182016040528015612157578160200160208202803683370190505b5090506000805b838110156116e55761217c83868381518110611f8c57611f8c6133d7565b15156001146121fe576121a785828151811061219a5761219a6133d7565b6020026020010151611455565b156121fe578481815181106121be576121be6133d7565b60200260200101518383815181106121d8576121d86133d7565b6001600160a01b0390921660209283029190910190910152816121fa816133ed565b9250505b80612208816133ed565b91505061215e565b61221861232c565b6001600160a01b03811661227d5760405162461bcd60e51b815260206004820152602660248201527f4f776e61626c653a206e6577206f776e657220697320746865207a65726f206160448201526564647265737360d01b60648201526084016108eb565b610d03816127ef565b61228e61232c565b610d7d86868080602002602001604051908101604052809392919081815260200183836020028082843760009201919091525050604080516020808a0282810182019093528982529093508992508891829185019084908082843760009201919091525050604080516020808902828101820190935288825290935088925087918291850190849080828437600092019190915250612aa092505050565b6065546001600160a01b03163314610d955760405162461bcd60e51b815260206004820181905260248201527f4f776e61626c653a2063616c6c6572206973206e6f7420746865206f776e657260448201526064016108eb565b600081815261010660205260408120600381015442919083906123a990846134da565b6004830154610100546002850154600186015493945060009361ffff909216916123d391906134ed565b6123dd9190613504565b6123e79190613504565b905082600501546123fc838560040154612bb1565b61240690836134ed565b61241091906134da565b9695505050505050565b60008285600501600082825461243091906133c4565b909155505042600686015560078501805460018181018355600092835260208084209092018590558681018054918201815583529082200183905560ff805485929061247d9084906133c4565b9091555050604051869084906001600160a01b038a16907fd6ab86e55e7211dddcda4c7c65e9e1c75f06b5da6b05222f8cd39b93986fecad90600090a4509095945050505050565b6000805b835181101561252057826001600160a01b03168482815181106124ee576124ee6133d7565b60200260200101516001600160a01b03160361250e576001915050610c21565b80612518816133ed565b9150506124c9565b5060009392505050565b610d0361232c565b7f4910fdfa16fed3260ed0e7147f7cc6da11a60208b5b9406d12a635614ffd91435460ff161561256a5761256583612bc7565b505050565b826001600160a01b03166352d1902d6040518163ffffffff1660e01b8152600401602060405180830381865afa9250505080156125c4575060408051601f3d908101601f191682019092526125c191810190613526565b60015b6126275760405162461bcd60e51b815260206004820152602e60248201527f45524331393637557067726164653a206e657720696d706c656d656e7461746960448201526d6f6e206973206e6f74205555505360901b60648201526084016108eb565b6000805160206135fe83398151915281146126965760405162461bcd60e51b815260206004820152602960248201527f45524331393637557067726164653a20756e737570706f727465642070726f786044820152681a58589b195555525160ba1b60648201526084016108eb565b50612565838383612c63565b6126aa612c8e565b6033805460ff191690557f5db9ee0a495bf2e6ff9c91a7834c1ba4fdd244a5e8aa4e537bd38aeae4b073aa335b6040516001600160a01b03909116815260200160405180910390a1565b61271860405180606001604052806000815260200160008152602001600081525090565b5060009081526101076020908152604091829020825160608101845281548152600182015492810192909252600201549181019190915290565b825460ff1916835560078301805460018181018355600092835260208084209092018490558481018054808301825590845291832090910183905584015460fe805483906127a19084906134da565b909155505060018401546040518691906001600160a01b038916907ff960dbf9e5d0682f7a298ed974e33a28b4464914b7a2bfac12ae419a9afeb28090600090a45050506001015492915050565b606580546001600160a01b038381166001600160a01b0319831681179093556040519116919082907f8be0079c531659141344cd1fd0a4f28419497f9722a3daafe3b4186f6b6457e090600090a35050565b600054610100900460ff166128685760405162461bcd60e51b81526004016108eb9061353f565b610d95612cd7565b600054610100900460ff166128975760405162461bcd60e51b81526004016108eb9061353f565b610d95612d0a565b600054610100900460ff16610d955760405162461bcd60e51b81526004016108eb9061353f565b6128ce612903565b6033805460ff191660011790557f62e78cea01bee320cd4e420270b5ea74000d11b0c9f74754ebdbfc544b05a2586126d73390565b60335460ff1615610d955760405162461bcd60e51b815260206004820152601060248201526f14185d5cd8589b194e881c185d5cd95960821b60448201526064016108eb565b60fd8054600180820183557f9346ac6dd7de6b96975fec380d4d994c4c12e6a8897544f22915316cc6cca28090910180546001600160a01b0319166001600160a01b0388169081179091559154600083815261010560209081526040808320848452610106835290832081548087018355828552838520018590558186018054808801825590855283852043910181905581546001600160a81b03191661010090980297909717861781554260038201819055600482018990558187018b9055600282018a90556007820180549788018155855292842090950186905560fe8054939694959294939192918a91908890612a449084906133c4565b9250508190555086898b6001600160a01b03167ff556991011e831bcfac4f406d547e5e32cdd98267efab83935230d5f8d02c44688604051612a8891815260200190565b60405180910390a45060019998505050505050505050565b82516101045460ff16811115612af85760405162461bcd60e51b815260206004820152601860248201527f457863656564696e67207061636b616765206c656e677468000000000000000060448201526064016108eb565b60005b81811015611cec57848181518110612b1557612b156133d7565b6020026020010151610107600083815260200190815260200160002060000181905550838181518110612b4a57612b4a6133d7565b6020026020010151610107600083815260200190815260200160002060010181905550828181518110612b7f57612b7f6133d7565b602090810291909101810151600083815261010790925260409091206002015580612ba9816133ed565b915050612afb565b6000818310612bc0578161144e565b5090919050565b6001600160a01b0381163b612c345760405162461bcd60e51b815260206004820152602d60248201527f455243313936373a206e657720696d706c656d656e746174696f6e206973206e60448201526c1bdd08184818dbdb9d1c9858dd609a1b60648201526084016108eb565b6000805160206135fe83398151915280546001600160a01b0319166001600160a01b0392909216919091179055565b612c6c83612d3a565b600082511180612c795750805b1561256557612c888383612d7a565b50505050565b60335460ff16610d955760405162461bcd60e51b815260206004820152601460248201527314185d5cd8589b194e881b9bdd081c185d5cd95960621b60448201526064016108eb565b600054610100900460ff16612cfe5760405162461bcd60e51b81526004016108eb9061353f565b6033805460ff19169055565b600054610100900460ff16612d315760405162461bcd60e51b81526004016108eb9061353f565b610d95336127ef565b612d4381612bc7565b6040516001600160a01b038216907fbc7cd75a20ee27fd9adebab32041f755214dbc6bffa90cc0225b39da2e5c2d3b90600090a250565b60606001600160a01b0383163b612de25760405162461bcd60e51b815260206004820152602660248201527f416464726573733a2064656c65676174652063616c6c20746f206e6f6e2d636f6044820152651b9d1c9858dd60d21b60648201526084016108eb565b600080846001600160a01b031684604051612dfd91906135ae565b600060405180830381855af49150503d8060008114612e38576040519150601f19603f3d011682016040523d82523d6000602084013e612e3d565b606091505b5091509150612098828260405180606001604052806027815260200161361e6027913960608315612e6f57508161144e565b61144e8383815115612e845781518083602001fd5b8060405162461bcd60e51b81526004016108eb91906135ca565b80356001600160a01b038116811461089e57600080fd5b600060208284031215612ec757600080fd5b61144e82612e9e565b600060208284031215612ee257600080fd5b5035919050565b6020808252825182820181905260009190848201906040850190845b81811015610bcf5783516001600160a01b031683529284019291840191600101612f05565b60008060408385031215612f3d57600080fd5b612f4683612e9e565b946020939093013593505050565b60008083601f840112612f6657600080fd5b50813567ffffffffffffffff811115612f7e57600080fd5b6020830191508360208260051b8501011115612f9957600080fd5b9250929050565b60008060208385031215612fb357600080fd5b823567ffffffffffffffff811115612fca57600080fd5b612fd685828601612f54565b90969095509350505050565b634e487b7160e01b600052604160045260246000fd5b6000806040838503121561300b57600080fd5b61301483612e9e565b9150602083013567ffffffffffffffff8082111561303157600080fd5b818501915085601f83011261304557600080fd5b81358181111561305757613057612fe2565b604051601f8201601f19908116603f0116810190838211818310171561307f5761307f612fe2565b8160405282815288602084870101111561309857600080fd5b8260208601602083013760006020848301015280955050505050509250929050565b600081518084526020808501945080840160005b838110156130ea578151875295820195908201906001016130ce565b509495945050505050565b60808152600061310860808301876130ba565b828103602084015261311a81876130ba565b9050828103604084015261312e81866130ba565b91505082606083015295945050505050565b60008060006060848603121561315557600080fd5b61315e84612e9e565b925061316c60208501612e9e565b9150604084013590509250925092565b60208152600061144e60208301846130ba565b6000602082840312156131a157600080fd5b813560ff8116811461144e57600080fd5b8015158114610d0357600080fd5b6000602082840312156131d257600080fd5b813561144e816131b2565b602081526131f060208201835115159052565b6000602083015161320c60408401826001600160a01b03169052565b506040830151606083015260608301516080830152608083015160a083015260a083015160c083015260c083015160e083015260e083015161010081818501528085015191505061012080818501525061326a6101408401826130ba565b949350505050565b60208152600082516060602084015261328e60808401826130ba565b90506020840151601f198483030160408501526132ab82826130ba565b9150506040840151151560608401528091505092915050565b600080600080600080606087890312156132dd57600080fd5b863567ffffffffffffffff808211156132f557600080fd5b6133018a838b01612f54565b9098509650602089013591508082111561331a57600080fd5b6133268a838b01612f54565b9096509450604089013591508082111561333f57600080fd5b5061334c89828a01612f54565b979a9699509497509295939492505050565b60208082526030908201527f596f7572206163636f756e742069732064697361626c65642e20506c6561736560408201526f1031b7b73a3930b1ba1030b236b4b71760811b606082015260800190565b634e487b7160e01b600052601160045260246000fd5b80820180821115610c2157610c216133ae565b634e487b7160e01b600052603260045260246000fd5b6000600182016133ff576133ff6133ae565b5060010190565b6020808252602c908201527f46756e6374696f6e206d7573742062652063616c6c6564207468726f7567682060408201526b19195b1959d85d1958d85b1b60a21b606082015260800190565b6020808252602c908201527f46756e6374696f6e206d7573742062652063616c6c6564207468726f7567682060408201526b6163746976652070726f787960a01b606082015260800190565b6000602082840312156134b057600080fd5b815161144e816131b2565b600060ff821660ff81036134d1576134d16133ae565b60010192915050565b81810381811115610c2157610c216133ae565b8082028115828204841417610c2157610c216133ae565b60008261352157634e487b7160e01b600052601260045260246000fd5b500490565b60006020828403121561353857600080fd5b5051919050565b6020808252602b908201527f496e697469616c697a61626c653a20636f6e7472616374206973206e6f74206960408201526a6e697469616c697a696e6760a81b606082015260800190565b60005b838110156135a557818101518382015260200161358d565b50506000910152565b600082516135c081846020870161358a565b9190910192915050565b60208152600082518060208401526135e981604085016020870161358a565b601f01601f1916919091016040019291505056fe360894a13ba1a3210667c828492db98dca3e2076cc3735a920a3ca505d382bbc416464726573733a206c6f772d6c6576656c2064656c65676174652063616c6c206661696c6564a5baec7d73105a3c7298203bb205bbc41b63fa384ae73a6016b890a7ca29ae2da26469706673582212209d7b7a4b7b9aad9222fd946220520da24cfe071f6121f395a3ca8cca80b1eff964736f6c63430008110033","opcodes":"PUSH1 0xA0 PUSH1 0x40 MSTORE ADDRESS PUSH1 0x80 MSTORE CALLVALUE DUP1 ISZERO PUSH2 0x14 JUMPI PUSH1 0x0 DUP1 REVERT JUMPDEST POP PUSH1 0x80 MLOAD PUSH2 0x369A PUSH2 0x4C PUSH1 0x0 CODECOPY PUSH1 0x0 DUP2 DUP2 PUSH2 0xC31 ADD MSTORE DUP2 DUP2 PUSH2 0xC71 ADD MSTORE DUP2 DUP2 PUSH2 0xE83 ADD MSTORE DUP2 DUP2 PUSH2 0xEC3 ADD MSTORE PUSH2 0xF56 ADD MSTORE PUSH2 0x369A PUSH1 0x0 RETURN INVALID PUSH1 0x80 PUSH1 0x40 MSTORE PUSH1 0x4 CALLDATASIZE LT PUSH2 0x281 JUMPI PUSH1 0x0 CALLDATALOAD PUSH1 0xE0 SHR DUP1 PUSH4 0x8456CB59 GT PUSH2 0x14F JUMPI DUP1 PUSH4 0xAEB6263D GT PUSH2 0xC1 JUMPI DUP1 PUSH4 0xDBA4358C GT PUSH2 0x7A JUMPI DUP1 PUSH4 0xDBA4358C EQ PUSH2 0x797 JUMPI DUP1 PUSH4 0xDEEDE654 EQ PUSH2 0x7AC JUMPI DUP1 PUSH4 0xE3A51F58 EQ PUSH2 0x7C1 JUMPI DUP1 PUSH4 0xF1012B45 EQ PUSH2 0x816 JUMPI DUP1 PUSH4 0xF2FDE38B EQ PUSH2 0x834 JUMPI DUP1 PUSH4 0xFC57E69B EQ PUSH2 0x854 JUMPI PUSH1 0x0 DUP1 REVERT JUMPDEST DUP1 PUSH4 0xAEB6263D EQ PUSH2 0x6D5 JUMPI DUP1 PUSH4 0xBA4F678E EQ PUSH2 0x6F5 JUMPI DUP1 PUSH4 0xC06A5388 EQ PUSH2 0x722 JUMPI DUP1 PUSH4 0xD3460D8A EQ PUSH2 0x737 JUMPI DUP1 PUSH4 0xD596FE7F EQ PUSH2 0x757 JUMPI DUP1 PUSH4 0xD8BA90B7 EQ PUSH2 0x777 JUMPI PUSH1 0x0 DUP1 REVERT JUMPDEST DUP1 PUSH4 0x9D3610DC GT PUSH2 0x113 JUMPI DUP1 PUSH4 0x9D3610DC EQ PUSH2 0x5F8 JUMPI DUP1 PUSH4 0xA40B5891 EQ PUSH2 0x618 JUMPI DUP1 PUSH4 0xA7566B75 EQ PUSH2 0x655 JUMPI DUP1 PUSH4 0xABFE35AD EQ PUSH2 0x682 JUMPI DUP1 PUSH4 0xADC9772E EQ PUSH2 0x6A2 JUMPI DUP1 PUSH4 0xAE3132E8 EQ PUSH2 0x6B5 JUMPI PUSH1 0x0 DUP1 REVERT JUMPDEST DUP1 PUSH4 0x8456CB59 EQ PUSH2 0x565 JUMPI DUP1 PUSH4 0x88ED4F91 EQ PUSH2 0x57A JUMPI DUP1 PUSH4 0x8DA5CB5B EQ PUSH2 0x59A JUMPI DUP1 PUSH4 0x97EEE060 EQ PUSH2 0x5B8 JUMPI DUP1 PUSH4 0x9C3FE28A EQ PUSH2 0x5D8 JUMPI PUSH1 0x0 DUP1 REVERT JUMPDEST DUP1 PUSH4 0x53BDADEA GT PUSH2 0x1F3 JUMPI DUP1 PUSH4 0x6177FD18 GT PUSH2 0x1AC JUMPI DUP1 PUSH4 0x6177FD18 EQ PUSH2 0x4C4 JUMPI DUP1 PUSH4 0x6F51B20B EQ PUSH2 0x4E4 JUMPI DUP1 PUSH4 0x6F72693B EQ PUSH2 0x511 JUMPI DUP1 PUSH4 0x715018A6 EQ PUSH2 0x526 JUMPI DUP1 PUSH4 0x7CE574BF EQ PUSH2 0x53B JUMPI DUP1 PUSH4 0x8129FC1C EQ PUSH2 0x550 JUMPI PUSH1 0x0 DUP1 REVERT JUMPDEST DUP1 PUSH4 0x53BDADEA EQ PUSH2 0x407 JUMPI DUP1 PUSH4 0x58628D57 EQ PUSH2 0x427 JUMPI DUP1 PUSH4 0x5C05A89F EQ PUSH2 0x447 JUMPI DUP1 PUSH4 0x5C975ABB EQ PUSH2 0x46C JUMPI DUP1 PUSH4 0x5D3EEA91 EQ PUSH2 0x484 JUMPI DUP1 PUSH4 0x5E35359E EQ PUSH2 0x4A4 JUMPI PUSH1 0x0 DUP1 REVERT JUMPDEST DUP1 PUSH4 0x3659CFE6 GT PUSH2 0x245 JUMPI DUP1 PUSH4 0x3659CFE6 EQ PUSH2 0x35C JUMPI DUP1 PUSH4 0x3B09098F EQ PUSH2 0x37C JUMPI DUP1 PUSH4 0x3F4BA83A EQ PUSH2 0x39C JUMPI DUP1 PUSH4 0x469BBC12 EQ PUSH2 0x3B1 JUMPI DUP1 PUSH4 0x4F1EF286 EQ PUSH2 0x3DF JUMPI DUP1 PUSH4 0x52D1902D EQ PUSH2 0x3F2 JUMPI PUSH1 0x0 DUP1 REVERT JUMPDEST DUP1 PUSH4 0x1124F7DD EQ PUSH2 0x28D JUMPI DUP1 PUSH4 0x23442C60 EQ PUSH2 0x2CA JUMPI DUP1 PUSH4 0x239CD4A4 EQ PUSH2 0x2E8 JUMPI DUP1 PUSH4 0x260CB4E9 EQ PUSH2 0x30A JUMPI DUP1 PUSH4 0x26792ACA EQ PUSH2 0x32C JUMPI PUSH1 0x0 DUP1 REVERT JUMPDEST CALLDATASIZE PUSH2 0x288 JUMPI STOP JUMPDEST PUSH1 0x0 DUP1 REVERT JUMPDEST CALLVALUE DUP1 ISZERO PUSH2 0x299 JUMPI PUSH1 0x0 DUP1 REVERT JUMPDEST POP PUSH2 0x2AD PUSH2 0x2A8 CALLDATASIZE PUSH1 0x4 PUSH2 0x2EB5 JUMP JUMPDEST PUSH2 0x874 JUMP JUMPDEST PUSH1 0x40 MLOAD PUSH1 0x1 PUSH1 0x1 PUSH1 0xA0 SHL SUB SWAP1 SWAP2 AND DUP2 MSTORE PUSH1 0x20 ADD JUMPDEST PUSH1 0x40 MLOAD DUP1 SWAP2 SUB SWAP1 RETURN JUMPDEST CALLVALUE DUP1 ISZERO PUSH2 0x2D6 JUMPI PUSH1 0x0 DUP1 REVERT JUMPDEST POP PUSH1 0xFC SLOAD PUSH1 0x1 PUSH1 0x1 PUSH1 0xA0 SHL SUB AND PUSH2 0x2AD JUMP JUMPDEST CALLVALUE DUP1 ISZERO PUSH2 0x2F4 JUMPI PUSH1 0x0 DUP1 REVERT JUMPDEST POP PUSH2 0x308 PUSH2 0x303 CALLDATASIZE PUSH1 0x4 PUSH2 0x2ED0 JUMP JUMPDEST PUSH2 0x8A3 JUMP JUMPDEST STOP JUMPDEST CALLVALUE DUP1 ISZERO PUSH2 0x316 JUMPI PUSH1 0x0 DUP1 REVERT JUMPDEST POP PUSH2 0x31F PUSH2 0xA71 JUMP JUMPDEST PUSH1 0x40 MLOAD PUSH2 0x2C1 SWAP2 SWAP1 PUSH2 0x2EE9 JUMP JUMPDEST CALLVALUE DUP1 ISZERO PUSH2 0x338 JUMPI PUSH1 0x0 DUP1 REVERT JUMPDEST POP PUSH2 0x34C PUSH2 0x347 CALLDATASIZE PUSH1 0x4 PUSH2 0x2F2A JUMP JUMPDEST PUSH2 0xBDB JUMP JUMPDEST PUSH1 0x40 MLOAD SWAP1 ISZERO ISZERO DUP2 MSTORE PUSH1 0x20 ADD PUSH2 0x2C1 JUMP JUMPDEST CALLVALUE DUP1 ISZERO PUSH2 0x368 JUMPI PUSH1 0x0 DUP1 REVERT JUMPDEST POP PUSH2 0x308 PUSH2 0x377 CALLDATASIZE PUSH1 0x4 PUSH2 0x2EB5 JUMP JUMPDEST PUSH2 0xC27 JUMP JUMPDEST CALLVALUE DUP1 ISZERO PUSH2 0x388 JUMPI PUSH1 0x0 DUP1 REVERT JUMPDEST POP PUSH2 0x308 PUSH2 0x397 CALLDATASIZE PUSH1 0x4 PUSH2 0x2FA0 JUMP JUMPDEST PUSH2 0xD06 JUMP JUMPDEST CALLVALUE DUP1 ISZERO PUSH2 0x3A8 JUMPI PUSH1 0x0 DUP1 REVERT JUMPDEST POP PUSH2 0x308 PUSH2 0xD85 JUMP JUMPDEST CALLVALUE DUP1 ISZERO PUSH2 0x3BD JUMPI PUSH1 0x0 DUP1 REVERT JUMPDEST POP PUSH2 0x3D1 PUSH2 0x3CC CALLDATASIZE PUSH1 0x4 PUSH2 0x2EB5 JUMP JUMPDEST PUSH2 0xD97 JUMP JUMPDEST PUSH1 0x40 MLOAD SWAP1 DUP2 MSTORE PUSH1 0x20 ADD PUSH2 0x2C1 JUMP JUMPDEST PUSH2 0x308 PUSH2 0x3ED CALLDATASIZE PUSH1 0x4 PUSH2 0x2FF8 JUMP JUMPDEST PUSH2 0xE79 JUMP JUMPDEST CALLVALUE DUP1 ISZERO PUSH2 0x3FE JUMPI PUSH1 0x0 DUP1 REVERT JUMPDEST POP PUSH2 0x3D1 PUSH2 0xF49 JUMP JUMPDEST CALLVALUE DUP1 ISZERO PUSH2 0x413 JUMPI PUSH1 0x0 DUP1 REVERT JUMPDEST POP PUSH2 0x308 PUSH2 0x422 CALLDATASIZE PUSH1 0x4 PUSH2 0x2FA0 JUMP JUMPDEST PUSH2 0xFFC JUMP JUMPDEST CALLVALUE DUP1 ISZERO PUSH2 0x433 JUMPI PUSH1 0x0 DUP1 REVERT JUMPDEST POP PUSH2 0x308 PUSH2 0x442 CALLDATASIZE PUSH1 0x4 PUSH2 0x2ED0 JUMP JUMPDEST PUSH2 0x1070 JUMP JUMPDEST CALLVALUE DUP1 ISZERO PUSH2 0x453 JUMPI PUSH1 0x0 DUP1 REVERT JUMPDEST POP PUSH2 0x45C PUSH2 0x107E JUMP JUMPDEST PUSH1 0x40 MLOAD PUSH2 0x2C1 SWAP5 SWAP4 SWAP3 SWAP2 SWAP1 PUSH2 0x30F5 JUMP JUMPDEST CALLVALUE DUP1 ISZERO PUSH2 0x478 JUMPI PUSH1 0x0 DUP1 REVERT JUMPDEST POP PUSH1 0x33 SLOAD PUSH1 0xFF AND PUSH2 0x34C JUMP JUMPDEST CALLVALUE DUP1 ISZERO PUSH2 0x490 JUMPI PUSH1 0x0 DUP1 REVERT JUMPDEST POP PUSH2 0x308 PUSH2 0x49F CALLDATASIZE PUSH1 0x4 PUSH2 0x2ED0 JUMP JUMPDEST PUSH2 0x1232 JUMP JUMPDEST CALLVALUE DUP1 ISZERO PUSH2 0x4B0 JUMPI PUSH1 0x0 DUP1 REVERT JUMPDEST POP PUSH2 0x34C PUSH2 0x4BF CALLDATASIZE PUSH1 0x4 PUSH2 0x3140 JUMP JUMPDEST PUSH2 0x13CB JUMP JUMPDEST CALLVALUE DUP1 ISZERO PUSH2 0x4D0 JUMPI PUSH1 0x0 DUP1 REVERT JUMPDEST POP PUSH2 0x34C PUSH2 0x4DF CALLDATASIZE PUSH1 0x4 PUSH2 0x2EB5 JUMP JUMPDEST PUSH2 0x1455 JUMP JUMPDEST CALLVALUE DUP1 ISZERO PUSH2 0x4F0 JUMPI PUSH1 0x0 DUP1 REVERT JUMPDEST POP PUSH2 0x504 PUSH2 0x4FF CALLDATASIZE PUSH1 0x4 PUSH2 0x2EB5 JUMP JUMPDEST PUSH2 0x1513 JUMP JUMPDEST PUSH1 0x40 MLOAD PUSH2 0x2C1 SWAP2 SWAP1 PUSH2 0x317C JUMP JUMPDEST CALLVALUE DUP1 ISZERO PUSH2 0x51D JUMPI PUSH1 0x0 DUP1 REVERT JUMPDEST POP PUSH2 0x504 PUSH2 0x1580 JUMP JUMPDEST CALLVALUE DUP1 ISZERO PUSH2 0x532 JUMPI PUSH1 0x0 DUP1 REVERT JUMPDEST POP PUSH2 0x308 PUSH2 0x16EF JUMP JUMPDEST CALLVALUE DUP1 ISZERO PUSH2 0x547 JUMPI PUSH1 0x0 DUP1 REVERT JUMPDEST POP PUSH1 0xFF SLOAD PUSH2 0x3D1 JUMP JUMPDEST CALLVALUE DUP1 ISZERO PUSH2 0x55C JUMPI PUSH1 0x0 DUP1 REVERT JUMPDEST POP PUSH2 0x308 PUSH2 0x1701 JUMP JUMPDEST CALLVALUE DUP1 ISZERO PUSH2 0x571 JUMPI PUSH1 0x0 DUP1 REVERT JUMPDEST POP PUSH2 0x308 PUSH2 0x18AB JUMP JUMPDEST CALLVALUE DUP1 ISZERO PUSH2 0x586 JUMPI PUSH1 0x0 DUP1 REVERT JUMPDEST POP PUSH2 0x308 PUSH2 0x595 CALLDATASIZE PUSH1 0x4 PUSH2 0x2FA0 JUMP JUMPDEST PUSH2 0x18BB JUMP JUMPDEST CALLVALUE DUP1 ISZERO PUSH2 0x5A6 JUMPI PUSH1 0x0 DUP1 REVERT JUMPDEST POP PUSH1 0x65 SLOAD PUSH1 0x1 PUSH1 0x1 PUSH1 0xA0 SHL SUB AND PUSH2 0x2AD JUMP JUMPDEST CALLVALUE DUP1 ISZERO PUSH2 0x5C4 JUMPI PUSH1 0x0 DUP1 REVERT JUMPDEST POP PUSH2 0x308 PUSH2 0x5D3 CALLDATASIZE PUSH1 0x4 PUSH2 0x318F JUMP JUMPDEST PUSH2 0x1963 JUMP JUMPDEST CALLVALUE DUP1 ISZERO PUSH2 0x5E4 JUMPI PUSH1 0x0 DUP1 REVERT JUMPDEST POP PUSH2 0x3D1 PUSH2 0x5F3 CALLDATASIZE PUSH1 0x4 PUSH2 0x2EB5 JUMP JUMPDEST PUSH2 0x1982 JUMP JUMPDEST CALLVALUE DUP1 ISZERO PUSH2 0x604 JUMPI PUSH1 0x0 DUP1 REVERT JUMPDEST POP PUSH2 0x34C PUSH2 0x613 CALLDATASIZE PUSH1 0x4 PUSH2 0x31C0 JUMP JUMPDEST PUSH2 0x1A6B JUMP JUMPDEST CALLVALUE DUP1 ISZERO PUSH2 0x624 JUMPI PUSH1 0x0 DUP1 REVERT JUMPDEST POP PUSH2 0x34C PUSH2 0x633 CALLDATASIZE PUSH1 0x4 PUSH2 0x2EB5 JUMP JUMPDEST PUSH1 0x1 PUSH1 0x1 PUSH1 0xA0 SHL SUB AND PUSH1 0x0 SWAP1 DUP2 MSTORE PUSH2 0x105 PUSH1 0x20 MSTORE PUSH1 0x40 SWAP1 KECCAK256 PUSH1 0x2 ADD SLOAD PUSH1 0xFF AND SWAP1 JUMP JUMPDEST CALLVALUE DUP1 ISZERO PUSH2 0x661 JUMPI PUSH1 0x0 DUP1 REVERT JUMPDEST POP PUSH2 0x675 PUSH2 0x670 CALLDATASIZE PUSH1 0x4 PUSH2 0x2ED0 JUMP JUMPDEST PUSH2 0x1A8D JUMP JUMPDEST PUSH1 0x40 MLOAD PUSH2 0x2C1 SWAP2 SWAP1 PUSH2 0x31DD JUMP JUMPDEST CALLVALUE DUP1 ISZERO PUSH2 0x68E JUMPI PUSH1 0x0 DUP1 REVERT JUMPDEST POP PUSH2 0x3D1 PUSH2 0x69D CALLDATASIZE PUSH1 0x4 PUSH2 0x2ED0 JUMP JUMPDEST PUSH2 0x1BBB JUMP JUMPDEST PUSH2 0x308 PUSH2 0x6B0 CALLDATASIZE PUSH1 0x4 PUSH2 0x2F2A JUMP JUMPDEST PUSH2 0x1BC6 JUMP JUMPDEST CALLVALUE DUP1 ISZERO PUSH2 0x6C1 JUMPI PUSH1 0x0 DUP1 REVERT JUMPDEST POP PUSH2 0x3D1 PUSH2 0x6D0 CALLDATASIZE PUSH1 0x4 PUSH2 0x2EB5 JUMP JUMPDEST PUSH2 0x1CF3 JUMP JUMPDEST CALLVALUE DUP1 ISZERO PUSH2 0x6E1 JUMPI PUSH1 0x0 DUP1 REVERT JUMPDEST POP PUSH2 0x308 PUSH2 0x6F0 CALLDATASIZE PUSH1 0x4 PUSH2 0x318F JUMP JUMPDEST PUSH2 0x1DA3 JUMP JUMPDEST CALLVALUE DUP1 ISZERO PUSH2 0x701 JUMPI PUSH1 0x0 DUP1 REVERT JUMPDEST POP PUSH2 0x715 PUSH2 0x710 CALLDATASIZE PUSH1 0x4 PUSH2 0x2EB5 JUMP JUMPDEST PUSH2 0x1DC2 JUMP JUMPDEST PUSH1 0x40 MLOAD PUSH2 0x2C1 SWAP2 SWAP1 PUSH2 0x3272 JUMP JUMPDEST CALLVALUE DUP1 ISZERO PUSH2 0x72E JUMPI PUSH1 0x0 DUP1 REVERT JUMPDEST POP PUSH2 0x31F PUSH2 0x1EBC JUMP JUMPDEST CALLVALUE DUP1 ISZERO PUSH2 0x743 JUMPI PUSH1 0x0 DUP1 REVERT JUMPDEST POP PUSH2 0x2AD PUSH2 0x752 CALLDATASIZE PUSH1 0x4 PUSH2 0x2EB5 JUMP JUMPDEST PUSH2 0x2006 JUMP JUMPDEST CALLVALUE DUP1 ISZERO PUSH2 0x763 JUMPI PUSH1 0x0 DUP1 REVERT JUMPDEST POP PUSH2 0x3D1 PUSH2 0x772 CALLDATASIZE PUSH1 0x4 PUSH2 0x2ED0 JUMP JUMPDEST PUSH2 0x2033 JUMP JUMPDEST CALLVALUE DUP1 ISZERO PUSH2 0x783 JUMPI PUSH1 0x0 DUP1 REVERT JUMPDEST POP PUSH2 0x3D1 PUSH2 0x792 CALLDATASIZE PUSH1 0x4 PUSH2 0x2ED0 JUMP JUMPDEST PUSH2 0x2047 JUMP JUMPDEST CALLVALUE DUP1 ISZERO PUSH2 0x7A3 JUMPI PUSH1 0x0 DUP1 REVERT JUMPDEST POP PUSH2 0x31F PUSH2 0x20AC JUMP JUMPDEST CALLVALUE DUP1 ISZERO PUSH2 0x7B8 JUMPI PUSH1 0x0 DUP1 REVERT JUMPDEST POP PUSH1 0xFE SLOAD PUSH2 0x3D1 JUMP JUMPDEST CALLVALUE DUP1 ISZERO PUSH2 0x7CD JUMPI PUSH1 0x0 DUP1 REVERT JUMPDEST POP PUSH2 0x101 SLOAD PUSH2 0x103 SLOAD PUSH2 0x102 SLOAD PUSH2 0x104 SLOAD PUSH2 0x100 SLOAD PUSH1 0x40 DUP1 MLOAD SWAP6 DUP7 MSTORE PUSH1 0x20 DUP7 ADD SWAP5 SWAP1 SWAP5 MSTORE PUSH1 0xFF SWAP3 DUP4 AND ISZERO ISZERO SWAP4 DUP6 ADD SWAP4 SWAP1 SWAP4 MSTORE AND PUSH1 0x60 DUP4 ADD MSTORE PUSH2 0xFFFF AND PUSH1 0x80 DUP3 ADD MSTORE PUSH1 0xA0 ADD PUSH2 0x2C1 JUMP JUMPDEST CALLVALUE DUP1 ISZERO PUSH2 0x822 JUMPI PUSH1 0x0 DUP1 REVERT JUMPDEST POP PUSH1 0xFB SLOAD PUSH1 0x1 PUSH1 0x1 PUSH1 0xA0 SHL SUB AND PUSH2 0x2AD JUMP JUMPDEST CALLVALUE DUP1 ISZERO PUSH2 0x840 JUMPI PUSH1 0x0 DUP1 REVERT JUMPDEST POP PUSH2 0x308 PUSH2 0x84F CALLDATASIZE PUSH1 0x4 PUSH2 0x2EB5 JUMP JUMPDEST PUSH2 0x2210 JUMP JUMPDEST CALLVALUE DUP1 ISZERO PUSH2 0x860 JUMPI PUSH1 0x0 DUP1 REVERT JUMPDEST POP PUSH2 0x308 PUSH2 0x86F CALLDATASIZE PUSH1 0x4 PUSH2 0x32C4 JUMP JUMPDEST PUSH2 0x2286 JUMP JUMPDEST PUSH1 0x0 PUSH2 0x87E PUSH2 0x232C JUMP JUMPDEST POP PUSH1 0xFB DUP1 SLOAD PUSH1 0x1 PUSH1 0x1 PUSH1 0xA0 SHL SUB NOT AND PUSH1 0x1 PUSH1 0x1 PUSH1 0xA0 SHL SUB DUP4 AND SWAP1 DUP2 OR SWAP1 SWAP2 SSTORE JUMPDEST SWAP2 SWAP1 POP JUMP JUMPDEST PUSH1 0x0 DUP2 DUP2 MSTORE PUSH2 0x106 PUSH1 0x20 SWAP1 DUP2 MSTORE PUSH1 0x40 DUP1 DUP4 KECCAK256 CALLER DUP1 DUP6 MSTORE PUSH2 0x105 SWAP1 SWAP4 MSTORE SWAP3 KECCAK256 PUSH1 0x2 DUP2 ADD SLOAD SWAP2 SWAP3 SWAP2 NUMBER SWAP1 PUSH1 0xFF AND ISZERO PUSH2 0x8F4 JUMPI PUSH1 0x40 MLOAD PUSH3 0x461BCD PUSH1 0xE5 SHL DUP2 MSTORE PUSH1 0x4 ADD PUSH2 0x8EB SWAP1 PUSH2 0x335E JUMP JUMPDEST PUSH1 0x40 MLOAD DUP1 SWAP2 SUB SWAP1 REVERT JUMPDEST DUP3 SLOAD PUSH1 0xFF AND ISZERO ISZERO PUSH1 0x1 EQ PUSH2 0x942 JUMPI PUSH1 0x40 MLOAD PUSH3 0x461BCD PUSH1 0xE5 SHL DUP2 MSTORE PUSH1 0x20 PUSH1 0x4 DUP3 ADD MSTORE PUSH1 0x15 PUSH1 0x24 DUP3 ADD MSTORE PUSH21 0x5374616B696E67206973206E6F7420616374697665 PUSH1 0x58 SHL PUSH1 0x44 DUP3 ADD MSTORE PUSH1 0x64 ADD PUSH2 0x8EB JUMP JUMPDEST DUP3 SLOAD PUSH1 0x1 PUSH1 0x1 PUSH1 0xA0 SHL SUB DUP6 DUP2 AND PUSH2 0x100 SWAP1 SWAP3 DIV AND EQ PUSH2 0x9A3 JUMPI PUSH1 0x40 MLOAD PUSH3 0x461BCD PUSH1 0xE5 SHL DUP2 MSTORE PUSH1 0x20 PUSH1 0x4 DUP3 ADD MSTORE PUSH1 0x17 PUSH1 0x24 DUP3 ADD MSTORE PUSH32 0x536F72727920796F7520617265206E6F74206F776E6572000000000000000000 PUSH1 0x44 DUP3 ADD MSTORE PUSH1 0x64 ADD PUSH2 0x8EB JUMP JUMPDEST TIMESTAMP PUSH2 0x103 SLOAD DUP5 PUSH1 0x6 ADD SLOAD PUSH2 0x9B7 SWAP2 SWAP1 PUSH2 0x33C4 JUMP JUMPDEST GT PUSH2 0xA1F JUMPI PUSH1 0x40 MLOAD PUSH3 0x461BCD PUSH1 0xE5 SHL DUP2 MSTORE PUSH1 0x20 PUSH1 0x4 DUP3 ADD MSTORE PUSH1 0x32 PUSH1 0x24 DUP3 ADD MSTORE PUSH32 0x596F7572206C6173742072657761726420636C61696D2074696D65206C696D69 PUSH1 0x44 DUP3 ADD MSTORE PUSH18 0x3A1034B9903737BA1037BB32B9103CB2BA17 PUSH1 0x71 SHL PUSH1 0x64 DUP3 ADD MSTORE PUSH1 0x84 ADD PUSH2 0x8EB JUMP JUMPDEST PUSH1 0x0 PUSH2 0xA2A DUP7 PUSH2 0x2386 JUMP JUMPDEST SWAP1 POP PUSH2 0xA3A DUP6 DUP8 DUP7 DUP7 DUP6 DUP8 PUSH2 0x241A JUMP JUMPDEST POP PUSH1 0x40 MLOAD CALLER SWAP1 DUP3 ISZERO PUSH2 0x8FC MUL SWAP1 DUP4 SWAP1 PUSH1 0x0 DUP2 DUP2 DUP2 DUP6 DUP9 DUP9 CALL SWAP4 POP POP POP POP ISZERO DUP1 ISZERO PUSH2 0xA68 JUMPI RETURNDATASIZE PUSH1 0x0 DUP1 RETURNDATACOPY RETURNDATASIZE PUSH1 0x0 REVERT JUMPDEST POP POP POP POP POP POP POP JUMP JUMPDEST PUSH1 0x0 DUP1 DUP1 MSTORE PUSH2 0x105 PUSH1 0x20 SWAP1 DUP2 MSTORE PUSH1 0xFD DUP1 SLOAD PUSH1 0x40 DUP1 MLOAD DUP3 DUP6 MUL DUP2 ADD DUP6 ADD SWAP1 SWAP2 MSTORE DUP2 DUP2 MSTORE PUSH1 0x60 SWAP5 SWAP4 PUSH1 0x0 DUP1 MLOAD PUSH1 0x20 PUSH2 0x3645 DUP4 CODECOPY DUP2 MLOAD SWAP2 MSTORE SWAP4 DUP6 SWAP4 SWAP1 SWAP2 DUP4 ADD DUP3 DUP3 DUP1 ISZERO PUSH2 0xAE4 JUMPI PUSH1 0x20 MUL DUP3 ADD SWAP2 SWAP1 PUSH1 0x0 MSTORE PUSH1 0x20 PUSH1 0x0 KECCAK256 SWAP1 JUMPDEST DUP2 SLOAD PUSH1 0x1 PUSH1 0x1 PUSH1 0xA0 SHL SUB AND DUP2 MSTORE PUSH1 0x1 SWAP1 SWAP2 ADD SWAP1 PUSH1 0x20 ADD DUP1 DUP4 GT PUSH2 0xAC6 JUMPI JUMPDEST POP POP POP POP POP SWAP1 POP PUSH1 0x0 DUP2 MLOAD SWAP1 POP PUSH1 0x0 DUP2 PUSH8 0xFFFFFFFFFFFFFFFF DUP2 GT ISZERO PUSH2 0xB0C JUMPI PUSH2 0xB0C PUSH2 0x2FE2 JUMP JUMPDEST PUSH1 0x40 MLOAD SWAP1 DUP1 DUP3 MSTORE DUP1 PUSH1 0x20 MUL PUSH1 0x20 ADD DUP3 ADD PUSH1 0x40 MSTORE DUP1 ISZERO PUSH2 0xB35 JUMPI DUP2 PUSH1 0x20 ADD PUSH1 0x20 DUP3 MUL DUP1 CALLDATASIZE DUP4 CALLDATACOPY ADD SWAP1 POP JUMPDEST POP SWAP1 POP PUSH1 0x0 DUP1 JUMPDEST DUP4 DUP2 LT ISZERO PUSH2 0xBCF JUMPI DUP5 DUP2 DUP2 MLOAD DUP2 LT PUSH2 0xB56 JUMPI PUSH2 0xB56 PUSH2 0x33D7 JUMP JUMPDEST PUSH1 0x20 MUL PUSH1 0x20 ADD ADD MLOAD SWAP7 POP PUSH2 0xB6A DUP4 DUP9 PUSH2 0x24C5 JUMP JUMPDEST ISZERO ISZERO PUSH1 0x1 EQ PUSH2 0xBBD JUMPI PUSH1 0x2 DUP7 ADD SLOAD PUSH1 0xFF AND ISZERO ISZERO PUSH1 0x1 SUB PUSH2 0xBBD JUMPI DUP7 DUP4 DUP4 DUP2 MLOAD DUP2 LT PUSH2 0xB97 JUMPI PUSH2 0xB97 PUSH2 0x33D7 JUMP JUMPDEST PUSH1 0x1 PUSH1 0x1 PUSH1 0xA0 SHL SUB SWAP1 SWAP3 AND PUSH1 0x20 SWAP3 DUP4 MUL SWAP2 SWAP1 SWAP2 ADD SWAP1 SWAP2 ADD MSTORE DUP2 PUSH2 0xBB9 DUP2 PUSH2 0x33ED JUMP JUMPDEST SWAP3 POP POP JUMPDEST DUP1 PUSH2 0xBC7 DUP2 PUSH2 0x33ED JUMP JUMPDEST SWAP2 POP POP PUSH2 0xB3C JUMP JUMPDEST POP SWAP1 SWAP7 SWAP6 POP POP POP POP POP POP JUMP JUMPDEST PUSH1 0x0 PUSH2 0xBE5 PUSH2 0x232C JUMP JUMPDEST PUSH1 0x40 MLOAD PUSH1 0x1 PUSH1 0x1 PUSH1 0xA0 SHL SUB DUP5 AND SWAP1 DUP4 ISZERO PUSH2 0x8FC MUL SWAP1 DUP5 SWAP1 PUSH1 0x0 DUP2 DUP2 DUP2 DUP6 DUP9 DUP9 CALL SWAP4 POP POP POP POP ISZERO DUP1 ISZERO PUSH2 0xC1B JUMPI RETURNDATASIZE PUSH1 0x0 DUP1 RETURNDATACOPY RETURNDATASIZE PUSH1 0x0 REVERT JUMPDEST POP PUSH1 0x1 SWAP1 POP JUMPDEST SWAP3 SWAP2 POP POP JUMP JUMPDEST PUSH1 0x1 PUSH1 0x1 PUSH1 0xA0 SHL SUB PUSH32 0x0 AND ADDRESS SUB PUSH2 0xC6F JUMPI PUSH1 0x40 MLOAD PUSH3 0x461BCD PUSH1 0xE5 SHL DUP2 MSTORE PUSH1 0x4 ADD PUSH2 0x8EB SWAP1 PUSH2 0x3406 JUMP JUMPDEST PUSH32 0x0 PUSH1 0x1 PUSH1 0x1 PUSH1 0xA0 SHL SUB AND PUSH2 0xCB8 PUSH1 0x0 DUP1 MLOAD PUSH1 0x20 PUSH2 0x35FE DUP4 CODECOPY DUP2 MLOAD SWAP2 MSTORE SLOAD PUSH1 0x1 PUSH1 0x1 PUSH1 0xA0 SHL SUB AND SWAP1 JUMP JUMPDEST PUSH1 0x1 PUSH1 0x1 PUSH1 0xA0 SHL SUB AND EQ PUSH2 0xCDE JUMPI PUSH1 0x40 MLOAD PUSH3 0x461BCD PUSH1 0xE5 SHL DUP2 MSTORE PUSH1 0x4 ADD PUSH2 0x8EB SWAP1 PUSH2 0x3452 JUMP JUMPDEST PUSH2 0xCE7 DUP2 PUSH2 0x252A JUMP JUMPDEST PUSH1 0x40 DUP1 MLOAD PUSH1 0x0 DUP1 DUP3 MSTORE PUSH1 0x20 DUP3 ADD SWAP1 SWAP3 MSTORE PUSH2 0xD03 SWAP2 DUP4 SWAP2 SWAP1 PUSH2 0x2532 JUMP JUMPDEST POP JUMP JUMPDEST PUSH2 0xD0E PUSH2 0x232C JUMP JUMPDEST PUSH1 0x0 DUP1 DUP1 MSTORE PUSH2 0x105 PUSH1 0x20 MSTORE PUSH1 0x0 DUP1 MLOAD PUSH1 0x20 PUSH2 0x3645 DUP4 CODECOPY DUP2 MLOAD SWAP2 MSTORE DUP3 DUP3 JUMPDEST DUP2 DUP2 LT ISZERO PUSH2 0xD7D JUMPI DUP6 DUP6 DUP3 DUP2 DUP2 LT PUSH2 0xD45 JUMPI PUSH2 0xD45 PUSH2 0x33D7 JUMP JUMPDEST SWAP1 POP PUSH1 0x20 MUL ADD PUSH1 0x20 DUP2 ADD SWAP1 PUSH2 0xD5A SWAP2 SWAP1 PUSH2 0x2EB5 JUMP JUMPDEST PUSH1 0x2 DUP5 ADD DUP1 SLOAD PUSH1 0xFF NOT AND PUSH1 0x1 OR SWAP1 SSTORE SWAP4 POP DUP1 PUSH2 0xD75 DUP2 PUSH2 0x33ED JUMP JUMPDEST SWAP2 POP POP PUSH2 0xD2B JUMP JUMPDEST POP POP POP POP POP POP JUMP JUMPDEST PUSH2 0xD8D PUSH2 0x232C JUMP JUMPDEST PUSH2 0xD95 PUSH2 0x26A2 JUMP JUMPDEST JUMP JUMPDEST PUSH1 0x1 PUSH1 0x1 PUSH1 0xA0 SHL SUB DUP2 AND PUSH1 0x0 SWAP1 DUP2 MSTORE PUSH2 0x105 PUSH1 0x20 SWAP1 DUP2 MSTORE PUSH1 0x40 DUP1 DUP4 KECCAK256 DUP1 SLOAD DUP3 MLOAD DUP2 DUP6 MUL DUP2 ADD DUP6 ADD SWAP1 SWAP4 MSTORE DUP1 DUP4 MSTORE SWAP1 SWAP3 DUP5 SWAP3 SWAP2 DUP5 SWAP2 DUP4 ADD DUP3 DUP3 DUP1 ISZERO PUSH2 0xDFA JUMPI PUSH1 0x20 MUL DUP3 ADD SWAP2 SWAP1 PUSH1 0x0 MSTORE PUSH1 0x20 PUSH1 0x0 KECCAK256 SWAP1 JUMPDEST DUP2 SLOAD DUP2 MSTORE PUSH1 0x20 ADD SWAP1 PUSH1 0x1 ADD SWAP1 DUP1 DUP4 GT PUSH2 0xDE6 JUMPI JUMPDEST POP POP DUP4 MLOAD SWAP4 SWAP5 POP PUSH1 0x0 SWAP3 POP POP POP JUMPDEST DUP2 DUP2 LT ISZERO PUSH2 0xE70 JUMPI PUSH2 0xE32 DUP4 DUP3 DUP2 MLOAD DUP2 LT PUSH2 0xE25 JUMPI PUSH2 0xE25 PUSH2 0x33D7 JUMP JUMPDEST PUSH1 0x20 MUL PUSH1 0x20 ADD ADD MLOAD PUSH2 0x1A8D JUMP JUMPDEST MLOAD ISZERO PUSH2 0xE5E JUMPI PUSH2 0xE4D DUP4 DUP3 DUP2 MLOAD DUP2 LT PUSH2 0xE25 JUMPI PUSH2 0xE25 PUSH2 0x33D7 JUMP JUMPDEST PUSH1 0x40 ADD MLOAD PUSH2 0xE5B SWAP1 DUP7 PUSH2 0x33C4 JUMP JUMPDEST SWAP5 POP JUMPDEST DUP1 PUSH2 0xE68 DUP2 PUSH2 0x33ED JUMP JUMPDEST SWAP2 POP POP PUSH2 0xE08 JUMP JUMPDEST POP POP POP POP SWAP2 SWAP1 POP JUMP JUMPDEST PUSH1 0x1 PUSH1 0x1 PUSH1 0xA0 SHL SUB PUSH32 0x0 AND ADDRESS SUB PUSH2 0xEC1 JUMPI PUSH1 0x40 MLOAD PUSH3 0x461BCD PUSH1 0xE5 SHL DUP2 MSTORE PUSH1 0x4 ADD PUSH2 0x8EB SWAP1 PUSH2 0x3406 JUMP JUMPDEST PUSH32 0x0 PUSH1 0x1 PUSH1 0x1 PUSH1 0xA0 SHL SUB AND PUSH2 0xF0A PUSH1 0x0 DUP1 MLOAD PUSH1 0x20 PUSH2 0x35FE DUP4 CODECOPY DUP2 MLOAD SWAP2 MSTORE SLOAD PUSH1 0x1 PUSH1 0x1 PUSH1 0xA0 SHL SUB AND SWAP1 JUMP JUMPDEST PUSH1 0x1 PUSH1 0x1 PUSH1 0xA0 SHL SUB AND EQ PUSH2 0xF30 JUMPI PUSH1 0x40 MLOAD PUSH3 0x461BCD PUSH1 0xE5 SHL DUP2 MSTORE PUSH1 0x4 ADD PUSH2 0x8EB SWAP1 PUSH2 0x3452 JUMP JUMPDEST PUSH2 0xF39 DUP3 PUSH2 0x252A JUMP JUMPDEST PUSH2 0xF45 DUP3 DUP3 PUSH1 0x1 PUSH2 0x2532 JUMP JUMPDEST POP POP JUMP JUMPDEST PUSH1 0x0 ADDRESS PUSH1 0x1 PUSH1 0x1 PUSH1 0xA0 SHL SUB PUSH32 0x0 AND EQ PUSH2 0xFE9 JUMPI PUSH1 0x40 MLOAD PUSH3 0x461BCD PUSH1 0xE5 SHL DUP2 MSTORE PUSH1 0x20 PUSH1 0x4 DUP3 ADD MSTORE PUSH1 0x38 PUSH1 0x24 DUP3 ADD MSTORE PUSH32 0x555550535570677261646561626C653A206D757374206E6F742062652063616C PUSH1 0x44 DUP3 ADD MSTORE PUSH32 0x6C6564207468726F7567682064656C656761746563616C6C0000000000000000 PUSH1 0x64 DUP3 ADD MSTORE PUSH1 0x84 ADD PUSH2 0x8EB JUMP JUMPDEST POP PUSH1 0x0 DUP1 MLOAD PUSH1 0x20 PUSH2 0x35FE DUP4 CODECOPY DUP2 MLOAD SWAP2 MSTORE SWAP1 JUMP JUMPDEST PUSH2 0x1004 PUSH2 0x232C JUMP JUMPDEST PUSH1 0x0 DUP1 DUP1 MSTORE PUSH2 0x105 PUSH1 0x20 MSTORE PUSH1 0x0 DUP1 MLOAD PUSH1 0x20 PUSH2 0x3645 DUP4 CODECOPY DUP2 MLOAD SWAP2 MSTORE DUP3 DUP3 JUMPDEST DUP2 DUP2 LT ISZERO PUSH2 0xD7D JUMPI DUP6 DUP6 DUP3 DUP2 DUP2 LT PUSH2 0x103B JUMPI PUSH2 0x103B PUSH2 0x33D7 JUMP JUMPDEST SWAP1 POP PUSH1 0x20 MUL ADD PUSH1 0x20 DUP2 ADD SWAP1 PUSH2 0x1050 SWAP2 SWAP1 PUSH2 0x2EB5 JUMP JUMPDEST PUSH1 0x2 DUP5 ADD DUP1 SLOAD PUSH1 0xFF NOT AND SWAP1 SSTORE SWAP4 POP DUP1 PUSH2 0x1068 DUP2 PUSH2 0x33ED JUMP JUMPDEST SWAP2 POP POP PUSH2 0x1021 JUMP JUMPDEST PUSH2 0x1078 PUSH2 0x232C JUMP JUMPDEST PUSH2 0x103 SSTORE JUMP JUMPDEST PUSH2 0x104 SLOAD PUSH1 0x60 SWAP1 DUP2 SWAP1 DUP2 SWAP1 PUSH1 0x0 SWAP1 DUP2 SWAP1 PUSH1 0xFF AND PUSH8 0xFFFFFFFFFFFFFFFF DUP2 GT ISZERO PUSH2 0x10A9 JUMPI PUSH2 0x10A9 PUSH2 0x2FE2 JUMP JUMPDEST PUSH1 0x40 MLOAD SWAP1 DUP1 DUP3 MSTORE DUP1 PUSH1 0x20 MUL PUSH1 0x20 ADD DUP3 ADD PUSH1 0x40 MSTORE DUP1 ISZERO PUSH2 0x10D2 JUMPI DUP2 PUSH1 0x20 ADD PUSH1 0x20 DUP3 MUL DUP1 CALLDATASIZE DUP4 CALLDATACOPY ADD SWAP1 POP JUMPDEST POP PUSH2 0x104 SLOAD SWAP1 SWAP2 POP PUSH1 0x0 SWAP1 PUSH1 0xFF AND PUSH8 0xFFFFFFFFFFFFFFFF DUP2 GT ISZERO PUSH2 0x10F8 JUMPI PUSH2 0x10F8 PUSH2 0x2FE2 JUMP JUMPDEST PUSH1 0x40 MLOAD SWAP1 DUP1 DUP3 MSTORE DUP1 PUSH1 0x20 MUL PUSH1 0x20 ADD DUP3 ADD PUSH1 0x40 MSTORE DUP1 ISZERO PUSH2 0x1121 JUMPI DUP2 PUSH1 0x20 ADD PUSH1 0x20 DUP3 MUL DUP1 CALLDATASIZE DUP4 CALLDATACOPY ADD SWAP1 POP JUMPDEST POP PUSH2 0x104 SLOAD SWAP1 SWAP2 POP PUSH1 0x0 SWAP1 PUSH1 0xFF AND PUSH8 0xFFFFFFFFFFFFFFFF DUP2 GT ISZERO PUSH2 0x1147 JUMPI PUSH2 0x1147 PUSH2 0x2FE2 JUMP JUMPDEST PUSH1 0x40 MLOAD SWAP1 DUP1 DUP3 MSTORE DUP1 PUSH1 0x20 MUL PUSH1 0x20 ADD DUP3 ADD PUSH1 0x40 MSTORE DUP1 ISZERO PUSH2 0x1170 JUMPI DUP2 PUSH1 0x20 ADD PUSH1 0x20 DUP3 MUL DUP1 CALLDATASIZE DUP4 CALLDATACOPY ADD SWAP1 POP JUMPDEST POP SWAP1 POP PUSH1 0x0 JUMPDEST PUSH2 0x104 SLOAD PUSH1 0xFF AND DUP2 LT ISZERO PUSH2 0x1224 JUMPI PUSH2 0x118D DUP2 PUSH2 0x26F4 JUMP JUMPDEST PUSH1 0x0 ADD MLOAD DUP5 DUP3 DUP2 MLOAD DUP2 LT PUSH2 0x11A3 JUMPI PUSH2 0x11A3 PUSH2 0x33D7 JUMP JUMPDEST PUSH1 0x20 MUL PUSH1 0x20 ADD ADD DUP2 DUP2 MSTORE POP POP PUSH2 0x11B8 DUP2 PUSH2 0x26F4 JUMP JUMPDEST PUSH1 0x20 ADD MLOAD DUP4 DUP3 DUP2 MLOAD DUP2 LT PUSH2 0x11CE JUMPI PUSH2 0x11CE PUSH2 0x33D7 JUMP JUMPDEST PUSH1 0x20 MUL PUSH1 0x20 ADD ADD DUP2 DUP2 MSTORE POP POP PUSH2 0x11E3 DUP2 PUSH2 0x26F4 JUMP JUMPDEST PUSH1 0x40 ADD MLOAD DUP3 DUP3 DUP2 MLOAD DUP2 LT PUSH2 0x11F9 JUMPI PUSH2 0x11F9 PUSH2 0x33D7 JUMP JUMPDEST PUSH1 0x20 SWAP1 DUP2 MUL SWAP2 SWAP1 SWAP2 ADD ADD MSTORE DUP5 PUSH2 0x120E DUP2 PUSH2 0x33ED JUMP JUMPDEST SWAP6 POP POP DUP1 DUP1 PUSH2 0x121C SWAP1 PUSH2 0x33ED JUMP JUMPDEST SWAP2 POP POP PUSH2 0x1176 JUMP JUMPDEST POP SWAP2 SWAP7 SWAP1 SWAP6 POP SWAP1 SWAP4 POP SWAP1 SWAP2 POP JUMP JUMPDEST CALLER PUSH1 0x0 DUP2 DUP2 MSTORE PUSH2 0x105 PUSH1 0x20 SWAP1 DUP2 MSTORE PUSH1 0x40 DUP1 DUP4 KECCAK256 DUP6 DUP5 MSTORE PUSH2 0x106 SWAP1 SWAP3 MSTORE SWAP1 SWAP2 KECCAK256 PUSH1 0x2 DUP3 ADD SLOAD NUMBER SWAP3 TIMESTAMP SWAP3 SWAP1 SWAP2 PUSH1 0xFF AND ISZERO PUSH2 0x127C JUMPI PUSH1 0x40 MLOAD PUSH3 0x461BCD PUSH1 0xE5 SHL DUP2 MSTORE PUSH1 0x4 ADD PUSH2 0x8EB SWAP1 PUSH2 0x335E JUMP JUMPDEST DUP1 SLOAD PUSH1 0xFF AND PUSH2 0x12C5 JUMPI PUSH1 0x40 MLOAD PUSH3 0x461BCD PUSH1 0xE5 SHL DUP2 MSTORE PUSH1 0x20 PUSH1 0x4 DUP3 ADD MSTORE PUSH1 0x15 PUSH1 0x24 DUP3 ADD MSTORE PUSH21 0x5374616B696E67206973206E6F7420616374697665 PUSH1 0x58 SHL PUSH1 0x44 DUP3 ADD MSTORE PUSH1 0x64 ADD PUSH2 0x8EB JUMP JUMPDEST DUP1 SLOAD PUSH1 0x1 PUSH1 0x1 PUSH1 0xA0 SHL SUB DUP7 DUP2 AND PUSH2 0x100 SWAP1 SWAP3 DIV AND EQ PUSH2 0x1336 JUMPI PUSH1 0x40 MLOAD PUSH3 0x461BCD PUSH1 0xE5 SHL DUP2 MSTORE PUSH1 0x20 PUSH1 0x4 DUP3 ADD MSTORE PUSH1 0x27 PUSH1 0x24 DUP3 ADD MSTORE PUSH32 0x536F72727920796F7520617265206E6F74206F776E6572206F66207468697320 PUSH1 0x44 DUP3 ADD MSTORE PUSH7 0x7374616B696E67 PUSH1 0xC8 SHL PUSH1 0x64 DUP3 ADD MSTORE PUSH1 0x84 ADD PUSH2 0x8EB JUMP JUMPDEST DUP3 DUP2 PUSH1 0x4 ADD SLOAD DUP3 PUSH1 0x3 ADD SLOAD PUSH2 0x134B SWAP2 SWAP1 PUSH2 0x33C4 JUMP JUMPDEST GT PUSH2 0x1398 JUMPI PUSH1 0x40 MLOAD PUSH3 0x461BCD PUSH1 0xE5 SHL DUP2 MSTORE PUSH1 0x20 PUSH1 0x4 DUP3 ADD MSTORE PUSH1 0x1B PUSH1 0x24 DUP3 ADD MSTORE PUSH32 0x596F75207374616B696E67206973206E6F74206F766572207965740000000000 PUSH1 0x44 DUP3 ADD MSTORE PUSH1 0x64 ADD PUSH2 0x8EB JUMP JUMPDEST PUSH1 0x0 PUSH2 0x13A3 DUP8 PUSH2 0x2386 JUMP JUMPDEST SWAP1 POP PUSH2 0x13B3 DUP7 DUP9 DUP5 DUP7 DUP6 DUP11 PUSH2 0x241A JUMP JUMPDEST POP PUSH2 0x13C1 DUP7 DUP9 DUP5 DUP7 DUP10 PUSH2 0x2752 JUMP JUMPDEST POP POP POP POP POP POP POP POP JUMP JUMPDEST PUSH1 0x0 PUSH2 0x13D5 PUSH2 0x232C JUMP JUMPDEST PUSH1 0x40 MLOAD PUSH4 0xA9059CBB PUSH1 0xE0 SHL DUP2 MSTORE PUSH1 0x1 PUSH1 0x1 PUSH1 0xA0 SHL SUB DUP5 DUP2 AND PUSH1 0x4 DUP4 ADD MSTORE PUSH1 0x24 DUP3 ADD DUP5 SWAP1 MSTORE DUP6 AND SWAP1 PUSH4 0xA9059CBB SWAP1 PUSH1 0x44 ADD PUSH1 0x20 PUSH1 0x40 MLOAD DUP1 DUP4 SUB DUP2 PUSH1 0x0 DUP8 GAS CALL ISZERO DUP1 ISZERO PUSH2 0x1424 JUMPI RETURNDATASIZE PUSH1 0x0 DUP1 RETURNDATACOPY RETURNDATASIZE PUSH1 0x0 REVERT JUMPDEST POP POP POP POP PUSH1 0x40 MLOAD RETURNDATASIZE PUSH1 0x1F NOT PUSH1 0x1F DUP3 ADD AND DUP3 ADD DUP1 PUSH1 0x40 MSTORE POP DUP2 ADD SWAP1 PUSH2 0x1448 SWAP2 SWAP1 PUSH2 0x349E JUMP JUMPDEST POP PUSH1 0x1 SWAP1 POP JUMPDEST SWAP4 SWAP3 POP POP POP JUMP JUMPDEST PUSH1 0x1 PUSH1 0x1 PUSH1 0xA0 SHL SUB DUP2 AND PUSH1 0x0 SWAP1 DUP2 MSTORE PUSH2 0x105 PUSH1 0x20 SWAP1 DUP2 MSTORE PUSH1 0x40 DUP1 DUP4 KECCAK256 DUP1 SLOAD DUP3 MLOAD DUP2 DUP6 MUL DUP2 ADD DUP6 ADD SWAP1 SWAP4 MSTORE DUP1 DUP4 MSTORE SWAP1 SWAP3 DUP5 SWAP3 SWAP2 DUP5 SWAP2 DUP4 ADD DUP3 DUP3 DUP1 ISZERO PUSH2 0x14B8 JUMPI PUSH1 0x20 MUL DUP3 ADD SWAP2 SWAP1 PUSH1 0x0 MSTORE PUSH1 0x20 PUSH1 0x0 KECCAK256 SWAP1 JUMPDEST DUP2 SLOAD DUP2 MSTORE PUSH1 0x20 ADD SWAP1 PUSH1 0x1 ADD SWAP1 DUP1 DUP4 GT PUSH2 0x14A4 JUMPI JUMPDEST POP POP DUP4 MLOAD SWAP4 SWAP5 POP PUSH1 0x0 SWAP3 POP POP POP JUMPDEST DUP2 DUP2 LT ISZERO PUSH2 0x1507 JUMPI PUSH2 0x14E3 DUP4 DUP3 DUP2 MLOAD DUP2 LT PUSH2 0xE25 JUMPI PUSH2 0xE25 PUSH2 0x33D7 JUMP JUMPDEST MLOAD ISZERO PUSH2 0x14F5 JUMPI POP PUSH1 0x1 SWAP6 SWAP5 POP POP POP POP POP JUMP JUMPDEST DUP1 PUSH2 0x14FF DUP2 PUSH2 0x33ED JUMP JUMPDEST SWAP2 POP POP PUSH2 0x14C6 JUMP JUMPDEST POP PUSH1 0x0 SWAP6 SWAP5 POP POP POP POP POP JUMP JUMPDEST PUSH1 0x1 PUSH1 0x1 PUSH1 0xA0 SHL SUB DUP2 AND PUSH1 0x0 SWAP1 DUP2 MSTORE PUSH2 0x105 PUSH1 0x20 SWAP1 DUP2 MSTORE PUSH1 0x40 SWAP2 DUP3 SWAP1 KECCAK256 DUP1 SLOAD DUP4 MLOAD DUP2 DUP5 MUL DUP2 ADD DUP5 ADD SWAP1 SWAP5 MSTORE DUP1 DUP5 MSTORE PUSH1 0x60 SWAP4 SWAP3 DUP4 ADD DUP3 DUP3 DUP1 ISZERO PUSH2 0x1574 JUMPI PUSH1 0x20 MUL DUP3 ADD SWAP2 SWAP1 PUSH1 0x0 MSTORE PUSH1 0x20 PUSH1 0x0 KECCAK256 SWAP1 JUMPDEST DUP2 SLOAD DUP2 MSTORE PUSH1 0x20 ADD SWAP1 PUSH1 0x1 ADD SWAP1 DUP1 DUP4 GT PUSH2 0x1560 JUMPI JUMPDEST POP POP POP POP POP SWAP1 POP SWAP2 SWAP1 POP JUMP JUMPDEST PUSH1 0xFD SLOAD PUSH1 0x60 SWAP1 PUSH1 0x0 DUP1 JUMPDEST DUP3 DUP2 LT ISZERO PUSH2 0x15C5 JUMPI PUSH2 0x159B DUP2 PUSH2 0x1A8D JUMP JUMPDEST MLOAD ISZERO ISZERO PUSH1 0x1 SUB PUSH2 0x15B3 JUMPI DUP2 PUSH2 0x15AF DUP2 PUSH2 0x33ED JUMP JUMPDEST SWAP3 POP POP JUMPDEST DUP1 PUSH2 0x15BD DUP2 PUSH2 0x33ED JUMP JUMPDEST SWAP2 POP POP PUSH2 0x158A JUMP JUMPDEST POP PUSH1 0x0 DUP2 PUSH8 0xFFFFFFFFFFFFFFFF DUP2 GT ISZERO PUSH2 0x15E1 JUMPI PUSH2 0x15E1 PUSH2 0x2FE2 JUMP JUMPDEST PUSH1 0x40 MLOAD SWAP1 DUP1 DUP3 MSTORE DUP1 PUSH1 0x20 MUL PUSH1 0x20 ADD DUP3 ADD PUSH1 0x40 MSTORE DUP1 ISZERO PUSH2 0x160A JUMPI DUP2 PUSH1 0x20 ADD PUSH1 0x20 DUP3 MUL DUP1 CALLDATASIZE DUP4 CALLDATACOPY ADD SWAP1 POP JUMPDEST POP SWAP1 POP PUSH1 0x0 DUP3 PUSH8 0xFFFFFFFFFFFFFFFF DUP2 GT ISZERO PUSH2 0x1628 JUMPI PUSH2 0x1628 PUSH2 0x2FE2 JUMP JUMPDEST PUSH1 0x40 MLOAD SWAP1 DUP1 DUP3 MSTORE DUP1 PUSH1 0x20 MUL PUSH1 0x20 ADD DUP3 ADD PUSH1 0x40 MSTORE DUP1 ISZERO PUSH2 0x1651 JUMPI DUP2 PUSH1 0x20 ADD PUSH1 0x20 DUP3 MUL DUP1 CALLDATASIZE DUP4 CALLDATACOPY ADD SWAP1 POP JUMPDEST POP SWAP1 POP PUSH1 0x0 JUMPDEST DUP5 DUP2 LT ISZERO PUSH2 0x16E5 JUMPI PUSH2 0x1668 DUP2 PUSH2 0x1A8D JUMP JUMPDEST MLOAD ISZERO ISZERO PUSH1 0x1 SUB PUSH2 0x169C JUMPI PUSH2 0x167D DUP2 PUSH1 0x1 PUSH2 0x33C4 JUMP JUMPDEST DUP4 DUP3 DUP2 MLOAD DUP2 LT PUSH2 0x168F JUMPI PUSH2 0x168F PUSH2 0x33D7 JUMP JUMPDEST PUSH1 0x20 MUL PUSH1 0x20 ADD ADD DUP2 DUP2 MSTORE POP POP JUMPDEST PUSH2 0x16A5 DUP2 PUSH2 0x1A8D JUMP JUMPDEST PUSH1 0x20 ADD MLOAD DUP3 DUP3 DUP2 MLOAD DUP2 LT PUSH2 0x16BB JUMPI PUSH2 0x16BB PUSH2 0x33D7 JUMP JUMPDEST PUSH1 0x1 PUSH1 0x1 PUSH1 0xA0 SHL SUB SWAP1 SWAP3 AND PUSH1 0x20 SWAP3 DUP4 MUL SWAP2 SWAP1 SWAP2 ADD SWAP1 SWAP2 ADD MSTORE DUP1 PUSH2 0x16DD DUP2 PUSH2 0x33ED JUMP JUMPDEST SWAP2 POP POP PUSH2 0x1657 JUMP JUMPDEST POP SWAP1 SWAP5 SWAP4 POP POP POP POP JUMP JUMPDEST PUSH2 0x16F7 PUSH2 0x232C JUMP JUMPDEST PUSH2 0xD95 PUSH1 0x0 PUSH2 0x27EF JUMP JUMPDEST PUSH1 0x0 SLOAD PUSH2 0x100 SWAP1 DIV PUSH1 0xFF AND ISZERO DUP1 DUP1 ISZERO PUSH2 0x1721 JUMPI POP PUSH1 0x0 SLOAD PUSH1 0x1 PUSH1 0xFF SWAP1 SWAP2 AND LT JUMPDEST DUP1 PUSH2 0x173B JUMPI POP ADDRESS EXTCODESIZE ISZERO DUP1 ISZERO PUSH2 0x173B JUMPI POP PUSH1 0x0 SLOAD PUSH1 0xFF AND PUSH1 0x1 EQ JUMPDEST PUSH2 0x179E JUMPI PUSH1 0x40 MLOAD PUSH3 0x461BCD PUSH1 0xE5 SHL DUP2 MSTORE PUSH1 0x20 PUSH1 0x4 DUP3 ADD MSTORE PUSH1 0x2E PUSH1 0x24 DUP3 ADD MSTORE PUSH32 0x496E697469616C697A61626C653A20636F6E747261637420697320616C726561 PUSH1 0x44 DUP3 ADD MSTORE PUSH14 0x191E481A5B9A5D1A585B1A5E9959 PUSH1 0x92 SHL PUSH1 0x64 DUP3 ADD MSTORE PUSH1 0x84 ADD PUSH2 0x8EB JUMP JUMPDEST PUSH1 0x0 DUP1 SLOAD PUSH1 0xFF NOT AND PUSH1 0x1 OR SWAP1 SSTORE DUP1 ISZERO PUSH2 0x17C1 JUMPI PUSH1 0x0 DUP1 SLOAD PUSH2 0xFF00 NOT AND PUSH2 0x100 OR SWAP1 SSTORE JUMPDEST PUSH1 0xFB DUP1 SLOAD PUSH1 0x1 PUSH1 0x1 PUSH1 0xA0 SHL SUB NOT SWAP1 DUP2 AND PUSH20 0xD15A7571030817B0C6CF84E7A130C492C4997A5F OR SWAP1 SWAP2 SSTORE PUSH1 0xFC DUP1 SLOAD SWAP1 SWAP2 AND PUSH20 0xF4B542493E591BD817C5280D1F748510B39E624 OR SWAP1 SSTORE PUSH8 0x8AC7230489E80000 PUSH2 0x101 SSTORE PUSH2 0x102 DUP1 SLOAD PUSH1 0xFF NOT SWAP1 DUP2 AND PUSH1 0x1 OR SWAP1 SWAP2 SSTORE PUSH2 0x100 DUP1 SLOAD PUSH2 0xFFFF NOT AND PUSH1 0x64 OR SWAP1 SSTORE PUSH3 0x15180 PUSH2 0x103 SSTORE PUSH2 0x104 DUP1 SLOAD SWAP1 SWAP2 AND PUSH1 0x3 OR SWAP1 SSTORE PUSH2 0x1853 PUSH2 0x2841 JUMP JUMPDEST PUSH2 0x185B PUSH2 0x2870 JUMP JUMPDEST PUSH2 0x1863 PUSH2 0x289F JUMP JUMPDEST DUP1 ISZERO PUSH2 0xD03 JUMPI PUSH1 0x0 DUP1 SLOAD PUSH2 0xFF00 NOT AND SWAP1 SSTORE PUSH1 0x40 MLOAD PUSH1 0x1 DUP2 MSTORE PUSH32 0x7F26B83FF96E1F2B6A682F133852F6798A09C465DA95921460CEFB3847402498 SWAP1 PUSH1 0x20 ADD PUSH1 0x40 MLOAD DUP1 SWAP2 SUB SWAP1 LOG1 POP JUMP JUMPDEST PUSH2 0x18B3 PUSH2 0x232C JUMP JUMPDEST PUSH2 0xD95 PUSH2 0x28C6 JUMP JUMPDEST PUSH2 0x18C3 PUSH2 0x232C JUMP JUMPDEST PUSH1 0x0 DUP1 DUP1 MSTORE PUSH2 0x105 PUSH1 0x20 MSTORE DUP1 PUSH32 0x36B574EB542E18A2932B42C3F7B99E0CCCDE75C2D7E80AC19800931AF8E17FA2 PUSH1 0x0 DUP1 MLOAD PUSH1 0x20 PUSH2 0x3645 DUP4 CODECOPY DUP2 MLOAD SWAP2 MSTORE NUMBER DUP4 JUMPDEST DUP7 DUP2 LT ISZERO PUSH2 0x13C1 JUMPI DUP8 DUP8 DUP3 DUP2 DUP2 LT PUSH2 0x191C JUMPI PUSH2 0x191C PUSH2 0x33D7 JUMP JUMPDEST DUP7 SLOAD PUSH2 0x100 SWAP1 DIV PUSH1 0x1 PUSH1 0x1 PUSH1 0xA0 SHL SUB AND SWAP9 POP PUSH1 0x20 MUL SWAP2 SWAP1 SWAP2 ADD CALLDATALOAD SWAP6 POP PUSH2 0x1950 SWAP1 POP DUP7 DUP7 DUP7 DUP7 PUSH2 0x194A DUP4 PUSH2 0x2386 JUMP JUMPDEST DUP8 PUSH2 0x241A JUMP JUMPDEST POP DUP1 PUSH2 0x195B DUP2 PUSH2 0x33ED JUMP JUMPDEST SWAP2 POP POP PUSH2 0x1902 JUMP JUMPDEST PUSH2 0x196B PUSH2 0x232C JUMP JUMPDEST PUSH2 0x104 DUP1 SLOAD PUSH1 0xFF NOT AND PUSH1 0xFF SWAP3 SWAP1 SWAP3 AND SWAP2 SWAP1 SWAP2 OR SWAP1 SSTORE JUMP JUMPDEST PUSH1 0x1 PUSH1 0x1 PUSH1 0xA0 SHL SUB DUP2 AND PUSH1 0x0 SWAP1 DUP2 MSTORE PUSH2 0x105 PUSH1 0x20 SWAP1 DUP2 MSTORE PUSH1 0x40 DUP1 DUP4 KECCAK256 DUP1 SLOAD DUP3 MLOAD DUP2 DUP6 MUL DUP2 ADD DUP6 ADD SWAP1 SWAP4 MSTORE DUP1 DUP4 MSTORE DUP5 SWAP4 DUP4 ADD DUP3 DUP3 DUP1 ISZERO PUSH2 0x19E0 JUMPI PUSH1 0x20 MUL DUP3 ADD SWAP2 SWAP1 PUSH1 0x0 MSTORE PUSH1 0x20 PUSH1 0x0 KECCAK256 SWAP1 JUMPDEST DUP2 SLOAD DUP2 MSTORE PUSH1 0x20 ADD SWAP1 PUSH1 0x1 ADD SWAP1 DUP1 DUP4 GT PUSH2 0x19CC JUMPI JUMPDEST POP POP POP POP POP SWAP1 POP PUSH1 0x0 DUP2 MLOAD SWAP1 POP PUSH1 0x0 DUP1 JUMPDEST DUP3 DUP2 PUSH1 0xFF AND LT ISZERO PUSH2 0x1A62 JUMPI PUSH2 0x1A14 DUP5 DUP3 PUSH1 0xFF AND DUP2 MLOAD DUP2 LT PUSH2 0xE25 JUMPI PUSH2 0xE25 PUSH2 0x33D7 JUMP JUMPDEST MLOAD ISZERO ISZERO PUSH1 0x1 SUB PUSH2 0x1A50 JUMPI PUSH2 0x1A43 DUP5 DUP3 PUSH1 0xFF AND DUP2 MLOAD DUP2 LT PUSH2 0x1A36 JUMPI PUSH2 0x1A36 PUSH2 0x33D7 JUMP JUMPDEST PUSH1 0x20 MUL PUSH1 0x20 ADD ADD MLOAD PUSH2 0x2386 JUMP JUMPDEST PUSH2 0x1A4D SWAP1 DUP4 PUSH2 0x33C4 JUMP JUMPDEST SWAP2 POP JUMPDEST DUP1 PUSH2 0x1A5A DUP2 PUSH2 0x34BB JUMP JUMPDEST SWAP2 POP POP PUSH2 0x19F1 JUMP JUMPDEST POP SWAP5 SWAP4 POP POP POP POP JUMP JUMPDEST PUSH1 0x0 PUSH2 0x1A75 PUSH2 0x232C JUMP JUMPDEST POP PUSH2 0x102 DUP1 SLOAD PUSH1 0xFF NOT AND SWAP2 ISZERO ISZERO SWAP2 DUP3 OR SWAP1 SSTORE PUSH1 0xFF AND SWAP1 JUMP JUMPDEST PUSH2 0x1AE7 PUSH1 0x40 MLOAD DUP1 PUSH2 0x120 ADD PUSH1 0x40 MSTORE DUP1 PUSH1 0x0 ISZERO ISZERO DUP2 MSTORE PUSH1 0x20 ADD PUSH1 0x0 PUSH1 0x1 PUSH1 0x1 PUSH1 0xA0 SHL SUB AND DUP2 MSTORE PUSH1 0x20 ADD PUSH1 0x0 DUP2 MSTORE PUSH1 0x20 ADD PUSH1 0x0 DUP2 MSTORE PUSH1 0x20 ADD PUSH1 0x0 DUP2 MSTORE PUSH1 0x20 ADD PUSH1 0x0 DUP2 MSTORE PUSH1 0x20 ADD PUSH1 0x0 DUP2 MSTORE PUSH1 0x20 ADD PUSH1 0x0 DUP2 MSTORE PUSH1 0x20 ADD PUSH1 0x60 DUP2 MSTORE POP SWAP1 JUMP JUMPDEST PUSH1 0x0 DUP3 DUP2 MSTORE PUSH2 0x106 PUSH1 0x20 SWAP1 DUP2 MSTORE PUSH1 0x40 SWAP2 DUP3 SWAP1 KECCAK256 DUP3 MLOAD PUSH2 0x120 DUP2 ADD DUP5 MSTORE DUP2 SLOAD PUSH1 0xFF DUP2 AND ISZERO ISZERO DUP3 MSTORE PUSH1 0x1 PUSH1 0x1 PUSH1 0xA0 SHL SUB PUSH2 0x100 SWAP2 DUP3 SWAP1 DIV AND DUP3 DUP6 ADD MSTORE PUSH1 0x1 DUP4 ADD SLOAD DUP3 DUP7 ADD MSTORE PUSH1 0x2 DUP4 ADD SLOAD PUSH1 0x60 DUP4 ADD MSTORE PUSH1 0x3 DUP4 ADD SLOAD PUSH1 0x80 DUP4 ADD MSTORE PUSH1 0x4 DUP4 ADD SLOAD PUSH1 0xA0 DUP4 ADD MSTORE PUSH1 0x5 DUP4 ADD SLOAD PUSH1 0xC0 DUP4 ADD MSTORE PUSH1 0x6 DUP4 ADD SLOAD PUSH1 0xE0 DUP4 ADD MSTORE PUSH1 0x7 DUP4 ADD DUP1 SLOAD DUP7 MLOAD DUP2 DUP8 MUL DUP2 ADD DUP8 ADD SWAP1 SWAP8 MSTORE DUP1 DUP8 MSTORE SWAP3 SWAP6 SWAP4 SWAP5 SWAP2 DUP7 ADD SWAP4 SWAP3 SWAP1 SWAP2 DUP4 ADD DUP3 DUP3 DUP1 ISZERO PUSH2 0x1BAB JUMPI PUSH1 0x20 MUL DUP3 ADD SWAP2 SWAP1 PUSH1 0x0 MSTORE PUSH1 0x20 PUSH1 0x0 KECCAK256 SWAP1 JUMPDEST DUP2 SLOAD DUP2 MSTORE PUSH1 0x20 ADD SWAP1 PUSH1 0x1 ADD SWAP1 DUP1 DUP4 GT PUSH2 0x1B97 JUMPI JUMPDEST POP POP POP POP POP DUP2 MSTORE POP POP SWAP1 POP SWAP2 SWAP1 POP JUMP JUMPDEST PUSH1 0x0 PUSH2 0xC21 DUP3 PUSH2 0x2386 JUMP JUMPDEST PUSH2 0x1BCE PUSH2 0x2903 JUMP JUMPDEST PUSH2 0x101 SLOAD CALLER SWAP1 CALLVALUE SWAP1 DUP2 LT ISZERO PUSH2 0x1C39 JUMPI PUSH1 0x40 MLOAD PUSH3 0x461BCD PUSH1 0xE5 SHL DUP2 MSTORE PUSH1 0x20 PUSH1 0x4 DUP3 ADD MSTORE PUSH1 0x2B PUSH1 0x24 DUP3 ADD MSTORE PUSH32 0x5374616B696E672076616C75652073686F756C64206265203E3D206D696E5374 PUSH1 0x44 DUP3 ADD MSTORE PUSH11 0x30B5B4B733AB30B63AB297 PUSH1 0xA9 SHL PUSH1 0x64 DUP3 ADD MSTORE PUSH1 0x84 ADD PUSH2 0x8EB JUMP JUMPDEST PUSH1 0x0 DUP4 DUP2 MSTORE PUSH2 0x107 PUSH1 0x20 MSTORE PUSH1 0x40 SWAP1 KECCAK256 PUSH1 0x1 DUP2 ADD SLOAD PUSH1 0x2 DUP3 ADD SLOAD PUSH2 0x1C60 SWAP2 DUP6 SWAP2 DUP6 SWAP2 SWAP1 PUSH2 0x2949 JUMP JUMPDEST POP PUSH2 0x102 SLOAD PUSH1 0xFF AND ISZERO PUSH2 0x1CEC JUMPI PUSH1 0xFC SLOAD PUSH1 0x40 MLOAD PUSH4 0x1EB714B1 PUSH1 0xE3 SHL DUP2 MSTORE PUSH1 0x4 DUP2 ADD DUP5 SWAP1 MSTORE PUSH1 0x1 PUSH1 0x1 PUSH1 0xA0 SHL SUB DUP6 DUP2 AND PUSH1 0x24 DUP4 ADD MSTORE DUP8 DUP2 AND PUSH1 0x44 DUP4 ADD MSTORE SWAP1 SWAP2 AND SWAP1 PUSH4 0xF5B8A588 SWAP1 PUSH1 0x64 ADD PUSH1 0x20 PUSH1 0x40 MLOAD DUP1 DUP4 SUB DUP2 PUSH1 0x0 DUP8 GAS CALL ISZERO DUP1 ISZERO PUSH2 0x1CC8 JUMPI RETURNDATASIZE PUSH1 0x0 DUP1 RETURNDATACOPY RETURNDATASIZE PUSH1 0x0 REVERT JUMPDEST POP POP POP POP PUSH1 0x40 MLOAD RETURNDATASIZE PUSH1 0x1F NOT PUSH1 0x1F DUP3 ADD AND DUP3 ADD DUP1 PUSH1 0x40 MSTORE POP DUP2 ADD SWAP1 PUSH2 0xD7D SWAP2 SWAP1 PUSH2 0x349E JUMP JUMPDEST POP POP POP POP POP JUMP JUMPDEST PUSH1 0x1 PUSH1 0x1 PUSH1 0xA0 SHL SUB DUP2 AND PUSH1 0x0 SWAP1 DUP2 MSTORE PUSH2 0x105 PUSH1 0x20 SWAP1 DUP2 MSTORE PUSH1 0x40 DUP1 DUP4 KECCAK256 DUP1 SLOAD DUP3 MLOAD DUP2 DUP6 MUL DUP2 ADD DUP6 ADD SWAP1 SWAP4 MSTORE DUP1 DUP4 MSTORE SWAP1 SWAP3 DUP5 SWAP3 SWAP2 DUP5 SWAP2 DUP4 ADD DUP3 DUP3 DUP1 ISZERO PUSH2 0x1D56 JUMPI PUSH1 0x20 MUL DUP3 ADD SWAP2 SWAP1 PUSH1 0x0 MSTORE PUSH1 0x20 PUSH1 0x0 KECCAK256 SWAP1 JUMPDEST DUP2 SLOAD DUP2 MSTORE PUSH1 0x20 ADD SWAP1 PUSH1 0x1 ADD SWAP1 DUP1 DUP4 GT PUSH2 0x1D42 JUMPI JUMPDEST POP POP DUP4 MLOAD SWAP4 SWAP5 POP PUSH1 0x0 SWAP3 POP POP POP JUMPDEST DUP2 DUP2 LT ISZERO PUSH2 0xE70 JUMPI PUSH2 0x1D81 DUP4 DUP3 DUP2 MLOAD DUP2 LT PUSH2 0xE25 JUMPI PUSH2 0xE25 PUSH2 0x33D7 JUMP JUMPDEST PUSH1 0xC0 ADD MLOAD PUSH2 0x1D8F SWAP1 DUP7 PUSH2 0x33C4 JUMP JUMPDEST SWAP5 POP DUP1 PUSH2 0x1D9B DUP2 PUSH2 0x33ED JUMP JUMPDEST SWAP2 POP POP PUSH2 0x1D64 JUMP JUMPDEST PUSH2 0x1DAB PUSH2 0x232C JUMP JUMPDEST PUSH2 0x100 DUP1 SLOAD PUSH2 0xFFFF NOT AND PUSH1 0xFF SWAP1 SWAP3 AND SWAP2 SWAP1 SWAP2 OR SWAP1 SSTORE JUMP JUMPDEST PUSH1 0x40 DUP1 MLOAD PUSH1 0x60 DUP1 DUP3 ADD DUP4 MSTORE DUP1 DUP3 MSTORE PUSH1 0x20 DUP1 DUP4 ADD DUP3 SWAP1 MSTORE PUSH1 0x0 DUP4 DUP6 ADD DUP2 SWAP1 MSTORE PUSH1 0x1 PUSH1 0x1 PUSH1 0xA0 SHL SUB DUP7 AND DUP2 MSTORE PUSH2 0x105 DUP3 MSTORE DUP5 SWAP1 KECCAK256 DUP5 MLOAD DUP2 SLOAD SWAP3 DUP4 MUL DUP2 ADD PUSH1 0x80 SWAP1 DUP2 ADD SWAP1 SWAP7 MSTORE SWAP3 DUP4 ADD DUP3 DUP2 MSTORE SWAP4 SWAP5 SWAP3 SWAP4 SWAP1 SWAP3 DUP5 SWAP3 DUP5 SWAP2 DUP5 ADD DUP3 DUP3 DUP1 ISZERO PUSH2 0x1E44 JUMPI PUSH1 0x20 MUL DUP3 ADD SWAP2 SWAP1 PUSH1 0x0 MSTORE PUSH1 0x20 PUSH1 0x0 KECCAK256 SWAP1 JUMPDEST DUP2 SLOAD DUP2 MSTORE PUSH1 0x20 ADD SWAP1 PUSH1 0x1 ADD SWAP1 DUP1 DUP4 GT PUSH2 0x1E30 JUMPI JUMPDEST POP POP POP POP POP DUP2 MSTORE PUSH1 0x20 ADD PUSH1 0x1 DUP3 ADD DUP1 SLOAD DUP1 PUSH1 0x20 MUL PUSH1 0x20 ADD PUSH1 0x40 MLOAD SWAP1 DUP2 ADD PUSH1 0x40 MSTORE DUP1 SWAP3 SWAP2 SWAP1 DUP2 DUP2 MSTORE PUSH1 0x20 ADD DUP3 DUP1 SLOAD DUP1 ISZERO PUSH2 0x1E9C JUMPI PUSH1 0x20 MUL DUP3 ADD SWAP2 SWAP1 PUSH1 0x0 MSTORE PUSH1 0x20 PUSH1 0x0 KECCAK256 SWAP1 JUMPDEST DUP2 SLOAD DUP2 MSTORE PUSH1 0x20 ADD SWAP1 PUSH1 0x1 ADD SWAP1 DUP1 DUP4 GT PUSH2 0x1E88 JUMPI JUMPDEST POP POP POP SWAP2 DUP4 MSTORE POP POP PUSH1 0x2 SWAP2 SWAP1 SWAP2 ADD SLOAD PUSH1 0xFF AND ISZERO ISZERO PUSH1 0x20 SWAP1 SWAP2 ADD MSTORE SWAP3 SWAP2 POP POP JUMP JUMPDEST PUSH1 0x60 PUSH1 0x0 PUSH1 0xFD DUP1 SLOAD DUP1 PUSH1 0x20 MUL PUSH1 0x20 ADD PUSH1 0x40 MLOAD SWAP1 DUP2 ADD PUSH1 0x40 MSTORE DUP1 SWAP3 SWAP2 SWAP1 DUP2 DUP2 MSTORE PUSH1 0x20 ADD DUP3 DUP1 SLOAD DUP1 ISZERO PUSH2 0x1F16 JUMPI PUSH1 0x20 MUL DUP3 ADD SWAP2 SWAP1 PUSH1 0x0 MSTORE PUSH1 0x20 PUSH1 0x0 KECCAK256 SWAP1 JUMPDEST DUP2 SLOAD PUSH1 0x1 PUSH1 0x1 PUSH1 0xA0 SHL SUB AND DUP2 MSTORE PUSH1 0x1 SWAP1 SWAP2 ADD SWAP1 PUSH1 0x20 ADD DUP1 DUP4 GT PUSH2 0x1EF8 JUMPI JUMPDEST POP POP POP POP POP SWAP1 POP PUSH1 0x0 DUP2 MLOAD SWAP1 POP PUSH1 0x0 DUP2 PUSH8 0xFFFFFFFFFFFFFFFF DUP2 GT ISZERO PUSH2 0x1F3E JUMPI PUSH2 0x1F3E PUSH2 0x2FE2 JUMP JUMPDEST PUSH1 0x40 MLOAD SWAP1 DUP1 DUP3 MSTORE DUP1 PUSH1 0x20 MUL PUSH1 0x20 ADD DUP3 ADD PUSH1 0x40 MSTORE DUP1 ISZERO PUSH2 0x1F67 JUMPI DUP2 PUSH1 0x20 ADD PUSH1 0x20 DUP3 MUL DUP1 CALLDATASIZE DUP4 CALLDATACOPY ADD SWAP1 POP JUMPDEST POP SWAP1 POP PUSH1 0x0 DUP1 JUMPDEST DUP4 DUP2 LT ISZERO PUSH2 0x16E5 JUMPI PUSH2 0x1F99 DUP4 DUP7 DUP4 DUP2 MLOAD DUP2 LT PUSH2 0x1F8C JUMPI PUSH2 0x1F8C PUSH2 0x33D7 JUMP JUMPDEST PUSH1 0x20 MUL PUSH1 0x20 ADD ADD MLOAD PUSH2 0x24C5 JUMP JUMPDEST ISZERO ISZERO PUSH1 0x1 EQ PUSH2 0x1FF4 JUMPI DUP5 DUP2 DUP2 MLOAD DUP2 LT PUSH2 0x1FB4 JUMPI PUSH2 0x1FB4 PUSH2 0x33D7 JUMP JUMPDEST PUSH1 0x20 MUL PUSH1 0x20 ADD ADD MLOAD DUP4 DUP4 DUP2 MLOAD DUP2 LT PUSH2 0x1FCE JUMPI PUSH2 0x1FCE PUSH2 0x33D7 JUMP JUMPDEST PUSH1 0x1 PUSH1 0x1 PUSH1 0xA0 SHL SUB SWAP1 SWAP3 AND PUSH1 0x20 SWAP3 DUP4 MUL SWAP2 SWAP1 SWAP2 ADD SWAP1 SWAP2 ADD MSTORE DUP2 PUSH2 0x1FF0 DUP2 PUSH2 0x33ED JUMP JUMPDEST SWAP3 POP POP JUMPDEST DUP1 PUSH2 0x1FFE DUP2 PUSH2 0x33ED JUMP JUMPDEST SWAP2 POP POP PUSH2 0x1F6E JUMP JUMPDEST PUSH1 0x0 PUSH2 0x2010 PUSH2 0x232C JUMP JUMPDEST POP PUSH1 0xFC DUP1 SLOAD PUSH1 0x1 PUSH1 0x1 PUSH1 0xA0 SHL SUB NOT AND PUSH1 0x1 PUSH1 0x1 PUSH1 0xA0 SHL SUB SWAP3 SWAP1 SWAP3 AND SWAP2 DUP3 OR SWAP1 SSTORE SWAP1 JUMP JUMPDEST PUSH1 0x0 PUSH2 0x203D PUSH2 0x232C JUMP JUMPDEST POP PUSH2 0x101 DUP2 SWAP1 SSTORE SWAP1 JUMP JUMPDEST PUSH1 0x0 DUP2 DUP2 MSTORE PUSH2 0x106 PUSH1 0x20 MSTORE PUSH1 0x40 DUP2 KECCAK256 PUSH1 0x4 DUP2 ADD SLOAD PUSH1 0x3 DUP3 ADD SLOAD TIMESTAMP SWAP3 SWAP2 DUP5 SWAP2 PUSH2 0x206F SWAP2 SWAP1 PUSH2 0x33C4 JUMP JUMPDEST SWAP1 POP DUP1 DUP4 LT ISZERO PUSH2 0x20A1 JUMPI DUP3 DUP3 PUSH1 0x4 ADD SLOAD DUP4 PUSH1 0x3 ADD SLOAD PUSH2 0x208E SWAP2 SWAP1 PUSH2 0x33C4 JUMP JUMPDEST PUSH2 0x2098 SWAP2 SWAP1 PUSH2 0x34DA JUMP JUMPDEST SWAP6 SWAP5 POP POP POP POP POP JUMP JUMPDEST POP PUSH1 0x0 SWAP5 SWAP4 POP POP POP POP JUMP JUMPDEST PUSH1 0x60 PUSH1 0x0 PUSH1 0xFD DUP1 SLOAD DUP1 PUSH1 0x20 MUL PUSH1 0x20 ADD PUSH1 0x40 MLOAD SWAP1 DUP2 ADD PUSH1 0x40 MSTORE DUP1 SWAP3 SWAP2 SWAP1 DUP2 DUP2 MSTORE PUSH1 0x20 ADD DUP3 DUP1 SLOAD DUP1 ISZERO PUSH2 0x2106 JUMPI PUSH1 0x20 MUL DUP3 ADD SWAP2 SWAP1 PUSH1 0x0 MSTORE PUSH1 0x20 PUSH1 0x0 KECCAK256 SWAP1 JUMPDEST DUP2 SLOAD PUSH1 0x1 PUSH1 0x1 PUSH1 0xA0 SHL SUB AND DUP2 MSTORE PUSH1 0x1 SWAP1 SWAP2 ADD SWAP1 PUSH1 0x20 ADD DUP1 DUP4 GT PUSH2 0x20E8 JUMPI JUMPDEST POP POP POP POP POP SWAP1 POP PUSH1 0x0 DUP2 MLOAD SWAP1 POP PUSH1 0x0 DUP2 PUSH8 0xFFFFFFFFFFFFFFFF DUP2 GT ISZERO PUSH2 0x212E JUMPI PUSH2 0x212E PUSH2 0x2FE2 JUMP JUMPDEST PUSH1 0x40 MLOAD SWAP1 DUP1 DUP3 MSTORE DUP1 PUSH1 0x20 MUL PUSH1 0x20 ADD DUP3 ADD PUSH1 0x40 MSTORE DUP1 ISZERO PUSH2 0x2157 JUMPI DUP2 PUSH1 0x20 ADD PUSH1 0x20 DUP3 MUL DUP1 CALLDATASIZE DUP4 CALLDATACOPY ADD SWAP1 POP JUMPDEST POP SWAP1 POP PUSH1 0x0 DUP1 JUMPDEST DUP4 DUP2 LT ISZERO PUSH2 0x16E5 JUMPI PUSH2 0x217C DUP4 DUP7 DUP4 DUP2 MLOAD DUP2 LT PUSH2 0x1F8C JUMPI PUSH2 0x1F8C PUSH2 0x33D7 JUMP JUMPDEST ISZERO ISZERO PUSH1 0x1 EQ PUSH2 0x21FE JUMPI PUSH2 0x21A7 DUP6 DUP3 DUP2 MLOAD DUP2 LT PUSH2 0x219A JUMPI PUSH2 0x219A PUSH2 0x33D7 JUMP JUMPDEST PUSH1 0x20 MUL PUSH1 0x20 ADD ADD MLOAD PUSH2 0x1455 JUMP JUMPDEST ISZERO PUSH2 0x21FE JUMPI DUP5 DUP2 DUP2 MLOAD DUP2 LT PUSH2 0x21BE JUMPI PUSH2 0x21BE PUSH2 0x33D7 JUMP JUMPDEST PUSH1 0x20 MUL PUSH1 0x20 ADD ADD MLOAD DUP4 DUP4 DUP2 MLOAD DUP2 LT PUSH2 0x21D8 JUMPI PUSH2 0x21D8 PUSH2 0x33D7 JUMP JUMPDEST PUSH1 0x1 PUSH1 0x1 PUSH1 0xA0 SHL SUB SWAP1 SWAP3 AND PUSH1 0x20 SWAP3 DUP4 MUL SWAP2 SWAP1 SWAP2 ADD SWAP1 SWAP2 ADD MSTORE DUP2 PUSH2 0x21FA DUP2 PUSH2 0x33ED JUMP JUMPDEST SWAP3 POP POP JUMPDEST DUP1 PUSH2 0x2208 DUP2 PUSH2 0x33ED JUMP JUMPDEST SWAP2 POP POP PUSH2 0x215E JUMP JUMPDEST PUSH2 0x2218 PUSH2 0x232C JUMP JUMPDEST PUSH1 0x1 PUSH1 0x1 PUSH1 0xA0 SHL SUB DUP2 AND PUSH2 0x227D JUMPI PUSH1 0x40 MLOAD PUSH3 0x461BCD PUSH1 0xE5 SHL DUP2 MSTORE PUSH1 0x20 PUSH1 0x4 DUP3 ADD MSTORE PUSH1 0x26 PUSH1 0x24 DUP3 ADD MSTORE PUSH32 0x4F776E61626C653A206E6577206F776E657220697320746865207A65726F2061 PUSH1 0x44 DUP3 ADD MSTORE PUSH6 0x646472657373 PUSH1 0xD0 SHL PUSH1 0x64 DUP3 ADD MSTORE PUSH1 0x84 ADD PUSH2 0x8EB JUMP JUMPDEST PUSH2 0xD03 DUP2 PUSH2 0x27EF JUMP JUMPDEST PUSH2 0x228E PUSH2 0x232C JUMP JUMPDEST PUSH2 0xD7D DUP7 DUP7 DUP1 DUP1 PUSH1 0x20 MUL PUSH1 0x20 ADD PUSH1 0x40 MLOAD SWAP1 DUP2 ADD PUSH1 0x40 MSTORE DUP1 SWAP4 SWAP3 SWAP2 SWAP1 DUP2 DUP2 MSTORE PUSH1 0x20 ADD DUP4 DUP4 PUSH1 0x20 MUL DUP1 DUP3 DUP5 CALLDATACOPY PUSH1 0x0 SWAP3 ADD SWAP2 SWAP1 SWAP2 MSTORE POP POP PUSH1 0x40 DUP1 MLOAD PUSH1 0x20 DUP1 DUP11 MUL DUP3 DUP2 ADD DUP3 ADD SWAP1 SWAP4 MSTORE DUP10 DUP3 MSTORE SWAP1 SWAP4 POP DUP10 SWAP3 POP DUP9 SWAP2 DUP3 SWAP2 DUP6 ADD SWAP1 DUP5 SWAP1 DUP1 DUP3 DUP5 CALLDATACOPY PUSH1 0x0 SWAP3 ADD SWAP2 SWAP1 SWAP2 MSTORE POP POP PUSH1 0x40 DUP1 MLOAD PUSH1 0x20 DUP1 DUP10 MUL DUP3 DUP2 ADD DUP3 ADD SWAP1 SWAP4 MSTORE DUP9 DUP3 MSTORE SWAP1 SWAP4 POP DUP9 SWAP3 POP DUP8 SWAP2 DUP3 SWAP2 DUP6 ADD SWAP1 DUP5 SWAP1 DUP1 DUP3 DUP5 CALLDATACOPY PUSH1 0x0 SWAP3 ADD SWAP2 SWAP1 SWAP2 MSTORE POP PUSH2 0x2AA0 SWAP3 POP POP POP JUMP JUMPDEST PUSH1 0x65 SLOAD PUSH1 0x1 PUSH1 0x1 PUSH1 0xA0 SHL SUB AND CALLER EQ PUSH2 0xD95 JUMPI PUSH1 0x40 MLOAD PUSH3 0x461BCD PUSH1 0xE5 SHL DUP2 MSTORE PUSH1 0x20 PUSH1 0x4 DUP3 ADD DUP2 SWAP1 MSTORE PUSH1 0x24 DUP3 ADD MSTORE PUSH32 0x4F776E61626C653A2063616C6C6572206973206E6F7420746865206F776E6572 PUSH1 0x44 DUP3 ADD MSTORE PUSH1 0x64 ADD PUSH2 0x8EB JUMP JUMPDEST PUSH1 0x0 DUP2 DUP2 MSTORE PUSH2 0x106 PUSH1 0x20 MSTORE PUSH1 0x40 DUP2 KECCAK256 PUSH1 0x3 DUP2 ADD SLOAD TIMESTAMP SWAP2 SWAP1 DUP4 SWAP1 PUSH2 0x23A9 SWAP1 DUP5 PUSH2 0x34DA JUMP JUMPDEST PUSH1 0x4 DUP4 ADD SLOAD PUSH2 0x100 SLOAD PUSH1 0x2 DUP6 ADD SLOAD PUSH1 0x1 DUP7 ADD SLOAD SWAP4 SWAP5 POP PUSH1 0x0 SWAP4 PUSH2 0xFFFF SWAP1 SWAP3 AND SWAP2 PUSH2 0x23D3 SWAP2 SWAP1 PUSH2 0x34ED JUMP JUMPDEST PUSH2 0x23DD SWAP2 SWAP1 PUSH2 0x3504 JUMP JUMPDEST PUSH2 0x23E7 SWAP2 SWAP1 PUSH2 0x3504 JUMP JUMPDEST SWAP1 POP DUP3 PUSH1 0x5 ADD SLOAD PUSH2 0x23FC DUP4 DUP6 PUSH1 0x4 ADD SLOAD PUSH2 0x2BB1 JUMP JUMPDEST PUSH2 0x2406 SWAP1 DUP4 PUSH2 0x34ED JUMP JUMPDEST PUSH2 0x2410 SWAP2 SWAP1 PUSH2 0x34DA JUMP JUMPDEST SWAP7 SWAP6 POP POP POP POP POP POP JUMP JUMPDEST PUSH1 0x0 DUP3 DUP6 PUSH1 0x5 ADD PUSH1 0x0 DUP3 DUP3 SLOAD PUSH2 0x2430 SWAP2 SWAP1 PUSH2 0x33C4 JUMP JUMPDEST SWAP1 SWAP2 SSTORE POP POP TIMESTAMP PUSH1 0x6 DUP7 ADD SSTORE PUSH1 0x7 DUP6 ADD DUP1 SLOAD PUSH1 0x1 DUP2 DUP2 ADD DUP4 SSTORE PUSH1 0x0 SWAP3 DUP4 MSTORE PUSH1 0x20 DUP1 DUP5 KECCAK256 SWAP1 SWAP3 ADD DUP6 SWAP1 SSTORE DUP7 DUP2 ADD DUP1 SLOAD SWAP2 DUP3 ADD DUP2 SSTORE DUP4 MSTORE SWAP1 DUP3 KECCAK256 ADD DUP4 SWAP1 SSTORE PUSH1 0xFF DUP1 SLOAD DUP6 SWAP3 SWAP1 PUSH2 0x247D SWAP1 DUP5 SWAP1 PUSH2 0x33C4 JUMP JUMPDEST SWAP1 SWAP2 SSTORE POP POP PUSH1 0x40 MLOAD DUP7 SWAP1 DUP5 SWAP1 PUSH1 0x1 PUSH1 0x1 PUSH1 0xA0 SHL SUB DUP11 AND SWAP1 PUSH32 0xD6AB86E55E7211DDDCDA4C7C65E9E1C75F06B5DA6B05222F8CD39B93986FECAD SWAP1 PUSH1 0x0 SWAP1 LOG4 POP SWAP1 SWAP6 SWAP5 POP POP POP POP POP JUMP JUMPDEST PUSH1 0x0 DUP1 JUMPDEST DUP4 MLOAD DUP2 LT ISZERO PUSH2 0x2520 JUMPI DUP3 PUSH1 0x1 PUSH1 0x1 PUSH1 0xA0 SHL SUB AND DUP5 DUP3 DUP2 MLOAD DUP2 LT PUSH2 0x24EE JUMPI PUSH2 0x24EE PUSH2 0x33D7 JUMP JUMPDEST PUSH1 0x20 MUL PUSH1 0x20 ADD ADD MLOAD PUSH1 0x1 PUSH1 0x1 PUSH1 0xA0 SHL SUB AND SUB PUSH2 0x250E JUMPI PUSH1 0x1 SWAP2 POP POP PUSH2 0xC21 JUMP JUMPDEST DUP1 PUSH2 0x2518 DUP2 PUSH2 0x33ED JUMP JUMPDEST SWAP2 POP POP PUSH2 0x24C9 JUMP JUMPDEST POP PUSH1 0x0 SWAP4 SWAP3 POP POP POP JUMP JUMPDEST PUSH2 0xD03 PUSH2 0x232C JUMP JUMPDEST PUSH32 0x4910FDFA16FED3260ED0E7147F7CC6DA11A60208B5B9406D12A635614FFD9143 SLOAD PUSH1 0xFF AND ISZERO PUSH2 0x256A JUMPI PUSH2 0x2565 DUP4 PUSH2 0x2BC7 JUMP JUMPDEST POP POP POP JUMP JUMPDEST DUP3 PUSH1 0x1 PUSH1 0x1 PUSH1 0xA0 SHL SUB AND PUSH4 0x52D1902D PUSH1 0x40 MLOAD DUP2 PUSH4 0xFFFFFFFF AND PUSH1 0xE0 SHL DUP2 MSTORE PUSH1 0x4 ADD PUSH1 0x20 PUSH1 0x40 MLOAD DUP1 DUP4 SUB DUP2 DUP7 GAS STATICCALL SWAP3 POP POP POP DUP1 ISZERO PUSH2 0x25C4 JUMPI POP PUSH1 0x40 DUP1 MLOAD PUSH1 0x1F RETURNDATASIZE SWAP1 DUP2 ADD PUSH1 0x1F NOT AND DUP3 ADD SWAP1 SWAP3 MSTORE PUSH2 0x25C1 SWAP2 DUP2 ADD SWAP1 PUSH2 0x3526 JUMP JUMPDEST PUSH1 0x1 JUMPDEST PUSH2 0x2627 JUMPI PUSH1 0x40 MLOAD PUSH3 0x461BCD PUSH1 0xE5 SHL DUP2 MSTORE PUSH1 0x20 PUSH1 0x4 DUP3 ADD MSTORE PUSH1 0x2E PUSH1 0x24 DUP3 ADD MSTORE PUSH32 0x45524331393637557067726164653A206E657720696D706C656D656E74617469 PUSH1 0x44 DUP3 ADD MSTORE PUSH14 0x6F6E206973206E6F742055555053 PUSH1 0x90 SHL PUSH1 0x64 DUP3 ADD MSTORE PUSH1 0x84 ADD PUSH2 0x8EB JUMP JUMPDEST PUSH1 0x0 DUP1 MLOAD PUSH1 0x20 PUSH2 0x35FE DUP4 CODECOPY DUP2 MLOAD SWAP2 MSTORE DUP2 EQ PUSH2 0x2696 JUMPI PUSH1 0x40 MLOAD PUSH3 0x461BCD PUSH1 0xE5 SHL DUP2 MSTORE PUSH1 0x20 PUSH1 0x4 DUP3 ADD MSTORE PUSH1 0x29 PUSH1 0x24 DUP3 ADD MSTORE PUSH32 0x45524331393637557067726164653A20756E737570706F727465642070726F78 PUSH1 0x44 DUP3 ADD MSTORE PUSH9 0x1A58589B1955555251 PUSH1 0xBA SHL PUSH1 0x64 DUP3 ADD MSTORE PUSH1 0x84 ADD PUSH2 0x8EB JUMP JUMPDEST POP PUSH2 0x2565 DUP4 DUP4 DUP4 PUSH2 0x2C63 JUMP JUMPDEST PUSH2 0x26AA PUSH2 0x2C8E JUMP JUMPDEST PUSH1 0x33 DUP1 SLOAD PUSH1 0xFF NOT AND SWAP1 SSTORE PUSH32 0x5DB9EE0A495BF2E6FF9C91A7834C1BA4FDD244A5E8AA4E537BD38AEAE4B073AA CALLER JUMPDEST PUSH1 0x40 MLOAD PUSH1 0x1 PUSH1 0x1 PUSH1 0xA0 SHL SUB SWAP1 SWAP2 AND DUP2 MSTORE PUSH1 0x20 ADD PUSH1 0x40 MLOAD DUP1 SWAP2 SUB SWAP1 LOG1 JUMP JUMPDEST PUSH2 0x2718 PUSH1 0x40 MLOAD DUP1 PUSH1 0x60 ADD PUSH1 0x40 MSTORE DUP1 PUSH1 0x0 DUP2 MSTORE PUSH1 0x20 ADD PUSH1 0x0 DUP2 MSTORE PUSH1 0x20 ADD PUSH1 0x0 DUP2 MSTORE POP SWAP1 JUMP JUMPDEST POP PUSH1 0x0 SWAP1 DUP2 MSTORE PUSH2 0x107 PUSH1 0x20 SWAP1 DUP2 MSTORE PUSH1 0x40 SWAP2 DUP3 SWAP1 KECCAK256 DUP3 MLOAD PUSH1 0x60 DUP2 ADD DUP5 MSTORE DUP2 SLOAD DUP2 MSTORE PUSH1 0x1 DUP3 ADD SLOAD SWAP3 DUP2 ADD SWAP3 SWAP1 SWAP3 MSTORE PUSH1 0x2 ADD SLOAD SWAP2 DUP2 ADD SWAP2 SWAP1 SWAP2 MSTORE SWAP1 JUMP JUMPDEST DUP3 SLOAD PUSH1 0xFF NOT AND DUP4 SSTORE PUSH1 0x7 DUP4 ADD DUP1 SLOAD PUSH1 0x1 DUP2 DUP2 ADD DUP4 SSTORE PUSH1 0x0 SWAP3 DUP4 MSTORE PUSH1 0x20 DUP1 DUP5 KECCAK256 SWAP1 SWAP3 ADD DUP5 SWAP1 SSTORE DUP5 DUP2 ADD DUP1 SLOAD DUP1 DUP4 ADD DUP3 SSTORE SWAP1 DUP5 MSTORE SWAP2 DUP4 KECCAK256 SWAP1 SWAP2 ADD DUP4 SWAP1 SSTORE DUP5 ADD SLOAD PUSH1 0xFE DUP1 SLOAD DUP4 SWAP1 PUSH2 0x27A1 SWAP1 DUP5 SWAP1 PUSH2 0x34DA JUMP JUMPDEST SWAP1 SWAP2 SSTORE POP POP PUSH1 0x1 DUP5 ADD SLOAD PUSH1 0x40 MLOAD DUP7 SWAP2 SWAP1 PUSH1 0x1 PUSH1 0x1 PUSH1 0xA0 SHL SUB DUP10 AND SWAP1 PUSH32 0xF960DBF9E5D0682F7A298ED974E33A28B4464914B7A2BFAC12AE419A9AFEB280 SWAP1 PUSH1 0x0 SWAP1 LOG4 POP POP POP PUSH1 0x1 ADD SLOAD SWAP3 SWAP2 POP POP JUMP JUMPDEST PUSH1 0x65 DUP1 SLOAD PUSH1 0x1 PUSH1 0x1 PUSH1 0xA0 SHL SUB DUP4 DUP2 AND PUSH1 0x1 PUSH1 0x1 PUSH1 0xA0 SHL SUB NOT DUP4 AND DUP2 OR SWAP1 SWAP4 SSTORE PUSH1 0x40 MLOAD SWAP2 AND SWAP2 SWAP1 DUP3 SWAP1 PUSH32 0x8BE0079C531659141344CD1FD0A4F28419497F9722A3DAAFE3B4186F6B6457E0 SWAP1 PUSH1 0x0 SWAP1 LOG3 POP POP JUMP JUMPDEST PUSH1 0x0 SLOAD PUSH2 0x100 SWAP1 DIV PUSH1 0xFF AND PUSH2 0x2868 JUMPI PUSH1 0x40 MLOAD PUSH3 0x461BCD PUSH1 0xE5 SHL DUP2 MSTORE PUSH1 0x4 ADD PUSH2 0x8EB SWAP1 PUSH2 0x353F JUMP JUMPDEST PUSH2 0xD95 PUSH2 0x2CD7 JUMP JUMPDEST PUSH1 0x0 SLOAD PUSH2 0x100 SWAP1 DIV PUSH1 0xFF AND PUSH2 0x2897 JUMPI PUSH1 0x40 MLOAD PUSH3 0x461BCD PUSH1 0xE5 SHL DUP2 MSTORE PUSH1 0x4 ADD PUSH2 0x8EB SWAP1 PUSH2 0x353F JUMP JUMPDEST PUSH2 0xD95 PUSH2 0x2D0A JUMP JUMPDEST PUSH1 0x0 SLOAD PUSH2 0x100 SWAP1 DIV PUSH1 0xFF AND PUSH2 0xD95 JUMPI PUSH1 0x40 MLOAD PUSH3 0x461BCD PUSH1 0xE5 SHL DUP2 MSTORE PUSH1 0x4 ADD PUSH2 0x8EB SWAP1 PUSH2 0x353F JUMP JUMPDEST PUSH2 0x28CE PUSH2 0x2903 JUMP JUMPDEST PUSH1 0x33 DUP1 SLOAD PUSH1 0xFF NOT AND PUSH1 0x1 OR SWAP1 SSTORE PUSH32 0x62E78CEA01BEE320CD4E420270B5EA74000D11B0C9F74754EBDBFC544B05A258 PUSH2 0x26D7 CALLER SWAP1 JUMP JUMPDEST PUSH1 0x33 SLOAD PUSH1 0xFF AND ISZERO PUSH2 0xD95 JUMPI PUSH1 0x40 MLOAD PUSH3 0x461BCD PUSH1 0xE5 SHL DUP2 MSTORE PUSH1 0x20 PUSH1 0x4 DUP3 ADD MSTORE PUSH1 0x10 PUSH1 0x24 DUP3 ADD MSTORE PUSH16 0x14185D5CD8589B194E881C185D5CD959 PUSH1 0x82 SHL PUSH1 0x44 DUP3 ADD MSTORE PUSH1 0x64 ADD PUSH2 0x8EB JUMP JUMPDEST PUSH1 0xFD DUP1 SLOAD PUSH1 0x1 DUP1 DUP3 ADD DUP4 SSTORE PUSH32 0x9346AC6DD7DE6B96975FEC380D4D994C4C12E6A8897544F22915316CC6CCA280 SWAP1 SWAP2 ADD DUP1 SLOAD PUSH1 0x1 PUSH1 0x1 PUSH1 0xA0 SHL SUB NOT AND PUSH1 0x1 PUSH1 0x1 PUSH1 0xA0 SHL SUB DUP9 AND SWAP1 DUP2 OR SWAP1 SWAP2 SSTORE SWAP2 SLOAD PUSH1 0x0 DUP4 DUP2 MSTORE PUSH2 0x105 PUSH1 0x20 SWAP1 DUP2 MSTORE PUSH1 0x40 DUP1 DUP4 KECCAK256 DUP5 DUP5 MSTORE PUSH2 0x106 DUP4 MSTORE SWAP1 DUP4 KECCAK256 DUP2 SLOAD DUP1 DUP8 ADD DUP4 SSTORE DUP3 DUP6 MSTORE DUP4 DUP6 KECCAK256 ADD DUP6 SWAP1 SSTORE DUP2 DUP7 ADD DUP1 SLOAD DUP1 DUP9 ADD DUP3 SSTORE SWAP1 DUP6 MSTORE DUP4 DUP6 KECCAK256 NUMBER SWAP2 ADD DUP2 SWAP1 SSTORE DUP2 SLOAD PUSH1 0x1 PUSH1 0x1 PUSH1 0xA8 SHL SUB NOT AND PUSH2 0x100 SWAP1 SWAP9 MUL SWAP8 SWAP1 SWAP8 OR DUP7 OR DUP2 SSTORE TIMESTAMP PUSH1 0x3 DUP3 ADD DUP2 SWAP1 SSTORE PUSH1 0x4 DUP3 ADD DUP10 SWAP1 SSTORE DUP2 DUP8 ADD DUP12 SWAP1 SSTORE PUSH1 0x2 DUP3 ADD DUP11 SWAP1 SSTORE PUSH1 0x7 DUP3 ADD DUP1 SLOAD SWAP8 DUP9 ADD DUP2 SSTORE DUP6 MSTORE SWAP3 DUP5 KECCAK256 SWAP1 SWAP6 ADD DUP7 SWAP1 SSTORE PUSH1 0xFE DUP1 SLOAD SWAP4 SWAP7 SWAP5 SWAP6 SWAP3 SWAP5 SWAP4 SWAP2 SWAP3 SWAP2 DUP11 SWAP2 SWAP1 DUP9 SWAP1 PUSH2 0x2A44 SWAP1 DUP5 SWAP1 PUSH2 0x33C4 JUMP JUMPDEST SWAP3 POP POP DUP2 SWAP1 SSTORE POP DUP7 DUP10 DUP12 PUSH1 0x1 PUSH1 0x1 PUSH1 0xA0 SHL SUB AND PUSH32 0xF556991011E831BCFAC4F406D547E5E32CDD98267EFAB83935230D5F8D02C446 DUP9 PUSH1 0x40 MLOAD PUSH2 0x2A88 SWAP2 DUP2 MSTORE PUSH1 0x20 ADD SWAP1 JUMP JUMPDEST PUSH1 0x40 MLOAD DUP1 SWAP2 SUB SWAP1 LOG4 POP PUSH1 0x1 SWAP10 SWAP9 POP POP POP POP POP POP POP POP POP JUMP JUMPDEST DUP3 MLOAD PUSH2 0x104 SLOAD PUSH1 0xFF AND DUP2 GT ISZERO PUSH2 0x2AF8 JUMPI PUSH1 0x40 MLOAD PUSH3 0x461BCD PUSH1 0xE5 SHL DUP2 MSTORE PUSH1 0x20 PUSH1 0x4 DUP3 ADD MSTORE PUSH1 0x18 PUSH1 0x24 DUP3 ADD MSTORE PUSH32 0x457863656564696E67207061636B616765206C656E6774680000000000000000 PUSH1 0x44 DUP3 ADD MSTORE PUSH1 0x64 ADD PUSH2 0x8EB JUMP JUMPDEST PUSH1 0x0 JUMPDEST DUP2 DUP2 LT ISZERO PUSH2 0x1CEC JUMPI DUP5 DUP2 DUP2 MLOAD DUP2 LT PUSH2 0x2B15 JUMPI PUSH2 0x2B15 PUSH2 0x33D7 JUMP JUMPDEST PUSH1 0x20 MUL PUSH1 0x20 ADD ADD MLOAD PUSH2 0x107 PUSH1 0x0 DUP4 DUP2 MSTORE PUSH1 0x20 ADD SWAP1 DUP2 MSTORE PUSH1 0x20 ADD PUSH1 0x0 KECCAK256 PUSH1 0x0 ADD DUP2 SWAP1 SSTORE POP DUP4 DUP2 DUP2 MLOAD DUP2 LT PUSH2 0x2B4A JUMPI PUSH2 0x2B4A PUSH2 0x33D7 JUMP JUMPDEST PUSH1 0x20 MUL PUSH1 0x20 ADD ADD MLOAD PUSH2 0x107 PUSH1 0x0 DUP4 DUP2 MSTORE PUSH1 0x20 ADD SWAP1 DUP2 MSTORE PUSH1 0x20 ADD PUSH1 0x0 KECCAK256 PUSH1 0x1 ADD DUP2 SWAP1 SSTORE POP DUP3 DUP2 DUP2 MLOAD DUP2 LT PUSH2 0x2B7F JUMPI PUSH2 0x2B7F PUSH2 0x33D7 JUMP JUMPDEST PUSH1 0x20 SWAP1 DUP2 MUL SWAP2 SWAP1 SWAP2 ADD DUP2 ADD MLOAD PUSH1 0x0 DUP4 DUP2 MSTORE PUSH2 0x107 SWAP1 SWAP3 MSTORE PUSH1 0x40 SWAP1 SWAP2 KECCAK256 PUSH1 0x2 ADD SSTORE DUP1 PUSH2 0x2BA9 DUP2 PUSH2 0x33ED JUMP JUMPDEST SWAP2 POP POP PUSH2 0x2AFB JUMP JUMPDEST PUSH1 0x0 DUP2 DUP4 LT PUSH2 0x2BC0 JUMPI DUP2 PUSH2 0x144E JUMP JUMPDEST POP SWAP1 SWAP2 SWAP1 POP JUMP JUMPDEST PUSH1 0x1 PUSH1 0x1 PUSH1 0xA0 SHL SUB DUP2 AND EXTCODESIZE PUSH2 0x2C34 JUMPI PUSH1 0x40 MLOAD PUSH3 0x461BCD PUSH1 0xE5 SHL DUP2 MSTORE PUSH1 0x20 PUSH1 0x4 DUP3 ADD MSTORE PUSH1 0x2D PUSH1 0x24 DUP3 ADD MSTORE PUSH32 0x455243313936373A206E657720696D706C656D656E746174696F6E206973206E PUSH1 0x44 DUP3 ADD MSTORE PUSH13 0x1BDD08184818DBDB9D1C9858DD PUSH1 0x9A SHL PUSH1 0x64 DUP3 ADD MSTORE PUSH1 0x84 ADD PUSH2 0x8EB JUMP JUMPDEST PUSH1 0x0 DUP1 MLOAD PUSH1 0x20 PUSH2 0x35FE DUP4 CODECOPY DUP2 MLOAD SWAP2 MSTORE DUP1 SLOAD PUSH1 0x1 PUSH1 0x1 PUSH1 0xA0 SHL SUB NOT AND PUSH1 0x1 PUSH1 0x1 PUSH1 0xA0 SHL SUB SWAP3 SWAP1 SWAP3 AND SWAP2 SWAP1 SWAP2 OR SWAP1 SSTORE JUMP JUMPDEST PUSH2 0x2C6C DUP4 PUSH2 0x2D3A JUMP JUMPDEST PUSH1 0x0 DUP3 MLOAD GT DUP1 PUSH2 0x2C79 JUMPI POP DUP1 JUMPDEST ISZERO PUSH2 0x2565 JUMPI PUSH2 0x2C88 DUP4 DUP4 PUSH2 0x2D7A JUMP JUMPDEST POP POP POP POP JUMP JUMPDEST PUSH1 0x33 SLOAD PUSH1 0xFF AND PUSH2 0xD95 JUMPI PUSH1 0x40 MLOAD PUSH3 0x461BCD PUSH1 0xE5 SHL DUP2 MSTORE PUSH1 0x20 PUSH1 0x4 DUP3 ADD MSTORE PUSH1 0x14 PUSH1 0x24 DUP3 ADD MSTORE PUSH20 0x14185D5CD8589B194E881B9BDD081C185D5CD959 PUSH1 0x62 SHL PUSH1 0x44 DUP3 ADD MSTORE PUSH1 0x64 ADD PUSH2 0x8EB JUMP JUMPDEST PUSH1 0x0 SLOAD PUSH2 0x100 SWAP1 DIV PUSH1 0xFF AND PUSH2 0x2CFE JUMPI PUSH1 0x40 MLOAD PUSH3 0x461BCD PUSH1 0xE5 SHL DUP2 MSTORE PUSH1 0x4 ADD PUSH2 0x8EB SWAP1 PUSH2 0x353F JUMP JUMPDEST PUSH1 0x33 DUP1 SLOAD PUSH1 0xFF NOT AND SWAP1 SSTORE JUMP JUMPDEST PUSH1 0x0 SLOAD PUSH2 0x100 SWAP1 DIV PUSH1 0xFF AND PUSH2 0x2D31 JUMPI PUSH1 0x40 MLOAD PUSH3 0x461BCD PUSH1 0xE5 SHL DUP2 MSTORE PUSH1 0x4 ADD PUSH2 0x8EB SWAP1 PUSH2 0x353F JUMP JUMPDEST PUSH2 0xD95 CALLER PUSH2 0x27EF JUMP JUMPDEST PUSH2 0x2D43 DUP2 PUSH2 0x2BC7 JUMP JUMPDEST PUSH1 0x40 MLOAD PUSH1 0x1 PUSH1 0x1 PUSH1 0xA0 SHL SUB DUP3 AND SWAP1 PUSH32 0xBC7CD75A20EE27FD9ADEBAB32041F755214DBC6BFFA90CC0225B39DA2E5C2D3B SWAP1 PUSH1 0x0 SWAP1 LOG2 POP JUMP JUMPDEST PUSH1 0x60 PUSH1 0x1 PUSH1 0x1 PUSH1 0xA0 SHL SUB DUP4 AND EXTCODESIZE PUSH2 0x2DE2 JUMPI PUSH1 0x40 MLOAD PUSH3 0x461BCD PUSH1 0xE5 SHL DUP2 MSTORE PUSH1 0x20 PUSH1 0x4 DUP3 ADD MSTORE PUSH1 0x26 PUSH1 0x24 DUP3 ADD MSTORE PUSH32 0x416464726573733A2064656C65676174652063616C6C20746F206E6F6E2D636F PUSH1 0x44 DUP3 ADD MSTORE PUSH6 0x1B9D1C9858DD PUSH1 0xD2 SHL PUSH1 0x64 DUP3 ADD MSTORE PUSH1 0x84 ADD PUSH2 0x8EB JUMP JUMPDEST PUSH1 0x0 DUP1 DUP5 PUSH1 0x1 PUSH1 0x1 PUSH1 0xA0 SHL SUB AND DUP5 PUSH1 0x40 MLOAD PUSH2 0x2DFD SWAP2 SWAP1 PUSH2 0x35AE JUMP JUMPDEST PUSH1 0x0 PUSH1 0x40 MLOAD DUP1 DUP4 SUB DUP2 DUP6 GAS DELEGATECALL SWAP2 POP POP RETURNDATASIZE DUP1 PUSH1 0x0 DUP2 EQ PUSH2 0x2E38 JUMPI PUSH1 0x40 MLOAD SWAP2 POP PUSH1 0x1F NOT PUSH1 0x3F RETURNDATASIZE ADD AND DUP3 ADD PUSH1 0x40 MSTORE RETURNDATASIZE DUP3 MSTORE RETURNDATASIZE PUSH1 0x0 PUSH1 0x20 DUP5 ADD RETURNDATACOPY PUSH2 0x2E3D JUMP JUMPDEST PUSH1 0x60 SWAP2 POP JUMPDEST POP SWAP2 POP SWAP2 POP PUSH2 0x2098 DUP3 DUP3 PUSH1 0x40 MLOAD DUP1 PUSH1 0x60 ADD PUSH1 0x40 MSTORE DUP1 PUSH1 0x27 DUP2 MSTORE PUSH1 0x20 ADD PUSH2 0x361E PUSH1 0x27 SWAP2 CODECOPY PUSH1 0x60 DUP4 ISZERO PUSH2 0x2E6F JUMPI POP DUP2 PUSH2 0x144E JUMP JUMPDEST PUSH2 0x144E DUP4 DUP4 DUP2 MLOAD ISZERO PUSH2 0x2E84 JUMPI DUP2 MLOAD DUP1 DUP4 PUSH1 0x20 ADD REVERT JUMPDEST DUP1 PUSH1 0x40 MLOAD PUSH3 0x461BCD PUSH1 0xE5 SHL DUP2 MSTORE PUSH1 0x4 ADD PUSH2 0x8EB SWAP2 SWAP1 PUSH2 0x35CA JUMP JUMPDEST DUP1 CALLDATALOAD PUSH1 0x1 PUSH1 0x1 PUSH1 0xA0 SHL SUB DUP2 AND DUP2 EQ PUSH2 0x89E JUMPI PUSH1 0x0 DUP1 REVERT JUMPDEST PUSH1 0x0 PUSH1 0x20 DUP3 DUP5 SUB SLT ISZERO PUSH2 0x2EC7 JUMPI PUSH1 0x0 DUP1 REVERT JUMPDEST PUSH2 0x144E DUP3 PUSH2 0x2E9E JUMP JUMPDEST PUSH1 0x0 PUSH1 0x20 DUP3 DUP5 SUB SLT ISZERO PUSH2 0x2EE2 JUMPI PUSH1 0x0 DUP1 REVERT JUMPDEST POP CALLDATALOAD SWAP2 SWAP1 POP JUMP JUMPDEST PUSH1 0x20 DUP1 DUP3 MSTORE DUP3 MLOAD DUP3 DUP3 ADD DUP2 SWAP1 MSTORE PUSH1 0x0 SWAP2 SWAP1 DUP5 DUP3 ADD SWAP1 PUSH1 0x40 DUP6 ADD SWAP1 DUP5 JUMPDEST DUP2 DUP2 LT ISZERO PUSH2 0xBCF JUMPI DUP4 MLOAD PUSH1 0x1 PUSH1 0x1 PUSH1 0xA0 SHL SUB AND DUP4 MSTORE SWAP3 DUP5 ADD SWAP3 SWAP2 DUP5 ADD SWAP2 PUSH1 0x1 ADD PUSH2 0x2F05 JUMP JUMPDEST PUSH1 0x0 DUP1 PUSH1 0x40 DUP4 DUP6 SUB SLT ISZERO PUSH2 0x2F3D JUMPI PUSH1 0x0 DUP1 REVERT JUMPDEST PUSH2 0x2F46 DUP4 PUSH2 0x2E9E JUMP JUMPDEST SWAP5 PUSH1 0x20 SWAP4 SWAP1 SWAP4 ADD CALLDATALOAD SWAP4 POP POP POP JUMP JUMPDEST PUSH1 0x0 DUP1 DUP4 PUSH1 0x1F DUP5 ADD SLT PUSH2 0x2F66 JUMPI PUSH1 0x0 DUP1 REVERT JUMPDEST POP DUP2 CALLDATALOAD PUSH8 0xFFFFFFFFFFFFFFFF DUP2 GT ISZERO PUSH2 0x2F7E JUMPI PUSH1 0x0 DUP1 REVERT JUMPDEST PUSH1 0x20 DUP4 ADD SWAP2 POP DUP4 PUSH1 0x20 DUP3 PUSH1 0x5 SHL DUP6 ADD ADD GT ISZERO PUSH2 0x2F99 JUMPI PUSH1 0x0 DUP1 REVERT JUMPDEST SWAP3 POP SWAP3 SWAP1 POP JUMP JUMPDEST PUSH1 0x0 DUP1 PUSH1 0x20 DUP4 DUP6 SUB SLT ISZERO PUSH2 0x2FB3 JUMPI PUSH1 0x0 DUP1 REVERT JUMPDEST DUP3 CALLDATALOAD PUSH8 0xFFFFFFFFFFFFFFFF DUP2 GT ISZERO PUSH2 0x2FCA JUMPI PUSH1 0x0 DUP1 REVERT JUMPDEST PUSH2 0x2FD6 DUP6 DUP3 DUP7 ADD PUSH2 0x2F54 JUMP JUMPDEST SWAP1 SWAP7 SWAP1 SWAP6 POP SWAP4 POP POP POP POP JUMP JUMPDEST PUSH4 0x4E487B71 PUSH1 0xE0 SHL PUSH1 0x0 MSTORE PUSH1 0x41 PUSH1 0x4 MSTORE PUSH1 0x24 PUSH1 0x0 REVERT JUMPDEST PUSH1 0x0 DUP1 PUSH1 0x40 DUP4 DUP6 SUB SLT ISZERO PUSH2 0x300B JUMPI PUSH1 0x0 DUP1 REVERT JUMPDEST PUSH2 0x3014 DUP4 PUSH2 0x2E9E JUMP JUMPDEST SWAP2 POP PUSH1 0x20 DUP4 ADD CALLDATALOAD PUSH8 0xFFFFFFFFFFFFFFFF DUP1 DUP3 GT ISZERO PUSH2 0x3031 JUMPI PUSH1 0x0 DUP1 REVERT JUMPDEST DUP2 DUP6 ADD SWAP2 POP DUP6 PUSH1 0x1F DUP4 ADD SLT PUSH2 0x3045 JUMPI PUSH1 0x0 DUP1 REVERT JUMPDEST DUP2 CALLDATALOAD DUP2 DUP2 GT ISZERO PUSH2 0x3057 JUMPI PUSH2 0x3057 PUSH2 0x2FE2 JUMP JUMPDEST PUSH1 0x40 MLOAD PUSH1 0x1F DUP3 ADD PUSH1 0x1F NOT SWAP1 DUP2 AND PUSH1 0x3F ADD AND DUP2 ADD SWAP1 DUP4 DUP3 GT DUP2 DUP4 LT OR ISZERO PUSH2 0x307F JUMPI PUSH2 0x307F PUSH2 0x2FE2 JUMP JUMPDEST DUP2 PUSH1 0x40 MSTORE DUP3 DUP2 MSTORE DUP9 PUSH1 0x20 DUP5 DUP8 ADD ADD GT ISZERO PUSH2 0x3098 JUMPI PUSH1 0x0 DUP1 REVERT JUMPDEST DUP3 PUSH1 0x20 DUP7 ADD PUSH1 0x20 DUP4 ADD CALLDATACOPY PUSH1 0x0 PUSH1 0x20 DUP5 DUP4 ADD ADD MSTORE DUP1 SWAP6 POP POP POP POP POP POP SWAP3 POP SWAP3 SWAP1 POP JUMP JUMPDEST PUSH1 0x0 DUP2 MLOAD DUP1 DUP5 MSTORE PUSH1 0x20 DUP1 DUP6 ADD SWAP5 POP DUP1 DUP5 ADD PUSH1 0x0 JUMPDEST DUP4 DUP2 LT ISZERO PUSH2 0x30EA JUMPI DUP2 MLOAD DUP8 MSTORE SWAP6 DUP3 ADD SWAP6 SWAP1 DUP3 ADD SWAP1 PUSH1 0x1 ADD PUSH2 0x30CE JUMP JUMPDEST POP SWAP5 SWAP6 SWAP5 POP POP POP POP POP JUMP JUMPDEST PUSH1 0x80 DUP2 MSTORE PUSH1 0x0 PUSH2 0x3108 PUSH1 0x80 DUP4 ADD DUP8 PUSH2 0x30BA JUMP JUMPDEST DUP3 DUP2 SUB PUSH1 0x20 DUP5 ADD MSTORE PUSH2 0x311A DUP2 DUP8 PUSH2 0x30BA JUMP JUMPDEST SWAP1 POP DUP3 DUP2 SUB PUSH1 0x40 DUP5 ADD MSTORE PUSH2 0x312E DUP2 DUP7 PUSH2 0x30BA JUMP JUMPDEST SWAP2 POP POP DUP3 PUSH1 0x60 DUP4 ADD MSTORE SWAP6 SWAP5 POP POP POP POP POP JUMP JUMPDEST PUSH1 0x0 DUP1 PUSH1 0x0 PUSH1 0x60 DUP5 DUP7 SUB SLT ISZERO PUSH2 0x3155 JUMPI PUSH1 0x0 DUP1 REVERT JUMPDEST PUSH2 0x315E DUP5 PUSH2 0x2E9E JUMP JUMPDEST SWAP3 POP PUSH2 0x316C PUSH1 0x20 DUP6 ADD PUSH2 0x2E9E JUMP JUMPDEST SWAP2 POP PUSH1 0x40 DUP5 ADD CALLDATALOAD SWAP1 POP SWAP3 POP SWAP3 POP SWAP3 JUMP JUMPDEST PUSH1 0x20 DUP2 MSTORE PUSH1 0x0 PUSH2 0x144E PUSH1 0x20 DUP4 ADD DUP5 PUSH2 0x30BA JUMP JUMPDEST PUSH1 0x0 PUSH1 0x20 DUP3 DUP5 SUB SLT ISZERO PUSH2 0x31A1 JUMPI PUSH1 0x0 DUP1 REVERT JUMPDEST DUP2 CALLDATALOAD PUSH1 0xFF DUP2 AND DUP2 EQ PUSH2 0x144E JUMPI PUSH1 0x0 DUP1 REVERT JUMPDEST DUP1 ISZERO ISZERO DUP2 EQ PUSH2 0xD03 JUMPI PUSH1 0x0 DUP1 REVERT JUMPDEST PUSH1 0x0 PUSH1 0x20 DUP3 DUP5 SUB SLT ISZERO PUSH2 0x31D2 JUMPI PUSH1 0x0 DUP1 REVERT JUMPDEST DUP2 CALLDATALOAD PUSH2 0x144E DUP2 PUSH2 0x31B2 JUMP JUMPDEST PUSH1 0x20 DUP2 MSTORE PUSH2 0x31F0 PUSH1 0x20 DUP3 ADD DUP4 MLOAD ISZERO ISZERO SWAP1 MSTORE JUMP JUMPDEST PUSH1 0x0 PUSH1 0x20 DUP4 ADD MLOAD PUSH2 0x320C PUSH1 0x40 DUP5 ADD DUP3 PUSH1 0x1 PUSH1 0x1 PUSH1 0xA0 SHL SUB AND SWAP1 MSTORE JUMP JUMPDEST POP PUSH1 0x40 DUP4 ADD MLOAD PUSH1 0x60 DUP4 ADD MSTORE PUSH1 0x60 DUP4 ADD MLOAD PUSH1 0x80 DUP4 ADD MSTORE PUSH1 0x80 DUP4 ADD MLOAD PUSH1 0xA0 DUP4 ADD MSTORE PUSH1 0xA0 DUP4 ADD MLOAD PUSH1 0xC0 DUP4 ADD MSTORE PUSH1 0xC0 DUP4 ADD MLOAD PUSH1 0xE0 DUP4 ADD MSTORE PUSH1 0xE0 DUP4 ADD MLOAD PUSH2 0x100 DUP2 DUP2 DUP6 ADD MSTORE DUP1 DUP6 ADD MLOAD SWAP2 POP POP PUSH2 0x120 DUP1 DUP2 DUP6 ADD MSTORE POP PUSH2 0x326A PUSH2 0x140 DUP5 ADD DUP3 PUSH2 0x30BA JUMP JUMPDEST SWAP5 SWAP4 POP POP POP POP JUMP JUMPDEST PUSH1 0x20 DUP2 MSTORE PUSH1 0x0 DUP3 MLOAD PUSH1 0x60 PUSH1 0x20 DUP5 ADD MSTORE PUSH2 0x328E PUSH1 0x80 DUP5 ADD DUP3 PUSH2 0x30BA JUMP JUMPDEST SWAP1 POP PUSH1 0x20 DUP5 ADD MLOAD PUSH1 0x1F NOT DUP5 DUP4 SUB ADD PUSH1 0x40 DUP6 ADD MSTORE PUSH2 0x32AB DUP3 DUP3 PUSH2 0x30BA JUMP JUMPDEST SWAP2 POP POP PUSH1 0x40 DUP5 ADD MLOAD ISZERO ISZERO PUSH1 0x60 DUP5 ADD MSTORE DUP1 SWAP2 POP POP SWAP3 SWAP2 POP POP JUMP JUMPDEST PUSH1 0x0 DUP1 PUSH1 0x0 DUP1 PUSH1 0x0 DUP1 PUSH1 0x60 DUP8 DUP10 SUB SLT ISZERO PUSH2 0x32DD JUMPI PUSH1 0x0 DUP1 REVERT JUMPDEST DUP7 CALLDATALOAD PUSH8 0xFFFFFFFFFFFFFFFF DUP1 DUP3 GT ISZERO PUSH2 0x32F5 JUMPI PUSH1 0x0 DUP1 REVERT JUMPDEST PUSH2 0x3301 DUP11 DUP4 DUP12 ADD PUSH2 0x2F54 JUMP JUMPDEST SWAP1 SWAP9 POP SWAP7 POP PUSH1 0x20 DUP10 ADD CALLDATALOAD SWAP2 POP DUP1 DUP3 GT ISZERO PUSH2 0x331A JUMPI PUSH1 0x0 DUP1 REVERT JUMPDEST PUSH2 0x3326 DUP11 DUP4 DUP12 ADD PUSH2 0x2F54 JUMP JUMPDEST SWAP1 SWAP7 POP SWAP5 POP PUSH1 0x40 DUP10 ADD CALLDATALOAD SWAP2 POP DUP1 DUP3 GT ISZERO PUSH2 0x333F JUMPI PUSH1 0x0 DUP1 REVERT JUMPDEST POP PUSH2 0x334C DUP10 DUP3 DUP11 ADD PUSH2 0x2F54 JUMP JUMPDEST SWAP8 SWAP11 SWAP7 SWAP10 POP SWAP5 SWAP8 POP SWAP3 SWAP6 SWAP4 SWAP5 SWAP3 POP POP POP JUMP JUMPDEST PUSH1 0x20 DUP1 DUP3 MSTORE PUSH1 0x30 SWAP1 DUP3 ADD MSTORE PUSH32 0x596F7572206163636F756E742069732064697361626C65642E20506C65617365 PUSH1 0x40 DUP3 ADD MSTORE PUSH16 0x1031B7B73A3930B1BA1030B236B4B717 PUSH1 0x81 SHL PUSH1 0x60 DUP3 ADD MSTORE PUSH1 0x80 ADD SWAP1 JUMP JUMPDEST PUSH4 0x4E487B71 PUSH1 0xE0 SHL PUSH1 0x0 MSTORE PUSH1 0x11 PUSH1 0x4 MSTORE PUSH1 0x24 PUSH1 0x0 REVERT JUMPDEST DUP1 DUP3 ADD DUP1 DUP3 GT ISZERO PUSH2 0xC21 JUMPI PUSH2 0xC21 PUSH2 0x33AE JUMP JUMPDEST PUSH4 0x4E487B71 PUSH1 0xE0 SHL PUSH1 0x0 MSTORE PUSH1 0x32 PUSH1 0x4 MSTORE PUSH1 0x24 PUSH1 0x0 REVERT JUMPDEST PUSH1 0x0 PUSH1 0x1 DUP3 ADD PUSH2 0x33FF JUMPI PUSH2 0x33FF PUSH2 0x33AE JUMP JUMPDEST POP PUSH1 0x1 ADD SWAP1 JUMP JUMPDEST PUSH1 0x20 DUP1 DUP3 MSTORE PUSH1 0x2C SWAP1 DUP3 ADD MSTORE PUSH32 0x46756E6374696F6E206D7573742062652063616C6C6564207468726F75676820 PUSH1 0x40 DUP3 ADD MSTORE PUSH12 0x19195B1959D85D1958D85B1B PUSH1 0xA2 SHL PUSH1 0x60 DUP3 ADD MSTORE PUSH1 0x80 ADD SWAP1 JUMP JUMPDEST PUSH1 0x20 DUP1 DUP3 MSTORE PUSH1 0x2C SWAP1 DUP3 ADD MSTORE PUSH32 0x46756E6374696F6E206D7573742062652063616C6C6564207468726F75676820 PUSH1 0x40 DUP3 ADD MSTORE PUSH12 0x6163746976652070726F7879 PUSH1 0xA0 SHL PUSH1 0x60 DUP3 ADD MSTORE PUSH1 0x80 ADD SWAP1 JUMP JUMPDEST PUSH1 0x0 PUSH1 0x20 DUP3 DUP5 SUB SLT ISZERO PUSH2 0x34B0 JUMPI PUSH1 0x0 DUP1 REVERT JUMPDEST DUP2 MLOAD PUSH2 0x144E DUP2 PUSH2 0x31B2 JUMP JUMPDEST PUSH1 0x0 PUSH1 0xFF DUP3 AND PUSH1 0xFF DUP2 SUB PUSH2 0x34D1 JUMPI PUSH2 0x34D1 PUSH2 0x33AE JUMP JUMPDEST PUSH1 0x1 ADD SWAP3 SWAP2 POP POP JUMP JUMPDEST DUP2 DUP2 SUB DUP2 DUP2 GT ISZERO PUSH2 0xC21 JUMPI PUSH2 0xC21 PUSH2 0x33AE JUMP JUMPDEST DUP1 DUP3 MUL DUP2 ISZERO DUP3 DUP3 DIV DUP5 EQ OR PUSH2 0xC21 JUMPI PUSH2 0xC21 PUSH2 0x33AE JUMP JUMPDEST PUSH1 0x0 DUP3 PUSH2 0x3521 JUMPI PUSH4 0x4E487B71 PUSH1 0xE0 SHL PUSH1 0x0 MSTORE PUSH1 0x12 PUSH1 0x4 MSTORE PUSH1 0x24 PUSH1 0x0 REVERT JUMPDEST POP DIV SWAP1 JUMP JUMPDEST PUSH1 0x0 PUSH1 0x20 DUP3 DUP5 SUB SLT ISZERO PUSH2 0x3538 JUMPI PUSH1 0x0 DUP1 REVERT JUMPDEST POP MLOAD SWAP2 SWAP1 POP JUMP JUMPDEST PUSH1 0x20 DUP1 DUP3 MSTORE PUSH1 0x2B SWAP1 DUP3 ADD MSTORE PUSH32 0x496E697469616C697A61626C653A20636F6E7472616374206973206E6F742069 PUSH1 0x40 DUP3 ADD MSTORE PUSH11 0x6E697469616C697A696E67 PUSH1 0xA8 SHL PUSH1 0x60 DUP3 ADD MSTORE PUSH1 0x80 ADD SWAP1 JUMP JUMPDEST PUSH1 0x0 JUMPDEST DUP4 DUP2 LT ISZERO PUSH2 0x35A5 JUMPI DUP2 DUP2 ADD MLOAD DUP4 DUP3 ADD MSTORE PUSH1 0x20 ADD PUSH2 0x358D JUMP JUMPDEST POP POP PUSH1 0x0 SWAP2 ADD MSTORE JUMP JUMPDEST PUSH1 0x0 DUP3 MLOAD PUSH2 0x35C0 DUP2 DUP5 PUSH1 0x20 DUP8 ADD PUSH2 0x358A JUMP JUMPDEST SWAP2 SWAP1 SWAP2 ADD SWAP3 SWAP2 POP POP JUMP JUMPDEST PUSH1 0x20 DUP2 MSTORE PUSH1 0x0 DUP3 MLOAD DUP1 PUSH1 0x20 DUP5 ADD MSTORE PUSH2 0x35E9 DUP2 PUSH1 0x40 DUP6 ADD PUSH1 0x20 DUP8 ADD PUSH2 0x358A JUMP JUMPDEST PUSH1 0x1F ADD PUSH1 0x1F NOT AND SWAP2 SWAP1 SWAP2 ADD PUSH1 0x40 ADD SWAP3 SWAP2 POP POP JUMP INVALID CALLDATASIZE ADDMOD SWAP5 LOG1 EXTCODESIZE LOG1 LOG3 0x21 MOD PUSH8 0xC828492DB98DCA3E KECCAK256 PUSH23 0xCC3735A920A3CA505D382BBC416464726573733A206C6F PUSH24 0x2D6C6576656C2064656C65676174652063616C6C20666169 PUSH13 0x6564A5BAEC7D73105A3C729820 EXTCODESIZE 0xB2 SDIV 0xBB 0xC4 SHL PUSH4 0xFA384AE7 GASPRICE PUSH1 0x16 0xB8 SWAP1 0xA7 0xCA 0x29 0xAE 0x2D LOG2 PUSH5 0x6970667358 0x22 SLT KECCAK256 SWAP14 PUSH28 0x7A4B7B9AAD9222FD946220520DA24CFE071F6121F395A3CA8CCA80B1 0xEF 0xF9 PUSH5 0x736F6C6343 STOP ADDMOD GT STOP CALLER "},"methodIdentifiers":{"activeStakersList()":"dba4358c","allStakersList()":"c06a5388","claimStakingReward(uint256)":"239cd4a4","claimStakingRewardAdmin(uint256[])":"88ed4f91","disableAccounts(address[])":"3b09098f","enableAccounts(address[])":"53bdadea","getActiveStakingIDs()":"6f72693b","getDisabledAccountsList()":"260cb4e9","getPackages()":"5c05a89f","getPresaleContract()":"f1012b45","getReferralContract()":"23442c60","getStakingCappings()":"e3a51f58","getStakingReward(uint256)":"abfe35ad","getStakingTimeRemaining(uint256)":"d8ba90b7","getTotalStakingRewardDistributed()":"7ce574bf","getTotalValueStaked()":"deede654","getUserAllStakingsRewards(address)":"9c3fe28a","getUserStakingIDs(address)":"6f51b20b","getUserTotalRewardClaimed(address)":"ae3132e8","getUserTotalStakedValue(address)":"469bbc12","initialize()":"8129fc1c","isAccountDisabled(address)":"a40b5891","isStaked(address)":"6177fd18","owner()":"8da5cb5b","pause()":"8456cb59","paused()":"5c975abb","proxiableUUID()":"52d1902d","renounceOwnership()":"715018a6","setIsPayReferralOnStaking(bool)":"9d3610dc","setMaxPackageLength(uint8)":"97eee060","setMinStakingValue(uint256)":"d596fe7f","setPackage(uint256[],uint256[],uint256[])":"fc57e69b","setRewardRateDecimals(uint8)":"aeb6263d","setTimeLimitRewardClaim(uint256)":"58628d57","stake(address,uint256)":"adc9772e","stakeInfoMap(uint256)":"a7566b75","transferOwnership(address)":"f2fde38b","unStake(uint256)":"5d3eea91","unpause()":"3f4ba83a","updatePresaleContract(address)":"1124f7dd","updateReferralContract(address)":"d3460d8a","upgradeTo(address)":"3659cfe6","upgradeToAndCall(address,bytes)":"4f1ef286","userAccountMap(address)":"ba4f678e","withdrawNativeFunds(address,uint256)":"26792aca","withdrawTokens(address,address,uint256)":"5e35359e"}},"storageLayout":{"storage":[{"astId":527,"contract":"contracts/StakingUpgradeable.sol:StakingUpgradeable","label":"_initialized","offset":0,"slot":"0","type":"t_uint8"},{"astId":530,"contract":"contracts/StakingUpgradeable.sol:StakingUpgradeable","label":"_initializing","offset":1,"slot":"0","type":"t_bool"},{"astId":1355,"contract":"contracts/StakingUpgradeable.sol:StakingUpgradeable","label":"__gap","offset":0,"slot":"1","type":"t_array(t_uint256)50_storage"},{"astId":846,"contract":"contracts/StakingUpgradeable.sol:StakingUpgradeable","label":"_paused","offset":0,"slot":"51","type":"t_bool"},{"astId":951,"contract":"contracts/StakingUpgradeable.sol:StakingUpgradeable","label":"__gap","offset":0,"slot":"52","type":"t_array(t_uint256)49_storage"},{"astId":10,"contract":"contracts/StakingUpgradeable.sol:StakingUpgradeable","label":"_owner","offset":0,"slot":"101","type":"t_address"},{"astId":130,"contract":"contracts/StakingUpgradeable.sol:StakingUpgradeable","label":"__gap","offset":0,"slot":"102","type":"t_array(t_uint256)49_storage"},{"astId":509,"contract":"contracts/StakingUpgradeable.sol:StakingUpgradeable","label":"__gap","offset":0,"slot":"151","type":"t_array(t_uint256)50_storage"},{"astId":824,"contract":"contracts/StakingUpgradeable.sol:StakingUpgradeable","label":"__gap","offset":0,"slot":"201","type":"t_array(t_uint256)50_storage"},{"astId":1485,"contract":"contracts/StakingUpgradeable.sol:StakingUpgradeable","label":"_presaleContract","offset":0,"slot":"251","type":"t_address"},{"astId":1487,"contract":"contracts/StakingUpgradeable.sol:StakingUpgradeable","label":"_referralContract","offset":0,"slot":"252","type":"t_address"},{"astId":1490,"contract":"contracts/StakingUpgradeable.sol:StakingUpgradeable","label":"_stakers","offset":0,"slot":"253","type":"t_array(t_address)dyn_storage"},{"astId":1492,"contract":"contracts/StakingUpgradeable.sol:StakingUpgradeable","label":"_totalValueStaked","offset":0,"slot":"254","type":"t_uint256"},{"astId":1494,"contract":"contracts/StakingUpgradeable.sol:StakingUpgradeable","label":"_totalRewardsDistributed","offset":0,"slot":"255","type":"t_uint256"},{"astId":1496,"contract":"contracts/StakingUpgradeable.sol:StakingUpgradeable","label":"_rewardRateDecimals","offset":0,"slot":"256","type":"t_uint16"},{"astId":1498,"contract":"contracts/StakingUpgradeable.sol:StakingUpgradeable","label":"_minStakingValue","offset":0,"slot":"257","type":"t_uint256"},{"astId":1500,"contract":"contracts/StakingUpgradeable.sol:StakingUpgradeable","label":"_isPayReferralOnStaking","offset":0,"slot":"258","type":"t_bool"},{"astId":1502,"contract":"contracts/StakingUpgradeable.sol:StakingUpgradeable","label":"_rewardClaimTimeLimit","offset":0,"slot":"259","type":"t_uint256"},{"astId":1504,"contract":"contracts/StakingUpgradeable.sol:StakingUpgradeable","label":"_maxPackageLength","offset":0,"slot":"260","type":"t_uint8"},{"astId":1545,"contract":"contracts/StakingUpgradeable.sol:StakingUpgradeable","label":"account","offset":0,"slot":"261","type":"t_mapping(t_address,t_struct(Account)1513_storage)"},{"astId":1550,"contract":"contracts/StakingUpgradeable.sol:StakingUpgradeable","label":"stakeInfo","offset":0,"slot":"262","type":"t_mapping(t_uint256,t_struct(StakeInfo)1533_storage)"},{"astId":1555,"contract":"contracts/StakingUpgradeable.sol:StakingUpgradeable","label":"package","offset":0,"slot":"263","type":"t_mapping(t_uint256,t_struct(Package)1540_storage)"}],"types":{"t_address":{"encoding":"inplace","label":"address","numberOfBytes":"20"},"t_array(t_address)dyn_storage":{"base":"t_address","encoding":"dynamic_array","label":"address[]","numberOfBytes":"32"},"t_array(t_uint256)49_storage":{"base":"t_uint256","encoding":"inplace","label":"uint256[49]","numberOfBytes":"1568"},"t_array(t_uint256)50_storage":{"base":"t_uint256","encoding":"inplace","label":"uint256[50]","numberOfBytes":"1600"},"t_array(t_uint256)dyn_storage":{"base":"t_uint256","encoding":"dynamic_array","label":"uint256[]","numberOfBytes":"32"},"t_bool":{"encoding":"inplace","label":"bool","numberOfBytes":"1"},"t_mapping(t_address,t_struct(Account)1513_storage)":{"encoding":"mapping","key":"t_address","label":"mapping(address => struct StakingUpgradeable.Account)","numberOfBytes":"32","value":"t_struct(Account)1513_storage"},"t_mapping(t_uint256,t_struct(Package)1540_storage)":{"encoding":"mapping","key":"t_uint256","label":"mapping(uint256 => struct StakingUpgradeable.Package)","numberOfBytes":"32","value":"t_struct(Package)1540_storage"},"t_mapping(t_uint256,t_struct(StakeInfo)1533_storage)":{"encoding":"mapping","key":"t_uint256","label":"mapping(uint256 => struct StakingUpgradeable.StakeInfo)","numberOfBytes":"32","value":"t_struct(StakeInfo)1533_storage"},"t_struct(Account)1513_storage":{"encoding":"inplace","label":"struct StakingUpgradeable.Account","members":[{"astId":1507,"contract":"contracts/StakingUpgradeable.sol:StakingUpgradeable","label":"stakingID","offset":0,"slot":"0","type":"t_array(t_uint256)dyn_storage"},{"astId":1510,"contract":"contracts/StakingUpgradeable.sol:StakingUpgradeable","label":"blockNumber","offset":0,"slot":"1","type":"t_array(t_uint256)dyn_storage"},{"astId":1512,"contract":"contracts/StakingUpgradeable.sol:StakingUpgradeable","label":"isDisabled","offset":0,"slot":"2","type":"t_bool"}],"numberOfBytes":"96"},"t_struct(Package)1540_storage":{"encoding":"inplace","label":"struct StakingUpgradeable.Package","members":[{"astId":1535,"contract":"contracts/StakingUpgradeable.sol:StakingUpgradeable","label":"value","offset":0,"slot":"0","type":"t_uint256"},{"astId":1537,"contract":"contracts/StakingUpgradeable.sol:StakingUpgradeable","label":"rewardRate","offset":0,"slot":"1","type":"t_uint256"},{"astId":1539,"contract":"contracts/StakingUpgradeable.sol:StakingUpgradeable","label":"duration","offset":0,"slot":"2","type":"t_uint256"}],"numberOfBytes":"96"},"t_struct(StakeInfo)1533_storage":{"encoding":"inplace","label":"struct StakingUpgradeable.StakeInfo","members":[{"astId":1515,"contract":"contracts/StakingUpgradeable.sol:StakingUpgradeable","label":"isStaked","offset":0,"slot":"0","type":"t_bool"},{"astId":1517,"contract":"contracts/StakingUpgradeable.sol:StakingUpgradeable","label":"owner","offset":1,"slot":"0","type":"t_address"},{"astId":1519,"contract":"contracts/StakingUpgradeable.sol:StakingUpgradeable","label":"value","offset":0,"slot":"1","type":"t_uint256"},{"astId":1521,"contract":"contracts/StakingUpgradeable.sol:StakingUpgradeable","label":"rewardRate","offset":0,"slot":"2","type":"t_uint256"},{"astId":1523,"contract":"contracts/StakingUpgradeable.sol:StakingUpgradeable","label":"startTime","offset":0,"slot":"3","type":"t_uint256"},{"astId":1525,"contract":"contracts/StakingUpgradeable.sol:StakingUpgradeable","label":"duration","offset":0,"slot":"4","type":"t_uint256"},{"astId":1527,"contract":"contracts/StakingUpgradeable.sol:StakingUpgradeable","label":"rewardClaimed","offset":0,"slot":"5","type":"t_uint256"},{"astId":1529,"contract":"contracts/StakingUpgradeable.sol:StakingUpgradeable","label":"lastTimeRewardClaimed","offset":0,"slot":"6","type":"t_uint256"},{"astId":1532,"contract":"contracts/StakingUpgradeable.sol:StakingUpgradeable","label":"blockNumber","offset":0,"slot":"7","type":"t_array(t_uint256)dyn_storage"}],"numberOfBytes":"256"},"t_uint16":{"encoding":"inplace","label":"uint16","numberOfBytes":"2"},"t_uint256":{"encoding":"inplace","label":"uint256","numberOfBytes":"32"},"t_uint8":{"encoding":"inplace","label":"uint8","numberOfBytes":"1"}}}}}}