{"contracts/StakingUpgradeable.sol":{"StakingUpgradeable":{"abi":[{"anonymous":false,"inputs":[{"indexed":false,"internalType":"address","name":"previousAdmin","type":"address"},{"indexed":false,"internalType":"address","name":"newAdmin","type":"address"}],"name":"AdminChanged","type":"event"},{"anonymous":false,"inputs":[{"indexed":true,"internalType":"address","name":"beacon","type":"address"}],"name":"BeaconUpgraded","type":"event"},{"anonymous":false,"inputs":[{"indexed":false,"internalType":"uint8","name":"version","type":"uint8"}],"name":"Initialized","type":"event"},{"anonymous":false,"inputs":[{"indexed":true,"internalType":"address","name":"previousOwner","type":"address"},{"indexed":true,"internalType":"address","name":"newOwner","type":"address"}],"name":"OwnershipTransferred","type":"event"},{"anonymous":false,"inputs":[{"indexed":false,"internalType":"address","name":"account","type":"address"}],"name":"Paused","type":"event"},{"anonymous":false,"inputs":[{"indexed":true,"internalType":"address","name":"userAddress","type":"address"},{"indexed":true,"internalType":"uint256","name":"valueStaked","type":"uint256"},{"indexed":true,"internalType":"uint256","name":"duration","type":"uint256"},{"indexed":false,"internalType":"uint256","name":"stakingID","type":"uint256"}],"name":"Stake","type":"event"},{"anonymous":false,"inputs":[{"indexed":true,"internalType":"address","name":"userAddress","type":"address"},{"indexed":true,"internalType":"uint256","name":"reward","type":"uint256"},{"indexed":true,"internalType":"uint256","name":"stakingID","type":"uint256"},{"indexed":false,"internalType":"address","name":"tokenAddress","type":"address"}],"name":"StakingRewardClaimed","type":"event"},{"anonymous":false,"inputs":[{"indexed":false,"internalType":"address","name":"account","type":"address"}],"name":"Unpaused","type":"event"},{"anonymous":false,"inputs":[{"indexed":true,"internalType":"address","name":"userAddress","type":"address"},{"indexed":true,"internalType":"uint256","name":"valueStaked","type":"uint256"},{"indexed":true,"internalType":"uint256","name":"stakingID","type":"uint256"}],"name":"Unstake","type":"event"},{"anonymous":false,"inputs":[{"indexed":true,"internalType":"address","name":"implementation","type":"address"}],"name":"Upgraded","type":"event"},{"inputs":[],"name":"activeStakersList","outputs":[{"internalType":"address[]","name":"","type":"address[]"}],"stateMutability":"view","type":"function"},{"inputs":[],"name":"allStakersList","outputs":[{"internalType":"address[]","name":"","type":"address[]"}],"stateMutability":"view","type":"function"},{"inputs":[{"internalType":"uint256","name":"_stakingID","type":"uint256"}],"name":"claimStakingReward","outputs":[],"stateMutability":"nonpayable","type":"function"},{"inputs":[{"internalType":"address[]","name":"_userAddress","type":"address[]"}],"name":"disableAccounts","outputs":[],"stateMutability":"nonpayable","type":"function"},{"inputs":[{"internalType":"address[]","name":"_userAddress","type":"address[]"}],"name":"enableAccounts","outputs":[],"stateMutability":"nonpayable","type":"function"},{"inputs":[],"name":"getActiveStakingIDs","outputs":[{"internalType":"uint256[]","name":"activeStakingIDs","type":"uint256[]"}],"stateMutability":"view","type":"function"},{"inputs":[],"name":"getDisabledAccountsList","outputs":[{"internalType":"address[]","name":"","type":"address[]"}],"stateMutability":"view","type":"function"},{"inputs":[],"name":"getStakingCappings","outputs":[{"internalType":"uint256","name":"minStakingValue","type":"uint256"},{"internalType":"uint256","name":"stakingRewardRate","type":"uint256"},{"internalType":"uint256","name":"stakingDuration","type":"uint256"},{"internalType":"uint256","name":"stakingRewardClaimTimeLimit","type":"uint256"}],"stateMutability":"view","type":"function"},{"inputs":[{"internalType":"uint256","name":"_stakingID","type":"uint256"}],"name":"getStakingReward","outputs":[{"internalType":"uint256","name":"","type":"uint256"}],"stateMutability":"view","type":"function"},{"inputs":[{"internalType":"uint256","name":"_stakingID","type":"uint256"}],"name":"getStakingTimeRemaining","outputs":[{"internalType":"uint256","name":"","type":"uint256"}],"stateMutability":"view","type":"function"},{"inputs":[],"name":"getTotalStakingRewardDistributed","outputs":[{"internalType":"uint256","name":"_tokenRewards","type":"uint256"},{"internalType":"uint256","name":"_ansudRewards","type":"uint256"}],"stateMutability":"view","type":"function"},{"inputs":[],"name":"getTotalValueStaked","outputs":[{"internalType":"uint256","name":"","type":"uint256"}],"stateMutability":"view","type":"function"},{"inputs":[{"internalType":"address","name":"_userAddress","type":"address"}],"name":"getUserAllStakingsRewards","outputs":[{"internalType":"uint256","name":"","type":"uint256"}],"stateMutability":"view","type":"function"},{"inputs":[{"internalType":"address","name":"_userAddress","type":"address"}],"name":"getUserStakingIDs","outputs":[{"internalType":"uint256[]","name":"","type":"uint256[]"}],"stateMutability":"view","type":"function"},{"inputs":[{"internalType":"address","name":"_userAddress","type":"address"}],"name":"getUserTotalRewardClaimed","outputs":[{"internalType":"uint256","name":"totalRewardClaim","type":"uint256"}],"stateMutability":"view","type":"function"},{"inputs":[{"internalType":"address","name":"_userAddress","type":"address"}],"name":"getUserTotalStakedValue","outputs":[{"internalType":"uint256","name":"userTotalValueStaked","type":"uint256"}],"stateMutability":"view","type":"function"},{"inputs":[],"name":"initialize","outputs":[],"stateMutability":"nonpayable","type":"function"},{"inputs":[{"internalType":"address","name":"_userAddress","type":"address"}],"name":"isAccountDisabled","outputs":[{"internalType":"bool","name":"","type":"bool"}],"stateMutability":"view","type":"function"},{"inputs":[{"internalType":"address","name":"_userAddress","type":"address"}],"name":"isStaked","outputs":[{"internalType":"bool","name":"","type":"bool"}],"stateMutability":"view","type":"function"},{"inputs":[],"name":"owner","outputs":[{"internalType":"address","name":"","type":"address"}],"stateMutability":"view","type":"function"},{"inputs":[],"name":"pause","outputs":[],"stateMutability":"nonpayable","type":"function"},{"inputs":[],"name":"paused","outputs":[{"internalType":"bool","name":"","type":"bool"}],"stateMutability":"view","type":"function"},{"inputs":[],"name":"proxiableUUID","outputs":[{"internalType":"bytes32","name":"","type":"bytes32"}],"stateMutability":"view","type":"function"},{"inputs":[],"name":"renounceOwnership","outputs":[],"stateMutability":"nonpayable","type":"function"},{"inputs":[{"internalType":"uint256","name":"_value","type":"uint256"}],"name":"setMinStakingValue","outputs":[{"internalType":"uint256","name":"","type":"uint256"}],"stateMutability":"nonpayable","type":"function"},{"inputs":[{"internalType":"uint256","name":"_valueInDays","type":"uint256"}],"name":"setStakingDuration","outputs":[],"stateMutability":"nonpayable","type":"function"},{"inputs":[{"internalType":"uint256","name":"_valueInDays","type":"uint256"}],"name":"setStakingRewardClaimTimeLimity","outputs":[],"stateMutability":"nonpayable","type":"function"},{"inputs":[{"internalType":"uint256","name":"_valueInPer","type":"uint256"}],"name":"setStakingRewardRate","outputs":[],"stateMutability":"nonpayable","type":"function"},{"inputs":[{"internalType":"uint256","name":"_valueInWei","type":"uint256"}],"name":"stake","outputs":[],"stateMutability":"nonpayable","type":"function"},{"inputs":[{"internalType":"address","name":"_userAddress","type":"address"},{"internalType":"uint256","name":"_valueInWei","type":"uint256"}],"name":"stakeByAdmin","outputs":[],"stateMutability":"nonpayable","type":"function"},{"inputs":[{"internalType":"uint256","name":"_stakingID","type":"uint256"}],"name":"stakeInfoMap","outputs":[{"components":[{"internalType":"bool","name":"isStaked","type":"bool"},{"internalType":"address","name":"owner","type":"address"},{"internalType":"uint256","name":"value","type":"uint256"},{"internalType":"uint256","name":"rewardRate","type":"uint256"},{"internalType":"uint256","name":"startTime","type":"uint256"},{"internalType":"uint256","name":"duration","type":"uint256"},{"internalType":"uint256","name":"rewardClaimed","type":"uint256"},{"internalType":"uint256","name":"rewardClaimedAUSD","type":"uint256"},{"internalType":"uint256","name":"lastTimeRewardClaimed","type":"uint256"},{"internalType":"uint256[]","name":"blockNumber","type":"uint256[]"}],"internalType":"struct StakingUpgradeable.StakeInfo","name":"","type":"tuple"}],"stateMutability":"view","type":"function"},{"inputs":[{"internalType":"address","name":"newOwner","type":"address"}],"name":"transferOwnership","outputs":[],"stateMutability":"nonpayable","type":"function"},{"inputs":[],"name":"unpause","outputs":[],"stateMutability":"nonpayable","type":"function"},{"inputs":[{"internalType":"address","name":"newImplementation","type":"address"}],"name":"upgradeTo","outputs":[],"stateMutability":"nonpayable","type":"function"},{"inputs":[{"internalType":"address","name":"newImplementation","type":"address"},{"internalType":"bytes","name":"data","type":"bytes"}],"name":"upgradeToAndCall","outputs":[],"stateMutability":"payable","type":"function"},{"inputs":[{"internalType":"address","name":"_userAddress","type":"address"}],"name":"userAccountMap","outputs":[{"components":[{"internalType":"uint256[]","name":"stakingID","type":"uint256[]"},{"internalType":"uint256[]","name":"blockNumber","type":"uint256[]"},{"internalType":"bool","name":"isDisabled","type":"bool"}],"internalType":"struct StakingUpgradeable.Account","name":"","type":"tuple"}],"stateMutability":"view","type":"function"},{"inputs":[{"internalType":"address","name":"_receiver","type":"address"},{"internalType":"uint256","name":"_value","type":"uint256"}],"name":"withdrawNativeFunds","outputs":[{"internalType":"bool","name":"","type":"bool"}],"stateMutability":"nonpayable","type":"function"},{"inputs":[{"internalType":"address","name":"_tokenAddress","type":"address"},{"internalType":"address","name":"_receiver","type":"address"},{"internalType":"uint256","name":"_value","type":"uint256"}],"name":"withdrawTokens","outputs":[{"internalType":"bool","name":"","type":"bool"}],"stateMutability":"nonpayable","type":"function"},{"stateMutability":"payable","type":"receive"}],"evm":{"bytecode":{"linkReferences":{},"object":"60a06040523060805234801561001457600080fd5b506080516135a261004c60003960008181610da001528181610de0015281816110040152818161104401526110d701526135a26000f3fe6080604052600436106102295760003560e01c80637ce574bf11610123578063ae3132e8116100ab578063d8ba90b71161006f578063d8ba90b714610677578063dba4358c14610697578063deede654146106ac578063e3a51f58146106c1578063f2fde38b146106fe57600080fd5b8063ae3132e8146105d5578063b7d68519146105f5578063ba4f678e14610615578063c06a538814610642578063d596fe7f1461065757600080fd5b80639c3fe28a116100f25780639c3fe28a1461050b578063a40b58911461052b578063a694fc3a14610568578063a7566b7514610588578063abfe35ad146105b557600080fd5b80637ce574bf1461048c5780638129fc1c146104b95780638456cb59146104ce5780638da5cb5b146104e357600080fd5b806353bdadea116101b15780636a50eefa116101755780636a50eefa146103f55780636a8ca691146104155780636f51b20b146104355780636f72693b14610462578063715018a61461047757600080fd5b806353bdadea1461035d5780635c975abb1461037d5780635cbfd021146103955780635e35359e146103b55780636177fd18146103d557600080fd5b80633b09098f116101f85780633b09098f146102d25780633f4ba83a146102f2578063469bbc12146103075780634f1ef2861461033557806352d1902d1461034857600080fd5b8063239cd4a414610235578063260cb4e91461025757806326792aca146102825780633659cfe6146102b257600080fd5b3661023057005b600080fd5b34801561024157600080fd5b50610255610250366004612e49565b61071e565b005b34801561026357600080fd5b5061026c610bce565b6040516102799190612ea6565b60405180910390f35b34801561028e57600080fd5b506102a261029d366004612ece565b610d4a565b6040519015158152602001610279565b3480156102be57600080fd5b506102556102cd366004612efa565b610d96565b3480156102de57600080fd5b506102556102ed366004612f17565b610e75565b3480156102fe57600080fd5b50610255610f06565b34801561031357600080fd5b50610327610322366004612efa565b610f18565b604051908152602001610279565b610255610343366004612fd3565b610ffa565b34801561035457600080fd5b506103276110ca565b34801561036957600080fd5b50610255610378366004612f17565b61117d565b34801561038957600080fd5b5060335460ff166102a2565b3480156103a157600080fd5b506102556103b0366004612e49565b611203565b3480156103c157600080fd5b506102a26103d036600461307b565b61121f565b3480156103e157600080fd5b506102a26103f0366004612efa565b6112a9565b34801561040157600080fd5b50610255610410366004612ece565b611367565b34801561042157600080fd5b50610255610430366004612e49565b611488565b34801561044157600080fd5b50610455610450366004612efa565b6114a4565b60405161027991906130ec565b34801561046e57600080fd5b50610455611511565b34801561048357600080fd5b50610255611680565b34801561049857600080fd5b506104a460ff54600091565b60408051928352602083019190915201610279565b3480156104c557600080fd5b50610255611692565b3480156104da57600080fd5b506102556117fc565b3480156104ef57600080fd5b506065546040516001600160a01b039091168152602001610279565b34801561051757600080fd5b50610327610526366004612efa565b61180c565b34801561053757600080fd5b506102a2610546366004612efa565b6001600160a01b03166000908152610104602052604090206002015460ff1690565b34801561057457600080fd5b50610255610583366004612e49565b6118f5565b34801561059457600080fd5b506105a86105a3366004612e49565b611b4b565b60405161027991906130ff565b3480156105c157600080fd5b506103276105d0366004612e49565b611c8a565b3480156105e157600080fd5b506103276105f0366004612efa565b611c95565b34801561060157600080fd5b50610255610610366004612e49565b611d45565b34801561062157600080fd5b50610635610630366004612efa565b611d53565b60405161027991906131a3565b34801561064e57600080fd5b5061026c611e4d565b34801561066357600080fd5b50610327610672366004612e49565b611f97565b34801561068357600080fd5b50610327610692366004612e49565b611fab565b3480156106a357600080fd5b5061026c612010565b3480156106b857600080fd5b5060fd54610327565b3480156106cd57600080fd5b5061010054610101546101025461010354604080519485526020850193909352918301526060820152608001610279565b34801561070a57600080fd5b50610255610719366004612efa565b612174565b6000610729826121ea565b9050600081116107805760405162461bcd60e51b815260206004820152601c60248201527f596f752068617665206e6f207374616b696e67206f6e20656e6465640000000060448201526064015b60405180910390fd5b60fb546001600160a01b0316600061079960028461320b565b905060006108746107ab60028661320b565b846001600160a01b03166355a373d66040518163ffffffff1660e01b8152600401602060405180830381865afa1580156107e9573d6000803e3d6000fd5b505050506040513d601f19601f8201168201806040525081019061080d919061322d565b856001600160a01b031663b70cc4c16040518163ffffffff1660e01b8152600401602060405180830381865afa15801561084b573d6000803e3d6000fd5b505050506040513d601f19601f8201168201806040525081019061086f919061322d565b612273565b600086815261010560209081526040808320338085526101049093529220825493945090924390429061010090046001600160a01b031685146109095760405162461bcd60e51b815260206004820152602760248201527f536f727279207374616b696e6720696420646f656e27742062656c6f6e6773206044820152663a37903cb7ba9760c91b6064820152608401610777565b600283015460ff16156109765760405162461bcd60e51b815260206004820152602f60248201527f596f7572206163636f756e742069732064697361626c65642e20506c6561736560448201526e1031b7b73a30b1ba1030b236b4b71760891b6064820152608401610777565b4261010354856007015461098a919061324a565b116109e95760405162461bcd60e51b815260206004820152602960248201527f596f752063616e6e6f7420636c61696d20726577617264206265666f7265207460448201526834b6b2b634b6b4ba1760b91b6064820152608401610777565b6109f9858b86868b8b87896123fd565b610a028a6121ea565b600003610a1257835460ff191684555b876001600160a01b03166355a373d66040518163ffffffff1660e01b8152600401602060405180830381865afa158015610a50573d6000803e3d6000fd5b505050506040513d601f19601f82011682018060405250810190610a74919061322d565b60405163a9059cbb60e01b81526001600160a01b038781166004830152602482018a9052919091169063a9059cbb906044016020604051808303816000875af1158015610ac5573d6000803e3d6000fd5b505050506040513d601f19601f82011682018060405250810190610ae9919061325d565b50876001600160a01b031663b70cc4c16040518163ffffffff1660e01b8152600401602060405180830381865afa158015610b28573d6000803e3d6000fd5b505050506040513d601f19601f82011682018060405250810190610b4c919061322d565b60405163a9059cbb60e01b81526001600160a01b03878116600483015260248201899052919091169063a9059cbb906044016020604051808303816000875af1158015610b9d573d6000803e3d6000fd5b505050506040513d601f19601f82011682018060405250810190610bc1919061325d565b5050505050505050505050565b6000808052610104602090815260fc80546040805182850281018501909152818152606094937f0c81ce4857d5b94b8c75139d9e9e2911ece8cd067eddba6000e40a08e09d56439385939091830182828015610c5357602002820191906000526020600020905b81546001600160a01b03168152600190910190602001808311610c35575b5050505050905060008151905060008167ffffffffffffffff811115610c7b57610c7b612f8c565b604051908082528060200260200182016040528015610ca4578160200160208202803683370190505b5090506000805b83811015610d3e57848181518110610cc557610cc561327f565b60200260200101519650610cd98388612622565b1515600114610d2c57600286015460ff161515600103610d2c5786838381518110610d0657610d0661327f565b6001600160a01b039092166020928302919091019091015281610d2881613295565b9250505b80610d3681613295565b915050610cab565b50909695505050505050565b6000610d54612687565b6040516001600160a01b0384169083156108fc029084906000818181858888f19350505050158015610d8a573d6000803e3d6000fd5b50600190505b92915050565b6001600160a01b037f0000000000000000000000000000000000000000000000000000000000000000163003610dde5760405162461bcd60e51b8152600401610777906132ae565b7f00000000000000000000000000000000000000000000000000000000000000006001600160a01b0316610e27600080516020613526833981519152546001600160a01b031690565b6001600160a01b031614610e4d5760405162461bcd60e51b8152600401610777906132fa565b610e56816126e1565b60408051600080825260208201909252610e72918391906126e9565b50565b610e7d612687565b60008080526101046020527f0c81ce4857d5b94b8c75139d9e9e2911ece8cd067eddba6000e40a08e09d564382825b81811015610efe57858582818110610ec657610ec661327f565b9050602002016020810190610edb9190612efa565b60028401805460ff19166001179055935080610ef681613295565b915050610eac565b505050505050565b610f0e612687565b610f16612859565b565b6001600160a01b038116600090815261010460209081526040808320805482518185028101850190935280835290928492918491830182828015610f7b57602002820191906000526020600020905b815481526020019060010190808311610f67575b505083519394506000925050505b81811015610ff157610fb3838281518110610fa657610fa661327f565b6020026020010151611b4b565b5115610fdf57610fce838281518110610fa657610fa661327f565b60400151610fdc908661324a565b94505b80610fe981613295565b915050610f89565b50505050919050565b6001600160a01b037f00000000000000000000000000000000000000000000000000000000000000001630036110425760405162461bcd60e51b8152600401610777906132ae565b7f00000000000000000000000000000000000000000000000000000000000000006001600160a01b031661108b600080516020613526833981519152546001600160a01b031690565b6001600160a01b0316146110b15760405162461bcd60e51b8152600401610777906132fa565b6110ba826126e1565b6110c6828260016126e9565b5050565b6000306001600160a01b037f0000000000000000000000000000000000000000000000000000000000000000161461116a5760405162461bcd60e51b815260206004820152603860248201527f555550535570677261646561626c653a206d757374206e6f742062652063616c60448201527f6c6564207468726f7567682064656c656761746563616c6c00000000000000006064820152608401610777565b5060008051602061352683398151915290565b611185612687565b60008080526101046020527f0c81ce4857d5b94b8c75139d9e9e2911ece8cd067eddba6000e40a08e09d564382825b81811015610efe578585828181106111ce576111ce61327f565b90506020020160208101906111e39190612efa565b60028401805460ff191690559350806111fb81613295565b9150506111b4565b61120b612687565b6112188162015180613346565b6101035550565b6000611229612687565b60405163a9059cbb60e01b81526001600160a01b0384811660048301526024820184905285169063a9059cbb906044016020604051808303816000875af1158015611278573d6000803e3d6000fd5b505050506040513d601f19601f8201168201806040525081019061129c919061325d565b50600190505b9392505050565b6001600160a01b03811660009081526101046020908152604080832080548251818502810185019093528083529092849291849183018282801561130c57602002820191906000526020600020905b8154815260200190600101908083116112f8575b505083519394506000925050505b8181101561135b57611337838281518110610fa657610fa661327f565b51156113495750600195945050505050565b8061135381613295565b91505061131a565b50600095945050505050565b60fb5433906001600160a01b03166113876065546001600160a01b031690565b6001600160a01b0316826001600160a01b031614806114185750806001600160a01b03166363d9df856040518163ffffffff1660e01b8152600401602060405180830381865afa1580156113df573d6000803e3d6000fd5b505050506040513d601f19601f82011682018060405250810190611403919061322d565b6001600160a01b0316826001600160a01b0316145b61146f5760405162461bcd60e51b815260206004820152602260248201527f4f6e6c79206f776e65722063616e2063616c6c20746869732066756e6374696f604482015261371760f11b6064820152608401610777565b611481848461010154610102546128ab565b5050505050565b611490612687565b61149d8162015180613346565b6101025550565b6001600160a01b0381166000908152610104602090815260409182902080548351818402810184019094528084526060939283018282801561150557602002820191906000526020600020905b8154815260200190600101908083116114f1575b50505050509050919050565b60fc546060906000805b828110156115565761152c81611b4b565b511515600103611544578161154081613295565b9250505b8061154e81613295565b91505061151b565b5060008167ffffffffffffffff81111561157257611572612f8c565b60405190808252806020026020018201604052801561159b578160200160208202803683370190505b50905060008267ffffffffffffffff8111156115b9576115b9612f8c565b6040519080825280602002602001820160405280156115e2578160200160208202803683370190505b50905060005b84811015611676576115f981611b4b565b51151560010361162d5761160e81600161324a565b8382815181106116205761162061327f565b6020026020010181815250505b61163681611b4b565b6020015182828151811061164c5761164c61327f565b6001600160a01b03909216602092830291909101909101528061166e81613295565b9150506115e8565b5090949350505050565b611688612687565b610f166000612a02565b600054610100900460ff16158080156116b25750600054600160ff909116105b806116cc5750303b1580156116cc575060005460ff166001145b61172f5760405162461bcd60e51b815260206004820152602e60248201527f496e697469616c697a61626c653a20636f6e747261637420697320616c72656160448201526d191e481a5b9a5d1a585b1a5e995960921b6064820152608401610777565b6000805460ff191660011790558015611752576000805461ff0019166101001790555b60fb80546001600160a01b03191673be5153baa3756402b08fd830e7b5f00a76e68231179055678ac7230489e800006101005560c8610101556303c267006101025562278d00610103556117a4612a54565b6117ac612a83565b6117b4612ab2565b8015610e72576000805461ff0019169055604051600181527f7f26b83ff96e1f2b6a682f133852f6798a09c465da95921460cefb38474024989060200160405180910390a150565b611804612687565b610f16612ad9565b6001600160a01b0381166000908152610104602090815260408083208054825181850281018501909352808352849383018282801561186a57602002820191906000526020600020905b815481526020019060010190808311611856575b505050505090506000815190506000805b828160ff1610156118ec5761189e848260ff1681518110610fa657610fa661327f565b5115156001036118da576118cd848260ff16815181106118c0576118c061327f565b60200260200101516121ea565b6118d7908361324a565b91505b806118e48161335d565b91505061187b565b50949350505050565b6118fd612b16565b60fb5460408051632ad1b9eb60e11b81529051339284926001600160a01b039091169182916355a373d69160048083019260209291908290030181865afa15801561194c573d6000803e3d6000fd5b505050506040513d601f19601f82011682018060405250810190611970919061322d565b6040516323b872dd60e01b81526001600160a01b0385811660048301523060248301526044820185905291909116906323b872dd906064016020604051808303816000875af11580156119c7573d6000803e3d6000fd5b505050506040513d601f19601f820116820180604052508101906119eb919061325d565b50806001600160a01b031663b70cc4c16040518163ffffffff1660e01b8152600401602060405180830381865afa158015611a2a573d6000803e3d6000fd5b505050506040513d601f19601f82011682018060405250810190611a4e919061322d565b6001600160a01b03166323b872dd8430846001600160a01b0316634bc92d6c6040518163ffffffff1660e01b8152600401602060405180830381865afa158015611a9c573d6000803e3d6000fd5b505050506040513d601f19601f82011682018060405250810190611ac0919061337c565b6040516001600160e01b031960e086901b1681526001600160a01b03938416600482015292909116602483015260448201526064016020604051808303816000875af1158015611b14573d6000803e3d6000fd5b505050506040513d601f19601f82011682018060405250810190611b38919061325d565b50611481838361010154610102546128ab565b611bac60405180610140016040528060001515815260200160006001600160a01b0316815260200160008152602001600081526020016000815260200160008152602001600081526020016000815260200160008152602001606081525090565b60008281526101056020908152604091829020825161014081018452815460ff8116151582526001600160a01b036101009182900416828501526001830154828601526002830154606083015260038301546080830152600483015460a0830152600583015460c0830152600683015460e0830152600783015490820152600882018054855181860281018601909652808652919492936101208601939290830182828015611c7a57602002820191906000526020600020905b815481526020019060010190808311611c66575b5050505050815250509050919050565b6000610d90826121ea565b6001600160a01b038116600090815261010460209081526040808320805482518185028101850190935280835290928492918491830182828015611cf857602002820191906000526020600020905b815481526020019060010190808311611ce4575b505083519394506000925050505b81811015610ff157611d23838281518110610fa657610fa661327f565b60c00151611d31908661324a565b945080611d3d81613295565b915050611d06565b611d4d612687565b61010155565b6040805160608082018352808252602080830182905260008385018190526001600160a01b03861681526101048252849020845181549283028101608090810190965292830182815293949293909284928491840182828015611dd557602002820191906000526020600020905b815481526020019060010190808311611dc1575b5050505050815260200160018201805480602002602001604051908101604052809291908181526020018280548015611e2d57602002820191906000526020600020905b815481526020019060010190808311611e19575b50505091835250506002919091015460ff16151560209091015292915050565b6060600060fc805480602002602001604051908101604052809291908181526020018280548015611ea757602002820191906000526020600020905b81546001600160a01b03168152600190910190602001808311611e89575b5050505050905060008151905060008167ffffffffffffffff811115611ecf57611ecf612f8c565b604051908082528060200260200182016040528015611ef8578160200160208202803683370190505b5090506000805b8381101561167657611f2a83868381518110611f1d57611f1d61327f565b6020026020010151612622565b1515600114611f8557848181518110611f4557611f4561327f565b6020026020010151838381518110611f5f57611f5f61327f565b6001600160a01b039092166020928302919091019091015281611f8181613295565b9250505b80611f8f81613295565b915050611eff565b6000611fa1612687565b5061010081905590565b600081815261010560205260408120600481015460038201544292918491611fd3919061324a565b905080831015612005578282600401548360030154611ff2919061324a565b611ffc9190613395565b95945050505050565b506000949350505050565b6060600060fc80548060200260200160405190810160405280929190818152602001828054801561206a57602002820191906000526020600020905b81546001600160a01b0316815260019091019060200180831161204c575b5050505050905060008151905060008167ffffffffffffffff81111561209257612092612f8c565b6040519080825280602002602001820160405280156120bb578160200160208202803683370190505b5090506000805b83811015611676576120e083868381518110611f1d57611f1d61327f565b15156001146121625761210b8582815181106120fe576120fe61327f565b60200260200101516112a9565b15612162578481815181106121225761212261327f565b602002602001015183838151811061213c5761213c61327f565b6001600160a01b03909216602092830291909101909101528161215e81613295565b9250505b8061216c81613295565b9150506120c2565b61217c612687565b6001600160a01b0381166121e15760405162461bcd60e51b815260206004820152602660248201527f4f776e61626c653a206e6577206f776e657220697320746865207a65726f206160448201526564647265737360d01b6064820152608401610777565b610e7281612a02565b6000818152610105602052604081206003810154429190839061220d9084613395565b90506000826004015460648460020154856001015461222c9190613346565b612236919061320b565b612240919061320b565b90508260050154612255838560040154612b5c565b61225f9083613346565b6122699190613395565b9695505050505050565b6040805160028082526060820183526000928392919060208301908036833701905050905083816000815181106122ac576122ac61327f565b60200260200101906001600160a01b031690816001600160a01b03168152505082816001815181106122e0576122e061327f565b6001600160a01b0392831660209182029290920181019190915260fb5460408051634148625360e11b8152905191909316926000928492638290c4a69260048082019392918290030181865afa15801561233e573d6000803e3d6000fd5b505050506040513d601f19601f82011682018060405250810190612362919061322d565b6001600160a01b031663d06ca61f88856040518363ffffffff1660e01b815260040161238f9291906133a8565b600060405180830381865afa1580156123ac573d6000803e3d6000fd5b505050506040513d6000823e601f3d908101601f191682016040526123d491908101906133c1565b9050806001815181106123e9576123e961327f565b602002602001015193505050509392505050565b83866005016000828254612411919061324a565b925050819055508286600601600082825461242c919061324a565b90915550506007860182905560088601805460018181018355600092835260208084209092018490558781018054918201815583529082200182905560fe805486929061247a90849061324a565b925050819055508260ff6000828254612493919061324a565b925050819055508684896001600160a01b03167ffec605188cf64597b9aa9cf424a9bba4a84ffb09f9f66c932d6efa1b96fcc7e460fb60009054906101000a90046001600160a01b03166001600160a01b03166355a373d66040518163ffffffff1660e01b8152600401602060405180830381865afa15801561251a573d6000803e3d6000fd5b505050506040513d601f19601f8201168201806040525081019061253e919061322d565b6040516001600160a01b03909116815260200160405180910390a48683896001600160a01b03167ffec605188cf64597b9aa9cf424a9bba4a84ffb09f9f66c932d6efa1b96fcc7e460fb60009054906101000a90046001600160a01b03166001600160a01b031663b70cc4c16040518163ffffffff1660e01b8152600401602060405180830381865afa1580156125d9573d6000803e3d6000fd5b505050506040513d601f19601f820116820180604052508101906125fd919061322d565b6040516001600160a01b03909116815260200160405180910390a45050505050505050565b6000805b835181101561267d57826001600160a01b031684828151811061264b5761264b61327f565b60200260200101516001600160a01b03160361266b576001915050610d90565b8061267581613295565b915050612626565b5060009392505050565b6065546001600160a01b03163314610f165760405162461bcd60e51b815260206004820181905260248201527f4f776e61626c653a2063616c6c6572206973206e6f7420746865206f776e65726044820152606401610777565b610e72612687565b7f4910fdfa16fed3260ed0e7147f7cc6da11a60208b5b9406d12a635614ffd91435460ff16156127215761271c83612b72565b505050565b826001600160a01b03166352d1902d6040518163ffffffff1660e01b8152600401602060405180830381865afa92505050801561277b575060408051601f3d908101601f191682019092526127789181019061337c565b60015b6127de5760405162461bcd60e51b815260206004820152602e60248201527f45524331393637557067726164653a206e657720696d706c656d656e7461746960448201526d6f6e206973206e6f74205555505360901b6064820152608401610777565b600080516020613526833981519152811461284d5760405162461bcd60e51b815260206004820152602960248201527f45524331393637557067726164653a20756e737570706f727465642070726f786044820152681a58589b195555525160ba1b6064820152608401610777565b5061271c838383612c0e565b612861612c39565b6033805460ff191690557f5db9ee0a495bf2e6ff9c91a7834c1ba4fdd244a5e8aa4e537bd38aeae4b073aa335b6040516001600160a01b03909116815260200160405180910390a1565b60fc8054600180820183557f371f36870d18f32a11fea0f144b021c8b407bb50f8e0267c711123f454b963c090910180546001600160a01b0319166001600160a01b0388169081179091559154600083815261010460209081526040808320848452610105835290832081548087018355828552838520018590558186018054808801825590855283852043910181905581546001600160a81b03191661010090980297909717861781554260038201819055600482018990558187018b9055600282018a90556008820180549788018155855292842090950186905560fd8054939694959294939192918a919088906129a690849061324a565b9250508190555086898b6001600160a01b03167ff556991011e831bcfac4f406d547e5e32cdd98267efab83935230d5f8d02c446886040516129ea91815260200190565b60405180910390a45060019998505050505050505050565b606580546001600160a01b038381166001600160a01b0319831681179093556040519116919082907f8be0079c531659141344cd1fd0a4f28419497f9722a3daafe3b4186f6b6457e090600090a35050565b600054610100900460ff16612a7b5760405162461bcd60e51b815260040161077790613467565b610f16612c82565b600054610100900460ff16612aaa5760405162461bcd60e51b815260040161077790613467565b610f16612cb5565b600054610100900460ff16610f165760405162461bcd60e51b815260040161077790613467565b612ae1612b16565b6033805460ff191660011790557f62e78cea01bee320cd4e420270b5ea74000d11b0c9f74754ebdbfc544b05a25861288e3390565b60335460ff1615610f165760405162461bcd60e51b815260206004820152601060248201526f14185d5cd8589b194e881c185d5cd95960821b6044820152606401610777565b6000818310612b6b57816112a2565b5090919050565b6001600160a01b0381163b612bdf5760405162461bcd60e51b815260206004820152602d60248201527f455243313936373a206e657720696d706c656d656e746174696f6e206973206e60448201526c1bdd08184818dbdb9d1c9858dd609a1b6064820152608401610777565b60008051602061352683398151915280546001600160a01b0319166001600160a01b0392909216919091179055565b612c1783612ce5565b600082511180612c245750805b1561271c57612c338383612d25565b50505050565b60335460ff16610f165760405162461bcd60e51b815260206004820152601460248201527314185d5cd8589b194e881b9bdd081c185d5cd95960621b6044820152606401610777565b600054610100900460ff16612ca95760405162461bcd60e51b815260040161077790613467565b6033805460ff19169055565b600054610100900460ff16612cdc5760405162461bcd60e51b815260040161077790613467565b610f1633612a02565b612cee81612b72565b6040516001600160a01b038216907fbc7cd75a20ee27fd9adebab32041f755214dbc6bffa90cc0225b39da2e5c2d3b90600090a250565b60606001600160a01b0383163b612d8d5760405162461bcd60e51b815260206004820152602660248201527f416464726573733a2064656c65676174652063616c6c20746f206e6f6e2d636f6044820152651b9d1c9858dd60d21b6064820152608401610777565b600080846001600160a01b031684604051612da891906134d6565b600060405180830381855af49150503d8060008114612de3576040519150601f19603f3d011682016040523d82523d6000602084013e612de8565b606091505b5091509150611ffc82826040518060600160405280602781526020016135466027913960608315612e1a5750816112a2565b6112a28383815115612e2f5781518083602001fd5b8060405162461bcd60e51b815260040161077791906134f2565b600060208284031215612e5b57600080fd5b5035919050565b600081518084526020808501945080840160005b83811015612e9b5781516001600160a01b031687529582019590820190600101612e76565b509495945050505050565b6020815260006112a26020830184612e62565b6001600160a01b0381168114610e7257600080fd5b60008060408385031215612ee157600080fd5b8235612eec81612eb9565b946020939093013593505050565b600060208284031215612f0c57600080fd5b81356112a281612eb9565b60008060208385031215612f2a57600080fd5b823567ffffffffffffffff80821115612f4257600080fd5b818501915085601f830112612f5657600080fd5b813581811115612f6557600080fd5b8660208260051b8501011115612f7a57600080fd5b60209290920196919550909350505050565b634e487b7160e01b600052604160045260246000fd5b604051601f8201601f1916810167ffffffffffffffff81118282101715612fcb57612fcb612f8c565b604052919050565b60008060408385031215612fe657600080fd5b8235612ff181612eb9565b915060208381013567ffffffffffffffff8082111561300f57600080fd5b818601915086601f83011261302357600080fd5b81358181111561303557613035612f8c565b613047601f8201601f19168501612fa2565b9150808252878482850101111561305d57600080fd5b80848401858401376000848284010152508093505050509250929050565b60008060006060848603121561309057600080fd5b833561309b81612eb9565b925060208401356130ab81612eb9565b929592945050506040919091013590565b600081518084526020808501945080840160005b83811015612e9b578151875295820195908201906001016130d0565b6020815260006112a260208301846130bc565b6020815261311260208201835115159052565b6000602083015161312e60408401826001600160a01b03169052565b506040830151606083015260608301516080830152608083015160a083015260a083015160c083015260c083015160e083015260e083015161010081818501528085015191505061012081818501528085015191505061014080818501525061319b6101608401826130bc565b949350505050565b6020815260008251606060208401526131bf60808401826130bc565b90506020840151601f198483030160408501526131dc82826130bc565b9150506040840151151560608401528091505092915050565b634e487b7160e01b600052601160045260246000fd5b60008261322857634e487b7160e01b600052601260045260246000fd5b500490565b60006020828403121561323f57600080fd5b81516112a281612eb9565b80820180821115610d9057610d906131f5565b60006020828403121561326f57600080fd5b815180151581146112a257600080fd5b634e487b7160e01b600052603260045260246000fd5b6000600182016132a7576132a76131f5565b5060010190565b6020808252602c908201527f46756e6374696f6e206d7573742062652063616c6c6564207468726f7567682060408201526b19195b1959d85d1958d85b1b60a21b606082015260800190565b6020808252602c908201527f46756e6374696f6e206d7573742062652063616c6c6564207468726f7567682060408201526b6163746976652070726f787960a01b606082015260800190565b8082028115828204841417610d9057610d906131f5565b600060ff821660ff8103613373576133736131f5565b60010192915050565b60006020828403121561338e57600080fd5b5051919050565b81810381811115610d9057610d906131f5565b82815260406020820152600061319b6040830184612e62565b600060208083850312156133d457600080fd5b825167ffffffffffffffff808211156133ec57600080fd5b818501915085601f83011261340057600080fd5b81518181111561341257613412612f8c565b8060051b9150613423848301612fa2565b818152918301840191848101908884111561343d57600080fd5b938501935b8385101561345b57845182529385019390850190613442565b98975050505050505050565b6020808252602b908201527f496e697469616c697a61626c653a20636f6e7472616374206973206e6f74206960408201526a6e697469616c697a696e6760a81b606082015260800190565b60005b838110156134cd5781810151838201526020016134b5565b50506000910152565b600082516134e88184602087016134b2565b9190910192915050565b60208152600082518060208401526135118160408501602087016134b2565b601f01601f1916919091016040019291505056fe360894a13ba1a3210667c828492db98dca3e2076cc3735a920a3ca505d382bbc416464726573733a206c6f772d6c6576656c2064656c65676174652063616c6c206661696c6564a2646970667358221220389a401e82c99b75f79b6deaeb652139030f5dfbd80e229c0f65ed59a84ee54d64736f6c63430008110033","opcodes":"PUSH1 0xA0 PUSH1 0x40 MSTORE ADDRESS PUSH1 0x80 MSTORE CALLVALUE DUP1 ISZERO PUSH2 0x14 JUMPI PUSH1 0x0 DUP1 REVERT JUMPDEST POP PUSH1 0x80 MLOAD PUSH2 0x35A2 PUSH2 0x4C PUSH1 0x0 CODECOPY PUSH1 0x0 DUP2 DUP2 PUSH2 0xDA0 ADD MSTORE DUP2 DUP2 PUSH2 0xDE0 ADD MSTORE DUP2 DUP2 PUSH2 0x1004 ADD MSTORE DUP2 DUP2 PUSH2 0x1044 ADD MSTORE PUSH2 0x10D7 ADD MSTORE PUSH2 0x35A2 PUSH1 0x0 RETURN INVALID PUSH1 0x80 PUSH1 0x40 MSTORE PUSH1 0x4 CALLDATASIZE LT PUSH2 0x229 JUMPI PUSH1 0x0 CALLDATALOAD PUSH1 0xE0 SHR DUP1 PUSH4 0x7CE574BF GT PUSH2 0x123 JUMPI DUP1 PUSH4 0xAE3132E8 GT PUSH2 0xAB JUMPI DUP1 PUSH4 0xD8BA90B7 GT PUSH2 0x6F JUMPI DUP1 PUSH4 0xD8BA90B7 EQ PUSH2 0x677 JUMPI DUP1 PUSH4 0xDBA4358C EQ PUSH2 0x697 JUMPI DUP1 PUSH4 0xDEEDE654 EQ PUSH2 0x6AC JUMPI DUP1 PUSH4 0xE3A51F58 EQ PUSH2 0x6C1 JUMPI DUP1 PUSH4 0xF2FDE38B EQ PUSH2 0x6FE JUMPI PUSH1 0x0 DUP1 REVERT JUMPDEST DUP1 PUSH4 0xAE3132E8 EQ PUSH2 0x5D5 JUMPI DUP1 PUSH4 0xB7D68519 EQ PUSH2 0x5F5 JUMPI DUP1 PUSH4 0xBA4F678E EQ PUSH2 0x615 JUMPI DUP1 PUSH4 0xC06A5388 EQ PUSH2 0x642 JUMPI DUP1 PUSH4 0xD596FE7F EQ PUSH2 0x657 JUMPI PUSH1 0x0 DUP1 REVERT JUMPDEST DUP1 PUSH4 0x9C3FE28A GT PUSH2 0xF2 JUMPI DUP1 PUSH4 0x9C3FE28A EQ PUSH2 0x50B JUMPI DUP1 PUSH4 0xA40B5891 EQ PUSH2 0x52B JUMPI DUP1 PUSH4 0xA694FC3A EQ PUSH2 0x568 JUMPI DUP1 PUSH4 0xA7566B75 EQ PUSH2 0x588 JUMPI DUP1 PUSH4 0xABFE35AD EQ PUSH2 0x5B5 JUMPI PUSH1 0x0 DUP1 REVERT JUMPDEST DUP1 PUSH4 0x7CE574BF EQ PUSH2 0x48C JUMPI DUP1 PUSH4 0x8129FC1C EQ PUSH2 0x4B9 JUMPI DUP1 PUSH4 0x8456CB59 EQ PUSH2 0x4CE JUMPI DUP1 PUSH4 0x8DA5CB5B EQ PUSH2 0x4E3 JUMPI PUSH1 0x0 DUP1 REVERT JUMPDEST DUP1 PUSH4 0x53BDADEA GT PUSH2 0x1B1 JUMPI DUP1 PUSH4 0x6A50EEFA GT PUSH2 0x175 JUMPI DUP1 PUSH4 0x6A50EEFA EQ PUSH2 0x3F5 JUMPI DUP1 PUSH4 0x6A8CA691 EQ PUSH2 0x415 JUMPI DUP1 PUSH4 0x6F51B20B EQ PUSH2 0x435 JUMPI DUP1 PUSH4 0x6F72693B EQ PUSH2 0x462 JUMPI DUP1 PUSH4 0x715018A6 EQ PUSH2 0x477 JUMPI PUSH1 0x0 DUP1 REVERT JUMPDEST DUP1 PUSH4 0x53BDADEA EQ PUSH2 0x35D JUMPI DUP1 PUSH4 0x5C975ABB EQ PUSH2 0x37D JUMPI DUP1 PUSH4 0x5CBFD021 EQ PUSH2 0x395 JUMPI DUP1 PUSH4 0x5E35359E EQ PUSH2 0x3B5 JUMPI DUP1 PUSH4 0x6177FD18 EQ PUSH2 0x3D5 JUMPI PUSH1 0x0 DUP1 REVERT JUMPDEST DUP1 PUSH4 0x3B09098F GT PUSH2 0x1F8 JUMPI DUP1 PUSH4 0x3B09098F EQ PUSH2 0x2D2 JUMPI DUP1 PUSH4 0x3F4BA83A EQ PUSH2 0x2F2 JUMPI DUP1 PUSH4 0x469BBC12 EQ PUSH2 0x307 JUMPI DUP1 PUSH4 0x4F1EF286 EQ PUSH2 0x335 JUMPI DUP1 PUSH4 0x52D1902D EQ PUSH2 0x348 JUMPI PUSH1 0x0 DUP1 REVERT JUMPDEST DUP1 PUSH4 0x239CD4A4 EQ PUSH2 0x235 JUMPI DUP1 PUSH4 0x260CB4E9 EQ PUSH2 0x257 JUMPI DUP1 PUSH4 0x26792ACA EQ PUSH2 0x282 JUMPI DUP1 PUSH4 0x3659CFE6 EQ PUSH2 0x2B2 JUMPI PUSH1 0x0 DUP1 REVERT JUMPDEST CALLDATASIZE PUSH2 0x230 JUMPI STOP JUMPDEST PUSH1 0x0 DUP1 REVERT JUMPDEST CALLVALUE DUP1 ISZERO PUSH2 0x241 JUMPI PUSH1 0x0 DUP1 REVERT JUMPDEST POP PUSH2 0x255 PUSH2 0x250 CALLDATASIZE PUSH1 0x4 PUSH2 0x2E49 JUMP JUMPDEST PUSH2 0x71E JUMP JUMPDEST STOP JUMPDEST CALLVALUE DUP1 ISZERO PUSH2 0x263 JUMPI PUSH1 0x0 DUP1 REVERT JUMPDEST POP PUSH2 0x26C PUSH2 0xBCE JUMP JUMPDEST PUSH1 0x40 MLOAD PUSH2 0x279 SWAP2 SWAP1 PUSH2 0x2EA6 JUMP JUMPDEST PUSH1 0x40 MLOAD DUP1 SWAP2 SUB SWAP1 RETURN JUMPDEST CALLVALUE DUP1 ISZERO PUSH2 0x28E JUMPI PUSH1 0x0 DUP1 REVERT JUMPDEST POP PUSH2 0x2A2 PUSH2 0x29D CALLDATASIZE PUSH1 0x4 PUSH2 0x2ECE JUMP JUMPDEST PUSH2 0xD4A JUMP JUMPDEST PUSH1 0x40 MLOAD SWAP1 ISZERO ISZERO DUP2 MSTORE PUSH1 0x20 ADD PUSH2 0x279 JUMP JUMPDEST CALLVALUE DUP1 ISZERO PUSH2 0x2BE JUMPI PUSH1 0x0 DUP1 REVERT JUMPDEST POP PUSH2 0x255 PUSH2 0x2CD CALLDATASIZE PUSH1 0x4 PUSH2 0x2EFA JUMP JUMPDEST PUSH2 0xD96 JUMP JUMPDEST CALLVALUE DUP1 ISZERO PUSH2 0x2DE JUMPI PUSH1 0x0 DUP1 REVERT JUMPDEST POP PUSH2 0x255 PUSH2 0x2ED CALLDATASIZE PUSH1 0x4 PUSH2 0x2F17 JUMP JUMPDEST PUSH2 0xE75 JUMP JUMPDEST CALLVALUE DUP1 ISZERO PUSH2 0x2FE JUMPI PUSH1 0x0 DUP1 REVERT JUMPDEST POP PUSH2 0x255 PUSH2 0xF06 JUMP JUMPDEST CALLVALUE DUP1 ISZERO PUSH2 0x313 JUMPI PUSH1 0x0 DUP1 REVERT JUMPDEST POP PUSH2 0x327 PUSH2 0x322 CALLDATASIZE PUSH1 0x4 PUSH2 0x2EFA JUMP JUMPDEST PUSH2 0xF18 JUMP JUMPDEST PUSH1 0x40 MLOAD SWAP1 DUP2 MSTORE PUSH1 0x20 ADD PUSH2 0x279 JUMP JUMPDEST PUSH2 0x255 PUSH2 0x343 CALLDATASIZE PUSH1 0x4 PUSH2 0x2FD3 JUMP JUMPDEST PUSH2 0xFFA JUMP JUMPDEST CALLVALUE DUP1 ISZERO PUSH2 0x354 JUMPI PUSH1 0x0 DUP1 REVERT JUMPDEST POP PUSH2 0x327 PUSH2 0x10CA JUMP JUMPDEST CALLVALUE DUP1 ISZERO PUSH2 0x369 JUMPI PUSH1 0x0 DUP1 REVERT JUMPDEST POP PUSH2 0x255 PUSH2 0x378 CALLDATASIZE PUSH1 0x4 PUSH2 0x2F17 JUMP JUMPDEST PUSH2 0x117D JUMP JUMPDEST CALLVALUE DUP1 ISZERO PUSH2 0x389 JUMPI PUSH1 0x0 DUP1 REVERT JUMPDEST POP PUSH1 0x33 SLOAD PUSH1 0xFF AND PUSH2 0x2A2 JUMP JUMPDEST CALLVALUE DUP1 ISZERO PUSH2 0x3A1 JUMPI PUSH1 0x0 DUP1 REVERT JUMPDEST POP PUSH2 0x255 PUSH2 0x3B0 CALLDATASIZE PUSH1 0x4 PUSH2 0x2E49 JUMP JUMPDEST PUSH2 0x1203 JUMP JUMPDEST CALLVALUE DUP1 ISZERO PUSH2 0x3C1 JUMPI PUSH1 0x0 DUP1 REVERT JUMPDEST POP PUSH2 0x2A2 PUSH2 0x3D0 CALLDATASIZE PUSH1 0x4 PUSH2 0x307B JUMP JUMPDEST PUSH2 0x121F JUMP JUMPDEST CALLVALUE DUP1 ISZERO PUSH2 0x3E1 JUMPI PUSH1 0x0 DUP1 REVERT JUMPDEST POP PUSH2 0x2A2 PUSH2 0x3F0 CALLDATASIZE PUSH1 0x4 PUSH2 0x2EFA JUMP JUMPDEST PUSH2 0x12A9 JUMP JUMPDEST CALLVALUE DUP1 ISZERO PUSH2 0x401 JUMPI PUSH1 0x0 DUP1 REVERT JUMPDEST POP PUSH2 0x255 PUSH2 0x410 CALLDATASIZE PUSH1 0x4 PUSH2 0x2ECE JUMP JUMPDEST PUSH2 0x1367 JUMP JUMPDEST CALLVALUE DUP1 ISZERO PUSH2 0x421 JUMPI PUSH1 0x0 DUP1 REVERT JUMPDEST POP PUSH2 0x255 PUSH2 0x430 CALLDATASIZE PUSH1 0x4 PUSH2 0x2E49 JUMP JUMPDEST PUSH2 0x1488 JUMP JUMPDEST CALLVALUE DUP1 ISZERO PUSH2 0x441 JUMPI PUSH1 0x0 DUP1 REVERT JUMPDEST POP PUSH2 0x455 PUSH2 0x450 CALLDATASIZE PUSH1 0x4 PUSH2 0x2EFA JUMP JUMPDEST PUSH2 0x14A4 JUMP JUMPDEST PUSH1 0x40 MLOAD PUSH2 0x279 SWAP2 SWAP1 PUSH2 0x30EC JUMP JUMPDEST CALLVALUE DUP1 ISZERO PUSH2 0x46E JUMPI PUSH1 0x0 DUP1 REVERT JUMPDEST POP PUSH2 0x455 PUSH2 0x1511 JUMP JUMPDEST CALLVALUE DUP1 ISZERO PUSH2 0x483 JUMPI PUSH1 0x0 DUP1 REVERT JUMPDEST POP PUSH2 0x255 PUSH2 0x1680 JUMP JUMPDEST CALLVALUE DUP1 ISZERO PUSH2 0x498 JUMPI PUSH1 0x0 DUP1 REVERT JUMPDEST POP PUSH2 0x4A4 PUSH1 0xFF SLOAD PUSH1 0x0 SWAP2 JUMP JUMPDEST PUSH1 0x40 DUP1 MLOAD SWAP3 DUP4 MSTORE PUSH1 0x20 DUP4 ADD SWAP2 SWAP1 SWAP2 MSTORE ADD PUSH2 0x279 JUMP JUMPDEST CALLVALUE DUP1 ISZERO PUSH2 0x4C5 JUMPI PUSH1 0x0 DUP1 REVERT JUMPDEST POP PUSH2 0x255 PUSH2 0x1692 JUMP JUMPDEST CALLVALUE DUP1 ISZERO PUSH2 0x4DA JUMPI PUSH1 0x0 DUP1 REVERT JUMPDEST POP PUSH2 0x255 PUSH2 0x17FC JUMP JUMPDEST CALLVALUE DUP1 ISZERO PUSH2 0x4EF JUMPI PUSH1 0x0 DUP1 REVERT JUMPDEST POP PUSH1 0x65 SLOAD PUSH1 0x40 MLOAD PUSH1 0x1 PUSH1 0x1 PUSH1 0xA0 SHL SUB SWAP1 SWAP2 AND DUP2 MSTORE PUSH1 0x20 ADD PUSH2 0x279 JUMP JUMPDEST CALLVALUE DUP1 ISZERO PUSH2 0x517 JUMPI PUSH1 0x0 DUP1 REVERT JUMPDEST POP PUSH2 0x327 PUSH2 0x526 CALLDATASIZE PUSH1 0x4 PUSH2 0x2EFA JUMP JUMPDEST PUSH2 0x180C JUMP JUMPDEST CALLVALUE DUP1 ISZERO PUSH2 0x537 JUMPI PUSH1 0x0 DUP1 REVERT JUMPDEST POP PUSH2 0x2A2 PUSH2 0x546 CALLDATASIZE PUSH1 0x4 PUSH2 0x2EFA JUMP JUMPDEST PUSH1 0x1 PUSH1 0x1 PUSH1 0xA0 SHL SUB AND PUSH1 0x0 SWAP1 DUP2 MSTORE PUSH2 0x104 PUSH1 0x20 MSTORE PUSH1 0x40 SWAP1 KECCAK256 PUSH1 0x2 ADD SLOAD PUSH1 0xFF AND SWAP1 JUMP JUMPDEST CALLVALUE DUP1 ISZERO PUSH2 0x574 JUMPI PUSH1 0x0 DUP1 REVERT JUMPDEST POP PUSH2 0x255 PUSH2 0x583 CALLDATASIZE PUSH1 0x4 PUSH2 0x2E49 JUMP JUMPDEST PUSH2 0x18F5 JUMP JUMPDEST CALLVALUE DUP1 ISZERO PUSH2 0x594 JUMPI PUSH1 0x0 DUP1 REVERT JUMPDEST POP PUSH2 0x5A8 PUSH2 0x5A3 CALLDATASIZE PUSH1 0x4 PUSH2 0x2E49 JUMP JUMPDEST PUSH2 0x1B4B JUMP JUMPDEST PUSH1 0x40 MLOAD PUSH2 0x279 SWAP2 SWAP1 PUSH2 0x30FF JUMP JUMPDEST CALLVALUE DUP1 ISZERO PUSH2 0x5C1 JUMPI PUSH1 0x0 DUP1 REVERT JUMPDEST POP PUSH2 0x327 PUSH2 0x5D0 CALLDATASIZE PUSH1 0x4 PUSH2 0x2E49 JUMP JUMPDEST PUSH2 0x1C8A JUMP JUMPDEST CALLVALUE DUP1 ISZERO PUSH2 0x5E1 JUMPI PUSH1 0x0 DUP1 REVERT JUMPDEST POP PUSH2 0x327 PUSH2 0x5F0 CALLDATASIZE PUSH1 0x4 PUSH2 0x2EFA JUMP JUMPDEST PUSH2 0x1C95 JUMP JUMPDEST CALLVALUE DUP1 ISZERO PUSH2 0x601 JUMPI PUSH1 0x0 DUP1 REVERT JUMPDEST POP PUSH2 0x255 PUSH2 0x610 CALLDATASIZE PUSH1 0x4 PUSH2 0x2E49 JUMP JUMPDEST PUSH2 0x1D45 JUMP JUMPDEST CALLVALUE DUP1 ISZERO PUSH2 0x621 JUMPI PUSH1 0x0 DUP1 REVERT JUMPDEST POP PUSH2 0x635 PUSH2 0x630 CALLDATASIZE PUSH1 0x4 PUSH2 0x2EFA JUMP JUMPDEST PUSH2 0x1D53 JUMP JUMPDEST PUSH1 0x40 MLOAD PUSH2 0x279 SWAP2 SWAP1 PUSH2 0x31A3 JUMP JUMPDEST CALLVALUE DUP1 ISZERO PUSH2 0x64E JUMPI PUSH1 0x0 DUP1 REVERT JUMPDEST POP PUSH2 0x26C PUSH2 0x1E4D JUMP JUMPDEST CALLVALUE DUP1 ISZERO PUSH2 0x663 JUMPI PUSH1 0x0 DUP1 REVERT JUMPDEST POP PUSH2 0x327 PUSH2 0x672 CALLDATASIZE PUSH1 0x4 PUSH2 0x2E49 JUMP JUMPDEST PUSH2 0x1F97 JUMP JUMPDEST CALLVALUE DUP1 ISZERO PUSH2 0x683 JUMPI PUSH1 0x0 DUP1 REVERT JUMPDEST POP PUSH2 0x327 PUSH2 0x692 CALLDATASIZE PUSH1 0x4 PUSH2 0x2E49 JUMP JUMPDEST PUSH2 0x1FAB JUMP JUMPDEST CALLVALUE DUP1 ISZERO PUSH2 0x6A3 JUMPI PUSH1 0x0 DUP1 REVERT JUMPDEST POP PUSH2 0x26C PUSH2 0x2010 JUMP JUMPDEST CALLVALUE DUP1 ISZERO PUSH2 0x6B8 JUMPI PUSH1 0x0 DUP1 REVERT JUMPDEST POP PUSH1 0xFD SLOAD PUSH2 0x327 JUMP JUMPDEST CALLVALUE DUP1 ISZERO PUSH2 0x6CD JUMPI PUSH1 0x0 DUP1 REVERT JUMPDEST POP PUSH2 0x100 SLOAD PUSH2 0x101 SLOAD PUSH2 0x102 SLOAD PUSH2 0x103 SLOAD PUSH1 0x40 DUP1 MLOAD SWAP5 DUP6 MSTORE PUSH1 0x20 DUP6 ADD SWAP4 SWAP1 SWAP4 MSTORE SWAP2 DUP4 ADD MSTORE PUSH1 0x60 DUP3 ADD MSTORE PUSH1 0x80 ADD PUSH2 0x279 JUMP JUMPDEST CALLVALUE DUP1 ISZERO PUSH2 0x70A JUMPI PUSH1 0x0 DUP1 REVERT JUMPDEST POP PUSH2 0x255 PUSH2 0x719 CALLDATASIZE PUSH1 0x4 PUSH2 0x2EFA JUMP JUMPDEST PUSH2 0x2174 JUMP JUMPDEST PUSH1 0x0 PUSH2 0x729 DUP3 PUSH2 0x21EA JUMP JUMPDEST SWAP1 POP PUSH1 0x0 DUP2 GT PUSH2 0x780 JUMPI PUSH1 0x40 MLOAD PUSH3 0x461BCD PUSH1 0xE5 SHL DUP2 MSTORE PUSH1 0x20 PUSH1 0x4 DUP3 ADD MSTORE PUSH1 0x1C PUSH1 0x24 DUP3 ADD MSTORE PUSH32 0x596F752068617665206E6F207374616B696E67206F6E20656E64656400000000 PUSH1 0x44 DUP3 ADD MSTORE PUSH1 0x64 ADD JUMPDEST PUSH1 0x40 MLOAD DUP1 SWAP2 SUB SWAP1 REVERT JUMPDEST PUSH1 0xFB SLOAD PUSH1 0x1 PUSH1 0x1 PUSH1 0xA0 SHL SUB AND PUSH1 0x0 PUSH2 0x799 PUSH1 0x2 DUP5 PUSH2 0x320B JUMP JUMPDEST SWAP1 POP PUSH1 0x0 PUSH2 0x874 PUSH2 0x7AB PUSH1 0x2 DUP7 PUSH2 0x320B JUMP JUMPDEST DUP5 PUSH1 0x1 PUSH1 0x1 PUSH1 0xA0 SHL SUB AND PUSH4 0x55A373D6 PUSH1 0x40 MLOAD DUP2 PUSH4 0xFFFFFFFF AND PUSH1 0xE0 SHL DUP2 MSTORE PUSH1 0x4 ADD PUSH1 0x20 PUSH1 0x40 MLOAD DUP1 DUP4 SUB DUP2 DUP7 GAS STATICCALL ISZERO DUP1 ISZERO PUSH2 0x7E9 JUMPI RETURNDATASIZE PUSH1 0x0 DUP1 RETURNDATACOPY RETURNDATASIZE PUSH1 0x0 REVERT JUMPDEST POP POP POP POP PUSH1 0x40 MLOAD RETURNDATASIZE PUSH1 0x1F NOT PUSH1 0x1F DUP3 ADD AND DUP3 ADD DUP1 PUSH1 0x40 MSTORE POP DUP2 ADD SWAP1 PUSH2 0x80D SWAP2 SWAP1 PUSH2 0x322D JUMP JUMPDEST DUP6 PUSH1 0x1 PUSH1 0x1 PUSH1 0xA0 SHL SUB AND PUSH4 0xB70CC4C1 PUSH1 0x40 MLOAD DUP2 PUSH4 0xFFFFFFFF AND PUSH1 0xE0 SHL DUP2 MSTORE PUSH1 0x4 ADD PUSH1 0x20 PUSH1 0x40 MLOAD DUP1 DUP4 SUB DUP2 DUP7 GAS STATICCALL ISZERO DUP1 ISZERO PUSH2 0x84B JUMPI RETURNDATASIZE PUSH1 0x0 DUP1 RETURNDATACOPY RETURNDATASIZE PUSH1 0x0 REVERT JUMPDEST POP POP POP POP PUSH1 0x40 MLOAD RETURNDATASIZE PUSH1 0x1F NOT PUSH1 0x1F DUP3 ADD AND DUP3 ADD DUP1 PUSH1 0x40 MSTORE POP DUP2 ADD SWAP1 PUSH2 0x86F SWAP2 SWAP1 PUSH2 0x322D JUMP JUMPDEST PUSH2 0x2273 JUMP JUMPDEST PUSH1 0x0 DUP7 DUP2 MSTORE PUSH2 0x105 PUSH1 0x20 SWAP1 DUP2 MSTORE PUSH1 0x40 DUP1 DUP4 KECCAK256 CALLER DUP1 DUP6 MSTORE PUSH2 0x104 SWAP1 SWAP4 MSTORE SWAP3 KECCAK256 DUP3 SLOAD SWAP4 SWAP5 POP SWAP1 SWAP3 NUMBER SWAP1 TIMESTAMP SWAP1 PUSH2 0x100 SWAP1 DIV PUSH1 0x1 PUSH1 0x1 PUSH1 0xA0 SHL SUB AND DUP6 EQ PUSH2 0x909 JUMPI PUSH1 0x40 MLOAD PUSH3 0x461BCD PUSH1 0xE5 SHL DUP2 MSTORE PUSH1 0x20 PUSH1 0x4 DUP3 ADD MSTORE PUSH1 0x27 PUSH1 0x24 DUP3 ADD MSTORE PUSH32 0x536F727279207374616B696E6720696420646F656E27742062656C6F6E677320 PUSH1 0x44 DUP3 ADD MSTORE PUSH7 0x3A37903CB7BA97 PUSH1 0xC9 SHL PUSH1 0x64 DUP3 ADD MSTORE PUSH1 0x84 ADD PUSH2 0x777 JUMP JUMPDEST PUSH1 0x2 DUP4 ADD SLOAD PUSH1 0xFF AND ISZERO PUSH2 0x976 JUMPI PUSH1 0x40 MLOAD PUSH3 0x461BCD PUSH1 0xE5 SHL DUP2 MSTORE PUSH1 0x20 PUSH1 0x4 DUP3 ADD MSTORE PUSH1 0x2F PUSH1 0x24 DUP3 ADD MSTORE PUSH32 0x596F7572206163636F756E742069732064697361626C65642E20506C65617365 PUSH1 0x44 DUP3 ADD MSTORE PUSH15 0x1031B7B73A30B1BA1030B236B4B717 PUSH1 0x89 SHL PUSH1 0x64 DUP3 ADD MSTORE PUSH1 0x84 ADD PUSH2 0x777 JUMP JUMPDEST TIMESTAMP PUSH2 0x103 SLOAD DUP6 PUSH1 0x7 ADD SLOAD PUSH2 0x98A SWAP2 SWAP1 PUSH2 0x324A JUMP JUMPDEST GT PUSH2 0x9E9 JUMPI PUSH1 0x40 MLOAD PUSH3 0x461BCD PUSH1 0xE5 SHL DUP2 MSTORE PUSH1 0x20 PUSH1 0x4 DUP3 ADD MSTORE PUSH1 0x29 PUSH1 0x24 DUP3 ADD MSTORE PUSH32 0x596F752063616E6E6F7420636C61696D20726577617264206265666F72652074 PUSH1 0x44 DUP3 ADD MSTORE PUSH9 0x34B6B2B634B6B4BA17 PUSH1 0xB9 SHL PUSH1 0x64 DUP3 ADD MSTORE PUSH1 0x84 ADD PUSH2 0x777 JUMP JUMPDEST PUSH2 0x9F9 DUP6 DUP12 DUP7 DUP7 DUP12 DUP12 DUP8 DUP10 PUSH2 0x23FD JUMP JUMPDEST PUSH2 0xA02 DUP11 PUSH2 0x21EA JUMP JUMPDEST PUSH1 0x0 SUB PUSH2 0xA12 JUMPI DUP4 SLOAD PUSH1 0xFF NOT AND DUP5 SSTORE JUMPDEST DUP8 PUSH1 0x1 PUSH1 0x1 PUSH1 0xA0 SHL SUB AND PUSH4 0x55A373D6 PUSH1 0x40 MLOAD DUP2 PUSH4 0xFFFFFFFF AND PUSH1 0xE0 SHL DUP2 MSTORE PUSH1 0x4 ADD PUSH1 0x20 PUSH1 0x40 MLOAD DUP1 DUP4 SUB DUP2 DUP7 GAS STATICCALL ISZERO DUP1 ISZERO PUSH2 0xA50 JUMPI RETURNDATASIZE PUSH1 0x0 DUP1 RETURNDATACOPY RETURNDATASIZE PUSH1 0x0 REVERT JUMPDEST POP POP POP POP PUSH1 0x40 MLOAD RETURNDATASIZE PUSH1 0x1F NOT PUSH1 0x1F DUP3 ADD AND DUP3 ADD DUP1 PUSH1 0x40 MSTORE POP DUP2 ADD SWAP1 PUSH2 0xA74 SWAP2 SWAP1 PUSH2 0x322D JUMP JUMPDEST PUSH1 0x40 MLOAD PUSH4 0xA9059CBB PUSH1 0xE0 SHL DUP2 MSTORE PUSH1 0x1 PUSH1 0x1 PUSH1 0xA0 SHL SUB DUP8 DUP2 AND PUSH1 0x4 DUP4 ADD MSTORE PUSH1 0x24 DUP3 ADD DUP11 SWAP1 MSTORE SWAP2 SWAP1 SWAP2 AND SWAP1 PUSH4 0xA9059CBB SWAP1 PUSH1 0x44 ADD PUSH1 0x20 PUSH1 0x40 MLOAD DUP1 DUP4 SUB DUP2 PUSH1 0x0 DUP8 GAS CALL ISZERO DUP1 ISZERO PUSH2 0xAC5 JUMPI RETURNDATASIZE PUSH1 0x0 DUP1 RETURNDATACOPY RETURNDATASIZE PUSH1 0x0 REVERT JUMPDEST POP POP POP POP PUSH1 0x40 MLOAD RETURNDATASIZE PUSH1 0x1F NOT PUSH1 0x1F DUP3 ADD AND DUP3 ADD DUP1 PUSH1 0x40 MSTORE POP DUP2 ADD SWAP1 PUSH2 0xAE9 SWAP2 SWAP1 PUSH2 0x325D JUMP JUMPDEST POP DUP8 PUSH1 0x1 PUSH1 0x1 PUSH1 0xA0 SHL SUB AND PUSH4 0xB70CC4C1 PUSH1 0x40 MLOAD DUP2 PUSH4 0xFFFFFFFF AND PUSH1 0xE0 SHL DUP2 MSTORE PUSH1 0x4 ADD PUSH1 0x20 PUSH1 0x40 MLOAD DUP1 DUP4 SUB DUP2 DUP7 GAS STATICCALL ISZERO DUP1 ISZERO PUSH2 0xB28 JUMPI RETURNDATASIZE PUSH1 0x0 DUP1 RETURNDATACOPY RETURNDATASIZE PUSH1 0x0 REVERT JUMPDEST POP POP POP POP PUSH1 0x40 MLOAD RETURNDATASIZE PUSH1 0x1F NOT PUSH1 0x1F DUP3 ADD AND DUP3 ADD DUP1 PUSH1 0x40 MSTORE POP DUP2 ADD SWAP1 PUSH2 0xB4C SWAP2 SWAP1 PUSH2 0x322D JUMP JUMPDEST PUSH1 0x40 MLOAD PUSH4 0xA9059CBB PUSH1 0xE0 SHL DUP2 MSTORE PUSH1 0x1 PUSH1 0x1 PUSH1 0xA0 SHL SUB DUP8 DUP2 AND PUSH1 0x4 DUP4 ADD MSTORE PUSH1 0x24 DUP3 ADD DUP10 SWAP1 MSTORE SWAP2 SWAP1 SWAP2 AND SWAP1 PUSH4 0xA9059CBB SWAP1 PUSH1 0x44 ADD PUSH1 0x20 PUSH1 0x40 MLOAD DUP1 DUP4 SUB DUP2 PUSH1 0x0 DUP8 GAS CALL ISZERO DUP1 ISZERO PUSH2 0xB9D JUMPI RETURNDATASIZE PUSH1 0x0 DUP1 RETURNDATACOPY RETURNDATASIZE PUSH1 0x0 REVERT JUMPDEST POP POP POP POP PUSH1 0x40 MLOAD RETURNDATASIZE PUSH1 0x1F NOT PUSH1 0x1F DUP3 ADD AND DUP3 ADD DUP1 PUSH1 0x40 MSTORE POP DUP2 ADD SWAP1 PUSH2 0xBC1 SWAP2 SWAP1 PUSH2 0x325D JUMP JUMPDEST POP POP POP POP POP POP POP POP POP POP POP JUMP JUMPDEST PUSH1 0x0 DUP1 DUP1 MSTORE PUSH2 0x104 PUSH1 0x20 SWAP1 DUP2 MSTORE PUSH1 0xFC DUP1 SLOAD PUSH1 0x40 DUP1 MLOAD DUP3 DUP6 MUL DUP2 ADD DUP6 ADD SWAP1 SWAP2 MSTORE DUP2 DUP2 MSTORE PUSH1 0x60 SWAP5 SWAP4 PUSH32 0xC81CE4857D5B94B8C75139D9E9E2911ECE8CD067EDDBA6000E40A08E09D5643 SWAP4 DUP6 SWAP4 SWAP1 SWAP2 DUP4 ADD DUP3 DUP3 DUP1 ISZERO PUSH2 0xC53 JUMPI PUSH1 0x20 MUL DUP3 ADD SWAP2 SWAP1 PUSH1 0x0 MSTORE PUSH1 0x20 PUSH1 0x0 KECCAK256 SWAP1 JUMPDEST DUP2 SLOAD PUSH1 0x1 PUSH1 0x1 PUSH1 0xA0 SHL SUB AND DUP2 MSTORE PUSH1 0x1 SWAP1 SWAP2 ADD SWAP1 PUSH1 0x20 ADD DUP1 DUP4 GT PUSH2 0xC35 JUMPI JUMPDEST POP POP POP POP POP SWAP1 POP PUSH1 0x0 DUP2 MLOAD SWAP1 POP PUSH1 0x0 DUP2 PUSH8 0xFFFFFFFFFFFFFFFF DUP2 GT ISZERO PUSH2 0xC7B JUMPI PUSH2 0xC7B PUSH2 0x2F8C JUMP JUMPDEST PUSH1 0x40 MLOAD SWAP1 DUP1 DUP3 MSTORE DUP1 PUSH1 0x20 MUL PUSH1 0x20 ADD DUP3 ADD PUSH1 0x40 MSTORE DUP1 ISZERO PUSH2 0xCA4 JUMPI DUP2 PUSH1 0x20 ADD PUSH1 0x20 DUP3 MUL DUP1 CALLDATASIZE DUP4 CALLDATACOPY ADD SWAP1 POP JUMPDEST POP SWAP1 POP PUSH1 0x0 DUP1 JUMPDEST DUP4 DUP2 LT ISZERO PUSH2 0xD3E JUMPI DUP5 DUP2 DUP2 MLOAD DUP2 LT PUSH2 0xCC5 JUMPI PUSH2 0xCC5 PUSH2 0x327F JUMP JUMPDEST PUSH1 0x20 MUL PUSH1 0x20 ADD ADD MLOAD SWAP7 POP PUSH2 0xCD9 DUP4 DUP9 PUSH2 0x2622 JUMP JUMPDEST ISZERO ISZERO PUSH1 0x1 EQ PUSH2 0xD2C JUMPI PUSH1 0x2 DUP7 ADD SLOAD PUSH1 0xFF AND ISZERO ISZERO PUSH1 0x1 SUB PUSH2 0xD2C JUMPI DUP7 DUP4 DUP4 DUP2 MLOAD DUP2 LT PUSH2 0xD06 JUMPI PUSH2 0xD06 PUSH2 0x327F JUMP JUMPDEST PUSH1 0x1 PUSH1 0x1 PUSH1 0xA0 SHL SUB SWAP1 SWAP3 AND PUSH1 0x20 SWAP3 DUP4 MUL SWAP2 SWAP1 SWAP2 ADD SWAP1 SWAP2 ADD MSTORE DUP2 PUSH2 0xD28 DUP2 PUSH2 0x3295 JUMP JUMPDEST SWAP3 POP POP JUMPDEST DUP1 PUSH2 0xD36 DUP2 PUSH2 0x3295 JUMP JUMPDEST SWAP2 POP POP PUSH2 0xCAB JUMP JUMPDEST POP SWAP1 SWAP7 SWAP6 POP POP POP POP POP POP JUMP JUMPDEST PUSH1 0x0 PUSH2 0xD54 PUSH2 0x2687 JUMP JUMPDEST PUSH1 0x40 MLOAD PUSH1 0x1 PUSH1 0x1 PUSH1 0xA0 SHL SUB DUP5 AND SWAP1 DUP4 ISZERO PUSH2 0x8FC MUL SWAP1 DUP5 SWAP1 PUSH1 0x0 DUP2 DUP2 DUP2 DUP6 DUP9 DUP9 CALL SWAP4 POP POP POP POP ISZERO DUP1 ISZERO PUSH2 0xD8A JUMPI RETURNDATASIZE PUSH1 0x0 DUP1 RETURNDATACOPY RETURNDATASIZE PUSH1 0x0 REVERT JUMPDEST POP PUSH1 0x1 SWAP1 POP JUMPDEST SWAP3 SWAP2 POP POP JUMP JUMPDEST PUSH1 0x1 PUSH1 0x1 PUSH1 0xA0 SHL SUB PUSH32 0x0 AND ADDRESS SUB PUSH2 0xDDE JUMPI PUSH1 0x40 MLOAD PUSH3 0x461BCD PUSH1 0xE5 SHL DUP2 MSTORE PUSH1 0x4 ADD PUSH2 0x777 SWAP1 PUSH2 0x32AE JUMP JUMPDEST PUSH32 0x0 PUSH1 0x1 PUSH1 0x1 PUSH1 0xA0 SHL SUB AND PUSH2 0xE27 PUSH1 0x0 DUP1 MLOAD PUSH1 0x20 PUSH2 0x3526 DUP4 CODECOPY DUP2 MLOAD SWAP2 MSTORE SLOAD PUSH1 0x1 PUSH1 0x1 PUSH1 0xA0 SHL SUB AND SWAP1 JUMP JUMPDEST PUSH1 0x1 PUSH1 0x1 PUSH1 0xA0 SHL SUB AND EQ PUSH2 0xE4D JUMPI PUSH1 0x40 MLOAD PUSH3 0x461BCD PUSH1 0xE5 SHL DUP2 MSTORE PUSH1 0x4 ADD PUSH2 0x777 SWAP1 PUSH2 0x32FA JUMP JUMPDEST PUSH2 0xE56 DUP2 PUSH2 0x26E1 JUMP JUMPDEST PUSH1 0x40 DUP1 MLOAD PUSH1 0x0 DUP1 DUP3 MSTORE PUSH1 0x20 DUP3 ADD SWAP1 SWAP3 MSTORE PUSH2 0xE72 SWAP2 DUP4 SWAP2 SWAP1 PUSH2 0x26E9 JUMP JUMPDEST POP JUMP JUMPDEST PUSH2 0xE7D PUSH2 0x2687 JUMP JUMPDEST PUSH1 0x0 DUP1 DUP1 MSTORE PUSH2 0x104 PUSH1 0x20 MSTORE PUSH32 0xC81CE4857D5B94B8C75139D9E9E2911ECE8CD067EDDBA6000E40A08E09D5643 DUP3 DUP3 JUMPDEST DUP2 DUP2 LT ISZERO PUSH2 0xEFE JUMPI DUP6 DUP6 DUP3 DUP2 DUP2 LT PUSH2 0xEC6 JUMPI PUSH2 0xEC6 PUSH2 0x327F JUMP JUMPDEST SWAP1 POP PUSH1 0x20 MUL ADD PUSH1 0x20 DUP2 ADD SWAP1 PUSH2 0xEDB SWAP2 SWAP1 PUSH2 0x2EFA JUMP JUMPDEST PUSH1 0x2 DUP5 ADD DUP1 SLOAD PUSH1 0xFF NOT AND PUSH1 0x1 OR SWAP1 SSTORE SWAP4 POP DUP1 PUSH2 0xEF6 DUP2 PUSH2 0x3295 JUMP JUMPDEST SWAP2 POP POP PUSH2 0xEAC JUMP JUMPDEST POP POP POP POP POP POP JUMP JUMPDEST PUSH2 0xF0E PUSH2 0x2687 JUMP JUMPDEST PUSH2 0xF16 PUSH2 0x2859 JUMP JUMPDEST JUMP JUMPDEST PUSH1 0x1 PUSH1 0x1 PUSH1 0xA0 SHL SUB DUP2 AND PUSH1 0x0 SWAP1 DUP2 MSTORE PUSH2 0x104 PUSH1 0x20 SWAP1 DUP2 MSTORE PUSH1 0x40 DUP1 DUP4 KECCAK256 DUP1 SLOAD DUP3 MLOAD DUP2 DUP6 MUL DUP2 ADD DUP6 ADD SWAP1 SWAP4 MSTORE DUP1 DUP4 MSTORE SWAP1 SWAP3 DUP5 SWAP3 SWAP2 DUP5 SWAP2 DUP4 ADD DUP3 DUP3 DUP1 ISZERO PUSH2 0xF7B JUMPI PUSH1 0x20 MUL DUP3 ADD SWAP2 SWAP1 PUSH1 0x0 MSTORE PUSH1 0x20 PUSH1 0x0 KECCAK256 SWAP1 JUMPDEST DUP2 SLOAD DUP2 MSTORE PUSH1 0x20 ADD SWAP1 PUSH1 0x1 ADD SWAP1 DUP1 DUP4 GT PUSH2 0xF67 JUMPI JUMPDEST POP POP DUP4 MLOAD SWAP4 SWAP5 POP PUSH1 0x0 SWAP3 POP POP POP JUMPDEST DUP2 DUP2 LT ISZERO PUSH2 0xFF1 JUMPI PUSH2 0xFB3 DUP4 DUP3 DUP2 MLOAD DUP2 LT PUSH2 0xFA6 JUMPI PUSH2 0xFA6 PUSH2 0x327F JUMP JUMPDEST PUSH1 0x20 MUL PUSH1 0x20 ADD ADD MLOAD PUSH2 0x1B4B JUMP JUMPDEST MLOAD ISZERO PUSH2 0xFDF JUMPI PUSH2 0xFCE DUP4 DUP3 DUP2 MLOAD DUP2 LT PUSH2 0xFA6 JUMPI PUSH2 0xFA6 PUSH2 0x327F JUMP JUMPDEST PUSH1 0x40 ADD MLOAD PUSH2 0xFDC SWAP1 DUP7 PUSH2 0x324A JUMP JUMPDEST SWAP5 POP JUMPDEST DUP1 PUSH2 0xFE9 DUP2 PUSH2 0x3295 JUMP JUMPDEST SWAP2 POP POP PUSH2 0xF89 JUMP JUMPDEST POP POP POP POP SWAP2 SWAP1 POP JUMP JUMPDEST PUSH1 0x1 PUSH1 0x1 PUSH1 0xA0 SHL SUB PUSH32 0x0 AND ADDRESS SUB PUSH2 0x1042 JUMPI PUSH1 0x40 MLOAD PUSH3 0x461BCD PUSH1 0xE5 SHL DUP2 MSTORE PUSH1 0x4 ADD PUSH2 0x777 SWAP1 PUSH2 0x32AE JUMP JUMPDEST PUSH32 0x0 PUSH1 0x1 PUSH1 0x1 PUSH1 0xA0 SHL SUB AND PUSH2 0x108B PUSH1 0x0 DUP1 MLOAD PUSH1 0x20 PUSH2 0x3526 DUP4 CODECOPY DUP2 MLOAD SWAP2 MSTORE SLOAD PUSH1 0x1 PUSH1 0x1 PUSH1 0xA0 SHL SUB AND SWAP1 JUMP JUMPDEST PUSH1 0x1 PUSH1 0x1 PUSH1 0xA0 SHL SUB AND EQ PUSH2 0x10B1 JUMPI PUSH1 0x40 MLOAD PUSH3 0x461BCD PUSH1 0xE5 SHL DUP2 MSTORE PUSH1 0x4 ADD PUSH2 0x777 SWAP1 PUSH2 0x32FA JUMP JUMPDEST PUSH2 0x10BA DUP3 PUSH2 0x26E1 JUMP JUMPDEST PUSH2 0x10C6 DUP3 DUP3 PUSH1 0x1 PUSH2 0x26E9 JUMP JUMPDEST POP POP JUMP JUMPDEST PUSH1 0x0 ADDRESS PUSH1 0x1 PUSH1 0x1 PUSH1 0xA0 SHL SUB PUSH32 0x0 AND EQ PUSH2 0x116A JUMPI PUSH1 0x40 MLOAD PUSH3 0x461BCD PUSH1 0xE5 SHL DUP2 MSTORE PUSH1 0x20 PUSH1 0x4 DUP3 ADD MSTORE PUSH1 0x38 PUSH1 0x24 DUP3 ADD MSTORE PUSH32 0x555550535570677261646561626C653A206D757374206E6F742062652063616C PUSH1 0x44 DUP3 ADD MSTORE PUSH32 0x6C6564207468726F7567682064656C656761746563616C6C0000000000000000 PUSH1 0x64 DUP3 ADD MSTORE PUSH1 0x84 ADD PUSH2 0x777 JUMP JUMPDEST POP PUSH1 0x0 DUP1 MLOAD PUSH1 0x20 PUSH2 0x3526 DUP4 CODECOPY DUP2 MLOAD SWAP2 MSTORE SWAP1 JUMP JUMPDEST PUSH2 0x1185 PUSH2 0x2687 JUMP JUMPDEST PUSH1 0x0 DUP1 DUP1 MSTORE PUSH2 0x104 PUSH1 0x20 MSTORE PUSH32 0xC81CE4857D5B94B8C75139D9E9E2911ECE8CD067EDDBA6000E40A08E09D5643 DUP3 DUP3 JUMPDEST DUP2 DUP2 LT ISZERO PUSH2 0xEFE JUMPI DUP6 DUP6 DUP3 DUP2 DUP2 LT PUSH2 0x11CE JUMPI PUSH2 0x11CE PUSH2 0x327F JUMP JUMPDEST SWAP1 POP PUSH1 0x20 MUL ADD PUSH1 0x20 DUP2 ADD SWAP1 PUSH2 0x11E3 SWAP2 SWAP1 PUSH2 0x2EFA JUMP JUMPDEST PUSH1 0x2 DUP5 ADD DUP1 SLOAD PUSH1 0xFF NOT AND SWAP1 SSTORE SWAP4 POP DUP1 PUSH2 0x11FB DUP2 PUSH2 0x3295 JUMP JUMPDEST SWAP2 POP POP PUSH2 0x11B4 JUMP JUMPDEST PUSH2 0x120B PUSH2 0x2687 JUMP JUMPDEST PUSH2 0x1218 DUP2 PUSH3 0x15180 PUSH2 0x3346 JUMP JUMPDEST PUSH2 0x103 SSTORE POP JUMP JUMPDEST PUSH1 0x0 PUSH2 0x1229 PUSH2 0x2687 JUMP JUMPDEST PUSH1 0x40 MLOAD PUSH4 0xA9059CBB PUSH1 0xE0 SHL DUP2 MSTORE PUSH1 0x1 PUSH1 0x1 PUSH1 0xA0 SHL SUB DUP5 DUP2 AND PUSH1 0x4 DUP4 ADD MSTORE PUSH1 0x24 DUP3 ADD DUP5 SWAP1 MSTORE DUP6 AND SWAP1 PUSH4 0xA9059CBB SWAP1 PUSH1 0x44 ADD PUSH1 0x20 PUSH1 0x40 MLOAD DUP1 DUP4 SUB DUP2 PUSH1 0x0 DUP8 GAS CALL ISZERO DUP1 ISZERO PUSH2 0x1278 JUMPI RETURNDATASIZE PUSH1 0x0 DUP1 RETURNDATACOPY RETURNDATASIZE PUSH1 0x0 REVERT JUMPDEST POP POP POP POP PUSH1 0x40 MLOAD RETURNDATASIZE PUSH1 0x1F NOT PUSH1 0x1F DUP3 ADD AND DUP3 ADD DUP1 PUSH1 0x40 MSTORE POP DUP2 ADD SWAP1 PUSH2 0x129C SWAP2 SWAP1 PUSH2 0x325D JUMP JUMPDEST POP PUSH1 0x1 SWAP1 POP JUMPDEST SWAP4 SWAP3 POP POP POP JUMP JUMPDEST PUSH1 0x1 PUSH1 0x1 PUSH1 0xA0 SHL SUB DUP2 AND PUSH1 0x0 SWAP1 DUP2 MSTORE PUSH2 0x104 PUSH1 0x20 SWAP1 DUP2 MSTORE PUSH1 0x40 DUP1 DUP4 KECCAK256 DUP1 SLOAD DUP3 MLOAD DUP2 DUP6 MUL DUP2 ADD DUP6 ADD SWAP1 SWAP4 MSTORE DUP1 DUP4 MSTORE SWAP1 SWAP3 DUP5 SWAP3 SWAP2 DUP5 SWAP2 DUP4 ADD DUP3 DUP3 DUP1 ISZERO PUSH2 0x130C JUMPI PUSH1 0x20 MUL DUP3 ADD SWAP2 SWAP1 PUSH1 0x0 MSTORE PUSH1 0x20 PUSH1 0x0 KECCAK256 SWAP1 JUMPDEST DUP2 SLOAD DUP2 MSTORE PUSH1 0x20 ADD SWAP1 PUSH1 0x1 ADD SWAP1 DUP1 DUP4 GT PUSH2 0x12F8 JUMPI JUMPDEST POP POP DUP4 MLOAD SWAP4 SWAP5 POP PUSH1 0x0 SWAP3 POP POP POP JUMPDEST DUP2 DUP2 LT ISZERO PUSH2 0x135B JUMPI PUSH2 0x1337 DUP4 DUP3 DUP2 MLOAD DUP2 LT PUSH2 0xFA6 JUMPI PUSH2 0xFA6 PUSH2 0x327F JUMP JUMPDEST MLOAD ISZERO PUSH2 0x1349 JUMPI POP PUSH1 0x1 SWAP6 SWAP5 POP POP POP POP POP JUMP JUMPDEST DUP1 PUSH2 0x1353 DUP2 PUSH2 0x3295 JUMP JUMPDEST SWAP2 POP POP PUSH2 0x131A JUMP JUMPDEST POP PUSH1 0x0 SWAP6 SWAP5 POP POP POP POP POP JUMP JUMPDEST PUSH1 0xFB SLOAD CALLER SWAP1 PUSH1 0x1 PUSH1 0x1 PUSH1 0xA0 SHL SUB AND PUSH2 0x1387 PUSH1 0x65 SLOAD PUSH1 0x1 PUSH1 0x1 PUSH1 0xA0 SHL SUB AND SWAP1 JUMP JUMPDEST PUSH1 0x1 PUSH1 0x1 PUSH1 0xA0 SHL SUB AND DUP3 PUSH1 0x1 PUSH1 0x1 PUSH1 0xA0 SHL SUB AND EQ DUP1 PUSH2 0x1418 JUMPI POP DUP1 PUSH1 0x1 PUSH1 0x1 PUSH1 0xA0 SHL SUB AND PUSH4 0x63D9DF85 PUSH1 0x40 MLOAD DUP2 PUSH4 0xFFFFFFFF AND PUSH1 0xE0 SHL DUP2 MSTORE PUSH1 0x4 ADD PUSH1 0x20 PUSH1 0x40 MLOAD DUP1 DUP4 SUB DUP2 DUP7 GAS STATICCALL ISZERO DUP1 ISZERO PUSH2 0x13DF JUMPI RETURNDATASIZE PUSH1 0x0 DUP1 RETURNDATACOPY RETURNDATASIZE PUSH1 0x0 REVERT JUMPDEST POP POP POP POP PUSH1 0x40 MLOAD RETURNDATASIZE PUSH1 0x1F NOT PUSH1 0x1F DUP3 ADD AND DUP3 ADD DUP1 PUSH1 0x40 MSTORE POP DUP2 ADD SWAP1 PUSH2 0x1403 SWAP2 SWAP1 PUSH2 0x322D JUMP JUMPDEST PUSH1 0x1 PUSH1 0x1 PUSH1 0xA0 SHL SUB AND DUP3 PUSH1 0x1 PUSH1 0x1 PUSH1 0xA0 SHL SUB AND EQ JUMPDEST PUSH2 0x146F JUMPI PUSH1 0x40 MLOAD PUSH3 0x461BCD PUSH1 0xE5 SHL DUP2 MSTORE PUSH1 0x20 PUSH1 0x4 DUP3 ADD MSTORE PUSH1 0x22 PUSH1 0x24 DUP3 ADD MSTORE PUSH32 0x4F6E6C79206F776E65722063616E2063616C6C20746869732066756E6374696F PUSH1 0x44 DUP3 ADD MSTORE PUSH2 0x3717 PUSH1 0xF1 SHL PUSH1 0x64 DUP3 ADD MSTORE PUSH1 0x84 ADD PUSH2 0x777 JUMP JUMPDEST PUSH2 0x1481 DUP5 DUP5 PUSH2 0x101 SLOAD PUSH2 0x102 SLOAD PUSH2 0x28AB JUMP JUMPDEST POP POP POP POP POP JUMP JUMPDEST PUSH2 0x1490 PUSH2 0x2687 JUMP JUMPDEST PUSH2 0x149D DUP2 PUSH3 0x15180 PUSH2 0x3346 JUMP JUMPDEST PUSH2 0x102 SSTORE POP JUMP JUMPDEST PUSH1 0x1 PUSH1 0x1 PUSH1 0xA0 SHL SUB DUP2 AND PUSH1 0x0 SWAP1 DUP2 MSTORE PUSH2 0x104 PUSH1 0x20 SWAP1 DUP2 MSTORE PUSH1 0x40 SWAP2 DUP3 SWAP1 KECCAK256 DUP1 SLOAD DUP4 MLOAD DUP2 DUP5 MUL DUP2 ADD DUP5 ADD SWAP1 SWAP5 MSTORE DUP1 DUP5 MSTORE PUSH1 0x60 SWAP4 SWAP3 DUP4 ADD DUP3 DUP3 DUP1 ISZERO PUSH2 0x1505 JUMPI PUSH1 0x20 MUL DUP3 ADD SWAP2 SWAP1 PUSH1 0x0 MSTORE PUSH1 0x20 PUSH1 0x0 KECCAK256 SWAP1 JUMPDEST DUP2 SLOAD DUP2 MSTORE PUSH1 0x20 ADD SWAP1 PUSH1 0x1 ADD SWAP1 DUP1 DUP4 GT PUSH2 0x14F1 JUMPI JUMPDEST POP POP POP POP POP SWAP1 POP SWAP2 SWAP1 POP JUMP JUMPDEST PUSH1 0xFC SLOAD PUSH1 0x60 SWAP1 PUSH1 0x0 DUP1 JUMPDEST DUP3 DUP2 LT ISZERO PUSH2 0x1556 JUMPI PUSH2 0x152C DUP2 PUSH2 0x1B4B JUMP JUMPDEST MLOAD ISZERO ISZERO PUSH1 0x1 SUB PUSH2 0x1544 JUMPI DUP2 PUSH2 0x1540 DUP2 PUSH2 0x3295 JUMP JUMPDEST SWAP3 POP POP JUMPDEST DUP1 PUSH2 0x154E DUP2 PUSH2 0x3295 JUMP JUMPDEST SWAP2 POP POP PUSH2 0x151B JUMP JUMPDEST POP PUSH1 0x0 DUP2 PUSH8 0xFFFFFFFFFFFFFFFF DUP2 GT ISZERO PUSH2 0x1572 JUMPI PUSH2 0x1572 PUSH2 0x2F8C JUMP JUMPDEST PUSH1 0x40 MLOAD SWAP1 DUP1 DUP3 MSTORE DUP1 PUSH1 0x20 MUL PUSH1 0x20 ADD DUP3 ADD PUSH1 0x40 MSTORE DUP1 ISZERO PUSH2 0x159B JUMPI DUP2 PUSH1 0x20 ADD PUSH1 0x20 DUP3 MUL DUP1 CALLDATASIZE DUP4 CALLDATACOPY ADD SWAP1 POP JUMPDEST POP SWAP1 POP PUSH1 0x0 DUP3 PUSH8 0xFFFFFFFFFFFFFFFF DUP2 GT ISZERO PUSH2 0x15B9 JUMPI PUSH2 0x15B9 PUSH2 0x2F8C JUMP JUMPDEST PUSH1 0x40 MLOAD SWAP1 DUP1 DUP3 MSTORE DUP1 PUSH1 0x20 MUL PUSH1 0x20 ADD DUP3 ADD PUSH1 0x40 MSTORE DUP1 ISZERO PUSH2 0x15E2 JUMPI DUP2 PUSH1 0x20 ADD PUSH1 0x20 DUP3 MUL DUP1 CALLDATASIZE DUP4 CALLDATACOPY ADD SWAP1 POP JUMPDEST POP SWAP1 POP PUSH1 0x0 JUMPDEST DUP5 DUP2 LT ISZERO PUSH2 0x1676 JUMPI PUSH2 0x15F9 DUP2 PUSH2 0x1B4B JUMP JUMPDEST MLOAD ISZERO ISZERO PUSH1 0x1 SUB PUSH2 0x162D JUMPI PUSH2 0x160E DUP2 PUSH1 0x1 PUSH2 0x324A JUMP JUMPDEST DUP4 DUP3 DUP2 MLOAD DUP2 LT PUSH2 0x1620 JUMPI PUSH2 0x1620 PUSH2 0x327F JUMP JUMPDEST PUSH1 0x20 MUL PUSH1 0x20 ADD ADD DUP2 DUP2 MSTORE POP POP JUMPDEST PUSH2 0x1636 DUP2 PUSH2 0x1B4B JUMP JUMPDEST PUSH1 0x20 ADD MLOAD DUP3 DUP3 DUP2 MLOAD DUP2 LT PUSH2 0x164C JUMPI PUSH2 0x164C PUSH2 0x327F JUMP JUMPDEST PUSH1 0x1 PUSH1 0x1 PUSH1 0xA0 SHL SUB SWAP1 SWAP3 AND PUSH1 0x20 SWAP3 DUP4 MUL SWAP2 SWAP1 SWAP2 ADD SWAP1 SWAP2 ADD MSTORE DUP1 PUSH2 0x166E DUP2 PUSH2 0x3295 JUMP JUMPDEST SWAP2 POP POP PUSH2 0x15E8 JUMP JUMPDEST POP SWAP1 SWAP5 SWAP4 POP POP POP POP JUMP JUMPDEST PUSH2 0x1688 PUSH2 0x2687 JUMP JUMPDEST PUSH2 0xF16 PUSH1 0x0 PUSH2 0x2A02 JUMP JUMPDEST PUSH1 0x0 SLOAD PUSH2 0x100 SWAP1 DIV PUSH1 0xFF AND ISZERO DUP1 DUP1 ISZERO PUSH2 0x16B2 JUMPI POP PUSH1 0x0 SLOAD PUSH1 0x1 PUSH1 0xFF SWAP1 SWAP2 AND LT JUMPDEST DUP1 PUSH2 0x16CC JUMPI POP ADDRESS EXTCODESIZE ISZERO DUP1 ISZERO PUSH2 0x16CC JUMPI POP PUSH1 0x0 SLOAD PUSH1 0xFF AND PUSH1 0x1 EQ JUMPDEST PUSH2 0x172F JUMPI PUSH1 0x40 MLOAD PUSH3 0x461BCD PUSH1 0xE5 SHL DUP2 MSTORE PUSH1 0x20 PUSH1 0x4 DUP3 ADD MSTORE PUSH1 0x2E PUSH1 0x24 DUP3 ADD MSTORE PUSH32 0x496E697469616C697A61626C653A20636F6E747261637420697320616C726561 PUSH1 0x44 DUP3 ADD MSTORE PUSH14 0x191E481A5B9A5D1A585B1A5E9959 PUSH1 0x92 SHL PUSH1 0x64 DUP3 ADD MSTORE PUSH1 0x84 ADD PUSH2 0x777 JUMP JUMPDEST PUSH1 0x0 DUP1 SLOAD PUSH1 0xFF NOT AND PUSH1 0x1 OR SWAP1 SSTORE DUP1 ISZERO PUSH2 0x1752 JUMPI PUSH1 0x0 DUP1 SLOAD PUSH2 0xFF00 NOT AND PUSH2 0x100 OR SWAP1 SSTORE JUMPDEST PUSH1 0xFB DUP1 SLOAD PUSH1 0x1 PUSH1 0x1 PUSH1 0xA0 SHL SUB NOT AND PUSH20 0xBE5153BAA3756402B08FD830E7B5F00A76E68231 OR SWAP1 SSTORE PUSH8 0x8AC7230489E80000 PUSH2 0x100 SSTORE PUSH1 0xC8 PUSH2 0x101 SSTORE PUSH4 0x3C26700 PUSH2 0x102 SSTORE PUSH3 0x278D00 PUSH2 0x103 SSTORE PUSH2 0x17A4 PUSH2 0x2A54 JUMP JUMPDEST PUSH2 0x17AC PUSH2 0x2A83 JUMP JUMPDEST PUSH2 0x17B4 PUSH2 0x2AB2 JUMP JUMPDEST DUP1 ISZERO PUSH2 0xE72 JUMPI PUSH1 0x0 DUP1 SLOAD PUSH2 0xFF00 NOT AND SWAP1 SSTORE PUSH1 0x40 MLOAD PUSH1 0x1 DUP2 MSTORE PUSH32 0x7F26B83FF96E1F2B6A682F133852F6798A09C465DA95921460CEFB3847402498 SWAP1 PUSH1 0x20 ADD PUSH1 0x40 MLOAD DUP1 SWAP2 SUB SWAP1 LOG1 POP JUMP JUMPDEST PUSH2 0x1804 PUSH2 0x2687 JUMP JUMPDEST PUSH2 0xF16 PUSH2 0x2AD9 JUMP JUMPDEST PUSH1 0x1 PUSH1 0x1 PUSH1 0xA0 SHL SUB DUP2 AND PUSH1 0x0 SWAP1 DUP2 MSTORE PUSH2 0x104 PUSH1 0x20 SWAP1 DUP2 MSTORE PUSH1 0x40 DUP1 DUP4 KECCAK256 DUP1 SLOAD DUP3 MLOAD DUP2 DUP6 MUL DUP2 ADD DUP6 ADD SWAP1 SWAP4 MSTORE DUP1 DUP4 MSTORE DUP5 SWAP4 DUP4 ADD DUP3 DUP3 DUP1 ISZERO PUSH2 0x186A JUMPI PUSH1 0x20 MUL DUP3 ADD SWAP2 SWAP1 PUSH1 0x0 MSTORE PUSH1 0x20 PUSH1 0x0 KECCAK256 SWAP1 JUMPDEST DUP2 SLOAD DUP2 MSTORE PUSH1 0x20 ADD SWAP1 PUSH1 0x1 ADD SWAP1 DUP1 DUP4 GT PUSH2 0x1856 JUMPI JUMPDEST POP POP POP POP POP SWAP1 POP PUSH1 0x0 DUP2 MLOAD SWAP1 POP PUSH1 0x0 DUP1 JUMPDEST DUP3 DUP2 PUSH1 0xFF AND LT ISZERO PUSH2 0x18EC JUMPI PUSH2 0x189E DUP5 DUP3 PUSH1 0xFF AND DUP2 MLOAD DUP2 LT PUSH2 0xFA6 JUMPI PUSH2 0xFA6 PUSH2 0x327F JUMP JUMPDEST MLOAD ISZERO ISZERO PUSH1 0x1 SUB PUSH2 0x18DA JUMPI PUSH2 0x18CD DUP5 DUP3 PUSH1 0xFF AND DUP2 MLOAD DUP2 LT PUSH2 0x18C0 JUMPI PUSH2 0x18C0 PUSH2 0x327F JUMP JUMPDEST PUSH1 0x20 MUL PUSH1 0x20 ADD ADD MLOAD PUSH2 0x21EA JUMP JUMPDEST PUSH2 0x18D7 SWAP1 DUP4 PUSH2 0x324A JUMP JUMPDEST SWAP2 POP JUMPDEST DUP1 PUSH2 0x18E4 DUP2 PUSH2 0x335D JUMP JUMPDEST SWAP2 POP POP PUSH2 0x187B JUMP JUMPDEST POP SWAP5 SWAP4 POP POP POP POP JUMP JUMPDEST PUSH2 0x18FD PUSH2 0x2B16 JUMP JUMPDEST PUSH1 0xFB SLOAD PUSH1 0x40 DUP1 MLOAD PUSH4 0x2AD1B9EB PUSH1 0xE1 SHL DUP2 MSTORE SWAP1 MLOAD CALLER SWAP3 DUP5 SWAP3 PUSH1 0x1 PUSH1 0x1 PUSH1 0xA0 SHL SUB SWAP1 SWAP2 AND SWAP2 DUP3 SWAP2 PUSH4 0x55A373D6 SWAP2 PUSH1 0x4 DUP1 DUP4 ADD SWAP3 PUSH1 0x20 SWAP3 SWAP2 SWAP1 DUP3 SWAP1 SUB ADD DUP2 DUP7 GAS STATICCALL ISZERO DUP1 ISZERO PUSH2 0x194C JUMPI RETURNDATASIZE PUSH1 0x0 DUP1 RETURNDATACOPY RETURNDATASIZE PUSH1 0x0 REVERT JUMPDEST POP POP POP POP PUSH1 0x40 MLOAD RETURNDATASIZE PUSH1 0x1F NOT PUSH1 0x1F DUP3 ADD AND DUP3 ADD DUP1 PUSH1 0x40 MSTORE POP DUP2 ADD SWAP1 PUSH2 0x1970 SWAP2 SWAP1 PUSH2 0x322D JUMP JUMPDEST PUSH1 0x40 MLOAD PUSH4 0x23B872DD PUSH1 0xE0 SHL DUP2 MSTORE PUSH1 0x1 PUSH1 0x1 PUSH1 0xA0 SHL SUB DUP6 DUP2 AND PUSH1 0x4 DUP4 ADD MSTORE ADDRESS PUSH1 0x24 DUP4 ADD MSTORE PUSH1 0x44 DUP3 ADD DUP6 SWAP1 MSTORE SWAP2 SWAP1 SWAP2 AND SWAP1 PUSH4 0x23B872DD SWAP1 PUSH1 0x64 ADD PUSH1 0x20 PUSH1 0x40 MLOAD DUP1 DUP4 SUB DUP2 PUSH1 0x0 DUP8 GAS CALL ISZERO DUP1 ISZERO PUSH2 0x19C7 JUMPI RETURNDATASIZE PUSH1 0x0 DUP1 RETURNDATACOPY RETURNDATASIZE PUSH1 0x0 REVERT JUMPDEST POP POP POP POP PUSH1 0x40 MLOAD RETURNDATASIZE PUSH1 0x1F NOT PUSH1 0x1F DUP3 ADD AND DUP3 ADD DUP1 PUSH1 0x40 MSTORE POP DUP2 ADD SWAP1 PUSH2 0x19EB SWAP2 SWAP1 PUSH2 0x325D JUMP JUMPDEST POP DUP1 PUSH1 0x1 PUSH1 0x1 PUSH1 0xA0 SHL SUB AND PUSH4 0xB70CC4C1 PUSH1 0x40 MLOAD DUP2 PUSH4 0xFFFFFFFF AND PUSH1 0xE0 SHL DUP2 MSTORE PUSH1 0x4 ADD PUSH1 0x20 PUSH1 0x40 MLOAD DUP1 DUP4 SUB DUP2 DUP7 GAS STATICCALL ISZERO DUP1 ISZERO PUSH2 0x1A2A JUMPI RETURNDATASIZE PUSH1 0x0 DUP1 RETURNDATACOPY RETURNDATASIZE PUSH1 0x0 REVERT JUMPDEST POP POP POP POP PUSH1 0x40 MLOAD RETURNDATASIZE PUSH1 0x1F NOT PUSH1 0x1F DUP3 ADD AND DUP3 ADD DUP1 PUSH1 0x40 MSTORE POP DUP2 ADD SWAP1 PUSH2 0x1A4E SWAP2 SWAP1 PUSH2 0x322D JUMP JUMPDEST PUSH1 0x1 PUSH1 0x1 PUSH1 0xA0 SHL SUB AND PUSH4 0x23B872DD DUP5 ADDRESS DUP5 PUSH1 0x1 PUSH1 0x1 PUSH1 0xA0 SHL SUB AND PUSH4 0x4BC92D6C PUSH1 0x40 MLOAD DUP2 PUSH4 0xFFFFFFFF AND PUSH1 0xE0 SHL DUP2 MSTORE PUSH1 0x4 ADD PUSH1 0x20 PUSH1 0x40 MLOAD DUP1 DUP4 SUB DUP2 DUP7 GAS STATICCALL ISZERO DUP1 ISZERO PUSH2 0x1A9C JUMPI RETURNDATASIZE PUSH1 0x0 DUP1 RETURNDATACOPY RETURNDATASIZE PUSH1 0x0 REVERT JUMPDEST POP POP POP POP PUSH1 0x40 MLOAD RETURNDATASIZE PUSH1 0x1F NOT PUSH1 0x1F DUP3 ADD AND DUP3 ADD DUP1 PUSH1 0x40 MSTORE POP DUP2 ADD SWAP1 PUSH2 0x1AC0 SWAP2 SWAP1 PUSH2 0x337C JUMP JUMPDEST PUSH1 0x40 MLOAD PUSH1 0x1 PUSH1 0x1 PUSH1 0xE0 SHL SUB NOT PUSH1 0xE0 DUP7 SWAP1 SHL AND DUP2 MSTORE PUSH1 0x1 PUSH1 0x1 PUSH1 0xA0 SHL SUB SWAP4 DUP5 AND PUSH1 0x4 DUP3 ADD MSTORE SWAP3 SWAP1 SWAP2 AND PUSH1 0x24 DUP4 ADD MSTORE PUSH1 0x44 DUP3 ADD MSTORE PUSH1 0x64 ADD PUSH1 0x20 PUSH1 0x40 MLOAD DUP1 DUP4 SUB DUP2 PUSH1 0x0 DUP8 GAS CALL ISZERO DUP1 ISZERO PUSH2 0x1B14 JUMPI RETURNDATASIZE PUSH1 0x0 DUP1 RETURNDATACOPY RETURNDATASIZE PUSH1 0x0 REVERT JUMPDEST POP POP POP POP PUSH1 0x40 MLOAD RETURNDATASIZE PUSH1 0x1F NOT PUSH1 0x1F DUP3 ADD AND DUP3 ADD DUP1 PUSH1 0x40 MSTORE POP DUP2 ADD SWAP1 PUSH2 0x1B38 SWAP2 SWAP1 PUSH2 0x325D JUMP JUMPDEST POP PUSH2 0x1481 DUP4 DUP4 PUSH2 0x101 SLOAD PUSH2 0x102 SLOAD PUSH2 0x28AB JUMP JUMPDEST PUSH2 0x1BAC PUSH1 0x40 MLOAD DUP1 PUSH2 0x140 ADD PUSH1 0x40 MSTORE DUP1 PUSH1 0x0 ISZERO ISZERO DUP2 MSTORE PUSH1 0x20 ADD PUSH1 0x0 PUSH1 0x1 PUSH1 0x1 PUSH1 0xA0 SHL SUB AND DUP2 MSTORE PUSH1 0x20 ADD PUSH1 0x0 DUP2 MSTORE PUSH1 0x20 ADD PUSH1 0x0 DUP2 MSTORE PUSH1 0x20 ADD PUSH1 0x0 DUP2 MSTORE PUSH1 0x20 ADD PUSH1 0x0 DUP2 MSTORE PUSH1 0x20 ADD PUSH1 0x0 DUP2 MSTORE PUSH1 0x20 ADD PUSH1 0x0 DUP2 MSTORE PUSH1 0x20 ADD PUSH1 0x0 DUP2 MSTORE PUSH1 0x20 ADD PUSH1 0x60 DUP2 MSTORE POP SWAP1 JUMP JUMPDEST PUSH1 0x0 DUP3 DUP2 MSTORE PUSH2 0x105 PUSH1 0x20 SWAP1 DUP2 MSTORE PUSH1 0x40 SWAP2 DUP3 SWAP1 KECCAK256 DUP3 MLOAD PUSH2 0x140 DUP2 ADD DUP5 MSTORE DUP2 SLOAD PUSH1 0xFF DUP2 AND ISZERO ISZERO DUP3 MSTORE PUSH1 0x1 PUSH1 0x1 PUSH1 0xA0 SHL SUB PUSH2 0x100 SWAP2 DUP3 SWAP1 DIV AND DUP3 DUP6 ADD MSTORE PUSH1 0x1 DUP4 ADD SLOAD DUP3 DUP7 ADD MSTORE PUSH1 0x2 DUP4 ADD SLOAD PUSH1 0x60 DUP4 ADD MSTORE PUSH1 0x3 DUP4 ADD SLOAD PUSH1 0x80 DUP4 ADD MSTORE PUSH1 0x4 DUP4 ADD SLOAD PUSH1 0xA0 DUP4 ADD MSTORE PUSH1 0x5 DUP4 ADD SLOAD PUSH1 0xC0 DUP4 ADD MSTORE PUSH1 0x6 DUP4 ADD SLOAD PUSH1 0xE0 DUP4 ADD MSTORE PUSH1 0x7 DUP4 ADD SLOAD SWAP1 DUP3 ADD MSTORE PUSH1 0x8 DUP3 ADD DUP1 SLOAD DUP6 MLOAD DUP2 DUP7 MUL DUP2 ADD DUP7 ADD SWAP1 SWAP7 MSTORE DUP1 DUP7 MSTORE SWAP2 SWAP5 SWAP3 SWAP4 PUSH2 0x120 DUP7 ADD SWAP4 SWAP3 SWAP1 DUP4 ADD DUP3 DUP3 DUP1 ISZERO PUSH2 0x1C7A JUMPI PUSH1 0x20 MUL DUP3 ADD SWAP2 SWAP1 PUSH1 0x0 MSTORE PUSH1 0x20 PUSH1 0x0 KECCAK256 SWAP1 JUMPDEST DUP2 SLOAD DUP2 MSTORE PUSH1 0x20 ADD SWAP1 PUSH1 0x1 ADD SWAP1 DUP1 DUP4 GT PUSH2 0x1C66 JUMPI JUMPDEST POP POP POP POP POP DUP2 MSTORE POP POP SWAP1 POP SWAP2 SWAP1 POP JUMP JUMPDEST PUSH1 0x0 PUSH2 0xD90 DUP3 PUSH2 0x21EA JUMP JUMPDEST PUSH1 0x1 PUSH1 0x1 PUSH1 0xA0 SHL SUB DUP2 AND PUSH1 0x0 SWAP1 DUP2 MSTORE PUSH2 0x104 PUSH1 0x20 SWAP1 DUP2 MSTORE PUSH1 0x40 DUP1 DUP4 KECCAK256 DUP1 SLOAD DUP3 MLOAD DUP2 DUP6 MUL DUP2 ADD DUP6 ADD SWAP1 SWAP4 MSTORE DUP1 DUP4 MSTORE SWAP1 SWAP3 DUP5 SWAP3 SWAP2 DUP5 SWAP2 DUP4 ADD DUP3 DUP3 DUP1 ISZERO PUSH2 0x1CF8 JUMPI PUSH1 0x20 MUL DUP3 ADD SWAP2 SWAP1 PUSH1 0x0 MSTORE PUSH1 0x20 PUSH1 0x0 KECCAK256 SWAP1 JUMPDEST DUP2 SLOAD DUP2 MSTORE PUSH1 0x20 ADD SWAP1 PUSH1 0x1 ADD SWAP1 DUP1 DUP4 GT PUSH2 0x1CE4 JUMPI JUMPDEST POP POP DUP4 MLOAD SWAP4 SWAP5 POP PUSH1 0x0 SWAP3 POP POP POP JUMPDEST DUP2 DUP2 LT ISZERO PUSH2 0xFF1 JUMPI PUSH2 0x1D23 DUP4 DUP3 DUP2 MLOAD DUP2 LT PUSH2 0xFA6 JUMPI PUSH2 0xFA6 PUSH2 0x327F JUMP JUMPDEST PUSH1 0xC0 ADD MLOAD PUSH2 0x1D31 SWAP1 DUP7 PUSH2 0x324A JUMP JUMPDEST SWAP5 POP DUP1 PUSH2 0x1D3D DUP2 PUSH2 0x3295 JUMP JUMPDEST SWAP2 POP POP PUSH2 0x1D06 JUMP JUMPDEST PUSH2 0x1D4D PUSH2 0x2687 JUMP JUMPDEST PUSH2 0x101 SSTORE JUMP JUMPDEST PUSH1 0x40 DUP1 MLOAD PUSH1 0x60 DUP1 DUP3 ADD DUP4 MSTORE DUP1 DUP3 MSTORE PUSH1 0x20 DUP1 DUP4 ADD DUP3 SWAP1 MSTORE PUSH1 0x0 DUP4 DUP6 ADD DUP2 SWAP1 MSTORE PUSH1 0x1 PUSH1 0x1 PUSH1 0xA0 SHL SUB DUP7 AND DUP2 MSTORE PUSH2 0x104 DUP3 MSTORE DUP5 SWAP1 KECCAK256 DUP5 MLOAD DUP2 SLOAD SWAP3 DUP4 MUL DUP2 ADD PUSH1 0x80 SWAP1 DUP2 ADD SWAP1 SWAP7 MSTORE SWAP3 DUP4 ADD DUP3 DUP2 MSTORE SWAP4 SWAP5 SWAP3 SWAP4 SWAP1 SWAP3 DUP5 SWAP3 DUP5 SWAP2 DUP5 ADD DUP3 DUP3 DUP1 ISZERO PUSH2 0x1DD5 JUMPI PUSH1 0x20 MUL DUP3 ADD SWAP2 SWAP1 PUSH1 0x0 MSTORE PUSH1 0x20 PUSH1 0x0 KECCAK256 SWAP1 JUMPDEST DUP2 SLOAD DUP2 MSTORE PUSH1 0x20 ADD SWAP1 PUSH1 0x1 ADD SWAP1 DUP1 DUP4 GT PUSH2 0x1DC1 JUMPI JUMPDEST POP POP POP POP POP DUP2 MSTORE PUSH1 0x20 ADD PUSH1 0x1 DUP3 ADD DUP1 SLOAD DUP1 PUSH1 0x20 MUL PUSH1 0x20 ADD PUSH1 0x40 MLOAD SWAP1 DUP2 ADD PUSH1 0x40 MSTORE DUP1 SWAP3 SWAP2 SWAP1 DUP2 DUP2 MSTORE PUSH1 0x20 ADD DUP3 DUP1 SLOAD DUP1 ISZERO PUSH2 0x1E2D JUMPI PUSH1 0x20 MUL DUP3 ADD SWAP2 SWAP1 PUSH1 0x0 MSTORE PUSH1 0x20 PUSH1 0x0 KECCAK256 SWAP1 JUMPDEST DUP2 SLOAD DUP2 MSTORE PUSH1 0x20 ADD SWAP1 PUSH1 0x1 ADD SWAP1 DUP1 DUP4 GT PUSH2 0x1E19 JUMPI JUMPDEST POP POP POP SWAP2 DUP4 MSTORE POP POP PUSH1 0x2 SWAP2 SWAP1 SWAP2 ADD SLOAD PUSH1 0xFF AND ISZERO ISZERO PUSH1 0x20 SWAP1 SWAP2 ADD MSTORE SWAP3 SWAP2 POP POP JUMP JUMPDEST PUSH1 0x60 PUSH1 0x0 PUSH1 0xFC DUP1 SLOAD DUP1 PUSH1 0x20 MUL PUSH1 0x20 ADD PUSH1 0x40 MLOAD SWAP1 DUP2 ADD PUSH1 0x40 MSTORE DUP1 SWAP3 SWAP2 SWAP1 DUP2 DUP2 MSTORE PUSH1 0x20 ADD DUP3 DUP1 SLOAD DUP1 ISZERO PUSH2 0x1EA7 JUMPI PUSH1 0x20 MUL DUP3 ADD SWAP2 SWAP1 PUSH1 0x0 MSTORE PUSH1 0x20 PUSH1 0x0 KECCAK256 SWAP1 JUMPDEST DUP2 SLOAD PUSH1 0x1 PUSH1 0x1 PUSH1 0xA0 SHL SUB AND DUP2 MSTORE PUSH1 0x1 SWAP1 SWAP2 ADD SWAP1 PUSH1 0x20 ADD DUP1 DUP4 GT PUSH2 0x1E89 JUMPI JUMPDEST POP POP POP POP POP SWAP1 POP PUSH1 0x0 DUP2 MLOAD SWAP1 POP PUSH1 0x0 DUP2 PUSH8 0xFFFFFFFFFFFFFFFF DUP2 GT ISZERO PUSH2 0x1ECF JUMPI PUSH2 0x1ECF PUSH2 0x2F8C JUMP JUMPDEST PUSH1 0x40 MLOAD SWAP1 DUP1 DUP3 MSTORE DUP1 PUSH1 0x20 MUL PUSH1 0x20 ADD DUP3 ADD PUSH1 0x40 MSTORE DUP1 ISZERO PUSH2 0x1EF8 JUMPI DUP2 PUSH1 0x20 ADD PUSH1 0x20 DUP3 MUL DUP1 CALLDATASIZE DUP4 CALLDATACOPY ADD SWAP1 POP JUMPDEST POP SWAP1 POP PUSH1 0x0 DUP1 JUMPDEST DUP4 DUP2 LT ISZERO PUSH2 0x1676 JUMPI PUSH2 0x1F2A DUP4 DUP7 DUP4 DUP2 MLOAD DUP2 LT PUSH2 0x1F1D JUMPI PUSH2 0x1F1D PUSH2 0x327F JUMP JUMPDEST PUSH1 0x20 MUL PUSH1 0x20 ADD ADD MLOAD PUSH2 0x2622 JUMP JUMPDEST ISZERO ISZERO PUSH1 0x1 EQ PUSH2 0x1F85 JUMPI DUP5 DUP2 DUP2 MLOAD DUP2 LT PUSH2 0x1F45 JUMPI PUSH2 0x1F45 PUSH2 0x327F JUMP JUMPDEST PUSH1 0x20 MUL PUSH1 0x20 ADD ADD MLOAD DUP4 DUP4 DUP2 MLOAD DUP2 LT PUSH2 0x1F5F JUMPI PUSH2 0x1F5F PUSH2 0x327F JUMP JUMPDEST PUSH1 0x1 PUSH1 0x1 PUSH1 0xA0 SHL SUB SWAP1 SWAP3 AND PUSH1 0x20 SWAP3 DUP4 MUL SWAP2 SWAP1 SWAP2 ADD SWAP1 SWAP2 ADD MSTORE DUP2 PUSH2 0x1F81 DUP2 PUSH2 0x3295 JUMP JUMPDEST SWAP3 POP POP JUMPDEST DUP1 PUSH2 0x1F8F DUP2 PUSH2 0x3295 JUMP JUMPDEST SWAP2 POP POP PUSH2 0x1EFF JUMP JUMPDEST PUSH1 0x0 PUSH2 0x1FA1 PUSH2 0x2687 JUMP JUMPDEST POP PUSH2 0x100 DUP2 SWAP1 SSTORE SWAP1 JUMP JUMPDEST PUSH1 0x0 DUP2 DUP2 MSTORE PUSH2 0x105 PUSH1 0x20 MSTORE PUSH1 0x40 DUP2 KECCAK256 PUSH1 0x4 DUP2 ADD SLOAD PUSH1 0x3 DUP3 ADD SLOAD TIMESTAMP SWAP3 SWAP2 DUP5 SWAP2 PUSH2 0x1FD3 SWAP2 SWAP1 PUSH2 0x324A JUMP JUMPDEST SWAP1 POP DUP1 DUP4 LT ISZERO PUSH2 0x2005 JUMPI DUP3 DUP3 PUSH1 0x4 ADD SLOAD DUP4 PUSH1 0x3 ADD SLOAD PUSH2 0x1FF2 SWAP2 SWAP1 PUSH2 0x324A JUMP JUMPDEST PUSH2 0x1FFC SWAP2 SWAP1 PUSH2 0x3395 JUMP JUMPDEST SWAP6 SWAP5 POP POP POP POP POP JUMP JUMPDEST POP PUSH1 0x0 SWAP5 SWAP4 POP POP POP POP JUMP JUMPDEST PUSH1 0x60 PUSH1 0x0 PUSH1 0xFC DUP1 SLOAD DUP1 PUSH1 0x20 MUL PUSH1 0x20 ADD PUSH1 0x40 MLOAD SWAP1 DUP2 ADD PUSH1 0x40 MSTORE DUP1 SWAP3 SWAP2 SWAP1 DUP2 DUP2 MSTORE PUSH1 0x20 ADD DUP3 DUP1 SLOAD DUP1 ISZERO PUSH2 0x206A JUMPI PUSH1 0x20 MUL DUP3 ADD SWAP2 SWAP1 PUSH1 0x0 MSTORE PUSH1 0x20 PUSH1 0x0 KECCAK256 SWAP1 JUMPDEST DUP2 SLOAD PUSH1 0x1 PUSH1 0x1 PUSH1 0xA0 SHL SUB AND DUP2 MSTORE PUSH1 0x1 SWAP1 SWAP2 ADD SWAP1 PUSH1 0x20 ADD DUP1 DUP4 GT PUSH2 0x204C JUMPI JUMPDEST POP POP POP POP POP SWAP1 POP PUSH1 0x0 DUP2 MLOAD SWAP1 POP PUSH1 0x0 DUP2 PUSH8 0xFFFFFFFFFFFFFFFF DUP2 GT ISZERO PUSH2 0x2092 JUMPI PUSH2 0x2092 PUSH2 0x2F8C JUMP JUMPDEST PUSH1 0x40 MLOAD SWAP1 DUP1 DUP3 MSTORE DUP1 PUSH1 0x20 MUL PUSH1 0x20 ADD DUP3 ADD PUSH1 0x40 MSTORE DUP1 ISZERO PUSH2 0x20BB JUMPI DUP2 PUSH1 0x20 ADD PUSH1 0x20 DUP3 MUL DUP1 CALLDATASIZE DUP4 CALLDATACOPY ADD SWAP1 POP JUMPDEST POP SWAP1 POP PUSH1 0x0 DUP1 JUMPDEST DUP4 DUP2 LT ISZERO PUSH2 0x1676 JUMPI PUSH2 0x20E0 DUP4 DUP7 DUP4 DUP2 MLOAD DUP2 LT PUSH2 0x1F1D JUMPI PUSH2 0x1F1D PUSH2 0x327F JUMP JUMPDEST ISZERO ISZERO PUSH1 0x1 EQ PUSH2 0x2162 JUMPI PUSH2 0x210B DUP6 DUP3 DUP2 MLOAD DUP2 LT PUSH2 0x20FE JUMPI PUSH2 0x20FE PUSH2 0x327F JUMP JUMPDEST PUSH1 0x20 MUL PUSH1 0x20 ADD ADD MLOAD PUSH2 0x12A9 JUMP JUMPDEST ISZERO PUSH2 0x2162 JUMPI DUP5 DUP2 DUP2 MLOAD DUP2 LT PUSH2 0x2122 JUMPI PUSH2 0x2122 PUSH2 0x327F JUMP JUMPDEST PUSH1 0x20 MUL PUSH1 0x20 ADD ADD MLOAD DUP4 DUP4 DUP2 MLOAD DUP2 LT PUSH2 0x213C JUMPI PUSH2 0x213C PUSH2 0x327F JUMP JUMPDEST PUSH1 0x1 PUSH1 0x1 PUSH1 0xA0 SHL SUB SWAP1 SWAP3 AND PUSH1 0x20 SWAP3 DUP4 MUL SWAP2 SWAP1 SWAP2 ADD SWAP1 SWAP2 ADD MSTORE DUP2 PUSH2 0x215E DUP2 PUSH2 0x3295 JUMP JUMPDEST SWAP3 POP POP JUMPDEST DUP1 PUSH2 0x216C DUP2 PUSH2 0x3295 JUMP JUMPDEST SWAP2 POP POP PUSH2 0x20C2 JUMP JUMPDEST PUSH2 0x217C PUSH2 0x2687 JUMP JUMPDEST PUSH1 0x1 PUSH1 0x1 PUSH1 0xA0 SHL SUB DUP2 AND PUSH2 0x21E1 JUMPI PUSH1 0x40 MLOAD PUSH3 0x461BCD PUSH1 0xE5 SHL DUP2 MSTORE PUSH1 0x20 PUSH1 0x4 DUP3 ADD MSTORE PUSH1 0x26 PUSH1 0x24 DUP3 ADD MSTORE PUSH32 0x4F776E61626C653A206E6577206F776E657220697320746865207A65726F2061 PUSH1 0x44 DUP3 ADD MSTORE PUSH6 0x646472657373 PUSH1 0xD0 SHL PUSH1 0x64 DUP3 ADD MSTORE PUSH1 0x84 ADD PUSH2 0x777 JUMP JUMPDEST PUSH2 0xE72 DUP2 PUSH2 0x2A02 JUMP JUMPDEST PUSH1 0x0 DUP2 DUP2 MSTORE PUSH2 0x105 PUSH1 0x20 MSTORE PUSH1 0x40 DUP2 KECCAK256 PUSH1 0x3 DUP2 ADD SLOAD TIMESTAMP SWAP2 SWAP1 DUP4 SWAP1 PUSH2 0x220D SWAP1 DUP5 PUSH2 0x3395 JUMP JUMPDEST SWAP1 POP PUSH1 0x0 DUP3 PUSH1 0x4 ADD SLOAD PUSH1 0x64 DUP5 PUSH1 0x2 ADD SLOAD DUP6 PUSH1 0x1 ADD SLOAD PUSH2 0x222C SWAP2 SWAP1 PUSH2 0x3346 JUMP JUMPDEST PUSH2 0x2236 SWAP2 SWAP1 PUSH2 0x320B JUMP JUMPDEST PUSH2 0x2240 SWAP2 SWAP1 PUSH2 0x320B JUMP JUMPDEST SWAP1 POP DUP3 PUSH1 0x5 ADD SLOAD PUSH2 0x2255 DUP4 DUP6 PUSH1 0x4 ADD SLOAD PUSH2 0x2B5C JUMP JUMPDEST PUSH2 0x225F SWAP1 DUP4 PUSH2 0x3346 JUMP JUMPDEST PUSH2 0x2269 SWAP2 SWAP1 PUSH2 0x3395 JUMP JUMPDEST SWAP7 SWAP6 POP POP POP POP POP POP JUMP JUMPDEST PUSH1 0x40 DUP1 MLOAD PUSH1 0x2 DUP1 DUP3 MSTORE PUSH1 0x60 DUP3 ADD DUP4 MSTORE PUSH1 0x0 SWAP3 DUP4 SWAP3 SWAP2 SWAP1 PUSH1 0x20 DUP4 ADD SWAP1 DUP1 CALLDATASIZE DUP4 CALLDATACOPY ADD SWAP1 POP POP SWAP1 POP DUP4 DUP2 PUSH1 0x0 DUP2 MLOAD DUP2 LT PUSH2 0x22AC JUMPI PUSH2 0x22AC PUSH2 0x327F JUMP JUMPDEST PUSH1 0x20 MUL PUSH1 0x20 ADD ADD SWAP1 PUSH1 0x1 PUSH1 0x1 PUSH1 0xA0 SHL SUB AND SWAP1 DUP2 PUSH1 0x1 PUSH1 0x1 PUSH1 0xA0 SHL SUB AND DUP2 MSTORE POP POP DUP3 DUP2 PUSH1 0x1 DUP2 MLOAD DUP2 LT PUSH2 0x22E0 JUMPI PUSH2 0x22E0 PUSH2 0x327F JUMP JUMPDEST PUSH1 0x1 PUSH1 0x1 PUSH1 0xA0 SHL SUB SWAP3 DUP4 AND PUSH1 0x20 SWAP2 DUP3 MUL SWAP3 SWAP1 SWAP3 ADD DUP2 ADD SWAP2 SWAP1 SWAP2 MSTORE PUSH1 0xFB SLOAD PUSH1 0x40 DUP1 MLOAD PUSH4 0x41486253 PUSH1 0xE1 SHL DUP2 MSTORE SWAP1 MLOAD SWAP2 SWAP1 SWAP4 AND SWAP3 PUSH1 0x0 SWAP3 DUP5 SWAP3 PUSH4 0x8290C4A6 SWAP3 PUSH1 0x4 DUP1 DUP3 ADD SWAP4 SWAP3 SWAP2 DUP3 SWAP1 SUB ADD DUP2 DUP7 GAS STATICCALL ISZERO DUP1 ISZERO PUSH2 0x233E JUMPI RETURNDATASIZE PUSH1 0x0 DUP1 RETURNDATACOPY RETURNDATASIZE PUSH1 0x0 REVERT JUMPDEST POP POP POP POP PUSH1 0x40 MLOAD RETURNDATASIZE PUSH1 0x1F NOT PUSH1 0x1F DUP3 ADD AND DUP3 ADD DUP1 PUSH1 0x40 MSTORE POP DUP2 ADD SWAP1 PUSH2 0x2362 SWAP2 SWAP1 PUSH2 0x322D JUMP JUMPDEST PUSH1 0x1 PUSH1 0x1 PUSH1 0xA0 SHL SUB AND PUSH4 0xD06CA61F DUP9 DUP6 PUSH1 0x40 MLOAD DUP4 PUSH4 0xFFFFFFFF AND PUSH1 0xE0 SHL DUP2 MSTORE PUSH1 0x4 ADD PUSH2 0x238F SWAP3 SWAP2 SWAP1 PUSH2 0x33A8 JUMP JUMPDEST PUSH1 0x0 PUSH1 0x40 MLOAD DUP1 DUP4 SUB DUP2 DUP7 GAS STATICCALL ISZERO DUP1 ISZERO PUSH2 0x23AC JUMPI RETURNDATASIZE PUSH1 0x0 DUP1 RETURNDATACOPY RETURNDATASIZE PUSH1 0x0 REVERT JUMPDEST POP POP POP POP PUSH1 0x40 MLOAD RETURNDATASIZE PUSH1 0x0 DUP3 RETURNDATACOPY PUSH1 0x1F RETURNDATASIZE SWAP1 DUP2 ADD PUSH1 0x1F NOT AND DUP3 ADD PUSH1 0x40 MSTORE PUSH2 0x23D4 SWAP2 SWAP1 DUP2 ADD SWAP1 PUSH2 0x33C1 JUMP JUMPDEST SWAP1 POP DUP1 PUSH1 0x1 DUP2 MLOAD DUP2 LT PUSH2 0x23E9 JUMPI PUSH2 0x23E9 PUSH2 0x327F JUMP JUMPDEST PUSH1 0x20 MUL PUSH1 0x20 ADD ADD MLOAD SWAP4 POP POP POP POP SWAP4 SWAP3 POP POP POP JUMP JUMPDEST DUP4 DUP7 PUSH1 0x5 ADD PUSH1 0x0 DUP3 DUP3 SLOAD PUSH2 0x2411 SWAP2 SWAP1 PUSH2 0x324A JUMP JUMPDEST SWAP3 POP POP DUP2 SWAP1 SSTORE POP DUP3 DUP7 PUSH1 0x6 ADD PUSH1 0x0 DUP3 DUP3 SLOAD PUSH2 0x242C SWAP2 SWAP1 PUSH2 0x324A JUMP JUMPDEST SWAP1 SWAP2 SSTORE POP POP PUSH1 0x7 DUP7 ADD DUP3 SWAP1 SSTORE PUSH1 0x8 DUP7 ADD DUP1 SLOAD PUSH1 0x1 DUP2 DUP2 ADD DUP4 SSTORE PUSH1 0x0 SWAP3 DUP4 MSTORE PUSH1 0x20 DUP1 DUP5 KECCAK256 SWAP1 SWAP3 ADD DUP5 SWAP1 SSTORE DUP8 DUP2 ADD DUP1 SLOAD SWAP2 DUP3 ADD DUP2 SSTORE DUP4 MSTORE SWAP1 DUP3 KECCAK256 ADD DUP3 SWAP1 SSTORE PUSH1 0xFE DUP1 SLOAD DUP7 SWAP3 SWAP1 PUSH2 0x247A SWAP1 DUP5 SWAP1 PUSH2 0x324A JUMP JUMPDEST SWAP3 POP POP DUP2 SWAP1 SSTORE POP DUP3 PUSH1 0xFF PUSH1 0x0 DUP3 DUP3 SLOAD PUSH2 0x2493 SWAP2 SWAP1 PUSH2 0x324A JUMP JUMPDEST SWAP3 POP POP DUP2 SWAP1 SSTORE POP DUP7 DUP5 DUP10 PUSH1 0x1 PUSH1 0x1 PUSH1 0xA0 SHL SUB AND PUSH32 0xFEC605188CF64597B9AA9CF424A9BBA4A84FFB09F9F66C932D6EFA1B96FCC7E4 PUSH1 0xFB PUSH1 0x0 SWAP1 SLOAD SWAP1 PUSH2 0x100 EXP SWAP1 DIV PUSH1 0x1 PUSH1 0x1 PUSH1 0xA0 SHL SUB AND PUSH1 0x1 PUSH1 0x1 PUSH1 0xA0 SHL SUB AND PUSH4 0x55A373D6 PUSH1 0x40 MLOAD DUP2 PUSH4 0xFFFFFFFF AND PUSH1 0xE0 SHL DUP2 MSTORE PUSH1 0x4 ADD PUSH1 0x20 PUSH1 0x40 MLOAD DUP1 DUP4 SUB DUP2 DUP7 GAS STATICCALL ISZERO DUP1 ISZERO PUSH2 0x251A JUMPI RETURNDATASIZE PUSH1 0x0 DUP1 RETURNDATACOPY RETURNDATASIZE PUSH1 0x0 REVERT JUMPDEST POP POP POP POP PUSH1 0x40 MLOAD RETURNDATASIZE PUSH1 0x1F NOT PUSH1 0x1F DUP3 ADD AND DUP3 ADD DUP1 PUSH1 0x40 MSTORE POP DUP2 ADD SWAP1 PUSH2 0x253E SWAP2 SWAP1 PUSH2 0x322D JUMP JUMPDEST PUSH1 0x40 MLOAD PUSH1 0x1 PUSH1 0x1 PUSH1 0xA0 SHL SUB SWAP1 SWAP2 AND DUP2 MSTORE PUSH1 0x20 ADD PUSH1 0x40 MLOAD DUP1 SWAP2 SUB SWAP1 LOG4 DUP7 DUP4 DUP10 PUSH1 0x1 PUSH1 0x1 PUSH1 0xA0 SHL SUB AND PUSH32 0xFEC605188CF64597B9AA9CF424A9BBA4A84FFB09F9F66C932D6EFA1B96FCC7E4 PUSH1 0xFB PUSH1 0x0 SWAP1 SLOAD SWAP1 PUSH2 0x100 EXP SWAP1 DIV PUSH1 0x1 PUSH1 0x1 PUSH1 0xA0 SHL SUB AND PUSH1 0x1 PUSH1 0x1 PUSH1 0xA0 SHL SUB AND PUSH4 0xB70CC4C1 PUSH1 0x40 MLOAD DUP2 PUSH4 0xFFFFFFFF AND PUSH1 0xE0 SHL DUP2 MSTORE PUSH1 0x4 ADD PUSH1 0x20 PUSH1 0x40 MLOAD DUP1 DUP4 SUB DUP2 DUP7 GAS STATICCALL ISZERO DUP1 ISZERO PUSH2 0x25D9 JUMPI RETURNDATASIZE PUSH1 0x0 DUP1 RETURNDATACOPY RETURNDATASIZE PUSH1 0x0 REVERT JUMPDEST POP POP POP POP PUSH1 0x40 MLOAD RETURNDATASIZE PUSH1 0x1F NOT PUSH1 0x1F DUP3 ADD AND DUP3 ADD DUP1 PUSH1 0x40 MSTORE POP DUP2 ADD SWAP1 PUSH2 0x25FD SWAP2 SWAP1 PUSH2 0x322D JUMP JUMPDEST PUSH1 0x40 MLOAD PUSH1 0x1 PUSH1 0x1 PUSH1 0xA0 SHL SUB SWAP1 SWAP2 AND DUP2 MSTORE PUSH1 0x20 ADD PUSH1 0x40 MLOAD DUP1 SWAP2 SUB SWAP1 LOG4 POP POP POP POP POP POP POP POP JUMP JUMPDEST PUSH1 0x0 DUP1 JUMPDEST DUP4 MLOAD DUP2 LT ISZERO PUSH2 0x267D JUMPI DUP3 PUSH1 0x1 PUSH1 0x1 PUSH1 0xA0 SHL SUB AND DUP5 DUP3 DUP2 MLOAD DUP2 LT PUSH2 0x264B JUMPI PUSH2 0x264B PUSH2 0x327F JUMP JUMPDEST PUSH1 0x20 MUL PUSH1 0x20 ADD ADD MLOAD PUSH1 0x1 PUSH1 0x1 PUSH1 0xA0 SHL SUB AND SUB PUSH2 0x266B JUMPI PUSH1 0x1 SWAP2 POP POP PUSH2 0xD90 JUMP JUMPDEST DUP1 PUSH2 0x2675 DUP2 PUSH2 0x3295 JUMP JUMPDEST SWAP2 POP POP PUSH2 0x2626 JUMP JUMPDEST POP PUSH1 0x0 SWAP4 SWAP3 POP POP POP JUMP JUMPDEST PUSH1 0x65 SLOAD PUSH1 0x1 PUSH1 0x1 PUSH1 0xA0 SHL SUB AND CALLER EQ PUSH2 0xF16 JUMPI PUSH1 0x40 MLOAD PUSH3 0x461BCD PUSH1 0xE5 SHL DUP2 MSTORE PUSH1 0x20 PUSH1 0x4 DUP3 ADD DUP2 SWAP1 MSTORE PUSH1 0x24 DUP3 ADD MSTORE PUSH32 0x4F776E61626C653A2063616C6C6572206973206E6F7420746865206F776E6572 PUSH1 0x44 DUP3 ADD MSTORE PUSH1 0x64 ADD PUSH2 0x777 JUMP JUMPDEST PUSH2 0xE72 PUSH2 0x2687 JUMP JUMPDEST PUSH32 0x4910FDFA16FED3260ED0E7147F7CC6DA11A60208B5B9406D12A635614FFD9143 SLOAD PUSH1 0xFF AND ISZERO PUSH2 0x2721 JUMPI PUSH2 0x271C DUP4 PUSH2 0x2B72 JUMP JUMPDEST POP POP POP JUMP JUMPDEST DUP3 PUSH1 0x1 PUSH1 0x1 PUSH1 0xA0 SHL SUB AND PUSH4 0x52D1902D PUSH1 0x40 MLOAD DUP2 PUSH4 0xFFFFFFFF AND PUSH1 0xE0 SHL DUP2 MSTORE PUSH1 0x4 ADD PUSH1 0x20 PUSH1 0x40 MLOAD DUP1 DUP4 SUB DUP2 DUP7 GAS STATICCALL SWAP3 POP POP POP DUP1 ISZERO PUSH2 0x277B JUMPI POP PUSH1 0x40 DUP1 MLOAD PUSH1 0x1F RETURNDATASIZE SWAP1 DUP2 ADD PUSH1 0x1F NOT AND DUP3 ADD SWAP1 SWAP3 MSTORE PUSH2 0x2778 SWAP2 DUP2 ADD SWAP1 PUSH2 0x337C JUMP JUMPDEST PUSH1 0x1 JUMPDEST PUSH2 0x27DE JUMPI PUSH1 0x40 MLOAD PUSH3 0x461BCD PUSH1 0xE5 SHL DUP2 MSTORE PUSH1 0x20 PUSH1 0x4 DUP3 ADD MSTORE PUSH1 0x2E PUSH1 0x24 DUP3 ADD MSTORE PUSH32 0x45524331393637557067726164653A206E657720696D706C656D656E74617469 PUSH1 0x44 DUP3 ADD MSTORE PUSH14 0x6F6E206973206E6F742055555053 PUSH1 0x90 SHL PUSH1 0x64 DUP3 ADD MSTORE PUSH1 0x84 ADD PUSH2 0x777 JUMP JUMPDEST PUSH1 0x0 DUP1 MLOAD PUSH1 0x20 PUSH2 0x3526 DUP4 CODECOPY DUP2 MLOAD SWAP2 MSTORE DUP2 EQ PUSH2 0x284D JUMPI PUSH1 0x40 MLOAD PUSH3 0x461BCD PUSH1 0xE5 SHL DUP2 MSTORE PUSH1 0x20 PUSH1 0x4 DUP3 ADD MSTORE PUSH1 0x29 PUSH1 0x24 DUP3 ADD MSTORE PUSH32 0x45524331393637557067726164653A20756E737570706F727465642070726F78 PUSH1 0x44 DUP3 ADD MSTORE PUSH9 0x1A58589B1955555251 PUSH1 0xBA SHL PUSH1 0x64 DUP3 ADD MSTORE PUSH1 0x84 ADD PUSH2 0x777 JUMP JUMPDEST POP PUSH2 0x271C DUP4 DUP4 DUP4 PUSH2 0x2C0E JUMP JUMPDEST PUSH2 0x2861 PUSH2 0x2C39 JUMP JUMPDEST PUSH1 0x33 DUP1 SLOAD PUSH1 0xFF NOT AND SWAP1 SSTORE PUSH32 0x5DB9EE0A495BF2E6FF9C91A7834C1BA4FDD244A5E8AA4E537BD38AEAE4B073AA CALLER JUMPDEST PUSH1 0x40 MLOAD PUSH1 0x1 PUSH1 0x1 PUSH1 0xA0 SHL SUB SWAP1 SWAP2 AND DUP2 MSTORE PUSH1 0x20 ADD PUSH1 0x40 MLOAD DUP1 SWAP2 SUB SWAP1 LOG1 JUMP JUMPDEST PUSH1 0xFC DUP1 SLOAD PUSH1 0x1 DUP1 DUP3 ADD DUP4 SSTORE PUSH32 0x371F36870D18F32A11FEA0F144B021C8B407BB50F8E0267C711123F454B963C0 SWAP1 SWAP2 ADD DUP1 SLOAD PUSH1 0x1 PUSH1 0x1 PUSH1 0xA0 SHL SUB NOT AND PUSH1 0x1 PUSH1 0x1 PUSH1 0xA0 SHL SUB DUP9 AND SWAP1 DUP2 OR SWAP1 SWAP2 SSTORE SWAP2 SLOAD PUSH1 0x0 DUP4 DUP2 MSTORE PUSH2 0x104 PUSH1 0x20 SWAP1 DUP2 MSTORE PUSH1 0x40 DUP1 DUP4 KECCAK256 DUP5 DUP5 MSTORE PUSH2 0x105 DUP4 MSTORE SWAP1 DUP4 KECCAK256 DUP2 SLOAD DUP1 DUP8 ADD DUP4 SSTORE DUP3 DUP6 MSTORE DUP4 DUP6 KECCAK256 ADD DUP6 SWAP1 SSTORE DUP2 DUP7 ADD DUP1 SLOAD DUP1 DUP9 ADD DUP3 SSTORE SWAP1 DUP6 MSTORE DUP4 DUP6 KECCAK256 NUMBER SWAP2 ADD DUP2 SWAP1 SSTORE DUP2 SLOAD PUSH1 0x1 PUSH1 0x1 PUSH1 0xA8 SHL SUB NOT AND PUSH2 0x100 SWAP1 SWAP9 MUL SWAP8 SWAP1 SWAP8 OR DUP7 OR DUP2 SSTORE TIMESTAMP PUSH1 0x3 DUP3 ADD DUP2 SWAP1 SSTORE PUSH1 0x4 DUP3 ADD DUP10 SWAP1 SSTORE DUP2 DUP8 ADD DUP12 SWAP1 SSTORE PUSH1 0x2 DUP3 ADD DUP11 SWAP1 SSTORE PUSH1 0x8 DUP3 ADD DUP1 SLOAD SWAP8 DUP9 ADD DUP2 SSTORE DUP6 MSTORE SWAP3 DUP5 KECCAK256 SWAP1 SWAP6 ADD DUP7 SWAP1 SSTORE PUSH1 0xFD DUP1 SLOAD SWAP4 SWAP7 SWAP5 SWAP6 SWAP3 SWAP5 SWAP4 SWAP2 SWAP3 SWAP2 DUP11 SWAP2 SWAP1 DUP9 SWAP1 PUSH2 0x29A6 SWAP1 DUP5 SWAP1 PUSH2 0x324A JUMP JUMPDEST SWAP3 POP POP DUP2 SWAP1 SSTORE POP DUP7 DUP10 DUP12 PUSH1 0x1 PUSH1 0x1 PUSH1 0xA0 SHL SUB AND PUSH32 0xF556991011E831BCFAC4F406D547E5E32CDD98267EFAB83935230D5F8D02C446 DUP9 PUSH1 0x40 MLOAD PUSH2 0x29EA SWAP2 DUP2 MSTORE PUSH1 0x20 ADD SWAP1 JUMP JUMPDEST PUSH1 0x40 MLOAD DUP1 SWAP2 SUB SWAP1 LOG4 POP PUSH1 0x1 SWAP10 SWAP9 POP POP POP POP POP POP POP POP POP JUMP JUMPDEST PUSH1 0x65 DUP1 SLOAD PUSH1 0x1 PUSH1 0x1 PUSH1 0xA0 SHL SUB DUP4 DUP2 AND PUSH1 0x1 PUSH1 0x1 PUSH1 0xA0 SHL SUB NOT DUP4 AND DUP2 OR SWAP1 SWAP4 SSTORE PUSH1 0x40 MLOAD SWAP2 AND SWAP2 SWAP1 DUP3 SWAP1 PUSH32 0x8BE0079C531659141344CD1FD0A4F28419497F9722A3DAAFE3B4186F6B6457E0 SWAP1 PUSH1 0x0 SWAP1 LOG3 POP POP JUMP JUMPDEST PUSH1 0x0 SLOAD PUSH2 0x100 SWAP1 DIV PUSH1 0xFF AND PUSH2 0x2A7B JUMPI PUSH1 0x40 MLOAD PUSH3 0x461BCD PUSH1 0xE5 SHL DUP2 MSTORE PUSH1 0x4 ADD PUSH2 0x777 SWAP1 PUSH2 0x3467 JUMP JUMPDEST PUSH2 0xF16 PUSH2 0x2C82 JUMP JUMPDEST PUSH1 0x0 SLOAD PUSH2 0x100 SWAP1 DIV PUSH1 0xFF AND PUSH2 0x2AAA JUMPI PUSH1 0x40 MLOAD PUSH3 0x461BCD PUSH1 0xE5 SHL DUP2 MSTORE PUSH1 0x4 ADD PUSH2 0x777 SWAP1 PUSH2 0x3467 JUMP JUMPDEST PUSH2 0xF16 PUSH2 0x2CB5 JUMP JUMPDEST PUSH1 0x0 SLOAD PUSH2 0x100 SWAP1 DIV PUSH1 0xFF AND PUSH2 0xF16 JUMPI PUSH1 0x40 MLOAD PUSH3 0x461BCD PUSH1 0xE5 SHL DUP2 MSTORE PUSH1 0x4 ADD PUSH2 0x777 SWAP1 PUSH2 0x3467 JUMP JUMPDEST PUSH2 0x2AE1 PUSH2 0x2B16 JUMP JUMPDEST PUSH1 0x33 DUP1 SLOAD PUSH1 0xFF NOT AND PUSH1 0x1 OR SWAP1 SSTORE PUSH32 0x62E78CEA01BEE320CD4E420270B5EA74000D11B0C9F74754EBDBFC544B05A258 PUSH2 0x288E CALLER SWAP1 JUMP JUMPDEST PUSH1 0x33 SLOAD PUSH1 0xFF AND ISZERO PUSH2 0xF16 JUMPI PUSH1 0x40 MLOAD PUSH3 0x461BCD PUSH1 0xE5 SHL DUP2 MSTORE PUSH1 0x20 PUSH1 0x4 DUP3 ADD MSTORE PUSH1 0x10 PUSH1 0x24 DUP3 ADD MSTORE PUSH16 0x14185D5CD8589B194E881C185D5CD959 PUSH1 0x82 SHL PUSH1 0x44 DUP3 ADD MSTORE PUSH1 0x64 ADD PUSH2 0x777 JUMP JUMPDEST PUSH1 0x0 DUP2 DUP4 LT PUSH2 0x2B6B JUMPI DUP2 PUSH2 0x12A2 JUMP JUMPDEST POP SWAP1 SWAP2 SWAP1 POP JUMP JUMPDEST PUSH1 0x1 PUSH1 0x1 PUSH1 0xA0 SHL SUB DUP2 AND EXTCODESIZE PUSH2 0x2BDF JUMPI PUSH1 0x40 MLOAD PUSH3 0x461BCD PUSH1 0xE5 SHL DUP2 MSTORE PUSH1 0x20 PUSH1 0x4 DUP3 ADD MSTORE PUSH1 0x2D PUSH1 0x24 DUP3 ADD MSTORE PUSH32 0x455243313936373A206E657720696D706C656D656E746174696F6E206973206E PUSH1 0x44 DUP3 ADD MSTORE PUSH13 0x1BDD08184818DBDB9D1C9858DD PUSH1 0x9A SHL PUSH1 0x64 DUP3 ADD MSTORE PUSH1 0x84 ADD PUSH2 0x777 JUMP JUMPDEST PUSH1 0x0 DUP1 MLOAD PUSH1 0x20 PUSH2 0x3526 DUP4 CODECOPY DUP2 MLOAD SWAP2 MSTORE DUP1 SLOAD PUSH1 0x1 PUSH1 0x1 PUSH1 0xA0 SHL SUB NOT AND PUSH1 0x1 PUSH1 0x1 PUSH1 0xA0 SHL SUB SWAP3 SWAP1 SWAP3 AND SWAP2 SWAP1 SWAP2 OR SWAP1 SSTORE JUMP JUMPDEST PUSH2 0x2C17 DUP4 PUSH2 0x2CE5 JUMP JUMPDEST PUSH1 0x0 DUP3 MLOAD GT DUP1 PUSH2 0x2C24 JUMPI POP DUP1 JUMPDEST ISZERO PUSH2 0x271C JUMPI PUSH2 0x2C33 DUP4 DUP4 PUSH2 0x2D25 JUMP JUMPDEST POP POP POP POP JUMP JUMPDEST PUSH1 0x33 SLOAD PUSH1 0xFF AND PUSH2 0xF16 JUMPI PUSH1 0x40 MLOAD PUSH3 0x461BCD PUSH1 0xE5 SHL DUP2 MSTORE PUSH1 0x20 PUSH1 0x4 DUP3 ADD MSTORE PUSH1 0x14 PUSH1 0x24 DUP3 ADD MSTORE PUSH20 0x14185D5CD8589B194E881B9BDD081C185D5CD959 PUSH1 0x62 SHL PUSH1 0x44 DUP3 ADD MSTORE PUSH1 0x64 ADD PUSH2 0x777 JUMP JUMPDEST PUSH1 0x0 SLOAD PUSH2 0x100 SWAP1 DIV PUSH1 0xFF AND PUSH2 0x2CA9 JUMPI PUSH1 0x40 MLOAD PUSH3 0x461BCD PUSH1 0xE5 SHL DUP2 MSTORE PUSH1 0x4 ADD PUSH2 0x777 SWAP1 PUSH2 0x3467 JUMP JUMPDEST PUSH1 0x33 DUP1 SLOAD PUSH1 0xFF NOT AND SWAP1 SSTORE JUMP JUMPDEST PUSH1 0x0 SLOAD PUSH2 0x100 SWAP1 DIV PUSH1 0xFF AND PUSH2 0x2CDC JUMPI PUSH1 0x40 MLOAD PUSH3 0x461BCD PUSH1 0xE5 SHL DUP2 MSTORE PUSH1 0x4 ADD PUSH2 0x777 SWAP1 PUSH2 0x3467 JUMP JUMPDEST PUSH2 0xF16 CALLER PUSH2 0x2A02 JUMP JUMPDEST PUSH2 0x2CEE DUP2 PUSH2 0x2B72 JUMP JUMPDEST PUSH1 0x40 MLOAD PUSH1 0x1 PUSH1 0x1 PUSH1 0xA0 SHL SUB DUP3 AND SWAP1 PUSH32 0xBC7CD75A20EE27FD9ADEBAB32041F755214DBC6BFFA90CC0225B39DA2E5C2D3B SWAP1 PUSH1 0x0 SWAP1 LOG2 POP JUMP JUMPDEST PUSH1 0x60 PUSH1 0x1 PUSH1 0x1 PUSH1 0xA0 SHL SUB DUP4 AND EXTCODESIZE PUSH2 0x2D8D JUMPI PUSH1 0x40 MLOAD PUSH3 0x461BCD PUSH1 0xE5 SHL DUP2 MSTORE PUSH1 0x20 PUSH1 0x4 DUP3 ADD MSTORE PUSH1 0x26 PUSH1 0x24 DUP3 ADD MSTORE PUSH32 0x416464726573733A2064656C65676174652063616C6C20746F206E6F6E2D636F PUSH1 0x44 DUP3 ADD MSTORE PUSH6 0x1B9D1C9858DD PUSH1 0xD2 SHL PUSH1 0x64 DUP3 ADD MSTORE PUSH1 0x84 ADD PUSH2 0x777 JUMP JUMPDEST PUSH1 0x0 DUP1 DUP5 PUSH1 0x1 PUSH1 0x1 PUSH1 0xA0 SHL SUB AND DUP5 PUSH1 0x40 MLOAD PUSH2 0x2DA8 SWAP2 SWAP1 PUSH2 0x34D6 JUMP JUMPDEST PUSH1 0x0 PUSH1 0x40 MLOAD DUP1 DUP4 SUB DUP2 DUP6 GAS DELEGATECALL SWAP2 POP POP RETURNDATASIZE DUP1 PUSH1 0x0 DUP2 EQ PUSH2 0x2DE3 JUMPI PUSH1 0x40 MLOAD SWAP2 POP PUSH1 0x1F NOT PUSH1 0x3F RETURNDATASIZE ADD AND DUP3 ADD PUSH1 0x40 MSTORE RETURNDATASIZE DUP3 MSTORE RETURNDATASIZE PUSH1 0x0 PUSH1 0x20 DUP5 ADD RETURNDATACOPY PUSH2 0x2DE8 JUMP JUMPDEST PUSH1 0x60 SWAP2 POP JUMPDEST POP SWAP2 POP SWAP2 POP PUSH2 0x1FFC DUP3 DUP3 PUSH1 0x40 MLOAD DUP1 PUSH1 0x60 ADD PUSH1 0x40 MSTORE DUP1 PUSH1 0x27 DUP2 MSTORE PUSH1 0x20 ADD PUSH2 0x3546 PUSH1 0x27 SWAP2 CODECOPY PUSH1 0x60 DUP4 ISZERO PUSH2 0x2E1A JUMPI POP DUP2 PUSH2 0x12A2 JUMP JUMPDEST PUSH2 0x12A2 DUP4 DUP4 DUP2 MLOAD ISZERO PUSH2 0x2E2F JUMPI DUP2 MLOAD DUP1 DUP4 PUSH1 0x20 ADD REVERT JUMPDEST DUP1 PUSH1 0x40 MLOAD PUSH3 0x461BCD PUSH1 0xE5 SHL DUP2 MSTORE PUSH1 0x4 ADD PUSH2 0x777 SWAP2 SWAP1 PUSH2 0x34F2 JUMP JUMPDEST PUSH1 0x0 PUSH1 0x20 DUP3 DUP5 SUB SLT ISZERO PUSH2 0x2E5B JUMPI PUSH1 0x0 DUP1 REVERT JUMPDEST POP CALLDATALOAD SWAP2 SWAP1 POP JUMP JUMPDEST PUSH1 0x0 DUP2 MLOAD DUP1 DUP5 MSTORE PUSH1 0x20 DUP1 DUP6 ADD SWAP5 POP DUP1 DUP5 ADD PUSH1 0x0 JUMPDEST DUP4 DUP2 LT ISZERO PUSH2 0x2E9B JUMPI DUP2 MLOAD PUSH1 0x1 PUSH1 0x1 PUSH1 0xA0 SHL SUB AND DUP8 MSTORE SWAP6 DUP3 ADD SWAP6 SWAP1 DUP3 ADD SWAP1 PUSH1 0x1 ADD PUSH2 0x2E76 JUMP JUMPDEST POP SWAP5 SWAP6 SWAP5 POP POP POP POP POP JUMP JUMPDEST PUSH1 0x20 DUP2 MSTORE PUSH1 0x0 PUSH2 0x12A2 PUSH1 0x20 DUP4 ADD DUP5 PUSH2 0x2E62 JUMP JUMPDEST PUSH1 0x1 PUSH1 0x1 PUSH1 0xA0 SHL SUB DUP2 AND DUP2 EQ PUSH2 0xE72 JUMPI PUSH1 0x0 DUP1 REVERT JUMPDEST PUSH1 0x0 DUP1 PUSH1 0x40 DUP4 DUP6 SUB SLT ISZERO PUSH2 0x2EE1 JUMPI PUSH1 0x0 DUP1 REVERT JUMPDEST DUP3 CALLDATALOAD PUSH2 0x2EEC DUP2 PUSH2 0x2EB9 JUMP JUMPDEST SWAP5 PUSH1 0x20 SWAP4 SWAP1 SWAP4 ADD CALLDATALOAD SWAP4 POP POP POP JUMP JUMPDEST PUSH1 0x0 PUSH1 0x20 DUP3 DUP5 SUB SLT ISZERO PUSH2 0x2F0C JUMPI PUSH1 0x0 DUP1 REVERT JUMPDEST DUP2 CALLDATALOAD PUSH2 0x12A2 DUP2 PUSH2 0x2EB9 JUMP JUMPDEST PUSH1 0x0 DUP1 PUSH1 0x20 DUP4 DUP6 SUB SLT ISZERO PUSH2 0x2F2A JUMPI PUSH1 0x0 DUP1 REVERT JUMPDEST DUP3 CALLDATALOAD PUSH8 0xFFFFFFFFFFFFFFFF DUP1 DUP3 GT ISZERO PUSH2 0x2F42 JUMPI PUSH1 0x0 DUP1 REVERT JUMPDEST DUP2 DUP6 ADD SWAP2 POP DUP6 PUSH1 0x1F DUP4 ADD SLT PUSH2 0x2F56 JUMPI PUSH1 0x0 DUP1 REVERT JUMPDEST DUP2 CALLDATALOAD DUP2 DUP2 GT ISZERO PUSH2 0x2F65 JUMPI PUSH1 0x0 DUP1 REVERT JUMPDEST DUP7 PUSH1 0x20 DUP3 PUSH1 0x5 SHL DUP6 ADD ADD GT ISZERO PUSH2 0x2F7A JUMPI PUSH1 0x0 DUP1 REVERT JUMPDEST PUSH1 0x20 SWAP3 SWAP1 SWAP3 ADD SWAP7 SWAP2 SWAP6 POP SWAP1 SWAP4 POP POP POP POP JUMP JUMPDEST PUSH4 0x4E487B71 PUSH1 0xE0 SHL PUSH1 0x0 MSTORE PUSH1 0x41 PUSH1 0x4 MSTORE PUSH1 0x24 PUSH1 0x0 REVERT JUMPDEST PUSH1 0x40 MLOAD PUSH1 0x1F DUP3 ADD PUSH1 0x1F NOT AND DUP2 ADD PUSH8 0xFFFFFFFFFFFFFFFF DUP2 GT DUP3 DUP3 LT OR ISZERO PUSH2 0x2FCB JUMPI PUSH2 0x2FCB PUSH2 0x2F8C JUMP JUMPDEST PUSH1 0x40 MSTORE SWAP2 SWAP1 POP JUMP JUMPDEST PUSH1 0x0 DUP1 PUSH1 0x40 DUP4 DUP6 SUB SLT ISZERO PUSH2 0x2FE6 JUMPI PUSH1 0x0 DUP1 REVERT JUMPDEST DUP3 CALLDATALOAD PUSH2 0x2FF1 DUP2 PUSH2 0x2EB9 JUMP JUMPDEST SWAP2 POP PUSH1 0x20 DUP4 DUP2 ADD CALLDATALOAD PUSH8 0xFFFFFFFFFFFFFFFF DUP1 DUP3 GT ISZERO PUSH2 0x300F JUMPI PUSH1 0x0 DUP1 REVERT JUMPDEST DUP2 DUP7 ADD SWAP2 POP DUP7 PUSH1 0x1F DUP4 ADD SLT PUSH2 0x3023 JUMPI PUSH1 0x0 DUP1 REVERT JUMPDEST DUP2 CALLDATALOAD DUP2 DUP2 GT ISZERO PUSH2 0x3035 JUMPI PUSH2 0x3035 PUSH2 0x2F8C JUMP JUMPDEST PUSH2 0x3047 PUSH1 0x1F DUP3 ADD PUSH1 0x1F NOT AND DUP6 ADD PUSH2 0x2FA2 JUMP JUMPDEST SWAP2 POP DUP1 DUP3 MSTORE DUP8 DUP5 DUP3 DUP6 ADD ADD GT ISZERO PUSH2 0x305D JUMPI PUSH1 0x0 DUP1 REVERT JUMPDEST DUP1 DUP5 DUP5 ADD DUP6 DUP5 ADD CALLDATACOPY PUSH1 0x0 DUP5 DUP3 DUP5 ADD ADD MSTORE POP DUP1 SWAP4 POP POP POP POP SWAP3 POP SWAP3 SWAP1 POP JUMP JUMPDEST PUSH1 0x0 DUP1 PUSH1 0x0 PUSH1 0x60 DUP5 DUP7 SUB SLT ISZERO PUSH2 0x3090 JUMPI PUSH1 0x0 DUP1 REVERT JUMPDEST DUP4 CALLDATALOAD PUSH2 0x309B DUP2 PUSH2 0x2EB9 JUMP JUMPDEST SWAP3 POP PUSH1 0x20 DUP5 ADD CALLDATALOAD PUSH2 0x30AB DUP2 PUSH2 0x2EB9 JUMP JUMPDEST SWAP3 SWAP6 SWAP3 SWAP5 POP POP POP PUSH1 0x40 SWAP2 SWAP1 SWAP2 ADD CALLDATALOAD SWAP1 JUMP JUMPDEST PUSH1 0x0 DUP2 MLOAD DUP1 DUP5 MSTORE PUSH1 0x20 DUP1 DUP6 ADD SWAP5 POP DUP1 DUP5 ADD PUSH1 0x0 JUMPDEST DUP4 DUP2 LT ISZERO PUSH2 0x2E9B JUMPI DUP2 MLOAD DUP8 MSTORE SWAP6 DUP3 ADD SWAP6 SWAP1 DUP3 ADD SWAP1 PUSH1 0x1 ADD PUSH2 0x30D0 JUMP JUMPDEST PUSH1 0x20 DUP2 MSTORE PUSH1 0x0 PUSH2 0x12A2 PUSH1 0x20 DUP4 ADD DUP5 PUSH2 0x30BC JUMP JUMPDEST PUSH1 0x20 DUP2 MSTORE PUSH2 0x3112 PUSH1 0x20 DUP3 ADD DUP4 MLOAD ISZERO ISZERO SWAP1 MSTORE JUMP JUMPDEST PUSH1 0x0 PUSH1 0x20 DUP4 ADD MLOAD PUSH2 0x312E PUSH1 0x40 DUP5 ADD DUP3 PUSH1 0x1 PUSH1 0x1 PUSH1 0xA0 SHL SUB AND SWAP1 MSTORE JUMP JUMPDEST POP PUSH1 0x40 DUP4 ADD MLOAD PUSH1 0x60 DUP4 ADD MSTORE PUSH1 0x60 DUP4 ADD MLOAD PUSH1 0x80 DUP4 ADD MSTORE PUSH1 0x80 DUP4 ADD MLOAD PUSH1 0xA0 DUP4 ADD MSTORE PUSH1 0xA0 DUP4 ADD MLOAD PUSH1 0xC0 DUP4 ADD MSTORE PUSH1 0xC0 DUP4 ADD MLOAD PUSH1 0xE0 DUP4 ADD MSTORE PUSH1 0xE0 DUP4 ADD MLOAD PUSH2 0x100 DUP2 DUP2 DUP6 ADD MSTORE DUP1 DUP6 ADD MLOAD SWAP2 POP POP PUSH2 0x120 DUP2 DUP2 DUP6 ADD MSTORE DUP1 DUP6 ADD MLOAD SWAP2 POP POP PUSH2 0x140 DUP1 DUP2 DUP6 ADD MSTORE POP PUSH2 0x319B PUSH2 0x160 DUP5 ADD DUP3 PUSH2 0x30BC JUMP JUMPDEST SWAP5 SWAP4 POP POP POP POP JUMP JUMPDEST PUSH1 0x20 DUP2 MSTORE PUSH1 0x0 DUP3 MLOAD PUSH1 0x60 PUSH1 0x20 DUP5 ADD MSTORE PUSH2 0x31BF PUSH1 0x80 DUP5 ADD DUP3 PUSH2 0x30BC JUMP JUMPDEST SWAP1 POP PUSH1 0x20 DUP5 ADD MLOAD PUSH1 0x1F NOT DUP5 DUP4 SUB ADD PUSH1 0x40 DUP6 ADD MSTORE PUSH2 0x31DC DUP3 DUP3 PUSH2 0x30BC JUMP JUMPDEST SWAP2 POP POP PUSH1 0x40 DUP5 ADD MLOAD ISZERO ISZERO PUSH1 0x60 DUP5 ADD MSTORE DUP1 SWAP2 POP POP SWAP3 SWAP2 POP POP JUMP JUMPDEST PUSH4 0x4E487B71 PUSH1 0xE0 SHL PUSH1 0x0 MSTORE PUSH1 0x11 PUSH1 0x4 MSTORE PUSH1 0x24 PUSH1 0x0 REVERT JUMPDEST PUSH1 0x0 DUP3 PUSH2 0x3228 JUMPI PUSH4 0x4E487B71 PUSH1 0xE0 SHL PUSH1 0x0 MSTORE PUSH1 0x12 PUSH1 0x4 MSTORE PUSH1 0x24 PUSH1 0x0 REVERT JUMPDEST POP DIV SWAP1 JUMP JUMPDEST PUSH1 0x0 PUSH1 0x20 DUP3 DUP5 SUB SLT ISZERO PUSH2 0x323F JUMPI PUSH1 0x0 DUP1 REVERT JUMPDEST DUP2 MLOAD PUSH2 0x12A2 DUP2 PUSH2 0x2EB9 JUMP JUMPDEST DUP1 DUP3 ADD DUP1 DUP3 GT ISZERO PUSH2 0xD90 JUMPI PUSH2 0xD90 PUSH2 0x31F5 JUMP JUMPDEST PUSH1 0x0 PUSH1 0x20 DUP3 DUP5 SUB SLT ISZERO PUSH2 0x326F JUMPI PUSH1 0x0 DUP1 REVERT JUMPDEST DUP2 MLOAD DUP1 ISZERO ISZERO DUP2 EQ PUSH2 0x12A2 JUMPI PUSH1 0x0 DUP1 REVERT JUMPDEST PUSH4 0x4E487B71 PUSH1 0xE0 SHL PUSH1 0x0 MSTORE PUSH1 0x32 PUSH1 0x4 MSTORE PUSH1 0x24 PUSH1 0x0 REVERT JUMPDEST PUSH1 0x0 PUSH1 0x1 DUP3 ADD PUSH2 0x32A7 JUMPI PUSH2 0x32A7 PUSH2 0x31F5 JUMP JUMPDEST POP PUSH1 0x1 ADD SWAP1 JUMP JUMPDEST PUSH1 0x20 DUP1 DUP3 MSTORE PUSH1 0x2C SWAP1 DUP3 ADD MSTORE PUSH32 0x46756E6374696F6E206D7573742062652063616C6C6564207468726F75676820 PUSH1 0x40 DUP3 ADD MSTORE PUSH12 0x19195B1959D85D1958D85B1B PUSH1 0xA2 SHL PUSH1 0x60 DUP3 ADD MSTORE PUSH1 0x80 ADD SWAP1 JUMP JUMPDEST PUSH1 0x20 DUP1 DUP3 MSTORE PUSH1 0x2C SWAP1 DUP3 ADD MSTORE PUSH32 0x46756E6374696F6E206D7573742062652063616C6C6564207468726F75676820 PUSH1 0x40 DUP3 ADD MSTORE PUSH12 0x6163746976652070726F7879 PUSH1 0xA0 SHL PUSH1 0x60 DUP3 ADD MSTORE PUSH1 0x80 ADD SWAP1 JUMP JUMPDEST DUP1 DUP3 MUL DUP2 ISZERO DUP3 DUP3 DIV DUP5 EQ OR PUSH2 0xD90 JUMPI PUSH2 0xD90 PUSH2 0x31F5 JUMP JUMPDEST PUSH1 0x0 PUSH1 0xFF DUP3 AND PUSH1 0xFF DUP2 SUB PUSH2 0x3373 JUMPI PUSH2 0x3373 PUSH2 0x31F5 JUMP JUMPDEST PUSH1 0x1 ADD SWAP3 SWAP2 POP POP JUMP JUMPDEST PUSH1 0x0 PUSH1 0x20 DUP3 DUP5 SUB SLT ISZERO PUSH2 0x338E JUMPI PUSH1 0x0 DUP1 REVERT JUMPDEST POP MLOAD SWAP2 SWAP1 POP JUMP JUMPDEST DUP2 DUP2 SUB DUP2 DUP2 GT ISZERO PUSH2 0xD90 JUMPI PUSH2 0xD90 PUSH2 0x31F5 JUMP JUMPDEST DUP3 DUP2 MSTORE PUSH1 0x40 PUSH1 0x20 DUP3 ADD MSTORE PUSH1 0x0 PUSH2 0x319B PUSH1 0x40 DUP4 ADD DUP5 PUSH2 0x2E62 JUMP JUMPDEST PUSH1 0x0 PUSH1 0x20 DUP1 DUP4 DUP6 SUB SLT ISZERO PUSH2 0x33D4 JUMPI PUSH1 0x0 DUP1 REVERT JUMPDEST DUP3 MLOAD PUSH8 0xFFFFFFFFFFFFFFFF DUP1 DUP3 GT ISZERO PUSH2 0x33EC JUMPI PUSH1 0x0 DUP1 REVERT JUMPDEST DUP2 DUP6 ADD SWAP2 POP DUP6 PUSH1 0x1F DUP4 ADD SLT PUSH2 0x3400 JUMPI PUSH1 0x0 DUP1 REVERT JUMPDEST DUP2 MLOAD DUP2 DUP2 GT ISZERO PUSH2 0x3412 JUMPI PUSH2 0x3412 PUSH2 0x2F8C JUMP JUMPDEST DUP1 PUSH1 0x5 SHL SWAP2 POP PUSH2 0x3423 DUP5 DUP4 ADD PUSH2 0x2FA2 JUMP JUMPDEST DUP2 DUP2 MSTORE SWAP2 DUP4 ADD DUP5 ADD SWAP2 DUP5 DUP2 ADD SWAP1 DUP9 DUP5 GT ISZERO PUSH2 0x343D JUMPI PUSH1 0x0 DUP1 REVERT JUMPDEST SWAP4 DUP6 ADD SWAP4 JUMPDEST DUP4 DUP6 LT ISZERO PUSH2 0x345B JUMPI DUP5 MLOAD DUP3 MSTORE SWAP4 DUP6 ADD SWAP4 SWAP1 DUP6 ADD SWAP1 PUSH2 0x3442 JUMP JUMPDEST SWAP9 SWAP8 POP POP POP POP POP POP POP POP JUMP JUMPDEST PUSH1 0x20 DUP1 DUP3 MSTORE PUSH1 0x2B SWAP1 DUP3 ADD MSTORE PUSH32 0x496E697469616C697A61626C653A20636F6E7472616374206973206E6F742069 PUSH1 0x40 DUP3 ADD MSTORE PUSH11 0x6E697469616C697A696E67 PUSH1 0xA8 SHL PUSH1 0x60 DUP3 ADD MSTORE PUSH1 0x80 ADD SWAP1 JUMP JUMPDEST PUSH1 0x0 JUMPDEST DUP4 DUP2 LT ISZERO PUSH2 0x34CD JUMPI DUP2 DUP2 ADD MLOAD DUP4 DUP3 ADD MSTORE PUSH1 0x20 ADD PUSH2 0x34B5 JUMP JUMPDEST POP POP PUSH1 0x0 SWAP2 ADD MSTORE JUMP JUMPDEST PUSH1 0x0 DUP3 MLOAD PUSH2 0x34E8 DUP2 DUP5 PUSH1 0x20 DUP8 ADD PUSH2 0x34B2 JUMP JUMPDEST SWAP2 SWAP1 SWAP2 ADD SWAP3 SWAP2 POP POP JUMP JUMPDEST PUSH1 0x20 DUP2 MSTORE PUSH1 0x0 DUP3 MLOAD DUP1 PUSH1 0x20 DUP5 ADD MSTORE PUSH2 0x3511 DUP2 PUSH1 0x40 DUP6 ADD PUSH1 0x20 DUP8 ADD PUSH2 0x34B2 JUMP JUMPDEST PUSH1 0x1F ADD PUSH1 0x1F NOT AND SWAP2 SWAP1 SWAP2 ADD PUSH1 0x40 ADD SWAP3 SWAP2 POP POP JUMP INVALID CALLDATASIZE ADDMOD SWAP5 LOG1 EXTCODESIZE LOG1 LOG3 0x21 MOD PUSH8 0xC828492DB98DCA3E KECCAK256 PUSH23 0xCC3735A920A3CA505D382BBC416464726573733A206C6F PUSH24 0x2D6C6576656C2064656C65676174652063616C6C20666169 PUSH13 0x6564A264697066735822122038 SWAP11 BLOCKHASH 0x1E DUP3 0xC9 SWAP12 PUSH22 0xF79B6DEAEB652139030F5DFBD80E229C0F65ED59A84E 0xE5 0x4D PUSH5 0x736F6C6343 STOP ADDMOD GT STOP CALLER "},"methodIdentifiers":{"activeStakersList()":"dba4358c","allStakersList()":"c06a5388","claimStakingReward(uint256)":"239cd4a4","disableAccounts(address[])":"3b09098f","enableAccounts(address[])":"53bdadea","getActiveStakingIDs()":"6f72693b","getDisabledAccountsList()":"260cb4e9","getStakingCappings()":"e3a51f58","getStakingReward(uint256)":"abfe35ad","getStakingTimeRemaining(uint256)":"d8ba90b7","getTotalStakingRewardDistributed()":"7ce574bf","getTotalValueStaked()":"deede654","getUserAllStakingsRewards(address)":"9c3fe28a","getUserStakingIDs(address)":"6f51b20b","getUserTotalRewardClaimed(address)":"ae3132e8","getUserTotalStakedValue(address)":"469bbc12","initialize()":"8129fc1c","isAccountDisabled(address)":"a40b5891","isStaked(address)":"6177fd18","owner()":"8da5cb5b","pause()":"8456cb59","paused()":"5c975abb","proxiableUUID()":"52d1902d","renounceOwnership()":"715018a6","setMinStakingValue(uint256)":"d596fe7f","setStakingDuration(uint256)":"6a8ca691","setStakingRewardClaimTimeLimity(uint256)":"5cbfd021","setStakingRewardRate(uint256)":"b7d68519","stake(uint256)":"a694fc3a","stakeByAdmin(address,uint256)":"6a50eefa","stakeInfoMap(uint256)":"a7566b75","transferOwnership(address)":"f2fde38b","unpause()":"3f4ba83a","upgradeTo(address)":"3659cfe6","upgradeToAndCall(address,bytes)":"4f1ef286","userAccountMap(address)":"ba4f678e","withdrawNativeFunds(address,uint256)":"26792aca","withdrawTokens(address,address,uint256)":"5e35359e"}},"storageLayout":{"storage":[{"astId":573,"contract":"contracts/StakingUpgradeable.sol:StakingUpgradeable","label":"_initialized","offset":0,"slot":"0","type":"t_uint8"},{"astId":576,"contract":"contracts/StakingUpgradeable.sol:StakingUpgradeable","label":"_initializing","offset":1,"slot":"0","type":"t_bool"},{"astId":1401,"contract":"contracts/StakingUpgradeable.sol:StakingUpgradeable","label":"__gap","offset":0,"slot":"1","type":"t_array(t_uint256)50_storage"},{"astId":892,"contract":"contracts/StakingUpgradeable.sol:StakingUpgradeable","label":"_paused","offset":0,"slot":"51","type":"t_bool"},{"astId":997,"contract":"contracts/StakingUpgradeable.sol:StakingUpgradeable","label":"__gap","offset":0,"slot":"52","type":"t_array(t_uint256)49_storage"},{"astId":56,"contract":"contracts/StakingUpgradeable.sol:StakingUpgradeable","label":"_owner","offset":0,"slot":"101","type":"t_address"},{"astId":176,"contract":"contracts/StakingUpgradeable.sol:StakingUpgradeable","label":"__gap","offset":0,"slot":"102","type":"t_array(t_uint256)49_storage"},{"astId":555,"contract":"contracts/StakingUpgradeable.sol:StakingUpgradeable","label":"__gap","offset":0,"slot":"151","type":"t_array(t_uint256)50_storage"},{"astId":870,"contract":"contracts/StakingUpgradeable.sol:StakingUpgradeable","label":"__gap","offset":0,"slot":"201","type":"t_array(t_uint256)50_storage"},{"astId":2613,"contract":"contracts/StakingUpgradeable.sol:StakingUpgradeable","label":"_variablesContract","offset":0,"slot":"251","type":"t_address"},{"astId":2616,"contract":"contracts/StakingUpgradeable.sol:StakingUpgradeable","label":"_stakers","offset":0,"slot":"252","type":"t_array(t_address)dyn_storage"},{"astId":2618,"contract":"contracts/StakingUpgradeable.sol:StakingUpgradeable","label":"_totalValueStaked","offset":0,"slot":"253","type":"t_uint256"},{"astId":2620,"contract":"contracts/StakingUpgradeable.sol:StakingUpgradeable","label":"_totalTokenRewards","offset":0,"slot":"254","type":"t_uint256"},{"astId":2622,"contract":"contracts/StakingUpgradeable.sol:StakingUpgradeable","label":"_totalANUSDRewards","offset":0,"slot":"255","type":"t_uint256"},{"astId":2624,"contract":"contracts/StakingUpgradeable.sol:StakingUpgradeable","label":"_minStakingValue","offset":0,"slot":"256","type":"t_uint256"},{"astId":2626,"contract":"contracts/StakingUpgradeable.sol:StakingUpgradeable","label":"_stakingRewardRate","offset":0,"slot":"257","type":"t_uint256"},{"astId":2628,"contract":"contracts/StakingUpgradeable.sol:StakingUpgradeable","label":"_stakingDuration","offset":0,"slot":"258","type":"t_uint256"},{"astId":2630,"contract":"contracts/StakingUpgradeable.sol:StakingUpgradeable","label":"_stakingRewardClaimTimeLimit","offset":0,"slot":"259","type":"t_uint256"},{"astId":2666,"contract":"contracts/StakingUpgradeable.sol:StakingUpgradeable","label":"account","offset":0,"slot":"260","type":"t_mapping(t_address,t_struct(Account)2639_storage)"},{"astId":2671,"contract":"contracts/StakingUpgradeable.sol:StakingUpgradeable","label":"stakeInfo","offset":0,"slot":"261","type":"t_mapping(t_uint256,t_struct(StakeInfo)2661_storage)"}],"types":{"t_address":{"encoding":"inplace","label":"address","numberOfBytes":"20"},"t_array(t_address)dyn_storage":{"base":"t_address","encoding":"dynamic_array","label":"address[]","numberOfBytes":"32"},"t_array(t_uint256)49_storage":{"base":"t_uint256","encoding":"inplace","label":"uint256[49]","numberOfBytes":"1568"},"t_array(t_uint256)50_storage":{"base":"t_uint256","encoding":"inplace","label":"uint256[50]","numberOfBytes":"1600"},"t_array(t_uint256)dyn_storage":{"base":"t_uint256","encoding":"dynamic_array","label":"uint256[]","numberOfBytes":"32"},"t_bool":{"encoding":"inplace","label":"bool","numberOfBytes":"1"},"t_mapping(t_address,t_struct(Account)2639_storage)":{"encoding":"mapping","key":"t_address","label":"mapping(address => struct StakingUpgradeable.Account)","numberOfBytes":"32","value":"t_struct(Account)2639_storage"},"t_mapping(t_uint256,t_struct(StakeInfo)2661_storage)":{"encoding":"mapping","key":"t_uint256","label":"mapping(uint256 => struct StakingUpgradeable.StakeInfo)","numberOfBytes":"32","value":"t_struct(StakeInfo)2661_storage"},"t_struct(Account)2639_storage":{"encoding":"inplace","label":"struct StakingUpgradeable.Account","members":[{"astId":2633,"contract":"contracts/StakingUpgradeable.sol:StakingUpgradeable","label":"stakingID","offset":0,"slot":"0","type":"t_array(t_uint256)dyn_storage"},{"astId":2636,"contract":"contracts/StakingUpgradeable.sol:StakingUpgradeable","label":"blockNumber","offset":0,"slot":"1","type":"t_array(t_uint256)dyn_storage"},{"astId":2638,"contract":"contracts/StakingUpgradeable.sol:StakingUpgradeable","label":"isDisabled","offset":0,"slot":"2","type":"t_bool"}],"numberOfBytes":"96"},"t_struct(StakeInfo)2661_storage":{"encoding":"inplace","label":"struct StakingUpgradeable.StakeInfo","members":[{"astId":2641,"contract":"contracts/StakingUpgradeable.sol:StakingUpgradeable","label":"isStaked","offset":0,"slot":"0","type":"t_bool"},{"astId":2643,"contract":"contracts/StakingUpgradeable.sol:StakingUpgradeable","label":"owner","offset":1,"slot":"0","type":"t_address"},{"astId":2645,"contract":"contracts/StakingUpgradeable.sol:StakingUpgradeable","label":"value","offset":0,"slot":"1","type":"t_uint256"},{"astId":2647,"contract":"contracts/StakingUpgradeable.sol:StakingUpgradeable","label":"rewardRate","offset":0,"slot":"2","type":"t_uint256"},{"astId":2649,"contract":"contracts/StakingUpgradeable.sol:StakingUpgradeable","label":"startTime","offset":0,"slot":"3","type":"t_uint256"},{"astId":2651,"contract":"contracts/StakingUpgradeable.sol:StakingUpgradeable","label":"duration","offset":0,"slot":"4","type":"t_uint256"},{"astId":2653,"contract":"contracts/StakingUpgradeable.sol:StakingUpgradeable","label":"rewardClaimed","offset":0,"slot":"5","type":"t_uint256"},{"astId":2655,"contract":"contracts/StakingUpgradeable.sol:StakingUpgradeable","label":"rewardClaimedAUSD","offset":0,"slot":"6","type":"t_uint256"},{"astId":2657,"contract":"contracts/StakingUpgradeable.sol:StakingUpgradeable","label":"lastTimeRewardClaimed","offset":0,"slot":"7","type":"t_uint256"},{"astId":2660,"contract":"contracts/StakingUpgradeable.sol:StakingUpgradeable","label":"blockNumber","offset":0,"slot":"8","type":"t_array(t_uint256)dyn_storage"}],"numberOfBytes":"288"},"t_uint256":{"encoding":"inplace","label":"uint256","numberOfBytes":"32"},"t_uint8":{"encoding":"inplace","label":"uint8","numberOfBytes":"1"}}}}}}