{
  "_format": "hh-sol-artifact-1",
  "contractName": "RewardsUpgradeable",
  "sourceName": "contracts/RewardsUpgradeable.sol",
  "abi": [
    {
      "anonymous": false,
      "inputs": [
        {
          "indexed": false,
          "internalType": "address",
          "name": "previousAdmin",
          "type": "address"
        },
        {
          "indexed": false,
          "internalType": "address",
          "name": "newAdmin",
          "type": "address"
        }
      ],
      "name": "AdminChanged",
      "type": "event"
    },
    {
      "anonymous": false,
      "inputs": [
        {
          "indexed": true,
          "internalType": "address",
          "name": "beacon",
          "type": "address"
        }
      ],
      "name": "BeaconUpgraded",
      "type": "event"
    },
    {
      "anonymous": false,
      "inputs": [
        {
          "indexed": false,
          "internalType": "uint8",
          "name": "version",
          "type": "uint8"
        }
      ],
      "name": "Initialized",
      "type": "event"
    },
    {
      "anonymous": false,
      "inputs": [
        {
          "indexed": true,
          "internalType": "address",
          "name": "previousOwner",
          "type": "address"
        },
        {
          "indexed": true,
          "internalType": "address",
          "name": "newOwner",
          "type": "address"
        }
      ],
      "name": "OwnershipTransferred",
      "type": "event"
    },
    {
      "anonymous": false,
      "inputs": [
        {
          "indexed": false,
          "internalType": "address",
          "name": "account",
          "type": "address"
        }
      ],
      "name": "Paused",
      "type": "event"
    },
    {
      "anonymous": false,
      "inputs": [
        {
          "indexed": false,
          "internalType": "address",
          "name": "account",
          "type": "address"
        }
      ],
      "name": "Unpaused",
      "type": "event"
    },
    {
      "anonymous": false,
      "inputs": [
        {
          "indexed": true,
          "internalType": "address",
          "name": "implementation",
          "type": "address"
        }
      ],
      "name": "Upgraded",
      "type": "event"
    },
    {
      "inputs": [],
      "name": "initialize",
      "outputs": [],
      "stateMutability": "nonpayable",
      "type": "function"
    },
    {
      "inputs": [],
      "name": "owner",
      "outputs": [
        {
          "internalType": "address",
          "name": "",
          "type": "address"
        }
      ],
      "stateMutability": "view",
      "type": "function"
    },
    {
      "inputs": [],
      "name": "pause",
      "outputs": [],
      "stateMutability": "nonpayable",
      "type": "function"
    },
    {
      "inputs": [],
      "name": "paused",
      "outputs": [
        {
          "internalType": "bool",
          "name": "",
          "type": "bool"
        }
      ],
      "stateMutability": "view",
      "type": "function"
    },
    {
      "inputs": [],
      "name": "proxiableUUID",
      "outputs": [
        {
          "internalType": "bytes32",
          "name": "",
          "type": "bytes32"
        }
      ],
      "stateMutability": "view",
      "type": "function"
    },
    {
      "inputs": [],
      "name": "renounceOwnership",
      "outputs": [],
      "stateMutability": "nonpayable",
      "type": "function"
    },
    {
      "inputs": [
        {
          "internalType": "uint8",
          "name": "",
          "type": "uint8"
        }
      ],
      "name": "rewards",
      "outputs": [
        {
          "internalType": "uint8",
          "name": "id",
          "type": "uint8"
        },
        {
          "internalType": "uint256",
          "name": "selfBusinessLimit",
          "type": "uint256"
        },
        {
          "internalType": "uint256",
          "name": "directBusinessLimit",
          "type": "uint256"
        },
        {
          "internalType": "uint256",
          "name": "teamBusinessLimit",
          "type": "uint256"
        },
        {
          "internalType": "string",
          "name": "rankName",
          "type": "string"
        },
        {
          "internalType": "string",
          "name": "rewardName",
          "type": "string"
        },
        {
          "internalType": "uint256",
          "name": "appraisal",
          "type": "uint256"
        },
        {
          "internalType": "uint256",
          "name": "topUpValueLimit",
          "type": "uint256"
        },
        {
          "internalType": "uint256",
          "name": "topUp",
          "type": "uint256"
        }
      ],
      "stateMutability": "view",
      "type": "function"
    },
    {
      "inputs": [
        {
          "internalType": "address",
          "name": "newOwner",
          "type": "address"
        }
      ],
      "name": "transferOwnership",
      "outputs": [],
      "stateMutability": "nonpayable",
      "type": "function"
    },
    {
      "inputs": [],
      "name": "unpause",
      "outputs": [],
      "stateMutability": "nonpayable",
      "type": "function"
    },
    {
      "inputs": [
        {
          "internalType": "address",
          "name": "newImplementation",
          "type": "address"
        }
      ],
      "name": "upgradeTo",
      "outputs": [],
      "stateMutability": "nonpayable",
      "type": "function"
    },
    {
      "inputs": [
        {
          "internalType": "address",
          "name": "newImplementation",
          "type": "address"
        },
        {
          "internalType": "bytes",
          "name": "data",
          "type": "bytes"
        }
      ],
      "name": "upgradeToAndCall",
      "outputs": [],
      "stateMutability": "payable",
      "type": "function"
    }
  ],
  "bytecode": "0x60a06040523060805234801561001457600080fd5b506080516111bd61004c600039600081816101fc01528181610245015281816102f60152818161033601526103c901526111bd6000f3fe60806040526004361061009c5760003560e01c8063715018a611610064578063715018a6146101365780638129fc1c1461014b5780638456cb59146101605780638da5cb5b146101755780639b317cc41461019d578063f2fde38b146101d257600080fd5b80633659cfe6146100a15780633f4ba83a146100c35780634f1ef286146100d857806352d1902d146100eb5780635c975abb14610113575b600080fd5b3480156100ad57600080fd5b506100c16100bc366004610e0f565b6101f2565b005b3480156100cf57600080fd5b506100c16102da565b6100c16100e6366004610e40565b6102ec565b3480156100f757600080fd5b506101006103bc565b6040519081526020015b60405180910390f35b34801561011f57600080fd5b5060335460ff16604051901515815260200161010a565b34801561014257600080fd5b506100c161046f565b34801561015757600080fd5b506100c1610481565b34801561016c57600080fd5b506100c16105a1565b34801561018157600080fd5b506065546040516001600160a01b03909116815260200161010a565b3480156101a957600080fd5b506101bd6101b8366004610f02565b6105b1565b60405161010a99989796959493929190610f75565b3480156101de57600080fd5b506100c16101ed366004610e0f565b61070e565b6001600160a01b037f00000000000000000000000000000000000000000000000000000000000000001630036102435760405162461bcd60e51b815260040161023a90610fdb565b60405180910390fd5b7f00000000000000000000000000000000000000000000000000000000000000006001600160a01b031661028c600080516020611141833981519152546001600160a01b031690565b6001600160a01b0316146102b25760405162461bcd60e51b815260040161023a90611027565b6102bb81610784565b604080516000808252602082019092526102d79183919061078c565b50565b6102e26108fc565b6102ea610956565b565b6001600160a01b037f00000000000000000000000000000000000000000000000000000000000000001630036103345760405162461bcd60e51b815260040161023a90610fdb565b7f00000000000000000000000000000000000000000000000000000000000000006001600160a01b031661037d600080516020611141833981519152546001600160a01b031690565b6001600160a01b0316146103a35760405162461bcd60e51b815260040161023a90611027565b6103ac82610784565b6103b88282600161078c565b5050565b6000306001600160a01b037f0000000000000000000000000000000000000000000000000000000000000000161461045c5760405162461bcd60e51b815260206004820152603860248201527f555550535570677261646561626c653a206d757374206e6f742062652063616c60448201527f6c6564207468726f7567682064656c656761746563616c6c0000000000000000606482015260840161023a565b5060008051602061114183398151915290565b6104776108fc565b6102ea60006109a8565b600054610100900460ff16158080156104a15750600054600160ff909116105b806104bb5750303b1580156104bb575060005460ff166001145b61051e5760405162461bcd60e51b815260206004820152602e60248201527f496e697469616c697a61626c653a20636f6e747261637420697320616c72656160448201526d191e481a5b9a5d1a585b1a5e995960921b606482015260840161023a565b6000805460ff191660011790558015610541576000805461ff0019166101001790555b6105496109fa565b610551610a29565b610559610a58565b80156102d7576000805461ff0019169055604051600181527f7f26b83ff96e1f2b6a682f133852f6798a09c465da95921460cefb38474024989060200160405180910390a150565b6105a96108fc565b6102ea610a7f565b60fc602052600090815260409020805460018201546002830154600384015460048501805460ff909516959394929391926105eb90611073565b80601f016020809104026020016040519081016040528092919081815260200182805461061790611073565b80156106645780601f1061063957610100808354040283529160200191610664565b820191906000526020600020905b81548152906001019060200180831161064757829003601f168201915b50505050509080600501805461067990611073565b80601f01602080910402602001604051908101604052809291908181526020018280546106a590611073565b80156106f25780601f106106c7576101008083540402835291602001916106f2565b820191906000526020600020905b8154815290600101906020018083116106d557829003601f168201915b5050505050908060060154908060070154908060080154905089565b6107166108fc565b6001600160a01b03811661077b5760405162461bcd60e51b815260206004820152602660248201527f4f776e61626c653a206e6577206f776e657220697320746865207a65726f206160448201526564647265737360d01b606482015260840161023a565b6102d7816109a8565b6102d76108fc565b7f4910fdfa16fed3260ed0e7147f7cc6da11a60208b5b9406d12a635614ffd91435460ff16156107c4576107bf83610abc565b505050565b826001600160a01b03166352d1902d6040518163ffffffff1660e01b8152600401602060405180830381865afa92505050801561081e575060408051601f3d908101601f1916820190925261081b918101906110ad565b60015b6108815760405162461bcd60e51b815260206004820152602e60248201527f45524331393637557067726164653a206e657720696d706c656d656e7461746960448201526d6f6e206973206e6f74205555505360901b606482015260840161023a565b60008051602061114183398151915281146108f05760405162461bcd60e51b815260206004820152602960248201527f45524331393637557067726164653a20756e737570706f727465642070726f786044820152681a58589b195555525160ba1b606482015260840161023a565b506107bf838383610b58565b6065546001600160a01b031633146102ea5760405162461bcd60e51b815260206004820181905260248201527f4f776e61626c653a2063616c6c6572206973206e6f7420746865206f776e6572604482015260640161023a565b61095e610b83565b6033805460ff191690557f5db9ee0a495bf2e6ff9c91a7834c1ba4fdd244a5e8aa4e537bd38aeae4b073aa335b6040516001600160a01b03909116815260200160405180910390a1565b606580546001600160a01b038381166001600160a01b0319831681179093556040519116919082907f8be0079c531659141344cd1fd0a4f28419497f9722a3daafe3b4186f6b6457e090600090a35050565b600054610100900460ff16610a215760405162461bcd60e51b815260040161023a906110c6565b6102ea610bcc565b600054610100900460ff16610a505760405162461bcd60e51b815260040161023a906110c6565b6102ea610bff565b600054610100900460ff166102ea5760405162461bcd60e51b815260040161023a906110c6565b610a87610c2f565b6033805460ff191660011790557f62e78cea01bee320cd4e420270b5ea74000d11b0c9f74754ebdbfc544b05a25861098b3390565b6001600160a01b0381163b610b295760405162461bcd60e51b815260206004820152602d60248201527f455243313936373a206e657720696d706c656d656e746174696f6e206973206e60448201526c1bdd08184818dbdb9d1c9858dd609a1b606482015260840161023a565b60008051602061114183398151915280546001600160a01b0319166001600160a01b0392909216919091179055565b610b6183610c75565b600082511180610b6e5750805b156107bf57610b7d8383610cb5565b50505050565b60335460ff166102ea5760405162461bcd60e51b815260206004820152601460248201527314185d5cd8589b194e881b9bdd081c185d5cd95960621b604482015260640161023a565b600054610100900460ff16610bf35760405162461bcd60e51b815260040161023a906110c6565b6033805460ff19169055565b600054610100900460ff16610c265760405162461bcd60e51b815260040161023a906110c6565b6102ea336109a8565b60335460ff16156102ea5760405162461bcd60e51b815260206004820152601060248201526f14185d5cd8589b194e881c185d5cd95960821b604482015260640161023a565b610c7e81610abc565b6040516001600160a01b038216907fbc7cd75a20ee27fd9adebab32041f755214dbc6bffa90cc0225b39da2e5c2d3b90600090a250565b60606001600160a01b0383163b610d1d5760405162461bcd60e51b815260206004820152602660248201527f416464726573733a2064656c65676174652063616c6c20746f206e6f6e2d636f6044820152651b9d1c9858dd60d21b606482015260840161023a565b600080846001600160a01b031684604051610d389190611111565b600060405180830381855af49150503d8060008114610d73576040519150601f19603f3d011682016040523d82523d6000602084013e610d78565b606091505b5091509150610da0828260405180606001604052806027815260200161116160279139610da9565b95945050505050565b60608315610db8575081610dc2565b610dc28383610dc9565b9392505050565b815115610dd95781518083602001fd5b8060405162461bcd60e51b815260040161023a919061112d565b80356001600160a01b0381168114610e0a57600080fd5b919050565b600060208284031215610e2157600080fd5b610dc282610df3565b634e487b7160e01b600052604160045260246000fd5b60008060408385031215610e5357600080fd5b610e5c83610df3565b9150602083013567ffffffffffffffff80821115610e7957600080fd5b818501915085601f830112610e8d57600080fd5b813581811115610e9f57610e9f610e2a565b604051601f8201601f19908116603f01168101908382118183101715610ec757610ec7610e2a565b81604052828152886020848701011115610ee057600080fd5b8260208601602083013760006020848301015280955050505050509250929050565b600060208284031215610f1457600080fd5b813560ff81168114610dc257600080fd5b60005b83811015610f40578181015183820152602001610f28565b50506000910152565b60008151808452610f61816020860160208601610f25565b601f01601f19169290920160200192915050565b600061012060ff8c1683528a6020840152896040840152886060840152806080840152610fa481840189610f49565b905082810360a0840152610fb88188610f49565b60c0840196909652505060e0810192909252610100909101529695505050505050565b6020808252602c908201527f46756e6374696f6e206d7573742062652063616c6c6564207468726f7567682060408201526b19195b1959d85d1958d85b1b60a21b606082015260800190565b6020808252602c908201527f46756e6374696f6e206d7573742062652063616c6c6564207468726f7567682060408201526b6163746976652070726f787960a01b606082015260800190565b600181811c9082168061108757607f821691505b6020821081036110a757634e487b7160e01b600052602260045260246000fd5b50919050565b6000602082840312156110bf57600080fd5b5051919050565b6020808252602b908201527f496e697469616c697a61626c653a20636f6e7472616374206973206e6f74206960408201526a6e697469616c697a696e6760a81b606082015260800190565b60008251611123818460208701610f25565b9190910192915050565b602081526000610dc26020830184610f4956fe360894a13ba1a3210667c828492db98dca3e2076cc3735a920a3ca505d382bbc416464726573733a206c6f772d6c6576656c2064656c65676174652063616c6c206661696c6564a26469706673582212207274260e5be423fca0954a4faadeca1aa4a88a7e770db3d859b18e536deade4f64736f6c63430008110033",
  "linkReferences": {},
  "deployedLinkReferences": {}
}