{
  "_format": "hh-sol-artifact-1",
  "contractName": "VariablesUpgradeable",
  "sourceName": "contracts/VariablesUpgradeable.sol",
  "abi": [
    {
      "anonymous": false,
      "inputs": [
        {
          "indexed": false,
          "internalType": "address",
          "name": "previousAdmin",
          "type": "address"
        },
        {
          "indexed": false,
          "internalType": "address",
          "name": "newAdmin",
          "type": "address"
        }
      ],
      "name": "AdminChanged",
      "type": "event"
    },
    {
      "anonymous": false,
      "inputs": [
        {
          "indexed": true,
          "internalType": "address",
          "name": "beacon",
          "type": "address"
        }
      ],
      "name": "BeaconUpgraded",
      "type": "event"
    },
    {
      "anonymous": false,
      "inputs": [
        {
          "indexed": false,
          "internalType": "uint8",
          "name": "version",
          "type": "uint8"
        }
      ],
      "name": "Initialized",
      "type": "event"
    },
    {
      "anonymous": false,
      "inputs": [
        {
          "indexed": true,
          "internalType": "address",
          "name": "previousOwner",
          "type": "address"
        },
        {
          "indexed": true,
          "internalType": "address",
          "name": "newOwner",
          "type": "address"
        }
      ],
      "name": "OwnershipTransferred",
      "type": "event"
    },
    {
      "anonymous": false,
      "inputs": [
        {
          "indexed": true,
          "internalType": "address",
          "name": "implementation",
          "type": "address"
        }
      ],
      "name": "Upgraded",
      "type": "event"
    },
    {
      "inputs": [],
      "name": "adminFees",
      "outputs": [
        {
          "internalType": "uint256",
          "name": "",
          "type": "uint256"
        }
      ],
      "stateMutability": "view",
      "type": "function"
    },
    {
      "inputs": [],
      "name": "anusdContract",
      "outputs": [
        {
          "internalType": "address",
          "name": "",
          "type": "address"
        }
      ],
      "stateMutability": "view",
      "type": "function"
    },
    {
      "inputs": [],
      "name": "anusdContractInfo",
      "outputs": [
        {
          "internalType": "address",
          "name": "tokenAddress",
          "type": "address"
        },
        {
          "internalType": "string",
          "name": "name",
          "type": "string"
        },
        {
          "internalType": "string",
          "name": "symbol",
          "type": "string"
        },
        {
          "internalType": "uint256",
          "name": "decimals",
          "type": "uint256"
        }
      ],
      "stateMutability": "view",
      "type": "function"
    },
    {
      "inputs": [],
      "name": "initialize",
      "outputs": [],
      "stateMutability": "nonpayable",
      "type": "function"
    },
    {
      "inputs": [],
      "name": "owner",
      "outputs": [
        {
          "internalType": "address",
          "name": "",
          "type": "address"
        }
      ],
      "stateMutability": "view",
      "type": "function"
    },
    {
      "inputs": [],
      "name": "presaleContract",
      "outputs": [
        {
          "internalType": "address",
          "name": "",
          "type": "address"
        }
      ],
      "stateMutability": "view",
      "type": "function"
    },
    {
      "inputs": [],
      "name": "proxiableUUID",
      "outputs": [
        {
          "internalType": "bytes32",
          "name": "",
          "type": "bytes32"
        }
      ],
      "stateMutability": "view",
      "type": "function"
    },
    {
      "inputs": [],
      "name": "referralContract",
      "outputs": [
        {
          "internalType": "address",
          "name": "",
          "type": "address"
        }
      ],
      "stateMutability": "view",
      "type": "function"
    },
    {
      "inputs": [],
      "name": "renounceOwnership",
      "outputs": [],
      "stateMutability": "nonpayable",
      "type": "function"
    },
    {
      "inputs": [],
      "name": "rewardContract",
      "outputs": [
        {
          "internalType": "address",
          "name": "",
          "type": "address"
        }
      ],
      "stateMutability": "view",
      "type": "function"
    },
    {
      "inputs": [],
      "name": "rewardContractOwner",
      "outputs": [
        {
          "internalType": "address",
          "name": "",
          "type": "address"
        }
      ],
      "stateMutability": "view",
      "type": "function"
    },
    {
      "inputs": [
        {
          "internalType": "uint256",
          "name": "_valueInWei",
          "type": "uint256"
        }
      ],
      "name": "setAdminFees",
      "outputs": [],
      "stateMutability": "nonpayable",
      "type": "function"
    },
    {
      "inputs": [
        {
          "internalType": "address",
          "name": "_presale",
          "type": "address"
        },
        {
          "internalType": "address",
          "name": "_referral",
          "type": "address"
        },
        {
          "internalType": "address",
          "name": "_staking",
          "type": "address"
        },
        {
          "internalType": "address",
          "name": "_token",
          "type": "address"
        },
        {
          "internalType": "address",
          "name": "_anusd",
          "type": "address"
        },
        {
          "internalType": "address",
          "name": "_usdt",
          "type": "address"
        },
        {
          "internalType": "address",
          "name": "_uniswapRouter",
          "type": "address"
        },
        {
          "internalType": "address",
          "name": "_reward",
          "type": "address"
        }
      ],
      "name": "setContractAddress",
      "outputs": [],
      "stateMutability": "nonpayable",
      "type": "function"
    },
    {
      "inputs": [],
      "name": "stakingContract",
      "outputs": [
        {
          "internalType": "address",
          "name": "",
          "type": "address"
        }
      ],
      "stateMutability": "view",
      "type": "function"
    },
    {
      "inputs": [],
      "name": "tokenContract",
      "outputs": [
        {
          "internalType": "address",
          "name": "",
          "type": "address"
        }
      ],
      "stateMutability": "view",
      "type": "function"
    },
    {
      "inputs": [],
      "name": "tokenContractInfo",
      "outputs": [
        {
          "internalType": "address",
          "name": "tokenAddress",
          "type": "address"
        },
        {
          "internalType": "string",
          "name": "name",
          "type": "string"
        },
        {
          "internalType": "string",
          "name": "symbol",
          "type": "string"
        },
        {
          "internalType": "uint256",
          "name": "decimals",
          "type": "uint256"
        }
      ],
      "stateMutability": "view",
      "type": "function"
    },
    {
      "inputs": [],
      "name": "tokenContractOwner",
      "outputs": [
        {
          "internalType": "address",
          "name": "",
          "type": "address"
        }
      ],
      "stateMutability": "view",
      "type": "function"
    },
    {
      "inputs": [
        {
          "internalType": "address",
          "name": "newOwner",
          "type": "address"
        }
      ],
      "name": "transferOwnership",
      "outputs": [],
      "stateMutability": "nonpayable",
      "type": "function"
    },
    {
      "inputs": [],
      "name": "uniswapV2RouterContract",
      "outputs": [
        {
          "internalType": "address",
          "name": "",
          "type": "address"
        }
      ],
      "stateMutability": "view",
      "type": "function"
    },
    {
      "inputs": [
        {
          "internalType": "address",
          "name": "newImplementation",
          "type": "address"
        }
      ],
      "name": "upgradeTo",
      "outputs": [],
      "stateMutability": "nonpayable",
      "type": "function"
    },
    {
      "inputs": [
        {
          "internalType": "address",
          "name": "newImplementation",
          "type": "address"
        },
        {
          "internalType": "bytes",
          "name": "data",
          "type": "bytes"
        }
      ],
      "name": "upgradeToAndCall",
      "outputs": [],
      "stateMutability": "payable",
      "type": "function"
    },
    {
      "inputs": [],
      "name": "usdtContract",
      "outputs": [
        {
          "internalType": "address",
          "name": "",
          "type": "address"
        }
      ],
      "stateMutability": "view",
      "type": "function"
    },
    {
      "inputs": [],
      "name": "variableContract",
      "outputs": [
        {
          "internalType": "address",
          "name": "",
          "type": "address"
        }
      ],
      "stateMutability": "view",
      "type": "function"
    }
  ],
  "bytecode": "0x60a06040523060805234801561001457600080fd5b5060805161168261004c6000396000818161055c015281816105a50152818161064401528181610684015261071701526116826000f3fe6080604052600436106101405760003560e01c80637dad19db116100b6578063b0616c181161006f578063b0616c1814610339578063b70cc4c114610359578063bf2f002e14610377578063ec31250f1461038c578063ee99205c146103aa578063f2fde38b146103c857600080fd5b80637dad19db146102925780638129fc1c146102b05780638290c4a6146102c5578063878e17df146102e35780638da5cb5b14610308578063a50b44bc1461032657600080fd5b806352d1902d1161010857806352d1902d146101f057806355a373d614610205578063611509231461022357806363d9df85146102415780636ea69d621461025f578063715018a61461027d57600080fd5b8063211dd86a146101455780633659cfe61461016757806345746dd7146101875780634bc92d6c146101be5780634f1ef286146101dd575b600080fd5b34801561015157600080fd5b50610165610160366004611209565b6103e8565b005b34801561017357600080fd5b506101656101823660046112a0565b610552565b34801561019357600080fd5b5060d2546001600160a01b03165b6040516001600160a01b0390911681526020015b60405180910390f35b3480156101ca57600080fd5b5060d3545b6040519081526020016101b5565b6101656101eb36600461132a565b61063a565b3480156101fc57600080fd5b506101cf61070a565b34801561021157600080fd5b5060cc546001600160a01b03166101a1565b34801561022f57600080fd5b5060ce546001600160a01b03166101a1565b34801561024d57600080fd5b5060c9546001600160a01b03166101a1565b34801561026b57600080fd5b5060cf546001600160a01b03166101a1565b34801561028957600080fd5b506101656107bd565b34801561029e57600080fd5b5060ca546001600160a01b03166101a1565b3480156102bc57600080fd5b506101656107d1565b3480156102d157600080fd5b5060d0546001600160a01b03166101a1565b3480156102ef57600080fd5b506102f86109b5565b6040516101b5949392919061140b565b34801561031457600080fd5b506033546001600160a01b03166101a1565b34801561033257600080fd5b50306101a1565b34801561034557600080fd5b50610165610354366004611453565b610b2e565b34801561036557600080fd5b5060cd546001600160a01b03166101a1565b34801561038357600080fd5b506102f8610b3b565b34801561039857600080fd5b5060d1546001600160a01b03166101a1565b3480156103b657600080fd5b5060cb546001600160a01b03166101a1565b3480156103d457600080fd5b506101656103e33660046112a0565b610c88565b6103f0610cfe565b6001600160a01b0388161561041b5760c980546001600160a01b0319166001600160a01b038a161790555b6001600160a01b038716156104465760ca80546001600160a01b0319166001600160a01b0389161790555b6001600160a01b038616156104715760cb80546001600160a01b0319166001600160a01b0388161790555b6001600160a01b0385161561049c5760cc80546001600160a01b0319166001600160a01b0387161790555b6001600160a01b038416156104c75760cd80546001600160a01b0319166001600160a01b0386161790555b6001600160a01b038316156104f25760ce80546001600160a01b0319166001600160a01b0385161790555b6001600160a01b0382161561051d5760d080546001600160a01b0319166001600160a01b0384161790555b6001600160a01b038116156105485760cf80546001600160a01b0319166001600160a01b0383161790555b5050505050505050565b6001600160a01b037f00000000000000000000000000000000000000000000000000000000000000001630036105a35760405162461bcd60e51b815260040161059a9061146c565b60405180910390fd5b7f00000000000000000000000000000000000000000000000000000000000000006001600160a01b03166105ec600080516020611606833981519152546001600160a01b031690565b6001600160a01b0316146106125760405162461bcd60e51b815260040161059a906114b8565b61061b81610d58565b6040805160008082526020820190925261063791839190610d60565b50565b6001600160a01b037f00000000000000000000000000000000000000000000000000000000000000001630036106825760405162461bcd60e51b815260040161059a9061146c565b7f00000000000000000000000000000000000000000000000000000000000000006001600160a01b03166106cb600080516020611606833981519152546001600160a01b031690565b6001600160a01b0316146106f15760405162461bcd60e51b815260040161059a906114b8565b6106fa82610d58565b61070682826001610d60565b5050565b6000306001600160a01b037f000000000000000000000000000000000000000000000000000000000000000016146107aa5760405162461bcd60e51b815260206004820152603860248201527f555550535570677261646561626c653a206d757374206e6f742062652063616c60448201527f6c6564207468726f7567682064656c656761746563616c6c0000000000000000606482015260840161059a565b5060008051602061160683398151915290565b6107c5610cfe565b6107cf6000610ed0565b565b600054610100900460ff16158080156107f15750600054600160ff909116105b8061080b5750303b15801561080b575060005460ff166001145b61086e5760405162461bcd60e51b815260206004820152602e60248201527f496e697469616c697a61626c653a20636f6e747261637420697320616c72656160448201526d191e481a5b9a5d1a585b1a5e995960921b606482015260840161059a565b6000805460ff191660011790558015610891576000805461ff0019166101001790555b60c980546001600160a01b0319908116735e8f3980e638fc5df657e33194ce428936d635a01790915560ca805482167358469d0d27aae15cf611966b89e072e49d35909717905560cb8054821673b361d6d49694161c413e60e140309f20af19cefd17905560cc8054821673da0948903d239fb9ea25b73b573800630f86352017905560cd8054821673e7377ede6e9ab141807959c80e2a1a3795d1917317905560d0805490911673de2db97d54a3c3b008a097b2260633e6ca7db1af179055671bc16d674ec8000060d355610965610f22565b61096d610f51565b8015610637576000805461ff0019169055604051600181527f7f26b83ff96e1f2b6a682f133852f6798a09c465da95921460cefb38474024989060200160405180910390a150565b60cc54604080516306fdde0360e01b815290516001600160a01b0390921691606091829160009185916306fdde039160048082019286929091908290030181865afa158015610a08573d6000803e3d6000fd5b505050506040513d6000823e601f3d908101601f19168201604052610a309190810190611504565b925060cc60009054906101000a90046001600160a01b03166001600160a01b03166395d89b416040518163ffffffff1660e01b8152600401600060405180830381865afa158015610a85573d6000803e3d6000fd5b505050506040513d6000823e601f3d908101601f19168201604052610aad9190810190611504565b915060cc60009054906101000a90046001600160a01b03166001600160a01b031663313ce5676040518163ffffffff1660e01b8152600401602060405180830381865afa158015610b02573d6000803e3d6000fd5b505050506040513d601f19601f82011682018060405250810190610b269190611572565b905090919293565b610b36610cfe565b60d355565b60cd54604080516306fdde0360e01b815290516001600160a01b0390921691606091829160009185916306fdde039160048082019286929091908290030181865afa158015610b8e573d6000803e3d6000fd5b505050506040513d6000823e601f3d908101601f19168201604052610bb69190810190611504565b925060cd60009054906101000a90046001600160a01b03166001600160a01b03166395d89b416040518163ffffffff1660e01b8152600401600060405180830381865afa158015610c0b573d6000803e3d6000fd5b505050506040513d6000823e601f3d908101601f19168201604052610c339190810190611504565b915060cd60009054906101000a90046001600160a01b03166001600160a01b031663313ce5676040518163ffffffff1660e01b8152600401602060405180830381865afa158015610b02573d6000803e3d6000fd5b610c90610cfe565b6001600160a01b038116610cf55760405162461bcd60e51b815260206004820152602660248201527f4f776e61626c653a206e6577206f776e657220697320746865207a65726f206160448201526564647265737360d01b606482015260840161059a565b61063781610ed0565b6033546001600160a01b031633146107cf5760405162461bcd60e51b815260206004820181905260248201527f4f776e61626c653a2063616c6c6572206973206e6f7420746865206f776e6572604482015260640161059a565b610637610cfe565b7f4910fdfa16fed3260ed0e7147f7cc6da11a60208b5b9406d12a635614ffd91435460ff1615610d9857610d9383610f78565b505050565b826001600160a01b03166352d1902d6040518163ffffffff1660e01b8152600401602060405180830381865afa925050508015610df2575060408051601f3d908101601f19168201909252610def91810190611572565b60015b610e555760405162461bcd60e51b815260206004820152602e60248201527f45524331393637557067726164653a206e657720696d706c656d656e7461746960448201526d6f6e206973206e6f74205555505360901b606482015260840161059a565b6000805160206116068339815191528114610ec45760405162461bcd60e51b815260206004820152602960248201527f45524331393637557067726164653a20756e737570706f727465642070726f786044820152681a58589b195555525160ba1b606482015260840161059a565b50610d93838383611014565b603380546001600160a01b038381166001600160a01b0319831681179093556040519116919082907f8be0079c531659141344cd1fd0a4f28419497f9722a3daafe3b4186f6b6457e090600090a35050565b600054610100900460ff16610f495760405162461bcd60e51b815260040161059a9061158b565b6107cf61103f565b600054610100900460ff166107cf5760405162461bcd60e51b815260040161059a9061158b565b6001600160a01b0381163b610fe55760405162461bcd60e51b815260206004820152602d60248201527f455243313936373a206e657720696d706c656d656e746174696f6e206973206e60448201526c1bdd08184818dbdb9d1c9858dd609a1b606482015260840161059a565b60008051602061160683398151915280546001600160a01b0319166001600160a01b0392909216919091179055565b61101d8361106f565b60008251118061102a5750805b15610d935761103983836110af565b50505050565b600054610100900460ff166110665760405162461bcd60e51b815260040161059a9061158b565b6107cf33610ed0565b61107881610f78565b6040516001600160a01b038216907fbc7cd75a20ee27fd9adebab32041f755214dbc6bffa90cc0225b39da2e5c2d3b90600090a250565b60606001600160a01b0383163b6111175760405162461bcd60e51b815260206004820152602660248201527f416464726573733a2064656c65676174652063616c6c20746f206e6f6e2d636f6044820152651b9d1c9858dd60d21b606482015260840161059a565b600080846001600160a01b03168460405161113291906115d6565b600060405180830381855af49150503d806000811461116d576040519150601f19603f3d011682016040523d82523d6000602084013e611172565b606091505b509150915061119a8282604051806060016040528060278152602001611626602791396111a3565b95945050505050565b606083156111b25750816111bc565b6111bc83836111c3565b9392505050565b8151156111d35781518083602001fd5b8060405162461bcd60e51b815260040161059a91906115f2565b80356001600160a01b038116811461120457600080fd5b919050565b600080600080600080600080610100898b03121561122657600080fd5b61122f896111ed565b975061123d60208a016111ed565b965061124b60408a016111ed565b955061125960608a016111ed565b945061126760808a016111ed565b935061127560a08a016111ed565b925061128360c08a016111ed565b915061129160e08a016111ed565b90509295985092959890939650565b6000602082840312156112b257600080fd5b6111bc826111ed565b634e487b7160e01b600052604160045260246000fd5b604051601f8201601f1916810167ffffffffffffffff811182821017156112fa576112fa6112bb565b604052919050565b600067ffffffffffffffff82111561131c5761131c6112bb565b50601f01601f191660200190565b6000806040838503121561133d57600080fd5b611346836111ed565b9150602083013567ffffffffffffffff81111561136257600080fd5b8301601f8101851361137357600080fd5b803561138661138182611302565b6112d1565b81815286602083850101111561139b57600080fd5b816020840160208301376000602083830101528093505050509250929050565b60005b838110156113d65781810151838201526020016113be565b50506000910152565b600081518084526113f78160208601602086016113bb565b601f01601f19169290920160200192915050565b6001600160a01b038516815260806020820181905260009061142f908301866113df565b828103604084015261144181866113df565b91505082606083015295945050505050565b60006020828403121561146557600080fd5b5035919050565b6020808252602c908201527f46756e6374696f6e206d7573742062652063616c6c6564207468726f7567682060408201526b19195b1959d85d1958d85b1b60a21b606082015260800190565b6020808252602c908201527f46756e6374696f6e206d7573742062652063616c6c6564207468726f7567682060408201526b6163746976652070726f787960a01b606082015260800190565b60006020828403121561151657600080fd5b815167ffffffffffffffff81111561152d57600080fd5b8201601f8101841361153e57600080fd5b805161154c61138182611302565b81815285602083850101111561156157600080fd5b61119a8260208301602086016113bb565b60006020828403121561158457600080fd5b5051919050565b6020808252602b908201527f496e697469616c697a61626c653a20636f6e7472616374206973206e6f74206960408201526a6e697469616c697a696e6760a81b606082015260800190565b600082516115e88184602087016113bb565b9190910192915050565b6020815260006111bc60208301846113df56fe360894a13ba1a3210667c828492db98dca3e2076cc3735a920a3ca505d382bbc416464726573733a206c6f772d6c6576656c2064656c65676174652063616c6c206661696c6564a264697066735822122050c92fa348633ad55a1752d37a3639f03fe94b6eaa5cc06ca79bf7c431181e4e64736f6c63430008110033",
  "linkReferences": {},
  "deployedLinkReferences": {}
}