{
  "_format": "hh-sol-artifact-1",
  "contractName": "VariablesUpgradeable",
  "sourceName": "contracts/VariablesUpgradeable.sol",
  "abi": [
    {
      "anonymous": false,
      "inputs": [
        {
          "indexed": false,
          "internalType": "address",
          "name": "previousAdmin",
          "type": "address"
        },
        {
          "indexed": false,
          "internalType": "address",
          "name": "newAdmin",
          "type": "address"
        }
      ],
      "name": "AdminChanged",
      "type": "event"
    },
    {
      "anonymous": false,
      "inputs": [
        {
          "indexed": true,
          "internalType": "address",
          "name": "beacon",
          "type": "address"
        }
      ],
      "name": "BeaconUpgraded",
      "type": "event"
    },
    {
      "anonymous": false,
      "inputs": [
        {
          "indexed": false,
          "internalType": "uint8",
          "name": "version",
          "type": "uint8"
        }
      ],
      "name": "Initialized",
      "type": "event"
    },
    {
      "anonymous": false,
      "inputs": [
        {
          "indexed": true,
          "internalType": "address",
          "name": "previousOwner",
          "type": "address"
        },
        {
          "indexed": true,
          "internalType": "address",
          "name": "newOwner",
          "type": "address"
        }
      ],
      "name": "OwnershipTransferred",
      "type": "event"
    },
    {
      "anonymous": false,
      "inputs": [
        {
          "indexed": true,
          "internalType": "address",
          "name": "implementation",
          "type": "address"
        }
      ],
      "name": "Upgraded",
      "type": "event"
    },
    {
      "inputs": [
        {
          "internalType": "address",
          "name": "_address",
          "type": "address"
        }
      ],
      "name": "addAdmin",
      "outputs": [],
      "stateMutability": "nonpayable",
      "type": "function"
    },
    {
      "inputs": [
        {
          "internalType": "address",
          "name": "_address",
          "type": "address"
        }
      ],
      "name": "addManager",
      "outputs": [],
      "stateMutability": "nonpayable",
      "type": "function"
    },
    {
      "inputs": [],
      "name": "adminFees",
      "outputs": [
        {
          "internalType": "uint256",
          "name": "",
          "type": "uint256"
        }
      ],
      "stateMutability": "view",
      "type": "function"
    },
    {
      "inputs": [
        {
          "internalType": "uint256",
          "name": "",
          "type": "uint256"
        }
      ],
      "name": "adminsList",
      "outputs": [
        {
          "internalType": "address",
          "name": "",
          "type": "address"
        }
      ],
      "stateMutability": "view",
      "type": "function"
    },
    {
      "inputs": [],
      "name": "anusdContract",
      "outputs": [
        {
          "internalType": "address",
          "name": "",
          "type": "address"
        }
      ],
      "stateMutability": "view",
      "type": "function"
    },
    {
      "inputs": [],
      "name": "anusdContractInfo",
      "outputs": [
        {
          "internalType": "address",
          "name": "tokenAddress",
          "type": "address"
        },
        {
          "internalType": "string",
          "name": "name",
          "type": "string"
        },
        {
          "internalType": "string",
          "name": "symbol",
          "type": "string"
        },
        {
          "internalType": "uint256",
          "name": "decimals",
          "type": "uint256"
        }
      ],
      "stateMutability": "view",
      "type": "function"
    },
    {
      "inputs": [],
      "name": "getAdminsList",
      "outputs": [
        {
          "internalType": "address[]",
          "name": "",
          "type": "address[]"
        }
      ],
      "stateMutability": "view",
      "type": "function"
    },
    {
      "inputs": [],
      "name": "getManagers",
      "outputs": [
        {
          "internalType": "address[]",
          "name": "",
          "type": "address[]"
        }
      ],
      "stateMutability": "view",
      "type": "function"
    },
    {
      "inputs": [],
      "name": "getMonthlyRewardsContract",
      "outputs": [
        {
          "internalType": "address",
          "name": "",
          "type": "address"
        }
      ],
      "stateMutability": "view",
      "type": "function"
    },
    {
      "inputs": [],
      "name": "initialize",
      "outputs": [],
      "stateMutability": "nonpayable",
      "type": "function"
    },
    {
      "inputs": [
        {
          "internalType": "address",
          "name": "_address",
          "type": "address"
        }
      ],
      "name": "isAdmin",
      "outputs": [
        {
          "internalType": "bool",
          "name": "",
          "type": "bool"
        }
      ],
      "stateMutability": "view",
      "type": "function"
    },
    {
      "inputs": [
        {
          "internalType": "address",
          "name": "_userAddress",
          "type": "address"
        }
      ],
      "name": "isManager",
      "outputs": [
        {
          "internalType": "bool",
          "name": "",
          "type": "bool"
        }
      ],
      "stateMutability": "view",
      "type": "function"
    },
    {
      "inputs": [],
      "name": "owner",
      "outputs": [
        {
          "internalType": "address",
          "name": "",
          "type": "address"
        }
      ],
      "stateMutability": "view",
      "type": "function"
    },
    {
      "inputs": [],
      "name": "presaleContract",
      "outputs": [
        {
          "internalType": "address",
          "name": "",
          "type": "address"
        }
      ],
      "stateMutability": "view",
      "type": "function"
    },
    {
      "inputs": [],
      "name": "proxiableUUID",
      "outputs": [
        {
          "internalType": "bytes32",
          "name": "",
          "type": "bytes32"
        }
      ],
      "stateMutability": "view",
      "type": "function"
    },
    {
      "inputs": [],
      "name": "referralContract",
      "outputs": [
        {
          "internalType": "address",
          "name": "",
          "type": "address"
        }
      ],
      "stateMutability": "view",
      "type": "function"
    },
    {
      "inputs": [
        {
          "internalType": "address",
          "name": "_address",
          "type": "address"
        }
      ],
      "name": "removeAdmin",
      "outputs": [],
      "stateMutability": "nonpayable",
      "type": "function"
    },
    {
      "inputs": [
        {
          "internalType": "address",
          "name": "_address",
          "type": "address"
        }
      ],
      "name": "removeManager",
      "outputs": [],
      "stateMutability": "nonpayable",
      "type": "function"
    },
    {
      "inputs": [],
      "name": "renounceOwnership",
      "outputs": [],
      "stateMutability": "nonpayable",
      "type": "function"
    },
    {
      "inputs": [],
      "name": "rewardContract",
      "outputs": [
        {
          "internalType": "address",
          "name": "",
          "type": "address"
        }
      ],
      "stateMutability": "view",
      "type": "function"
    },
    {
      "inputs": [],
      "name": "rewardContractOwner",
      "outputs": [
        {
          "internalType": "address",
          "name": "",
          "type": "address"
        }
      ],
      "stateMutability": "view",
      "type": "function"
    },
    {
      "inputs": [
        {
          "internalType": "uint256",
          "name": "_valueInWei",
          "type": "uint256"
        }
      ],
      "name": "setAdminFees",
      "outputs": [],
      "stateMutability": "nonpayable",
      "type": "function"
    },
    {
      "inputs": [
        {
          "internalType": "address",
          "name": "_presale",
          "type": "address"
        },
        {
          "internalType": "address",
          "name": "_referral",
          "type": "address"
        },
        {
          "internalType": "address",
          "name": "_staking",
          "type": "address"
        },
        {
          "internalType": "address",
          "name": "_token",
          "type": "address"
        },
        {
          "internalType": "address",
          "name": "_anusd",
          "type": "address"
        },
        {
          "internalType": "address",
          "name": "_usdt",
          "type": "address"
        },
        {
          "internalType": "address",
          "name": "_uniswapRouter",
          "type": "address"
        },
        {
          "internalType": "address",
          "name": "_reward",
          "type": "address"
        }
      ],
      "name": "setContractAddress",
      "outputs": [],
      "stateMutability": "nonpayable",
      "type": "function"
    },
    {
      "inputs": [
        {
          "internalType": "address",
          "name": "_contractAddress",
          "type": "address"
        }
      ],
      "name": "setMonthlyRewardsContract",
      "outputs": [],
      "stateMutability": "nonpayable",
      "type": "function"
    },
    {
      "inputs": [],
      "name": "stakingContract",
      "outputs": [
        {
          "internalType": "address",
          "name": "",
          "type": "address"
        }
      ],
      "stateMutability": "view",
      "type": "function"
    },
    {
      "inputs": [],
      "name": "tokenContract",
      "outputs": [
        {
          "internalType": "address",
          "name": "",
          "type": "address"
        }
      ],
      "stateMutability": "view",
      "type": "function"
    },
    {
      "inputs": [],
      "name": "tokenContractInfo",
      "outputs": [
        {
          "internalType": "address",
          "name": "tokenAddress",
          "type": "address"
        },
        {
          "internalType": "string",
          "name": "name",
          "type": "string"
        },
        {
          "internalType": "string",
          "name": "symbol",
          "type": "string"
        },
        {
          "internalType": "uint256",
          "name": "decimals",
          "type": "uint256"
        }
      ],
      "stateMutability": "view",
      "type": "function"
    },
    {
      "inputs": [],
      "name": "tokenContractOwner",
      "outputs": [
        {
          "internalType": "address",
          "name": "",
          "type": "address"
        }
      ],
      "stateMutability": "view",
      "type": "function"
    },
    {
      "inputs": [
        {
          "internalType": "address",
          "name": "newOwner",
          "type": "address"
        }
      ],
      "name": "transferOwnership",
      "outputs": [],
      "stateMutability": "nonpayable",
      "type": "function"
    },
    {
      "inputs": [],
      "name": "uniswapV2RouterContract",
      "outputs": [
        {
          "internalType": "address",
          "name": "",
          "type": "address"
        }
      ],
      "stateMutability": "view",
      "type": "function"
    },
    {
      "inputs": [
        {
          "internalType": "address",
          "name": "newImplementation",
          "type": "address"
        }
      ],
      "name": "upgradeTo",
      "outputs": [],
      "stateMutability": "nonpayable",
      "type": "function"
    },
    {
      "inputs": [
        {
          "internalType": "address",
          "name": "newImplementation",
          "type": "address"
        },
        {
          "internalType": "bytes",
          "name": "data",
          "type": "bytes"
        }
      ],
      "name": "upgradeToAndCall",
      "outputs": [],
      "stateMutability": "payable",
      "type": "function"
    },
    {
      "inputs": [],
      "name": "usdtContract",
      "outputs": [
        {
          "internalType": "address",
          "name": "",
          "type": "address"
        }
      ],
      "stateMutability": "view",
      "type": "function"
    },
    {
      "inputs": [],
      "name": "variableContract",
      "outputs": [
        {
          "internalType": "address",
          "name": "",
          "type": "address"
        }
      ],
      "stateMutability": "view",
      "type": "function"
    }
  ],
  "bytecode": "0x60a06040523060805234801561001457600080fd5b506080516120e161004c60003960008181610b0b01528181610b4b01528181610bea01528181610c2a0152610cbd01526120e16000f3fe6080604052600436106101f95760003560e01c80638129fc1c1161010d578063b0616c18116100a0578063d809e1da1161006f578063d809e1da14610587578063ec31250f146105a7578063ee99205c146105c5578063f2fde38b146105e3578063f3ae24151461060357600080fd5b8063b0616c1814610516578063b264bbab14610536578063b70cc4c114610554578063bf2f002e1461057257600080fd5b8063a4705294116100dc578063a4705294146104ae578063a50b44bc146104ce578063a8d088bb146104e1578063ac18de43146104f657600080fd5b80638129fc1c146104385780638290c4a61461044d578063878e17df1461046b5780638da5cb5b1461049057600080fd5b80634f1ef2861161019057806363d9df851161015f57806363d9df85146103a95780636ea69d62146103c757806370480275146103e5578063715018a6146104055780637dad19db1461041a57600080fd5b80634f1ef2861461034557806352d1902d1461035857806355a373d61461036d578063611509231461038b57600080fd5b80632d06177a116101cc5780632d06177a146102b45780633659cfe6146102d457806345746dd7146102f45780634bc92d6c1461032657600080fd5b80631785f53c146101fe5780631818036614610220578063211dd86a1461024b57806324d7806c1461026b575b600080fd5b34801561020a57600080fd5b5061021e610219366004611b59565b61063c565b005b34801561022c57600080fd5b50610235610822565b6040516102429190611b74565b60405180910390f35b34801561025757600080fd5b5061021e610266366004611bc1565b610884565b34801561027757600080fd5b506102a4610286366004611b59565b6001600160a01b0316600090815260d4602052604090205460ff1690565b6040519015158152602001610242565b3480156102c057600080fd5b5061021e6102cf366004611b59565b6109ee565b3480156102e057600080fd5b5061021e6102ef366004611b59565b610b01565b34801561030057600080fd5b5060d2546001600160a01b03165b6040516001600160a01b039091168152602001610242565b34801561033257600080fd5b5060d3545b604051908152602001610242565b61021e610353366004611cc7565b610be0565b34801561036457600080fd5b50610337610cb0565b34801561037957600080fd5b5060cc546001600160a01b031661030e565b34801561039757600080fd5b5060ce546001600160a01b031661030e565b3480156103b557600080fd5b5060c9546001600160a01b031661030e565b3480156103d357600080fd5b5060cf546001600160a01b031661030e565b3480156103f157600080fd5b5061021e610400366004611b59565b610d63565b34801561041157600080fd5b5061021e610e76565b34801561042657600080fd5b5060ca546001600160a01b031661030e565b34801561044457600080fd5b5061021e610e8a565b34801561045957600080fd5b5060d0546001600160a01b031661030e565b34801561047757600080fd5b5061048061106e565b6040516102429493929190611da8565b34801561049c57600080fd5b506033546001600160a01b031661030e565b3480156104ba57600080fd5b5061030e6104c9366004611df0565b6111e7565b3480156104da57600080fd5b503061030e565b3480156104ed57600080fd5b50610235611211565b34801561050257600080fd5b5061021e610511366004611b59565b611271565b34801561052257600080fd5b5061021e610531366004611df0565b611457565b34801561054257600080fd5b5060d5546001600160a01b031661030e565b34801561056057600080fd5b5060cd546001600160a01b031661030e565b34801561057e57600080fd5b50610480611464565b34801561059357600080fd5b5061021e6105a2366004611b59565b6115b1565b3480156105b357600080fd5b5060d1546001600160a01b031661030e565b3480156105d157600080fd5b5060cb546001600160a01b031661030e565b3480156105ef57600080fd5b5061021e6105fe366004611b59565b6115db565b34801561060f57600080fd5b506102a461061e366004611b59565b6001600160a01b0316600090815260d8602052604090205460ff1690565b33600090815260d4602052604090205460ff168061066457506033546001600160a01b031633145b6106895760405162461bcd60e51b815260040161068090611e09565b60405180910390fd5b6001600160a01b038116600090815260d4602052604090205460ff166106e95760405162461bcd60e51b815260206004820152601560248201527420b2323932b9b99034b9903737ba1030b236b4b71760591b6044820152606401610680565b6001600160a01b038116600090815260d460205260408120805460ff1916905560d654905b8160ff1681101561081d576001600160a01b038316600090815260d4602052604090205460ff16156107e85760d6805461074a90600190611e6a565b8154811061075a5761075a611e7d565b60009182526020909120015460d680546001600160a01b03909216918390811061078657610786611e7d565b9060005260206000200160006101000a8154816001600160a01b0302191690836001600160a01b0316021790555060d68054806107c5576107c5611e93565b600082815260209020810160001990810180546001600160a01b03191690550190555b60d65460ff8316118015610809575060d65461080690600190611e6a565b81145b61081d5761081681611ea9565b905061070e565b505050565b606060d680548060200260200160405190810160405280929190818152602001828054801561087a57602002820191906000526020600020905b81546001600160a01b0316815260019091019060200180831161085c575b5050505050905090565b61088c611651565b6001600160a01b038816156108b75760c980546001600160a01b0319166001600160a01b038a161790555b6001600160a01b038716156108e25760ca80546001600160a01b0319166001600160a01b0389161790555b6001600160a01b0386161561090d5760cb80546001600160a01b0319166001600160a01b0388161790555b6001600160a01b038516156109385760cc80546001600160a01b0319166001600160a01b0387161790555b6001600160a01b038416156109635760cd80546001600160a01b0319166001600160a01b0386161790555b6001600160a01b0383161561098e5760ce80546001600160a01b0319166001600160a01b0385161790555b6001600160a01b038216156109b95760d080546001600160a01b0319166001600160a01b0384161790555b6001600160a01b038116156109e45760cf80546001600160a01b0319166001600160a01b0383161790555b5050505050505050565b33600090815260d4602052604090205460ff1680610a1657506033546001600160a01b031633145b610a325760405162461bcd60e51b815260040161068090611e09565b6001600160a01b038116600090815260d8602052604090205460ff1615610a9b5760405162461bcd60e51b815260206004820152601b60248201527f4164647265737320697320616c7265616479206d616e616765722e00000000006044820152606401610680565b6001600160a01b0316600081815260d860205260408120805460ff1916600190811790915560d7805491820181559091527f8a012a6de2943a5aa4d77acf5e695d4456760a3f1f30a5d6dc2079599187a0710180546001600160a01b0319169091179055565b6001600160a01b037f0000000000000000000000000000000000000000000000000000000000000000163003610b495760405162461bcd60e51b815260040161068090611ec2565b7f00000000000000000000000000000000000000000000000000000000000000006001600160a01b0316610b92600080516020612065833981519152546001600160a01b031690565b6001600160a01b031614610bb85760405162461bcd60e51b815260040161068090611f0e565b610bc1816116ab565b60408051600080825260208201909252610bdd918391906116b3565b50565b6001600160a01b037f0000000000000000000000000000000000000000000000000000000000000000163003610c285760405162461bcd60e51b815260040161068090611ec2565b7f00000000000000000000000000000000000000000000000000000000000000006001600160a01b0316610c71600080516020612065833981519152546001600160a01b031690565b6001600160a01b031614610c975760405162461bcd60e51b815260040161068090611f0e565b610ca0826116ab565b610cac828260016116b3565b5050565b6000306001600160a01b037f00000000000000000000000000000000000000000000000000000000000000001614610d505760405162461bcd60e51b815260206004820152603860248201527f555550535570677261646561626c653a206d757374206e6f742062652063616c60448201527f6c6564207468726f7567682064656c656761746563616c6c00000000000000006064820152608401610680565b5060008051602061206583398151915290565b33600090815260d4602052604090205460ff1680610d8b57506033546001600160a01b031633145b610da75760405162461bcd60e51b815260040161068090611e09565b6001600160a01b038116600090815260d4602052604090205460ff1615610e105760405162461bcd60e51b815260206004820152601960248201527f4164647265737320697320616c72656164792061646d696e2e000000000000006044820152606401610680565b6001600160a01b0316600081815260d460205260408120805460ff1916600190811790915560d6805491820181559091527fe767803f8ecf1dee6bb0345811f7312cda556058b19db6389ad9ae3568643ddd0180546001600160a01b0319169091179055565b610e7e611651565b610e88600061181e565b565b600054610100900460ff1615808015610eaa5750600054600160ff909116105b80610ec45750303b158015610ec4575060005460ff166001145b610f275760405162461bcd60e51b815260206004820152602e60248201527f496e697469616c697a61626c653a20636f6e747261637420697320616c72656160448201526d191e481a5b9a5d1a585b1a5e995960921b6064820152608401610680565b6000805460ff191660011790558015610f4a576000805461ff0019166101001790555b60c980546001600160a01b0319908116735e8f3980e638fc5df657e33194ce428936d635a01790915560ca805482167358469d0d27aae15cf611966b89e072e49d35909717905560cb8054821673b361d6d49694161c413e60e140309f20af19cefd17905560cc8054821673da0948903d239fb9ea25b73b573800630f86352017905560cd8054821673e7377ede6e9ab141807959c80e2a1a3795d1917317905560d0805490911673de2db97d54a3c3b008a097b2260633e6ca7db1af179055671bc16d674ec8000060d35561101e611870565b61102661189f565b8015610bdd576000805461ff0019169055604051600181527f7f26b83ff96e1f2b6a682f133852f6798a09c465da95921460cefb38474024989060200160405180910390a150565b60cc54604080516306fdde0360e01b815290516001600160a01b0390921691606091829160009185916306fdde039160048082019286929091908290030181865afa1580156110c1573d6000803e3d6000fd5b505050506040513d6000823e601f3d908101601f191682016040526110e99190810190611f5a565b925060cc60009054906101000a90046001600160a01b03166001600160a01b03166395d89b416040518163ffffffff1660e01b8152600401600060405180830381865afa15801561113e573d6000803e3d6000fd5b505050506040513d6000823e601f3d908101601f191682016040526111669190810190611f5a565b915060cc60009054906101000a90046001600160a01b03166001600160a01b031663313ce5676040518163ffffffff1660e01b8152600401602060405180830381865afa1580156111bb573d6000803e3d6000fd5b505050506040513d601f19601f820116820180604052508101906111df9190611fd1565b905090919293565b60d681815481106111f757600080fd5b6000918252602090912001546001600160a01b0316905081565b606060d780548060200260200160405190810160405280929190818152602001828054801561087a576020028201919060005260206000209081546001600160a01b0316815260019091019060200180831161085c575050505050905090565b33600090815260d4602052604090205460ff168061129957506033546001600160a01b031633145b6112b55760405162461bcd60e51b815260040161068090611e09565b6001600160a01b038116600090815260d8602052604090205460ff1661131d5760405162461bcd60e51b815260206004820152601760248201527f41646472657373206973206e6f74206d616e616765722e0000000000000000006044820152606401610680565b6001600160a01b038116600090815260d860205260408120805460ff1916905560d754905b8160ff1681101561081d57826001600160a01b031660d7828154811061136a5761136a611e7d565b6000918252602090912001546001600160a01b0316036114325760d7805461139490600190611e6a565b815481106113a4576113a4611e7d565b60009182526020909120015460d780546001600160a01b0390921691839081106113d0576113d0611e7d565b9060005260206000200160006101000a8154816001600160a01b0302191690836001600160a01b0316021790555060d780548061140f5761140f611e93565b600082815260209020810160001990810180546001600160a01b03191690550190555b60d75461144190600190611e6a565b811461081d5761145081611ea9565b9050611342565b61145f611651565b60d355565b60cd54604080516306fdde0360e01b815290516001600160a01b0390921691606091829160009185916306fdde039160048082019286929091908290030181865afa1580156114b7573d6000803e3d6000fd5b505050506040513d6000823e601f3d908101601f191682016040526114df9190810190611f5a565b925060cd60009054906101000a90046001600160a01b03166001600160a01b03166395d89b416040518163ffffffff1660e01b8152600401600060405180830381865afa158015611534573d6000803e3d6000fd5b505050506040513d6000823e601f3d908101601f1916820160405261155c9190810190611f5a565b915060cd60009054906101000a90046001600160a01b03166001600160a01b031663313ce5676040518163ffffffff1660e01b8152600401602060405180830381865afa1580156111bb573d6000803e3d6000fd5b6115b9611651565b60d580546001600160a01b0319166001600160a01b0392909216919091179055565b6115e3611651565b6001600160a01b0381166116485760405162461bcd60e51b815260206004820152602660248201527f4f776e61626c653a206e6577206f776e657220697320746865207a65726f206160448201526564647265737360d01b6064820152608401610680565b610bdd8161181e565b6033546001600160a01b03163314610e885760405162461bcd60e51b815260206004820181905260248201527f4f776e61626c653a2063616c6c6572206973206e6f7420746865206f776e65726044820152606401610680565b610bdd611651565b7f4910fdfa16fed3260ed0e7147f7cc6da11a60208b5b9406d12a635614ffd91435460ff16156116e65761081d836118c6565b826001600160a01b03166352d1902d6040518163ffffffff1660e01b8152600401602060405180830381865afa925050508015611740575060408051601f3d908101601f1916820190925261173d91810190611fd1565b60015b6117a35760405162461bcd60e51b815260206004820152602e60248201527f45524331393637557067726164653a206e657720696d706c656d656e7461746960448201526d6f6e206973206e6f74205555505360901b6064820152608401610680565b60008051602061206583398151915281146118125760405162461bcd60e51b815260206004820152602960248201527f45524331393637557067726164653a20756e737570706f727465642070726f786044820152681a58589b195555525160ba1b6064820152608401610680565b5061081d838383611962565b603380546001600160a01b038381166001600160a01b0319831681179093556040519116919082907f8be0079c531659141344cd1fd0a4f28419497f9722a3daafe3b4186f6b6457e090600090a35050565b600054610100900460ff166118975760405162461bcd60e51b815260040161068090611fea565b610e8861198d565b600054610100900460ff16610e885760405162461bcd60e51b815260040161068090611fea565b6001600160a01b0381163b6119335760405162461bcd60e51b815260206004820152602d60248201527f455243313936373a206e657720696d706c656d656e746174696f6e206973206e60448201526c1bdd08184818dbdb9d1c9858dd609a1b6064820152608401610680565b60008051602061206583398151915280546001600160a01b0319166001600160a01b0392909216919091179055565b61196b836119bd565b6000825111806119785750805b1561081d5761198783836119fd565b50505050565b600054610100900460ff166119b45760405162461bcd60e51b815260040161068090611fea565b610e883361181e565b6119c6816118c6565b6040516001600160a01b038216907fbc7cd75a20ee27fd9adebab32041f755214dbc6bffa90cc0225b39da2e5c2d3b90600090a250565b60606001600160a01b0383163b611a655760405162461bcd60e51b815260206004820152602660248201527f416464726573733a2064656c65676174652063616c6c20746f206e6f6e2d636f6044820152651b9d1c9858dd60d21b6064820152608401610680565b600080846001600160a01b031684604051611a809190612035565b600060405180830381855af49150503d8060008114611abb576040519150601f19603f3d011682016040523d82523d6000602084013e611ac0565b606091505b5091509150611ae8828260405180606001604052806027815260200161208560279139611af3565b925050505b92915050565b60608315611b02575081611b0c565b611b0c8383611b13565b9392505050565b815115611b235781518083602001fd5b8060405162461bcd60e51b81526004016106809190612051565b80356001600160a01b0381168114611b5457600080fd5b919050565b600060208284031215611b6b57600080fd5b611b0c82611b3d565b6020808252825182820181905260009190848201906040850190845b81811015611bb55783516001600160a01b031683529284019291840191600101611b90565b50909695505050505050565b600080600080600080600080610100898b031215611bde57600080fd5b611be789611b3d565b9750611bf560208a01611b3d565b9650611c0360408a01611b3d565b9550611c1160608a01611b3d565b9450611c1f60808a01611b3d565b9350611c2d60a08a01611b3d565b9250611c3b60c08a01611b3d565b9150611c4960e08a01611b3d565b90509295985092959890939650565b634e487b7160e01b600052604160045260246000fd5b604051601f8201601f1916810167ffffffffffffffff81118282101715611c9757611c97611c58565b604052919050565b600067ffffffffffffffff821115611cb957611cb9611c58565b50601f01601f191660200190565b60008060408385031215611cda57600080fd5b611ce383611b3d565b9150602083013567ffffffffffffffff811115611cff57600080fd5b8301601f81018513611d1057600080fd5b8035611d23611d1e82611c9f565b611c6e565b818152866020838501011115611d3857600080fd5b816020840160208301376000602083830101528093505050509250929050565b60005b83811015611d73578181015183820152602001611d5b565b50506000910152565b60008151808452611d94816020860160208601611d58565b601f01601f19169290920160200192915050565b6001600160a01b0385168152608060208201819052600090611dcc90830186611d7c565b8281036040840152611dde8186611d7c565b91505082606083015295945050505050565b600060208284031215611e0257600080fd5b5035919050565b6020808252602b908201527f4f6e6c792041646d696e206f72206f776e65722063616e2063616c6c2074686960408201526a3990333ab731ba34b7b71760a91b606082015260800190565b634e487b7160e01b600052601160045260246000fd5b81810381811115611aed57611aed611e54565b634e487b7160e01b600052603260045260246000fd5b634e487b7160e01b600052603160045260246000fd5b600060018201611ebb57611ebb611e54565b5060010190565b6020808252602c908201527f46756e6374696f6e206d7573742062652063616c6c6564207468726f7567682060408201526b19195b1959d85d1958d85b1b60a21b606082015260800190565b6020808252602c908201527f46756e6374696f6e206d7573742062652063616c6c6564207468726f7567682060408201526b6163746976652070726f787960a01b606082015260800190565b600060208284031215611f6c57600080fd5b815167ffffffffffffffff811115611f8357600080fd5b8201601f81018413611f9457600080fd5b8051611fa2611d1e82611c9f565b818152856020838501011115611fb757600080fd5b611fc8826020830160208601611d58565b95945050505050565b600060208284031215611fe357600080fd5b5051919050565b6020808252602b908201527f496e697469616c697a61626c653a20636f6e7472616374206973206e6f74206960408201526a6e697469616c697a696e6760a81b606082015260800190565b60008251612047818460208701611d58565b9190910192915050565b602081526000611b0c6020830184611d7c56fe360894a13ba1a3210667c828492db98dca3e2076cc3735a920a3ca505d382bbc416464726573733a206c6f772d6c6576656c2064656c65676174652063616c6c206661696c6564a2646970667358221220b9313ca1ab41ee2875a546c56d18ddc1d77573ea8bf70eaf864b138aa43aeb7c64736f6c63430008110033",
  "linkReferences": {},
  "deployedLinkReferences": {}
}