{
  "_format": "hh-sol-artifact-1",
  "contractName": "VariablesUpgradeable",
  "sourceName": "contracts/VariablesUpgradeable.sol",
  "abi": [
    {
      "anonymous": false,
      "inputs": [
        {
          "indexed": false,
          "internalType": "address",
          "name": "previousAdmin",
          "type": "address"
        },
        {
          "indexed": false,
          "internalType": "address",
          "name": "newAdmin",
          "type": "address"
        }
      ],
      "name": "AdminChanged",
      "type": "event"
    },
    {
      "anonymous": false,
      "inputs": [
        {
          "indexed": true,
          "internalType": "address",
          "name": "beacon",
          "type": "address"
        }
      ],
      "name": "BeaconUpgraded",
      "type": "event"
    },
    {
      "anonymous": false,
      "inputs": [
        {
          "indexed": false,
          "internalType": "uint8",
          "name": "version",
          "type": "uint8"
        }
      ],
      "name": "Initialized",
      "type": "event"
    },
    {
      "anonymous": false,
      "inputs": [
        {
          "indexed": true,
          "internalType": "address",
          "name": "previousOwner",
          "type": "address"
        },
        {
          "indexed": true,
          "internalType": "address",
          "name": "newOwner",
          "type": "address"
        }
      ],
      "name": "OwnershipTransferred",
      "type": "event"
    },
    {
      "anonymous": false,
      "inputs": [
        {
          "indexed": true,
          "internalType": "address",
          "name": "implementation",
          "type": "address"
        }
      ],
      "name": "Upgraded",
      "type": "event"
    },
    {
      "inputs": [],
      "name": "adminFees",
      "outputs": [
        {
          "internalType": "uint256",
          "name": "",
          "type": "uint256"
        }
      ],
      "stateMutability": "view",
      "type": "function"
    },
    {
      "inputs": [],
      "name": "anusdContract",
      "outputs": [
        {
          "internalType": "address",
          "name": "",
          "type": "address"
        }
      ],
      "stateMutability": "view",
      "type": "function"
    },
    {
      "inputs": [],
      "name": "anusdContractInfo",
      "outputs": [
        {
          "internalType": "address",
          "name": "tokenAddress",
          "type": "address"
        },
        {
          "internalType": "string",
          "name": "name",
          "type": "string"
        },
        {
          "internalType": "string",
          "name": "symbol",
          "type": "string"
        },
        {
          "internalType": "uint256",
          "name": "decimals",
          "type": "uint256"
        }
      ],
      "stateMutability": "view",
      "type": "function"
    },
    {
      "inputs": [],
      "name": "initialize",
      "outputs": [],
      "stateMutability": "nonpayable",
      "type": "function"
    },
    {
      "inputs": [],
      "name": "owner",
      "outputs": [
        {
          "internalType": "address",
          "name": "",
          "type": "address"
        }
      ],
      "stateMutability": "view",
      "type": "function"
    },
    {
      "inputs": [],
      "name": "presaleContract",
      "outputs": [
        {
          "internalType": "address",
          "name": "",
          "type": "address"
        }
      ],
      "stateMutability": "view",
      "type": "function"
    },
    {
      "inputs": [],
      "name": "proxiableUUID",
      "outputs": [
        {
          "internalType": "bytes32",
          "name": "",
          "type": "bytes32"
        }
      ],
      "stateMutability": "view",
      "type": "function"
    },
    {
      "inputs": [],
      "name": "referralContract",
      "outputs": [
        {
          "internalType": "address",
          "name": "",
          "type": "address"
        }
      ],
      "stateMutability": "view",
      "type": "function"
    },
    {
      "inputs": [],
      "name": "renounceOwnership",
      "outputs": [],
      "stateMutability": "nonpayable",
      "type": "function"
    },
    {
      "inputs": [],
      "name": "rewardContract",
      "outputs": [
        {
          "internalType": "address",
          "name": "",
          "type": "address"
        }
      ],
      "stateMutability": "view",
      "type": "function"
    },
    {
      "inputs": [],
      "name": "rewardContractOwner",
      "outputs": [
        {
          "internalType": "address",
          "name": "",
          "type": "address"
        }
      ],
      "stateMutability": "view",
      "type": "function"
    },
    {
      "inputs": [
        {
          "internalType": "uint256",
          "name": "_valueInWei",
          "type": "uint256"
        }
      ],
      "name": "setAdminFees",
      "outputs": [],
      "stateMutability": "nonpayable",
      "type": "function"
    },
    {
      "inputs": [
        {
          "internalType": "address",
          "name": "_presale",
          "type": "address"
        },
        {
          "internalType": "address",
          "name": "_referral",
          "type": "address"
        },
        {
          "internalType": "address",
          "name": "_staking",
          "type": "address"
        },
        {
          "internalType": "address",
          "name": "_token",
          "type": "address"
        },
        {
          "internalType": "address",
          "name": "_anusd",
          "type": "address"
        },
        {
          "internalType": "address",
          "name": "_usdt",
          "type": "address"
        },
        {
          "internalType": "address",
          "name": "_reward",
          "type": "address"
        }
      ],
      "name": "setContractAddress",
      "outputs": [],
      "stateMutability": "nonpayable",
      "type": "function"
    },
    {
      "inputs": [],
      "name": "stakingContract",
      "outputs": [
        {
          "internalType": "address",
          "name": "",
          "type": "address"
        }
      ],
      "stateMutability": "view",
      "type": "function"
    },
    {
      "inputs": [],
      "name": "tokenContract",
      "outputs": [
        {
          "internalType": "address",
          "name": "",
          "type": "address"
        }
      ],
      "stateMutability": "view",
      "type": "function"
    },
    {
      "inputs": [],
      "name": "tokenContractInfo",
      "outputs": [
        {
          "internalType": "address",
          "name": "tokenAddress",
          "type": "address"
        },
        {
          "internalType": "string",
          "name": "name",
          "type": "string"
        },
        {
          "internalType": "string",
          "name": "symbol",
          "type": "string"
        },
        {
          "internalType": "uint256",
          "name": "decimals",
          "type": "uint256"
        }
      ],
      "stateMutability": "view",
      "type": "function"
    },
    {
      "inputs": [],
      "name": "tokenContractOwner",
      "outputs": [
        {
          "internalType": "address",
          "name": "",
          "type": "address"
        }
      ],
      "stateMutability": "view",
      "type": "function"
    },
    {
      "inputs": [
        {
          "internalType": "address",
          "name": "newOwner",
          "type": "address"
        }
      ],
      "name": "transferOwnership",
      "outputs": [],
      "stateMutability": "nonpayable",
      "type": "function"
    },
    {
      "inputs": [],
      "name": "uniswapV2RouterContract",
      "outputs": [
        {
          "internalType": "address",
          "name": "",
          "type": "address"
        }
      ],
      "stateMutability": "view",
      "type": "function"
    },
    {
      "inputs": [
        {
          "internalType": "address",
          "name": "newImplementation",
          "type": "address"
        }
      ],
      "name": "upgradeTo",
      "outputs": [],
      "stateMutability": "nonpayable",
      "type": "function"
    },
    {
      "inputs": [
        {
          "internalType": "address",
          "name": "newImplementation",
          "type": "address"
        },
        {
          "internalType": "bytes",
          "name": "data",
          "type": "bytes"
        }
      ],
      "name": "upgradeToAndCall",
      "outputs": [],
      "stateMutability": "payable",
      "type": "function"
    },
    {
      "inputs": [],
      "name": "usdtContract",
      "outputs": [
        {
          "internalType": "address",
          "name": "",
          "type": "address"
        }
      ],
      "stateMutability": "view",
      "type": "function"
    },
    {
      "inputs": [],
      "name": "variableContract",
      "outputs": [
        {
          "internalType": "address",
          "name": "",
          "type": "address"
        }
      ],
      "stateMutability": "view",
      "type": "function"
    }
  ],
  "bytecode": "0x60a06040523060805234801561001457600080fd5b5060805161160961004c6000396000818161053001528181610579015281816106180152818161065801526106eb01526116096000f3fe6080604052600436106101405760003560e01c80637dad19db116100b6578063b0616c181161006f578063b0616c1814610339578063b70cc4c114610359578063bf2f002e14610377578063ec31250f1461038c578063ee99205c146103aa578063f2fde38b146103c857600080fd5b80637dad19db146102925780638129fc1c146102b05780638290c4a6146102c5578063878e17df146102e35780638da5cb5b14610308578063a50b44bc1461032657600080fd5b806352d1902d1161010857806352d1902d146101f057806355a373d614610205578063611509231461022357806363d9df85146102415780636ea69d621461025f578063715018a61461027d57600080fd5b80630678cc10146101455780633659cfe61461016757806345746dd7146101875780634bc92d6c146101be5780634f1ef286146101dd575b600080fd5b34801561015157600080fd5b506101656101603660046111a1565b6103e8565b005b34801561017357600080fd5b50610165610182366004611227565b610526565b34801561019357600080fd5b5060d2546001600160a01b03165b6040516001600160a01b0390911681526020015b60405180910390f35b3480156101ca57600080fd5b5060d3545b6040519081526020016101b5565b6101656101eb3660046112b1565b61060e565b3480156101fc57600080fd5b506101cf6106de565b34801561021157600080fd5b5060cc546001600160a01b03166101a1565b34801561022f57600080fd5b5060ce546001600160a01b03166101a1565b34801561024d57600080fd5b5060c9546001600160a01b03166101a1565b34801561026b57600080fd5b5060cf546001600160a01b03166101a1565b34801561028957600080fd5b50610165610791565b34801561029e57600080fd5b5060ca546001600160a01b03166101a1565b3480156102bc57600080fd5b506101656107a5565b3480156102d157600080fd5b5060d0546001600160a01b03166101a1565b3480156102ef57600080fd5b506102f861094d565b6040516101b59493929190611392565b34801561031457600080fd5b506033546001600160a01b03166101a1565b34801561033257600080fd5b50306101a1565b34801561034557600080fd5b506101656103543660046113da565b610ac6565b34801561036557600080fd5b5060cd546001600160a01b03166101a1565b34801561038357600080fd5b506102f8610ad3565b34801561039857600080fd5b5060d1546001600160a01b03166101a1565b3480156103b657600080fd5b5060cb546001600160a01b03166101a1565b3480156103d457600080fd5b506101656103e3366004611227565b610c20565b6103f0610c96565b6001600160a01b0387161561041b5760c980546001600160a01b0319166001600160a01b0389161790555b6001600160a01b038616156104465760ca80546001600160a01b0319166001600160a01b0388161790555b6001600160a01b038516156104715760cb80546001600160a01b0319166001600160a01b0387161790555b6001600160a01b0384161561049c5760cc80546001600160a01b0319166001600160a01b0386161790555b6001600160a01b038316156104c75760cd80546001600160a01b0319166001600160a01b0385161790555b6001600160a01b038216156104f25760ce80546001600160a01b0319166001600160a01b0384161790555b6001600160a01b0381161561051d5760cf80546001600160a01b0319166001600160a01b0383161790555b50505050505050565b6001600160a01b037f00000000000000000000000000000000000000000000000000000000000000001630036105775760405162461bcd60e51b815260040161056e906113f3565b60405180910390fd5b7f00000000000000000000000000000000000000000000000000000000000000006001600160a01b03166105c060008051602061158d833981519152546001600160a01b031690565b6001600160a01b0316146105e65760405162461bcd60e51b815260040161056e9061143f565b6105ef81610cf0565b6040805160008082526020820190925261060b91839190610cf8565b50565b6001600160a01b037f00000000000000000000000000000000000000000000000000000000000000001630036106565760405162461bcd60e51b815260040161056e906113f3565b7f00000000000000000000000000000000000000000000000000000000000000006001600160a01b031661069f60008051602061158d833981519152546001600160a01b031690565b6001600160a01b0316146106c55760405162461bcd60e51b815260040161056e9061143f565b6106ce82610cf0565b6106da82826001610cf8565b5050565b6000306001600160a01b037f0000000000000000000000000000000000000000000000000000000000000000161461077e5760405162461bcd60e51b815260206004820152603860248201527f555550535570677261646561626c653a206d757374206e6f742062652063616c60448201527f6c6564207468726f7567682064656c656761746563616c6c0000000000000000606482015260840161056e565b5060008051602061158d83398151915290565b610799610c96565b6107a36000610e68565b565b600054610100900460ff16158080156107c55750600054600160ff909116105b806107df5750303b1580156107df575060005460ff166001145b6108425760405162461bcd60e51b815260206004820152602e60248201527f496e697469616c697a61626c653a20636f6e747261637420697320616c72656160448201526d191e481a5b9a5d1a585b1a5e995960921b606482015260840161056e565b6000805460ff191660011790558015610865576000805461ff0019166101001790555b60c980546001600160a01b0319908116730c750b915ef0112b204f0f7e6812be292b9936a21790915560cc805482167389c701dccc25e48566af89cac1e32706c5b5554617905560cd8054821673e6ffee89beb3bee2785ee88ded4da74f8a082a7817905560d0805490911673de2db97d54a3c3b008a097b2260633e6ca7db1af179055671bc16d674ec8000060d3556108fd610eba565b610905610ee9565b801561060b576000805461ff0019169055604051600181527f7f26b83ff96e1f2b6a682f133852f6798a09c465da95921460cefb38474024989060200160405180910390a150565b60cc54604080516306fdde0360e01b815290516001600160a01b0390921691606091829160009185916306fdde039160048082019286929091908290030181865afa1580156109a0573d6000803e3d6000fd5b505050506040513d6000823e601f3d908101601f191682016040526109c8919081019061148b565b925060cc60009054906101000a90046001600160a01b03166001600160a01b03166395d89b416040518163ffffffff1660e01b8152600401600060405180830381865afa158015610a1d573d6000803e3d6000fd5b505050506040513d6000823e601f3d908101601f19168201604052610a45919081019061148b565b915060cc60009054906101000a90046001600160a01b03166001600160a01b031663313ce5676040518163ffffffff1660e01b8152600401602060405180830381865afa158015610a9a573d6000803e3d6000fd5b505050506040513d601f19601f82011682018060405250810190610abe91906114f9565b905090919293565b610ace610c96565b60d355565b60cd54604080516306fdde0360e01b815290516001600160a01b0390921691606091829160009185916306fdde039160048082019286929091908290030181865afa158015610b26573d6000803e3d6000fd5b505050506040513d6000823e601f3d908101601f19168201604052610b4e919081019061148b565b925060cd60009054906101000a90046001600160a01b03166001600160a01b03166395d89b416040518163ffffffff1660e01b8152600401600060405180830381865afa158015610ba3573d6000803e3d6000fd5b505050506040513d6000823e601f3d908101601f19168201604052610bcb919081019061148b565b915060cd60009054906101000a90046001600160a01b03166001600160a01b031663313ce5676040518163ffffffff1660e01b8152600401602060405180830381865afa158015610a9a573d6000803e3d6000fd5b610c28610c96565b6001600160a01b038116610c8d5760405162461bcd60e51b815260206004820152602660248201527f4f776e61626c653a206e6577206f776e657220697320746865207a65726f206160448201526564647265737360d01b606482015260840161056e565b61060b81610e68565b6033546001600160a01b031633146107a35760405162461bcd60e51b815260206004820181905260248201527f4f776e61626c653a2063616c6c6572206973206e6f7420746865206f776e6572604482015260640161056e565b61060b610c96565b7f4910fdfa16fed3260ed0e7147f7cc6da11a60208b5b9406d12a635614ffd91435460ff1615610d3057610d2b83610f10565b505050565b826001600160a01b03166352d1902d6040518163ffffffff1660e01b8152600401602060405180830381865afa925050508015610d8a575060408051601f3d908101601f19168201909252610d87918101906114f9565b60015b610ded5760405162461bcd60e51b815260206004820152602e60248201527f45524331393637557067726164653a206e657720696d706c656d656e7461746960448201526d6f6e206973206e6f74205555505360901b606482015260840161056e565b60008051602061158d8339815191528114610e5c5760405162461bcd60e51b815260206004820152602960248201527f45524331393637557067726164653a20756e737570706f727465642070726f786044820152681a58589b195555525160ba1b606482015260840161056e565b50610d2b838383610fac565b603380546001600160a01b038381166001600160a01b0319831681179093556040519116919082907f8be0079c531659141344cd1fd0a4f28419497f9722a3daafe3b4186f6b6457e090600090a35050565b600054610100900460ff16610ee15760405162461bcd60e51b815260040161056e90611512565b6107a3610fd7565b600054610100900460ff166107a35760405162461bcd60e51b815260040161056e90611512565b6001600160a01b0381163b610f7d5760405162461bcd60e51b815260206004820152602d60248201527f455243313936373a206e657720696d706c656d656e746174696f6e206973206e60448201526c1bdd08184818dbdb9d1c9858dd609a1b606482015260840161056e565b60008051602061158d83398151915280546001600160a01b0319166001600160a01b0392909216919091179055565b610fb583611007565b600082511180610fc25750805b15610d2b57610fd18383611047565b50505050565b600054610100900460ff16610ffe5760405162461bcd60e51b815260040161056e90611512565b6107a333610e68565b61101081610f10565b6040516001600160a01b038216907fbc7cd75a20ee27fd9adebab32041f755214dbc6bffa90cc0225b39da2e5c2d3b90600090a250565b60606001600160a01b0383163b6110af5760405162461bcd60e51b815260206004820152602660248201527f416464726573733a2064656c65676174652063616c6c20746f206e6f6e2d636f6044820152651b9d1c9858dd60d21b606482015260840161056e565b600080846001600160a01b0316846040516110ca919061155d565b600060405180830381855af49150503d8060008114611105576040519150601f19603f3d011682016040523d82523d6000602084013e61110a565b606091505b509150915061113282826040518060600160405280602781526020016115ad6027913961113b565b95945050505050565b6060831561114a575081611154565b611154838361115b565b9392505050565b81511561116b5781518083602001fd5b8060405162461bcd60e51b815260040161056e9190611579565b80356001600160a01b038116811461119c57600080fd5b919050565b600080600080600080600060e0888a0312156111bc57600080fd5b6111c588611185565b96506111d360208901611185565b95506111e160408901611185565b94506111ef60608901611185565b93506111fd60808901611185565b925061120b60a08901611185565b915061121960c08901611185565b905092959891949750929550565b60006020828403121561123957600080fd5b61115482611185565b634e487b7160e01b600052604160045260246000fd5b604051601f8201601f1916810167ffffffffffffffff8111828210171561128157611281611242565b604052919050565b600067ffffffffffffffff8211156112a3576112a3611242565b50601f01601f191660200190565b600080604083850312156112c457600080fd5b6112cd83611185565b9150602083013567ffffffffffffffff8111156112e957600080fd5b8301601f810185136112fa57600080fd5b803561130d61130882611289565b611258565b81815286602083850101111561132257600080fd5b816020840160208301376000602083830101528093505050509250929050565b60005b8381101561135d578181015183820152602001611345565b50506000910152565b6000815180845261137e816020860160208601611342565b601f01601f19169290920160200192915050565b6001600160a01b03851681526080602082018190526000906113b690830186611366565b82810360408401526113c88186611366565b91505082606083015295945050505050565b6000602082840312156113ec57600080fd5b5035919050565b6020808252602c908201527f46756e6374696f6e206d7573742062652063616c6c6564207468726f7567682060408201526b19195b1959d85d1958d85b1b60a21b606082015260800190565b6020808252602c908201527f46756e6374696f6e206d7573742062652063616c6c6564207468726f7567682060408201526b6163746976652070726f787960a01b606082015260800190565b60006020828403121561149d57600080fd5b815167ffffffffffffffff8111156114b457600080fd5b8201601f810184136114c557600080fd5b80516114d361130882611289565b8181528560208385010111156114e857600080fd5b611132826020830160208601611342565b60006020828403121561150b57600080fd5b5051919050565b6020808252602b908201527f496e697469616c697a61626c653a20636f6e7472616374206973206e6f74206960408201526a6e697469616c697a696e6760a81b606082015260800190565b6000825161156f818460208701611342565b9190910192915050565b602081526000611154602083018461136656fe360894a13ba1a3210667c828492db98dca3e2076cc3735a920a3ca505d382bbc416464726573733a206c6f772d6c6576656c2064656c65676174652063616c6c206661696c6564a264697066735822122049ce04a5aa4a880c56c5cca5112690c60a172d4d5fc65f6ca4ac0d5fe1e27eb864736f6c63430008110033",
  "linkReferences": {},
  "deployedLinkReferences": {}
}