{
  "_format": "hh-sol-artifact-1",
  "contractName": "VariablesUpgradeable",
  "sourceName": "contracts/VariablesUpgradeable.sol",
  "abi": [
    {
      "anonymous": false,
      "inputs": [
        {
          "indexed": false,
          "internalType": "address",
          "name": "previousAdmin",
          "type": "address"
        },
        {
          "indexed": false,
          "internalType": "address",
          "name": "newAdmin",
          "type": "address"
        }
      ],
      "name": "AdminChanged",
      "type": "event"
    },
    {
      "anonymous": false,
      "inputs": [
        {
          "indexed": true,
          "internalType": "address",
          "name": "beacon",
          "type": "address"
        }
      ],
      "name": "BeaconUpgraded",
      "type": "event"
    },
    {
      "anonymous": false,
      "inputs": [
        {
          "indexed": false,
          "internalType": "uint8",
          "name": "version",
          "type": "uint8"
        }
      ],
      "name": "Initialized",
      "type": "event"
    },
    {
      "anonymous": false,
      "inputs": [
        {
          "indexed": true,
          "internalType": "address",
          "name": "previousOwner",
          "type": "address"
        },
        {
          "indexed": true,
          "internalType": "address",
          "name": "newOwner",
          "type": "address"
        }
      ],
      "name": "OwnershipTransferred",
      "type": "event"
    },
    {
      "anonymous": false,
      "inputs": [
        {
          "indexed": true,
          "internalType": "address",
          "name": "implementation",
          "type": "address"
        }
      ],
      "name": "Upgraded",
      "type": "event"
    },
    {
      "inputs": [],
      "name": "adminFees",
      "outputs": [
        {
          "internalType": "uint256",
          "name": "",
          "type": "uint256"
        }
      ],
      "stateMutability": "view",
      "type": "function"
    },
    {
      "inputs": [
        {
          "internalType": "uint256",
          "name": "",
          "type": "uint256"
        }
      ],
      "name": "adminsList",
      "outputs": [
        {
          "internalType": "address",
          "name": "",
          "type": "address"
        }
      ],
      "stateMutability": "view",
      "type": "function"
    },
    {
      "inputs": [],
      "name": "anusdContract",
      "outputs": [
        {
          "internalType": "address",
          "name": "",
          "type": "address"
        }
      ],
      "stateMutability": "view",
      "type": "function"
    },
    {
      "inputs": [],
      "name": "anusdContractInfo",
      "outputs": [
        {
          "internalType": "address",
          "name": "tokenAddress",
          "type": "address"
        },
        {
          "internalType": "string",
          "name": "name",
          "type": "string"
        },
        {
          "internalType": "string",
          "name": "symbol",
          "type": "string"
        },
        {
          "internalType": "uint256",
          "name": "decimals",
          "type": "uint256"
        }
      ],
      "stateMutability": "view",
      "type": "function"
    },
    {
      "inputs": [],
      "name": "getAdminsList",
      "outputs": [
        {
          "internalType": "address[]",
          "name": "",
          "type": "address[]"
        }
      ],
      "stateMutability": "view",
      "type": "function"
    },
    {
      "inputs": [],
      "name": "getMonthlyRewardsContract",
      "outputs": [
        {
          "internalType": "address",
          "name": "",
          "type": "address"
        }
      ],
      "stateMutability": "view",
      "type": "function"
    },
    {
      "inputs": [],
      "name": "initialize",
      "outputs": [],
      "stateMutability": "nonpayable",
      "type": "function"
    },
    {
      "inputs": [
        {
          "internalType": "address",
          "name": "_address",
          "type": "address"
        }
      ],
      "name": "isAdmin",
      "outputs": [
        {
          "internalType": "bool",
          "name": "",
          "type": "bool"
        }
      ],
      "stateMutability": "view",
      "type": "function"
    },
    {
      "inputs": [],
      "name": "owner",
      "outputs": [
        {
          "internalType": "address",
          "name": "",
          "type": "address"
        }
      ],
      "stateMutability": "view",
      "type": "function"
    },
    {
      "inputs": [],
      "name": "presaleContract",
      "outputs": [
        {
          "internalType": "address",
          "name": "",
          "type": "address"
        }
      ],
      "stateMutability": "view",
      "type": "function"
    },
    {
      "inputs": [],
      "name": "proxiableUUID",
      "outputs": [
        {
          "internalType": "bytes32",
          "name": "",
          "type": "bytes32"
        }
      ],
      "stateMutability": "view",
      "type": "function"
    },
    {
      "inputs": [],
      "name": "referralContract",
      "outputs": [
        {
          "internalType": "address",
          "name": "",
          "type": "address"
        }
      ],
      "stateMutability": "view",
      "type": "function"
    },
    {
      "inputs": [],
      "name": "renounceOwnership",
      "outputs": [],
      "stateMutability": "nonpayable",
      "type": "function"
    },
    {
      "inputs": [],
      "name": "rewardContract",
      "outputs": [
        {
          "internalType": "address",
          "name": "",
          "type": "address"
        }
      ],
      "stateMutability": "view",
      "type": "function"
    },
    {
      "inputs": [],
      "name": "rewardContractOwner",
      "outputs": [
        {
          "internalType": "address",
          "name": "",
          "type": "address"
        }
      ],
      "stateMutability": "view",
      "type": "function"
    },
    {
      "inputs": [
        {
          "internalType": "address",
          "name": "_address",
          "type": "address"
        },
        {
          "internalType": "bool",
          "name": "_status",
          "type": "bool"
        }
      ],
      "name": "setAdmin",
      "outputs": [],
      "stateMutability": "nonpayable",
      "type": "function"
    },
    {
      "inputs": [
        {
          "internalType": "uint256",
          "name": "_valueInWei",
          "type": "uint256"
        }
      ],
      "name": "setAdminFees",
      "outputs": [],
      "stateMutability": "nonpayable",
      "type": "function"
    },
    {
      "inputs": [
        {
          "internalType": "address",
          "name": "_presale",
          "type": "address"
        },
        {
          "internalType": "address",
          "name": "_referral",
          "type": "address"
        },
        {
          "internalType": "address",
          "name": "_staking",
          "type": "address"
        },
        {
          "internalType": "address",
          "name": "_token",
          "type": "address"
        },
        {
          "internalType": "address",
          "name": "_anusd",
          "type": "address"
        },
        {
          "internalType": "address",
          "name": "_usdt",
          "type": "address"
        },
        {
          "internalType": "address",
          "name": "_uniswapRouter",
          "type": "address"
        },
        {
          "internalType": "address",
          "name": "_reward",
          "type": "address"
        }
      ],
      "name": "setContractAddress",
      "outputs": [],
      "stateMutability": "nonpayable",
      "type": "function"
    },
    {
      "inputs": [
        {
          "internalType": "address",
          "name": "_contractAddress",
          "type": "address"
        }
      ],
      "name": "setMonthlyRewardsContract",
      "outputs": [],
      "stateMutability": "nonpayable",
      "type": "function"
    },
    {
      "inputs": [],
      "name": "stakingContract",
      "outputs": [
        {
          "internalType": "address",
          "name": "",
          "type": "address"
        }
      ],
      "stateMutability": "view",
      "type": "function"
    },
    {
      "inputs": [],
      "name": "tokenContract",
      "outputs": [
        {
          "internalType": "address",
          "name": "",
          "type": "address"
        }
      ],
      "stateMutability": "view",
      "type": "function"
    },
    {
      "inputs": [],
      "name": "tokenContractInfo",
      "outputs": [
        {
          "internalType": "address",
          "name": "tokenAddress",
          "type": "address"
        },
        {
          "internalType": "string",
          "name": "name",
          "type": "string"
        },
        {
          "internalType": "string",
          "name": "symbol",
          "type": "string"
        },
        {
          "internalType": "uint256",
          "name": "decimals",
          "type": "uint256"
        }
      ],
      "stateMutability": "view",
      "type": "function"
    },
    {
      "inputs": [],
      "name": "tokenContractOwner",
      "outputs": [
        {
          "internalType": "address",
          "name": "",
          "type": "address"
        }
      ],
      "stateMutability": "view",
      "type": "function"
    },
    {
      "inputs": [
        {
          "internalType": "address",
          "name": "newOwner",
          "type": "address"
        }
      ],
      "name": "transferOwnership",
      "outputs": [],
      "stateMutability": "nonpayable",
      "type": "function"
    },
    {
      "inputs": [],
      "name": "uniswapV2RouterContract",
      "outputs": [
        {
          "internalType": "address",
          "name": "",
          "type": "address"
        }
      ],
      "stateMutability": "view",
      "type": "function"
    },
    {
      "inputs": [
        {
          "internalType": "address",
          "name": "newImplementation",
          "type": "address"
        }
      ],
      "name": "upgradeTo",
      "outputs": [],
      "stateMutability": "nonpayable",
      "type": "function"
    },
    {
      "inputs": [
        {
          "internalType": "address",
          "name": "newImplementation",
          "type": "address"
        },
        {
          "internalType": "bytes",
          "name": "data",
          "type": "bytes"
        }
      ],
      "name": "upgradeToAndCall",
      "outputs": [],
      "stateMutability": "payable",
      "type": "function"
    },
    {
      "inputs": [],
      "name": "usdtContract",
      "outputs": [
        {
          "internalType": "address",
          "name": "",
          "type": "address"
        }
      ],
      "stateMutability": "view",
      "type": "function"
    },
    {
      "inputs": [],
      "name": "variableContract",
      "outputs": [
        {
          "internalType": "address",
          "name": "",
          "type": "address"
        }
      ],
      "stateMutability": "view",
      "type": "function"
    }
  ],
  "bytecode": "0x60a06040523060805234801561001457600080fd5b50608051611b2961004c6000396000818161072d015281816107760152818161099f015281816109df0152610a720152611b296000f3fe6080604052600436106101c25760003560e01c80637dad19db116100f7578063b0616c1811610095578063d809e1da11610064578063d809e1da146104db578063ec31250f146104fb578063ee99205c14610519578063f2fde38b1461053757600080fd5b8063b0616c181461046a578063b264bbab1461048a578063b70cc4c1146104a8578063bf2f002e146104c657600080fd5b8063878e17df116100d1578063878e17df146103f45780638da5cb5b14610419578063a470529414610437578063a50b44bc1461045757600080fd5b80637dad19db146103a35780638129fc1c146103c15780638290c4a6146103d657600080fd5b80634f1ef28611610164578063611509231161013e578063611509231461033457806363d9df85146103525780636ea69d6214610370578063715018a61461038e57600080fd5b80634f1ef286146102ee57806352d1902d1461030157806355a373d61461031657600080fd5b80633659cfe6116101a05780633659cfe61461025d57806345746dd71461027d5780634b0bddd2146102af5780634bc92d6c146102cf57600080fd5b806318180366146101c7578063211dd86a146101f257806324d7806c14610214575b600080fd5b3480156101d357600080fd5b506101dc610557565b6040516101e9919061159e565b60405180910390f35b3480156101fe57600080fd5b5061021261020d366004611607565b6105b9565b005b34801561022057600080fd5b5061024d61022f36600461169e565b6001600160a01b0316600090815260d4602052604090205460ff1690565b60405190151581526020016101e9565b34801561026957600080fd5b5061021261027836600461169e565b610723565b34801561028957600080fd5b5060d2546001600160a01b03165b6040516001600160a01b0390911681526020016101e9565b3480156102bb57600080fd5b506102126102ca3660046116b9565b61080b565b3480156102db57600080fd5b5060d3545b6040519081526020016101e9565b6102126102fc366004611764565b610995565b34801561030d57600080fd5b506102e0610a65565b34801561032257600080fd5b5060cc546001600160a01b0316610297565b34801561034057600080fd5b5060ce546001600160a01b0316610297565b34801561035e57600080fd5b5060c9546001600160a01b0316610297565b34801561037c57600080fd5b5060cf546001600160a01b0316610297565b34801561039a57600080fd5b50610212610b18565b3480156103af57600080fd5b5060ca546001600160a01b0316610297565b3480156103cd57600080fd5b50610212610b2c565b3480156103e257600080fd5b5060d0546001600160a01b0316610297565b34801561040057600080fd5b50610409610d10565b6040516101e99493929190611845565b34801561042557600080fd5b506033546001600160a01b0316610297565b34801561044357600080fd5b5061029761045236600461188d565b610e89565b34801561046357600080fd5b5030610297565b34801561047657600080fd5b5061021261048536600461188d565b610eb3565b34801561049657600080fd5b5060d5546001600160a01b0316610297565b3480156104b457600080fd5b5060cd546001600160a01b0316610297565b3480156104d257600080fd5b50610409610ec0565b3480156104e757600080fd5b506102126104f636600461169e565b61100d565b34801561050757600080fd5b5060d1546001600160a01b0316610297565b34801561052557600080fd5b5060cb546001600160a01b0316610297565b34801561054357600080fd5b5061021261055236600461169e565b611037565b606060d68054806020026020016040519081016040528092919081815260200182805480156105af57602002820191906000526020600020905b81546001600160a01b03168152600190910190602001808311610591575b5050505050905090565b6105c16110ad565b6001600160a01b038816156105ec5760c980546001600160a01b0319166001600160a01b038a161790555b6001600160a01b038716156106175760ca80546001600160a01b0319166001600160a01b0389161790555b6001600160a01b038616156106425760cb80546001600160a01b0319166001600160a01b0388161790555b6001600160a01b0385161561066d5760cc80546001600160a01b0319166001600160a01b0387161790555b6001600160a01b038416156106985760cd80546001600160a01b0319166001600160a01b0386161790555b6001600160a01b038316156106c35760ce80546001600160a01b0319166001600160a01b0385161790555b6001600160a01b038216156106ee5760d080546001600160a01b0319166001600160a01b0384161790555b6001600160a01b038116156107195760cf80546001600160a01b0319166001600160a01b0383161790555b5050505050505050565b6001600160a01b037f00000000000000000000000000000000000000000000000000000000000000001630036107745760405162461bcd60e51b815260040161076b906118a6565b60405180910390fd5b7f00000000000000000000000000000000000000000000000000000000000000006001600160a01b03166107bd600080516020611aad833981519152546001600160a01b031690565b6001600160a01b0316146107e35760405162461bcd60e51b815260040161076b906118f2565b6107ec81611107565b604080516000808252602082019092526108089183919061110f565b50565b6108136110ad565b6001600160a01b038216600090815260d460209081526040808320805460ff191685151517905560d68054825181850281018501909352808352919290919083018282801561088b57602002820191906000526020600020905b81546001600160a01b0316815260019091019060200180831161086d575b505060d6549394506000925050505b8160ff168160ff16101561098e57846001600160a01b0316838260ff16815181106108c7576108c761193e565b60200260200101516001600160a01b0316031561098e576108e960018361196a565b60ff168160ff1614801561092b5750846001600160a01b0316838260ff16815181106109175761091761193e565b60200260200101516001600160a01b031614155b1561097c5760d680546001810182556000919091527fe767803f8ecf1dee6bb0345811f7312cda556058b19db6389ad9ae3568643ddd0180546001600160a01b0319166001600160a01b0387161790555b8061098681611983565b91505061089a565b5050505050565b6001600160a01b037f00000000000000000000000000000000000000000000000000000000000000001630036109dd5760405162461bcd60e51b815260040161076b906118a6565b7f00000000000000000000000000000000000000000000000000000000000000006001600160a01b0316610a26600080516020611aad833981519152546001600160a01b031690565b6001600160a01b031614610a4c5760405162461bcd60e51b815260040161076b906118f2565b610a5582611107565b610a618282600161110f565b5050565b6000306001600160a01b037f00000000000000000000000000000000000000000000000000000000000000001614610b055760405162461bcd60e51b815260206004820152603860248201527f555550535570677261646561626c653a206d757374206e6f742062652063616c60448201527f6c6564207468726f7567682064656c656761746563616c6c0000000000000000606482015260840161076b565b50600080516020611aad83398151915290565b610b206110ad565b610b2a600061127f565b565b600054610100900460ff1615808015610b4c5750600054600160ff909116105b80610b665750303b158015610b66575060005460ff166001145b610bc95760405162461bcd60e51b815260206004820152602e60248201527f496e697469616c697a61626c653a20636f6e747261637420697320616c72656160448201526d191e481a5b9a5d1a585b1a5e995960921b606482015260840161076b565b6000805460ff191660011790558015610bec576000805461ff0019166101001790555b60c980546001600160a01b0319908116735e8f3980e638fc5df657e33194ce428936d635a01790915560ca805482167358469d0d27aae15cf611966b89e072e49d35909717905560cb8054821673b361d6d49694161c413e60e140309f20af19cefd17905560cc8054821673da0948903d239fb9ea25b73b573800630f86352017905560cd8054821673e7377ede6e9ab141807959c80e2a1a3795d1917317905560d0805490911673de2db97d54a3c3b008a097b2260633e6ca7db1af179055671bc16d674ec8000060d355610cc06112d1565b610cc8611300565b8015610808576000805461ff0019169055604051600181527f7f26b83ff96e1f2b6a682f133852f6798a09c465da95921460cefb38474024989060200160405180910390a150565b60cc54604080516306fdde0360e01b815290516001600160a01b0390921691606091829160009185916306fdde039160048082019286929091908290030181865afa158015610d63573d6000803e3d6000fd5b505050506040513d6000823e601f3d908101601f19168201604052610d8b91908101906119a2565b925060cc60009054906101000a90046001600160a01b03166001600160a01b03166395d89b416040518163ffffffff1660e01b8152600401600060405180830381865afa158015610de0573d6000803e3d6000fd5b505050506040513d6000823e601f3d908101601f19168201604052610e0891908101906119a2565b915060cc60009054906101000a90046001600160a01b03166001600160a01b031663313ce5676040518163ffffffff1660e01b8152600401602060405180830381865afa158015610e5d573d6000803e3d6000fd5b505050506040513d601f19601f82011682018060405250810190610e819190611a19565b905090919293565b60d68181548110610e9957600080fd5b6000918252602090912001546001600160a01b0316905081565b610ebb6110ad565b60d355565b60cd54604080516306fdde0360e01b815290516001600160a01b0390921691606091829160009185916306fdde039160048082019286929091908290030181865afa158015610f13573d6000803e3d6000fd5b505050506040513d6000823e601f3d908101601f19168201604052610f3b91908101906119a2565b925060cd60009054906101000a90046001600160a01b03166001600160a01b03166395d89b416040518163ffffffff1660e01b8152600401600060405180830381865afa158015610f90573d6000803e3d6000fd5b505050506040513d6000823e601f3d908101601f19168201604052610fb891908101906119a2565b915060cd60009054906101000a90046001600160a01b03166001600160a01b031663313ce5676040518163ffffffff1660e01b8152600401602060405180830381865afa158015610e5d573d6000803e3d6000fd5b6110156110ad565b60d580546001600160a01b0319166001600160a01b0392909216919091179055565b61103f6110ad565b6001600160a01b0381166110a45760405162461bcd60e51b815260206004820152602660248201527f4f776e61626c653a206e6577206f776e657220697320746865207a65726f206160448201526564647265737360d01b606482015260840161076b565b6108088161127f565b6033546001600160a01b03163314610b2a5760405162461bcd60e51b815260206004820181905260248201527f4f776e61626c653a2063616c6c6572206973206e6f7420746865206f776e6572604482015260640161076b565b6108086110ad565b7f4910fdfa16fed3260ed0e7147f7cc6da11a60208b5b9406d12a635614ffd91435460ff16156111475761114283611327565b505050565b826001600160a01b03166352d1902d6040518163ffffffff1660e01b8152600401602060405180830381865afa9250505080156111a1575060408051601f3d908101601f1916820190925261119e91810190611a19565b60015b6112045760405162461bcd60e51b815260206004820152602e60248201527f45524331393637557067726164653a206e657720696d706c656d656e7461746960448201526d6f6e206973206e6f74205555505360901b606482015260840161076b565b600080516020611aad83398151915281146112735760405162461bcd60e51b815260206004820152602960248201527f45524331393637557067726164653a20756e737570706f727465642070726f786044820152681a58589b195555525160ba1b606482015260840161076b565b506111428383836113c3565b603380546001600160a01b038381166001600160a01b0319831681179093556040519116919082907f8be0079c531659141344cd1fd0a4f28419497f9722a3daafe3b4186f6b6457e090600090a35050565b600054610100900460ff166112f85760405162461bcd60e51b815260040161076b90611a32565b610b2a6113ee565b600054610100900460ff16610b2a5760405162461bcd60e51b815260040161076b90611a32565b6001600160a01b0381163b6113945760405162461bcd60e51b815260206004820152602d60248201527f455243313936373a206e657720696d706c656d656e746174696f6e206973206e60448201526c1bdd08184818dbdb9d1c9858dd609a1b606482015260840161076b565b600080516020611aad83398151915280546001600160a01b0319166001600160a01b0392909216919091179055565b6113cc8361141e565b6000825111806113d95750805b15611142576113e8838361145e565b50505050565b600054610100900460ff166114155760405162461bcd60e51b815260040161076b90611a32565b610b2a3361127f565b61142781611327565b6040516001600160a01b038216907fbc7cd75a20ee27fd9adebab32041f755214dbc6bffa90cc0225b39da2e5c2d3b90600090a250565b60606001600160a01b0383163b6114c65760405162461bcd60e51b815260206004820152602660248201527f416464726573733a2064656c65676174652063616c6c20746f206e6f6e2d636f6044820152651b9d1c9858dd60d21b606482015260840161076b565b600080846001600160a01b0316846040516114e19190611a7d565b600060405180830381855af49150503d806000811461151c576040519150601f19603f3d011682016040523d82523d6000602084013e611521565b606091505b50915091506115498282604051806060016040528060278152602001611acd60279139611554565b925050505b92915050565b6060831561156357508161156d565b61156d8383611574565b9392505050565b8151156115845781518083602001fd5b8060405162461bcd60e51b815260040161076b9190611a99565b6020808252825182820181905260009190848201906040850190845b818110156115df5783516001600160a01b0316835292840192918401916001016115ba565b50909695505050505050565b80356001600160a01b038116811461160257600080fd5b919050565b600080600080600080600080610100898b03121561162457600080fd5b61162d896115eb565b975061163b60208a016115eb565b965061164960408a016115eb565b955061165760608a016115eb565b945061166560808a016115eb565b935061167360a08a016115eb565b925061168160c08a016115eb565b915061168f60e08a016115eb565b90509295985092959890939650565b6000602082840312156116b057600080fd5b61156d826115eb565b600080604083850312156116cc57600080fd5b6116d5836115eb565b9150602083013580151581146116ea57600080fd5b809150509250929050565b634e487b7160e01b600052604160045260246000fd5b604051601f8201601f1916810167ffffffffffffffff81118282101715611734576117346116f5565b604052919050565b600067ffffffffffffffff821115611756576117566116f5565b50601f01601f191660200190565b6000806040838503121561177757600080fd5b611780836115eb565b9150602083013567ffffffffffffffff81111561179c57600080fd5b8301601f810185136117ad57600080fd5b80356117c06117bb8261173c565b61170b565b8181528660208385010111156117d557600080fd5b816020840160208301376000602083830101528093505050509250929050565b60005b838110156118105781810151838201526020016117f8565b50506000910152565b600081518084526118318160208601602086016117f5565b601f01601f19169290920160200192915050565b6001600160a01b038516815260806020820181905260009061186990830186611819565b828103604084015261187b8186611819565b91505082606083015295945050505050565b60006020828403121561189f57600080fd5b5035919050565b6020808252602c908201527f46756e6374696f6e206d7573742062652063616c6c6564207468726f7567682060408201526b19195b1959d85d1958d85b1b60a21b606082015260800190565b6020808252602c908201527f46756e6374696f6e206d7573742062652063616c6c6564207468726f7567682060408201526b6163746976652070726f787960a01b606082015260800190565b634e487b7160e01b600052603260045260246000fd5b634e487b7160e01b600052601160045260246000fd5b60ff828116828216039081111561154e5761154e611954565b600060ff821660ff810361199957611999611954565b60010192915050565b6000602082840312156119b457600080fd5b815167ffffffffffffffff8111156119cb57600080fd5b8201601f810184136119dc57600080fd5b80516119ea6117bb8261173c565b8181528560208385010111156119ff57600080fd5b611a108260208301602086016117f5565b95945050505050565b600060208284031215611a2b57600080fd5b5051919050565b6020808252602b908201527f496e697469616c697a61626c653a20636f6e7472616374206973206e6f74206960408201526a6e697469616c697a696e6760a81b606082015260800190565b60008251611a8f8184602087016117f5565b9190910192915050565b60208152600061156d602083018461181956fe360894a13ba1a3210667c828492db98dca3e2076cc3735a920a3ca505d382bbc416464726573733a206c6f772d6c6576656c2064656c65676174652063616c6c206661696c6564a264697066735822122078c4f3a18d572c925292bcacaf0f2c5b33a911cefdc4fd60c4e98e19d209d2c864736f6c63430008110033",
  "linkReferences": {},
  "deployedLinkReferences": {}
}