{
  "_format": "hh-sol-artifact-1",
  "contractName": "VariablesUpgradeable",
  "sourceName": "contracts/VariablesUpgradeable.sol",
  "abi": [
    {
      "anonymous": false,
      "inputs": [
        {
          "indexed": false,
          "internalType": "address",
          "name": "previousAdmin",
          "type": "address"
        },
        {
          "indexed": false,
          "internalType": "address",
          "name": "newAdmin",
          "type": "address"
        }
      ],
      "name": "AdminChanged",
      "type": "event"
    },
    {
      "anonymous": false,
      "inputs": [
        {
          "indexed": true,
          "internalType": "address",
          "name": "beacon",
          "type": "address"
        }
      ],
      "name": "BeaconUpgraded",
      "type": "event"
    },
    {
      "anonymous": false,
      "inputs": [
        {
          "indexed": false,
          "internalType": "uint8",
          "name": "version",
          "type": "uint8"
        }
      ],
      "name": "Initialized",
      "type": "event"
    },
    {
      "anonymous": false,
      "inputs": [
        {
          "indexed": true,
          "internalType": "address",
          "name": "previousOwner",
          "type": "address"
        },
        {
          "indexed": true,
          "internalType": "address",
          "name": "newOwner",
          "type": "address"
        }
      ],
      "name": "OwnershipTransferred",
      "type": "event"
    },
    {
      "anonymous": false,
      "inputs": [
        {
          "indexed": true,
          "internalType": "address",
          "name": "implementation",
          "type": "address"
        }
      ],
      "name": "Upgraded",
      "type": "event"
    },
    {
      "inputs": [
        {
          "internalType": "address",
          "name": "_address",
          "type": "address"
        }
      ],
      "name": "addAdmin",
      "outputs": [],
      "stateMutability": "nonpayable",
      "type": "function"
    },
    {
      "inputs": [],
      "name": "adminFees",
      "outputs": [
        {
          "internalType": "uint256",
          "name": "",
          "type": "uint256"
        }
      ],
      "stateMutability": "view",
      "type": "function"
    },
    {
      "inputs": [
        {
          "internalType": "uint256",
          "name": "",
          "type": "uint256"
        }
      ],
      "name": "adminsList",
      "outputs": [
        {
          "internalType": "address",
          "name": "",
          "type": "address"
        }
      ],
      "stateMutability": "view",
      "type": "function"
    },
    {
      "inputs": [],
      "name": "anusdContract",
      "outputs": [
        {
          "internalType": "address",
          "name": "",
          "type": "address"
        }
      ],
      "stateMutability": "view",
      "type": "function"
    },
    {
      "inputs": [],
      "name": "anusdContractInfo",
      "outputs": [
        {
          "internalType": "address",
          "name": "tokenAddress",
          "type": "address"
        },
        {
          "internalType": "string",
          "name": "name",
          "type": "string"
        },
        {
          "internalType": "string",
          "name": "symbol",
          "type": "string"
        },
        {
          "internalType": "uint256",
          "name": "decimals",
          "type": "uint256"
        }
      ],
      "stateMutability": "view",
      "type": "function"
    },
    {
      "inputs": [],
      "name": "getAdminsList",
      "outputs": [
        {
          "internalType": "address[]",
          "name": "",
          "type": "address[]"
        }
      ],
      "stateMutability": "view",
      "type": "function"
    },
    {
      "inputs": [],
      "name": "getMonthlyRewardsContract",
      "outputs": [
        {
          "internalType": "address",
          "name": "",
          "type": "address"
        }
      ],
      "stateMutability": "view",
      "type": "function"
    },
    {
      "inputs": [],
      "name": "initialize",
      "outputs": [],
      "stateMutability": "nonpayable",
      "type": "function"
    },
    {
      "inputs": [
        {
          "internalType": "address",
          "name": "_address",
          "type": "address"
        }
      ],
      "name": "isAdmin",
      "outputs": [
        {
          "internalType": "bool",
          "name": "",
          "type": "bool"
        }
      ],
      "stateMutability": "view",
      "type": "function"
    },
    {
      "inputs": [],
      "name": "owner",
      "outputs": [
        {
          "internalType": "address",
          "name": "",
          "type": "address"
        }
      ],
      "stateMutability": "view",
      "type": "function"
    },
    {
      "inputs": [],
      "name": "presaleContract",
      "outputs": [
        {
          "internalType": "address",
          "name": "",
          "type": "address"
        }
      ],
      "stateMutability": "view",
      "type": "function"
    },
    {
      "inputs": [],
      "name": "proxiableUUID",
      "outputs": [
        {
          "internalType": "bytes32",
          "name": "",
          "type": "bytes32"
        }
      ],
      "stateMutability": "view",
      "type": "function"
    },
    {
      "inputs": [],
      "name": "referralContract",
      "outputs": [
        {
          "internalType": "address",
          "name": "",
          "type": "address"
        }
      ],
      "stateMutability": "view",
      "type": "function"
    },
    {
      "inputs": [
        {
          "internalType": "address",
          "name": "_address",
          "type": "address"
        }
      ],
      "name": "removeAdmin",
      "outputs": [],
      "stateMutability": "nonpayable",
      "type": "function"
    },
    {
      "inputs": [],
      "name": "renounceOwnership",
      "outputs": [],
      "stateMutability": "nonpayable",
      "type": "function"
    },
    {
      "inputs": [],
      "name": "rewardContract",
      "outputs": [
        {
          "internalType": "address",
          "name": "",
          "type": "address"
        }
      ],
      "stateMutability": "view",
      "type": "function"
    },
    {
      "inputs": [],
      "name": "rewardContractOwner",
      "outputs": [
        {
          "internalType": "address",
          "name": "",
          "type": "address"
        }
      ],
      "stateMutability": "view",
      "type": "function"
    },
    {
      "inputs": [
        {
          "internalType": "uint256",
          "name": "_valueInWei",
          "type": "uint256"
        }
      ],
      "name": "setAdminFees",
      "outputs": [],
      "stateMutability": "nonpayable",
      "type": "function"
    },
    {
      "inputs": [
        {
          "internalType": "address",
          "name": "_presale",
          "type": "address"
        },
        {
          "internalType": "address",
          "name": "_referral",
          "type": "address"
        },
        {
          "internalType": "address",
          "name": "_staking",
          "type": "address"
        },
        {
          "internalType": "address",
          "name": "_token",
          "type": "address"
        },
        {
          "internalType": "address",
          "name": "_anusd",
          "type": "address"
        },
        {
          "internalType": "address",
          "name": "_usdt",
          "type": "address"
        },
        {
          "internalType": "address",
          "name": "_uniswapRouter",
          "type": "address"
        },
        {
          "internalType": "address",
          "name": "_reward",
          "type": "address"
        }
      ],
      "name": "setContractAddress",
      "outputs": [],
      "stateMutability": "nonpayable",
      "type": "function"
    },
    {
      "inputs": [
        {
          "internalType": "address",
          "name": "_contractAddress",
          "type": "address"
        }
      ],
      "name": "setMonthlyRewardsContract",
      "outputs": [],
      "stateMutability": "nonpayable",
      "type": "function"
    },
    {
      "inputs": [],
      "name": "stakingContract",
      "outputs": [
        {
          "internalType": "address",
          "name": "",
          "type": "address"
        }
      ],
      "stateMutability": "view",
      "type": "function"
    },
    {
      "inputs": [],
      "name": "tokenContract",
      "outputs": [
        {
          "internalType": "address",
          "name": "",
          "type": "address"
        }
      ],
      "stateMutability": "view",
      "type": "function"
    },
    {
      "inputs": [],
      "name": "tokenContractInfo",
      "outputs": [
        {
          "internalType": "address",
          "name": "tokenAddress",
          "type": "address"
        },
        {
          "internalType": "string",
          "name": "name",
          "type": "string"
        },
        {
          "internalType": "string",
          "name": "symbol",
          "type": "string"
        },
        {
          "internalType": "uint256",
          "name": "decimals",
          "type": "uint256"
        }
      ],
      "stateMutability": "view",
      "type": "function"
    },
    {
      "inputs": [],
      "name": "tokenContractOwner",
      "outputs": [
        {
          "internalType": "address",
          "name": "",
          "type": "address"
        }
      ],
      "stateMutability": "view",
      "type": "function"
    },
    {
      "inputs": [
        {
          "internalType": "address",
          "name": "newOwner",
          "type": "address"
        }
      ],
      "name": "transferOwnership",
      "outputs": [],
      "stateMutability": "nonpayable",
      "type": "function"
    },
    {
      "inputs": [],
      "name": "uniswapV2RouterContract",
      "outputs": [
        {
          "internalType": "address",
          "name": "",
          "type": "address"
        }
      ],
      "stateMutability": "view",
      "type": "function"
    },
    {
      "inputs": [
        {
          "internalType": "address",
          "name": "newImplementation",
          "type": "address"
        }
      ],
      "name": "upgradeTo",
      "outputs": [],
      "stateMutability": "nonpayable",
      "type": "function"
    },
    {
      "inputs": [
        {
          "internalType": "address",
          "name": "newImplementation",
          "type": "address"
        },
        {
          "internalType": "bytes",
          "name": "data",
          "type": "bytes"
        }
      ],
      "name": "upgradeToAndCall",
      "outputs": [],
      "stateMutability": "payable",
      "type": "function"
    },
    {
      "inputs": [],
      "name": "usdtContract",
      "outputs": [
        {
          "internalType": "address",
          "name": "",
          "type": "address"
        }
      ],
      "stateMutability": "view",
      "type": "function"
    },
    {
      "inputs": [],
      "name": "variableContract",
      "outputs": [
        {
          "internalType": "address",
          "name": "",
          "type": "address"
        }
      ],
      "stateMutability": "view",
      "type": "function"
    }
  ],
  "bytecode": "0x60a06040523060805234801561001457600080fd5b50608051611ce961004c6000396000818161097e015281816109be01528181610a5d01528181610a9d0152610b300152611ce96000f3fe6080604052600436106101cd5760003560e01c80637dad19db116100f7578063b0616c1811610095578063d809e1da11610064578063d809e1da14610506578063ec31250f14610526578063ee99205c14610544578063f2fde38b1461056257600080fd5b8063b0616c1814610495578063b264bbab146104b5578063b70cc4c1146104d3578063bf2f002e146104f157600080fd5b8063878e17df116100d1578063878e17df1461041f5780638da5cb5b14610444578063a470529414610462578063a50b44bc1461048257600080fd5b80637dad19db146103ce5780638129fc1c146103ec5780638290c4a61461040157600080fd5b80634f1ef2861161016f57806363d9df851161013e57806363d9df851461035d5780636ea69d621461037b5780637048027514610399578063715018a6146103b957600080fd5b80634f1ef286146102f957806352d1902d1461030c57806355a373d614610321578063611509231461033f57600080fd5b806324d7806c116101ab57806324d7806c1461023f5780633659cfe61461028857806345746dd7146102a85780634bc92d6c146102da57600080fd5b80631785f53c146101d257806318180366146101f4578063211dd86a1461021f575b600080fd5b3480156101de57600080fd5b506101f26101ed3660046117ac565b610582565b005b34801561020057600080fd5b506102096107a8565b60405161021691906117c7565b60405180910390f35b34801561022b57600080fd5b506101f261023a366004611814565b61080a565b34801561024b57600080fd5b5061027861025a3660046117ac565b6001600160a01b0316600090815260d4602052604090205460ff1690565b6040519015158152602001610216565b34801561029457600080fd5b506101f26102a33660046117ac565b610974565b3480156102b457600080fd5b5060d2546001600160a01b03165b6040516001600160a01b039091168152602001610216565b3480156102e657600080fd5b5060d3545b604051908152602001610216565b6101f261030736600461191a565b610a53565b34801561031857600080fd5b506102eb610b23565b34801561032d57600080fd5b5060cc546001600160a01b03166102c2565b34801561034b57600080fd5b5060ce546001600160a01b03166102c2565b34801561036957600080fd5b5060c9546001600160a01b03166102c2565b34801561038757600080fd5b5060cf546001600160a01b03166102c2565b3480156103a557600080fd5b506101f26103b43660046117ac565b610bd6565b3480156103c557600080fd5b506101f2610d0f565b3480156103da57600080fd5b5060ca546001600160a01b03166102c2565b3480156103f857600080fd5b506101f2610d23565b34801561040d57600080fd5b5060d0546001600160a01b03166102c2565b34801561042b57600080fd5b50610434610f07565b60405161021694939291906119fb565b34801561045057600080fd5b506033546001600160a01b03166102c2565b34801561046e57600080fd5b506102c261047d366004611a43565b611080565b34801561048e57600080fd5b50306102c2565b3480156104a157600080fd5b506101f26104b0366004611a43565b6110aa565b3480156104c157600080fd5b5060d5546001600160a01b03166102c2565b3480156104df57600080fd5b5060cd546001600160a01b03166102c2565b3480156104fd57600080fd5b506104346110b7565b34801561051257600080fd5b506101f26105213660046117ac565b611204565b34801561053257600080fd5b5060d1546001600160a01b03166102c2565b34801561055057600080fd5b5060cb546001600160a01b03166102c2565b34801561056e57600080fd5b506101f261057d3660046117ac565b61122e565b33600090815260d4602052604090205460ff16806105aa57506033546001600160a01b031633145b61060f5760405162461bcd60e51b815260206004820152602b60248201527f4f6e6c792041646d696e206f72206f776e65722063616e2063616c6c2074686960448201526a3990333ab731ba34b7b71760a91b60648201526084015b60405180910390fd5b6001600160a01b038116600090815260d4602052604090205460ff1661066f5760405162461bcd60e51b815260206004820152601560248201527420b2323932b9b99034b9903737ba1030b236b4b71760591b6044820152606401610606565b6001600160a01b038116600090815260d460205260408120805460ff1916905560d654905b8160ff168110156107a3576001600160a01b038316600090815260d4602052604090205460ff161561076e5760d680546106d090600190611a72565b815481106106e0576106e0611a85565b60009182526020909120015460d680546001600160a01b03909216918390811061070c5761070c611a85565b9060005260206000200160006101000a8154816001600160a01b0302191690836001600160a01b0316021790555060d680548061074b5761074b611a9b565b600082815260209020810160001990810180546001600160a01b03191690550190555b60d65460ff831611801561078f575060d65461078c90600190611a72565b81145b6107a35761079c81611ab1565b9050610694565b505050565b606060d680548060200260200160405190810160405280929190818152602001828054801561080057602002820191906000526020600020905b81546001600160a01b031681526001909101906020018083116107e2575b5050505050905090565b6108126112a4565b6001600160a01b0388161561083d5760c980546001600160a01b0319166001600160a01b038a161790555b6001600160a01b038716156108685760ca80546001600160a01b0319166001600160a01b0389161790555b6001600160a01b038616156108935760cb80546001600160a01b0319166001600160a01b0388161790555b6001600160a01b038516156108be5760cc80546001600160a01b0319166001600160a01b0387161790555b6001600160a01b038416156108e95760cd80546001600160a01b0319166001600160a01b0386161790555b6001600160a01b038316156109145760ce80546001600160a01b0319166001600160a01b0385161790555b6001600160a01b0382161561093f5760d080546001600160a01b0319166001600160a01b0384161790555b6001600160a01b0381161561096a5760cf80546001600160a01b0319166001600160a01b0383161790555b5050505050505050565b6001600160a01b037f00000000000000000000000000000000000000000000000000000000000000001630036109bc5760405162461bcd60e51b815260040161060690611aca565b7f00000000000000000000000000000000000000000000000000000000000000006001600160a01b0316610a05600080516020611c6d833981519152546001600160a01b031690565b6001600160a01b031614610a2b5760405162461bcd60e51b815260040161060690611b16565b610a34816112fe565b60408051600080825260208201909252610a5091839190611306565b50565b6001600160a01b037f0000000000000000000000000000000000000000000000000000000000000000163003610a9b5760405162461bcd60e51b815260040161060690611aca565b7f00000000000000000000000000000000000000000000000000000000000000006001600160a01b0316610ae4600080516020611c6d833981519152546001600160a01b031690565b6001600160a01b031614610b0a5760405162461bcd60e51b815260040161060690611b16565b610b13826112fe565b610b1f82826001611306565b5050565b6000306001600160a01b037f00000000000000000000000000000000000000000000000000000000000000001614610bc35760405162461bcd60e51b815260206004820152603860248201527f555550535570677261646561626c653a206d757374206e6f742062652063616c60448201527f6c6564207468726f7567682064656c656761746563616c6c00000000000000006064820152608401610606565b50600080516020611c6d83398151915290565b33600090815260d4602052604090205460ff16610c405760405162461bcd60e51b815260206004820152602260248201527f4f6e6c792041646d696e2063616e2063616c6c20746869732066756e6374696f604482015261371760f11b6064820152608401610606565b6001600160a01b038116600090815260d4602052604090205460ff1615610ca95760405162461bcd60e51b815260206004820152601960248201527f4164647265737320697320616c72656164792061646d696e2e000000000000006044820152606401610606565b6001600160a01b0316600081815260d460205260408120805460ff1916600190811790915560d6805491820181559091527fe767803f8ecf1dee6bb0345811f7312cda556058b19db6389ad9ae3568643ddd0180546001600160a01b0319169091179055565b610d176112a4565b610d216000611471565b565b600054610100900460ff1615808015610d435750600054600160ff909116105b80610d5d5750303b158015610d5d575060005460ff166001145b610dc05760405162461bcd60e51b815260206004820152602e60248201527f496e697469616c697a61626c653a20636f6e747261637420697320616c72656160448201526d191e481a5b9a5d1a585b1a5e995960921b6064820152608401610606565b6000805460ff191660011790558015610de3576000805461ff0019166101001790555b60c980546001600160a01b0319908116735e8f3980e638fc5df657e33194ce428936d635a01790915560ca805482167358469d0d27aae15cf611966b89e072e49d35909717905560cb8054821673b361d6d49694161c413e60e140309f20af19cefd17905560cc8054821673da0948903d239fb9ea25b73b573800630f86352017905560cd8054821673e7377ede6e9ab141807959c80e2a1a3795d1917317905560d0805490911673de2db97d54a3c3b008a097b2260633e6ca7db1af179055671bc16d674ec8000060d355610eb76114c3565b610ebf6114f2565b8015610a50576000805461ff0019169055604051600181527f7f26b83ff96e1f2b6a682f133852f6798a09c465da95921460cefb38474024989060200160405180910390a150565b60cc54604080516306fdde0360e01b815290516001600160a01b0390921691606091829160009185916306fdde039160048082019286929091908290030181865afa158015610f5a573d6000803e3d6000fd5b505050506040513d6000823e601f3d908101601f19168201604052610f829190810190611b62565b925060cc60009054906101000a90046001600160a01b03166001600160a01b03166395d89b416040518163ffffffff1660e01b8152600401600060405180830381865afa158015610fd7573d6000803e3d6000fd5b505050506040513d6000823e601f3d908101601f19168201604052610fff9190810190611b62565b915060cc60009054906101000a90046001600160a01b03166001600160a01b031663313ce5676040518163ffffffff1660e01b8152600401602060405180830381865afa158015611054573d6000803e3d6000fd5b505050506040513d601f19601f820116820180604052508101906110789190611bd9565b905090919293565b60d6818154811061109057600080fd5b6000918252602090912001546001600160a01b0316905081565b6110b26112a4565b60d355565b60cd54604080516306fdde0360e01b815290516001600160a01b0390921691606091829160009185916306fdde039160048082019286929091908290030181865afa15801561110a573d6000803e3d6000fd5b505050506040513d6000823e601f3d908101601f191682016040526111329190810190611b62565b925060cd60009054906101000a90046001600160a01b03166001600160a01b03166395d89b416040518163ffffffff1660e01b8152600401600060405180830381865afa158015611187573d6000803e3d6000fd5b505050506040513d6000823e601f3d908101601f191682016040526111af9190810190611b62565b915060cd60009054906101000a90046001600160a01b03166001600160a01b031663313ce5676040518163ffffffff1660e01b8152600401602060405180830381865afa158015611054573d6000803e3d6000fd5b61120c6112a4565b60d580546001600160a01b0319166001600160a01b0392909216919091179055565b6112366112a4565b6001600160a01b03811661129b5760405162461bcd60e51b815260206004820152602660248201527f4f776e61626c653a206e6577206f776e657220697320746865207a65726f206160448201526564647265737360d01b6064820152608401610606565b610a5081611471565b6033546001600160a01b03163314610d215760405162461bcd60e51b815260206004820181905260248201527f4f776e61626c653a2063616c6c6572206973206e6f7420746865206f776e65726044820152606401610606565b610a506112a4565b7f4910fdfa16fed3260ed0e7147f7cc6da11a60208b5b9406d12a635614ffd91435460ff1615611339576107a383611519565b826001600160a01b03166352d1902d6040518163ffffffff1660e01b8152600401602060405180830381865afa925050508015611393575060408051601f3d908101601f1916820190925261139091810190611bd9565b60015b6113f65760405162461bcd60e51b815260206004820152602e60248201527f45524331393637557067726164653a206e657720696d706c656d656e7461746960448201526d6f6e206973206e6f74205555505360901b6064820152608401610606565b600080516020611c6d83398151915281146114655760405162461bcd60e51b815260206004820152602960248201527f45524331393637557067726164653a20756e737570706f727465642070726f786044820152681a58589b195555525160ba1b6064820152608401610606565b506107a38383836115b5565b603380546001600160a01b038381166001600160a01b0319831681179093556040519116919082907f8be0079c531659141344cd1fd0a4f28419497f9722a3daafe3b4186f6b6457e090600090a35050565b600054610100900460ff166114ea5760405162461bcd60e51b815260040161060690611bf2565b610d216115e0565b600054610100900460ff16610d215760405162461bcd60e51b815260040161060690611bf2565b6001600160a01b0381163b6115865760405162461bcd60e51b815260206004820152602d60248201527f455243313936373a206e657720696d706c656d656e746174696f6e206973206e60448201526c1bdd08184818dbdb9d1c9858dd609a1b6064820152608401610606565b600080516020611c6d83398151915280546001600160a01b0319166001600160a01b0392909216919091179055565b6115be83611610565b6000825111806115cb5750805b156107a3576115da8383611650565b50505050565b600054610100900460ff166116075760405162461bcd60e51b815260040161060690611bf2565b610d2133611471565b61161981611519565b6040516001600160a01b038216907fbc7cd75a20ee27fd9adebab32041f755214dbc6bffa90cc0225b39da2e5c2d3b90600090a250565b60606001600160a01b0383163b6116b85760405162461bcd60e51b815260206004820152602660248201527f416464726573733a2064656c65676174652063616c6c20746f206e6f6e2d636f6044820152651b9d1c9858dd60d21b6064820152608401610606565b600080846001600160a01b0316846040516116d39190611c3d565b600060405180830381855af49150503d806000811461170e576040519150601f19603f3d011682016040523d82523d6000602084013e611713565b606091505b509150915061173b8282604051806060016040528060278152602001611c8d60279139611746565b925050505b92915050565b6060831561175557508161175f565b61175f8383611766565b9392505050565b8151156117765781518083602001fd5b8060405162461bcd60e51b81526004016106069190611c59565b80356001600160a01b03811681146117a757600080fd5b919050565b6000602082840312156117be57600080fd5b61175f82611790565b6020808252825182820181905260009190848201906040850190845b818110156118085783516001600160a01b0316835292840192918401916001016117e3565b50909695505050505050565b600080600080600080600080610100898b03121561183157600080fd5b61183a89611790565b975061184860208a01611790565b965061185660408a01611790565b955061186460608a01611790565b945061187260808a01611790565b935061188060a08a01611790565b925061188e60c08a01611790565b915061189c60e08a01611790565b90509295985092959890939650565b634e487b7160e01b600052604160045260246000fd5b604051601f8201601f1916810167ffffffffffffffff811182821017156118ea576118ea6118ab565b604052919050565b600067ffffffffffffffff82111561190c5761190c6118ab565b50601f01601f191660200190565b6000806040838503121561192d57600080fd5b61193683611790565b9150602083013567ffffffffffffffff81111561195257600080fd5b8301601f8101851361196357600080fd5b8035611976611971826118f2565b6118c1565b81815286602083850101111561198b57600080fd5b816020840160208301376000602083830101528093505050509250929050565b60005b838110156119c65781810151838201526020016119ae565b50506000910152565b600081518084526119e78160208601602086016119ab565b601f01601f19169290920160200192915050565b6001600160a01b0385168152608060208201819052600090611a1f908301866119cf565b8281036040840152611a3181866119cf565b91505082606083015295945050505050565b600060208284031215611a5557600080fd5b5035919050565b634e487b7160e01b600052601160045260246000fd5b8181038181111561174057611740611a5c565b634e487b7160e01b600052603260045260246000fd5b634e487b7160e01b600052603160045260246000fd5b600060018201611ac357611ac3611a5c565b5060010190565b6020808252602c908201527f46756e6374696f6e206d7573742062652063616c6c6564207468726f7567682060408201526b19195b1959d85d1958d85b1b60a21b606082015260800190565b6020808252602c908201527f46756e6374696f6e206d7573742062652063616c6c6564207468726f7567682060408201526b6163746976652070726f787960a01b606082015260800190565b600060208284031215611b7457600080fd5b815167ffffffffffffffff811115611b8b57600080fd5b8201601f81018413611b9c57600080fd5b8051611baa611971826118f2565b818152856020838501011115611bbf57600080fd5b611bd08260208301602086016119ab565b95945050505050565b600060208284031215611beb57600080fd5b5051919050565b6020808252602b908201527f496e697469616c697a61626c653a20636f6e7472616374206973206e6f74206960408201526a6e697469616c697a696e6760a81b606082015260800190565b60008251611c4f8184602087016119ab565b9190910192915050565b60208152600061175f60208301846119cf56fe360894a13ba1a3210667c828492db98dca3e2076cc3735a920a3ca505d382bbc416464726573733a206c6f772d6c6576656c2064656c65676174652063616c6c206661696c6564a26469706673582212209aa87e7cf106a30f09a61bc0a477241bd801bc70435dcab625dda94aa00e1d5c64736f6c63430008110033",
  "linkReferences": {},
  "deployedLinkReferences": {}
}