{
  "_format": "hh-sol-artifact-1",
  "contractName": "VariablesUpgradeable",
  "sourceName": "contracts/VariablesUpgradeable.sol",
  "abi": [
    {
      "anonymous": false,
      "inputs": [
        {
          "indexed": false,
          "internalType": "address",
          "name": "previousAdmin",
          "type": "address"
        },
        {
          "indexed": false,
          "internalType": "address",
          "name": "newAdmin",
          "type": "address"
        }
      ],
      "name": "AdminChanged",
      "type": "event"
    },
    {
      "anonymous": false,
      "inputs": [
        {
          "indexed": true,
          "internalType": "address",
          "name": "beacon",
          "type": "address"
        }
      ],
      "name": "BeaconUpgraded",
      "type": "event"
    },
    {
      "anonymous": false,
      "inputs": [
        {
          "indexed": false,
          "internalType": "uint8",
          "name": "version",
          "type": "uint8"
        }
      ],
      "name": "Initialized",
      "type": "event"
    },
    {
      "anonymous": false,
      "inputs": [
        {
          "indexed": true,
          "internalType": "address",
          "name": "previousOwner",
          "type": "address"
        },
        {
          "indexed": true,
          "internalType": "address",
          "name": "newOwner",
          "type": "address"
        }
      ],
      "name": "OwnershipTransferred",
      "type": "event"
    },
    {
      "anonymous": false,
      "inputs": [
        {
          "indexed": true,
          "internalType": "address",
          "name": "implementation",
          "type": "address"
        }
      ],
      "name": "Upgraded",
      "type": "event"
    },
    {
      "inputs": [],
      "name": "adminFees",
      "outputs": [
        {
          "internalType": "uint256",
          "name": "",
          "type": "uint256"
        }
      ],
      "stateMutability": "view",
      "type": "function"
    },
    {
      "inputs": [],
      "name": "anusdContract",
      "outputs": [
        {
          "internalType": "address",
          "name": "",
          "type": "address"
        }
      ],
      "stateMutability": "view",
      "type": "function"
    },
    {
      "inputs": [],
      "name": "anusdContractInfo",
      "outputs": [
        {
          "internalType": "address",
          "name": "tokenAddress",
          "type": "address"
        },
        {
          "internalType": "string",
          "name": "name",
          "type": "string"
        },
        {
          "internalType": "string",
          "name": "symbol",
          "type": "string"
        },
        {
          "internalType": "uint256",
          "name": "decimals",
          "type": "uint256"
        }
      ],
      "stateMutability": "view",
      "type": "function"
    },
    {
      "inputs": [],
      "name": "getMonthlyRewardsContract",
      "outputs": [
        {
          "internalType": "address",
          "name": "",
          "type": "address"
        }
      ],
      "stateMutability": "view",
      "type": "function"
    },
    {
      "inputs": [],
      "name": "initialize",
      "outputs": [],
      "stateMutability": "nonpayable",
      "type": "function"
    },
    {
      "inputs": [
        {
          "internalType": "address",
          "name": "_address",
          "type": "address"
        }
      ],
      "name": "isAdmin",
      "outputs": [
        {
          "internalType": "bool",
          "name": "",
          "type": "bool"
        }
      ],
      "stateMutability": "view",
      "type": "function"
    },
    {
      "inputs": [],
      "name": "owner",
      "outputs": [
        {
          "internalType": "address",
          "name": "",
          "type": "address"
        }
      ],
      "stateMutability": "view",
      "type": "function"
    },
    {
      "inputs": [],
      "name": "presaleContract",
      "outputs": [
        {
          "internalType": "address",
          "name": "",
          "type": "address"
        }
      ],
      "stateMutability": "view",
      "type": "function"
    },
    {
      "inputs": [],
      "name": "proxiableUUID",
      "outputs": [
        {
          "internalType": "bytes32",
          "name": "",
          "type": "bytes32"
        }
      ],
      "stateMutability": "view",
      "type": "function"
    },
    {
      "inputs": [],
      "name": "referralContract",
      "outputs": [
        {
          "internalType": "address",
          "name": "",
          "type": "address"
        }
      ],
      "stateMutability": "view",
      "type": "function"
    },
    {
      "inputs": [],
      "name": "renounceOwnership",
      "outputs": [],
      "stateMutability": "nonpayable",
      "type": "function"
    },
    {
      "inputs": [],
      "name": "rewardContract",
      "outputs": [
        {
          "internalType": "address",
          "name": "",
          "type": "address"
        }
      ],
      "stateMutability": "view",
      "type": "function"
    },
    {
      "inputs": [],
      "name": "rewardContractOwner",
      "outputs": [
        {
          "internalType": "address",
          "name": "",
          "type": "address"
        }
      ],
      "stateMutability": "view",
      "type": "function"
    },
    {
      "inputs": [
        {
          "internalType": "address",
          "name": "_address",
          "type": "address"
        },
        {
          "internalType": "bool",
          "name": "_status",
          "type": "bool"
        }
      ],
      "name": "setAdmin",
      "outputs": [],
      "stateMutability": "nonpayable",
      "type": "function"
    },
    {
      "inputs": [
        {
          "internalType": "uint256",
          "name": "_valueInWei",
          "type": "uint256"
        }
      ],
      "name": "setAdminFees",
      "outputs": [],
      "stateMutability": "nonpayable",
      "type": "function"
    },
    {
      "inputs": [
        {
          "internalType": "address",
          "name": "_presale",
          "type": "address"
        },
        {
          "internalType": "address",
          "name": "_referral",
          "type": "address"
        },
        {
          "internalType": "address",
          "name": "_staking",
          "type": "address"
        },
        {
          "internalType": "address",
          "name": "_token",
          "type": "address"
        },
        {
          "internalType": "address",
          "name": "_anusd",
          "type": "address"
        },
        {
          "internalType": "address",
          "name": "_usdt",
          "type": "address"
        },
        {
          "internalType": "address",
          "name": "_uniswapRouter",
          "type": "address"
        },
        {
          "internalType": "address",
          "name": "_reward",
          "type": "address"
        }
      ],
      "name": "setContractAddress",
      "outputs": [],
      "stateMutability": "nonpayable",
      "type": "function"
    },
    {
      "inputs": [
        {
          "internalType": "address",
          "name": "_contractAddress",
          "type": "address"
        }
      ],
      "name": "setMonthlyRewardsContract",
      "outputs": [],
      "stateMutability": "nonpayable",
      "type": "function"
    },
    {
      "inputs": [],
      "name": "stakingContract",
      "outputs": [
        {
          "internalType": "address",
          "name": "",
          "type": "address"
        }
      ],
      "stateMutability": "view",
      "type": "function"
    },
    {
      "inputs": [],
      "name": "tokenContract",
      "outputs": [
        {
          "internalType": "address",
          "name": "",
          "type": "address"
        }
      ],
      "stateMutability": "view",
      "type": "function"
    },
    {
      "inputs": [],
      "name": "tokenContractInfo",
      "outputs": [
        {
          "internalType": "address",
          "name": "tokenAddress",
          "type": "address"
        },
        {
          "internalType": "string",
          "name": "name",
          "type": "string"
        },
        {
          "internalType": "string",
          "name": "symbol",
          "type": "string"
        },
        {
          "internalType": "uint256",
          "name": "decimals",
          "type": "uint256"
        }
      ],
      "stateMutability": "view",
      "type": "function"
    },
    {
      "inputs": [],
      "name": "tokenContractOwner",
      "outputs": [
        {
          "internalType": "address",
          "name": "",
          "type": "address"
        }
      ],
      "stateMutability": "view",
      "type": "function"
    },
    {
      "inputs": [
        {
          "internalType": "address",
          "name": "newOwner",
          "type": "address"
        }
      ],
      "name": "transferOwnership",
      "outputs": [],
      "stateMutability": "nonpayable",
      "type": "function"
    },
    {
      "inputs": [],
      "name": "uniswapV2RouterContract",
      "outputs": [
        {
          "internalType": "address",
          "name": "",
          "type": "address"
        }
      ],
      "stateMutability": "view",
      "type": "function"
    },
    {
      "inputs": [
        {
          "internalType": "address",
          "name": "newImplementation",
          "type": "address"
        }
      ],
      "name": "upgradeTo",
      "outputs": [],
      "stateMutability": "nonpayable",
      "type": "function"
    },
    {
      "inputs": [
        {
          "internalType": "address",
          "name": "newImplementation",
          "type": "address"
        },
        {
          "internalType": "bytes",
          "name": "data",
          "type": "bytes"
        }
      ],
      "name": "upgradeToAndCall",
      "outputs": [],
      "stateMutability": "payable",
      "type": "function"
    },
    {
      "inputs": [],
      "name": "usdtContract",
      "outputs": [
        {
          "internalType": "address",
          "name": "",
          "type": "address"
        }
      ],
      "stateMutability": "view",
      "type": "function"
    },
    {
      "inputs": [],
      "name": "variableContract",
      "outputs": [
        {
          "internalType": "address",
          "name": "",
          "type": "address"
        }
      ],
      "stateMutability": "view",
      "type": "function"
    }
  ],
  "bytecode": "0x60a06040523060805234801561001457600080fd5b5060805161181e61004c6000396000818161065f015281816106a80152818161077a015281816107ba015261084d015261181e6000f3fe60806040526004361061019c5760003560e01c80637dad19db116100ec578063b264bbab1161008a578063d809e1da11610064578063d809e1da1461046f578063ec31250f1461048f578063ee99205c146104ad578063f2fde38b146104cb57600080fd5b8063b264bbab1461041e578063b70cc4c11461043c578063bf2f002e1461045a57600080fd5b8063878e17df116100c6578063878e17df146103a85780638da5cb5b146103cd578063a50b44bc146103eb578063b0616c18146103fe57600080fd5b80637dad19db146103575780638129fc1c146103755780638290c4a61461038a57600080fd5b80634f1ef28611610159578063611509231161013357806361150923146102e857806363d9df85146103065780636ea69d6214610324578063715018a61461034257600080fd5b80634f1ef286146102a257806352d1902d146102b557806355a373d6146102ca57600080fd5b8063211dd86a146101a157806324d7806c146101c35780633659cfe61461021157806345746dd7146102315780634b0bddd2146102635780634bc92d6c14610283575b600080fd5b3480156101ad57600080fd5b506101c16101bc366004611369565b6104eb565b005b3480156101cf57600080fd5b506101fc6101de366004611400565b6001600160a01b0316600090815260d4602052604090205460ff1690565b60405190151581526020015b60405180910390f35b34801561021d57600080fd5b506101c161022c366004611400565b610655565b34801561023d57600080fd5b5060d2546001600160a01b03165b6040516001600160a01b039091168152602001610208565b34801561026f57600080fd5b506101c161027e36600461141b565b61073d565b34801561028f57600080fd5b5060d3545b604051908152602001610208565b6101c16102b03660046114c6565b610770565b3480156102c157600080fd5b50610294610840565b3480156102d657600080fd5b5060cc546001600160a01b031661024b565b3480156102f457600080fd5b5060ce546001600160a01b031661024b565b34801561031257600080fd5b5060c9546001600160a01b031661024b565b34801561033057600080fd5b5060cf546001600160a01b031661024b565b34801561034e57600080fd5b506101c16108f3565b34801561036357600080fd5b5060ca546001600160a01b031661024b565b34801561038157600080fd5b506101c1610907565b34801561039657600080fd5b5060d0546001600160a01b031661024b565b3480156103b457600080fd5b506103bd610aeb565b60405161020894939291906115a7565b3480156103d957600080fd5b506033546001600160a01b031661024b565b3480156103f757600080fd5b503061024b565b34801561040a57600080fd5b506101c16104193660046115ef565b610c64565b34801561042a57600080fd5b5060d5546001600160a01b031661024b565b34801561044857600080fd5b5060cd546001600160a01b031661024b565b34801561046657600080fd5b506103bd610c71565b34801561047b57600080fd5b506101c161048a366004611400565b610dbe565b34801561049b57600080fd5b5060d1546001600160a01b031661024b565b3480156104b957600080fd5b5060cb546001600160a01b031661024b565b3480156104d757600080fd5b506101c16104e6366004611400565b610de8565b6104f3610e5e565b6001600160a01b0388161561051e5760c980546001600160a01b0319166001600160a01b038a161790555b6001600160a01b038716156105495760ca80546001600160a01b0319166001600160a01b0389161790555b6001600160a01b038616156105745760cb80546001600160a01b0319166001600160a01b0388161790555b6001600160a01b0385161561059f5760cc80546001600160a01b0319166001600160a01b0387161790555b6001600160a01b038416156105ca5760cd80546001600160a01b0319166001600160a01b0386161790555b6001600160a01b038316156105f55760ce80546001600160a01b0319166001600160a01b0385161790555b6001600160a01b038216156106205760d080546001600160a01b0319166001600160a01b0384161790555b6001600160a01b0381161561064b5760cf80546001600160a01b0319166001600160a01b0383161790555b5050505050505050565b6001600160a01b037f00000000000000000000000000000000000000000000000000000000000000001630036106a65760405162461bcd60e51b815260040161069d90611608565b60405180910390fd5b7f00000000000000000000000000000000000000000000000000000000000000006001600160a01b03166106ef6000805160206117a2833981519152546001600160a01b031690565b6001600160a01b0316146107155760405162461bcd60e51b815260040161069d90611654565b61071e81610eb8565b6040805160008082526020820190925261073a91839190610ec0565b50565b610745610e5e565b6001600160a01b0391909116600090815260d460205260409020805460ff1916911515919091179055565b6001600160a01b037f00000000000000000000000000000000000000000000000000000000000000001630036107b85760405162461bcd60e51b815260040161069d90611608565b7f00000000000000000000000000000000000000000000000000000000000000006001600160a01b03166108016000805160206117a2833981519152546001600160a01b031690565b6001600160a01b0316146108275760405162461bcd60e51b815260040161069d90611654565b61083082610eb8565b61083c82826001610ec0565b5050565b6000306001600160a01b037f000000000000000000000000000000000000000000000000000000000000000016146108e05760405162461bcd60e51b815260206004820152603860248201527f555550535570677261646561626c653a206d757374206e6f742062652063616c60448201527f6c6564207468726f7567682064656c656761746563616c6c0000000000000000606482015260840161069d565b506000805160206117a283398151915290565b6108fb610e5e565b6109056000611030565b565b600054610100900460ff16158080156109275750600054600160ff909116105b806109415750303b158015610941575060005460ff166001145b6109a45760405162461bcd60e51b815260206004820152602e60248201527f496e697469616c697a61626c653a20636f6e747261637420697320616c72656160448201526d191e481a5b9a5d1a585b1a5e995960921b606482015260840161069d565b6000805460ff1916600117905580156109c7576000805461ff0019166101001790555b60c980546001600160a01b0319908116735e8f3980e638fc5df657e33194ce428936d635a01790915560ca805482167358469d0d27aae15cf611966b89e072e49d35909717905560cb8054821673b361d6d49694161c413e60e140309f20af19cefd17905560cc8054821673da0948903d239fb9ea25b73b573800630f86352017905560cd8054821673e7377ede6e9ab141807959c80e2a1a3795d1917317905560d0805490911673de2db97d54a3c3b008a097b2260633e6ca7db1af179055671bc16d674ec8000060d355610a9b611082565b610aa36110b1565b801561073a576000805461ff0019169055604051600181527f7f26b83ff96e1f2b6a682f133852f6798a09c465da95921460cefb38474024989060200160405180910390a150565b60cc54604080516306fdde0360e01b815290516001600160a01b0390921691606091829160009185916306fdde039160048082019286929091908290030181865afa158015610b3e573d6000803e3d6000fd5b505050506040513d6000823e601f3d908101601f19168201604052610b6691908101906116a0565b925060cc60009054906101000a90046001600160a01b03166001600160a01b03166395d89b416040518163ffffffff1660e01b8152600401600060405180830381865afa158015610bbb573d6000803e3d6000fd5b505050506040513d6000823e601f3d908101601f19168201604052610be391908101906116a0565b915060cc60009054906101000a90046001600160a01b03166001600160a01b031663313ce5676040518163ffffffff1660e01b8152600401602060405180830381865afa158015610c38573d6000803e3d6000fd5b505050506040513d601f19601f82011682018060405250810190610c5c919061170e565b905090919293565b610c6c610e5e565b60d355565b60cd54604080516306fdde0360e01b815290516001600160a01b0390921691606091829160009185916306fdde039160048082019286929091908290030181865afa158015610cc4573d6000803e3d6000fd5b505050506040513d6000823e601f3d908101601f19168201604052610cec91908101906116a0565b925060cd60009054906101000a90046001600160a01b03166001600160a01b03166395d89b416040518163ffffffff1660e01b8152600401600060405180830381865afa158015610d41573d6000803e3d6000fd5b505050506040513d6000823e601f3d908101601f19168201604052610d6991908101906116a0565b915060cd60009054906101000a90046001600160a01b03166001600160a01b031663313ce5676040518163ffffffff1660e01b8152600401602060405180830381865afa158015610c38573d6000803e3d6000fd5b610dc6610e5e565b60d580546001600160a01b0319166001600160a01b0392909216919091179055565b610df0610e5e565b6001600160a01b038116610e555760405162461bcd60e51b815260206004820152602660248201527f4f776e61626c653a206e6577206f776e657220697320746865207a65726f206160448201526564647265737360d01b606482015260840161069d565b61073a81611030565b6033546001600160a01b031633146109055760405162461bcd60e51b815260206004820181905260248201527f4f776e61626c653a2063616c6c6572206973206e6f7420746865206f776e6572604482015260640161069d565b61073a610e5e565b7f4910fdfa16fed3260ed0e7147f7cc6da11a60208b5b9406d12a635614ffd91435460ff1615610ef857610ef3836110d8565b505050565b826001600160a01b03166352d1902d6040518163ffffffff1660e01b8152600401602060405180830381865afa925050508015610f52575060408051601f3d908101601f19168201909252610f4f9181019061170e565b60015b610fb55760405162461bcd60e51b815260206004820152602e60248201527f45524331393637557067726164653a206e657720696d706c656d656e7461746960448201526d6f6e206973206e6f74205555505360901b606482015260840161069d565b6000805160206117a283398151915281146110245760405162461bcd60e51b815260206004820152602960248201527f45524331393637557067726164653a20756e737570706f727465642070726f786044820152681a58589b195555525160ba1b606482015260840161069d565b50610ef3838383611174565b603380546001600160a01b038381166001600160a01b0319831681179093556040519116919082907f8be0079c531659141344cd1fd0a4f28419497f9722a3daafe3b4186f6b6457e090600090a35050565b600054610100900460ff166110a95760405162461bcd60e51b815260040161069d90611727565b61090561119f565b600054610100900460ff166109055760405162461bcd60e51b815260040161069d90611727565b6001600160a01b0381163b6111455760405162461bcd60e51b815260206004820152602d60248201527f455243313936373a206e657720696d706c656d656e746174696f6e206973206e60448201526c1bdd08184818dbdb9d1c9858dd609a1b606482015260840161069d565b6000805160206117a283398151915280546001600160a01b0319166001600160a01b0392909216919091179055565b61117d836111cf565b60008251118061118a5750805b15610ef357611199838361120f565b50505050565b600054610100900460ff166111c65760405162461bcd60e51b815260040161069d90611727565b61090533611030565b6111d8816110d8565b6040516001600160a01b038216907fbc7cd75a20ee27fd9adebab32041f755214dbc6bffa90cc0225b39da2e5c2d3b90600090a250565b60606001600160a01b0383163b6112775760405162461bcd60e51b815260206004820152602660248201527f416464726573733a2064656c65676174652063616c6c20746f206e6f6e2d636f6044820152651b9d1c9858dd60d21b606482015260840161069d565b600080846001600160a01b0316846040516112929190611772565b600060405180830381855af49150503d80600081146112cd576040519150601f19603f3d011682016040523d82523d6000602084013e6112d2565b606091505b50915091506112fa82826040518060600160405280602781526020016117c260279139611303565b95945050505050565b6060831561131257508161131c565b61131c8383611323565b9392505050565b8151156113335781518083602001fd5b8060405162461bcd60e51b815260040161069d919061178e565b80356001600160a01b038116811461136457600080fd5b919050565b600080600080600080600080610100898b03121561138657600080fd5b61138f8961134d565b975061139d60208a0161134d565b96506113ab60408a0161134d565b95506113b960608a0161134d565b94506113c760808a0161134d565b93506113d560a08a0161134d565b92506113e360c08a0161134d565b91506113f160e08a0161134d565b90509295985092959890939650565b60006020828403121561141257600080fd5b61131c8261134d565b6000806040838503121561142e57600080fd5b6114378361134d565b91506020830135801515811461144c57600080fd5b809150509250929050565b634e487b7160e01b600052604160045260246000fd5b604051601f8201601f1916810167ffffffffffffffff8111828210171561149657611496611457565b604052919050565b600067ffffffffffffffff8211156114b8576114b8611457565b50601f01601f191660200190565b600080604083850312156114d957600080fd5b6114e28361134d565b9150602083013567ffffffffffffffff8111156114fe57600080fd5b8301601f8101851361150f57600080fd5b803561152261151d8261149e565b61146d565b81815286602083850101111561153757600080fd5b816020840160208301376000602083830101528093505050509250929050565b60005b8381101561157257818101518382015260200161155a565b50506000910152565b60008151808452611593816020860160208601611557565b601f01601f19169290920160200192915050565b6001600160a01b03851681526080602082018190526000906115cb9083018661157b565b82810360408401526115dd818661157b565b91505082606083015295945050505050565b60006020828403121561160157600080fd5b5035919050565b6020808252602c908201527f46756e6374696f6e206d7573742062652063616c6c6564207468726f7567682060408201526b19195b1959d85d1958d85b1b60a21b606082015260800190565b6020808252602c908201527f46756e6374696f6e206d7573742062652063616c6c6564207468726f7567682060408201526b6163746976652070726f787960a01b606082015260800190565b6000602082840312156116b257600080fd5b815167ffffffffffffffff8111156116c957600080fd5b8201601f810184136116da57600080fd5b80516116e861151d8261149e565b8181528560208385010111156116fd57600080fd5b6112fa826020830160208601611557565b60006020828403121561172057600080fd5b5051919050565b6020808252602b908201527f496e697469616c697a61626c653a20636f6e7472616374206973206e6f74206960408201526a6e697469616c697a696e6760a81b606082015260800190565b60008251611784818460208701611557565b9190910192915050565b60208152600061131c602083018461157b56fe360894a13ba1a3210667c828492db98dca3e2076cc3735a920a3ca505d382bbc416464726573733a206c6f772d6c6576656c2064656c65676174652063616c6c206661696c6564a2646970667358221220fec34ef7e81774bc2fbef9a620e2d16d3b3d58b81b194878c7a004776cdad6d164736f6c63430008110033",
  "linkReferences": {},
  "deployedLinkReferences": {}
}