{
  "_format": "hh-sol-artifact-1",
  "contractName": "VariablesUpgradeable",
  "sourceName": "contracts/VariablesUpgradeable.sol",
  "abi": [
    {
      "anonymous": false,
      "inputs": [
        {
          "indexed": false,
          "internalType": "address",
          "name": "previousAdmin",
          "type": "address"
        },
        {
          "indexed": false,
          "internalType": "address",
          "name": "newAdmin",
          "type": "address"
        }
      ],
      "name": "AdminChanged",
      "type": "event"
    },
    {
      "anonymous": false,
      "inputs": [
        {
          "indexed": true,
          "internalType": "address",
          "name": "beacon",
          "type": "address"
        }
      ],
      "name": "BeaconUpgraded",
      "type": "event"
    },
    {
      "anonymous": false,
      "inputs": [
        {
          "indexed": false,
          "internalType": "uint8",
          "name": "version",
          "type": "uint8"
        }
      ],
      "name": "Initialized",
      "type": "event"
    },
    {
      "anonymous": false,
      "inputs": [
        {
          "indexed": true,
          "internalType": "address",
          "name": "previousOwner",
          "type": "address"
        },
        {
          "indexed": true,
          "internalType": "address",
          "name": "newOwner",
          "type": "address"
        }
      ],
      "name": "OwnershipTransferred",
      "type": "event"
    },
    {
      "anonymous": false,
      "inputs": [
        {
          "indexed": true,
          "internalType": "address",
          "name": "implementation",
          "type": "address"
        }
      ],
      "name": "Upgraded",
      "type": "event"
    },
    {
      "inputs": [],
      "name": "anusdContract",
      "outputs": [
        {
          "internalType": "address",
          "name": "",
          "type": "address"
        }
      ],
      "stateMutability": "view",
      "type": "function"
    },
    {
      "inputs": [],
      "name": "anusdContractInfo",
      "outputs": [
        {
          "internalType": "address",
          "name": "tokenAddress",
          "type": "address"
        },
        {
          "internalType": "string",
          "name": "name",
          "type": "string"
        },
        {
          "internalType": "string",
          "name": "symbol",
          "type": "string"
        },
        {
          "internalType": "uint256",
          "name": "decimals",
          "type": "uint256"
        }
      ],
      "stateMutability": "view",
      "type": "function"
    },
    {
      "inputs": [],
      "name": "initialize",
      "outputs": [],
      "stateMutability": "nonpayable",
      "type": "function"
    },
    {
      "inputs": [],
      "name": "owner",
      "outputs": [
        {
          "internalType": "address",
          "name": "",
          "type": "address"
        }
      ],
      "stateMutability": "view",
      "type": "function"
    },
    {
      "inputs": [],
      "name": "presaleContract",
      "outputs": [
        {
          "internalType": "address",
          "name": "",
          "type": "address"
        }
      ],
      "stateMutability": "view",
      "type": "function"
    },
    {
      "inputs": [],
      "name": "proxiableUUID",
      "outputs": [
        {
          "internalType": "bytes32",
          "name": "",
          "type": "bytes32"
        }
      ],
      "stateMutability": "view",
      "type": "function"
    },
    {
      "inputs": [],
      "name": "referralContract",
      "outputs": [
        {
          "internalType": "address",
          "name": "",
          "type": "address"
        }
      ],
      "stateMutability": "view",
      "type": "function"
    },
    {
      "inputs": [],
      "name": "renounceOwnership",
      "outputs": [],
      "stateMutability": "nonpayable",
      "type": "function"
    },
    {
      "inputs": [],
      "name": "rewardContract",
      "outputs": [
        {
          "internalType": "address",
          "name": "",
          "type": "address"
        }
      ],
      "stateMutability": "view",
      "type": "function"
    },
    {
      "inputs": [],
      "name": "rewardContractOwner",
      "outputs": [
        {
          "internalType": "address",
          "name": "",
          "type": "address"
        }
      ],
      "stateMutability": "view",
      "type": "function"
    },
    {
      "inputs": [
        {
          "internalType": "address",
          "name": "_presale",
          "type": "address"
        },
        {
          "internalType": "address",
          "name": "_referral",
          "type": "address"
        },
        {
          "internalType": "address",
          "name": "_staking",
          "type": "address"
        },
        {
          "internalType": "address",
          "name": "_token",
          "type": "address"
        },
        {
          "internalType": "address",
          "name": "_anusd",
          "type": "address"
        },
        {
          "internalType": "address",
          "name": "_usdt",
          "type": "address"
        },
        {
          "internalType": "address",
          "name": "_reward",
          "type": "address"
        }
      ],
      "name": "setContractAddress",
      "outputs": [],
      "stateMutability": "nonpayable",
      "type": "function"
    },
    {
      "inputs": [],
      "name": "stakingContract",
      "outputs": [
        {
          "internalType": "address",
          "name": "",
          "type": "address"
        }
      ],
      "stateMutability": "view",
      "type": "function"
    },
    {
      "inputs": [],
      "name": "tokenContract",
      "outputs": [
        {
          "internalType": "address",
          "name": "",
          "type": "address"
        }
      ],
      "stateMutability": "view",
      "type": "function"
    },
    {
      "inputs": [],
      "name": "tokenContractInfo",
      "outputs": [
        {
          "internalType": "address",
          "name": "tokenAddress",
          "type": "address"
        },
        {
          "internalType": "string",
          "name": "name",
          "type": "string"
        },
        {
          "internalType": "string",
          "name": "symbol",
          "type": "string"
        },
        {
          "internalType": "uint256",
          "name": "decimals",
          "type": "uint256"
        }
      ],
      "stateMutability": "view",
      "type": "function"
    },
    {
      "inputs": [],
      "name": "tokenContractOwner",
      "outputs": [
        {
          "internalType": "address",
          "name": "",
          "type": "address"
        }
      ],
      "stateMutability": "view",
      "type": "function"
    },
    {
      "inputs": [
        {
          "internalType": "address",
          "name": "newOwner",
          "type": "address"
        }
      ],
      "name": "transferOwnership",
      "outputs": [],
      "stateMutability": "nonpayable",
      "type": "function"
    },
    {
      "inputs": [],
      "name": "uniswapV2RouterContract",
      "outputs": [
        {
          "internalType": "address",
          "name": "",
          "type": "address"
        }
      ],
      "stateMutability": "view",
      "type": "function"
    },
    {
      "inputs": [
        {
          "internalType": "address",
          "name": "newImplementation",
          "type": "address"
        }
      ],
      "name": "upgradeTo",
      "outputs": [],
      "stateMutability": "nonpayable",
      "type": "function"
    },
    {
      "inputs": [
        {
          "internalType": "address",
          "name": "newImplementation",
          "type": "address"
        },
        {
          "internalType": "bytes",
          "name": "data",
          "type": "bytes"
        }
      ],
      "name": "upgradeToAndCall",
      "outputs": [],
      "stateMutability": "payable",
      "type": "function"
    },
    {
      "inputs": [],
      "name": "usdtContract",
      "outputs": [
        {
          "internalType": "address",
          "name": "",
          "type": "address"
        }
      ],
      "stateMutability": "view",
      "type": "function"
    },
    {
      "inputs": [],
      "name": "variableContract",
      "outputs": [
        {
          "internalType": "address",
          "name": "",
          "type": "address"
        }
      ],
      "stateMutability": "view",
      "type": "function"
    }
  ],
  "bytecode": "0x60a06040523060805234801561001457600080fd5b5060805161159061004c600039600081816104e901528181610532015281816105d10152818161061101526106a401526115906000f3fe60806040526004361061012a5760003560e01c80637dad19db116100ab578063a50b44bc1161006f578063a50b44bc146102ff578063b70cc4c114610312578063bf2f002e14610330578063ec31250f14610345578063ee99205c14610363578063f2fde38b1461038157600080fd5b80637dad19db1461026b5780638129fc1c146102895780638290c4a61461029e578063878e17df146102bc5780638da5cb5b146102e157600080fd5b806355a373d6116100f257806355a373d6146101de57806361150923146101fc57806363d9df851461021a5780636ea69d6214610238578063715018a61461025657600080fd5b80630678cc101461012f5780633659cfe61461015157806345746dd7146101715780634f1ef286146101a857806352d1902d146101bb575b600080fd5b34801561013b57600080fd5b5061014f61014a366004611141565b6103a1565b005b34801561015d57600080fd5b5061014f61016c3660046111c7565b6104df565b34801561017d57600080fd5b5060d2546001600160a01b03165b6040516001600160a01b0390911681526020015b60405180910390f35b61014f6101b6366004611251565b6105c7565b3480156101c757600080fd5b506101d0610697565b60405190815260200161019f565b3480156101ea57600080fd5b5060cc546001600160a01b031661018b565b34801561020857600080fd5b5060ce546001600160a01b031661018b565b34801561022657600080fd5b5060c9546001600160a01b031661018b565b34801561024457600080fd5b5060cf546001600160a01b031661018b565b34801561026257600080fd5b5061014f61074a565b34801561027757600080fd5b5060ca546001600160a01b031661018b565b34801561029557600080fd5b5061014f61075e565b3480156102aa57600080fd5b5060d0546001600160a01b031661018b565b3480156102c857600080fd5b506102d16108fa565b60405161019f9493929190611332565b3480156102ed57600080fd5b506033546001600160a01b031661018b565b34801561030b57600080fd5b503061018b565b34801561031e57600080fd5b5060cd546001600160a01b031661018b565b34801561033c57600080fd5b506102d1610a73565b34801561035157600080fd5b5060d1546001600160a01b031661018b565b34801561036f57600080fd5b5060cb546001600160a01b031661018b565b34801561038d57600080fd5b5061014f61039c3660046111c7565b610bc0565b6103a9610c36565b6001600160a01b038716156103d45760c980546001600160a01b0319166001600160a01b0389161790555b6001600160a01b038616156103ff5760ca80546001600160a01b0319166001600160a01b0388161790555b6001600160a01b0385161561042a5760cb80546001600160a01b0319166001600160a01b0387161790555b6001600160a01b038416156104555760cc80546001600160a01b0319166001600160a01b0386161790555b6001600160a01b038316156104805760cd80546001600160a01b0319166001600160a01b0385161790555b6001600160a01b038216156104ab5760ce80546001600160a01b0319166001600160a01b0384161790555b6001600160a01b038116156104d65760cf80546001600160a01b0319166001600160a01b0383161790555b50505050505050565b6001600160a01b037f00000000000000000000000000000000000000000000000000000000000000001630036105305760405162461bcd60e51b81526004016105279061137a565b60405180910390fd5b7f00000000000000000000000000000000000000000000000000000000000000006001600160a01b0316610579600080516020611514833981519152546001600160a01b031690565b6001600160a01b03161461059f5760405162461bcd60e51b8152600401610527906113c6565b6105a881610c90565b604080516000808252602082019092526105c491839190610c98565b50565b6001600160a01b037f000000000000000000000000000000000000000000000000000000000000000016300361060f5760405162461bcd60e51b81526004016105279061137a565b7f00000000000000000000000000000000000000000000000000000000000000006001600160a01b0316610658600080516020611514833981519152546001600160a01b031690565b6001600160a01b03161461067e5760405162461bcd60e51b8152600401610527906113c6565b61068782610c90565b61069382826001610c98565b5050565b6000306001600160a01b037f000000000000000000000000000000000000000000000000000000000000000016146107375760405162461bcd60e51b815260206004820152603860248201527f555550535570677261646561626c653a206d757374206e6f742062652063616c60448201527f6c6564207468726f7567682064656c656761746563616c6c00000000000000006064820152608401610527565b5060008051602061151483398151915290565b610752610c36565b61075c6000610e08565b565b600054610100900460ff161580801561077e5750600054600160ff909116105b806107985750303b158015610798575060005460ff166001145b6107fb5760405162461bcd60e51b815260206004820152602e60248201527f496e697469616c697a61626c653a20636f6e747261637420697320616c72656160448201526d191e481a5b9a5d1a585b1a5e995960921b6064820152608401610527565b6000805460ff19166001179055801561081e576000805461ff0019166101001790555b60c980546001600160a01b0319908116730c750b915ef0112b204f0f7e6812be292b9936a21790915560cc805482167389c701dccc25e48566af89cac1e32706c5b5554617905560cd8054821673e6ffee89beb3bee2785ee88ded4da74f8a082a7817905560d0805490911673de2db97d54a3c3b008a097b2260633e6ca7db1af1790556108aa610e5a565b6108b2610e89565b80156105c4576000805461ff0019169055604051600181527f7f26b83ff96e1f2b6a682f133852f6798a09c465da95921460cefb38474024989060200160405180910390a150565b60cc54604080516306fdde0360e01b815290516001600160a01b0390921691606091829160009185916306fdde039160048082019286929091908290030181865afa15801561094d573d6000803e3d6000fd5b505050506040513d6000823e601f3d908101601f191682016040526109759190810190611412565b925060cc60009054906101000a90046001600160a01b03166001600160a01b03166395d89b416040518163ffffffff1660e01b8152600401600060405180830381865afa1580156109ca573d6000803e3d6000fd5b505050506040513d6000823e601f3d908101601f191682016040526109f29190810190611412565b915060cc60009054906101000a90046001600160a01b03166001600160a01b031663313ce5676040518163ffffffff1660e01b8152600401602060405180830381865afa158015610a47573d6000803e3d6000fd5b505050506040513d601f19601f82011682018060405250810190610a6b9190611480565b905090919293565b60cd54604080516306fdde0360e01b815290516001600160a01b0390921691606091829160009185916306fdde039160048082019286929091908290030181865afa158015610ac6573d6000803e3d6000fd5b505050506040513d6000823e601f3d908101601f19168201604052610aee9190810190611412565b925060cd60009054906101000a90046001600160a01b03166001600160a01b03166395d89b416040518163ffffffff1660e01b8152600401600060405180830381865afa158015610b43573d6000803e3d6000fd5b505050506040513d6000823e601f3d908101601f19168201604052610b6b9190810190611412565b915060cd60009054906101000a90046001600160a01b03166001600160a01b031663313ce5676040518163ffffffff1660e01b8152600401602060405180830381865afa158015610a47573d6000803e3d6000fd5b610bc8610c36565b6001600160a01b038116610c2d5760405162461bcd60e51b815260206004820152602660248201527f4f776e61626c653a206e6577206f776e657220697320746865207a65726f206160448201526564647265737360d01b6064820152608401610527565b6105c481610e08565b6033546001600160a01b0316331461075c5760405162461bcd60e51b815260206004820181905260248201527f4f776e61626c653a2063616c6c6572206973206e6f7420746865206f776e65726044820152606401610527565b6105c4610c36565b7f4910fdfa16fed3260ed0e7147f7cc6da11a60208b5b9406d12a635614ffd91435460ff1615610cd057610ccb83610eb0565b505050565b826001600160a01b03166352d1902d6040518163ffffffff1660e01b8152600401602060405180830381865afa925050508015610d2a575060408051601f3d908101601f19168201909252610d2791810190611480565b60015b610d8d5760405162461bcd60e51b815260206004820152602e60248201527f45524331393637557067726164653a206e657720696d706c656d656e7461746960448201526d6f6e206973206e6f74205555505360901b6064820152608401610527565b6000805160206115148339815191528114610dfc5760405162461bcd60e51b815260206004820152602960248201527f45524331393637557067726164653a20756e737570706f727465642070726f786044820152681a58589b195555525160ba1b6064820152608401610527565b50610ccb838383610f4c565b603380546001600160a01b038381166001600160a01b0319831681179093556040519116919082907f8be0079c531659141344cd1fd0a4f28419497f9722a3daafe3b4186f6b6457e090600090a35050565b600054610100900460ff16610e815760405162461bcd60e51b815260040161052790611499565b61075c610f77565b600054610100900460ff1661075c5760405162461bcd60e51b815260040161052790611499565b6001600160a01b0381163b610f1d5760405162461bcd60e51b815260206004820152602d60248201527f455243313936373a206e657720696d706c656d656e746174696f6e206973206e60448201526c1bdd08184818dbdb9d1c9858dd609a1b6064820152608401610527565b60008051602061151483398151915280546001600160a01b0319166001600160a01b0392909216919091179055565b610f5583610fa7565b600082511180610f625750805b15610ccb57610f718383610fe7565b50505050565b600054610100900460ff16610f9e5760405162461bcd60e51b815260040161052790611499565b61075c33610e08565b610fb081610eb0565b6040516001600160a01b038216907fbc7cd75a20ee27fd9adebab32041f755214dbc6bffa90cc0225b39da2e5c2d3b90600090a250565b60606001600160a01b0383163b61104f5760405162461bcd60e51b815260206004820152602660248201527f416464726573733a2064656c65676174652063616c6c20746f206e6f6e2d636f6044820152651b9d1c9858dd60d21b6064820152608401610527565b600080846001600160a01b03168460405161106a91906114e4565b600060405180830381855af49150503d80600081146110a5576040519150601f19603f3d011682016040523d82523d6000602084013e6110aa565b606091505b50915091506110d28282604051806060016040528060278152602001611534602791396110db565b95945050505050565b606083156110ea5750816110f4565b6110f483836110fb565b9392505050565b81511561110b5781518083602001fd5b8060405162461bcd60e51b81526004016105279190611500565b80356001600160a01b038116811461113c57600080fd5b919050565b600080600080600080600060e0888a03121561115c57600080fd5b61116588611125565b965061117360208901611125565b955061118160408901611125565b945061118f60608901611125565b935061119d60808901611125565b92506111ab60a08901611125565b91506111b960c08901611125565b905092959891949750929550565b6000602082840312156111d957600080fd5b6110f482611125565b634e487b7160e01b600052604160045260246000fd5b604051601f8201601f1916810167ffffffffffffffff81118282101715611221576112216111e2565b604052919050565b600067ffffffffffffffff821115611243576112436111e2565b50601f01601f191660200190565b6000806040838503121561126457600080fd5b61126d83611125565b9150602083013567ffffffffffffffff81111561128957600080fd5b8301601f8101851361129a57600080fd5b80356112ad6112a882611229565b6111f8565b8181528660208385010111156112c257600080fd5b816020840160208301376000602083830101528093505050509250929050565b60005b838110156112fd5781810151838201526020016112e5565b50506000910152565b6000815180845261131e8160208601602086016112e2565b601f01601f19169290920160200192915050565b6001600160a01b038516815260806020820181905260009061135690830186611306565b82810360408401526113688186611306565b91505082606083015295945050505050565b6020808252602c908201527f46756e6374696f6e206d7573742062652063616c6c6564207468726f7567682060408201526b19195b1959d85d1958d85b1b60a21b606082015260800190565b6020808252602c908201527f46756e6374696f6e206d7573742062652063616c6c6564207468726f7567682060408201526b6163746976652070726f787960a01b606082015260800190565b60006020828403121561142457600080fd5b815167ffffffffffffffff81111561143b57600080fd5b8201601f8101841361144c57600080fd5b805161145a6112a882611229565b81815285602083850101111561146f57600080fd5b6110d28260208301602086016112e2565b60006020828403121561149257600080fd5b5051919050565b6020808252602b908201527f496e697469616c697a61626c653a20636f6e7472616374206973206e6f74206960408201526a6e697469616c697a696e6760a81b606082015260800190565b600082516114f68184602087016112e2565b9190910192915050565b6020815260006110f4602083018461130656fe360894a13ba1a3210667c828492db98dca3e2076cc3735a920a3ca505d382bbc416464726573733a206c6f772d6c6576656c2064656c65676174652063616c6c206661696c6564a2646970667358221220d00e2b5030c231e564ae986b3160604afbf81598a20b9577d471e954d659ff3f64736f6c63430008110033",
  "linkReferences": {},
  "deployedLinkReferences": {}
}