{
  "_format": "hh-sol-artifact-1",
  "contractName": "ContactDetailsUpgradeable",
  "sourceName": "contracts/ContactDetails.sol",
  "abi": [
    {
      "anonymous": false,
      "inputs": [
        {
          "indexed": false,
          "internalType": "address",
          "name": "previousAdmin",
          "type": "address"
        },
        {
          "indexed": false,
          "internalType": "address",
          "name": "newAdmin",
          "type": "address"
        }
      ],
      "name": "AdminChanged",
      "type": "event"
    },
    {
      "anonymous": false,
      "inputs": [
        {
          "indexed": true,
          "internalType": "address",
          "name": "beacon",
          "type": "address"
        }
      ],
      "name": "BeaconUpgraded",
      "type": "event"
    },
    {
      "anonymous": false,
      "inputs": [
        {
          "indexed": false,
          "internalType": "uint8",
          "name": "version",
          "type": "uint8"
        }
      ],
      "name": "Initialized",
      "type": "event"
    },
    {
      "anonymous": false,
      "inputs": [
        {
          "indexed": true,
          "internalType": "address",
          "name": "previousOwner",
          "type": "address"
        },
        {
          "indexed": true,
          "internalType": "address",
          "name": "newOwner",
          "type": "address"
        }
      ],
      "name": "OwnershipTransferred",
      "type": "event"
    },
    {
      "anonymous": false,
      "inputs": [
        {
          "indexed": false,
          "internalType": "address",
          "name": "account",
          "type": "address"
        }
      ],
      "name": "Paused",
      "type": "event"
    },
    {
      "anonymous": false,
      "inputs": [
        {
          "indexed": false,
          "internalType": "address",
          "name": "account",
          "type": "address"
        }
      ],
      "name": "Unpaused",
      "type": "event"
    },
    {
      "anonymous": false,
      "inputs": [
        {
          "indexed": true,
          "internalType": "address",
          "name": "implementation",
          "type": "address"
        }
      ],
      "name": "Upgraded",
      "type": "event"
    },
    {
      "inputs": [
        {
          "internalType": "string",
          "name": "_name",
          "type": "string"
        },
        {
          "internalType": "uint256",
          "name": "_contactNumber",
          "type": "uint256"
        }
      ],
      "name": "addUserDetails",
      "outputs": [],
      "stateMutability": "nonpayable",
      "type": "function"
    },
    {
      "inputs": [
        {
          "internalType": "address[]",
          "name": "_userAddress",
          "type": "address[]"
        },
        {
          "internalType": "string[]",
          "name": "_name",
          "type": "string[]"
        },
        {
          "internalType": "uint256[]",
          "name": "_contactNumber",
          "type": "uint256[]"
        }
      ],
      "name": "addUserDetailsAdmin",
      "outputs": [],
      "stateMutability": "nonpayable",
      "type": "function"
    },
    {
      "inputs": [
        {
          "internalType": "uint256",
          "name": "",
          "type": "uint256"
        }
      ],
      "name": "admins",
      "outputs": [
        {
          "internalType": "address",
          "name": "",
          "type": "address"
        }
      ],
      "stateMutability": "view",
      "type": "function"
    },
    {
      "inputs": [
        {
          "internalType": "address",
          "name": "_userAddress",
          "type": "address"
        }
      ],
      "name": "getUsersDetails",
      "outputs": [
        {
          "components": [
            {
              "internalType": "uint32",
              "name": "userId",
              "type": "uint32"
            },
            {
              "internalType": "string",
              "name": "name",
              "type": "string"
            },
            {
              "internalType": "uint256",
              "name": "contactNumber",
              "type": "uint256"
            },
            {
              "internalType": "address",
              "name": "userAddress",
              "type": "address"
            }
          ],
          "internalType": "struct ContactDetailsUpgradeable.Account",
          "name": "details",
          "type": "tuple"
        }
      ],
      "stateMutability": "view",
      "type": "function"
    },
    {
      "inputs": [
        {
          "internalType": "uint32",
          "name": "",
          "type": "uint32"
        }
      ],
      "name": "idToAddress",
      "outputs": [
        {
          "internalType": "address",
          "name": "",
          "type": "address"
        }
      ],
      "stateMutability": "view",
      "type": "function"
    },
    {
      "inputs": [],
      "name": "initialize",
      "outputs": [],
      "stateMutability": "nonpayable",
      "type": "function"
    },
    {
      "inputs": [],
      "name": "owner",
      "outputs": [
        {
          "internalType": "address",
          "name": "",
          "type": "address"
        }
      ],
      "stateMutability": "view",
      "type": "function"
    },
    {
      "inputs": [],
      "name": "pause",
      "outputs": [],
      "stateMutability": "nonpayable",
      "type": "function"
    },
    {
      "inputs": [],
      "name": "paused",
      "outputs": [
        {
          "internalType": "bool",
          "name": "",
          "type": "bool"
        }
      ],
      "stateMutability": "view",
      "type": "function"
    },
    {
      "inputs": [],
      "name": "proxiableUUID",
      "outputs": [
        {
          "internalType": "bytes32",
          "name": "",
          "type": "bytes32"
        }
      ],
      "stateMutability": "view",
      "type": "function"
    },
    {
      "inputs": [],
      "name": "renounceOwnership",
      "outputs": [],
      "stateMutability": "nonpayable",
      "type": "function"
    },
    {
      "inputs": [
        {
          "internalType": "address",
          "name": "_adminAddress",
          "type": "address"
        }
      ],
      "name": "setAdmin",
      "outputs": [],
      "stateMutability": "nonpayable",
      "type": "function"
    },
    {
      "inputs": [],
      "name": "totalUsers",
      "outputs": [
        {
          "internalType": "uint32",
          "name": "",
          "type": "uint32"
        }
      ],
      "stateMutability": "view",
      "type": "function"
    },
    {
      "inputs": [
        {
          "internalType": "address",
          "name": "newOwner",
          "type": "address"
        }
      ],
      "name": "transferOwnership",
      "outputs": [],
      "stateMutability": "nonpayable",
      "type": "function"
    },
    {
      "inputs": [],
      "name": "unpause",
      "outputs": [],
      "stateMutability": "nonpayable",
      "type": "function"
    },
    {
      "inputs": [
        {
          "internalType": "address",
          "name": "newImplementation",
          "type": "address"
        }
      ],
      "name": "upgradeTo",
      "outputs": [],
      "stateMutability": "nonpayable",
      "type": "function"
    },
    {
      "inputs": [
        {
          "internalType": "address",
          "name": "newImplementation",
          "type": "address"
        },
        {
          "internalType": "bytes",
          "name": "data",
          "type": "bytes"
        }
      ],
      "name": "upgradeToAndCall",
      "outputs": [],
      "stateMutability": "payable",
      "type": "function"
    },
    {
      "inputs": [],
      "name": "variablesContract",
      "outputs": [
        {
          "internalType": "address",
          "name": "",
          "type": "address"
        }
      ],
      "stateMutability": "view",
      "type": "function"
    }
  ],
  "bytecode": "0x60a06040523060805234801561001457600080fd5b50608051611c2861004c60003960008181610676015281816106b601528181610767015281816107a7015261083a0152611c286000f3fe6080604052600436106101095760003560e01c806365791610116100955780638456cb59116100645780638456cb59146102bb5780638da5cb5b146102d0578063bff1f9e1146102ee578063ec19864014610327578063f2fde38b1461035457600080fd5b8063657916101461023b578063704b6c0214610271578063715018a6146102915780638129fc1c146102a657600080fd5b80634f1ef286116100dc5780634f1ef286146101a257806352d1902d146101b557806357bb14bb146101d85780635c975abb146101f85780635d267a7a1461021b57600080fd5b806314bfd6d01461010e57806324256f331461014b5780633659cfe61461016d5780633f4ba83a1461018d575b600080fd5b34801561011a57600080fd5b5061012e610129366004611465565b610374565b6040516001600160a01b0390911681526020015b60405180910390f35b34801561015757600080fd5b5061016b6101663660046114ca565b61039e565b005b34801561017957600080fd5b5061016b610188366004611580565b61066c565b34801561019957600080fd5b5061016b61074b565b61016b6101b0366004611627565b61075d565b3480156101c157600080fd5b506101ca61082d565b604051908152602001610142565b3480156101e457600080fd5b5061016b6101f3366004611689565b6108e0565b34801561020457600080fd5b5060335460ff166040519015158152602001610142565b34801561022757600080fd5b5060fb5461012e906001600160a01b031681565b34801561024757600080fd5b5061012e6102563660046116e2565b60fd602052600090815260409020546001600160a01b031681565b34801561027d57600080fd5b5061016b61028c366004611580565b6109ae565b34801561029d57600080fd5b5061016b610ad7565b3480156102b257600080fd5b5061016b610ae9565b3480156102c757600080fd5b5061016b610c4b565b3480156102dc57600080fd5b506065546001600160a01b031661012e565b3480156102fa57600080fd5b5060fb5461031290600160a01b900463ffffffff1681565b60405163ffffffff9091168152602001610142565b34801561033357600080fd5b50610347610342366004611580565b610c5b565b6040516101429190611758565b34801561036057600080fd5b5061016b61036f366004611580565b610d7e565b60fe818154811061038457600080fd5b6000918252602090912001546001600160a01b0316905081565b60005b60fe5460ff821610156106635760fe8160ff16815481106103c4576103c46117af565b6000918252602090912001546001600160a01b031633036105c75760005b60ff81168711156105c157600060fc60008a8a8560ff16818110610408576104086117af565b905060200201602081019061041d9190611580565b6001600160a01b0316815260208101919091526040016000908120805490925063ffffffff1690036105075760fb8054600160a01b900463ffffffff16906014610466836117db565b91906101000a81548163ffffffff021916908363ffffffff1602179055505088888360ff1681811061049a5761049a6117af565b90506020020160208101906104af9190611580565b60fb805463ffffffff600160a01b918290048116600090815260fd6020526040902080546001600160a01b03959095166001600160a01b0319909516949094179093559054835463ffffffff19169190049091161781555b86868360ff1681811061051c5761051c6117af565b905060200281019061052e91906117fe565b600183019161053e9190836118cd565b5084848360ff16818110610554576105546117af565b6020029190910135600283015550888860ff8416818110610577576105776117af565b905060200201602081019061058c9190611580565b60039190910180546001600160a01b0319166001600160a01b03909216919091179055806105b98161198e565b9150506103e2565b50610663565b60fe546105d6906001906119ad565b8160ff16036106515760fe8160ff16815481106105f5576105f56117af565b6000918252602090912001546001600160a01b031633146106515760405162461bcd60e51b81526020600482015260116024820152702cb7ba9030b932903737ba1030b236b4b760791b60448201526064015b60405180910390fd5b8061065b8161198e565b9150506103a1565b50505050505050565b6001600160a01b037f00000000000000000000000000000000000000000000000000000000000000001630036106b45760405162461bcd60e51b8152600401610648906119c0565b7f00000000000000000000000000000000000000000000000000000000000000006001600160a01b03166106fd600080516020611bac833981519152546001600160a01b031690565b6001600160a01b0316146107235760405162461bcd60e51b815260040161064890611a0c565b61072c81610df4565b6040805160008082526020820190925261074891839190610dfc565b50565b610753610f6c565b61075b610fc6565b565b6001600160a01b037f00000000000000000000000000000000000000000000000000000000000000001630036107a55760405162461bcd60e51b8152600401610648906119c0565b7f00000000000000000000000000000000000000000000000000000000000000006001600160a01b03166107ee600080516020611bac833981519152546001600160a01b031690565b6001600160a01b0316146108145760405162461bcd60e51b815260040161064890611a0c565b61081d82610df4565b61082982826001610dfc565b5050565b6000306001600160a01b037f000000000000000000000000000000000000000000000000000000000000000016146108cd5760405162461bcd60e51b815260206004820152603860248201527f555550535570677261646561626c653a206d757374206e6f742062652063616c60448201527f6c6564207468726f7567682064656c656761746563616c6c00000000000000006064820152608401610648565b50600080516020611bac83398151915290565b33600090815260fc602052604081208054909163ffffffff90911690036109815760fb8054600160a01b900463ffffffff1690601461091e836117db565b825463ffffffff9182166101009390930a92830292820219169190911790915560fb8054600160a01b908190048316600090815260fd6020526040902080546001600160a01b031916331790559054845463ffffffff1916919004909116178255505b6001810161098f8482611a58565b50600281019190915560030180546001600160a01b0319163317905550565b60005b60fe5460ff821610156108295760fe8160ff16815481106109d4576109d46117af565b6000918252602090912001546001600160a01b03163303610a405760fe80546001810182556000919091527f54075df80ec1ae6ac9100e1fd0ebf3246c17f5c933137af392011f4c5f61513a0180546001600160a01b0384166001600160a01b03199091161790555050565b60fe54610a4f906001906119ad565b8160ff1603610ac55760fe8160ff1681548110610a6e57610a6e6117af565b6000918252602090912001546001600160a01b03163314610ac55760405162461bcd60e51b81526020600482015260116024820152702cb7ba9030b932903737ba1030b236b4b760791b6044820152606401610648565b80610acf8161198e565b9150506109b1565b610adf610f6c565b61075b6000611018565b600054610100900460ff1615808015610b095750600054600160ff909116105b80610b235750303b158015610b23575060005460ff166001145b610b865760405162461bcd60e51b815260206004820152602e60248201527f496e697469616c697a61626c653a20636f6e747261637420697320616c72656160448201526d191e481a5b9a5d1a585b1a5e995960921b6064820152608401610648565b6000805460ff191660011790558015610ba9576000805461ff0019166101001790555b60fe80546001810182556000919091527f54075df80ec1ae6ac9100e1fd0ebf3246c17f5c933137af392011f4c5f61513a0180546001600160a01b03191633179055610bf361106a565b610bfb611099565b610c036110c8565b8015610748576000805461ff0019169055604051600181527f7f26b83ff96e1f2b6a682f133852f6798a09c465da95921460cefb38474024989060200160405180910390a150565b610c53610f6c565b61075b6110ef565b610c956040518060800160405280600063ffffffff168152602001606081526020016000815260200160006001600160a01b031681525090565b6001600160a01b038216600090815260fc6020908152604091829020825160808101909352805463ffffffff1683526001810180549192840191610cd890611845565b80601f0160208091040260200160405190810160405280929190818152602001828054610d0490611845565b8015610d515780601f10610d2657610100808354040283529160200191610d51565b820191906000526020600020905b815481529060010190602001808311610d3457829003601f168201915b5050509183525050600282015460208201526003909101546001600160a01b031660409091015292915050565b610d86610f6c565b6001600160a01b038116610deb5760405162461bcd60e51b815260206004820152602660248201527f4f776e61626c653a206e6577206f776e657220697320746865207a65726f206160448201526564647265737360d01b6064820152608401610648565b61074881611018565b610748610f6c565b7f4910fdfa16fed3260ed0e7147f7cc6da11a60208b5b9406d12a635614ffd91435460ff1615610e3457610e2f8361112c565b505050565b826001600160a01b03166352d1902d6040518163ffffffff1660e01b8152600401602060405180830381865afa925050508015610e8e575060408051601f3d908101601f19168201909252610e8b91810190611b18565b60015b610ef15760405162461bcd60e51b815260206004820152602e60248201527f45524331393637557067726164653a206e657720696d706c656d656e7461746960448201526d6f6e206973206e6f74205555505360901b6064820152608401610648565b600080516020611bac8339815191528114610f605760405162461bcd60e51b815260206004820152602960248201527f45524331393637557067726164653a20756e737570706f727465642070726f786044820152681a58589b195555525160ba1b6064820152608401610648565b50610e2f8383836111c8565b6065546001600160a01b0316331461075b5760405162461bcd60e51b815260206004820181905260248201527f4f776e61626c653a2063616c6c6572206973206e6f7420746865206f776e65726044820152606401610648565b610fce6111f3565b6033805460ff191690557f5db9ee0a495bf2e6ff9c91a7834c1ba4fdd244a5e8aa4e537bd38aeae4b073aa335b6040516001600160a01b03909116815260200160405180910390a1565b606580546001600160a01b038381166001600160a01b0319831681179093556040519116919082907f8be0079c531659141344cd1fd0a4f28419497f9722a3daafe3b4186f6b6457e090600090a35050565b600054610100900460ff166110915760405162461bcd60e51b815260040161064890611b31565b61075b61123c565b600054610100900460ff166110c05760405162461bcd60e51b815260040161064890611b31565b61075b61126f565b600054610100900460ff1661075b5760405162461bcd60e51b815260040161064890611b31565b6110f761129f565b6033805460ff191660011790557f62e78cea01bee320cd4e420270b5ea74000d11b0c9f74754ebdbfc544b05a258610ffb3390565b6001600160a01b0381163b6111995760405162461bcd60e51b815260206004820152602d60248201527f455243313936373a206e657720696d706c656d656e746174696f6e206973206e60448201526c1bdd08184818dbdb9d1c9858dd609a1b6064820152608401610648565b600080516020611bac83398151915280546001600160a01b0319166001600160a01b0392909216919091179055565b6111d1836112e5565b6000825111806111de5750805b15610e2f576111ed8383611325565b50505050565b60335460ff1661075b5760405162461bcd60e51b815260206004820152601460248201527314185d5cd8589b194e881b9bdd081c185d5cd95960621b6044820152606401610648565b600054610100900460ff166112635760405162461bcd60e51b815260040161064890611b31565b6033805460ff19169055565b600054610100900460ff166112965760405162461bcd60e51b815260040161064890611b31565b61075b33611018565b60335460ff161561075b5760405162461bcd60e51b815260206004820152601060248201526f14185d5cd8589b194e881c185d5cd95960821b6044820152606401610648565b6112ee8161112c565b6040516001600160a01b038216907fbc7cd75a20ee27fd9adebab32041f755214dbc6bffa90cc0225b39da2e5c2d3b90600090a250565b60606001600160a01b0383163b61138d5760405162461bcd60e51b815260206004820152602660248201527f416464726573733a2064656c65676174652063616c6c20746f206e6f6e2d636f6044820152651b9d1c9858dd60d21b6064820152608401610648565b600080846001600160a01b0316846040516113a89190611b7c565b600060405180830381855af49150503d80600081146113e3576040519150601f19603f3d011682016040523d82523d6000602084013e6113e8565b606091505b50915091506114108282604051806060016040528060278152602001611bcc6027913961141b565b925050505b92915050565b6060831561142a575081611434565b611434838361143b565b9392505050565b81511561144b5781518083602001fd5b8060405162461bcd60e51b81526004016106489190611b98565b60006020828403121561147757600080fd5b5035919050565b60008083601f84011261149057600080fd5b50813567ffffffffffffffff8111156114a857600080fd5b6020830191508360208260051b85010111156114c357600080fd5b9250929050565b600080600080600080606087890312156114e357600080fd5b863567ffffffffffffffff808211156114fb57600080fd5b6115078a838b0161147e565b9098509650602089013591508082111561152057600080fd5b61152c8a838b0161147e565b9096509450604089013591508082111561154557600080fd5b5061155289828a0161147e565b979a9699509497509295939492505050565b80356001600160a01b038116811461157b57600080fd5b919050565b60006020828403121561159257600080fd5b61143482611564565b634e487b7160e01b600052604160045260246000fd5b600067ffffffffffffffff808411156115cc576115cc61159b565b604051601f8501601f19908116603f011681019082821181831017156115f4576115f461159b565b8160405280935085815286868601111561160d57600080fd5b858560208301376000602087830101525050509392505050565b6000806040838503121561163a57600080fd5b61164383611564565b9150602083013567ffffffffffffffff81111561165f57600080fd5b8301601f8101851361167057600080fd5b61167f858235602084016115b1565b9150509250929050565b6000806040838503121561169c57600080fd5b823567ffffffffffffffff8111156116b357600080fd5b8301601f810185136116c457600080fd5b6116d3858235602084016115b1565b95602094909401359450505050565b6000602082840312156116f457600080fd5b813563ffffffff8116811461143457600080fd5b60005b8381101561172357818101518382015260200161170b565b50506000910152565b60008151808452611744816020860160208601611708565b601f01601f19169290920160200192915050565b6020815263ffffffff8251166020820152600060208301516080604084015261178460a084018261172c565b6040850151606085810191909152909401516001600160a01b03166080909301929092525090919050565b634e487b7160e01b600052603260045260246000fd5b634e487b7160e01b600052601160045260246000fd5b600063ffffffff8083168181036117f4576117f46117c5565b6001019392505050565b6000808335601e1984360301811261181557600080fd5b83018035915067ffffffffffffffff82111561183057600080fd5b6020019150368190038213156114c357600080fd5b600181811c9082168061185957607f821691505b60208210810361187957634e487b7160e01b600052602260045260246000fd5b50919050565b601f821115610e2f57600081815260208120601f850160051c810160208610156118a65750805b601f850160051c820191505b818110156118c5578281556001016118b2565b505050505050565b67ffffffffffffffff8311156118e5576118e561159b565b6118f9836118f38354611845565b8361187f565b6000601f84116001811461192d57600085156119155750838201355b600019600387901b1c1916600186901b178355611987565b600083815260209020601f19861690835b8281101561195e578685013582556020948501946001909201910161193e565b508682101561197b5760001960f88860031b161c19848701351681555b505060018560011b0183555b5050505050565b600060ff821660ff81036119a4576119a46117c5565b60010192915050565b81810381811115611415576114156117c5565b6020808252602c908201527f46756e6374696f6e206d7573742062652063616c6c6564207468726f7567682060408201526b19195b1959d85d1958d85b1b60a21b606082015260800190565b6020808252602c908201527f46756e6374696f6e206d7573742062652063616c6c6564207468726f7567682060408201526b6163746976652070726f787960a01b606082015260800190565b815167ffffffffffffffff811115611a7257611a7261159b565b611a8681611a808454611845565b8461187f565b602080601f831160018114611abb5760008415611aa35750858301515b600019600386901b1c1916600185901b1785556118c5565b600085815260208120601f198616915b82811015611aea57888601518255948401946001909101908401611acb565b5085821015611b085787850151600019600388901b60f8161c191681555b5050505050600190811b01905550565b600060208284031215611b2a57600080fd5b5051919050565b6020808252602b908201527f496e697469616c697a61626c653a20636f6e7472616374206973206e6f74206960408201526a6e697469616c697a696e6760a81b606082015260800190565b60008251611b8e818460208701611708565b9190910192915050565b602081526000611434602083018461172c56fe360894a13ba1a3210667c828492db98dca3e2076cc3735a920a3ca505d382bbc416464726573733a206c6f772d6c6576656c2064656c65676174652063616c6c206661696c6564a2646970667358221220b072ce967d19018c3b1513a85d114aed2d8413d0c16306fd9d3467b546edc47364736f6c63430008110033",
  "linkReferences": {},
  "deployedLinkReferences": {}
}