{
  "_format": "hh-sol-artifact-1",
  "contractName": "MonthlyRewardsUpgradeable",
  "sourceName": "contracts/MonthlyRewards.sol",
  "abi": [
    {
      "anonymous": false,
      "inputs": [
        {
          "indexed": false,
          "internalType": "address",
          "name": "previousAdmin",
          "type": "address"
        },
        {
          "indexed": false,
          "internalType": "address",
          "name": "newAdmin",
          "type": "address"
        }
      ],
      "name": "AdminChanged",
      "type": "event"
    },
    {
      "anonymous": false,
      "inputs": [
        {
          "indexed": true,
          "internalType": "address",
          "name": "beacon",
          "type": "address"
        }
      ],
      "name": "BeaconUpgraded",
      "type": "event"
    },
    {
      "anonymous": false,
      "inputs": [
        {
          "indexed": false,
          "internalType": "uint8",
          "name": "version",
          "type": "uint8"
        }
      ],
      "name": "Initialized",
      "type": "event"
    },
    {
      "anonymous": false,
      "inputs": [
        {
          "indexed": true,
          "internalType": "address",
          "name": "previousOwner",
          "type": "address"
        },
        {
          "indexed": true,
          "internalType": "address",
          "name": "newOwner",
          "type": "address"
        }
      ],
      "name": "OwnershipTransferred",
      "type": "event"
    },
    {
      "anonymous": false,
      "inputs": [
        {
          "indexed": false,
          "internalType": "address",
          "name": "account",
          "type": "address"
        }
      ],
      "name": "Paused",
      "type": "event"
    },
    {
      "anonymous": false,
      "inputs": [
        {
          "indexed": false,
          "internalType": "address",
          "name": "account",
          "type": "address"
        }
      ],
      "name": "Unpaused",
      "type": "event"
    },
    {
      "anonymous": false,
      "inputs": [
        {
          "indexed": true,
          "internalType": "address",
          "name": "implementation",
          "type": "address"
        }
      ],
      "name": "Upgraded",
      "type": "event"
    },
    {
      "inputs": [],
      "name": "getDefaults",
      "outputs": [
        {
          "internalType": "uint256",
          "name": "startTime",
          "type": "uint256"
        },
        {
          "internalType": "uint256",
          "name": "duration",
          "type": "uint256"
        },
        {
          "internalType": "bool",
          "name": "isPayRewards",
          "type": "bool"
        },
        {
          "internalType": "address",
          "name": "variablesContract",
          "type": "address"
        }
      ],
      "stateMutability": "view",
      "type": "function"
    },
    {
      "inputs": [
        {
          "internalType": "uint8",
          "name": "_rewardId",
          "type": "uint8"
        },
        {
          "internalType": "uint16",
          "name": "_from",
          "type": "uint16"
        },
        {
          "internalType": "uint16",
          "name": "_to",
          "type": "uint16"
        }
      ],
      "name": "getRewardQualifiedUsersList",
      "outputs": [
        {
          "internalType": "address[]",
          "name": "_userAddress",
          "type": "address[]"
        },
        {
          "internalType": "uint16",
          "name": "_achieversListCount",
          "type": "uint16"
        }
      ],
      "stateMutability": "view",
      "type": "function"
    },
    {
      "inputs": [
        {
          "internalType": "uint8",
          "name": "_id",
          "type": "uint8"
        }
      ],
      "name": "getRewardsByID",
      "outputs": [
        {
          "components": [
            {
              "internalType": "uint8",
              "name": "id",
              "type": "uint8"
            },
            {
              "internalType": "uint256",
              "name": "selfBusinessLimit",
              "type": "uint256"
            },
            {
              "internalType": "uint256",
              "name": "directBusinessLimit",
              "type": "uint256"
            },
            {
              "internalType": "uint256",
              "name": "teamBusinessLimit",
              "type": "uint256"
            },
            {
              "internalType": "string",
              "name": "rewardName",
              "type": "string"
            },
            {
              "internalType": "uint256",
              "name": "appraisal",
              "type": "uint256"
            },
            {
              "internalType": "uint256",
              "name": "selfTopUpLimit",
              "type": "uint256"
            },
            {
              "internalType": "uint256",
              "name": "teamsToCount",
              "type": "uint256"
            }
          ],
          "internalType": "struct StructMonthlyRewards",
          "name": "",
          "type": "tuple"
        }
      ],
      "stateMutability": "view",
      "type": "function"
    },
    {
      "inputs": [],
      "name": "getRewardsIDsCount",
      "outputs": [
        {
          "internalType": "uint8",
          "name": "rewardIDsCount",
          "type": "uint8"
        }
      ],
      "stateMutability": "view",
      "type": "function"
    },
    {
      "inputs": [
        {
          "internalType": "address",
          "name": "_userAddress",
          "type": "address"
        }
      ],
      "name": "getUserAccount",
      "outputs": [
        {
          "components": [
            {
              "internalType": "uint256",
              "name": "selfBusiness",
              "type": "uint256"
            },
            {
              "internalType": "uint256",
              "name": "directBusiness",
              "type": "uint256"
            },
            {
              "internalType": "uint256",
              "name": "teamBusiness",
              "type": "uint256"
            },
            {
              "internalType": "bool",
              "name": "isListed",
              "type": "bool"
            }
          ],
          "internalType": "struct StructAccountRewards",
          "name": "",
          "type": "tuple"
        }
      ],
      "stateMutability": "view",
      "type": "function"
    },
    {
      "inputs": [
        {
          "internalType": "address",
          "name": "_userAddress",
          "type": "address"
        }
      ],
      "name": "getUserBusiness",
      "outputs": [
        {
          "internalType": "uint256",
          "name": "_selfBusiness",
          "type": "uint256"
        },
        {
          "internalType": "uint256",
          "name": "_directBusiness",
          "type": "uint256"
        },
        {
          "internalType": "uint256",
          "name": "_teamBusiness",
          "type": "uint256"
        }
      ],
      "stateMutability": "view",
      "type": "function"
    },
    {
      "inputs": [
        {
          "internalType": "address",
          "name": "_address",
          "type": "address"
        }
      ],
      "name": "getUserRewardQualified",
      "outputs": [
        {
          "internalType": "uint8",
          "name": "rewardId",
          "type": "uint8"
        }
      ],
      "stateMutability": "view",
      "type": "function"
    },
    {
      "inputs": [],
      "name": "getUsersList",
      "outputs": [
        {
          "internalType": "address[]",
          "name": "usersList",
          "type": "address[]"
        },
        {
          "internalType": "uint256",
          "name": "usersCount",
          "type": "uint256"
        }
      ],
      "stateMutability": "view",
      "type": "function"
    },
    {
      "inputs": [],
      "name": "initialize",
      "outputs": [],
      "stateMutability": "nonpayable",
      "type": "function"
    },
    {
      "inputs": [],
      "name": "owner",
      "outputs": [
        {
          "internalType": "address",
          "name": "",
          "type": "address"
        }
      ],
      "stateMutability": "view",
      "type": "function"
    },
    {
      "inputs": [],
      "name": "pause",
      "outputs": [],
      "stateMutability": "nonpayable",
      "type": "function"
    },
    {
      "inputs": [],
      "name": "paused",
      "outputs": [
        {
          "internalType": "bool",
          "name": "",
          "type": "bool"
        }
      ],
      "stateMutability": "view",
      "type": "function"
    },
    {
      "inputs": [],
      "name": "proxiableUUID",
      "outputs": [
        {
          "internalType": "bytes32",
          "name": "",
          "type": "bytes32"
        }
      ],
      "stateMutability": "view",
      "type": "function"
    },
    {
      "inputs": [],
      "name": "renounceOwnership",
      "outputs": [],
      "stateMutability": "nonpayable",
      "type": "function"
    },
    {
      "inputs": [
        {
          "internalType": "uint256",
          "name": "_days",
          "type": "uint256"
        }
      ],
      "name": "setDuration",
      "outputs": [],
      "stateMutability": "nonpayable",
      "type": "function"
    },
    {
      "inputs": [
        {
          "internalType": "bool",
          "name": "_trueOrFalse",
          "type": "bool"
        }
      ],
      "name": "setIsPayMonthlyRewards",
      "outputs": [],
      "stateMutability": "nonpayable",
      "type": "function"
    },
    {
      "inputs": [
        {
          "internalType": "uint8",
          "name": "_id",
          "type": "uint8"
        },
        {
          "internalType": "uint256",
          "name": "_selfBusinessLimit",
          "type": "uint256"
        },
        {
          "internalType": "uint256",
          "name": "_directBusinessLimit",
          "type": "uint256"
        },
        {
          "internalType": "uint256",
          "name": "_teamBusinessLimit",
          "type": "uint256"
        },
        {
          "internalType": "string",
          "name": "_rewardName",
          "type": "string"
        },
        {
          "internalType": "uint256",
          "name": "_appraisal",
          "type": "uint256"
        },
        {
          "internalType": "uint256",
          "name": "_selfTopUpLimit",
          "type": "uint256"
        },
        {
          "internalType": "uint256",
          "name": "_teamsToCount",
          "type": "uint256"
        }
      ],
      "name": "setMonthlyRewards",
      "outputs": [],
      "stateMutability": "nonpayable",
      "type": "function"
    },
    {
      "inputs": [
        {
          "internalType": "uint256",
          "name": "_timeInEpoch",
          "type": "uint256"
        }
      ],
      "name": "setStartTime",
      "outputs": [],
      "stateMutability": "nonpayable",
      "type": "function"
    },
    {
      "inputs": [
        {
          "internalType": "address",
          "name": "_contractAddress",
          "type": "address"
        }
      ],
      "name": "setVariablesContract",
      "outputs": [],
      "stateMutability": "nonpayable",
      "type": "function"
    },
    {
      "inputs": [
        {
          "internalType": "address",
          "name": "newOwner",
          "type": "address"
        }
      ],
      "name": "transferOwnership",
      "outputs": [],
      "stateMutability": "nonpayable",
      "type": "function"
    },
    {
      "inputs": [],
      "name": "unpause",
      "outputs": [],
      "stateMutability": "nonpayable",
      "type": "function"
    },
    {
      "inputs": [
        {
          "internalType": "address",
          "name": "_userAddress",
          "type": "address"
        },
        {
          "internalType": "uint256",
          "name": "_directBusiness",
          "type": "uint256"
        }
      ],
      "name": "updateDirectBusiness",
      "outputs": [],
      "stateMutability": "nonpayable",
      "type": "function"
    },
    {
      "inputs": [
        {
          "internalType": "address",
          "name": "_userAddress",
          "type": "address"
        },
        {
          "internalType": "uint256",
          "name": "_selfBusiness",
          "type": "uint256"
        }
      ],
      "name": "updateSelfBusiness",
      "outputs": [],
      "stateMutability": "nonpayable",
      "type": "function"
    },
    {
      "inputs": [
        {
          "internalType": "address",
          "name": "_userAddress",
          "type": "address"
        },
        {
          "internalType": "uint256",
          "name": "_teamBusiness",
          "type": "uint256"
        }
      ],
      "name": "updateTeamBusiness",
      "outputs": [],
      "stateMutability": "nonpayable",
      "type": "function"
    },
    {
      "inputs": [
        {
          "internalType": "address",
          "name": "newImplementation",
          "type": "address"
        }
      ],
      "name": "upgradeTo",
      "outputs": [],
      "stateMutability": "nonpayable",
      "type": "function"
    },
    {
      "inputs": [
        {
          "internalType": "address",
          "name": "newImplementation",
          "type": "address"
        },
        {
          "internalType": "bytes",
          "name": "data",
          "type": "bytes"
        }
      ],
      "name": "upgradeToAndCall",
      "outputs": [],
      "stateMutability": "payable",
      "type": "function"
    }
  ],
  "bytecode": "0x60a06040523060805234801561001457600080fd5b50608051612aee61004c600039600081816107d101528181610811015281816108cf0152818161090f015261099e0152612aee6000f3fe6080604052600436106101815760003560e01c80638456cb59116100d1578063e5ffb5df1161008a578063f6be71d111610064578063f6be71d114610480578063f87127b4146104a0578063fb47e016146104ff578063fe9f20351461055457600080fd5b8063e5ffb5df1461040e578063f2fde38b14610440578063f5a283ce1461046057600080fd5b80638456cb59146103175780638da5cb5b1461032c578063a9415f5d14610354578063b172ed4d14610374578063baa7e7c5146103be578063c74e13f3146103eb57600080fd5b80634f1ef2861161013e5780635ee9964f116101185780635ee9964f146102ad578063715018a6146102cd5780637b9accaf146102e25780638129fc1c1461030257600080fd5b80634f1ef2861461025457806352d1902d146102675780635c975abb1461028a57600080fd5b80630ba0dba314610186578063169529b9146101a857806333b153e3146101c85780633659cfe6146101ff5780633e0a322d1461021f5780633f4ba83a1461023f575b600080fd5b34801561019257600080fd5b506101a66101a1366004612030565b610569565b005b3480156101b457600080fd5b506101a66101c336600461204d565b610593565b3480156101d457600080fd5b506101e86101e33660046120a1565b6106e9565b6040516101f6929190612128565b60405180910390f35b34801561020b57600080fd5b506101a661021a366004612030565b6107c7565b34801561022b57600080fd5b506101a661023a36600461214e565b6108a6565b34801561024b57600080fd5b506101a66108b3565b6101a6610262366004612230565b6108c5565b34801561027357600080fd5b5061027c610991565b6040519081526020016101f6565b34801561029657600080fd5b5060335460ff1660405190151581526020016101f6565b3480156102b957600080fd5b506101a66102c8366004612294565b610a44565b3480156102d957600080fd5b506101a6610b01565b3480156102ee57600080fd5b506101a66102fd36600461233c565b610b13565b34801561030e57600080fd5b506101a6610bae565b34801561032357600080fd5b506101a6610cd9565b34801561033857600080fd5b506065546040516001600160a01b0390911681526020016101f6565b34801561036057600080fd5b506101a661036f36600461204d565b610ce9565b34801561038057600080fd5b5060fb5460fc5460ff805460fd5460408051958652602086019490945291161515918301919091526001600160a01b031660608201526080016101f6565b3480156103ca57600080fd5b506103de6103d9366004612359565b610dc2565b6040516101f691906123c4565b3480156103f757600080fd5b50610400610f11565b6040516101f6929190612438565b34801561041a57600080fd5b5061042e610429366004612030565b610f7a565b60405160ff90911681526020016101f6565b34801561044c57600080fd5b506101a661045b366004612030565b611237565b34801561046c57600080fd5b506101a661047b36600461204d565b6112ad565b34801561048c57600080fd5b506101a661049b36600461214e565b611387565b3480156104ac57600080fd5b506104e46104bb366004612030565b6001600160a01b0316600090815261010160205260409020805460018201546002909201549092565b604080519384526020840192909252908201526060016101f6565b34801561050b57600080fd5b5061051f61051a366004612030565b6113a2565b6040516101f6919081518152602080830151908201526040808301519082015260609182015115159181019190915260800190565b34801561056057600080fd5b5061042e611423565b61057161147a565b60fd80546001600160a01b0319166001600160a01b0392909216919091179055565b60fd54604051630935e01b60e21b81523360048201526001600160a01b03909116906324d7806c90602401602060405180830381865afa1580156105db573d6000803e3d6000fd5b505050506040513d601f19601f820116820180604052508101906105ff9190612465565b6106245760405162461bcd60e51b815260040161061b90612482565b60405180910390fd5b4260fc5460fb5461063591906124c3565b118015610643575060ff8054165b156106e5576001600160a01b038216600090815261010160205260408120600181018054919284926106769084906124c3565b9091555050600381015460ff166106e35760fe8054600180820183556000929092527f54075df80ec1ae6ac9100e1fd0ebf3246c17f5c933137af392011f4c5f61513a0180546001600160a01b0319166001600160a01b03861617905560038201805460ff191690911790555b505b5050565b606060008060006106fb8787876114d4565b915091508092508061ffff1667ffffffffffffffff81111561071f5761071f612167565b604051908082528060200260200182016040528015610748578160200160208202803683370190505b50935060005b8161ffff168161ffff1610156107bc57828161ffff1681518110610774576107746124d6565b6020026020010151858261ffff1681518110610792576107926124d6565b6001600160a01b0390921660209283029190910190910152806107b4816124ec565b91505061074e565b505050935093915050565b6001600160a01b037f000000000000000000000000000000000000000000000000000000000000000016300361080f5760405162461bcd60e51b815260040161061b9061250d565b7f00000000000000000000000000000000000000000000000000000000000000006001600160a01b0316610858600080516020612a72833981519152546001600160a01b031690565b6001600160a01b03161461087e5760405162461bcd60e51b815260040161061b90612559565b61088781611903565b604080516000808252602082019092526108a39183919061190b565b50565b6108ae61147a565b60fb55565b6108bb61147a565b6108c3611a7b565b565b6001600160a01b037f000000000000000000000000000000000000000000000000000000000000000016300361090d5760405162461bcd60e51b815260040161061b9061250d565b7f00000000000000000000000000000000000000000000000000000000000000006001600160a01b0316610956600080516020612a72833981519152546001600160a01b031690565b6001600160a01b03161461097c5760405162461bcd60e51b815260040161061b90612559565b61098582611903565b6106e58282600161190b565b6000306001600160a01b037f00000000000000000000000000000000000000000000000000000000000000001614610a315760405162461bcd60e51b815260206004820152603860248201527f555550535570677261646561626c653a206d757374206e6f742062652063616c60448201527f6c6564207468726f7567682064656c656761746563616c6c0000000000000000606482015260840161061b565b50600080516020612a7283398151915290565b610a4c61147a565b60408051610100808201835260ff8b811680845260208085018d81528587018d8152606087018d8152608088018d815260a089018d905260c089018c905260e089018b9052600095865296909352969092208551815460ff19169416939093178355905160018301559351600282015592516003840155519091906004820190610ad6908261262d565b5060a0820151600582015560c0820151600682015560e0909101516007909101555050505050505050565b610b0961147a565b6108c36000611acd565b60fd54604051630935e01b60e21b81523360048201526001600160a01b03909116906324d7806c90602401602060405180830381865afa158015610b5b573d6000803e3d6000fd5b505050506040513d601f19601f82011682018060405250810190610b7f9190612465565b610b9b5760405162461bcd60e51b815260040161061b90612482565b60ff805460ff1916911515919091179055565b600054610100900460ff1615808015610bce5750600054600160ff909116105b80610be85750303b158015610be8575060005460ff166001145b610c4b5760405162461bcd60e51b815260206004820152602e60248201527f496e697469616c697a61626c653a20636f6e747261637420697320616c72656160448201526d191e481a5b9a5d1a585b1a5e995960921b606482015260840161061b565b6000805460ff191660011790558015610c6e576000805461ff0019166101001790555b4260fb556228de8060fc55610c81611b1f565b610c89611b4e565b610c91611b7d565b80156108a3576000805461ff0019169055604051600181527f7f26b83ff96e1f2b6a682f133852f6798a09c465da95921460cefb38474024989060200160405180910390a150565b610ce161147a565b6108c3611ba4565b60fd54604051630935e01b60e21b81523360048201526001600160a01b03909116906324d7806c90602401602060405180830381865afa158015610d31573d6000803e3d6000fd5b505050506040513d601f19601f82011682018060405250810190610d559190612465565b610d715760405162461bcd60e51b815260040161061b90612482565b4260fc5460fb54610d8291906124c3565b118015610d90575060ff8054165b156106e5576001600160a01b0382166000908152610101602052604081208054909183918391906106769084906124c3565b610e0d604051806101000160405280600060ff168152602001600081526020016000815260200160008152602001606081526020016000815260200160008152602001600081525090565b60ff80831660009081526101006020818152604092839020835192830184528054909416825260018401549082015260028301549181019190915260038201546060820152600482018054919291608084019190610e6a906125a5565b80601f0160208091040260200160405190810160405280929190818152602001828054610e96906125a5565b8015610ee35780601f10610eb857610100808354040283529160200191610ee3565b820191906000526020600020905b815481529060010190602001808311610ec657829003601f168201915b5050505050815260200160058201548152602001600682015481526020016007820154815250509050919050565b6060600060fe805480602002602001604051908101604052809291908181526020018280548015610f6b57602002820191906000526020600020905b81546001600160a01b03168152600190910190602001808311610f4d575b50505050509150815190509091565b60008060fd60009054906101000a90046001600160a01b03166001600160a01b0316637dad19db6040518163ffffffff1660e01b8152600401602060405180830381865afa158015610fd0573d6000803e3d6000fd5b505050506040513d601f19601f82011682018060405250810190610ff491906126f8565b604051637da3f00b60e11b81526001600160a01b038581166004830152919091169063fb47e01690602401600060405180830381865afa15801561103c573d6000803e3d6000fd5b505050506040513d6000823e601f3d908101601f191682016040526110649190810190612808565b6001600160a01b0384166000908152610101602090815260408083208151608081018352815481526001820154938101939093526002810154918301919091526003015460ff16151560608201529192505b600a8160ff16101561122f5760ff8082166000908152610100602081815260408084208151938401825280549095168352600185015491830191909152600284015490820152600383015460608201526004830180549293919260808401919061111f906125a5565b80601f016020809104026020016040519081016040528092919081815260200182805461114b906125a5565b80156111985780601f1061116d57610100808354040283529160200191611198565b820191906000526020600020905b81548152906001019060200180831161117b57829003601f168201915b505050505081526020016005820154815260200160068201548152602001600782015481525050905060018260ff161180156111d657506020810151155b156111e1575061122f565b60208101518351108015906111fe57508060400151836020015110155b80156112135750611213848260600151611be1565b1561121c578194505b508061122781612973565b9150506110b6565b505050919050565b61123f61147a565b6001600160a01b0381166112a45760405162461bcd60e51b815260206004820152602660248201527f4f776e61626c653a206e6577206f776e657220697320746865207a65726f206160448201526564647265737360d01b606482015260840161061b565b6108a381611acd565b60fd54604051630935e01b60e21b81523360048201526001600160a01b03909116906324d7806c90602401602060405180830381865afa1580156112f5573d6000803e3d6000fd5b505050506040513d601f19601f820116820180604052508101906113199190612465565b6113355760405162461bcd60e51b815260040161061b90612482565b4260fc5460fb5461134691906124c3565b118015611354575060ff8054165b156106e5576001600160a01b038216600090815261010160205260408120600281018054919284926106769084906124c3565b61138f61147a565b61139c8162015180612992565b60fc5550565b6113cf60405180608001604052806000815260200160008152602001600081526020016000151581525090565b506001600160a01b03166000908152610101602090815260409182902082516080810184528154815260018201549281019290925260028101549282019290925260039091015460ff161515606082015290565b6000805b600a8160ff1610156114765760008160ff1611801561145b575060ff81166000908152610100602052604090206001015415155b15611464578091505b8061146e81612973565b915050611427565b5090565b6065546001600160a01b031633146108c35760405162461bcd60e51b815260206004820181905260248201527f4f776e61626c653a2063616c6c6572206973206e6f7420746865206f776e6572604482015260640161061b565b606060006114e284846129a9565b61ffff1667ffffffffffffffff8111156114fe576114fe612167565b604051908082528060200260200182016040528015611527578160200160208202803683370190505b509150600060fe80548060200260200160405190810160405280929190818152602001828054801561158257602002820191906000526020600020905b81546001600160a01b03168152600190910190602001808311611564575b505050505090505b8361ffff168561ffff16116118fa5760006101016000838861ffff16815181106115b6576115b66124d6565b60200260200101516001600160a01b03166001600160a01b031681526020019081526020016000206040518060800160405290816000820154815260200160018201548152602001600282015481526020016003820160009054906101000a900460ff1615151515815250509050600061010060008960ff1660ff168152602001908152602001600020604051806101000160405290816000820160009054906101000a900460ff1660ff1660ff168152602001600182015481526020016002820154815260200160038201548152602001600482018054611697906125a5565b80601f01602080910402602001604051908101604052809291908181526020018280546116c3906125a5565b80156117105780601f106116e557610100808354040283529160200191611710565b820191906000526020600020905b8154815290600101906020018083116116f357829003601f168201915b5050505050815260200160058201548152602001600682015481526020016007820154815250509050600060fd60009054906101000a90046001600160a01b03166001600160a01b0316637dad19db6040518163ffffffff1660e01b8152600401602060405180830381865afa15801561178e573d6000803e3d6000fd5b505050506040513d601f19601f820116820180604052508101906117b291906126f8565b6001600160a01b031663fb47e016858a61ffff16815181106117d6576117d66124d6565b60200260200101516040518263ffffffff1660e01b815260040161180991906001600160a01b0391909116815260200190565b600060405180830381865afa158015611826573d6000803e3d6000fd5b505050506040513d6000823e601f3d908101601f1916820160405261184e9190810190612808565b9050816020015183600001511015801561187057508160400151836020015110155b80156118855750611885818360600151611be1565b156118e457838861ffff16815181106118a0576118a06124d6565b6020026020010151868661ffff16815181106118be576118be6124d6565b6001600160a01b0390921660209283029190910190910152846118e0816124ec565b9550505b50505084806118f2906124ec565b95505061158a565b50935093915050565b6108a361147a565b7f4910fdfa16fed3260ed0e7147f7cc6da11a60208b5b9406d12a635614ffd91435460ff16156119435761193e83611ce2565b6106e3565b826001600160a01b03166352d1902d6040518163ffffffff1660e01b8152600401602060405180830381865afa92505050801561199d575060408051601f3d908101601f1916820190925261199a918101906129cb565b60015b611a005760405162461bcd60e51b815260206004820152602e60248201527f45524331393637557067726164653a206e657720696d706c656d656e7461746960448201526d6f6e206973206e6f74205555505360901b606482015260840161061b565b600080516020612a728339815191528114611a6f5760405162461bcd60e51b815260206004820152602960248201527f45524331393637557067726164653a20756e737570706f727465642070726f786044820152681a58589b195555525160ba1b606482015260840161061b565b506106e3838383611d7e565b611a83611da9565b6033805460ff191690557f5db9ee0a495bf2e6ff9c91a7834c1ba4fdd244a5e8aa4e537bd38aeae4b073aa335b6040516001600160a01b03909116815260200160405180910390a1565b606580546001600160a01b038381166001600160a01b0319831681179093556040519116919082907f8be0079c531659141344cd1fd0a4f28419497f9722a3daafe3b4186f6b6457e090600090a35050565b600054610100900460ff16611b465760405162461bcd60e51b815260040161061b906129e4565b6108c3611df2565b600054610100900460ff16611b755760405162461bcd60e51b815260040161061b906129e4565b6108c3611e25565b600054610100900460ff166108c35760405162461bcd60e51b815260040161061b906129e4565b611bac611e55565b6033805460ff191660011790557f62e78cea01bee320cd4e420270b5ea74000d11b0c9f74754ebdbfc544b05a258611ab03390565b600080600060028560200151511115611cda5760005b8560200151518161ffff161015611cb6576000610101600088602001518461ffff1681518110611c2957611c296124d6565b6020908102919091018101516001600160a01b0316825281810192909252604090810160002081516080810183528154815260018201549381019390935260028101549183018290526003015460ff1615156060830152909150611c8d90856124c3565b93508281604001511115611ca357806040015192505b5080611cae816124ec565b915050611bf7565b50838110158015611cd0575083611ccd8284612a2f565b10155b15611cda57600192505b505092915050565b6001600160a01b0381163b611d4f5760405162461bcd60e51b815260206004820152602d60248201527f455243313936373a206e657720696d706c656d656e746174696f6e206973206e60448201526c1bdd08184818dbdb9d1c9858dd609a1b606482015260840161061b565b600080516020612a7283398151915280546001600160a01b0319166001600160a01b0392909216919091179055565b611d8783611e9b565b600082511180611d945750805b156106e357611da38383611edb565b50505050565b60335460ff166108c35760405162461bcd60e51b815260206004820152601460248201527314185d5cd8589b194e881b9bdd081c185d5cd95960621b604482015260640161061b565b600054610100900460ff16611e195760405162461bcd60e51b815260040161061b906129e4565b6033805460ff19169055565b600054610100900460ff16611e4c5760405162461bcd60e51b815260040161061b906129e4565b6108c333611acd565b60335460ff16156108c35760405162461bcd60e51b815260206004820152601060248201526f14185d5cd8589b194e881c185d5cd95960821b604482015260640161061b565b611ea481611ce2565b6040516001600160a01b038216907fbc7cd75a20ee27fd9adebab32041f755214dbc6bffa90cc0225b39da2e5c2d3b90600090a250565b60606001600160a01b0383163b611f435760405162461bcd60e51b815260206004820152602660248201527f416464726573733a2064656c65676174652063616c6c20746f206e6f6e2d636f6044820152651b9d1c9858dd60d21b606482015260840161061b565b600080846001600160a01b031684604051611f5e9190612a42565b600060405180830381855af49150503d8060008114611f99576040519150601f19603f3d011682016040523d82523d6000602084013e611f9e565b606091505b5091509150611fc68282604051806060016040528060278152602001612a9260279139611fd1565b925050505b92915050565b60608315611fe0575081611fea565b611fea8383611ff1565b9392505050565b8151156120015781518083602001fd5b8060405162461bcd60e51b815260040161061b9190612a5e565b6001600160a01b03811681146108a357600080fd5b60006020828403121561204257600080fd5b8135611fea8161201b565b6000806040838503121561206057600080fd5b823561206b8161201b565b946020939093013593505050565b803560ff8116811461208a57600080fd5b919050565b803561ffff8116811461208a57600080fd5b6000806000606084860312156120b657600080fd5b6120bf84612079565b92506120cd6020850161208f565b91506120db6040850161208f565b90509250925092565b600081518084526020808501945080840160005b8381101561211d5781516001600160a01b0316875295820195908201906001016120f8565b509495945050505050565b60408152600061213b60408301856120e4565b905061ffff831660208301529392505050565b60006020828403121561216057600080fd5b5035919050565b634e487b7160e01b600052604160045260246000fd5b604051610160810167ffffffffffffffff811182821017156121a1576121a1612167565b60405290565b604051601f8201601f1916810167ffffffffffffffff811182821017156121d0576121d0612167565b604052919050565b600067ffffffffffffffff8311156121f2576121f2612167565b612205601f8401601f19166020016121a7565b905082815283838301111561221957600080fd5b828260208301376000602084830101529392505050565b6000806040838503121561224357600080fd5b823561224e8161201b565b9150602083013567ffffffffffffffff81111561226a57600080fd5b8301601f8101851361227b57600080fd5b61228a858235602084016121d8565b9150509250929050565b600080600080600080600080610100898b0312156122b157600080fd5b6122ba89612079565b9750602089013596506040890135955060608901359450608089013567ffffffffffffffff8111156122eb57600080fd5b8901601f81018b136122fc57600080fd5b61230b8b8235602084016121d8565b989b979a50959894979660a0860135965060c08601359560e00135945092505050565b80151581146108a357600080fd5b60006020828403121561234e57600080fd5b8135611fea8161232e565b60006020828403121561236b57600080fd5b611fea82612079565b60005b8381101561238f578181015183820152602001612377565b50506000910152565b600081518084526123b0816020860160208601612374565b601f01601f19169290920160200192915050565b6020815260ff8251166020820152602082015160408201526040820151606082015260608201516080820152600060808301516101008060a085015261240e610120850183612398565b915060a085015160c085015260c085015160e085015260e085015181850152508091505092915050565b60408152600061244b60408301856120e4565b90508260208301529392505050565b805161208a8161232e565b60006020828403121561247757600080fd5b8151611fea8161232e565b6020808252601190820152702cb7ba9030b932903737ba1030b236b4b760791b604082015260600190565b634e487b7160e01b600052601160045260246000fd5b80820180821115611fcb57611fcb6124ad565b634e487b7160e01b600052603260045260246000fd5b600061ffff808316818103612503576125036124ad565b6001019392505050565b6020808252602c908201527f46756e6374696f6e206d7573742062652063616c6c6564207468726f7567682060408201526b19195b1959d85d1958d85b1b60a21b606082015260800190565b6020808252602c908201527f46756e6374696f6e206d7573742062652063616c6c6564207468726f7567682060408201526b6163746976652070726f787960a01b606082015260800190565b600181811c908216806125b957607f821691505b6020821081036125d957634e487b7160e01b600052602260045260246000fd5b50919050565b601f8211156106e357600081815260208120601f850160051c810160208610156126065750805b601f850160051c820191505b8181101561262557828155600101612612565b505050505050565b815167ffffffffffffffff81111561264757612647612167565b61265b8161265584546125a5565b846125df565b602080601f83116001811461269057600084156126785750858301515b600019600386901b1c1916600185901b178555612625565b600085815260208120601f198616915b828110156126bf578886015182559484019460019091019084016126a0565b50858210156126dd5787850151600019600388901b60f8161c191681555b5050505050600190811b01905550565b805161208a8161201b565b60006020828403121561270a57600080fd5b8151611fea8161201b565b600067ffffffffffffffff82111561272f5761272f612167565b5060051b60200190565b600082601f83011261274a57600080fd5b8151602061275f61275a83612715565b6121a7565b82815260059290921b8401810191818101908684111561277e57600080fd5b8286015b848110156127a25780516127958161201b565b8352918301918301612782565b509695505050505050565b600082601f8301126127be57600080fd5b815160206127ce61275a83612715565b82815260059290921b840181019181810190868411156127ed57600080fd5b8286015b848110156127a257805183529183019183016127f1565b60006020828403121561281a57600080fd5b815167ffffffffffffffff8082111561283257600080fd5b90830190610160828603121561284757600080fd5b61284f61217d565b612858836126ed565b815260208301518281111561286c57600080fd5b61287887828601612739565b60208301525060408301518281111561289057600080fd5b61289c87828601612739565b6040830152506060830151828111156128b457600080fd5b6128c0878286016127ad565b6060830152506080830151608082015260a083015160a082015260c083015160c082015260e0830151828111156128f657600080fd5b612902878286016127ad565b60e083015250610100808401518381111561291c57600080fd5b612928888287016127ad565b828401525050610120808401518381111561294257600080fd5b61294e888287016127ad565b828401525050610140915061296482840161245a565b91810191909152949350505050565b600060ff821660ff8103612989576129896124ad565b60010192915050565b8082028115828204841417611fcb57611fcb6124ad565b61ffff8281168282160390808211156129c4576129c46124ad565b5092915050565b6000602082840312156129dd57600080fd5b5051919050565b6020808252602b908201527f496e697469616c697a61626c653a20636f6e7472616374206973206e6f74206960408201526a6e697469616c697a696e6760a81b606082015260800190565b81810381811115611fcb57611fcb6124ad565b60008251612a54818460208701612374565b9190910192915050565b602081526000611fea602083018461239856fe360894a13ba1a3210667c828492db98dca3e2076cc3735a920a3ca505d382bbc416464726573733a206c6f772d6c6576656c2064656c65676174652063616c6c206661696c6564a264697066735822122088b445a4005372418a233361664aaac1ba8de5def5dcc2f288c99908a22f811c64736f6c63430008110033",
  "linkReferences": {},
  "deployedLinkReferences": {}
}