{
  "_format": "hh-sol-artifact-1",
  "contractName": "MonthlyRewardsUpgradeable",
  "sourceName": "contracts/MonthlyRewards.sol",
  "abi": [
    {
      "anonymous": false,
      "inputs": [
        {
          "indexed": false,
          "internalType": "address",
          "name": "previousAdmin",
          "type": "address"
        },
        {
          "indexed": false,
          "internalType": "address",
          "name": "newAdmin",
          "type": "address"
        }
      ],
      "name": "AdminChanged",
      "type": "event"
    },
    {
      "anonymous": false,
      "inputs": [
        {
          "indexed": true,
          "internalType": "address",
          "name": "beacon",
          "type": "address"
        }
      ],
      "name": "BeaconUpgraded",
      "type": "event"
    },
    {
      "anonymous": false,
      "inputs": [
        {
          "indexed": false,
          "internalType": "uint8",
          "name": "version",
          "type": "uint8"
        }
      ],
      "name": "Initialized",
      "type": "event"
    },
    {
      "anonymous": false,
      "inputs": [
        {
          "indexed": true,
          "internalType": "address",
          "name": "previousOwner",
          "type": "address"
        },
        {
          "indexed": true,
          "internalType": "address",
          "name": "newOwner",
          "type": "address"
        }
      ],
      "name": "OwnershipTransferred",
      "type": "event"
    },
    {
      "anonymous": false,
      "inputs": [
        {
          "indexed": false,
          "internalType": "address",
          "name": "account",
          "type": "address"
        }
      ],
      "name": "Paused",
      "type": "event"
    },
    {
      "anonymous": false,
      "inputs": [
        {
          "indexed": false,
          "internalType": "address",
          "name": "account",
          "type": "address"
        }
      ],
      "name": "Unpaused",
      "type": "event"
    },
    {
      "anonymous": false,
      "inputs": [
        {
          "indexed": true,
          "internalType": "address",
          "name": "implementation",
          "type": "address"
        }
      ],
      "name": "Upgraded",
      "type": "event"
    },
    {
      "inputs": [],
      "name": "getDefaults",
      "outputs": [
        {
          "internalType": "uint256",
          "name": "startTime",
          "type": "uint256"
        },
        {
          "internalType": "uint256",
          "name": "duration",
          "type": "uint256"
        },
        {
          "internalType": "bool",
          "name": "isPayRewards",
          "type": "bool"
        },
        {
          "internalType": "address",
          "name": "variablesContract",
          "type": "address"
        }
      ],
      "stateMutability": "view",
      "type": "function"
    },
    {
      "inputs": [
        {
          "internalType": "uint8",
          "name": "_rewardId",
          "type": "uint8"
        },
        {
          "internalType": "uint16",
          "name": "_from",
          "type": "uint16"
        },
        {
          "internalType": "uint16",
          "name": "_to",
          "type": "uint16"
        }
      ],
      "name": "getRewardQualifiedUsersList",
      "outputs": [
        {
          "internalType": "address[]",
          "name": "_userAddress",
          "type": "address[]"
        },
        {
          "internalType": "uint16",
          "name": "_achieversListCount",
          "type": "uint16"
        }
      ],
      "stateMutability": "view",
      "type": "function"
    },
    {
      "inputs": [
        {
          "internalType": "uint8",
          "name": "_id",
          "type": "uint8"
        }
      ],
      "name": "getRewardsByID",
      "outputs": [
        {
          "components": [
            {
              "internalType": "uint8",
              "name": "id",
              "type": "uint8"
            },
            {
              "internalType": "uint256",
              "name": "selfBusinessLimit",
              "type": "uint256"
            },
            {
              "internalType": "uint256",
              "name": "directBusinessLimit",
              "type": "uint256"
            },
            {
              "internalType": "uint256",
              "name": "teamBusinessLimit",
              "type": "uint256"
            },
            {
              "internalType": "string",
              "name": "rewardName",
              "type": "string"
            },
            {
              "internalType": "uint256",
              "name": "appraisal",
              "type": "uint256"
            },
            {
              "internalType": "uint256",
              "name": "selfTopUpLimit",
              "type": "uint256"
            },
            {
              "internalType": "uint256",
              "name": "teamsToCount",
              "type": "uint256"
            }
          ],
          "internalType": "struct StructMonthlyRewards",
          "name": "",
          "type": "tuple"
        }
      ],
      "stateMutability": "view",
      "type": "function"
    },
    {
      "inputs": [
        {
          "internalType": "address",
          "name": "_userAddress",
          "type": "address"
        }
      ],
      "name": "getUserAccount",
      "outputs": [
        {
          "components": [
            {
              "internalType": "uint256",
              "name": "selfBusiness",
              "type": "uint256"
            },
            {
              "internalType": "uint256",
              "name": "directBusiness",
              "type": "uint256"
            },
            {
              "internalType": "uint256",
              "name": "teamBusiness",
              "type": "uint256"
            },
            {
              "internalType": "bool",
              "name": "isListed",
              "type": "bool"
            }
          ],
          "internalType": "struct StructAccountRewards",
          "name": "",
          "type": "tuple"
        }
      ],
      "stateMutability": "view",
      "type": "function"
    },
    {
      "inputs": [
        {
          "internalType": "address",
          "name": "_userAddress",
          "type": "address"
        }
      ],
      "name": "getUserBusiness",
      "outputs": [
        {
          "internalType": "uint256",
          "name": "_selfBusiness",
          "type": "uint256"
        },
        {
          "internalType": "uint256",
          "name": "_directBusiness",
          "type": "uint256"
        },
        {
          "internalType": "uint256",
          "name": "_teamBusiness",
          "type": "uint256"
        }
      ],
      "stateMutability": "view",
      "type": "function"
    },
    {
      "inputs": [
        {
          "internalType": "address",
          "name": "_address",
          "type": "address"
        }
      ],
      "name": "getUserRewardQualified",
      "outputs": [
        {
          "internalType": "uint8",
          "name": "rewardId",
          "type": "uint8"
        },
        {
          "internalType": "uint256",
          "name": "valueToTopUp",
          "type": "uint256"
        }
      ],
      "stateMutability": "view",
      "type": "function"
    },
    {
      "inputs": [],
      "name": "getUsersList",
      "outputs": [
        {
          "internalType": "address[]",
          "name": "usersList",
          "type": "address[]"
        },
        {
          "internalType": "uint256",
          "name": "usersCount",
          "type": "uint256"
        }
      ],
      "stateMutability": "view",
      "type": "function"
    },
    {
      "inputs": [],
      "name": "initialize",
      "outputs": [],
      "stateMutability": "nonpayable",
      "type": "function"
    },
    {
      "inputs": [],
      "name": "owner",
      "outputs": [
        {
          "internalType": "address",
          "name": "",
          "type": "address"
        }
      ],
      "stateMutability": "view",
      "type": "function"
    },
    {
      "inputs": [],
      "name": "pause",
      "outputs": [],
      "stateMutability": "nonpayable",
      "type": "function"
    },
    {
      "inputs": [],
      "name": "paused",
      "outputs": [
        {
          "internalType": "bool",
          "name": "",
          "type": "bool"
        }
      ],
      "stateMutability": "view",
      "type": "function"
    },
    {
      "inputs": [],
      "name": "proxiableUUID",
      "outputs": [
        {
          "internalType": "bytes32",
          "name": "",
          "type": "bytes32"
        }
      ],
      "stateMutability": "view",
      "type": "function"
    },
    {
      "inputs": [],
      "name": "renounceOwnership",
      "outputs": [],
      "stateMutability": "nonpayable",
      "type": "function"
    },
    {
      "inputs": [
        {
          "internalType": "uint256",
          "name": "_days",
          "type": "uint256"
        }
      ],
      "name": "setDuration",
      "outputs": [],
      "stateMutability": "nonpayable",
      "type": "function"
    },
    {
      "inputs": [
        {
          "internalType": "bool",
          "name": "_trueOrFalse",
          "type": "bool"
        }
      ],
      "name": "setIsPayMonthlyRewards",
      "outputs": [],
      "stateMutability": "nonpayable",
      "type": "function"
    },
    {
      "inputs": [
        {
          "internalType": "uint8",
          "name": "_id",
          "type": "uint8"
        },
        {
          "internalType": "uint256",
          "name": "_selfBusinessLimit",
          "type": "uint256"
        },
        {
          "internalType": "uint256",
          "name": "_directBusinessLimit",
          "type": "uint256"
        },
        {
          "internalType": "uint256",
          "name": "_teamBusinessLimit",
          "type": "uint256"
        },
        {
          "internalType": "string",
          "name": "_rewardName",
          "type": "string"
        },
        {
          "internalType": "uint256",
          "name": "_appraisal",
          "type": "uint256"
        },
        {
          "internalType": "uint256",
          "name": "_selfTopUpLimit",
          "type": "uint256"
        },
        {
          "internalType": "uint256",
          "name": "_teamsToCount",
          "type": "uint256"
        }
      ],
      "name": "setMonthlyRewards",
      "outputs": [],
      "stateMutability": "nonpayable",
      "type": "function"
    },
    {
      "inputs": [
        {
          "internalType": "uint256",
          "name": "_timeInEpoch",
          "type": "uint256"
        }
      ],
      "name": "setStartTime",
      "outputs": [],
      "stateMutability": "nonpayable",
      "type": "function"
    },
    {
      "inputs": [
        {
          "internalType": "address",
          "name": "_contractAddress",
          "type": "address"
        }
      ],
      "name": "setVariablesContract",
      "outputs": [],
      "stateMutability": "nonpayable",
      "type": "function"
    },
    {
      "inputs": [
        {
          "internalType": "address",
          "name": "newOwner",
          "type": "address"
        }
      ],
      "name": "transferOwnership",
      "outputs": [],
      "stateMutability": "nonpayable",
      "type": "function"
    },
    {
      "inputs": [],
      "name": "unpause",
      "outputs": [],
      "stateMutability": "nonpayable",
      "type": "function"
    },
    {
      "inputs": [
        {
          "internalType": "address",
          "name": "_userAddress",
          "type": "address"
        },
        {
          "internalType": "uint256",
          "name": "_directBusiness",
          "type": "uint256"
        }
      ],
      "name": "updateDirectBusiness",
      "outputs": [],
      "stateMutability": "nonpayable",
      "type": "function"
    },
    {
      "inputs": [
        {
          "internalType": "address",
          "name": "_userAddress",
          "type": "address"
        },
        {
          "internalType": "uint256",
          "name": "_selfBusiness",
          "type": "uint256"
        }
      ],
      "name": "updateSelfBusiness",
      "outputs": [],
      "stateMutability": "nonpayable",
      "type": "function"
    },
    {
      "inputs": [
        {
          "internalType": "address",
          "name": "_userAddress",
          "type": "address"
        },
        {
          "internalType": "uint256",
          "name": "_teamBusiness",
          "type": "uint256"
        }
      ],
      "name": "updateTeamBusiness",
      "outputs": [],
      "stateMutability": "nonpayable",
      "type": "function"
    },
    {
      "inputs": [
        {
          "internalType": "address",
          "name": "newImplementation",
          "type": "address"
        }
      ],
      "name": "upgradeTo",
      "outputs": [],
      "stateMutability": "nonpayable",
      "type": "function"
    },
    {
      "inputs": [
        {
          "internalType": "address",
          "name": "newImplementation",
          "type": "address"
        },
        {
          "internalType": "bytes",
          "name": "data",
          "type": "bytes"
        }
      ],
      "name": "upgradeToAndCall",
      "outputs": [],
      "stateMutability": "payable",
      "type": "function"
    }
  ],
  "bytecode": "0x60a06040523060805234801561001457600080fd5b50608051612a3b61004c600039600081816107a8015281816107e8015281816108a6015281816108e601526109750152612a3b6000f3fe6080604052600436106101665760003560e01c80638129fc1c116100d1578063c74e13f31161008a578063f5a283ce11610064578063f5a283ce1461044c578063f6be71d11461046c578063f87127b41461048c578063fb47e016146104eb57600080fd5b8063c74e13f3146103d0578063e5ffb5df146103f3578063f2fde38b1461042c57600080fd5b80638129fc1c146102e75780638456cb59146102fc5780638da5cb5b14610311578063a9415f5d14610339578063b172ed4d14610359578063baa7e7c5146103a357600080fd5b80634f1ef286116101235780634f1ef2861461023957806352d1902d1461024c5780635c975abb1461026f5780635ee9964f14610292578063715018a6146102b25780637b9accaf146102c757600080fd5b80630ba0dba31461016b578063169529b91461018d57806333b153e3146101ad5780633659cfe6146101e45780633e0a322d146102045780633f4ba83a14610224575b600080fd5b34801561017757600080fd5b5061018b610186366004611f97565b610540565b005b34801561019957600080fd5b5061018b6101a8366004611fb4565b61056a565b3480156101b957600080fd5b506101cd6101c8366004612008565b6106c0565b6040516101db92919061208f565b60405180910390f35b3480156101f057600080fd5b5061018b6101ff366004611f97565b61079e565b34801561021057600080fd5b5061018b61021f3660046120b5565b61087d565b34801561023057600080fd5b5061018b61088a565b61018b610247366004612197565b61089c565b34801561025857600080fd5b50610261610968565b6040519081526020016101db565b34801561027b57600080fd5b5060335460ff1660405190151581526020016101db565b34801561029e57600080fd5b5061018b6102ad3660046121fb565b610a1b565b3480156102be57600080fd5b5061018b610ad8565b3480156102d357600080fd5b5061018b6102e23660046122a3565b610aea565b3480156102f357600080fd5b5061018b610b85565b34801561030857600080fd5b5061018b610cb0565b34801561031d57600080fd5b506065546040516001600160a01b0390911681526020016101db565b34801561034557600080fd5b5061018b610354366004611fb4565b610cc0565b34801561036557600080fd5b5060fb5460fc5460ff805460fd5460408051958652602086019490945291161515918301919091526001600160a01b031660608201526080016101db565b3480156103af57600080fd5b506103c36103be3660046122c0565b610d99565b6040516101db919061232b565b3480156103dc57600080fd5b506103e5610ee8565b6040516101db92919061239f565b3480156103ff57600080fd5b5061041361040e366004611f97565b610f51565b6040805160ff90931683526020830191909152016101db565b34801561043857600080fd5b5061018b610447366004611f97565b611211565b34801561045857600080fd5b5061018b610467366004611fb4565b611287565b34801561047857600080fd5b5061018b6104873660046120b5565b611361565b34801561049857600080fd5b506104d06104a7366004611f97565b6001600160a01b0316600090815261010160205260409020805460018201546002909201549092565b604080519384526020840192909252908201526060016101db565b3480156104f757600080fd5b5061050b610506366004611f97565b61137c565b6040516101db919081518152602080830151908201526040808301519082015260609182015115159181019190915260800190565b6105486113fd565b60fd80546001600160a01b0319166001600160a01b0392909216919091179055565b60fd54604051630935e01b60e21b81523360048201526001600160a01b03909116906324d7806c90602401602060405180830381865afa1580156105b2573d6000803e3d6000fd5b505050506040513d601f19601f820116820180604052508101906105d691906123cc565b6105fb5760405162461bcd60e51b81526004016105f2906123e9565b60405180910390fd5b4260fc5460fb5461060c919061242a565b11801561061a575060ff8054165b156106bc576001600160a01b0382166000908152610101602052604081206001810180549192849261064d90849061242a565b9091555050600381015460ff166106ba5760fe8054600180820183556000929092527f54075df80ec1ae6ac9100e1fd0ebf3246c17f5c933137af392011f4c5f61513a0180546001600160a01b0319166001600160a01b03861617905560038201805460ff191690911790555b505b5050565b606060008060006106d2878787611457565b915091508092508061ffff1667ffffffffffffffff8111156106f6576106f66120ce565b60405190808252806020026020018201604052801561071f578160200160208202803683370190505b50935060005b8161ffff168161ffff16101561079357828161ffff168151811061074b5761074b61243d565b6020026020010151858261ffff16815181106107695761076961243d565b6001600160a01b03909216602092830291909101909101528061078b81612453565b915050610725565b505050935093915050565b6001600160a01b037f00000000000000000000000000000000000000000000000000000000000000001630036107e65760405162461bcd60e51b81526004016105f290612474565b7f00000000000000000000000000000000000000000000000000000000000000006001600160a01b031661082f6000805160206129bf833981519152546001600160a01b031690565b6001600160a01b0316146108555760405162461bcd60e51b81526004016105f2906124c0565b61085e81611886565b6040805160008082526020820190925261087a9183919061188e565b50565b6108856113fd565b60fb55565b6108926113fd565b61089a6119fe565b565b6001600160a01b037f00000000000000000000000000000000000000000000000000000000000000001630036108e45760405162461bcd60e51b81526004016105f290612474565b7f00000000000000000000000000000000000000000000000000000000000000006001600160a01b031661092d6000805160206129bf833981519152546001600160a01b031690565b6001600160a01b0316146109535760405162461bcd60e51b81526004016105f2906124c0565b61095c82611886565b6106bc8282600161188e565b6000306001600160a01b037f00000000000000000000000000000000000000000000000000000000000000001614610a085760405162461bcd60e51b815260206004820152603860248201527f555550535570677261646561626c653a206d757374206e6f742062652063616c60448201527f6c6564207468726f7567682064656c656761746563616c6c000000000000000060648201526084016105f2565b506000805160206129bf83398151915290565b610a236113fd565b60408051610100808201835260ff8b811680845260208085018d81528587018d8152606087018d8152608088018d815260a089018d905260c089018c905260e089018b9052600095865296909352969092208551815460ff19169416939093178355905160018301559351600282015592516003840155519091906004820190610aad9082612594565b5060a0820151600582015560c0820151600682015560e0909101516007909101555050505050505050565b610ae06113fd565b61089a6000611a50565b60fd54604051630935e01b60e21b81523360048201526001600160a01b03909116906324d7806c90602401602060405180830381865afa158015610b32573d6000803e3d6000fd5b505050506040513d601f19601f82011682018060405250810190610b5691906123cc565b610b725760405162461bcd60e51b81526004016105f2906123e9565b60ff805460ff1916911515919091179055565b600054610100900460ff1615808015610ba55750600054600160ff909116105b80610bbf5750303b158015610bbf575060005460ff166001145b610c225760405162461bcd60e51b815260206004820152602e60248201527f496e697469616c697a61626c653a20636f6e747261637420697320616c72656160448201526d191e481a5b9a5d1a585b1a5e995960921b60648201526084016105f2565b6000805460ff191660011790558015610c45576000805461ff0019166101001790555b4260fb556228de8060fc55610c58611aa2565b610c60611ad1565b610c68611b00565b801561087a576000805461ff0019169055604051600181527f7f26b83ff96e1f2b6a682f133852f6798a09c465da95921460cefb38474024989060200160405180910390a150565b610cb86113fd565b61089a611b27565b60fd54604051630935e01b60e21b81523360048201526001600160a01b03909116906324d7806c90602401602060405180830381865afa158015610d08573d6000803e3d6000fd5b505050506040513d601f19601f82011682018060405250810190610d2c91906123cc565b610d485760405162461bcd60e51b81526004016105f2906123e9565b4260fc5460fb54610d59919061242a565b118015610d67575060ff8054165b156106bc576001600160a01b03821660009081526101016020526040812080549091839183919061064d90849061242a565b610de4604051806101000160405280600060ff168152602001600081526020016000815260200160008152602001606081526020016000815260200160008152602001600081525090565b60ff80831660009081526101006020818152604092839020835192830184528054909416825260018401549082015260028301549181019190915260038201546060820152600482018054919291608084019190610e419061250c565b80601f0160208091040260200160405190810160405280929190818152602001828054610e6d9061250c565b8015610eba5780601f10610e8f57610100808354040283529160200191610eba565b820191906000526020600020905b815481529060010190602001808311610e9d57829003601f168201915b5050505050815260200160058201548152602001600682015481526020016007820154815250509050919050565b6060600060fe805480602002602001604051908101604052809291908181526020018280548015610f4257602002820191906000526020600020905b81546001600160a01b03168152600190910190602001808311610f24575b50505050509150815190509091565b600080600060fd60009054906101000a90046001600160a01b03166001600160a01b0316637dad19db6040518163ffffffff1660e01b8152600401602060405180830381865afa158015610fa9573d6000803e3d6000fd5b505050506040513d601f19601f82011682018060405250810190610fcd919061265f565b604051637da3f00b60e11b81526001600160a01b038681166004830152919091169063fb47e01690602401600060405180830381865afa158015611015573d6000803e3d6000fd5b505050506040513d6000823e601f3d908101601f1916820160405261103d919081019061276f565b6001600160a01b0385166000908152610101602090815260408083208151608081018352815481526001820154938101939093526002810154918301919091526003015460ff16151560608201529192505b60148160ff1610156112095760ff808216600090815261010060208181526040808420815193840182528054909516835260018501549183019190915260028401549082015260038301546060820152600483018054929391926080840191906110f89061250c565b80601f01602080910402602001604051908101604052809291908181526020018280546111249061250c565b80156111715780601f1061114657610100808354040283529160200191611171565b820191906000526020600020905b81548152906001019060200180831161115457829003601f168201915b505050505081526020016005820154815260200160068201548152602001600782015481525050905060028260ff161180156111af57506020810151155b156111ba5750611209565b80604001518360200151101580156111db57506111db848260600151611b64565b156111f6578195508060c00151856111f3919061242a565b94505b5080611201816128da565b91505061108f565b505050915091565b6112196113fd565b6001600160a01b03811661127e5760405162461bcd60e51b815260206004820152602660248201527f4f776e61626c653a206e6577206f776e657220697320746865207a65726f206160448201526564647265737360d01b60648201526084016105f2565b61087a81611a50565b60fd54604051630935e01b60e21b81523360048201526001600160a01b03909116906324d7806c90602401602060405180830381865afa1580156112cf573d6000803e3d6000fd5b505050506040513d601f19601f820116820180604052508101906112f391906123cc565b61130f5760405162461bcd60e51b81526004016105f2906123e9565b4260fc5460fb54611320919061242a565b11801561132e575060ff8054165b156106bc576001600160a01b0382166000908152610101602052604081206002810180549192849261064d90849061242a565b6113696113fd565b61137681620151806128f9565b60fc5550565b6113a960405180608001604052806000815260200160008152602001600081526020016000151581525090565b506001600160a01b03166000908152610101602090815260409182902082516080810184528154815260018201549281019290925260028101549282019290925260039091015460ff161515606082015290565b6065546001600160a01b0316331461089a5760405162461bcd60e51b815260206004820181905260248201527f4f776e61626c653a2063616c6c6572206973206e6f7420746865206f776e657260448201526064016105f2565b606060006114658484612910565b61ffff1667ffffffffffffffff811115611481576114816120ce565b6040519080825280602002602001820160405280156114aa578160200160208202803683370190505b509150600060fe80548060200260200160405190810160405280929190818152602001828054801561150557602002820191906000526020600020905b81546001600160a01b031681526001909101906020018083116114e7575b505050505090505b8361ffff168561ffff161161187d5760006101016000838861ffff16815181106115395761153961243d565b60200260200101516001600160a01b03166001600160a01b031681526020019081526020016000206040518060800160405290816000820154815260200160018201548152602001600282015481526020016003820160009054906101000a900460ff1615151515815250509050600061010060008960ff1660ff168152602001908152602001600020604051806101000160405290816000820160009054906101000a900460ff1660ff1660ff16815260200160018201548152602001600282015481526020016003820154815260200160048201805461161a9061250c565b80601f01602080910402602001604051908101604052809291908181526020018280546116469061250c565b80156116935780601f1061166857610100808354040283529160200191611693565b820191906000526020600020905b81548152906001019060200180831161167657829003601f168201915b5050505050815260200160058201548152602001600682015481526020016007820154815250509050600060fd60009054906101000a90046001600160a01b03166001600160a01b0316637dad19db6040518163ffffffff1660e01b8152600401602060405180830381865afa158015611711573d6000803e3d6000fd5b505050506040513d601f19601f82011682018060405250810190611735919061265f565b6001600160a01b031663fb47e016858a61ffff16815181106117595761175961243d565b60200260200101516040518263ffffffff1660e01b815260040161178c91906001600160a01b0391909116815260200190565b600060405180830381865afa1580156117a9573d6000803e3d6000fd5b505050506040513d6000823e601f3d908101601f191682016040526117d1919081019061276f565b905081602001518360000151101580156117f357508160400151836020015110155b80156118085750611808818360600151611b64565b1561186757838861ffff16815181106118235761182361243d565b6020026020010151868661ffff16815181106118415761184161243d565b6001600160a01b03909216602092830291909101909101528461186381612453565b9550505b505050848061187590612453565b95505061150d565b50935093915050565b61087a6113fd565b7f4910fdfa16fed3260ed0e7147f7cc6da11a60208b5b9406d12a635614ffd91435460ff16156118c6576118c183611c49565b6106ba565b826001600160a01b03166352d1902d6040518163ffffffff1660e01b8152600401602060405180830381865afa925050508015611920575060408051601f3d908101601f1916820190925261191d9181019061292b565b60015b6119835760405162461bcd60e51b815260206004820152602e60248201527f45524331393637557067726164653a206e657720696d706c656d656e7461746960448201526d6f6e206973206e6f74205555505360901b60648201526084016105f2565b6000805160206129bf83398151915281146119f25760405162461bcd60e51b815260206004820152602960248201527f45524331393637557067726164653a20756e737570706f727465642070726f786044820152681a58589b195555525160ba1b60648201526084016105f2565b506106ba838383611ce5565b611a06611d10565b6033805460ff191690557f5db9ee0a495bf2e6ff9c91a7834c1ba4fdd244a5e8aa4e537bd38aeae4b073aa335b6040516001600160a01b03909116815260200160405180910390a1565b606580546001600160a01b038381166001600160a01b0319831681179093556040519116919082907f8be0079c531659141344cd1fd0a4f28419497f9722a3daafe3b4186f6b6457e090600090a35050565b600054610100900460ff16611ac95760405162461bcd60e51b81526004016105f290612944565b61089a611d59565b600054610100900460ff16611af85760405162461bcd60e51b81526004016105f290612944565b61089a611d8c565b600054610100900460ff1661089a5760405162461bcd60e51b81526004016105f290612944565b611b2f611dbc565b6033805460ff191660011790557f62e78cea01bee320cd4e420270b5ea74000d11b0c9f74754ebdbfc544b05a258611a333390565b60008060028460200151511115611c425760005b8460200151518161ffff161015611c40576000610101600087602001518461ffff1681518110611baa57611baa61243d565b6020908102919091018101516001600160a01b0316825281810192909252604090810160002081516080810183528154815260018201549381019390935260028101549183018290526003015460ff16151560608301529091508511611c185782611c14816128da565b9350505b60028360ff1610611c2d576001935050611c40565b5080611c3881612453565b915050611b78565b505b5092915050565b6001600160a01b0381163b611cb65760405162461bcd60e51b815260206004820152602d60248201527f455243313936373a206e657720696d706c656d656e746174696f6e206973206e60448201526c1bdd08184818dbdb9d1c9858dd609a1b60648201526084016105f2565b6000805160206129bf83398151915280546001600160a01b0319166001600160a01b0392909216919091179055565b611cee83611e02565b600082511180611cfb5750805b156106ba57611d0a8383611e42565b50505050565b60335460ff1661089a5760405162461bcd60e51b815260206004820152601460248201527314185d5cd8589b194e881b9bdd081c185d5cd95960621b60448201526064016105f2565b600054610100900460ff16611d805760405162461bcd60e51b81526004016105f290612944565b6033805460ff19169055565b600054610100900460ff16611db35760405162461bcd60e51b81526004016105f290612944565b61089a33611a50565b60335460ff161561089a5760405162461bcd60e51b815260206004820152601060248201526f14185d5cd8589b194e881c185d5cd95960821b60448201526064016105f2565b611e0b81611c49565b6040516001600160a01b038216907fbc7cd75a20ee27fd9adebab32041f755214dbc6bffa90cc0225b39da2e5c2d3b90600090a250565b60606001600160a01b0383163b611eaa5760405162461bcd60e51b815260206004820152602660248201527f416464726573733a2064656c65676174652063616c6c20746f206e6f6e2d636f6044820152651b9d1c9858dd60d21b60648201526084016105f2565b600080846001600160a01b031684604051611ec5919061298f565b600060405180830381855af49150503d8060008114611f00576040519150601f19603f3d011682016040523d82523d6000602084013e611f05565b606091505b5091509150611f2d82826040518060600160405280602781526020016129df60279139611f38565b925050505b92915050565b60608315611f47575081611f51565b611f518383611f58565b9392505050565b815115611f685781518083602001fd5b8060405162461bcd60e51b81526004016105f291906129ab565b6001600160a01b038116811461087a57600080fd5b600060208284031215611fa957600080fd5b8135611f5181611f82565b60008060408385031215611fc757600080fd5b8235611fd281611f82565b946020939093013593505050565b803560ff81168114611ff157600080fd5b919050565b803561ffff81168114611ff157600080fd5b60008060006060848603121561201d57600080fd5b61202684611fe0565b925061203460208501611ff6565b915061204260408501611ff6565b90509250925092565b600081518084526020808501945080840160005b838110156120845781516001600160a01b03168752958201959082019060010161205f565b509495945050505050565b6040815260006120a2604083018561204b565b905061ffff831660208301529392505050565b6000602082840312156120c757600080fd5b5035919050565b634e487b7160e01b600052604160045260246000fd5b604051610160810167ffffffffffffffff81118282101715612108576121086120ce565b60405290565b604051601f8201601f1916810167ffffffffffffffff81118282101715612137576121376120ce565b604052919050565b600067ffffffffffffffff831115612159576121596120ce565b61216c601f8401601f191660200161210e565b905082815283838301111561218057600080fd5b828260208301376000602084830101529392505050565b600080604083850312156121aa57600080fd5b82356121b581611f82565b9150602083013567ffffffffffffffff8111156121d157600080fd5b8301601f810185136121e257600080fd5b6121f18582356020840161213f565b9150509250929050565b600080600080600080600080610100898b03121561221857600080fd5b61222189611fe0565b9750602089013596506040890135955060608901359450608089013567ffffffffffffffff81111561225257600080fd5b8901601f81018b1361226357600080fd5b6122728b82356020840161213f565b989b979a50959894979660a0860135965060c08601359560e00135945092505050565b801515811461087a57600080fd5b6000602082840312156122b557600080fd5b8135611f5181612295565b6000602082840312156122d257600080fd5b611f5182611fe0565b60005b838110156122f65781810151838201526020016122de565b50506000910152565b600081518084526123178160208601602086016122db565b601f01601f19169290920160200192915050565b6020815260ff8251166020820152602082015160408201526040820151606082015260608201516080820152600060808301516101008060a08501526123756101208501836122ff565b915060a085015160c085015260c085015160e085015260e085015181850152508091505092915050565b6040815260006123b2604083018561204b565b90508260208301529392505050565b8051611ff181612295565b6000602082840312156123de57600080fd5b8151611f5181612295565b6020808252601190820152702cb7ba9030b932903737ba1030b236b4b760791b604082015260600190565b634e487b7160e01b600052601160045260246000fd5b80820180821115611f3257611f32612414565b634e487b7160e01b600052603260045260246000fd5b600061ffff80831681810361246a5761246a612414565b6001019392505050565b6020808252602c908201527f46756e6374696f6e206d7573742062652063616c6c6564207468726f7567682060408201526b19195b1959d85d1958d85b1b60a21b606082015260800190565b6020808252602c908201527f46756e6374696f6e206d7573742062652063616c6c6564207468726f7567682060408201526b6163746976652070726f787960a01b606082015260800190565b600181811c9082168061252057607f821691505b60208210810361254057634e487b7160e01b600052602260045260246000fd5b50919050565b601f8211156106ba57600081815260208120601f850160051c8101602086101561256d5750805b601f850160051c820191505b8181101561258c57828155600101612579565b505050505050565b815167ffffffffffffffff8111156125ae576125ae6120ce565b6125c2816125bc845461250c565b84612546565b602080601f8311600181146125f757600084156125df5750858301515b600019600386901b1c1916600185901b17855561258c565b600085815260208120601f198616915b8281101561262657888601518255948401946001909101908401612607565b50858210156126445787850151600019600388901b60f8161c191681555b5050505050600190811b01905550565b8051611ff181611f82565b60006020828403121561267157600080fd5b8151611f5181611f82565b600067ffffffffffffffff821115612696576126966120ce565b5060051b60200190565b600082601f8301126126b157600080fd5b815160206126c66126c18361267c565b61210e565b82815260059290921b840181019181810190868411156126e557600080fd5b8286015b848110156127095780516126fc81611f82565b83529183019183016126e9565b509695505050505050565b600082601f83011261272557600080fd5b815160206127356126c18361267c565b82815260059290921b8401810191818101908684111561275457600080fd5b8286015b848110156127095780518352918301918301612758565b60006020828403121561278157600080fd5b815167ffffffffffffffff8082111561279957600080fd5b9083019061016082860312156127ae57600080fd5b6127b66120e4565b6127bf83612654565b81526020830151828111156127d357600080fd5b6127df878286016126a0565b6020830152506040830151828111156127f757600080fd5b612803878286016126a0565b60408301525060608301518281111561281b57600080fd5b61282787828601612714565b6060830152506080830151608082015260a083015160a082015260c083015160c082015260e08301518281111561285d57600080fd5b61286987828601612714565b60e083015250610100808401518381111561288357600080fd5b61288f88828701612714565b82840152505061012080840151838111156128a957600080fd5b6128b588828701612714565b82840152505061014091506128cb8284016123c1565b91810191909152949350505050565b600060ff821660ff81036128f0576128f0612414565b60010192915050565b8082028115828204841417611f3257611f32612414565b61ffff828116828216039080821115611c4257611c42612414565b60006020828403121561293d57600080fd5b5051919050565b6020808252602b908201527f496e697469616c697a61626c653a20636f6e7472616374206973206e6f74206960408201526a6e697469616c697a696e6760a81b606082015260800190565b600082516129a18184602087016122db565b9190910192915050565b602081526000611f5160208301846122ff56fe360894a13ba1a3210667c828492db98dca3e2076cc3735a920a3ca505d382bbc416464726573733a206c6f772d6c6576656c2064656c65676174652063616c6c206661696c6564a2646970667358221220759367a35f49c9b2202d4fc7e16901e8ca643c08bc5431575c78412dfc0b133164736f6c63430008110033",
  "linkReferences": {},
  "deployedLinkReferences": {}
}