{
  "_format": "hh-sol-artifact-1",
  "contractName": "MonthlyRewardsUpgradeable",
  "sourceName": "contracts/MonthlyRewards.sol",
  "abi": [
    {
      "anonymous": false,
      "inputs": [
        {
          "indexed": false,
          "internalType": "address",
          "name": "previousAdmin",
          "type": "address"
        },
        {
          "indexed": false,
          "internalType": "address",
          "name": "newAdmin",
          "type": "address"
        }
      ],
      "name": "AdminChanged",
      "type": "event"
    },
    {
      "anonymous": false,
      "inputs": [
        {
          "indexed": true,
          "internalType": "address",
          "name": "beacon",
          "type": "address"
        }
      ],
      "name": "BeaconUpgraded",
      "type": "event"
    },
    {
      "anonymous": false,
      "inputs": [
        {
          "indexed": false,
          "internalType": "uint8",
          "name": "version",
          "type": "uint8"
        }
      ],
      "name": "Initialized",
      "type": "event"
    },
    {
      "anonymous": false,
      "inputs": [
        {
          "indexed": true,
          "internalType": "address",
          "name": "previousOwner",
          "type": "address"
        },
        {
          "indexed": true,
          "internalType": "address",
          "name": "newOwner",
          "type": "address"
        }
      ],
      "name": "OwnershipTransferred",
      "type": "event"
    },
    {
      "anonymous": false,
      "inputs": [
        {
          "indexed": false,
          "internalType": "address",
          "name": "account",
          "type": "address"
        }
      ],
      "name": "Paused",
      "type": "event"
    },
    {
      "anonymous": false,
      "inputs": [
        {
          "indexed": false,
          "internalType": "address",
          "name": "account",
          "type": "address"
        }
      ],
      "name": "Unpaused",
      "type": "event"
    },
    {
      "anonymous": false,
      "inputs": [
        {
          "indexed": true,
          "internalType": "address",
          "name": "implementation",
          "type": "address"
        }
      ],
      "name": "Upgraded",
      "type": "event"
    },
    {
      "inputs": [],
      "name": "getDefaults",
      "outputs": [
        {
          "internalType": "uint256",
          "name": "startTime",
          "type": "uint256"
        },
        {
          "internalType": "uint256",
          "name": "duration",
          "type": "uint256"
        },
        {
          "internalType": "bool",
          "name": "isPayRewards",
          "type": "bool"
        },
        {
          "internalType": "address",
          "name": "variablesContract",
          "type": "address"
        }
      ],
      "stateMutability": "view",
      "type": "function"
    },
    {
      "inputs": [
        {
          "internalType": "uint8",
          "name": "_id",
          "type": "uint8"
        }
      ],
      "name": "getRewardsByID",
      "outputs": [
        {
          "components": [
            {
              "internalType": "uint8",
              "name": "id",
              "type": "uint8"
            },
            {
              "internalType": "uint256",
              "name": "selfBusinessLimit",
              "type": "uint256"
            },
            {
              "internalType": "uint256",
              "name": "directBusinessLimit",
              "type": "uint256"
            },
            {
              "internalType": "uint256",
              "name": "teamBusinessLimit",
              "type": "uint256"
            },
            {
              "internalType": "string",
              "name": "rewardName",
              "type": "string"
            },
            {
              "internalType": "uint256",
              "name": "appraisal",
              "type": "uint256"
            },
            {
              "internalType": "uint256",
              "name": "selfTopUpLimit",
              "type": "uint256"
            },
            {
              "internalType": "uint256",
              "name": "teamsToCount",
              "type": "uint256"
            }
          ],
          "internalType": "struct StructMonthlyRewards",
          "name": "",
          "type": "tuple"
        }
      ],
      "stateMutability": "view",
      "type": "function"
    },
    {
      "inputs": [],
      "name": "getRewardsIDsCount",
      "outputs": [
        {
          "internalType": "uint8",
          "name": "rewardIDsCount",
          "type": "uint8"
        }
      ],
      "stateMutability": "view",
      "type": "function"
    },
    {
      "inputs": [
        {
          "internalType": "address",
          "name": "_userAddress",
          "type": "address"
        }
      ],
      "name": "getUserAccount",
      "outputs": [
        {
          "components": [
            {
              "internalType": "address",
              "name": "referrer",
              "type": "address"
            },
            {
              "internalType": "address[]",
              "name": "referee",
              "type": "address[]"
            },
            {
              "components": [
                {
                  "internalType": "address",
                  "name": "userAddress",
                  "type": "address"
                },
                {
                  "internalType": "uint256",
                  "name": "teamLevel",
                  "type": "uint256"
                }
              ],
              "internalType": "struct StructTeam[]",
              "name": "team",
              "type": "tuple[]"
            },
            {
              "internalType": "uint256[]",
              "name": "topUp",
              "type": "uint256[]"
            },
            {
              "internalType": "uint256",
              "name": "selfBusiness",
              "type": "uint256"
            },
            {
              "internalType": "uint256",
              "name": "directBusiness",
              "type": "uint256"
            },
            {
              "internalType": "uint256",
              "name": "teamBusiness",
              "type": "uint256"
            },
            {
              "internalType": "uint256[]",
              "name": "rewardsPaidReferral",
              "type": "uint256[]"
            },
            {
              "internalType": "uint256[]",
              "name": "rewardsPaidGlobal",
              "type": "uint256[]"
            },
            {
              "internalType": "uint256[]",
              "name": "rewardPaidPassive",
              "type": "uint256[]"
            },
            {
              "internalType": "bool",
              "name": "isInGlobalID",
              "type": "bool"
            },
            {
              "internalType": "bool",
              "name": "isListed",
              "type": "bool"
            }
          ],
          "internalType": "struct StructAccount",
          "name": "",
          "type": "tuple"
        }
      ],
      "stateMutability": "view",
      "type": "function"
    },
    {
      "inputs": [
        {
          "internalType": "address",
          "name": "_userAddress",
          "type": "address"
        }
      ],
      "name": "getUserBusiness",
      "outputs": [
        {
          "internalType": "uint256",
          "name": "selfBusiness",
          "type": "uint256"
        },
        {
          "internalType": "uint256",
          "name": "directBusiness",
          "type": "uint256"
        },
        {
          "internalType": "uint256",
          "name": "teamBusinessMain",
          "type": "uint256"
        },
        {
          "internalType": "uint256",
          "name": "teamBusinessOther",
          "type": "uint256"
        },
        {
          "internalType": "uint256",
          "name": "totalTeamBusiness",
          "type": "uint256"
        }
      ],
      "stateMutability": "view",
      "type": "function"
    },
    {
      "inputs": [],
      "name": "getUsersList",
      "outputs": [
        {
          "internalType": "address[]",
          "name": "usersList",
          "type": "address[]"
        },
        {
          "internalType": "uint256",
          "name": "usersCount",
          "type": "uint256"
        }
      ],
      "stateMutability": "view",
      "type": "function"
    },
    {
      "inputs": [],
      "name": "initialize",
      "outputs": [],
      "stateMutability": "nonpayable",
      "type": "function"
    },
    {
      "inputs": [],
      "name": "isMonthRewardActive",
      "outputs": [
        {
          "internalType": "bool",
          "name": "",
          "type": "bool"
        }
      ],
      "stateMutability": "view",
      "type": "function"
    },
    {
      "inputs": [],
      "name": "owner",
      "outputs": [
        {
          "internalType": "address",
          "name": "",
          "type": "address"
        }
      ],
      "stateMutability": "view",
      "type": "function"
    },
    {
      "inputs": [],
      "name": "pause",
      "outputs": [],
      "stateMutability": "nonpayable",
      "type": "function"
    },
    {
      "inputs": [],
      "name": "paused",
      "outputs": [
        {
          "internalType": "bool",
          "name": "",
          "type": "bool"
        }
      ],
      "stateMutability": "view",
      "type": "function"
    },
    {
      "inputs": [],
      "name": "proxiableUUID",
      "outputs": [
        {
          "internalType": "bytes32",
          "name": "",
          "type": "bytes32"
        }
      ],
      "stateMutability": "view",
      "type": "function"
    },
    {
      "inputs": [],
      "name": "renounceOwnership",
      "outputs": [],
      "stateMutability": "nonpayable",
      "type": "function"
    },
    {
      "inputs": [
        {
          "internalType": "uint256",
          "name": "_days",
          "type": "uint256"
        }
      ],
      "name": "setDuration",
      "outputs": [],
      "stateMutability": "nonpayable",
      "type": "function"
    },
    {
      "inputs": [
        {
          "internalType": "uint8",
          "name": "_id",
          "type": "uint8"
        },
        {
          "internalType": "uint256",
          "name": "_selfBusinessLimit",
          "type": "uint256"
        },
        {
          "internalType": "uint256",
          "name": "_directBusinessLimit",
          "type": "uint256"
        },
        {
          "internalType": "uint256",
          "name": "_teamBusinessLimit",
          "type": "uint256"
        },
        {
          "internalType": "string",
          "name": "_rewardName",
          "type": "string"
        },
        {
          "internalType": "uint256",
          "name": "_appraisal",
          "type": "uint256"
        },
        {
          "internalType": "uint256",
          "name": "_selfTopUpLimit",
          "type": "uint256"
        },
        {
          "internalType": "uint256",
          "name": "_teamsToCount",
          "type": "uint256"
        }
      ],
      "name": "setMonthlyRewards",
      "outputs": [],
      "stateMutability": "nonpayable",
      "type": "function"
    },
    {
      "inputs": [
        {
          "internalType": "uint256",
          "name": "_timeInEpoch",
          "type": "uint256"
        }
      ],
      "name": "setStartTime",
      "outputs": [],
      "stateMutability": "nonpayable",
      "type": "function"
    },
    {
      "inputs": [
        {
          "internalType": "address",
          "name": "_contractAddress",
          "type": "address"
        }
      ],
      "name": "setVariablesContract",
      "outputs": [],
      "stateMutability": "nonpayable",
      "type": "function"
    },
    {
      "inputs": [
        {
          "internalType": "address",
          "name": "newOwner",
          "type": "address"
        }
      ],
      "name": "transferOwnership",
      "outputs": [],
      "stateMutability": "nonpayable",
      "type": "function"
    },
    {
      "inputs": [],
      "name": "unpause",
      "outputs": [],
      "stateMutability": "nonpayable",
      "type": "function"
    },
    {
      "inputs": [
        {
          "internalType": "address",
          "name": "_userAddress",
          "type": "address"
        },
        {
          "internalType": "uint256",
          "name": "_directBusiness",
          "type": "uint256"
        }
      ],
      "name": "updateDirectBusiness",
      "outputs": [],
      "stateMutability": "nonpayable",
      "type": "function"
    },
    {
      "inputs": [
        {
          "internalType": "address",
          "name": "_userAddress",
          "type": "address"
        },
        {
          "internalType": "address",
          "name": "_refreeAddress",
          "type": "address"
        }
      ],
      "name": "updateReferee",
      "outputs": [],
      "stateMutability": "nonpayable",
      "type": "function"
    },
    {
      "inputs": [
        {
          "internalType": "address",
          "name": "_userAddress",
          "type": "address"
        },
        {
          "internalType": "uint256",
          "name": "_selfBusiness",
          "type": "uint256"
        }
      ],
      "name": "updateSelfBusiness",
      "outputs": [],
      "stateMutability": "nonpayable",
      "type": "function"
    },
    {
      "inputs": [
        {
          "internalType": "address",
          "name": "_userAddress",
          "type": "address"
        },
        {
          "internalType": "address",
          "name": "_teamAddress",
          "type": "address"
        },
        {
          "internalType": "uint256",
          "name": "_index",
          "type": "uint256"
        }
      ],
      "name": "updateTeam",
      "outputs": [],
      "stateMutability": "nonpayable",
      "type": "function"
    },
    {
      "inputs": [
        {
          "internalType": "address",
          "name": "_userAddress",
          "type": "address"
        },
        {
          "internalType": "uint256",
          "name": "_teamBusiness",
          "type": "uint256"
        }
      ],
      "name": "updateTeamBusiness",
      "outputs": [],
      "stateMutability": "nonpayable",
      "type": "function"
    },
    {
      "inputs": [
        {
          "internalType": "address",
          "name": "newImplementation",
          "type": "address"
        }
      ],
      "name": "upgradeTo",
      "outputs": [],
      "stateMutability": "nonpayable",
      "type": "function"
    },
    {
      "inputs": [
        {
          "internalType": "address",
          "name": "newImplementation",
          "type": "address"
        },
        {
          "internalType": "bytes",
          "name": "data",
          "type": "bytes"
        }
      ],
      "name": "upgradeToAndCall",
      "outputs": [],
      "stateMutability": "payable",
      "type": "function"
    }
  ],
  "bytecode": "0x60a06040523060805234801561001457600080fd5b5060805161288661004c60003960008181610683015281816106c301528181610781015281816107c1015261085001526128866000f3fe6080604052600436106101815760003560e01c80638da5cb5b116100d1578063f1cd4e031161008a578063f6be71d111610064578063f6be71d11461044c578063f87127b41461046c578063fb47e016146104b4578063fe9f2035146104e157600080fd5b8063f1cd4e03146103f7578063f2fde38b1461040c578063f5a283ce1461042c57600080fd5b80638da5cb5b146102fb578063a9415f5d14610323578063b172ed4d14610343578063baa7e7c514610387578063c74e13f3146103b4578063e01358f4146103d757600080fd5b806352d1902d1161013e5780636407a086116101185780636407a0861461029c578063715018a6146102bc5780638129fc1c146102d15780638456cb59146102e657600080fd5b806352d1902d146102305780635c975abb146102585780635ee9964f1461027c57600080fd5b80630ba0dba314610186578063169529b9146101a85780633659cfe6146101c85780633e0a322d146101e85780633f4ba83a146102085780634f1ef2861461021d575b600080fd5b34801561019257600080fd5b506101a66101a1366004611f67565b610508565b005b3480156101b457600080fd5b506101a66101c3366004611f82565b610532565b3480156101d457600080fd5b506101a66101e3366004611f67565b610679565b3480156101f457600080fd5b506101a6610203366004611fac565b610758565b34801561021457600080fd5b506101a6610765565b6101a661022b366004612051565b610777565b34801561023c57600080fd5b50610245610843565b6040519081526020015b60405180910390f35b34801561026457600080fd5b5060335460ff165b604051901515815260200161024f565b34801561028857600080fd5b506101a66102973660046120c4565b6108f7565b3480156102a857600080fd5b506101a66102b736600461215e565b6109b3565b3480156102c857600080fd5b506101a6610b28565b3480156102dd57600080fd5b506101a6610b3a565b3480156102f257600080fd5b506101a6610c65565b34801561030757600080fd5b506065546040516001600160a01b03909116815260200161024f565b34801561032f57600080fd5b506101a661033e366004611f82565b610c75565b34801561034f57600080fd5b50610358610d38565b604080519485526020850193909352901515918301919091526001600160a01b0316606082015260800161024f565b34801561039357600080fd5b506103a76103a236600461219a565b610d63565b60405161024f9190612205565b3480156103c057600080fd5b506103c9610eb1565b60405161024f9291906122bd565b3480156103e357600080fd5b506101a66103f23660046122df565b610f1a565b34801561040357600080fd5b5061026c611067565b34801561041857600080fd5b506101a6610427366004611f67565b611076565b34801561043857600080fd5b506101a6610447366004611f82565b6110ec565b34801561045857600080fd5b506101a6610467366004611fac565b6111af565b34801561047857600080fd5b5061048c610487366004611f67565b6111ca565b604080519586526020860194909452928401919091526060830152608082015260a00161024f565b3480156104c057600080fd5b506104d46104cf366004611f67565b611550565b60405161024f9190612386565b3480156104ed57600080fd5b506104f6611869565b60405160ff909116815260200161024f565b6105106118c1565b60fd80546001600160a01b0319166001600160a01b0392909216919091179055565b60fd54604051630935e01b60e21b81523360048201526001600160a01b03909116906324d7806c90602401602060405180830381865afa15801561057a573d6000803e3d6000fd5b505050506040513d601f19601f8201168201806040525081019061059e91906124a0565b6105c35760405162461bcd60e51b81526004016105ba906124c2565b60405180910390fd5b6105cb61191b565b15610675576001600160a01b038216600090815261010060205260408120600581018054919284926105fe908490612503565b9091555050600a810154610100900460ff166106735760fe80546001810182556000919091527f54075df80ec1ae6ac9100e1fd0ebf3246c17f5c933137af392011f4c5f61513a0180546001600160a01b0385166001600160a01b0319909116179055600a8101805461ff0019166101001790555b505b5050565b6001600160a01b037f00000000000000000000000000000000000000000000000000000000000000001630036106c15760405162461bcd60e51b81526004016105ba90612516565b7f00000000000000000000000000000000000000000000000000000000000000006001600160a01b031661070a60008051602061280a833981519152546001600160a01b031690565b6001600160a01b0316146107305760405162461bcd60e51b81526004016105ba90612562565b6107398161193a565b6040805160008082526020820190925261075591839190611942565b50565b6107606118c1565b60fb55565b61076d6118c1565b610775611ab2565b565b6001600160a01b037f00000000000000000000000000000000000000000000000000000000000000001630036107bf5760405162461bcd60e51b81526004016105ba90612516565b7f00000000000000000000000000000000000000000000000000000000000000006001600160a01b031661080860008051602061280a833981519152546001600160a01b031690565b6001600160a01b03161461082e5760405162461bcd60e51b81526004016105ba90612562565b6108378261193a565b61067582826001611942565b6000306001600160a01b037f000000000000000000000000000000000000000000000000000000000000000016146108e35760405162461bcd60e51b815260206004820152603860248201527f555550535570677261646561626c653a206d757374206e6f742062652063616c60448201527f6c6564207468726f7567682064656c656761746563616c6c000000000000000060648201526084016105ba565b5060008051602061280a8339815191525b90565b6108ff6118c1565b604080516101008101825260ff8a811680835260208084018c81528486018c8152606086018c8152608087018c815260a088018c905260c088018b905260e088018a9052600095865293869052969093208551815460ff191695169490941784555160018401559051600283015592516003820155915190919060048201906109889082612636565b5060a0820151600582015560c0820151600682015560e0909101516007909101555050505050505050565b60fd54604051630935e01b60e21b81523360048201526001600160a01b03909116906324d7806c90602401602060405180830381865afa1580156109fb573d6000803e3d6000fd5b505050506040513d601f19601f82011682018060405250810190610a1f91906124a0565b610a3b5760405162461bcd60e51b81526004016105ba906124c2565b610a4361191b565b15610673576001600160a01b03838116600090815261010060208181526040808420815180830190925287861682528183018781526002808301805460018082018355918952959097209351940290920180546001600160a01b03191693909616929092178555519390920192909255600a8101549091900460ff16610b225760fe80546001810182556000919091527f54075df80ec1ae6ac9100e1fd0ebf3246c17f5c933137af392011f4c5f61513a0180546001600160a01b0386166001600160a01b0319909116179055600a8101805461ff0019166101001790555b50505050565b610b306118c1565b6107756000611b04565b600054610100900460ff1615808015610b5a5750600054600160ff909116105b80610b745750303b158015610b74575060005460ff166001145b610bd75760405162461bcd60e51b815260206004820152602e60248201527f496e697469616c697a61626c653a20636f6e747261637420697320616c72656160448201526d191e481a5b9a5d1a585b1a5e995960921b60648201526084016105ba565b6000805460ff191660011790558015610bfa576000805461ff0019166101001790555b4260fb556241eb0060fc55610c0d611b56565b610c15611b85565b610c1d611bb4565b8015610755576000805461ff0019169055604051600181527f7f26b83ff96e1f2b6a682f133852f6798a09c465da95921460cefb38474024989060200160405180910390a150565b610c6d6118c1565b610775611bdb565b60fd54604051630935e01b60e21b81523360048201526001600160a01b03909116906324d7806c90602401602060405180830381865afa158015610cbd573d6000803e3d6000fd5b505050506040513d601f19601f82011682018060405250810190610ce191906124a0565b610cfd5760405162461bcd60e51b81526004016105ba906124c2565b610d0561191b565b15610675576001600160a01b038216600090815261010060205260408120600481018054919284926105fe908490612503565b60fb5460fc54600080610d4961191b565b60fd549495939490936001600160a01b0390911692509050565b610dae604051806101000160405280600060ff168152602001600081526020016000815260200160008152602001606081526020016000815260200160008152602001600081525090565b60ff828116600090815260208281526040918290208251610100810184528154909416845260018101549184019190915260028101549183019190915260038101546060830152600481018054608084019190610e0a906125ae565b80601f0160208091040260200160405190810160405280929190818152602001828054610e36906125ae565b8015610e835780601f10610e5857610100808354040283529160200191610e83565b820191906000526020600020905b815481529060010190602001808311610e6657829003601f168201915b5050505050815260200160058201548152602001600682015481526020016007820154815250509050919050565b6060600060fe805480602002602001604051908101604052809291908181526020018280548015610f0b57602002820191906000526020600020905b81546001600160a01b03168152600190910190602001808311610eed575b50505050509150815190509091565b60fd54604051630935e01b60e21b81523360048201526001600160a01b03909116906324d7806c90602401602060405180830381865afa158015610f62573d6000803e3d6000fd5b505050506040513d601f19601f82011682018060405250810190610f8691906124a0565b610fa25760405162461bcd60e51b81526004016105ba906124c2565b610faa61191b565b15610675576001600160a01b0382811660009081526101006020818152604083206001808201805491820181558552919093200180546001600160a01b03191693851693909317909255600a8101549091900460ff166106735760fe80546001810182556000919091527f54075df80ec1ae6ac9100e1fd0ebf3246c17f5c933137af392011f4c5f61513a0180546001600160a01b0385166001600160a01b0319909116179055600a8101805461ff001916610100179055505050565b600061107161191b565b905090565b61107e6118c1565b6001600160a01b0381166110e35760405162461bcd60e51b815260206004820152602660248201527f4f776e61626c653a206e6577206f776e657220697320746865207a65726f206160448201526564647265737360d01b60648201526084016105ba565b61075581611b04565b60fd54604051630935e01b60e21b81523360048201526001600160a01b03909116906324d7806c90602401602060405180830381865afa158015611134573d6000803e3d6000fd5b505050506040513d601f19601f8201168201806040525081019061115891906124a0565b6111745760405162461bcd60e51b81526004016105ba906124c2565b61117c61191b565b15610675576001600160a01b038216600090815261010060205260408120600681018054919284926105fe908490612503565b6111b76118c1565b6111c481620151806126f6565b60fc5550565b6001600160a01b0381166000908152610100602052604081206004810154600582015460068301549193909290918291829161120790869061270d565b9150600060028260010180549050106115455760005b600183015461ffff821610156115375760006101006000856001018461ffff168154811061124d5761124d612720565b60009182526020808320909101546001600160a01b039081168452838201949094526040928301909120825161018081018452815490941684526001810180548451818502810185019095528085529193858401939092908301828280156112de57602002820191906000526020600020905b81546001600160a01b031681526001909101906020018083116112c0575b5050505050815260200160028201805480602002602001604051908101604052809291908181526020016000905b82821015611354576000848152602090819020604080518082019091526002850290910180546001600160a01b0316825260019081015482840152908352909201910161130c565b505050508152602001600382018054806020026020016040519081016040528092919081815260200182805480156113ab57602002820191906000526020600020905b815481526020019060010190808311611397575b505050505081526020016004820154815260200160058201548152602001600682015481526020016007820180548060200260200160405190810160405280929190818152602001828054801561142157602002820191906000526020600020905b81548152602001906001019080831161140d575b505050505081526020016008820180548060200260200160405190810160405280929190818152602001828054801561147957602002820191906000526020600020905b815481526020019060010190808311611465575b50505050508152602001600982018054806020026020016040519081016040528092919081815260200182805480156114d157602002820191906000526020600020905b8154815260200190600101908083116114bd575b5050509183525050600a919091015460ff8082161515602084015261010090910416151560409091015260c0810151909150871015611512578060c0015196505b60c08101516115219084612503565b925050808061152f90612736565b91505061121d565b50611542858261270d565b93505b505091939590929450565b6115c160405180610180016040528060006001600160a01b031681526020016060815260200160608152602001606081526020016000815260200160008152602001600081526020016060815260200160608152602001606081526020016000151581526020016000151581525090565b6001600160a01b03808316600090815261010060209081526040918290208251610180810184528154909416845260018101805484518185028101850190955280855291938584019390929083018282801561164657602002820191906000526020600020905b81546001600160a01b03168152600190910190602001808311611628575b5050505050815260200160028201805480602002602001604051908101604052809291908181526020016000905b828210156116bc576000848152602090819020604080518082019091526002850290910180546001600160a01b03168252600190810154828401529083529092019101611674565b5050505081526020016003820180548060200260200160405190810160405280929190818152602001828054801561171357602002820191906000526020600020905b8154815260200190600101908083116116ff575b505050505081526020016004820154815260200160058201548152602001600682015481526020016007820180548060200260200160405190810160405280929190818152602001828054801561178957602002820191906000526020600020905b815481526020019060010190808311611775575b50505050508152602001600882018054806020026020016040519081016040528092919081815260200182805480156117e157602002820191906000526020600020905b8154815260200190600101908083116117cd575b505050505081526020016009820180548060200260200160405190810160405280929190818152602001828054801561183957602002820191906000526020600020905b815481526020019060010190808311611825575b5050509183525050600a919091015460ff8082161515602084015261010090910416151560409091015292915050565b6000805b600a8160ff1610156118bd5760008160ff161180156118a2575060ff8181166000908152602091909152604090206001015415155b156118ab578091505b806118b581612757565b91505061186d565b5090565b6065546001600160a01b031633146107755760405162461bcd60e51b815260206004820181905260248201527f4f776e61626c653a2063616c6c6572206973206e6f7420746865206f776e657260448201526064016105ba565b600060fc5460fb5461192d9190612503565b4210156108f45750600190565b6107556118c1565b7f4910fdfa16fed3260ed0e7147f7cc6da11a60208b5b9406d12a635614ffd91435460ff161561197a5761197583611c18565b610673565b826001600160a01b03166352d1902d6040518163ffffffff1660e01b8152600401602060405180830381865afa9250505080156119d4575060408051601f3d908101601f191682019092526119d191810190612776565b60015b611a375760405162461bcd60e51b815260206004820152602e60248201527f45524331393637557067726164653a206e657720696d706c656d656e7461746960448201526d6f6e206973206e6f74205555505360901b60648201526084016105ba565b60008051602061280a8339815191528114611aa65760405162461bcd60e51b815260206004820152602960248201527f45524331393637557067726164653a20756e737570706f727465642070726f786044820152681a58589b195555525160ba1b60648201526084016105ba565b50610673838383611cb4565b611aba611cd9565b6033805460ff191690557f5db9ee0a495bf2e6ff9c91a7834c1ba4fdd244a5e8aa4e537bd38aeae4b073aa335b6040516001600160a01b03909116815260200160405180910390a1565b606580546001600160a01b038381166001600160a01b0319831681179093556040519116919082907f8be0079c531659141344cd1fd0a4f28419497f9722a3daafe3b4186f6b6457e090600090a35050565b600054610100900460ff16611b7d5760405162461bcd60e51b81526004016105ba9061278f565b610775611d22565b600054610100900460ff16611bac5760405162461bcd60e51b81526004016105ba9061278f565b610775611d55565b600054610100900460ff166107755760405162461bcd60e51b81526004016105ba9061278f565b611be3611d85565b6033805460ff191660011790557f62e78cea01bee320cd4e420270b5ea74000d11b0c9f74754ebdbfc544b05a258611ae73390565b6001600160a01b0381163b611c855760405162461bcd60e51b815260206004820152602d60248201527f455243313936373a206e657720696d706c656d656e746174696f6e206973206e60448201526c1bdd08184818dbdb9d1c9858dd609a1b60648201526084016105ba565b60008051602061280a83398151915280546001600160a01b0319166001600160a01b0392909216919091179055565b611cbd83611dcb565b600082511180611cca5750805b1561067357610b228383611e0b565b60335460ff166107755760405162461bcd60e51b815260206004820152601460248201527314185d5cd8589b194e881b9bdd081c185d5cd95960621b60448201526064016105ba565b600054610100900460ff16611d495760405162461bcd60e51b81526004016105ba9061278f565b6033805460ff19169055565b600054610100900460ff16611d7c5760405162461bcd60e51b81526004016105ba9061278f565b61077533611b04565b60335460ff16156107755760405162461bcd60e51b815260206004820152601060248201526f14185d5cd8589b194e881c185d5cd95960821b60448201526064016105ba565b611dd481611c18565b6040516001600160a01b038216907fbc7cd75a20ee27fd9adebab32041f755214dbc6bffa90cc0225b39da2e5c2d3b90600090a250565b60606001600160a01b0383163b611e735760405162461bcd60e51b815260206004820152602660248201527f416464726573733a2064656c65676174652063616c6c20746f206e6f6e2d636f6044820152651b9d1c9858dd60d21b60648201526084016105ba565b600080846001600160a01b031684604051611e8e91906127da565b600060405180830381855af49150503d8060008114611ec9576040519150601f19603f3d011682016040523d82523d6000602084013e611ece565b606091505b5091509150611ef6828260405180606001604052806027815260200161282a60279139611f01565b925050505b92915050565b60608315611f10575081611f1a565b611f1a8383611f21565b9392505050565b815115611f315781518083602001fd5b8060405162461bcd60e51b81526004016105ba91906127f6565b80356001600160a01b0381168114611f6257600080fd5b919050565b600060208284031215611f7957600080fd5b611f1a82611f4b565b60008060408385031215611f9557600080fd5b611f9e83611f4b565b946020939093013593505050565b600060208284031215611fbe57600080fd5b5035919050565b634e487b7160e01b600052604160045260246000fd5b600067ffffffffffffffff80841115611ff657611ff6611fc5565b604051601f8501601f19908116603f0116810190828211818310171561201e5761201e611fc5565b8160405280935085815286868601111561203757600080fd5b858560208301376000602087830101525050509392505050565b6000806040838503121561206457600080fd5b61206d83611f4b565b9150602083013567ffffffffffffffff81111561208957600080fd5b8301601f8101851361209a57600080fd5b6120a985823560208401611fdb565b9150509250929050565b803560ff81168114611f6257600080fd5b600080600080600080600080610100898b0312156120e157600080fd5b6120ea896120b3565b9750602089013596506040890135955060608901359450608089013567ffffffffffffffff81111561211b57600080fd5b8901601f81018b1361212c57600080fd5b61213b8b823560208401611fdb565b989b979a50959894979660a0860135965060c08601359560e00135945092505050565b60008060006060848603121561217357600080fd5b61217c84611f4b565b925061218a60208501611f4b565b9150604084013590509250925092565b6000602082840312156121ac57600080fd5b611f1a826120b3565b60005b838110156121d05781810151838201526020016121b8565b50506000910152565b600081518084526121f18160208601602086016121b5565b601f01601f19169290920160200192915050565b6020815260ff8251166020820152602082015160408201526040820151606082015260608201516080820152600060808301516101008060a085015261224f6101208501836121d9565b915060a085015160c085015260c085015160e085015260e085015181850152508091505092915050565b600081518084526020808501945080840160005b838110156122b25781516001600160a01b03168752958201959082019060010161228d565b509495945050505050565b6040815260006122d06040830185612279565b90508260208301529392505050565b600080604083850312156122f257600080fd5b6122fb83611f4b565b915061230960208401611f4b565b90509250929050565b600081518084526020808501945080840160005b838110156122b257815180516001600160a01b031688528301518388015260409096019590820190600101612326565b600081518084526020808501945080840160005b838110156122b25781518752958201959082019060010161236a565b602081526123a06020820183516001600160a01b03169052565b600060208301516101808060408501526123be6101a0850183612279565b91506040850151601f19808685030160608701526123dc8483612312565b935060608701519150808685030160808701526123f98483612356565b9350608087015160a087015260a087015160c087015260c087015160e087015260e087015191506101008187860301818801526124368584612356565b9450808801519250506101208187860301818801526124558584612356565b9450808801519250506101408187860301818801526124748584612356565b9450808801519250505061016061248e8187018315159052565b90950151151593019290925250919050565b6000602082840312156124b257600080fd5b81518015158114611f1a57600080fd5b6020808252601190820152702cb7ba9030b932903737ba1030b236b4b760791b604082015260600190565b634e487b7160e01b600052601160045260246000fd5b80820180821115611efb57611efb6124ed565b6020808252602c908201527f46756e6374696f6e206d7573742062652063616c6c6564207468726f7567682060408201526b19195b1959d85d1958d85b1b60a21b606082015260800190565b6020808252602c908201527f46756e6374696f6e206d7573742062652063616c6c6564207468726f7567682060408201526b6163746976652070726f787960a01b606082015260800190565b600181811c908216806125c257607f821691505b6020821081036125e257634e487b7160e01b600052602260045260246000fd5b50919050565b601f82111561067357600081815260208120601f850160051c8101602086101561260f5750805b601f850160051c820191505b8181101561262e5782815560010161261b565b505050505050565b815167ffffffffffffffff81111561265057612650611fc5565b6126648161265e84546125ae565b846125e8565b602080601f83116001811461269957600084156126815750858301515b600019600386901b1c1916600185901b17855561262e565b600085815260208120601f198616915b828110156126c8578886015182559484019460019091019084016126a9565b50858210156126e65787850151600019600388901b60f8161c191681555b5050505050600190811b01905550565b8082028115828204841417611efb57611efb6124ed565b81810381811115611efb57611efb6124ed565b634e487b7160e01b600052603260045260246000fd5b600061ffff80831681810361274d5761274d6124ed565b6001019392505050565b600060ff821660ff810361276d5761276d6124ed565b60010192915050565b60006020828403121561278857600080fd5b5051919050565b6020808252602b908201527f496e697469616c697a61626c653a20636f6e7472616374206973206e6f74206960408201526a6e697469616c697a696e6760a81b606082015260800190565b600082516127ec8184602087016121b5565b9190910192915050565b602081526000611f1a60208301846121d956fe360894a13ba1a3210667c828492db98dca3e2076cc3735a920a3ca505d382bbc416464726573733a206c6f772d6c6576656c2064656c65676174652063616c6c206661696c6564a264697066735822122009ef306a3ef94bde220dc83dd663081c4468029e9e0ff14b84ec1daf97464c7064736f6c63430008110033",
  "linkReferences": {},
  "deployedLinkReferences": {}
}