{
  "_format": "hh-sol-artifact-1",
  "contractName": "MonthlyRewardsUpgradeable",
  "sourceName": "contracts/MonthlyRewards.sol",
  "abi": [
    {
      "anonymous": false,
      "inputs": [
        {
          "indexed": false,
          "internalType": "address",
          "name": "previousAdmin",
          "type": "address"
        },
        {
          "indexed": false,
          "internalType": "address",
          "name": "newAdmin",
          "type": "address"
        }
      ],
      "name": "AdminChanged",
      "type": "event"
    },
    {
      "anonymous": false,
      "inputs": [
        {
          "indexed": true,
          "internalType": "address",
          "name": "beacon",
          "type": "address"
        }
      ],
      "name": "BeaconUpgraded",
      "type": "event"
    },
    {
      "anonymous": false,
      "inputs": [
        {
          "indexed": false,
          "internalType": "uint8",
          "name": "version",
          "type": "uint8"
        }
      ],
      "name": "Initialized",
      "type": "event"
    },
    {
      "anonymous": false,
      "inputs": [
        {
          "indexed": true,
          "internalType": "address",
          "name": "previousOwner",
          "type": "address"
        },
        {
          "indexed": true,
          "internalType": "address",
          "name": "newOwner",
          "type": "address"
        }
      ],
      "name": "OwnershipTransferred",
      "type": "event"
    },
    {
      "anonymous": false,
      "inputs": [
        {
          "indexed": false,
          "internalType": "address",
          "name": "account",
          "type": "address"
        }
      ],
      "name": "Paused",
      "type": "event"
    },
    {
      "anonymous": false,
      "inputs": [
        {
          "indexed": false,
          "internalType": "address",
          "name": "account",
          "type": "address"
        }
      ],
      "name": "Unpaused",
      "type": "event"
    },
    {
      "anonymous": false,
      "inputs": [
        {
          "indexed": true,
          "internalType": "address",
          "name": "implementation",
          "type": "address"
        }
      ],
      "name": "Upgraded",
      "type": "event"
    },
    {
      "inputs": [
        {
          "internalType": "uint8",
          "name": "_rewardId",
          "type": "uint8"
        },
        {
          "internalType": "uint16",
          "name": "_from",
          "type": "uint16"
        },
        {
          "internalType": "uint16",
          "name": "_to",
          "type": "uint16"
        }
      ],
      "name": "getRewardQualifiedUsersList",
      "outputs": [
        {
          "internalType": "address[]",
          "name": "_userAddress",
          "type": "address[]"
        },
        {
          "internalType": "uint16",
          "name": "_achieversListCount",
          "type": "uint16"
        }
      ],
      "stateMutability": "view",
      "type": "function"
    },
    {
      "inputs": [
        {
          "internalType": "address",
          "name": "_userAddress",
          "type": "address"
        }
      ],
      "name": "getUserAccount",
      "outputs": [
        {
          "components": [
            {
              "internalType": "uint256",
              "name": "selfBusiness",
              "type": "uint256"
            },
            {
              "internalType": "uint256",
              "name": "directBusiness",
              "type": "uint256"
            },
            {
              "internalType": "uint256",
              "name": "teamBusiness",
              "type": "uint256"
            },
            {
              "internalType": "bool",
              "name": "isListed",
              "type": "bool"
            }
          ],
          "internalType": "struct StructAccountRewards",
          "name": "",
          "type": "tuple"
        }
      ],
      "stateMutability": "view",
      "type": "function"
    },
    {
      "inputs": [
        {
          "internalType": "address",
          "name": "_userAddress",
          "type": "address"
        }
      ],
      "name": "getUserBusiness",
      "outputs": [
        {
          "internalType": "uint256",
          "name": "_selfBusiness",
          "type": "uint256"
        },
        {
          "internalType": "uint256",
          "name": "_directBusiness",
          "type": "uint256"
        },
        {
          "internalType": "uint256",
          "name": "_teamBusiness",
          "type": "uint256"
        }
      ],
      "stateMutability": "view",
      "type": "function"
    },
    {
      "inputs": [
        {
          "internalType": "address",
          "name": "_address",
          "type": "address"
        }
      ],
      "name": "getUserRewardQualified",
      "outputs": [
        {
          "internalType": "uint8",
          "name": "rewardId",
          "type": "uint8"
        },
        {
          "internalType": "uint256",
          "name": "valueToTopUp",
          "type": "uint256"
        }
      ],
      "stateMutability": "view",
      "type": "function"
    },
    {
      "inputs": [],
      "name": "getUsersList",
      "outputs": [
        {
          "internalType": "address[]",
          "name": "usersList",
          "type": "address[]"
        },
        {
          "internalType": "uint256",
          "name": "usersCount",
          "type": "uint256"
        }
      ],
      "stateMutability": "view",
      "type": "function"
    },
    {
      "inputs": [],
      "name": "initialize",
      "outputs": [],
      "stateMutability": "nonpayable",
      "type": "function"
    },
    {
      "inputs": [],
      "name": "isPayMonthlyRewards",
      "outputs": [
        {
          "internalType": "bool",
          "name": "",
          "type": "bool"
        }
      ],
      "stateMutability": "view",
      "type": "function"
    },
    {
      "inputs": [],
      "name": "owner",
      "outputs": [
        {
          "internalType": "address",
          "name": "",
          "type": "address"
        }
      ],
      "stateMutability": "view",
      "type": "function"
    },
    {
      "inputs": [],
      "name": "pause",
      "outputs": [],
      "stateMutability": "nonpayable",
      "type": "function"
    },
    {
      "inputs": [],
      "name": "paused",
      "outputs": [
        {
          "internalType": "bool",
          "name": "",
          "type": "bool"
        }
      ],
      "stateMutability": "view",
      "type": "function"
    },
    {
      "inputs": [],
      "name": "proxiableUUID",
      "outputs": [
        {
          "internalType": "bytes32",
          "name": "",
          "type": "bytes32"
        }
      ],
      "stateMutability": "view",
      "type": "function"
    },
    {
      "inputs": [],
      "name": "renounceOwnership",
      "outputs": [],
      "stateMutability": "nonpayable",
      "type": "function"
    },
    {
      "inputs": [
        {
          "internalType": "bool",
          "name": "_trueOrFalse",
          "type": "bool"
        }
      ],
      "name": "setIsPayMonthlyRewards",
      "outputs": [],
      "stateMutability": "nonpayable",
      "type": "function"
    },
    {
      "inputs": [
        {
          "internalType": "address",
          "name": "newOwner",
          "type": "address"
        }
      ],
      "name": "transferOwnership",
      "outputs": [],
      "stateMutability": "nonpayable",
      "type": "function"
    },
    {
      "inputs": [],
      "name": "unpause",
      "outputs": [],
      "stateMutability": "nonpayable",
      "type": "function"
    },
    {
      "inputs": [
        {
          "internalType": "address",
          "name": "_userAddress",
          "type": "address"
        },
        {
          "internalType": "uint256",
          "name": "_directBusiness",
          "type": "uint256"
        }
      ],
      "name": "updateDirectBusiness",
      "outputs": [],
      "stateMutability": "nonpayable",
      "type": "function"
    },
    {
      "inputs": [
        {
          "internalType": "address",
          "name": "_userAddress",
          "type": "address"
        },
        {
          "internalType": "uint256",
          "name": "_selfBusiness",
          "type": "uint256"
        }
      ],
      "name": "updateSelfBusiness",
      "outputs": [],
      "stateMutability": "nonpayable",
      "type": "function"
    },
    {
      "inputs": [
        {
          "internalType": "address",
          "name": "_userAddress",
          "type": "address"
        },
        {
          "internalType": "uint256",
          "name": "_teamBusiness",
          "type": "uint256"
        }
      ],
      "name": "updateTeamBusiness",
      "outputs": [],
      "stateMutability": "nonpayable",
      "type": "function"
    },
    {
      "inputs": [
        {
          "internalType": "address",
          "name": "newImplementation",
          "type": "address"
        }
      ],
      "name": "upgradeTo",
      "outputs": [],
      "stateMutability": "nonpayable",
      "type": "function"
    },
    {
      "inputs": [
        {
          "internalType": "address",
          "name": "newImplementation",
          "type": "address"
        },
        {
          "internalType": "bytes",
          "name": "data",
          "type": "bytes"
        }
      ],
      "name": "upgradeToAndCall",
      "outputs": [],
      "stateMutability": "payable",
      "type": "function"
    }
  ],
  "bytecode": "0x60a06040523060805234801561001457600080fd5b5060805161240061004c6000396000818161064b0152818161068b0152818161073c0152818161077c015261080b01526124006000f3fe60806040526004361061011f5760003560e01c80638456cb59116100a0578063e5ffb5df11610064578063e5ffb5df146102ed578063f2fde38b14610326578063f5a283ce14610346578063f87127b414610366578063fb47e016146103c557600080fd5b80638456cb59146102565780638da5cb5b1461026b5780639cb63d7714610293578063a9415f5d146102aa578063c74e13f3146102ca57600080fd5b806352d1902d116100e757806352d1902d146101c55780635c975abb146101e8578063715018a61461020c5780637b9accaf146102215780638129fc1c1461024157600080fd5b8063169529b91461012457806333b153e3146101465780633659cfe61461017d5780633f4ba83a1461019d5780634f1ef286146101b2575b600080fd5b34801561013057600080fd5b5061014461013f366004611bec565b61041a565b005b34801561015257600080fd5b50610166610161366004611c2f565b610563565b604051610174929190611cbe565b60405180910390f35b34801561018957600080fd5b50610144610198366004611ce4565b610641565b3480156101a957600080fd5b50610144610720565b6101446101c0366004611d72565b610732565b3480156101d157600080fd5b506101da6107fe565b604051908152602001610174565b3480156101f457600080fd5b5060335460ff165b6040519015158152602001610174565b34801561021857600080fd5b506101446108b1565b34801561022d57600080fd5b5061014461023c366004611e28565b6108c3565b34801561024d57600080fd5b5061014461095e565b34801561026257600080fd5b50610144610a89565b34801561027757600080fd5b506065546040516001600160a01b039091168152602001610174565b34801561029f57600080fd5b5060ff8054166101fc565b3480156102b657600080fd5b506101446102c5366004611bec565b610a99565b3480156102d657600080fd5b506102df610b65565b604051610174929190611e45565b3480156102f957600080fd5b5061030d610308366004611ce4565b610bce565b6040805160ff9093168352602083019190915201610174565b34801561033257600080fd5b50610144610341366004611ce4565b610e8e565b34801561035257600080fd5b50610144610361366004611bec565b610f04565b34801561037257600080fd5b506103aa610381366004611ce4565b6001600160a01b0316600090815261010160205260409020805460018201546002909201549092565b60408051938452602084019290925290820152606001610174565b3480156103d157600080fd5b506103e56103e0366004611ce4565b610fd1565b604051610174919081518152602080830151908201526040808301519082015260609182015115159181019190915260800190565b60fd54604051630935e01b60e21b81523360048201526001600160a01b03909116906324d7806c90602401602060405180830381865afa158015610462573d6000803e3d6000fd5b505050506040513d601f19601f820116820180604052508101906104869190611e72565b6104ab5760405162461bcd60e51b81526004016104a290611e8f565b60405180910390fd5b4260fc5460fb546104bc9190611ed0565b111561055f576001600160a01b038216600090815261010160205260408120600181018054919284926104f0908490611ed0565b9091555050600381015460ff1661055d5760fe8054600180820183556000929092527f54075df80ec1ae6ac9100e1fd0ebf3246c17f5c933137af392011f4c5f61513a0180546001600160a01b0319166001600160a01b03861617905560038201805460ff191690911790555b505b5050565b60606000806000610575878787611052565b915091508092508061ffff1667ffffffffffffffff81111561059957610599611d01565b6040519080825280602002602001820160405280156105c2578160200160208202803683370190505b50935060005b8161ffff168161ffff16101561063657828161ffff16815181106105ee576105ee611ee3565b6020026020010151858261ffff168151811061060c5761060c611ee3565b6001600160a01b03909216602092830291909101909101528061062e81611ef9565b9150506105c8565b505050935093915050565b6001600160a01b037f00000000000000000000000000000000000000000000000000000000000000001630036106895760405162461bcd60e51b81526004016104a290611f1a565b7f00000000000000000000000000000000000000000000000000000000000000006001600160a01b03166106d2600080516020612384833981519152546001600160a01b031690565b6001600160a01b0316146106f85760405162461bcd60e51b81526004016104a290611f66565b61070181611481565b6040805160008082526020820190925261071d91839190611489565b50565b6107286115f9565b610730611653565b565b6001600160a01b037f000000000000000000000000000000000000000000000000000000000000000016300361077a5760405162461bcd60e51b81526004016104a290611f1a565b7f00000000000000000000000000000000000000000000000000000000000000006001600160a01b03166107c3600080516020612384833981519152546001600160a01b031690565b6001600160a01b0316146107e95760405162461bcd60e51b81526004016104a290611f66565b6107f282611481565b61055f82826001611489565b6000306001600160a01b037f0000000000000000000000000000000000000000000000000000000000000000161461089e5760405162461bcd60e51b815260206004820152603860248201527f555550535570677261646561626c653a206d757374206e6f742062652063616c60448201527f6c6564207468726f7567682064656c656761746563616c6c000000000000000060648201526084016104a2565b5060008051602061238483398151915290565b6108b96115f9565b61073060006116a5565b60fd54604051630935e01b60e21b81523360048201526001600160a01b03909116906324d7806c90602401602060405180830381865afa15801561090b573d6000803e3d6000fd5b505050506040513d601f19601f8201168201806040525081019061092f9190611e72565b61094b5760405162461bcd60e51b81526004016104a290611e8f565b60ff805460ff1916911515919091179055565b600054610100900460ff161580801561097e5750600054600160ff909116105b806109985750303b158015610998575060005460ff166001145b6109fb5760405162461bcd60e51b815260206004820152602e60248201527f496e697469616c697a61626c653a20636f6e747261637420697320616c72656160448201526d191e481a5b9a5d1a585b1a5e995960921b60648201526084016104a2565b6000805460ff191660011790558015610a1e576000805461ff0019166101001790555b4260fb5562278d0060fc55610a316116f7565b610a39611726565b610a41611755565b801561071d576000805461ff0019169055604051600181527f7f26b83ff96e1f2b6a682f133852f6798a09c465da95921460cefb38474024989060200160405180910390a150565b610a916115f9565b61073061177c565b60fd54604051630935e01b60e21b81523360048201526001600160a01b03909116906324d7806c90602401602060405180830381865afa158015610ae1573d6000803e3d6000fd5b505050506040513d601f19601f82011682018060405250810190610b059190611e72565b610b215760405162461bcd60e51b81526004016104a290611e8f565b4260fc5460fb54610b329190611ed0565b111561055f576001600160a01b0382166000908152610101602052604081208054909183918391906104f0908490611ed0565b6060600060fe805480602002602001604051908101604052809291908181526020018280548015610bbf57602002820191906000526020600020905b81546001600160a01b03168152600190910190602001808311610ba1575b50505050509150815190509091565b600080600060fd60009054906101000a90046001600160a01b03166001600160a01b0316637dad19db6040518163ffffffff1660e01b8152600401602060405180830381865afa158015610c26573d6000803e3d6000fd5b505050506040513d601f19601f82011682018060405250810190610c4a9190611fbd565b604051637da3f00b60e11b81526001600160a01b038681166004830152919091169063fb47e01690602401600060405180830381865afa158015610c92573d6000803e3d6000fd5b505050506040513d6000823e601f3d908101601f19168201604052610cba91908101906120cd565b6001600160a01b0385166000908152610101602090815260408083208151608081018352815481526001820154938101939093526002810154918301919091526003015460ff16151560608201529192505b60148160ff161015610e865760ff80821660009081526101006020818152604080842081519384018252805490951683526001850154918301919091526002840154908201526003830154606082015260048301805492939192608084019190610d7590612238565b80601f0160208091040260200160405190810160405280929190818152602001828054610da190612238565b8015610dee5780601f10610dc357610100808354040283529160200191610dee565b820191906000526020600020905b815481529060010190602001808311610dd157829003601f168201915b505050505081526020016005820154815260200160068201548152602001600782015481525050905060028260ff16118015610e2c57506020810151155b15610e375750610e86565b8060400151836020015110158015610e585750610e588482606001516117b9565b15610e73578195508060c0015185610e709190611ed0565b94505b5080610e7e81612272565b915050610d0c565b505050915091565b610e966115f9565b6001600160a01b038116610efb5760405162461bcd60e51b815260206004820152602660248201527f4f776e61626c653a206e6577206f776e657220697320746865207a65726f206160448201526564647265737360d01b60648201526084016104a2565b61071d816116a5565b60fd54604051630935e01b60e21b81523360048201526001600160a01b03909116906324d7806c90602401602060405180830381865afa158015610f4c573d6000803e3d6000fd5b505050506040513d601f19601f82011682018060405250810190610f709190611e72565b610f8c5760405162461bcd60e51b81526004016104a290611e8f565b4260fc5460fb54610f9d9190611ed0565b111561055f576001600160a01b038216600090815261010160205260408120600281018054919284926104f0908490611ed0565b610ffe60405180608001604052806000815260200160008152602001600081526020016000151581525090565b506001600160a01b03166000908152610101602090815260409182902082516080810184528154815260018201549281019290925260028101549282019290925260039091015460ff161515606082015290565b606060006110608484612291565b61ffff1667ffffffffffffffff81111561107c5761107c611d01565b6040519080825280602002602001820160405280156110a5578160200160208202803683370190505b509150600060fe80548060200260200160405190810160405280929190818152602001828054801561110057602002820191906000526020600020905b81546001600160a01b031681526001909101906020018083116110e2575b505050505090505b8361ffff168561ffff16116114785760006101016000838861ffff168151811061113457611134611ee3565b60200260200101516001600160a01b03166001600160a01b031681526020019081526020016000206040518060800160405290816000820154815260200160018201548152602001600282015481526020016003820160009054906101000a900460ff1615151515815250509050600061010060008960ff1660ff168152602001908152602001600020604051806101000160405290816000820160009054906101000a900460ff1660ff1660ff16815260200160018201548152602001600282015481526020016003820154815260200160048201805461121590612238565b80601f016020809104026020016040519081016040528092919081815260200182805461124190612238565b801561128e5780601f106112635761010080835404028352916020019161128e565b820191906000526020600020905b81548152906001019060200180831161127157829003601f168201915b5050505050815260200160058201548152602001600682015481526020016007820154815250509050600060fd60009054906101000a90046001600160a01b03166001600160a01b0316637dad19db6040518163ffffffff1660e01b8152600401602060405180830381865afa15801561130c573d6000803e3d6000fd5b505050506040513d601f19601f820116820180604052508101906113309190611fbd565b6001600160a01b031663fb47e016858a61ffff168151811061135457611354611ee3565b60200260200101516040518263ffffffff1660e01b815260040161138791906001600160a01b0391909116815260200190565b600060405180830381865afa1580156113a4573d6000803e3d6000fd5b505050506040513d6000823e601f3d908101601f191682016040526113cc91908101906120cd565b905081602001518360000151101580156113ee57508160400151836020015110155b801561140357506114038183606001516117b9565b1561146257838861ffff168151811061141e5761141e611ee3565b6020026020010151868661ffff168151811061143c5761143c611ee3565b6001600160a01b03909216602092830291909101909101528461145e81611ef9565b9550505b505050848061147090611ef9565b955050611108565b50935093915050565b61071d6115f9565b7f4910fdfa16fed3260ed0e7147f7cc6da11a60208b5b9406d12a635614ffd91435460ff16156114c1576114bc8361189e565b61055d565b826001600160a01b03166352d1902d6040518163ffffffff1660e01b8152600401602060405180830381865afa92505050801561151b575060408051601f3d908101601f19168201909252611518918101906122ac565b60015b61157e5760405162461bcd60e51b815260206004820152602e60248201527f45524331393637557067726164653a206e657720696d706c656d656e7461746960448201526d6f6e206973206e6f74205555505360901b60648201526084016104a2565b60008051602061238483398151915281146115ed5760405162461bcd60e51b815260206004820152602960248201527f45524331393637557067726164653a20756e737570706f727465642070726f786044820152681a58589b195555525160ba1b60648201526084016104a2565b5061055d83838361193a565b6065546001600160a01b031633146107305760405162461bcd60e51b815260206004820181905260248201527f4f776e61626c653a2063616c6c6572206973206e6f7420746865206f776e657260448201526064016104a2565b61165b611965565b6033805460ff191690557f5db9ee0a495bf2e6ff9c91a7834c1ba4fdd244a5e8aa4e537bd38aeae4b073aa335b6040516001600160a01b03909116815260200160405180910390a1565b606580546001600160a01b038381166001600160a01b0319831681179093556040519116919082907f8be0079c531659141344cd1fd0a4f28419497f9722a3daafe3b4186f6b6457e090600090a35050565b600054610100900460ff1661171e5760405162461bcd60e51b81526004016104a2906122c5565b6107306119ae565b600054610100900460ff1661174d5760405162461bcd60e51b81526004016104a2906122c5565b6107306119e1565b600054610100900460ff166107305760405162461bcd60e51b81526004016104a2906122c5565b611784611a11565b6033805460ff191660011790557f62e78cea01bee320cd4e420270b5ea74000d11b0c9f74754ebdbfc544b05a2586116883390565b600080600284602001515111156118975760005b8460200151518161ffff161015611895576000610101600087602001518461ffff16815181106117ff576117ff611ee3565b6020908102919091018101516001600160a01b0316825281810192909252604090810160002081516080810183528154815260018201549381019390935260028101549183018290526003015460ff1615156060830152909150851161186d578261186981612272565b9350505b60028360ff1610611882576001935050611895565b508061188d81611ef9565b9150506117cd565b505b5092915050565b6001600160a01b0381163b61190b5760405162461bcd60e51b815260206004820152602d60248201527f455243313936373a206e657720696d706c656d656e746174696f6e206973206e60448201526c1bdd08184818dbdb9d1c9858dd609a1b60648201526084016104a2565b60008051602061238483398151915280546001600160a01b0319166001600160a01b0392909216919091179055565b61194383611a57565b6000825111806119505750805b1561055d5761195f8383611a97565b50505050565b60335460ff166107305760405162461bcd60e51b815260206004820152601460248201527314185d5cd8589b194e881b9bdd081c185d5cd95960621b60448201526064016104a2565b600054610100900460ff166119d55760405162461bcd60e51b81526004016104a2906122c5565b6033805460ff19169055565b600054610100900460ff16611a085760405162461bcd60e51b81526004016104a2906122c5565b610730336116a5565b60335460ff16156107305760405162461bcd60e51b815260206004820152601060248201526f14185d5cd8589b194e881c185d5cd95960821b60448201526064016104a2565b611a608161189e565b6040516001600160a01b038216907fbc7cd75a20ee27fd9adebab32041f755214dbc6bffa90cc0225b39da2e5c2d3b90600090a250565b60606001600160a01b0383163b611aff5760405162461bcd60e51b815260206004820152602660248201527f416464726573733a2064656c65676174652063616c6c20746f206e6f6e2d636f6044820152651b9d1c9858dd60d21b60648201526084016104a2565b600080846001600160a01b031684604051611b1a9190612334565b600060405180830381855af49150503d8060008114611b55576040519150601f19603f3d011682016040523d82523d6000602084013e611b5a565b606091505b5091509150611b8282826040518060600160405280602781526020016123a460279139611b8d565b925050505b92915050565b60608315611b9c575081611ba6565b611ba68383611bad565b9392505050565b815115611bbd5781518083602001fd5b8060405162461bcd60e51b81526004016104a29190612350565b6001600160a01b038116811461071d57600080fd5b60008060408385031215611bff57600080fd5b8235611c0a81611bd7565b946020939093013593505050565b803561ffff81168114611c2a57600080fd5b919050565b600080600060608486031215611c4457600080fd5b833560ff81168114611c5557600080fd5b9250611c6360208501611c18565b9150611c7160408501611c18565b90509250925092565b600081518084526020808501945080840160005b83811015611cb35781516001600160a01b031687529582019590820190600101611c8e565b509495945050505050565b604081526000611cd16040830185611c7a565b905061ffff831660208301529392505050565b600060208284031215611cf657600080fd5b8135611ba681611bd7565b634e487b7160e01b600052604160045260246000fd5b604051610160810167ffffffffffffffff81118282101715611d3b57611d3b611d01565b60405290565b604051601f8201601f1916810167ffffffffffffffff81118282101715611d6a57611d6a611d01565b604052919050565b60008060408385031215611d8557600080fd5b8235611d9081611bd7565b915060208381013567ffffffffffffffff80821115611dae57600080fd5b818601915086601f830112611dc257600080fd5b813581811115611dd457611dd4611d01565b611de6601f8201601f19168501611d41565b91508082528784828501011115611dfc57600080fd5b80848401858401376000848284010152508093505050509250929050565b801515811461071d57600080fd5b600060208284031215611e3a57600080fd5b8135611ba681611e1a565b604081526000611e586040830185611c7a565b90508260208301529392505050565b8051611c2a81611e1a565b600060208284031215611e8457600080fd5b8151611ba681611e1a565b6020808252601190820152702cb7ba9030b932903737ba1030b236b4b760791b604082015260600190565b634e487b7160e01b600052601160045260246000fd5b80820180821115611b8757611b87611eba565b634e487b7160e01b600052603260045260246000fd5b600061ffff808316818103611f1057611f10611eba565b6001019392505050565b6020808252602c908201527f46756e6374696f6e206d7573742062652063616c6c6564207468726f7567682060408201526b19195b1959d85d1958d85b1b60a21b606082015260800190565b6020808252602c908201527f46756e6374696f6e206d7573742062652063616c6c6564207468726f7567682060408201526b6163746976652070726f787960a01b606082015260800190565b8051611c2a81611bd7565b600060208284031215611fcf57600080fd5b8151611ba681611bd7565b600067ffffffffffffffff821115611ff457611ff4611d01565b5060051b60200190565b600082601f83011261200f57600080fd5b8151602061202461201f83611fda565b611d41565b82815260059290921b8401810191818101908684111561204357600080fd5b8286015b8481101561206757805161205a81611bd7565b8352918301918301612047565b509695505050505050565b600082601f83011261208357600080fd5b8151602061209361201f83611fda565b82815260059290921b840181019181810190868411156120b257600080fd5b8286015b8481101561206757805183529183019183016120b6565b6000602082840312156120df57600080fd5b815167ffffffffffffffff808211156120f757600080fd5b90830190610160828603121561210c57600080fd5b612114611d17565b61211d83611fb2565b815260208301518281111561213157600080fd5b61213d87828601611ffe565b60208301525060408301518281111561215557600080fd5b61216187828601611ffe565b60408301525060608301518281111561217957600080fd5b61218587828601612072565b6060830152506080830151608082015260a083015160a082015260c083015160c082015260e0830151828111156121bb57600080fd5b6121c787828601612072565b60e08301525061010080840151838111156121e157600080fd5b6121ed88828701612072565b828401525050610120808401518381111561220757600080fd5b61221388828701612072565b8284015250506101409150612229828401611e67565b91810191909152949350505050565b600181811c9082168061224c57607f821691505b60208210810361226c57634e487b7160e01b600052602260045260246000fd5b50919050565b600060ff821660ff810361228857612288611eba565b60010192915050565b61ffff82811682821603908082111561189757611897611eba565b6000602082840312156122be57600080fd5b5051919050565b6020808252602b908201527f496e697469616c697a61626c653a20636f6e7472616374206973206e6f74206960408201526a6e697469616c697a696e6760a81b606082015260800190565b60005b8381101561232b578181015183820152602001612313565b50506000910152565b60008251612346818460208701612310565b9190910192915050565b602081526000825180602084015261236f816040850160208701612310565b601f01601f1916919091016040019291505056fe360894a13ba1a3210667c828492db98dca3e2076cc3735a920a3ca505d382bbc416464726573733a206c6f772d6c6576656c2064656c65676174652063616c6c206661696c6564a26469706673582212202a8770d4a2dcd991d01f11dda7fe30ef8ca6fc754fea84af9b87f8755e188b1064736f6c63430008110033",
  "linkReferences": {},
  "deployedLinkReferences": {}
}