{
  "_format": "hh-sol-artifact-1",
  "contractName": "StakingUpgradeable",
  "sourceName": "contracts/StakingUpgradeable.sol",
  "abi": [
    {
      "anonymous": false,
      "inputs": [
        {
          "indexed": false,
          "internalType": "address",
          "name": "previousAdmin",
          "type": "address"
        },
        {
          "indexed": false,
          "internalType": "address",
          "name": "newAdmin",
          "type": "address"
        }
      ],
      "name": "AdminChanged",
      "type": "event"
    },
    {
      "anonymous": false,
      "inputs": [
        {
          "indexed": true,
          "internalType": "address",
          "name": "beacon",
          "type": "address"
        }
      ],
      "name": "BeaconUpgraded",
      "type": "event"
    },
    {
      "anonymous": false,
      "inputs": [
        {
          "indexed": false,
          "internalType": "uint8",
          "name": "version",
          "type": "uint8"
        }
      ],
      "name": "Initialized",
      "type": "event"
    },
    {
      "anonymous": false,
      "inputs": [
        {
          "indexed": true,
          "internalType": "address",
          "name": "previousOwner",
          "type": "address"
        },
        {
          "indexed": true,
          "internalType": "address",
          "name": "newOwner",
          "type": "address"
        }
      ],
      "name": "OwnershipTransferred",
      "type": "event"
    },
    {
      "anonymous": false,
      "inputs": [
        {
          "indexed": false,
          "internalType": "address",
          "name": "account",
          "type": "address"
        }
      ],
      "name": "Paused",
      "type": "event"
    },
    {
      "anonymous": false,
      "inputs": [
        {
          "indexed": true,
          "internalType": "address",
          "name": "userAddress",
          "type": "address"
        },
        {
          "indexed": false,
          "internalType": "uint256",
          "name": "amount",
          "type": "uint256"
        }
      ],
      "name": "PrincipalClaimed",
      "type": "event"
    },
    {
      "anonymous": false,
      "inputs": [
        {
          "indexed": true,
          "internalType": "address",
          "name": "userAddress",
          "type": "address"
        },
        {
          "indexed": true,
          "internalType": "uint256",
          "name": "valueStaked",
          "type": "uint256"
        },
        {
          "indexed": true,
          "internalType": "uint256",
          "name": "duration",
          "type": "uint256"
        },
        {
          "indexed": false,
          "internalType": "uint256",
          "name": "stakingID",
          "type": "uint256"
        }
      ],
      "name": "Stake",
      "type": "event"
    },
    {
      "anonymous": false,
      "inputs": [
        {
          "indexed": true,
          "internalType": "address",
          "name": "userAddress",
          "type": "address"
        },
        {
          "indexed": true,
          "internalType": "uint256",
          "name": "reward",
          "type": "uint256"
        },
        {
          "indexed": true,
          "internalType": "uint256",
          "name": "stakingID",
          "type": "uint256"
        },
        {
          "indexed": false,
          "internalType": "address",
          "name": "tokenAddress",
          "type": "address"
        }
      ],
      "name": "StakingRewardClaimed",
      "type": "event"
    },
    {
      "anonymous": false,
      "inputs": [
        {
          "indexed": false,
          "internalType": "address",
          "name": "account",
          "type": "address"
        }
      ],
      "name": "Unpaused",
      "type": "event"
    },
    {
      "anonymous": false,
      "inputs": [
        {
          "indexed": true,
          "internalType": "address",
          "name": "userAddress",
          "type": "address"
        },
        {
          "indexed": true,
          "internalType": "uint256",
          "name": "valueStaked",
          "type": "uint256"
        },
        {
          "indexed": true,
          "internalType": "uint256",
          "name": "stakingID",
          "type": "uint256"
        }
      ],
      "name": "Unstake",
      "type": "event"
    },
    {
      "anonymous": false,
      "inputs": [
        {
          "indexed": true,
          "internalType": "address",
          "name": "implementation",
          "type": "address"
        }
      ],
      "name": "Upgraded",
      "type": "event"
    },
    {
      "inputs": [],
      "name": "activeStakersList",
      "outputs": [
        {
          "internalType": "address[]",
          "name": "",
          "type": "address[]"
        }
      ],
      "stateMutability": "view",
      "type": "function"
    },
    {
      "inputs": [],
      "name": "allStakersList",
      "outputs": [
        {
          "internalType": "address[]",
          "name": "",
          "type": "address[]"
        }
      ],
      "stateMutability": "view",
      "type": "function"
    },
    {
      "inputs": [
        {
          "internalType": "uint256",
          "name": "_stakingID",
          "type": "uint256"
        }
      ],
      "name": "claimStakingReward",
      "outputs": [],
      "stateMutability": "nonpayable",
      "type": "function"
    },
    {
      "inputs": [
        {
          "internalType": "address[]",
          "name": "_userAddress",
          "type": "address[]"
        }
      ],
      "name": "disableAccounts",
      "outputs": [],
      "stateMutability": "nonpayable",
      "type": "function"
    },
    {
      "inputs": [
        {
          "internalType": "address[]",
          "name": "_userAddress",
          "type": "address[]"
        }
      ],
      "name": "enableAccounts",
      "outputs": [],
      "stateMutability": "nonpayable",
      "type": "function"
    },
    {
      "inputs": [],
      "name": "getActiveStakingIDs",
      "outputs": [
        {
          "internalType": "uint256[]",
          "name": "",
          "type": "uint256[]"
        }
      ],
      "stateMutability": "view",
      "type": "function"
    },
    {
      "inputs": [],
      "name": "getDisabledAccountsList",
      "outputs": [
        {
          "internalType": "address[]",
          "name": "",
          "type": "address[]"
        }
      ],
      "stateMutability": "view",
      "type": "function"
    },
    {
      "inputs": [],
      "name": "getStakingCappings",
      "outputs": [
        {
          "internalType": "uint256",
          "name": "minStakingValue",
          "type": "uint256"
        },
        {
          "internalType": "uint256",
          "name": "stakingRewardRate",
          "type": "uint256"
        },
        {
          "internalType": "uint256",
          "name": "stakingDuration",
          "type": "uint256"
        },
        {
          "internalType": "uint256",
          "name": "stakingRewardClaimTimeLimit",
          "type": "uint256"
        }
      ],
      "stateMutability": "view",
      "type": "function"
    },
    {
      "inputs": [
        {
          "internalType": "uint256",
          "name": "_stakingID",
          "type": "uint256"
        }
      ],
      "name": "getStakingReward",
      "outputs": [
        {
          "internalType": "uint256",
          "name": "",
          "type": "uint256"
        }
      ],
      "stateMutability": "view",
      "type": "function"
    },
    {
      "inputs": [
        {
          "internalType": "uint256",
          "name": "_stakingID",
          "type": "uint256"
        }
      ],
      "name": "getStakingTimeRemaining",
      "outputs": [
        {
          "internalType": "uint256",
          "name": "",
          "type": "uint256"
        }
      ],
      "stateMutability": "view",
      "type": "function"
    },
    {
      "inputs": [],
      "name": "getTotalStakingRewardDistributed",
      "outputs": [
        {
          "internalType": "uint256",
          "name": "_tokenRewards",
          "type": "uint256"
        },
        {
          "internalType": "uint256",
          "name": "_ansudRewards",
          "type": "uint256"
        }
      ],
      "stateMutability": "view",
      "type": "function"
    },
    {
      "inputs": [],
      "name": "getTotalValueStaked",
      "outputs": [
        {
          "internalType": "uint256",
          "name": "token",
          "type": "uint256"
        },
        {
          "internalType": "uint256",
          "name": "anusd",
          "type": "uint256"
        }
      ],
      "stateMutability": "view",
      "type": "function"
    },
    {
      "inputs": [
        {
          "internalType": "address",
          "name": "_userAddress",
          "type": "address"
        }
      ],
      "name": "getUserAllStakingsRewards",
      "outputs": [
        {
          "internalType": "uint256",
          "name": "",
          "type": "uint256"
        }
      ],
      "stateMutability": "view",
      "type": "function"
    },
    {
      "inputs": [
        {
          "internalType": "address",
          "name": "_userAddress",
          "type": "address"
        }
      ],
      "name": "getUserStakingIDs",
      "outputs": [
        {
          "internalType": "uint256[]",
          "name": "",
          "type": "uint256[]"
        }
      ],
      "stateMutability": "view",
      "type": "function"
    },
    {
      "inputs": [
        {
          "internalType": "address",
          "name": "_userAddress",
          "type": "address"
        }
      ],
      "name": "getUserTotalPrincipalClaimed",
      "outputs": [
        {
          "internalType": "uint256",
          "name": "",
          "type": "uint256"
        }
      ],
      "stateMutability": "view",
      "type": "function"
    },
    {
      "inputs": [
        {
          "internalType": "address",
          "name": "_userAddress",
          "type": "address"
        }
      ],
      "name": "getUserTotalRewardClaimedANUSD",
      "outputs": [
        {
          "internalType": "uint256",
          "name": "totalRewardClaim",
          "type": "uint256"
        }
      ],
      "stateMutability": "view",
      "type": "function"
    },
    {
      "inputs": [
        {
          "internalType": "address",
          "name": "_userAddress",
          "type": "address"
        }
      ],
      "name": "getUserTotalRewardClaimedToken",
      "outputs": [
        {
          "internalType": "uint256",
          "name": "totalRewardClaim",
          "type": "uint256"
        }
      ],
      "stateMutability": "view",
      "type": "function"
    },
    {
      "inputs": [
        {
          "internalType": "address",
          "name": "_userAddress",
          "type": "address"
        }
      ],
      "name": "getUserTotalValueStaked",
      "outputs": [
        {
          "internalType": "uint256",
          "name": "token",
          "type": "uint256"
        },
        {
          "internalType": "uint256",
          "name": "anusd",
          "type": "uint256"
        }
      ],
      "stateMutability": "view",
      "type": "function"
    },
    {
      "inputs": [],
      "name": "initialize",
      "outputs": [],
      "stateMutability": "nonpayable",
      "type": "function"
    },
    {
      "inputs": [
        {
          "internalType": "address",
          "name": "_userAddress",
          "type": "address"
        }
      ],
      "name": "isAccountDisabled",
      "outputs": [
        {
          "internalType": "bool",
          "name": "",
          "type": "bool"
        }
      ],
      "stateMutability": "view",
      "type": "function"
    },
    {
      "inputs": [
        {
          "internalType": "address",
          "name": "_userAddress",
          "type": "address"
        }
      ],
      "name": "isStaked",
      "outputs": [
        {
          "internalType": "bool",
          "name": "",
          "type": "bool"
        }
      ],
      "stateMutability": "view",
      "type": "function"
    },
    {
      "inputs": [],
      "name": "owner",
      "outputs": [
        {
          "internalType": "address",
          "name": "",
          "type": "address"
        }
      ],
      "stateMutability": "view",
      "type": "function"
    },
    {
      "inputs": [],
      "name": "pause",
      "outputs": [],
      "stateMutability": "nonpayable",
      "type": "function"
    },
    {
      "inputs": [],
      "name": "paused",
      "outputs": [
        {
          "internalType": "bool",
          "name": "",
          "type": "bool"
        }
      ],
      "stateMutability": "view",
      "type": "function"
    },
    {
      "inputs": [],
      "name": "proxiableUUID",
      "outputs": [
        {
          "internalType": "bytes32",
          "name": "",
          "type": "bytes32"
        }
      ],
      "stateMutability": "view",
      "type": "function"
    },
    {
      "inputs": [],
      "name": "renounceOwnership",
      "outputs": [],
      "stateMutability": "nonpayable",
      "type": "function"
    },
    {
      "inputs": [
        {
          "internalType": "uint256",
          "name": "_value",
          "type": "uint256"
        }
      ],
      "name": "setMinStakingValue",
      "outputs": [
        {
          "internalType": "uint256",
          "name": "",
          "type": "uint256"
        }
      ],
      "stateMutability": "nonpayable",
      "type": "function"
    },
    {
      "inputs": [
        {
          "internalType": "uint256",
          "name": "_valueInDays",
          "type": "uint256"
        }
      ],
      "name": "setStakingDuration",
      "outputs": [],
      "stateMutability": "nonpayable",
      "type": "function"
    },
    {
      "inputs": [
        {
          "internalType": "uint256",
          "name": "_valueInDays",
          "type": "uint256"
        }
      ],
      "name": "setStakingRewardClaimTimeLimity",
      "outputs": [],
      "stateMutability": "nonpayable",
      "type": "function"
    },
    {
      "inputs": [
        {
          "internalType": "uint256",
          "name": "_valueInPer",
          "type": "uint256"
        }
      ],
      "name": "setStakingRewardRate",
      "outputs": [],
      "stateMutability": "nonpayable",
      "type": "function"
    },
    {
      "inputs": [
        {
          "internalType": "address",
          "name": "_userAddress",
          "type": "address"
        },
        {
          "internalType": "uint256",
          "name": "_valueInToken",
          "type": "uint256"
        },
        {
          "internalType": "uint256",
          "name": "_valueInANUSD",
          "type": "uint256"
        }
      ],
      "name": "stakeByAdmin",
      "outputs": [],
      "stateMutability": "nonpayable",
      "type": "function"
    },
    {
      "inputs": [
        {
          "internalType": "uint256",
          "name": "_stakingID",
          "type": "uint256"
        }
      ],
      "name": "stakeInfoMap",
      "outputs": [
        {
          "components": [
            {
              "internalType": "bool",
              "name": "isStaked",
              "type": "bool"
            },
            {
              "internalType": "address",
              "name": "owner",
              "type": "address"
            },
            {
              "internalType": "uint256",
              "name": "valueInToken",
              "type": "uint256"
            },
            {
              "internalType": "uint256",
              "name": "valueInANUSD",
              "type": "uint256"
            },
            {
              "internalType": "uint256",
              "name": "rewardRate",
              "type": "uint256"
            },
            {
              "internalType": "uint256",
              "name": "startTime",
              "type": "uint256"
            },
            {
              "internalType": "uint256",
              "name": "duration",
              "type": "uint256"
            },
            {
              "internalType": "uint256",
              "name": "rewardClaimedToken",
              "type": "uint256"
            },
            {
              "internalType": "uint256",
              "name": "rewardClaimedANUSD",
              "type": "uint256"
            },
            {
              "internalType": "uint256",
              "name": "principalClaimed",
              "type": "uint256"
            },
            {
              "internalType": "uint256",
              "name": "lastTimeRewardClaimed",
              "type": "uint256"
            }
          ],
          "internalType": "struct StakingUpgradeable.StakeInfo",
          "name": "",
          "type": "tuple"
        }
      ],
      "stateMutability": "view",
      "type": "function"
    },
    {
      "inputs": [
        {
          "internalType": "address",
          "name": "newOwner",
          "type": "address"
        }
      ],
      "name": "transferOwnership",
      "outputs": [],
      "stateMutability": "nonpayable",
      "type": "function"
    },
    {
      "inputs": [],
      "name": "unpause",
      "outputs": [],
      "stateMutability": "nonpayable",
      "type": "function"
    },
    {
      "inputs": [
        {
          "internalType": "address",
          "name": "newImplementation",
          "type": "address"
        }
      ],
      "name": "upgradeTo",
      "outputs": [],
      "stateMutability": "nonpayable",
      "type": "function"
    },
    {
      "inputs": [
        {
          "internalType": "address",
          "name": "newImplementation",
          "type": "address"
        },
        {
          "internalType": "bytes",
          "name": "data",
          "type": "bytes"
        }
      ],
      "name": "upgradeToAndCall",
      "outputs": [],
      "stateMutability": "payable",
      "type": "function"
    },
    {
      "inputs": [
        {
          "internalType": "address",
          "name": "_userAddress",
          "type": "address"
        }
      ],
      "name": "userAccountMap",
      "outputs": [
        {
          "components": [
            {
              "internalType": "uint256[]",
              "name": "stakingID",
              "type": "uint256[]"
            },
            {
              "internalType": "bool",
              "name": "isDisabled",
              "type": "bool"
            }
          ],
          "internalType": "struct StakingUpgradeable.Account",
          "name": "",
          "type": "tuple"
        }
      ],
      "stateMutability": "view",
      "type": "function"
    },
    {
      "inputs": [
        {
          "internalType": "address",
          "name": "_receiver",
          "type": "address"
        },
        {
          "internalType": "uint256",
          "name": "_value",
          "type": "uint256"
        }
      ],
      "name": "withdrawNativeFunds",
      "outputs": [
        {
          "internalType": "bool",
          "name": "",
          "type": "bool"
        }
      ],
      "stateMutability": "nonpayable",
      "type": "function"
    },
    {
      "inputs": [
        {
          "internalType": "address",
          "name": "_tokenAddress",
          "type": "address"
        },
        {
          "internalType": "address",
          "name": "_receiver",
          "type": "address"
        },
        {
          "internalType": "uint256",
          "name": "_value",
          "type": "uint256"
        }
      ],
      "name": "withdrawTokens",
      "outputs": [
        {
          "internalType": "bool",
          "name": "",
          "type": "bool"
        }
      ],
      "stateMutability": "nonpayable",
      "type": "function"
    },
    {
      "stateMutability": "payable",
      "type": "receive"
    }
  ],
  "bytecode": "0x60a06040523060805234801561001457600080fd5b5060805161348561004c60003960008181610f5801528181610f98015281816110d30152818161111301526111a601526134856000f3fe6080604052600436106102345760003560e01c80636f51b20b1161012e578063abfe35ad116100ab578063d8ba90b71161006f578063d8ba90b7146106a4578063dba4358c146106c4578063deede654146106d9578063e3a51f58146106f1578063f2fde38b1461072e57600080fd5b8063abfe35ad14610602578063b7d6851914610622578063ba4f678e14610642578063c06a53881461066f578063d596fe7f1461068457600080fd5b80638456cb59116100f25780638456cb591461053b5780638da5cb5b146105505780639c3fe28a14610578578063a40b589114610598578063a7566b75146105d557600080fd5b80636f51b20b146104b55780636f72693b146104e2578063715018a6146104f75780637ce574bf1461050c5780638129fc1c1461052657600080fd5b806352d1902d116101bc5780635f869714116101805780635f869714146104005780636177fd1814610435578063628b372b1461045557806366e5e570146104755780636a8ca6911461049557600080fd5b806352d1902d1461037357806353bdadea146103885780635c975abb146103a85780635cbfd021146103c05780635e35359e146103e057600080fd5b8063310c9b2011610203578063310c9b20146102eb5780633659cfe61461030b5780633b09098f1461032b5780633f4ba83a1461034b5780634f1ef2861461036057600080fd5b8063239cd4a414610240578063260cb4e91461026257806326792aca1461028d57806328796bbd146102bd57600080fd5b3661023b57005b600080fd5b34801561024c57600080fd5b5061026061025b366004612d0a565b61074e565b005b34801561026e57600080fd5b50610277610b8a565b6040516102849190612d67565b60405180910390f35b34801561029957600080fd5b506102ad6102a8366004612d8f565b610d06565b6040519015158152602001610284565b3480156102c957600080fd5b506102dd6102d8366004612dbb565b610d52565b604051908152602001610284565b3480156102f757600080fd5b50610260610306366004612dd8565b610e2b565b34801561031757600080fd5b50610260610326366004612dbb565b610f4e565b34801561033757600080fd5b50610260610346366004612e0d565b61102d565b34801561035757600080fd5b506102606110b7565b61026061036e366004612ec9565b6110c9565b34801561037f57600080fd5b506102dd611199565b34801561039457600080fd5b506102606103a3366004612e0d565b61124c565b3480156103b457600080fd5b5060335460ff166102ad565b3480156103cc57600080fd5b506102606103db366004612d0a565b6112d2565b3480156103ec57600080fd5b506102ad6103fb366004612f71565b6112ee565b34801561040c57600080fd5b5061042061041b366004612dbb565b611378565b60408051928352602083019190915201610284565b34801561044157600080fd5b506102ad610450366004612dbb565b611474565b34801561046157600080fd5b506102dd610470366004612dbb565b611551565b34801561048157600080fd5b506102dd610490366004612dbb565b61162e565b3480156104a157600080fd5b506102606104b0366004612d0a565b6116fe565b3480156104c157600080fd5b506104d56104d0366004612dbb565b61171a565b6040516102849190612fe2565b3480156104ee57600080fd5b506104d5611787565b34801561050357600080fd5b5061026061183c565b34801561051857600080fd5b506101005461010154610420565b34801561053257600080fd5b5061026061184e565b34801561054757600080fd5b506102606119b8565b34801561055c57600080fd5b506065546040516001600160a01b039091168152602001610284565b34801561058457600080fd5b506102dd610593366004612dbb565b6119c8565b3480156105a457600080fd5b506102ad6105b3366004612dbb565b6001600160a01b03166000908152610106602052604090206001015460ff1690565b3480156105e157600080fd5b506105f56105f0366004612d0a565b611ad0565b6040516102849190612ff5565b34801561060e57600080fd5b506102dd61061d366004612d0a565b611bd8565b34801561062e57600080fd5b5061026061063d366004612d0a565b611be3565b34801561064e57600080fd5b5061066261065d366004612dbb565b611bf1565b6040516102849190613081565b34801561067b57600080fd5b50610277611c89565b34801561069057600080fd5b506102dd61069f366004612d0a565b611ddd565b3480156106b057600080fd5b506102dd6106bf366004612d0a565b611df1565b3480156106d057600080fd5b50610277611e56565b3480156106e557600080fd5b5060fd5460fe54610420565b3480156106fd57600080fd5b5061010254610103546101045461010554604080519485526020850193909352918301526060820152608001610284565b34801561073a57600080fd5b50610260610749366004612dbb565b611fba565b600061075982612030565b90506000610766836120b9565b9050600082116107bd5760405162461bcd60e51b815260206004820152601c60248201527f596f752068617665206e6f207374616b696e67206f7220656e6465640000000060448201526064015b60405180910390fd5b60fb5460008481526101076020908152604080832033808552610106909352922082546001600160a01b0394851694929392429161010090041684146108555760405162461bcd60e51b815260206004820152602760248201527f536f727279207374616b696e6720696420646f656e27742062656c6f6e6773206044820152663a37903cb7ba9760c91b60648201526084016107b4565b600182015460ff16156108c25760405162461bcd60e51b815260206004820152602f60248201527f596f7572206163636f756e742069732064697361626c65642e20506c6561736560448201526e1031b7b73a30b1ba1030b236b4b71760891b60648201526084016107b4565b426101055484600901546108d691906130cb565b116109355760405162461bcd60e51b815260206004820152602960248201527f596f752063616e6e6f7420636c61696d20726577617264206265666f7265207460448201526834b6b2b634b6b4ba1760b91b60648201526084016107b4565b6000610942848984612109565b9050856001600160a01b03166355a373d66040518163ffffffff1660e01b8152600401602060405180830381865afa158015610982573d6000803e3d6000fd5b505050506040513d601f19601f820116820180604052508101906109a691906130de565b6001600160a01b031663a9059cbb8689846001815181106109c9576109c96130fb565b60200260200101516109db91906130cb565b6040516001600160e01b031960e085901b1681526001600160a01b03909216600483015260248201526044016020604051808303816000875af1158015610a26573d6000803e3d6000fd5b505050506040513d601f19601f82011682018060405250810190610a4a9190613111565b508881600181518110610a5f57610a5f6130fb565b6020026020010151866001600160a01b03167ffec605188cf64597b9aa9cf424a9bba4a84ffb09f9f66c932d6efa1b96fcc7e4896001600160a01b03166355a373d66040518163ffffffff1660e01b8152600401602060405180830381865afa158015610ad0573d6000803e3d6000fd5b505050506040513d601f19601f82011682018060405250810190610af491906130de565b6040516001600160a01b03909116815260200160405180910390a486846008016000828254610b2391906130cb565b925050819055508660ff6000828254610b3c91906130cb565b90915550506040518781526001600160a01b038616907f2e6100b89b43378c0aeb062f2df0cfaa63e4437abab6844b441f8e47cb31bec39060200160405180910390a2505050505050505050565b6000808052610106602090815260fc80546040805182850281018501909152818152606094937f36b574eb542e18a2932b42c3f7b99e0cccde75c2d7e80ac19800931af8e17fa29385939091830182828015610c0f57602002820191906000526020600020905b81546001600160a01b03168152600190910190602001808311610bf1575b5050505050905060008151905060008167ffffffffffffffff811115610c3757610c37612e82565b604051908082528060200260200182016040528015610c60578160200160208202803683370190505b5090506000805b83811015610cfa57848181518110610c8157610c816130fb565b60200260200101519650610c958388612329565b1515600114610ce85760018087015460ff1615159003610ce85786838381518110610cc257610cc26130fb565b6001600160a01b039092166020928302919091019091015281610ce481613133565b9250505b80610cf281613133565b915050610c67565b50909695505050505050565b6000610d1061238e565b6040516001600160a01b0384169083156108fc029084906000818181858888f19350505050158015610d46573d6000803e3d6000fd5b50600190505b92915050565b6001600160a01b038116600090815261010660209081526040808320805482518185028101850190935280835290928492918491830182828015610db557602002820191906000526020600020905b815481526020019060010190808311610da1575b505083519394506000925050505b81811015610e225760006101076000858481518110610de457610de46130fb565b602002602001015181526020019081526020016000209050806007015486610e0c91906130cb565b9550508080610e1a90613133565b915050610dc3565b50505050919050565b60fb5433906001600160a01b0316610e4b6065546001600160a01b031690565b6001600160a01b0316826001600160a01b03161480610edc5750806001600160a01b03166363d9df856040518163ffffffff1660e01b8152600401602060405180830381865afa158015610ea3573d6000803e3d6000fd5b505050506040513d601f19601f82011682018060405250810190610ec791906130de565b6001600160a01b0316826001600160a01b0316145b610f335760405162461bcd60e51b815260206004820152602260248201527f4f6e6c79206f776e65722063616e2063616c6c20746869732066756e6374696f604482015261371760f11b60648201526084016107b4565b610f4685858561010354610104546123e8565b505050505050565b6001600160a01b037f0000000000000000000000000000000000000000000000000000000000000000163003610f965760405162461bcd60e51b81526004016107b49061314c565b7f00000000000000000000000000000000000000000000000000000000000000006001600160a01b0316610fdf600080516020613409833981519152546001600160a01b031690565b6001600160a01b0316146110055760405162461bcd60e51b81526004016107b490613198565b61100e81612576565b6040805160008082526020820190925261102a9183919061257e565b50565b61103561238e565b60008080526101066020527f36b574eb542e18a2932b42c3f7b99e0cccde75c2d7e80ac19800931af8e17fa282825b81811015610f465785858281811061107e5761107e6130fb565b90506020020160208101906110939190612dbb565b6001848101805460ff191690911790559350806110af81613133565b915050611064565b6110bf61238e565b6110c76126ee565b565b6001600160a01b037f00000000000000000000000000000000000000000000000000000000000000001630036111115760405162461bcd60e51b81526004016107b49061314c565b7f00000000000000000000000000000000000000000000000000000000000000006001600160a01b031661115a600080516020613409833981519152546001600160a01b031690565b6001600160a01b0316146111805760405162461bcd60e51b81526004016107b490613198565b61118982612576565b6111958282600161257e565b5050565b6000306001600160a01b037f000000000000000000000000000000000000000000000000000000000000000016146112395760405162461bcd60e51b815260206004820152603860248201527f555550535570677261646561626c653a206d757374206e6f742062652063616c60448201527f6c6564207468726f7567682064656c656761746563616c6c000000000000000060648201526084016107b4565b5060008051602061340983398151915290565b61125461238e565b60008080526101066020527f36b574eb542e18a2932b42c3f7b99e0cccde75c2d7e80ac19800931af8e17fa282825b81811015610f465785858281811061129d5761129d6130fb565b90506020020160208101906112b29190612dbb565b60018401805460ff191690559350806112ca81613133565b915050611283565b6112da61238e565b6112e781620151806131e4565b6101055550565b60006112f861238e565b60405163a9059cbb60e01b81526001600160a01b0384811660048301526024820184905285169063a9059cbb906044016020604051808303816000875af1158015611347573d6000803e3d6000fd5b505050506040513d601f19601f8201168201806040525081019061136b9190613111565b50600190505b9392505050565b6001600160a01b0381166000908152610106602090815260408083208054825181850281018501909352808352849391928492909184918301828280156113de57602002820191906000526020600020905b8154815260200190600101908083116113ca575b505083519394506000925050505b8181101561146b576000610107600085848151811061140d5761140d6130fb565b6020908102919091018101518252810191909152604001600020805490915060ff161561145857600181015461144390886130cb565b965080600201548661145591906130cb565b95505b508061146381613133565b9150506113ec565b50505050915091565b6001600160a01b0381166000908152610106602090815260408083208054825181850281018501909352808352909284929184918301828280156114d757602002820191906000526020600020905b8154815260200190600101908083116114c3575b505083519394506000925050505b81811015611545576101076000848381518110611504576115046130fb565b60209081029190910181015182528101919091526040016000205460ff16156115335750600195945050505050565b8061153d81613133565b9150506114e5565b50600095945050505050565b6001600160a01b0381166000908152610106602090815260408083208054825181850281018501909352808352909284929184918301828280156115b457602002820191906000526020600020905b8154815260200190600101908083116115a0575b505050505090506000815190506000805b8281101561162457600061010760008684815181106115e6576115e66130fb565b60200260200101518152602001908152602001600020905080600801548361160e91906130cb565b925050808061161c90613133565b9150506115c5565b5095945050505050565b6001600160a01b03811660009081526101066020908152604080832080548251818502810185019093528083529092849291849183018282801561169157602002820191906000526020600020905b81548152602001906001019080831161167d575b505083519394506000925050505b81811015610e2257600061010760008584815181106116c0576116c06130fb565b6020026020010151815260200190815260200160002090508060060154866116e891906130cb565b95505080806116f690613133565b91505061169f565b61170661238e565b61171381620151806131e4565b6101045550565b6001600160a01b0381166000908152610106602090815260409182902080548351818402810184019094528084526060939283018282801561177b57602002820191906000526020600020905b815481526020019060010190808311611767575b50505050509050919050565b60fc5460609060008167ffffffffffffffff8111156117a8576117a8612e82565b6040519080825280602002602001820160405280156117d1578160200160208202803683370190505b50905060005b8281101561183557600081815261010760205260409020805460ff1615156001036118225781156118225781838381518110611815576118156130fb565b6020026020010181815250505b508061182d81613133565b9150506117d7565b5092915050565b61184461238e565b6110c76000612740565b600054610100900460ff161580801561186e5750600054600160ff909116105b806118885750303b158015611888575060005460ff166001145b6118eb5760405162461bcd60e51b815260206004820152602e60248201527f496e697469616c697a61626c653a20636f6e747261637420697320616c72656160448201526d191e481a5b9a5d1a585b1a5e995960921b60648201526084016107b4565b6000805460ff19166001179055801561190e576000805461ff0019166101001790555b60fb80546001600160a01b0319167377daafc7411c911b869c71bf70fe36cce507845d179055678ac7230489e80000610102556096610103556303e9f4006101045562278d0061010555611960612792565b6119686127c1565b6119706127f0565b801561102a576000805461ff0019169055604051600181527f7f26b83ff96e1f2b6a682f133852f6798a09c465da95921460cefb38474024989060200160405180910390a150565b6119c061238e565b6110c7612817565b6001600160a01b03811660009081526101066020908152604080832080548251818502810185019093528083528493830182828015611a2657602002820191906000526020600020905b815481526020019060010190808311611a12575b505050505090506000815190506000805b828160ff161015611ac7576101076000858360ff1681518110611a5c57611a5c6130fb565b60209081029190910181015182528101919091526040016000205460ff161515600103611ab557611aa8848260ff1681518110611a9b57611a9b6130fb565b6020026020010151612030565b611ab290836130cb565b91505b80611abf816131fb565b915050611a37565b50949350505050565b611b3860405180610160016040528060001515815260200160006001600160a01b031681526020016000815260200160008152602001600081526020016000815260200160008152602001600081526020016000815260200160008152602001600081525090565b5060009081526101076020908152604091829020825161016081018452815460ff8116151582526001600160a01b036101009182900416938201939093526001820154938101939093526002810154606084015260038101546080840152600481015460a0840152600581015460c0840152600681015460e084015260078101549183019190915260088101546101208301526009015461014082015290565b6000610d4c82612030565b611beb61238e565b61010355565b6040805180820182526060808252600060208084018290526001600160a01b038616825261010681529084902084518154928302810184018652948501828152939493909284928491840182828015611c6957602002820191906000526020600020905b815481526020019060010190808311611c55575b50505091835250506001919091015460ff16151560209091015292915050565b6060600060fc805480602002602001604051908101604052809291908181526020018280548015611ce357602002820191906000526020600020905b81546001600160a01b03168152600190910190602001808311611cc5575b5050505050905060008151905060008167ffffffffffffffff811115611d0b57611d0b612e82565b604051908082528060200260200182016040528015611d34578160200160208202803683370190505b5090506000805b83811015611dd357611d6683868381518110611d5957611d596130fb565b6020026020010151612329565b1515600114611dc157848181518110611d8157611d816130fb565b6020026020010151838381518110611d9b57611d9b6130fb565b6001600160a01b039092166020928302919091019091015281611dbd81613133565b9250505b80611dcb81613133565b915050611d3b565b5090949350505050565b6000611de761238e565b5061010281905590565b600081815261010760205260408120600581015460048201544292918491611e1991906130cb565b905080831015611e4b578282600501548360040154611e3891906130cb565b611e42919061321a565b95945050505050565b506000949350505050565b6060600060fc805480602002602001604051908101604052809291908181526020018280548015611eb057602002820191906000526020600020905b81546001600160a01b03168152600190910190602001808311611e92575b5050505050905060008151905060008167ffffffffffffffff811115611ed857611ed8612e82565b604051908082528060200260200182016040528015611f01578160200160208202803683370190505b5090506000805b83811015611dd357611f2683868381518110611d5957611d596130fb565b1515600114611fa857611f51858281518110611f4457611f446130fb565b6020026020010151611474565b15611fa857848181518110611f6857611f686130fb565b6020026020010151838381518110611f8257611f826130fb565b6001600160a01b039092166020928302919091019091015281611fa481613133565b9250505b80611fb281613133565b915050611f08565b611fc261238e565b6001600160a01b0381166120275760405162461bcd60e51b815260206004820152602660248201527f4f776e61626c653a206e6577206f776e657220697320746865207a65726f206160448201526564647265737360d01b60648201526084016107b4565b61102a81612740565b60008181526101076020526040812060048101544291908390612053908461321a565b90506000826005015460648460030154856002015461207291906131e4565b61207c919061322d565b612086919061322d565b9050826007015461209b838560050154612854565b6120a590836131e4565b6120af919061321a565b9695505050505050565b600081815261010760205260408120600481015442919083906120dc908461321a565b90506000826005015483600101546120f4919061322d565b9050826008015461209b838560050154612854565b60fb546040805163b70cc4c160e01b815290516060926001600160a01b03169161224791839163b70cc4c19160048083019260209291908290030181865afa158015612159573d6000803e3d6000fd5b505050506040513d601f19601f8201168201806040525081019061217d91906130de565b85836001600160a01b03166355a373d66040518163ffffffff1660e01b8152600401602060405180830381865afa1580156121bc573d6000803e3d6000fd5b505050506040513d601f19601f820116820180604052508101906121e091906130de565b846001600160a01b0316638290c4a66040518163ffffffff1660e01b8152600401602060405180830381865afa15801561221e573d6000803e3d6000fd5b505050506040513d601f19601f8201168201806040525081019061224291906130de565b61286a565b91508160018151811061225c5761225c6130fb565b602002602001015185600601600082825461227791906130cb565b9250508190555081600081518110612291576122916130fb565b60200260200101518560070160008282546122ac91906130cb565b9091555050600985018390558151829060019081106122cd576122cd6130fb565b602002602001015161010060008282546122e791906130cb565b9250508190555081600081518110612301576123016130fb565b6020026020010151610101600082825461231b91906130cb565b909155509195945050505050565b6000805b835181101561238457826001600160a01b0316848281518110612352576123526130fb565b60200260200101516001600160a01b031603612372576001915050610d4c565b8061237c81613133565b91505061232d565b5060009392505050565b6065546001600160a01b031633146110c75760405162461bcd60e51b815260206004820181905260248201527f4f776e61626c653a2063616c6c6572206973206e6f7420746865206f776e657260448201526064016107b4565b60fc8054600180820183557f371f36870d18f32a11fea0f144b021c8b407bb50f8e0267c711123f454b963c090910180546001600160a01b0319166001600160a01b038916908117909155915460008381526101066020908152604080832084845261010783529083208154808701835582855292842090920184905581546001600160a81b0319166101009096029590951784178155426004820181905560058201879055938101899055600281018890556003810187905560fd80549295939493928a919087906124bc9084906130cb565b925050819055508760fe60008282546124d591906130cb565b9250508190555085898b6001600160a01b03167ff556991011e831bcfac4f406d547e5e32cdd98267efab83935230d5f8d02c4468760405161251991815260200190565b60405180910390a485888b6001600160a01b03167ff556991011e831bcfac4f406d547e5e32cdd98267efab83935230d5f8d02c4468760405161255e91815260200190565b60405180910390a45060019998505050505050505050565b61102a61238e565b7f4910fdfa16fed3260ed0e7147f7cc6da11a60208b5b9406d12a635614ffd91435460ff16156125b6576125b1836129ed565b505050565b826001600160a01b03166352d1902d6040518163ffffffff1660e01b8152600401602060405180830381865afa925050508015612610575060408051601f3d908101601f1916820190925261260d9181019061324f565b60015b6126735760405162461bcd60e51b815260206004820152602e60248201527f45524331393637557067726164653a206e657720696d706c656d656e7461746960448201526d6f6e206973206e6f74205555505360901b60648201526084016107b4565b60008051602061340983398151915281146126e25760405162461bcd60e51b815260206004820152602960248201527f45524331393637557067726164653a20756e737570706f727465642070726f786044820152681a58589b195555525160ba1b60648201526084016107b4565b506125b1838383612a89565b6126f6612ab4565b6033805460ff191690557f5db9ee0a495bf2e6ff9c91a7834c1ba4fdd244a5e8aa4e537bd38aeae4b073aa335b6040516001600160a01b03909116815260200160405180910390a1565b606580546001600160a01b038381166001600160a01b0319831681179093556040519116919082907f8be0079c531659141344cd1fd0a4f28419497f9722a3daafe3b4186f6b6457e090600090a35050565b600054610100900460ff166127b95760405162461bcd60e51b81526004016107b490613268565b6110c7612afd565b600054610100900460ff166127e85760405162461bcd60e51b81526004016107b490613268565b6110c7612b30565b600054610100900460ff166110c75760405162461bcd60e51b81526004016107b490613268565b61281f612b60565b6033805460ff191660011790557f62e78cea01bee320cd4e420270b5ea74000d11b0c9f74754ebdbfc544b05a2586127233390565b60008183106128635781611371565b5090919050565b6040805160028082526060808301845292600092919060208301908036833701905050905085816000815181106128a3576128a36130fb565b60200260200101906001600160a01b031690816001600160a01b03168152505083816001815181106128d7576128d76130fb565b6001600160a01b03928316602091820292909201015260405163095ea7b360e01b81528482166004820152602481018790529087169063095ea7b3906044016020604051808303816000875af1158015612935573d6000803e3d6000fd5b505050506040513d601f19601f820116820180604052508101906129599190613111565b5060006001600160a01b0384166338ed1739876001853061297b4260646130cb565b6040518663ffffffff1660e01b815260040161299b9594939291906132b3565b6000604051808303816000875af11580156129ba573d6000803e3d6000fd5b505050506040513d6000823e601f3d908101601f191682016040526129e291908101906132ef565b979650505050505050565b6001600160a01b0381163b612a5a5760405162461bcd60e51b815260206004820152602d60248201527f455243313936373a206e657720696d706c656d656e746174696f6e206973206e60448201526c1bdd08184818dbdb9d1c9858dd609a1b60648201526084016107b4565b60008051602061340983398151915280546001600160a01b0319166001600160a01b0392909216919091179055565b612a9283612ba6565b600082511180612a9f5750805b156125b157612aae8383612be6565b50505050565b60335460ff166110c75760405162461bcd60e51b815260206004820152601460248201527314185d5cd8589b194e881b9bdd081c185d5cd95960621b60448201526064016107b4565b600054610100900460ff16612b245760405162461bcd60e51b81526004016107b490613268565b6033805460ff19169055565b600054610100900460ff16612b575760405162461bcd60e51b81526004016107b490613268565b6110c733612740565b60335460ff16156110c75760405162461bcd60e51b815260206004820152601060248201526f14185d5cd8589b194e881c185d5cd95960821b60448201526064016107b4565b612baf816129ed565b6040516001600160a01b038216907fbc7cd75a20ee27fd9adebab32041f755214dbc6bffa90cc0225b39da2e5c2d3b90600090a250565b60606001600160a01b0383163b612c4e5760405162461bcd60e51b815260206004820152602660248201527f416464726573733a2064656c65676174652063616c6c20746f206e6f6e2d636f6044820152651b9d1c9858dd60d21b60648201526084016107b4565b600080846001600160a01b031684604051612c6991906133b9565b600060405180830381855af49150503d8060008114612ca4576040519150601f19603f3d011682016040523d82523d6000602084013e612ca9565b606091505b5091509150611e4282826040518060600160405280602781526020016134296027913960608315612cdb575081611371565b6113718383815115612cf05781518083602001fd5b8060405162461bcd60e51b81526004016107b491906133d5565b600060208284031215612d1c57600080fd5b5035919050565b600081518084526020808501945080840160005b83811015612d5c5781516001600160a01b031687529582019590820190600101612d37565b509495945050505050565b6020815260006113716020830184612d23565b6001600160a01b038116811461102a57600080fd5b60008060408385031215612da257600080fd5b8235612dad81612d7a565b946020939093013593505050565b600060208284031215612dcd57600080fd5b813561137181612d7a565b600080600060608486031215612ded57600080fd5b8335612df881612d7a565b95602085013595506040909401359392505050565b60008060208385031215612e2057600080fd5b823567ffffffffffffffff80821115612e3857600080fd5b818501915085601f830112612e4c57600080fd5b813581811115612e5b57600080fd5b8660208260051b8501011115612e7057600080fd5b60209290920196919550909350505050565b634e487b7160e01b600052604160045260246000fd5b604051601f8201601f1916810167ffffffffffffffff81118282101715612ec157612ec1612e82565b604052919050565b60008060408385031215612edc57600080fd5b8235612ee781612d7a565b915060208381013567ffffffffffffffff80821115612f0557600080fd5b818601915086601f830112612f1957600080fd5b813581811115612f2b57612f2b612e82565b612f3d601f8201601f19168501612e98565b91508082528784828501011115612f5357600080fd5b80848401858401376000848284010152508093505050509250929050565b600080600060608486031215612f8657600080fd5b8335612f9181612d7a565b92506020840135612fa181612d7a565b929592945050506040919091013590565b600081518084526020808501945080840160005b83811015612d5c57815187529582019590820190600101612fc6565b6020815260006113716020830184612fb2565b8151151581526101608101602083015161301a60208401826001600160a01b03169052565b5060408301516040830152606083015160608301526080830151608083015260a083015160a083015260c083015160c083015260e083015160e083015261010080840151818401525061012080840151818401525061014080840151818401525092915050565b60208152600082516040602084015261309d6060840182612fb2565b90506020840151151560408401528091505092915050565b634e487b7160e01b600052601160045260246000fd5b80820180821115610d4c57610d4c6130b5565b6000602082840312156130f057600080fd5b815161137181612d7a565b634e487b7160e01b600052603260045260246000fd5b60006020828403121561312357600080fd5b8151801515811461137157600080fd5b600060018201613145576131456130b5565b5060010190565b6020808252602c908201527f46756e6374696f6e206d7573742062652063616c6c6564207468726f7567682060408201526b19195b1959d85d1958d85b1b60a21b606082015260800190565b6020808252602c908201527f46756e6374696f6e206d7573742062652063616c6c6564207468726f7567682060408201526b6163746976652070726f787960a01b606082015260800190565b8082028115828204841417610d4c57610d4c6130b5565b600060ff821660ff8103613211576132116130b5565b60010192915050565b81810381811115610d4c57610d4c6130b5565b60008261324a57634e487b7160e01b600052601260045260246000fd5b500490565b60006020828403121561326157600080fd5b5051919050565b6020808252602b908201527f496e697469616c697a61626c653a20636f6e7472616374206973206e6f74206960408201526a6e697469616c697a696e6760a81b606082015260800190565b85815284602082015260a0604082015260006132d260a0830186612d23565b6001600160a01b0394909416606083015250608001529392505050565b6000602080838503121561330257600080fd5b825167ffffffffffffffff8082111561331a57600080fd5b818501915085601f83011261332e57600080fd5b81518181111561334057613340612e82565b8060051b9150613351848301612e98565b818152918301840191848101908884111561336b57600080fd5b938501935b8385101561338957845182529385019390850190613370565b98975050505050505050565b60005b838110156133b0578181015183820152602001613398565b50506000910152565b600082516133cb818460208701613395565b9190910192915050565b60208152600082518060208401526133f4816040850160208701613395565b601f01601f1916919091016040019291505056fe360894a13ba1a3210667c828492db98dca3e2076cc3735a920a3ca505d382bbc416464726573733a206c6f772d6c6576656c2064656c65676174652063616c6c206661696c6564a2646970667358221220b0114216d525755d7671e5349cb77bdc275f1faf3c0fe7939d4c74335f74894a64736f6c63430008110033",
  "linkReferences": {},
  "deployedLinkReferences": {}
}