{
  "_format": "hh-sol-artifact-1",
  "contractName": "StakingUpgradeable",
  "sourceName": "contracts/StakingUpgradeable.sol",
  "abi": [
    {
      "anonymous": false,
      "inputs": [
        {
          "indexed": false,
          "internalType": "address",
          "name": "previousAdmin",
          "type": "address"
        },
        {
          "indexed": false,
          "internalType": "address",
          "name": "newAdmin",
          "type": "address"
        }
      ],
      "name": "AdminChanged",
      "type": "event"
    },
    {
      "anonymous": false,
      "inputs": [
        {
          "indexed": true,
          "internalType": "address",
          "name": "beacon",
          "type": "address"
        }
      ],
      "name": "BeaconUpgraded",
      "type": "event"
    },
    {
      "anonymous": false,
      "inputs": [
        {
          "indexed": false,
          "internalType": "uint8",
          "name": "version",
          "type": "uint8"
        }
      ],
      "name": "Initialized",
      "type": "event"
    },
    {
      "anonymous": false,
      "inputs": [
        {
          "indexed": true,
          "internalType": "address",
          "name": "previousOwner",
          "type": "address"
        },
        {
          "indexed": true,
          "internalType": "address",
          "name": "newOwner",
          "type": "address"
        }
      ],
      "name": "OwnershipTransferred",
      "type": "event"
    },
    {
      "anonymous": false,
      "inputs": [
        {
          "indexed": false,
          "internalType": "address",
          "name": "account",
          "type": "address"
        }
      ],
      "name": "Paused",
      "type": "event"
    },
    {
      "anonymous": false,
      "inputs": [
        {
          "indexed": true,
          "internalType": "address",
          "name": "userAddress",
          "type": "address"
        },
        {
          "indexed": false,
          "internalType": "uint256",
          "name": "amount",
          "type": "uint256"
        }
      ],
      "name": "PrincipalClaimed",
      "type": "event"
    },
    {
      "anonymous": false,
      "inputs": [
        {
          "indexed": true,
          "internalType": "address",
          "name": "userAddress",
          "type": "address"
        },
        {
          "indexed": true,
          "internalType": "uint256",
          "name": "valueStaked",
          "type": "uint256"
        },
        {
          "indexed": true,
          "internalType": "uint256",
          "name": "duration",
          "type": "uint256"
        },
        {
          "indexed": false,
          "internalType": "uint256",
          "name": "stakingID",
          "type": "uint256"
        }
      ],
      "name": "Stake",
      "type": "event"
    },
    {
      "anonymous": false,
      "inputs": [
        {
          "indexed": true,
          "internalType": "address",
          "name": "userAddress",
          "type": "address"
        },
        {
          "indexed": true,
          "internalType": "uint256",
          "name": "reward",
          "type": "uint256"
        },
        {
          "indexed": true,
          "internalType": "uint256",
          "name": "stakingID",
          "type": "uint256"
        },
        {
          "indexed": false,
          "internalType": "address",
          "name": "tokenAddress",
          "type": "address"
        }
      ],
      "name": "StakingRewardClaimed",
      "type": "event"
    },
    {
      "anonymous": false,
      "inputs": [
        {
          "indexed": false,
          "internalType": "address",
          "name": "account",
          "type": "address"
        }
      ],
      "name": "Unpaused",
      "type": "event"
    },
    {
      "anonymous": false,
      "inputs": [
        {
          "indexed": true,
          "internalType": "address",
          "name": "userAddress",
          "type": "address"
        },
        {
          "indexed": true,
          "internalType": "uint256",
          "name": "valueStaked",
          "type": "uint256"
        },
        {
          "indexed": true,
          "internalType": "uint256",
          "name": "stakingID",
          "type": "uint256"
        }
      ],
      "name": "Unstake",
      "type": "event"
    },
    {
      "anonymous": false,
      "inputs": [
        {
          "indexed": true,
          "internalType": "address",
          "name": "implementation",
          "type": "address"
        }
      ],
      "name": "Upgraded",
      "type": "event"
    },
    {
      "inputs": [],
      "name": "activeStakersList",
      "outputs": [
        {
          "internalType": "address[]",
          "name": "",
          "type": "address[]"
        }
      ],
      "stateMutability": "view",
      "type": "function"
    },
    {
      "inputs": [],
      "name": "allStakersList",
      "outputs": [
        {
          "internalType": "address[]",
          "name": "",
          "type": "address[]"
        }
      ],
      "stateMutability": "view",
      "type": "function"
    },
    {
      "inputs": [
        {
          "internalType": "uint256",
          "name": "_stakingID",
          "type": "uint256"
        }
      ],
      "name": "claimStakingReward",
      "outputs": [],
      "stateMutability": "nonpayable",
      "type": "function"
    },
    {
      "inputs": [
        {
          "internalType": "address[]",
          "name": "_userAddress",
          "type": "address[]"
        }
      ],
      "name": "disableAccounts",
      "outputs": [],
      "stateMutability": "nonpayable",
      "type": "function"
    },
    {
      "inputs": [
        {
          "internalType": "address[]",
          "name": "_userAddress",
          "type": "address[]"
        }
      ],
      "name": "enableAccounts",
      "outputs": [],
      "stateMutability": "nonpayable",
      "type": "function"
    },
    {
      "inputs": [],
      "name": "getActiveStakingIDs",
      "outputs": [
        {
          "internalType": "uint256[]",
          "name": "",
          "type": "uint256[]"
        }
      ],
      "stateMutability": "view",
      "type": "function"
    },
    {
      "inputs": [],
      "name": "getDisabledAccountsList",
      "outputs": [
        {
          "internalType": "address[]",
          "name": "",
          "type": "address[]"
        }
      ],
      "stateMutability": "view",
      "type": "function"
    },
    {
      "inputs": [],
      "name": "getStakingCappings",
      "outputs": [
        {
          "internalType": "uint256",
          "name": "minStakingValue",
          "type": "uint256"
        },
        {
          "internalType": "uint256",
          "name": "stakingRewardRate",
          "type": "uint256"
        },
        {
          "internalType": "uint256",
          "name": "stakingDuration",
          "type": "uint256"
        },
        {
          "internalType": "uint256",
          "name": "stakingRewardClaimTimeLimit",
          "type": "uint256"
        }
      ],
      "stateMutability": "view",
      "type": "function"
    },
    {
      "inputs": [
        {
          "internalType": "uint256",
          "name": "_stakingID",
          "type": "uint256"
        }
      ],
      "name": "getStakingReward",
      "outputs": [
        {
          "internalType": "uint256",
          "name": "",
          "type": "uint256"
        }
      ],
      "stateMutability": "view",
      "type": "function"
    },
    {
      "inputs": [
        {
          "internalType": "uint256",
          "name": "_stakingID",
          "type": "uint256"
        }
      ],
      "name": "getStakingTimeRemaining",
      "outputs": [
        {
          "internalType": "uint256",
          "name": "",
          "type": "uint256"
        }
      ],
      "stateMutability": "view",
      "type": "function"
    },
    {
      "inputs": [],
      "name": "getTotalStakingRewardDistributed",
      "outputs": [
        {
          "internalType": "uint256",
          "name": "_tokenRewards",
          "type": "uint256"
        },
        {
          "internalType": "uint256",
          "name": "_ansudRewards",
          "type": "uint256"
        }
      ],
      "stateMutability": "view",
      "type": "function"
    },
    {
      "inputs": [],
      "name": "getTotalValueStaked",
      "outputs": [
        {
          "internalType": "uint256",
          "name": "token",
          "type": "uint256"
        },
        {
          "internalType": "uint256",
          "name": "anusd",
          "type": "uint256"
        }
      ],
      "stateMutability": "view",
      "type": "function"
    },
    {
      "inputs": [
        {
          "internalType": "address",
          "name": "_userAddress",
          "type": "address"
        }
      ],
      "name": "getUserAllStakingsRewards",
      "outputs": [
        {
          "internalType": "uint256",
          "name": "",
          "type": "uint256"
        }
      ],
      "stateMutability": "view",
      "type": "function"
    },
    {
      "inputs": [
        {
          "internalType": "address",
          "name": "_userAddress",
          "type": "address"
        }
      ],
      "name": "getUserStakingIDs",
      "outputs": [
        {
          "internalType": "uint256[]",
          "name": "",
          "type": "uint256[]"
        }
      ],
      "stateMutability": "view",
      "type": "function"
    },
    {
      "inputs": [
        {
          "internalType": "address",
          "name": "_userAddress",
          "type": "address"
        }
      ],
      "name": "getUserTotalPrincipalClaimed",
      "outputs": [
        {
          "internalType": "uint256",
          "name": "",
          "type": "uint256"
        }
      ],
      "stateMutability": "view",
      "type": "function"
    },
    {
      "inputs": [
        {
          "internalType": "address",
          "name": "_userAddress",
          "type": "address"
        }
      ],
      "name": "getUserTotalRewardClaimedANUSD",
      "outputs": [
        {
          "internalType": "uint256",
          "name": "totalRewardClaim",
          "type": "uint256"
        }
      ],
      "stateMutability": "view",
      "type": "function"
    },
    {
      "inputs": [
        {
          "internalType": "address",
          "name": "_userAddress",
          "type": "address"
        }
      ],
      "name": "getUserTotalRewardClaimedToken",
      "outputs": [
        {
          "internalType": "uint256",
          "name": "totalRewardClaim",
          "type": "uint256"
        }
      ],
      "stateMutability": "view",
      "type": "function"
    },
    {
      "inputs": [
        {
          "internalType": "address",
          "name": "_userAddress",
          "type": "address"
        }
      ],
      "name": "getUserTotalValueStaked",
      "outputs": [
        {
          "internalType": "uint256",
          "name": "token",
          "type": "uint256"
        },
        {
          "internalType": "uint256",
          "name": "anusd",
          "type": "uint256"
        }
      ],
      "stateMutability": "view",
      "type": "function"
    },
    {
      "inputs": [],
      "name": "initialize",
      "outputs": [],
      "stateMutability": "nonpayable",
      "type": "function"
    },
    {
      "inputs": [
        {
          "internalType": "address",
          "name": "_userAddress",
          "type": "address"
        }
      ],
      "name": "isAccountDisabled",
      "outputs": [
        {
          "internalType": "bool",
          "name": "",
          "type": "bool"
        }
      ],
      "stateMutability": "view",
      "type": "function"
    },
    {
      "inputs": [
        {
          "internalType": "address",
          "name": "_userAddress",
          "type": "address"
        }
      ],
      "name": "isStaked",
      "outputs": [
        {
          "internalType": "bool",
          "name": "",
          "type": "bool"
        }
      ],
      "stateMutability": "view",
      "type": "function"
    },
    {
      "inputs": [],
      "name": "owner",
      "outputs": [
        {
          "internalType": "address",
          "name": "",
          "type": "address"
        }
      ],
      "stateMutability": "view",
      "type": "function"
    },
    {
      "inputs": [],
      "name": "pause",
      "outputs": [],
      "stateMutability": "nonpayable",
      "type": "function"
    },
    {
      "inputs": [],
      "name": "paused",
      "outputs": [
        {
          "internalType": "bool",
          "name": "",
          "type": "bool"
        }
      ],
      "stateMutability": "view",
      "type": "function"
    },
    {
      "inputs": [],
      "name": "proxiableUUID",
      "outputs": [
        {
          "internalType": "bytes32",
          "name": "",
          "type": "bytes32"
        }
      ],
      "stateMutability": "view",
      "type": "function"
    },
    {
      "inputs": [],
      "name": "renounceOwnership",
      "outputs": [],
      "stateMutability": "nonpayable",
      "type": "function"
    },
    {
      "inputs": [
        {
          "internalType": "uint256",
          "name": "_value",
          "type": "uint256"
        }
      ],
      "name": "setMinStakingValue",
      "outputs": [
        {
          "internalType": "uint256",
          "name": "",
          "type": "uint256"
        }
      ],
      "stateMutability": "nonpayable",
      "type": "function"
    },
    {
      "inputs": [
        {
          "internalType": "uint256",
          "name": "_valueInDays",
          "type": "uint256"
        }
      ],
      "name": "setStakingDuration",
      "outputs": [],
      "stateMutability": "nonpayable",
      "type": "function"
    },
    {
      "inputs": [
        {
          "internalType": "uint256",
          "name": "_valueInDays",
          "type": "uint256"
        }
      ],
      "name": "setStakingRewardClaimTimeLimity",
      "outputs": [],
      "stateMutability": "nonpayable",
      "type": "function"
    },
    {
      "inputs": [
        {
          "internalType": "uint256",
          "name": "_valueInPer",
          "type": "uint256"
        }
      ],
      "name": "setStakingRewardRate",
      "outputs": [],
      "stateMutability": "nonpayable",
      "type": "function"
    },
    {
      "inputs": [
        {
          "internalType": "address",
          "name": "_userAddress",
          "type": "address"
        },
        {
          "internalType": "uint256",
          "name": "_valueInToken",
          "type": "uint256"
        },
        {
          "internalType": "uint256",
          "name": "_valueInANUSD",
          "type": "uint256"
        }
      ],
      "name": "stakeByAdmin",
      "outputs": [],
      "stateMutability": "nonpayable",
      "type": "function"
    },
    {
      "inputs": [
        {
          "internalType": "uint256",
          "name": "_stakingID",
          "type": "uint256"
        }
      ],
      "name": "stakeInfoMap",
      "outputs": [
        {
          "components": [
            {
              "internalType": "bool",
              "name": "isStaked",
              "type": "bool"
            },
            {
              "internalType": "address",
              "name": "owner",
              "type": "address"
            },
            {
              "internalType": "uint256",
              "name": "valueInToken",
              "type": "uint256"
            },
            {
              "internalType": "uint256",
              "name": "valueInANUSD",
              "type": "uint256"
            },
            {
              "internalType": "uint256",
              "name": "rewardRate",
              "type": "uint256"
            },
            {
              "internalType": "uint256",
              "name": "startTime",
              "type": "uint256"
            },
            {
              "internalType": "uint256",
              "name": "duration",
              "type": "uint256"
            },
            {
              "internalType": "uint256",
              "name": "rewardClaimedToken",
              "type": "uint256"
            },
            {
              "internalType": "uint256",
              "name": "rewardClaimedANUSD",
              "type": "uint256"
            },
            {
              "internalType": "uint256",
              "name": "principalClaimed",
              "type": "uint256"
            },
            {
              "internalType": "uint256",
              "name": "lastTimeRewardClaimed",
              "type": "uint256"
            }
          ],
          "internalType": "struct StakingUpgradeable.StakeInfo",
          "name": "",
          "type": "tuple"
        }
      ],
      "stateMutability": "view",
      "type": "function"
    },
    {
      "inputs": [
        {
          "internalType": "address",
          "name": "newOwner",
          "type": "address"
        }
      ],
      "name": "transferOwnership",
      "outputs": [],
      "stateMutability": "nonpayable",
      "type": "function"
    },
    {
      "inputs": [],
      "name": "unpause",
      "outputs": [],
      "stateMutability": "nonpayable",
      "type": "function"
    },
    {
      "inputs": [
        {
          "internalType": "address",
          "name": "newImplementation",
          "type": "address"
        }
      ],
      "name": "upgradeTo",
      "outputs": [],
      "stateMutability": "nonpayable",
      "type": "function"
    },
    {
      "inputs": [
        {
          "internalType": "address",
          "name": "newImplementation",
          "type": "address"
        },
        {
          "internalType": "bytes",
          "name": "data",
          "type": "bytes"
        }
      ],
      "name": "upgradeToAndCall",
      "outputs": [],
      "stateMutability": "payable",
      "type": "function"
    },
    {
      "inputs": [
        {
          "internalType": "address",
          "name": "_userAddress",
          "type": "address"
        }
      ],
      "name": "userAccountMap",
      "outputs": [
        {
          "components": [
            {
              "internalType": "uint256[]",
              "name": "stakingID",
              "type": "uint256[]"
            },
            {
              "internalType": "bool",
              "name": "isDisabled",
              "type": "bool"
            }
          ],
          "internalType": "struct StakingUpgradeable.Account",
          "name": "",
          "type": "tuple"
        }
      ],
      "stateMutability": "view",
      "type": "function"
    },
    {
      "inputs": [
        {
          "internalType": "address",
          "name": "_receiver",
          "type": "address"
        },
        {
          "internalType": "uint256",
          "name": "_value",
          "type": "uint256"
        }
      ],
      "name": "withdrawNativeFunds",
      "outputs": [
        {
          "internalType": "bool",
          "name": "",
          "type": "bool"
        }
      ],
      "stateMutability": "nonpayable",
      "type": "function"
    },
    {
      "inputs": [
        {
          "internalType": "address",
          "name": "_tokenAddress",
          "type": "address"
        },
        {
          "internalType": "address",
          "name": "_receiver",
          "type": "address"
        },
        {
          "internalType": "uint256",
          "name": "_value",
          "type": "uint256"
        }
      ],
      "name": "withdrawTokens",
      "outputs": [
        {
          "internalType": "bool",
          "name": "",
          "type": "bool"
        }
      ],
      "stateMutability": "nonpayable",
      "type": "function"
    },
    {
      "stateMutability": "payable",
      "type": "receive"
    }
  ],
  "bytecode": "0x60a06040523060805234801561001457600080fd5b5060805161349f61004c60003960008181610f7201528181610fb2015281816110ed0152818161112d01526111c0015261349f6000f3fe6080604052600436106102345760003560e01c80636f51b20b1161012e578063abfe35ad116100ab578063d8ba90b71161006f578063d8ba90b7146106a4578063dba4358c146106c4578063deede654146106d9578063e3a51f58146106f1578063f2fde38b1461072e57600080fd5b8063abfe35ad14610602578063b7d6851914610622578063ba4f678e14610642578063c06a53881461066f578063d596fe7f1461068457600080fd5b80638456cb59116100f25780638456cb591461053b5780638da5cb5b146105505780639c3fe28a14610578578063a40b589114610598578063a7566b75146105d557600080fd5b80636f51b20b146104b55780636f72693b146104e2578063715018a6146104f75780637ce574bf1461050c5780638129fc1c1461052657600080fd5b806352d1902d116101bc5780635f869714116101805780635f869714146104005780636177fd1814610435578063628b372b1461045557806366e5e570146104755780636a8ca6911461049557600080fd5b806352d1902d1461037357806353bdadea146103885780635c975abb146103a85780635cbfd021146103c05780635e35359e146103e057600080fd5b8063310c9b2011610203578063310c9b20146102eb5780633659cfe61461030b5780633b09098f1461032b5780633f4ba83a1461034b5780634f1ef2861461036057600080fd5b8063239cd4a414610240578063260cb4e91461026257806326792aca1461028d57806328796bbd146102bd57600080fd5b3661023b57005b600080fd5b34801561024c57600080fd5b5061026061025b366004612d24565b61074e565b005b34801561026e57600080fd5b50610277610b8a565b6040516102849190612d81565b60405180910390f35b34801561029957600080fd5b506102ad6102a8366004612da9565b610d06565b6040519015158152602001610284565b3480156102c957600080fd5b506102dd6102d8366004612dd5565b610d52565b604051908152602001610284565b3480156102f757600080fd5b50610260610306366004612df2565b610e2b565b34801561031757600080fd5b50610260610326366004612dd5565b610f68565b34801561033757600080fd5b50610260610346366004612e27565b611047565b34801561035757600080fd5b506102606110d1565b61026061036e366004612ee3565b6110e3565b34801561037f57600080fd5b506102dd6111b3565b34801561039457600080fd5b506102606103a3366004612e27565b611266565b3480156103b457600080fd5b5060335460ff166102ad565b3480156103cc57600080fd5b506102606103db366004612d24565b6112ec565b3480156103ec57600080fd5b506102ad6103fb366004612f8b565b611308565b34801561040c57600080fd5b5061042061041b366004612dd5565b611392565b60408051928352602083019190915201610284565b34801561044157600080fd5b506102ad610450366004612dd5565b61148e565b34801561046157600080fd5b506102dd610470366004612dd5565b61156b565b34801561048157600080fd5b506102dd610490366004612dd5565b611648565b3480156104a157600080fd5b506102606104b0366004612d24565b611718565b3480156104c157600080fd5b506104d56104d0366004612dd5565b611734565b6040516102849190612ffc565b3480156104ee57600080fd5b506104d56117a1565b34801561050357600080fd5b50610260611856565b34801561051857600080fd5b506101005461010154610420565b34801561053257600080fd5b50610260611868565b34801561054757600080fd5b506102606119d2565b34801561055c57600080fd5b506065546040516001600160a01b039091168152602001610284565b34801561058457600080fd5b506102dd610593366004612dd5565b6119e2565b3480156105a457600080fd5b506102ad6105b3366004612dd5565b6001600160a01b03166000908152610106602052604090206001015460ff1690565b3480156105e157600080fd5b506105f56105f0366004612d24565b611aea565b604051610284919061300f565b34801561060e57600080fd5b506102dd61061d366004612d24565b611bf2565b34801561062e57600080fd5b5061026061063d366004612d24565b611bfd565b34801561064e57600080fd5b5061066261065d366004612dd5565b611c0b565b604051610284919061309b565b34801561067b57600080fd5b50610277611ca3565b34801561069057600080fd5b506102dd61069f366004612d24565b611df7565b3480156106b057600080fd5b506102dd6106bf366004612d24565b611e0b565b3480156106d057600080fd5b50610277611e70565b3480156106e557600080fd5b5060fd5460fe54610420565b3480156106fd57600080fd5b5061010254610103546101045461010554604080519485526020850193909352918301526060820152608001610284565b34801561073a57600080fd5b50610260610749366004612dd5565b611fd4565b60006107598261204a565b90506000610766836120d3565b9050600082116107bd5760405162461bcd60e51b815260206004820152601c60248201527f596f752068617665206e6f207374616b696e67206f7220656e6465640000000060448201526064015b60405180910390fd5b60fb5460008481526101076020908152604080832033808552610106909352922082546001600160a01b0394851694929392429161010090041684146108555760405162461bcd60e51b815260206004820152602760248201527f536f727279207374616b696e6720696420646f656e27742062656c6f6e6773206044820152663a37903cb7ba9760c91b60648201526084016107b4565b600182015460ff16156108c25760405162461bcd60e51b815260206004820152602f60248201527f596f7572206163636f756e742069732064697361626c65642e20506c6561736560448201526e1031b7b73a30b1ba1030b236b4b71760891b60648201526084016107b4565b426101055484600901546108d691906130e5565b116109355760405162461bcd60e51b815260206004820152602960248201527f596f752063616e6e6f7420636c61696d20726577617264206265666f7265207460448201526834b6b2b634b6b4ba1760b91b60648201526084016107b4565b6000610942848984612123565b9050856001600160a01b03166355a373d66040518163ffffffff1660e01b8152600401602060405180830381865afa158015610982573d6000803e3d6000fd5b505050506040513d601f19601f820116820180604052508101906109a691906130f8565b6001600160a01b031663a9059cbb8689846001815181106109c9576109c9613115565b60200260200101516109db91906130e5565b6040516001600160e01b031960e085901b1681526001600160a01b03909216600483015260248201526044016020604051808303816000875af1158015610a26573d6000803e3d6000fd5b505050506040513d601f19601f82011682018060405250810190610a4a919061312b565b508881600181518110610a5f57610a5f613115565b6020026020010151866001600160a01b03167ffec605188cf64597b9aa9cf424a9bba4a84ffb09f9f66c932d6efa1b96fcc7e4896001600160a01b03166355a373d66040518163ffffffff1660e01b8152600401602060405180830381865afa158015610ad0573d6000803e3d6000fd5b505050506040513d601f19601f82011682018060405250810190610af491906130f8565b6040516001600160a01b03909116815260200160405180910390a486846008016000828254610b2391906130e5565b925050819055508660ff6000828254610b3c91906130e5565b90915550506040518781526001600160a01b038616907f2e6100b89b43378c0aeb062f2df0cfaa63e4437abab6844b441f8e47cb31bec39060200160405180910390a2505050505050505050565b6000808052610106602090815260fc80546040805182850281018501909152818152606094937f36b574eb542e18a2932b42c3f7b99e0cccde75c2d7e80ac19800931af8e17fa29385939091830182828015610c0f57602002820191906000526020600020905b81546001600160a01b03168152600190910190602001808311610bf1575b5050505050905060008151905060008167ffffffffffffffff811115610c3757610c37612e9c565b604051908082528060200260200182016040528015610c60578160200160208202803683370190505b5090506000805b83811015610cfa57848181518110610c8157610c81613115565b60200260200101519650610c958388612343565b1515600114610ce85760018087015460ff1615159003610ce85786838381518110610cc257610cc2613115565b6001600160a01b039092166020928302919091019091015281610ce48161314d565b9250505b80610cf28161314d565b915050610c67565b50909695505050505050565b6000610d106123a8565b6040516001600160a01b0384169083156108fc029084906000818181858888f19350505050158015610d46573d6000803e3d6000fd5b50600190505b92915050565b6001600160a01b038116600090815261010660209081526040808320805482518185028101850190935280835290928492918491830182828015610db557602002820191906000526020600020905b815481526020019060010190808311610da1575b505083519394506000925050505b81811015610e225760006101076000858481518110610de457610de4613115565b602002602001015181526020019081526020016000209050806007015486610e0c91906130e5565b9550508080610e1a9061314d565b915050610dc3565b50505050919050565b60fb5433906001600160a01b0316610e4b6065546001600160a01b031690565b6001600160a01b0316826001600160a01b03161480610edc5750806001600160a01b03166363d9df856040518163ffffffff1660e01b8152600401602060405180830381865afa158015610ea3573d6000803e3d6000fd5b505050506040513d601f19601f82011682018060405250810190610ec791906130f8565b6001600160a01b0316826001600160a01b0316145b610f335760405162461bcd60e51b815260206004820152602260248201527f4f6e6c79206f776e65722063616e2063616c6c20746869732066756e6374696f604482015261371760f11b60648201526084016107b4565b610f60858560646101035487610f499190613166565b610f53919061317d565b6101035461010454612402565b505050505050565b6001600160a01b037f0000000000000000000000000000000000000000000000000000000000000000163003610fb05760405162461bcd60e51b81526004016107b49061319f565b7f00000000000000000000000000000000000000000000000000000000000000006001600160a01b0316610ff9600080516020613423833981519152546001600160a01b031690565b6001600160a01b03161461101f5760405162461bcd60e51b81526004016107b4906131eb565b61102881612590565b6040805160008082526020820190925261104491839190612598565b50565b61104f6123a8565b60008080526101066020527f36b574eb542e18a2932b42c3f7b99e0cccde75c2d7e80ac19800931af8e17fa282825b81811015610f605785858281811061109857611098613115565b90506020020160208101906110ad9190612dd5565b6001848101805460ff191690911790559350806110c98161314d565b91505061107e565b6110d96123a8565b6110e1612708565b565b6001600160a01b037f000000000000000000000000000000000000000000000000000000000000000016300361112b5760405162461bcd60e51b81526004016107b49061319f565b7f00000000000000000000000000000000000000000000000000000000000000006001600160a01b0316611174600080516020613423833981519152546001600160a01b031690565b6001600160a01b03161461119a5760405162461bcd60e51b81526004016107b4906131eb565b6111a382612590565b6111af82826001612598565b5050565b6000306001600160a01b037f000000000000000000000000000000000000000000000000000000000000000016146112535760405162461bcd60e51b815260206004820152603860248201527f555550535570677261646561626c653a206d757374206e6f742062652063616c60448201527f6c6564207468726f7567682064656c656761746563616c6c000000000000000060648201526084016107b4565b5060008051602061342383398151915290565b61126e6123a8565b60008080526101066020527f36b574eb542e18a2932b42c3f7b99e0cccde75c2d7e80ac19800931af8e17fa282825b81811015610f60578585828181106112b7576112b7613115565b90506020020160208101906112cc9190612dd5565b60018401805460ff191690559350806112e48161314d565b91505061129d565b6112f46123a8565b6113018162015180613166565b6101055550565b60006113126123a8565b60405163a9059cbb60e01b81526001600160a01b0384811660048301526024820184905285169063a9059cbb906044016020604051808303816000875af1158015611361573d6000803e3d6000fd5b505050506040513d601f19601f82011682018060405250810190611385919061312b565b50600190505b9392505050565b6001600160a01b0381166000908152610106602090815260408083208054825181850281018501909352808352849391928492909184918301828280156113f857602002820191906000526020600020905b8154815260200190600101908083116113e4575b505083519394506000925050505b81811015611485576000610107600085848151811061142757611427613115565b6020908102919091018101518252810191909152604001600020805490915060ff161561147257600181015461145d90886130e5565b965080600201548661146f91906130e5565b95505b508061147d8161314d565b915050611406565b50505050915091565b6001600160a01b0381166000908152610106602090815260408083208054825181850281018501909352808352909284929184918301828280156114f157602002820191906000526020600020905b8154815260200190600101908083116114dd575b505083519394506000925050505b8181101561155f57610107600084838151811061151e5761151e613115565b60209081029190910181015182528101919091526040016000205460ff161561154d5750600195945050505050565b806115578161314d565b9150506114ff565b50600095945050505050565b6001600160a01b0381166000908152610106602090815260408083208054825181850281018501909352808352909284929184918301828280156115ce57602002820191906000526020600020905b8154815260200190600101908083116115ba575b505050505090506000815190506000805b8281101561163e576000610107600086848151811061160057611600613115565b60200260200101518152602001908152602001600020905080600801548361162891906130e5565b92505080806116369061314d565b9150506115df565b5095945050505050565b6001600160a01b0381166000908152610106602090815260408083208054825181850281018501909352808352909284929184918301828280156116ab57602002820191906000526020600020905b815481526020019060010190808311611697575b505083519394506000925050505b81811015610e2257600061010760008584815181106116da576116da613115565b60200260200101518152602001908152602001600020905080600601548661170291906130e5565b95505080806117109061314d565b9150506116b9565b6117206123a8565b61172d8162015180613166565b6101045550565b6001600160a01b0381166000908152610106602090815260409182902080548351818402810184019094528084526060939283018282801561179557602002820191906000526020600020905b815481526020019060010190808311611781575b50505050509050919050565b60fc5460609060008167ffffffffffffffff8111156117c2576117c2612e9c565b6040519080825280602002602001820160405280156117eb578160200160208202803683370190505b50905060005b8281101561184f57600081815261010760205260409020805460ff16151560010361183c57811561183c578183838151811061182f5761182f613115565b6020026020010181815250505b50806118478161314d565b9150506117f1565b5092915050565b61185e6123a8565b6110e1600061275a565b600054610100900460ff16158080156118885750600054600160ff909116105b806118a25750303b1580156118a2575060005460ff166001145b6119055760405162461bcd60e51b815260206004820152602e60248201527f496e697469616c697a61626c653a20636f6e747261637420697320616c72656160448201526d191e481a5b9a5d1a585b1a5e995960921b60648201526084016107b4565b6000805460ff191660011790558015611928576000805461ff0019166101001790555b60fb80546001600160a01b0319167377daafc7411c911b869c71bf70fe36cce507845d179055678ac7230489e80000610102556096610103556303e9f4006101045562278d006101055561197a6127ac565b6119826127db565b61198a61280a565b8015611044576000805461ff0019169055604051600181527f7f26b83ff96e1f2b6a682f133852f6798a09c465da95921460cefb38474024989060200160405180910390a150565b6119da6123a8565b6110e1612831565b6001600160a01b03811660009081526101066020908152604080832080548251818502810185019093528083528493830182828015611a4057602002820191906000526020600020905b815481526020019060010190808311611a2c575b505050505090506000815190506000805b828160ff161015611ae1576101076000858360ff1681518110611a7657611a76613115565b60209081029190910181015182528101919091526040016000205460ff161515600103611acf57611ac2848260ff1681518110611ab557611ab5613115565b602002602001015161204a565b611acc90836130e5565b91505b80611ad981613237565b915050611a51565b50949350505050565b611b5260405180610160016040528060001515815260200160006001600160a01b031681526020016000815260200160008152602001600081526020016000815260200160008152602001600081526020016000815260200160008152602001600081525090565b5060009081526101076020908152604091829020825161016081018452815460ff8116151582526001600160a01b036101009182900416938201939093526001820154938101939093526002810154606084015260038101546080840152600481015460a0840152600581015460c0840152600681015460e084015260078101549183019190915260088101546101208301526009015461014082015290565b6000610d4c8261204a565b611c056123a8565b61010355565b6040805180820182526060808252600060208084018290526001600160a01b038616825261010681529084902084518154928302810184018652948501828152939493909284928491840182828015611c8357602002820191906000526020600020905b815481526020019060010190808311611c6f575b50505091835250506001919091015460ff16151560209091015292915050565b6060600060fc805480602002602001604051908101604052809291908181526020018280548015611cfd57602002820191906000526020600020905b81546001600160a01b03168152600190910190602001808311611cdf575b5050505050905060008151905060008167ffffffffffffffff811115611d2557611d25612e9c565b604051908082528060200260200182016040528015611d4e578160200160208202803683370190505b5090506000805b83811015611ded57611d8083868381518110611d7357611d73613115565b6020026020010151612343565b1515600114611ddb57848181518110611d9b57611d9b613115565b6020026020010151838381518110611db557611db5613115565b6001600160a01b039092166020928302919091019091015281611dd78161314d565b9250505b80611de58161314d565b915050611d55565b5090949350505050565b6000611e016123a8565b5061010281905590565b600081815261010760205260408120600581015460048201544292918491611e3391906130e5565b905080831015611e65578282600501548360040154611e5291906130e5565b611e5c9190613256565b95945050505050565b506000949350505050565b6060600060fc805480602002602001604051908101604052809291908181526020018280548015611eca57602002820191906000526020600020905b81546001600160a01b03168152600190910190602001808311611eac575b5050505050905060008151905060008167ffffffffffffffff811115611ef257611ef2612e9c565b604051908082528060200260200182016040528015611f1b578160200160208202803683370190505b5090506000805b83811015611ded57611f4083868381518110611d7357611d73613115565b1515600114611fc257611f6b858281518110611f5e57611f5e613115565b602002602001015161148e565b15611fc257848181518110611f8257611f82613115565b6020026020010151838381518110611f9c57611f9c613115565b6001600160a01b039092166020928302919091019091015281611fbe8161314d565b9250505b80611fcc8161314d565b915050611f22565b611fdc6123a8565b6001600160a01b0381166120415760405162461bcd60e51b815260206004820152602660248201527f4f776e61626c653a206e6577206f776e657220697320746865207a65726f206160448201526564647265737360d01b60648201526084016107b4565b6110448161275a565b6000818152610107602052604081206004810154429190839061206d9084613256565b90506000826005015460648460030154856002015461208c9190613166565b612096919061317d565b6120a0919061317d565b905082600701546120b583856005015461286e565b6120bf9083613166565b6120c99190613256565b9695505050505050565b600081815261010760205260408120600481015442919083906120f69084613256565b905060008260050154836001015461210e919061317d565b905082600801546120b583856005015461286e565b60fb546040805163b70cc4c160e01b815290516060926001600160a01b03169161226191839163b70cc4c19160048083019260209291908290030181865afa158015612173573d6000803e3d6000fd5b505050506040513d601f19601f8201168201806040525081019061219791906130f8565b85836001600160a01b03166355a373d66040518163ffffffff1660e01b8152600401602060405180830381865afa1580156121d6573d6000803e3d6000fd5b505050506040513d601f19601f820116820180604052508101906121fa91906130f8565b846001600160a01b0316638290c4a66040518163ffffffff1660e01b8152600401602060405180830381865afa158015612238573d6000803e3d6000fd5b505050506040513d601f19601f8201168201806040525081019061225c91906130f8565b612884565b91508160018151811061227657612276613115565b602002602001015185600601600082825461229191906130e5565b92505081905550816000815181106122ab576122ab613115565b60200260200101518560070160008282546122c691906130e5565b9091555050600985018390558151829060019081106122e7576122e7613115565b6020026020010151610100600082825461230191906130e5565b925050819055508160008151811061231b5761231b613115565b6020026020010151610101600082825461233591906130e5565b909155509195945050505050565b6000805b835181101561239e57826001600160a01b031684828151811061236c5761236c613115565b60200260200101516001600160a01b03160361238c576001915050610d4c565b806123968161314d565b915050612347565b5060009392505050565b6065546001600160a01b031633146110e15760405162461bcd60e51b815260206004820181905260248201527f4f776e61626c653a2063616c6c6572206973206e6f7420746865206f776e657260448201526064016107b4565b60fc8054600180820183557f371f36870d18f32a11fea0f144b021c8b407bb50f8e0267c711123f454b963c090910180546001600160a01b0319166001600160a01b038916908117909155915460008381526101066020908152604080832084845261010783529083208154808701835582855292842090920184905581546001600160a81b0319166101009096029590951784178155426004820181905560058201879055938101899055600281018890556003810187905560fd80549295939493928a919087906124d69084906130e5565b925050819055508760fe60008282546124ef91906130e5565b9250508190555085898b6001600160a01b03167ff556991011e831bcfac4f406d547e5e32cdd98267efab83935230d5f8d02c4468760405161253391815260200190565b60405180910390a485888b6001600160a01b03167ff556991011e831bcfac4f406d547e5e32cdd98267efab83935230d5f8d02c4468760405161257891815260200190565b60405180910390a45060019998505050505050505050565b6110446123a8565b7f4910fdfa16fed3260ed0e7147f7cc6da11a60208b5b9406d12a635614ffd91435460ff16156125d0576125cb83612a07565b505050565b826001600160a01b03166352d1902d6040518163ffffffff1660e01b8152600401602060405180830381865afa92505050801561262a575060408051601f3d908101601f1916820190925261262791810190613269565b60015b61268d5760405162461bcd60e51b815260206004820152602e60248201527f45524331393637557067726164653a206e657720696d706c656d656e7461746960448201526d6f6e206973206e6f74205555505360901b60648201526084016107b4565b60008051602061342383398151915281146126fc5760405162461bcd60e51b815260206004820152602960248201527f45524331393637557067726164653a20756e737570706f727465642070726f786044820152681a58589b195555525160ba1b60648201526084016107b4565b506125cb838383612aa3565b612710612ace565b6033805460ff191690557f5db9ee0a495bf2e6ff9c91a7834c1ba4fdd244a5e8aa4e537bd38aeae4b073aa335b6040516001600160a01b03909116815260200160405180910390a1565b606580546001600160a01b038381166001600160a01b0319831681179093556040519116919082907f8be0079c531659141344cd1fd0a4f28419497f9722a3daafe3b4186f6b6457e090600090a35050565b600054610100900460ff166127d35760405162461bcd60e51b81526004016107b490613282565b6110e1612b17565b600054610100900460ff166128025760405162461bcd60e51b81526004016107b490613282565b6110e1612b4a565b600054610100900460ff166110e15760405162461bcd60e51b81526004016107b490613282565b612839612b7a565b6033805460ff191660011790557f62e78cea01bee320cd4e420270b5ea74000d11b0c9f74754ebdbfc544b05a25861273d3390565b600081831061287d578161138b565b5090919050565b6040805160028082526060808301845292600092919060208301908036833701905050905085816000815181106128bd576128bd613115565b60200260200101906001600160a01b031690816001600160a01b03168152505083816001815181106128f1576128f1613115565b6001600160a01b03928316602091820292909201015260405163095ea7b360e01b81528482166004820152602481018790529087169063095ea7b3906044016020604051808303816000875af115801561294f573d6000803e3d6000fd5b505050506040513d601f19601f82011682018060405250810190612973919061312b565b5060006001600160a01b0384166338ed173987600185306129954260646130e5565b6040518663ffffffff1660e01b81526004016129b59594939291906132cd565b6000604051808303816000875af11580156129d4573d6000803e3d6000fd5b505050506040513d6000823e601f3d908101601f191682016040526129fc9190810190613309565b979650505050505050565b6001600160a01b0381163b612a745760405162461bcd60e51b815260206004820152602d60248201527f455243313936373a206e657720696d706c656d656e746174696f6e206973206e60448201526c1bdd08184818dbdb9d1c9858dd609a1b60648201526084016107b4565b60008051602061342383398151915280546001600160a01b0319166001600160a01b0392909216919091179055565b612aac83612bc0565b600082511180612ab95750805b156125cb57612ac88383612c00565b50505050565b60335460ff166110e15760405162461bcd60e51b815260206004820152601460248201527314185d5cd8589b194e881b9bdd081c185d5cd95960621b60448201526064016107b4565b600054610100900460ff16612b3e5760405162461bcd60e51b81526004016107b490613282565b6033805460ff19169055565b600054610100900460ff16612b715760405162461bcd60e51b81526004016107b490613282565b6110e13361275a565b60335460ff16156110e15760405162461bcd60e51b815260206004820152601060248201526f14185d5cd8589b194e881c185d5cd95960821b60448201526064016107b4565b612bc981612a07565b6040516001600160a01b038216907fbc7cd75a20ee27fd9adebab32041f755214dbc6bffa90cc0225b39da2e5c2d3b90600090a250565b60606001600160a01b0383163b612c685760405162461bcd60e51b815260206004820152602660248201527f416464726573733a2064656c65676174652063616c6c20746f206e6f6e2d636f6044820152651b9d1c9858dd60d21b60648201526084016107b4565b600080846001600160a01b031684604051612c8391906133d3565b600060405180830381855af49150503d8060008114612cbe576040519150601f19603f3d011682016040523d82523d6000602084013e612cc3565b606091505b5091509150611e5c82826040518060600160405280602781526020016134436027913960608315612cf557508161138b565b61138b8383815115612d0a5781518083602001fd5b8060405162461bcd60e51b81526004016107b491906133ef565b600060208284031215612d3657600080fd5b5035919050565b600081518084526020808501945080840160005b83811015612d765781516001600160a01b031687529582019590820190600101612d51565b509495945050505050565b60208152600061138b6020830184612d3d565b6001600160a01b038116811461104457600080fd5b60008060408385031215612dbc57600080fd5b8235612dc781612d94565b946020939093013593505050565b600060208284031215612de757600080fd5b813561138b81612d94565b600080600060608486031215612e0757600080fd5b8335612e1281612d94565b95602085013595506040909401359392505050565b60008060208385031215612e3a57600080fd5b823567ffffffffffffffff80821115612e5257600080fd5b818501915085601f830112612e6657600080fd5b813581811115612e7557600080fd5b8660208260051b8501011115612e8a57600080fd5b60209290920196919550909350505050565b634e487b7160e01b600052604160045260246000fd5b604051601f8201601f1916810167ffffffffffffffff81118282101715612edb57612edb612e9c565b604052919050565b60008060408385031215612ef657600080fd5b8235612f0181612d94565b915060208381013567ffffffffffffffff80821115612f1f57600080fd5b818601915086601f830112612f3357600080fd5b813581811115612f4557612f45612e9c565b612f57601f8201601f19168501612eb2565b91508082528784828501011115612f6d57600080fd5b80848401858401376000848284010152508093505050509250929050565b600080600060608486031215612fa057600080fd5b8335612fab81612d94565b92506020840135612fbb81612d94565b929592945050506040919091013590565b600081518084526020808501945080840160005b83811015612d7657815187529582019590820190600101612fe0565b60208152600061138b6020830184612fcc565b8151151581526101608101602083015161303460208401826001600160a01b03169052565b5060408301516040830152606083015160608301526080830151608083015260a083015160a083015260c083015160c083015260e083015160e083015261010080840151818401525061012080840151818401525061014080840151818401525092915050565b6020815260008251604060208401526130b76060840182612fcc565b90506020840151151560408401528091505092915050565b634e487b7160e01b600052601160045260246000fd5b80820180821115610d4c57610d4c6130cf565b60006020828403121561310a57600080fd5b815161138b81612d94565b634e487b7160e01b600052603260045260246000fd5b60006020828403121561313d57600080fd5b8151801515811461138b57600080fd5b60006001820161315f5761315f6130cf565b5060010190565b8082028115828204841417610d4c57610d4c6130cf565b60008261319a57634e487b7160e01b600052601260045260246000fd5b500490565b6020808252602c908201527f46756e6374696f6e206d7573742062652063616c6c6564207468726f7567682060408201526b19195b1959d85d1958d85b1b60a21b606082015260800190565b6020808252602c908201527f46756e6374696f6e206d7573742062652063616c6c6564207468726f7567682060408201526b6163746976652070726f787960a01b606082015260800190565b600060ff821660ff810361324d5761324d6130cf565b60010192915050565b81810381811115610d4c57610d4c6130cf565b60006020828403121561327b57600080fd5b5051919050565b6020808252602b908201527f496e697469616c697a61626c653a20636f6e7472616374206973206e6f74206960408201526a6e697469616c697a696e6760a81b606082015260800190565b85815284602082015260a0604082015260006132ec60a0830186612d3d565b6001600160a01b0394909416606083015250608001529392505050565b6000602080838503121561331c57600080fd5b825167ffffffffffffffff8082111561333457600080fd5b818501915085601f83011261334857600080fd5b81518181111561335a5761335a612e9c565b8060051b915061336b848301612eb2565b818152918301840191848101908884111561338557600080fd5b938501935b838510156133a35784518252938501939085019061338a565b98975050505050505050565b60005b838110156133ca5781810151838201526020016133b2565b50506000910152565b600082516133e58184602087016133af565b9190910192915050565b602081526000825180602084015261340e8160408501602087016133af565b601f01601f1916919091016040019291505056fe360894a13ba1a3210667c828492db98dca3e2076cc3735a920a3ca505d382bbc416464726573733a206c6f772d6c6576656c2064656c65676174652063616c6c206661696c6564a2646970667358221220f34018334d69b242bf4a146e6d82596c039f29ee9c9129308c6eec9506018c9f64736f6c63430008110033",
  "linkReferences": {},
  "deployedLinkReferences": {}
}