{
  "_format": "hh-sol-artifact-1",
  "contractName": "StakingUpgradeable",
  "sourceName": "contracts/StakingUpgradeable.sol",
  "abi": [
    {
      "anonymous": false,
      "inputs": [
        {
          "indexed": false,
          "internalType": "address",
          "name": "previousAdmin",
          "type": "address"
        },
        {
          "indexed": false,
          "internalType": "address",
          "name": "newAdmin",
          "type": "address"
        }
      ],
      "name": "AdminChanged",
      "type": "event"
    },
    {
      "anonymous": false,
      "inputs": [
        {
          "indexed": true,
          "internalType": "address",
          "name": "beacon",
          "type": "address"
        }
      ],
      "name": "BeaconUpgraded",
      "type": "event"
    },
    {
      "anonymous": false,
      "inputs": [
        {
          "indexed": false,
          "internalType": "uint8",
          "name": "version",
          "type": "uint8"
        }
      ],
      "name": "Initialized",
      "type": "event"
    },
    {
      "anonymous": false,
      "inputs": [
        {
          "indexed": true,
          "internalType": "address",
          "name": "previousOwner",
          "type": "address"
        },
        {
          "indexed": true,
          "internalType": "address",
          "name": "newOwner",
          "type": "address"
        }
      ],
      "name": "OwnershipTransferred",
      "type": "event"
    },
    {
      "anonymous": false,
      "inputs": [
        {
          "indexed": false,
          "internalType": "address",
          "name": "account",
          "type": "address"
        }
      ],
      "name": "Paused",
      "type": "event"
    },
    {
      "anonymous": false,
      "inputs": [
        {
          "indexed": true,
          "internalType": "address",
          "name": "userAddress",
          "type": "address"
        },
        {
          "indexed": false,
          "internalType": "uint256",
          "name": "amount",
          "type": "uint256"
        }
      ],
      "name": "PrincipalClaimed",
      "type": "event"
    },
    {
      "anonymous": false,
      "inputs": [
        {
          "indexed": true,
          "internalType": "address",
          "name": "userAddress",
          "type": "address"
        },
        {
          "indexed": true,
          "internalType": "uint256",
          "name": "valueStaked",
          "type": "uint256"
        },
        {
          "indexed": true,
          "internalType": "uint256",
          "name": "duration",
          "type": "uint256"
        },
        {
          "indexed": false,
          "internalType": "uint256",
          "name": "stakingID",
          "type": "uint256"
        }
      ],
      "name": "Stake",
      "type": "event"
    },
    {
      "anonymous": false,
      "inputs": [
        {
          "indexed": true,
          "internalType": "address",
          "name": "userAddress",
          "type": "address"
        },
        {
          "indexed": true,
          "internalType": "uint256",
          "name": "reward",
          "type": "uint256"
        },
        {
          "indexed": true,
          "internalType": "uint256",
          "name": "stakingID",
          "type": "uint256"
        },
        {
          "indexed": false,
          "internalType": "address",
          "name": "tokenAddress",
          "type": "address"
        }
      ],
      "name": "StakingRewardClaimed",
      "type": "event"
    },
    {
      "anonymous": false,
      "inputs": [
        {
          "indexed": false,
          "internalType": "address",
          "name": "account",
          "type": "address"
        }
      ],
      "name": "Unpaused",
      "type": "event"
    },
    {
      "anonymous": false,
      "inputs": [
        {
          "indexed": true,
          "internalType": "address",
          "name": "userAddress",
          "type": "address"
        },
        {
          "indexed": true,
          "internalType": "uint256",
          "name": "valueStaked",
          "type": "uint256"
        },
        {
          "indexed": true,
          "internalType": "uint256",
          "name": "stakingID",
          "type": "uint256"
        }
      ],
      "name": "Unstake",
      "type": "event"
    },
    {
      "anonymous": false,
      "inputs": [
        {
          "indexed": true,
          "internalType": "address",
          "name": "implementation",
          "type": "address"
        }
      ],
      "name": "Upgraded",
      "type": "event"
    },
    {
      "inputs": [],
      "name": "allStakersList",
      "outputs": [
        {
          "internalType": "uint256",
          "name": "stakersCount",
          "type": "uint256"
        },
        {
          "internalType": "address[]",
          "name": "stakersList",
          "type": "address[]"
        }
      ],
      "stateMutability": "view",
      "type": "function"
    },
    {
      "inputs": [
        {
          "internalType": "uint256",
          "name": "_stakingID",
          "type": "uint256"
        }
      ],
      "name": "claimStakingReward",
      "outputs": [],
      "stateMutability": "nonpayable",
      "type": "function"
    },
    {
      "inputs": [
        {
          "internalType": "address[]",
          "name": "_userAddress",
          "type": "address[]"
        }
      ],
      "name": "disableAccounts",
      "outputs": [],
      "stateMutability": "nonpayable",
      "type": "function"
    },
    {
      "inputs": [
        {
          "internalType": "address[]",
          "name": "_userAddress",
          "type": "address[]"
        }
      ],
      "name": "enableAccounts",
      "outputs": [],
      "stateMutability": "nonpayable",
      "type": "function"
    },
    {
      "inputs": [],
      "name": "getDisabledAccountsList",
      "outputs": [
        {
          "internalType": "address[]",
          "name": "",
          "type": "address[]"
        }
      ],
      "stateMutability": "view",
      "type": "function"
    },
    {
      "inputs": [],
      "name": "getStakingCappings",
      "outputs": [
        {
          "internalType": "uint256",
          "name": "minStakingValue",
          "type": "uint256"
        },
        {
          "internalType": "uint256",
          "name": "stakingRewardRate",
          "type": "uint256"
        },
        {
          "internalType": "uint256",
          "name": "stakingDuration",
          "type": "uint256"
        },
        {
          "internalType": "uint256",
          "name": "stakingRewardClaimTimeLimit",
          "type": "uint256"
        }
      ],
      "stateMutability": "view",
      "type": "function"
    },
    {
      "inputs": [],
      "name": "getStakingReleaseRewardRate",
      "outputs": [
        {
          "internalType": "uint8",
          "name": "",
          "type": "uint8"
        }
      ],
      "stateMutability": "view",
      "type": "function"
    },
    {
      "inputs": [
        {
          "internalType": "uint256",
          "name": "_stakingID",
          "type": "uint256"
        }
      ],
      "name": "getStakingReward",
      "outputs": [
        {
          "internalType": "uint256",
          "name": "",
          "type": "uint256"
        }
      ],
      "stateMutability": "view",
      "type": "function"
    },
    {
      "inputs": [],
      "name": "getStakingRewardClaimTimeLimit",
      "outputs": [
        {
          "internalType": "uint256",
          "name": "",
          "type": "uint256"
        }
      ],
      "stateMutability": "view",
      "type": "function"
    },
    {
      "inputs": [
        {
          "internalType": "uint256",
          "name": "_stakingID",
          "type": "uint256"
        }
      ],
      "name": "getStakingRewardClaimTimeRemaining",
      "outputs": [
        {
          "internalType": "uint256",
          "name": "",
          "type": "uint256"
        }
      ],
      "stateMutability": "view",
      "type": "function"
    },
    {
      "inputs": [
        {
          "internalType": "uint256",
          "name": "_stakingID",
          "type": "uint256"
        }
      ],
      "name": "getStakingTimeRemaining",
      "outputs": [
        {
          "internalType": "uint256",
          "name": "",
          "type": "uint256"
        }
      ],
      "stateMutability": "view",
      "type": "function"
    },
    {
      "inputs": [],
      "name": "getTotalStakingRewardDistributed",
      "outputs": [
        {
          "internalType": "uint256",
          "name": "_tokenRewards",
          "type": "uint256"
        },
        {
          "internalType": "uint256",
          "name": "_ansudRewards",
          "type": "uint256"
        }
      ],
      "stateMutability": "view",
      "type": "function"
    },
    {
      "inputs": [],
      "name": "getTotalValueStaked",
      "outputs": [
        {
          "internalType": "uint256",
          "name": "token",
          "type": "uint256"
        },
        {
          "internalType": "uint256",
          "name": "anusd",
          "type": "uint256"
        }
      ],
      "stateMutability": "view",
      "type": "function"
    },
    {
      "inputs": [
        {
          "internalType": "address",
          "name": "_userAddress",
          "type": "address"
        }
      ],
      "name": "getUserAllStakingsRewards",
      "outputs": [
        {
          "internalType": "uint256",
          "name": "",
          "type": "uint256"
        }
      ],
      "stateMutability": "view",
      "type": "function"
    },
    {
      "inputs": [
        {
          "internalType": "address",
          "name": "_userAddress",
          "type": "address"
        }
      ],
      "name": "getUserStakingIDs",
      "outputs": [
        {
          "internalType": "uint256[]",
          "name": "",
          "type": "uint256[]"
        }
      ],
      "stateMutability": "view",
      "type": "function"
    },
    {
      "inputs": [
        {
          "internalType": "address",
          "name": "_userAddress",
          "type": "address"
        }
      ],
      "name": "getUserTotalPrincipalClaimed",
      "outputs": [
        {
          "internalType": "uint256",
          "name": "",
          "type": "uint256"
        }
      ],
      "stateMutability": "view",
      "type": "function"
    },
    {
      "inputs": [
        {
          "internalType": "address",
          "name": "_userAddress",
          "type": "address"
        }
      ],
      "name": "getUserTotalRewardClaimedANUSD",
      "outputs": [
        {
          "internalType": "uint256",
          "name": "totalRewardClaim",
          "type": "uint256"
        }
      ],
      "stateMutability": "view",
      "type": "function"
    },
    {
      "inputs": [
        {
          "internalType": "address",
          "name": "_userAddress",
          "type": "address"
        }
      ],
      "name": "getUserTotalRewardClaimedToken",
      "outputs": [
        {
          "internalType": "uint256",
          "name": "totalRewardClaim",
          "type": "uint256"
        }
      ],
      "stateMutability": "view",
      "type": "function"
    },
    {
      "inputs": [
        {
          "internalType": "address",
          "name": "_userAddress",
          "type": "address"
        }
      ],
      "name": "getUserTotalValueStaked",
      "outputs": [
        {
          "internalType": "uint256",
          "name": "token",
          "type": "uint256"
        },
        {
          "internalType": "uint256",
          "name": "anusd",
          "type": "uint256"
        }
      ],
      "stateMutability": "view",
      "type": "function"
    },
    {
      "inputs": [],
      "name": "initialize",
      "outputs": [],
      "stateMutability": "nonpayable",
      "type": "function"
    },
    {
      "inputs": [
        {
          "internalType": "address",
          "name": "_userAddress",
          "type": "address"
        }
      ],
      "name": "isAccountDisabled",
      "outputs": [
        {
          "internalType": "bool",
          "name": "",
          "type": "bool"
        }
      ],
      "stateMutability": "view",
      "type": "function"
    },
    {
      "inputs": [
        {
          "internalType": "address",
          "name": "_userAddress",
          "type": "address"
        }
      ],
      "name": "isStaked",
      "outputs": [
        {
          "internalType": "bool",
          "name": "",
          "type": "bool"
        }
      ],
      "stateMutability": "view",
      "type": "function"
    },
    {
      "inputs": [],
      "name": "owner",
      "outputs": [
        {
          "internalType": "address",
          "name": "",
          "type": "address"
        }
      ],
      "stateMutability": "view",
      "type": "function"
    },
    {
      "inputs": [],
      "name": "pause",
      "outputs": [],
      "stateMutability": "nonpayable",
      "type": "function"
    },
    {
      "inputs": [],
      "name": "paused",
      "outputs": [
        {
          "internalType": "bool",
          "name": "",
          "type": "bool"
        }
      ],
      "stateMutability": "view",
      "type": "function"
    },
    {
      "inputs": [],
      "name": "proxiableUUID",
      "outputs": [
        {
          "internalType": "bytes32",
          "name": "",
          "type": "bytes32"
        }
      ],
      "stateMutability": "view",
      "type": "function"
    },
    {
      "inputs": [],
      "name": "renounceOwnership",
      "outputs": [],
      "stateMutability": "nonpayable",
      "type": "function"
    },
    {
      "inputs": [
        {
          "internalType": "uint256",
          "name": "_value",
          "type": "uint256"
        }
      ],
      "name": "setMinStakingValue",
      "outputs": [
        {
          "internalType": "uint256",
          "name": "",
          "type": "uint256"
        }
      ],
      "stateMutability": "nonpayable",
      "type": "function"
    },
    {
      "inputs": [
        {
          "internalType": "uint256",
          "name": "_valueInDays",
          "type": "uint256"
        }
      ],
      "name": "setStakingDuration",
      "outputs": [],
      "stateMutability": "nonpayable",
      "type": "function"
    },
    {
      "inputs": [
        {
          "internalType": "uint8",
          "name": "_valueInDecimals",
          "type": "uint8"
        }
      ],
      "name": "setStakingReleaseRewardRate",
      "outputs": [],
      "stateMutability": "nonpayable",
      "type": "function"
    },
    {
      "inputs": [
        {
          "internalType": "uint256",
          "name": "_valueInDays",
          "type": "uint256"
        }
      ],
      "name": "setStakingRewardClaimTimeLimity",
      "outputs": [],
      "stateMutability": "nonpayable",
      "type": "function"
    },
    {
      "inputs": [
        {
          "internalType": "uint256",
          "name": "_valueInPer",
          "type": "uint256"
        }
      ],
      "name": "setStakingRewardRate",
      "outputs": [],
      "stateMutability": "nonpayable",
      "type": "function"
    },
    {
      "inputs": [
        {
          "internalType": "address",
          "name": "_userAddress",
          "type": "address"
        },
        {
          "internalType": "uint256",
          "name": "_valueInToken",
          "type": "uint256"
        },
        {
          "internalType": "uint256",
          "name": "_valueInANUSD",
          "type": "uint256"
        }
      ],
      "name": "stakeByAdmin",
      "outputs": [],
      "stateMutability": "nonpayable",
      "type": "function"
    },
    {
      "inputs": [
        {
          "internalType": "uint256",
          "name": "_stakingID",
          "type": "uint256"
        }
      ],
      "name": "stakeInfoMap",
      "outputs": [
        {
          "components": [
            {
              "internalType": "bool",
              "name": "isStaked",
              "type": "bool"
            },
            {
              "internalType": "address",
              "name": "owner",
              "type": "address"
            },
            {
              "internalType": "uint256",
              "name": "valueInToken",
              "type": "uint256"
            },
            {
              "internalType": "uint256",
              "name": "valueInANUSD",
              "type": "uint256"
            },
            {
              "internalType": "uint256",
              "name": "rewardRate",
              "type": "uint256"
            },
            {
              "internalType": "uint256",
              "name": "startTime",
              "type": "uint256"
            },
            {
              "internalType": "uint256",
              "name": "duration",
              "type": "uint256"
            },
            {
              "internalType": "uint256",
              "name": "rewardClaimedToken",
              "type": "uint256"
            },
            {
              "internalType": "uint256",
              "name": "rewardClaimedANUSD",
              "type": "uint256"
            },
            {
              "internalType": "uint256",
              "name": "principalClaimed",
              "type": "uint256"
            },
            {
              "internalType": "uint256",
              "name": "lastTimeRewardClaimed",
              "type": "uint256"
            }
          ],
          "internalType": "struct StakingUpgradeable.StakeInfo",
          "name": "",
          "type": "tuple"
        }
      ],
      "stateMutability": "view",
      "type": "function"
    },
    {
      "inputs": [
        {
          "internalType": "address",
          "name": "_userAddress",
          "type": "address"
        },
        {
          "internalType": "uint256",
          "name": "_valueInToken",
          "type": "uint256"
        }
      ],
      "name": "stakeTopUpByAdmin",
      "outputs": [],
      "stateMutability": "nonpayable",
      "type": "function"
    },
    {
      "inputs": [
        {
          "internalType": "address",
          "name": "newOwner",
          "type": "address"
        }
      ],
      "name": "transferOwnership",
      "outputs": [],
      "stateMutability": "nonpayable",
      "type": "function"
    },
    {
      "inputs": [],
      "name": "unpause",
      "outputs": [],
      "stateMutability": "nonpayable",
      "type": "function"
    },
    {
      "inputs": [
        {
          "internalType": "address",
          "name": "newImplementation",
          "type": "address"
        }
      ],
      "name": "upgradeTo",
      "outputs": [],
      "stateMutability": "nonpayable",
      "type": "function"
    },
    {
      "inputs": [
        {
          "internalType": "address",
          "name": "newImplementation",
          "type": "address"
        },
        {
          "internalType": "bytes",
          "name": "data",
          "type": "bytes"
        }
      ],
      "name": "upgradeToAndCall",
      "outputs": [],
      "stateMutability": "payable",
      "type": "function"
    },
    {
      "inputs": [
        {
          "internalType": "address",
          "name": "_userAddress",
          "type": "address"
        }
      ],
      "name": "userAccountMap",
      "outputs": [
        {
          "components": [
            {
              "internalType": "uint256[]",
              "name": "stakingID",
              "type": "uint256[]"
            },
            {
              "internalType": "bool",
              "name": "isDisabled",
              "type": "bool"
            }
          ],
          "internalType": "struct StakingUpgradeable.Account",
          "name": "",
          "type": "tuple"
        }
      ],
      "stateMutability": "view",
      "type": "function"
    },
    {
      "inputs": [
        {
          "internalType": "address",
          "name": "_receiver",
          "type": "address"
        },
        {
          "internalType": "uint256",
          "name": "_value",
          "type": "uint256"
        }
      ],
      "name": "withdrawNativeFunds",
      "outputs": [
        {
          "internalType": "bool",
          "name": "",
          "type": "bool"
        }
      ],
      "stateMutability": "nonpayable",
      "type": "function"
    },
    {
      "inputs": [
        {
          "internalType": "address",
          "name": "_tokenAddress",
          "type": "address"
        },
        {
          "internalType": "address",
          "name": "_receiver",
          "type": "address"
        },
        {
          "internalType": "uint256",
          "name": "_value",
          "type": "uint256"
        }
      ],
      "name": "withdrawTokens",
      "outputs": [
        {
          "internalType": "bool",
          "name": "",
          "type": "bool"
        }
      ],
      "stateMutability": "nonpayable",
      "type": "function"
    },
    {
      "stateMutability": "payable",
      "type": "receive"
    }
  ],
  "bytecode": "0x60a06040523060805234801561001457600080fd5b506080516133d161004c6000396000818161125401528181611294015281816113cf0152818161140f01526114a201526133d16000f3fe6080604052600436106102555760003560e01c80636a8ca69111610139578063a40b5891116100b6578063c06a53881161007a578063c06a538814610710578063d596fe7f14610733578063d8ba90b714610753578063deede65414610773578063e3a51f581461078b578063f2fde38b146107c857600080fd5b8063a40b589114610639578063a7566b7514610676578063abfe35ad146106a3578063b7d68519146106c3578063ba4f678e146106e357600080fd5b80638129fc1c116100fd5780638129fc1c146105a75780638456cb59146105bc5780638da5cb5b146105d1578063900a253b146105f95780639c3fe28a1461061957600080fd5b80636a8ca6911461050b5780636f51b20b1461052b578063715018a614610558578063736e9b941461056d5780637ce574bf1461058d57600080fd5b80633f4ba83a116101d25780635cbfd021116101965780635cbfd021146104365780635e35359e146104565780635f869714146104765780636177fd18146104ab578063628b372b146104cb57806366e5e570146104eb57600080fd5b80633f4ba83a146103c15780634f1ef286146103d657806352d1902d146103e957806353bdadea146103fe5780635c975abb1461041e57600080fd5b806326792aca1161021957806326792aca1461031157806328796bbd14610341578063310c9b20146103615780633659cfe6146103815780633b09098f146103a157600080fd5b806308141e4e146102615780631e6f8fe71461029457806322ae497e146102b7578063239cd4a4146102cd578063260cb4e9146102ef57600080fd5b3661025c57005b600080fd5b34801561026d57600080fd5b5061028161027c366004612bd8565b6107e8565b6040519081526020015b60405180910390f35b3480156102a057600080fd5b506101085460405160ff909116815260200161028b565b3480156102c357600080fd5b5061010554610281565b3480156102d957600080fd5b506102ed6102e8366004612bd8565b61085f565b005b3480156102fb57600080fd5b50610304610ea7565b60405161028b9190612c35565b34801561031d57600080fd5b5061033161032c366004612c5d565b611023565b604051901515815260200161028b565b34801561034d57600080fd5b5061028161035c366004612c89565b61106f565b34801561036d57600080fd5b506102ed61037c366004612ca6565b611148565b34801561038d57600080fd5b506102ed61039c366004612c89565b61124a565b3480156103ad57600080fd5b506102ed6103bc366004612cdb565b611329565b3480156103cd57600080fd5b506102ed6113b3565b6102ed6103e4366004612d97565b6113c5565b3480156103f557600080fd5b50610281611495565b34801561040a57600080fd5b506102ed610419366004612cdb565b611548565b34801561042a57600080fd5b5060335460ff16610331565b34801561044257600080fd5b506102ed610451366004612bd8565b6115ce565b34801561046257600080fd5b50610331610471366004612e3f565b6115ea565b34801561048257600080fd5b50610496610491366004612c89565b611674565b6040805192835260208301919091520161028b565b3480156104b757600080fd5b506103316104c6366004612c89565b611770565b3480156104d757600080fd5b506102816104e6366004612c89565b61184d565b3480156104f757600080fd5b50610281610506366004612c89565b61192a565b34801561051757600080fd5b506102ed610526366004612bd8565b6119fa565b34801561053757600080fd5b5061054b610546366004612c89565b611a16565b60405161028b9190612eb0565b34801561056457600080fd5b506102ed611a83565b34801561057957600080fd5b506102ed610588366004612ec3565b611a95565b34801561059957600080fd5b506101005461010154610496565b3480156105b357600080fd5b506102ed611ab4565b3480156105c857600080fd5b506102ed611c1e565b3480156105dd57600080fd5b506065546040516001600160a01b03909116815260200161028b565b34801561060557600080fd5b506102ed610614366004612c5d565b611c2e565b34801561062557600080fd5b50610281610634366004612c89565b611d13565b34801561064557600080fd5b50610331610654366004612c89565b6001600160a01b03166000908152610106602052604090206001015460ff1690565b34801561068257600080fd5b50610696610691366004612bd8565b611e1b565b60405161028b9190612ee6565b3480156106af57600080fd5b506102816106be366004612bd8565b611f23565b3480156106cf57600080fd5b506102ed6106de366004612bd8565b611f2e565b3480156106ef57600080fd5b506107036106fe366004612c89565b611f3c565b60405161028b9190612f72565b34801561071c57600080fd5b50610725611fd4565b60405161028b929190612fa6565b34801561073f57600080fd5b5061028161074e366004612bd8565b61203d565b34801561075f57600080fd5b5061028161076e366004612bd8565b612051565b34801561077f57600080fd5b5060fd5460fe54610496565b34801561079757600080fd5b506101025461010354610104546101055460408051948552602085019390935291830152606082015260800161028b565b3480156107d457600080fd5b506102ed6107e3366004612c89565b6120b6565b60008181526101076020526040812060098101544291901561084b57816101055482600901546108189190612fd5565b1061084057816101055482600901546108319190612fd5565b61083b9190612fe8565b610843565b60005b949350505050565b816101055482600401546108189190612fd5565b61086761212c565b600061087282612172565b9050600061087f836121c8565b9050600082116108d65760405162461bcd60e51b815260206004820152601c60248201527f596f752068617665206e6f207374616b696e67206f7220656e6465640000000060448201526064015b60405180910390fd5b60fb5460008481526101076020908152604080832033808552610106909352922082546001600160a01b03948516949293924291610100900416841461096e5760405162461bcd60e51b815260206004820152602760248201527f536f727279207374616b696e6720696420646f656e27742062656c6f6e6773206044820152663a37903cb7ba9760c91b60648201526084016108cd565b600182015460ff16156109db5760405162461bcd60e51b815260206004820152602f60248201527f596f7572206163636f756e742069732064697361626c65642e20506c6561736560448201526e1031b7b73a30b1ba1030b236b4b71760891b60648201526084016108cd565b426101055484600901546109ef9190612fd5565b10610a4e5760405162461bcd60e51b815260206004820152602960248201527f596f752063616e6e6f7420636c61696d20726577617264206265666f7265207460448201526834b6b2b634b6b4ba1760b91b60648201526084016108cd565b6000610b7f866001600160a01b031663b70cc4c16040518163ffffffff1660e01b8152600401602060405180830381865afa158015610a91573d6000803e3d6000fd5b505050506040513d601f19601f82011682018060405250810190610ab59190612ffb565b89886001600160a01b03166355a373d66040518163ffffffff1660e01b8152600401602060405180830381865afa158015610af4573d6000803e3d6000fd5b505050506040513d601f19601f82011682018060405250810190610b189190612ffb565b896001600160a01b0316638290c4a66040518163ffffffff1660e01b8152600401602060405180830381865afa158015610b56573d6000803e3d6000fd5b505050506040513d601f19601f82011682018060405250810190610b7a9190612ffb565b612236565b905086846008016000828254610b959190612fd5565b925050819055508660ff6000828254610bae9190612fd5565b9250508190555080600181518110610bc857610bc8613018565b6020026020010151846006016000828254610be39190612fd5565b9250508190555080600081518110610bfd57610bfd613018565b6020026020010151846007016000828254610c189190612fd5565b909155505060098401829055805181906001908110610c3957610c39613018565b60200260200101516101006000828254610c539190612fd5565b9250508190555080600081518110610c6d57610c6d613018565b60200260200101516101016000828254610c879190612fd5565b92505081905550856001600160a01b03166355a373d66040518163ffffffff1660e01b8152600401602060405180830381865afa158015610ccc573d6000803e3d6000fd5b505050506040513d601f19601f82011682018060405250810190610cf09190612ffb565b6001600160a01b031663a9059cbb868984600181518110610d1357610d13613018565b6020026020010151610d259190612fd5565b6040516001600160e01b031960e085901b1681526001600160a01b03909216600483015260248201526044016020604051808303816000875af1158015610d70573d6000803e3d6000fd5b505050506040513d601f19601f82011682018060405250810190610d94919061302e565b50846001600160a01b03167f2e6100b89b43378c0aeb062f2df0cfaa63e4437abab6844b441f8e47cb31bec388604051610dd091815260200190565b60405180910390a28881600181518110610dec57610dec613018565b6020026020010151866001600160a01b03167ffec605188cf64597b9aa9cf424a9bba4a84ffb09f9f66c932d6efa1b96fcc7e4896001600160a01b03166355a373d66040518163ffffffff1660e01b8152600401602060405180830381865afa158015610e5d573d6000803e3d6000fd5b505050506040513d601f19601f82011682018060405250810190610e819190612ffb565b6040516001600160a01b03909116815260200160405180910390a4505050505050505050565b6000808052610106602090815260fc80546040805182850281018501909152818152606094937f36b574eb542e18a2932b42c3f7b99e0cccde75c2d7e80ac19800931af8e17fa29385939091830182828015610f2c57602002820191906000526020600020905b81546001600160a01b03168152600190910190602001808311610f0e575b5050505050905060008151905060008167ffffffffffffffff811115610f5457610f54612d50565b604051908082528060200260200182016040528015610f7d578160200160208202803683370190505b5090506000805b8381101561101757848181518110610f9e57610f9e613018565b60200260200101519650610fb283886123b9565b15156001146110055760018087015460ff16151590036110055786838381518110610fdf57610fdf613018565b6001600160a01b03909216602092830291909101909101528161100181613050565b9250505b8061100f81613050565b915050610f84565b50909695505050505050565b600061102d61241e565b6040516001600160a01b0384169083156108fc029084906000818181858888f19350505050158015611063573d6000803e3d6000fd5b50600190505b92915050565b6001600160a01b0381166000908152610106602090815260408083208054825181850281018501909352808352909284929184918301828280156110d257602002820191906000526020600020905b8154815260200190600101908083116110be575b505083519394506000925050505b8181101561113f576000610107600085848151811061110157611101613018565b6020026020010151815260200190815260200160002090508060070154866111299190612fd5565b955050808061113790613050565b9150506110e0565b50505050919050565b60fb5433906001600160a01b03166111686065546001600160a01b031690565b6001600160a01b0316826001600160a01b031614806111f95750806001600160a01b03166363d9df856040518163ffffffff1660e01b8152600401602060405180830381865afa1580156111c0573d6000803e3d6000fd5b505050506040513d601f19601f820116820180604052508101906111e49190612ffb565b6001600160a01b0316826001600160a01b0316145b6112155760405162461bcd60e51b81526004016108cd90613069565b61124285856064610103548761122b91906130ab565b61123591906130c2565b6101035461010454612478565b505050505050565b6001600160a01b037f00000000000000000000000000000000000000000000000000000000000000001630036112925760405162461bcd60e51b81526004016108cd906130e4565b7f00000000000000000000000000000000000000000000000000000000000000006001600160a01b03166112db600080516020613355833981519152546001600160a01b031690565b6001600160a01b0316146113015760405162461bcd60e51b81526004016108cd90613130565b61130a8161260d565b6040805160008082526020820190925261132691839190612615565b50565b61133161241e565b60008080526101066020527f36b574eb542e18a2932b42c3f7b99e0cccde75c2d7e80ac19800931af8e17fa282825b818110156112425785858281811061137a5761137a613018565b905060200201602081019061138f9190612c89565b6001848101805460ff191690911790559350806113ab81613050565b915050611360565b6113bb61241e565b6113c3612785565b565b6001600160a01b037f000000000000000000000000000000000000000000000000000000000000000016300361140d5760405162461bcd60e51b81526004016108cd906130e4565b7f00000000000000000000000000000000000000000000000000000000000000006001600160a01b0316611456600080516020613355833981519152546001600160a01b031690565b6001600160a01b03161461147c5760405162461bcd60e51b81526004016108cd90613130565b6114858261260d565b61149182826001612615565b5050565b6000306001600160a01b037f000000000000000000000000000000000000000000000000000000000000000016146115355760405162461bcd60e51b815260206004820152603860248201527f555550535570677261646561626c653a206d757374206e6f742062652063616c60448201527f6c6564207468726f7567682064656c656761746563616c6c000000000000000060648201526084016108cd565b5060008051602061335583398151915290565b61155061241e565b60008080526101066020527f36b574eb542e18a2932b42c3f7b99e0cccde75c2d7e80ac19800931af8e17fa282825b818110156112425785858281811061159957611599613018565b90506020020160208101906115ae9190612c89565b60018401805460ff191690559350806115c681613050565b91505061157f565b6115d661241e565b6115e381620151806130ab565b6101055550565b60006115f461241e565b60405163a9059cbb60e01b81526001600160a01b0384811660048301526024820184905285169063a9059cbb906044016020604051808303816000875af1158015611643573d6000803e3d6000fd5b505050506040513d601f19601f82011682018060405250810190611667919061302e565b50600190505b9392505050565b6001600160a01b0381166000908152610106602090815260408083208054825181850281018501909352808352849391928492909184918301828280156116da57602002820191906000526020600020905b8154815260200190600101908083116116c6575b505083519394506000925050505b81811015611767576000610107600085848151811061170957611709613018565b6020908102919091018101518252810191909152604001600020805490915060ff161561175457600181015461173f9088612fd5565b96508060020154866117519190612fd5565b95505b508061175f81613050565b9150506116e8565b50505050915091565b6001600160a01b0381166000908152610106602090815260408083208054825181850281018501909352808352909284929184918301828280156117d357602002820191906000526020600020905b8154815260200190600101908083116117bf575b505083519394506000925050505b8181101561184157610107600084838151811061180057611800613018565b60209081029190910181015182528101919091526040016000205460ff161561182f5750600195945050505050565b8061183981613050565b9150506117e1565b50600095945050505050565b6001600160a01b0381166000908152610106602090815260408083208054825181850281018501909352808352909284929184918301828280156118b057602002820191906000526020600020905b81548152602001906001019080831161189c575b505050505090506000815190506000805b8281101561192057600061010760008684815181106118e2576118e2613018565b60200260200101518152602001908152602001600020905080600801548361190a9190612fd5565b925050808061191890613050565b9150506118c1565b5095945050505050565b6001600160a01b03811660009081526101066020908152604080832080548251818502810185019093528083529092849291849183018282801561198d57602002820191906000526020600020905b815481526020019060010190808311611979575b505083519394506000925050505b8181101561113f57600061010760008584815181106119bc576119bc613018565b6020026020010151815260200190815260200160002090508060060154866119e49190612fd5565b95505080806119f290613050565b91505061199b565b611a0261241e565b611a0f81620151806130ab565b6101045550565b6001600160a01b03811660009081526101066020908152604091829020805483518184028101840190945280845260609392830182828015611a7757602002820191906000526020600020905b815481526020019060010190808311611a63575b50505050509050919050565b611a8b61241e565b6113c360006127d7565b611a9d61241e565b610108805460ff191660ff92909216919091179055565b600054610100900460ff1615808015611ad45750600054600160ff909116105b80611aee5750303b158015611aee575060005460ff166001145b611b515760405162461bcd60e51b815260206004820152602e60248201527f496e697469616c697a61626c653a20636f6e747261637420697320616c72656160448201526d191e481a5b9a5d1a585b1a5e995960921b60648201526084016108cd565b6000805460ff191660011790558015611b74576000805461ff0019166101001790555b60fb80546001600160a01b0319167377daafc7411c911b869c71bf70fe36cce507845d179055678ac7230489e80000610102556096610103556303e9f4006101045562278d0061010555611bc6612829565b611bce612858565b611bd6612887565b8015611326576000805461ff0019169055604051600181527f7f26b83ff96e1f2b6a682f133852f6798a09c465da95921460cefb38474024989060200160405180910390a150565b611c2661241e565b6113c36128ae565b60fb5433906001600160a01b0316611c4e6065546001600160a01b031690565b6001600160a01b0316826001600160a01b03161480611cdf5750806001600160a01b03166363d9df856040518163ffffffff1660e01b8152600401602060405180830381865afa158015611ca6573d6000803e3d6000fd5b505050506040513d601f19601f82011682018060405250810190611cca9190612ffb565b6001600160a01b0316826001600160a01b0316145b611cfb5760405162461bcd60e51b81526004016108cd90613069565b611d0c848460008061010454612478565b5050505050565b6001600160a01b03811660009081526101066020908152604080832080548251818502810185019093528083528493830182828015611d7157602002820191906000526020600020905b815481526020019060010190808311611d5d575b505050505090506000815190506000805b828160ff161015611e12576101076000858360ff1681518110611da757611da7613018565b60209081029190910181015182528101919091526040016000205460ff161515600103611e0057611df3848260ff1681518110611de657611de6613018565b6020026020010151612172565b611dfd9083612fd5565b91505b80611e0a8161317c565b915050611d82565b50949350505050565b611e8360405180610160016040528060001515815260200160006001600160a01b031681526020016000815260200160008152602001600081526020016000815260200160008152602001600081526020016000815260200160008152602001600081525090565b5060009081526101076020908152604091829020825161016081018452815460ff8116151582526001600160a01b036101009182900416938201939093526001820154938101939093526002810154606084015260038101546080840152600481015460a0840152600581015460c0840152600681015460e084015260078101549183019190915260088101546101208301526009015461014082015290565b600061106982612172565b611f3661241e565b61010355565b6040805180820182526060808252600060208084018290526001600160a01b038616825261010681529084902084518154928302810184018652948501828152939493909284928491840182828015611fb457602002820191906000526020600020905b815481526020019060010190808311611fa0575b50505091835250506001919091015460ff16151560209091015292915050565b6000606060fc80548060200260200160405190810160405280929190818152602001828054801561202e57602002820191906000526020600020905b81546001600160a01b03168152600190910190602001808311612010575b50505050509050805191509091565b600061204761241e565b5061010281905590565b6000818152610107602052604081206005810154600482015442929184916120799190612fd5565b9050808310156120ab5782826005015483600401546120989190612fd5565b6120a29190612fe8565b95945050505050565b506000949350505050565b6120be61241e565b6001600160a01b0381166121235760405162461bcd60e51b815260206004820152602660248201527f4f776e61626c653a206e6577206f776e657220697320746865207a65726f206160448201526564647265737360d01b60648201526084016108cd565b611326816127d7565b60335460ff16156113c35760405162461bcd60e51b815260206004820152601060248201526f14185d5cd8589b194e881c185d5cd95960821b60448201526064016108cd565b600081815261010760205260408120600481015442919083906121959084612fe8565b905081600701546121aa8284600501546128eb565b836005015484600201546121be91906130c2565b61209891906130ab565b600081815261010760205260408120600481015442919083906121eb9084612fe8565b905060008260050154836001015461220391906130c2565b905082600801546122188385600501546128eb565b61222290836130ab565b61222c9190612fe8565b9695505050505050565b60408051600280825260608083018452926000929190602083019080368337019050509050858160008151811061226f5761226f613018565b60200260200101906001600160a01b031690816001600160a01b03168152505083816001815181106122a3576122a3613018565b6001600160a01b03928316602091820292909201015260405163095ea7b360e01b81528482166004820152602481018790529087169063095ea7b3906044016020604051808303816000875af1158015612301573d6000803e3d6000fd5b505050506040513d601f19601f82011682018060405250810190612325919061302e565b5060006001600160a01b0384166338ed17398760018530612347426064612fd5565b6040518663ffffffff1660e01b815260040161236795949392919061319b565b6000604051808303816000875af1158015612386573d6000803e3d6000fd5b505050506040513d6000823e601f3d908101601f191682016040526123ae91908101906131d7565b979650505050505050565b6000805b835181101561241457826001600160a01b03168482815181106123e2576123e2613018565b60200260200101516001600160a01b031603612402576001915050611069565b8061240c81613050565b9150506123bd565b5060009392505050565b6065546001600160a01b031633146113c35760405162461bcd60e51b815260206004820181905260248201527f4f776e61626c653a2063616c6c6572206973206e6f7420746865206f776e657260448201526064016108cd565b60fc8054600180820183557f371f36870d18f32a11fea0f144b021c8b407bb50f8e0267c711123f454b963c090910180546001600160a01b0319166001600160a01b038916908117909155915460008381526101066020908152604080832084845261010783529083208154808701835582855292842090920184905581546001600160a81b031916610100909602959095178417815542600482018190556005820187905593810189905560028101889055600381018790556009810184905560fd80549295939493928a91908790612553908490612fd5565b925050819055508760fe600082825461256c9190612fd5565b9250508190555085898b6001600160a01b03167ff556991011e831bcfac4f406d547e5e32cdd98267efab83935230d5f8d02c446876040516125b091815260200190565b60405180910390a485888b6001600160a01b03167ff556991011e831bcfac4f406d547e5e32cdd98267efab83935230d5f8d02c446876040516125f591815260200190565b60405180910390a45060019998505050505050505050565b61132661241e565b7f4910fdfa16fed3260ed0e7147f7cc6da11a60208b5b9406d12a635614ffd91435460ff161561264d5761264883612901565b505050565b826001600160a01b03166352d1902d6040518163ffffffff1660e01b8152600401602060405180830381865afa9250505080156126a7575060408051601f3d908101601f191682019092526126a49181019061327d565b60015b61270a5760405162461bcd60e51b815260206004820152602e60248201527f45524331393637557067726164653a206e657720696d706c656d656e7461746960448201526d6f6e206973206e6f74205555505360901b60648201526084016108cd565b60008051602061335583398151915281146127795760405162461bcd60e51b815260206004820152602960248201527f45524331393637557067726164653a20756e737570706f727465642070726f786044820152681a58589b195555525160ba1b60648201526084016108cd565b5061264883838361299d565b61278d6129c8565b6033805460ff191690557f5db9ee0a495bf2e6ff9c91a7834c1ba4fdd244a5e8aa4e537bd38aeae4b073aa335b6040516001600160a01b03909116815260200160405180910390a1565b606580546001600160a01b038381166001600160a01b0319831681179093556040519116919082907f8be0079c531659141344cd1fd0a4f28419497f9722a3daafe3b4186f6b6457e090600090a35050565b600054610100900460ff166128505760405162461bcd60e51b81526004016108cd90613296565b6113c3612a11565b600054610100900460ff1661287f5760405162461bcd60e51b81526004016108cd90613296565b6113c3612a44565b600054610100900460ff166113c35760405162461bcd60e51b81526004016108cd90613296565b6128b661212c565b6033805460ff191660011790557f62e78cea01bee320cd4e420270b5ea74000d11b0c9f74754ebdbfc544b05a2586127ba3390565b60008183106128fa578161166d565b5090919050565b6001600160a01b0381163b61296e5760405162461bcd60e51b815260206004820152602d60248201527f455243313936373a206e657720696d706c656d656e746174696f6e206973206e60448201526c1bdd08184818dbdb9d1c9858dd609a1b60648201526084016108cd565b60008051602061335583398151915280546001600160a01b0319166001600160a01b0392909216919091179055565b6129a683612a74565b6000825111806129b35750805b15612648576129c28383612ab4565b50505050565b60335460ff166113c35760405162461bcd60e51b815260206004820152601460248201527314185d5cd8589b194e881b9bdd081c185d5cd95960621b60448201526064016108cd565b600054610100900460ff16612a385760405162461bcd60e51b81526004016108cd90613296565b6033805460ff19169055565b600054610100900460ff16612a6b5760405162461bcd60e51b81526004016108cd90613296565b6113c3336127d7565b612a7d81612901565b6040516001600160a01b038216907fbc7cd75a20ee27fd9adebab32041f755214dbc6bffa90cc0225b39da2e5c2d3b90600090a250565b60606001600160a01b0383163b612b1c5760405162461bcd60e51b815260206004820152602660248201527f416464726573733a2064656c65676174652063616c6c20746f206e6f6e2d636f6044820152651b9d1c9858dd60d21b60648201526084016108cd565b600080846001600160a01b031684604051612b379190613305565b600060405180830381855af49150503d8060008114612b72576040519150601f19603f3d011682016040523d82523d6000602084013e612b77565b606091505b50915091506120a282826040518060600160405280602781526020016133756027913960608315612ba957508161166d565b61166d8383815115612bbe5781518083602001fd5b8060405162461bcd60e51b81526004016108cd9190613321565b600060208284031215612bea57600080fd5b5035919050565b600081518084526020808501945080840160005b83811015612c2a5781516001600160a01b031687529582019590820190600101612c05565b509495945050505050565b60208152600061166d6020830184612bf1565b6001600160a01b038116811461132657600080fd5b60008060408385031215612c7057600080fd5b8235612c7b81612c48565b946020939093013593505050565b600060208284031215612c9b57600080fd5b813561166d81612c48565b600080600060608486031215612cbb57600080fd5b8335612cc681612c48565b95602085013595506040909401359392505050565b60008060208385031215612cee57600080fd5b823567ffffffffffffffff80821115612d0657600080fd5b818501915085601f830112612d1a57600080fd5b813581811115612d2957600080fd5b8660208260051b8501011115612d3e57600080fd5b60209290920196919550909350505050565b634e487b7160e01b600052604160045260246000fd5b604051601f8201601f1916810167ffffffffffffffff81118282101715612d8f57612d8f612d50565b604052919050565b60008060408385031215612daa57600080fd5b8235612db581612c48565b915060208381013567ffffffffffffffff80821115612dd357600080fd5b818601915086601f830112612de757600080fd5b813581811115612df957612df9612d50565b612e0b601f8201601f19168501612d66565b91508082528784828501011115612e2157600080fd5b80848401858401376000848284010152508093505050509250929050565b600080600060608486031215612e5457600080fd5b8335612e5f81612c48565b92506020840135612e6f81612c48565b929592945050506040919091013590565b600081518084526020808501945080840160005b83811015612c2a57815187529582019590820190600101612e94565b60208152600061166d6020830184612e80565b600060208284031215612ed557600080fd5b813560ff8116811461166d57600080fd5b81511515815261016081016020830151612f0b60208401826001600160a01b03169052565b5060408301516040830152606083015160608301526080830151608083015260a083015160a083015260c083015160c083015260e083015160e083015261010080840151818401525061012080840151818401525061014080840151818401525092915050565b602081526000825160406020840152612f8e6060840182612e80565b90506020840151151560408401528091505092915050565b8281526040602082015260006108436040830184612bf1565b634e487b7160e01b600052601160045260246000fd5b8082018082111561106957611069612fbf565b8181038181111561106957611069612fbf565b60006020828403121561300d57600080fd5b815161166d81612c48565b634e487b7160e01b600052603260045260246000fd5b60006020828403121561304057600080fd5b8151801515811461166d57600080fd5b60006001820161306257613062612fbf565b5060010190565b60208082526022908201527f4f6e6c79206f776e65722063616e2063616c6c20746869732066756e6374696f604082015261371760f11b606082015260800190565b808202811582820484141761106957611069612fbf565b6000826130df57634e487b7160e01b600052601260045260246000fd5b500490565b6020808252602c908201527f46756e6374696f6e206d7573742062652063616c6c6564207468726f7567682060408201526b19195b1959d85d1958d85b1b60a21b606082015260800190565b6020808252602c908201527f46756e6374696f6e206d7573742062652063616c6c6564207468726f7567682060408201526b6163746976652070726f787960a01b606082015260800190565b600060ff821660ff810361319257613192612fbf565b60010192915050565b85815284602082015260a0604082015260006131ba60a0830186612bf1565b6001600160a01b0394909416606083015250608001529392505050565b600060208083850312156131ea57600080fd5b825167ffffffffffffffff8082111561320257600080fd5b818501915085601f83011261321657600080fd5b81518181111561322857613228612d50565b8060051b9150613239848301612d66565b818152918301840191848101908884111561325357600080fd5b938501935b8385101561327157845182529385019390850190613258565b98975050505050505050565b60006020828403121561328f57600080fd5b5051919050565b6020808252602b908201527f496e697469616c697a61626c653a20636f6e7472616374206973206e6f74206960408201526a6e697469616c697a696e6760a81b606082015260800190565b60005b838110156132fc5781810151838201526020016132e4565b50506000910152565b600082516133178184602087016132e1565b9190910192915050565b60208152600082518060208401526133408160408501602087016132e1565b601f01601f1916919091016040019291505056fe360894a13ba1a3210667c828492db98dca3e2076cc3735a920a3ca505d382bbc416464726573733a206c6f772d6c6576656c2064656c65676174652063616c6c206661696c6564a2646970667358221220945b5bf447ef34e359f7f61eccc5cfd117520dbb118b1c3746c5c01ff7f2362764736f6c63430008110033",
  "linkReferences": {},
  "deployedLinkReferences": {}
}