{
  "_format": "hh-sol-artifact-1",
  "contractName": "StakingUpgradeable",
  "sourceName": "contracts/StakingUpgradeable.sol",
  "abi": [
    {
      "anonymous": false,
      "inputs": [
        {
          "indexed": false,
          "internalType": "address",
          "name": "previousAdmin",
          "type": "address"
        },
        {
          "indexed": false,
          "internalType": "address",
          "name": "newAdmin",
          "type": "address"
        }
      ],
      "name": "AdminChanged",
      "type": "event"
    },
    {
      "anonymous": false,
      "inputs": [
        {
          "indexed": true,
          "internalType": "address",
          "name": "beacon",
          "type": "address"
        }
      ],
      "name": "BeaconUpgraded",
      "type": "event"
    },
    {
      "anonymous": false,
      "inputs": [
        {
          "indexed": false,
          "internalType": "uint8",
          "name": "version",
          "type": "uint8"
        }
      ],
      "name": "Initialized",
      "type": "event"
    },
    {
      "anonymous": false,
      "inputs": [
        {
          "indexed": true,
          "internalType": "address",
          "name": "previousOwner",
          "type": "address"
        },
        {
          "indexed": true,
          "internalType": "address",
          "name": "newOwner",
          "type": "address"
        }
      ],
      "name": "OwnershipTransferred",
      "type": "event"
    },
    {
      "anonymous": false,
      "inputs": [
        {
          "indexed": false,
          "internalType": "address",
          "name": "account",
          "type": "address"
        }
      ],
      "name": "Paused",
      "type": "event"
    },
    {
      "anonymous": false,
      "inputs": [
        {
          "indexed": true,
          "internalType": "address",
          "name": "userAddress",
          "type": "address"
        },
        {
          "indexed": false,
          "internalType": "uint256",
          "name": "amount",
          "type": "uint256"
        }
      ],
      "name": "PrincipalClaimed",
      "type": "event"
    },
    {
      "anonymous": false,
      "inputs": [
        {
          "indexed": true,
          "internalType": "address",
          "name": "userAddress",
          "type": "address"
        },
        {
          "indexed": true,
          "internalType": "uint256",
          "name": "valueStaked",
          "type": "uint256"
        },
        {
          "indexed": true,
          "internalType": "uint256",
          "name": "duration",
          "type": "uint256"
        },
        {
          "indexed": false,
          "internalType": "uint256",
          "name": "stakingID",
          "type": "uint256"
        }
      ],
      "name": "Stake",
      "type": "event"
    },
    {
      "anonymous": false,
      "inputs": [
        {
          "indexed": true,
          "internalType": "address",
          "name": "userAddress",
          "type": "address"
        },
        {
          "indexed": true,
          "internalType": "uint256",
          "name": "reward",
          "type": "uint256"
        },
        {
          "indexed": true,
          "internalType": "uint256",
          "name": "stakingID",
          "type": "uint256"
        },
        {
          "indexed": false,
          "internalType": "address",
          "name": "tokenAddress",
          "type": "address"
        }
      ],
      "name": "StakingRewardClaimed",
      "type": "event"
    },
    {
      "anonymous": false,
      "inputs": [
        {
          "indexed": false,
          "internalType": "address",
          "name": "account",
          "type": "address"
        }
      ],
      "name": "Unpaused",
      "type": "event"
    },
    {
      "anonymous": false,
      "inputs": [
        {
          "indexed": true,
          "internalType": "address",
          "name": "userAddress",
          "type": "address"
        },
        {
          "indexed": true,
          "internalType": "uint256",
          "name": "valueStaked",
          "type": "uint256"
        },
        {
          "indexed": true,
          "internalType": "uint256",
          "name": "stakingID",
          "type": "uint256"
        }
      ],
      "name": "Unstake",
      "type": "event"
    },
    {
      "anonymous": false,
      "inputs": [
        {
          "indexed": true,
          "internalType": "address",
          "name": "implementation",
          "type": "address"
        }
      ],
      "name": "Upgraded",
      "type": "event"
    },
    {
      "inputs": [],
      "name": "activeStakersList",
      "outputs": [
        {
          "internalType": "address[]",
          "name": "",
          "type": "address[]"
        }
      ],
      "stateMutability": "view",
      "type": "function"
    },
    {
      "inputs": [],
      "name": "allStakersList",
      "outputs": [
        {
          "internalType": "address[]",
          "name": "",
          "type": "address[]"
        }
      ],
      "stateMutability": "view",
      "type": "function"
    },
    {
      "inputs": [
        {
          "internalType": "uint256",
          "name": "_stakingID",
          "type": "uint256"
        }
      ],
      "name": "claimStakingReward",
      "outputs": [],
      "stateMutability": "nonpayable",
      "type": "function"
    },
    {
      "inputs": [
        {
          "internalType": "address[]",
          "name": "_userAddress",
          "type": "address[]"
        }
      ],
      "name": "disableAccounts",
      "outputs": [],
      "stateMutability": "nonpayable",
      "type": "function"
    },
    {
      "inputs": [
        {
          "internalType": "address[]",
          "name": "_userAddress",
          "type": "address[]"
        }
      ],
      "name": "enableAccounts",
      "outputs": [],
      "stateMutability": "nonpayable",
      "type": "function"
    },
    {
      "inputs": [],
      "name": "getActiveStakingIDs",
      "outputs": [
        {
          "internalType": "uint256[]",
          "name": "",
          "type": "uint256[]"
        }
      ],
      "stateMutability": "view",
      "type": "function"
    },
    {
      "inputs": [],
      "name": "getDisabledAccountsList",
      "outputs": [
        {
          "internalType": "address[]",
          "name": "",
          "type": "address[]"
        }
      ],
      "stateMutability": "view",
      "type": "function"
    },
    {
      "inputs": [],
      "name": "getStakingCappings",
      "outputs": [
        {
          "internalType": "uint256",
          "name": "minStakingValue",
          "type": "uint256"
        },
        {
          "internalType": "uint256",
          "name": "stakingRewardRate",
          "type": "uint256"
        },
        {
          "internalType": "uint256",
          "name": "stakingDuration",
          "type": "uint256"
        },
        {
          "internalType": "uint256",
          "name": "stakingRewardClaimTimeLimit",
          "type": "uint256"
        }
      ],
      "stateMutability": "view",
      "type": "function"
    },
    {
      "inputs": [],
      "name": "getStakingReleaseRewardRate",
      "outputs": [
        {
          "internalType": "uint8",
          "name": "",
          "type": "uint8"
        }
      ],
      "stateMutability": "view",
      "type": "function"
    },
    {
      "inputs": [
        {
          "internalType": "uint256",
          "name": "_stakingID",
          "type": "uint256"
        }
      ],
      "name": "getStakingReward",
      "outputs": [
        {
          "internalType": "uint256",
          "name": "",
          "type": "uint256"
        }
      ],
      "stateMutability": "view",
      "type": "function"
    },
    {
      "inputs": [],
      "name": "getStakingRewardClaimTimeLimit",
      "outputs": [
        {
          "internalType": "uint256",
          "name": "",
          "type": "uint256"
        }
      ],
      "stateMutability": "view",
      "type": "function"
    },
    {
      "inputs": [
        {
          "internalType": "uint256",
          "name": "_stakingID",
          "type": "uint256"
        }
      ],
      "name": "getStakingRewardClaimTimeRemaining",
      "outputs": [
        {
          "internalType": "uint256",
          "name": "",
          "type": "uint256"
        }
      ],
      "stateMutability": "view",
      "type": "function"
    },
    {
      "inputs": [
        {
          "internalType": "uint256",
          "name": "_stakingID",
          "type": "uint256"
        }
      ],
      "name": "getStakingTimeRemaining",
      "outputs": [
        {
          "internalType": "uint256",
          "name": "",
          "type": "uint256"
        }
      ],
      "stateMutability": "view",
      "type": "function"
    },
    {
      "inputs": [],
      "name": "getTotalStakingRewardDistributed",
      "outputs": [
        {
          "internalType": "uint256",
          "name": "_tokenRewards",
          "type": "uint256"
        },
        {
          "internalType": "uint256",
          "name": "_ansudRewards",
          "type": "uint256"
        }
      ],
      "stateMutability": "view",
      "type": "function"
    },
    {
      "inputs": [],
      "name": "getTotalValueStaked",
      "outputs": [
        {
          "internalType": "uint256",
          "name": "token",
          "type": "uint256"
        },
        {
          "internalType": "uint256",
          "name": "anusd",
          "type": "uint256"
        }
      ],
      "stateMutability": "view",
      "type": "function"
    },
    {
      "inputs": [
        {
          "internalType": "address",
          "name": "_userAddress",
          "type": "address"
        }
      ],
      "name": "getUserAllStakingsRewards",
      "outputs": [
        {
          "internalType": "uint256",
          "name": "",
          "type": "uint256"
        }
      ],
      "stateMutability": "view",
      "type": "function"
    },
    {
      "inputs": [
        {
          "internalType": "address",
          "name": "_userAddress",
          "type": "address"
        }
      ],
      "name": "getUserStakingIDs",
      "outputs": [
        {
          "internalType": "uint256[]",
          "name": "",
          "type": "uint256[]"
        }
      ],
      "stateMutability": "view",
      "type": "function"
    },
    {
      "inputs": [
        {
          "internalType": "address",
          "name": "_userAddress",
          "type": "address"
        }
      ],
      "name": "getUserTotalPrincipalClaimed",
      "outputs": [
        {
          "internalType": "uint256",
          "name": "",
          "type": "uint256"
        }
      ],
      "stateMutability": "view",
      "type": "function"
    },
    {
      "inputs": [
        {
          "internalType": "address",
          "name": "_userAddress",
          "type": "address"
        }
      ],
      "name": "getUserTotalRewardClaimedANUSD",
      "outputs": [
        {
          "internalType": "uint256",
          "name": "totalRewardClaim",
          "type": "uint256"
        }
      ],
      "stateMutability": "view",
      "type": "function"
    },
    {
      "inputs": [
        {
          "internalType": "address",
          "name": "_userAddress",
          "type": "address"
        }
      ],
      "name": "getUserTotalRewardClaimedToken",
      "outputs": [
        {
          "internalType": "uint256",
          "name": "totalRewardClaim",
          "type": "uint256"
        }
      ],
      "stateMutability": "view",
      "type": "function"
    },
    {
      "inputs": [
        {
          "internalType": "address",
          "name": "_userAddress",
          "type": "address"
        }
      ],
      "name": "getUserTotalValueStaked",
      "outputs": [
        {
          "internalType": "uint256",
          "name": "token",
          "type": "uint256"
        },
        {
          "internalType": "uint256",
          "name": "anusd",
          "type": "uint256"
        }
      ],
      "stateMutability": "view",
      "type": "function"
    },
    {
      "inputs": [],
      "name": "initialize",
      "outputs": [],
      "stateMutability": "nonpayable",
      "type": "function"
    },
    {
      "inputs": [
        {
          "internalType": "address",
          "name": "_userAddress",
          "type": "address"
        }
      ],
      "name": "isAccountDisabled",
      "outputs": [
        {
          "internalType": "bool",
          "name": "",
          "type": "bool"
        }
      ],
      "stateMutability": "view",
      "type": "function"
    },
    {
      "inputs": [
        {
          "internalType": "address",
          "name": "_userAddress",
          "type": "address"
        }
      ],
      "name": "isStaked",
      "outputs": [
        {
          "internalType": "bool",
          "name": "",
          "type": "bool"
        }
      ],
      "stateMutability": "view",
      "type": "function"
    },
    {
      "inputs": [],
      "name": "owner",
      "outputs": [
        {
          "internalType": "address",
          "name": "",
          "type": "address"
        }
      ],
      "stateMutability": "view",
      "type": "function"
    },
    {
      "inputs": [],
      "name": "pause",
      "outputs": [],
      "stateMutability": "nonpayable",
      "type": "function"
    },
    {
      "inputs": [],
      "name": "paused",
      "outputs": [
        {
          "internalType": "bool",
          "name": "",
          "type": "bool"
        }
      ],
      "stateMutability": "view",
      "type": "function"
    },
    {
      "inputs": [],
      "name": "proxiableUUID",
      "outputs": [
        {
          "internalType": "bytes32",
          "name": "",
          "type": "bytes32"
        }
      ],
      "stateMutability": "view",
      "type": "function"
    },
    {
      "inputs": [],
      "name": "renounceOwnership",
      "outputs": [],
      "stateMutability": "nonpayable",
      "type": "function"
    },
    {
      "inputs": [
        {
          "internalType": "uint256",
          "name": "_value",
          "type": "uint256"
        }
      ],
      "name": "setMinStakingValue",
      "outputs": [
        {
          "internalType": "uint256",
          "name": "",
          "type": "uint256"
        }
      ],
      "stateMutability": "nonpayable",
      "type": "function"
    },
    {
      "inputs": [
        {
          "internalType": "uint256",
          "name": "_valueInDays",
          "type": "uint256"
        }
      ],
      "name": "setStakingDuration",
      "outputs": [],
      "stateMutability": "nonpayable",
      "type": "function"
    },
    {
      "inputs": [
        {
          "internalType": "uint8",
          "name": "_valueInDecimals",
          "type": "uint8"
        }
      ],
      "name": "setStakingReleaseRewardRate",
      "outputs": [],
      "stateMutability": "nonpayable",
      "type": "function"
    },
    {
      "inputs": [
        {
          "internalType": "uint256",
          "name": "_valueInDays",
          "type": "uint256"
        }
      ],
      "name": "setStakingRewardClaimTimeLimity",
      "outputs": [],
      "stateMutability": "nonpayable",
      "type": "function"
    },
    {
      "inputs": [
        {
          "internalType": "uint256",
          "name": "_valueInPer",
          "type": "uint256"
        }
      ],
      "name": "setStakingRewardRate",
      "outputs": [],
      "stateMutability": "nonpayable",
      "type": "function"
    },
    {
      "inputs": [
        {
          "internalType": "address",
          "name": "_userAddress",
          "type": "address"
        },
        {
          "internalType": "uint256",
          "name": "_valueInToken",
          "type": "uint256"
        },
        {
          "internalType": "uint256",
          "name": "_valueInANUSD",
          "type": "uint256"
        }
      ],
      "name": "stakeByAdmin",
      "outputs": [],
      "stateMutability": "nonpayable",
      "type": "function"
    },
    {
      "inputs": [
        {
          "internalType": "uint256",
          "name": "_stakingID",
          "type": "uint256"
        }
      ],
      "name": "stakeInfoMap",
      "outputs": [
        {
          "components": [
            {
              "internalType": "bool",
              "name": "isStaked",
              "type": "bool"
            },
            {
              "internalType": "address",
              "name": "owner",
              "type": "address"
            },
            {
              "internalType": "uint256",
              "name": "valueInToken",
              "type": "uint256"
            },
            {
              "internalType": "uint256",
              "name": "valueInANUSD",
              "type": "uint256"
            },
            {
              "internalType": "uint256",
              "name": "rewardRate",
              "type": "uint256"
            },
            {
              "internalType": "uint256",
              "name": "startTime",
              "type": "uint256"
            },
            {
              "internalType": "uint256",
              "name": "duration",
              "type": "uint256"
            },
            {
              "internalType": "uint256",
              "name": "rewardClaimedToken",
              "type": "uint256"
            },
            {
              "internalType": "uint256",
              "name": "rewardClaimedANUSD",
              "type": "uint256"
            },
            {
              "internalType": "uint256",
              "name": "principalClaimed",
              "type": "uint256"
            },
            {
              "internalType": "uint256",
              "name": "lastTimeRewardClaimed",
              "type": "uint256"
            }
          ],
          "internalType": "struct StakingUpgradeable.StakeInfo",
          "name": "",
          "type": "tuple"
        }
      ],
      "stateMutability": "view",
      "type": "function"
    },
    {
      "inputs": [
        {
          "internalType": "address",
          "name": "_userAddress",
          "type": "address"
        },
        {
          "internalType": "uint256",
          "name": "_valueInToken",
          "type": "uint256"
        }
      ],
      "name": "stakeTopUpByAdmin",
      "outputs": [],
      "stateMutability": "nonpayable",
      "type": "function"
    },
    {
      "inputs": [
        {
          "internalType": "address",
          "name": "newOwner",
          "type": "address"
        }
      ],
      "name": "transferOwnership",
      "outputs": [],
      "stateMutability": "nonpayable",
      "type": "function"
    },
    {
      "inputs": [],
      "name": "unpause",
      "outputs": [],
      "stateMutability": "nonpayable",
      "type": "function"
    },
    {
      "inputs": [
        {
          "internalType": "address",
          "name": "newImplementation",
          "type": "address"
        }
      ],
      "name": "upgradeTo",
      "outputs": [],
      "stateMutability": "nonpayable",
      "type": "function"
    },
    {
      "inputs": [
        {
          "internalType": "address",
          "name": "newImplementation",
          "type": "address"
        },
        {
          "internalType": "bytes",
          "name": "data",
          "type": "bytes"
        }
      ],
      "name": "upgradeToAndCall",
      "outputs": [],
      "stateMutability": "payable",
      "type": "function"
    },
    {
      "inputs": [
        {
          "internalType": "address",
          "name": "_userAddress",
          "type": "address"
        }
      ],
      "name": "userAccountMap",
      "outputs": [
        {
          "components": [
            {
              "internalType": "uint256[]",
              "name": "stakingID",
              "type": "uint256[]"
            },
            {
              "internalType": "bool",
              "name": "isDisabled",
              "type": "bool"
            }
          ],
          "internalType": "struct StakingUpgradeable.Account",
          "name": "",
          "type": "tuple"
        }
      ],
      "stateMutability": "view",
      "type": "function"
    },
    {
      "inputs": [
        {
          "internalType": "address",
          "name": "_receiver",
          "type": "address"
        },
        {
          "internalType": "uint256",
          "name": "_value",
          "type": "uint256"
        }
      ],
      "name": "withdrawNativeFunds",
      "outputs": [
        {
          "internalType": "bool",
          "name": "",
          "type": "bool"
        }
      ],
      "stateMutability": "nonpayable",
      "type": "function"
    },
    {
      "inputs": [
        {
          "internalType": "address",
          "name": "_tokenAddress",
          "type": "address"
        },
        {
          "internalType": "address",
          "name": "_receiver",
          "type": "address"
        },
        {
          "internalType": "uint256",
          "name": "_value",
          "type": "uint256"
        }
      ],
      "name": "withdrawTokens",
      "outputs": [
        {
          "internalType": "bool",
          "name": "",
          "type": "bool"
        }
      ],
      "stateMutability": "nonpayable",
      "type": "function"
    },
    {
      "stateMutability": "payable",
      "type": "receive"
    }
  ],
  "bytecode": "0x60a06040523060805234801561001457600080fd5b506080516136ee61004c60003960008181611286015281816112c6015281816114010152818161144101526114d401526136ee6000f3fe60806040526004361061026b5760003560e01c80636f51b20b11610144578063a7566b75116100b6578063d596fe7f1161007a578063d596fe7f14610750578063d8ba90b714610770578063dba4358c14610790578063deede654146107a5578063e3a51f58146107bd578063f2fde38b146107fa57600080fd5b8063a7566b75146106a1578063abfe35ad146106ce578063b7d68519146106ee578063ba4f678e1461070e578063c06a53881461073b57600080fd5b80638129fc1c116101085780638129fc1c146105d25780638456cb59146105e75780638da5cb5b146105fc578063900a253b146106245780639c3fe28a14610644578063a40b58911461066457600080fd5b80636f51b20b146105415780636f72693b1461056e578063715018a614610583578063736e9b94146105985780637ce574bf146105b857600080fd5b80634f1ef286116101dd5780635e35359e116101a15780635e35359e1461046c5780635f8697141461048c5780636177fd18146104c1578063628b372b146104e157806366e5e570146105015780636a8ca6911461052157600080fd5b80634f1ef286146103ec57806352d1902d146103ff57806353bdadea146104145780635c975abb146104345780635cbfd0211461044c57600080fd5b806326792aca1161022f57806326792aca1461032757806328796bbd14610357578063310c9b20146103775780633659cfe6146103975780633b09098f146103b75780633f4ba83a146103d757600080fd5b806308141e4e146102775780631e6f8fe7146102aa57806322ae497e146102cd578063239cd4a4146102e3578063260cb4e91461030557600080fd5b3661027257005b600080fd5b34801561028357600080fd5b50610297610292366004612f0e565b61081a565b6040519081526020015b60405180910390f35b3480156102b657600080fd5b506101085460405160ff90911681526020016102a1565b3480156102d957600080fd5b5061010554610297565b3480156102ef57600080fd5b506103036102fe366004612f0e565b610891565b005b34801561031157600080fd5b5061031a610ed9565b6040516102a19190612f6b565b34801561033357600080fd5b50610347610342366004612f93565b611055565b60405190151581526020016102a1565b34801561036357600080fd5b50610297610372366004612fbf565b6110a1565b34801561038357600080fd5b50610303610392366004612fdc565b61117a565b3480156103a357600080fd5b506103036103b2366004612fbf565b61127c565b3480156103c357600080fd5b506103036103d2366004613011565b61135b565b3480156103e357600080fd5b506103036113e5565b6103036103fa3660046130cd565b6113f7565b34801561040b57600080fd5b506102976114c7565b34801561042057600080fd5b5061030361042f366004613011565b61157a565b34801561044057600080fd5b5060335460ff16610347565b34801561045857600080fd5b50610303610467366004612f0e565b611600565b34801561047857600080fd5b50610347610487366004613175565b61161c565b34801561049857600080fd5b506104ac6104a7366004612fbf565b6116a6565b604080519283526020830191909152016102a1565b3480156104cd57600080fd5b506103476104dc366004612fbf565b6117a2565b3480156104ed57600080fd5b506102976104fc366004612fbf565b61187f565b34801561050d57600080fd5b5061029761051c366004612fbf565b61195c565b34801561052d57600080fd5b5061030361053c366004612f0e565b611a2c565b34801561054d57600080fd5b5061056161055c366004612fbf565b611a48565b6040516102a191906131e6565b34801561057a57600080fd5b50610561611ab5565b34801561058f57600080fd5b50610303611b6a565b3480156105a457600080fd5b506103036105b33660046131f9565b611b7c565b3480156105c457600080fd5b5061010054610101546104ac565b3480156105de57600080fd5b50610303611b9b565b3480156105f357600080fd5b50610303611d05565b34801561060857600080fd5b506065546040516001600160a01b0390911681526020016102a1565b34801561063057600080fd5b5061030361063f366004612f93565b611d15565b34801561065057600080fd5b5061029761065f366004612fbf565b611dfa565b34801561067057600080fd5b5061034761067f366004612fbf565b6001600160a01b03166000908152610106602052604090206001015460ff1690565b3480156106ad57600080fd5b506106c16106bc366004612f0e565b611f02565b6040516102a1919061321c565b3480156106da57600080fd5b506102976106e9366004612f0e565b61200a565b3480156106fa57600080fd5b50610303610709366004612f0e565b612015565b34801561071a57600080fd5b5061072e610729366004612fbf565b612023565b6040516102a191906132a8565b34801561074757600080fd5b5061031a6120bb565b34801561075c57600080fd5b5061029761076b366004612f0e565b61220f565b34801561077c57600080fd5b5061029761078b366004612f0e565b612223565b34801561079c57600080fd5b5061031a612288565b3480156107b157600080fd5b5060fd5460fe546104ac565b3480156107c957600080fd5b50610102546101035461010454610105546040805194855260208501939093529183015260608201526080016102a1565b34801561080657600080fd5b50610303610815366004612fbf565b6123ec565b60008181526101076020526040812060098101544291901561087d578161010554826009015461084a91906132f2565b10610872578161010554826009015461086391906132f2565b61086d9190613305565b610875565b60005b949350505050565b8161010554826004015461084a91906132f2565b610899612462565b60006108a4826124a8565b905060006108b1836124fe565b9050600082116109085760405162461bcd60e51b815260206004820152601c60248201527f596f752068617665206e6f207374616b696e67206f7220656e6465640000000060448201526064015b60405180910390fd5b60fb5460008481526101076020908152604080832033808552610106909352922082546001600160a01b0394851694929392429161010090041684146109a05760405162461bcd60e51b815260206004820152602760248201527f536f727279207374616b696e6720696420646f656e27742062656c6f6e6773206044820152663a37903cb7ba9760c91b60648201526084016108ff565b600182015460ff1615610a0d5760405162461bcd60e51b815260206004820152602f60248201527f596f7572206163636f756e742069732064697361626c65642e20506c6561736560448201526e1031b7b73a30b1ba1030b236b4b71760891b60648201526084016108ff565b42610105548460090154610a2191906132f2565b10610a805760405162461bcd60e51b815260206004820152602960248201527f596f752063616e6e6f7420636c61696d20726577617264206265666f7265207460448201526834b6b2b634b6b4ba1760b91b60648201526084016108ff565b6000610bb1866001600160a01b031663b70cc4c16040518163ffffffff1660e01b8152600401602060405180830381865afa158015610ac3573d6000803e3d6000fd5b505050506040513d601f19601f82011682018060405250810190610ae79190613318565b89886001600160a01b03166355a373d66040518163ffffffff1660e01b8152600401602060405180830381865afa158015610b26573d6000803e3d6000fd5b505050506040513d601f19601f82011682018060405250810190610b4a9190613318565b896001600160a01b0316638290c4a66040518163ffffffff1660e01b8152600401602060405180830381865afa158015610b88573d6000803e3d6000fd5b505050506040513d601f19601f82011682018060405250810190610bac9190613318565b61256c565b905086846008016000828254610bc791906132f2565b925050819055508660ff6000828254610be091906132f2565b9250508190555080600181518110610bfa57610bfa613335565b6020026020010151846006016000828254610c1591906132f2565b9250508190555080600081518110610c2f57610c2f613335565b6020026020010151846007016000828254610c4a91906132f2565b909155505060098401829055805181906001908110610c6b57610c6b613335565b60200260200101516101006000828254610c8591906132f2565b9250508190555080600081518110610c9f57610c9f613335565b60200260200101516101016000828254610cb991906132f2565b92505081905550856001600160a01b03166355a373d66040518163ffffffff1660e01b8152600401602060405180830381865afa158015610cfe573d6000803e3d6000fd5b505050506040513d601f19601f82011682018060405250810190610d229190613318565b6001600160a01b031663a9059cbb868984600181518110610d4557610d45613335565b6020026020010151610d5791906132f2565b6040516001600160e01b031960e085901b1681526001600160a01b03909216600483015260248201526044016020604051808303816000875af1158015610da2573d6000803e3d6000fd5b505050506040513d601f19601f82011682018060405250810190610dc6919061334b565b50846001600160a01b03167f2e6100b89b43378c0aeb062f2df0cfaa63e4437abab6844b441f8e47cb31bec388604051610e0291815260200190565b60405180910390a28881600181518110610e1e57610e1e613335565b6020026020010151866001600160a01b03167ffec605188cf64597b9aa9cf424a9bba4a84ffb09f9f66c932d6efa1b96fcc7e4896001600160a01b03166355a373d66040518163ffffffff1660e01b8152600401602060405180830381865afa158015610e8f573d6000803e3d6000fd5b505050506040513d601f19601f82011682018060405250810190610eb39190613318565b6040516001600160a01b03909116815260200160405180910390a4505050505050505050565b6000808052610106602090815260fc80546040805182850281018501909152818152606094937f36b574eb542e18a2932b42c3f7b99e0cccde75c2d7e80ac19800931af8e17fa29385939091830182828015610f5e57602002820191906000526020600020905b81546001600160a01b03168152600190910190602001808311610f40575b5050505050905060008151905060008167ffffffffffffffff811115610f8657610f86613086565b604051908082528060200260200182016040528015610faf578160200160208202803683370190505b5090506000805b8381101561104957848181518110610fd057610fd0613335565b60200260200101519650610fe483886126ef565b15156001146110375760018087015460ff1615159003611037578683838151811061101157611011613335565b6001600160a01b0390921660209283029190910190910152816110338161336d565b9250505b806110418161336d565b915050610fb6565b50909695505050505050565b600061105f612754565b6040516001600160a01b0384169083156108fc029084906000818181858888f19350505050158015611095573d6000803e3d6000fd5b50600190505b92915050565b6001600160a01b03811660009081526101066020908152604080832080548251818502810185019093528083529092849291849183018282801561110457602002820191906000526020600020905b8154815260200190600101908083116110f0575b505083519394506000925050505b81811015611171576000610107600085848151811061113357611133613335565b60200260200101518152602001908152602001600020905080600701548661115b91906132f2565b95505080806111699061336d565b915050611112565b50505050919050565b60fb5433906001600160a01b031661119a6065546001600160a01b031690565b6001600160a01b0316826001600160a01b0316148061122b5750806001600160a01b03166363d9df856040518163ffffffff1660e01b8152600401602060405180830381865afa1580156111f2573d6000803e3d6000fd5b505050506040513d601f19601f820116820180604052508101906112169190613318565b6001600160a01b0316826001600160a01b0316145b6112475760405162461bcd60e51b81526004016108ff90613386565b61127485856064610103548761125d91906133c8565b61126791906133df565b61010354610104546127ae565b505050505050565b6001600160a01b037f00000000000000000000000000000000000000000000000000000000000000001630036112c45760405162461bcd60e51b81526004016108ff90613401565b7f00000000000000000000000000000000000000000000000000000000000000006001600160a01b031661130d600080516020613672833981519152546001600160a01b031690565b6001600160a01b0316146113335760405162461bcd60e51b81526004016108ff9061344d565b61133c81612943565b604080516000808252602082019092526113589183919061294b565b50565b611363612754565b60008080526101066020527f36b574eb542e18a2932b42c3f7b99e0cccde75c2d7e80ac19800931af8e17fa282825b81811015611274578585828181106113ac576113ac613335565b90506020020160208101906113c19190612fbf565b6001848101805460ff191690911790559350806113dd8161336d565b915050611392565b6113ed612754565b6113f5612abb565b565b6001600160a01b037f000000000000000000000000000000000000000000000000000000000000000016300361143f5760405162461bcd60e51b81526004016108ff90613401565b7f00000000000000000000000000000000000000000000000000000000000000006001600160a01b0316611488600080516020613672833981519152546001600160a01b031690565b6001600160a01b0316146114ae5760405162461bcd60e51b81526004016108ff9061344d565b6114b782612943565b6114c38282600161294b565b5050565b6000306001600160a01b037f000000000000000000000000000000000000000000000000000000000000000016146115675760405162461bcd60e51b815260206004820152603860248201527f555550535570677261646561626c653a206d757374206e6f742062652063616c60448201527f6c6564207468726f7567682064656c656761746563616c6c000000000000000060648201526084016108ff565b5060008051602061367283398151915290565b611582612754565b60008080526101066020527f36b574eb542e18a2932b42c3f7b99e0cccde75c2d7e80ac19800931af8e17fa282825b81811015611274578585828181106115cb576115cb613335565b90506020020160208101906115e09190612fbf565b60018401805460ff191690559350806115f88161336d565b9150506115b1565b611608612754565b61161581620151806133c8565b6101055550565b6000611626612754565b60405163a9059cbb60e01b81526001600160a01b0384811660048301526024820184905285169063a9059cbb906044016020604051808303816000875af1158015611675573d6000803e3d6000fd5b505050506040513d601f19601f82011682018060405250810190611699919061334b565b50600190505b9392505050565b6001600160a01b03811660009081526101066020908152604080832080548251818502810185019093528083528493919284929091849183018282801561170c57602002820191906000526020600020905b8154815260200190600101908083116116f8575b505083519394506000925050505b81811015611799576000610107600085848151811061173b5761173b613335565b6020908102919091018101518252810191909152604001600020805490915060ff161561178657600181015461177190886132f2565b965080600201548661178391906132f2565b95505b50806117918161336d565b91505061171a565b50505050915091565b6001600160a01b03811660009081526101066020908152604080832080548251818502810185019093528083529092849291849183018282801561180557602002820191906000526020600020905b8154815260200190600101908083116117f1575b505083519394506000925050505b8181101561187357610107600084838151811061183257611832613335565b60209081029190910181015182528101919091526040016000205460ff16156118615750600195945050505050565b8061186b8161336d565b915050611813565b50600095945050505050565b6001600160a01b0381166000908152610106602090815260408083208054825181850281018501909352808352909284929184918301828280156118e257602002820191906000526020600020905b8154815260200190600101908083116118ce575b505050505090506000815190506000805b82811015611952576000610107600086848151811061191457611914613335565b60200260200101518152602001908152602001600020905080600801548361193c91906132f2565b925050808061194a9061336d565b9150506118f3565b5095945050505050565b6001600160a01b0381166000908152610106602090815260408083208054825181850281018501909352808352909284929184918301828280156119bf57602002820191906000526020600020905b8154815260200190600101908083116119ab575b505083519394506000925050505b8181101561117157600061010760008584815181106119ee576119ee613335565b602002602001015181526020019081526020016000209050806006015486611a1691906132f2565b9550508080611a249061336d565b9150506119cd565b611a34612754565b611a4181620151806133c8565b6101045550565b6001600160a01b03811660009081526101066020908152604091829020805483518184028101840190945280845260609392830182828015611aa957602002820191906000526020600020905b815481526020019060010190808311611a95575b50505050509050919050565b60fc5460609060008167ffffffffffffffff811115611ad657611ad6613086565b604051908082528060200260200182016040528015611aff578160200160208202803683370190505b50905060005b82811015611b6357600081815261010760205260409020805460ff161515600103611b50578115611b505781838381518110611b4357611b43613335565b6020026020010181815250505b5080611b5b8161336d565b915050611b05565b5092915050565b611b72612754565b6113f56000612b0d565b611b84612754565b610108805460ff191660ff92909216919091179055565b600054610100900460ff1615808015611bbb5750600054600160ff909116105b80611bd55750303b158015611bd5575060005460ff166001145b611c385760405162461bcd60e51b815260206004820152602e60248201527f496e697469616c697a61626c653a20636f6e747261637420697320616c72656160448201526d191e481a5b9a5d1a585b1a5e995960921b60648201526084016108ff565b6000805460ff191660011790558015611c5b576000805461ff0019166101001790555b60fb80546001600160a01b0319167377daafc7411c911b869c71bf70fe36cce507845d179055678ac7230489e80000610102556096610103556303e9f4006101045562278d0061010555611cad612b5f565b611cb5612b8e565b611cbd612bbd565b8015611358576000805461ff0019169055604051600181527f7f26b83ff96e1f2b6a682f133852f6798a09c465da95921460cefb38474024989060200160405180910390a150565b611d0d612754565b6113f5612be4565b60fb5433906001600160a01b0316611d356065546001600160a01b031690565b6001600160a01b0316826001600160a01b03161480611dc65750806001600160a01b03166363d9df856040518163ffffffff1660e01b8152600401602060405180830381865afa158015611d8d573d6000803e3d6000fd5b505050506040513d601f19601f82011682018060405250810190611db19190613318565b6001600160a01b0316826001600160a01b0316145b611de25760405162461bcd60e51b81526004016108ff90613386565b611df38484600080610104546127ae565b5050505050565b6001600160a01b03811660009081526101066020908152604080832080548251818502810185019093528083528493830182828015611e5857602002820191906000526020600020905b815481526020019060010190808311611e44575b505050505090506000815190506000805b828160ff161015611ef9576101076000858360ff1681518110611e8e57611e8e613335565b60209081029190910181015182528101919091526040016000205460ff161515600103611ee757611eda848260ff1681518110611ecd57611ecd613335565b60200260200101516124a8565b611ee490836132f2565b91505b80611ef181613499565b915050611e69565b50949350505050565b611f6a60405180610160016040528060001515815260200160006001600160a01b031681526020016000815260200160008152602001600081526020016000815260200160008152602001600081526020016000815260200160008152602001600081525090565b5060009081526101076020908152604091829020825161016081018452815460ff8116151582526001600160a01b036101009182900416938201939093526001820154938101939093526002810154606084015260038101546080840152600481015460a0840152600581015460c0840152600681015460e084015260078101549183019190915260088101546101208301526009015461014082015290565b600061109b826124a8565b61201d612754565b61010355565b6040805180820182526060808252600060208084018290526001600160a01b03861682526101068152908490208451815492830281018401865294850182815293949390928492849184018282801561209b57602002820191906000526020600020905b815481526020019060010190808311612087575b50505091835250506001919091015460ff16151560209091015292915050565b6060600060fc80548060200260200160405190810160405280929190818152602001828054801561211557602002820191906000526020600020905b81546001600160a01b031681526001909101906020018083116120f7575b5050505050905060008151905060008167ffffffffffffffff81111561213d5761213d613086565b604051908082528060200260200182016040528015612166578160200160208202803683370190505b5090506000805b83811015612205576121988386838151811061218b5761218b613335565b60200260200101516126ef565b15156001146121f3578481815181106121b3576121b3613335565b60200260200101518383815181106121cd576121cd613335565b6001600160a01b0390921660209283029190910190910152816121ef8161336d565b9250505b806121fd8161336d565b91505061216d565b5090949350505050565b6000612219612754565b5061010281905590565b60008181526101076020526040812060058101546004820154429291849161224b91906132f2565b90508083101561227d57828260050154836004015461226a91906132f2565b6122749190613305565b95945050505050565b506000949350505050565b6060600060fc8054806020026020016040519081016040528092919081815260200182805480156122e257602002820191906000526020600020905b81546001600160a01b031681526001909101906020018083116122c4575b5050505050905060008151905060008167ffffffffffffffff81111561230a5761230a613086565b604051908082528060200260200182016040528015612333578160200160208202803683370190505b5090506000805b83811015612205576123588386838151811061218b5761218b613335565b15156001146123da5761238385828151811061237657612376613335565b60200260200101516117a2565b156123da5784818151811061239a5761239a613335565b60200260200101518383815181106123b4576123b4613335565b6001600160a01b0390921660209283029190910190910152816123d68161336d565b9250505b806123e48161336d565b91505061233a565b6123f4612754565b6001600160a01b0381166124595760405162461bcd60e51b815260206004820152602660248201527f4f776e61626c653a206e6577206f776e657220697320746865207a65726f206160448201526564647265737360d01b60648201526084016108ff565b61135881612b0d565b60335460ff16156113f55760405162461bcd60e51b815260206004820152601060248201526f14185d5cd8589b194e881c185d5cd95960821b60448201526064016108ff565b600081815261010760205260408120600481015442919083906124cb9084613305565b905081600701546124e0828460050154612c21565b836005015484600201546124f491906133df565b61226a91906133c8565b600081815261010760205260408120600481015442919083906125219084613305565b905060008260050154836001015461253991906133df565b9050826008015461254e838560050154612c21565b61255890836133c8565b6125629190613305565b9695505050505050565b6040805160028082526060808301845292600092919060208301908036833701905050905085816000815181106125a5576125a5613335565b60200260200101906001600160a01b031690816001600160a01b03168152505083816001815181106125d9576125d9613335565b6001600160a01b03928316602091820292909201015260405163095ea7b360e01b81528482166004820152602481018790529087169063095ea7b3906044016020604051808303816000875af1158015612637573d6000803e3d6000fd5b505050506040513d601f19601f8201168201806040525081019061265b919061334b565b5060006001600160a01b0384166338ed1739876001853061267d4260646132f2565b6040518663ffffffff1660e01b815260040161269d9594939291906134b8565b6000604051808303816000875af11580156126bc573d6000803e3d6000fd5b505050506040513d6000823e601f3d908101601f191682016040526126e491908101906134f4565b979650505050505050565b6000805b835181101561274a57826001600160a01b031684828151811061271857612718613335565b60200260200101516001600160a01b03160361273857600191505061109b565b806127428161336d565b9150506126f3565b5060009392505050565b6065546001600160a01b031633146113f55760405162461bcd60e51b815260206004820181905260248201527f4f776e61626c653a2063616c6c6572206973206e6f7420746865206f776e657260448201526064016108ff565b60fc8054600180820183557f371f36870d18f32a11fea0f144b021c8b407bb50f8e0267c711123f454b963c090910180546001600160a01b0319166001600160a01b038916908117909155915460008381526101066020908152604080832084845261010783529083208154808701835582855292842090920184905581546001600160a81b031916610100909602959095178417815542600482018190556005820187905593810189905560028101889055600381018790556009810184905560fd80549295939493928a919087906128899084906132f2565b925050819055508760fe60008282546128a291906132f2565b9250508190555085898b6001600160a01b03167ff556991011e831bcfac4f406d547e5e32cdd98267efab83935230d5f8d02c446876040516128e691815260200190565b60405180910390a485888b6001600160a01b03167ff556991011e831bcfac4f406d547e5e32cdd98267efab83935230d5f8d02c4468760405161292b91815260200190565b60405180910390a45060019998505050505050505050565b611358612754565b7f4910fdfa16fed3260ed0e7147f7cc6da11a60208b5b9406d12a635614ffd91435460ff16156129835761297e83612c37565b505050565b826001600160a01b03166352d1902d6040518163ffffffff1660e01b8152600401602060405180830381865afa9250505080156129dd575060408051601f3d908101601f191682019092526129da9181019061359a565b60015b612a405760405162461bcd60e51b815260206004820152602e60248201527f45524331393637557067726164653a206e657720696d706c656d656e7461746960448201526d6f6e206973206e6f74205555505360901b60648201526084016108ff565b6000805160206136728339815191528114612aaf5760405162461bcd60e51b815260206004820152602960248201527f45524331393637557067726164653a20756e737570706f727465642070726f786044820152681a58589b195555525160ba1b60648201526084016108ff565b5061297e838383612cd3565b612ac3612cfe565b6033805460ff191690557f5db9ee0a495bf2e6ff9c91a7834c1ba4fdd244a5e8aa4e537bd38aeae4b073aa335b6040516001600160a01b03909116815260200160405180910390a1565b606580546001600160a01b038381166001600160a01b0319831681179093556040519116919082907f8be0079c531659141344cd1fd0a4f28419497f9722a3daafe3b4186f6b6457e090600090a35050565b600054610100900460ff16612b865760405162461bcd60e51b81526004016108ff906135b3565b6113f5612d47565b600054610100900460ff16612bb55760405162461bcd60e51b81526004016108ff906135b3565b6113f5612d7a565b600054610100900460ff166113f55760405162461bcd60e51b81526004016108ff906135b3565b612bec612462565b6033805460ff191660011790557f62e78cea01bee320cd4e420270b5ea74000d11b0c9f74754ebdbfc544b05a258612af03390565b6000818310612c30578161169f565b5090919050565b6001600160a01b0381163b612ca45760405162461bcd60e51b815260206004820152602d60248201527f455243313936373a206e657720696d706c656d656e746174696f6e206973206e60448201526c1bdd08184818dbdb9d1c9858dd609a1b60648201526084016108ff565b60008051602061367283398151915280546001600160a01b0319166001600160a01b0392909216919091179055565b612cdc83612daa565b600082511180612ce95750805b1561297e57612cf88383612dea565b50505050565b60335460ff166113f55760405162461bcd60e51b815260206004820152601460248201527314185d5cd8589b194e881b9bdd081c185d5cd95960621b60448201526064016108ff565b600054610100900460ff16612d6e5760405162461bcd60e51b81526004016108ff906135b3565b6033805460ff19169055565b600054610100900460ff16612da15760405162461bcd60e51b81526004016108ff906135b3565b6113f533612b0d565b612db381612c37565b6040516001600160a01b038216907fbc7cd75a20ee27fd9adebab32041f755214dbc6bffa90cc0225b39da2e5c2d3b90600090a250565b60606001600160a01b0383163b612e525760405162461bcd60e51b815260206004820152602660248201527f416464726573733a2064656c65676174652063616c6c20746f206e6f6e2d636f6044820152651b9d1c9858dd60d21b60648201526084016108ff565b600080846001600160a01b031684604051612e6d9190613622565b600060405180830381855af49150503d8060008114612ea8576040519150601f19603f3d011682016040523d82523d6000602084013e612ead565b606091505b509150915061227482826040518060600160405280602781526020016136926027913960608315612edf57508161169f565b61169f8383815115612ef45781518083602001fd5b8060405162461bcd60e51b81526004016108ff919061363e565b600060208284031215612f2057600080fd5b5035919050565b600081518084526020808501945080840160005b83811015612f605781516001600160a01b031687529582019590820190600101612f3b565b509495945050505050565b60208152600061169f6020830184612f27565b6001600160a01b038116811461135857600080fd5b60008060408385031215612fa657600080fd5b8235612fb181612f7e565b946020939093013593505050565b600060208284031215612fd157600080fd5b813561169f81612f7e565b600080600060608486031215612ff157600080fd5b8335612ffc81612f7e565b95602085013595506040909401359392505050565b6000806020838503121561302457600080fd5b823567ffffffffffffffff8082111561303c57600080fd5b818501915085601f83011261305057600080fd5b81358181111561305f57600080fd5b8660208260051b850101111561307457600080fd5b60209290920196919550909350505050565b634e487b7160e01b600052604160045260246000fd5b604051601f8201601f1916810167ffffffffffffffff811182821017156130c5576130c5613086565b604052919050565b600080604083850312156130e057600080fd5b82356130eb81612f7e565b915060208381013567ffffffffffffffff8082111561310957600080fd5b818601915086601f83011261311d57600080fd5b81358181111561312f5761312f613086565b613141601f8201601f1916850161309c565b9150808252878482850101111561315757600080fd5b80848401858401376000848284010152508093505050509250929050565b60008060006060848603121561318a57600080fd5b833561319581612f7e565b925060208401356131a581612f7e565b929592945050506040919091013590565b600081518084526020808501945080840160005b83811015612f60578151875295820195908201906001016131ca565b60208152600061169f60208301846131b6565b60006020828403121561320b57600080fd5b813560ff8116811461169f57600080fd5b8151151581526101608101602083015161324160208401826001600160a01b03169052565b5060408301516040830152606083015160608301526080830151608083015260a083015160a083015260c083015160c083015260e083015160e083015261010080840151818401525061012080840151818401525061014080840151818401525092915050565b6020815260008251604060208401526132c460608401826131b6565b90506020840151151560408401528091505092915050565b634e487b7160e01b600052601160045260246000fd5b8082018082111561109b5761109b6132dc565b8181038181111561109b5761109b6132dc565b60006020828403121561332a57600080fd5b815161169f81612f7e565b634e487b7160e01b600052603260045260246000fd5b60006020828403121561335d57600080fd5b8151801515811461169f57600080fd5b60006001820161337f5761337f6132dc565b5060010190565b60208082526022908201527f4f6e6c79206f776e65722063616e2063616c6c20746869732066756e6374696f604082015261371760f11b606082015260800190565b808202811582820484141761109b5761109b6132dc565b6000826133fc57634e487b7160e01b600052601260045260246000fd5b500490565b6020808252602c908201527f46756e6374696f6e206d7573742062652063616c6c6564207468726f7567682060408201526b19195b1959d85d1958d85b1b60a21b606082015260800190565b6020808252602c908201527f46756e6374696f6e206d7573742062652063616c6c6564207468726f7567682060408201526b6163746976652070726f787960a01b606082015260800190565b600060ff821660ff81036134af576134af6132dc565b60010192915050565b85815284602082015260a0604082015260006134d760a0830186612f27565b6001600160a01b0394909416606083015250608001529392505050565b6000602080838503121561350757600080fd5b825167ffffffffffffffff8082111561351f57600080fd5b818501915085601f83011261353357600080fd5b81518181111561354557613545613086565b8060051b915061355684830161309c565b818152918301840191848101908884111561357057600080fd5b938501935b8385101561358e57845182529385019390850190613575565b98975050505050505050565b6000602082840312156135ac57600080fd5b5051919050565b6020808252602b908201527f496e697469616c697a61626c653a20636f6e7472616374206973206e6f74206960408201526a6e697469616c697a696e6760a81b606082015260800190565b60005b83811015613619578181015183820152602001613601565b50506000910152565b600082516136348184602087016135fe565b9190910192915050565b602081526000825180602084015261365d8160408501602087016135fe565b601f01601f1916919091016040019291505056fe360894a13ba1a3210667c828492db98dca3e2076cc3735a920a3ca505d382bbc416464726573733a206c6f772d6c6576656c2064656c65676174652063616c6c206661696c6564a2646970667358221220dda8b7963a5917f65602a7f1d69a3c9e3c20ddb2d25374c071fe17463f5dd0f064736f6c63430008110033",
  "linkReferences": {},
  "deployedLinkReferences": {}
}