{
  "_format": "hh-sol-artifact-1",
  "contractName": "StakingUpgradeable",
  "sourceName": "contracts/StakingUpgradeable.sol",
  "abi": [
    {
      "anonymous": false,
      "inputs": [
        {
          "indexed": false,
          "internalType": "address",
          "name": "previousAdmin",
          "type": "address"
        },
        {
          "indexed": false,
          "internalType": "address",
          "name": "newAdmin",
          "type": "address"
        }
      ],
      "name": "AdminChanged",
      "type": "event"
    },
    {
      "anonymous": false,
      "inputs": [
        {
          "indexed": true,
          "internalType": "address",
          "name": "beacon",
          "type": "address"
        }
      ],
      "name": "BeaconUpgraded",
      "type": "event"
    },
    {
      "anonymous": false,
      "inputs": [
        {
          "indexed": false,
          "internalType": "uint8",
          "name": "version",
          "type": "uint8"
        }
      ],
      "name": "Initialized",
      "type": "event"
    },
    {
      "anonymous": false,
      "inputs": [
        {
          "indexed": true,
          "internalType": "address",
          "name": "previousOwner",
          "type": "address"
        },
        {
          "indexed": true,
          "internalType": "address",
          "name": "newOwner",
          "type": "address"
        }
      ],
      "name": "OwnershipTransferred",
      "type": "event"
    },
    {
      "anonymous": false,
      "inputs": [
        {
          "indexed": false,
          "internalType": "address",
          "name": "account",
          "type": "address"
        }
      ],
      "name": "Paused",
      "type": "event"
    },
    {
      "anonymous": false,
      "inputs": [
        {
          "indexed": true,
          "internalType": "address",
          "name": "userAddress",
          "type": "address"
        },
        {
          "indexed": false,
          "internalType": "uint256",
          "name": "amount",
          "type": "uint256"
        }
      ],
      "name": "PrincipalClaimed",
      "type": "event"
    },
    {
      "anonymous": false,
      "inputs": [
        {
          "indexed": true,
          "internalType": "address",
          "name": "userAddress",
          "type": "address"
        },
        {
          "indexed": true,
          "internalType": "uint256",
          "name": "valueStaked",
          "type": "uint256"
        },
        {
          "indexed": true,
          "internalType": "uint256",
          "name": "duration",
          "type": "uint256"
        },
        {
          "indexed": false,
          "internalType": "uint256",
          "name": "stakingID",
          "type": "uint256"
        }
      ],
      "name": "Stake",
      "type": "event"
    },
    {
      "anonymous": false,
      "inputs": [
        {
          "indexed": true,
          "internalType": "address",
          "name": "userAddress",
          "type": "address"
        },
        {
          "indexed": true,
          "internalType": "uint256",
          "name": "reward",
          "type": "uint256"
        },
        {
          "indexed": true,
          "internalType": "uint256",
          "name": "stakingID",
          "type": "uint256"
        },
        {
          "indexed": false,
          "internalType": "address",
          "name": "tokenAddress",
          "type": "address"
        }
      ],
      "name": "StakingRewardClaimed",
      "type": "event"
    },
    {
      "anonymous": false,
      "inputs": [
        {
          "indexed": false,
          "internalType": "address",
          "name": "account",
          "type": "address"
        }
      ],
      "name": "Unpaused",
      "type": "event"
    },
    {
      "anonymous": false,
      "inputs": [
        {
          "indexed": true,
          "internalType": "address",
          "name": "userAddress",
          "type": "address"
        },
        {
          "indexed": true,
          "internalType": "uint256",
          "name": "valueStaked",
          "type": "uint256"
        },
        {
          "indexed": true,
          "internalType": "uint256",
          "name": "stakingID",
          "type": "uint256"
        }
      ],
      "name": "Unstake",
      "type": "event"
    },
    {
      "anonymous": false,
      "inputs": [
        {
          "indexed": true,
          "internalType": "address",
          "name": "implementation",
          "type": "address"
        }
      ],
      "name": "Upgraded",
      "type": "event"
    },
    {
      "inputs": [],
      "name": "activeStakersList",
      "outputs": [
        {
          "internalType": "address[]",
          "name": "",
          "type": "address[]"
        }
      ],
      "stateMutability": "view",
      "type": "function"
    },
    {
      "inputs": [],
      "name": "allStakersList",
      "outputs": [
        {
          "internalType": "address[]",
          "name": "",
          "type": "address[]"
        }
      ],
      "stateMutability": "view",
      "type": "function"
    },
    {
      "inputs": [
        {
          "internalType": "uint256",
          "name": "_stakingID",
          "type": "uint256"
        }
      ],
      "name": "claimStakingReward",
      "outputs": [],
      "stateMutability": "nonpayable",
      "type": "function"
    },
    {
      "inputs": [
        {
          "internalType": "address[]",
          "name": "_userAddress",
          "type": "address[]"
        }
      ],
      "name": "disableAccounts",
      "outputs": [],
      "stateMutability": "nonpayable",
      "type": "function"
    },
    {
      "inputs": [
        {
          "internalType": "address[]",
          "name": "_userAddress",
          "type": "address[]"
        }
      ],
      "name": "enableAccounts",
      "outputs": [],
      "stateMutability": "nonpayable",
      "type": "function"
    },
    {
      "inputs": [],
      "name": "getActiveStakingIDs",
      "outputs": [
        {
          "internalType": "uint256[]",
          "name": "",
          "type": "uint256[]"
        }
      ],
      "stateMutability": "view",
      "type": "function"
    },
    {
      "inputs": [],
      "name": "getDisabledAccountsList",
      "outputs": [
        {
          "internalType": "address[]",
          "name": "",
          "type": "address[]"
        }
      ],
      "stateMutability": "view",
      "type": "function"
    },
    {
      "inputs": [],
      "name": "getStakingCappings",
      "outputs": [
        {
          "internalType": "uint256",
          "name": "minStakingValue",
          "type": "uint256"
        },
        {
          "internalType": "uint256",
          "name": "stakingRewardRate",
          "type": "uint256"
        },
        {
          "internalType": "uint256",
          "name": "stakingDuration",
          "type": "uint256"
        },
        {
          "internalType": "uint256",
          "name": "stakingRewardClaimTimeLimit",
          "type": "uint256"
        }
      ],
      "stateMutability": "view",
      "type": "function"
    },
    {
      "inputs": [
        {
          "internalType": "uint256",
          "name": "_stakingID",
          "type": "uint256"
        }
      ],
      "name": "getStakingReward",
      "outputs": [
        {
          "internalType": "uint256",
          "name": "",
          "type": "uint256"
        }
      ],
      "stateMutability": "view",
      "type": "function"
    },
    {
      "inputs": [
        {
          "internalType": "uint256",
          "name": "_stakingID",
          "type": "uint256"
        }
      ],
      "name": "getStakingTimeRemaining",
      "outputs": [
        {
          "internalType": "uint256",
          "name": "",
          "type": "uint256"
        }
      ],
      "stateMutability": "view",
      "type": "function"
    },
    {
      "inputs": [],
      "name": "getTotalStakingRewardDistributed",
      "outputs": [
        {
          "internalType": "uint256",
          "name": "_tokenRewards",
          "type": "uint256"
        },
        {
          "internalType": "uint256",
          "name": "_ansudRewards",
          "type": "uint256"
        }
      ],
      "stateMutability": "view",
      "type": "function"
    },
    {
      "inputs": [],
      "name": "getTotalValueStaked",
      "outputs": [
        {
          "internalType": "uint256",
          "name": "token",
          "type": "uint256"
        },
        {
          "internalType": "uint256",
          "name": "anusd",
          "type": "uint256"
        }
      ],
      "stateMutability": "view",
      "type": "function"
    },
    {
      "inputs": [
        {
          "internalType": "address",
          "name": "_userAddress",
          "type": "address"
        }
      ],
      "name": "getUserAllStakingsRewards",
      "outputs": [
        {
          "internalType": "uint256",
          "name": "",
          "type": "uint256"
        }
      ],
      "stateMutability": "view",
      "type": "function"
    },
    {
      "inputs": [
        {
          "internalType": "address",
          "name": "_userAddress",
          "type": "address"
        }
      ],
      "name": "getUserStakingIDs",
      "outputs": [
        {
          "internalType": "uint256[]",
          "name": "",
          "type": "uint256[]"
        }
      ],
      "stateMutability": "view",
      "type": "function"
    },
    {
      "inputs": [
        {
          "internalType": "address",
          "name": "_userAddress",
          "type": "address"
        }
      ],
      "name": "getUserTotalPrincipalClaimed",
      "outputs": [
        {
          "internalType": "uint256",
          "name": "",
          "type": "uint256"
        }
      ],
      "stateMutability": "view",
      "type": "function"
    },
    {
      "inputs": [
        {
          "internalType": "address",
          "name": "_userAddress",
          "type": "address"
        }
      ],
      "name": "getUserTotalRewardClaimedANUSD",
      "outputs": [
        {
          "internalType": "uint256",
          "name": "totalRewardClaim",
          "type": "uint256"
        }
      ],
      "stateMutability": "view",
      "type": "function"
    },
    {
      "inputs": [
        {
          "internalType": "address",
          "name": "_userAddress",
          "type": "address"
        }
      ],
      "name": "getUserTotalRewardClaimedToken",
      "outputs": [
        {
          "internalType": "uint256",
          "name": "totalRewardClaim",
          "type": "uint256"
        }
      ],
      "stateMutability": "view",
      "type": "function"
    },
    {
      "inputs": [
        {
          "internalType": "address",
          "name": "_userAddress",
          "type": "address"
        }
      ],
      "name": "getUserTotalStakedValue",
      "outputs": [
        {
          "internalType": "uint256",
          "name": "userTotalValueStaked",
          "type": "uint256"
        }
      ],
      "stateMutability": "view",
      "type": "function"
    },
    {
      "inputs": [],
      "name": "initialize",
      "outputs": [],
      "stateMutability": "nonpayable",
      "type": "function"
    },
    {
      "inputs": [
        {
          "internalType": "address",
          "name": "_userAddress",
          "type": "address"
        }
      ],
      "name": "isAccountDisabled",
      "outputs": [
        {
          "internalType": "bool",
          "name": "",
          "type": "bool"
        }
      ],
      "stateMutability": "view",
      "type": "function"
    },
    {
      "inputs": [
        {
          "internalType": "address",
          "name": "_userAddress",
          "type": "address"
        }
      ],
      "name": "isStaked",
      "outputs": [
        {
          "internalType": "bool",
          "name": "",
          "type": "bool"
        }
      ],
      "stateMutability": "view",
      "type": "function"
    },
    {
      "inputs": [],
      "name": "owner",
      "outputs": [
        {
          "internalType": "address",
          "name": "",
          "type": "address"
        }
      ],
      "stateMutability": "view",
      "type": "function"
    },
    {
      "inputs": [],
      "name": "pause",
      "outputs": [],
      "stateMutability": "nonpayable",
      "type": "function"
    },
    {
      "inputs": [],
      "name": "paused",
      "outputs": [
        {
          "internalType": "bool",
          "name": "",
          "type": "bool"
        }
      ],
      "stateMutability": "view",
      "type": "function"
    },
    {
      "inputs": [],
      "name": "proxiableUUID",
      "outputs": [
        {
          "internalType": "bytes32",
          "name": "",
          "type": "bytes32"
        }
      ],
      "stateMutability": "view",
      "type": "function"
    },
    {
      "inputs": [],
      "name": "renounceOwnership",
      "outputs": [],
      "stateMutability": "nonpayable",
      "type": "function"
    },
    {
      "inputs": [
        {
          "internalType": "uint256",
          "name": "_value",
          "type": "uint256"
        }
      ],
      "name": "setMinStakingValue",
      "outputs": [
        {
          "internalType": "uint256",
          "name": "",
          "type": "uint256"
        }
      ],
      "stateMutability": "nonpayable",
      "type": "function"
    },
    {
      "inputs": [
        {
          "internalType": "uint256",
          "name": "_valueInDays",
          "type": "uint256"
        }
      ],
      "name": "setStakingDuration",
      "outputs": [],
      "stateMutability": "nonpayable",
      "type": "function"
    },
    {
      "inputs": [
        {
          "internalType": "uint256",
          "name": "_valueInDays",
          "type": "uint256"
        }
      ],
      "name": "setStakingRewardClaimTimeLimity",
      "outputs": [],
      "stateMutability": "nonpayable",
      "type": "function"
    },
    {
      "inputs": [
        {
          "internalType": "uint256",
          "name": "_valueInPer",
          "type": "uint256"
        }
      ],
      "name": "setStakingRewardRate",
      "outputs": [],
      "stateMutability": "nonpayable",
      "type": "function"
    },
    {
      "inputs": [
        {
          "internalType": "address",
          "name": "_userAddress",
          "type": "address"
        },
        {
          "internalType": "uint256",
          "name": "_valueInToken",
          "type": "uint256"
        },
        {
          "internalType": "uint256",
          "name": "_valueInANUSD",
          "type": "uint256"
        }
      ],
      "name": "stakeByAdmin",
      "outputs": [],
      "stateMutability": "nonpayable",
      "type": "function"
    },
    {
      "inputs": [
        {
          "internalType": "uint256",
          "name": "_stakingID",
          "type": "uint256"
        }
      ],
      "name": "stakeInfoMap",
      "outputs": [
        {
          "components": [
            {
              "internalType": "bool",
              "name": "isStaked",
              "type": "bool"
            },
            {
              "internalType": "address",
              "name": "owner",
              "type": "address"
            },
            {
              "internalType": "uint256",
              "name": "valueInToken",
              "type": "uint256"
            },
            {
              "internalType": "uint256",
              "name": "valueInANUSD",
              "type": "uint256"
            },
            {
              "internalType": "uint256",
              "name": "rewardRate",
              "type": "uint256"
            },
            {
              "internalType": "uint256",
              "name": "startTime",
              "type": "uint256"
            },
            {
              "internalType": "uint256",
              "name": "duration",
              "type": "uint256"
            },
            {
              "internalType": "uint256",
              "name": "rewardClaimedToken",
              "type": "uint256"
            },
            {
              "internalType": "uint256",
              "name": "rewardClaimedANUSD",
              "type": "uint256"
            },
            {
              "internalType": "uint256",
              "name": "principalClaimed",
              "type": "uint256"
            },
            {
              "internalType": "uint256",
              "name": "lastTimeRewardClaimed",
              "type": "uint256"
            }
          ],
          "internalType": "struct StakingUpgradeable.StakeInfo",
          "name": "",
          "type": "tuple"
        }
      ],
      "stateMutability": "view",
      "type": "function"
    },
    {
      "inputs": [
        {
          "internalType": "address",
          "name": "newOwner",
          "type": "address"
        }
      ],
      "name": "transferOwnership",
      "outputs": [],
      "stateMutability": "nonpayable",
      "type": "function"
    },
    {
      "inputs": [],
      "name": "unpause",
      "outputs": [],
      "stateMutability": "nonpayable",
      "type": "function"
    },
    {
      "inputs": [
        {
          "internalType": "address",
          "name": "newImplementation",
          "type": "address"
        }
      ],
      "name": "upgradeTo",
      "outputs": [],
      "stateMutability": "nonpayable",
      "type": "function"
    },
    {
      "inputs": [
        {
          "internalType": "address",
          "name": "newImplementation",
          "type": "address"
        },
        {
          "internalType": "bytes",
          "name": "data",
          "type": "bytes"
        }
      ],
      "name": "upgradeToAndCall",
      "outputs": [],
      "stateMutability": "payable",
      "type": "function"
    },
    {
      "inputs": [
        {
          "internalType": "address",
          "name": "_userAddress",
          "type": "address"
        }
      ],
      "name": "userAccountMap",
      "outputs": [
        {
          "components": [
            {
              "internalType": "uint256[]",
              "name": "stakingID",
              "type": "uint256[]"
            },
            {
              "internalType": "bool",
              "name": "isDisabled",
              "type": "bool"
            }
          ],
          "internalType": "struct StakingUpgradeable.Account",
          "name": "",
          "type": "tuple"
        }
      ],
      "stateMutability": "view",
      "type": "function"
    },
    {
      "inputs": [
        {
          "internalType": "address",
          "name": "_receiver",
          "type": "address"
        },
        {
          "internalType": "uint256",
          "name": "_value",
          "type": "uint256"
        }
      ],
      "name": "withdrawNativeFunds",
      "outputs": [
        {
          "internalType": "bool",
          "name": "",
          "type": "bool"
        }
      ],
      "stateMutability": "nonpayable",
      "type": "function"
    },
    {
      "inputs": [
        {
          "internalType": "address",
          "name": "_tokenAddress",
          "type": "address"
        },
        {
          "internalType": "address",
          "name": "_receiver",
          "type": "address"
        },
        {
          "internalType": "uint256",
          "name": "_value",
          "type": "uint256"
        }
      ],
      "name": "withdrawTokens",
      "outputs": [
        {
          "internalType": "bool",
          "name": "",
          "type": "bool"
        }
      ],
      "stateMutability": "nonpayable",
      "type": "function"
    },
    {
      "stateMutability": "payable",
      "type": "receive"
    }
  ],
  "bytecode": "0x60a06040523060805234801561001457600080fd5b506080516133c261004c60003960008181610f4201528181610f8201528181611189015281816111c9015261125c01526133c26000f3fe6080604052600436106102345760003560e01c80636f51b20b1161012e578063abfe35ad116100ab578063d8ba90b71161006f578063d8ba90b7146106a0578063dba4358c146106c0578063deede654146106d5578063e3a51f58146106ed578063f2fde38b1461072a57600080fd5b8063abfe35ad146105fe578063b7d685191461061e578063ba4f678e1461063e578063c06a53881461066b578063d596fe7f1461068057600080fd5b80638456cb59116100f25780638456cb59146105375780638da5cb5b1461054c5780639c3fe28a14610574578063a40b589114610594578063a7566b75146105d157600080fd5b80636f51b20b146104a05780636f72693b146104cd578063715018a6146104e25780637ce574bf146104f75780638129fc1c1461052257600080fd5b80634f1ef286116101bc5780635e35359e116101805780635e35359e146104005780636177fd1814610420578063628b372b1461044057806366e5e570146104605780636a8ca6911461048057600080fd5b80634f1ef2861461038057806352d1902d1461039357806353bdadea146103a85780635c975abb146103c85780635cbfd021146103e057600080fd5b8063310c9b2011610203578063310c9b20146102eb5780633659cfe61461030b5780633b09098f1461032b5780633f4ba83a1461034b578063469bbc121461036057600080fd5b8063239cd4a414610240578063260cb4e91461026257806326792aca1461028d57806328796bbd146102bd57600080fd5b3661023b57005b600080fd5b34801561024c57600080fd5b5061026061025b366004612c47565b61074a565b005b34801561026e57600080fd5b50610277610b86565b6040516102849190612ca4565b60405180910390f35b34801561029957600080fd5b506102ad6102a8366004612ccc565b610d02565b6040519015158152602001610284565b3480156102c957600080fd5b506102dd6102d8366004612cf8565b610d4e565b604051908152602001610284565b3480156102f757600080fd5b50610260610306366004612d15565b610e15565b34801561031757600080fd5b50610260610326366004612cf8565b610f38565b34801561033757600080fd5b50610260610346366004612d4a565b611017565b34801561035757600080fd5b506102606110a1565b34801561036c57600080fd5b506102dd61037b366004612cf8565b6110b3565b61026061038e366004612e06565b61117f565b34801561039f57600080fd5b506102dd61124f565b3480156103b457600080fd5b506102606103c3366004612d4a565b611302565b3480156103d457600080fd5b5060335460ff166102ad565b3480156103ec57600080fd5b506102606103fb366004612c47565b611388565b34801561040c57600080fd5b506102ad61041b366004612eae565b6113a4565b34801561042c57600080fd5b506102ad61043b366004612cf8565b61142e565b34801561044c57600080fd5b506102dd61045b366004612cf8565b6114ec565b34801561046c57600080fd5b506102dd61047b366004612cf8565b6115aa565b34801561048c57600080fd5b5061026061049b366004612c47565b61165a565b3480156104ac57600080fd5b506104c06104bb366004612cf8565b611676565b6040516102849190612f1f565b3480156104d957600080fd5b506104c06116e3565b3480156104ee57600080fd5b50610260611798565b34801561050357600080fd5b5061010054610101545b60408051928352602083019190915201610284565b34801561052e57600080fd5b506102606117aa565b34801561054357600080fd5b50610260611914565b34801561055857600080fd5b506065546040516001600160a01b039091168152602001610284565b34801561058057600080fd5b506102dd61058f366004612cf8565b611924565b3480156105a057600080fd5b506102ad6105af366004612cf8565b6001600160a01b03166000908152610106602052604090206001015460ff1690565b3480156105dd57600080fd5b506105f16105ec366004612c47565b611a0d565b6040516102849190612f32565b34801561060a57600080fd5b506102dd610619366004612c47565b611b15565b34801561062a57600080fd5b50610260610639366004612c47565b611b20565b34801561064a57600080fd5b5061065e610659366004612cf8565b611b2e565b6040516102849190612fbe565b34801561067757600080fd5b50610277611bc6565b34801561068c57600080fd5b506102dd61069b366004612c47565b611d1a565b3480156106ac57600080fd5b506102dd6106bb366004612c47565b611d2e565b3480156106cc57600080fd5b50610277611d93565b3480156106e157600080fd5b5060fd5460fe5461050d565b3480156106f957600080fd5b5061010254610103546101045461010554604080519485526020850193909352918301526060820152608001610284565b34801561073657600080fd5b50610260610745366004612cf8565b611ef7565b600061075582611f6d565b9050600061076283611ff6565b9050600082116107b95760405162461bcd60e51b815260206004820152601c60248201527f596f752068617665206e6f207374616b696e67206f7220656e6465640000000060448201526064015b60405180910390fd5b60fb5460008481526101076020908152604080832033808552610106909352922082546001600160a01b0394851694929392429161010090041684146108515760405162461bcd60e51b815260206004820152602760248201527f536f727279207374616b696e6720696420646f656e27742062656c6f6e6773206044820152663a37903cb7ba9760c91b60648201526084016107b0565b600182015460ff16156108be5760405162461bcd60e51b815260206004820152602f60248201527f596f7572206163636f756e742069732064697361626c65642e20506c6561736560448201526e1031b7b73a30b1ba1030b236b4b71760891b60648201526084016107b0565b426101055484600901546108d29190613008565b116109315760405162461bcd60e51b815260206004820152602960248201527f596f752063616e6e6f7420636c61696d20726577617264206265666f7265207460448201526834b6b2b634b6b4ba1760b91b60648201526084016107b0565b600061093e848984612046565b9050856001600160a01b03166355a373d66040518163ffffffff1660e01b8152600401602060405180830381865afa15801561097e573d6000803e3d6000fd5b505050506040513d601f19601f820116820180604052508101906109a2919061301b565b6001600160a01b031663a9059cbb8689846001815181106109c5576109c5613038565b60200260200101516109d79190613008565b6040516001600160e01b031960e085901b1681526001600160a01b03909216600483015260248201526044016020604051808303816000875af1158015610a22573d6000803e3d6000fd5b505050506040513d601f19601f82011682018060405250810190610a46919061304e565b508881600181518110610a5b57610a5b613038565b6020026020010151866001600160a01b03167ffec605188cf64597b9aa9cf424a9bba4a84ffb09f9f66c932d6efa1b96fcc7e4896001600160a01b03166355a373d66040518163ffffffff1660e01b8152600401602060405180830381865afa158015610acc573d6000803e3d6000fd5b505050506040513d601f19601f82011682018060405250810190610af0919061301b565b6040516001600160a01b03909116815260200160405180910390a486846008016000828254610b1f9190613008565b925050819055508660ff6000828254610b389190613008565b90915550506040518781526001600160a01b038616907f2e6100b89b43378c0aeb062f2df0cfaa63e4437abab6844b441f8e47cb31bec39060200160405180910390a2505050505050505050565b6000808052610106602090815260fc80546040805182850281018501909152818152606094937f36b574eb542e18a2932b42c3f7b99e0cccde75c2d7e80ac19800931af8e17fa29385939091830182828015610c0b57602002820191906000526020600020905b81546001600160a01b03168152600190910190602001808311610bed575b5050505050905060008151905060008167ffffffffffffffff811115610c3357610c33612dbf565b604051908082528060200260200182016040528015610c5c578160200160208202803683370190505b5090506000805b83811015610cf657848181518110610c7d57610c7d613038565b60200260200101519650610c918388612266565b1515600114610ce45760018087015460ff1615159003610ce45786838381518110610cbe57610cbe613038565b6001600160a01b039092166020928302919091019091015281610ce081613070565b9250505b80610cee81613070565b915050610c63565b50909695505050505050565b6000610d0c6122cb565b6040516001600160a01b0384169083156108fc029084906000818181858888f19350505050158015610d42573d6000803e3d6000fd5b50600190505b92915050565b6001600160a01b038116600090815261010660209081526040808320805482518185028101850190935280835290928492918491830182828015610db157602002820191906000526020600020905b815481526020019060010190808311610d9d575b505083519394506000925050505b81811015610e0c57610de9838281518110610ddc57610ddc613038565b6020026020010151611a0d565b6101000151610df89086613008565b945080610e0481613070565b915050610dbf565b50505050919050565b60fb5433906001600160a01b0316610e356065546001600160a01b031690565b6001600160a01b0316826001600160a01b03161480610ec65750806001600160a01b03166363d9df856040518163ffffffff1660e01b8152600401602060405180830381865afa158015610e8d573d6000803e3d6000fd5b505050506040513d601f19601f82011682018060405250810190610eb1919061301b565b6001600160a01b0316826001600160a01b0316145b610f1d5760405162461bcd60e51b815260206004820152602260248201527f4f6e6c79206f776e65722063616e2063616c6c20746869732066756e6374696f604482015261371760f11b60648201526084016107b0565b610f308585856101035461010454612325565b505050505050565b6001600160a01b037f0000000000000000000000000000000000000000000000000000000000000000163003610f805760405162461bcd60e51b81526004016107b090613089565b7f00000000000000000000000000000000000000000000000000000000000000006001600160a01b0316610fc9600080516020613346833981519152546001600160a01b031690565b6001600160a01b031614610fef5760405162461bcd60e51b81526004016107b0906130d5565b610ff8816124b3565b60408051600080825260208201909252611014918391906124bb565b50565b61101f6122cb565b60008080526101066020527f36b574eb542e18a2932b42c3f7b99e0cccde75c2d7e80ac19800931af8e17fa282825b81811015610f305785858281811061106857611068613038565b905060200201602081019061107d9190612cf8565b6001848101805460ff1916909117905593508061109981613070565b91505061104e565b6110a96122cb565b6110b161262b565b565b6001600160a01b03811660009081526101066020908152604080832080548251818502810185019093528083529092849291849183018282801561111657602002820191906000526020600020905b815481526020019060010190808311611102575b505083519394506000925050505b81811015610e0c57611141838281518110610ddc57610ddc613038565b511561116d5761115c838281518110610ddc57610ddc613038565b6040015161116a9086613008565b94505b8061117781613070565b915050611124565b6001600160a01b037f00000000000000000000000000000000000000000000000000000000000000001630036111c75760405162461bcd60e51b81526004016107b090613089565b7f00000000000000000000000000000000000000000000000000000000000000006001600160a01b0316611210600080516020613346833981519152546001600160a01b031690565b6001600160a01b0316146112365760405162461bcd60e51b81526004016107b0906130d5565b61123f826124b3565b61124b828260016124bb565b5050565b6000306001600160a01b037f000000000000000000000000000000000000000000000000000000000000000016146112ef5760405162461bcd60e51b815260206004820152603860248201527f555550535570677261646561626c653a206d757374206e6f742062652063616c60448201527f6c6564207468726f7567682064656c656761746563616c6c000000000000000060648201526084016107b0565b5060008051602061334683398151915290565b61130a6122cb565b60008080526101066020527f36b574eb542e18a2932b42c3f7b99e0cccde75c2d7e80ac19800931af8e17fa282825b81811015610f305785858281811061135357611353613038565b90506020020160208101906113689190612cf8565b60018401805460ff1916905593508061138081613070565b915050611339565b6113906122cb565b61139d8162015180613121565b6101055550565b60006113ae6122cb565b60405163a9059cbb60e01b81526001600160a01b0384811660048301526024820184905285169063a9059cbb906044016020604051808303816000875af11580156113fd573d6000803e3d6000fd5b505050506040513d601f19601f82011682018060405250810190611421919061304e565b50600190505b9392505050565b6001600160a01b03811660009081526101066020908152604080832080548251818502810185019093528083529092849291849183018282801561149157602002820191906000526020600020905b81548152602001906001019080831161147d575b505083519394506000925050505b818110156114e0576114bc838281518110610ddc57610ddc613038565b51156114ce5750600195945050505050565b806114d881613070565b91505061149f565b50600095945050505050565b6001600160a01b03811660009081526101066020908152604080832080548251818502810185019093528083529092849291849183018282801561154f57602002820191906000526020600020905b81548152602001906001019080831161153b575b505050505090506000815190506000805b828110156115a05761157d848281518110610ddc57610ddc613038565b610120015161158c9083613008565b91508061159881613070565b915050611560565b5095945050505050565b6001600160a01b03811660009081526101066020908152604080832080548251818502810185019093528083529092849291849183018282801561160d57602002820191906000526020600020905b8154815260200190600101908083116115f9575b505083519394506000925050505b81811015610e0c57611638838281518110610ddc57610ddc613038565b60e001516116469086613008565b94508061165281613070565b91505061161b565b6116626122cb565b61166f8162015180613121565b6101045550565b6001600160a01b038116600090815261010660209081526040918290208054835181840281018401909452808452606093928301828280156116d757602002820191906000526020600020905b8154815260200190600101908083116116c3575b50505050509050919050565b60fc5460609060008167ffffffffffffffff81111561170457611704612dbf565b60405190808252806020026020018201604052801561172d578160200160208202803683370190505b50905060005b8281101561179157600081815261010760205260409020805460ff16151560010361177e57811561177e578183838151811061177157611771613038565b6020026020010181815250505b508061178981613070565b915050611733565b5092915050565b6117a06122cb565b6110b1600061267d565b600054610100900460ff16158080156117ca5750600054600160ff909116105b806117e45750303b1580156117e4575060005460ff166001145b6118475760405162461bcd60e51b815260206004820152602e60248201527f496e697469616c697a61626c653a20636f6e747261637420697320616c72656160448201526d191e481a5b9a5d1a585b1a5e995960921b60648201526084016107b0565b6000805460ff19166001179055801561186a576000805461ff0019166101001790555b60fb80546001600160a01b0319167364f0f2fa59a92df28be30876958023a69689d88c179055678ac7230489e80000610102556096610103556303e9f4006101045562278d00610105556118bc6126cf565b6118c46126fe565b6118cc61272d565b8015611014576000805461ff0019169055604051600181527f7f26b83ff96e1f2b6a682f133852f6798a09c465da95921460cefb38474024989060200160405180910390a150565b61191c6122cb565b6110b1612754565b6001600160a01b0381166000908152610106602090815260408083208054825181850281018501909352808352849383018282801561198257602002820191906000526020600020905b81548152602001906001019080831161196e575b505050505090506000815190506000805b828160ff161015611a04576119b6848260ff1681518110610ddc57610ddc613038565b5115156001036119f2576119e5848260ff16815181106119d8576119d8613038565b6020026020010151611f6d565b6119ef9083613008565b91505b806119fc81613138565b915050611993565b50949350505050565b611a7560405180610160016040528060001515815260200160006001600160a01b031681526020016000815260200160008152602001600081526020016000815260200160008152602001600081526020016000815260200160008152602001600081525090565b5060009081526101076020908152604091829020825161016081018452815460ff8116151582526001600160a01b036101009182900416938201939093526001820154938101939093526002810154606084015260038101546080840152600481015460a0840152600581015460c0840152600681015460e084015260078101549183019190915260088101546101208301526009015461014082015290565b6000610d4882611f6d565b611b286122cb565b61010355565b6040805180820182526060808252600060208084018290526001600160a01b038616825261010681529084902084518154928302810184018652948501828152939493909284928491840182828015611ba657602002820191906000526020600020905b815481526020019060010190808311611b92575b50505091835250506001919091015460ff16151560209091015292915050565b6060600060fc805480602002602001604051908101604052809291908181526020018280548015611c2057602002820191906000526020600020905b81546001600160a01b03168152600190910190602001808311611c02575b5050505050905060008151905060008167ffffffffffffffff811115611c4857611c48612dbf565b604051908082528060200260200182016040528015611c71578160200160208202803683370190505b5090506000805b83811015611d1057611ca383868381518110611c9657611c96613038565b6020026020010151612266565b1515600114611cfe57848181518110611cbe57611cbe613038565b6020026020010151838381518110611cd857611cd8613038565b6001600160a01b039092166020928302919091019091015281611cfa81613070565b9250505b80611d0881613070565b915050611c78565b5090949350505050565b6000611d246122cb565b5061010281905590565b600081815261010760205260408120600581015460048201544292918491611d569190613008565b905080831015611d88578282600501548360040154611d759190613008565b611d7f9190613157565b95945050505050565b506000949350505050565b6060600060fc805480602002602001604051908101604052809291908181526020018280548015611ded57602002820191906000526020600020905b81546001600160a01b03168152600190910190602001808311611dcf575b5050505050905060008151905060008167ffffffffffffffff811115611e1557611e15612dbf565b604051908082528060200260200182016040528015611e3e578160200160208202803683370190505b5090506000805b83811015611d1057611e6383868381518110611c9657611c96613038565b1515600114611ee557611e8e858281518110611e8157611e81613038565b602002602001015161142e565b15611ee557848181518110611ea557611ea5613038565b6020026020010151838381518110611ebf57611ebf613038565b6001600160a01b039092166020928302919091019091015281611ee181613070565b9250505b80611eef81613070565b915050611e45565b611eff6122cb565b6001600160a01b038116611f645760405162461bcd60e51b815260206004820152602660248201527f4f776e61626c653a206e6577206f776e657220697320746865207a65726f206160448201526564647265737360d01b60648201526084016107b0565b6110148161267d565b60008181526101076020526040812060048101544291908390611f909084613157565b905060008260050154606484600301548560020154611faf9190613121565b611fb9919061316a565b611fc3919061316a565b90508260070154611fd8838560050154612791565b611fe29083613121565b611fec9190613157565b9695505050505050565b600081815261010760205260408120600481015442919083906120199084613157565b9050600082600501548360010154612031919061316a565b90508260080154611fd8838560050154612791565b60fb546040805163b70cc4c160e01b815290516060926001600160a01b03169161218491839163b70cc4c19160048083019260209291908290030181865afa158015612096573d6000803e3d6000fd5b505050506040513d601f19601f820116820180604052508101906120ba919061301b565b85836001600160a01b03166355a373d66040518163ffffffff1660e01b8152600401602060405180830381865afa1580156120f9573d6000803e3d6000fd5b505050506040513d601f19601f8201168201806040525081019061211d919061301b565b846001600160a01b0316638290c4a66040518163ffffffff1660e01b8152600401602060405180830381865afa15801561215b573d6000803e3d6000fd5b505050506040513d601f19601f8201168201806040525081019061217f919061301b565b6127a7565b91508160018151811061219957612199613038565b60200260200101518560060160008282546121b49190613008565b92505081905550816000815181106121ce576121ce613038565b60200260200101518560070160008282546121e99190613008565b90915550506009850183905581518290600190811061220a5761220a613038565b602002602001015161010060008282546122249190613008565b925050819055508160008151811061223e5761223e613038565b602002602001015161010160008282546122589190613008565b909155509195945050505050565b6000805b83518110156122c157826001600160a01b031684828151811061228f5761228f613038565b60200260200101516001600160a01b0316036122af576001915050610d48565b806122b981613070565b91505061226a565b5060009392505050565b6065546001600160a01b031633146110b15760405162461bcd60e51b815260206004820181905260248201527f4f776e61626c653a2063616c6c6572206973206e6f7420746865206f776e657260448201526064016107b0565b60fc8054600180820183557f371f36870d18f32a11fea0f144b021c8b407bb50f8e0267c711123f454b963c090910180546001600160a01b0319166001600160a01b038916908117909155915460008381526101066020908152604080832084845261010783529083208154808701835582855292842090920184905581546001600160a81b0319166101009096029590951784178155426004820181905560058201879055938101899055600281018890556003810187905560fd80549295939493928a919087906123f9908490613008565b925050819055508760fe60008282546124129190613008565b9250508190555085898b6001600160a01b03167ff556991011e831bcfac4f406d547e5e32cdd98267efab83935230d5f8d02c4468760405161245691815260200190565b60405180910390a485888b6001600160a01b03167ff556991011e831bcfac4f406d547e5e32cdd98267efab83935230d5f8d02c4468760405161249b91815260200190565b60405180910390a45060019998505050505050505050565b6110146122cb565b7f4910fdfa16fed3260ed0e7147f7cc6da11a60208b5b9406d12a635614ffd91435460ff16156124f3576124ee8361292a565b505050565b826001600160a01b03166352d1902d6040518163ffffffff1660e01b8152600401602060405180830381865afa92505050801561254d575060408051601f3d908101601f1916820190925261254a9181019061318c565b60015b6125b05760405162461bcd60e51b815260206004820152602e60248201527f45524331393637557067726164653a206e657720696d706c656d656e7461746960448201526d6f6e206973206e6f74205555505360901b60648201526084016107b0565b600080516020613346833981519152811461261f5760405162461bcd60e51b815260206004820152602960248201527f45524331393637557067726164653a20756e737570706f727465642070726f786044820152681a58589b195555525160ba1b60648201526084016107b0565b506124ee8383836129c6565b6126336129f1565b6033805460ff191690557f5db9ee0a495bf2e6ff9c91a7834c1ba4fdd244a5e8aa4e537bd38aeae4b073aa335b6040516001600160a01b03909116815260200160405180910390a1565b606580546001600160a01b038381166001600160a01b0319831681179093556040519116919082907f8be0079c531659141344cd1fd0a4f28419497f9722a3daafe3b4186f6b6457e090600090a35050565b600054610100900460ff166126f65760405162461bcd60e51b81526004016107b0906131a5565b6110b1612a3a565b600054610100900460ff166127255760405162461bcd60e51b81526004016107b0906131a5565b6110b1612a6d565b600054610100900460ff166110b15760405162461bcd60e51b81526004016107b0906131a5565b61275c612a9d565b6033805460ff191660011790557f62e78cea01bee320cd4e420270b5ea74000d11b0c9f74754ebdbfc544b05a2586126603390565b60008183106127a05781611427565b5090919050565b6040805160028082526060808301845292600092919060208301908036833701905050905085816000815181106127e0576127e0613038565b60200260200101906001600160a01b031690816001600160a01b031681525050838160018151811061281457612814613038565b6001600160a01b03928316602091820292909201015260405163095ea7b360e01b81528482166004820152602481018790529087169063095ea7b3906044016020604051808303816000875af1158015612872573d6000803e3d6000fd5b505050506040513d601f19601f82011682018060405250810190612896919061304e565b5060006001600160a01b0384166338ed173987600185306128b8426064613008565b6040518663ffffffff1660e01b81526004016128d89594939291906131f0565b6000604051808303816000875af11580156128f7573d6000803e3d6000fd5b505050506040513d6000823e601f3d908101601f1916820160405261291f919081019061322c565b979650505050505050565b6001600160a01b0381163b6129975760405162461bcd60e51b815260206004820152602d60248201527f455243313936373a206e657720696d706c656d656e746174696f6e206973206e60448201526c1bdd08184818dbdb9d1c9858dd609a1b60648201526084016107b0565b60008051602061334683398151915280546001600160a01b0319166001600160a01b0392909216919091179055565b6129cf83612ae3565b6000825111806129dc5750805b156124ee576129eb8383612b23565b50505050565b60335460ff166110b15760405162461bcd60e51b815260206004820152601460248201527314185d5cd8589b194e881b9bdd081c185d5cd95960621b60448201526064016107b0565b600054610100900460ff16612a615760405162461bcd60e51b81526004016107b0906131a5565b6033805460ff19169055565b600054610100900460ff16612a945760405162461bcd60e51b81526004016107b0906131a5565b6110b13361267d565b60335460ff16156110b15760405162461bcd60e51b815260206004820152601060248201526f14185d5cd8589b194e881c185d5cd95960821b60448201526064016107b0565b612aec8161292a565b6040516001600160a01b038216907fbc7cd75a20ee27fd9adebab32041f755214dbc6bffa90cc0225b39da2e5c2d3b90600090a250565b60606001600160a01b0383163b612b8b5760405162461bcd60e51b815260206004820152602660248201527f416464726573733a2064656c65676174652063616c6c20746f206e6f6e2d636f6044820152651b9d1c9858dd60d21b60648201526084016107b0565b600080846001600160a01b031684604051612ba691906132f6565b600060405180830381855af49150503d8060008114612be1576040519150601f19603f3d011682016040523d82523d6000602084013e612be6565b606091505b5091509150611d7f82826040518060600160405280602781526020016133666027913960608315612c18575081611427565b6114278383815115612c2d5781518083602001fd5b8060405162461bcd60e51b81526004016107b09190613312565b600060208284031215612c5957600080fd5b5035919050565b600081518084526020808501945080840160005b83811015612c995781516001600160a01b031687529582019590820190600101612c74565b509495945050505050565b6020815260006114276020830184612c60565b6001600160a01b038116811461101457600080fd5b60008060408385031215612cdf57600080fd5b8235612cea81612cb7565b946020939093013593505050565b600060208284031215612d0a57600080fd5b813561142781612cb7565b600080600060608486031215612d2a57600080fd5b8335612d3581612cb7565b95602085013595506040909401359392505050565b60008060208385031215612d5d57600080fd5b823567ffffffffffffffff80821115612d7557600080fd5b818501915085601f830112612d8957600080fd5b813581811115612d9857600080fd5b8660208260051b8501011115612dad57600080fd5b60209290920196919550909350505050565b634e487b7160e01b600052604160045260246000fd5b604051601f8201601f1916810167ffffffffffffffff81118282101715612dfe57612dfe612dbf565b604052919050565b60008060408385031215612e1957600080fd5b8235612e2481612cb7565b915060208381013567ffffffffffffffff80821115612e4257600080fd5b818601915086601f830112612e5657600080fd5b813581811115612e6857612e68612dbf565b612e7a601f8201601f19168501612dd5565b91508082528784828501011115612e9057600080fd5b80848401858401376000848284010152508093505050509250929050565b600080600060608486031215612ec357600080fd5b8335612ece81612cb7565b92506020840135612ede81612cb7565b929592945050506040919091013590565b600081518084526020808501945080840160005b83811015612c9957815187529582019590820190600101612f03565b6020815260006114276020830184612eef565b81511515815261016081016020830151612f5760208401826001600160a01b03169052565b5060408301516040830152606083015160608301526080830151608083015260a083015160a083015260c083015160c083015260e083015160e083015261010080840151818401525061012080840151818401525061014080840151818401525092915050565b602081526000825160406020840152612fda6060840182612eef565b90506020840151151560408401528091505092915050565b634e487b7160e01b600052601160045260246000fd5b80820180821115610d4857610d48612ff2565b60006020828403121561302d57600080fd5b815161142781612cb7565b634e487b7160e01b600052603260045260246000fd5b60006020828403121561306057600080fd5b8151801515811461142757600080fd5b60006001820161308257613082612ff2565b5060010190565b6020808252602c908201527f46756e6374696f6e206d7573742062652063616c6c6564207468726f7567682060408201526b19195b1959d85d1958d85b1b60a21b606082015260800190565b6020808252602c908201527f46756e6374696f6e206d7573742062652063616c6c6564207468726f7567682060408201526b6163746976652070726f787960a01b606082015260800190565b8082028115828204841417610d4857610d48612ff2565b600060ff821660ff810361314e5761314e612ff2565b60010192915050565b81810381811115610d4857610d48612ff2565b60008261318757634e487b7160e01b600052601260045260246000fd5b500490565b60006020828403121561319e57600080fd5b5051919050565b6020808252602b908201527f496e697469616c697a61626c653a20636f6e7472616374206973206e6f74206960408201526a6e697469616c697a696e6760a81b606082015260800190565b85815284602082015260a06040820152600061320f60a0830186612c60565b6001600160a01b0394909416606083015250608001529392505050565b6000602080838503121561323f57600080fd5b825167ffffffffffffffff8082111561325757600080fd5b818501915085601f83011261326b57600080fd5b81518181111561327d5761327d612dbf565b8060051b915061328e848301612dd5565b81815291830184019184810190888411156132a857600080fd5b938501935b838510156132c6578451825293850193908501906132ad565b98975050505050505050565b60005b838110156132ed5781810151838201526020016132d5565b50506000910152565b600082516133088184602087016132d2565b9190910192915050565b60208152600082518060208401526133318160408501602087016132d2565b601f01601f1916919091016040019291505056fe360894a13ba1a3210667c828492db98dca3e2076cc3735a920a3ca505d382bbc416464726573733a206c6f772d6c6576656c2064656c65676174652063616c6c206661696c6564a264697066735822122003629b73ef23f15966aabe51ad099e8e495ad3bac862d6bfb7167562369c1e5764736f6c63430008110033",
  "linkReferences": {},
  "deployedLinkReferences": {}
}