{
  "_format": "hh-sol-artifact-1",
  "contractName": "StakingUpgradeable",
  "sourceName": "contracts/StakingUpgradeable.sol",
  "abi": [
    {
      "anonymous": false,
      "inputs": [
        {
          "indexed": false,
          "internalType": "address",
          "name": "previousAdmin",
          "type": "address"
        },
        {
          "indexed": false,
          "internalType": "address",
          "name": "newAdmin",
          "type": "address"
        }
      ],
      "name": "AdminChanged",
      "type": "event"
    },
    {
      "anonymous": false,
      "inputs": [
        {
          "indexed": true,
          "internalType": "address",
          "name": "beacon",
          "type": "address"
        }
      ],
      "name": "BeaconUpgraded",
      "type": "event"
    },
    {
      "anonymous": false,
      "inputs": [
        {
          "indexed": false,
          "internalType": "uint8",
          "name": "version",
          "type": "uint8"
        }
      ],
      "name": "Initialized",
      "type": "event"
    },
    {
      "anonymous": false,
      "inputs": [
        {
          "indexed": true,
          "internalType": "address",
          "name": "previousOwner",
          "type": "address"
        },
        {
          "indexed": true,
          "internalType": "address",
          "name": "newOwner",
          "type": "address"
        }
      ],
      "name": "OwnershipTransferred",
      "type": "event"
    },
    {
      "anonymous": false,
      "inputs": [
        {
          "indexed": false,
          "internalType": "address",
          "name": "account",
          "type": "address"
        }
      ],
      "name": "Paused",
      "type": "event"
    },
    {
      "anonymous": false,
      "inputs": [
        {
          "indexed": true,
          "internalType": "address",
          "name": "userAddress",
          "type": "address"
        },
        {
          "indexed": false,
          "internalType": "uint256",
          "name": "amount",
          "type": "uint256"
        }
      ],
      "name": "PrincipalClaimed",
      "type": "event"
    },
    {
      "anonymous": false,
      "inputs": [
        {
          "indexed": true,
          "internalType": "address",
          "name": "userAddress",
          "type": "address"
        },
        {
          "indexed": true,
          "internalType": "uint256",
          "name": "valueStaked",
          "type": "uint256"
        },
        {
          "indexed": true,
          "internalType": "uint256",
          "name": "duration",
          "type": "uint256"
        },
        {
          "indexed": false,
          "internalType": "uint256",
          "name": "stakingID",
          "type": "uint256"
        }
      ],
      "name": "Stake",
      "type": "event"
    },
    {
      "anonymous": false,
      "inputs": [
        {
          "indexed": true,
          "internalType": "address",
          "name": "userAddress",
          "type": "address"
        },
        {
          "indexed": true,
          "internalType": "uint256",
          "name": "reward",
          "type": "uint256"
        },
        {
          "indexed": true,
          "internalType": "uint256",
          "name": "stakingID",
          "type": "uint256"
        },
        {
          "indexed": false,
          "internalType": "address",
          "name": "tokenAddress",
          "type": "address"
        }
      ],
      "name": "StakingRewardClaimed",
      "type": "event"
    },
    {
      "anonymous": false,
      "inputs": [
        {
          "indexed": false,
          "internalType": "address",
          "name": "account",
          "type": "address"
        }
      ],
      "name": "Unpaused",
      "type": "event"
    },
    {
      "anonymous": false,
      "inputs": [
        {
          "indexed": true,
          "internalType": "address",
          "name": "userAddress",
          "type": "address"
        },
        {
          "indexed": true,
          "internalType": "uint256",
          "name": "valueStaked",
          "type": "uint256"
        },
        {
          "indexed": true,
          "internalType": "uint256",
          "name": "stakingID",
          "type": "uint256"
        }
      ],
      "name": "Unstake",
      "type": "event"
    },
    {
      "anonymous": false,
      "inputs": [
        {
          "indexed": true,
          "internalType": "address",
          "name": "implementation",
          "type": "address"
        }
      ],
      "name": "Upgraded",
      "type": "event"
    },
    {
      "inputs": [],
      "name": "activeStakersList",
      "outputs": [
        {
          "internalType": "address[]",
          "name": "",
          "type": "address[]"
        }
      ],
      "stateMutability": "view",
      "type": "function"
    },
    {
      "inputs": [],
      "name": "allStakersList",
      "outputs": [
        {
          "internalType": "address[]",
          "name": "",
          "type": "address[]"
        }
      ],
      "stateMutability": "view",
      "type": "function"
    },
    {
      "inputs": [
        {
          "internalType": "uint256",
          "name": "_stakingID",
          "type": "uint256"
        }
      ],
      "name": "claimStakingReward",
      "outputs": [],
      "stateMutability": "nonpayable",
      "type": "function"
    },
    {
      "inputs": [
        {
          "internalType": "address[]",
          "name": "_userAddress",
          "type": "address[]"
        }
      ],
      "name": "disableAccounts",
      "outputs": [],
      "stateMutability": "nonpayable",
      "type": "function"
    },
    {
      "inputs": [
        {
          "internalType": "address[]",
          "name": "_userAddress",
          "type": "address[]"
        }
      ],
      "name": "enableAccounts",
      "outputs": [],
      "stateMutability": "nonpayable",
      "type": "function"
    },
    {
      "inputs": [],
      "name": "getActiveStakingIDs",
      "outputs": [
        {
          "internalType": "uint256[]",
          "name": "",
          "type": "uint256[]"
        }
      ],
      "stateMutability": "view",
      "type": "function"
    },
    {
      "inputs": [],
      "name": "getDisabledAccountsList",
      "outputs": [
        {
          "internalType": "address[]",
          "name": "",
          "type": "address[]"
        }
      ],
      "stateMutability": "view",
      "type": "function"
    },
    {
      "inputs": [],
      "name": "getStakingCappings",
      "outputs": [
        {
          "internalType": "uint256",
          "name": "minStakingValue",
          "type": "uint256"
        },
        {
          "internalType": "uint256",
          "name": "stakingRewardRate",
          "type": "uint256"
        },
        {
          "internalType": "uint256",
          "name": "stakingDuration",
          "type": "uint256"
        },
        {
          "internalType": "uint256",
          "name": "stakingRewardClaimTimeLimit",
          "type": "uint256"
        }
      ],
      "stateMutability": "view",
      "type": "function"
    },
    {
      "inputs": [],
      "name": "getStakingReleaseRewardRate",
      "outputs": [
        {
          "internalType": "uint8",
          "name": "",
          "type": "uint8"
        }
      ],
      "stateMutability": "view",
      "type": "function"
    },
    {
      "inputs": [
        {
          "internalType": "uint256",
          "name": "_stakingID",
          "type": "uint256"
        }
      ],
      "name": "getStakingReward",
      "outputs": [
        {
          "internalType": "uint256",
          "name": "",
          "type": "uint256"
        }
      ],
      "stateMutability": "view",
      "type": "function"
    },
    {
      "inputs": [],
      "name": "getStakingRewardClaimTimeLimit",
      "outputs": [
        {
          "internalType": "uint256",
          "name": "",
          "type": "uint256"
        }
      ],
      "stateMutability": "view",
      "type": "function"
    },
    {
      "inputs": [
        {
          "internalType": "uint256",
          "name": "_stakingID",
          "type": "uint256"
        }
      ],
      "name": "getStakingRewardClaimTimeRemaining",
      "outputs": [
        {
          "internalType": "uint256",
          "name": "",
          "type": "uint256"
        }
      ],
      "stateMutability": "view",
      "type": "function"
    },
    {
      "inputs": [
        {
          "internalType": "uint256",
          "name": "_stakingID",
          "type": "uint256"
        }
      ],
      "name": "getStakingTimeRemaining",
      "outputs": [
        {
          "internalType": "uint256",
          "name": "",
          "type": "uint256"
        }
      ],
      "stateMutability": "view",
      "type": "function"
    },
    {
      "inputs": [],
      "name": "getTotalStakingRewardDistributed",
      "outputs": [
        {
          "internalType": "uint256",
          "name": "_tokenRewards",
          "type": "uint256"
        },
        {
          "internalType": "uint256",
          "name": "_ansudRewards",
          "type": "uint256"
        }
      ],
      "stateMutability": "view",
      "type": "function"
    },
    {
      "inputs": [],
      "name": "getTotalValueStaked",
      "outputs": [
        {
          "internalType": "uint256",
          "name": "token",
          "type": "uint256"
        },
        {
          "internalType": "uint256",
          "name": "anusd",
          "type": "uint256"
        }
      ],
      "stateMutability": "view",
      "type": "function"
    },
    {
      "inputs": [
        {
          "internalType": "address",
          "name": "_userAddress",
          "type": "address"
        }
      ],
      "name": "getUserAllStakingsRewards",
      "outputs": [
        {
          "internalType": "uint256",
          "name": "",
          "type": "uint256"
        }
      ],
      "stateMutability": "view",
      "type": "function"
    },
    {
      "inputs": [
        {
          "internalType": "address",
          "name": "_userAddress",
          "type": "address"
        }
      ],
      "name": "getUserStakingIDs",
      "outputs": [
        {
          "internalType": "uint256[]",
          "name": "",
          "type": "uint256[]"
        }
      ],
      "stateMutability": "view",
      "type": "function"
    },
    {
      "inputs": [
        {
          "internalType": "address",
          "name": "_userAddress",
          "type": "address"
        }
      ],
      "name": "getUserTotalPrincipalClaimed",
      "outputs": [
        {
          "internalType": "uint256",
          "name": "",
          "type": "uint256"
        }
      ],
      "stateMutability": "view",
      "type": "function"
    },
    {
      "inputs": [
        {
          "internalType": "address",
          "name": "_userAddress",
          "type": "address"
        }
      ],
      "name": "getUserTotalRewardClaimedANUSD",
      "outputs": [
        {
          "internalType": "uint256",
          "name": "totalRewardClaim",
          "type": "uint256"
        }
      ],
      "stateMutability": "view",
      "type": "function"
    },
    {
      "inputs": [
        {
          "internalType": "address",
          "name": "_userAddress",
          "type": "address"
        }
      ],
      "name": "getUserTotalRewardClaimedToken",
      "outputs": [
        {
          "internalType": "uint256",
          "name": "totalRewardClaim",
          "type": "uint256"
        }
      ],
      "stateMutability": "view",
      "type": "function"
    },
    {
      "inputs": [
        {
          "internalType": "address",
          "name": "_userAddress",
          "type": "address"
        }
      ],
      "name": "getUserTotalValueStaked",
      "outputs": [
        {
          "internalType": "uint256",
          "name": "token",
          "type": "uint256"
        },
        {
          "internalType": "uint256",
          "name": "anusd",
          "type": "uint256"
        }
      ],
      "stateMutability": "view",
      "type": "function"
    },
    {
      "inputs": [],
      "name": "initialize",
      "outputs": [],
      "stateMutability": "nonpayable",
      "type": "function"
    },
    {
      "inputs": [
        {
          "internalType": "address",
          "name": "_userAddress",
          "type": "address"
        }
      ],
      "name": "isAccountDisabled",
      "outputs": [
        {
          "internalType": "bool",
          "name": "",
          "type": "bool"
        }
      ],
      "stateMutability": "view",
      "type": "function"
    },
    {
      "inputs": [
        {
          "internalType": "address",
          "name": "_userAddress",
          "type": "address"
        }
      ],
      "name": "isStaked",
      "outputs": [
        {
          "internalType": "bool",
          "name": "",
          "type": "bool"
        }
      ],
      "stateMutability": "view",
      "type": "function"
    },
    {
      "inputs": [],
      "name": "owner",
      "outputs": [
        {
          "internalType": "address",
          "name": "",
          "type": "address"
        }
      ],
      "stateMutability": "view",
      "type": "function"
    },
    {
      "inputs": [],
      "name": "pause",
      "outputs": [],
      "stateMutability": "nonpayable",
      "type": "function"
    },
    {
      "inputs": [],
      "name": "paused",
      "outputs": [
        {
          "internalType": "bool",
          "name": "",
          "type": "bool"
        }
      ],
      "stateMutability": "view",
      "type": "function"
    },
    {
      "inputs": [],
      "name": "proxiableUUID",
      "outputs": [
        {
          "internalType": "bytes32",
          "name": "",
          "type": "bytes32"
        }
      ],
      "stateMutability": "view",
      "type": "function"
    },
    {
      "inputs": [],
      "name": "renounceOwnership",
      "outputs": [],
      "stateMutability": "nonpayable",
      "type": "function"
    },
    {
      "inputs": [
        {
          "internalType": "uint256",
          "name": "_value",
          "type": "uint256"
        }
      ],
      "name": "setMinStakingValue",
      "outputs": [
        {
          "internalType": "uint256",
          "name": "",
          "type": "uint256"
        }
      ],
      "stateMutability": "nonpayable",
      "type": "function"
    },
    {
      "inputs": [
        {
          "internalType": "uint256",
          "name": "_valueInDays",
          "type": "uint256"
        }
      ],
      "name": "setStakingDuration",
      "outputs": [],
      "stateMutability": "nonpayable",
      "type": "function"
    },
    {
      "inputs": [
        {
          "internalType": "uint8",
          "name": "_valueInDecimals",
          "type": "uint8"
        }
      ],
      "name": "setStakingReleaseRewardRate",
      "outputs": [],
      "stateMutability": "nonpayable",
      "type": "function"
    },
    {
      "inputs": [
        {
          "internalType": "uint256",
          "name": "_valueInDays",
          "type": "uint256"
        }
      ],
      "name": "setStakingRewardClaimTimeLimity",
      "outputs": [],
      "stateMutability": "nonpayable",
      "type": "function"
    },
    {
      "inputs": [
        {
          "internalType": "uint256",
          "name": "_valueInPer",
          "type": "uint256"
        }
      ],
      "name": "setStakingRewardRate",
      "outputs": [],
      "stateMutability": "nonpayable",
      "type": "function"
    },
    {
      "inputs": [
        {
          "internalType": "address",
          "name": "_userAddress",
          "type": "address"
        },
        {
          "internalType": "uint256",
          "name": "_valueInToken",
          "type": "uint256"
        },
        {
          "internalType": "uint256",
          "name": "_valueInANUSD",
          "type": "uint256"
        }
      ],
      "name": "stakeByAdmin",
      "outputs": [],
      "stateMutability": "nonpayable",
      "type": "function"
    },
    {
      "inputs": [
        {
          "internalType": "uint256",
          "name": "_stakingID",
          "type": "uint256"
        }
      ],
      "name": "stakeInfoMap",
      "outputs": [
        {
          "components": [
            {
              "internalType": "bool",
              "name": "isStaked",
              "type": "bool"
            },
            {
              "internalType": "address",
              "name": "owner",
              "type": "address"
            },
            {
              "internalType": "uint256",
              "name": "valueInToken",
              "type": "uint256"
            },
            {
              "internalType": "uint256",
              "name": "valueInANUSD",
              "type": "uint256"
            },
            {
              "internalType": "uint256",
              "name": "rewardRate",
              "type": "uint256"
            },
            {
              "internalType": "uint256",
              "name": "startTime",
              "type": "uint256"
            },
            {
              "internalType": "uint256",
              "name": "duration",
              "type": "uint256"
            },
            {
              "internalType": "uint256",
              "name": "rewardClaimedToken",
              "type": "uint256"
            },
            {
              "internalType": "uint256",
              "name": "rewardClaimedANUSD",
              "type": "uint256"
            },
            {
              "internalType": "uint256",
              "name": "principalClaimed",
              "type": "uint256"
            },
            {
              "internalType": "uint256",
              "name": "lastTimeRewardClaimed",
              "type": "uint256"
            }
          ],
          "internalType": "struct StakingUpgradeable.StakeInfo",
          "name": "",
          "type": "tuple"
        }
      ],
      "stateMutability": "view",
      "type": "function"
    },
    {
      "inputs": [
        {
          "internalType": "address",
          "name": "_userAddress",
          "type": "address"
        },
        {
          "internalType": "uint256",
          "name": "_valueInToken",
          "type": "uint256"
        }
      ],
      "name": "stakeTopUpByAdmin",
      "outputs": [],
      "stateMutability": "nonpayable",
      "type": "function"
    },
    {
      "inputs": [
        {
          "internalType": "address",
          "name": "newOwner",
          "type": "address"
        }
      ],
      "name": "transferOwnership",
      "outputs": [],
      "stateMutability": "nonpayable",
      "type": "function"
    },
    {
      "inputs": [],
      "name": "unpause",
      "outputs": [],
      "stateMutability": "nonpayable",
      "type": "function"
    },
    {
      "inputs": [
        {
          "internalType": "address",
          "name": "newImplementation",
          "type": "address"
        }
      ],
      "name": "upgradeTo",
      "outputs": [],
      "stateMutability": "nonpayable",
      "type": "function"
    },
    {
      "inputs": [
        {
          "internalType": "address",
          "name": "newImplementation",
          "type": "address"
        },
        {
          "internalType": "bytes",
          "name": "data",
          "type": "bytes"
        }
      ],
      "name": "upgradeToAndCall",
      "outputs": [],
      "stateMutability": "payable",
      "type": "function"
    },
    {
      "inputs": [
        {
          "internalType": "address",
          "name": "_userAddress",
          "type": "address"
        }
      ],
      "name": "userAccountMap",
      "outputs": [
        {
          "components": [
            {
              "internalType": "uint256[]",
              "name": "stakingID",
              "type": "uint256[]"
            },
            {
              "internalType": "bool",
              "name": "isDisabled",
              "type": "bool"
            }
          ],
          "internalType": "struct StakingUpgradeable.Account",
          "name": "",
          "type": "tuple"
        }
      ],
      "stateMutability": "view",
      "type": "function"
    },
    {
      "inputs": [
        {
          "internalType": "address",
          "name": "_receiver",
          "type": "address"
        },
        {
          "internalType": "uint256",
          "name": "_value",
          "type": "uint256"
        }
      ],
      "name": "withdrawNativeFunds",
      "outputs": [
        {
          "internalType": "bool",
          "name": "",
          "type": "bool"
        }
      ],
      "stateMutability": "nonpayable",
      "type": "function"
    },
    {
      "inputs": [
        {
          "internalType": "address",
          "name": "_tokenAddress",
          "type": "address"
        },
        {
          "internalType": "address",
          "name": "_receiver",
          "type": "address"
        },
        {
          "internalType": "uint256",
          "name": "_value",
          "type": "uint256"
        }
      ],
      "name": "withdrawTokens",
      "outputs": [
        {
          "internalType": "bool",
          "name": "",
          "type": "bool"
        }
      ],
      "stateMutability": "nonpayable",
      "type": "function"
    },
    {
      "stateMutability": "payable",
      "type": "receive"
    }
  ],
  "bytecode": "0x60a06040523060805234801561001457600080fd5b506080516136e761004c60003960008181611286015281816112c6015281816114010152818161144101526114d401526136e76000f3fe60806040526004361061026b5760003560e01c80636f51b20b11610144578063a7566b75116100b6578063d596fe7f1161007a578063d596fe7f14610750578063d8ba90b714610770578063dba4358c14610790578063deede654146107a5578063e3a51f58146107bd578063f2fde38b146107fa57600080fd5b8063a7566b75146106a1578063abfe35ad146106ce578063b7d68519146106ee578063ba4f678e1461070e578063c06a53881461073b57600080fd5b80638129fc1c116101085780638129fc1c146105d25780638456cb59146105e75780638da5cb5b146105fc578063900a253b146106245780639c3fe28a14610644578063a40b58911461066457600080fd5b80636f51b20b146105415780636f72693b1461056e578063715018a614610583578063736e9b94146105985780637ce574bf146105b857600080fd5b80634f1ef286116101dd5780635e35359e116101a15780635e35359e1461046c5780635f8697141461048c5780636177fd18146104c1578063628b372b146104e157806366e5e570146105015780636a8ca6911461052157600080fd5b80634f1ef286146103ec57806352d1902d146103ff57806353bdadea146104145780635c975abb146104345780635cbfd0211461044c57600080fd5b806326792aca1161022f57806326792aca1461032757806328796bbd14610357578063310c9b20146103775780633659cfe6146103975780633b09098f146103b75780633f4ba83a146103d757600080fd5b806308141e4e146102775780631e6f8fe7146102aa57806322ae497e146102cd578063239cd4a4146102e3578063260cb4e91461030557600080fd5b3661027257005b600080fd5b34801561028357600080fd5b50610297610292366004612f07565b61081a565b6040519081526020015b60405180910390f35b3480156102b657600080fd5b506101085460405160ff90911681526020016102a1565b3480156102d957600080fd5b5061010554610297565b3480156102ef57600080fd5b506103036102fe366004612f07565b610891565b005b34801561031157600080fd5b5061031a610ed9565b6040516102a19190612f64565b34801561033357600080fd5b50610347610342366004612f8c565b611055565b60405190151581526020016102a1565b34801561036357600080fd5b50610297610372366004612fb8565b6110a1565b34801561038357600080fd5b50610303610392366004612fd5565b61117a565b3480156103a357600080fd5b506103036103b2366004612fb8565b61127c565b3480156103c357600080fd5b506103036103d236600461300a565b61135b565b3480156103e357600080fd5b506103036113e5565b6103036103fa3660046130c6565b6113f7565b34801561040b57600080fd5b506102976114c7565b34801561042057600080fd5b5061030361042f36600461300a565b61157a565b34801561044057600080fd5b5060335460ff16610347565b34801561045857600080fd5b50610303610467366004612f07565b611600565b34801561047857600080fd5b5061034761048736600461316e565b61161c565b34801561049857600080fd5b506104ac6104a7366004612fb8565b6116a6565b604080519283526020830191909152016102a1565b3480156104cd57600080fd5b506103476104dc366004612fb8565b6117a2565b3480156104ed57600080fd5b506102976104fc366004612fb8565b61187f565b34801561050d57600080fd5b5061029761051c366004612fb8565b61195c565b34801561052d57600080fd5b5061030361053c366004612f07565b611a2c565b34801561054d57600080fd5b5061056161055c366004612fb8565b611a48565b6040516102a191906131df565b34801561057a57600080fd5b50610561611ab5565b34801561058f57600080fd5b50610303611b6a565b3480156105a457600080fd5b506103036105b33660046131f2565b611b7c565b3480156105c457600080fd5b5061010054610101546104ac565b3480156105de57600080fd5b50610303611b9b565b3480156105f357600080fd5b50610303611d05565b34801561060857600080fd5b506065546040516001600160a01b0390911681526020016102a1565b34801561063057600080fd5b5061030361063f366004612f8c565b611d15565b34801561065057600080fd5b5061029761065f366004612fb8565b611dfa565b34801561067057600080fd5b5061034761067f366004612fb8565b6001600160a01b03166000908152610106602052604090206001015460ff1690565b3480156106ad57600080fd5b506106c16106bc366004612f07565b611f02565b6040516102a19190613215565b3480156106da57600080fd5b506102976106e9366004612f07565b61200a565b3480156106fa57600080fd5b50610303610709366004612f07565b612015565b34801561071a57600080fd5b5061072e610729366004612fb8565b612023565b6040516102a191906132a1565b34801561074757600080fd5b5061031a6120bb565b34801561075c57600080fd5b5061029761076b366004612f07565b61220f565b34801561077c57600080fd5b5061029761078b366004612f07565b612223565b34801561079c57600080fd5b5061031a612288565b3480156107b157600080fd5b5060fd5460fe546104ac565b3480156107c957600080fd5b50610102546101035461010454610105546040805194855260208501939093529183015260608201526080016102a1565b34801561080657600080fd5b50610303610815366004612fb8565b6123ec565b60008181526101076020526040812060098101544291901561087d578161010554826009015461084a91906132eb565b10610872578161010554826009015461086391906132eb565b61086d91906132fe565b610875565b60005b949350505050565b8161010554826004015461084a91906132eb565b610899612462565b60006108a4826124a8565b905060006108b1836124fe565b9050600082116109085760405162461bcd60e51b815260206004820152601c60248201527f596f752068617665206e6f207374616b696e67206f7220656e6465640000000060448201526064015b60405180910390fd5b60fb5460008481526101076020908152604080832033808552610106909352922082546001600160a01b0394851694929392429161010090041684146109a05760405162461bcd60e51b815260206004820152602760248201527f536f727279207374616b696e6720696420646f656e27742062656c6f6e6773206044820152663a37903cb7ba9760c91b60648201526084016108ff565b600182015460ff1615610a0d5760405162461bcd60e51b815260206004820152602f60248201527f596f7572206163636f756e742069732064697361626c65642e20506c6561736560448201526e1031b7b73a30b1ba1030b236b4b71760891b60648201526084016108ff565b42610105548460090154610a2191906132eb565b10610a805760405162461bcd60e51b815260206004820152602960248201527f596f752063616e6e6f7420636c61696d20726577617264206265666f7265207460448201526834b6b2b634b6b4ba1760b91b60648201526084016108ff565b6000610bb1866001600160a01b031663b70cc4c16040518163ffffffff1660e01b8152600401602060405180830381865afa158015610ac3573d6000803e3d6000fd5b505050506040513d601f19601f82011682018060405250810190610ae79190613311565b89886001600160a01b03166355a373d66040518163ffffffff1660e01b8152600401602060405180830381865afa158015610b26573d6000803e3d6000fd5b505050506040513d601f19601f82011682018060405250810190610b4a9190613311565b896001600160a01b0316638290c4a66040518163ffffffff1660e01b8152600401602060405180830381865afa158015610b88573d6000803e3d6000fd5b505050506040513d601f19601f82011682018060405250810190610bac9190613311565b61256c565b905086846008016000828254610bc791906132eb565b925050819055508660ff6000828254610be091906132eb565b9250508190555080600181518110610bfa57610bfa61332e565b6020026020010151846006016000828254610c1591906132eb565b9250508190555080600081518110610c2f57610c2f61332e565b6020026020010151846007016000828254610c4a91906132eb565b909155505060098401829055805181906001908110610c6b57610c6b61332e565b60200260200101516101006000828254610c8591906132eb565b9250508190555080600081518110610c9f57610c9f61332e565b60200260200101516101016000828254610cb991906132eb565b92505081905550856001600160a01b03166355a373d66040518163ffffffff1660e01b8152600401602060405180830381865afa158015610cfe573d6000803e3d6000fd5b505050506040513d601f19601f82011682018060405250810190610d229190613311565b6001600160a01b031663a9059cbb868984600181518110610d4557610d4561332e565b6020026020010151610d5791906132eb565b6040516001600160e01b031960e085901b1681526001600160a01b03909216600483015260248201526044016020604051808303816000875af1158015610da2573d6000803e3d6000fd5b505050506040513d601f19601f82011682018060405250810190610dc69190613344565b50846001600160a01b03167f2e6100b89b43378c0aeb062f2df0cfaa63e4437abab6844b441f8e47cb31bec388604051610e0291815260200190565b60405180910390a28881600181518110610e1e57610e1e61332e565b6020026020010151866001600160a01b03167ffec605188cf64597b9aa9cf424a9bba4a84ffb09f9f66c932d6efa1b96fcc7e4896001600160a01b03166355a373d66040518163ffffffff1660e01b8152600401602060405180830381865afa158015610e8f573d6000803e3d6000fd5b505050506040513d601f19601f82011682018060405250810190610eb39190613311565b6040516001600160a01b03909116815260200160405180910390a4505050505050505050565b6000808052610106602090815260fc80546040805182850281018501909152818152606094937f36b574eb542e18a2932b42c3f7b99e0cccde75c2d7e80ac19800931af8e17fa29385939091830182828015610f5e57602002820191906000526020600020905b81546001600160a01b03168152600190910190602001808311610f40575b5050505050905060008151905060008167ffffffffffffffff811115610f8657610f8661307f565b604051908082528060200260200182016040528015610faf578160200160208202803683370190505b5090506000805b8381101561104957848181518110610fd057610fd061332e565b60200260200101519650610fe483886126ef565b15156001146110375760018087015460ff161515900361103757868383815181106110115761101161332e565b6001600160a01b03909216602092830291909101909101528161103381613366565b9250505b8061104181613366565b915050610fb6565b50909695505050505050565b600061105f612754565b6040516001600160a01b0384169083156108fc029084906000818181858888f19350505050158015611095573d6000803e3d6000fd5b50600190505b92915050565b6001600160a01b03811660009081526101066020908152604080832080548251818502810185019093528083529092849291849183018282801561110457602002820191906000526020600020905b8154815260200190600101908083116110f0575b505083519394506000925050505b8181101561117157600061010760008584815181106111335761113361332e565b60200260200101518152602001908152602001600020905080600701548661115b91906132eb565b955050808061116990613366565b915050611112565b50505050919050565b60fb5433906001600160a01b031661119a6065546001600160a01b031690565b6001600160a01b0316826001600160a01b0316148061122b5750806001600160a01b03166363d9df856040518163ffffffff1660e01b8152600401602060405180830381865afa1580156111f2573d6000803e3d6000fd5b505050506040513d601f19601f820116820180604052508101906112169190613311565b6001600160a01b0316826001600160a01b0316145b6112475760405162461bcd60e51b81526004016108ff9061337f565b61127485856064610103548761125d91906133c1565b61126791906133d8565b61010354610104546127ae565b505050505050565b6001600160a01b037f00000000000000000000000000000000000000000000000000000000000000001630036112c45760405162461bcd60e51b81526004016108ff906133fa565b7f00000000000000000000000000000000000000000000000000000000000000006001600160a01b031661130d60008051602061366b833981519152546001600160a01b031690565b6001600160a01b0316146113335760405162461bcd60e51b81526004016108ff90613446565b61133c8161293c565b6040805160008082526020820190925261135891839190612944565b50565b611363612754565b60008080526101066020527f36b574eb542e18a2932b42c3f7b99e0cccde75c2d7e80ac19800931af8e17fa282825b81811015611274578585828181106113ac576113ac61332e565b90506020020160208101906113c19190612fb8565b6001848101805460ff191690911790559350806113dd81613366565b915050611392565b6113ed612754565b6113f5612ab4565b565b6001600160a01b037f000000000000000000000000000000000000000000000000000000000000000016300361143f5760405162461bcd60e51b81526004016108ff906133fa565b7f00000000000000000000000000000000000000000000000000000000000000006001600160a01b031661148860008051602061366b833981519152546001600160a01b031690565b6001600160a01b0316146114ae5760405162461bcd60e51b81526004016108ff90613446565b6114b78261293c565b6114c382826001612944565b5050565b6000306001600160a01b037f000000000000000000000000000000000000000000000000000000000000000016146115675760405162461bcd60e51b815260206004820152603860248201527f555550535570677261646561626c653a206d757374206e6f742062652063616c60448201527f6c6564207468726f7567682064656c656761746563616c6c000000000000000060648201526084016108ff565b5060008051602061366b83398151915290565b611582612754565b60008080526101066020527f36b574eb542e18a2932b42c3f7b99e0cccde75c2d7e80ac19800931af8e17fa282825b81811015611274578585828181106115cb576115cb61332e565b90506020020160208101906115e09190612fb8565b60018401805460ff191690559350806115f881613366565b9150506115b1565b611608612754565b61161581620151806133c1565b6101055550565b6000611626612754565b60405163a9059cbb60e01b81526001600160a01b0384811660048301526024820184905285169063a9059cbb906044016020604051808303816000875af1158015611675573d6000803e3d6000fd5b505050506040513d601f19601f820116820180604052508101906116999190613344565b50600190505b9392505050565b6001600160a01b03811660009081526101066020908152604080832080548251818502810185019093528083528493919284929091849183018282801561170c57602002820191906000526020600020905b8154815260200190600101908083116116f8575b505083519394506000925050505b81811015611799576000610107600085848151811061173b5761173b61332e565b6020908102919091018101518252810191909152604001600020805490915060ff161561178657600181015461177190886132eb565b965080600201548661178391906132eb565b95505b508061179181613366565b91505061171a565b50505050915091565b6001600160a01b03811660009081526101066020908152604080832080548251818502810185019093528083529092849291849183018282801561180557602002820191906000526020600020905b8154815260200190600101908083116117f1575b505083519394506000925050505b818110156118735761010760008483815181106118325761183261332e565b60209081029190910181015182528101919091526040016000205460ff16156118615750600195945050505050565b8061186b81613366565b915050611813565b50600095945050505050565b6001600160a01b0381166000908152610106602090815260408083208054825181850281018501909352808352909284929184918301828280156118e257602002820191906000526020600020905b8154815260200190600101908083116118ce575b505050505090506000815190506000805b8281101561195257600061010760008684815181106119145761191461332e565b60200260200101518152602001908152602001600020905080600801548361193c91906132eb565b925050808061194a90613366565b9150506118f3565b5095945050505050565b6001600160a01b0381166000908152610106602090815260408083208054825181850281018501909352808352909284929184918301828280156119bf57602002820191906000526020600020905b8154815260200190600101908083116119ab575b505083519394506000925050505b8181101561117157600061010760008584815181106119ee576119ee61332e565b602002602001015181526020019081526020016000209050806006015486611a1691906132eb565b9550508080611a2490613366565b9150506119cd565b611a34612754565b611a4181620151806133c1565b6101045550565b6001600160a01b03811660009081526101066020908152604091829020805483518184028101840190945280845260609392830182828015611aa957602002820191906000526020600020905b815481526020019060010190808311611a95575b50505050509050919050565b60fc5460609060008167ffffffffffffffff811115611ad657611ad661307f565b604051908082528060200260200182016040528015611aff578160200160208202803683370190505b50905060005b82811015611b6357600081815261010760205260409020805460ff161515600103611b50578115611b505781838381518110611b4357611b4361332e565b6020026020010181815250505b5080611b5b81613366565b915050611b05565b5092915050565b611b72612754565b6113f56000612b06565b611b84612754565b610108805460ff191660ff92909216919091179055565b600054610100900460ff1615808015611bbb5750600054600160ff909116105b80611bd55750303b158015611bd5575060005460ff166001145b611c385760405162461bcd60e51b815260206004820152602e60248201527f496e697469616c697a61626c653a20636f6e747261637420697320616c72656160448201526d191e481a5b9a5d1a585b1a5e995960921b60648201526084016108ff565b6000805460ff191660011790558015611c5b576000805461ff0019166101001790555b60fb80546001600160a01b0319167377daafc7411c911b869c71bf70fe36cce507845d179055678ac7230489e80000610102556096610103556303e9f4006101045562278d0061010555611cad612b58565b611cb5612b87565b611cbd612bb6565b8015611358576000805461ff0019169055604051600181527f7f26b83ff96e1f2b6a682f133852f6798a09c465da95921460cefb38474024989060200160405180910390a150565b611d0d612754565b6113f5612bdd565b60fb5433906001600160a01b0316611d356065546001600160a01b031690565b6001600160a01b0316826001600160a01b03161480611dc65750806001600160a01b03166363d9df856040518163ffffffff1660e01b8152600401602060405180830381865afa158015611d8d573d6000803e3d6000fd5b505050506040513d601f19601f82011682018060405250810190611db19190613311565b6001600160a01b0316826001600160a01b0316145b611de25760405162461bcd60e51b81526004016108ff9061337f565b611df38484600080610104546127ae565b5050505050565b6001600160a01b03811660009081526101066020908152604080832080548251818502810185019093528083528493830182828015611e5857602002820191906000526020600020905b815481526020019060010190808311611e44575b505050505090506000815190506000805b828160ff161015611ef9576101076000858360ff1681518110611e8e57611e8e61332e565b60209081029190910181015182528101919091526040016000205460ff161515600103611ee757611eda848260ff1681518110611ecd57611ecd61332e565b60200260200101516124a8565b611ee490836132eb565b91505b80611ef181613492565b915050611e69565b50949350505050565b611f6a60405180610160016040528060001515815260200160006001600160a01b031681526020016000815260200160008152602001600081526020016000815260200160008152602001600081526020016000815260200160008152602001600081525090565b5060009081526101076020908152604091829020825161016081018452815460ff8116151582526001600160a01b036101009182900416938201939093526001820154938101939093526002810154606084015260038101546080840152600481015460a0840152600581015460c0840152600681015460e084015260078101549183019190915260088101546101208301526009015461014082015290565b600061109b826124a8565b61201d612754565b61010355565b6040805180820182526060808252600060208084018290526001600160a01b03861682526101068152908490208451815492830281018401865294850182815293949390928492849184018282801561209b57602002820191906000526020600020905b815481526020019060010190808311612087575b50505091835250506001919091015460ff16151560209091015292915050565b6060600060fc80548060200260200160405190810160405280929190818152602001828054801561211557602002820191906000526020600020905b81546001600160a01b031681526001909101906020018083116120f7575b5050505050905060008151905060008167ffffffffffffffff81111561213d5761213d61307f565b604051908082528060200260200182016040528015612166578160200160208202803683370190505b5090506000805b83811015612205576121988386838151811061218b5761218b61332e565b60200260200101516126ef565b15156001146121f3578481815181106121b3576121b361332e565b60200260200101518383815181106121cd576121cd61332e565b6001600160a01b0390921660209283029190910190910152816121ef81613366565b9250505b806121fd81613366565b91505061216d565b5090949350505050565b6000612219612754565b5061010281905590565b60008181526101076020526040812060058101546004820154429291849161224b91906132eb565b90508083101561227d57828260050154836004015461226a91906132eb565b61227491906132fe565b95945050505050565b506000949350505050565b6060600060fc8054806020026020016040519081016040528092919081815260200182805480156122e257602002820191906000526020600020905b81546001600160a01b031681526001909101906020018083116122c4575b5050505050905060008151905060008167ffffffffffffffff81111561230a5761230a61307f565b604051908082528060200260200182016040528015612333578160200160208202803683370190505b5090506000805b83811015612205576123588386838151811061218b5761218b61332e565b15156001146123da576123838582815181106123765761237661332e565b60200260200101516117a2565b156123da5784818151811061239a5761239a61332e565b60200260200101518383815181106123b4576123b461332e565b6001600160a01b0390921660209283029190910190910152816123d681613366565b9250505b806123e481613366565b91505061233a565b6123f4612754565b6001600160a01b0381166124595760405162461bcd60e51b815260206004820152602660248201527f4f776e61626c653a206e6577206f776e657220697320746865207a65726f206160448201526564647265737360d01b60648201526084016108ff565b61135881612b06565b60335460ff16156113f55760405162461bcd60e51b815260206004820152601060248201526f14185d5cd8589b194e881c185d5cd95960821b60448201526064016108ff565b600081815261010760205260408120600481015442919083906124cb90846132fe565b905081600701546124e0828460050154612c1a565b836005015484600201546124f491906133d8565b61226a91906133c1565b6000818152610107602052604081206004810154429190839061252190846132fe565b905060008260050154836001015461253991906133d8565b9050826008015461254e838560050154612c1a565b61255890836133c1565b61256291906132fe565b9695505050505050565b6040805160028082526060808301845292600092919060208301908036833701905050905085816000815181106125a5576125a561332e565b60200260200101906001600160a01b031690816001600160a01b03168152505083816001815181106125d9576125d961332e565b6001600160a01b03928316602091820292909201015260405163095ea7b360e01b81528482166004820152602481018790529087169063095ea7b3906044016020604051808303816000875af1158015612637573d6000803e3d6000fd5b505050506040513d601f19601f8201168201806040525081019061265b9190613344565b5060006001600160a01b0384166338ed1739876001853061267d4260646132eb565b6040518663ffffffff1660e01b815260040161269d9594939291906134b1565b6000604051808303816000875af11580156126bc573d6000803e3d6000fd5b505050506040513d6000823e601f3d908101601f191682016040526126e491908101906134ed565b979650505050505050565b6000805b835181101561274a57826001600160a01b03168482815181106127185761271861332e565b60200260200101516001600160a01b03160361273857600191505061109b565b8061274281613366565b9150506126f3565b5060009392505050565b6065546001600160a01b031633146113f55760405162461bcd60e51b815260206004820181905260248201527f4f776e61626c653a2063616c6c6572206973206e6f7420746865206f776e657260448201526064016108ff565b60fc8054600180820183557f371f36870d18f32a11fea0f144b021c8b407bb50f8e0267c711123f454b963c090910180546001600160a01b0319166001600160a01b038916908117909155915460008381526101066020908152604080832084845261010783529083208154808701835582855292842090920184905581546001600160a81b0319166101009096029590951784178155426004820181905560058201879055938101899055600281018890556003810187905560fd80549295939493928a919087906128829084906132eb565b925050819055508760fe600082825461289b91906132eb565b9250508190555085898b6001600160a01b03167ff556991011e831bcfac4f406d547e5e32cdd98267efab83935230d5f8d02c446876040516128df91815260200190565b60405180910390a485888b6001600160a01b03167ff556991011e831bcfac4f406d547e5e32cdd98267efab83935230d5f8d02c4468760405161292491815260200190565b60405180910390a45060019998505050505050505050565b611358612754565b7f4910fdfa16fed3260ed0e7147f7cc6da11a60208b5b9406d12a635614ffd91435460ff161561297c5761297783612c30565b505050565b826001600160a01b03166352d1902d6040518163ffffffff1660e01b8152600401602060405180830381865afa9250505080156129d6575060408051601f3d908101601f191682019092526129d391810190613593565b60015b612a395760405162461bcd60e51b815260206004820152602e60248201527f45524331393637557067726164653a206e657720696d706c656d656e7461746960448201526d6f6e206973206e6f74205555505360901b60648201526084016108ff565b60008051602061366b8339815191528114612aa85760405162461bcd60e51b815260206004820152602960248201527f45524331393637557067726164653a20756e737570706f727465642070726f786044820152681a58589b195555525160ba1b60648201526084016108ff565b50612977838383612ccc565b612abc612cf7565b6033805460ff191690557f5db9ee0a495bf2e6ff9c91a7834c1ba4fdd244a5e8aa4e537bd38aeae4b073aa335b6040516001600160a01b03909116815260200160405180910390a1565b606580546001600160a01b038381166001600160a01b0319831681179093556040519116919082907f8be0079c531659141344cd1fd0a4f28419497f9722a3daafe3b4186f6b6457e090600090a35050565b600054610100900460ff16612b7f5760405162461bcd60e51b81526004016108ff906135ac565b6113f5612d40565b600054610100900460ff16612bae5760405162461bcd60e51b81526004016108ff906135ac565b6113f5612d73565b600054610100900460ff166113f55760405162461bcd60e51b81526004016108ff906135ac565b612be5612462565b6033805460ff191660011790557f62e78cea01bee320cd4e420270b5ea74000d11b0c9f74754ebdbfc544b05a258612ae93390565b6000818310612c29578161169f565b5090919050565b6001600160a01b0381163b612c9d5760405162461bcd60e51b815260206004820152602d60248201527f455243313936373a206e657720696d706c656d656e746174696f6e206973206e60448201526c1bdd08184818dbdb9d1c9858dd609a1b60648201526084016108ff565b60008051602061366b83398151915280546001600160a01b0319166001600160a01b0392909216919091179055565b612cd583612da3565b600082511180612ce25750805b1561297757612cf18383612de3565b50505050565b60335460ff166113f55760405162461bcd60e51b815260206004820152601460248201527314185d5cd8589b194e881b9bdd081c185d5cd95960621b60448201526064016108ff565b600054610100900460ff16612d675760405162461bcd60e51b81526004016108ff906135ac565b6033805460ff19169055565b600054610100900460ff16612d9a5760405162461bcd60e51b81526004016108ff906135ac565b6113f533612b06565b612dac81612c30565b6040516001600160a01b038216907fbc7cd75a20ee27fd9adebab32041f755214dbc6bffa90cc0225b39da2e5c2d3b90600090a250565b60606001600160a01b0383163b612e4b5760405162461bcd60e51b815260206004820152602660248201527f416464726573733a2064656c65676174652063616c6c20746f206e6f6e2d636f6044820152651b9d1c9858dd60d21b60648201526084016108ff565b600080846001600160a01b031684604051612e66919061361b565b600060405180830381855af49150503d8060008114612ea1576040519150601f19603f3d011682016040523d82523d6000602084013e612ea6565b606091505b5091509150612274828260405180606001604052806027815260200161368b6027913960608315612ed857508161169f565b61169f8383815115612eed5781518083602001fd5b8060405162461bcd60e51b81526004016108ff9190613637565b600060208284031215612f1957600080fd5b5035919050565b600081518084526020808501945080840160005b83811015612f595781516001600160a01b031687529582019590820190600101612f34565b509495945050505050565b60208152600061169f6020830184612f20565b6001600160a01b038116811461135857600080fd5b60008060408385031215612f9f57600080fd5b8235612faa81612f77565b946020939093013593505050565b600060208284031215612fca57600080fd5b813561169f81612f77565b600080600060608486031215612fea57600080fd5b8335612ff581612f77565b95602085013595506040909401359392505050565b6000806020838503121561301d57600080fd5b823567ffffffffffffffff8082111561303557600080fd5b818501915085601f83011261304957600080fd5b81358181111561305857600080fd5b8660208260051b850101111561306d57600080fd5b60209290920196919550909350505050565b634e487b7160e01b600052604160045260246000fd5b604051601f8201601f1916810167ffffffffffffffff811182821017156130be576130be61307f565b604052919050565b600080604083850312156130d957600080fd5b82356130e481612f77565b915060208381013567ffffffffffffffff8082111561310257600080fd5b818601915086601f83011261311657600080fd5b8135818111156131285761312861307f565b61313a601f8201601f19168501613095565b9150808252878482850101111561315057600080fd5b80848401858401376000848284010152508093505050509250929050565b60008060006060848603121561318357600080fd5b833561318e81612f77565b9250602084013561319e81612f77565b929592945050506040919091013590565b600081518084526020808501945080840160005b83811015612f59578151875295820195908201906001016131c3565b60208152600061169f60208301846131af565b60006020828403121561320457600080fd5b813560ff8116811461169f57600080fd5b8151151581526101608101602083015161323a60208401826001600160a01b03169052565b5060408301516040830152606083015160608301526080830151608083015260a083015160a083015260c083015160c083015260e083015160e083015261010080840151818401525061012080840151818401525061014080840151818401525092915050565b6020815260008251604060208401526132bd60608401826131af565b90506020840151151560408401528091505092915050565b634e487b7160e01b600052601160045260246000fd5b8082018082111561109b5761109b6132d5565b8181038181111561109b5761109b6132d5565b60006020828403121561332357600080fd5b815161169f81612f77565b634e487b7160e01b600052603260045260246000fd5b60006020828403121561335657600080fd5b8151801515811461169f57600080fd5b600060018201613378576133786132d5565b5060010190565b60208082526022908201527f4f6e6c79206f776e65722063616e2063616c6c20746869732066756e6374696f604082015261371760f11b606082015260800190565b808202811582820484141761109b5761109b6132d5565b6000826133f557634e487b7160e01b600052601260045260246000fd5b500490565b6020808252602c908201527f46756e6374696f6e206d7573742062652063616c6c6564207468726f7567682060408201526b19195b1959d85d1958d85b1b60a21b606082015260800190565b6020808252602c908201527f46756e6374696f6e206d7573742062652063616c6c6564207468726f7567682060408201526b6163746976652070726f787960a01b606082015260800190565b600060ff821660ff81036134a8576134a86132d5565b60010192915050565b85815284602082015260a0604082015260006134d060a0830186612f20565b6001600160a01b0394909416606083015250608001529392505050565b6000602080838503121561350057600080fd5b825167ffffffffffffffff8082111561351857600080fd5b818501915085601f83011261352c57600080fd5b81518181111561353e5761353e61307f565b8060051b915061354f848301613095565b818152918301840191848101908884111561356957600080fd5b938501935b838510156135875784518252938501939085019061356e565b98975050505050505050565b6000602082840312156135a557600080fd5b5051919050565b6020808252602b908201527f496e697469616c697a61626c653a20636f6e7472616374206973206e6f74206960408201526a6e697469616c697a696e6760a81b606082015260800190565b60005b838110156136125781810151838201526020016135fa565b50506000910152565b6000825161362d8184602087016135f7565b9190910192915050565b60208152600082518060208401526136568160408501602087016135f7565b601f01601f1916919091016040019291505056fe360894a13ba1a3210667c828492db98dca3e2076cc3735a920a3ca505d382bbc416464726573733a206c6f772d6c6576656c2064656c65676174652063616c6c206661696c6564a2646970667358221220258cb2189c6aa34ed425433bc9a828f0b308709e0aaec82254f5a3e65a5c287464736f6c63430008110033",
  "linkReferences": {},
  "deployedLinkReferences": {}
}