{
  "_format": "hh-sol-artifact-1",
  "contractName": "StakingUpgradeable",
  "sourceName": "contracts/StakingUpgradeable.sol",
  "abi": [
    {
      "anonymous": false,
      "inputs": [
        {
          "indexed": false,
          "internalType": "address",
          "name": "previousAdmin",
          "type": "address"
        },
        {
          "indexed": false,
          "internalType": "address",
          "name": "newAdmin",
          "type": "address"
        }
      ],
      "name": "AdminChanged",
      "type": "event"
    },
    {
      "anonymous": false,
      "inputs": [
        {
          "indexed": true,
          "internalType": "address",
          "name": "beacon",
          "type": "address"
        }
      ],
      "name": "BeaconUpgraded",
      "type": "event"
    },
    {
      "anonymous": false,
      "inputs": [
        {
          "indexed": false,
          "internalType": "uint8",
          "name": "version",
          "type": "uint8"
        }
      ],
      "name": "Initialized",
      "type": "event"
    },
    {
      "anonymous": false,
      "inputs": [
        {
          "indexed": true,
          "internalType": "address",
          "name": "previousOwner",
          "type": "address"
        },
        {
          "indexed": true,
          "internalType": "address",
          "name": "newOwner",
          "type": "address"
        }
      ],
      "name": "OwnershipTransferred",
      "type": "event"
    },
    {
      "anonymous": false,
      "inputs": [
        {
          "indexed": false,
          "internalType": "address",
          "name": "account",
          "type": "address"
        }
      ],
      "name": "Paused",
      "type": "event"
    },
    {
      "anonymous": false,
      "inputs": [
        {
          "indexed": true,
          "internalType": "address",
          "name": "userAddress",
          "type": "address"
        },
        {
          "indexed": false,
          "internalType": "uint256",
          "name": "amount",
          "type": "uint256"
        }
      ],
      "name": "PrincipalClaimed",
      "type": "event"
    },
    {
      "anonymous": false,
      "inputs": [
        {
          "indexed": true,
          "internalType": "address",
          "name": "userAddress",
          "type": "address"
        },
        {
          "indexed": true,
          "internalType": "uint256",
          "name": "valueStaked",
          "type": "uint256"
        },
        {
          "indexed": true,
          "internalType": "uint256",
          "name": "duration",
          "type": "uint256"
        },
        {
          "indexed": false,
          "internalType": "uint256",
          "name": "stakingID",
          "type": "uint256"
        }
      ],
      "name": "Stake",
      "type": "event"
    },
    {
      "anonymous": false,
      "inputs": [
        {
          "indexed": true,
          "internalType": "address",
          "name": "userAddress",
          "type": "address"
        },
        {
          "indexed": true,
          "internalType": "uint256",
          "name": "reward",
          "type": "uint256"
        },
        {
          "indexed": true,
          "internalType": "uint256",
          "name": "stakingID",
          "type": "uint256"
        },
        {
          "indexed": false,
          "internalType": "address",
          "name": "tokenAddress",
          "type": "address"
        }
      ],
      "name": "StakingRewardClaimed",
      "type": "event"
    },
    {
      "anonymous": false,
      "inputs": [
        {
          "indexed": false,
          "internalType": "address",
          "name": "account",
          "type": "address"
        }
      ],
      "name": "Unpaused",
      "type": "event"
    },
    {
      "anonymous": false,
      "inputs": [
        {
          "indexed": true,
          "internalType": "address",
          "name": "userAddress",
          "type": "address"
        },
        {
          "indexed": true,
          "internalType": "uint256",
          "name": "valueStaked",
          "type": "uint256"
        },
        {
          "indexed": true,
          "internalType": "uint256",
          "name": "stakingID",
          "type": "uint256"
        }
      ],
      "name": "Unstake",
      "type": "event"
    },
    {
      "anonymous": false,
      "inputs": [
        {
          "indexed": true,
          "internalType": "address",
          "name": "implementation",
          "type": "address"
        }
      ],
      "name": "Upgraded",
      "type": "event"
    },
    {
      "inputs": [],
      "name": "allStakersList",
      "outputs": [
        {
          "internalType": "uint256",
          "name": "stakersCount",
          "type": "uint256"
        },
        {
          "internalType": "address[]",
          "name": "stakersList",
          "type": "address[]"
        }
      ],
      "stateMutability": "view",
      "type": "function"
    },
    {
      "inputs": [
        {
          "internalType": "uint256",
          "name": "_stakingID",
          "type": "uint256"
        }
      ],
      "name": "claimStakingReward",
      "outputs": [],
      "stateMutability": "nonpayable",
      "type": "function"
    },
    {
      "inputs": [
        {
          "internalType": "address",
          "name": "_userAddress",
          "type": "address"
        }
      ],
      "name": "deleteAccount",
      "outputs": [],
      "stateMutability": "nonpayable",
      "type": "function"
    },
    {
      "inputs": [
        {
          "internalType": "address[]",
          "name": "_userAddress",
          "type": "address[]"
        }
      ],
      "name": "disableAccounts",
      "outputs": [],
      "stateMutability": "nonpayable",
      "type": "function"
    },
    {
      "inputs": [
        {
          "internalType": "address[]",
          "name": "_userAddress",
          "type": "address[]"
        }
      ],
      "name": "enableAccounts",
      "outputs": [],
      "stateMutability": "nonpayable",
      "type": "function"
    },
    {
      "inputs": [],
      "name": "getDisabledAccountsList",
      "outputs": [
        {
          "internalType": "address[]",
          "name": "",
          "type": "address[]"
        }
      ],
      "stateMutability": "view",
      "type": "function"
    },
    {
      "inputs": [],
      "name": "getStakingCappings",
      "outputs": [
        {
          "internalType": "uint256",
          "name": "minStakingValue",
          "type": "uint256"
        },
        {
          "internalType": "uint256",
          "name": "stakingRewardRate",
          "type": "uint256"
        },
        {
          "internalType": "uint256",
          "name": "stakingDuration",
          "type": "uint256"
        },
        {
          "internalType": "uint256",
          "name": "stakingRewardClaimTimeLimit",
          "type": "uint256"
        }
      ],
      "stateMutability": "view",
      "type": "function"
    },
    {
      "inputs": [],
      "name": "getStakingReleaseRewardRate",
      "outputs": [
        {
          "internalType": "uint8",
          "name": "",
          "type": "uint8"
        }
      ],
      "stateMutability": "view",
      "type": "function"
    },
    {
      "inputs": [
        {
          "internalType": "uint256",
          "name": "_stakingID",
          "type": "uint256"
        }
      ],
      "name": "getStakingReward",
      "outputs": [
        {
          "internalType": "uint256",
          "name": "",
          "type": "uint256"
        }
      ],
      "stateMutability": "view",
      "type": "function"
    },
    {
      "inputs": [],
      "name": "getStakingRewardClaimTimeLimit",
      "outputs": [
        {
          "internalType": "uint256",
          "name": "",
          "type": "uint256"
        }
      ],
      "stateMutability": "view",
      "type": "function"
    },
    {
      "inputs": [
        {
          "internalType": "uint256",
          "name": "_stakingID",
          "type": "uint256"
        }
      ],
      "name": "getStakingRewardClaimTimeRemaining",
      "outputs": [
        {
          "internalType": "uint256",
          "name": "",
          "type": "uint256"
        }
      ],
      "stateMutability": "view",
      "type": "function"
    },
    {
      "inputs": [
        {
          "internalType": "uint256",
          "name": "_stakingID",
          "type": "uint256"
        }
      ],
      "name": "getStakingTimeRemaining",
      "outputs": [
        {
          "internalType": "uint256",
          "name": "",
          "type": "uint256"
        }
      ],
      "stateMutability": "view",
      "type": "function"
    },
    {
      "inputs": [],
      "name": "getTotalStakingRewardDistributed",
      "outputs": [
        {
          "internalType": "uint256",
          "name": "_tokenRewards",
          "type": "uint256"
        },
        {
          "internalType": "uint256",
          "name": "_ansudRewards",
          "type": "uint256"
        }
      ],
      "stateMutability": "view",
      "type": "function"
    },
    {
      "inputs": [],
      "name": "getTotalValueStaked",
      "outputs": [
        {
          "internalType": "uint256",
          "name": "token",
          "type": "uint256"
        },
        {
          "internalType": "uint256",
          "name": "anusd",
          "type": "uint256"
        }
      ],
      "stateMutability": "view",
      "type": "function"
    },
    {
      "inputs": [
        {
          "internalType": "address",
          "name": "_userAddress",
          "type": "address"
        }
      ],
      "name": "getUserAllStakingsRewards",
      "outputs": [
        {
          "internalType": "uint256",
          "name": "",
          "type": "uint256"
        }
      ],
      "stateMutability": "view",
      "type": "function"
    },
    {
      "inputs": [
        {
          "internalType": "address",
          "name": "_userAddress",
          "type": "address"
        }
      ],
      "name": "getUserStakingIDs",
      "outputs": [
        {
          "internalType": "uint256[]",
          "name": "",
          "type": "uint256[]"
        }
      ],
      "stateMutability": "view",
      "type": "function"
    },
    {
      "inputs": [
        {
          "internalType": "address",
          "name": "_userAddress",
          "type": "address"
        }
      ],
      "name": "getUserTotalPrincipalClaimed",
      "outputs": [
        {
          "internalType": "uint256",
          "name": "",
          "type": "uint256"
        }
      ],
      "stateMutability": "view",
      "type": "function"
    },
    {
      "inputs": [
        {
          "internalType": "address",
          "name": "_userAddress",
          "type": "address"
        }
      ],
      "name": "getUserTotalRewardClaimedANUSD",
      "outputs": [
        {
          "internalType": "uint256",
          "name": "totalRewardClaim",
          "type": "uint256"
        }
      ],
      "stateMutability": "view",
      "type": "function"
    },
    {
      "inputs": [
        {
          "internalType": "address",
          "name": "_userAddress",
          "type": "address"
        }
      ],
      "name": "getUserTotalRewardClaimedToken",
      "outputs": [
        {
          "internalType": "uint256",
          "name": "totalRewardClaim",
          "type": "uint256"
        }
      ],
      "stateMutability": "view",
      "type": "function"
    },
    {
      "inputs": [
        {
          "internalType": "address",
          "name": "_userAddress",
          "type": "address"
        }
      ],
      "name": "getUserTotalValueStaked",
      "outputs": [
        {
          "internalType": "uint256",
          "name": "token",
          "type": "uint256"
        },
        {
          "internalType": "uint256",
          "name": "anusd",
          "type": "uint256"
        }
      ],
      "stateMutability": "view",
      "type": "function"
    },
    {
      "inputs": [],
      "name": "initialize",
      "outputs": [],
      "stateMutability": "nonpayable",
      "type": "function"
    },
    {
      "inputs": [
        {
          "internalType": "address",
          "name": "_userAddress",
          "type": "address"
        }
      ],
      "name": "isAccountDisabled",
      "outputs": [
        {
          "internalType": "bool",
          "name": "",
          "type": "bool"
        }
      ],
      "stateMutability": "view",
      "type": "function"
    },
    {
      "inputs": [
        {
          "internalType": "address",
          "name": "_userAddress",
          "type": "address"
        }
      ],
      "name": "isStaked",
      "outputs": [
        {
          "internalType": "bool",
          "name": "",
          "type": "bool"
        }
      ],
      "stateMutability": "view",
      "type": "function"
    },
    {
      "inputs": [],
      "name": "owner",
      "outputs": [
        {
          "internalType": "address",
          "name": "",
          "type": "address"
        }
      ],
      "stateMutability": "view",
      "type": "function"
    },
    {
      "inputs": [],
      "name": "pause",
      "outputs": [],
      "stateMutability": "nonpayable",
      "type": "function"
    },
    {
      "inputs": [],
      "name": "paused",
      "outputs": [
        {
          "internalType": "bool",
          "name": "",
          "type": "bool"
        }
      ],
      "stateMutability": "view",
      "type": "function"
    },
    {
      "inputs": [],
      "name": "proxiableUUID",
      "outputs": [
        {
          "internalType": "bytes32",
          "name": "",
          "type": "bytes32"
        }
      ],
      "stateMutability": "view",
      "type": "function"
    },
    {
      "inputs": [],
      "name": "renounceOwnership",
      "outputs": [],
      "stateMutability": "nonpayable",
      "type": "function"
    },
    {
      "inputs": [
        {
          "internalType": "uint256",
          "name": "_value",
          "type": "uint256"
        }
      ],
      "name": "setMinStakingValue",
      "outputs": [
        {
          "internalType": "uint256",
          "name": "",
          "type": "uint256"
        }
      ],
      "stateMutability": "nonpayable",
      "type": "function"
    },
    {
      "inputs": [
        {
          "internalType": "uint256",
          "name": "_valueInDays",
          "type": "uint256"
        }
      ],
      "name": "setStakingDuration",
      "outputs": [],
      "stateMutability": "nonpayable",
      "type": "function"
    },
    {
      "inputs": [
        {
          "internalType": "uint8",
          "name": "_valueInDecimals",
          "type": "uint8"
        }
      ],
      "name": "setStakingReleaseRewardRate",
      "outputs": [],
      "stateMutability": "nonpayable",
      "type": "function"
    },
    {
      "inputs": [
        {
          "internalType": "uint256",
          "name": "_valueInDays",
          "type": "uint256"
        }
      ],
      "name": "setStakingRewardClaimTimeLimity",
      "outputs": [],
      "stateMutability": "nonpayable",
      "type": "function"
    },
    {
      "inputs": [
        {
          "internalType": "uint256",
          "name": "_valueInPer",
          "type": "uint256"
        }
      ],
      "name": "setStakingRewardRate",
      "outputs": [],
      "stateMutability": "nonpayable",
      "type": "function"
    },
    {
      "inputs": [
        {
          "internalType": "address",
          "name": "_userAddress",
          "type": "address"
        },
        {
          "internalType": "uint256",
          "name": "_valueInToken",
          "type": "uint256"
        },
        {
          "internalType": "uint256",
          "name": "_valueInANUSD",
          "type": "uint256"
        }
      ],
      "name": "stakeByAdmin",
      "outputs": [],
      "stateMutability": "nonpayable",
      "type": "function"
    },
    {
      "inputs": [
        {
          "internalType": "uint256",
          "name": "_stakingID",
          "type": "uint256"
        }
      ],
      "name": "stakeInfoMap",
      "outputs": [
        {
          "components": [
            {
              "internalType": "bool",
              "name": "isStaked",
              "type": "bool"
            },
            {
              "internalType": "address",
              "name": "owner",
              "type": "address"
            },
            {
              "internalType": "uint256",
              "name": "valueInToken",
              "type": "uint256"
            },
            {
              "internalType": "uint256",
              "name": "valueInANUSD",
              "type": "uint256"
            },
            {
              "internalType": "uint256",
              "name": "rewardRate",
              "type": "uint256"
            },
            {
              "internalType": "uint256",
              "name": "startTime",
              "type": "uint256"
            },
            {
              "internalType": "uint256",
              "name": "duration",
              "type": "uint256"
            },
            {
              "internalType": "uint256",
              "name": "rewardClaimedToken",
              "type": "uint256"
            },
            {
              "internalType": "uint256",
              "name": "rewardClaimedANUSD",
              "type": "uint256"
            },
            {
              "internalType": "uint256",
              "name": "principalClaimed",
              "type": "uint256"
            },
            {
              "internalType": "uint256",
              "name": "lastTimeRewardClaimed",
              "type": "uint256"
            }
          ],
          "internalType": "struct StakingUpgradeable.StakeInfo",
          "name": "",
          "type": "tuple"
        }
      ],
      "stateMutability": "view",
      "type": "function"
    },
    {
      "inputs": [
        {
          "internalType": "address",
          "name": "_userAddress",
          "type": "address"
        },
        {
          "internalType": "uint256",
          "name": "_valueInToken",
          "type": "uint256"
        }
      ],
      "name": "stakeTopUpByAdmin",
      "outputs": [],
      "stateMutability": "nonpayable",
      "type": "function"
    },
    {
      "inputs": [
        {
          "internalType": "address",
          "name": "newOwner",
          "type": "address"
        }
      ],
      "name": "transferOwnership",
      "outputs": [],
      "stateMutability": "nonpayable",
      "type": "function"
    },
    {
      "inputs": [],
      "name": "unpause",
      "outputs": [],
      "stateMutability": "nonpayable",
      "type": "function"
    },
    {
      "inputs": [
        {
          "internalType": "address",
          "name": "newImplementation",
          "type": "address"
        }
      ],
      "name": "upgradeTo",
      "outputs": [],
      "stateMutability": "nonpayable",
      "type": "function"
    },
    {
      "inputs": [
        {
          "internalType": "address",
          "name": "newImplementation",
          "type": "address"
        },
        {
          "internalType": "bytes",
          "name": "data",
          "type": "bytes"
        }
      ],
      "name": "upgradeToAndCall",
      "outputs": [],
      "stateMutability": "payable",
      "type": "function"
    },
    {
      "inputs": [
        {
          "internalType": "address",
          "name": "_userAddress",
          "type": "address"
        }
      ],
      "name": "userAccountMap",
      "outputs": [
        {
          "components": [
            {
              "internalType": "uint256[]",
              "name": "stakingID",
              "type": "uint256[]"
            },
            {
              "internalType": "bool",
              "name": "isDisabled",
              "type": "bool"
            }
          ],
          "internalType": "struct StakingUpgradeable.Account",
          "name": "",
          "type": "tuple"
        }
      ],
      "stateMutability": "view",
      "type": "function"
    },
    {
      "inputs": [
        {
          "internalType": "address",
          "name": "_receiver",
          "type": "address"
        },
        {
          "internalType": "uint256",
          "name": "_value",
          "type": "uint256"
        }
      ],
      "name": "withdrawNativeFunds",
      "outputs": [
        {
          "internalType": "bool",
          "name": "",
          "type": "bool"
        }
      ],
      "stateMutability": "nonpayable",
      "type": "function"
    },
    {
      "inputs": [
        {
          "internalType": "address",
          "name": "_tokenAddress",
          "type": "address"
        },
        {
          "internalType": "address",
          "name": "_receiver",
          "type": "address"
        },
        {
          "internalType": "uint256",
          "name": "_value",
          "type": "uint256"
        }
      ],
      "name": "withdrawTokens",
      "outputs": [
        {
          "internalType": "bool",
          "name": "",
          "type": "bool"
        }
      ],
      "stateMutability": "nonpayable",
      "type": "function"
    },
    {
      "stateMutability": "payable",
      "type": "receive"
    }
  ],
  "bytecode": "0x60a06040523060805234801561001457600080fd5b5060805161346961004c6000396000818161127f015281816112bf0152818161143501528181611475015261150801526134696000f3fe6080604052600436106102605760003560e01c806366e5e57011610144578063a40b5891116100b6578063c06a53881161007a578063c06a53881461073b578063d596fe7f1461075e578063d8ba90b71461077e578063deede6541461079e578063e3a51f58146107b6578063f2fde38b146107f357600080fd5b8063a40b589114610664578063a7566b75146106a1578063abfe35ad146106ce578063b7d68519146106ee578063ba4f678e1461070e57600080fd5b80637ce574bf116101085780637ce574bf146105b85780638129fc1c146105d25780638456cb59146105e75780638da5cb5b146105fc578063900a253b146106245780639c3fe28a1461064457600080fd5b806366e5e570146105165780636a8ca691146105365780636f51b20b14610556578063715018a614610583578063736e9b941461059857600080fd5b80633f4ba83a116101dd5780635c975abb116101a15780635c975abb146104495780635cbfd021146104615780635e35359e146104815780635f869714146104a15780636177fd18146104d6578063628b372b146104f657600080fd5b80633f4ba83a146103cc5780634c1b64cb146103e15780634f1ef2861461040157806352d1902d1461041457806353bdadea1461042957600080fd5b806326792aca1161022457806326792aca1461031c57806328796bbd1461034c578063310c9b201461036c5780633659cfe61461038c5780633b09098f146103ac57600080fd5b806308141e4e1461026c5780631e6f8fe71461029f57806322ae497e146102c2578063239cd4a4146102d8578063260cb4e9146102fa57600080fd5b3661026757005b600080fd5b34801561027857600080fd5b5061028c610287366004612c70565b610813565b6040519081526020015b60405180910390f35b3480156102ab57600080fd5b506101085460405160ff9091168152602001610296565b3480156102ce57600080fd5b506101055461028c565b3480156102e457600080fd5b506102f86102f3366004612c70565b61088a565b005b34801561030657600080fd5b5061030f610ed2565b6040516102969190612ccd565b34801561032857600080fd5b5061033c610337366004612cf5565b61104e565b6040519015158152602001610296565b34801561035857600080fd5b5061028c610367366004612d21565b61109a565b34801561037857600080fd5b506102f8610387366004612d3e565b611173565b34801561039857600080fd5b506102f86103a7366004612d21565b611275565b3480156103b857600080fd5b506102f86103c7366004612d73565b611354565b3480156103d857600080fd5b506102f86113de565b3480156103ed57600080fd5b506102f86103fc366004612d21565b6113f0565b6102f861040f366004612e2f565b61142b565b34801561042057600080fd5b5061028c6114fb565b34801561043557600080fd5b506102f8610444366004612d73565b6115ae565b34801561045557600080fd5b5060335460ff1661033c565b34801561046d57600080fd5b506102f861047c366004612c70565b611634565b34801561048d57600080fd5b5061033c61049c366004612ed7565b611650565b3480156104ad57600080fd5b506104c16104bc366004612d21565b6116da565b60408051928352602083019190915201610296565b3480156104e257600080fd5b5061033c6104f1366004612d21565b6117d6565b34801561050257600080fd5b5061028c610511366004612d21565b6118b3565b34801561052257600080fd5b5061028c610531366004612d21565b611990565b34801561054257600080fd5b506102f8610551366004612c70565b611a60565b34801561056257600080fd5b50610576610571366004612d21565b611a7c565b6040516102969190612f48565b34801561058f57600080fd5b506102f8611ae9565b3480156105a457600080fd5b506102f86105b3366004612f5b565b611afb565b3480156105c457600080fd5b5061010054610101546104c1565b3480156105de57600080fd5b506102f8611b1a565b3480156105f357600080fd5b506102f8611c84565b34801561060857600080fd5b506065546040516001600160a01b039091168152602001610296565b34801561063057600080fd5b506102f861063f366004612cf5565b611c94565b34801561065057600080fd5b5061028c61065f366004612d21565b611d79565b34801561067057600080fd5b5061033c61067f366004612d21565b6001600160a01b03166000908152610106602052604090206001015460ff1690565b3480156106ad57600080fd5b506106c16106bc366004612c70565b611e81565b6040516102969190612f7e565b3480156106da57600080fd5b5061028c6106e9366004612c70565b611f89565b3480156106fa57600080fd5b506102f8610709366004612c70565b611f94565b34801561071a57600080fd5b5061072e610729366004612d21565b611fa2565b604051610296919061300a565b34801561074757600080fd5b5061075061203a565b60405161029692919061303e565b34801561076a57600080fd5b5061028c610779366004612c70565b6120a3565b34801561078a57600080fd5b5061028c610799366004612c70565b6120b7565b3480156107aa57600080fd5b5060fd5460fe546104c1565b3480156107c257600080fd5b5061010254610103546101045461010554604080519485526020850193909352918301526060820152608001610296565b3480156107ff57600080fd5b506102f861080e366004612d21565b61211c565b6000818152610107602052604081206009810154429190156108765781610105548260090154610843919061306d565b1061086b578161010554826009015461085c919061306d565b6108669190613080565b61086e565b60005b949350505050565b81610105548260040154610843919061306d565b610892612192565b600061089d826121d8565b905060006108aa8361222e565b9050600082116109015760405162461bcd60e51b815260206004820152601c60248201527f596f752068617665206e6f207374616b696e67206f7220656e6465640000000060448201526064015b60405180910390fd5b60fb5460008481526101076020908152604080832033808552610106909352922082546001600160a01b0394851694929392429161010090041684146109995760405162461bcd60e51b815260206004820152602760248201527f536f727279207374616b696e6720696420646f656e27742062656c6f6e6773206044820152663a37903cb7ba9760c91b60648201526084016108f8565b600182015460ff1615610a065760405162461bcd60e51b815260206004820152602f60248201527f596f7572206163636f756e742069732064697361626c65642e20506c6561736560448201526e1031b7b73a30b1ba1030b236b4b71760891b60648201526084016108f8565b42610105548460090154610a1a919061306d565b10610a795760405162461bcd60e51b815260206004820152602960248201527f596f752063616e6e6f7420636c61696d20726577617264206265666f7265207460448201526834b6b2b634b6b4ba1760b91b60648201526084016108f8565b6000610baa866001600160a01b031663b70cc4c16040518163ffffffff1660e01b8152600401602060405180830381865afa158015610abc573d6000803e3d6000fd5b505050506040513d601f19601f82011682018060405250810190610ae09190613093565b89886001600160a01b03166355a373d66040518163ffffffff1660e01b8152600401602060405180830381865afa158015610b1f573d6000803e3d6000fd5b505050506040513d601f19601f82011682018060405250810190610b439190613093565b896001600160a01b0316638290c4a66040518163ffffffff1660e01b8152600401602060405180830381865afa158015610b81573d6000803e3d6000fd5b505050506040513d601f19601f82011682018060405250810190610ba59190613093565b61229c565b905086846008016000828254610bc0919061306d565b925050819055508660ff6000828254610bd9919061306d565b9250508190555080600181518110610bf357610bf36130b0565b6020026020010151846006016000828254610c0e919061306d565b9250508190555080600081518110610c2857610c286130b0565b6020026020010151846007016000828254610c43919061306d565b909155505060098401829055805181906001908110610c6457610c646130b0565b60200260200101516101006000828254610c7e919061306d565b9250508190555080600081518110610c9857610c986130b0565b60200260200101516101016000828254610cb2919061306d565b92505081905550856001600160a01b03166355a373d66040518163ffffffff1660e01b8152600401602060405180830381865afa158015610cf7573d6000803e3d6000fd5b505050506040513d601f19601f82011682018060405250810190610d1b9190613093565b6001600160a01b031663a9059cbb868984600181518110610d3e57610d3e6130b0565b6020026020010151610d50919061306d565b6040516001600160e01b031960e085901b1681526001600160a01b03909216600483015260248201526044016020604051808303816000875af1158015610d9b573d6000803e3d6000fd5b505050506040513d601f19601f82011682018060405250810190610dbf91906130c6565b50846001600160a01b03167f2e6100b89b43378c0aeb062f2df0cfaa63e4437abab6844b441f8e47cb31bec388604051610dfb91815260200190565b60405180910390a28881600181518110610e1757610e176130b0565b6020026020010151866001600160a01b03167ffec605188cf64597b9aa9cf424a9bba4a84ffb09f9f66c932d6efa1b96fcc7e4896001600160a01b03166355a373d66040518163ffffffff1660e01b8152600401602060405180830381865afa158015610e88573d6000803e3d6000fd5b505050506040513d601f19601f82011682018060405250810190610eac9190613093565b6040516001600160a01b03909116815260200160405180910390a4505050505050505050565b6000808052610106602090815260fc80546040805182850281018501909152818152606094937f36b574eb542e18a2932b42c3f7b99e0cccde75c2d7e80ac19800931af8e17fa29385939091830182828015610f5757602002820191906000526020600020905b81546001600160a01b03168152600190910190602001808311610f39575b5050505050905060008151905060008167ffffffffffffffff811115610f7f57610f7f612de8565b604051908082528060200260200182016040528015610fa8578160200160208202803683370190505b5090506000805b8381101561104257848181518110610fc957610fc96130b0565b60200260200101519650610fdd838861241f565b15156001146110305760018087015460ff1615159003611030578683838151811061100a5761100a6130b0565b6001600160a01b03909216602092830291909101909101528161102c816130e8565b9250505b8061103a816130e8565b915050610faf565b50909695505050505050565b6000611058612484565b6040516001600160a01b0384169083156108fc029084906000818181858888f1935050505015801561108e573d6000803e3d6000fd5b50600190505b92915050565b6001600160a01b0381166000908152610106602090815260408083208054825181850281018501909352808352909284929184918301828280156110fd57602002820191906000526020600020905b8154815260200190600101908083116110e9575b505083519394506000925050505b8181101561116a576000610107600085848151811061112c5761112c6130b0565b602002602001015181526020019081526020016000209050806007015486611154919061306d565b9550508080611162906130e8565b91505061110b565b50505050919050565b60fb5433906001600160a01b03166111936065546001600160a01b031690565b6001600160a01b0316826001600160a01b031614806112245750806001600160a01b03166363d9df856040518163ffffffff1660e01b8152600401602060405180830381865afa1580156111eb573d6000803e3d6000fd5b505050506040513d601f19601f8201168201806040525081019061120f9190613093565b6001600160a01b0316826001600160a01b0316145b6112405760405162461bcd60e51b81526004016108f890613101565b61126d8585606461010354876112569190613143565b611260919061315a565b61010354610104546124de565b505050505050565b6001600160a01b037f00000000000000000000000000000000000000000000000000000000000000001630036112bd5760405162461bcd60e51b81526004016108f89061317c565b7f00000000000000000000000000000000000000000000000000000000000000006001600160a01b03166113066000805160206133ed833981519152546001600160a01b031690565b6001600160a01b03161461132c5760405162461bcd60e51b81526004016108f8906131c8565b61133581612673565b604080516000808252602082019092526113519183919061267b565b50565b61135c612484565b60008080526101066020527f36b574eb542e18a2932b42c3f7b99e0cccde75c2d7e80ac19800931af8e17fa282825b8181101561126d578585828181106113a5576113a56130b0565b90506020020160208101906113ba9190612d21565b6001848101805460ff191690911790559350806113d6816130e8565b91505061138b565b6113e6612484565b6113ee6127eb565b565b6113f8612484565b6001600160a01b0381166000908152610106602052604081209061141c8282612c3e565b50600101805460ff1916905550565b6001600160a01b037f00000000000000000000000000000000000000000000000000000000000000001630036114735760405162461bcd60e51b81526004016108f89061317c565b7f00000000000000000000000000000000000000000000000000000000000000006001600160a01b03166114bc6000805160206133ed833981519152546001600160a01b031690565b6001600160a01b0316146114e25760405162461bcd60e51b81526004016108f8906131c8565b6114eb82612673565b6114f78282600161267b565b5050565b6000306001600160a01b037f0000000000000000000000000000000000000000000000000000000000000000161461159b5760405162461bcd60e51b815260206004820152603860248201527f555550535570677261646561626c653a206d757374206e6f742062652063616c60448201527f6c6564207468726f7567682064656c656761746563616c6c000000000000000060648201526084016108f8565b506000805160206133ed83398151915290565b6115b6612484565b60008080526101066020527f36b574eb542e18a2932b42c3f7b99e0cccde75c2d7e80ac19800931af8e17fa282825b8181101561126d578585828181106115ff576115ff6130b0565b90506020020160208101906116149190612d21565b60018401805460ff1916905593508061162c816130e8565b9150506115e5565b61163c612484565b6116498162015180613143565b6101055550565b600061165a612484565b60405163a9059cbb60e01b81526001600160a01b0384811660048301526024820184905285169063a9059cbb906044016020604051808303816000875af11580156116a9573d6000803e3d6000fd5b505050506040513d601f19601f820116820180604052508101906116cd91906130c6565b50600190505b9392505050565b6001600160a01b03811660009081526101066020908152604080832080548251818502810185019093528083528493919284929091849183018282801561174057602002820191906000526020600020905b81548152602001906001019080831161172c575b505083519394506000925050505b818110156117cd576000610107600085848151811061176f5761176f6130b0565b6020908102919091018101518252810191909152604001600020805490915060ff16156117ba5760018101546117a5908861306d565b96508060020154866117b7919061306d565b95505b50806117c5816130e8565b91505061174e565b50505050915091565b6001600160a01b03811660009081526101066020908152604080832080548251818502810185019093528083529092849291849183018282801561183957602002820191906000526020600020905b815481526020019060010190808311611825575b505083519394506000925050505b818110156118a7576101076000848381518110611866576118666130b0565b60209081029190910181015182528101919091526040016000205460ff16156118955750600195945050505050565b8061189f816130e8565b915050611847565b50600095945050505050565b6001600160a01b03811660009081526101066020908152604080832080548251818502810185019093528083529092849291849183018282801561191657602002820191906000526020600020905b815481526020019060010190808311611902575b505050505090506000815190506000805b828110156119865760006101076000868481518110611948576119486130b0565b602002602001015181526020019081526020016000209050806008015483611970919061306d565b925050808061197e906130e8565b915050611927565b5095945050505050565b6001600160a01b0381166000908152610106602090815260408083208054825181850281018501909352808352909284929184918301828280156119f357602002820191906000526020600020905b8154815260200190600101908083116119df575b505083519394506000925050505b8181101561116a5760006101076000858481518110611a2257611a226130b0565b602002602001015181526020019081526020016000209050806006015486611a4a919061306d565b9550508080611a58906130e8565b915050611a01565b611a68612484565b611a758162015180613143565b6101045550565b6001600160a01b03811660009081526101066020908152604091829020805483518184028101840190945280845260609392830182828015611add57602002820191906000526020600020905b815481526020019060010190808311611ac9575b50505050509050919050565b611af1612484565b6113ee600061283d565b611b03612484565b610108805460ff191660ff92909216919091179055565b600054610100900460ff1615808015611b3a5750600054600160ff909116105b80611b545750303b158015611b54575060005460ff166001145b611bb75760405162461bcd60e51b815260206004820152602e60248201527f496e697469616c697a61626c653a20636f6e747261637420697320616c72656160448201526d191e481a5b9a5d1a585b1a5e995960921b60648201526084016108f8565b6000805460ff191660011790558015611bda576000805461ff0019166101001790555b60fb80546001600160a01b0319167377daafc7411c911b869c71bf70fe36cce507845d179055678ac7230489e80000610102556096610103556303e9f4006101045562278d0061010555611c2c61288f565b611c346128be565b611c3c6128ed565b8015611351576000805461ff0019169055604051600181527f7f26b83ff96e1f2b6a682f133852f6798a09c465da95921460cefb38474024989060200160405180910390a150565b611c8c612484565b6113ee612914565b60fb5433906001600160a01b0316611cb46065546001600160a01b031690565b6001600160a01b0316826001600160a01b03161480611d455750806001600160a01b03166363d9df856040518163ffffffff1660e01b8152600401602060405180830381865afa158015611d0c573d6000803e3d6000fd5b505050506040513d601f19601f82011682018060405250810190611d309190613093565b6001600160a01b0316826001600160a01b0316145b611d615760405162461bcd60e51b81526004016108f890613101565b611d728484600080610104546124de565b5050505050565b6001600160a01b03811660009081526101066020908152604080832080548251818502810185019093528083528493830182828015611dd757602002820191906000526020600020905b815481526020019060010190808311611dc3575b505050505090506000815190506000805b828160ff161015611e78576101076000858360ff1681518110611e0d57611e0d6130b0565b60209081029190910181015182528101919091526040016000205460ff161515600103611e6657611e59848260ff1681518110611e4c57611e4c6130b0565b60200260200101516121d8565b611e63908361306d565b91505b80611e7081613214565b915050611de8565b50949350505050565b611ee960405180610160016040528060001515815260200160006001600160a01b031681526020016000815260200160008152602001600081526020016000815260200160008152602001600081526020016000815260200160008152602001600081525090565b5060009081526101076020908152604091829020825161016081018452815460ff8116151582526001600160a01b036101009182900416938201939093526001820154938101939093526002810154606084015260038101546080840152600481015460a0840152600581015460c0840152600681015460e084015260078101549183019190915260088101546101208301526009015461014082015290565b6000611094826121d8565b611f9c612484565b61010355565b6040805180820182526060808252600060208084018290526001600160a01b03861682526101068152908490208451815492830281018401865294850182815293949390928492849184018282801561201a57602002820191906000526020600020905b815481526020019060010190808311612006575b50505091835250506001919091015460ff16151560209091015292915050565b6000606060fc80548060200260200160405190810160405280929190818152602001828054801561209457602002820191906000526020600020905b81546001600160a01b03168152600190910190602001808311612076575b50505050509050805191509091565b60006120ad612484565b5061010281905590565b6000818152610107602052604081206005810154600482015442929184916120df919061306d565b9050808310156121115782826005015483600401546120fe919061306d565b6121089190613080565b95945050505050565b506000949350505050565b612124612484565b6001600160a01b0381166121895760405162461bcd60e51b815260206004820152602660248201527f4f776e61626c653a206e6577206f776e657220697320746865207a65726f206160448201526564647265737360d01b60648201526084016108f8565b6113518161283d565b60335460ff16156113ee5760405162461bcd60e51b815260206004820152601060248201526f14185d5cd8589b194e881c185d5cd95960821b60448201526064016108f8565b600081815261010760205260408120600481015442919083906121fb9084613080565b90508160070154612210828460050154612951565b83600501548460020154612224919061315a565b6120fe9190613143565b600081815261010760205260408120600481015442919083906122519084613080565b9050600082600501548360010154612269919061315a565b9050826008015461227e838560050154612951565b6122889083613143565b6122929190613080565b9695505050505050565b6040805160028082526060808301845292600092919060208301908036833701905050905085816000815181106122d5576122d56130b0565b60200260200101906001600160a01b031690816001600160a01b0316815250508381600181518110612309576123096130b0565b6001600160a01b03928316602091820292909201015260405163095ea7b360e01b81528482166004820152602481018790529087169063095ea7b3906044016020604051808303816000875af1158015612367573d6000803e3d6000fd5b505050506040513d601f19601f8201168201806040525081019061238b91906130c6565b5060006001600160a01b0384166338ed173987600185306123ad42606461306d565b6040518663ffffffff1660e01b81526004016123cd959493929190613233565b6000604051808303816000875af11580156123ec573d6000803e3d6000fd5b505050506040513d6000823e601f3d908101601f19168201604052612414919081019061326f565b979650505050505050565b6000805b835181101561247a57826001600160a01b0316848281518110612448576124486130b0565b60200260200101516001600160a01b031603612468576001915050611094565b80612472816130e8565b915050612423565b5060009392505050565b6065546001600160a01b031633146113ee5760405162461bcd60e51b815260206004820181905260248201527f4f776e61626c653a2063616c6c6572206973206e6f7420746865206f776e657260448201526064016108f8565b60fc8054600180820183557f371f36870d18f32a11fea0f144b021c8b407bb50f8e0267c711123f454b963c090910180546001600160a01b0319166001600160a01b038916908117909155915460008381526101066020908152604080832084845261010783529083208154808701835582855292842090920184905581546001600160a81b031916610100909602959095178417815542600482018190556005820187905593810189905560028101889055600381018790556009810184905560fd80549295939493928a919087906125b990849061306d565b925050819055508760fe60008282546125d2919061306d565b9250508190555085898b6001600160a01b03167ff556991011e831bcfac4f406d547e5e32cdd98267efab83935230d5f8d02c4468760405161261691815260200190565b60405180910390a485888b6001600160a01b03167ff556991011e831bcfac4f406d547e5e32cdd98267efab83935230d5f8d02c4468760405161265b91815260200190565b60405180910390a45060019998505050505050505050565b611351612484565b7f4910fdfa16fed3260ed0e7147f7cc6da11a60208b5b9406d12a635614ffd91435460ff16156126b3576126ae83612967565b505050565b826001600160a01b03166352d1902d6040518163ffffffff1660e01b8152600401602060405180830381865afa92505050801561270d575060408051601f3d908101601f1916820190925261270a91810190613315565b60015b6127705760405162461bcd60e51b815260206004820152602e60248201527f45524331393637557067726164653a206e657720696d706c656d656e7461746960448201526d6f6e206973206e6f74205555505360901b60648201526084016108f8565b6000805160206133ed83398151915281146127df5760405162461bcd60e51b815260206004820152602960248201527f45524331393637557067726164653a20756e737570706f727465642070726f786044820152681a58589b195555525160ba1b60648201526084016108f8565b506126ae838383612a03565b6127f3612a2e565b6033805460ff191690557f5db9ee0a495bf2e6ff9c91a7834c1ba4fdd244a5e8aa4e537bd38aeae4b073aa335b6040516001600160a01b03909116815260200160405180910390a1565b606580546001600160a01b038381166001600160a01b0319831681179093556040519116919082907f8be0079c531659141344cd1fd0a4f28419497f9722a3daafe3b4186f6b6457e090600090a35050565b600054610100900460ff166128b65760405162461bcd60e51b81526004016108f89061332e565b6113ee612a77565b600054610100900460ff166128e55760405162461bcd60e51b81526004016108f89061332e565b6113ee612aaa565b600054610100900460ff166113ee5760405162461bcd60e51b81526004016108f89061332e565b61291c612192565b6033805460ff191660011790557f62e78cea01bee320cd4e420270b5ea74000d11b0c9f74754ebdbfc544b05a2586128203390565b600081831061296057816116d3565b5090919050565b6001600160a01b0381163b6129d45760405162461bcd60e51b815260206004820152602d60248201527f455243313936373a206e657720696d706c656d656e746174696f6e206973206e60448201526c1bdd08184818dbdb9d1c9858dd609a1b60648201526084016108f8565b6000805160206133ed83398151915280546001600160a01b0319166001600160a01b0392909216919091179055565b612a0c83612ada565b600082511180612a195750805b156126ae57612a288383612b1a565b50505050565b60335460ff166113ee5760405162461bcd60e51b815260206004820152601460248201527314185d5cd8589b194e881b9bdd081c185d5cd95960621b60448201526064016108f8565b600054610100900460ff16612a9e5760405162461bcd60e51b81526004016108f89061332e565b6033805460ff19169055565b600054610100900460ff16612ad15760405162461bcd60e51b81526004016108f89061332e565b6113ee3361283d565b612ae381612967565b6040516001600160a01b038216907fbc7cd75a20ee27fd9adebab32041f755214dbc6bffa90cc0225b39da2e5c2d3b90600090a250565b60606001600160a01b0383163b612b825760405162461bcd60e51b815260206004820152602660248201527f416464726573733a2064656c65676174652063616c6c20746f206e6f6e2d636f6044820152651b9d1c9858dd60d21b60648201526084016108f8565b600080846001600160a01b031684604051612b9d919061339d565b600060405180830381855af49150503d8060008114612bd8576040519150601f19603f3d011682016040523d82523d6000602084013e612bdd565b606091505b5091509150612108828260405180606001604052806027815260200161340d6027913960608315612c0f5750816116d3565b6116d38383815115612c245781518083602001fd5b8060405162461bcd60e51b81526004016108f891906133b9565b508054600082559060005260206000209081019061135191905b80821115612c6c5760008155600101612c58565b5090565b600060208284031215612c8257600080fd5b5035919050565b600081518084526020808501945080840160005b83811015612cc25781516001600160a01b031687529582019590820190600101612c9d565b509495945050505050565b6020815260006116d36020830184612c89565b6001600160a01b038116811461135157600080fd5b60008060408385031215612d0857600080fd5b8235612d1381612ce0565b946020939093013593505050565b600060208284031215612d3357600080fd5b81356116d381612ce0565b600080600060608486031215612d5357600080fd5b8335612d5e81612ce0565b95602085013595506040909401359392505050565b60008060208385031215612d8657600080fd5b823567ffffffffffffffff80821115612d9e57600080fd5b818501915085601f830112612db257600080fd5b813581811115612dc157600080fd5b8660208260051b8501011115612dd657600080fd5b60209290920196919550909350505050565b634e487b7160e01b600052604160045260246000fd5b604051601f8201601f1916810167ffffffffffffffff81118282101715612e2757612e27612de8565b604052919050565b60008060408385031215612e4257600080fd5b8235612e4d81612ce0565b915060208381013567ffffffffffffffff80821115612e6b57600080fd5b818601915086601f830112612e7f57600080fd5b813581811115612e9157612e91612de8565b612ea3601f8201601f19168501612dfe565b91508082528784828501011115612eb957600080fd5b80848401858401376000848284010152508093505050509250929050565b600080600060608486031215612eec57600080fd5b8335612ef781612ce0565b92506020840135612f0781612ce0565b929592945050506040919091013590565b600081518084526020808501945080840160005b83811015612cc257815187529582019590820190600101612f2c565b6020815260006116d36020830184612f18565b600060208284031215612f6d57600080fd5b813560ff811681146116d357600080fd5b81511515815261016081016020830151612fa360208401826001600160a01b03169052565b5060408301516040830152606083015160608301526080830151608083015260a083015160a083015260c083015160c083015260e083015160e083015261010080840151818401525061012080840151818401525061014080840151818401525092915050565b6020815260008251604060208401526130266060840182612f18565b90506020840151151560408401528091505092915050565b82815260406020820152600061086e6040830184612c89565b634e487b7160e01b600052601160045260246000fd5b8082018082111561109457611094613057565b8181038181111561109457611094613057565b6000602082840312156130a557600080fd5b81516116d381612ce0565b634e487b7160e01b600052603260045260246000fd5b6000602082840312156130d857600080fd5b815180151581146116d357600080fd5b6000600182016130fa576130fa613057565b5060010190565b60208082526022908201527f4f6e6c79206f776e65722063616e2063616c6c20746869732066756e6374696f604082015261371760f11b606082015260800190565b808202811582820484141761109457611094613057565b60008261317757634e487b7160e01b600052601260045260246000fd5b500490565b6020808252602c908201527f46756e6374696f6e206d7573742062652063616c6c6564207468726f7567682060408201526b19195b1959d85d1958d85b1b60a21b606082015260800190565b6020808252602c908201527f46756e6374696f6e206d7573742062652063616c6c6564207468726f7567682060408201526b6163746976652070726f787960a01b606082015260800190565b600060ff821660ff810361322a5761322a613057565b60010192915050565b85815284602082015260a06040820152600061325260a0830186612c89565b6001600160a01b0394909416606083015250608001529392505050565b6000602080838503121561328257600080fd5b825167ffffffffffffffff8082111561329a57600080fd5b818501915085601f8301126132ae57600080fd5b8151818111156132c0576132c0612de8565b8060051b91506132d1848301612dfe565b81815291830184019184810190888411156132eb57600080fd5b938501935b83851015613309578451825293850193908501906132f0565b98975050505050505050565b60006020828403121561332757600080fd5b5051919050565b6020808252602b908201527f496e697469616c697a61626c653a20636f6e7472616374206973206e6f74206960408201526a6e697469616c697a696e6760a81b606082015260800190565b60005b8381101561339457818101518382015260200161337c565b50506000910152565b600082516133af818460208701613379565b9190910192915050565b60208152600082518060208401526133d8816040850160208701613379565b601f01601f1916919091016040019291505056fe360894a13ba1a3210667c828492db98dca3e2076cc3735a920a3ca505d382bbc416464726573733a206c6f772d6c6576656c2064656c65676174652063616c6c206661696c6564a2646970667358221220fffdcde442ed084499f00136cd1f568280097bdbd642681ecc27286dead1d89564736f6c63430008110033",
  "linkReferences": {},
  "deployedLinkReferences": {}
}