{
  "_format": "hh-sol-artifact-1",
  "contractName": "StakingUpgradeable",
  "sourceName": "contracts/StakingUpgradeable.sol",
  "abi": [
    {
      "anonymous": false,
      "inputs": [
        {
          "indexed": false,
          "internalType": "address",
          "name": "previousAdmin",
          "type": "address"
        },
        {
          "indexed": false,
          "internalType": "address",
          "name": "newAdmin",
          "type": "address"
        }
      ],
      "name": "AdminChanged",
      "type": "event"
    },
    {
      "anonymous": false,
      "inputs": [
        {
          "indexed": true,
          "internalType": "address",
          "name": "beacon",
          "type": "address"
        }
      ],
      "name": "BeaconUpgraded",
      "type": "event"
    },
    {
      "anonymous": false,
      "inputs": [
        {
          "indexed": false,
          "internalType": "uint8",
          "name": "version",
          "type": "uint8"
        }
      ],
      "name": "Initialized",
      "type": "event"
    },
    {
      "anonymous": false,
      "inputs": [
        {
          "indexed": true,
          "internalType": "address",
          "name": "previousOwner",
          "type": "address"
        },
        {
          "indexed": true,
          "internalType": "address",
          "name": "newOwner",
          "type": "address"
        }
      ],
      "name": "OwnershipTransferred",
      "type": "event"
    },
    {
      "anonymous": false,
      "inputs": [
        {
          "indexed": false,
          "internalType": "address",
          "name": "account",
          "type": "address"
        }
      ],
      "name": "Paused",
      "type": "event"
    },
    {
      "anonymous": false,
      "inputs": [
        {
          "indexed": true,
          "internalType": "address",
          "name": "userAddress",
          "type": "address"
        },
        {
          "indexed": true,
          "internalType": "uint256",
          "name": "valueStaked",
          "type": "uint256"
        },
        {
          "indexed": true,
          "internalType": "uint256",
          "name": "duration",
          "type": "uint256"
        },
        {
          "indexed": false,
          "internalType": "uint256",
          "name": "stakingID",
          "type": "uint256"
        }
      ],
      "name": "Stake",
      "type": "event"
    },
    {
      "anonymous": false,
      "inputs": [
        {
          "indexed": true,
          "internalType": "address",
          "name": "userAddress",
          "type": "address"
        },
        {
          "indexed": true,
          "internalType": "uint256",
          "name": "reward",
          "type": "uint256"
        },
        {
          "indexed": true,
          "internalType": "uint256",
          "name": "stakingID",
          "type": "uint256"
        },
        {
          "indexed": false,
          "internalType": "address",
          "name": "tokenAddress",
          "type": "address"
        }
      ],
      "name": "StakingRewardClaimed",
      "type": "event"
    },
    {
      "anonymous": false,
      "inputs": [
        {
          "indexed": false,
          "internalType": "address",
          "name": "account",
          "type": "address"
        }
      ],
      "name": "Unpaused",
      "type": "event"
    },
    {
      "anonymous": false,
      "inputs": [
        {
          "indexed": true,
          "internalType": "address",
          "name": "userAddress",
          "type": "address"
        },
        {
          "indexed": true,
          "internalType": "uint256",
          "name": "valueStaked",
          "type": "uint256"
        },
        {
          "indexed": true,
          "internalType": "uint256",
          "name": "stakingID",
          "type": "uint256"
        }
      ],
      "name": "Unstake",
      "type": "event"
    },
    {
      "anonymous": false,
      "inputs": [
        {
          "indexed": true,
          "internalType": "address",
          "name": "implementation",
          "type": "address"
        }
      ],
      "name": "Upgraded",
      "type": "event"
    },
    {
      "inputs": [],
      "name": "activeStakersList",
      "outputs": [
        {
          "internalType": "address[]",
          "name": "",
          "type": "address[]"
        }
      ],
      "stateMutability": "view",
      "type": "function"
    },
    {
      "inputs": [],
      "name": "allStakersList",
      "outputs": [
        {
          "internalType": "address[]",
          "name": "",
          "type": "address[]"
        }
      ],
      "stateMutability": "view",
      "type": "function"
    },
    {
      "inputs": [
        {
          "internalType": "uint256",
          "name": "_stakingID",
          "type": "uint256"
        }
      ],
      "name": "claimStakingReward",
      "outputs": [],
      "stateMutability": "nonpayable",
      "type": "function"
    },
    {
      "inputs": [
        {
          "internalType": "address[]",
          "name": "_userAddress",
          "type": "address[]"
        }
      ],
      "name": "disableAccounts",
      "outputs": [],
      "stateMutability": "nonpayable",
      "type": "function"
    },
    {
      "inputs": [
        {
          "internalType": "address[]",
          "name": "_userAddress",
          "type": "address[]"
        }
      ],
      "name": "enableAccounts",
      "outputs": [],
      "stateMutability": "nonpayable",
      "type": "function"
    },
    {
      "inputs": [],
      "name": "getActiveStakingIDs",
      "outputs": [
        {
          "internalType": "uint256[]",
          "name": "activeStakingIDs",
          "type": "uint256[]"
        }
      ],
      "stateMutability": "view",
      "type": "function"
    },
    {
      "inputs": [],
      "name": "getDisabledAccountsList",
      "outputs": [
        {
          "internalType": "address[]",
          "name": "",
          "type": "address[]"
        }
      ],
      "stateMutability": "view",
      "type": "function"
    },
    {
      "inputs": [],
      "name": "getStakingCappings",
      "outputs": [
        {
          "internalType": "uint256",
          "name": "minStakingValue",
          "type": "uint256"
        },
        {
          "internalType": "uint256",
          "name": "stakingRewardRate",
          "type": "uint256"
        },
        {
          "internalType": "uint256",
          "name": "stakingDuration",
          "type": "uint256"
        },
        {
          "internalType": "uint256",
          "name": "stakingRewardClaimTimeLimit",
          "type": "uint256"
        }
      ],
      "stateMutability": "view",
      "type": "function"
    },
    {
      "inputs": [
        {
          "internalType": "uint256",
          "name": "_stakingID",
          "type": "uint256"
        }
      ],
      "name": "getStakingReward",
      "outputs": [
        {
          "internalType": "uint256",
          "name": "",
          "type": "uint256"
        }
      ],
      "stateMutability": "view",
      "type": "function"
    },
    {
      "inputs": [
        {
          "internalType": "uint256",
          "name": "_stakingID",
          "type": "uint256"
        }
      ],
      "name": "getStakingTimeRemaining",
      "outputs": [
        {
          "internalType": "uint256",
          "name": "",
          "type": "uint256"
        }
      ],
      "stateMutability": "view",
      "type": "function"
    },
    {
      "inputs": [],
      "name": "getTotalStakingRewardDistributed",
      "outputs": [
        {
          "internalType": "uint256",
          "name": "_tokenRewards",
          "type": "uint256"
        },
        {
          "internalType": "uint256",
          "name": "_ansudRewards",
          "type": "uint256"
        }
      ],
      "stateMutability": "view",
      "type": "function"
    },
    {
      "inputs": [],
      "name": "getTotalValueStaked",
      "outputs": [
        {
          "internalType": "uint256",
          "name": "",
          "type": "uint256"
        }
      ],
      "stateMutability": "view",
      "type": "function"
    },
    {
      "inputs": [
        {
          "internalType": "address",
          "name": "_userAddress",
          "type": "address"
        }
      ],
      "name": "getUserAllStakingsRewards",
      "outputs": [
        {
          "internalType": "uint256",
          "name": "",
          "type": "uint256"
        }
      ],
      "stateMutability": "view",
      "type": "function"
    },
    {
      "inputs": [
        {
          "internalType": "address",
          "name": "_userAddress",
          "type": "address"
        }
      ],
      "name": "getUserStakingIDs",
      "outputs": [
        {
          "internalType": "uint256[]",
          "name": "",
          "type": "uint256[]"
        }
      ],
      "stateMutability": "view",
      "type": "function"
    },
    {
      "inputs": [
        {
          "internalType": "address",
          "name": "_userAddress",
          "type": "address"
        }
      ],
      "name": "getUserTotalRewardClaimed",
      "outputs": [
        {
          "internalType": "uint256",
          "name": "totalRewardClaim",
          "type": "uint256"
        }
      ],
      "stateMutability": "view",
      "type": "function"
    },
    {
      "inputs": [
        {
          "internalType": "address",
          "name": "_userAddress",
          "type": "address"
        }
      ],
      "name": "getUserTotalStakedValue",
      "outputs": [
        {
          "internalType": "uint256",
          "name": "userTotalValueStaked",
          "type": "uint256"
        }
      ],
      "stateMutability": "view",
      "type": "function"
    },
    {
      "inputs": [],
      "name": "initialize",
      "outputs": [],
      "stateMutability": "nonpayable",
      "type": "function"
    },
    {
      "inputs": [
        {
          "internalType": "address",
          "name": "_userAddress",
          "type": "address"
        }
      ],
      "name": "isAccountDisabled",
      "outputs": [
        {
          "internalType": "bool",
          "name": "",
          "type": "bool"
        }
      ],
      "stateMutability": "view",
      "type": "function"
    },
    {
      "inputs": [
        {
          "internalType": "address",
          "name": "_userAddress",
          "type": "address"
        }
      ],
      "name": "isStaked",
      "outputs": [
        {
          "internalType": "bool",
          "name": "",
          "type": "bool"
        }
      ],
      "stateMutability": "view",
      "type": "function"
    },
    {
      "inputs": [],
      "name": "owner",
      "outputs": [
        {
          "internalType": "address",
          "name": "",
          "type": "address"
        }
      ],
      "stateMutability": "view",
      "type": "function"
    },
    {
      "inputs": [],
      "name": "pause",
      "outputs": [],
      "stateMutability": "nonpayable",
      "type": "function"
    },
    {
      "inputs": [],
      "name": "paused",
      "outputs": [
        {
          "internalType": "bool",
          "name": "",
          "type": "bool"
        }
      ],
      "stateMutability": "view",
      "type": "function"
    },
    {
      "inputs": [],
      "name": "proxiableUUID",
      "outputs": [
        {
          "internalType": "bytes32",
          "name": "",
          "type": "bytes32"
        }
      ],
      "stateMutability": "view",
      "type": "function"
    },
    {
      "inputs": [],
      "name": "renounceOwnership",
      "outputs": [],
      "stateMutability": "nonpayable",
      "type": "function"
    },
    {
      "inputs": [
        {
          "internalType": "uint256",
          "name": "_value",
          "type": "uint256"
        }
      ],
      "name": "setMinStakingValue",
      "outputs": [
        {
          "internalType": "uint256",
          "name": "",
          "type": "uint256"
        }
      ],
      "stateMutability": "nonpayable",
      "type": "function"
    },
    {
      "inputs": [
        {
          "internalType": "uint256",
          "name": "_valueInDays",
          "type": "uint256"
        }
      ],
      "name": "setStakingDuration",
      "outputs": [],
      "stateMutability": "nonpayable",
      "type": "function"
    },
    {
      "inputs": [
        {
          "internalType": "uint256",
          "name": "_valueInDays",
          "type": "uint256"
        }
      ],
      "name": "setStakingRewardClaimTimeLimity",
      "outputs": [],
      "stateMutability": "nonpayable",
      "type": "function"
    },
    {
      "inputs": [
        {
          "internalType": "uint256",
          "name": "_valueInPer",
          "type": "uint256"
        }
      ],
      "name": "setStakingRewardRate",
      "outputs": [],
      "stateMutability": "nonpayable",
      "type": "function"
    },
    {
      "inputs": [
        {
          "internalType": "uint256",
          "name": "_valueInWei",
          "type": "uint256"
        }
      ],
      "name": "stake",
      "outputs": [],
      "stateMutability": "nonpayable",
      "type": "function"
    },
    {
      "inputs": [
        {
          "internalType": "address",
          "name": "_userAddress",
          "type": "address"
        },
        {
          "internalType": "uint256",
          "name": "_valueInWei",
          "type": "uint256"
        }
      ],
      "name": "stakeByAdmin",
      "outputs": [],
      "stateMutability": "nonpayable",
      "type": "function"
    },
    {
      "inputs": [
        {
          "internalType": "uint256",
          "name": "_stakingID",
          "type": "uint256"
        }
      ],
      "name": "stakeInfoMap",
      "outputs": [
        {
          "components": [
            {
              "internalType": "bool",
              "name": "isStaked",
              "type": "bool"
            },
            {
              "internalType": "address",
              "name": "owner",
              "type": "address"
            },
            {
              "internalType": "uint256",
              "name": "value",
              "type": "uint256"
            },
            {
              "internalType": "uint256",
              "name": "rewardRate",
              "type": "uint256"
            },
            {
              "internalType": "uint256",
              "name": "startTime",
              "type": "uint256"
            },
            {
              "internalType": "uint256",
              "name": "duration",
              "type": "uint256"
            },
            {
              "internalType": "uint256",
              "name": "rewardClaimed",
              "type": "uint256"
            },
            {
              "internalType": "uint256",
              "name": "rewardClaimedAUSD",
              "type": "uint256"
            },
            {
              "internalType": "uint256",
              "name": "lastTimeRewardClaimed",
              "type": "uint256"
            },
            {
              "internalType": "uint256[]",
              "name": "blockNumber",
              "type": "uint256[]"
            }
          ],
          "internalType": "struct StakingUpgradeable.StakeInfo",
          "name": "",
          "type": "tuple"
        }
      ],
      "stateMutability": "view",
      "type": "function"
    },
    {
      "inputs": [
        {
          "internalType": "address",
          "name": "newOwner",
          "type": "address"
        }
      ],
      "name": "transferOwnership",
      "outputs": [],
      "stateMutability": "nonpayable",
      "type": "function"
    },
    {
      "inputs": [],
      "name": "unpause",
      "outputs": [],
      "stateMutability": "nonpayable",
      "type": "function"
    },
    {
      "inputs": [
        {
          "internalType": "address",
          "name": "newImplementation",
          "type": "address"
        }
      ],
      "name": "upgradeTo",
      "outputs": [],
      "stateMutability": "nonpayable",
      "type": "function"
    },
    {
      "inputs": [
        {
          "internalType": "address",
          "name": "newImplementation",
          "type": "address"
        },
        {
          "internalType": "bytes",
          "name": "data",
          "type": "bytes"
        }
      ],
      "name": "upgradeToAndCall",
      "outputs": [],
      "stateMutability": "payable",
      "type": "function"
    },
    {
      "inputs": [
        {
          "internalType": "address",
          "name": "_userAddress",
          "type": "address"
        }
      ],
      "name": "userAccountMap",
      "outputs": [
        {
          "components": [
            {
              "internalType": "uint256[]",
              "name": "stakingID",
              "type": "uint256[]"
            },
            {
              "internalType": "uint256[]",
              "name": "blockNumber",
              "type": "uint256[]"
            },
            {
              "internalType": "bool",
              "name": "isDisabled",
              "type": "bool"
            }
          ],
          "internalType": "struct StakingUpgradeable.Account",
          "name": "",
          "type": "tuple"
        }
      ],
      "stateMutability": "view",
      "type": "function"
    },
    {
      "inputs": [
        {
          "internalType": "address",
          "name": "_receiver",
          "type": "address"
        },
        {
          "internalType": "uint256",
          "name": "_value",
          "type": "uint256"
        }
      ],
      "name": "withdrawNativeFunds",
      "outputs": [
        {
          "internalType": "bool",
          "name": "",
          "type": "bool"
        }
      ],
      "stateMutability": "nonpayable",
      "type": "function"
    },
    {
      "inputs": [
        {
          "internalType": "address",
          "name": "_tokenAddress",
          "type": "address"
        },
        {
          "internalType": "address",
          "name": "_receiver",
          "type": "address"
        },
        {
          "internalType": "uint256",
          "name": "_value",
          "type": "uint256"
        }
      ],
      "name": "withdrawTokens",
      "outputs": [
        {
          "internalType": "bool",
          "name": "",
          "type": "bool"
        }
      ],
      "stateMutability": "nonpayable",
      "type": "function"
    },
    {
      "stateMutability": "payable",
      "type": "receive"
    }
  ],
  "bytecode": "0x60a06040523060805234801561001457600080fd5b506080516135a261004c60003960008181610da001528181610de0015281816110040152818161104401526110d701526135a26000f3fe6080604052600436106102295760003560e01c80637ce574bf11610123578063ae3132e8116100ab578063d8ba90b71161006f578063d8ba90b714610677578063dba4358c14610697578063deede654146106ac578063e3a51f58146106c1578063f2fde38b146106fe57600080fd5b8063ae3132e8146105d5578063b7d68519146105f5578063ba4f678e14610615578063c06a538814610642578063d596fe7f1461065757600080fd5b80639c3fe28a116100f25780639c3fe28a1461050b578063a40b58911461052b578063a694fc3a14610568578063a7566b7514610588578063abfe35ad146105b557600080fd5b80637ce574bf1461048c5780638129fc1c146104b95780638456cb59146104ce5780638da5cb5b146104e357600080fd5b806353bdadea116101b15780636a50eefa116101755780636a50eefa146103f55780636a8ca691146104155780636f51b20b146104355780636f72693b14610462578063715018a61461047757600080fd5b806353bdadea1461035d5780635c975abb1461037d5780635cbfd021146103955780635e35359e146103b55780636177fd18146103d557600080fd5b80633b09098f116101f85780633b09098f146102d25780633f4ba83a146102f2578063469bbc12146103075780634f1ef2861461033557806352d1902d1461034857600080fd5b8063239cd4a414610235578063260cb4e91461025757806326792aca146102825780633659cfe6146102b257600080fd5b3661023057005b600080fd5b34801561024157600080fd5b50610255610250366004612e49565b61071e565b005b34801561026357600080fd5b5061026c610bce565b6040516102799190612ea6565b60405180910390f35b34801561028e57600080fd5b506102a261029d366004612ece565b610d4a565b6040519015158152602001610279565b3480156102be57600080fd5b506102556102cd366004612efa565b610d96565b3480156102de57600080fd5b506102556102ed366004612f17565b610e75565b3480156102fe57600080fd5b50610255610f06565b34801561031357600080fd5b50610327610322366004612efa565b610f18565b604051908152602001610279565b610255610343366004612fd3565b610ffa565b34801561035457600080fd5b506103276110ca565b34801561036957600080fd5b50610255610378366004612f17565b61117d565b34801561038957600080fd5b5060335460ff166102a2565b3480156103a157600080fd5b506102556103b0366004612e49565b611203565b3480156103c157600080fd5b506102a26103d036600461307b565b61121f565b3480156103e157600080fd5b506102a26103f0366004612efa565b6112a9565b34801561040157600080fd5b50610255610410366004612ece565b611367565b34801561042157600080fd5b50610255610430366004612e49565b611488565b34801561044157600080fd5b50610455610450366004612efa565b6114a4565b60405161027991906130ec565b34801561046e57600080fd5b50610455611511565b34801561048357600080fd5b50610255611680565b34801561049857600080fd5b506104a460ff54600091565b60408051928352602083019190915201610279565b3480156104c557600080fd5b50610255611692565b3480156104da57600080fd5b506102556117fc565b3480156104ef57600080fd5b506065546040516001600160a01b039091168152602001610279565b34801561051757600080fd5b50610327610526366004612efa565b61180c565b34801561053757600080fd5b506102a2610546366004612efa565b6001600160a01b03166000908152610104602052604090206002015460ff1690565b34801561057457600080fd5b50610255610583366004612e49565b6118f5565b34801561059457600080fd5b506105a86105a3366004612e49565b611b4b565b60405161027991906130ff565b3480156105c157600080fd5b506103276105d0366004612e49565b611c8a565b3480156105e157600080fd5b506103276105f0366004612efa565b611c95565b34801561060157600080fd5b50610255610610366004612e49565b611d45565b34801561062157600080fd5b50610635610630366004612efa565b611d53565b60405161027991906131a3565b34801561064e57600080fd5b5061026c611e4d565b34801561066357600080fd5b50610327610672366004612e49565b611f97565b34801561068357600080fd5b50610327610692366004612e49565b611fab565b3480156106a357600080fd5b5061026c612010565b3480156106b857600080fd5b5060fd54610327565b3480156106cd57600080fd5b5061010054610101546101025461010354604080519485526020850193909352918301526060820152608001610279565b34801561070a57600080fd5b50610255610719366004612efa565b612174565b6000610729826121ea565b9050600081116107805760405162461bcd60e51b815260206004820152601c60248201527f596f752068617665206e6f207374616b696e67206f6e20656e6465640000000060448201526064015b60405180910390fd5b60fb546001600160a01b0316600061079960028461320b565b905060006108746107ab60028661320b565b846001600160a01b03166355a373d66040518163ffffffff1660e01b8152600401602060405180830381865afa1580156107e9573d6000803e3d6000fd5b505050506040513d601f19601f8201168201806040525081019061080d919061322d565b856001600160a01b031663b70cc4c16040518163ffffffff1660e01b8152600401602060405180830381865afa15801561084b573d6000803e3d6000fd5b505050506040513d601f19601f8201168201806040525081019061086f919061322d565b612273565b600086815261010560209081526040808320338085526101049093529220825493945090924390429061010090046001600160a01b031685146109095760405162461bcd60e51b815260206004820152602760248201527f536f727279207374616b696e6720696420646f656e27742062656c6f6e6773206044820152663a37903cb7ba9760c91b6064820152608401610777565b600283015460ff16156109765760405162461bcd60e51b815260206004820152602f60248201527f596f7572206163636f756e742069732064697361626c65642e20506c6561736560448201526e1031b7b73a30b1ba1030b236b4b71760891b6064820152608401610777565b4261010354856007015461098a919061324a565b116109e95760405162461bcd60e51b815260206004820152602960248201527f596f752063616e6e6f7420636c61696d20726577617264206265666f7265207460448201526834b6b2b634b6b4ba1760b91b6064820152608401610777565b6109f9858b86868b8b87896123fd565b610a028a6121ea565b600003610a1257835460ff191684555b876001600160a01b03166355a373d66040518163ffffffff1660e01b8152600401602060405180830381865afa158015610a50573d6000803e3d6000fd5b505050506040513d601f19601f82011682018060405250810190610a74919061322d565b60405163a9059cbb60e01b81526001600160a01b038781166004830152602482018a9052919091169063a9059cbb906044016020604051808303816000875af1158015610ac5573d6000803e3d6000fd5b505050506040513d601f19601f82011682018060405250810190610ae9919061325d565b50876001600160a01b031663b70cc4c16040518163ffffffff1660e01b8152600401602060405180830381865afa158015610b28573d6000803e3d6000fd5b505050506040513d601f19601f82011682018060405250810190610b4c919061322d565b60405163a9059cbb60e01b81526001600160a01b03878116600483015260248201899052919091169063a9059cbb906044016020604051808303816000875af1158015610b9d573d6000803e3d6000fd5b505050506040513d601f19601f82011682018060405250810190610bc1919061325d565b5050505050505050505050565b6000808052610104602090815260fc80546040805182850281018501909152818152606094937f0c81ce4857d5b94b8c75139d9e9e2911ece8cd067eddba6000e40a08e09d56439385939091830182828015610c5357602002820191906000526020600020905b81546001600160a01b03168152600190910190602001808311610c35575b5050505050905060008151905060008167ffffffffffffffff811115610c7b57610c7b612f8c565b604051908082528060200260200182016040528015610ca4578160200160208202803683370190505b5090506000805b83811015610d3e57848181518110610cc557610cc561327f565b60200260200101519650610cd98388612622565b1515600114610d2c57600286015460ff161515600103610d2c5786838381518110610d0657610d0661327f565b6001600160a01b039092166020928302919091019091015281610d2881613295565b9250505b80610d3681613295565b915050610cab565b50909695505050505050565b6000610d54612687565b6040516001600160a01b0384169083156108fc029084906000818181858888f19350505050158015610d8a573d6000803e3d6000fd5b50600190505b92915050565b6001600160a01b037f0000000000000000000000000000000000000000000000000000000000000000163003610dde5760405162461bcd60e51b8152600401610777906132ae565b7f00000000000000000000000000000000000000000000000000000000000000006001600160a01b0316610e27600080516020613526833981519152546001600160a01b031690565b6001600160a01b031614610e4d5760405162461bcd60e51b8152600401610777906132fa565b610e56816126e1565b60408051600080825260208201909252610e72918391906126e9565b50565b610e7d612687565b60008080526101046020527f0c81ce4857d5b94b8c75139d9e9e2911ece8cd067eddba6000e40a08e09d564382825b81811015610efe57858582818110610ec657610ec661327f565b9050602002016020810190610edb9190612efa565b60028401805460ff19166001179055935080610ef681613295565b915050610eac565b505050505050565b610f0e612687565b610f16612859565b565b6001600160a01b038116600090815261010460209081526040808320805482518185028101850190935280835290928492918491830182828015610f7b57602002820191906000526020600020905b815481526020019060010190808311610f67575b505083519394506000925050505b81811015610ff157610fb3838281518110610fa657610fa661327f565b6020026020010151611b4b565b5115610fdf57610fce838281518110610fa657610fa661327f565b60400151610fdc908661324a565b94505b80610fe981613295565b915050610f89565b50505050919050565b6001600160a01b037f00000000000000000000000000000000000000000000000000000000000000001630036110425760405162461bcd60e51b8152600401610777906132ae565b7f00000000000000000000000000000000000000000000000000000000000000006001600160a01b031661108b600080516020613526833981519152546001600160a01b031690565b6001600160a01b0316146110b15760405162461bcd60e51b8152600401610777906132fa565b6110ba826126e1565b6110c6828260016126e9565b5050565b6000306001600160a01b037f0000000000000000000000000000000000000000000000000000000000000000161461116a5760405162461bcd60e51b815260206004820152603860248201527f555550535570677261646561626c653a206d757374206e6f742062652063616c60448201527f6c6564207468726f7567682064656c656761746563616c6c00000000000000006064820152608401610777565b5060008051602061352683398151915290565b611185612687565b60008080526101046020527f0c81ce4857d5b94b8c75139d9e9e2911ece8cd067eddba6000e40a08e09d564382825b81811015610efe578585828181106111ce576111ce61327f565b90506020020160208101906111e39190612efa565b60028401805460ff191690559350806111fb81613295565b9150506111b4565b61120b612687565b6112188162015180613346565b6101035550565b6000611229612687565b60405163a9059cbb60e01b81526001600160a01b0384811660048301526024820184905285169063a9059cbb906044016020604051808303816000875af1158015611278573d6000803e3d6000fd5b505050506040513d601f19601f8201168201806040525081019061129c919061325d565b50600190505b9392505050565b6001600160a01b03811660009081526101046020908152604080832080548251818502810185019093528083529092849291849183018282801561130c57602002820191906000526020600020905b8154815260200190600101908083116112f8575b505083519394506000925050505b8181101561135b57611337838281518110610fa657610fa661327f565b51156113495750600195945050505050565b8061135381613295565b91505061131a565b50600095945050505050565b60fb5433906001600160a01b03166113876065546001600160a01b031690565b6001600160a01b0316826001600160a01b031614806114185750806001600160a01b03166363d9df856040518163ffffffff1660e01b8152600401602060405180830381865afa1580156113df573d6000803e3d6000fd5b505050506040513d601f19601f82011682018060405250810190611403919061322d565b6001600160a01b0316826001600160a01b0316145b61146f5760405162461bcd60e51b815260206004820152602260248201527f4f6e6c79206f776e65722063616e2063616c6c20746869732066756e6374696f604482015261371760f11b6064820152608401610777565b611481848461010154610102546128ab565b5050505050565b611490612687565b61149d8162015180613346565b6101025550565b6001600160a01b0381166000908152610104602090815260409182902080548351818402810184019094528084526060939283018282801561150557602002820191906000526020600020905b8154815260200190600101908083116114f1575b50505050509050919050565b60fc546060906000805b828110156115565761152c81611b4b565b511515600103611544578161154081613295565b9250505b8061154e81613295565b91505061151b565b5060008167ffffffffffffffff81111561157257611572612f8c565b60405190808252806020026020018201604052801561159b578160200160208202803683370190505b50905060008267ffffffffffffffff8111156115b9576115b9612f8c565b6040519080825280602002602001820160405280156115e2578160200160208202803683370190505b50905060005b84811015611676576115f981611b4b565b51151560010361162d5761160e81600161324a565b8382815181106116205761162061327f565b6020026020010181815250505b61163681611b4b565b6020015182828151811061164c5761164c61327f565b6001600160a01b03909216602092830291909101909101528061166e81613295565b9150506115e8565b5090949350505050565b611688612687565b610f166000612a02565b600054610100900460ff16158080156116b25750600054600160ff909116105b806116cc5750303b1580156116cc575060005460ff166001145b61172f5760405162461bcd60e51b815260206004820152602e60248201527f496e697469616c697a61626c653a20636f6e747261637420697320616c72656160448201526d191e481a5b9a5d1a585b1a5e995960921b6064820152608401610777565b6000805460ff191660011790558015611752576000805461ff0019166101001790555b60fb80546001600160a01b03191673be5153baa3756402b08fd830e7b5f00a76e68231179055678ac7230489e800006101005560c8610101556303c267006101025562278d00610103556117a4612a54565b6117ac612a83565b6117b4612ab2565b8015610e72576000805461ff0019169055604051600181527f7f26b83ff96e1f2b6a682f133852f6798a09c465da95921460cefb38474024989060200160405180910390a150565b611804612687565b610f16612ad9565b6001600160a01b0381166000908152610104602090815260408083208054825181850281018501909352808352849383018282801561186a57602002820191906000526020600020905b815481526020019060010190808311611856575b505050505090506000815190506000805b828160ff1610156118ec5761189e848260ff1681518110610fa657610fa661327f565b5115156001036118da576118cd848260ff16815181106118c0576118c061327f565b60200260200101516121ea565b6118d7908361324a565b91505b806118e48161335d565b91505061187b565b50949350505050565b6118fd612b16565b60fb5460408051632ad1b9eb60e11b81529051339284926001600160a01b039091169182916355a373d69160048083019260209291908290030181865afa15801561194c573d6000803e3d6000fd5b505050506040513d601f19601f82011682018060405250810190611970919061322d565b6040516323b872dd60e01b81526001600160a01b0385811660048301523060248301526044820185905291909116906323b872dd906064016020604051808303816000875af11580156119c7573d6000803e3d6000fd5b505050506040513d601f19601f820116820180604052508101906119eb919061325d565b50806001600160a01b031663b70cc4c16040518163ffffffff1660e01b8152600401602060405180830381865afa158015611a2a573d6000803e3d6000fd5b505050506040513d601f19601f82011682018060405250810190611a4e919061322d565b6001600160a01b03166323b872dd8430846001600160a01b0316634bc92d6c6040518163ffffffff1660e01b8152600401602060405180830381865afa158015611a9c573d6000803e3d6000fd5b505050506040513d601f19601f82011682018060405250810190611ac0919061337c565b6040516001600160e01b031960e086901b1681526001600160a01b03938416600482015292909116602483015260448201526064016020604051808303816000875af1158015611b14573d6000803e3d6000fd5b505050506040513d601f19601f82011682018060405250810190611b38919061325d565b50611481838361010154610102546128ab565b611bac60405180610140016040528060001515815260200160006001600160a01b0316815260200160008152602001600081526020016000815260200160008152602001600081526020016000815260200160008152602001606081525090565b60008281526101056020908152604091829020825161014081018452815460ff8116151582526001600160a01b036101009182900416828501526001830154828601526002830154606083015260038301546080830152600483015460a0830152600583015460c0830152600683015460e0830152600783015490820152600882018054855181860281018601909652808652919492936101208601939290830182828015611c7a57602002820191906000526020600020905b815481526020019060010190808311611c66575b5050505050815250509050919050565b6000610d90826121ea565b6001600160a01b038116600090815261010460209081526040808320805482518185028101850190935280835290928492918491830182828015611cf857602002820191906000526020600020905b815481526020019060010190808311611ce4575b505083519394506000925050505b81811015610ff157611d23838281518110610fa657610fa661327f565b60c00151611d31908661324a565b945080611d3d81613295565b915050611d06565b611d4d612687565b61010155565b6040805160608082018352808252602080830182905260008385018190526001600160a01b03861681526101048252849020845181549283028101608090810190965292830182815293949293909284928491840182828015611dd557602002820191906000526020600020905b815481526020019060010190808311611dc1575b5050505050815260200160018201805480602002602001604051908101604052809291908181526020018280548015611e2d57602002820191906000526020600020905b815481526020019060010190808311611e19575b50505091835250506002919091015460ff16151560209091015292915050565b6060600060fc805480602002602001604051908101604052809291908181526020018280548015611ea757602002820191906000526020600020905b81546001600160a01b03168152600190910190602001808311611e89575b5050505050905060008151905060008167ffffffffffffffff811115611ecf57611ecf612f8c565b604051908082528060200260200182016040528015611ef8578160200160208202803683370190505b5090506000805b8381101561167657611f2a83868381518110611f1d57611f1d61327f565b6020026020010151612622565b1515600114611f8557848181518110611f4557611f4561327f565b6020026020010151838381518110611f5f57611f5f61327f565b6001600160a01b039092166020928302919091019091015281611f8181613295565b9250505b80611f8f81613295565b915050611eff565b6000611fa1612687565b5061010081905590565b600081815261010560205260408120600481015460038201544292918491611fd3919061324a565b905080831015612005578282600401548360030154611ff2919061324a565b611ffc9190613395565b95945050505050565b506000949350505050565b6060600060fc80548060200260200160405190810160405280929190818152602001828054801561206a57602002820191906000526020600020905b81546001600160a01b0316815260019091019060200180831161204c575b5050505050905060008151905060008167ffffffffffffffff81111561209257612092612f8c565b6040519080825280602002602001820160405280156120bb578160200160208202803683370190505b5090506000805b83811015611676576120e083868381518110611f1d57611f1d61327f565b15156001146121625761210b8582815181106120fe576120fe61327f565b60200260200101516112a9565b15612162578481815181106121225761212261327f565b602002602001015183838151811061213c5761213c61327f565b6001600160a01b03909216602092830291909101909101528161215e81613295565b9250505b8061216c81613295565b9150506120c2565b61217c612687565b6001600160a01b0381166121e15760405162461bcd60e51b815260206004820152602660248201527f4f776e61626c653a206e6577206f776e657220697320746865207a65726f206160448201526564647265737360d01b6064820152608401610777565b610e7281612a02565b6000818152610105602052604081206003810154429190839061220d9084613395565b90506000826004015460648460020154856001015461222c9190613346565b612236919061320b565b612240919061320b565b90508260050154612255838560040154612b5c565b61225f9083613346565b6122699190613395565b9695505050505050565b6040805160028082526060820183526000928392919060208301908036833701905050905083816000815181106122ac576122ac61327f565b60200260200101906001600160a01b031690816001600160a01b03168152505082816001815181106122e0576122e061327f565b6001600160a01b0392831660209182029290920181019190915260fb5460408051634148625360e11b8152905191909316926000928492638290c4a69260048082019392918290030181865afa15801561233e573d6000803e3d6000fd5b505050506040513d601f19601f82011682018060405250810190612362919061322d565b6001600160a01b031663d06ca61f88856040518363ffffffff1660e01b815260040161238f9291906133a8565b600060405180830381865afa1580156123ac573d6000803e3d6000fd5b505050506040513d6000823e601f3d908101601f191682016040526123d491908101906133c1565b9050806001815181106123e9576123e961327f565b602002602001015193505050509392505050565b83866005016000828254612411919061324a565b925050819055508286600601600082825461242c919061324a565b90915550506007860182905560088601805460018181018355600092835260208084209092018490558781018054918201815583529082200182905560fe805486929061247a90849061324a565b925050819055508260ff6000828254612493919061324a565b925050819055508684896001600160a01b03167ffec605188cf64597b9aa9cf424a9bba4a84ffb09f9f66c932d6efa1b96fcc7e460fb60009054906101000a90046001600160a01b03166001600160a01b03166355a373d66040518163ffffffff1660e01b8152600401602060405180830381865afa15801561251a573d6000803e3d6000fd5b505050506040513d601f19601f8201168201806040525081019061253e919061322d565b6040516001600160a01b03909116815260200160405180910390a48683896001600160a01b03167ffec605188cf64597b9aa9cf424a9bba4a84ffb09f9f66c932d6efa1b96fcc7e460fb60009054906101000a90046001600160a01b03166001600160a01b031663b70cc4c16040518163ffffffff1660e01b8152600401602060405180830381865afa1580156125d9573d6000803e3d6000fd5b505050506040513d601f19601f820116820180604052508101906125fd919061322d565b6040516001600160a01b03909116815260200160405180910390a45050505050505050565b6000805b835181101561267d57826001600160a01b031684828151811061264b5761264b61327f565b60200260200101516001600160a01b03160361266b576001915050610d90565b8061267581613295565b915050612626565b5060009392505050565b6065546001600160a01b03163314610f165760405162461bcd60e51b815260206004820181905260248201527f4f776e61626c653a2063616c6c6572206973206e6f7420746865206f776e65726044820152606401610777565b610e72612687565b7f4910fdfa16fed3260ed0e7147f7cc6da11a60208b5b9406d12a635614ffd91435460ff16156127215761271c83612b72565b505050565b826001600160a01b03166352d1902d6040518163ffffffff1660e01b8152600401602060405180830381865afa92505050801561277b575060408051601f3d908101601f191682019092526127789181019061337c565b60015b6127de5760405162461bcd60e51b815260206004820152602e60248201527f45524331393637557067726164653a206e657720696d706c656d656e7461746960448201526d6f6e206973206e6f74205555505360901b6064820152608401610777565b600080516020613526833981519152811461284d5760405162461bcd60e51b815260206004820152602960248201527f45524331393637557067726164653a20756e737570706f727465642070726f786044820152681a58589b195555525160ba1b6064820152608401610777565b5061271c838383612c0e565b612861612c39565b6033805460ff191690557f5db9ee0a495bf2e6ff9c91a7834c1ba4fdd244a5e8aa4e537bd38aeae4b073aa335b6040516001600160a01b03909116815260200160405180910390a1565b60fc8054600180820183557f371f36870d18f32a11fea0f144b021c8b407bb50f8e0267c711123f454b963c090910180546001600160a01b0319166001600160a01b0388169081179091559154600083815261010460209081526040808320848452610105835290832081548087018355828552838520018590558186018054808801825590855283852043910181905581546001600160a81b03191661010090980297909717861781554260038201819055600482018990558187018b9055600282018a90556008820180549788018155855292842090950186905560fd8054939694959294939192918a919088906129a690849061324a565b9250508190555086898b6001600160a01b03167ff556991011e831bcfac4f406d547e5e32cdd98267efab83935230d5f8d02c446886040516129ea91815260200190565b60405180910390a45060019998505050505050505050565b606580546001600160a01b038381166001600160a01b0319831681179093556040519116919082907f8be0079c531659141344cd1fd0a4f28419497f9722a3daafe3b4186f6b6457e090600090a35050565b600054610100900460ff16612a7b5760405162461bcd60e51b815260040161077790613467565b610f16612c82565b600054610100900460ff16612aaa5760405162461bcd60e51b815260040161077790613467565b610f16612cb5565b600054610100900460ff16610f165760405162461bcd60e51b815260040161077790613467565b612ae1612b16565b6033805460ff191660011790557f62e78cea01bee320cd4e420270b5ea74000d11b0c9f74754ebdbfc544b05a25861288e3390565b60335460ff1615610f165760405162461bcd60e51b815260206004820152601060248201526f14185d5cd8589b194e881c185d5cd95960821b6044820152606401610777565b6000818310612b6b57816112a2565b5090919050565b6001600160a01b0381163b612bdf5760405162461bcd60e51b815260206004820152602d60248201527f455243313936373a206e657720696d706c656d656e746174696f6e206973206e60448201526c1bdd08184818dbdb9d1c9858dd609a1b6064820152608401610777565b60008051602061352683398151915280546001600160a01b0319166001600160a01b0392909216919091179055565b612c1783612ce5565b600082511180612c245750805b1561271c57612c338383612d25565b50505050565b60335460ff16610f165760405162461bcd60e51b815260206004820152601460248201527314185d5cd8589b194e881b9bdd081c185d5cd95960621b6044820152606401610777565b600054610100900460ff16612ca95760405162461bcd60e51b815260040161077790613467565b6033805460ff19169055565b600054610100900460ff16612cdc5760405162461bcd60e51b815260040161077790613467565b610f1633612a02565b612cee81612b72565b6040516001600160a01b038216907fbc7cd75a20ee27fd9adebab32041f755214dbc6bffa90cc0225b39da2e5c2d3b90600090a250565b60606001600160a01b0383163b612d8d5760405162461bcd60e51b815260206004820152602660248201527f416464726573733a2064656c65676174652063616c6c20746f206e6f6e2d636f6044820152651b9d1c9858dd60d21b6064820152608401610777565b600080846001600160a01b031684604051612da891906134d6565b600060405180830381855af49150503d8060008114612de3576040519150601f19603f3d011682016040523d82523d6000602084013e612de8565b606091505b5091509150611ffc82826040518060600160405280602781526020016135466027913960608315612e1a5750816112a2565b6112a28383815115612e2f5781518083602001fd5b8060405162461bcd60e51b815260040161077791906134f2565b600060208284031215612e5b57600080fd5b5035919050565b600081518084526020808501945080840160005b83811015612e9b5781516001600160a01b031687529582019590820190600101612e76565b509495945050505050565b6020815260006112a26020830184612e62565b6001600160a01b0381168114610e7257600080fd5b60008060408385031215612ee157600080fd5b8235612eec81612eb9565b946020939093013593505050565b600060208284031215612f0c57600080fd5b81356112a281612eb9565b60008060208385031215612f2a57600080fd5b823567ffffffffffffffff80821115612f4257600080fd5b818501915085601f830112612f5657600080fd5b813581811115612f6557600080fd5b8660208260051b8501011115612f7a57600080fd5b60209290920196919550909350505050565b634e487b7160e01b600052604160045260246000fd5b604051601f8201601f1916810167ffffffffffffffff81118282101715612fcb57612fcb612f8c565b604052919050565b60008060408385031215612fe657600080fd5b8235612ff181612eb9565b915060208381013567ffffffffffffffff8082111561300f57600080fd5b818601915086601f83011261302357600080fd5b81358181111561303557613035612f8c565b613047601f8201601f19168501612fa2565b9150808252878482850101111561305d57600080fd5b80848401858401376000848284010152508093505050509250929050565b60008060006060848603121561309057600080fd5b833561309b81612eb9565b925060208401356130ab81612eb9565b929592945050506040919091013590565b600081518084526020808501945080840160005b83811015612e9b578151875295820195908201906001016130d0565b6020815260006112a260208301846130bc565b6020815261311260208201835115159052565b6000602083015161312e60408401826001600160a01b03169052565b506040830151606083015260608301516080830152608083015160a083015260a083015160c083015260c083015160e083015260e083015161010081818501528085015191505061012081818501528085015191505061014080818501525061319b6101608401826130bc565b949350505050565b6020815260008251606060208401526131bf60808401826130bc565b90506020840151601f198483030160408501526131dc82826130bc565b9150506040840151151560608401528091505092915050565b634e487b7160e01b600052601160045260246000fd5b60008261322857634e487b7160e01b600052601260045260246000fd5b500490565b60006020828403121561323f57600080fd5b81516112a281612eb9565b80820180821115610d9057610d906131f5565b60006020828403121561326f57600080fd5b815180151581146112a257600080fd5b634e487b7160e01b600052603260045260246000fd5b6000600182016132a7576132a76131f5565b5060010190565b6020808252602c908201527f46756e6374696f6e206d7573742062652063616c6c6564207468726f7567682060408201526b19195b1959d85d1958d85b1b60a21b606082015260800190565b6020808252602c908201527f46756e6374696f6e206d7573742062652063616c6c6564207468726f7567682060408201526b6163746976652070726f787960a01b606082015260800190565b8082028115828204841417610d9057610d906131f5565b600060ff821660ff8103613373576133736131f5565b60010192915050565b60006020828403121561338e57600080fd5b5051919050565b81810381811115610d9057610d906131f5565b82815260406020820152600061319b6040830184612e62565b600060208083850312156133d457600080fd5b825167ffffffffffffffff808211156133ec57600080fd5b818501915085601f83011261340057600080fd5b81518181111561341257613412612f8c565b8060051b9150613423848301612fa2565b818152918301840191848101908884111561343d57600080fd5b938501935b8385101561345b57845182529385019390850190613442565b98975050505050505050565b6020808252602b908201527f496e697469616c697a61626c653a20636f6e7472616374206973206e6f74206960408201526a6e697469616c697a696e6760a81b606082015260800190565b60005b838110156134cd5781810151838201526020016134b5565b50506000910152565b600082516134e88184602087016134b2565b9190910192915050565b60208152600082518060208401526135118160408501602087016134b2565b601f01601f1916919091016040019291505056fe360894a13ba1a3210667c828492db98dca3e2076cc3735a920a3ca505d382bbc416464726573733a206c6f772d6c6576656c2064656c65676174652063616c6c206661696c6564a2646970667358221220389a401e82c99b75f79b6deaeb652139030f5dfbd80e229c0f65ed59a84ee54d64736f6c63430008110033",
  "linkReferences": {},
  "deployedLinkReferences": {}
}