{
  "_format": "hh-sol-artifact-1",
  "contractName": "StakingUpgradeable",
  "sourceName": "contracts/StakingUpgradeable.sol",
  "abi": [
    {
      "anonymous": false,
      "inputs": [
        {
          "indexed": false,
          "internalType": "address",
          "name": "previousAdmin",
          "type": "address"
        },
        {
          "indexed": false,
          "internalType": "address",
          "name": "newAdmin",
          "type": "address"
        }
      ],
      "name": "AdminChanged",
      "type": "event"
    },
    {
      "anonymous": false,
      "inputs": [
        {
          "indexed": true,
          "internalType": "address",
          "name": "beacon",
          "type": "address"
        }
      ],
      "name": "BeaconUpgraded",
      "type": "event"
    },
    {
      "anonymous": false,
      "inputs": [
        {
          "indexed": false,
          "internalType": "uint8",
          "name": "version",
          "type": "uint8"
        }
      ],
      "name": "Initialized",
      "type": "event"
    },
    {
      "anonymous": false,
      "inputs": [
        {
          "indexed": true,
          "internalType": "address",
          "name": "previousOwner",
          "type": "address"
        },
        {
          "indexed": true,
          "internalType": "address",
          "name": "newOwner",
          "type": "address"
        }
      ],
      "name": "OwnershipTransferred",
      "type": "event"
    },
    {
      "anonymous": false,
      "inputs": [
        {
          "indexed": false,
          "internalType": "address",
          "name": "account",
          "type": "address"
        }
      ],
      "name": "Paused",
      "type": "event"
    },
    {
      "anonymous": false,
      "inputs": [
        {
          "indexed": true,
          "internalType": "address",
          "name": "userAddress",
          "type": "address"
        },
        {
          "indexed": false,
          "internalType": "uint256",
          "name": "amount",
          "type": "uint256"
        }
      ],
      "name": "PrincipalClaimed",
      "type": "event"
    },
    {
      "anonymous": false,
      "inputs": [
        {
          "indexed": true,
          "internalType": "address",
          "name": "userAddress",
          "type": "address"
        },
        {
          "indexed": true,
          "internalType": "uint256",
          "name": "valueStaked",
          "type": "uint256"
        },
        {
          "indexed": true,
          "internalType": "uint256",
          "name": "duration",
          "type": "uint256"
        },
        {
          "indexed": false,
          "internalType": "uint256",
          "name": "stakingID",
          "type": "uint256"
        }
      ],
      "name": "Stake",
      "type": "event"
    },
    {
      "anonymous": false,
      "inputs": [
        {
          "indexed": true,
          "internalType": "address",
          "name": "userAddress",
          "type": "address"
        },
        {
          "indexed": true,
          "internalType": "uint256",
          "name": "reward",
          "type": "uint256"
        },
        {
          "indexed": true,
          "internalType": "uint256",
          "name": "stakingID",
          "type": "uint256"
        },
        {
          "indexed": false,
          "internalType": "address",
          "name": "tokenAddress",
          "type": "address"
        }
      ],
      "name": "StakingRewardClaimed",
      "type": "event"
    },
    {
      "anonymous": false,
      "inputs": [
        {
          "indexed": false,
          "internalType": "address",
          "name": "account",
          "type": "address"
        }
      ],
      "name": "Unpaused",
      "type": "event"
    },
    {
      "anonymous": false,
      "inputs": [
        {
          "indexed": true,
          "internalType": "address",
          "name": "userAddress",
          "type": "address"
        },
        {
          "indexed": true,
          "internalType": "uint256",
          "name": "valueStaked",
          "type": "uint256"
        },
        {
          "indexed": true,
          "internalType": "uint256",
          "name": "stakingID",
          "type": "uint256"
        }
      ],
      "name": "Unstake",
      "type": "event"
    },
    {
      "anonymous": false,
      "inputs": [
        {
          "indexed": true,
          "internalType": "address",
          "name": "implementation",
          "type": "address"
        }
      ],
      "name": "Upgraded",
      "type": "event"
    },
    {
      "inputs": [],
      "name": "activeStakersList",
      "outputs": [
        {
          "internalType": "address[]",
          "name": "",
          "type": "address[]"
        }
      ],
      "stateMutability": "view",
      "type": "function"
    },
    {
      "inputs": [],
      "name": "allStakersList",
      "outputs": [
        {
          "internalType": "address[]",
          "name": "",
          "type": "address[]"
        }
      ],
      "stateMutability": "view",
      "type": "function"
    },
    {
      "inputs": [
        {
          "internalType": "uint256",
          "name": "_stakingID",
          "type": "uint256"
        }
      ],
      "name": "claimStakingReward",
      "outputs": [],
      "stateMutability": "nonpayable",
      "type": "function"
    },
    {
      "inputs": [
        {
          "internalType": "address[]",
          "name": "_userAddress",
          "type": "address[]"
        }
      ],
      "name": "disableAccounts",
      "outputs": [],
      "stateMutability": "nonpayable",
      "type": "function"
    },
    {
      "inputs": [
        {
          "internalType": "address[]",
          "name": "_userAddress",
          "type": "address[]"
        }
      ],
      "name": "enableAccounts",
      "outputs": [],
      "stateMutability": "nonpayable",
      "type": "function"
    },
    {
      "inputs": [],
      "name": "getActiveStakingIDs",
      "outputs": [
        {
          "internalType": "uint256[]",
          "name": "",
          "type": "uint256[]"
        }
      ],
      "stateMutability": "view",
      "type": "function"
    },
    {
      "inputs": [],
      "name": "getDisabledAccountsList",
      "outputs": [
        {
          "internalType": "address[]",
          "name": "",
          "type": "address[]"
        }
      ],
      "stateMutability": "view",
      "type": "function"
    },
    {
      "inputs": [],
      "name": "getStakingCappings",
      "outputs": [
        {
          "internalType": "uint256",
          "name": "minStakingValue",
          "type": "uint256"
        },
        {
          "internalType": "uint256",
          "name": "stakingRewardRate",
          "type": "uint256"
        },
        {
          "internalType": "uint256",
          "name": "stakingDuration",
          "type": "uint256"
        },
        {
          "internalType": "uint256",
          "name": "stakingRewardClaimTimeLimit",
          "type": "uint256"
        }
      ],
      "stateMutability": "view",
      "type": "function"
    },
    {
      "inputs": [
        {
          "internalType": "uint256",
          "name": "_stakingID",
          "type": "uint256"
        }
      ],
      "name": "getStakingReward",
      "outputs": [
        {
          "internalType": "uint256",
          "name": "",
          "type": "uint256"
        }
      ],
      "stateMutability": "view",
      "type": "function"
    },
    {
      "inputs": [],
      "name": "getStakingRewardClaimTimeLimit",
      "outputs": [
        {
          "internalType": "uint256",
          "name": "",
          "type": "uint256"
        }
      ],
      "stateMutability": "view",
      "type": "function"
    },
    {
      "inputs": [
        {
          "internalType": "uint256",
          "name": "_stakingID",
          "type": "uint256"
        }
      ],
      "name": "getStakingRewardClaimTimeRemaining",
      "outputs": [
        {
          "internalType": "uint256",
          "name": "",
          "type": "uint256"
        }
      ],
      "stateMutability": "view",
      "type": "function"
    },
    {
      "inputs": [
        {
          "internalType": "uint256",
          "name": "_stakingID",
          "type": "uint256"
        }
      ],
      "name": "getStakingTimeRemaining",
      "outputs": [
        {
          "internalType": "uint256",
          "name": "",
          "type": "uint256"
        }
      ],
      "stateMutability": "view",
      "type": "function"
    },
    {
      "inputs": [],
      "name": "getTotalStakingRewardDistributed",
      "outputs": [
        {
          "internalType": "uint256",
          "name": "_tokenRewards",
          "type": "uint256"
        },
        {
          "internalType": "uint256",
          "name": "_ansudRewards",
          "type": "uint256"
        }
      ],
      "stateMutability": "view",
      "type": "function"
    },
    {
      "inputs": [],
      "name": "getTotalValueStaked",
      "outputs": [
        {
          "internalType": "uint256",
          "name": "token",
          "type": "uint256"
        },
        {
          "internalType": "uint256",
          "name": "anusd",
          "type": "uint256"
        }
      ],
      "stateMutability": "view",
      "type": "function"
    },
    {
      "inputs": [
        {
          "internalType": "address",
          "name": "_userAddress",
          "type": "address"
        }
      ],
      "name": "getUserAllStakingsRewards",
      "outputs": [
        {
          "internalType": "uint256",
          "name": "",
          "type": "uint256"
        }
      ],
      "stateMutability": "view",
      "type": "function"
    },
    {
      "inputs": [
        {
          "internalType": "address",
          "name": "_userAddress",
          "type": "address"
        }
      ],
      "name": "getUserStakingIDs",
      "outputs": [
        {
          "internalType": "uint256[]",
          "name": "",
          "type": "uint256[]"
        }
      ],
      "stateMutability": "view",
      "type": "function"
    },
    {
      "inputs": [
        {
          "internalType": "address",
          "name": "_userAddress",
          "type": "address"
        }
      ],
      "name": "getUserTotalPrincipalClaimed",
      "outputs": [
        {
          "internalType": "uint256",
          "name": "",
          "type": "uint256"
        }
      ],
      "stateMutability": "view",
      "type": "function"
    },
    {
      "inputs": [
        {
          "internalType": "address",
          "name": "_userAddress",
          "type": "address"
        }
      ],
      "name": "getUserTotalRewardClaimedANUSD",
      "outputs": [
        {
          "internalType": "uint256",
          "name": "totalRewardClaim",
          "type": "uint256"
        }
      ],
      "stateMutability": "view",
      "type": "function"
    },
    {
      "inputs": [
        {
          "internalType": "address",
          "name": "_userAddress",
          "type": "address"
        }
      ],
      "name": "getUserTotalRewardClaimedToken",
      "outputs": [
        {
          "internalType": "uint256",
          "name": "totalRewardClaim",
          "type": "uint256"
        }
      ],
      "stateMutability": "view",
      "type": "function"
    },
    {
      "inputs": [
        {
          "internalType": "address",
          "name": "_userAddress",
          "type": "address"
        }
      ],
      "name": "getUserTotalValueStaked",
      "outputs": [
        {
          "internalType": "uint256",
          "name": "token",
          "type": "uint256"
        },
        {
          "internalType": "uint256",
          "name": "anusd",
          "type": "uint256"
        }
      ],
      "stateMutability": "view",
      "type": "function"
    },
    {
      "inputs": [],
      "name": "initialize",
      "outputs": [],
      "stateMutability": "nonpayable",
      "type": "function"
    },
    {
      "inputs": [
        {
          "internalType": "address",
          "name": "_userAddress",
          "type": "address"
        }
      ],
      "name": "isAccountDisabled",
      "outputs": [
        {
          "internalType": "bool",
          "name": "",
          "type": "bool"
        }
      ],
      "stateMutability": "view",
      "type": "function"
    },
    {
      "inputs": [
        {
          "internalType": "address",
          "name": "_userAddress",
          "type": "address"
        }
      ],
      "name": "isStaked",
      "outputs": [
        {
          "internalType": "bool",
          "name": "",
          "type": "bool"
        }
      ],
      "stateMutability": "view",
      "type": "function"
    },
    {
      "inputs": [],
      "name": "owner",
      "outputs": [
        {
          "internalType": "address",
          "name": "",
          "type": "address"
        }
      ],
      "stateMutability": "view",
      "type": "function"
    },
    {
      "inputs": [],
      "name": "pause",
      "outputs": [],
      "stateMutability": "nonpayable",
      "type": "function"
    },
    {
      "inputs": [],
      "name": "paused",
      "outputs": [
        {
          "internalType": "bool",
          "name": "",
          "type": "bool"
        }
      ],
      "stateMutability": "view",
      "type": "function"
    },
    {
      "inputs": [],
      "name": "proxiableUUID",
      "outputs": [
        {
          "internalType": "bytes32",
          "name": "",
          "type": "bytes32"
        }
      ],
      "stateMutability": "view",
      "type": "function"
    },
    {
      "inputs": [],
      "name": "renounceOwnership",
      "outputs": [],
      "stateMutability": "nonpayable",
      "type": "function"
    },
    {
      "inputs": [
        {
          "internalType": "uint256",
          "name": "_value",
          "type": "uint256"
        }
      ],
      "name": "setMinStakingValue",
      "outputs": [
        {
          "internalType": "uint256",
          "name": "",
          "type": "uint256"
        }
      ],
      "stateMutability": "nonpayable",
      "type": "function"
    },
    {
      "inputs": [
        {
          "internalType": "uint256",
          "name": "_valueInDays",
          "type": "uint256"
        }
      ],
      "name": "setStakingDuration",
      "outputs": [],
      "stateMutability": "nonpayable",
      "type": "function"
    },
    {
      "inputs": [
        {
          "internalType": "uint256",
          "name": "_valueInDays",
          "type": "uint256"
        }
      ],
      "name": "setStakingRewardClaimTimeLimity",
      "outputs": [],
      "stateMutability": "nonpayable",
      "type": "function"
    },
    {
      "inputs": [
        {
          "internalType": "uint256",
          "name": "_valueInPer",
          "type": "uint256"
        }
      ],
      "name": "setStakingRewardRate",
      "outputs": [],
      "stateMutability": "nonpayable",
      "type": "function"
    },
    {
      "inputs": [
        {
          "internalType": "address",
          "name": "_userAddress",
          "type": "address"
        },
        {
          "internalType": "uint256",
          "name": "_valueInToken",
          "type": "uint256"
        },
        {
          "internalType": "uint256",
          "name": "_valueInANUSD",
          "type": "uint256"
        }
      ],
      "name": "stakeByAdmin",
      "outputs": [],
      "stateMutability": "nonpayable",
      "type": "function"
    },
    {
      "inputs": [
        {
          "internalType": "uint256",
          "name": "_stakingID",
          "type": "uint256"
        }
      ],
      "name": "stakeInfoMap",
      "outputs": [
        {
          "components": [
            {
              "internalType": "bool",
              "name": "isStaked",
              "type": "bool"
            },
            {
              "internalType": "address",
              "name": "owner",
              "type": "address"
            },
            {
              "internalType": "uint256",
              "name": "valueInToken",
              "type": "uint256"
            },
            {
              "internalType": "uint256",
              "name": "valueInANUSD",
              "type": "uint256"
            },
            {
              "internalType": "uint256",
              "name": "rewardRate",
              "type": "uint256"
            },
            {
              "internalType": "uint256",
              "name": "startTime",
              "type": "uint256"
            },
            {
              "internalType": "uint256",
              "name": "duration",
              "type": "uint256"
            },
            {
              "internalType": "uint256",
              "name": "rewardClaimedToken",
              "type": "uint256"
            },
            {
              "internalType": "uint256",
              "name": "rewardClaimedANUSD",
              "type": "uint256"
            },
            {
              "internalType": "uint256",
              "name": "principalClaimed",
              "type": "uint256"
            },
            {
              "internalType": "uint256",
              "name": "lastTimeRewardClaimed",
              "type": "uint256"
            }
          ],
          "internalType": "struct StakingUpgradeable.StakeInfo",
          "name": "",
          "type": "tuple"
        }
      ],
      "stateMutability": "view",
      "type": "function"
    },
    {
      "inputs": [
        {
          "internalType": "address",
          "name": "_userAddress",
          "type": "address"
        },
        {
          "internalType": "uint256",
          "name": "_valueInToken",
          "type": "uint256"
        }
      ],
      "name": "stakeTopUpByAdmin",
      "outputs": [],
      "stateMutability": "nonpayable",
      "type": "function"
    },
    {
      "inputs": [
        {
          "internalType": "address",
          "name": "newOwner",
          "type": "address"
        }
      ],
      "name": "transferOwnership",
      "outputs": [],
      "stateMutability": "nonpayable",
      "type": "function"
    },
    {
      "inputs": [],
      "name": "unpause",
      "outputs": [],
      "stateMutability": "nonpayable",
      "type": "function"
    },
    {
      "inputs": [
        {
          "internalType": "address",
          "name": "newImplementation",
          "type": "address"
        }
      ],
      "name": "upgradeTo",
      "outputs": [],
      "stateMutability": "nonpayable",
      "type": "function"
    },
    {
      "inputs": [
        {
          "internalType": "address",
          "name": "newImplementation",
          "type": "address"
        },
        {
          "internalType": "bytes",
          "name": "data",
          "type": "bytes"
        }
      ],
      "name": "upgradeToAndCall",
      "outputs": [],
      "stateMutability": "payable",
      "type": "function"
    },
    {
      "inputs": [
        {
          "internalType": "address",
          "name": "_userAddress",
          "type": "address"
        }
      ],
      "name": "userAccountMap",
      "outputs": [
        {
          "components": [
            {
              "internalType": "uint256[]",
              "name": "stakingID",
              "type": "uint256[]"
            },
            {
              "internalType": "bool",
              "name": "isDisabled",
              "type": "bool"
            }
          ],
          "internalType": "struct StakingUpgradeable.Account",
          "name": "",
          "type": "tuple"
        }
      ],
      "stateMutability": "view",
      "type": "function"
    },
    {
      "inputs": [
        {
          "internalType": "address",
          "name": "_receiver",
          "type": "address"
        },
        {
          "internalType": "uint256",
          "name": "_value",
          "type": "uint256"
        }
      ],
      "name": "withdrawNativeFunds",
      "outputs": [
        {
          "internalType": "bool",
          "name": "",
          "type": "bool"
        }
      ],
      "stateMutability": "nonpayable",
      "type": "function"
    },
    {
      "inputs": [
        {
          "internalType": "address",
          "name": "_tokenAddress",
          "type": "address"
        },
        {
          "internalType": "address",
          "name": "_receiver",
          "type": "address"
        },
        {
          "internalType": "uint256",
          "name": "_value",
          "type": "uint256"
        }
      ],
      "name": "withdrawTokens",
      "outputs": [
        {
          "internalType": "bool",
          "name": "",
          "type": "bool"
        }
      ],
      "stateMutability": "nonpayable",
      "type": "function"
    },
    {
      "stateMutability": "payable",
      "type": "receive"
    }
  ],
  "bytecode": "0x60a06040523060805234801561001457600080fd5b5060805161366161004c6000396000818161122d0152818161126d015281816113a8015281816113e8015261147b01526136616000f3fe6080604052600436106102555760003560e01c80636f51b20b11610139578063a7566b75116100b6578063d596fe7f1161007a578063d596fe7f146106f7578063d8ba90b714610717578063dba4358c14610737578063deede6541461074c578063e3a51f5814610764578063f2fde38b146107a157600080fd5b8063a7566b7514610648578063abfe35ad14610675578063b7d6851914610695578063ba4f678e146106b5578063c06a5388146106e257600080fd5b80638456cb59116100fd5780638456cb591461058e5780638da5cb5b146105a3578063900a253b146105cb5780639c3fe28a146105eb578063a40b58911461060b57600080fd5b80636f51b20b146105085780636f72693b14610535578063715018a61461054a5780637ce574bf1461055f5780638129fc1c1461057957600080fd5b80634f1ef286116101d25780635e35359e116101965780635e35359e146104335780635f869714146104535780636177fd1814610488578063628b372b146104a857806366e5e570146104c85780636a8ca691146104e857600080fd5b80634f1ef286146103b357806352d1902d146103c657806353bdadea146103db5780635c975abb146103fb5780635cbfd0211461041357600080fd5b806328796bbd1161021957806328796bbd1461031e578063310c9b201461033e5780633659cfe61461035e5780633b09098f1461037e5780633f4ba83a1461039e57600080fd5b806308141e4e1461026157806322ae497e14610294578063239cd4a4146102aa578063260cb4e9146102cc57806326792aca146102ee57600080fd5b3661025c57005b600080fd5b34801561026d57600080fd5b5061028161027c366004612ea4565b6107c1565b6040519081526020015b60405180910390f35b3480156102a057600080fd5b5061010554610281565b3480156102b657600080fd5b506102ca6102c5366004612ea4565b610838565b005b3480156102d857600080fd5b506102e1610e80565b60405161028b9190612f01565b3480156102fa57600080fd5b5061030e610309366004612f29565b610ffc565b604051901515815260200161028b565b34801561032a57600080fd5b50610281610339366004612f55565b611048565b34801561034a57600080fd5b506102ca610359366004612f72565b611121565b34801561036a57600080fd5b506102ca610379366004612f55565b611223565b34801561038a57600080fd5b506102ca610399366004612fa7565b611302565b3480156103aa57600080fd5b506102ca61138c565b6102ca6103c1366004613063565b61139e565b3480156103d257600080fd5b5061028161146e565b3480156103e757600080fd5b506102ca6103f6366004612fa7565b611521565b34801561040757600080fd5b5060335460ff1661030e565b34801561041f57600080fd5b506102ca61042e366004612ea4565b6115a7565b34801561043f57600080fd5b5061030e61044e36600461310b565b6115c3565b34801561045f57600080fd5b5061047361046e366004612f55565b61164d565b6040805192835260208301919091520161028b565b34801561049457600080fd5b5061030e6104a3366004612f55565b611749565b3480156104b457600080fd5b506102816104c3366004612f55565b611826565b3480156104d457600080fd5b506102816104e3366004612f55565b611903565b3480156104f457600080fd5b506102ca610503366004612ea4565b6119d3565b34801561051457600080fd5b50610528610523366004612f55565b6119ef565b60405161028b919061317c565b34801561054157600080fd5b50610528611a5c565b34801561055657600080fd5b506102ca611b11565b34801561056b57600080fd5b506101005461010154610473565b34801561058557600080fd5b506102ca611b23565b34801561059a57600080fd5b506102ca611c8d565b3480156105af57600080fd5b506065546040516001600160a01b03909116815260200161028b565b3480156105d757600080fd5b506102ca6105e6366004612f29565b611c9d565b3480156105f757600080fd5b50610281610606366004612f55565b611d82565b34801561061757600080fd5b5061030e610626366004612f55565b6001600160a01b03166000908152610106602052604090206001015460ff1690565b34801561065457600080fd5b50610668610663366004612ea4565b611e8a565b60405161028b919061318f565b34801561068157600080fd5b50610281610690366004612ea4565b611f92565b3480156106a157600080fd5b506102ca6106b0366004612ea4565b611f9d565b3480156106c157600080fd5b506106d56106d0366004612f55565b611fab565b60405161028b919061321b565b3480156106ee57600080fd5b506102e1612043565b34801561070357600080fd5b50610281610712366004612ea4565b612197565b34801561072357600080fd5b50610281610732366004612ea4565b6121ab565b34801561074357600080fd5b506102e1612210565b34801561075857600080fd5b5060fd5460fe54610473565b34801561077057600080fd5b506101025461010354610104546101055460408051948552602085019390935291830152606082015260800161028b565b3480156107ad57600080fd5b506102ca6107bc366004612f55565b612374565b60008181526101076020526040812060098101544291901561082457816101055482600901546107f19190613265565b10610819578161010554826009015461080a9190613265565b6108149190613278565b61081c565b60005b949350505050565b816101055482600401546107f19190613265565b6108406123ea565b600061084b82612430565b90506000610858836124b9565b9050600082116108af5760405162461bcd60e51b815260206004820152601c60248201527f596f752068617665206e6f207374616b696e67206f7220656e6465640000000060448201526064015b60405180910390fd5b60fb5460008481526101076020908152604080832033808552610106909352922082546001600160a01b0394851694929392429161010090041684146109475760405162461bcd60e51b815260206004820152602760248201527f536f727279207374616b696e6720696420646f656e27742062656c6f6e6773206044820152663a37903cb7ba9760c91b60648201526084016108a6565b600182015460ff16156109b45760405162461bcd60e51b815260206004820152602f60248201527f596f7572206163636f756e742069732064697361626c65642e20506c6561736560448201526e1031b7b73a30b1ba1030b236b4b71760891b60648201526084016108a6565b426101055484600901546109c89190613265565b10610a275760405162461bcd60e51b815260206004820152602960248201527f596f752063616e6e6f7420636c61696d20726577617264206265666f7265207460448201526834b6b2b634b6b4ba1760b91b60648201526084016108a6565b6000610b58866001600160a01b031663b70cc4c16040518163ffffffff1660e01b8152600401602060405180830381865afa158015610a6a573d6000803e3d6000fd5b505050506040513d601f19601f82011682018060405250810190610a8e919061328b565b89886001600160a01b03166355a373d66040518163ffffffff1660e01b8152600401602060405180830381865afa158015610acd573d6000803e3d6000fd5b505050506040513d601f19601f82011682018060405250810190610af1919061328b565b896001600160a01b0316638290c4a66040518163ffffffff1660e01b8152600401602060405180830381865afa158015610b2f573d6000803e3d6000fd5b505050506040513d601f19601f82011682018060405250810190610b53919061328b565b612509565b905086846008016000828254610b6e9190613265565b925050819055508660ff6000828254610b879190613265565b9250508190555080600181518110610ba157610ba16132a8565b6020026020010151846006016000828254610bbc9190613265565b9250508190555080600081518110610bd657610bd66132a8565b6020026020010151846007016000828254610bf19190613265565b909155505060098401829055805181906001908110610c1257610c126132a8565b60200260200101516101006000828254610c2c9190613265565b9250508190555080600081518110610c4657610c466132a8565b60200260200101516101016000828254610c609190613265565b92505081905550856001600160a01b03166355a373d66040518163ffffffff1660e01b8152600401602060405180830381865afa158015610ca5573d6000803e3d6000fd5b505050506040513d601f19601f82011682018060405250810190610cc9919061328b565b6001600160a01b031663a9059cbb868984600181518110610cec57610cec6132a8565b6020026020010151610cfe9190613265565b6040516001600160e01b031960e085901b1681526001600160a01b03909216600483015260248201526044016020604051808303816000875af1158015610d49573d6000803e3d6000fd5b505050506040513d601f19601f82011682018060405250810190610d6d91906132be565b50846001600160a01b03167f2e6100b89b43378c0aeb062f2df0cfaa63e4437abab6844b441f8e47cb31bec388604051610da991815260200190565b60405180910390a28881600181518110610dc557610dc56132a8565b6020026020010151866001600160a01b03167ffec605188cf64597b9aa9cf424a9bba4a84ffb09f9f66c932d6efa1b96fcc7e4896001600160a01b03166355a373d66040518163ffffffff1660e01b8152600401602060405180830381865afa158015610e36573d6000803e3d6000fd5b505050506040513d601f19601f82011682018060405250810190610e5a919061328b565b6040516001600160a01b03909116815260200160405180910390a4505050505050505050565b6000808052610106602090815260fc80546040805182850281018501909152818152606094937f36b574eb542e18a2932b42c3f7b99e0cccde75c2d7e80ac19800931af8e17fa29385939091830182828015610f0557602002820191906000526020600020905b81546001600160a01b03168152600190910190602001808311610ee7575b5050505050905060008151905060008167ffffffffffffffff811115610f2d57610f2d61301c565b604051908082528060200260200182016040528015610f56578160200160208202803683370190505b5090506000805b83811015610ff057848181518110610f7757610f776132a8565b60200260200101519650610f8b838861268c565b1515600114610fde5760018087015460ff1615159003610fde5786838381518110610fb857610fb86132a8565b6001600160a01b039092166020928302919091019091015281610fda816132e0565b9250505b80610fe8816132e0565b915050610f5d565b50909695505050505050565b60006110066126f1565b6040516001600160a01b0384169083156108fc029084906000818181858888f1935050505015801561103c573d6000803e3d6000fd5b50600190505b92915050565b6001600160a01b0381166000908152610106602090815260408083208054825181850281018501909352808352909284929184918301828280156110ab57602002820191906000526020600020905b815481526020019060010190808311611097575b505083519394506000925050505b8181101561111857600061010760008584815181106110da576110da6132a8565b6020026020010151815260200190815260200160002090508060070154866111029190613265565b9550508080611110906132e0565b9150506110b9565b50505050919050565b60fb5433906001600160a01b03166111416065546001600160a01b031690565b6001600160a01b0316826001600160a01b031614806111d25750806001600160a01b03166363d9df856040518163ffffffff1660e01b8152600401602060405180830381865afa158015611199573d6000803e3d6000fd5b505050506040513d601f19601f820116820180604052508101906111bd919061328b565b6001600160a01b0316826001600160a01b0316145b6111ee5760405162461bcd60e51b81526004016108a6906132f9565b61121b858560646101035487611204919061333b565b61120e9190613352565b610103546101045461274b565b505050505050565b6001600160a01b037f000000000000000000000000000000000000000000000000000000000000000016300361126b5760405162461bcd60e51b81526004016108a690613374565b7f00000000000000000000000000000000000000000000000000000000000000006001600160a01b03166112b46000805160206135e5833981519152546001600160a01b031690565b6001600160a01b0316146112da5760405162461bcd60e51b81526004016108a6906133c0565b6112e3816128d9565b604080516000808252602082019092526112ff918391906128e1565b50565b61130a6126f1565b60008080526101066020527f36b574eb542e18a2932b42c3f7b99e0cccde75c2d7e80ac19800931af8e17fa282825b8181101561121b57858582818110611353576113536132a8565b90506020020160208101906113689190612f55565b6001848101805460ff19169091179055935080611384816132e0565b915050611339565b6113946126f1565b61139c612a51565b565b6001600160a01b037f00000000000000000000000000000000000000000000000000000000000000001630036113e65760405162461bcd60e51b81526004016108a690613374565b7f00000000000000000000000000000000000000000000000000000000000000006001600160a01b031661142f6000805160206135e5833981519152546001600160a01b031690565b6001600160a01b0316146114555760405162461bcd60e51b81526004016108a6906133c0565b61145e826128d9565b61146a828260016128e1565b5050565b6000306001600160a01b037f0000000000000000000000000000000000000000000000000000000000000000161461150e5760405162461bcd60e51b815260206004820152603860248201527f555550535570677261646561626c653a206d757374206e6f742062652063616c60448201527f6c6564207468726f7567682064656c656761746563616c6c000000000000000060648201526084016108a6565b506000805160206135e583398151915290565b6115296126f1565b60008080526101066020527f36b574eb542e18a2932b42c3f7b99e0cccde75c2d7e80ac19800931af8e17fa282825b8181101561121b57858582818110611572576115726132a8565b90506020020160208101906115879190612f55565b60018401805460ff1916905593508061159f816132e0565b915050611558565b6115af6126f1565b6115bc816201518061333b565b6101055550565b60006115cd6126f1565b60405163a9059cbb60e01b81526001600160a01b0384811660048301526024820184905285169063a9059cbb906044016020604051808303816000875af115801561161c573d6000803e3d6000fd5b505050506040513d601f19601f8201168201806040525081019061164091906132be565b50600190505b9392505050565b6001600160a01b0381166000908152610106602090815260408083208054825181850281018501909352808352849391928492909184918301828280156116b357602002820191906000526020600020905b81548152602001906001019080831161169f575b505083519394506000925050505b8181101561174057600061010760008584815181106116e2576116e26132a8565b6020908102919091018101518252810191909152604001600020805490915060ff161561172d5760018101546117189088613265565b965080600201548661172a9190613265565b95505b5080611738816132e0565b9150506116c1565b50505050915091565b6001600160a01b0381166000908152610106602090815260408083208054825181850281018501909352808352909284929184918301828280156117ac57602002820191906000526020600020905b815481526020019060010190808311611798575b505083519394506000925050505b8181101561181a5761010760008483815181106117d9576117d96132a8565b60209081029190910181015182528101919091526040016000205460ff16156118085750600195945050505050565b80611812816132e0565b9150506117ba565b50600095945050505050565b6001600160a01b03811660009081526101066020908152604080832080548251818502810185019093528083529092849291849183018282801561188957602002820191906000526020600020905b815481526020019060010190808311611875575b505050505090506000815190506000805b828110156118f957600061010760008684815181106118bb576118bb6132a8565b6020026020010151815260200190815260200160002090508060080154836118e39190613265565b92505080806118f1906132e0565b91505061189a565b5095945050505050565b6001600160a01b03811660009081526101066020908152604080832080548251818502810185019093528083529092849291849183018282801561196657602002820191906000526020600020905b815481526020019060010190808311611952575b505083519394506000925050505b818110156111185760006101076000858481518110611995576119956132a8565b6020026020010151815260200190815260200160002090508060060154866119bd9190613265565b95505080806119cb906132e0565b915050611974565b6119db6126f1565b6119e8816201518061333b565b6101045550565b6001600160a01b03811660009081526101066020908152604091829020805483518184028101840190945280845260609392830182828015611a5057602002820191906000526020600020905b815481526020019060010190808311611a3c575b50505050509050919050565b60fc5460609060008167ffffffffffffffff811115611a7d57611a7d61301c565b604051908082528060200260200182016040528015611aa6578160200160208202803683370190505b50905060005b82811015611b0a57600081815261010760205260409020805460ff161515600103611af7578115611af75781838381518110611aea57611aea6132a8565b6020026020010181815250505b5080611b02816132e0565b915050611aac565b5092915050565b611b196126f1565b61139c6000612aa3565b600054610100900460ff1615808015611b435750600054600160ff909116105b80611b5d5750303b158015611b5d575060005460ff166001145b611bc05760405162461bcd60e51b815260206004820152602e60248201527f496e697469616c697a61626c653a20636f6e747261637420697320616c72656160448201526d191e481a5b9a5d1a585b1a5e995960921b60648201526084016108a6565b6000805460ff191660011790558015611be3576000805461ff0019166101001790555b60fb80546001600160a01b0319167377daafc7411c911b869c71bf70fe36cce507845d179055678ac7230489e80000610102556096610103556303e9f4006101045562278d0061010555611c35612af5565b611c3d612b24565b611c45612b53565b80156112ff576000805461ff0019169055604051600181527f7f26b83ff96e1f2b6a682f133852f6798a09c465da95921460cefb38474024989060200160405180910390a150565b611c956126f1565b61139c612b7a565b60fb5433906001600160a01b0316611cbd6065546001600160a01b031690565b6001600160a01b0316826001600160a01b03161480611d4e5750806001600160a01b03166363d9df856040518163ffffffff1660e01b8152600401602060405180830381865afa158015611d15573d6000803e3d6000fd5b505050506040513d601f19601f82011682018060405250810190611d39919061328b565b6001600160a01b0316826001600160a01b0316145b611d6a5760405162461bcd60e51b81526004016108a6906132f9565b611d7b84846000806101045461274b565b5050505050565b6001600160a01b03811660009081526101066020908152604080832080548251818502810185019093528083528493830182828015611de057602002820191906000526020600020905b815481526020019060010190808311611dcc575b505050505090506000815190506000805b828160ff161015611e81576101076000858360ff1681518110611e1657611e166132a8565b60209081029190910181015182528101919091526040016000205460ff161515600103611e6f57611e62848260ff1681518110611e5557611e556132a8565b6020026020010151612430565b611e6c9083613265565b91505b80611e798161340c565b915050611df1565b50949350505050565b611ef260405180610160016040528060001515815260200160006001600160a01b031681526020016000815260200160008152602001600081526020016000815260200160008152602001600081526020016000815260200160008152602001600081525090565b5060009081526101076020908152604091829020825161016081018452815460ff8116151582526001600160a01b036101009182900416938201939093526001820154938101939093526002810154606084015260038101546080840152600481015460a0840152600581015460c0840152600681015460e084015260078101549183019190915260088101546101208301526009015461014082015290565b600061104282612430565b611fa56126f1565b61010355565b6040805180820182526060808252600060208084018290526001600160a01b03861682526101068152908490208451815492830281018401865294850182815293949390928492849184018282801561202357602002820191906000526020600020905b81548152602001906001019080831161200f575b50505091835250506001919091015460ff16151560209091015292915050565b6060600060fc80548060200260200160405190810160405280929190818152602001828054801561209d57602002820191906000526020600020905b81546001600160a01b0316815260019091019060200180831161207f575b5050505050905060008151905060008167ffffffffffffffff8111156120c5576120c561301c565b6040519080825280602002602001820160405280156120ee578160200160208202803683370190505b5090506000805b8381101561218d5761212083868381518110612113576121136132a8565b602002602001015161268c565b151560011461217b5784818151811061213b5761213b6132a8565b6020026020010151838381518110612155576121556132a8565b6001600160a01b039092166020928302919091019091015281612177816132e0565b9250505b80612185816132e0565b9150506120f5565b5090949350505050565b60006121a16126f1565b5061010281905590565b6000818152610107602052604081206005810154600482015442929184916121d39190613265565b9050808310156122055782826005015483600401546121f29190613265565b6121fc9190613278565b95945050505050565b506000949350505050565b6060600060fc80548060200260200160405190810160405280929190818152602001828054801561226a57602002820191906000526020600020905b81546001600160a01b0316815260019091019060200180831161224c575b5050505050905060008151905060008167ffffffffffffffff8111156122925761229261301c565b6040519080825280602002602001820160405280156122bb578160200160208202803683370190505b5090506000805b8381101561218d576122e083868381518110612113576121136132a8565b15156001146123625761230b8582815181106122fe576122fe6132a8565b6020026020010151611749565b1561236257848181518110612322576123226132a8565b602002602001015183838151811061233c5761233c6132a8565b6001600160a01b03909216602092830291909101909101528161235e816132e0565b9250505b8061236c816132e0565b9150506122c2565b61237c6126f1565b6001600160a01b0381166123e15760405162461bcd60e51b815260206004820152602660248201527f4f776e61626c653a206e6577206f776e657220697320746865207a65726f206160448201526564647265737360d01b60648201526084016108a6565b6112ff81612aa3565b60335460ff161561139c5760405162461bcd60e51b815260206004820152601060248201526f14185d5cd8589b194e881c185d5cd95960821b60448201526064016108a6565b600081815261010760205260408120600481015442919083906124539084613278565b905060008260050154606484600301548560020154612472919061333b565b61247c9190613352565b6124869190613352565b9050826007015461249b838560050154612bb7565b6124a5908361333b565b6124af9190613278565b9695505050505050565b600081815261010760205260408120600481015442919083906124dc9084613278565b90506000826005015483600101546124f49190613352565b9050826008015461249b838560050154612bb7565b604080516002808252606080830184529260009291906020830190803683370190505090508581600081518110612542576125426132a8565b60200260200101906001600160a01b031690816001600160a01b0316815250508381600181518110612576576125766132a8565b6001600160a01b03928316602091820292909201015260405163095ea7b360e01b81528482166004820152602481018790529087169063095ea7b3906044016020604051808303816000875af11580156125d4573d6000803e3d6000fd5b505050506040513d601f19601f820116820180604052508101906125f891906132be565b5060006001600160a01b0384166338ed1739876001853061261a426064613265565b6040518663ffffffff1660e01b815260040161263a95949392919061342b565b6000604051808303816000875af1158015612659573d6000803e3d6000fd5b505050506040513d6000823e601f3d908101601f191682016040526126819190810190613467565b979650505050505050565b6000805b83518110156126e757826001600160a01b03168482815181106126b5576126b56132a8565b60200260200101516001600160a01b0316036126d5576001915050611042565b806126df816132e0565b915050612690565b5060009392505050565b6065546001600160a01b0316331461139c5760405162461bcd60e51b815260206004820181905260248201527f4f776e61626c653a2063616c6c6572206973206e6f7420746865206f776e657260448201526064016108a6565b60fc8054600180820183557f371f36870d18f32a11fea0f144b021c8b407bb50f8e0267c711123f454b963c090910180546001600160a01b0319166001600160a01b038916908117909155915460008381526101066020908152604080832084845261010783529083208154808701835582855292842090920184905581546001600160a81b0319166101009096029590951784178155426004820181905560058201879055938101899055600281018890556003810187905560fd80549295939493928a9190879061281f908490613265565b925050819055508760fe60008282546128389190613265565b9250508190555085898b6001600160a01b03167ff556991011e831bcfac4f406d547e5e32cdd98267efab83935230d5f8d02c4468760405161287c91815260200190565b60405180910390a485888b6001600160a01b03167ff556991011e831bcfac4f406d547e5e32cdd98267efab83935230d5f8d02c446876040516128c191815260200190565b60405180910390a45060019998505050505050505050565b6112ff6126f1565b7f4910fdfa16fed3260ed0e7147f7cc6da11a60208b5b9406d12a635614ffd91435460ff16156129195761291483612bcd565b505050565b826001600160a01b03166352d1902d6040518163ffffffff1660e01b8152600401602060405180830381865afa925050508015612973575060408051601f3d908101601f191682019092526129709181019061350d565b60015b6129d65760405162461bcd60e51b815260206004820152602e60248201527f45524331393637557067726164653a206e657720696d706c656d656e7461746960448201526d6f6e206973206e6f74205555505360901b60648201526084016108a6565b6000805160206135e58339815191528114612a455760405162461bcd60e51b815260206004820152602960248201527f45524331393637557067726164653a20756e737570706f727465642070726f786044820152681a58589b195555525160ba1b60648201526084016108a6565b50612914838383612c69565b612a59612c94565b6033805460ff191690557f5db9ee0a495bf2e6ff9c91a7834c1ba4fdd244a5e8aa4e537bd38aeae4b073aa335b6040516001600160a01b03909116815260200160405180910390a1565b606580546001600160a01b038381166001600160a01b0319831681179093556040519116919082907f8be0079c531659141344cd1fd0a4f28419497f9722a3daafe3b4186f6b6457e090600090a35050565b600054610100900460ff16612b1c5760405162461bcd60e51b81526004016108a690613526565b61139c612cdd565b600054610100900460ff16612b4b5760405162461bcd60e51b81526004016108a690613526565b61139c612d10565b600054610100900460ff1661139c5760405162461bcd60e51b81526004016108a690613526565b612b826123ea565b6033805460ff191660011790557f62e78cea01bee320cd4e420270b5ea74000d11b0c9f74754ebdbfc544b05a258612a863390565b6000818310612bc65781611646565b5090919050565b6001600160a01b0381163b612c3a5760405162461bcd60e51b815260206004820152602d60248201527f455243313936373a206e657720696d706c656d656e746174696f6e206973206e60448201526c1bdd08184818dbdb9d1c9858dd609a1b60648201526084016108a6565b6000805160206135e583398151915280546001600160a01b0319166001600160a01b0392909216919091179055565b612c7283612d40565b600082511180612c7f5750805b1561291457612c8e8383612d80565b50505050565b60335460ff1661139c5760405162461bcd60e51b815260206004820152601460248201527314185d5cd8589b194e881b9bdd081c185d5cd95960621b60448201526064016108a6565b600054610100900460ff16612d045760405162461bcd60e51b81526004016108a690613526565b6033805460ff19169055565b600054610100900460ff16612d375760405162461bcd60e51b81526004016108a690613526565b61139c33612aa3565b612d4981612bcd565b6040516001600160a01b038216907fbc7cd75a20ee27fd9adebab32041f755214dbc6bffa90cc0225b39da2e5c2d3b90600090a250565b60606001600160a01b0383163b612de85760405162461bcd60e51b815260206004820152602660248201527f416464726573733a2064656c65676174652063616c6c20746f206e6f6e2d636f6044820152651b9d1c9858dd60d21b60648201526084016108a6565b600080846001600160a01b031684604051612e039190613595565b600060405180830381855af49150503d8060008114612e3e576040519150601f19603f3d011682016040523d82523d6000602084013e612e43565b606091505b50915091506121fc82826040518060600160405280602781526020016136056027913960608315612e75575081611646565b6116468383815115612e8a5781518083602001fd5b8060405162461bcd60e51b81526004016108a691906135b1565b600060208284031215612eb657600080fd5b5035919050565b600081518084526020808501945080840160005b83811015612ef65781516001600160a01b031687529582019590820190600101612ed1565b509495945050505050565b6020815260006116466020830184612ebd565b6001600160a01b03811681146112ff57600080fd5b60008060408385031215612f3c57600080fd5b8235612f4781612f14565b946020939093013593505050565b600060208284031215612f6757600080fd5b813561164681612f14565b600080600060608486031215612f8757600080fd5b8335612f9281612f14565b95602085013595506040909401359392505050565b60008060208385031215612fba57600080fd5b823567ffffffffffffffff80821115612fd257600080fd5b818501915085601f830112612fe657600080fd5b813581811115612ff557600080fd5b8660208260051b850101111561300a57600080fd5b60209290920196919550909350505050565b634e487b7160e01b600052604160045260246000fd5b604051601f8201601f1916810167ffffffffffffffff8111828210171561305b5761305b61301c565b604052919050565b6000806040838503121561307657600080fd5b823561308181612f14565b915060208381013567ffffffffffffffff8082111561309f57600080fd5b818601915086601f8301126130b357600080fd5b8135818111156130c5576130c561301c565b6130d7601f8201601f19168501613032565b915080825287848285010111156130ed57600080fd5b80848401858401376000848284010152508093505050509250929050565b60008060006060848603121561312057600080fd5b833561312b81612f14565b9250602084013561313b81612f14565b929592945050506040919091013590565b600081518084526020808501945080840160005b83811015612ef657815187529582019590820190600101613160565b602081526000611646602083018461314c565b815115158152610160810160208301516131b460208401826001600160a01b03169052565b5060408301516040830152606083015160608301526080830151608083015260a083015160a083015260c083015160c083015260e083015160e083015261010080840151818401525061012080840151818401525061014080840151818401525092915050565b602081526000825160406020840152613237606084018261314c565b90506020840151151560408401528091505092915050565b634e487b7160e01b600052601160045260246000fd5b808201808211156110425761104261324f565b818103818111156110425761104261324f565b60006020828403121561329d57600080fd5b815161164681612f14565b634e487b7160e01b600052603260045260246000fd5b6000602082840312156132d057600080fd5b8151801515811461164657600080fd5b6000600182016132f2576132f261324f565b5060010190565b60208082526022908201527f4f6e6c79206f776e65722063616e2063616c6c20746869732066756e6374696f604082015261371760f11b606082015260800190565b80820281158282048414176110425761104261324f565b60008261336f57634e487b7160e01b600052601260045260246000fd5b500490565b6020808252602c908201527f46756e6374696f6e206d7573742062652063616c6c6564207468726f7567682060408201526b19195b1959d85d1958d85b1b60a21b606082015260800190565b6020808252602c908201527f46756e6374696f6e206d7573742062652063616c6c6564207468726f7567682060408201526b6163746976652070726f787960a01b606082015260800190565b600060ff821660ff81036134225761342261324f565b60010192915050565b85815284602082015260a06040820152600061344a60a0830186612ebd565b6001600160a01b0394909416606083015250608001529392505050565b6000602080838503121561347a57600080fd5b825167ffffffffffffffff8082111561349257600080fd5b818501915085601f8301126134a657600080fd5b8151818111156134b8576134b861301c565b8060051b91506134c9848301613032565b81815291830184019184810190888411156134e357600080fd5b938501935b83851015613501578451825293850193908501906134e8565b98975050505050505050565b60006020828403121561351f57600080fd5b5051919050565b6020808252602b908201527f496e697469616c697a61626c653a20636f6e7472616374206973206e6f74206960408201526a6e697469616c697a696e6760a81b606082015260800190565b60005b8381101561358c578181015183820152602001613574565b50506000910152565b600082516135a7818460208701613571565b9190910192915050565b60208152600082518060208401526135d0816040850160208701613571565b601f01601f1916919091016040019291505056fe360894a13ba1a3210667c828492db98dca3e2076cc3735a920a3ca505d382bbc416464726573733a206c6f772d6c6576656c2064656c65676174652063616c6c206661696c6564a26469706673582212201756752c6bc8036f0cbc1817ddddb6c1907c2a69dd984b84af06c9577edfa70b64736f6c63430008110033",
  "linkReferences": {},
  "deployedLinkReferences": {}
}