{
  "_format": "hh-sol-artifact-1",
  "contractName": "StakingUpgradeable",
  "sourceName": "contracts/StakingUpgradeable.sol",
  "abi": [
    {
      "anonymous": false,
      "inputs": [
        {
          "indexed": false,
          "internalType": "address",
          "name": "previousAdmin",
          "type": "address"
        },
        {
          "indexed": false,
          "internalType": "address",
          "name": "newAdmin",
          "type": "address"
        }
      ],
      "name": "AdminChanged",
      "type": "event"
    },
    {
      "anonymous": false,
      "inputs": [
        {
          "indexed": true,
          "internalType": "address",
          "name": "beacon",
          "type": "address"
        }
      ],
      "name": "BeaconUpgraded",
      "type": "event"
    },
    {
      "anonymous": false,
      "inputs": [
        {
          "indexed": false,
          "internalType": "uint8",
          "name": "version",
          "type": "uint8"
        }
      ],
      "name": "Initialized",
      "type": "event"
    },
    {
      "anonymous": false,
      "inputs": [
        {
          "indexed": true,
          "internalType": "address",
          "name": "previousOwner",
          "type": "address"
        },
        {
          "indexed": true,
          "internalType": "address",
          "name": "newOwner",
          "type": "address"
        }
      ],
      "name": "OwnershipTransferred",
      "type": "event"
    },
    {
      "anonymous": false,
      "inputs": [
        {
          "indexed": false,
          "internalType": "address",
          "name": "account",
          "type": "address"
        }
      ],
      "name": "Paused",
      "type": "event"
    },
    {
      "anonymous": false,
      "inputs": [
        {
          "indexed": true,
          "internalType": "address",
          "name": "userAddress",
          "type": "address"
        },
        {
          "indexed": true,
          "internalType": "uint256",
          "name": "valueStaked",
          "type": "uint256"
        },
        {
          "indexed": true,
          "internalType": "uint256",
          "name": "duration",
          "type": "uint256"
        },
        {
          "indexed": false,
          "internalType": "uint256",
          "name": "stakingID",
          "type": "uint256"
        }
      ],
      "name": "Stake",
      "type": "event"
    },
    {
      "anonymous": false,
      "inputs": [
        {
          "indexed": true,
          "internalType": "address",
          "name": "userAddress",
          "type": "address"
        },
        {
          "indexed": true,
          "internalType": "uint256",
          "name": "reward",
          "type": "uint256"
        },
        {
          "indexed": true,
          "internalType": "uint256",
          "name": "stakingID",
          "type": "uint256"
        }
      ],
      "name": "StakingRewardClaimed",
      "type": "event"
    },
    {
      "anonymous": false,
      "inputs": [
        {
          "indexed": false,
          "internalType": "address",
          "name": "account",
          "type": "address"
        }
      ],
      "name": "Unpaused",
      "type": "event"
    },
    {
      "anonymous": false,
      "inputs": [
        {
          "indexed": true,
          "internalType": "address",
          "name": "userAddress",
          "type": "address"
        },
        {
          "indexed": true,
          "internalType": "uint256",
          "name": "valueStaked",
          "type": "uint256"
        },
        {
          "indexed": true,
          "internalType": "uint256",
          "name": "stakingID",
          "type": "uint256"
        }
      ],
      "name": "Unstake",
      "type": "event"
    },
    {
      "anonymous": false,
      "inputs": [
        {
          "indexed": true,
          "internalType": "address",
          "name": "implementation",
          "type": "address"
        }
      ],
      "name": "Upgraded",
      "type": "event"
    },
    {
      "anonymous": false,
      "inputs": [
        {
          "indexed": true,
          "internalType": "address",
          "name": "userAddress",
          "type": "address"
        },
        {
          "indexed": true,
          "internalType": "uint256",
          "name": "value",
          "type": "uint256"
        }
      ],
      "name": "UserWithdrawFunds",
      "type": "event"
    },
    {
      "inputs": [],
      "name": "activeStakersList",
      "outputs": [
        {
          "internalType": "address[]",
          "name": "",
          "type": "address[]"
        }
      ],
      "stateMutability": "view",
      "type": "function"
    },
    {
      "inputs": [],
      "name": "allStakersList",
      "outputs": [
        {
          "internalType": "address[]",
          "name": "",
          "type": "address[]"
        }
      ],
      "stateMutability": "view",
      "type": "function"
    },
    {
      "inputs": [
        {
          "internalType": "uint256",
          "name": "_stakingID",
          "type": "uint256"
        }
      ],
      "name": "claimStakingReward",
      "outputs": [],
      "stateMutability": "nonpayable",
      "type": "function"
    },
    {
      "inputs": [
        {
          "internalType": "uint256[]",
          "name": "_stakingIDs",
          "type": "uint256[]"
        }
      ],
      "name": "claimStakingRewardAdmin",
      "outputs": [],
      "stateMutability": "nonpayable",
      "type": "function"
    },
    {
      "inputs": [
        {
          "internalType": "address[]",
          "name": "_userAddress",
          "type": "address[]"
        }
      ],
      "name": "disableAccounts",
      "outputs": [],
      "stateMutability": "nonpayable",
      "type": "function"
    },
    {
      "inputs": [
        {
          "internalType": "address[]",
          "name": "_userAddress",
          "type": "address[]"
        }
      ],
      "name": "enableAccounts",
      "outputs": [],
      "stateMutability": "nonpayable",
      "type": "function"
    },
    {
      "inputs": [],
      "name": "getActiveStakingIDs",
      "outputs": [
        {
          "internalType": "uint256[]",
          "name": "activeStakingIDs",
          "type": "uint256[]"
        }
      ],
      "stateMutability": "view",
      "type": "function"
    },
    {
      "inputs": [],
      "name": "getDisabledAccountsList",
      "outputs": [
        {
          "internalType": "address[]",
          "name": "",
          "type": "address[]"
        }
      ],
      "stateMutability": "view",
      "type": "function"
    },
    {
      "inputs": [],
      "name": "getPackages",
      "outputs": [
        {
          "internalType": "uint256[]",
          "name": "valuesInDecimals",
          "type": "uint256[]"
        },
        {
          "internalType": "uint256[]",
          "name": "rewardRateInPer",
          "type": "uint256[]"
        },
        {
          "internalType": "uint256[]",
          "name": "durationInDays",
          "type": "uint256[]"
        },
        {
          "internalType": "uint256",
          "name": "count",
          "type": "uint256"
        }
      ],
      "stateMutability": "view",
      "type": "function"
    },
    {
      "inputs": [],
      "name": "getPresaleContract",
      "outputs": [
        {
          "internalType": "address",
          "name": "",
          "type": "address"
        }
      ],
      "stateMutability": "view",
      "type": "function"
    },
    {
      "inputs": [],
      "name": "getReferralContract",
      "outputs": [
        {
          "internalType": "address",
          "name": "",
          "type": "address"
        }
      ],
      "stateMutability": "view",
      "type": "function"
    },
    {
      "inputs": [],
      "name": "getStakingCappings",
      "outputs": [
        {
          "internalType": "uint256",
          "name": "minStakingValue",
          "type": "uint256"
        },
        {
          "internalType": "uint256",
          "name": "timeLimitRewardClaim",
          "type": "uint256"
        },
        {
          "internalType": "bool",
          "name": "payReferralOnStaking",
          "type": "bool"
        },
        {
          "internalType": "uint8",
          "name": "maxPackageLength",
          "type": "uint8"
        },
        {
          "internalType": "uint256",
          "name": "rewardRateDecimals",
          "type": "uint256"
        }
      ],
      "stateMutability": "view",
      "type": "function"
    },
    {
      "inputs": [
        {
          "internalType": "uint256",
          "name": "_stakingID",
          "type": "uint256"
        }
      ],
      "name": "getStakingReward",
      "outputs": [
        {
          "internalType": "uint256",
          "name": "",
          "type": "uint256"
        }
      ],
      "stateMutability": "view",
      "type": "function"
    },
    {
      "inputs": [
        {
          "internalType": "uint256",
          "name": "_stakingID",
          "type": "uint256"
        }
      ],
      "name": "getStakingTimeRemaining",
      "outputs": [
        {
          "internalType": "uint256",
          "name": "",
          "type": "uint256"
        }
      ],
      "stateMutability": "view",
      "type": "function"
    },
    {
      "inputs": [],
      "name": "getTotalStakingRewardDistributed",
      "outputs": [
        {
          "internalType": "uint256",
          "name": "",
          "type": "uint256"
        }
      ],
      "stateMutability": "view",
      "type": "function"
    },
    {
      "inputs": [],
      "name": "getTotalValueStaked",
      "outputs": [
        {
          "internalType": "uint256",
          "name": "",
          "type": "uint256"
        }
      ],
      "stateMutability": "view",
      "type": "function"
    },
    {
      "inputs": [
        {
          "internalType": "address",
          "name": "_userAddress",
          "type": "address"
        }
      ],
      "name": "getUserAllStakingsRewards",
      "outputs": [
        {
          "internalType": "uint256",
          "name": "",
          "type": "uint256"
        }
      ],
      "stateMutability": "view",
      "type": "function"
    },
    {
      "inputs": [
        {
          "internalType": "address",
          "name": "_userAddress",
          "type": "address"
        }
      ],
      "name": "getUserStakingIDs",
      "outputs": [
        {
          "internalType": "uint256[]",
          "name": "",
          "type": "uint256[]"
        }
      ],
      "stateMutability": "view",
      "type": "function"
    },
    {
      "inputs": [
        {
          "internalType": "address",
          "name": "_userAddress",
          "type": "address"
        }
      ],
      "name": "getUserTotalRewardClaimed",
      "outputs": [
        {
          "internalType": "uint256",
          "name": "totalRewardClaim",
          "type": "uint256"
        }
      ],
      "stateMutability": "view",
      "type": "function"
    },
    {
      "inputs": [
        {
          "internalType": "address",
          "name": "_userAddress",
          "type": "address"
        }
      ],
      "name": "getUserTotalStakedValue",
      "outputs": [
        {
          "internalType": "uint256",
          "name": "userTotalValueStaked",
          "type": "uint256"
        }
      ],
      "stateMutability": "view",
      "type": "function"
    },
    {
      "inputs": [],
      "name": "initialize",
      "outputs": [],
      "stateMutability": "nonpayable",
      "type": "function"
    },
    {
      "inputs": [
        {
          "internalType": "address",
          "name": "_userAddress",
          "type": "address"
        }
      ],
      "name": "isAccountDisabled",
      "outputs": [
        {
          "internalType": "bool",
          "name": "",
          "type": "bool"
        }
      ],
      "stateMutability": "view",
      "type": "function"
    },
    {
      "inputs": [
        {
          "internalType": "address",
          "name": "_userAddress",
          "type": "address"
        }
      ],
      "name": "isStaked",
      "outputs": [
        {
          "internalType": "bool",
          "name": "",
          "type": "bool"
        }
      ],
      "stateMutability": "view",
      "type": "function"
    },
    {
      "inputs": [],
      "name": "owner",
      "outputs": [
        {
          "internalType": "address",
          "name": "",
          "type": "address"
        }
      ],
      "stateMutability": "view",
      "type": "function"
    },
    {
      "inputs": [],
      "name": "pause",
      "outputs": [],
      "stateMutability": "nonpayable",
      "type": "function"
    },
    {
      "inputs": [],
      "name": "paused",
      "outputs": [
        {
          "internalType": "bool",
          "name": "",
          "type": "bool"
        }
      ],
      "stateMutability": "view",
      "type": "function"
    },
    {
      "inputs": [],
      "name": "proxiableUUID",
      "outputs": [
        {
          "internalType": "bytes32",
          "name": "",
          "type": "bytes32"
        }
      ],
      "stateMutability": "view",
      "type": "function"
    },
    {
      "inputs": [],
      "name": "renounceOwnership",
      "outputs": [],
      "stateMutability": "nonpayable",
      "type": "function"
    },
    {
      "inputs": [
        {
          "internalType": "bool",
          "name": "_value",
          "type": "bool"
        }
      ],
      "name": "setIsPayReferralOnStaking",
      "outputs": [
        {
          "internalType": "bool",
          "name": "",
          "type": "bool"
        }
      ],
      "stateMutability": "nonpayable",
      "type": "function"
    },
    {
      "inputs": [
        {
          "internalType": "uint8",
          "name": "_valueInDecimals",
          "type": "uint8"
        }
      ],
      "name": "setMaxPackageLength",
      "outputs": [],
      "stateMutability": "nonpayable",
      "type": "function"
    },
    {
      "inputs": [
        {
          "internalType": "uint256",
          "name": "_value",
          "type": "uint256"
        }
      ],
      "name": "setMinStakingValue",
      "outputs": [
        {
          "internalType": "uint256",
          "name": "",
          "type": "uint256"
        }
      ],
      "stateMutability": "nonpayable",
      "type": "function"
    },
    {
      "inputs": [
        {
          "internalType": "uint256[]",
          "name": "_valuesInDecimals",
          "type": "uint256[]"
        },
        {
          "internalType": "uint256[]",
          "name": "_rewardRateInPer",
          "type": "uint256[]"
        },
        {
          "internalType": "uint256[]",
          "name": "_durationsInDays",
          "type": "uint256[]"
        }
      ],
      "name": "setPackage",
      "outputs": [],
      "stateMutability": "nonpayable",
      "type": "function"
    },
    {
      "inputs": [
        {
          "internalType": "uint8",
          "name": "_valueInDecimals",
          "type": "uint8"
        }
      ],
      "name": "setRewardRateDecimals",
      "outputs": [],
      "stateMutability": "nonpayable",
      "type": "function"
    },
    {
      "inputs": [
        {
          "internalType": "uint256",
          "name": "_valueInSeconds",
          "type": "uint256"
        }
      ],
      "name": "setTimeLimitRewardClaim",
      "outputs": [],
      "stateMutability": "nonpayable",
      "type": "function"
    },
    {
      "inputs": [
        {
          "internalType": "address",
          "name": "_referrerAddress",
          "type": "address"
        },
        {
          "internalType": "uint256",
          "name": "_packageID",
          "type": "uint256"
        }
      ],
      "name": "stake",
      "outputs": [],
      "stateMutability": "payable",
      "type": "function"
    },
    {
      "inputs": [
        {
          "internalType": "uint256",
          "name": "_stakingID",
          "type": "uint256"
        }
      ],
      "name": "stakeInfoMap",
      "outputs": [
        {
          "components": [
            {
              "internalType": "bool",
              "name": "isStaked",
              "type": "bool"
            },
            {
              "internalType": "address",
              "name": "owner",
              "type": "address"
            },
            {
              "internalType": "uint256",
              "name": "value",
              "type": "uint256"
            },
            {
              "internalType": "uint256",
              "name": "rewardRate",
              "type": "uint256"
            },
            {
              "internalType": "uint256",
              "name": "startTime",
              "type": "uint256"
            },
            {
              "internalType": "uint256",
              "name": "duration",
              "type": "uint256"
            },
            {
              "internalType": "uint256",
              "name": "rewardClaimed",
              "type": "uint256"
            },
            {
              "internalType": "uint256",
              "name": "lastTimeRewardClaimed",
              "type": "uint256"
            },
            {
              "internalType": "uint256[]",
              "name": "blockNumber",
              "type": "uint256[]"
            }
          ],
          "internalType": "struct StakingUpgradeable.StakeInfo",
          "name": "",
          "type": "tuple"
        }
      ],
      "stateMutability": "view",
      "type": "function"
    },
    {
      "inputs": [
        {
          "internalType": "address",
          "name": "newOwner",
          "type": "address"
        }
      ],
      "name": "transferOwnership",
      "outputs": [],
      "stateMutability": "nonpayable",
      "type": "function"
    },
    {
      "inputs": [
        {
          "internalType": "uint256",
          "name": "_stakingID",
          "type": "uint256"
        }
      ],
      "name": "unStake",
      "outputs": [],
      "stateMutability": "nonpayable",
      "type": "function"
    },
    {
      "inputs": [],
      "name": "unpause",
      "outputs": [],
      "stateMutability": "nonpayable",
      "type": "function"
    },
    {
      "inputs": [
        {
          "internalType": "address",
          "name": "_presaleAddress",
          "type": "address"
        }
      ],
      "name": "updatePresaleContract",
      "outputs": [
        {
          "internalType": "address",
          "name": "",
          "type": "address"
        }
      ],
      "stateMutability": "nonpayable",
      "type": "function"
    },
    {
      "inputs": [
        {
          "internalType": "address",
          "name": "_referralAddress",
          "type": "address"
        }
      ],
      "name": "updateReferralContract",
      "outputs": [
        {
          "internalType": "address",
          "name": "",
          "type": "address"
        }
      ],
      "stateMutability": "nonpayable",
      "type": "function"
    },
    {
      "inputs": [
        {
          "internalType": "address",
          "name": "newImplementation",
          "type": "address"
        }
      ],
      "name": "upgradeTo",
      "outputs": [],
      "stateMutability": "nonpayable",
      "type": "function"
    },
    {
      "inputs": [
        {
          "internalType": "address",
          "name": "newImplementation",
          "type": "address"
        },
        {
          "internalType": "bytes",
          "name": "data",
          "type": "bytes"
        }
      ],
      "name": "upgradeToAndCall",
      "outputs": [],
      "stateMutability": "payable",
      "type": "function"
    },
    {
      "inputs": [
        {
          "internalType": "address",
          "name": "_userAddress",
          "type": "address"
        }
      ],
      "name": "userAccountMap",
      "outputs": [
        {
          "components": [
            {
              "internalType": "uint256[]",
              "name": "stakingID",
              "type": "uint256[]"
            },
            {
              "internalType": "uint256[]",
              "name": "blockNumber",
              "type": "uint256[]"
            },
            {
              "internalType": "bool",
              "name": "isDisabled",
              "type": "bool"
            }
          ],
          "internalType": "struct StakingUpgradeable.Account",
          "name": "",
          "type": "tuple"
        }
      ],
      "stateMutability": "view",
      "type": "function"
    },
    {
      "inputs": [
        {
          "internalType": "address",
          "name": "_receiver",
          "type": "address"
        },
        {
          "internalType": "uint256",
          "name": "_value",
          "type": "uint256"
        }
      ],
      "name": "withdrawNativeFunds",
      "outputs": [
        {
          "internalType": "bool",
          "name": "",
          "type": "bool"
        }
      ],
      "stateMutability": "nonpayable",
      "type": "function"
    },
    {
      "inputs": [
        {
          "internalType": "address",
          "name": "_tokenAddress",
          "type": "address"
        },
        {
          "internalType": "address",
          "name": "_receiver",
          "type": "address"
        },
        {
          "internalType": "uint256",
          "name": "_value",
          "type": "uint256"
        }
      ],
      "name": "withdrawTokens",
      "outputs": [
        {
          "internalType": "bool",
          "name": "",
          "type": "bool"
        }
      ],
      "stateMutability": "nonpayable",
      "type": "function"
    },
    {
      "stateMutability": "payable",
      "type": "receive"
    }
  ],
  "bytecode": "0x60a06040523060805234801561001457600080fd5b5060805161369a61004c60003960008181610c3101528181610c7101528181610e8301528181610ec30152610f56015261369a6000f3fe6080604052600436106102815760003560e01c80638456cb591161014f578063aeb6263d116100c1578063dba4358c1161007a578063dba4358c14610797578063deede654146107ac578063e3a51f58146107c1578063f1012b4514610816578063f2fde38b14610834578063fc57e69b1461085457600080fd5b8063aeb6263d146106d5578063ba4f678e146106f5578063c06a538814610722578063d3460d8a14610737578063d596fe7f14610757578063d8ba90b71461077757600080fd5b80639d3610dc116101135780639d3610dc146105f8578063a40b589114610618578063a7566b7514610655578063abfe35ad14610682578063adc9772e146106a2578063ae3132e8146106b557600080fd5b80638456cb591461056557806388ed4f911461057a5780638da5cb5b1461059a57806397eee060146105b85780639c3fe28a146105d857600080fd5b806353bdadea116101f35780636177fd18116101ac5780636177fd18146104c45780636f51b20b146104e45780636f72693b14610511578063715018a6146105265780637ce574bf1461053b5780638129fc1c1461055057600080fd5b806353bdadea1461040757806358628d57146104275780635c05a89f146104475780635c975abb1461046c5780635d3eea91146104845780635e35359e146104a457600080fd5b80633659cfe6116102455780633659cfe61461035c5780633b09098f1461037c5780633f4ba83a1461039c578063469bbc12146103b15780634f1ef286146103df57806352d1902d146103f257600080fd5b80631124f7dd1461028d57806323442c60146102ca578063239cd4a4146102e8578063260cb4e91461030a57806326792aca1461032c57600080fd5b3661028857005b600080fd5b34801561029957600080fd5b506102ad6102a8366004612eb5565b610874565b6040516001600160a01b0390911681526020015b60405180910390f35b3480156102d657600080fd5b5060fc546001600160a01b03166102ad565b3480156102f457600080fd5b50610308610303366004612ed0565b6108a3565b005b34801561031657600080fd5b5061031f610a71565b6040516102c19190612ee9565b34801561033857600080fd5b5061034c610347366004612f2a565b610bdb565b60405190151581526020016102c1565b34801561036857600080fd5b50610308610377366004612eb5565b610c27565b34801561038857600080fd5b50610308610397366004612fa0565b610d06565b3480156103a857600080fd5b50610308610d85565b3480156103bd57600080fd5b506103d16103cc366004612eb5565b610d97565b6040519081526020016102c1565b6103086103ed366004612ff8565b610e79565b3480156103fe57600080fd5b506103d1610f49565b34801561041357600080fd5b50610308610422366004612fa0565b610ffc565b34801561043357600080fd5b50610308610442366004612ed0565b611070565b34801561045357600080fd5b5061045c61107e565b6040516102c194939291906130f5565b34801561047857600080fd5b5060335460ff1661034c565b34801561049057600080fd5b5061030861049f366004612ed0565b611232565b3480156104b057600080fd5b5061034c6104bf366004613140565b6113cb565b3480156104d057600080fd5b5061034c6104df366004612eb5565b611455565b3480156104f057600080fd5b506105046104ff366004612eb5565b611513565b6040516102c1919061317c565b34801561051d57600080fd5b50610504611580565b34801561053257600080fd5b506103086116ef565b34801561054757600080fd5b5060ff546103d1565b34801561055c57600080fd5b50610308611701565b34801561057157600080fd5b506103086118ab565b34801561058657600080fd5b50610308610595366004612fa0565b6118bb565b3480156105a657600080fd5b506065546001600160a01b03166102ad565b3480156105c457600080fd5b506103086105d336600461318f565b611963565b3480156105e457600080fd5b506103d16105f3366004612eb5565b611982565b34801561060457600080fd5b5061034c6106133660046131c0565b611a6b565b34801561062457600080fd5b5061034c610633366004612eb5565b6001600160a01b03166000908152610105602052604090206002015460ff1690565b34801561066157600080fd5b50610675610670366004612ed0565b611a8d565b6040516102c191906131dd565b34801561068e57600080fd5b506103d161069d366004612ed0565b611bbb565b6103086106b0366004612f2a565b611bc6565b3480156106c157600080fd5b506103d16106d0366004612eb5565b611cf3565b3480156106e157600080fd5b506103086106f036600461318f565b611da3565b34801561070157600080fd5b50610715610710366004612eb5565b611dc2565b6040516102c19190613272565b34801561072e57600080fd5b5061031f611ebc565b34801561074357600080fd5b506102ad610752366004612eb5565b612006565b34801561076357600080fd5b506103d1610772366004612ed0565b612033565b34801561078357600080fd5b506103d1610792366004612ed0565b612047565b3480156107a357600080fd5b5061031f6120ac565b3480156107b857600080fd5b5060fe546103d1565b3480156107cd57600080fd5b50610101546101035461010254610104546101005460408051958652602086019490945260ff92831615159385019390935216606083015261ffff16608082015260a0016102c1565b34801561082257600080fd5b5060fb546001600160a01b03166102ad565b34801561084057600080fd5b5061030861084f366004612eb5565b612210565b34801561086057600080fd5b5061030861086f3660046132c4565b612286565b600061087e61232c565b5060fb80546001600160a01b0319166001600160a01b0383169081179091555b919050565b6000818152610106602090815260408083203380855261010590935292206002810154919291439060ff16156108f45760405162461bcd60e51b81526004016108eb9061335e565b60405180910390fd5b825460ff1615156001146109425760405162461bcd60e51b81526020600482015260156024820152745374616b696e67206973206e6f742061637469766560581b60448201526064016108eb565b82546001600160a01b0385811661010090920416146109a35760405162461bcd60e51b815260206004820152601760248201527f536f72727920796f7520617265206e6f74206f776e657200000000000000000060448201526064016108eb565b426101035484600601546109b791906133c4565b11610a1f5760405162461bcd60e51b815260206004820152603260248201527f596f7572206c6173742072657761726420636c61696d2074696d65206c696d696044820152713a1034b9903737ba1037bb32b9103cb2ba1760711b60648201526084016108eb565b6000610a2a86612386565b9050610a3a85878686858761241a565b50604051339082156108fc029083906000818181858888f19350505050158015610a68573d6000803e3d6000fd5b50505050505050565b6000808052610105602090815260fd80546040805182850281018501909152818152606094936000805160206136458339815191529385939091830182828015610ae457602002820191906000526020600020905b81546001600160a01b03168152600190910190602001808311610ac6575b5050505050905060008151905060008167ffffffffffffffff811115610b0c57610b0c612fe2565b604051908082528060200260200182016040528015610b35578160200160208202803683370190505b5090506000805b83811015610bcf57848181518110610b5657610b566133d7565b60200260200101519650610b6a83886124c5565b1515600114610bbd57600286015460ff161515600103610bbd5786838381518110610b9757610b976133d7565b6001600160a01b039092166020928302919091019091015281610bb9816133ed565b9250505b80610bc7816133ed565b915050610b3c565b50909695505050505050565b6000610be561232c565b6040516001600160a01b0384169083156108fc029084906000818181858888f19350505050158015610c1b573d6000803e3d6000fd5b50600190505b92915050565b6001600160a01b037f0000000000000000000000000000000000000000000000000000000000000000163003610c6f5760405162461bcd60e51b81526004016108eb90613406565b7f00000000000000000000000000000000000000000000000000000000000000006001600160a01b0316610cb86000805160206135fe833981519152546001600160a01b031690565b6001600160a01b031614610cde5760405162461bcd60e51b81526004016108eb90613452565b610ce78161252a565b60408051600080825260208201909252610d0391839190612532565b50565b610d0e61232c565b600080805261010560205260008051602061364583398151915282825b81811015610d7d57858582818110610d4557610d456133d7565b9050602002016020810190610d5a9190612eb5565b60028401805460ff19166001179055935080610d75816133ed565b915050610d2b565b505050505050565b610d8d61232c565b610d956126a2565b565b6001600160a01b038116600090815261010560209081526040808320805482518185028101850190935280835290928492918491830182828015610dfa57602002820191906000526020600020905b815481526020019060010190808311610de6575b505083519394506000925050505b81811015610e7057610e32838281518110610e2557610e256133d7565b6020026020010151611a8d565b5115610e5e57610e4d838281518110610e2557610e256133d7565b60400151610e5b90866133c4565b94505b80610e68816133ed565b915050610e08565b50505050919050565b6001600160a01b037f0000000000000000000000000000000000000000000000000000000000000000163003610ec15760405162461bcd60e51b81526004016108eb90613406565b7f00000000000000000000000000000000000000000000000000000000000000006001600160a01b0316610f0a6000805160206135fe833981519152546001600160a01b031690565b6001600160a01b031614610f305760405162461bcd60e51b81526004016108eb90613452565b610f398261252a565b610f4582826001612532565b5050565b6000306001600160a01b037f00000000000000000000000000000000000000000000000000000000000000001614610fe95760405162461bcd60e51b815260206004820152603860248201527f555550535570677261646561626c653a206d757374206e6f742062652063616c60448201527f6c6564207468726f7567682064656c656761746563616c6c000000000000000060648201526084016108eb565b506000805160206135fe83398151915290565b61100461232c565b600080805261010560205260008051602061364583398151915282825b81811015610d7d5785858281811061103b5761103b6133d7565b90506020020160208101906110509190612eb5565b60028401805460ff19169055935080611068816133ed565b915050611021565b61107861232c565b61010355565b6101045460609081908190600090819060ff1667ffffffffffffffff8111156110a9576110a9612fe2565b6040519080825280602002602001820160405280156110d2578160200160208202803683370190505b506101045490915060009060ff1667ffffffffffffffff8111156110f8576110f8612fe2565b604051908082528060200260200182016040528015611121578160200160208202803683370190505b506101045490915060009060ff1667ffffffffffffffff81111561114757611147612fe2565b604051908082528060200260200182016040528015611170578160200160208202803683370190505b50905060005b6101045460ff168110156112245761118d816126f4565b600001518482815181106111a3576111a36133d7565b6020026020010181815250506111b8816126f4565b602001518382815181106111ce576111ce6133d7565b6020026020010181815250506111e3816126f4565b604001518282815181106111f9576111f96133d7565b60209081029190910101528461120e816133ed565b955050808061121c906133ed565b915050611176565b509196909550909350909150565b33600081815261010560209081526040808320858452610106909252909120600282015443924292909160ff161561127c5760405162461bcd60e51b81526004016108eb9061335e565b805460ff166112c55760405162461bcd60e51b81526020600482015260156024820152745374616b696e67206973206e6f742061637469766560581b60448201526064016108eb565b80546001600160a01b0386811661010090920416146113365760405162461bcd60e51b815260206004820152602760248201527f536f72727920796f7520617265206e6f74206f776e6572206f662074686973206044820152667374616b696e6760c81b60648201526084016108eb565b828160040154826003015461134b91906133c4565b116113985760405162461bcd60e51b815260206004820152601b60248201527f596f75207374616b696e67206973206e6f74206f76657220796574000000000060448201526064016108eb565b60006113a387612386565b90506113b386888486858a61241a565b506113c18688848689612752565b5050505050505050565b60006113d561232c565b60405163a9059cbb60e01b81526001600160a01b0384811660048301526024820184905285169063a9059cbb906044016020604051808303816000875af1158015611424573d6000803e3d6000fd5b505050506040513d601f19601f82011682018060405250810190611448919061349e565b50600190505b9392505050565b6001600160a01b0381166000908152610105602090815260408083208054825181850281018501909352808352909284929184918301828280156114b857602002820191906000526020600020905b8154815260200190600101908083116114a4575b505083519394506000925050505b81811015611507576114e3838281518110610e2557610e256133d7565b51156114f55750600195945050505050565b806114ff816133ed565b9150506114c6565b50600095945050505050565b6001600160a01b0381166000908152610105602090815260409182902080548351818402810184019094528084526060939283018282801561157457602002820191906000526020600020905b815481526020019060010190808311611560575b50505050509050919050565b60fd546060906000805b828110156115c55761159b81611a8d565b5115156001036115b357816115af816133ed565b9250505b806115bd816133ed565b91505061158a565b5060008167ffffffffffffffff8111156115e1576115e1612fe2565b60405190808252806020026020018201604052801561160a578160200160208202803683370190505b50905060008267ffffffffffffffff81111561162857611628612fe2565b604051908082528060200260200182016040528015611651578160200160208202803683370190505b50905060005b848110156116e55761166881611a8d565b51151560010361169c5761167d8160016133c4565b83828151811061168f5761168f6133d7565b6020026020010181815250505b6116a581611a8d565b602001518282815181106116bb576116bb6133d7565b6001600160a01b0390921660209283029190910190910152806116dd816133ed565b915050611657565b5090949350505050565b6116f761232c565b610d9560006127ef565b600054610100900460ff16158080156117215750600054600160ff909116105b8061173b5750303b15801561173b575060005460ff166001145b61179e5760405162461bcd60e51b815260206004820152602e60248201527f496e697469616c697a61626c653a20636f6e747261637420697320616c72656160448201526d191e481a5b9a5d1a585b1a5e995960921b60648201526084016108eb565b6000805460ff1916600117905580156117c1576000805461ff0019166101001790555b60fb80546001600160a01b031990811673d15a7571030817b0c6cf84e7a130c492c4997a5f1790915560fc8054909116730f4b542493e591bd817c5280d1f748510b39e624179055678ac7230489e8000061010155610102805460ff19908116600117909155610100805461ffff19166064179055620151806101035561010480549091166003179055611853612841565b61185b612870565b61186361289f565b8015610d03576000805461ff0019169055604051600181527f7f26b83ff96e1f2b6a682f133852f6798a09c465da95921460cefb38474024989060200160405180910390a150565b6118b361232c565b610d956128c6565b6118c361232c565b6000808052610105602052807f36b574eb542e18a2932b42c3f7b99e0cccde75c2d7e80ac19800931af8e17fa260008051602061364583398151915243835b868110156113c15787878281811061191c5761191c6133d7565b865461010090046001600160a01b031698506020029190910135955061195090508686868661194a83612386565b8761241a565b508061195b816133ed565b915050611902565b61196b61232c565b610104805460ff191660ff92909216919091179055565b6001600160a01b038116600090815261010560209081526040808320805482518185028101850190935280835284938301828280156119e057602002820191906000526020600020905b8154815260200190600101908083116119cc575b505050505090506000815190506000805b828160ff161015611a6257611a14848260ff1681518110610e2557610e256133d7565b511515600103611a5057611a43848260ff1681518110611a3657611a366133d7565b6020026020010151612386565b611a4d90836133c4565b91505b80611a5a816134bb565b9150506119f1565b50949350505050565b6000611a7561232c565b50610102805460ff1916911515918217905560ff1690565b611ae760405180610120016040528060001515815260200160006001600160a01b03168152602001600081526020016000815260200160008152602001600081526020016000815260200160008152602001606081525090565b60008281526101066020908152604091829020825161012081018452815460ff8116151582526001600160a01b036101009182900416828501526001830154828601526002830154606083015260038301546080830152600483015460a0830152600583015460c0830152600683015460e08301526007830180548651818702810187019097528087529295939491860193929091830182828015611bab57602002820191906000526020600020905b815481526020019060010190808311611b97575b5050505050815250509050919050565b6000610c2182612386565b611bce612903565b6101015433903490811015611c395760405162461bcd60e51b815260206004820152602b60248201527f5374616b696e672076616c75652073686f756c64206265203e3d206d696e537460448201526a30b5b4b733ab30b63ab29760a91b60648201526084016108eb565b60008381526101076020526040902060018101546002820154611c60918591859190612949565b506101025460ff1615611cec5760fc54604051631eb714b160e31b8152600481018490526001600160a01b03858116602483015287811660448301529091169063f5b8a588906064016020604051808303816000875af1158015611cc8573d6000803e3d6000fd5b505050506040513d601f19601f82011682018060405250810190610d7d919061349e565b5050505050565b6001600160a01b038116600090815261010560209081526040808320805482518185028101850190935280835290928492918491830182828015611d5657602002820191906000526020600020905b815481526020019060010190808311611d42575b505083519394506000925050505b81811015610e7057611d81838281518110610e2557610e256133d7565b60c00151611d8f90866133c4565b945080611d9b816133ed565b915050611d64565b611dab61232c565b610100805461ffff191660ff909216919091179055565b6040805160608082018352808252602080830182905260008385018190526001600160a01b03861681526101058252849020845181549283028101608090810190965292830182815293949293909284928491840182828015611e4457602002820191906000526020600020905b815481526020019060010190808311611e30575b5050505050815260200160018201805480602002602001604051908101604052809291908181526020018280548015611e9c57602002820191906000526020600020905b815481526020019060010190808311611e88575b50505091835250506002919091015460ff16151560209091015292915050565b6060600060fd805480602002602001604051908101604052809291908181526020018280548015611f1657602002820191906000526020600020905b81546001600160a01b03168152600190910190602001808311611ef8575b5050505050905060008151905060008167ffffffffffffffff811115611f3e57611f3e612fe2565b604051908082528060200260200182016040528015611f67578160200160208202803683370190505b5090506000805b838110156116e557611f9983868381518110611f8c57611f8c6133d7565b60200260200101516124c5565b1515600114611ff457848181518110611fb457611fb46133d7565b6020026020010151838381518110611fce57611fce6133d7565b6001600160a01b039092166020928302919091019091015281611ff0816133ed565b9250505b80611ffe816133ed565b915050611f6e565b600061201061232c565b5060fc80546001600160a01b0319166001600160a01b0392909216918217905590565b600061203d61232c565b5061010181905590565b60008181526101066020526040812060048101546003820154429291849161206f91906133c4565b9050808310156120a157828260040154836003015461208e91906133c4565b61209891906134da565b95945050505050565b506000949350505050565b6060600060fd80548060200260200160405190810160405280929190818152602001828054801561210657602002820191906000526020600020905b81546001600160a01b031681526001909101906020018083116120e8575b5050505050905060008151905060008167ffffffffffffffff81111561212e5761212e612fe2565b604051908082528060200260200182016040528015612157578160200160208202803683370190505b5090506000805b838110156116e55761217c83868381518110611f8c57611f8c6133d7565b15156001146121fe576121a785828151811061219a5761219a6133d7565b6020026020010151611455565b156121fe578481815181106121be576121be6133d7565b60200260200101518383815181106121d8576121d86133d7565b6001600160a01b0390921660209283029190910190910152816121fa816133ed565b9250505b80612208816133ed565b91505061215e565b61221861232c565b6001600160a01b03811661227d5760405162461bcd60e51b815260206004820152602660248201527f4f776e61626c653a206e6577206f776e657220697320746865207a65726f206160448201526564647265737360d01b60648201526084016108eb565b610d03816127ef565b61228e61232c565b610d7d86868080602002602001604051908101604052809392919081815260200183836020028082843760009201919091525050604080516020808a0282810182019093528982529093508992508891829185019084908082843760009201919091525050604080516020808902828101820190935288825290935088925087918291850190849080828437600092019190915250612aa092505050565b6065546001600160a01b03163314610d955760405162461bcd60e51b815260206004820181905260248201527f4f776e61626c653a2063616c6c6572206973206e6f7420746865206f776e657260448201526064016108eb565b600081815261010660205260408120600381015442919083906123a990846134da565b6004830154610100546002850154600186015493945060009361ffff909216916123d391906134ed565b6123dd9190613504565b6123e79190613504565b905082600501546123fc838560040154612bb1565b61240690836134ed565b61241091906134da565b9695505050505050565b60008285600501600082825461243091906133c4565b909155505042600686015560078501805460018181018355600092835260208084209092018590558681018054918201815583529082200183905560ff805485929061247d9084906133c4565b9091555050604051869084906001600160a01b038a16907fd6ab86e55e7211dddcda4c7c65e9e1c75f06b5da6b05222f8cd39b93986fecad90600090a4509095945050505050565b6000805b835181101561252057826001600160a01b03168482815181106124ee576124ee6133d7565b60200260200101516001600160a01b03160361250e576001915050610c21565b80612518816133ed565b9150506124c9565b5060009392505050565b610d0361232c565b7f4910fdfa16fed3260ed0e7147f7cc6da11a60208b5b9406d12a635614ffd91435460ff161561256a5761256583612bc7565b505050565b826001600160a01b03166352d1902d6040518163ffffffff1660e01b8152600401602060405180830381865afa9250505080156125c4575060408051601f3d908101601f191682019092526125c191810190613526565b60015b6126275760405162461bcd60e51b815260206004820152602e60248201527f45524331393637557067726164653a206e657720696d706c656d656e7461746960448201526d6f6e206973206e6f74205555505360901b60648201526084016108eb565b6000805160206135fe83398151915281146126965760405162461bcd60e51b815260206004820152602960248201527f45524331393637557067726164653a20756e737570706f727465642070726f786044820152681a58589b195555525160ba1b60648201526084016108eb565b50612565838383612c63565b6126aa612c8e565b6033805460ff191690557f5db9ee0a495bf2e6ff9c91a7834c1ba4fdd244a5e8aa4e537bd38aeae4b073aa335b6040516001600160a01b03909116815260200160405180910390a1565b61271860405180606001604052806000815260200160008152602001600081525090565b5060009081526101076020908152604091829020825160608101845281548152600182015492810192909252600201549181019190915290565b825460ff1916835560078301805460018181018355600092835260208084209092018490558481018054808301825590845291832090910183905584015460fe805483906127a19084906134da565b909155505060018401546040518691906001600160a01b038916907ff960dbf9e5d0682f7a298ed974e33a28b4464914b7a2bfac12ae419a9afeb28090600090a45050506001015492915050565b606580546001600160a01b038381166001600160a01b0319831681179093556040519116919082907f8be0079c531659141344cd1fd0a4f28419497f9722a3daafe3b4186f6b6457e090600090a35050565b600054610100900460ff166128685760405162461bcd60e51b81526004016108eb9061353f565b610d95612cd7565b600054610100900460ff166128975760405162461bcd60e51b81526004016108eb9061353f565b610d95612d0a565b600054610100900460ff16610d955760405162461bcd60e51b81526004016108eb9061353f565b6128ce612903565b6033805460ff191660011790557f62e78cea01bee320cd4e420270b5ea74000d11b0c9f74754ebdbfc544b05a2586126d73390565b60335460ff1615610d955760405162461bcd60e51b815260206004820152601060248201526f14185d5cd8589b194e881c185d5cd95960821b60448201526064016108eb565b60fd8054600180820183557f9346ac6dd7de6b96975fec380d4d994c4c12e6a8897544f22915316cc6cca28090910180546001600160a01b0319166001600160a01b0388169081179091559154600083815261010560209081526040808320848452610106835290832081548087018355828552838520018590558186018054808801825590855283852043910181905581546001600160a81b03191661010090980297909717861781554260038201819055600482018990558187018b9055600282018a90556007820180549788018155855292842090950186905560fe8054939694959294939192918a91908890612a449084906133c4565b9250508190555086898b6001600160a01b03167ff556991011e831bcfac4f406d547e5e32cdd98267efab83935230d5f8d02c44688604051612a8891815260200190565b60405180910390a45060019998505050505050505050565b82516101045460ff16811115612af85760405162461bcd60e51b815260206004820152601860248201527f457863656564696e67207061636b616765206c656e677468000000000000000060448201526064016108eb565b60005b81811015611cec57848181518110612b1557612b156133d7565b6020026020010151610107600083815260200190815260200160002060000181905550838181518110612b4a57612b4a6133d7565b6020026020010151610107600083815260200190815260200160002060010181905550828181518110612b7f57612b7f6133d7565b602090810291909101810151600083815261010790925260409091206002015580612ba9816133ed565b915050612afb565b6000818310612bc0578161144e565b5090919050565b6001600160a01b0381163b612c345760405162461bcd60e51b815260206004820152602d60248201527f455243313936373a206e657720696d706c656d656e746174696f6e206973206e60448201526c1bdd08184818dbdb9d1c9858dd609a1b60648201526084016108eb565b6000805160206135fe83398151915280546001600160a01b0319166001600160a01b0392909216919091179055565b612c6c83612d3a565b600082511180612c795750805b1561256557612c888383612d7a565b50505050565b60335460ff16610d955760405162461bcd60e51b815260206004820152601460248201527314185d5cd8589b194e881b9bdd081c185d5cd95960621b60448201526064016108eb565b600054610100900460ff16612cfe5760405162461bcd60e51b81526004016108eb9061353f565b6033805460ff19169055565b600054610100900460ff16612d315760405162461bcd60e51b81526004016108eb9061353f565b610d95336127ef565b612d4381612bc7565b6040516001600160a01b038216907fbc7cd75a20ee27fd9adebab32041f755214dbc6bffa90cc0225b39da2e5c2d3b90600090a250565b60606001600160a01b0383163b612de25760405162461bcd60e51b815260206004820152602660248201527f416464726573733a2064656c65676174652063616c6c20746f206e6f6e2d636f6044820152651b9d1c9858dd60d21b60648201526084016108eb565b600080846001600160a01b031684604051612dfd91906135ae565b600060405180830381855af49150503d8060008114612e38576040519150601f19603f3d011682016040523d82523d6000602084013e612e3d565b606091505b5091509150612098828260405180606001604052806027815260200161361e6027913960608315612e6f57508161144e565b61144e8383815115612e845781518083602001fd5b8060405162461bcd60e51b81526004016108eb91906135ca565b80356001600160a01b038116811461089e57600080fd5b600060208284031215612ec757600080fd5b61144e82612e9e565b600060208284031215612ee257600080fd5b5035919050565b6020808252825182820181905260009190848201906040850190845b81811015610bcf5783516001600160a01b031683529284019291840191600101612f05565b60008060408385031215612f3d57600080fd5b612f4683612e9e565b946020939093013593505050565b60008083601f840112612f6657600080fd5b50813567ffffffffffffffff811115612f7e57600080fd5b6020830191508360208260051b8501011115612f9957600080fd5b9250929050565b60008060208385031215612fb357600080fd5b823567ffffffffffffffff811115612fca57600080fd5b612fd685828601612f54565b90969095509350505050565b634e487b7160e01b600052604160045260246000fd5b6000806040838503121561300b57600080fd5b61301483612e9e565b9150602083013567ffffffffffffffff8082111561303157600080fd5b818501915085601f83011261304557600080fd5b81358181111561305757613057612fe2565b604051601f8201601f19908116603f0116810190838211818310171561307f5761307f612fe2565b8160405282815288602084870101111561309857600080fd5b8260208601602083013760006020848301015280955050505050509250929050565b600081518084526020808501945080840160005b838110156130ea578151875295820195908201906001016130ce565b509495945050505050565b60808152600061310860808301876130ba565b828103602084015261311a81876130ba565b9050828103604084015261312e81866130ba565b91505082606083015295945050505050565b60008060006060848603121561315557600080fd5b61315e84612e9e565b925061316c60208501612e9e565b9150604084013590509250925092565b60208152600061144e60208301846130ba565b6000602082840312156131a157600080fd5b813560ff8116811461144e57600080fd5b8015158114610d0357600080fd5b6000602082840312156131d257600080fd5b813561144e816131b2565b602081526131f060208201835115159052565b6000602083015161320c60408401826001600160a01b03169052565b506040830151606083015260608301516080830152608083015160a083015260a083015160c083015260c083015160e083015260e083015161010081818501528085015191505061012080818501525061326a6101408401826130ba565b949350505050565b60208152600082516060602084015261328e60808401826130ba565b90506020840151601f198483030160408501526132ab82826130ba565b9150506040840151151560608401528091505092915050565b600080600080600080606087890312156132dd57600080fd5b863567ffffffffffffffff808211156132f557600080fd5b6133018a838b01612f54565b9098509650602089013591508082111561331a57600080fd5b6133268a838b01612f54565b9096509450604089013591508082111561333f57600080fd5b5061334c89828a01612f54565b979a9699509497509295939492505050565b60208082526030908201527f596f7572206163636f756e742069732064697361626c65642e20506c6561736560408201526f1031b7b73a3930b1ba1030b236b4b71760811b606082015260800190565b634e487b7160e01b600052601160045260246000fd5b80820180821115610c2157610c216133ae565b634e487b7160e01b600052603260045260246000fd5b6000600182016133ff576133ff6133ae565b5060010190565b6020808252602c908201527f46756e6374696f6e206d7573742062652063616c6c6564207468726f7567682060408201526b19195b1959d85d1958d85b1b60a21b606082015260800190565b6020808252602c908201527f46756e6374696f6e206d7573742062652063616c6c6564207468726f7567682060408201526b6163746976652070726f787960a01b606082015260800190565b6000602082840312156134b057600080fd5b815161144e816131b2565b600060ff821660ff81036134d1576134d16133ae565b60010192915050565b81810381811115610c2157610c216133ae565b8082028115828204841417610c2157610c216133ae565b60008261352157634e487b7160e01b600052601260045260246000fd5b500490565b60006020828403121561353857600080fd5b5051919050565b6020808252602b908201527f496e697469616c697a61626c653a20636f6e7472616374206973206e6f74206960408201526a6e697469616c697a696e6760a81b606082015260800190565b60005b838110156135a557818101518382015260200161358d565b50506000910152565b600082516135c081846020870161358a565b9190910192915050565b60208152600082518060208401526135e981604085016020870161358a565b601f01601f1916919091016040019291505056fe360894a13ba1a3210667c828492db98dca3e2076cc3735a920a3ca505d382bbc416464726573733a206c6f772d6c6576656c2064656c65676174652063616c6c206661696c6564a5baec7d73105a3c7298203bb205bbc41b63fa384ae73a6016b890a7ca29ae2da26469706673582212209d7b7a4b7b9aad9222fd946220520da24cfe071f6121f395a3ca8cca80b1eff964736f6c63430008110033",
  "linkReferences": {},
  "deployedLinkReferences": {}
}